{
	"src/sstore2/AssetsSSTORE2.sol": {
		"AssetsSSTORE2": {
			"abi": [
				{
					"inputs": [],
					"stateMutability": "nonpayable",
					"type": "constructor"
				},
				{
					"inputs": [
						{
							"internalType": "address",
							"name": "owner",
							"type": "address"
						}
					],
					"name": "OwnableInvalidOwner",
					"type": "error"
				},
				{
					"inputs": [
						{
							"internalType": "address",
							"name": "account",
							"type": "address"
						}
					],
					"name": "OwnableUnauthorizedAccount",
					"type": "error"
				},
				{
					"anonymous": false,
					"inputs": [
						{
							"indexed": true,
							"internalType": "address",
							"name": "previousOwner",
							"type": "address"
						},
						{
							"indexed": true,
							"internalType": "address",
							"name": "newOwner",
							"type": "address"
						}
					],
					"name": "OwnershipTransferred",
					"type": "event"
				},
				{
					"inputs": [
						{
							"internalType": "uint256",
							"name": "key",
							"type": "uint256"
						},
						{
							"internalType": "bytes",
							"name": "asset",
							"type": "bytes"
						}
					],
					"name": "addAsset",
					"outputs": [],
					"stateMutability": "nonpayable",
					"type": "function"
				},
				{
					"inputs": [
						{
							"internalType": "uint256",
							"name": "key",
							"type": "uint256"
						},
						{
							"internalType": "bool",
							"name": "decompress",
							"type": "bool"
						}
					],
					"name": "loadAsset",
					"outputs": [
						{
							"internalType": "bytes",
							"name": "",
							"type": "bytes"
						}
					],
					"stateMutability": "view",
					"type": "function"
				},
				{
					"inputs": [
						{
							"internalType": "uint256",
							"name": "key",
							"type": "uint256"
						}
					],
					"name": "loadAsset",
					"outputs": [
						{
							"internalType": "bytes",
							"name": "",
							"type": "bytes"
						}
					],
					"stateMutability": "view",
					"type": "function"
				},
				{
					"inputs": [],
					"name": "owner",
					"outputs": [
						{
							"internalType": "address",
							"name": "",
							"type": "address"
						}
					],
					"stateMutability": "view",
					"type": "function"
				},
				{
					"inputs": [],
					"name": "renounceOwnership",
					"outputs": [],
					"stateMutability": "nonpayable",
					"type": "function"
				},
				{
					"inputs": [
						{
							"internalType": "address",
							"name": "newOwner",
							"type": "address"
						}
					],
					"name": "transferOwnership",
					"outputs": [],
					"stateMutability": "nonpayable",
					"type": "function"
				}
			],
			"devdoc": {
				"errors": {
					"OwnableInvalidOwner(address)": [
						{
							"details": "The owner is not a valid owner account. (eg. `address(0)`)"
						}
					],
					"OwnableUnauthorizedAccount(address)": [
						{
							"details": "The caller account is not authorized to perform an operation."
						}
					]
				},
				"kind": "dev",
				"methods": {
					"owner()": {
						"details": "Returns the address of the current owner."
					},
					"renounceOwnership()": {
						"details": "Leaves the contract without owner. It will not be possible to call `onlyOwner` functions. Can only be called by the current owner. NOTE: Renouncing ownership will leave the contract without an owner, thereby disabling any functionality that is only available to the owner."
					},
					"transferOwnership(address)": {
						"details": "Transfers ownership of the contract to a new account (`newOwner`). Can only be called by the current owner."
					}
				},
				"version": 1
			},
			"evm": {
				"assembly": "    /* \"src/sstore2/AssetsSSTORE2.sol\":332:1367  contract AssetsSSTORE2 is Ownable, IAssetsSSTORE2 {... */\n  mstore(0x40, 0x80)\n    /* \"src/sstore2/AssetsSSTORE2.sol\":408:444  constructor() Ownable(msg.sender) {} */\n  callvalue\n  dup1\n  iszero\n  tag_1\n  jumpi\n  revert(0x00, 0x00)\ntag_1:\n  pop\n    /* \"src/sstore2/AssetsSSTORE2.sol\":430:440  msg.sender */\n  caller\n  dup1\n    /* \"lib/openzeppelin-contracts/contracts/access/Ownable.sol\":1269:1364  if (initialOwner == address(0)) {... */\n  tag_5\n  jumpi\n    /* \"lib/openzeppelin-contracts/contracts/access/Ownable.sol\":1322:1353  OwnableInvalidOwner(address(0)) */\n  mload(0x40)\n  shl(0xe0, 0x1e4fbdf7)\n  dup2\n  mstore\n    /* \"lib/openzeppelin-contracts/contracts/access/Ownable.sol\":1350:1351  0 */\n  0x00\n    /* \"lib/openzeppelin-contracts/contracts/access/Ownable.sol\":1322:1353  OwnableInvalidOwner(address(0)) */\n  0x04\n  dup3\n  add\n    /* \"#utility.yul\":160:211   */\n  mstore\n    /* \"#utility.yul\":133:151   */\n  0x24\n  add\n    /* \"lib/openzeppelin-contracts/contracts/access/Ownable.sol\":1322:1353  OwnableInvalidOwner(address(0)) */\n  mload(0x40)\n  dup1\n  swap2\n  sub\n  swap1\n  revert\n    /* \"lib/openzeppelin-contracts/contracts/access/Ownable.sol\":1269:1364  if (initialOwner == address(0)) {... */\ntag_5:\n    /* \"lib/openzeppelin-contracts/contracts/access/Ownable.sol\":1373:1405  _transferOwnership(initialOwner) */\n  tag_8\n    /* \"lib/openzeppelin-contracts/contracts/access/Ownable.sol\":1392:1404  initialOwner */\n  dup2\n    /* \"lib/openzeppelin-contracts/contracts/access/Ownable.sol\":1373:1391  _transferOwnership */\n  tag_9\n    /* \"lib/openzeppelin-contracts/contracts/access/Ownable.sol\":1373:1405  _transferOwnership(initialOwner) */\n  jump\t// in\ntag_8:\n    /* \"lib/openzeppelin-contracts/contracts/access/Ownable.sol\":1225:1412  constructor(address initialOwner) {... */\n  pop\n    /* \"src/sstore2/AssetsSSTORE2.sol\":332:1367  contract AssetsSSTORE2 is Ownable, IAssetsSSTORE2 {... */\n  jump(tag_13)\n    /* \"lib/openzeppelin-contracts/contracts/access/Ownable.sol\":2912:3099  function _transferOwnership(address newOwner) internal virtual {... */\ntag_9:\n    /* \"lib/openzeppelin-contracts/contracts/access/Ownable.sol\":2985:3001  address oldOwner */\n  0x00\n    /* \"lib/openzeppelin-contracts/contracts/access/Ownable.sol\":3004:3010  _owner */\n  dup1\n  sload\n  sub(shl(0xa0, 0x01), 0x01)\n    /* \"lib/openzeppelin-contracts/contracts/access/Ownable.sol\":3020:3037  _owner = newOwner */\n  dup4\n  dup2\n  and\n  not(sub(shl(0xa0, 0x01), 0x01))\n  dup4\n  and\n  dup2\n  or\n  dup5\n  sstore\n    /* \"lib/openzeppelin-contracts/contracts/access/Ownable.sol\":3052:3092  OwnershipTransferred(oldOwner, newOwner) */\n  mload(0x40)\n    /* \"lib/openzeppelin-contracts/contracts/access/Ownable.sol\":3004:3010  _owner */\n  swap2\n  swap1\n  swap3\n  and\n  swap3\n  dup4\n  swap2\n    /* \"lib/openzeppelin-contracts/contracts/access/Ownable.sol\":3052:3092  OwnershipTransferred(oldOwner, newOwner) */\n  0x8be0079c531659141344cd1fd0a4f28419497f9722a3daafe3b4186f6b6457e0\n  swap2\n    /* \"lib/openzeppelin-contracts/contracts/access/Ownable.sol\":2985:3001  address oldOwner */\n  swap1\n    /* \"lib/openzeppelin-contracts/contracts/access/Ownable.sol\":3052:3092  OwnershipTransferred(oldOwner, newOwner) */\n  log3\n    /* \"lib/openzeppelin-contracts/contracts/access/Ownable.sol\":2975:3099  {... */\n  pop\n    /* \"lib/openzeppelin-contracts/contracts/access/Ownable.sol\":2912:3099  function _transferOwnership(address newOwner) internal virtual {... */\n  pop\n  jump\t// out\n    /* \"#utility.yul\":14:217   */\ntag_13:\n    /* \"src/sstore2/AssetsSSTORE2.sol\":332:1367  contract AssetsSSTORE2 is Ownable, IAssetsSSTORE2 {... */\n  dataSize(sub_0)\n  dup1\n  dataOffset(sub_0)\n  0x00\n  codecopy\n  0x00\n  return\nstop\n\nsub_0: assembly {\n        /* \"src/sstore2/AssetsSSTORE2.sol\":332:1367  contract AssetsSSTORE2 is Ownable, IAssetsSSTORE2 {... */\n      mstore(0x40, 0x80)\n      callvalue\n      dup1\n      iszero\n      tag_1\n      jumpi\n      revert(0x00, 0x00)\n    tag_1:\n      pop\n      jumpi(tag_2, lt(calldatasize, 0x04))\n      shr(0xe0, calldataload(0x00))\n      dup1\n      0x02bb3d74\n      eq\n      tag_3\n      jumpi\n      dup1\n      0x2f6987f1\n      eq\n      tag_4\n      jumpi\n      dup1\n      0x715018a6\n      eq\n      tag_5\n      jumpi\n      dup1\n      0x749f1647\n      eq\n      tag_6\n      jumpi\n      dup1\n      0x8da5cb5b\n      eq\n      tag_7\n      jumpi\n      dup1\n      0xf2fde38b\n      eq\n      tag_8\n      jumpi\n    tag_2:\n      revert(0x00, 0x00)\n        /* \"src/sstore2/AssetsSSTORE2.sol\":828:969  function loadAsset(uint key, bool decompress) external view returns (bytes memory) {... */\n    tag_3:\n      tag_9\n      tag_10\n      calldatasize\n      0x04\n      tag_11\n      jump\t// in\n    tag_10:\n      tag_12\n      jump\t// in\n    tag_9:\n      mload(0x40)\n      tag_13\n      swap2\n      swap1\n      tag_14\n      jump\t// in\n    tag_13:\n      mload(0x40)\n      dup1\n      swap2\n      sub\n      swap1\n      return\n        /* \"src/sstore2/AssetsSSTORE2.sol\":635:754  function loadAsset(uint key) external view returns (bytes memory) {... */\n    tag_4:\n      tag_9\n      tag_16\n      calldatasize\n      0x04\n      tag_17\n      jump\t// in\n    tag_16:\n      tag_18\n      jump\t// in\n        /* \"lib/openzeppelin-contracts/contracts/access/Ownable.sol\":2293:2394  function renounceOwnership() public virtual onlyOwner {... */\n    tag_5:\n      tag_20\n      tag_21\n      jump\t// in\n    tag_20:\n      stop\n        /* \"src/sstore2/AssetsSSTORE2.sol\":450:571  function addAsset(uint key, bytes memory asset) external onlyOwner {... */\n    tag_6:\n      tag_20\n      tag_23\n      calldatasize\n      0x04\n      tag_24\n      jump\t// in\n    tag_23:\n      tag_25\n      jump\t// in\n        /* \"lib/openzeppelin-contracts/contracts/access/Ownable.sol\":1638:1723  function owner() public view virtual returns (address) {... */\n    tag_7:\n        /* \"lib/openzeppelin-contracts/contracts/access/Ownable.sol\":1684:1691  address */\n      0x00\n        /* \"lib/openzeppelin-contracts/contracts/access/Ownable.sol\":1710:1716  _owner */\n      sload\n        /* \"lib/openzeppelin-contracts/contracts/access/Ownable.sol\":1638:1723  function owner() public view virtual returns (address) {... */\n      mload(0x40)\n      sub(shl(0xa0, 0x01), 0x01)\n        /* \"lib/openzeppelin-contracts/contracts/access/Ownable.sol\":1710:1716  _owner */\n      swap1\n      swap2\n      and\n        /* \"#utility.yul\":2407:2458   */\n      dup2\n      mstore\n        /* \"#utility.yul\":2395:2397   */\n      0x20\n        /* \"#utility.yul\":2380:2398   */\n      add\n        /* \"lib/openzeppelin-contracts/contracts/access/Ownable.sol\":1638:1723  function owner() public view virtual returns (address) {... */\n      tag_13\n        /* \"#utility.yul\":2261:2464   */\n      jump\n        /* \"lib/openzeppelin-contracts/contracts/access/Ownable.sol\":2543:2758  function transferOwnership(address newOwner) public virtual onlyOwner {... */\n    tag_8:\n      tag_20\n      tag_31\n      calldatasize\n      0x04\n      tag_32\n      jump\t// in\n    tag_31:\n      tag_33\n      jump\t// in\n        /* \"src/sstore2/AssetsSSTORE2.sol\":828:969  function loadAsset(uint key, bool decompress) external view returns (bytes memory) {... */\n    tag_12:\n        /* \"src/sstore2/AssetsSSTORE2.sol\":897:909  bytes memory */\n      0x60\n        /* \"src/sstore2/AssetsSSTORE2.sol\":928:962  loadAssetInternal(key, decompress) */\n      tag_35\n        /* \"src/sstore2/AssetsSSTORE2.sol\":946:949  key */\n      dup4\n        /* \"src/sstore2/AssetsSSTORE2.sol\":951:961  decompress */\n      dup4\n        /* \"src/sstore2/AssetsSSTORE2.sol\":928:945  loadAssetInternal */\n      tag_36\n        /* \"src/sstore2/AssetsSSTORE2.sol\":928:962  loadAssetInternal(key, decompress) */\n      jump\t// in\n    tag_35:\n        /* \"src/sstore2/AssetsSSTORE2.sol\":921:962  return loadAssetInternal(key, decompress) */\n      swap1\n      pop\n        /* \"src/sstore2/AssetsSSTORE2.sol\":828:969  function loadAsset(uint key, bool decompress) external view returns (bytes memory) {... */\n    tag_34:\n      swap3\n      swap2\n      pop\n      pop\n      jump\t// out\n        /* \"src/sstore2/AssetsSSTORE2.sol\":635:754  function loadAsset(uint key) external view returns (bytes memory) {... */\n    tag_18:\n        /* \"src/sstore2/AssetsSSTORE2.sol\":687:699  bytes memory */\n      0x60\n        /* \"src/sstore2/AssetsSSTORE2.sol\":718:747  loadAssetInternal(key, false) */\n      tag_34\n        /* \"src/sstore2/AssetsSSTORE2.sol\":736:739  key */\n      dup3\n        /* \"src/sstore2/AssetsSSTORE2.sol\":741:746  false */\n      0x00\n        /* \"src/sstore2/AssetsSSTORE2.sol\":718:735  loadAssetInternal */\n      tag_36\n        /* \"src/sstore2/AssetsSSTORE2.sol\":718:747  loadAssetInternal(key, false) */\n      jump\t// in\n        /* \"lib/openzeppelin-contracts/contracts/access/Ownable.sol\":2293:2394  function renounceOwnership() public virtual onlyOwner {... */\n    tag_21:\n        /* \"lib/openzeppelin-contracts/contracts/access/Ownable.sol\":1531:1544  _checkOwner() */\n      tag_40\n        /* \"lib/openzeppelin-contracts/contracts/access/Ownable.sol\":1531:1542  _checkOwner */\n      tag_41\n        /* \"lib/openzeppelin-contracts/contracts/access/Ownable.sol\":1531:1544  _checkOwner() */\n      jump\t// in\n    tag_40:\n        /* \"lib/openzeppelin-contracts/contracts/access/Ownable.sol\":2357:2387  _transferOwnership(address(0)) */\n      tag_43\n        /* \"lib/openzeppelin-contracts/contracts/access/Ownable.sol\":2384:2385  0 */\n      0x00\n        /* \"lib/openzeppelin-contracts/contracts/access/Ownable.sol\":2357:2375  _transferOwnership */\n      tag_44\n        /* \"lib/openzeppelin-contracts/contracts/access/Ownable.sol\":2357:2387  _transferOwnership(address(0)) */\n      jump\t// in\n    tag_43:\n        /* \"lib/openzeppelin-contracts/contracts/access/Ownable.sol\":2293:2394  function renounceOwnership() public virtual onlyOwner {... */\n      jump\t// out\n        /* \"src/sstore2/AssetsSSTORE2.sol\":450:571  function addAsset(uint key, bytes memory asset) external onlyOwner {... */\n    tag_25:\n        /* \"lib/openzeppelin-contracts/contracts/access/Ownable.sol\":1531:1544  _checkOwner() */\n      tag_46\n        /* \"lib/openzeppelin-contracts/contracts/access/Ownable.sol\":1531:1542  _checkOwner */\n      tag_41\n        /* \"lib/openzeppelin-contracts/contracts/access/Ownable.sol\":1531:1544  _checkOwner() */\n      jump\t// in\n    tag_46:\n        /* \"src/sstore2/AssetsSSTORE2.sol\":544:564  SSTORE2.write(asset) */\n      tag_48\n        /* \"src/sstore2/AssetsSSTORE2.sol\":558:563  asset */\n      dup2\n        /* \"src/sstore2/AssetsSSTORE2.sol\":544:557  SSTORE2.write */\n      tag_49\n        /* \"src/sstore2/AssetsSSTORE2.sol\":544:564  SSTORE2.write(asset) */\n      jump\t// in\n    tag_48:\n        /* \"src/sstore2/AssetsSSTORE2.sol\":527:536  fs.assets */\n      0x00\n        /* \"src/sstore2/AssetsSSTORE2.sol\":527:541  fs.assets[key] */\n      swap3\n      dup4\n      mstore\n        /* \"src/sstore2/AssetsSSTORE2.sol\":527:529  fs */\n      0x01\n        /* \"src/sstore2/AssetsSSTORE2.sol\":527:541  fs.assets[key] */\n      0x20\n      mstore\n      0x40\n      swap1\n      swap3\n      keccak256\n        /* \"src/sstore2/AssetsSSTORE2.sol\":527:564  fs.assets[key] = SSTORE2.write(asset) */\n      dup1\n      sload\n      not(sub(shl(0xa0, 0x01), 0x01))\n      and\n      sub(shl(0xa0, 0x01), 0x01)\n      swap1\n      swap4\n      and\n      swap3\n      swap1\n      swap3\n      or\n      swap1\n      swap2\n      sstore\n      pop\n        /* \"src/sstore2/AssetsSSTORE2.sol\":450:571  function addAsset(uint key, bytes memory asset) external onlyOwner {... */\n      jump\t// out\n        /* \"lib/openzeppelin-contracts/contracts/access/Ownable.sol\":2543:2758  function transferOwnership(address newOwner) public virtual onlyOwner {... */\n    tag_33:\n        /* \"lib/openzeppelin-contracts/contracts/access/Ownable.sol\":1531:1544  _checkOwner() */\n      tag_52\n        /* \"lib/openzeppelin-contracts/contracts/access/Ownable.sol\":1531:1542  _checkOwner */\n      tag_41\n        /* \"lib/openzeppelin-contracts/contracts/access/Ownable.sol\":1531:1544  _checkOwner() */\n      jump\t// in\n    tag_52:\n      sub(shl(0xa0, 0x01), 0x01)\n        /* \"lib/openzeppelin-contracts/contracts/access/Ownable.sol\":2627:2649  newOwner == address(0) */\n      dup2\n      and\n        /* \"lib/openzeppelin-contracts/contracts/access/Ownable.sol\":2623:2714  if (newOwner == address(0)) {... */\n      tag_54\n      jumpi\n        /* \"lib/openzeppelin-contracts/contracts/access/Ownable.sol\":2672:2703  OwnableInvalidOwner(address(0)) */\n      mload(0x40)\n      shl(0xe0, 0x1e4fbdf7)\n      dup2\n      mstore\n        /* \"lib/openzeppelin-contracts/contracts/access/Ownable.sol\":2700:2701  0 */\n      0x00\n        /* \"lib/openzeppelin-contracts/contracts/access/Ownable.sol\":2672:2703  OwnableInvalidOwner(address(0)) */\n      0x04\n      dup3\n      add\n        /* \"#utility.yul\":2407:2458   */\n      mstore\n        /* \"#utility.yul\":2380:2398   */\n      0x24\n      add\n        /* \"lib/openzeppelin-contracts/contracts/access/Ownable.sol\":2672:2703  OwnableInvalidOwner(address(0)) */\n    tag_55:\n      mload(0x40)\n      dup1\n      swap2\n      sub\n      swap1\n      revert\n        /* \"lib/openzeppelin-contracts/contracts/access/Ownable.sol\":2623:2714  if (newOwner == address(0)) {... */\n    tag_54:\n        /* \"lib/openzeppelin-contracts/contracts/access/Ownable.sol\":2723:2751  _transferOwnership(newOwner) */\n      tag_56\n        /* \"lib/openzeppelin-contracts/contracts/access/Ownable.sol\":2742:2750  newOwner */\n      dup2\n        /* \"lib/openzeppelin-contracts/contracts/access/Ownable.sol\":2723:2741  _transferOwnership */\n      tag_44\n        /* \"lib/openzeppelin-contracts/contracts/access/Ownable.sol\":2723:2751  _transferOwnership(newOwner) */\n      jump\t// in\n    tag_56:\n        /* \"lib/openzeppelin-contracts/contracts/access/Ownable.sol\":2543:2758  function transferOwnership(address newOwner) public virtual onlyOwner {... */\n      pop\n      jump\t// out\n        /* \"src/sstore2/AssetsSSTORE2.sol\":975:1365  function loadAssetInternal(uint key, bool decompress) internal view returns (bytes memory) {... */\n    tag_36:\n        /* \"src/sstore2/AssetsSSTORE2.sol\":1076:1091  address pointer */\n      0x00\n        /* \"src/sstore2/AssetsSSTORE2.sol\":1094:1108  fs.assets[key] */\n      dup3\n      dup2\n      mstore\n        /* \"src/sstore2/AssetsSSTORE2.sol\":1094:1096  fs */\n      0x01\n        /* \"src/sstore2/AssetsSSTORE2.sol\":1094:1108  fs.assets[key] */\n      0x20\n      mstore\n      0x40\n      swap1\n      keccak256\n      sload\n        /* \"src/sstore2/AssetsSSTORE2.sol\":1052:1064  bytes memory */\n      0x60\n      swap1\n      sub(shl(0xa0, 0x01), 0x01)\n        /* \"src/sstore2/AssetsSSTORE2.sol\":1094:1108  fs.assets[key] */\n      and\n      dup1\n        /* \"src/sstore2/AssetsSSTORE2.sol\":1119:1173  require(pointer != address(0), \"Asset does not exist\") */\n      tag_58\n      jumpi\n      mload(0x40)\n      shl(0xe5, 0x461bcd)\n      dup2\n      mstore\n        /* \"#utility.yul\":2962:2964   */\n      0x20\n        /* \"src/sstore2/AssetsSSTORE2.sol\":1119:1173  require(pointer != address(0), \"Asset does not exist\") */\n      0x04\n      dup3\n      add\n        /* \"#utility.yul\":2944:2965   */\n      mstore\n        /* \"#utility.yul\":3001:3003   */\n      0x14\n        /* \"#utility.yul\":2981:2999   */\n      0x24\n      dup3\n      add\n        /* \"#utility.yul\":2974:3004   */\n      mstore\n      shl(0x62, 0x105cdcd95d08191bd95cc81b9bdd08195e1a5cdd)\n        /* \"#utility.yul\":3020:3038   */\n      0x44\n      dup3\n      add\n        /* \"#utility.yul\":3013:3063   */\n      mstore\n        /* \"#utility.yul\":3080:3098   */\n      0x64\n      add\n        /* \"src/sstore2/AssetsSSTORE2.sol\":1119:1173  require(pointer != address(0), \"Asset does not exist\") */\n      tag_55\n        /* \"#utility.yul\":2760:3104   */\n      jump\n        /* \"src/sstore2/AssetsSSTORE2.sol\":1119:1173  require(pointer != address(0), \"Asset does not exist\") */\n    tag_58:\n        /* \"src/sstore2/AssetsSSTORE2.sol\":1192:1210  bytes memory asset */\n      0x00\n        /* \"src/sstore2/AssetsSSTORE2.sol\":1213:1234  SSTORE2.read(pointer) */\n      tag_61\n        /* \"src/sstore2/AssetsSSTORE2.sol\":1226:1233  pointer */\n      dup3\n        /* \"src/sstore2/AssetsSSTORE2.sol\":1213:1225  SSTORE2.read */\n      tag_62\n        /* \"src/sstore2/AssetsSSTORE2.sol\":1213:1234  SSTORE2.read(pointer) */\n      jump\t// in\n    tag_61:\n        /* \"src/sstore2/AssetsSSTORE2.sol\":1192:1234  bytes memory asset = SSTORE2.read(pointer) */\n      swap1\n      pop\n        /* \"src/sstore2/AssetsSSTORE2.sol\":1257:1267  decompress */\n      dup4\n        /* \"src/sstore2/AssetsSSTORE2.sol\":1253:1328  if (decompress) {... */\n      iszero\n      tag_63\n      jumpi\n        /* \"src/sstore2/AssetsSSTORE2.sol\":1290:1317  LibZip.flzDecompress(asset) */\n      tag_64\n        /* \"src/sstore2/AssetsSSTORE2.sol\":1311:1316  asset */\n      dup2\n        /* \"src/sstore2/AssetsSSTORE2.sol\":1290:1310  LibZip.flzDecompress */\n      tag_65\n        /* \"src/sstore2/AssetsSSTORE2.sol\":1290:1317  LibZip.flzDecompress(asset) */\n      jump\t// in\n    tag_64:\n        /* \"src/sstore2/AssetsSSTORE2.sol\":1283:1317  return LibZip.flzDecompress(asset) */\n      swap3\n      pop\n      pop\n      pop\n      jump(tag_34)\n        /* \"src/sstore2/AssetsSSTORE2.sol\":1253:1328  if (decompress) {... */\n    tag_63:\n        /* \"src/sstore2/AssetsSSTORE2.sol\":1353:1358  asset */\n      swap5\n        /* \"src/sstore2/AssetsSSTORE2.sol\":975:1365  function loadAssetInternal(uint key, bool decompress) internal view returns (bytes memory) {... */\n      swap4\n      pop\n      pop\n      pop\n      pop\n      jump\t// out\n        /* \"lib/openzeppelin-contracts/contracts/access/Ownable.sol\":1796:1958  function _checkOwner() internal view virtual {... */\n    tag_41:\n        /* \"lib/openzeppelin-contracts/contracts/access/Ownable.sol\":1684:1691  address */\n      0x00\n        /* \"lib/openzeppelin-contracts/contracts/access/Ownable.sol\":1710:1716  _owner */\n      sload\n      sub(shl(0xa0, 0x01), 0x01)\n      and\n        /* \"lib/openzeppelin-contracts/contracts/utils/Context.sol\":735:745  msg.sender */\n      caller\n        /* \"lib/openzeppelin-contracts/contracts/access/Ownable.sol\":1855:1878  owner() != _msgSender() */\n      eq\n        /* \"lib/openzeppelin-contracts/contracts/access/Ownable.sol\":1851:1952  if (owner() != _msgSender()) {... */\n      tag_43\n      jumpi\n        /* \"lib/openzeppelin-contracts/contracts/access/Ownable.sol\":1901:1941  OwnableUnauthorizedAccount(_msgSender()) */\n      mload(0x40)\n      shl(0xe0, 0x118cdaa7)\n      dup2\n      mstore\n        /* \"lib/openzeppelin-contracts/contracts/utils/Context.sol\":735:745  msg.sender */\n      caller\n        /* \"lib/openzeppelin-contracts/contracts/access/Ownable.sol\":1901:1941  OwnableUnauthorizedAccount(_msgSender()) */\n      0x04\n      dup3\n      add\n        /* \"#utility.yul\":2407:2458   */\n      mstore\n        /* \"#utility.yul\":2380:2398   */\n      0x24\n      add\n        /* \"lib/openzeppelin-contracts/contracts/access/Ownable.sol\":1901:1941  OwnableUnauthorizedAccount(_msgSender()) */\n      tag_55\n        /* \"#utility.yul\":2261:2464   */\n      jump\n        /* \"lib/openzeppelin-contracts/contracts/access/Ownable.sol\":2912:3099  function _transferOwnership(address newOwner) internal virtual {... */\n    tag_44:\n        /* \"lib/openzeppelin-contracts/contracts/access/Ownable.sol\":2985:3001  address oldOwner */\n      0x00\n        /* \"lib/openzeppelin-contracts/contracts/access/Ownable.sol\":3004:3010  _owner */\n      dup1\n      sload\n      sub(shl(0xa0, 0x01), 0x01)\n        /* \"lib/openzeppelin-contracts/contracts/access/Ownable.sol\":3020:3037  _owner = newOwner */\n      dup4\n      dup2\n      and\n      not(sub(shl(0xa0, 0x01), 0x01))\n      dup4\n      and\n      dup2\n      or\n      dup5\n      sstore\n        /* \"lib/openzeppelin-contracts/contracts/access/Ownable.sol\":3052:3092  OwnershipTransferred(oldOwner, newOwner) */\n      mload(0x40)\n        /* \"lib/openzeppelin-contracts/contracts/access/Ownable.sol\":3004:3010  _owner */\n      swap2\n      swap1\n      swap3\n      and\n      swap3\n      dup4\n      swap2\n        /* \"lib/openzeppelin-contracts/contracts/access/Ownable.sol\":3052:3092  OwnershipTransferred(oldOwner, newOwner) */\n      0x8be0079c531659141344cd1fd0a4f28419497f9722a3daafe3b4186f6b6457e0\n      swap2\n        /* \"lib/openzeppelin-contracts/contracts/access/Ownable.sol\":2985:3001  address oldOwner */\n      swap1\n        /* \"lib/openzeppelin-contracts/contracts/access/Ownable.sol\":3052:3092  OwnershipTransferred(oldOwner, newOwner) */\n      log3\n        /* \"lib/openzeppelin-contracts/contracts/access/Ownable.sol\":2975:3099  {... */\n      pop\n        /* \"lib/openzeppelin-contracts/contracts/access/Ownable.sol\":2912:3099  function _transferOwnership(address newOwner) internal virtual {... */\n      pop\n      jump\t// out\n        /* \"src/sstore2/SSTORE2.sol\":1918:4579  function write(bytes memory data) internal returns (address pointer) {... */\n    tag_49:\n        /* \"src/sstore2/SSTORE2.sol\":1970:1985  address pointer */\n      0x00\n        /* \"src/sstore2/SSTORE2.sol\":2095:2099  data */\n      dup2\n        /* \"src/sstore2/SSTORE2.sol\":2089:2100  mload(data) */\n      mload\n        /* \"src/sstore2/SSTORE2.sol\":2234:2245  DATA_OFFSET */\n      0x01\n        /* \"src/sstore2/SSTORE2.sol\":2214:2232  originalDataLength */\n      dup2\n        /* \"src/sstore2/SSTORE2.sol\":2210:2246  add(originalDataLength, DATA_OFFSET) */\n      add\n        /* \"src/sstore2/SSTORE2.sol\":3995:4003  dataSize */\n      dup1\n        /* \"src/sstore2/SSTORE2.sol\":3989:3993  0x40 */\n      0x40\n        /* \"src/sstore2/SSTORE2.sol\":3985:4004  shl(0x40, dataSize) */\n      shl\n        /* \"src/sstore2/SSTORE2.sol\":3957:3983  0xfd61000080600a3d393df300 */\n      0xfd61000080600a3d393df300\n        /* \"src/sstore2/SSTORE2.sol\":3954:4005  or(0xfd61000080600a3d393df300, shl(0x40, dataSize)) */\n      or\n        /* \"src/sstore2/SSTORE2.sol\":3834:3840  0xffff */\n      0xffff\n        /* \"src/sstore2/SSTORE2.sol\":3824:3832  dataSize */\n      dup3\n        /* \"src/sstore2/SSTORE2.sol\":3821:3841  gt(dataSize, 0xffff) */\n      gt\n        /* \"src/sstore2/SSTORE2.sol\":3815:3819  data */\n      dup6\n        /* \"src/sstore2/SSTORE2.sol\":3811:3842  add(data, gt(dataSize, 0xffff)) */\n      add\n        /* \"src/sstore2/SSTORE2.sol\":3628:4019  mstore(... */\n      mstore\n        /* \"src/sstore2/SSTORE2.sol\":4156:4159  0xa */\n      0x0a\n        /* \"src/sstore2/SSTORE2.sol\":4146:4154  dataSize */\n      dup2\n        /* \"src/sstore2/SSTORE2.sol\":4142:4160  add(dataSize, 0xa) */\n      add\n        /* \"src/sstore2/SSTORE2.sol\":4135:4139  0x15 */\n      0x15\n        /* \"src/sstore2/SSTORE2.sol\":4129:4133  data */\n      dup6\n        /* \"src/sstore2/SSTORE2.sol\":4125:4140  add(data, 0x15) */\n      add\n        /* \"src/sstore2/SSTORE2.sol\":4122:4123  0 */\n      0x00\n        /* \"src/sstore2/SSTORE2.sol\":4115:4161  create(0, add(data, 0x15), add(dataSize, 0xa)) */\n      create\n        /* \"src/sstore2/SSTORE2.sol\":4104:4161  pointer := create(0, add(data, 0x15), add(dataSize, 0xa)) */\n      swap3\n      pop\n      pop\n        /* \"src/sstore2/SSTORE2.sol\":4230:4237  pointer */\n      dup2\n        /* \"src/sstore2/SSTORE2.sol\":4220:4449  if iszero(pointer) {... */\n      tag_75\n      jumpi\n        /* \"src/sstore2/SSTORE2.sol\":4342:4352  0x30116425 */\n      0x30116425\n        /* \"src/sstore2/SSTORE2.sol\":4336:4340  0x00 */\n      0x00\n        /* \"src/sstore2/SSTORE2.sol\":4329:4353  mstore(0x00, 0x30116425) */\n      mstore\n        /* \"src/sstore2/SSTORE2.sol\":4430:4434  0x04 */\n      0x04\n        /* \"src/sstore2/SSTORE2.sol\":4424:4428  0x1c */\n      0x1c\n        /* \"src/sstore2/SSTORE2.sol\":4417:4435  revert(0x1c, 0x04) */\n      revert\n        /* \"src/sstore2/SSTORE2.sol\":4220:4449  if iszero(pointer) {... */\n    tag_75:\n        /* \"src/sstore2/SSTORE2.sol\":4531:4563  mstore(data, originalDataLength) */\n      swap1\n      swap2\n      mstore\n        /* \"src/sstore2/SSTORE2.sol\":1918:4579  function write(bytes memory data) internal returns (address pointer) {... */\n      swap1\n      jump\t// out\n        /* \"src/sstore2/SSTORE2.sol\":8139:9282  function read(address pointer) internal view returns (bytes memory data) {... */\n    tag_62:\n        /* \"src/sstore2/SSTORE2.sol\":8193:8210  bytes memory data */\n      0x60\n        /* \"src/sstore2/SSTORE2.sol\":8323:8330  pointer */\n      dup2\n        /* \"src/sstore2/SSTORE2.sol\":8311:8331  extcodesize(pointer) */\n      extcodesize\n        /* \"src/sstore2/SSTORE2.sol\":8354:8369  pointerCodesize */\n      dup1\n        /* \"src/sstore2/SSTORE2.sol\":8344:8579  if iszero(pointerCodesize) {... */\n      tag_77\n      jumpi\n        /* \"src/sstore2/SSTORE2.sol\":8472:8482  0x11052bb4 */\n      0x11052bb4\n        /* \"src/sstore2/SSTORE2.sol\":8466:8470  0x00 */\n      0x00\n        /* \"src/sstore2/SSTORE2.sol\":8459:8483  mstore(0x00, 0x11052bb4) */\n      mstore\n        /* \"src/sstore2/SSTORE2.sol\":8560:8564  0x04 */\n      0x04\n        /* \"src/sstore2/SSTORE2.sol\":8554:8558  0x1c */\n      0x1c\n        /* \"src/sstore2/SSTORE2.sol\":8547:8565  revert(0x1c, 0x04) */\n      revert\n        /* \"src/sstore2/SSTORE2.sol\":8344:8579  if iszero(pointerCodesize) {... */\n    tag_77:\n        /* \"src/sstore2/SSTORE2.sol\":8689:8700  DATA_OFFSET */\n      0x01\n        /* \"src/sstore2/SSTORE2.sol\":8672:8687  pointerCodesize */\n      dup2\n        /* \"src/sstore2/SSTORE2.sol\":8668:8701  sub(pointerCodesize, DATA_OFFSET) */\n      sub\n        /* \"src/sstore2/SSTORE2.sol\":8656:8701  let size := sub(pointerCodesize, DATA_OFFSET) */\n      swap1\n      pop\n        /* \"src/sstore2/SSTORE2.sol\":9019:9023  0x40 */\n      0x40\n        /* \"src/sstore2/SSTORE2.sol\":9013:9024  mload(0x40) */\n      mload\n        /* \"src/sstore2/SSTORE2.sol\":9005:9024  data := mload(0x40) */\n      swap2\n      pop\n        /* \"src/sstore2/SSTORE2.sol\":9081:9087  0xffe0 */\n      0xffe0\n        /* \"src/sstore2/SSTORE2.sol\":9074:9078  0x3f */\n      0x3f\n        /* \"src/sstore2/SSTORE2.sol\":9068:9072  size */\n      dup3\n        /* \"src/sstore2/SSTORE2.sol\":9064:9079  add(size, 0x3f) */\n      add\n        /* \"src/sstore2/SSTORE2.sol\":9060:9088  and(add(size, 0x3f), 0xffe0) */\n      and\n        /* \"src/sstore2/SSTORE2.sol\":9054:9058  data */\n      dup3\n        /* \"src/sstore2/SSTORE2.sol\":9050:9089  add(data, and(add(size, 0x3f), 0xffe0)) */\n      add\n        /* \"src/sstore2/SSTORE2.sol\":9044:9048  0x40 */\n      0x40\n        /* \"src/sstore2/SSTORE2.sol\":9037:9090  mstore(0x40, add(data, and(add(size, 0x3f), 0xffe0))) */\n      mstore\n        /* \"src/sstore2/SSTORE2.sol\":9116:9120  size */\n      dup1\n        /* \"src/sstore2/SSTORE2.sol\":9110:9114  data */\n      dup3\n        /* \"src/sstore2/SSTORE2.sol\":9103:9121  mstore(data, size) */\n      mstore\n        /* \"src/sstore2/SSTORE2.sol\":9169:9170  0 */\n      0x00\n        /* \"src/sstore2/SSTORE2.sol\":9162:9166  size */\n      dup2\n        /* \"src/sstore2/SSTORE2.sol\":9155:9159  0x20 */\n      0x20\n        /* \"src/sstore2/SSTORE2.sol\":9149:9153  data */\n      dup5\n        /* \"src/sstore2/SSTORE2.sol\":9145:9160  add(data, 0x20) */\n      add\n        /* \"src/sstore2/SSTORE2.sol\":9141:9167  add(add(data, 0x20), size) */\n      add\n        /* \"src/sstore2/SSTORE2.sol\":9134:9171  mstore(add(add(data, 0x20), size), 0) */\n      mstore\n        /* \"src/sstore2/SSTORE2.sol\":9261:9265  size */\n      dup1\n        /* \"src/sstore2/SSTORE2.sol\":9248:9259  DATA_OFFSET */\n      0x01\n        /* \"src/sstore2/SSTORE2.sol\":9241:9245  0x20 */\n      0x20\n        /* \"src/sstore2/SSTORE2.sol\":9235:9239  data */\n      dup5\n        /* \"src/sstore2/SSTORE2.sol\":9231:9246  add(data, 0x20) */\n      add\n        /* \"src/sstore2/SSTORE2.sol\":9222:9229  pointer */\n      dup6\n        /* \"src/sstore2/SSTORE2.sol\":9210:9266  extcodecopy(pointer, add(data, 0x20), DATA_OFFSET, size) */\n      extcodecopy\n      pop\n        /* \"src/sstore2/SSTORE2.sol\":8139:9282  function read(address pointer) internal view returns (bytes memory data) {... */\n      swap2\n      swap1\n      pop\n      jump\t// out\n        /* \"src/sstore2/LibZip.sol\":5104:6677  function flzDecompress(bytes memory data) internal pure returns (bytes memory result) {... */\n    tag_65:\n        /* \"src/sstore2/LibZip.sol\":5282:5286  0x40 */\n      0x40\n        /* \"src/sstore2/LibZip.sol\":5276:5287  mload(0x40) */\n      mload\n        /* \"src/sstore2/LibZip.sol\":5372:5383  mload(data) */\n      dup2\n      mload\n        /* \"src/sstore2/LibZip.sol\":5322:5326  0x20 */\n      0x20\n        /* \"src/sstore2/LibZip.sol\":5355:5370  add(data, 0x20) */\n      dup4\n      dup2\n      add\n      swap4\n        /* \"src/sstore2/LibZip.sol\":5310:5327  add(result, 0x20) */\n      dup2\n      dup5\n      add\n      swap3\n        /* \"src/sstore2/LibZip.sol\":5351:5384  add(add(data, 0x20), mload(data)) */\n      add\n      add\n        /* \"src/sstore2/LibZip.sol\":5397:6457  for { data := add(data, 0x20) } lt(data, end) {} {... */\n    tag_79:\n        /* \"src/sstore2/LibZip.sol\":5438:5441  end */\n      dup1\n        /* \"src/sstore2/LibZip.sol\":5432:5436  data */\n      dup5\n        /* \"src/sstore2/LibZip.sol\":5429:5442  lt(data, end) */\n      lt\n        /* \"src/sstore2/LibZip.sol\":5397:6457  for { data := add(data, 0x20) } lt(data, end) {} {... */\n      iszero\n      tag_81\n      jumpi\n        /* \"src/sstore2/LibZip.sol\":5479:5483  data */\n      dup4\n        /* \"src/sstore2/LibZip.sol\":5473:5484  mload(data) */\n      mload\n        /* \"src/sstore2/LibZip.sol\":5518:5519  w */\n      dup1\n        /* \"src/sstore2/LibZip.sol\":5515:5516  0 */\n      0x00\n        /* \"src/sstore2/LibZip.sol\":5510:5520  byte(0, w) */\n      byte\n        /* \"src/sstore2/LibZip.sol\":5553:5554  c */\n      dup1\n        /* \"src/sstore2/LibZip.sol\":5550:5551  5 */\n      0x05\n        /* \"src/sstore2/LibZip.sol\":5546:5555  shr(5, c) */\n      shr\n        /* \"src/sstore2/LibZip.sol\":5582:5583  t */\n      dup1\n        /* \"src/sstore2/LibZip.sol\":5572:5779  if iszero(t) {... */\n      tag_82\n      jumpi\n      pop\n        /* \"src/sstore2/LibZip.sol\":5634:5635  1 */\n      0x01\n        /* \"src/sstore2/LibZip.sol\":5624:5636  add(data, 1) */\n      dup7\n      dup2\n      add\n        /* \"src/sstore2/LibZip.sol\":5618:5637  mload(add(data, 1)) */\n      mload\n        /* \"src/sstore2/LibZip.sol\":5607:5638  mstore(op, mload(add(data, 1))) */\n      dup6\n      mstore\n        /* \"src/sstore2/LibZip.sol\":5667:5687  add(data, add(2, c)) */\n      swap6\n      dup2\n      add\n        /* \"src/sstore2/LibZip.sol\":5681:5682  2 */\n      0x02\n        /* \"src/sstore2/LibZip.sol\":5667:5687  add(data, add(2, c)) */\n      add\n      swap6\n        /* \"src/sstore2/LibZip.sol\":5714:5732  add(op, add(1, c)) */\n      swap4\n      add\n      swap1\n      swap3\n      add\n      swap2\n      pop\n        /* \"src/sstore2/LibZip.sol\":5397:6457  for { data := add(data, 0x20) } lt(data, end) {} {... */\n      jump(tag_79)\n        /* \"src/sstore2/LibZip.sol\":5572:5779  if iszero(t) {... */\n    tag_82:\n        /* \"src/sstore2/LibZip.sol\":5837:5838  7 */\n      0x07\n        /* \"src/sstore2/LibZip.sol\":5834:5835  t */\n      dup2\n        /* \"src/sstore2/LibZip.sol\":5831:5839  eq(t, 7) */\n      eq\n        /* \"src/sstore2/LibZip.sol\":5912:5913  w */\n      dup4\n        /* \"src/sstore2/LibZip.sol\":5909:5910  1 */\n      0x01\n        /* \"src/sstore2/LibZip.sol\":5904:5914  byte(1, w) */\n      byte\n        /* \"src/sstore2/LibZip.sol\":5901:5902  7 */\n      0x07\n        /* \"src/sstore2/LibZip.sol\":5897:5915  add(7, byte(1, w)) */\n      add\n        /* \"src/sstore2/LibZip.sol\":5894:5895  t */\n      dup3\n        /* \"src/sstore2/LibZip.sol\":5890:5916  xor(t, add(7, byte(1, w))) */\n      xor\n        /* \"src/sstore2/LibZip.sol\":5887:5888  g */\n      dup2\n        /* \"src/sstore2/LibZip.sol\":5883:5917  mul(g, xor(t, add(7, byte(1, w)))) */\n      mul\n        /* \"src/sstore2/LibZip.sol\":5880:5881  t */\n      dup3\n        /* \"src/sstore2/LibZip.sol\":5876:5918  xor(t, mul(g, xor(t, add(7, byte(1, w))))) */\n      xor\n        /* \"src/sstore2/LibZip.sol\":5873:5874  2 */\n      0x02\n        /* \"src/sstore2/LibZip.sol\":5869:5919  add(2, xor(t, mul(g, xor(t, add(7, byte(1, w)))))) */\n      add\n        /* \"src/sstore2/LibZip.sol\":6005:6006  1 */\n      0x01\n        /* \"src/sstore2/LibZip.sol\":6000:6001  w */\n      dup6\n        /* \"src/sstore2/LibZip.sol\":5996:5997  g */\n      dup4\n        /* \"src/sstore2/LibZip.sol\":5993:5994  1 */\n      0x01\n        /* \"src/sstore2/LibZip.sol\":5989:5998  add(1, g) */\n      add\n        /* \"src/sstore2/LibZip.sol\":5984:6002  byte(add(1, g), w) */\n      byte\n        /* \"src/sstore2/LibZip.sol\":5979:5980  c */\n      dup6\n        /* \"src/sstore2/LibZip.sol\":5973:5977  0x1f */\n      0x1f\n        /* \"src/sstore2/LibZip.sol\":5969:5981  and(0x1f, c) */\n      and\n        /* \"src/sstore2/LibZip.sol\":5966:5967  8 */\n      0x08\n        /* \"src/sstore2/LibZip.sol\":5962:5982  shl(8, and(0x1f, c)) */\n      shl\n        /* \"src/sstore2/LibZip.sol\":5958:6003  add(shl(8, and(0x1f, c)), byte(add(1, g), w)) */\n      add\n        /* \"src/sstore2/LibZip.sol\":5954:6007  add(add(shl(8, and(0x1f, c)), byte(add(1, g), w)), 1) */\n      add\n        /* \"src/sstore2/LibZip.sol\":6050:6051  s */\n      dup1\n        /* \"src/sstore2/LibZip.sol\":6046:6048  op */\n      dup9\n        /* \"src/sstore2/LibZip.sol\":6042:6052  sub(op, s) */\n      sub\n        /* \"src/sstore2/LibZip.sol\":6113:6117  0x20 */\n      0x20\n        /* \"src/sstore2/LibZip.sol\":6110:6111  s */\n      dup3\n        /* \"src/sstore2/LibZip.sol\":6106:6118  xor(s, 0x20) */\n      xor\n        /* \"src/sstore2/LibZip.sol\":6099:6103  0x20 */\n      0x20\n        /* \"src/sstore2/LibZip.sol\":6096:6097  s */\n      dup4\n        /* \"src/sstore2/LibZip.sol\":6093:6104  gt(s, 0x20) */\n      gt\n        /* \"src/sstore2/LibZip.sol\":6089:6119  mul(gt(s, 0x20), xor(s, 0x20)) */\n      mul\n        /* \"src/sstore2/LibZip.sol\":6086:6087  s */\n      dup3\n        /* \"src/sstore2/LibZip.sol\":6082:6120  xor(s, mul(gt(s, 0x20), xor(s, 0x20))) */\n      xor\n        /* \"src/sstore2/LibZip.sol\":6073:6120  let f := xor(s, mul(gt(s, 0x20), xor(s, 0x20))) */\n      swap2\n      pop\n        /* \"src/sstore2/LibZip.sol\":6150:6151  0 */\n      0x00\n        /* \"src/sstore2/LibZip.sol\":5796:6443  for {... */\n    tag_83:\n        /* \"src/sstore2/LibZip.sol\":6222:6231  add(r, j) */\n      dup2\n      dup2\n      add\n        /* \"src/sstore2/LibZip.sol\":6216:6232  mload(add(r, j)) */\n      mload\n        /* \"src/sstore2/LibZip.sol\":6204:6214  add(op, j) */\n      dup11\n      dup3\n      add\n        /* \"src/sstore2/LibZip.sol\":6197:6233  mstore(add(op, j), mload(add(r, j))) */\n      mstore\n        /* \"src/sstore2/LibZip.sol\":6259:6268  add(j, f) */\n      dup3\n      add\n        /* \"src/sstore2/LibZip.sol\":6292:6300  lt(j, l) */\n      dup4\n      dup2\n      lt\n        /* \"src/sstore2/LibZip.sol\":5796:6443  for {... */\n      tag_83\n        /* \"src/sstore2/LibZip.sol\":6289:6313  if lt(j, l) { continue } */\n      jumpi\n        /* \"src/sstore2/LibZip.sol\":6342:6362  add(data, add(2, g)) */\n      swap11\n      dup5\n      add\n        /* \"src/sstore2/LibZip.sol\":6356:6357  2 */\n      0x02\n        /* \"src/sstore2/LibZip.sol\":6342:6362  add(data, add(2, g)) */\n      add\n      swap11\n        /* \"src/sstore2/LibZip.sol\":6389:6399  add(op, l) */\n      swap9\n      dup4\n      add\n      swap9\n        /* \"src/sstore2/LibZip.sol\":5800:6169  {... */\n      pop\n      pop\n      pop\n      pop\n      pop\n      pop\n      pop\n      pop\n        /* \"src/sstore2/LibZip.sol\":5397:6457  for { data := add(data, 0x20) } lt(data, end) {} {... */\n      jump(tag_79)\n    tag_81:\n      pop\n      not(0x1f)\n        /* \"src/sstore2/LibZip.sol\":6485:6511  sub(op, add(result, 0x20)) */\n      dup3\n      dup3\n      sub\n      add\n        /* \"src/sstore2/LibZip.sol\":6470:6512  mstore(result, sub(op, add(result, 0x20))) */\n      dup3\n      mstore\n        /* \"src/sstore2/LibZip.sol\":6557:6558  0 */\n      0x00\n        /* \"src/sstore2/LibZip.sol\":6546:6559  mstore(op, 0) */\n      dup2\n      mstore\n        /* \"src/sstore2/LibZip.sol\":6505:6509  0x20 */\n      0x20\n        /* \"src/sstore2/LibZip.sol\":6623:6636  add(op, 0x20) */\n      add\n        /* \"src/sstore2/LibZip.sol\":6617:6621  0x40 */\n      0x40\n        /* \"src/sstore2/LibZip.sol\":6610:6637  mstore(0x40, add(op, 0x20)) */\n      mstore\n        /* \"src/sstore2/LibZip.sol\":6497:6503  result */\n      swap2\n        /* \"src/sstore2/LibZip.sol\":5104:6677  function flzDecompress(bytes memory data) internal pure returns (bytes memory result) {... */\n      swap1\n      pop\n      jump\t// out\n        /* \"#utility.yul\":14:409   */\n    tag_11:\n        /* \"#utility.yul\":79:85   */\n      0x00\n        /* \"#utility.yul\":87:93   */\n      0x00\n        /* \"#utility.yul\":140:142   */\n      0x40\n        /* \"#utility.yul\":128:137   */\n      dup4\n        /* \"#utility.yul\":119:126   */\n      dup6\n        /* \"#utility.yul\":115:138   */\n      sub\n        /* \"#utility.yul\":111:143   */\n      slt\n        /* \"#utility.yul\":108:160   */\n      iszero\n      tag_91\n      jumpi\n        /* \"#utility.yul\":156:157   */\n      0x00\n        /* \"#utility.yul\":153:154   */\n      0x00\n        /* \"#utility.yul\":146:158   */\n      revert\n        /* \"#utility.yul\":108:160   */\n    tag_91:\n        /* \"#utility.yul\":201:224   */\n      dup3\n      calldataload\n      swap2\n      pop\n        /* \"#utility.yul\":300:302   */\n      0x20\n        /* \"#utility.yul\":285:303   */\n      dup4\n      add\n        /* \"#utility.yul\":272:304   */\n      calldataload\n        /* \"#utility.yul\":342:357   */\n      dup1\n      iszero\n        /* \"#utility.yul\":335:358   */\n      iszero\n        /* \"#utility.yul\":323:359   */\n      dup2\n      eq\n        /* \"#utility.yul\":313:377   */\n      tag_92\n      jumpi\n        /* \"#utility.yul\":373:374   */\n      0x00\n        /* \"#utility.yul\":370:371   */\n      0x00\n        /* \"#utility.yul\":363:375   */\n      revert\n        /* \"#utility.yul\":313:377   */\n    tag_92:\n        /* \"#utility.yul\":396:403   */\n      dup1\n        /* \"#utility.yul\":386:403   */\n      swap2\n      pop\n      pop\n        /* \"#utility.yul\":14:409   */\n      swap3\n      pop\n      swap3\n      swap1\n      pop\n      jump\t// out\n        /* \"#utility.yul\":414:830   */\n    tag_14:\n        /* \"#utility.yul\":561:563   */\n      0x20\n        /* \"#utility.yul\":550:559   */\n      dup2\n        /* \"#utility.yul\":543:564   */\n      mstore\n        /* \"#utility.yul\":524:528   */\n      0x00\n        /* \"#utility.yul\":593:599   */\n      dup3\n        /* \"#utility.yul\":587:600   */\n      mload\n        /* \"#utility.yul\":636:642   */\n      dup1\n        /* \"#utility.yul\":631:633   */\n      0x20\n        /* \"#utility.yul\":620:629   */\n      dup5\n        /* \"#utility.yul\":616:634   */\n      add\n        /* \"#utility.yul\":609:643   */\n      mstore\n        /* \"#utility.yul\":695:701   */\n      dup1\n        /* \"#utility.yul\":690:692   */\n      0x20\n        /* \"#utility.yul\":682:688   */\n      dup6\n        /* \"#utility.yul\":678:693   */\n      add\n        /* \"#utility.yul\":673:675   */\n      0x40\n        /* \"#utility.yul\":662:671   */\n      dup6\n        /* \"#utility.yul\":658:676   */\n      add\n        /* \"#utility.yul\":652:702   */\n      mcopy\n        /* \"#utility.yul\":751:752   */\n      0x00\n        /* \"#utility.yul\":746:748   */\n      0x40\n        /* \"#utility.yul\":737:743   */\n      dup3\n        /* \"#utility.yul\":726:735   */\n      dup6\n        /* \"#utility.yul\":722:744   */\n      add\n        /* \"#utility.yul\":718:749   */\n      add\n        /* \"#utility.yul\":711:753   */\n      mstore\n        /* \"#utility.yul\":821:823   */\n      0x40\n        /* \"#utility.yul\":814:816   */\n      0x1f\n        /* \"#utility.yul\":810:817   */\n      not\n        /* \"#utility.yul\":805:807   */\n      0x1f\n        /* \"#utility.yul\":797:803   */\n      dup4\n        /* \"#utility.yul\":793:808   */\n      add\n        /* \"#utility.yul\":789:818   */\n      and\n        /* \"#utility.yul\":778:787   */\n      dup5\n        /* \"#utility.yul\":774:819   */\n      add\n        /* \"#utility.yul\":770:824   */\n      add\n        /* \"#utility.yul\":762:824   */\n      swap2\n      pop\n      pop\n        /* \"#utility.yul\":414:830   */\n      swap3\n      swap2\n      pop\n      pop\n      jump\t// out\n        /* \"#utility.yul\":835:1061   */\n    tag_17:\n        /* \"#utility.yul\":894:900   */\n      0x00\n        /* \"#utility.yul\":947:949   */\n      0x20\n        /* \"#utility.yul\":935:944   */\n      dup3\n        /* \"#utility.yul\":926:933   */\n      dup5\n        /* \"#utility.yul\":922:945   */\n      sub\n        /* \"#utility.yul\":918:950   */\n      slt\n        /* \"#utility.yul\":915:967   */\n      iszero\n      tag_95\n      jumpi\n        /* \"#utility.yul\":963:964   */\n      0x00\n        /* \"#utility.yul\":960:961   */\n      0x00\n        /* \"#utility.yul\":953:965   */\n      revert\n        /* \"#utility.yul\":915:967   */\n    tag_95:\n      pop\n        /* \"#utility.yul\":1008:1031   */\n      calldataload\n      swap2\n        /* \"#utility.yul\":835:1061   */\n      swap1\n      pop\n      jump\t// out\n        /* \"#utility.yul\":1066:1193   */\n    tag_88:\n        /* \"#utility.yul\":1127:1137   */\n      0x4e487b71\n        /* \"#utility.yul\":1122:1125   */\n      0xe0\n        /* \"#utility.yul\":1118:1138   */\n      shl\n        /* \"#utility.yul\":1115:1116   */\n      0x00\n        /* \"#utility.yul\":1108:1139   */\n      mstore\n        /* \"#utility.yul\":1158:1162   */\n      0x41\n        /* \"#utility.yul\":1155:1156   */\n      0x04\n        /* \"#utility.yul\":1148:1163   */\n      mstore\n        /* \"#utility.yul\":1182:1186   */\n      0x24\n        /* \"#utility.yul\":1179:1180   */\n      0x00\n        /* \"#utility.yul\":1172:1187   */\n      revert\n        /* \"#utility.yul\":1198:2256   */\n    tag_24:\n        /* \"#utility.yul\":1275:1281   */\n      0x00\n        /* \"#utility.yul\":1283:1289   */\n      0x00\n        /* \"#utility.yul\":1336:1338   */\n      0x40\n        /* \"#utility.yul\":1324:1333   */\n      dup4\n        /* \"#utility.yul\":1315:1322   */\n      dup6\n        /* \"#utility.yul\":1311:1334   */\n      sub\n        /* \"#utility.yul\":1307:1339   */\n      slt\n        /* \"#utility.yul\":1304:1356   */\n      iszero\n      tag_98\n      jumpi\n        /* \"#utility.yul\":1352:1353   */\n      0x00\n        /* \"#utility.yul\":1349:1350   */\n      0x00\n        /* \"#utility.yul\":1342:1354   */\n      revert\n        /* \"#utility.yul\":1304:1356   */\n    tag_98:\n        /* \"#utility.yul\":1397:1420   */\n      dup3\n      calldataload\n      swap2\n      pop\n        /* \"#utility.yul\":1495:1497   */\n      0x20\n        /* \"#utility.yul\":1480:1498   */\n      dup4\n      add\n        /* \"#utility.yul\":1467:1499   */\n      calldataload\n        /* \"#utility.yul\":1522:1540   */\n      0xffffffffffffffff\n        /* \"#utility.yul\":1511:1541   */\n      dup2\n      gt\n        /* \"#utility.yul\":1508:1558   */\n      iszero\n      tag_99\n      jumpi\n        /* \"#utility.yul\":1554:1555   */\n      0x00\n        /* \"#utility.yul\":1551:1552   */\n      0x00\n        /* \"#utility.yul\":1544:1556   */\n      revert\n        /* \"#utility.yul\":1508:1558   */\n    tag_99:\n        /* \"#utility.yul\":1577:1599   */\n      dup4\n      add\n        /* \"#utility.yul\":1630:1634   */\n      0x1f\n        /* \"#utility.yul\":1622:1635   */\n      dup2\n      add\n        /* \"#utility.yul\":1618:1645   */\n      dup6\n      sgt\n        /* \"#utility.yul\":1608:1663   */\n      tag_100\n      jumpi\n        /* \"#utility.yul\":1659:1660   */\n      0x00\n        /* \"#utility.yul\":1656:1657   */\n      0x00\n        /* \"#utility.yul\":1649:1661   */\n      revert\n        /* \"#utility.yul\":1608:1663   */\n    tag_100:\n        /* \"#utility.yul\":1699:1701   */\n      dup1\n        /* \"#utility.yul\":1686:1702   */\n      calldataload\n        /* \"#utility.yul\":1725:1743   */\n      0xffffffffffffffff\n        /* \"#utility.yul\":1717:1723   */\n      dup2\n        /* \"#utility.yul\":1714:1744   */\n      gt\n        /* \"#utility.yul\":1711:1767   */\n      iszero\n      tag_102\n      jumpi\n        /* \"#utility.yul\":1747:1765   */\n      tag_102\n      tag_88\n      jump\t// in\n    tag_102:\n        /* \"#utility.yul\":1796:1798   */\n      0x40\n        /* \"#utility.yul\":1790:1799   */\n      mload\n        /* \"#utility.yul\":1888:1890   */\n      0x1f\n        /* \"#utility.yul\":1850:1867   */\n      dup3\n      add\n      not(0x1f)\n        /* \"#utility.yul\":1846:1877   */\n      swap1\n      dup2\n      and\n        /* \"#utility.yul\":1879:1881   */\n      0x3f\n        /* \"#utility.yul\":1842:1882   */\n      add\n        /* \"#utility.yul\":1838:1892   */\n      and\n        /* \"#utility.yul\":1826:1893   */\n      dup2\n      add\n        /* \"#utility.yul\":1923:1941   */\n      0xffffffffffffffff\n        /* \"#utility.yul\":1908:1942   */\n      dup2\n      gt\n        /* \"#utility.yul\":1944:1966   */\n      dup3\n      dup3\n      lt\n        /* \"#utility.yul\":1905:1967   */\n      or\n        /* \"#utility.yul\":1902:1990   */\n      iszero\n      tag_104\n      jumpi\n        /* \"#utility.yul\":1970:1988   */\n      tag_104\n      tag_88\n      jump\t// in\n    tag_104:\n        /* \"#utility.yul\":2006:2008   */\n      0x40\n        /* \"#utility.yul\":1999:2021   */\n      mstore\n        /* \"#utility.yul\":2030:2052   */\n      dup2\n      dup2\n      mstore\n        /* \"#utility.yul\":2071:2086   */\n      dup3\n      dup3\n      add\n        /* \"#utility.yul\":2088:2090   */\n      0x20\n        /* \"#utility.yul\":2067:2091   */\n      add\n        /* \"#utility.yul\":2064:2101   */\n      dup8\n      lt\n        /* \"#utility.yul\":2061:2118   */\n      iszero\n      tag_105\n      jumpi\n        /* \"#utility.yul\":2114:2115   */\n      0x00\n        /* \"#utility.yul\":2111:2112   */\n      0x00\n        /* \"#utility.yul\":2104:2116   */\n      revert\n        /* \"#utility.yul\":2061:2118   */\n    tag_105:\n        /* \"#utility.yul\":2170:2176   */\n      dup2\n        /* \"#utility.yul\":2165:2167   */\n      0x20\n        /* \"#utility.yul\":2161:2163   */\n      dup5\n        /* \"#utility.yul\":2157:2168   */\n      add\n        /* \"#utility.yul\":2152:2154   */\n      0x20\n        /* \"#utility.yul\":2144:2150   */\n      dup4\n        /* \"#utility.yul\":2140:2155   */\n      add\n        /* \"#utility.yul\":2127:2177   */\n      calldatacopy\n        /* \"#utility.yul\":2223:2224   */\n      0x00\n        /* \"#utility.yul\":2218:2220   */\n      0x20\n        /* \"#utility.yul\":2209:2215   */\n      dup4\n        /* \"#utility.yul\":2201:2207   */\n      dup4\n        /* \"#utility.yul\":2197:2216   */\n      add\n        /* \"#utility.yul\":2193:2221   */\n      add\n        /* \"#utility.yul\":2186:2225   */\n      mstore\n        /* \"#utility.yul\":2244:2250   */\n      dup1\n        /* \"#utility.yul\":2234:2250   */\n      swap4\n      pop\n      pop\n      pop\n      pop\n        /* \"#utility.yul\":1198:2256   */\n      swap3\n      pop\n      swap3\n      swap1\n      pop\n      jump\t// out\n        /* \"#utility.yul\":2469:2755   */\n    tag_32:\n        /* \"#utility.yul\":2528:2534   */\n      0x00\n        /* \"#utility.yul\":2581:2583   */\n      0x20\n        /* \"#utility.yul\":2569:2578   */\n      dup3\n        /* \"#utility.yul\":2560:2567   */\n      dup5\n        /* \"#utility.yul\":2556:2579   */\n      sub\n        /* \"#utility.yul\":2552:2584   */\n      slt\n        /* \"#utility.yul\":2549:2601   */\n      iszero\n      tag_108\n      jumpi\n        /* \"#utility.yul\":2597:2598   */\n      0x00\n        /* \"#utility.yul\":2594:2595   */\n      0x00\n        /* \"#utility.yul\":2587:2599   */\n      revert\n        /* \"#utility.yul\":2549:2601   */\n    tag_108:\n        /* \"#utility.yul\":2623:2646   */\n      dup2\n      calldataload\n      sub(shl(0xa0, 0x01), 0x01)\n        /* \"#utility.yul\":2675:2706   */\n      dup2\n      and\n        /* \"#utility.yul\":2665:2707   */\n      dup2\n      eq\n        /* \"#utility.yul\":2655:2725   */\n      tag_109\n      jumpi\n        /* \"#utility.yul\":2721:2722   */\n      0x00\n        /* \"#utility.yul\":2718:2719   */\n      0x00\n        /* \"#utility.yul\":2711:2723   */\n      revert\n        /* \"#utility.yul\":2655:2725   */\n    tag_109:\n        /* \"#utility.yul\":2744:2749   */\n      swap4\n        /* \"#utility.yul\":2469:2755   */\n      swap3\n      pop\n      pop\n      pop\n      jump\t// out\n\n    auxdata: 0xa26469706673582212203d97e9fa6b9f8765c6a5933f048781601661b7c922caa2bd852a2c3d511ce5df64736f6c634300081e0033\n}\n",
				"bytecode": {
					"linkReferences": {},
					"object": "6080604052348015600e575f5ffd5b503380603357604051631e4fbdf760e01b81525f600482015260240160405180910390fd5b603a81603f565b50608e565b5f80546001600160a01b038381166001600160a01b0319831681178455604051919092169283917f8be0079c531659141344cd1fd0a4f28419497f9722a3daafe3b4186f6b6457e09190a35050565b6105a18061009b5f395ff3fe608060405234801561000f575f5ffd5b5060043610610060575f3560e01c806302bb3d74146100645780632f6987f11461008d578063715018a6146100a0578063749f1647146100aa5780638da5cb5b146100bd578063f2fde38b146100d7575b5f5ffd5b6100776100723660046103ef565b6100ea565b6040516100849190610421565b60405180910390f35b61007761009b366004610456565b6100ff565b6100a861010b565b005b6100a86100b8366004610481565b61011e565b5f546040516001600160a01b039091168152602001610084565b6100a86100e536600461053e565b61015e565b60606100f683836101a0565b90505b92915050565b60606100f9825f6101a0565b61011361022a565b61011c5f610256565b565b61012661022a565b61012f816102a5565b5f9283526001602052604090922080546001600160a01b0319166001600160a01b039093169290921790915550565b61016661022a565b6001600160a01b03811661019457604051631e4fbdf760e01b81525f60048201526024015b60405180910390fd5b61019d81610256565b50565b5f828152600160205260409020546060906001600160a01b0316806101fe5760405162461bcd60e51b8152602060048201526014602482015273105cdcd95d08191bd95cc81b9bdd08195e1a5cdd60621b604482015260640161018b565b5f610208826102eb565b905083156102225761021981610333565b925050506100f9565b949350505050565b5f546001600160a01b0316331461011c5760405163118cdaa760e01b815233600482015260240161018b565b5f80546001600160a01b038381166001600160a01b0319831681178455604051919092169283917f8be0079c531659141344cd1fd0a4f28419497f9722a3daafe3b4186f6b6457e09190a35050565b5f8151600181018060401b6bfd61000080600a3d393df3001761ffff8211850152600a8101601585015ff0925050816102e55763301164255f526004601cfd5b90915290565b6060813b80610301576311052bb45f526004601cfd5b600181039050604051915061ffe0603f82011682016040528082525f8160208401015280600160208401853c50919050565b60405181516020838101938184019201015b808410156103d7578351805f1a8060051c80610377575060018681015185529581016002019593019092019150610345565b600781148360011a600701821881028218600201600185836001011a85601f1660081b0101808803602082186020831102821891505f5b818101518a82015282018381106103ae579a84016002019a988301985050505050505050610345565b50601f198282030182525f8152602001604052919050565b5f5f60408385031215610400575f5ffd5b8235915060208301358015158114610416575f5ffd5b809150509250929050565b602081525f82518060208401528060208501604085015e5f604082850101526040601f19601f83011684010191505092915050565b5f60208284031215610466575f5ffd5b5035919050565b634e487b7160e01b5f52604160045260245ffd5b5f5f60408385031215610492575f5ffd5b82359150602083013567ffffffffffffffff8111156104af575f5ffd5b8301601f810185136104bf575f5ffd5b803567ffffffffffffffff8111156104d9576104d961046d565b604051601f8201601f19908116603f0116810167ffffffffffffffff811182821017156105085761050861046d565b60405281815282820160200187101561051f575f5ffd5b816020840160208301375f602083830101528093505050509250929050565b5f6020828403121561054e575f5ffd5b81356001600160a01b0381168114610564575f5ffd5b939250505056fea26469706673582212203d97e9fa6b9f8765c6a5933f048781601661b7c922caa2bd852a2c3d511ce5df64736f6c634300081e0033",
					"opcodes": "PUSH1 0x80 PUSH1 0x40 MSTORE CALLVALUE DUP1 ISZERO PUSH1 0xE JUMPI PUSH0 PUSH0 REVERT JUMPDEST POP CALLER DUP1 PUSH1 0x33 JUMPI PUSH1 0x40 MLOAD PUSH4 0x1E4FBDF7 PUSH1 0xE0 SHL DUP2 MSTORE PUSH0 PUSH1 0x4 DUP3 ADD MSTORE PUSH1 0x24 ADD PUSH1 0x40 MLOAD DUP1 SWAP2 SUB SWAP1 REVERT JUMPDEST PUSH1 0x3A DUP2 PUSH1 0x3F JUMP JUMPDEST POP PUSH1 0x8E JUMP JUMPDEST PUSH0 DUP1 SLOAD PUSH1 0x1 PUSH1 0x1 PUSH1 0xA0 SHL SUB DUP4 DUP2 AND PUSH1 0x1 PUSH1 0x1 PUSH1 0xA0 SHL SUB NOT DUP4 AND DUP2 OR DUP5 SSTORE PUSH1 0x40 MLOAD SWAP2 SWAP1 SWAP3 AND SWAP3 DUP4 SWAP2 PUSH32 0x8BE0079C531659141344CD1FD0A4F28419497F9722A3DAAFE3B4186F6B6457E0 SWAP2 SWAP1 LOG3 POP POP JUMP JUMPDEST PUSH2 0x5A1 DUP1 PUSH2 0x9B PUSH0 CODECOPY PUSH0 RETURN INVALID PUSH1 0x80 PUSH1 0x40 MSTORE CALLVALUE DUP1 ISZERO PUSH2 0xF JUMPI PUSH0 PUSH0 REVERT JUMPDEST POP PUSH1 0x4 CALLDATASIZE LT PUSH2 0x60 JUMPI PUSH0 CALLDATALOAD PUSH1 0xE0 SHR DUP1 PUSH4 0x2BB3D74 EQ PUSH2 0x64 JUMPI DUP1 PUSH4 0x2F6987F1 EQ PUSH2 0x8D JUMPI DUP1 PUSH4 0x715018A6 EQ PUSH2 0xA0 JUMPI DUP1 PUSH4 0x749F1647 EQ PUSH2 0xAA JUMPI DUP1 PUSH4 0x8DA5CB5B EQ PUSH2 0xBD JUMPI DUP1 PUSH4 0xF2FDE38B EQ PUSH2 0xD7 JUMPI JUMPDEST PUSH0 PUSH0 REVERT JUMPDEST PUSH2 0x77 PUSH2 0x72 CALLDATASIZE PUSH1 0x4 PUSH2 0x3EF JUMP JUMPDEST PUSH2 0xEA JUMP JUMPDEST PUSH1 0x40 MLOAD PUSH2 0x84 SWAP2 SWAP1 PUSH2 0x421 JUMP JUMPDEST PUSH1 0x40 MLOAD DUP1 SWAP2 SUB SWAP1 RETURN JUMPDEST PUSH2 0x77 PUSH2 0x9B CALLDATASIZE PUSH1 0x4 PUSH2 0x456 JUMP JUMPDEST PUSH2 0xFF JUMP JUMPDEST PUSH2 0xA8 PUSH2 0x10B JUMP JUMPDEST STOP JUMPDEST PUSH2 0xA8 PUSH2 0xB8 CALLDATASIZE PUSH1 0x4 PUSH2 0x481 JUMP JUMPDEST PUSH2 0x11E JUMP JUMPDEST PUSH0 SLOAD PUSH1 0x40 MLOAD PUSH1 0x1 PUSH1 0x1 PUSH1 0xA0 SHL SUB SWAP1 SWAP2 AND DUP2 MSTORE PUSH1 0x20 ADD PUSH2 0x84 JUMP JUMPDEST PUSH2 0xA8 PUSH2 0xE5 CALLDATASIZE PUSH1 0x4 PUSH2 0x53E JUMP JUMPDEST PUSH2 0x15E JUMP JUMPDEST PUSH1 0x60 PUSH2 0xF6 DUP4 DUP4 PUSH2 0x1A0 JUMP JUMPDEST SWAP1 POP JUMPDEST SWAP3 SWAP2 POP POP JUMP JUMPDEST PUSH1 0x60 PUSH2 0xF9 DUP3 PUSH0 PUSH2 0x1A0 JUMP JUMPDEST PUSH2 0x113 PUSH2 0x22A JUMP JUMPDEST PUSH2 0x11C PUSH0 PUSH2 0x256 JUMP JUMPDEST JUMP JUMPDEST PUSH2 0x126 PUSH2 0x22A JUMP JUMPDEST PUSH2 0x12F DUP2 PUSH2 0x2A5 JUMP JUMPDEST PUSH0 SWAP3 DUP4 MSTORE PUSH1 0x1 PUSH1 0x20 MSTORE PUSH1 0x40 SWAP1 SWAP3 KECCAK256 DUP1 SLOAD PUSH1 0x1 PUSH1 0x1 PUSH1 0xA0 SHL SUB NOT AND PUSH1 0x1 PUSH1 0x1 PUSH1 0xA0 SHL SUB SWAP1 SWAP4 AND SWAP3 SWAP1 SWAP3 OR SWAP1 SWAP2 SSTORE POP JUMP JUMPDEST PUSH2 0x166 PUSH2 0x22A JUMP JUMPDEST PUSH1 0x1 PUSH1 0x1 PUSH1 0xA0 SHL SUB DUP2 AND PUSH2 0x194 JUMPI PUSH1 0x40 MLOAD PUSH4 0x1E4FBDF7 PUSH1 0xE0 SHL DUP2 MSTORE PUSH0 PUSH1 0x4 DUP3 ADD MSTORE PUSH1 0x24 ADD JUMPDEST PUSH1 0x40 MLOAD DUP1 SWAP2 SUB SWAP1 REVERT JUMPDEST PUSH2 0x19D DUP2 PUSH2 0x256 JUMP JUMPDEST POP JUMP JUMPDEST PUSH0 DUP3 DUP2 MSTORE PUSH1 0x1 PUSH1 0x20 MSTORE PUSH1 0x40 SWAP1 KECCAK256 SLOAD PUSH1 0x60 SWAP1 PUSH1 0x1 PUSH1 0x1 PUSH1 0xA0 SHL SUB AND DUP1 PUSH2 0x1FE JUMPI PUSH1 0x40 MLOAD PUSH3 0x461BCD PUSH1 0xE5 SHL DUP2 MSTORE PUSH1 0x20 PUSH1 0x4 DUP3 ADD MSTORE PUSH1 0x14 PUSH1 0x24 DUP3 ADD MSTORE PUSH20 0x105CDCD95D08191BD95CC81B9BDD08195E1A5CDD PUSH1 0x62 SHL PUSH1 0x44 DUP3 ADD MSTORE PUSH1 0x64 ADD PUSH2 0x18B JUMP JUMPDEST PUSH0 PUSH2 0x208 DUP3 PUSH2 0x2EB JUMP JUMPDEST SWAP1 POP DUP4 ISZERO PUSH2 0x222 JUMPI PUSH2 0x219 DUP2 PUSH2 0x333 JUMP JUMPDEST SWAP3 POP POP POP PUSH2 0xF9 JUMP JUMPDEST SWAP5 SWAP4 POP POP POP POP JUMP JUMPDEST PUSH0 SLOAD PUSH1 0x1 PUSH1 0x1 PUSH1 0xA0 SHL SUB AND CALLER EQ PUSH2 0x11C JUMPI PUSH1 0x40 MLOAD PUSH4 0x118CDAA7 PUSH1 0xE0 SHL DUP2 MSTORE CALLER PUSH1 0x4 DUP3 ADD MSTORE PUSH1 0x24 ADD PUSH2 0x18B JUMP JUMPDEST PUSH0 DUP1 SLOAD PUSH1 0x1 PUSH1 0x1 PUSH1 0xA0 SHL SUB DUP4 DUP2 AND PUSH1 0x1 PUSH1 0x1 PUSH1 0xA0 SHL SUB NOT DUP4 AND DUP2 OR DUP5 SSTORE PUSH1 0x40 MLOAD SWAP2 SWAP1 SWAP3 AND SWAP3 DUP4 SWAP2 PUSH32 0x8BE0079C531659141344CD1FD0A4F28419497F9722A3DAAFE3B4186F6B6457E0 SWAP2 SWAP1 LOG3 POP POP JUMP JUMPDEST PUSH0 DUP2 MLOAD PUSH1 0x1 DUP2 ADD DUP1 PUSH1 0x40 SHL PUSH12 0xFD61000080600A3D393DF300 OR PUSH2 0xFFFF DUP3 GT DUP6 ADD MSTORE PUSH1 0xA DUP2 ADD PUSH1 0x15 DUP6 ADD PUSH0 CREATE SWAP3 POP POP DUP2 PUSH2 0x2E5 JUMPI PUSH4 0x30116425 PUSH0 MSTORE PUSH1 0x4 PUSH1 0x1C REVERT JUMPDEST SWAP1 SWAP2 MSTORE SWAP1 JUMP JUMPDEST PUSH1 0x60 DUP2 EXTCODESIZE DUP1 PUSH2 0x301 JUMPI PUSH4 0x11052BB4 PUSH0 MSTORE PUSH1 0x4 PUSH1 0x1C REVERT JUMPDEST PUSH1 0x1 DUP2 SUB SWAP1 POP PUSH1 0x40 MLOAD SWAP2 POP PUSH2 0xFFE0 PUSH1 0x3F DUP3 ADD AND DUP3 ADD PUSH1 0x40 MSTORE DUP1 DUP3 MSTORE PUSH0 DUP2 PUSH1 0x20 DUP5 ADD ADD MSTORE DUP1 PUSH1 0x1 PUSH1 0x20 DUP5 ADD DUP6 EXTCODECOPY POP SWAP2 SWAP1 POP JUMP JUMPDEST PUSH1 0x40 MLOAD DUP2 MLOAD PUSH1 0x20 DUP4 DUP2 ADD SWAP4 DUP2 DUP5 ADD SWAP3 ADD ADD JUMPDEST DUP1 DUP5 LT ISZERO PUSH2 0x3D7 JUMPI DUP4 MLOAD DUP1 PUSH0 BYTE DUP1 PUSH1 0x5 SHR DUP1 PUSH2 0x377 JUMPI POP PUSH1 0x1 DUP7 DUP2 ADD MLOAD DUP6 MSTORE SWAP6 DUP2 ADD PUSH1 0x2 ADD SWAP6 SWAP4 ADD SWAP1 SWAP3 ADD SWAP2 POP PUSH2 0x345 JUMP JUMPDEST PUSH1 0x7 DUP2 EQ DUP4 PUSH1 0x1 BYTE PUSH1 0x7 ADD DUP3 XOR DUP2 MUL DUP3 XOR PUSH1 0x2 ADD PUSH1 0x1 DUP6 DUP4 PUSH1 0x1 ADD BYTE DUP6 PUSH1 0x1F AND PUSH1 0x8 SHL ADD ADD DUP1 DUP9 SUB PUSH1 0x20 DUP3 XOR PUSH1 0x20 DUP4 GT MUL DUP3 XOR SWAP2 POP PUSH0 JUMPDEST DUP2 DUP2 ADD MLOAD DUP11 DUP3 ADD MSTORE DUP3 ADD DUP4 DUP2 LT PUSH2 0x3AE JUMPI SWAP11 DUP5 ADD PUSH1 0x2 ADD SWAP11 SWAP9 DUP4 ADD SWAP9 POP POP POP POP POP POP POP POP PUSH2 0x345 JUMP JUMPDEST POP PUSH1 0x1F NOT DUP3 DUP3 SUB ADD DUP3 MSTORE PUSH0 DUP2 MSTORE PUSH1 0x20 ADD PUSH1 0x40 MSTORE SWAP2 SWAP1 POP JUMP JUMPDEST PUSH0 PUSH0 PUSH1 0x40 DUP4 DUP6 SUB SLT ISZERO PUSH2 0x400 JUMPI PUSH0 PUSH0 REVERT JUMPDEST DUP3 CALLDATALOAD SWAP2 POP PUSH1 0x20 DUP4 ADD CALLDATALOAD DUP1 ISZERO ISZERO DUP2 EQ PUSH2 0x416 JUMPI PUSH0 PUSH0 REVERT JUMPDEST DUP1 SWAP2 POP POP SWAP3 POP SWAP3 SWAP1 POP JUMP JUMPDEST PUSH1 0x20 DUP2 MSTORE PUSH0 DUP3 MLOAD DUP1 PUSH1 0x20 DUP5 ADD MSTORE DUP1 PUSH1 0x20 DUP6 ADD PUSH1 0x40 DUP6 ADD MCOPY PUSH0 PUSH1 0x40 DUP3 DUP6 ADD ADD MSTORE PUSH1 0x40 PUSH1 0x1F NOT PUSH1 0x1F DUP4 ADD AND DUP5 ADD ADD SWAP2 POP POP SWAP3 SWAP2 POP POP JUMP JUMPDEST PUSH0 PUSH1 0x20 DUP3 DUP5 SUB SLT ISZERO PUSH2 0x466 JUMPI PUSH0 PUSH0 REVERT JUMPDEST POP CALLDATALOAD SWAP2 SWAP1 POP JUMP JUMPDEST PUSH4 0x4E487B71 PUSH1 0xE0 SHL PUSH0 MSTORE PUSH1 0x41 PUSH1 0x4 MSTORE PUSH1 0x24 PUSH0 REVERT JUMPDEST PUSH0 PUSH0 PUSH1 0x40 DUP4 DUP6 SUB SLT ISZERO PUSH2 0x492 JUMPI PUSH0 PUSH0 REVERT JUMPDEST DUP3 CALLDATALOAD SWAP2 POP PUSH1 0x20 DUP4 ADD CALLDATALOAD PUSH8 0xFFFFFFFFFFFFFFFF DUP2 GT ISZERO PUSH2 0x4AF JUMPI PUSH0 PUSH0 REVERT JUMPDEST DUP4 ADD PUSH1 0x1F DUP2 ADD DUP6 SGT PUSH2 0x4BF JUMPI PUSH0 PUSH0 REVERT JUMPDEST DUP1 CALLDATALOAD PUSH8 0xFFFFFFFFFFFFFFFF DUP2 GT ISZERO PUSH2 0x4D9 JUMPI PUSH2 0x4D9 PUSH2 0x46D JUMP JUMPDEST PUSH1 0x40 MLOAD PUSH1 0x1F DUP3 ADD PUSH1 0x1F NOT SWAP1 DUP2 AND PUSH1 0x3F ADD AND DUP2 ADD PUSH8 0xFFFFFFFFFFFFFFFF DUP2 GT DUP3 DUP3 LT OR ISZERO PUSH2 0x508 JUMPI PUSH2 0x508 PUSH2 0x46D JUMP JUMPDEST PUSH1 0x40 MSTORE DUP2 DUP2 MSTORE DUP3 DUP3 ADD PUSH1 0x20 ADD DUP8 LT ISZERO PUSH2 0x51F JUMPI PUSH0 PUSH0 REVERT JUMPDEST DUP2 PUSH1 0x20 DUP5 ADD PUSH1 0x20 DUP4 ADD CALLDATACOPY PUSH0 PUSH1 0x20 DUP4 DUP4 ADD ADD MSTORE DUP1 SWAP4 POP POP POP POP SWAP3 POP SWAP3 SWAP1 POP JUMP JUMPDEST PUSH0 PUSH1 0x20 DUP3 DUP5 SUB SLT ISZERO PUSH2 0x54E JUMPI PUSH0 PUSH0 REVERT JUMPDEST DUP2 CALLDATALOAD PUSH1 0x1 PUSH1 0x1 PUSH1 0xA0 SHL SUB DUP2 AND DUP2 EQ PUSH2 0x564 JUMPI PUSH0 PUSH0 REVERT JUMPDEST SWAP4 SWAP3 POP POP POP JUMP INVALID LOG2 PUSH5 0x6970667358 0x22 SLT KECCAK256 RETURNDATASIZE SWAP8 0xE9 STATICCALL PUSH12 0x9F8765C6A5933F0487816016 PUSH2 0xB7C9 0x22 0xCA LOG2 0xBD DUP6 0x2A 0x2C RETURNDATASIZE MLOAD SHR JUMPF 0xDF64 PUSH20 0x6F6C634300081E00330000000000000000000000 "
				},
				"gasEstimates": {
					"creation": {
						"codeDepositCost": "288200",
						"executionCost": "26191",
						"totalCost": "314391"
					},
					"external": {
						"addAsset(uint256,bytes)": "infinite",
						"loadAsset(uint256)": "infinite",
						"loadAsset(uint256,bool)": "infinite",
						"owner()": "2365",
						"renounceOwnership()": "infinite",
						"transferOwnership(address)": "28382"
					},
					"internal": {
						"loadAssetInternal(uint256,bool)": "infinite"
					}
				},
				"methodIdentifiers": {
					"addAsset(uint256,bytes)": "749f1647",
					"loadAsset(uint256)": "2f6987f1",
					"loadAsset(uint256,bool)": "02bb3d74",
					"owner()": "8da5cb5b",
					"renounceOwnership()": "715018a6",
					"transferOwnership(address)": "f2fde38b"
				}
			},
			"storageLayout": {
				"storage": [
					{
						"astId": 8,
						"contract": "src/sstore2/AssetsSSTORE2.sol:AssetsSSTORE2",
						"label": "_owner",
						"offset": 0,
						"slot": "0",
						"type": "t_address"
					},
					{
						"astId": 199,
						"contract": "src/sstore2/AssetsSSTORE2.sol:AssetsSSTORE2",
						"label": "fs",
						"offset": 0,
						"slot": "1",
						"type": "t_struct(FS)192_storage"
					}
				],
				"types": {
					"t_address": {
						"encoding": "inplace",
						"label": "address",
						"numberOfBytes": "20"
					},
					"t_mapping(t_uint256,t_address)": {
						"encoding": "mapping",
						"key": "t_uint256",
						"label": "mapping(uint256 => address)",
						"numberOfBytes": "32",
						"value": "t_address"
					},
					"t_struct(FS)192_storage": {
						"encoding": "inplace",
						"label": "struct FS",
						"members": [
							{
								"astId": 191,
								"contract": "src/sstore2/AssetsSSTORE2.sol:AssetsSSTORE2",
								"label": "assets",
								"offset": 0,
								"slot": "0",
								"type": "t_mapping(t_uint256,t_address)"
							}
						],
						"numberOfBytes": "32"
					},
					"t_uint256": {
						"encoding": "inplace",
						"label": "uint256",
						"numberOfBytes": "32"
					}
				}
			},
			"userdoc": {
				"kind": "user",
				"methods": {},
				"version": 1
			}
		}
	}
}