{
	"src/Traits.sol": {
		"Traits": {
			"abi": [
				{
					"inputs": [
						{
							"internalType": "contract IMaleProbs",
							"name": "_maleProbsContract",
							"type": "address"
						},
						{
							"internalType": "contract IFemaleProbs",
							"name": "_femaleProbsContract",
							"type": "address"
						}
					],
					"stateMutability": "nonpayable",
					"type": "constructor"
				},
				{
					"inputs": [],
					"name": "FEMALE_PROBS_CONTRACT",
					"outputs": [
						{
							"internalType": "contract IFemaleProbs",
							"name": "",
							"type": "address"
						}
					],
					"stateMutability": "view",
					"type": "function"
				},
				{
					"inputs": [],
					"name": "MALE_PROBS_CONTRACT",
					"outputs": [
						{
							"internalType": "contract IMaleProbs",
							"name": "",
							"type": "address"
						}
					],
					"stateMutability": "view",
					"type": "function"
				},
				{
					"inputs": [
						{
							"internalType": "uint16",
							"name": "_tokenIdSeed",
							"type": "uint16"
						},
						{
							"internalType": "uint16",
							"name": "_backgroundIndex",
							"type": "uint16"
						},
						{
							"internalType": "uint256",
							"name": "_globalSeed",
							"type": "uint256"
						}
					],
					"name": "generateAllTraits",
					"outputs": [
						{
							"components": [
								{
									"components": [
										{
											"internalType": "enum E_TraitsGroup",
											"name": "traitGroup",
											"type": "uint8"
										},
										{
											"internalType": "uint8",
											"name": "traitIndex",
											"type": "uint8"
										},
										{
											"internalType": "bool",
											"name": "hasFiller",
											"type": "bool"
										},
										{
											"components": [
												{
													"internalType": "enum E_TraitsGroup",
													"name": "traitGroup",
													"type": "uint8"
												},
												{
													"internalType": "uint8",
													"name": "traitIndex",
													"type": "uint8"
												}
											],
											"internalType": "struct FillerTrait",
											"name": "filler",
											"type": "tuple"
										}
									],
									"internalType": "struct TraitToRender[]",
									"name": "traitsToRender",
									"type": "tuple[]"
								},
								{
									"internalType": "uint8",
									"name": "traitsToRenderLength",
									"type": "uint8"
								},
								{
									"internalType": "uint16",
									"name": "tokenIdSeed",
									"type": "uint16"
								},
								{
									"internalType": "uint256",
									"name": "globalSeed",
									"type": "uint256"
								},
								{
									"internalType": "uint16",
									"name": "specialId",
									"type": "uint16"
								},
								{
									"internalType": "uint32",
									"name": "birthday",
									"type": "uint32"
								},
								{
									"internalType": "enum E_Sex",
									"name": "sex",
									"type": "uint8"
								},
								{
									"internalType": "enum E_Background",
									"name": "background",
									"type": "uint8"
								},
								{
									"internalType": "enum E_Male_Skin",
									"name": "maleSkin",
									"type": "uint8"
								},
								{
									"internalType": "enum E_Male_Eyes",
									"name": "maleEyes",
									"type": "uint8"
								},
								{
									"internalType": "enum E_Male_Face",
									"name": "maleFace",
									"type": "uint8"
								},
								{
									"internalType": "enum E_Male_Chain",
									"name": "maleChain",
									"type": "uint8"
								},
								{
									"internalType": "enum E_Male_Earring",
									"name": "maleEarring",
									"type": "uint8"
								},
								{
									"internalType": "enum E_Male_Scarf",
									"name": "maleScarf",
									"type": "uint8"
								},
								{
									"internalType": "enum E_Male_Facial_Hair",
									"name": "maleFacialHair",
									"type": "uint8"
								},
								{
									"internalType": "enum E_Male_Mask",
									"name": "maleMask",
									"type": "uint8"
								},
								{
									"internalType": "enum E_Male_Hair",
									"name": "maleHair",
									"type": "uint8"
								},
								{
									"internalType": "enum E_Male_Hat_Hair",
									"name": "maleHatHair",
									"type": "uint8"
								},
								{
									"internalType": "enum E_Male_Headwear",
									"name": "maleHeadwear",
									"type": "uint8"
								},
								{
									"internalType": "enum E_Male_Eye_Wear",
									"name": "maleEyeWear",
									"type": "uint8"
								},
								{
									"internalType": "enum E_Female_Skin",
									"name": "femaleSkin",
									"type": "uint8"
								},
								{
									"internalType": "enum E_Female_Eyes",
									"name": "femaleEyes",
									"type": "uint8"
								},
								{
									"internalType": "enum E_Female_Face",
									"name": "femaleFace",
									"type": "uint8"
								},
								{
									"internalType": "enum E_Female_Chain",
									"name": "femaleChain",
									"type": "uint8"
								},
								{
									"internalType": "enum E_Female_Earring",
									"name": "femaleEarring",
									"type": "uint8"
								},
								{
									"internalType": "enum E_Female_Scarf",
									"name": "femaleScarf",
									"type": "uint8"
								},
								{
									"internalType": "enum E_Female_Mask",
									"name": "femaleMask",
									"type": "uint8"
								},
								{
									"internalType": "enum E_Female_Hair",
									"name": "femaleHair",
									"type": "uint8"
								},
								{
									"internalType": "enum E_Female_Hat_Hair",
									"name": "femaleHatHair",
									"type": "uint8"
								},
								{
									"internalType": "enum E_Female_Headwear",
									"name": "femaleHeadwear",
									"type": "uint8"
								},
								{
									"internalType": "enum E_Female_Eye_Wear",
									"name": "femaleEyeWear",
									"type": "uint8"
								},
								{
									"internalType": "enum E_Mouth",
									"name": "mouth",
									"type": "uint8"
								}
							],
							"internalType": "struct TraitsContext",
							"name": "",
							"type": "tuple"
						}
					],
					"stateMutability": "view",
					"type": "function"
				}
			],
			"devdoc": {
				"details": "Optimized for gas efficiency with unchecked arithmetic where safe",
				"kind": "dev",
				"methods": {
					"generateAllTraits(uint16,uint16,uint256)": {
						"params": {
							"_backgroundIndex": "Selected background (0 to NUM_BACKGROUND-1)",
							"_globalSeed": "Global randomness seed",
							"_tokenIdSeed": "Deterministic seed for this token"
						},
						"returns": {
							"_0": "Complete traits context with all selected traits"
						}
					}
				},
				"title": "Traits",
				"version": 1
			},
			"evm": {
				"assembly": "    /* \"src/Traits.sol\":1100:16422  contract Traits is ITraits {... */\n  mstore(0x40, 0xc0)\n    /* \"src/Traits.sol\":1245:1434  constructor(IMaleProbs _maleProbsContract, IFemaleProbs _femaleProbsContract) {... */\n  callvalue\n  dup1\n  iszero\n  tag_1\n  jumpi\n  revert(0x00, 0x00)\ntag_1:\n  pop\n  mload(0x40)\n  sub(codesize, bytecodeSize)\n  dup1\n  bytecodeSize\n  dup4\n  codecopy\n  dup2\n  add\n  0x40\n  dup2\n  swap1\n  mstore\n  tag_2\n  swap2\n  tag_3\n  jump\t// in\ntag_2:\n  sub(shl(0xa0, 0x01), 0x01)\n    /* \"src/Traits.sol\":1333:1373  MALE_PROBS_CONTRACT = _maleProbsContract */\n  swap2\n  dup3\n  and\n  0x80\n  mstore\n    /* \"src/Traits.sol\":1383:1427  FEMALE_PROBS_CONTRACT = _femaleProbsContract */\n  and\n  0xa0\n  mstore\n    /* \"src/Traits.sol\":1100:16422  contract Traits is ITraits {... */\n  jump(tag_8)\n    /* \"#utility.yul\":14:157   */\ntag_7:\n  sub(shl(0xa0, 0x01), 0x01)\n    /* \"#utility.yul\":101:132   */\n  dup2\n  and\n    /* \"#utility.yul\":91:133   */\n  dup2\n  eq\n    /* \"#utility.yul\":81:151   */\n  tag_10\n  jumpi\n    /* \"#utility.yul\":147:148   */\n  0x00\n    /* \"#utility.yul\":144:145   */\n  0x00\n    /* \"#utility.yul\":137:149   */\n  revert\n    /* \"#utility.yul\":81:151   */\ntag_10:\n    /* \"#utility.yul\":14:157   */\n  pop\n  jump\t// out\n    /* \"#utility.yul\":162:611   */\ntag_3:\n    /* \"#utility.yul\":281:287   */\n  0x00\n    /* \"#utility.yul\":289:295   */\n  0x00\n    /* \"#utility.yul\":342:344   */\n  0x40\n    /* \"#utility.yul\":330:339   */\n  dup4\n    /* \"#utility.yul\":321:328   */\n  dup6\n    /* \"#utility.yul\":317:340   */\n  sub\n    /* \"#utility.yul\":313:345   */\n  slt\n    /* \"#utility.yul\":310:362   */\n  iszero\n  tag_12\n  jumpi\n    /* \"#utility.yul\":358:359   */\n  0x00\n    /* \"#utility.yul\":355:356   */\n  0x00\n    /* \"#utility.yul\":348:360   */\n  revert\n    /* \"#utility.yul\":310:362   */\ntag_12:\n    /* \"#utility.yul\":390:399   */\n  dup3\n    /* \"#utility.yul\":384:400   */\n  mload\n    /* \"#utility.yul\":409:452   */\n  tag_13\n    /* \"#utility.yul\":446:451   */\n  dup2\n    /* \"#utility.yul\":409:452   */\n  tag_7\n  jump\t// in\ntag_13:\n    /* \"#utility.yul\":521:523   */\n  0x20\n    /* \"#utility.yul\":506:524   */\n  dup5\n  add\n    /* \"#utility.yul\":500:525   */\n  mload\n    /* \"#utility.yul\":471:476   */\n  swap1\n  swap3\n  pop\n    /* \"#utility.yul\":534:579   */\n  tag_14\n    /* \"#utility.yul\":500:525   */\n  dup2\n    /* \"#utility.yul\":534:579   */\n  tag_7\n  jump\t// in\ntag_14:\n    /* \"#utility.yul\":598:605   */\n  dup1\n    /* \"#utility.yul\":588:605   */\n  swap2\n  pop\n  pop\n    /* \"#utility.yul\":162:611   */\n  swap3\n  pop\n  swap3\n  swap1\n  pop\n  jump\t// out\ntag_8:\n    /* \"src/Traits.sol\":1100:16422  contract Traits is ITraits {... */\n  mload(0x80)\n  mload(0xa0)\n  codecopy(0x00, dataOffset(sub_0), dataSize(sub_0))\n  0x00\n  assignImmutable(\"0x32da71dbd53bc029835bc5ecdd3e688035cc92bb61b1811d1685e67ba974e19f\")\n  0x00\n  assignImmutable(\"0xbbd48b257be1b8216d144ef9be5734f8d11697959c9e0f7768bec89db74a63a3\")\n  return(0x00, dataSize(sub_0))\nstop\n\nsub_0: assembly {\n        /* \"src/Traits.sol\":1100:16422  contract Traits is ITraits {... */\n      mstore(0x40, 0x80)\n      callvalue\n      dup1\n      iszero\n      tag_1\n      jumpi\n      revert(0x00, 0x00)\n    tag_1:\n      pop\n      jumpi(tag_2, lt(calldatasize, 0x04))\n      shr(0xe0, calldataload(0x00))\n      dup1\n      0x033b42a8\n      eq\n      tag_3\n      jumpi\n      dup1\n      0x069157c0\n      eq\n      tag_4\n      jumpi\n      dup1\n      0xfd20cb60\n      eq\n      tag_5\n      jumpi\n    tag_2:\n      revert(0x00, 0x00)\n        /* \"src/Traits.sol\":1134:1181  IMaleProbs public immutable MALE_PROBS_CONTRACT */\n    tag_3:\n      tag_6\n      immutable(\"0xbbd48b257be1b8216d144ef9be5734f8d11697959c9e0f7768bec89db74a63a3\")\n      dup2\n      jump\n    tag_6:\n      mload(0x40)\n      sub(shl(0xa0, 0x01), 0x01)\n        /* \"#utility.yul\":197:229   */\n      swap1\n      swap2\n      and\n        /* \"#utility.yul\":179:230   */\n      dup2\n      mstore\n        /* \"#utility.yul\":167:169   */\n      0x20\n        /* \"#utility.yul\":152:170   */\n      add\n        /* \"src/Traits.sol\":1134:1181  IMaleProbs public immutable MALE_PROBS_CONTRACT */\n    tag_8:\n      mload(0x40)\n      dup1\n      swap2\n      sub\n      swap1\n      return\n        /* \"src/Traits.sol\":1187:1238  IFemaleProbs public immutable FEMALE_PROBS_CONTRACT */\n    tag_4:\n      tag_6\n      immutable(\"0x32da71dbd53bc029835bc5ecdd3e688035cc92bb61b1811d1685e67ba974e19f\")\n      dup2\n      jump\n        /* \"src/Traits.sol\":1752:7878  function generateAllTraits(... */\n    tag_5:\n      tag_14\n      tag_15\n      calldatasize\n      0x04\n      tag_16\n      jump\t// in\n    tag_15:\n      tag_17\n      jump\t// in\n    tag_14:\n      mload(0x40)\n      tag_8\n      swap2\n      swap1\n      tag_19\n      jump\t// in\n    tag_17:\n        /* \"src/Traits.sol\":1899:1919  TraitsContext memory */\n      tag_20\n      tag_21\n      jump\t// in\n    tag_20:\n        /* \"src/Traits.sol\":1968:1991  RandomCtx memory rndCtx */\n      0x00\n        /* \"src/Traits.sol\":1994:2035  Random.initCtx(_tokenIdSeed, _globalSeed) */\n      tag_23\n        /* \"src/Traits.sol\":2009:2021  _tokenIdSeed */\n      dup6\n        /* \"src/Traits.sol\":2023:2034  _globalSeed */\n      dup5\n        /* \"src/Traits.sol\":1994:2008  Random.initCtx */\n      tag_24\n        /* \"src/Traits.sol\":1994:2035  Random.initCtx(_tokenIdSeed, _globalSeed) */\n      jump\t// in\n    tag_23:\n        /* \"src/Traits.sol\":1968:2035  RandomCtx memory rndCtx = Random.initCtx(_tokenIdSeed, _globalSeed) */\n      swap1\n      pop\n        /* \"src/Traits.sol\":2098:2114  uint16 specialId */\n      0x00\n        /* \"src/common/Enums.sol\":125:127  16 */\n      0x10\n        /* \"src/Traits.sol\":2132:2161  _tokenIdSeed < NUM_SPECIAL_1S */\n      0xffff\n      dup8\n      and\n      lt\n        /* \"src/Traits.sol\":2128:2216  if (_tokenIdSeed < NUM_SPECIAL_1S) {... */\n      iszero\n      tag_25\n      jumpi\n        /* \"src/Traits.sol\":2189:2205  _tokenIdSeed + 1 */\n      tag_26\n        /* \"src/Traits.sol\":2189:2201  _tokenIdSeed */\n      dup7\n        /* \"src/Traits.sol\":2204:2205  1 */\n      0x01\n        /* \"src/Traits.sol\":2189:2205  _tokenIdSeed + 1 */\n      tag_27\n      jump\t// in\n    tag_26:\n        /* \"src/Traits.sol\":2177:2205  specialId = _tokenIdSeed + 1 */\n      swap1\n      pop\n        /* \"src/Traits.sol\":2128:2216  if (_tokenIdSeed < NUM_SPECIAL_1S) {... */\n    tag_25:\n        /* \"src/Traits.sol\":2234:2261  TraitsContext memory traits */\n      tag_28\n      tag_21\n      jump\t// in\n    tag_28:\n        /* \"src/Traits.sol\":2295:2318  new TraitToRender[](15) */\n      0x40\n      dup1\n      mload\n        /* \"src/Traits.sol\":2315:2317  15 */\n      0x0f\n        /* \"src/Traits.sol\":2295:2318  new TraitToRender[](15) */\n      dup1\n      dup3\n      mstore\n      0x0200\n      dup3\n      add\n      swap1\n      swap3\n      mstore\n      swap1\n      dup2\n      0x20\n      add\n    tag_33:\n      tag_34\n      0x40\n      dup1\n      mload\n      0x80\n      dup2\n      add\n      swap1\n      swap2\n      mstore\n      dup1\n      0x00\n      dup2\n      mstore\n      0x00\n      0x20\n      dup3\n      add\n      dup2\n      swap1\n      mstore\n      0x40\n      dup3\n      add\n      mstore\n      0x60\n      add\n      tag_733\n      0x40\n      dup1\n      mload\n      dup1\n      dup3\n      add\n      swap1\n      swap2\n      mstore\n      0x00\n      dup1\n      dup3\n      mstore\n      0x20\n      dup3\n      add\n      mstore\n      swap1\n      jump\n    tag_34:\n      dup2\n      mstore\n      0x20\n      add\n      swap1\n      0x01\n      swap1\n      sub\n      swap1\n      dup2\n      tag_33\n      jumpi\n      pop\n      pop\n        /* \"src/Traits.sol\":2271:2318  traits.traitsToRender = new TraitToRender[](15) */\n      dup2\n      mstore\n        /* \"src/Traits.sol\":2328:2361  traits.tokenIdSeed = _tokenIdSeed */\n      0xffff\n      dup8\n      dup2\n      and\n        /* \"src/Traits.sol\":2328:2346  traits.tokenIdSeed */\n      0x40\n      dup4\n      add\n        /* \"src/Traits.sol\":2328:2361  traits.tokenIdSeed = _tokenIdSeed */\n      mstore\n        /* \"src/Traits.sol\":2371:2388  traits.globalSeed */\n      0x60\n      dup3\n      add\n        /* \"src/Traits.sol\":2371:2402  traits.globalSeed = _globalSeed */\n      dup7\n      swap1\n      mstore\n        /* \"src/Traits.sol\":2412:2440  traits.specialId = specialId */\n      dup3\n      and\n        /* \"src/Traits.sol\":2412:2428  traits.specialId */\n      0x80\n      dup3\n      add\n        /* \"src/Traits.sol\":2412:2440  traits.specialId = specialId */\n      mstore\n        /* \"src/Traits.sol\":2541:2551  4102444800 */\n      0xf4865700\n        /* \"src/Traits.sol\":2607:2617  4133941199 */\n      0xf666efcf\n        /* \"src/Traits.sol\":2687:2729  Random.randRange(rndCtx, minDate, maxDate) */\n      tag_36\n        /* \"src/Traits.sol\":2704:2710  rndCtx */\n      dup6\n        /* \"src/Traits.sol\":2541:2551  4102444800 */\n      dup4\n        /* \"src/Traits.sol\":2607:2617  4133941199 */\n      dup4\n        /* \"src/Traits.sol\":2687:2703  Random.randRange */\n      tag_37\n        /* \"src/Traits.sol\":2687:2729  Random.randRange(rndCtx, minDate, maxDate) */\n      jump\t// in\n    tag_36:\n        /* \"src/Traits.sol\":2662:2730  traits.birthday = uint32(Random.randRange(rndCtx, minDate, maxDate)) */\n      0xffffffff\n      and\n        /* \"src/Traits.sol\":2662:2677  traits.birthday */\n      0xa0\n      dup5\n      add\n        /* \"src/Traits.sol\":2662:2730  traits.birthday = uint32(Random.randRange(rndCtx, minDate, maxDate)) */\n      mstore\n      pop\n        /* \"src/Traits.sol\":2814:2843  Random.randBool(rndCtx, 6600) */\n      tag_38\n      swap1\n      pop\n        /* \"src/Traits.sol\":2830:2836  rndCtx */\n      dup4\n        /* \"src/Traits.sol\":2838:2842  6600 */\n      0x19c8\n        /* \"src/Traits.sol\":2814:2829  Random.randBool */\n      tag_39\n        /* \"src/Traits.sol\":2814:2843  Random.randBool(rndCtx, 6600) */\n      jump\t// in\n    tag_38:\n        /* \"src/Traits.sol\":2814:2871  Random.randBool(rndCtx, 6600) ? E_Sex.Male : E_Sex.Female */\n      tag_40\n      jumpi\n        /* \"src/Traits.sol\":2859:2871  E_Sex.Female */\n      0x01\n        /* \"src/Traits.sol\":2814:2871  Random.randBool(rndCtx, 6600) ? E_Sex.Male : E_Sex.Female */\n      jump(tag_41)\n    tag_40:\n        /* \"src/Traits.sol\":2846:2856  E_Sex.Male */\n      0x00\n        /* \"src/Traits.sol\":2814:2871  Random.randBool(rndCtx, 6600) ? E_Sex.Male : E_Sex.Female */\n    tag_41:\n        /* \"src/Traits.sol\":2801:2807  traits */\n      dup2\n        /* \"src/Traits.sol\":2801:2811  traits.sex */\n      0xc0\n      add\n        /* \"src/Traits.sol\":2801:2871  traits.sex = Random.randBool(rndCtx, 6600) ? E_Sex.Male : E_Sex.Female */\n      swap1\n      0x01\n      dup2\n      gt\n      iszero\n      tag_43\n      jumpi\n      tag_43\n      tag_44\n      jump\t// in\n    tag_43:\n      swap1\n      dup2\n      0x01\n      dup2\n      gt\n      iszero\n      tag_46\n      jumpi\n      tag_46\n      tag_44\n      jump\t// in\n    tag_46:\n      swap1\n      mstore\n      pop\n        /* \"src/Traits.sol\":2931:2947  traits.specialId */\n      0x80\n      dup2\n      add\n      mload\n        /* \"src/Traits.sol\":2931:2951  traits.specialId > 0 */\n      0xffff\n      and\n      iszero\n        /* \"src/Traits.sol\":2927:7431  if (traits.specialId > 0) {... */\n      tag_47\n      jumpi\n        /* \"src/Traits.sol\":2967:2982  uint specialIdx */\n      0x00\n        /* \"src/Traits.sol\":3004:3005  1 */\n      0x01\n        /* \"src/Traits.sol\":2985:2991  traits */\n      dup3\n        /* \"src/Traits.sol\":2985:3001  traits.specialId */\n      0x80\n      add\n      mload\n        /* \"src/Traits.sol\":2985:3005  traits.specialId - 1 */\n      tag_48\n      swap2\n      swap1\n      tag_49\n      jump\t// in\n    tag_48:\n        /* \"src/Traits.sol\":2967:3005  uint specialIdx = traits.specialId - 1 */\n      0xffff\n      and\n      swap1\n      pop\n        /* \"src/Traits.sol\":3059:3085  E_Special_1s.Predator_Blue */\n      0x04\n        /* \"src/Traits.sol\":3040:3050  specialIdx */\n      dup2\n        /* \"src/Traits.sol\":3040:3086  specialIdx != uint(E_Special_1s.Predator_Blue) */\n      eq\n      iszero\n        /* \"src/Traits.sol\":3040:3153  specialIdx != uint(E_Special_1s.Predator_Blue) &&... */\n      dup1\n      iszero\n      tag_52\n      jumpi\n      pop\n        /* \"src/Traits.sol\":3125:3152  E_Special_1s.Predator_Green */\n      0x05\n        /* \"src/Traits.sol\":3106:3116  specialIdx */\n      dup2\n        /* \"src/Traits.sol\":3106:3153  specialIdx != uint(E_Special_1s.Predator_Green) */\n      eq\n      iszero\n        /* \"src/Traits.sol\":3040:3153  specialIdx != uint(E_Special_1s.Predator_Blue) &&... */\n    tag_52:\n        /* \"src/Traits.sol\":3040:3218  specialIdx != uint(E_Special_1s.Predator_Blue) &&... */\n      dup1\n      iszero\n      tag_55\n      jumpi\n      pop\n        /* \"src/Traits.sol\":3192:3217  E_Special_1s.Predator_Red */\n      0x06\n        /* \"src/Traits.sol\":3173:3183  specialIdx */\n      dup2\n        /* \"src/Traits.sol\":3173:3218  specialIdx != uint(E_Special_1s.Predator_Red) */\n      eq\n      iszero\n        /* \"src/Traits.sol\":3040:3218  specialIdx != uint(E_Special_1s.Predator_Blue) &&... */\n    tag_55:\n        /* \"src/Traits.sol\":3040:3282  specialIdx != uint(E_Special_1s.Predator_Blue) &&... */\n      dup1\n      iszero\n      tag_58\n      jumpi\n      pop\n        /* \"src/Traits.sol\":3257:3281  E_Special_1s.Santa_Claus */\n      0x07\n        /* \"src/Traits.sol\":3238:3248  specialIdx */\n      dup2\n        /* \"src/Traits.sol\":3238:3282  specialIdx != uint(E_Special_1s.Santa_Claus) */\n      eq\n      iszero\n        /* \"src/Traits.sol\":3040:3282  specialIdx != uint(E_Special_1s.Predator_Blue) &&... */\n    tag_58:\n        /* \"src/Traits.sol\":3040:3347  specialIdx != uint(E_Special_1s.Predator_Blue) &&... */\n      dup1\n      iszero\n      tag_61\n      jumpi\n      pop\n        /* \"src/Traits.sol\":3321:3346  E_Special_1s.Shadow_Ninja */\n      0x08\n        /* \"src/Traits.sol\":3302:3312  specialIdx */\n      dup2\n        /* \"src/Traits.sol\":3302:3347  specialIdx != uint(E_Special_1s.Shadow_Ninja) */\n      eq\n      iszero\n        /* \"src/Traits.sol\":3040:3347  specialIdx != uint(E_Special_1s.Predator_Blue) &&... */\n    tag_61:\n        /* \"src/Traits.sol\":3040:3409  specialIdx != uint(E_Special_1s.Predator_Blue) &&... */\n      dup1\n      iszero\n      tag_64\n      jumpi\n      pop\n        /* \"src/Traits.sol\":3386:3408  E_Special_1s.The_Devil */\n      0x0b\n        /* \"src/Traits.sol\":3367:3377  specialIdx */\n      dup2\n        /* \"src/Traits.sol\":3367:3409  specialIdx != uint(E_Special_1s.The_Devil) */\n      eq\n      iszero\n        /* \"src/Traits.sol\":3040:3409  specialIdx != uint(E_Special_1s.Predator_Blue) &&... */\n    tag_64:\n        /* \"src/Traits.sol\":3040:3474  specialIdx != uint(E_Special_1s.Predator_Blue) &&... */\n      dup1\n      iszero\n      tag_67\n      jumpi\n      pop\n        /* \"src/Traits.sol\":3448:3473  E_Special_1s.The_Portrait */\n      0x0d\n        /* \"src/Traits.sol\":3429:3439  specialIdx */\n      dup2\n        /* \"src/Traits.sol\":3429:3474  specialIdx != uint(E_Special_1s.The_Portrait) */\n      eq\n      iszero\n        /* \"src/Traits.sol\":3040:3474  specialIdx != uint(E_Special_1s.Predator_Blue) &&... */\n    tag_67:\n        /* \"src/Traits.sol\":3019:3693  if (... */\n      iszero\n      tag_70\n      jumpi\n        /* \"src/Traits.sol\":3507:3538  _addSpecial(traits, specialIdx) */\n      tag_71\n        /* \"src/Traits.sol\":3519:3525  traits */\n      dup3\n        /* \"src/Traits.sol\":3527:3537  specialIdx */\n      dup3\n        /* \"src/Traits.sol\":3507:3518  _addSpecial */\n      tag_72\n        /* \"src/Traits.sol\":3507:3538  _addSpecial(traits, specialIdx) */\n      jump\t// in\n    tag_71:\n        /* \"src/Traits.sol\":3590:3606  _backgroundIndex */\n      dup7\n        /* \"src/Traits.sol\":3577:3607  E_Background(_backgroundIndex) */\n      0xffff\n      and\n      0x05\n      dup2\n      gt\n      iszero\n      tag_74\n      jumpi\n      tag_74\n      tag_44\n      jump\t// in\n    tag_74:\n        /* \"src/Traits.sol\":3557:3563  traits */\n      dup3\n        /* \"src/Traits.sol\":3557:3574  traits.background */\n      0xe0\n      add\n        /* \"src/Traits.sol\":3557:3607  traits.background = E_Background(_backgroundIndex) */\n      swap1\n      0x05\n      dup2\n      gt\n      iszero\n      tag_76\n      jumpi\n      tag_76\n      tag_44\n      jump\t// in\n    tag_76:\n      swap1\n      dup2\n      0x05\n      dup2\n      gt\n      iszero\n      tag_78\n      jumpi\n      tag_78\n      tag_44\n      jump\t// in\n    tag_78:\n      swap1\n      mstore\n      pop\n        /* \"src/Traits.sol\":3625:3647  _addBackground(traits) */\n      tag_79\n        /* \"src/Traits.sol\":3640:3646  traits */\n      dup3\n        /* \"src/Traits.sol\":3625:3639  _addBackground */\n      tag_80\n        /* \"src/Traits.sol\":3625:3647  _addBackground(traits) */\n      jump\t// in\n    tag_79:\n      pop\n        /* \"src/Traits.sol\":3672:3678  traits */\n      swap3\n      pop\n        /* \"src/Traits.sol\":3665:3678  return traits */\n      tag_22\n      swap2\n      pop\n      pop\n      jump\n        /* \"src/Traits.sol\":3019:3693  if (... */\n    tag_70:\n        /* \"src/Traits.sol\":2953:3703  {... */\n      pop\n        /* \"src/Traits.sol\":2927:7431  if (traits.specialId > 0) {... */\n      jump(tag_353)\n    tag_47:\n        /* \"src/Traits.sol\":3775:3785  E_Sex.Male */\n      0x00\n        /* \"src/Traits.sol\":3761:3767  traits */\n      dup2\n        /* \"src/Traits.sol\":3761:3771  traits.sex */\n      0xc0\n      add\n      mload\n        /* \"src/Traits.sol\":3761:3785  traits.sex == E_Sex.Male */\n      0x01\n      dup2\n      gt\n      iszero\n      tag_85\n      jumpi\n      tag_85\n      tag_44\n      jump\t// in\n    tag_85:\n      sub\n        /* \"src/Traits.sol\":3757:7431  if (traits.sex == E_Sex.Male) {... */\n      tag_86\n      jumpi\n        /* \"src/Traits.sol\":3852:3894  MALE_PROBS_CONTRACT.selectMaleSkin(rndCtx) */\n      mload(0x40)\n      shl(0xe4, 0x0f120bcf)\n      dup2\n      mstore\n      sub(shl(0xa0, 0x01), 0x01)\n        /* \"src/Traits.sol\":3852:3871  MALE_PROBS_CONTRACT */\n      immutable(\"0xbbd48b257be1b8216d144ef9be5734f8d11697959c9e0f7768bec89db74a63a3\")\n        /* \"src/Traits.sol\":3852:3886  MALE_PROBS_CONTRACT.selectMaleSkin */\n      and\n      swap1\n      0xf120bcf0\n      swap1\n        /* \"src/Traits.sol\":3852:3894  MALE_PROBS_CONTRACT.selectMaleSkin(rndCtx) */\n      tag_87\n      swap1\n        /* \"src/Traits.sol\":3887:3893  rndCtx */\n      dup7\n      swap1\n        /* \"src/Traits.sol\":3852:3894  MALE_PROBS_CONTRACT.selectMaleSkin(rndCtx) */\n      0x04\n      add\n      tag_88\n      jump\t// in\n    tag_87:\n      0x20\n      mload(0x40)\n      dup1\n      dup4\n      sub\n      dup2\n      dup7\n      gas\n      staticcall\n      iszero\n      dup1\n      iszero\n      tag_90\n      jumpi\n      returndatacopy(0x00, 0x00, returndatasize)\n      revert(0x00, returndatasize)\n    tag_90:\n      pop\n      pop\n      pop\n      pop\n      mload(0x40)\n      returndatasize\n      not(0x1f)\n      0x1f\n      dup3\n      add\n      and\n      dup3\n      add\n      dup1\n      0x40\n      mstore\n      pop\n      dup2\n      add\n      swap1\n      tag_91\n      swap2\n      swap1\n      tag_92\n      jump\t// in\n    tag_91:\n        /* \"src/Traits.sol\":3834:3840  traits */\n      dup2\n        /* \"src/Traits.sol\":3834:3849  traits.maleSkin */\n      0x0100\n      add\n        /* \"src/Traits.sol\":3834:3894  traits.maleSkin = MALE_PROBS_CONTRACT.selectMaleSkin(rndCtx) */\n      swap1\n      0x1c\n      dup2\n      gt\n      iszero\n      tag_94\n      jumpi\n      tag_94\n      tag_44\n      jump\t// in\n    tag_94:\n      swap1\n      dup2\n      0x1c\n      dup2\n      gt\n      iszero\n      tag_96\n      jumpi\n      tag_96\n      tag_44\n      jump\t// in\n    tag_96:\n      swap1\n      mstore\n      pop\n        /* \"src/Traits.sol\":3926:3976  MALE_PROBS_CONTRACT.selectMaleEyes(traits, rndCtx) */\n      mload(0x40)\n      shl(0xe0, 0x3775819b)\n      dup2\n      mstore\n      sub(shl(0xa0, 0x01), 0x01)\n        /* \"src/Traits.sol\":3926:3945  MALE_PROBS_CONTRACT */\n      immutable(\"0xbbd48b257be1b8216d144ef9be5734f8d11697959c9e0f7768bec89db74a63a3\")\n        /* \"src/Traits.sol\":3926:3960  MALE_PROBS_CONTRACT.selectMaleEyes */\n      and\n      swap1\n      0x3775819b\n      swap1\n        /* \"src/Traits.sol\":3926:3976  MALE_PROBS_CONTRACT.selectMaleEyes(traits, rndCtx) */\n      tag_97\n      swap1\n        /* \"src/Traits.sol\":3961:3967  traits */\n      dup5\n      swap1\n        /* \"src/Traits.sol\":3969:3975  rndCtx */\n      dup8\n      swap1\n        /* \"src/Traits.sol\":3926:3976  MALE_PROBS_CONTRACT.selectMaleEyes(traits, rndCtx) */\n      0x04\n      add\n      tag_98\n      jump\t// in\n    tag_97:\n      0x20\n      mload(0x40)\n      dup1\n      dup4\n      sub\n      dup2\n      dup7\n      gas\n      staticcall\n      iszero\n      dup1\n      iszero\n      tag_100\n      jumpi\n      returndatacopy(0x00, 0x00, returndatasize)\n      revert(0x00, returndatasize)\n    tag_100:\n      pop\n      pop\n      pop\n      pop\n      mload(0x40)\n      returndatasize\n      not(0x1f)\n      0x1f\n      dup3\n      add\n      and\n      dup3\n      add\n      dup1\n      0x40\n      mstore\n      pop\n      dup2\n      add\n      swap1\n      tag_101\n      swap2\n      swap1\n      tag_102\n      jump\t// in\n    tag_101:\n        /* \"src/Traits.sol\":3908:3914  traits */\n      dup2\n        /* \"src/Traits.sol\":3908:3923  traits.maleEyes */\n      0x0120\n      add\n        /* \"src/Traits.sol\":3908:3976  traits.maleEyes = MALE_PROBS_CONTRACT.selectMaleEyes(traits, rndCtx) */\n      swap1\n      0x16\n      dup2\n      gt\n      iszero\n      tag_104\n      jumpi\n      tag_104\n      tag_44\n      jump\t// in\n    tag_104:\n      swap1\n      dup2\n      0x16\n      dup2\n      gt\n      iszero\n      tag_106\n      jumpi\n      tag_106\n      tag_44\n      jump\t// in\n    tag_106:\n      swap1\n      mstore\n      pop\n        /* \"src/Traits.sol\":4008:4058  MALE_PROBS_CONTRACT.selectMaleFace(traits, rndCtx) */\n      mload(0x40)\n      shl(0xe0, 0x2cbd5f51)\n      dup2\n      mstore\n      sub(shl(0xa0, 0x01), 0x01)\n        /* \"src/Traits.sol\":4008:4027  MALE_PROBS_CONTRACT */\n      immutable(\"0xbbd48b257be1b8216d144ef9be5734f8d11697959c9e0f7768bec89db74a63a3\")\n        /* \"src/Traits.sol\":4008:4042  MALE_PROBS_CONTRACT.selectMaleFace */\n      and\n      swap1\n      0x2cbd5f51\n      swap1\n        /* \"src/Traits.sol\":4008:4058  MALE_PROBS_CONTRACT.selectMaleFace(traits, rndCtx) */\n      tag_107\n      swap1\n        /* \"src/Traits.sol\":4043:4049  traits */\n      dup5\n      swap1\n        /* \"src/Traits.sol\":4051:4057  rndCtx */\n      dup8\n      swap1\n        /* \"src/Traits.sol\":4008:4058  MALE_PROBS_CONTRACT.selectMaleFace(traits, rndCtx) */\n      0x04\n      add\n      tag_98\n      jump\t// in\n    tag_107:\n      0x20\n      mload(0x40)\n      dup1\n      dup4\n      sub\n      dup2\n      dup7\n      gas\n      staticcall\n      iszero\n      dup1\n      iszero\n      tag_109\n      jumpi\n      returndatacopy(0x00, 0x00, returndatasize)\n      revert(0x00, returndatasize)\n    tag_109:\n      pop\n      pop\n      pop\n      pop\n      mload(0x40)\n      returndatasize\n      not(0x1f)\n      0x1f\n      dup3\n      add\n      and\n      dup3\n      add\n      dup1\n      0x40\n      mstore\n      pop\n      dup2\n      add\n      swap1\n      tag_110\n      swap2\n      swap1\n      tag_111\n      jump\t// in\n    tag_110:\n        /* \"src/Traits.sol\":3990:3996  traits */\n      dup2\n        /* \"src/Traits.sol\":3990:4005  traits.maleFace */\n      0x0140\n      add\n        /* \"src/Traits.sol\":3990:4058  traits.maleFace = MALE_PROBS_CONTRACT.selectMaleFace(traits, rndCtx) */\n      swap1\n      0x13\n      dup2\n      gt\n      iszero\n      tag_113\n      jumpi\n      tag_113\n      tag_44\n      jump\t// in\n    tag_113:\n      swap1\n      dup2\n      0x13\n      dup2\n      gt\n      iszero\n      tag_115\n      jumpi\n      tag_115\n      tag_44\n      jump\t// in\n    tag_115:\n      swap1\n      mstore\n      pop\n        /* \"src/Traits.sol\":4091:4134  MALE_PROBS_CONTRACT.selectMaleChain(rndCtx) */\n      mload(0x40)\n      shl(0xe0, 0x146e3eef)\n      dup2\n      mstore\n      sub(shl(0xa0, 0x01), 0x01)\n        /* \"src/Traits.sol\":4091:4110  MALE_PROBS_CONTRACT */\n      immutable(\"0xbbd48b257be1b8216d144ef9be5734f8d11697959c9e0f7768bec89db74a63a3\")\n        /* \"src/Traits.sol\":4091:4126  MALE_PROBS_CONTRACT.selectMaleChain */\n      and\n      swap1\n      0x146e3eef\n      swap1\n        /* \"src/Traits.sol\":4091:4134  MALE_PROBS_CONTRACT.selectMaleChain(rndCtx) */\n      tag_116\n      swap1\n        /* \"src/Traits.sol\":4127:4133  rndCtx */\n      dup7\n      swap1\n        /* \"src/Traits.sol\":4091:4134  MALE_PROBS_CONTRACT.selectMaleChain(rndCtx) */\n      0x04\n      add\n      tag_88\n      jump\t// in\n    tag_116:\n      0x20\n      mload(0x40)\n      dup1\n      dup4\n      sub\n      dup2\n      dup7\n      gas\n      staticcall\n      iszero\n      dup1\n      iszero\n      tag_118\n      jumpi\n      returndatacopy(0x00, 0x00, returndatasize)\n      revert(0x00, returndatasize)\n    tag_118:\n      pop\n      pop\n      pop\n      pop\n      mload(0x40)\n      returndatasize\n      not(0x1f)\n      0x1f\n      dup3\n      add\n      and\n      dup3\n      add\n      dup1\n      0x40\n      mstore\n      pop\n      dup2\n      add\n      swap1\n      tag_119\n      swap2\n      swap1\n      tag_120\n      jump\t// in\n    tag_119:\n        /* \"src/Traits.sol\":4072:4078  traits */\n      dup2\n        /* \"src/Traits.sol\":4072:4088  traits.maleChain */\n      0x0160\n      add\n        /* \"src/Traits.sol\":4072:4134  traits.maleChain = MALE_PROBS_CONTRACT.selectMaleChain(rndCtx) */\n      swap1\n      0x08\n      dup2\n      gt\n      iszero\n      tag_122\n      jumpi\n      tag_122\n      tag_44\n      jump\t// in\n    tag_122:\n      swap1\n      dup2\n      0x08\n      dup2\n      gt\n      iszero\n      tag_124\n      jumpi\n      tag_124\n      tag_44\n      jump\t// in\n    tag_124:\n      swap1\n      mstore\n      pop\n        /* \"src/Traits.sol\":4169:4214  MALE_PROBS_CONTRACT.selectMaleEarring(rndCtx) */\n      mload(0x40)\n      shl(0xe1, 0x757d2885)\n      dup2\n      mstore\n      sub(shl(0xa0, 0x01), 0x01)\n        /* \"src/Traits.sol\":4169:4188  MALE_PROBS_CONTRACT */\n      immutable(\"0xbbd48b257be1b8216d144ef9be5734f8d11697959c9e0f7768bec89db74a63a3\")\n        /* \"src/Traits.sol\":4169:4206  MALE_PROBS_CONTRACT.selectMaleEarring */\n      and\n      swap1\n      0xeafa510a\n      swap1\n        /* \"src/Traits.sol\":4169:4214  MALE_PROBS_CONTRACT.selectMaleEarring(rndCtx) */\n      tag_125\n      swap1\n        /* \"src/Traits.sol\":4207:4213  rndCtx */\n      dup7\n      swap1\n        /* \"src/Traits.sol\":4169:4214  MALE_PROBS_CONTRACT.selectMaleEarring(rndCtx) */\n      0x04\n      add\n      tag_88\n      jump\t// in\n    tag_125:\n      0x20\n      mload(0x40)\n      dup1\n      dup4\n      sub\n      dup2\n      dup7\n      gas\n      staticcall\n      iszero\n      dup1\n      iszero\n      tag_127\n      jumpi\n      returndatacopy(0x00, 0x00, returndatasize)\n      revert(0x00, returndatasize)\n    tag_127:\n      pop\n      pop\n      pop\n      pop\n      mload(0x40)\n      returndatasize\n      not(0x1f)\n      0x1f\n      dup3\n      add\n      and\n      dup3\n      add\n      dup1\n      0x40\n      mstore\n      pop\n      dup2\n      add\n      swap1\n      tag_128\n      swap2\n      swap1\n      tag_120\n      jump\t// in\n    tag_128:\n        /* \"src/Traits.sol\":4148:4154  traits */\n      dup2\n        /* \"src/Traits.sol\":4148:4166  traits.maleEarring */\n      0x0180\n      add\n        /* \"src/Traits.sol\":4148:4214  traits.maleEarring = MALE_PROBS_CONTRACT.selectMaleEarring(rndCtx) */\n      swap1\n      0x08\n      dup2\n      gt\n      iszero\n      tag_131\n      jumpi\n      tag_131\n      tag_44\n      jump\t// in\n    tag_131:\n      swap1\n      dup2\n      0x08\n      dup2\n      gt\n      iszero\n      tag_133\n      jumpi\n      tag_133\n      tag_44\n      jump\t// in\n    tag_133:\n      swap1\n      mstore\n      pop\n        /* \"src/Traits.sol\":4252:4308  MALE_PROBS_CONTRACT.selectMaleFacialHair(traits, rndCtx) */\n      mload(0x40)\n      shl(0xe0, 0x3e8af2ff)\n      dup2\n      mstore\n      sub(shl(0xa0, 0x01), 0x01)\n        /* \"src/Traits.sol\":4252:4271  MALE_PROBS_CONTRACT */\n      immutable(\"0xbbd48b257be1b8216d144ef9be5734f8d11697959c9e0f7768bec89db74a63a3\")\n        /* \"src/Traits.sol\":4252:4292  MALE_PROBS_CONTRACT.selectMaleFacialHair */\n      and\n      swap1\n      0x3e8af2ff\n      swap1\n        /* \"src/Traits.sol\":4252:4308  MALE_PROBS_CONTRACT.selectMaleFacialHair(traits, rndCtx) */\n      tag_134\n      swap1\n        /* \"src/Traits.sol\":4293:4299  traits */\n      dup5\n      swap1\n        /* \"src/Traits.sol\":4301:4307  rndCtx */\n      dup8\n      swap1\n        /* \"src/Traits.sol\":4252:4308  MALE_PROBS_CONTRACT.selectMaleFacialHair(traits, rndCtx) */\n      0x04\n      add\n      tag_98\n      jump\t// in\n    tag_134:\n      0x20\n      mload(0x40)\n      dup1\n      dup4\n      sub\n      dup2\n      dup7\n      gas\n      staticcall\n      iszero\n      dup1\n      iszero\n      tag_136\n      jumpi\n      returndatacopy(0x00, 0x00, returndatasize)\n      revert(0x00, returndatasize)\n    tag_136:\n      pop\n      pop\n      pop\n      pop\n      mload(0x40)\n      returndatasize\n      not(0x1f)\n      0x1f\n      dup3\n      add\n      and\n      dup3\n      add\n      dup1\n      0x40\n      mstore\n      pop\n      dup2\n      add\n      swap1\n      tag_137\n      swap2\n      swap1\n      tag_138\n      jump\t// in\n    tag_137:\n        /* \"src/Traits.sol\":4228:4234  traits */\n      dup2\n        /* \"src/Traits.sol\":4228:4249  traits.maleFacialHair */\n      0x01c0\n      add\n        /* \"src/Traits.sol\":4228:4308  traits.maleFacialHair = MALE_PROBS_CONTRACT.selectMaleFacialHair(traits, rndCtx) */\n      swap1\n      0x57\n      dup2\n      gt\n      iszero\n      tag_140\n      jumpi\n      tag_140\n      tag_44\n      jump\t// in\n    tag_140:\n      swap1\n      dup2\n      0x57\n      dup2\n      gt\n      iszero\n      tag_142\n      jumpi\n      tag_142\n      tag_44\n      jump\t// in\n    tag_142:\n      swap1\n      mstore\n      pop\n        /* \"src/Traits.sol\":4340:4382  MALE_PROBS_CONTRACT.selectMaleMask(rndCtx) */\n      mload(0x40)\n      shl(0xe0, 0xe7449565)\n      dup2\n      mstore\n      sub(shl(0xa0, 0x01), 0x01)\n        /* \"src/Traits.sol\":4340:4359  MALE_PROBS_CONTRACT */\n      immutable(\"0xbbd48b257be1b8216d144ef9be5734f8d11697959c9e0f7768bec89db74a63a3\")\n        /* \"src/Traits.sol\":4340:4374  MALE_PROBS_CONTRACT.selectMaleMask */\n      and\n      swap1\n      0xe7449565\n      swap1\n        /* \"src/Traits.sol\":4340:4382  MALE_PROBS_CONTRACT.selectMaleMask(rndCtx) */\n      tag_143\n      swap1\n        /* \"src/Traits.sol\":4375:4381  rndCtx */\n      dup7\n      swap1\n        /* \"src/Traits.sol\":4340:4382  MALE_PROBS_CONTRACT.selectMaleMask(rndCtx) */\n      0x04\n      add\n      tag_88\n      jump\t// in\n    tag_143:\n      0x20\n      mload(0x40)\n      dup1\n      dup4\n      sub\n      dup2\n      dup7\n      gas\n      staticcall\n      iszero\n      dup1\n      iszero\n      tag_145\n      jumpi\n      returndatacopy(0x00, 0x00, returndatasize)\n      revert(0x00, returndatasize)\n    tag_145:\n      pop\n      pop\n      pop\n      pop\n      mload(0x40)\n      returndatasize\n      not(0x1f)\n      0x1f\n      dup3\n      add\n      and\n      dup3\n      add\n      dup1\n      0x40\n      mstore\n      pop\n      dup2\n      add\n      swap1\n      tag_146\n      swap2\n      swap1\n      tag_147\n      jump\t// in\n    tag_146:\n        /* \"src/Traits.sol\":4322:4328  traits */\n      dup2\n        /* \"src/Traits.sol\":4322:4337  traits.maleMask */\n      0x01e0\n      add\n        /* \"src/Traits.sol\":4322:4382  traits.maleMask = MALE_PROBS_CONTRACT.selectMaleMask(rndCtx) */\n      swap1\n      0x15\n      dup2\n      gt\n      iszero\n      tag_149\n      jumpi\n      tag_149\n      tag_44\n      jump\t// in\n    tag_149:\n      swap1\n      dup2\n      0x15\n      dup2\n      gt\n      iszero\n      tag_151\n      jumpi\n      tag_151\n      tag_44\n      jump\t// in\n    tag_151:\n      swap1\n      mstore\n      pop\n        /* \"src/Traits.sol\":4415:4458  MALE_PROBS_CONTRACT.selectMaleScarf(rndCtx) */\n      mload(0x40)\n      shl(0xe0, 0x4e87244f)\n      dup2\n      mstore\n      sub(shl(0xa0, 0x01), 0x01)\n        /* \"src/Traits.sol\":4415:4434  MALE_PROBS_CONTRACT */\n      immutable(\"0xbbd48b257be1b8216d144ef9be5734f8d11697959c9e0f7768bec89db74a63a3\")\n        /* \"src/Traits.sol\":4415:4450  MALE_PROBS_CONTRACT.selectMaleScarf */\n      and\n      swap1\n      0x4e87244f\n      swap1\n        /* \"src/Traits.sol\":4415:4458  MALE_PROBS_CONTRACT.selectMaleScarf(rndCtx) */\n      tag_152\n      swap1\n        /* \"src/Traits.sol\":4451:4457  rndCtx */\n      dup7\n      swap1\n        /* \"src/Traits.sol\":4415:4458  MALE_PROBS_CONTRACT.selectMaleScarf(rndCtx) */\n      0x04\n      add\n      tag_88\n      jump\t// in\n    tag_152:\n      0x20\n      mload(0x40)\n      dup1\n      dup4\n      sub\n      dup2\n      dup7\n      gas\n      staticcall\n      iszero\n      dup1\n      iszero\n      tag_154\n      jumpi\n      returndatacopy(0x00, 0x00, returndatasize)\n      revert(0x00, returndatasize)\n    tag_154:\n      pop\n      pop\n      pop\n      pop\n      mload(0x40)\n      returndatasize\n      not(0x1f)\n      0x1f\n      dup3\n      add\n      and\n      dup3\n      add\n      dup1\n      0x40\n      mstore\n      pop\n      dup2\n      add\n      swap1\n      tag_155\n      swap2\n      swap1\n      tag_156\n      jump\t// in\n    tag_155:\n        /* \"src/Traits.sol\":4396:4402  traits */\n      dup2\n        /* \"src/Traits.sol\":4396:4412  traits.maleScarf */\n      0x01a0\n      add\n        /* \"src/Traits.sol\":4396:4458  traits.maleScarf = MALE_PROBS_CONTRACT.selectMaleScarf(rndCtx) */\n      swap1\n      0x03\n      dup2\n      gt\n      iszero\n      tag_158\n      jumpi\n      tag_158\n      tag_44\n      jump\t// in\n    tag_158:\n      swap1\n      dup2\n      0x03\n      dup2\n      gt\n      iszero\n      tag_160\n      jumpi\n      tag_160\n      tag_44\n      jump\t// in\n    tag_160:\n      swap1\n      mstore\n      pop\n        /* \"src/Traits.sol\":4490:4540  MALE_PROBS_CONTRACT.selectMaleHair(traits, rndCtx) */\n      mload(0x40)\n      shl(0xe2, 0x0b8b593b)\n      dup2\n      mstore\n      sub(shl(0xa0, 0x01), 0x01)\n        /* \"src/Traits.sol\":4490:4509  MALE_PROBS_CONTRACT */\n      immutable(\"0xbbd48b257be1b8216d144ef9be5734f8d11697959c9e0f7768bec89db74a63a3\")\n        /* \"src/Traits.sol\":4490:4524  MALE_PROBS_CONTRACT.selectMaleHair */\n      and\n      swap1\n      0x2e2d64ec\n      swap1\n        /* \"src/Traits.sol\":4490:4540  MALE_PROBS_CONTRACT.selectMaleHair(traits, rndCtx) */\n      tag_161\n      swap1\n        /* \"src/Traits.sol\":4525:4531  traits */\n      dup5\n      swap1\n        /* \"src/Traits.sol\":4533:4539  rndCtx */\n      dup8\n      swap1\n        /* \"src/Traits.sol\":4490:4540  MALE_PROBS_CONTRACT.selectMaleHair(traits, rndCtx) */\n      0x04\n      add\n      tag_98\n      jump\t// in\n    tag_161:\n      0x20\n      mload(0x40)\n      dup1\n      dup4\n      sub\n      dup2\n      dup7\n      gas\n      staticcall\n      iszero\n      dup1\n      iszero\n      tag_163\n      jumpi\n      returndatacopy(0x00, 0x00, returndatasize)\n      revert(0x00, returndatasize)\n    tag_163:\n      pop\n      pop\n      pop\n      pop\n      mload(0x40)\n      returndatasize\n      not(0x1f)\n      0x1f\n      dup3\n      add\n      and\n      dup3\n      add\n      dup1\n      0x40\n      mstore\n      pop\n      dup2\n      add\n      swap1\n      tag_164\n      swap2\n      swap1\n      tag_165\n      jump\t// in\n    tag_164:\n        /* \"src/Traits.sol\":4472:4478  traits */\n      dup2\n        /* \"src/Traits.sol\":4472:4487  traits.maleHair */\n      0x0200\n      add\n        /* \"src/Traits.sol\":4472:4540  traits.maleHair = MALE_PROBS_CONTRACT.selectMaleHair(traits, rndCtx) */\n      swap1\n      0xd3\n      dup2\n      gt\n      iszero\n      tag_167\n      jumpi\n      tag_167\n      tag_44\n      jump\t// in\n    tag_167:\n      swap1\n      dup2\n      0xd3\n      dup2\n      gt\n      iszero\n      tag_169\n      jumpi\n      tag_169\n      tag_44\n      jump\t// in\n    tag_169:\n      swap1\n      mstore\n      pop\n        /* \"src/Traits.sol\":4575:4628  MALE_PROBS_CONTRACT.selectMaleHatHair(traits, rndCtx) */\n      mload(0x40)\n      shl(0xe3, 0x088e02a5)\n      dup2\n      mstore\n      sub(shl(0xa0, 0x01), 0x01)\n        /* \"src/Traits.sol\":4575:4594  MALE_PROBS_CONTRACT */\n      immutable(\"0xbbd48b257be1b8216d144ef9be5734f8d11697959c9e0f7768bec89db74a63a3\")\n        /* \"src/Traits.sol\":4575:4612  MALE_PROBS_CONTRACT.selectMaleHatHair */\n      and\n      swap1\n      0x44701528\n      swap1\n        /* \"src/Traits.sol\":4575:4628  MALE_PROBS_CONTRACT.selectMaleHatHair(traits, rndCtx) */\n      tag_170\n      swap1\n        /* \"src/Traits.sol\":4613:4619  traits */\n      dup5\n      swap1\n        /* \"src/Traits.sol\":4621:4627  rndCtx */\n      dup8\n      swap1\n        /* \"src/Traits.sol\":4575:4628  MALE_PROBS_CONTRACT.selectMaleHatHair(traits, rndCtx) */\n      0x04\n      add\n      tag_98\n      jump\t// in\n    tag_170:\n      0x20\n      mload(0x40)\n      dup1\n      dup4\n      sub\n      dup2\n      dup7\n      gas\n      staticcall\n      iszero\n      dup1\n      iszero\n      tag_172\n      jumpi\n      returndatacopy(0x00, 0x00, returndatasize)\n      revert(0x00, returndatasize)\n    tag_172:\n      pop\n      pop\n      pop\n      pop\n      mload(0x40)\n      returndatasize\n      not(0x1f)\n      0x1f\n      dup3\n      add\n      and\n      dup3\n      add\n      dup1\n      0x40\n      mstore\n      pop\n      dup2\n      add\n      swap1\n      tag_173\n      swap2\n      swap1\n      tag_174\n      jump\t// in\n    tag_173:\n        /* \"src/Traits.sol\":4554:4560  traits */\n      dup2\n        /* \"src/Traits.sol\":4554:4572  traits.maleHatHair */\n      0x0220\n      add\n        /* \"src/Traits.sol\":4554:4628  traits.maleHatHair = MALE_PROBS_CONTRACT.selectMaleHatHair(traits, rndCtx) */\n      swap1\n      0x69\n      dup2\n      gt\n      iszero\n      tag_176\n      jumpi\n      tag_176\n      tag_44\n      jump\t// in\n    tag_176:\n      swap1\n      dup2\n      0x69\n      dup2\n      gt\n      iszero\n      tag_178\n      jumpi\n      tag_178\n      tag_44\n      jump\t// in\n    tag_178:\n      swap1\n      mstore\n      pop\n        /* \"src/Traits.sol\":4664:4710  MALE_PROBS_CONTRACT.selectMaleHeadwear(rndCtx) */\n      mload(0x40)\n      shl(0xe0, 0x4f4f0d07)\n      dup2\n      mstore\n      sub(shl(0xa0, 0x01), 0x01)\n        /* \"src/Traits.sol\":4664:4683  MALE_PROBS_CONTRACT */\n      immutable(\"0xbbd48b257be1b8216d144ef9be5734f8d11697959c9e0f7768bec89db74a63a3\")\n        /* \"src/Traits.sol\":4664:4702  MALE_PROBS_CONTRACT.selectMaleHeadwear */\n      and\n      swap1\n      0x4f4f0d07\n      swap1\n        /* \"src/Traits.sol\":4664:4710  MALE_PROBS_CONTRACT.selectMaleHeadwear(rndCtx) */\n      tag_179\n      swap1\n        /* \"src/Traits.sol\":4703:4709  rndCtx */\n      dup7\n      swap1\n        /* \"src/Traits.sol\":4664:4710  MALE_PROBS_CONTRACT.selectMaleHeadwear(rndCtx) */\n      0x04\n      add\n      tag_88\n      jump\t// in\n    tag_179:\n      0x20\n      mload(0x40)\n      dup1\n      dup4\n      sub\n      dup2\n      dup7\n      gas\n      staticcall\n      iszero\n      dup1\n      iszero\n      tag_181\n      jumpi\n      returndatacopy(0x00, 0x00, returndatasize)\n      revert(0x00, returndatasize)\n    tag_181:\n      pop\n      pop\n      pop\n      pop\n      mload(0x40)\n      returndatasize\n      not(0x1f)\n      0x1f\n      dup3\n      add\n      and\n      dup3\n      add\n      dup1\n      0x40\n      mstore\n      pop\n      dup2\n      add\n      swap1\n      tag_182\n      swap2\n      swap1\n      tag_183\n      jump\t// in\n    tag_182:\n        /* \"src/Traits.sol\":4642:4648  traits */\n      dup2\n        /* \"src/Traits.sol\":4642:4661  traits.maleHeadwear */\n      0x0240\n      add\n        /* \"src/Traits.sol\":4642:4710  traits.maleHeadwear = MALE_PROBS_CONTRACT.selectMaleHeadwear(rndCtx) */\n      swap1\n      0xa8\n      dup2\n      gt\n      iszero\n      tag_185\n      jumpi\n      tag_185\n      tag_44\n      jump\t// in\n    tag_185:\n      swap1\n      dup2\n      0xa8\n      dup2\n      gt\n      iszero\n      tag_187\n      jumpi\n      tag_187\n      tag_44\n      jump\t// in\n    tag_187:\n      swap1\n      mstore\n      pop\n        /* \"src/Traits.sol\":4745:4790  MALE_PROBS_CONTRACT.selectMaleEyeWear(rndCtx) */\n      mload(0x40)\n      shl(0xe1, 0x21595d4f)\n      dup2\n      mstore\n      sub(shl(0xa0, 0x01), 0x01)\n        /* \"src/Traits.sol\":4745:4764  MALE_PROBS_CONTRACT */\n      immutable(\"0xbbd48b257be1b8216d144ef9be5734f8d11697959c9e0f7768bec89db74a63a3\")\n        /* \"src/Traits.sol\":4745:4782  MALE_PROBS_CONTRACT.selectMaleEyeWear */\n      and\n      swap1\n      0x42b2ba9e\n      swap1\n        /* \"src/Traits.sol\":4745:4790  MALE_PROBS_CONTRACT.selectMaleEyeWear(rndCtx) */\n      tag_188\n      swap1\n        /* \"src/Traits.sol\":4783:4789  rndCtx */\n      dup7\n      swap1\n        /* \"src/Traits.sol\":4745:4790  MALE_PROBS_CONTRACT.selectMaleEyeWear(rndCtx) */\n      0x04\n      add\n      tag_88\n      jump\t// in\n    tag_188:\n      0x20\n      mload(0x40)\n      dup1\n      dup4\n      sub\n      dup2\n      dup7\n      gas\n      staticcall\n      iszero\n      dup1\n      iszero\n      tag_190\n      jumpi\n      returndatacopy(0x00, 0x00, returndatasize)\n      revert(0x00, returndatasize)\n    tag_190:\n      pop\n      pop\n      pop\n      pop\n      mload(0x40)\n      returndatasize\n      not(0x1f)\n      0x1f\n      dup3\n      add\n      and\n      dup3\n      add\n      dup1\n      0x40\n      mstore\n      pop\n      dup2\n      add\n      swap1\n      tag_191\n      swap2\n      swap1\n      tag_192\n      jump\t// in\n    tag_191:\n        /* \"src/Traits.sol\":4724:4730  traits */\n      dup2\n        /* \"src/Traits.sol\":4724:4742  traits.maleEyeWear */\n      0x0260\n      add\n        /* \"src/Traits.sol\":4724:4790  traits.maleEyeWear = MALE_PROBS_CONTRACT.selectMaleEyeWear(rndCtx) */\n      swap1\n      0x7f\n      dup2\n      gt\n      iszero\n      tag_194\n      jumpi\n      tag_194\n      tag_44\n      jump\t// in\n    tag_194:\n      swap1\n      dup2\n      0x7f\n      dup2\n      gt\n      iszero\n      tag_196\n      jumpi\n      tag_196\n      tag_44\n      jump\t// in\n    tag_196:\n      swap1\n      mstore\n      pop\n        /* \"src/Traits.sol\":4866:4886  _addMaleSkin(traits) */\n      tag_197\n        /* \"src/Traits.sol\":4879:4885  traits */\n      dup2\n        /* \"src/Traits.sol\":4866:4878  _addMaleSkin */\n      tag_198\n        /* \"src/Traits.sol\":4866:4886  _addMaleSkin(traits) */\n      jump\t// in\n    tag_197:\n        /* \"src/Traits.sol\":4900:4920  _addMaleEyes(traits) */\n      tag_199\n        /* \"src/Traits.sol\":4913:4919  traits */\n      dup2\n        /* \"src/Traits.sol\":4900:4912  _addMaleEyes */\n      tag_200\n        /* \"src/Traits.sol\":4900:4920  _addMaleEyes(traits) */\n      jump\t// in\n    tag_199:\n        /* \"src/Traits.sol\":4934:4954  _addMaleFace(traits) */\n      tag_201\n        /* \"src/Traits.sol\":4947:4953  traits */\n      dup2\n        /* \"src/Traits.sol\":4934:4946  _addMaleFace */\n      tag_202\n        /* \"src/Traits.sol\":4934:4954  _addMaleFace(traits) */\n      jump\t// in\n    tag_201:\n        /* \"src/Traits.sol\":4968:4989  _addMaleChain(traits) */\n      tag_203\n        /* \"src/Traits.sol\":4982:4988  traits */\n      dup2\n        /* \"src/Traits.sol\":4968:4981  _addMaleChain */\n      tag_204\n        /* \"src/Traits.sol\":4968:4989  _addMaleChain(traits) */\n      jump\t// in\n    tag_203:\n        /* \"src/Traits.sol\":5003:5026  _addMaleEarring(traits) */\n      tag_205\n        /* \"src/Traits.sol\":5019:5025  traits */\n      dup2\n        /* \"src/Traits.sol\":5003:5018  _addMaleEarring */\n      tag_206\n        /* \"src/Traits.sol\":5003:5026  _addMaleEarring(traits) */\n      jump\t// in\n    tag_205:\n        /* \"src/Traits.sol\":5099:5136  TraitsUtils.maleHasFacialHair(traits) */\n      tag_207\n        /* \"src/Traits.sol\":5129:5135  traits */\n      dup2\n        /* \"src/Traits.sol\":5099:5128  TraitsUtils.maleHasFacialHair */\n      tag_208\n        /* \"src/Traits.sol\":5099:5136  TraitsUtils.maleHasFacialHair(traits) */\n      jump\t// in\n    tag_207:\n        /* \"src/Traits.sol\":5095:5257  if (TraitsUtils.maleHasFacialHair(traits)) {... */\n      iszero\n      tag_209\n      jumpi\n        /* \"src/Traits.sol\":5156:5182  _addMaleFacialHair(traits) */\n      tag_210\n        /* \"src/Traits.sol\":5175:5181  traits */\n      dup2\n        /* \"src/Traits.sol\":5156:5174  _addMaleFacialHair */\n      tag_211\n        /* \"src/Traits.sol\":5156:5182  _addMaleFacialHair(traits) */\n      jump\t// in\n    tag_210:\n        /* \"src/Traits.sol\":5095:5257  if (TraitsUtils.maleHasFacialHair(traits)) {... */\n      jump(tag_213)\n    tag_209:\n        /* \"src/Traits.sol\":5221:5241  _addMaleMask(traits) */\n      tag_213\n        /* \"src/Traits.sol\":5234:5240  traits */\n      dup2\n        /* \"src/Traits.sol\":5221:5233  _addMaleMask */\n      tag_214\n        /* \"src/Traits.sol\":5221:5241  _addMaleMask(traits) */\n      jump\t// in\n    tag_213:\n        /* \"src/Traits.sol\":5271:5292  _addMaleScarf(traits) */\n      tag_215\n        /* \"src/Traits.sol\":5285:5291  traits */\n      dup2\n        /* \"src/Traits.sol\":5271:5284  _addMaleScarf */\n      tag_216\n        /* \"src/Traits.sol\":5271:5292  _addMaleScarf(traits) */\n      jump\t// in\n    tag_215:\n        /* \"src/Traits.sol\":5361:5396  TraitsUtils.maleHasHeadwear(traits) */\n      tag_217\n        /* \"src/Traits.sol\":5389:5395  traits */\n      dup2\n        /* \"src/Traits.sol\":5361:5388  TraitsUtils.maleHasHeadwear */\n      tag_218\n        /* \"src/Traits.sol\":5361:5396  TraitsUtils.maleHasHeadwear(traits) */\n      jump\t// in\n    tag_217:\n        /* \"src/Traits.sol\":5357:5684  if (TraitsUtils.maleHasHeadwear(traits)) {... */\n      iszero\n      tag_219\n      jumpi\n        /* \"src/Traits.sol\":5470:5493  _addMaleHatHair(traits) */\n      tag_220\n        /* \"src/Traits.sol\":5486:5492  traits */\n      dup2\n        /* \"src/Traits.sol\":5470:5485  _addMaleHatHair */\n      tag_221\n        /* \"src/Traits.sol\":5470:5493  _addMaleHatHair(traits) */\n      jump\t// in\n    tag_220:\n        /* \"src/Traits.sol\":5357:5684  if (TraitsUtils.maleHasHeadwear(traits)) {... */\n      jump(tag_223)\n    tag_219:\n        /* \"src/Traits.sol\":5649:5669  _addMaleHair(traits) */\n      tag_223\n        /* \"src/Traits.sol\":5662:5668  traits */\n      dup2\n        /* \"src/Traits.sol\":5649:5661  _addMaleHair */\n      tag_224\n        /* \"src/Traits.sol\":5649:5669  _addMaleHair(traits) */\n      jump\t// in\n    tag_223:\n        /* \"src/Traits.sol\":5698:5722  _addMaleHeadwear(traits) */\n      tag_225\n        /* \"src/Traits.sol\":5715:5721  traits */\n      dup2\n        /* \"src/Traits.sol\":5698:5714  _addMaleHeadwear */\n      tag_226\n        /* \"src/Traits.sol\":5698:5722  _addMaleHeadwear(traits) */\n      jump\t// in\n    tag_225:\n        /* \"src/Traits.sol\":5736:5759  _addMaleEyeWear(traits) */\n      tag_227\n        /* \"src/Traits.sol\":5752:5758  traits */\n      dup2\n        /* \"src/Traits.sol\":5736:5751  _addMaleEyeWear */\n      tag_228\n        /* \"src/Traits.sol\":5736:5759  _addMaleEyeWear(traits) */\n      jump\t// in\n    tag_227:\n        /* \"src/Traits.sol\":3757:7431  if (traits.sex == E_Sex.Male) {... */\n      jump(tag_353)\n    tag_86:\n        /* \"src/Traits.sol\":5885:5931  FEMALE_PROBS_CONTRACT.selectFemaleSkin(rndCtx) */\n      mload(0x40)\n      shl(0xe5, 0x06ad3733)\n      dup2\n      mstore\n      sub(shl(0xa0, 0x01), 0x01)\n        /* \"src/Traits.sol\":5885:5906  FEMALE_PROBS_CONTRACT */\n      immutable(\"0x32da71dbd53bc029835bc5ecdd3e688035cc92bb61b1811d1685e67ba974e19f\")\n        /* \"src/Traits.sol\":5885:5923  FEMALE_PROBS_CONTRACT.selectFemaleSkin */\n      and\n      swap1\n      0xd5a6e660\n      swap1\n        /* \"src/Traits.sol\":5885:5931  FEMALE_PROBS_CONTRACT.selectFemaleSkin(rndCtx) */\n      tag_230\n      swap1\n        /* \"src/Traits.sol\":5924:5930  rndCtx */\n      dup7\n      swap1\n        /* \"src/Traits.sol\":5885:5931  FEMALE_PROBS_CONTRACT.selectFemaleSkin(rndCtx) */\n      0x04\n      add\n      tag_88\n      jump\t// in\n    tag_230:\n      0x20\n      mload(0x40)\n      dup1\n      dup4\n      sub\n      dup2\n      dup7\n      gas\n      staticcall\n      iszero\n      dup1\n      iszero\n      tag_232\n      jumpi\n      returndatacopy(0x00, 0x00, returndatasize)\n      revert(0x00, returndatasize)\n    tag_232:\n      pop\n      pop\n      pop\n      pop\n      mload(0x40)\n      returndatasize\n      not(0x1f)\n      0x1f\n      dup3\n      add\n      and\n      dup3\n      add\n      dup1\n      0x40\n      mstore\n      pop\n      dup2\n      add\n      swap1\n      tag_233\n      swap2\n      swap1\n      tag_234\n      jump\t// in\n    tag_233:\n        /* \"src/Traits.sol\":5865:5871  traits */\n      dup2\n        /* \"src/Traits.sol\":5865:5882  traits.femaleSkin */\n      0x0280\n      add\n        /* \"src/Traits.sol\":5865:5931  traits.femaleSkin = FEMALE_PROBS_CONTRACT.selectFemaleSkin(rndCtx) */\n      swap1\n      0x19\n      dup2\n      gt\n      iszero\n      tag_236\n      jumpi\n      tag_236\n      tag_44\n      jump\t// in\n    tag_236:\n      swap1\n      dup2\n      0x19\n      dup2\n      gt\n      iszero\n      tag_238\n      jumpi\n      tag_238\n      tag_44\n      jump\t// in\n    tag_238:\n      swap1\n      mstore\n      pop\n        /* \"src/Traits.sol\":5965:6019  FEMALE_PROBS_CONTRACT.selectFemaleEyes(traits, rndCtx) */\n      mload(0x40)\n      shl(0xe0, 0xf17076c7)\n      dup2\n      mstore\n      sub(shl(0xa0, 0x01), 0x01)\n        /* \"src/Traits.sol\":5965:5986  FEMALE_PROBS_CONTRACT */\n      immutable(\"0x32da71dbd53bc029835bc5ecdd3e688035cc92bb61b1811d1685e67ba974e19f\")\n        /* \"src/Traits.sol\":5965:6003  FEMALE_PROBS_CONTRACT.selectFemaleEyes */\n      and\n      swap1\n      0xf17076c7\n      swap1\n        /* \"src/Traits.sol\":5965:6019  FEMALE_PROBS_CONTRACT.selectFemaleEyes(traits, rndCtx) */\n      tag_239\n      swap1\n        /* \"src/Traits.sol\":6004:6010  traits */\n      dup5\n      swap1\n        /* \"src/Traits.sol\":6012:6018  rndCtx */\n      dup8\n      swap1\n        /* \"src/Traits.sol\":5965:6019  FEMALE_PROBS_CONTRACT.selectFemaleEyes(traits, rndCtx) */\n      0x04\n      add\n      tag_98\n      jump\t// in\n    tag_239:\n      0x20\n      mload(0x40)\n      dup1\n      dup4\n      sub\n      dup2\n      dup7\n      gas\n      staticcall\n      iszero\n      dup1\n      iszero\n      tag_241\n      jumpi\n      returndatacopy(0x00, 0x00, returndatasize)\n      revert(0x00, returndatasize)\n    tag_241:\n      pop\n      pop\n      pop\n      pop\n      mload(0x40)\n      returndatasize\n      not(0x1f)\n      0x1f\n      dup3\n      add\n      and\n      dup3\n      add\n      dup1\n      0x40\n      mstore\n      pop\n      dup2\n      add\n      swap1\n      tag_242\n      swap2\n      swap1\n      tag_243\n      jump\t// in\n    tag_242:\n        /* \"src/Traits.sol\":5945:5951  traits */\n      dup2\n        /* \"src/Traits.sol\":5945:5962  traits.femaleEyes */\n      0x02a0\n      add\n        /* \"src/Traits.sol\":5945:6019  traits.femaleEyes = FEMALE_PROBS_CONTRACT.selectFemaleEyes(traits, rndCtx) */\n      swap1\n      0x1e\n      dup2\n      gt\n      iszero\n      tag_245\n      jumpi\n      tag_245\n      tag_44\n      jump\t// in\n    tag_245:\n      swap1\n      dup2\n      0x1e\n      dup2\n      gt\n      iszero\n      tag_247\n      jumpi\n      tag_247\n      tag_44\n      jump\t// in\n    tag_247:\n      swap1\n      mstore\n      pop\n        /* \"src/Traits.sol\":6053:6107  FEMALE_PROBS_CONTRACT.selectFemaleFace(traits, rndCtx) */\n      mload(0x40)\n      shl(0xe0, 0x7829af69)\n      dup2\n      mstore\n      sub(shl(0xa0, 0x01), 0x01)\n        /* \"src/Traits.sol\":6053:6074  FEMALE_PROBS_CONTRACT */\n      immutable(\"0x32da71dbd53bc029835bc5ecdd3e688035cc92bb61b1811d1685e67ba974e19f\")\n        /* \"src/Traits.sol\":6053:6091  FEMALE_PROBS_CONTRACT.selectFemaleFace */\n      and\n      swap1\n      0x7829af69\n      swap1\n        /* \"src/Traits.sol\":6053:6107  FEMALE_PROBS_CONTRACT.selectFemaleFace(traits, rndCtx) */\n      tag_248\n      swap1\n        /* \"src/Traits.sol\":6092:6098  traits */\n      dup5\n      swap1\n        /* \"src/Traits.sol\":6100:6106  rndCtx */\n      dup8\n      swap1\n        /* \"src/Traits.sol\":6053:6107  FEMALE_PROBS_CONTRACT.selectFemaleFace(traits, rndCtx) */\n      0x04\n      add\n      tag_98\n      jump\t// in\n    tag_248:\n      0x20\n      mload(0x40)\n      dup1\n      dup4\n      sub\n      dup2\n      dup7\n      gas\n      staticcall\n      iszero\n      dup1\n      iszero\n      tag_250\n      jumpi\n      returndatacopy(0x00, 0x00, returndatasize)\n      revert(0x00, returndatasize)\n    tag_250:\n      pop\n      pop\n      pop\n      pop\n      mload(0x40)\n      returndatasize\n      not(0x1f)\n      0x1f\n      dup3\n      add\n      and\n      dup3\n      add\n      dup1\n      0x40\n      mstore\n      pop\n      dup2\n      add\n      swap1\n      tag_251\n      swap2\n      swap1\n      tag_252\n      jump\t// in\n    tag_251:\n        /* \"src/Traits.sol\":6033:6039  traits */\n      dup2\n        /* \"src/Traits.sol\":6033:6050  traits.femaleFace */\n      0x02c0\n      add\n        /* \"src/Traits.sol\":6033:6107  traits.femaleFace = FEMALE_PROBS_CONTRACT.selectFemaleFace(traits, rndCtx) */\n      swap1\n      0x12\n      dup2\n      gt\n      iszero\n      tag_254\n      jumpi\n      tag_254\n      tag_44\n      jump\t// in\n    tag_254:\n      swap1\n      dup2\n      0x12\n      dup2\n      gt\n      iszero\n      tag_256\n      jumpi\n      tag_256\n      tag_44\n      jump\t// in\n    tag_256:\n      swap1\n      mstore\n      pop\n        /* \"src/Traits.sol\":6142:6189  FEMALE_PROBS_CONTRACT.selectFemaleChain(rndCtx) */\n      mload(0x40)\n      shl(0xe0, 0x29814be5)\n      dup2\n      mstore\n      sub(shl(0xa0, 0x01), 0x01)\n        /* \"src/Traits.sol\":6142:6163  FEMALE_PROBS_CONTRACT */\n      immutable(\"0x32da71dbd53bc029835bc5ecdd3e688035cc92bb61b1811d1685e67ba974e19f\")\n        /* \"src/Traits.sol\":6142:6181  FEMALE_PROBS_CONTRACT.selectFemaleChain */\n      and\n      swap1\n      0x29814be5\n      swap1\n        /* \"src/Traits.sol\":6142:6189  FEMALE_PROBS_CONTRACT.selectFemaleChain(rndCtx) */\n      tag_257\n      swap1\n        /* \"src/Traits.sol\":6182:6188  rndCtx */\n      dup7\n      swap1\n        /* \"src/Traits.sol\":6142:6189  FEMALE_PROBS_CONTRACT.selectFemaleChain(rndCtx) */\n      0x04\n      add\n      tag_88\n      jump\t// in\n    tag_257:\n      0x20\n      mload(0x40)\n      dup1\n      dup4\n      sub\n      dup2\n      dup7\n      gas\n      staticcall\n      iszero\n      dup1\n      iszero\n      tag_259\n      jumpi\n      returndatacopy(0x00, 0x00, returndatasize)\n      revert(0x00, returndatasize)\n    tag_259:\n      pop\n      pop\n      pop\n      pop\n      mload(0x40)\n      returndatasize\n      not(0x1f)\n      0x1f\n      dup3\n      add\n      and\n      dup3\n      add\n      dup1\n      0x40\n      mstore\n      pop\n      dup2\n      add\n      swap1\n      tag_260\n      swap2\n      swap1\n      tag_120\n      jump\t// in\n    tag_260:\n        /* \"src/Traits.sol\":6121:6127  traits */\n      dup2\n        /* \"src/Traits.sol\":6121:6139  traits.femaleChain */\n      0x02e0\n      add\n        /* \"src/Traits.sol\":6121:6189  traits.femaleChain = FEMALE_PROBS_CONTRACT.selectFemaleChain(rndCtx) */\n      swap1\n      0x08\n      dup2\n      gt\n      iszero\n      tag_263\n      jumpi\n      tag_263\n      tag_44\n      jump\t// in\n    tag_263:\n      swap1\n      dup2\n      0x08\n      dup2\n      gt\n      iszero\n      tag_265\n      jumpi\n      tag_265\n      tag_44\n      jump\t// in\n    tag_265:\n      swap1\n      mstore\n      pop\n        /* \"src/Traits.sol\":6226:6275  FEMALE_PROBS_CONTRACT.selectFemaleEarring(rndCtx) */\n      mload(0x40)\n      shl(0xe0, 0x8e57a737)\n      dup2\n      mstore\n      sub(shl(0xa0, 0x01), 0x01)\n        /* \"src/Traits.sol\":6226:6247  FEMALE_PROBS_CONTRACT */\n      immutable(\"0x32da71dbd53bc029835bc5ecdd3e688035cc92bb61b1811d1685e67ba974e19f\")\n        /* \"src/Traits.sol\":6226:6267  FEMALE_PROBS_CONTRACT.selectFemaleEarring */\n      and\n      swap1\n      0x8e57a737\n      swap1\n        /* \"src/Traits.sol\":6226:6275  FEMALE_PROBS_CONTRACT.selectFemaleEarring(rndCtx) */\n      tag_266\n      swap1\n        /* \"src/Traits.sol\":6268:6274  rndCtx */\n      dup7\n      swap1\n        /* \"src/Traits.sol\":6226:6275  FEMALE_PROBS_CONTRACT.selectFemaleEarring(rndCtx) */\n      0x04\n      add\n      tag_88\n      jump\t// in\n    tag_266:\n      0x20\n      mload(0x40)\n      dup1\n      dup4\n      sub\n      dup2\n      dup7\n      gas\n      staticcall\n      iszero\n      dup1\n      iszero\n      tag_268\n      jumpi\n      returndatacopy(0x00, 0x00, returndatasize)\n      revert(0x00, returndatasize)\n    tag_268:\n      pop\n      pop\n      pop\n      pop\n      mload(0x40)\n      returndatasize\n      not(0x1f)\n      0x1f\n      dup3\n      add\n      and\n      dup3\n      add\n      dup1\n      0x40\n      mstore\n      pop\n      dup2\n      add\n      swap1\n      tag_269\n      swap2\n      swap1\n      tag_120\n      jump\t// in\n    tag_269:\n        /* \"src/Traits.sol\":6203:6209  traits */\n      dup2\n        /* \"src/Traits.sol\":6203:6223  traits.femaleEarring */\n      0x0300\n      add\n        /* \"src/Traits.sol\":6203:6275  traits.femaleEarring = FEMALE_PROBS_CONTRACT.selectFemaleEarring(rndCtx) */\n      swap1\n      0x08\n      dup2\n      gt\n      iszero\n      tag_272\n      jumpi\n      tag_272\n      tag_44\n      jump\t// in\n    tag_272:\n      swap1\n      dup2\n      0x08\n      dup2\n      gt\n      iszero\n      tag_274\n      jumpi\n      tag_274\n      tag_44\n      jump\t// in\n    tag_274:\n      swap1\n      mstore\n      pop\n        /* \"src/Traits.sol\":6309:6355  FEMALE_PROBS_CONTRACT.selectFemaleMask(rndCtx) */\n      mload(0x40)\n      shl(0xe1, 0x7067a81d)\n      dup2\n      mstore\n      sub(shl(0xa0, 0x01), 0x01)\n        /* \"src/Traits.sol\":6309:6330  FEMALE_PROBS_CONTRACT */\n      immutable(\"0x32da71dbd53bc029835bc5ecdd3e688035cc92bb61b1811d1685e67ba974e19f\")\n        /* \"src/Traits.sol\":6309:6347  FEMALE_PROBS_CONTRACT.selectFemaleMask */\n      and\n      swap1\n      0xe0cf503a\n      swap1\n        /* \"src/Traits.sol\":6309:6355  FEMALE_PROBS_CONTRACT.selectFemaleMask(rndCtx) */\n      tag_275\n      swap1\n        /* \"src/Traits.sol\":6348:6354  rndCtx */\n      dup7\n      swap1\n        /* \"src/Traits.sol\":6309:6355  FEMALE_PROBS_CONTRACT.selectFemaleMask(rndCtx) */\n      0x04\n      add\n      tag_88\n      jump\t// in\n    tag_275:\n      0x20\n      mload(0x40)\n      dup1\n      dup4\n      sub\n      dup2\n      dup7\n      gas\n      staticcall\n      iszero\n      dup1\n      iszero\n      tag_277\n      jumpi\n      returndatacopy(0x00, 0x00, returndatasize)\n      revert(0x00, returndatasize)\n    tag_277:\n      pop\n      pop\n      pop\n      pop\n      mload(0x40)\n      returndatasize\n      not(0x1f)\n      0x1f\n      dup3\n      add\n      and\n      dup3\n      add\n      dup1\n      0x40\n      mstore\n      pop\n      dup2\n      add\n      swap1\n      tag_278\n      swap2\n      swap1\n      tag_279\n      jump\t// in\n    tag_278:\n        /* \"src/Traits.sol\":6289:6295  traits */\n      dup2\n        /* \"src/Traits.sol\":6289:6306  traits.femaleMask */\n      0x0340\n      add\n        /* \"src/Traits.sol\":6289:6355  traits.femaleMask = FEMALE_PROBS_CONTRACT.selectFemaleMask(rndCtx) */\n      swap1\n      0x14\n      dup2\n      gt\n      iszero\n      tag_281\n      jumpi\n      tag_281\n      tag_44\n      jump\t// in\n    tag_281:\n      swap1\n      dup2\n      0x14\n      dup2\n      gt\n      iszero\n      tag_283\n      jumpi\n      tag_283\n      tag_44\n      jump\t// in\n    tag_283:\n      swap1\n      mstore\n      pop\n        /* \"src/Traits.sol\":6390:6437  FEMALE_PROBS_CONTRACT.selectFemaleScarf(rndCtx) */\n      mload(0x40)\n      shl(0xe1, 0x3a4a9d71)\n      dup2\n      mstore\n      sub(shl(0xa0, 0x01), 0x01)\n        /* \"src/Traits.sol\":6390:6411  FEMALE_PROBS_CONTRACT */\n      immutable(\"0x32da71dbd53bc029835bc5ecdd3e688035cc92bb61b1811d1685e67ba974e19f\")\n        /* \"src/Traits.sol\":6390:6429  FEMALE_PROBS_CONTRACT.selectFemaleScarf */\n      and\n      swap1\n      0x74953ae2\n      swap1\n        /* \"src/Traits.sol\":6390:6437  FEMALE_PROBS_CONTRACT.selectFemaleScarf(rndCtx) */\n      tag_284\n      swap1\n        /* \"src/Traits.sol\":6430:6436  rndCtx */\n      dup7\n      swap1\n        /* \"src/Traits.sol\":6390:6437  FEMALE_PROBS_CONTRACT.selectFemaleScarf(rndCtx) */\n      0x04\n      add\n      tag_88\n      jump\t// in\n    tag_284:\n      0x20\n      mload(0x40)\n      dup1\n      dup4\n      sub\n      dup2\n      dup7\n      gas\n      staticcall\n      iszero\n      dup1\n      iszero\n      tag_286\n      jumpi\n      returndatacopy(0x00, 0x00, returndatasize)\n      revert(0x00, returndatasize)\n    tag_286:\n      pop\n      pop\n      pop\n      pop\n      mload(0x40)\n      returndatasize\n      not(0x1f)\n      0x1f\n      dup3\n      add\n      and\n      dup3\n      add\n      dup1\n      0x40\n      mstore\n      pop\n      dup2\n      add\n      swap1\n      tag_287\n      swap2\n      swap1\n      tag_156\n      jump\t// in\n    tag_287:\n        /* \"src/Traits.sol\":6369:6375  traits */\n      dup2\n        /* \"src/Traits.sol\":6369:6387  traits.femaleScarf */\n      0x0320\n      add\n        /* \"src/Traits.sol\":6369:6437  traits.femaleScarf = FEMALE_PROBS_CONTRACT.selectFemaleScarf(rndCtx) */\n      swap1\n      0x03\n      dup2\n      gt\n      iszero\n      tag_290\n      jumpi\n      tag_290\n      tag_44\n      jump\t// in\n    tag_290:\n      swap1\n      dup2\n      0x03\n      dup2\n      gt\n      iszero\n      tag_292\n      jumpi\n      tag_292\n      tag_44\n      jump\t// in\n    tag_292:\n      swap1\n      mstore\n      pop\n        /* \"src/Traits.sol\":6471:6525  FEMALE_PROBS_CONTRACT.selectFemaleHair(traits, rndCtx) */\n      mload(0x40)\n      shl(0xe1, 0x33050cbd)\n      dup2\n      mstore\n      sub(shl(0xa0, 0x01), 0x01)\n        /* \"src/Traits.sol\":6471:6492  FEMALE_PROBS_CONTRACT */\n      immutable(\"0x32da71dbd53bc029835bc5ecdd3e688035cc92bb61b1811d1685e67ba974e19f\")\n        /* \"src/Traits.sol\":6471:6509  FEMALE_PROBS_CONTRACT.selectFemaleHair */\n      and\n      swap1\n      0x660a197a\n      swap1\n        /* \"src/Traits.sol\":6471:6525  FEMALE_PROBS_CONTRACT.selectFemaleHair(traits, rndCtx) */\n      tag_293\n      swap1\n        /* \"src/Traits.sol\":6510:6516  traits */\n      dup5\n      swap1\n        /* \"src/Traits.sol\":6518:6524  rndCtx */\n      dup8\n      swap1\n        /* \"src/Traits.sol\":6471:6525  FEMALE_PROBS_CONTRACT.selectFemaleHair(traits, rndCtx) */\n      0x04\n      add\n      tag_98\n      jump\t// in\n    tag_293:\n      0x20\n      mload(0x40)\n      dup1\n      dup4\n      sub\n      dup2\n      dup7\n      gas\n      staticcall\n      iszero\n      dup1\n      iszero\n      tag_295\n      jumpi\n      returndatacopy(0x00, 0x00, returndatasize)\n      revert(0x00, returndatasize)\n    tag_295:\n      pop\n      pop\n      pop\n      pop\n      mload(0x40)\n      returndatasize\n      not(0x1f)\n      0x1f\n      dup3\n      add\n      and\n      dup3\n      add\n      dup1\n      0x40\n      mstore\n      pop\n      dup2\n      add\n      swap1\n      tag_296\n      swap2\n      swap1\n      tag_297\n      jump\t// in\n    tag_296:\n        /* \"src/Traits.sol\":6451:6457  traits */\n      dup2\n        /* \"src/Traits.sol\":6451:6468  traits.femaleHair */\n      0x0360\n      add\n        /* \"src/Traits.sol\":6451:6525  traits.femaleHair = FEMALE_PROBS_CONTRACT.selectFemaleHair(traits, rndCtx) */\n      swap1\n      0xc2\n      dup2\n      gt\n      iszero\n      tag_299\n      jumpi\n      tag_299\n      tag_44\n      jump\t// in\n    tag_299:\n      swap1\n      dup2\n      0xc2\n      dup2\n      gt\n      iszero\n      tag_301\n      jumpi\n      tag_301\n      tag_44\n      jump\t// in\n    tag_301:\n      swap1\n      mstore\n      pop\n        /* \"src/Traits.sol\":6562:6619  FEMALE_PROBS_CONTRACT.selectFemaleHatHair(traits, rndCtx) */\n      mload(0x40)\n      shl(0xe0, 0x40aba8db)\n      dup2\n      mstore\n      sub(shl(0xa0, 0x01), 0x01)\n        /* \"src/Traits.sol\":6562:6583  FEMALE_PROBS_CONTRACT */\n      immutable(\"0x32da71dbd53bc029835bc5ecdd3e688035cc92bb61b1811d1685e67ba974e19f\")\n        /* \"src/Traits.sol\":6562:6603  FEMALE_PROBS_CONTRACT.selectFemaleHatHair */\n      and\n      swap1\n      0x40aba8db\n      swap1\n        /* \"src/Traits.sol\":6562:6619  FEMALE_PROBS_CONTRACT.selectFemaleHatHair(traits, rndCtx) */\n      tag_302\n      swap1\n        /* \"src/Traits.sol\":6604:6610  traits */\n      dup5\n      swap1\n        /* \"src/Traits.sol\":6612:6618  rndCtx */\n      dup8\n      swap1\n        /* \"src/Traits.sol\":6562:6619  FEMALE_PROBS_CONTRACT.selectFemaleHatHair(traits, rndCtx) */\n      0x04\n      add\n      tag_98\n      jump\t// in\n    tag_302:\n      0x20\n      mload(0x40)\n      dup1\n      dup4\n      sub\n      dup2\n      dup7\n      gas\n      staticcall\n      iszero\n      dup1\n      iszero\n      tag_304\n      jumpi\n      returndatacopy(0x00, 0x00, returndatasize)\n      revert(0x00, returndatasize)\n    tag_304:\n      pop\n      pop\n      pop\n      pop\n      mload(0x40)\n      returndatasize\n      not(0x1f)\n      0x1f\n      dup3\n      add\n      and\n      dup3\n      add\n      dup1\n      0x40\n      mstore\n      pop\n      dup2\n      add\n      swap1\n      tag_305\n      swap2\n      swap1\n      tag_306\n      jump\t// in\n    tag_305:\n        /* \"src/Traits.sol\":6539:6545  traits */\n      dup2\n        /* \"src/Traits.sol\":6539:6559  traits.femaleHatHair */\n      0x0380\n      add\n        /* \"src/Traits.sol\":6539:6619  traits.femaleHatHair = FEMALE_PROBS_CONTRACT.selectFemaleHatHair(traits, rndCtx) */\n      swap1\n      0x84\n      dup2\n      gt\n      iszero\n      tag_308\n      jumpi\n      tag_308\n      tag_44\n      jump\t// in\n    tag_308:\n      swap1\n      dup2\n      0x84\n      dup2\n      gt\n      iszero\n      tag_310\n      jumpi\n      tag_310\n      tag_44\n      jump\t// in\n    tag_310:\n      swap1\n      mstore\n      pop\n        /* \"src/Traits.sol\":6657:6707  FEMALE_PROBS_CONTRACT.selectFemaleHeadwear(rndCtx) */\n      mload(0x40)\n      shl(0xe0, 0x2743c88f)\n      dup2\n      mstore\n      sub(shl(0xa0, 0x01), 0x01)\n        /* \"src/Traits.sol\":6657:6678  FEMALE_PROBS_CONTRACT */\n      immutable(\"0x32da71dbd53bc029835bc5ecdd3e688035cc92bb61b1811d1685e67ba974e19f\")\n        /* \"src/Traits.sol\":6657:6699  FEMALE_PROBS_CONTRACT.selectFemaleHeadwear */\n      and\n      swap1\n      0x2743c88f\n      swap1\n        /* \"src/Traits.sol\":6657:6707  FEMALE_PROBS_CONTRACT.selectFemaleHeadwear(rndCtx) */\n      tag_311\n      swap1\n        /* \"src/Traits.sol\":6700:6706  rndCtx */\n      dup7\n      swap1\n        /* \"src/Traits.sol\":6657:6707  FEMALE_PROBS_CONTRACT.selectFemaleHeadwear(rndCtx) */\n      0x04\n      add\n      tag_88\n      jump\t// in\n    tag_311:\n      0x20\n      mload(0x40)\n      dup1\n      dup4\n      sub\n      dup2\n      dup7\n      gas\n      staticcall\n      iszero\n      dup1\n      iszero\n      tag_313\n      jumpi\n      returndatacopy(0x00, 0x00, returndatasize)\n      revert(0x00, returndatasize)\n    tag_313:\n      pop\n      pop\n      pop\n      pop\n      mload(0x40)\n      returndatasize\n      not(0x1f)\n      0x1f\n      dup3\n      add\n      and\n      dup3\n      add\n      dup1\n      0x40\n      mstore\n      pop\n      dup2\n      add\n      swap1\n      tag_314\n      swap2\n      swap1\n      tag_315\n      jump\t// in\n    tag_314:\n        /* \"src/Traits.sol\":6633:6639  traits */\n      dup2\n        /* \"src/Traits.sol\":6633:6654  traits.femaleHeadwear */\n      0x03a0\n      add\n        /* \"src/Traits.sol\":6633:6707  traits.femaleHeadwear = FEMALE_PROBS_CONTRACT.selectFemaleHeadwear(rndCtx) */\n      swap1\n      0x82\n      dup2\n      gt\n      iszero\n      tag_317\n      jumpi\n      tag_317\n      tag_44\n      jump\t// in\n    tag_317:\n      swap1\n      dup2\n      0x82\n      dup2\n      gt\n      iszero\n      tag_319\n      jumpi\n      tag_319\n      tag_44\n      jump\t// in\n    tag_319:\n      swap1\n      mstore\n      pop\n        /* \"src/Traits.sol\":6744:6793  FEMALE_PROBS_CONTRACT.selectFemaleEyeWear(rndCtx) */\n      mload(0x40)\n      shl(0xe0, 0xa063f74f)\n      dup2\n      mstore\n      sub(shl(0xa0, 0x01), 0x01)\n        /* \"src/Traits.sol\":6744:6765  FEMALE_PROBS_CONTRACT */\n      immutable(\"0x32da71dbd53bc029835bc5ecdd3e688035cc92bb61b1811d1685e67ba974e19f\")\n        /* \"src/Traits.sol\":6744:6785  FEMALE_PROBS_CONTRACT.selectFemaleEyeWear */\n      and\n      swap1\n      0xa063f74f\n      swap1\n        /* \"src/Traits.sol\":6744:6793  FEMALE_PROBS_CONTRACT.selectFemaleEyeWear(rndCtx) */\n      tag_320\n      swap1\n        /* \"src/Traits.sol\":6786:6792  rndCtx */\n      dup7\n      swap1\n        /* \"src/Traits.sol\":6744:6793  FEMALE_PROBS_CONTRACT.selectFemaleEyeWear(rndCtx) */\n      0x04\n      add\n      tag_88\n      jump\t// in\n    tag_320:\n      0x20\n      mload(0x40)\n      dup1\n      dup4\n      sub\n      dup2\n      dup7\n      gas\n      staticcall\n      iszero\n      dup1\n      iszero\n      tag_322\n      jumpi\n      returndatacopy(0x00, 0x00, returndatasize)\n      revert(0x00, returndatasize)\n    tag_322:\n      pop\n      pop\n      pop\n      pop\n      mload(0x40)\n      returndatasize\n      not(0x1f)\n      0x1f\n      dup3\n      add\n      and\n      dup3\n      add\n      dup1\n      0x40\n      mstore\n      pop\n      dup2\n      add\n      swap1\n      tag_323\n      swap2\n      swap1\n      tag_324\n      jump\t// in\n    tag_323:\n        /* \"src/Traits.sol\":6721:6727  traits */\n      dup2\n        /* \"src/Traits.sol\":6721:6741  traits.femaleEyeWear */\n      0x03c0\n      add\n        /* \"src/Traits.sol\":6721:6793  traits.femaleEyeWear = FEMALE_PROBS_CONTRACT.selectFemaleEyeWear(rndCtx) */\n      swap1\n      0x79\n      dup2\n      gt\n      iszero\n      tag_326\n      jumpi\n      tag_326\n      tag_44\n      jump\t// in\n    tag_326:\n      swap1\n      dup2\n      0x79\n      dup2\n      gt\n      iszero\n      tag_328\n      jumpi\n      tag_328\n      tag_44\n      jump\t// in\n    tag_328:\n      swap1\n      mstore\n      pop\n        /* \"src/Traits.sol\":6869:6891  _addFemaleSkin(traits) */\n      tag_329\n        /* \"src/Traits.sol\":6884:6890  traits */\n      dup2\n        /* \"src/Traits.sol\":6869:6883  _addFemaleSkin */\n      tag_330\n        /* \"src/Traits.sol\":6869:6891  _addFemaleSkin(traits) */\n      jump\t// in\n    tag_329:\n        /* \"src/Traits.sol\":6905:6927  _addFemaleEyes(traits) */\n      tag_331\n        /* \"src/Traits.sol\":6920:6926  traits */\n      dup2\n        /* \"src/Traits.sol\":6905:6919  _addFemaleEyes */\n      tag_332\n        /* \"src/Traits.sol\":6905:6927  _addFemaleEyes(traits) */\n      jump\t// in\n    tag_331:\n        /* \"src/Traits.sol\":6941:6963  _addFemaleFace(traits) */\n      tag_333\n        /* \"src/Traits.sol\":6956:6962  traits */\n      dup2\n        /* \"src/Traits.sol\":6941:6955  _addFemaleFace */\n      tag_334\n        /* \"src/Traits.sol\":6941:6963  _addFemaleFace(traits) */\n      jump\t// in\n    tag_333:\n        /* \"src/Traits.sol\":6977:7000  _addFemaleChain(traits) */\n      tag_335\n        /* \"src/Traits.sol\":6993:6999  traits */\n      dup2\n        /* \"src/Traits.sol\":6977:6992  _addFemaleChain */\n      tag_336\n        /* \"src/Traits.sol\":6977:7000  _addFemaleChain(traits) */\n      jump\t// in\n    tag_335:\n        /* \"src/Traits.sol\":7014:7039  _addFemaleEarring(traits) */\n      tag_337\n        /* \"src/Traits.sol\":7032:7038  traits */\n      dup2\n        /* \"src/Traits.sol\":7014:7031  _addFemaleEarring */\n      tag_338\n        /* \"src/Traits.sol\":7014:7039  _addFemaleEarring(traits) */\n      jump\t// in\n    tag_337:\n        /* \"src/Traits.sol\":7053:7075  _addFemaleMask(traits) */\n      tag_339\n        /* \"src/Traits.sol\":7068:7074  traits */\n      dup2\n        /* \"src/Traits.sol\":7053:7067  _addFemaleMask */\n      tag_340\n        /* \"src/Traits.sol\":7053:7075  _addFemaleMask(traits) */\n      jump\t// in\n    tag_339:\n        /* \"src/Traits.sol\":7089:7112  _addFemaleScarf(traits) */\n      tag_341\n        /* \"src/Traits.sol\":7105:7111  traits */\n      dup2\n        /* \"src/Traits.sol\":7089:7104  _addFemaleScarf */\n      tag_342\n        /* \"src/Traits.sol\":7089:7112  _addFemaleScarf(traits) */\n      jump\t// in\n    tag_341:\n        /* \"src/Traits.sol\":7171:7208  TraitsUtils.femaleHasHeadwear(traits) */\n      tag_343\n        /* \"src/Traits.sol\":7201:7207  traits */\n      dup2\n        /* \"src/Traits.sol\":7171:7200  TraitsUtils.femaleHasHeadwear */\n      tag_344\n        /* \"src/Traits.sol\":7171:7208  TraitsUtils.femaleHasHeadwear(traits) */\n      jump\t// in\n    tag_343:\n        /* \"src/Traits.sol\":7167:7329  if (TraitsUtils.femaleHasHeadwear(traits)) {... */\n      iszero\n      tag_345\n      jumpi\n        /* \"src/Traits.sol\":7228:7253  _addFemaleHatHair(traits) */\n      tag_346\n        /* \"src/Traits.sol\":7246:7252  traits */\n      dup2\n        /* \"src/Traits.sol\":7228:7245  _addFemaleHatHair */\n      tag_347\n        /* \"src/Traits.sol\":7228:7253  _addFemaleHatHair(traits) */\n      jump\t// in\n    tag_346:\n        /* \"src/Traits.sol\":7167:7329  if (TraitsUtils.femaleHasHeadwear(traits)) {... */\n      jump(tag_349)\n    tag_345:\n        /* \"src/Traits.sol\":7292:7314  _addFemaleHair(traits) */\n      tag_349\n        /* \"src/Traits.sol\":7307:7313  traits */\n      dup2\n        /* \"src/Traits.sol\":7292:7306  _addFemaleHair */\n      tag_350\n        /* \"src/Traits.sol\":7292:7314  _addFemaleHair(traits) */\n      jump\t// in\n    tag_349:\n        /* \"src/Traits.sol\":7355:7381  _addFemaleHeadwear(traits) */\n      tag_351\n        /* \"src/Traits.sol\":7374:7380  traits */\n      dup2\n        /* \"src/Traits.sol\":7355:7373  _addFemaleHeadwear */\n      tag_352\n        /* \"src/Traits.sol\":7355:7381  _addFemaleHeadwear(traits) */\n      jump\t// in\n    tag_351:\n        /* \"src/Traits.sol\":7395:7420  _addFemaleEyeWear(traits) */\n      tag_353\n        /* \"src/Traits.sol\":7413:7419  traits */\n      dup2\n        /* \"src/Traits.sol\":7395:7412  _addFemaleEyeWear */\n      tag_354\n        /* \"src/Traits.sol\":7395:7420  _addFemaleEyeWear(traits) */\n      jump\t// in\n    tag_353:\n        /* \"src/Traits.sol\":7490:7537  MALE_PROBS_CONTRACT.selectMouth(traits, rndCtx) */\n      mload(0x40)\n      shl(0xe1, 0x7ee8fa8d)\n      dup2\n      mstore\n      sub(shl(0xa0, 0x01), 0x01)\n        /* \"src/Traits.sol\":7490:7509  MALE_PROBS_CONTRACT */\n      immutable(\"0xbbd48b257be1b8216d144ef9be5734f8d11697959c9e0f7768bec89db74a63a3\")\n        /* \"src/Traits.sol\":7490:7521  MALE_PROBS_CONTRACT.selectMouth */\n      and\n      swap1\n      0xfdd1f51a\n      swap1\n        /* \"src/Traits.sol\":7490:7537  MALE_PROBS_CONTRACT.selectMouth(traits, rndCtx) */\n      tag_355\n      swap1\n        /* \"src/Traits.sol\":7522:7528  traits */\n      dup5\n      swap1\n        /* \"src/Traits.sol\":7530:7536  rndCtx */\n      dup8\n      swap1\n        /* \"src/Traits.sol\":7490:7537  MALE_PROBS_CONTRACT.selectMouth(traits, rndCtx) */\n      0x04\n      add\n      tag_98\n      jump\t// in\n    tag_355:\n      0x20\n      mload(0x40)\n      dup1\n      dup4\n      sub\n      dup2\n      dup7\n      gas\n      staticcall\n      iszero\n      dup1\n      iszero\n      tag_357\n      jumpi\n      returndatacopy(0x00, 0x00, returndatasize)\n      revert(0x00, returndatasize)\n    tag_357:\n      pop\n      pop\n      pop\n      pop\n      mload(0x40)\n      returndatasize\n      not(0x1f)\n      0x1f\n      dup3\n      add\n      and\n      dup3\n      add\n      dup1\n      0x40\n      mstore\n      pop\n      dup2\n      add\n      swap1\n      tag_358\n      swap2\n      swap1\n      tag_102\n      jump\t// in\n    tag_358:\n        /* \"src/Traits.sol\":7475:7481  traits */\n      dup2\n        /* \"src/Traits.sol\":7475:7487  traits.mouth */\n      0x03e0\n      add\n        /* \"src/Traits.sol\":7475:7537  traits.mouth = MALE_PROBS_CONTRACT.selectMouth(traits, rndCtx) */\n      swap1\n      0x16\n      dup2\n      gt\n      iszero\n      tag_361\n      jumpi\n      tag_361\n      tag_44\n      jump\t// in\n    tag_361:\n      swap1\n      dup2\n      0x16\n      dup2\n      gt\n      iszero\n      tag_363\n      jumpi\n      tag_363\n      tag_44\n      jump\t// in\n    tag_363:\n      swap1\n      mstore\n      pop\n        /* \"src/Traits.sol\":7612:7645  TraitsUtils.femaleHasMask(traits) */\n      tag_364\n        /* \"src/Traits.sol\":7638:7644  traits */\n      dup2\n        /* \"src/Traits.sol\":7612:7637  TraitsUtils.femaleHasMask */\n      tag_365\n        /* \"src/Traits.sol\":7612:7645  TraitsUtils.femaleHasMask(traits) */\n      jump\t// in\n    tag_364:\n        /* \"src/Traits.sol\":7611:7645  !TraitsUtils.femaleHasMask(traits) */\n      iszero\n        /* \"src/Traits.sol\":7611:7681  !TraitsUtils.femaleHasMask(traits) && !TraitsUtils.maleHasMask(traits) */\n      dup1\n      iszero\n      tag_366\n      jumpi\n      pop\n        /* \"src/Traits.sol\":7650:7681  TraitsUtils.maleHasMask(traits) */\n      tag_367\n        /* \"src/Traits.sol\":7674:7680  traits */\n      dup2\n        /* \"src/Traits.sol\":7650:7673  TraitsUtils.maleHasMask */\n      tag_368\n        /* \"src/Traits.sol\":7650:7681  TraitsUtils.maleHasMask(traits) */\n      jump\t// in\n    tag_367:\n        /* \"src/Traits.sol\":7649:7681  !TraitsUtils.maleHasMask(traits) */\n      iszero\n        /* \"src/Traits.sol\":7611:7681  !TraitsUtils.femaleHasMask(traits) && !TraitsUtils.maleHasMask(traits) */\n    tag_366:\n        /* \"src/Traits.sol\":7607:7725  if (!TraitsUtils.femaleHasMask(traits) && !TraitsUtils.maleHasMask(traits)) {... */\n      iszero\n      tag_370\n      jumpi\n        /* \"src/Traits.sol\":7697:7714  _addMouth(traits) */\n      tag_370\n        /* \"src/Traits.sol\":7707:7713  traits */\n      dup2\n        /* \"src/Traits.sol\":7697:7706  _addMouth */\n      tag_371\n        /* \"src/Traits.sol\":7697:7714  _addMouth(traits) */\n      jump\t// in\n    tag_370:\n        /* \"src/Traits.sol\":7798:7814  _backgroundIndex */\n      dup6\n        /* \"src/Traits.sol\":7785:7815  E_Background(_backgroundIndex) */\n      0xffff\n      and\n      0x05\n      dup2\n      gt\n      iszero\n      tag_373\n      jumpi\n      tag_373\n      tag_44\n      jump\t// in\n    tag_373:\n        /* \"src/Traits.sol\":7765:7771  traits */\n      dup2\n        /* \"src/Traits.sol\":7765:7782  traits.background */\n      0xe0\n      add\n        /* \"src/Traits.sol\":7765:7815  traits.background = E_Background(_backgroundIndex) */\n      swap1\n      0x05\n      dup2\n      gt\n      iszero\n      tag_375\n      jumpi\n      tag_375\n      tag_44\n      jump\t// in\n    tag_375:\n      swap1\n      dup2\n      0x05\n      dup2\n      gt\n      iszero\n      tag_377\n      jumpi\n      tag_377\n      tag_44\n      jump\t// in\n    tag_377:\n      swap1\n      mstore\n      pop\n        /* \"src/Traits.sol\":7825:7847  _addBackground(traits) */\n      tag_378\n        /* \"src/Traits.sol\":7840:7846  traits */\n      dup2\n        /* \"src/Traits.sol\":7825:7839  _addBackground */\n      tag_80\n        /* \"src/Traits.sol\":7825:7847  _addBackground(traits) */\n      jump\t// in\n    tag_378:\n        /* \"src/Traits.sol\":7865:7871  traits */\n      swap3\n      pop\n      pop\n      pop\n        /* \"src/Traits.sol\":1752:7878  function generateAllTraits(... */\n    tag_22:\n      swap4\n      swap3\n      pop\n      pop\n      pop\n      jump\t// out\n        /* \"src/libraries/Random.sol\":576:888  function initCtx(uint16 tokenIdSeed, uint256 globalSeed) internal pure returns (RandomCtx memory) {... */\n    tag_24:\n      0x40\n      dup1\n      mload\n      dup1\n      dup3\n      add\n      swap1\n      swap2\n      mstore\n      0x00\n      dup1\n      dup3\n      mstore\n      0x20\n      dup3\n      add\n      mstore\n        /* \"src/libraries/Random.sol\":725:766  abi.encodePacked(tokenIdSeed, globalSeed) */\n      mload(0x40)\n      not(sub(shl(0xf0, 0x01), 0x01))\n        /* \"#utility.yul\":18719:18722   */\n      0xf0\n        /* \"#utility.yul\":18697:18713   */\n      dup6\n      swap1\n      shl\n        /* \"#utility.yul\":18693:18731   */\n      and\n        /* \"src/libraries/Random.sol\":725:766  abi.encodePacked(tokenIdSeed, globalSeed) */\n      0x20\n      dup3\n      add\n        /* \"#utility.yul\":18681:18732   */\n      mstore\n        /* \"#utility.yul\":18748:18759   */\n      0x22\n      dup2\n      add\n        /* \"#utility.yul\":18741:18768   */\n      dup4\n      swap1\n      mstore\n        /* \"src/libraries/Random.sol\":684:704  uint256 startingSeed */\n      0x00\n      swap1\n        /* \"#utility.yul\":18784:18796   */\n      0x42\n      add\n        /* \"src/libraries/Random.sol\":725:766  abi.encodePacked(tokenIdSeed, globalSeed) */\n      0x40\n      dup1\n      mload\n      not(0x1f)\n      dup2\n      dup5\n      sub\n      add\n      dup2\n      mstore\n      dup3\n      dup3\n      mstore\n        /* \"src/libraries/Random.sol\":715:767  keccak256(abi.encodePacked(tokenIdSeed, globalSeed)) */\n      dup1\n      mload\n        /* \"src/libraries/Random.sol\":725:766  abi.encodePacked(tokenIdSeed, globalSeed) */\n      0x20\n        /* \"src/libraries/Random.sol\":715:767  keccak256(abi.encodePacked(tokenIdSeed, globalSeed)) */\n      swap2\n      dup3\n      add\n      keccak256\n        /* \"src/libraries/Random.sol\":794:881  RandomCtx({... */\n      dup4\n      dup4\n      add\n      swap1\n      swap3\n      mstore\n      swap1\n      dup3\n      mstore\n      0xffff\n      dup7\n      and\n      swap1\n      dup3\n      add\n      mstore\n        /* \"src/libraries/Random.sol\":725:766  abi.encodePacked(tokenIdSeed, globalSeed) */\n      swap2\n      pop\n      pop\n        /* \"src/libraries/Random.sol\":576:888  function initCtx(uint16 tokenIdSeed, uint256 globalSeed) internal pure returns (RandomCtx memory) {... */\n    tag_381:\n      swap3\n      swap2\n      pop\n      pop\n      jump\t// out\n        /* \"src/libraries/Random.sol\":1580:1832  function randRange(RandomCtx memory ctx, uint256 from, uint256 toInclusive) internal pure returns (uint256) {... */\n    tag_37:\n        /* \"src/libraries/Random.sol\":1679:1686  uint256 */\n      0x00\n        /* \"src/libraries/Random.sol\":1763:1764  1 */\n      0x01\n        /* \"src/libraries/Random.sol\":1742:1760  toInclusive - from */\n      dup4\n      dup4\n      sub\n        /* \"src/libraries/Random.sol\":1742:1764  toInclusive - from + 1 */\n      add\n      dup1\n        /* \"src/libraries/Random.sol\":1793:1802  rand(ctx) */\n      tag_385\n        /* \"src/libraries/Random.sol\":1798:1801  ctx */\n      dup7\n        /* \"src/libraries/Random.sol\":1793:1797  rand */\n      tag_386\n        /* \"src/libraries/Random.sol\":1793:1802  rand(ctx) */\n      jump\t// in\n    tag_385:\n        /* \"src/libraries/Random.sol\":1793:1814  rand(ctx) % rangeSize */\n      dup2\n      tag_388\n      jumpi\n      tag_388\n      tag_389\n      jump\t// in\n    tag_388:\n      mod\n        /* \"src/libraries/Random.sol\":1785:1789  from */\n      dup5\n        /* \"src/libraries/Random.sol\":1785:1815  from + (rand(ctx) % rangeSize) */\n      add\n        /* \"src/libraries/Random.sol\":1778:1815  return from + (rand(ctx) % rangeSize) */\n      swap2\n      pop\n      pop\n        /* \"src/libraries/Random.sol\":1580:1832  function randRange(RandomCtx memory ctx, uint256 from, uint256 toInclusive) internal pure returns (uint256) {... */\n      swap4\n      swap3\n      pop\n      pop\n      pop\n      jump\t// out\n        /* \"src/libraries/Random.sol\":2064:2250  function randBool(RandomCtx memory ctx, uint16 probability) internal pure returns (bool) {... */\n    tag_39:\n        /* \"src/libraries/Random.sol\":2147:2151  bool */\n      0x00\n        /* \"src/libraries/Random.sol\":2222:2233  probability */\n      dup2\n        /* \"src/libraries/Random.sol\":2194:2233  randRange(ctx, 1, 10000) <= probability */\n      0xffff\n      and\n        /* \"src/libraries/Random.sol\":2194:2218  randRange(ctx, 1, 10000) */\n      tag_391\n        /* \"src/libraries/Random.sol\":2204:2207  ctx */\n      dup5\n        /* \"src/libraries/Random.sol\":2209:2210  1 */\n      0x01\n        /* \"src/libraries/Random.sol\":2212:2217  10000 */\n      0x2710\n        /* \"src/libraries/Random.sol\":2194:2203  randRange */\n      tag_37\n        /* \"src/libraries/Random.sol\":2194:2218  randRange(ctx, 1, 10000) */\n      jump\t// in\n    tag_391:\n        /* \"src/libraries/Random.sol\":2194:2233  randRange(ctx, 1, 10000) <= probability */\n      gt\n      iszero\n      swap4\n        /* \"src/libraries/Random.sol\":2064:2250  function randBool(RandomCtx memory ctx, uint16 probability) internal pure returns (bool) {... */\n      swap3\n      pop\n      pop\n      pop\n      jump\t// out\n        /* \"src/Traits.sol\":8086:8314  function _addSpecial(TraitsContext memory traits, uint specialIdx) internal pure {... */\n    tag_72:\n        /* \"src/Traits.sol\":8177:8197  E_Special_1s special */\n      0x00\n        /* \"src/Traits.sol\":8213:8223  specialIdx */\n      dup2\n        /* \"src/Traits.sol\":8200:8224  E_Special_1s(specialIdx) */\n      0x0f\n      dup2\n      gt\n      iszero\n      tag_394\n      jumpi\n      tag_394\n      tag_44\n      jump\t// in\n    tag_394:\n        /* \"src/Traits.sol\":8177:8224  E_Special_1s special = E_Special_1s(specialIdx) */\n      swap1\n      pop\n        /* \"src/Traits.sol\":8234:8307  _addTraitToRender(traits, E_TraitsGroup.Special_1s_Group, uint8(special)) */\n      tag_395\n        /* \"src/Traits.sol\":8252:8258  traits */\n      dup4\n        /* \"src/Traits.sol\":8260:8290  E_TraitsGroup.Special_1s_Group */\n      0x00\n        /* \"src/Traits.sol\":8298:8305  special */\n      dup4\n        /* \"src/Traits.sol\":8292:8306  uint8(special) */\n      0x0f\n      dup2\n      gt\n      iszero\n      tag_397\n      jumpi\n      tag_397\n      tag_44\n      jump\t// in\n    tag_397:\n        /* \"src/Traits.sol\":8234:8251  _addTraitToRender */\n      tag_398\n        /* \"src/Traits.sol\":8234:8307  _addTraitToRender(traits, E_TraitsGroup.Special_1s_Group, uint8(special)) */\n      jump\t// in\n    tag_395:\n        /* \"src/Traits.sol\":8167:8314  {... */\n      pop\n        /* \"src/Traits.sol\":8086:8314  function _addSpecial(TraitsContext memory traits, uint specialIdx) internal pure {... */\n      pop\n      pop\n      jump\t// out\n        /* \"src/Traits.sol\":14674:14841  function _addBackground(TraitsContext memory traits) internal pure {... */\n    tag_80:\n        /* \"src/Traits.sol\":14751:14834  _addTraitToRender(traits, E_TraitsGroup.Background_Group, uint8(traits.background)) */\n      tag_400\n        /* \"src/Traits.sol\":14769:14775  traits */\n      dup2\n        /* \"src/Traits.sol\":14777:14807  E_TraitsGroup.Background_Group */\n      0x01\n        /* \"src/Traits.sol\":14815:14821  traits */\n      dup4\n        /* \"src/Traits.sol\":14815:14832  traits.background */\n      0xe0\n      add\n      mload\n        /* \"src/Traits.sol\":14809:14833  uint8(traits.background) */\n      0x05\n      dup2\n      gt\n      iszero\n      tag_397\n      jumpi\n      tag_397\n      tag_44\n      jump\t// in\n        /* \"src/Traits.sol\":14751:14834  _addTraitToRender(traits, E_TraitsGroup.Background_Group, uint8(traits.background)) */\n    tag_400:\n        /* \"src/Traits.sol\":14674:14841  function _addBackground(TraitsContext memory traits) internal pure {... */\n      pop\n      jump\t// out\n        /* \"src/Traits.sol\":8348:8510  function _addMaleSkin(TraitsContext memory traits) internal pure {... */\n    tag_198:\n        /* \"src/Traits.sol\":8423:8503  _addTraitToRender(traits, E_TraitsGroup.Male_Skin_Group, uint8(traits.maleSkin)) */\n      tag_400\n        /* \"src/Traits.sol\":8441:8447  traits */\n      dup2\n        /* \"src/Traits.sol\":8449:8478  E_TraitsGroup.Male_Skin_Group */\n      0x02\n        /* \"src/Traits.sol\":8486:8492  traits */\n      dup4\n        /* \"src/Traits.sol\":8486:8501  traits.maleSkin */\n      0x0100\n      add\n      mload\n        /* \"src/Traits.sol\":8480:8502  uint8(traits.maleSkin) */\n      0x1c\n      dup2\n      gt\n      iszero\n      tag_397\n      jumpi\n      tag_397\n      tag_44\n      jump\t// in\n        /* \"src/Traits.sol\":8521:8740  function _addMaleEyes(TraitsContext memory traits) internal pure {... */\n    tag_200:\n        /* \"src/Traits.sol\":8619:8635  E_Male_Eyes.None */\n      0x00\n        /* \"src/Traits.sol\":8600:8606  traits */\n      dup2\n        /* \"src/Traits.sol\":8600:8615  traits.maleEyes */\n      0x0120\n      add\n      mload\n        /* \"src/Traits.sol\":8600:8635  traits.maleEyes == E_Male_Eyes.None */\n      0x16\n      dup2\n      gt\n      iszero\n      tag_411\n      jumpi\n      tag_411\n      tag_44\n      jump\t// in\n    tag_411:\n      sub\n        /* \"src/Traits.sol\":8596:8644  if (traits.maleEyes == E_Male_Eyes.None) return; */\n      tag_412\n      jumpi\n        /* \"src/Traits.sol\":8521:8740  function _addMaleEyes(TraitsContext memory traits) internal pure {... */\n      pop\n      jump\t// out\n        /* \"src/Traits.sol\":8596:8644  if (traits.maleEyes == E_Male_Eyes.None) return; */\n    tag_412:\n        /* \"src/Traits.sol\":8653:8733  _addTraitToRender(traits, E_TraitsGroup.Male_Eyes_Group, uint8(traits.maleEyes)) */\n      tag_400\n        /* \"src/Traits.sol\":8671:8677  traits */\n      dup2\n        /* \"src/Traits.sol\":8679:8708  E_TraitsGroup.Male_Eyes_Group */\n      0x03\n        /* \"src/Traits.sol\":8716:8722  traits */\n      dup4\n        /* \"src/Traits.sol\":8716:8731  traits.maleEyes */\n      0x0120\n      add\n      mload\n        /* \"src/Traits.sol\":8710:8732  uint8(traits.maleEyes) */\n      0x16\n      dup2\n      gt\n      iszero\n      tag_397\n      jumpi\n      tag_397\n      tag_44\n      jump\t// in\n        /* \"src/Traits.sol\":8746:8965  function _addMaleFace(TraitsContext memory traits) internal pure {... */\n    tag_202:\n        /* \"src/Traits.sol\":8844:8860  E_Male_Face.None */\n      0x00\n        /* \"src/Traits.sol\":8825:8831  traits */\n      dup2\n        /* \"src/Traits.sol\":8825:8840  traits.maleFace */\n      0x0140\n      add\n      mload\n        /* \"src/Traits.sol\":8825:8860  traits.maleFace == E_Male_Face.None */\n      0x13\n      dup2\n      gt\n      iszero\n      tag_420\n      jumpi\n      tag_420\n      tag_44\n      jump\t// in\n    tag_420:\n      sub\n        /* \"src/Traits.sol\":8821:8869  if (traits.maleFace == E_Male_Face.None) return; */\n      tag_421\n      jumpi\n        /* \"src/Traits.sol\":8746:8965  function _addMaleFace(TraitsContext memory traits) internal pure {... */\n      pop\n      jump\t// out\n        /* \"src/Traits.sol\":8821:8869  if (traits.maleFace == E_Male_Face.None) return; */\n    tag_421:\n        /* \"src/Traits.sol\":8878:8958  _addTraitToRender(traits, E_TraitsGroup.Male_Face_Group, uint8(traits.maleFace)) */\n      tag_400\n        /* \"src/Traits.sol\":8896:8902  traits */\n      dup2\n        /* \"src/Traits.sol\":8904:8933  E_TraitsGroup.Male_Face_Group */\n      0x04\n        /* \"src/Traits.sol\":8941:8947  traits */\n      dup4\n        /* \"src/Traits.sol\":8941:8956  traits.maleFace */\n      0x0140\n      add\n      mload\n        /* \"src/Traits.sol\":8935:8957  uint8(traits.maleFace) */\n      0x13\n      dup2\n      gt\n      iszero\n      tag_397\n      jumpi\n      tag_397\n      tag_44\n      jump\t// in\n        /* \"src/Traits.sol\":8971:9195  function _addMaleChain(TraitsContext memory traits) internal pure {... */\n    tag_204:\n        /* \"src/Traits.sol\":9071:9088  E_Male_Chain.None */\n      0x00\n        /* \"src/Traits.sol\":9051:9057  traits */\n      dup2\n        /* \"src/Traits.sol\":9051:9067  traits.maleChain */\n      0x0160\n      add\n      mload\n        /* \"src/Traits.sol\":9051:9088  traits.maleChain == E_Male_Chain.None */\n      0x08\n      dup2\n      gt\n      iszero\n      tag_429\n      jumpi\n      tag_429\n      tag_44\n      jump\t// in\n    tag_429:\n      sub\n        /* \"src/Traits.sol\":9047:9097  if (traits.maleChain == E_Male_Chain.None) return; */\n      tag_430\n      jumpi\n        /* \"src/Traits.sol\":8971:9195  function _addMaleChain(TraitsContext memory traits) internal pure {... */\n      pop\n      jump\t// out\n        /* \"src/Traits.sol\":9047:9097  if (traits.maleChain == E_Male_Chain.None) return; */\n    tag_430:\n        /* \"src/Traits.sol\":9106:9188  _addTraitToRender(traits, E_TraitsGroup.Male_Chain_Group, uint8(traits.maleChain)) */\n      tag_400\n        /* \"src/Traits.sol\":9124:9130  traits */\n      dup2\n        /* \"src/Traits.sol\":9132:9162  E_TraitsGroup.Male_Chain_Group */\n      0x05\n        /* \"src/Traits.sol\":9170:9176  traits */\n      dup4\n        /* \"src/Traits.sol\":9170:9186  traits.maleChain */\n      0x0160\n      add\n      mload\n        /* \"src/Traits.sol\":9164:9187  uint8(traits.maleChain) */\n      0x08\n      dup2\n      gt\n      iszero\n      tag_397\n      jumpi\n      tag_397\n      tag_44\n      jump\t// in\n        /* \"src/Traits.sol\":9431:9665  function _addMaleEarring(TraitsContext memory traits) internal pure {... */\n    tag_206:\n        /* \"src/Traits.sol\":9535:9554  E_Male_Earring.None */\n      0x00\n        /* \"src/Traits.sol\":9513:9519  traits */\n      dup2\n        /* \"src/Traits.sol\":9513:9531  traits.maleEarring */\n      0x0180\n      add\n      mload\n        /* \"src/Traits.sol\":9513:9554  traits.maleEarring == E_Male_Earring.None */\n      0x08\n      dup2\n      gt\n      iszero\n      tag_438\n      jumpi\n      tag_438\n      tag_44\n      jump\t// in\n    tag_438:\n      sub\n        /* \"src/Traits.sol\":9509:9563  if (traits.maleEarring == E_Male_Earring.None) return; */\n      tag_439\n      jumpi\n        /* \"src/Traits.sol\":9431:9665  function _addMaleEarring(TraitsContext memory traits) internal pure {... */\n      pop\n      jump\t// out\n        /* \"src/Traits.sol\":9509:9563  if (traits.maleEarring == E_Male_Earring.None) return; */\n    tag_439:\n        /* \"src/Traits.sol\":9572:9658  _addTraitToRender(traits, E_TraitsGroup.Male_Earring_Group, uint8(traits.maleEarring)) */\n      tag_400\n        /* \"src/Traits.sol\":9590:9596  traits */\n      dup2\n        /* \"src/Traits.sol\":9598:9630  E_TraitsGroup.Male_Earring_Group */\n      0x06\n        /* \"src/Traits.sol\":9638:9644  traits */\n      dup4\n        /* \"src/Traits.sol\":9638:9656  traits.maleEarring */\n      0x0180\n      add\n      mload\n        /* \"src/Traits.sol\":9632:9657  uint8(traits.maleEarring) */\n      0x08\n      dup2\n      gt\n      iszero\n      tag_397\n      jumpi\n      tag_397\n      tag_44\n      jump\t// in\n        /* \"src/libraries/TraitsUtils.sol\":8500:8657  function maleHasFacialHair(TraitsContext memory traits) internal pure returns (bool) {... */\n    tag_208:\n        /* \"src/libraries/TraitsUtils.sol\":8579:8583  bool */\n      0x00\n      dup1\n        /* \"src/libraries/TraitsUtils.sol\":8602:8608  traits */\n      dup3\n        /* \"src/libraries/TraitsUtils.sol\":8602:8623  traits.maleFacialHair */\n      0x01c0\n      add\n      mload\n        /* \"src/libraries/TraitsUtils.sol\":8602:8650  traits.maleFacialHair != E_Male_Facial_Hair.None */\n      0x57\n      dup2\n      gt\n      iszero\n      tag_447\n      jumpi\n      tag_447\n      tag_44\n      jump\t// in\n    tag_447:\n      eq\n      iszero\n      swap3\n        /* \"src/libraries/TraitsUtils.sol\":8500:8657  function maleHasFacialHair(TraitsContext memory traits) internal pure returns (bool) {... */\n      swap2\n      pop\n      pop\n      jump\t// out\n        /* \"src/Traits.sol\":9671:9922  function _addMaleFacialHair(TraitsContext memory traits) internal pure {... */\n    tag_211:\n        /* \"src/Traits.sol\":9781:9804  E_Male_Facial_Hair.None */\n      0x00\n        /* \"src/Traits.sol\":9756:9762  traits */\n      dup2\n        /* \"src/Traits.sol\":9756:9777  traits.maleFacialHair */\n      0x01c0\n      add\n      mload\n        /* \"src/Traits.sol\":9756:9804  traits.maleFacialHair == E_Male_Facial_Hair.None */\n      0x57\n      dup2\n      gt\n      iszero\n      tag_452\n      jumpi\n      tag_452\n      tag_44\n      jump\t// in\n    tag_452:\n      sub\n        /* \"src/Traits.sol\":9752:9813  if (traits.maleFacialHair == E_Male_Facial_Hair.None) return; */\n      tag_453\n      jumpi\n        /* \"src/Traits.sol\":9671:9922  function _addMaleFacialHair(TraitsContext memory traits) internal pure {... */\n      pop\n      jump\t// out\n        /* \"src/Traits.sol\":9752:9813  if (traits.maleFacialHair == E_Male_Facial_Hair.None) return; */\n    tag_453:\n        /* \"src/Traits.sol\":9822:9915  _addTraitToRender(traits, E_TraitsGroup.Male_Facial_Hair_Group, uint8(traits.maleFacialHair)) */\n      tag_400\n        /* \"src/Traits.sol\":9840:9846  traits */\n      dup2\n        /* \"src/Traits.sol\":9848:9884  E_TraitsGroup.Male_Facial_Hair_Group */\n      0x07\n        /* \"src/Traits.sol\":9892:9898  traits */\n      dup4\n        /* \"src/Traits.sol\":9892:9913  traits.maleFacialHair */\n      0x01c0\n      add\n      mload\n        /* \"src/Traits.sol\":9886:9914  uint8(traits.maleFacialHair) */\n      0x57\n      dup2\n      gt\n      iszero\n      tag_397\n      jumpi\n      tag_397\n      tag_44\n      jump\t// in\n        /* \"src/Traits.sol\":9928:10147  function _addMaleMask(TraitsContext memory traits) internal pure {... */\n    tag_214:\n        /* \"src/Traits.sol\":10026:10042  E_Male_Mask.None */\n      0x00\n        /* \"src/Traits.sol\":10007:10013  traits */\n      dup2\n        /* \"src/Traits.sol\":10007:10022  traits.maleMask */\n      0x01e0\n      add\n      mload\n        /* \"src/Traits.sol\":10007:10042  traits.maleMask == E_Male_Mask.None */\n      0x15\n      dup2\n      gt\n      iszero\n      tag_461\n      jumpi\n      tag_461\n      tag_44\n      jump\t// in\n    tag_461:\n      sub\n        /* \"src/Traits.sol\":10003:10051  if (traits.maleMask == E_Male_Mask.None) return; */\n      tag_462\n      jumpi\n        /* \"src/Traits.sol\":9928:10147  function _addMaleMask(TraitsContext memory traits) internal pure {... */\n      pop\n      jump\t// out\n        /* \"src/Traits.sol\":10003:10051  if (traits.maleMask == E_Male_Mask.None) return; */\n    tag_462:\n        /* \"src/Traits.sol\":10060:10140  _addTraitToRender(traits, E_TraitsGroup.Male_Mask_Group, uint8(traits.maleMask)) */\n      tag_400\n        /* \"src/Traits.sol\":10078:10084  traits */\n      dup2\n        /* \"src/Traits.sol\":10086:10115  E_TraitsGroup.Male_Mask_Group */\n      0x08\n        /* \"src/Traits.sol\":10123:10129  traits */\n      dup4\n        /* \"src/Traits.sol\":10123:10138  traits.maleMask */\n      0x01e0\n      add\n      mload\n        /* \"src/Traits.sol\":10117:10139  uint8(traits.maleMask) */\n      0x15\n      dup2\n      gt\n      iszero\n      tag_397\n      jumpi\n      tag_397\n      tag_44\n      jump\t// in\n        /* \"src/Traits.sol\":9201:9425  function _addMaleScarf(TraitsContext memory traits) internal pure {... */\n    tag_216:\n        /* \"src/Traits.sol\":9301:9318  E_Male_Scarf.None */\n      0x00\n        /* \"src/Traits.sol\":9281:9287  traits */\n      dup2\n        /* \"src/Traits.sol\":9281:9297  traits.maleScarf */\n      0x01a0\n      add\n      mload\n        /* \"src/Traits.sol\":9281:9318  traits.maleScarf == E_Male_Scarf.None */\n      0x03\n      dup2\n      gt\n      iszero\n      tag_470\n      jumpi\n      tag_470\n      tag_44\n      jump\t// in\n    tag_470:\n      sub\n        /* \"src/Traits.sol\":9277:9327  if (traits.maleScarf == E_Male_Scarf.None) return; */\n      tag_471\n      jumpi\n        /* \"src/Traits.sol\":9201:9425  function _addMaleScarf(TraitsContext memory traits) internal pure {... */\n      pop\n      jump\t// out\n        /* \"src/Traits.sol\":9277:9327  if (traits.maleScarf == E_Male_Scarf.None) return; */\n    tag_471:\n        /* \"src/Traits.sol\":9336:9418  _addTraitToRender(traits, E_TraitsGroup.Male_Scarf_Group, uint8(traits.maleScarf)) */\n      tag_400\n        /* \"src/Traits.sol\":9354:9360  traits */\n      dup2\n        /* \"src/Traits.sol\":9362:9392  E_TraitsGroup.Male_Scarf_Group */\n      0x09\n        /* \"src/Traits.sol\":9400:9406  traits */\n      dup4\n        /* \"src/Traits.sol\":9400:9416  traits.maleScarf */\n      0x01a0\n      add\n      mload\n        /* \"src/Traits.sol\":9394:9417  uint8(traits.maleScarf) */\n      0x03\n      dup2\n      gt\n      iszero\n      tag_397\n      jumpi\n      tag_397\n      tag_44\n      jump\t// in\n        /* \"src/libraries/TraitsUtils.sol\":7884:8034  function maleHasHeadwear(TraitsContext memory traits) internal pure returns (bool) {... */\n    tag_218:\n        /* \"src/libraries/TraitsUtils.sol\":7961:7965  bool */\n      0x00\n      dup1\n        /* \"src/libraries/TraitsUtils.sol\":7984:7990  traits */\n      dup3\n        /* \"src/libraries/TraitsUtils.sol\":7984:8003  traits.maleHeadwear */\n      0x0240\n      add\n      mload\n        /* \"src/libraries/TraitsUtils.sol\":7984:8027  traits.maleHeadwear != E_Male_Headwear.None */\n      0xa8\n      dup2\n      gt\n      iszero\n      tag_447\n      jumpi\n      tag_447\n      tag_44\n      jump\t// in\n        /* \"src/Traits.sol\":10378:10614  function _addMaleHatHair(TraitsContext memory traits) internal pure {... */\n    tag_221:\n        /* \"src/Traits.sol\":10482:10502  E_Male_Hat_Hair.None */\n      0x00\n        /* \"src/Traits.sol\":10460:10466  traits */\n      dup2\n        /* \"src/Traits.sol\":10460:10478  traits.maleHatHair */\n      0x0220\n      add\n      mload\n        /* \"src/Traits.sol\":10460:10502  traits.maleHatHair == E_Male_Hat_Hair.None */\n      0x69\n      dup2\n      gt\n      iszero\n      tag_484\n      jumpi\n      tag_484\n      tag_44\n      jump\t// in\n    tag_484:\n      sub\n        /* \"src/Traits.sol\":10456:10511  if (traits.maleHatHair == E_Male_Hat_Hair.None) return; */\n      tag_485\n      jumpi\n        /* \"src/Traits.sol\":10378:10614  function _addMaleHatHair(TraitsContext memory traits) internal pure {... */\n      pop\n      jump\t// out\n        /* \"src/Traits.sol\":10456:10511  if (traits.maleHatHair == E_Male_Hat_Hair.None) return; */\n    tag_485:\n        /* \"src/Traits.sol\":10520:10607  _addTraitToRender(traits, E_TraitsGroup.Male_Hat_Hair_Group, uint8(traits.maleHatHair)) */\n      tag_400\n        /* \"src/Traits.sol\":10538:10544  traits */\n      dup2\n        /* \"src/Traits.sol\":10546:10579  E_TraitsGroup.Male_Hat_Hair_Group */\n      0x0b\n        /* \"src/Traits.sol\":10587:10593  traits */\n      dup4\n        /* \"src/Traits.sol\":10587:10605  traits.maleHatHair */\n      0x0220\n      add\n      mload\n        /* \"src/Traits.sol\":10581:10606  uint8(traits.maleHatHair) */\n      0x69\n      dup2\n      gt\n      iszero\n      tag_397\n      jumpi\n      tag_397\n      tag_44\n      jump\t// in\n        /* \"src/Traits.sol\":10153:10372  function _addMaleHair(TraitsContext memory traits) internal pure {... */\n    tag_224:\n        /* \"src/Traits.sol\":10251:10267  E_Male_Hair.None */\n      0x00\n        /* \"src/Traits.sol\":10232:10238  traits */\n      dup2\n        /* \"src/Traits.sol\":10232:10247  traits.maleHair */\n      0x0200\n      add\n      mload\n        /* \"src/Traits.sol\":10232:10267  traits.maleHair == E_Male_Hair.None */\n      0xd3\n      dup2\n      gt\n      iszero\n      tag_493\n      jumpi\n      tag_493\n      tag_44\n      jump\t// in\n    tag_493:\n      sub\n        /* \"src/Traits.sol\":10228:10276  if (traits.maleHair == E_Male_Hair.None) return; */\n      tag_494\n      jumpi\n        /* \"src/Traits.sol\":10153:10372  function _addMaleHair(TraitsContext memory traits) internal pure {... */\n      pop\n      jump\t// out\n        /* \"src/Traits.sol\":10228:10276  if (traits.maleHair == E_Male_Hair.None) return; */\n    tag_494:\n        /* \"src/Traits.sol\":10285:10365  _addTraitToRender(traits, E_TraitsGroup.Male_Hair_Group, uint8(traits.maleHair)) */\n      tag_400\n        /* \"src/Traits.sol\":10303:10309  traits */\n      dup2\n        /* \"src/Traits.sol\":10311:10340  E_TraitsGroup.Male_Hair_Group */\n      0x0a\n        /* \"src/Traits.sol\":10348:10354  traits */\n      dup4\n        /* \"src/Traits.sol\":10348:10363  traits.maleHair */\n      0x0200\n      add\n      mload\n        /* \"src/Traits.sol\":10342:10364  uint8(traits.maleHair) */\n      0xd3\n      dup2\n      gt\n      iszero\n      tag_397\n      jumpi\n      tag_397\n      tag_44\n      jump\t// in\n        /* \"src/Traits.sol\":10620:11321  function _addMaleHeadwear(TraitsContext memory traits) internal pure {... */\n    tag_226:\n        /* \"src/Traits.sol\":10726:10746  E_Male_Headwear.None */\n      0x00\n        /* \"src/Traits.sol\":10703:10709  traits */\n      dup2\n        /* \"src/Traits.sol\":10703:10722  traits.maleHeadwear */\n      0x0240\n      add\n      mload\n        /* \"src/Traits.sol\":10703:10746  traits.maleHeadwear == E_Male_Headwear.None */\n      0xa8\n      dup2\n      gt\n      iszero\n      tag_502\n      jumpi\n      tag_502\n      tag_44\n      jump\t// in\n    tag_502:\n      sub\n        /* \"src/Traits.sol\":10699:10755  if (traits.maleHeadwear == E_Male_Headwear.None) return; */\n      tag_503\n      jumpi\n        /* \"src/Traits.sol\":10620:11321  function _addMaleHeadwear(TraitsContext memory traits) internal pure {... */\n      pop\n      jump\t// out\n        /* \"src/Traits.sol\":10699:10755  if (traits.maleHeadwear == E_Male_Headwear.None) return; */\n    tag_503:\n        /* \"src/Traits.sol\":10765:10853  _addTraitToRender(traits, E_TraitsGroup.Male_Headwear_Group, uint8(traits.maleHeadwear)) */\n      tag_504\n        /* \"src/Traits.sol\":10783:10789  traits */\n      dup2\n        /* \"src/Traits.sol\":10791:10824  E_TraitsGroup.Male_Headwear_Group */\n      0x0c\n        /* \"src/Traits.sol\":10832:10838  traits */\n      dup4\n        /* \"src/Traits.sol\":10832:10851  traits.maleHeadwear */\n      0x0240\n      add\n      mload\n        /* \"src/Traits.sol\":10826:10852  uint8(traits.maleHeadwear) */\n      0xa8\n      dup2\n      gt\n      iszero\n      tag_397\n      jumpi\n      tag_397\n      tag_44\n      jump\t// in\n        /* \"src/Traits.sol\":10765:10853  _addTraitToRender(traits, E_TraitsGroup.Male_Headwear_Group, uint8(traits.maleHeadwear)) */\n    tag_504:\n        /* \"src/Traits.sol\":10974:10991  E_Male_Skin.Robot */\n      0x16\n        /* \"src/Traits.sol\":10955:10961  traits */\n      dup2\n        /* \"src/Traits.sol\":10955:10970  traits.maleSkin */\n      0x0100\n      add\n      mload\n        /* \"src/Traits.sol\":10955:10991  traits.maleSkin == E_Male_Skin.Robot */\n      0x1c\n      dup2\n      gt\n      iszero\n      tag_510\n      jumpi\n      tag_510\n      tag_44\n      jump\t// in\n    tag_510:\n      sub\n        /* \"src/Traits.sol\":10951:11126  if (traits.maleSkin == E_Male_Skin.Robot) {... */\n      tag_512\n      jumpi\n        /* \"src/Traits.sol\":11007:11115  _addFillerTrait(traits, E_TraitsGroup.Filler_Traits_Group, uint8(E_Filler_Traits.Male_Robot_Headwear_Cover)) */\n      tag_512\n        /* \"src/Traits.sol\":11023:11029  traits */\n      dup2\n        /* \"src/Traits.sol\":11031:11064  E_TraitsGroup.Filler_Traits_Group */\n      0x1a\n        /* \"src/Traits.sol\":11072:11113  E_Filler_Traits.Male_Robot_Headwear_Cover */\n      0x03\n        /* \"src/Traits.sol\":11007:11022  _addFillerTrait */\n      tag_515\n        /* \"src/Traits.sol\":11007:11115  _addFillerTrait(traits, E_TraitsGroup.Filler_Traits_Group, uint8(E_Filler_Traits.Male_Robot_Headwear_Cover)) */\n      jump\t// in\n    tag_512:\n        /* \"src/Traits.sol\":11159:11178  E_Male_Skin.Pumpkin */\n      0x15\n        /* \"src/Traits.sol\":11140:11146  traits */\n      dup2\n        /* \"src/Traits.sol\":11140:11155  traits.maleSkin */\n      0x0100\n      add\n      mload\n        /* \"src/Traits.sol\":11140:11178  traits.maleSkin == E_Male_Skin.Pumpkin */\n      0x1c\n      dup2\n      gt\n      iszero\n      tag_519\n      jumpi\n      tag_519\n      tag_44\n      jump\t// in\n    tag_519:\n      sub\n        /* \"src/Traits.sol\":11136:11315  if (traits.maleSkin == E_Male_Skin.Pumpkin) {... */\n      tag_400\n      jumpi\n        /* \"src/Traits.sol\":11194:11304  _addFillerTrait(traits, E_TraitsGroup.Filler_Traits_Group, uint8(E_Filler_Traits.Male_Pumpkin_Headwear_Cover)) */\n      tag_400\n        /* \"src/Traits.sol\":11210:11216  traits */\n      dup2\n        /* \"src/Traits.sol\":11218:11251  E_TraitsGroup.Filler_Traits_Group */\n      0x1a\n        /* \"src/Traits.sol\":11259:11302  E_Filler_Traits.Male_Pumpkin_Headwear_Cover */\n      0x02\n        /* \"src/Traits.sol\":11007:11022  _addFillerTrait */\n      tag_515\n        /* \"src/Traits.sol\":11007:11115  _addFillerTrait(traits, E_TraitsGroup.Filler_Traits_Group, uint8(E_Filler_Traits.Male_Robot_Headwear_Cover)) */\n      jump\t// in\n        /* \"src/Traits.sol\":11327:11563  function _addMaleEyeWear(TraitsContext memory traits) internal pure {... */\n    tag_228:\n        /* \"src/Traits.sol\":11431:11451  E_Male_Eye_Wear.None */\n      0x00\n        /* \"src/Traits.sol\":11409:11415  traits */\n      dup2\n        /* \"src/Traits.sol\":11409:11427  traits.maleEyeWear */\n      0x0260\n      add\n      mload\n        /* \"src/Traits.sol\":11409:11451  traits.maleEyeWear == E_Male_Eye_Wear.None */\n      0x7f\n      dup2\n      gt\n      iszero\n      tag_528\n      jumpi\n      tag_528\n      tag_44\n      jump\t// in\n    tag_528:\n      sub\n        /* \"src/Traits.sol\":11405:11460  if (traits.maleEyeWear == E_Male_Eye_Wear.None) return; */\n      tag_529\n      jumpi\n        /* \"src/Traits.sol\":11327:11563  function _addMaleEyeWear(TraitsContext memory traits) internal pure {... */\n      pop\n      jump\t// out\n        /* \"src/Traits.sol\":11405:11460  if (traits.maleEyeWear == E_Male_Eye_Wear.None) return; */\n    tag_529:\n        /* \"src/Traits.sol\":11469:11556  _addTraitToRender(traits, E_TraitsGroup.Male_Eye_Wear_Group, uint8(traits.maleEyeWear)) */\n      tag_400\n        /* \"src/Traits.sol\":11487:11493  traits */\n      dup2\n        /* \"src/Traits.sol\":11495:11528  E_TraitsGroup.Male_Eye_Wear_Group */\n      0x0d\n        /* \"src/Traits.sol\":11536:11542  traits */\n      dup4\n        /* \"src/Traits.sol\":11536:11554  traits.maleEyeWear */\n      0x0260\n      add\n      mload\n        /* \"src/Traits.sol\":11530:11555  uint8(traits.maleEyeWear) */\n      0x7f\n      dup2\n      gt\n      iszero\n      tag_397\n      jumpi\n      tag_397\n      tag_44\n      jump\t// in\n        /* \"src/Traits.sol\":11599:11767  function _addFemaleSkin(TraitsContext memory traits) internal pure {... */\n    tag_330:\n        /* \"src/Traits.sol\":11676:11760  _addTraitToRender(traits, E_TraitsGroup.Female_Skin_Group, uint8(traits.femaleSkin)) */\n      tag_400\n        /* \"src/Traits.sol\":11694:11700  traits */\n      dup2\n        /* \"src/Traits.sol\":11702:11733  E_TraitsGroup.Female_Skin_Group */\n      0x0e\n        /* \"src/Traits.sol\":11741:11747  traits */\n      dup4\n        /* \"src/Traits.sol\":11741:11758  traits.femaleSkin */\n      0x0280\n      add\n      mload\n        /* \"src/Traits.sol\":11735:11759  uint8(traits.femaleSkin) */\n      0x19\n      dup2\n      gt\n      iszero\n      tag_397\n      jumpi\n      tag_397\n      tag_44\n      jump\t// in\n        /* \"src/Traits.sol\":11773:12002  function _addFemaleEyes(TraitsContext memory traits) internal pure {... */\n    tag_332:\n        /* \"src/Traits.sol\":11875:11893  E_Female_Eyes.None */\n      0x00\n        /* \"src/Traits.sol\":11854:11860  traits */\n      dup2\n        /* \"src/Traits.sol\":11854:11871  traits.femaleEyes */\n      0x02a0\n      add\n      mload\n        /* \"src/Traits.sol\":11854:11893  traits.femaleEyes == E_Female_Eyes.None */\n      0x1e\n      dup2\n      gt\n      iszero\n      tag_541\n      jumpi\n      tag_541\n      tag_44\n      jump\t// in\n    tag_541:\n      sub\n        /* \"src/Traits.sol\":11850:11902  if (traits.femaleEyes == E_Female_Eyes.None) return; */\n      tag_542\n      jumpi\n        /* \"src/Traits.sol\":11773:12002  function _addFemaleEyes(TraitsContext memory traits) internal pure {... */\n      pop\n      jump\t// out\n        /* \"src/Traits.sol\":11850:11902  if (traits.femaleEyes == E_Female_Eyes.None) return; */\n    tag_542:\n        /* \"src/Traits.sol\":11911:11995  _addTraitToRender(traits, E_TraitsGroup.Female_Eyes_Group, uint8(traits.femaleEyes)) */\n      tag_400\n        /* \"src/Traits.sol\":11929:11935  traits */\n      dup2\n        /* \"src/Traits.sol\":11937:11968  E_TraitsGroup.Female_Eyes_Group */\n      0x0f\n        /* \"src/Traits.sol\":11976:11982  traits */\n      dup4\n        /* \"src/Traits.sol\":11976:11993  traits.femaleEyes */\n      0x02a0\n      add\n      mload\n        /* \"src/Traits.sol\":11970:11994  uint8(traits.femaleEyes) */\n      0x1e\n      dup2\n      gt\n      iszero\n      tag_397\n      jumpi\n      tag_397\n      tag_44\n      jump\t// in\n        /* \"src/Traits.sol\":12008:12237  function _addFemaleFace(TraitsContext memory traits) internal pure {... */\n    tag_334:\n        /* \"src/Traits.sol\":12110:12128  E_Female_Face.None */\n      0x00\n        /* \"src/Traits.sol\":12089:12095  traits */\n      dup2\n        /* \"src/Traits.sol\":12089:12106  traits.femaleFace */\n      0x02c0\n      add\n      mload\n        /* \"src/Traits.sol\":12089:12128  traits.femaleFace == E_Female_Face.None */\n      0x12\n      dup2\n      gt\n      iszero\n      tag_550\n      jumpi\n      tag_550\n      tag_44\n      jump\t// in\n    tag_550:\n      sub\n        /* \"src/Traits.sol\":12085:12137  if (traits.femaleFace == E_Female_Face.None) return; */\n      tag_551\n      jumpi\n        /* \"src/Traits.sol\":12008:12237  function _addFemaleFace(TraitsContext memory traits) internal pure {... */\n      pop\n      jump\t// out\n        /* \"src/Traits.sol\":12085:12137  if (traits.femaleFace == E_Female_Face.None) return; */\n    tag_551:\n        /* \"src/Traits.sol\":12146:12230  _addTraitToRender(traits, E_TraitsGroup.Female_Face_Group, uint8(traits.femaleFace)) */\n      tag_400\n        /* \"src/Traits.sol\":12164:12170  traits */\n      dup2\n        /* \"src/Traits.sol\":12172:12203  E_TraitsGroup.Female_Face_Group */\n      0x10\n        /* \"src/Traits.sol\":12211:12217  traits */\n      dup4\n        /* \"src/Traits.sol\":12211:12228  traits.femaleFace */\n      0x02c0\n      add\n      mload\n        /* \"src/Traits.sol\":12205:12229  uint8(traits.femaleFace) */\n      0x12\n      dup2\n      gt\n      iszero\n      tag_397\n      jumpi\n      tag_397\n      tag_44\n      jump\t// in\n        /* \"src/Traits.sol\":12243:12477  function _addFemaleChain(TraitsContext memory traits) internal pure {... */\n    tag_336:\n        /* \"src/Traits.sol\":12347:12366  E_Female_Chain.None */\n      0x00\n        /* \"src/Traits.sol\":12325:12331  traits */\n      dup2\n        /* \"src/Traits.sol\":12325:12343  traits.femaleChain */\n      0x02e0\n      add\n      mload\n        /* \"src/Traits.sol\":12325:12366  traits.femaleChain == E_Female_Chain.None */\n      0x08\n      dup2\n      gt\n      iszero\n      tag_559\n      jumpi\n      tag_559\n      tag_44\n      jump\t// in\n    tag_559:\n      sub\n        /* \"src/Traits.sol\":12321:12375  if (traits.femaleChain == E_Female_Chain.None) return; */\n      tag_560\n      jumpi\n        /* \"src/Traits.sol\":12243:12477  function _addFemaleChain(TraitsContext memory traits) internal pure {... */\n      pop\n      jump\t// out\n        /* \"src/Traits.sol\":12321:12375  if (traits.femaleChain == E_Female_Chain.None) return; */\n    tag_560:\n        /* \"src/Traits.sol\":12384:12470  _addTraitToRender(traits, E_TraitsGroup.Female_Chain_Group, uint8(traits.femaleChain)) */\n      tag_400\n        /* \"src/Traits.sol\":12402:12408  traits */\n      dup2\n        /* \"src/Traits.sol\":12410:12442  E_TraitsGroup.Female_Chain_Group */\n      0x11\n        /* \"src/Traits.sol\":12450:12456  traits */\n      dup4\n        /* \"src/Traits.sol\":12450:12468  traits.femaleChain */\n      0x02e0\n      add\n      mload\n        /* \"src/Traits.sol\":12444:12469  uint8(traits.femaleChain) */\n      0x08\n      dup2\n      gt\n      iszero\n      tag_397\n      jumpi\n      tag_397\n      tag_44\n      jump\t// in\n        /* \"src/Traits.sol\":12723:12967  function _addFemaleEarring(TraitsContext memory traits) internal pure {... */\n    tag_338:\n        /* \"src/Traits.sol\":12831:12852  E_Female_Earring.None */\n      0x00\n        /* \"src/Traits.sol\":12807:12813  traits */\n      dup2\n        /* \"src/Traits.sol\":12807:12827  traits.femaleEarring */\n      0x0300\n      add\n      mload\n        /* \"src/Traits.sol\":12807:12852  traits.femaleEarring == E_Female_Earring.None */\n      0x08\n      dup2\n      gt\n      iszero\n      tag_568\n      jumpi\n      tag_568\n      tag_44\n      jump\t// in\n    tag_568:\n      sub\n        /* \"src/Traits.sol\":12803:12861  if (traits.femaleEarring == E_Female_Earring.None) return; */\n      tag_569\n      jumpi\n        /* \"src/Traits.sol\":12723:12967  function _addFemaleEarring(TraitsContext memory traits) internal pure {... */\n      pop\n      jump\t// out\n        /* \"src/Traits.sol\":12803:12861  if (traits.femaleEarring == E_Female_Earring.None) return; */\n    tag_569:\n        /* \"src/Traits.sol\":12870:12960  _addTraitToRender(traits, E_TraitsGroup.Female_Earring_Group, uint8(traits.femaleEarring)) */\n      tag_400\n        /* \"src/Traits.sol\":12888:12894  traits */\n      dup2\n        /* \"src/Traits.sol\":12896:12930  E_TraitsGroup.Female_Earring_Group */\n      0x12\n        /* \"src/Traits.sol\":12938:12944  traits */\n      dup4\n        /* \"src/Traits.sol\":12938:12958  traits.femaleEarring */\n      0x0300\n      add\n      mload\n        /* \"src/Traits.sol\":12932:12959  uint8(traits.femaleEarring) */\n      0x08\n      dup2\n      gt\n      iszero\n      tag_397\n      jumpi\n      tag_397\n      tag_44\n      jump\t// in\n        /* \"src/Traits.sol\":12973:13202  function _addFemaleMask(TraitsContext memory traits) internal pure {... */\n    tag_340:\n        /* \"src/Traits.sol\":13075:13093  E_Female_Mask.None */\n      0x00\n        /* \"src/Traits.sol\":13054:13060  traits */\n      dup2\n        /* \"src/Traits.sol\":13054:13071  traits.femaleMask */\n      0x0340\n      add\n      mload\n        /* \"src/Traits.sol\":13054:13093  traits.femaleMask == E_Female_Mask.None */\n      0x14\n      dup2\n      gt\n      iszero\n      tag_577\n      jumpi\n      tag_577\n      tag_44\n      jump\t// in\n    tag_577:\n      sub\n        /* \"src/Traits.sol\":13050:13102  if (traits.femaleMask == E_Female_Mask.None) return; */\n      tag_578\n      jumpi\n        /* \"src/Traits.sol\":12973:13202  function _addFemaleMask(TraitsContext memory traits) internal pure {... */\n      pop\n      jump\t// out\n        /* \"src/Traits.sol\":13050:13102  if (traits.femaleMask == E_Female_Mask.None) return; */\n    tag_578:\n        /* \"src/Traits.sol\":13111:13195  _addTraitToRender(traits, E_TraitsGroup.Female_Mask_Group, uint8(traits.femaleMask)) */\n      tag_400\n        /* \"src/Traits.sol\":13129:13135  traits */\n      dup2\n        /* \"src/Traits.sol\":13137:13168  E_TraitsGroup.Female_Mask_Group */\n      0x13\n        /* \"src/Traits.sol\":13176:13182  traits */\n      dup4\n        /* \"src/Traits.sol\":13176:13193  traits.femaleMask */\n      0x0340\n      add\n      mload\n        /* \"src/Traits.sol\":13170:13194  uint8(traits.femaleMask) */\n      0x14\n      dup2\n      gt\n      iszero\n      tag_397\n      jumpi\n      tag_397\n      tag_44\n      jump\t// in\n        /* \"src/Traits.sol\":12483:12717  function _addFemaleScarf(TraitsContext memory traits) internal pure {... */\n    tag_342:\n        /* \"src/Traits.sol\":12587:12606  E_Female_Scarf.None */\n      0x00\n        /* \"src/Traits.sol\":12565:12571  traits */\n      dup2\n        /* \"src/Traits.sol\":12565:12583  traits.femaleScarf */\n      0x0320\n      add\n      mload\n        /* \"src/Traits.sol\":12565:12606  traits.femaleScarf == E_Female_Scarf.None */\n      0x03\n      dup2\n      gt\n      iszero\n      tag_586\n      jumpi\n      tag_586\n      tag_44\n      jump\t// in\n    tag_586:\n      sub\n        /* \"src/Traits.sol\":12561:12615  if (traits.femaleScarf == E_Female_Scarf.None) return; */\n      tag_587\n      jumpi\n        /* \"src/Traits.sol\":12483:12717  function _addFemaleScarf(TraitsContext memory traits) internal pure {... */\n      pop\n      jump\t// out\n        /* \"src/Traits.sol\":12561:12615  if (traits.femaleScarf == E_Female_Scarf.None) return; */\n    tag_587:\n        /* \"src/Traits.sol\":12624:12710  _addTraitToRender(traits, E_TraitsGroup.Female_Scarf_Group, uint8(traits.femaleScarf)) */\n      tag_400\n        /* \"src/Traits.sol\":12642:12648  traits */\n      dup2\n        /* \"src/Traits.sol\":12650:12682  E_TraitsGroup.Female_Scarf_Group */\n      0x14\n        /* \"src/Traits.sol\":12690:12696  traits */\n      dup4\n        /* \"src/Traits.sol\":12690:12708  traits.femaleScarf */\n      0x0320\n      add\n      mload\n        /* \"src/Traits.sol\":12684:12709  uint8(traits.femaleScarf) */\n      0x03\n      dup2\n      gt\n      iszero\n      tag_397\n      jumpi\n      tag_397\n      tag_44\n      jump\t// in\n        /* \"src/libraries/TraitsUtils.sol\":8040:8196  function femaleHasHeadwear(TraitsContext memory traits) internal pure returns (bool) {... */\n    tag_344:\n        /* \"src/libraries/TraitsUtils.sol\":8119:8123  bool */\n      0x00\n      dup1\n        /* \"src/libraries/TraitsUtils.sol\":8142:8148  traits */\n      dup3\n        /* \"src/libraries/TraitsUtils.sol\":8142:8163  traits.femaleHeadwear */\n      0x03a0\n      add\n      mload\n        /* \"src/libraries/TraitsUtils.sol\":8142:8189  traits.femaleHeadwear != E_Female_Headwear.None */\n      0x82\n      dup2\n      gt\n      iszero\n      tag_447\n      jumpi\n      tag_447\n      tag_44\n      jump\t// in\n        /* \"src/Traits.sol\":13443:13689  function _addFemaleHatHair(TraitsContext memory traits) internal pure {... */\n    tag_347:\n        /* \"src/Traits.sol\":13551:13573  E_Female_Hat_Hair.None */\n      0x00\n        /* \"src/Traits.sol\":13527:13533  traits */\n      dup2\n        /* \"src/Traits.sol\":13527:13547  traits.femaleHatHair */\n      0x0380\n      add\n      mload\n        /* \"src/Traits.sol\":13527:13573  traits.femaleHatHair == E_Female_Hat_Hair.None */\n      0x84\n      dup2\n      gt\n      iszero\n      tag_600\n      jumpi\n      tag_600\n      tag_44\n      jump\t// in\n    tag_600:\n      sub\n        /* \"src/Traits.sol\":13523:13582  if (traits.femaleHatHair == E_Female_Hat_Hair.None) return; */\n      tag_601\n      jumpi\n        /* \"src/Traits.sol\":13443:13689  function _addFemaleHatHair(TraitsContext memory traits) internal pure {... */\n      pop\n      jump\t// out\n        /* \"src/Traits.sol\":13523:13582  if (traits.femaleHatHair == E_Female_Hat_Hair.None) return; */\n    tag_601:\n        /* \"src/Traits.sol\":13591:13682  _addTraitToRender(traits, E_TraitsGroup.Female_Hat_Hair_Group, uint8(traits.femaleHatHair)) */\n      tag_400\n        /* \"src/Traits.sol\":13609:13615  traits */\n      dup2\n        /* \"src/Traits.sol\":13617:13652  E_TraitsGroup.Female_Hat_Hair_Group */\n      0x16\n        /* \"src/Traits.sol\":13660:13666  traits */\n      dup4\n        /* \"src/Traits.sol\":13660:13680  traits.femaleHatHair */\n      0x0380\n      add\n      mload\n        /* \"src/Traits.sol\":13654:13681  uint8(traits.femaleHatHair) */\n      0x84\n      dup2\n      gt\n      iszero\n      tag_397\n      jumpi\n      tag_397\n      tag_44\n      jump\t// in\n        /* \"src/Traits.sol\":13208:13437  function _addFemaleHair(TraitsContext memory traits) internal pure {... */\n    tag_350:\n        /* \"src/Traits.sol\":13310:13328  E_Female_Hair.None */\n      0x00\n        /* \"src/Traits.sol\":13289:13295  traits */\n      dup2\n        /* \"src/Traits.sol\":13289:13306  traits.femaleHair */\n      0x0360\n      add\n      mload\n        /* \"src/Traits.sol\":13289:13328  traits.femaleHair == E_Female_Hair.None */\n      0xc2\n      dup2\n      gt\n      iszero\n      tag_609\n      jumpi\n      tag_609\n      tag_44\n      jump\t// in\n    tag_609:\n      sub\n        /* \"src/Traits.sol\":13285:13337  if (traits.femaleHair == E_Female_Hair.None) return; */\n      tag_610\n      jumpi\n        /* \"src/Traits.sol\":13208:13437  function _addFemaleHair(TraitsContext memory traits) internal pure {... */\n      pop\n      jump\t// out\n        /* \"src/Traits.sol\":13285:13337  if (traits.femaleHair == E_Female_Hair.None) return; */\n    tag_610:\n        /* \"src/Traits.sol\":13346:13430  _addTraitToRender(traits, E_TraitsGroup.Female_Hair_Group, uint8(traits.femaleHair)) */\n      tag_400\n        /* \"src/Traits.sol\":13364:13370  traits */\n      dup2\n        /* \"src/Traits.sol\":13372:13403  E_TraitsGroup.Female_Hair_Group */\n      0x15\n        /* \"src/Traits.sol\":13411:13417  traits */\n      dup4\n        /* \"src/Traits.sol\":13411:13428  traits.femaleHair */\n      0x0360\n      add\n      mload\n        /* \"src/Traits.sol\":13405:13429  uint8(traits.femaleHair) */\n      0xc2\n      dup2\n      gt\n      iszero\n      tag_397\n      jumpi\n      tag_397\n      tag_44\n      jump\t// in\n        /* \"src/Traits.sol\":13695:14178  function _addFemaleHeadwear(TraitsContext memory traits) internal pure {... */\n    tag_352:\n        /* \"src/Traits.sol\":13805:13827  E_Female_Headwear.None */\n      0x00\n        /* \"src/Traits.sol\":13780:13786  traits */\n      dup2\n        /* \"src/Traits.sol\":13780:13801  traits.femaleHeadwear */\n      0x03a0\n      add\n      mload\n        /* \"src/Traits.sol\":13780:13827  traits.femaleHeadwear == E_Female_Headwear.None */\n      0x82\n      dup2\n      gt\n      iszero\n      tag_618\n      jumpi\n      tag_618\n      tag_44\n      jump\t// in\n    tag_618:\n      sub\n        /* \"src/Traits.sol\":13776:13836  if (traits.femaleHeadwear == E_Female_Headwear.None) return; */\n      tag_619\n      jumpi\n        /* \"src/Traits.sol\":13695:14178  function _addFemaleHeadwear(TraitsContext memory traits) internal pure {... */\n      pop\n      jump\t// out\n        /* \"src/Traits.sol\":13776:13836  if (traits.femaleHeadwear == E_Female_Headwear.None) return; */\n    tag_619:\n        /* \"src/Traits.sol\":13845:13937  _addTraitToRender(traits, E_TraitsGroup.Female_Headwear_Group, uint8(traits.femaleHeadwear)) */\n      tag_620\n        /* \"src/Traits.sol\":13863:13869  traits */\n      dup2\n        /* \"src/Traits.sol\":13871:13906  E_TraitsGroup.Female_Headwear_Group */\n      0x17\n        /* \"src/Traits.sol\":13914:13920  traits */\n      dup4\n        /* \"src/Traits.sol\":13914:13935  traits.femaleHeadwear */\n      0x03a0\n      add\n      mload\n        /* \"src/Traits.sol\":13908:13936  uint8(traits.femaleHeadwear) */\n      0x82\n      dup2\n      gt\n      iszero\n      tag_397\n      jumpi\n      tag_397\n      tag_44\n      jump\t// in\n        /* \"src/Traits.sol\":13845:13937  _addTraitToRender(traits, E_TraitsGroup.Female_Headwear_Group, uint8(traits.femaleHeadwear)) */\n    tag_620:\n        /* \"src/Traits.sol\":14016:14035  E_Female_Skin.Robot */\n      0x15\n        /* \"src/Traits.sol\":13995:14001  traits */\n      dup2\n        /* \"src/Traits.sol\":13995:14012  traits.femaleSkin */\n      0x0280\n      add\n      mload\n        /* \"src/Traits.sol\":13995:14035  traits.femaleSkin == E_Female_Skin.Robot */\n      0x19\n      dup2\n      gt\n      iszero\n      tag_626\n      jumpi\n      tag_626\n      tag_44\n      jump\t// in\n    tag_626:\n      sub\n        /* \"src/Traits.sol\":13991:14172  if (traits.femaleSkin == E_Female_Skin.Robot) {... */\n      tag_400\n      jumpi\n        /* \"src/Traits.sol\":14051:14161  _addFillerTrait(traits, E_TraitsGroup.Filler_Traits_Group, uint8(E_Filler_Traits.Female_Robot_Headwear_Cover)) */\n      tag_400\n        /* \"src/Traits.sol\":14067:14073  traits */\n      dup2\n        /* \"src/Traits.sol\":14075:14108  E_TraitsGroup.Filler_Traits_Group */\n      0x1a\n        /* \"src/Traits.sol\":14116:14159  E_Filler_Traits.Female_Robot_Headwear_Cover */\n      0x01\n        /* \"src/Traits.sol\":11007:11022  _addFillerTrait */\n      tag_515\n        /* \"src/Traits.sol\":11007:11115  _addFillerTrait(traits, E_TraitsGroup.Filler_Traits_Group, uint8(E_Filler_Traits.Male_Robot_Headwear_Cover)) */\n      jump\t// in\n        /* \"src/Traits.sol\":14184:14430  function _addFemaleEyeWear(TraitsContext memory traits) internal pure {... */\n    tag_354:\n        /* \"src/Traits.sol\":14292:14314  E_Female_Eye_Wear.None */\n      0x00\n        /* \"src/Traits.sol\":14268:14274  traits */\n      dup2\n        /* \"src/Traits.sol\":14268:14288  traits.femaleEyeWear */\n      0x03c0\n      add\n      mload\n        /* \"src/Traits.sol\":14268:14314  traits.femaleEyeWear == E_Female_Eye_Wear.None */\n      0x79\n      dup2\n      gt\n      iszero\n      tag_635\n      jumpi\n      tag_635\n      tag_44\n      jump\t// in\n    tag_635:\n      sub\n        /* \"src/Traits.sol\":14264:14323  if (traits.femaleEyeWear == E_Female_Eye_Wear.None) return; */\n      tag_636\n      jumpi\n        /* \"src/Traits.sol\":14184:14430  function _addFemaleEyeWear(TraitsContext memory traits) internal pure {... */\n      pop\n      jump\t// out\n        /* \"src/Traits.sol\":14264:14323  if (traits.femaleEyeWear == E_Female_Eye_Wear.None) return; */\n    tag_636:\n        /* \"src/Traits.sol\":14332:14423  _addTraitToRender(traits, E_TraitsGroup.Female_Eye_Wear_Group, uint8(traits.femaleEyeWear)) */\n      tag_400\n        /* \"src/Traits.sol\":14350:14356  traits */\n      dup2\n        /* \"src/Traits.sol\":14358:14393  E_TraitsGroup.Female_Eye_Wear_Group */\n      0x18\n        /* \"src/Traits.sol\":14401:14407  traits */\n      dup4\n        /* \"src/Traits.sol\":14401:14421  traits.femaleEyeWear */\n      0x03c0\n      add\n      mload\n        /* \"src/Traits.sol\":14395:14422  uint8(traits.femaleEyeWear) */\n      0x79\n      dup2\n      gt\n      iszero\n      tag_397\n      jumpi\n      tag_397\n      tag_44\n      jump\t// in\n        /* \"src/libraries/TraitsUtils.sol\":8346:8490  function femaleHasMask(TraitsContext memory traits) internal pure returns (bool) {... */\n    tag_365:\n        /* \"src/libraries/TraitsUtils.sol\":8421:8425  bool */\n      0x00\n      dup1\n        /* \"src/libraries/TraitsUtils.sol\":8444:8450  traits */\n      dup3\n        /* \"src/libraries/TraitsUtils.sol\":8444:8461  traits.femaleMask */\n      0x0340\n      add\n      mload\n        /* \"src/libraries/TraitsUtils.sol\":8444:8483  traits.femaleMask != E_Female_Mask.None */\n      0x14\n      dup2\n      gt\n      iszero\n      tag_447\n      jumpi\n      tag_447\n      tag_44\n      jump\t// in\n        /* \"src/libraries/TraitsUtils.sol\":8202:8340  function maleHasMask(TraitsContext memory traits) internal pure returns (bool) {... */\n    tag_368:\n        /* \"src/libraries/TraitsUtils.sol\":8275:8279  bool */\n      0x00\n      dup1\n        /* \"src/libraries/TraitsUtils.sol\":8298:8304  traits */\n      dup3\n        /* \"src/libraries/TraitsUtils.sol\":8298:8313  traits.maleMask */\n      0x01e0\n      add\n      mload\n        /* \"src/libraries/TraitsUtils.sol\":8298:8333  traits.maleMask != E_Male_Mask.None */\n      0x15\n      dup2\n      gt\n      iszero\n      tag_447\n      jumpi\n      tag_447\n      tag_44\n      jump\t// in\n        /* \"src/Traits.sol\":14466:14668  function _addMouth(TraitsContext memory traits) internal pure {... */\n    tag_371:\n        /* \"src/Traits.sol\":14558:14570  E_Mouth.None */\n      0x00\n        /* \"src/Traits.sol\":14542:14548  traits */\n      dup2\n        /* \"src/Traits.sol\":14542:14554  traits.mouth */\n      0x03e0\n      add\n      mload\n        /* \"src/Traits.sol\":14542:14570  traits.mouth == E_Mouth.None */\n      0x16\n      dup2\n      gt\n      iszero\n      tag_654\n      jumpi\n      tag_654\n      tag_44\n      jump\t// in\n    tag_654:\n      sub\n        /* \"src/Traits.sol\":14538:14579  if (traits.mouth == E_Mouth.None) return; */\n      tag_655\n      jumpi\n        /* \"src/Traits.sol\":14466:14668  function _addMouth(TraitsContext memory traits) internal pure {... */\n      pop\n      jump\t// out\n        /* \"src/Traits.sol\":14538:14579  if (traits.mouth == E_Mouth.None) return; */\n    tag_655:\n        /* \"src/Traits.sol\":14588:14661  _addTraitToRender(traits, E_TraitsGroup.Mouth_Group, uint8(traits.mouth)) */\n      tag_400\n        /* \"src/Traits.sol\":14606:14612  traits */\n      dup2\n        /* \"src/Traits.sol\":14614:14639  E_TraitsGroup.Mouth_Group */\n      0x19\n        /* \"src/Traits.sol\":14647:14653  traits */\n      dup4\n        /* \"src/Traits.sol\":14647:14659  traits.mouth */\n      0x03e0\n      add\n      mload\n        /* \"src/Traits.sol\":14641:14660  uint8(traits.mouth) */\n      0x16\n      dup2\n      gt\n      iszero\n      tag_397\n      jumpi\n      tag_397\n      tag_44\n      jump\t// in\n        /* \"src/libraries/Random.sol\":1078:1323  function rand(RandomCtx memory ctx) internal pure returns (uint256) {... */\n    tag_386:\n        /* \"src/libraries/Random.sol\":1180:1191  ctx.counter */\n      0x20\n      dup1\n      dup3\n      add\n        /* \"src/libraries/Random.sol\":1180:1193  ctx.counter++ */\n      dup1\n      mload\n      0x01\n      add\n      swap1\n      dup2\n      swap1\n      mstore\n        /* \"src/libraries/Random.sol\":1253:1261  ctx.seed */\n      dup3\n      mload\n        /* \"src/libraries/Random.sol\":1236:1275  abi.encodePacked(ctx.seed, ctx.counter) */\n      mload(0x40)\n        /* \"src/libraries/Random.sol\":1137:1144  uint256 */\n      0x00\n      swap4\n        /* \"src/libraries/Random.sol\":1236:1275  abi.encodePacked(ctx.seed, ctx.counter) */\n      tag_660\n      swap4\n        /* \"src/libraries/Random.sol\":1180:1193  ctx.counter++ */\n      swap2\n        /* \"src/libraries/Random.sol\":1236:1275  abi.encodePacked(ctx.seed, ctx.counter) */\n      add\n        /* \"#utility.yul\":19096:19115   */\n      swap2\n      dup3\n      mstore\n        /* \"#utility.yul\":19140:19142   */\n      0x20\n        /* \"#utility.yul\":19131:19143   */\n      dup3\n      add\n        /* \"#utility.yul\":19124:19152   */\n      mstore\n        /* \"#utility.yul\":19177:19179   */\n      0x40\n        /* \"#utility.yul\":19168:19180   */\n      add\n      swap1\n        /* \"#utility.yul\":18939:19186   */\n      jump\n        /* \"src/libraries/Random.sol\":1236:1275  abi.encodePacked(ctx.seed, ctx.counter) */\n    tag_660:\n      0x40\n      dup1\n      mload\n      not(0x1f)\n      dup2\n      dup5\n      sub\n      add\n      dup2\n      mstore\n      swap2\n      swap1\n      mstore\n        /* \"src/libraries/Random.sol\":1226:1276  keccak256(abi.encodePacked(ctx.seed, ctx.counter)) */\n      dup1\n      mload\n        /* \"src/libraries/Random.sol\":1236:1275  abi.encodePacked(ctx.seed, ctx.counter) */\n      0x20\n        /* \"src/libraries/Random.sol\":1226:1276  keccak256(abi.encodePacked(ctx.seed, ctx.counter)) */\n      swap1\n      swap2\n      add\n      keccak256\n        /* \"src/libraries/Random.sol\":1207:1277  ctx.seed = uint256(keccak256(abi.encodePacked(ctx.seed, ctx.counter))) */\n      swap2\n      dup3\n      swap1\n      mstore\n      pop\n        /* \"src/libraries/Random.sol\":1226:1276  keccak256(abi.encodePacked(ctx.seed, ctx.counter)) */\n      swap1\n        /* \"src/libraries/Random.sol\":1078:1323  function rand(RandomCtx memory ctx) internal pure returns (uint256) {... */\n      jump\t// out\n        /* \"src/Traits.sol\":15239:15727  function _addTraitToRender(... */\n    tag_398:\n        /* \"src/Traits.sol\":15393:15427  TraitToRender memory traitToRender */\n      tag_663\n      0x40\n      dup1\n      mload\n      0x80\n      dup2\n      add\n      swap1\n      swap2\n      mstore\n      dup1\n      0x00\n      dup2\n      mstore\n      0x00\n      0x20\n      dup3\n      add\n      dup2\n      swap1\n      mstore\n      0x40\n      dup3\n      add\n      mstore\n      0x60\n      add\n      tag_733\n      0x40\n      dup1\n      mload\n      dup1\n      dup3\n      add\n      swap1\n      swap2\n      mstore\n      0x00\n      dup1\n      dup3\n      mstore\n      0x20\n      dup3\n      add\n      mstore\n      swap1\n      jump\n    tag_663:\n        /* \"src/Traits.sol\":15437:15450  traitToRender */\n      dup1\n        /* \"src/Traits.sol\":15464:15475  _traitGroup */\n      dup4\n        /* \"src/Traits.sol\":15437:15475  traitToRender.traitGroup = _traitGroup */\n      0x1a\n      dup2\n      gt\n      iszero\n      tag_665\n      jumpi\n      tag_665\n      tag_44\n      jump\t// in\n    tag_665:\n      swap1\n      dup2\n      0x1a\n      dup2\n      gt\n      iszero\n      tag_667\n      jumpi\n      tag_667\n      tag_44\n      jump\t// in\n    tag_667:\n      swap1\n      mstore\n      pop\n        /* \"src/Traits.sol\":15485:15523  traitToRender.traitIndex = _traitIndex */\n      0xff\n      dup1\n      dup4\n      and\n        /* \"src/Traits.sol\":15485:15509  traitToRender.traitIndex */\n      0x20\n      dup1\n      dup5\n      add\n        /* \"src/Traits.sol\":15485:15523  traitToRender.traitIndex = _traitIndex */\n      swap2\n      swap1\n      swap2\n      mstore\n        /* \"src/Traits.sol\":15559:15564  false */\n      0x00\n        /* \"src/Traits.sol\":15533:15556  traitToRender.hasFiller */\n      0x40\n      dup5\n      add\n        /* \"src/Traits.sol\":15533:15564  traitToRender.hasFiller = false */\n      mstore\n        /* \"src/Traits.sol\":15607:15626  _ctx.traitsToRender */\n      dup6\n      mload\n        /* \"src/Traits.sol\":15627:15652  _ctx.traitsToRenderLength */\n      swap1\n      dup7\n      add\n      mload\n        /* \"src/Traits.sol\":15607:15653  _ctx.traitsToRender[_ctx.traitsToRenderLength] */\n      dup2\n      mload\n        /* \"src/Traits.sol\":15485:15498  traitToRender */\n      dup5\n      swap4\n        /* \"src/Traits.sol\":15607:15653  _ctx.traitsToRender[_ctx.traitsToRenderLength] */\n      swap2\n      swap1\n      swap2\n      and\n      swap1\n      dup2\n      lt\n      tag_669\n      jumpi\n      tag_669\n      tag_670\n      jump\t// in\n    tag_669:\n      0x20\n      mul\n      0x20\n      add\n      add\n        /* \"src/Traits.sol\":15607:15669  _ctx.traitsToRender[_ctx.traitsToRenderLength] = traitToRender */\n      dup2\n      swap1\n      mstore\n      pop\n        /* \"src/Traits.sol\":15683:15687  _ctx */\n      dup4\n        /* \"src/Traits.sol\":15683:15708  _ctx.traitsToRenderLength */\n      0x20\n      add\n        /* \"src/Traits.sol\":15683:15710  _ctx.traitsToRenderLength++ */\n      dup1\n      mload\n      dup1\n      swap2\n      swap1\n      0x01\n      add\n      0xff\n      and\n      0xff\n      and\n      dup2\n      mstore\n      pop\n      pop\n        /* \"src/Traits.sol\":15383:15727  {... */\n      pop\n        /* \"src/Traits.sol\":15239:15727  function _addTraitToRender(... */\n      pop\n      pop\n      pop\n      jump\t// out\n        /* \"src/Traits.sol\":15940:16420  function _addFillerTrait(... */\n    tag_515:\n      0x40\n      dup1\n      mload\n      dup1\n      dup3\n      add\n      swap1\n      swap2\n      mstore\n      0x00\n      dup1\n      dup3\n      mstore\n      0x20\n      dup3\n      add\n      mstore\n        /* \"src/Traits.sol\":16130:16136  filler */\n      dup1\n        /* \"src/Traits.sol\":16150:16161  _traitGroup */\n      dup4\n        /* \"src/Traits.sol\":16130:16161  filler.traitGroup = _traitGroup */\n      0x1a\n      dup2\n      gt\n      iszero\n      tag_675\n      jumpi\n      tag_675\n      tag_44\n      jump\t// in\n    tag_675:\n      swap1\n      dup2\n      0x1a\n      dup2\n      gt\n      iszero\n      tag_677\n      jumpi\n      tag_677\n      tag_44\n      jump\t// in\n    tag_677:\n      swap1\n      mstore\n      pop\n        /* \"src/Traits.sol\":16171:16202  filler.traitIndex = _traitIndex */\n      0xff\n      dup1\n      dup4\n      and\n        /* \"src/Traits.sol\":16171:16188  filler.traitIndex */\n      0x20\n      dup1\n      dup5\n      add\n        /* \"src/Traits.sol\":16171:16202  filler.traitIndex = _traitIndex */\n      swap2\n      swap1\n      swap2\n      mstore\n        /* \"src/Traits.sol\":16256:16284  _traits.traitsToRenderLength */\n      dup6\n      add\n      mload\n        /* \"src/Traits.sol\":16302:16324  _traits.traitsToRender */\n      dup6\n      mload\n        /* \"src/Traits.sol\":16302:16329  _traits.traitsToRender[idx] */\n      dup1\n      mload\n      not(0x00)\n        /* \"src/Traits.sol\":16256:16288  _traits.traitsToRenderLength - 1 */\n      swap1\n      swap3\n      add\n        /* \"src/Traits.sol\":16245:16288  uint idx = _traits.traitsToRenderLength - 1 */\n      swap1\n      swap3\n      and\n      swap2\n        /* \"src/Traits.sol\":16287:16288  1 */\n      0x01\n      swap2\n        /* \"src/Traits.sol\":16245:16288  uint idx = _traits.traitsToRenderLength - 1 */\n      dup4\n      swap1\n        /* \"src/Traits.sol\":16302:16329  _traits.traitsToRender[idx] */\n      dup2\n      lt\n      tag_679\n      jumpi\n      tag_679\n      tag_670\n      jump\t// in\n    tag_679:\n      0x20\n      mul\n      0x20\n      add\n      add\n      mload\n        /* \"src/Traits.sol\":16302:16339  _traits.traitsToRender[idx].hasFiller */\n      0x40\n      add\n        /* \"src/Traits.sol\":16302:16346  _traits.traitsToRender[idx].hasFiller = true */\n      swap1\n      iszero\n      iszero\n      swap1\n      dup2\n      iszero\n      iszero\n      dup2\n      mstore\n      pop\n      pop\n        /* \"src/Traits.sol\":16397:16403  filler */\n      dup2\n        /* \"src/Traits.sol\":16360:16367  _traits */\n      dup6\n        /* \"src/Traits.sol\":16360:16382  _traits.traitsToRender */\n      0x00\n      add\n      mload\n        /* \"src/Traits.sol\":16383:16386  idx */\n      dup3\n        /* \"src/Traits.sol\":16360:16387  _traits.traitsToRender[idx] */\n      dup2\n      mload\n      dup2\n      lt\n      tag_681\n      jumpi\n      tag_681\n      tag_670\n      jump\t// in\n    tag_681:\n      0x20\n      mul\n      0x20\n      add\n      add\n      mload\n        /* \"src/Traits.sol\":16360:16394  _traits.traitsToRender[idx].filler */\n      0x60\n      add\n        /* \"src/Traits.sol\":16360:16403  _traits.traitsToRender[idx].filler = filler */\n      dup2\n      swap1\n      mstore\n      pop\n        /* \"src/Traits.sol\":16221:16414  unchecked {... */\n      pop\n        /* \"src/Traits.sol\":16085:16420  {... */\n      pop\n        /* \"src/Traits.sol\":15940:16420  function _addFillerTrait(... */\n      pop\n      pop\n      pop\n      jump\t// out\n    tag_21:\n      0x40\n      dup1\n      mload\n      0x0400\n      dup2\n      add\n      dup3\n      mstore\n      0x60\n      dup1\n      dup3\n      mstore\n      0x00\n      0x20\n      dup4\n      add\n      dup2\n      swap1\n      mstore\n      swap3\n      dup3\n      add\n      dup4\n      swap1\n      mstore\n      dup2\n      add\n      dup3\n      swap1\n      mstore\n      0x80\n      dup2\n      add\n      dup3\n      swap1\n      mstore\n      0xa0\n      dup2\n      add\n      dup3\n      swap1\n      mstore\n      swap1\n      0xc0\n      dup3\n      add\n      swap1\n      dup2\n      mstore\n      0x20\n      add\n      0x00\n      dup2\n      mstore\n      0x20\n      add\n      0x00\n      dup2\n      mstore\n      0x20\n      add\n      0x00\n      dup2\n      mstore\n      0x20\n      add\n      0x00\n      dup2\n      mstore\n      0x20\n      add\n      0x00\n      dup2\n      mstore\n      0x20\n      add\n      0x00\n      dup2\n      mstore\n      0x20\n      add\n      0x00\n      dup2\n      mstore\n      0x20\n      add\n      0x00\n      dup2\n      mstore\n      0x20\n      add\n      0x00\n      dup2\n      mstore\n      0x20\n      add\n      0x00\n      dup2\n      mstore\n      0x20\n      add\n      0x00\n      dup2\n      mstore\n      0x20\n      add\n      0x00\n      dup2\n      mstore\n      0x20\n      add\n      0x00\n      dup2\n      mstore\n      0x20\n      add\n      0x00\n      dup2\n      mstore\n      0x20\n      add\n      0x00\n      dup2\n      mstore\n      0x20\n      add\n      0x00\n      dup2\n      mstore\n      0x20\n      add\n      0x00\n      dup2\n      mstore\n      0x20\n      add\n      0x00\n      dup2\n      mstore\n      0x20\n      add\n      0x00\n      dup2\n      mstore\n      0x20\n      add\n      0x00\n      dup2\n      mstore\n      0x20\n      add\n      0x00\n      dup2\n      mstore\n      0x20\n      add\n      0x00\n      dup2\n      mstore\n      0x20\n      add\n      0x00\n      dup2\n      mstore\n      0x20\n      add\n      0x00\n      dup2\n      mstore\n      0x20\n      add\n      0x00\n    tag_733:\n      swap1\n      mstore\n      swap1\n      jump\t// out\n        /* \"#utility.yul\":470:629   */\n    tag_739:\n        /* \"#utility.yul\":537:557   */\n      dup1\n      calldataload\n        /* \"#utility.yul\":597:603   */\n      0xffff\n        /* \"#utility.yul\":586:604   */\n      dup2\n      and\n        /* \"#utility.yul\":576:605   */\n      dup2\n      eq\n        /* \"#utility.yul\":566:623   */\n      tag_776\n      jumpi\n        /* \"#utility.yul\":619:620   */\n      0x00\n        /* \"#utility.yul\":616:617   */\n      0x00\n        /* \"#utility.yul\":609:621   */\n      revert\n        /* \"#utility.yul\":566:623   */\n    tag_776:\n        /* \"#utility.yul\":470:629   */\n      swap2\n      swap1\n      pop\n      jump\t// out\n        /* \"#utility.yul\":634:958   */\n    tag_16:\n        /* \"#utility.yul\":709:715   */\n      0x00\n        /* \"#utility.yul\":717:723   */\n      0x00\n        /* \"#utility.yul\":725:731   */\n      0x00\n        /* \"#utility.yul\":778:780   */\n      0x60\n        /* \"#utility.yul\":766:775   */\n      dup5\n        /* \"#utility.yul\":757:764   */\n      dup7\n        /* \"#utility.yul\":753:776   */\n      sub\n        /* \"#utility.yul\":749:781   */\n      slt\n        /* \"#utility.yul\":746:798   */\n      iszero\n      tag_778\n      jumpi\n        /* \"#utility.yul\":794:795   */\n      0x00\n        /* \"#utility.yul\":791:792   */\n      0x00\n        /* \"#utility.yul\":784:796   */\n      revert\n        /* \"#utility.yul\":746:798   */\n    tag_778:\n        /* \"#utility.yul\":817:845   */\n      tag_779\n        /* \"#utility.yul\":835:844   */\n      dup5\n        /* \"#utility.yul\":817:845   */\n      tag_739\n      jump\t// in\n    tag_779:\n        /* \"#utility.yul\":807:845   */\n      swap3\n      pop\n        /* \"#utility.yul\":864:901   */\n      tag_780\n        /* \"#utility.yul\":897:899   */\n      0x20\n        /* \"#utility.yul\":886:895   */\n      dup6\n        /* \"#utility.yul\":882:900   */\n      add\n        /* \"#utility.yul\":864:901   */\n      tag_739\n      jump\t// in\n    tag_780:\n        /* \"#utility.yul\":854:901   */\n      swap2\n      pop\n        /* \"#utility.yul\":948:950   */\n      0x40\n        /* \"#utility.yul\":937:946   */\n      dup5\n        /* \"#utility.yul\":933:951   */\n      add\n        /* \"#utility.yul\":920:952   */\n      calldataload\n        /* \"#utility.yul\":910:952   */\n      swap1\n      pop\n        /* \"#utility.yul\":634:958   */\n      swap3\n      pop\n      swap3\n      pop\n      swap3\n      jump\t// out\n        /* \"#utility.yul\":963:1090   */\n    tag_44:\n        /* \"#utility.yul\":1024:1034   */\n      0x4e487b71\n        /* \"#utility.yul\":1019:1022   */\n      0xe0\n        /* \"#utility.yul\":1015:1035   */\n      shl\n        /* \"#utility.yul\":1012:1013   */\n      0x00\n        /* \"#utility.yul\":1005:1036   */\n      mstore\n        /* \"#utility.yul\":1055:1059   */\n      0x21\n        /* \"#utility.yul\":1052:1053   */\n      0x04\n        /* \"#utility.yul\":1045:1060   */\n      mstore\n        /* \"#utility.yul\":1079:1083   */\n      0x24\n        /* \"#utility.yul\":1076:1077   */\n      0x00\n        /* \"#utility.yul\":1069:1084   */\n      revert\n        /* \"#utility.yul\":1095:1240   */\n    tag_740:\n        /* \"#utility.yul\":1180:1182   */\n      0x1b\n        /* \"#utility.yul\":1173:1178   */\n      dup2\n        /* \"#utility.yul\":1170:1183   */\n      lt\n        /* \"#utility.yul\":1160:1207   */\n      tag_784\n      jumpi\n        /* \"#utility.yul\":1187:1205   */\n      tag_784\n      tag_44\n      jump\t// in\n    tag_784:\n        /* \"#utility.yul\":1216:1234   */\n      swap1\n      mstore\n        /* \"#utility.yul\":1095:1240   */\n      jump\t// out\n        /* \"#utility.yul\":1325:2163   */\n    tag_742:\n        /* \"#utility.yul\":1391:1394   */\n      0x00\n        /* \"#utility.yul\":1429:1434   */\n      dup2\n        /* \"#utility.yul\":1423:1435   */\n      mload\n        /* \"#utility.yul\":1456:1462   */\n      dup1\n        /* \"#utility.yul\":1451:1454   */\n      dup5\n        /* \"#utility.yul\":1444:1463   */\n      mstore\n        /* \"#utility.yul\":1488:1492   */\n      0x20\n        /* \"#utility.yul\":1483:1486   */\n      dup5\n        /* \"#utility.yul\":1479:1493   */\n      add\n        /* \"#utility.yul\":1472:1493   */\n      swap4\n      pop\n        /* \"#utility.yul\":1527:1531   */\n      0x20\n        /* \"#utility.yul\":1520:1525   */\n      dup4\n        /* \"#utility.yul\":1516:1532   */\n      add\n        /* \"#utility.yul\":1550:1551   */\n      0x00\n        /* \"#utility.yul\":1560:2138   */\n    tag_787:\n        /* \"#utility.yul\":1574:1580   */\n      dup3\n        /* \"#utility.yul\":1571:1572   */\n      dup2\n        /* \"#utility.yul\":1568:1581   */\n      lt\n        /* \"#utility.yul\":1560:2138   */\n      iszero\n      tag_789\n      jumpi\n        /* \"#utility.yul\":1639:1645   */\n      dup2\n        /* \"#utility.yul\":1633:1646   */\n      mload\n        /* \"#utility.yul\":1659:1704   */\n      tag_790\n        /* \"#utility.yul\":1700:1703   */\n      dup8\n        /* \"#utility.yul\":1695:1697   */\n      dup3\n        /* \"#utility.yul\":1689:1698   */\n      mload\n        /* \"#utility.yul\":1659:1704   */\n      tag_740\n      jump\t// in\n    tag_790:\n        /* \"#utility.yul\":1766:1770   */\n      0xff\n        /* \"#utility.yul\":1758:1762   */\n      0x20\n        /* \"#utility.yul\":1754:1756   */\n      dup3\n        /* \"#utility.yul\":1750:1763   */\n      add\n        /* \"#utility.yul\":1744:1764   */\n      mload\n        /* \"#utility.yul\":1740:1771   */\n      and\n        /* \"#utility.yul\":1733:1737   */\n      0x20\n        /* \"#utility.yul\":1728:1731   */\n      dup9\n        /* \"#utility.yul\":1724:1738   */\n      add\n        /* \"#utility.yul\":1717:1772   */\n      mstore\n        /* \"#utility.yul\":1836:1840   */\n      0x40\n        /* \"#utility.yul\":1832:1834   */\n      dup2\n        /* \"#utility.yul\":1828:1841   */\n      add\n        /* \"#utility.yul\":1822:1842   */\n      mload\n        /* \"#utility.yul\":1815:1843   */\n      iszero\n        /* \"#utility.yul\":1808:1844   */\n      iszero\n        /* \"#utility.yul\":1801:1805   */\n      0x40\n        /* \"#utility.yul\":1796:1799   */\n      dup9\n        /* \"#utility.yul\":1792:1806   */\n      add\n        /* \"#utility.yul\":1785:1845   */\n      mstore\n        /* \"#utility.yul\":1892:1896   */\n      0x60\n        /* \"#utility.yul\":1888:1890   */\n      dup2\n        /* \"#utility.yul\":1884:1897   */\n      add\n        /* \"#utility.yul\":1878:1898   */\n      mload\n        /* \"#utility.yul\":1858:1898   */\n      swap1\n      pop\n        /* \"#utility.yul\":1911:1977   */\n      tag_791\n        /* \"#utility.yul\":1971:1975   */\n      0x60\n        /* \"#utility.yul\":1966:1969   */\n      dup9\n        /* \"#utility.yul\":1962:1976   */\n      add\n        /* \"#utility.yul\":1947:1959   */\n      dup3\n        /* \"#utility.yul\":1941:1960   */\n      mload\n        /* \"#utility.yul\":1911:1977   */\n      tag_740\n      jump\t// in\n    tag_791:\n        /* \"#utility.yul\":2040:2044   */\n      0x20\n        /* \"#utility.yul\":2022:2045   */\n      swap1\n      dup2\n      add\n        /* \"#utility.yul\":2016:2046   */\n      mload\n        /* \"#utility.yul\":2048:2052   */\n      0xff\n        /* \"#utility.yul\":2012:2053   */\n      and\n        /* \"#utility.yul\":2006:2009   */\n      0x80\n        /* \"#utility.yul\":1997:2010   */\n      dup9\n      add\n        /* \"#utility.yul\":1990:2054   */\n      mstore\n        /* \"#utility.yul\":2083:2087   */\n      0xa0\n        /* \"#utility.yul\":2074:2088   */\n      swap1\n      swap7\n      add\n      swap6\n        /* \"#utility.yul\":2111:2128   */\n      swap2\n      swap1\n      swap2\n      add\n      swap1\n        /* \"#utility.yul\":1596:1597   */\n      0x01\n        /* \"#utility.yul\":1589:1598   */\n      add\n        /* \"#utility.yul\":1560:2138   */\n      jump(tag_787)\n    tag_789:\n      pop\n        /* \"#utility.yul\":2154:2157   */\n      swap4\n      swap5\n        /* \"#utility.yul\":1325:2163   */\n      swap4\n      pop\n      pop\n      pop\n      pop\n      jump\t// out\n        /* \"#utility.yul\":2362:2498   */\n    tag_745:\n        /* \"#utility.yul\":2439:2440   */\n      0x02\n        /* \"#utility.yul\":2432:2437   */\n      dup2\n        /* \"#utility.yul\":2429:2441   */\n      lt\n        /* \"#utility.yul\":2419:2465   */\n      tag_784\n      jumpi\n        /* \"#utility.yul\":2445:2463   */\n      tag_784\n      tag_44\n      jump\t// in\n        /* \"#utility.yul\":2503:2646   */\n    tag_746:\n        /* \"#utility.yul\":2587:2588   */\n      0x06\n        /* \"#utility.yul\":2580:2585   */\n      dup2\n        /* \"#utility.yul\":2577:2589   */\n      lt\n        /* \"#utility.yul\":2567:2613   */\n      tag_784\n      jumpi\n        /* \"#utility.yul\":2593:2611   */\n      tag_784\n      tag_44\n      jump\t// in\n        /* \"#utility.yul\":2651:2794   */\n    tag_747:\n        /* \"#utility.yul\":2734:2736   */\n      0x1d\n        /* \"#utility.yul\":2727:2732   */\n      dup2\n        /* \"#utility.yul\":2724:2737   */\n      lt\n        /* \"#utility.yul\":2714:2761   */\n      tag_784\n      jumpi\n        /* \"#utility.yul\":2741:2759   */\n      tag_784\n      tag_44\n      jump\t// in\n        /* \"#utility.yul\":2799:2942   */\n    tag_748:\n        /* \"#utility.yul\":2882:2884   */\n      0x17\n        /* \"#utility.yul\":2875:2880   */\n      dup2\n        /* \"#utility.yul\":2872:2885   */\n      lt\n        /* \"#utility.yul\":2862:2909   */\n      tag_784\n      jumpi\n        /* \"#utility.yul\":2889:2907   */\n      tag_784\n      tag_44\n      jump\t// in\n        /* \"#utility.yul\":2947:3090   */\n    tag_749:\n        /* \"#utility.yul\":3030:3032   */\n      0x14\n        /* \"#utility.yul\":3023:3028   */\n      dup2\n        /* \"#utility.yul\":3020:3033   */\n      lt\n        /* \"#utility.yul\":3010:3057   */\n      tag_784\n      jumpi\n        /* \"#utility.yul\":3037:3055   */\n      tag_784\n      tag_44\n      jump\t// in\n        /* \"#utility.yul\":3095:3238   */\n    tag_750:\n        /* \"#utility.yul\":3179:3180   */\n      0x09\n        /* \"#utility.yul\":3172:3177   */\n      dup2\n        /* \"#utility.yul\":3169:3181   */\n      lt\n        /* \"#utility.yul\":3159:3205   */\n      tag_784\n      jumpi\n        /* \"#utility.yul\":3185:3203   */\n      tag_784\n      tag_44\n      jump\t// in\n        /* \"#utility.yul\":3243:3386   */\n    tag_751:\n        /* \"#utility.yul\":3327:3328   */\n      0x04\n        /* \"#utility.yul\":3320:3325   */\n      dup2\n        /* \"#utility.yul\":3317:3329   */\n      lt\n        /* \"#utility.yul\":3307:3353   */\n      tag_784\n      jumpi\n        /* \"#utility.yul\":3333:3351   */\n      tag_784\n      tag_44\n      jump\t// in\n        /* \"#utility.yul\":3391:3541   */\n    tag_752:\n        /* \"#utility.yul\":3481:3483   */\n      0x58\n        /* \"#utility.yul\":3474:3479   */\n      dup2\n        /* \"#utility.yul\":3471:3484   */\n      lt\n        /* \"#utility.yul\":3461:3508   */\n      tag_784\n      jumpi\n        /* \"#utility.yul\":3488:3506   */\n      tag_784\n      tag_44\n      jump\t// in\n        /* \"#utility.yul\":3546:3689   */\n    tag_753:\n        /* \"#utility.yul\":3629:3631   */\n      0x16\n        /* \"#utility.yul\":3622:3627   */\n      dup2\n        /* \"#utility.yul\":3619:3632   */\n      lt\n        /* \"#utility.yul\":3609:3656   */\n      tag_784\n      jumpi\n        /* \"#utility.yul\":3636:3654   */\n      tag_784\n      tag_44\n      jump\t// in\n        /* \"#utility.yul\":3694:3838   */\n    tag_754:\n        /* \"#utility.yul\":3777:3780   */\n      0xd4\n        /* \"#utility.yul\":3770:3775   */\n      dup2\n        /* \"#utility.yul\":3767:3781   */\n      lt\n        /* \"#utility.yul\":3757:3805   */\n      tag_784\n      jumpi\n        /* \"#utility.yul\":3785:3803   */\n      tag_784\n      tag_44\n      jump\t// in\n        /* \"#utility.yul\":3843:3991   */\n    tag_755:\n        /* \"#utility.yul\":3930:3933   */\n      0x6a\n        /* \"#utility.yul\":3923:3928   */\n      dup2\n        /* \"#utility.yul\":3920:3934   */\n      lt\n        /* \"#utility.yul\":3910:3958   */\n      tag_784\n      jumpi\n        /* \"#utility.yul\":3938:3956   */\n      tag_784\n      tag_44\n      jump\t// in\n        /* \"#utility.yul\":3996:4144   */\n    tag_756:\n        /* \"#utility.yul\":4083:4086   */\n      0xa9\n        /* \"#utility.yul\":4076:4081   */\n      dup2\n        /* \"#utility.yul\":4073:4087   */\n      lt\n        /* \"#utility.yul\":4063:4111   */\n      tag_784\n      jumpi\n        /* \"#utility.yul\":4091:4109   */\n      tag_784\n      tag_44\n      jump\t// in\n        /* \"#utility.yul\":4149:4297   */\n    tag_757:\n        /* \"#utility.yul\":4236:4239   */\n      0x80\n        /* \"#utility.yul\":4229:4234   */\n      dup2\n        /* \"#utility.yul\":4226:4240   */\n      lt\n        /* \"#utility.yul\":4216:4264   */\n      tag_784\n      jumpi\n        /* \"#utility.yul\":4244:4262   */\n      tag_784\n      tag_44\n      jump\t// in\n        /* \"#utility.yul\":4302:4447   */\n    tag_758:\n        /* \"#utility.yul\":4387:4389   */\n      0x1a\n        /* \"#utility.yul\":4380:4385   */\n      dup2\n        /* \"#utility.yul\":4377:4390   */\n      lt\n        /* \"#utility.yul\":4367:4414   */\n      tag_784\n      jumpi\n        /* \"#utility.yul\":4394:4412   */\n      tag_784\n      tag_44\n      jump\t// in\n        /* \"#utility.yul\":4452:4597   */\n    tag_759:\n        /* \"#utility.yul\":4537:4539   */\n      0x1f\n        /* \"#utility.yul\":4530:4535   */\n      dup2\n        /* \"#utility.yul\":4527:4540   */\n      lt\n        /* \"#utility.yul\":4517:4564   */\n      tag_784\n      jumpi\n        /* \"#utility.yul\":4544:4562   */\n      tag_784\n      tag_44\n      jump\t// in\n        /* \"#utility.yul\":4602:4747   */\n    tag_760:\n        /* \"#utility.yul\":4687:4689   */\n      0x13\n        /* \"#utility.yul\":4680:4685   */\n      dup2\n        /* \"#utility.yul\":4677:4690   */\n      lt\n        /* \"#utility.yul\":4667:4714   */\n      tag_784\n      jumpi\n        /* \"#utility.yul\":4694:4712   */\n      tag_784\n      tag_44\n      jump\t// in\n        /* \"#utility.yul\":4752:4897   */\n    tag_761:\n        /* \"#utility.yul\":4837:4839   */\n      0x15\n        /* \"#utility.yul\":4830:4835   */\n      dup2\n        /* \"#utility.yul\":4827:4840   */\n      lt\n        /* \"#utility.yul\":4817:4864   */\n      tag_784\n      jumpi\n        /* \"#utility.yul\":4844:4862   */\n      tag_784\n      tag_44\n      jump\t// in\n        /* \"#utility.yul\":4902:5048   */\n    tag_762:\n        /* \"#utility.yul\":4987:4990   */\n      0xc3\n        /* \"#utility.yul\":4980:4985   */\n      dup2\n        /* \"#utility.yul\":4977:4991   */\n      lt\n        /* \"#utility.yul\":4967:5015   */\n      tag_784\n      jumpi\n        /* \"#utility.yul\":4995:5013   */\n      tag_784\n      tag_44\n      jump\t// in\n        /* \"#utility.yul\":5053:5203   */\n    tag_763:\n        /* \"#utility.yul\":5142:5145   */\n      0x85\n        /* \"#utility.yul\":5135:5140   */\n      dup2\n        /* \"#utility.yul\":5132:5146   */\n      lt\n        /* \"#utility.yul\":5122:5170   */\n      tag_784\n      jumpi\n        /* \"#utility.yul\":5150:5168   */\n      tag_784\n      tag_44\n      jump\t// in\n        /* \"#utility.yul\":5208:5358   */\n    tag_764:\n        /* \"#utility.yul\":5297:5300   */\n      0x83\n        /* \"#utility.yul\":5290:5295   */\n      dup2\n        /* \"#utility.yul\":5287:5301   */\n      lt\n        /* \"#utility.yul\":5277:5325   */\n      tag_784\n      jumpi\n        /* \"#utility.yul\":5305:5323   */\n      tag_784\n      tag_44\n      jump\t// in\n        /* \"#utility.yul\":5363:5513   */\n    tag_765:\n        /* \"#utility.yul\":5452:5455   */\n      0x7a\n        /* \"#utility.yul\":5445:5450   */\n      dup2\n        /* \"#utility.yul\":5442:5456   */\n      lt\n        /* \"#utility.yul\":5432:5480   */\n      tag_784\n      jumpi\n        /* \"#utility.yul\":5460:5478   */\n      tag_784\n      tag_44\n      jump\t// in\n        /* \"#utility.yul\":5518:9633   */\n    tag_766:\n        /* \"#utility.yul\":5574:5577   */\n      0x00\n        /* \"#utility.yul\":5618:5623   */\n      dup2\n        /* \"#utility.yul\":5612:5624   */\n      mload\n        /* \"#utility.yul\":5645:5651   */\n      0x0400\n        /* \"#utility.yul\":5640:5643   */\n      dup5\n        /* \"#utility.yul\":5633:5652   */\n      mstore\n        /* \"#utility.yul\":5673:5746   */\n      tag_858\n        /* \"#utility.yul\":5738:5744   */\n      0x0400\n        /* \"#utility.yul\":5733:5736   */\n      dup6\n        /* \"#utility.yul\":5729:5745   */\n      add\n        /* \"#utility.yul\":5715:5727   */\n      dup3\n        /* \"#utility.yul\":5673:5746   */\n      tag_742\n      jump\t// in\n    tag_858:\n        /* \"#utility.yul\":5661:5746   */\n      swap1\n      pop\n        /* \"#utility.yul\":5794:5798   */\n      0x20\n        /* \"#utility.yul\":5787:5792   */\n      dup4\n        /* \"#utility.yul\":5783:5799   */\n      add\n        /* \"#utility.yul\":5777:5800   */\n      mload\n        /* \"#utility.yul\":5809:5857   */\n      tag_859\n        /* \"#utility.yul\":5851:5855   */\n      0x20\n        /* \"#utility.yul\":5846:5849   */\n      dup7\n        /* \"#utility.yul\":5842:5856   */\n      add\n        /* \"#utility.yul\":5826:5840   */\n      dup3\n        /* \"#utility.yul\":1312:1316   */\n      0xff\n        /* \"#utility.yul\":1301:1317   */\n      and\n        /* \"#utility.yul\":1289:1318   */\n      swap1\n      mstore\n        /* \"#utility.yul\":1245:1320   */\n      jump\n        /* \"#utility.yul\":5809:5857   */\n    tag_859:\n      pop\n        /* \"#utility.yul\":5905:5909   */\n      0x40\n        /* \"#utility.yul\":5898:5903   */\n      dup4\n        /* \"#utility.yul\":5894:5910   */\n      add\n        /* \"#utility.yul\":5888:5911   */\n      mload\n        /* \"#utility.yul\":5920:5969   */\n      tag_860\n        /* \"#utility.yul\":5963:5967   */\n      0x40\n        /* \"#utility.yul\":5958:5961   */\n      dup7\n        /* \"#utility.yul\":5954:5968   */\n      add\n        /* \"#utility.yul\":5938:5952   */\n      dup3\n        /* \"#utility.yul\":2244:2250   */\n      0xffff\n        /* \"#utility.yul\":2233:2251   */\n      and\n        /* \"#utility.yul\":2221:2252   */\n      swap1\n      mstore\n        /* \"#utility.yul\":2168:2258   */\n      jump\n        /* \"#utility.yul\":5920:5969   */\n    tag_860:\n      pop\n        /* \"#utility.yul\":6018:6022   */\n      0x60\n        /* \"#utility.yul\":6011:6016   */\n      dup4\n        /* \"#utility.yul\":6007:6023   */\n      add\n        /* \"#utility.yul\":6001:6024   */\n      mload\n        /* \"#utility.yul\":5994:5998   */\n      0x60\n        /* \"#utility.yul\":5989:5992   */\n      dup6\n        /* \"#utility.yul\":5985:5999   */\n      add\n        /* \"#utility.yul\":5978:6025   */\n      mstore\n        /* \"#utility.yul\":6073:6077   */\n      0x80\n        /* \"#utility.yul\":6066:6071   */\n      dup4\n        /* \"#utility.yul\":6062:6078   */\n      add\n        /* \"#utility.yul\":6056:6079   */\n      mload\n        /* \"#utility.yul\":6088:6137   */\n      tag_861\n        /* \"#utility.yul\":6131:6135   */\n      0x80\n        /* \"#utility.yul\":6126:6129   */\n      dup7\n        /* \"#utility.yul\":6122:6136   */\n      add\n        /* \"#utility.yul\":6106:6120   */\n      dup3\n        /* \"#utility.yul\":2244:2250   */\n      0xffff\n        /* \"#utility.yul\":2233:2251   */\n      and\n        /* \"#utility.yul\":2221:2252   */\n      swap1\n      mstore\n        /* \"#utility.yul\":2168:2258   */\n      jump\n        /* \"#utility.yul\":6088:6137   */\n    tag_861:\n      pop\n        /* \"#utility.yul\":6185:6189   */\n      0xa0\n        /* \"#utility.yul\":6178:6183   */\n      dup4\n        /* \"#utility.yul\":6174:6190   */\n      add\n        /* \"#utility.yul\":6168:6191   */\n      mload\n        /* \"#utility.yul\":6200:6249   */\n      tag_862\n        /* \"#utility.yul\":6243:6247   */\n      0xa0\n        /* \"#utility.yul\":6238:6241   */\n      dup7\n        /* \"#utility.yul\":6234:6248   */\n      add\n        /* \"#utility.yul\":6218:6232   */\n      dup3\n        /* \"#utility.yul\":2339:2349   */\n      0xffffffff\n        /* \"#utility.yul\":2328:2350   */\n      and\n        /* \"#utility.yul\":2316:2351   */\n      swap1\n      mstore\n        /* \"#utility.yul\":2263:2357   */\n      jump\n        /* \"#utility.yul\":6200:6249   */\n    tag_862:\n      pop\n        /* \"#utility.yul\":6297:6301   */\n      0xc0\n        /* \"#utility.yul\":6290:6295   */\n      dup4\n        /* \"#utility.yul\":6286:6302   */\n      add\n        /* \"#utility.yul\":6280:6303   */\n      mload\n        /* \"#utility.yul\":6312:6365   */\n      tag_863\n        /* \"#utility.yul\":6359:6363   */\n      0xc0\n        /* \"#utility.yul\":6354:6357   */\n      dup7\n        /* \"#utility.yul\":6350:6364   */\n      add\n        /* \"#utility.yul\":6334:6348   */\n      dup3\n        /* \"#utility.yul\":6312:6365   */\n      tag_745\n      jump\t// in\n    tag_863:\n      pop\n        /* \"#utility.yul\":6413:6417   */\n      0xe0\n        /* \"#utility.yul\":6406:6411   */\n      dup4\n        /* \"#utility.yul\":6402:6418   */\n      add\n        /* \"#utility.yul\":6396:6419   */\n      mload\n        /* \"#utility.yul\":6428:6488   */\n      tag_864\n        /* \"#utility.yul\":6482:6486   */\n      0xe0\n        /* \"#utility.yul\":6477:6480   */\n      dup7\n        /* \"#utility.yul\":6473:6487   */\n      add\n        /* \"#utility.yul\":6457:6471   */\n      dup3\n        /* \"#utility.yul\":6428:6488   */\n      tag_746\n      jump\t// in\n    tag_864:\n      pop\n        /* \"#utility.yul\":6536:6542   */\n      0x0100\n        /* \"#utility.yul\":6529:6534   */\n      dup4\n        /* \"#utility.yul\":6525:6543   */\n      add\n        /* \"#utility.yul\":6519:6544   */\n      mload\n        /* \"#utility.yul\":6553:6614   */\n      tag_865\n        /* \"#utility.yul\":6606:6612   */\n      0x0100\n        /* \"#utility.yul\":6601:6604   */\n      dup7\n        /* \"#utility.yul\":6597:6613   */\n      add\n        /* \"#utility.yul\":6581:6595   */\n      dup3\n        /* \"#utility.yul\":6553:6614   */\n      tag_747\n      jump\t// in\n    tag_865:\n      pop\n        /* \"#utility.yul\":6662:6668   */\n      0x0120\n        /* \"#utility.yul\":6655:6660   */\n      dup4\n        /* \"#utility.yul\":6651:6669   */\n      add\n        /* \"#utility.yul\":6645:6670   */\n      mload\n        /* \"#utility.yul\":6679:6740   */\n      tag_866\n        /* \"#utility.yul\":6732:6738   */\n      0x0120\n        /* \"#utility.yul\":6727:6730   */\n      dup7\n        /* \"#utility.yul\":6723:6739   */\n      add\n        /* \"#utility.yul\":6707:6721   */\n      dup3\n        /* \"#utility.yul\":6679:6740   */\n      tag_748\n      jump\t// in\n    tag_866:\n      pop\n        /* \"#utility.yul\":6788:6794   */\n      0x0140\n        /* \"#utility.yul\":6781:6786   */\n      dup4\n        /* \"#utility.yul\":6777:6795   */\n      add\n        /* \"#utility.yul\":6771:6796   */\n      mload\n        /* \"#utility.yul\":6805:6866   */\n      tag_867\n        /* \"#utility.yul\":6858:6864   */\n      0x0140\n        /* \"#utility.yul\":6853:6856   */\n      dup7\n        /* \"#utility.yul\":6849:6865   */\n      add\n        /* \"#utility.yul\":6833:6847   */\n      dup3\n        /* \"#utility.yul\":6805:6866   */\n      tag_749\n      jump\t// in\n    tag_867:\n      pop\n        /* \"#utility.yul\":6915:6921   */\n      0x0160\n        /* \"#utility.yul\":6908:6913   */\n      dup4\n        /* \"#utility.yul\":6904:6922   */\n      add\n        /* \"#utility.yul\":6898:6923   */\n      mload\n        /* \"#utility.yul\":6932:6995   */\n      tag_868\n        /* \"#utility.yul\":6987:6993   */\n      0x0160\n        /* \"#utility.yul\":6982:6985   */\n      dup7\n        /* \"#utility.yul\":6978:6994   */\n      add\n        /* \"#utility.yul\":6961:6976   */\n      dup3\n        /* \"#utility.yul\":6932:6995   */\n      tag_750\n      jump\t// in\n    tag_868:\n      pop\n        /* \"#utility.yul\":7044:7050   */\n      0x0180\n        /* \"#utility.yul\":7037:7042   */\n      dup4\n        /* \"#utility.yul\":7033:7051   */\n      add\n        /* \"#utility.yul\":7027:7052   */\n      mload\n        /* \"#utility.yul\":7061:7124   */\n      tag_869\n        /* \"#utility.yul\":7116:7122   */\n      0x0180\n        /* \"#utility.yul\":7111:7114   */\n      dup7\n        /* \"#utility.yul\":7107:7123   */\n      add\n        /* \"#utility.yul\":7090:7105   */\n      dup3\n        /* \"#utility.yul\":7061:7124   */\n      tag_750\n      jump\t// in\n    tag_869:\n      pop\n        /* \"#utility.yul\":7173:7179   */\n      0x01a0\n        /* \"#utility.yul\":7166:7171   */\n      dup4\n        /* \"#utility.yul\":7162:7180   */\n      add\n        /* \"#utility.yul\":7156:7181   */\n      mload\n        /* \"#utility.yul\":7190:7253   */\n      tag_870\n        /* \"#utility.yul\":7245:7251   */\n      0x01a0\n        /* \"#utility.yul\":7240:7243   */\n      dup7\n        /* \"#utility.yul\":7236:7252   */\n      add\n        /* \"#utility.yul\":7219:7234   */\n      dup3\n        /* \"#utility.yul\":7190:7253   */\n      tag_751\n      jump\t// in\n    tag_870:\n      pop\n        /* \"#utility.yul\":7302:7308   */\n      0x01c0\n        /* \"#utility.yul\":7295:7300   */\n      dup4\n        /* \"#utility.yul\":7291:7309   */\n      add\n        /* \"#utility.yul\":7285:7310   */\n      mload\n        /* \"#utility.yul\":7319:7388   */\n      tag_871\n        /* \"#utility.yul\":7380:7386   */\n      0x01c0\n        /* \"#utility.yul\":7375:7378   */\n      dup7\n        /* \"#utility.yul\":7371:7387   */\n      add\n        /* \"#utility.yul\":7354:7369   */\n      dup3\n        /* \"#utility.yul\":7319:7388   */\n      tag_752\n      jump\t// in\n    tag_871:\n      pop\n        /* \"#utility.yul\":7437:7443   */\n      0x01e0\n        /* \"#utility.yul\":7430:7435   */\n      dup4\n        /* \"#utility.yul\":7426:7444   */\n      add\n        /* \"#utility.yul\":7420:7445   */\n      mload\n        /* \"#utility.yul\":7454:7516   */\n      tag_872\n        /* \"#utility.yul\":7508:7514   */\n      0x01e0\n        /* \"#utility.yul\":7503:7506   */\n      dup7\n        /* \"#utility.yul\":7499:7515   */\n      add\n        /* \"#utility.yul\":7482:7497   */\n      dup3\n        /* \"#utility.yul\":7454:7516   */\n      tag_753\n      jump\t// in\n    tag_872:\n      pop\n        /* \"#utility.yul\":7565:7571   */\n      0x0200\n        /* \"#utility.yul\":7558:7563   */\n      dup4\n        /* \"#utility.yul\":7554:7572   */\n      add\n        /* \"#utility.yul\":7548:7573   */\n      mload\n        /* \"#utility.yul\":7582:7644   */\n      tag_873\n        /* \"#utility.yul\":7636:7642   */\n      0x0200\n        /* \"#utility.yul\":7631:7634   */\n      dup7\n        /* \"#utility.yul\":7627:7643   */\n      add\n        /* \"#utility.yul\":7610:7625   */\n      dup3\n        /* \"#utility.yul\":7582:7644   */\n      tag_754\n      jump\t// in\n    tag_873:\n      pop\n        /* \"#utility.yul\":7693:7699   */\n      0x0220\n        /* \"#utility.yul\":7686:7691   */\n      dup4\n        /* \"#utility.yul\":7682:7700   */\n      add\n        /* \"#utility.yul\":7676:7701   */\n      mload\n        /* \"#utility.yul\":7710:7776   */\n      tag_874\n        /* \"#utility.yul\":7768:7774   */\n      0x0220\n        /* \"#utility.yul\":7763:7766   */\n      dup7\n        /* \"#utility.yul\":7759:7775   */\n      add\n        /* \"#utility.yul\":7742:7757   */\n      dup3\n        /* \"#utility.yul\":7710:7776   */\n      tag_755\n      jump\t// in\n    tag_874:\n      pop\n        /* \"#utility.yul\":7825:7831   */\n      0x0240\n        /* \"#utility.yul\":7818:7823   */\n      dup4\n        /* \"#utility.yul\":7814:7832   */\n      add\n        /* \"#utility.yul\":7808:7833   */\n      mload\n        /* \"#utility.yul\":7842:7908   */\n      tag_875\n        /* \"#utility.yul\":7900:7906   */\n      0x0240\n        /* \"#utility.yul\":7895:7898   */\n      dup7\n        /* \"#utility.yul\":7891:7907   */\n      add\n        /* \"#utility.yul\":7874:7889   */\n      dup3\n        /* \"#utility.yul\":7842:7908   */\n      tag_756\n      jump\t// in\n    tag_875:\n      pop\n        /* \"#utility.yul\":7957:7963   */\n      0x0260\n        /* \"#utility.yul\":7950:7955   */\n      dup4\n        /* \"#utility.yul\":7946:7964   */\n      add\n        /* \"#utility.yul\":7940:7965   */\n      mload\n        /* \"#utility.yul\":7974:8040   */\n      tag_876\n        /* \"#utility.yul\":8032:8038   */\n      0x0260\n        /* \"#utility.yul\":8027:8030   */\n      dup7\n        /* \"#utility.yul\":8023:8039   */\n      add\n        /* \"#utility.yul\":8006:8021   */\n      dup3\n        /* \"#utility.yul\":7974:8040   */\n      tag_757\n      jump\t// in\n    tag_876:\n      pop\n        /* \"#utility.yul\":8089:8095   */\n      0x0280\n        /* \"#utility.yul\":8082:8087   */\n      dup4\n        /* \"#utility.yul\":8078:8096   */\n      add\n        /* \"#utility.yul\":8072:8097   */\n      mload\n        /* \"#utility.yul\":8106:8170   */\n      tag_877\n        /* \"#utility.yul\":8162:8168   */\n      0x0280\n        /* \"#utility.yul\":8157:8160   */\n      dup7\n        /* \"#utility.yul\":8153:8169   */\n      add\n        /* \"#utility.yul\":8136:8151   */\n      dup3\n        /* \"#utility.yul\":8106:8170   */\n      tag_758\n      jump\t// in\n    tag_877:\n      pop\n        /* \"#utility.yul\":8219:8225   */\n      0x02a0\n        /* \"#utility.yul\":8212:8217   */\n      dup4\n        /* \"#utility.yul\":8208:8226   */\n      add\n        /* \"#utility.yul\":8202:8227   */\n      mload\n        /* \"#utility.yul\":8236:8300   */\n      tag_878\n        /* \"#utility.yul\":8292:8298   */\n      0x02a0\n        /* \"#utility.yul\":8287:8290   */\n      dup7\n        /* \"#utility.yul\":8283:8299   */\n      add\n        /* \"#utility.yul\":8266:8281   */\n      dup3\n        /* \"#utility.yul\":8236:8300   */\n      tag_759\n      jump\t// in\n    tag_878:\n      pop\n        /* \"#utility.yul\":8349:8355   */\n      0x02c0\n        /* \"#utility.yul\":8342:8347   */\n      dup4\n        /* \"#utility.yul\":8338:8356   */\n      add\n        /* \"#utility.yul\":8332:8357   */\n      mload\n        /* \"#utility.yul\":8366:8430   */\n      tag_879\n        /* \"#utility.yul\":8422:8428   */\n      0x02c0\n        /* \"#utility.yul\":8417:8420   */\n      dup7\n        /* \"#utility.yul\":8413:8429   */\n      add\n        /* \"#utility.yul\":8396:8411   */\n      dup3\n        /* \"#utility.yul\":8366:8430   */\n      tag_760\n      jump\t// in\n    tag_879:\n      pop\n        /* \"#utility.yul\":8479:8485   */\n      0x02e0\n        /* \"#utility.yul\":8472:8477   */\n      dup4\n        /* \"#utility.yul\":8468:8486   */\n      add\n        /* \"#utility.yul\":8462:8487   */\n      mload\n        /* \"#utility.yul\":8496:8559   */\n      tag_880\n        /* \"#utility.yul\":8551:8557   */\n      0x02e0\n        /* \"#utility.yul\":8546:8549   */\n      dup7\n        /* \"#utility.yul\":8542:8558   */\n      add\n        /* \"#utility.yul\":8525:8540   */\n      dup3\n        /* \"#utility.yul\":8496:8559   */\n      tag_750\n      jump\t// in\n    tag_880:\n      pop\n        /* \"#utility.yul\":8608:8614   */\n      0x0300\n        /* \"#utility.yul\":8601:8606   */\n      dup4\n        /* \"#utility.yul\":8597:8615   */\n      add\n        /* \"#utility.yul\":8591:8616   */\n      mload\n        /* \"#utility.yul\":8625:8688   */\n      tag_881\n        /* \"#utility.yul\":8680:8686   */\n      0x0300\n        /* \"#utility.yul\":8675:8678   */\n      dup7\n        /* \"#utility.yul\":8671:8687   */\n      add\n        /* \"#utility.yul\":8654:8669   */\n      dup3\n        /* \"#utility.yul\":8625:8688   */\n      tag_750\n      jump\t// in\n    tag_881:\n      pop\n        /* \"#utility.yul\":8737:8743   */\n      0x0320\n        /* \"#utility.yul\":8730:8735   */\n      dup4\n        /* \"#utility.yul\":8726:8744   */\n      add\n        /* \"#utility.yul\":8720:8745   */\n      mload\n        /* \"#utility.yul\":8754:8817   */\n      tag_882\n        /* \"#utility.yul\":8809:8815   */\n      0x0320\n        /* \"#utility.yul\":8804:8807   */\n      dup7\n        /* \"#utility.yul\":8800:8816   */\n      add\n        /* \"#utility.yul\":8783:8798   */\n      dup3\n        /* \"#utility.yul\":8754:8817   */\n      tag_751\n      jump\t// in\n    tag_882:\n      pop\n        /* \"#utility.yul\":8866:8872   */\n      0x0340\n        /* \"#utility.yul\":8859:8864   */\n      dup4\n        /* \"#utility.yul\":8855:8873   */\n      add\n        /* \"#utility.yul\":8849:8874   */\n      mload\n        /* \"#utility.yul\":8883:8947   */\n      tag_883\n        /* \"#utility.yul\":8939:8945   */\n      0x0340\n        /* \"#utility.yul\":8934:8937   */\n      dup7\n        /* \"#utility.yul\":8930:8946   */\n      add\n        /* \"#utility.yul\":8913:8928   */\n      dup3\n        /* \"#utility.yul\":8883:8947   */\n      tag_761\n      jump\t// in\n    tag_883:\n      pop\n        /* \"#utility.yul\":8996:9002   */\n      0x0360\n        /* \"#utility.yul\":8989:8994   */\n      dup4\n        /* \"#utility.yul\":8985:9003   */\n      add\n        /* \"#utility.yul\":8979:9004   */\n      mload\n        /* \"#utility.yul\":9013:9077   */\n      tag_884\n        /* \"#utility.yul\":9069:9075   */\n      0x0360\n        /* \"#utility.yul\":9064:9067   */\n      dup7\n        /* \"#utility.yul\":9060:9076   */\n      add\n        /* \"#utility.yul\":9043:9058   */\n      dup3\n        /* \"#utility.yul\":9013:9077   */\n      tag_762\n      jump\t// in\n    tag_884:\n      pop\n        /* \"#utility.yul\":9126:9132   */\n      0x0380\n        /* \"#utility.yul\":9119:9124   */\n      dup4\n        /* \"#utility.yul\":9115:9133   */\n      add\n        /* \"#utility.yul\":9109:9134   */\n      mload\n        /* \"#utility.yul\":9143:9211   */\n      tag_885\n        /* \"#utility.yul\":9203:9209   */\n      0x0380\n        /* \"#utility.yul\":9198:9201   */\n      dup7\n        /* \"#utility.yul\":9194:9210   */\n      add\n        /* \"#utility.yul\":9177:9192   */\n      dup3\n        /* \"#utility.yul\":9143:9211   */\n      tag_763\n      jump\t// in\n    tag_885:\n      pop\n        /* \"#utility.yul\":9260:9266   */\n      0x03a0\n        /* \"#utility.yul\":9253:9258   */\n      dup4\n        /* \"#utility.yul\":9249:9267   */\n      add\n        /* \"#utility.yul\":9243:9268   */\n      mload\n        /* \"#utility.yul\":9277:9345   */\n      tag_886\n        /* \"#utility.yul\":9337:9343   */\n      0x03a0\n        /* \"#utility.yul\":9332:9335   */\n      dup7\n        /* \"#utility.yul\":9328:9344   */\n      add\n        /* \"#utility.yul\":9311:9326   */\n      dup3\n        /* \"#utility.yul\":9277:9345   */\n      tag_764\n      jump\t// in\n    tag_886:\n      pop\n        /* \"#utility.yul\":9394:9400   */\n      0x03c0\n        /* \"#utility.yul\":9387:9392   */\n      dup4\n        /* \"#utility.yul\":9383:9401   */\n      add\n        /* \"#utility.yul\":9377:9402   */\n      mload\n        /* \"#utility.yul\":9411:9479   */\n      tag_887\n        /* \"#utility.yul\":9471:9477   */\n      0x03c0\n        /* \"#utility.yul\":9466:9469   */\n      dup7\n        /* \"#utility.yul\":9462:9478   */\n      add\n        /* \"#utility.yul\":9445:9460   */\n      dup3\n        /* \"#utility.yul\":9411:9479   */\n      tag_765\n      jump\t// in\n    tag_887:\n      pop\n        /* \"#utility.yul\":9528:9534   */\n      0x03e0\n        /* \"#utility.yul\":9521:9526   */\n      dup4\n        /* \"#utility.yul\":9517:9535   */\n      add\n        /* \"#utility.yul\":9511:9536   */\n      mload\n        /* \"#utility.yul\":9545:9607   */\n      tag_888\n        /* \"#utility.yul\":9599:9605   */\n      0x03e0\n        /* \"#utility.yul\":9594:9597   */\n      dup7\n        /* \"#utility.yul\":9590:9606   */\n      add\n        /* \"#utility.yul\":9573:9588   */\n      dup3\n        /* \"#utility.yul\":9545:9607   */\n      tag_748\n      jump\t// in\n    tag_888:\n      pop\n        /* \"#utility.yul\":9623:9627   */\n      swap4\n        /* \"#utility.yul\":5518:9633   */\n      swap3\n      pop\n      pop\n      pop\n      jump\t// out\n        /* \"#utility.yul\":9638:9914   */\n    tag_19:\n        /* \"#utility.yul\":9829:9831   */\n      0x20\n        /* \"#utility.yul\":9818:9827   */\n      dup2\n        /* \"#utility.yul\":9811:9832   */\n      mstore\n        /* \"#utility.yul\":9792:9796   */\n      0x00\n        /* \"#utility.yul\":9849:9908   */\n      tag_22\n        /* \"#utility.yul\":9904:9906   */\n      0x20\n        /* \"#utility.yul\":9893:9902   */\n      dup4\n        /* \"#utility.yul\":9889:9907   */\n      add\n        /* \"#utility.yul\":9881:9887   */\n      dup5\n        /* \"#utility.yul\":9849:9908   */\n      tag_766\n      jump\t// in\n        /* \"#utility.yul\":9919:10046   */\n    tag_767:\n        /* \"#utility.yul\":9980:9990   */\n      0x4e487b71\n        /* \"#utility.yul\":9975:9978   */\n      0xe0\n        /* \"#utility.yul\":9971:9991   */\n      shl\n        /* \"#utility.yul\":9968:9969   */\n      0x00\n        /* \"#utility.yul\":9961:9992   */\n      mstore\n        /* \"#utility.yul\":10011:10015   */\n      0x11\n        /* \"#utility.yul\":10008:10009   */\n      0x04\n        /* \"#utility.yul\":10001:10016   */\n      mstore\n        /* \"#utility.yul\":10035:10039   */\n      0x24\n        /* \"#utility.yul\":10032:10033   */\n      0x00\n        /* \"#utility.yul\":10025:10040   */\n      revert\n        /* \"#utility.yul\":10051:10206   */\n    tag_27:\n        /* \"#utility.yul\":10142:10148   */\n      0xffff\n        /* \"#utility.yul\":10119:10133   */\n      dup2\n      dup2\n      and\n        /* \"#utility.yul\":10135:10149   */\n      dup4\n      dup3\n      and\n        /* \"#utility.yul\":10115:10150   */\n      add\n      swap1\n        /* \"#utility.yul\":10162:10177   */\n      dup2\n      gt\n        /* \"#utility.yul\":10159:10200   */\n      iszero\n      tag_381\n      jumpi\n        /* \"#utility.yul\":10180:10198   */\n      tag_381\n      tag_767\n      jump\t// in\n        /* \"#utility.yul\":10343:10501   */\n    tag_49:\n        /* \"#utility.yul\":10436:10442   */\n      0xffff\n        /* \"#utility.yul\":10429:10443   */\n      dup3\n      dup2\n      and\n        /* \"#utility.yul\":10413:10427   */\n      dup3\n      dup3\n      and\n        /* \"#utility.yul\":10409:10444   */\n      sub\n      swap1\n        /* \"#utility.yul\":10456:10472   */\n      dup2\n      gt\n        /* \"#utility.yul\":10453:10495   */\n      iszero\n      tag_381\n      jumpi\n        /* \"#utility.yul\":10475:10493   */\n      tag_381\n      tag_767\n      jump\t// in\n        /* \"#utility.yul\":10661:10913   */\n    tag_88:\n        /* \"#utility.yul\":10581:10593   */\n      dup2\n      mload\n        /* \"#utility.yul\":10569:10594   */\n      dup2\n      mstore\n        /* \"#utility.yul\":10643:10647   */\n      0x20\n        /* \"#utility.yul\":10632:10648   */\n      dup1\n      dup4\n      add\n        /* \"#utility.yul\":10626:10649   */\n      mload\n        /* \"#utility.yul\":10610:10624   */\n      swap1\n      dup3\n      add\n        /* \"#utility.yul\":10603:10650   */\n      mstore\n        /* \"#utility.yul\":10849:10851   */\n      0x40\n        /* \"#utility.yul\":10834:10852   */\n      dup2\n      add\n        /* \"#utility.yul\":10861:10907   */\n      tag_381\n        /* \"#utility.yul\":10506:10656   */\n      jump\n        /* \"#utility.yul\":10918:11195   */\n    tag_92:\n        /* \"#utility.yul\":11004:11010   */\n      0x00\n        /* \"#utility.yul\":11057:11059   */\n      0x20\n        /* \"#utility.yul\":11045:11054   */\n      dup3\n        /* \"#utility.yul\":11036:11043   */\n      dup5\n        /* \"#utility.yul\":11032:11055   */\n      sub\n        /* \"#utility.yul\":11028:11060   */\n      slt\n        /* \"#utility.yul\":11025:11077   */\n      iszero\n      tag_903\n      jumpi\n        /* \"#utility.yul\":11073:11074   */\n      0x00\n        /* \"#utility.yul\":11070:11071   */\n      0x00\n        /* \"#utility.yul\":11063:11075   */\n      revert\n        /* \"#utility.yul\":11025:11077   */\n    tag_903:\n        /* \"#utility.yul\":11105:11114   */\n      dup2\n        /* \"#utility.yul\":11099:11115   */\n      mload\n        /* \"#utility.yul\":11144:11146   */\n      0x1d\n        /* \"#utility.yul\":11137:11142   */\n      dup2\n        /* \"#utility.yul\":11134:11147   */\n      lt\n        /* \"#utility.yul\":11124:11165   */\n      tag_22\n      jumpi\n        /* \"#utility.yul\":11161:11162   */\n      0x00\n        /* \"#utility.yul\":11158:11159   */\n      0x00\n        /* \"#utility.yul\":11151:11163   */\n      revert\n        /* \"#utility.yul\":11200:11622   */\n    tag_98:\n        /* \"#utility.yul\":11473:11475   */\n      0x60\n        /* \"#utility.yul\":11462:11471   */\n      dup2\n        /* \"#utility.yul\":11455:11476   */\n      mstore\n        /* \"#utility.yul\":11436:11440   */\n      0x00\n        /* \"#utility.yul\":11493:11552   */\n      tag_906\n        /* \"#utility.yul\":11548:11550   */\n      0x60\n        /* \"#utility.yul\":11537:11546   */\n      dup4\n        /* \"#utility.yul\":11533:11551   */\n      add\n        /* \"#utility.yul\":11525:11531   */\n      dup6\n        /* \"#utility.yul\":11493:11552   */\n      tag_766\n      jump\t// in\n    tag_906:\n        /* \"#utility.yul\":11485:11552   */\n      swap1\n      pop\n        /* \"#utility.yul\":11561:11616   */\n      tag_22\n        /* \"#utility.yul\":11612:11614   */\n      0x20\n        /* \"#utility.yul\":11601:11610   */\n      dup4\n        /* \"#utility.yul\":11597:11615   */\n      add\n        /* \"#utility.yul\":11589:11595   */\n      dup5\n        /* \"#utility.yul\":10581:10593   */\n      dup1\n      mload\n        /* \"#utility.yul\":10569:10594   */\n      dup3\n      mstore\n        /* \"#utility.yul\":10643:10647   */\n      0x20\n        /* \"#utility.yul\":10632:10648   */\n      swap1\n      dup2\n      add\n        /* \"#utility.yul\":10626:10649   */\n      mload\n        /* \"#utility.yul\":10610:10624   */\n      swap2\n      add\n        /* \"#utility.yul\":10603:10650   */\n      mstore\n        /* \"#utility.yul\":10506:10656   */\n      jump\n        /* \"#utility.yul\":11627:11738   */\n    tag_769:\n        /* \"#utility.yul\":11711:11713   */\n      0x17\n        /* \"#utility.yul\":11704:11709   */\n      dup2\n        /* \"#utility.yul\":11701:11714   */\n      lt\n        /* \"#utility.yul\":11691:11732   */\n      tag_400\n      jumpi\n        /* \"#utility.yul\":11728:11729   */\n      0x00\n        /* \"#utility.yul\":11725:11726   */\n      0x00\n        /* \"#utility.yul\":11718:11730   */\n      revert\n        /* \"#utility.yul\":11743:12019   */\n    tag_102:\n        /* \"#utility.yul\":11829:11835   */\n      0x00\n        /* \"#utility.yul\":11882:11884   */\n      0x20\n        /* \"#utility.yul\":11870:11879   */\n      dup3\n        /* \"#utility.yul\":11861:11868   */\n      dup5\n        /* \"#utility.yul\":11857:11880   */\n      sub\n        /* \"#utility.yul\":11853:11885   */\n      slt\n        /* \"#utility.yul\":11850:11902   */\n      iszero\n      tag_911\n      jumpi\n        /* \"#utility.yul\":11898:11899   */\n      0x00\n        /* \"#utility.yul\":11895:11896   */\n      0x00\n        /* \"#utility.yul\":11888:11900   */\n      revert\n        /* \"#utility.yul\":11850:11902   */\n    tag_911:\n        /* \"#utility.yul\":11930:11939   */\n      dup2\n        /* \"#utility.yul\":11924:11940   */\n      mload\n        /* \"#utility.yul\":11949:11989   */\n      tag_22\n        /* \"#utility.yul\":11983:11988   */\n      dup2\n        /* \"#utility.yul\":11949:11989   */\n      tag_769\n      jump\t// in\n        /* \"#utility.yul\":12024:12301   */\n    tag_111:\n        /* \"#utility.yul\":12110:12116   */\n      0x00\n        /* \"#utility.yul\":12163:12165   */\n      0x20\n        /* \"#utility.yul\":12151:12160   */\n      dup3\n        /* \"#utility.yul\":12142:12149   */\n      dup5\n        /* \"#utility.yul\":12138:12161   */\n      sub\n        /* \"#utility.yul\":12134:12166   */\n      slt\n        /* \"#utility.yul\":12131:12183   */\n      iszero\n      tag_914\n      jumpi\n        /* \"#utility.yul\":12179:12180   */\n      0x00\n        /* \"#utility.yul\":12176:12177   */\n      0x00\n        /* \"#utility.yul\":12169:12181   */\n      revert\n        /* \"#utility.yul\":12131:12183   */\n    tag_914:\n        /* \"#utility.yul\":12211:12220   */\n      dup2\n        /* \"#utility.yul\":12205:12221   */\n      mload\n        /* \"#utility.yul\":12250:12252   */\n      0x14\n        /* \"#utility.yul\":12243:12248   */\n      dup2\n        /* \"#utility.yul\":12240:12253   */\n      lt\n        /* \"#utility.yul\":12230:12271   */\n      tag_22\n      jumpi\n        /* \"#utility.yul\":12267:12268   */\n      0x00\n        /* \"#utility.yul\":12264:12265   */\n      0x00\n        /* \"#utility.yul\":12257:12269   */\n      revert\n        /* \"#utility.yul\":12306:12417   */\n    tag_770:\n        /* \"#utility.yul\":12391:12392   */\n      0x09\n        /* \"#utility.yul\":12384:12389   */\n      dup2\n        /* \"#utility.yul\":12381:12393   */\n      lt\n        /* \"#utility.yul\":12371:12411   */\n      tag_400\n      jumpi\n        /* \"#utility.yul\":12407:12408   */\n      0x00\n        /* \"#utility.yul\":12404:12405   */\n      0x00\n        /* \"#utility.yul\":12397:12409   */\n      revert\n        /* \"#utility.yul\":12422:12700   */\n    tag_120:\n        /* \"#utility.yul\":12509:12515   */\n      0x00\n        /* \"#utility.yul\":12562:12564   */\n      0x20\n        /* \"#utility.yul\":12550:12559   */\n      dup3\n        /* \"#utility.yul\":12541:12548   */\n      dup5\n        /* \"#utility.yul\":12537:12560   */\n      sub\n        /* \"#utility.yul\":12533:12565   */\n      slt\n        /* \"#utility.yul\":12530:12582   */\n      iszero\n      tag_919\n      jumpi\n        /* \"#utility.yul\":12578:12579   */\n      0x00\n        /* \"#utility.yul\":12575:12576   */\n      0x00\n        /* \"#utility.yul\":12568:12580   */\n      revert\n        /* \"#utility.yul\":12530:12582   */\n    tag_919:\n        /* \"#utility.yul\":12610:12619   */\n      dup2\n        /* \"#utility.yul\":12604:12620   */\n      mload\n        /* \"#utility.yul\":12629:12670   */\n      tag_22\n        /* \"#utility.yul\":12664:12669   */\n      dup2\n        /* \"#utility.yul\":12629:12670   */\n      tag_770\n      jump\t// in\n        /* \"#utility.yul\":12990:13274   */\n    tag_138:\n        /* \"#utility.yul\":13083:13089   */\n      0x00\n        /* \"#utility.yul\":13136:13138   */\n      0x20\n        /* \"#utility.yul\":13124:13133   */\n      dup3\n        /* \"#utility.yul\":13115:13122   */\n      dup5\n        /* \"#utility.yul\":13111:13134   */\n      sub\n        /* \"#utility.yul\":13107:13139   */\n      slt\n        /* \"#utility.yul\":13104:13156   */\n      iszero\n      tag_925\n      jumpi\n        /* \"#utility.yul\":13152:13153   */\n      0x00\n        /* \"#utility.yul\":13149:13150   */\n      0x00\n        /* \"#utility.yul\":13142:13154   */\n      revert\n        /* \"#utility.yul\":13104:13156   */\n    tag_925:\n        /* \"#utility.yul\":13184:13193   */\n      dup2\n        /* \"#utility.yul\":13178:13194   */\n      mload\n        /* \"#utility.yul\":13223:13225   */\n      0x58\n        /* \"#utility.yul\":13216:13221   */\n      dup2\n        /* \"#utility.yul\":13213:13226   */\n      lt\n        /* \"#utility.yul\":13203:13244   */\n      tag_22\n      jumpi\n        /* \"#utility.yul\":13240:13241   */\n      0x00\n        /* \"#utility.yul\":13237:13238   */\n      0x00\n        /* \"#utility.yul\":13230:13242   */\n      revert\n        /* \"#utility.yul\":13279:13556   */\n    tag_147:\n        /* \"#utility.yul\":13365:13371   */\n      0x00\n        /* \"#utility.yul\":13418:13420   */\n      0x20\n        /* \"#utility.yul\":13406:13415   */\n      dup3\n        /* \"#utility.yul\":13397:13404   */\n      dup5\n        /* \"#utility.yul\":13393:13416   */\n      sub\n        /* \"#utility.yul\":13389:13421   */\n      slt\n        /* \"#utility.yul\":13386:13438   */\n      iszero\n      tag_928\n      jumpi\n        /* \"#utility.yul\":13434:13435   */\n      0x00\n        /* \"#utility.yul\":13431:13432   */\n      0x00\n        /* \"#utility.yul\":13424:13436   */\n      revert\n        /* \"#utility.yul\":13386:13438   */\n    tag_928:\n        /* \"#utility.yul\":13466:13475   */\n      dup2\n        /* \"#utility.yul\":13460:13476   */\n      mload\n        /* \"#utility.yul\":13505:13507   */\n      0x16\n        /* \"#utility.yul\":13498:13503   */\n      dup2\n        /* \"#utility.yul\":13495:13508   */\n      lt\n        /* \"#utility.yul\":13485:13526   */\n      tag_22\n      jumpi\n        /* \"#utility.yul\":13522:13523   */\n      0x00\n        /* \"#utility.yul\":13519:13520   */\n      0x00\n        /* \"#utility.yul\":13512:13524   */\n      revert\n        /* \"#utility.yul\":13561:13672   */\n    tag_771:\n        /* \"#utility.yul\":13646:13647   */\n      0x04\n        /* \"#utility.yul\":13639:13644   */\n      dup2\n        /* \"#utility.yul\":13636:13648   */\n      lt\n        /* \"#utility.yul\":13626:13666   */\n      tag_400\n      jumpi\n        /* \"#utility.yul\":13662:13663   */\n      0x00\n        /* \"#utility.yul\":13659:13660   */\n      0x00\n        /* \"#utility.yul\":13652:13664   */\n      revert\n        /* \"#utility.yul\":13677:13955   */\n    tag_156:\n        /* \"#utility.yul\":13764:13770   */\n      0x00\n        /* \"#utility.yul\":13817:13819   */\n      0x20\n        /* \"#utility.yul\":13805:13814   */\n      dup3\n        /* \"#utility.yul\":13796:13803   */\n      dup5\n        /* \"#utility.yul\":13792:13815   */\n      sub\n        /* \"#utility.yul\":13788:13820   */\n      slt\n        /* \"#utility.yul\":13785:13837   */\n      iszero\n      tag_933\n      jumpi\n        /* \"#utility.yul\":13833:13834   */\n      0x00\n        /* \"#utility.yul\":13830:13831   */\n      0x00\n        /* \"#utility.yul\":13823:13835   */\n      revert\n        /* \"#utility.yul\":13785:13837   */\n    tag_933:\n        /* \"#utility.yul\":13865:13874   */\n      dup2\n        /* \"#utility.yul\":13859:13875   */\n      mload\n        /* \"#utility.yul\":13884:13925   */\n      tag_22\n        /* \"#utility.yul\":13919:13924   */\n      dup2\n        /* \"#utility.yul\":13884:13925   */\n      tag_771\n      jump\t// in\n        /* \"#utility.yul\":13960:14238   */\n    tag_165:\n        /* \"#utility.yul\":14046:14052   */\n      0x00\n        /* \"#utility.yul\":14099:14101   */\n      0x20\n        /* \"#utility.yul\":14087:14096   */\n      dup3\n        /* \"#utility.yul\":14078:14085   */\n      dup5\n        /* \"#utility.yul\":14074:14097   */\n      sub\n        /* \"#utility.yul\":14070:14102   */\n      slt\n        /* \"#utility.yul\":14067:14119   */\n      iszero\n      tag_936\n      jumpi\n        /* \"#utility.yul\":14115:14116   */\n      0x00\n        /* \"#utility.yul\":14112:14113   */\n      0x00\n        /* \"#utility.yul\":14105:14117   */\n      revert\n        /* \"#utility.yul\":14067:14119   */\n    tag_936:\n        /* \"#utility.yul\":14147:14156   */\n      dup2\n        /* \"#utility.yul\":14141:14157   */\n      mload\n        /* \"#utility.yul\":14186:14189   */\n      0xd4\n        /* \"#utility.yul\":14179:14184   */\n      dup2\n        /* \"#utility.yul\":14176:14190   */\n      lt\n        /* \"#utility.yul\":14166:14208   */\n      tag_22\n      jumpi\n        /* \"#utility.yul\":14204:14205   */\n      0x00\n        /* \"#utility.yul\":14201:14202   */\n      0x00\n        /* \"#utility.yul\":14194:14206   */\n      revert\n        /* \"#utility.yul\":14243:14525   */\n    tag_174:\n        /* \"#utility.yul\":14333:14339   */\n      0x00\n        /* \"#utility.yul\":14386:14388   */\n      0x20\n        /* \"#utility.yul\":14374:14383   */\n      dup3\n        /* \"#utility.yul\":14365:14372   */\n      dup5\n        /* \"#utility.yul\":14361:14384   */\n      sub\n        /* \"#utility.yul\":14357:14389   */\n      slt\n        /* \"#utility.yul\":14354:14406   */\n      iszero\n      tag_939\n      jumpi\n        /* \"#utility.yul\":14402:14403   */\n      0x00\n        /* \"#utility.yul\":14399:14400   */\n      0x00\n        /* \"#utility.yul\":14392:14404   */\n      revert\n        /* \"#utility.yul\":14354:14406   */\n    tag_939:\n        /* \"#utility.yul\":14434:14443   */\n      dup2\n        /* \"#utility.yul\":14428:14444   */\n      mload\n        /* \"#utility.yul\":14473:14476   */\n      0x6a\n        /* \"#utility.yul\":14466:14471   */\n      dup2\n        /* \"#utility.yul\":14463:14477   */\n      lt\n        /* \"#utility.yul\":14453:14495   */\n      tag_22\n      jumpi\n        /* \"#utility.yul\":14491:14492   */\n      0x00\n        /* \"#utility.yul\":14488:14489   */\n      0x00\n        /* \"#utility.yul\":14481:14493   */\n      revert\n        /* \"#utility.yul\":14530:14812   */\n    tag_183:\n        /* \"#utility.yul\":14620:14626   */\n      0x00\n        /* \"#utility.yul\":14673:14675   */\n      0x20\n        /* \"#utility.yul\":14661:14670   */\n      dup3\n        /* \"#utility.yul\":14652:14659   */\n      dup5\n        /* \"#utility.yul\":14648:14671   */\n      sub\n        /* \"#utility.yul\":14644:14676   */\n      slt\n        /* \"#utility.yul\":14641:14693   */\n      iszero\n      tag_942\n      jumpi\n        /* \"#utility.yul\":14689:14690   */\n      0x00\n        /* \"#utility.yul\":14686:14687   */\n      0x00\n        /* \"#utility.yul\":14679:14691   */\n      revert\n        /* \"#utility.yul\":14641:14693   */\n    tag_942:\n        /* \"#utility.yul\":14721:14730   */\n      dup2\n        /* \"#utility.yul\":14715:14731   */\n      mload\n        /* \"#utility.yul\":14760:14763   */\n      0xa9\n        /* \"#utility.yul\":14753:14758   */\n      dup2\n        /* \"#utility.yul\":14750:14764   */\n      lt\n        /* \"#utility.yul\":14740:14782   */\n      tag_22\n      jumpi\n        /* \"#utility.yul\":14778:14779   */\n      0x00\n        /* \"#utility.yul\":14775:14776   */\n      0x00\n        /* \"#utility.yul\":14768:14780   */\n      revert\n        /* \"#utility.yul\":14817:15099   */\n    tag_192:\n        /* \"#utility.yul\":14907:14913   */\n      0x00\n        /* \"#utility.yul\":14960:14962   */\n      0x20\n        /* \"#utility.yul\":14948:14957   */\n      dup3\n        /* \"#utility.yul\":14939:14946   */\n      dup5\n        /* \"#utility.yul\":14935:14958   */\n      sub\n        /* \"#utility.yul\":14931:14963   */\n      slt\n        /* \"#utility.yul\":14928:14980   */\n      iszero\n      tag_945\n      jumpi\n        /* \"#utility.yul\":14976:14977   */\n      0x00\n        /* \"#utility.yul\":14973:14974   */\n      0x00\n        /* \"#utility.yul\":14966:14978   */\n      revert\n        /* \"#utility.yul\":14928:14980   */\n    tag_945:\n        /* \"#utility.yul\":15008:15017   */\n      dup2\n        /* \"#utility.yul\":15002:15018   */\n      mload\n        /* \"#utility.yul\":15047:15050   */\n      0x80\n        /* \"#utility.yul\":15040:15045   */\n      dup2\n        /* \"#utility.yul\":15037:15051   */\n      lt\n        /* \"#utility.yul\":15027:15069   */\n      tag_22\n      jumpi\n        /* \"#utility.yul\":15065:15066   */\n      0x00\n        /* \"#utility.yul\":15062:15063   */\n      0x00\n        /* \"#utility.yul\":15055:15067   */\n      revert\n        /* \"#utility.yul\":15104:15383   */\n    tag_234:\n        /* \"#utility.yul\":15192:15198   */\n      0x00\n        /* \"#utility.yul\":15245:15247   */\n      0x20\n        /* \"#utility.yul\":15233:15242   */\n      dup3\n        /* \"#utility.yul\":15224:15231   */\n      dup5\n        /* \"#utility.yul\":15220:15243   */\n      sub\n        /* \"#utility.yul\":15216:15248   */\n      slt\n        /* \"#utility.yul\":15213:15265   */\n      iszero\n      tag_948\n      jumpi\n        /* \"#utility.yul\":15261:15262   */\n      0x00\n        /* \"#utility.yul\":15258:15259   */\n      0x00\n        /* \"#utility.yul\":15251:15263   */\n      revert\n        /* \"#utility.yul\":15213:15265   */\n    tag_948:\n        /* \"#utility.yul\":15293:15302   */\n      dup2\n        /* \"#utility.yul\":15287:15303   */\n      mload\n        /* \"#utility.yul\":15332:15334   */\n      0x1a\n        /* \"#utility.yul\":15325:15330   */\n      dup2\n        /* \"#utility.yul\":15322:15335   */\n      lt\n        /* \"#utility.yul\":15312:15353   */\n      tag_22\n      jumpi\n        /* \"#utility.yul\":15349:15350   */\n      0x00\n        /* \"#utility.yul\":15346:15347   */\n      0x00\n        /* \"#utility.yul\":15339:15351   */\n      revert\n        /* \"#utility.yul\":15388:15667   */\n    tag_243:\n        /* \"#utility.yul\":15476:15482   */\n      0x00\n        /* \"#utility.yul\":15529:15531   */\n      0x20\n        /* \"#utility.yul\":15517:15526   */\n      dup3\n        /* \"#utility.yul\":15508:15515   */\n      dup5\n        /* \"#utility.yul\":15504:15527   */\n      sub\n        /* \"#utility.yul\":15500:15532   */\n      slt\n        /* \"#utility.yul\":15497:15549   */\n      iszero\n      tag_951\n      jumpi\n        /* \"#utility.yul\":15545:15546   */\n      0x00\n        /* \"#utility.yul\":15542:15543   */\n      0x00\n        /* \"#utility.yul\":15535:15547   */\n      revert\n        /* \"#utility.yul\":15497:15549   */\n    tag_951:\n        /* \"#utility.yul\":15577:15586   */\n      dup2\n        /* \"#utility.yul\":15571:15587   */\n      mload\n        /* \"#utility.yul\":15616:15618   */\n      0x1f\n        /* \"#utility.yul\":15609:15614   */\n      dup2\n        /* \"#utility.yul\":15606:15619   */\n      lt\n        /* \"#utility.yul\":15596:15637   */\n      tag_22\n      jumpi\n        /* \"#utility.yul\":15633:15634   */\n      0x00\n        /* \"#utility.yul\":15630:15631   */\n      0x00\n        /* \"#utility.yul\":15623:15635   */\n      revert\n        /* \"#utility.yul\":15672:15951   */\n    tag_252:\n        /* \"#utility.yul\":15760:15766   */\n      0x00\n        /* \"#utility.yul\":15813:15815   */\n      0x20\n        /* \"#utility.yul\":15801:15810   */\n      dup3\n        /* \"#utility.yul\":15792:15799   */\n      dup5\n        /* \"#utility.yul\":15788:15811   */\n      sub\n        /* \"#utility.yul\":15784:15816   */\n      slt\n        /* \"#utility.yul\":15781:15833   */\n      iszero\n      tag_954\n      jumpi\n        /* \"#utility.yul\":15829:15830   */\n      0x00\n        /* \"#utility.yul\":15826:15827   */\n      0x00\n        /* \"#utility.yul\":15819:15831   */\n      revert\n        /* \"#utility.yul\":15781:15833   */\n    tag_954:\n        /* \"#utility.yul\":15861:15870   */\n      dup2\n        /* \"#utility.yul\":15855:15871   */\n      mload\n        /* \"#utility.yul\":15900:15902   */\n      0x13\n        /* \"#utility.yul\":15893:15898   */\n      dup2\n        /* \"#utility.yul\":15890:15903   */\n      lt\n        /* \"#utility.yul\":15880:15921   */\n      tag_22\n      jumpi\n        /* \"#utility.yul\":15917:15918   */\n      0x00\n        /* \"#utility.yul\":15914:15915   */\n      0x00\n        /* \"#utility.yul\":15907:15919   */\n      revert\n        /* \"#utility.yul\":16528:16807   */\n    tag_279:\n        /* \"#utility.yul\":16616:16622   */\n      0x00\n        /* \"#utility.yul\":16669:16671   */\n      0x20\n        /* \"#utility.yul\":16657:16666   */\n      dup3\n        /* \"#utility.yul\":16648:16655   */\n      dup5\n        /* \"#utility.yul\":16644:16667   */\n      sub\n        /* \"#utility.yul\":16640:16672   */\n      slt\n        /* \"#utility.yul\":16637:16689   */\n      iszero\n      tag_963\n      jumpi\n        /* \"#utility.yul\":16685:16686   */\n      0x00\n        /* \"#utility.yul\":16682:16683   */\n      0x00\n        /* \"#utility.yul\":16675:16687   */\n      revert\n        /* \"#utility.yul\":16637:16689   */\n    tag_963:\n        /* \"#utility.yul\":16717:16726   */\n      dup2\n        /* \"#utility.yul\":16711:16727   */\n      mload\n        /* \"#utility.yul\":16756:16758   */\n      0x15\n        /* \"#utility.yul\":16749:16754   */\n      dup2\n        /* \"#utility.yul\":16746:16759   */\n      lt\n        /* \"#utility.yul\":16736:16777   */\n      tag_22\n      jumpi\n        /* \"#utility.yul\":16773:16774   */\n      0x00\n        /* \"#utility.yul\":16770:16771   */\n      0x00\n        /* \"#utility.yul\":16763:16775   */\n      revert\n        /* \"#utility.yul\":17097:17377   */\n    tag_297:\n        /* \"#utility.yul\":17185:17191   */\n      0x00\n        /* \"#utility.yul\":17238:17240   */\n      0x20\n        /* \"#utility.yul\":17226:17235   */\n      dup3\n        /* \"#utility.yul\":17217:17224   */\n      dup5\n        /* \"#utility.yul\":17213:17236   */\n      sub\n        /* \"#utility.yul\":17209:17241   */\n      slt\n        /* \"#utility.yul\":17206:17258   */\n      iszero\n      tag_969\n      jumpi\n        /* \"#utility.yul\":17254:17255   */\n      0x00\n        /* \"#utility.yul\":17251:17252   */\n      0x00\n        /* \"#utility.yul\":17244:17256   */\n      revert\n        /* \"#utility.yul\":17206:17258   */\n    tag_969:\n        /* \"#utility.yul\":17286:17295   */\n      dup2\n        /* \"#utility.yul\":17280:17296   */\n      mload\n        /* \"#utility.yul\":17325:17328   */\n      0xc3\n        /* \"#utility.yul\":17318:17323   */\n      dup2\n        /* \"#utility.yul\":17315:17329   */\n      lt\n        /* \"#utility.yul\":17305:17347   */\n      tag_22\n      jumpi\n        /* \"#utility.yul\":17343:17344   */\n      0x00\n        /* \"#utility.yul\":17340:17341   */\n      0x00\n        /* \"#utility.yul\":17333:17345   */\n      revert\n        /* \"#utility.yul\":17382:17666   */\n    tag_306:\n        /* \"#utility.yul\":17474:17480   */\n      0x00\n        /* \"#utility.yul\":17527:17529   */\n      0x20\n        /* \"#utility.yul\":17515:17524   */\n      dup3\n        /* \"#utility.yul\":17506:17513   */\n      dup5\n        /* \"#utility.yul\":17502:17525   */\n      sub\n        /* \"#utility.yul\":17498:17530   */\n      slt\n        /* \"#utility.yul\":17495:17547   */\n      iszero\n      tag_972\n      jumpi\n        /* \"#utility.yul\":17543:17544   */\n      0x00\n        /* \"#utility.yul\":17540:17541   */\n      0x00\n        /* \"#utility.yul\":17533:17545   */\n      revert\n        /* \"#utility.yul\":17495:17547   */\n    tag_972:\n        /* \"#utility.yul\":17575:17584   */\n      dup2\n        /* \"#utility.yul\":17569:17585   */\n      mload\n        /* \"#utility.yul\":17614:17617   */\n      0x85\n        /* \"#utility.yul\":17607:17612   */\n      dup2\n        /* \"#utility.yul\":17604:17618   */\n      lt\n        /* \"#utility.yul\":17594:17636   */\n      tag_22\n      jumpi\n        /* \"#utility.yul\":17632:17633   */\n      0x00\n        /* \"#utility.yul\":17629:17630   */\n      0x00\n        /* \"#utility.yul\":17622:17634   */\n      revert\n        /* \"#utility.yul\":17671:17955   */\n    tag_315:\n        /* \"#utility.yul\":17763:17769   */\n      0x00\n        /* \"#utility.yul\":17816:17818   */\n      0x20\n        /* \"#utility.yul\":17804:17813   */\n      dup3\n        /* \"#utility.yul\":17795:17802   */\n      dup5\n        /* \"#utility.yul\":17791:17814   */\n      sub\n        /* \"#utility.yul\":17787:17819   */\n      slt\n        /* \"#utility.yul\":17784:17836   */\n      iszero\n      tag_975\n      jumpi\n        /* \"#utility.yul\":17832:17833   */\n      0x00\n        /* \"#utility.yul\":17829:17830   */\n      0x00\n        /* \"#utility.yul\":17822:17834   */\n      revert\n        /* \"#utility.yul\":17784:17836   */\n    tag_975:\n        /* \"#utility.yul\":17864:17873   */\n      dup2\n        /* \"#utility.yul\":17858:17874   */\n      mload\n        /* \"#utility.yul\":17903:17906   */\n      0x83\n        /* \"#utility.yul\":17896:17901   */\n      dup2\n        /* \"#utility.yul\":17893:17907   */\n      lt\n        /* \"#utility.yul\":17883:17925   */\n      tag_22\n      jumpi\n        /* \"#utility.yul\":17921:17922   */\n      0x00\n        /* \"#utility.yul\":17918:17919   */\n      0x00\n        /* \"#utility.yul\":17911:17923   */\n      revert\n        /* \"#utility.yul\":17960:18244   */\n    tag_324:\n        /* \"#utility.yul\":18052:18058   */\n      0x00\n        /* \"#utility.yul\":18105:18107   */\n      0x20\n        /* \"#utility.yul\":18093:18102   */\n      dup3\n        /* \"#utility.yul\":18084:18091   */\n      dup5\n        /* \"#utility.yul\":18080:18103   */\n      sub\n        /* \"#utility.yul\":18076:18108   */\n      slt\n        /* \"#utility.yul\":18073:18125   */\n      iszero\n      tag_978\n      jumpi\n        /* \"#utility.yul\":18121:18122   */\n      0x00\n        /* \"#utility.yul\":18118:18119   */\n      0x00\n        /* \"#utility.yul\":18111:18123   */\n      revert\n        /* \"#utility.yul\":18073:18125   */\n    tag_978:\n        /* \"#utility.yul\":18153:18162   */\n      dup2\n        /* \"#utility.yul\":18147:18163   */\n      mload\n        /* \"#utility.yul\":18192:18195   */\n      0x7a\n        /* \"#utility.yul\":18185:18190   */\n      dup2\n        /* \"#utility.yul\":18182:18196   */\n      lt\n        /* \"#utility.yul\":18172:18214   */\n      tag_22\n      jumpi\n        /* \"#utility.yul\":18210:18211   */\n      0x00\n        /* \"#utility.yul\":18207:18208   */\n      0x00\n        /* \"#utility.yul\":18200:18212   */\n      revert\n        /* \"#utility.yul\":18807:18934   */\n    tag_389:\n        /* \"#utility.yul\":18868:18878   */\n      0x4e487b71\n        /* \"#utility.yul\":18863:18866   */\n      0xe0\n        /* \"#utility.yul\":18859:18879   */\n      shl\n        /* \"#utility.yul\":18856:18857   */\n      0x00\n        /* \"#utility.yul\":18849:18880   */\n      mstore\n        /* \"#utility.yul\":18899:18903   */\n      0x12\n        /* \"#utility.yul\":18896:18897   */\n      0x04\n        /* \"#utility.yul\":18889:18904   */\n      mstore\n        /* \"#utility.yul\":18923:18927   */\n      0x24\n        /* \"#utility.yul\":18920:18921   */\n      0x00\n        /* \"#utility.yul\":18913:18928   */\n      revert\n        /* \"#utility.yul\":19191:19318   */\n    tag_670:\n        /* \"#utility.yul\":19252:19262   */\n      0x4e487b71\n        /* \"#utility.yul\":19247:19250   */\n      0xe0\n        /* \"#utility.yul\":19243:19263   */\n      shl\n        /* \"#utility.yul\":19240:19241   */\n      0x00\n        /* \"#utility.yul\":19233:19264   */\n      mstore\n        /* \"#utility.yul\":19283:19287   */\n      0x32\n        /* \"#utility.yul\":19280:19281   */\n      0x04\n        /* \"#utility.yul\":19273:19288   */\n      mstore\n        /* \"#utility.yul\":19307:19311   */\n      0x24\n        /* \"#utility.yul\":19304:19305   */\n      0x00\n        /* \"#utility.yul\":19297:19312   */\n      revert\n\n    auxdata: 0xa2646970667358221220dac766c70188036ff180f120e518323fffbf178c33dd1647e5ce4e0f642b740f64736f6c63430008210033\n}\n",
				"bytecode": {
					"linkReferences": {},
					"object": "60c060405234801561000f575f5ffd5b5060405161296d38038061296d83398101604081905261002e9161005c565b6001600160a01b039182166080521660a052610094565b6001600160a01b0381168114610059575f5ffd5b50565b5f5f6040838503121561006d575f5ffd5b825161007881610045565b602084015190925061008981610045565b809150509250929050565b60805160a05161281261015b5f395f8181608c01528181610c4601528181610cfe01528181610db801528181610e7201528181610f2a01528181610fe20152818161109a015281816111520152818161120c015281816112c6015261137e01525f8181604801528181610305015281816103bd0152818161047701528181610531015281816105e9015281816106a10152818161075b01528181610813015281816108cb0152818161098501528181610a3f01528181610af701526114ac01526128125ff3fe608060405234801561000f575f5ffd5b506004361061003f575f3560e01c8063033b42a814610043578063069157c014610087578063fd20cb60146100ae575b5f5ffd5b61006a7f000000000000000000000000000000000000000000000000000000000000000081565b6040516001600160a01b0390911681526020015b60405180910390f35b61006a7f000000000000000000000000000000000000000000000000000000000000000081565b6100c16100bc366004611ff2565b6100ce565b60405161007e91906124c3565b6100d6611f09565b5f6100e185846115d0565b90505f601061ffff871610156100ff576100fc8660016124e9565b90505b610107611f09565b60408051600f808252610200820190925290816020015b6101596040805160808101909152805f81525f602082018190526040820152606001611fd7604080518082019091525f808252602082015290565b81526020019060019003908161011e575050815261ffff8781166040830152606082018690528216608082015263f486570063f666efcf61019b85838361163a565b63ffffffff1660a0840152506101b59050836119c8611665565b6101c05760016101c2565b5f5b8160c0019060018111156101d8576101d861202b565b908160018111156101eb576101eb61202b565b905250608081015161ffff16156102d2575f6001826080015161020e9190612503565b61ffff16905060048114158015610226575060058114155b8015610233575060068114155b8015610240575060078114155b801561024d575060088114155b801561025a5750600b8114155b80156102675750600d8114155b156102cc576102768282611682565b8661ffff16600581111561028c5761028c61202b565b8260e0019060058111156102a2576102a261202b565b908160058111156102b5576102b561202b565b9052506102c1826116b8565b5092506115c9915050565b50611495565b5f8160c0015160018111156102e9576102e961202b565b03610c2f57604051630f120bcf60e41b81526001600160a01b037f0000000000000000000000000000000000000000000000000000000000000000169063f120bcf09061033a90869060040161251d565b602060405180830381865afa158015610355573d5f5f3e3d5ffd5b505050506040513d601f19601f820116820180604052508101906103799190612534565b816101000190601c8111156103905761039061202b565b9081601c8111156103a3576103a361202b565b905250604051633775819b60e01b81526001600160a01b037f00000000000000000000000000000000000000000000000000000000000000001690633775819b906103f49084908790600401612552565b602060405180830381865afa15801561040f573d5f5f3e3d5ffd5b505050506040513d601f19601f820116820180604052508101906104339190612589565b816101200190601681111561044a5761044a61202b565b9081601681111561045d5761045d61202b565b905250604051632cbd5f5160e01b81526001600160a01b037f00000000000000000000000000000000000000000000000000000000000000001690632cbd5f51906104ae9084908790600401612552565b602060405180830381865afa1580156104c9573d5f5f3e3d5ffd5b505050506040513d601f19601f820116820180604052508101906104ed91906125a4565b81610140019060138111156105045761050461202b565b908160138111156105175761051761202b565b90525060405163146e3eef60e01b81526001600160a01b037f0000000000000000000000000000000000000000000000000000000000000000169063146e3eef9061056690869060040161251d565b602060405180830381865afa158015610581573d5f5f3e3d5ffd5b505050506040513d601f19601f820116820180604052508101906105a591906125ce565b81610160019060088111156105bc576105bc61202b565b908160088111156105cf576105cf61202b565b90525060405163757d288560e11b81526001600160a01b037f0000000000000000000000000000000000000000000000000000000000000000169063eafa510a9061061e90869060040161251d565b602060405180830381865afa158015610639573d5f5f3e3d5ffd5b505050506040513d601f19601f8201168201806040525081019061065d91906125ce565b81610180019060088111156106745761067461202b565b908160088111156106875761068761202b565b905250604051633e8af2ff60e01b81526001600160a01b037f00000000000000000000000000000000000000000000000000000000000000001690633e8af2ff906106d89084908790600401612552565b602060405180830381865afa1580156106f3573d5f5f3e3d5ffd5b505050506040513d601f19601f8201168201806040525081019061071791906125e9565b816101c00190605781111561072e5761072e61202b565b908160578111156107415761074161202b565b90525060405163e744956560e01b81526001600160a01b037f0000000000000000000000000000000000000000000000000000000000000000169063e74495659061079090869060040161251d565b602060405180830381865afa1580156107ab573d5f5f3e3d5ffd5b505050506040513d601f19601f820116820180604052508101906107cf9190612607565b816101e0019060158111156107e6576107e661202b565b908160158111156107f9576107f961202b565b905250604051634e87244f60e01b81526001600160a01b037f00000000000000000000000000000000000000000000000000000000000000001690634e87244f9061084890869060040161251d565b602060405180830381865afa158015610863573d5f5f3e3d5ffd5b505050506040513d601f19601f820116820180604052508101906108879190612631565b816101a00190600381111561089e5761089e61202b565b908160038111156108b1576108b161202b565b905250604051630b8b593b60e21b81526001600160a01b037f00000000000000000000000000000000000000000000000000000000000000001690632e2d64ec906109029084908790600401612552565b602060405180830381865afa15801561091d573d5f5f3e3d5ffd5b505050506040513d601f19601f82011682018060405250810190610941919061264c565b81610200019060d38111156109585761095861202b565b908160d381111561096b5761096b61202b565b90525060405163088e02a560e31b81526001600160a01b037f000000000000000000000000000000000000000000000000000000000000000016906344701528906109bc9084908790600401612552565b602060405180830381865afa1580156109d7573d5f5f3e3d5ffd5b505050506040513d601f19601f820116820180604052508101906109fb919061266a565b8161022001906069811115610a1257610a1261202b565b90816069811115610a2557610a2561202b565b905250604051634f4f0d0760e01b81526001600160a01b037f00000000000000000000000000000000000000000000000000000000000000001690634f4f0d0790610a7490869060040161251d565b602060405180830381865afa158015610a8f573d5f5f3e3d5ffd5b505050506040513d601f19601f82011682018060405250810190610ab39190612688565b81610240019060a8811115610aca57610aca61202b565b908160a8811115610add57610add61202b565b9052506040516321595d4f60e11b81526001600160a01b037f000000000000000000000000000000000000000000000000000000000000000016906342b2ba9e90610b2c90869060040161251d565b602060405180830381865afa158015610b47573d5f5f3e3d5ffd5b505050506040513d601f19601f82011682018060405250810190610b6b91906126a6565b816102600190607f811115610b8257610b8261202b565b9081607f811115610b9557610b9561202b565b905250610ba1816116d7565b610baa816116f4565b610bb381611731565b610bbc8161176e565b610bc5816117ab565b610bce816117e8565b15610be157610bdc81611809565b610bea565b610bea81611846565b610bf381611883565b610bfc816118c0565b15610c0f57610c0a816118d9565b610c18565b610c1881611916565b610c2181611953565b610c2a816119e6565b611495565b6040516306ad373360e51b81526001600160a01b037f0000000000000000000000000000000000000000000000000000000000000000169063d5a6e66090610c7b90869060040161251d565b602060405180830381865afa158015610c96573d5f5f3e3d5ffd5b505050506040513d601f19601f82011682018060405250810190610cba91906126c4565b8161028001906019811115610cd157610cd161202b565b90816019811115610ce457610ce461202b565b90525060405163f17076c760e01b81526001600160a01b037f0000000000000000000000000000000000000000000000000000000000000000169063f17076c790610d359084908790600401612552565b602060405180830381865afa158015610d50573d5f5f3e3d5ffd5b505050506040513d601f19601f82011682018060405250810190610d7491906126e2565b816102a00190601e811115610d8b57610d8b61202b565b9081601e811115610d9e57610d9e61202b565b905250604051637829af6960e01b81526001600160a01b037f00000000000000000000000000000000000000000000000000000000000000001690637829af6990610def9084908790600401612552565b602060405180830381865afa158015610e0a573d5f5f3e3d5ffd5b505050506040513d601f19601f82011682018060405250810190610e2e9190612700565b816102c001906012811115610e4557610e4561202b565b90816012811115610e5857610e5861202b565b9052506040516329814be560e01b81526001600160a01b037f000000000000000000000000000000000000000000000000000000000000000016906329814be590610ea790869060040161251d565b602060405180830381865afa158015610ec2573d5f5f3e3d5ffd5b505050506040513d601f19601f82011682018060405250810190610ee691906125ce565b816102e001906008811115610efd57610efd61202b565b90816008811115610f1057610f1061202b565b905250604051638e57a73760e01b81526001600160a01b037f00000000000000000000000000000000000000000000000000000000000000001690638e57a73790610f5f90869060040161251d565b602060405180830381865afa158015610f7a573d5f5f3e3d5ffd5b505050506040513d601f19601f82011682018060405250810190610f9e91906125ce565b8161030001906008811115610fb557610fb561202b565b90816008811115610fc857610fc861202b565b905250604051637067a81d60e11b81526001600160a01b037f0000000000000000000000000000000000000000000000000000000000000000169063e0cf503a9061101790869060040161251d565b602060405180830381865afa158015611032573d5f5f3e3d5ffd5b505050506040513d601f19601f82011682018060405250810190611056919061271e565b816103400190601481111561106d5761106d61202b565b908160148111156110805761108061202b565b905250604051633a4a9d7160e11b81526001600160a01b037f000000000000000000000000000000000000000000000000000000000000000016906374953ae2906110cf90869060040161251d565b602060405180830381865afa1580156110ea573d5f5f3e3d5ffd5b505050506040513d601f19601f8201168201806040525081019061110e9190612631565b81610320019060038111156111255761112561202b565b908160038111156111385761113861202b565b9052506040516333050cbd60e11b81526001600160a01b037f0000000000000000000000000000000000000000000000000000000000000000169063660a197a906111899084908790600401612552565b602060405180830381865afa1580156111a4573d5f5f3e3d5ffd5b505050506040513d601f19601f820116820180604052508101906111c8919061273c565b81610360019060c28111156111df576111df61202b565b908160c28111156111f2576111f261202b565b9052506040516340aba8db60e01b81526001600160a01b037f000000000000000000000000000000000000000000000000000000000000000016906340aba8db906112439084908790600401612552565b602060405180830381865afa15801561125e573d5f5f3e3d5ffd5b505050506040513d601f19601f82011682018060405250810190611282919061275a565b81610380019060848111156112995761129961202b565b908160848111156112ac576112ac61202b565b905250604051632743c88f60e01b81526001600160a01b037f00000000000000000000000000000000000000000000000000000000000000001690632743c88f906112fb90869060040161251d565b602060405180830381865afa158015611316573d5f5f3e3d5ffd5b505050506040513d601f19601f8201168201806040525081019061133a9190612778565b816103a0019060828111156113515761135161202b565b908160828111156113645761136461202b565b90525060405163a063f74f60e01b81526001600160a01b037f0000000000000000000000000000000000000000000000000000000000000000169063a063f74f906113b390869060040161251d565b602060405180830381865afa1580156113ce573d5f5f3e3d5ffd5b505050506040513d601f19601f820116820180604052508101906113f29190612796565b816103c0019060798111156114095761140961202b565b9081607981111561141c5761141c61202b565b90525061142881611a23565b61143181611a40565b61143a81611a7d565b61144381611aba565b61144c81611af7565b61145581611b34565b61145e81611b71565b61146781611bae565b1561147a5761147581611bc7565b611483565b61148381611c04565b61148c81611c41565b61149581611ca9565b604051637ee8fa8d60e11b81526001600160a01b037f0000000000000000000000000000000000000000000000000000000000000000169063fdd1f51a906114e39084908790600401612552565b602060405180830381865afa1580156114fe573d5f5f3e3d5ffd5b505050506040513d601f19601f820116820180604052508101906115229190612589565b816103e0019060168111156115395761153961202b565b9081601681111561154c5761154c61202b565b90525061155881611ce6565b15801561156b575061156981611cff565b155b156115795761157981611d18565b8561ffff16600581111561158f5761158f61202b565b8160e0019060058111156115a5576115a561202b565b908160058111156115b8576115b861202b565b9052506115c4816116b8565b925050505b9392505050565b604080518082019091525f80825260208201526040516001600160f01b031960f085901b166020820152602281018390525f9060420160408051601f19818403018152828252805160209182012083830190925290825261ffff8616908201529150505b92915050565b5f6001838303018061164b86611d55565b81611658576116586127b4565b0684019150509392505050565b5f8161ffff1661167984600161271061163a565b11159392505050565b5f81600f8111156116955761169561202b565b90506116b3835f83600f8111156116ae576116ae61202b565b611d9e565b505050565b6116d48160018360e0015160058111156116ae576116ae61202b565b50565b6116d4816002836101000151601c8111156116ae576116ae61202b565b5f816101200151601681111561170c5761170c61202b565b036117145750565b6116d481600383610120015160168111156116ae576116ae61202b565b5f81610140015160138111156117495761174961202b565b036117515750565b6116d481600483610140015160138111156116ae576116ae61202b565b5f81610160015160088111156117865761178661202b565b0361178e5750565b6116d481600583610160015160088111156116ae576116ae61202b565b5f81610180015160088111156117c3576117c361202b565b036117cb5750565b6116d481600683610180015160088111156116ae576116ae61202b565b5f80826101c0015160578111156118015761180161202b565b141592915050565b5f816101c0015160578111156118215761182161202b565b036118295750565b6116d4816007836101c0015160578111156116ae576116ae61202b565b5f816101e00151601581111561185e5761185e61202b565b036118665750565b6116d4816008836101e0015160158111156116ae576116ae61202b565b5f816101a00151600381111561189b5761189b61202b565b036118a35750565b6116d4816009836101a0015160038111156116ae576116ae61202b565b5f8082610240015160a88111156118015761180161202b565b5f81610220015160698111156118f1576118f161202b565b036118f95750565b6116d481600b83610220015160698111156116ae576116ae61202b565b5f81610200015160d381111561192e5761192e61202b565b036119365750565b6116d481600a83610200015160d38111156116ae576116ae61202b565b5f81610240015160a881111561196b5761196b61202b565b036119735750565b61199081600c83610240015160a88111156116ae576116ae61202b565b6016816101000151601c8111156119a9576119a961202b565b036119bb576119bb81601a6003611e5a565b6015816101000151601c8111156119d4576119d461202b565b036116d4576116d481601a6002611e5a565b5f816102600151607f8111156119fe576119fe61202b565b03611a065750565b6116d481600d836102600151607f8111156116ae576116ae61202b565b6116d481600e83610280015160198111156116ae576116ae61202b565b5f816102a00151601e811115611a5857611a5861202b565b03611a605750565b6116d481600f836102a00151601e8111156116ae576116ae61202b565b5f816102c001516012811115611a9557611a9561202b565b03611a9d5750565b6116d4816010836102c0015160128111156116ae576116ae61202b565b5f816102e001516008811115611ad257611ad261202b565b03611ada5750565b6116d4816011836102e0015160088111156116ae576116ae61202b565b5f8161030001516008811115611b0f57611b0f61202b565b03611b175750565b6116d481601283610300015160088111156116ae576116ae61202b565b5f8161034001516014811115611b4c57611b4c61202b565b03611b545750565b6116d481601383610340015160148111156116ae576116ae61202b565b5f8161032001516003811115611b8957611b8961202b565b03611b915750565b6116d481601483610320015160038111156116ae576116ae61202b565b5f80826103a0015160828111156118015761180161202b565b5f8161038001516084811115611bdf57611bdf61202b565b03611be75750565b6116d481601683610380015160848111156116ae576116ae61202b565b5f81610360015160c2811115611c1c57611c1c61202b565b03611c245750565b6116d481601583610360015160c28111156116ae576116ae61202b565b5f816103a001516082811115611c5957611c5961202b565b03611c615750565b611c7e816017836103a0015160828111156116ae576116ae61202b565b60158161028001516019811115611c9757611c9761202b565b036116d4576116d481601a6001611e5a565b5f816103c001516079811115611cc157611cc161202b565b03611cc95750565b6116d4816018836103c0015160798111156116ae576116ae61202b565b5f8082610340015160148111156118015761180161202b565b5f80826101e0015160158111156118015761180161202b565b5f816103e001516016811115611d3057611d3061202b565b03611d385750565b6116d4816019836103e0015160168111156116ae576116ae61202b565b602080820180516001019081905282516040515f93611d7e939101918252602082015260400190565b60408051601f198184030181529190528051602090910120918290525090565b611dd96040805160808101909152805f81525f602082018190526040820152606001611fd7604080518082019091525f808252602082015290565b8083601a811115611dec57611dec61202b565b9081601a811115611dff57611dff61202b565b90525060ff8083166020808401919091525f60408401528551908601518151849391909116908110611e3357611e336127c8565b602002602001018190525083602001805180919060010160ff1660ff168152505050505050565b604080518082019091525f80825260208201528083601a811115611e8057611e8061202b565b9081601a811115611e9357611e9361202b565b90525060ff808316602080840191909152850151855180515f199092019092169160019183908110611ec757611ec76127c8565b6020026020010151604001901515908115158152505081855f01518281518110611ef357611ef36127c8565b6020026020010151606001819052505050505050565b604080516104008101825260608082525f6020830181905292820183905281018290526080810182905260a081018290529060c082019081526020015f81526020015f81526020015f81526020015f81526020015f81526020015f81526020015f81526020015f81526020015f81526020015f81526020015f81526020015f81526020015f81526020015f81526020015f81526020015f81526020015f81526020015f81526020015f81526020015f81526020015f81526020015f81526020015f81526020015f81526020015f5b905290565b803561ffff81168114611fed575f5ffd5b919050565b5f5f5f60608486031215612004575f5ffd5b61200d84611fdc565b925061201b60208501611fdc565b9150604084013590509250925092565b634e487b7160e01b5f52602160045260245ffd5b601b811061204f5761204f61202b565b9052565b5f8151808452602084019350602083015f5b828110156120c957815161207a87825161203f565b60ff6020820151166020880152604081015115156040880152606081015190506120a860608801825161203f565b60209081015160ff16608088015260a0909601959190910190600101612065565b5093949350505050565b6002811061204f5761204f61202b565b6006811061204f5761204f61202b565b601d811061204f5761204f61202b565b6017811061204f5761204f61202b565b6014811061204f5761204f61202b565b6009811061204f5761204f61202b565b6004811061204f5761204f61202b565b6058811061204f5761204f61202b565b6016811061204f5761204f61202b565b60d4811061204f5761204f61202b565b606a811061204f5761204f61202b565b60a9811061204f5761204f61202b565b6080811061204f5761204f61202b565b601a811061204f5761204f61202b565b601f811061204f5761204f61202b565b6013811061204f5761204f61202b565b6015811061204f5761204f61202b565b60c3811061204f5761204f61202b565b6085811061204f5761204f61202b565b6083811061204f5761204f61202b565b607a811061204f5761204f61202b565b5f81516104008452612239610400850182612053565b9050602083015161224f602086018260ff169052565b506040830151612265604086018261ffff169052565b50606083015160608501526080830151612285608086018261ffff169052565b5060a083015161229d60a086018263ffffffff169052565b5060c08301516122b060c08601826120d3565b5060e08301516122c360e08601826120e3565b506101008301516122d86101008601826120f3565b506101208301516122ed610120860182612103565b50610140830151612302610140860182612113565b50610160830151612317610160860182612123565b5061018083015161232c610180860182612123565b506101a08301516123416101a0860182612133565b506101c08301516123566101c0860182612143565b506101e083015161236b6101e0860182612153565b50610200830151612380610200860182612163565b50610220830151612395610220860182612173565b506102408301516123aa610240860182612183565b506102608301516123bf610260860182612193565b506102808301516123d46102808601826121a3565b506102a08301516123e96102a08601826121b3565b506102c08301516123fe6102c08601826121c3565b506102e08301516124136102e0860182612123565b50610300830151612428610300860182612123565b5061032083015161243d610320860182612133565b506103408301516124526103408601826121d3565b506103608301516124676103608601826121e3565b5061038083015161247c6103808601826121f3565b506103a08301516124916103a0860182612203565b506103c08301516124a66103c0860182612213565b506103e08301516124bb6103e0860182612103565b509392505050565b602081525f6115c96020830184612223565b634e487b7160e01b5f52601160045260245ffd5b61ffff8181168382160190811115611634576116346124d5565b61ffff8281168282160390811115611634576116346124d5565b815181526020808301519082015260408101611634565b5f60208284031215612544575f5ffd5b8151601d81106115c9575f5ffd5b606081525f6125646060830185612223565b90506115c9602083018480518252602090810151910152565b601781106116d4575f5ffd5b5f60208284031215612599575f5ffd5b81516115c98161257d565b5f602082840312156125b4575f5ffd5b8151601481106115c9575f5ffd5b600981106116d4575f5ffd5b5f602082840312156125de575f5ffd5b81516115c9816125c2565b5f602082840312156125f9575f5ffd5b8151605881106115c9575f5ffd5b5f60208284031215612617575f5ffd5b8151601681106115c9575f5ffd5b600481106116d4575f5ffd5b5f60208284031215612641575f5ffd5b81516115c981612625565b5f6020828403121561265c575f5ffd5b815160d481106115c9575f5ffd5b5f6020828403121561267a575f5ffd5b8151606a81106115c9575f5ffd5b5f60208284031215612698575f5ffd5b815160a981106115c9575f5ffd5b5f602082840312156126b6575f5ffd5b8151608081106115c9575f5ffd5b5f602082840312156126d4575f5ffd5b8151601a81106115c9575f5ffd5b5f602082840312156126f2575f5ffd5b8151601f81106115c9575f5ffd5b5f60208284031215612710575f5ffd5b8151601381106115c9575f5ffd5b5f6020828403121561272e575f5ffd5b8151601581106115c9575f5ffd5b5f6020828403121561274c575f5ffd5b815160c381106115c9575f5ffd5b5f6020828403121561276a575f5ffd5b8151608581106115c9575f5ffd5b5f60208284031215612788575f5ffd5b8151608381106115c9575f5ffd5b5f602082840312156127a6575f5ffd5b8151607a81106115c9575f5ffd5b634e487b7160e01b5f52601260045260245ffd5b634e487b7160e01b5f52603260045260245ffdfea2646970667358221220dac766c70188036ff180f120e518323fffbf178c33dd1647e5ce4e0f642b740f64736f6c63430008210033",
					"opcodes": "PUSH1 0xC0 PUSH1 0x40 MSTORE CALLVALUE DUP1 ISZERO PUSH2 0xF JUMPI PUSH0 PUSH0 REVERT JUMPDEST POP PUSH1 0x40 MLOAD PUSH2 0x296D CODESIZE SUB DUP1 PUSH2 0x296D DUP4 CODECOPY DUP2 ADD PUSH1 0x40 DUP2 SWAP1 MSTORE PUSH2 0x2E SWAP2 PUSH2 0x5C JUMP JUMPDEST PUSH1 0x1 PUSH1 0x1 PUSH1 0xA0 SHL SUB SWAP2 DUP3 AND PUSH1 0x80 MSTORE AND PUSH1 0xA0 MSTORE PUSH2 0x94 JUMP JUMPDEST PUSH1 0x1 PUSH1 0x1 PUSH1 0xA0 SHL SUB DUP2 AND DUP2 EQ PUSH2 0x59 JUMPI PUSH0 PUSH0 REVERT JUMPDEST POP JUMP JUMPDEST PUSH0 PUSH0 PUSH1 0x40 DUP4 DUP6 SUB SLT ISZERO PUSH2 0x6D JUMPI PUSH0 PUSH0 REVERT JUMPDEST DUP3 MLOAD PUSH2 0x78 DUP2 PUSH2 0x45 JUMP JUMPDEST PUSH1 0x20 DUP5 ADD MLOAD SWAP1 SWAP3 POP PUSH2 0x89 DUP2 PUSH2 0x45 JUMP JUMPDEST DUP1 SWAP2 POP POP SWAP3 POP SWAP3 SWAP1 POP JUMP JUMPDEST PUSH1 0x80 MLOAD PUSH1 0xA0 MLOAD PUSH2 0x2812 PUSH2 0x15B PUSH0 CODECOPY PUSH0 DUP2 DUP2 PUSH1 0x8C ADD MSTORE DUP2 DUP2 PUSH2 0xC46 ADD MSTORE DUP2 DUP2 PUSH2 0xCFE ADD MSTORE DUP2 DUP2 PUSH2 0xDB8 ADD MSTORE DUP2 DUP2 PUSH2 0xE72 ADD MSTORE DUP2 DUP2 PUSH2 0xF2A ADD MSTORE DUP2 DUP2 PUSH2 0xFE2 ADD MSTORE DUP2 DUP2 PUSH2 0x109A ADD MSTORE DUP2 DUP2 PUSH2 0x1152 ADD MSTORE DUP2 DUP2 PUSH2 0x120C ADD MSTORE DUP2 DUP2 PUSH2 0x12C6 ADD MSTORE PUSH2 0x137E ADD MSTORE PUSH0 DUP2 DUP2 PUSH1 0x48 ADD MSTORE DUP2 DUP2 PUSH2 0x305 ADD MSTORE DUP2 DUP2 PUSH2 0x3BD ADD MSTORE DUP2 DUP2 PUSH2 0x477 ADD MSTORE DUP2 DUP2 PUSH2 0x531 ADD MSTORE DUP2 DUP2 PUSH2 0x5E9 ADD MSTORE DUP2 DUP2 PUSH2 0x6A1 ADD MSTORE DUP2 DUP2 PUSH2 0x75B ADD MSTORE DUP2 DUP2 PUSH2 0x813 ADD MSTORE DUP2 DUP2 PUSH2 0x8CB ADD MSTORE DUP2 DUP2 PUSH2 0x985 ADD MSTORE DUP2 DUP2 PUSH2 0xA3F ADD MSTORE DUP2 DUP2 PUSH2 0xAF7 ADD MSTORE PUSH2 0x14AC ADD MSTORE PUSH2 0x2812 PUSH0 RETURN INVALID PUSH1 0x80 PUSH1 0x40 MSTORE CALLVALUE DUP1 ISZERO PUSH2 0xF JUMPI PUSH0 PUSH0 REVERT JUMPDEST POP PUSH1 0x4 CALLDATASIZE LT PUSH2 0x3F JUMPI PUSH0 CALLDATALOAD PUSH1 0xE0 SHR DUP1 PUSH4 0x33B42A8 EQ PUSH2 0x43 JUMPI DUP1 PUSH4 0x69157C0 EQ PUSH2 0x87 JUMPI DUP1 PUSH4 0xFD20CB60 EQ PUSH2 0xAE JUMPI JUMPDEST PUSH0 PUSH0 REVERT JUMPDEST PUSH2 0x6A PUSH32 0x0 DUP2 JUMP JUMPDEST PUSH1 0x40 MLOAD PUSH1 0x1 PUSH1 0x1 PUSH1 0xA0 SHL SUB SWAP1 SWAP2 AND DUP2 MSTORE PUSH1 0x20 ADD JUMPDEST PUSH1 0x40 MLOAD DUP1 SWAP2 SUB SWAP1 RETURN JUMPDEST PUSH2 0x6A PUSH32 0x0 DUP2 JUMP JUMPDEST PUSH2 0xC1 PUSH2 0xBC CALLDATASIZE PUSH1 0x4 PUSH2 0x1FF2 JUMP JUMPDEST PUSH2 0xCE JUMP JUMPDEST PUSH1 0x40 MLOAD PUSH2 0x7E SWAP2 SWAP1 PUSH2 0x24C3 JUMP JUMPDEST PUSH2 0xD6 PUSH2 0x1F09 JUMP JUMPDEST PUSH0 PUSH2 0xE1 DUP6 DUP5 PUSH2 0x15D0 JUMP JUMPDEST SWAP1 POP PUSH0 PUSH1 0x10 PUSH2 0xFFFF DUP8 AND LT ISZERO PUSH2 0xFF JUMPI PUSH2 0xFC DUP7 PUSH1 0x1 PUSH2 0x24E9 JUMP JUMPDEST SWAP1 POP JUMPDEST PUSH2 0x107 PUSH2 0x1F09 JUMP JUMPDEST PUSH1 0x40 DUP1 MLOAD PUSH1 0xF DUP1 DUP3 MSTORE PUSH2 0x200 DUP3 ADD SWAP1 SWAP3 MSTORE SWAP1 DUP2 PUSH1 0x20 ADD JUMPDEST PUSH2 0x159 PUSH1 0x40 DUP1 MLOAD PUSH1 0x80 DUP2 ADD SWAP1 SWAP2 MSTORE DUP1 PUSH0 DUP2 MSTORE PUSH0 PUSH1 0x20 DUP3 ADD DUP2 SWAP1 MSTORE PUSH1 0x40 DUP3 ADD MSTORE PUSH1 0x60 ADD PUSH2 0x1FD7 PUSH1 0x40 DUP1 MLOAD DUP1 DUP3 ADD SWAP1 SWAP2 MSTORE PUSH0 DUP1 DUP3 MSTORE PUSH1 0x20 DUP3 ADD MSTORE SWAP1 JUMP JUMPDEST DUP2 MSTORE PUSH1 0x20 ADD SWAP1 PUSH1 0x1 SWAP1 SUB SWAP1 DUP2 PUSH2 0x11E JUMPI POP POP DUP2 MSTORE PUSH2 0xFFFF DUP8 DUP2 AND PUSH1 0x40 DUP4 ADD MSTORE PUSH1 0x60 DUP3 ADD DUP7 SWAP1 MSTORE DUP3 AND PUSH1 0x80 DUP3 ADD MSTORE PUSH4 0xF4865700 PUSH4 0xF666EFCF PUSH2 0x19B DUP6 DUP4 DUP4 PUSH2 0x163A JUMP JUMPDEST PUSH4 0xFFFFFFFF AND PUSH1 0xA0 DUP5 ADD MSTORE POP PUSH2 0x1B5 SWAP1 POP DUP4 PUSH2 0x19C8 PUSH2 0x1665 JUMP JUMPDEST PUSH2 0x1C0 JUMPI PUSH1 0x1 PUSH2 0x1C2 JUMP JUMPDEST PUSH0 JUMPDEST DUP2 PUSH1 0xC0 ADD SWAP1 PUSH1 0x1 DUP2 GT ISZERO PUSH2 0x1D8 JUMPI PUSH2 0x1D8 PUSH2 0x202B JUMP JUMPDEST SWAP1 DUP2 PUSH1 0x1 DUP2 GT ISZERO PUSH2 0x1EB JUMPI PUSH2 0x1EB PUSH2 0x202B JUMP JUMPDEST SWAP1 MSTORE POP PUSH1 0x80 DUP2 ADD MLOAD PUSH2 0xFFFF AND ISZERO PUSH2 0x2D2 JUMPI PUSH0 PUSH1 0x1 DUP3 PUSH1 0x80 ADD MLOAD PUSH2 0x20E SWAP2 SWAP1 PUSH2 0x2503 JUMP JUMPDEST PUSH2 0xFFFF AND SWAP1 POP PUSH1 0x4 DUP2 EQ ISZERO DUP1 ISZERO PUSH2 0x226 JUMPI POP PUSH1 0x5 DUP2 EQ ISZERO JUMPDEST DUP1 ISZERO PUSH2 0x233 JUMPI POP PUSH1 0x6 DUP2 EQ ISZERO JUMPDEST DUP1 ISZERO PUSH2 0x240 JUMPI POP PUSH1 0x7 DUP2 EQ ISZERO JUMPDEST DUP1 ISZERO PUSH2 0x24D JUMPI POP PUSH1 0x8 DUP2 EQ ISZERO JUMPDEST DUP1 ISZERO PUSH2 0x25A JUMPI POP PUSH1 0xB DUP2 EQ ISZERO JUMPDEST DUP1 ISZERO PUSH2 0x267 JUMPI POP PUSH1 0xD DUP2 EQ ISZERO JUMPDEST ISZERO PUSH2 0x2CC JUMPI PUSH2 0x276 DUP3 DUP3 PUSH2 0x1682 JUMP JUMPDEST DUP7 PUSH2 0xFFFF AND PUSH1 0x5 DUP2 GT ISZERO PUSH2 0x28C JUMPI PUSH2 0x28C PUSH2 0x202B JUMP JUMPDEST DUP3 PUSH1 0xE0 ADD SWAP1 PUSH1 0x5 DUP2 GT ISZERO PUSH2 0x2A2 JUMPI PUSH2 0x2A2 PUSH2 0x202B JUMP JUMPDEST SWAP1 DUP2 PUSH1 0x5 DUP2 GT ISZERO PUSH2 0x2B5 JUMPI PUSH2 0x2B5 PUSH2 0x202B JUMP JUMPDEST SWAP1 MSTORE POP PUSH2 0x2C1 DUP3 PUSH2 0x16B8 JUMP JUMPDEST POP SWAP3 POP PUSH2 0x15C9 SWAP2 POP POP JUMP JUMPDEST POP PUSH2 0x1495 JUMP JUMPDEST PUSH0 DUP2 PUSH1 0xC0 ADD MLOAD PUSH1 0x1 DUP2 GT ISZERO PUSH2 0x2E9 JUMPI PUSH2 0x2E9 PUSH2 0x202B JUMP JUMPDEST SUB PUSH2 0xC2F JUMPI PUSH1 0x40 MLOAD PUSH4 0xF120BCF PUSH1 0xE4 SHL DUP2 MSTORE PUSH1 0x1 PUSH1 0x1 PUSH1 0xA0 SHL SUB PUSH32 0x0 AND SWAP1 PUSH4 0xF120BCF0 SWAP1 PUSH2 0x33A SWAP1 DUP7 SWAP1 PUSH1 0x4 ADD PUSH2 0x251D JUMP JUMPDEST PUSH1 0x20 PUSH1 0x40 MLOAD DUP1 DUP4 SUB DUP2 DUP7 GAS STATICCALL ISZERO DUP1 ISZERO PUSH2 0x355 JUMPI RETURNDATASIZE PUSH0 PUSH0 RETURNDATACOPY RETURNDATASIZE PUSH0 REVERT JUMPDEST POP POP POP POP PUSH1 0x40 MLOAD RETURNDATASIZE PUSH1 0x1F NOT PUSH1 0x1F DUP3 ADD AND DUP3 ADD DUP1 PUSH1 0x40 MSTORE POP DUP2 ADD SWAP1 PUSH2 0x379 SWAP2 SWAP1 PUSH2 0x2534 JUMP JUMPDEST DUP2 PUSH2 0x100 ADD SWAP1 PUSH1 0x1C DUP2 GT ISZERO PUSH2 0x390 JUMPI PUSH2 0x390 PUSH2 0x202B JUMP JUMPDEST SWAP1 DUP2 PUSH1 0x1C DUP2 GT ISZERO PUSH2 0x3A3 JUMPI PUSH2 0x3A3 PUSH2 0x202B JUMP JUMPDEST SWAP1 MSTORE POP PUSH1 0x40 MLOAD PUSH4 0x3775819B PUSH1 0xE0 SHL DUP2 MSTORE PUSH1 0x1 PUSH1 0x1 PUSH1 0xA0 SHL SUB PUSH32 0x0 AND SWAP1 PUSH4 0x3775819B SWAP1 PUSH2 0x3F4 SWAP1 DUP5 SWAP1 DUP8 SWAP1 PUSH1 0x4 ADD PUSH2 0x2552 JUMP JUMPDEST PUSH1 0x20 PUSH1 0x40 MLOAD DUP1 DUP4 SUB DUP2 DUP7 GAS STATICCALL ISZERO DUP1 ISZERO PUSH2 0x40F JUMPI RETURNDATASIZE PUSH0 PUSH0 RETURNDATACOPY RETURNDATASIZE PUSH0 REVERT JUMPDEST POP POP POP POP PUSH1 0x40 MLOAD RETURNDATASIZE PUSH1 0x1F NOT PUSH1 0x1F DUP3 ADD AND DUP3 ADD DUP1 PUSH1 0x40 MSTORE POP DUP2 ADD SWAP1 PUSH2 0x433 SWAP2 SWAP1 PUSH2 0x2589 JUMP JUMPDEST DUP2 PUSH2 0x120 ADD SWAP1 PUSH1 0x16 DUP2 GT ISZERO PUSH2 0x44A JUMPI PUSH2 0x44A PUSH2 0x202B JUMP JUMPDEST SWAP1 DUP2 PUSH1 0x16 DUP2 GT ISZERO PUSH2 0x45D JUMPI PUSH2 0x45D PUSH2 0x202B JUMP JUMPDEST SWAP1 MSTORE POP PUSH1 0x40 MLOAD PUSH4 0x2CBD5F51 PUSH1 0xE0 SHL DUP2 MSTORE PUSH1 0x1 PUSH1 0x1 PUSH1 0xA0 SHL SUB PUSH32 0x0 AND SWAP1 PUSH4 0x2CBD5F51 SWAP1 PUSH2 0x4AE SWAP1 DUP5 SWAP1 DUP8 SWAP1 PUSH1 0x4 ADD PUSH2 0x2552 JUMP JUMPDEST PUSH1 0x20 PUSH1 0x40 MLOAD DUP1 DUP4 SUB DUP2 DUP7 GAS STATICCALL ISZERO DUP1 ISZERO PUSH2 0x4C9 JUMPI RETURNDATASIZE PUSH0 PUSH0 RETURNDATACOPY RETURNDATASIZE PUSH0 REVERT JUMPDEST POP POP POP POP PUSH1 0x40 MLOAD RETURNDATASIZE PUSH1 0x1F NOT PUSH1 0x1F DUP3 ADD AND DUP3 ADD DUP1 PUSH1 0x40 MSTORE POP DUP2 ADD SWAP1 PUSH2 0x4ED SWAP2 SWAP1 PUSH2 0x25A4 JUMP JUMPDEST DUP2 PUSH2 0x140 ADD SWAP1 PUSH1 0x13 DUP2 GT ISZERO PUSH2 0x504 JUMPI PUSH2 0x504 PUSH2 0x202B JUMP JUMPDEST SWAP1 DUP2 PUSH1 0x13 DUP2 GT ISZERO PUSH2 0x517 JUMPI PUSH2 0x517 PUSH2 0x202B JUMP JUMPDEST SWAP1 MSTORE POP PUSH1 0x40 MLOAD PUSH4 0x146E3EEF PUSH1 0xE0 SHL DUP2 MSTORE PUSH1 0x1 PUSH1 0x1 PUSH1 0xA0 SHL SUB PUSH32 0x0 AND SWAP1 PUSH4 0x146E3EEF SWAP1 PUSH2 0x566 SWAP1 DUP7 SWAP1 PUSH1 0x4 ADD PUSH2 0x251D JUMP JUMPDEST PUSH1 0x20 PUSH1 0x40 MLOAD DUP1 DUP4 SUB DUP2 DUP7 GAS STATICCALL ISZERO DUP1 ISZERO PUSH2 0x581 JUMPI RETURNDATASIZE PUSH0 PUSH0 RETURNDATACOPY RETURNDATASIZE PUSH0 REVERT JUMPDEST POP POP POP POP PUSH1 0x40 MLOAD RETURNDATASIZE PUSH1 0x1F NOT PUSH1 0x1F DUP3 ADD AND DUP3 ADD DUP1 PUSH1 0x40 MSTORE POP DUP2 ADD SWAP1 PUSH2 0x5A5 SWAP2 SWAP1 PUSH2 0x25CE JUMP JUMPDEST DUP2 PUSH2 0x160 ADD SWAP1 PUSH1 0x8 DUP2 GT ISZERO PUSH2 0x5BC JUMPI PUSH2 0x5BC PUSH2 0x202B JUMP JUMPDEST SWAP1 DUP2 PUSH1 0x8 DUP2 GT ISZERO PUSH2 0x5CF JUMPI PUSH2 0x5CF PUSH2 0x202B JUMP JUMPDEST SWAP1 MSTORE POP PUSH1 0x40 MLOAD PUSH4 0x757D2885 PUSH1 0xE1 SHL DUP2 MSTORE PUSH1 0x1 PUSH1 0x1 PUSH1 0xA0 SHL SUB PUSH32 0x0 AND SWAP1 PUSH4 0xEAFA510A SWAP1 PUSH2 0x61E SWAP1 DUP7 SWAP1 PUSH1 0x4 ADD PUSH2 0x251D JUMP JUMPDEST PUSH1 0x20 PUSH1 0x40 MLOAD DUP1 DUP4 SUB DUP2 DUP7 GAS STATICCALL ISZERO DUP1 ISZERO PUSH2 0x639 JUMPI RETURNDATASIZE PUSH0 PUSH0 RETURNDATACOPY RETURNDATASIZE PUSH0 REVERT JUMPDEST POP POP POP POP PUSH1 0x40 MLOAD RETURNDATASIZE PUSH1 0x1F NOT PUSH1 0x1F DUP3 ADD AND DUP3 ADD DUP1 PUSH1 0x40 MSTORE POP DUP2 ADD SWAP1 PUSH2 0x65D SWAP2 SWAP1 PUSH2 0x25CE JUMP JUMPDEST DUP2 PUSH2 0x180 ADD SWAP1 PUSH1 0x8 DUP2 GT ISZERO PUSH2 0x674 JUMPI PUSH2 0x674 PUSH2 0x202B JUMP JUMPDEST SWAP1 DUP2 PUSH1 0x8 DUP2 GT ISZERO PUSH2 0x687 JUMPI PUSH2 0x687 PUSH2 0x202B JUMP JUMPDEST SWAP1 MSTORE POP PUSH1 0x40 MLOAD PUSH4 0x3E8AF2FF PUSH1 0xE0 SHL DUP2 MSTORE PUSH1 0x1 PUSH1 0x1 PUSH1 0xA0 SHL SUB PUSH32 0x0 AND SWAP1 PUSH4 0x3E8AF2FF SWAP1 PUSH2 0x6D8 SWAP1 DUP5 SWAP1 DUP8 SWAP1 PUSH1 0x4 ADD PUSH2 0x2552 JUMP JUMPDEST PUSH1 0x20 PUSH1 0x40 MLOAD DUP1 DUP4 SUB DUP2 DUP7 GAS STATICCALL ISZERO DUP1 ISZERO PUSH2 0x6F3 JUMPI RETURNDATASIZE PUSH0 PUSH0 RETURNDATACOPY RETURNDATASIZE PUSH0 REVERT JUMPDEST POP POP POP POP PUSH1 0x40 MLOAD RETURNDATASIZE PUSH1 0x1F NOT PUSH1 0x1F DUP3 ADD AND DUP3 ADD DUP1 PUSH1 0x40 MSTORE POP DUP2 ADD SWAP1 PUSH2 0x717 SWAP2 SWAP1 PUSH2 0x25E9 JUMP JUMPDEST DUP2 PUSH2 0x1C0 ADD SWAP1 PUSH1 0x57 DUP2 GT ISZERO PUSH2 0x72E JUMPI PUSH2 0x72E PUSH2 0x202B JUMP JUMPDEST SWAP1 DUP2 PUSH1 0x57 DUP2 GT ISZERO PUSH2 0x741 JUMPI PUSH2 0x741 PUSH2 0x202B JUMP JUMPDEST SWAP1 MSTORE POP PUSH1 0x40 MLOAD PUSH4 0xE7449565 PUSH1 0xE0 SHL DUP2 MSTORE PUSH1 0x1 PUSH1 0x1 PUSH1 0xA0 SHL SUB PUSH32 0x0 AND SWAP1 PUSH4 0xE7449565 SWAP1 PUSH2 0x790 SWAP1 DUP7 SWAP1 PUSH1 0x4 ADD PUSH2 0x251D JUMP JUMPDEST PUSH1 0x20 PUSH1 0x40 MLOAD DUP1 DUP4 SUB DUP2 DUP7 GAS STATICCALL ISZERO DUP1 ISZERO PUSH2 0x7AB JUMPI RETURNDATASIZE PUSH0 PUSH0 RETURNDATACOPY RETURNDATASIZE PUSH0 REVERT JUMPDEST POP POP POP POP PUSH1 0x40 MLOAD RETURNDATASIZE PUSH1 0x1F NOT PUSH1 0x1F DUP3 ADD AND DUP3 ADD DUP1 PUSH1 0x40 MSTORE POP DUP2 ADD SWAP1 PUSH2 0x7CF SWAP2 SWAP1 PUSH2 0x2607 JUMP JUMPDEST DUP2 PUSH2 0x1E0 ADD SWAP1 PUSH1 0x15 DUP2 GT ISZERO PUSH2 0x7E6 JUMPI PUSH2 0x7E6 PUSH2 0x202B JUMP JUMPDEST SWAP1 DUP2 PUSH1 0x15 DUP2 GT ISZERO PUSH2 0x7F9 JUMPI PUSH2 0x7F9 PUSH2 0x202B JUMP JUMPDEST SWAP1 MSTORE POP PUSH1 0x40 MLOAD PUSH4 0x4E87244F PUSH1 0xE0 SHL DUP2 MSTORE PUSH1 0x1 PUSH1 0x1 PUSH1 0xA0 SHL SUB PUSH32 0x0 AND SWAP1 PUSH4 0x4E87244F SWAP1 PUSH2 0x848 SWAP1 DUP7 SWAP1 PUSH1 0x4 ADD PUSH2 0x251D JUMP JUMPDEST PUSH1 0x20 PUSH1 0x40 MLOAD DUP1 DUP4 SUB DUP2 DUP7 GAS STATICCALL ISZERO DUP1 ISZERO PUSH2 0x863 JUMPI RETURNDATASIZE PUSH0 PUSH0 RETURNDATACOPY RETURNDATASIZE PUSH0 REVERT JUMPDEST POP POP POP POP PUSH1 0x40 MLOAD RETURNDATASIZE PUSH1 0x1F NOT PUSH1 0x1F DUP3 ADD AND DUP3 ADD DUP1 PUSH1 0x40 MSTORE POP DUP2 ADD SWAP1 PUSH2 0x887 SWAP2 SWAP1 PUSH2 0x2631 JUMP JUMPDEST DUP2 PUSH2 0x1A0 ADD SWAP1 PUSH1 0x3 DUP2 GT ISZERO PUSH2 0x89E JUMPI PUSH2 0x89E PUSH2 0x202B JUMP JUMPDEST SWAP1 DUP2 PUSH1 0x3 DUP2 GT ISZERO PUSH2 0x8B1 JUMPI PUSH2 0x8B1 PUSH2 0x202B JUMP JUMPDEST SWAP1 MSTORE POP PUSH1 0x40 MLOAD PUSH4 0xB8B593B PUSH1 0xE2 SHL DUP2 MSTORE PUSH1 0x1 PUSH1 0x1 PUSH1 0xA0 SHL SUB PUSH32 0x0 AND SWAP1 PUSH4 0x2E2D64EC SWAP1 PUSH2 0x902 SWAP1 DUP5 SWAP1 DUP8 SWAP1 PUSH1 0x4 ADD PUSH2 0x2552 JUMP JUMPDEST PUSH1 0x20 PUSH1 0x40 MLOAD DUP1 DUP4 SUB DUP2 DUP7 GAS STATICCALL ISZERO DUP1 ISZERO PUSH2 0x91D JUMPI RETURNDATASIZE PUSH0 PUSH0 RETURNDATACOPY RETURNDATASIZE PUSH0 REVERT JUMPDEST POP POP POP POP PUSH1 0x40 MLOAD RETURNDATASIZE PUSH1 0x1F NOT PUSH1 0x1F DUP3 ADD AND DUP3 ADD DUP1 PUSH1 0x40 MSTORE POP DUP2 ADD SWAP1 PUSH2 0x941 SWAP2 SWAP1 PUSH2 0x264C JUMP JUMPDEST DUP2 PUSH2 0x200 ADD SWAP1 PUSH1 0xD3 DUP2 GT ISZERO PUSH2 0x958 JUMPI PUSH2 0x958 PUSH2 0x202B JUMP JUMPDEST SWAP1 DUP2 PUSH1 0xD3 DUP2 GT ISZERO PUSH2 0x96B JUMPI PUSH2 0x96B PUSH2 0x202B JUMP JUMPDEST SWAP1 MSTORE POP PUSH1 0x40 MLOAD PUSH4 0x88E02A5 PUSH1 0xE3 SHL DUP2 MSTORE PUSH1 0x1 PUSH1 0x1 PUSH1 0xA0 SHL SUB PUSH32 0x0 AND SWAP1 PUSH4 0x44701528 SWAP1 PUSH2 0x9BC SWAP1 DUP5 SWAP1 DUP8 SWAP1 PUSH1 0x4 ADD PUSH2 0x2552 JUMP JUMPDEST PUSH1 0x20 PUSH1 0x40 MLOAD DUP1 DUP4 SUB DUP2 DUP7 GAS STATICCALL ISZERO DUP1 ISZERO PUSH2 0x9D7 JUMPI RETURNDATASIZE PUSH0 PUSH0 RETURNDATACOPY RETURNDATASIZE PUSH0 REVERT JUMPDEST POP POP POP POP PUSH1 0x40 MLOAD RETURNDATASIZE PUSH1 0x1F NOT PUSH1 0x1F DUP3 ADD AND DUP3 ADD DUP1 PUSH1 0x40 MSTORE POP DUP2 ADD SWAP1 PUSH2 0x9FB SWAP2 SWAP1 PUSH2 0x266A JUMP JUMPDEST DUP2 PUSH2 0x220 ADD SWAP1 PUSH1 0x69 DUP2 GT ISZERO PUSH2 0xA12 JUMPI PUSH2 0xA12 PUSH2 0x202B JUMP JUMPDEST SWAP1 DUP2 PUSH1 0x69 DUP2 GT ISZERO PUSH2 0xA25 JUMPI PUSH2 0xA25 PUSH2 0x202B JUMP JUMPDEST SWAP1 MSTORE POP PUSH1 0x40 MLOAD PUSH4 0x4F4F0D07 PUSH1 0xE0 SHL DUP2 MSTORE PUSH1 0x1 PUSH1 0x1 PUSH1 0xA0 SHL SUB PUSH32 0x0 AND SWAP1 PUSH4 0x4F4F0D07 SWAP1 PUSH2 0xA74 SWAP1 DUP7 SWAP1 PUSH1 0x4 ADD PUSH2 0x251D JUMP JUMPDEST PUSH1 0x20 PUSH1 0x40 MLOAD DUP1 DUP4 SUB DUP2 DUP7 GAS STATICCALL ISZERO DUP1 ISZERO PUSH2 0xA8F JUMPI RETURNDATASIZE PUSH0 PUSH0 RETURNDATACOPY RETURNDATASIZE PUSH0 REVERT JUMPDEST POP POP POP POP PUSH1 0x40 MLOAD RETURNDATASIZE PUSH1 0x1F NOT PUSH1 0x1F DUP3 ADD AND DUP3 ADD DUP1 PUSH1 0x40 MSTORE POP DUP2 ADD SWAP1 PUSH2 0xAB3 SWAP2 SWAP1 PUSH2 0x2688 JUMP JUMPDEST DUP2 PUSH2 0x240 ADD SWAP1 PUSH1 0xA8 DUP2 GT ISZERO PUSH2 0xACA JUMPI PUSH2 0xACA PUSH2 0x202B JUMP JUMPDEST SWAP1 DUP2 PUSH1 0xA8 DUP2 GT ISZERO PUSH2 0xADD JUMPI PUSH2 0xADD PUSH2 0x202B JUMP JUMPDEST SWAP1 MSTORE POP PUSH1 0x40 MLOAD PUSH4 0x21595D4F PUSH1 0xE1 SHL DUP2 MSTORE PUSH1 0x1 PUSH1 0x1 PUSH1 0xA0 SHL SUB PUSH32 0x0 AND SWAP1 PUSH4 0x42B2BA9E SWAP1 PUSH2 0xB2C SWAP1 DUP7 SWAP1 PUSH1 0x4 ADD PUSH2 0x251D JUMP JUMPDEST PUSH1 0x20 PUSH1 0x40 MLOAD DUP1 DUP4 SUB DUP2 DUP7 GAS STATICCALL ISZERO DUP1 ISZERO PUSH2 0xB47 JUMPI RETURNDATASIZE PUSH0 PUSH0 RETURNDATACOPY RETURNDATASIZE PUSH0 REVERT JUMPDEST POP POP POP POP PUSH1 0x40 MLOAD RETURNDATASIZE PUSH1 0x1F NOT PUSH1 0x1F DUP3 ADD AND DUP3 ADD DUP1 PUSH1 0x40 MSTORE POP DUP2 ADD SWAP1 PUSH2 0xB6B SWAP2 SWAP1 PUSH2 0x26A6 JUMP JUMPDEST DUP2 PUSH2 0x260 ADD SWAP1 PUSH1 0x7F DUP2 GT ISZERO PUSH2 0xB82 JUMPI PUSH2 0xB82 PUSH2 0x202B JUMP JUMPDEST SWAP1 DUP2 PUSH1 0x7F DUP2 GT ISZERO PUSH2 0xB95 JUMPI PUSH2 0xB95 PUSH2 0x202B JUMP JUMPDEST SWAP1 MSTORE POP PUSH2 0xBA1 DUP2 PUSH2 0x16D7 JUMP JUMPDEST PUSH2 0xBAA DUP2 PUSH2 0x16F4 JUMP JUMPDEST PUSH2 0xBB3 DUP2 PUSH2 0x1731 JUMP JUMPDEST PUSH2 0xBBC DUP2 PUSH2 0x176E JUMP JUMPDEST PUSH2 0xBC5 DUP2 PUSH2 0x17AB JUMP JUMPDEST PUSH2 0xBCE DUP2 PUSH2 0x17E8 JUMP JUMPDEST ISZERO PUSH2 0xBE1 JUMPI PUSH2 0xBDC DUP2 PUSH2 0x1809 JUMP JUMPDEST PUSH2 0xBEA JUMP JUMPDEST PUSH2 0xBEA DUP2 PUSH2 0x1846 JUMP JUMPDEST PUSH2 0xBF3 DUP2 PUSH2 0x1883 JUMP JUMPDEST PUSH2 0xBFC DUP2 PUSH2 0x18C0 JUMP JUMPDEST ISZERO PUSH2 0xC0F JUMPI PUSH2 0xC0A DUP2 PUSH2 0x18D9 JUMP JUMPDEST PUSH2 0xC18 JUMP JUMPDEST PUSH2 0xC18 DUP2 PUSH2 0x1916 JUMP JUMPDEST PUSH2 0xC21 DUP2 PUSH2 0x1953 JUMP JUMPDEST PUSH2 0xC2A DUP2 PUSH2 0x19E6 JUMP JUMPDEST PUSH2 0x1495 JUMP JUMPDEST PUSH1 0x40 MLOAD PUSH4 0x6AD3733 PUSH1 0xE5 SHL DUP2 MSTORE PUSH1 0x1 PUSH1 0x1 PUSH1 0xA0 SHL SUB PUSH32 0x0 AND SWAP1 PUSH4 0xD5A6E660 SWAP1 PUSH2 0xC7B SWAP1 DUP7 SWAP1 PUSH1 0x4 ADD PUSH2 0x251D JUMP JUMPDEST PUSH1 0x20 PUSH1 0x40 MLOAD DUP1 DUP4 SUB DUP2 DUP7 GAS STATICCALL ISZERO DUP1 ISZERO PUSH2 0xC96 JUMPI RETURNDATASIZE PUSH0 PUSH0 RETURNDATACOPY RETURNDATASIZE PUSH0 REVERT JUMPDEST POP POP POP POP PUSH1 0x40 MLOAD RETURNDATASIZE PUSH1 0x1F NOT PUSH1 0x1F DUP3 ADD AND DUP3 ADD DUP1 PUSH1 0x40 MSTORE POP DUP2 ADD SWAP1 PUSH2 0xCBA SWAP2 SWAP1 PUSH2 0x26C4 JUMP JUMPDEST DUP2 PUSH2 0x280 ADD SWAP1 PUSH1 0x19 DUP2 GT ISZERO PUSH2 0xCD1 JUMPI PUSH2 0xCD1 PUSH2 0x202B JUMP JUMPDEST SWAP1 DUP2 PUSH1 0x19 DUP2 GT ISZERO PUSH2 0xCE4 JUMPI PUSH2 0xCE4 PUSH2 0x202B JUMP JUMPDEST SWAP1 MSTORE POP PUSH1 0x40 MLOAD PUSH4 0xF17076C7 PUSH1 0xE0 SHL DUP2 MSTORE PUSH1 0x1 PUSH1 0x1 PUSH1 0xA0 SHL SUB PUSH32 0x0 AND SWAP1 PUSH4 0xF17076C7 SWAP1 PUSH2 0xD35 SWAP1 DUP5 SWAP1 DUP8 SWAP1 PUSH1 0x4 ADD PUSH2 0x2552 JUMP JUMPDEST PUSH1 0x20 PUSH1 0x40 MLOAD DUP1 DUP4 SUB DUP2 DUP7 GAS STATICCALL ISZERO DUP1 ISZERO PUSH2 0xD50 JUMPI RETURNDATASIZE PUSH0 PUSH0 RETURNDATACOPY RETURNDATASIZE PUSH0 REVERT JUMPDEST POP POP POP POP PUSH1 0x40 MLOAD RETURNDATASIZE PUSH1 0x1F NOT PUSH1 0x1F DUP3 ADD AND DUP3 ADD DUP1 PUSH1 0x40 MSTORE POP DUP2 ADD SWAP1 PUSH2 0xD74 SWAP2 SWAP1 PUSH2 0x26E2 JUMP JUMPDEST DUP2 PUSH2 0x2A0 ADD SWAP1 PUSH1 0x1E DUP2 GT ISZERO PUSH2 0xD8B JUMPI PUSH2 0xD8B PUSH2 0x202B JUMP JUMPDEST SWAP1 DUP2 PUSH1 0x1E DUP2 GT ISZERO PUSH2 0xD9E JUMPI PUSH2 0xD9E PUSH2 0x202B JUMP JUMPDEST SWAP1 MSTORE POP PUSH1 0x40 MLOAD PUSH4 0x7829AF69 PUSH1 0xE0 SHL DUP2 MSTORE PUSH1 0x1 PUSH1 0x1 PUSH1 0xA0 SHL SUB PUSH32 0x0 AND SWAP1 PUSH4 0x7829AF69 SWAP1 PUSH2 0xDEF SWAP1 DUP5 SWAP1 DUP8 SWAP1 PUSH1 0x4 ADD PUSH2 0x2552 JUMP JUMPDEST PUSH1 0x20 PUSH1 0x40 MLOAD DUP1 DUP4 SUB DUP2 DUP7 GAS STATICCALL ISZERO DUP1 ISZERO PUSH2 0xE0A JUMPI RETURNDATASIZE PUSH0 PUSH0 RETURNDATACOPY RETURNDATASIZE PUSH0 REVERT JUMPDEST POP POP POP POP PUSH1 0x40 MLOAD RETURNDATASIZE PUSH1 0x1F NOT PUSH1 0x1F DUP3 ADD AND DUP3 ADD DUP1 PUSH1 0x40 MSTORE POP DUP2 ADD SWAP1 PUSH2 0xE2E SWAP2 SWAP1 PUSH2 0x2700 JUMP JUMPDEST DUP2 PUSH2 0x2C0 ADD SWAP1 PUSH1 0x12 DUP2 GT ISZERO PUSH2 0xE45 JUMPI PUSH2 0xE45 PUSH2 0x202B JUMP JUMPDEST SWAP1 DUP2 PUSH1 0x12 DUP2 GT ISZERO PUSH2 0xE58 JUMPI PUSH2 0xE58 PUSH2 0x202B JUMP JUMPDEST SWAP1 MSTORE POP PUSH1 0x40 MLOAD PUSH4 0x29814BE5 PUSH1 0xE0 SHL DUP2 MSTORE PUSH1 0x1 PUSH1 0x1 PUSH1 0xA0 SHL SUB PUSH32 0x0 AND SWAP1 PUSH4 0x29814BE5 SWAP1 PUSH2 0xEA7 SWAP1 DUP7 SWAP1 PUSH1 0x4 ADD PUSH2 0x251D JUMP JUMPDEST PUSH1 0x20 PUSH1 0x40 MLOAD DUP1 DUP4 SUB DUP2 DUP7 GAS STATICCALL ISZERO DUP1 ISZERO PUSH2 0xEC2 JUMPI RETURNDATASIZE PUSH0 PUSH0 RETURNDATACOPY RETURNDATASIZE PUSH0 REVERT JUMPDEST POP POP POP POP PUSH1 0x40 MLOAD RETURNDATASIZE PUSH1 0x1F NOT PUSH1 0x1F DUP3 ADD AND DUP3 ADD DUP1 PUSH1 0x40 MSTORE POP DUP2 ADD SWAP1 PUSH2 0xEE6 SWAP2 SWAP1 PUSH2 0x25CE JUMP JUMPDEST DUP2 PUSH2 0x2E0 ADD SWAP1 PUSH1 0x8 DUP2 GT ISZERO PUSH2 0xEFD JUMPI PUSH2 0xEFD PUSH2 0x202B JUMP JUMPDEST SWAP1 DUP2 PUSH1 0x8 DUP2 GT ISZERO PUSH2 0xF10 JUMPI PUSH2 0xF10 PUSH2 0x202B JUMP JUMPDEST SWAP1 MSTORE POP PUSH1 0x40 MLOAD PUSH4 0x8E57A737 PUSH1 0xE0 SHL DUP2 MSTORE PUSH1 0x1 PUSH1 0x1 PUSH1 0xA0 SHL SUB PUSH32 0x0 AND SWAP1 PUSH4 0x8E57A737 SWAP1 PUSH2 0xF5F SWAP1 DUP7 SWAP1 PUSH1 0x4 ADD PUSH2 0x251D JUMP JUMPDEST PUSH1 0x20 PUSH1 0x40 MLOAD DUP1 DUP4 SUB DUP2 DUP7 GAS STATICCALL ISZERO DUP1 ISZERO PUSH2 0xF7A JUMPI RETURNDATASIZE PUSH0 PUSH0 RETURNDATACOPY RETURNDATASIZE PUSH0 REVERT JUMPDEST POP POP POP POP PUSH1 0x40 MLOAD RETURNDATASIZE PUSH1 0x1F NOT PUSH1 0x1F DUP3 ADD AND DUP3 ADD DUP1 PUSH1 0x40 MSTORE POP DUP2 ADD SWAP1 PUSH2 0xF9E SWAP2 SWAP1 PUSH2 0x25CE JUMP JUMPDEST DUP2 PUSH2 0x300 ADD SWAP1 PUSH1 0x8 DUP2 GT ISZERO PUSH2 0xFB5 JUMPI PUSH2 0xFB5 PUSH2 0x202B JUMP JUMPDEST SWAP1 DUP2 PUSH1 0x8 DUP2 GT ISZERO PUSH2 0xFC8 JUMPI PUSH2 0xFC8 PUSH2 0x202B JUMP JUMPDEST SWAP1 MSTORE POP PUSH1 0x40 MLOAD PUSH4 0x7067A81D PUSH1 0xE1 SHL DUP2 MSTORE PUSH1 0x1 PUSH1 0x1 PUSH1 0xA0 SHL SUB PUSH32 0x0 AND SWAP1 PUSH4 0xE0CF503A SWAP1 PUSH2 0x1017 SWAP1 DUP7 SWAP1 PUSH1 0x4 ADD PUSH2 0x251D JUMP JUMPDEST PUSH1 0x20 PUSH1 0x40 MLOAD DUP1 DUP4 SUB DUP2 DUP7 GAS STATICCALL ISZERO DUP1 ISZERO PUSH2 0x1032 JUMPI RETURNDATASIZE PUSH0 PUSH0 RETURNDATACOPY RETURNDATASIZE PUSH0 REVERT JUMPDEST POP POP POP POP PUSH1 0x40 MLOAD RETURNDATASIZE PUSH1 0x1F NOT PUSH1 0x1F DUP3 ADD AND DUP3 ADD DUP1 PUSH1 0x40 MSTORE POP DUP2 ADD SWAP1 PUSH2 0x1056 SWAP2 SWAP1 PUSH2 0x271E JUMP JUMPDEST DUP2 PUSH2 0x340 ADD SWAP1 PUSH1 0x14 DUP2 GT ISZERO PUSH2 0x106D JUMPI PUSH2 0x106D PUSH2 0x202B JUMP JUMPDEST SWAP1 DUP2 PUSH1 0x14 DUP2 GT ISZERO PUSH2 0x1080 JUMPI PUSH2 0x1080 PUSH2 0x202B JUMP JUMPDEST SWAP1 MSTORE POP PUSH1 0x40 MLOAD PUSH4 0x3A4A9D71 PUSH1 0xE1 SHL DUP2 MSTORE PUSH1 0x1 PUSH1 0x1 PUSH1 0xA0 SHL SUB PUSH32 0x0 AND SWAP1 PUSH4 0x74953AE2 SWAP1 PUSH2 0x10CF SWAP1 DUP7 SWAP1 PUSH1 0x4 ADD PUSH2 0x251D JUMP JUMPDEST PUSH1 0x20 PUSH1 0x40 MLOAD DUP1 DUP4 SUB DUP2 DUP7 GAS STATICCALL ISZERO DUP1 ISZERO PUSH2 0x10EA JUMPI RETURNDATASIZE PUSH0 PUSH0 RETURNDATACOPY RETURNDATASIZE PUSH0 REVERT JUMPDEST POP POP POP POP PUSH1 0x40 MLOAD RETURNDATASIZE PUSH1 0x1F NOT PUSH1 0x1F DUP3 ADD AND DUP3 ADD DUP1 PUSH1 0x40 MSTORE POP DUP2 ADD SWAP1 PUSH2 0x110E SWAP2 SWAP1 PUSH2 0x2631 JUMP JUMPDEST DUP2 PUSH2 0x320 ADD SWAP1 PUSH1 0x3 DUP2 GT ISZERO PUSH2 0x1125 JUMPI PUSH2 0x1125 PUSH2 0x202B JUMP JUMPDEST SWAP1 DUP2 PUSH1 0x3 DUP2 GT ISZERO PUSH2 0x1138 JUMPI PUSH2 0x1138 PUSH2 0x202B JUMP JUMPDEST SWAP1 MSTORE POP PUSH1 0x40 MLOAD PUSH4 0x33050CBD PUSH1 0xE1 SHL DUP2 MSTORE PUSH1 0x1 PUSH1 0x1 PUSH1 0xA0 SHL SUB PUSH32 0x0 AND SWAP1 PUSH4 0x660A197A SWAP1 PUSH2 0x1189 SWAP1 DUP5 SWAP1 DUP8 SWAP1 PUSH1 0x4 ADD PUSH2 0x2552 JUMP JUMPDEST PUSH1 0x20 PUSH1 0x40 MLOAD DUP1 DUP4 SUB DUP2 DUP7 GAS STATICCALL ISZERO DUP1 ISZERO PUSH2 0x11A4 JUMPI RETURNDATASIZE PUSH0 PUSH0 RETURNDATACOPY RETURNDATASIZE PUSH0 REVERT JUMPDEST POP POP POP POP PUSH1 0x40 MLOAD RETURNDATASIZE PUSH1 0x1F NOT PUSH1 0x1F DUP3 ADD AND DUP3 ADD DUP1 PUSH1 0x40 MSTORE POP DUP2 ADD SWAP1 PUSH2 0x11C8 SWAP2 SWAP1 PUSH2 0x273C JUMP JUMPDEST DUP2 PUSH2 0x360 ADD SWAP1 PUSH1 0xC2 DUP2 GT ISZERO PUSH2 0x11DF JUMPI PUSH2 0x11DF PUSH2 0x202B JUMP JUMPDEST SWAP1 DUP2 PUSH1 0xC2 DUP2 GT ISZERO PUSH2 0x11F2 JUMPI PUSH2 0x11F2 PUSH2 0x202B JUMP JUMPDEST SWAP1 MSTORE POP PUSH1 0x40 MLOAD PUSH4 0x40ABA8DB PUSH1 0xE0 SHL DUP2 MSTORE PUSH1 0x1 PUSH1 0x1 PUSH1 0xA0 SHL SUB PUSH32 0x0 AND SWAP1 PUSH4 0x40ABA8DB SWAP1 PUSH2 0x1243 SWAP1 DUP5 SWAP1 DUP8 SWAP1 PUSH1 0x4 ADD PUSH2 0x2552 JUMP JUMPDEST PUSH1 0x20 PUSH1 0x40 MLOAD DUP1 DUP4 SUB DUP2 DUP7 GAS STATICCALL ISZERO DUP1 ISZERO PUSH2 0x125E JUMPI RETURNDATASIZE PUSH0 PUSH0 RETURNDATACOPY RETURNDATASIZE PUSH0 REVERT JUMPDEST POP POP POP POP PUSH1 0x40 MLOAD RETURNDATASIZE PUSH1 0x1F NOT PUSH1 0x1F DUP3 ADD AND DUP3 ADD DUP1 PUSH1 0x40 MSTORE POP DUP2 ADD SWAP1 PUSH2 0x1282 SWAP2 SWAP1 PUSH2 0x275A JUMP JUMPDEST DUP2 PUSH2 0x380 ADD SWAP1 PUSH1 0x84 DUP2 GT ISZERO PUSH2 0x1299 JUMPI PUSH2 0x1299 PUSH2 0x202B JUMP JUMPDEST SWAP1 DUP2 PUSH1 0x84 DUP2 GT ISZERO PUSH2 0x12AC JUMPI PUSH2 0x12AC PUSH2 0x202B JUMP JUMPDEST SWAP1 MSTORE POP PUSH1 0x40 MLOAD PUSH4 0x2743C88F PUSH1 0xE0 SHL DUP2 MSTORE PUSH1 0x1 PUSH1 0x1 PUSH1 0xA0 SHL SUB PUSH32 0x0 AND SWAP1 PUSH4 0x2743C88F SWAP1 PUSH2 0x12FB SWAP1 DUP7 SWAP1 PUSH1 0x4 ADD PUSH2 0x251D JUMP JUMPDEST PUSH1 0x20 PUSH1 0x40 MLOAD DUP1 DUP4 SUB DUP2 DUP7 GAS STATICCALL ISZERO DUP1 ISZERO PUSH2 0x1316 JUMPI RETURNDATASIZE PUSH0 PUSH0 RETURNDATACOPY RETURNDATASIZE PUSH0 REVERT JUMPDEST POP POP POP POP PUSH1 0x40 MLOAD RETURNDATASIZE PUSH1 0x1F NOT PUSH1 0x1F DUP3 ADD AND DUP3 ADD DUP1 PUSH1 0x40 MSTORE POP DUP2 ADD SWAP1 PUSH2 0x133A SWAP2 SWAP1 PUSH2 0x2778 JUMP JUMPDEST DUP2 PUSH2 0x3A0 ADD SWAP1 PUSH1 0x82 DUP2 GT ISZERO PUSH2 0x1351 JUMPI PUSH2 0x1351 PUSH2 0x202B JUMP JUMPDEST SWAP1 DUP2 PUSH1 0x82 DUP2 GT ISZERO PUSH2 0x1364 JUMPI PUSH2 0x1364 PUSH2 0x202B JUMP JUMPDEST SWAP1 MSTORE POP PUSH1 0x40 MLOAD PUSH4 0xA063F74F PUSH1 0xE0 SHL DUP2 MSTORE PUSH1 0x1 PUSH1 0x1 PUSH1 0xA0 SHL SUB PUSH32 0x0 AND SWAP1 PUSH4 0xA063F74F SWAP1 PUSH2 0x13B3 SWAP1 DUP7 SWAP1 PUSH1 0x4 ADD PUSH2 0x251D JUMP JUMPDEST PUSH1 0x20 PUSH1 0x40 MLOAD DUP1 DUP4 SUB DUP2 DUP7 GAS STATICCALL ISZERO DUP1 ISZERO PUSH2 0x13CE JUMPI RETURNDATASIZE PUSH0 PUSH0 RETURNDATACOPY RETURNDATASIZE PUSH0 REVERT JUMPDEST POP POP POP POP PUSH1 0x40 MLOAD RETURNDATASIZE PUSH1 0x1F NOT PUSH1 0x1F DUP3 ADD AND DUP3 ADD DUP1 PUSH1 0x40 MSTORE POP DUP2 ADD SWAP1 PUSH2 0x13F2 SWAP2 SWAP1 PUSH2 0x2796 JUMP JUMPDEST DUP2 PUSH2 0x3C0 ADD SWAP1 PUSH1 0x79 DUP2 GT ISZERO PUSH2 0x1409 JUMPI PUSH2 0x1409 PUSH2 0x202B JUMP JUMPDEST SWAP1 DUP2 PUSH1 0x79 DUP2 GT ISZERO PUSH2 0x141C JUMPI PUSH2 0x141C PUSH2 0x202B JUMP JUMPDEST SWAP1 MSTORE POP PUSH2 0x1428 DUP2 PUSH2 0x1A23 JUMP JUMPDEST PUSH2 0x1431 DUP2 PUSH2 0x1A40 JUMP JUMPDEST PUSH2 0x143A DUP2 PUSH2 0x1A7D JUMP JUMPDEST PUSH2 0x1443 DUP2 PUSH2 0x1ABA JUMP JUMPDEST PUSH2 0x144C DUP2 PUSH2 0x1AF7 JUMP JUMPDEST PUSH2 0x1455 DUP2 PUSH2 0x1B34 JUMP JUMPDEST PUSH2 0x145E DUP2 PUSH2 0x1B71 JUMP JUMPDEST PUSH2 0x1467 DUP2 PUSH2 0x1BAE JUMP JUMPDEST ISZERO PUSH2 0x147A JUMPI PUSH2 0x1475 DUP2 PUSH2 0x1BC7 JUMP JUMPDEST PUSH2 0x1483 JUMP JUMPDEST PUSH2 0x1483 DUP2 PUSH2 0x1C04 JUMP JUMPDEST PUSH2 0x148C DUP2 PUSH2 0x1C41 JUMP JUMPDEST PUSH2 0x1495 DUP2 PUSH2 0x1CA9 JUMP JUMPDEST PUSH1 0x40 MLOAD PUSH4 0x7EE8FA8D PUSH1 0xE1 SHL DUP2 MSTORE PUSH1 0x1 PUSH1 0x1 PUSH1 0xA0 SHL SUB PUSH32 0x0 AND SWAP1 PUSH4 0xFDD1F51A SWAP1 PUSH2 0x14E3 SWAP1 DUP5 SWAP1 DUP8 SWAP1 PUSH1 0x4 ADD PUSH2 0x2552 JUMP JUMPDEST PUSH1 0x20 PUSH1 0x40 MLOAD DUP1 DUP4 SUB DUP2 DUP7 GAS STATICCALL ISZERO DUP1 ISZERO PUSH2 0x14FE JUMPI RETURNDATASIZE PUSH0 PUSH0 RETURNDATACOPY RETURNDATASIZE PUSH0 REVERT JUMPDEST POP POP POP POP PUSH1 0x40 MLOAD RETURNDATASIZE PUSH1 0x1F NOT PUSH1 0x1F DUP3 ADD AND DUP3 ADD DUP1 PUSH1 0x40 MSTORE POP DUP2 ADD SWAP1 PUSH2 0x1522 SWAP2 SWAP1 PUSH2 0x2589 JUMP JUMPDEST DUP2 PUSH2 0x3E0 ADD SWAP1 PUSH1 0x16 DUP2 GT ISZERO PUSH2 0x1539 JUMPI PUSH2 0x1539 PUSH2 0x202B JUMP JUMPDEST SWAP1 DUP2 PUSH1 0x16 DUP2 GT ISZERO PUSH2 0x154C JUMPI PUSH2 0x154C PUSH2 0x202B JUMP JUMPDEST SWAP1 MSTORE POP PUSH2 0x1558 DUP2 PUSH2 0x1CE6 JUMP JUMPDEST ISZERO DUP1 ISZERO PUSH2 0x156B JUMPI POP PUSH2 0x1569 DUP2 PUSH2 0x1CFF JUMP JUMPDEST ISZERO JUMPDEST ISZERO PUSH2 0x1579 JUMPI PUSH2 0x1579 DUP2 PUSH2 0x1D18 JUMP JUMPDEST DUP6 PUSH2 0xFFFF AND PUSH1 0x5 DUP2 GT ISZERO PUSH2 0x158F JUMPI PUSH2 0x158F PUSH2 0x202B JUMP JUMPDEST DUP2 PUSH1 0xE0 ADD SWAP1 PUSH1 0x5 DUP2 GT ISZERO PUSH2 0x15A5 JUMPI PUSH2 0x15A5 PUSH2 0x202B JUMP JUMPDEST SWAP1 DUP2 PUSH1 0x5 DUP2 GT ISZERO PUSH2 0x15B8 JUMPI PUSH2 0x15B8 PUSH2 0x202B JUMP JUMPDEST SWAP1 MSTORE POP PUSH2 0x15C4 DUP2 PUSH2 0x16B8 JUMP JUMPDEST SWAP3 POP POP POP JUMPDEST SWAP4 SWAP3 POP POP POP JUMP JUMPDEST PUSH1 0x40 DUP1 MLOAD DUP1 DUP3 ADD SWAP1 SWAP2 MSTORE PUSH0 DUP1 DUP3 MSTORE PUSH1 0x20 DUP3 ADD MSTORE PUSH1 0x40 MLOAD PUSH1 0x1 PUSH1 0x1 PUSH1 0xF0 SHL SUB NOT PUSH1 0xF0 DUP6 SWAP1 SHL AND PUSH1 0x20 DUP3 ADD MSTORE PUSH1 0x22 DUP2 ADD DUP4 SWAP1 MSTORE PUSH0 SWAP1 PUSH1 0x42 ADD PUSH1 0x40 DUP1 MLOAD PUSH1 0x1F NOT DUP2 DUP5 SUB ADD DUP2 MSTORE DUP3 DUP3 MSTORE DUP1 MLOAD PUSH1 0x20 SWAP2 DUP3 ADD KECCAK256 DUP4 DUP4 ADD SWAP1 SWAP3 MSTORE SWAP1 DUP3 MSTORE PUSH2 0xFFFF DUP7 AND SWAP1 DUP3 ADD MSTORE SWAP2 POP POP JUMPDEST SWAP3 SWAP2 POP POP JUMP JUMPDEST PUSH0 PUSH1 0x1 DUP4 DUP4 SUB ADD DUP1 PUSH2 0x164B DUP7 PUSH2 0x1D55 JUMP JUMPDEST DUP2 PUSH2 0x1658 JUMPI PUSH2 0x1658 PUSH2 0x27B4 JUMP JUMPDEST MOD DUP5 ADD SWAP2 POP POP SWAP4 SWAP3 POP POP POP JUMP JUMPDEST PUSH0 DUP2 PUSH2 0xFFFF AND PUSH2 0x1679 DUP5 PUSH1 0x1 PUSH2 0x2710 PUSH2 0x163A JUMP JUMPDEST GT ISZERO SWAP4 SWAP3 POP POP POP JUMP JUMPDEST PUSH0 DUP2 PUSH1 0xF DUP2 GT ISZERO PUSH2 0x1695 JUMPI PUSH2 0x1695 PUSH2 0x202B JUMP JUMPDEST SWAP1 POP PUSH2 0x16B3 DUP4 PUSH0 DUP4 PUSH1 0xF DUP2 GT ISZERO PUSH2 0x16AE JUMPI PUSH2 0x16AE PUSH2 0x202B JUMP JUMPDEST PUSH2 0x1D9E JUMP JUMPDEST POP POP POP JUMP JUMPDEST PUSH2 0x16D4 DUP2 PUSH1 0x1 DUP4 PUSH1 0xE0 ADD MLOAD PUSH1 0x5 DUP2 GT ISZERO PUSH2 0x16AE JUMPI PUSH2 0x16AE PUSH2 0x202B JUMP JUMPDEST POP JUMP JUMPDEST PUSH2 0x16D4 DUP2 PUSH1 0x2 DUP4 PUSH2 0x100 ADD MLOAD PUSH1 0x1C DUP2 GT ISZERO PUSH2 0x16AE JUMPI PUSH2 0x16AE PUSH2 0x202B JUMP JUMPDEST PUSH0 DUP2 PUSH2 0x120 ADD MLOAD PUSH1 0x16 DUP2 GT ISZERO PUSH2 0x170C JUMPI PUSH2 0x170C PUSH2 0x202B JUMP JUMPDEST SUB PUSH2 0x1714 JUMPI POP JUMP JUMPDEST PUSH2 0x16D4 DUP2 PUSH1 0x3 DUP4 PUSH2 0x120 ADD MLOAD PUSH1 0x16 DUP2 GT ISZERO PUSH2 0x16AE JUMPI PUSH2 0x16AE PUSH2 0x202B JUMP JUMPDEST PUSH0 DUP2 PUSH2 0x140 ADD MLOAD PUSH1 0x13 DUP2 GT ISZERO PUSH2 0x1749 JUMPI PUSH2 0x1749 PUSH2 0x202B JUMP JUMPDEST SUB PUSH2 0x1751 JUMPI POP JUMP JUMPDEST PUSH2 0x16D4 DUP2 PUSH1 0x4 DUP4 PUSH2 0x140 ADD MLOAD PUSH1 0x13 DUP2 GT ISZERO PUSH2 0x16AE JUMPI PUSH2 0x16AE PUSH2 0x202B JUMP JUMPDEST PUSH0 DUP2 PUSH2 0x160 ADD MLOAD PUSH1 0x8 DUP2 GT ISZERO PUSH2 0x1786 JUMPI PUSH2 0x1786 PUSH2 0x202B JUMP JUMPDEST SUB PUSH2 0x178E JUMPI POP JUMP JUMPDEST PUSH2 0x16D4 DUP2 PUSH1 0x5 DUP4 PUSH2 0x160 ADD MLOAD PUSH1 0x8 DUP2 GT ISZERO PUSH2 0x16AE JUMPI PUSH2 0x16AE PUSH2 0x202B JUMP JUMPDEST PUSH0 DUP2 PUSH2 0x180 ADD MLOAD PUSH1 0x8 DUP2 GT ISZERO PUSH2 0x17C3 JUMPI PUSH2 0x17C3 PUSH2 0x202B JUMP JUMPDEST SUB PUSH2 0x17CB JUMPI POP JUMP JUMPDEST PUSH2 0x16D4 DUP2 PUSH1 0x6 DUP4 PUSH2 0x180 ADD MLOAD PUSH1 0x8 DUP2 GT ISZERO PUSH2 0x16AE JUMPI PUSH2 0x16AE PUSH2 0x202B JUMP JUMPDEST PUSH0 DUP1 DUP3 PUSH2 0x1C0 ADD MLOAD PUSH1 0x57 DUP2 GT ISZERO PUSH2 0x1801 JUMPI PUSH2 0x1801 PUSH2 0x202B JUMP JUMPDEST EQ ISZERO SWAP3 SWAP2 POP POP JUMP JUMPDEST PUSH0 DUP2 PUSH2 0x1C0 ADD MLOAD PUSH1 0x57 DUP2 GT ISZERO PUSH2 0x1821 JUMPI PUSH2 0x1821 PUSH2 0x202B JUMP JUMPDEST SUB PUSH2 0x1829 JUMPI POP JUMP JUMPDEST PUSH2 0x16D4 DUP2 PUSH1 0x7 DUP4 PUSH2 0x1C0 ADD MLOAD PUSH1 0x57 DUP2 GT ISZERO PUSH2 0x16AE JUMPI PUSH2 0x16AE PUSH2 0x202B JUMP JUMPDEST PUSH0 DUP2 PUSH2 0x1E0 ADD MLOAD PUSH1 0x15 DUP2 GT ISZERO PUSH2 0x185E JUMPI PUSH2 0x185E PUSH2 0x202B JUMP JUMPDEST SUB PUSH2 0x1866 JUMPI POP JUMP JUMPDEST PUSH2 0x16D4 DUP2 PUSH1 0x8 DUP4 PUSH2 0x1E0 ADD MLOAD PUSH1 0x15 DUP2 GT ISZERO PUSH2 0x16AE JUMPI PUSH2 0x16AE PUSH2 0x202B JUMP JUMPDEST PUSH0 DUP2 PUSH2 0x1A0 ADD MLOAD PUSH1 0x3 DUP2 GT ISZERO PUSH2 0x189B JUMPI PUSH2 0x189B PUSH2 0x202B JUMP JUMPDEST SUB PUSH2 0x18A3 JUMPI POP JUMP JUMPDEST PUSH2 0x16D4 DUP2 PUSH1 0x9 DUP4 PUSH2 0x1A0 ADD MLOAD PUSH1 0x3 DUP2 GT ISZERO PUSH2 0x16AE JUMPI PUSH2 0x16AE PUSH2 0x202B JUMP JUMPDEST PUSH0 DUP1 DUP3 PUSH2 0x240 ADD MLOAD PUSH1 0xA8 DUP2 GT ISZERO PUSH2 0x1801 JUMPI PUSH2 0x1801 PUSH2 0x202B JUMP JUMPDEST PUSH0 DUP2 PUSH2 0x220 ADD MLOAD PUSH1 0x69 DUP2 GT ISZERO PUSH2 0x18F1 JUMPI PUSH2 0x18F1 PUSH2 0x202B JUMP JUMPDEST SUB PUSH2 0x18F9 JUMPI POP JUMP JUMPDEST PUSH2 0x16D4 DUP2 PUSH1 0xB DUP4 PUSH2 0x220 ADD MLOAD PUSH1 0x69 DUP2 GT ISZERO PUSH2 0x16AE JUMPI PUSH2 0x16AE PUSH2 0x202B JUMP JUMPDEST PUSH0 DUP2 PUSH2 0x200 ADD MLOAD PUSH1 0xD3 DUP2 GT ISZERO PUSH2 0x192E JUMPI PUSH2 0x192E PUSH2 0x202B JUMP JUMPDEST SUB PUSH2 0x1936 JUMPI POP JUMP JUMPDEST PUSH2 0x16D4 DUP2 PUSH1 0xA DUP4 PUSH2 0x200 ADD MLOAD PUSH1 0xD3 DUP2 GT ISZERO PUSH2 0x16AE JUMPI PUSH2 0x16AE PUSH2 0x202B JUMP JUMPDEST PUSH0 DUP2 PUSH2 0x240 ADD MLOAD PUSH1 0xA8 DUP2 GT ISZERO PUSH2 0x196B JUMPI PUSH2 0x196B PUSH2 0x202B JUMP JUMPDEST SUB PUSH2 0x1973 JUMPI POP JUMP JUMPDEST PUSH2 0x1990 DUP2 PUSH1 0xC DUP4 PUSH2 0x240 ADD MLOAD PUSH1 0xA8 DUP2 GT ISZERO PUSH2 0x16AE JUMPI PUSH2 0x16AE PUSH2 0x202B JUMP JUMPDEST PUSH1 0x16 DUP2 PUSH2 0x100 ADD MLOAD PUSH1 0x1C DUP2 GT ISZERO PUSH2 0x19A9 JUMPI PUSH2 0x19A9 PUSH2 0x202B JUMP JUMPDEST SUB PUSH2 0x19BB JUMPI PUSH2 0x19BB DUP2 PUSH1 0x1A PUSH1 0x3 PUSH2 0x1E5A JUMP JUMPDEST PUSH1 0x15 DUP2 PUSH2 0x100 ADD MLOAD PUSH1 0x1C DUP2 GT ISZERO PUSH2 0x19D4 JUMPI PUSH2 0x19D4 PUSH2 0x202B JUMP JUMPDEST SUB PUSH2 0x16D4 JUMPI PUSH2 0x16D4 DUP2 PUSH1 0x1A PUSH1 0x2 PUSH2 0x1E5A JUMP JUMPDEST PUSH0 DUP2 PUSH2 0x260 ADD MLOAD PUSH1 0x7F DUP2 GT ISZERO PUSH2 0x19FE JUMPI PUSH2 0x19FE PUSH2 0x202B JUMP JUMPDEST SUB PUSH2 0x1A06 JUMPI POP JUMP JUMPDEST PUSH2 0x16D4 DUP2 PUSH1 0xD DUP4 PUSH2 0x260 ADD MLOAD PUSH1 0x7F DUP2 GT ISZERO PUSH2 0x16AE JUMPI PUSH2 0x16AE PUSH2 0x202B JUMP JUMPDEST PUSH2 0x16D4 DUP2 PUSH1 0xE DUP4 PUSH2 0x280 ADD MLOAD PUSH1 0x19 DUP2 GT ISZERO PUSH2 0x16AE JUMPI PUSH2 0x16AE PUSH2 0x202B JUMP JUMPDEST PUSH0 DUP2 PUSH2 0x2A0 ADD MLOAD PUSH1 0x1E DUP2 GT ISZERO PUSH2 0x1A58 JUMPI PUSH2 0x1A58 PUSH2 0x202B JUMP JUMPDEST SUB PUSH2 0x1A60 JUMPI POP JUMP JUMPDEST PUSH2 0x16D4 DUP2 PUSH1 0xF DUP4 PUSH2 0x2A0 ADD MLOAD PUSH1 0x1E DUP2 GT ISZERO PUSH2 0x16AE JUMPI PUSH2 0x16AE PUSH2 0x202B JUMP JUMPDEST PUSH0 DUP2 PUSH2 0x2C0 ADD MLOAD PUSH1 0x12 DUP2 GT ISZERO PUSH2 0x1A95 JUMPI PUSH2 0x1A95 PUSH2 0x202B JUMP JUMPDEST SUB PUSH2 0x1A9D JUMPI POP JUMP JUMPDEST PUSH2 0x16D4 DUP2 PUSH1 0x10 DUP4 PUSH2 0x2C0 ADD MLOAD PUSH1 0x12 DUP2 GT ISZERO PUSH2 0x16AE JUMPI PUSH2 0x16AE PUSH2 0x202B JUMP JUMPDEST PUSH0 DUP2 PUSH2 0x2E0 ADD MLOAD PUSH1 0x8 DUP2 GT ISZERO PUSH2 0x1AD2 JUMPI PUSH2 0x1AD2 PUSH2 0x202B JUMP JUMPDEST SUB PUSH2 0x1ADA JUMPI POP JUMP JUMPDEST PUSH2 0x16D4 DUP2 PUSH1 0x11 DUP4 PUSH2 0x2E0 ADD MLOAD PUSH1 0x8 DUP2 GT ISZERO PUSH2 0x16AE JUMPI PUSH2 0x16AE PUSH2 0x202B JUMP JUMPDEST PUSH0 DUP2 PUSH2 0x300 ADD MLOAD PUSH1 0x8 DUP2 GT ISZERO PUSH2 0x1B0F JUMPI PUSH2 0x1B0F PUSH2 0x202B JUMP JUMPDEST SUB PUSH2 0x1B17 JUMPI POP JUMP JUMPDEST PUSH2 0x16D4 DUP2 PUSH1 0x12 DUP4 PUSH2 0x300 ADD MLOAD PUSH1 0x8 DUP2 GT ISZERO PUSH2 0x16AE JUMPI PUSH2 0x16AE PUSH2 0x202B JUMP JUMPDEST PUSH0 DUP2 PUSH2 0x340 ADD MLOAD PUSH1 0x14 DUP2 GT ISZERO PUSH2 0x1B4C JUMPI PUSH2 0x1B4C PUSH2 0x202B JUMP JUMPDEST SUB PUSH2 0x1B54 JUMPI POP JUMP JUMPDEST PUSH2 0x16D4 DUP2 PUSH1 0x13 DUP4 PUSH2 0x340 ADD MLOAD PUSH1 0x14 DUP2 GT ISZERO PUSH2 0x16AE JUMPI PUSH2 0x16AE PUSH2 0x202B JUMP JUMPDEST PUSH0 DUP2 PUSH2 0x320 ADD MLOAD PUSH1 0x3 DUP2 GT ISZERO PUSH2 0x1B89 JUMPI PUSH2 0x1B89 PUSH2 0x202B JUMP JUMPDEST SUB PUSH2 0x1B91 JUMPI POP JUMP JUMPDEST PUSH2 0x16D4 DUP2 PUSH1 0x14 DUP4 PUSH2 0x320 ADD MLOAD PUSH1 0x3 DUP2 GT ISZERO PUSH2 0x16AE JUMPI PUSH2 0x16AE PUSH2 0x202B JUMP JUMPDEST PUSH0 DUP1 DUP3 PUSH2 0x3A0 ADD MLOAD PUSH1 0x82 DUP2 GT ISZERO PUSH2 0x1801 JUMPI PUSH2 0x1801 PUSH2 0x202B JUMP JUMPDEST PUSH0 DUP2 PUSH2 0x380 ADD MLOAD PUSH1 0x84 DUP2 GT ISZERO PUSH2 0x1BDF JUMPI PUSH2 0x1BDF PUSH2 0x202B JUMP JUMPDEST SUB PUSH2 0x1BE7 JUMPI POP JUMP JUMPDEST PUSH2 0x16D4 DUP2 PUSH1 0x16 DUP4 PUSH2 0x380 ADD MLOAD PUSH1 0x84 DUP2 GT ISZERO PUSH2 0x16AE JUMPI PUSH2 0x16AE PUSH2 0x202B JUMP JUMPDEST PUSH0 DUP2 PUSH2 0x360 ADD MLOAD PUSH1 0xC2 DUP2 GT ISZERO PUSH2 0x1C1C JUMPI PUSH2 0x1C1C PUSH2 0x202B JUMP JUMPDEST SUB PUSH2 0x1C24 JUMPI POP JUMP JUMPDEST PUSH2 0x16D4 DUP2 PUSH1 0x15 DUP4 PUSH2 0x360 ADD MLOAD PUSH1 0xC2 DUP2 GT ISZERO PUSH2 0x16AE JUMPI PUSH2 0x16AE PUSH2 0x202B JUMP JUMPDEST PUSH0 DUP2 PUSH2 0x3A0 ADD MLOAD PUSH1 0x82 DUP2 GT ISZERO PUSH2 0x1C59 JUMPI PUSH2 0x1C59 PUSH2 0x202B JUMP JUMPDEST SUB PUSH2 0x1C61 JUMPI POP JUMP JUMPDEST PUSH2 0x1C7E DUP2 PUSH1 0x17 DUP4 PUSH2 0x3A0 ADD MLOAD PUSH1 0x82 DUP2 GT ISZERO PUSH2 0x16AE JUMPI PUSH2 0x16AE PUSH2 0x202B JUMP JUMPDEST PUSH1 0x15 DUP2 PUSH2 0x280 ADD MLOAD PUSH1 0x19 DUP2 GT ISZERO PUSH2 0x1C97 JUMPI PUSH2 0x1C97 PUSH2 0x202B JUMP JUMPDEST SUB PUSH2 0x16D4 JUMPI PUSH2 0x16D4 DUP2 PUSH1 0x1A PUSH1 0x1 PUSH2 0x1E5A JUMP JUMPDEST PUSH0 DUP2 PUSH2 0x3C0 ADD MLOAD PUSH1 0x79 DUP2 GT ISZERO PUSH2 0x1CC1 JUMPI PUSH2 0x1CC1 PUSH2 0x202B JUMP JUMPDEST SUB PUSH2 0x1CC9 JUMPI POP JUMP JUMPDEST PUSH2 0x16D4 DUP2 PUSH1 0x18 DUP4 PUSH2 0x3C0 ADD MLOAD PUSH1 0x79 DUP2 GT ISZERO PUSH2 0x16AE JUMPI PUSH2 0x16AE PUSH2 0x202B JUMP JUMPDEST PUSH0 DUP1 DUP3 PUSH2 0x340 ADD MLOAD PUSH1 0x14 DUP2 GT ISZERO PUSH2 0x1801 JUMPI PUSH2 0x1801 PUSH2 0x202B JUMP JUMPDEST PUSH0 DUP1 DUP3 PUSH2 0x1E0 ADD MLOAD PUSH1 0x15 DUP2 GT ISZERO PUSH2 0x1801 JUMPI PUSH2 0x1801 PUSH2 0x202B JUMP JUMPDEST PUSH0 DUP2 PUSH2 0x3E0 ADD MLOAD PUSH1 0x16 DUP2 GT ISZERO PUSH2 0x1D30 JUMPI PUSH2 0x1D30 PUSH2 0x202B JUMP JUMPDEST SUB PUSH2 0x1D38 JUMPI POP JUMP JUMPDEST PUSH2 0x16D4 DUP2 PUSH1 0x19 DUP4 PUSH2 0x3E0 ADD MLOAD PUSH1 0x16 DUP2 GT ISZERO PUSH2 0x16AE JUMPI PUSH2 0x16AE PUSH2 0x202B JUMP JUMPDEST PUSH1 0x20 DUP1 DUP3 ADD DUP1 MLOAD PUSH1 0x1 ADD SWAP1 DUP2 SWAP1 MSTORE DUP3 MLOAD PUSH1 0x40 MLOAD PUSH0 SWAP4 PUSH2 0x1D7E SWAP4 SWAP2 ADD SWAP2 DUP3 MSTORE PUSH1 0x20 DUP3 ADD MSTORE PUSH1 0x40 ADD SWAP1 JUMP JUMPDEST PUSH1 0x40 DUP1 MLOAD PUSH1 0x1F NOT DUP2 DUP5 SUB ADD DUP2 MSTORE SWAP2 SWAP1 MSTORE DUP1 MLOAD PUSH1 0x20 SWAP1 SWAP2 ADD KECCAK256 SWAP2 DUP3 SWAP1 MSTORE POP SWAP1 JUMP JUMPDEST PUSH2 0x1DD9 PUSH1 0x40 DUP1 MLOAD PUSH1 0x80 DUP2 ADD SWAP1 SWAP2 MSTORE DUP1 PUSH0 DUP2 MSTORE PUSH0 PUSH1 0x20 DUP3 ADD DUP2 SWAP1 MSTORE PUSH1 0x40 DUP3 ADD MSTORE PUSH1 0x60 ADD PUSH2 0x1FD7 PUSH1 0x40 DUP1 MLOAD DUP1 DUP3 ADD SWAP1 SWAP2 MSTORE PUSH0 DUP1 DUP3 MSTORE PUSH1 0x20 DUP3 ADD MSTORE SWAP1 JUMP JUMPDEST DUP1 DUP4 PUSH1 0x1A DUP2 GT ISZERO PUSH2 0x1DEC JUMPI PUSH2 0x1DEC PUSH2 0x202B JUMP JUMPDEST SWAP1 DUP2 PUSH1 0x1A DUP2 GT ISZERO PUSH2 0x1DFF JUMPI PUSH2 0x1DFF PUSH2 0x202B JUMP JUMPDEST SWAP1 MSTORE POP PUSH1 0xFF DUP1 DUP4 AND PUSH1 0x20 DUP1 DUP5 ADD SWAP2 SWAP1 SWAP2 MSTORE PUSH0 PUSH1 0x40 DUP5 ADD MSTORE DUP6 MLOAD SWAP1 DUP7 ADD MLOAD DUP2 MLOAD DUP5 SWAP4 SWAP2 SWAP1 SWAP2 AND SWAP1 DUP2 LT PUSH2 0x1E33 JUMPI PUSH2 0x1E33 PUSH2 0x27C8 JUMP JUMPDEST PUSH1 0x20 MUL PUSH1 0x20 ADD ADD DUP2 SWAP1 MSTORE POP DUP4 PUSH1 0x20 ADD DUP1 MLOAD DUP1 SWAP2 SWAP1 PUSH1 0x1 ADD PUSH1 0xFF AND PUSH1 0xFF AND DUP2 MSTORE POP POP POP POP POP POP JUMP JUMPDEST PUSH1 0x40 DUP1 MLOAD DUP1 DUP3 ADD SWAP1 SWAP2 MSTORE PUSH0 DUP1 DUP3 MSTORE PUSH1 0x20 DUP3 ADD MSTORE DUP1 DUP4 PUSH1 0x1A DUP2 GT ISZERO PUSH2 0x1E80 JUMPI PUSH2 0x1E80 PUSH2 0x202B JUMP JUMPDEST SWAP1 DUP2 PUSH1 0x1A DUP2 GT ISZERO PUSH2 0x1E93 JUMPI PUSH2 0x1E93 PUSH2 0x202B JUMP JUMPDEST SWAP1 MSTORE POP PUSH1 0xFF DUP1 DUP4 AND PUSH1 0x20 DUP1 DUP5 ADD SWAP2 SWAP1 SWAP2 MSTORE DUP6 ADD MLOAD DUP6 MLOAD DUP1 MLOAD PUSH0 NOT SWAP1 SWAP3 ADD SWAP1 SWAP3 AND SWAP2 PUSH1 0x1 SWAP2 DUP4 SWAP1 DUP2 LT PUSH2 0x1EC7 JUMPI PUSH2 0x1EC7 PUSH2 0x27C8 JUMP JUMPDEST PUSH1 0x20 MUL PUSH1 0x20 ADD ADD MLOAD PUSH1 0x40 ADD SWAP1 ISZERO ISZERO SWAP1 DUP2 ISZERO ISZERO DUP2 MSTORE POP POP DUP2 DUP6 PUSH0 ADD MLOAD DUP3 DUP2 MLOAD DUP2 LT PUSH2 0x1EF3 JUMPI PUSH2 0x1EF3 PUSH2 0x27C8 JUMP JUMPDEST PUSH1 0x20 MUL PUSH1 0x20 ADD ADD MLOAD PUSH1 0x60 ADD DUP2 SWAP1 MSTORE POP POP POP POP POP POP JUMP JUMPDEST PUSH1 0x40 DUP1 MLOAD PUSH2 0x400 DUP2 ADD DUP3 MSTORE PUSH1 0x60 DUP1 DUP3 MSTORE PUSH0 PUSH1 0x20 DUP4 ADD DUP2 SWAP1 MSTORE SWAP3 DUP3 ADD DUP4 SWAP1 MSTORE DUP2 ADD DUP3 SWAP1 MSTORE PUSH1 0x80 DUP2 ADD DUP3 SWAP1 MSTORE PUSH1 0xA0 DUP2 ADD DUP3 SWAP1 MSTORE SWAP1 PUSH1 0xC0 DUP3 ADD SWAP1 DUP2 MSTORE PUSH1 0x20 ADD PUSH0 DUP2 MSTORE PUSH1 0x20 ADD PUSH0 DUP2 MSTORE PUSH1 0x20 ADD PUSH0 DUP2 MSTORE PUSH1 0x20 ADD PUSH0 DUP2 MSTORE PUSH1 0x20 ADD PUSH0 DUP2 MSTORE PUSH1 0x20 ADD PUSH0 DUP2 MSTORE PUSH1 0x20 ADD PUSH0 DUP2 MSTORE PUSH1 0x20 ADD PUSH0 DUP2 MSTORE PUSH1 0x20 ADD PUSH0 DUP2 MSTORE PUSH1 0x20 ADD PUSH0 DUP2 MSTORE PUSH1 0x20 ADD PUSH0 DUP2 MSTORE PUSH1 0x20 ADD PUSH0 DUP2 MSTORE PUSH1 0x20 ADD PUSH0 DUP2 MSTORE PUSH1 0x20 ADD PUSH0 DUP2 MSTORE PUSH1 0x20 ADD PUSH0 DUP2 MSTORE PUSH1 0x20 ADD PUSH0 DUP2 MSTORE PUSH1 0x20 ADD PUSH0 DUP2 MSTORE PUSH1 0x20 ADD PUSH0 DUP2 MSTORE PUSH1 0x20 ADD PUSH0 DUP2 MSTORE PUSH1 0x20 ADD PUSH0 DUP2 MSTORE PUSH1 0x20 ADD PUSH0 DUP2 MSTORE PUSH1 0x20 ADD PUSH0 DUP2 MSTORE PUSH1 0x20 ADD PUSH0 DUP2 MSTORE PUSH1 0x20 ADD PUSH0 DUP2 MSTORE PUSH1 0x20 ADD PUSH0 JUMPDEST SWAP1 MSTORE SWAP1 JUMP JUMPDEST DUP1 CALLDATALOAD PUSH2 0xFFFF DUP2 AND DUP2 EQ PUSH2 0x1FED JUMPI PUSH0 PUSH0 REVERT JUMPDEST SWAP2 SWAP1 POP JUMP JUMPDEST PUSH0 PUSH0 PUSH0 PUSH1 0x60 DUP5 DUP7 SUB SLT ISZERO PUSH2 0x2004 JUMPI PUSH0 PUSH0 REVERT JUMPDEST PUSH2 0x200D DUP5 PUSH2 0x1FDC JUMP JUMPDEST SWAP3 POP PUSH2 0x201B PUSH1 0x20 DUP6 ADD PUSH2 0x1FDC JUMP JUMPDEST SWAP2 POP PUSH1 0x40 DUP5 ADD CALLDATALOAD SWAP1 POP SWAP3 POP SWAP3 POP SWAP3 JUMP JUMPDEST PUSH4 0x4E487B71 PUSH1 0xE0 SHL PUSH0 MSTORE PUSH1 0x21 PUSH1 0x4 MSTORE PUSH1 0x24 PUSH0 REVERT JUMPDEST PUSH1 0x1B DUP2 LT PUSH2 0x204F JUMPI PUSH2 0x204F PUSH2 0x202B JUMP JUMPDEST SWAP1 MSTORE JUMP JUMPDEST PUSH0 DUP2 MLOAD DUP1 DUP5 MSTORE PUSH1 0x20 DUP5 ADD SWAP4 POP PUSH1 0x20 DUP4 ADD PUSH0 JUMPDEST DUP3 DUP2 LT ISZERO PUSH2 0x20C9 JUMPI DUP2 MLOAD PUSH2 0x207A DUP8 DUP3 MLOAD PUSH2 0x203F JUMP JUMPDEST PUSH1 0xFF PUSH1 0x20 DUP3 ADD MLOAD AND PUSH1 0x20 DUP9 ADD MSTORE PUSH1 0x40 DUP2 ADD MLOAD ISZERO ISZERO PUSH1 0x40 DUP9 ADD MSTORE PUSH1 0x60 DUP2 ADD MLOAD SWAP1 POP PUSH2 0x20A8 PUSH1 0x60 DUP9 ADD DUP3 MLOAD PUSH2 0x203F JUMP JUMPDEST PUSH1 0x20 SWAP1 DUP2 ADD MLOAD PUSH1 0xFF AND PUSH1 0x80 DUP9 ADD MSTORE PUSH1 0xA0 SWAP1 SWAP7 ADD SWAP6 SWAP2 SWAP1 SWAP2 ADD SWAP1 PUSH1 0x1 ADD PUSH2 0x2065 JUMP JUMPDEST POP SWAP4 SWAP5 SWAP4 POP POP POP POP JUMP JUMPDEST PUSH1 0x2 DUP2 LT PUSH2 0x204F JUMPI PUSH2 0x204F PUSH2 0x202B JUMP JUMPDEST PUSH1 0x6 DUP2 LT PUSH2 0x204F JUMPI PUSH2 0x204F PUSH2 0x202B JUMP JUMPDEST PUSH1 0x1D DUP2 LT PUSH2 0x204F JUMPI PUSH2 0x204F PUSH2 0x202B JUMP JUMPDEST PUSH1 0x17 DUP2 LT PUSH2 0x204F JUMPI PUSH2 0x204F PUSH2 0x202B JUMP JUMPDEST PUSH1 0x14 DUP2 LT PUSH2 0x204F JUMPI PUSH2 0x204F PUSH2 0x202B JUMP JUMPDEST PUSH1 0x9 DUP2 LT PUSH2 0x204F JUMPI PUSH2 0x204F PUSH2 0x202B JUMP JUMPDEST PUSH1 0x4 DUP2 LT PUSH2 0x204F JUMPI PUSH2 0x204F PUSH2 0x202B JUMP JUMPDEST PUSH1 0x58 DUP2 LT PUSH2 0x204F JUMPI PUSH2 0x204F PUSH2 0x202B JUMP JUMPDEST PUSH1 0x16 DUP2 LT PUSH2 0x204F JUMPI PUSH2 0x204F PUSH2 0x202B JUMP JUMPDEST PUSH1 0xD4 DUP2 LT PUSH2 0x204F JUMPI PUSH2 0x204F PUSH2 0x202B JUMP JUMPDEST PUSH1 0x6A DUP2 LT PUSH2 0x204F JUMPI PUSH2 0x204F PUSH2 0x202B JUMP JUMPDEST PUSH1 0xA9 DUP2 LT PUSH2 0x204F JUMPI PUSH2 0x204F PUSH2 0x202B JUMP JUMPDEST PUSH1 0x80 DUP2 LT PUSH2 0x204F JUMPI PUSH2 0x204F PUSH2 0x202B JUMP JUMPDEST PUSH1 0x1A DUP2 LT PUSH2 0x204F JUMPI PUSH2 0x204F PUSH2 0x202B JUMP JUMPDEST PUSH1 0x1F DUP2 LT PUSH2 0x204F JUMPI PUSH2 0x204F PUSH2 0x202B JUMP JUMPDEST PUSH1 0x13 DUP2 LT PUSH2 0x204F JUMPI PUSH2 0x204F PUSH2 0x202B JUMP JUMPDEST PUSH1 0x15 DUP2 LT PUSH2 0x204F JUMPI PUSH2 0x204F PUSH2 0x202B JUMP JUMPDEST PUSH1 0xC3 DUP2 LT PUSH2 0x204F JUMPI PUSH2 0x204F PUSH2 0x202B JUMP JUMPDEST PUSH1 0x85 DUP2 LT PUSH2 0x204F JUMPI PUSH2 0x204F PUSH2 0x202B JUMP JUMPDEST PUSH1 0x83 DUP2 LT PUSH2 0x204F JUMPI PUSH2 0x204F PUSH2 0x202B JUMP JUMPDEST PUSH1 0x7A DUP2 LT PUSH2 0x204F JUMPI PUSH2 0x204F PUSH2 0x202B JUMP JUMPDEST PUSH0 DUP2 MLOAD PUSH2 0x400 DUP5 MSTORE PUSH2 0x2239 PUSH2 0x400 DUP6 ADD DUP3 PUSH2 0x2053 JUMP JUMPDEST SWAP1 POP PUSH1 0x20 DUP4 ADD MLOAD PUSH2 0x224F PUSH1 0x20 DUP7 ADD DUP3 PUSH1 0xFF AND SWAP1 MSTORE JUMP JUMPDEST POP PUSH1 0x40 DUP4 ADD MLOAD PUSH2 0x2265 PUSH1 0x40 DUP7 ADD DUP3 PUSH2 0xFFFF AND SWAP1 MSTORE JUMP JUMPDEST POP PUSH1 0x60 DUP4 ADD MLOAD PUSH1 0x60 DUP6 ADD MSTORE PUSH1 0x80 DUP4 ADD MLOAD PUSH2 0x2285 PUSH1 0x80 DUP7 ADD DUP3 PUSH2 0xFFFF AND SWAP1 MSTORE JUMP JUMPDEST POP PUSH1 0xA0 DUP4 ADD MLOAD PUSH2 0x229D PUSH1 0xA0 DUP7 ADD DUP3 PUSH4 0xFFFFFFFF AND SWAP1 MSTORE JUMP JUMPDEST POP PUSH1 0xC0 DUP4 ADD MLOAD PUSH2 0x22B0 PUSH1 0xC0 DUP7 ADD DUP3 PUSH2 0x20D3 JUMP JUMPDEST POP PUSH1 0xE0 DUP4 ADD MLOAD PUSH2 0x22C3 PUSH1 0xE0 DUP7 ADD DUP3 PUSH2 0x20E3 JUMP JUMPDEST POP PUSH2 0x100 DUP4 ADD MLOAD PUSH2 0x22D8 PUSH2 0x100 DUP7 ADD DUP3 PUSH2 0x20F3 JUMP JUMPDEST POP PUSH2 0x120 DUP4 ADD MLOAD PUSH2 0x22ED PUSH2 0x120 DUP7 ADD DUP3 PUSH2 0x2103 JUMP JUMPDEST POP PUSH2 0x140 DUP4 ADD MLOAD PUSH2 0x2302 PUSH2 0x140 DUP7 ADD DUP3 PUSH2 0x2113 JUMP JUMPDEST POP PUSH2 0x160 DUP4 ADD MLOAD PUSH2 0x2317 PUSH2 0x160 DUP7 ADD DUP3 PUSH2 0x2123 JUMP JUMPDEST POP PUSH2 0x180 DUP4 ADD MLOAD PUSH2 0x232C PUSH2 0x180 DUP7 ADD DUP3 PUSH2 0x2123 JUMP JUMPDEST POP PUSH2 0x1A0 DUP4 ADD MLOAD PUSH2 0x2341 PUSH2 0x1A0 DUP7 ADD DUP3 PUSH2 0x2133 JUMP JUMPDEST POP PUSH2 0x1C0 DUP4 ADD MLOAD PUSH2 0x2356 PUSH2 0x1C0 DUP7 ADD DUP3 PUSH2 0x2143 JUMP JUMPDEST POP PUSH2 0x1E0 DUP4 ADD MLOAD PUSH2 0x236B PUSH2 0x1E0 DUP7 ADD DUP3 PUSH2 0x2153 JUMP JUMPDEST POP PUSH2 0x200 DUP4 ADD MLOAD PUSH2 0x2380 PUSH2 0x200 DUP7 ADD DUP3 PUSH2 0x2163 JUMP JUMPDEST POP PUSH2 0x220 DUP4 ADD MLOAD PUSH2 0x2395 PUSH2 0x220 DUP7 ADD DUP3 PUSH2 0x2173 JUMP JUMPDEST POP PUSH2 0x240 DUP4 ADD MLOAD PUSH2 0x23AA PUSH2 0x240 DUP7 ADD DUP3 PUSH2 0x2183 JUMP JUMPDEST POP PUSH2 0x260 DUP4 ADD MLOAD PUSH2 0x23BF PUSH2 0x260 DUP7 ADD DUP3 PUSH2 0x2193 JUMP JUMPDEST POP PUSH2 0x280 DUP4 ADD MLOAD PUSH2 0x23D4 PUSH2 0x280 DUP7 ADD DUP3 PUSH2 0x21A3 JUMP JUMPDEST POP PUSH2 0x2A0 DUP4 ADD MLOAD PUSH2 0x23E9 PUSH2 0x2A0 DUP7 ADD DUP3 PUSH2 0x21B3 JUMP JUMPDEST POP PUSH2 0x2C0 DUP4 ADD MLOAD PUSH2 0x23FE PUSH2 0x2C0 DUP7 ADD DUP3 PUSH2 0x21C3 JUMP JUMPDEST POP PUSH2 0x2E0 DUP4 ADD MLOAD PUSH2 0x2413 PUSH2 0x2E0 DUP7 ADD DUP3 PUSH2 0x2123 JUMP JUMPDEST POP PUSH2 0x300 DUP4 ADD MLOAD PUSH2 0x2428 PUSH2 0x300 DUP7 ADD DUP3 PUSH2 0x2123 JUMP JUMPDEST POP PUSH2 0x320 DUP4 ADD MLOAD PUSH2 0x243D PUSH2 0x320 DUP7 ADD DUP3 PUSH2 0x2133 JUMP JUMPDEST POP PUSH2 0x340 DUP4 ADD MLOAD PUSH2 0x2452 PUSH2 0x340 DUP7 ADD DUP3 PUSH2 0x21D3 JUMP JUMPDEST POP PUSH2 0x360 DUP4 ADD MLOAD PUSH2 0x2467 PUSH2 0x360 DUP7 ADD DUP3 PUSH2 0x21E3 JUMP JUMPDEST POP PUSH2 0x380 DUP4 ADD MLOAD PUSH2 0x247C PUSH2 0x380 DUP7 ADD DUP3 PUSH2 0x21F3 JUMP JUMPDEST POP PUSH2 0x3A0 DUP4 ADD MLOAD PUSH2 0x2491 PUSH2 0x3A0 DUP7 ADD DUP3 PUSH2 0x2203 JUMP JUMPDEST POP PUSH2 0x3C0 DUP4 ADD MLOAD PUSH2 0x24A6 PUSH2 0x3C0 DUP7 ADD DUP3 PUSH2 0x2213 JUMP JUMPDEST POP PUSH2 0x3E0 DUP4 ADD MLOAD PUSH2 0x24BB PUSH2 0x3E0 DUP7 ADD DUP3 PUSH2 0x2103 JUMP JUMPDEST POP SWAP4 SWAP3 POP POP POP JUMP JUMPDEST PUSH1 0x20 DUP2 MSTORE PUSH0 PUSH2 0x15C9 PUSH1 0x20 DUP4 ADD DUP5 PUSH2 0x2223 JUMP JUMPDEST PUSH4 0x4E487B71 PUSH1 0xE0 SHL PUSH0 MSTORE PUSH1 0x11 PUSH1 0x4 MSTORE PUSH1 0x24 PUSH0 REVERT JUMPDEST PUSH2 0xFFFF DUP2 DUP2 AND DUP4 DUP3 AND ADD SWAP1 DUP2 GT ISZERO PUSH2 0x1634 JUMPI PUSH2 0x1634 PUSH2 0x24D5 JUMP JUMPDEST PUSH2 0xFFFF DUP3 DUP2 AND DUP3 DUP3 AND SUB SWAP1 DUP2 GT ISZERO PUSH2 0x1634 JUMPI PUSH2 0x1634 PUSH2 0x24D5 JUMP JUMPDEST DUP2 MLOAD DUP2 MSTORE PUSH1 0x20 DUP1 DUP4 ADD MLOAD SWAP1 DUP3 ADD MSTORE PUSH1 0x40 DUP2 ADD PUSH2 0x1634 JUMP JUMPDEST PUSH0 PUSH1 0x20 DUP3 DUP5 SUB SLT ISZERO PUSH2 0x2544 JUMPI PUSH0 PUSH0 REVERT JUMPDEST DUP2 MLOAD PUSH1 0x1D DUP2 LT PUSH2 0x15C9 JUMPI PUSH0 PUSH0 REVERT JUMPDEST PUSH1 0x60 DUP2 MSTORE PUSH0 PUSH2 0x2564 PUSH1 0x60 DUP4 ADD DUP6 PUSH2 0x2223 JUMP JUMPDEST SWAP1 POP PUSH2 0x15C9 PUSH1 0x20 DUP4 ADD DUP5 DUP1 MLOAD DUP3 MSTORE PUSH1 0x20 SWAP1 DUP2 ADD MLOAD SWAP2 ADD MSTORE JUMP JUMPDEST PUSH1 0x17 DUP2 LT PUSH2 0x16D4 JUMPI PUSH0 PUSH0 REVERT JUMPDEST PUSH0 PUSH1 0x20 DUP3 DUP5 SUB SLT ISZERO PUSH2 0x2599 JUMPI PUSH0 PUSH0 REVERT JUMPDEST DUP2 MLOAD PUSH2 0x15C9 DUP2 PUSH2 0x257D JUMP JUMPDEST PUSH0 PUSH1 0x20 DUP3 DUP5 SUB SLT ISZERO PUSH2 0x25B4 JUMPI PUSH0 PUSH0 REVERT JUMPDEST DUP2 MLOAD PUSH1 0x14 DUP2 LT PUSH2 0x15C9 JUMPI PUSH0 PUSH0 REVERT JUMPDEST PUSH1 0x9 DUP2 LT PUSH2 0x16D4 JUMPI PUSH0 PUSH0 REVERT JUMPDEST PUSH0 PUSH1 0x20 DUP3 DUP5 SUB SLT ISZERO PUSH2 0x25DE JUMPI PUSH0 PUSH0 REVERT JUMPDEST DUP2 MLOAD PUSH2 0x15C9 DUP2 PUSH2 0x25C2 JUMP JUMPDEST PUSH0 PUSH1 0x20 DUP3 DUP5 SUB SLT ISZERO PUSH2 0x25F9 JUMPI PUSH0 PUSH0 REVERT JUMPDEST DUP2 MLOAD PUSH1 0x58 DUP2 LT PUSH2 0x15C9 JUMPI PUSH0 PUSH0 REVERT JUMPDEST PUSH0 PUSH1 0x20 DUP3 DUP5 SUB SLT ISZERO PUSH2 0x2617 JUMPI PUSH0 PUSH0 REVERT JUMPDEST DUP2 MLOAD PUSH1 0x16 DUP2 LT PUSH2 0x15C9 JUMPI PUSH0 PUSH0 REVERT JUMPDEST PUSH1 0x4 DUP2 LT PUSH2 0x16D4 JUMPI PUSH0 PUSH0 REVERT JUMPDEST PUSH0 PUSH1 0x20 DUP3 DUP5 SUB SLT ISZERO PUSH2 0x2641 JUMPI PUSH0 PUSH0 REVERT JUMPDEST DUP2 MLOAD PUSH2 0x15C9 DUP2 PUSH2 0x2625 JUMP JUMPDEST PUSH0 PUSH1 0x20 DUP3 DUP5 SUB SLT ISZERO PUSH2 0x265C JUMPI PUSH0 PUSH0 REVERT JUMPDEST DUP2 MLOAD PUSH1 0xD4 DUP2 LT PUSH2 0x15C9 JUMPI PUSH0 PUSH0 REVERT JUMPDEST PUSH0 PUSH1 0x20 DUP3 DUP5 SUB SLT ISZERO PUSH2 0x267A JUMPI PUSH0 PUSH0 REVERT JUMPDEST DUP2 MLOAD PUSH1 0x6A DUP2 LT PUSH2 0x15C9 JUMPI PUSH0 PUSH0 REVERT JUMPDEST PUSH0 PUSH1 0x20 DUP3 DUP5 SUB SLT ISZERO PUSH2 0x2698 JUMPI PUSH0 PUSH0 REVERT JUMPDEST DUP2 MLOAD PUSH1 0xA9 DUP2 LT PUSH2 0x15C9 JUMPI PUSH0 PUSH0 REVERT JUMPDEST PUSH0 PUSH1 0x20 DUP3 DUP5 SUB SLT ISZERO PUSH2 0x26B6 JUMPI PUSH0 PUSH0 REVERT JUMPDEST DUP2 MLOAD PUSH1 0x80 DUP2 LT PUSH2 0x15C9 JUMPI PUSH0 PUSH0 REVERT JUMPDEST PUSH0 PUSH1 0x20 DUP3 DUP5 SUB SLT ISZERO PUSH2 0x26D4 JUMPI PUSH0 PUSH0 REVERT JUMPDEST DUP2 MLOAD PUSH1 0x1A DUP2 LT PUSH2 0x15C9 JUMPI PUSH0 PUSH0 REVERT JUMPDEST PUSH0 PUSH1 0x20 DUP3 DUP5 SUB SLT ISZERO PUSH2 0x26F2 JUMPI PUSH0 PUSH0 REVERT JUMPDEST DUP2 MLOAD PUSH1 0x1F DUP2 LT PUSH2 0x15C9 JUMPI PUSH0 PUSH0 REVERT JUMPDEST PUSH0 PUSH1 0x20 DUP3 DUP5 SUB SLT ISZERO PUSH2 0x2710 JUMPI PUSH0 PUSH0 REVERT JUMPDEST DUP2 MLOAD PUSH1 0x13 DUP2 LT PUSH2 0x15C9 JUMPI PUSH0 PUSH0 REVERT JUMPDEST PUSH0 PUSH1 0x20 DUP3 DUP5 SUB SLT ISZERO PUSH2 0x272E JUMPI PUSH0 PUSH0 REVERT JUMPDEST DUP2 MLOAD PUSH1 0x15 DUP2 LT PUSH2 0x15C9 JUMPI PUSH0 PUSH0 REVERT JUMPDEST PUSH0 PUSH1 0x20 DUP3 DUP5 SUB SLT ISZERO PUSH2 0x274C JUMPI PUSH0 PUSH0 REVERT JUMPDEST DUP2 MLOAD PUSH1 0xC3 DUP2 LT PUSH2 0x15C9 JUMPI PUSH0 PUSH0 REVERT JUMPDEST PUSH0 PUSH1 0x20 DUP3 DUP5 SUB SLT ISZERO PUSH2 0x276A JUMPI PUSH0 PUSH0 REVERT JUMPDEST DUP2 MLOAD PUSH1 0x85 DUP2 LT PUSH2 0x15C9 JUMPI PUSH0 PUSH0 REVERT JUMPDEST PUSH0 PUSH1 0x20 DUP3 DUP5 SUB SLT ISZERO PUSH2 0x2788 JUMPI PUSH0 PUSH0 REVERT JUMPDEST DUP2 MLOAD PUSH1 0x83 DUP2 LT PUSH2 0x15C9 JUMPI PUSH0 PUSH0 REVERT JUMPDEST PUSH0 PUSH1 0x20 DUP3 DUP5 SUB SLT ISZERO PUSH2 0x27A6 JUMPI PUSH0 PUSH0 REVERT JUMPDEST DUP2 MLOAD PUSH1 0x7A DUP2 LT PUSH2 0x15C9 JUMPI PUSH0 PUSH0 REVERT JUMPDEST PUSH4 0x4E487B71 PUSH1 0xE0 SHL PUSH0 MSTORE PUSH1 0x12 PUSH1 0x4 MSTORE PUSH1 0x24 PUSH0 REVERT JUMPDEST PUSH4 0x4E487B71 PUSH1 0xE0 SHL PUSH0 MSTORE PUSH1 0x32 PUSH1 0x4 MSTORE PUSH1 0x24 PUSH0 REVERT INVALID LOG2 PUSH5 0x6970667358 0x22 SLT KECCAK256 0xDA 0xC7 PUSH7 0xC70188036FF180 CALL KECCAK256 JUMPF 0x1832 EXTCODEHASH SELFDESTRUCT 0xBF OR DUP13 CALLER 0xDD AND SELFBALANCE JUMPF 0xCE4E 0xF PUSH5 0x2B740F6473 PUSH16 0x6C634300082100330000000000000000 "
				},
				"gasEstimates": {
					"creation": {
						"codeDepositCost": "2051600",
						"executionCost": "infinite",
						"totalCost": "infinite"
					},
					"external": {
						"FEMALE_PROBS_CONTRACT()": "infinite",
						"MALE_PROBS_CONTRACT()": "infinite",
						"generateAllTraits(uint16,uint16,uint256)": "infinite"
					},
					"internal": {
						"_addBackground(struct TraitsContext memory)": "infinite",
						"_addFemaleChain(struct TraitsContext memory)": "infinite",
						"_addFemaleEarring(struct TraitsContext memory)": "infinite",
						"_addFemaleEyeWear(struct TraitsContext memory)": "infinite",
						"_addFemaleEyes(struct TraitsContext memory)": "infinite",
						"_addFemaleFace(struct TraitsContext memory)": "infinite",
						"_addFemaleHair(struct TraitsContext memory)": "infinite",
						"_addFemaleHatHair(struct TraitsContext memory)": "infinite",
						"_addFemaleHeadwear(struct TraitsContext memory)": "infinite",
						"_addFemaleMask(struct TraitsContext memory)": "infinite",
						"_addFemaleScarf(struct TraitsContext memory)": "infinite",
						"_addFemaleSkin(struct TraitsContext memory)": "infinite",
						"_addFillerTrait(struct TraitsContext memory,enum E_TraitsGroup,uint8)": "infinite",
						"_addMaleChain(struct TraitsContext memory)": "infinite",
						"_addMaleEarring(struct TraitsContext memory)": "infinite",
						"_addMaleEyeWear(struct TraitsContext memory)": "infinite",
						"_addMaleEyes(struct TraitsContext memory)": "infinite",
						"_addMaleFace(struct TraitsContext memory)": "infinite",
						"_addMaleFacialHair(struct TraitsContext memory)": "infinite",
						"_addMaleHair(struct TraitsContext memory)": "infinite",
						"_addMaleHatHair(struct TraitsContext memory)": "infinite",
						"_addMaleHeadwear(struct TraitsContext memory)": "infinite",
						"_addMaleMask(struct TraitsContext memory)": "infinite",
						"_addMaleScarf(struct TraitsContext memory)": "infinite",
						"_addMaleSkin(struct TraitsContext memory)": "infinite",
						"_addMouth(struct TraitsContext memory)": "infinite",
						"_addSpecial(struct TraitsContext memory,uint256)": "infinite",
						"_addTraitToRender(struct TraitsContext memory,enum E_TraitsGroup,uint8)": "infinite"
					}
				},
				"methodIdentifiers": {
					"FEMALE_PROBS_CONTRACT()": "069157c0",
					"MALE_PROBS_CONTRACT()": "033b42a8",
					"generateAllTraits(uint16,uint16,uint256)": "fd20cb60"
				}
			},
			"storageLayout": {
				"storage": [],
				"types": null
			},
			"userdoc": {
				"kind": "user",
				"methods": {
					"generateAllTraits(uint16,uint16,uint256)": {
						"notice": "Generate all traits for a token"
					}
				},
				"notice": "Generates all traits for a token based on deterministic randomness",
				"version": 1
			}
		}
	}
}