{
	"src/Assets.sol": {
		"Assets": {
			"abi": [
				{
					"inputs": [],
					"stateMutability": "nonpayable",
					"type": "constructor"
				},
				{
					"inputs": [
						{
							"internalType": "address",
							"name": "owner",
							"type": "address"
						}
					],
					"name": "OwnableInvalidOwner",
					"type": "error"
				},
				{
					"inputs": [
						{
							"internalType": "address",
							"name": "account",
							"type": "address"
						}
					],
					"name": "OwnableUnauthorizedAccount",
					"type": "error"
				},
				{
					"anonymous": false,
					"inputs": [
						{
							"indexed": true,
							"internalType": "uint256",
							"name": "key",
							"type": "uint256"
						},
						{
							"indexed": true,
							"internalType": "address",
							"name": "pointer",
							"type": "address"
						},
						{
							"indexed": false,
							"internalType": "uint256",
							"name": "size",
							"type": "uint256"
						}
					],
					"name": "AssetAdded",
					"type": "event"
				},
				{
					"anonymous": false,
					"inputs": [
						{
							"indexed": true,
							"internalType": "uint256",
							"name": "key",
							"type": "uint256"
						}
					],
					"name": "AssetRemoved",
					"type": "event"
				},
				{
					"anonymous": false,
					"inputs": [
						{
							"indexed": true,
							"internalType": "address",
							"name": "previousOwner",
							"type": "address"
						},
						{
							"indexed": true,
							"internalType": "address",
							"name": "newOwner",
							"type": "address"
						}
					],
					"name": "OwnershipTransferred",
					"type": "event"
				},
				{
					"inputs": [
						{
							"internalType": "uint256",
							"name": "key",
							"type": "uint256"
						},
						{
							"internalType": "bytes",
							"name": "asset",
							"type": "bytes"
						}
					],
					"name": "addAsset",
					"outputs": [],
					"stateMutability": "nonpayable",
					"type": "function"
				},
				{
					"inputs": [
						{
							"internalType": "uint256[]",
							"name": "keys",
							"type": "uint256[]"
						},
						{
							"internalType": "bytes[]",
							"name": "assets",
							"type": "bytes[]"
						}
					],
					"name": "addAssetsBatch",
					"outputs": [],
					"stateMutability": "nonpayable",
					"type": "function"
				},
				{
					"inputs": [
						{
							"internalType": "uint256",
							"name": "key",
							"type": "uint256"
						}
					],
					"name": "loadAssetDecompressed",
					"outputs": [
						{
							"internalType": "bytes",
							"name": "",
							"type": "bytes"
						}
					],
					"stateMutability": "view",
					"type": "function"
				},
				{
					"inputs": [
						{
							"internalType": "uint256",
							"name": "key",
							"type": "uint256"
						}
					],
					"name": "loadAssetOriginal",
					"outputs": [
						{
							"internalType": "bytes",
							"name": "",
							"type": "bytes"
						}
					],
					"stateMutability": "view",
					"type": "function"
				},
				{
					"inputs": [],
					"name": "owner",
					"outputs": [
						{
							"internalType": "address",
							"name": "",
							"type": "address"
						}
					],
					"stateMutability": "view",
					"type": "function"
				},
				{
					"inputs": [
						{
							"internalType": "uint256",
							"name": "key",
							"type": "uint256"
						}
					],
					"name": "removeAsset",
					"outputs": [],
					"stateMutability": "nonpayable",
					"type": "function"
				},
				{
					"inputs": [
						{
							"internalType": "uint256[]",
							"name": "keys",
							"type": "uint256[]"
						}
					],
					"name": "removeAssetsBatch",
					"outputs": [],
					"stateMutability": "nonpayable",
					"type": "function"
				},
				{
					"inputs": [],
					"name": "renounceOwnership",
					"outputs": [],
					"stateMutability": "nonpayable",
					"type": "function"
				},
				{
					"inputs": [
						{
							"internalType": "address",
							"name": "newOwner",
							"type": "address"
						}
					],
					"name": "transferOwnership",
					"outputs": [],
					"stateMutability": "nonpayable",
					"type": "function"
				}
			],
			"devdoc": {
				"author": "ECHO",
				"errors": {
					"OwnableInvalidOwner(address)": [
						{
							"details": "The owner is not a valid owner account. (eg. `address(0)`)"
						}
					],
					"OwnableUnauthorizedAccount(address)": [
						{
							"details": "The caller account is not authorized to perform an operation."
						}
					]
				},
				"kind": "dev",
				"methods": {
					"owner()": {
						"details": "Returns the address of the current owner."
					},
					"renounceOwnership()": {
						"details": "Leaves the contract without owner. It will not be possible to call `onlyOwner` functions. Can only be called by the current owner. NOTE: Renouncing ownership will leave the contract without an owner, thereby disabling any functionality that is only available to the owner."
					},
					"transferOwnership(address)": {
						"details": "Transfers ownership of the contract to a new account (`newOwner`). Can only be called by the current owner."
					}
				},
				"title": "Assets",
				"version": 1
			},
			"evm": {
				"assembly": "    /* \"src/Assets.sol\":403:2557  contract Assets is Ownable, IAssets {... */\n  mstore(0x40, 0x80)\n    /* \"src/Assets.sol\":632:668  constructor() Ownable(msg.sender) {} */\n  callvalue\n  dup1\n  iszero\n  tag_1\n  jumpi\n  revert(0x00, 0x00)\ntag_1:\n  pop\n    /* \"src/Assets.sol\":654:664  msg.sender */\n  caller\n  dup1\n    /* \"lib/openzeppelin-contracts/contracts/access/Ownable.sol\":1269:1364  if (initialOwner == address(0)) {... */\n  tag_5\n  jumpi\n    /* \"lib/openzeppelin-contracts/contracts/access/Ownable.sol\":1322:1353  OwnableInvalidOwner(address(0)) */\n  mload(0x40)\n  shl(0xe0, 0x1e4fbdf7)\n  dup2\n  mstore\n    /* \"lib/openzeppelin-contracts/contracts/access/Ownable.sol\":1350:1351  0 */\n  0x00\n    /* \"lib/openzeppelin-contracts/contracts/access/Ownable.sol\":1322:1353  OwnableInvalidOwner(address(0)) */\n  0x04\n  dup3\n  add\n    /* \"#utility.yul\":160:211   */\n  mstore\n    /* \"#utility.yul\":133:151   */\n  0x24\n  add\n    /* \"lib/openzeppelin-contracts/contracts/access/Ownable.sol\":1322:1353  OwnableInvalidOwner(address(0)) */\n  mload(0x40)\n  dup1\n  swap2\n  sub\n  swap1\n  revert\n    /* \"lib/openzeppelin-contracts/contracts/access/Ownable.sol\":1269:1364  if (initialOwner == address(0)) {... */\ntag_5:\n    /* \"lib/openzeppelin-contracts/contracts/access/Ownable.sol\":1373:1405  _transferOwnership(initialOwner) */\n  tag_8\n    /* \"lib/openzeppelin-contracts/contracts/access/Ownable.sol\":1392:1404  initialOwner */\n  dup2\n    /* \"lib/openzeppelin-contracts/contracts/access/Ownable.sol\":1373:1391  _transferOwnership */\n  tag_9\n    /* \"lib/openzeppelin-contracts/contracts/access/Ownable.sol\":1373:1405  _transferOwnership(initialOwner) */\n  jump\t// in\ntag_8:\n    /* \"lib/openzeppelin-contracts/contracts/access/Ownable.sol\":1225:1412  constructor(address initialOwner) {... */\n  pop\n    /* \"src/Assets.sol\":403:2557  contract Assets is Ownable, IAssets {... */\n  jump(tag_13)\n    /* \"lib/openzeppelin-contracts/contracts/access/Ownable.sol\":2912:3099  function _transferOwnership(address newOwner) internal virtual {... */\ntag_9:\n    /* \"lib/openzeppelin-contracts/contracts/access/Ownable.sol\":2985:3001  address oldOwner */\n  0x00\n    /* \"lib/openzeppelin-contracts/contracts/access/Ownable.sol\":3004:3010  _owner */\n  dup1\n  sload\n  sub(shl(0xa0, 0x01), 0x01)\n    /* \"lib/openzeppelin-contracts/contracts/access/Ownable.sol\":3020:3037  _owner = newOwner */\n  dup4\n  dup2\n  and\n  not(sub(shl(0xa0, 0x01), 0x01))\n  dup4\n  and\n  dup2\n  or\n  dup5\n  sstore\n    /* \"lib/openzeppelin-contracts/contracts/access/Ownable.sol\":3052:3092  OwnershipTransferred(oldOwner, newOwner) */\n  mload(0x40)\n    /* \"lib/openzeppelin-contracts/contracts/access/Ownable.sol\":3004:3010  _owner */\n  swap2\n  swap1\n  swap3\n  and\n  swap3\n  dup4\n  swap2\n    /* \"lib/openzeppelin-contracts/contracts/access/Ownable.sol\":3052:3092  OwnershipTransferred(oldOwner, newOwner) */\n  0x8be0079c531659141344cd1fd0a4f28419497f9722a3daafe3b4186f6b6457e0\n  swap2\n    /* \"lib/openzeppelin-contracts/contracts/access/Ownable.sol\":2985:3001  address oldOwner */\n  swap1\n    /* \"lib/openzeppelin-contracts/contracts/access/Ownable.sol\":3052:3092  OwnershipTransferred(oldOwner, newOwner) */\n  log3\n    /* \"lib/openzeppelin-contracts/contracts/access/Ownable.sol\":2975:3099  {... */\n  pop\n    /* \"lib/openzeppelin-contracts/contracts/access/Ownable.sol\":2912:3099  function _transferOwnership(address newOwner) internal virtual {... */\n  pop\n  jump\t// out\n    /* \"#utility.yul\":14:217   */\ntag_13:\n    /* \"src/Assets.sol\":403:2557  contract Assets is Ownable, IAssets {... */\n  dataSize(sub_0)\n  dup1\n  dataOffset(sub_0)\n  0x00\n  codecopy\n  0x00\n  return\nstop\n\nsub_0: assembly {\n        /* \"src/Assets.sol\":403:2557  contract Assets is Ownable, IAssets {... */\n      mstore(0x40, 0x80)\n      callvalue\n      dup1\n      iszero\n      tag_1\n      jumpi\n      revert(0x00, 0x00)\n    tag_1:\n      pop\n      jumpi(tag_2, lt(calldatasize, 0x04))\n      shr(0xe0, calldataload(0x00))\n      dup1\n      0x749f1647\n      gt\n      tag_12\n      jumpi\n      dup1\n      0x749f1647\n      eq\n      tag_7\n      jumpi\n      dup1\n      0x8da5cb5b\n      eq\n      tag_8\n      jumpi\n      dup1\n      0xed6d374d\n      eq\n      tag_9\n      jumpi\n      dup1\n      0xf14f58f1\n      eq\n      tag_10\n      jumpi\n      dup1\n      0xf2fde38b\n      eq\n      tag_11\n      jumpi\n      revert(0x00, 0x00)\n    tag_12:\n      dup1\n      0x3e9e21fe\n      eq\n      tag_3\n      jumpi\n      dup1\n      0x48b50a3e\n      eq\n      tag_4\n      jumpi\n      dup1\n      0x69dde379\n      eq\n      tag_5\n      jumpi\n      dup1\n      0x715018a6\n      eq\n      tag_6\n      jumpi\n    tag_2:\n      revert(0x00, 0x00)\n        /* \"src/Assets.sol\":962:1464  function addAssetsBatch(uint[] calldata keys, bytes[] calldata assets) external onlyOwner {... */\n    tag_3:\n      tag_13\n      tag_14\n      calldatasize\n      0x04\n      tag_15\n      jump\t// in\n    tag_14:\n      tag_16\n      jump\t// in\n    tag_13:\n      stop\n        /* \"src/Assets.sol\":2066:2189  function loadAssetDecompressed(uint key) external view returns (bytes memory) {... */\n    tag_4:\n      tag_17\n      tag_18\n      calldatasize\n      0x04\n      tag_19\n      jump\t// in\n    tag_18:\n      tag_20\n      jump\t// in\n    tag_17:\n      mload(0x40)\n      tag_21\n      swap2\n      swap1\n      tag_22\n      jump\t// in\n    tag_21:\n      mload(0x40)\n      dup1\n      swap2\n      sub\n      swap1\n      return\n        /* \"src/Assets.sol\":1940:2060  function loadAssetOriginal(uint key) external view returns (bytes memory) {... */\n    tag_5:\n      tag_17\n      tag_24\n      calldatasize\n      0x04\n      tag_19\n      jump\t// in\n    tag_24:\n      tag_25\n      jump\t// in\n        /* \"lib/openzeppelin-contracts/contracts/access/Ownable.sol\":2293:2394  function renounceOwnership() public virtual onlyOwner {... */\n    tag_6:\n      tag_13\n      tag_28\n      jump\t// in\n        /* \"src/Assets.sol\":674:952  function addAsset(uint key, bytes memory asset) external onlyOwner {... */\n    tag_7:\n      tag_13\n      tag_30\n      calldatasize\n      0x04\n      tag_31\n      jump\t// in\n    tag_30:\n      tag_32\n      jump\t// in\n        /* \"lib/openzeppelin-contracts/contracts/access/Ownable.sol\":1638:1723  function owner() public view virtual returns (address) {... */\n    tag_8:\n        /* \"lib/openzeppelin-contracts/contracts/access/Ownable.sol\":1684:1691  address */\n      0x00\n        /* \"lib/openzeppelin-contracts/contracts/access/Ownable.sol\":1710:1716  _owner */\n      sload\n        /* \"lib/openzeppelin-contracts/contracts/access/Ownable.sol\":1638:1723  function owner() public view virtual returns (address) {... */\n      mload(0x40)\n      sub(shl(0xa0, 0x01), 0x01)\n        /* \"lib/openzeppelin-contracts/contracts/access/Ownable.sol\":1710:1716  _owner */\n      swap1\n      swap2\n      and\n        /* \"#utility.yul\":3163:3214   */\n      dup2\n      mstore\n        /* \"#utility.yul\":3151:3153   */\n      0x20\n        /* \"#utility.yul\":3136:3154   */\n      add\n        /* \"lib/openzeppelin-contracts/contracts/access/Ownable.sol\":1638:1723  function owner() public view virtual returns (address) {... */\n      tag_21\n        /* \"#utility.yul\":3017:3220   */\n      jump\n        /* \"src/Assets.sol\":1682:1934  function removeAssetsBatch(uint[] calldata keys) external onlyOwner {... */\n    tag_9:\n      tag_13\n      tag_38\n      calldatasize\n      0x04\n      tag_39\n      jump\t// in\n    tag_38:\n      tag_40\n      jump\t// in\n        /* \"src/Assets.sol\":1470:1672  function removeAsset(uint key) external onlyOwner {... */\n    tag_10:\n      tag_13\n      tag_42\n      calldatasize\n      0x04\n      tag_19\n      jump\t// in\n    tag_42:\n      tag_43\n      jump\t// in\n        /* \"lib/openzeppelin-contracts/contracts/access/Ownable.sol\":2543:2758  function transferOwnership(address newOwner) public virtual onlyOwner {... */\n    tag_11:\n      tag_13\n      tag_45\n      calldatasize\n      0x04\n      tag_46\n      jump\t// in\n    tag_45:\n      tag_47\n      jump\t// in\n        /* \"src/Assets.sol\":962:1464  function addAssetsBatch(uint[] calldata keys, bytes[] calldata assets) external onlyOwner {... */\n    tag_16:\n        /* \"lib/openzeppelin-contracts/contracts/access/Ownable.sol\":1531:1544  _checkOwner() */\n      tag_49\n        /* \"lib/openzeppelin-contracts/contracts/access/Ownable.sol\":1531:1542  _checkOwner */\n      tag_50\n        /* \"lib/openzeppelin-contracts/contracts/access/Ownable.sol\":1531:1544  _checkOwner() */\n      jump\t// in\n    tag_49:\n        /* \"src/Assets.sol\":1070:1098  keys.length == assets.length */\n      dup3\n      dup2\n      eq\n        /* \"src/Assets.sol\":1062:1141  require(keys.length == assets.length, \"Length mismatch between keys an assets\") */\n      tag_52\n      jumpi\n      mload(0x40)\n      shl(0xe5, 0x461bcd)\n      dup2\n      mstore\n        /* \"#utility.yul\":4160:4162   */\n      0x20\n        /* \"src/Assets.sol\":1062:1141  require(keys.length == assets.length, \"Length mismatch between keys an assets\") */\n      0x04\n      dup3\n      add\n        /* \"#utility.yul\":4142:4163   */\n      mstore\n        /* \"#utility.yul\":4199:4201   */\n      0x26\n        /* \"#utility.yul\":4179:4197   */\n      0x24\n      dup3\n      add\n        /* \"#utility.yul\":4172:4202   */\n      mstore\n        /* \"#utility.yul\":4238:4272   */\n      0x4c656e677468206d69736d61746368206265747765656e206b65797320616e20\n        /* \"#utility.yul\":4218:4236   */\n      0x44\n      dup3\n      add\n        /* \"#utility.yul\":4211:4273   */\n      mstore\n      shl(0xd0, 0x617373657473)\n        /* \"#utility.yul\":4289:4307   */\n      0x64\n      dup3\n      add\n        /* \"#utility.yul\":4282:4318   */\n      mstore\n        /* \"#utility.yul\":4335:4354   */\n      0x84\n      add\n        /* \"src/Assets.sol\":1062:1141  require(keys.length == assets.length, \"Length mismatch between keys an assets\") */\n    tag_53:\n      mload(0x40)\n      dup1\n      swap2\n      sub\n      swap1\n      revert\n    tag_52:\n        /* \"src/Assets.sol\":1165:1171  uint i */\n      0x00\n        /* \"src/Assets.sol\":1160:1458  for (uint i = 0; i < keys.length; i++) {... */\n    tag_55:\n        /* \"src/Assets.sol\":1177:1192  i < keys.length */\n      dup4\n      dup2\n      lt\n        /* \"src/Assets.sol\":1160:1458  for (uint i = 0; i < keys.length; i++) {... */\n      iszero\n      tag_56\n      jumpi\n        /* \"src/Assets.sol\":1240:1241  0 */\n      0x00\n        /* \"src/Assets.sol\":1221:1227  assets */\n      dup4\n      dup4\n        /* \"src/Assets.sol\":1228:1229  i */\n      dup4\n        /* \"src/Assets.sol\":1221:1230  assets[i] */\n      dup2\n      dup2\n      lt\n      tag_59\n      jumpi\n      tag_59\n      tag_60\n      jump\t// in\n    tag_59:\n      swap1\n      pop\n      0x20\n      mul\n      dup2\n      add\n      swap1\n      tag_61\n      swap2\n      swap1\n      tag_62\n      jump\t// in\n    tag_61:\n        /* \"src/Assets.sol\":1221:1237  assets[i].length */\n      swap1\n      pop\n        /* \"src/Assets.sol\":1221:1241  assets[i].length > 0 */\n      gt\n        /* \"src/Assets.sol\":1213:1257  require(assets[i].length > 0, \"Empty asset\") */\n      tag_63\n      jumpi\n      mload(0x40)\n      shl(0xe5, 0x461bcd)\n      dup2\n      mstore\n        /* \"#utility.yul\":5225:5227   */\n      0x20\n        /* \"src/Assets.sol\":1213:1257  require(assets[i].length > 0, \"Empty asset\") */\n      0x04\n      dup3\n      add\n        /* \"#utility.yul\":5207:5228   */\n      mstore\n        /* \"#utility.yul\":5264:5266   */\n      0x0b\n        /* \"#utility.yul\":5244:5262   */\n      0x24\n      dup3\n      add\n        /* \"#utility.yul\":5237:5267   */\n      mstore\n      shl(0xaa, 0x115b5c1d1e48185cdcd95d)\n        /* \"#utility.yul\":5283:5301   */\n      0x44\n      dup3\n      add\n        /* \"#utility.yul\":5276:5317   */\n      mstore\n        /* \"#utility.yul\":5334:5352   */\n      0x64\n      add\n        /* \"src/Assets.sol\":1213:1257  require(assets[i].length > 0, \"Empty asset\") */\n      tag_53\n        /* \"#utility.yul\":5023:5358   */\n      jump\n        /* \"src/Assets.sol\":1213:1257  require(assets[i].length > 0, \"Empty asset\") */\n    tag_63:\n        /* \"src/Assets.sol\":1284:1299  address pointer */\n      0x00\n        /* \"src/Assets.sol\":1302:1326  SSTORE2.write(assets[i]) */\n      tag_66\n        /* \"src/Assets.sol\":1316:1322  assets */\n      dup5\n      dup5\n        /* \"src/Assets.sol\":1323:1324  i */\n      dup5\n        /* \"src/Assets.sol\":1316:1325  assets[i] */\n      dup2\n      dup2\n      lt\n      tag_68\n      jumpi\n      tag_68\n      tag_60\n      jump\t// in\n    tag_68:\n      swap1\n      pop\n      0x20\n      mul\n      dup2\n      add\n      swap1\n      tag_69\n      swap2\n      swap1\n      tag_62\n      jump\t// in\n    tag_69:\n        /* \"src/Assets.sol\":1302:1326  SSTORE2.write(assets[i]) */\n      dup1\n      dup1\n      0x1f\n      add\n      0x20\n      dup1\n      swap2\n      div\n      mul\n      0x20\n      add\n      mload(0x40)\n      swap1\n      dup2\n      add\n      0x40\n      mstore\n      dup1\n      swap4\n      swap3\n      swap2\n      swap1\n      dup2\n      dup2\n      mstore\n      0x20\n      add\n      dup4\n      dup4\n      dup1\n      dup3\n      dup5\n      calldatacopy\n      0x00\n      swap3\n      add\n      swap2\n      swap1\n      swap2\n      mstore\n      pop\n        /* \"src/Assets.sol\":1302:1315  SSTORE2.write */\n      tag_70\n      swap3\n      pop\n      pop\n      pop\n        /* \"src/Assets.sol\":1302:1326  SSTORE2.write(assets[i]) */\n      jump\t// in\n    tag_66:\n        /* \"src/Assets.sol\":1284:1326  address pointer = SSTORE2.write(assets[i]) */\n      swap1\n      pop\n        /* \"src/Assets.sol\":1362:1369  pointer */\n      dup1\n        /* \"src/Assets.sol\":1340:1350  _assetsMap */\n      0x01\n        /* \"src/Assets.sol\":1340:1359  _assetsMap[keys[i]] */\n      0x00\n        /* \"src/Assets.sol\":1351:1355  keys */\n      dup9\n      dup9\n        /* \"src/Assets.sol\":1356:1357  i */\n      dup7\n        /* \"src/Assets.sol\":1351:1358  keys[i] */\n      dup2\n      dup2\n      lt\n      tag_72\n      jumpi\n      tag_72\n      tag_60\n      jump\t// in\n    tag_72:\n      0x20\n      swap1\n      dup2\n      mul\n      swap3\n      swap1\n      swap3\n      add\n      calldataload\n        /* \"src/Assets.sol\":1340:1359  _assetsMap[keys[i]] */\n      dup4\n      mstore\n      pop\n      dup2\n      add\n      swap2\n      swap1\n      swap2\n      mstore\n      0x40\n      add\n      0x00\n      keccak256\n        /* \"src/Assets.sol\":1340:1369  _assetsMap[keys[i]] = pointer */\n      dup1\n      sload\n      not(sub(shl(0xa0, 0x01), 0x01))\n      and\n      sub(shl(0xa0, 0x01), 0x01)\n      swap3\n      dup4\n      and\n      or\n      swap1\n      sstore\n        /* \"src/Assets.sol\":1401:1447  AssetAdded(keys[i], pointer, assets[i].length) */\n      dup2\n      and\n        /* \"src/Assets.sol\":1412:1416  keys */\n      dup7\n      dup7\n        /* \"src/Assets.sol\":1417:1418  i */\n      dup5\n        /* \"src/Assets.sol\":1412:1419  keys[i] */\n      dup2\n      dup2\n      lt\n      tag_74\n      jumpi\n      tag_74\n      tag_60\n      jump\t// in\n    tag_74:\n      swap1\n      pop\n      0x20\n      mul\n      add\n      calldataload\n        /* \"src/Assets.sol\":1401:1447  AssetAdded(keys[i], pointer, assets[i].length) */\n      0x85ac039d1da307b778050ca29271ac915424bac011342c9452960f6679b18ff0\n        /* \"src/Assets.sol\":1430:1436  assets */\n      dup7\n      dup7\n        /* \"src/Assets.sol\":1437:1438  i */\n      dup7\n        /* \"src/Assets.sol\":1430:1439  assets[i] */\n      dup2\n      dup2\n      lt\n      tag_76\n      jumpi\n      tag_76\n      tag_60\n      jump\t// in\n    tag_76:\n      swap1\n      pop\n      0x20\n      mul\n      dup2\n      add\n      swap1\n      tag_77\n      swap2\n      swap1\n      tag_62\n      jump\t// in\n    tag_77:\n        /* \"src/Assets.sol\":1401:1447  AssetAdded(keys[i], pointer, assets[i].length) */\n      mload(0x40)\n        /* \"#utility.yul\":5509:5534   */\n      swap1\n      dup2\n      mstore\n        /* \"#utility.yul\":5497:5499   */\n      0x20\n        /* \"#utility.yul\":5482:5500   */\n      add\n      swap1\n      pop\n        /* \"src/Assets.sol\":1401:1447  AssetAdded(keys[i], pointer, assets[i].length) */\n      mload(0x40)\n      dup1\n      swap2\n      sub\n      swap1\n      log3\n      pop\n        /* \"src/Assets.sol\":1194:1197  i++ */\n      0x01\n      add\n        /* \"src/Assets.sol\":1160:1458  for (uint i = 0; i < keys.length; i++) {... */\n      jump(tag_55)\n    tag_56:\n      pop\n        /* \"src/Assets.sol\":962:1464  function addAssetsBatch(uint[] calldata keys, bytes[] calldata assets) external onlyOwner {... */\n      pop\n      pop\n      pop\n      pop\n      jump\t// out\n        /* \"src/Assets.sol\":2066:2189  function loadAssetDecompressed(uint key) external view returns (bytes memory) {... */\n    tag_20:\n        /* \"src/Assets.sol\":2130:2142  bytes memory */\n      0x60\n        /* \"src/Assets.sol\":2161:2182  _loadAsset(key, true) */\n      tag_81\n        /* \"src/Assets.sol\":2172:2175  key */\n      dup3\n        /* \"src/Assets.sol\":2177:2181  true */\n      0x01\n        /* \"src/Assets.sol\":2161:2171  _loadAsset */\n      tag_82\n        /* \"src/Assets.sol\":2161:2182  _loadAsset(key, true) */\n      jump\t// in\n    tag_81:\n        /* \"src/Assets.sol\":2154:2182  return _loadAsset(key, true) */\n      swap3\n        /* \"src/Assets.sol\":2066:2189  function loadAssetDecompressed(uint key) external view returns (bytes memory) {... */\n      swap2\n      pop\n      pop\n      jump\t// out\n        /* \"src/Assets.sol\":1940:2060  function loadAssetOriginal(uint key) external view returns (bytes memory) {... */\n    tag_25:\n        /* \"src/Assets.sol\":2000:2012  bytes memory */\n      0x60\n        /* \"src/Assets.sol\":2031:2053  _loadAsset(key, false) */\n      tag_81\n        /* \"src/Assets.sol\":2042:2045  key */\n      dup3\n        /* \"src/Assets.sol\":2047:2052  false */\n      0x00\n        /* \"src/Assets.sol\":2031:2041  _loadAsset */\n      tag_82\n        /* \"src/Assets.sol\":2031:2053  _loadAsset(key, false) */\n      jump\t// in\n        /* \"lib/openzeppelin-contracts/contracts/access/Ownable.sol\":2293:2394  function renounceOwnership() public virtual onlyOwner {... */\n    tag_28:\n        /* \"lib/openzeppelin-contracts/contracts/access/Ownable.sol\":1531:1544  _checkOwner() */\n      tag_86\n        /* \"lib/openzeppelin-contracts/contracts/access/Ownable.sol\":1531:1542  _checkOwner */\n      tag_50\n        /* \"lib/openzeppelin-contracts/contracts/access/Ownable.sol\":1531:1544  _checkOwner() */\n      jump\t// in\n    tag_86:\n        /* \"lib/openzeppelin-contracts/contracts/access/Ownable.sol\":2357:2387  _transferOwnership(address(0)) */\n      tag_88\n        /* \"lib/openzeppelin-contracts/contracts/access/Ownable.sol\":2384:2385  0 */\n      0x00\n        /* \"lib/openzeppelin-contracts/contracts/access/Ownable.sol\":2357:2375  _transferOwnership */\n      tag_89\n        /* \"lib/openzeppelin-contracts/contracts/access/Ownable.sol\":2357:2387  _transferOwnership(address(0)) */\n      jump\t// in\n    tag_88:\n        /* \"lib/openzeppelin-contracts/contracts/access/Ownable.sol\":2293:2394  function renounceOwnership() public virtual onlyOwner {... */\n      jump\t// out\n        /* \"src/Assets.sol\":674:952  function addAsset(uint key, bytes memory asset) external onlyOwner {... */\n    tag_32:\n        /* \"lib/openzeppelin-contracts/contracts/access/Ownable.sol\":1531:1544  _checkOwner() */\n      tag_91\n        /* \"lib/openzeppelin-contracts/contracts/access/Ownable.sol\":1531:1542  _checkOwner */\n      tag_50\n        /* \"lib/openzeppelin-contracts/contracts/access/Ownable.sol\":1531:1544  _checkOwner() */\n      jump\t// in\n    tag_91:\n        /* \"src/Assets.sol\":774:775  0 */\n      0x00\n        /* \"src/Assets.sol\":759:764  asset */\n      dup2\n        /* \"src/Assets.sol\":759:771  asset.length */\n      mload\n        /* \"src/Assets.sol\":759:775  asset.length > 0 */\n      gt\n        /* \"src/Assets.sol\":751:791  require(asset.length > 0, \"Empty asset\") */\n      tag_93\n      jumpi\n      mload(0x40)\n      shl(0xe5, 0x461bcd)\n      dup2\n      mstore\n        /* \"#utility.yul\":5225:5227   */\n      0x20\n        /* \"src/Assets.sol\":751:791  require(asset.length > 0, \"Empty asset\") */\n      0x04\n      dup3\n      add\n        /* \"#utility.yul\":5207:5228   */\n      mstore\n        /* \"#utility.yul\":5264:5266   */\n      0x0b\n        /* \"#utility.yul\":5244:5262   */\n      0x24\n      dup3\n      add\n        /* \"#utility.yul\":5237:5267   */\n      mstore\n      shl(0xaa, 0x115b5c1d1e48185cdcd95d)\n        /* \"#utility.yul\":5283:5301   */\n      0x44\n      dup3\n      add\n        /* \"#utility.yul\":5276:5317   */\n      mstore\n        /* \"#utility.yul\":5334:5352   */\n      0x64\n      add\n        /* \"src/Assets.sol\":751:791  require(asset.length > 0, \"Empty asset\") */\n      tag_53\n        /* \"#utility.yul\":5023:5358   */\n      jump\n        /* \"src/Assets.sol\":751:791  require(asset.length > 0, \"Empty asset\") */\n    tag_93:\n        /* \"src/Assets.sol\":810:825  address pointer */\n      0x00\n        /* \"src/Assets.sol\":828:848  SSTORE2.write(asset) */\n      tag_95\n        /* \"src/Assets.sol\":842:847  asset */\n      dup3\n        /* \"src/Assets.sol\":828:841  SSTORE2.write */\n      tag_70\n        /* \"src/Assets.sol\":828:848  SSTORE2.write(asset) */\n      jump\t// in\n    tag_95:\n        /* \"src/Assets.sol\":858:873  _assetsMap[key] */\n      0x00\n      dup5\n      dup2\n      mstore\n        /* \"src/Assets.sol\":858:868  _assetsMap */\n      0x01\n        /* \"src/Assets.sol\":858:873  _assetsMap[key] */\n      0x20\n      swap1\n      dup2\n      mstore\n      0x40\n      swap2\n      dup3\n      swap1\n      keccak256\n        /* \"src/Assets.sol\":858:883  _assetsMap[key] = pointer */\n      dup1\n      sload\n      not(sub(shl(0xa0, 0x01), 0x01))\n      and\n      sub(shl(0xa0, 0x01), 0x01)\n      dup6\n      and\n      swap1\n      dup2\n      or\n      swap1\n      swap2\n      sstore\n        /* \"src/Assets.sol\":932:944  asset.length */\n      dup6\n      mload\n        /* \"src/Assets.sol\":907:945  AssetAdded(key, pointer, asset.length) */\n      swap3\n      mload\n        /* \"#utility.yul\":5509:5534   */\n      swap3\n      dup4\n      mstore\n        /* \"src/Assets.sol\":858:883  _assetsMap[key] = pointer */\n      swap3\n      swap4\n      pop\n        /* \"src/Assets.sol\":858:873  _assetsMap[key] */\n      dup6\n      swap2\n        /* \"src/Assets.sol\":907:945  AssetAdded(key, pointer, asset.length) */\n      0x85ac039d1da307b778050ca29271ac915424bac011342c9452960f6679b18ff0\n      swap2\n        /* \"#utility.yul\":5482:5500   */\n      add\n        /* \"src/Assets.sol\":907:945  AssetAdded(key, pointer, asset.length) */\n      mload(0x40)\n      dup1\n      swap2\n      sub\n      swap1\n      log3\n        /* \"src/Assets.sol\":741:952  {... */\n      pop\n        /* \"src/Assets.sol\":674:952  function addAsset(uint key, bytes memory asset) external onlyOwner {... */\n      pop\n      pop\n      jump\t// out\n        /* \"src/Assets.sol\":1682:1934  function removeAssetsBatch(uint[] calldata keys) external onlyOwner {... */\n    tag_40:\n        /* \"lib/openzeppelin-contracts/contracts/access/Ownable.sol\":1531:1544  _checkOwner() */\n      tag_99\n        /* \"lib/openzeppelin-contracts/contracts/access/Ownable.sol\":1531:1542  _checkOwner */\n      tag_50\n        /* \"lib/openzeppelin-contracts/contracts/access/Ownable.sol\":1531:1544  _checkOwner() */\n      jump\t// in\n    tag_99:\n        /* \"src/Assets.sol\":1765:1771  uint i */\n      0x00\n        /* \"src/Assets.sol\":1760:1928  for (uint i = 0; i < keys.length; i++) {... */\n    tag_101:\n        /* \"src/Assets.sol\":1777:1792  i < keys.length */\n      dup2\n      dup2\n      lt\n        /* \"src/Assets.sol\":1760:1928  for (uint i = 0; i < keys.length; i++) {... */\n      iszero\n      tag_102\n      jumpi\n        /* \"src/Assets.sol\":1813:1821  uint key */\n      0x00\n        /* \"src/Assets.sol\":1824:1828  keys */\n      dup4\n      dup4\n        /* \"src/Assets.sol\":1829:1830  i */\n      dup4\n        /* \"src/Assets.sol\":1824:1831  keys[i] */\n      dup2\n      dup2\n      lt\n      tag_105\n      jumpi\n      tag_105\n      tag_60\n      jump\t// in\n    tag_105:\n      0x20\n      swap1\n      dup2\n      mul\n      swap3\n      swap1\n      swap3\n      add\n      calldataload\n        /* \"src/Assets.sol\":1853:1868  _assetsMap[key] */\n      0x00\n      dup2\n      dup2\n      mstore\n        /* \"src/Assets.sol\":1853:1863  _assetsMap */\n      0x01\n        /* \"src/Assets.sol\":1853:1868  _assetsMap[key] */\n      swap1\n      swap4\n      mstore\n      0x40\n      dup1\n      dup5\n      keccak256\n        /* \"src/Assets.sol\":1846:1868  delete _assetsMap[key] */\n      dup1\n      sload\n      not(sub(shl(0xa0, 0x01), 0x01))\n      and\n      swap1\n      sstore\n        /* \"src/Assets.sol\":1900:1917  AssetRemoved(key) */\n      mload\n        /* \"src/Assets.sol\":1824:1831  keys[i] */\n      swap1\n      swap4\n      pop\n      dup4\n      swap3\n        /* \"src/Assets.sol\":1900:1917  AssetRemoved(key) */\n      0x80bd04276b946f13ca22d049d583a03881b8fbdb5d3166069772a97baa33845a\n      swap3\n      pop\n        /* \"src/Assets.sol\":1853:1868  _assetsMap[key] */\n      swap1\n        /* \"src/Assets.sol\":1900:1917  AssetRemoved(key) */\n      log2\n      pop\n        /* \"src/Assets.sol\":1794:1797  i++ */\n      0x01\n      add\n        /* \"src/Assets.sol\":1760:1928  for (uint i = 0; i < keys.length; i++) {... */\n      jump(tag_101)\n    tag_102:\n      pop\n        /* \"src/Assets.sol\":1682:1934  function removeAssetsBatch(uint[] calldata keys) external onlyOwner {... */\n      pop\n      pop\n      jump\t// out\n        /* \"src/Assets.sol\":1470:1672  function removeAsset(uint key) external onlyOwner {... */\n    tag_43:\n        /* \"lib/openzeppelin-contracts/contracts/access/Ownable.sol\":1531:1544  _checkOwner() */\n      tag_107\n        /* \"lib/openzeppelin-contracts/contracts/access/Ownable.sol\":1531:1542  _checkOwner */\n      tag_50\n        /* \"lib/openzeppelin-contracts/contracts/access/Ownable.sol\":1531:1544  _checkOwner() */\n      jump\t// in\n    tag_107:\n        /* \"src/Assets.sol\":1565:1566  0 */\n      0x00\n        /* \"src/Assets.sol\":1538:1553  _assetsMap[key] */\n      dup2\n      dup2\n      mstore\n        /* \"src/Assets.sol\":1538:1548  _assetsMap */\n      0x01\n        /* \"src/Assets.sol\":1538:1553  _assetsMap[key] */\n      0x20\n      mstore\n      0x40\n      swap1\n      keccak256\n      sload\n      sub(shl(0xa0, 0x01), 0x01)\n      and\n        /* \"src/Assets.sol\":1530:1592  require(_assetsMap[key] != address(0), \"Asset does not exist\") */\n      tag_109\n      jumpi\n      mload(0x40)\n      shl(0xe5, 0x461bcd)\n      dup2\n      mstore\n        /* \"#utility.yul\":5747:5749   */\n      0x20\n        /* \"src/Assets.sol\":1530:1592  require(_assetsMap[key] != address(0), \"Asset does not exist\") */\n      0x04\n      dup3\n      add\n        /* \"#utility.yul\":5729:5750   */\n      mstore\n        /* \"#utility.yul\":5786:5788   */\n      0x14\n        /* \"#utility.yul\":5766:5784   */\n      0x24\n      dup3\n      add\n        /* \"#utility.yul\":5759:5789   */\n      mstore\n      shl(0x62, 0x105cdcd95d08191bd95cc81b9bdd08195e1a5cdd)\n        /* \"#utility.yul\":5805:5823   */\n      0x44\n      dup3\n      add\n        /* \"#utility.yul\":5798:5848   */\n      mstore\n        /* \"#utility.yul\":5865:5883   */\n      0x64\n      add\n        /* \"src/Assets.sol\":1530:1592  require(_assetsMap[key] != address(0), \"Asset does not exist\") */\n      tag_53\n        /* \"#utility.yul\":5545:5889   */\n      jump\n        /* \"src/Assets.sol\":1530:1592  require(_assetsMap[key] != address(0), \"Asset does not exist\") */\n    tag_109:\n        /* \"src/Assets.sol\":1618:1633  _assetsMap[key] */\n      0x00\n      dup2\n      dup2\n      mstore\n        /* \"src/Assets.sol\":1618:1628  _assetsMap */\n      0x01\n        /* \"src/Assets.sol\":1618:1633  _assetsMap[key] */\n      0x20\n      mstore\n      0x40\n      dup1\n      dup3\n      keccak256\n        /* \"src/Assets.sol\":1611:1633  delete _assetsMap[key] */\n      dup1\n      sload\n      not(sub(shl(0xa0, 0x01), 0x01))\n      and\n      swap1\n      sstore\n        /* \"src/Assets.sol\":1648:1665  AssetRemoved(key) */\n      mload\n        /* \"src/Assets.sol\":1629:1632  key */\n      dup3\n      swap2\n        /* \"src/Assets.sol\":1648:1665  AssetRemoved(key) */\n      0x80bd04276b946f13ca22d049d583a03881b8fbdb5d3166069772a97baa33845a\n      swap2\n      log2\n        /* \"src/Assets.sol\":1470:1672  function removeAsset(uint key) external onlyOwner {... */\n      pop\n      jump\t// out\n        /* \"lib/openzeppelin-contracts/contracts/access/Ownable.sol\":2543:2758  function transferOwnership(address newOwner) public virtual onlyOwner {... */\n    tag_47:\n        /* \"lib/openzeppelin-contracts/contracts/access/Ownable.sol\":1531:1544  _checkOwner() */\n      tag_113\n        /* \"lib/openzeppelin-contracts/contracts/access/Ownable.sol\":1531:1542  _checkOwner */\n      tag_50\n        /* \"lib/openzeppelin-contracts/contracts/access/Ownable.sol\":1531:1544  _checkOwner() */\n      jump\t// in\n    tag_113:\n      sub(shl(0xa0, 0x01), 0x01)\n        /* \"lib/openzeppelin-contracts/contracts/access/Ownable.sol\":2627:2649  newOwner == address(0) */\n      dup2\n      and\n        /* \"lib/openzeppelin-contracts/contracts/access/Ownable.sol\":2623:2714  if (newOwner == address(0)) {... */\n      tag_115\n      jumpi\n        /* \"lib/openzeppelin-contracts/contracts/access/Ownable.sol\":2672:2703  OwnableInvalidOwner(address(0)) */\n      mload(0x40)\n      shl(0xe0, 0x1e4fbdf7)\n      dup2\n      mstore\n        /* \"lib/openzeppelin-contracts/contracts/access/Ownable.sol\":2700:2701  0 */\n      0x00\n        /* \"lib/openzeppelin-contracts/contracts/access/Ownable.sol\":2672:2703  OwnableInvalidOwner(address(0)) */\n      0x04\n      dup3\n      add\n        /* \"#utility.yul\":3163:3214   */\n      mstore\n        /* \"#utility.yul\":3136:3154   */\n      0x24\n      add\n        /* \"lib/openzeppelin-contracts/contracts/access/Ownable.sol\":2672:2703  OwnableInvalidOwner(address(0)) */\n      tag_53\n        /* \"#utility.yul\":3017:3220   */\n      jump\n        /* \"lib/openzeppelin-contracts/contracts/access/Ownable.sol\":2623:2714  if (newOwner == address(0)) {... */\n    tag_115:\n        /* \"lib/openzeppelin-contracts/contracts/access/Ownable.sol\":2723:2751  _transferOwnership(newOwner) */\n      tag_117\n        /* \"lib/openzeppelin-contracts/contracts/access/Ownable.sol\":2742:2750  newOwner */\n      dup2\n        /* \"lib/openzeppelin-contracts/contracts/access/Ownable.sol\":2723:2741  _transferOwnership */\n      tag_89\n        /* \"lib/openzeppelin-contracts/contracts/access/Ownable.sol\":2723:2751  _transferOwnership(newOwner) */\n      jump\t// in\n    tag_117:\n        /* \"lib/openzeppelin-contracts/contracts/access/Ownable.sol\":2543:2758  function transferOwnership(address newOwner) public virtual onlyOwner {... */\n      pop\n      jump\t// out\n        /* \"lib/openzeppelin-contracts/contracts/access/Ownable.sol\":1796:1958  function _checkOwner() internal view virtual {... */\n    tag_50:\n        /* \"lib/openzeppelin-contracts/contracts/access/Ownable.sol\":1684:1691  address */\n      0x00\n        /* \"lib/openzeppelin-contracts/contracts/access/Ownable.sol\":1710:1716  _owner */\n      sload\n      sub(shl(0xa0, 0x01), 0x01)\n      and\n        /* \"lib/openzeppelin-contracts/contracts/utils/Context.sol\":735:745  msg.sender */\n      caller\n        /* \"lib/openzeppelin-contracts/contracts/access/Ownable.sol\":1855:1878  owner() != _msgSender() */\n      eq\n        /* \"lib/openzeppelin-contracts/contracts/access/Ownable.sol\":1851:1952  if (owner() != _msgSender()) {... */\n      tag_88\n      jumpi\n        /* \"lib/openzeppelin-contracts/contracts/access/Ownable.sol\":1901:1941  OwnableUnauthorizedAccount(_msgSender()) */\n      mload(0x40)\n      shl(0xe0, 0x118cdaa7)\n      dup2\n      mstore\n        /* \"lib/openzeppelin-contracts/contracts/utils/Context.sol\":735:745  msg.sender */\n      caller\n        /* \"lib/openzeppelin-contracts/contracts/access/Ownable.sol\":1901:1941  OwnableUnauthorizedAccount(_msgSender()) */\n      0x04\n      dup3\n      add\n        /* \"#utility.yul\":3163:3214   */\n      mstore\n        /* \"#utility.yul\":3136:3154   */\n      0x24\n      add\n        /* \"lib/openzeppelin-contracts/contracts/access/Ownable.sol\":1901:1941  OwnableUnauthorizedAccount(_msgSender()) */\n      tag_53\n        /* \"#utility.yul\":3017:3220   */\n      jump\n        /* \"src/libraries/SSTORE2.sol\":1918:4536  function write(bytes memory data) internal returns (address pointer) {... */\n    tag_70:\n        /* \"src/libraries/SSTORE2.sol\":1970:1985  address pointer */\n      0x00\n        /* \"src/libraries/SSTORE2.sol\":2052:2056  data */\n      dup2\n        /* \"src/libraries/SSTORE2.sol\":2046:2057  mload(data) */\n      mload\n        /* \"src/libraries/SSTORE2.sol\":2191:2202  DATA_OFFSET */\n      0x01\n        /* \"src/libraries/SSTORE2.sol\":2171:2189  originalDataLength */\n      dup2\n        /* \"src/libraries/SSTORE2.sol\":2167:2203  add(originalDataLength, DATA_OFFSET) */\n      add\n        /* \"src/libraries/SSTORE2.sol\":3952:3960  dataSize */\n      dup1\n        /* \"src/libraries/SSTORE2.sol\":3946:3950  0x40 */\n      0x40\n        /* \"src/libraries/SSTORE2.sol\":3942:3961  shl(0x40, dataSize) */\n      shl\n        /* \"src/libraries/SSTORE2.sol\":3914:3940  0xfd61000080600a3d393df300 */\n      0xfd61000080600a3d393df300\n        /* \"src/libraries/SSTORE2.sol\":3911:3962  or(0xfd61000080600a3d393df300, shl(0x40, dataSize)) */\n      or\n        /* \"src/libraries/SSTORE2.sol\":3791:3797  0xffff */\n      0xffff\n        /* \"src/libraries/SSTORE2.sol\":3781:3789  dataSize */\n      dup3\n        /* \"src/libraries/SSTORE2.sol\":3778:3798  gt(dataSize, 0xffff) */\n      gt\n        /* \"src/libraries/SSTORE2.sol\":3772:3776  data */\n      dup6\n        /* \"src/libraries/SSTORE2.sol\":3768:3799  add(data, gt(dataSize, 0xffff)) */\n      add\n        /* \"src/libraries/SSTORE2.sol\":3585:3976  mstore(... */\n      mstore\n        /* \"src/libraries/SSTORE2.sol\":4113:4116  0xa */\n      0x0a\n        /* \"src/libraries/SSTORE2.sol\":4103:4111  dataSize */\n      dup2\n        /* \"src/libraries/SSTORE2.sol\":4099:4117  add(dataSize, 0xa) */\n      add\n        /* \"src/libraries/SSTORE2.sol\":4092:4096  0x15 */\n      0x15\n        /* \"src/libraries/SSTORE2.sol\":4086:4090  data */\n      dup6\n        /* \"src/libraries/SSTORE2.sol\":4082:4097  add(data, 0x15) */\n      add\n        /* \"src/libraries/SSTORE2.sol\":4079:4080  0 */\n      0x00\n        /* \"src/libraries/SSTORE2.sol\":4072:4118  create(0, add(data, 0x15), add(dataSize, 0xa)) */\n      create\n        /* \"src/libraries/SSTORE2.sol\":4061:4118  pointer := create(0, add(data, 0x15), add(dataSize, 0xa)) */\n      swap3\n      pop\n      pop\n        /* \"src/libraries/SSTORE2.sol\":4187:4194  pointer */\n      dup2\n        /* \"src/libraries/SSTORE2.sol\":4177:4406  if iszero(pointer) {... */\n      tag_126\n      jumpi\n        /* \"src/libraries/SSTORE2.sol\":4299:4309  0x30116425 */\n      0x30116425\n        /* \"src/libraries/SSTORE2.sol\":4293:4297  0x00 */\n      0x00\n        /* \"src/libraries/SSTORE2.sol\":4286:4310  mstore(0x00, 0x30116425) */\n      mstore\n        /* \"src/libraries/SSTORE2.sol\":4387:4391  0x04 */\n      0x04\n        /* \"src/libraries/SSTORE2.sol\":4381:4385  0x1c */\n      0x1c\n        /* \"src/libraries/SSTORE2.sol\":4374:4392  revert(0x1c, 0x04) */\n      revert\n        /* \"src/libraries/SSTORE2.sol\":4177:4406  if iszero(pointer) {... */\n    tag_126:\n        /* \"src/libraries/SSTORE2.sol\":4488:4520  mstore(data, originalDataLength) */\n      swap1\n      swap2\n      mstore\n        /* \"src/libraries/SSTORE2.sol\":1918:4536  function write(bytes memory data) internal returns (address pointer) {... */\n      swap1\n      jump\t// out\n        /* \"src/Assets.sol\":2195:2555  function _loadAsset(uint key, bool decompress) internal view returns (bytes memory) {... */\n    tag_82:\n        /* \"src/Assets.sol\":2289:2304  address pointer */\n      0x00\n        /* \"src/Assets.sol\":2307:2322  _assetsMap[key] */\n      dup3\n      dup2\n      mstore\n        /* \"src/Assets.sol\":2307:2317  _assetsMap */\n      0x01\n        /* \"src/Assets.sol\":2307:2322  _assetsMap[key] */\n      0x20\n      mstore\n      0x40\n      swap1\n      keccak256\n      sload\n        /* \"src/Assets.sol\":2265:2277  bytes memory */\n      0x60\n      swap1\n      sub(shl(0xa0, 0x01), 0x01)\n        /* \"src/Assets.sol\":2307:2322  _assetsMap[key] */\n      and\n      dup1\n        /* \"src/Assets.sol\":2332:2386  require(pointer != address(0), \"Asset does not exist\") */\n      tag_128\n      jumpi\n      mload(0x40)\n      shl(0xe5, 0x461bcd)\n      dup2\n      mstore\n        /* \"#utility.yul\":5747:5749   */\n      0x20\n        /* \"src/Assets.sol\":2332:2386  require(pointer != address(0), \"Asset does not exist\") */\n      0x04\n      dup3\n      add\n        /* \"#utility.yul\":5729:5750   */\n      mstore\n        /* \"#utility.yul\":5786:5788   */\n      0x14\n        /* \"#utility.yul\":5766:5784   */\n      0x24\n      dup3\n      add\n        /* \"#utility.yul\":5759:5789   */\n      mstore\n      shl(0x62, 0x105cdcd95d08191bd95cc81b9bdd08195e1a5cdd)\n        /* \"#utility.yul\":5805:5823   */\n      0x44\n      dup3\n      add\n        /* \"#utility.yul\":5798:5848   */\n      mstore\n        /* \"#utility.yul\":5865:5883   */\n      0x64\n      add\n        /* \"src/Assets.sol\":2332:2386  require(pointer != address(0), \"Asset does not exist\") */\n      tag_53\n        /* \"#utility.yul\":5545:5889   */\n      jump\n        /* \"src/Assets.sol\":2332:2386  require(pointer != address(0), \"Asset does not exist\") */\n    tag_128:\n        /* \"src/Assets.sol\":2397:2415  bytes memory asset */\n      0x00\n        /* \"src/Assets.sol\":2418:2439  SSTORE2.read(pointer) */\n      tag_130\n        /* \"src/Assets.sol\":2431:2438  pointer */\n      dup3\n        /* \"src/Assets.sol\":2418:2430  SSTORE2.read */\n      tag_131\n        /* \"src/Assets.sol\":2418:2439  SSTORE2.read(pointer) */\n      jump\t// in\n    tag_130:\n        /* \"src/Assets.sol\":2397:2439  bytes memory asset = SSTORE2.read(pointer) */\n      swap1\n      pop\n        /* \"src/Assets.sol\":2454:2464  decompress */\n      dup4\n        /* \"src/Assets.sol\":2450:2526  if (decompress) {... */\n      iszero\n      tag_132\n      jumpi\n        /* \"src/Assets.sol\":2488:2515  LibZip.flzDecompress(asset) */\n      tag_133\n        /* \"src/Assets.sol\":2509:2514  asset */\n      dup2\n        /* \"src/Assets.sol\":2488:2508  LibZip.flzDecompress */\n      tag_134\n        /* \"src/Assets.sol\":2488:2515  LibZip.flzDecompress(asset) */\n      jump\t// in\n    tag_133:\n        /* \"src/Assets.sol\":2480:2515  asset = LibZip.flzDecompress(asset) */\n      swap1\n      pop\n        /* \"src/Assets.sol\":2450:2526  if (decompress) {... */\n    tag_132:\n        /* \"src/Assets.sol\":2543:2548  asset */\n      swap5\n        /* \"src/Assets.sol\":2195:2555  function _loadAsset(uint key, bool decompress) internal view returns (bytes memory) {... */\n      swap4\n      pop\n      pop\n      pop\n      pop\n      jump\t// out\n        /* \"lib/openzeppelin-contracts/contracts/access/Ownable.sol\":2912:3099  function _transferOwnership(address newOwner) internal virtual {... */\n    tag_89:\n        /* \"lib/openzeppelin-contracts/contracts/access/Ownable.sol\":2985:3001  address oldOwner */\n      0x00\n        /* \"lib/openzeppelin-contracts/contracts/access/Ownable.sol\":3004:3010  _owner */\n      dup1\n      sload\n      sub(shl(0xa0, 0x01), 0x01)\n        /* \"lib/openzeppelin-contracts/contracts/access/Ownable.sol\":3020:3037  _owner = newOwner */\n      dup4\n      dup2\n      and\n      not(sub(shl(0xa0, 0x01), 0x01))\n      dup4\n      and\n      dup2\n      or\n      dup5\n      sstore\n        /* \"lib/openzeppelin-contracts/contracts/access/Ownable.sol\":3052:3092  OwnershipTransferred(oldOwner, newOwner) */\n      mload(0x40)\n        /* \"lib/openzeppelin-contracts/contracts/access/Ownable.sol\":3004:3010  _owner */\n      swap2\n      swap1\n      swap3\n      and\n      swap3\n      dup4\n      swap2\n        /* \"lib/openzeppelin-contracts/contracts/access/Ownable.sol\":3052:3092  OwnershipTransferred(oldOwner, newOwner) */\n      0x8be0079c531659141344cd1fd0a4f28419497f9722a3daafe3b4186f6b6457e0\n      swap2\n        /* \"lib/openzeppelin-contracts/contracts/access/Ownable.sol\":2985:3001  address oldOwner */\n      swap1\n        /* \"lib/openzeppelin-contracts/contracts/access/Ownable.sol\":3052:3092  OwnershipTransferred(oldOwner, newOwner) */\n      log3\n        /* \"lib/openzeppelin-contracts/contracts/access/Ownable.sol\":2975:3099  {... */\n      pop\n        /* \"lib/openzeppelin-contracts/contracts/access/Ownable.sol\":2912:3099  function _transferOwnership(address newOwner) internal virtual {... */\n      pop\n      jump\t// out\n        /* \"src/libraries/SSTORE2.sol\":7967:9067  function read(address pointer) internal view returns (bytes memory data) {... */\n    tag_131:\n        /* \"src/libraries/SSTORE2.sol\":8021:8038  bytes memory data */\n      0x60\n        /* \"src/libraries/SSTORE2.sol\":8108:8115  pointer */\n      dup2\n        /* \"src/libraries/SSTORE2.sol\":8096:8116  extcodesize(pointer) */\n      extcodesize\n        /* \"src/libraries/SSTORE2.sol\":8139:8154  pointerCodesize */\n      dup1\n        /* \"src/libraries/SSTORE2.sol\":8129:8364  if iszero(pointerCodesize) {... */\n      tag_138\n      jumpi\n        /* \"src/libraries/SSTORE2.sol\":8257:8267  0x11052bb4 */\n      0x11052bb4\n        /* \"src/libraries/SSTORE2.sol\":8251:8255  0x00 */\n      0x00\n        /* \"src/libraries/SSTORE2.sol\":8244:8268  mstore(0x00, 0x11052bb4) */\n      mstore\n        /* \"src/libraries/SSTORE2.sol\":8345:8349  0x04 */\n      0x04\n        /* \"src/libraries/SSTORE2.sol\":8339:8343  0x1c */\n      0x1c\n        /* \"src/libraries/SSTORE2.sol\":8332:8350  revert(0x1c, 0x04) */\n      revert\n        /* \"src/libraries/SSTORE2.sol\":8129:8364  if iszero(pointerCodesize) {... */\n    tag_138:\n        /* \"src/libraries/SSTORE2.sol\":8474:8485  DATA_OFFSET */\n      0x01\n        /* \"src/libraries/SSTORE2.sol\":8457:8472  pointerCodesize */\n      dup2\n        /* \"src/libraries/SSTORE2.sol\":8453:8486  sub(pointerCodesize, DATA_OFFSET) */\n      sub\n        /* \"src/libraries/SSTORE2.sol\":8441:8486  let size := sub(pointerCodesize, DATA_OFFSET) */\n      swap1\n      pop\n        /* \"src/libraries/SSTORE2.sol\":8804:8808  0x40 */\n      0x40\n        /* \"src/libraries/SSTORE2.sol\":8798:8809  mload(0x40) */\n      mload\n        /* \"src/libraries/SSTORE2.sol\":8790:8809  data := mload(0x40) */\n      swap2\n      pop\n        /* \"src/libraries/SSTORE2.sol\":8866:8872  0xffe0 */\n      0xffe0\n        /* \"src/libraries/SSTORE2.sol\":8859:8863  0x3f */\n      0x3f\n        /* \"src/libraries/SSTORE2.sol\":8853:8857  size */\n      dup3\n        /* \"src/libraries/SSTORE2.sol\":8849:8864  add(size, 0x3f) */\n      add\n        /* \"src/libraries/SSTORE2.sol\":8845:8873  and(add(size, 0x3f), 0xffe0) */\n      and\n        /* \"src/libraries/SSTORE2.sol\":8839:8843  data */\n      dup3\n        /* \"src/libraries/SSTORE2.sol\":8835:8874  add(data, and(add(size, 0x3f), 0xffe0)) */\n      add\n        /* \"src/libraries/SSTORE2.sol\":8829:8833  0x40 */\n      0x40\n        /* \"src/libraries/SSTORE2.sol\":8822:8875  mstore(0x40, add(data, and(add(size, 0x3f), 0xffe0))) */\n      mstore\n        /* \"src/libraries/SSTORE2.sol\":8901:8905  size */\n      dup1\n        /* \"src/libraries/SSTORE2.sol\":8895:8899  data */\n      dup3\n        /* \"src/libraries/SSTORE2.sol\":8888:8906  mstore(data, size) */\n      mstore\n        /* \"src/libraries/SSTORE2.sol\":8954:8955  0 */\n      0x00\n        /* \"src/libraries/SSTORE2.sol\":8947:8951  size */\n      dup2\n        /* \"src/libraries/SSTORE2.sol\":8940:8944  0x20 */\n      0x20\n        /* \"src/libraries/SSTORE2.sol\":8934:8938  data */\n      dup5\n        /* \"src/libraries/SSTORE2.sol\":8930:8945  add(data, 0x20) */\n      add\n        /* \"src/libraries/SSTORE2.sol\":8926:8952  add(add(data, 0x20), size) */\n      add\n        /* \"src/libraries/SSTORE2.sol\":8919:8956  mstore(add(add(data, 0x20), size), 0) */\n      mstore\n        /* \"src/libraries/SSTORE2.sol\":9046:9050  size */\n      dup1\n        /* \"src/libraries/SSTORE2.sol\":9033:9044  DATA_OFFSET */\n      0x01\n        /* \"src/libraries/SSTORE2.sol\":9026:9030  0x20 */\n      0x20\n        /* \"src/libraries/SSTORE2.sol\":9020:9024  data */\n      dup5\n        /* \"src/libraries/SSTORE2.sol\":9016:9031  add(data, 0x20) */\n      add\n        /* \"src/libraries/SSTORE2.sol\":9007:9014  pointer */\n      dup6\n        /* \"src/libraries/SSTORE2.sol\":8995:9051  extcodecopy(pointer, add(data, 0x20), DATA_OFFSET, size) */\n      extcodecopy\n      pop\n        /* \"src/libraries/SSTORE2.sol\":7967:9067  function read(address pointer) internal view returns (bytes memory data) {... */\n      swap2\n      swap1\n      pop\n      jump\t// out\n        /* \"src/libraries/LibZip.sol\":5061:6591  function flzDecompress(bytes memory data) internal pure returns (bytes memory result) {... */\n    tag_134:\n        /* \"src/libraries/LibZip.sol\":5196:5200  0x40 */\n      0x40\n        /* \"src/libraries/LibZip.sol\":5190:5201  mload(0x40) */\n      mload\n        /* \"src/libraries/LibZip.sol\":5286:5297  mload(data) */\n      dup2\n      mload\n        /* \"src/libraries/LibZip.sol\":5236:5240  0x20 */\n      0x20\n        /* \"src/libraries/LibZip.sol\":5269:5284  add(data, 0x20) */\n      dup4\n      dup2\n      add\n      swap4\n        /* \"src/libraries/LibZip.sol\":5224:5241  add(result, 0x20) */\n      dup2\n      dup5\n      add\n      swap3\n        /* \"src/libraries/LibZip.sol\":5265:5298  add(add(data, 0x20), mload(data)) */\n      add\n      add\n        /* \"src/libraries/LibZip.sol\":5311:6371  for { data := add(data, 0x20) } lt(data, end) {} {... */\n    tag_140:\n        /* \"src/libraries/LibZip.sol\":5352:5355  end */\n      dup1\n        /* \"src/libraries/LibZip.sol\":5346:5350  data */\n      dup5\n        /* \"src/libraries/LibZip.sol\":5343:5356  lt(data, end) */\n      lt\n        /* \"src/libraries/LibZip.sol\":5311:6371  for { data := add(data, 0x20) } lt(data, end) {} {... */\n      iszero\n      tag_142\n      jumpi\n        /* \"src/libraries/LibZip.sol\":5393:5397  data */\n      dup4\n        /* \"src/libraries/LibZip.sol\":5387:5398  mload(data) */\n      mload\n        /* \"src/libraries/LibZip.sol\":5432:5433  w */\n      dup1\n        /* \"src/libraries/LibZip.sol\":5429:5430  0 */\n      0x00\n        /* \"src/libraries/LibZip.sol\":5424:5434  byte(0, w) */\n      byte\n        /* \"src/libraries/LibZip.sol\":5467:5468  c */\n      dup1\n        /* \"src/libraries/LibZip.sol\":5464:5465  5 */\n      0x05\n        /* \"src/libraries/LibZip.sol\":5460:5469  shr(5, c) */\n      shr\n        /* \"src/libraries/LibZip.sol\":5496:5497  t */\n      dup1\n        /* \"src/libraries/LibZip.sol\":5486:5693  if iszero(t) {... */\n      tag_143\n      jumpi\n      pop\n        /* \"src/libraries/LibZip.sol\":5548:5549  1 */\n      0x01\n        /* \"src/libraries/LibZip.sol\":5538:5550  add(data, 1) */\n      dup7\n      dup2\n      add\n        /* \"src/libraries/LibZip.sol\":5532:5551  mload(add(data, 1)) */\n      mload\n        /* \"src/libraries/LibZip.sol\":5521:5552  mstore(op, mload(add(data, 1))) */\n      dup6\n      mstore\n        /* \"src/libraries/LibZip.sol\":5581:5601  add(data, add(2, c)) */\n      swap6\n      dup2\n      add\n        /* \"src/libraries/LibZip.sol\":5595:5596  2 */\n      0x02\n        /* \"src/libraries/LibZip.sol\":5581:5601  add(data, add(2, c)) */\n      add\n      swap6\n        /* \"src/libraries/LibZip.sol\":5628:5646  add(op, add(1, c)) */\n      swap4\n      add\n      swap1\n      swap3\n      add\n      swap2\n      pop\n        /* \"src/libraries/LibZip.sol\":5311:6371  for { data := add(data, 0x20) } lt(data, end) {} {... */\n      jump(tag_140)\n        /* \"src/libraries/LibZip.sol\":5486:5693  if iszero(t) {... */\n    tag_143:\n        /* \"src/libraries/LibZip.sol\":5751:5752  7 */\n      0x07\n        /* \"src/libraries/LibZip.sol\":5748:5749  t */\n      dup2\n        /* \"src/libraries/LibZip.sol\":5745:5753  eq(t, 7) */\n      eq\n        /* \"src/libraries/LibZip.sol\":5826:5827  w */\n      dup4\n        /* \"src/libraries/LibZip.sol\":5823:5824  1 */\n      0x01\n        /* \"src/libraries/LibZip.sol\":5818:5828  byte(1, w) */\n      byte\n        /* \"src/libraries/LibZip.sol\":5815:5816  7 */\n      0x07\n        /* \"src/libraries/LibZip.sol\":5811:5829  add(7, byte(1, w)) */\n      add\n        /* \"src/libraries/LibZip.sol\":5808:5809  t */\n      dup3\n        /* \"src/libraries/LibZip.sol\":5804:5830  xor(t, add(7, byte(1, w))) */\n      xor\n        /* \"src/libraries/LibZip.sol\":5801:5802  g */\n      dup2\n        /* \"src/libraries/LibZip.sol\":5797:5831  mul(g, xor(t, add(7, byte(1, w)))) */\n      mul\n        /* \"src/libraries/LibZip.sol\":5794:5795  t */\n      dup3\n        /* \"src/libraries/LibZip.sol\":5790:5832  xor(t, mul(g, xor(t, add(7, byte(1, w))))) */\n      xor\n        /* \"src/libraries/LibZip.sol\":5787:5788  2 */\n      0x02\n        /* \"src/libraries/LibZip.sol\":5783:5833  add(2, xor(t, mul(g, xor(t, add(7, byte(1, w)))))) */\n      add\n        /* \"src/libraries/LibZip.sol\":5919:5920  1 */\n      0x01\n        /* \"src/libraries/LibZip.sol\":5914:5915  w */\n      dup6\n        /* \"src/libraries/LibZip.sol\":5910:5911  g */\n      dup4\n        /* \"src/libraries/LibZip.sol\":5907:5908  1 */\n      0x01\n        /* \"src/libraries/LibZip.sol\":5903:5912  add(1, g) */\n      add\n        /* \"src/libraries/LibZip.sol\":5898:5916  byte(add(1, g), w) */\n      byte\n        /* \"src/libraries/LibZip.sol\":5893:5894  c */\n      dup6\n        /* \"src/libraries/LibZip.sol\":5887:5891  0x1f */\n      0x1f\n        /* \"src/libraries/LibZip.sol\":5883:5895  and(0x1f, c) */\n      and\n        /* \"src/libraries/LibZip.sol\":5880:5881  8 */\n      0x08\n        /* \"src/libraries/LibZip.sol\":5876:5896  shl(8, and(0x1f, c)) */\n      shl\n        /* \"src/libraries/LibZip.sol\":5872:5917  add(shl(8, and(0x1f, c)), byte(add(1, g), w)) */\n      add\n        /* \"src/libraries/LibZip.sol\":5868:5921  add(add(shl(8, and(0x1f, c)), byte(add(1, g), w)), 1) */\n      add\n        /* \"src/libraries/LibZip.sol\":5964:5965  s */\n      dup1\n        /* \"src/libraries/LibZip.sol\":5960:5962  op */\n      dup9\n        /* \"src/libraries/LibZip.sol\":5956:5966  sub(op, s) */\n      sub\n        /* \"src/libraries/LibZip.sol\":6027:6031  0x20 */\n      0x20\n        /* \"src/libraries/LibZip.sol\":6024:6025  s */\n      dup3\n        /* \"src/libraries/LibZip.sol\":6020:6032  xor(s, 0x20) */\n      xor\n        /* \"src/libraries/LibZip.sol\":6013:6017  0x20 */\n      0x20\n        /* \"src/libraries/LibZip.sol\":6010:6011  s */\n      dup4\n        /* \"src/libraries/LibZip.sol\":6007:6018  gt(s, 0x20) */\n      gt\n        /* \"src/libraries/LibZip.sol\":6003:6033  mul(gt(s, 0x20), xor(s, 0x20)) */\n      mul\n        /* \"src/libraries/LibZip.sol\":6000:6001  s */\n      dup3\n        /* \"src/libraries/LibZip.sol\":5996:6034  xor(s, mul(gt(s, 0x20), xor(s, 0x20))) */\n      xor\n        /* \"src/libraries/LibZip.sol\":5987:6034  let f := xor(s, mul(gt(s, 0x20), xor(s, 0x20))) */\n      swap2\n      pop\n        /* \"src/libraries/LibZip.sol\":6064:6065  0 */\n      0x00\n        /* \"src/libraries/LibZip.sol\":5710:6357  for {... */\n    tag_144:\n        /* \"src/libraries/LibZip.sol\":6136:6145  add(r, j) */\n      dup2\n      dup2\n      add\n        /* \"src/libraries/LibZip.sol\":6130:6146  mload(add(r, j)) */\n      mload\n        /* \"src/libraries/LibZip.sol\":6118:6128  add(op, j) */\n      dup11\n      dup3\n      add\n        /* \"src/libraries/LibZip.sol\":6111:6147  mstore(add(op, j), mload(add(r, j))) */\n      mstore\n        /* \"src/libraries/LibZip.sol\":6173:6182  add(j, f) */\n      dup3\n      add\n        /* \"src/libraries/LibZip.sol\":6206:6214  lt(j, l) */\n      dup4\n      dup2\n      lt\n        /* \"src/libraries/LibZip.sol\":5710:6357  for {... */\n      tag_144\n        /* \"src/libraries/LibZip.sol\":6203:6227  if lt(j, l) { continue } */\n      jumpi\n        /* \"src/libraries/LibZip.sol\":6256:6276  add(data, add(2, g)) */\n      swap11\n      dup5\n      add\n        /* \"src/libraries/LibZip.sol\":6270:6271  2 */\n      0x02\n        /* \"src/libraries/LibZip.sol\":6256:6276  add(data, add(2, g)) */\n      add\n      swap11\n        /* \"src/libraries/LibZip.sol\":6303:6313  add(op, l) */\n      swap9\n      dup4\n      add\n      swap9\n        /* \"src/libraries/LibZip.sol\":5714:6083  {... */\n      pop\n      pop\n      pop\n      pop\n      pop\n      pop\n      pop\n      pop\n        /* \"src/libraries/LibZip.sol\":5311:6371  for { data := add(data, 0x20) } lt(data, end) {} {... */\n      jump(tag_140)\n    tag_142:\n      pop\n      not(0x1f)\n        /* \"src/libraries/LibZip.sol\":6399:6425  sub(op, add(result, 0x20)) */\n      dup3\n      dup3\n      sub\n      add\n        /* \"src/libraries/LibZip.sol\":6384:6426  mstore(result, sub(op, add(result, 0x20))) */\n      dup3\n      mstore\n        /* \"src/libraries/LibZip.sol\":6471:6472  0 */\n      0x00\n        /* \"src/libraries/LibZip.sol\":6460:6473  mstore(op, 0) */\n      dup2\n      mstore\n        /* \"src/libraries/LibZip.sol\":6419:6423  0x20 */\n      0x20\n        /* \"src/libraries/LibZip.sol\":6537:6550  add(op, 0x20) */\n      add\n        /* \"src/libraries/LibZip.sol\":6531:6535  0x40 */\n      0x40\n        /* \"src/libraries/LibZip.sol\":6524:6551  mstore(0x40, add(op, 0x20)) */\n      mstore\n        /* \"src/libraries/LibZip.sol\":6411:6417  result */\n      swap2\n        /* \"src/libraries/LibZip.sol\":5061:6591  function flzDecompress(bytes memory data) internal pure returns (bytes memory result) {... */\n      swap1\n      pop\n      jump\t// out\n        /* \"#utility.yul\":14:381   */\n    tag_148:\n        /* \"#utility.yul\":77:85   */\n      0x00\n        /* \"#utility.yul\":87:93   */\n      0x00\n        /* \"#utility.yul\":141:144   */\n      dup4\n        /* \"#utility.yul\":134:138   */\n      0x1f\n        /* \"#utility.yul\":126:132   */\n      dup5\n        /* \"#utility.yul\":122:139   */\n      add\n        /* \"#utility.yul\":118:145   */\n      slt\n        /* \"#utility.yul\":108:163   */\n      tag_152\n      jumpi\n        /* \"#utility.yul\":159:160   */\n      0x00\n        /* \"#utility.yul\":156:157   */\n      0x00\n        /* \"#utility.yul\":149:161   */\n      revert\n        /* \"#utility.yul\":108:163   */\n    tag_152:\n      pop\n        /* \"#utility.yul\":182:202   */\n      dup2\n      calldataload\n        /* \"#utility.yul\":225:243   */\n      0xffffffffffffffff\n        /* \"#utility.yul\":214:244   */\n      dup2\n      gt\n        /* \"#utility.yul\":211:261   */\n      iszero\n      tag_153\n      jumpi\n        /* \"#utility.yul\":257:258   */\n      0x00\n        /* \"#utility.yul\":254:255   */\n      0x00\n        /* \"#utility.yul\":247:259   */\n      revert\n        /* \"#utility.yul\":211:261   */\n    tag_153:\n        /* \"#utility.yul\":294:298   */\n      0x20\n        /* \"#utility.yul\":286:292   */\n      dup4\n        /* \"#utility.yul\":282:299   */\n      add\n        /* \"#utility.yul\":270:299   */\n      swap2\n      pop\n        /* \"#utility.yul\":354:357   */\n      dup4\n        /* \"#utility.yul\":347:351   */\n      0x20\n        /* \"#utility.yul\":337:343   */\n      dup3\n        /* \"#utility.yul\":334:335   */\n      0x05\n        /* \"#utility.yul\":330:344   */\n      shl\n        /* \"#utility.yul\":322:328   */\n      dup6\n        /* \"#utility.yul\":318:345   */\n      add\n        /* \"#utility.yul\":314:352   */\n      add\n        /* \"#utility.yul\":311:358   */\n      gt\n        /* \"#utility.yul\":308:375   */\n      iszero\n      tag_154\n      jumpi\n        /* \"#utility.yul\":371:372   */\n      0x00\n        /* \"#utility.yul\":368:369   */\n      0x00\n        /* \"#utility.yul\":361:373   */\n      revert\n        /* \"#utility.yul\":308:375   */\n    tag_154:\n        /* \"#utility.yul\":14:381   */\n      swap3\n      pop\n      swap3\n      swap1\n      pop\n      jump\t// out\n        /* \"#utility.yul\":386:1165   */\n    tag_15:\n        /* \"#utility.yul\":519:525   */\n      0x00\n        /* \"#utility.yul\":527:533   */\n      0x00\n        /* \"#utility.yul\":535:541   */\n      0x00\n        /* \"#utility.yul\":543:549   */\n      0x00\n        /* \"#utility.yul\":596:598   */\n      0x40\n        /* \"#utility.yul\":584:593   */\n      dup6\n        /* \"#utility.yul\":575:582   */\n      dup8\n        /* \"#utility.yul\":571:594   */\n      sub\n        /* \"#utility.yul\":567:599   */\n      slt\n        /* \"#utility.yul\":564:616   */\n      iszero\n      tag_156\n      jumpi\n        /* \"#utility.yul\":612:613   */\n      0x00\n        /* \"#utility.yul\":609:610   */\n      0x00\n        /* \"#utility.yul\":602:614   */\n      revert\n        /* \"#utility.yul\":564:616   */\n    tag_156:\n        /* \"#utility.yul\":652:661   */\n      dup5\n        /* \"#utility.yul\":639:662   */\n      calldataload\n        /* \"#utility.yul\":685:703   */\n      0xffffffffffffffff\n        /* \"#utility.yul\":677:683   */\n      dup2\n        /* \"#utility.yul\":674:704   */\n      gt\n        /* \"#utility.yul\":671:721   */\n      iszero\n      tag_157\n      jumpi\n        /* \"#utility.yul\":717:718   */\n      0x00\n        /* \"#utility.yul\":714:715   */\n      0x00\n        /* \"#utility.yul\":707:719   */\n      revert\n        /* \"#utility.yul\":671:721   */\n    tag_157:\n        /* \"#utility.yul\":756:826   */\n      tag_158\n        /* \"#utility.yul\":818:825   */\n      dup8\n        /* \"#utility.yul\":809:815   */\n      dup3\n        /* \"#utility.yul\":798:807   */\n      dup9\n        /* \"#utility.yul\":794:816   */\n      add\n        /* \"#utility.yul\":756:826   */\n      tag_148\n      jump\t// in\n    tag_158:\n        /* \"#utility.yul\":845:853   */\n      swap1\n      swap6\n      pop\n        /* \"#utility.yul\":730:826   */\n      swap4\n      pop\n      pop\n        /* \"#utility.yul\":933:935   */\n      0x20\n        /* \"#utility.yul\":918:936   */\n      dup6\n      add\n        /* \"#utility.yul\":905:937   */\n      calldataload\n        /* \"#utility.yul\":962:980   */\n      0xffffffffffffffff\n        /* \"#utility.yul\":949:981   */\n      dup2\n      gt\n        /* \"#utility.yul\":946:998   */\n      iszero\n      tag_159\n      jumpi\n        /* \"#utility.yul\":994:995   */\n      0x00\n        /* \"#utility.yul\":991:992   */\n      0x00\n        /* \"#utility.yul\":984:996   */\n      revert\n        /* \"#utility.yul\":946:998   */\n    tag_159:\n        /* \"#utility.yul\":1033:1105   */\n      tag_160\n        /* \"#utility.yul\":1097:1104   */\n      dup8\n        /* \"#utility.yul\":1086:1094   */\n      dup3\n        /* \"#utility.yul\":1075:1084   */\n      dup9\n        /* \"#utility.yul\":1071:1095   */\n      add\n        /* \"#utility.yul\":1033:1105   */\n      tag_148\n      jump\t// in\n    tag_160:\n        /* \"#utility.yul\":386:1165   */\n      swap6\n      swap9\n      swap5\n      swap8\n      pop\n        /* \"#utility.yul\":1124:1132   */\n      swap6\n      pop\n      pop\n      pop\n      pop\n        /* \"#utility.yul\":386:1165   */\n      jump\t// out\n        /* \"#utility.yul\":1170:1396   */\n    tag_19:\n        /* \"#utility.yul\":1229:1235   */\n      0x00\n        /* \"#utility.yul\":1282:1284   */\n      0x20\n        /* \"#utility.yul\":1270:1279   */\n      dup3\n        /* \"#utility.yul\":1261:1268   */\n      dup5\n        /* \"#utility.yul\":1257:1280   */\n      sub\n        /* \"#utility.yul\":1253:1285   */\n      slt\n        /* \"#utility.yul\":1250:1302   */\n      iszero\n      tag_162\n      jumpi\n        /* \"#utility.yul\":1298:1299   */\n      0x00\n        /* \"#utility.yul\":1295:1296   */\n      0x00\n        /* \"#utility.yul\":1288:1300   */\n      revert\n        /* \"#utility.yul\":1250:1302   */\n    tag_162:\n      pop\n        /* \"#utility.yul\":1343:1366   */\n      calldataload\n      swap2\n        /* \"#utility.yul\":1170:1396   */\n      swap1\n      pop\n      jump\t// out\n        /* \"#utility.yul\":1401:1817   */\n    tag_22:\n        /* \"#utility.yul\":1548:1550   */\n      0x20\n        /* \"#utility.yul\":1537:1546   */\n      dup2\n        /* \"#utility.yul\":1530:1551   */\n      mstore\n        /* \"#utility.yul\":1511:1515   */\n      0x00\n        /* \"#utility.yul\":1580:1586   */\n      dup3\n        /* \"#utility.yul\":1574:1587   */\n      mload\n        /* \"#utility.yul\":1623:1629   */\n      dup1\n        /* \"#utility.yul\":1618:1620   */\n      0x20\n        /* \"#utility.yul\":1607:1616   */\n      dup5\n        /* \"#utility.yul\":1603:1621   */\n      add\n        /* \"#utility.yul\":1596:1630   */\n      mstore\n        /* \"#utility.yul\":1682:1688   */\n      dup1\n        /* \"#utility.yul\":1677:1679   */\n      0x20\n        /* \"#utility.yul\":1669:1675   */\n      dup6\n        /* \"#utility.yul\":1665:1680   */\n      add\n        /* \"#utility.yul\":1660:1662   */\n      0x40\n        /* \"#utility.yul\":1649:1658   */\n      dup6\n        /* \"#utility.yul\":1645:1663   */\n      add\n        /* \"#utility.yul\":1639:1689   */\n      mcopy\n        /* \"#utility.yul\":1738:1739   */\n      0x00\n        /* \"#utility.yul\":1733:1735   */\n      0x40\n        /* \"#utility.yul\":1724:1730   */\n      dup3\n        /* \"#utility.yul\":1713:1722   */\n      dup6\n        /* \"#utility.yul\":1709:1731   */\n      add\n        /* \"#utility.yul\":1705:1736   */\n      add\n        /* \"#utility.yul\":1698:1740   */\n      mstore\n        /* \"#utility.yul\":1808:1810   */\n      0x40\n        /* \"#utility.yul\":1801:1803   */\n      0x1f\n        /* \"#utility.yul\":1797:1804   */\n      not\n        /* \"#utility.yul\":1792:1794   */\n      0x1f\n        /* \"#utility.yul\":1784:1790   */\n      dup4\n        /* \"#utility.yul\":1780:1795   */\n      add\n        /* \"#utility.yul\":1776:1805   */\n      and\n        /* \"#utility.yul\":1765:1774   */\n      dup5\n        /* \"#utility.yul\":1761:1806   */\n      add\n        /* \"#utility.yul\":1757:1811   */\n      add\n        /* \"#utility.yul\":1749:1811   */\n      swap2\n      pop\n      pop\n        /* \"#utility.yul\":1401:1817   */\n      swap3\n      swap2\n      pop\n      pop\n      jump\t// out\n        /* \"#utility.yul\":1822:1949   */\n    tag_149:\n        /* \"#utility.yul\":1883:1893   */\n      0x4e487b71\n        /* \"#utility.yul\":1878:1881   */\n      0xe0\n        /* \"#utility.yul\":1874:1894   */\n      shl\n        /* \"#utility.yul\":1871:1872   */\n      0x00\n        /* \"#utility.yul\":1864:1895   */\n      mstore\n        /* \"#utility.yul\":1914:1918   */\n      0x41\n        /* \"#utility.yul\":1911:1912   */\n      0x04\n        /* \"#utility.yul\":1904:1919   */\n      mstore\n        /* \"#utility.yul\":1938:1942   */\n      0x24\n        /* \"#utility.yul\":1935:1936   */\n      0x00\n        /* \"#utility.yul\":1928:1943   */\n      revert\n        /* \"#utility.yul\":1954:3012   */\n    tag_31:\n        /* \"#utility.yul\":2031:2037   */\n      0x00\n        /* \"#utility.yul\":2039:2045   */\n      0x00\n        /* \"#utility.yul\":2092:2094   */\n      0x40\n        /* \"#utility.yul\":2080:2089   */\n      dup4\n        /* \"#utility.yul\":2071:2078   */\n      dup6\n        /* \"#utility.yul\":2067:2090   */\n      sub\n        /* \"#utility.yul\":2063:2095   */\n      slt\n        /* \"#utility.yul\":2060:2112   */\n      iszero\n      tag_166\n      jumpi\n        /* \"#utility.yul\":2108:2109   */\n      0x00\n        /* \"#utility.yul\":2105:2106   */\n      0x00\n        /* \"#utility.yul\":2098:2110   */\n      revert\n        /* \"#utility.yul\":2060:2112   */\n    tag_166:\n        /* \"#utility.yul\":2153:2176   */\n      dup3\n      calldataload\n      swap2\n      pop\n        /* \"#utility.yul\":2251:2253   */\n      0x20\n        /* \"#utility.yul\":2236:2254   */\n      dup4\n      add\n        /* \"#utility.yul\":2223:2255   */\n      calldataload\n        /* \"#utility.yul\":2278:2296   */\n      0xffffffffffffffff\n        /* \"#utility.yul\":2267:2297   */\n      dup2\n      gt\n        /* \"#utility.yul\":2264:2314   */\n      iszero\n      tag_167\n      jumpi\n        /* \"#utility.yul\":2310:2311   */\n      0x00\n        /* \"#utility.yul\":2307:2308   */\n      0x00\n        /* \"#utility.yul\":2300:2312   */\n      revert\n        /* \"#utility.yul\":2264:2314   */\n    tag_167:\n        /* \"#utility.yul\":2333:2355   */\n      dup4\n      add\n        /* \"#utility.yul\":2386:2390   */\n      0x1f\n        /* \"#utility.yul\":2378:2391   */\n      dup2\n      add\n        /* \"#utility.yul\":2374:2401   */\n      dup6\n      sgt\n        /* \"#utility.yul\":2364:2419   */\n      tag_168\n      jumpi\n        /* \"#utility.yul\":2415:2416   */\n      0x00\n        /* \"#utility.yul\":2412:2413   */\n      0x00\n        /* \"#utility.yul\":2405:2417   */\n      revert\n        /* \"#utility.yul\":2364:2419   */\n    tag_168:\n        /* \"#utility.yul\":2455:2457   */\n      dup1\n        /* \"#utility.yul\":2442:2458   */\n      calldataload\n        /* \"#utility.yul\":2481:2499   */\n      0xffffffffffffffff\n        /* \"#utility.yul\":2473:2479   */\n      dup2\n        /* \"#utility.yul\":2470:2500   */\n      gt\n        /* \"#utility.yul\":2467:2523   */\n      iszero\n      tag_170\n      jumpi\n        /* \"#utility.yul\":2503:2521   */\n      tag_170\n      tag_149\n      jump\t// in\n    tag_170:\n        /* \"#utility.yul\":2552:2554   */\n      0x40\n        /* \"#utility.yul\":2546:2555   */\n      mload\n        /* \"#utility.yul\":2644:2646   */\n      0x1f\n        /* \"#utility.yul\":2606:2623   */\n      dup3\n      add\n      not(0x1f)\n        /* \"#utility.yul\":2602:2633   */\n      swap1\n      dup2\n      and\n        /* \"#utility.yul\":2635:2637   */\n      0x3f\n        /* \"#utility.yul\":2598:2638   */\n      add\n        /* \"#utility.yul\":2594:2648   */\n      and\n        /* \"#utility.yul\":2582:2649   */\n      dup2\n      add\n        /* \"#utility.yul\":2679:2697   */\n      0xffffffffffffffff\n        /* \"#utility.yul\":2664:2698   */\n      dup2\n      gt\n        /* \"#utility.yul\":2700:2722   */\n      dup3\n      dup3\n      lt\n        /* \"#utility.yul\":2661:2723   */\n      or\n        /* \"#utility.yul\":2658:2746   */\n      iszero\n      tag_172\n      jumpi\n        /* \"#utility.yul\":2726:2744   */\n      tag_172\n      tag_149\n      jump\t// in\n    tag_172:\n        /* \"#utility.yul\":2762:2764   */\n      0x40\n        /* \"#utility.yul\":2755:2777   */\n      mstore\n        /* \"#utility.yul\":2786:2808   */\n      dup2\n      dup2\n      mstore\n        /* \"#utility.yul\":2827:2842   */\n      dup3\n      dup3\n      add\n        /* \"#utility.yul\":2844:2846   */\n      0x20\n        /* \"#utility.yul\":2823:2847   */\n      add\n        /* \"#utility.yul\":2820:2857   */\n      dup8\n      lt\n        /* \"#utility.yul\":2817:2874   */\n      iszero\n      tag_173\n      jumpi\n        /* \"#utility.yul\":2870:2871   */\n      0x00\n        /* \"#utility.yul\":2867:2868   */\n      0x00\n        /* \"#utility.yul\":2860:2872   */\n      revert\n        /* \"#utility.yul\":2817:2874   */\n    tag_173:\n        /* \"#utility.yul\":2926:2932   */\n      dup2\n        /* \"#utility.yul\":2921:2923   */\n      0x20\n        /* \"#utility.yul\":2917:2919   */\n      dup5\n        /* \"#utility.yul\":2913:2924   */\n      add\n        /* \"#utility.yul\":2908:2910   */\n      0x20\n        /* \"#utility.yul\":2900:2906   */\n      dup4\n        /* \"#utility.yul\":2896:2911   */\n      add\n        /* \"#utility.yul\":2883:2933   */\n      calldatacopy\n        /* \"#utility.yul\":2979:2980   */\n      0x00\n        /* \"#utility.yul\":2974:2976   */\n      0x20\n        /* \"#utility.yul\":2965:2971   */\n      dup4\n        /* \"#utility.yul\":2957:2963   */\n      dup4\n        /* \"#utility.yul\":2953:2972   */\n      add\n        /* \"#utility.yul\":2949:2977   */\n      add\n        /* \"#utility.yul\":2942:2981   */\n      mstore\n        /* \"#utility.yul\":3000:3006   */\n      dup1\n        /* \"#utility.yul\":2990:3006   */\n      swap4\n      pop\n      pop\n      pop\n      pop\n        /* \"#utility.yul\":1954:3012   */\n      swap3\n      pop\n      swap3\n      swap1\n      pop\n      jump\t// out\n        /* \"#utility.yul\":3225:3662   */\n    tag_39:\n        /* \"#utility.yul\":3311:3317   */\n      0x00\n        /* \"#utility.yul\":3319:3325   */\n      0x00\n        /* \"#utility.yul\":3372:3374   */\n      0x20\n        /* \"#utility.yul\":3360:3369   */\n      dup4\n        /* \"#utility.yul\":3351:3358   */\n      dup6\n        /* \"#utility.yul\":3347:3370   */\n      sub\n        /* \"#utility.yul\":3343:3375   */\n      slt\n        /* \"#utility.yul\":3340:3392   */\n      iszero\n      tag_176\n      jumpi\n        /* \"#utility.yul\":3388:3389   */\n      0x00\n        /* \"#utility.yul\":3385:3386   */\n      0x00\n        /* \"#utility.yul\":3378:3390   */\n      revert\n        /* \"#utility.yul\":3340:3392   */\n    tag_176:\n        /* \"#utility.yul\":3428:3437   */\n      dup3\n        /* \"#utility.yul\":3415:3438   */\n      calldataload\n        /* \"#utility.yul\":3461:3479   */\n      0xffffffffffffffff\n        /* \"#utility.yul\":3453:3459   */\n      dup2\n        /* \"#utility.yul\":3450:3480   */\n      gt\n        /* \"#utility.yul\":3447:3497   */\n      iszero\n      tag_177\n      jumpi\n        /* \"#utility.yul\":3493:3494   */\n      0x00\n        /* \"#utility.yul\":3490:3491   */\n      0x00\n        /* \"#utility.yul\":3483:3495   */\n      revert\n        /* \"#utility.yul\":3447:3497   */\n    tag_177:\n        /* \"#utility.yul\":3532:3602   */\n      tag_178\n        /* \"#utility.yul\":3594:3601   */\n      dup6\n        /* \"#utility.yul\":3585:3591   */\n      dup3\n        /* \"#utility.yul\":3574:3583   */\n      dup7\n        /* \"#utility.yul\":3570:3592   */\n      add\n        /* \"#utility.yul\":3532:3602   */\n      tag_148\n      jump\t// in\n    tag_178:\n        /* \"#utility.yul\":3621:3629   */\n      swap1\n      swap7\n        /* \"#utility.yul\":3506:3602   */\n      swap1\n      swap6\n      pop\n        /* \"#utility.yul\":3225:3662   */\n      swap4\n      pop\n      pop\n      pop\n      pop\n      jump\t// out\n        /* \"#utility.yul\":3667:3953   */\n    tag_46:\n        /* \"#utility.yul\":3726:3732   */\n      0x00\n        /* \"#utility.yul\":3779:3781   */\n      0x20\n        /* \"#utility.yul\":3767:3776   */\n      dup3\n        /* \"#utility.yul\":3758:3765   */\n      dup5\n        /* \"#utility.yul\":3754:3777   */\n      sub\n        /* \"#utility.yul\":3750:3782   */\n      slt\n        /* \"#utility.yul\":3747:3799   */\n      iszero\n      tag_180\n      jumpi\n        /* \"#utility.yul\":3795:3796   */\n      0x00\n        /* \"#utility.yul\":3792:3793   */\n      0x00\n        /* \"#utility.yul\":3785:3797   */\n      revert\n        /* \"#utility.yul\":3747:3799   */\n    tag_180:\n        /* \"#utility.yul\":3821:3844   */\n      dup2\n      calldataload\n      sub(shl(0xa0, 0x01), 0x01)\n        /* \"#utility.yul\":3873:3904   */\n      dup2\n      and\n        /* \"#utility.yul\":3863:3905   */\n      dup2\n      eq\n        /* \"#utility.yul\":3853:3923   */\n      tag_181\n      jumpi\n        /* \"#utility.yul\":3919:3920   */\n      0x00\n        /* \"#utility.yul\":3916:3917   */\n      0x00\n        /* \"#utility.yul\":3909:3921   */\n      revert\n        /* \"#utility.yul\":3853:3923   */\n    tag_181:\n        /* \"#utility.yul\":3942:3947   */\n      swap4\n        /* \"#utility.yul\":3667:3953   */\n      swap3\n      pop\n      pop\n      pop\n      jump\t// out\n        /* \"#utility.yul\":4365:4492   */\n    tag_60:\n        /* \"#utility.yul\":4426:4436   */\n      0x4e487b71\n        /* \"#utility.yul\":4421:4424   */\n      0xe0\n        /* \"#utility.yul\":4417:4437   */\n      shl\n        /* \"#utility.yul\":4414:4415   */\n      0x00\n        /* \"#utility.yul\":4407:4438   */\n      mstore\n        /* \"#utility.yul\":4457:4461   */\n      0x32\n        /* \"#utility.yul\":4454:4455   */\n      0x04\n        /* \"#utility.yul\":4447:4462   */\n      mstore\n        /* \"#utility.yul\":4481:4485   */\n      0x24\n        /* \"#utility.yul\":4478:4479   */\n      0x00\n        /* \"#utility.yul\":4471:4486   */\n      revert\n        /* \"#utility.yul\":4497:5018   */\n    tag_62:\n        /* \"#utility.yul\":4574:4578   */\n      0x00\n        /* \"#utility.yul\":4580:4586   */\n      0x00\n        /* \"#utility.yul\":4640:4651   */\n      dup4\n        /* \"#utility.yul\":4627:4652   */\n      calldataload\n        /* \"#utility.yul\":4734:4736   */\n      0x1e\n        /* \"#utility.yul\":4730:4737   */\n      not\n        /* \"#utility.yul\":4719:4727   */\n      dup5\n        /* \"#utility.yul\":4703:4717   */\n      calldatasize\n        /* \"#utility.yul\":4699:4728   */\n      sub\n        /* \"#utility.yul\":4695:4738   */\n      add\n        /* \"#utility.yul\":4675:4693   */\n      dup2\n        /* \"#utility.yul\":4671:4739   */\n      slt\n        /* \"#utility.yul\":4661:4757   */\n      tag_185\n      jumpi\n        /* \"#utility.yul\":4753:4754   */\n      0x00\n        /* \"#utility.yul\":4750:4751   */\n      0x00\n        /* \"#utility.yul\":4743:4755   */\n      revert\n        /* \"#utility.yul\":4661:4757   */\n    tag_185:\n        /* \"#utility.yul\":4780:4813   */\n      dup4\n      add\n        /* \"#utility.yul\":4832:4852   */\n      dup1\n      calldataload\n      swap2\n      pop\n        /* \"#utility.yul\":4875:4893   */\n      0xffffffffffffffff\n        /* \"#utility.yul\":4864:4894   */\n      dup3\n      gt\n        /* \"#utility.yul\":4861:4911   */\n      iszero\n      tag_186\n      jumpi\n        /* \"#utility.yul\":4907:4908   */\n      0x00\n        /* \"#utility.yul\":4904:4905   */\n      0x00\n        /* \"#utility.yul\":4897:4909   */\n      revert\n        /* \"#utility.yul\":4861:4911   */\n    tag_186:\n        /* \"#utility.yul\":4940:4944   */\n      0x20\n        /* \"#utility.yul\":4928:4945   */\n      add\n      swap2\n      pop\n        /* \"#utility.yul\":4971:4985   */\n      calldatasize\n        /* \"#utility.yul\":4967:4994   */\n      dup2\n      swap1\n      sub\n        /* \"#utility.yul\":4957:4995   */\n      dup3\n      sgt\n        /* \"#utility.yul\":4954:5012   */\n      iszero\n      tag_154\n      jumpi\n        /* \"#utility.yul\":5008:5009   */\n      0x00\n        /* \"#utility.yul\":5005:5006   */\n      0x00\n        /* \"#utility.yul\":4998:5010   */\n      revert\n\n    auxdata: 0xa2646970667358221220133741f6432af8f3c21b3d441d443a12911c5efc764d5552d314772d14ae190664736f6c634300081e0033\n}\n",
				"bytecode": {
					"linkReferences": {},
					"object": "6080604052348015600e575f5ffd5b503380603357604051631e4fbdf760e01b81525f600482015260240160405180910390fd5b603a81603f565b50608e565b5f80546001600160a01b038381166001600160a01b0319831681178455604051919092169283917f8be0079c531659141344cd1fd0a4f28419497f9722a3daafe3b4186f6b6457e09190a35050565b610abe8061009b5f395ff3fe608060405234801561000f575f5ffd5b5060043610610090575f3560e01c8063749f164711610063578063749f1647146100ed5780638da5cb5b14610100578063ed6d374d1461011a578063f14f58f11461012d578063f2fde38b14610140575f5ffd5b80633e9e21fe1461009457806348b50a3e146100a957806369dde379146100d2578063715018a6146100e5575b5f5ffd5b6100a76100a236600461083c565b610153565b005b6100bc6100b73660046108a8565b610358565b6040516100c991906108bf565b60405180910390f35b6100bc6100e03660046108a8565b61036b565b6100a7610377565b6100a76100fb366004610908565b61038a565b5f546040516001600160a01b0390911681526020016100c9565b6100a76101283660046109c5565b610443565b6100a761013b3660046108a8565b6104c7565b6100a761014e366004610a04565b61056e565b61015b6105ab565b8281146101be5760405162461bcd60e51b815260206004820152602660248201527f4c656e677468206d69736d61746368206265747765656e206b65797320616e2060448201526561737365747360d01b60648201526084015b60405180910390fd5b5f5b83811015610351575f8383838181106101db576101db610a31565b90506020028101906101ed9190610a45565b90501161022a5760405162461bcd60e51b815260206004820152600b60248201526a115b5c1d1e48185cdcd95d60aa1b60448201526064016101b5565b5f61028b84848481811061024057610240610a31565b90506020028101906102529190610a45565b8080601f0160208091040260200160405190810160405280939291908181526020018383808284375f920191909152506105d792505050565b90508060015f8888868181106102a3576102a3610a31565b602090810292909201358352508101919091526040015f2080546001600160a01b0319166001600160a01b0392831617905581168686848181106102e9576102e9610a31565b905060200201357f85ac039d1da307b778050ca29271ac915424bac011342c9452960f6679b18ff086868681811061032357610323610a31565b90506020028101906103359190610a45565b604051908152602001905060405180910390a3506001016101c0565b5050505050565b606061036582600161061d565b92915050565b6060610365825f61061d565b61037f6105ab565b6103885f6106a1565b565b6103926105ab565b5f8151116103d05760405162461bcd60e51b815260206004820152600b60248201526a115b5c1d1e48185cdcd95d60aa1b60448201526064016101b5565b5f6103da826105d7565b5f8481526001602090815260409182902080546001600160a01b0319166001600160a01b0385169081179091558551925192835292935085917f85ac039d1da307b778050ca29271ac915424bac011342c9452960f6679b18ff0910160405180910390a3505050565b61044b6105ab565b5f5b818110156104c2575f83838381811061046857610468610a31565b602090810292909201355f8181526001909352604080842080546001600160a01b03191690555190935083927f80bd04276b946f13ca22d049d583a03881b8fbdb5d3166069772a97baa33845a925090a25060010161044d565b505050565b6104cf6105ab565b5f818152600160205260409020546001600160a01b03166105295760405162461bcd60e51b8152602060048201526014602482015273105cdcd95d08191bd95cc81b9bdd08195e1a5cdd60621b60448201526064016101b5565b5f8181526001602052604080822080546001600160a01b03191690555182917f80bd04276b946f13ca22d049d583a03881b8fbdb5d3166069772a97baa33845a91a250565b6105766105ab565b6001600160a01b03811661059f57604051631e4fbdf760e01b81525f60048201526024016101b5565b6105a8816106a1565b50565b5f546001600160a01b031633146103885760405163118cdaa760e01b81523360048201526024016101b5565b5f8151600181018060401b6bfd61000080600a3d393df3001761ffff8211850152600a8101601585015ff0925050816106175763301164255f526004601cfd5b90915290565b5f828152600160205260409020546060906001600160a01b03168061067b5760405162461bcd60e51b8152602060048201526014602482015273105cdcd95d08191bd95cc81b9bdd08195e1a5cdd60621b60448201526064016101b5565b5f610685826106f0565b905083156106995761069681610738565b90505b949350505050565b5f80546001600160a01b038381166001600160a01b0319831681178455604051919092169283917f8be0079c531659141344cd1fd0a4f28419497f9722a3daafe3b4186f6b6457e09190a35050565b6060813b80610706576311052bb45f526004601cfd5b600181039050604051915061ffe0603f82011682016040528082525f8160208401015280600160208401853c50919050565b60405181516020838101938184019201015b808410156107dc578351805f1a8060051c8061077c57506001868101518552958101600201959301909201915061074a565b600781148360011a600701821881028218600201600185836001011a85601f1660081b0101808803602082186020831102821891505f5b818101518a82015282018381106107b3579a84016002019a98830198505050505050505061074a565b50601f198282030182525f8152602001604052919050565b5f5f83601f840112610804575f5ffd5b50813567ffffffffffffffff81111561081b575f5ffd5b6020830191508360208260051b8501011115610835575f5ffd5b9250929050565b5f5f5f5f6040858703121561084f575f5ffd5b843567ffffffffffffffff811115610865575f5ffd5b610871878288016107f4565b909550935050602085013567ffffffffffffffff811115610890575f5ffd5b61089c878288016107f4565b95989497509550505050565b5f602082840312156108b8575f5ffd5b5035919050565b602081525f82518060208401528060208501604085015e5f604082850101526040601f19601f83011684010191505092915050565b634e487b7160e01b5f52604160045260245ffd5b5f5f60408385031215610919575f5ffd5b82359150602083013567ffffffffffffffff811115610936575f5ffd5b8301601f81018513610946575f5ffd5b803567ffffffffffffffff811115610960576109606108f4565b604051601f8201601f19908116603f0116810167ffffffffffffffff8111828210171561098f5761098f6108f4565b6040528181528282016020018710156109a6575f5ffd5b816020840160208301375f602083830101528093505050509250929050565b5f5f602083850312156109d6575f5ffd5b823567ffffffffffffffff8111156109ec575f5ffd5b6109f8858286016107f4565b90969095509350505050565b5f60208284031215610a14575f5ffd5b81356001600160a01b0381168114610a2a575f5ffd5b9392505050565b634e487b7160e01b5f52603260045260245ffd5b5f5f8335601e19843603018112610a5a575f5ffd5b83018035915067ffffffffffffffff821115610a74575f5ffd5b602001915036819003821315610835575f5ffdfea2646970667358221220133741f6432af8f3c21b3d441d443a12911c5efc764d5552d314772d14ae190664736f6c634300081e0033",
					"opcodes": "PUSH1 0x80 PUSH1 0x40 MSTORE CALLVALUE DUP1 ISZERO PUSH1 0xE JUMPI PUSH0 PUSH0 REVERT JUMPDEST POP CALLER DUP1 PUSH1 0x33 JUMPI PUSH1 0x40 MLOAD PUSH4 0x1E4FBDF7 PUSH1 0xE0 SHL DUP2 MSTORE PUSH0 PUSH1 0x4 DUP3 ADD MSTORE PUSH1 0x24 ADD PUSH1 0x40 MLOAD DUP1 SWAP2 SUB SWAP1 REVERT JUMPDEST PUSH1 0x3A DUP2 PUSH1 0x3F JUMP JUMPDEST POP PUSH1 0x8E JUMP JUMPDEST PUSH0 DUP1 SLOAD PUSH1 0x1 PUSH1 0x1 PUSH1 0xA0 SHL SUB DUP4 DUP2 AND PUSH1 0x1 PUSH1 0x1 PUSH1 0xA0 SHL SUB NOT DUP4 AND DUP2 OR DUP5 SSTORE PUSH1 0x40 MLOAD SWAP2 SWAP1 SWAP3 AND SWAP3 DUP4 SWAP2 PUSH32 0x8BE0079C531659141344CD1FD0A4F28419497F9722A3DAAFE3B4186F6B6457E0 SWAP2 SWAP1 LOG3 POP POP JUMP JUMPDEST PUSH2 0xABE DUP1 PUSH2 0x9B PUSH0 CODECOPY PUSH0 RETURN INVALID PUSH1 0x80 PUSH1 0x40 MSTORE CALLVALUE DUP1 ISZERO PUSH2 0xF JUMPI PUSH0 PUSH0 REVERT JUMPDEST POP PUSH1 0x4 CALLDATASIZE LT PUSH2 0x90 JUMPI PUSH0 CALLDATALOAD PUSH1 0xE0 SHR DUP1 PUSH4 0x749F1647 GT PUSH2 0x63 JUMPI DUP1 PUSH4 0x749F1647 EQ PUSH2 0xED JUMPI DUP1 PUSH4 0x8DA5CB5B EQ PUSH2 0x100 JUMPI DUP1 PUSH4 0xED6D374D EQ PUSH2 0x11A JUMPI DUP1 PUSH4 0xF14F58F1 EQ PUSH2 0x12D JUMPI DUP1 PUSH4 0xF2FDE38B EQ PUSH2 0x140 JUMPI PUSH0 PUSH0 REVERT JUMPDEST DUP1 PUSH4 0x3E9E21FE EQ PUSH2 0x94 JUMPI DUP1 PUSH4 0x48B50A3E EQ PUSH2 0xA9 JUMPI DUP1 PUSH4 0x69DDE379 EQ PUSH2 0xD2 JUMPI DUP1 PUSH4 0x715018A6 EQ PUSH2 0xE5 JUMPI JUMPDEST PUSH0 PUSH0 REVERT JUMPDEST PUSH2 0xA7 PUSH2 0xA2 CALLDATASIZE PUSH1 0x4 PUSH2 0x83C JUMP JUMPDEST PUSH2 0x153 JUMP JUMPDEST STOP JUMPDEST PUSH2 0xBC PUSH2 0xB7 CALLDATASIZE PUSH1 0x4 PUSH2 0x8A8 JUMP JUMPDEST PUSH2 0x358 JUMP JUMPDEST PUSH1 0x40 MLOAD PUSH2 0xC9 SWAP2 SWAP1 PUSH2 0x8BF JUMP JUMPDEST PUSH1 0x40 MLOAD DUP1 SWAP2 SUB SWAP1 RETURN JUMPDEST PUSH2 0xBC PUSH2 0xE0 CALLDATASIZE PUSH1 0x4 PUSH2 0x8A8 JUMP JUMPDEST PUSH2 0x36B JUMP JUMPDEST PUSH2 0xA7 PUSH2 0x377 JUMP JUMPDEST PUSH2 0xA7 PUSH2 0xFB CALLDATASIZE PUSH1 0x4 PUSH2 0x908 JUMP JUMPDEST PUSH2 0x38A JUMP JUMPDEST PUSH0 SLOAD PUSH1 0x40 MLOAD PUSH1 0x1 PUSH1 0x1 PUSH1 0xA0 SHL SUB SWAP1 SWAP2 AND DUP2 MSTORE PUSH1 0x20 ADD PUSH2 0xC9 JUMP JUMPDEST PUSH2 0xA7 PUSH2 0x128 CALLDATASIZE PUSH1 0x4 PUSH2 0x9C5 JUMP JUMPDEST PUSH2 0x443 JUMP JUMPDEST PUSH2 0xA7 PUSH2 0x13B CALLDATASIZE PUSH1 0x4 PUSH2 0x8A8 JUMP JUMPDEST PUSH2 0x4C7 JUMP JUMPDEST PUSH2 0xA7 PUSH2 0x14E CALLDATASIZE PUSH1 0x4 PUSH2 0xA04 JUMP JUMPDEST PUSH2 0x56E JUMP JUMPDEST PUSH2 0x15B PUSH2 0x5AB JUMP JUMPDEST DUP3 DUP2 EQ PUSH2 0x1BE JUMPI PUSH1 0x40 MLOAD PUSH3 0x461BCD PUSH1 0xE5 SHL DUP2 MSTORE PUSH1 0x20 PUSH1 0x4 DUP3 ADD MSTORE PUSH1 0x26 PUSH1 0x24 DUP3 ADD MSTORE PUSH32 0x4C656E677468206D69736D61746368206265747765656E206B65797320616E20 PUSH1 0x44 DUP3 ADD MSTORE PUSH6 0x617373657473 PUSH1 0xD0 SHL PUSH1 0x64 DUP3 ADD MSTORE PUSH1 0x84 ADD JUMPDEST PUSH1 0x40 MLOAD DUP1 SWAP2 SUB SWAP1 REVERT JUMPDEST PUSH0 JUMPDEST DUP4 DUP2 LT ISZERO PUSH2 0x351 JUMPI PUSH0 DUP4 DUP4 DUP4 DUP2 DUP2 LT PUSH2 0x1DB JUMPI PUSH2 0x1DB PUSH2 0xA31 JUMP JUMPDEST SWAP1 POP PUSH1 0x20 MUL DUP2 ADD SWAP1 PUSH2 0x1ED SWAP2 SWAP1 PUSH2 0xA45 JUMP JUMPDEST SWAP1 POP GT PUSH2 0x22A JUMPI PUSH1 0x40 MLOAD PUSH3 0x461BCD PUSH1 0xE5 SHL DUP2 MSTORE PUSH1 0x20 PUSH1 0x4 DUP3 ADD MSTORE PUSH1 0xB PUSH1 0x24 DUP3 ADD MSTORE PUSH11 0x115B5C1D1E48185CDCD95D PUSH1 0xAA SHL PUSH1 0x44 DUP3 ADD MSTORE PUSH1 0x64 ADD PUSH2 0x1B5 JUMP JUMPDEST PUSH0 PUSH2 0x28B DUP5 DUP5 DUP5 DUP2 DUP2 LT PUSH2 0x240 JUMPI PUSH2 0x240 PUSH2 0xA31 JUMP JUMPDEST SWAP1 POP PUSH1 0x20 MUL DUP2 ADD SWAP1 PUSH2 0x252 SWAP2 SWAP1 PUSH2 0xA45 JUMP JUMPDEST DUP1 DUP1 PUSH1 0x1F ADD PUSH1 0x20 DUP1 SWAP2 DIV MUL PUSH1 0x20 ADD PUSH1 0x40 MLOAD SWAP1 DUP2 ADD PUSH1 0x40 MSTORE DUP1 SWAP4 SWAP3 SWAP2 SWAP1 DUP2 DUP2 MSTORE PUSH1 0x20 ADD DUP4 DUP4 DUP1 DUP3 DUP5 CALLDATACOPY PUSH0 SWAP3 ADD SWAP2 SWAP1 SWAP2 MSTORE POP PUSH2 0x5D7 SWAP3 POP POP POP JUMP JUMPDEST SWAP1 POP DUP1 PUSH1 0x1 PUSH0 DUP9 DUP9 DUP7 DUP2 DUP2 LT PUSH2 0x2A3 JUMPI PUSH2 0x2A3 PUSH2 0xA31 JUMP JUMPDEST PUSH1 0x20 SWAP1 DUP2 MUL SWAP3 SWAP1 SWAP3 ADD CALLDATALOAD DUP4 MSTORE POP DUP2 ADD SWAP2 SWAP1 SWAP2 MSTORE PUSH1 0x40 ADD PUSH0 KECCAK256 DUP1 SLOAD PUSH1 0x1 PUSH1 0x1 PUSH1 0xA0 SHL SUB NOT AND PUSH1 0x1 PUSH1 0x1 PUSH1 0xA0 SHL SUB SWAP3 DUP4 AND OR SWAP1 SSTORE DUP2 AND DUP7 DUP7 DUP5 DUP2 DUP2 LT PUSH2 0x2E9 JUMPI PUSH2 0x2E9 PUSH2 0xA31 JUMP JUMPDEST SWAP1 POP PUSH1 0x20 MUL ADD CALLDATALOAD PUSH32 0x85AC039D1DA307B778050CA29271AC915424BAC011342C9452960F6679B18FF0 DUP7 DUP7 DUP7 DUP2 DUP2 LT PUSH2 0x323 JUMPI PUSH2 0x323 PUSH2 0xA31 JUMP JUMPDEST SWAP1 POP PUSH1 0x20 MUL DUP2 ADD SWAP1 PUSH2 0x335 SWAP2 SWAP1 PUSH2 0xA45 JUMP JUMPDEST PUSH1 0x40 MLOAD SWAP1 DUP2 MSTORE PUSH1 0x20 ADD SWAP1 POP PUSH1 0x40 MLOAD DUP1 SWAP2 SUB SWAP1 LOG3 POP PUSH1 0x1 ADD PUSH2 0x1C0 JUMP JUMPDEST POP POP POP POP POP JUMP JUMPDEST PUSH1 0x60 PUSH2 0x365 DUP3 PUSH1 0x1 PUSH2 0x61D JUMP JUMPDEST SWAP3 SWAP2 POP POP JUMP JUMPDEST PUSH1 0x60 PUSH2 0x365 DUP3 PUSH0 PUSH2 0x61D JUMP JUMPDEST PUSH2 0x37F PUSH2 0x5AB JUMP JUMPDEST PUSH2 0x388 PUSH0 PUSH2 0x6A1 JUMP JUMPDEST JUMP JUMPDEST PUSH2 0x392 PUSH2 0x5AB JUMP JUMPDEST PUSH0 DUP2 MLOAD GT PUSH2 0x3D0 JUMPI PUSH1 0x40 MLOAD PUSH3 0x461BCD PUSH1 0xE5 SHL DUP2 MSTORE PUSH1 0x20 PUSH1 0x4 DUP3 ADD MSTORE PUSH1 0xB PUSH1 0x24 DUP3 ADD MSTORE PUSH11 0x115B5C1D1E48185CDCD95D PUSH1 0xAA SHL PUSH1 0x44 DUP3 ADD MSTORE PUSH1 0x64 ADD PUSH2 0x1B5 JUMP JUMPDEST PUSH0 PUSH2 0x3DA DUP3 PUSH2 0x5D7 JUMP JUMPDEST PUSH0 DUP5 DUP2 MSTORE PUSH1 0x1 PUSH1 0x20 SWAP1 DUP2 MSTORE PUSH1 0x40 SWAP2 DUP3 SWAP1 KECCAK256 DUP1 SLOAD PUSH1 0x1 PUSH1 0x1 PUSH1 0xA0 SHL SUB NOT AND PUSH1 0x1 PUSH1 0x1 PUSH1 0xA0 SHL SUB DUP6 AND SWAP1 DUP2 OR SWAP1 SWAP2 SSTORE DUP6 MLOAD SWAP3 MLOAD SWAP3 DUP4 MSTORE SWAP3 SWAP4 POP DUP6 SWAP2 PUSH32 0x85AC039D1DA307B778050CA29271AC915424BAC011342C9452960F6679B18FF0 SWAP2 ADD PUSH1 0x40 MLOAD DUP1 SWAP2 SUB SWAP1 LOG3 POP POP POP JUMP JUMPDEST PUSH2 0x44B PUSH2 0x5AB JUMP JUMPDEST PUSH0 JUMPDEST DUP2 DUP2 LT ISZERO PUSH2 0x4C2 JUMPI PUSH0 DUP4 DUP4 DUP4 DUP2 DUP2 LT PUSH2 0x468 JUMPI PUSH2 0x468 PUSH2 0xA31 JUMP JUMPDEST PUSH1 0x20 SWAP1 DUP2 MUL SWAP3 SWAP1 SWAP3 ADD CALLDATALOAD PUSH0 DUP2 DUP2 MSTORE PUSH1 0x1 SWAP1 SWAP4 MSTORE PUSH1 0x40 DUP1 DUP5 KECCAK256 DUP1 SLOAD PUSH1 0x1 PUSH1 0x1 PUSH1 0xA0 SHL SUB NOT AND SWAP1 SSTORE MLOAD SWAP1 SWAP4 POP DUP4 SWAP3 PUSH32 0x80BD04276B946F13CA22D049D583A03881B8FBDB5D3166069772A97BAA33845A SWAP3 POP SWAP1 LOG2 POP PUSH1 0x1 ADD PUSH2 0x44D JUMP JUMPDEST POP POP POP JUMP JUMPDEST PUSH2 0x4CF PUSH2 0x5AB JUMP JUMPDEST PUSH0 DUP2 DUP2 MSTORE PUSH1 0x1 PUSH1 0x20 MSTORE PUSH1 0x40 SWAP1 KECCAK256 SLOAD PUSH1 0x1 PUSH1 0x1 PUSH1 0xA0 SHL SUB AND PUSH2 0x529 JUMPI PUSH1 0x40 MLOAD PUSH3 0x461BCD PUSH1 0xE5 SHL DUP2 MSTORE PUSH1 0x20 PUSH1 0x4 DUP3 ADD MSTORE PUSH1 0x14 PUSH1 0x24 DUP3 ADD MSTORE PUSH20 0x105CDCD95D08191BD95CC81B9BDD08195E1A5CDD PUSH1 0x62 SHL PUSH1 0x44 DUP3 ADD MSTORE PUSH1 0x64 ADD PUSH2 0x1B5 JUMP JUMPDEST PUSH0 DUP2 DUP2 MSTORE PUSH1 0x1 PUSH1 0x20 MSTORE PUSH1 0x40 DUP1 DUP3 KECCAK256 DUP1 SLOAD PUSH1 0x1 PUSH1 0x1 PUSH1 0xA0 SHL SUB NOT AND SWAP1 SSTORE MLOAD DUP3 SWAP2 PUSH32 0x80BD04276B946F13CA22D049D583A03881B8FBDB5D3166069772A97BAA33845A SWAP2 LOG2 POP JUMP JUMPDEST PUSH2 0x576 PUSH2 0x5AB JUMP JUMPDEST PUSH1 0x1 PUSH1 0x1 PUSH1 0xA0 SHL SUB DUP2 AND PUSH2 0x59F JUMPI PUSH1 0x40 MLOAD PUSH4 0x1E4FBDF7 PUSH1 0xE0 SHL DUP2 MSTORE PUSH0 PUSH1 0x4 DUP3 ADD MSTORE PUSH1 0x24 ADD PUSH2 0x1B5 JUMP JUMPDEST PUSH2 0x5A8 DUP2 PUSH2 0x6A1 JUMP JUMPDEST POP JUMP JUMPDEST PUSH0 SLOAD PUSH1 0x1 PUSH1 0x1 PUSH1 0xA0 SHL SUB AND CALLER EQ PUSH2 0x388 JUMPI PUSH1 0x40 MLOAD PUSH4 0x118CDAA7 PUSH1 0xE0 SHL DUP2 MSTORE CALLER PUSH1 0x4 DUP3 ADD MSTORE PUSH1 0x24 ADD PUSH2 0x1B5 JUMP JUMPDEST PUSH0 DUP2 MLOAD PUSH1 0x1 DUP2 ADD DUP1 PUSH1 0x40 SHL PUSH12 0xFD61000080600A3D393DF300 OR PUSH2 0xFFFF DUP3 GT DUP6 ADD MSTORE PUSH1 0xA DUP2 ADD PUSH1 0x15 DUP6 ADD PUSH0 CREATE SWAP3 POP POP DUP2 PUSH2 0x617 JUMPI PUSH4 0x30116425 PUSH0 MSTORE PUSH1 0x4 PUSH1 0x1C REVERT JUMPDEST SWAP1 SWAP2 MSTORE SWAP1 JUMP JUMPDEST PUSH0 DUP3 DUP2 MSTORE PUSH1 0x1 PUSH1 0x20 MSTORE PUSH1 0x40 SWAP1 KECCAK256 SLOAD PUSH1 0x60 SWAP1 PUSH1 0x1 PUSH1 0x1 PUSH1 0xA0 SHL SUB AND DUP1 PUSH2 0x67B JUMPI PUSH1 0x40 MLOAD PUSH3 0x461BCD PUSH1 0xE5 SHL DUP2 MSTORE PUSH1 0x20 PUSH1 0x4 DUP3 ADD MSTORE PUSH1 0x14 PUSH1 0x24 DUP3 ADD MSTORE PUSH20 0x105CDCD95D08191BD95CC81B9BDD08195E1A5CDD PUSH1 0x62 SHL PUSH1 0x44 DUP3 ADD MSTORE PUSH1 0x64 ADD PUSH2 0x1B5 JUMP JUMPDEST PUSH0 PUSH2 0x685 DUP3 PUSH2 0x6F0 JUMP JUMPDEST SWAP1 POP DUP4 ISZERO PUSH2 0x699 JUMPI PUSH2 0x696 DUP2 PUSH2 0x738 JUMP JUMPDEST SWAP1 POP JUMPDEST SWAP5 SWAP4 POP POP POP POP JUMP JUMPDEST PUSH0 DUP1 SLOAD PUSH1 0x1 PUSH1 0x1 PUSH1 0xA0 SHL SUB DUP4 DUP2 AND PUSH1 0x1 PUSH1 0x1 PUSH1 0xA0 SHL SUB NOT DUP4 AND DUP2 OR DUP5 SSTORE PUSH1 0x40 MLOAD SWAP2 SWAP1 SWAP3 AND SWAP3 DUP4 SWAP2 PUSH32 0x8BE0079C531659141344CD1FD0A4F28419497F9722A3DAAFE3B4186F6B6457E0 SWAP2 SWAP1 LOG3 POP POP JUMP JUMPDEST PUSH1 0x60 DUP2 EXTCODESIZE DUP1 PUSH2 0x706 JUMPI PUSH4 0x11052BB4 PUSH0 MSTORE PUSH1 0x4 PUSH1 0x1C REVERT JUMPDEST PUSH1 0x1 DUP2 SUB SWAP1 POP PUSH1 0x40 MLOAD SWAP2 POP PUSH2 0xFFE0 PUSH1 0x3F DUP3 ADD AND DUP3 ADD PUSH1 0x40 MSTORE DUP1 DUP3 MSTORE PUSH0 DUP2 PUSH1 0x20 DUP5 ADD ADD MSTORE DUP1 PUSH1 0x1 PUSH1 0x20 DUP5 ADD DUP6 EXTCODECOPY POP SWAP2 SWAP1 POP JUMP JUMPDEST PUSH1 0x40 MLOAD DUP2 MLOAD PUSH1 0x20 DUP4 DUP2 ADD SWAP4 DUP2 DUP5 ADD SWAP3 ADD ADD JUMPDEST DUP1 DUP5 LT ISZERO PUSH2 0x7DC JUMPI DUP4 MLOAD DUP1 PUSH0 BYTE DUP1 PUSH1 0x5 SHR DUP1 PUSH2 0x77C JUMPI POP PUSH1 0x1 DUP7 DUP2 ADD MLOAD DUP6 MSTORE SWAP6 DUP2 ADD PUSH1 0x2 ADD SWAP6 SWAP4 ADD SWAP1 SWAP3 ADD SWAP2 POP PUSH2 0x74A JUMP JUMPDEST PUSH1 0x7 DUP2 EQ DUP4 PUSH1 0x1 BYTE PUSH1 0x7 ADD DUP3 XOR DUP2 MUL DUP3 XOR PUSH1 0x2 ADD PUSH1 0x1 DUP6 DUP4 PUSH1 0x1 ADD BYTE DUP6 PUSH1 0x1F AND PUSH1 0x8 SHL ADD ADD DUP1 DUP9 SUB PUSH1 0x20 DUP3 XOR PUSH1 0x20 DUP4 GT MUL DUP3 XOR SWAP2 POP PUSH0 JUMPDEST DUP2 DUP2 ADD MLOAD DUP11 DUP3 ADD MSTORE DUP3 ADD DUP4 DUP2 LT PUSH2 0x7B3 JUMPI SWAP11 DUP5 ADD PUSH1 0x2 ADD SWAP11 SWAP9 DUP4 ADD SWAP9 POP POP POP POP POP POP POP POP PUSH2 0x74A JUMP JUMPDEST POP PUSH1 0x1F NOT DUP3 DUP3 SUB ADD DUP3 MSTORE PUSH0 DUP2 MSTORE PUSH1 0x20 ADD PUSH1 0x40 MSTORE SWAP2 SWAP1 POP JUMP JUMPDEST PUSH0 PUSH0 DUP4 PUSH1 0x1F DUP5 ADD SLT PUSH2 0x804 JUMPI PUSH0 PUSH0 REVERT JUMPDEST POP DUP2 CALLDATALOAD PUSH8 0xFFFFFFFFFFFFFFFF DUP2 GT ISZERO PUSH2 0x81B JUMPI PUSH0 PUSH0 REVERT JUMPDEST PUSH1 0x20 DUP4 ADD SWAP2 POP DUP4 PUSH1 0x20 DUP3 PUSH1 0x5 SHL DUP6 ADD ADD GT ISZERO PUSH2 0x835 JUMPI PUSH0 PUSH0 REVERT JUMPDEST SWAP3 POP SWAP3 SWAP1 POP JUMP JUMPDEST PUSH0 PUSH0 PUSH0 PUSH0 PUSH1 0x40 DUP6 DUP8 SUB SLT ISZERO PUSH2 0x84F JUMPI PUSH0 PUSH0 REVERT JUMPDEST DUP5 CALLDATALOAD PUSH8 0xFFFFFFFFFFFFFFFF DUP2 GT ISZERO PUSH2 0x865 JUMPI PUSH0 PUSH0 REVERT JUMPDEST PUSH2 0x871 DUP8 DUP3 DUP9 ADD PUSH2 0x7F4 JUMP JUMPDEST SWAP1 SWAP6 POP SWAP4 POP POP PUSH1 0x20 DUP6 ADD CALLDATALOAD PUSH8 0xFFFFFFFFFFFFFFFF DUP2 GT ISZERO PUSH2 0x890 JUMPI PUSH0 PUSH0 REVERT JUMPDEST PUSH2 0x89C DUP8 DUP3 DUP9 ADD PUSH2 0x7F4 JUMP JUMPDEST SWAP6 SWAP9 SWAP5 SWAP8 POP SWAP6 POP POP POP POP JUMP JUMPDEST PUSH0 PUSH1 0x20 DUP3 DUP5 SUB SLT ISZERO PUSH2 0x8B8 JUMPI PUSH0 PUSH0 REVERT JUMPDEST POP CALLDATALOAD SWAP2 SWAP1 POP JUMP JUMPDEST PUSH1 0x20 DUP2 MSTORE PUSH0 DUP3 MLOAD DUP1 PUSH1 0x20 DUP5 ADD MSTORE DUP1 PUSH1 0x20 DUP6 ADD PUSH1 0x40 DUP6 ADD MCOPY PUSH0 PUSH1 0x40 DUP3 DUP6 ADD ADD MSTORE PUSH1 0x40 PUSH1 0x1F NOT PUSH1 0x1F DUP4 ADD AND DUP5 ADD ADD SWAP2 POP POP SWAP3 SWAP2 POP POP JUMP JUMPDEST PUSH4 0x4E487B71 PUSH1 0xE0 SHL PUSH0 MSTORE PUSH1 0x41 PUSH1 0x4 MSTORE PUSH1 0x24 PUSH0 REVERT JUMPDEST PUSH0 PUSH0 PUSH1 0x40 DUP4 DUP6 SUB SLT ISZERO PUSH2 0x919 JUMPI PUSH0 PUSH0 REVERT JUMPDEST DUP3 CALLDATALOAD SWAP2 POP PUSH1 0x20 DUP4 ADD CALLDATALOAD PUSH8 0xFFFFFFFFFFFFFFFF DUP2 GT ISZERO PUSH2 0x936 JUMPI PUSH0 PUSH0 REVERT JUMPDEST DUP4 ADD PUSH1 0x1F DUP2 ADD DUP6 SGT PUSH2 0x946 JUMPI PUSH0 PUSH0 REVERT JUMPDEST DUP1 CALLDATALOAD PUSH8 0xFFFFFFFFFFFFFFFF DUP2 GT ISZERO PUSH2 0x960 JUMPI PUSH2 0x960 PUSH2 0x8F4 JUMP JUMPDEST PUSH1 0x40 MLOAD PUSH1 0x1F DUP3 ADD PUSH1 0x1F NOT SWAP1 DUP2 AND PUSH1 0x3F ADD AND DUP2 ADD PUSH8 0xFFFFFFFFFFFFFFFF DUP2 GT DUP3 DUP3 LT OR ISZERO PUSH2 0x98F JUMPI PUSH2 0x98F PUSH2 0x8F4 JUMP JUMPDEST PUSH1 0x40 MSTORE DUP2 DUP2 MSTORE DUP3 DUP3 ADD PUSH1 0x20 ADD DUP8 LT ISZERO PUSH2 0x9A6 JUMPI PUSH0 PUSH0 REVERT JUMPDEST DUP2 PUSH1 0x20 DUP5 ADD PUSH1 0x20 DUP4 ADD CALLDATACOPY PUSH0 PUSH1 0x20 DUP4 DUP4 ADD ADD MSTORE DUP1 SWAP4 POP POP POP POP SWAP3 POP SWAP3 SWAP1 POP JUMP JUMPDEST PUSH0 PUSH0 PUSH1 0x20 DUP4 DUP6 SUB SLT ISZERO PUSH2 0x9D6 JUMPI PUSH0 PUSH0 REVERT JUMPDEST DUP3 CALLDATALOAD PUSH8 0xFFFFFFFFFFFFFFFF DUP2 GT ISZERO PUSH2 0x9EC JUMPI PUSH0 PUSH0 REVERT JUMPDEST PUSH2 0x9F8 DUP6 DUP3 DUP7 ADD PUSH2 0x7F4 JUMP JUMPDEST SWAP1 SWAP7 SWAP1 SWAP6 POP SWAP4 POP POP POP POP JUMP JUMPDEST PUSH0 PUSH1 0x20 DUP3 DUP5 SUB SLT ISZERO PUSH2 0xA14 JUMPI PUSH0 PUSH0 REVERT JUMPDEST DUP2 CALLDATALOAD PUSH1 0x1 PUSH1 0x1 PUSH1 0xA0 SHL SUB DUP2 AND DUP2 EQ PUSH2 0xA2A JUMPI PUSH0 PUSH0 REVERT JUMPDEST SWAP4 SWAP3 POP POP POP JUMP JUMPDEST PUSH4 0x4E487B71 PUSH1 0xE0 SHL PUSH0 MSTORE PUSH1 0x32 PUSH1 0x4 MSTORE PUSH1 0x24 PUSH0 REVERT JUMPDEST PUSH0 PUSH0 DUP4 CALLDATALOAD PUSH1 0x1E NOT DUP5 CALLDATASIZE SUB ADD DUP2 SLT PUSH2 0xA5A JUMPI PUSH0 PUSH0 REVERT JUMPDEST DUP4 ADD DUP1 CALLDATALOAD SWAP2 POP PUSH8 0xFFFFFFFFFFFFFFFF DUP3 GT ISZERO PUSH2 0xA74 JUMPI PUSH0 PUSH0 REVERT JUMPDEST PUSH1 0x20 ADD SWAP2 POP CALLDATASIZE DUP2 SWAP1 SUB DUP3 SGT ISZERO PUSH2 0x835 JUMPI PUSH0 PUSH0 REVERT INVALID LOG2 PUSH5 0x6970667358 0x22 SLT KECCAK256 SGT CALLDATACOPY COINBASE 0xF6 NUMBER 0x2A EXTCALL RETURN 0xC2 SHL RETURNDATASIZE PREVRANDAO SAR PREVRANDAO GASPRICE SLT SWAP2 SHR MCOPY 0xFC PUSH23 0x4D5552D314772D14AE190664736F6C634300081E003300 "
				},
				"gasEstimates": {
					"creation": {
						"codeDepositCost": "550000",
						"executionCost": "26441",
						"totalCost": "576441"
					},
					"external": {
						"addAsset(uint256,bytes)": "infinite",
						"addAssetsBatch(uint256[],bytes[])": "infinite",
						"loadAssetDecompressed(uint256)": "infinite",
						"loadAssetOriginal(uint256)": "infinite",
						"owner()": "2321",
						"removeAsset(uint256)": "30088",
						"removeAssetsBatch(uint256[])": "infinite",
						"renounceOwnership()": "infinite",
						"transferOwnership(address)": "28382"
					},
					"internal": {
						"_loadAsset(uint256,bool)": "infinite"
					}
				},
				"methodIdentifiers": {
					"addAsset(uint256,bytes)": "749f1647",
					"addAssetsBatch(uint256[],bytes[])": "3e9e21fe",
					"loadAssetDecompressed(uint256)": "48b50a3e",
					"loadAssetOriginal(uint256)": "69dde379",
					"owner()": "8da5cb5b",
					"removeAsset(uint256)": "f14f58f1",
					"removeAssetsBatch(uint256[])": "ed6d374d",
					"renounceOwnership()": "715018a6",
					"transferOwnership(address)": "f2fde38b"
				}
			},
			"storageLayout": {
				"storage": [
					{
						"astId": 8,
						"contract": "src/Assets.sol:Assets",
						"label": "_owner",
						"offset": 0,
						"slot": "0",
						"type": "t_address"
					},
					{
						"astId": 196,
						"contract": "src/Assets.sol:Assets",
						"label": "_assetsMap",
						"offset": 0,
						"slot": "1",
						"type": "t_mapping(t_uint256,t_address)"
					}
				],
				"types": {
					"t_address": {
						"encoding": "inplace",
						"label": "address",
						"numberOfBytes": "20"
					},
					"t_mapping(t_uint256,t_address)": {
						"encoding": "mapping",
						"key": "t_uint256",
						"label": "mapping(uint256 => address)",
						"numberOfBytes": "32",
						"value": "t_address"
					},
					"t_uint256": {
						"encoding": "inplace",
						"label": "uint256",
						"numberOfBytes": "32"
					}
				}
			},
			"userdoc": {
				"kind": "user",
				"methods": {},
				"notice": "Efficient on-chain asset storage using SSTORE2 & LZ77 compression",
				"version": 1
			}
		}
	}
}