{
	"src/libraries/TraitsLoader.sol": {
		"TraitsLoader": {
			"abi": [
				{
					"inputs": [
						{
							"internalType": "uint256",
							"name": "_traitGroupsLength",
							"type": "uint256"
						}
					],
					"name": "initCachedTraitGroups",
					"outputs": [
						{
							"components": [
								{
									"components": [
										{
											"internalType": "uint256",
											"name": "traitGroupIndex",
											"type": "uint256"
										},
										{
											"internalType": "bytes",
											"name": "traitGroupName",
											"type": "bytes"
										},
										{
											"internalType": "uint32[]",
											"name": "paletteRgba",
											"type": "uint32[]"
										},
										{
											"components": [
												{
													"internalType": "bytes",
													"name": "traitName",
													"type": "bytes"
												},
												{
													"internalType": "uint8",
													"name": "layerType",
													"type": "uint8"
												},
												{
													"internalType": "uint8",
													"name": "x1",
													"type": "uint8"
												},
												{
													"internalType": "uint8",
													"name": "y1",
													"type": "uint8"
												},
												{
													"internalType": "uint8",
													"name": "x2",
													"type": "uint8"
												},
												{
													"internalType": "uint8",
													"name": "y2",
													"type": "uint8"
												},
												{
													"internalType": "bytes",
													"name": "traitData",
													"type": "bytes"
												}
											],
											"internalType": "struct TraitInfo[]",
											"name": "traits",
											"type": "tuple[]"
										},
										{
											"internalType": "uint8",
											"name": "paletteIndexByteSize",
											"type": "uint8"
										}
									],
									"internalType": "struct TraitGroup[]",
									"name": "traitGroups",
									"type": "tuple[]"
								},
								{
									"internalType": "bool[]",
									"name": "traitGroupsLoaded",
									"type": "bool[]"
								}
							],
							"internalType": "struct CachedTraitGroups",
							"name": "",
							"type": "tuple"
						}
					],
					"stateMutability": "pure",
					"type": "function"
				},
				{
					"inputs": [
						{
							"internalType": "contract IAssets",
							"name": "_assetsContract",
							"type": "IAssets"
						},
						{
							"components": [
								{
									"components": [
										{
											"internalType": "uint256",
											"name": "traitGroupIndex",
											"type": "uint256"
										},
										{
											"internalType": "bytes",
											"name": "traitGroupName",
											"type": "bytes"
										},
										{
											"internalType": "uint32[]",
											"name": "paletteRgba",
											"type": "uint32[]"
										},
										{
											"components": [
												{
													"internalType": "bytes",
													"name": "traitName",
													"type": "bytes"
												},
												{
													"internalType": "uint8",
													"name": "layerType",
													"type": "uint8"
												},
												{
													"internalType": "uint8",
													"name": "x1",
													"type": "uint8"
												},
												{
													"internalType": "uint8",
													"name": "y1",
													"type": "uint8"
												},
												{
													"internalType": "uint8",
													"name": "x2",
													"type": "uint8"
												},
												{
													"internalType": "uint8",
													"name": "y2",
													"type": "uint8"
												},
												{
													"internalType": "bytes",
													"name": "traitData",
													"type": "bytes"
												}
											],
											"internalType": "struct TraitInfo[]",
											"name": "traits",
											"type": "tuple[]"
										},
										{
											"internalType": "uint8",
											"name": "paletteIndexByteSize",
											"type": "uint8"
										}
									],
									"internalType": "struct TraitGroup[]",
									"name": "traitGroups",
									"type": "tuple[]"
								},
								{
									"internalType": "bool[]",
									"name": "traitGroupsLoaded",
									"type": "bool[]"
								}
							],
							"internalType": "struct CachedTraitGroups",
							"name": "_cachedTraitGroups",
							"type": "tuple"
						},
						{
							"internalType": "uint256",
							"name": "_traitGroupIndex",
							"type": "uint256"
						}
					],
					"name": "loadAndCacheTraitGroup",
					"outputs": [
						{
							"components": [
								{
									"internalType": "uint256",
									"name": "traitGroupIndex",
									"type": "uint256"
								},
								{
									"internalType": "bytes",
									"name": "traitGroupName",
									"type": "bytes"
								},
								{
									"internalType": "uint32[]",
									"name": "paletteRgba",
									"type": "uint32[]"
								},
								{
									"components": [
										{
											"internalType": "bytes",
											"name": "traitName",
											"type": "bytes"
										},
										{
											"internalType": "uint8",
											"name": "layerType",
											"type": "uint8"
										},
										{
											"internalType": "uint8",
											"name": "x1",
											"type": "uint8"
										},
										{
											"internalType": "uint8",
											"name": "y1",
											"type": "uint8"
										},
										{
											"internalType": "uint8",
											"name": "x2",
											"type": "uint8"
										},
										{
											"internalType": "uint8",
											"name": "y2",
											"type": "uint8"
										},
										{
											"internalType": "bytes",
											"name": "traitData",
											"type": "bytes"
										}
									],
									"internalType": "struct TraitInfo[]",
									"name": "traits",
									"type": "tuple[]"
								},
								{
									"internalType": "uint8",
									"name": "paletteIndexByteSize",
									"type": "uint8"
								}
							],
							"internalType": "struct TraitGroup",
							"name": "",
							"type": "tuple"
						}
					],
					"stateMutability": "view",
					"type": "function"
				}
			],
			"devdoc": {
				"kind": "dev",
				"methods": {},
				"version": 1
			},
			"evm": {
				"assembly": "    /* \"src/libraries/TraitsLoader.sol\":194:6160  library TraitsLoader {... */\n  0x80\n  dup1\n  0x40\n  mstore\n  jumpi(tag_1, callvalue)\n  dataSize(sub_0)\n  swap1\n  dup2\n  dataOffset(sub_0)\n  dup3\n  codecopy\n  address\n  dup2\n  assignImmutable(\"0xcd5a02d485074f67d63783a7acdae578618045c23ccf47fa4e3f1a01c11714ad\")\n  return\ntag_1:\n  0x00\n  dup1\n  revert\nstop\n\nsub_0: assembly {\n        /* \"src/libraries/TraitsLoader.sol\":194:6160  library TraitsLoader {... */\n      mstore(0x40, 0x80)\n      jumpi(tag_64, iszero(lt(calldatasize, 0x04)))\n      0x00\n      dup1\n      revert\n    tag_64:\n      shr(0xe0, calldataload(0x00))\n      dup1\n      0x68b0b907\n      eq\n      tag_66\n      jumpi\n      0xbbd33b62\n      eq\n      tag_68\n      jumpi\n      0x00\n      dup1\n      revert\n    tag_68:\n      tag_24\n      jump\t// in\n    tag_66:\n      jumpi(tag_70, slt(add(not(0x03), calldatasize), 0x20))\n      calldataload(0x04)\n      tag_73\n      mstore(0x40, 0xc0)\n      jump\n    tag_73:\n      mstore(0x80, 0x60)\n      mstore(0xa0, 0x60)\n      tag_74\n      dup2\n      tag_16\n      jump\t// in\n    tag_74:\n      tag_75\n      mload(0x40)\n      swap2\n      dup3\n      tag_12\n      jump\t// in\n    tag_75:\n      dup2\n      dup2\n      mstore\n      not(0x1f)\n      tag_76\n      dup4\n      tag_16\n      jump\t// in\n    tag_76:\n      add\n      0x00\n    tag_77:\n      dup2\n      dup2\n      lt\n      tag_78\n      jumpi\n      tag_80\n      dup4\n      dup6\n      tag_81\n      dup2\n      tag_16\n      jump\t// in\n    tag_81:\n      swap1\n      tag_82\n      mload(0x40)\n      swap3\n      dup4\n      tag_12\n      jump\t// in\n    tag_82:\n      dup1\n      dup3\n      mstore\n      tag_83\n      not(0x1f)\n      swap2\n      tag_16\n      jump\t// in\n    tag_83:\n      add\n      calldatasize\n      0x20\n      dup4\n      add\n      calldatacopy\n      tag_84\n      tag_13\n      jump\t// in\n    tag_84:\n      swap2\n      dup3\n      mstore\n      0x20\n        /* \"src/libraries/TraitsLoader.sol\":341:499  CachedTraitGroups({ ... */\n      dup3\n      add\n        /* \"src/libraries/TraitsLoader.sol\":194:6160  library TraitsLoader {... */\n      mstore\n      mload(0x40)\n      swap2\n      dup3\n      swap2\n      dup3\n      tag_7\n      jump\t// in\n    tag_80:\n      sub\n      swap1\n      return\n    tag_78:\n      0x20\n      swap1\n      tag_85\n      tag_25\n      jump\t// in\n    tag_85:\n      dup3\n      dup3\n      dup7\n      add\n      add\n      mstore\n      add\n      jump(tag_77)\n    tag_70:\n      0x00\n      dup1\n      revert\n    tag_3:\n      dup1\n      mload\n      dup1\n      dup4\n      mstore\n      0x20\n      swap3\n      swap2\n      dup2\n      swap1\n      dup5\n      add\n      dup5\n      dup5\n      add\n      mcopy\n      0x00\n      dup3\n      dup3\n      add\n      dup5\n      add\n      mstore\n      0x1f\n      add\n      not(0x1f)\n      and\n      add\n      add\n      swap1\n      jump\t// out\n    tag_5:\n      swap1\n      dup1\n      0x20\n      dup4\n      mload\n      swap2\n      dup3\n      dup2\n      mstore\n      add\n      swap2\n      0x20\n      dup1\n      dup4\n      0x05\n      shl\n      dup4\n      add\n      add\n      swap5\n      add\n      swap3\n      0x00\n      swap2\n    tag_86:\n      dup4\n      dup4\n      lt\n      tag_87\n      jumpi\n      pop\n      pop\n      pop\n      pop\n      pop\n      swap1\n      jump\t// out\n    tag_87:\n      swap1\n      swap2\n      swap3\n      swap4\n      swap5\n      0x20\n      dup1\n      tag_89\n      0x01\n      swap4\n      not(0x1f)\n      dup7\n      dup3\n      sub\n      add\n      dup8\n      mstore\n      dup10\n      mload\n      swap1\n      0xc0\n      tag_90\n      dup4\n      mload\n      0xe0\n      dup5\n      mstore\n      0xe0\n      dup5\n      add\n      swap1\n      tag_3\n      jump\t// in\n    tag_90:\n      swap3\n      0xff\n      dup7\n      dup3\n      add\n      mload\n      and\n      dup7\n      dup5\n      add\n      mstore\n      0xff\n      0x40\n      dup3\n      add\n      mload\n      and\n      0x40\n      dup5\n      add\n      mstore\n      0xff\n      0x60\n      dup3\n      add\n      mload\n      and\n      0x60\n      dup5\n      add\n      mstore\n      tag_91\n      0x80\n      dup3\n      add\n      mload\n      0x80\n      dup6\n      add\n      swap1\n      0xff\n      and\n      swap1\n      mstore\n      jump\n    tag_91:\n      0xa0\n      dup2\n      dup2\n      add\n      mload\n      0xff\n      and\n      swap1\n      dup5\n      add\n      mstore\n      add\n      mload\n      swap1\n      0xc0\n      dup2\n      dup5\n      sub\n      swap2\n      add\n      mstore\n      tag_3\n      jump\t// in\n    tag_89:\n      swap8\n      add\n      swap4\n      add\n      swap4\n      add\n      swap2\n      swap4\n      swap3\n      swap1\n      jump(tag_86)\n    tag_6:\n      swap1\n      dup2\n      mload\n      dup2\n      mstore\n      tag_93\n      0x20\n      dup4\n      add\n      mload\n      0xa0\n      0x20\n      dup5\n      add\n      mstore\n      0xa0\n      dup4\n      add\n      swap1\n      tag_3\n      jump\t// in\n    tag_93:\n      0x40\n      dup4\n      add\n      mload\n      swap1\n      dup3\n      dup2\n      sub\n      0x40\n      dup5\n      add\n      mstore\n      0x20\n      dup1\n      dup4\n      mload\n      swap3\n      dup4\n      dup2\n      mstore\n      add\n      swap3\n      add\n      swap1\n      0x00\n    tag_94:\n      dup2\n      dup2\n      lt\n      tag_95\n      jumpi\n      pop\n      pop\n      pop\n      swap1\n      0x80\n      dup1\n      tag_97\n      tag_98\n      swap5\n      0x60\n      dup8\n      add\n      mload\n      dup6\n      dup3\n      sub\n      0x60\n      dup8\n      add\n      mstore\n      tag_5\n      jump\t// in\n    tag_97:\n      swap5\n      add\n      mload\n      0xff\n      and\n      swap2\n      add\n      mstore\n      jump\n    tag_98:\n      swap1\n      jump\t// out\n    tag_95:\n      dup3\n      mload\n      0xffffffff\n      and\n      dup5\n      mstore\n      0x20\n      swap4\n      dup5\n      add\n      swap4\n      swap1\n      swap3\n      add\n      swap2\n      0x01\n      add\n      jump(tag_94)\n    tag_7:\n      swap1\n      0x20\n      dup3\n      mstore\n      0x60\n      dup3\n      add\n      swap1\n      dup1\n      mload\n      swap2\n      0x40\n      0x20\n      dup6\n      add\n      mstore\n      dup3\n      mload\n      dup1\n      swap2\n      mstore\n      0x80\n      dup5\n      add\n      swap1\n      0x20\n      0x80\n      dup3\n      0x05\n      shl\n      dup8\n      add\n      add\n      swap5\n      add\n      swap2\n      0x00\n      swap1\n    tag_99:\n      dup3\n      dup3\n      lt\n      tag_100\n      jumpi\n      pop\n      pop\n      pop\n      pop\n      0x20\n      add\n      mload\n      swap2\n      0x40\n      not(0x1f)\n      dup3\n      dup5\n      sub\n      add\n      swap2\n      add\n      mstore\n      0x20\n      dup1\n      dup4\n      mload\n      swap3\n      dup4\n      dup2\n      mstore\n      add\n      swap3\n      add\n      swap1\n      0x00\n    tag_102:\n      dup2\n      dup2\n      lt\n      tag_103\n      jumpi\n      pop\n      pop\n      pop\n      swap1\n      jump\t// out\n    tag_103:\n      dup3\n      mload\n      iszero\n      iszero\n      dup5\n      mstore\n      0x20\n      swap4\n      dup5\n      add\n      swap4\n      swap1\n      swap3\n      add\n      swap2\n      0x01\n      add\n      jump(tag_102)\n    tag_100:\n      swap1\n      swap2\n      swap3\n      swap5\n      0x20\n      dup1\n      tag_105\n      0x01\n      swap4\n      not(0x7f)\n      dup12\n      dup3\n      sub\n      add\n      dup7\n      mstore\n      dup10\n      mload\n      tag_6\n      jump\t// in\n    tag_105:\n      swap8\n      add\n      swap3\n      add\n      swap3\n      add\n      swap1\n      swap3\n      swap2\n      jump(tag_99)\n    tag_8:\n      mstore(0x00, shl(0xe0, 0x4e487b71))\n      mstore(0x04, 0x41)\n      revert(0x00, 0x24)\n    tag_10:\n      0x40\n      dup2\n      add\n      swap1\n      dup2\n      lt\n      sub(shl(0x40, 0x01), 0x01)\n      dup3\n      gt\n      or\n      tag_106\n      jumpi\n      0x40\n      mstore\n      jump\t// out\n    tag_106:\n      tag_8\n      jump\t// in\n    tag_11:\n      0xe0\n      dup2\n      add\n      swap1\n      dup2\n      lt\n      sub(shl(0x40, 0x01), 0x01)\n      dup3\n      gt\n      or\n      tag_106\n      jumpi\n      0x40\n      mstore\n      jump\t// out\n    tag_12:\n      swap1\n      0x1f\n      dup1\n      not\n      swap2\n      add\n      and\n      dup2\n      add\n      swap1\n      dup2\n      lt\n      sub(shl(0x40, 0x01), 0x01)\n      dup3\n      gt\n      or\n      tag_106\n      jumpi\n      0x40\n      mstore\n      jump\t// out\n    tag_13:\n      mload(0x40)\n      swap1\n      tag_112\n      0x40\n      dup4\n      tag_12\n      jump\t// in\n    tag_112:\n      jump\t// out\n    tag_14:\n      mload(0x40)\n      swap1\n      tag_112\n      0xe0\n      dup4\n      tag_12\n      jump\t// in\n    tag_15:\n      mload(0x40)\n      swap1\n      tag_112\n      0xa0\n      dup4\n      tag_12\n      jump\t// in\n    tag_16:\n      sub(shl(0x40, 0x01), 0x01)\n      dup2\n      gt\n      tag_106\n      jumpi\n      0x05\n      shl\n      0x20\n      add\n      swap1\n      jump\t// out\n    tag_17:\n      sub(shl(0x40, 0x01), 0x01)\n      dup2\n      gt\n      tag_106\n      jumpi\n      0x1f\n      add\n      not(0x1f)\n      and\n      0x20\n      add\n      swap1\n      jump\t// out\n    tag_18:\n      dup2\n      0x1f\n      dup3\n      add\n      slt\n      iszero\n      tag_70\n      jumpi\n      dup1\n      calldataload\n      swap1\n      tag_121\n      dup3\n      tag_17\n      jump\t// in\n    tag_121:\n      swap3\n      tag_122\n      mload(0x40)\n      swap5\n      dup6\n      tag_12\n      jump\t// in\n    tag_122:\n      dup3\n      dup5\n      mstore\n      0x20\n      dup4\n      dup4\n      add\n      add\n      gt\n      tag_70\n      jumpi\n      dup2\n      0x00\n      swap3\n      0x20\n      dup1\n      swap4\n      add\n      dup4\n      dup7\n      add\n      calldatacopy\n      dup4\n      add\n      add\n      mstore\n      swap1\n      jump\t// out\n    tag_19:\n      swap1\n      dup1\n      0x1f\n      dup4\n      add\n      slt\n      iszero\n      tag_70\n      jumpi\n      dup2\n      calldataload\n      swap1\n      tag_127\n      dup3\n      tag_16\n      jump\t// in\n    tag_127:\n      swap3\n      tag_128\n      mload(0x40)\n      swap5\n      dup6\n      tag_12\n      jump\t// in\n    tag_128:\n      dup3\n      dup5\n      mstore\n      0x20\n      dup1\n      dup6\n      add\n      swap4\n      0x05\n      shl\n      dup3\n      add\n      add\n      swap2\n      dup3\n      gt\n      tag_70\n      jumpi\n      0x20\n      add\n      swap2\n    tag_131:\n      dup2\n      dup4\n      lt\n      tag_132\n      jumpi\n      pop\n      pop\n      pop\n      swap1\n      jump\t// out\n    tag_132:\n      dup3\n      calldataload\n      0xffffffff\n      dup2\n      and\n      dup2\n      sub\n      tag_70\n      jumpi\n      dup2\n      mstore\n      0x20\n      swap3\n      dup4\n      add\n      swap3\n      add\n      jump(tag_131)\n    tag_20:\n      calldataload\n      swap1\n      0xff\n      dup3\n      and\n      dup3\n      sub\n      tag_70\n      jumpi\n      jump\t// out\n    tag_21:\n      swap1\n      dup1\n      0x1f\n      dup4\n      add\n      slt\n      iszero\n      tag_70\n      jumpi\n      dup2\n      calldataload\n      swap2\n      tag_140\n      dup4\n      tag_16\n      jump\t// in\n    tag_140:\n      swap3\n      tag_141\n      mload(0x40)\n      swap5\n      dup6\n      tag_12\n      jump\t// in\n    tag_141:\n      dup1\n      dup5\n      mstore\n      0x20\n      dup1\n      dup6\n      add\n      swap2\n      0x05\n      shl\n      dup4\n      add\n      add\n      swap2\n      dup4\n      dup4\n      gt\n      tag_70\n      jumpi\n      0x20\n      dup2\n      add\n      swap2\n    tag_144:\n      dup4\n      dup4\n      lt\n      tag_145\n      jumpi\n      pop\n      pop\n      pop\n      pop\n      pop\n      swap1\n      jump\t// out\n    tag_145:\n      dup3\n      calldataload\n      sub(shl(0x40, 0x01), 0x01)\n      dup2\n      gt\n      tag_70\n      jumpi\n      dup3\n      add\n      swap1\n      0xe0\n      dup3\n      dup8\n      sub\n      not(0x1f)\n      add\n      slt\n      tag_70\n      jumpi\n      tag_151\n      tag_14\n      jump\t// in\n    tag_151:\n      swap1\n      0x20\n      dup4\n      add\n      calldataload\n      sub(shl(0x40, 0x01), 0x01)\n      dup2\n      gt\n      tag_70\n      jumpi\n      dup8\n      0x20\n      tag_154\n      swap3\n      dup7\n      add\n      add\n      tag_18\n      jump\t// in\n    tag_154:\n      dup3\n      mstore\n      tag_155\n      0x40\n      dup5\n      add\n      tag_20\n      jump\t// in\n    tag_155:\n      0x20\n      dup4\n      add\n      mstore\n      tag_156\n      0x60\n      dup5\n      add\n      tag_20\n      jump\t// in\n    tag_156:\n      0x40\n      dup4\n      add\n      mstore\n      tag_157\n      0x80\n      dup5\n      add\n      tag_20\n      jump\t// in\n    tag_157:\n      0x60\n      dup4\n      add\n      mstore\n      tag_158\n      0xa0\n      dup5\n      add\n      tag_20\n      jump\t// in\n    tag_158:\n      0x80\n      dup4\n      add\n      mstore\n      tag_159\n      0xc0\n      dup5\n      add\n      tag_20\n      jump\t// in\n    tag_159:\n      0xa0\n      dup4\n      add\n      mstore\n      0xe0\n      dup4\n      add\n      calldataload\n      swap2\n      sub(shl(0x40, 0x01), 0x01)\n      dup4\n      gt\n      tag_70\n      jumpi\n      tag_162\n      dup9\n      0x20\n      dup1\n      swap7\n      swap6\n      dup2\n      swap7\n      add\n      add\n      tag_18\n      jump\t// in\n    tag_162:\n      0xc0\n      dup3\n      add\n      mstore\n      dup2\n      mstore\n      add\n      swap3\n      add\n      swap2\n      jump(tag_144)\n    tag_22:\n      swap1\n      dup1\n      0x1f\n      dup4\n      add\n      slt\n      iszero\n      tag_70\n      jumpi\n      dup2\n      calldataload\n      swap1\n      tag_165\n      dup3\n      tag_16\n      jump\t// in\n    tag_165:\n      swap3\n      tag_166\n      mload(0x40)\n      swap5\n      dup6\n      tag_12\n      jump\t// in\n    tag_166:\n      dup3\n      dup5\n      mstore\n      0x20\n      dup1\n      dup6\n      add\n      swap4\n      0x05\n      shl\n      dup3\n      add\n      add\n      swap2\n      dup3\n      gt\n      tag_70\n      jumpi\n      0x20\n      add\n      swap2\n    tag_169:\n      dup2\n      dup4\n      lt\n      tag_170\n      jumpi\n      pop\n      pop\n      pop\n      swap1\n      jump\t// out\n    tag_170:\n      dup3\n      calldataload\n      dup1\n      iszero\n      iszero\n      dup2\n      sub\n      tag_70\n      jumpi\n      dup2\n      mstore\n      0x20\n      swap3\n      dup4\n      add\n      swap3\n      add\n      jump(tag_169)\n    tag_23:\n      swap1\n      0x20\n      tag_98\n      swap3\n      dup2\n      dup2\n      mstore\n      add\n      swap1\n      tag_6\n      jump\t// in\n    tag_24:\n      jumpi(tag_70, slt(add(not(0x03), calldatasize), 0x60))\n      calldataload(0x04)\n      sub(shl(0xa0, 0x01), 0x01)\n      dup2\n      and\n      dup2\n      sub\n      tag_70\n      jumpi\n      calldataload(0x24)\n      sub(shl(0x40, 0x01), 0x01)\n      dup2\n      gt\n      tag_70\n      jumpi\n      0x40\n      not(0x03)\n      dup3\n      calldatasize\n      sub\n      add\n      slt\n      tag_70\n      jumpi\n      mload(0x40)\n      swap2\n      tag_183\n      dup4\n      tag_10\n      jump\t// in\n    tag_183:\n      dup2\n      0x04\n      add\n      calldataload\n      sub(shl(0x40, 0x01), 0x01)\n      dup2\n      gt\n      tag_70\n      jumpi\n      dup3\n      add\n      calldatasize\n      0x23\n      dup3\n      add\n      slt\n      iszero\n      tag_70\n      jumpi\n      0x04\n      dup2\n      add\n      calldataload\n      tag_188\n      dup2\n      tag_16\n      jump\t// in\n    tag_188:\n      swap2\n      tag_189\n      mload(0x40)\n      swap4\n      dup5\n      tag_12\n      jump\t// in\n    tag_189:\n      dup2\n      dup4\n      mstore\n      0x20\n      0x04\n      dup2\n      dup6\n      add\n      swap4\n      0x05\n      shl\n      dup4\n      add\n      add\n      add\n      swap1\n      calldatasize\n      dup3\n      gt\n      tag_70\n      jumpi\n      0x24\n      dup2\n      add\n      swap3\n    tag_192:\n      dup3\n      dup5\n      lt\n      tag_193\n      jumpi\n      pop\n      pop\n      pop\n      pop\n      dup4\n      mstore\n      0x24\n      dup3\n      add\n      calldataload\n      swap3\n      sub(shl(0x40, 0x01), 0x01)\n      dup5\n      gt\n      tag_70\n      jumpi\n      tag_197\n      tag_198\n      swap4\n      0x04\n      tag_80\n      swap7\n      calldatasize\n      swap3\n      add\n      add\n      tag_22\n      jump\t// in\n    tag_197:\n      0x20\n      dup3\n      add\n      mstore\n      calldataload(0x44)\n      swap2\n      tag_55\n      jump\t// in\n    tag_198:\n      mload(0x40)\n      swap2\n      dup3\n      swap2\n      dup3\n      tag_23\n      jump\t// in\n    tag_193:\n      dup4\n      calldataload\n      sub(shl(0x40, 0x01), 0x01)\n      dup2\n      gt\n      tag_70\n      jumpi\n      0x04\n      swap1\n      dup4\n      add\n      add\n      swap1\n      0xa0\n      not(0x1f)\n      dup4\n      calldatasize\n      sub\n      add\n      slt\n      tag_70\n      jumpi\n      tag_205\n      tag_15\n      jump\t// in\n    tag_205:\n      swap1\n      0x20\n      dup4\n      add\n      calldataload\n      dup3\n      mstore\n      0x40\n      dup4\n      add\n      calldataload\n      sub(shl(0x40, 0x01), 0x01)\n      dup2\n      gt\n      tag_70\n      jumpi\n      tag_208\n      swap1\n      0x20\n      calldatasize\n      swap2\n      dup7\n      add\n      add\n      tag_18\n      jump\t// in\n    tag_208:\n      0x20\n      dup4\n      add\n      mstore\n      0x60\n      dup4\n      add\n      calldataload\n      sub(shl(0x40, 0x01), 0x01)\n      dup2\n      gt\n      tag_70\n      jumpi\n      tag_211\n      swap1\n      0x20\n      calldatasize\n      swap2\n      dup7\n      add\n      add\n      tag_19\n      jump\t// in\n    tag_211:\n      0x40\n      dup4\n      add\n      mstore\n      0x80\n      dup4\n      add\n      calldataload\n      swap2\n      sub(shl(0x40, 0x01), 0x01)\n      dup4\n      gt\n      tag_70\n      jumpi\n      tag_214\n      0xa0\n      0x20\n      swap6\n      tag_215\n      dup8\n      swap7\n      dup8\n      calldatasize\n      swap2\n      dup5\n      add\n      add\n      tag_21\n      jump\t// in\n    tag_215:\n      0x60\n      dup6\n      add\n      mstore\n      add\n      tag_20\n      jump\t// in\n    tag_214:\n      0x80\n      dup3\n      add\n      mstore\n      dup2\n      mstore\n      add\n      swap4\n      add\n      swap3\n      jump(tag_192)\n    tag_25:\n      mload(0x40)\n      swap1\n      0xa0\n      dup3\n      add\n      dup3\n      dup2\n      lt\n      sub(shl(0x40, 0x01), 0x01)\n      dup3\n      gt\n      or\n      tag_106\n      jumpi\n      0x40\n      mstore\n      0x00\n      0x80\n      dup4\n      dup3\n      dup2\n      mstore\n      0x60\n      0x20\n      dup3\n      add\n      mstore\n      0x60\n      0x40\n      dup3\n      add\n      mstore\n      0x60\n      dup1\n      dup3\n      add\n      mstore\n      add\n      mstore\n      jump\t// out\n    tag_26:\n      mstore(0x00, shl(0xe0, 0x4e487b71))\n      mstore(0x04, 0x32)\n      revert(0x00, 0x24)\n    tag_27:\n      dup1\n      mload\n      dup3\n      lt\n      iszero\n      tag_218\n      jumpi\n      0x20\n      swap2\n      0x05\n      shl\n      add\n      add\n      swap1\n      jump\t// out\n    tag_218:\n      tag_26\n      jump\t// in\n    tag_29:\n      0x20\n      dup2\n      dup4\n      sub\n      slt\n      tag_70\n      jumpi\n      dup1\n      mload\n      swap1\n      sub(shl(0x40, 0x01), 0x01)\n      dup3\n      gt\n      tag_70\n      jumpi\n      add\n      dup2\n      0x1f\n      dup3\n      add\n      slt\n      iszero\n      tag_70\n      jumpi\n      dup1\n      mload\n      swap1\n      tag_226\n      dup3\n      tag_17\n      jump\t// in\n    tag_226:\n      swap3\n      tag_227\n      mload(0x40)\n      swap5\n      dup6\n      tag_12\n      jump\t// in\n    tag_227:\n      dup3\n      dup5\n      mstore\n      0x20\n      dup4\n      dup4\n      add\n      add\n      gt\n      tag_70\n      jumpi\n      dup2\n      0x00\n      swap3\n      0x20\n      dup1\n      swap4\n      add\n      dup4\n      dup7\n      add\n      mcopy\n      dup4\n      add\n      add\n      mstore\n      swap1\n      jump\t// out\n    tag_31:\n      mload(0x40)\n      returndatasize\n      0x00\n      dup3\n      returndatacopy\n      returndatasize\n      swap1\n      revert\n    tag_32:\n      mstore(0x00, shl(0xe0, 0x4e487b71))\n      mstore(0x04, 0x11)\n      revert(0x00, 0x24)\n    tag_33:\n        /* \"src/libraries/TraitsLoader.sol\":1243:1244  1 */\n      0x01\n        /* \"src/libraries/TraitsLoader.sol\":194:6160  library TraitsLoader {... */\n      add\n      swap1\n      dup2\n        /* \"src/libraries/TraitsLoader.sol\":1243:1244  1 */\n      0x01\n        /* \"src/libraries/TraitsLoader.sol\":194:6160  library TraitsLoader {... */\n      gt\n      tag_230\n      jumpi\n      jump\t// out\n    tag_230:\n      tag_32\n      jump\t// in\n    tag_34:\n      swap1\n        /* \"src/libraries/TraitsLoader.sol\":1243:1244  1 */\n      0x01\n        /* \"src/libraries/TraitsLoader.sol\":194:6160  library TraitsLoader {... */\n      dup3\n      add\n      dup1\n      swap3\n      gt\n      tag_230\n      jumpi\n      jump\t// out\n    tag_35:\n      swap1\n        /* \"src/libraries/TraitsLoader.sol\":2216:2217  2 */\n      0x02\n        /* \"src/libraries/TraitsLoader.sol\":194:6160  library TraitsLoader {... */\n      dup3\n      add\n      dup1\n      swap3\n      gt\n      tag_230\n      jumpi\n      jump\t// out\n    tag_36:\n      swap1\n        /* \"src/libraries/TraitsLoader.sol\":2273:2274  3 */\n      0x03\n        /* \"src/libraries/TraitsLoader.sol\":194:6160  library TraitsLoader {... */\n      dup3\n      add\n      dup1\n      swap3\n      gt\n      tag_230\n      jumpi\n      jump\t// out\n    tag_37:\n      swap1\n        /* \"src/libraries/TraitsLoader.sol\":1016:1071  _assetsContract.loadAssetDecompressed(_traitGroupIndex) */\n      0x04\n        /* \"src/libraries/TraitsLoader.sol\":194:6160  library TraitsLoader {... */\n      dup3\n      add\n      dup1\n      swap3\n      gt\n      tag_230\n      jumpi\n      jump\t// out\n    tag_38:\n      swap1\n        /* \"src/libraries/TraitsLoader.sol\":2387:2388  5 */\n      0x05\n        /* \"src/libraries/TraitsLoader.sol\":194:6160  library TraitsLoader {... */\n      dup3\n      add\n      dup1\n      swap3\n      gt\n      tag_230\n      jumpi\n      jump\t// out\n    tag_39:\n      swap1\n        /* \"src/libraries/TraitsLoader.sol\":2451:2452  6 */\n      0x06\n        /* \"src/libraries/TraitsLoader.sol\":194:6160  library TraitsLoader {... */\n      dup3\n      add\n      dup1\n      swap3\n      gt\n      tag_230\n      jumpi\n      jump\t// out\n    tag_40:\n      swap1\n        /* \"src/libraries/TraitsLoader.sol\":2521:2522  7 */\n      0x07\n        /* \"src/libraries/TraitsLoader.sol\":194:6160  library TraitsLoader {... */\n      dup3\n      add\n      dup1\n      swap3\n      gt\n      tag_230\n      jumpi\n      jump\t// out\n    tag_41:\n      swap1\n        /* \"src/libraries/TraitsLoader.sol\":2105:2106  8 */\n      0x08\n        /* \"src/libraries/TraitsLoader.sol\":194:6160  library TraitsLoader {... */\n      dup3\n      add\n      dup1\n      swap3\n      gt\n      tag_230\n      jumpi\n      jump\t// out\n    tag_42:\n      swap2\n      swap1\n      dup3\n      add\n      dup1\n      swap3\n      gt\n      tag_230\n      jumpi\n      jump\t// out\n    tag_43:\n      swap1\n      dup2\n      mload\n      dup2\n      lt\n      iszero\n      tag_218\n      jumpi\n      add\n      0x20\n      add\n      swap1\n      jump\t// out\n    tag_47:\n      not(0x00)\n      dup2\n      eq\n      tag_230\n      jumpi\n      0x01\n      add\n      swap1\n      jump\t// out\n    tag_48:\n      swap1\n      tag_254\n      dup3\n      tag_16\n      jump\t// in\n    tag_254:\n      tag_255\n      mload(0x40)\n      swap2\n      dup3\n      tag_12\n      jump\t// in\n    tag_255:\n      dup3\n      dup2\n      mstore\n      dup1\n      swap3\n      tag_256\n      not(0x1f)\n      swap2\n      tag_16\n      jump\t// in\n    tag_256:\n      add\n      swap1\n      0x00\n    tag_257:\n      dup3\n      dup2\n      lt\n      tag_258\n      jumpi\n      pop\n      pop\n      pop\n      jump\t// out\n    tag_258:\n      0x20\n      swap1\n      mload(0x40)\n      tag_260\n      dup2\n      tag_11\n      jump\t// in\n    tag_260:\n      0x60\n      dup2\n      mstore\n      0x00\n      dup4\n      dup3\n      add\n      mstore\n      0x00\n      0x40\n      dup3\n      add\n      mstore\n      0x00\n      0x60\n      dup3\n      add\n      mstore\n      0x00\n      0x80\n      dup3\n      add\n      mstore\n      0x00\n      0xa0\n      dup3\n      add\n      mstore\n      0x60\n      0xc0\n      dup3\n      add\n      mstore\n      dup3\n      dup3\n      dup6\n      add\n      add\n      mstore\n      add\n      jump(tag_257)\n    tag_51:\n      swap1\n      tag_261\n      dup3\n      tag_17\n      jump\t// in\n    tag_261:\n      tag_262\n      mload(0x40)\n      swap2\n      dup3\n      tag_12\n      jump\t// in\n    tag_262:\n      dup3\n      dup2\n      mstore\n      dup1\n      swap3\n      tag_263\n      not(0x1f)\n      swap2\n      tag_17\n      jump\t// in\n    tag_263:\n      add\n      swap1\n      0x20\n      calldatasize\n      swap2\n      add\n      calldatacopy\n      jump\t// out\n    tag_53:\n      swap2\n      swap1\n      dup3\n      sub\n      swap2\n      dup3\n      gt\n      tag_230\n      jumpi\n      jump\t// out\n        /* \"src/libraries/TraitsLoader.sol\":512:4054  function loadAndCacheTraitGroup(IAssets _assetsContract, CachedTraitGroups memory _cachedTraitGroups, uint _traitGroupIndex) public view returns (TraitGroup memory) {... */\n    tag_55:\n      swap2\n      swap1\n        /* \"src/libraries/TraitsLoader.sol\":194:6160  library TraitsLoader {... */\n      tag_266\n      tag_25\n      jump\t// in\n    tag_266:\n        /* \"src/libraries/TraitsLoader.sol\":691:727  _cachedTraitGroups.traitGroupsLoaded */\n      pop\n      0x20\n      dup2\n      add\n      swap1\n        /* \"src/libraries/TraitsLoader.sol\":691:745  _cachedTraitGroups.traitGroupsLoaded[_traitGroupIndex] */\n      tag_267\n      tag_268\n        /* \"src/libraries/TraitsLoader.sol\":691:727  _cachedTraitGroups.traitGroupsLoaded */\n      dup5\n      dup5\n      mload\n        /* \"src/libraries/TraitsLoader.sol\":691:745  _cachedTraitGroups.traitGroupsLoaded[_traitGroupIndex] */\n      tag_27\n      jump\t// in\n    tag_268:\n        /* \"src/libraries/TraitsLoader.sol\":194:6160  library TraitsLoader {... */\n      mload\n      iszero\n      iszero\n      swap1\n      jump\n        /* \"src/libraries/TraitsLoader.sol\":691:745  _cachedTraitGroups.traitGroupsLoaded[_traitGroupIndex] */\n    tag_267:\n        /* \"src/libraries/TraitsLoader.sol\":687:827  if (_cachedTraitGroups.traitGroupsLoaded[_traitGroupIndex]) {... */\n      tag_269\n      jumpi\n        /* \"src/libraries/TraitsLoader.sol\":194:6160  library TraitsLoader {... */\n      tag_271\n      tag_25\n      jump\t// in\n    tag_271:\n      dup4\n      dup2\n      mstore\n      mload(0x40)\n      shl(0xe1, 0x245a851f)\n        /* \"src/libraries/TraitsLoader.sol\":1016:1071  _assetsContract.loadAssetDecompressed(_traitGroupIndex) */\n      dup2\n      mstore\n      0x04\n      dup2\n      add\n        /* \"src/libraries/TraitsLoader.sol\":194:6160  library TraitsLoader {... */\n      dup6\n      swap1\n      mstore\n      swap1\n      swap5\n      0x00\n      swap1\n      dup3\n      swap1\n      0x24\n      swap1\n      dup3\n      swap1\n      sub(shl(0xa0, 0x01), 0x01)\n      and\n        /* \"src/libraries/TraitsLoader.sol\":1016:1071  _assetsContract.loadAssetDecompressed(_traitGroupIndex) */\n      gas\n      staticcall\n      swap1\n      dup2\n      iszero\n      tag_273\n      jumpi\n      0x00\n      swap2\n      tag_275\n      jumpi\n        /* \"src/libraries/TraitsLoader.sol\":512:4054  function loadAndCacheTraitGroup(IAssets _assetsContract, CachedTraitGroups memory _cachedTraitGroups, uint _traitGroupIndex) public view returns (TraitGroup memory) {... */\n    tag_276:\n        /* \"src/libraries/TraitsLoader.sol\":1090:1104  uint index = 0 */\n      pop\n        /* \"src/libraries/TraitsLoader.sol\":1459:1506  _decodeTraitGroupPalette(traitGroupData, index) */\n      tag_277\n        /* \"src/libraries/TraitsLoader.sol\":1243:1279  1 + traitGroup.traitGroupName.length */\n      tag_278\n        /* \"src/libraries/TraitsLoader.sol\":1180:1224  _decodeTraitGroupName(traitGroupData, index) */\n      tag_279\n      dup4\n      tag_56\n      jump\t// in\n    tag_279:\n        /* \"src/libraries/TraitsLoader.sol\":1152:1177  traitGroup.traitGroupName */\n      dup1\n        /* \"src/libraries/TraitsLoader.sol\":691:727  _cachedTraitGroups.traitGroupsLoaded */\n      0x20\n        /* \"src/libraries/TraitsLoader.sol\":1152:1177  traitGroup.traitGroupName */\n      dup10\n      add\n        /* \"src/libraries/TraitsLoader.sol\":1152:1224  traitGroup.traitGroupName = _decodeTraitGroupName(traitGroupData, index) */\n      mstore\n        /* \"src/libraries/TraitsLoader.sol\":194:6160  library TraitsLoader {... */\n      mload\n        /* \"src/libraries/TraitsLoader.sol\":1243:1279  1 + traitGroup.traitGroupName.length */\n      tag_33\n      jump\t// in\n    tag_278:\n        /* \"src/libraries/TraitsLoader.sol\":1459:1506  _decodeTraitGroupPalette(traitGroupData, index) */\n      dup3\n      tag_62\n      jump\t// in\n    tag_277:\n        /* \"src/libraries/TraitsLoader.sol\":1426:1448  traitGroup.paletteRgba */\n      swap2\n      swap1\n        /* \"src/libraries/TraitsLoader.sol\":194:6160  library TraitsLoader {... */\n      0x40\n        /* \"src/libraries/TraitsLoader.sol\":1426:1448  traitGroup.paletteRgba */\n      dup8\n      add\n        /* \"src/libraries/TraitsLoader.sol\":1425:1506  (traitGroup.paletteRgba, index) = _decodeTraitGroupPalette(traitGroupData, index) */\n      mstore\n        /* \"src/libraries/TraitsLoader.sol\":1673:1680  index++ */\n      tag_280\n        /* \"src/libraries/TraitsLoader.sol\":1571:1599  uint8(traitGroupData[index]) */\n      tag_281\n        /* \"src/libraries/TraitsLoader.sol\":1577:1598  traitGroupData[index] */\n      tag_282\n      tag_283\n      dup6\n      dup6\n      tag_43\n      jump\t// in\n    tag_283:\n        /* \"src/libraries/TraitsLoader.sol\":194:6160  library TraitsLoader {... */\n      mload\n      not(sub(shl(0xf8, 0x01), 0x01))\n      and\n      swap1\n      jump\n        /* \"src/libraries/TraitsLoader.sol\":1577:1598  traitGroupData[index] */\n    tag_282:\n        /* \"src/libraries/TraitsLoader.sol\":194:6160  library TraitsLoader {... */\n      0xf8\n      shr\n      swap1\n      jump\n        /* \"src/libraries/TraitsLoader.sol\":1571:1599  uint8(traitGroupData[index]) */\n    tag_281:\n        /* \"src/libraries/TraitsLoader.sol\":194:6160  library TraitsLoader {... */\n      0xff\n      dup2\n      and\n        /* \"src/libraries/TraitsLoader.sol\":1609:1640  traitGroup.paletteIndexByteSize */\n      0x80\n      dup10\n      add\n        /* \"src/libraries/TraitsLoader.sol\":194:6160  library TraitsLoader {... */\n      mstore\n        /* \"src/libraries/TraitsLoader.sol\":1609:1640  traitGroup.paletteIndexByteSize */\n      swap3\n        /* \"src/libraries/TraitsLoader.sol\":1673:1680  index++ */\n      tag_47\n      jump\t// in\n    tag_280:\n        /* \"src/libraries/TraitsLoader.sol\":1716:1737  traitGroupData[index] */\n      swap1\n        /* \"src/libraries/TraitsLoader.sol\":194:6160  library TraitsLoader {... */\n      0xff\n        /* \"src/libraries/TraitsLoader.sol\":1748:1755  index++ */\n      tag_285\n        /* \"src/libraries/TraitsLoader.sol\":1710:1738  uint8(traitGroupData[index]) */\n      tag_286\n        /* \"src/libraries/TraitsLoader.sol\":1716:1737  traitGroupData[index] */\n      tag_282\n      tag_283\n      dup7\n      dup7\n      tag_43\n      jump\t// in\n        /* \"src/libraries/TraitsLoader.sol\":1710:1738  uint8(traitGroupData[index]) */\n    tag_286:\n        /* \"src/libraries/TraitsLoader.sol\":1748:1755  index++ */\n      swap4\n      tag_47\n      jump\t// in\n    tag_285:\n        /* \"src/libraries/TraitsLoader.sol\":194:6160  library TraitsLoader {... */\n      swap3\n      and\n        /* \"src/libraries/TraitsLoader.sol\":1786:1813  new TraitInfo[](traitCount) */\n      swap2\n      tag_289\n      dup4\n      tag_48\n      jump\t// in\n    tag_289:\n        /* \"src/libraries/TraitsLoader.sol\":1766:1783  traitGroup.traits */\n      swap1\n      0x60\n      dup10\n      add\n        /* \"src/libraries/TraitsLoader.sol\":1766:1813  traitGroup.traits = new TraitInfo[](traitCount) */\n      swap2\n      dup3\n      mstore\n        /* \"src/libraries/TraitsLoader.sol\":194:6160  library TraitsLoader {... */\n      0xff\n      0x00\n      swap6\n      and\n        /* \"src/libraries/TraitsLoader.sol\":1849:3874  for (uint i = 0; i < traitCount; i++) {... */\n      swap5\n        /* \"src/libraries/TraitsLoader.sol\":1866:1880  i < traitCount */\n    tag_290:\n      dup5\n      dup2\n      lt\n      tag_291\n      jumpi\n        /* \"src/libraries/TraitsLoader.sol\":3888:3918  _cachedTraitGroups.traitGroups */\n      pop\n      pop\n      pop\n      pop\n      pop\n      pop\n      swap2\n        /* \"src/libraries/TraitsLoader.sol\":3959:4020  _cachedTraitGroups.traitGroupsLoaded[_traitGroupIndex] = true */\n      tag_293\n        /* \"src/libraries/TraitsLoader.sol\":3888:3918  _cachedTraitGroups.traitGroups */\n      swap2\n        /* \"src/libraries/TraitsLoader.sol\":3888:3949  _cachedTraitGroups.traitGroups[_traitGroupIndex] = traitGroup */\n      tag_294\n        /* \"src/libraries/TraitsLoader.sol\":3888:3918  _cachedTraitGroups.traitGroups */\n      dup3\n        /* \"src/libraries/TraitsLoader.sol\":3959:4020  _cachedTraitGroups.traitGroupsLoaded[_traitGroupIndex] = true */\n      tag_98\n        /* \"src/libraries/TraitsLoader.sol\":3888:3918  _cachedTraitGroups.traitGroups */\n      swap6\n      mload\n        /* \"src/libraries/TraitsLoader.sol\":3888:3949  _cachedTraitGroups.traitGroups[_traitGroupIndex] = traitGroup */\n      dup8\n      tag_296\n      dup4\n      dup4\n      tag_27\n      jump\t// in\n    tag_296:\n      mstore\n      tag_27\n      jump\t// in\n    tag_294:\n      pop\n        /* \"src/libraries/TraitsLoader.sol\":3959:3995  _cachedTraitGroups.traitGroupsLoaded */\n      mload\n        /* \"src/libraries/TraitsLoader.sol\":3959:4020  _cachedTraitGroups.traitGroupsLoaded[_traitGroupIndex] = true */\n      tag_27\n      jump\t// in\n    tag_293:\n        /* \"src/libraries/TraitsLoader.sol\":1243:1244  1 */\n      0x01\n        /* \"src/libraries/TraitsLoader.sol\":194:6160  library TraitsLoader {... */\n      swap1\n      mstore\n      jump\n        /* \"src/libraries/TraitsLoader.sol\":1882:1885  i++ */\n    tag_291:\n        /* \"src/libraries/TraitsLoader.sol\":2078:2099  traitGroupData[index] */\n      dup6\n      swap1\n        /* \"src/libraries/TraitsLoader.sol\":2065:2106  uint16(uint8(traitGroupData[index])) << 8 */\n      tag_297\n        /* \"src/libraries/TraitsLoader.sol\":2065:2101  uint16(uint8(traitGroupData[index])) */\n      tag_298\n        /* \"src/libraries/TraitsLoader.sol\":2072:2100  uint8(traitGroupData[index]) */\n      tag_299\n        /* \"src/libraries/TraitsLoader.sol\":2078:2099  traitGroupData[index] */\n      tag_282\n      tag_283\n      dup8\n      dup11\n      tag_43\n      jump\t// in\n        /* \"src/libraries/TraitsLoader.sol\":2072:2100  uint8(traitGroupData[index]) */\n    tag_299:\n        /* \"src/libraries/TraitsLoader.sol\":194:6160  library TraitsLoader {... */\n      0xff\n      and\n      swap1\n      jump\n        /* \"src/libraries/TraitsLoader.sol\":2065:2101  uint16(uint8(traitGroupData[index])) */\n    tag_298:\n        /* \"src/libraries/TraitsLoader.sol\":194:6160  library TraitsLoader {... */\n      0x08\n      shl\n      0xff00\n      and\n      swap1\n      jump\n        /* \"src/libraries/TraitsLoader.sol\":2065:2106  uint16(uint8(traitGroupData[index])) << 8 */\n    tag_297:\n        /* \"src/libraries/TraitsLoader.sol\":2109:2149  uint16(uint8(traitGroupData[index + 1])) */\n      tag_302\n        /* \"src/libraries/TraitsLoader.sol\":2116:2148  uint8(traitGroupData[index + 1]) */\n      tag_299\n        /* \"src/libraries/TraitsLoader.sol\":2122:2147  traitGroupData[index + 1] */\n      tag_282\n      tag_283\n        /* \"src/libraries/TraitsLoader.sol\":2137:2146  index + 1 */\n      tag_306\n      dup9\n      tag_34\n      jump\t// in\n    tag_306:\n        /* \"src/libraries/TraitsLoader.sol\":2122:2147  traitGroupData[index + 1] */\n      dup11\n      tag_43\n      jump\t// in\n        /* \"src/libraries/TraitsLoader.sol\":2109:2149  uint16(uint8(traitGroupData[index + 1])) */\n    tag_302:\n        /* \"src/libraries/TraitsLoader.sol\":2065:2149  uint16(uint8(traitGroupData[index])) << 8 | uint16(uint8(traitGroupData[index + 1])) */\n      or\n        /* \"src/libraries/TraitsLoader.sol\":2208:2217  index + 2 */\n      swap3\n      dup6\n        /* \"src/libraries/TraitsLoader.sol\":2187:2219  uint8(traitGroupData[index + 2]) */\n      tag_307\n        /* \"src/libraries/TraitsLoader.sol\":2193:2218  traitGroupData[index + 2] */\n      tag_282\n      tag_283\n        /* \"src/libraries/TraitsLoader.sol\":2208:2217  index + 2 */\n      tag_310\n      dup6\n      tag_35\n      jump\t// in\n    tag_310:\n        /* \"src/libraries/TraitsLoader.sol\":2193:2218  traitGroupData[index + 2] */\n      dup5\n      tag_43\n      jump\t// in\n        /* \"src/libraries/TraitsLoader.sol\":2187:2219  uint8(traitGroupData[index + 2]) */\n    tag_307:\n        /* \"src/libraries/TraitsLoader.sol\":2244:2276  uint8(traitGroupData[index + 3]) */\n      tag_311\n        /* \"src/libraries/TraitsLoader.sol\":2250:2275  traitGroupData[index + 3] */\n      tag_282\n      tag_283\n        /* \"src/libraries/TraitsLoader.sol\":2265:2274  index + 3 */\n      tag_314\n      dup7\n      tag_36\n      jump\t// in\n    tag_314:\n        /* \"src/libraries/TraitsLoader.sol\":2250:2275  traitGroupData[index + 3] */\n      dup6\n      tag_43\n      jump\t// in\n        /* \"src/libraries/TraitsLoader.sol\":2244:2276  uint8(traitGroupData[index + 3]) */\n    tag_311:\n        /* \"src/libraries/TraitsLoader.sol\":2301:2333  uint8(traitGroupData[index + 4]) */\n      tag_315\n        /* \"src/libraries/TraitsLoader.sol\":2307:2332  traitGroupData[index + 4] */\n      tag_282\n      tag_283\n        /* \"src/libraries/TraitsLoader.sol\":2322:2331  index + 4 */\n      tag_318\n      dup8\n      tag_37\n      jump\t// in\n    tag_318:\n        /* \"src/libraries/TraitsLoader.sol\":2307:2332  traitGroupData[index + 4] */\n      dup7\n      tag_43\n      jump\t// in\n        /* \"src/libraries/TraitsLoader.sol\":2301:2333  uint8(traitGroupData[index + 4]) */\n    tag_315:\n        /* \"src/libraries/TraitsLoader.sol\":2379:2388  index + 5 */\n      swap1\n        /* \"src/libraries/TraitsLoader.sol\":2358:2390  uint8(traitGroupData[index + 5]) */\n      tag_319\n        /* \"src/libraries/TraitsLoader.sol\":2364:2389  traitGroupData[index + 5] */\n      tag_282\n      tag_283\n        /* \"src/libraries/TraitsLoader.sol\":2379:2388  index + 5 */\n      tag_322\n      dup9\n      tag_38\n      jump\t// in\n    tag_322:\n        /* \"src/libraries/TraitsLoader.sol\":2364:2389  traitGroupData[index + 5] */\n      dup8\n      tag_43\n      jump\t// in\n        /* \"src/libraries/TraitsLoader.sol\":2358:2390  uint8(traitGroupData[index + 5]) */\n    tag_319:\n        /* \"src/libraries/TraitsLoader.sol\":2443:2452  index + 6 */\n      swap3\n        /* \"src/libraries/TraitsLoader.sol\":2422:2454  uint8(traitGroupData[index + 6]) */\n      tag_323\n        /* \"src/libraries/TraitsLoader.sol\":2428:2453  traitGroupData[index + 6] */\n      tag_282\n      tag_283\n        /* \"src/libraries/TraitsLoader.sol\":2443:2452  index + 6 */\n      tag_326\n      dup10\n      tag_39\n      jump\t// in\n    tag_326:\n        /* \"src/libraries/TraitsLoader.sol\":2428:2453  traitGroupData[index + 6] */\n      dup9\n      tag_43\n      jump\t// in\n        /* \"src/libraries/TraitsLoader.sol\":2422:2454  uint8(traitGroupData[index + 6]) */\n    tag_323:\n        /* \"src/libraries/TraitsLoader.sol\":2752:2776  index += traitNameLength */\n      tag_327\n        /* \"src/libraries/TraitsLoader.sol\":194:6160  library TraitsLoader {... */\n      0xff\n        /* \"src/libraries/TraitsLoader.sol\":2551:2561  index += 8 */\n      tag_328\n        /* \"src/libraries/TraitsLoader.sol\":2492:2524  uint8(traitGroupData[index + 7]) */\n      tag_329\n        /* \"src/libraries/TraitsLoader.sol\":2498:2523  traitGroupData[index + 7] */\n      tag_282\n      tag_283\n        /* \"src/libraries/TraitsLoader.sol\":2513:2522  index + 7 */\n      tag_332\n      dup14\n      tag_40\n      jump\t// in\n    tag_332:\n        /* \"src/libraries/TraitsLoader.sol\":2498:2523  traitGroupData[index + 7] */\n      dup13\n      tag_43\n      jump\t// in\n        /* \"src/libraries/TraitsLoader.sol\":2492:2524  uint8(traitGroupData[index + 7]) */\n    tag_329:\n        /* \"src/libraries/TraitsLoader.sol\":2551:2561  index += 8 */\n      swap10\n      tag_41\n      jump\t// in\n    tag_328:\n        /* \"src/libraries/TraitsLoader.sol\":194:6160  library TraitsLoader {... */\n      swap9\n      and\n        /* \"src/libraries/TraitsLoader.sol\":2633:2659  new bytes(traitNameLength) */\n      tag_333\n      dup2\n      tag_51\n      jump\t// in\n    tag_333:\n        /* \"src/libraries/TraitsLoader.sol\":2673:2738  _memoryCopy(traitName, 0, traitGroupData, index, traitNameLength) */\n      swap9\n      tag_334\n      dup3\n      dup3\n      dup12\n      dup14\n      tag_63\n      jump\t// in\n    tag_334:\n        /* \"src/libraries/TraitsLoader.sol\":2752:2776  index += traitNameLength */\n      tag_42\n      jump\t// in\n    tag_327:\n      swap10\n      dup11\n      swap1\n      dup2\n      swap1\n        /* \"src/libraries/TraitsLoader.sol\":194:6160  library TraitsLoader {... */\n      0xffff\n      and\n      0x00\n        /* \"src/libraries/TraitsLoader.sol\":3000:3031  pixelsTracked < traitPixelCount */\n    tag_335:\n      dup2\n      dup2\n      lt\n      tag_336\n      jumpi\n        /* \"src/libraries/TraitsLoader.sol\":3418:3439  index - rleStartIndex */\n      pop\n      pop\n        /* \"src/libraries/TraitsLoader.sol\":1243:1244  1 */\n      0x01\n        /* \"src/libraries/TraitsLoader.sol\":3418:3439  index - rleStartIndex */\n      swap11\n      pop\n        /* \"src/libraries/TraitsLoader.sol\":3625:3863  TraitInfo({... */\n      tag_338\n        /* \"src/libraries/TraitsLoader.sol\":3418:3439  index - rleStartIndex */\n      swap5\n        /* \"src/libraries/TraitsLoader.sol\":3625:3863  TraitInfo({... */\n      tag_339\n        /* \"src/libraries/TraitsLoader.sol\":3602:3863  traitGroup.traits[i] = TraitInfo({... */\n      tag_340\n        /* \"src/libraries/TraitsLoader.sol\":3418:3439  index - rleStartIndex */\n      swap11\n      swap9\n      swap6\n        /* \"src/libraries/TraitsLoader.sol\":3625:3863  TraitInfo({... */\n      tag_341\n      tag_342\n        /* \"src/libraries/TraitsLoader.sol\":3418:3439  index - rleStartIndex */\n      swap7\n        /* \"src/libraries/TraitsLoader.sol\":3516:3587  _memoryCopy(traitData, 0, traitGroupData, rleStartIndex, rleByteLength) */\n      tag_343\n        /* \"src/libraries/TraitsLoader.sol\":3418:3439  index - rleStartIndex */\n      dup16\n      swap14\n      swap12\n      swap8\n      tag_344\n      dup2\n        /* \"src/libraries/TraitsLoader.sol\":3625:3863  TraitInfo({... */\n      tag_345\n        /* \"src/libraries/TraitsLoader.sol\":3418:3439  index - rleStartIndex */\n      swap10\n      tag_53\n      jump\t// in\n    tag_344:\n        /* \"src/libraries/TraitsLoader.sol\":3478:3502  new bytes(rleByteLength) */\n      swap1\n      tag_346\n      dup3\n      tag_51\n      jump\t// in\n    tag_346:\n        /* \"src/libraries/TraitsLoader.sol\":3516:3587  _memoryCopy(traitData, 0, traitGroupData, rleStartIndex, rleByteLength) */\n      swap14\n      dup15\n      tag_63\n      jump\t// in\n    tag_343:\n        /* \"src/libraries/TraitsLoader.sol\":194:6160  library TraitsLoader {... */\n      tag_347\n      tag_14\n      jump\t// in\n    tag_347:\n      swap12\n      dup13\n      mstore\n      0xff\n      and\n        /* \"src/libraries/TraitsLoader.sol\":691:727  _cachedTraitGroups.traitGroupsLoaded */\n      0x20\n        /* \"src/libraries/TraitsLoader.sol\":3625:3863  TraitInfo({... */\n      dup13\n      add\n        /* \"src/libraries/TraitsLoader.sol\":194:6160  library TraitsLoader {... */\n      mstore\n      jump\n        /* \"src/libraries/TraitsLoader.sol\":3625:3863  TraitInfo({... */\n    tag_341:\n        /* \"src/libraries/TraitsLoader.sol\":194:6160  library TraitsLoader {... */\n      0xff\n      and\n      0x40\n        /* \"src/libraries/TraitsLoader.sol\":3625:3863  TraitInfo({... */\n      dup11\n      add\n        /* \"src/libraries/TraitsLoader.sol\":194:6160  library TraitsLoader {... */\n      mstore\n      jump\n        /* \"src/libraries/TraitsLoader.sol\":3625:3863  TraitInfo({... */\n    tag_339:\n        /* \"src/libraries/TraitsLoader.sol\":194:6160  library TraitsLoader {... */\n      0xff\n      and\n        /* \"src/libraries/TraitsLoader.sol\":1766:1783  traitGroup.traits */\n      0x60\n        /* \"src/libraries/TraitsLoader.sol\":3625:3863  TraitInfo({... */\n      dup9\n      add\n        /* \"src/libraries/TraitsLoader.sol\":194:6160  library TraitsLoader {... */\n      mstore\n      jump\n        /* \"src/libraries/TraitsLoader.sol\":3625:3863  TraitInfo({... */\n    tag_345:\n        /* \"src/libraries/TraitsLoader.sol\":194:6160  library TraitsLoader {... */\n      0xff\n      and\n        /* \"src/libraries/TraitsLoader.sol\":1609:1640  traitGroup.paletteIndexByteSize */\n      0x80\n        /* \"src/libraries/TraitsLoader.sol\":3625:3863  TraitInfo({... */\n      dup7\n      add\n        /* \"src/libraries/TraitsLoader.sol\":194:6160  library TraitsLoader {... */\n      mstore\n      jump\n        /* \"src/libraries/TraitsLoader.sol\":3625:3863  TraitInfo({... */\n    tag_342:\n        /* \"src/libraries/TraitsLoader.sol\":194:6160  library TraitsLoader {... */\n      0xff\n      and\n        /* \"src/libraries/TraitsLoader.sol\":3625:3863  TraitInfo({... */\n      0xa0\n      dup5\n      add\n        /* \"src/libraries/TraitsLoader.sol\":194:6160  library TraitsLoader {... */\n      mstore\n      jump\n        /* \"src/libraries/TraitsLoader.sol\":3625:3863  TraitInfo({... */\n    tag_338:\n      0xc0\n      dup3\n      add\n        /* \"src/libraries/TraitsLoader.sol\":194:6160  library TraitsLoader {... */\n      mstore\n        /* \"src/libraries/TraitsLoader.sol\":3602:3619  traitGroup.traits */\n      dup7\n      mload\n        /* \"src/libraries/TraitsLoader.sol\":3602:3863  traitGroup.traits[i] = TraitInfo({... */\n      swap1\n      tag_296\n      dup4\n      dup4\n      tag_27\n      jump\t// in\n    tag_340:\n      pop\n        /* \"src/libraries/TraitsLoader.sol\":194:6160  library TraitsLoader {... */\n      add\n        /* \"src/libraries/TraitsLoader.sol\":1854:1864  uint i = 0 */\n      jump(tag_290)\n        /* \"src/libraries/TraitsLoader.sol\":2993:3340  while (pixelsTracked < traitPixelCount) {... */\n    tag_336:\n        /* \"src/libraries/TraitsLoader.sol\":3075:3096  traitGroupData[index] */\n      swap2\n        /* \"src/libraries/TraitsLoader.sol\":194:6160  library TraitsLoader {... */\n      0xff\n        /* \"src/libraries/TraitsLoader.sol\":3075:3096  traitGroupData[index] */\n      swap2\n      swap5\n      swap7\n      swap9\n      swap11\n      swap12\n      swap13\n        /* \"src/libraries/TraitsLoader.sol\":3115:3122  index++ */\n      tag_334\n        /* \"src/libraries/TraitsLoader.sol\":3069:3097  uint8(traitGroupData[index]) */\n      tag_350\n        /* \"src/libraries/TraitsLoader.sol\":3075:3096  traitGroupData[index] */\n      tag_282\n      tag_283\n        /* \"src/libraries/TraitsLoader.sol\":3235:3264  index += paletteIndexByteSize */\n      tag_353\n        /* \"src/libraries/TraitsLoader.sol\":3075:3096  traitGroupData[index] */\n      swap6\n        /* \"src/libraries/TraitsLoader.sol\":3299:3325  pixelsTracked += runLength */\n      tag_354\n        /* \"src/libraries/TraitsLoader.sol\":3075:3096  traitGroupData[index] */\n      swap10\n      swap12\n      swap14\n      swap16\n      tag_43\n      jump\t// in\n        /* \"src/libraries/TraitsLoader.sol\":3069:3097  uint8(traitGroupData[index]) */\n    tag_350:\n        /* \"src/libraries/TraitsLoader.sol\":3115:3122  index++ */\n      swap16\n      tag_47\n      jump\t// in\n        /* \"src/libraries/TraitsLoader.sol\":3235:3264  index += paletteIndexByteSize */\n    tag_353:\n        /* \"src/libraries/TraitsLoader.sol\":194:6160  library TraitsLoader {... */\n      swap13\n      and\n        /* \"src/libraries/TraitsLoader.sol\":3299:3325  pixelsTracked += runLength */\n      swap1\n      tag_42\n      jump\t// in\n    tag_354:\n        /* \"src/libraries/TraitsLoader.sol\":2993:3340  while (pixelsTracked < traitPixelCount) {... */\n      swap2\n      dup11\n      dup16\n      swap11\n      swap10\n      swap9\n      swap7\n      swap5\n      swap3\n      dup15\n      swap9\n      swap7\n      swap5\n      jump(tag_335)\n        /* \"src/libraries/TraitsLoader.sol\":1016:1071  _assetsContract.loadAssetDecompressed(_traitGroupIndex) */\n    tag_275:\n      tag_355\n      swap2\n      pop\n      returndatasize\n      dup1\n      0x00\n      dup4\n      returndatacopy\n      tag_356\n      dup2\n      dup4\n      tag_12\n      jump\t// in\n    tag_356:\n      dup2\n      add\n      swap1\n      tag_29\n      jump\t// in\n    tag_355:\n      0x00\n      jump(tag_276)\n    tag_273:\n      tag_31\n      jump\t// in\n        /* \"src/libraries/TraitsLoader.sol\":687:827  if (_cachedTraitGroups.traitGroupsLoaded[_traitGroupIndex]) {... */\n    tag_269:\n        /* \"src/libraries/TraitsLoader.sol\":768:798  _cachedTraitGroups.traitGroups */\n      swap1\n      pop\n        /* \"src/libraries/TraitsLoader.sol\":768:816  _cachedTraitGroups.traitGroups[_traitGroupIndex] */\n      tag_357\n        /* \"src/libraries/TraitsLoader.sol\":768:798  _cachedTraitGroups.traitGroups */\n      swap3\n      pop\n      mload\n        /* \"src/libraries/TraitsLoader.sol\":768:816  _cachedTraitGroups.traitGroups[_traitGroupIndex] */\n      tag_27\n      jump\t// in\n    tag_357:\n      mload\n        /* \"src/libraries/TraitsLoader.sol\":761:816  return _cachedTraitGroups.traitGroups[_traitGroupIndex] */\n      swap1\n      jump\t// out\n        /* \"src/libraries/TraitsLoader.sol\":4064:4393  function _decodeTraitGroupName(bytes memory traitGroupData, uint startIndex) internal pure returns (bytes memory) {... */\n    tag_56:\n        /* \"src/libraries/TraitsLoader.sol\":194:6160  library TraitsLoader {... */\n      dup1\n      mload\n      iszero\n      tag_218\n      jumpi\n        /* \"src/libraries/TraitsLoader.sol\":4301:4365  _memoryCopy(name, 0, traitGroupData, startIndex + 1, nameLength) */\n      tag_98\n        /* \"src/libraries/TraitsLoader.sol\":194:6160  library TraitsLoader {... */\n      0x20\n      dup3\n      add\n      mload\n      0xf8\n      shr\n        /* \"src/libraries/TraitsLoader.sol\":4351:4352  1 */\n      0x01\n        /* \"src/libraries/TraitsLoader.sol\":4270:4291  new bytes(nameLength) */\n      tag_361\n      dup3\n      tag_51\n      jump\t// in\n    tag_361:\n        /* \"src/libraries/TraitsLoader.sol\":194:6160  library TraitsLoader {... */\n      swap4\n        /* \"src/libraries/TraitsLoader.sol\":4301:4365  _memoryCopy(name, 0, traitGroupData, startIndex + 1, nameLength) */\n      dup5\n      tag_63\n      jump\t// in\n        /* \"src/libraries/TraitsLoader.sol\":194:6160  library TraitsLoader {... */\n    tag_57:\n      mload(0x40)\n      swap1\n      tag_364\n      0x20\n      dup4\n      tag_12\n      jump\t// in\n    tag_364:\n      0x00\n      dup1\n      dup4\n      mstore\n      calldatasize\n      0x20\n      dup5\n      add\n      calldatacopy\n      jump\t// out\n    tag_58:\n      swap1\n      tag_367\n      dup3\n      tag_16\n      jump\t// in\n    tag_367:\n      tag_368\n      mload(0x40)\n      swap2\n      dup3\n      tag_12\n      jump\t// in\n    tag_368:\n      dup3\n      dup2\n      mstore\n      dup1\n      swap3\n      tag_263\n      not(0x1f)\n      swap2\n      tag_16\n      jump\t// in\n    tag_59:\n      0x02\n      shl\n      swap1\n      0x03fffc\n      0xfffc\n      dup4\n      and\n      swap3\n      and\n      dup3\n      sub\n      tag_230\n      jumpi\n      jump\t// out\n    tag_60:\n      iszero\n      tag_372\n      jumpi\n      jump\t// out\n    tag_372:\n      mload(0x40)\n      shl(0xe5, 0x461bcd)\n      dup2\n      mstore\n      0x20\n      0x04\n      dup3\n      add\n      mstore\n      0x19\n      0x24\n      dup3\n      add\n      mstore\n      0x496e73756666696369656e742070616c65747465206461746100000000000000\n      0x44\n      dup3\n      add\n      mstore\n      0x64\n      swap1\n      revert\n        /* \"src/libraries/TraitsLoader.sol\":4399:5448  function _decodeTraitGroupPalette(bytes memory traitGroupData, uint startIndex) internal pure returns (uint32[] memory paletteRgba, uint nextIndex) {... */\n    tag_62:\n      swap2\n      swap1\n      swap2\n        /* \"src/libraries/TraitsLoader.sol\":4630:4676  uint16(uint8(traitGroupData[startIndex])) << 8 */\n      tag_374\n        /* \"src/libraries/TraitsLoader.sol\":4630:4671  uint16(uint8(traitGroupData[startIndex])) */\n      tag_298\n        /* \"src/libraries/TraitsLoader.sol\":4637:4670  uint8(traitGroupData[startIndex]) */\n      tag_299\n        /* \"src/libraries/TraitsLoader.sol\":4643:4669  traitGroupData[startIndex] */\n      tag_282\n      tag_283\n      dup8\n      dup7\n      tag_43\n      jump\t// in\n        /* \"src/libraries/TraitsLoader.sol\":4630:4676  uint16(uint8(traitGroupData[startIndex])) << 8 */\n    tag_374:\n        /* \"src/libraries/TraitsLoader.sol\":4679:4724  uint16(uint8(traitGroupData[startIndex + 1])) */\n      tag_379\n        /* \"src/libraries/TraitsLoader.sol\":4686:4723  uint8(traitGroupData[startIndex + 1]) */\n      tag_299\n        /* \"src/libraries/TraitsLoader.sol\":4692:4722  traitGroupData[startIndex + 1] */\n      tag_282\n      tag_283\n        /* \"src/libraries/TraitsLoader.sol\":4707:4721  startIndex + 1 */\n      tag_318\n      dup9\n      tag_34\n      jump\t// in\n        /* \"src/libraries/TraitsLoader.sol\":4679:4724  uint16(uint8(traitGroupData[startIndex + 1])) */\n    tag_379:\n        /* \"src/libraries/TraitsLoader.sol\":4630:4724  uint16(uint8(traitGroupData[startIndex])) << 8 | uint16(uint8(traitGroupData[startIndex + 1])) */\n      or\n        /* \"src/libraries/TraitsLoader.sol\":194:6160  library TraitsLoader {... */\n      swap1\n      0xffff\n      dup3\n      and\n        /* \"src/libraries/TraitsLoader.sol\":4823:4839  paletteSize == 0 */\n      swap1\n      dup2\n      iszero\n        /* \"src/libraries/TraitsLoader.sol\":4819:4906  if (paletteSize == 0) {... */\n      tag_384\n      jumpi\n        /* \"src/libraries/TraitsLoader.sol\":4930:4955  new uint32[](paletteSize) */\n      swap1\n        /* \"src/libraries/TraitsLoader.sol\":5052:5141  require(traitGroupData.length >= cursor + (paletteSize * 4), \"Insufficient palette data\") */\n      tag_386\n        /* \"src/libraries/TraitsLoader.sol\":4979:4993  startIndex + 2 */\n      tag_387\n        /* \"src/libraries/TraitsLoader.sol\":4930:4955  new uint32[](paletteSize) */\n      tag_388\n      dup4\n      tag_58\n      jump\t// in\n    tag_388:\n        /* \"src/libraries/TraitsLoader.sol\":4979:4993  startIndex + 2 */\n      swap7\n      tag_35\n      jump\t// in\n    tag_387:\n        /* \"src/libraries/TraitsLoader.sol\":194:6160  library TraitsLoader {... */\n      swap4\n        /* \"src/libraries/TraitsLoader.sol\":5085:5111  cursor + (paletteSize * 4) */\n      tag_389\n      tag_390\n        /* \"src/libraries/TraitsLoader.sol\":5095:5110  paletteSize * 4 */\n      tag_391\n        /* \"src/libraries/TraitsLoader.sol\":194:6160  library TraitsLoader {... */\n      dup7\n      mload\n        /* \"src/libraries/TraitsLoader.sol\":5095:5110  paletteSize * 4 */\n      swap4\n      tag_59\n      jump\t// in\n    tag_391:\n        /* \"src/libraries/TraitsLoader.sol\":194:6160  library TraitsLoader {... */\n      0xffff\n      and\n      swap1\n      jump\n        /* \"src/libraries/TraitsLoader.sol\":5085:5111  cursor + (paletteSize * 4) */\n    tag_390:\n      dup7\n      tag_42\n      jump\t// in\n    tag_389:\n      gt\n        /* \"src/libraries/TraitsLoader.sol\":5060:5111  traitGroupData.length >= cursor + (paletteSize * 4) */\n      iszero\n        /* \"src/libraries/TraitsLoader.sol\":5052:5141  require(traitGroupData.length >= cursor + (paletteSize * 4), \"Insufficient palette data\") */\n      tag_60\n      jump\t// in\n    tag_386:\n        /* \"src/libraries/TraitsLoader.sol\":194:6160  library TraitsLoader {... */\n      0x00\n        /* \"src/libraries/TraitsLoader.sol\":5160:5413  for (uint i = 0; i < paletteSize; i++) {... */\n      swap2\n        /* \"src/libraries/TraitsLoader.sol\":5177:5192  i < paletteSize */\n    tag_392:\n      dup2\n      dup4\n      lt\n      tag_393\n      jumpi\n        /* \"src/libraries/TraitsLoader.sol\":5423:5441  nextIndex = cursor */\n      pop\n      pop\n      pop\n        /* \"src/libraries/TraitsLoader.sol\":4399:5448  function _decodeTraitGroupPalette(bytes memory traitGroupData, uint startIndex) internal pure returns (uint32[] memory paletteRgba, uint nextIndex) {... */\n      swap1\n      jump\t// out\n        /* \"src/libraries/TraitsLoader.sol\":5194:5197  i++ */\n    tag_393:\n        /* \"src/libraries/TraitsLoader.sol\":5239:5342  assembly {... */\n      swap1\n      swap2\n      swap3\n        /* \"src/libraries/TraitsLoader.sol\":5391:5402  cursor += 4 */\n      tag_395\n        /* \"src/libraries/TraitsLoader.sol\":5239:5342  assembly {... */\n      dup2\n        /* \"src/libraries/TraitsLoader.sol\":5355:5377  paletteRgba[i] = color */\n      tag_396\n        /* \"src/libraries/TraitsLoader.sol\":5239:5342  assembly {... */\n      0x20\n        /* \"src/libraries/TraitsLoader.sol\":4720:4721  1 */\n      0x01\n        /* \"src/libraries/TraitsLoader.sol\":5239:5342  assembly {... */\n      swap5\n      dup7\n      add\n      add\n      mload\n      0xe0\n      shr\n        /* \"src/libraries/TraitsLoader.sol\":5355:5377  paletteRgba[i] = color */\n      tag_397\n      dup9\n      dup12\n      tag_27\n      jump\t// in\n    tag_397:\n        /* \"src/libraries/TraitsLoader.sol\":194:6160  library TraitsLoader {... */\n      swap1\n      0xffffffff\n      and\n      swap1\n      mstore\n      jump\n        /* \"src/libraries/TraitsLoader.sol\":5355:5377  paletteRgba[i] = color */\n    tag_396:\n        /* \"src/libraries/TraitsLoader.sol\":5391:5402  cursor += 4 */\n      tag_37\n      jump\t// in\n    tag_395:\n        /* \"src/libraries/TraitsLoader.sol\":5194:5197  i++ */\n      swap4\n        /* \"src/libraries/TraitsLoader.sol\":194:6160  library TraitsLoader {... */\n      add\n        /* \"src/libraries/TraitsLoader.sol\":5165:5175  uint i = 0 */\n      swap2\n      swap1\n      jump(tag_392)\n        /* \"src/libraries/TraitsLoader.sol\":4819:4906  if (paletteSize == 0) {... */\n    tag_384:\n        /* \"src/libraries/TraitsLoader.sol\":4863:4878  new uint32[](0) */\n      pop\n      pop\n      pop\n        /* \"src/libraries/TraitsLoader.sol\":4880:4894  startIndex + 2 */\n      tag_98\n        /* \"src/libraries/TraitsLoader.sol\":4863:4878  new uint32[](0) */\n      tag_399\n      tag_57\n      jump\t// in\n    tag_399:\n        /* \"src/libraries/TraitsLoader.sol\":4880:4894  startIndex + 2 */\n      swap3\n      tag_35\n      jump\t// in\n        /* \"src/libraries/TraitsLoader.sol\":5454:6158  function _memoryCopy(bytes memory dest, uint destOffset, bytes memory src, uint srcOffset, uint len) internal pure {... */\n    tag_63:\n        /* \"src/libraries/TraitsLoader.sol\":5579:6152  assembly {... */\n      swap2\n      add\n      swap2\n      dup3\n      add\n      0x20\n      swap1\n      dup2\n      add\n      swap3\n      swap2\n      dup2\n      add\n      swap2\n      add\n    tag_400:\n      dup3\n      0x1f\n      dup3\n      add\n      lt\n      tag_401\n      jumpi\n    tag_403:\n      dup3\n      dup2\n      lt\n      tag_404\n      jumpi\n        /* \"src/libraries/TraitsLoader.sol\":5454:6158  function _memoryCopy(bytes memory dest, uint destOffset, bytes memory src, uint srcOffset, uint len) internal pure {... */\n      pop\n      pop\n      pop\n      jump\t// out\n        /* \"src/libraries/TraitsLoader.sol\":5579:6152  assembly {... */\n    tag_404:\n      0x01\n      dup2\n      dup2\n      swap3\n      mload\n      0x00\n      byte\n      dup5\n      mstore8\n      add\n      swap2\n      add\n      swap1\n      jump(tag_403)\n    tag_401:\n      dup1\n      mload\n      dup3\n      mstore\n      0x20\n      swap2\n      dup3\n      add\n      swap2\n      add\n      jump(tag_400)\n\n    auxdata: 0xa2646970667358221220af0c6c854c9e409c919759dbb0f3d4b714d4b3e31e17789d4ced64db7769162764736f6c63430008210033\n}\n",
				"bytecode": {
					"linkReferences": {},
					"object": "60808060405234601957610fd9908161001e823930815050f35b5f80fdfe60806040526004361015610011575f80fd5b5f3560e01c806368b0b907146100345763bbd33b621461002f575f80fd5b610640565b60203660031901126100ef5760043561004d60c0604052565b6060608052606060a052610060816103ac565b61006d604051918261035c565b818152601f1961007c836103ac565b015f5b8181106100d8576100d48385610094816103ac565b906100a2604051928361035c565b8082526100b1601f19916103ac565b013660208301376100c061037d565b918252602082015260405191829182610263565b0390f35b6020906100e3610804565b8282860101520161007f565b5f80fd5b805180835260209291819084018484015e5f828201840152601f01601f1916010190565b9080602083519182815201916020808360051b8301019401925f915b83831061014257505050505090565b90919293946020806101c8600193601f1986820301875289519060c0610171835160e0845260e08401906100f3565b9260ff86820151168684015260ff604082015116604084015260ff60608201511660608401526101ab6080820151608085019060ff169052565b60a08181015160ff169084015201519060c08184039101526100f3565b97019301930191939290610133565b90815181526101f5602083015160a0602084015260a08301906100f3565b6040830151908281036040840152602080835192838152019201905f5b81811061024757505050906080806102396102449460608701518582036060870152610117565b94015160ff16910152565b90565b825163ffffffff16845260209384019390920191600101610212565b906020825260608201908051916040602085015282518091526080840190602060808260051b8701019401915f905b8282106102e2575050505060200151916040601f1982840301910152602080835192838152019201905f5b8181106102ca5750505090565b825115158452602093840193909201916001016102bd565b909192946020806102ff600193607f198b820301865289516101d7565b970192019201909291610292565b634e487b7160e01b5f52604160045260245ffd5b604081019081106001600160401b0382111761033c57604052565b61030d565b60e081019081106001600160401b0382111761033c57604052565b90601f801991011681019081106001600160401b0382111761033c57604052565b6040519061038c60408361035c565b565b6040519061038c60e08361035c565b6040519061038c60a08361035c565b6001600160401b03811161033c5760051b60200190565b6001600160401b03811161033c57601f01601f191660200190565b81601f820112156100ef578035906103f5826103c3565b92610403604051948561035c565b828452602083830101116100ef57815f926020809301838601378301015290565b9080601f830112156100ef5781359061043c826103ac565b9261044a604051948561035c565b82845260208085019360051b8201019182116100ef57602001915b8183106104725750505090565b823563ffffffff811681036100ef57815260209283019201610465565b359060ff821682036100ef57565b9080601f830112156100ef578135916104b5836103ac565b926104c3604051948561035c565b80845260208085019160051b830101918383116100ef5760208101915b8383106104ef57505050505090565b82356001600160401b0381116100ef5782019060e0828703601f1901126100ef5761051861038e565b9060208301356001600160401b0381116100ef5787602061053b928601016103de565b82526105496040840161048f565b602083015261055a6060840161048f565b604083015261056b6080840161048f565b606083015261057c60a0840161048f565b608083015261058d60c0840161048f565b60a083015260e0830135916001600160401b0383116100ef576105b8886020809695819601016103de565b60c08201528152019201916104e0565b9080601f830112156100ef578135906105e0826103ac565b926105ee604051948561035c565b82845260208085019360051b8201019182116100ef57602001915b8183106106165750505090565b823580151581036100ef57815260209283019201610609565b9060206102449281815201906101d7565b60603660031901126100ef576004356001600160a01b03811681036100ef576024356001600160401b0381116100ef57604060031982360301126100ef576040519161068b83610321565b81600401356001600160401b0381116100ef578201366023820112156100ef5760048101356106b9816103ac565b916106c7604051938461035c565b818352602060048185019360051b83010101903682116100ef5760248101925b828410610738575050505083526024820135926001600160401b0384116100ef5761071e61072c9360046100d496369201016105c8565b602082015260443591610a57565b6040519182918261062f565b83356001600160401b0381116100ef576004908301019060a0601f1983360301126100ef5761076561039d565b906020830135825260408301356001600160401b0381116100ef5761079090602036918601016103de565b602083015260608301356001600160401b0381116100ef576107b89060203691860101610424565b60408301526080830135916001600160401b0383116100ef576107f460a06020956107e9879687369184010161049d565b60608501520161048f565b60808201528152019301926106e7565b6040519060a082018281106001600160401b0382111761033c576040525f60808382815260606020820152606060408201526060808201520152565b634e487b7160e01b5f52603260045260245ffd5b80518210156108685760209160051b010190565b610840565b6020818303126100ef578051906001600160401b0382116100ef570181601f820112156100ef578051906108a0826103c3565b926108ae604051948561035c565b828452602083830101116100ef57815f9260208093018386015e8301015290565b6040513d5f823e3d90fd5b634e487b7160e01b5f52601160045260245ffd5b60010190816001116108fc57565b6108da565b90600182018092116108fc57565b90600282018092116108fc57565b90600382018092116108fc57565b90600482018092116108fc57565b90600582018092116108fc57565b90600682018092116108fc57565b90600782018092116108fc57565b90600882018092116108fc57565b919082018092116108fc57565b908151811015610868570160200190565b5f1981146108fc5760010190565b906109a7826103ac565b6109b4604051918261035c565b82815280926109c5601f19916103ac565b01905f5b8281106109d557505050565b6020906040516109e481610341565b606081525f838201525f60408201525f60608201525f60808201525f60a0820152606060c0820152828285010152016109c9565b90610a22826103c3565b610a2f604051918261035c565b8281528092610a40601f19916103c3565b0190602036910137565b919082039182116108fc57565b9190610a61610804565b506020810190610a7b610a75848451610854565b51151590565b610da857610a87610804565b83815260405163245a851f60e11b81526004810185905290945f90829060249082906001600160a01b03165afa908115610da3575f91610d81575b50610ae4610ade610ad283610db9565b806020890152516108ee565b82610e83565b91906040870152610b21610b12610b0c610afe858561097e565b516001600160f81b03191690565b60f81c90565b60ff811660808901529261098f565b9060ff610b3d610b37610b0c610afe868661097e565b9361098f565b921691610b498361099d565b906060890191825260ff5f9516945b848110610b915750505050505091610b8b91610b8482610244955187610b7e8383610854565b52610854565b5051610854565b60019052565b8590610bb9610baf610ba9610b0c610afe878a61097e565b60ff1690565b60081b61ff001690565b610bd4610ba9610b0c610afe610bce88610901565b8a61097e565b179285610bef610b0c610afe610be98561090f565b8461097e565b610c07610b0c610afe610c018661091d565b8561097e565b610c1f610b0c610afe610c198761092b565b8661097e565b90610c38610b0c610afe610c3288610939565b8761097e565b92610c51610b0c610afe610c4b89610947565b8861097e565b610c9460ff610c77610c71610b0c610afe610c6b8d610955565b8c61097e565b99610963565b9816610c8281610a18565b98610c8f82828b8d610f58565b610971565b998a90819061ffff165f5b818110610d3b57505060019a50610d2294610d04610d349a9895610cfa610d1896610ce58f9d9b97610cd481610d0e99610a4a565b90610cde82610a18565b9d8e610f58565b610ced61038e565b9b8c5260ff1660208c0152565b60ff1660408a0152565b60ff166060880152565b60ff166080860152565b60ff1660a0840152565b60c0820152865190610b7e8383610854565b5001610b58565b9160ff919496989a9b9c610c8f610d61610b0c610afe610d6795610d6f999b9d9f61097e565b9f61098f565b9c1690610971565b918a8f9a99989694928e989694610c9f565b610d9d91503d805f833e610d95818361035c565b81019061086d565b5f610ac2565b6108cf565b9050610db5925051610854565b5190565b80511561086857610244602082015160f81c6001610dd682610a18565b9384610f58565b60405190610dec60208361035c565b5f808352366020840137565b90610e02826103ac565b610e0f604051918261035c565b8281528092610a40601f19916103ac565b60021b906203fffc61fffc8316921682036108fc57565b15610e3e57565b60405162461bcd60e51b815260206004820152601960248201527f496e73756666696369656e742070616c657474652064617461000000000000006044820152606490fd5b919091610e9c610baf610ba9610b0c610afe878661097e565b610eb1610ba9610b0c610afe610c1988610901565b179061ffff8216908115610f445790610efb610ed5610ecf83610df8565b9661090f565b93610ef4610eee610ee7865193610e20565b61ffff1690565b86610971565b1115610e37565b5f915b818310610f0b5750505090565b909192610f3b81610f3660206001948601015160e01c610f2b888b610854565b9063ffffffff169052565b61092b565b93019190610efe565b505050610244610f52610ddd565b9261090f565b910191820160209081019291810191015b82601f820110610f93575b828110610f8057505050565b6001818192515f1a845301910190610f74565b8051825260209182019101610f6956fea2646970667358221220af0c6c854c9e409c919759dbb0f3d4b714d4b3e31e17789d4ced64db7769162764736f6c63430008210033",
					"opcodes": "PUSH1 0x80 DUP1 PUSH1 0x40 MSTORE CALLVALUE PUSH1 0x19 JUMPI PUSH2 0xFD9 SWAP1 DUP2 PUSH2 0x1E DUP3 CODECOPY ADDRESS DUP2 POP POP RETURN JUMPDEST PUSH0 DUP1 REVERT INVALID PUSH1 0x80 PUSH1 0x40 MSTORE PUSH1 0x4 CALLDATASIZE LT ISZERO PUSH2 0x11 JUMPI PUSH0 DUP1 REVERT JUMPDEST PUSH0 CALLDATALOAD PUSH1 0xE0 SHR DUP1 PUSH4 0x68B0B907 EQ PUSH2 0x34 JUMPI PUSH4 0xBBD33B62 EQ PUSH2 0x2F JUMPI PUSH0 DUP1 REVERT JUMPDEST PUSH2 0x640 JUMP JUMPDEST PUSH1 0x20 CALLDATASIZE PUSH1 0x3 NOT ADD SLT PUSH2 0xEF JUMPI PUSH1 0x4 CALLDATALOAD PUSH2 0x4D PUSH1 0xC0 PUSH1 0x40 MSTORE JUMP JUMPDEST PUSH1 0x60 PUSH1 0x80 MSTORE PUSH1 0x60 PUSH1 0xA0 MSTORE PUSH2 0x60 DUP2 PUSH2 0x3AC JUMP JUMPDEST PUSH2 0x6D PUSH1 0x40 MLOAD SWAP2 DUP3 PUSH2 0x35C JUMP JUMPDEST DUP2 DUP2 MSTORE PUSH1 0x1F NOT PUSH2 0x7C DUP4 PUSH2 0x3AC JUMP JUMPDEST ADD PUSH0 JUMPDEST DUP2 DUP2 LT PUSH2 0xD8 JUMPI PUSH2 0xD4 DUP4 DUP6 PUSH2 0x94 DUP2 PUSH2 0x3AC JUMP JUMPDEST SWAP1 PUSH2 0xA2 PUSH1 0x40 MLOAD SWAP3 DUP4 PUSH2 0x35C JUMP JUMPDEST DUP1 DUP3 MSTORE PUSH2 0xB1 PUSH1 0x1F NOT SWAP2 PUSH2 0x3AC JUMP JUMPDEST ADD CALLDATASIZE PUSH1 0x20 DUP4 ADD CALLDATACOPY PUSH2 0xC0 PUSH2 0x37D JUMP JUMPDEST SWAP2 DUP3 MSTORE PUSH1 0x20 DUP3 ADD MSTORE PUSH1 0x40 MLOAD SWAP2 DUP3 SWAP2 DUP3 PUSH2 0x263 JUMP JUMPDEST SUB SWAP1 RETURN JUMPDEST PUSH1 0x20 SWAP1 PUSH2 0xE3 PUSH2 0x804 JUMP JUMPDEST DUP3 DUP3 DUP7 ADD ADD MSTORE ADD PUSH2 0x7F JUMP JUMPDEST PUSH0 DUP1 REVERT JUMPDEST DUP1 MLOAD DUP1 DUP4 MSTORE PUSH1 0x20 SWAP3 SWAP2 DUP2 SWAP1 DUP5 ADD DUP5 DUP5 ADD MCOPY PUSH0 DUP3 DUP3 ADD DUP5 ADD MSTORE PUSH1 0x1F ADD PUSH1 0x1F NOT AND ADD ADD SWAP1 JUMP JUMPDEST SWAP1 DUP1 PUSH1 0x20 DUP4 MLOAD SWAP2 DUP3 DUP2 MSTORE ADD SWAP2 PUSH1 0x20 DUP1 DUP4 PUSH1 0x5 SHL DUP4 ADD ADD SWAP5 ADD SWAP3 PUSH0 SWAP2 JUMPDEST DUP4 DUP4 LT PUSH2 0x142 JUMPI POP POP POP POP POP SWAP1 JUMP JUMPDEST SWAP1 SWAP2 SWAP3 SWAP4 SWAP5 PUSH1 0x20 DUP1 PUSH2 0x1C8 PUSH1 0x1 SWAP4 PUSH1 0x1F NOT DUP7 DUP3 SUB ADD DUP8 MSTORE DUP10 MLOAD SWAP1 PUSH1 0xC0 PUSH2 0x171 DUP4 MLOAD PUSH1 0xE0 DUP5 MSTORE PUSH1 0xE0 DUP5 ADD SWAP1 PUSH2 0xF3 JUMP JUMPDEST SWAP3 PUSH1 0xFF DUP7 DUP3 ADD MLOAD AND DUP7 DUP5 ADD MSTORE PUSH1 0xFF PUSH1 0x40 DUP3 ADD MLOAD AND PUSH1 0x40 DUP5 ADD MSTORE PUSH1 0xFF PUSH1 0x60 DUP3 ADD MLOAD AND PUSH1 0x60 DUP5 ADD MSTORE PUSH2 0x1AB PUSH1 0x80 DUP3 ADD MLOAD PUSH1 0x80 DUP6 ADD SWAP1 PUSH1 0xFF AND SWAP1 MSTORE JUMP JUMPDEST PUSH1 0xA0 DUP2 DUP2 ADD MLOAD PUSH1 0xFF AND SWAP1 DUP5 ADD MSTORE ADD MLOAD SWAP1 PUSH1 0xC0 DUP2 DUP5 SUB SWAP2 ADD MSTORE PUSH2 0xF3 JUMP JUMPDEST SWAP8 ADD SWAP4 ADD SWAP4 ADD SWAP2 SWAP4 SWAP3 SWAP1 PUSH2 0x133 JUMP JUMPDEST SWAP1 DUP2 MLOAD DUP2 MSTORE PUSH2 0x1F5 PUSH1 0x20 DUP4 ADD MLOAD PUSH1 0xA0 PUSH1 0x20 DUP5 ADD MSTORE PUSH1 0xA0 DUP4 ADD SWAP1 PUSH2 0xF3 JUMP JUMPDEST PUSH1 0x40 DUP4 ADD MLOAD SWAP1 DUP3 DUP2 SUB PUSH1 0x40 DUP5 ADD MSTORE PUSH1 0x20 DUP1 DUP4 MLOAD SWAP3 DUP4 DUP2 MSTORE ADD SWAP3 ADD SWAP1 PUSH0 JUMPDEST DUP2 DUP2 LT PUSH2 0x247 JUMPI POP POP POP SWAP1 PUSH1 0x80 DUP1 PUSH2 0x239 PUSH2 0x244 SWAP5 PUSH1 0x60 DUP8 ADD MLOAD DUP6 DUP3 SUB PUSH1 0x60 DUP8 ADD MSTORE PUSH2 0x117 JUMP JUMPDEST SWAP5 ADD MLOAD PUSH1 0xFF AND SWAP2 ADD MSTORE JUMP JUMPDEST SWAP1 JUMP JUMPDEST DUP3 MLOAD PUSH4 0xFFFFFFFF AND DUP5 MSTORE PUSH1 0x20 SWAP4 DUP5 ADD SWAP4 SWAP1 SWAP3 ADD SWAP2 PUSH1 0x1 ADD PUSH2 0x212 JUMP JUMPDEST SWAP1 PUSH1 0x20 DUP3 MSTORE PUSH1 0x60 DUP3 ADD SWAP1 DUP1 MLOAD SWAP2 PUSH1 0x40 PUSH1 0x20 DUP6 ADD MSTORE DUP3 MLOAD DUP1 SWAP2 MSTORE PUSH1 0x80 DUP5 ADD SWAP1 PUSH1 0x20 PUSH1 0x80 DUP3 PUSH1 0x5 SHL DUP8 ADD ADD SWAP5 ADD SWAP2 PUSH0 SWAP1 JUMPDEST DUP3 DUP3 LT PUSH2 0x2E2 JUMPI POP POP POP POP PUSH1 0x20 ADD MLOAD SWAP2 PUSH1 0x40 PUSH1 0x1F NOT DUP3 DUP5 SUB ADD SWAP2 ADD MSTORE PUSH1 0x20 DUP1 DUP4 MLOAD SWAP3 DUP4 DUP2 MSTORE ADD SWAP3 ADD SWAP1 PUSH0 JUMPDEST DUP2 DUP2 LT PUSH2 0x2CA JUMPI POP POP POP SWAP1 JUMP JUMPDEST DUP3 MLOAD ISZERO ISZERO DUP5 MSTORE PUSH1 0x20 SWAP4 DUP5 ADD SWAP4 SWAP1 SWAP3 ADD SWAP2 PUSH1 0x1 ADD PUSH2 0x2BD JUMP JUMPDEST SWAP1 SWAP2 SWAP3 SWAP5 PUSH1 0x20 DUP1 PUSH2 0x2FF PUSH1 0x1 SWAP4 PUSH1 0x7F NOT DUP12 DUP3 SUB ADD DUP7 MSTORE DUP10 MLOAD PUSH2 0x1D7 JUMP JUMPDEST SWAP8 ADD SWAP3 ADD SWAP3 ADD SWAP1 SWAP3 SWAP2 PUSH2 0x292 JUMP JUMPDEST PUSH4 0x4E487B71 PUSH1 0xE0 SHL PUSH0 MSTORE PUSH1 0x41 PUSH1 0x4 MSTORE PUSH1 0x24 PUSH0 REVERT JUMPDEST PUSH1 0x40 DUP2 ADD SWAP1 DUP2 LT PUSH1 0x1 PUSH1 0x1 PUSH1 0x40 SHL SUB DUP3 GT OR PUSH2 0x33C JUMPI PUSH1 0x40 MSTORE JUMP JUMPDEST PUSH2 0x30D JUMP JUMPDEST PUSH1 0xE0 DUP2 ADD SWAP1 DUP2 LT PUSH1 0x1 PUSH1 0x1 PUSH1 0x40 SHL SUB DUP3 GT OR PUSH2 0x33C JUMPI PUSH1 0x40 MSTORE JUMP JUMPDEST SWAP1 PUSH1 0x1F DUP1 NOT SWAP2 ADD AND DUP2 ADD SWAP1 DUP2 LT PUSH1 0x1 PUSH1 0x1 PUSH1 0x40 SHL SUB DUP3 GT OR PUSH2 0x33C JUMPI PUSH1 0x40 MSTORE JUMP JUMPDEST PUSH1 0x40 MLOAD SWAP1 PUSH2 0x38C PUSH1 0x40 DUP4 PUSH2 0x35C JUMP JUMPDEST JUMP JUMPDEST PUSH1 0x40 MLOAD SWAP1 PUSH2 0x38C PUSH1 0xE0 DUP4 PUSH2 0x35C JUMP JUMPDEST PUSH1 0x40 MLOAD SWAP1 PUSH2 0x38C PUSH1 0xA0 DUP4 PUSH2 0x35C JUMP JUMPDEST PUSH1 0x1 PUSH1 0x1 PUSH1 0x40 SHL SUB DUP2 GT PUSH2 0x33C JUMPI PUSH1 0x5 SHL PUSH1 0x20 ADD SWAP1 JUMP JUMPDEST PUSH1 0x1 PUSH1 0x1 PUSH1 0x40 SHL SUB DUP2 GT PUSH2 0x33C JUMPI PUSH1 0x1F ADD PUSH1 0x1F NOT AND PUSH1 0x20 ADD SWAP1 JUMP JUMPDEST DUP2 PUSH1 0x1F DUP3 ADD SLT ISZERO PUSH2 0xEF JUMPI DUP1 CALLDATALOAD SWAP1 PUSH2 0x3F5 DUP3 PUSH2 0x3C3 JUMP JUMPDEST SWAP3 PUSH2 0x403 PUSH1 0x40 MLOAD SWAP5 DUP6 PUSH2 0x35C JUMP JUMPDEST DUP3 DUP5 MSTORE PUSH1 0x20 DUP4 DUP4 ADD ADD GT PUSH2 0xEF JUMPI DUP2 PUSH0 SWAP3 PUSH1 0x20 DUP1 SWAP4 ADD DUP4 DUP7 ADD CALLDATACOPY DUP4 ADD ADD MSTORE SWAP1 JUMP JUMPDEST SWAP1 DUP1 PUSH1 0x1F DUP4 ADD SLT ISZERO PUSH2 0xEF JUMPI DUP2 CALLDATALOAD SWAP1 PUSH2 0x43C DUP3 PUSH2 0x3AC JUMP JUMPDEST SWAP3 PUSH2 0x44A PUSH1 0x40 MLOAD SWAP5 DUP6 PUSH2 0x35C JUMP JUMPDEST DUP3 DUP5 MSTORE PUSH1 0x20 DUP1 DUP6 ADD SWAP4 PUSH1 0x5 SHL DUP3 ADD ADD SWAP2 DUP3 GT PUSH2 0xEF JUMPI PUSH1 0x20 ADD SWAP2 JUMPDEST DUP2 DUP4 LT PUSH2 0x472 JUMPI POP POP POP SWAP1 JUMP JUMPDEST DUP3 CALLDATALOAD PUSH4 0xFFFFFFFF DUP2 AND DUP2 SUB PUSH2 0xEF JUMPI DUP2 MSTORE PUSH1 0x20 SWAP3 DUP4 ADD SWAP3 ADD PUSH2 0x465 JUMP JUMPDEST CALLDATALOAD SWAP1 PUSH1 0xFF DUP3 AND DUP3 SUB PUSH2 0xEF JUMPI JUMP JUMPDEST SWAP1 DUP1 PUSH1 0x1F DUP4 ADD SLT ISZERO PUSH2 0xEF JUMPI DUP2 CALLDATALOAD SWAP2 PUSH2 0x4B5 DUP4 PUSH2 0x3AC JUMP JUMPDEST SWAP3 PUSH2 0x4C3 PUSH1 0x40 MLOAD SWAP5 DUP6 PUSH2 0x35C JUMP JUMPDEST DUP1 DUP5 MSTORE PUSH1 0x20 DUP1 DUP6 ADD SWAP2 PUSH1 0x5 SHL DUP4 ADD ADD SWAP2 DUP4 DUP4 GT PUSH2 0xEF JUMPI PUSH1 0x20 DUP2 ADD SWAP2 JUMPDEST DUP4 DUP4 LT PUSH2 0x4EF JUMPI POP POP POP POP POP SWAP1 JUMP JUMPDEST DUP3 CALLDATALOAD PUSH1 0x1 PUSH1 0x1 PUSH1 0x40 SHL SUB DUP2 GT PUSH2 0xEF JUMPI DUP3 ADD SWAP1 PUSH1 0xE0 DUP3 DUP8 SUB PUSH1 0x1F NOT ADD SLT PUSH2 0xEF JUMPI PUSH2 0x518 PUSH2 0x38E JUMP JUMPDEST SWAP1 PUSH1 0x20 DUP4 ADD CALLDATALOAD PUSH1 0x1 PUSH1 0x1 PUSH1 0x40 SHL SUB DUP2 GT PUSH2 0xEF JUMPI DUP8 PUSH1 0x20 PUSH2 0x53B SWAP3 DUP7 ADD ADD PUSH2 0x3DE JUMP JUMPDEST DUP3 MSTORE PUSH2 0x549 PUSH1 0x40 DUP5 ADD PUSH2 0x48F JUMP JUMPDEST PUSH1 0x20 DUP4 ADD MSTORE PUSH2 0x55A PUSH1 0x60 DUP5 ADD PUSH2 0x48F JUMP JUMPDEST PUSH1 0x40 DUP4 ADD MSTORE PUSH2 0x56B PUSH1 0x80 DUP5 ADD PUSH2 0x48F JUMP JUMPDEST PUSH1 0x60 DUP4 ADD MSTORE PUSH2 0x57C PUSH1 0xA0 DUP5 ADD PUSH2 0x48F JUMP JUMPDEST PUSH1 0x80 DUP4 ADD MSTORE PUSH2 0x58D PUSH1 0xC0 DUP5 ADD PUSH2 0x48F JUMP JUMPDEST PUSH1 0xA0 DUP4 ADD MSTORE PUSH1 0xE0 DUP4 ADD CALLDATALOAD SWAP2 PUSH1 0x1 PUSH1 0x1 PUSH1 0x40 SHL SUB DUP4 GT PUSH2 0xEF JUMPI PUSH2 0x5B8 DUP9 PUSH1 0x20 DUP1 SWAP7 SWAP6 DUP2 SWAP7 ADD ADD PUSH2 0x3DE JUMP JUMPDEST PUSH1 0xC0 DUP3 ADD MSTORE DUP2 MSTORE ADD SWAP3 ADD SWAP2 PUSH2 0x4E0 JUMP JUMPDEST SWAP1 DUP1 PUSH1 0x1F DUP4 ADD SLT ISZERO PUSH2 0xEF JUMPI DUP2 CALLDATALOAD SWAP1 PUSH2 0x5E0 DUP3 PUSH2 0x3AC JUMP JUMPDEST SWAP3 PUSH2 0x5EE PUSH1 0x40 MLOAD SWAP5 DUP6 PUSH2 0x35C JUMP JUMPDEST DUP3 DUP5 MSTORE PUSH1 0x20 DUP1 DUP6 ADD SWAP4 PUSH1 0x5 SHL DUP3 ADD ADD SWAP2 DUP3 GT PUSH2 0xEF JUMPI PUSH1 0x20 ADD SWAP2 JUMPDEST DUP2 DUP4 LT PUSH2 0x616 JUMPI POP POP POP SWAP1 JUMP JUMPDEST DUP3 CALLDATALOAD DUP1 ISZERO ISZERO DUP2 SUB PUSH2 0xEF JUMPI DUP2 MSTORE PUSH1 0x20 SWAP3 DUP4 ADD SWAP3 ADD PUSH2 0x609 JUMP JUMPDEST SWAP1 PUSH1 0x20 PUSH2 0x244 SWAP3 DUP2 DUP2 MSTORE ADD SWAP1 PUSH2 0x1D7 JUMP JUMPDEST PUSH1 0x60 CALLDATASIZE PUSH1 0x3 NOT ADD SLT PUSH2 0xEF JUMPI PUSH1 0x4 CALLDATALOAD PUSH1 0x1 PUSH1 0x1 PUSH1 0xA0 SHL SUB DUP2 AND DUP2 SUB PUSH2 0xEF JUMPI PUSH1 0x24 CALLDATALOAD PUSH1 0x1 PUSH1 0x1 PUSH1 0x40 SHL SUB DUP2 GT PUSH2 0xEF JUMPI PUSH1 0x40 PUSH1 0x3 NOT DUP3 CALLDATASIZE SUB ADD SLT PUSH2 0xEF JUMPI PUSH1 0x40 MLOAD SWAP2 PUSH2 0x68B DUP4 PUSH2 0x321 JUMP JUMPDEST DUP2 PUSH1 0x4 ADD CALLDATALOAD PUSH1 0x1 PUSH1 0x1 PUSH1 0x40 SHL SUB DUP2 GT PUSH2 0xEF JUMPI DUP3 ADD CALLDATASIZE PUSH1 0x23 DUP3 ADD SLT ISZERO PUSH2 0xEF JUMPI PUSH1 0x4 DUP2 ADD CALLDATALOAD PUSH2 0x6B9 DUP2 PUSH2 0x3AC JUMP JUMPDEST SWAP2 PUSH2 0x6C7 PUSH1 0x40 MLOAD SWAP4 DUP5 PUSH2 0x35C JUMP JUMPDEST DUP2 DUP4 MSTORE PUSH1 0x20 PUSH1 0x4 DUP2 DUP6 ADD SWAP4 PUSH1 0x5 SHL DUP4 ADD ADD ADD SWAP1 CALLDATASIZE DUP3 GT PUSH2 0xEF JUMPI PUSH1 0x24 DUP2 ADD SWAP3 JUMPDEST DUP3 DUP5 LT PUSH2 0x738 JUMPI POP POP POP POP DUP4 MSTORE PUSH1 0x24 DUP3 ADD CALLDATALOAD SWAP3 PUSH1 0x1 PUSH1 0x1 PUSH1 0x40 SHL SUB DUP5 GT PUSH2 0xEF JUMPI PUSH2 0x71E PUSH2 0x72C SWAP4 PUSH1 0x4 PUSH2 0xD4 SWAP7 CALLDATASIZE SWAP3 ADD ADD PUSH2 0x5C8 JUMP JUMPDEST PUSH1 0x20 DUP3 ADD MSTORE PUSH1 0x44 CALLDATALOAD SWAP2 PUSH2 0xA57 JUMP JUMPDEST PUSH1 0x40 MLOAD SWAP2 DUP3 SWAP2 DUP3 PUSH2 0x62F JUMP JUMPDEST DUP4 CALLDATALOAD PUSH1 0x1 PUSH1 0x1 PUSH1 0x40 SHL SUB DUP2 GT PUSH2 0xEF JUMPI PUSH1 0x4 SWAP1 DUP4 ADD ADD SWAP1 PUSH1 0xA0 PUSH1 0x1F NOT DUP4 CALLDATASIZE SUB ADD SLT PUSH2 0xEF JUMPI PUSH2 0x765 PUSH2 0x39D JUMP JUMPDEST SWAP1 PUSH1 0x20 DUP4 ADD CALLDATALOAD DUP3 MSTORE PUSH1 0x40 DUP4 ADD CALLDATALOAD PUSH1 0x1 PUSH1 0x1 PUSH1 0x40 SHL SUB DUP2 GT PUSH2 0xEF JUMPI PUSH2 0x790 SWAP1 PUSH1 0x20 CALLDATASIZE SWAP2 DUP7 ADD ADD PUSH2 0x3DE JUMP JUMPDEST PUSH1 0x20 DUP4 ADD MSTORE PUSH1 0x60 DUP4 ADD CALLDATALOAD PUSH1 0x1 PUSH1 0x1 PUSH1 0x40 SHL SUB DUP2 GT PUSH2 0xEF JUMPI PUSH2 0x7B8 SWAP1 PUSH1 0x20 CALLDATASIZE SWAP2 DUP7 ADD ADD PUSH2 0x424 JUMP JUMPDEST PUSH1 0x40 DUP4 ADD MSTORE PUSH1 0x80 DUP4 ADD CALLDATALOAD SWAP2 PUSH1 0x1 PUSH1 0x1 PUSH1 0x40 SHL SUB DUP4 GT PUSH2 0xEF JUMPI PUSH2 0x7F4 PUSH1 0xA0 PUSH1 0x20 SWAP6 PUSH2 0x7E9 DUP8 SWAP7 DUP8 CALLDATASIZE SWAP2 DUP5 ADD ADD PUSH2 0x49D JUMP JUMPDEST PUSH1 0x60 DUP6 ADD MSTORE ADD PUSH2 0x48F JUMP JUMPDEST PUSH1 0x80 DUP3 ADD MSTORE DUP2 MSTORE ADD SWAP4 ADD SWAP3 PUSH2 0x6E7 JUMP JUMPDEST PUSH1 0x40 MLOAD SWAP1 PUSH1 0xA0 DUP3 ADD DUP3 DUP2 LT PUSH1 0x1 PUSH1 0x1 PUSH1 0x40 SHL SUB DUP3 GT OR PUSH2 0x33C JUMPI PUSH1 0x40 MSTORE PUSH0 PUSH1 0x80 DUP4 DUP3 DUP2 MSTORE PUSH1 0x60 PUSH1 0x20 DUP3 ADD MSTORE PUSH1 0x60 PUSH1 0x40 DUP3 ADD MSTORE PUSH1 0x60 DUP1 DUP3 ADD MSTORE ADD MSTORE JUMP JUMPDEST PUSH4 0x4E487B71 PUSH1 0xE0 SHL PUSH0 MSTORE PUSH1 0x32 PUSH1 0x4 MSTORE PUSH1 0x24 PUSH0 REVERT JUMPDEST DUP1 MLOAD DUP3 LT ISZERO PUSH2 0x868 JUMPI PUSH1 0x20 SWAP2 PUSH1 0x5 SHL ADD ADD SWAP1 JUMP JUMPDEST PUSH2 0x840 JUMP JUMPDEST PUSH1 0x20 DUP2 DUP4 SUB SLT PUSH2 0xEF JUMPI DUP1 MLOAD SWAP1 PUSH1 0x1 PUSH1 0x1 PUSH1 0x40 SHL SUB DUP3 GT PUSH2 0xEF JUMPI ADD DUP2 PUSH1 0x1F DUP3 ADD SLT ISZERO PUSH2 0xEF JUMPI DUP1 MLOAD SWAP1 PUSH2 0x8A0 DUP3 PUSH2 0x3C3 JUMP JUMPDEST SWAP3 PUSH2 0x8AE PUSH1 0x40 MLOAD SWAP5 DUP6 PUSH2 0x35C JUMP JUMPDEST DUP3 DUP5 MSTORE PUSH1 0x20 DUP4 DUP4 ADD ADD GT PUSH2 0xEF JUMPI DUP2 PUSH0 SWAP3 PUSH1 0x20 DUP1 SWAP4 ADD DUP4 DUP7 ADD MCOPY DUP4 ADD ADD MSTORE SWAP1 JUMP JUMPDEST PUSH1 0x40 MLOAD RETURNDATASIZE PUSH0 DUP3 RETURNDATACOPY RETURNDATASIZE SWAP1 REVERT JUMPDEST PUSH4 0x4E487B71 PUSH1 0xE0 SHL PUSH0 MSTORE PUSH1 0x11 PUSH1 0x4 MSTORE PUSH1 0x24 PUSH0 REVERT JUMPDEST PUSH1 0x1 ADD SWAP1 DUP2 PUSH1 0x1 GT PUSH2 0x8FC JUMPI JUMP JUMPDEST PUSH2 0x8DA JUMP JUMPDEST SWAP1 PUSH1 0x1 DUP3 ADD DUP1 SWAP3 GT PUSH2 0x8FC JUMPI JUMP JUMPDEST SWAP1 PUSH1 0x2 DUP3 ADD DUP1 SWAP3 GT PUSH2 0x8FC JUMPI JUMP JUMPDEST SWAP1 PUSH1 0x3 DUP3 ADD DUP1 SWAP3 GT PUSH2 0x8FC JUMPI JUMP JUMPDEST SWAP1 PUSH1 0x4 DUP3 ADD DUP1 SWAP3 GT PUSH2 0x8FC JUMPI JUMP JUMPDEST SWAP1 PUSH1 0x5 DUP3 ADD DUP1 SWAP3 GT PUSH2 0x8FC JUMPI JUMP JUMPDEST SWAP1 PUSH1 0x6 DUP3 ADD DUP1 SWAP3 GT PUSH2 0x8FC JUMPI JUMP JUMPDEST SWAP1 PUSH1 0x7 DUP3 ADD DUP1 SWAP3 GT PUSH2 0x8FC JUMPI JUMP JUMPDEST SWAP1 PUSH1 0x8 DUP3 ADD DUP1 SWAP3 GT PUSH2 0x8FC JUMPI JUMP JUMPDEST SWAP2 SWAP1 DUP3 ADD DUP1 SWAP3 GT PUSH2 0x8FC JUMPI JUMP JUMPDEST SWAP1 DUP2 MLOAD DUP2 LT ISZERO PUSH2 0x868 JUMPI ADD PUSH1 0x20 ADD SWAP1 JUMP JUMPDEST PUSH0 NOT DUP2 EQ PUSH2 0x8FC JUMPI PUSH1 0x1 ADD SWAP1 JUMP JUMPDEST SWAP1 PUSH2 0x9A7 DUP3 PUSH2 0x3AC JUMP JUMPDEST PUSH2 0x9B4 PUSH1 0x40 MLOAD SWAP2 DUP3 PUSH2 0x35C JUMP JUMPDEST DUP3 DUP2 MSTORE DUP1 SWAP3 PUSH2 0x9C5 PUSH1 0x1F NOT SWAP2 PUSH2 0x3AC JUMP JUMPDEST ADD SWAP1 PUSH0 JUMPDEST DUP3 DUP2 LT PUSH2 0x9D5 JUMPI POP POP POP JUMP JUMPDEST PUSH1 0x20 SWAP1 PUSH1 0x40 MLOAD PUSH2 0x9E4 DUP2 PUSH2 0x341 JUMP JUMPDEST PUSH1 0x60 DUP2 MSTORE PUSH0 DUP4 DUP3 ADD MSTORE PUSH0 PUSH1 0x40 DUP3 ADD MSTORE PUSH0 PUSH1 0x60 DUP3 ADD MSTORE PUSH0 PUSH1 0x80 DUP3 ADD MSTORE PUSH0 PUSH1 0xA0 DUP3 ADD MSTORE PUSH1 0x60 PUSH1 0xC0 DUP3 ADD MSTORE DUP3 DUP3 DUP6 ADD ADD MSTORE ADD PUSH2 0x9C9 JUMP JUMPDEST SWAP1 PUSH2 0xA22 DUP3 PUSH2 0x3C3 JUMP JUMPDEST PUSH2 0xA2F PUSH1 0x40 MLOAD SWAP2 DUP3 PUSH2 0x35C JUMP JUMPDEST DUP3 DUP2 MSTORE DUP1 SWAP3 PUSH2 0xA40 PUSH1 0x1F NOT SWAP2 PUSH2 0x3C3 JUMP JUMPDEST ADD SWAP1 PUSH1 0x20 CALLDATASIZE SWAP2 ADD CALLDATACOPY JUMP JUMPDEST SWAP2 SWAP1 DUP3 SUB SWAP2 DUP3 GT PUSH2 0x8FC JUMPI JUMP JUMPDEST SWAP2 SWAP1 PUSH2 0xA61 PUSH2 0x804 JUMP JUMPDEST POP PUSH1 0x20 DUP2 ADD SWAP1 PUSH2 0xA7B PUSH2 0xA75 DUP5 DUP5 MLOAD PUSH2 0x854 JUMP JUMPDEST MLOAD ISZERO ISZERO SWAP1 JUMP JUMPDEST PUSH2 0xDA8 JUMPI PUSH2 0xA87 PUSH2 0x804 JUMP JUMPDEST DUP4 DUP2 MSTORE PUSH1 0x40 MLOAD PUSH4 0x245A851F PUSH1 0xE1 SHL DUP2 MSTORE PUSH1 0x4 DUP2 ADD DUP6 SWAP1 MSTORE SWAP1 SWAP5 PUSH0 SWAP1 DUP3 SWAP1 PUSH1 0x24 SWAP1 DUP3 SWAP1 PUSH1 0x1 PUSH1 0x1 PUSH1 0xA0 SHL SUB AND GAS STATICCALL SWAP1 DUP2 ISZERO PUSH2 0xDA3 JUMPI PUSH0 SWAP2 PUSH2 0xD81 JUMPI JUMPDEST POP PUSH2 0xAE4 PUSH2 0xADE PUSH2 0xAD2 DUP4 PUSH2 0xDB9 JUMP JUMPDEST DUP1 PUSH1 0x20 DUP10 ADD MSTORE MLOAD PUSH2 0x8EE JUMP JUMPDEST DUP3 PUSH2 0xE83 JUMP JUMPDEST SWAP2 SWAP1 PUSH1 0x40 DUP8 ADD MSTORE PUSH2 0xB21 PUSH2 0xB12 PUSH2 0xB0C PUSH2 0xAFE DUP6 DUP6 PUSH2 0x97E JUMP JUMPDEST MLOAD PUSH1 0x1 PUSH1 0x1 PUSH1 0xF8 SHL SUB NOT AND SWAP1 JUMP JUMPDEST PUSH1 0xF8 SHR SWAP1 JUMP JUMPDEST PUSH1 0xFF DUP2 AND PUSH1 0x80 DUP10 ADD MSTORE SWAP3 PUSH2 0x98F JUMP JUMPDEST SWAP1 PUSH1 0xFF PUSH2 0xB3D PUSH2 0xB37 PUSH2 0xB0C PUSH2 0xAFE DUP7 DUP7 PUSH2 0x97E JUMP JUMPDEST SWAP4 PUSH2 0x98F JUMP JUMPDEST SWAP3 AND SWAP2 PUSH2 0xB49 DUP4 PUSH2 0x99D JUMP JUMPDEST SWAP1 PUSH1 0x60 DUP10 ADD SWAP2 DUP3 MSTORE PUSH1 0xFF PUSH0 SWAP6 AND SWAP5 JUMPDEST DUP5 DUP2 LT PUSH2 0xB91 JUMPI POP POP POP POP POP POP SWAP2 PUSH2 0xB8B SWAP2 PUSH2 0xB84 DUP3 PUSH2 0x244 SWAP6 MLOAD DUP8 PUSH2 0xB7E DUP4 DUP4 PUSH2 0x854 JUMP JUMPDEST MSTORE PUSH2 0x854 JUMP JUMPDEST POP MLOAD PUSH2 0x854 JUMP JUMPDEST PUSH1 0x1 SWAP1 MSTORE JUMP JUMPDEST DUP6 SWAP1 PUSH2 0xBB9 PUSH2 0xBAF PUSH2 0xBA9 PUSH2 0xB0C PUSH2 0xAFE DUP8 DUP11 PUSH2 0x97E JUMP JUMPDEST PUSH1 0xFF AND SWAP1 JUMP JUMPDEST PUSH1 0x8 SHL PUSH2 0xFF00 AND SWAP1 JUMP JUMPDEST PUSH2 0xBD4 PUSH2 0xBA9 PUSH2 0xB0C PUSH2 0xAFE PUSH2 0xBCE DUP9 PUSH2 0x901 JUMP JUMPDEST DUP11 PUSH2 0x97E JUMP JUMPDEST OR SWAP3 DUP6 PUSH2 0xBEF PUSH2 0xB0C PUSH2 0xAFE PUSH2 0xBE9 DUP6 PUSH2 0x90F JUMP JUMPDEST DUP5 PUSH2 0x97E JUMP JUMPDEST PUSH2 0xC07 PUSH2 0xB0C PUSH2 0xAFE PUSH2 0xC01 DUP7 PUSH2 0x91D JUMP JUMPDEST DUP6 PUSH2 0x97E JUMP JUMPDEST PUSH2 0xC1F PUSH2 0xB0C PUSH2 0xAFE PUSH2 0xC19 DUP8 PUSH2 0x92B JUMP JUMPDEST DUP7 PUSH2 0x97E JUMP JUMPDEST SWAP1 PUSH2 0xC38 PUSH2 0xB0C PUSH2 0xAFE PUSH2 0xC32 DUP9 PUSH2 0x939 JUMP JUMPDEST DUP8 PUSH2 0x97E JUMP JUMPDEST SWAP3 PUSH2 0xC51 PUSH2 0xB0C PUSH2 0xAFE PUSH2 0xC4B DUP10 PUSH2 0x947 JUMP JUMPDEST DUP9 PUSH2 0x97E JUMP JUMPDEST PUSH2 0xC94 PUSH1 0xFF PUSH2 0xC77 PUSH2 0xC71 PUSH2 0xB0C PUSH2 0xAFE PUSH2 0xC6B DUP14 PUSH2 0x955 JUMP JUMPDEST DUP13 PUSH2 0x97E JUMP JUMPDEST SWAP10 PUSH2 0x963 JUMP JUMPDEST SWAP9 AND PUSH2 0xC82 DUP2 PUSH2 0xA18 JUMP JUMPDEST SWAP9 PUSH2 0xC8F DUP3 DUP3 DUP12 DUP14 PUSH2 0xF58 JUMP JUMPDEST PUSH2 0x971 JUMP JUMPDEST SWAP10 DUP11 SWAP1 DUP2 SWAP1 PUSH2 0xFFFF AND PUSH0 JUMPDEST DUP2 DUP2 LT PUSH2 0xD3B JUMPI POP POP PUSH1 0x1 SWAP11 POP PUSH2 0xD22 SWAP5 PUSH2 0xD04 PUSH2 0xD34 SWAP11 SWAP9 SWAP6 PUSH2 0xCFA PUSH2 0xD18 SWAP7 PUSH2 0xCE5 DUP16 SWAP14 SWAP12 SWAP8 PUSH2 0xCD4 DUP2 PUSH2 0xD0E SWAP10 PUSH2 0xA4A JUMP JUMPDEST SWAP1 PUSH2 0xCDE DUP3 PUSH2 0xA18 JUMP JUMPDEST SWAP14 DUP15 PUSH2 0xF58 JUMP JUMPDEST PUSH2 0xCED PUSH2 0x38E JUMP JUMPDEST SWAP12 DUP13 MSTORE PUSH1 0xFF AND PUSH1 0x20 DUP13 ADD MSTORE JUMP JUMPDEST PUSH1 0xFF AND PUSH1 0x40 DUP11 ADD MSTORE JUMP JUMPDEST PUSH1 0xFF AND PUSH1 0x60 DUP9 ADD MSTORE JUMP JUMPDEST PUSH1 0xFF AND PUSH1 0x80 DUP7 ADD MSTORE JUMP JUMPDEST PUSH1 0xFF AND PUSH1 0xA0 DUP5 ADD MSTORE JUMP JUMPDEST PUSH1 0xC0 DUP3 ADD MSTORE DUP7 MLOAD SWAP1 PUSH2 0xB7E DUP4 DUP4 PUSH2 0x854 JUMP JUMPDEST POP ADD PUSH2 0xB58 JUMP JUMPDEST SWAP2 PUSH1 0xFF SWAP2 SWAP5 SWAP7 SWAP9 SWAP11 SWAP12 SWAP13 PUSH2 0xC8F PUSH2 0xD61 PUSH2 0xB0C PUSH2 0xAFE PUSH2 0xD67 SWAP6 PUSH2 0xD6F SWAP10 SWAP12 SWAP14 SWAP16 PUSH2 0x97E JUMP JUMPDEST SWAP16 PUSH2 0x98F JUMP JUMPDEST SWAP13 AND SWAP1 PUSH2 0x971 JUMP JUMPDEST SWAP2 DUP11 DUP16 SWAP11 SWAP10 SWAP9 SWAP7 SWAP5 SWAP3 DUP15 SWAP9 SWAP7 SWAP5 PUSH2 0xC9F JUMP JUMPDEST PUSH2 0xD9D SWAP2 POP RETURNDATASIZE DUP1 PUSH0 DUP4 RETURNDATACOPY PUSH2 0xD95 DUP2 DUP4 PUSH2 0x35C JUMP JUMPDEST DUP2 ADD SWAP1 PUSH2 0x86D JUMP JUMPDEST PUSH0 PUSH2 0xAC2 JUMP JUMPDEST PUSH2 0x8CF JUMP JUMPDEST SWAP1 POP PUSH2 0xDB5 SWAP3 POP MLOAD PUSH2 0x854 JUMP JUMPDEST MLOAD SWAP1 JUMP JUMPDEST DUP1 MLOAD ISZERO PUSH2 0x868 JUMPI PUSH2 0x244 PUSH1 0x20 DUP3 ADD MLOAD PUSH1 0xF8 SHR PUSH1 0x1 PUSH2 0xDD6 DUP3 PUSH2 0xA18 JUMP JUMPDEST SWAP4 DUP5 PUSH2 0xF58 JUMP JUMPDEST PUSH1 0x40 MLOAD SWAP1 PUSH2 0xDEC PUSH1 0x20 DUP4 PUSH2 0x35C JUMP JUMPDEST PUSH0 DUP1 DUP4 MSTORE CALLDATASIZE PUSH1 0x20 DUP5 ADD CALLDATACOPY JUMP JUMPDEST SWAP1 PUSH2 0xE02 DUP3 PUSH2 0x3AC JUMP JUMPDEST PUSH2 0xE0F PUSH1 0x40 MLOAD SWAP2 DUP3 PUSH2 0x35C JUMP JUMPDEST DUP3 DUP2 MSTORE DUP1 SWAP3 PUSH2 0xA40 PUSH1 0x1F NOT SWAP2 PUSH2 0x3AC JUMP JUMPDEST PUSH1 0x2 SHL SWAP1 PUSH3 0x3FFFC PUSH2 0xFFFC DUP4 AND SWAP3 AND DUP3 SUB PUSH2 0x8FC JUMPI JUMP JUMPDEST ISZERO PUSH2 0xE3E JUMPI JUMP JUMPDEST PUSH1 0x40 MLOAD PUSH3 0x461BCD PUSH1 0xE5 SHL DUP2 MSTORE PUSH1 0x20 PUSH1 0x4 DUP3 ADD MSTORE PUSH1 0x19 PUSH1 0x24 DUP3 ADD MSTORE PUSH32 0x496E73756666696369656E742070616C65747465206461746100000000000000 PUSH1 0x44 DUP3 ADD MSTORE PUSH1 0x64 SWAP1 REVERT JUMPDEST SWAP2 SWAP1 SWAP2 PUSH2 0xE9C PUSH2 0xBAF PUSH2 0xBA9 PUSH2 0xB0C PUSH2 0xAFE DUP8 DUP7 PUSH2 0x97E JUMP JUMPDEST PUSH2 0xEB1 PUSH2 0xBA9 PUSH2 0xB0C PUSH2 0xAFE PUSH2 0xC19 DUP9 PUSH2 0x901 JUMP JUMPDEST OR SWAP1 PUSH2 0xFFFF DUP3 AND SWAP1 DUP2 ISZERO PUSH2 0xF44 JUMPI SWAP1 PUSH2 0xEFB PUSH2 0xED5 PUSH2 0xECF DUP4 PUSH2 0xDF8 JUMP JUMPDEST SWAP7 PUSH2 0x90F JUMP JUMPDEST SWAP4 PUSH2 0xEF4 PUSH2 0xEEE PUSH2 0xEE7 DUP7 MLOAD SWAP4 PUSH2 0xE20 JUMP JUMPDEST PUSH2 0xFFFF AND SWAP1 JUMP JUMPDEST DUP7 PUSH2 0x971 JUMP JUMPDEST GT ISZERO PUSH2 0xE37 JUMP JUMPDEST PUSH0 SWAP2 JUMPDEST DUP2 DUP4 LT PUSH2 0xF0B JUMPI POP POP POP SWAP1 JUMP JUMPDEST SWAP1 SWAP2 SWAP3 PUSH2 0xF3B DUP2 PUSH2 0xF36 PUSH1 0x20 PUSH1 0x1 SWAP5 DUP7 ADD ADD MLOAD PUSH1 0xE0 SHR PUSH2 0xF2B DUP9 DUP12 PUSH2 0x854 JUMP JUMPDEST SWAP1 PUSH4 0xFFFFFFFF AND SWAP1 MSTORE JUMP JUMPDEST PUSH2 0x92B JUMP JUMPDEST SWAP4 ADD SWAP2 SWAP1 PUSH2 0xEFE JUMP JUMPDEST POP POP POP PUSH2 0x244 PUSH2 0xF52 PUSH2 0xDDD JUMP JUMPDEST SWAP3 PUSH2 0x90F JUMP JUMPDEST SWAP2 ADD SWAP2 DUP3 ADD PUSH1 0x20 SWAP1 DUP2 ADD SWAP3 SWAP2 DUP2 ADD SWAP2 ADD JUMPDEST DUP3 PUSH1 0x1F DUP3 ADD LT PUSH2 0xF93 JUMPI JUMPDEST DUP3 DUP2 LT PUSH2 0xF80 JUMPI POP POP POP JUMP JUMPDEST PUSH1 0x1 DUP2 DUP2 SWAP3 MLOAD PUSH0 BYTE DUP5 MSTORE8 ADD SWAP2 ADD SWAP1 PUSH2 0xF74 JUMP JUMPDEST DUP1 MLOAD DUP3 MSTORE PUSH1 0x20 SWAP2 DUP3 ADD SWAP2 ADD PUSH2 0xF69 JUMP INVALID LOG2 PUSH5 0x6970667358 0x22 SLT KECCAK256 0xAF 0xC PUSH13 0x854C9E409C919759DBB0F3D4B7 EQ 0xD4 0xB3 CALLF 0x1E17 PUSH25 0x9D4CED64DB7769162764736F6C634300082100330000000000 "
				},
				"gasEstimates": {
					"creation": {
						"codeDepositCost": "811400",
						"executionCost": "infinite",
						"totalCost": "infinite"
					},
					"external": {
						"initCachedTraitGroups(uint256)": "infinite",
						"loadAndCacheTraitGroup(IAssets,CachedTraitGroups,uint256)": "infinite"
					},
					"internal": {
						"_decodeTraitGroupName(bytes memory,uint256)": "infinite",
						"_decodeTraitGroupPalette(bytes memory,uint256)": "infinite",
						"_memoryCopy(bytes memory,uint256,bytes memory,uint256,uint256)": "infinite"
					}
				},
				"methodIdentifiers": {
					"initCachedTraitGroups(uint256)": "68b0b907",
					"loadAndCacheTraitGroup(IAssets,CachedTraitGroups,uint256)": "bbd33b62"
				}
			},
			"storageLayout": {
				"storage": [],
				"types": null
			},
			"userdoc": {
				"kind": "user",
				"methods": {},
				"version": 1
			}
		}
	}
}