{
	"src/Traits.sol": {
		"Traits": {
			"abi": [
				{
					"inputs": [
						{
							"internalType": "contract IMaleProbs",
							"name": "_maleProbsContract",
							"type": "address"
						},
						{
							"internalType": "contract IFemaleProbs",
							"name": "_femaleProbsContract",
							"type": "address"
						}
					],
					"stateMutability": "nonpayable",
					"type": "constructor"
				},
				{
					"inputs": [],
					"name": "FEMALE_PROBS_CONTRACT",
					"outputs": [
						{
							"internalType": "contract IFemaleProbs",
							"name": "",
							"type": "address"
						}
					],
					"stateMutability": "view",
					"type": "function"
				},
				{
					"inputs": [],
					"name": "MALE_PROBS_CONTRACT",
					"outputs": [
						{
							"internalType": "contract IMaleProbs",
							"name": "",
							"type": "address"
						}
					],
					"stateMutability": "view",
					"type": "function"
				},
				{
					"inputs": [
						{
							"internalType": "uint16",
							"name": "_tokenIdSeed",
							"type": "uint16"
						},
						{
							"internalType": "uint8",
							"name": "_backgroundIndex",
							"type": "uint8"
						},
						{
							"internalType": "uint256",
							"name": "_globalSeed",
							"type": "uint256"
						}
					],
					"name": "generateAllTraits",
					"outputs": [
						{
							"components": [
								{
									"components": [
										{
											"internalType": "enum E_TraitsGroup",
											"name": "traitGroup",
											"type": "uint8"
										},
										{
											"internalType": "uint8",
											"name": "traitIndex",
											"type": "uint8"
										},
										{
											"internalType": "bool",
											"name": "hasFiller",
											"type": "bool"
										},
										{
											"components": [
												{
													"internalType": "enum E_TraitsGroup",
													"name": "traitGroup",
													"type": "uint8"
												},
												{
													"internalType": "uint8",
													"name": "traitIndex",
													"type": "uint8"
												}
											],
											"internalType": "struct FillerTrait",
											"name": "filler",
											"type": "tuple"
										}
									],
									"internalType": "struct TraitToRender[]",
									"name": "traitsToRender",
									"type": "tuple[]"
								},
								{
									"internalType": "uint8",
									"name": "traitsToRenderLength",
									"type": "uint8"
								},
								{
									"internalType": "uint16",
									"name": "tokenIdSeed",
									"type": "uint16"
								},
								{
									"internalType": "uint16",
									"name": "specialId",
									"type": "uint16"
								},
								{
									"internalType": "uint32",
									"name": "birthday",
									"type": "uint32"
								},
								{
									"internalType": "enum E_Sex",
									"name": "sex",
									"type": "uint8"
								},
								{
									"internalType": "enum E_Background",
									"name": "background",
									"type": "uint8"
								},
								{
									"internalType": "enum E_Male_Skin",
									"name": "maleSkin",
									"type": "uint8"
								},
								{
									"internalType": "enum E_Male_Eyes",
									"name": "maleEyes",
									"type": "uint8"
								},
								{
									"internalType": "enum E_Male_Face",
									"name": "maleFace",
									"type": "uint8"
								},
								{
									"internalType": "enum E_Male_Chain",
									"name": "maleChain",
									"type": "uint8"
								},
								{
									"internalType": "enum E_Male_Earring",
									"name": "maleEarring",
									"type": "uint8"
								},
								{
									"internalType": "enum E_Male_Scarf",
									"name": "maleScarf",
									"type": "uint8"
								},
								{
									"internalType": "enum E_Male_Facial_Hair",
									"name": "maleFacialHair",
									"type": "uint8"
								},
								{
									"internalType": "enum E_Male_Mask",
									"name": "maleMask",
									"type": "uint8"
								},
								{
									"internalType": "enum E_Male_Hair",
									"name": "maleHair",
									"type": "uint8"
								},
								{
									"internalType": "enum E_Male_Hat_Hair",
									"name": "maleHatHair",
									"type": "uint8"
								},
								{
									"internalType": "enum E_Male_Headwear",
									"name": "maleHeadwear",
									"type": "uint8"
								},
								{
									"internalType": "enum E_Male_Eye_Wear",
									"name": "maleEyeWear",
									"type": "uint8"
								},
								{
									"internalType": "enum E_Female_Skin",
									"name": "femaleSkin",
									"type": "uint8"
								},
								{
									"internalType": "enum E_Female_Eyes",
									"name": "femaleEyes",
									"type": "uint8"
								},
								{
									"internalType": "enum E_Female_Face",
									"name": "femaleFace",
									"type": "uint8"
								},
								{
									"internalType": "enum E_Female_Chain",
									"name": "femaleChain",
									"type": "uint8"
								},
								{
									"internalType": "enum E_Female_Earring",
									"name": "femaleEarring",
									"type": "uint8"
								},
								{
									"internalType": "enum E_Female_Scarf",
									"name": "femaleScarf",
									"type": "uint8"
								},
								{
									"internalType": "enum E_Female_Mask",
									"name": "femaleMask",
									"type": "uint8"
								},
								{
									"internalType": "enum E_Female_Hair",
									"name": "femaleHair",
									"type": "uint8"
								},
								{
									"internalType": "enum E_Female_Hat_Hair",
									"name": "femaleHatHair",
									"type": "uint8"
								},
								{
									"internalType": "enum E_Female_Headwear",
									"name": "femaleHeadwear",
									"type": "uint8"
								},
								{
									"internalType": "enum E_Female_Eye_Wear",
									"name": "femaleEyeWear",
									"type": "uint8"
								},
								{
									"internalType": "enum E_Mouth",
									"name": "mouth",
									"type": "uint8"
								}
							],
							"internalType": "struct TraitsContext",
							"name": "",
							"type": "tuple"
						}
					],
					"stateMutability": "view",
					"type": "function"
				}
			],
			"devdoc": {
				"kind": "dev",
				"methods": {},
				"version": 1
			},
			"evm": {
				"assembly": "    /* \"src/Traits.sol\":1042:15231  contract Traits is ITraits {... */\n  0xc0\n  jumpi(tag_9, callvalue)\n  0x1f\n  bytecodeSize\n  codesize\n  dup2\n  swap1\n  sub\n  swap2\n  dup3\n  add\n  not(0x1f)\n  and\n  dup4\n  add\n  swap2\n  sub(shl(0x40, 0x01), 0x01)\n  dup4\n  gt\n  dup5\n  dup5\n  lt\n  or\n  tag_3\n  jumpi\n  dup1\n  dup5\n  swap3\n  0x40\n  swap5\n  dup6\n  mstore\n  dup4\n  codecopy\n  dup2\n  add\n  sub\n  slt\n  tag_9\n  jumpi\n  dup1\n  mload\n  swap1\n  sub(shl(0xa0, 0x01), 0x01)\n  dup3\n  and\n  dup3\n  sub\n  tag_9\n  jumpi\n  0x20\n  add\n  mload\n  swap1\n  sub(shl(0xa0, 0x01), 0x01)\n  dup3\n  and\n  dup3\n  sub\n  tag_9\n  jumpi\n    /* \"src/Traits.sol\":1275:1315  MALE_PROBS_CONTRACT = _maleProbsContract */\n  0x80\n  mstore\n    /* \"src/Traits.sol\":1325:1369  FEMALE_PROBS_CONTRACT = _femaleProbsContract */\n  0xa0\n  mstore\n    /* \"src/Traits.sol\":1042:15231  contract Traits is ITraits {... */\n  mload(0x40)\n  dataSize(sub_0)\n  swap1\n  dup2\n  dataOffset(sub_0)\n  dup3\n  codecopy\n    /* \"src/Traits.sol\":1275:1315  MALE_PROBS_CONTRACT = _maleProbsContract */\n  0x80\n    /* \"src/Traits.sol\":1042:15231  contract Traits is ITraits {... */\n  mload\n  dup2\n  assignImmutable(\"0x4569971f3d79dc8da7f8a6820be6cb8dc4a52bb0df6599b2aae7182111b63cd5\")\n    /* \"src/Traits.sol\":1325:1369  FEMALE_PROBS_CONTRACT = _femaleProbsContract */\n  0xa0\n    /* \"src/Traits.sol\":1042:15231  contract Traits is ITraits {... */\n  mload\n  dup2\n  assignImmutable(\"0x35bb2e240092263378f77ea1e9c278099a33b604c4c4e26d13ea227e8bb74470\")\n  return\ntag_9:\n  0x00\n  dup1\n  revert\ntag_3:\n  mstore(0x00, shl(0xe0, 0x4e487b71))\n  mstore(0x04, 0x41)\n  revert(0x00, 0x24)\nstop\n\nsub_0: assembly {\n        /* \"src/Traits.sol\":1042:15231  contract Traits is ITraits {... */\n      0x80\n      dup1\n      0x40\n      mstore\n      jumpi(tag_37, iszero(lt(calldatasize, 0x04)))\n      0x00\n      dup1\n      revert\n    tag_37:\n      shr(0xe0, calldataload(0x00))\n      swap1\n      dup2\n      0x033b42a8\n      eq\n      tag_39\n      jumpi\n      pop\n      dup1\n      0x069157c0\n      eq\n      tag_41\n      jumpi\n      0x609574b5\n      eq\n      tag_43\n      jumpi\n      0x00\n      dup1\n      revert\n    tag_43:\n      jumpi(tag_51, callvalue)\n      jumpi(tag_51, slt(add(not(0x03), calldatasize), 0x60))\n      calldataload(0x04)\n      0xffff\n      dup2\n      and\n      dup2\n      sub\n      tag_51\n      jumpi\n      calldataload(0x24)\n      0xff\n      dup2\n      and\n      dup2\n      sub\n      tag_51\n      jumpi\n      tag_53\n      swap2\n      tag_54\n      swap2\n      calldataload(0x44)\n      swap2\n      tag_12\n      jump\t// in\n    tag_54:\n      mload(0x40)\n      swap2\n      dup3\n      swap2\n      0x20\n      dup4\n      mstore\n      0x20\n      dup4\n      add\n      swap1\n      tag_5\n      jump\t// in\n    tag_53:\n      sub\n      swap1\n      return\n    tag_51:\n      0x00\n      dup1\n      revert\n    tag_41:\n      jumpi(tag_51, callvalue)\n      jumpi(tag_51, slt(add(not(0x03), calldatasize), 0x00))\n      mload(0x40)\n        /* \"src/Traits.sol\":1129:1180  IFemaleProbs public immutable FEMALE_PROBS_CONTRACT */\n      immutable(\"0x35bb2e240092263378f77ea1e9c278099a33b604c4c4e26d13ea227e8bb74470\")\n      sub(shl(0xa0, 0x01), 0x01)\n        /* \"src/Traits.sol\":1042:15231  contract Traits is ITraits {... */\n      and\n      dup2\n      mstore\n      0x20\n      swap1\n      return\n    tag_39:\n      jumpi(tag_51, callvalue)\n      jumpi(tag_51, slt(add(not(0x03), calldatasize), 0x00))\n        /* \"src/Traits.sol\":1076:1123  IMaleProbs public immutable MALE_PROBS_CONTRACT */\n      immutable(\"0x4569971f3d79dc8da7f8a6820be6cb8dc4a52bb0df6599b2aae7182111b63cd5\")\n      sub(shl(0xa0, 0x01), 0x01)\n        /* \"src/Traits.sol\":1042:15231  contract Traits is ITraits {... */\n      and\n      dup2\n      mstore\n      0x20\n      swap1\n      return\n    tag_1:\n      swap1\n      0x1b\n      dup3\n      lt\n      iszero\n      tag_63\n      jumpi\n      mstore\n      jump\t// out\n    tag_63:\n      mstore(0x00, shl(0xe0, 0x4e487b71))\n      mstore(0x04, 0x21)\n      revert(0x00, 0x24)\n    tag_2:\n      0x17\n      gt\n      iszero\n      tag_63\n      jumpi\n      jump\t// out\n    tag_3:\n      0x09\n      gt\n      iszero\n      tag_63\n      jumpi\n      jump\t// out\n    tag_4:\n      0x04\n      gt\n      iszero\n      tag_63\n      jumpi\n      jump\t// out\n    tag_5:\n      swap1\n      0x03e0\n      dup2\n      add\n      swap2\n      dup1\n      mload\n      swap3\n      0x03e0\n      dup4\n      mstore\n      dup4\n      mload\n      dup1\n      swap2\n      mstore\n      0x20\n      0x0400\n      dup5\n      add\n      swap5\n      add\n      swap1\n      0x00\n    tag_71:\n      dup2\n      dup2\n      lt\n      tag_72\n      jumpi\n      pop\n      pop\n      pop\n      0xff\n      0x20\n      dup3\n      add\n      mload\n      and\n      0x20\n      dup4\n      add\n      mstore\n      0xffff\n      0x40\n      dup3\n      add\n      mload\n      and\n      0x40\n      dup4\n      add\n      mstore\n      0xffff\n      0x60\n      dup3\n      add\n      mload\n      and\n      0x60\n      dup4\n      add\n      mstore\n      0xffffffff\n      0x80\n      dup3\n      add\n      mload\n      and\n      0x80\n      dup4\n      add\n      mstore\n      0xa0\n      dup2\n      add\n      mload\n      0x02\n      dup2\n      lt\n      iszero\n      tag_63\n      jumpi\n      0xa0\n      dup4\n      add\n      mstore\n      0xc0\n      dup2\n      add\n      mload\n      0x05\n      dup2\n      lt\n      iszero\n      tag_63\n      jumpi\n      0xc0\n      dup4\n      add\n      mstore\n      0xe0\n      dup2\n      add\n      mload\n      0x1d\n      dup2\n      lt\n      iszero\n      tag_63\n      jumpi\n      0xe0\n      dup4\n      add\n      mstore\n      0x0100\n      dup2\n      add\n      mload\n      tag_80\n      dup2\n      tag_2\n      jump\t// in\n    tag_80:\n      0x0100\n      dup4\n      add\n      mstore\n      0x0120\n      dup2\n      add\n      mload\n      0x14\n      dup2\n      lt\n      iszero\n      tag_63\n      jumpi\n      0x0120\n      dup4\n      add\n      mstore\n      0x0140\n      dup2\n      add\n      mload\n      tag_83\n      dup2\n      tag_3\n      jump\t// in\n    tag_83:\n      0x0140\n      dup4\n      add\n      mstore\n      0x0160\n      dup2\n      add\n      mload\n      tag_84\n      dup2\n      tag_3\n      jump\t// in\n    tag_84:\n      0x0160\n      dup4\n      add\n      mstore\n      0x0180\n      dup2\n      add\n      mload\n      tag_85\n      dup2\n      tag_4\n      jump\t// in\n    tag_85:\n      0x0180\n      dup4\n      add\n      mstore\n      0x01a0\n      dup2\n      add\n      mload\n      0x58\n      dup2\n      lt\n      iszero\n      tag_63\n      jumpi\n      0x01a0\n      dup4\n      add\n      mstore\n      0x01c0\n      dup2\n      add\n      mload\n      0x16\n      dup2\n      lt\n      iszero\n      tag_63\n      jumpi\n      0x01c0\n      dup4\n      add\n      mstore\n      0x01e0\n      dup2\n      add\n      mload\n      0xd4\n      dup2\n      lt\n      iszero\n      tag_63\n      jumpi\n      0x01e0\n      dup4\n      add\n      mstore\n      0x0200\n      dup2\n      add\n      mload\n      0x6a\n      dup2\n      lt\n      iszero\n      tag_63\n      jumpi\n      0x0200\n      dup4\n      add\n      mstore\n      0x0220\n      dup2\n      add\n      mload\n      0xa9\n      dup2\n      lt\n      iszero\n      tag_63\n      jumpi\n      0x0220\n      dup4\n      add\n      mstore\n      0x0240\n      dup2\n      add\n      mload\n      0x80\n      dup2\n      lt\n      iszero\n      tag_63\n      jumpi\n      0x0240\n      dup4\n      add\n      mstore\n      0x0260\n      dup2\n      add\n      mload\n      0x1a\n      dup2\n      lt\n      iszero\n      tag_63\n      jumpi\n      0x0260\n      dup4\n      add\n      mstore\n      0x0280\n      dup2\n      add\n      mload\n      0x1f\n      dup2\n      lt\n      iszero\n      tag_63\n      jumpi\n      0x0280\n      dup4\n      add\n      mstore\n      0x02a0\n      dup2\n      add\n      mload\n      0x13\n      dup2\n      lt\n      iszero\n      tag_63\n      jumpi\n      0x02a0\n      dup4\n      add\n      mstore\n      0x02c0\n      dup2\n      add\n      mload\n      tag_104\n      dup2\n      tag_3\n      jump\t// in\n    tag_104:\n      0x02c0\n      dup4\n      add\n      mstore\n      0x02e0\n      dup2\n      add\n      mload\n      tag_105\n      dup2\n      tag_3\n      jump\t// in\n    tag_105:\n      0x02e0\n      dup4\n      add\n      mstore\n      0x0300\n      dup2\n      add\n      mload\n      tag_106\n      dup2\n      tag_4\n      jump\t// in\n    tag_106:\n      0x0300\n      dup4\n      add\n      mstore\n      0x0320\n      dup2\n      add\n      mload\n      0x15\n      dup2\n      lt\n      iszero\n      tag_63\n      jumpi\n      0x0320\n      dup4\n      add\n      mstore\n      0x0340\n      dup2\n      add\n      mload\n      0xc3\n      dup2\n      lt\n      iszero\n      tag_63\n      jumpi\n      0x0340\n      dup4\n      add\n      mstore\n      0x0360\n      dup2\n      add\n      mload\n      0x85\n      dup2\n      lt\n      iszero\n      tag_63\n      jumpi\n      0x0360\n      dup4\n      add\n      mstore\n      0x0380\n      dup2\n      add\n      mload\n      0x83\n      dup2\n      lt\n      iszero\n      tag_63\n      jumpi\n      0x0380\n      dup4\n      add\n      mstore\n      0x03a0\n      dup2\n      add\n      mload\n      0x7a\n      dup2\n      lt\n      iszero\n      tag_63\n      jumpi\n      0x03a0\n      dup4\n      add\n      mstore\n      0x03c0\n      swap1\n      dup2\n      add\n      mload\n      swap2\n      tag_117\n      dup4\n      tag_2\n      jump\t// in\n    tag_117:\n      add\n      mstore\n      swap1\n      jump\t// out\n    tag_72:\n      swap1\n      swap2\n      swap5\n      0x20\n      0xa0\n      0x01\n      swap3\n      0xff\n      dup4\n      0x60\n      dup12\n      mload\n      tag_118\n      dup6\n      dup3\n      mload\n      tag_1\n      jump\t// in\n    tag_118:\n      dup4\n      dup4\n      dup3\n      add\n      mload\n      and\n      dup4\n      dup7\n      add\n      mstore\n      0x40\n      dup2\n      add\n      mload\n      iszero\n      iszero\n      0x40\n      dup7\n      add\n      mstore\n      add\n      mload\n      tag_119\n      0x60\n      dup6\n      add\n      dup3\n      mload\n      tag_1\n      jump\t// in\n    tag_119:\n      add\n      mload\n      and\n      0x80\n      dup3\n      add\n      mstore\n      add\n      swap7\n      add\n      swap3\n      swap2\n      add\n      jump(tag_71)\n    tag_6:\n      swap1\n      0x1f\n      dup1\n      not\n      swap2\n      add\n      and\n      dup2\n      add\n      swap1\n      dup2\n      lt\n      0xffffffffffffffff\n      dup3\n      gt\n      or\n      tag_120\n      jumpi\n      0x40\n      mstore\n      jump\t// out\n    tag_120:\n      mstore(0x00, shl(0xe0, 0x4e487b71))\n      mstore(0x04, 0x41)\n      revert(0x00, 0x24)\n    tag_7:\n      mload(0x40)\n      swap1\n      0x03e0\n      dup3\n      add\n      dup3\n      dup2\n      lt\n      0xffffffffffffffff\n      dup3\n      gt\n      or\n      tag_120\n      jumpi\n      0x40\n      mstore\n      0x00\n      0x03c0\n      dup4\n      0x60\n      dup2\n      mstore\n      dup3\n      0x20\n      dup3\n      add\n      mstore\n      dup3\n      0x40\n      dup3\n      add\n      mstore\n      dup3\n      0x60\n      dup3\n      add\n      mstore\n      dup3\n      0x80\n      dup3\n      add\n      mstore\n      dup3\n      0xa0\n      dup3\n      add\n      mstore\n      dup3\n      0xc0\n      dup3\n      add\n      mstore\n      dup3\n      0xe0\n      dup3\n      add\n      mstore\n      dup3\n      0x0100\n      dup3\n      add\n      mstore\n      dup3\n      0x0120\n      dup3\n      add\n      mstore\n      dup3\n      0x0140\n      dup3\n      add\n      mstore\n      dup3\n      0x0160\n      dup3\n      add\n      mstore\n      dup3\n      0x0180\n      dup3\n      add\n      mstore\n      dup3\n      0x01a0\n      dup3\n      add\n      mstore\n      dup3\n      0x01c0\n      dup3\n      add\n      mstore\n      dup3\n      0x01e0\n      dup3\n      add\n      mstore\n      dup3\n      0x0200\n      dup3\n      add\n      mstore\n      dup3\n      0x0220\n      dup3\n      add\n      mstore\n      dup3\n      0x0240\n      dup3\n      add\n      mstore\n      dup3\n      0x0260\n      dup3\n      add\n      mstore\n      dup3\n      0x0280\n      dup3\n      add\n      mstore\n      dup3\n      0x02a0\n      dup3\n      add\n      mstore\n      dup3\n      0x02c0\n      dup3\n      add\n      mstore\n      dup3\n      0x02e0\n      dup3\n      add\n      mstore\n      dup3\n      0x0300\n      dup3\n      add\n      mstore\n      dup3\n      0x0320\n      dup3\n      add\n      mstore\n      dup3\n      0x0340\n      dup3\n      add\n      mstore\n      dup3\n      0x0360\n      dup3\n      add\n      mstore\n      dup3\n      0x0380\n      dup3\n      add\n      mstore\n      dup3\n      0x03a0\n      dup3\n      add\n      mstore\n      add\n      mstore\n      jump\t// out\n    tag_8:\n      mload(0x40)\n      swap1\n      0x40\n      dup3\n      add\n      dup3\n      dup2\n      lt\n      0xffffffffffffffff\n      dup3\n      gt\n      or\n      tag_120\n      jumpi\n      0x40\n      mstore\n      0x00\n      0x20\n      dup4\n      dup3\n      dup2\n      mstore\n      add\n      mstore\n      jump\t// out\n    tag_9:\n      mload(0x40)\n      swap1\n      0x80\n      dup3\n      add\n      dup3\n      dup2\n      lt\n      0xffffffffffffffff\n      dup3\n      gt\n      or\n      tag_120\n      jumpi\n      0x40\n      mstore\n      dup2\n      0x00\n      dup2\n      mstore\n      0x00\n      0x20\n      dup3\n      add\n      mstore\n      0x00\n      0x40\n      dup3\n      add\n      mstore\n      0x60\n      tag_128\n      tag_8\n      jump\t// in\n    tag_128:\n      swap2\n      add\n      mstore\n      jump\t// out\n        /* \"src/common/Enums.sol\":125:127  16 */\n    tag_10:\n        /* \"src/Traits.sol\":1042:15231  contract Traits is ITraits {... */\n      0x05\n      dup3\n      lt\n      iszero\n      tag_63\n      jumpi\n        /* \"src/common/Enums.sol\":125:127  16 */\n      mstore\n      jump\t// out\n    tag_11:\n      swap1\n      tag_131\n      0x20\n      swap2\n      swap5\n      swap4\n      swap5\n      0x40\n      dup5\n      mstore\n      0x40\n      dup5\n      add\n      swap1\n      tag_5\n      jump\t// in\n    tag_131:\n      swap4\n      mload\n      swap2\n      add\n        /* \"src/Traits.sol\":1042:15231  contract Traits is ITraits {... */\n      mstore\n        /* \"src/common/Enums.sol\":125:127  16 */\n      jump\t// out\n        /* \"src/Traits.sol\":1382:6747  function generateAllTraits(uint16 _tokenIdSeed, uint8 _backgroundIndex, uint256 _globalSeed) external view returns (TraitsContext memory) {... */\n    tag_12:\n      swap2\n      swap1\n      swap2\n        /* \"src/Traits.sol\":1042:15231  contract Traits is ITraits {... */\n      tag_132\n      tag_7\n      jump\t// in\n    tag_132:\n      pop\n      mload(0x40)\n      swap2\n      0x20\n      dup4\n      add\n      dup4\n      dup2\n      lt\n      0xffffffffffffffff\n      dup3\n      gt\n      or\n      tag_120\n      jumpi\n      0x40\n      mstore\n      0x00\n      dup4\n      mstore\n      mload(0x40)\n      0x20\n        /* \"src/Traits.sol\":1601:1644  abi.encodePacked(_tokenIdSeed, _globalSeed) */\n      dup2\n      add\n        /* \"src/Traits.sol\":1042:15231  contract Traits is ITraits {... */\n      swap2\n      0xffff\n      dup5\n      and\n      swap4\n      shl(0xf0, 0xffff)\n      swap1\n      0xf0\n      shl\n      and\n      dup4\n      mstore\n      0x22\n      dup3\n      add\n      mstore\n      0x22\n        /* \"src/Traits.sol\":1601:1644  abi.encodePacked(_tokenIdSeed, _globalSeed) */\n      dup2\n      mstore\n      tag_135\n      0x42\n      dup3\n      tag_6\n      jump\t// in\n    tag_135:\n        /* \"src/Traits.sol\":1042:15231  contract Traits is ITraits {... */\n      mload\n        /* \"src/Traits.sol\":1591:1645  keccak256(abi.encodePacked(_tokenIdSeed, _globalSeed)) */\n      swap1\n      keccak256\n        /* \"src/libraries/LibPRNG.sol\":2760:2812  assembly {... */\n      dup3\n      mstore\n        /* \"src/Traits.sol\":1042:15231  contract Traits is ITraits {... */\n      tag_136\n      tag_7\n      jump\t// in\n    tag_136:\n      swap3\n      0x0200\n      swap2\n      mload(0x40)\n      tag_137\n      dup5\n      dup3\n      tag_6\n      jump\t// in\n    tag_137:\n        /* \"src/Traits.sol\":1738:1740  15 */\n      0x0f\n        /* \"src/Traits.sol\":1042:15231  contract Traits is ITraits {... */\n      dup2\n      mstore\n      not(0x1f)\n      dup5\n      add\n      0x00\n    tag_138:\n      dup2\n      dup2\n      lt\n      tag_139\n      jumpi\n        /* \"src/Traits.sol\":1694:1741  traits.traitsToRender = new TraitToRender[](15) */\n      pop\n      pop\n      dup6\n      mstore\n        /* \"src/Traits.sol\":1751:1769  traits.tokenIdSeed */\n      dup1\n        /* \"src/Traits.sol\":1042:15231  contract Traits is ITraits {... */\n      0x40\n        /* \"src/Traits.sol\":1751:1769  traits.tokenIdSeed */\n      dup7\n      add\n        /* \"src/Traits.sol\":1042:15231  contract Traits is ITraits {... */\n      mstore\n        /* \"src/common/Enums.sol\":125:127  16 */\n      0x10\n        /* \"src/Traits.sol\":1799:1828  _tokenIdSeed < NUM_SPECIAL_1S */\n      dup2\n      lt\n        /* \"src/Traits.sol\":1795:1890  if (_tokenIdSeed < NUM_SPECIAL_1S) {... */\n      tag_141\n      jumpi\n        /* \"src/Traits.sol\":1042:15231  contract Traits is ITraits {... */\n    tag_142:\n        /* \"src/Traits.sol\":2109:2141  LibPRNG.uniform(prng, rangeSize) */\n      pop\n        /* \"src/libraries/LibPRNG.sol\":4244:4505  assembly {... */\n    tag_143:\n        /* \"src/Traits.sol\":1042:15231  contract Traits is ITraits {... */\n      0x20\n        /* \"src/libraries/LibPRNG.sol\":4244:4505  assembly {... */\n      dup4\n      keccak256\n      dup1\n      dup5\n      mstore\n      0x010000\n      dup2\n      lt\n      iszero\n      tag_144\n      jumpi\n      pop\n      jump(tag_143)\n    tag_144:\n        /* \"src/common/Enums.sol\":125:127  16 */\n      0x01e098d0\n        /* \"src/libraries/LibPRNG.sol\":4244:4505  assembly {... */\n      swap1\n      mod\n        /* \"src/Traits.sol\":1042:15231  contract Traits is ITraits {... */\n      0xf4865700\n        /* \"src/common/Enums.sol\":125:127  16 */\n      add\n      dup1\n        /* \"src/Traits.sol\":1042:15231  contract Traits is ITraits {... */\n      0xf4865700\n        /* \"src/common/Enums.sol\":125:127  16 */\n      gt\n      tag_244\n      jumpi\n        /* \"src/Traits.sol\":1042:15231  contract Traits is ITraits {... */\n      0xffffffff\n      and\n        /* \"src/Traits.sol\":2065:2080  traits.birthday */\n      0x80\n      dup6\n      add\n        /* \"src/common/Enums.sol\":125:127  16 */\n      mstore\n        /* \"src/Traits.sol\":1042:15231  contract Traits is ITraits {... */\n      0xffff\n        /* \"src/Traits.sol\":2191:2207  traits.specialId */\n      0x60\n      dup6\n      add\n        /* \"src/common/Enums.sol\":125:127  16 */\n      mload\n        /* \"src/Traits.sol\":1042:15231  contract Traits is ITraits {... */\n      and\n        /* \"src/Traits.sol\":2191:2211  traits.specialId > 0 */\n      dup1\n        /* \"src/Traits.sol\":2187:2684  if (traits.specialId > 0) {... */\n      tag_148\n      jumpi\n        /* \"src/Traits.sol\":2707:2735  LibPRNG.uniform(prng, 10000) */\n      pop\n        /* \"src/libraries/LibPRNG.sol\":4244:4505  assembly {... */\n    tag_150:\n        /* \"src/Traits.sol\":1042:15231  contract Traits is ITraits {... */\n      0x20\n        /* \"src/libraries/LibPRNG.sol\":4244:4505  assembly {... */\n      dup4\n      keccak256\n      dup1\n      dup5\n      mstore\n      0x26d0\n      dup2\n      lt\n      iszero\n      tag_151\n      jumpi\n      pop\n      jump(tag_150)\n    tag_151:\n        /* \"src/Traits.sol\":2729:2734  10000 */\n      0x2710\n        /* \"src/Traits.sol\":2738:2742  7500 */\n      0x1d4c\n        /* \"src/libraries/LibPRNG.sol\":4244:4505  assembly {... */\n      swap2\n      mod\n        /* \"src/Traits.sol\":2707:2742  LibPRNG.uniform(prng, 10000) < 7500 */\n      lt\n        /* \"src/Traits.sol\":2707:2770  LibPRNG.uniform(prng, 10000) < 7500 ? E_Sex.Male : E_Sex.Female */\n      0x00\n        /* \"src/Traits.sol\":2738:2742  7500 */\n      eq\n      tag_153\n      jumpi\n      0x00\n        /* \"src/Traits.sol\":2707:2770  LibPRNG.uniform(prng, 10000) < 7500 ? E_Sex.Male : E_Sex.Female */\n    tag_155:\n        /* \"src/Traits.sol\":1042:15231  contract Traits is ITraits {... */\n      0x02\n      dup2\n      lt\n      iszero\n      tag_63\n      jumpi\n        /* \"src/Traits.sol\":2694:2704  traits.sex */\n      dup1\n      0xa0\n      dup7\n      add\n        /* \"src/common/Enums.sol\":125:127  16 */\n      mstore\n        /* \"src/Traits.sol\":2820:2844  traits.sex == E_Sex.Male */\n      iszero\n        /* \"src/Traits.sol\":2816:6434  if (traits.sex == E_Sex.Male) {... */\n      0x00\n        /* \"src/Traits.sol\":2820:2844  traits.sex == E_Sex.Male */\n      eq\n      tag_158\n      jumpi\n        /* \"src/Traits.sol\":1042:15231  contract Traits is ITraits {... */\n      0xff\n      and\n      0x05\n      dup2\n      lt\n      iszero\n      tag_63\n      jumpi\n        /* \"src/Traits.sol\":2861:2911  traits.background = E_Background(_backgroundIndex) */\n      tag_162\n        /* \"src/Traits.sol\":2861:2878  traits.background */\n      swap1\n      0xc0\n      dup6\n      add\n        /* \"src/Traits.sol\":2861:2911  traits.background = E_Background(_backgroundIndex) */\n      tag_10\n      jump\t// in\n    tag_162:\n        /* \"src/Traits.sol\":2940:2946  traits */\n      tag_163\n      dup4\n      tag_13\n      jump\t// in\n    tag_163:\n        /* \"src/Traits.sol\":1042:15231  contract Traits is ITraits {... */\n      mload(0x40)\n      shl(0xe2, 0x09fc0369)\n        /* \"src/Traits.sol\":2980:3020  MALE_PROBS_CONTRACT.selectMaleSkin(prng) */\n      dup2\n      mstore\n        /* \"src/common/Enums.sol\":125:127  16 */\n      dup3\n      mload\n        /* \"src/Traits.sol\":2980:3020  MALE_PROBS_CONTRACT.selectMaleSkin(prng) */\n      0x04\n      dup3\n      add\n        /* \"src/Traits.sol\":1042:15231  contract Traits is ITraits {... */\n      mstore\n        /* \"src/Traits.sol\":2980:2999  MALE_PROBS_CONTRACT */\n      immutable(\"0x4569971f3d79dc8da7f8a6820be6cb8dc4a52bb0df6599b2aae7182111b63cd5\")\n      sub(shl(0xa0, 0x01), 0x01)\n        /* \"src/Traits.sol\":1042:15231  contract Traits is ITraits {... */\n      and\n      swap2\n      swap1\n      0x20\n      dup2\n        /* \"src/Traits.sol\":2980:3020  MALE_PROBS_CONTRACT.selectMaleSkin(prng) */\n      0x24\n        /* \"src/Traits.sol\":1042:15231  contract Traits is ITraits {... */\n      dup2\n      dup7\n        /* \"src/Traits.sol\":2980:3020  MALE_PROBS_CONTRACT.selectMaleSkin(prng) */\n      gas\n      staticcall\n      swap1\n      dup2\n      iszero\n      tag_267\n      jumpi\n      0x00\n      swap2\n      tag_166\n      jumpi\n        /* \"src/Traits.sol\":2816:6434  if (traits.sex == E_Sex.Male) {... */\n    tag_167:\n        /* \"src/Traits.sol\":2962:2977  traits.maleSkin */\n      pop\n        /* \"src/common/Enums.sol\":125:127  16 */\n      0xe0\n        /* \"src/Traits.sol\":2962:2977  traits.maleSkin */\n      dup6\n      add\n        /* \"src/Traits.sol\":1042:15231  contract Traits is ITraits {... */\n      swap1\n      0x1d\n      dup2\n      lt\n      iszero\n      tag_63\n      jumpi\n        /* \"src/common/Enums.sol\":125:127  16 */\n      dup2\n      mstore\n        /* \"src/Traits.sol\":1042:15231  contract Traits is ITraits {... */\n      mload(0x40)\n      shl(0xe1, 0x10683b71)\n        /* \"src/Traits.sol\":3052:3100  MALE_PROBS_CONTRACT.selectMaleEyes(traits, prng) */\n      dup2\n      mstore\n        /* \"src/Traits.sol\":1042:15231  contract Traits is ITraits {... */\n      0x20\n      dup2\n      dup1\n        /* \"src/Traits.sol\":3052:3100  MALE_PROBS_CONTRACT.selectMaleEyes(traits, prng) */\n      tag_170\n      dup9\n      dup11\n        /* \"src/Traits.sol\":2980:3020  MALE_PROBS_CONTRACT.selectMaleSkin(prng) */\n      0x04\n        /* \"src/Traits.sol\":3052:3100  MALE_PROBS_CONTRACT.selectMaleEyes(traits, prng) */\n      dup5\n      add\n      tag_11\n      jump\t// in\n    tag_170:\n      sub\n      dup2\n      dup8\n      gas\n      staticcall\n      swap1\n      dup2\n      iszero\n      tag_267\n      jumpi\n      0x00\n      swap2\n      tag_173\n      jumpi\n        /* \"src/Traits.sol\":2816:6434  if (traits.sex == E_Sex.Male) {... */\n    tag_174:\n        /* \"src/Traits.sol\":1042:15231  contract Traits is ITraits {... */\n      pop\n      tag_175\n      dup2\n      tag_2\n      jump\t// in\n    tag_175:\n        /* \"src/Traits.sol\":3034:3049  traits.maleEyes */\n      0x0100\n      dup7\n      add\n        /* \"src/common/Enums.sol\":125:127  16 */\n      mstore\n        /* \"src/Traits.sol\":1042:15231  contract Traits is ITraits {... */\n      mload(0x40)\n      shl(0xe0, 0xd0d4547f)\n        /* \"src/Traits.sol\":3132:3180  MALE_PROBS_CONTRACT.selectMaleFace(traits, prng) */\n      dup2\n      mstore\n        /* \"src/Traits.sol\":1042:15231  contract Traits is ITraits {... */\n      0x20\n      dup2\n      dup1\n        /* \"src/Traits.sol\":3132:3180  MALE_PROBS_CONTRACT.selectMaleFace(traits, prng) */\n      tag_176\n      dup9\n        /* \"src/Traits.sol\":3034:3049  traits.maleEyes */\n      dup11\n        /* \"src/Traits.sol\":2980:3020  MALE_PROBS_CONTRACT.selectMaleSkin(prng) */\n      0x04\n        /* \"src/Traits.sol\":3132:3180  MALE_PROBS_CONTRACT.selectMaleFace(traits, prng) */\n      dup5\n      add\n      tag_11\n      jump\t// in\n    tag_176:\n      sub\n      dup2\n      dup8\n      gas\n      staticcall\n      swap1\n      dup2\n      iszero\n      tag_267\n      jumpi\n      0x00\n      swap2\n      tag_179\n      jumpi\n        /* \"src/Traits.sol\":2816:6434  if (traits.sex == E_Sex.Male) {... */\n    tag_180:\n        /* \"src/Traits.sol\":1042:15231  contract Traits is ITraits {... */\n      pop\n      0x14\n      dup2\n      lt\n      iszero\n      tag_63\n      jumpi\n        /* \"src/Traits.sol\":3114:3129  traits.maleFace */\n      0x0120\n      dup7\n      add\n        /* \"src/common/Enums.sol\":125:127  16 */\n      mstore\n        /* \"src/Traits.sol\":1042:15231  contract Traits is ITraits {... */\n      mload(0x40)\n      shl(0xe2, 0x32fa6d1d)\n        /* \"src/Traits.sol\":3213:3254  MALE_PROBS_CONTRACT.selectMaleChain(prng) */\n      dup2\n      mstore\n        /* \"src/common/Enums.sol\":125:127  16 */\n      dup5\n      mload\n        /* \"src/Traits.sol\":2980:3020  MALE_PROBS_CONTRACT.selectMaleSkin(prng) */\n      0x04\n        /* \"src/Traits.sol\":3213:3254  MALE_PROBS_CONTRACT.selectMaleChain(prng) */\n      dup3\n      add\n        /* \"src/Traits.sol\":1042:15231  contract Traits is ITraits {... */\n      mstore\n      0x20\n      dup2\n        /* \"src/Traits.sol\":2980:3020  MALE_PROBS_CONTRACT.selectMaleSkin(prng) */\n      0x24\n        /* \"src/Traits.sol\":1042:15231  contract Traits is ITraits {... */\n      dup2\n        /* \"src/Traits.sol\":3213:3254  MALE_PROBS_CONTRACT.selectMaleChain(prng) */\n      dup8\n      gas\n      staticcall\n      swap1\n      dup2\n      iszero\n      tag_267\n      jumpi\n      0x00\n      swap2\n      tag_185\n      jumpi\n        /* \"src/Traits.sol\":2816:6434  if (traits.sex == E_Sex.Male) {... */\n    tag_186:\n        /* \"src/Traits.sol\":1042:15231  contract Traits is ITraits {... */\n      pop\n      tag_187\n      dup2\n      tag_3\n      jump\t// in\n    tag_187:\n        /* \"src/Traits.sol\":3194:3210  traits.maleChain */\n      0x0140\n      dup7\n      add\n        /* \"src/common/Enums.sol\":125:127  16 */\n      mstore\n        /* \"src/Traits.sol\":1042:15231  contract Traits is ITraits {... */\n      mload(0x40)\n      shl(0xe0, 0x777dbab9)\n        /* \"src/Traits.sol\":3289:3332  MALE_PROBS_CONTRACT.selectMaleEarring(prng) */\n      dup2\n      mstore\n        /* \"src/common/Enums.sol\":125:127  16 */\n      dup5\n      mload\n        /* \"src/Traits.sol\":2980:3020  MALE_PROBS_CONTRACT.selectMaleSkin(prng) */\n      0x04\n        /* \"src/Traits.sol\":3289:3332  MALE_PROBS_CONTRACT.selectMaleEarring(prng) */\n      dup3\n      add\n        /* \"src/Traits.sol\":1042:15231  contract Traits is ITraits {... */\n      mstore\n      0x20\n      dup2\n        /* \"src/Traits.sol\":2980:3020  MALE_PROBS_CONTRACT.selectMaleSkin(prng) */\n      0x24\n        /* \"src/Traits.sol\":1042:15231  contract Traits is ITraits {... */\n      dup2\n        /* \"src/Traits.sol\":3289:3332  MALE_PROBS_CONTRACT.selectMaleEarring(prng) */\n      dup8\n      gas\n      staticcall\n      swap1\n      dup2\n      iszero\n      tag_267\n      jumpi\n      0x00\n      swap2\n      tag_190\n      jumpi\n        /* \"src/Traits.sol\":2816:6434  if (traits.sex == E_Sex.Male) {... */\n    tag_191:\n        /* \"src/Traits.sol\":1042:15231  contract Traits is ITraits {... */\n      pop\n      tag_192\n      dup2\n      tag_3\n      jump\t// in\n    tag_192:\n        /* \"src/Traits.sol\":3268:3286  traits.maleEarring */\n      0x0160\n      dup7\n      add\n        /* \"src/common/Enums.sol\":125:127  16 */\n      mstore\n        /* \"src/Traits.sol\":1042:15231  contract Traits is ITraits {... */\n      mload(0x40)\n      shl(0xe0, 0x8a886457)\n        /* \"src/Traits.sol\":3370:3424  MALE_PROBS_CONTRACT.selectMaleFacialHair(traits, prng) */\n      dup2\n      mstore\n        /* \"src/Traits.sol\":1042:15231  contract Traits is ITraits {... */\n      swap2\n      0x20\n      dup4\n      dup1\n        /* \"src/Traits.sol\":3370:3424  MALE_PROBS_CONTRACT.selectMaleFacialHair(traits, prng) */\n      tag_193\n      dup9\n        /* \"src/Traits.sol\":3268:3286  traits.maleEarring */\n      dup11\n        /* \"src/Traits.sol\":2980:3020  MALE_PROBS_CONTRACT.selectMaleSkin(prng) */\n      0x04\n        /* \"src/Traits.sol\":3370:3424  MALE_PROBS_CONTRACT.selectMaleFacialHair(traits, prng) */\n      dup5\n      add\n      tag_11\n      jump\t// in\n    tag_193:\n      sub\n      dup2\n      dup8\n      gas\n      staticcall\n      swap3\n      dup4\n      iszero\n      tag_267\n      jumpi\n      0x00\n      swap4\n      tag_196\n      jumpi\n        /* \"src/Traits.sol\":2816:6434  if (traits.sex == E_Sex.Male) {... */\n    tag_197:\n        /* \"src/Traits.sol\":3346:3367  traits.maleFacialHair */\n      pop\n      0x01a0\n      dup7\n      add\n        /* \"src/Traits.sol\":1042:15231  contract Traits is ITraits {... */\n      swap3\n      0x58\n      dup2\n      lt\n      iszero\n      tag_63\n      jumpi\n        /* \"src/common/Enums.sol\":125:127  16 */\n      dup4\n      mstore\n        /* \"src/Traits.sol\":1042:15231  contract Traits is ITraits {... */\n      mload(0x40)\n      shl(0xe0, 0x18412d03)\n        /* \"src/Traits.sol\":3456:3496  MALE_PROBS_CONTRACT.selectMaleMask(prng) */\n      dup2\n      mstore\n        /* \"src/common/Enums.sol\":125:127  16 */\n      dup6\n      mload\n        /* \"src/Traits.sol\":2980:3020  MALE_PROBS_CONTRACT.selectMaleSkin(prng) */\n      0x04\n        /* \"src/Traits.sol\":3456:3496  MALE_PROBS_CONTRACT.selectMaleMask(prng) */\n      dup3\n      add\n        /* \"src/Traits.sol\":1042:15231  contract Traits is ITraits {... */\n      mstore\n      0x20\n      dup2\n        /* \"src/Traits.sol\":2980:3020  MALE_PROBS_CONTRACT.selectMaleSkin(prng) */\n      0x24\n        /* \"src/Traits.sol\":1042:15231  contract Traits is ITraits {... */\n      dup2\n        /* \"src/Traits.sol\":3456:3496  MALE_PROBS_CONTRACT.selectMaleMask(prng) */\n      dup9\n      gas\n      staticcall\n      swap1\n      dup2\n      iszero\n      tag_267\n      jumpi\n      0x00\n      swap2\n      tag_202\n      jumpi\n        /* \"src/Traits.sol\":2816:6434  if (traits.sex == E_Sex.Male) {... */\n    tag_203:\n        /* \"src/Traits.sol\":1042:15231  contract Traits is ITraits {... */\n      pop\n      0x16\n      dup2\n      lt\n      iszero\n      tag_63\n      jumpi\n        /* \"src/Traits.sol\":3438:3453  traits.maleMask */\n      0x01c0\n      dup8\n      add\n        /* \"src/common/Enums.sol\":125:127  16 */\n      mstore\n        /* \"src/Traits.sol\":1042:15231  contract Traits is ITraits {... */\n      mload(0x40)\n      shl(0xe0, 0x1b495a2d)\n        /* \"src/Traits.sol\":3529:3570  MALE_PROBS_CONTRACT.selectMaleScarf(prng) */\n      dup2\n      mstore\n        /* \"src/common/Enums.sol\":125:127  16 */\n      dup6\n      mload\n        /* \"src/Traits.sol\":2980:3020  MALE_PROBS_CONTRACT.selectMaleSkin(prng) */\n      0x04\n        /* \"src/Traits.sol\":3529:3570  MALE_PROBS_CONTRACT.selectMaleScarf(prng) */\n      dup3\n      add\n        /* \"src/Traits.sol\":1042:15231  contract Traits is ITraits {... */\n      mstore\n      0x20\n      dup2\n        /* \"src/Traits.sol\":2980:3020  MALE_PROBS_CONTRACT.selectMaleSkin(prng) */\n      0x24\n        /* \"src/Traits.sol\":1042:15231  contract Traits is ITraits {... */\n      dup2\n        /* \"src/Traits.sol\":3529:3570  MALE_PROBS_CONTRACT.selectMaleScarf(prng) */\n      dup9\n      gas\n      staticcall\n      swap1\n      dup2\n      iszero\n      tag_267\n      jumpi\n      0x00\n      swap2\n      tag_208\n      jumpi\n        /* \"src/Traits.sol\":2816:6434  if (traits.sex == E_Sex.Male) {... */\n    tag_209:\n        /* \"src/Traits.sol\":1042:15231  contract Traits is ITraits {... */\n      pop\n      tag_210\n      dup2\n      tag_4\n      jump\t// in\n    tag_210:\n        /* \"src/Traits.sol\":3510:3526  traits.maleScarf */\n      0x0180\n      dup8\n      add\n        /* \"src/common/Enums.sol\":125:127  16 */\n      mstore\n        /* \"src/Traits.sol\":1042:15231  contract Traits is ITraits {... */\n      mload(0x40)\n      shl(0xe0, 0x28dcd095)\n        /* \"src/Traits.sol\":3602:3650  MALE_PROBS_CONTRACT.selectMaleHair(traits, prng) */\n      dup2\n      mstore\n        /* \"src/Traits.sol\":1042:15231  contract Traits is ITraits {... */\n      0x20\n      dup2\n      dup1\n        /* \"src/Traits.sol\":3602:3650  MALE_PROBS_CONTRACT.selectMaleHair(traits, prng) */\n      tag_211\n      dup10\n        /* \"src/Traits.sol\":3510:3526  traits.maleScarf */\n      dup12\n        /* \"src/Traits.sol\":2980:3020  MALE_PROBS_CONTRACT.selectMaleSkin(prng) */\n      0x04\n        /* \"src/Traits.sol\":3602:3650  MALE_PROBS_CONTRACT.selectMaleHair(traits, prng) */\n      dup5\n      add\n      tag_11\n      jump\t// in\n    tag_211:\n      sub\n      dup2\n      dup9\n      gas\n      staticcall\n      swap1\n      dup2\n      iszero\n      tag_267\n      jumpi\n      0x00\n      swap2\n      tag_214\n      jumpi\n        /* \"src/Traits.sol\":2816:6434  if (traits.sex == E_Sex.Male) {... */\n    tag_215:\n        /* \"src/Traits.sol\":1042:15231  contract Traits is ITraits {... */\n      pop\n      0xd4\n      dup2\n      lt\n      iszero\n      tag_63\n      jumpi\n        /* \"src/Traits.sol\":3584:3599  traits.maleHair */\n      0x01e0\n      dup8\n      add\n        /* \"src/common/Enums.sol\":125:127  16 */\n      mstore\n        /* \"src/Traits.sol\":1042:15231  contract Traits is ITraits {... */\n      mload(0x40)\n      shl(0xe1, 0x6177376d)\n        /* \"src/Traits.sol\":3685:3736  MALE_PROBS_CONTRACT.selectMaleHatHair(traits, prng) */\n      dup2\n      mstore\n        /* \"src/Traits.sol\":1042:15231  contract Traits is ITraits {... */\n      swap1\n      0x20\n      dup3\n      dup1\n        /* \"src/Traits.sol\":3685:3736  MALE_PROBS_CONTRACT.selectMaleHatHair(traits, prng) */\n      tag_218\n      dup10\n        /* \"src/Traits.sol\":3584:3599  traits.maleHair */\n      dup12\n        /* \"src/Traits.sol\":2980:3020  MALE_PROBS_CONTRACT.selectMaleSkin(prng) */\n      0x04\n        /* \"src/Traits.sol\":3685:3736  MALE_PROBS_CONTRACT.selectMaleHatHair(traits, prng) */\n      dup5\n      add\n      tag_11\n      jump\t// in\n    tag_218:\n      sub\n      dup2\n      dup9\n      gas\n      staticcall\n      swap2\n      dup3\n      iszero\n      tag_267\n      jumpi\n      0x00\n      swap3\n      tag_221\n      jumpi\n        /* \"src/Traits.sol\":2816:6434  if (traits.sex == E_Sex.Male) {... */\n    tag_222:\n        /* \"src/Traits.sol\":1042:15231  contract Traits is ITraits {... */\n      pop\n      0x6a\n      dup3\n      lt\n      iszero\n      tag_63\n      jumpi\n        /* \"src/Traits.sol\":3664:3682  traits.maleHatHair */\n      dup7\n      add\n        /* \"src/common/Enums.sol\":125:127  16 */\n      mstore\n        /* \"src/Traits.sol\":1042:15231  contract Traits is ITraits {... */\n      mload(0x40)\n      shl(0xe0, 0x7c2534b7)\n        /* \"src/Traits.sol\":3772:3816  MALE_PROBS_CONTRACT.selectMaleHeadwear(prng) */\n      dup2\n      mstore\n        /* \"src/common/Enums.sol\":125:127  16 */\n      dup5\n      mload\n        /* \"src/Traits.sol\":2980:3020  MALE_PROBS_CONTRACT.selectMaleSkin(prng) */\n      0x04\n        /* \"src/Traits.sol\":3772:3816  MALE_PROBS_CONTRACT.selectMaleHeadwear(prng) */\n      dup3\n      add\n        /* \"src/Traits.sol\":1042:15231  contract Traits is ITraits {... */\n      mstore\n      swap3\n      0x20\n      dup5\n        /* \"src/Traits.sol\":2980:3020  MALE_PROBS_CONTRACT.selectMaleSkin(prng) */\n      0x24\n        /* \"src/Traits.sol\":1042:15231  contract Traits is ITraits {... */\n      dup2\n        /* \"src/common/Enums.sol\":125:127  16 */\n      dup5\n        /* \"src/Traits.sol\":3772:3816  MALE_PROBS_CONTRACT.selectMaleHeadwear(prng) */\n      gas\n      staticcall\n      swap4\n      dup5\n      iszero\n      tag_267\n      jumpi\n      0x00\n      swap5\n      tag_227\n      jumpi\n        /* \"src/Traits.sol\":2816:6434  if (traits.sex == E_Sex.Male) {... */\n    tag_228:\n        /* \"src/Traits.sol\":3750:3769  traits.maleHeadwear */\n      pop\n      0x0220\n      dup7\n      add\n        /* \"src/Traits.sol\":1042:15231  contract Traits is ITraits {... */\n      swap4\n      0xa9\n      dup2\n      lt\n      iszero\n      tag_63\n      jumpi\n        /* \"src/common/Enums.sol\":125:127  16 */\n      dup5\n      mstore\n        /* \"src/Traits.sol\":1042:15231  contract Traits is ITraits {... */\n      mload(0x40)\n      shl(0xe1, 0x4d11b625)\n        /* \"src/Traits.sol\":3851:3894  MALE_PROBS_CONTRACT.selectMaleEyeWear(prng) */\n      dup2\n      mstore\n        /* \"src/common/Enums.sol\":125:127  16 */\n      dup6\n      mload\n        /* \"src/Traits.sol\":2980:3020  MALE_PROBS_CONTRACT.selectMaleSkin(prng) */\n      0x04\n        /* \"src/Traits.sol\":3851:3894  MALE_PROBS_CONTRACT.selectMaleEyeWear(prng) */\n      dup3\n      add\n        /* \"src/Traits.sol\":1042:15231  contract Traits is ITraits {... */\n      mstore\n      swap1\n      0x20\n      swap1\n      dup3\n      swap1\n        /* \"src/Traits.sol\":2980:3020  MALE_PROBS_CONTRACT.selectMaleSkin(prng) */\n      0x24\n      swap1\n        /* \"src/Traits.sol\":1042:15231  contract Traits is ITraits {... */\n      dup3\n      swap1\n        /* \"src/Traits.sol\":3851:3894  MALE_PROBS_CONTRACT.selectMaleEyeWear(prng) */\n      gas\n      staticcall\n      swap1\n      dup2\n      iszero\n      tag_267\n      jumpi\n      0x00\n      swap2\n      tag_233\n      jumpi\n        /* \"src/Traits.sol\":2816:6434  if (traits.sex == E_Sex.Male) {... */\n    tag_234:\n        /* \"src/Traits.sol\":1042:15231  contract Traits is ITraits {... */\n      pop\n        /* \"src/Traits.sol\":2065:2080  traits.birthday */\n      0x80\n        /* \"src/Traits.sol\":1042:15231  contract Traits is ITraits {... */\n      dup2\n      lt\n      iszero\n      tag_63\n      jumpi\n        /* \"src/Traits.sol\":3830:3848  traits.maleEyeWear */\n      0x0240\n      dup7\n      add\n        /* \"src/common/Enums.sol\":125:127  16 */\n      mstore\n        /* \"src/Traits.sol\":1042:15231  contract Traits is ITraits {... */\n      mload\n      0x1d\n      dup2\n      lt\n      iszero\n      tag_63\n      jumpi\n      tag_239\n      tag_9\n      jump\t// in\n    tag_239:\n      swap1\n      0xff\n      swap1\n      0x02\n      dup4\n      mstore\n      and\n      0x20\n        /* \"src/Traits.sol\":14602:14626  traitToRender.traitIndex */\n      dup3\n      add\n        /* \"src/Traits.sol\":1042:15231  contract Traits is ITraits {... */\n      mstore\n      0x00\n      0x40\n        /* \"src/Traits.sol\":14650:14673  traitToRender.hasFiller */\n      dup3\n      add\n        /* \"src/Traits.sol\":1042:15231  contract Traits is ITraits {... */\n      mstore\n        /* \"src/Traits.sol\":14700:14768  _traits.traitsToRender[_traits.traitsToRenderLength] = traitToRender */\n      tag_242\n        /* \"src/Traits.sol\":14700:14722  _traits.traitsToRender */\n      dup6\n      mload\n        /* \"src/Traits.sol\":14723:14751  _traits.traitsToRenderLength */\n      swap2\n        /* \"src/Traits.sol\":1042:15231  contract Traits is ITraits {... */\n      0x20\n        /* \"src/Traits.sol\":14723:14751  _traits.traitsToRenderLength */\n      dup8\n      add\n        /* \"src/Traits.sol\":1042:15231  contract Traits is ITraits {... */\n      swap3\n      0xff\n      dup5\n      mload\n      and\n        /* \"src/Traits.sol\":14700:14768  _traits.traitsToRender[_traits.traitsToRenderLength] = traitToRender */\n      swap2\n      tag_243\n      dup4\n      dup4\n      tag_36\n      jump\t// in\n    tag_243:\n      mstore\n      tag_36\n      jump\t// in\n    tag_242:\n      pop\n        /* \"src/Traits.sol\":1042:15231  contract Traits is ITraits {... */\n      0xff\n      dup2\n      mload\n      and\n      0xff\n      dup2\n      eq\n      tag_244\n      jumpi\n        /* \"src/Traits.sol\":2054:2055  1 */\n      0x01\n        /* \"src/Traits.sol\":1042:15231  contract Traits is ITraits {... */\n      add\n      0xff\n      and\n      swap1\n      mstore\n        /* \"src/Traits.sol\":3956:3962  traits */\n      tag_246\n      dup5\n      tag_24\n      jump\t// in\n    tag_246:\n        /* \"src/Traits.sol\":3990:3996  traits */\n      tag_247\n      dup5\n      tag_25\n      jump\t// in\n    tag_247:\n        /* \"src/Traits.sol\":4025:4031  traits */\n      tag_248\n      dup5\n      tag_26\n      jump\t// in\n    tag_248:\n        /* \"src/Traits.sol\":4062:4068  traits */\n      tag_249\n      dup5\n      tag_27\n      jump\t// in\n    tag_249:\n        /* \"src/Traits.sol\":1042:15231  contract Traits is ITraits {... */\n      mload\n      0x58\n      dup2\n      lt\n      iszero\n      tag_63\n      jumpi\n        /* \"src/libraries/TraitsLib.sol\":6370:6418  traits.maleFacialHair != E_Male_Facial_Hair.None */\n      iszero\n      tag_252\n      jumpi\n        /* \"src/Traits.sol\":4216:4222  traits */\n      tag_254\n      dup4\n      tag_29\n      jump\t// in\n    tag_254:\n        /* \"src/Traits.sol\":4326:4332  traits */\n      tag_256\n      dup4\n      tag_30\n      jump\t// in\n    tag_256:\n        /* \"src/Traits.sol\":1042:15231  contract Traits is ITraits {... */\n      mload\n      0xa9\n      dup2\n      lt\n      iszero\n      tag_63\n      jumpi\n        /* \"src/Traits.sol\":6491:6536  MALE_PROBS_CONTRACT.selectMouth(traits, prng) */\n      tag_259\n      swap2\n        /* \"src/Traits.sol\":1042:15231  contract Traits is ITraits {... */\n      0x20\n      swap2\n        /* \"src/libraries/TraitsLib.sol\":5752:5795  traits.maleHeadwear != E_Male_Headwear.None */\n      iszero\n      tag_260\n      jumpi\n        /* \"src/Traits.sol\":4513:4519  traits */\n      tag_262\n      dup5\n      tag_32\n      jump\t// in\n    tag_262:\n        /* \"src/Traits.sol\":4718:4724  traits */\n      tag_264\n      dup5\n      tag_33\n      jump\t// in\n    tag_264:\n        /* \"src/Traits.sol\":4755:4761  traits */\n      tag_265\n      dup5\n      tag_34\n      jump\t// in\n    tag_265:\n        /* \"src/Traits.sol\":1042:15231  contract Traits is ITraits {... */\n      mload(0x40)\n        /* \"src/common/Enums.sol\":125:127  16 */\n      dup1\n      swap4\n      dup2\n      swap3\n      shl(0xe0, 0x0b625f9b)\n        /* \"src/Traits.sol\":6491:6536  MALE_PROBS_CONTRACT.selectMouth(traits, prng) */\n      dup4\n      mstore\n      dup7\n      0x04\n      dup5\n      add\n      tag_11\n      jump\t// in\n    tag_259:\n      sub\n        /* \"src/Traits.sol\":1042:15231  contract Traits is ITraits {... */\n      dup2\n        /* \"src/Traits.sol\":6491:6510  MALE_PROBS_CONTRACT */\n      immutable(\"0x4569971f3d79dc8da7f8a6820be6cb8dc4a52bb0df6599b2aae7182111b63cd5\")\n      sub(shl(0xa0, 0x01), 0x01)\n        /* \"src/Traits.sol\":1042:15231  contract Traits is ITraits {... */\n      and\n        /* \"src/Traits.sol\":6491:6536  MALE_PROBS_CONTRACT.selectMouth(traits, prng) */\n      gas\n      staticcall\n      swap1\n      dup2\n      iszero\n      tag_267\n      jumpi\n      0x00\n      swap2\n      tag_269\n      jumpi\n        /* \"src/Traits.sol\":2816:6434  if (traits.sex == E_Sex.Male) {... */\n    tag_270:\n        /* \"src/Traits.sol\":1042:15231  contract Traits is ITraits {... */\n      pop\n      tag_271\n      dup2\n      tag_2\n      jump\t// in\n    tag_271:\n        /* \"src/Traits.sol\":6476:6488  traits.mouth */\n      0x03c0\n      dup3\n      add\n        /* \"src/common/Enums.sol\":125:127  16 */\n      mstore\n        /* \"src/libraries/TraitsLib.sol\":6212:6229  traits.femaleMask */\n      0x0320\n      dup2\n      add\n        /* \"src/Traits.sol\":1042:15231  contract Traits is ITraits {... */\n      mload\n      0x15\n      dup2\n      lt\n      iszero\n      tag_63\n      jumpi\n        /* \"src/libraries/TraitsLib.sol\":6212:6251  traits.femaleMask != E_Female_Mask.None */\n      iszero\n        /* \"src/Traits.sol\":6607:6673  !TraitsLib.femaleHasMask(traits) && !TraitsLib.maleHasMask(traits) */\n      dup1\n      tag_274\n      jumpi\n        /* \"src/Traits.sol\":2816:6434  if (traits.sex == E_Sex.Male) {... */\n    tag_275:\n        /* \"src/Traits.sol\":6603:6717  if (!TraitsLib.femaleHasMask(traits) && !TraitsLib.maleHasMask(traits)) {... */\n      tag_276\n      jumpi\n        /* \"src/Traits.sol\":1382:6747  function generateAllTraits(uint16 _tokenIdSeed, uint8 _backgroundIndex, uint256 _globalSeed) external view returns (TraitsContext memory) {... */\n      swap1\n      jump\t// out\n        /* \"src/Traits.sol\":6603:6717  if (!TraitsLib.femaleHasMask(traits) && !TraitsLib.maleHasMask(traits)) {... */\n    tag_276:\n        /* \"src/Traits.sol\":6699:6705  traits */\n      tag_278\n      dup2\n      tag_35\n      jump\t// in\n    tag_278:\n        /* \"src/Traits.sol\":1382:6747  function generateAllTraits(uint16 _tokenIdSeed, uint8 _backgroundIndex, uint256 _globalSeed) external view returns (TraitsContext memory) {... */\n      swap1\n      jump\t// out\n        /* \"src/Traits.sol\":6607:6673  !TraitsLib.femaleHasMask(traits) && !TraitsLib.maleHasMask(traits) */\n    tag_274:\n        /* \"src/libraries/TraitsLib.sol\":6066:6081  traits.maleMask */\n      pop\n      0x01c0\n      dup2\n      add\n        /* \"src/Traits.sol\":1042:15231  contract Traits is ITraits {... */\n      mload\n      0x16\n      dup2\n      lt\n      iszero\n      tag_63\n      jumpi\n        /* \"src/libraries/TraitsLib.sol\":6066:6101  traits.maleMask != E_Male_Mask.None */\n      iszero\n        /* \"src/Traits.sol\":6607:6673  !TraitsLib.femaleHasMask(traits) && !TraitsLib.maleHasMask(traits) */\n      jump(tag_275)\n        /* \"src/Traits.sol\":6491:6536  MALE_PROBS_CONTRACT.selectMouth(traits, prng) */\n    tag_269:\n      swap1\n      pop\n        /* \"src/Traits.sol\":1042:15231  contract Traits is ITraits {... */\n      0x20\n        /* \"src/Traits.sol\":6491:6536  MALE_PROBS_CONTRACT.selectMouth(traits, prng) */\n      dup2\n      returndatasize\n        /* \"src/Traits.sol\":1042:15231  contract Traits is ITraits {... */\n      0x20\n        /* \"src/Traits.sol\":6491:6536  MALE_PROBS_CONTRACT.selectMouth(traits, prng) */\n      gt\n      tag_281\n      jumpi\n    tag_282:\n      dup2\n      tag_283\n        /* \"src/Traits.sol\":1042:15231  contract Traits is ITraits {... */\n      0x20\n        /* \"src/Traits.sol\":6491:6536  MALE_PROBS_CONTRACT.selectMouth(traits, prng) */\n      swap4\n      dup4\n      tag_6\n      jump\t// in\n    tag_283:\n      dup2\n      add\n        /* \"src/common/Enums.sol\":125:127  16 */\n      sub\n      slt\n      tag_51\n      jumpi\n      mload\n      0x17\n      dup2\n      lt\n      iszero\n      tag_51\n      jumpi\n        /* \"src/Traits.sol\":6491:6536  MALE_PROBS_CONTRACT.selectMouth(traits, prng) */\n      0x00\n      jump(tag_270)\n    tag_281:\n      returndatasize\n      swap2\n      pop\n      jump(tag_282)\n    tag_267:\n        /* \"src/Traits.sol\":1042:15231  contract Traits is ITraits {... */\n      mload(0x40)\n        /* \"src/common/Enums.sol\":125:127  16 */\n      returndatasize\n      0x00\n      dup3\n      returndatacopy\n      returndatasize\n      swap1\n      revert\n        /* \"src/Traits.sol\":4398:4687  if (TraitsLib.maleHasHeadwear(traits)) {... */\n    tag_260:\n        /* \"src/Traits.sol\":4665:4671  traits */\n      tag_288\n      dup5\n      tag_31\n      jump\t// in\n    tag_288:\n        /* \"src/Traits.sol\":4398:4687  if (TraitsLib.maleHasHeadwear(traits)) {... */\n      jump(tag_262)\n        /* \"src/Traits.sol\":4138:4298  if (TraitsLib.maleHasFacialHair(traits)) {... */\n    tag_252:\n        /* \"src/Traits.sol\":4275:4281  traits */\n      tag_289\n      dup4\n      tag_28\n      jump\t// in\n    tag_289:\n        /* \"src/Traits.sol\":4138:4298  if (TraitsLib.maleHasFacialHair(traits)) {... */\n      jump(tag_254)\n        /* \"src/Traits.sol\":1042:15231  contract Traits is ITraits {... */\n    tag_244:\n      shl(0xe0, 0x4e487b71)\n      0x00\n        /* \"src/common/Enums.sol\":125:127  16 */\n      mstore\n      0x11\n        /* \"src/Traits.sol\":2980:3020  MALE_PROBS_CONTRACT.selectMaleSkin(prng) */\n      0x04\n        /* \"src/common/Enums.sol\":125:127  16 */\n      mstore\n        /* \"src/Traits.sol\":2980:3020  MALE_PROBS_CONTRACT.selectMaleSkin(prng) */\n      0x24\n      0x00\n        /* \"src/common/Enums.sol\":125:127  16 */\n      revert\n        /* \"src/Traits.sol\":3851:3894  MALE_PROBS_CONTRACT.selectMaleEyeWear(prng) */\n    tag_233:\n      swap1\n      pop\n        /* \"src/Traits.sol\":1042:15231  contract Traits is ITraits {... */\n      0x20\n        /* \"src/Traits.sol\":3851:3894  MALE_PROBS_CONTRACT.selectMaleEyeWear(prng) */\n      dup2\n      returndatasize\n        /* \"src/Traits.sol\":1042:15231  contract Traits is ITraits {... */\n      0x20\n        /* \"src/Traits.sol\":3851:3894  MALE_PROBS_CONTRACT.selectMaleEyeWear(prng) */\n      gt\n      tag_290\n      jumpi\n    tag_291:\n      dup2\n      tag_292\n        /* \"src/Traits.sol\":1042:15231  contract Traits is ITraits {... */\n      0x20\n        /* \"src/Traits.sol\":3851:3894  MALE_PROBS_CONTRACT.selectMaleEyeWear(prng) */\n      swap4\n      dup4\n      tag_6\n      jump\t// in\n    tag_292:\n      dup2\n      add\n        /* \"src/common/Enums.sol\":125:127  16 */\n      sub\n      slt\n      tag_51\n      jumpi\n      mload\n        /* \"src/Traits.sol\":2065:2080  traits.birthday */\n      0x80\n        /* \"src/common/Enums.sol\":125:127  16 */\n      dup2\n      lt\n      iszero\n      tag_51\n      jumpi\n        /* \"src/Traits.sol\":3851:3894  MALE_PROBS_CONTRACT.selectMaleEyeWear(prng) */\n      0x00\n      jump(tag_234)\n    tag_290:\n      returndatasize\n      swap2\n      pop\n      jump(tag_291)\n        /* \"src/Traits.sol\":3772:3816  MALE_PROBS_CONTRACT.selectMaleHeadwear(prng) */\n    tag_227:\n      swap1\n      swap4\n      pop\n        /* \"src/Traits.sol\":1042:15231  contract Traits is ITraits {... */\n      0x20\n        /* \"src/Traits.sol\":3772:3816  MALE_PROBS_CONTRACT.selectMaleHeadwear(prng) */\n      dup2\n      returndatasize\n        /* \"src/Traits.sol\":1042:15231  contract Traits is ITraits {... */\n      0x20\n        /* \"src/Traits.sol\":3772:3816  MALE_PROBS_CONTRACT.selectMaleHeadwear(prng) */\n      gt\n      tag_297\n      jumpi\n    tag_298:\n      dup2\n      tag_299\n        /* \"src/Traits.sol\":1042:15231  contract Traits is ITraits {... */\n      0x20\n        /* \"src/Traits.sol\":3772:3816  MALE_PROBS_CONTRACT.selectMaleHeadwear(prng) */\n      swap4\n      dup4\n      tag_6\n      jump\t// in\n    tag_299:\n      dup2\n      add\n        /* \"src/common/Enums.sol\":125:127  16 */\n      sub\n      slt\n      tag_51\n      jumpi\n      mload\n      0xa9\n      dup2\n      lt\n      iszero\n      tag_51\n      jumpi\n        /* \"src/Traits.sol\":3772:3816  MALE_PROBS_CONTRACT.selectMaleHeadwear(prng) */\n      swap3\n      0x00\n      jump(tag_228)\n    tag_297:\n      returndatasize\n      swap2\n      pop\n      jump(tag_298)\n        /* \"src/Traits.sol\":3685:3736  MALE_PROBS_CONTRACT.selectMaleHatHair(traits, prng) */\n    tag_221:\n      swap1\n      swap2\n      pop\n        /* \"src/Traits.sol\":1042:15231  contract Traits is ITraits {... */\n      0x20\n        /* \"src/Traits.sol\":3685:3736  MALE_PROBS_CONTRACT.selectMaleHatHair(traits, prng) */\n      dup2\n      returndatasize\n        /* \"src/Traits.sol\":1042:15231  contract Traits is ITraits {... */\n      0x20\n        /* \"src/Traits.sol\":3685:3736  MALE_PROBS_CONTRACT.selectMaleHatHair(traits, prng) */\n      gt\n      tag_304\n      jumpi\n    tag_305:\n      dup2\n      tag_306\n        /* \"src/Traits.sol\":1042:15231  contract Traits is ITraits {... */\n      0x20\n        /* \"src/Traits.sol\":3685:3736  MALE_PROBS_CONTRACT.selectMaleHatHair(traits, prng) */\n      swap4\n      dup4\n      tag_6\n      jump\t// in\n    tag_306:\n      dup2\n      add\n        /* \"src/common/Enums.sol\":125:127  16 */\n      sub\n      slt\n      tag_51\n      jumpi\n      mload\n      0x6a\n      dup2\n      lt\n      iszero\n      tag_51\n      jumpi\n        /* \"src/Traits.sol\":3685:3736  MALE_PROBS_CONTRACT.selectMaleHatHair(traits, prng) */\n      swap1\n      0x00\n      jump(tag_222)\n    tag_304:\n      returndatasize\n      swap2\n      pop\n      jump(tag_305)\n        /* \"src/Traits.sol\":3602:3650  MALE_PROBS_CONTRACT.selectMaleHair(traits, prng) */\n    tag_214:\n      swap1\n      pop\n        /* \"src/Traits.sol\":1042:15231  contract Traits is ITraits {... */\n      0x20\n        /* \"src/Traits.sol\":3602:3650  MALE_PROBS_CONTRACT.selectMaleHair(traits, prng) */\n      dup2\n      returndatasize\n        /* \"src/Traits.sol\":1042:15231  contract Traits is ITraits {... */\n      0x20\n        /* \"src/Traits.sol\":3602:3650  MALE_PROBS_CONTRACT.selectMaleHair(traits, prng) */\n      gt\n      tag_311\n      jumpi\n    tag_312:\n      dup2\n      tag_313\n        /* \"src/Traits.sol\":1042:15231  contract Traits is ITraits {... */\n      0x20\n        /* \"src/Traits.sol\":3602:3650  MALE_PROBS_CONTRACT.selectMaleHair(traits, prng) */\n      swap4\n      dup4\n      tag_6\n      jump\t// in\n    tag_313:\n      dup2\n      add\n        /* \"src/common/Enums.sol\":125:127  16 */\n      sub\n      slt\n      tag_51\n      jumpi\n      mload\n      0xd4\n      dup2\n      lt\n      iszero\n      tag_51\n      jumpi\n        /* \"src/Traits.sol\":3602:3650  MALE_PROBS_CONTRACT.selectMaleHair(traits, prng) */\n      0x00\n      jump(tag_215)\n    tag_311:\n      returndatasize\n      swap2\n      pop\n      jump(tag_312)\n        /* \"src/Traits.sol\":3529:3570  MALE_PROBS_CONTRACT.selectMaleScarf(prng) */\n    tag_208:\n      swap1\n      pop\n        /* \"src/Traits.sol\":1042:15231  contract Traits is ITraits {... */\n      0x20\n        /* \"src/Traits.sol\":3529:3570  MALE_PROBS_CONTRACT.selectMaleScarf(prng) */\n      dup2\n      returndatasize\n        /* \"src/Traits.sol\":1042:15231  contract Traits is ITraits {... */\n      0x20\n        /* \"src/Traits.sol\":3529:3570  MALE_PROBS_CONTRACT.selectMaleScarf(prng) */\n      gt\n      tag_318\n      jumpi\n    tag_319:\n      dup2\n      tag_320\n        /* \"src/Traits.sol\":1042:15231  contract Traits is ITraits {... */\n      0x20\n        /* \"src/Traits.sol\":3529:3570  MALE_PROBS_CONTRACT.selectMaleScarf(prng) */\n      swap4\n      dup4\n      tag_6\n      jump\t// in\n    tag_320:\n      dup2\n      add\n        /* \"src/common/Enums.sol\":125:127  16 */\n      sub\n      slt\n      tag_51\n      jumpi\n      mload\n        /* \"src/Traits.sol\":2980:3020  MALE_PROBS_CONTRACT.selectMaleSkin(prng) */\n      0x04\n        /* \"src/common/Enums.sol\":125:127  16 */\n      dup2\n      lt\n      iszero\n      tag_51\n      jumpi\n        /* \"src/Traits.sol\":3529:3570  MALE_PROBS_CONTRACT.selectMaleScarf(prng) */\n      0x00\n      jump(tag_209)\n    tag_318:\n      returndatasize\n      swap2\n      pop\n      jump(tag_319)\n        /* \"src/Traits.sol\":3456:3496  MALE_PROBS_CONTRACT.selectMaleMask(prng) */\n    tag_202:\n      swap1\n      pop\n        /* \"src/Traits.sol\":1042:15231  contract Traits is ITraits {... */\n      0x20\n        /* \"src/Traits.sol\":3456:3496  MALE_PROBS_CONTRACT.selectMaleMask(prng) */\n      dup2\n      returndatasize\n        /* \"src/Traits.sol\":1042:15231  contract Traits is ITraits {... */\n      0x20\n        /* \"src/Traits.sol\":3456:3496  MALE_PROBS_CONTRACT.selectMaleMask(prng) */\n      gt\n      tag_325\n      jumpi\n    tag_326:\n      dup2\n      tag_327\n        /* \"src/Traits.sol\":1042:15231  contract Traits is ITraits {... */\n      0x20\n        /* \"src/Traits.sol\":3456:3496  MALE_PROBS_CONTRACT.selectMaleMask(prng) */\n      swap4\n      dup4\n      tag_6\n      jump\t// in\n    tag_327:\n      dup2\n      add\n        /* \"src/common/Enums.sol\":125:127  16 */\n      sub\n      slt\n      tag_51\n      jumpi\n      mload\n      0x16\n      dup2\n      lt\n      iszero\n      tag_51\n      jumpi\n        /* \"src/Traits.sol\":3456:3496  MALE_PROBS_CONTRACT.selectMaleMask(prng) */\n      0x00\n      jump(tag_203)\n    tag_325:\n      returndatasize\n      swap2\n      pop\n      jump(tag_326)\n        /* \"src/Traits.sol\":3370:3424  MALE_PROBS_CONTRACT.selectMaleFacialHair(traits, prng) */\n    tag_196:\n      swap1\n      swap3\n      pop\n        /* \"src/Traits.sol\":1042:15231  contract Traits is ITraits {... */\n      0x20\n        /* \"src/Traits.sol\":3370:3424  MALE_PROBS_CONTRACT.selectMaleFacialHair(traits, prng) */\n      dup2\n      returndatasize\n        /* \"src/Traits.sol\":1042:15231  contract Traits is ITraits {... */\n      0x20\n        /* \"src/Traits.sol\":3370:3424  MALE_PROBS_CONTRACT.selectMaleFacialHair(traits, prng) */\n      gt\n      tag_332\n      jumpi\n    tag_333:\n      dup2\n      tag_334\n        /* \"src/Traits.sol\":1042:15231  contract Traits is ITraits {... */\n      0x20\n        /* \"src/Traits.sol\":3370:3424  MALE_PROBS_CONTRACT.selectMaleFacialHair(traits, prng) */\n      swap4\n      dup4\n      tag_6\n      jump\t// in\n    tag_334:\n      dup2\n      add\n        /* \"src/common/Enums.sol\":125:127  16 */\n      sub\n      slt\n      tag_51\n      jumpi\n      mload\n      0x58\n      dup2\n      lt\n      iszero\n      tag_51\n      jumpi\n        /* \"src/Traits.sol\":3370:3424  MALE_PROBS_CONTRACT.selectMaleFacialHair(traits, prng) */\n      swap2\n      0x00\n      jump(tag_197)\n    tag_332:\n      returndatasize\n      swap2\n      pop\n      jump(tag_333)\n        /* \"src/Traits.sol\":3289:3332  MALE_PROBS_CONTRACT.selectMaleEarring(prng) */\n    tag_190:\n      swap1\n      pop\n        /* \"src/Traits.sol\":1042:15231  contract Traits is ITraits {... */\n      0x20\n        /* \"src/Traits.sol\":3289:3332  MALE_PROBS_CONTRACT.selectMaleEarring(prng) */\n      dup2\n      returndatasize\n        /* \"src/Traits.sol\":1042:15231  contract Traits is ITraits {... */\n      0x20\n        /* \"src/Traits.sol\":3289:3332  MALE_PROBS_CONTRACT.selectMaleEarring(prng) */\n      gt\n      tag_339\n      jumpi\n    tag_340:\n      dup2\n      tag_341\n        /* \"src/Traits.sol\":1042:15231  contract Traits is ITraits {... */\n      0x20\n        /* \"src/Traits.sol\":3289:3332  MALE_PROBS_CONTRACT.selectMaleEarring(prng) */\n      swap4\n      dup4\n      tag_6\n      jump\t// in\n    tag_341:\n      dup2\n      add\n        /* \"src/common/Enums.sol\":125:127  16 */\n      sub\n      slt\n      tag_51\n      jumpi\n      mload\n      0x09\n      dup2\n      lt\n      iszero\n      tag_51\n      jumpi\n        /* \"src/Traits.sol\":3289:3332  MALE_PROBS_CONTRACT.selectMaleEarring(prng) */\n      0x00\n      jump(tag_191)\n    tag_339:\n      returndatasize\n      swap2\n      pop\n      jump(tag_340)\n        /* \"src/Traits.sol\":3213:3254  MALE_PROBS_CONTRACT.selectMaleChain(prng) */\n    tag_185:\n      swap1\n      pop\n        /* \"src/Traits.sol\":1042:15231  contract Traits is ITraits {... */\n      0x20\n        /* \"src/Traits.sol\":3213:3254  MALE_PROBS_CONTRACT.selectMaleChain(prng) */\n      dup2\n      returndatasize\n        /* \"src/Traits.sol\":1042:15231  contract Traits is ITraits {... */\n      0x20\n        /* \"src/Traits.sol\":3213:3254  MALE_PROBS_CONTRACT.selectMaleChain(prng) */\n      gt\n      tag_346\n      jumpi\n    tag_347:\n      dup2\n      tag_348\n        /* \"src/Traits.sol\":1042:15231  contract Traits is ITraits {... */\n      0x20\n        /* \"src/Traits.sol\":3213:3254  MALE_PROBS_CONTRACT.selectMaleChain(prng) */\n      swap4\n      dup4\n      tag_6\n      jump\t// in\n    tag_348:\n      dup2\n      add\n        /* \"src/common/Enums.sol\":125:127  16 */\n      sub\n      slt\n      tag_51\n      jumpi\n      mload\n      0x09\n      dup2\n      lt\n      iszero\n      tag_51\n      jumpi\n        /* \"src/Traits.sol\":3213:3254  MALE_PROBS_CONTRACT.selectMaleChain(prng) */\n      0x00\n      jump(tag_186)\n    tag_346:\n      returndatasize\n      swap2\n      pop\n      jump(tag_347)\n        /* \"src/Traits.sol\":3132:3180  MALE_PROBS_CONTRACT.selectMaleFace(traits, prng) */\n    tag_179:\n      swap1\n      pop\n        /* \"src/Traits.sol\":1042:15231  contract Traits is ITraits {... */\n      0x20\n        /* \"src/Traits.sol\":3132:3180  MALE_PROBS_CONTRACT.selectMaleFace(traits, prng) */\n      dup2\n      returndatasize\n        /* \"src/Traits.sol\":1042:15231  contract Traits is ITraits {... */\n      0x20\n        /* \"src/Traits.sol\":3132:3180  MALE_PROBS_CONTRACT.selectMaleFace(traits, prng) */\n      gt\n      tag_353\n      jumpi\n    tag_354:\n      dup2\n      tag_355\n        /* \"src/Traits.sol\":1042:15231  contract Traits is ITraits {... */\n      0x20\n        /* \"src/Traits.sol\":3132:3180  MALE_PROBS_CONTRACT.selectMaleFace(traits, prng) */\n      swap4\n      dup4\n      tag_6\n      jump\t// in\n    tag_355:\n      dup2\n      add\n        /* \"src/common/Enums.sol\":125:127  16 */\n      sub\n      slt\n      tag_51\n      jumpi\n      mload\n      0x14\n      dup2\n      lt\n      iszero\n      tag_51\n      jumpi\n        /* \"src/Traits.sol\":3132:3180  MALE_PROBS_CONTRACT.selectMaleFace(traits, prng) */\n      0x00\n      jump(tag_180)\n    tag_353:\n      returndatasize\n      swap2\n      pop\n      jump(tag_354)\n        /* \"src/Traits.sol\":3052:3100  MALE_PROBS_CONTRACT.selectMaleEyes(traits, prng) */\n    tag_173:\n      swap1\n      pop\n        /* \"src/Traits.sol\":1042:15231  contract Traits is ITraits {... */\n      0x20\n        /* \"src/Traits.sol\":3052:3100  MALE_PROBS_CONTRACT.selectMaleEyes(traits, prng) */\n      dup2\n      returndatasize\n        /* \"src/Traits.sol\":1042:15231  contract Traits is ITraits {... */\n      0x20\n        /* \"src/Traits.sol\":3052:3100  MALE_PROBS_CONTRACT.selectMaleEyes(traits, prng) */\n      gt\n      tag_360\n      jumpi\n    tag_361:\n      dup2\n      tag_362\n        /* \"src/Traits.sol\":1042:15231  contract Traits is ITraits {... */\n      0x20\n        /* \"src/Traits.sol\":3052:3100  MALE_PROBS_CONTRACT.selectMaleEyes(traits, prng) */\n      swap4\n      dup4\n      tag_6\n      jump\t// in\n    tag_362:\n      dup2\n      add\n        /* \"src/common/Enums.sol\":125:127  16 */\n      sub\n      slt\n      tag_51\n      jumpi\n      mload\n      0x17\n      dup2\n      lt\n      iszero\n      tag_51\n      jumpi\n        /* \"src/Traits.sol\":3052:3100  MALE_PROBS_CONTRACT.selectMaleEyes(traits, prng) */\n      0x00\n      jump(tag_174)\n    tag_360:\n      returndatasize\n      swap2\n      pop\n      jump(tag_361)\n        /* \"src/Traits.sol\":2980:3020  MALE_PROBS_CONTRACT.selectMaleSkin(prng) */\n    tag_166:\n      swap1\n      pop\n        /* \"src/Traits.sol\":1042:15231  contract Traits is ITraits {... */\n      0x20\n        /* \"src/Traits.sol\":2980:3020  MALE_PROBS_CONTRACT.selectMaleSkin(prng) */\n      dup2\n      returndatasize\n        /* \"src/Traits.sol\":1042:15231  contract Traits is ITraits {... */\n      0x20\n        /* \"src/Traits.sol\":2980:3020  MALE_PROBS_CONTRACT.selectMaleSkin(prng) */\n      gt\n      tag_367\n      jumpi\n    tag_368:\n      dup2\n      tag_369\n        /* \"src/Traits.sol\":1042:15231  contract Traits is ITraits {... */\n      0x20\n        /* \"src/Traits.sol\":2980:3020  MALE_PROBS_CONTRACT.selectMaleSkin(prng) */\n      swap4\n      dup4\n      tag_6\n      jump\t// in\n    tag_369:\n      dup2\n      add\n        /* \"src/common/Enums.sol\":125:127  16 */\n      sub\n      slt\n      tag_51\n      jumpi\n      mload\n      0x1d\n      dup2\n      lt\n      iszero\n      tag_51\n      jumpi\n        /* \"src/Traits.sol\":2980:3020  MALE_PROBS_CONTRACT.selectMaleSkin(prng) */\n      0x00\n      jump(tag_167)\n    tag_367:\n      returndatasize\n      swap2\n      pop\n      jump(tag_368)\n        /* \"src/Traits.sol\":2816:6434  if (traits.sex == E_Sex.Male) {... */\n    tag_158:\n        /* \"src/Traits.sol\":1042:15231  contract Traits is ITraits {... */\n      0xff\n      swap2\n      pop\n      and\n      0x05\n      dup2\n      lt\n      iszero\n      tag_63\n      jumpi\n        /* \"src/Traits.sol\":4852:4902  traits.background = E_Background(_backgroundIndex) */\n      tag_376\n        /* \"src/Traits.sol\":4852:4869  traits.background */\n      swap1\n      0xc0\n      dup5\n      add\n        /* \"src/Traits.sol\":4852:4902  traits.background = E_Background(_backgroundIndex) */\n      tag_10\n      jump\t// in\n    tag_376:\n        /* \"src/Traits.sol\":4931:4937  traits */\n      tag_377\n      dup3\n      tag_13\n      jump\t// in\n    tag_377:\n        /* \"src/Traits.sol\":1042:15231  contract Traits is ITraits {... */\n      mload(0x40)\n      shl(0xe0, 0xfe9549)\n        /* \"src/Traits.sol\":4973:5017  FEMALE_PROBS_CONTRACT.selectFemaleSkin(prng) */\n      dup2\n      mstore\n        /* \"src/common/Enums.sol\":125:127  16 */\n      dup2\n      mload\n        /* \"src/Traits.sol\":4973:5017  FEMALE_PROBS_CONTRACT.selectFemaleSkin(prng) */\n      0x04\n      dup3\n      add\n        /* \"src/Traits.sol\":1042:15231  contract Traits is ITraits {... */\n      mstore\n        /* \"src/Traits.sol\":4973:4994  FEMALE_PROBS_CONTRACT */\n      immutable(\"0x35bb2e240092263378f77ea1e9c278099a33b604c4c4e26d13ea227e8bb74470\")\n      sub(shl(0xa0, 0x01), 0x01)\n        /* \"src/Traits.sol\":1042:15231  contract Traits is ITraits {... */\n      and\n      swap1\n      0x20\n      dup2\n        /* \"src/Traits.sol\":4973:5017  FEMALE_PROBS_CONTRACT.selectFemaleSkin(prng) */\n      0x24\n        /* \"src/Traits.sol\":1042:15231  contract Traits is ITraits {... */\n      dup2\n      dup6\n        /* \"src/Traits.sol\":4973:5017  FEMALE_PROBS_CONTRACT.selectFemaleSkin(prng) */\n      gas\n      staticcall\n      swap1\n      dup2\n      iszero\n      tag_267\n      jumpi\n      0x00\n      swap2\n      tag_380\n      jumpi\n        /* \"src/Traits.sol\":2816:6434  if (traits.sex == E_Sex.Male) {... */\n    tag_381:\n        /* \"src/Traits.sol\":4953:4970  traits.femaleSkin */\n      pop\n      0x0260\n      dup5\n      add\n        /* \"src/Traits.sol\":1042:15231  contract Traits is ITraits {... */\n      swap1\n      0x1a\n      dup2\n      lt\n      iszero\n      tag_63\n      jumpi\n        /* \"src/common/Enums.sol\":125:127  16 */\n      dup2\n      mstore\n        /* \"src/Traits.sol\":1042:15231  contract Traits is ITraits {... */\n      mload(0x40)\n      shl(0xe5, 0x04e595ab)\n        /* \"src/Traits.sol\":5051:5103  FEMALE_PROBS_CONTRACT.selectFemaleEyes(traits, prng) */\n      dup2\n      mstore\n        /* \"src/Traits.sol\":1042:15231  contract Traits is ITraits {... */\n      0x20\n      dup2\n      dup1\n        /* \"src/Traits.sol\":5051:5103  FEMALE_PROBS_CONTRACT.selectFemaleEyes(traits, prng) */\n      tag_384\n      dup8\n      dup10\n        /* \"src/Traits.sol\":4973:5017  FEMALE_PROBS_CONTRACT.selectFemaleSkin(prng) */\n      0x04\n        /* \"src/Traits.sol\":5051:5103  FEMALE_PROBS_CONTRACT.selectFemaleEyes(traits, prng) */\n      dup5\n      add\n      tag_11\n      jump\t// in\n    tag_384:\n      sub\n      dup2\n      dup7\n      gas\n      staticcall\n      swap1\n      dup2\n      iszero\n      tag_267\n      jumpi\n      0x00\n      swap2\n      tag_387\n      jumpi\n        /* \"src/Traits.sol\":2816:6434  if (traits.sex == E_Sex.Male) {... */\n    tag_388:\n        /* \"src/Traits.sol\":1042:15231  contract Traits is ITraits {... */\n      pop\n      0x1f\n      dup2\n      lt\n      iszero\n      tag_63\n      jumpi\n        /* \"src/Traits.sol\":5031:5048  traits.femaleEyes */\n      0x0280\n      dup6\n      add\n        /* \"src/common/Enums.sol\":125:127  16 */\n      mstore\n        /* \"src/Traits.sol\":1042:15231  contract Traits is ITraits {... */\n      mload(0x40)\n      shl(0xe0, 0xfb99dc2b)\n        /* \"src/Traits.sol\":5137:5189  FEMALE_PROBS_CONTRACT.selectFemaleFace(traits, prng) */\n      dup2\n      mstore\n        /* \"src/Traits.sol\":1042:15231  contract Traits is ITraits {... */\n      0x20\n      dup2\n      dup1\n        /* \"src/Traits.sol\":5137:5189  FEMALE_PROBS_CONTRACT.selectFemaleFace(traits, prng) */\n      tag_391\n      dup8\n        /* \"src/Traits.sol\":5031:5048  traits.femaleEyes */\n      dup10\n        /* \"src/Traits.sol\":4973:5017  FEMALE_PROBS_CONTRACT.selectFemaleSkin(prng) */\n      0x04\n        /* \"src/Traits.sol\":5137:5189  FEMALE_PROBS_CONTRACT.selectFemaleFace(traits, prng) */\n      dup5\n      add\n      tag_11\n      jump\t// in\n    tag_391:\n      sub\n      dup2\n      dup7\n      gas\n      staticcall\n      swap1\n      dup2\n      iszero\n      tag_267\n      jumpi\n      0x00\n      swap2\n      tag_394\n      jumpi\n        /* \"src/Traits.sol\":2816:6434  if (traits.sex == E_Sex.Male) {... */\n    tag_395:\n        /* \"src/Traits.sol\":1042:15231  contract Traits is ITraits {... */\n      pop\n      0x13\n      dup2\n      lt\n      iszero\n      tag_63\n      jumpi\n        /* \"src/Traits.sol\":5117:5134  traits.femaleFace */\n      0x02a0\n      dup6\n      add\n        /* \"src/common/Enums.sol\":125:127  16 */\n      mstore\n        /* \"src/Traits.sol\":1042:15231  contract Traits is ITraits {... */\n      mload(0x40)\n      shl(0xe2, 0x01c00525)\n        /* \"src/Traits.sol\":5224:5269  FEMALE_PROBS_CONTRACT.selectFemaleChain(prng) */\n      dup2\n      mstore\n        /* \"src/common/Enums.sol\":125:127  16 */\n      dup4\n      mload\n        /* \"src/Traits.sol\":4973:5017  FEMALE_PROBS_CONTRACT.selectFemaleSkin(prng) */\n      0x04\n        /* \"src/Traits.sol\":5224:5269  FEMALE_PROBS_CONTRACT.selectFemaleChain(prng) */\n      dup3\n      add\n        /* \"src/Traits.sol\":1042:15231  contract Traits is ITraits {... */\n      mstore\n      0x20\n      dup2\n        /* \"src/Traits.sol\":4973:5017  FEMALE_PROBS_CONTRACT.selectFemaleSkin(prng) */\n      0x24\n        /* \"src/Traits.sol\":1042:15231  contract Traits is ITraits {... */\n      dup2\n        /* \"src/Traits.sol\":5224:5269  FEMALE_PROBS_CONTRACT.selectFemaleChain(prng) */\n      dup7\n      gas\n      staticcall\n      swap1\n      dup2\n      iszero\n      tag_267\n      jumpi\n      0x00\n      swap2\n      tag_400\n      jumpi\n        /* \"src/Traits.sol\":2816:6434  if (traits.sex == E_Sex.Male) {... */\n    tag_401:\n        /* \"src/Traits.sol\":1042:15231  contract Traits is ITraits {... */\n      pop\n      tag_402\n      dup2\n      tag_3\n      jump\t// in\n    tag_402:\n        /* \"src/Traits.sol\":5203:5221  traits.femaleChain */\n      0x02c0\n      dup6\n      add\n        /* \"src/common/Enums.sol\":125:127  16 */\n      mstore\n        /* \"src/Traits.sol\":1042:15231  contract Traits is ITraits {... */\n      mload(0x40)\n      shl(0xe0, 0xd535a071)\n        /* \"src/Traits.sol\":5306:5353  FEMALE_PROBS_CONTRACT.selectFemaleEarring(prng) */\n      dup2\n      mstore\n        /* \"src/common/Enums.sol\":125:127  16 */\n      dup4\n      mload\n        /* \"src/Traits.sol\":4973:5017  FEMALE_PROBS_CONTRACT.selectFemaleSkin(prng) */\n      0x04\n        /* \"src/Traits.sol\":5306:5353  FEMALE_PROBS_CONTRACT.selectFemaleEarring(prng) */\n      dup3\n      add\n        /* \"src/Traits.sol\":1042:15231  contract Traits is ITraits {... */\n      mstore\n      0x20\n      dup2\n        /* \"src/Traits.sol\":4973:5017  FEMALE_PROBS_CONTRACT.selectFemaleSkin(prng) */\n      0x24\n        /* \"src/Traits.sol\":1042:15231  contract Traits is ITraits {... */\n      dup2\n        /* \"src/Traits.sol\":5306:5353  FEMALE_PROBS_CONTRACT.selectFemaleEarring(prng) */\n      dup7\n      gas\n      staticcall\n      swap1\n      dup2\n      iszero\n      tag_267\n      jumpi\n      0x00\n      swap2\n      tag_405\n      jumpi\n        /* \"src/Traits.sol\":2816:6434  if (traits.sex == E_Sex.Male) {... */\n    tag_406:\n        /* \"src/Traits.sol\":1042:15231  contract Traits is ITraits {... */\n      pop\n      tag_407\n      dup2\n      tag_3\n      jump\t// in\n    tag_407:\n        /* \"src/Traits.sol\":5283:5303  traits.femaleEarring */\n      0x02e0\n      dup6\n      add\n        /* \"src/common/Enums.sol\":125:127  16 */\n      mstore\n        /* \"src/Traits.sol\":1042:15231  contract Traits is ITraits {... */\n      mload(0x40)\n      shl(0xe3, 0x1d6981cd)\n        /* \"src/Traits.sol\":5387:5431  FEMALE_PROBS_CONTRACT.selectFemaleMask(prng) */\n      dup2\n      mstore\n        /* \"src/common/Enums.sol\":125:127  16 */\n      dup4\n      mload\n        /* \"src/Traits.sol\":4973:5017  FEMALE_PROBS_CONTRACT.selectFemaleSkin(prng) */\n      0x04\n        /* \"src/Traits.sol\":5387:5431  FEMALE_PROBS_CONTRACT.selectFemaleMask(prng) */\n      dup3\n      add\n        /* \"src/Traits.sol\":1042:15231  contract Traits is ITraits {... */\n      mstore\n      0x20\n      dup2\n        /* \"src/Traits.sol\":4973:5017  FEMALE_PROBS_CONTRACT.selectFemaleSkin(prng) */\n      0x24\n        /* \"src/Traits.sol\":1042:15231  contract Traits is ITraits {... */\n      dup2\n        /* \"src/Traits.sol\":5387:5431  FEMALE_PROBS_CONTRACT.selectFemaleMask(prng) */\n      dup7\n      gas\n      staticcall\n      swap1\n      dup2\n      iszero\n      tag_267\n      jumpi\n      0x00\n      swap2\n      tag_410\n      jumpi\n        /* \"src/Traits.sol\":2816:6434  if (traits.sex == E_Sex.Male) {... */\n    tag_411:\n        /* \"src/Traits.sol\":1042:15231  contract Traits is ITraits {... */\n      pop\n      0x15\n      dup2\n      lt\n      iszero\n      tag_63\n      jumpi\n        /* \"src/Traits.sol\":5367:5384  traits.femaleMask */\n      0x0320\n      dup6\n      add\n        /* \"src/common/Enums.sol\":125:127  16 */\n      mstore\n        /* \"src/Traits.sol\":1042:15231  contract Traits is ITraits {... */\n      mload(0x40)\n      shl(0xe0, 0x367d7393)\n        /* \"src/Traits.sol\":5466:5511  FEMALE_PROBS_CONTRACT.selectFemaleScarf(prng) */\n      dup2\n      mstore\n        /* \"src/common/Enums.sol\":125:127  16 */\n      dup4\n      mload\n        /* \"src/Traits.sol\":4973:5017  FEMALE_PROBS_CONTRACT.selectFemaleSkin(prng) */\n      0x04\n        /* \"src/Traits.sol\":5466:5511  FEMALE_PROBS_CONTRACT.selectFemaleScarf(prng) */\n      dup3\n      add\n        /* \"src/Traits.sol\":1042:15231  contract Traits is ITraits {... */\n      mstore\n      0x20\n      dup2\n        /* \"src/Traits.sol\":4973:5017  FEMALE_PROBS_CONTRACT.selectFemaleSkin(prng) */\n      0x24\n        /* \"src/Traits.sol\":1042:15231  contract Traits is ITraits {... */\n      dup2\n        /* \"src/Traits.sol\":5466:5511  FEMALE_PROBS_CONTRACT.selectFemaleScarf(prng) */\n      dup7\n      gas\n      staticcall\n      swap1\n      dup2\n      iszero\n      tag_267\n      jumpi\n      0x00\n      swap2\n      tag_416\n      jumpi\n        /* \"src/Traits.sol\":2816:6434  if (traits.sex == E_Sex.Male) {... */\n    tag_417:\n        /* \"src/Traits.sol\":1042:15231  contract Traits is ITraits {... */\n      pop\n      tag_418\n      dup2\n      tag_4\n      jump\t// in\n    tag_418:\n        /* \"src/Traits.sol\":5445:5463  traits.femaleScarf */\n      0x0300\n      dup6\n      add\n        /* \"src/common/Enums.sol\":125:127  16 */\n      mstore\n        /* \"src/Traits.sol\":1042:15231  contract Traits is ITraits {... */\n      mload(0x40)\n      shl(0xe0, 0xeb3ca1d7)\n        /* \"src/Traits.sol\":5545:5597  FEMALE_PROBS_CONTRACT.selectFemaleHair(traits, prng) */\n      dup2\n      mstore\n        /* \"src/Traits.sol\":1042:15231  contract Traits is ITraits {... */\n      0x20\n      dup2\n      dup1\n        /* \"src/Traits.sol\":5545:5597  FEMALE_PROBS_CONTRACT.selectFemaleHair(traits, prng) */\n      tag_419\n      dup8\n        /* \"src/Traits.sol\":5445:5463  traits.femaleScarf */\n      dup10\n        /* \"src/Traits.sol\":4973:5017  FEMALE_PROBS_CONTRACT.selectFemaleSkin(prng) */\n      0x04\n        /* \"src/Traits.sol\":5545:5597  FEMALE_PROBS_CONTRACT.selectFemaleHair(traits, prng) */\n      dup5\n      add\n      tag_11\n      jump\t// in\n    tag_419:\n      sub\n      dup2\n      dup7\n      gas\n      staticcall\n      swap1\n      dup2\n      iszero\n      tag_267\n      jumpi\n      0x00\n      swap2\n      tag_422\n      jumpi\n        /* \"src/Traits.sol\":2816:6434  if (traits.sex == E_Sex.Male) {... */\n    tag_423:\n        /* \"src/Traits.sol\":1042:15231  contract Traits is ITraits {... */\n      pop\n      0xc3\n      dup2\n      lt\n      iszero\n      tag_63\n      jumpi\n        /* \"src/Traits.sol\":5525:5542  traits.femaleHair */\n      0x0340\n      dup6\n      add\n        /* \"src/common/Enums.sol\":125:127  16 */\n      mstore\n        /* \"src/Traits.sol\":1042:15231  contract Traits is ITraits {... */\n      mload(0x40)\n      shl(0xe0, 0xb27cf703)\n        /* \"src/Traits.sol\":5634:5689  FEMALE_PROBS_CONTRACT.selectFemaleHatHair(traits, prng) */\n      dup2\n      mstore\n        /* \"src/Traits.sol\":1042:15231  contract Traits is ITraits {... */\n      0x20\n      dup2\n      dup1\n        /* \"src/Traits.sol\":5634:5689  FEMALE_PROBS_CONTRACT.selectFemaleHatHair(traits, prng) */\n      tag_426\n      dup8\n        /* \"src/Traits.sol\":5525:5542  traits.femaleHair */\n      dup10\n        /* \"src/Traits.sol\":4973:5017  FEMALE_PROBS_CONTRACT.selectFemaleSkin(prng) */\n      0x04\n        /* \"src/Traits.sol\":5634:5689  FEMALE_PROBS_CONTRACT.selectFemaleHatHair(traits, prng) */\n      dup5\n      add\n      tag_11\n      jump\t// in\n    tag_426:\n      sub\n      dup2\n      dup7\n      gas\n      staticcall\n      swap1\n      dup2\n      iszero\n      tag_267\n      jumpi\n      0x00\n      swap2\n      tag_429\n      jumpi\n        /* \"src/Traits.sol\":2816:6434  if (traits.sex == E_Sex.Male) {... */\n    tag_430:\n        /* \"src/Traits.sol\":1042:15231  contract Traits is ITraits {... */\n      pop\n      0x85\n      dup2\n      lt\n      iszero\n      tag_63\n      jumpi\n        /* \"src/Traits.sol\":5611:5631  traits.femaleHatHair */\n      0x0360\n      dup6\n      add\n        /* \"src/common/Enums.sol\":125:127  16 */\n      mstore\n        /* \"src/Traits.sol\":1042:15231  contract Traits is ITraits {... */\n      mload(0x40)\n      shl(0xe4, 0x09d8b84f)\n        /* \"src/Traits.sol\":5727:5775  FEMALE_PROBS_CONTRACT.selectFemaleHeadwear(prng) */\n      dup2\n      mstore\n        /* \"src/common/Enums.sol\":125:127  16 */\n      dup4\n      mload\n        /* \"src/Traits.sol\":4973:5017  FEMALE_PROBS_CONTRACT.selectFemaleSkin(prng) */\n      0x04\n        /* \"src/Traits.sol\":5727:5775  FEMALE_PROBS_CONTRACT.selectFemaleHeadwear(prng) */\n      dup3\n      add\n        /* \"src/Traits.sol\":1042:15231  contract Traits is ITraits {... */\n      mstore\n      swap2\n      0x20\n      dup4\n        /* \"src/Traits.sol\":4973:5017  FEMALE_PROBS_CONTRACT.selectFemaleSkin(prng) */\n      0x24\n        /* \"src/Traits.sol\":1042:15231  contract Traits is ITraits {... */\n      dup2\n        /* \"src/common/Enums.sol\":125:127  16 */\n      dup5\n        /* \"src/Traits.sol\":5727:5775  FEMALE_PROBS_CONTRACT.selectFemaleHeadwear(prng) */\n      gas\n      staticcall\n      swap3\n      dup4\n      iszero\n      tag_267\n      jumpi\n      0x00\n      swap4\n      tag_435\n      jumpi\n        /* \"src/Traits.sol\":2816:6434  if (traits.sex == E_Sex.Male) {... */\n    tag_436:\n        /* \"src/Traits.sol\":5703:5724  traits.femaleHeadwear */\n      pop\n      0x0380\n      dup6\n      add\n        /* \"src/Traits.sol\":1042:15231  contract Traits is ITraits {... */\n      swap3\n      0x83\n      dup2\n      lt\n      iszero\n      tag_63\n      jumpi\n        /* \"src/common/Enums.sol\":125:127  16 */\n      dup4\n      mstore\n        /* \"src/Traits.sol\":1042:15231  contract Traits is ITraits {... */\n      mload(0x40)\n      shl(0xe1, 0x72d09567)\n        /* \"src/Traits.sol\":5812:5859  FEMALE_PROBS_CONTRACT.selectFemaleEyeWear(prng) */\n      dup2\n      mstore\n        /* \"src/common/Enums.sol\":125:127  16 */\n      dup5\n      mload\n        /* \"src/Traits.sol\":4973:5017  FEMALE_PROBS_CONTRACT.selectFemaleSkin(prng) */\n      0x04\n        /* \"src/Traits.sol\":5812:5859  FEMALE_PROBS_CONTRACT.selectFemaleEyeWear(prng) */\n      dup3\n      add\n        /* \"src/Traits.sol\":1042:15231  contract Traits is ITraits {... */\n      mstore\n      swap1\n      0x20\n      swap1\n      dup3\n      swap1\n        /* \"src/Traits.sol\":4973:5017  FEMALE_PROBS_CONTRACT.selectFemaleSkin(prng) */\n      0x24\n      swap1\n        /* \"src/Traits.sol\":1042:15231  contract Traits is ITraits {... */\n      dup3\n      swap1\n        /* \"src/Traits.sol\":5812:5859  FEMALE_PROBS_CONTRACT.selectFemaleEyeWear(prng) */\n      gas\n      staticcall\n      swap1\n      dup2\n      iszero\n      tag_267\n      jumpi\n      0x00\n      swap2\n      tag_441\n      jumpi\n        /* \"src/Traits.sol\":2816:6434  if (traits.sex == E_Sex.Male) {... */\n    tag_442:\n        /* \"src/Traits.sol\":1042:15231  contract Traits is ITraits {... */\n      pop\n      0x7a\n      dup2\n      lt\n      iszero\n      tag_63\n      jumpi\n        /* \"src/Traits.sol\":5789:5809  traits.femaleEyeWear */\n      0x03a0\n      dup6\n      add\n        /* \"src/common/Enums.sol\":125:127  16 */\n      mstore\n        /* \"src/Traits.sol\":1042:15231  contract Traits is ITraits {... */\n      mload\n      0x1a\n      dup2\n      lt\n      iszero\n      tag_63\n      jumpi\n      tag_447\n      tag_9\n      jump\t// in\n    tag_447:\n      swap1\n      0xff\n      swap1\n        /* \"src/Traits.sol\":11042:11073  E_TraitsGroup.Female_Skin_Group */\n      0x0e\n        /* \"src/Traits.sol\":1042:15231  contract Traits is ITraits {... */\n      dup4\n      mstore\n      and\n      0x20\n        /* \"src/Traits.sol\":14602:14626  traitToRender.traitIndex */\n      dup3\n      add\n        /* \"src/Traits.sol\":1042:15231  contract Traits is ITraits {... */\n      mstore\n      0x00\n      0x40\n        /* \"src/Traits.sol\":14650:14673  traitToRender.hasFiller */\n      dup3\n      add\n        /* \"src/Traits.sol\":1042:15231  contract Traits is ITraits {... */\n      mstore\n        /* \"src/Traits.sol\":14700:14768  _traits.traitsToRender[_traits.traitsToRenderLength] = traitToRender */\n      tag_450\n        /* \"src/Traits.sol\":14700:14722  _traits.traitsToRender */\n      dup5\n      mload\n        /* \"src/Traits.sol\":14723:14751  _traits.traitsToRenderLength */\n      swap2\n        /* \"src/Traits.sol\":1042:15231  contract Traits is ITraits {... */\n      0x20\n        /* \"src/Traits.sol\":14723:14751  _traits.traitsToRenderLength */\n      dup7\n      add\n        /* \"src/Traits.sol\":1042:15231  contract Traits is ITraits {... */\n      swap3\n      0xff\n      dup5\n      mload\n      and\n        /* \"src/Traits.sol\":14700:14768  _traits.traitsToRender[_traits.traitsToRenderLength] = traitToRender */\n      swap2\n      tag_243\n      dup4\n      dup4\n      tag_36\n      jump\t// in\n    tag_450:\n      pop\n        /* \"src/Traits.sol\":1042:15231  contract Traits is ITraits {... */\n      0xff\n      dup2\n      mload\n      and\n      0xff\n      dup2\n      eq\n      tag_244\n      jumpi\n        /* \"src/Traits.sol\":2054:2055  1 */\n      0x01\n        /* \"src/Traits.sol\":1042:15231  contract Traits is ITraits {... */\n      add\n      0xff\n      and\n      swap1\n      mstore\n        /* \"src/Traits.sol\":5925:5931  traits */\n      tag_454\n      dup4\n      tag_14\n      jump\t// in\n    tag_454:\n        /* \"src/Traits.sol\":5961:5967  traits */\n      tag_455\n      dup4\n      tag_15\n      jump\t// in\n    tag_455:\n        /* \"src/Traits.sol\":5998:6004  traits */\n      tag_456\n      dup4\n      tag_16\n      jump\t// in\n    tag_456:\n        /* \"src/Traits.sol\":6037:6043  traits */\n      tag_457\n      dup4\n      tag_17\n      jump\t// in\n    tag_457:\n        /* \"src/Traits.sol\":6073:6079  traits */\n      tag_458\n      dup4\n      tag_18\n      jump\t// in\n    tag_458:\n        /* \"src/Traits.sol\":6110:6116  traits */\n      tag_459\n      dup4\n      tag_19\n      jump\t// in\n    tag_459:\n        /* \"src/Traits.sol\":1042:15231  contract Traits is ITraits {... */\n      mload\n      0x83\n      dup2\n      lt\n      iszero\n      tag_63\n      jumpi\n        /* \"src/Traits.sol\":6491:6536  MALE_PROBS_CONTRACT.selectMouth(traits, prng) */\n      tag_259\n      swap2\n        /* \"src/Traits.sol\":1042:15231  contract Traits is ITraits {... */\n      0x20\n      swap2\n        /* \"src/libraries/TraitsLib.sol\":5910:5957  traits.femaleHeadwear != E_Female_Headwear.None */\n      iszero\n      tag_462\n      jumpi\n        /* \"src/Traits.sol\":6249:6255  traits */\n      tag_464\n      dup5\n      tag_21\n      jump\t// in\n    tag_464:\n        /* \"src/Traits.sol\":6377:6383  traits */\n      tag_466\n      dup5\n      tag_22\n      jump\t// in\n    tag_466:\n        /* \"src/Traits.sol\":6416:6422  traits */\n      tag_467\n      dup5\n      tag_23\n      jump\t// in\n    tag_467:\n        /* \"src/Traits.sol\":2816:6434  if (traits.sex == E_Sex.Male) {... */\n      jump(tag_265)\n        /* \"src/Traits.sol\":6172:6332  if (TraitsLib.femaleHasHeadwear(traits)) {... */\n    tag_462:\n        /* \"src/Traits.sol\":6310:6316  traits */\n      tag_468\n      dup5\n      tag_20\n      jump\t// in\n    tag_468:\n        /* \"src/Traits.sol\":6172:6332  if (TraitsLib.femaleHasHeadwear(traits)) {... */\n      jump(tag_464)\n        /* \"src/Traits.sol\":5812:5859  FEMALE_PROBS_CONTRACT.selectFemaleEyeWear(prng) */\n    tag_441:\n      swap1\n      pop\n        /* \"src/Traits.sol\":1042:15231  contract Traits is ITraits {... */\n      0x20\n        /* \"src/Traits.sol\":5812:5859  FEMALE_PROBS_CONTRACT.selectFemaleEyeWear(prng) */\n      dup2\n      returndatasize\n        /* \"src/Traits.sol\":1042:15231  contract Traits is ITraits {... */\n      0x20\n        /* \"src/Traits.sol\":5812:5859  FEMALE_PROBS_CONTRACT.selectFemaleEyeWear(prng) */\n      gt\n      tag_469\n      jumpi\n    tag_470:\n      dup2\n      tag_471\n        /* \"src/Traits.sol\":1042:15231  contract Traits is ITraits {... */\n      0x20\n        /* \"src/Traits.sol\":5812:5859  FEMALE_PROBS_CONTRACT.selectFemaleEyeWear(prng) */\n      swap4\n      dup4\n      tag_6\n      jump\t// in\n    tag_471:\n      dup2\n      add\n        /* \"src/common/Enums.sol\":125:127  16 */\n      sub\n      slt\n      tag_51\n      jumpi\n      mload\n      0x7a\n      dup2\n      lt\n      iszero\n      tag_51\n      jumpi\n        /* \"src/Traits.sol\":5812:5859  FEMALE_PROBS_CONTRACT.selectFemaleEyeWear(prng) */\n      0x00\n      jump(tag_442)\n    tag_469:\n      returndatasize\n      swap2\n      pop\n      jump(tag_470)\n        /* \"src/Traits.sol\":5727:5775  FEMALE_PROBS_CONTRACT.selectFemaleHeadwear(prng) */\n    tag_435:\n      swap1\n      swap3\n      pop\n        /* \"src/Traits.sol\":1042:15231  contract Traits is ITraits {... */\n      0x20\n        /* \"src/Traits.sol\":5727:5775  FEMALE_PROBS_CONTRACT.selectFemaleHeadwear(prng) */\n      dup2\n      returndatasize\n        /* \"src/Traits.sol\":1042:15231  contract Traits is ITraits {... */\n      0x20\n        /* \"src/Traits.sol\":5727:5775  FEMALE_PROBS_CONTRACT.selectFemaleHeadwear(prng) */\n      gt\n      tag_476\n      jumpi\n    tag_477:\n      dup2\n      tag_478\n        /* \"src/Traits.sol\":1042:15231  contract Traits is ITraits {... */\n      0x20\n        /* \"src/Traits.sol\":5727:5775  FEMALE_PROBS_CONTRACT.selectFemaleHeadwear(prng) */\n      swap4\n      dup4\n      tag_6\n      jump\t// in\n    tag_478:\n      dup2\n      add\n        /* \"src/common/Enums.sol\":125:127  16 */\n      sub\n      slt\n      tag_51\n      jumpi\n      mload\n      0x83\n      dup2\n      lt\n      iszero\n      tag_51\n      jumpi\n        /* \"src/Traits.sol\":5727:5775  FEMALE_PROBS_CONTRACT.selectFemaleHeadwear(prng) */\n      swap2\n      0x00\n      jump(tag_436)\n    tag_476:\n      returndatasize\n      swap2\n      pop\n      jump(tag_477)\n        /* \"src/Traits.sol\":5634:5689  FEMALE_PROBS_CONTRACT.selectFemaleHatHair(traits, prng) */\n    tag_429:\n      swap1\n      pop\n        /* \"src/Traits.sol\":1042:15231  contract Traits is ITraits {... */\n      0x20\n        /* \"src/Traits.sol\":5634:5689  FEMALE_PROBS_CONTRACT.selectFemaleHatHair(traits, prng) */\n      dup2\n      returndatasize\n        /* \"src/Traits.sol\":1042:15231  contract Traits is ITraits {... */\n      0x20\n        /* \"src/Traits.sol\":5634:5689  FEMALE_PROBS_CONTRACT.selectFemaleHatHair(traits, prng) */\n      gt\n      tag_483\n      jumpi\n    tag_484:\n      dup2\n      tag_485\n        /* \"src/Traits.sol\":1042:15231  contract Traits is ITraits {... */\n      0x20\n        /* \"src/Traits.sol\":5634:5689  FEMALE_PROBS_CONTRACT.selectFemaleHatHair(traits, prng) */\n      swap4\n      dup4\n      tag_6\n      jump\t// in\n    tag_485:\n      dup2\n      add\n        /* \"src/common/Enums.sol\":125:127  16 */\n      sub\n      slt\n      tag_51\n      jumpi\n      mload\n      0x85\n      dup2\n      lt\n      iszero\n      tag_51\n      jumpi\n        /* \"src/Traits.sol\":5634:5689  FEMALE_PROBS_CONTRACT.selectFemaleHatHair(traits, prng) */\n      0x00\n      jump(tag_430)\n    tag_483:\n      returndatasize\n      swap2\n      pop\n      jump(tag_484)\n        /* \"src/Traits.sol\":5545:5597  FEMALE_PROBS_CONTRACT.selectFemaleHair(traits, prng) */\n    tag_422:\n      swap1\n      pop\n        /* \"src/Traits.sol\":1042:15231  contract Traits is ITraits {... */\n      0x20\n        /* \"src/Traits.sol\":5545:5597  FEMALE_PROBS_CONTRACT.selectFemaleHair(traits, prng) */\n      dup2\n      returndatasize\n        /* \"src/Traits.sol\":1042:15231  contract Traits is ITraits {... */\n      0x20\n        /* \"src/Traits.sol\":5545:5597  FEMALE_PROBS_CONTRACT.selectFemaleHair(traits, prng) */\n      gt\n      tag_490\n      jumpi\n    tag_491:\n      dup2\n      tag_492\n        /* \"src/Traits.sol\":1042:15231  contract Traits is ITraits {... */\n      0x20\n        /* \"src/Traits.sol\":5545:5597  FEMALE_PROBS_CONTRACT.selectFemaleHair(traits, prng) */\n      swap4\n      dup4\n      tag_6\n      jump\t// in\n    tag_492:\n      dup2\n      add\n        /* \"src/common/Enums.sol\":125:127  16 */\n      sub\n      slt\n      tag_51\n      jumpi\n      mload\n      0xc3\n      dup2\n      lt\n      iszero\n      tag_51\n      jumpi\n        /* \"src/Traits.sol\":5545:5597  FEMALE_PROBS_CONTRACT.selectFemaleHair(traits, prng) */\n      0x00\n      jump(tag_423)\n    tag_490:\n      returndatasize\n      swap2\n      pop\n      jump(tag_491)\n        /* \"src/Traits.sol\":5466:5511  FEMALE_PROBS_CONTRACT.selectFemaleScarf(prng) */\n    tag_416:\n      swap1\n      pop\n        /* \"src/Traits.sol\":1042:15231  contract Traits is ITraits {... */\n      0x20\n        /* \"src/Traits.sol\":5466:5511  FEMALE_PROBS_CONTRACT.selectFemaleScarf(prng) */\n      dup2\n      returndatasize\n        /* \"src/Traits.sol\":1042:15231  contract Traits is ITraits {... */\n      0x20\n        /* \"src/Traits.sol\":5466:5511  FEMALE_PROBS_CONTRACT.selectFemaleScarf(prng) */\n      gt\n      tag_497\n      jumpi\n    tag_498:\n      dup2\n      tag_499\n        /* \"src/Traits.sol\":1042:15231  contract Traits is ITraits {... */\n      0x20\n        /* \"src/Traits.sol\":5466:5511  FEMALE_PROBS_CONTRACT.selectFemaleScarf(prng) */\n      swap4\n      dup4\n      tag_6\n      jump\t// in\n    tag_499:\n      dup2\n      add\n        /* \"src/common/Enums.sol\":125:127  16 */\n      sub\n      slt\n      tag_51\n      jumpi\n      mload\n        /* \"src/Traits.sol\":4973:5017  FEMALE_PROBS_CONTRACT.selectFemaleSkin(prng) */\n      0x04\n        /* \"src/common/Enums.sol\":125:127  16 */\n      dup2\n      lt\n      iszero\n      tag_51\n      jumpi\n        /* \"src/Traits.sol\":5466:5511  FEMALE_PROBS_CONTRACT.selectFemaleScarf(prng) */\n      0x00\n      jump(tag_417)\n    tag_497:\n      returndatasize\n      swap2\n      pop\n      jump(tag_498)\n        /* \"src/Traits.sol\":5387:5431  FEMALE_PROBS_CONTRACT.selectFemaleMask(prng) */\n    tag_410:\n      swap1\n      pop\n        /* \"src/Traits.sol\":1042:15231  contract Traits is ITraits {... */\n      0x20\n        /* \"src/Traits.sol\":5387:5431  FEMALE_PROBS_CONTRACT.selectFemaleMask(prng) */\n      dup2\n      returndatasize\n        /* \"src/Traits.sol\":1042:15231  contract Traits is ITraits {... */\n      0x20\n        /* \"src/Traits.sol\":5387:5431  FEMALE_PROBS_CONTRACT.selectFemaleMask(prng) */\n      gt\n      tag_504\n      jumpi\n    tag_505:\n      dup2\n      tag_506\n        /* \"src/Traits.sol\":1042:15231  contract Traits is ITraits {... */\n      0x20\n        /* \"src/Traits.sol\":5387:5431  FEMALE_PROBS_CONTRACT.selectFemaleMask(prng) */\n      swap4\n      dup4\n      tag_6\n      jump\t// in\n    tag_506:\n      dup2\n      add\n        /* \"src/common/Enums.sol\":125:127  16 */\n      sub\n      slt\n      tag_51\n      jumpi\n      mload\n      0x15\n      dup2\n      lt\n      iszero\n      tag_51\n      jumpi\n        /* \"src/Traits.sol\":5387:5431  FEMALE_PROBS_CONTRACT.selectFemaleMask(prng) */\n      0x00\n      jump(tag_411)\n    tag_504:\n      returndatasize\n      swap2\n      pop\n      jump(tag_505)\n        /* \"src/Traits.sol\":5306:5353  FEMALE_PROBS_CONTRACT.selectFemaleEarring(prng) */\n    tag_405:\n      swap1\n      pop\n        /* \"src/Traits.sol\":1042:15231  contract Traits is ITraits {... */\n      0x20\n        /* \"src/Traits.sol\":5306:5353  FEMALE_PROBS_CONTRACT.selectFemaleEarring(prng) */\n      dup2\n      returndatasize\n        /* \"src/Traits.sol\":1042:15231  contract Traits is ITraits {... */\n      0x20\n        /* \"src/Traits.sol\":5306:5353  FEMALE_PROBS_CONTRACT.selectFemaleEarring(prng) */\n      gt\n      tag_511\n      jumpi\n    tag_512:\n      dup2\n      tag_513\n        /* \"src/Traits.sol\":1042:15231  contract Traits is ITraits {... */\n      0x20\n        /* \"src/Traits.sol\":5306:5353  FEMALE_PROBS_CONTRACT.selectFemaleEarring(prng) */\n      swap4\n      dup4\n      tag_6\n      jump\t// in\n    tag_513:\n      dup2\n      add\n        /* \"src/common/Enums.sol\":125:127  16 */\n      sub\n      slt\n      tag_51\n      jumpi\n      mload\n      0x09\n      dup2\n      lt\n      iszero\n      tag_51\n      jumpi\n        /* \"src/Traits.sol\":5306:5353  FEMALE_PROBS_CONTRACT.selectFemaleEarring(prng) */\n      0x00\n      jump(tag_406)\n    tag_511:\n      returndatasize\n      swap2\n      pop\n      jump(tag_512)\n        /* \"src/Traits.sol\":5224:5269  FEMALE_PROBS_CONTRACT.selectFemaleChain(prng) */\n    tag_400:\n      swap1\n      pop\n        /* \"src/Traits.sol\":1042:15231  contract Traits is ITraits {... */\n      0x20\n        /* \"src/Traits.sol\":5224:5269  FEMALE_PROBS_CONTRACT.selectFemaleChain(prng) */\n      dup2\n      returndatasize\n        /* \"src/Traits.sol\":1042:15231  contract Traits is ITraits {... */\n      0x20\n        /* \"src/Traits.sol\":5224:5269  FEMALE_PROBS_CONTRACT.selectFemaleChain(prng) */\n      gt\n      tag_518\n      jumpi\n    tag_519:\n      dup2\n      tag_520\n        /* \"src/Traits.sol\":1042:15231  contract Traits is ITraits {... */\n      0x20\n        /* \"src/Traits.sol\":5224:5269  FEMALE_PROBS_CONTRACT.selectFemaleChain(prng) */\n      swap4\n      dup4\n      tag_6\n      jump\t// in\n    tag_520:\n      dup2\n      add\n        /* \"src/common/Enums.sol\":125:127  16 */\n      sub\n      slt\n      tag_51\n      jumpi\n      mload\n      0x09\n      dup2\n      lt\n      iszero\n      tag_51\n      jumpi\n        /* \"src/Traits.sol\":5224:5269  FEMALE_PROBS_CONTRACT.selectFemaleChain(prng) */\n      0x00\n      jump(tag_401)\n    tag_518:\n      returndatasize\n      swap2\n      pop\n      jump(tag_519)\n        /* \"src/Traits.sol\":5137:5189  FEMALE_PROBS_CONTRACT.selectFemaleFace(traits, prng) */\n    tag_394:\n      swap1\n      pop\n        /* \"src/Traits.sol\":1042:15231  contract Traits is ITraits {... */\n      0x20\n        /* \"src/Traits.sol\":5137:5189  FEMALE_PROBS_CONTRACT.selectFemaleFace(traits, prng) */\n      dup2\n      returndatasize\n        /* \"src/Traits.sol\":1042:15231  contract Traits is ITraits {... */\n      0x20\n        /* \"src/Traits.sol\":5137:5189  FEMALE_PROBS_CONTRACT.selectFemaleFace(traits, prng) */\n      gt\n      tag_525\n      jumpi\n    tag_526:\n      dup2\n      tag_527\n        /* \"src/Traits.sol\":1042:15231  contract Traits is ITraits {... */\n      0x20\n        /* \"src/Traits.sol\":5137:5189  FEMALE_PROBS_CONTRACT.selectFemaleFace(traits, prng) */\n      swap4\n      dup4\n      tag_6\n      jump\t// in\n    tag_527:\n      dup2\n      add\n        /* \"src/common/Enums.sol\":125:127  16 */\n      sub\n      slt\n      tag_51\n      jumpi\n      mload\n      0x13\n      dup2\n      lt\n      iszero\n      tag_51\n      jumpi\n        /* \"src/Traits.sol\":5137:5189  FEMALE_PROBS_CONTRACT.selectFemaleFace(traits, prng) */\n      0x00\n      jump(tag_395)\n    tag_525:\n      returndatasize\n      swap2\n      pop\n      jump(tag_526)\n        /* \"src/Traits.sol\":5051:5103  FEMALE_PROBS_CONTRACT.selectFemaleEyes(traits, prng) */\n    tag_387:\n      swap1\n      pop\n        /* \"src/Traits.sol\":1042:15231  contract Traits is ITraits {... */\n      0x20\n        /* \"src/Traits.sol\":5051:5103  FEMALE_PROBS_CONTRACT.selectFemaleEyes(traits, prng) */\n      dup2\n      returndatasize\n        /* \"src/Traits.sol\":1042:15231  contract Traits is ITraits {... */\n      0x20\n        /* \"src/Traits.sol\":5051:5103  FEMALE_PROBS_CONTRACT.selectFemaleEyes(traits, prng) */\n      gt\n      tag_532\n      jumpi\n    tag_533:\n      dup2\n      tag_534\n        /* \"src/Traits.sol\":1042:15231  contract Traits is ITraits {... */\n      0x20\n        /* \"src/Traits.sol\":5051:5103  FEMALE_PROBS_CONTRACT.selectFemaleEyes(traits, prng) */\n      swap4\n      dup4\n      tag_6\n      jump\t// in\n    tag_534:\n      dup2\n      add\n        /* \"src/common/Enums.sol\":125:127  16 */\n      sub\n      slt\n      tag_51\n      jumpi\n      mload\n        /* \"src/Traits.sol\":1042:15231  contract Traits is ITraits {... */\n      0x1f\n        /* \"src/common/Enums.sol\":125:127  16 */\n      dup2\n      lt\n      iszero\n      tag_51\n      jumpi\n        /* \"src/Traits.sol\":5051:5103  FEMALE_PROBS_CONTRACT.selectFemaleEyes(traits, prng) */\n      0x00\n      jump(tag_388)\n    tag_532:\n      returndatasize\n      swap2\n      pop\n      jump(tag_533)\n        /* \"src/Traits.sol\":4973:5017  FEMALE_PROBS_CONTRACT.selectFemaleSkin(prng) */\n    tag_380:\n      swap1\n      pop\n        /* \"src/Traits.sol\":1042:15231  contract Traits is ITraits {... */\n      0x20\n        /* \"src/Traits.sol\":4973:5017  FEMALE_PROBS_CONTRACT.selectFemaleSkin(prng) */\n      dup2\n      returndatasize\n        /* \"src/Traits.sol\":1042:15231  contract Traits is ITraits {... */\n      0x20\n        /* \"src/Traits.sol\":4973:5017  FEMALE_PROBS_CONTRACT.selectFemaleSkin(prng) */\n      gt\n      tag_539\n      jumpi\n    tag_540:\n      dup2\n      tag_541\n        /* \"src/Traits.sol\":1042:15231  contract Traits is ITraits {... */\n      0x20\n        /* \"src/Traits.sol\":4973:5017  FEMALE_PROBS_CONTRACT.selectFemaleSkin(prng) */\n      swap4\n      dup4\n      tag_6\n      jump\t// in\n    tag_541:\n      dup2\n      add\n        /* \"src/common/Enums.sol\":125:127  16 */\n      sub\n      slt\n      tag_51\n      jumpi\n      mload\n      0x1a\n      dup2\n      lt\n      iszero\n      tag_51\n      jumpi\n        /* \"src/Traits.sol\":4973:5017  FEMALE_PROBS_CONTRACT.selectFemaleSkin(prng) */\n      0x00\n      jump(tag_381)\n    tag_539:\n      returndatasize\n      swap2\n      pop\n      jump(tag_540)\n        /* \"src/Traits.sol\":2707:2770  LibPRNG.uniform(prng, 10000) < 7500 ? E_Sex.Male : E_Sex.Female */\n    tag_153:\n        /* \"src/Traits.sol\":2054:2055  1 */\n      0x01\n        /* \"src/Traits.sol\":2707:2770  LibPRNG.uniform(prng, 10000) < 7500 ? E_Sex.Male : E_Sex.Female */\n      jump(tag_155)\n        /* \"src/Traits.sol\":2187:2684  if (traits.specialId > 0) {... */\n    tag_148:\n      not(0x00)\n        /* \"src/common/Enums.sol\":125:127  16 */\n      add\n      swap3\n      pop\n      swap1\n      pop\n        /* \"src/Traits.sol\":1042:15231  contract Traits is ITraits {... */\n      0xffff\n        /* \"src/common/Enums.sol\":125:127  16 */\n      dup3\n      gt\n      tag_244\n      jumpi\n        /* \"src/Traits.sol\":1042:15231  contract Traits is ITraits {... */\n      0xffff\n      dup3\n      and\n        /* \"src/Traits.sol\":6873:6899  E_Special_1s.Predator_Blue */\n      0x04\n        /* \"src/Traits.sol\":6854:6900  specialIdx == uint(E_Special_1s.Predator_Blue) */\n      dup2\n      eq\n        /* \"src/Traits.sol\":6854:6963  specialIdx == uint(E_Special_1s.Predator_Blue) ||... */\n      swap1\n      dup2\n      iszero\n      tag_548\n      jumpi\n        /* \"src/Traits.sol\":2187:2684  if (traits.specialId > 0) {... */\n    tag_549:\n        /* \"src/Traits.sol\":6854:7024  specialIdx == uint(E_Special_1s.Predator_Blue) ||... */\n      dup2\n      iszero\n      tag_550\n      jumpi\n        /* \"src/Traits.sol\":2187:2684  if (traits.specialId > 0) {... */\n    tag_551:\n        /* \"src/Traits.sol\":6854:7084  specialIdx == uint(E_Special_1s.Predator_Blue) ||... */\n      dup2\n      iszero\n      tag_552\n      jumpi\n        /* \"src/Traits.sol\":2187:2684  if (traits.specialId > 0) {... */\n    tag_553:\n        /* \"src/Traits.sol\":6854:7145  specialIdx == uint(E_Special_1s.Predator_Blue) ||... */\n      dup2\n      iszero\n      tag_554\n      jumpi\n        /* \"src/Traits.sol\":2187:2684  if (traits.specialId > 0) {... */\n    tag_555:\n        /* \"src/Traits.sol\":6854:7203  specialIdx == uint(E_Special_1s.Predator_Blue) ||... */\n      dup2\n      iszero\n      tag_556\n      jumpi\n        /* \"src/Traits.sol\":2187:2684  if (traits.specialId > 0) {... */\n    tag_557:\n        /* \"src/Traits.sol\":6854:7264  specialIdx == uint(E_Special_1s.Predator_Blue) ||... */\n      dup2\n      iszero\n      tag_558\n      jumpi\n        /* \"src/Traits.sol\":2187:2684  if (traits.specialId > 0) {... */\n    tag_559:\n        /* \"src/Traits.sol\":2292:2438  if (_isPreRendered(specialIdx)) {... */\n      pop\n      tag_560\n      jumpi\n        /* \"src/Traits.sol\":1042:15231  contract Traits is ITraits {... */\n      0xff\n      and\n      0x05\n      dup2\n      lt\n      iszero\n      tag_63\n      jumpi\n        /* \"src/Traits.sol\":2515:2565  traits.background = E_Background(_backgroundIndex) */\n      tag_564\n        /* \"src/Traits.sol\":2515:2532  traits.background */\n      swap1\n      0xc0\n      dup5\n      add\n        /* \"src/Traits.sol\":2515:2565  traits.background = E_Background(_backgroundIndex) */\n      tag_10\n      jump\t// in\n    tag_564:\n        /* \"src/Traits.sol\":2594:2600  traits */\n      tag_565\n      dup3\n      tag_13\n      jump\t// in\n    tag_565:\n        /* \"src/Traits.sol\":1042:15231  contract Traits is ITraits {... */\n      tag_566\n      tag_9\n      jump\t// in\n    tag_566:\n      swap1\n      0xff\n      swap1\n      0x00\n      dup4\n      mstore\n      and\n      0x20\n        /* \"src/Traits.sol\":14602:14626  traitToRender.traitIndex */\n      dup3\n      add\n        /* \"src/Traits.sol\":1042:15231  contract Traits is ITraits {... */\n      mstore\n      0x00\n      0x40\n        /* \"src/Traits.sol\":14650:14673  traitToRender.hasFiller */\n      dup3\n      add\n        /* \"src/Traits.sol\":1042:15231  contract Traits is ITraits {... */\n      mstore\n        /* \"src/Traits.sol\":14700:14768  _traits.traitsToRender[_traits.traitsToRenderLength] = traitToRender */\n      tag_569\n        /* \"src/Traits.sol\":14700:14722  _traits.traitsToRender */\n      dup3\n      mload\n        /* \"src/Traits.sol\":14723:14751  _traits.traitsToRenderLength */\n      swap2\n        /* \"src/Traits.sol\":1042:15231  contract Traits is ITraits {... */\n      0x20\n        /* \"src/Traits.sol\":14723:14751  _traits.traitsToRenderLength */\n      dup5\n      add\n        /* \"src/Traits.sol\":1042:15231  contract Traits is ITraits {... */\n      swap3\n      0xff\n      dup5\n      mload\n      and\n        /* \"src/Traits.sol\":14700:14768  _traits.traitsToRender[_traits.traitsToRenderLength] = traitToRender */\n      swap2\n      tag_243\n      dup4\n      dup4\n      tag_36\n      jump\t// in\n    tag_569:\n      pop\n        /* \"src/Traits.sol\":1042:15231  contract Traits is ITraits {... */\n      0xff\n      dup2\n      mload\n      and\n      0xff\n      dup2\n      eq\n      tag_244\n      jumpi\n        /* \"src/Traits.sol\":2054:2055  1 */\n      0x01\n        /* \"src/Traits.sol\":1042:15231  contract Traits is ITraits {... */\n      add\n      0xff\n      and\n      swap1\n      mstore\n        /* \"src/Traits.sol\":2660:2673  return traits */\n      swap1\n      jump\t// out\n        /* \"src/Traits.sol\":2292:2438  if (_isPreRendered(specialIdx)) {... */\n    tag_560:\n        /* \"src/Traits.sol\":2409:2422  return traits */\n      pop\n      pop\n      swap1\n      jump\t// out\n        /* \"src/Traits.sol\":6854:7264  specialIdx == uint(E_Special_1s.Predator_Blue) ||... */\n    tag_558:\n        /* \"src/Traits.sol\":7238:7263  E_Special_1s.The_Portrait */\n      0x0d\n        /* \"src/Traits.sol\":7219:7264  specialIdx == uint(E_Special_1s.The_Portrait) */\n      swap2\n      pop\n      eq\n        /* \"src/Traits.sol\":6854:7264  specialIdx == uint(E_Special_1s.Predator_Blue) ||... */\n      0x00\n      jump(tag_559)\n        /* \"src/Traits.sol\":6854:7203  specialIdx == uint(E_Special_1s.Predator_Blue) ||... */\n    tag_556:\n        /* \"src/Traits.sol\":7180:7202  E_Special_1s.The_Devil */\n      0x0b\n        /* \"src/Traits.sol\":7161:7203  specialIdx == uint(E_Special_1s.The_Devil) */\n      dup2\n      eq\n      swap2\n      pop\n        /* \"src/Traits.sol\":6854:7203  specialIdx == uint(E_Special_1s.Predator_Blue) ||... */\n      jump(tag_557)\n        /* \"src/Traits.sol\":6854:7145  specialIdx == uint(E_Special_1s.Predator_Blue) ||... */\n    tag_554:\n        /* \"src/Traits.sol\":7119:7144  E_Special_1s.Shadow_Ninja */\n      0x08\n        /* \"src/Traits.sol\":7100:7145  specialIdx == uint(E_Special_1s.Shadow_Ninja) */\n      dup2\n      eq\n      swap2\n      pop\n        /* \"src/Traits.sol\":6854:7145  specialIdx == uint(E_Special_1s.Predator_Blue) ||... */\n      jump(tag_555)\n        /* \"src/Traits.sol\":6854:7084  specialIdx == uint(E_Special_1s.Predator_Blue) ||... */\n    tag_552:\n        /* \"src/Traits.sol\":7059:7083  E_Special_1s.Santa_Claus */\n      0x07\n        /* \"src/Traits.sol\":7040:7084  specialIdx == uint(E_Special_1s.Santa_Claus) */\n      dup2\n      eq\n      swap2\n      pop\n        /* \"src/Traits.sol\":6854:7084  specialIdx == uint(E_Special_1s.Predator_Blue) ||... */\n      jump(tag_553)\n        /* \"src/Traits.sol\":6854:7024  specialIdx == uint(E_Special_1s.Predator_Blue) ||... */\n    tag_550:\n        /* \"src/Traits.sol\":6998:7023  E_Special_1s.Predator_Red */\n      0x06\n        /* \"src/Traits.sol\":6979:7024  specialIdx == uint(E_Special_1s.Predator_Red) */\n      dup2\n      eq\n      swap2\n      pop\n        /* \"src/Traits.sol\":6854:7024  specialIdx == uint(E_Special_1s.Predator_Blue) ||... */\n      jump(tag_551)\n        /* \"src/Traits.sol\":6854:6963  specialIdx == uint(E_Special_1s.Predator_Blue) ||... */\n    tag_548:\n        /* \"src/Traits.sol\":6935:6962  E_Special_1s.Predator_Green */\n      0x05\n        /* \"src/Traits.sol\":6916:6963  specialIdx == uint(E_Special_1s.Predator_Green) */\n      dup2\n      eq\n      swap2\n      pop\n        /* \"src/Traits.sol\":6854:6963  specialIdx == uint(E_Special_1s.Predator_Blue) ||... */\n      jump(tag_549)\n        /* \"src/Traits.sol\":1795:1890  if (_tokenIdSeed < NUM_SPECIAL_1S) {... */\n    tag_141:\n        /* \"src/Traits.sol\":1878:1879  1 */\n      0x01\n        /* \"src/common/Enums.sol\":125:127  16 */\n      add\n        /* \"src/Traits.sol\":1042:15231  contract Traits is ITraits {... */\n      0xffff\n        /* \"src/common/Enums.sol\":125:127  16 */\n      dup2\n      gt\n      tag_244\n      jumpi\n        /* \"src/Traits.sol\":1042:15231  contract Traits is ITraits {... */\n      0xffff\n      and\n        /* \"src/Traits.sol\":1844:1860  traits.specialId */\n      0x60\n      dup6\n      add\n        /* \"src/Traits.sol\":1042:15231  contract Traits is ITraits {... */\n      mstore\n        /* \"src/Traits.sol\":1795:1890  if (_tokenIdSeed < NUM_SPECIAL_1S) {... */\n      0x00\n      jump(tag_142)\n        /* \"src/Traits.sol\":1042:15231  contract Traits is ITraits {... */\n    tag_139:\n      0x20\n      swap1\n      tag_575\n      tag_9\n      jump\t// in\n    tag_575:\n      dup3\n      dup3\n      dup7\n      add\n      add\n      mstore\n      add\n      jump(tag_138)\n        /* \"src/Traits.sol\":14016:14183  function _addBackground(TraitsContext memory traits) internal pure {... */\n    tag_13:\n        /* \"src/Traits.sol\":14157:14174  traits.background */\n      0xc0\n      dup2\n      add\n        /* \"src/Traits.sol\":1042:15231  contract Traits is ITraits {... */\n      mload\n      0x05\n      dup2\n      lt\n      iszero\n      tag_63\n      jumpi\n      tag_578\n      tag_9\n      jump\t// in\n    tag_578:\n      0xff\n        /* \"src/Traits.sol\":14700:14768  _traits.traitsToRender[_traits.traitsToRenderLength] = traitToRender */\n      tag_581\n        /* \"src/Traits.sol\":1042:15231  contract Traits is ITraits {... */\n      swap3\n        /* \"src/Traits.sol\":14119:14149  E_TraitsGroup.Background_Group */\n      0x01\n        /* \"src/Traits.sol\":1042:15231  contract Traits is ITraits {... */\n      dup4\n      mstore\n      and\n        /* \"src/Traits.sol\":14602:14626  traitToRender.traitIndex */\n      0x20\n      dup3\n      add\n        /* \"src/Traits.sol\":1042:15231  contract Traits is ITraits {... */\n      mstore\n      0x00\n        /* \"src/Traits.sol\":14650:14673  traitToRender.hasFiller */\n      0x40\n      dup3\n      add\n        /* \"src/Traits.sol\":1042:15231  contract Traits is ITraits {... */\n      mstore\n        /* \"src/Traits.sol\":14602:14626  traitToRender.traitIndex */\n      0x20\n        /* \"src/Traits.sol\":14700:14722  _traits.traitsToRender */\n      dup4\n      mload\n        /* \"src/Traits.sol\":14723:14751  _traits.traitsToRenderLength */\n      swap4\n      add\n        /* \"src/Traits.sol\":1042:15231  contract Traits is ITraits {... */\n      swap3\n      0xff\n      dup5\n      mload\n      and\n        /* \"src/Traits.sol\":14700:14768  _traits.traitsToRender[_traits.traitsToRenderLength] = traitToRender */\n      swap2\n      tag_243\n      dup4\n      dup4\n      tag_36\n      jump\t// in\n    tag_581:\n      pop\n        /* \"src/Traits.sol\":1042:15231  contract Traits is ITraits {... */\n      0xff\n      dup2\n      mload\n      and\n      0xff\n      dup2\n      eq\n      tag_244\n      jumpi\n        /* \"src/Traits.sol\":14119:14149  E_TraitsGroup.Background_Group */\n      0x01\n        /* \"src/Traits.sol\":1042:15231  contract Traits is ITraits {... */\n      add\n      0xff\n      and\n      swap1\n      mstore\n        /* \"src/Traits.sol\":14016:14183  function _addBackground(TraitsContext memory traits) internal pure {... */\n      jump\t// out\n        /* \"src/Traits.sol\":11113:11342  function _addFemaleEyes(TraitsContext memory traits) internal pure {... */\n    tag_14:\n        /* \"src/Traits.sol\":11194:11211  traits.femaleEyes */\n      0x0280\n      dup2\n      add\n        /* \"src/Traits.sol\":1042:15231  contract Traits is ITraits {... */\n      dup1\n      mload\n      0x1f\n      dup2\n      lt\n      iszero\n      tag_63\n      jumpi\n        /* \"src/Traits.sol\":11194:11233  traits.femaleEyes == E_Female_Eyes.None */\n      iszero\n        /* \"src/Traits.sol\":11190:11242  if (traits.femaleEyes == E_Female_Eyes.None) return; */\n      tag_587\n      jumpi\n        /* \"src/Traits.sol\":1042:15231  contract Traits is ITraits {... */\n      mload\n      0x1f\n      dup2\n      lt\n      iszero\n      tag_63\n      jumpi\n      tag_591\n      tag_9\n      jump\t// in\n    tag_591:\n      0xff\n        /* \"src/Traits.sol\":14700:14768  _traits.traitsToRender[_traits.traitsToRenderLength] = traitToRender */\n      tag_581\n        /* \"src/Traits.sol\":1042:15231  contract Traits is ITraits {... */\n      swap3\n        /* \"src/Traits.sol\":11277:11308  E_TraitsGroup.Female_Eyes_Group */\n      0x0f\n        /* \"src/Traits.sol\":1042:15231  contract Traits is ITraits {... */\n      dup4\n      mstore\n      and\n        /* \"src/Traits.sol\":14602:14626  traitToRender.traitIndex */\n      0x20\n      dup3\n      add\n        /* \"src/Traits.sol\":1042:15231  contract Traits is ITraits {... */\n      mstore\n      0x00\n        /* \"src/Traits.sol\":14650:14673  traitToRender.hasFiller */\n      0x40\n      dup3\n      add\n        /* \"src/Traits.sol\":1042:15231  contract Traits is ITraits {... */\n      mstore\n        /* \"src/Traits.sol\":14602:14626  traitToRender.traitIndex */\n      0x20\n        /* \"src/Traits.sol\":14700:14722  _traits.traitsToRender */\n      dup4\n      mload\n        /* \"src/Traits.sol\":14723:14751  _traits.traitsToRenderLength */\n      swap4\n      add\n        /* \"src/Traits.sol\":1042:15231  contract Traits is ITraits {... */\n      swap3\n      0xff\n      dup5\n      mload\n      and\n        /* \"src/Traits.sol\":14700:14768  _traits.traitsToRender[_traits.traitsToRenderLength] = traitToRender */\n      swap2\n      tag_243\n      dup4\n      dup4\n      tag_36\n      jump\t// in\n        /* \"src/Traits.sol\":11190:11242  if (traits.femaleEyes == E_Female_Eyes.None) return; */\n    tag_587:\n        /* \"src/Traits.sol\":11235:11242  return; */\n      pop\n      pop\n      jump\t// out\n        /* \"src/Traits.sol\":11348:11577  function _addFemaleFace(TraitsContext memory traits) internal pure {... */\n    tag_15:\n        /* \"src/Traits.sol\":11429:11446  traits.femaleFace */\n      0x02a0\n      dup2\n      add\n        /* \"src/Traits.sol\":1042:15231  contract Traits is ITraits {... */\n      dup1\n      mload\n      0x13\n      dup2\n      lt\n      iszero\n      tag_63\n      jumpi\n        /* \"src/Traits.sol\":11429:11468  traits.femaleFace == E_Female_Face.None */\n      iszero\n        /* \"src/Traits.sol\":11425:11477  if (traits.femaleFace == E_Female_Face.None) return; */\n      tag_587\n      jumpi\n        /* \"src/Traits.sol\":1042:15231  contract Traits is ITraits {... */\n      mload\n      0x13\n      dup2\n      lt\n      iszero\n      tag_63\n      jumpi\n      tag_604\n      tag_9\n      jump\t// in\n    tag_604:\n      0xff\n        /* \"src/Traits.sol\":14700:14768  _traits.traitsToRender[_traits.traitsToRenderLength] = traitToRender */\n      tag_581\n        /* \"src/Traits.sol\":1042:15231  contract Traits is ITraits {... */\n      swap3\n        /* \"src/Traits.sol\":11512:11543  E_TraitsGroup.Female_Face_Group */\n      0x10\n        /* \"src/Traits.sol\":1042:15231  contract Traits is ITraits {... */\n      dup4\n      mstore\n      and\n        /* \"src/Traits.sol\":14602:14626  traitToRender.traitIndex */\n      0x20\n      dup3\n      add\n        /* \"src/Traits.sol\":1042:15231  contract Traits is ITraits {... */\n      mstore\n      0x00\n        /* \"src/Traits.sol\":14650:14673  traitToRender.hasFiller */\n      0x40\n      dup3\n      add\n        /* \"src/Traits.sol\":1042:15231  contract Traits is ITraits {... */\n      mstore\n        /* \"src/Traits.sol\":14602:14626  traitToRender.traitIndex */\n      0x20\n        /* \"src/Traits.sol\":14700:14722  _traits.traitsToRender */\n      dup4\n      mload\n        /* \"src/Traits.sol\":14723:14751  _traits.traitsToRenderLength */\n      swap4\n      add\n        /* \"src/Traits.sol\":1042:15231  contract Traits is ITraits {... */\n      swap3\n      0xff\n      dup5\n      mload\n      and\n        /* \"src/Traits.sol\":14700:14768  _traits.traitsToRender[_traits.traitsToRenderLength] = traitToRender */\n      swap2\n      tag_243\n      dup4\n      dup4\n      tag_36\n      jump\t// in\n        /* \"src/Traits.sol\":11583:11817  function _addFemaleChain(TraitsContext memory traits) internal pure {... */\n    tag_16:\n        /* \"src/Traits.sol\":11665:11683  traits.femaleChain */\n      0x02c0\n      dup2\n      add\n        /* \"src/Traits.sol\":1042:15231  contract Traits is ITraits {... */\n      dup1\n      mload\n      tag_611\n      dup2\n      tag_3\n      jump\t// in\n    tag_611:\n      tag_612\n      dup2\n      tag_3\n      jump\t// in\n    tag_612:\n        /* \"src/Traits.sol\":11665:11706  traits.femaleChain == E_Female_Chain.None */\n      iszero\n        /* \"src/Traits.sol\":11661:11715  if (traits.femaleChain == E_Female_Chain.None) return; */\n      tag_587\n      jumpi\n        /* \"src/Traits.sol\":1042:15231  contract Traits is ITraits {... */\n      mload\n      tag_615\n      dup2\n      tag_3\n      jump\t// in\n    tag_615:\n      tag_616\n      dup2\n      tag_3\n      jump\t// in\n    tag_616:\n      tag_617\n      tag_9\n      jump\t// in\n    tag_617:\n      0xff\n        /* \"src/Traits.sol\":14700:14768  _traits.traitsToRender[_traits.traitsToRenderLength] = traitToRender */\n      tag_581\n        /* \"src/Traits.sol\":1042:15231  contract Traits is ITraits {... */\n      swap3\n        /* \"src/Traits.sol\":11750:11782  E_TraitsGroup.Female_Chain_Group */\n      0x11\n        /* \"src/Traits.sol\":1042:15231  contract Traits is ITraits {... */\n      dup4\n      mstore\n      and\n        /* \"src/Traits.sol\":14602:14626  traitToRender.traitIndex */\n      0x20\n      dup3\n      add\n        /* \"src/Traits.sol\":1042:15231  contract Traits is ITraits {... */\n      mstore\n      0x00\n        /* \"src/Traits.sol\":14650:14673  traitToRender.hasFiller */\n      0x40\n      dup3\n      add\n        /* \"src/Traits.sol\":1042:15231  contract Traits is ITraits {... */\n      mstore\n        /* \"src/Traits.sol\":14602:14626  traitToRender.traitIndex */\n      0x20\n        /* \"src/Traits.sol\":14700:14722  _traits.traitsToRender */\n      dup4\n      mload\n        /* \"src/Traits.sol\":14723:14751  _traits.traitsToRenderLength */\n      swap4\n      add\n        /* \"src/Traits.sol\":1042:15231  contract Traits is ITraits {... */\n      swap3\n      0xff\n      dup5\n      mload\n      and\n        /* \"src/Traits.sol\":14700:14768  _traits.traitsToRender[_traits.traitsToRenderLength] = traitToRender */\n      swap2\n      tag_243\n      dup4\n      dup4\n      tag_36\n      jump\t// in\n        /* \"src/Traits.sol\":12063:12307  function _addFemaleEarring(TraitsContext memory traits) internal pure {... */\n    tag_17:\n        /* \"src/Traits.sol\":12147:12167  traits.femaleEarring */\n      0x02e0\n      dup2\n      add\n        /* \"src/Traits.sol\":1042:15231  contract Traits is ITraits {... */\n      dup1\n      mload\n      tag_624\n      dup2\n      tag_3\n      jump\t// in\n    tag_624:\n      tag_625\n      dup2\n      tag_3\n      jump\t// in\n    tag_625:\n        /* \"src/Traits.sol\":12147:12192  traits.femaleEarring == E_Female_Earring.None */\n      iszero\n        /* \"src/Traits.sol\":12143:12201  if (traits.femaleEarring == E_Female_Earring.None) return; */\n      tag_587\n      jumpi\n        /* \"src/Traits.sol\":1042:15231  contract Traits is ITraits {... */\n      mload\n      tag_628\n      dup2\n      tag_3\n      jump\t// in\n    tag_628:\n      tag_629\n      dup2\n      tag_3\n      jump\t// in\n    tag_629:\n      tag_630\n      tag_9\n      jump\t// in\n    tag_630:\n      0xff\n        /* \"src/Traits.sol\":14700:14768  _traits.traitsToRender[_traits.traitsToRenderLength] = traitToRender */\n      tag_581\n        /* \"src/Traits.sol\":1042:15231  contract Traits is ITraits {... */\n      swap3\n        /* \"src/Traits.sol\":12236:12270  E_TraitsGroup.Female_Earring_Group */\n      0x12\n        /* \"src/Traits.sol\":1042:15231  contract Traits is ITraits {... */\n      dup4\n      mstore\n      and\n        /* \"src/Traits.sol\":14602:14626  traitToRender.traitIndex */\n      0x20\n      dup3\n      add\n        /* \"src/Traits.sol\":1042:15231  contract Traits is ITraits {... */\n      mstore\n      0x00\n        /* \"src/Traits.sol\":14650:14673  traitToRender.hasFiller */\n      0x40\n      dup3\n      add\n        /* \"src/Traits.sol\":1042:15231  contract Traits is ITraits {... */\n      mstore\n        /* \"src/Traits.sol\":14602:14626  traitToRender.traitIndex */\n      0x20\n        /* \"src/Traits.sol\":14700:14722  _traits.traitsToRender */\n      dup4\n      mload\n        /* \"src/Traits.sol\":14723:14751  _traits.traitsToRenderLength */\n      swap4\n      add\n        /* \"src/Traits.sol\":1042:15231  contract Traits is ITraits {... */\n      swap3\n      0xff\n      dup5\n      mload\n      and\n        /* \"src/Traits.sol\":14700:14768  _traits.traitsToRender[_traits.traitsToRenderLength] = traitToRender */\n      swap2\n      tag_243\n      dup4\n      dup4\n      tag_36\n      jump\t// in\n        /* \"src/Traits.sol\":12313:12542  function _addFemaleMask(TraitsContext memory traits) internal pure {... */\n    tag_18:\n        /* \"src/Traits.sol\":12394:12411  traits.femaleMask */\n      0x0320\n      dup2\n      add\n        /* \"src/Traits.sol\":1042:15231  contract Traits is ITraits {... */\n      dup1\n      mload\n      0x15\n      dup2\n      lt\n      iszero\n      tag_63\n      jumpi\n        /* \"src/Traits.sol\":12394:12433  traits.femaleMask == E_Female_Mask.None */\n      iszero\n        /* \"src/Traits.sol\":12390:12442  if (traits.femaleMask == E_Female_Mask.None) return; */\n      tag_587\n      jumpi\n        /* \"src/Traits.sol\":1042:15231  contract Traits is ITraits {... */\n      mload\n      0x15\n      dup2\n      lt\n      iszero\n      tag_63\n      jumpi\n      tag_643\n      tag_9\n      jump\t// in\n    tag_643:\n      0xff\n        /* \"src/Traits.sol\":14700:14768  _traits.traitsToRender[_traits.traitsToRenderLength] = traitToRender */\n      tag_581\n        /* \"src/Traits.sol\":1042:15231  contract Traits is ITraits {... */\n      swap3\n        /* \"src/Traits.sol\":12477:12508  E_TraitsGroup.Female_Mask_Group */\n      0x13\n        /* \"src/Traits.sol\":1042:15231  contract Traits is ITraits {... */\n      dup4\n      mstore\n      and\n        /* \"src/Traits.sol\":14602:14626  traitToRender.traitIndex */\n      0x20\n      dup3\n      add\n        /* \"src/Traits.sol\":1042:15231  contract Traits is ITraits {... */\n      mstore\n      0x00\n        /* \"src/Traits.sol\":14650:14673  traitToRender.hasFiller */\n      0x40\n      dup3\n      add\n        /* \"src/Traits.sol\":1042:15231  contract Traits is ITraits {... */\n      mstore\n        /* \"src/Traits.sol\":14602:14626  traitToRender.traitIndex */\n      0x20\n        /* \"src/Traits.sol\":14700:14722  _traits.traitsToRender */\n      dup4\n      mload\n        /* \"src/Traits.sol\":14723:14751  _traits.traitsToRenderLength */\n      swap4\n      add\n        /* \"src/Traits.sol\":1042:15231  contract Traits is ITraits {... */\n      swap3\n      0xff\n      dup5\n      mload\n      and\n        /* \"src/Traits.sol\":14700:14768  _traits.traitsToRender[_traits.traitsToRenderLength] = traitToRender */\n      swap2\n      tag_243\n      dup4\n      dup4\n      tag_36\n      jump\t// in\n        /* \"src/Traits.sol\":11823:12057  function _addFemaleScarf(TraitsContext memory traits) internal pure {... */\n    tag_19:\n        /* \"src/Traits.sol\":11905:11923  traits.femaleScarf */\n      0x0300\n      dup2\n      add\n        /* \"src/Traits.sol\":1042:15231  contract Traits is ITraits {... */\n      dup1\n      mload\n      tag_650\n      dup2\n      tag_4\n      jump\t// in\n    tag_650:\n      tag_651\n      dup2\n      tag_4\n      jump\t// in\n    tag_651:\n        /* \"src/Traits.sol\":11905:11946  traits.femaleScarf == E_Female_Scarf.None */\n      iszero\n        /* \"src/Traits.sol\":11901:11955  if (traits.femaleScarf == E_Female_Scarf.None) return; */\n      tag_587\n      jumpi\n        /* \"src/Traits.sol\":1042:15231  contract Traits is ITraits {... */\n      mload\n      tag_654\n      dup2\n      tag_4\n      jump\t// in\n    tag_654:\n      tag_655\n      dup2\n      tag_4\n      jump\t// in\n    tag_655:\n      tag_656\n      tag_9\n      jump\t// in\n    tag_656:\n      0xff\n        /* \"src/Traits.sol\":14700:14768  _traits.traitsToRender[_traits.traitsToRenderLength] = traitToRender */\n      tag_581\n        /* \"src/Traits.sol\":1042:15231  contract Traits is ITraits {... */\n      swap3\n        /* \"src/Traits.sol\":11990:12022  E_TraitsGroup.Female_Scarf_Group */\n      0x14\n        /* \"src/Traits.sol\":1042:15231  contract Traits is ITraits {... */\n      dup4\n      mstore\n      and\n        /* \"src/Traits.sol\":14602:14626  traitToRender.traitIndex */\n      0x20\n      dup3\n      add\n        /* \"src/Traits.sol\":1042:15231  contract Traits is ITraits {... */\n      mstore\n      0x00\n        /* \"src/Traits.sol\":14650:14673  traitToRender.hasFiller */\n      0x40\n      dup3\n      add\n        /* \"src/Traits.sol\":1042:15231  contract Traits is ITraits {... */\n      mstore\n        /* \"src/Traits.sol\":14602:14626  traitToRender.traitIndex */\n      0x20\n        /* \"src/Traits.sol\":14700:14722  _traits.traitsToRender */\n      dup4\n      mload\n        /* \"src/Traits.sol\":14723:14751  _traits.traitsToRenderLength */\n      swap4\n      add\n        /* \"src/Traits.sol\":1042:15231  contract Traits is ITraits {... */\n      swap3\n      0xff\n      dup5\n      mload\n      and\n        /* \"src/Traits.sol\":14700:14768  _traits.traitsToRender[_traits.traitsToRenderLength] = traitToRender */\n      swap2\n      tag_243\n      dup4\n      dup4\n      tag_36\n      jump\t// in\n        /* \"src/Traits.sol\":12548:12777  function _addFemaleHair(TraitsContext memory traits) internal pure {... */\n    tag_20:\n        /* \"src/Traits.sol\":12629:12646  traits.femaleHair */\n      0x0340\n      dup2\n      add\n        /* \"src/Traits.sol\":1042:15231  contract Traits is ITraits {... */\n      dup1\n      mload\n      0xc3\n      dup2\n      lt\n      iszero\n      tag_63\n      jumpi\n        /* \"src/Traits.sol\":12629:12668  traits.femaleHair == E_Female_Hair.None */\n      iszero\n        /* \"src/Traits.sol\":12625:12677  if (traits.femaleHair == E_Female_Hair.None) return; */\n      tag_587\n      jumpi\n        /* \"src/Traits.sol\":1042:15231  contract Traits is ITraits {... */\n      mload\n      0xc3\n      dup2\n      lt\n      iszero\n      tag_63\n      jumpi\n      tag_669\n      tag_9\n      jump\t// in\n    tag_669:\n      0xff\n        /* \"src/Traits.sol\":14700:14768  _traits.traitsToRender[_traits.traitsToRenderLength] = traitToRender */\n      tag_581\n        /* \"src/Traits.sol\":1042:15231  contract Traits is ITraits {... */\n      swap3\n        /* \"src/Traits.sol\":12712:12743  E_TraitsGroup.Female_Hair_Group */\n      0x15\n        /* \"src/Traits.sol\":1042:15231  contract Traits is ITraits {... */\n      dup4\n      mstore\n      and\n        /* \"src/Traits.sol\":14602:14626  traitToRender.traitIndex */\n      0x20\n      dup3\n      add\n        /* \"src/Traits.sol\":1042:15231  contract Traits is ITraits {... */\n      mstore\n      0x00\n        /* \"src/Traits.sol\":14650:14673  traitToRender.hasFiller */\n      0x40\n      dup3\n      add\n        /* \"src/Traits.sol\":1042:15231  contract Traits is ITraits {... */\n      mstore\n        /* \"src/Traits.sol\":14602:14626  traitToRender.traitIndex */\n      0x20\n        /* \"src/Traits.sol\":14700:14722  _traits.traitsToRender */\n      dup4\n      mload\n        /* \"src/Traits.sol\":14723:14751  _traits.traitsToRenderLength */\n      swap4\n      add\n        /* \"src/Traits.sol\":1042:15231  contract Traits is ITraits {... */\n      swap3\n      0xff\n      dup5\n      mload\n      and\n        /* \"src/Traits.sol\":14700:14768  _traits.traitsToRender[_traits.traitsToRenderLength] = traitToRender */\n      swap2\n      tag_243\n      dup4\n      dup4\n      tag_36\n      jump\t// in\n        /* \"src/Traits.sol\":12783:13029  function _addFemaleHatHair(TraitsContext memory traits) internal pure {... */\n    tag_21:\n        /* \"src/Traits.sol\":12867:12887  traits.femaleHatHair */\n      0x0360\n      dup2\n      add\n        /* \"src/Traits.sol\":1042:15231  contract Traits is ITraits {... */\n      dup1\n      mload\n      0x85\n      dup2\n      lt\n      iszero\n      tag_63\n      jumpi\n        /* \"src/Traits.sol\":12867:12913  traits.femaleHatHair == E_Female_Hat_Hair.None */\n      iszero\n        /* \"src/Traits.sol\":12863:12922  if (traits.femaleHatHair == E_Female_Hat_Hair.None) return; */\n      tag_587\n      jumpi\n        /* \"src/Traits.sol\":1042:15231  contract Traits is ITraits {... */\n      mload\n      0x85\n      dup2\n      lt\n      iszero\n      tag_63\n      jumpi\n      tag_682\n      tag_9\n      jump\t// in\n    tag_682:\n      0xff\n        /* \"src/Traits.sol\":14700:14768  _traits.traitsToRender[_traits.traitsToRenderLength] = traitToRender */\n      tag_581\n        /* \"src/Traits.sol\":1042:15231  contract Traits is ITraits {... */\n      swap3\n        /* \"src/Traits.sol\":12957:12992  E_TraitsGroup.Female_Hat_Hair_Group */\n      0x16\n        /* \"src/Traits.sol\":1042:15231  contract Traits is ITraits {... */\n      dup4\n      mstore\n      and\n        /* \"src/Traits.sol\":14602:14626  traitToRender.traitIndex */\n      0x20\n      dup3\n      add\n        /* \"src/Traits.sol\":1042:15231  contract Traits is ITraits {... */\n      mstore\n      0x00\n        /* \"src/Traits.sol\":14650:14673  traitToRender.hasFiller */\n      0x40\n      dup3\n      add\n        /* \"src/Traits.sol\":1042:15231  contract Traits is ITraits {... */\n      mstore\n        /* \"src/Traits.sol\":14602:14626  traitToRender.traitIndex */\n      0x20\n        /* \"src/Traits.sol\":14700:14722  _traits.traitsToRender */\n      dup4\n      mload\n        /* \"src/Traits.sol\":14723:14751  _traits.traitsToRenderLength */\n      swap4\n      add\n        /* \"src/Traits.sol\":1042:15231  contract Traits is ITraits {... */\n      swap3\n      0xff\n      dup5\n      mload\n      and\n        /* \"src/Traits.sol\":14700:14768  _traits.traitsToRender[_traits.traitsToRenderLength] = traitToRender */\n      swap2\n      tag_243\n      dup4\n      dup4\n      tag_36\n      jump\t// in\n        /* \"src/Traits.sol\":13035:13518  function _addFemaleHeadwear(TraitsContext memory traits) internal pure {... */\n    tag_22:\n        /* \"src/Traits.sol\":13120:13141  traits.femaleHeadwear */\n      0x0380\n      dup2\n      add\n        /* \"src/Traits.sol\":1042:15231  contract Traits is ITraits {... */\n      dup1\n      mload\n      0x83\n      dup2\n      lt\n      iszero\n      tag_63\n      jumpi\n        /* \"src/Traits.sol\":13120:13167  traits.femaleHeadwear == E_Female_Headwear.None */\n      iszero\n        /* \"src/Traits.sol\":13116:13176  if (traits.femaleHeadwear == E_Female_Headwear.None) return; */\n      tag_587\n      jumpi\n        /* \"src/Traits.sol\":1042:15231  contract Traits is ITraits {... */\n      mload\n      swap1\n      0x83\n      dup3\n      lt\n      iszero\n      tag_63\n      jumpi\n      tag_695\n      tag_9\n      jump\t// in\n    tag_695:\n      swap2\n      0xff\n      swap1\n        /* \"src/Traits.sol\":13211:13246  E_TraitsGroup.Female_Headwear_Group */\n      0x17\n        /* \"src/Traits.sol\":1042:15231  contract Traits is ITraits {... */\n      dup5\n      mstore\n      and\n        /* \"src/Traits.sol\":14602:14626  traitToRender.traitIndex */\n      0x20\n      dup4\n      add\n        /* \"src/Traits.sol\":1042:15231  contract Traits is ITraits {... */\n      mstore\n      0x00\n        /* \"src/Traits.sol\":14650:14673  traitToRender.hasFiller */\n      0x40\n      dup4\n      add\n        /* \"src/Traits.sol\":1042:15231  contract Traits is ITraits {... */\n      mstore\n        /* \"src/Traits.sol\":14700:14768  _traits.traitsToRender[_traits.traitsToRenderLength] = traitToRender */\n      tag_698\n        /* \"src/Traits.sol\":14700:14722  _traits.traitsToRender */\n      dup2\n      mload\n        /* \"src/Traits.sol\":14723:14751  _traits.traitsToRenderLength */\n      swap3\n        /* \"src/Traits.sol\":14602:14626  traitToRender.traitIndex */\n      0x20\n        /* \"src/Traits.sol\":14723:14751  _traits.traitsToRenderLength */\n      dup4\n      add\n        /* \"src/Traits.sol\":1042:15231  contract Traits is ITraits {... */\n      swap4\n      0xff\n      dup6\n      mload\n      and\n        /* \"src/Traits.sol\":14700:14768  _traits.traitsToRender[_traits.traitsToRenderLength] = traitToRender */\n      swap2\n      tag_243\n      dup4\n      dup4\n      tag_36\n      jump\t// in\n    tag_698:\n      pop\n        /* \"src/Traits.sol\":1042:15231  contract Traits is ITraits {... */\n      0xff\n      dup3\n      mload\n      and\n      0xff\n      dup2\n      eq\n      tag_244\n      jumpi\n      0x01\n      add\n      0xff\n      and\n      dup3\n      mstore\n        /* \"src/Traits.sol\":13335:13352  traits.femaleSkin */\n      0x0260\n      dup2\n      add\n        /* \"src/Traits.sol\":1042:15231  contract Traits is ITraits {... */\n      mload\n      0x1a\n      dup2\n      lt\n      iszero\n      tag_63\n      jumpi\n        /* \"src/Traits.sol\":13356:13375  E_Female_Skin.Robot */\n      0x15\n        /* \"src/Traits.sol\":13335:13375  traits.femaleSkin == E_Female_Skin.Robot */\n      eq\n        /* \"src/Traits.sol\":13331:13512  if (traits.femaleSkin == E_Female_Skin.Robot) {... */\n      tag_704\n      jumpi\n        /* \"src/Traits.sol\":13035:13518  function _addFemaleHeadwear(TraitsContext memory traits) internal pure {... */\n      pop\n      pop\n      jump\t// out\n        /* \"src/Traits.sol\":13331:13512  if (traits.femaleSkin == E_Female_Skin.Robot) {... */\n    tag_704:\n        /* \"src/Traits.sol\":1042:15231  contract Traits is ITraits {... */\n      tag_706\n      tag_8\n      jump\t// in\n    tag_706:\n      swap2\n      0x1a\n      dup4\n      mstore\n      0x01\n        /* \"src/Traits.sol\":14602:14626  traitToRender.traitIndex */\n      0x20\n        /* \"src/Traits.sol\":15022:15039  filler.traitIndex */\n      dup5\n      add\n        /* \"src/Traits.sol\":1042:15231  contract Traits is ITraits {... */\n      mstore\n      0xff\n        /* \"src/common/Enums.sol\":125:127  16 */\n      not(0x00)\n        /* \"src/Traits.sol\":1042:15231  contract Traits is ITraits {... */\n      swap2\n      mload\n      and\n      add\n      0xff\n      dup2\n      gt\n      tag_244\n      jumpi\n        /* \"src/Traits.sol\":15179:15213  _traits.traitsToRender[idx].filler */\n      0x60\n        /* \"src/Traits.sol\":1042:15231  contract Traits is ITraits {... */\n      swap2\n      0xff\n        /* \"src/Traits.sol\":15179:15206  _traits.traitsToRender[idx] */\n      tag_711\n        /* \"src/Traits.sol\":1042:15231  contract Traits is ITraits {... */\n      swap3\n      and\n        /* \"src/Traits.sol\":15125:15147  _traits.traitsToRender */\n      swap1\n        /* \"src/Traits.sol\":1042:15231  contract Traits is ITraits {... */\n      0x01\n        /* \"src/Traits.sol\":14650:14673  traitToRender.hasFiller */\n      0x40\n        /* \"src/Traits.sol\":15125:15152  _traits.traitsToRender[idx] */\n      tag_712\n        /* \"src/Traits.sol\":15125:15147  _traits.traitsToRender */\n      dup5\n      dup5\n      mload\n        /* \"src/Traits.sol\":15125:15152  _traits.traitsToRender[idx] */\n      tag_36\n      jump\t// in\n    tag_712:\n      mload\n        /* \"src/Traits.sol\":15125:15162  _traits.traitsToRender[idx].hasFiller */\n      add\n        /* \"src/Traits.sol\":1042:15231  contract Traits is ITraits {... */\n      mstore\n        /* \"src/Traits.sol\":15179:15201  _traits.traitsToRender */\n      mload\n        /* \"src/Traits.sol\":15179:15206  _traits.traitsToRender[idx] */\n      tag_36\n      jump\t// in\n    tag_711:\n      mload\n        /* \"src/Traits.sol\":15179:15213  _traits.traitsToRender[idx].filler */\n      add\n        /* \"src/Traits.sol\":15179:15222  _traits.traitsToRender[idx].filler = filler */\n      mstore\n        /* \"src/Traits.sol\":13035:13518  function _addFemaleHeadwear(TraitsContext memory traits) internal pure {... */\n      jump\t// out\n        /* \"src/Traits.sol\":13524:13770  function _addFemaleEyeWear(TraitsContext memory traits) internal pure {... */\n    tag_23:\n        /* \"src/Traits.sol\":13608:13628  traits.femaleEyeWear */\n      0x03a0\n      dup2\n      add\n        /* \"src/Traits.sol\":1042:15231  contract Traits is ITraits {... */\n      dup1\n      mload\n      0x7a\n      dup2\n      lt\n      iszero\n      tag_63\n      jumpi\n        /* \"src/Traits.sol\":13608:13654  traits.femaleEyeWear == E_Female_Eye_Wear.None */\n      iszero\n        /* \"src/Traits.sol\":13604:13663  if (traits.femaleEyeWear == E_Female_Eye_Wear.None) return; */\n      tag_587\n      jumpi\n        /* \"src/Traits.sol\":1042:15231  contract Traits is ITraits {... */\n      mload\n      0x7a\n      dup2\n      lt\n      iszero\n      tag_63\n      jumpi\n      tag_719\n      tag_9\n      jump\t// in\n    tag_719:\n      0xff\n        /* \"src/Traits.sol\":14700:14768  _traits.traitsToRender[_traits.traitsToRenderLength] = traitToRender */\n      tag_581\n        /* \"src/Traits.sol\":1042:15231  contract Traits is ITraits {... */\n      swap3\n        /* \"src/Traits.sol\":13698:13733  E_TraitsGroup.Female_Eye_Wear_Group */\n      0x18\n        /* \"src/Traits.sol\":1042:15231  contract Traits is ITraits {... */\n      dup4\n      mstore\n      and\n        /* \"src/Traits.sol\":14602:14626  traitToRender.traitIndex */\n      0x20\n      dup3\n      add\n        /* \"src/Traits.sol\":1042:15231  contract Traits is ITraits {... */\n      mstore\n      0x00\n        /* \"src/Traits.sol\":14650:14673  traitToRender.hasFiller */\n      0x40\n      dup3\n      add\n        /* \"src/Traits.sol\":1042:15231  contract Traits is ITraits {... */\n      mstore\n        /* \"src/Traits.sol\":14602:14626  traitToRender.traitIndex */\n      0x20\n        /* \"src/Traits.sol\":14700:14722  _traits.traitsToRender */\n      dup4\n      mload\n        /* \"src/Traits.sol\":14723:14751  _traits.traitsToRenderLength */\n      swap4\n      add\n        /* \"src/Traits.sol\":1042:15231  contract Traits is ITraits {... */\n      swap3\n      0xff\n      dup5\n      mload\n      and\n        /* \"src/Traits.sol\":14700:14768  _traits.traitsToRender[_traits.traitsToRenderLength] = traitToRender */\n      swap2\n      tag_243\n      dup4\n      dup4\n      tag_36\n      jump\t// in\n        /* \"src/Traits.sol\":7861:8080  function _addMaleEyes(TraitsContext memory traits) internal pure {... */\n    tag_24:\n        /* \"src/Traits.sol\":7940:7955  traits.maleEyes */\n      0x0100\n      dup2\n      add\n        /* \"src/Traits.sol\":1042:15231  contract Traits is ITraits {... */\n      dup1\n      mload\n      tag_726\n      dup2\n      tag_2\n      jump\t// in\n    tag_726:\n      tag_727\n      dup2\n      tag_2\n      jump\t// in\n    tag_727:\n        /* \"src/Traits.sol\":7940:7975  traits.maleEyes == E_Male_Eyes.None */\n      iszero\n        /* \"src/Traits.sol\":7936:7984  if (traits.maleEyes == E_Male_Eyes.None) return; */\n      tag_587\n      jumpi\n        /* \"src/Traits.sol\":1042:15231  contract Traits is ITraits {... */\n      mload\n      tag_730\n      dup2\n      tag_2\n      jump\t// in\n    tag_730:\n      tag_731\n      dup2\n      tag_2\n      jump\t// in\n    tag_731:\n      tag_732\n      tag_9\n      jump\t// in\n    tag_732:\n      0xff\n        /* \"src/Traits.sol\":14700:14768  _traits.traitsToRender[_traits.traitsToRenderLength] = traitToRender */\n      tag_581\n        /* \"src/Traits.sol\":1042:15231  contract Traits is ITraits {... */\n      swap3\n        /* \"src/Traits.sol\":8019:8048  E_TraitsGroup.Male_Eyes_Group */\n      0x03\n        /* \"src/Traits.sol\":1042:15231  contract Traits is ITraits {... */\n      dup4\n      mstore\n      and\n        /* \"src/Traits.sol\":14602:14626  traitToRender.traitIndex */\n      0x20\n      dup3\n      add\n        /* \"src/Traits.sol\":1042:15231  contract Traits is ITraits {... */\n      mstore\n      0x00\n        /* \"src/Traits.sol\":14650:14673  traitToRender.hasFiller */\n      0x40\n      dup3\n      add\n        /* \"src/Traits.sol\":1042:15231  contract Traits is ITraits {... */\n      mstore\n        /* \"src/Traits.sol\":14602:14626  traitToRender.traitIndex */\n      0x20\n        /* \"src/Traits.sol\":14700:14722  _traits.traitsToRender */\n      dup4\n      mload\n        /* \"src/Traits.sol\":14723:14751  _traits.traitsToRenderLength */\n      swap4\n      add\n        /* \"src/Traits.sol\":1042:15231  contract Traits is ITraits {... */\n      swap3\n      0xff\n      dup5\n      mload\n      and\n        /* \"src/Traits.sol\":14700:14768  _traits.traitsToRender[_traits.traitsToRenderLength] = traitToRender */\n      swap2\n      tag_243\n      dup4\n      dup4\n      tag_36\n      jump\t// in\n        /* \"src/Traits.sol\":8086:8305  function _addMaleFace(TraitsContext memory traits) internal pure {... */\n    tag_25:\n        /* \"src/Traits.sol\":8165:8180  traits.maleFace */\n      0x0120\n      dup2\n      add\n        /* \"src/Traits.sol\":1042:15231  contract Traits is ITraits {... */\n      dup1\n      mload\n      0x14\n      dup2\n      lt\n      iszero\n      tag_63\n      jumpi\n        /* \"src/Traits.sol\":8165:8200  traits.maleFace == E_Male_Face.None */\n      iszero\n        /* \"src/Traits.sol\":8161:8209  if (traits.maleFace == E_Male_Face.None) return; */\n      tag_587\n      jumpi\n        /* \"src/Traits.sol\":1042:15231  contract Traits is ITraits {... */\n      mload\n      0x14\n      dup2\n      lt\n      iszero\n      tag_63\n      jumpi\n      tag_745\n      tag_9\n      jump\t// in\n    tag_745:\n      0xff\n        /* \"src/Traits.sol\":14700:14768  _traits.traitsToRender[_traits.traitsToRenderLength] = traitToRender */\n      tag_581\n        /* \"src/Traits.sol\":1042:15231  contract Traits is ITraits {... */\n      swap3\n        /* \"src/Traits.sol\":8244:8273  E_TraitsGroup.Male_Face_Group */\n      0x04\n        /* \"src/Traits.sol\":1042:15231  contract Traits is ITraits {... */\n      dup4\n      mstore\n      and\n        /* \"src/Traits.sol\":14602:14626  traitToRender.traitIndex */\n      0x20\n      dup3\n      add\n        /* \"src/Traits.sol\":1042:15231  contract Traits is ITraits {... */\n      mstore\n      0x00\n        /* \"src/Traits.sol\":14650:14673  traitToRender.hasFiller */\n      0x40\n      dup3\n      add\n        /* \"src/Traits.sol\":1042:15231  contract Traits is ITraits {... */\n      mstore\n        /* \"src/Traits.sol\":14602:14626  traitToRender.traitIndex */\n      0x20\n        /* \"src/Traits.sol\":14700:14722  _traits.traitsToRender */\n      dup4\n      mload\n        /* \"src/Traits.sol\":14723:14751  _traits.traitsToRenderLength */\n      swap4\n      add\n        /* \"src/Traits.sol\":1042:15231  contract Traits is ITraits {... */\n      swap3\n      0xff\n      dup5\n      mload\n      and\n        /* \"src/Traits.sol\":14700:14768  _traits.traitsToRender[_traits.traitsToRenderLength] = traitToRender */\n      swap2\n      tag_243\n      dup4\n      dup4\n      tag_36\n      jump\t// in\n        /* \"src/Traits.sol\":8311:8535  function _addMaleChain(TraitsContext memory traits) internal pure {... */\n    tag_26:\n        /* \"src/Traits.sol\":8391:8407  traits.maleChain */\n      0x0140\n      dup2\n      add\n        /* \"src/Traits.sol\":1042:15231  contract Traits is ITraits {... */\n      dup1\n      mload\n      tag_752\n      dup2\n      tag_3\n      jump\t// in\n    tag_752:\n      tag_753\n      dup2\n      tag_3\n      jump\t// in\n    tag_753:\n        /* \"src/Traits.sol\":8391:8428  traits.maleChain == E_Male_Chain.None */\n      iszero\n        /* \"src/Traits.sol\":8387:8437  if (traits.maleChain == E_Male_Chain.None) return; */\n      tag_587\n      jumpi\n        /* \"src/Traits.sol\":1042:15231  contract Traits is ITraits {... */\n      mload\n      tag_756\n      dup2\n      tag_3\n      jump\t// in\n    tag_756:\n      tag_757\n      dup2\n      tag_3\n      jump\t// in\n    tag_757:\n      tag_758\n      tag_9\n      jump\t// in\n    tag_758:\n      0xff\n        /* \"src/Traits.sol\":14700:14768  _traits.traitsToRender[_traits.traitsToRenderLength] = traitToRender */\n      tag_581\n        /* \"src/Traits.sol\":1042:15231  contract Traits is ITraits {... */\n      swap3\n        /* \"src/Traits.sol\":8472:8502  E_TraitsGroup.Male_Chain_Group */\n      0x05\n        /* \"src/Traits.sol\":1042:15231  contract Traits is ITraits {... */\n      dup4\n      mstore\n      and\n        /* \"src/Traits.sol\":14602:14626  traitToRender.traitIndex */\n      0x20\n      dup3\n      add\n        /* \"src/Traits.sol\":1042:15231  contract Traits is ITraits {... */\n      mstore\n      0x00\n        /* \"src/Traits.sol\":14650:14673  traitToRender.hasFiller */\n      0x40\n      dup3\n      add\n        /* \"src/Traits.sol\":1042:15231  contract Traits is ITraits {... */\n      mstore\n        /* \"src/Traits.sol\":14602:14626  traitToRender.traitIndex */\n      0x20\n        /* \"src/Traits.sol\":14700:14722  _traits.traitsToRender */\n      dup4\n      mload\n        /* \"src/Traits.sol\":14723:14751  _traits.traitsToRenderLength */\n      swap4\n      add\n        /* \"src/Traits.sol\":1042:15231  contract Traits is ITraits {... */\n      swap3\n      0xff\n      dup5\n      mload\n      and\n        /* \"src/Traits.sol\":14700:14768  _traits.traitsToRender[_traits.traitsToRenderLength] = traitToRender */\n      swap2\n      tag_243\n      dup4\n      dup4\n      tag_36\n      jump\t// in\n        /* \"src/Traits.sol\":8771:9005  function _addMaleEarring(TraitsContext memory traits) internal pure {... */\n    tag_27:\n        /* \"src/Traits.sol\":8853:8871  traits.maleEarring */\n      0x0160\n      dup2\n      add\n        /* \"src/Traits.sol\":1042:15231  contract Traits is ITraits {... */\n      dup1\n      mload\n      tag_765\n      dup2\n      tag_3\n      jump\t// in\n    tag_765:\n      tag_766\n      dup2\n      tag_3\n      jump\t// in\n    tag_766:\n        /* \"src/Traits.sol\":8853:8894  traits.maleEarring == E_Male_Earring.None */\n      iszero\n        /* \"src/Traits.sol\":8849:8903  if (traits.maleEarring == E_Male_Earring.None) return; */\n      tag_587\n      jumpi\n        /* \"src/Traits.sol\":1042:15231  contract Traits is ITraits {... */\n      mload\n      tag_769\n      dup2\n      tag_3\n      jump\t// in\n    tag_769:\n      tag_770\n      dup2\n      tag_3\n      jump\t// in\n    tag_770:\n      tag_771\n      tag_9\n      jump\t// in\n    tag_771:\n      0xff\n        /* \"src/Traits.sol\":14700:14768  _traits.traitsToRender[_traits.traitsToRenderLength] = traitToRender */\n      tag_581\n        /* \"src/Traits.sol\":1042:15231  contract Traits is ITraits {... */\n      swap3\n        /* \"src/Traits.sol\":8938:8970  E_TraitsGroup.Male_Earring_Group */\n      0x06\n        /* \"src/Traits.sol\":1042:15231  contract Traits is ITraits {... */\n      dup4\n      mstore\n      and\n        /* \"src/Traits.sol\":14602:14626  traitToRender.traitIndex */\n      0x20\n      dup3\n      add\n        /* \"src/Traits.sol\":1042:15231  contract Traits is ITraits {... */\n      mstore\n      0x00\n        /* \"src/Traits.sol\":14650:14673  traitToRender.hasFiller */\n      0x40\n      dup3\n      add\n        /* \"src/Traits.sol\":1042:15231  contract Traits is ITraits {... */\n      mstore\n        /* \"src/Traits.sol\":14602:14626  traitToRender.traitIndex */\n      0x20\n        /* \"src/Traits.sol\":14700:14722  _traits.traitsToRender */\n      dup4\n      mload\n        /* \"src/Traits.sol\":14723:14751  _traits.traitsToRenderLength */\n      swap4\n      add\n        /* \"src/Traits.sol\":1042:15231  contract Traits is ITraits {... */\n      swap3\n      0xff\n      dup5\n      mload\n      and\n        /* \"src/Traits.sol\":14700:14768  _traits.traitsToRender[_traits.traitsToRenderLength] = traitToRender */\n      swap2\n      tag_243\n      dup4\n      dup4\n      tag_36\n      jump\t// in\n        /* \"src/Traits.sol\":9268:9487  function _addMaleMask(TraitsContext memory traits) internal pure {... */\n    tag_28:\n        /* \"src/Traits.sol\":9347:9362  traits.maleMask */\n      0x01c0\n      dup2\n      add\n        /* \"src/Traits.sol\":1042:15231  contract Traits is ITraits {... */\n      dup1\n      mload\n      0x16\n      dup2\n      lt\n      iszero\n      tag_63\n      jumpi\n        /* \"src/Traits.sol\":9347:9382  traits.maleMask == E_Male_Mask.None */\n      iszero\n        /* \"src/Traits.sol\":9343:9391  if (traits.maleMask == E_Male_Mask.None) return; */\n      tag_587\n      jumpi\n        /* \"src/Traits.sol\":1042:15231  contract Traits is ITraits {... */\n      mload\n      0x16\n      dup2\n      lt\n      iszero\n      tag_63\n      jumpi\n      tag_784\n      tag_9\n      jump\t// in\n    tag_784:\n      0xff\n        /* \"src/Traits.sol\":14700:14768  _traits.traitsToRender[_traits.traitsToRenderLength] = traitToRender */\n      tag_581\n        /* \"src/Traits.sol\":1042:15231  contract Traits is ITraits {... */\n      swap3\n        /* \"src/Traits.sol\":9426:9455  E_TraitsGroup.Male_Mask_Group */\n      0x08\n        /* \"src/Traits.sol\":1042:15231  contract Traits is ITraits {... */\n      dup4\n      mstore\n      and\n        /* \"src/Traits.sol\":14602:14626  traitToRender.traitIndex */\n      0x20\n      dup3\n      add\n        /* \"src/Traits.sol\":1042:15231  contract Traits is ITraits {... */\n      mstore\n      0x00\n        /* \"src/Traits.sol\":14650:14673  traitToRender.hasFiller */\n      0x40\n      dup3\n      add\n        /* \"src/Traits.sol\":1042:15231  contract Traits is ITraits {... */\n      mstore\n        /* \"src/Traits.sol\":14602:14626  traitToRender.traitIndex */\n      0x20\n        /* \"src/Traits.sol\":14700:14722  _traits.traitsToRender */\n      dup4\n      mload\n        /* \"src/Traits.sol\":14723:14751  _traits.traitsToRenderLength */\n      swap4\n      add\n        /* \"src/Traits.sol\":1042:15231  contract Traits is ITraits {... */\n      swap3\n      0xff\n      dup5\n      mload\n      and\n        /* \"src/Traits.sol\":14700:14768  _traits.traitsToRender[_traits.traitsToRenderLength] = traitToRender */\n      swap2\n      tag_243\n      dup4\n      dup4\n      tag_36\n      jump\t// in\n        /* \"src/Traits.sol\":9011:9262  function _addMaleFacialHair(TraitsContext memory traits) internal pure {... */\n    tag_29:\n        /* \"src/Traits.sol\":9096:9117  traits.maleFacialHair */\n      0x01a0\n      dup2\n      add\n        /* \"src/Traits.sol\":1042:15231  contract Traits is ITraits {... */\n      dup1\n      mload\n      0x58\n      dup2\n      lt\n      iszero\n      tag_63\n      jumpi\n        /* \"src/Traits.sol\":9096:9144  traits.maleFacialHair == E_Male_Facial_Hair.None */\n      iszero\n        /* \"src/Traits.sol\":9092:9153  if (traits.maleFacialHair == E_Male_Facial_Hair.None) return; */\n      tag_587\n      jumpi\n        /* \"src/Traits.sol\":1042:15231  contract Traits is ITraits {... */\n      mload\n      0x58\n      dup2\n      lt\n      iszero\n      tag_63\n      jumpi\n      tag_797\n      tag_9\n      jump\t// in\n    tag_797:\n      0xff\n        /* \"src/Traits.sol\":14700:14768  _traits.traitsToRender[_traits.traitsToRenderLength] = traitToRender */\n      tag_581\n        /* \"src/Traits.sol\":1042:15231  contract Traits is ITraits {... */\n      swap3\n        /* \"src/Traits.sol\":9188:9224  E_TraitsGroup.Male_Facial_Hair_Group */\n      0x07\n        /* \"src/Traits.sol\":1042:15231  contract Traits is ITraits {... */\n      dup4\n      mstore\n      and\n        /* \"src/Traits.sol\":14602:14626  traitToRender.traitIndex */\n      0x20\n      dup3\n      add\n        /* \"src/Traits.sol\":1042:15231  contract Traits is ITraits {... */\n      mstore\n      0x00\n        /* \"src/Traits.sol\":14650:14673  traitToRender.hasFiller */\n      0x40\n      dup3\n      add\n        /* \"src/Traits.sol\":1042:15231  contract Traits is ITraits {... */\n      mstore\n        /* \"src/Traits.sol\":14602:14626  traitToRender.traitIndex */\n      0x20\n        /* \"src/Traits.sol\":14700:14722  _traits.traitsToRender */\n      dup4\n      mload\n        /* \"src/Traits.sol\":14723:14751  _traits.traitsToRenderLength */\n      swap4\n      add\n        /* \"src/Traits.sol\":1042:15231  contract Traits is ITraits {... */\n      swap3\n      0xff\n      dup5\n      mload\n      and\n        /* \"src/Traits.sol\":14700:14768  _traits.traitsToRender[_traits.traitsToRenderLength] = traitToRender */\n      swap2\n      tag_243\n      dup4\n      dup4\n      tag_36\n      jump\t// in\n        /* \"src/Traits.sol\":8541:8765  function _addMaleScarf(TraitsContext memory traits) internal pure {... */\n    tag_30:\n        /* \"src/Traits.sol\":8621:8637  traits.maleScarf */\n      0x0180\n      dup2\n      add\n        /* \"src/Traits.sol\":1042:15231  contract Traits is ITraits {... */\n      dup1\n      mload\n      tag_804\n      dup2\n      tag_4\n      jump\t// in\n    tag_804:\n      tag_805\n      dup2\n      tag_4\n      jump\t// in\n    tag_805:\n        /* \"src/Traits.sol\":8621:8658  traits.maleScarf == E_Male_Scarf.None */\n      iszero\n        /* \"src/Traits.sol\":8617:8667  if (traits.maleScarf == E_Male_Scarf.None) return; */\n      tag_587\n      jumpi\n        /* \"src/Traits.sol\":1042:15231  contract Traits is ITraits {... */\n      mload\n      tag_808\n      dup2\n      tag_4\n      jump\t// in\n    tag_808:\n      tag_809\n      dup2\n      tag_4\n      jump\t// in\n    tag_809:\n      tag_810\n      tag_9\n      jump\t// in\n    tag_810:\n      0xff\n        /* \"src/Traits.sol\":14700:14768  _traits.traitsToRender[_traits.traitsToRenderLength] = traitToRender */\n      tag_581\n        /* \"src/Traits.sol\":1042:15231  contract Traits is ITraits {... */\n      swap3\n        /* \"src/Traits.sol\":8702:8732  E_TraitsGroup.Male_Scarf_Group */\n      0x09\n        /* \"src/Traits.sol\":1042:15231  contract Traits is ITraits {... */\n      dup4\n      mstore\n      and\n        /* \"src/Traits.sol\":14602:14626  traitToRender.traitIndex */\n      0x20\n      dup3\n      add\n        /* \"src/Traits.sol\":1042:15231  contract Traits is ITraits {... */\n      mstore\n      0x00\n        /* \"src/Traits.sol\":14650:14673  traitToRender.hasFiller */\n      0x40\n      dup3\n      add\n        /* \"src/Traits.sol\":1042:15231  contract Traits is ITraits {... */\n      mstore\n        /* \"src/Traits.sol\":14602:14626  traitToRender.traitIndex */\n      0x20\n        /* \"src/Traits.sol\":14700:14722  _traits.traitsToRender */\n      dup4\n      mload\n        /* \"src/Traits.sol\":14723:14751  _traits.traitsToRenderLength */\n      swap4\n      add\n        /* \"src/Traits.sol\":1042:15231  contract Traits is ITraits {... */\n      swap3\n      0xff\n      dup5\n      mload\n      and\n        /* \"src/Traits.sol\":14700:14768  _traits.traitsToRender[_traits.traitsToRenderLength] = traitToRender */\n      swap2\n      tag_243\n      dup4\n      dup4\n      tag_36\n      jump\t// in\n        /* \"src/Traits.sol\":9493:9712  function _addMaleHair(TraitsContext memory traits) internal pure {... */\n    tag_31:\n        /* \"src/Traits.sol\":9572:9587  traits.maleHair */\n      0x01e0\n      dup2\n      add\n        /* \"src/Traits.sol\":1042:15231  contract Traits is ITraits {... */\n      dup1\n      mload\n      0xd4\n      dup2\n      lt\n      iszero\n      tag_63\n      jumpi\n        /* \"src/Traits.sol\":9572:9607  traits.maleHair == E_Male_Hair.None */\n      iszero\n        /* \"src/Traits.sol\":9568:9616  if (traits.maleHair == E_Male_Hair.None) return; */\n      tag_587\n      jumpi\n        /* \"src/Traits.sol\":1042:15231  contract Traits is ITraits {... */\n      mload\n      0xd4\n      dup2\n      lt\n      iszero\n      tag_63\n      jumpi\n      tag_823\n      tag_9\n      jump\t// in\n    tag_823:\n      0xff\n        /* \"src/Traits.sol\":14700:14768  _traits.traitsToRender[_traits.traitsToRenderLength] = traitToRender */\n      tag_581\n        /* \"src/Traits.sol\":1042:15231  contract Traits is ITraits {... */\n      swap3\n        /* \"src/Traits.sol\":9651:9680  E_TraitsGroup.Male_Hair_Group */\n      0x0a\n        /* \"src/Traits.sol\":1042:15231  contract Traits is ITraits {... */\n      dup4\n      mstore\n      and\n        /* \"src/Traits.sol\":14602:14626  traitToRender.traitIndex */\n      0x20\n      dup3\n      add\n        /* \"src/Traits.sol\":1042:15231  contract Traits is ITraits {... */\n      mstore\n      0x00\n        /* \"src/Traits.sol\":14650:14673  traitToRender.hasFiller */\n      0x40\n      dup3\n      add\n        /* \"src/Traits.sol\":1042:15231  contract Traits is ITraits {... */\n      mstore\n        /* \"src/Traits.sol\":14602:14626  traitToRender.traitIndex */\n      0x20\n        /* \"src/Traits.sol\":14700:14722  _traits.traitsToRender */\n      dup4\n      mload\n        /* \"src/Traits.sol\":14723:14751  _traits.traitsToRenderLength */\n      swap4\n      add\n        /* \"src/Traits.sol\":1042:15231  contract Traits is ITraits {... */\n      swap3\n      0xff\n      dup5\n      mload\n      and\n        /* \"src/Traits.sol\":14700:14768  _traits.traitsToRender[_traits.traitsToRenderLength] = traitToRender */\n      swap2\n      tag_243\n      dup4\n      dup4\n      tag_36\n      jump\t// in\n        /* \"src/Traits.sol\":9718:9954  function _addMaleHatHair(TraitsContext memory traits) internal pure {... */\n    tag_32:\n        /* \"src/Traits.sol\":9800:9818  traits.maleHatHair */\n      0x0200\n      dup2\n      add\n        /* \"src/Traits.sol\":1042:15231  contract Traits is ITraits {... */\n      dup1\n      mload\n      0x6a\n      dup2\n      lt\n      iszero\n      tag_63\n      jumpi\n        /* \"src/Traits.sol\":9800:9842  traits.maleHatHair == E_Male_Hat_Hair.None */\n      iszero\n        /* \"src/Traits.sol\":9796:9851  if (traits.maleHatHair == E_Male_Hat_Hair.None) return; */\n      tag_587\n      jumpi\n        /* \"src/Traits.sol\":1042:15231  contract Traits is ITraits {... */\n      mload\n      0x6a\n      dup2\n      lt\n      iszero\n      tag_63\n      jumpi\n      tag_836\n      tag_9\n      jump\t// in\n    tag_836:\n      0xff\n        /* \"src/Traits.sol\":14700:14768  _traits.traitsToRender[_traits.traitsToRenderLength] = traitToRender */\n      tag_581\n        /* \"src/Traits.sol\":1042:15231  contract Traits is ITraits {... */\n      swap3\n        /* \"src/Traits.sol\":9886:9919  E_TraitsGroup.Male_Hat_Hair_Group */\n      0x0b\n        /* \"src/Traits.sol\":1042:15231  contract Traits is ITraits {... */\n      dup4\n      mstore\n      and\n        /* \"src/Traits.sol\":14602:14626  traitToRender.traitIndex */\n      0x20\n      dup3\n      add\n        /* \"src/Traits.sol\":1042:15231  contract Traits is ITraits {... */\n      mstore\n      0x00\n        /* \"src/Traits.sol\":14650:14673  traitToRender.hasFiller */\n      0x40\n      dup3\n      add\n        /* \"src/Traits.sol\":1042:15231  contract Traits is ITraits {... */\n      mstore\n        /* \"src/Traits.sol\":14602:14626  traitToRender.traitIndex */\n      0x20\n        /* \"src/Traits.sol\":14700:14722  _traits.traitsToRender */\n      dup4\n      mload\n        /* \"src/Traits.sol\":14723:14751  _traits.traitsToRenderLength */\n      swap4\n      add\n        /* \"src/Traits.sol\":1042:15231  contract Traits is ITraits {... */\n      swap3\n      0xff\n      dup5\n      mload\n      and\n        /* \"src/Traits.sol\":14700:14768  _traits.traitsToRender[_traits.traitsToRenderLength] = traitToRender */\n      swap2\n      tag_243\n      dup4\n      dup4\n      tag_36\n      jump\t// in\n        /* \"src/Traits.sol\":9960:10661  function _addMaleHeadwear(TraitsContext memory traits) internal pure {... */\n    tag_33:\n        /* \"src/Traits.sol\":10043:10062  traits.maleHeadwear */\n      0x0220\n      dup2\n      add\n        /* \"src/Traits.sol\":1042:15231  contract Traits is ITraits {... */\n      dup1\n      mload\n      0xa9\n      dup2\n      lt\n      iszero\n      tag_63\n      jumpi\n        /* \"src/Traits.sol\":10043:10086  traits.maleHeadwear == E_Male_Headwear.None */\n      iszero\n        /* \"src/Traits.sol\":10039:10095  if (traits.maleHeadwear == E_Male_Headwear.None) return; */\n      tag_587\n      jumpi\n        /* \"src/Traits.sol\":1042:15231  contract Traits is ITraits {... */\n      mload\n      swap1\n      0xa9\n      dup3\n      lt\n      iszero\n      tag_63\n      jumpi\n      tag_849\n      tag_9\n      jump\t// in\n    tag_849:\n      swap2\n      0xff\n      swap1\n        /* \"src/Traits.sol\":10131:10164  E_TraitsGroup.Male_Headwear_Group */\n      0x0c\n        /* \"src/Traits.sol\":1042:15231  contract Traits is ITraits {... */\n      dup5\n      mstore\n      and\n        /* \"src/Traits.sol\":14602:14626  traitToRender.traitIndex */\n      0x20\n      dup4\n      add\n        /* \"src/Traits.sol\":1042:15231  contract Traits is ITraits {... */\n      mstore\n      0x00\n        /* \"src/Traits.sol\":14650:14673  traitToRender.hasFiller */\n      0x40\n      dup4\n      add\n        /* \"src/Traits.sol\":1042:15231  contract Traits is ITraits {... */\n      mstore\n        /* \"src/Traits.sol\":14700:14768  _traits.traitsToRender[_traits.traitsToRenderLength] = traitToRender */\n      tag_852\n        /* \"src/Traits.sol\":14700:14722  _traits.traitsToRender */\n      dup2\n      mload\n        /* \"src/Traits.sol\":14723:14751  _traits.traitsToRenderLength */\n      swap3\n        /* \"src/Traits.sol\":14602:14626  traitToRender.traitIndex */\n      0x20\n        /* \"src/Traits.sol\":14723:14751  _traits.traitsToRenderLength */\n      dup4\n      add\n        /* \"src/Traits.sol\":1042:15231  contract Traits is ITraits {... */\n      swap4\n      0xff\n      dup6\n      mload\n      and\n        /* \"src/Traits.sol\":14700:14768  _traits.traitsToRender[_traits.traitsToRenderLength] = traitToRender */\n      swap2\n      tag_243\n      dup4\n      dup4\n      tag_36\n      jump\t// in\n    tag_852:\n      pop\n        /* \"src/Traits.sol\":1042:15231  contract Traits is ITraits {... */\n      0xff\n      dup3\n      mload\n      and\n      0xff\n      dup2\n      eq\n      tag_244\n      jumpi\n      0x01\n      add\n      0xff\n      and\n      dup3\n      mstore\n        /* \"src/Traits.sol\":10295:10310  traits.maleSkin */\n      0xe0\n      dup2\n      add\n        /* \"src/Traits.sol\":1042:15231  contract Traits is ITraits {... */\n      dup1\n      mload\n      0x1d\n      dup2\n      lt\n      iszero\n      tag_63\n      jumpi\n        /* \"src/Traits.sol\":10314:10331  E_Male_Skin.Robot */\n      0x16\n        /* \"src/Traits.sol\":10295:10331  traits.maleSkin == E_Male_Skin.Robot */\n      eq\n        /* \"src/Traits.sol\":10291:10466  if (traits.maleSkin == E_Male_Skin.Robot) {... */\n      tag_858\n      jumpi\n        /* \"src/Traits.sol\":9960:10661  function _addMaleHeadwear(TraitsContext memory traits) internal pure {... */\n    tag_859:\n        /* \"src/Traits.sol\":1042:15231  contract Traits is ITraits {... */\n      mload\n      0x1d\n      dup2\n      lt\n      iszero\n      tag_63\n      jumpi\n        /* \"src/Traits.sol\":10499:10518  E_Male_Skin.Pumpkin */\n      0x15\n        /* \"src/Traits.sol\":10480:10518  traits.maleSkin == E_Male_Skin.Pumpkin */\n      eq\n        /* \"src/Traits.sol\":10476:10655  if (traits.maleSkin == E_Male_Skin.Pumpkin) {... */\n      tag_862\n      jumpi\n        /* \"src/Traits.sol\":9960:10661  function _addMaleHeadwear(TraitsContext memory traits) internal pure {... */\n      pop\n      pop\n      jump\t// out\n        /* \"src/Traits.sol\":10476:10655  if (traits.maleSkin == E_Male_Skin.Pumpkin) {... */\n    tag_862:\n        /* \"src/Traits.sol\":1042:15231  contract Traits is ITraits {... */\n      tag_864\n      tag_8\n      jump\t// in\n    tag_864:\n      swap2\n        /* \"src/Traits.sol\":10558:10591  E_TraitsGroup.Filler_Traits_Group */\n      0x1a\n        /* \"src/Traits.sol\":1042:15231  contract Traits is ITraits {... */\n      dup4\n      mstore\n        /* \"src/Traits.sol\":10599:10642  E_Filler_Traits.Male_Pumpkin_Headwear_Cover */\n      0x02\n        /* \"src/Traits.sol\":14602:14626  traitToRender.traitIndex */\n      0x20\n        /* \"src/Traits.sol\":15022:15039  filler.traitIndex */\n      dup5\n      add\n        /* \"src/Traits.sol\":1042:15231  contract Traits is ITraits {... */\n      mstore\n      0xff\n        /* \"src/common/Enums.sol\":125:127  16 */\n      not(0x00)\n        /* \"src/Traits.sol\":1042:15231  contract Traits is ITraits {... */\n      swap2\n      mload\n      and\n      add\n      0xff\n      dup2\n      gt\n      tag_244\n      jumpi\n        /* \"src/Traits.sol\":15179:15213  _traits.traitsToRender[idx].filler */\n      0x60\n        /* \"src/Traits.sol\":1042:15231  contract Traits is ITraits {... */\n      swap2\n      0xff\n        /* \"src/Traits.sol\":15179:15206  _traits.traitsToRender[idx] */\n      tag_711\n        /* \"src/Traits.sol\":1042:15231  contract Traits is ITraits {... */\n      swap3\n      and\n        /* \"src/Traits.sol\":15125:15147  _traits.traitsToRender */\n      swap1\n        /* \"src/Traits.sol\":1042:15231  contract Traits is ITraits {... */\n      0x01\n        /* \"src/Traits.sol\":14650:14673  traitToRender.hasFiller */\n      0x40\n        /* \"src/Traits.sol\":15125:15152  _traits.traitsToRender[idx] */\n      tag_712\n        /* \"src/Traits.sol\":15125:15147  _traits.traitsToRender */\n      dup5\n      dup5\n      mload\n        /* \"src/Traits.sol\":15125:15152  _traits.traitsToRender[idx] */\n      tag_36\n      jump\t// in\n        /* \"src/Traits.sol\":10291:10466  if (traits.maleSkin == E_Male_Skin.Robot) {... */\n    tag_858:\n        /* \"src/Traits.sol\":1042:15231  contract Traits is ITraits {... */\n      tag_871\n      tag_8\n      jump\t// in\n    tag_871:\n        /* \"src/Traits.sol\":10371:10404  E_TraitsGroup.Filler_Traits_Group */\n      0x1a\n        /* \"src/Traits.sol\":1042:15231  contract Traits is ITraits {... */\n      dup2\n      mstore\n        /* \"src/Traits.sol\":10412:10453  E_Filler_Traits.Male_Robot_Headwear_Cover */\n      0x03\n        /* \"src/Traits.sol\":14602:14626  traitToRender.traitIndex */\n      0x20\n        /* \"src/Traits.sol\":15022:15039  filler.traitIndex */\n      dup3\n      add\n        /* \"src/Traits.sol\":1042:15231  contract Traits is ITraits {... */\n      mstore\n        /* \"src/common/Enums.sol\":125:127  16 */\n      not(0x00)\n        /* \"src/Traits.sol\":1042:15231  contract Traits is ITraits {... */\n      0xff\n      dup6\n      mload\n      and\n      add\n      0xff\n      dup2\n      gt\n      tag_244\n      jumpi\n        /* \"src/Traits.sol\":15179:15206  _traits.traitsToRender[idx] */\n      tag_876\n        /* \"src/Traits.sol\":1042:15231  contract Traits is ITraits {... */\n      0xff\n        /* \"src/Traits.sol\":15179:15213  _traits.traitsToRender[idx].filler */\n      0x60\n        /* \"src/Traits.sol\":1042:15231  contract Traits is ITraits {... */\n      swap3\n      and\n      0x01\n        /* \"src/Traits.sol\":14650:14673  traitToRender.hasFiller */\n      0x40\n        /* \"src/Traits.sol\":15125:15152  _traits.traitsToRender[idx] */\n      tag_877\n        /* \"src/Traits.sol\":15125:15147  _traits.traitsToRender */\n      dup4\n      dup10\n      mload\n        /* \"src/Traits.sol\":15125:15152  _traits.traitsToRender[idx] */\n      tag_36\n      jump\t// in\n    tag_877:\n      mload\n        /* \"src/Traits.sol\":15125:15162  _traits.traitsToRender[idx].hasFiller */\n      add\n        /* \"src/Traits.sol\":1042:15231  contract Traits is ITraits {... */\n      mstore\n        /* \"src/Traits.sol\":15179:15201  _traits.traitsToRender */\n      dup6\n      mload\n        /* \"src/Traits.sol\":15179:15206  _traits.traitsToRender[idx] */\n      tag_36\n      jump\t// in\n    tag_876:\n      mload\n        /* \"src/Traits.sol\":15179:15213  _traits.traitsToRender[idx].filler */\n      add\n        /* \"src/Traits.sol\":15179:15222  _traits.traitsToRender[idx].filler = filler */\n      mstore\n        /* \"src/Traits.sol\":10291:10466  if (traits.maleSkin == E_Male_Skin.Robot) {... */\n      jump(tag_859)\n        /* \"src/Traits.sol\":10667:10903  function _addMaleEyeWear(TraitsContext memory traits) internal pure {... */\n    tag_34:\n        /* \"src/Traits.sol\":10749:10767  traits.maleEyeWear */\n      0x0240\n      dup2\n      add\n        /* \"src/Traits.sol\":1042:15231  contract Traits is ITraits {... */\n      dup1\n      mload\n      0x80\n      dup2\n      lt\n      iszero\n      tag_63\n      jumpi\n        /* \"src/Traits.sol\":10749:10791  traits.maleEyeWear == E_Male_Eye_Wear.None */\n      iszero\n        /* \"src/Traits.sol\":10745:10800  if (traits.maleEyeWear == E_Male_Eye_Wear.None) return; */\n      tag_587\n      jumpi\n        /* \"src/Traits.sol\":1042:15231  contract Traits is ITraits {... */\n      mload\n      0x80\n      dup2\n      lt\n      iszero\n      tag_63\n      jumpi\n      tag_884\n      tag_9\n      jump\t// in\n    tag_884:\n      0xff\n        /* \"src/Traits.sol\":14700:14768  _traits.traitsToRender[_traits.traitsToRenderLength] = traitToRender */\n      tag_581\n        /* \"src/Traits.sol\":1042:15231  contract Traits is ITraits {... */\n      swap3\n        /* \"src/Traits.sol\":10835:10868  E_TraitsGroup.Male_Eye_Wear_Group */\n      0x0d\n        /* \"src/Traits.sol\":1042:15231  contract Traits is ITraits {... */\n      dup4\n      mstore\n      and\n        /* \"src/Traits.sol\":14602:14626  traitToRender.traitIndex */\n      0x20\n      dup3\n      add\n        /* \"src/Traits.sol\":1042:15231  contract Traits is ITraits {... */\n      mstore\n      0x00\n        /* \"src/Traits.sol\":14650:14673  traitToRender.hasFiller */\n      0x40\n      dup3\n      add\n        /* \"src/Traits.sol\":1042:15231  contract Traits is ITraits {... */\n      mstore\n        /* \"src/Traits.sol\":14602:14626  traitToRender.traitIndex */\n      0x20\n        /* \"src/Traits.sol\":14700:14722  _traits.traitsToRender */\n      dup4\n      mload\n        /* \"src/Traits.sol\":14723:14751  _traits.traitsToRenderLength */\n      swap4\n      add\n        /* \"src/Traits.sol\":1042:15231  contract Traits is ITraits {... */\n      swap3\n      0xff\n      dup5\n      mload\n      and\n        /* \"src/Traits.sol\":14700:14768  _traits.traitsToRender[_traits.traitsToRenderLength] = traitToRender */\n      swap2\n      tag_243\n      dup4\n      dup4\n      tag_36\n      jump\t// in\n        /* \"src/Traits.sol\":13808:14010  function _addMouth(TraitsContext memory traits) internal pure {... */\n    tag_35:\n        /* \"src/Traits.sol\":13884:13896  traits.mouth */\n      0x03c0\n      dup2\n      add\n        /* \"src/Traits.sol\":1042:15231  contract Traits is ITraits {... */\n      dup1\n      mload\n      tag_891\n      dup2\n      tag_2\n      jump\t// in\n    tag_891:\n      tag_892\n      dup2\n      tag_2\n      jump\t// in\n    tag_892:\n        /* \"src/Traits.sol\":13884:13912  traits.mouth == E_Mouth.None */\n      iszero\n        /* \"src/Traits.sol\":13880:13921  if (traits.mouth == E_Mouth.None) return; */\n      tag_587\n      jumpi\n        /* \"src/Traits.sol\":1042:15231  contract Traits is ITraits {... */\n      mload\n      tag_895\n      dup2\n      tag_2\n      jump\t// in\n    tag_895:\n      tag_896\n      dup2\n      tag_2\n      jump\t// in\n    tag_896:\n      tag_897\n      tag_9\n      jump\t// in\n    tag_897:\n      0xff\n        /* \"src/Traits.sol\":14700:14768  _traits.traitsToRender[_traits.traitsToRenderLength] = traitToRender */\n      tag_581\n        /* \"src/Traits.sol\":1042:15231  contract Traits is ITraits {... */\n      swap3\n        /* \"src/Traits.sol\":13956:13981  E_TraitsGroup.Mouth_Group */\n      0x19\n        /* \"src/Traits.sol\":1042:15231  contract Traits is ITraits {... */\n      dup4\n      mstore\n      and\n        /* \"src/Traits.sol\":14602:14626  traitToRender.traitIndex */\n      0x20\n      dup3\n      add\n        /* \"src/Traits.sol\":1042:15231  contract Traits is ITraits {... */\n      mstore\n      0x00\n        /* \"src/Traits.sol\":14650:14673  traitToRender.hasFiller */\n      0x40\n      dup3\n      add\n        /* \"src/Traits.sol\":1042:15231  contract Traits is ITraits {... */\n      mstore\n        /* \"src/Traits.sol\":14602:14626  traitToRender.traitIndex */\n      0x20\n        /* \"src/Traits.sol\":14700:14722  _traits.traitsToRender */\n      dup4\n      mload\n        /* \"src/Traits.sol\":14723:14751  _traits.traitsToRenderLength */\n      swap4\n      add\n        /* \"src/Traits.sol\":1042:15231  contract Traits is ITraits {... */\n      swap3\n      0xff\n      dup5\n      mload\n      and\n        /* \"src/Traits.sol\":14700:14768  _traits.traitsToRender[_traits.traitsToRenderLength] = traitToRender */\n      swap2\n      tag_243\n      dup4\n      dup4\n        /* \"src/Traits.sol\":1042:15231  contract Traits is ITraits {... */\n    tag_36:\n      dup1\n      mload\n      dup3\n      lt\n      iszero\n      tag_904\n      jumpi\n      0x20\n      swap2\n      0x05\n      shl\n      add\n      add\n      swap1\n      jump\t// out\n    tag_904:\n      mstore(0x00, shl(0xe0, 0x4e487b71))\n      mstore(0x04, 0x32)\n      revert(0x00, 0x24)\n\n    auxdata: 0xa2646970667358221220f27183b498910697822909c8179c8b896ab9a7f893b44f50de6a33f518b35cbf64736f6c634300081e0033\n}\n",
				"bytecode": {
					"linkReferences": {},
					"object": "60c03461009f57601f61212238819003918201601f19168301916001600160401b038311848410176100a357808492604094855283398101031261009f578051906001600160a01b038216820361009f5760200151906001600160a01b038216820361009f5760805260a05260405161206a90816100b8823960805181818160ec015281816107490152610b41015260a05181818160ab0152610f410152f35b5f80fd5b634e487b7160e01b5f52604160045260245ffdfe6080806040526004361015610012575f80fd5b5f3560e01c908163033b42a8146100da57508063069157c0146100965763609574b51461003d575f80fd5b346100925760603660031901126100925760043561ffff811681036100925760243560ff811681036100925761008e9161007a91604435916105e6565b60405191829160208352602083019061015a565b0390f35b5f80fd5b34610092575f366003190112610092576040517f00000000000000000000000000000000000000000000000000000000000000006001600160a01b03168152602090f35b34610092575f366003190112610092577f00000000000000000000000000000000000000000000000000000000000000006001600160a01b03168152602090f35b90601b8210156101285752565b634e487b7160e01b5f52602160045260245ffd5b6017111561012857565b6009111561012857565b6004111561012857565b906103e08101918051926103e083528351809152602061040084019401905f5b8181106103da5750505060ff602082015116602083015261ffff604082015116604083015261ffff606082015116606083015263ffffffff608082015116608083015260a081015160028110156101285760a083015260c081015160058110156101285760c083015260e0810151601d8110156101285760e08301526101008101516102058161013c565b61010083015261012081015160148110156101285761012083015261014081015161022f81610146565b61014083015261016081015161024481610146565b61016083015261018081015161025981610150565b6101808301526101a08101516058811015610128576101a08301526101c08101516016811015610128576101c08301526101e081015160d4811015610128576101e0830152610200810151606a8110156101285761020083015261022081015160a981101561012857610220830152610240810151608081101561012857610240830152610260810151601a81101561012857610260830152610280810151601f811015610128576102808301526102a08101516013811015610128576102a08301526102c081015161032b81610146565b6102c08301526102e081015161034081610146565b6102e083015261030081015161035581610150565b61030083015261032081015160158110156101285761032083015261034081015160c3811015610128576103408301526103608101516085811015610128576103608301526103808101516083811015610128576103808301526103a0810151607a811015610128576103a08301526103c090810151916103d58361013c565b015290565b909194602060a060019260ff8360608b516103f685825161011b565b83838201511683860152604081015115156040860152015161041c60608501825161011b565b015116608082015201960192910161017a565b90601f8019910116810190811067ffffffffffffffff82111761045157604052565b634e487b7160e01b5f52604160045260245ffd5b604051906103e0820182811067ffffffffffffffff821117610451576040525f6103c083606081528260208201528260408201528260608201528260808201528260a08201528260c08201528260e08201528261010082015282610120820152826101408201528261016082015282610180820152826101a0820152826101c0820152826101e08201528261020082015282610220820152826102408201528261026082015282610280820152826102a0820152826102c0820152826102e08201528261030082015282610320820152826103408201528261036082015282610380820152826103a08201520152565b604051906040820182811067ffffffffffffffff821117610451576040525f6020838281520152565b604051906080820182811067ffffffffffffffff82111761045157604052815f81525f60208201525f604082015260606105b6610555565b910152565b60058210156101285752565b906105df60209194939460408452604084019061015a565b9351910152565b9190916105f1610465565b50604051916020830183811067ffffffffffffffff821117610451576040525f8352604051602081019161ffff84169361ffff60f01b9060f01b16835260228201526022815261064260428261042f565b519020825261064f610465565b9261020091604051610661848261042f565b600f8152601f1984015f5b818110611683575050855280604086015260108110611668575b505b60208320808452620100008110156106a05750610688565b6301e098d0900663f4865700018063f486570011610c2a5763ffffffff16608085015261ffff6060850151168061156757505b602083208084526126d08110156106ea57506106d3565b612710611d4c9106105f14611560575f5b6002811015610128578060a0860152155f14610f085760ff1660058110156101285761072a9060c085016105bb565b6107338361169a565b6040516309fc036960e21b8152825160048201527f00000000000000000000000000000000000000000000000000000000000000006001600160a01b03169190602081602481865afa908115610c03575f91610ecd575b5060e0850190601d8110156101285781526040516310683b7160e11b8152602081806107ba888a600484016105c7565b0381875afa908115610c03575f91610e92575b506107d78161013c565b61010086015260405163d0d4547f60e01b8152602081806107fc888a600484016105c7565b0381875afa908115610c03575f91610e57575b506014811015610128576101208601526040516332fa6d1d60e21b815284516004820152602081602481875afa908115610c03575f91610e1c575b5061085481610146565b61014086015260405163777dbab960e01b815284516004820152602081602481875afa908115610c03575f91610de1575b5061088f81610146565b610160860152604051638a88645760e01b815291602083806108b5888a600484016105c7565b0381875afa928315610c03575f93610da4575b506101a086019260588110156101285783526040516318412d0360e01b815285516004820152602081602481885afa908115610c03575f91610d69575b506016811015610128576101c0870152604051631b495a2d60e01b815285516004820152602081602481885afa908115610c03575f91610d2e575b5061094a81610150565b6101808701526040516328dcd09560e01b81526020818061096f898b600484016105c7565b0381885afa908115610c03575f91610cf3575b5060d4811015610128576101e0870152604051636177376d60e11b815290602082806109b2898b600484016105c7565b0381885afa918215610c03575f92610cb6575b50606a82101561012857860152604051637c2534b760e01b81528451600482015292602084602481845afa938415610c03575f94610c79575b5061022086019360a9811015610128578452604051634d11b62560e11b81528551600482015290602090829060249082905afa908115610c03575f91610c3e575b5060808110156101285761024086015251601d81101561012857610a6161057e565b9060ff90600283521660208201525f6040820152610a96855191602087019260ff84511691610a90838361200c565b5261200c565b5060ff81511660ff8114610c2a5760010160ff169052610ab584611af6565b610abe84611b5c565b610ac784611bb0565b610ad084611c16565b5160588110156101285715610c1c57610ae883611cd0565b610af183611d24565b5160a981101561012857610b3d9160209115610c0e57610b1084611dde565b610b1984611e32565b610b2284611f56565b60405180938192630b625f9b60e01b835286600484016105c7565b03817f00000000000000000000000000000000000000000000000000000000000000006001600160a01b03165afa908115610c03575f91610bc8575b50610b838161013c565b6103c08201526103208101516015811015610128571580610bb2575b610ba65790565b610baf81611faa565b90565b506101c081015160168110156101285715610b9f565b90506020813d602011610bfb575b81610be36020938361042f565b8101031261009257516017811015610092575f610b79565b3d9150610bd6565b6040513d5f823e3d90fd5b610c1784611d8a565b610b10565b610c2583611c7c565b610ae8565b634e487b7160e01b5f52601160045260245ffd5b90506020813d602011610c71575b81610c596020938361042f565b8101031261009257516080811015610092575f610a3f565b3d9150610c4c565b9093506020813d602011610cae575b81610c956020938361042f565b81010312610092575160a981101561009257925f6109fe565b3d9150610c88565b9091506020813d602011610ceb575b81610cd26020938361042f565b810103126100925751606a81101561009257905f6109c5565b3d9150610cc5565b90506020813d602011610d26575b81610d0e6020938361042f565b81010312610092575160d4811015610092575f610982565b3d9150610d01565b90506020813d602011610d61575b81610d496020938361042f565b8101031261009257516004811015610092575f610940565b3d9150610d3c565b90506020813d602011610d9c575b81610d846020938361042f565b8101031261009257516016811015610092575f610905565b3d9150610d77565b9092506020813d602011610dd9575b81610dc06020938361042f565b810103126100925751605881101561009257915f6108c8565b3d9150610db3565b90506020813d602011610e14575b81610dfc6020938361042f565b8101031261009257516009811015610092575f610885565b3d9150610def565b90506020813d602011610e4f575b81610e376020938361042f565b8101031261009257516009811015610092575f61084a565b3d9150610e2a565b90506020813d602011610e8a575b81610e726020938361042f565b8101031261009257516014811015610092575f61080f565b3d9150610e65565b90506020813d602011610ec5575b81610ead6020938361042f565b8101031261009257516017811015610092575f6107cd565b3d9150610ea0565b90506020813d602011610f00575b81610ee86020938361042f565b810103126100925751601d811015610092575f61078a565b3d9150610edb565b60ff915016600581101561012857610f239060c084016105bb565b610f2c8261169a565b60405162fe954960e01b8152815160048201527f00000000000000000000000000000000000000000000000000000000000000006001600160a01b031690602081602481855afa908115610c03575f91611525575b50610260840190601a8110156101285781526040516304e595ab60e51b815260208180610fb28789600484016105c7565b0381865afa908115610c03575f916114ea575b50601f8110156101285761028085015260405163fb99dc2b60e01b815260208180610ff48789600484016105c7565b0381865afa908115610c03575f916114af575b506013811015610128576102a08501526040516301c0052560e21b815283516004820152602081602481865afa908115610c03575f91611474575b5061104c81610146565b6102c085015260405163d535a07160e01b815283516004820152602081602481865afa908115610c03575f91611439575b5061108781610146565b6102e0850152604051631d6981cd60e31b815283516004820152602081602481865afa908115610c03575f916113fe575b5060158110156101285761032085015260405163367d739360e01b815283516004820152602081602481865afa908115610c03575f916113c3575b506110fd81610150565b61030085015260405163eb3ca1d760e01b8152602081806111228789600484016105c7565b0381865afa908115610c03575f91611388575b5060c38110156101285761034085015260405163b27cf70360e01b8152602081806111648789600484016105c7565b0381865afa908115610c03575f9161134d575b506085811015610128576103608501526040516309d8b84f60e41b81528351600482015291602083602481845afa928315610c03575f93611310575b5061038085019260838110156101285783526040516372d0956760e11b81528451600482015290602090829060249082905afa908115610c03575f916112d5575b50607a811015610128576103a085015251601a8110156101285761121661057e565b9060ff90600e83521660208201525f6040820152611245845191602086019260ff84511691610a90838361200c565b5060ff81511660ff8114610c2a5760010160ff169052611264836116f5565b61126d8361174d565b611276836117a1565b61127f83611807565b6112888361186d565b611291836118c1565b51608381101561012857610b3d91602091156112c7576112b08461197b565b6112b9846119cf565b6112c284611aa2565b610b22565b6112d084611927565b6112b0565b90506020813d602011611308575b816112f06020938361042f565b810103126100925751607a811015610092575f6111f4565b3d91506112e3565b9092506020813d602011611345575b8161132c6020938361042f565b810103126100925751608381101561009257915f6111b3565b3d915061131f565b90506020813d602011611380575b816113686020938361042f565b8101031261009257516085811015610092575f611177565b3d915061135b565b90506020813d6020116113bb575b816113a36020938361042f565b81010312610092575160c3811015610092575f611135565b3d9150611396565b90506020813d6020116113f6575b816113de6020938361042f565b8101031261009257516004811015610092575f6110f3565b3d91506113d1565b90506020813d602011611431575b816114196020938361042f565b8101031261009257516015811015610092575f6110b8565b3d915061140c565b90506020813d60201161146c575b816114546020938361042f565b8101031261009257516009811015610092575f61107d565b3d9150611447565b90506020813d6020116114a7575b8161148f6020938361042f565b8101031261009257516009811015610092575f611042565b3d9150611482565b90506020813d6020116114e2575b816114ca6020938361042f565b8101031261009257516013811015610092575f611007565b3d91506114bd565b90506020813d60201161151d575b816115056020938361042f565b810103126100925751601f811015610092575f610fc5565b3d91506114f8565b90506020813d602011611558575b816115406020938361042f565b810103126100925751601a811015610092575f610f81565b3d9150611533565b60016106fb565b5f19019250905061ffff8211610c2a5761ffff82166004811490811561165d575b8115611652575b8115611647575b811561163c575b8115611631575b8115611626575b506116215760ff166005811015610128576115c99060c084016105bb565b6115d28261169a565b6115da61057e565b9060ff905f83521660208201525f6040820152611608825191602084019260ff84511691610a90838361200c565b5060ff81511660ff8114610c2a5760010160ff16905290565b505090565b600d9150145f6115ab565b600b811491506115a4565b60088114915061159d565b600781149150611596565b60068114915061158f565b600581149150611588565b60010161ffff8111610c2a5761ffff1660608501525f610686565b60209061168e61057e565b8282860101520161066c565b60c08101516005811015610128576116b061057e565b60ff6116dd92600183521660208201525f60408201526020835193019260ff84511691610a90838361200c565b5060ff81511660ff8114610c2a5760010160ff169052565b61028081018051601f81101561012857156117495751601f8110156101285761171c61057e565b60ff6116dd92600f83521660208201525f60408201526020835193019260ff84511691610a90838361200c565b5050565b6102a08101805160138110156101285715611749575160138110156101285761177461057e565b60ff6116dd92601083521660208201525f60408201526020835193019260ff84511691610a90838361200c565b6102c0810180516117b181610146565b6117ba81610146565b1561174957516117c981610146565b6117d281610146565b6117da61057e565b60ff6116dd92601183521660208201525f60408201526020835193019260ff84511691610a90838361200c565b6102e08101805161181781610146565b61182081610146565b15611749575161182f81610146565b61183881610146565b61184061057e565b60ff6116dd92601283521660208201525f60408201526020835193019260ff84511691610a90838361200c565b6103208101805160158110156101285715611749575160158110156101285761189461057e565b60ff6116dd92601383521660208201525f60408201526020835193019260ff84511691610a90838361200c565b610300810180516118d181610150565b6118da81610150565b1561174957516118e981610150565b6118f281610150565b6118fa61057e565b60ff6116dd92601483521660208201525f60408201526020835193019260ff84511691610a90838361200c565b6103408101805160c38110156101285715611749575160c38110156101285761194e61057e565b60ff6116dd92601583521660208201525f60408201526020835193019260ff84511691610a90838361200c565b610360810180516085811015610128571561174957516085811015610128576119a261057e565b60ff6116dd92601683521660208201525f60408201526020835193019260ff84511691610a90838361200c565b61038081018051608381101561012857156117495751906083821015610128576119f761057e565b9160ff90601784521660208301525f6040830152611a26815192602083019360ff85511691610a90838361200c565b5060ff82511660ff8114610c2a5760010160ff168252610260810151601a81101561012857601514611a56575050565b611a5e610555565b91601a83526001602084015260ff5f199151160160ff8111610c2a5760609160ff611a9d92169060016040611a9484845161200c565b5101525161200c565b510152565b6103a081018051607a81101561012857156117495751607a81101561012857611ac961057e565b60ff6116dd92601883521660208201525f60408201526020835193019260ff84511691610a90838361200c565b61010081018051611b068161013c565b611b0f8161013c565b156117495751611b1e8161013c565b611b278161013c565b611b2f61057e565b60ff6116dd92600383521660208201525f60408201526020835193019260ff84511691610a90838361200c565b61012081018051601481101561012857156117495751601481101561012857611b8361057e565b60ff6116dd92600483521660208201525f60408201526020835193019260ff84511691610a90838361200c565b61014081018051611bc081610146565b611bc981610146565b156117495751611bd881610146565b611be181610146565b611be961057e565b60ff6116dd92600583521660208201525f60408201526020835193019260ff84511691610a90838361200c565b61016081018051611c2681610146565b611c2f81610146565b156117495751611c3e81610146565b611c4781610146565b611c4f61057e565b60ff6116dd92600683521660208201525f60408201526020835193019260ff84511691610a90838361200c565b6101c081018051601681101561012857156117495751601681101561012857611ca361057e565b60ff6116dd92600883521660208201525f60408201526020835193019260ff84511691610a90838361200c565b6101a081018051605881101561012857156117495751605881101561012857611cf761057e565b60ff6116dd92600783521660208201525f60408201526020835193019260ff84511691610a90838361200c565b61018081018051611d3481610150565b611d3d81610150565b156117495751611d4c81610150565b611d5581610150565b611d5d61057e565b60ff6116dd92600983521660208201525f60408201526020835193019260ff84511691610a90838361200c565b6101e08101805160d48110156101285715611749575160d481101561012857611db161057e565b60ff6116dd92600a83521660208201525f60408201526020835193019260ff84511691610a90838361200c565b61020081018051606a81101561012857156117495751606a81101561012857611e0561057e565b60ff6116dd92600b83521660208201525f60408201526020835193019260ff84511691610a90838361200c565b6102208101805160a9811015610128571561174957519060a982101561012857611e5a61057e565b9160ff90600c84521660208301525f6040830152611e89815192602083019360ff85511691610a90838361200c565b5060ff82511660ff8114610c2a5760010160ff16825260e081018051601d81101561012857601614611f09575b51601d81101561012857601514611ecb575050565b611ed3610555565b91601a83526002602084015260ff5f199151160160ff8111610c2a5760609160ff611a9d92169060016040611a9484845161200c565b611f11610555565b601a8152600360208201525f1960ff8551160160ff8111610c2a57611f4e60ff6060921660016040611f4483895161200c565b510152855161200c565b510152611eb6565b61024081018051608081101561012857156117495751608081101561012857611f7d61057e565b60ff6116dd92600d83521660208201525f60408201526020835193019260ff84511691610a90838361200c565b6103c081018051611fba8161013c565b611fc38161013c565b156117495751611fd28161013c565b611fdb8161013c565b611fe361057e565b60ff6116dd92601983521660208201525f60408201526020835193019260ff84511691610a9083835b80518210156120205760209160051b010190565b634e487b7160e01b5f52603260045260245ffdfea2646970667358221220f27183b498910697822909c8179c8b896ab9a7f893b44f50de6a33f518b35cbf64736f6c634300081e0033",
					"opcodes": "PUSH1 0xC0 CALLVALUE PUSH2 0x9F JUMPI PUSH1 0x1F PUSH2 0x2122 CODESIZE DUP2 SWAP1 SUB SWAP2 DUP3 ADD PUSH1 0x1F NOT AND DUP4 ADD SWAP2 PUSH1 0x1 PUSH1 0x1 PUSH1 0x40 SHL SUB DUP4 GT DUP5 DUP5 LT OR PUSH2 0xA3 JUMPI DUP1 DUP5 SWAP3 PUSH1 0x40 SWAP5 DUP6 MSTORE DUP4 CODECOPY DUP2 ADD SUB SLT PUSH2 0x9F JUMPI DUP1 MLOAD SWAP1 PUSH1 0x1 PUSH1 0x1 PUSH1 0xA0 SHL SUB DUP3 AND DUP3 SUB PUSH2 0x9F JUMPI PUSH1 0x20 ADD MLOAD SWAP1 PUSH1 0x1 PUSH1 0x1 PUSH1 0xA0 SHL SUB DUP3 AND DUP3 SUB PUSH2 0x9F JUMPI PUSH1 0x80 MSTORE PUSH1 0xA0 MSTORE PUSH1 0x40 MLOAD PUSH2 0x206A SWAP1 DUP2 PUSH2 0xB8 DUP3 CODECOPY PUSH1 0x80 MLOAD DUP2 DUP2 DUP2 PUSH1 0xEC ADD MSTORE DUP2 DUP2 PUSH2 0x749 ADD MSTORE PUSH2 0xB41 ADD MSTORE PUSH1 0xA0 MLOAD DUP2 DUP2 DUP2 PUSH1 0xAB ADD MSTORE PUSH2 0xF41 ADD MSTORE RETURN JUMPDEST PUSH0 DUP1 REVERT JUMPDEST PUSH4 0x4E487B71 PUSH1 0xE0 SHL PUSH0 MSTORE PUSH1 0x41 PUSH1 0x4 MSTORE PUSH1 0x24 PUSH0 REVERT INVALID PUSH1 0x80 DUP1 PUSH1 0x40 MSTORE PUSH1 0x4 CALLDATASIZE LT ISZERO PUSH2 0x12 JUMPI PUSH0 DUP1 REVERT JUMPDEST PUSH0 CALLDATALOAD PUSH1 0xE0 SHR SWAP1 DUP2 PUSH4 0x33B42A8 EQ PUSH2 0xDA JUMPI POP DUP1 PUSH4 0x69157C0 EQ PUSH2 0x96 JUMPI PUSH4 0x609574B5 EQ PUSH2 0x3D JUMPI PUSH0 DUP1 REVERT JUMPDEST CALLVALUE PUSH2 0x92 JUMPI PUSH1 0x60 CALLDATASIZE PUSH1 0x3 NOT ADD SLT PUSH2 0x92 JUMPI PUSH1 0x4 CALLDATALOAD PUSH2 0xFFFF DUP2 AND DUP2 SUB PUSH2 0x92 JUMPI PUSH1 0x24 CALLDATALOAD PUSH1 0xFF DUP2 AND DUP2 SUB PUSH2 0x92 JUMPI PUSH2 0x8E SWAP2 PUSH2 0x7A SWAP2 PUSH1 0x44 CALLDATALOAD SWAP2 PUSH2 0x5E6 JUMP JUMPDEST PUSH1 0x40 MLOAD SWAP2 DUP3 SWAP2 PUSH1 0x20 DUP4 MSTORE PUSH1 0x20 DUP4 ADD SWAP1 PUSH2 0x15A JUMP JUMPDEST SUB SWAP1 RETURN JUMPDEST PUSH0 DUP1 REVERT JUMPDEST CALLVALUE PUSH2 0x92 JUMPI PUSH0 CALLDATASIZE PUSH1 0x3 NOT ADD SLT PUSH2 0x92 JUMPI PUSH1 0x40 MLOAD PUSH32 0x0 PUSH1 0x1 PUSH1 0x1 PUSH1 0xA0 SHL SUB AND DUP2 MSTORE PUSH1 0x20 SWAP1 RETURN JUMPDEST CALLVALUE PUSH2 0x92 JUMPI PUSH0 CALLDATASIZE PUSH1 0x3 NOT ADD SLT PUSH2 0x92 JUMPI PUSH32 0x0 PUSH1 0x1 PUSH1 0x1 PUSH1 0xA0 SHL SUB AND DUP2 MSTORE PUSH1 0x20 SWAP1 RETURN JUMPDEST SWAP1 PUSH1 0x1B DUP3 LT ISZERO PUSH2 0x128 JUMPI MSTORE JUMP JUMPDEST PUSH4 0x4E487B71 PUSH1 0xE0 SHL PUSH0 MSTORE PUSH1 0x21 PUSH1 0x4 MSTORE PUSH1 0x24 PUSH0 REVERT JUMPDEST PUSH1 0x17 GT ISZERO PUSH2 0x128 JUMPI JUMP JUMPDEST PUSH1 0x9 GT ISZERO PUSH2 0x128 JUMPI JUMP JUMPDEST PUSH1 0x4 GT ISZERO PUSH2 0x128 JUMPI JUMP JUMPDEST SWAP1 PUSH2 0x3E0 DUP2 ADD SWAP2 DUP1 MLOAD SWAP3 PUSH2 0x3E0 DUP4 MSTORE DUP4 MLOAD DUP1 SWAP2 MSTORE PUSH1 0x20 PUSH2 0x400 DUP5 ADD SWAP5 ADD SWAP1 PUSH0 JUMPDEST DUP2 DUP2 LT PUSH2 0x3DA JUMPI POP POP POP PUSH1 0xFF PUSH1 0x20 DUP3 ADD MLOAD AND PUSH1 0x20 DUP4 ADD MSTORE PUSH2 0xFFFF PUSH1 0x40 DUP3 ADD MLOAD AND PUSH1 0x40 DUP4 ADD MSTORE PUSH2 0xFFFF PUSH1 0x60 DUP3 ADD MLOAD AND PUSH1 0x60 DUP4 ADD MSTORE PUSH4 0xFFFFFFFF PUSH1 0x80 DUP3 ADD MLOAD AND PUSH1 0x80 DUP4 ADD MSTORE PUSH1 0xA0 DUP2 ADD MLOAD PUSH1 0x2 DUP2 LT ISZERO PUSH2 0x128 JUMPI PUSH1 0xA0 DUP4 ADD MSTORE PUSH1 0xC0 DUP2 ADD MLOAD PUSH1 0x5 DUP2 LT ISZERO PUSH2 0x128 JUMPI PUSH1 0xC0 DUP4 ADD MSTORE PUSH1 0xE0 DUP2 ADD MLOAD PUSH1 0x1D DUP2 LT ISZERO PUSH2 0x128 JUMPI PUSH1 0xE0 DUP4 ADD MSTORE PUSH2 0x100 DUP2 ADD MLOAD PUSH2 0x205 DUP2 PUSH2 0x13C JUMP JUMPDEST PUSH2 0x100 DUP4 ADD MSTORE PUSH2 0x120 DUP2 ADD MLOAD PUSH1 0x14 DUP2 LT ISZERO PUSH2 0x128 JUMPI PUSH2 0x120 DUP4 ADD MSTORE PUSH2 0x140 DUP2 ADD MLOAD PUSH2 0x22F DUP2 PUSH2 0x146 JUMP JUMPDEST PUSH2 0x140 DUP4 ADD MSTORE PUSH2 0x160 DUP2 ADD MLOAD PUSH2 0x244 DUP2 PUSH2 0x146 JUMP JUMPDEST PUSH2 0x160 DUP4 ADD MSTORE PUSH2 0x180 DUP2 ADD MLOAD PUSH2 0x259 DUP2 PUSH2 0x150 JUMP JUMPDEST PUSH2 0x180 DUP4 ADD MSTORE PUSH2 0x1A0 DUP2 ADD MLOAD PUSH1 0x58 DUP2 LT ISZERO PUSH2 0x128 JUMPI PUSH2 0x1A0 DUP4 ADD MSTORE PUSH2 0x1C0 DUP2 ADD MLOAD PUSH1 0x16 DUP2 LT ISZERO PUSH2 0x128 JUMPI PUSH2 0x1C0 DUP4 ADD MSTORE PUSH2 0x1E0 DUP2 ADD MLOAD PUSH1 0xD4 DUP2 LT ISZERO PUSH2 0x128 JUMPI PUSH2 0x1E0 DUP4 ADD MSTORE PUSH2 0x200 DUP2 ADD MLOAD PUSH1 0x6A DUP2 LT ISZERO PUSH2 0x128 JUMPI PUSH2 0x200 DUP4 ADD MSTORE PUSH2 0x220 DUP2 ADD MLOAD PUSH1 0xA9 DUP2 LT ISZERO PUSH2 0x128 JUMPI PUSH2 0x220 DUP4 ADD MSTORE PUSH2 0x240 DUP2 ADD MLOAD PUSH1 0x80 DUP2 LT ISZERO PUSH2 0x128 JUMPI PUSH2 0x240 DUP4 ADD MSTORE PUSH2 0x260 DUP2 ADD MLOAD PUSH1 0x1A DUP2 LT ISZERO PUSH2 0x128 JUMPI PUSH2 0x260 DUP4 ADD MSTORE PUSH2 0x280 DUP2 ADD MLOAD PUSH1 0x1F DUP2 LT ISZERO PUSH2 0x128 JUMPI PUSH2 0x280 DUP4 ADD MSTORE PUSH2 0x2A0 DUP2 ADD MLOAD PUSH1 0x13 DUP2 LT ISZERO PUSH2 0x128 JUMPI PUSH2 0x2A0 DUP4 ADD MSTORE PUSH2 0x2C0 DUP2 ADD MLOAD PUSH2 0x32B DUP2 PUSH2 0x146 JUMP JUMPDEST PUSH2 0x2C0 DUP4 ADD MSTORE PUSH2 0x2E0 DUP2 ADD MLOAD PUSH2 0x340 DUP2 PUSH2 0x146 JUMP JUMPDEST PUSH2 0x2E0 DUP4 ADD MSTORE PUSH2 0x300 DUP2 ADD MLOAD PUSH2 0x355 DUP2 PUSH2 0x150 JUMP JUMPDEST PUSH2 0x300 DUP4 ADD MSTORE PUSH2 0x320 DUP2 ADD MLOAD PUSH1 0x15 DUP2 LT ISZERO PUSH2 0x128 JUMPI PUSH2 0x320 DUP4 ADD MSTORE PUSH2 0x340 DUP2 ADD MLOAD PUSH1 0xC3 DUP2 LT ISZERO PUSH2 0x128 JUMPI PUSH2 0x340 DUP4 ADD MSTORE PUSH2 0x360 DUP2 ADD MLOAD PUSH1 0x85 DUP2 LT ISZERO PUSH2 0x128 JUMPI PUSH2 0x360 DUP4 ADD MSTORE PUSH2 0x380 DUP2 ADD MLOAD PUSH1 0x83 DUP2 LT ISZERO PUSH2 0x128 JUMPI PUSH2 0x380 DUP4 ADD MSTORE PUSH2 0x3A0 DUP2 ADD MLOAD PUSH1 0x7A DUP2 LT ISZERO PUSH2 0x128 JUMPI PUSH2 0x3A0 DUP4 ADD MSTORE PUSH2 0x3C0 SWAP1 DUP2 ADD MLOAD SWAP2 PUSH2 0x3D5 DUP4 PUSH2 0x13C JUMP JUMPDEST ADD MSTORE SWAP1 JUMP JUMPDEST SWAP1 SWAP2 SWAP5 PUSH1 0x20 PUSH1 0xA0 PUSH1 0x1 SWAP3 PUSH1 0xFF DUP4 PUSH1 0x60 DUP12 MLOAD PUSH2 0x3F6 DUP6 DUP3 MLOAD PUSH2 0x11B JUMP JUMPDEST DUP4 DUP4 DUP3 ADD MLOAD AND DUP4 DUP7 ADD MSTORE PUSH1 0x40 DUP2 ADD MLOAD ISZERO ISZERO PUSH1 0x40 DUP7 ADD MSTORE ADD MLOAD PUSH2 0x41C PUSH1 0x60 DUP6 ADD DUP3 MLOAD PUSH2 0x11B JUMP JUMPDEST ADD MLOAD AND PUSH1 0x80 DUP3 ADD MSTORE ADD SWAP7 ADD SWAP3 SWAP2 ADD PUSH2 0x17A JUMP JUMPDEST SWAP1 PUSH1 0x1F DUP1 NOT SWAP2 ADD AND DUP2 ADD SWAP1 DUP2 LT PUSH8 0xFFFFFFFFFFFFFFFF DUP3 GT OR PUSH2 0x451 JUMPI PUSH1 0x40 MSTORE JUMP JUMPDEST PUSH4 0x4E487B71 PUSH1 0xE0 SHL PUSH0 MSTORE PUSH1 0x41 PUSH1 0x4 MSTORE PUSH1 0x24 PUSH0 REVERT JUMPDEST PUSH1 0x40 MLOAD SWAP1 PUSH2 0x3E0 DUP3 ADD DUP3 DUP2 LT PUSH8 0xFFFFFFFFFFFFFFFF DUP3 GT OR PUSH2 0x451 JUMPI PUSH1 0x40 MSTORE PUSH0 PUSH2 0x3C0 DUP4 PUSH1 0x60 DUP2 MSTORE DUP3 PUSH1 0x20 DUP3 ADD MSTORE DUP3 PUSH1 0x40 DUP3 ADD MSTORE DUP3 PUSH1 0x60 DUP3 ADD MSTORE DUP3 PUSH1 0x80 DUP3 ADD MSTORE DUP3 PUSH1 0xA0 DUP3 ADD MSTORE DUP3 PUSH1 0xC0 DUP3 ADD MSTORE DUP3 PUSH1 0xE0 DUP3 ADD MSTORE DUP3 PUSH2 0x100 DUP3 ADD MSTORE DUP3 PUSH2 0x120 DUP3 ADD MSTORE DUP3 PUSH2 0x140 DUP3 ADD MSTORE DUP3 PUSH2 0x160 DUP3 ADD MSTORE DUP3 PUSH2 0x180 DUP3 ADD MSTORE DUP3 PUSH2 0x1A0 DUP3 ADD MSTORE DUP3 PUSH2 0x1C0 DUP3 ADD MSTORE DUP3 PUSH2 0x1E0 DUP3 ADD MSTORE DUP3 PUSH2 0x200 DUP3 ADD MSTORE DUP3 PUSH2 0x220 DUP3 ADD MSTORE DUP3 PUSH2 0x240 DUP3 ADD MSTORE DUP3 PUSH2 0x260 DUP3 ADD MSTORE DUP3 PUSH2 0x280 DUP3 ADD MSTORE DUP3 PUSH2 0x2A0 DUP3 ADD MSTORE DUP3 PUSH2 0x2C0 DUP3 ADD MSTORE DUP3 PUSH2 0x2E0 DUP3 ADD MSTORE DUP3 PUSH2 0x300 DUP3 ADD MSTORE DUP3 PUSH2 0x320 DUP3 ADD MSTORE DUP3 PUSH2 0x340 DUP3 ADD MSTORE DUP3 PUSH2 0x360 DUP3 ADD MSTORE DUP3 PUSH2 0x380 DUP3 ADD MSTORE DUP3 PUSH2 0x3A0 DUP3 ADD MSTORE ADD MSTORE JUMP JUMPDEST PUSH1 0x40 MLOAD SWAP1 PUSH1 0x40 DUP3 ADD DUP3 DUP2 LT PUSH8 0xFFFFFFFFFFFFFFFF DUP3 GT OR PUSH2 0x451 JUMPI PUSH1 0x40 MSTORE PUSH0 PUSH1 0x20 DUP4 DUP3 DUP2 MSTORE ADD MSTORE JUMP JUMPDEST PUSH1 0x40 MLOAD SWAP1 PUSH1 0x80 DUP3 ADD DUP3 DUP2 LT PUSH8 0xFFFFFFFFFFFFFFFF DUP3 GT OR PUSH2 0x451 JUMPI PUSH1 0x40 MSTORE DUP2 PUSH0 DUP2 MSTORE PUSH0 PUSH1 0x20 DUP3 ADD MSTORE PUSH0 PUSH1 0x40 DUP3 ADD MSTORE PUSH1 0x60 PUSH2 0x5B6 PUSH2 0x555 JUMP JUMPDEST SWAP2 ADD MSTORE JUMP JUMPDEST PUSH1 0x5 DUP3 LT ISZERO PUSH2 0x128 JUMPI MSTORE JUMP JUMPDEST SWAP1 PUSH2 0x5DF PUSH1 0x20 SWAP2 SWAP5 SWAP4 SWAP5 PUSH1 0x40 DUP5 MSTORE PUSH1 0x40 DUP5 ADD SWAP1 PUSH2 0x15A JUMP JUMPDEST SWAP4 MLOAD SWAP2 ADD MSTORE JUMP JUMPDEST SWAP2 SWAP1 SWAP2 PUSH2 0x5F1 PUSH2 0x465 JUMP JUMPDEST POP PUSH1 0x40 MLOAD SWAP2 PUSH1 0x20 DUP4 ADD DUP4 DUP2 LT PUSH8 0xFFFFFFFFFFFFFFFF DUP3 GT OR PUSH2 0x451 JUMPI PUSH1 0x40 MSTORE PUSH0 DUP4 MSTORE PUSH1 0x40 MLOAD PUSH1 0x20 DUP2 ADD SWAP2 PUSH2 0xFFFF DUP5 AND SWAP4 PUSH2 0xFFFF PUSH1 0xF0 SHL SWAP1 PUSH1 0xF0 SHL AND DUP4 MSTORE PUSH1 0x22 DUP3 ADD MSTORE PUSH1 0x22 DUP2 MSTORE PUSH2 0x642 PUSH1 0x42 DUP3 PUSH2 0x42F JUMP JUMPDEST MLOAD SWAP1 KECCAK256 DUP3 MSTORE PUSH2 0x64F PUSH2 0x465 JUMP JUMPDEST SWAP3 PUSH2 0x200 SWAP2 PUSH1 0x40 MLOAD PUSH2 0x661 DUP5 DUP3 PUSH2 0x42F JUMP JUMPDEST PUSH1 0xF DUP2 MSTORE PUSH1 0x1F NOT DUP5 ADD PUSH0 JUMPDEST DUP2 DUP2 LT PUSH2 0x1683 JUMPI POP POP DUP6 MSTORE DUP1 PUSH1 0x40 DUP7 ADD MSTORE PUSH1 0x10 DUP2 LT PUSH2 0x1668 JUMPI JUMPDEST POP JUMPDEST PUSH1 0x20 DUP4 KECCAK256 DUP1 DUP5 MSTORE PUSH3 0x10000 DUP2 LT ISZERO PUSH2 0x6A0 JUMPI POP PUSH2 0x688 JUMP JUMPDEST PUSH4 0x1E098D0 SWAP1 MOD PUSH4 0xF4865700 ADD DUP1 PUSH4 0xF4865700 GT PUSH2 0xC2A JUMPI PUSH4 0xFFFFFFFF AND PUSH1 0x80 DUP6 ADD MSTORE PUSH2 0xFFFF PUSH1 0x60 DUP6 ADD MLOAD AND DUP1 PUSH2 0x1567 JUMPI POP JUMPDEST PUSH1 0x20 DUP4 KECCAK256 DUP1 DUP5 MSTORE PUSH2 0x26D0 DUP2 LT ISZERO PUSH2 0x6EA JUMPI POP PUSH2 0x6D3 JUMP JUMPDEST PUSH2 0x2710 PUSH2 0x1D4C SWAP2 MOD LT PUSH0 EQ PUSH2 0x1560 JUMPI PUSH0 JUMPDEST PUSH1 0x2 DUP2 LT ISZERO PUSH2 0x128 JUMPI DUP1 PUSH1 0xA0 DUP7 ADD MSTORE ISZERO PUSH0 EQ PUSH2 0xF08 JUMPI PUSH1 0xFF AND PUSH1 0x5 DUP2 LT ISZERO PUSH2 0x128 JUMPI PUSH2 0x72A SWAP1 PUSH1 0xC0 DUP6 ADD PUSH2 0x5BB JUMP JUMPDEST PUSH2 0x733 DUP4 PUSH2 0x169A JUMP JUMPDEST PUSH1 0x40 MLOAD PUSH4 0x9FC0369 PUSH1 0xE2 SHL DUP2 MSTORE DUP3 MLOAD PUSH1 0x4 DUP3 ADD MSTORE PUSH32 0x0 PUSH1 0x1 PUSH1 0x1 PUSH1 0xA0 SHL SUB AND SWAP2 SWAP1 PUSH1 0x20 DUP2 PUSH1 0x24 DUP2 DUP7 GAS STATICCALL SWAP1 DUP2 ISZERO PUSH2 0xC03 JUMPI PUSH0 SWAP2 PUSH2 0xECD JUMPI JUMPDEST POP PUSH1 0xE0 DUP6 ADD SWAP1 PUSH1 0x1D DUP2 LT ISZERO PUSH2 0x128 JUMPI DUP2 MSTORE PUSH1 0x40 MLOAD PUSH4 0x10683B71 PUSH1 0xE1 SHL DUP2 MSTORE PUSH1 0x20 DUP2 DUP1 PUSH2 0x7BA DUP9 DUP11 PUSH1 0x4 DUP5 ADD PUSH2 0x5C7 JUMP JUMPDEST SUB DUP2 DUP8 GAS STATICCALL SWAP1 DUP2 ISZERO PUSH2 0xC03 JUMPI PUSH0 SWAP2 PUSH2 0xE92 JUMPI JUMPDEST POP PUSH2 0x7D7 DUP2 PUSH2 0x13C JUMP JUMPDEST PUSH2 0x100 DUP7 ADD MSTORE PUSH1 0x40 MLOAD PUSH4 0xD0D4547F PUSH1 0xE0 SHL DUP2 MSTORE PUSH1 0x20 DUP2 DUP1 PUSH2 0x7FC DUP9 DUP11 PUSH1 0x4 DUP5 ADD PUSH2 0x5C7 JUMP JUMPDEST SUB DUP2 DUP8 GAS STATICCALL SWAP1 DUP2 ISZERO PUSH2 0xC03 JUMPI PUSH0 SWAP2 PUSH2 0xE57 JUMPI JUMPDEST POP PUSH1 0x14 DUP2 LT ISZERO PUSH2 0x128 JUMPI PUSH2 0x120 DUP7 ADD MSTORE PUSH1 0x40 MLOAD PUSH4 0x32FA6D1D PUSH1 0xE2 SHL DUP2 MSTORE DUP5 MLOAD PUSH1 0x4 DUP3 ADD MSTORE PUSH1 0x20 DUP2 PUSH1 0x24 DUP2 DUP8 GAS STATICCALL SWAP1 DUP2 ISZERO PUSH2 0xC03 JUMPI PUSH0 SWAP2 PUSH2 0xE1C JUMPI JUMPDEST POP PUSH2 0x854 DUP2 PUSH2 0x146 JUMP JUMPDEST PUSH2 0x140 DUP7 ADD MSTORE PUSH1 0x40 MLOAD PUSH4 0x777DBAB9 PUSH1 0xE0 SHL DUP2 MSTORE DUP5 MLOAD PUSH1 0x4 DUP3 ADD MSTORE PUSH1 0x20 DUP2 PUSH1 0x24 DUP2 DUP8 GAS STATICCALL SWAP1 DUP2 ISZERO PUSH2 0xC03 JUMPI PUSH0 SWAP2 PUSH2 0xDE1 JUMPI JUMPDEST POP PUSH2 0x88F DUP2 PUSH2 0x146 JUMP JUMPDEST PUSH2 0x160 DUP7 ADD MSTORE PUSH1 0x40 MLOAD PUSH4 0x8A886457 PUSH1 0xE0 SHL DUP2 MSTORE SWAP2 PUSH1 0x20 DUP4 DUP1 PUSH2 0x8B5 DUP9 DUP11 PUSH1 0x4 DUP5 ADD PUSH2 0x5C7 JUMP JUMPDEST SUB DUP2 DUP8 GAS STATICCALL SWAP3 DUP4 ISZERO PUSH2 0xC03 JUMPI PUSH0 SWAP4 PUSH2 0xDA4 JUMPI JUMPDEST POP PUSH2 0x1A0 DUP7 ADD SWAP3 PUSH1 0x58 DUP2 LT ISZERO PUSH2 0x128 JUMPI DUP4 MSTORE PUSH1 0x40 MLOAD PUSH4 0x18412D03 PUSH1 0xE0 SHL DUP2 MSTORE DUP6 MLOAD PUSH1 0x4 DUP3 ADD MSTORE PUSH1 0x20 DUP2 PUSH1 0x24 DUP2 DUP9 GAS STATICCALL SWAP1 DUP2 ISZERO PUSH2 0xC03 JUMPI PUSH0 SWAP2 PUSH2 0xD69 JUMPI JUMPDEST POP PUSH1 0x16 DUP2 LT ISZERO PUSH2 0x128 JUMPI PUSH2 0x1C0 DUP8 ADD MSTORE PUSH1 0x40 MLOAD PUSH4 0x1B495A2D PUSH1 0xE0 SHL DUP2 MSTORE DUP6 MLOAD PUSH1 0x4 DUP3 ADD MSTORE PUSH1 0x20 DUP2 PUSH1 0x24 DUP2 DUP9 GAS STATICCALL SWAP1 DUP2 ISZERO PUSH2 0xC03 JUMPI PUSH0 SWAP2 PUSH2 0xD2E JUMPI JUMPDEST POP PUSH2 0x94A DUP2 PUSH2 0x150 JUMP JUMPDEST PUSH2 0x180 DUP8 ADD MSTORE PUSH1 0x40 MLOAD PUSH4 0x28DCD095 PUSH1 0xE0 SHL DUP2 MSTORE PUSH1 0x20 DUP2 DUP1 PUSH2 0x96F DUP10 DUP12 PUSH1 0x4 DUP5 ADD PUSH2 0x5C7 JUMP JUMPDEST SUB DUP2 DUP9 GAS STATICCALL SWAP1 DUP2 ISZERO PUSH2 0xC03 JUMPI PUSH0 SWAP2 PUSH2 0xCF3 JUMPI JUMPDEST POP PUSH1 0xD4 DUP2 LT ISZERO PUSH2 0x128 JUMPI PUSH2 0x1E0 DUP8 ADD MSTORE PUSH1 0x40 MLOAD PUSH4 0x6177376D PUSH1 0xE1 SHL DUP2 MSTORE SWAP1 PUSH1 0x20 DUP3 DUP1 PUSH2 0x9B2 DUP10 DUP12 PUSH1 0x4 DUP5 ADD PUSH2 0x5C7 JUMP JUMPDEST SUB DUP2 DUP9 GAS STATICCALL SWAP2 DUP3 ISZERO PUSH2 0xC03 JUMPI PUSH0 SWAP3 PUSH2 0xCB6 JUMPI JUMPDEST POP PUSH1 0x6A DUP3 LT ISZERO PUSH2 0x128 JUMPI DUP7 ADD MSTORE PUSH1 0x40 MLOAD PUSH4 0x7C2534B7 PUSH1 0xE0 SHL DUP2 MSTORE DUP5 MLOAD PUSH1 0x4 DUP3 ADD MSTORE SWAP3 PUSH1 0x20 DUP5 PUSH1 0x24 DUP2 DUP5 GAS STATICCALL SWAP4 DUP5 ISZERO PUSH2 0xC03 JUMPI PUSH0 SWAP5 PUSH2 0xC79 JUMPI JUMPDEST POP PUSH2 0x220 DUP7 ADD SWAP4 PUSH1 0xA9 DUP2 LT ISZERO PUSH2 0x128 JUMPI DUP5 MSTORE PUSH1 0x40 MLOAD PUSH4 0x4D11B625 PUSH1 0xE1 SHL DUP2 MSTORE DUP6 MLOAD PUSH1 0x4 DUP3 ADD MSTORE SWAP1 PUSH1 0x20 SWAP1 DUP3 SWAP1 PUSH1 0x24 SWAP1 DUP3 SWAP1 GAS STATICCALL SWAP1 DUP2 ISZERO PUSH2 0xC03 JUMPI PUSH0 SWAP2 PUSH2 0xC3E JUMPI JUMPDEST POP PUSH1 0x80 DUP2 LT ISZERO PUSH2 0x128 JUMPI PUSH2 0x240 DUP7 ADD MSTORE MLOAD PUSH1 0x1D DUP2 LT ISZERO PUSH2 0x128 JUMPI PUSH2 0xA61 PUSH2 0x57E JUMP JUMPDEST SWAP1 PUSH1 0xFF SWAP1 PUSH1 0x2 DUP4 MSTORE AND PUSH1 0x20 DUP3 ADD MSTORE PUSH0 PUSH1 0x40 DUP3 ADD MSTORE PUSH2 0xA96 DUP6 MLOAD SWAP2 PUSH1 0x20 DUP8 ADD SWAP3 PUSH1 0xFF DUP5 MLOAD AND SWAP2 PUSH2 0xA90 DUP4 DUP4 PUSH2 0x200C JUMP JUMPDEST MSTORE PUSH2 0x200C JUMP JUMPDEST POP PUSH1 0xFF DUP2 MLOAD AND PUSH1 0xFF DUP2 EQ PUSH2 0xC2A JUMPI PUSH1 0x1 ADD PUSH1 0xFF AND SWAP1 MSTORE PUSH2 0xAB5 DUP5 PUSH2 0x1AF6 JUMP JUMPDEST PUSH2 0xABE DUP5 PUSH2 0x1B5C JUMP JUMPDEST PUSH2 0xAC7 DUP5 PUSH2 0x1BB0 JUMP JUMPDEST PUSH2 0xAD0 DUP5 PUSH2 0x1C16 JUMP JUMPDEST MLOAD PUSH1 0x58 DUP2 LT ISZERO PUSH2 0x128 JUMPI ISZERO PUSH2 0xC1C JUMPI PUSH2 0xAE8 DUP4 PUSH2 0x1CD0 JUMP JUMPDEST PUSH2 0xAF1 DUP4 PUSH2 0x1D24 JUMP JUMPDEST MLOAD PUSH1 0xA9 DUP2 LT ISZERO PUSH2 0x128 JUMPI PUSH2 0xB3D SWAP2 PUSH1 0x20 SWAP2 ISZERO PUSH2 0xC0E JUMPI PUSH2 0xB10 DUP5 PUSH2 0x1DDE JUMP JUMPDEST PUSH2 0xB19 DUP5 PUSH2 0x1E32 JUMP JUMPDEST PUSH2 0xB22 DUP5 PUSH2 0x1F56 JUMP JUMPDEST PUSH1 0x40 MLOAD DUP1 SWAP4 DUP2 SWAP3 PUSH4 0xB625F9B PUSH1 0xE0 SHL DUP4 MSTORE DUP7 PUSH1 0x4 DUP5 ADD PUSH2 0x5C7 JUMP JUMPDEST SUB DUP2 PUSH32 0x0 PUSH1 0x1 PUSH1 0x1 PUSH1 0xA0 SHL SUB AND GAS STATICCALL SWAP1 DUP2 ISZERO PUSH2 0xC03 JUMPI PUSH0 SWAP2 PUSH2 0xBC8 JUMPI JUMPDEST POP PUSH2 0xB83 DUP2 PUSH2 0x13C JUMP JUMPDEST PUSH2 0x3C0 DUP3 ADD MSTORE PUSH2 0x320 DUP2 ADD MLOAD PUSH1 0x15 DUP2 LT ISZERO PUSH2 0x128 JUMPI ISZERO DUP1 PUSH2 0xBB2 JUMPI JUMPDEST PUSH2 0xBA6 JUMPI SWAP1 JUMP JUMPDEST PUSH2 0xBAF DUP2 PUSH2 0x1FAA JUMP JUMPDEST SWAP1 JUMP JUMPDEST POP PUSH2 0x1C0 DUP2 ADD MLOAD PUSH1 0x16 DUP2 LT ISZERO PUSH2 0x128 JUMPI ISZERO PUSH2 0xB9F JUMP JUMPDEST SWAP1 POP PUSH1 0x20 DUP2 RETURNDATASIZE PUSH1 0x20 GT PUSH2 0xBFB JUMPI JUMPDEST DUP2 PUSH2 0xBE3 PUSH1 0x20 SWAP4 DUP4 PUSH2 0x42F JUMP JUMPDEST DUP2 ADD SUB SLT PUSH2 0x92 JUMPI MLOAD PUSH1 0x17 DUP2 LT ISZERO PUSH2 0x92 JUMPI PUSH0 PUSH2 0xB79 JUMP JUMPDEST RETURNDATASIZE SWAP2 POP PUSH2 0xBD6 JUMP JUMPDEST PUSH1 0x40 MLOAD RETURNDATASIZE PUSH0 DUP3 RETURNDATACOPY RETURNDATASIZE SWAP1 REVERT JUMPDEST PUSH2 0xC17 DUP5 PUSH2 0x1D8A JUMP JUMPDEST PUSH2 0xB10 JUMP JUMPDEST PUSH2 0xC25 DUP4 PUSH2 0x1C7C JUMP JUMPDEST PUSH2 0xAE8 JUMP JUMPDEST PUSH4 0x4E487B71 PUSH1 0xE0 SHL PUSH0 MSTORE PUSH1 0x11 PUSH1 0x4 MSTORE PUSH1 0x24 PUSH0 REVERT JUMPDEST SWAP1 POP PUSH1 0x20 DUP2 RETURNDATASIZE PUSH1 0x20 GT PUSH2 0xC71 JUMPI JUMPDEST DUP2 PUSH2 0xC59 PUSH1 0x20 SWAP4 DUP4 PUSH2 0x42F JUMP JUMPDEST DUP2 ADD SUB SLT PUSH2 0x92 JUMPI MLOAD PUSH1 0x80 DUP2 LT ISZERO PUSH2 0x92 JUMPI PUSH0 PUSH2 0xA3F JUMP JUMPDEST RETURNDATASIZE SWAP2 POP PUSH2 0xC4C JUMP JUMPDEST SWAP1 SWAP4 POP PUSH1 0x20 DUP2 RETURNDATASIZE PUSH1 0x20 GT PUSH2 0xCAE JUMPI JUMPDEST DUP2 PUSH2 0xC95 PUSH1 0x20 SWAP4 DUP4 PUSH2 0x42F JUMP JUMPDEST DUP2 ADD SUB SLT PUSH2 0x92 JUMPI MLOAD PUSH1 0xA9 DUP2 LT ISZERO PUSH2 0x92 JUMPI SWAP3 PUSH0 PUSH2 0x9FE JUMP JUMPDEST RETURNDATASIZE SWAP2 POP PUSH2 0xC88 JUMP JUMPDEST SWAP1 SWAP2 POP PUSH1 0x20 DUP2 RETURNDATASIZE PUSH1 0x20 GT PUSH2 0xCEB JUMPI JUMPDEST DUP2 PUSH2 0xCD2 PUSH1 0x20 SWAP4 DUP4 PUSH2 0x42F JUMP JUMPDEST DUP2 ADD SUB SLT PUSH2 0x92 JUMPI MLOAD PUSH1 0x6A DUP2 LT ISZERO PUSH2 0x92 JUMPI SWAP1 PUSH0 PUSH2 0x9C5 JUMP JUMPDEST RETURNDATASIZE SWAP2 POP PUSH2 0xCC5 JUMP JUMPDEST SWAP1 POP PUSH1 0x20 DUP2 RETURNDATASIZE PUSH1 0x20 GT PUSH2 0xD26 JUMPI JUMPDEST DUP2 PUSH2 0xD0E PUSH1 0x20 SWAP4 DUP4 PUSH2 0x42F JUMP JUMPDEST DUP2 ADD SUB SLT PUSH2 0x92 JUMPI MLOAD PUSH1 0xD4 DUP2 LT ISZERO PUSH2 0x92 JUMPI PUSH0 PUSH2 0x982 JUMP JUMPDEST RETURNDATASIZE SWAP2 POP PUSH2 0xD01 JUMP JUMPDEST SWAP1 POP PUSH1 0x20 DUP2 RETURNDATASIZE PUSH1 0x20 GT PUSH2 0xD61 JUMPI JUMPDEST DUP2 PUSH2 0xD49 PUSH1 0x20 SWAP4 DUP4 PUSH2 0x42F JUMP JUMPDEST DUP2 ADD SUB SLT PUSH2 0x92 JUMPI MLOAD PUSH1 0x4 DUP2 LT ISZERO PUSH2 0x92 JUMPI PUSH0 PUSH2 0x940 JUMP JUMPDEST RETURNDATASIZE SWAP2 POP PUSH2 0xD3C JUMP JUMPDEST SWAP1 POP PUSH1 0x20 DUP2 RETURNDATASIZE PUSH1 0x20 GT PUSH2 0xD9C JUMPI JUMPDEST DUP2 PUSH2 0xD84 PUSH1 0x20 SWAP4 DUP4 PUSH2 0x42F JUMP JUMPDEST DUP2 ADD SUB SLT PUSH2 0x92 JUMPI MLOAD PUSH1 0x16 DUP2 LT ISZERO PUSH2 0x92 JUMPI PUSH0 PUSH2 0x905 JUMP JUMPDEST RETURNDATASIZE SWAP2 POP PUSH2 0xD77 JUMP JUMPDEST SWAP1 SWAP3 POP PUSH1 0x20 DUP2 RETURNDATASIZE PUSH1 0x20 GT PUSH2 0xDD9 JUMPI JUMPDEST DUP2 PUSH2 0xDC0 PUSH1 0x20 SWAP4 DUP4 PUSH2 0x42F JUMP JUMPDEST DUP2 ADD SUB SLT PUSH2 0x92 JUMPI MLOAD PUSH1 0x58 DUP2 LT ISZERO PUSH2 0x92 JUMPI SWAP2 PUSH0 PUSH2 0x8C8 JUMP JUMPDEST RETURNDATASIZE SWAP2 POP PUSH2 0xDB3 JUMP JUMPDEST SWAP1 POP PUSH1 0x20 DUP2 RETURNDATASIZE PUSH1 0x20 GT PUSH2 0xE14 JUMPI JUMPDEST DUP2 PUSH2 0xDFC PUSH1 0x20 SWAP4 DUP4 PUSH2 0x42F JUMP JUMPDEST DUP2 ADD SUB SLT PUSH2 0x92 JUMPI MLOAD PUSH1 0x9 DUP2 LT ISZERO PUSH2 0x92 JUMPI PUSH0 PUSH2 0x885 JUMP JUMPDEST RETURNDATASIZE SWAP2 POP PUSH2 0xDEF JUMP JUMPDEST SWAP1 POP PUSH1 0x20 DUP2 RETURNDATASIZE PUSH1 0x20 GT PUSH2 0xE4F JUMPI JUMPDEST DUP2 PUSH2 0xE37 PUSH1 0x20 SWAP4 DUP4 PUSH2 0x42F JUMP JUMPDEST DUP2 ADD SUB SLT PUSH2 0x92 JUMPI MLOAD PUSH1 0x9 DUP2 LT ISZERO PUSH2 0x92 JUMPI PUSH0 PUSH2 0x84A JUMP JUMPDEST RETURNDATASIZE SWAP2 POP PUSH2 0xE2A JUMP JUMPDEST SWAP1 POP PUSH1 0x20 DUP2 RETURNDATASIZE PUSH1 0x20 GT PUSH2 0xE8A JUMPI JUMPDEST DUP2 PUSH2 0xE72 PUSH1 0x20 SWAP4 DUP4 PUSH2 0x42F JUMP JUMPDEST DUP2 ADD SUB SLT PUSH2 0x92 JUMPI MLOAD PUSH1 0x14 DUP2 LT ISZERO PUSH2 0x92 JUMPI PUSH0 PUSH2 0x80F JUMP JUMPDEST RETURNDATASIZE SWAP2 POP PUSH2 0xE65 JUMP JUMPDEST SWAP1 POP PUSH1 0x20 DUP2 RETURNDATASIZE PUSH1 0x20 GT PUSH2 0xEC5 JUMPI JUMPDEST DUP2 PUSH2 0xEAD PUSH1 0x20 SWAP4 DUP4 PUSH2 0x42F JUMP JUMPDEST DUP2 ADD SUB SLT PUSH2 0x92 JUMPI MLOAD PUSH1 0x17 DUP2 LT ISZERO PUSH2 0x92 JUMPI PUSH0 PUSH2 0x7CD JUMP JUMPDEST RETURNDATASIZE SWAP2 POP PUSH2 0xEA0 JUMP JUMPDEST SWAP1 POP PUSH1 0x20 DUP2 RETURNDATASIZE PUSH1 0x20 GT PUSH2 0xF00 JUMPI JUMPDEST DUP2 PUSH2 0xEE8 PUSH1 0x20 SWAP4 DUP4 PUSH2 0x42F JUMP JUMPDEST DUP2 ADD SUB SLT PUSH2 0x92 JUMPI MLOAD PUSH1 0x1D DUP2 LT ISZERO PUSH2 0x92 JUMPI PUSH0 PUSH2 0x78A JUMP JUMPDEST RETURNDATASIZE SWAP2 POP PUSH2 0xEDB JUMP JUMPDEST PUSH1 0xFF SWAP2 POP AND PUSH1 0x5 DUP2 LT ISZERO PUSH2 0x128 JUMPI PUSH2 0xF23 SWAP1 PUSH1 0xC0 DUP5 ADD PUSH2 0x5BB JUMP JUMPDEST PUSH2 0xF2C DUP3 PUSH2 0x169A JUMP JUMPDEST PUSH1 0x40 MLOAD PUSH3 0xFE9549 PUSH1 0xE0 SHL DUP2 MSTORE DUP2 MLOAD PUSH1 0x4 DUP3 ADD MSTORE PUSH32 0x0 PUSH1 0x1 PUSH1 0x1 PUSH1 0xA0 SHL SUB AND SWAP1 PUSH1 0x20 DUP2 PUSH1 0x24 DUP2 DUP6 GAS STATICCALL SWAP1 DUP2 ISZERO PUSH2 0xC03 JUMPI PUSH0 SWAP2 PUSH2 0x1525 JUMPI JUMPDEST POP PUSH2 0x260 DUP5 ADD SWAP1 PUSH1 0x1A DUP2 LT ISZERO PUSH2 0x128 JUMPI DUP2 MSTORE PUSH1 0x40 MLOAD PUSH4 0x4E595AB PUSH1 0xE5 SHL DUP2 MSTORE PUSH1 0x20 DUP2 DUP1 PUSH2 0xFB2 DUP8 DUP10 PUSH1 0x4 DUP5 ADD PUSH2 0x5C7 JUMP JUMPDEST SUB DUP2 DUP7 GAS STATICCALL SWAP1 DUP2 ISZERO PUSH2 0xC03 JUMPI PUSH0 SWAP2 PUSH2 0x14EA JUMPI JUMPDEST POP PUSH1 0x1F DUP2 LT ISZERO PUSH2 0x128 JUMPI PUSH2 0x280 DUP6 ADD MSTORE PUSH1 0x40 MLOAD PUSH4 0xFB99DC2B PUSH1 0xE0 SHL DUP2 MSTORE PUSH1 0x20 DUP2 DUP1 PUSH2 0xFF4 DUP8 DUP10 PUSH1 0x4 DUP5 ADD PUSH2 0x5C7 JUMP JUMPDEST SUB DUP2 DUP7 GAS STATICCALL SWAP1 DUP2 ISZERO PUSH2 0xC03 JUMPI PUSH0 SWAP2 PUSH2 0x14AF JUMPI JUMPDEST POP PUSH1 0x13 DUP2 LT ISZERO PUSH2 0x128 JUMPI PUSH2 0x2A0 DUP6 ADD MSTORE PUSH1 0x40 MLOAD PUSH4 0x1C00525 PUSH1 0xE2 SHL DUP2 MSTORE DUP4 MLOAD PUSH1 0x4 DUP3 ADD MSTORE PUSH1 0x20 DUP2 PUSH1 0x24 DUP2 DUP7 GAS STATICCALL SWAP1 DUP2 ISZERO PUSH2 0xC03 JUMPI PUSH0 SWAP2 PUSH2 0x1474 JUMPI JUMPDEST POP PUSH2 0x104C DUP2 PUSH2 0x146 JUMP JUMPDEST PUSH2 0x2C0 DUP6 ADD MSTORE PUSH1 0x40 MLOAD PUSH4 0xD535A071 PUSH1 0xE0 SHL DUP2 MSTORE DUP4 MLOAD PUSH1 0x4 DUP3 ADD MSTORE PUSH1 0x20 DUP2 PUSH1 0x24 DUP2 DUP7 GAS STATICCALL SWAP1 DUP2 ISZERO PUSH2 0xC03 JUMPI PUSH0 SWAP2 PUSH2 0x1439 JUMPI JUMPDEST POP PUSH2 0x1087 DUP2 PUSH2 0x146 JUMP JUMPDEST PUSH2 0x2E0 DUP6 ADD MSTORE PUSH1 0x40 MLOAD PUSH4 0x1D6981CD PUSH1 0xE3 SHL DUP2 MSTORE DUP4 MLOAD PUSH1 0x4 DUP3 ADD MSTORE PUSH1 0x20 DUP2 PUSH1 0x24 DUP2 DUP7 GAS STATICCALL SWAP1 DUP2 ISZERO PUSH2 0xC03 JUMPI PUSH0 SWAP2 PUSH2 0x13FE JUMPI JUMPDEST POP PUSH1 0x15 DUP2 LT ISZERO PUSH2 0x128 JUMPI PUSH2 0x320 DUP6 ADD MSTORE PUSH1 0x40 MLOAD PUSH4 0x367D7393 PUSH1 0xE0 SHL DUP2 MSTORE DUP4 MLOAD PUSH1 0x4 DUP3 ADD MSTORE PUSH1 0x20 DUP2 PUSH1 0x24 DUP2 DUP7 GAS STATICCALL SWAP1 DUP2 ISZERO PUSH2 0xC03 JUMPI PUSH0 SWAP2 PUSH2 0x13C3 JUMPI JUMPDEST POP PUSH2 0x10FD DUP2 PUSH2 0x150 JUMP JUMPDEST PUSH2 0x300 DUP6 ADD MSTORE PUSH1 0x40 MLOAD PUSH4 0xEB3CA1D7 PUSH1 0xE0 SHL DUP2 MSTORE PUSH1 0x20 DUP2 DUP1 PUSH2 0x1122 DUP8 DUP10 PUSH1 0x4 DUP5 ADD PUSH2 0x5C7 JUMP JUMPDEST SUB DUP2 DUP7 GAS STATICCALL SWAP1 DUP2 ISZERO PUSH2 0xC03 JUMPI PUSH0 SWAP2 PUSH2 0x1388 JUMPI JUMPDEST POP PUSH1 0xC3 DUP2 LT ISZERO PUSH2 0x128 JUMPI PUSH2 0x340 DUP6 ADD MSTORE PUSH1 0x40 MLOAD PUSH4 0xB27CF703 PUSH1 0xE0 SHL DUP2 MSTORE PUSH1 0x20 DUP2 DUP1 PUSH2 0x1164 DUP8 DUP10 PUSH1 0x4 DUP5 ADD PUSH2 0x5C7 JUMP JUMPDEST SUB DUP2 DUP7 GAS STATICCALL SWAP1 DUP2 ISZERO PUSH2 0xC03 JUMPI PUSH0 SWAP2 PUSH2 0x134D JUMPI JUMPDEST POP PUSH1 0x85 DUP2 LT ISZERO PUSH2 0x128 JUMPI PUSH2 0x360 DUP6 ADD MSTORE PUSH1 0x40 MLOAD PUSH4 0x9D8B84F PUSH1 0xE4 SHL DUP2 MSTORE DUP4 MLOAD PUSH1 0x4 DUP3 ADD MSTORE SWAP2 PUSH1 0x20 DUP4 PUSH1 0x24 DUP2 DUP5 GAS STATICCALL SWAP3 DUP4 ISZERO PUSH2 0xC03 JUMPI PUSH0 SWAP4 PUSH2 0x1310 JUMPI JUMPDEST POP PUSH2 0x380 DUP6 ADD SWAP3 PUSH1 0x83 DUP2 LT ISZERO PUSH2 0x128 JUMPI DUP4 MSTORE PUSH1 0x40 MLOAD PUSH4 0x72D09567 PUSH1 0xE1 SHL DUP2 MSTORE DUP5 MLOAD PUSH1 0x4 DUP3 ADD MSTORE SWAP1 PUSH1 0x20 SWAP1 DUP3 SWAP1 PUSH1 0x24 SWAP1 DUP3 SWAP1 GAS STATICCALL SWAP1 DUP2 ISZERO PUSH2 0xC03 JUMPI PUSH0 SWAP2 PUSH2 0x12D5 JUMPI JUMPDEST POP PUSH1 0x7A DUP2 LT ISZERO PUSH2 0x128 JUMPI PUSH2 0x3A0 DUP6 ADD MSTORE MLOAD PUSH1 0x1A DUP2 LT ISZERO PUSH2 0x128 JUMPI PUSH2 0x1216 PUSH2 0x57E JUMP JUMPDEST SWAP1 PUSH1 0xFF SWAP1 PUSH1 0xE DUP4 MSTORE AND PUSH1 0x20 DUP3 ADD MSTORE PUSH0 PUSH1 0x40 DUP3 ADD MSTORE PUSH2 0x1245 DUP5 MLOAD SWAP2 PUSH1 0x20 DUP7 ADD SWAP3 PUSH1 0xFF DUP5 MLOAD AND SWAP2 PUSH2 0xA90 DUP4 DUP4 PUSH2 0x200C JUMP JUMPDEST POP PUSH1 0xFF DUP2 MLOAD AND PUSH1 0xFF DUP2 EQ PUSH2 0xC2A JUMPI PUSH1 0x1 ADD PUSH1 0xFF AND SWAP1 MSTORE PUSH2 0x1264 DUP4 PUSH2 0x16F5 JUMP JUMPDEST PUSH2 0x126D DUP4 PUSH2 0x174D JUMP JUMPDEST PUSH2 0x1276 DUP4 PUSH2 0x17A1 JUMP JUMPDEST PUSH2 0x127F DUP4 PUSH2 0x1807 JUMP JUMPDEST PUSH2 0x1288 DUP4 PUSH2 0x186D JUMP JUMPDEST PUSH2 0x1291 DUP4 PUSH2 0x18C1 JUMP JUMPDEST MLOAD PUSH1 0x83 DUP2 LT ISZERO PUSH2 0x128 JUMPI PUSH2 0xB3D SWAP2 PUSH1 0x20 SWAP2 ISZERO PUSH2 0x12C7 JUMPI PUSH2 0x12B0 DUP5 PUSH2 0x197B JUMP JUMPDEST PUSH2 0x12B9 DUP5 PUSH2 0x19CF JUMP JUMPDEST PUSH2 0x12C2 DUP5 PUSH2 0x1AA2 JUMP JUMPDEST PUSH2 0xB22 JUMP JUMPDEST PUSH2 0x12D0 DUP5 PUSH2 0x1927 JUMP JUMPDEST PUSH2 0x12B0 JUMP JUMPDEST SWAP1 POP PUSH1 0x20 DUP2 RETURNDATASIZE PUSH1 0x20 GT PUSH2 0x1308 JUMPI JUMPDEST DUP2 PUSH2 0x12F0 PUSH1 0x20 SWAP4 DUP4 PUSH2 0x42F JUMP JUMPDEST DUP2 ADD SUB SLT PUSH2 0x92 JUMPI MLOAD PUSH1 0x7A DUP2 LT ISZERO PUSH2 0x92 JUMPI PUSH0 PUSH2 0x11F4 JUMP JUMPDEST RETURNDATASIZE SWAP2 POP PUSH2 0x12E3 JUMP JUMPDEST SWAP1 SWAP3 POP PUSH1 0x20 DUP2 RETURNDATASIZE PUSH1 0x20 GT PUSH2 0x1345 JUMPI JUMPDEST DUP2 PUSH2 0x132C PUSH1 0x20 SWAP4 DUP4 PUSH2 0x42F JUMP JUMPDEST DUP2 ADD SUB SLT PUSH2 0x92 JUMPI MLOAD PUSH1 0x83 DUP2 LT ISZERO PUSH2 0x92 JUMPI SWAP2 PUSH0 PUSH2 0x11B3 JUMP JUMPDEST RETURNDATASIZE SWAP2 POP PUSH2 0x131F JUMP JUMPDEST SWAP1 POP PUSH1 0x20 DUP2 RETURNDATASIZE PUSH1 0x20 GT PUSH2 0x1380 JUMPI JUMPDEST DUP2 PUSH2 0x1368 PUSH1 0x20 SWAP4 DUP4 PUSH2 0x42F JUMP JUMPDEST DUP2 ADD SUB SLT PUSH2 0x92 JUMPI MLOAD PUSH1 0x85 DUP2 LT ISZERO PUSH2 0x92 JUMPI PUSH0 PUSH2 0x1177 JUMP JUMPDEST RETURNDATASIZE SWAP2 POP PUSH2 0x135B JUMP JUMPDEST SWAP1 POP PUSH1 0x20 DUP2 RETURNDATASIZE PUSH1 0x20 GT PUSH2 0x13BB JUMPI JUMPDEST DUP2 PUSH2 0x13A3 PUSH1 0x20 SWAP4 DUP4 PUSH2 0x42F JUMP JUMPDEST DUP2 ADD SUB SLT PUSH2 0x92 JUMPI MLOAD PUSH1 0xC3 DUP2 LT ISZERO PUSH2 0x92 JUMPI PUSH0 PUSH2 0x1135 JUMP JUMPDEST RETURNDATASIZE SWAP2 POP PUSH2 0x1396 JUMP JUMPDEST SWAP1 POP PUSH1 0x20 DUP2 RETURNDATASIZE PUSH1 0x20 GT PUSH2 0x13F6 JUMPI JUMPDEST DUP2 PUSH2 0x13DE PUSH1 0x20 SWAP4 DUP4 PUSH2 0x42F JUMP JUMPDEST DUP2 ADD SUB SLT PUSH2 0x92 JUMPI MLOAD PUSH1 0x4 DUP2 LT ISZERO PUSH2 0x92 JUMPI PUSH0 PUSH2 0x10F3 JUMP JUMPDEST RETURNDATASIZE SWAP2 POP PUSH2 0x13D1 JUMP JUMPDEST SWAP1 POP PUSH1 0x20 DUP2 RETURNDATASIZE PUSH1 0x20 GT PUSH2 0x1431 JUMPI JUMPDEST DUP2 PUSH2 0x1419 PUSH1 0x20 SWAP4 DUP4 PUSH2 0x42F JUMP JUMPDEST DUP2 ADD SUB SLT PUSH2 0x92 JUMPI MLOAD PUSH1 0x15 DUP2 LT ISZERO PUSH2 0x92 JUMPI PUSH0 PUSH2 0x10B8 JUMP JUMPDEST RETURNDATASIZE SWAP2 POP PUSH2 0x140C JUMP JUMPDEST SWAP1 POP PUSH1 0x20 DUP2 RETURNDATASIZE PUSH1 0x20 GT PUSH2 0x146C JUMPI JUMPDEST DUP2 PUSH2 0x1454 PUSH1 0x20 SWAP4 DUP4 PUSH2 0x42F JUMP JUMPDEST DUP2 ADD SUB SLT PUSH2 0x92 JUMPI MLOAD PUSH1 0x9 DUP2 LT ISZERO PUSH2 0x92 JUMPI PUSH0 PUSH2 0x107D JUMP JUMPDEST RETURNDATASIZE SWAP2 POP PUSH2 0x1447 JUMP JUMPDEST SWAP1 POP PUSH1 0x20 DUP2 RETURNDATASIZE PUSH1 0x20 GT PUSH2 0x14A7 JUMPI JUMPDEST DUP2 PUSH2 0x148F PUSH1 0x20 SWAP4 DUP4 PUSH2 0x42F JUMP JUMPDEST DUP2 ADD SUB SLT PUSH2 0x92 JUMPI MLOAD PUSH1 0x9 DUP2 LT ISZERO PUSH2 0x92 JUMPI PUSH0 PUSH2 0x1042 JUMP JUMPDEST RETURNDATASIZE SWAP2 POP PUSH2 0x1482 JUMP JUMPDEST SWAP1 POP PUSH1 0x20 DUP2 RETURNDATASIZE PUSH1 0x20 GT PUSH2 0x14E2 JUMPI JUMPDEST DUP2 PUSH2 0x14CA PUSH1 0x20 SWAP4 DUP4 PUSH2 0x42F JUMP JUMPDEST DUP2 ADD SUB SLT PUSH2 0x92 JUMPI MLOAD PUSH1 0x13 DUP2 LT ISZERO PUSH2 0x92 JUMPI PUSH0 PUSH2 0x1007 JUMP JUMPDEST RETURNDATASIZE SWAP2 POP PUSH2 0x14BD JUMP JUMPDEST SWAP1 POP PUSH1 0x20 DUP2 RETURNDATASIZE PUSH1 0x20 GT PUSH2 0x151D JUMPI JUMPDEST DUP2 PUSH2 0x1505 PUSH1 0x20 SWAP4 DUP4 PUSH2 0x42F JUMP JUMPDEST DUP2 ADD SUB SLT PUSH2 0x92 JUMPI MLOAD PUSH1 0x1F DUP2 LT ISZERO PUSH2 0x92 JUMPI PUSH0 PUSH2 0xFC5 JUMP JUMPDEST RETURNDATASIZE SWAP2 POP PUSH2 0x14F8 JUMP JUMPDEST SWAP1 POP PUSH1 0x20 DUP2 RETURNDATASIZE PUSH1 0x20 GT PUSH2 0x1558 JUMPI JUMPDEST DUP2 PUSH2 0x1540 PUSH1 0x20 SWAP4 DUP4 PUSH2 0x42F JUMP JUMPDEST DUP2 ADD SUB SLT PUSH2 0x92 JUMPI MLOAD PUSH1 0x1A DUP2 LT ISZERO PUSH2 0x92 JUMPI PUSH0 PUSH2 0xF81 JUMP JUMPDEST RETURNDATASIZE SWAP2 POP PUSH2 0x1533 JUMP JUMPDEST PUSH1 0x1 PUSH2 0x6FB JUMP JUMPDEST PUSH0 NOT ADD SWAP3 POP SWAP1 POP PUSH2 0xFFFF DUP3 GT PUSH2 0xC2A JUMPI PUSH2 0xFFFF DUP3 AND PUSH1 0x4 DUP2 EQ SWAP1 DUP2 ISZERO PUSH2 0x165D JUMPI JUMPDEST DUP2 ISZERO PUSH2 0x1652 JUMPI JUMPDEST DUP2 ISZERO PUSH2 0x1647 JUMPI JUMPDEST DUP2 ISZERO PUSH2 0x163C JUMPI JUMPDEST DUP2 ISZERO PUSH2 0x1631 JUMPI JUMPDEST DUP2 ISZERO PUSH2 0x1626 JUMPI JUMPDEST POP PUSH2 0x1621 JUMPI PUSH1 0xFF AND PUSH1 0x5 DUP2 LT ISZERO PUSH2 0x128 JUMPI PUSH2 0x15C9 SWAP1 PUSH1 0xC0 DUP5 ADD PUSH2 0x5BB JUMP JUMPDEST PUSH2 0x15D2 DUP3 PUSH2 0x169A JUMP JUMPDEST PUSH2 0x15DA PUSH2 0x57E JUMP JUMPDEST SWAP1 PUSH1 0xFF SWAP1 PUSH0 DUP4 MSTORE AND PUSH1 0x20 DUP3 ADD MSTORE PUSH0 PUSH1 0x40 DUP3 ADD MSTORE PUSH2 0x1608 DUP3 MLOAD SWAP2 PUSH1 0x20 DUP5 ADD SWAP3 PUSH1 0xFF DUP5 MLOAD AND SWAP2 PUSH2 0xA90 DUP4 DUP4 PUSH2 0x200C JUMP JUMPDEST POP PUSH1 0xFF DUP2 MLOAD AND PUSH1 0xFF DUP2 EQ PUSH2 0xC2A JUMPI PUSH1 0x1 ADD PUSH1 0xFF AND SWAP1 MSTORE SWAP1 JUMP JUMPDEST POP POP SWAP1 JUMP JUMPDEST PUSH1 0xD SWAP2 POP EQ PUSH0 PUSH2 0x15AB JUMP JUMPDEST PUSH1 0xB DUP2 EQ SWAP2 POP PUSH2 0x15A4 JUMP JUMPDEST PUSH1 0x8 DUP2 EQ SWAP2 POP PUSH2 0x159D JUMP JUMPDEST PUSH1 0x7 DUP2 EQ SWAP2 POP PUSH2 0x1596 JUMP JUMPDEST PUSH1 0x6 DUP2 EQ SWAP2 POP PUSH2 0x158F JUMP JUMPDEST PUSH1 0x5 DUP2 EQ SWAP2 POP PUSH2 0x1588 JUMP JUMPDEST PUSH1 0x1 ADD PUSH2 0xFFFF DUP2 GT PUSH2 0xC2A JUMPI PUSH2 0xFFFF AND PUSH1 0x60 DUP6 ADD MSTORE PUSH0 PUSH2 0x686 JUMP JUMPDEST PUSH1 0x20 SWAP1 PUSH2 0x168E PUSH2 0x57E JUMP JUMPDEST DUP3 DUP3 DUP7 ADD ADD MSTORE ADD PUSH2 0x66C JUMP JUMPDEST PUSH1 0xC0 DUP2 ADD MLOAD PUSH1 0x5 DUP2 LT ISZERO PUSH2 0x128 JUMPI PUSH2 0x16B0 PUSH2 0x57E JUMP JUMPDEST PUSH1 0xFF PUSH2 0x16DD SWAP3 PUSH1 0x1 DUP4 MSTORE AND PUSH1 0x20 DUP3 ADD MSTORE PUSH0 PUSH1 0x40 DUP3 ADD MSTORE PUSH1 0x20 DUP4 MLOAD SWAP4 ADD SWAP3 PUSH1 0xFF DUP5 MLOAD AND SWAP2 PUSH2 0xA90 DUP4 DUP4 PUSH2 0x200C JUMP JUMPDEST POP PUSH1 0xFF DUP2 MLOAD AND PUSH1 0xFF DUP2 EQ PUSH2 0xC2A JUMPI PUSH1 0x1 ADD PUSH1 0xFF AND SWAP1 MSTORE JUMP JUMPDEST PUSH2 0x280 DUP2 ADD DUP1 MLOAD PUSH1 0x1F DUP2 LT ISZERO PUSH2 0x128 JUMPI ISZERO PUSH2 0x1749 JUMPI MLOAD PUSH1 0x1F DUP2 LT ISZERO PUSH2 0x128 JUMPI PUSH2 0x171C PUSH2 0x57E JUMP JUMPDEST PUSH1 0xFF PUSH2 0x16DD SWAP3 PUSH1 0xF DUP4 MSTORE AND PUSH1 0x20 DUP3 ADD MSTORE PUSH0 PUSH1 0x40 DUP3 ADD MSTORE PUSH1 0x20 DUP4 MLOAD SWAP4 ADD SWAP3 PUSH1 0xFF DUP5 MLOAD AND SWAP2 PUSH2 0xA90 DUP4 DUP4 PUSH2 0x200C JUMP JUMPDEST POP POP JUMP JUMPDEST PUSH2 0x2A0 DUP2 ADD DUP1 MLOAD PUSH1 0x13 DUP2 LT ISZERO PUSH2 0x128 JUMPI ISZERO PUSH2 0x1749 JUMPI MLOAD PUSH1 0x13 DUP2 LT ISZERO PUSH2 0x128 JUMPI PUSH2 0x1774 PUSH2 0x57E JUMP JUMPDEST PUSH1 0xFF PUSH2 0x16DD SWAP3 PUSH1 0x10 DUP4 MSTORE AND PUSH1 0x20 DUP3 ADD MSTORE PUSH0 PUSH1 0x40 DUP3 ADD MSTORE PUSH1 0x20 DUP4 MLOAD SWAP4 ADD SWAP3 PUSH1 0xFF DUP5 MLOAD AND SWAP2 PUSH2 0xA90 DUP4 DUP4 PUSH2 0x200C JUMP JUMPDEST PUSH2 0x2C0 DUP2 ADD DUP1 MLOAD PUSH2 0x17B1 DUP2 PUSH2 0x146 JUMP JUMPDEST PUSH2 0x17BA DUP2 PUSH2 0x146 JUMP JUMPDEST ISZERO PUSH2 0x1749 JUMPI MLOAD PUSH2 0x17C9 DUP2 PUSH2 0x146 JUMP JUMPDEST PUSH2 0x17D2 DUP2 PUSH2 0x146 JUMP JUMPDEST PUSH2 0x17DA PUSH2 0x57E JUMP JUMPDEST PUSH1 0xFF PUSH2 0x16DD SWAP3 PUSH1 0x11 DUP4 MSTORE AND PUSH1 0x20 DUP3 ADD MSTORE PUSH0 PUSH1 0x40 DUP3 ADD MSTORE PUSH1 0x20 DUP4 MLOAD SWAP4 ADD SWAP3 PUSH1 0xFF DUP5 MLOAD AND SWAP2 PUSH2 0xA90 DUP4 DUP4 PUSH2 0x200C JUMP JUMPDEST PUSH2 0x2E0 DUP2 ADD DUP1 MLOAD PUSH2 0x1817 DUP2 PUSH2 0x146 JUMP JUMPDEST PUSH2 0x1820 DUP2 PUSH2 0x146 JUMP JUMPDEST ISZERO PUSH2 0x1749 JUMPI MLOAD PUSH2 0x182F DUP2 PUSH2 0x146 JUMP JUMPDEST PUSH2 0x1838 DUP2 PUSH2 0x146 JUMP JUMPDEST PUSH2 0x1840 PUSH2 0x57E JUMP JUMPDEST PUSH1 0xFF PUSH2 0x16DD SWAP3 PUSH1 0x12 DUP4 MSTORE AND PUSH1 0x20 DUP3 ADD MSTORE PUSH0 PUSH1 0x40 DUP3 ADD MSTORE PUSH1 0x20 DUP4 MLOAD SWAP4 ADD SWAP3 PUSH1 0xFF DUP5 MLOAD AND SWAP2 PUSH2 0xA90 DUP4 DUP4 PUSH2 0x200C JUMP JUMPDEST PUSH2 0x320 DUP2 ADD DUP1 MLOAD PUSH1 0x15 DUP2 LT ISZERO PUSH2 0x128 JUMPI ISZERO PUSH2 0x1749 JUMPI MLOAD PUSH1 0x15 DUP2 LT ISZERO PUSH2 0x128 JUMPI PUSH2 0x1894 PUSH2 0x57E JUMP JUMPDEST PUSH1 0xFF PUSH2 0x16DD SWAP3 PUSH1 0x13 DUP4 MSTORE AND PUSH1 0x20 DUP3 ADD MSTORE PUSH0 PUSH1 0x40 DUP3 ADD MSTORE PUSH1 0x20 DUP4 MLOAD SWAP4 ADD SWAP3 PUSH1 0xFF DUP5 MLOAD AND SWAP2 PUSH2 0xA90 DUP4 DUP4 PUSH2 0x200C JUMP JUMPDEST PUSH2 0x300 DUP2 ADD DUP1 MLOAD PUSH2 0x18D1 DUP2 PUSH2 0x150 JUMP JUMPDEST PUSH2 0x18DA DUP2 PUSH2 0x150 JUMP JUMPDEST ISZERO PUSH2 0x1749 JUMPI MLOAD PUSH2 0x18E9 DUP2 PUSH2 0x150 JUMP JUMPDEST PUSH2 0x18F2 DUP2 PUSH2 0x150 JUMP JUMPDEST PUSH2 0x18FA PUSH2 0x57E JUMP JUMPDEST PUSH1 0xFF PUSH2 0x16DD SWAP3 PUSH1 0x14 DUP4 MSTORE AND PUSH1 0x20 DUP3 ADD MSTORE PUSH0 PUSH1 0x40 DUP3 ADD MSTORE PUSH1 0x20 DUP4 MLOAD SWAP4 ADD SWAP3 PUSH1 0xFF DUP5 MLOAD AND SWAP2 PUSH2 0xA90 DUP4 DUP4 PUSH2 0x200C JUMP JUMPDEST PUSH2 0x340 DUP2 ADD DUP1 MLOAD PUSH1 0xC3 DUP2 LT ISZERO PUSH2 0x128 JUMPI ISZERO PUSH2 0x1749 JUMPI MLOAD PUSH1 0xC3 DUP2 LT ISZERO PUSH2 0x128 JUMPI PUSH2 0x194E PUSH2 0x57E JUMP JUMPDEST PUSH1 0xFF PUSH2 0x16DD SWAP3 PUSH1 0x15 DUP4 MSTORE AND PUSH1 0x20 DUP3 ADD MSTORE PUSH0 PUSH1 0x40 DUP3 ADD MSTORE PUSH1 0x20 DUP4 MLOAD SWAP4 ADD SWAP3 PUSH1 0xFF DUP5 MLOAD AND SWAP2 PUSH2 0xA90 DUP4 DUP4 PUSH2 0x200C JUMP JUMPDEST PUSH2 0x360 DUP2 ADD DUP1 MLOAD PUSH1 0x85 DUP2 LT ISZERO PUSH2 0x128 JUMPI ISZERO PUSH2 0x1749 JUMPI MLOAD PUSH1 0x85 DUP2 LT ISZERO PUSH2 0x128 JUMPI PUSH2 0x19A2 PUSH2 0x57E JUMP JUMPDEST PUSH1 0xFF PUSH2 0x16DD SWAP3 PUSH1 0x16 DUP4 MSTORE AND PUSH1 0x20 DUP3 ADD MSTORE PUSH0 PUSH1 0x40 DUP3 ADD MSTORE PUSH1 0x20 DUP4 MLOAD SWAP4 ADD SWAP3 PUSH1 0xFF DUP5 MLOAD AND SWAP2 PUSH2 0xA90 DUP4 DUP4 PUSH2 0x200C JUMP JUMPDEST PUSH2 0x380 DUP2 ADD DUP1 MLOAD PUSH1 0x83 DUP2 LT ISZERO PUSH2 0x128 JUMPI ISZERO PUSH2 0x1749 JUMPI MLOAD SWAP1 PUSH1 0x83 DUP3 LT ISZERO PUSH2 0x128 JUMPI PUSH2 0x19F7 PUSH2 0x57E JUMP JUMPDEST SWAP2 PUSH1 0xFF SWAP1 PUSH1 0x17 DUP5 MSTORE AND PUSH1 0x20 DUP4 ADD MSTORE PUSH0 PUSH1 0x40 DUP4 ADD MSTORE PUSH2 0x1A26 DUP2 MLOAD SWAP3 PUSH1 0x20 DUP4 ADD SWAP4 PUSH1 0xFF DUP6 MLOAD AND SWAP2 PUSH2 0xA90 DUP4 DUP4 PUSH2 0x200C JUMP JUMPDEST POP PUSH1 0xFF DUP3 MLOAD AND PUSH1 0xFF DUP2 EQ PUSH2 0xC2A JUMPI PUSH1 0x1 ADD PUSH1 0xFF AND DUP3 MSTORE PUSH2 0x260 DUP2 ADD MLOAD PUSH1 0x1A DUP2 LT ISZERO PUSH2 0x128 JUMPI PUSH1 0x15 EQ PUSH2 0x1A56 JUMPI POP POP JUMP JUMPDEST PUSH2 0x1A5E PUSH2 0x555 JUMP JUMPDEST SWAP2 PUSH1 0x1A DUP4 MSTORE PUSH1 0x1 PUSH1 0x20 DUP5 ADD MSTORE PUSH1 0xFF PUSH0 NOT SWAP2 MLOAD AND ADD PUSH1 0xFF DUP2 GT PUSH2 0xC2A JUMPI PUSH1 0x60 SWAP2 PUSH1 0xFF PUSH2 0x1A9D SWAP3 AND SWAP1 PUSH1 0x1 PUSH1 0x40 PUSH2 0x1A94 DUP5 DUP5 MLOAD PUSH2 0x200C JUMP JUMPDEST MLOAD ADD MSTORE MLOAD PUSH2 0x200C JUMP JUMPDEST MLOAD ADD MSTORE JUMP JUMPDEST PUSH2 0x3A0 DUP2 ADD DUP1 MLOAD PUSH1 0x7A DUP2 LT ISZERO PUSH2 0x128 JUMPI ISZERO PUSH2 0x1749 JUMPI MLOAD PUSH1 0x7A DUP2 LT ISZERO PUSH2 0x128 JUMPI PUSH2 0x1AC9 PUSH2 0x57E JUMP JUMPDEST PUSH1 0xFF PUSH2 0x16DD SWAP3 PUSH1 0x18 DUP4 MSTORE AND PUSH1 0x20 DUP3 ADD MSTORE PUSH0 PUSH1 0x40 DUP3 ADD MSTORE PUSH1 0x20 DUP4 MLOAD SWAP4 ADD SWAP3 PUSH1 0xFF DUP5 MLOAD AND SWAP2 PUSH2 0xA90 DUP4 DUP4 PUSH2 0x200C JUMP JUMPDEST PUSH2 0x100 DUP2 ADD DUP1 MLOAD PUSH2 0x1B06 DUP2 PUSH2 0x13C JUMP JUMPDEST PUSH2 0x1B0F DUP2 PUSH2 0x13C JUMP JUMPDEST ISZERO PUSH2 0x1749 JUMPI MLOAD PUSH2 0x1B1E DUP2 PUSH2 0x13C JUMP JUMPDEST PUSH2 0x1B27 DUP2 PUSH2 0x13C JUMP JUMPDEST PUSH2 0x1B2F PUSH2 0x57E JUMP JUMPDEST PUSH1 0xFF PUSH2 0x16DD SWAP3 PUSH1 0x3 DUP4 MSTORE AND PUSH1 0x20 DUP3 ADD MSTORE PUSH0 PUSH1 0x40 DUP3 ADD MSTORE PUSH1 0x20 DUP4 MLOAD SWAP4 ADD SWAP3 PUSH1 0xFF DUP5 MLOAD AND SWAP2 PUSH2 0xA90 DUP4 DUP4 PUSH2 0x200C JUMP JUMPDEST PUSH2 0x120 DUP2 ADD DUP1 MLOAD PUSH1 0x14 DUP2 LT ISZERO PUSH2 0x128 JUMPI ISZERO PUSH2 0x1749 JUMPI MLOAD PUSH1 0x14 DUP2 LT ISZERO PUSH2 0x128 JUMPI PUSH2 0x1B83 PUSH2 0x57E JUMP JUMPDEST PUSH1 0xFF PUSH2 0x16DD SWAP3 PUSH1 0x4 DUP4 MSTORE AND PUSH1 0x20 DUP3 ADD MSTORE PUSH0 PUSH1 0x40 DUP3 ADD MSTORE PUSH1 0x20 DUP4 MLOAD SWAP4 ADD SWAP3 PUSH1 0xFF DUP5 MLOAD AND SWAP2 PUSH2 0xA90 DUP4 DUP4 PUSH2 0x200C JUMP JUMPDEST PUSH2 0x140 DUP2 ADD DUP1 MLOAD PUSH2 0x1BC0 DUP2 PUSH2 0x146 JUMP JUMPDEST PUSH2 0x1BC9 DUP2 PUSH2 0x146 JUMP JUMPDEST ISZERO PUSH2 0x1749 JUMPI MLOAD PUSH2 0x1BD8 DUP2 PUSH2 0x146 JUMP JUMPDEST PUSH2 0x1BE1 DUP2 PUSH2 0x146 JUMP JUMPDEST PUSH2 0x1BE9 PUSH2 0x57E JUMP JUMPDEST PUSH1 0xFF PUSH2 0x16DD SWAP3 PUSH1 0x5 DUP4 MSTORE AND PUSH1 0x20 DUP3 ADD MSTORE PUSH0 PUSH1 0x40 DUP3 ADD MSTORE PUSH1 0x20 DUP4 MLOAD SWAP4 ADD SWAP3 PUSH1 0xFF DUP5 MLOAD AND SWAP2 PUSH2 0xA90 DUP4 DUP4 PUSH2 0x200C JUMP JUMPDEST PUSH2 0x160 DUP2 ADD DUP1 MLOAD PUSH2 0x1C26 DUP2 PUSH2 0x146 JUMP JUMPDEST PUSH2 0x1C2F DUP2 PUSH2 0x146 JUMP JUMPDEST ISZERO PUSH2 0x1749 JUMPI MLOAD PUSH2 0x1C3E DUP2 PUSH2 0x146 JUMP JUMPDEST PUSH2 0x1C47 DUP2 PUSH2 0x146 JUMP JUMPDEST PUSH2 0x1C4F PUSH2 0x57E JUMP JUMPDEST PUSH1 0xFF PUSH2 0x16DD SWAP3 PUSH1 0x6 DUP4 MSTORE AND PUSH1 0x20 DUP3 ADD MSTORE PUSH0 PUSH1 0x40 DUP3 ADD MSTORE PUSH1 0x20 DUP4 MLOAD SWAP4 ADD SWAP3 PUSH1 0xFF DUP5 MLOAD AND SWAP2 PUSH2 0xA90 DUP4 DUP4 PUSH2 0x200C JUMP JUMPDEST PUSH2 0x1C0 DUP2 ADD DUP1 MLOAD PUSH1 0x16 DUP2 LT ISZERO PUSH2 0x128 JUMPI ISZERO PUSH2 0x1749 JUMPI MLOAD PUSH1 0x16 DUP2 LT ISZERO PUSH2 0x128 JUMPI PUSH2 0x1CA3 PUSH2 0x57E JUMP JUMPDEST PUSH1 0xFF PUSH2 0x16DD SWAP3 PUSH1 0x8 DUP4 MSTORE AND PUSH1 0x20 DUP3 ADD MSTORE PUSH0 PUSH1 0x40 DUP3 ADD MSTORE PUSH1 0x20 DUP4 MLOAD SWAP4 ADD SWAP3 PUSH1 0xFF DUP5 MLOAD AND SWAP2 PUSH2 0xA90 DUP4 DUP4 PUSH2 0x200C JUMP JUMPDEST PUSH2 0x1A0 DUP2 ADD DUP1 MLOAD PUSH1 0x58 DUP2 LT ISZERO PUSH2 0x128 JUMPI ISZERO PUSH2 0x1749 JUMPI MLOAD PUSH1 0x58 DUP2 LT ISZERO PUSH2 0x128 JUMPI PUSH2 0x1CF7 PUSH2 0x57E JUMP JUMPDEST PUSH1 0xFF PUSH2 0x16DD SWAP3 PUSH1 0x7 DUP4 MSTORE AND PUSH1 0x20 DUP3 ADD MSTORE PUSH0 PUSH1 0x40 DUP3 ADD MSTORE PUSH1 0x20 DUP4 MLOAD SWAP4 ADD SWAP3 PUSH1 0xFF DUP5 MLOAD AND SWAP2 PUSH2 0xA90 DUP4 DUP4 PUSH2 0x200C JUMP JUMPDEST PUSH2 0x180 DUP2 ADD DUP1 MLOAD PUSH2 0x1D34 DUP2 PUSH2 0x150 JUMP JUMPDEST PUSH2 0x1D3D DUP2 PUSH2 0x150 JUMP JUMPDEST ISZERO PUSH2 0x1749 JUMPI MLOAD PUSH2 0x1D4C DUP2 PUSH2 0x150 JUMP JUMPDEST PUSH2 0x1D55 DUP2 PUSH2 0x150 JUMP JUMPDEST PUSH2 0x1D5D PUSH2 0x57E JUMP JUMPDEST PUSH1 0xFF PUSH2 0x16DD SWAP3 PUSH1 0x9 DUP4 MSTORE AND PUSH1 0x20 DUP3 ADD MSTORE PUSH0 PUSH1 0x40 DUP3 ADD MSTORE PUSH1 0x20 DUP4 MLOAD SWAP4 ADD SWAP3 PUSH1 0xFF DUP5 MLOAD AND SWAP2 PUSH2 0xA90 DUP4 DUP4 PUSH2 0x200C JUMP JUMPDEST PUSH2 0x1E0 DUP2 ADD DUP1 MLOAD PUSH1 0xD4 DUP2 LT ISZERO PUSH2 0x128 JUMPI ISZERO PUSH2 0x1749 JUMPI MLOAD PUSH1 0xD4 DUP2 LT ISZERO PUSH2 0x128 JUMPI PUSH2 0x1DB1 PUSH2 0x57E JUMP JUMPDEST PUSH1 0xFF PUSH2 0x16DD SWAP3 PUSH1 0xA DUP4 MSTORE AND PUSH1 0x20 DUP3 ADD MSTORE PUSH0 PUSH1 0x40 DUP3 ADD MSTORE PUSH1 0x20 DUP4 MLOAD SWAP4 ADD SWAP3 PUSH1 0xFF DUP5 MLOAD AND SWAP2 PUSH2 0xA90 DUP4 DUP4 PUSH2 0x200C JUMP JUMPDEST PUSH2 0x200 DUP2 ADD DUP1 MLOAD PUSH1 0x6A DUP2 LT ISZERO PUSH2 0x128 JUMPI ISZERO PUSH2 0x1749 JUMPI MLOAD PUSH1 0x6A DUP2 LT ISZERO PUSH2 0x128 JUMPI PUSH2 0x1E05 PUSH2 0x57E JUMP JUMPDEST PUSH1 0xFF PUSH2 0x16DD SWAP3 PUSH1 0xB DUP4 MSTORE AND PUSH1 0x20 DUP3 ADD MSTORE PUSH0 PUSH1 0x40 DUP3 ADD MSTORE PUSH1 0x20 DUP4 MLOAD SWAP4 ADD SWAP3 PUSH1 0xFF DUP5 MLOAD AND SWAP2 PUSH2 0xA90 DUP4 DUP4 PUSH2 0x200C JUMP JUMPDEST PUSH2 0x220 DUP2 ADD DUP1 MLOAD PUSH1 0xA9 DUP2 LT ISZERO PUSH2 0x128 JUMPI ISZERO PUSH2 0x1749 JUMPI MLOAD SWAP1 PUSH1 0xA9 DUP3 LT ISZERO PUSH2 0x128 JUMPI PUSH2 0x1E5A PUSH2 0x57E JUMP JUMPDEST SWAP2 PUSH1 0xFF SWAP1 PUSH1 0xC DUP5 MSTORE AND PUSH1 0x20 DUP4 ADD MSTORE PUSH0 PUSH1 0x40 DUP4 ADD MSTORE PUSH2 0x1E89 DUP2 MLOAD SWAP3 PUSH1 0x20 DUP4 ADD SWAP4 PUSH1 0xFF DUP6 MLOAD AND SWAP2 PUSH2 0xA90 DUP4 DUP4 PUSH2 0x200C JUMP JUMPDEST POP PUSH1 0xFF DUP3 MLOAD AND PUSH1 0xFF DUP2 EQ PUSH2 0xC2A JUMPI PUSH1 0x1 ADD PUSH1 0xFF AND DUP3 MSTORE PUSH1 0xE0 DUP2 ADD DUP1 MLOAD PUSH1 0x1D DUP2 LT ISZERO PUSH2 0x128 JUMPI PUSH1 0x16 EQ PUSH2 0x1F09 JUMPI JUMPDEST MLOAD PUSH1 0x1D DUP2 LT ISZERO PUSH2 0x128 JUMPI PUSH1 0x15 EQ PUSH2 0x1ECB JUMPI POP POP JUMP JUMPDEST PUSH2 0x1ED3 PUSH2 0x555 JUMP JUMPDEST SWAP2 PUSH1 0x1A DUP4 MSTORE PUSH1 0x2 PUSH1 0x20 DUP5 ADD MSTORE PUSH1 0xFF PUSH0 NOT SWAP2 MLOAD AND ADD PUSH1 0xFF DUP2 GT PUSH2 0xC2A JUMPI PUSH1 0x60 SWAP2 PUSH1 0xFF PUSH2 0x1A9D SWAP3 AND SWAP1 PUSH1 0x1 PUSH1 0x40 PUSH2 0x1A94 DUP5 DUP5 MLOAD PUSH2 0x200C JUMP JUMPDEST PUSH2 0x1F11 PUSH2 0x555 JUMP JUMPDEST PUSH1 0x1A DUP2 MSTORE PUSH1 0x3 PUSH1 0x20 DUP3 ADD MSTORE PUSH0 NOT PUSH1 0xFF DUP6 MLOAD AND ADD PUSH1 0xFF DUP2 GT PUSH2 0xC2A JUMPI PUSH2 0x1F4E PUSH1 0xFF PUSH1 0x60 SWAP3 AND PUSH1 0x1 PUSH1 0x40 PUSH2 0x1F44 DUP4 DUP10 MLOAD PUSH2 0x200C JUMP JUMPDEST MLOAD ADD MSTORE DUP6 MLOAD PUSH2 0x200C JUMP JUMPDEST MLOAD ADD MSTORE PUSH2 0x1EB6 JUMP JUMPDEST PUSH2 0x240 DUP2 ADD DUP1 MLOAD PUSH1 0x80 DUP2 LT ISZERO PUSH2 0x128 JUMPI ISZERO PUSH2 0x1749 JUMPI MLOAD PUSH1 0x80 DUP2 LT ISZERO PUSH2 0x128 JUMPI PUSH2 0x1F7D PUSH2 0x57E JUMP JUMPDEST PUSH1 0xFF PUSH2 0x16DD SWAP3 PUSH1 0xD DUP4 MSTORE AND PUSH1 0x20 DUP3 ADD MSTORE PUSH0 PUSH1 0x40 DUP3 ADD MSTORE PUSH1 0x20 DUP4 MLOAD SWAP4 ADD SWAP3 PUSH1 0xFF DUP5 MLOAD AND SWAP2 PUSH2 0xA90 DUP4 DUP4 PUSH2 0x200C JUMP JUMPDEST PUSH2 0x3C0 DUP2 ADD DUP1 MLOAD PUSH2 0x1FBA DUP2 PUSH2 0x13C JUMP JUMPDEST PUSH2 0x1FC3 DUP2 PUSH2 0x13C JUMP JUMPDEST ISZERO PUSH2 0x1749 JUMPI MLOAD PUSH2 0x1FD2 DUP2 PUSH2 0x13C JUMP JUMPDEST PUSH2 0x1FDB DUP2 PUSH2 0x13C JUMP JUMPDEST PUSH2 0x1FE3 PUSH2 0x57E JUMP JUMPDEST PUSH1 0xFF PUSH2 0x16DD SWAP3 PUSH1 0x19 DUP4 MSTORE AND PUSH1 0x20 DUP3 ADD MSTORE PUSH0 PUSH1 0x40 DUP3 ADD MSTORE PUSH1 0x20 DUP4 MLOAD SWAP4 ADD SWAP3 PUSH1 0xFF DUP5 MLOAD AND SWAP2 PUSH2 0xA90 DUP4 DUP4 JUMPDEST DUP1 MLOAD DUP3 LT ISZERO PUSH2 0x2020 JUMPI PUSH1 0x20 SWAP2 PUSH1 0x5 SHL ADD ADD SWAP1 JUMP JUMPDEST PUSH4 0x4E487B71 PUSH1 0xE0 SHL PUSH0 MSTORE PUSH1 0x32 PUSH1 0x4 MSTORE PUSH1 0x24 PUSH0 REVERT INVALID LOG2 PUSH5 0x6970667358 0x22 SLT KECCAK256 CALLCODE PUSH18 0x83B498910697822909C8179C8B896AB9A7F8 SWAP4 0xB4 0x4F POP 0xDE PUSH11 0x33F518B35CBF64736F6C63 NUMBER STOP ADDMOD 0x1E STOP CALLER "
				},
				"gasEstimates": {
					"creation": {
						"codeDepositCost": "1659600",
						"executionCost": "infinite",
						"totalCost": "infinite"
					},
					"external": {
						"FEMALE_PROBS_CONTRACT()": "infinite",
						"MALE_PROBS_CONTRACT()": "infinite",
						"generateAllTraits(uint16,uint8,uint256)": "infinite"
					},
					"internal": {
						"_addBackground(struct TraitsContext memory)": "infinite",
						"_addFemaleChain(struct TraitsContext memory)": "infinite",
						"_addFemaleEarring(struct TraitsContext memory)": "infinite",
						"_addFemaleEyeWear(struct TraitsContext memory)": "infinite",
						"_addFemaleEyes(struct TraitsContext memory)": "infinite",
						"_addFemaleFace(struct TraitsContext memory)": "infinite",
						"_addFemaleHair(struct TraitsContext memory)": "infinite",
						"_addFemaleHatHair(struct TraitsContext memory)": "infinite",
						"_addFemaleHeadwear(struct TraitsContext memory)": "infinite",
						"_addFemaleMask(struct TraitsContext memory)": "infinite",
						"_addFemaleScarf(struct TraitsContext memory)": "infinite",
						"_addFemaleSkin(struct TraitsContext memory)": "infinite",
						"_addFillerTrait(struct TraitsContext memory,enum E_TraitsGroup,uint8)": "infinite",
						"_addMaleChain(struct TraitsContext memory)": "infinite",
						"_addMaleEarring(struct TraitsContext memory)": "infinite",
						"_addMaleEyeWear(struct TraitsContext memory)": "infinite",
						"_addMaleEyes(struct TraitsContext memory)": "infinite",
						"_addMaleFace(struct TraitsContext memory)": "infinite",
						"_addMaleFacialHair(struct TraitsContext memory)": "infinite",
						"_addMaleHair(struct TraitsContext memory)": "infinite",
						"_addMaleHatHair(struct TraitsContext memory)": "infinite",
						"_addMaleHeadwear(struct TraitsContext memory)": "infinite",
						"_addMaleMask(struct TraitsContext memory)": "infinite",
						"_addMaleScarf(struct TraitsContext memory)": "infinite",
						"_addMaleSkin(struct TraitsContext memory)": "infinite",
						"_addMouth(struct TraitsContext memory)": "infinite",
						"_addSpecial(struct TraitsContext memory,uint256)": "infinite",
						"_addTraitToRender(struct TraitsContext memory,enum E_TraitsGroup,uint8)": "infinite",
						"_isPreRendered(uint256)": "infinite"
					}
				},
				"methodIdentifiers": {
					"FEMALE_PROBS_CONTRACT()": "069157c0",
					"MALE_PROBS_CONTRACT()": "033b42a8",
					"generateAllTraits(uint16,uint8,uint256)": "609574b5"
				}
			},
			"storageLayout": {
				"storage": [],
				"types": null
			},
			"userdoc": {
				"kind": "user",
				"methods": {},
				"version": 1
			}
		}
	}
}