{
	"data": {
		"bytecode": {
			"linkReferences": {},
			"object": "6080604052600160118190556014805460ff191690911790556018805460ff60a01b19169055600b601a55348015610035575f5ffd5b506040516153e13803806153e18339810160408190526100549161034d565b604051806040016040528060128152602001714f6e2d436861696e20416c6c2d537461727360701b815250604051806040016040528060048152602001634f43415360e01b8152508282828282828282828181818181600290816100b891906104c2565b5060036100c582826104c2565b505060015f55506100d7915050610220565b505080515f5b8181101561013557600160125f8584815181106100fc576100fc61057c565b6020908102919091018101516001600160a01b031682528101919091526040015f20805460ff19169115159190911790556001016100dd565b50815161014990601390602085019061029b565b506040517fd7aca75208b9be5ffc04c6a01922020ffd62b55e68e502e317f5344960279af8905f90a1505060145460405160ff909116151581527f867006957979daa4aa88eb4157c1262555f712bc61ec3d0046c5a49a2c190b459250602001905060405180910390a150505060168690555050604080514360208201524491810191909152426060820152608001905060408051808303601f19018152919052805160209091012060175550601880546001600160a01b0319166001600160a01b03949094169390931790925550600c55610590565b303b1561023f5760405162dc149f60e41b815260040160405180910390fd5b6102483361024a565b565b600a80546001600160a01b038381166001600160a01b0319831681179093556040519116919082907f8be0079c531659141344cd1fd0a4f28419497f9722a3daafe3b4186f6b6457e0905f90a35050565b828054828255905f5260205f209081019282156102ee579160200282015b828111156102ee57825182546001600160a01b0319166001600160a01b039091161782556020909201916001909101906102b9565b506102fa9291506102fe565b5090565b5b808211156102fa575f81556001016102ff565b6001600160a01b0381168114610326575f5ffd5b50565b634e487b7160e01b5f52604160045260245ffd5b805161034881610312565b919050565b5f5f5f5f60808587031215610360575f5ffd5b845161036b81610312565b60208601516040870151606088015192965090945092506001600160401b03811115610395575f5ffd5b8501601f810187136103a5575f5ffd5b80516001600160401b038111156103be576103be610329565b604051600582901b90603f8201601f191681016001600160401b03811182821017156103ec576103ec610329565b60405291825260208184018101929081018a841115610409575f5ffd5b6020850194505b8385101561042f576104218561033d565b815260209485019401610410565b50969995985093965050505050565b600181811c9082168061045257607f821691505b60208210810361047057634e487b7160e01b5f52602260045260245ffd5b50919050565b601f8211156104bd57805f5260205f20601f840160051c8101602085101561049b5750805b601f840160051c820191505b818110156104ba575f81556001016104a7565b50505b505050565b81516001600160401b038111156104db576104db610329565b6104ef816104e9845461043e565b84610476565b6020601f821160018114610521575f831561050a5750848201515b5f19600385901b1c1916600184901b1784556104ba565b5f84815260208120601f198516915b828110156105505787850151825560209485019460019092019101610530565b508482101561056d57868401515f19600387901b60f8161c191681555b50505050600190811b01905550565b634e487b7160e01b5f52603260045260245ffd5b614e448061059d5f395ff3fe6080604052600436106103be575f3560e01c806364f101f0116101f457806395d89b4111610113578063c23dc68f116100a8578063d5abeb0111610078578063d5abeb0114610b0b578063db846dbe14610b1f578063e8a3d48514610b79578063e985e9c514610b8d578063f2fde38b14610bac575f5ffd5b8063c23dc68f14610a8d578063c6ab67a314610ab9578063c87b56dd14610acd578063cb743ba814610aec575f5ffd5b8063a4830114116100e3578063a483011414610a1f578063a9fc664e14610a3e578063ad2f852a14610a5d578063b88d4fde14610a7a575f5ffd5b806395d89b41146109b857806399a2557a146109cc57806399c5def3146109eb578063a22cb46514610a00575f5ffd5b80637bc2be76116101895780638da5cb5b116101595780638da5cb5b14610948578063911f456b14610965578063927cf90514610984578063938e3d7b14610999575f5ffd5b80637bc2be76146108a4578063840e15d4146108c35780638462151c146108fd5780638ada6b0f14610929575f5ffd5b806370a08231116101c457806370a082311461083e578063715018a61461085d57806379ba5097146108715780637a05bc8214610885575f5ffd5b806364f101f0146107d857806366251b69146107ec5780636c0360eb1461080b5780636f8b44b01461081f575f5ffd5b806342842e0e116102e0578063511aa644116102755780635bbb2177116102455780635bbb21771461074f57806360c308b61461077b5780636352211e1461079a57806364869dad146107b9575f5ffd5b8063511aa644146106dd57806355f804b3146106fc57806356d3163d1461071b5780635743bdff1461073a575f5ffd5b8063484b973c116102b0578063484b973c1461065757806348a4c101146106765780634b6769d5146106955780634c62dec1146106b4575f5ffd5b806342842e0e146105ed57806342966c681461060057806344dae42c1461061f5780634563f30a1461063e575f5ffd5b806318160ddd1161035657806323b872dd1161032657806323b872dd146105595780632a55205a1461056c5780633680620d146105aa57806342260b5d146105c9575f5ffd5b806318160ddd146104e45780631b73593c146105065780631dbd73901461052557806323452b9c14610545575f5ffd5b8063098144d411610391578063098144d414610463578063099b6bfa146104805780630d705df61461049f5780630d9d713b146104c5575f5ffd5b806301ffc9a7146103c257806306fdde03146103f6578063081812fc14610417578063095ea7b31461044e575b5f5ffd5b3480156103cd575f5ffd5b506103e16103dc36600461396a565b610bcb565b60405190151581526020015b60405180910390f35b348015610401575f5ffd5b5061040a610c10565b6040516103ed91906139b3565b348015610422575f5ffd5b506104366104313660046139c5565b610ca0565b6040516001600160a01b0390911681526020016103ed565b61046161045c3660046139f0565b610cd9565b005b34801561046e575f5ffd5b506009546001600160a01b0316610436565b34801561048b575f5ffd5b5061046161049a3660046139c5565b610d0b565b3480156104aa575f5ffd5b506040805163657711f560e11b81525f6020820152016103ed565b3480156104d0575f5ffd5b506104616104df366004613a29565b610d81565b3480156104ef575f5ffd5b506104f8610dd1565b6040519081526020016103ed565b348015610511575f5ffd5b50610461610520366004613a42565b610ded565b348015610530575f5ffd5b506018546103e190600160a01b900460ff1681565b348015610550575f5ffd5b50610461610e5b565b610461610567366004613a80565b610ea8565b348015610577575f5ffd5b5061058b610586366004613abe565b611019565b604080516001600160a01b0390931683526020830191909152016103ed565b3480156105b5575f5ffd5b506104616105c4366004613ade565b61105e565b3480156105d4575f5ffd5b50601054600160a01b90046001600160601b03166104f8565b6104616105fb366004613a80565b61109b565b34801561060b575f5ffd5b5061046161061a3660046139c5565b6110ba565b34801561062a575f5ffd5b50610461610639366004613b30565b6110c8565b348015610649575f5ffd5b506014546103e19060ff1681565b348015610662575f5ffd5b506104616106713660046139f0565b6111d6565b348015610681575f5ffd5b50610461610690366004613b49565b6112a7565b3480156106a0575f5ffd5b506104616106af366004613abe565b611313565b3480156106bf575f5ffd5b506106c8611462565b60405163ffffffff90911681526020016103ed565b3480156106e8575f5ffd5b506104616106f7366004613c46565b61146b565b348015610707575f5ffd5b50610461610716366004613d55565b6114aa565b348015610726575f5ffd5b50610461610735366004613d93565b611505565b348015610745575f5ffd5b506104f8601a5481565b34801561075a575f5ffd5b5061076e610769366004613dee565b61156d565b6040516103ed9190613e5c565b348015610786575f5ffd5b50610461610795366004613dee565b6115b8565b3480156107a5575f5ffd5b506104366107b43660046139c5565b6115ca565b3480156107c4575f5ffd5b506104616107d33660046139f0565b6115d4565b3480156107e3575f5ffd5b50610461611675565b3480156107f7575f5ffd5b50610461610806366004613ea9565b611692565b348015610816575f5ffd5b5061040a6116d1565b34801561082a575f5ffd5b506104616108393660046139c5565b6116db565b348015610849575f5ffd5b506104f8610858366004613d93565b61177d565b348015610868575f5ffd5b506104616117c0565b34801561087c575f5ffd5b506104616117d3565b348015610890575f5ffd5b5061046161089f366004613ed5565b61184b565b3480156108af575f5ffd5b506104616108be366004613f25565b61188a565b3480156108ce575f5ffd5b506108e26108dd366004613d93565b6118c9565b604080519384526020840192909252908201526060016103ed565b348015610908575f5ffd5b5061091c610917366004613d93565b611904565b6040516103ed9190613f76565b348015610934575f5ffd5b50601854610436906001600160a01b031681565b348015610953575f5ffd5b50600a546001600160a01b0316610436565b348015610970575f5ffd5b5061046161097f366004613fad565b61192a565b34801561098f575f5ffd5b506104f860165481565b3480156109a4575f5ffd5b506104616109b3366004613d55565b6124e1565b3480156109c3575f5ffd5b5061040a612528565b3480156109d7575f5ffd5b5061091c6109e6366004613fe4565b612537565b3480156109f6575f5ffd5b506104f860175481565b348015610a0b575f5ffd5b50610461610a1a366004614016565b61254e565b348015610a2a575f5ffd5b50610461610a39366004613abe565b61257c565b348015610a49575f5ffd5b50610461610a58366004613d93565b6125a7565b348015610a68575f5ffd5b506010546001600160a01b0316610436565b610461610a8836600461406f565b6125b8565b348015610a98575f5ffd5b50610aac610aa73660046139c5565b6125f9565b6040516103ed9190614116565b348015610ac4575f5ffd5b50600f546104f8565b348015610ad8575f5ffd5b5061040a610ae73660046139c5565b612659565b348015610af7575f5ffd5b50610461610b06366004613b49565b61270d565b348015610b16575f5ffd5b50600c546104f8565b348015610b2a575f5ffd5b50610b5c610b393660046139c5565b60196020525f908152604090205463ffffffff8082169164010000000090041682565b6040805163ffffffff9384168152929091166020830152016103ed565b348015610b84575f5ffd5b5061040a612754565b348015610b98575f5ffd5b506103e1610ba7366004613ea9565b612763565b348015610bb7575f5ffd5b50610461610bc6366004613d93565b6127be565b5f6001600160e01b03198216630c487f4760e11b1480610bfb57506001600160e01b03198216639c15441560e01b145b80610c0a5750610c0a8261283b565b92915050565b606060028054610c1f90614124565b80601f0160208091040260200160405190810160405280929190818152602001828054610c4b90614124565b8015610c965780601f10610c6d57610100808354040283529160200191610c96565b820191905f5260205f20905b815481529060010190602001808311610c7957829003601f168201915b5050505050905090565b5f610caa826128b0565b610cbe57610cbe6333d1c03960e21b6128f8565b505f908152600660205260409020546001600160a01b031690565b60145460ff1615610cfd57604051636ab17e0560e01b815260040160405180910390fd5b610d078282612900565b5050565b610d1361290c565b5f610d1c61295b565b1115610d3b5760405163e03264af60e01b815260040160405180910390fd5b600f80549082905560408051828152602081018490527f7c22004198bf87da0f0dab623c72e66ca1200f4454aa3b9ca30f436275428b7c91015b60405180910390a15050565b610d89612969565b6014805460ff19168215159081179091556040519081527f867006957979daa4aa88eb4157c1262555f712bc61ec3d0046c5a49a2c190b45906020015b60405180910390a150565b5f600180545f54030390505f19805b14610dea57600854015b90565b610df561290c565b610dfe82612994565b6040516301308e6560e01b81526001600160a01b038316906301308e6590610e2a9084906004016141f2565b5f604051808303815f87803b158015610e41575f5ffd5b505af1158015610e53573d5f5f3e3d5ffd5b505050505050565b610e63612969565b600b80546001600160a01b03191690556040515f81527f11a3cf439fb225bfe74225716b6774765670ec1060e3796802e62139d69974da9060200160405180910390a1565b5f610eb2826129d1565b6001600160a01b039485169490915081168414610ed857610ed862a1148160e81b6128f8565b5f8281526006602052604090208054610f038187335b6001600160a01b039081169116811491141790565b610f2557610f118633612763565b610f2557610f25632ce44b5f60e11b6128f8565b610f328686866001612a6a565b8015610f3c575f82555b6001600160a01b038681165f9081526005602052604080822080545f19019055918716808252919020805460010190554260a01b17600160e11b175f85815260046020526040812091909155600160e11b84169003610fc857600184015f818152600460205260408120549003610fc6575f548114610fc6575f8181526004602052604090208490555b505b6001600160a01b0385168481887fddf252ad1be2c89b69c2b068fc378daa952ba7f163c4a11628f55a4df523b3ef5f80a4805f0361101057611010633a954ecd60e21b6128f8565b50505050505050565b601080545f9182916127109061103f90600160a01b90046001600160601b031686614214565b611049919061423f565b90546001600160a01b03169590945092505050565b61106661290c565b61106f82612994565b60405163ebb4a55f60e01b81526001600160a01b0383169063ebb4a55f90610e2a90849060040161438d565b6110b583838360405180602001604052805f8152506125b8565b505050565b6110c5816001612aae565b50565b6110d061290c565b5f6110de6020830183613d93565b6001600160a01b03160361110557604051631cc0baef60e01b815260040160405180910390fd5b61271061111860408301602084016143b3565b6001600160601b031611156111615761113760408201602083016143b3565b604051633cadbafb60e01b81526001600160601b0390911660048201526024015b60405180910390fd5b80601061116e82826143ce565b507ff21fccf4d64d86d532c4e4eb86c007b6ad57a460c27d724188625e755ec6cf6d905061119f6020830183613d93565b6111af60408401602085016143b3565b604080516001600160a01b0390931683526001600160601b03909116602083015201610dc6565b6111de612969565b60115460011461121d5760405162461bcd60e51b815260206004820152600a6024820152695245454e5452414e435960b01b6044820152606401611158565b6002601155601a548111156112745760405162461bcd60e51b815260206004820181905260248201527f4e6f7420656e6f756768206f776e6572206d696e74732072656d61696e696e676044820152606401611158565b80601a5f8282546112859190614417565b90915550611294905081612bf2565b61129e8282612c17565b50506001601155565b6112af61290c565b6112b883612994565b604051638e7d1e4360e01b81526001600160a01b0383811660048301528215156024830152841690638e7d1e43906044015b5f604051808303815f87803b158015611301575f5ffd5b505af1158015611010573d5f5f3e3d5ffd5b813361131e826115ca565b6001600160a01b0316146113855760405162461bcd60e51b815260206004820152602860248201527f5468652063616c6c6572206973206e6f7420746865206f776e6572206f6620746044820152673432903a37b5b2b760c11b6064820152608401611158565b6067821061139f6001606761139a9190614417565b612c30565b6040516020016113af9190614441565b604051602081830303815290604052906113dc5760405162461bcd60e51b815260040161115891906139b3565b505f83815260196020908152604091829020805467ffffffff00000000191664010000000063ffffffff87160217905581518581529081018590525f516020614def5f395f51905f52910160405180910390a16040513390839085907f717ea6d16cd5b1adadf0580bb4b4ebbe47b8329c34ae1d20b2a3505b0b45121b905f90a4505050565b5f605a5b905090565b61147361290c565b61147c83612994565b6040516309a7002f60e31b81526001600160a01b03841690634d380178906112ea9085908590600401614505565b6114b261290c565b600d6114bf828483614567565b506114c8610dd1565b15610d07575f516020614def5f395f51905f526001806114e65f5490565b6114f09190614417565b60408051928352602083019190915201610d75565b61150d612969565b601880546001600160a01b0319166001600160a01b038316179055611530610dd1565b156110c5575f516020614def5f395f51905f5260018061154e5f5490565b6115589190614417565b60408051928352602083019190915201610dc6565b60408051828152600583901b8082016020019092526060915b80156115b057601f1980820191860101355f6115a1826125f9565b84840160200152506115869050565b509392505050565b6115c0612969565b610d078282612c72565b5f610c0a826129d1565b6011546001146116135760405162461bcd60e51b815260206004820152600a6024820152695245454e5452414e435960b01b6044820152606401611158565b600260115561162133612994565b600c548161162d61295b565b6116379190614620565b1115611294578061164661295b565b6116509190614620565b600c5460405163384b48c560e21b815260048101929092526024820152604401611158565b61167d612969565b6018805460ff60a01b1916600160a01b179055565b61169a61290c565b6116a382612994565b60405163024e71b760e31b81526001600160a01b0382811660048301528316906312738db890602401610e2a565b6060611466612d85565b6116e361290c565b6001600160401b0381111561170e5760405163b43e913760e01b815260048101829052602401611158565b61171661295b565b811015611748578061172661295b565b604051638c19f1f960e01b815260048101929092526024820152604401611158565b600c8190556040518181527f7810bd47de260c3e9ee10061cf438099dd12256c79485f12f94dbccc981e806c90602001610dc6565b5f6001600160a01b03821661179c5761179c6323d3ad8160e21b6128f8565b506001600160a01b03165f908152600560205260409020546001600160401b031690565b6117c8612969565b6117d15f612d94565b565b600b546001600160a01b03163381146117ff57604051636b7584e760e11b815260040160405180910390fd5b600b80546001600160a01b03191690556040515f81527f11a3cf439fb225bfe74225716b6774765670ec1060e3796802e62139d69974da9060200160405180910390a16110c581612d94565b61185361290c565b61185c83612994565b60405163b957d0cb60e01b81526001600160a01b0384169063b957d0cb906112ea9085908590600401614633565b61189261290c565b61189b83612994565b604051637ecd591560e11b81526001600160a01b0384169063fd9ab22a906112ea908590859060040161471d565b6001600160a01b0381165f9081526005602052604080822054901c6001600160401b031690806118f761295b565b600c549395909450915050565b5f54606090600190828282146119225761191f858484612de5565b90505b949350505050565b611932612969565b803515611986576040516306f8b44b60e41b8152813560048201523090636f8b44b0906024015f604051808303815f87803b15801561196f575f5ffd5b505af1158015611981573d5f5f3e3d5ffd5b505050505b611993602082018261473b565b1590506119f857306355f804b36119ad602084018461473b565b6040518363ffffffff1660e01b81526004016119ca929190614633565b5f604051808303815f87803b1580156119e1575f5ffd5b505af11580156119f3573d5f5f3e3d5ffd5b505050505b611a05604082018261473b565b159050611a6a573063938e3d7b611a1f604084018461473b565b6040518363ffffffff1660e01b8152600401611a3c929190614633565b5f604051808303815f87803b158015611a53575f5ffd5b505af1158015611a65573d5f5f3e3d5ffd5b505050505b611a8a611a7d60e0830160c0840161477d565b65ffffffffffff16151590565b611a9d611a7d60c0840160a0850161477d565b17600103611b0a5730631b73593c611abb6080840160608501613d93565b836080016040518363ffffffff1660e01b8152600401611adc929190614796565b5f604051808303815f87803b158015611af3575f5ffd5b505af1158015611b05573d5f5f3e3d5ffd5b505050505b611b1861014082018261473b565b159050611b8f5730637a05bc82611b356080840160608501613d93565b611b4361014085018561473b565b6040518463ffffffff1660e01b8152600401611b61939291906147b3565b5f604051808303815f87803b158015611b78575f5ffd5b505af1158015611b8a573d5f5f3e3d5ffd5b505050505b5f611b9e6101608301836147e0565b3514611c135730633680620d611bba6080840160608501613d93565b611bc86101608501856147e0565b6040518363ffffffff1660e01b8152600401611be59291906147fe565b5f604051808303815f87803b158015611bfc575f5ffd5b505af1158015611c0e573d5f5f3e3d5ffd5b505050505b5f611c266101a083016101808401613d93565b6001600160a01b031614611cb857306366251b69611c4a6080840160608501613d93565b611c5c6101a085016101808601613d93565b6040516001600160e01b031960e085901b1681526001600160a01b039283166004820152911660248201526044015f604051808303815f87803b158015611ca1575f5ffd5b505af1158015611cb3573d5f5f3e3d5ffd5b505050505b6101a081013515611d14576040516304cdb5fd60e11b81526101a08201356004820152309063099b6bfa906024015f604051808303815f87803b158015611cfd575f5ffd5b505af1158015611d0f573d5f5f3e3d5ffd5b505050505b5f611d236101c0830183614821565b90501115611de7575f5b611d3b6101c0830183614821565b9050811015611de557306348a4c101611d5a6080850160608601613d93565b611d686101c0860186614821565b85818110611d7857611d78614866565b9050602002016020810190611d8d9190613d93565b60016040518463ffffffff1660e01b8152600401611dad9392919061487a565b5f604051808303815f87803b158015611dc4575f5ffd5b505af1158015611dd6573d5f5f3e3d5ffd5b50505050806001019050611d2d565b505b5f611df66101e0830183614821565b90501115611eb9575f5b611e0e6101e0830183614821565b9050811015611eb757306348a4c101611e2d6080850160608601613d93565b611e3b6101e0860186614821565b85818110611e4b57611e4b614866565b9050602002016020810190611e609190613d93565b5f6040518463ffffffff1660e01b8152600401611e7f9392919061487a565b5f604051808303815f87803b158015611e96575f5ffd5b505af1158015611ea8573d5f5f3e3d5ffd5b50505050806001019050611e00565b505b5f611ec8610200830183614821565b90501115611f8c575f5b611ee0610200830183614821565b9050811015611f8a573063cb743ba8611eff6080850160608601613d93565b611f0d610200860186614821565b85818110611f1d57611f1d614866565b9050602002016020810190611f329190613d93565b60016040518463ffffffff1660e01b8152600401611f529392919061487a565b5f604051808303815f87803b158015611f69575f5ffd5b505af1158015611f7b573d5f5f3e3d5ffd5b50505050806001019050611ed2565b505b5f611f9b610220830183614821565b9050111561205e575f5b611fb3610220830183614821565b905081101561205c573063cb743ba8611fd26080850160608601613d93565b611fe0610220860186614821565b85818110611ff057611ff0614866565b90506020020160208101906120059190613d93565b5f6040518463ffffffff1660e01b81526004016120249392919061487a565b5f604051808303815f87803b15801561203b575f5ffd5b505af115801561204d573d5f5f3e3d5ffd5b50505050806001019050611fa5565b505b5f61206d61026083018361489e565b9050111561219257612083610240820182614821565b905061209361026083018361489e565b9050146120b35760405163b81aa63960e01b815260040160405180910390fd5b5f5b6120c361026083018361489e565b90508110156121905730637bc2be766120e26080850160608601613d93565b6120f0610240860186614821565b8581811061210057612100614866565b90506020020160208101906121159190613d93565b61212361026087018761489e565b8681811061213357612133614866565b905061010002016040518463ffffffff1660e01b8152600401612158939291906148e3565b5f604051808303815f87803b15801561216f575f5ffd5b505af1158015612181573d5f5f3e3d5ffd5b505050508060010190506120b5565b505b5f6121a1610280830183614821565b905011156122a5575f5b6121b9610280830183614821565b90508110156122a35760408051610100810182525f80825260208201819052918101829052606081018290526080810182905260a0810182905260c0810182905260e081019190915230637bc2be766122186080860160608701613d93565b612226610280870187614821565b8681811061223657612236614866565b905060200201602081019061224b9190613d93565b846040518463ffffffff1660e01b815260040161226a93929190614909565b5f604051808303815f87803b158015612281575f5ffd5b505af1158015612293573d5f5f3e3d5ffd5b50505050816001019150506121ab565b505b5f6122b46102c08301836149be565b905011156123d8576122ca6102a0820182614821565b90506122da6102c08301836149be565b9050146122fa576040516374ef6df760e01b815260040160405180910390fd5b5f5b61230a6102c08301836149be565b90508110156123d6573063511aa6446123296080850160608601613d93565b6123376102a0860186614821565b8581811061234757612347614866565b905060200201602081019061235c9190613d93565b61236a6102c08701876149be565b8681811061237a5761237a614866565b905060e002016040518463ffffffff1660e01b815260040161239e93929190614a02565b5f604051808303815f87803b1580156123b5575f5ffd5b505af11580156123c7573d5f5f3e3d5ffd5b505050508060010190506122fc565b505b5f6123e76102e0830183614821565b905011156110c5575f5b6123ff6102e0830183614821565b9050811015610d07576040805160e0810182525f80825260208201819052918101829052606081018290526080810182905260a0810182905260c08101919091523063511aa6446124566080860160608701613d93565b6124646102e0870187614821565b8681811061247457612474614866565b90506020020160208101906124899190613d93565b846040518463ffffffff1660e01b81526004016124a893929190614ac1565b5f604051808303815f87803b1580156124bf575f5ffd5b505af11580156124d1573d5f5f3e3d5ffd5b50505050816001019150506123f1565b6124e961290c565b600e6124f6828483614567565b507f905d981207a7d0b6c62cc46ab0be2a076d0298e4a86d0ab79882dbd01ac373788282604051610d75929190614633565b606060038054610c1f90614124565b6060612544848484612de5565b90505b9392505050565b60145460ff161561257257604051636ab17e0560e01b815260040160405180910390fd5b610d078282612eed565b61258461290c565b60408051838152602081018390525f516020614def5f395f51905f529101610d75565b6125af612969565b6110c581612f58565b6125c3848484610ea8565b6001600160a01b0383163b156125f3576125df84848484612fe0565b6125f3576125f36368d2bf6b60e11b6128f8565b50505050565b604080516080810182525f80825260208201819052918101829052606081019190915260018210612654575f54821015612654575b5f8281526004602052604090205461264b575f199091019061262e565b610c0a826130be565b919050565b606081612665816128b0565b6126b15760405162461bcd60e51b815260206004820152601f60248201527f55524920717565727920666f72206e6f6e6578697374656e7420746f6b656e006044820152606401611158565b6040805180820182525f80825260209182018190528581526019825282902082518084019093525463ffffffff808216808552640100000000909204169183018290526016546127039287929161313a565b9250505b50919050565b61271561290c565b61271e83612994565b604051633f952e6560e11b81526001600160a01b0383811660048301528215156024830152841690637f2a5cca906044016112ea565b6060600e8054610c1f90614124565b5f731e0049783f008a0085193e00003d00cd54003c70196001600160a01b0383160161279157506001610c0a565b6001600160a01b038084165f9081526007602090815260408083209386168352929052205460ff16612547565b6127c6612969565b6001600160a01b0381166127ed57604051633a247dd760e11b815260040160405180910390fd5b600b80546001600160a01b0319166001600160a01b0383169081179091556040519081527f11a3cf439fb225bfe74225716b6774765670ec1060e3796802e62139d69974da90602001610dc6565b5f6001600160e01b0319821663152a902d60e11b148061286b57506001600160e01b03198216632b435fdb60e21b145b8061288657506001600160e01b0319821663503e914d60e11b145b806128a15750632483248360e11b6001600160e01b03198316145b80610c0a5750610c0a826132ff565b5f81600111612654575f54821015612654575f5b505f82815260046020526040812054908190036128eb576128e483614ae7565b92506128c4565b600160e01b161592915050565b805f5260045ffd5b610d078282600161334c565b30331461293b612924600a546001600160a01b031690565b6001600160a01b0316336001600160a01b03161490565b175f036117d157604051635fc483c560e01b815260040160405180910390fd5b5f545f199081019080610de0565b600a546001600160a01b031633146117d157604051635fc483c560e01b815260040160405180910390fd5b6001600160a01b0381165f9081526012602052604090205460ff1615156001146110c5576040516315e26ff360e01b815260040160405180910390fd5b5f81600111612a5a57505f81815260046020526040902054805f03612a48575f548210612a0857612a08636f96cda160e11b6128f8565b5b505f19015f818152600460205260409020548015612a0957600160e01b81165f03612a3357919050565b612a43636f96cda160e11b6128f8565b612a09565b600160e01b81165f03612a5a57919050565b612654636f96cda160e11b6128f8565b6001600160a01b03841615801590612a84575060145460ff165b15612aa257604051636ab17e0560e01b815260040160405180910390fd5b6125f3848484846133ed565b5f612ab8836129d1565b9050805f80612ad4865f90815260066020526040902080549091565b915091508415612b0b57612ae9818433610eee565b612b0b57612af78333612763565b612b0b57612b0b632ce44b5f60e11b6128f8565b612b18835f886001612a6a565b8015612b22575f82555b6001600160a01b0383165f81815260056020526040902080546fffffffffffffffffffffffffffffffff0190554260a01b17600360e01b175f87815260046020526040812091909155600160e11b85169003612bab57600186015f818152600460205260408120549003612ba9575f548114612ba9575f8181526004602052604090208590555b505b60405186905f906001600160a01b038616907fddf252ad1be2c89b69c2b068fc378daa952ba7f163c4a11628f55a4df523b3ef908390a45050600180548101905550505050565b600c5481612bfe61295b565b612c089190614620565b11156110c5578061164661295b565b610d07828260405180602001604052805f815250613496565b60606080604051019050602081016040525f8152805f19835b928101926030600a8206018453600a900480612c49575050819003601f19909101908152919050565b601354815f5b82811015612cd2575f60125f60138481548110612c9757612c97614866565b5f918252602080832091909101546001600160a01b031683528201929092526040019020805460ff1916911515919091179055600101612c78565b505f5b81811015612d3857600160125f878785818110612cf457612cf4614866565b9050602002016020810190612d099190613d93565b6001600160a01b0316815260208101919091526040015f20805460ff1916911515919091179055600101612cd5565b50612d45601385856138e0565b507fbbd3b69c138de4d317d0bc4290282c4e1cbd1e58b579a5b4f114b598c237454d8484604051612d77929190614afc565b60405180910390a150505050565b6060600d8054610c1f90614124565b600a80546001600160a01b038381166001600160a01b0319831681179093556040519116919082907f8be0079c531659141344cd1fd0a4f28419497f9722a3daafe3b4186f6b6457e0905f90a35050565b6060818310612e0757604051631960ccad60e11b815260040160405180910390fd5b6001831015612e1557600192505b5f5480808410612e23578093505b5f612e2d8761177d565b9050848610612e3957505f5b8015612ee3578086860311612e4d57508484035b604080516001830160051b81019182905294505f612e6a886125f9565b90505f8160400151612e7a575080515b5f5b612e858a6130be565b925060408301515f8114612e9b575f9250612ec0565b835115612ea757835192505b8b831860601b612ec0576001820191508a8260051b8a01525b5060018a01995083604052888a1480612ed857508481145b15612e7c5787525050505b5050509392505050565b335f8181526007602090815260408083206001600160a01b03871680855290835292819020805460ff191686151590811790915590519081529192917f17307eab39ab6107e8899845ad3d59bd9653f200f220920489ca2b5937696c31910160405180910390a35050565b6009546001600160a01b039081169082168103612f885760405163251dd8cf60e11b815260040160405180910390fd5b600980546001600160a01b0319166001600160a01b0384811691821790925560408051928416835260208301919091527fcc5dc080ff977b3c3a211fa63ab74f90f658f5ba9d3236e92c8f59570f442aac9101610d75565b604051630a85bd0160e11b81525f906001600160a01b0385169063150b7a0290613014903390899088908890600401614b48565b6020604051808303815f875af192505050801561304e575060408051601f3d908101601f1916820190925261304b91810190614b7a565b60015b6130a1573d80801561307b576040519150601f19603f3d011682016040523d82523d5f602084013e613080565b606091505b5080515f03613099576130996368d2bf6b60e11b6128f8565b805181602001fd5b6001600160e01b031916630a85bd0160e11b149050949350505050565b604080516080810182525f8082526020820181905291810182905260608101919091525f82815260046020526040902054610c0a90604080516080810182526001600160a01b038316815260a083901c6001600160401b03166020820152600160e01b831615159181019190915260e89190911c606082015290565b60185460405163e60745bf60e01b81526004810185905260248101849052604481018390526060918291829182916001600160a01b039091169063e60745bf906064015f60405180830381865afa158015613197573d5f5f3e3d5ffd5b505050506040513d5f823e601f3d908101601f191682016040526131be9190810190614be2565b6018546040516374c2b45160e01b81529295509093506001600160a01b0316906374c2b451906131f29086906004016139b3565b5f60405180830381865afa15801561320c573d5f5f3e3d5ffd5b505050506040513d5f823e601f3d908101601f191682016040526132339190810190614c45565b90505f61323f89612c30565b83613249866134ef565b60405160200161325b93929190614c76565b60405160208183030381529060405290505f825111156132a6578061327f836134ef565b604051602001613290929190614d2e565b60405160208183030381529060405290506132c9565b806040516020016132b79190614d8e565b60405160208183030381529060405290505b6132d2816134ef565b6040516020016132e29190614daa565b604051602081830303815290604052945050505050949350505050565b5f6301ffc9a760e01b6001600160e01b03198316148061332f57506380ac58cd60e01b6001600160e01b03198316145b80610c0a5750506001600160e01b031916635b5e139f60e01b1490565b5f613356836115ca565b905081801561336e5750336001600160a01b03821614155b156133915761337d8133612763565b613391576133916367d9dca160e11b6128f8565b5f8381526006602052604080822080546001600160a01b0319166001600160a01b0388811691821790925591518693918516917f8c5be1e5ebec7d5bd14f71427d1e84f3dd0314c0f7b2291e5b200ac8c7c3b92591a450505050565b6001600160a01b0384161580159061340d57506001600160a01b03831615155b156125f3576009546001600160a01b0316801561348f5760405163657711f560e11b81523360048201526001600160a01b03868116602483015285811660448301526064820185905282169063caee23ea906084015f6040518083038186803b158015613478575f5ffd5b505afa15801561348a573d5f5f3e3d5ffd5b505050505b5050505050565b6134a083836134fc565b6001600160a01b0383163b156110b5575f548281035b6134c85f868380600101945086612fe0565b6134dc576134dc6368d2bf6b60e11b6128f8565b8181106134b657815f541461348f575f5ffd5b6060610c0a825f5f61356c565b601854600160a01b900460ff161561354f5760405162461bcd60e51b815260206004820152601660248201527526b4b73a1034b99031b637b9b2b2103337b932bb32b960511b6044820152606401611158565b61355881612bf2565b6135628282613650565b610d078282613697565b6060835180156115b0576003600282010460021b60405192507f4142434445464748494a4b4c4d4e4f505152535455565758595a616263646566601f526106708515027f6768696a6b6c6d6e6f707172737475767778797a303132333435363738392d5f18603f52602083018181015b6003880197508751603f8160121c16515f53603f81600c1c1651600153603f8160061c1651600253603f811651600353505f5182526004820191508082106135dc57602001604052613d3d60f01b60038406600204808303919091525f861515909102918290035290038252509392505050565b5f613659610dd1565b9050805b6136678383614620565b8110156125f35761368f61367c826001614620565b82600c5461368a9190614417565b61375d565b60010161365d565b5f8054908290036136b2576136b263b562e8dd60e01b6128f8565b6136be5f848385612a6a565b5f8181526004602090815260408083206001600160a01b0387164260a01b6001881460e11b1781179091558084526005909252822080546801000000000000000186020190559081900361371b5761371b622e076360e81b6128f8565b818301825b80835f7fddf252ad1be2c89b69c2b068fc378daa952ba7f163c4a11628f55a4df523b3ef5f5fa481816001019150810361372057505f5550505050565b5f81116137a45760405162461bcd60e51b81526020600482015260156024820152744e6f2072656d61696e696e6720656c656d656e747360581b6044820152606401611158565b5f6137b2601754338461381d565b905060405180604001604052808263ffffffff1681526020016137d3611462565b63ffffffff9081169091525f94855260196020908152604090952082518154939096015182166401000000000267ffffffffffffffff199093169590911694909417179092555050565b60408051602081018590526bffffffffffffffffffffffff19606085901b1691810191909152605481018290524260748201524460948201524360b48201525f908190839060d401604051602081830303815290604052805190602001205f1c6138879190614ddb565b5f81815260156020526040808220545f19870180845291909220549293509181156138b257816138b4565b835b945080156138c257806138c4565b825b5f94855260156020526040909420939093555050509392505050565b828054828255905f5260205f20908101928215613931579160200282015b828111156139315781546001600160a01b0319166001600160a01b038435161782556020909201916001909101906138fe565b5061393d929150613941565b5090565b5b8082111561393d575f8155600101613942565b6001600160e01b0319811681146110c5575f5ffd5b5f6020828403121561397a575f5ffd5b813561254781613955565b5f81518084528060208401602086015e5f602082860101526020601f19601f83011685010191505092915050565b602081525f6125476020830184613985565b5f602082840312156139d5575f5ffd5b5035919050565b6001600160a01b03811681146110c5575f5ffd5b5f5f60408385031215613a01575f5ffd5b8235613a0c816139dc565b946020939093013593505050565b80358015158114612654575f5ffd5b5f60208284031215613a39575f5ffd5b61254782613a1a565b5f5f82840360e0811215613a54575f5ffd5b8335613a5f816139dc565b925060c0601f1982011215613a72575f5ffd5b506020830190509250929050565b5f5f5f60608486031215613a92575f5ffd5b8335613a9d816139dc565b92506020840135613aad816139dc565b929592945050506040919091013590565b5f5f60408385031215613acf575f5ffd5b50508035926020909101359150565b5f5f60408385031215613aef575f5ffd5b8235613afa816139dc565b915060208301356001600160401b03811115613b14575f5ffd5b830160608186031215613b25575f5ffd5b809150509250929050565b5f6040828403128015613b41575f5ffd5b509092915050565b5f5f5f60608486031215613b5b575f5ffd5b8335613b66816139dc565b92506020840135613b76816139dc565b9150613b8460408501613a1a565b90509250925092565b634e487b7160e01b5f52604160045260245ffd5b60405160e081016001600160401b0381118282101715613bc357613bc3613b8d565b60405290565b604051601f8201601f191681016001600160401b0381118282101715613bf157613bf1613b8d565b604052919050565b80356001600160501b0381168114612654575f5ffd5b803562ffffff81168114612654575f5ffd5b803564ffffffffff81168114612654575f5ffd5b803561ffff81168114612654575f5ffd5b5f5f5f838503610120811215613c5a575f5ffd5b8435613c65816139dc565b93506020850135613c75816139dc565b925060e0603f1982011215613c88575f5ffd5b50613c91613ba1565b613c9d60408601613bf9565b8152613cab60608601613c0f565b6020820152613cbc60808601613c21565b6040820152613ccd60a08601613c21565b6060820152613cde60c08601613c21565b6080820152613cef60e08601613c35565b60a0820152613d016101008601613c35565b60c0820152809150509250925092565b5f5f83601f840112613d21575f5ffd5b5081356001600160401b03811115613d37575f5ffd5b602083019150836020828501011115613d4e575f5ffd5b9250929050565b5f5f60208385031215613d66575f5ffd5b82356001600160401b03811115613d7b575f5ffd5b613d8785828601613d11565b90969095509350505050565b5f60208284031215613da3575f5ffd5b8135612547816139dc565b5f5f83601f840112613dbe575f5ffd5b5081356001600160401b03811115613dd4575f5ffd5b6020830191508360208260051b8501011115613d4e575f5ffd5b5f5f60208385031215613dff575f5ffd5b82356001600160401b03811115613e14575f5ffd5b613d8785828601613dae565b80516001600160a01b031682526020808201516001600160401b03169083015260408082015115159083015260609081015162ffffff16910152565b602080825282518282018190525f918401906040840190835b81811015613e9e57613e88838551613e20565b6020939093019260809290920191600101613e75565b509095945050505050565b5f5f60408385031215613eba575f5ffd5b8235613ec5816139dc565b91506020830135613b25816139dc565b5f5f5f60408486031215613ee7575f5ffd5b8335613ef2816139dc565b925060208401356001600160401b03811115613f0c575f5ffd5b613f1886828701613d11565b9497909650939450505050565b5f5f5f838503610140811215613f39575f5ffd5b8435613f44816139dc565b93506020850135613f54816139dc565b9250610100603f1982011215613f68575f5ffd5b506040840190509250925092565b602080825282518282018190525f918401906040840190835b81811015613e9e578351835260209384019390920191600101613f8f565b5f60208284031215613fbd575f5ffd5b81356001600160401b03811115613fd2575f5ffd5b82016103008185031215612547575f5ffd5b5f5f5f60608486031215613ff6575f5ffd5b8335614001816139dc565b95602085013595506040909401359392505050565b5f5f60408385031215614027575f5ffd5b8235614032816139dc565b915061404060208401613a1a565b90509250929050565b5f6001600160401b0382111561406157614061613b8d565b50601f01601f191660200190565b5f5f5f5f60808587031215614082575f5ffd5b843561408d816139dc565b9350602085013561409d816139dc565b92506040850135915060608501356001600160401b038111156140be575f5ffd5b8501601f810187136140ce575f5ffd5b80356140e16140dc82614049565b613bc9565b8181528860208385010111156140f5575f5ffd5b816020840160208301375f6020838301015280935050505092959194509250565b60808101610c0a8284613e20565b600181811c9082168061413857607f821691505b60208210810361270757634e487b7160e01b5f52602260045260245ffd5b803565ffffffffffff81168114612654575f5ffd5b6001600160501b0361417c82613bf9565b16825265ffffffffffff61419260208301614156565b16602083015265ffffffffffff6141ab60408301614156565b16604083015261ffff6141c060608301613c35565b16606083015261ffff6141d560808301613c35565b1660808301526141e760a08201613a1a565b151560a08301525050565b60c08101610c0a828461416b565b634e487b7160e01b5f52601160045260245ffd5b8082028115828204841417610c0a57610c0a614200565b634e487b7160e01b5f52601260045260245ffd5b5f8261424d5761424d61422b565b500490565b81835281816020850137505f828201602090810191909152601f909101601f19169091010190565b5f5f8335601e1984360301811261428f575f5ffd5b83016020810192503590506001600160401b038111156142ad575f5ffd5b803603821315613d4e575f5ffd5b803582525f60608301602083013536849003601e190181126142db575f5ffd5b83016020810190356001600160401b038111156142f6575f5ffd5b8060051b803603831315614308575f5ffd5b60606020880152928190526080928601830192829087015f5b8381101561435e57888603607f1901825261433c838661427a565b614347888284614252565b975050506020928301929190910190600101614321565b5050505050614370604084018461427a565b8583036040870152614383838284614252565b9695505050505050565b602081525f61254760208301846142bb565b6001600160601b03811681146110c5575f5ffd5b5f602082840312156143c3575f5ffd5b81356125478161439f565b81356143d9816139dc565b81546001600160a01b0319166001600160a01b0391909116908117825560208301356144048161439f565b60a01b6001600160a01b03191617905550565b81810381811115610c0a57610c0a614200565b5f81518060208401855e5f93019283525090919050565b7f496e76616c6964206261636b67726f756e6420696e6465782c206d757374206281526f032903132ba3bb2b2b710181030b732160851b60208201525f612547603083018461442a565b6001600160501b03815116825262ffffff602082015116602083015264ffffffffff604082015116604083015264ffffffffff606082015116606083015264ffffffffff608082015116608083015260a08101516144ef60a084018261ffff169052565b5060c08101516110b560c084018261ffff169052565b6001600160a01b03831681526101008101612547602083018461448b565b601f8211156110b557805f5260205f20601f840160051c810160208510156145485750805b601f840160051c820191505b8181101561348f575f8155600101614554565b6001600160401b0383111561457e5761457e613b8d565b6145928361458c8354614124565b83614523565b5f601f8411600181146145c3575f85156145ac5750838201355b5f19600387901b1c1916600186901b17835561348f565b5f83815260208120601f198716915b828110156145f257868501358255602094850194600190920191016145d2565b508682101561460e575f1960f88860031b161c19848701351681555b505060018560011b0183555050505050565b80820180821115610c0a57610c0a614200565b602081525f612544602083018486614252565b803560ff81168114612654575f5ffd5b803563ffffffff81168114612654575f5ffd5b6001600160501b0361467a82613bf9565b16825261ffff61468c60208301613c35565b16602083015265ffffffffffff6146a560408301614156565b1660408301526146b760608201614156565b65ffffffffffff1660608301526146d060808201614646565b60ff1660808301526146e460a08201614656565b63ffffffff1660a08301526146fb60c08201613c35565b61ffff1660c083015261471060e08201613a1a565b80151560e0840152505050565b6001600160a01b038316815261012081016125476020830184614669565b5f5f8335601e19843603018112614750575f5ffd5b8301803591506001600160401b03821115614769575f5ffd5b602001915036819003821315613d4e575f5ffd5b5f6020828403121561478d575f5ffd5b61254782614156565b6001600160a01b038316815260e08101612547602083018461416b565b6001600160a01b03841681526040602082018190525f906147d79083018486614252565b95945050505050565b5f8235605e198336030181126147f4575f5ffd5b9190910192915050565b6001600160a01b03831681526040602082018190525f90612544908301846142bb565b5f5f8335601e19843603018112614836575f5ffd5b8301803591506001600160401b0382111561484f575f5ffd5b6020019150600581901b3603821315613d4e575f5ffd5b634e487b7160e01b5f52603260045260245ffd5b6001600160a01b039384168152919092166020820152901515604082015260600190565b5f5f8335601e198436030181126148b3575f5ffd5b8301803591506001600160401b038211156148cc575f5ffd5b6020019150600881901b3603821315613d4e575f5ffd5b6001600160a01b0384811682528316602082015261014081016119226040830184614669565b5f6101408201905060018060a01b038516825260018060a01b03841660208301526001600160501b03835116604083015261ffff602084015116606083015265ffffffffffff6040840151166080830152606083015161497360a084018265ffffffffffff169052565b50608083015160ff811660c08401525060a083015163ffffffff811660e08401525060c083015161ffff81166101008401525060e08301518015156101208401525b50949350505050565b5f5f8335601e198436030181126149d3575f5ffd5b8301803591506001600160401b038211156149ec575f5ffd5b602001915060e081023603821315613d4e575f5ffd5b6001600160a01b0384811682528316602082015261012081016001600160501b03614a2c84613bf9565b16604083015262ffffff614a4260208501613c0f565b16606083015264ffffffffff614a5a60408501613c21565b16608083015264ffffffffff614a7260608501613c21565b1660a083015264ffffffffff614a8a60808501613c21565b1660c0830152614a9c60a08401613c35565b61ffff1660e0830152614ab160c08401613c35565b61ffff81166101008401526149b5565b6001600160a01b038481168252831660208201526101208101611922604083018461448b565b5f81614af557614af5614200565b505f190190565b602080825281018290525f8360408301825b85811015614b3e578235614b21816139dc565b6001600160a01b0316825260209283019290910190600101614b0e565b5095945050505050565b6001600160a01b03858116825284166020820152604081018390526080606082018190525f9061438390830184613985565b5f60208284031215614b8a575f5ffd5b815161254781613955565b5f82601f830112614ba4575f5ffd5b8151614bb26140dc82614049565b818152846020838601011115614bc6575f5ffd5b8160208501602083015e5f918101602001919091529392505050565b5f5f60408385031215614bf3575f5ffd5b82516001600160401b03811115614c08575f5ffd5b614c1485828601614b95565b92505060208301516001600160401b03811115614c2f575f5ffd5b614c3b85828601614b95565b9150509250929050565b5f60208284031215614c55575f5ffd5b81516001600160401b03811115614c6a575f5ffd5b61192284828501614b95565b697b226e616d65223a222360b01b81525f614c94600a83018661442a565b7f222c226465736372697074696f6e223a224f6e2d436861696e20416c6c2d5374815264185c9cc88b60da1b6020820152614cd2602582018661442a565b9050600b60fa1b81527f22696d616765223a22646174613a696d6167652f7376672b786d6c3b626173656001820152620d8d0b60ea1b6021820152614d1a602482018561442a565b601160f91b81526001019695505050505050565b5f614d39828561442a565b7f2c22616e696d6174696f6e5f75726c223a22646174613a746578742f68746d6c8152670ed8985cd94d8d0b60c21b6020820152614d7a602882018561442a565b61227d60f01b815260020195945050505050565b5f614d99828461442a565b607d60f81b81526001019392505050565b7f646174613a6170706c69636174696f6e2f6a736f6e3b6261736536342c00000081525f612547601d83018461442a565b5f82614de957614de961422b565b50069056fe6bd5c950a8d8df17f772f5af37cb3655737899cbf903264b9795592da439661ca26469706673582212208c12c5848d7439c8c79a5b1b34a745a164f004c0c18c7f3a6d01ce510fb0612e64736f6c634300081e0033",
			"opcodes": "PUSH1 0x80 PUSH1 0x40 MSTORE PUSH1 0x1 PUSH1 0x11 DUP2 SWAP1 SSTORE PUSH1 0x14 DUP1 SLOAD PUSH1 0xFF NOT AND SWAP1 SWAP2 OR SWAP1 SSTORE PUSH1 0x18 DUP1 SLOAD PUSH1 0xFF PUSH1 0xA0 SHL NOT AND SWAP1 SSTORE PUSH1 0xB PUSH1 0x1A SSTORE CALLVALUE DUP1 ISZERO PUSH2 0x35 JUMPI PUSH0 PUSH0 REVERT JUMPDEST POP PUSH1 0x40 MLOAD PUSH2 0x53E1 CODESIZE SUB DUP1 PUSH2 0x53E1 DUP4 CODECOPY DUP2 ADD PUSH1 0x40 DUP2 SWAP1 MSTORE PUSH2 0x54 SWAP2 PUSH2 0x34D JUMP JUMPDEST PUSH1 0x40 MLOAD DUP1 PUSH1 0x40 ADD PUSH1 0x40 MSTORE DUP1 PUSH1 0x12 DUP2 MSTORE PUSH1 0x20 ADD PUSH18 0x4F6E2D436861696E20416C6C2D5374617273 PUSH1 0x70 SHL DUP2 MSTORE POP PUSH1 0x40 MLOAD DUP1 PUSH1 0x40 ADD PUSH1 0x40 MSTORE DUP1 PUSH1 0x4 DUP2 MSTORE PUSH1 0x20 ADD PUSH4 0x4F434153 PUSH1 0xE0 SHL DUP2 MSTORE POP DUP3 DUP3 DUP3 DUP3 DUP3 DUP3 DUP3 DUP3 DUP3 DUP2 DUP2 DUP2 DUP2 DUP2 PUSH1 0x2 SWAP1 DUP2 PUSH2 0xB8 SWAP2 SWAP1 PUSH2 0x4C2 JUMP JUMPDEST POP PUSH1 0x3 PUSH2 0xC5 DUP3 DUP3 PUSH2 0x4C2 JUMP JUMPDEST POP POP PUSH1 0x1 PUSH0 SSTORE POP PUSH2 0xD7 SWAP2 POP POP PUSH2 0x220 JUMP JUMPDEST POP POP DUP1 MLOAD PUSH0 JUMPDEST DUP2 DUP2 LT ISZERO PUSH2 0x135 JUMPI PUSH1 0x1 PUSH1 0x12 PUSH0 DUP6 DUP5 DUP2 MLOAD DUP2 LT PUSH2 0xFC JUMPI PUSH2 0xFC PUSH2 0x57C JUMP JUMPDEST PUSH1 0x20 SWAP1 DUP2 MUL SWAP2 SWAP1 SWAP2 ADD DUP2 ADD MLOAD PUSH1 0x1 PUSH1 0x1 PUSH1 0xA0 SHL SUB AND DUP3 MSTORE DUP2 ADD SWAP2 SWAP1 SWAP2 MSTORE PUSH1 0x40 ADD PUSH0 KECCAK256 DUP1 SLOAD PUSH1 0xFF NOT AND SWAP2 ISZERO ISZERO SWAP2 SWAP1 SWAP2 OR SWAP1 SSTORE PUSH1 0x1 ADD PUSH2 0xDD JUMP JUMPDEST POP DUP2 MLOAD PUSH2 0x149 SWAP1 PUSH1 0x13 SWAP1 PUSH1 0x20 DUP6 ADD SWAP1 PUSH2 0x29B JUMP JUMPDEST POP PUSH1 0x40 MLOAD PUSH32 0xD7ACA75208B9BE5FFC04C6A01922020FFD62B55E68E502E317F5344960279AF8 SWAP1 PUSH0 SWAP1 LOG1 POP POP PUSH1 0x14 SLOAD PUSH1 0x40 MLOAD PUSH1 0xFF SWAP1 SWAP2 AND ISZERO ISZERO DUP2 MSTORE PUSH32 0x867006957979DAA4AA88EB4157C1262555F712BC61EC3D0046C5A49A2C190B45 SWAP3 POP PUSH1 0x20 ADD SWAP1 POP PUSH1 0x40 MLOAD DUP1 SWAP2 SUB SWAP1 LOG1 POP POP POP PUSH1 0x16 DUP7 SWAP1 SSTORE POP POP PUSH1 0x40 DUP1 MLOAD NUMBER PUSH1 0x20 DUP3 ADD MSTORE PREVRANDAO SWAP2 DUP2 ADD SWAP2 SWAP1 SWAP2 MSTORE TIMESTAMP PUSH1 0x60 DUP3 ADD MSTORE PUSH1 0x80 ADD SWAP1 POP PUSH1 0x40 DUP1 MLOAD DUP1 DUP4 SUB PUSH1 0x1F NOT ADD DUP2 MSTORE SWAP2 SWAP1 MSTORE DUP1 MLOAD PUSH1 0x20 SWAP1 SWAP2 ADD KECCAK256 PUSH1 0x17 SSTORE POP PUSH1 0x18 DUP1 SLOAD PUSH1 0x1 PUSH1 0x1 PUSH1 0xA0 SHL SUB NOT AND PUSH1 0x1 PUSH1 0x1 PUSH1 0xA0 SHL SUB SWAP5 SWAP1 SWAP5 AND SWAP4 SWAP1 SWAP4 OR SWAP1 SWAP3 SSTORE POP PUSH1 0xC SSTORE PUSH2 0x590 JUMP JUMPDEST ADDRESS EXTCODESIZE ISZERO PUSH2 0x23F JUMPI PUSH1 0x40 MLOAD PUSH3 0xDC149F PUSH1 0xE4 SHL DUP2 MSTORE PUSH1 0x4 ADD PUSH1 0x40 MLOAD DUP1 SWAP2 SUB SWAP1 REVERT JUMPDEST PUSH2 0x248 CALLER PUSH2 0x24A JUMP JUMPDEST JUMP JUMPDEST PUSH1 0xA DUP1 SLOAD PUSH1 0x1 PUSH1 0x1 PUSH1 0xA0 SHL SUB DUP4 DUP2 AND PUSH1 0x1 PUSH1 0x1 PUSH1 0xA0 SHL SUB NOT DUP4 AND DUP2 OR SWAP1 SWAP4 SSTORE PUSH1 0x40 MLOAD SWAP2 AND SWAP2 SWAP1 DUP3 SWAP1 PUSH32 0x8BE0079C531659141344CD1FD0A4F28419497F9722A3DAAFE3B4186F6B6457E0 SWAP1 PUSH0 SWAP1 LOG3 POP POP JUMP JUMPDEST DUP3 DUP1 SLOAD DUP3 DUP3 SSTORE SWAP1 PUSH0 MSTORE PUSH1 0x20 PUSH0 KECCAK256 SWAP1 DUP2 ADD SWAP3 DUP3 ISZERO PUSH2 0x2EE JUMPI SWAP2 PUSH1 0x20 MUL DUP3 ADD JUMPDEST DUP3 DUP2 GT ISZERO PUSH2 0x2EE JUMPI DUP3 MLOAD DUP3 SLOAD PUSH1 0x1 PUSH1 0x1 PUSH1 0xA0 SHL SUB NOT AND PUSH1 0x1 PUSH1 0x1 PUSH1 0xA0 SHL SUB SWAP1 SWAP2 AND OR DUP3 SSTORE PUSH1 0x20 SWAP1 SWAP3 ADD SWAP2 PUSH1 0x1 SWAP1 SWAP2 ADD SWAP1 PUSH2 0x2B9 JUMP JUMPDEST POP PUSH2 0x2FA SWAP3 SWAP2 POP PUSH2 0x2FE JUMP JUMPDEST POP SWAP1 JUMP JUMPDEST JUMPDEST DUP1 DUP3 GT ISZERO PUSH2 0x2FA JUMPI PUSH0 DUP2 SSTORE PUSH1 0x1 ADD PUSH2 0x2FF JUMP JUMPDEST PUSH1 0x1 PUSH1 0x1 PUSH1 0xA0 SHL SUB DUP2 AND DUP2 EQ PUSH2 0x326 JUMPI PUSH0 PUSH0 REVERT JUMPDEST POP JUMP JUMPDEST PUSH4 0x4E487B71 PUSH1 0xE0 SHL PUSH0 MSTORE PUSH1 0x41 PUSH1 0x4 MSTORE PUSH1 0x24 PUSH0 REVERT JUMPDEST DUP1 MLOAD PUSH2 0x348 DUP2 PUSH2 0x312 JUMP JUMPDEST SWAP2 SWAP1 POP JUMP JUMPDEST PUSH0 PUSH0 PUSH0 PUSH0 PUSH1 0x80 DUP6 DUP8 SUB SLT ISZERO PUSH2 0x360 JUMPI PUSH0 PUSH0 REVERT JUMPDEST DUP5 MLOAD PUSH2 0x36B DUP2 PUSH2 0x312 JUMP JUMPDEST PUSH1 0x20 DUP7 ADD MLOAD PUSH1 0x40 DUP8 ADD MLOAD PUSH1 0x60 DUP9 ADD MLOAD SWAP3 SWAP7 POP SWAP1 SWAP5 POP SWAP3 POP PUSH1 0x1 PUSH1 0x1 PUSH1 0x40 SHL SUB DUP2 GT ISZERO PUSH2 0x395 JUMPI PUSH0 PUSH0 REVERT JUMPDEST DUP6 ADD PUSH1 0x1F DUP2 ADD DUP8 SGT PUSH2 0x3A5 JUMPI PUSH0 PUSH0 REVERT JUMPDEST DUP1 MLOAD PUSH1 0x1 PUSH1 0x1 PUSH1 0x40 SHL SUB DUP2 GT ISZERO PUSH2 0x3BE JUMPI PUSH2 0x3BE PUSH2 0x329 JUMP JUMPDEST PUSH1 0x40 MLOAD PUSH1 0x5 DUP3 SWAP1 SHL SWAP1 PUSH1 0x3F DUP3 ADD PUSH1 0x1F NOT AND DUP2 ADD PUSH1 0x1 PUSH1 0x1 PUSH1 0x40 SHL SUB DUP2 GT DUP3 DUP3 LT OR ISZERO PUSH2 0x3EC JUMPI PUSH2 0x3EC PUSH2 0x329 JUMP JUMPDEST PUSH1 0x40 MSTORE SWAP2 DUP3 MSTORE PUSH1 0x20 DUP2 DUP5 ADD DUP2 ADD SWAP3 SWAP1 DUP2 ADD DUP11 DUP5 GT ISZERO PUSH2 0x409 JUMPI PUSH0 PUSH0 REVERT JUMPDEST PUSH1 0x20 DUP6 ADD SWAP5 POP JUMPDEST DUP4 DUP6 LT ISZERO PUSH2 0x42F JUMPI PUSH2 0x421 DUP6 PUSH2 0x33D JUMP JUMPDEST DUP2 MSTORE PUSH1 0x20 SWAP5 DUP6 ADD SWAP5 ADD PUSH2 0x410 JUMP JUMPDEST POP SWAP7 SWAP10 SWAP6 SWAP9 POP SWAP4 SWAP7 POP POP POP POP POP JUMP JUMPDEST PUSH1 0x1 DUP2 DUP2 SHR SWAP1 DUP3 AND DUP1 PUSH2 0x452 JUMPI PUSH1 0x7F DUP3 AND SWAP2 POP JUMPDEST PUSH1 0x20 DUP3 LT DUP2 SUB PUSH2 0x470 JUMPI PUSH4 0x4E487B71 PUSH1 0xE0 SHL PUSH0 MSTORE PUSH1 0x22 PUSH1 0x4 MSTORE PUSH1 0x24 PUSH0 REVERT JUMPDEST POP SWAP2 SWAP1 POP JUMP JUMPDEST PUSH1 0x1F DUP3 GT ISZERO PUSH2 0x4BD JUMPI DUP1 PUSH0 MSTORE PUSH1 0x20 PUSH0 KECCAK256 PUSH1 0x1F DUP5 ADD PUSH1 0x5 SHR DUP2 ADD PUSH1 0x20 DUP6 LT ISZERO PUSH2 0x49B JUMPI POP DUP1 JUMPDEST PUSH1 0x1F DUP5 ADD PUSH1 0x5 SHR DUP3 ADD SWAP2 POP JUMPDEST DUP2 DUP2 LT ISZERO PUSH2 0x4BA JUMPI PUSH0 DUP2 SSTORE PUSH1 0x1 ADD PUSH2 0x4A7 JUMP JUMPDEST POP POP JUMPDEST POP POP POP JUMP JUMPDEST DUP2 MLOAD PUSH1 0x1 PUSH1 0x1 PUSH1 0x40 SHL SUB DUP2 GT ISZERO PUSH2 0x4DB JUMPI PUSH2 0x4DB PUSH2 0x329 JUMP JUMPDEST PUSH2 0x4EF DUP2 PUSH2 0x4E9 DUP5 SLOAD PUSH2 0x43E JUMP JUMPDEST DUP5 PUSH2 0x476 JUMP JUMPDEST PUSH1 0x20 PUSH1 0x1F DUP3 GT PUSH1 0x1 DUP2 EQ PUSH2 0x521 JUMPI PUSH0 DUP4 ISZERO PUSH2 0x50A JUMPI POP DUP5 DUP3 ADD MLOAD JUMPDEST PUSH0 NOT PUSH1 0x3 DUP6 SWAP1 SHL SHR NOT AND PUSH1 0x1 DUP5 SWAP1 SHL OR DUP5 SSTORE PUSH2 0x4BA JUMP JUMPDEST PUSH0 DUP5 DUP2 MSTORE PUSH1 0x20 DUP2 KECCAK256 PUSH1 0x1F NOT DUP6 AND SWAP2 JUMPDEST DUP3 DUP2 LT ISZERO PUSH2 0x550 JUMPI DUP8 DUP6 ADD MLOAD DUP3 SSTORE PUSH1 0x20 SWAP5 DUP6 ADD SWAP5 PUSH1 0x1 SWAP1 SWAP3 ADD SWAP2 ADD PUSH2 0x530 JUMP JUMPDEST POP DUP5 DUP3 LT ISZERO PUSH2 0x56D JUMPI DUP7 DUP5 ADD MLOAD PUSH0 NOT PUSH1 0x3 DUP8 SWAP1 SHL PUSH1 0xF8 AND SHR NOT AND DUP2 SSTORE JUMPDEST POP POP POP POP PUSH1 0x1 SWAP1 DUP2 SHL ADD SWAP1 SSTORE POP JUMP JUMPDEST PUSH4 0x4E487B71 PUSH1 0xE0 SHL PUSH0 MSTORE PUSH1 0x32 PUSH1 0x4 MSTORE PUSH1 0x24 PUSH0 REVERT JUMPDEST PUSH2 0x4E44 DUP1 PUSH2 0x59D PUSH0 CODECOPY PUSH0 RETURN INVALID PUSH1 0x80 PUSH1 0x40 MSTORE PUSH1 0x4 CALLDATASIZE LT PUSH2 0x3BE JUMPI PUSH0 CALLDATALOAD PUSH1 0xE0 SHR DUP1 PUSH4 0x64F101F0 GT PUSH2 0x1F4 JUMPI DUP1 PUSH4 0x95D89B41 GT PUSH2 0x113 JUMPI DUP1 PUSH4 0xC23DC68F GT PUSH2 0xA8 JUMPI DUP1 PUSH4 0xD5ABEB01 GT PUSH2 0x78 JUMPI DUP1 PUSH4 0xD5ABEB01 EQ PUSH2 0xB0B JUMPI DUP1 PUSH4 0xDB846DBE EQ PUSH2 0xB1F JUMPI DUP1 PUSH4 0xE8A3D485 EQ PUSH2 0xB79 JUMPI DUP1 PUSH4 0xE985E9C5 EQ PUSH2 0xB8D JUMPI DUP1 PUSH4 0xF2FDE38B EQ PUSH2 0xBAC JUMPI PUSH0 PUSH0 REVERT JUMPDEST DUP1 PUSH4 0xC23DC68F EQ PUSH2 0xA8D JUMPI DUP1 PUSH4 0xC6AB67A3 EQ PUSH2 0xAB9 JUMPI DUP1 PUSH4 0xC87B56DD EQ PUSH2 0xACD JUMPI DUP1 PUSH4 0xCB743BA8 EQ PUSH2 0xAEC JUMPI PUSH0 PUSH0 REVERT JUMPDEST DUP1 PUSH4 0xA4830114 GT PUSH2 0xE3 JUMPI DUP1 PUSH4 0xA4830114 EQ PUSH2 0xA1F JUMPI DUP1 PUSH4 0xA9FC664E EQ PUSH2 0xA3E JUMPI DUP1 PUSH4 0xAD2F852A EQ PUSH2 0xA5D JUMPI DUP1 PUSH4 0xB88D4FDE EQ PUSH2 0xA7A JUMPI PUSH0 PUSH0 REVERT JUMPDEST DUP1 PUSH4 0x95D89B41 EQ PUSH2 0x9B8 JUMPI DUP1 PUSH4 0x99A2557A EQ PUSH2 0x9CC JUMPI DUP1 PUSH4 0x99C5DEF3 EQ PUSH2 0x9EB JUMPI DUP1 PUSH4 0xA22CB465 EQ PUSH2 0xA00 JUMPI PUSH0 PUSH0 REVERT JUMPDEST DUP1 PUSH4 0x7BC2BE76 GT PUSH2 0x189 JUMPI DUP1 PUSH4 0x8DA5CB5B GT PUSH2 0x159 JUMPI DUP1 PUSH4 0x8DA5CB5B EQ PUSH2 0x948 JUMPI DUP1 PUSH4 0x911F456B EQ PUSH2 0x965 JUMPI DUP1 PUSH4 0x927CF905 EQ PUSH2 0x984 JUMPI DUP1 PUSH4 0x938E3D7B EQ PUSH2 0x999 JUMPI PUSH0 PUSH0 REVERT JUMPDEST DUP1 PUSH4 0x7BC2BE76 EQ PUSH2 0x8A4 JUMPI DUP1 PUSH4 0x840E15D4 EQ PUSH2 0x8C3 JUMPI DUP1 PUSH4 0x8462151C EQ PUSH2 0x8FD JUMPI DUP1 PUSH4 0x8ADA6B0F EQ PUSH2 0x929 JUMPI PUSH0 PUSH0 REVERT JUMPDEST DUP1 PUSH4 0x70A08231 GT PUSH2 0x1C4 JUMPI DUP1 PUSH4 0x70A08231 EQ PUSH2 0x83E JUMPI DUP1 PUSH4 0x715018A6 EQ PUSH2 0x85D JUMPI DUP1 PUSH4 0x79BA5097 EQ PUSH2 0x871 JUMPI DUP1 PUSH4 0x7A05BC82 EQ PUSH2 0x885 JUMPI PUSH0 PUSH0 REVERT JUMPDEST DUP1 PUSH4 0x64F101F0 EQ PUSH2 0x7D8 JUMPI DUP1 PUSH4 0x66251B69 EQ PUSH2 0x7EC JUMPI DUP1 PUSH4 0x6C0360EB EQ PUSH2 0x80B JUMPI DUP1 PUSH4 0x6F8B44B0 EQ PUSH2 0x81F JUMPI PUSH0 PUSH0 REVERT JUMPDEST DUP1 PUSH4 0x42842E0E GT PUSH2 0x2E0 JUMPI DUP1 PUSH4 0x511AA644 GT PUSH2 0x275 JUMPI DUP1 PUSH4 0x5BBB2177 GT PUSH2 0x245 JUMPI DUP1 PUSH4 0x5BBB2177 EQ PUSH2 0x74F JUMPI DUP1 PUSH4 0x60C308B6 EQ PUSH2 0x77B JUMPI DUP1 PUSH4 0x6352211E EQ PUSH2 0x79A JUMPI DUP1 PUSH4 0x64869DAD EQ PUSH2 0x7B9 JUMPI PUSH0 PUSH0 REVERT JUMPDEST DUP1 PUSH4 0x511AA644 EQ PUSH2 0x6DD JUMPI DUP1 PUSH4 0x55F804B3 EQ PUSH2 0x6FC JUMPI DUP1 PUSH4 0x56D3163D EQ PUSH2 0x71B JUMPI DUP1 PUSH4 0x5743BDFF EQ PUSH2 0x73A JUMPI PUSH0 PUSH0 REVERT JUMPDEST DUP1 PUSH4 0x484B973C GT PUSH2 0x2B0 JUMPI DUP1 PUSH4 0x484B973C EQ PUSH2 0x657 JUMPI DUP1 PUSH4 0x48A4C101 EQ PUSH2 0x676 JUMPI DUP1 PUSH4 0x4B6769D5 EQ PUSH2 0x695 JUMPI DUP1 PUSH4 0x4C62DEC1 EQ PUSH2 0x6B4 JUMPI PUSH0 PUSH0 REVERT JUMPDEST DUP1 PUSH4 0x42842E0E EQ PUSH2 0x5ED JUMPI DUP1 PUSH4 0x42966C68 EQ PUSH2 0x600 JUMPI DUP1 PUSH4 0x44DAE42C EQ PUSH2 0x61F JUMPI DUP1 PUSH4 0x4563F30A EQ PUSH2 0x63E JUMPI PUSH0 PUSH0 REVERT JUMPDEST DUP1 PUSH4 0x18160DDD GT PUSH2 0x356 JUMPI DUP1 PUSH4 0x23B872DD GT PUSH2 0x326 JUMPI DUP1 PUSH4 0x23B872DD EQ PUSH2 0x559 JUMPI DUP1 PUSH4 0x2A55205A EQ PUSH2 0x56C JUMPI DUP1 PUSH4 0x3680620D EQ PUSH2 0x5AA JUMPI DUP1 PUSH4 0x42260B5D EQ PUSH2 0x5C9 JUMPI PUSH0 PUSH0 REVERT JUMPDEST DUP1 PUSH4 0x18160DDD EQ PUSH2 0x4E4 JUMPI DUP1 PUSH4 0x1B73593C EQ PUSH2 0x506 JUMPI DUP1 PUSH4 0x1DBD7390 EQ PUSH2 0x525 JUMPI DUP1 PUSH4 0x23452B9C EQ PUSH2 0x545 JUMPI PUSH0 PUSH0 REVERT JUMPDEST DUP1 PUSH4 0x98144D4 GT PUSH2 0x391 JUMPI DUP1 PUSH4 0x98144D4 EQ PUSH2 0x463 JUMPI DUP1 PUSH4 0x99B6BFA EQ PUSH2 0x480 JUMPI DUP1 PUSH4 0xD705DF6 EQ PUSH2 0x49F JUMPI DUP1 PUSH4 0xD9D713B EQ PUSH2 0x4C5 JUMPI PUSH0 PUSH0 REVERT JUMPDEST DUP1 PUSH4 0x1FFC9A7 EQ PUSH2 0x3C2 JUMPI DUP1 PUSH4 0x6FDDE03 EQ PUSH2 0x3F6 JUMPI DUP1 PUSH4 0x81812FC EQ PUSH2 0x417 JUMPI DUP1 PUSH4 0x95EA7B3 EQ PUSH2 0x44E JUMPI JUMPDEST PUSH0 PUSH0 REVERT JUMPDEST CALLVALUE DUP1 ISZERO PUSH2 0x3CD JUMPI PUSH0 PUSH0 REVERT JUMPDEST POP PUSH2 0x3E1 PUSH2 0x3DC CALLDATASIZE PUSH1 0x4 PUSH2 0x396A JUMP JUMPDEST PUSH2 0xBCB JUMP JUMPDEST PUSH1 0x40 MLOAD SWAP1 ISZERO ISZERO DUP2 MSTORE PUSH1 0x20 ADD JUMPDEST PUSH1 0x40 MLOAD DUP1 SWAP2 SUB SWAP1 RETURN JUMPDEST CALLVALUE DUP1 ISZERO PUSH2 0x401 JUMPI PUSH0 PUSH0 REVERT JUMPDEST POP PUSH2 0x40A PUSH2 0xC10 JUMP JUMPDEST PUSH1 0x40 MLOAD PUSH2 0x3ED SWAP2 SWAP1 PUSH2 0x39B3 JUMP JUMPDEST CALLVALUE DUP1 ISZERO PUSH2 0x422 JUMPI PUSH0 PUSH0 REVERT JUMPDEST POP PUSH2 0x436 PUSH2 0x431 CALLDATASIZE PUSH1 0x4 PUSH2 0x39C5 JUMP JUMPDEST PUSH2 0xCA0 JUMP JUMPDEST PUSH1 0x40 MLOAD PUSH1 0x1 PUSH1 0x1 PUSH1 0xA0 SHL SUB SWAP1 SWAP2 AND DUP2 MSTORE PUSH1 0x20 ADD PUSH2 0x3ED JUMP JUMPDEST PUSH2 0x461 PUSH2 0x45C CALLDATASIZE PUSH1 0x4 PUSH2 0x39F0 JUMP JUMPDEST PUSH2 0xCD9 JUMP JUMPDEST STOP JUMPDEST CALLVALUE DUP1 ISZERO PUSH2 0x46E JUMPI PUSH0 PUSH0 REVERT JUMPDEST POP PUSH1 0x9 SLOAD PUSH1 0x1 PUSH1 0x1 PUSH1 0xA0 SHL SUB AND PUSH2 0x436 JUMP JUMPDEST CALLVALUE DUP1 ISZERO PUSH2 0x48B JUMPI PUSH0 PUSH0 REVERT JUMPDEST POP PUSH2 0x461 PUSH2 0x49A CALLDATASIZE PUSH1 0x4 PUSH2 0x39C5 JUMP JUMPDEST PUSH2 0xD0B JUMP JUMPDEST CALLVALUE DUP1 ISZERO PUSH2 0x4AA JUMPI PUSH0 PUSH0 REVERT JUMPDEST POP PUSH1 0x40 DUP1 MLOAD PUSH4 0x657711F5 PUSH1 0xE1 SHL DUP2 MSTORE PUSH0 PUSH1 0x20 DUP3 ADD MSTORE ADD PUSH2 0x3ED JUMP JUMPDEST CALLVALUE DUP1 ISZERO PUSH2 0x4D0 JUMPI PUSH0 PUSH0 REVERT JUMPDEST POP PUSH2 0x461 PUSH2 0x4DF CALLDATASIZE PUSH1 0x4 PUSH2 0x3A29 JUMP JUMPDEST PUSH2 0xD81 JUMP JUMPDEST CALLVALUE DUP1 ISZERO PUSH2 0x4EF JUMPI PUSH0 PUSH0 REVERT JUMPDEST POP PUSH2 0x4F8 PUSH2 0xDD1 JUMP JUMPDEST PUSH1 0x40 MLOAD SWAP1 DUP2 MSTORE PUSH1 0x20 ADD PUSH2 0x3ED JUMP JUMPDEST CALLVALUE DUP1 ISZERO PUSH2 0x511 JUMPI PUSH0 PUSH0 REVERT JUMPDEST POP PUSH2 0x461 PUSH2 0x520 CALLDATASIZE PUSH1 0x4 PUSH2 0x3A42 JUMP JUMPDEST PUSH2 0xDED JUMP JUMPDEST CALLVALUE DUP1 ISZERO PUSH2 0x530 JUMPI PUSH0 PUSH0 REVERT JUMPDEST POP PUSH1 0x18 SLOAD PUSH2 0x3E1 SWAP1 PUSH1 0x1 PUSH1 0xA0 SHL SWAP1 DIV PUSH1 0xFF AND DUP2 JUMP JUMPDEST CALLVALUE DUP1 ISZERO PUSH2 0x550 JUMPI PUSH0 PUSH0 REVERT JUMPDEST POP PUSH2 0x461 PUSH2 0xE5B JUMP JUMPDEST PUSH2 0x461 PUSH2 0x567 CALLDATASIZE PUSH1 0x4 PUSH2 0x3A80 JUMP JUMPDEST PUSH2 0xEA8 JUMP JUMPDEST CALLVALUE DUP1 ISZERO PUSH2 0x577 JUMPI PUSH0 PUSH0 REVERT JUMPDEST POP PUSH2 0x58B PUSH2 0x586 CALLDATASIZE PUSH1 0x4 PUSH2 0x3ABE JUMP JUMPDEST PUSH2 0x1019 JUMP JUMPDEST PUSH1 0x40 DUP1 MLOAD PUSH1 0x1 PUSH1 0x1 PUSH1 0xA0 SHL SUB SWAP1 SWAP4 AND DUP4 MSTORE PUSH1 0x20 DUP4 ADD SWAP2 SWAP1 SWAP2 MSTORE ADD PUSH2 0x3ED JUMP JUMPDEST CALLVALUE DUP1 ISZERO PUSH2 0x5B5 JUMPI PUSH0 PUSH0 REVERT JUMPDEST POP PUSH2 0x461 PUSH2 0x5C4 CALLDATASIZE PUSH1 0x4 PUSH2 0x3ADE JUMP JUMPDEST PUSH2 0x105E JUMP JUMPDEST CALLVALUE DUP1 ISZERO PUSH2 0x5D4 JUMPI PUSH0 PUSH0 REVERT JUMPDEST POP PUSH1 0x10 SLOAD PUSH1 0x1 PUSH1 0xA0 SHL SWAP1 DIV PUSH1 0x1 PUSH1 0x1 PUSH1 0x60 SHL SUB AND PUSH2 0x4F8 JUMP JUMPDEST PUSH2 0x461 PUSH2 0x5FB CALLDATASIZE PUSH1 0x4 PUSH2 0x3A80 JUMP JUMPDEST PUSH2 0x109B JUMP JUMPDEST CALLVALUE DUP1 ISZERO PUSH2 0x60B JUMPI PUSH0 PUSH0 REVERT JUMPDEST POP PUSH2 0x461 PUSH2 0x61A CALLDATASIZE PUSH1 0x4 PUSH2 0x39C5 JUMP JUMPDEST PUSH2 0x10BA JUMP JUMPDEST CALLVALUE DUP1 ISZERO PUSH2 0x62A JUMPI PUSH0 PUSH0 REVERT JUMPDEST POP PUSH2 0x461 PUSH2 0x639 CALLDATASIZE PUSH1 0x4 PUSH2 0x3B30 JUMP JUMPDEST PUSH2 0x10C8 JUMP JUMPDEST CALLVALUE DUP1 ISZERO PUSH2 0x649 JUMPI PUSH0 PUSH0 REVERT JUMPDEST POP PUSH1 0x14 SLOAD PUSH2 0x3E1 SWAP1 PUSH1 0xFF AND DUP2 JUMP JUMPDEST CALLVALUE DUP1 ISZERO PUSH2 0x662 JUMPI PUSH0 PUSH0 REVERT JUMPDEST POP PUSH2 0x461 PUSH2 0x671 CALLDATASIZE PUSH1 0x4 PUSH2 0x39F0 JUMP JUMPDEST PUSH2 0x11D6 JUMP JUMPDEST CALLVALUE DUP1 ISZERO PUSH2 0x681 JUMPI PUSH0 PUSH0 REVERT JUMPDEST POP PUSH2 0x461 PUSH2 0x690 CALLDATASIZE PUSH1 0x4 PUSH2 0x3B49 JUMP JUMPDEST PUSH2 0x12A7 JUMP JUMPDEST CALLVALUE DUP1 ISZERO PUSH2 0x6A0 JUMPI PUSH0 PUSH0 REVERT JUMPDEST POP PUSH2 0x461 PUSH2 0x6AF CALLDATASIZE PUSH1 0x4 PUSH2 0x3ABE JUMP JUMPDEST PUSH2 0x1313 JUMP JUMPDEST CALLVALUE DUP1 ISZERO PUSH2 0x6BF JUMPI PUSH0 PUSH0 REVERT JUMPDEST POP PUSH2 0x6C8 PUSH2 0x1462 JUMP JUMPDEST PUSH1 0x40 MLOAD PUSH4 0xFFFFFFFF SWAP1 SWAP2 AND DUP2 MSTORE PUSH1 0x20 ADD PUSH2 0x3ED JUMP JUMPDEST CALLVALUE DUP1 ISZERO PUSH2 0x6E8 JUMPI PUSH0 PUSH0 REVERT JUMPDEST POP PUSH2 0x461 PUSH2 0x6F7 CALLDATASIZE PUSH1 0x4 PUSH2 0x3C46 JUMP JUMPDEST PUSH2 0x146B JUMP JUMPDEST CALLVALUE DUP1 ISZERO PUSH2 0x707 JUMPI PUSH0 PUSH0 REVERT JUMPDEST POP PUSH2 0x461 PUSH2 0x716 CALLDATASIZE PUSH1 0x4 PUSH2 0x3D55 JUMP JUMPDEST PUSH2 0x14AA JUMP JUMPDEST CALLVALUE DUP1 ISZERO PUSH2 0x726 JUMPI PUSH0 PUSH0 REVERT JUMPDEST POP PUSH2 0x461 PUSH2 0x735 CALLDATASIZE PUSH1 0x4 PUSH2 0x3D93 JUMP JUMPDEST PUSH2 0x1505 JUMP JUMPDEST CALLVALUE DUP1 ISZERO PUSH2 0x745 JUMPI PUSH0 PUSH0 REVERT JUMPDEST POP PUSH2 0x4F8 PUSH1 0x1A SLOAD DUP2 JUMP JUMPDEST CALLVALUE DUP1 ISZERO PUSH2 0x75A JUMPI PUSH0 PUSH0 REVERT JUMPDEST POP PUSH2 0x76E PUSH2 0x769 CALLDATASIZE PUSH1 0x4 PUSH2 0x3DEE JUMP JUMPDEST PUSH2 0x156D JUMP JUMPDEST PUSH1 0x40 MLOAD PUSH2 0x3ED SWAP2 SWAP1 PUSH2 0x3E5C JUMP JUMPDEST CALLVALUE DUP1 ISZERO PUSH2 0x786 JUMPI PUSH0 PUSH0 REVERT JUMPDEST POP PUSH2 0x461 PUSH2 0x795 CALLDATASIZE PUSH1 0x4 PUSH2 0x3DEE JUMP JUMPDEST PUSH2 0x15B8 JUMP JUMPDEST CALLVALUE DUP1 ISZERO PUSH2 0x7A5 JUMPI PUSH0 PUSH0 REVERT JUMPDEST POP PUSH2 0x436 PUSH2 0x7B4 CALLDATASIZE PUSH1 0x4 PUSH2 0x39C5 JUMP JUMPDEST PUSH2 0x15CA JUMP JUMPDEST CALLVALUE DUP1 ISZERO PUSH2 0x7C4 JUMPI PUSH0 PUSH0 REVERT JUMPDEST POP PUSH2 0x461 PUSH2 0x7D3 CALLDATASIZE PUSH1 0x4 PUSH2 0x39F0 JUMP JUMPDEST PUSH2 0x15D4 JUMP JUMPDEST CALLVALUE DUP1 ISZERO PUSH2 0x7E3 JUMPI PUSH0 PUSH0 REVERT JUMPDEST POP PUSH2 0x461 PUSH2 0x1675 JUMP JUMPDEST CALLVALUE DUP1 ISZERO PUSH2 0x7F7 JUMPI PUSH0 PUSH0 REVERT JUMPDEST POP PUSH2 0x461 PUSH2 0x806 CALLDATASIZE PUSH1 0x4 PUSH2 0x3EA9 JUMP JUMPDEST PUSH2 0x1692 JUMP JUMPDEST CALLVALUE DUP1 ISZERO PUSH2 0x816 JUMPI PUSH0 PUSH0 REVERT JUMPDEST POP PUSH2 0x40A PUSH2 0x16D1 JUMP JUMPDEST CALLVALUE DUP1 ISZERO PUSH2 0x82A JUMPI PUSH0 PUSH0 REVERT JUMPDEST POP PUSH2 0x461 PUSH2 0x839 CALLDATASIZE PUSH1 0x4 PUSH2 0x39C5 JUMP JUMPDEST PUSH2 0x16DB JUMP JUMPDEST CALLVALUE DUP1 ISZERO PUSH2 0x849 JUMPI PUSH0 PUSH0 REVERT JUMPDEST POP PUSH2 0x4F8 PUSH2 0x858 CALLDATASIZE PUSH1 0x4 PUSH2 0x3D93 JUMP JUMPDEST PUSH2 0x177D JUMP JUMPDEST CALLVALUE DUP1 ISZERO PUSH2 0x868 JUMPI PUSH0 PUSH0 REVERT JUMPDEST POP PUSH2 0x461 PUSH2 0x17C0 JUMP JUMPDEST CALLVALUE DUP1 ISZERO PUSH2 0x87C JUMPI PUSH0 PUSH0 REVERT JUMPDEST POP PUSH2 0x461 PUSH2 0x17D3 JUMP JUMPDEST CALLVALUE DUP1 ISZERO PUSH2 0x890 JUMPI PUSH0 PUSH0 REVERT JUMPDEST POP PUSH2 0x461 PUSH2 0x89F CALLDATASIZE PUSH1 0x4 PUSH2 0x3ED5 JUMP JUMPDEST PUSH2 0x184B JUMP JUMPDEST CALLVALUE DUP1 ISZERO PUSH2 0x8AF JUMPI PUSH0 PUSH0 REVERT JUMPDEST POP PUSH2 0x461 PUSH2 0x8BE CALLDATASIZE PUSH1 0x4 PUSH2 0x3F25 JUMP JUMPDEST PUSH2 0x188A JUMP JUMPDEST CALLVALUE DUP1 ISZERO PUSH2 0x8CE JUMPI PUSH0 PUSH0 REVERT JUMPDEST POP PUSH2 0x8E2 PUSH2 0x8DD CALLDATASIZE PUSH1 0x4 PUSH2 0x3D93 JUMP JUMPDEST PUSH2 0x18C9 JUMP JUMPDEST PUSH1 0x40 DUP1 MLOAD SWAP4 DUP5 MSTORE PUSH1 0x20 DUP5 ADD SWAP3 SWAP1 SWAP3 MSTORE SWAP1 DUP3 ADD MSTORE PUSH1 0x60 ADD PUSH2 0x3ED JUMP JUMPDEST CALLVALUE DUP1 ISZERO PUSH2 0x908 JUMPI PUSH0 PUSH0 REVERT JUMPDEST POP PUSH2 0x91C PUSH2 0x917 CALLDATASIZE PUSH1 0x4 PUSH2 0x3D93 JUMP JUMPDEST PUSH2 0x1904 JUMP JUMPDEST PUSH1 0x40 MLOAD PUSH2 0x3ED SWAP2 SWAP1 PUSH2 0x3F76 JUMP JUMPDEST CALLVALUE DUP1 ISZERO PUSH2 0x934 JUMPI PUSH0 PUSH0 REVERT JUMPDEST POP PUSH1 0x18 SLOAD PUSH2 0x436 SWAP1 PUSH1 0x1 PUSH1 0x1 PUSH1 0xA0 SHL SUB AND DUP2 JUMP JUMPDEST CALLVALUE DUP1 ISZERO PUSH2 0x953 JUMPI PUSH0 PUSH0 REVERT JUMPDEST POP PUSH1 0xA SLOAD PUSH1 0x1 PUSH1 0x1 PUSH1 0xA0 SHL SUB AND PUSH2 0x436 JUMP JUMPDEST CALLVALUE DUP1 ISZERO PUSH2 0x970 JUMPI PUSH0 PUSH0 REVERT JUMPDEST POP PUSH2 0x461 PUSH2 0x97F CALLDATASIZE PUSH1 0x4 PUSH2 0x3FAD JUMP JUMPDEST PUSH2 0x192A JUMP JUMPDEST CALLVALUE DUP1 ISZERO PUSH2 0x98F JUMPI PUSH0 PUSH0 REVERT JUMPDEST POP PUSH2 0x4F8 PUSH1 0x16 SLOAD DUP2 JUMP JUMPDEST CALLVALUE DUP1 ISZERO PUSH2 0x9A4 JUMPI PUSH0 PUSH0 REVERT JUMPDEST POP PUSH2 0x461 PUSH2 0x9B3 CALLDATASIZE PUSH1 0x4 PUSH2 0x3D55 JUMP JUMPDEST PUSH2 0x24E1 JUMP JUMPDEST CALLVALUE DUP1 ISZERO PUSH2 0x9C3 JUMPI PUSH0 PUSH0 REVERT JUMPDEST POP PUSH2 0x40A PUSH2 0x2528 JUMP JUMPDEST CALLVALUE DUP1 ISZERO PUSH2 0x9D7 JUMPI PUSH0 PUSH0 REVERT JUMPDEST POP PUSH2 0x91C PUSH2 0x9E6 CALLDATASIZE PUSH1 0x4 PUSH2 0x3FE4 JUMP JUMPDEST PUSH2 0x2537 JUMP JUMPDEST CALLVALUE DUP1 ISZERO PUSH2 0x9F6 JUMPI PUSH0 PUSH0 REVERT JUMPDEST POP PUSH2 0x4F8 PUSH1 0x17 SLOAD DUP2 JUMP JUMPDEST CALLVALUE DUP1 ISZERO PUSH2 0xA0B JUMPI PUSH0 PUSH0 REVERT JUMPDEST POP PUSH2 0x461 PUSH2 0xA1A CALLDATASIZE PUSH1 0x4 PUSH2 0x4016 JUMP JUMPDEST PUSH2 0x254E JUMP JUMPDEST CALLVALUE DUP1 ISZERO PUSH2 0xA2A JUMPI PUSH0 PUSH0 REVERT JUMPDEST POP PUSH2 0x461 PUSH2 0xA39 CALLDATASIZE PUSH1 0x4 PUSH2 0x3ABE JUMP JUMPDEST PUSH2 0x257C JUMP JUMPDEST CALLVALUE DUP1 ISZERO PUSH2 0xA49 JUMPI PUSH0 PUSH0 REVERT JUMPDEST POP PUSH2 0x461 PUSH2 0xA58 CALLDATASIZE PUSH1 0x4 PUSH2 0x3D93 JUMP JUMPDEST PUSH2 0x25A7 JUMP JUMPDEST CALLVALUE DUP1 ISZERO PUSH2 0xA68 JUMPI PUSH0 PUSH0 REVERT JUMPDEST POP PUSH1 0x10 SLOAD PUSH1 0x1 PUSH1 0x1 PUSH1 0xA0 SHL SUB AND PUSH2 0x436 JUMP JUMPDEST PUSH2 0x461 PUSH2 0xA88 CALLDATASIZE PUSH1 0x4 PUSH2 0x406F JUMP JUMPDEST PUSH2 0x25B8 JUMP JUMPDEST CALLVALUE DUP1 ISZERO PUSH2 0xA98 JUMPI PUSH0 PUSH0 REVERT JUMPDEST POP PUSH2 0xAAC PUSH2 0xAA7 CALLDATASIZE PUSH1 0x4 PUSH2 0x39C5 JUMP JUMPDEST PUSH2 0x25F9 JUMP JUMPDEST PUSH1 0x40 MLOAD PUSH2 0x3ED SWAP2 SWAP1 PUSH2 0x4116 JUMP JUMPDEST CALLVALUE DUP1 ISZERO PUSH2 0xAC4 JUMPI PUSH0 PUSH0 REVERT JUMPDEST POP PUSH1 0xF SLOAD PUSH2 0x4F8 JUMP JUMPDEST CALLVALUE DUP1 ISZERO PUSH2 0xAD8 JUMPI PUSH0 PUSH0 REVERT JUMPDEST POP PUSH2 0x40A PUSH2 0xAE7 CALLDATASIZE PUSH1 0x4 PUSH2 0x39C5 JUMP JUMPDEST PUSH2 0x2659 JUMP JUMPDEST CALLVALUE DUP1 ISZERO PUSH2 0xAF7 JUMPI PUSH0 PUSH0 REVERT JUMPDEST POP PUSH2 0x461 PUSH2 0xB06 CALLDATASIZE PUSH1 0x4 PUSH2 0x3B49 JUMP JUMPDEST PUSH2 0x270D JUMP JUMPDEST CALLVALUE DUP1 ISZERO PUSH2 0xB16 JUMPI PUSH0 PUSH0 REVERT JUMPDEST POP PUSH1 0xC SLOAD PUSH2 0x4F8 JUMP JUMPDEST CALLVALUE DUP1 ISZERO PUSH2 0xB2A JUMPI PUSH0 PUSH0 REVERT JUMPDEST POP PUSH2 0xB5C PUSH2 0xB39 CALLDATASIZE PUSH1 0x4 PUSH2 0x39C5 JUMP JUMPDEST PUSH1 0x19 PUSH1 0x20 MSTORE PUSH0 SWAP1 DUP2 MSTORE PUSH1 0x40 SWAP1 KECCAK256 SLOAD PUSH4 0xFFFFFFFF DUP1 DUP3 AND SWAP2 PUSH5 0x100000000 SWAP1 DIV AND DUP3 JUMP JUMPDEST PUSH1 0x40 DUP1 MLOAD PUSH4 0xFFFFFFFF SWAP4 DUP5 AND DUP2 MSTORE SWAP3 SWAP1 SWAP2 AND PUSH1 0x20 DUP4 ADD MSTORE ADD PUSH2 0x3ED JUMP JUMPDEST CALLVALUE DUP1 ISZERO PUSH2 0xB84 JUMPI PUSH0 PUSH0 REVERT JUMPDEST POP PUSH2 0x40A PUSH2 0x2754 JUMP JUMPDEST CALLVALUE DUP1 ISZERO PUSH2 0xB98 JUMPI PUSH0 PUSH0 REVERT JUMPDEST POP PUSH2 0x3E1 PUSH2 0xBA7 CALLDATASIZE PUSH1 0x4 PUSH2 0x3EA9 JUMP JUMPDEST PUSH2 0x2763 JUMP JUMPDEST CALLVALUE DUP1 ISZERO PUSH2 0xBB7 JUMPI PUSH0 PUSH0 REVERT JUMPDEST POP PUSH2 0x461 PUSH2 0xBC6 CALLDATASIZE PUSH1 0x4 PUSH2 0x3D93 JUMP JUMPDEST PUSH2 0x27BE JUMP JUMPDEST PUSH0 PUSH1 0x1 PUSH1 0x1 PUSH1 0xE0 SHL SUB NOT DUP3 AND PUSH4 0xC487F47 PUSH1 0xE1 SHL EQ DUP1 PUSH2 0xBFB JUMPI POP PUSH1 0x1 PUSH1 0x1 PUSH1 0xE0 SHL SUB NOT DUP3 AND PUSH4 0x9C154415 PUSH1 0xE0 SHL EQ JUMPDEST DUP1 PUSH2 0xC0A JUMPI POP PUSH2 0xC0A DUP3 PUSH2 0x283B JUMP JUMPDEST SWAP3 SWAP2 POP POP JUMP JUMPDEST PUSH1 0x60 PUSH1 0x2 DUP1 SLOAD PUSH2 0xC1F SWAP1 PUSH2 0x4124 JUMP JUMPDEST DUP1 PUSH1 0x1F ADD PUSH1 0x20 DUP1 SWAP2 DIV MUL PUSH1 0x20 ADD PUSH1 0x40 MLOAD SWAP1 DUP2 ADD PUSH1 0x40 MSTORE DUP1 SWAP3 SWAP2 SWAP1 DUP2 DUP2 MSTORE PUSH1 0x20 ADD DUP3 DUP1 SLOAD PUSH2 0xC4B SWAP1 PUSH2 0x4124 JUMP JUMPDEST DUP1 ISZERO PUSH2 0xC96 JUMPI DUP1 PUSH1 0x1F LT PUSH2 0xC6D JUMPI PUSH2 0x100 DUP1 DUP4 SLOAD DIV MUL DUP4 MSTORE SWAP2 PUSH1 0x20 ADD SWAP2 PUSH2 0xC96 JUMP JUMPDEST DUP3 ADD SWAP2 SWAP1 PUSH0 MSTORE PUSH1 0x20 PUSH0 KECCAK256 SWAP1 JUMPDEST DUP2 SLOAD DUP2 MSTORE SWAP1 PUSH1 0x1 ADD SWAP1 PUSH1 0x20 ADD DUP1 DUP4 GT PUSH2 0xC79 JUMPI DUP3 SWAP1 SUB PUSH1 0x1F AND DUP3 ADD SWAP2 JUMPDEST POP POP POP POP POP SWAP1 POP SWAP1 JUMP JUMPDEST PUSH0 PUSH2 0xCAA DUP3 PUSH2 0x28B0 JUMP JUMPDEST PUSH2 0xCBE JUMPI PUSH2 0xCBE PUSH4 0x33D1C039 PUSH1 0xE2 SHL PUSH2 0x28F8 JUMP JUMPDEST POP PUSH0 SWAP1 DUP2 MSTORE PUSH1 0x6 PUSH1 0x20 MSTORE PUSH1 0x40 SWAP1 KECCAK256 SLOAD PUSH1 0x1 PUSH1 0x1 PUSH1 0xA0 SHL SUB AND SWAP1 JUMP JUMPDEST PUSH1 0x14 SLOAD PUSH1 0xFF AND ISZERO PUSH2 0xCFD JUMPI PUSH1 0x40 MLOAD PUSH4 0x6AB17E05 PUSH1 0xE0 SHL DUP2 MSTORE PUSH1 0x4 ADD PUSH1 0x40 MLOAD DUP1 SWAP2 SUB SWAP1 REVERT JUMPDEST PUSH2 0xD07 DUP3 DUP3 PUSH2 0x2900 JUMP JUMPDEST POP POP JUMP JUMPDEST PUSH2 0xD13 PUSH2 0x290C JUMP JUMPDEST PUSH0 PUSH2 0xD1C PUSH2 0x295B JUMP JUMPDEST GT ISZERO PUSH2 0xD3B JUMPI PUSH1 0x40 MLOAD PUSH4 0xE03264AF PUSH1 0xE0 SHL DUP2 MSTORE PUSH1 0x4 ADD PUSH1 0x40 MLOAD DUP1 SWAP2 SUB SWAP1 REVERT JUMPDEST PUSH1 0xF DUP1 SLOAD SWAP1 DUP3 SWAP1 SSTORE PUSH1 0x40 DUP1 MLOAD DUP3 DUP2 MSTORE PUSH1 0x20 DUP2 ADD DUP5 SWAP1 MSTORE PUSH32 0x7C22004198BF87DA0F0DAB623C72E66CA1200F4454AA3B9CA30F436275428B7C SWAP2 ADD JUMPDEST PUSH1 0x40 MLOAD DUP1 SWAP2 SUB SWAP1 LOG1 POP POP JUMP JUMPDEST PUSH2 0xD89 PUSH2 0x2969 JUMP JUMPDEST PUSH1 0x14 DUP1 SLOAD PUSH1 0xFF NOT AND DUP3 ISZERO ISZERO SWAP1 DUP2 OR SWAP1 SWAP2 SSTORE PUSH1 0x40 MLOAD SWAP1 DUP2 MSTORE PUSH32 0x867006957979DAA4AA88EB4157C1262555F712BC61EC3D0046C5A49A2C190B45 SWAP1 PUSH1 0x20 ADD JUMPDEST PUSH1 0x40 MLOAD DUP1 SWAP2 SUB SWAP1 LOG1 POP JUMP JUMPDEST PUSH0 PUSH1 0x1 DUP1 SLOAD PUSH0 SLOAD SUB SUB SWAP1 POP PUSH0 NOT DUP1 JUMPDEST EQ PUSH2 0xDEA JUMPI PUSH1 0x8 SLOAD ADD JUMPDEST SWAP1 JUMP JUMPDEST PUSH2 0xDF5 PUSH2 0x290C JUMP JUMPDEST PUSH2 0xDFE DUP3 PUSH2 0x2994 JUMP JUMPDEST PUSH1 0x40 MLOAD PUSH4 0x1308E65 PUSH1 0xE0 SHL DUP2 MSTORE PUSH1 0x1 PUSH1 0x1 PUSH1 0xA0 SHL SUB DUP4 AND SWAP1 PUSH4 0x1308E65 SWAP1 PUSH2 0xE2A SWAP1 DUP5 SWAP1 PUSH1 0x4 ADD PUSH2 0x41F2 JUMP JUMPDEST PUSH0 PUSH1 0x40 MLOAD DUP1 DUP4 SUB DUP2 PUSH0 DUP8 DUP1 EXTCODESIZE ISZERO DUP1 ISZERO PUSH2 0xE41 JUMPI PUSH0 PUSH0 REVERT JUMPDEST POP GAS CALL ISZERO DUP1 ISZERO PUSH2 0xE53 JUMPI RETURNDATASIZE PUSH0 PUSH0 RETURNDATACOPY RETURNDATASIZE PUSH0 REVERT JUMPDEST POP POP POP POP POP POP JUMP JUMPDEST PUSH2 0xE63 PUSH2 0x2969 JUMP JUMPDEST PUSH1 0xB DUP1 SLOAD PUSH1 0x1 PUSH1 0x1 PUSH1 0xA0 SHL SUB NOT AND SWAP1 SSTORE PUSH1 0x40 MLOAD PUSH0 DUP2 MSTORE PUSH32 0x11A3CF439FB225BFE74225716B6774765670EC1060E3796802E62139D69974DA SWAP1 PUSH1 0x20 ADD PUSH1 0x40 MLOAD DUP1 SWAP2 SUB SWAP1 LOG1 JUMP JUMPDEST PUSH0 PUSH2 0xEB2 DUP3 PUSH2 0x29D1 JUMP JUMPDEST PUSH1 0x1 PUSH1 0x1 PUSH1 0xA0 SHL SUB SWAP5 DUP6 AND SWAP5 SWAP1 SWAP2 POP DUP2 AND DUP5 EQ PUSH2 0xED8 JUMPI PUSH2 0xED8 PUSH3 0xA11481 PUSH1 0xE8 SHL PUSH2 0x28F8 JUMP JUMPDEST PUSH0 DUP3 DUP2 MSTORE PUSH1 0x6 PUSH1 0x20 MSTORE PUSH1 0x40 SWAP1 KECCAK256 DUP1 SLOAD PUSH2 0xF03 DUP2 DUP8 CALLER JUMPDEST PUSH1 0x1 PUSH1 0x1 PUSH1 0xA0 SHL SUB SWAP1 DUP2 AND SWAP2 AND DUP2 EQ SWAP2 EQ OR SWAP1 JUMP JUMPDEST PUSH2 0xF25 JUMPI PUSH2 0xF11 DUP7 CALLER PUSH2 0x2763 JUMP JUMPDEST PUSH2 0xF25 JUMPI PUSH2 0xF25 PUSH4 0x2CE44B5F PUSH1 0xE1 SHL PUSH2 0x28F8 JUMP JUMPDEST PUSH2 0xF32 DUP7 DUP7 DUP7 PUSH1 0x1 PUSH2 0x2A6A JUMP JUMPDEST DUP1 ISZERO PUSH2 0xF3C JUMPI PUSH0 DUP3 SSTORE JUMPDEST PUSH1 0x1 PUSH1 0x1 PUSH1 0xA0 SHL SUB DUP7 DUP2 AND PUSH0 SWAP1 DUP2 MSTORE PUSH1 0x5 PUSH1 0x20 MSTORE PUSH1 0x40 DUP1 DUP3 KECCAK256 DUP1 SLOAD PUSH0 NOT ADD SWAP1 SSTORE SWAP2 DUP8 AND DUP1 DUP3 MSTORE SWAP2 SWAP1 KECCAK256 DUP1 SLOAD PUSH1 0x1 ADD SWAP1 SSTORE TIMESTAMP PUSH1 0xA0 SHL OR PUSH1 0x1 PUSH1 0xE1 SHL OR PUSH0 DUP6 DUP2 MSTORE PUSH1 0x4 PUSH1 0x20 MSTORE PUSH1 0x40 DUP2 KECCAK256 SWAP2 SWAP1 SWAP2 SSTORE PUSH1 0x1 PUSH1 0xE1 SHL DUP5 AND SWAP1 SUB PUSH2 0xFC8 JUMPI PUSH1 0x1 DUP5 ADD PUSH0 DUP2 DUP2 MSTORE PUSH1 0x4 PUSH1 0x20 MSTORE PUSH1 0x40 DUP2 KECCAK256 SLOAD SWAP1 SUB PUSH2 0xFC6 JUMPI PUSH0 SLOAD DUP2 EQ PUSH2 0xFC6 JUMPI PUSH0 DUP2 DUP2 MSTORE PUSH1 0x4 PUSH1 0x20 MSTORE PUSH1 0x40 SWAP1 KECCAK256 DUP5 SWAP1 SSTORE JUMPDEST POP JUMPDEST PUSH1 0x1 PUSH1 0x1 PUSH1 0xA0 SHL SUB DUP6 AND DUP5 DUP2 DUP9 PUSH32 0xDDF252AD1BE2C89B69C2B068FC378DAA952BA7F163C4A11628F55A4DF523B3EF PUSH0 DUP1 LOG4 DUP1 PUSH0 SUB PUSH2 0x1010 JUMPI PUSH2 0x1010 PUSH4 0x3A954ECD PUSH1 0xE2 SHL PUSH2 0x28F8 JUMP JUMPDEST POP POP POP POP POP POP POP JUMP JUMPDEST PUSH1 0x10 DUP1 SLOAD PUSH0 SWAP2 DUP3 SWAP2 PUSH2 0x2710 SWAP1 PUSH2 0x103F SWAP1 PUSH1 0x1 PUSH1 0xA0 SHL SWAP1 DIV PUSH1 0x1 PUSH1 0x1 PUSH1 0x60 SHL SUB AND DUP7 PUSH2 0x4214 JUMP JUMPDEST PUSH2 0x1049 SWAP2 SWAP1 PUSH2 0x423F JUMP JUMPDEST SWAP1 SLOAD PUSH1 0x1 PUSH1 0x1 PUSH1 0xA0 SHL SUB AND SWAP6 SWAP1 SWAP5 POP SWAP3 POP POP POP JUMP JUMPDEST PUSH2 0x1066 PUSH2 0x290C JUMP JUMPDEST PUSH2 0x106F DUP3 PUSH2 0x2994 JUMP JUMPDEST PUSH1 0x40 MLOAD PUSH4 0xEBB4A55F PUSH1 0xE0 SHL DUP2 MSTORE PUSH1 0x1 PUSH1 0x1 PUSH1 0xA0 SHL SUB DUP4 AND SWAP1 PUSH4 0xEBB4A55F SWAP1 PUSH2 0xE2A SWAP1 DUP5 SWAP1 PUSH1 0x4 ADD PUSH2 0x438D JUMP JUMPDEST PUSH2 0x10B5 DUP4 DUP4 DUP4 PUSH1 0x40 MLOAD DUP1 PUSH1 0x20 ADD PUSH1 0x40 MSTORE DUP1 PUSH0 DUP2 MSTORE POP PUSH2 0x25B8 JUMP JUMPDEST POP POP POP JUMP JUMPDEST PUSH2 0x10C5 DUP2 PUSH1 0x1 PUSH2 0x2AAE JUMP JUMPDEST POP JUMP JUMPDEST PUSH2 0x10D0 PUSH2 0x290C JUMP JUMPDEST PUSH0 PUSH2 0x10DE PUSH1 0x20 DUP4 ADD DUP4 PUSH2 0x3D93 JUMP JUMPDEST PUSH1 0x1 PUSH1 0x1 PUSH1 0xA0 SHL SUB AND SUB PUSH2 0x1105 JUMPI PUSH1 0x40 MLOAD PUSH4 0x1CC0BAEF PUSH1 0xE0 SHL DUP2 MSTORE PUSH1 0x4 ADD PUSH1 0x40 MLOAD DUP1 SWAP2 SUB SWAP1 REVERT JUMPDEST PUSH2 0x2710 PUSH2 0x1118 PUSH1 0x40 DUP4 ADD PUSH1 0x20 DUP5 ADD PUSH2 0x43B3 JUMP JUMPDEST PUSH1 0x1 PUSH1 0x1 PUSH1 0x60 SHL SUB AND GT ISZERO PUSH2 0x1161 JUMPI PUSH2 0x1137 PUSH1 0x40 DUP3 ADD PUSH1 0x20 DUP4 ADD PUSH2 0x43B3 JUMP JUMPDEST PUSH1 0x40 MLOAD PUSH4 0x3CADBAFB PUSH1 0xE0 SHL DUP2 MSTORE PUSH1 0x1 PUSH1 0x1 PUSH1 0x60 SHL SUB SWAP1 SWAP2 AND PUSH1 0x4 DUP3 ADD MSTORE PUSH1 0x24 ADD JUMPDEST PUSH1 0x40 MLOAD DUP1 SWAP2 SUB SWAP1 REVERT JUMPDEST DUP1 PUSH1 0x10 PUSH2 0x116E DUP3 DUP3 PUSH2 0x43CE JUMP JUMPDEST POP PUSH32 0xF21FCCF4D64D86D532C4E4EB86C007B6AD57A460C27D724188625E755EC6CF6D SWAP1 POP PUSH2 0x119F PUSH1 0x20 DUP4 ADD DUP4 PUSH2 0x3D93 JUMP JUMPDEST PUSH2 0x11AF PUSH1 0x40 DUP5 ADD PUSH1 0x20 DUP6 ADD PUSH2 0x43B3 JUMP JUMPDEST PUSH1 0x40 DUP1 MLOAD PUSH1 0x1 PUSH1 0x1 PUSH1 0xA0 SHL SUB SWAP1 SWAP4 AND DUP4 MSTORE PUSH1 0x1 PUSH1 0x1 PUSH1 0x60 SHL SUB SWAP1 SWAP2 AND PUSH1 0x20 DUP4 ADD MSTORE ADD PUSH2 0xDC6 JUMP JUMPDEST PUSH2 0x11DE PUSH2 0x2969 JUMP JUMPDEST PUSH1 0x11 SLOAD PUSH1 0x1 EQ PUSH2 0x121D JUMPI PUSH1 0x40 MLOAD PUSH3 0x461BCD PUSH1 0xE5 SHL DUP2 MSTORE PUSH1 0x20 PUSH1 0x4 DUP3 ADD MSTORE PUSH1 0xA PUSH1 0x24 DUP3 ADD MSTORE PUSH10 0x5245454E5452414E4359 PUSH1 0xB0 SHL PUSH1 0x44 DUP3 ADD MSTORE PUSH1 0x64 ADD PUSH2 0x1158 JUMP JUMPDEST PUSH1 0x2 PUSH1 0x11 SSTORE PUSH1 0x1A SLOAD DUP2 GT ISZERO PUSH2 0x1274 JUMPI PUSH1 0x40 MLOAD PUSH3 0x461BCD PUSH1 0xE5 SHL DUP2 MSTORE PUSH1 0x20 PUSH1 0x4 DUP3 ADD DUP2 SWAP1 MSTORE PUSH1 0x24 DUP3 ADD MSTORE PUSH32 0x4E6F7420656E6F756768206F776E6572206D696E74732072656D61696E696E67 PUSH1 0x44 DUP3 ADD MSTORE PUSH1 0x64 ADD PUSH2 0x1158 JUMP JUMPDEST DUP1 PUSH1 0x1A PUSH0 DUP3 DUP3 SLOAD PUSH2 0x1285 SWAP2 SWAP1 PUSH2 0x4417 JUMP JUMPDEST SWAP1 SWAP2 SSTORE POP PUSH2 0x1294 SWAP1 POP DUP2 PUSH2 0x2BF2 JUMP JUMPDEST PUSH2 0x129E DUP3 DUP3 PUSH2 0x2C17 JUMP JUMPDEST POP POP PUSH1 0x1 PUSH1 0x11 SSTORE JUMP JUMPDEST PUSH2 0x12AF PUSH2 0x290C JUMP JUMPDEST PUSH2 0x12B8 DUP4 PUSH2 0x2994 JUMP JUMPDEST PUSH1 0x40 MLOAD PUSH4 0x8E7D1E43 PUSH1 0xE0 SHL DUP2 MSTORE PUSH1 0x1 PUSH1 0x1 PUSH1 0xA0 SHL SUB DUP4 DUP2 AND PUSH1 0x4 DUP4 ADD MSTORE DUP3 ISZERO ISZERO PUSH1 0x24 DUP4 ADD MSTORE DUP5 AND SWAP1 PUSH4 0x8E7D1E43 SWAP1 PUSH1 0x44 ADD JUMPDEST PUSH0 PUSH1 0x40 MLOAD DUP1 DUP4 SUB DUP2 PUSH0 DUP8 DUP1 EXTCODESIZE ISZERO DUP1 ISZERO PUSH2 0x1301 JUMPI PUSH0 PUSH0 REVERT JUMPDEST POP GAS CALL ISZERO DUP1 ISZERO PUSH2 0x1010 JUMPI RETURNDATASIZE PUSH0 PUSH0 RETURNDATACOPY RETURNDATASIZE PUSH0 REVERT JUMPDEST DUP2 CALLER PUSH2 0x131E DUP3 PUSH2 0x15CA JUMP JUMPDEST PUSH1 0x1 PUSH1 0x1 PUSH1 0xA0 SHL SUB AND EQ PUSH2 0x1385 JUMPI PUSH1 0x40 MLOAD PUSH3 0x461BCD PUSH1 0xE5 SHL DUP2 MSTORE PUSH1 0x20 PUSH1 0x4 DUP3 ADD MSTORE PUSH1 0x28 PUSH1 0x24 DUP3 ADD MSTORE PUSH32 0x5468652063616C6C6572206973206E6F7420746865206F776E6572206F662074 PUSH1 0x44 DUP3 ADD MSTORE PUSH8 0x3432903A37B5B2B7 PUSH1 0xC1 SHL PUSH1 0x64 DUP3 ADD MSTORE PUSH1 0x84 ADD PUSH2 0x1158 JUMP JUMPDEST PUSH1 0x67 DUP3 LT PUSH2 0x139F PUSH1 0x1 PUSH1 0x67 PUSH2 0x139A SWAP2 SWAP1 PUSH2 0x4417 JUMP JUMPDEST PUSH2 0x2C30 JUMP JUMPDEST PUSH1 0x40 MLOAD PUSH1 0x20 ADD PUSH2 0x13AF SWAP2 SWAP1 PUSH2 0x4441 JUMP JUMPDEST PUSH1 0x40 MLOAD PUSH1 0x20 DUP2 DUP4 SUB SUB DUP2 MSTORE SWAP1 PUSH1 0x40 MSTORE SWAP1 PUSH2 0x13DC JUMPI PUSH1 0x40 MLOAD PUSH3 0x461BCD PUSH1 0xE5 SHL DUP2 MSTORE PUSH1 0x4 ADD PUSH2 0x1158 SWAP2 SWAP1 PUSH2 0x39B3 JUMP JUMPDEST POP PUSH0 DUP4 DUP2 MSTORE PUSH1 0x19 PUSH1 0x20 SWAP1 DUP2 MSTORE PUSH1 0x40 SWAP2 DUP3 SWAP1 KECCAK256 DUP1 SLOAD PUSH8 0xFFFFFFFF00000000 NOT AND PUSH5 0x100000000 PUSH4 0xFFFFFFFF DUP8 AND MUL OR SWAP1 SSTORE DUP2 MLOAD DUP6 DUP2 MSTORE SWAP1 DUP2 ADD DUP6 SWAP1 MSTORE PUSH0 MLOAD PUSH1 0x20 PUSH2 0x4DEF PUSH0 CODECOPY PUSH0 MLOAD SWAP1 PUSH0 MSTORE SWAP2 ADD PUSH1 0x40 MLOAD DUP1 SWAP2 SUB SWAP1 LOG1 PUSH1 0x40 MLOAD CALLER SWAP1 DUP4 SWAP1 DUP6 SWAP1 PUSH32 0x717EA6D16CD5B1ADADF0580BB4B4EBBE47B8329C34AE1D20B2A3505B0B45121B SWAP1 PUSH0 SWAP1 LOG4 POP POP POP JUMP JUMPDEST PUSH0 PUSH1 0x5A JUMPDEST SWAP1 POP SWAP1 JUMP JUMPDEST PUSH2 0x1473 PUSH2 0x290C JUMP JUMPDEST PUSH2 0x147C DUP4 PUSH2 0x2994 JUMP JUMPDEST PUSH1 0x40 MLOAD PUSH4 0x9A7002F PUSH1 0xE3 SHL DUP2 MSTORE PUSH1 0x1 PUSH1 0x1 PUSH1 0xA0 SHL SUB DUP5 AND SWAP1 PUSH4 0x4D380178 SWAP1 PUSH2 0x12EA SWAP1 DUP6 SWAP1 DUP6 SWAP1 PUSH1 0x4 ADD PUSH2 0x4505 JUMP JUMPDEST PUSH2 0x14B2 PUSH2 0x290C JUMP JUMPDEST PUSH1 0xD PUSH2 0x14BF DUP3 DUP5 DUP4 PUSH2 0x4567 JUMP JUMPDEST POP PUSH2 0x14C8 PUSH2 0xDD1 JUMP JUMPDEST ISZERO PUSH2 0xD07 JUMPI PUSH0 MLOAD PUSH1 0x20 PUSH2 0x4DEF PUSH0 CODECOPY PUSH0 MLOAD SWAP1 PUSH0 MSTORE PUSH1 0x1 DUP1 PUSH2 0x14E6 PUSH0 SLOAD SWAP1 JUMP JUMPDEST PUSH2 0x14F0 SWAP2 SWAP1 PUSH2 0x4417 JUMP JUMPDEST PUSH1 0x40 DUP1 MLOAD SWAP3 DUP4 MSTORE PUSH1 0x20 DUP4 ADD SWAP2 SWAP1 SWAP2 MSTORE ADD PUSH2 0xD75 JUMP JUMPDEST PUSH2 0x150D PUSH2 0x2969 JUMP JUMPDEST PUSH1 0x18 DUP1 SLOAD PUSH1 0x1 PUSH1 0x1 PUSH1 0xA0 SHL SUB NOT AND PUSH1 0x1 PUSH1 0x1 PUSH1 0xA0 SHL SUB DUP4 AND OR SWAP1 SSTORE PUSH2 0x1530 PUSH2 0xDD1 JUMP JUMPDEST ISZERO PUSH2 0x10C5 JUMPI PUSH0 MLOAD PUSH1 0x20 PUSH2 0x4DEF PUSH0 CODECOPY PUSH0 MLOAD SWAP1 PUSH0 MSTORE PUSH1 0x1 DUP1 PUSH2 0x154E PUSH0 SLOAD SWAP1 JUMP JUMPDEST PUSH2 0x1558 SWAP2 SWAP1 PUSH2 0x4417 JUMP JUMPDEST PUSH1 0x40 DUP1 MLOAD SWAP3 DUP4 MSTORE PUSH1 0x20 DUP4 ADD SWAP2 SWAP1 SWAP2 MSTORE ADD PUSH2 0xDC6 JUMP JUMPDEST PUSH1 0x40 DUP1 MLOAD DUP3 DUP2 MSTORE PUSH1 0x5 DUP4 SWAP1 SHL DUP1 DUP3 ADD PUSH1 0x20 ADD SWAP1 SWAP3 MSTORE PUSH1 0x60 SWAP2 JUMPDEST DUP1 ISZERO PUSH2 0x15B0 JUMPI PUSH1 0x1F NOT DUP1 DUP3 ADD SWAP2 DUP7 ADD ADD CALLDATALOAD PUSH0 PUSH2 0x15A1 DUP3 PUSH2 0x25F9 JUMP JUMPDEST DUP5 DUP5 ADD PUSH1 0x20 ADD MSTORE POP PUSH2 0x1586 SWAP1 POP JUMP JUMPDEST POP SWAP4 SWAP3 POP POP POP JUMP JUMPDEST PUSH2 0x15C0 PUSH2 0x2969 JUMP JUMPDEST PUSH2 0xD07 DUP3 DUP3 PUSH2 0x2C72 JUMP JUMPDEST PUSH0 PUSH2 0xC0A DUP3 PUSH2 0x29D1 JUMP JUMPDEST PUSH1 0x11 SLOAD PUSH1 0x1 EQ PUSH2 0x1613 JUMPI PUSH1 0x40 MLOAD PUSH3 0x461BCD PUSH1 0xE5 SHL DUP2 MSTORE PUSH1 0x20 PUSH1 0x4 DUP3 ADD MSTORE PUSH1 0xA PUSH1 0x24 DUP3 ADD MSTORE PUSH10 0x5245454E5452414E4359 PUSH1 0xB0 SHL PUSH1 0x44 DUP3 ADD MSTORE PUSH1 0x64 ADD PUSH2 0x1158 JUMP JUMPDEST PUSH1 0x2 PUSH1 0x11 SSTORE PUSH2 0x1621 CALLER PUSH2 0x2994 JUMP JUMPDEST PUSH1 0xC SLOAD DUP2 PUSH2 0x162D PUSH2 0x295B JUMP JUMPDEST PUSH2 0x1637 SWAP2 SWAP1 PUSH2 0x4620 JUMP JUMPDEST GT ISZERO PUSH2 0x1294 JUMPI DUP1 PUSH2 0x1646 PUSH2 0x295B JUMP JUMPDEST PUSH2 0x1650 SWAP2 SWAP1 PUSH2 0x4620 JUMP JUMPDEST PUSH1 0xC SLOAD PUSH1 0x40 MLOAD PUSH4 0x384B48C5 PUSH1 0xE2 SHL DUP2 MSTORE PUSH1 0x4 DUP2 ADD SWAP3 SWAP1 SWAP3 MSTORE PUSH1 0x24 DUP3 ADD MSTORE PUSH1 0x44 ADD PUSH2 0x1158 JUMP JUMPDEST PUSH2 0x167D PUSH2 0x2969 JUMP JUMPDEST PUSH1 0x18 DUP1 SLOAD PUSH1 0xFF PUSH1 0xA0 SHL NOT AND PUSH1 0x1 PUSH1 0xA0 SHL OR SWAP1 SSTORE JUMP JUMPDEST PUSH2 0x169A PUSH2 0x290C JUMP JUMPDEST PUSH2 0x16A3 DUP3 PUSH2 0x2994 JUMP JUMPDEST PUSH1 0x40 MLOAD PUSH4 0x24E71B7 PUSH1 0xE3 SHL DUP2 MSTORE PUSH1 0x1 PUSH1 0x1 PUSH1 0xA0 SHL SUB DUP3 DUP2 AND PUSH1 0x4 DUP4 ADD MSTORE DUP4 AND SWAP1 PUSH4 0x12738DB8 SWAP1 PUSH1 0x24 ADD PUSH2 0xE2A JUMP JUMPDEST PUSH1 0x60 PUSH2 0x1466 PUSH2 0x2D85 JUMP JUMPDEST PUSH2 0x16E3 PUSH2 0x290C JUMP JUMPDEST PUSH1 0x1 PUSH1 0x1 PUSH1 0x40 SHL SUB DUP2 GT ISZERO PUSH2 0x170E JUMPI PUSH1 0x40 MLOAD PUSH4 0xB43E9137 PUSH1 0xE0 SHL DUP2 MSTORE PUSH1 0x4 DUP2 ADD DUP3 SWAP1 MSTORE PUSH1 0x24 ADD PUSH2 0x1158 JUMP JUMPDEST PUSH2 0x1716 PUSH2 0x295B JUMP JUMPDEST DUP2 LT ISZERO PUSH2 0x1748 JUMPI DUP1 PUSH2 0x1726 PUSH2 0x295B JUMP JUMPDEST PUSH1 0x40 MLOAD PUSH4 0x8C19F1F9 PUSH1 0xE0 SHL DUP2 MSTORE PUSH1 0x4 DUP2 ADD SWAP3 SWAP1 SWAP3 MSTORE PUSH1 0x24 DUP3 ADD MSTORE PUSH1 0x44 ADD PUSH2 0x1158 JUMP JUMPDEST PUSH1 0xC DUP2 SWAP1 SSTORE PUSH1 0x40 MLOAD DUP2 DUP2 MSTORE PUSH32 0x7810BD47DE260C3E9EE10061CF438099DD12256C79485F12F94DBCCC981E806C SWAP1 PUSH1 0x20 ADD PUSH2 0xDC6 JUMP JUMPDEST PUSH0 PUSH1 0x1 PUSH1 0x1 PUSH1 0xA0 SHL SUB DUP3 AND PUSH2 0x179C JUMPI PUSH2 0x179C PUSH4 0x23D3AD81 PUSH1 0xE2 SHL PUSH2 0x28F8 JUMP JUMPDEST POP PUSH1 0x1 PUSH1 0x1 PUSH1 0xA0 SHL SUB AND PUSH0 SWAP1 DUP2 MSTORE PUSH1 0x5 PUSH1 0x20 MSTORE PUSH1 0x40 SWAP1 KECCAK256 SLOAD PUSH1 0x1 PUSH1 0x1 PUSH1 0x40 SHL SUB AND SWAP1 JUMP JUMPDEST PUSH2 0x17C8 PUSH2 0x2969 JUMP JUMPDEST PUSH2 0x17D1 PUSH0 PUSH2 0x2D94 JUMP JUMPDEST JUMP JUMPDEST PUSH1 0xB SLOAD PUSH1 0x1 PUSH1 0x1 PUSH1 0xA0 SHL SUB AND CALLER DUP2 EQ PUSH2 0x17FF JUMPI PUSH1 0x40 MLOAD PUSH4 0x6B7584E7 PUSH1 0xE1 SHL DUP2 MSTORE PUSH1 0x4 ADD PUSH1 0x40 MLOAD DUP1 SWAP2 SUB SWAP1 REVERT JUMPDEST PUSH1 0xB DUP1 SLOAD PUSH1 0x1 PUSH1 0x1 PUSH1 0xA0 SHL SUB NOT AND SWAP1 SSTORE PUSH1 0x40 MLOAD PUSH0 DUP2 MSTORE PUSH32 0x11A3CF439FB225BFE74225716B6774765670EC1060E3796802E62139D69974DA SWAP1 PUSH1 0x20 ADD PUSH1 0x40 MLOAD DUP1 SWAP2 SUB SWAP1 LOG1 PUSH2 0x10C5 DUP2 PUSH2 0x2D94 JUMP JUMPDEST PUSH2 0x1853 PUSH2 0x290C JUMP JUMPDEST PUSH2 0x185C DUP4 PUSH2 0x2994 JUMP JUMPDEST PUSH1 0x40 MLOAD PUSH4 0xB957D0CB PUSH1 0xE0 SHL DUP2 MSTORE PUSH1 0x1 PUSH1 0x1 PUSH1 0xA0 SHL SUB DUP5 AND SWAP1 PUSH4 0xB957D0CB SWAP1 PUSH2 0x12EA SWAP1 DUP6 SWAP1 DUP6 SWAP1 PUSH1 0x4 ADD PUSH2 0x4633 JUMP JUMPDEST PUSH2 0x1892 PUSH2 0x290C JUMP JUMPDEST PUSH2 0x189B DUP4 PUSH2 0x2994 JUMP JUMPDEST PUSH1 0x40 MLOAD PUSH4 0x7ECD5915 PUSH1 0xE1 SHL DUP2 MSTORE PUSH1 0x1 PUSH1 0x1 PUSH1 0xA0 SHL SUB DUP5 AND SWAP1 PUSH4 0xFD9AB22A SWAP1 PUSH2 0x12EA SWAP1 DUP6 SWAP1 DUP6 SWAP1 PUSH1 0x4 ADD PUSH2 0x471D JUMP JUMPDEST PUSH1 0x1 PUSH1 0x1 PUSH1 0xA0 SHL SUB DUP2 AND PUSH0 SWAP1 DUP2 MSTORE PUSH1 0x5 PUSH1 0x20 MSTORE PUSH1 0x40 DUP1 DUP3 KECCAK256 SLOAD SWAP1 SHR PUSH1 0x1 PUSH1 0x1 PUSH1 0x40 SHL SUB AND SWAP1 DUP1 PUSH2 0x18F7 PUSH2 0x295B JUMP JUMPDEST PUSH1 0xC SLOAD SWAP4 SWAP6 SWAP1 SWAP5 POP SWAP2 POP POP JUMP JUMPDEST PUSH0 SLOAD PUSH1 0x60 SWAP1 PUSH1 0x1 SWAP1 DUP3 DUP3 DUP3 EQ PUSH2 0x1922 JUMPI PUSH2 0x191F DUP6 DUP5 DUP5 PUSH2 0x2DE5 JUMP JUMPDEST SWAP1 POP JUMPDEST SWAP5 SWAP4 POP POP POP POP JUMP JUMPDEST PUSH2 0x1932 PUSH2 0x2969 JUMP JUMPDEST DUP1 CALLDATALOAD ISZERO PUSH2 0x1986 JUMPI PUSH1 0x40 MLOAD PUSH4 0x6F8B44B PUSH1 0xE4 SHL DUP2 MSTORE DUP2 CALLDATALOAD PUSH1 0x4 DUP3 ADD MSTORE ADDRESS SWAP1 PUSH4 0x6F8B44B0 SWAP1 PUSH1 0x24 ADD PUSH0 PUSH1 0x40 MLOAD DUP1 DUP4 SUB DUP2 PUSH0 DUP8 DUP1 EXTCODESIZE ISZERO DUP1 ISZERO PUSH2 0x196F JUMPI PUSH0 PUSH0 REVERT JUMPDEST POP GAS CALL ISZERO DUP1 ISZERO PUSH2 0x1981 JUMPI RETURNDATASIZE PUSH0 PUSH0 RETURNDATACOPY RETURNDATASIZE PUSH0 REVERT JUMPDEST POP POP POP POP JUMPDEST PUSH2 0x1993 PUSH1 0x20 DUP3 ADD DUP3 PUSH2 0x473B JUMP JUMPDEST ISZERO SWAP1 POP PUSH2 0x19F8 JUMPI ADDRESS PUSH4 0x55F804B3 PUSH2 0x19AD PUSH1 0x20 DUP5 ADD DUP5 PUSH2 0x473B JUMP JUMPDEST PUSH1 0x40 MLOAD DUP4 PUSH4 0xFFFFFFFF AND PUSH1 0xE0 SHL DUP2 MSTORE PUSH1 0x4 ADD PUSH2 0x19CA SWAP3 SWAP2 SWAP1 PUSH2 0x4633 JUMP JUMPDEST PUSH0 PUSH1 0x40 MLOAD DUP1 DUP4 SUB DUP2 PUSH0 DUP8 DUP1 EXTCODESIZE ISZERO DUP1 ISZERO PUSH2 0x19E1 JUMPI PUSH0 PUSH0 REVERT JUMPDEST POP GAS CALL ISZERO DUP1 ISZERO PUSH2 0x19F3 JUMPI RETURNDATASIZE PUSH0 PUSH0 RETURNDATACOPY RETURNDATASIZE PUSH0 REVERT JUMPDEST POP POP POP POP JUMPDEST PUSH2 0x1A05 PUSH1 0x40 DUP3 ADD DUP3 PUSH2 0x473B JUMP JUMPDEST ISZERO SWAP1 POP PUSH2 0x1A6A JUMPI ADDRESS PUSH4 0x938E3D7B PUSH2 0x1A1F PUSH1 0x40 DUP5 ADD DUP5 PUSH2 0x473B JUMP JUMPDEST PUSH1 0x40 MLOAD DUP4 PUSH4 0xFFFFFFFF AND PUSH1 0xE0 SHL DUP2 MSTORE PUSH1 0x4 ADD PUSH2 0x1A3C SWAP3 SWAP2 SWAP1 PUSH2 0x4633 JUMP JUMPDEST PUSH0 PUSH1 0x40 MLOAD DUP1 DUP4 SUB DUP2 PUSH0 DUP8 DUP1 EXTCODESIZE ISZERO DUP1 ISZERO PUSH2 0x1A53 JUMPI PUSH0 PUSH0 REVERT JUMPDEST POP GAS CALL ISZERO DUP1 ISZERO PUSH2 0x1A65 JUMPI RETURNDATASIZE PUSH0 PUSH0 RETURNDATACOPY RETURNDATASIZE PUSH0 REVERT JUMPDEST POP POP POP POP JUMPDEST PUSH2 0x1A8A PUSH2 0x1A7D PUSH1 0xE0 DUP4 ADD PUSH1 0xC0 DUP5 ADD PUSH2 0x477D JUMP JUMPDEST PUSH6 0xFFFFFFFFFFFF AND ISZERO ISZERO SWAP1 JUMP JUMPDEST PUSH2 0x1A9D PUSH2 0x1A7D PUSH1 0xC0 DUP5 ADD PUSH1 0xA0 DUP6 ADD PUSH2 0x477D JUMP JUMPDEST OR PUSH1 0x1 SUB PUSH2 0x1B0A JUMPI ADDRESS PUSH4 0x1B73593C PUSH2 0x1ABB PUSH1 0x80 DUP5 ADD PUSH1 0x60 DUP6 ADD PUSH2 0x3D93 JUMP JUMPDEST DUP4 PUSH1 0x80 ADD PUSH1 0x40 MLOAD DUP4 PUSH4 0xFFFFFFFF AND PUSH1 0xE0 SHL DUP2 MSTORE PUSH1 0x4 ADD PUSH2 0x1ADC SWAP3 SWAP2 SWAP1 PUSH2 0x4796 JUMP JUMPDEST PUSH0 PUSH1 0x40 MLOAD DUP1 DUP4 SUB DUP2 PUSH0 DUP8 DUP1 EXTCODESIZE ISZERO DUP1 ISZERO PUSH2 0x1AF3 JUMPI PUSH0 PUSH0 REVERT JUMPDEST POP GAS CALL ISZERO DUP1 ISZERO PUSH2 0x1B05 JUMPI RETURNDATASIZE PUSH0 PUSH0 RETURNDATACOPY RETURNDATASIZE PUSH0 REVERT JUMPDEST POP POP POP POP JUMPDEST PUSH2 0x1B18 PUSH2 0x140 DUP3 ADD DUP3 PUSH2 0x473B JUMP JUMPDEST ISZERO SWAP1 POP PUSH2 0x1B8F JUMPI ADDRESS PUSH4 0x7A05BC82 PUSH2 0x1B35 PUSH1 0x80 DUP5 ADD PUSH1 0x60 DUP6 ADD PUSH2 0x3D93 JUMP JUMPDEST PUSH2 0x1B43 PUSH2 0x140 DUP6 ADD DUP6 PUSH2 0x473B JUMP JUMPDEST PUSH1 0x40 MLOAD DUP5 PUSH4 0xFFFFFFFF AND PUSH1 0xE0 SHL DUP2 MSTORE PUSH1 0x4 ADD PUSH2 0x1B61 SWAP4 SWAP3 SWAP2 SWAP1 PUSH2 0x47B3 JUMP JUMPDEST PUSH0 PUSH1 0x40 MLOAD DUP1 DUP4 SUB DUP2 PUSH0 DUP8 DUP1 EXTCODESIZE ISZERO DUP1 ISZERO PUSH2 0x1B78 JUMPI PUSH0 PUSH0 REVERT JUMPDEST POP GAS CALL ISZERO DUP1 ISZERO PUSH2 0x1B8A JUMPI RETURNDATASIZE PUSH0 PUSH0 RETURNDATACOPY RETURNDATASIZE PUSH0 REVERT JUMPDEST POP POP POP POP JUMPDEST PUSH0 PUSH2 0x1B9E PUSH2 0x160 DUP4 ADD DUP4 PUSH2 0x47E0 JUMP JUMPDEST CALLDATALOAD EQ PUSH2 0x1C13 JUMPI ADDRESS PUSH4 0x3680620D PUSH2 0x1BBA PUSH1 0x80 DUP5 ADD PUSH1 0x60 DUP6 ADD PUSH2 0x3D93 JUMP JUMPDEST PUSH2 0x1BC8 PUSH2 0x160 DUP6 ADD DUP6 PUSH2 0x47E0 JUMP JUMPDEST PUSH1 0x40 MLOAD DUP4 PUSH4 0xFFFFFFFF AND PUSH1 0xE0 SHL DUP2 MSTORE PUSH1 0x4 ADD PUSH2 0x1BE5 SWAP3 SWAP2 SWAP1 PUSH2 0x47FE JUMP JUMPDEST PUSH0 PUSH1 0x40 MLOAD DUP1 DUP4 SUB DUP2 PUSH0 DUP8 DUP1 EXTCODESIZE ISZERO DUP1 ISZERO PUSH2 0x1BFC JUMPI PUSH0 PUSH0 REVERT JUMPDEST POP GAS CALL ISZERO DUP1 ISZERO PUSH2 0x1C0E JUMPI RETURNDATASIZE PUSH0 PUSH0 RETURNDATACOPY RETURNDATASIZE PUSH0 REVERT JUMPDEST POP POP POP POP JUMPDEST PUSH0 PUSH2 0x1C26 PUSH2 0x1A0 DUP4 ADD PUSH2 0x180 DUP5 ADD PUSH2 0x3D93 JUMP JUMPDEST PUSH1 0x1 PUSH1 0x1 PUSH1 0xA0 SHL SUB AND EQ PUSH2 0x1CB8 JUMPI ADDRESS PUSH4 0x66251B69 PUSH2 0x1C4A PUSH1 0x80 DUP5 ADD PUSH1 0x60 DUP6 ADD PUSH2 0x3D93 JUMP JUMPDEST PUSH2 0x1C5C PUSH2 0x1A0 DUP6 ADD PUSH2 0x180 DUP7 ADD PUSH2 0x3D93 JUMP JUMPDEST PUSH1 0x40 MLOAD PUSH1 0x1 PUSH1 0x1 PUSH1 0xE0 SHL SUB NOT PUSH1 0xE0 DUP6 SWAP1 SHL AND DUP2 MSTORE PUSH1 0x1 PUSH1 0x1 PUSH1 0xA0 SHL SUB SWAP3 DUP4 AND PUSH1 0x4 DUP3 ADD MSTORE SWAP2 AND PUSH1 0x24 DUP3 ADD MSTORE PUSH1 0x44 ADD PUSH0 PUSH1 0x40 MLOAD DUP1 DUP4 SUB DUP2 PUSH0 DUP8 DUP1 EXTCODESIZE ISZERO DUP1 ISZERO PUSH2 0x1CA1 JUMPI PUSH0 PUSH0 REVERT JUMPDEST POP GAS CALL ISZERO DUP1 ISZERO PUSH2 0x1CB3 JUMPI RETURNDATASIZE PUSH0 PUSH0 RETURNDATACOPY RETURNDATASIZE PUSH0 REVERT JUMPDEST POP POP POP POP JUMPDEST PUSH2 0x1A0 DUP2 ADD CALLDATALOAD ISZERO PUSH2 0x1D14 JUMPI PUSH1 0x40 MLOAD PUSH4 0x4CDB5FD PUSH1 0xE1 SHL DUP2 MSTORE PUSH2 0x1A0 DUP3 ADD CALLDATALOAD PUSH1 0x4 DUP3 ADD MSTORE ADDRESS SWAP1 PUSH4 0x99B6BFA SWAP1 PUSH1 0x24 ADD PUSH0 PUSH1 0x40 MLOAD DUP1 DUP4 SUB DUP2 PUSH0 DUP8 DUP1 EXTCODESIZE ISZERO DUP1 ISZERO PUSH2 0x1CFD JUMPI PUSH0 PUSH0 REVERT JUMPDEST POP GAS CALL ISZERO DUP1 ISZERO PUSH2 0x1D0F JUMPI RETURNDATASIZE PUSH0 PUSH0 RETURNDATACOPY RETURNDATASIZE PUSH0 REVERT JUMPDEST POP POP POP POP JUMPDEST PUSH0 PUSH2 0x1D23 PUSH2 0x1C0 DUP4 ADD DUP4 PUSH2 0x4821 JUMP JUMPDEST SWAP1 POP GT ISZERO PUSH2 0x1DE7 JUMPI PUSH0 JUMPDEST PUSH2 0x1D3B PUSH2 0x1C0 DUP4 ADD DUP4 PUSH2 0x4821 JUMP JUMPDEST SWAP1 POP DUP2 LT ISZERO PUSH2 0x1DE5 JUMPI ADDRESS PUSH4 0x48A4C101 PUSH2 0x1D5A PUSH1 0x80 DUP6 ADD PUSH1 0x60 DUP7 ADD PUSH2 0x3D93 JUMP JUMPDEST PUSH2 0x1D68 PUSH2 0x1C0 DUP7 ADD DUP7 PUSH2 0x4821 JUMP JUMPDEST DUP6 DUP2 DUP2 LT PUSH2 0x1D78 JUMPI PUSH2 0x1D78 PUSH2 0x4866 JUMP JUMPDEST SWAP1 POP PUSH1 0x20 MUL ADD PUSH1 0x20 DUP2 ADD SWAP1 PUSH2 0x1D8D SWAP2 SWAP1 PUSH2 0x3D93 JUMP JUMPDEST PUSH1 0x1 PUSH1 0x40 MLOAD DUP5 PUSH4 0xFFFFFFFF AND PUSH1 0xE0 SHL DUP2 MSTORE PUSH1 0x4 ADD PUSH2 0x1DAD SWAP4 SWAP3 SWAP2 SWAP1 PUSH2 0x487A JUMP JUMPDEST PUSH0 PUSH1 0x40 MLOAD DUP1 DUP4 SUB DUP2 PUSH0 DUP8 DUP1 EXTCODESIZE ISZERO DUP1 ISZERO PUSH2 0x1DC4 JUMPI PUSH0 PUSH0 REVERT JUMPDEST POP GAS CALL ISZERO DUP1 ISZERO PUSH2 0x1DD6 JUMPI RETURNDATASIZE PUSH0 PUSH0 RETURNDATACOPY RETURNDATASIZE PUSH0 REVERT JUMPDEST POP POP POP POP DUP1 PUSH1 0x1 ADD SWAP1 POP PUSH2 0x1D2D JUMP JUMPDEST POP JUMPDEST PUSH0 PUSH2 0x1DF6 PUSH2 0x1E0 DUP4 ADD DUP4 PUSH2 0x4821 JUMP JUMPDEST SWAP1 POP GT ISZERO PUSH2 0x1EB9 JUMPI PUSH0 JUMPDEST PUSH2 0x1E0E PUSH2 0x1E0 DUP4 ADD DUP4 PUSH2 0x4821 JUMP JUMPDEST SWAP1 POP DUP2 LT ISZERO PUSH2 0x1EB7 JUMPI ADDRESS PUSH4 0x48A4C101 PUSH2 0x1E2D PUSH1 0x80 DUP6 ADD PUSH1 0x60 DUP7 ADD PUSH2 0x3D93 JUMP JUMPDEST PUSH2 0x1E3B PUSH2 0x1E0 DUP7 ADD DUP7 PUSH2 0x4821 JUMP JUMPDEST DUP6 DUP2 DUP2 LT PUSH2 0x1E4B JUMPI PUSH2 0x1E4B PUSH2 0x4866 JUMP JUMPDEST SWAP1 POP PUSH1 0x20 MUL ADD PUSH1 0x20 DUP2 ADD SWAP1 PUSH2 0x1E60 SWAP2 SWAP1 PUSH2 0x3D93 JUMP JUMPDEST PUSH0 PUSH1 0x40 MLOAD DUP5 PUSH4 0xFFFFFFFF AND PUSH1 0xE0 SHL DUP2 MSTORE PUSH1 0x4 ADD PUSH2 0x1E7F SWAP4 SWAP3 SWAP2 SWAP1 PUSH2 0x487A JUMP JUMPDEST PUSH0 PUSH1 0x40 MLOAD DUP1 DUP4 SUB DUP2 PUSH0 DUP8 DUP1 EXTCODESIZE ISZERO DUP1 ISZERO PUSH2 0x1E96 JUMPI PUSH0 PUSH0 REVERT JUMPDEST POP GAS CALL ISZERO DUP1 ISZERO PUSH2 0x1EA8 JUMPI RETURNDATASIZE PUSH0 PUSH0 RETURNDATACOPY RETURNDATASIZE PUSH0 REVERT JUMPDEST POP POP POP POP DUP1 PUSH1 0x1 ADD SWAP1 POP PUSH2 0x1E00 JUMP JUMPDEST POP JUMPDEST PUSH0 PUSH2 0x1EC8 PUSH2 0x200 DUP4 ADD DUP4 PUSH2 0x4821 JUMP JUMPDEST SWAP1 POP GT ISZERO PUSH2 0x1F8C JUMPI PUSH0 JUMPDEST PUSH2 0x1EE0 PUSH2 0x200 DUP4 ADD DUP4 PUSH2 0x4821 JUMP JUMPDEST SWAP1 POP DUP2 LT ISZERO PUSH2 0x1F8A JUMPI ADDRESS PUSH4 0xCB743BA8 PUSH2 0x1EFF PUSH1 0x80 DUP6 ADD PUSH1 0x60 DUP7 ADD PUSH2 0x3D93 JUMP JUMPDEST PUSH2 0x1F0D PUSH2 0x200 DUP7 ADD DUP7 PUSH2 0x4821 JUMP JUMPDEST DUP6 DUP2 DUP2 LT PUSH2 0x1F1D JUMPI PUSH2 0x1F1D PUSH2 0x4866 JUMP JUMPDEST SWAP1 POP PUSH1 0x20 MUL ADD PUSH1 0x20 DUP2 ADD SWAP1 PUSH2 0x1F32 SWAP2 SWAP1 PUSH2 0x3D93 JUMP JUMPDEST PUSH1 0x1 PUSH1 0x40 MLOAD DUP5 PUSH4 0xFFFFFFFF AND PUSH1 0xE0 SHL DUP2 MSTORE PUSH1 0x4 ADD PUSH2 0x1F52 SWAP4 SWAP3 SWAP2 SWAP1 PUSH2 0x487A JUMP JUMPDEST PUSH0 PUSH1 0x40 MLOAD DUP1 DUP4 SUB DUP2 PUSH0 DUP8 DUP1 EXTCODESIZE ISZERO DUP1 ISZERO PUSH2 0x1F69 JUMPI PUSH0 PUSH0 REVERT JUMPDEST POP GAS CALL ISZERO DUP1 ISZERO PUSH2 0x1F7B JUMPI RETURNDATASIZE PUSH0 PUSH0 RETURNDATACOPY RETURNDATASIZE PUSH0 REVERT JUMPDEST POP POP POP POP DUP1 PUSH1 0x1 ADD SWAP1 POP PUSH2 0x1ED2 JUMP JUMPDEST POP JUMPDEST PUSH0 PUSH2 0x1F9B PUSH2 0x220 DUP4 ADD DUP4 PUSH2 0x4821 JUMP JUMPDEST SWAP1 POP GT ISZERO PUSH2 0x205E JUMPI PUSH0 JUMPDEST PUSH2 0x1FB3 PUSH2 0x220 DUP4 ADD DUP4 PUSH2 0x4821 JUMP JUMPDEST SWAP1 POP DUP2 LT ISZERO PUSH2 0x205C JUMPI ADDRESS PUSH4 0xCB743BA8 PUSH2 0x1FD2 PUSH1 0x80 DUP6 ADD PUSH1 0x60 DUP7 ADD PUSH2 0x3D93 JUMP JUMPDEST PUSH2 0x1FE0 PUSH2 0x220 DUP7 ADD DUP7 PUSH2 0x4821 JUMP JUMPDEST DUP6 DUP2 DUP2 LT PUSH2 0x1FF0 JUMPI PUSH2 0x1FF0 PUSH2 0x4866 JUMP JUMPDEST SWAP1 POP PUSH1 0x20 MUL ADD PUSH1 0x20 DUP2 ADD SWAP1 PUSH2 0x2005 SWAP2 SWAP1 PUSH2 0x3D93 JUMP JUMPDEST PUSH0 PUSH1 0x40 MLOAD DUP5 PUSH4 0xFFFFFFFF AND PUSH1 0xE0 SHL DUP2 MSTORE PUSH1 0x4 ADD PUSH2 0x2024 SWAP4 SWAP3 SWAP2 SWAP1 PUSH2 0x487A JUMP JUMPDEST PUSH0 PUSH1 0x40 MLOAD DUP1 DUP4 SUB DUP2 PUSH0 DUP8 DUP1 EXTCODESIZE ISZERO DUP1 ISZERO PUSH2 0x203B JUMPI PUSH0 PUSH0 REVERT JUMPDEST POP GAS CALL ISZERO DUP1 ISZERO PUSH2 0x204D JUMPI RETURNDATASIZE PUSH0 PUSH0 RETURNDATACOPY RETURNDATASIZE PUSH0 REVERT JUMPDEST POP POP POP POP DUP1 PUSH1 0x1 ADD SWAP1 POP PUSH2 0x1FA5 JUMP JUMPDEST POP JUMPDEST PUSH0 PUSH2 0x206D PUSH2 0x260 DUP4 ADD DUP4 PUSH2 0x489E JUMP JUMPDEST SWAP1 POP GT ISZERO PUSH2 0x2192 JUMPI PUSH2 0x2083 PUSH2 0x240 DUP3 ADD DUP3 PUSH2 0x4821 JUMP JUMPDEST SWAP1 POP PUSH2 0x2093 PUSH2 0x260 DUP4 ADD DUP4 PUSH2 0x489E JUMP JUMPDEST SWAP1 POP EQ PUSH2 0x20B3 JUMPI PUSH1 0x40 MLOAD PUSH4 0xB81AA639 PUSH1 0xE0 SHL DUP2 MSTORE PUSH1 0x4 ADD PUSH1 0x40 MLOAD DUP1 SWAP2 SUB SWAP1 REVERT JUMPDEST PUSH0 JUMPDEST PUSH2 0x20C3 PUSH2 0x260 DUP4 ADD DUP4 PUSH2 0x489E JUMP JUMPDEST SWAP1 POP DUP2 LT ISZERO PUSH2 0x2190 JUMPI ADDRESS PUSH4 0x7BC2BE76 PUSH2 0x20E2 PUSH1 0x80 DUP6 ADD PUSH1 0x60 DUP7 ADD PUSH2 0x3D93 JUMP JUMPDEST PUSH2 0x20F0 PUSH2 0x240 DUP7 ADD DUP7 PUSH2 0x4821 JUMP JUMPDEST DUP6 DUP2 DUP2 LT PUSH2 0x2100 JUMPI PUSH2 0x2100 PUSH2 0x4866 JUMP JUMPDEST SWAP1 POP PUSH1 0x20 MUL ADD PUSH1 0x20 DUP2 ADD SWAP1 PUSH2 0x2115 SWAP2 SWAP1 PUSH2 0x3D93 JUMP JUMPDEST PUSH2 0x2123 PUSH2 0x260 DUP8 ADD DUP8 PUSH2 0x489E JUMP JUMPDEST DUP7 DUP2 DUP2 LT PUSH2 0x2133 JUMPI PUSH2 0x2133 PUSH2 0x4866 JUMP JUMPDEST SWAP1 POP PUSH2 0x100 MUL ADD PUSH1 0x40 MLOAD DUP5 PUSH4 0xFFFFFFFF AND PUSH1 0xE0 SHL DUP2 MSTORE PUSH1 0x4 ADD PUSH2 0x2158 SWAP4 SWAP3 SWAP2 SWAP1 PUSH2 0x48E3 JUMP JUMPDEST PUSH0 PUSH1 0x40 MLOAD DUP1 DUP4 SUB DUP2 PUSH0 DUP8 DUP1 EXTCODESIZE ISZERO DUP1 ISZERO PUSH2 0x216F JUMPI PUSH0 PUSH0 REVERT JUMPDEST POP GAS CALL ISZERO DUP1 ISZERO PUSH2 0x2181 JUMPI RETURNDATASIZE PUSH0 PUSH0 RETURNDATACOPY RETURNDATASIZE PUSH0 REVERT JUMPDEST POP POP POP POP DUP1 PUSH1 0x1 ADD SWAP1 POP PUSH2 0x20B5 JUMP JUMPDEST POP JUMPDEST PUSH0 PUSH2 0x21A1 PUSH2 0x280 DUP4 ADD DUP4 PUSH2 0x4821 JUMP JUMPDEST SWAP1 POP GT ISZERO PUSH2 0x22A5 JUMPI PUSH0 JUMPDEST PUSH2 0x21B9 PUSH2 0x280 DUP4 ADD DUP4 PUSH2 0x4821 JUMP JUMPDEST SWAP1 POP DUP2 LT ISZERO PUSH2 0x22A3 JUMPI PUSH1 0x40 DUP1 MLOAD PUSH2 0x100 DUP2 ADD DUP3 MSTORE PUSH0 DUP1 DUP3 MSTORE PUSH1 0x20 DUP3 ADD DUP2 SWAP1 MSTORE SWAP2 DUP2 ADD DUP3 SWAP1 MSTORE PUSH1 0x60 DUP2 ADD DUP3 SWAP1 MSTORE PUSH1 0x80 DUP2 ADD DUP3 SWAP1 MSTORE PUSH1 0xA0 DUP2 ADD DUP3 SWAP1 MSTORE PUSH1 0xC0 DUP2 ADD DUP3 SWAP1 MSTORE PUSH1 0xE0 DUP2 ADD SWAP2 SWAP1 SWAP2 MSTORE ADDRESS PUSH4 0x7BC2BE76 PUSH2 0x2218 PUSH1 0x80 DUP7 ADD PUSH1 0x60 DUP8 ADD PUSH2 0x3D93 JUMP JUMPDEST PUSH2 0x2226 PUSH2 0x280 DUP8 ADD DUP8 PUSH2 0x4821 JUMP JUMPDEST DUP7 DUP2 DUP2 LT PUSH2 0x2236 JUMPI PUSH2 0x2236 PUSH2 0x4866 JUMP JUMPDEST SWAP1 POP PUSH1 0x20 MUL ADD PUSH1 0x20 DUP2 ADD SWAP1 PUSH2 0x224B SWAP2 SWAP1 PUSH2 0x3D93 JUMP JUMPDEST DUP5 PUSH1 0x40 MLOAD DUP5 PUSH4 0xFFFFFFFF AND PUSH1 0xE0 SHL DUP2 MSTORE PUSH1 0x4 ADD PUSH2 0x226A SWAP4 SWAP3 SWAP2 SWAP1 PUSH2 0x4909 JUMP JUMPDEST PUSH0 PUSH1 0x40 MLOAD DUP1 DUP4 SUB DUP2 PUSH0 DUP8 DUP1 EXTCODESIZE ISZERO DUP1 ISZERO PUSH2 0x2281 JUMPI PUSH0 PUSH0 REVERT JUMPDEST POP GAS CALL ISZERO DUP1 ISZERO PUSH2 0x2293 JUMPI RETURNDATASIZE PUSH0 PUSH0 RETURNDATACOPY RETURNDATASIZE PUSH0 REVERT JUMPDEST POP POP POP POP DUP2 PUSH1 0x1 ADD SWAP2 POP POP PUSH2 0x21AB JUMP JUMPDEST POP JUMPDEST PUSH0 PUSH2 0x22B4 PUSH2 0x2C0 DUP4 ADD DUP4 PUSH2 0x49BE JUMP JUMPDEST SWAP1 POP GT ISZERO PUSH2 0x23D8 JUMPI PUSH2 0x22CA PUSH2 0x2A0 DUP3 ADD DUP3 PUSH2 0x4821 JUMP JUMPDEST SWAP1 POP PUSH2 0x22DA PUSH2 0x2C0 DUP4 ADD DUP4 PUSH2 0x49BE JUMP JUMPDEST SWAP1 POP EQ PUSH2 0x22FA JUMPI PUSH1 0x40 MLOAD PUSH4 0x74EF6DF7 PUSH1 0xE0 SHL DUP2 MSTORE PUSH1 0x4 ADD PUSH1 0x40 MLOAD DUP1 SWAP2 SUB SWAP1 REVERT JUMPDEST PUSH0 JUMPDEST PUSH2 0x230A PUSH2 0x2C0 DUP4 ADD DUP4 PUSH2 0x49BE JUMP JUMPDEST SWAP1 POP DUP2 LT ISZERO PUSH2 0x23D6 JUMPI ADDRESS PUSH4 0x511AA644 PUSH2 0x2329 PUSH1 0x80 DUP6 ADD PUSH1 0x60 DUP7 ADD PUSH2 0x3D93 JUMP JUMPDEST PUSH2 0x2337 PUSH2 0x2A0 DUP7 ADD DUP7 PUSH2 0x4821 JUMP JUMPDEST DUP6 DUP2 DUP2 LT PUSH2 0x2347 JUMPI PUSH2 0x2347 PUSH2 0x4866 JUMP JUMPDEST SWAP1 POP PUSH1 0x20 MUL ADD PUSH1 0x20 DUP2 ADD SWAP1 PUSH2 0x235C SWAP2 SWAP1 PUSH2 0x3D93 JUMP JUMPDEST PUSH2 0x236A PUSH2 0x2C0 DUP8 ADD DUP8 PUSH2 0x49BE JUMP JUMPDEST DUP7 DUP2 DUP2 LT PUSH2 0x237A JUMPI PUSH2 0x237A PUSH2 0x4866 JUMP JUMPDEST SWAP1 POP PUSH1 0xE0 MUL ADD PUSH1 0x40 MLOAD DUP5 PUSH4 0xFFFFFFFF AND PUSH1 0xE0 SHL DUP2 MSTORE PUSH1 0x4 ADD PUSH2 0x239E SWAP4 SWAP3 SWAP2 SWAP1 PUSH2 0x4A02 JUMP JUMPDEST PUSH0 PUSH1 0x40 MLOAD DUP1 DUP4 SUB DUP2 PUSH0 DUP8 DUP1 EXTCODESIZE ISZERO DUP1 ISZERO PUSH2 0x23B5 JUMPI PUSH0 PUSH0 REVERT JUMPDEST POP GAS CALL ISZERO DUP1 ISZERO PUSH2 0x23C7 JUMPI RETURNDATASIZE PUSH0 PUSH0 RETURNDATACOPY RETURNDATASIZE PUSH0 REVERT JUMPDEST POP POP POP POP DUP1 PUSH1 0x1 ADD SWAP1 POP PUSH2 0x22FC JUMP JUMPDEST POP JUMPDEST PUSH0 PUSH2 0x23E7 PUSH2 0x2E0 DUP4 ADD DUP4 PUSH2 0x4821 JUMP JUMPDEST SWAP1 POP GT ISZERO PUSH2 0x10C5 JUMPI PUSH0 JUMPDEST PUSH2 0x23FF PUSH2 0x2E0 DUP4 ADD DUP4 PUSH2 0x4821 JUMP JUMPDEST SWAP1 POP DUP2 LT ISZERO PUSH2 0xD07 JUMPI PUSH1 0x40 DUP1 MLOAD PUSH1 0xE0 DUP2 ADD DUP3 MSTORE PUSH0 DUP1 DUP3 MSTORE PUSH1 0x20 DUP3 ADD DUP2 SWAP1 MSTORE SWAP2 DUP2 ADD DUP3 SWAP1 MSTORE PUSH1 0x60 DUP2 ADD DUP3 SWAP1 MSTORE PUSH1 0x80 DUP2 ADD DUP3 SWAP1 MSTORE PUSH1 0xA0 DUP2 ADD DUP3 SWAP1 MSTORE PUSH1 0xC0 DUP2 ADD SWAP2 SWAP1 SWAP2 MSTORE ADDRESS PUSH4 0x511AA644 PUSH2 0x2456 PUSH1 0x80 DUP7 ADD PUSH1 0x60 DUP8 ADD PUSH2 0x3D93 JUMP JUMPDEST PUSH2 0x2464 PUSH2 0x2E0 DUP8 ADD DUP8 PUSH2 0x4821 JUMP JUMPDEST DUP7 DUP2 DUP2 LT PUSH2 0x2474 JUMPI PUSH2 0x2474 PUSH2 0x4866 JUMP JUMPDEST SWAP1 POP PUSH1 0x20 MUL ADD PUSH1 0x20 DUP2 ADD SWAP1 PUSH2 0x2489 SWAP2 SWAP1 PUSH2 0x3D93 JUMP JUMPDEST DUP5 PUSH1 0x40 MLOAD DUP5 PUSH4 0xFFFFFFFF AND PUSH1 0xE0 SHL DUP2 MSTORE PUSH1 0x4 ADD PUSH2 0x24A8 SWAP4 SWAP3 SWAP2 SWAP1 PUSH2 0x4AC1 JUMP JUMPDEST PUSH0 PUSH1 0x40 MLOAD DUP1 DUP4 SUB DUP2 PUSH0 DUP8 DUP1 EXTCODESIZE ISZERO DUP1 ISZERO PUSH2 0x24BF JUMPI PUSH0 PUSH0 REVERT JUMPDEST POP GAS CALL ISZERO DUP1 ISZERO PUSH2 0x24D1 JUMPI RETURNDATASIZE PUSH0 PUSH0 RETURNDATACOPY RETURNDATASIZE PUSH0 REVERT JUMPDEST POP POP POP POP DUP2 PUSH1 0x1 ADD SWAP2 POP POP PUSH2 0x23F1 JUMP JUMPDEST PUSH2 0x24E9 PUSH2 0x290C JUMP JUMPDEST PUSH1 0xE PUSH2 0x24F6 DUP3 DUP5 DUP4 PUSH2 0x4567 JUMP JUMPDEST POP PUSH32 0x905D981207A7D0B6C62CC46AB0BE2A076D0298E4A86D0AB79882DBD01AC37378 DUP3 DUP3 PUSH1 0x40 MLOAD PUSH2 0xD75 SWAP3 SWAP2 SWAP1 PUSH2 0x4633 JUMP JUMPDEST PUSH1 0x60 PUSH1 0x3 DUP1 SLOAD PUSH2 0xC1F SWAP1 PUSH2 0x4124 JUMP JUMPDEST PUSH1 0x60 PUSH2 0x2544 DUP5 DUP5 DUP5 PUSH2 0x2DE5 JUMP JUMPDEST SWAP1 POP JUMPDEST SWAP4 SWAP3 POP POP POP JUMP JUMPDEST PUSH1 0x14 SLOAD PUSH1 0xFF AND ISZERO PUSH2 0x2572 JUMPI PUSH1 0x40 MLOAD PUSH4 0x6AB17E05 PUSH1 0xE0 SHL DUP2 MSTORE PUSH1 0x4 ADD PUSH1 0x40 MLOAD DUP1 SWAP2 SUB SWAP1 REVERT JUMPDEST PUSH2 0xD07 DUP3 DUP3 PUSH2 0x2EED JUMP JUMPDEST PUSH2 0x2584 PUSH2 0x290C JUMP JUMPDEST PUSH1 0x40 DUP1 MLOAD DUP4 DUP2 MSTORE PUSH1 0x20 DUP2 ADD DUP4 SWAP1 MSTORE PUSH0 MLOAD PUSH1 0x20 PUSH2 0x4DEF PUSH0 CODECOPY PUSH0 MLOAD SWAP1 PUSH0 MSTORE SWAP2 ADD PUSH2 0xD75 JUMP JUMPDEST PUSH2 0x25AF PUSH2 0x2969 JUMP JUMPDEST PUSH2 0x10C5 DUP2 PUSH2 0x2F58 JUMP JUMPDEST PUSH2 0x25C3 DUP5 DUP5 DUP5 PUSH2 0xEA8 JUMP JUMPDEST PUSH1 0x1 PUSH1 0x1 PUSH1 0xA0 SHL SUB DUP4 AND EXTCODESIZE ISZERO PUSH2 0x25F3 JUMPI PUSH2 0x25DF DUP5 DUP5 DUP5 DUP5 PUSH2 0x2FE0 JUMP JUMPDEST PUSH2 0x25F3 JUMPI PUSH2 0x25F3 PUSH4 0x68D2BF6B PUSH1 0xE1 SHL PUSH2 0x28F8 JUMP JUMPDEST POP POP POP POP JUMP JUMPDEST PUSH1 0x40 DUP1 MLOAD PUSH1 0x80 DUP2 ADD DUP3 MSTORE PUSH0 DUP1 DUP3 MSTORE PUSH1 0x20 DUP3 ADD DUP2 SWAP1 MSTORE SWAP2 DUP2 ADD DUP3 SWAP1 MSTORE PUSH1 0x60 DUP2 ADD SWAP2 SWAP1 SWAP2 MSTORE PUSH1 0x1 DUP3 LT PUSH2 0x2654 JUMPI PUSH0 SLOAD DUP3 LT ISZERO PUSH2 0x2654 JUMPI JUMPDEST PUSH0 DUP3 DUP2 MSTORE PUSH1 0x4 PUSH1 0x20 MSTORE PUSH1 0x40 SWAP1 KECCAK256 SLOAD PUSH2 0x264B JUMPI PUSH0 NOT SWAP1 SWAP2 ADD SWAP1 PUSH2 0x262E JUMP JUMPDEST PUSH2 0xC0A DUP3 PUSH2 0x30BE JUMP JUMPDEST SWAP2 SWAP1 POP JUMP JUMPDEST PUSH1 0x60 DUP2 PUSH2 0x2665 DUP2 PUSH2 0x28B0 JUMP JUMPDEST PUSH2 0x26B1 JUMPI PUSH1 0x40 MLOAD PUSH3 0x461BCD PUSH1 0xE5 SHL DUP2 MSTORE PUSH1 0x20 PUSH1 0x4 DUP3 ADD MSTORE PUSH1 0x1F PUSH1 0x24 DUP3 ADD MSTORE PUSH32 0x55524920717565727920666F72206E6F6E6578697374656E7420746F6B656E00 PUSH1 0x44 DUP3 ADD MSTORE PUSH1 0x64 ADD PUSH2 0x1158 JUMP JUMPDEST PUSH1 0x40 DUP1 MLOAD DUP1 DUP3 ADD DUP3 MSTORE PUSH0 DUP1 DUP3 MSTORE PUSH1 0x20 SWAP2 DUP3 ADD DUP2 SWAP1 MSTORE DUP6 DUP2 MSTORE PUSH1 0x19 DUP3 MSTORE DUP3 SWAP1 KECCAK256 DUP3 MLOAD DUP1 DUP5 ADD SWAP1 SWAP4 MSTORE SLOAD PUSH4 0xFFFFFFFF DUP1 DUP3 AND DUP1 DUP6 MSTORE PUSH5 0x100000000 SWAP1 SWAP3 DIV AND SWAP2 DUP4 ADD DUP3 SWAP1 MSTORE PUSH1 0x16 SLOAD PUSH2 0x2703 SWAP3 DUP8 SWAP3 SWAP2 PUSH2 0x313A JUMP JUMPDEST SWAP3 POP POP JUMPDEST POP SWAP2 SWAP1 POP JUMP JUMPDEST PUSH2 0x2715 PUSH2 0x290C JUMP JUMPDEST PUSH2 0x271E DUP4 PUSH2 0x2994 JUMP JUMPDEST PUSH1 0x40 MLOAD PUSH4 0x3F952E65 PUSH1 0xE1 SHL DUP2 MSTORE PUSH1 0x1 PUSH1 0x1 PUSH1 0xA0 SHL SUB DUP4 DUP2 AND PUSH1 0x4 DUP4 ADD MSTORE DUP3 ISZERO ISZERO PUSH1 0x24 DUP4 ADD MSTORE DUP5 AND SWAP1 PUSH4 0x7F2A5CCA SWAP1 PUSH1 0x44 ADD PUSH2 0x12EA JUMP JUMPDEST PUSH1 0x60 PUSH1 0xE DUP1 SLOAD PUSH2 0xC1F SWAP1 PUSH2 0x4124 JUMP JUMPDEST PUSH0 PUSH20 0x1E0049783F008A0085193E00003D00CD54003C70 NOT PUSH1 0x1 PUSH1 0x1 PUSH1 0xA0 SHL SUB DUP4 AND ADD PUSH2 0x2791 JUMPI POP PUSH1 0x1 PUSH2 0xC0A JUMP JUMPDEST PUSH1 0x1 PUSH1 0x1 PUSH1 0xA0 SHL SUB DUP1 DUP5 AND PUSH0 SWAP1 DUP2 MSTORE PUSH1 0x7 PUSH1 0x20 SWAP1 DUP2 MSTORE PUSH1 0x40 DUP1 DUP4 KECCAK256 SWAP4 DUP7 AND DUP4 MSTORE SWAP3 SWAP1 MSTORE KECCAK256 SLOAD PUSH1 0xFF AND PUSH2 0x2547 JUMP JUMPDEST PUSH2 0x27C6 PUSH2 0x2969 JUMP JUMPDEST PUSH1 0x1 PUSH1 0x1 PUSH1 0xA0 SHL SUB DUP2 AND PUSH2 0x27ED JUMPI PUSH1 0x40 MLOAD PUSH4 0x3A247DD7 PUSH1 0xE1 SHL DUP2 MSTORE PUSH1 0x4 ADD PUSH1 0x40 MLOAD DUP1 SWAP2 SUB SWAP1 REVERT JUMPDEST PUSH1 0xB DUP1 SLOAD PUSH1 0x1 PUSH1 0x1 PUSH1 0xA0 SHL SUB NOT AND PUSH1 0x1 PUSH1 0x1 PUSH1 0xA0 SHL SUB DUP4 AND SWAP1 DUP2 OR SWAP1 SWAP2 SSTORE PUSH1 0x40 MLOAD SWAP1 DUP2 MSTORE PUSH32 0x11A3CF439FB225BFE74225716B6774765670EC1060E3796802E62139D69974DA SWAP1 PUSH1 0x20 ADD PUSH2 0xDC6 JUMP JUMPDEST PUSH0 PUSH1 0x1 PUSH1 0x1 PUSH1 0xE0 SHL SUB NOT DUP3 AND PUSH4 0x152A902D PUSH1 0xE1 SHL EQ DUP1 PUSH2 0x286B JUMPI POP PUSH1 0x1 PUSH1 0x1 PUSH1 0xE0 SHL SUB NOT DUP3 AND PUSH4 0x2B435FDB PUSH1 0xE2 SHL EQ JUMPDEST DUP1 PUSH2 0x2886 JUMPI POP PUSH1 0x1 PUSH1 0x1 PUSH1 0xE0 SHL SUB NOT DUP3 AND PUSH4 0x503E914D PUSH1 0xE1 SHL EQ JUMPDEST DUP1 PUSH2 0x28A1 JUMPI POP PUSH4 0x24832483 PUSH1 0xE1 SHL PUSH1 0x1 PUSH1 0x1 PUSH1 0xE0 SHL SUB NOT DUP4 AND EQ JUMPDEST DUP1 PUSH2 0xC0A JUMPI POP PUSH2 0xC0A DUP3 PUSH2 0x32FF JUMP JUMPDEST PUSH0 DUP2 PUSH1 0x1 GT PUSH2 0x2654 JUMPI PUSH0 SLOAD DUP3 LT ISZERO PUSH2 0x2654 JUMPI PUSH0 JUMPDEST POP PUSH0 DUP3 DUP2 MSTORE PUSH1 0x4 PUSH1 0x20 MSTORE PUSH1 0x40 DUP2 KECCAK256 SLOAD SWAP1 DUP2 SWAP1 SUB PUSH2 0x28EB JUMPI PUSH2 0x28E4 DUP4 PUSH2 0x4AE7 JUMP JUMPDEST SWAP3 POP PUSH2 0x28C4 JUMP JUMPDEST PUSH1 0x1 PUSH1 0xE0 SHL AND ISZERO SWAP3 SWAP2 POP POP JUMP JUMPDEST DUP1 PUSH0 MSTORE PUSH1 0x4 PUSH0 REVERT JUMPDEST PUSH2 0xD07 DUP3 DUP3 PUSH1 0x1 PUSH2 0x334C JUMP JUMPDEST ADDRESS CALLER EQ PUSH2 0x293B PUSH2 0x2924 PUSH1 0xA SLOAD PUSH1 0x1 PUSH1 0x1 PUSH1 0xA0 SHL SUB AND SWAP1 JUMP JUMPDEST PUSH1 0x1 PUSH1 0x1 PUSH1 0xA0 SHL SUB AND CALLER PUSH1 0x1 PUSH1 0x1 PUSH1 0xA0 SHL SUB AND EQ SWAP1 JUMP JUMPDEST OR PUSH0 SUB PUSH2 0x17D1 JUMPI PUSH1 0x40 MLOAD PUSH4 0x5FC483C5 PUSH1 0xE0 SHL DUP2 MSTORE PUSH1 0x4 ADD PUSH1 0x40 MLOAD DUP1 SWAP2 SUB SWAP1 REVERT JUMPDEST PUSH0 SLOAD PUSH0 NOT SWAP1 DUP2 ADD SWAP1 DUP1 PUSH2 0xDE0 JUMP JUMPDEST PUSH1 0xA SLOAD PUSH1 0x1 PUSH1 0x1 PUSH1 0xA0 SHL SUB AND CALLER EQ PUSH2 0x17D1 JUMPI PUSH1 0x40 MLOAD PUSH4 0x5FC483C5 PUSH1 0xE0 SHL DUP2 MSTORE PUSH1 0x4 ADD PUSH1 0x40 MLOAD DUP1 SWAP2 SUB SWAP1 REVERT JUMPDEST PUSH1 0x1 PUSH1 0x1 PUSH1 0xA0 SHL SUB DUP2 AND PUSH0 SWAP1 DUP2 MSTORE PUSH1 0x12 PUSH1 0x20 MSTORE PUSH1 0x40 SWAP1 KECCAK256 SLOAD PUSH1 0xFF AND ISZERO ISZERO PUSH1 0x1 EQ PUSH2 0x10C5 JUMPI PUSH1 0x40 MLOAD PUSH4 0x15E26FF3 PUSH1 0xE0 SHL DUP2 MSTORE PUSH1 0x4 ADD PUSH1 0x40 MLOAD DUP1 SWAP2 SUB SWAP1 REVERT JUMPDEST PUSH0 DUP2 PUSH1 0x1 GT PUSH2 0x2A5A JUMPI POP PUSH0 DUP2 DUP2 MSTORE PUSH1 0x4 PUSH1 0x20 MSTORE PUSH1 0x40 SWAP1 KECCAK256 SLOAD DUP1 PUSH0 SUB PUSH2 0x2A48 JUMPI PUSH0 SLOAD DUP3 LT PUSH2 0x2A08 JUMPI PUSH2 0x2A08 PUSH4 0x6F96CDA1 PUSH1 0xE1 SHL PUSH2 0x28F8 JUMP JUMPDEST JUMPDEST POP PUSH0 NOT ADD PUSH0 DUP2 DUP2 MSTORE PUSH1 0x4 PUSH1 0x20 MSTORE PUSH1 0x40 SWAP1 KECCAK256 SLOAD DUP1 ISZERO PUSH2 0x2A09 JUMPI PUSH1 0x1 PUSH1 0xE0 SHL DUP2 AND PUSH0 SUB PUSH2 0x2A33 JUMPI SWAP2 SWAP1 POP JUMP JUMPDEST PUSH2 0x2A43 PUSH4 0x6F96CDA1 PUSH1 0xE1 SHL PUSH2 0x28F8 JUMP JUMPDEST PUSH2 0x2A09 JUMP JUMPDEST PUSH1 0x1 PUSH1 0xE0 SHL DUP2 AND PUSH0 SUB PUSH2 0x2A5A JUMPI SWAP2 SWAP1 POP JUMP JUMPDEST PUSH2 0x2654 PUSH4 0x6F96CDA1 PUSH1 0xE1 SHL PUSH2 0x28F8 JUMP JUMPDEST PUSH1 0x1 PUSH1 0x1 PUSH1 0xA0 SHL SUB DUP5 AND ISZERO DUP1 ISZERO SWAP1 PUSH2 0x2A84 JUMPI POP PUSH1 0x14 SLOAD PUSH1 0xFF AND JUMPDEST ISZERO PUSH2 0x2AA2 JUMPI PUSH1 0x40 MLOAD PUSH4 0x6AB17E05 PUSH1 0xE0 SHL DUP2 MSTORE PUSH1 0x4 ADD PUSH1 0x40 MLOAD DUP1 SWAP2 SUB SWAP1 REVERT JUMPDEST PUSH2 0x25F3 DUP5 DUP5 DUP5 DUP5 PUSH2 0x33ED JUMP JUMPDEST PUSH0 PUSH2 0x2AB8 DUP4 PUSH2 0x29D1 JUMP JUMPDEST SWAP1 POP DUP1 PUSH0 DUP1 PUSH2 0x2AD4 DUP7 PUSH0 SWAP1 DUP2 MSTORE PUSH1 0x6 PUSH1 0x20 MSTORE PUSH1 0x40 SWAP1 KECCAK256 DUP1 SLOAD SWAP1 SWAP2 JUMP JUMPDEST SWAP2 POP SWAP2 POP DUP5 ISZERO PUSH2 0x2B0B JUMPI PUSH2 0x2AE9 DUP2 DUP5 CALLER PUSH2 0xEEE JUMP JUMPDEST PUSH2 0x2B0B JUMPI PUSH2 0x2AF7 DUP4 CALLER PUSH2 0x2763 JUMP JUMPDEST PUSH2 0x2B0B JUMPI PUSH2 0x2B0B PUSH4 0x2CE44B5F PUSH1 0xE1 SHL PUSH2 0x28F8 JUMP JUMPDEST PUSH2 0x2B18 DUP4 PUSH0 DUP9 PUSH1 0x1 PUSH2 0x2A6A JUMP JUMPDEST DUP1 ISZERO PUSH2 0x2B22 JUMPI PUSH0 DUP3 SSTORE JUMPDEST PUSH1 0x1 PUSH1 0x1 PUSH1 0xA0 SHL SUB DUP4 AND PUSH0 DUP2 DUP2 MSTORE PUSH1 0x5 PUSH1 0x20 MSTORE PUSH1 0x40 SWAP1 KECCAK256 DUP1 SLOAD PUSH16 0xFFFFFFFFFFFFFFFFFFFFFFFFFFFFFFFF ADD SWAP1 SSTORE TIMESTAMP PUSH1 0xA0 SHL OR PUSH1 0x3 PUSH1 0xE0 SHL OR PUSH0 DUP8 DUP2 MSTORE PUSH1 0x4 PUSH1 0x20 MSTORE PUSH1 0x40 DUP2 KECCAK256 SWAP2 SWAP1 SWAP2 SSTORE PUSH1 0x1 PUSH1 0xE1 SHL DUP6 AND SWAP1 SUB PUSH2 0x2BAB JUMPI PUSH1 0x1 DUP7 ADD PUSH0 DUP2 DUP2 MSTORE PUSH1 0x4 PUSH1 0x20 MSTORE PUSH1 0x40 DUP2 KECCAK256 SLOAD SWAP1 SUB PUSH2 0x2BA9 JUMPI PUSH0 SLOAD DUP2 EQ PUSH2 0x2BA9 JUMPI PUSH0 DUP2 DUP2 MSTORE PUSH1 0x4 PUSH1 0x20 MSTORE PUSH1 0x40 SWAP1 KECCAK256 DUP6 SWAP1 SSTORE JUMPDEST POP JUMPDEST PUSH1 0x40 MLOAD DUP7 SWAP1 PUSH0 SWAP1 PUSH1 0x1 PUSH1 0x1 PUSH1 0xA0 SHL SUB DUP7 AND SWAP1 PUSH32 0xDDF252AD1BE2C89B69C2B068FC378DAA952BA7F163C4A11628F55A4DF523B3EF SWAP1 DUP4 SWAP1 LOG4 POP POP PUSH1 0x1 DUP1 SLOAD DUP2 ADD SWAP1 SSTORE POP POP POP POP JUMP JUMPDEST PUSH1 0xC SLOAD DUP2 PUSH2 0x2BFE PUSH2 0x295B JUMP JUMPDEST PUSH2 0x2C08 SWAP2 SWAP1 PUSH2 0x4620 JUMP JUMPDEST GT ISZERO PUSH2 0x10C5 JUMPI DUP1 PUSH2 0x1646 PUSH2 0x295B JUMP JUMPDEST PUSH2 0xD07 DUP3 DUP3 PUSH1 0x40 MLOAD DUP1 PUSH1 0x20 ADD PUSH1 0x40 MSTORE DUP1 PUSH0 DUP2 MSTORE POP PUSH2 0x3496 JUMP JUMPDEST PUSH1 0x60 PUSH1 0x80 PUSH1 0x40 MLOAD ADD SWAP1 POP PUSH1 0x20 DUP2 ADD PUSH1 0x40 MSTORE PUSH0 DUP2 MSTORE DUP1 PUSH0 NOT DUP4 JUMPDEST SWAP3 DUP2 ADD SWAP3 PUSH1 0x30 PUSH1 0xA DUP3 MOD ADD DUP5 MSTORE8 PUSH1 0xA SWAP1 DIV DUP1 PUSH2 0x2C49 JUMPI POP POP DUP2 SWAP1 SUB PUSH1 0x1F NOT SWAP1 SWAP2 ADD SWAP1 DUP2 MSTORE SWAP2 SWAP1 POP JUMP JUMPDEST PUSH1 0x13 SLOAD DUP2 PUSH0 JUMPDEST DUP3 DUP2 LT ISZERO PUSH2 0x2CD2 JUMPI PUSH0 PUSH1 0x12 PUSH0 PUSH1 0x13 DUP5 DUP2 SLOAD DUP2 LT PUSH2 0x2C97 JUMPI PUSH2 0x2C97 PUSH2 0x4866 JUMP JUMPDEST PUSH0 SWAP2 DUP3 MSTORE PUSH1 0x20 DUP1 DUP4 KECCAK256 SWAP2 SWAP1 SWAP2 ADD SLOAD PUSH1 0x1 PUSH1 0x1 PUSH1 0xA0 SHL SUB AND DUP4 MSTORE DUP3 ADD SWAP3 SWAP1 SWAP3 MSTORE PUSH1 0x40 ADD SWAP1 KECCAK256 DUP1 SLOAD PUSH1 0xFF NOT AND SWAP2 ISZERO ISZERO SWAP2 SWAP1 SWAP2 OR SWAP1 SSTORE PUSH1 0x1 ADD PUSH2 0x2C78 JUMP JUMPDEST POP PUSH0 JUMPDEST DUP2 DUP2 LT ISZERO PUSH2 0x2D38 JUMPI PUSH1 0x1 PUSH1 0x12 PUSH0 DUP8 DUP8 DUP6 DUP2 DUP2 LT PUSH2 0x2CF4 JUMPI PUSH2 0x2CF4 PUSH2 0x4866 JUMP JUMPDEST SWAP1 POP PUSH1 0x20 MUL ADD PUSH1 0x20 DUP2 ADD SWAP1 PUSH2 0x2D09 SWAP2 SWAP1 PUSH2 0x3D93 JUMP JUMPDEST PUSH1 0x1 PUSH1 0x1 PUSH1 0xA0 SHL SUB AND DUP2 MSTORE PUSH1 0x20 DUP2 ADD SWAP2 SWAP1 SWAP2 MSTORE PUSH1 0x40 ADD PUSH0 KECCAK256 DUP1 SLOAD PUSH1 0xFF NOT AND SWAP2 ISZERO ISZERO SWAP2 SWAP1 SWAP2 OR SWAP1 SSTORE PUSH1 0x1 ADD PUSH2 0x2CD5 JUMP JUMPDEST POP PUSH2 0x2D45 PUSH1 0x13 DUP6 DUP6 PUSH2 0x38E0 JUMP JUMPDEST POP PUSH32 0xBBD3B69C138DE4D317D0BC4290282C4E1CBD1E58B579A5B4F114B598C237454D DUP5 DUP5 PUSH1 0x40 MLOAD PUSH2 0x2D77 SWAP3 SWAP2 SWAP1 PUSH2 0x4AFC JUMP JUMPDEST PUSH1 0x40 MLOAD DUP1 SWAP2 SUB SWAP1 LOG1 POP POP POP POP JUMP JUMPDEST PUSH1 0x60 PUSH1 0xD DUP1 SLOAD PUSH2 0xC1F SWAP1 PUSH2 0x4124 JUMP JUMPDEST PUSH1 0xA DUP1 SLOAD PUSH1 0x1 PUSH1 0x1 PUSH1 0xA0 SHL SUB DUP4 DUP2 AND PUSH1 0x1 PUSH1 0x1 PUSH1 0xA0 SHL SUB NOT DUP4 AND DUP2 OR SWAP1 SWAP4 SSTORE PUSH1 0x40 MLOAD SWAP2 AND SWAP2 SWAP1 DUP3 SWAP1 PUSH32 0x8BE0079C531659141344CD1FD0A4F28419497F9722A3DAAFE3B4186F6B6457E0 SWAP1 PUSH0 SWAP1 LOG3 POP POP JUMP JUMPDEST PUSH1 0x60 DUP2 DUP4 LT PUSH2 0x2E07 JUMPI PUSH1 0x40 MLOAD PUSH4 0x1960CCAD PUSH1 0xE1 SHL DUP2 MSTORE PUSH1 0x4 ADD PUSH1 0x40 MLOAD DUP1 SWAP2 SUB SWAP1 REVERT JUMPDEST PUSH1 0x1 DUP4 LT ISZERO PUSH2 0x2E15 JUMPI PUSH1 0x1 SWAP3 POP JUMPDEST PUSH0 SLOAD DUP1 DUP1 DUP5 LT PUSH2 0x2E23 JUMPI DUP1 SWAP4 POP JUMPDEST PUSH0 PUSH2 0x2E2D DUP8 PUSH2 0x177D JUMP JUMPDEST SWAP1 POP DUP5 DUP7 LT PUSH2 0x2E39 JUMPI POP PUSH0 JUMPDEST DUP1 ISZERO PUSH2 0x2EE3 JUMPI DUP1 DUP7 DUP7 SUB GT PUSH2 0x2E4D JUMPI POP DUP5 DUP5 SUB JUMPDEST PUSH1 0x40 DUP1 MLOAD PUSH1 0x1 DUP4 ADD PUSH1 0x5 SHL DUP2 ADD SWAP2 DUP3 SWAP1 MSTORE SWAP5 POP PUSH0 PUSH2 0x2E6A DUP9 PUSH2 0x25F9 JUMP JUMPDEST SWAP1 POP PUSH0 DUP2 PUSH1 0x40 ADD MLOAD PUSH2 0x2E7A JUMPI POP DUP1 MLOAD JUMPDEST PUSH0 JUMPDEST PUSH2 0x2E85 DUP11 PUSH2 0x30BE JUMP JUMPDEST SWAP3 POP PUSH1 0x40 DUP4 ADD MLOAD PUSH0 DUP2 EQ PUSH2 0x2E9B JUMPI PUSH0 SWAP3 POP PUSH2 0x2EC0 JUMP JUMPDEST DUP4 MLOAD ISZERO PUSH2 0x2EA7 JUMPI DUP4 MLOAD SWAP3 POP JUMPDEST DUP12 DUP4 XOR PUSH1 0x60 SHL PUSH2 0x2EC0 JUMPI PUSH1 0x1 DUP3 ADD SWAP2 POP DUP11 DUP3 PUSH1 0x5 SHL DUP11 ADD MSTORE JUMPDEST POP PUSH1 0x1 DUP11 ADD SWAP10 POP DUP4 PUSH1 0x40 MSTORE DUP9 DUP11 EQ DUP1 PUSH2 0x2ED8 JUMPI POP DUP5 DUP2 EQ JUMPDEST ISZERO PUSH2 0x2E7C JUMPI DUP8 MSTORE POP POP POP JUMPDEST POP POP POP SWAP4 SWAP3 POP POP POP JUMP JUMPDEST CALLER PUSH0 DUP2 DUP2 MSTORE PUSH1 0x7 PUSH1 0x20 SWAP1 DUP2 MSTORE PUSH1 0x40 DUP1 DUP4 KECCAK256 PUSH1 0x1 PUSH1 0x1 PUSH1 0xA0 SHL SUB DUP8 AND DUP1 DUP6 MSTORE SWAP1 DUP4 MSTORE SWAP3 DUP2 SWAP1 KECCAK256 DUP1 SLOAD PUSH1 0xFF NOT AND DUP7 ISZERO ISZERO SWAP1 DUP2 OR SWAP1 SWAP2 SSTORE SWAP1 MLOAD SWAP1 DUP2 MSTORE SWAP2 SWAP3 SWAP2 PUSH32 0x17307EAB39AB6107E8899845AD3D59BD9653F200F220920489CA2B5937696C31 SWAP2 ADD PUSH1 0x40 MLOAD DUP1 SWAP2 SUB SWAP1 LOG3 POP POP JUMP JUMPDEST PUSH1 0x9 SLOAD PUSH1 0x1 PUSH1 0x1 PUSH1 0xA0 SHL SUB SWAP1 DUP2 AND SWAP1 DUP3 AND DUP2 SUB PUSH2 0x2F88 JUMPI PUSH1 0x40 MLOAD PUSH4 0x251DD8CF PUSH1 0xE1 SHL DUP2 MSTORE PUSH1 0x4 ADD PUSH1 0x40 MLOAD DUP1 SWAP2 SUB SWAP1 REVERT JUMPDEST PUSH1 0x9 DUP1 SLOAD PUSH1 0x1 PUSH1 0x1 PUSH1 0xA0 SHL SUB NOT AND PUSH1 0x1 PUSH1 0x1 PUSH1 0xA0 SHL SUB DUP5 DUP2 AND SWAP2 DUP3 OR SWAP1 SWAP3 SSTORE PUSH1 0x40 DUP1 MLOAD SWAP3 DUP5 AND DUP4 MSTORE PUSH1 0x20 DUP4 ADD SWAP2 SWAP1 SWAP2 MSTORE PUSH32 0xCC5DC080FF977B3C3A211FA63AB74F90F658F5BA9D3236E92C8F59570F442AAC SWAP2 ADD PUSH2 0xD75 JUMP JUMPDEST PUSH1 0x40 MLOAD PUSH4 0xA85BD01 PUSH1 0xE1 SHL DUP2 MSTORE PUSH0 SWAP1 PUSH1 0x1 PUSH1 0x1 PUSH1 0xA0 SHL SUB DUP6 AND SWAP1 PUSH4 0x150B7A02 SWAP1 PUSH2 0x3014 SWAP1 CALLER SWAP1 DUP10 SWAP1 DUP9 SWAP1 DUP9 SWAP1 PUSH1 0x4 ADD PUSH2 0x4B48 JUMP JUMPDEST PUSH1 0x20 PUSH1 0x40 MLOAD DUP1 DUP4 SUB DUP2 PUSH0 DUP8 GAS CALL SWAP3 POP POP POP DUP1 ISZERO PUSH2 0x304E JUMPI POP PUSH1 0x40 DUP1 MLOAD PUSH1 0x1F RETURNDATASIZE SWAP1 DUP2 ADD PUSH1 0x1F NOT AND DUP3 ADD SWAP1 SWAP3 MSTORE PUSH2 0x304B SWAP2 DUP2 ADD SWAP1 PUSH2 0x4B7A JUMP JUMPDEST PUSH1 0x1 JUMPDEST PUSH2 0x30A1 JUMPI RETURNDATASIZE DUP1 DUP1 ISZERO PUSH2 0x307B JUMPI PUSH1 0x40 MLOAD SWAP2 POP PUSH1 0x1F NOT PUSH1 0x3F RETURNDATASIZE ADD AND DUP3 ADD PUSH1 0x40 MSTORE RETURNDATASIZE DUP3 MSTORE RETURNDATASIZE PUSH0 PUSH1 0x20 DUP5 ADD RETURNDATACOPY PUSH2 0x3080 JUMP JUMPDEST PUSH1 0x60 SWAP2 POP JUMPDEST POP DUP1 MLOAD PUSH0 SUB PUSH2 0x3099 JUMPI PUSH2 0x3099 PUSH4 0x68D2BF6B PUSH1 0xE1 SHL PUSH2 0x28F8 JUMP JUMPDEST DUP1 MLOAD DUP2 PUSH1 0x20 ADD REVERT JUMPDEST PUSH1 0x1 PUSH1 0x1 PUSH1 0xE0 SHL SUB NOT AND PUSH4 0xA85BD01 PUSH1 0xE1 SHL EQ SWAP1 POP SWAP5 SWAP4 POP POP POP POP JUMP JUMPDEST PUSH1 0x40 DUP1 MLOAD PUSH1 0x80 DUP2 ADD DUP3 MSTORE PUSH0 DUP1 DUP3 MSTORE PUSH1 0x20 DUP3 ADD DUP2 SWAP1 MSTORE SWAP2 DUP2 ADD DUP3 SWAP1 MSTORE PUSH1 0x60 DUP2 ADD SWAP2 SWAP1 SWAP2 MSTORE PUSH0 DUP3 DUP2 MSTORE PUSH1 0x4 PUSH1 0x20 MSTORE PUSH1 0x40 SWAP1 KECCAK256 SLOAD PUSH2 0xC0A SWAP1 PUSH1 0x40 DUP1 MLOAD PUSH1 0x80 DUP2 ADD DUP3 MSTORE PUSH1 0x1 PUSH1 0x1 PUSH1 0xA0 SHL SUB DUP4 AND DUP2 MSTORE PUSH1 0xA0 DUP4 SWAP1 SHR PUSH1 0x1 PUSH1 0x1 PUSH1 0x40 SHL SUB AND PUSH1 0x20 DUP3 ADD MSTORE PUSH1 0x1 PUSH1 0xE0 SHL DUP4 AND ISZERO ISZERO SWAP2 DUP2 ADD SWAP2 SWAP1 SWAP2 MSTORE PUSH1 0xE8 SWAP2 SWAP1 SWAP2 SHR PUSH1 0x60 DUP3 ADD MSTORE SWAP1 JUMP JUMPDEST PUSH1 0x18 SLOAD PUSH1 0x40 MLOAD PUSH4 0xE60745BF PUSH1 0xE0 SHL DUP2 MSTORE PUSH1 0x4 DUP2 ADD DUP6 SWAP1 MSTORE PUSH1 0x24 DUP2 ADD DUP5 SWAP1 MSTORE PUSH1 0x44 DUP2 ADD DUP4 SWAP1 MSTORE PUSH1 0x60 SWAP2 DUP3 SWAP2 DUP3 SWAP2 DUP3 SWAP2 PUSH1 0x1 PUSH1 0x1 PUSH1 0xA0 SHL SUB SWAP1 SWAP2 AND SWAP1 PUSH4 0xE60745BF SWAP1 PUSH1 0x64 ADD PUSH0 PUSH1 0x40 MLOAD DUP1 DUP4 SUB DUP2 DUP7 GAS STATICCALL ISZERO DUP1 ISZERO PUSH2 0x3197 JUMPI RETURNDATASIZE PUSH0 PUSH0 RETURNDATACOPY RETURNDATASIZE PUSH0 REVERT JUMPDEST POP POP POP POP PUSH1 0x40 MLOAD RETURNDATASIZE PUSH0 DUP3 RETURNDATACOPY PUSH1 0x1F RETURNDATASIZE SWAP1 DUP2 ADD PUSH1 0x1F NOT AND DUP3 ADD PUSH1 0x40 MSTORE PUSH2 0x31BE SWAP2 SWAP1 DUP2 ADD SWAP1 PUSH2 0x4BE2 JUMP JUMPDEST PUSH1 0x18 SLOAD PUSH1 0x40 MLOAD PUSH4 0x74C2B451 PUSH1 0xE0 SHL DUP2 MSTORE SWAP3 SWAP6 POP SWAP1 SWAP4 POP PUSH1 0x1 PUSH1 0x1 PUSH1 0xA0 SHL SUB AND SWAP1 PUSH4 0x74C2B451 SWAP1 PUSH2 0x31F2 SWAP1 DUP7 SWAP1 PUSH1 0x4 ADD PUSH2 0x39B3 JUMP JUMPDEST PUSH0 PUSH1 0x40 MLOAD DUP1 DUP4 SUB DUP2 DUP7 GAS STATICCALL ISZERO DUP1 ISZERO PUSH2 0x320C JUMPI RETURNDATASIZE PUSH0 PUSH0 RETURNDATACOPY RETURNDATASIZE PUSH0 REVERT JUMPDEST POP POP POP POP PUSH1 0x40 MLOAD RETURNDATASIZE PUSH0 DUP3 RETURNDATACOPY PUSH1 0x1F RETURNDATASIZE SWAP1 DUP2 ADD PUSH1 0x1F NOT AND DUP3 ADD PUSH1 0x40 MSTORE PUSH2 0x3233 SWAP2 SWAP1 DUP2 ADD SWAP1 PUSH2 0x4C45 JUMP JUMPDEST SWAP1 POP PUSH0 PUSH2 0x323F DUP10 PUSH2 0x2C30 JUMP JUMPDEST DUP4 PUSH2 0x3249 DUP7 PUSH2 0x34EF JUMP JUMPDEST PUSH1 0x40 MLOAD PUSH1 0x20 ADD PUSH2 0x325B SWAP4 SWAP3 SWAP2 SWAP1 PUSH2 0x4C76 JUMP JUMPDEST PUSH1 0x40 MLOAD PUSH1 0x20 DUP2 DUP4 SUB SUB DUP2 MSTORE SWAP1 PUSH1 0x40 MSTORE SWAP1 POP PUSH0 DUP3 MLOAD GT ISZERO PUSH2 0x32A6 JUMPI DUP1 PUSH2 0x327F DUP4 PUSH2 0x34EF JUMP JUMPDEST PUSH1 0x40 MLOAD PUSH1 0x20 ADD PUSH2 0x3290 SWAP3 SWAP2 SWAP1 PUSH2 0x4D2E JUMP JUMPDEST PUSH1 0x40 MLOAD PUSH1 0x20 DUP2 DUP4 SUB SUB DUP2 MSTORE SWAP1 PUSH1 0x40 MSTORE SWAP1 POP PUSH2 0x32C9 JUMP JUMPDEST DUP1 PUSH1 0x40 MLOAD PUSH1 0x20 ADD PUSH2 0x32B7 SWAP2 SWAP1 PUSH2 0x4D8E JUMP JUMPDEST PUSH1 0x40 MLOAD PUSH1 0x20 DUP2 DUP4 SUB SUB DUP2 MSTORE SWAP1 PUSH1 0x40 MSTORE SWAP1 POP JUMPDEST PUSH2 0x32D2 DUP2 PUSH2 0x34EF JUMP JUMPDEST PUSH1 0x40 MLOAD PUSH1 0x20 ADD PUSH2 0x32E2 SWAP2 SWAP1 PUSH2 0x4DAA JUMP JUMPDEST PUSH1 0x40 MLOAD PUSH1 0x20 DUP2 DUP4 SUB SUB DUP2 MSTORE SWAP1 PUSH1 0x40 MSTORE SWAP5 POP POP POP POP POP SWAP5 SWAP4 POP POP POP POP JUMP JUMPDEST PUSH0 PUSH4 0x1FFC9A7 PUSH1 0xE0 SHL PUSH1 0x1 PUSH1 0x1 PUSH1 0xE0 SHL SUB NOT DUP4 AND EQ DUP1 PUSH2 0x332F JUMPI POP PUSH4 0x80AC58CD PUSH1 0xE0 SHL PUSH1 0x1 PUSH1 0x1 PUSH1 0xE0 SHL SUB NOT DUP4 AND EQ JUMPDEST DUP1 PUSH2 0xC0A JUMPI POP POP PUSH1 0x1 PUSH1 0x1 PUSH1 0xE0 SHL SUB NOT AND PUSH4 0x5B5E139F PUSH1 0xE0 SHL EQ SWAP1 JUMP JUMPDEST PUSH0 PUSH2 0x3356 DUP4 PUSH2 0x15CA JUMP JUMPDEST SWAP1 POP DUP2 DUP1 ISZERO PUSH2 0x336E JUMPI POP CALLER PUSH1 0x1 PUSH1 0x1 PUSH1 0xA0 SHL SUB DUP3 AND EQ ISZERO JUMPDEST ISZERO PUSH2 0x3391 JUMPI PUSH2 0x337D DUP2 CALLER PUSH2 0x2763 JUMP JUMPDEST PUSH2 0x3391 JUMPI PUSH2 0x3391 PUSH4 0x67D9DCA1 PUSH1 0xE1 SHL PUSH2 0x28F8 JUMP JUMPDEST PUSH0 DUP4 DUP2 MSTORE PUSH1 0x6 PUSH1 0x20 MSTORE PUSH1 0x40 DUP1 DUP3 KECCAK256 DUP1 SLOAD PUSH1 0x1 PUSH1 0x1 PUSH1 0xA0 SHL SUB NOT AND PUSH1 0x1 PUSH1 0x1 PUSH1 0xA0 SHL SUB DUP9 DUP2 AND SWAP2 DUP3 OR SWAP1 SWAP3 SSTORE SWAP2 MLOAD DUP7 SWAP4 SWAP2 DUP6 AND SWAP2 PUSH32 0x8C5BE1E5EBEC7D5BD14F71427D1E84F3DD0314C0F7B2291E5B200AC8C7C3B925 SWAP2 LOG4 POP POP POP POP JUMP JUMPDEST PUSH1 0x1 PUSH1 0x1 PUSH1 0xA0 SHL SUB DUP5 AND ISZERO DUP1 ISZERO SWAP1 PUSH2 0x340D JUMPI POP PUSH1 0x1 PUSH1 0x1 PUSH1 0xA0 SHL SUB DUP4 AND ISZERO ISZERO JUMPDEST ISZERO PUSH2 0x25F3 JUMPI PUSH1 0x9 SLOAD PUSH1 0x1 PUSH1 0x1 PUSH1 0xA0 SHL SUB AND DUP1 ISZERO PUSH2 0x348F JUMPI PUSH1 0x40 MLOAD PUSH4 0x657711F5 PUSH1 0xE1 SHL DUP2 MSTORE CALLER PUSH1 0x4 DUP3 ADD MSTORE PUSH1 0x1 PUSH1 0x1 PUSH1 0xA0 SHL SUB DUP7 DUP2 AND PUSH1 0x24 DUP4 ADD MSTORE DUP6 DUP2 AND PUSH1 0x44 DUP4 ADD MSTORE PUSH1 0x64 DUP3 ADD DUP6 SWAP1 MSTORE DUP3 AND SWAP1 PUSH4 0xCAEE23EA SWAP1 PUSH1 0x84 ADD PUSH0 PUSH1 0x40 MLOAD DUP1 DUP4 SUB DUP2 DUP7 DUP1 EXTCODESIZE ISZERO DUP1 ISZERO PUSH2 0x3478 JUMPI PUSH0 PUSH0 REVERT JUMPDEST POP GAS STATICCALL ISZERO DUP1 ISZERO PUSH2 0x348A JUMPI RETURNDATASIZE PUSH0 PUSH0 RETURNDATACOPY RETURNDATASIZE PUSH0 REVERT JUMPDEST POP POP POP POP JUMPDEST POP POP POP POP POP JUMP JUMPDEST PUSH2 0x34A0 DUP4 DUP4 PUSH2 0x34FC JUMP JUMPDEST PUSH1 0x1 PUSH1 0x1 PUSH1 0xA0 SHL SUB DUP4 AND EXTCODESIZE ISZERO PUSH2 0x10B5 JUMPI PUSH0 SLOAD DUP3 DUP2 SUB JUMPDEST PUSH2 0x34C8 PUSH0 DUP7 DUP4 DUP1 PUSH1 0x1 ADD SWAP5 POP DUP7 PUSH2 0x2FE0 JUMP JUMPDEST PUSH2 0x34DC JUMPI PUSH2 0x34DC PUSH4 0x68D2BF6B PUSH1 0xE1 SHL PUSH2 0x28F8 JUMP JUMPDEST DUP2 DUP2 LT PUSH2 0x34B6 JUMPI DUP2 PUSH0 SLOAD EQ PUSH2 0x348F JUMPI PUSH0 PUSH0 REVERT JUMPDEST PUSH1 0x60 PUSH2 0xC0A DUP3 PUSH0 PUSH0 PUSH2 0x356C JUMP JUMPDEST PUSH1 0x18 SLOAD PUSH1 0x1 PUSH1 0xA0 SHL SWAP1 DIV PUSH1 0xFF AND ISZERO PUSH2 0x354F JUMPI PUSH1 0x40 MLOAD PUSH3 0x461BCD PUSH1 0xE5 SHL DUP2 MSTORE PUSH1 0x20 PUSH1 0x4 DUP3 ADD MSTORE PUSH1 0x16 PUSH1 0x24 DUP3 ADD MSTORE PUSH22 0x26B4B73A1034B99031B637B9B2B2103337B932BB32B9 PUSH1 0x51 SHL PUSH1 0x44 DUP3 ADD MSTORE PUSH1 0x64 ADD PUSH2 0x1158 JUMP JUMPDEST PUSH2 0x3558 DUP2 PUSH2 0x2BF2 JUMP JUMPDEST PUSH2 0x3562 DUP3 DUP3 PUSH2 0x3650 JUMP JUMPDEST PUSH2 0xD07 DUP3 DUP3 PUSH2 0x3697 JUMP JUMPDEST PUSH1 0x60 DUP4 MLOAD DUP1 ISZERO PUSH2 0x15B0 JUMPI PUSH1 0x3 PUSH1 0x2 DUP3 ADD DIV PUSH1 0x2 SHL PUSH1 0x40 MLOAD SWAP3 POP PUSH32 0x4142434445464748494A4B4C4D4E4F505152535455565758595A616263646566 PUSH1 0x1F MSTORE PUSH2 0x670 DUP6 ISZERO MUL PUSH32 0x6768696A6B6C6D6E6F707172737475767778797A303132333435363738392D5F XOR PUSH1 0x3F MSTORE PUSH1 0x20 DUP4 ADD DUP2 DUP2 ADD JUMPDEST PUSH1 0x3 DUP9 ADD SWAP8 POP DUP8 MLOAD PUSH1 0x3F DUP2 PUSH1 0x12 SHR AND MLOAD PUSH0 MSTORE8 PUSH1 0x3F DUP2 PUSH1 0xC SHR AND MLOAD PUSH1 0x1 MSTORE8 PUSH1 0x3F DUP2 PUSH1 0x6 SHR AND MLOAD PUSH1 0x2 MSTORE8 PUSH1 0x3F DUP2 AND MLOAD PUSH1 0x3 MSTORE8 POP PUSH0 MLOAD DUP3 MSTORE PUSH1 0x4 DUP3 ADD SWAP2 POP DUP1 DUP3 LT PUSH2 0x35DC JUMPI PUSH1 0x20 ADD PUSH1 0x40 MSTORE PUSH2 0x3D3D PUSH1 0xF0 SHL PUSH1 0x3 DUP5 MOD PUSH1 0x2 DIV DUP1 DUP4 SUB SWAP2 SWAP1 SWAP2 MSTORE PUSH0 DUP7 ISZERO ISZERO SWAP1 SWAP2 MUL SWAP2 DUP3 SWAP1 SUB MSTORE SWAP1 SUB DUP3 MSTORE POP SWAP4 SWAP3 POP POP POP JUMP JUMPDEST PUSH0 PUSH2 0x3659 PUSH2 0xDD1 JUMP JUMPDEST SWAP1 POP DUP1 JUMPDEST PUSH2 0x3667 DUP4 DUP4 PUSH2 0x4620 JUMP JUMPDEST DUP2 LT ISZERO PUSH2 0x25F3 JUMPI PUSH2 0x368F PUSH2 0x367C DUP3 PUSH1 0x1 PUSH2 0x4620 JUMP JUMPDEST DUP3 PUSH1 0xC SLOAD PUSH2 0x368A SWAP2 SWAP1 PUSH2 0x4417 JUMP JUMPDEST PUSH2 0x375D JUMP JUMPDEST PUSH1 0x1 ADD PUSH2 0x365D JUMP JUMPDEST PUSH0 DUP1 SLOAD SWAP1 DUP3 SWAP1 SUB PUSH2 0x36B2 JUMPI PUSH2 0x36B2 PUSH4 0xB562E8DD PUSH1 0xE0 SHL PUSH2 0x28F8 JUMP JUMPDEST PUSH2 0x36BE PUSH0 DUP5 DUP4 DUP6 PUSH2 0x2A6A JUMP JUMPDEST PUSH0 DUP2 DUP2 MSTORE PUSH1 0x4 PUSH1 0x20 SWAP1 DUP2 MSTORE PUSH1 0x40 DUP1 DUP4 KECCAK256 PUSH1 0x1 PUSH1 0x1 PUSH1 0xA0 SHL SUB DUP8 AND TIMESTAMP PUSH1 0xA0 SHL PUSH1 0x1 DUP9 EQ PUSH1 0xE1 SHL OR DUP2 OR SWAP1 SWAP2 SSTORE DUP1 DUP5 MSTORE PUSH1 0x5 SWAP1 SWAP3 MSTORE DUP3 KECCAK256 DUP1 SLOAD PUSH9 0x10000000000000001 DUP7 MUL ADD SWAP1 SSTORE SWAP1 DUP2 SWAP1 SUB PUSH2 0x371B JUMPI PUSH2 0x371B PUSH3 0x2E0763 PUSH1 0xE8 SHL PUSH2 0x28F8 JUMP JUMPDEST DUP2 DUP4 ADD DUP3 JUMPDEST DUP1 DUP4 PUSH0 PUSH32 0xDDF252AD1BE2C89B69C2B068FC378DAA952BA7F163C4A11628F55A4DF523B3EF PUSH0 PUSH0 LOG4 DUP2 DUP2 PUSH1 0x1 ADD SWAP2 POP DUP2 SUB PUSH2 0x3720 JUMPI POP PUSH0 SSTORE POP POP POP POP JUMP JUMPDEST PUSH0 DUP2 GT PUSH2 0x37A4 JUMPI PUSH1 0x40 MLOAD PUSH3 0x461BCD PUSH1 0xE5 SHL DUP2 MSTORE PUSH1 0x20 PUSH1 0x4 DUP3 ADD MSTORE PUSH1 0x15 PUSH1 0x24 DUP3 ADD MSTORE PUSH21 0x4E6F2072656D61696E696E6720656C656D656E7473 PUSH1 0x58 SHL PUSH1 0x44 DUP3 ADD MSTORE PUSH1 0x64 ADD PUSH2 0x1158 JUMP JUMPDEST PUSH0 PUSH2 0x37B2 PUSH1 0x17 SLOAD CALLER DUP5 PUSH2 0x381D JUMP JUMPDEST SWAP1 POP PUSH1 0x40 MLOAD DUP1 PUSH1 0x40 ADD PUSH1 0x40 MSTORE DUP1 DUP3 PUSH4 0xFFFFFFFF AND DUP2 MSTORE PUSH1 0x20 ADD PUSH2 0x37D3 PUSH2 0x1462 JUMP JUMPDEST PUSH4 0xFFFFFFFF SWAP1 DUP2 AND SWAP1 SWAP2 MSTORE PUSH0 SWAP5 DUP6 MSTORE PUSH1 0x19 PUSH1 0x20 SWAP1 DUP2 MSTORE PUSH1 0x40 SWAP1 SWAP6 KECCAK256 DUP3 MLOAD DUP2 SLOAD SWAP4 SWAP1 SWAP7 ADD MLOAD DUP3 AND PUSH5 0x100000000 MUL PUSH8 0xFFFFFFFFFFFFFFFF NOT SWAP1 SWAP4 AND SWAP6 SWAP1 SWAP2 AND SWAP5 SWAP1 SWAP5 OR OR SWAP1 SWAP3 SSTORE POP POP JUMP JUMPDEST PUSH1 0x40 DUP1 MLOAD PUSH1 0x20 DUP2 ADD DUP6 SWAP1 MSTORE PUSH12 0xFFFFFFFFFFFFFFFFFFFFFFFF NOT PUSH1 0x60 DUP6 SWAP1 SHL AND SWAP2 DUP2 ADD SWAP2 SWAP1 SWAP2 MSTORE PUSH1 0x54 DUP2 ADD DUP3 SWAP1 MSTORE TIMESTAMP PUSH1 0x74 DUP3 ADD MSTORE PREVRANDAO PUSH1 0x94 DUP3 ADD MSTORE NUMBER PUSH1 0xB4 DUP3 ADD MSTORE PUSH0 SWAP1 DUP2 SWAP1 DUP4 SWAP1 PUSH1 0xD4 ADD PUSH1 0x40 MLOAD PUSH1 0x20 DUP2 DUP4 SUB SUB DUP2 MSTORE SWAP1 PUSH1 0x40 MSTORE DUP1 MLOAD SWAP1 PUSH1 0x20 ADD KECCAK256 PUSH0 SHR PUSH2 0x3887 SWAP2 SWAP1 PUSH2 0x4DDB JUMP JUMPDEST PUSH0 DUP2 DUP2 MSTORE PUSH1 0x15 PUSH1 0x20 MSTORE PUSH1 0x40 DUP1 DUP3 KECCAK256 SLOAD PUSH0 NOT DUP8 ADD DUP1 DUP5 MSTORE SWAP2 SWAP1 SWAP3 KECCAK256 SLOAD SWAP3 SWAP4 POP SWAP2 DUP2 ISZERO PUSH2 0x38B2 JUMPI DUP2 PUSH2 0x38B4 JUMP JUMPDEST DUP4 JUMPDEST SWAP5 POP DUP1 ISZERO PUSH2 0x38C2 JUMPI DUP1 PUSH2 0x38C4 JUMP JUMPDEST DUP3 JUMPDEST PUSH0 SWAP5 DUP6 MSTORE PUSH1 0x15 PUSH1 0x20 MSTORE PUSH1 0x40 SWAP1 SWAP5 KECCAK256 SWAP4 SWAP1 SWAP4 SSTORE POP POP POP SWAP4 SWAP3 POP POP POP JUMP JUMPDEST DUP3 DUP1 SLOAD DUP3 DUP3 SSTORE SWAP1 PUSH0 MSTORE PUSH1 0x20 PUSH0 KECCAK256 SWAP1 DUP2 ADD SWAP3 DUP3 ISZERO PUSH2 0x3931 JUMPI SWAP2 PUSH1 0x20 MUL DUP3 ADD JUMPDEST DUP3 DUP2 GT ISZERO PUSH2 0x3931 JUMPI DUP2 SLOAD PUSH1 0x1 PUSH1 0x1 PUSH1 0xA0 SHL SUB NOT AND PUSH1 0x1 PUSH1 0x1 PUSH1 0xA0 SHL SUB DUP5 CALLDATALOAD AND OR DUP3 SSTORE PUSH1 0x20 SWAP1 SWAP3 ADD SWAP2 PUSH1 0x1 SWAP1 SWAP2 ADD SWAP1 PUSH2 0x38FE JUMP JUMPDEST POP PUSH2 0x393D SWAP3 SWAP2 POP PUSH2 0x3941 JUMP JUMPDEST POP SWAP1 JUMP JUMPDEST JUMPDEST DUP1 DUP3 GT ISZERO PUSH2 0x393D JUMPI PUSH0 DUP2 SSTORE PUSH1 0x1 ADD PUSH2 0x3942 JUMP JUMPDEST PUSH1 0x1 PUSH1 0x1 PUSH1 0xE0 SHL SUB NOT DUP2 AND DUP2 EQ PUSH2 0x10C5 JUMPI PUSH0 PUSH0 REVERT JUMPDEST PUSH0 PUSH1 0x20 DUP3 DUP5 SUB SLT ISZERO PUSH2 0x397A JUMPI PUSH0 PUSH0 REVERT JUMPDEST DUP2 CALLDATALOAD PUSH2 0x2547 DUP2 PUSH2 0x3955 JUMP JUMPDEST PUSH0 DUP2 MLOAD DUP1 DUP5 MSTORE DUP1 PUSH1 0x20 DUP5 ADD PUSH1 0x20 DUP7 ADD MCOPY PUSH0 PUSH1 0x20 DUP3 DUP7 ADD ADD MSTORE PUSH1 0x20 PUSH1 0x1F NOT PUSH1 0x1F DUP4 ADD AND DUP6 ADD ADD SWAP2 POP POP SWAP3 SWAP2 POP POP JUMP JUMPDEST PUSH1 0x20 DUP2 MSTORE PUSH0 PUSH2 0x2547 PUSH1 0x20 DUP4 ADD DUP5 PUSH2 0x3985 JUMP JUMPDEST PUSH0 PUSH1 0x20 DUP3 DUP5 SUB SLT ISZERO PUSH2 0x39D5 JUMPI PUSH0 PUSH0 REVERT JUMPDEST POP CALLDATALOAD SWAP2 SWAP1 POP JUMP JUMPDEST PUSH1 0x1 PUSH1 0x1 PUSH1 0xA0 SHL SUB DUP2 AND DUP2 EQ PUSH2 0x10C5 JUMPI PUSH0 PUSH0 REVERT JUMPDEST PUSH0 PUSH0 PUSH1 0x40 DUP4 DUP6 SUB SLT ISZERO PUSH2 0x3A01 JUMPI PUSH0 PUSH0 REVERT JUMPDEST DUP3 CALLDATALOAD PUSH2 0x3A0C DUP2 PUSH2 0x39DC JUMP JUMPDEST SWAP5 PUSH1 0x20 SWAP4 SWAP1 SWAP4 ADD CALLDATALOAD SWAP4 POP POP POP JUMP JUMPDEST DUP1 CALLDATALOAD DUP1 ISZERO ISZERO DUP2 EQ PUSH2 0x2654 JUMPI PUSH0 PUSH0 REVERT JUMPDEST PUSH0 PUSH1 0x20 DUP3 DUP5 SUB SLT ISZERO PUSH2 0x3A39 JUMPI PUSH0 PUSH0 REVERT JUMPDEST PUSH2 0x2547 DUP3 PUSH2 0x3A1A JUMP JUMPDEST PUSH0 PUSH0 DUP3 DUP5 SUB PUSH1 0xE0 DUP2 SLT ISZERO PUSH2 0x3A54 JUMPI PUSH0 PUSH0 REVERT JUMPDEST DUP4 CALLDATALOAD PUSH2 0x3A5F DUP2 PUSH2 0x39DC JUMP JUMPDEST SWAP3 POP PUSH1 0xC0 PUSH1 0x1F NOT DUP3 ADD SLT ISZERO PUSH2 0x3A72 JUMPI PUSH0 PUSH0 REVERT JUMPDEST POP PUSH1 0x20 DUP4 ADD SWAP1 POP SWAP3 POP SWAP3 SWAP1 POP JUMP JUMPDEST PUSH0 PUSH0 PUSH0 PUSH1 0x60 DUP5 DUP7 SUB SLT ISZERO PUSH2 0x3A92 JUMPI PUSH0 PUSH0 REVERT JUMPDEST DUP4 CALLDATALOAD PUSH2 0x3A9D DUP2 PUSH2 0x39DC JUMP JUMPDEST SWAP3 POP PUSH1 0x20 DUP5 ADD CALLDATALOAD PUSH2 0x3AAD DUP2 PUSH2 0x39DC JUMP JUMPDEST SWAP3 SWAP6 SWAP3 SWAP5 POP POP POP PUSH1 0x40 SWAP2 SWAP1 SWAP2 ADD CALLDATALOAD SWAP1 JUMP JUMPDEST PUSH0 PUSH0 PUSH1 0x40 DUP4 DUP6 SUB SLT ISZERO PUSH2 0x3ACF JUMPI PUSH0 PUSH0 REVERT JUMPDEST POP POP DUP1 CALLDATALOAD SWAP3 PUSH1 0x20 SWAP1 SWAP2 ADD CALLDATALOAD SWAP2 POP JUMP JUMPDEST PUSH0 PUSH0 PUSH1 0x40 DUP4 DUP6 SUB SLT ISZERO PUSH2 0x3AEF JUMPI PUSH0 PUSH0 REVERT JUMPDEST DUP3 CALLDATALOAD PUSH2 0x3AFA DUP2 PUSH2 0x39DC JUMP JUMPDEST SWAP2 POP PUSH1 0x20 DUP4 ADD CALLDATALOAD PUSH1 0x1 PUSH1 0x1 PUSH1 0x40 SHL SUB DUP2 GT ISZERO PUSH2 0x3B14 JUMPI PUSH0 PUSH0 REVERT JUMPDEST DUP4 ADD PUSH1 0x60 DUP2 DUP7 SUB SLT ISZERO PUSH2 0x3B25 JUMPI PUSH0 PUSH0 REVERT JUMPDEST DUP1 SWAP2 POP POP SWAP3 POP SWAP3 SWAP1 POP JUMP JUMPDEST PUSH0 PUSH1 0x40 DUP3 DUP5 SUB SLT DUP1 ISZERO PUSH2 0x3B41 JUMPI PUSH0 PUSH0 REVERT JUMPDEST POP SWAP1 SWAP3 SWAP2 POP POP JUMP JUMPDEST PUSH0 PUSH0 PUSH0 PUSH1 0x60 DUP5 DUP7 SUB SLT ISZERO PUSH2 0x3B5B JUMPI PUSH0 PUSH0 REVERT JUMPDEST DUP4 CALLDATALOAD PUSH2 0x3B66 DUP2 PUSH2 0x39DC JUMP JUMPDEST SWAP3 POP PUSH1 0x20 DUP5 ADD CALLDATALOAD PUSH2 0x3B76 DUP2 PUSH2 0x39DC JUMP JUMPDEST SWAP2 POP PUSH2 0x3B84 PUSH1 0x40 DUP6 ADD PUSH2 0x3A1A JUMP JUMPDEST SWAP1 POP SWAP3 POP SWAP3 POP SWAP3 JUMP JUMPDEST PUSH4 0x4E487B71 PUSH1 0xE0 SHL PUSH0 MSTORE PUSH1 0x41 PUSH1 0x4 MSTORE PUSH1 0x24 PUSH0 REVERT JUMPDEST PUSH1 0x40 MLOAD PUSH1 0xE0 DUP2 ADD PUSH1 0x1 PUSH1 0x1 PUSH1 0x40 SHL SUB DUP2 GT DUP3 DUP3 LT OR ISZERO PUSH2 0x3BC3 JUMPI PUSH2 0x3BC3 PUSH2 0x3B8D JUMP JUMPDEST PUSH1 0x40 MSTORE SWAP1 JUMP JUMPDEST PUSH1 0x40 MLOAD PUSH1 0x1F DUP3 ADD PUSH1 0x1F NOT AND DUP2 ADD PUSH1 0x1 PUSH1 0x1 PUSH1 0x40 SHL SUB DUP2 GT DUP3 DUP3 LT OR ISZERO PUSH2 0x3BF1 JUMPI PUSH2 0x3BF1 PUSH2 0x3B8D JUMP JUMPDEST PUSH1 0x40 MSTORE SWAP2 SWAP1 POP JUMP JUMPDEST DUP1 CALLDATALOAD PUSH1 0x1 PUSH1 0x1 PUSH1 0x50 SHL SUB DUP2 AND DUP2 EQ PUSH2 0x2654 JUMPI PUSH0 PUSH0 REVERT JUMPDEST DUP1 CALLDATALOAD PUSH3 0xFFFFFF DUP2 AND DUP2 EQ PUSH2 0x2654 JUMPI PUSH0 PUSH0 REVERT JUMPDEST DUP1 CALLDATALOAD PUSH5 0xFFFFFFFFFF DUP2 AND DUP2 EQ PUSH2 0x2654 JUMPI PUSH0 PUSH0 REVERT JUMPDEST DUP1 CALLDATALOAD PUSH2 0xFFFF DUP2 AND DUP2 EQ PUSH2 0x2654 JUMPI PUSH0 PUSH0 REVERT JUMPDEST PUSH0 PUSH0 PUSH0 DUP4 DUP6 SUB PUSH2 0x120 DUP2 SLT ISZERO PUSH2 0x3C5A JUMPI PUSH0 PUSH0 REVERT JUMPDEST DUP5 CALLDATALOAD PUSH2 0x3C65 DUP2 PUSH2 0x39DC JUMP JUMPDEST SWAP4 POP PUSH1 0x20 DUP6 ADD CALLDATALOAD PUSH2 0x3C75 DUP2 PUSH2 0x39DC JUMP JUMPDEST SWAP3 POP PUSH1 0xE0 PUSH1 0x3F NOT DUP3 ADD SLT ISZERO PUSH2 0x3C88 JUMPI PUSH0 PUSH0 REVERT JUMPDEST POP PUSH2 0x3C91 PUSH2 0x3BA1 JUMP JUMPDEST PUSH2 0x3C9D PUSH1 0x40 DUP7 ADD PUSH2 0x3BF9 JUMP JUMPDEST DUP2 MSTORE PUSH2 0x3CAB PUSH1 0x60 DUP7 ADD PUSH2 0x3C0F JUMP JUMPDEST PUSH1 0x20 DUP3 ADD MSTORE PUSH2 0x3CBC PUSH1 0x80 DUP7 ADD PUSH2 0x3C21 JUMP JUMPDEST PUSH1 0x40 DUP3 ADD MSTORE PUSH2 0x3CCD PUSH1 0xA0 DUP7 ADD PUSH2 0x3C21 JUMP JUMPDEST PUSH1 0x60 DUP3 ADD MSTORE PUSH2 0x3CDE PUSH1 0xC0 DUP7 ADD PUSH2 0x3C21 JUMP JUMPDEST PUSH1 0x80 DUP3 ADD MSTORE PUSH2 0x3CEF PUSH1 0xE0 DUP7 ADD PUSH2 0x3C35 JUMP JUMPDEST PUSH1 0xA0 DUP3 ADD MSTORE PUSH2 0x3D01 PUSH2 0x100 DUP7 ADD PUSH2 0x3C35 JUMP JUMPDEST PUSH1 0xC0 DUP3 ADD MSTORE DUP1 SWAP2 POP POP SWAP3 POP SWAP3 POP SWAP3 JUMP JUMPDEST PUSH0 PUSH0 DUP4 PUSH1 0x1F DUP5 ADD SLT PUSH2 0x3D21 JUMPI PUSH0 PUSH0 REVERT JUMPDEST POP DUP2 CALLDATALOAD PUSH1 0x1 PUSH1 0x1 PUSH1 0x40 SHL SUB DUP2 GT ISZERO PUSH2 0x3D37 JUMPI PUSH0 PUSH0 REVERT JUMPDEST PUSH1 0x20 DUP4 ADD SWAP2 POP DUP4 PUSH1 0x20 DUP3 DUP6 ADD ADD GT ISZERO PUSH2 0x3D4E JUMPI PUSH0 PUSH0 REVERT JUMPDEST SWAP3 POP SWAP3 SWAP1 POP JUMP JUMPDEST PUSH0 PUSH0 PUSH1 0x20 DUP4 DUP6 SUB SLT ISZERO PUSH2 0x3D66 JUMPI PUSH0 PUSH0 REVERT JUMPDEST DUP3 CALLDATALOAD PUSH1 0x1 PUSH1 0x1 PUSH1 0x40 SHL SUB DUP2 GT ISZERO PUSH2 0x3D7B JUMPI PUSH0 PUSH0 REVERT JUMPDEST PUSH2 0x3D87 DUP6 DUP3 DUP7 ADD PUSH2 0x3D11 JUMP JUMPDEST SWAP1 SWAP7 SWAP1 SWAP6 POP SWAP4 POP POP POP POP JUMP JUMPDEST PUSH0 PUSH1 0x20 DUP3 DUP5 SUB SLT ISZERO PUSH2 0x3DA3 JUMPI PUSH0 PUSH0 REVERT JUMPDEST DUP2 CALLDATALOAD PUSH2 0x2547 DUP2 PUSH2 0x39DC JUMP JUMPDEST PUSH0 PUSH0 DUP4 PUSH1 0x1F DUP5 ADD SLT PUSH2 0x3DBE JUMPI PUSH0 PUSH0 REVERT JUMPDEST POP DUP2 CALLDATALOAD PUSH1 0x1 PUSH1 0x1 PUSH1 0x40 SHL SUB DUP2 GT ISZERO PUSH2 0x3DD4 JUMPI PUSH0 PUSH0 REVERT JUMPDEST PUSH1 0x20 DUP4 ADD SWAP2 POP DUP4 PUSH1 0x20 DUP3 PUSH1 0x5 SHL DUP6 ADD ADD GT ISZERO PUSH2 0x3D4E JUMPI PUSH0 PUSH0 REVERT JUMPDEST PUSH0 PUSH0 PUSH1 0x20 DUP4 DUP6 SUB SLT ISZERO PUSH2 0x3DFF JUMPI PUSH0 PUSH0 REVERT JUMPDEST DUP3 CALLDATALOAD PUSH1 0x1 PUSH1 0x1 PUSH1 0x40 SHL SUB DUP2 GT ISZERO PUSH2 0x3E14 JUMPI PUSH0 PUSH0 REVERT JUMPDEST PUSH2 0x3D87 DUP6 DUP3 DUP7 ADD PUSH2 0x3DAE JUMP JUMPDEST DUP1 MLOAD PUSH1 0x1 PUSH1 0x1 PUSH1 0xA0 SHL SUB AND DUP3 MSTORE PUSH1 0x20 DUP1 DUP3 ADD MLOAD PUSH1 0x1 PUSH1 0x1 PUSH1 0x40 SHL SUB AND SWAP1 DUP4 ADD MSTORE PUSH1 0x40 DUP1 DUP3 ADD MLOAD ISZERO ISZERO SWAP1 DUP4 ADD MSTORE PUSH1 0x60 SWAP1 DUP2 ADD MLOAD PUSH3 0xFFFFFF AND SWAP2 ADD MSTORE JUMP JUMPDEST PUSH1 0x20 DUP1 DUP3 MSTORE DUP3 MLOAD DUP3 DUP3 ADD DUP2 SWAP1 MSTORE PUSH0 SWAP2 DUP5 ADD SWAP1 PUSH1 0x40 DUP5 ADD SWAP1 DUP4 JUMPDEST DUP2 DUP2 LT ISZERO PUSH2 0x3E9E JUMPI PUSH2 0x3E88 DUP4 DUP6 MLOAD PUSH2 0x3E20 JUMP JUMPDEST PUSH1 0x20 SWAP4 SWAP1 SWAP4 ADD SWAP3 PUSH1 0x80 SWAP3 SWAP1 SWAP3 ADD SWAP2 PUSH1 0x1 ADD PUSH2 0x3E75 JUMP JUMPDEST POP SWAP1 SWAP6 SWAP5 POP POP POP POP POP JUMP JUMPDEST PUSH0 PUSH0 PUSH1 0x40 DUP4 DUP6 SUB SLT ISZERO PUSH2 0x3EBA JUMPI PUSH0 PUSH0 REVERT JUMPDEST DUP3 CALLDATALOAD PUSH2 0x3EC5 DUP2 PUSH2 0x39DC JUMP JUMPDEST SWAP2 POP PUSH1 0x20 DUP4 ADD CALLDATALOAD PUSH2 0x3B25 DUP2 PUSH2 0x39DC JUMP JUMPDEST PUSH0 PUSH0 PUSH0 PUSH1 0x40 DUP5 DUP7 SUB SLT ISZERO PUSH2 0x3EE7 JUMPI PUSH0 PUSH0 REVERT JUMPDEST DUP4 CALLDATALOAD PUSH2 0x3EF2 DUP2 PUSH2 0x39DC JUMP JUMPDEST SWAP3 POP PUSH1 0x20 DUP5 ADD CALLDATALOAD PUSH1 0x1 PUSH1 0x1 PUSH1 0x40 SHL SUB DUP2 GT ISZERO PUSH2 0x3F0C JUMPI PUSH0 PUSH0 REVERT JUMPDEST PUSH2 0x3F18 DUP7 DUP3 DUP8 ADD PUSH2 0x3D11 JUMP JUMPDEST SWAP5 SWAP8 SWAP1 SWAP7 POP SWAP4 SWAP5 POP POP POP POP JUMP JUMPDEST PUSH0 PUSH0 PUSH0 DUP4 DUP6 SUB PUSH2 0x140 DUP2 SLT ISZERO PUSH2 0x3F39 JUMPI PUSH0 PUSH0 REVERT JUMPDEST DUP5 CALLDATALOAD PUSH2 0x3F44 DUP2 PUSH2 0x39DC JUMP JUMPDEST SWAP4 POP PUSH1 0x20 DUP6 ADD CALLDATALOAD PUSH2 0x3F54 DUP2 PUSH2 0x39DC JUMP JUMPDEST SWAP3 POP PUSH2 0x100 PUSH1 0x3F NOT DUP3 ADD SLT ISZERO PUSH2 0x3F68 JUMPI PUSH0 PUSH0 REVERT JUMPDEST POP PUSH1 0x40 DUP5 ADD SWAP1 POP SWAP3 POP SWAP3 POP SWAP3 JUMP JUMPDEST PUSH1 0x20 DUP1 DUP3 MSTORE DUP3 MLOAD DUP3 DUP3 ADD DUP2 SWAP1 MSTORE PUSH0 SWAP2 DUP5 ADD SWAP1 PUSH1 0x40 DUP5 ADD SWAP1 DUP4 JUMPDEST DUP2 DUP2 LT ISZERO PUSH2 0x3E9E JUMPI DUP4 MLOAD DUP4 MSTORE PUSH1 0x20 SWAP4 DUP5 ADD SWAP4 SWAP1 SWAP3 ADD SWAP2 PUSH1 0x1 ADD PUSH2 0x3F8F JUMP JUMPDEST PUSH0 PUSH1 0x20 DUP3 DUP5 SUB SLT ISZERO PUSH2 0x3FBD JUMPI PUSH0 PUSH0 REVERT JUMPDEST DUP2 CALLDATALOAD PUSH1 0x1 PUSH1 0x1 PUSH1 0x40 SHL SUB DUP2 GT ISZERO PUSH2 0x3FD2 JUMPI PUSH0 PUSH0 REVERT JUMPDEST DUP3 ADD PUSH2 0x300 DUP2 DUP6 SUB SLT ISZERO PUSH2 0x2547 JUMPI PUSH0 PUSH0 REVERT JUMPDEST PUSH0 PUSH0 PUSH0 PUSH1 0x60 DUP5 DUP7 SUB SLT ISZERO PUSH2 0x3FF6 JUMPI PUSH0 PUSH0 REVERT JUMPDEST DUP4 CALLDATALOAD PUSH2 0x4001 DUP2 PUSH2 0x39DC JUMP JUMPDEST SWAP6 PUSH1 0x20 DUP6 ADD CALLDATALOAD SWAP6 POP PUSH1 0x40 SWAP1 SWAP5 ADD CALLDATALOAD SWAP4 SWAP3 POP POP POP JUMP JUMPDEST PUSH0 PUSH0 PUSH1 0x40 DUP4 DUP6 SUB SLT ISZERO PUSH2 0x4027 JUMPI PUSH0 PUSH0 REVERT JUMPDEST DUP3 CALLDATALOAD PUSH2 0x4032 DUP2 PUSH2 0x39DC JUMP JUMPDEST SWAP2 POP PUSH2 0x4040 PUSH1 0x20 DUP5 ADD PUSH2 0x3A1A JUMP JUMPDEST SWAP1 POP SWAP3 POP SWAP3 SWAP1 POP JUMP JUMPDEST PUSH0 PUSH1 0x1 PUSH1 0x1 PUSH1 0x40 SHL SUB DUP3 GT ISZERO PUSH2 0x4061 JUMPI PUSH2 0x4061 PUSH2 0x3B8D JUMP JUMPDEST POP PUSH1 0x1F ADD PUSH1 0x1F NOT AND PUSH1 0x20 ADD SWAP1 JUMP JUMPDEST PUSH0 PUSH0 PUSH0 PUSH0 PUSH1 0x80 DUP6 DUP8 SUB SLT ISZERO PUSH2 0x4082 JUMPI PUSH0 PUSH0 REVERT JUMPDEST DUP5 CALLDATALOAD PUSH2 0x408D DUP2 PUSH2 0x39DC JUMP JUMPDEST SWAP4 POP PUSH1 0x20 DUP6 ADD CALLDATALOAD PUSH2 0x409D DUP2 PUSH2 0x39DC JUMP JUMPDEST SWAP3 POP PUSH1 0x40 DUP6 ADD CALLDATALOAD SWAP2 POP PUSH1 0x60 DUP6 ADD CALLDATALOAD PUSH1 0x1 PUSH1 0x1 PUSH1 0x40 SHL SUB DUP2 GT ISZERO PUSH2 0x40BE JUMPI PUSH0 PUSH0 REVERT JUMPDEST DUP6 ADD PUSH1 0x1F DUP2 ADD DUP8 SGT PUSH2 0x40CE JUMPI PUSH0 PUSH0 REVERT JUMPDEST DUP1 CALLDATALOAD PUSH2 0x40E1 PUSH2 0x40DC DUP3 PUSH2 0x4049 JUMP JUMPDEST PUSH2 0x3BC9 JUMP JUMPDEST DUP2 DUP2 MSTORE DUP9 PUSH1 0x20 DUP4 DUP6 ADD ADD GT ISZERO PUSH2 0x40F5 JUMPI PUSH0 PUSH0 REVERT JUMPDEST DUP2 PUSH1 0x20 DUP5 ADD PUSH1 0x20 DUP4 ADD CALLDATACOPY PUSH0 PUSH1 0x20 DUP4 DUP4 ADD ADD MSTORE DUP1 SWAP4 POP POP POP POP SWAP3 SWAP6 SWAP2 SWAP5 POP SWAP3 POP JUMP JUMPDEST PUSH1 0x80 DUP2 ADD PUSH2 0xC0A DUP3 DUP5 PUSH2 0x3E20 JUMP JUMPDEST PUSH1 0x1 DUP2 DUP2 SHR SWAP1 DUP3 AND DUP1 PUSH2 0x4138 JUMPI PUSH1 0x7F DUP3 AND SWAP2 POP JUMPDEST PUSH1 0x20 DUP3 LT DUP2 SUB PUSH2 0x2707 JUMPI PUSH4 0x4E487B71 PUSH1 0xE0 SHL PUSH0 MSTORE PUSH1 0x22 PUSH1 0x4 MSTORE PUSH1 0x24 PUSH0 REVERT JUMPDEST DUP1 CALLDATALOAD PUSH6 0xFFFFFFFFFFFF DUP2 AND DUP2 EQ PUSH2 0x2654 JUMPI PUSH0 PUSH0 REVERT JUMPDEST PUSH1 0x1 PUSH1 0x1 PUSH1 0x50 SHL SUB PUSH2 0x417C DUP3 PUSH2 0x3BF9 JUMP JUMPDEST AND DUP3 MSTORE PUSH6 0xFFFFFFFFFFFF PUSH2 0x4192 PUSH1 0x20 DUP4 ADD PUSH2 0x4156 JUMP JUMPDEST AND PUSH1 0x20 DUP4 ADD MSTORE PUSH6 0xFFFFFFFFFFFF PUSH2 0x41AB PUSH1 0x40 DUP4 ADD PUSH2 0x4156 JUMP JUMPDEST AND PUSH1 0x40 DUP4 ADD MSTORE PUSH2 0xFFFF PUSH2 0x41C0 PUSH1 0x60 DUP4 ADD PUSH2 0x3C35 JUMP JUMPDEST AND PUSH1 0x60 DUP4 ADD MSTORE PUSH2 0xFFFF PUSH2 0x41D5 PUSH1 0x80 DUP4 ADD PUSH2 0x3C35 JUMP JUMPDEST AND PUSH1 0x80 DUP4 ADD MSTORE PUSH2 0x41E7 PUSH1 0xA0 DUP3 ADD PUSH2 0x3A1A JUMP JUMPDEST ISZERO ISZERO PUSH1 0xA0 DUP4 ADD MSTORE POP POP JUMP JUMPDEST PUSH1 0xC0 DUP2 ADD PUSH2 0xC0A DUP3 DUP5 PUSH2 0x416B JUMP JUMPDEST PUSH4 0x4E487B71 PUSH1 0xE0 SHL PUSH0 MSTORE PUSH1 0x11 PUSH1 0x4 MSTORE PUSH1 0x24 PUSH0 REVERT JUMPDEST DUP1 DUP3 MUL DUP2 ISZERO DUP3 DUP3 DIV DUP5 EQ OR PUSH2 0xC0A JUMPI PUSH2 0xC0A PUSH2 0x4200 JUMP JUMPDEST PUSH4 0x4E487B71 PUSH1 0xE0 SHL PUSH0 MSTORE PUSH1 0x12 PUSH1 0x4 MSTORE PUSH1 0x24 PUSH0 REVERT JUMPDEST PUSH0 DUP3 PUSH2 0x424D JUMPI PUSH2 0x424D PUSH2 0x422B JUMP JUMPDEST POP DIV SWAP1 JUMP JUMPDEST DUP2 DUP4 MSTORE DUP2 DUP2 PUSH1 0x20 DUP6 ADD CALLDATACOPY POP PUSH0 DUP3 DUP3 ADD PUSH1 0x20 SWAP1 DUP2 ADD SWAP2 SWAP1 SWAP2 MSTORE PUSH1 0x1F SWAP1 SWAP2 ADD PUSH1 0x1F NOT AND SWAP1 SWAP2 ADD ADD SWAP1 JUMP JUMPDEST PUSH0 PUSH0 DUP4 CALLDATALOAD PUSH1 0x1E NOT DUP5 CALLDATASIZE SUB ADD DUP2 SLT PUSH2 0x428F JUMPI PUSH0 PUSH0 REVERT JUMPDEST DUP4 ADD PUSH1 0x20 DUP2 ADD SWAP3 POP CALLDATALOAD SWAP1 POP PUSH1 0x1 PUSH1 0x1 PUSH1 0x40 SHL SUB DUP2 GT ISZERO PUSH2 0x42AD JUMPI PUSH0 PUSH0 REVERT JUMPDEST DUP1 CALLDATASIZE SUB DUP3 SGT ISZERO PUSH2 0x3D4E JUMPI PUSH0 PUSH0 REVERT JUMPDEST DUP1 CALLDATALOAD DUP3 MSTORE PUSH0 PUSH1 0x60 DUP4 ADD PUSH1 0x20 DUP4 ADD CALLDATALOAD CALLDATASIZE DUP5 SWAP1 SUB PUSH1 0x1E NOT ADD DUP2 SLT PUSH2 0x42DB JUMPI PUSH0 PUSH0 REVERT JUMPDEST DUP4 ADD PUSH1 0x20 DUP2 ADD SWAP1 CALLDATALOAD PUSH1 0x1 PUSH1 0x1 PUSH1 0x40 SHL SUB DUP2 GT ISZERO PUSH2 0x42F6 JUMPI PUSH0 PUSH0 REVERT JUMPDEST DUP1 PUSH1 0x5 SHL DUP1 CALLDATASIZE SUB DUP4 SGT ISZERO PUSH2 0x4308 JUMPI PUSH0 PUSH0 REVERT JUMPDEST PUSH1 0x60 PUSH1 0x20 DUP9 ADD MSTORE SWAP3 DUP2 SWAP1 MSTORE PUSH1 0x80 SWAP3 DUP7 ADD DUP4 ADD SWAP3 DUP3 SWAP1 DUP8 ADD PUSH0 JUMPDEST DUP4 DUP2 LT ISZERO PUSH2 0x435E JUMPI DUP9 DUP7 SUB PUSH1 0x7F NOT ADD DUP3 MSTORE PUSH2 0x433C DUP4 DUP7 PUSH2 0x427A JUMP JUMPDEST PUSH2 0x4347 DUP9 DUP3 DUP5 PUSH2 0x4252 JUMP JUMPDEST SWAP8 POP POP POP PUSH1 0x20 SWAP3 DUP4 ADD SWAP3 SWAP2 SWAP1 SWAP2 ADD SWAP1 PUSH1 0x1 ADD PUSH2 0x4321 JUMP JUMPDEST POP POP POP POP POP PUSH2 0x4370 PUSH1 0x40 DUP5 ADD DUP5 PUSH2 0x427A JUMP JUMPDEST DUP6 DUP4 SUB PUSH1 0x40 DUP8 ADD MSTORE PUSH2 0x4383 DUP4 DUP3 DUP5 PUSH2 0x4252 JUMP JUMPDEST SWAP7 SWAP6 POP POP POP POP POP POP JUMP JUMPDEST PUSH1 0x20 DUP2 MSTORE PUSH0 PUSH2 0x2547 PUSH1 0x20 DUP4 ADD DUP5 PUSH2 0x42BB JUMP JUMPDEST PUSH1 0x1 PUSH1 0x1 PUSH1 0x60 SHL SUB DUP2 AND DUP2 EQ PUSH2 0x10C5 JUMPI PUSH0 PUSH0 REVERT JUMPDEST PUSH0 PUSH1 0x20 DUP3 DUP5 SUB SLT ISZERO PUSH2 0x43C3 JUMPI PUSH0 PUSH0 REVERT JUMPDEST DUP2 CALLDATALOAD PUSH2 0x2547 DUP2 PUSH2 0x439F JUMP JUMPDEST DUP2 CALLDATALOAD PUSH2 0x43D9 DUP2 PUSH2 0x39DC JUMP JUMPDEST DUP2 SLOAD PUSH1 0x1 PUSH1 0x1 PUSH1 0xA0 SHL SUB NOT AND PUSH1 0x1 PUSH1 0x1 PUSH1 0xA0 SHL SUB SWAP2 SWAP1 SWAP2 AND SWAP1 DUP2 OR DUP3 SSTORE PUSH1 0x20 DUP4 ADD CALLDATALOAD PUSH2 0x4404 DUP2 PUSH2 0x439F JUMP JUMPDEST PUSH1 0xA0 SHL PUSH1 0x1 PUSH1 0x1 PUSH1 0xA0 SHL SUB NOT AND OR SWAP1 SSTORE POP JUMP JUMPDEST DUP2 DUP2 SUB DUP2 DUP2 GT ISZERO PUSH2 0xC0A JUMPI PUSH2 0xC0A PUSH2 0x4200 JUMP JUMPDEST PUSH0 DUP2 MLOAD DUP1 PUSH1 0x20 DUP5 ADD DUP6 MCOPY PUSH0 SWAP4 ADD SWAP3 DUP4 MSTORE POP SWAP1 SWAP2 SWAP1 POP JUMP JUMPDEST PUSH32 0x496E76616C6964206261636B67726F756E6420696E6465782C206D7573742062 DUP2 MSTORE PUSH16 0x32903132BA3BB2B2B710181030B7321 PUSH1 0x85 SHL PUSH1 0x20 DUP3 ADD MSTORE PUSH0 PUSH2 0x2547 PUSH1 0x30 DUP4 ADD DUP5 PUSH2 0x442A JUMP JUMPDEST PUSH1 0x1 PUSH1 0x1 PUSH1 0x50 SHL SUB DUP2 MLOAD AND DUP3 MSTORE PUSH3 0xFFFFFF PUSH1 0x20 DUP3 ADD MLOAD AND PUSH1 0x20 DUP4 ADD MSTORE PUSH5 0xFFFFFFFFFF PUSH1 0x40 DUP3 ADD MLOAD AND PUSH1 0x40 DUP4 ADD MSTORE PUSH5 0xFFFFFFFFFF PUSH1 0x60 DUP3 ADD MLOAD AND PUSH1 0x60 DUP4 ADD MSTORE PUSH5 0xFFFFFFFFFF PUSH1 0x80 DUP3 ADD MLOAD AND PUSH1 0x80 DUP4 ADD MSTORE PUSH1 0xA0 DUP2 ADD MLOAD PUSH2 0x44EF PUSH1 0xA0 DUP5 ADD DUP3 PUSH2 0xFFFF AND SWAP1 MSTORE JUMP JUMPDEST POP PUSH1 0xC0 DUP2 ADD MLOAD PUSH2 0x10B5 PUSH1 0xC0 DUP5 ADD DUP3 PUSH2 0xFFFF AND SWAP1 MSTORE JUMP JUMPDEST PUSH1 0x1 PUSH1 0x1 PUSH1 0xA0 SHL SUB DUP4 AND DUP2 MSTORE PUSH2 0x100 DUP2 ADD PUSH2 0x2547 PUSH1 0x20 DUP4 ADD DUP5 PUSH2 0x448B JUMP JUMPDEST PUSH1 0x1F DUP3 GT ISZERO PUSH2 0x10B5 JUMPI DUP1 PUSH0 MSTORE PUSH1 0x20 PUSH0 KECCAK256 PUSH1 0x1F DUP5 ADD PUSH1 0x5 SHR DUP2 ADD PUSH1 0x20 DUP6 LT ISZERO PUSH2 0x4548 JUMPI POP DUP1 JUMPDEST PUSH1 0x1F DUP5 ADD PUSH1 0x5 SHR DUP3 ADD SWAP2 POP JUMPDEST DUP2 DUP2 LT ISZERO PUSH2 0x348F JUMPI PUSH0 DUP2 SSTORE PUSH1 0x1 ADD PUSH2 0x4554 JUMP JUMPDEST PUSH1 0x1 PUSH1 0x1 PUSH1 0x40 SHL SUB DUP4 GT ISZERO PUSH2 0x457E JUMPI PUSH2 0x457E PUSH2 0x3B8D JUMP JUMPDEST PUSH2 0x4592 DUP4 PUSH2 0x458C DUP4 SLOAD PUSH2 0x4124 JUMP JUMPDEST DUP4 PUSH2 0x4523 JUMP JUMPDEST PUSH0 PUSH1 0x1F DUP5 GT PUSH1 0x1 DUP2 EQ PUSH2 0x45C3 JUMPI PUSH0 DUP6 ISZERO PUSH2 0x45AC JUMPI POP DUP4 DUP3 ADD CALLDATALOAD JUMPDEST PUSH0 NOT PUSH1 0x3 DUP8 SWAP1 SHL SHR NOT AND PUSH1 0x1 DUP7 SWAP1 SHL OR DUP4 SSTORE PUSH2 0x348F JUMP JUMPDEST PUSH0 DUP4 DUP2 MSTORE PUSH1 0x20 DUP2 KECCAK256 PUSH1 0x1F NOT DUP8 AND SWAP2 JUMPDEST DUP3 DUP2 LT ISZERO PUSH2 0x45F2 JUMPI DUP7 DUP6 ADD CALLDATALOAD DUP3 SSTORE PUSH1 0x20 SWAP5 DUP6 ADD SWAP5 PUSH1 0x1 SWAP1 SWAP3 ADD SWAP2 ADD PUSH2 0x45D2 JUMP JUMPDEST POP DUP7 DUP3 LT ISZERO PUSH2 0x460E JUMPI PUSH0 NOT PUSH1 0xF8 DUP9 PUSH1 0x3 SHL AND SHR NOT DUP5 DUP8 ADD CALLDATALOAD AND DUP2 SSTORE JUMPDEST POP POP PUSH1 0x1 DUP6 PUSH1 0x1 SHL ADD DUP4 SSTORE POP POP POP POP POP JUMP JUMPDEST DUP1 DUP3 ADD DUP1 DUP3 GT ISZERO PUSH2 0xC0A JUMPI PUSH2 0xC0A PUSH2 0x4200 JUMP JUMPDEST PUSH1 0x20 DUP2 MSTORE PUSH0 PUSH2 0x2544 PUSH1 0x20 DUP4 ADD DUP5 DUP7 PUSH2 0x4252 JUMP JUMPDEST DUP1 CALLDATALOAD PUSH1 0xFF DUP2 AND DUP2 EQ PUSH2 0x2654 JUMPI PUSH0 PUSH0 REVERT JUMPDEST DUP1 CALLDATALOAD PUSH4 0xFFFFFFFF DUP2 AND DUP2 EQ PUSH2 0x2654 JUMPI PUSH0 PUSH0 REVERT JUMPDEST PUSH1 0x1 PUSH1 0x1 PUSH1 0x50 SHL SUB PUSH2 0x467A DUP3 PUSH2 0x3BF9 JUMP JUMPDEST AND DUP3 MSTORE PUSH2 0xFFFF PUSH2 0x468C PUSH1 0x20 DUP4 ADD PUSH2 0x3C35 JUMP JUMPDEST AND PUSH1 0x20 DUP4 ADD MSTORE PUSH6 0xFFFFFFFFFFFF PUSH2 0x46A5 PUSH1 0x40 DUP4 ADD PUSH2 0x4156 JUMP JUMPDEST AND PUSH1 0x40 DUP4 ADD MSTORE PUSH2 0x46B7 PUSH1 0x60 DUP3 ADD PUSH2 0x4156 JUMP JUMPDEST PUSH6 0xFFFFFFFFFFFF AND PUSH1 0x60 DUP4 ADD MSTORE PUSH2 0x46D0 PUSH1 0x80 DUP3 ADD PUSH2 0x4646 JUMP JUMPDEST PUSH1 0xFF AND PUSH1 0x80 DUP4 ADD MSTORE PUSH2 0x46E4 PUSH1 0xA0 DUP3 ADD PUSH2 0x4656 JUMP JUMPDEST PUSH4 0xFFFFFFFF AND PUSH1 0xA0 DUP4 ADD MSTORE PUSH2 0x46FB PUSH1 0xC0 DUP3 ADD PUSH2 0x3C35 JUMP JUMPDEST PUSH2 0xFFFF AND PUSH1 0xC0 DUP4 ADD MSTORE PUSH2 0x4710 PUSH1 0xE0 DUP3 ADD PUSH2 0x3A1A JUMP JUMPDEST DUP1 ISZERO ISZERO PUSH1 0xE0 DUP5 ADD MSTORE POP POP POP JUMP JUMPDEST PUSH1 0x1 PUSH1 0x1 PUSH1 0xA0 SHL SUB DUP4 AND DUP2 MSTORE PUSH2 0x120 DUP2 ADD PUSH2 0x2547 PUSH1 0x20 DUP4 ADD DUP5 PUSH2 0x4669 JUMP JUMPDEST PUSH0 PUSH0 DUP4 CALLDATALOAD PUSH1 0x1E NOT DUP5 CALLDATASIZE SUB ADD DUP2 SLT PUSH2 0x4750 JUMPI PUSH0 PUSH0 REVERT JUMPDEST DUP4 ADD DUP1 CALLDATALOAD SWAP2 POP PUSH1 0x1 PUSH1 0x1 PUSH1 0x40 SHL SUB DUP3 GT ISZERO PUSH2 0x4769 JUMPI PUSH0 PUSH0 REVERT JUMPDEST PUSH1 0x20 ADD SWAP2 POP CALLDATASIZE DUP2 SWAP1 SUB DUP3 SGT ISZERO PUSH2 0x3D4E JUMPI PUSH0 PUSH0 REVERT JUMPDEST PUSH0 PUSH1 0x20 DUP3 DUP5 SUB SLT ISZERO PUSH2 0x478D JUMPI PUSH0 PUSH0 REVERT JUMPDEST PUSH2 0x2547 DUP3 PUSH2 0x4156 JUMP JUMPDEST PUSH1 0x1 PUSH1 0x1 PUSH1 0xA0 SHL SUB DUP4 AND DUP2 MSTORE PUSH1 0xE0 DUP2 ADD PUSH2 0x2547 PUSH1 0x20 DUP4 ADD DUP5 PUSH2 0x416B JUMP JUMPDEST PUSH1 0x1 PUSH1 0x1 PUSH1 0xA0 SHL SUB DUP5 AND DUP2 MSTORE PUSH1 0x40 PUSH1 0x20 DUP3 ADD DUP2 SWAP1 MSTORE PUSH0 SWAP1 PUSH2 0x47D7 SWAP1 DUP4 ADD DUP5 DUP7 PUSH2 0x4252 JUMP JUMPDEST SWAP6 SWAP5 POP POP POP POP POP JUMP JUMPDEST PUSH0 DUP3 CALLDATALOAD PUSH1 0x5E NOT DUP4 CALLDATASIZE SUB ADD DUP2 SLT PUSH2 0x47F4 JUMPI PUSH0 PUSH0 REVERT JUMPDEST SWAP2 SWAP1 SWAP2 ADD SWAP3 SWAP2 POP POP JUMP JUMPDEST PUSH1 0x1 PUSH1 0x1 PUSH1 0xA0 SHL SUB DUP4 AND DUP2 MSTORE PUSH1 0x40 PUSH1 0x20 DUP3 ADD DUP2 SWAP1 MSTORE PUSH0 SWAP1 PUSH2 0x2544 SWAP1 DUP4 ADD DUP5 PUSH2 0x42BB JUMP JUMPDEST PUSH0 PUSH0 DUP4 CALLDATALOAD PUSH1 0x1E NOT DUP5 CALLDATASIZE SUB ADD DUP2 SLT PUSH2 0x4836 JUMPI PUSH0 PUSH0 REVERT JUMPDEST DUP4 ADD DUP1 CALLDATALOAD SWAP2 POP PUSH1 0x1 PUSH1 0x1 PUSH1 0x40 SHL SUB DUP3 GT ISZERO PUSH2 0x484F JUMPI PUSH0 PUSH0 REVERT JUMPDEST PUSH1 0x20 ADD SWAP2 POP PUSH1 0x5 DUP2 SWAP1 SHL CALLDATASIZE SUB DUP3 SGT ISZERO PUSH2 0x3D4E JUMPI PUSH0 PUSH0 REVERT JUMPDEST PUSH4 0x4E487B71 PUSH1 0xE0 SHL PUSH0 MSTORE PUSH1 0x32 PUSH1 0x4 MSTORE PUSH1 0x24 PUSH0 REVERT JUMPDEST PUSH1 0x1 PUSH1 0x1 PUSH1 0xA0 SHL SUB SWAP4 DUP5 AND DUP2 MSTORE SWAP2 SWAP1 SWAP3 AND PUSH1 0x20 DUP3 ADD MSTORE SWAP1 ISZERO ISZERO PUSH1 0x40 DUP3 ADD MSTORE PUSH1 0x60 ADD SWAP1 JUMP JUMPDEST PUSH0 PUSH0 DUP4 CALLDATALOAD PUSH1 0x1E NOT DUP5 CALLDATASIZE SUB ADD DUP2 SLT PUSH2 0x48B3 JUMPI PUSH0 PUSH0 REVERT JUMPDEST DUP4 ADD DUP1 CALLDATALOAD SWAP2 POP PUSH1 0x1 PUSH1 0x1 PUSH1 0x40 SHL SUB DUP3 GT ISZERO PUSH2 0x48CC JUMPI PUSH0 PUSH0 REVERT JUMPDEST PUSH1 0x20 ADD SWAP2 POP PUSH1 0x8 DUP2 SWAP1 SHL CALLDATASIZE SUB DUP3 SGT ISZERO PUSH2 0x3D4E JUMPI PUSH0 PUSH0 REVERT JUMPDEST PUSH1 0x1 PUSH1 0x1 PUSH1 0xA0 SHL SUB DUP5 DUP2 AND DUP3 MSTORE DUP4 AND PUSH1 0x20 DUP3 ADD MSTORE PUSH2 0x140 DUP2 ADD PUSH2 0x1922 PUSH1 0x40 DUP4 ADD DUP5 PUSH2 0x4669 JUMP JUMPDEST PUSH0 PUSH2 0x140 DUP3 ADD SWAP1 POP PUSH1 0x1 DUP1 PUSH1 0xA0 SHL SUB DUP6 AND DUP3 MSTORE PUSH1 0x1 DUP1 PUSH1 0xA0 SHL SUB DUP5 AND PUSH1 0x20 DUP4 ADD MSTORE PUSH1 0x1 PUSH1 0x1 PUSH1 0x50 SHL SUB DUP4 MLOAD AND PUSH1 0x40 DUP4 ADD MSTORE PUSH2 0xFFFF PUSH1 0x20 DUP5 ADD MLOAD AND PUSH1 0x60 DUP4 ADD MSTORE PUSH6 0xFFFFFFFFFFFF PUSH1 0x40 DUP5 ADD MLOAD AND PUSH1 0x80 DUP4 ADD MSTORE PUSH1 0x60 DUP4 ADD MLOAD PUSH2 0x4973 PUSH1 0xA0 DUP5 ADD DUP3 PUSH6 0xFFFFFFFFFFFF AND SWAP1 MSTORE JUMP JUMPDEST POP PUSH1 0x80 DUP4 ADD MLOAD PUSH1 0xFF DUP2 AND PUSH1 0xC0 DUP5 ADD MSTORE POP PUSH1 0xA0 DUP4 ADD MLOAD PUSH4 0xFFFFFFFF DUP2 AND PUSH1 0xE0 DUP5 ADD MSTORE POP PUSH1 0xC0 DUP4 ADD MLOAD PUSH2 0xFFFF DUP2 AND PUSH2 0x100 DUP5 ADD MSTORE POP PUSH1 0xE0 DUP4 ADD MLOAD DUP1 ISZERO ISZERO PUSH2 0x120 DUP5 ADD MSTORE JUMPDEST POP SWAP5 SWAP4 POP POP POP POP JUMP JUMPDEST PUSH0 PUSH0 DUP4 CALLDATALOAD PUSH1 0x1E NOT DUP5 CALLDATASIZE SUB ADD DUP2 SLT PUSH2 0x49D3 JUMPI PUSH0 PUSH0 REVERT JUMPDEST DUP4 ADD DUP1 CALLDATALOAD SWAP2 POP PUSH1 0x1 PUSH1 0x1 PUSH1 0x40 SHL SUB DUP3 GT ISZERO PUSH2 0x49EC JUMPI PUSH0 PUSH0 REVERT JUMPDEST PUSH1 0x20 ADD SWAP2 POP PUSH1 0xE0 DUP2 MUL CALLDATASIZE SUB DUP3 SGT ISZERO PUSH2 0x3D4E JUMPI PUSH0 PUSH0 REVERT JUMPDEST PUSH1 0x1 PUSH1 0x1 PUSH1 0xA0 SHL SUB DUP5 DUP2 AND DUP3 MSTORE DUP4 AND PUSH1 0x20 DUP3 ADD MSTORE PUSH2 0x120 DUP2 ADD PUSH1 0x1 PUSH1 0x1 PUSH1 0x50 SHL SUB PUSH2 0x4A2C DUP5 PUSH2 0x3BF9 JUMP JUMPDEST AND PUSH1 0x40 DUP4 ADD MSTORE PUSH3 0xFFFFFF PUSH2 0x4A42 PUSH1 0x20 DUP6 ADD PUSH2 0x3C0F JUMP JUMPDEST AND PUSH1 0x60 DUP4 ADD MSTORE PUSH5 0xFFFFFFFFFF PUSH2 0x4A5A PUSH1 0x40 DUP6 ADD PUSH2 0x3C21 JUMP JUMPDEST AND PUSH1 0x80 DUP4 ADD MSTORE PUSH5 0xFFFFFFFFFF PUSH2 0x4A72 PUSH1 0x60 DUP6 ADD PUSH2 0x3C21 JUMP JUMPDEST AND PUSH1 0xA0 DUP4 ADD MSTORE PUSH5 0xFFFFFFFFFF PUSH2 0x4A8A PUSH1 0x80 DUP6 ADD PUSH2 0x3C21 JUMP JUMPDEST AND PUSH1 0xC0 DUP4 ADD MSTORE PUSH2 0x4A9C PUSH1 0xA0 DUP5 ADD PUSH2 0x3C35 JUMP JUMPDEST PUSH2 0xFFFF AND PUSH1 0xE0 DUP4 ADD MSTORE PUSH2 0x4AB1 PUSH1 0xC0 DUP5 ADD PUSH2 0x3C35 JUMP JUMPDEST PUSH2 0xFFFF DUP2 AND PUSH2 0x100 DUP5 ADD MSTORE PUSH2 0x49B5 JUMP JUMPDEST PUSH1 0x1 PUSH1 0x1 PUSH1 0xA0 SHL SUB DUP5 DUP2 AND DUP3 MSTORE DUP4 AND PUSH1 0x20 DUP3 ADD MSTORE PUSH2 0x120 DUP2 ADD PUSH2 0x1922 PUSH1 0x40 DUP4 ADD DUP5 PUSH2 0x448B JUMP JUMPDEST PUSH0 DUP2 PUSH2 0x4AF5 JUMPI PUSH2 0x4AF5 PUSH2 0x4200 JUMP JUMPDEST POP PUSH0 NOT ADD SWAP1 JUMP JUMPDEST PUSH1 0x20 DUP1 DUP3 MSTORE DUP2 ADD DUP3 SWAP1 MSTORE PUSH0 DUP4 PUSH1 0x40 DUP4 ADD DUP3 JUMPDEST DUP6 DUP2 LT ISZERO PUSH2 0x4B3E JUMPI DUP3 CALLDATALOAD PUSH2 0x4B21 DUP2 PUSH2 0x39DC JUMP JUMPDEST PUSH1 0x1 PUSH1 0x1 PUSH1 0xA0 SHL SUB AND DUP3 MSTORE PUSH1 0x20 SWAP3 DUP4 ADD SWAP3 SWAP1 SWAP2 ADD SWAP1 PUSH1 0x1 ADD PUSH2 0x4B0E JUMP JUMPDEST POP SWAP6 SWAP5 POP POP POP POP POP JUMP JUMPDEST PUSH1 0x1 PUSH1 0x1 PUSH1 0xA0 SHL SUB DUP6 DUP2 AND DUP3 MSTORE DUP5 AND PUSH1 0x20 DUP3 ADD MSTORE PUSH1 0x40 DUP2 ADD DUP4 SWAP1 MSTORE PUSH1 0x80 PUSH1 0x60 DUP3 ADD DUP2 SWAP1 MSTORE PUSH0 SWAP1 PUSH2 0x4383 SWAP1 DUP4 ADD DUP5 PUSH2 0x3985 JUMP JUMPDEST PUSH0 PUSH1 0x20 DUP3 DUP5 SUB SLT ISZERO PUSH2 0x4B8A JUMPI PUSH0 PUSH0 REVERT JUMPDEST DUP2 MLOAD PUSH2 0x2547 DUP2 PUSH2 0x3955 JUMP JUMPDEST PUSH0 DUP3 PUSH1 0x1F DUP4 ADD SLT PUSH2 0x4BA4 JUMPI PUSH0 PUSH0 REVERT JUMPDEST DUP2 MLOAD PUSH2 0x4BB2 PUSH2 0x40DC DUP3 PUSH2 0x4049 JUMP JUMPDEST DUP2 DUP2 MSTORE DUP5 PUSH1 0x20 DUP4 DUP7 ADD ADD GT ISZERO PUSH2 0x4BC6 JUMPI PUSH0 PUSH0 REVERT JUMPDEST DUP2 PUSH1 0x20 DUP6 ADD PUSH1 0x20 DUP4 ADD MCOPY PUSH0 SWAP2 DUP2 ADD PUSH1 0x20 ADD SWAP2 SWAP1 SWAP2 MSTORE SWAP4 SWAP3 POP POP POP JUMP JUMPDEST PUSH0 PUSH0 PUSH1 0x40 DUP4 DUP6 SUB SLT ISZERO PUSH2 0x4BF3 JUMPI PUSH0 PUSH0 REVERT JUMPDEST DUP3 MLOAD PUSH1 0x1 PUSH1 0x1 PUSH1 0x40 SHL SUB DUP2 GT ISZERO PUSH2 0x4C08 JUMPI PUSH0 PUSH0 REVERT JUMPDEST PUSH2 0x4C14 DUP6 DUP3 DUP7 ADD PUSH2 0x4B95 JUMP JUMPDEST SWAP3 POP POP PUSH1 0x20 DUP4 ADD MLOAD PUSH1 0x1 PUSH1 0x1 PUSH1 0x40 SHL SUB DUP2 GT ISZERO PUSH2 0x4C2F JUMPI PUSH0 PUSH0 REVERT JUMPDEST PUSH2 0x4C3B DUP6 DUP3 DUP7 ADD PUSH2 0x4B95 JUMP JUMPDEST SWAP2 POP POP SWAP3 POP SWAP3 SWAP1 POP JUMP JUMPDEST PUSH0 PUSH1 0x20 DUP3 DUP5 SUB SLT ISZERO PUSH2 0x4C55 JUMPI PUSH0 PUSH0 REVERT JUMPDEST DUP2 MLOAD PUSH1 0x1 PUSH1 0x1 PUSH1 0x40 SHL SUB DUP2 GT ISZERO PUSH2 0x4C6A JUMPI PUSH0 PUSH0 REVERT JUMPDEST PUSH2 0x1922 DUP5 DUP3 DUP6 ADD PUSH2 0x4B95 JUMP JUMPDEST PUSH10 0x7B226E616D65223A2223 PUSH1 0xB0 SHL DUP2 MSTORE PUSH0 PUSH2 0x4C94 PUSH1 0xA DUP4 ADD DUP7 PUSH2 0x442A JUMP JUMPDEST PUSH32 0x222C226465736372697074696F6E223A224F6E2D436861696E20416C6C2D5374 DUP2 MSTORE PUSH5 0x185C9CC88B PUSH1 0xDA SHL PUSH1 0x20 DUP3 ADD MSTORE PUSH2 0x4CD2 PUSH1 0x25 DUP3 ADD DUP7 PUSH2 0x442A JUMP JUMPDEST SWAP1 POP PUSH1 0xB PUSH1 0xFA SHL DUP2 MSTORE PUSH32 0x22696D616765223A22646174613A696D6167652F7376672B786D6C3B62617365 PUSH1 0x1 DUP3 ADD MSTORE PUSH3 0xD8D0B PUSH1 0xEA SHL PUSH1 0x21 DUP3 ADD MSTORE PUSH2 0x4D1A PUSH1 0x24 DUP3 ADD DUP6 PUSH2 0x442A JUMP JUMPDEST PUSH1 0x11 PUSH1 0xF9 SHL DUP2 MSTORE PUSH1 0x1 ADD SWAP7 SWAP6 POP POP POP POP POP POP JUMP JUMPDEST PUSH0 PUSH2 0x4D39 DUP3 DUP6 PUSH2 0x442A JUMP JUMPDEST PUSH32 0x2C22616E696D6174696F6E5F75726C223A22646174613A746578742F68746D6C DUP2 MSTORE PUSH8 0xED8985CD94D8D0B PUSH1 0xC2 SHL PUSH1 0x20 DUP3 ADD MSTORE PUSH2 0x4D7A PUSH1 0x28 DUP3 ADD DUP6 PUSH2 0x442A JUMP JUMPDEST PUSH2 0x227D PUSH1 0xF0 SHL DUP2 MSTORE PUSH1 0x2 ADD SWAP6 SWAP5 POP POP POP POP POP JUMP JUMPDEST PUSH0 PUSH2 0x4D99 DUP3 DUP5 PUSH2 0x442A JUMP JUMPDEST PUSH1 0x7D PUSH1 0xF8 SHL DUP2 MSTORE PUSH1 0x1 ADD SWAP4 SWAP3 POP POP POP JUMP JUMPDEST PUSH32 0x646174613A6170706C69636174696F6E2F6A736F6E3B6261736536342C000000 DUP2 MSTORE PUSH0 PUSH2 0x2547 PUSH1 0x1D DUP4 ADD DUP5 PUSH2 0x442A JUMP JUMPDEST PUSH0 DUP3 PUSH2 0x4DE9 JUMPI PUSH2 0x4DE9 PUSH2 0x422B JUMP JUMPDEST POP MOD SWAP1 JUMP INVALID PUSH12 0xD5C950A8D8DF17F772F5AF37 0xCB CALLDATASIZE SSTORE PUSH20 0x7899CBF903264B9795592DA439661CA264697066 PUSH20 0x582212208C12C5848D7439C8C79A5B1B34A745A1 PUSH5 0xF004C0C18C PUSH32 0x3A6D01CE510FB0612E64736F6C634300081E0033000000000000000000000000 "
		},
		"gasEstimates": {
			"creation": {
				"codeDepositCost": "4007200",
				"executionCost": "infinite",
				"totalCost": "infinite"
			},
			"external": {
				"acceptOwnership()": "53518",
				"approve(address,uint256)": "infinite",
				"balanceOf(address)": "2665",
				"baseURI()": "infinite",
				"burn(uint256)": "infinite",
				"cancelOwnershipTransfer()": "27728",
				"closeMint()": "26612",
				"contractURI()": "infinite",
				"emitBatchMetadataUpdate(uint256,uint256)": "infinite",
				"explicitOwnershipOf(uint256)": "infinite",
				"explicitOwnershipsOf(uint256[])": "infinite",
				"getApproved(uint256)": "infinite",
				"getDefaultBackgroundIndex()": "357",
				"getMintStats(address)": "7007",
				"getTransferValidationFunction()": "312",
				"getTransferValidator()": "2399",
				"globalTokenMetadata(uint256)": "2588",
				"isApprovedForAll(address,address)": "infinite",
				"maxSupply()": "2357",
				"mintIsClosed()": "2428",
				"mintSeaDrop(address,uint256)": "infinite",
				"multiConfigure((uint256,string,string,address,(uint80,uint48,uint48,uint16,uint16,bool),string,(bytes32,string[],string),address,bytes32,address[],address[],address[],address[],address[],(uint80,uint16,uint48,uint48,uint8,uint32,uint16,bool)[],address[],address[],(uint80,uint24,uint40,uint40,uint40,uint16,uint16)[],address[]))": "infinite",
				"name()": "infinite",
				"owner()": "2397",
				"ownerMint(address,uint256)": "infinite",
				"ownerMintsRemaining()": "2428",
				"ownerOf(uint256)": "infinite",
				"provenanceHash()": "2380",
				"renderer()": "2470",
				"renounceOwnership()": "infinite",
				"royaltyAddress()": "2441",
				"royaltyBasisPoints()": "2460",
				"royaltyInfo(uint256,uint256)": "4882",
				"safeTransferFrom(address,address,uint256)": "infinite",
				"safeTransferFrom(address,address,uint256,bytes)": "infinite",
				"setApprovalForAll(address,bool)": "28899",
				"setBackground(uint256,uint256)": "infinite",
				"setBaseURI(string)": "infinite",
				"setContractURI(string)": "infinite",
				"setMaxSupply(uint256)": "infinite",
				"setProvenanceHash(bytes32)": "30309",
				"setRenderer(address)": "infinite",
				"setRoyaltyInfo((address,uint96))": "infinite",
				"setTransferValidator(address)": "infinite",
				"shufflerSeed()": "2406",
				"supportsInterface(bytes4)": "infinite",
				"symbol()": "infinite",
				"tokenSeed()": "2405",
				"tokenURI(uint256)": "infinite",
				"tokensOfOwner(address)": "infinite",
				"tokensOfOwnerIn(address,uint256,uint256)": "infinite",
				"totalSupply()": "4519",
				"transferFrom(address,address,uint256)": "infinite",
				"transferOwnership(address)": "27981",
				"transfersPaused()": "2433",
				"updateAllowList(address,(bytes32,string[],string))": "infinite",
				"updateAllowedFeeRecipient(address,address,bool)": "infinite",
				"updateAllowedSeaDrop(address[])": "infinite",
				"updateCreatorPayoutAddress(address,address)": "infinite",
				"updateDropURI(address,string)": "infinite",
				"updatePayer(address,address,bool)": "infinite",
				"updatePublicDrop(address,(uint80,uint48,uint48,uint16,uint16,bool))": "infinite",
				"updateSignedMintValidationParams(address,address,(uint80,uint24,uint40,uint40,uint40,uint16,uint16))": "infinite",
				"updateTokenGatedDrop(address,address,(uint80,uint16,uint48,uint48,uint8,uint32,uint16,bool))": "infinite",
				"updateTransfersPaused(bool)": "27886"
			},
			"internal": {
				"_addInternalMintMetadata(address,uint256)": "infinite",
				"_checkMaxSupply(uint256)": "infinite",
				"_getTokenMetadata(uint256)": "infinite",
				"_getTokenSeed(uint256)": "infinite",
				"_mint(address,uint256)": "infinite",
				"_saveNewSeed(uint256,uint256)": "infinite",
				"renderAsDataUri(uint256,uint256,uint256,uint256)": "infinite"
			}
		},
		"methodIdentifiers": {
			"acceptOwnership()": "79ba5097",
			"approve(address,uint256)": "095ea7b3",
			"balanceOf(address)": "70a08231",
			"baseURI()": "6c0360eb",
			"burn(uint256)": "42966c68",
			"cancelOwnershipTransfer()": "23452b9c",
			"closeMint()": "64f101f0",
			"contractURI()": "e8a3d485",
			"emitBatchMetadataUpdate(uint256,uint256)": "a4830114",
			"explicitOwnershipOf(uint256)": "c23dc68f",
			"explicitOwnershipsOf(uint256[])": "5bbb2177",
			"getApproved(uint256)": "081812fc",
			"getDefaultBackgroundIndex()": "4c62dec1",
			"getMintStats(address)": "840e15d4",
			"getTransferValidationFunction()": "0d705df6",
			"getTransferValidator()": "098144d4",
			"globalTokenMetadata(uint256)": "db846dbe",
			"isApprovedForAll(address,address)": "e985e9c5",
			"maxSupply()": "d5abeb01",
			"mintIsClosed()": "1dbd7390",
			"mintSeaDrop(address,uint256)": "64869dad",
			"multiConfigure((uint256,string,string,address,(uint80,uint48,uint48,uint16,uint16,bool),string,(bytes32,string[],string),address,bytes32,address[],address[],address[],address[],address[],(uint80,uint16,uint48,uint48,uint8,uint32,uint16,bool)[],address[],address[],(uint80,uint24,uint40,uint40,uint40,uint16,uint16)[],address[]))": "911f456b",
			"name()": "06fdde03",
			"owner()": "8da5cb5b",
			"ownerMint(address,uint256)": "484b973c",
			"ownerMintsRemaining()": "5743bdff",
			"ownerOf(uint256)": "6352211e",
			"provenanceHash()": "c6ab67a3",
			"renderer()": "8ada6b0f",
			"renounceOwnership()": "715018a6",
			"royaltyAddress()": "ad2f852a",
			"royaltyBasisPoints()": "42260b5d",
			"royaltyInfo(uint256,uint256)": "2a55205a",
			"safeTransferFrom(address,address,uint256)": "42842e0e",
			"safeTransferFrom(address,address,uint256,bytes)": "b88d4fde",
			"setApprovalForAll(address,bool)": "a22cb465",
			"setBackground(uint256,uint256)": "4b6769d5",
			"setBaseURI(string)": "55f804b3",
			"setContractURI(string)": "938e3d7b",
			"setMaxSupply(uint256)": "6f8b44b0",
			"setProvenanceHash(bytes32)": "099b6bfa",
			"setRenderer(address)": "56d3163d",
			"setRoyaltyInfo((address,uint96))": "44dae42c",
			"setTransferValidator(address)": "a9fc664e",
			"shufflerSeed()": "99c5def3",
			"supportsInterface(bytes4)": "01ffc9a7",
			"symbol()": "95d89b41",
			"tokenSeed()": "927cf905",
			"tokenURI(uint256)": "c87b56dd",
			"tokensOfOwner(address)": "8462151c",
			"tokensOfOwnerIn(address,uint256,uint256)": "99a2557a",
			"totalSupply()": "18160ddd",
			"transferFrom(address,address,uint256)": "23b872dd",
			"transferOwnership(address)": "f2fde38b",
			"transfersPaused()": "4563f30a",
			"updateAllowList(address,(bytes32,string[],string))": "3680620d",
			"updateAllowedFeeRecipient(address,address,bool)": "48a4c101",
			"updateAllowedSeaDrop(address[])": "60c308b6",
			"updateCreatorPayoutAddress(address,address)": "66251b69",
			"updateDropURI(address,string)": "7a05bc82",
			"updatePayer(address,address,bool)": "cb743ba8",
			"updatePublicDrop(address,(uint80,uint48,uint48,uint16,uint16,bool))": "1b73593c",
			"updateSignedMintValidationParams(address,address,(uint80,uint24,uint40,uint40,uint40,uint16,uint16))": "511aa644",
			"updateTokenGatedDrop(address,address,(uint80,uint16,uint48,uint48,uint8,uint32,uint16,bool))": "7bc2be76",
			"updateTransfersPaused(bool)": "0d9d713b"
		}
	},
	"abi": [
		{
			"inputs": [
				{
					"internalType": "contract ISVGRenderer",
					"name": "_rendererParam",
					"type": "address"
				},
				{
					"internalType": "uint256",
					"name": "_tokenSeedParam",
					"type": "uint256"
				},
				{
					"internalType": "uint256",
					"name": "_maxSupplyParam",
					"type": "uint256"
				},
				{
					"internalType": "address[]",
					"name": "allowedSeaDropParam",
					"type": "address[]"
				}
			],
			"stateMutability": "nonpayable",
			"type": "constructor"
		},
		{
			"inputs": [],
			"name": "AlreadyInitialized",
			"type": "error"
		},
		{
			"inputs": [],
			"name": "ApprovalCallerNotOwnerNorApproved",
			"type": "error"
		},
		{
			"inputs": [],
			"name": "ApprovalQueryForNonexistentToken",
			"type": "error"
		},
		{
			"inputs": [],
			"name": "BalanceQueryForZeroAddress",
			"type": "error"
		},
		{
			"inputs": [
				{
					"internalType": "uint256",
					"name": "newMaxSupply",
					"type": "uint256"
				}
			],
			"name": "CannotExceedMaxSupplyOfUint64",
			"type": "error"
		},
		{
			"inputs": [],
			"name": "InvalidQueryRange",
			"type": "error"
		},
		{
			"inputs": [
				{
					"internalType": "uint256",
					"name": "basisPoints",
					"type": "uint256"
				}
			],
			"name": "InvalidRoyaltyBasisPoints",
			"type": "error"
		},
		{
			"inputs": [],
			"name": "MintERC2309QuantityExceedsLimit",
			"type": "error"
		},
		{
			"inputs": [
				{
					"internalType": "uint256",
					"name": "total",
					"type": "uint256"
				},
				{
					"internalType": "uint256",
					"name": "maxSupply",
					"type": "uint256"
				}
			],
			"name": "MintQuantityExceedsMaxSupply",
			"type": "error"
		},
		{
			"inputs": [],
			"name": "MintToZeroAddress",
			"type": "error"
		},
		{
			"inputs": [],
			"name": "MintZeroQuantity",
			"type": "error"
		},
		{
			"inputs": [
				{
					"internalType": "uint256",
					"name": "got",
					"type": "uint256"
				},
				{
					"internalType": "uint256",
					"name": "totalMinted",
					"type": "uint256"
				}
			],
			"name": "NewMaxSupplyCannotBeLessThenTotalMinted",
			"type": "error"
		},
		{
			"inputs": [],
			"name": "NewOwnerIsZeroAddress",
			"type": "error"
		},
		{
			"inputs": [],
			"name": "NotCompatibleWithSpotMints",
			"type": "error"
		},
		{
			"inputs": [],
			"name": "NotNextOwner",
			"type": "error"
		},
		{
			"inputs": [],
			"name": "OnlyAllowedSeaDrop",
			"type": "error"
		},
		{
			"inputs": [],
			"name": "OnlyOwner",
			"type": "error"
		},
		{
			"inputs": [],
			"name": "OwnerQueryForNonexistentToken",
			"type": "error"
		},
		{
			"inputs": [],
			"name": "OwnershipNotInitializedForExtraData",
			"type": "error"
		},
		{
			"inputs": [],
			"name": "ProvenanceHashCannotBeSetAfterMintStarted",
			"type": "error"
		},
		{
			"inputs": [],
			"name": "RoyaltyAddressCannotBeZeroAddress",
			"type": "error"
		},
		{
			"inputs": [],
			"name": "SameTransferValidator",
			"type": "error"
		},
		{
			"inputs": [],
			"name": "SequentialMintExceedsLimit",
			"type": "error"
		},
		{
			"inputs": [],
			"name": "SequentialUpToTooSmall",
			"type": "error"
		},
		{
			"inputs": [],
			"name": "SignersMismatch",
			"type": "error"
		},
		{
			"inputs": [],
			"name": "SpotMintTokenIdTooSmall",
			"type": "error"
		},
		{
			"inputs": [],
			"name": "TokenAlreadyExists",
			"type": "error"
		},
		{
			"inputs": [],
			"name": "TokenGatedMismatch",
			"type": "error"
		},
		{
			"inputs": [],
			"name": "TransferCallerNotOwnerNorApproved",
			"type": "error"
		},
		{
			"inputs": [],
			"name": "TransferFromIncorrectOwner",
			"type": "error"
		},
		{
			"inputs": [],
			"name": "TransferToNonERC721ReceiverImplementer",
			"type": "error"
		},
		{
			"inputs": [],
			"name": "TransferToZeroAddress",
			"type": "error"
		},
		{
			"inputs": [],
			"name": "TransfersPaused",
			"type": "error"
		},
		{
			"inputs": [],
			"name": "URIQueryForNonexistentToken",
			"type": "error"
		},
		{
			"anonymous": false,
			"inputs": [
				{
					"indexed": false,
					"internalType": "address[]",
					"name": "allowedSeaDrop",
					"type": "address[]"
				}
			],
			"name": "AllowedSeaDropUpdated",
			"type": "event"
		},
		{
			"anonymous": false,
			"inputs": [
				{
					"indexed": true,
					"internalType": "address",
					"name": "owner",
					"type": "address"
				},
				{
					"indexed": true,
					"internalType": "address",
					"name": "approved",
					"type": "address"
				},
				{
					"indexed": true,
					"internalType": "uint256",
					"name": "tokenId",
					"type": "uint256"
				}
			],
			"name": "Approval",
			"type": "event"
		},
		{
			"anonymous": false,
			"inputs": [
				{
					"indexed": true,
					"internalType": "address",
					"name": "owner",
					"type": "address"
				},
				{
					"indexed": true,
					"internalType": "address",
					"name": "operator",
					"type": "address"
				},
				{
					"indexed": false,
					"internalType": "bool",
					"name": "approved",
					"type": "bool"
				}
			],
			"name": "ApprovalForAll",
			"type": "event"
		},
		{
			"anonymous": false,
			"inputs": [
				{
					"indexed": true,
					"internalType": "uint256",
					"name": "tokenId",
					"type": "uint256"
				},
				{
					"indexed": true,
					"internalType": "uint256",
					"name": "backgroundIndex",
					"type": "uint256"
				},
				{
					"indexed": true,
					"internalType": "address",
					"name": "owner",
					"type": "address"
				}
			],
			"name": "BackgroundChanged",
			"type": "event"
		},
		{
			"anonymous": false,
			"inputs": [
				{
					"indexed": false,
					"internalType": "uint256",
					"name": "_fromTokenId",
					"type": "uint256"
				},
				{
					"indexed": false,
					"internalType": "uint256",
					"name": "_toTokenId",
					"type": "uint256"
				}
			],
			"name": "BatchMetadataUpdate",
			"type": "event"
		},
		{
			"anonymous": false,
			"inputs": [
				{
					"indexed": true,
					"internalType": "uint256",
					"name": "fromTokenId",
					"type": "uint256"
				},
				{
					"indexed": false,
					"internalType": "uint256",
					"name": "toTokenId",
					"type": "uint256"
				},
				{
					"indexed": true,
					"internalType": "address",
					"name": "from",
					"type": "address"
				},
				{
					"indexed": true,
					"internalType": "address",
					"name": "to",
					"type": "address"
				}
			],
			"name": "ConsecutiveTransfer",
			"type": "event"
		},
		{
			"anonymous": false,
			"inputs": [
				{
					"indexed": false,
					"internalType": "string",
					"name": "newContractURI",
					"type": "string"
				}
			],
			"name": "ContractURIUpdated",
			"type": "event"
		},
		{
			"anonymous": false,
			"inputs": [
				{
					"indexed": false,
					"internalType": "uint256",
					"name": "newMaxSupply",
					"type": "uint256"
				}
			],
			"name": "MaxSupplyUpdated",
			"type": "event"
		},
		{
			"anonymous": false,
			"inputs": [
				{
					"indexed": true,
					"internalType": "address",
					"name": "previousOwner",
					"type": "address"
				},
				{
					"indexed": true,
					"internalType": "address",
					"name": "newOwner",
					"type": "address"
				}
			],
			"name": "OwnershipTransferred",
			"type": "event"
		},
		{
			"anonymous": false,
			"inputs": [
				{
					"indexed": false,
					"internalType": "address",
					"name": "newPotentialAdministrator",
					"type": "address"
				}
			],
			"name": "PotentialOwnerUpdated",
			"type": "event"
		},
		{
			"anonymous": false,
			"inputs": [
				{
					"indexed": false,
					"internalType": "bytes32",
					"name": "previousHash",
					"type": "bytes32"
				},
				{
					"indexed": false,
					"internalType": "bytes32",
					"name": "newHash",
					"type": "bytes32"
				}
			],
			"name": "ProvenanceHashUpdated",
			"type": "event"
		},
		{
			"anonymous": false,
			"inputs": [
				{
					"indexed": false,
					"internalType": "address",
					"name": "receiver",
					"type": "address"
				},
				{
					"indexed": false,
					"internalType": "uint256",
					"name": "bps",
					"type": "uint256"
				}
			],
			"name": "RoyaltyInfoUpdated",
			"type": "event"
		},
		{
			"anonymous": false,
			"inputs": [],
			"name": "SeaDropTokenDeployed",
			"type": "event"
		},
		{
			"anonymous": false,
			"inputs": [
				{
					"indexed": true,
					"internalType": "address",
					"name": "from",
					"type": "address"
				},
				{
					"indexed": true,
					"internalType": "address",
					"name": "to",
					"type": "address"
				},
				{
					"indexed": true,
					"internalType": "uint256",
					"name": "tokenId",
					"type": "uint256"
				}
			],
			"name": "Transfer",
			"type": "event"
		},
		{
			"anonymous": false,
			"inputs": [
				{
					"indexed": false,
					"internalType": "address",
					"name": "oldValidator",
					"type": "address"
				},
				{
					"indexed": false,
					"internalType": "address",
					"name": "newValidator",
					"type": "address"
				}
			],
			"name": "TransferValidatorUpdated",
			"type": "event"
		},
		{
			"anonymous": false,
			"inputs": [
				{
					"indexed": false,
					"internalType": "bool",
					"name": "paused",
					"type": "bool"
				}
			],
			"name": "TransfersPausedChanged",
			"type": "event"
		},
		{
			"inputs": [],
			"name": "acceptOwnership",
			"outputs": [],
			"stateMutability": "nonpayable",
			"type": "function"
		},
		{
			"inputs": [
				{
					"internalType": "address",
					"name": "to",
					"type": "address"
				},
				{
					"internalType": "uint256",
					"name": "tokenId",
					"type": "uint256"
				}
			],
			"name": "approve",
			"outputs": [],
			"stateMutability": "payable",
			"type": "function"
		},
		{
			"inputs": [
				{
					"internalType": "address",
					"name": "owner",
					"type": "address"
				}
			],
			"name": "balanceOf",
			"outputs": [
				{
					"internalType": "uint256",
					"name": "",
					"type": "uint256"
				}
			],
			"stateMutability": "view",
			"type": "function"
		},
		{
			"inputs": [],
			"name": "baseURI",
			"outputs": [
				{
					"internalType": "string",
					"name": "",
					"type": "string"
				}
			],
			"stateMutability": "view",
			"type": "function"
		},
		{
			"inputs": [
				{
					"internalType": "uint256",
					"name": "tokenId",
					"type": "uint256"
				}
			],
			"name": "burn",
			"outputs": [],
			"stateMutability": "nonpayable",
			"type": "function"
		},
		{
			"inputs": [],
			"name": "cancelOwnershipTransfer",
			"outputs": [],
			"stateMutability": "nonpayable",
			"type": "function"
		},
		{
			"inputs": [],
			"name": "closeMint",
			"outputs": [],
			"stateMutability": "nonpayable",
			"type": "function"
		},
		{
			"inputs": [],
			"name": "contractURI",
			"outputs": [
				{
					"internalType": "string",
					"name": "",
					"type": "string"
				}
			],
			"stateMutability": "view",
			"type": "function"
		},
		{
			"inputs": [
				{
					"internalType": "uint256",
					"name": "fromTokenId",
					"type": "uint256"
				},
				{
					"internalType": "uint256",
					"name": "toTokenId",
					"type": "uint256"
				}
			],
			"name": "emitBatchMetadataUpdate",
			"outputs": [],
			"stateMutability": "nonpayable",
			"type": "function"
		},
		{
			"inputs": [
				{
					"internalType": "uint256",
					"name": "tokenId",
					"type": "uint256"
				}
			],
			"name": "explicitOwnershipOf",
			"outputs": [
				{
					"components": [
						{
							"internalType": "address",
							"name": "addr",
							"type": "address"
						},
						{
							"internalType": "uint64",
							"name": "startTimestamp",
							"type": "uint64"
						},
						{
							"internalType": "bool",
							"name": "burned",
							"type": "bool"
						},
						{
							"internalType": "uint24",
							"name": "extraData",
							"type": "uint24"
						}
					],
					"internalType": "struct IERC721A.TokenOwnership",
					"name": "ownership",
					"type": "tuple"
				}
			],
			"stateMutability": "view",
			"type": "function"
		},
		{
			"inputs": [
				{
					"internalType": "uint256[]",
					"name": "tokenIds",
					"type": "uint256[]"
				}
			],
			"name": "explicitOwnershipsOf",
			"outputs": [
				{
					"components": [
						{
							"internalType": "address",
							"name": "addr",
							"type": "address"
						},
						{
							"internalType": "uint64",
							"name": "startTimestamp",
							"type": "uint64"
						},
						{
							"internalType": "bool",
							"name": "burned",
							"type": "bool"
						},
						{
							"internalType": "uint24",
							"name": "extraData",
							"type": "uint24"
						}
					],
					"internalType": "struct IERC721A.TokenOwnership[]",
					"name": "",
					"type": "tuple[]"
				}
			],
			"stateMutability": "view",
			"type": "function"
		},
		{
			"inputs": [
				{
					"internalType": "uint256",
					"name": "tokenId",
					"type": "uint256"
				}
			],
			"name": "getApproved",
			"outputs": [
				{
					"internalType": "address",
					"name": "",
					"type": "address"
				}
			],
			"stateMutability": "view",
			"type": "function"
		},
		{
			"inputs": [],
			"name": "getDefaultBackgroundIndex",
			"outputs": [
				{
					"internalType": "uint32",
					"name": "",
					"type": "uint32"
				}
			],
			"stateMutability": "pure",
			"type": "function"
		},
		{
			"inputs": [
				{
					"internalType": "address",
					"name": "minter",
					"type": "address"
				}
			],
			"name": "getMintStats",
			"outputs": [
				{
					"internalType": "uint256",
					"name": "minterNumMinted",
					"type": "uint256"
				},
				{
					"internalType": "uint256",
					"name": "currentTotalSupply",
					"type": "uint256"
				},
				{
					"internalType": "uint256",
					"name": "maxSupply",
					"type": "uint256"
				}
			],
			"stateMutability": "view",
			"type": "function"
		},
		{
			"inputs": [],
			"name": "getTransferValidationFunction",
			"outputs": [
				{
					"internalType": "bytes4",
					"name": "functionSignature",
					"type": "bytes4"
				},
				{
					"internalType": "bool",
					"name": "isViewFunction",
					"type": "bool"
				}
			],
			"stateMutability": "pure",
			"type": "function"
		},
		{
			"inputs": [],
			"name": "getTransferValidator",
			"outputs": [
				{
					"internalType": "address",
					"name": "",
					"type": "address"
				}
			],
			"stateMutability": "view",
			"type": "function"
		},
		{
			"inputs": [
				{
					"internalType": "uint256",
					"name": "",
					"type": "uint256"
				}
			],
			"name": "globalTokenMetadata",
			"outputs": [
				{
					"internalType": "uint32",
					"name": "tokenIdSeed",
					"type": "uint32"
				},
				{
					"internalType": "uint32",
					"name": "backgroundIndex",
					"type": "uint32"
				}
			],
			"stateMutability": "view",
			"type": "function"
		},
		{
			"inputs": [
				{
					"internalType": "address",
					"name": "owner",
					"type": "address"
				},
				{
					"internalType": "address",
					"name": "operator",
					"type": "address"
				}
			],
			"name": "isApprovedForAll",
			"outputs": [
				{
					"internalType": "bool",
					"name": "",
					"type": "bool"
				}
			],
			"stateMutability": "view",
			"type": "function"
		},
		{
			"inputs": [],
			"name": "maxSupply",
			"outputs": [
				{
					"internalType": "uint256",
					"name": "",
					"type": "uint256"
				}
			],
			"stateMutability": "view",
			"type": "function"
		},
		{
			"inputs": [],
			"name": "mintIsClosed",
			"outputs": [
				{
					"internalType": "bool",
					"name": "",
					"type": "bool"
				}
			],
			"stateMutability": "view",
			"type": "function"
		},
		{
			"inputs": [
				{
					"internalType": "address",
					"name": "minter",
					"type": "address"
				},
				{
					"internalType": "uint256",
					"name": "quantity",
					"type": "uint256"
				}
			],
			"name": "mintSeaDrop",
			"outputs": [],
			"stateMutability": "nonpayable",
			"type": "function"
		},
		{
			"inputs": [
				{
					"components": [
						{
							"internalType": "uint256",
							"name": "maxSupply",
							"type": "uint256"
						},
						{
							"internalType": "string",
							"name": "baseURI",
							"type": "string"
						},
						{
							"internalType": "string",
							"name": "contractURI",
							"type": "string"
						},
						{
							"internalType": "address",
							"name": "seaDropImpl",
							"type": "address"
						},
						{
							"components": [
								{
									"internalType": "uint80",
									"name": "mintPrice",
									"type": "uint80"
								},
								{
									"internalType": "uint48",
									"name": "startTime",
									"type": "uint48"
								},
								{
									"internalType": "uint48",
									"name": "endTime",
									"type": "uint48"
								},
								{
									"internalType": "uint16",
									"name": "maxTotalMintableByWallet",
									"type": "uint16"
								},
								{
									"internalType": "uint16",
									"name": "feeBps",
									"type": "uint16"
								},
								{
									"internalType": "bool",
									"name": "restrictFeeRecipients",
									"type": "bool"
								}
							],
							"internalType": "struct PublicDrop",
							"name": "publicDrop",
							"type": "tuple"
						},
						{
							"internalType": "string",
							"name": "dropURI",
							"type": "string"
						},
						{
							"components": [
								{
									"internalType": "bytes32",
									"name": "merkleRoot",
									"type": "bytes32"
								},
								{
									"internalType": "string[]",
									"name": "publicKeyURIs",
									"type": "string[]"
								},
								{
									"internalType": "string",
									"name": "allowListURI",
									"type": "string"
								}
							],
							"internalType": "struct AllowListData",
							"name": "allowListData",
							"type": "tuple"
						},
						{
							"internalType": "address",
							"name": "creatorPayoutAddress",
							"type": "address"
						},
						{
							"internalType": "bytes32",
							"name": "provenanceHash",
							"type": "bytes32"
						},
						{
							"internalType": "address[]",
							"name": "allowedFeeRecipients",
							"type": "address[]"
						},
						{
							"internalType": "address[]",
							"name": "disallowedFeeRecipients",
							"type": "address[]"
						},
						{
							"internalType": "address[]",
							"name": "allowedPayers",
							"type": "address[]"
						},
						{
							"internalType": "address[]",
							"name": "disallowedPayers",
							"type": "address[]"
						},
						{
							"internalType": "address[]",
							"name": "tokenGatedAllowedNftTokens",
							"type": "address[]"
						},
						{
							"components": [
								{
									"internalType": "uint80",
									"name": "mintPrice",
									"type": "uint80"
								},
								{
									"internalType": "uint16",
									"name": "maxTotalMintableByWallet",
									"type": "uint16"
								},
								{
									"internalType": "uint48",
									"name": "startTime",
									"type": "uint48"
								},
								{
									"internalType": "uint48",
									"name": "endTime",
									"type": "uint48"
								},
								{
									"internalType": "uint8",
									"name": "dropStageIndex",
									"type": "uint8"
								},
								{
									"internalType": "uint32",
									"name": "maxTokenSupplyForStage",
									"type": "uint32"
								},
								{
									"internalType": "uint16",
									"name": "feeBps",
									"type": "uint16"
								},
								{
									"internalType": "bool",
									"name": "restrictFeeRecipients",
									"type": "bool"
								}
							],
							"internalType": "struct TokenGatedDropStage[]",
							"name": "tokenGatedDropStages",
							"type": "tuple[]"
						},
						{
							"internalType": "address[]",
							"name": "disallowedTokenGatedAllowedNftTokens",
							"type": "address[]"
						},
						{
							"internalType": "address[]",
							"name": "signers",
							"type": "address[]"
						},
						{
							"components": [
								{
									"internalType": "uint80",
									"name": "minMintPrice",
									"type": "uint80"
								},
								{
									"internalType": "uint24",
									"name": "maxMaxTotalMintableByWallet",
									"type": "uint24"
								},
								{
									"internalType": "uint40",
									"name": "minStartTime",
									"type": "uint40"
								},
								{
									"internalType": "uint40",
									"name": "maxEndTime",
									"type": "uint40"
								},
								{
									"internalType": "uint40",
									"name": "maxMaxTokenSupplyForStage",
									"type": "uint40"
								},
								{
									"internalType": "uint16",
									"name": "minFeeBps",
									"type": "uint16"
								},
								{
									"internalType": "uint16",
									"name": "maxFeeBps",
									"type": "uint16"
								}
							],
							"internalType": "struct SignedMintValidationParams[]",
							"name": "signedMintValidationParams",
							"type": "tuple[]"
						},
						{
							"internalType": "address[]",
							"name": "disallowedSigners",
							"type": "address[]"
						}
					],
					"internalType": "struct ERC721SeaDropStructsErrorsAndEvents.MultiConfigureStruct",
					"name": "config",
					"type": "tuple"
				}
			],
			"name": "multiConfigure",
			"outputs": [],
			"stateMutability": "nonpayable",
			"type": "function"
		},
		{
			"inputs": [],
			"name": "name",
			"outputs": [
				{
					"internalType": "string",
					"name": "",
					"type": "string"
				}
			],
			"stateMutability": "view",
			"type": "function"
		},
		{
			"inputs": [],
			"name": "owner",
			"outputs": [
				{
					"internalType": "address",
					"name": "",
					"type": "address"
				}
			],
			"stateMutability": "view",
			"type": "function"
		},
		{
			"inputs": [
				{
					"internalType": "address",
					"name": "toAddress",
					"type": "address"
				},
				{
					"internalType": "uint256",
					"name": "quantity",
					"type": "uint256"
				}
			],
			"name": "ownerMint",
			"outputs": [],
			"stateMutability": "nonpayable",
			"type": "function"
		},
		{
			"inputs": [],
			"name": "ownerMintsRemaining",
			"outputs": [
				{
					"internalType": "uint256",
					"name": "",
					"type": "uint256"
				}
			],
			"stateMutability": "view",
			"type": "function"
		},
		{
			"inputs": [
				{
					"internalType": "uint256",
					"name": "tokenId",
					"type": "uint256"
				}
			],
			"name": "ownerOf",
			"outputs": [
				{
					"internalType": "address",
					"name": "",
					"type": "address"
				}
			],
			"stateMutability": "view",
			"type": "function"
		},
		{
			"inputs": [],
			"name": "provenanceHash",
			"outputs": [
				{
					"internalType": "bytes32",
					"name": "",
					"type": "bytes32"
				}
			],
			"stateMutability": "view",
			"type": "function"
		},
		{
			"inputs": [],
			"name": "renderer",
			"outputs": [
				{
					"internalType": "contract ISVGRenderer",
					"name": "",
					"type": "address"
				}
			],
			"stateMutability": "view",
			"type": "function"
		},
		{
			"inputs": [],
			"name": "renounceOwnership",
			"outputs": [],
			"stateMutability": "nonpayable",
			"type": "function"
		},
		{
			"inputs": [],
			"name": "royaltyAddress",
			"outputs": [
				{
					"internalType": "address",
					"name": "",
					"type": "address"
				}
			],
			"stateMutability": "view",
			"type": "function"
		},
		{
			"inputs": [],
			"name": "royaltyBasisPoints",
			"outputs": [
				{
					"internalType": "uint256",
					"name": "",
					"type": "uint256"
				}
			],
			"stateMutability": "view",
			"type": "function"
		},
		{
			"inputs": [
				{
					"internalType": "uint256",
					"name": "",
					"type": "uint256"
				},
				{
					"internalType": "uint256",
					"name": "_salePrice",
					"type": "uint256"
				}
			],
			"name": "royaltyInfo",
			"outputs": [
				{
					"internalType": "address",
					"name": "receiver",
					"type": "address"
				},
				{
					"internalType": "uint256",
					"name": "royaltyAmount",
					"type": "uint256"
				}
			],
			"stateMutability": "view",
			"type": "function"
		},
		{
			"inputs": [
				{
					"internalType": "address",
					"name": "from",
					"type": "address"
				},
				{
					"internalType": "address",
					"name": "to",
					"type": "address"
				},
				{
					"internalType": "uint256",
					"name": "tokenId",
					"type": "uint256"
				}
			],
			"name": "safeTransferFrom",
			"outputs": [],
			"stateMutability": "payable",
			"type": "function"
		},
		{
			"inputs": [
				{
					"internalType": "address",
					"name": "from",
					"type": "address"
				},
				{
					"internalType": "address",
					"name": "to",
					"type": "address"
				},
				{
					"internalType": "uint256",
					"name": "tokenId",
					"type": "uint256"
				},
				{
					"internalType": "bytes",
					"name": "_data",
					"type": "bytes"
				}
			],
			"name": "safeTransferFrom",
			"outputs": [],
			"stateMutability": "payable",
			"type": "function"
		},
		{
			"inputs": [
				{
					"internalType": "address",
					"name": "operator",
					"type": "address"
				},
				{
					"internalType": "bool",
					"name": "approved",
					"type": "bool"
				}
			],
			"name": "setApprovalForAll",
			"outputs": [],
			"stateMutability": "nonpayable",
			"type": "function"
		},
		{
			"inputs": [
				{
					"internalType": "uint256",
					"name": "tokenId",
					"type": "uint256"
				},
				{
					"internalType": "uint256",
					"name": "backgroundIndex",
					"type": "uint256"
				}
			],
			"name": "setBackground",
			"outputs": [],
			"stateMutability": "nonpayable",
			"type": "function"
		},
		{
			"inputs": [
				{
					"internalType": "string",
					"name": "newBaseURI",
					"type": "string"
				}
			],
			"name": "setBaseURI",
			"outputs": [],
			"stateMutability": "nonpayable",
			"type": "function"
		},
		{
			"inputs": [
				{
					"internalType": "string",
					"name": "newContractURI",
					"type": "string"
				}
			],
			"name": "setContractURI",
			"outputs": [],
			"stateMutability": "nonpayable",
			"type": "function"
		},
		{
			"inputs": [
				{
					"internalType": "uint256",
					"name": "newMaxSupply",
					"type": "uint256"
				}
			],
			"name": "setMaxSupply",
			"outputs": [],
			"stateMutability": "nonpayable",
			"type": "function"
		},
		{
			"inputs": [
				{
					"internalType": "bytes32",
					"name": "newProvenanceHash",
					"type": "bytes32"
				}
			],
			"name": "setProvenanceHash",
			"outputs": [],
			"stateMutability": "nonpayable",
			"type": "function"
		},
		{
			"inputs": [
				{
					"internalType": "contract ISVGRenderer",
					"name": "_renderer",
					"type": "address"
				}
			],
			"name": "setRenderer",
			"outputs": [],
			"stateMutability": "nonpayable",
			"type": "function"
		},
		{
			"inputs": [
				{
					"components": [
						{
							"internalType": "address",
							"name": "royaltyAddress",
							"type": "address"
						},
						{
							"internalType": "uint96",
							"name": "royaltyBps",
							"type": "uint96"
						}
					],
					"internalType": "struct ISeaDropTokenContractMetadata.RoyaltyInfo",
					"name": "newInfo",
					"type": "tuple"
				}
			],
			"name": "setRoyaltyInfo",
			"outputs": [],
			"stateMutability": "nonpayable",
			"type": "function"
		},
		{
			"inputs": [
				{
					"internalType": "address",
					"name": "newValidator",
					"type": "address"
				}
			],
			"name": "setTransferValidator",
			"outputs": [],
			"stateMutability": "nonpayable",
			"type": "function"
		},
		{
			"inputs": [],
			"name": "shufflerSeed",
			"outputs": [
				{
					"internalType": "uint256",
					"name": "",
					"type": "uint256"
				}
			],
			"stateMutability": "view",
			"type": "function"
		},
		{
			"inputs": [
				{
					"internalType": "bytes4",
					"name": "interfaceId",
					"type": "bytes4"
				}
			],
			"name": "supportsInterface",
			"outputs": [
				{
					"internalType": "bool",
					"name": "",
					"type": "bool"
				}
			],
			"stateMutability": "view",
			"type": "function"
		},
		{
			"inputs": [],
			"name": "symbol",
			"outputs": [
				{
					"internalType": "string",
					"name": "",
					"type": "string"
				}
			],
			"stateMutability": "view",
			"type": "function"
		},
		{
			"inputs": [],
			"name": "tokenSeed",
			"outputs": [
				{
					"internalType": "uint256",
					"name": "",
					"type": "uint256"
				}
			],
			"stateMutability": "view",
			"type": "function"
		},
		{
			"inputs": [
				{
					"internalType": "uint256",
					"name": "tokenId",
					"type": "uint256"
				}
			],
			"name": "tokenURI",
			"outputs": [
				{
					"internalType": "string",
					"name": "",
					"type": "string"
				}
			],
			"stateMutability": "view",
			"type": "function"
		},
		{
			"inputs": [
				{
					"internalType": "address",
					"name": "owner",
					"type": "address"
				}
			],
			"name": "tokensOfOwner",
			"outputs": [
				{
					"internalType": "uint256[]",
					"name": "",
					"type": "uint256[]"
				}
			],
			"stateMutability": "view",
			"type": "function"
		},
		{
			"inputs": [
				{
					"internalType": "address",
					"name": "owner",
					"type": "address"
				},
				{
					"internalType": "uint256",
					"name": "start",
					"type": "uint256"
				},
				{
					"internalType": "uint256",
					"name": "stop",
					"type": "uint256"
				}
			],
			"name": "tokensOfOwnerIn",
			"outputs": [
				{
					"internalType": "uint256[]",
					"name": "",
					"type": "uint256[]"
				}
			],
			"stateMutability": "view",
			"type": "function"
		},
		{
			"inputs": [],
			"name": "totalSupply",
			"outputs": [
				{
					"internalType": "uint256",
					"name": "result",
					"type": "uint256"
				}
			],
			"stateMutability": "view",
			"type": "function"
		},
		{
			"inputs": [
				{
					"internalType": "address",
					"name": "from",
					"type": "address"
				},
				{
					"internalType": "address",
					"name": "to",
					"type": "address"
				},
				{
					"internalType": "uint256",
					"name": "tokenId",
					"type": "uint256"
				}
			],
			"name": "transferFrom",
			"outputs": [],
			"stateMutability": "payable",
			"type": "function"
		},
		{
			"inputs": [
				{
					"internalType": "address",
					"name": "newPotentialOwner",
					"type": "address"
				}
			],
			"name": "transferOwnership",
			"outputs": [],
			"stateMutability": "nonpayable",
			"type": "function"
		},
		{
			"inputs": [],
			"name": "transfersPaused",
			"outputs": [
				{
					"internalType": "bool",
					"name": "",
					"type": "bool"
				}
			],
			"stateMutability": "view",
			"type": "function"
		},
		{
			"inputs": [
				{
					"internalType": "address",
					"name": "seaDropImpl",
					"type": "address"
				},
				{
					"components": [
						{
							"internalType": "bytes32",
							"name": "merkleRoot",
							"type": "bytes32"
						},
						{
							"internalType": "string[]",
							"name": "publicKeyURIs",
							"type": "string[]"
						},
						{
							"internalType": "string",
							"name": "allowListURI",
							"type": "string"
						}
					],
					"internalType": "struct AllowListData",
					"name": "allowListData",
					"type": "tuple"
				}
			],
			"name": "updateAllowList",
			"outputs": [],
			"stateMutability": "nonpayable",
			"type": "function"
		},
		{
			"inputs": [
				{
					"internalType": "address",
					"name": "seaDropImpl",
					"type": "address"
				},
				{
					"internalType": "address",
					"name": "feeRecipient",
					"type": "address"
				},
				{
					"internalType": "bool",
					"name": "allowed",
					"type": "bool"
				}
			],
			"name": "updateAllowedFeeRecipient",
			"outputs": [],
			"stateMutability": "nonpayable",
			"type": "function"
		},
		{
			"inputs": [
				{
					"internalType": "address[]",
					"name": "allowedSeaDrop",
					"type": "address[]"
				}
			],
			"name": "updateAllowedSeaDrop",
			"outputs": [],
			"stateMutability": "nonpayable",
			"type": "function"
		},
		{
			"inputs": [
				{
					"internalType": "address",
					"name": "seaDropImpl",
					"type": "address"
				},
				{
					"internalType": "address",
					"name": "payoutAddress",
					"type": "address"
				}
			],
			"name": "updateCreatorPayoutAddress",
			"outputs": [],
			"stateMutability": "nonpayable",
			"type": "function"
		},
		{
			"inputs": [
				{
					"internalType": "address",
					"name": "seaDropImpl",
					"type": "address"
				},
				{
					"internalType": "string",
					"name": "dropURI",
					"type": "string"
				}
			],
			"name": "updateDropURI",
			"outputs": [],
			"stateMutability": "nonpayable",
			"type": "function"
		},
		{
			"inputs": [
				{
					"internalType": "address",
					"name": "seaDropImpl",
					"type": "address"
				},
				{
					"internalType": "address",
					"name": "payer",
					"type": "address"
				},
				{
					"internalType": "bool",
					"name": "allowed",
					"type": "bool"
				}
			],
			"name": "updatePayer",
			"outputs": [],
			"stateMutability": "nonpayable",
			"type": "function"
		},
		{
			"inputs": [
				{
					"internalType": "address",
					"name": "seaDropImpl",
					"type": "address"
				},
				{
					"components": [
						{
							"internalType": "uint80",
							"name": "mintPrice",
							"type": "uint80"
						},
						{
							"internalType": "uint48",
							"name": "startTime",
							"type": "uint48"
						},
						{
							"internalType": "uint48",
							"name": "endTime",
							"type": "uint48"
						},
						{
							"internalType": "uint16",
							"name": "maxTotalMintableByWallet",
							"type": "uint16"
						},
						{
							"internalType": "uint16",
							"name": "feeBps",
							"type": "uint16"
						},
						{
							"internalType": "bool",
							"name": "restrictFeeRecipients",
							"type": "bool"
						}
					],
					"internalType": "struct PublicDrop",
					"name": "publicDrop",
					"type": "tuple"
				}
			],
			"name": "updatePublicDrop",
			"outputs": [],
			"stateMutability": "nonpayable",
			"type": "function"
		},
		{
			"inputs": [
				{
					"internalType": "address",
					"name": "seaDropImpl",
					"type": "address"
				},
				{
					"internalType": "address",
					"name": "signer",
					"type": "address"
				},
				{
					"components": [
						{
							"internalType": "uint80",
							"name": "minMintPrice",
							"type": "uint80"
						},
						{
							"internalType": "uint24",
							"name": "maxMaxTotalMintableByWallet",
							"type": "uint24"
						},
						{
							"internalType": "uint40",
							"name": "minStartTime",
							"type": "uint40"
						},
						{
							"internalType": "uint40",
							"name": "maxEndTime",
							"type": "uint40"
						},
						{
							"internalType": "uint40",
							"name": "maxMaxTokenSupplyForStage",
							"type": "uint40"
						},
						{
							"internalType": "uint16",
							"name": "minFeeBps",
							"type": "uint16"
						},
						{
							"internalType": "uint16",
							"name": "maxFeeBps",
							"type": "uint16"
						}
					],
					"internalType": "struct SignedMintValidationParams",
					"name": "signedMintValidationParams",
					"type": "tuple"
				}
			],
			"name": "updateSignedMintValidationParams",
			"outputs": [],
			"stateMutability": "nonpayable",
			"type": "function"
		},
		{
			"inputs": [
				{
					"internalType": "address",
					"name": "seaDropImpl",
					"type": "address"
				},
				{
					"internalType": "address",
					"name": "allowedNftToken",
					"type": "address"
				},
				{
					"components": [
						{
							"internalType": "uint80",
							"name": "mintPrice",
							"type": "uint80"
						},
						{
							"internalType": "uint16",
							"name": "maxTotalMintableByWallet",
							"type": "uint16"
						},
						{
							"internalType": "uint48",
							"name": "startTime",
							"type": "uint48"
						},
						{
							"internalType": "uint48",
							"name": "endTime",
							"type": "uint48"
						},
						{
							"internalType": "uint8",
							"name": "dropStageIndex",
							"type": "uint8"
						},
						{
							"internalType": "uint32",
							"name": "maxTokenSupplyForStage",
							"type": "uint32"
						},
						{
							"internalType": "uint16",
							"name": "feeBps",
							"type": "uint16"
						},
						{
							"internalType": "bool",
							"name": "restrictFeeRecipients",
							"type": "bool"
						}
					],
					"internalType": "struct TokenGatedDropStage",
					"name": "dropStage",
					"type": "tuple"
				}
			],
			"name": "updateTokenGatedDrop",
			"outputs": [],
			"stateMutability": "nonpayable",
			"type": "function"
		},
		{
			"inputs": [
				{
					"internalType": "bool",
					"name": "paused",
					"type": "bool"
				}
			],
			"name": "updateTransfersPaused",
			"outputs": [],
			"stateMutability": "nonpayable",
			"type": "function"
		}
	]
}