{
	"data": {
		"bytecode": {
			"linkReferences": {},
			"object": "6080604052348015600e575f5ffd5b503380603357604051631e4fbdf760e01b81525f600482015260240160405180910390fd5b603a81603f565b50608e565b5f80546001600160a01b038381166001600160a01b0319831681178455604051919092169283917f8be0079c531659141344cd1fd0a4f28419497f9722a3daafe3b4186f6b6457e09190a35050565b6105a18061009b5f395ff3fe608060405234801561000f575f5ffd5b5060043610610060575f3560e01c806302bb3d74146100645780632f6987f11461008d578063715018a6146100a0578063749f1647146100aa5780638da5cb5b146100bd578063f2fde38b146100d7575b5f5ffd5b6100776100723660046103ef565b6100ea565b6040516100849190610421565b60405180910390f35b61007761009b366004610456565b6100ff565b6100a861010b565b005b6100a86100b8366004610481565b61011e565b5f546040516001600160a01b039091168152602001610084565b6100a86100e536600461053e565b61015e565b60606100f683836101a0565b90505b92915050565b60606100f9825f6101a0565b61011361022a565b61011c5f610256565b565b61012661022a565b61012f816102a5565b5f9283526001602052604090922080546001600160a01b0319166001600160a01b039093169290921790915550565b61016661022a565b6001600160a01b03811661019457604051631e4fbdf760e01b81525f60048201526024015b60405180910390fd5b61019d81610256565b50565b5f828152600160205260409020546060906001600160a01b0316806101fe5760405162461bcd60e51b8152602060048201526014602482015273105cdcd95d08191bd95cc81b9bdd08195e1a5cdd60621b604482015260640161018b565b5f610208826102eb565b905083156102225761021981610333565b925050506100f9565b949350505050565b5f546001600160a01b0316331461011c5760405163118cdaa760e01b815233600482015260240161018b565b5f80546001600160a01b038381166001600160a01b0319831681178455604051919092169283917f8be0079c531659141344cd1fd0a4f28419497f9722a3daafe3b4186f6b6457e09190a35050565b5f8151600181018060401b6bfd61000080600a3d393df3001761ffff8211850152600a8101601585015ff0925050816102e55763301164255f526004601cfd5b90915290565b6060813b80610301576311052bb45f526004601cfd5b600181039050604051915061ffe0603f82011682016040528082525f8160208401015280600160208401853c50919050565b60405181516020838101938184019201015b808410156103d7578351805f1a8060051c80610377575060018681015185529581016002019593019092019150610345565b600781148360011a600701821881028218600201600185836001011a85601f1660081b0101808803602082186020831102821891505f5b818101518a82015282018381106103ae579a84016002019a988301985050505050505050610345565b50601f198282030182525f8152602001604052919050565b5f5f60408385031215610400575f5ffd5b8235915060208301358015158114610416575f5ffd5b809150509250929050565b602081525f82518060208401528060208501604085015e5f604082850101526040601f19601f83011684010191505092915050565b5f60208284031215610466575f5ffd5b5035919050565b634e487b7160e01b5f52604160045260245ffd5b5f5f60408385031215610492575f5ffd5b82359150602083013567ffffffffffffffff8111156104af575f5ffd5b8301601f810185136104bf575f5ffd5b803567ffffffffffffffff8111156104d9576104d961046d565b604051601f8201601f19908116603f0116810167ffffffffffffffff811182821017156105085761050861046d565b60405281815282820160200187101561051f575f5ffd5b816020840160208301375f602083830101528093505050509250929050565b5f6020828403121561054e575f5ffd5b81356001600160a01b0381168114610564575f5ffd5b939250505056fea26469706673582212203d97e9fa6b9f8765c6a5933f048781601661b7c922caa2bd852a2c3d511ce5df64736f6c634300081e0033",
			"opcodes": "PUSH1 0x80 PUSH1 0x40 MSTORE CALLVALUE DUP1 ISZERO PUSH1 0xE JUMPI PUSH0 PUSH0 REVERT JUMPDEST POP CALLER DUP1 PUSH1 0x33 JUMPI PUSH1 0x40 MLOAD PUSH4 0x1E4FBDF7 PUSH1 0xE0 SHL DUP2 MSTORE PUSH0 PUSH1 0x4 DUP3 ADD MSTORE PUSH1 0x24 ADD PUSH1 0x40 MLOAD DUP1 SWAP2 SUB SWAP1 REVERT JUMPDEST PUSH1 0x3A DUP2 PUSH1 0x3F JUMP JUMPDEST POP PUSH1 0x8E JUMP JUMPDEST PUSH0 DUP1 SLOAD PUSH1 0x1 PUSH1 0x1 PUSH1 0xA0 SHL SUB DUP4 DUP2 AND PUSH1 0x1 PUSH1 0x1 PUSH1 0xA0 SHL SUB NOT DUP4 AND DUP2 OR DUP5 SSTORE PUSH1 0x40 MLOAD SWAP2 SWAP1 SWAP3 AND SWAP3 DUP4 SWAP2 PUSH32 0x8BE0079C531659141344CD1FD0A4F28419497F9722A3DAAFE3B4186F6B6457E0 SWAP2 SWAP1 LOG3 POP POP JUMP JUMPDEST PUSH2 0x5A1 DUP1 PUSH2 0x9B PUSH0 CODECOPY PUSH0 RETURN INVALID PUSH1 0x80 PUSH1 0x40 MSTORE CALLVALUE DUP1 ISZERO PUSH2 0xF JUMPI PUSH0 PUSH0 REVERT JUMPDEST POP PUSH1 0x4 CALLDATASIZE LT PUSH2 0x60 JUMPI PUSH0 CALLDATALOAD PUSH1 0xE0 SHR DUP1 PUSH4 0x2BB3D74 EQ PUSH2 0x64 JUMPI DUP1 PUSH4 0x2F6987F1 EQ PUSH2 0x8D JUMPI DUP1 PUSH4 0x715018A6 EQ PUSH2 0xA0 JUMPI DUP1 PUSH4 0x749F1647 EQ PUSH2 0xAA JUMPI DUP1 PUSH4 0x8DA5CB5B EQ PUSH2 0xBD JUMPI DUP1 PUSH4 0xF2FDE38B EQ PUSH2 0xD7 JUMPI JUMPDEST PUSH0 PUSH0 REVERT JUMPDEST PUSH2 0x77 PUSH2 0x72 CALLDATASIZE PUSH1 0x4 PUSH2 0x3EF JUMP JUMPDEST PUSH2 0xEA JUMP JUMPDEST PUSH1 0x40 MLOAD PUSH2 0x84 SWAP2 SWAP1 PUSH2 0x421 JUMP JUMPDEST PUSH1 0x40 MLOAD DUP1 SWAP2 SUB SWAP1 RETURN JUMPDEST PUSH2 0x77 PUSH2 0x9B CALLDATASIZE PUSH1 0x4 PUSH2 0x456 JUMP JUMPDEST PUSH2 0xFF JUMP JUMPDEST PUSH2 0xA8 PUSH2 0x10B JUMP JUMPDEST STOP JUMPDEST PUSH2 0xA8 PUSH2 0xB8 CALLDATASIZE PUSH1 0x4 PUSH2 0x481 JUMP JUMPDEST PUSH2 0x11E JUMP JUMPDEST PUSH0 SLOAD PUSH1 0x40 MLOAD PUSH1 0x1 PUSH1 0x1 PUSH1 0xA0 SHL SUB SWAP1 SWAP2 AND DUP2 MSTORE PUSH1 0x20 ADD PUSH2 0x84 JUMP JUMPDEST PUSH2 0xA8 PUSH2 0xE5 CALLDATASIZE PUSH1 0x4 PUSH2 0x53E JUMP JUMPDEST PUSH2 0x15E JUMP JUMPDEST PUSH1 0x60 PUSH2 0xF6 DUP4 DUP4 PUSH2 0x1A0 JUMP JUMPDEST SWAP1 POP JUMPDEST SWAP3 SWAP2 POP POP JUMP JUMPDEST PUSH1 0x60 PUSH2 0xF9 DUP3 PUSH0 PUSH2 0x1A0 JUMP JUMPDEST PUSH2 0x113 PUSH2 0x22A JUMP JUMPDEST PUSH2 0x11C PUSH0 PUSH2 0x256 JUMP JUMPDEST JUMP JUMPDEST PUSH2 0x126 PUSH2 0x22A JUMP JUMPDEST PUSH2 0x12F DUP2 PUSH2 0x2A5 JUMP JUMPDEST PUSH0 SWAP3 DUP4 MSTORE PUSH1 0x1 PUSH1 0x20 MSTORE PUSH1 0x40 SWAP1 SWAP3 KECCAK256 DUP1 SLOAD PUSH1 0x1 PUSH1 0x1 PUSH1 0xA0 SHL SUB NOT AND PUSH1 0x1 PUSH1 0x1 PUSH1 0xA0 SHL SUB SWAP1 SWAP4 AND SWAP3 SWAP1 SWAP3 OR SWAP1 SWAP2 SSTORE POP JUMP JUMPDEST PUSH2 0x166 PUSH2 0x22A JUMP JUMPDEST PUSH1 0x1 PUSH1 0x1 PUSH1 0xA0 SHL SUB DUP2 AND PUSH2 0x194 JUMPI PUSH1 0x40 MLOAD PUSH4 0x1E4FBDF7 PUSH1 0xE0 SHL DUP2 MSTORE PUSH0 PUSH1 0x4 DUP3 ADD MSTORE PUSH1 0x24 ADD JUMPDEST PUSH1 0x40 MLOAD DUP1 SWAP2 SUB SWAP1 REVERT JUMPDEST PUSH2 0x19D DUP2 PUSH2 0x256 JUMP JUMPDEST POP JUMP JUMPDEST PUSH0 DUP3 DUP2 MSTORE PUSH1 0x1 PUSH1 0x20 MSTORE PUSH1 0x40 SWAP1 KECCAK256 SLOAD PUSH1 0x60 SWAP1 PUSH1 0x1 PUSH1 0x1 PUSH1 0xA0 SHL SUB AND DUP1 PUSH2 0x1FE JUMPI PUSH1 0x40 MLOAD PUSH3 0x461BCD PUSH1 0xE5 SHL DUP2 MSTORE PUSH1 0x20 PUSH1 0x4 DUP3 ADD MSTORE PUSH1 0x14 PUSH1 0x24 DUP3 ADD MSTORE PUSH20 0x105CDCD95D08191BD95CC81B9BDD08195E1A5CDD PUSH1 0x62 SHL PUSH1 0x44 DUP3 ADD MSTORE PUSH1 0x64 ADD PUSH2 0x18B JUMP JUMPDEST PUSH0 PUSH2 0x208 DUP3 PUSH2 0x2EB JUMP JUMPDEST SWAP1 POP DUP4 ISZERO PUSH2 0x222 JUMPI PUSH2 0x219 DUP2 PUSH2 0x333 JUMP JUMPDEST SWAP3 POP POP POP PUSH2 0xF9 JUMP JUMPDEST SWAP5 SWAP4 POP POP POP POP JUMP JUMPDEST PUSH0 SLOAD PUSH1 0x1 PUSH1 0x1 PUSH1 0xA0 SHL SUB AND CALLER EQ PUSH2 0x11C JUMPI PUSH1 0x40 MLOAD PUSH4 0x118CDAA7 PUSH1 0xE0 SHL DUP2 MSTORE CALLER PUSH1 0x4 DUP3 ADD MSTORE PUSH1 0x24 ADD PUSH2 0x18B JUMP JUMPDEST PUSH0 DUP1 SLOAD PUSH1 0x1 PUSH1 0x1 PUSH1 0xA0 SHL SUB DUP4 DUP2 AND PUSH1 0x1 PUSH1 0x1 PUSH1 0xA0 SHL SUB NOT DUP4 AND DUP2 OR DUP5 SSTORE PUSH1 0x40 MLOAD SWAP2 SWAP1 SWAP3 AND SWAP3 DUP4 SWAP2 PUSH32 0x8BE0079C531659141344CD1FD0A4F28419497F9722A3DAAFE3B4186F6B6457E0 SWAP2 SWAP1 LOG3 POP POP JUMP JUMPDEST PUSH0 DUP2 MLOAD PUSH1 0x1 DUP2 ADD DUP1 PUSH1 0x40 SHL PUSH12 0xFD61000080600A3D393DF300 OR PUSH2 0xFFFF DUP3 GT DUP6 ADD MSTORE PUSH1 0xA DUP2 ADD PUSH1 0x15 DUP6 ADD PUSH0 CREATE SWAP3 POP POP DUP2 PUSH2 0x2E5 JUMPI PUSH4 0x30116425 PUSH0 MSTORE PUSH1 0x4 PUSH1 0x1C REVERT JUMPDEST SWAP1 SWAP2 MSTORE SWAP1 JUMP JUMPDEST PUSH1 0x60 DUP2 EXTCODESIZE DUP1 PUSH2 0x301 JUMPI PUSH4 0x11052BB4 PUSH0 MSTORE PUSH1 0x4 PUSH1 0x1C REVERT JUMPDEST PUSH1 0x1 DUP2 SUB SWAP1 POP PUSH1 0x40 MLOAD SWAP2 POP PUSH2 0xFFE0 PUSH1 0x3F DUP3 ADD AND DUP3 ADD PUSH1 0x40 MSTORE DUP1 DUP3 MSTORE PUSH0 DUP2 PUSH1 0x20 DUP5 ADD ADD MSTORE DUP1 PUSH1 0x1 PUSH1 0x20 DUP5 ADD DUP6 EXTCODECOPY POP SWAP2 SWAP1 POP JUMP JUMPDEST PUSH1 0x40 MLOAD DUP2 MLOAD PUSH1 0x20 DUP4 DUP2 ADD SWAP4 DUP2 DUP5 ADD SWAP3 ADD ADD JUMPDEST DUP1 DUP5 LT ISZERO PUSH2 0x3D7 JUMPI DUP4 MLOAD DUP1 PUSH0 BYTE DUP1 PUSH1 0x5 SHR DUP1 PUSH2 0x377 JUMPI POP PUSH1 0x1 DUP7 DUP2 ADD MLOAD DUP6 MSTORE SWAP6 DUP2 ADD PUSH1 0x2 ADD SWAP6 SWAP4 ADD SWAP1 SWAP3 ADD SWAP2 POP PUSH2 0x345 JUMP JUMPDEST PUSH1 0x7 DUP2 EQ DUP4 PUSH1 0x1 BYTE PUSH1 0x7 ADD DUP3 XOR DUP2 MUL DUP3 XOR PUSH1 0x2 ADD PUSH1 0x1 DUP6 DUP4 PUSH1 0x1 ADD BYTE DUP6 PUSH1 0x1F AND PUSH1 0x8 SHL ADD ADD DUP1 DUP9 SUB PUSH1 0x20 DUP3 XOR PUSH1 0x20 DUP4 GT MUL DUP3 XOR SWAP2 POP PUSH0 JUMPDEST DUP2 DUP2 ADD MLOAD DUP11 DUP3 ADD MSTORE DUP3 ADD DUP4 DUP2 LT PUSH2 0x3AE JUMPI SWAP11 DUP5 ADD PUSH1 0x2 ADD SWAP11 SWAP9 DUP4 ADD SWAP9 POP POP POP POP POP POP POP POP PUSH2 0x345 JUMP JUMPDEST POP PUSH1 0x1F NOT DUP3 DUP3 SUB ADD DUP3 MSTORE PUSH0 DUP2 MSTORE PUSH1 0x20 ADD PUSH1 0x40 MSTORE SWAP2 SWAP1 POP JUMP JUMPDEST PUSH0 PUSH0 PUSH1 0x40 DUP4 DUP6 SUB SLT ISZERO PUSH2 0x400 JUMPI PUSH0 PUSH0 REVERT JUMPDEST DUP3 CALLDATALOAD SWAP2 POP PUSH1 0x20 DUP4 ADD CALLDATALOAD DUP1 ISZERO ISZERO DUP2 EQ PUSH2 0x416 JUMPI PUSH0 PUSH0 REVERT JUMPDEST DUP1 SWAP2 POP POP SWAP3 POP SWAP3 SWAP1 POP JUMP JUMPDEST PUSH1 0x20 DUP2 MSTORE PUSH0 DUP3 MLOAD DUP1 PUSH1 0x20 DUP5 ADD MSTORE DUP1 PUSH1 0x20 DUP6 ADD PUSH1 0x40 DUP6 ADD MCOPY PUSH0 PUSH1 0x40 DUP3 DUP6 ADD ADD MSTORE PUSH1 0x40 PUSH1 0x1F NOT PUSH1 0x1F DUP4 ADD AND DUP5 ADD ADD SWAP2 POP POP SWAP3 SWAP2 POP POP JUMP JUMPDEST PUSH0 PUSH1 0x20 DUP3 DUP5 SUB SLT ISZERO PUSH2 0x466 JUMPI PUSH0 PUSH0 REVERT JUMPDEST POP CALLDATALOAD SWAP2 SWAP1 POP JUMP JUMPDEST PUSH4 0x4E487B71 PUSH1 0xE0 SHL PUSH0 MSTORE PUSH1 0x41 PUSH1 0x4 MSTORE PUSH1 0x24 PUSH0 REVERT JUMPDEST PUSH0 PUSH0 PUSH1 0x40 DUP4 DUP6 SUB SLT ISZERO PUSH2 0x492 JUMPI PUSH0 PUSH0 REVERT JUMPDEST DUP3 CALLDATALOAD SWAP2 POP PUSH1 0x20 DUP4 ADD CALLDATALOAD PUSH8 0xFFFFFFFFFFFFFFFF DUP2 GT ISZERO PUSH2 0x4AF JUMPI PUSH0 PUSH0 REVERT JUMPDEST DUP4 ADD PUSH1 0x1F DUP2 ADD DUP6 SGT PUSH2 0x4BF JUMPI PUSH0 PUSH0 REVERT JUMPDEST DUP1 CALLDATALOAD PUSH8 0xFFFFFFFFFFFFFFFF DUP2 GT ISZERO PUSH2 0x4D9 JUMPI PUSH2 0x4D9 PUSH2 0x46D JUMP JUMPDEST PUSH1 0x40 MLOAD PUSH1 0x1F DUP3 ADD PUSH1 0x1F NOT SWAP1 DUP2 AND PUSH1 0x3F ADD AND DUP2 ADD PUSH8 0xFFFFFFFFFFFFFFFF DUP2 GT DUP3 DUP3 LT OR ISZERO PUSH2 0x508 JUMPI PUSH2 0x508 PUSH2 0x46D JUMP JUMPDEST PUSH1 0x40 MSTORE DUP2 DUP2 MSTORE DUP3 DUP3 ADD PUSH1 0x20 ADD DUP8 LT ISZERO PUSH2 0x51F JUMPI PUSH0 PUSH0 REVERT JUMPDEST DUP2 PUSH1 0x20 DUP5 ADD PUSH1 0x20 DUP4 ADD CALLDATACOPY PUSH0 PUSH1 0x20 DUP4 DUP4 ADD ADD MSTORE DUP1 SWAP4 POP POP POP POP SWAP3 POP SWAP3 SWAP1 POP JUMP JUMPDEST PUSH0 PUSH1 0x20 DUP3 DUP5 SUB SLT ISZERO PUSH2 0x54E JUMPI PUSH0 PUSH0 REVERT JUMPDEST DUP2 CALLDATALOAD PUSH1 0x1 PUSH1 0x1 PUSH1 0xA0 SHL SUB DUP2 AND DUP2 EQ PUSH2 0x564 JUMPI PUSH0 PUSH0 REVERT JUMPDEST SWAP4 SWAP3 POP POP POP JUMP INVALID LOG2 PUSH5 0x6970667358 0x22 SLT KECCAK256 RETURNDATASIZE SWAP8 0xE9 STATICCALL PUSH12 0x9F8765C6A5933F0487816016 PUSH2 0xB7C9 0x22 0xCA LOG2 0xBD DUP6 0x2A 0x2C RETURNDATASIZE MLOAD SHR JUMPF 0xDF64 PUSH20 0x6F6C634300081E00330000000000000000000000 "
		},
		"gasEstimates": {
			"creation": {
				"codeDepositCost": "288200",
				"executionCost": "26191",
				"totalCost": "314391"
			},
			"external": {
				"addAsset(uint256,bytes)": "infinite",
				"loadAsset(uint256)": "infinite",
				"loadAsset(uint256,bool)": "infinite",
				"owner()": "2365",
				"renounceOwnership()": "infinite",
				"transferOwnership(address)": "28382"
			},
			"internal": {
				"loadAssetInternal(uint256,bool)": "infinite"
			}
		},
		"methodIdentifiers": {
			"addAsset(uint256,bytes)": "749f1647",
			"loadAsset(uint256)": "2f6987f1",
			"loadAsset(uint256,bool)": "02bb3d74",
			"owner()": "8da5cb5b",
			"renounceOwnership()": "715018a6",
			"transferOwnership(address)": "f2fde38b"
		}
	},
	"abi": [
		{
			"inputs": [],
			"stateMutability": "nonpayable",
			"type": "constructor"
		},
		{
			"inputs": [
				{
					"internalType": "address",
					"name": "owner",
					"type": "address"
				}
			],
			"name": "OwnableInvalidOwner",
			"type": "error"
		},
		{
			"inputs": [
				{
					"internalType": "address",
					"name": "account",
					"type": "address"
				}
			],
			"name": "OwnableUnauthorizedAccount",
			"type": "error"
		},
		{
			"anonymous": false,
			"inputs": [
				{
					"indexed": true,
					"internalType": "address",
					"name": "previousOwner",
					"type": "address"
				},
				{
					"indexed": true,
					"internalType": "address",
					"name": "newOwner",
					"type": "address"
				}
			],
			"name": "OwnershipTransferred",
			"type": "event"
		},
		{
			"inputs": [
				{
					"internalType": "uint256",
					"name": "key",
					"type": "uint256"
				},
				{
					"internalType": "bytes",
					"name": "asset",
					"type": "bytes"
				}
			],
			"name": "addAsset",
			"outputs": [],
			"stateMutability": "nonpayable",
			"type": "function"
		},
		{
			"inputs": [
				{
					"internalType": "uint256",
					"name": "key",
					"type": "uint256"
				},
				{
					"internalType": "bool",
					"name": "decompress",
					"type": "bool"
				}
			],
			"name": "loadAsset",
			"outputs": [
				{
					"internalType": "bytes",
					"name": "",
					"type": "bytes"
				}
			],
			"stateMutability": "view",
			"type": "function"
		},
		{
			"inputs": [
				{
					"internalType": "uint256",
					"name": "key",
					"type": "uint256"
				}
			],
			"name": "loadAsset",
			"outputs": [
				{
					"internalType": "bytes",
					"name": "",
					"type": "bytes"
				}
			],
			"stateMutability": "view",
			"type": "function"
		},
		{
			"inputs": [],
			"name": "owner",
			"outputs": [
				{
					"internalType": "address",
					"name": "",
					"type": "address"
				}
			],
			"stateMutability": "view",
			"type": "function"
		},
		{
			"inputs": [],
			"name": "renounceOwnership",
			"outputs": [],
			"stateMutability": "nonpayable",
			"type": "function"
		},
		{
			"inputs": [
				{
					"internalType": "address",
					"name": "newOwner",
					"type": "address"
				}
			],
			"name": "transferOwnership",
			"outputs": [],
			"stateMutability": "nonpayable",
			"type": "function"
		}
	]
}