{
	"data": {
		"bytecode": {
			"linkReferences": {},
			"object": "608080604052346071573315605e575f8054336001600160a01b0319821681178355916001600160a01b03909116907f8be0079c531659141344cd1fd0a4f28419497f9722a3daafe3b4186f6b6457e09080a361089a90816100768239f35b631e4fbdf760e01b5f525f60045260245ffd5b5f80fdfe60806040526004361015610011575f80fd5b5f3560e01c80633e9e21fe146100a457806348b50a3e1461009f57806369dde3791461009a578063715018a614610095578063749f1647146100905780638da5cb5b1461008b578063ed6d374d14610086578063f14f58f1146100815763f2fde38b1461007c575f80fd5b61063e565b6105c5565b610528565b610501565b610435565b61036d565b6102fc565b610261565b346102025760403660031901126102025760043567ffffffffffffffff8111610202576100d5903690600401610206565b9060243567ffffffffffffffff8111610202576100f6903690600401610206565b9190610100610732565b8284036101f3575f5b84811061011257005b61011d8185846106db565b9050156101e4578061014461013f61013860019488876106db565b36916103d8565b610758565b61018481610165610156858b8a610722565b355f52600160205260405f2090565b80546001600160a01b0319166001600160a01b03909216919091179055565b61018f828887610722565b357f85ac039d1da307b778050ca29271ac915424bac011342c9452960f6679b18ff06101db6101bf858a896106db565b949050604051918291888060a01b031695829190602083019252565b0390a301610109565b635072d66360e11b5f5260045ffd5b635203597760e11b5f5260045ffd5b5f80fd5b9181601f840112156102025782359167ffffffffffffffff8311610202576020808501948460051b01011161020257565b602060409281835280519182918282860152018484015e5f828201840152601f01601f1916010190565b34610202576020366003190112610202576004355f908152600160205260409020546001600160a01b031680156102ed57803b9081156102e0576102dc916102d09160015f198301915f601f6040519561ffe0603e82011687016040528587528601015260208401903c61079a565b60405191829182610237565b0390f35b6311052bb45f526004601cfd5b6367fa94e760e01b5f5260045ffd5b34610202576020366003190112610202576004355f908152600160205260409020546001600160a01b031680156102ed57803b80156102e0576102dc9160015f198301915f601f6040519561ffe0603e82011687016040528587528601015260208401903c60405191829182610237565b34610202575f36600319011261020257610385610732565b5f80546001600160a01b0319811682556001600160a01b03167f8be0079c531659141344cd1fd0a4f28419497f9722a3daafe3b4186f6b6457e08280a3005b634e487b7160e01b5f52604160045260245ffd5b92919267ffffffffffffffff82116104305760405191601f8101601f19908116603f0116830167ffffffffffffffff81118482101761043057604052829481845281830111610202578281602093845f960137010152565b6103c4565b346102025760403660031901126102025760043560243567ffffffffffffffff811161020257366023820112156102025761047a9036906024816004013591016103d8565b90610483610732565b8151156104f2577f85ac039d1da307b778050ca29271ac915424bac011342c9452960f6679b18ff060206104b684610758565b5f848152600183526040902080546001600160a01b0319166001600160a01b03831617905593516040519081526001600160a01b0390941693a3005b63f3c9543d60e01b5f5260045ffd5b34610202575f366003190112610202575f546040516001600160a01b039091168152602090f35b346102025760203660031901126102025760043567ffffffffffffffff811161020257610559903690600401610206565b610561610732565b5f5b81811061056c57005b8061057a6001928486610722565b35805f528260205260405f206bffffffffffffffffffffffff60a01b81541690557f80bd04276b946f13ca22d049d583a03881b8fbdb5d3166069772a97baa33845a5f80a201610563565b34610202576020366003190112610202576004356105e1610732565b5f818152600160205260409020546001600160a01b0316156102ed575f81815260016020526040812080546001600160a01b03191690557f80bd04276b946f13ca22d049d583a03881b8fbdb5d3166069772a97baa33845a9080a2005b34610202576020366003190112610202576004356001600160a01b038116908190036102025761066c610732565b80156106b4575f80546001600160a01b03198116831782556001600160a01b0316907f8be0079c531659141344cd1fd0a4f28419497f9722a3daafe3b4186f6b6457e09080a3005b631e4fbdf760e01b5f525f60045260245ffd5b634e487b7160e01b5f52603260045260245ffd5b919081101561071d5760051b81013590601e198136030182121561020257019081359167ffffffffffffffff8311610202576020018236038113610202579190565b6106c7565b919081101561071d5760051b0190565b5f546001600160a01b0316330361074557565b63118cdaa760e01b5f523360045260245ffd5b9081516001810161ffff8160401b6bfd61000080600a3d393df300179111840152600b8101601584015ff092831561078d5752565b63301164255f526004601cfd5b906040519160208301602080835184010192015b8281106107cb5750838103601f190184525f815260200160405250565b8051805f1a918260051c9182156108495760078314928160011a600701811884021893611f008560020192856001011a9160081b160160018101908603906020811860208211021890815f5b8281015f190151898201520183811061084257505050506002929183910101920101915b91906107ae565b8290610817565b5082600193925081846002930151865201019201019161083b56fea2646970667358221220859b49525c56ddc2deb8b5cfaec35edddea3d7bfa4092d61b44eabf5e7a017c164736f6c634300081e0033",
			"opcodes": "PUSH1 0x80 DUP1 PUSH1 0x40 MSTORE CALLVALUE PUSH1 0x71 JUMPI CALLER ISZERO PUSH1 0x5E JUMPI PUSH0 DUP1 SLOAD CALLER PUSH1 0x1 PUSH1 0x1 PUSH1 0xA0 SHL SUB NOT DUP3 AND DUP2 OR DUP4 SSTORE SWAP2 PUSH1 0x1 PUSH1 0x1 PUSH1 0xA0 SHL SUB SWAP1 SWAP2 AND SWAP1 PUSH32 0x8BE0079C531659141344CD1FD0A4F28419497F9722A3DAAFE3B4186F6B6457E0 SWAP1 DUP1 LOG3 PUSH2 0x89A SWAP1 DUP2 PUSH2 0x76 DUP3 CODECOPY RETURN JUMPDEST PUSH4 0x1E4FBDF7 PUSH1 0xE0 SHL PUSH0 MSTORE PUSH0 PUSH1 0x4 MSTORE PUSH1 0x24 PUSH0 REVERT JUMPDEST PUSH0 DUP1 REVERT INVALID PUSH1 0x80 PUSH1 0x40 MSTORE PUSH1 0x4 CALLDATASIZE LT ISZERO PUSH2 0x11 JUMPI PUSH0 DUP1 REVERT JUMPDEST PUSH0 CALLDATALOAD PUSH1 0xE0 SHR DUP1 PUSH4 0x3E9E21FE EQ PUSH2 0xA4 JUMPI DUP1 PUSH4 0x48B50A3E EQ PUSH2 0x9F JUMPI DUP1 PUSH4 0x69DDE379 EQ PUSH2 0x9A JUMPI DUP1 PUSH4 0x715018A6 EQ PUSH2 0x95 JUMPI DUP1 PUSH4 0x749F1647 EQ PUSH2 0x90 JUMPI DUP1 PUSH4 0x8DA5CB5B EQ PUSH2 0x8B JUMPI DUP1 PUSH4 0xED6D374D EQ PUSH2 0x86 JUMPI DUP1 PUSH4 0xF14F58F1 EQ PUSH2 0x81 JUMPI PUSH4 0xF2FDE38B EQ PUSH2 0x7C JUMPI PUSH0 DUP1 REVERT JUMPDEST PUSH2 0x63E JUMP JUMPDEST PUSH2 0x5C5 JUMP JUMPDEST PUSH2 0x528 JUMP JUMPDEST PUSH2 0x501 JUMP JUMPDEST PUSH2 0x435 JUMP JUMPDEST PUSH2 0x36D JUMP JUMPDEST PUSH2 0x2FC JUMP JUMPDEST PUSH2 0x261 JUMP JUMPDEST CALLVALUE PUSH2 0x202 JUMPI PUSH1 0x40 CALLDATASIZE PUSH1 0x3 NOT ADD SLT PUSH2 0x202 JUMPI PUSH1 0x4 CALLDATALOAD PUSH8 0xFFFFFFFFFFFFFFFF DUP2 GT PUSH2 0x202 JUMPI PUSH2 0xD5 SWAP1 CALLDATASIZE SWAP1 PUSH1 0x4 ADD PUSH2 0x206 JUMP JUMPDEST SWAP1 PUSH1 0x24 CALLDATALOAD PUSH8 0xFFFFFFFFFFFFFFFF DUP2 GT PUSH2 0x202 JUMPI PUSH2 0xF6 SWAP1 CALLDATASIZE SWAP1 PUSH1 0x4 ADD PUSH2 0x206 JUMP JUMPDEST SWAP2 SWAP1 PUSH2 0x100 PUSH2 0x732 JUMP JUMPDEST DUP3 DUP5 SUB PUSH2 0x1F3 JUMPI PUSH0 JUMPDEST DUP5 DUP2 LT PUSH2 0x112 JUMPI STOP JUMPDEST PUSH2 0x11D DUP2 DUP6 DUP5 PUSH2 0x6DB JUMP JUMPDEST SWAP1 POP ISZERO PUSH2 0x1E4 JUMPI DUP1 PUSH2 0x144 PUSH2 0x13F PUSH2 0x138 PUSH1 0x1 SWAP5 DUP9 DUP8 PUSH2 0x6DB JUMP JUMPDEST CALLDATASIZE SWAP2 PUSH2 0x3D8 JUMP JUMPDEST PUSH2 0x758 JUMP JUMPDEST PUSH2 0x184 DUP2 PUSH2 0x165 PUSH2 0x156 DUP6 DUP12 DUP11 PUSH2 0x722 JUMP JUMPDEST CALLDATALOAD PUSH0 MSTORE PUSH1 0x1 PUSH1 0x20 MSTORE PUSH1 0x40 PUSH0 KECCAK256 SWAP1 JUMP JUMPDEST DUP1 SLOAD PUSH1 0x1 PUSH1 0x1 PUSH1 0xA0 SHL SUB NOT AND PUSH1 0x1 PUSH1 0x1 PUSH1 0xA0 SHL SUB SWAP1 SWAP3 AND SWAP2 SWAP1 SWAP2 OR SWAP1 SSTORE JUMP JUMPDEST PUSH2 0x18F DUP3 DUP9 DUP8 PUSH2 0x722 JUMP JUMPDEST CALLDATALOAD PUSH32 0x85AC039D1DA307B778050CA29271AC915424BAC011342C9452960F6679B18FF0 PUSH2 0x1DB PUSH2 0x1BF DUP6 DUP11 DUP10 PUSH2 0x6DB JUMP JUMPDEST SWAP5 SWAP1 POP PUSH1 0x40 MLOAD SWAP2 DUP3 SWAP2 DUP9 DUP1 PUSH1 0xA0 SHL SUB AND SWAP6 DUP3 SWAP2 SWAP1 PUSH1 0x20 DUP4 ADD SWAP3 MSTORE JUMP JUMPDEST SUB SWAP1 LOG3 ADD PUSH2 0x109 JUMP JUMPDEST PUSH4 0x5072D663 PUSH1 0xE1 SHL PUSH0 MSTORE PUSH1 0x4 PUSH0 REVERT JUMPDEST PUSH4 0x52035977 PUSH1 0xE1 SHL PUSH0 MSTORE PUSH1 0x4 PUSH0 REVERT JUMPDEST PUSH0 DUP1 REVERT JUMPDEST SWAP2 DUP2 PUSH1 0x1F DUP5 ADD SLT ISZERO PUSH2 0x202 JUMPI DUP3 CALLDATALOAD SWAP2 PUSH8 0xFFFFFFFFFFFFFFFF DUP4 GT PUSH2 0x202 JUMPI PUSH1 0x20 DUP1 DUP6 ADD SWAP5 DUP5 PUSH1 0x5 SHL ADD ADD GT PUSH2 0x202 JUMPI JUMP JUMPDEST PUSH1 0x20 PUSH1 0x40 SWAP3 DUP2 DUP4 MSTORE DUP1 MLOAD SWAP2 DUP3 SWAP2 DUP3 DUP3 DUP7 ADD MSTORE ADD DUP5 DUP5 ADD MCOPY PUSH0 DUP3 DUP3 ADD DUP5 ADD MSTORE PUSH1 0x1F ADD PUSH1 0x1F NOT AND ADD ADD SWAP1 JUMP JUMPDEST CALLVALUE PUSH2 0x202 JUMPI PUSH1 0x20 CALLDATASIZE PUSH1 0x3 NOT ADD SLT PUSH2 0x202 JUMPI PUSH1 0x4 CALLDATALOAD PUSH0 SWAP1 DUP2 MSTORE PUSH1 0x1 PUSH1 0x20 MSTORE PUSH1 0x40 SWAP1 KECCAK256 SLOAD PUSH1 0x1 PUSH1 0x1 PUSH1 0xA0 SHL SUB AND DUP1 ISZERO PUSH2 0x2ED JUMPI DUP1 EXTCODESIZE SWAP1 DUP2 ISZERO PUSH2 0x2E0 JUMPI PUSH2 0x2DC SWAP2 PUSH2 0x2D0 SWAP2 PUSH1 0x1 PUSH0 NOT DUP4 ADD SWAP2 PUSH0 PUSH1 0x1F PUSH1 0x40 MLOAD SWAP6 PUSH2 0xFFE0 PUSH1 0x3E DUP3 ADD AND DUP8 ADD PUSH1 0x40 MSTORE DUP6 DUP8 MSTORE DUP7 ADD ADD MSTORE PUSH1 0x20 DUP5 ADD SWAP1 EXTCODECOPY PUSH2 0x79A JUMP JUMPDEST PUSH1 0x40 MLOAD SWAP2 DUP3 SWAP2 DUP3 PUSH2 0x237 JUMP JUMPDEST SUB SWAP1 RETURN JUMPDEST PUSH4 0x11052BB4 PUSH0 MSTORE PUSH1 0x4 PUSH1 0x1C REVERT JUMPDEST PUSH4 0x67FA94E7 PUSH1 0xE0 SHL PUSH0 MSTORE PUSH1 0x4 PUSH0 REVERT JUMPDEST CALLVALUE PUSH2 0x202 JUMPI PUSH1 0x20 CALLDATASIZE PUSH1 0x3 NOT ADD SLT PUSH2 0x202 JUMPI PUSH1 0x4 CALLDATALOAD PUSH0 SWAP1 DUP2 MSTORE PUSH1 0x1 PUSH1 0x20 MSTORE PUSH1 0x40 SWAP1 KECCAK256 SLOAD PUSH1 0x1 PUSH1 0x1 PUSH1 0xA0 SHL SUB AND DUP1 ISZERO PUSH2 0x2ED JUMPI DUP1 EXTCODESIZE DUP1 ISZERO PUSH2 0x2E0 JUMPI PUSH2 0x2DC SWAP2 PUSH1 0x1 PUSH0 NOT DUP4 ADD SWAP2 PUSH0 PUSH1 0x1F PUSH1 0x40 MLOAD SWAP6 PUSH2 0xFFE0 PUSH1 0x3E DUP3 ADD AND DUP8 ADD PUSH1 0x40 MSTORE DUP6 DUP8 MSTORE DUP7 ADD ADD MSTORE PUSH1 0x20 DUP5 ADD SWAP1 EXTCODECOPY PUSH1 0x40 MLOAD SWAP2 DUP3 SWAP2 DUP3 PUSH2 0x237 JUMP JUMPDEST CALLVALUE PUSH2 0x202 JUMPI PUSH0 CALLDATASIZE PUSH1 0x3 NOT ADD SLT PUSH2 0x202 JUMPI PUSH2 0x385 PUSH2 0x732 JUMP JUMPDEST PUSH0 DUP1 SLOAD PUSH1 0x1 PUSH1 0x1 PUSH1 0xA0 SHL SUB NOT DUP2 AND DUP3 SSTORE PUSH1 0x1 PUSH1 0x1 PUSH1 0xA0 SHL SUB AND PUSH32 0x8BE0079C531659141344CD1FD0A4F28419497F9722A3DAAFE3B4186F6B6457E0 DUP3 DUP1 LOG3 STOP JUMPDEST PUSH4 0x4E487B71 PUSH1 0xE0 SHL PUSH0 MSTORE PUSH1 0x41 PUSH1 0x4 MSTORE PUSH1 0x24 PUSH0 REVERT JUMPDEST SWAP3 SWAP2 SWAP3 PUSH8 0xFFFFFFFFFFFFFFFF DUP3 GT PUSH2 0x430 JUMPI PUSH1 0x40 MLOAD SWAP2 PUSH1 0x1F DUP2 ADD PUSH1 0x1F NOT SWAP1 DUP2 AND PUSH1 0x3F ADD AND DUP4 ADD PUSH8 0xFFFFFFFFFFFFFFFF DUP2 GT DUP5 DUP3 LT OR PUSH2 0x430 JUMPI PUSH1 0x40 MSTORE DUP3 SWAP5 DUP2 DUP5 MSTORE DUP2 DUP4 ADD GT PUSH2 0x202 JUMPI DUP3 DUP2 PUSH1 0x20 SWAP4 DUP5 PUSH0 SWAP7 ADD CALLDATACOPY ADD ADD MSTORE JUMP JUMPDEST PUSH2 0x3C4 JUMP JUMPDEST CALLVALUE PUSH2 0x202 JUMPI PUSH1 0x40 CALLDATASIZE PUSH1 0x3 NOT ADD SLT PUSH2 0x202 JUMPI PUSH1 0x4 CALLDATALOAD PUSH1 0x24 CALLDATALOAD PUSH8 0xFFFFFFFFFFFFFFFF DUP2 GT PUSH2 0x202 JUMPI CALLDATASIZE PUSH1 0x23 DUP3 ADD SLT ISZERO PUSH2 0x202 JUMPI PUSH2 0x47A SWAP1 CALLDATASIZE SWAP1 PUSH1 0x24 DUP2 PUSH1 0x4 ADD CALLDATALOAD SWAP2 ADD PUSH2 0x3D8 JUMP JUMPDEST SWAP1 PUSH2 0x483 PUSH2 0x732 JUMP JUMPDEST DUP2 MLOAD ISZERO PUSH2 0x4F2 JUMPI PUSH32 0x85AC039D1DA307B778050CA29271AC915424BAC011342C9452960F6679B18FF0 PUSH1 0x20 PUSH2 0x4B6 DUP5 PUSH2 0x758 JUMP JUMPDEST PUSH0 DUP5 DUP2 MSTORE PUSH1 0x1 DUP4 MSTORE PUSH1 0x40 SWAP1 KECCAK256 DUP1 SLOAD PUSH1 0x1 PUSH1 0x1 PUSH1 0xA0 SHL SUB NOT AND PUSH1 0x1 PUSH1 0x1 PUSH1 0xA0 SHL SUB DUP4 AND OR SWAP1 SSTORE SWAP4 MLOAD PUSH1 0x40 MLOAD SWAP1 DUP2 MSTORE PUSH1 0x1 PUSH1 0x1 PUSH1 0xA0 SHL SUB SWAP1 SWAP5 AND SWAP4 LOG3 STOP JUMPDEST PUSH4 0xF3C9543D PUSH1 0xE0 SHL PUSH0 MSTORE PUSH1 0x4 PUSH0 REVERT JUMPDEST CALLVALUE PUSH2 0x202 JUMPI PUSH0 CALLDATASIZE PUSH1 0x3 NOT ADD SLT PUSH2 0x202 JUMPI PUSH0 SLOAD PUSH1 0x40 MLOAD PUSH1 0x1 PUSH1 0x1 PUSH1 0xA0 SHL SUB SWAP1 SWAP2 AND DUP2 MSTORE PUSH1 0x20 SWAP1 RETURN JUMPDEST CALLVALUE PUSH2 0x202 JUMPI PUSH1 0x20 CALLDATASIZE PUSH1 0x3 NOT ADD SLT PUSH2 0x202 JUMPI PUSH1 0x4 CALLDATALOAD PUSH8 0xFFFFFFFFFFFFFFFF DUP2 GT PUSH2 0x202 JUMPI PUSH2 0x559 SWAP1 CALLDATASIZE SWAP1 PUSH1 0x4 ADD PUSH2 0x206 JUMP JUMPDEST PUSH2 0x561 PUSH2 0x732 JUMP JUMPDEST PUSH0 JUMPDEST DUP2 DUP2 LT PUSH2 0x56C JUMPI STOP JUMPDEST DUP1 PUSH2 0x57A PUSH1 0x1 SWAP3 DUP5 DUP7 PUSH2 0x722 JUMP JUMPDEST CALLDATALOAD DUP1 PUSH0 MSTORE DUP3 PUSH1 0x20 MSTORE PUSH1 0x40 PUSH0 KECCAK256 PUSH12 0xFFFFFFFFFFFFFFFFFFFFFFFF PUSH1 0xA0 SHL DUP2 SLOAD AND SWAP1 SSTORE PUSH32 0x80BD04276B946F13CA22D049D583A03881B8FBDB5D3166069772A97BAA33845A PUSH0 DUP1 LOG2 ADD PUSH2 0x563 JUMP JUMPDEST CALLVALUE PUSH2 0x202 JUMPI PUSH1 0x20 CALLDATASIZE PUSH1 0x3 NOT ADD SLT PUSH2 0x202 JUMPI PUSH1 0x4 CALLDATALOAD PUSH2 0x5E1 PUSH2 0x732 JUMP JUMPDEST PUSH0 DUP2 DUP2 MSTORE PUSH1 0x1 PUSH1 0x20 MSTORE PUSH1 0x40 SWAP1 KECCAK256 SLOAD PUSH1 0x1 PUSH1 0x1 PUSH1 0xA0 SHL SUB AND ISZERO PUSH2 0x2ED JUMPI PUSH0 DUP2 DUP2 MSTORE PUSH1 0x1 PUSH1 0x20 MSTORE PUSH1 0x40 DUP2 KECCAK256 DUP1 SLOAD PUSH1 0x1 PUSH1 0x1 PUSH1 0xA0 SHL SUB NOT AND SWAP1 SSTORE PUSH32 0x80BD04276B946F13CA22D049D583A03881B8FBDB5D3166069772A97BAA33845A SWAP1 DUP1 LOG2 STOP JUMPDEST CALLVALUE PUSH2 0x202 JUMPI PUSH1 0x20 CALLDATASIZE PUSH1 0x3 NOT ADD SLT PUSH2 0x202 JUMPI PUSH1 0x4 CALLDATALOAD PUSH1 0x1 PUSH1 0x1 PUSH1 0xA0 SHL SUB DUP2 AND SWAP1 DUP2 SWAP1 SUB PUSH2 0x202 JUMPI PUSH2 0x66C PUSH2 0x732 JUMP JUMPDEST DUP1 ISZERO PUSH2 0x6B4 JUMPI PUSH0 DUP1 SLOAD PUSH1 0x1 PUSH1 0x1 PUSH1 0xA0 SHL SUB NOT DUP2 AND DUP4 OR DUP3 SSTORE PUSH1 0x1 PUSH1 0x1 PUSH1 0xA0 SHL SUB AND SWAP1 PUSH32 0x8BE0079C531659141344CD1FD0A4F28419497F9722A3DAAFE3B4186F6B6457E0 SWAP1 DUP1 LOG3 STOP JUMPDEST PUSH4 0x1E4FBDF7 PUSH1 0xE0 SHL PUSH0 MSTORE PUSH0 PUSH1 0x4 MSTORE PUSH1 0x24 PUSH0 REVERT JUMPDEST PUSH4 0x4E487B71 PUSH1 0xE0 SHL PUSH0 MSTORE PUSH1 0x32 PUSH1 0x4 MSTORE PUSH1 0x24 PUSH0 REVERT JUMPDEST SWAP2 SWAP1 DUP2 LT ISZERO PUSH2 0x71D JUMPI PUSH1 0x5 SHL DUP2 ADD CALLDATALOAD SWAP1 PUSH1 0x1E NOT DUP2 CALLDATASIZE SUB ADD DUP3 SLT ISZERO PUSH2 0x202 JUMPI ADD SWAP1 DUP2 CALLDATALOAD SWAP2 PUSH8 0xFFFFFFFFFFFFFFFF DUP4 GT PUSH2 0x202 JUMPI PUSH1 0x20 ADD DUP3 CALLDATASIZE SUB DUP2 SGT PUSH2 0x202 JUMPI SWAP2 SWAP1 JUMP JUMPDEST PUSH2 0x6C7 JUMP JUMPDEST SWAP2 SWAP1 DUP2 LT ISZERO PUSH2 0x71D JUMPI PUSH1 0x5 SHL ADD SWAP1 JUMP JUMPDEST PUSH0 SLOAD PUSH1 0x1 PUSH1 0x1 PUSH1 0xA0 SHL SUB AND CALLER SUB PUSH2 0x745 JUMPI JUMP JUMPDEST PUSH4 0x118CDAA7 PUSH1 0xE0 SHL PUSH0 MSTORE CALLER PUSH1 0x4 MSTORE PUSH1 0x24 PUSH0 REVERT JUMPDEST SWAP1 DUP2 MLOAD PUSH1 0x1 DUP2 ADD PUSH2 0xFFFF DUP2 PUSH1 0x40 SHL PUSH12 0xFD61000080600A3D393DF300 OR SWAP2 GT DUP5 ADD MSTORE PUSH1 0xB DUP2 ADD PUSH1 0x15 DUP5 ADD PUSH0 CREATE SWAP3 DUP4 ISZERO PUSH2 0x78D JUMPI MSTORE JUMP JUMPDEST PUSH4 0x30116425 PUSH0 MSTORE PUSH1 0x4 PUSH1 0x1C REVERT JUMPDEST SWAP1 PUSH1 0x40 MLOAD SWAP2 PUSH1 0x20 DUP4 ADD PUSH1 0x20 DUP1 DUP4 MLOAD DUP5 ADD ADD SWAP3 ADD JUMPDEST DUP3 DUP2 LT PUSH2 0x7CB JUMPI POP DUP4 DUP2 SUB PUSH1 0x1F NOT ADD DUP5 MSTORE PUSH0 DUP2 MSTORE PUSH1 0x20 ADD PUSH1 0x40 MSTORE POP JUMP JUMPDEST DUP1 MLOAD DUP1 PUSH0 BYTE SWAP2 DUP3 PUSH1 0x5 SHR SWAP2 DUP3 ISZERO PUSH2 0x849 JUMPI PUSH1 0x7 DUP4 EQ SWAP3 DUP2 PUSH1 0x1 BYTE PUSH1 0x7 ADD DUP2 XOR DUP5 MUL XOR SWAP4 PUSH2 0x1F00 DUP6 PUSH1 0x2 ADD SWAP3 DUP6 PUSH1 0x1 ADD BYTE SWAP2 PUSH1 0x8 SHL AND ADD PUSH1 0x1 DUP2 ADD SWAP1 DUP7 SUB SWAP1 PUSH1 0x20 DUP2 XOR PUSH1 0x20 DUP3 GT MUL XOR SWAP1 DUP2 PUSH0 JUMPDEST DUP3 DUP2 ADD PUSH0 NOT ADD MLOAD DUP10 DUP3 ADD MSTORE ADD DUP4 DUP2 LT PUSH2 0x842 JUMPI POP POP POP POP PUSH1 0x2 SWAP3 SWAP2 DUP4 SWAP2 ADD ADD SWAP3 ADD ADD SWAP2 JUMPDEST SWAP2 SWAP1 PUSH2 0x7AE JUMP JUMPDEST DUP3 SWAP1 PUSH2 0x817 JUMP JUMPDEST POP DUP3 PUSH1 0x1 SWAP4 SWAP3 POP DUP2 DUP5 PUSH1 0x2 SWAP4 ADD MLOAD DUP7 MSTORE ADD ADD SWAP3 ADD ADD SWAP2 PUSH2 0x83B JUMP INVALID LOG2 PUSH5 0x6970667358 0x22 SLT KECCAK256 DUP6 SWAP12 BLOBHASH MSTORE TLOAD JUMP 0xDD 0xC2 0xDE 0xB8 0xB5 0xCF 0xAE 0xC3 MCOPY 0xDD 0xDE LOG3 0xD7 0xBF LOG4 MULMOD 0x2D PUSH2 0xB44E 0xAB CREATE2 SWAPN 0xA0 OR 0xC1 PUSH5 0x736F6C6343 STOP ADDMOD 0x1E STOP CALLER "
		},
		"gasEstimates": {
			"creation": {
				"codeDepositCost": "440400",
				"executionCost": "26278",
				"totalCost": "466678"
			},
			"external": {
				"addAsset(uint256,bytes)": "infinite",
				"addAssetsBatch(uint256[],bytes[])": "infinite",
				"loadAssetDecompressed(uint256)": "infinite",
				"loadAssetOriginal(uint256)": "infinite",
				"owner()": "2393",
				"removeAsset(uint256)": "30087",
				"removeAssetsBatch(uint256[])": "infinite",
				"renounceOwnership()": "28120",
				"transferOwnership(address)": "28308"
			},
			"internal": {
				"_loadAsset(uint256,bool)": "infinite"
			}
		},
		"methodIdentifiers": {
			"addAsset(uint256,bytes)": "749f1647",
			"addAssetsBatch(uint256[],bytes[])": "3e9e21fe",
			"loadAssetDecompressed(uint256)": "48b50a3e",
			"loadAssetOriginal(uint256)": "69dde379",
			"owner()": "8da5cb5b",
			"removeAsset(uint256)": "f14f58f1",
			"removeAssetsBatch(uint256[])": "ed6d374d",
			"renounceOwnership()": "715018a6",
			"transferOwnership(address)": "f2fde38b"
		}
	},
	"abi": [
		{
			"inputs": [],
			"stateMutability": "nonpayable",
			"type": "constructor"
		},
		{
			"inputs": [],
			"name": "AssetDoesNotExist",
			"type": "error"
		},
		{
			"inputs": [],
			"name": "AssetKeyLengthMismatch",
			"type": "error"
		},
		{
			"inputs": [],
			"name": "EmptyAsset",
			"type": "error"
		},
		{
			"inputs": [],
			"name": "EmptyAssetInBatch",
			"type": "error"
		},
		{
			"inputs": [
				{
					"internalType": "address",
					"name": "owner",
					"type": "address"
				}
			],
			"name": "OwnableInvalidOwner",
			"type": "error"
		},
		{
			"inputs": [
				{
					"internalType": "address",
					"name": "account",
					"type": "address"
				}
			],
			"name": "OwnableUnauthorizedAccount",
			"type": "error"
		},
		{
			"anonymous": false,
			"inputs": [
				{
					"indexed": true,
					"internalType": "uint256",
					"name": "key",
					"type": "uint256"
				},
				{
					"indexed": true,
					"internalType": "address",
					"name": "pointer",
					"type": "address"
				},
				{
					"indexed": false,
					"internalType": "uint256",
					"name": "size",
					"type": "uint256"
				}
			],
			"name": "AssetAdded",
			"type": "event"
		},
		{
			"anonymous": false,
			"inputs": [
				{
					"indexed": true,
					"internalType": "uint256",
					"name": "key",
					"type": "uint256"
				}
			],
			"name": "AssetRemoved",
			"type": "event"
		},
		{
			"anonymous": false,
			"inputs": [
				{
					"indexed": true,
					"internalType": "address",
					"name": "previousOwner",
					"type": "address"
				},
				{
					"indexed": true,
					"internalType": "address",
					"name": "newOwner",
					"type": "address"
				}
			],
			"name": "OwnershipTransferred",
			"type": "event"
		},
		{
			"inputs": [
				{
					"internalType": "uint256",
					"name": "key",
					"type": "uint256"
				},
				{
					"internalType": "bytes",
					"name": "asset",
					"type": "bytes"
				}
			],
			"name": "addAsset",
			"outputs": [],
			"stateMutability": "nonpayable",
			"type": "function"
		},
		{
			"inputs": [
				{
					"internalType": "uint256[]",
					"name": "keys",
					"type": "uint256[]"
				},
				{
					"internalType": "bytes[]",
					"name": "assets",
					"type": "bytes[]"
				}
			],
			"name": "addAssetsBatch",
			"outputs": [],
			"stateMutability": "nonpayable",
			"type": "function"
		},
		{
			"inputs": [
				{
					"internalType": "uint256",
					"name": "key",
					"type": "uint256"
				}
			],
			"name": "loadAssetDecompressed",
			"outputs": [
				{
					"internalType": "bytes",
					"name": "",
					"type": "bytes"
				}
			],
			"stateMutability": "view",
			"type": "function"
		},
		{
			"inputs": [
				{
					"internalType": "uint256",
					"name": "key",
					"type": "uint256"
				}
			],
			"name": "loadAssetOriginal",
			"outputs": [
				{
					"internalType": "bytes",
					"name": "",
					"type": "bytes"
				}
			],
			"stateMutability": "view",
			"type": "function"
		},
		{
			"inputs": [],
			"name": "owner",
			"outputs": [
				{
					"internalType": "address",
					"name": "",
					"type": "address"
				}
			],
			"stateMutability": "view",
			"type": "function"
		},
		{
			"inputs": [
				{
					"internalType": "uint256",
					"name": "key",
					"type": "uint256"
				}
			],
			"name": "removeAsset",
			"outputs": [],
			"stateMutability": "nonpayable",
			"type": "function"
		},
		{
			"inputs": [
				{
					"internalType": "uint256[]",
					"name": "keys",
					"type": "uint256[]"
				}
			],
			"name": "removeAssetsBatch",
			"outputs": [],
			"stateMutability": "nonpayable",
			"type": "function"
		},
		{
			"inputs": [],
			"name": "renounceOwnership",
			"outputs": [],
			"stateMutability": "nonpayable",
			"type": "function"
		},
		{
			"inputs": [
				{
					"internalType": "address",
					"name": "newOwner",
					"type": "address"
				}
			],
			"name": "transferOwnership",
			"outputs": [],
			"stateMutability": "nonpayable",
			"type": "function"
		}
	]
}