{
	"data": {
		"bytecode": {
			"linkReferences": {},
			"object": "608080604052346071573315605e575f8054336001600160a01b0319821681178355916001600160a01b03909116907f8be0079c531659141344cd1fd0a4f28419497f9722a3daafe3b4186f6b6457e09080a361087f90816100768239f35b631e4fbdf760e01b5f525f60045260245ffd5b5f80fdfe60806040526004361015610011575f80fd5b5f3560e01c80633e9e21fe1461009457806348b50a3e1461008f57806369dde3791461008a578063715018a614610085578063749f1647146100805780638da5cb5b1461007b578063f14f58f1146100765763f2fde38b14610071575f80fd5b6105a6565b610527565b610500565b61043e565b610376565b610300565b61026f565b346102105760403660031901126102105760043567ffffffffffffffff8111610210576100c5903690600401610214565b9060243567ffffffffffffffff8111610210576100e6903690600401610214565b91906100f0610717565b8284036101d9575f5b84811061010257005b8061011c6101136001938786610643565b9050151561068a565b61013961013461012d838887610643565b36916103e1565b61073d565b6101798161015a61014b858b8a6106c4565b355f52600160205260405f2090565b80546001600160a01b0319166001600160a01b03909216919091179055565b6101848288876106c4565b357f85ac039d1da307b778050ca29271ac915424bac011342c9452960f6679b18ff06101d06101b4858a89610643565b949050604051918291888060a01b031695829190602083019252565b0390a3016100f9565b60405162461bcd60e51b815260206004820152600f60248201526e098cadccee8d040dad2e6dac2e8c6d608b1b6044820152606490fd5b5f80fd5b9181601f840112156102105782359167ffffffffffffffff8311610210576020808501948460051b01011161021057565b602060409281835280519182918282860152018484015e5f828201840152601f01601f1916010190565b34610210576020366003190112610210576004355f908152600160205260409020546001600160a01b03166102a58115156106d4565b803b9081156102f3576102ef916102e39160015f198301915f601f6040519561ffe0603e82011687016040528587528601015260208401903c61077f565b60405191829182610245565b0390f35b6311052bb45f526004601cfd5b34610210576020366003190112610210576004355f908152600160205260409020546001600160a01b03166103368115156106d4565b803b80156102f3576102ef9160015f198301915f601f6040519561ffe0603e82011687016040528587528601015260208401903c60405191829182610245565b34610210575f3660031901126102105761038e610717565b5f80546001600160a01b0319811682556001600160a01b03167f8be0079c531659141344cd1fd0a4f28419497f9722a3daafe3b4186f6b6457e08280a3005b634e487b7160e01b5f52604160045260245ffd5b92919267ffffffffffffffff82116104395760405191601f8101601f19908116603f0116830167ffffffffffffffff81118482101761043957604052829481845281830111610210578281602093845f960137010152565b6103cd565b346102105760403660031901126102105760043560243567ffffffffffffffff81116102105736602382011215610210576104839036906024816004013591016103e1565b9061048c610717565b6104988251151561068a565b7f85ac039d1da307b778050ca29271ac915424bac011342c9452960f6679b18ff060206104c48461073d565b5f848152600183526040902080546001600160a01b0319166001600160a01b03831617905593516040519081526001600160a01b0390941693a3005b34610210575f366003190112610210575f546040516001600160a01b039091168152602090f35b3461021057602036600319011261021057600435610543610717565b5f81815260016020526040902054610565906001600160a01b031615156106d4565b5f81815260016020526040812080546001600160a01b03191690557f80bd04276b946f13ca22d049d583a03881b8fbdb5d3166069772a97baa33845a9080a2005b34610210576020366003190112610210576004356001600160a01b03811690819003610210576105d4610717565b801561061c575f80546001600160a01b03198116831782556001600160a01b0316907f8be0079c531659141344cd1fd0a4f28419497f9722a3daafe3b4186f6b6457e09080a3005b631e4fbdf760e01b5f525f60045260245ffd5b634e487b7160e01b5f52603260045260245ffd5b91908110156106855760051b81013590601e198136030182121561021057019081359167ffffffffffffffff8311610210576020018236038113610210579190565b61062f565b1561069157565b60405162461bcd60e51b815260206004820152600b60248201526a115b5c1d1e48185cdcd95d60aa1b6044820152606490fd5b91908110156106855760051b0190565b156106db57565b60405162461bcd60e51b8152602060048201526014602482015273105cdcd95d08191bd95cc81b9bdd08195e1a5cdd60621b6044820152606490fd5b5f546001600160a01b0316330361072a57565b63118cdaa760e01b5f523360045260245ffd5b9081516001810161ffff8160401b6bfd61000080600a3d393df300179111840152600b8101601584015ff09283156107725752565b63301164255f526004601cfd5b906040519160208301602080835184010192015b8281106107b05750838103601f190184525f815260200160405250565b8051805f1a918260051c91821561082e5760078314928160011a600701811884021893611f008560020192856001011a9160081b160160018101908603906020811860208211021890815f5b8281015f190151898201520183811061082757505050506002929183910101920101915b9190610793565b82906107fc565b5082600193925081846002930151865201019201019161082056fea2646970667358221220838a1762bf29f48ec9c9ac45df6d7b646036de40e3d2b75e9427f03369e712ec64736f6c634300081e0033",
			"opcodes": "PUSH1 0x80 DUP1 PUSH1 0x40 MSTORE CALLVALUE PUSH1 0x71 JUMPI CALLER ISZERO PUSH1 0x5E JUMPI PUSH0 DUP1 SLOAD CALLER PUSH1 0x1 PUSH1 0x1 PUSH1 0xA0 SHL SUB NOT DUP3 AND DUP2 OR DUP4 SSTORE SWAP2 PUSH1 0x1 PUSH1 0x1 PUSH1 0xA0 SHL SUB SWAP1 SWAP2 AND SWAP1 PUSH32 0x8BE0079C531659141344CD1FD0A4F28419497F9722A3DAAFE3B4186F6B6457E0 SWAP1 DUP1 LOG3 PUSH2 0x87F SWAP1 DUP2 PUSH2 0x76 DUP3 CODECOPY RETURN JUMPDEST PUSH4 0x1E4FBDF7 PUSH1 0xE0 SHL PUSH0 MSTORE PUSH0 PUSH1 0x4 MSTORE PUSH1 0x24 PUSH0 REVERT JUMPDEST PUSH0 DUP1 REVERT INVALID PUSH1 0x80 PUSH1 0x40 MSTORE PUSH1 0x4 CALLDATASIZE LT ISZERO PUSH2 0x11 JUMPI PUSH0 DUP1 REVERT JUMPDEST PUSH0 CALLDATALOAD PUSH1 0xE0 SHR DUP1 PUSH4 0x3E9E21FE EQ PUSH2 0x94 JUMPI DUP1 PUSH4 0x48B50A3E EQ PUSH2 0x8F JUMPI DUP1 PUSH4 0x69DDE379 EQ PUSH2 0x8A JUMPI DUP1 PUSH4 0x715018A6 EQ PUSH2 0x85 JUMPI DUP1 PUSH4 0x749F1647 EQ PUSH2 0x80 JUMPI DUP1 PUSH4 0x8DA5CB5B EQ PUSH2 0x7B JUMPI DUP1 PUSH4 0xF14F58F1 EQ PUSH2 0x76 JUMPI PUSH4 0xF2FDE38B EQ PUSH2 0x71 JUMPI PUSH0 DUP1 REVERT JUMPDEST PUSH2 0x5A6 JUMP JUMPDEST PUSH2 0x527 JUMP JUMPDEST PUSH2 0x500 JUMP JUMPDEST PUSH2 0x43E JUMP JUMPDEST PUSH2 0x376 JUMP JUMPDEST PUSH2 0x300 JUMP JUMPDEST PUSH2 0x26F JUMP JUMPDEST CALLVALUE PUSH2 0x210 JUMPI PUSH1 0x40 CALLDATASIZE PUSH1 0x3 NOT ADD SLT PUSH2 0x210 JUMPI PUSH1 0x4 CALLDATALOAD PUSH8 0xFFFFFFFFFFFFFFFF DUP2 GT PUSH2 0x210 JUMPI PUSH2 0xC5 SWAP1 CALLDATASIZE SWAP1 PUSH1 0x4 ADD PUSH2 0x214 JUMP JUMPDEST SWAP1 PUSH1 0x24 CALLDATALOAD PUSH8 0xFFFFFFFFFFFFFFFF DUP2 GT PUSH2 0x210 JUMPI PUSH2 0xE6 SWAP1 CALLDATASIZE SWAP1 PUSH1 0x4 ADD PUSH2 0x214 JUMP JUMPDEST SWAP2 SWAP1 PUSH2 0xF0 PUSH2 0x717 JUMP JUMPDEST DUP3 DUP5 SUB PUSH2 0x1D9 JUMPI PUSH0 JUMPDEST DUP5 DUP2 LT PUSH2 0x102 JUMPI STOP JUMPDEST DUP1 PUSH2 0x11C PUSH2 0x113 PUSH1 0x1 SWAP4 DUP8 DUP7 PUSH2 0x643 JUMP JUMPDEST SWAP1 POP ISZERO ISZERO PUSH2 0x68A JUMP JUMPDEST PUSH2 0x139 PUSH2 0x134 PUSH2 0x12D DUP4 DUP9 DUP8 PUSH2 0x643 JUMP JUMPDEST CALLDATASIZE SWAP2 PUSH2 0x3E1 JUMP JUMPDEST PUSH2 0x73D JUMP JUMPDEST PUSH2 0x179 DUP2 PUSH2 0x15A PUSH2 0x14B DUP6 DUP12 DUP11 PUSH2 0x6C4 JUMP JUMPDEST CALLDATALOAD PUSH0 MSTORE PUSH1 0x1 PUSH1 0x20 MSTORE PUSH1 0x40 PUSH0 KECCAK256 SWAP1 JUMP JUMPDEST DUP1 SLOAD PUSH1 0x1 PUSH1 0x1 PUSH1 0xA0 SHL SUB NOT AND PUSH1 0x1 PUSH1 0x1 PUSH1 0xA0 SHL SUB SWAP1 SWAP3 AND SWAP2 SWAP1 SWAP2 OR SWAP1 SSTORE JUMP JUMPDEST PUSH2 0x184 DUP3 DUP9 DUP8 PUSH2 0x6C4 JUMP JUMPDEST CALLDATALOAD PUSH32 0x85AC039D1DA307B778050CA29271AC915424BAC011342C9452960F6679B18FF0 PUSH2 0x1D0 PUSH2 0x1B4 DUP6 DUP11 DUP10 PUSH2 0x643 JUMP JUMPDEST SWAP5 SWAP1 POP PUSH1 0x40 MLOAD SWAP2 DUP3 SWAP2 DUP9 DUP1 PUSH1 0xA0 SHL SUB AND SWAP6 DUP3 SWAP2 SWAP1 PUSH1 0x20 DUP4 ADD SWAP3 MSTORE JUMP JUMPDEST SUB SWAP1 LOG3 ADD PUSH2 0xF9 JUMP JUMPDEST PUSH1 0x40 MLOAD PUSH3 0x461BCD PUSH1 0xE5 SHL DUP2 MSTORE PUSH1 0x20 PUSH1 0x4 DUP3 ADD MSTORE PUSH1 0xF PUSH1 0x24 DUP3 ADD MSTORE PUSH15 0x98CADCCEE8D040DAD2E6DAC2E8C6D PUSH1 0x8B SHL PUSH1 0x44 DUP3 ADD MSTORE PUSH1 0x64 SWAP1 REVERT JUMPDEST PUSH0 DUP1 REVERT JUMPDEST SWAP2 DUP2 PUSH1 0x1F DUP5 ADD SLT ISZERO PUSH2 0x210 JUMPI DUP3 CALLDATALOAD SWAP2 PUSH8 0xFFFFFFFFFFFFFFFF DUP4 GT PUSH2 0x210 JUMPI PUSH1 0x20 DUP1 DUP6 ADD SWAP5 DUP5 PUSH1 0x5 SHL ADD ADD GT PUSH2 0x210 JUMPI JUMP JUMPDEST PUSH1 0x20 PUSH1 0x40 SWAP3 DUP2 DUP4 MSTORE DUP1 MLOAD SWAP2 DUP3 SWAP2 DUP3 DUP3 DUP7 ADD MSTORE ADD DUP5 DUP5 ADD MCOPY PUSH0 DUP3 DUP3 ADD DUP5 ADD MSTORE PUSH1 0x1F ADD PUSH1 0x1F NOT AND ADD ADD SWAP1 JUMP JUMPDEST CALLVALUE PUSH2 0x210 JUMPI PUSH1 0x20 CALLDATASIZE PUSH1 0x3 NOT ADD SLT PUSH2 0x210 JUMPI PUSH1 0x4 CALLDATALOAD PUSH0 SWAP1 DUP2 MSTORE PUSH1 0x1 PUSH1 0x20 MSTORE PUSH1 0x40 SWAP1 KECCAK256 SLOAD PUSH1 0x1 PUSH1 0x1 PUSH1 0xA0 SHL SUB AND PUSH2 0x2A5 DUP2 ISZERO ISZERO PUSH2 0x6D4 JUMP JUMPDEST DUP1 EXTCODESIZE SWAP1 DUP2 ISZERO PUSH2 0x2F3 JUMPI PUSH2 0x2EF SWAP2 PUSH2 0x2E3 SWAP2 PUSH1 0x1 PUSH0 NOT DUP4 ADD SWAP2 PUSH0 PUSH1 0x1F PUSH1 0x40 MLOAD SWAP6 PUSH2 0xFFE0 PUSH1 0x3E DUP3 ADD AND DUP8 ADD PUSH1 0x40 MSTORE DUP6 DUP8 MSTORE DUP7 ADD ADD MSTORE PUSH1 0x20 DUP5 ADD SWAP1 EXTCODECOPY PUSH2 0x77F JUMP JUMPDEST PUSH1 0x40 MLOAD SWAP2 DUP3 SWAP2 DUP3 PUSH2 0x245 JUMP JUMPDEST SUB SWAP1 RETURN JUMPDEST PUSH4 0x11052BB4 PUSH0 MSTORE PUSH1 0x4 PUSH1 0x1C REVERT JUMPDEST CALLVALUE PUSH2 0x210 JUMPI PUSH1 0x20 CALLDATASIZE PUSH1 0x3 NOT ADD SLT PUSH2 0x210 JUMPI PUSH1 0x4 CALLDATALOAD PUSH0 SWAP1 DUP2 MSTORE PUSH1 0x1 PUSH1 0x20 MSTORE PUSH1 0x40 SWAP1 KECCAK256 SLOAD PUSH1 0x1 PUSH1 0x1 PUSH1 0xA0 SHL SUB AND PUSH2 0x336 DUP2 ISZERO ISZERO PUSH2 0x6D4 JUMP JUMPDEST DUP1 EXTCODESIZE DUP1 ISZERO PUSH2 0x2F3 JUMPI PUSH2 0x2EF SWAP2 PUSH1 0x1 PUSH0 NOT DUP4 ADD SWAP2 PUSH0 PUSH1 0x1F PUSH1 0x40 MLOAD SWAP6 PUSH2 0xFFE0 PUSH1 0x3E DUP3 ADD AND DUP8 ADD PUSH1 0x40 MSTORE DUP6 DUP8 MSTORE DUP7 ADD ADD MSTORE PUSH1 0x20 DUP5 ADD SWAP1 EXTCODECOPY PUSH1 0x40 MLOAD SWAP2 DUP3 SWAP2 DUP3 PUSH2 0x245 JUMP JUMPDEST CALLVALUE PUSH2 0x210 JUMPI PUSH0 CALLDATASIZE PUSH1 0x3 NOT ADD SLT PUSH2 0x210 JUMPI PUSH2 0x38E PUSH2 0x717 JUMP JUMPDEST PUSH0 DUP1 SLOAD PUSH1 0x1 PUSH1 0x1 PUSH1 0xA0 SHL SUB NOT DUP2 AND DUP3 SSTORE PUSH1 0x1 PUSH1 0x1 PUSH1 0xA0 SHL SUB AND PUSH32 0x8BE0079C531659141344CD1FD0A4F28419497F9722A3DAAFE3B4186F6B6457E0 DUP3 DUP1 LOG3 STOP JUMPDEST PUSH4 0x4E487B71 PUSH1 0xE0 SHL PUSH0 MSTORE PUSH1 0x41 PUSH1 0x4 MSTORE PUSH1 0x24 PUSH0 REVERT JUMPDEST SWAP3 SWAP2 SWAP3 PUSH8 0xFFFFFFFFFFFFFFFF DUP3 GT PUSH2 0x439 JUMPI PUSH1 0x40 MLOAD SWAP2 PUSH1 0x1F DUP2 ADD PUSH1 0x1F NOT SWAP1 DUP2 AND PUSH1 0x3F ADD AND DUP4 ADD PUSH8 0xFFFFFFFFFFFFFFFF DUP2 GT DUP5 DUP3 LT OR PUSH2 0x439 JUMPI PUSH1 0x40 MSTORE DUP3 SWAP5 DUP2 DUP5 MSTORE DUP2 DUP4 ADD GT PUSH2 0x210 JUMPI DUP3 DUP2 PUSH1 0x20 SWAP4 DUP5 PUSH0 SWAP7 ADD CALLDATACOPY ADD ADD MSTORE JUMP JUMPDEST PUSH2 0x3CD JUMP JUMPDEST CALLVALUE PUSH2 0x210 JUMPI PUSH1 0x40 CALLDATASIZE PUSH1 0x3 NOT ADD SLT PUSH2 0x210 JUMPI PUSH1 0x4 CALLDATALOAD PUSH1 0x24 CALLDATALOAD PUSH8 0xFFFFFFFFFFFFFFFF DUP2 GT PUSH2 0x210 JUMPI CALLDATASIZE PUSH1 0x23 DUP3 ADD SLT ISZERO PUSH2 0x210 JUMPI PUSH2 0x483 SWAP1 CALLDATASIZE SWAP1 PUSH1 0x24 DUP2 PUSH1 0x4 ADD CALLDATALOAD SWAP2 ADD PUSH2 0x3E1 JUMP JUMPDEST SWAP1 PUSH2 0x48C PUSH2 0x717 JUMP JUMPDEST PUSH2 0x498 DUP3 MLOAD ISZERO ISZERO PUSH2 0x68A JUMP JUMPDEST PUSH32 0x85AC039D1DA307B778050CA29271AC915424BAC011342C9452960F6679B18FF0 PUSH1 0x20 PUSH2 0x4C4 DUP5 PUSH2 0x73D JUMP JUMPDEST PUSH0 DUP5 DUP2 MSTORE PUSH1 0x1 DUP4 MSTORE PUSH1 0x40 SWAP1 KECCAK256 DUP1 SLOAD PUSH1 0x1 PUSH1 0x1 PUSH1 0xA0 SHL SUB NOT AND PUSH1 0x1 PUSH1 0x1 PUSH1 0xA0 SHL SUB DUP4 AND OR SWAP1 SSTORE SWAP4 MLOAD PUSH1 0x40 MLOAD SWAP1 DUP2 MSTORE PUSH1 0x1 PUSH1 0x1 PUSH1 0xA0 SHL SUB SWAP1 SWAP5 AND SWAP4 LOG3 STOP JUMPDEST CALLVALUE PUSH2 0x210 JUMPI PUSH0 CALLDATASIZE PUSH1 0x3 NOT ADD SLT PUSH2 0x210 JUMPI PUSH0 SLOAD PUSH1 0x40 MLOAD PUSH1 0x1 PUSH1 0x1 PUSH1 0xA0 SHL SUB SWAP1 SWAP2 AND DUP2 MSTORE PUSH1 0x20 SWAP1 RETURN JUMPDEST CALLVALUE PUSH2 0x210 JUMPI PUSH1 0x20 CALLDATASIZE PUSH1 0x3 NOT ADD SLT PUSH2 0x210 JUMPI PUSH1 0x4 CALLDATALOAD PUSH2 0x543 PUSH2 0x717 JUMP JUMPDEST PUSH0 DUP2 DUP2 MSTORE PUSH1 0x1 PUSH1 0x20 MSTORE PUSH1 0x40 SWAP1 KECCAK256 SLOAD PUSH2 0x565 SWAP1 PUSH1 0x1 PUSH1 0x1 PUSH1 0xA0 SHL SUB AND ISZERO ISZERO PUSH2 0x6D4 JUMP JUMPDEST PUSH0 DUP2 DUP2 MSTORE PUSH1 0x1 PUSH1 0x20 MSTORE PUSH1 0x40 DUP2 KECCAK256 DUP1 SLOAD PUSH1 0x1 PUSH1 0x1 PUSH1 0xA0 SHL SUB NOT AND SWAP1 SSTORE PUSH32 0x80BD04276B946F13CA22D049D583A03881B8FBDB5D3166069772A97BAA33845A SWAP1 DUP1 LOG2 STOP JUMPDEST CALLVALUE PUSH2 0x210 JUMPI PUSH1 0x20 CALLDATASIZE PUSH1 0x3 NOT ADD SLT PUSH2 0x210 JUMPI PUSH1 0x4 CALLDATALOAD PUSH1 0x1 PUSH1 0x1 PUSH1 0xA0 SHL SUB DUP2 AND SWAP1 DUP2 SWAP1 SUB PUSH2 0x210 JUMPI PUSH2 0x5D4 PUSH2 0x717 JUMP JUMPDEST DUP1 ISZERO PUSH2 0x61C JUMPI PUSH0 DUP1 SLOAD PUSH1 0x1 PUSH1 0x1 PUSH1 0xA0 SHL SUB NOT DUP2 AND DUP4 OR DUP3 SSTORE PUSH1 0x1 PUSH1 0x1 PUSH1 0xA0 SHL SUB AND SWAP1 PUSH32 0x8BE0079C531659141344CD1FD0A4F28419497F9722A3DAAFE3B4186F6B6457E0 SWAP1 DUP1 LOG3 STOP JUMPDEST PUSH4 0x1E4FBDF7 PUSH1 0xE0 SHL PUSH0 MSTORE PUSH0 PUSH1 0x4 MSTORE PUSH1 0x24 PUSH0 REVERT JUMPDEST PUSH4 0x4E487B71 PUSH1 0xE0 SHL PUSH0 MSTORE PUSH1 0x32 PUSH1 0x4 MSTORE PUSH1 0x24 PUSH0 REVERT JUMPDEST SWAP2 SWAP1 DUP2 LT ISZERO PUSH2 0x685 JUMPI PUSH1 0x5 SHL DUP2 ADD CALLDATALOAD SWAP1 PUSH1 0x1E NOT DUP2 CALLDATASIZE SUB ADD DUP3 SLT ISZERO PUSH2 0x210 JUMPI ADD SWAP1 DUP2 CALLDATALOAD SWAP2 PUSH8 0xFFFFFFFFFFFFFFFF DUP4 GT PUSH2 0x210 JUMPI PUSH1 0x20 ADD DUP3 CALLDATASIZE SUB DUP2 SGT PUSH2 0x210 JUMPI SWAP2 SWAP1 JUMP JUMPDEST PUSH2 0x62F JUMP JUMPDEST ISZERO PUSH2 0x691 JUMPI JUMP JUMPDEST PUSH1 0x40 MLOAD PUSH3 0x461BCD PUSH1 0xE5 SHL DUP2 MSTORE PUSH1 0x20 PUSH1 0x4 DUP3 ADD MSTORE PUSH1 0xB PUSH1 0x24 DUP3 ADD MSTORE PUSH11 0x115B5C1D1E48185CDCD95D PUSH1 0xAA SHL PUSH1 0x44 DUP3 ADD MSTORE PUSH1 0x64 SWAP1 REVERT JUMPDEST SWAP2 SWAP1 DUP2 LT ISZERO PUSH2 0x685 JUMPI PUSH1 0x5 SHL ADD SWAP1 JUMP JUMPDEST ISZERO PUSH2 0x6DB JUMPI JUMP JUMPDEST PUSH1 0x40 MLOAD PUSH3 0x461BCD PUSH1 0xE5 SHL DUP2 MSTORE PUSH1 0x20 PUSH1 0x4 DUP3 ADD MSTORE PUSH1 0x14 PUSH1 0x24 DUP3 ADD MSTORE PUSH20 0x105CDCD95D08191BD95CC81B9BDD08195E1A5CDD PUSH1 0x62 SHL PUSH1 0x44 DUP3 ADD MSTORE PUSH1 0x64 SWAP1 REVERT JUMPDEST PUSH0 SLOAD PUSH1 0x1 PUSH1 0x1 PUSH1 0xA0 SHL SUB AND CALLER SUB PUSH2 0x72A JUMPI JUMP JUMPDEST PUSH4 0x118CDAA7 PUSH1 0xE0 SHL PUSH0 MSTORE CALLER PUSH1 0x4 MSTORE PUSH1 0x24 PUSH0 REVERT JUMPDEST SWAP1 DUP2 MLOAD PUSH1 0x1 DUP2 ADD PUSH2 0xFFFF DUP2 PUSH1 0x40 SHL PUSH12 0xFD61000080600A3D393DF300 OR SWAP2 GT DUP5 ADD MSTORE PUSH1 0xB DUP2 ADD PUSH1 0x15 DUP5 ADD PUSH0 CREATE SWAP3 DUP4 ISZERO PUSH2 0x772 JUMPI MSTORE JUMP JUMPDEST PUSH4 0x30116425 PUSH0 MSTORE PUSH1 0x4 PUSH1 0x1C REVERT JUMPDEST SWAP1 PUSH1 0x40 MLOAD SWAP2 PUSH1 0x20 DUP4 ADD PUSH1 0x20 DUP1 DUP4 MLOAD DUP5 ADD ADD SWAP3 ADD JUMPDEST DUP3 DUP2 LT PUSH2 0x7B0 JUMPI POP DUP4 DUP2 SUB PUSH1 0x1F NOT ADD DUP5 MSTORE PUSH0 DUP2 MSTORE PUSH1 0x20 ADD PUSH1 0x40 MSTORE POP JUMP JUMPDEST DUP1 MLOAD DUP1 PUSH0 BYTE SWAP2 DUP3 PUSH1 0x5 SHR SWAP2 DUP3 ISZERO PUSH2 0x82E JUMPI PUSH1 0x7 DUP4 EQ SWAP3 DUP2 PUSH1 0x1 BYTE PUSH1 0x7 ADD DUP2 XOR DUP5 MUL XOR SWAP4 PUSH2 0x1F00 DUP6 PUSH1 0x2 ADD SWAP3 DUP6 PUSH1 0x1 ADD BYTE SWAP2 PUSH1 0x8 SHL AND ADD PUSH1 0x1 DUP2 ADD SWAP1 DUP7 SUB SWAP1 PUSH1 0x20 DUP2 XOR PUSH1 0x20 DUP3 GT MUL XOR SWAP1 DUP2 PUSH0 JUMPDEST DUP3 DUP2 ADD PUSH0 NOT ADD MLOAD DUP10 DUP3 ADD MSTORE ADD DUP4 DUP2 LT PUSH2 0x827 JUMPI POP POP POP POP PUSH1 0x2 SWAP3 SWAP2 DUP4 SWAP2 ADD ADD SWAP3 ADD ADD SWAP2 JUMPDEST SWAP2 SWAP1 PUSH2 0x793 JUMP JUMPDEST DUP3 SWAP1 PUSH2 0x7FC JUMP JUMPDEST POP DUP3 PUSH1 0x1 SWAP4 SWAP3 POP DUP2 DUP5 PUSH1 0x2 SWAP4 ADD MLOAD DUP7 MSTORE ADD ADD SWAP3 ADD ADD SWAP2 PUSH2 0x820 JUMP INVALID LOG2 PUSH5 0x6970667358 0x22 SLT KECCAK256 DUP4 DUP11 OR PUSH3 0xBF29F4 DUP15 0xC9 0xC9 0xAC GASLIMIT 0xDF PUSH14 0x7B646036DE40E3D2B75E9427F033 PUSH10 0xE712EC64736F6C634300 ADDMOD 0x1E STOP CALLER "
		},
		"gasEstimates": {
			"creation": {
				"codeDepositCost": "435000",
				"executionCost": "26272",
				"totalCost": "461272"
			},
			"external": {
				"addAsset(uint256,bytes)": "infinite",
				"addAssetsBatch(uint256[],bytes[])": "infinite",
				"loadAssetDecompressed(uint256)": "infinite",
				"loadAssetOriginal(uint256)": "infinite",
				"owner()": "2393",
				"removeAsset(uint256)": "30098",
				"renounceOwnership()": "28120",
				"transferOwnership(address)": "28286"
			},
			"internal": {
				"_loadAsset(uint256,bool)": "infinite"
			}
		},
		"methodIdentifiers": {
			"addAsset(uint256,bytes)": "749f1647",
			"addAssetsBatch(uint256[],bytes[])": "3e9e21fe",
			"loadAssetDecompressed(uint256)": "48b50a3e",
			"loadAssetOriginal(uint256)": "69dde379",
			"owner()": "8da5cb5b",
			"removeAsset(uint256)": "f14f58f1",
			"renounceOwnership()": "715018a6",
			"transferOwnership(address)": "f2fde38b"
		}
	},
	"abi": [
		{
			"inputs": [],
			"stateMutability": "nonpayable",
			"type": "constructor"
		},
		{
			"inputs": [
				{
					"internalType": "address",
					"name": "owner",
					"type": "address"
				}
			],
			"name": "OwnableInvalidOwner",
			"type": "error"
		},
		{
			"inputs": [
				{
					"internalType": "address",
					"name": "account",
					"type": "address"
				}
			],
			"name": "OwnableUnauthorizedAccount",
			"type": "error"
		},
		{
			"anonymous": false,
			"inputs": [
				{
					"indexed": true,
					"internalType": "uint256",
					"name": "key",
					"type": "uint256"
				},
				{
					"indexed": true,
					"internalType": "address",
					"name": "pointer",
					"type": "address"
				},
				{
					"indexed": false,
					"internalType": "uint256",
					"name": "size",
					"type": "uint256"
				}
			],
			"name": "AssetAdded",
			"type": "event"
		},
		{
			"anonymous": false,
			"inputs": [
				{
					"indexed": true,
					"internalType": "uint256",
					"name": "key",
					"type": "uint256"
				}
			],
			"name": "AssetRemoved",
			"type": "event"
		},
		{
			"anonymous": false,
			"inputs": [
				{
					"indexed": true,
					"internalType": "address",
					"name": "previousOwner",
					"type": "address"
				},
				{
					"indexed": true,
					"internalType": "address",
					"name": "newOwner",
					"type": "address"
				}
			],
			"name": "OwnershipTransferred",
			"type": "event"
		},
		{
			"inputs": [
				{
					"internalType": "uint256",
					"name": "key",
					"type": "uint256"
				},
				{
					"internalType": "bytes",
					"name": "asset",
					"type": "bytes"
				}
			],
			"name": "addAsset",
			"outputs": [],
			"stateMutability": "nonpayable",
			"type": "function"
		},
		{
			"inputs": [
				{
					"internalType": "uint256[]",
					"name": "keys",
					"type": "uint256[]"
				},
				{
					"internalType": "bytes[]",
					"name": "assets",
					"type": "bytes[]"
				}
			],
			"name": "addAssetsBatch",
			"outputs": [],
			"stateMutability": "nonpayable",
			"type": "function"
		},
		{
			"inputs": [
				{
					"internalType": "uint256",
					"name": "key",
					"type": "uint256"
				}
			],
			"name": "loadAssetDecompressed",
			"outputs": [
				{
					"internalType": "bytes",
					"name": "",
					"type": "bytes"
				}
			],
			"stateMutability": "view",
			"type": "function"
		},
		{
			"inputs": [
				{
					"internalType": "uint256",
					"name": "key",
					"type": "uint256"
				}
			],
			"name": "loadAssetOriginal",
			"outputs": [
				{
					"internalType": "bytes",
					"name": "",
					"type": "bytes"
				}
			],
			"stateMutability": "view",
			"type": "function"
		},
		{
			"inputs": [],
			"name": "owner",
			"outputs": [
				{
					"internalType": "address",
					"name": "",
					"type": "address"
				}
			],
			"stateMutability": "view",
			"type": "function"
		},
		{
			"inputs": [
				{
					"internalType": "uint256",
					"name": "key",
					"type": "uint256"
				}
			],
			"name": "removeAsset",
			"outputs": [],
			"stateMutability": "nonpayable",
			"type": "function"
		},
		{
			"inputs": [],
			"name": "renounceOwnership",
			"outputs": [],
			"stateMutability": "nonpayable",
			"type": "function"
		},
		{
			"inputs": [
				{
					"internalType": "address",
					"name": "newOwner",
					"type": "address"
				}
			],
			"name": "transferOwnership",
			"outputs": [],
			"stateMutability": "nonpayable",
			"type": "function"
		}
	]
}