{
	"data": {
		"bytecode": {
			"linkReferences": {},
			"object": "6080604052348015600e575f5ffd5b503380603357604051631e4fbdf760e01b81525f600482015260240160405180910390fd5b603a81603f565b50608e565b5f80546001600160a01b038381166001600160a01b0319831681178455604051919092169283917f8be0079c531659141344cd1fd0a4f28419497f9722a3daafe3b4186f6b6457e09190a35050565b610abe8061009b5f395ff3fe608060405234801561000f575f5ffd5b5060043610610090575f3560e01c8063749f164711610063578063749f1647146100ed5780638da5cb5b14610100578063ed6d374d1461011a578063f14f58f11461012d578063f2fde38b14610140575f5ffd5b80633e9e21fe1461009457806348b50a3e146100a957806369dde379146100d2578063715018a6146100e5575b5f5ffd5b6100a76100a236600461083c565b610153565b005b6100bc6100b73660046108a8565b610358565b6040516100c991906108bf565b60405180910390f35b6100bc6100e03660046108a8565b61036b565b6100a7610377565b6100a76100fb366004610908565b61038a565b5f546040516001600160a01b0390911681526020016100c9565b6100a76101283660046109c5565b610443565b6100a761013b3660046108a8565b6104c7565b6100a761014e366004610a04565b61056e565b61015b6105ab565b8281146101be5760405162461bcd60e51b815260206004820152602660248201527f4c656e677468206d69736d61746368206265747765656e206b65797320616e2060448201526561737365747360d01b60648201526084015b60405180910390fd5b5f5b83811015610351575f8383838181106101db576101db610a31565b90506020028101906101ed9190610a45565b90501161022a5760405162461bcd60e51b815260206004820152600b60248201526a115b5c1d1e48185cdcd95d60aa1b60448201526064016101b5565b5f61028b84848481811061024057610240610a31565b90506020028101906102529190610a45565b8080601f0160208091040260200160405190810160405280939291908181526020018383808284375f920191909152506105d792505050565b90508060015f8888868181106102a3576102a3610a31565b602090810292909201358352508101919091526040015f2080546001600160a01b0319166001600160a01b0392831617905581168686848181106102e9576102e9610a31565b905060200201357f85ac039d1da307b778050ca29271ac915424bac011342c9452960f6679b18ff086868681811061032357610323610a31565b90506020028101906103359190610a45565b604051908152602001905060405180910390a3506001016101c0565b5050505050565b606061036582600161061d565b92915050565b6060610365825f61061d565b61037f6105ab565b6103885f6106a1565b565b6103926105ab565b5f8151116103d05760405162461bcd60e51b815260206004820152600b60248201526a115b5c1d1e48185cdcd95d60aa1b60448201526064016101b5565b5f6103da826105d7565b5f8481526001602090815260409182902080546001600160a01b0319166001600160a01b0385169081179091558551925192835292935085917f85ac039d1da307b778050ca29271ac915424bac011342c9452960f6679b18ff0910160405180910390a3505050565b61044b6105ab565b5f5b818110156104c2575f83838381811061046857610468610a31565b602090810292909201355f8181526001909352604080842080546001600160a01b03191690555190935083927f80bd04276b946f13ca22d049d583a03881b8fbdb5d3166069772a97baa33845a925090a25060010161044d565b505050565b6104cf6105ab565b5f818152600160205260409020546001600160a01b03166105295760405162461bcd60e51b8152602060048201526014602482015273105cdcd95d08191bd95cc81b9bdd08195e1a5cdd60621b60448201526064016101b5565b5f8181526001602052604080822080546001600160a01b03191690555182917f80bd04276b946f13ca22d049d583a03881b8fbdb5d3166069772a97baa33845a91a250565b6105766105ab565b6001600160a01b03811661059f57604051631e4fbdf760e01b81525f60048201526024016101b5565b6105a8816106a1565b50565b5f546001600160a01b031633146103885760405163118cdaa760e01b81523360048201526024016101b5565b5f8151600181018060401b6bfd61000080600a3d393df3001761ffff8211850152600a8101601585015ff0925050816106175763301164255f526004601cfd5b90915290565b5f828152600160205260409020546060906001600160a01b03168061067b5760405162461bcd60e51b8152602060048201526014602482015273105cdcd95d08191bd95cc81b9bdd08195e1a5cdd60621b60448201526064016101b5565b5f610685826106f0565b905083156106995761069681610738565b90505b949350505050565b5f80546001600160a01b038381166001600160a01b0319831681178455604051919092169283917f8be0079c531659141344cd1fd0a4f28419497f9722a3daafe3b4186f6b6457e09190a35050565b6060813b80610706576311052bb45f526004601cfd5b600181039050604051915061ffe0603f82011682016040528082525f8160208401015280600160208401853c50919050565b60405181516020838101938184019201015b808410156107dc578351805f1a8060051c8061077c57506001868101518552958101600201959301909201915061074a565b600781148360011a600701821881028218600201600185836001011a85601f1660081b0101808803602082186020831102821891505f5b818101518a82015282018381106107b3579a84016002019a98830198505050505050505061074a565b50601f198282030182525f8152602001604052919050565b5f5f83601f840112610804575f5ffd5b50813567ffffffffffffffff81111561081b575f5ffd5b6020830191508360208260051b8501011115610835575f5ffd5b9250929050565b5f5f5f5f6040858703121561084f575f5ffd5b843567ffffffffffffffff811115610865575f5ffd5b610871878288016107f4565b909550935050602085013567ffffffffffffffff811115610890575f5ffd5b61089c878288016107f4565b95989497509550505050565b5f602082840312156108b8575f5ffd5b5035919050565b602081525f82518060208401528060208501604085015e5f604082850101526040601f19601f83011684010191505092915050565b634e487b7160e01b5f52604160045260245ffd5b5f5f60408385031215610919575f5ffd5b82359150602083013567ffffffffffffffff811115610936575f5ffd5b8301601f81018513610946575f5ffd5b803567ffffffffffffffff811115610960576109606108f4565b604051601f8201601f19908116603f0116810167ffffffffffffffff8111828210171561098f5761098f6108f4565b6040528181528282016020018710156109a6575f5ffd5b816020840160208301375f602083830101528093505050509250929050565b5f5f602083850312156109d6575f5ffd5b823567ffffffffffffffff8111156109ec575f5ffd5b6109f8858286016107f4565b90969095509350505050565b5f60208284031215610a14575f5ffd5b81356001600160a01b0381168114610a2a575f5ffd5b9392505050565b634e487b7160e01b5f52603260045260245ffd5b5f5f8335601e19843603018112610a5a575f5ffd5b83018035915067ffffffffffffffff821115610a74575f5ffd5b602001915036819003821315610835575f5ffdfea2646970667358221220133741f6432af8f3c21b3d441d443a12911c5efc764d5552d314772d14ae190664736f6c634300081e0033",
			"opcodes": "PUSH1 0x80 PUSH1 0x40 MSTORE CALLVALUE DUP1 ISZERO PUSH1 0xE JUMPI PUSH0 PUSH0 REVERT JUMPDEST POP CALLER DUP1 PUSH1 0x33 JUMPI PUSH1 0x40 MLOAD PUSH4 0x1E4FBDF7 PUSH1 0xE0 SHL DUP2 MSTORE PUSH0 PUSH1 0x4 DUP3 ADD MSTORE PUSH1 0x24 ADD PUSH1 0x40 MLOAD DUP1 SWAP2 SUB SWAP1 REVERT JUMPDEST PUSH1 0x3A DUP2 PUSH1 0x3F JUMP JUMPDEST POP PUSH1 0x8E JUMP JUMPDEST PUSH0 DUP1 SLOAD PUSH1 0x1 PUSH1 0x1 PUSH1 0xA0 SHL SUB DUP4 DUP2 AND PUSH1 0x1 PUSH1 0x1 PUSH1 0xA0 SHL SUB NOT DUP4 AND DUP2 OR DUP5 SSTORE PUSH1 0x40 MLOAD SWAP2 SWAP1 SWAP3 AND SWAP3 DUP4 SWAP2 PUSH32 0x8BE0079C531659141344CD1FD0A4F28419497F9722A3DAAFE3B4186F6B6457E0 SWAP2 SWAP1 LOG3 POP POP JUMP JUMPDEST PUSH2 0xABE DUP1 PUSH2 0x9B PUSH0 CODECOPY PUSH0 RETURN INVALID PUSH1 0x80 PUSH1 0x40 MSTORE CALLVALUE DUP1 ISZERO PUSH2 0xF JUMPI PUSH0 PUSH0 REVERT JUMPDEST POP PUSH1 0x4 CALLDATASIZE LT PUSH2 0x90 JUMPI PUSH0 CALLDATALOAD PUSH1 0xE0 SHR DUP1 PUSH4 0x749F1647 GT PUSH2 0x63 JUMPI DUP1 PUSH4 0x749F1647 EQ PUSH2 0xED JUMPI DUP1 PUSH4 0x8DA5CB5B EQ PUSH2 0x100 JUMPI DUP1 PUSH4 0xED6D374D EQ PUSH2 0x11A JUMPI DUP1 PUSH4 0xF14F58F1 EQ PUSH2 0x12D JUMPI DUP1 PUSH4 0xF2FDE38B EQ PUSH2 0x140 JUMPI PUSH0 PUSH0 REVERT JUMPDEST DUP1 PUSH4 0x3E9E21FE EQ PUSH2 0x94 JUMPI DUP1 PUSH4 0x48B50A3E EQ PUSH2 0xA9 JUMPI DUP1 PUSH4 0x69DDE379 EQ PUSH2 0xD2 JUMPI DUP1 PUSH4 0x715018A6 EQ PUSH2 0xE5 JUMPI JUMPDEST PUSH0 PUSH0 REVERT JUMPDEST PUSH2 0xA7 PUSH2 0xA2 CALLDATASIZE PUSH1 0x4 PUSH2 0x83C JUMP JUMPDEST PUSH2 0x153 JUMP JUMPDEST STOP JUMPDEST PUSH2 0xBC PUSH2 0xB7 CALLDATASIZE PUSH1 0x4 PUSH2 0x8A8 JUMP JUMPDEST PUSH2 0x358 JUMP JUMPDEST PUSH1 0x40 MLOAD PUSH2 0xC9 SWAP2 SWAP1 PUSH2 0x8BF JUMP JUMPDEST PUSH1 0x40 MLOAD DUP1 SWAP2 SUB SWAP1 RETURN JUMPDEST PUSH2 0xBC PUSH2 0xE0 CALLDATASIZE PUSH1 0x4 PUSH2 0x8A8 JUMP JUMPDEST PUSH2 0x36B JUMP JUMPDEST PUSH2 0xA7 PUSH2 0x377 JUMP JUMPDEST PUSH2 0xA7 PUSH2 0xFB CALLDATASIZE PUSH1 0x4 PUSH2 0x908 JUMP JUMPDEST PUSH2 0x38A JUMP JUMPDEST PUSH0 SLOAD PUSH1 0x40 MLOAD PUSH1 0x1 PUSH1 0x1 PUSH1 0xA0 SHL SUB SWAP1 SWAP2 AND DUP2 MSTORE PUSH1 0x20 ADD PUSH2 0xC9 JUMP JUMPDEST PUSH2 0xA7 PUSH2 0x128 CALLDATASIZE PUSH1 0x4 PUSH2 0x9C5 JUMP JUMPDEST PUSH2 0x443 JUMP JUMPDEST PUSH2 0xA7 PUSH2 0x13B CALLDATASIZE PUSH1 0x4 PUSH2 0x8A8 JUMP JUMPDEST PUSH2 0x4C7 JUMP JUMPDEST PUSH2 0xA7 PUSH2 0x14E CALLDATASIZE PUSH1 0x4 PUSH2 0xA04 JUMP JUMPDEST PUSH2 0x56E JUMP JUMPDEST PUSH2 0x15B PUSH2 0x5AB JUMP JUMPDEST DUP3 DUP2 EQ PUSH2 0x1BE JUMPI PUSH1 0x40 MLOAD PUSH3 0x461BCD PUSH1 0xE5 SHL DUP2 MSTORE PUSH1 0x20 PUSH1 0x4 DUP3 ADD MSTORE PUSH1 0x26 PUSH1 0x24 DUP3 ADD MSTORE PUSH32 0x4C656E677468206D69736D61746368206265747765656E206B65797320616E20 PUSH1 0x44 DUP3 ADD MSTORE PUSH6 0x617373657473 PUSH1 0xD0 SHL PUSH1 0x64 DUP3 ADD MSTORE PUSH1 0x84 ADD JUMPDEST PUSH1 0x40 MLOAD DUP1 SWAP2 SUB SWAP1 REVERT JUMPDEST PUSH0 JUMPDEST DUP4 DUP2 LT ISZERO PUSH2 0x351 JUMPI PUSH0 DUP4 DUP4 DUP4 DUP2 DUP2 LT PUSH2 0x1DB JUMPI PUSH2 0x1DB PUSH2 0xA31 JUMP JUMPDEST SWAP1 POP PUSH1 0x20 MUL DUP2 ADD SWAP1 PUSH2 0x1ED SWAP2 SWAP1 PUSH2 0xA45 JUMP JUMPDEST SWAP1 POP GT PUSH2 0x22A JUMPI PUSH1 0x40 MLOAD PUSH3 0x461BCD PUSH1 0xE5 SHL DUP2 MSTORE PUSH1 0x20 PUSH1 0x4 DUP3 ADD MSTORE PUSH1 0xB PUSH1 0x24 DUP3 ADD MSTORE PUSH11 0x115B5C1D1E48185CDCD95D PUSH1 0xAA SHL PUSH1 0x44 DUP3 ADD MSTORE PUSH1 0x64 ADD PUSH2 0x1B5 JUMP JUMPDEST PUSH0 PUSH2 0x28B DUP5 DUP5 DUP5 DUP2 DUP2 LT PUSH2 0x240 JUMPI PUSH2 0x240 PUSH2 0xA31 JUMP JUMPDEST SWAP1 POP PUSH1 0x20 MUL DUP2 ADD SWAP1 PUSH2 0x252 SWAP2 SWAP1 PUSH2 0xA45 JUMP JUMPDEST DUP1 DUP1 PUSH1 0x1F ADD PUSH1 0x20 DUP1 SWAP2 DIV MUL PUSH1 0x20 ADD PUSH1 0x40 MLOAD SWAP1 DUP2 ADD PUSH1 0x40 MSTORE DUP1 SWAP4 SWAP3 SWAP2 SWAP1 DUP2 DUP2 MSTORE PUSH1 0x20 ADD DUP4 DUP4 DUP1 DUP3 DUP5 CALLDATACOPY PUSH0 SWAP3 ADD SWAP2 SWAP1 SWAP2 MSTORE POP PUSH2 0x5D7 SWAP3 POP POP POP JUMP JUMPDEST SWAP1 POP DUP1 PUSH1 0x1 PUSH0 DUP9 DUP9 DUP7 DUP2 DUP2 LT PUSH2 0x2A3 JUMPI PUSH2 0x2A3 PUSH2 0xA31 JUMP JUMPDEST PUSH1 0x20 SWAP1 DUP2 MUL SWAP3 SWAP1 SWAP3 ADD CALLDATALOAD DUP4 MSTORE POP DUP2 ADD SWAP2 SWAP1 SWAP2 MSTORE PUSH1 0x40 ADD PUSH0 KECCAK256 DUP1 SLOAD PUSH1 0x1 PUSH1 0x1 PUSH1 0xA0 SHL SUB NOT AND PUSH1 0x1 PUSH1 0x1 PUSH1 0xA0 SHL SUB SWAP3 DUP4 AND OR SWAP1 SSTORE DUP2 AND DUP7 DUP7 DUP5 DUP2 DUP2 LT PUSH2 0x2E9 JUMPI PUSH2 0x2E9 PUSH2 0xA31 JUMP JUMPDEST SWAP1 POP PUSH1 0x20 MUL ADD CALLDATALOAD PUSH32 0x85AC039D1DA307B778050CA29271AC915424BAC011342C9452960F6679B18FF0 DUP7 DUP7 DUP7 DUP2 DUP2 LT PUSH2 0x323 JUMPI PUSH2 0x323 PUSH2 0xA31 JUMP JUMPDEST SWAP1 POP PUSH1 0x20 MUL DUP2 ADD SWAP1 PUSH2 0x335 SWAP2 SWAP1 PUSH2 0xA45 JUMP JUMPDEST PUSH1 0x40 MLOAD SWAP1 DUP2 MSTORE PUSH1 0x20 ADD SWAP1 POP PUSH1 0x40 MLOAD DUP1 SWAP2 SUB SWAP1 LOG3 POP PUSH1 0x1 ADD PUSH2 0x1C0 JUMP JUMPDEST POP POP POP POP POP JUMP JUMPDEST PUSH1 0x60 PUSH2 0x365 DUP3 PUSH1 0x1 PUSH2 0x61D JUMP JUMPDEST SWAP3 SWAP2 POP POP JUMP JUMPDEST PUSH1 0x60 PUSH2 0x365 DUP3 PUSH0 PUSH2 0x61D JUMP JUMPDEST PUSH2 0x37F PUSH2 0x5AB JUMP JUMPDEST PUSH2 0x388 PUSH0 PUSH2 0x6A1 JUMP JUMPDEST JUMP JUMPDEST PUSH2 0x392 PUSH2 0x5AB JUMP JUMPDEST PUSH0 DUP2 MLOAD GT PUSH2 0x3D0 JUMPI PUSH1 0x40 MLOAD PUSH3 0x461BCD PUSH1 0xE5 SHL DUP2 MSTORE PUSH1 0x20 PUSH1 0x4 DUP3 ADD MSTORE PUSH1 0xB PUSH1 0x24 DUP3 ADD MSTORE PUSH11 0x115B5C1D1E48185CDCD95D PUSH1 0xAA SHL PUSH1 0x44 DUP3 ADD MSTORE PUSH1 0x64 ADD PUSH2 0x1B5 JUMP JUMPDEST PUSH0 PUSH2 0x3DA DUP3 PUSH2 0x5D7 JUMP JUMPDEST PUSH0 DUP5 DUP2 MSTORE PUSH1 0x1 PUSH1 0x20 SWAP1 DUP2 MSTORE PUSH1 0x40 SWAP2 DUP3 SWAP1 KECCAK256 DUP1 SLOAD PUSH1 0x1 PUSH1 0x1 PUSH1 0xA0 SHL SUB NOT AND PUSH1 0x1 PUSH1 0x1 PUSH1 0xA0 SHL SUB DUP6 AND SWAP1 DUP2 OR SWAP1 SWAP2 SSTORE DUP6 MLOAD SWAP3 MLOAD SWAP3 DUP4 MSTORE SWAP3 SWAP4 POP DUP6 SWAP2 PUSH32 0x85AC039D1DA307B778050CA29271AC915424BAC011342C9452960F6679B18FF0 SWAP2 ADD PUSH1 0x40 MLOAD DUP1 SWAP2 SUB SWAP1 LOG3 POP POP POP JUMP JUMPDEST PUSH2 0x44B PUSH2 0x5AB JUMP JUMPDEST PUSH0 JUMPDEST DUP2 DUP2 LT ISZERO PUSH2 0x4C2 JUMPI PUSH0 DUP4 DUP4 DUP4 DUP2 DUP2 LT PUSH2 0x468 JUMPI PUSH2 0x468 PUSH2 0xA31 JUMP JUMPDEST PUSH1 0x20 SWAP1 DUP2 MUL SWAP3 SWAP1 SWAP3 ADD CALLDATALOAD PUSH0 DUP2 DUP2 MSTORE PUSH1 0x1 SWAP1 SWAP4 MSTORE PUSH1 0x40 DUP1 DUP5 KECCAK256 DUP1 SLOAD PUSH1 0x1 PUSH1 0x1 PUSH1 0xA0 SHL SUB NOT AND SWAP1 SSTORE MLOAD SWAP1 SWAP4 POP DUP4 SWAP3 PUSH32 0x80BD04276B946F13CA22D049D583A03881B8FBDB5D3166069772A97BAA33845A SWAP3 POP SWAP1 LOG2 POP PUSH1 0x1 ADD PUSH2 0x44D JUMP JUMPDEST POP POP POP JUMP JUMPDEST PUSH2 0x4CF PUSH2 0x5AB JUMP JUMPDEST PUSH0 DUP2 DUP2 MSTORE PUSH1 0x1 PUSH1 0x20 MSTORE PUSH1 0x40 SWAP1 KECCAK256 SLOAD PUSH1 0x1 PUSH1 0x1 PUSH1 0xA0 SHL SUB AND PUSH2 0x529 JUMPI PUSH1 0x40 MLOAD PUSH3 0x461BCD PUSH1 0xE5 SHL DUP2 MSTORE PUSH1 0x20 PUSH1 0x4 DUP3 ADD MSTORE PUSH1 0x14 PUSH1 0x24 DUP3 ADD MSTORE PUSH20 0x105CDCD95D08191BD95CC81B9BDD08195E1A5CDD PUSH1 0x62 SHL PUSH1 0x44 DUP3 ADD MSTORE PUSH1 0x64 ADD PUSH2 0x1B5 JUMP JUMPDEST PUSH0 DUP2 DUP2 MSTORE PUSH1 0x1 PUSH1 0x20 MSTORE PUSH1 0x40 DUP1 DUP3 KECCAK256 DUP1 SLOAD PUSH1 0x1 PUSH1 0x1 PUSH1 0xA0 SHL SUB NOT AND SWAP1 SSTORE MLOAD DUP3 SWAP2 PUSH32 0x80BD04276B946F13CA22D049D583A03881B8FBDB5D3166069772A97BAA33845A SWAP2 LOG2 POP JUMP JUMPDEST PUSH2 0x576 PUSH2 0x5AB JUMP JUMPDEST PUSH1 0x1 PUSH1 0x1 PUSH1 0xA0 SHL SUB DUP2 AND PUSH2 0x59F JUMPI PUSH1 0x40 MLOAD PUSH4 0x1E4FBDF7 PUSH1 0xE0 SHL DUP2 MSTORE PUSH0 PUSH1 0x4 DUP3 ADD MSTORE PUSH1 0x24 ADD PUSH2 0x1B5 JUMP JUMPDEST PUSH2 0x5A8 DUP2 PUSH2 0x6A1 JUMP JUMPDEST POP JUMP JUMPDEST PUSH0 SLOAD PUSH1 0x1 PUSH1 0x1 PUSH1 0xA0 SHL SUB AND CALLER EQ PUSH2 0x388 JUMPI PUSH1 0x40 MLOAD PUSH4 0x118CDAA7 PUSH1 0xE0 SHL DUP2 MSTORE CALLER PUSH1 0x4 DUP3 ADD MSTORE PUSH1 0x24 ADD PUSH2 0x1B5 JUMP JUMPDEST PUSH0 DUP2 MLOAD PUSH1 0x1 DUP2 ADD DUP1 PUSH1 0x40 SHL PUSH12 0xFD61000080600A3D393DF300 OR PUSH2 0xFFFF DUP3 GT DUP6 ADD MSTORE PUSH1 0xA DUP2 ADD PUSH1 0x15 DUP6 ADD PUSH0 CREATE SWAP3 POP POP DUP2 PUSH2 0x617 JUMPI PUSH4 0x30116425 PUSH0 MSTORE PUSH1 0x4 PUSH1 0x1C REVERT JUMPDEST SWAP1 SWAP2 MSTORE SWAP1 JUMP JUMPDEST PUSH0 DUP3 DUP2 MSTORE PUSH1 0x1 PUSH1 0x20 MSTORE PUSH1 0x40 SWAP1 KECCAK256 SLOAD PUSH1 0x60 SWAP1 PUSH1 0x1 PUSH1 0x1 PUSH1 0xA0 SHL SUB AND DUP1 PUSH2 0x67B JUMPI PUSH1 0x40 MLOAD PUSH3 0x461BCD PUSH1 0xE5 SHL DUP2 MSTORE PUSH1 0x20 PUSH1 0x4 DUP3 ADD MSTORE PUSH1 0x14 PUSH1 0x24 DUP3 ADD MSTORE PUSH20 0x105CDCD95D08191BD95CC81B9BDD08195E1A5CDD PUSH1 0x62 SHL PUSH1 0x44 DUP3 ADD MSTORE PUSH1 0x64 ADD PUSH2 0x1B5 JUMP JUMPDEST PUSH0 PUSH2 0x685 DUP3 PUSH2 0x6F0 JUMP JUMPDEST SWAP1 POP DUP4 ISZERO PUSH2 0x699 JUMPI PUSH2 0x696 DUP2 PUSH2 0x738 JUMP JUMPDEST SWAP1 POP JUMPDEST SWAP5 SWAP4 POP POP POP POP JUMP JUMPDEST PUSH0 DUP1 SLOAD PUSH1 0x1 PUSH1 0x1 PUSH1 0xA0 SHL SUB DUP4 DUP2 AND PUSH1 0x1 PUSH1 0x1 PUSH1 0xA0 SHL SUB NOT DUP4 AND DUP2 OR DUP5 SSTORE PUSH1 0x40 MLOAD SWAP2 SWAP1 SWAP3 AND SWAP3 DUP4 SWAP2 PUSH32 0x8BE0079C531659141344CD1FD0A4F28419497F9722A3DAAFE3B4186F6B6457E0 SWAP2 SWAP1 LOG3 POP POP JUMP JUMPDEST PUSH1 0x60 DUP2 EXTCODESIZE DUP1 PUSH2 0x706 JUMPI PUSH4 0x11052BB4 PUSH0 MSTORE PUSH1 0x4 PUSH1 0x1C REVERT JUMPDEST PUSH1 0x1 DUP2 SUB SWAP1 POP PUSH1 0x40 MLOAD SWAP2 POP PUSH2 0xFFE0 PUSH1 0x3F DUP3 ADD AND DUP3 ADD PUSH1 0x40 MSTORE DUP1 DUP3 MSTORE PUSH0 DUP2 PUSH1 0x20 DUP5 ADD ADD MSTORE DUP1 PUSH1 0x1 PUSH1 0x20 DUP5 ADD DUP6 EXTCODECOPY POP SWAP2 SWAP1 POP JUMP JUMPDEST PUSH1 0x40 MLOAD DUP2 MLOAD PUSH1 0x20 DUP4 DUP2 ADD SWAP4 DUP2 DUP5 ADD SWAP3 ADD ADD JUMPDEST DUP1 DUP5 LT ISZERO PUSH2 0x7DC JUMPI DUP4 MLOAD DUP1 PUSH0 BYTE DUP1 PUSH1 0x5 SHR DUP1 PUSH2 0x77C JUMPI POP PUSH1 0x1 DUP7 DUP2 ADD MLOAD DUP6 MSTORE SWAP6 DUP2 ADD PUSH1 0x2 ADD SWAP6 SWAP4 ADD SWAP1 SWAP3 ADD SWAP2 POP PUSH2 0x74A JUMP JUMPDEST PUSH1 0x7 DUP2 EQ DUP4 PUSH1 0x1 BYTE PUSH1 0x7 ADD DUP3 XOR DUP2 MUL DUP3 XOR PUSH1 0x2 ADD PUSH1 0x1 DUP6 DUP4 PUSH1 0x1 ADD BYTE DUP6 PUSH1 0x1F AND PUSH1 0x8 SHL ADD ADD DUP1 DUP9 SUB PUSH1 0x20 DUP3 XOR PUSH1 0x20 DUP4 GT MUL DUP3 XOR SWAP2 POP PUSH0 JUMPDEST DUP2 DUP2 ADD MLOAD DUP11 DUP3 ADD MSTORE DUP3 ADD DUP4 DUP2 LT PUSH2 0x7B3 JUMPI SWAP11 DUP5 ADD PUSH1 0x2 ADD SWAP11 SWAP9 DUP4 ADD SWAP9 POP POP POP POP POP POP POP POP PUSH2 0x74A JUMP JUMPDEST POP PUSH1 0x1F NOT DUP3 DUP3 SUB ADD DUP3 MSTORE PUSH0 DUP2 MSTORE PUSH1 0x20 ADD PUSH1 0x40 MSTORE SWAP2 SWAP1 POP JUMP JUMPDEST PUSH0 PUSH0 DUP4 PUSH1 0x1F DUP5 ADD SLT PUSH2 0x804 JUMPI PUSH0 PUSH0 REVERT JUMPDEST POP DUP2 CALLDATALOAD PUSH8 0xFFFFFFFFFFFFFFFF DUP2 GT ISZERO PUSH2 0x81B JUMPI PUSH0 PUSH0 REVERT JUMPDEST PUSH1 0x20 DUP4 ADD SWAP2 POP DUP4 PUSH1 0x20 DUP3 PUSH1 0x5 SHL DUP6 ADD ADD GT ISZERO PUSH2 0x835 JUMPI PUSH0 PUSH0 REVERT JUMPDEST SWAP3 POP SWAP3 SWAP1 POP JUMP JUMPDEST PUSH0 PUSH0 PUSH0 PUSH0 PUSH1 0x40 DUP6 DUP8 SUB SLT ISZERO PUSH2 0x84F JUMPI PUSH0 PUSH0 REVERT JUMPDEST DUP5 CALLDATALOAD PUSH8 0xFFFFFFFFFFFFFFFF DUP2 GT ISZERO PUSH2 0x865 JUMPI PUSH0 PUSH0 REVERT JUMPDEST PUSH2 0x871 DUP8 DUP3 DUP9 ADD PUSH2 0x7F4 JUMP JUMPDEST SWAP1 SWAP6 POP SWAP4 POP POP PUSH1 0x20 DUP6 ADD CALLDATALOAD PUSH8 0xFFFFFFFFFFFFFFFF DUP2 GT ISZERO PUSH2 0x890 JUMPI PUSH0 PUSH0 REVERT JUMPDEST PUSH2 0x89C DUP8 DUP3 DUP9 ADD PUSH2 0x7F4 JUMP JUMPDEST SWAP6 SWAP9 SWAP5 SWAP8 POP SWAP6 POP POP POP POP JUMP JUMPDEST PUSH0 PUSH1 0x20 DUP3 DUP5 SUB SLT ISZERO PUSH2 0x8B8 JUMPI PUSH0 PUSH0 REVERT JUMPDEST POP CALLDATALOAD SWAP2 SWAP1 POP JUMP JUMPDEST PUSH1 0x20 DUP2 MSTORE PUSH0 DUP3 MLOAD DUP1 PUSH1 0x20 DUP5 ADD MSTORE DUP1 PUSH1 0x20 DUP6 ADD PUSH1 0x40 DUP6 ADD MCOPY PUSH0 PUSH1 0x40 DUP3 DUP6 ADD ADD MSTORE PUSH1 0x40 PUSH1 0x1F NOT PUSH1 0x1F DUP4 ADD AND DUP5 ADD ADD SWAP2 POP POP SWAP3 SWAP2 POP POP JUMP JUMPDEST PUSH4 0x4E487B71 PUSH1 0xE0 SHL PUSH0 MSTORE PUSH1 0x41 PUSH1 0x4 MSTORE PUSH1 0x24 PUSH0 REVERT JUMPDEST PUSH0 PUSH0 PUSH1 0x40 DUP4 DUP6 SUB SLT ISZERO PUSH2 0x919 JUMPI PUSH0 PUSH0 REVERT JUMPDEST DUP3 CALLDATALOAD SWAP2 POP PUSH1 0x20 DUP4 ADD CALLDATALOAD PUSH8 0xFFFFFFFFFFFFFFFF DUP2 GT ISZERO PUSH2 0x936 JUMPI PUSH0 PUSH0 REVERT JUMPDEST DUP4 ADD PUSH1 0x1F DUP2 ADD DUP6 SGT PUSH2 0x946 JUMPI PUSH0 PUSH0 REVERT JUMPDEST DUP1 CALLDATALOAD PUSH8 0xFFFFFFFFFFFFFFFF DUP2 GT ISZERO PUSH2 0x960 JUMPI PUSH2 0x960 PUSH2 0x8F4 JUMP JUMPDEST PUSH1 0x40 MLOAD PUSH1 0x1F DUP3 ADD PUSH1 0x1F NOT SWAP1 DUP2 AND PUSH1 0x3F ADD AND DUP2 ADD PUSH8 0xFFFFFFFFFFFFFFFF DUP2 GT DUP3 DUP3 LT OR ISZERO PUSH2 0x98F JUMPI PUSH2 0x98F PUSH2 0x8F4 JUMP JUMPDEST PUSH1 0x40 MSTORE DUP2 DUP2 MSTORE DUP3 DUP3 ADD PUSH1 0x20 ADD DUP8 LT ISZERO PUSH2 0x9A6 JUMPI PUSH0 PUSH0 REVERT JUMPDEST DUP2 PUSH1 0x20 DUP5 ADD PUSH1 0x20 DUP4 ADD CALLDATACOPY PUSH0 PUSH1 0x20 DUP4 DUP4 ADD ADD MSTORE DUP1 SWAP4 POP POP POP POP SWAP3 POP SWAP3 SWAP1 POP JUMP JUMPDEST PUSH0 PUSH0 PUSH1 0x20 DUP4 DUP6 SUB SLT ISZERO PUSH2 0x9D6 JUMPI PUSH0 PUSH0 REVERT JUMPDEST DUP3 CALLDATALOAD PUSH8 0xFFFFFFFFFFFFFFFF DUP2 GT ISZERO PUSH2 0x9EC JUMPI PUSH0 PUSH0 REVERT JUMPDEST PUSH2 0x9F8 DUP6 DUP3 DUP7 ADD PUSH2 0x7F4 JUMP JUMPDEST SWAP1 SWAP7 SWAP1 SWAP6 POP SWAP4 POP POP POP POP JUMP JUMPDEST PUSH0 PUSH1 0x20 DUP3 DUP5 SUB SLT ISZERO PUSH2 0xA14 JUMPI PUSH0 PUSH0 REVERT JUMPDEST DUP2 CALLDATALOAD PUSH1 0x1 PUSH1 0x1 PUSH1 0xA0 SHL SUB DUP2 AND DUP2 EQ PUSH2 0xA2A JUMPI PUSH0 PUSH0 REVERT JUMPDEST SWAP4 SWAP3 POP POP POP JUMP JUMPDEST PUSH4 0x4E487B71 PUSH1 0xE0 SHL PUSH0 MSTORE PUSH1 0x32 PUSH1 0x4 MSTORE PUSH1 0x24 PUSH0 REVERT JUMPDEST PUSH0 PUSH0 DUP4 CALLDATALOAD PUSH1 0x1E NOT DUP5 CALLDATASIZE SUB ADD DUP2 SLT PUSH2 0xA5A JUMPI PUSH0 PUSH0 REVERT JUMPDEST DUP4 ADD DUP1 CALLDATALOAD SWAP2 POP PUSH8 0xFFFFFFFFFFFFFFFF DUP3 GT ISZERO PUSH2 0xA74 JUMPI PUSH0 PUSH0 REVERT JUMPDEST PUSH1 0x20 ADD SWAP2 POP CALLDATASIZE DUP2 SWAP1 SUB DUP3 SGT ISZERO PUSH2 0x835 JUMPI PUSH0 PUSH0 REVERT INVALID LOG2 PUSH5 0x6970667358 0x22 SLT KECCAK256 SGT CALLDATACOPY COINBASE 0xF6 NUMBER 0x2A EXTCALL RETURN 0xC2 SHL RETURNDATASIZE PREVRANDAO SAR PREVRANDAO GASPRICE SLT SWAP2 SHR MCOPY 0xFC PUSH23 0x4D5552D314772D14AE190664736F6C634300081E003300 "
		},
		"gasEstimates": {
			"creation": {
				"codeDepositCost": "550000",
				"executionCost": "26441",
				"totalCost": "576441"
			},
			"external": {
				"addAsset(uint256,bytes)": "infinite",
				"addAssetsBatch(uint256[],bytes[])": "infinite",
				"loadAssetDecompressed(uint256)": "infinite",
				"loadAssetOriginal(uint256)": "infinite",
				"owner()": "2321",
				"removeAsset(uint256)": "30088",
				"removeAssetsBatch(uint256[])": "infinite",
				"renounceOwnership()": "infinite",
				"transferOwnership(address)": "28382"
			},
			"internal": {
				"_loadAsset(uint256,bool)": "infinite"
			}
		},
		"methodIdentifiers": {
			"addAsset(uint256,bytes)": "749f1647",
			"addAssetsBatch(uint256[],bytes[])": "3e9e21fe",
			"loadAssetDecompressed(uint256)": "48b50a3e",
			"loadAssetOriginal(uint256)": "69dde379",
			"owner()": "8da5cb5b",
			"removeAsset(uint256)": "f14f58f1",
			"removeAssetsBatch(uint256[])": "ed6d374d",
			"renounceOwnership()": "715018a6",
			"transferOwnership(address)": "f2fde38b"
		}
	},
	"abi": [
		{
			"inputs": [],
			"stateMutability": "nonpayable",
			"type": "constructor"
		},
		{
			"inputs": [
				{
					"internalType": "address",
					"name": "owner",
					"type": "address"
				}
			],
			"name": "OwnableInvalidOwner",
			"type": "error"
		},
		{
			"inputs": [
				{
					"internalType": "address",
					"name": "account",
					"type": "address"
				}
			],
			"name": "OwnableUnauthorizedAccount",
			"type": "error"
		},
		{
			"anonymous": false,
			"inputs": [
				{
					"indexed": true,
					"internalType": "uint256",
					"name": "key",
					"type": "uint256"
				},
				{
					"indexed": true,
					"internalType": "address",
					"name": "pointer",
					"type": "address"
				},
				{
					"indexed": false,
					"internalType": "uint256",
					"name": "size",
					"type": "uint256"
				}
			],
			"name": "AssetAdded",
			"type": "event"
		},
		{
			"anonymous": false,
			"inputs": [
				{
					"indexed": true,
					"internalType": "uint256",
					"name": "key",
					"type": "uint256"
				}
			],
			"name": "AssetRemoved",
			"type": "event"
		},
		{
			"anonymous": false,
			"inputs": [
				{
					"indexed": true,
					"internalType": "address",
					"name": "previousOwner",
					"type": "address"
				},
				{
					"indexed": true,
					"internalType": "address",
					"name": "newOwner",
					"type": "address"
				}
			],
			"name": "OwnershipTransferred",
			"type": "event"
		},
		{
			"inputs": [
				{
					"internalType": "uint256",
					"name": "key",
					"type": "uint256"
				},
				{
					"internalType": "bytes",
					"name": "asset",
					"type": "bytes"
				}
			],
			"name": "addAsset",
			"outputs": [],
			"stateMutability": "nonpayable",
			"type": "function"
		},
		{
			"inputs": [
				{
					"internalType": "uint256[]",
					"name": "keys",
					"type": "uint256[]"
				},
				{
					"internalType": "bytes[]",
					"name": "assets",
					"type": "bytes[]"
				}
			],
			"name": "addAssetsBatch",
			"outputs": [],
			"stateMutability": "nonpayable",
			"type": "function"
		},
		{
			"inputs": [
				{
					"internalType": "uint256",
					"name": "key",
					"type": "uint256"
				}
			],
			"name": "loadAssetDecompressed",
			"outputs": [
				{
					"internalType": "bytes",
					"name": "",
					"type": "bytes"
				}
			],
			"stateMutability": "view",
			"type": "function"
		},
		{
			"inputs": [
				{
					"internalType": "uint256",
					"name": "key",
					"type": "uint256"
				}
			],
			"name": "loadAssetOriginal",
			"outputs": [
				{
					"internalType": "bytes",
					"name": "",
					"type": "bytes"
				}
			],
			"stateMutability": "view",
			"type": "function"
		},
		{
			"inputs": [],
			"name": "owner",
			"outputs": [
				{
					"internalType": "address",
					"name": "",
					"type": "address"
				}
			],
			"stateMutability": "view",
			"type": "function"
		},
		{
			"inputs": [
				{
					"internalType": "uint256",
					"name": "key",
					"type": "uint256"
				}
			],
			"name": "removeAsset",
			"outputs": [],
			"stateMutability": "nonpayable",
			"type": "function"
		},
		{
			"inputs": [
				{
					"internalType": "uint256[]",
					"name": "keys",
					"type": "uint256[]"
				}
			],
			"name": "removeAssetsBatch",
			"outputs": [],
			"stateMutability": "nonpayable",
			"type": "function"
		},
		{
			"inputs": [],
			"name": "renounceOwnership",
			"outputs": [],
			"stateMutability": "nonpayable",
			"type": "function"
		},
		{
			"inputs": [
				{
					"internalType": "address",
					"name": "newOwner",
					"type": "address"
				}
			],
			"name": "transferOwnership",
			"outputs": [],
			"stateMutability": "nonpayable",
			"type": "function"
		}
	]
}