{
	"data": {
		"bytecode": {
			"linkReferences": {},
			"object": "6080806040523460155761392f908161001a8239f35b5f80fdfe60806040526004361015610011575f80fd5b5f3560e01c80632743c88f14610d3357806329814be5146109cc5780633f07a23d14610d095780635255e3ce14610b365780635a99506314610b0c57806374953ae214610a905780638e57a737146109cc578063a063f74f146103b9578063c8ef86a41461038f578063d5a6e660146101fc5763e0cf503a14610092575f80fd5b346101f85760403660031901126101f8576101d06100af366113fb565b604051906102c06100c081846113d9565b60158352601f190136602084013761253f6100da83611486565b5260286100e683611816565b5260196100f2836115e6565b5260196100fe8361179f565b52601961010a836117b0565b526019610116836117c1565b526019610122836117d2565b52601961012e836117e3565b52601961013a836117f4565b52601961014683611805565b52601e61015283611a25565b52601e61015e836115a6565b52601e61016a836115b6565b52601e610176836115c6565b52600a6101828361167e565b52600a61018e8361168f565b52600a61019a836116a0565b52600a6101a6836116b1565b52600a6101b2836116c2565b52601e6101be836115d6565b52600f6101ca83611827565b52613758565b60158110156101e457602090604051908152f35b634e487b7160e01b5f52602160045260245ffd5b5f80fd5b346101f85760403660031901126101f85761037b610219366113fb565b6040519061036061022a81846113d9565b601a8352601f19013660208401375f61024283611486565b526102ee61024f8361179f565b526102ee61025c836117e3565b526102ee610269836117f4565b526102ee61027683611805565b526102ee61028383611816565b526102ee61029083611827565b526102ee61029d8361167e565b526102ee6102aa8361168f565b526102ee6102b7836116a0565b526102ee6102c4836117b0565b526102ee6102d1836117c1565b526102ee6102de836117d2565b5261012c6102eb83611adf565b5260e16102f7836115a6565b52609661030383611706565b52605a61030f836116d3565b52604161031b836115d6565b52602d610327836115c6565b52601961033383611a25565b52601961033f836116c2565b52601661034b836116e4565b526014610357836115e6565b52600f610363836115b6565b52600a61036f836116f5565b5260086101ca836116b1565b601a8110156101e457602090604051908152f35b346101f8576103a66103a03661142d565b90613056565b60405160858210156101e4576020918152f35b346101f85760403660031901126101f8576109b86103d6366113fb565b60405190610f606103e781846113d9565b607a8352601f19013660208401376103c861040183611486565b5261027461040e83611b67565b52604061041a83611cff565b526040610426836118e2565b526040610432836118f3565b52604061043e83611904565b52604061044a83611915565b52604061045683611926565b52604061046283611937565b52604061046e83611948565b52604061047a83611959565b52604061048683611a57565b52604061049283611c11565b52604061049e83611c22565b5260406104aa83611c33565b5260406104b683611c44565b5260406104c283611c55565b5260406104ce83611c00565b5260406104da83611a35565b5260406104e683611a46565b5261023a6104f383611bbc565b5261023061050083611b45565b52603261050c8361166d565b526032610518836114a7565b526032610524836114b8565b526032610530836114c9565b52603261053c836114da565b526032610548836114eb565b526032610554836114fc565b5260326105608361150d565b52603261056c8361151e565b5260326105788361152f565b52603261058483611540565b5261021c61059183611a8a565b52602e61059d83611827565b52602e6105a98361167e565b52602e6105b58361168f565b52602e6105c1836116a0565b52602e6105cd836116b1565b52602e6105d9836116c2565b52602e6105e5836116d3565b52602e6105f1836116e4565b52602e6105fd836116f5565b52602e61060983611706565b52602e61061583611adf565b526101db61062283611a25565b526101db61062f83611bef565b526101a961063c8361196a565b526101906106498361186b565b52603e6106558361187c565b52603e6106618361188d565b52603e61066d83611b78565b52603e61067983611b89565b52603e61068583611b9a565b52603e61069183611bab565b5261015b61069e83611cee565b5261013d6106ab83611a9b565b526101186106b883611a79565b5260e16106c483611d32565b52601c6106d083611aac565b52601c6106dc83611abd565b52601c6106e883611d21565b52601c6106f483611d10565b52601c61070083611838565b52601c61070c83611849565b52601c6107188361185a565b52601461072483611af0565b52601461073083611b01565b52601461073c83611551565b52601461074883611562565b52601461075483611573565b52601461076083611584565b52601461076c83611595565b52601461077883611ace565b52602161078483611bcd565b5260216107908361189e565b52602161079c836118af565b5260216107a8836118c0565b5260166107b4836115a6565b5260166107c0836115b6565b5260166107cc836115c6565b5260166107d8836115d6565b5260166107e4836115e6565b52600a6107f08361179f565b52600a6107fc836117b0565b52600a610808836117c1565b52600a610814836117d2565b52600a610820836117e3565b52600a61082c836117f4565b52600a61083883611805565b52600a61084483611816565b52604561085083611b56565b52600561085c836118d1565b5260056108688361199d565b52600561087483611717565b52600561088083611728565b52600561088c83611739565b5260056108988361174a565b5260056108a48361175b565b5260056108b08361176c565b5260056108bc8361177d565b5260056108c8836119ae565b5260056108d4836119bf565b5260056108e0836119d0565b5260056108ec836119e1565b5260056108f8836119f2565b52600561090483611a03565b52600561091083611a14565b52600561091c83611bde565b5260036109288361197b565b5260036109348361198c565b526003610940836115f6565b52600361094c83611607565b52600361095883611618565b52600361096483611629565b5260036109708361163a565b52600361097c8361164b565b5260036109888361165c565b52601761099483611a68565b5260046109a083611b34565b5260036109ac83611b12565b5260036101ca83611b23565b607a8110156101e457602090604051908152f35b346101f85760403660031901126101f8576020610a766109eb366113fb565b604051906101406109fc81846113d9565b60098352601f19013685840137612328610a1583611486565b5261015e610a22836115d6565b5260fa610a2e83611a25565b52608c610a3a836115c6565b526064610a46836117b0565b52604b610a52836115b6565b526032610a5e8361179f565b526019610a6a836115a6565b52600a6101ca836115e6565b610a7f81611423565b60405190610a8c81611423565b8152f35b346101f85760403660031901126101f857610af8610aad366113fb565b60405190610abc60a0836113d9565b6004825260803660208401376126ac610ad483611486565b526028610ae083611a25565b52601e610aec836115a6565b52601e6101ca836115b6565b60048110156101e457602090604051908152f35b346101f857610b23610b1d3661142d565b906124df565b60405160c38210156101e4576020918152f35b346101f857610b97610b473661142d565b610b79610b746104009360405194610b5f81876113d9565b601f8652601f19013660208701373690611d96565b6138a9565b15610bab57611388610b8a836116d3565b526113886101ca836116e4565b601f8110156101e457602090604051908152f35b5f610bb583611486565b5261101d610bc2836116f5565b5261101d610bcf83611af0565b526101f4610bdc83611551565b526101f4610be983611562565b5260fa610bf5836117f4565b52607d610c0183611b01565b526064610c0d836115a6565b52604b610c1983611573565b526032610c2583611a25565b52601e610c3183611805565b52601e610c3d83611816565b52601e610c4983611827565b52601e610c558361167e565b52601e610c618361168f565b52601e610c6d836116a0565b52601e610c79836116b1565b52601e610c85836116c2565b52600b610c91836115b6565b52600b610c9d836115c6565b52600b610ca9836115d6565b52600b610cb5836115e6565b52600b610cc18361179f565b52600b610ccd836117b0565b52600b610cd9836117c1565b52600b610ce5836117d2565b52600b610cf1836117e3565b526019610cfd83611706565b5260196101ca83611adf565b346101f857610d20610d1a3661142d565b90612146565b60405160138210156101e4576020918152f35b346101f85760403660031901126101f857611395610d50366113fb565b60405190611080610d6181846113d9565b60838352601f1901366020840137610367610d7b83611486565b526055610d87836114a7565b526055610d93836114b8565b526055610d9f836114c9565b526055610dab836114da565b526055610db7836114eb565b526055610dc3836114fc565b526055610dcf8361150d565b526055610ddb8361151e565b526055610de78361152f565b526055610df383611540565b526096610dff83611551565b526096610e0b83611562565b526096610e1783611573565b526096610e2383611584565b526096610e2f83611595565b526092610e3b836115a6565b526092610e47836115b6565b526092610e53836115c6565b526092610e5f836115d6565b526092610e6b836115e6565b52605a610e77836115f6565b52605a610e8383611607565b52605a610e8f83611618565b52605a610e9b83611629565b52605a610ea78361163a565b52605a610eb38361164b565b52605a610ebf8361165c565b52605a610ecb8361166d565b526050610ed78361167e565b526050610ee38361168f565b526050610eef836116a0565b526050610efb836116b1565b526050610f07836116c2565b526050610f13836116d3565b526050610f1f836116e4565b526050610f2b836116f5565b526050610f3783611706565b526057610f4383611717565b526057610f4f83611728565b526057610f5b83611739565b526057610f678361174a565b526057610f738361175b565b526057610f7f8361176c565b526057610f8b8361177d565b526057610f978361178e565b526049610fa38361179f565b526049610faf836117b0565b526049610fbb836117c1565b526049610fc7836117d2565b526049610fd3836117e3565b526049610fdf836117f4565b526049610feb83611805565b526049610ff783611816565b52604961100383611827565b5261017761101083611838565b52604a61101c83611849565b52604a6110288361185a565b52604a6110348361186b565b52604a6110408361187c565b52604a61104c8361188d565b52605b6110588361189e565b52605b611064836118af565b52605b611070836118c0565b52605b61107c836118d1565b52602c611088836118e2565b52602c611094836118f3565b52602c6110a083611904565b52602c6110ac83611915565b52602c6110b883611926565b52602c6110c483611937565b52602c6110d083611948565b52602c6110dc83611959565b5260746110e88361196a565b5260746110f48361197b565b5260746111008361198c565b5261015461110d8361199d565b526030611119836119ae565b526030611125836119bf565b526030611131836119d0565b52603061113d836119e1565b526030611149836119f2565b52603061115583611a03565b52603061116183611a14565b5260e161116d83611a25565b52601861117983611a35565b52601861118583611a46565b52601861119183611a57565b52601861119d83611a68565b5260186111a983611a79565b5260186111b583611a8a565b5260186111c183611a9b565b5260186111cd83611aac565b5260186111d983611abd565b5260c86111e583611ace565b5260406111f183611adf565b5260406111fd83611af0565b52604061120983611b01565b52603261121583611b12565b52603261122183611b23565b52603261122d83611b34565b52604b61123983611b45565b52602861124583611b56565b52601961125183611b67565b52604161125d83611b78565b52600f61126983611b89565b52600f61127583611b9a565b52600f61128183611bab565b52600f61128d83611bbc565b52603761129983611bcd565b5260326112a583611bde565b5260066112b183611bef565b5260066112bd83611c00565b5260066112c983611c11565b5260066112d583611c22565b5260066112e183611c33565b5260066112ed83611c44565b5260066112f983611c55565b52600561130583611c66565b52600561131183611c77565b52600561131d83611c88565b52600561132983611c99565b52600561133583611caa565b52600561134183611cbb565b52600561134d83611ccc565b52600561135983611cdd565b52601961136583611cee565b52600a61137183611cff565b52601e61137d83611d10565b52600f61138983611d21565b5260036101ca83611d32565b60838110156101e457602090604051908152f35b6040810190811067ffffffffffffffff8211176113c557604052565b634e487b7160e01b5f52604160045260245ffd5b90601f8019910116810190811067ffffffffffffffff8211176113c557604052565b60409060031901126101f85760405190611414826113a9565b60043582526024356020830152565b600911156101e457565b9060606003198301126101f85760043567ffffffffffffffff81116101f8576103e081840360031901126101f85760246040916004019303126101f857604051611476816113a9565b6024358152604435602082015290565b8051156114935760200190565b634e487b7160e01b5f52603260045260245ffd5b80516059101561149357610b400190565b8051605a101561149357610b600190565b8051605b101561149357610b800190565b8051605c101561149357610ba00190565b8051605d101561149357610bc00190565b8051605e101561149357610be00190565b8051605f101561149357610c000190565b80516060101561149357610c200190565b80516061101561149357610c400190565b80516062101561149357610c600190565b8051601c1015611493576103a00190565b8051601d1015611493576103c00190565b8051601e1015611493576103e00190565b8051601f1015611493576104000190565b805160201015611493576104200190565b8051600210156114935760600190565b8051600310156114935760800190565b8051600410156114935760a00190565b8051600510156114935760c00190565b8051600610156114935760e00190565b80516051101561149357610a400190565b80516052101561149357610a600190565b80516053101561149357610a800190565b80516054101561149357610aa00190565b80516055101561149357610ac00190565b80516056101561149357610ae00190565b80516057101561149357610b000190565b80516058101561149357610b200190565b805160101015611493576102200190565b805160111015611493576102400190565b805160121015611493576102600190565b805160131015611493576102800190565b805160141015611493576102a00190565b805160151015611493576102c00190565b805160161015611493576102e00190565b805160171015611493576103000190565b805160181015611493576103200190565b80516073101561149357610e800190565b80516074101561149357610ea00190565b80516075101561149357610ec00190565b80516076101561149357610ee00190565b80516077101561149357610f000190565b80516078101561149357610f200190565b80516079101561149357610f400190565b8051607a101561149357610f600190565b805160071015611493576101000190565b805160081015611493576101200190565b805160091015611493576101400190565b8051600a1015611493576101600190565b8051600b1015611493576101800190565b8051600c1015611493576101a00190565b8051600d1015611493576101c00190565b8051600e1015611493576101e00190565b8051600f1015611493576102000190565b805160341015611493576106a00190565b805160351015611493576106c00190565b805160361015611493576106e00190565b805160371015611493576107000190565b805160381015611493576107200190565b805160391015611493576107400190565b8051606e101561149357610de00190565b8051606f101561149357610e000190565b80516070101561149357610e200190565b80516071101561149357610e400190565b80516063101561149357610c800190565b80516064101561149357610ca00190565b80516065101561149357610cc00190565b80516066101561149357610ce00190565b80516067101561149357610d000190565b80516068101561149357610d200190565b80516069101561149357610d400190565b8051606a101561149357610d600190565b8051604e1015611493576109e00190565b8051604f101561149357610a000190565b80516050101561149357610a200190565b80516072101561149357610e600190565b805160421015611493576108600190565b805160431015611493576108800190565b805160441015611493576108a00190565b805160451015611493576108c00190565b805160461015611493576108e00190565b805160471015611493576109000190565b805160481015611493576109200190565b8051600110156114935760400190565b805160291015611493576105400190565b8051602a1015611493576105600190565b8051602b1015611493576105800190565b8051602c1015611493576105a00190565b8051602d1015611493576105c00190565b8051602e1015611493576105e00190565b8051602f1015611493576106000190565b805160301015611493576106200190565b805160311015611493576106400190565b805160211015611493576104400190565b805160191015611493576103400190565b8051601a1015611493576103600190565b8051601b1015611493576103800190565b8051603f1015611493576108000190565b805160401015611493576108200190565b805160411015611493576108400190565b8051604a1015611493576109600190565b8051604c1015611493576109a00190565b8051604d1015611493576109c00190565b8051603a1015611493576107600190565b8051603b1015611493576107800190565b8051603c1015611493576107a00190565b8051603d1015611493576107c00190565b8051603e1015611493576107e00190565b8051606d101561149357610dc00190565b805160491015611493576109400190565b805160221015611493576104600190565b805160281015611493576105200190565b805160231015611493576104800190565b805160241015611493576104a00190565b805160251015611493576104c00190565b805160261015611493576104e00190565b805160271015611493576105000190565b8051607b101561149357610f800190565b8051607c101561149357610fa00190565b8051607d101561149357610fc00190565b8051607e101561149357610fe00190565b8051607f1015611493576110000190565b805160801015611493576110200190565b805160811015611493576110400190565b805160821015611493576110600190565b8051606c101561149357610da00190565b8051606b101561149357610d800190565b805160331015611493576106800190565b805160321015611493576106600190565b8051604b1015611493576109800190565b805160831015611493576110800190565b805160841015611493576110a00190565b80518210156114935760209160051b010190565b359060ff821682036101f857565b359061ffff821682036101f857565b9190916103e0818403126101f857604051906103e0820182811067ffffffffffffffff8211176113c5576040528193813567ffffffffffffffff81116101f857820181601f820112156101f85780359067ffffffffffffffff82116113c55760208260051b0192611e0a60405194856113d9565b828452602060a08186019402830101918183116101f857602001925b82841061209c57505050508252611e3f60208201611d79565b6020830152611e5060408201611d87565b6040830152611e6160608201611d87565b6060830152608081013563ffffffff811681036101f857608083015260a081013560028110156101f85760a083015260c081013560058110156101f85760c083015260e0810135601d8110156101f85760e083015261010081013560178110156101f85761010083015261012081013560148110156101f85761012083015261014081013560098110156101f85761014083015261016081013560098110156101f85761016083015261018081013560048110156101f8576101808301526101a081013560588110156101f8576101a08301526101c081013560168110156101f8576101c08301526101e081013560d48110156101f8576101e0830152610200810135606a8110156101f85761020083015261022081013560a98110156101f85761022083015261024081013560808110156101f857610240830152610260810135601a8110156101f857610260830152610280810135601f8110156101f8576102808301526102a081013560138110156101f8576102a08301526102c081013560098110156101f8576102c08301526102e081013560098110156101f8576102e083015261030081013560048110156101f85761030083015261032081013560158110156101f85761032083015261034081013560c38110156101f85761034083015261036081013560858110156101f85761036083015261038081013560838110156101f8576103808301526103a081013590607a8210156101f8576103c0916103a084015201359060178210156101f8576103c00152565b83820360a081126101f857604051906080820182811067ffffffffffffffff8211176113c5576040528535601b8110156101f85782526120de60208701611d79565b602083015260408601359081151582036101f85760409182840152605f1901126101f8576040519161210f836113a9565b606086013591601b8310156101f8578360209360a0955261213260808901611d79565b848201526060820152815201930192611e26565b6040519061028061215781846113d9565b60138352601f19013660208401376121776121723683611d96565b61385d565b80156124c7575b15612278575061226c916124a161219483611486565b5260c86121a083611816565b5260236121ac836115e6565b5260166121b8836117f4565b5260146121c48361167e565b5260126121d0836117d2565b5260106121dc83611a25565b52600e6121e88361168f565b52600c6121f4836115a6565b52600a612200836117e3565b52600861220c836116a0565b52607d612218836115d6565b52604b612224836115b6565b526010612230836115c6565b52600c61223c83611805565b52600c61224883611827565b52600a6122548361179f565b52600a612260836117b0565b5260086101ca836117c1565b60138110156101e45790565b6102606122853683611d96565b0151601a8110156101e45760021480156124a6575b15612304575061226c916124a16122b083611486565b5260c86122bc83611816565b52604b6122c8836115b6565b5260106122d4836115c6565b52600c6122e083611805565b52600c6122ec83611827565b52600a6122f88361179f565b52600a6101ca836117b0565b6102606123113683611d96565b0151601a8110156101e457600114908115612483575b811561246e575b811561244b575b8115612428575b8115612405575b81156123ea575b50156123e45761226c9161256261236083611486565b5260c861236c83611816565b526023612378836115e6565b526016612384836117f4565b5260146123908361167e565b52601261239c836117d2565b5260106123a883611a25565b52600e6123b48361168f565b52600c6123c0836115a6565b52600a6123cc836117e3565b5260086123d8836116a0565b52604b6101ca836115b6565b50505f90565b6123ff91506123fa903690611d96565b6138bd565b5f61234a565b90506102606124143683611d96565b0151601a8110156101e45760161490612343565b90506102606124373683611d96565b0151601a8110156101e4576006149061233c565b905061026061245a3683611d96565b0151601a8110156101e45760051490612335565b905061247d610b743683611d96565b9061232e565b90506102606124923683611d96565b0151601a8110156101e45760031490612327565b506102606124b43683611d96565b0151601a8110156101e45760181461229a565b506124da6124d53683611d96565b613895565b61217e565b604051906118806124f081846113d9565b60c38352601f190136602084013761250b6121723683611d96565b8015613043575b15612fd4575061019061252482611486565b525b60e161253182611a25565b52609661253d826115c6565b52607d612549826115a6565b526064612555826115d6565b52604c612561826117f4565b52602061256d826115b6565b526020612579826115e6565b5260206125858261179f565b526020612591826117b0565b52602061259d826117c1565b5260206125a9826117d2565b5260206125b5826117e3565b5260e16125c182611805565b5260966125cd8261167e565b52607d6125d982611816565b5260646125e58261168f565b52604c6125f182611706565b5260206125fd82611827565b526020612609826116a0565b526020612615826116b1565b526020612621826116c2565b52602061262d826116d3565b526020612639826116e4565b526020612645826116f5565b5260e161265182611584565b52609661265d82611bef565b52607d61266982611595565b52606461267582611c11565b52604b61268182611a46565b52602061268d82611ace565b52602061269982611c22565b5260206126a582611c33565b5260206126b182611c44565b5260206126bd82611c55565b5260206126c982611c00565b5260206126d582611a35565b5260e16126e182611618565b5260966126ed8261164b565b52607d6126f982611629565b5260646127058261165c565b52604c612711826114fc565b52602061271d8261163a565b5260206127298261166d565b526020612735826114a7565b526020612741826114b8565b52602061274d826114c9565b526020612759826114da565b526020612765826114eb565b52805160871015611493576110e081019160e16111008301528151608a1015611493576111408201609661116084015282516088101561149357607d6111208401528251608b101561149357606461118084015282516092101561149357611240830190604c61126085015283516089101561149357602090528251608c10156114935760206111a08401528251608d10156114935760206111c08401528251608e10156114935760206111e08401528251608f101561149357602061120084015282516090101561149357602061122084015282516091101561149357602090528151609f1015611493576113e0820160e1611400840152825160a210156114935761144083016096611460850152835160a0101561149357607d611420850152835160a31015611493576064611480850152835160aa101561149357611540840190604c611560860152845160a110156114935760209052835160a410156114935760206114a0850152835160a510156114935760206114c0850152835160a610156114935760206114e0850152835160a71015611493576020611500850152835160a81015611493576020611520850152835160a91015611493576020905260d261293284611a57565b52609661293e84611a8a565b52607861294a84611a68565b52606461295684611a9b565b52603c6129628461185a565b52601e61296e84611a79565b52601e61297a84611aac565b52601e61298684611abd565b52601e61299284611d21565b52601e61299e84611d10565b52601e6129aa84611838565b52601e6129b684611849565b5260d26129c28461150d565b5260966129ce84611540565b5260786129da8461151e565b5260646129e6846118e2565b52603c6129f284611959565b52601e6129fe8461152f565b52601e612a0a846118f3565b52601e612a1684611904565b52601e612a2284611915565b52601e612a2e84611926565b52601e612a3a84611937565b52601e612a4684611948565b52825160ab101561149357604b611580840152825160ae1015611493576115c0830160416115e0850152835160ac10156114935760326115a0850152835160af101561149357602d611600850152835160b61015611493576116c0840190601f6116e0860152845160ad101561149357600c9052835160b0101561149357600c611620850152835160b1101561149357600c611640850152835160b2101561149357600c611660850152835160b3101561149357600c611680850152835160b4101561149357600c6116a0850152835160b5101561149357600c905282516093101561149357604b611280840152825160961015611493576112c0830160416112e08501528351609410156114935760326112a085015283516097101561149357602d6113008501528351609e101561149357601f6113c08501925283516095101561149357600c905282516098101561149357600c61132084015282516099101561149357600c6113408401528251609a101561149357600c6113608401528251609b101561149357600c6113808401528251609c101561149357600c6113a08401528251609d101561149357600c9052604b612c038361186b565b526041612c0f83611b78565b526032612c1b8361187c565b52602d612c2783611b89565b52601f612c33836119ae565b52600c612c3f8361188d565b52600c612c4b83611b9a565b52600c612c5783611bab565b52600c612c6383611bbc565b52600c612c6f83611b12565b52600c612c7b83611b23565b52600c612c8783611b34565b52815160b7101561149357604b611700830152815160ba10156114935761174082016041611760840152825160b81015611493576032611720840152825160bb101561149357602d611780840152825160c2101561149357611840830190601f611860850152835160b9101561149357600c9052825160bc101561149357600c6117a0840152825160bd101561149357600c6117c0840152825160be101561149357600c6117e0840152825160bf101561149357600c611800840152825160c0101561149357600c611820840152825160c1101561149357600c9052604b612d6e836119bf565b526037612d7a836119f2565b52602d612d86836119d0565b526023612d9283611a03565b526011612d9e83611607565b526007612daa836119e1565b526007612db683611a14565b526007612dc283611b67565b526007612dce8361196a565b526007612dda8361197b565b526007612de68361198c565b526007612df2836115f6565b526006612dfe83611bde565b526006612e0a83611b45565b526006612e1683611d32565b526006612e2283611b56565b526049612e2e83611c66565b526037612e3a83611c99565b52602d612e4683611c77565b526023612e5283611caa565b5281516086101561149357600f6110c083019352600b612e7183611c88565b52600b612e7d83611cbb565b52600b612e8983611ccc565b52600b612e9583611cdd565b52600b612ea183611d43565b52600b612ead83611d54565b5281516085101561149357600b83612fc8945052603c612ecc83611cff565b52602d612ed883611cee565b526023612ee48361189e565b526014612ef0836118af565b52600f612efc8361178e565b526009612f0883611bcd565b526009612f14836118c0565b526009612f2083611739565b526009612f2c8361174a565b526009612f388361175b565b526009612f448361176c565b526009612f508361177d565b526003612f5c836118d1565b526003612f688361199d565b526003612f7483611717565b526003612f8083611728565b526029612f8c83611adf565b526029612f9883611af0565b526029612fa483611b01565b526029612fb083611551565b526029612fbc83611562565b5260296101ca83611573565b60c38110156101e45790565b612fe6612fe13683611d96565b6138d1565b908115613029575b8115613013575b50156130015750505f90565b6104b061300d82611486565b52612526565b61302391506123fa903690611d96565b5f612ff5565b905061303d6130383683611d96565b6138e5565b90612fee565b506130516124d53683611d96565b612512565b604051906110c061306781846113d9565b60858352601f19013660208401376130826121723683611d96565b8015613745575b156136dc57506136d09161019061309f83611486565b525b60e16130ac83611a25565b5260966130b8836115c6565b52607d6130c4836115a6565b5260646130d0836115d6565b52604b6130dc836117f4565b5260216130e8836115b6565b5260206130f4836115e6565b5260206131008361179f565b52602061310c836117b0565b526020613118836117c1565b526020613124836117d2565b526020613130836117e3565b5260e161313c83611805565b5260966131488361167e565b52607d61315483611816565b5260646131608361168f565b52604b61316c83611706565b52602161317883611827565b526020613184836116a0565b526020613190836116b1565b52602061319c836116c2565b5260206131a8836116d3565b5260206131b4836116e4565b5260206131c0836116f5565b5260e16131cc83611bde565b5260966131d883611b56565b52607d6131e483611b45565b5260646131f083611b67565b52604b6131fc83611629565b52602161320883611d32565b5260206132148361196a565b5260206132208361197b565b52602061322c8361198c565b526020613238836115f6565b52602061324483611607565b52602061325083611618565b5260e161325c8361152f565b526096613268836118f3565b52607d61327483611540565b52606461328083611904565b52604b61328c83611cee565b526021613298836118e2565b5260206132a483611915565b5260206132b083611926565b5260206132bc83611937565b5260206132c883611948565b5260206132d483611959565b5260206132e083611cff565b5260d06132ec83611adf565b5260966132f883611551565b52607861330483611af0565b52606461331083611562565b52603c61331c83611c22565b52602061332883611b01565b52601e61333483611573565b52601e61334083611584565b52601e61334c83611595565b52601e61335883611ace565b52601e61336483611bef565b52601e61337083611c11565b5260d061337c83611abd565b52609661338883611838565b52607861339483611d21565b5260646133a083611849565b52603c6133ac83611b9a565b52601f6133b883611d10565b52601f6133c48361185a565b52601e6133d08361186b565b52601e6133dc8361187c565b52601e6133e88361188d565b52601e6133f483611b78565b52601e61340083611b89565b52604b61340c83611bcd565b526041613418836118c0565b5260326134248361189e565b52602d613430836118d1565b52601c61343c8361176c565b52600d613448836118af565b52600d6134548361199d565b52600d61346083611717565b52600c61346c83611728565b52600c61347883611739565b52600c6134848361174a565b52600c6134908361175b565b52604b61349c8361163a565b5260416134a88361166d565b5260326134b48361164b565b52602d6134c0836114a7565b52601c6134cc8361151e565b52600d6134d88361165c565b52600d6134e4836114b8565b52600d6134f0836114c9565b52600c6134fc836114da565b52600c613508836114eb565b52600c613514836114fc565b52600c6135208361150d565b52604b61352c83611c33565b52604161353883611c00565b52603261354483611c44565b52602d61355083611a35565b52601c61355c83611aac565b52600d61356883611c55565b52600d61357483611a46565b52600d61358083611a57565b52600c61358c83611a68565b52600c61359883611a79565b52600c6135a483611a8a565b52600c6135b083611a9b565b52604b6135bc8361177d565b5260416135c883611c77565b5260326135d48361178e565b52602d6135e083611c88565b52601c6135ec83611d54565b52600d6135f883611c66565b52600d61360483611c99565b52600d61361083611caa565b52600c61361c83611cbb565b52600c61362883611ccc565b52600c61363483611cdd565b52600c61364083611d43565b52604b61364c83611bab565b52603761365883611b23565b52602d61366483611bbc565b52602361367083611b34565b52600f61367c83611a14565b52600b61368883611b12565b52600b613694836119ae565b52600b6136a0836119bf565b52600b6136ac836119d0565b52600b6136b8836119e1565b52600a6136c4836119f2565b52600a6101ca83611a03565b60858110156101e45790565b6136e9612fe13683611d96565b908115613730575b811561371a575b50156137045750505f90565b6136d09161032061371483611486565b526130a1565b61372a91506123fa903690611d96565b5f6136f8565b905061373f6130383683611d96565b906136f1565b506137536124d53683611d96565b613089565b90915f90815b84518310156137825760019061ffff6137778588611d65565b51160192019161375e565b915092916020810180515f1981146138495760010180915281519060405190602082019283526040820152604081526137bc6060826113d9565b519020809152811561383557065f805b83518210156137fd5761ffff6137e28386611d65565b511601908183106137f657600101906137cc565b9250505090565b60405162461bcd60e51b815260206004820152601060248201526f14d95b1958dd1a5bdb8819985a5b195960821b6044820152606490fd5b634e487b7160e01b5f52601260045260245ffd5b634e487b7160e01b5f52601160045260245ffd5b610260018051601a8110156101e45760ff600791161015908161387e575090565b905051601a8110156101e45760ff600a9116111590565b6102600151601a8110156101e45760191490565b6102600151601a8110156101e45760041490565b6102600151601a8110156101e45760171490565b6102600151601a8110156101e45760151490565b6102600151601a8110156101e4576014149056fea26469706673582212207b037721e724c498ea6ff5bb0adfaff8ae22d49cc5b969116709a29dd22f176964736f6c634300081e0033",
			"opcodes": "PUSH1 0x80 DUP1 PUSH1 0x40 MSTORE CALLVALUE PUSH1 0x15 JUMPI PUSH2 0x392F SWAP1 DUP2 PUSH2 0x1A DUP3 CODECOPY RETURN JUMPDEST PUSH0 DUP1 REVERT INVALID PUSH1 0x80 PUSH1 0x40 MSTORE PUSH1 0x4 CALLDATASIZE LT ISZERO PUSH2 0x11 JUMPI PUSH0 DUP1 REVERT JUMPDEST PUSH0 CALLDATALOAD PUSH1 0xE0 SHR DUP1 PUSH4 0x2743C88F EQ PUSH2 0xD33 JUMPI DUP1 PUSH4 0x29814BE5 EQ PUSH2 0x9CC JUMPI DUP1 PUSH4 0x3F07A23D EQ PUSH2 0xD09 JUMPI DUP1 PUSH4 0x5255E3CE EQ PUSH2 0xB36 JUMPI DUP1 PUSH4 0x5A995063 EQ PUSH2 0xB0C JUMPI DUP1 PUSH4 0x74953AE2 EQ PUSH2 0xA90 JUMPI DUP1 PUSH4 0x8E57A737 EQ PUSH2 0x9CC JUMPI DUP1 PUSH4 0xA063F74F EQ PUSH2 0x3B9 JUMPI DUP1 PUSH4 0xC8EF86A4 EQ PUSH2 0x38F JUMPI DUP1 PUSH4 0xD5A6E660 EQ PUSH2 0x1FC JUMPI PUSH4 0xE0CF503A EQ PUSH2 0x92 JUMPI PUSH0 DUP1 REVERT JUMPDEST CALLVALUE PUSH2 0x1F8 JUMPI PUSH1 0x40 CALLDATASIZE PUSH1 0x3 NOT ADD SLT PUSH2 0x1F8 JUMPI PUSH2 0x1D0 PUSH2 0xAF CALLDATASIZE PUSH2 0x13FB JUMP JUMPDEST PUSH1 0x40 MLOAD SWAP1 PUSH2 0x2C0 PUSH2 0xC0 DUP2 DUP5 PUSH2 0x13D9 JUMP JUMPDEST PUSH1 0x15 DUP4 MSTORE PUSH1 0x1F NOT ADD CALLDATASIZE PUSH1 0x20 DUP5 ADD CALLDATACOPY PUSH2 0x253F PUSH2 0xDA DUP4 PUSH2 0x1486 JUMP JUMPDEST MSTORE PUSH1 0x28 PUSH2 0xE6 DUP4 PUSH2 0x1816 JUMP JUMPDEST MSTORE PUSH1 0x19 PUSH2 0xF2 DUP4 PUSH2 0x15E6 JUMP JUMPDEST MSTORE PUSH1 0x19 PUSH2 0xFE DUP4 PUSH2 0x179F JUMP JUMPDEST MSTORE PUSH1 0x19 PUSH2 0x10A DUP4 PUSH2 0x17B0 JUMP JUMPDEST MSTORE PUSH1 0x19 PUSH2 0x116 DUP4 PUSH2 0x17C1 JUMP JUMPDEST MSTORE PUSH1 0x19 PUSH2 0x122 DUP4 PUSH2 0x17D2 JUMP JUMPDEST MSTORE PUSH1 0x19 PUSH2 0x12E DUP4 PUSH2 0x17E3 JUMP JUMPDEST MSTORE PUSH1 0x19 PUSH2 0x13A DUP4 PUSH2 0x17F4 JUMP JUMPDEST MSTORE PUSH1 0x19 PUSH2 0x146 DUP4 PUSH2 0x1805 JUMP JUMPDEST MSTORE PUSH1 0x1E PUSH2 0x152 DUP4 PUSH2 0x1A25 JUMP JUMPDEST MSTORE PUSH1 0x1E PUSH2 0x15E DUP4 PUSH2 0x15A6 JUMP JUMPDEST MSTORE PUSH1 0x1E PUSH2 0x16A DUP4 PUSH2 0x15B6 JUMP JUMPDEST MSTORE PUSH1 0x1E PUSH2 0x176 DUP4 PUSH2 0x15C6 JUMP JUMPDEST MSTORE PUSH1 0xA PUSH2 0x182 DUP4 PUSH2 0x167E JUMP JUMPDEST MSTORE PUSH1 0xA PUSH2 0x18E DUP4 PUSH2 0x168F JUMP JUMPDEST MSTORE PUSH1 0xA PUSH2 0x19A DUP4 PUSH2 0x16A0 JUMP JUMPDEST MSTORE PUSH1 0xA PUSH2 0x1A6 DUP4 PUSH2 0x16B1 JUMP JUMPDEST MSTORE PUSH1 0xA PUSH2 0x1B2 DUP4 PUSH2 0x16C2 JUMP JUMPDEST MSTORE PUSH1 0x1E PUSH2 0x1BE DUP4 PUSH2 0x15D6 JUMP JUMPDEST MSTORE PUSH1 0xF PUSH2 0x1CA DUP4 PUSH2 0x1827 JUMP JUMPDEST MSTORE PUSH2 0x3758 JUMP JUMPDEST PUSH1 0x15 DUP2 LT ISZERO PUSH2 0x1E4 JUMPI PUSH1 0x20 SWAP1 PUSH1 0x40 MLOAD SWAP1 DUP2 MSTORE RETURN JUMPDEST PUSH4 0x4E487B71 PUSH1 0xE0 SHL PUSH0 MSTORE PUSH1 0x21 PUSH1 0x4 MSTORE PUSH1 0x24 PUSH0 REVERT JUMPDEST PUSH0 DUP1 REVERT JUMPDEST CALLVALUE PUSH2 0x1F8 JUMPI PUSH1 0x40 CALLDATASIZE PUSH1 0x3 NOT ADD SLT PUSH2 0x1F8 JUMPI PUSH2 0x37B PUSH2 0x219 CALLDATASIZE PUSH2 0x13FB JUMP JUMPDEST PUSH1 0x40 MLOAD SWAP1 PUSH2 0x360 PUSH2 0x22A DUP2 DUP5 PUSH2 0x13D9 JUMP JUMPDEST PUSH1 0x1A DUP4 MSTORE PUSH1 0x1F NOT ADD CALLDATASIZE PUSH1 0x20 DUP5 ADD CALLDATACOPY PUSH0 PUSH2 0x242 DUP4 PUSH2 0x1486 JUMP JUMPDEST MSTORE PUSH2 0x2EE PUSH2 0x24F DUP4 PUSH2 0x179F JUMP JUMPDEST MSTORE PUSH2 0x2EE PUSH2 0x25C DUP4 PUSH2 0x17E3 JUMP JUMPDEST MSTORE PUSH2 0x2EE PUSH2 0x269 DUP4 PUSH2 0x17F4 JUMP JUMPDEST MSTORE PUSH2 0x2EE PUSH2 0x276 DUP4 PUSH2 0x1805 JUMP JUMPDEST MSTORE PUSH2 0x2EE PUSH2 0x283 DUP4 PUSH2 0x1816 JUMP JUMPDEST MSTORE PUSH2 0x2EE PUSH2 0x290 DUP4 PUSH2 0x1827 JUMP JUMPDEST MSTORE PUSH2 0x2EE PUSH2 0x29D DUP4 PUSH2 0x167E JUMP JUMPDEST MSTORE PUSH2 0x2EE PUSH2 0x2AA DUP4 PUSH2 0x168F JUMP JUMPDEST MSTORE PUSH2 0x2EE PUSH2 0x2B7 DUP4 PUSH2 0x16A0 JUMP JUMPDEST MSTORE PUSH2 0x2EE PUSH2 0x2C4 DUP4 PUSH2 0x17B0 JUMP JUMPDEST MSTORE PUSH2 0x2EE PUSH2 0x2D1 DUP4 PUSH2 0x17C1 JUMP JUMPDEST MSTORE PUSH2 0x2EE PUSH2 0x2DE DUP4 PUSH2 0x17D2 JUMP JUMPDEST MSTORE PUSH2 0x12C PUSH2 0x2EB DUP4 PUSH2 0x1ADF JUMP JUMPDEST MSTORE PUSH1 0xE1 PUSH2 0x2F7 DUP4 PUSH2 0x15A6 JUMP JUMPDEST MSTORE PUSH1 0x96 PUSH2 0x303 DUP4 PUSH2 0x1706 JUMP JUMPDEST MSTORE PUSH1 0x5A PUSH2 0x30F DUP4 PUSH2 0x16D3 JUMP JUMPDEST MSTORE PUSH1 0x41 PUSH2 0x31B DUP4 PUSH2 0x15D6 JUMP JUMPDEST MSTORE PUSH1 0x2D PUSH2 0x327 DUP4 PUSH2 0x15C6 JUMP JUMPDEST MSTORE PUSH1 0x19 PUSH2 0x333 DUP4 PUSH2 0x1A25 JUMP JUMPDEST MSTORE PUSH1 0x19 PUSH2 0x33F DUP4 PUSH2 0x16C2 JUMP JUMPDEST MSTORE PUSH1 0x16 PUSH2 0x34B DUP4 PUSH2 0x16E4 JUMP JUMPDEST MSTORE PUSH1 0x14 PUSH2 0x357 DUP4 PUSH2 0x15E6 JUMP JUMPDEST MSTORE PUSH1 0xF PUSH2 0x363 DUP4 PUSH2 0x15B6 JUMP JUMPDEST MSTORE PUSH1 0xA PUSH2 0x36F DUP4 PUSH2 0x16F5 JUMP JUMPDEST MSTORE PUSH1 0x8 PUSH2 0x1CA DUP4 PUSH2 0x16B1 JUMP JUMPDEST PUSH1 0x1A DUP2 LT ISZERO PUSH2 0x1E4 JUMPI PUSH1 0x20 SWAP1 PUSH1 0x40 MLOAD SWAP1 DUP2 MSTORE RETURN JUMPDEST CALLVALUE PUSH2 0x1F8 JUMPI PUSH2 0x3A6 PUSH2 0x3A0 CALLDATASIZE PUSH2 0x142D JUMP JUMPDEST SWAP1 PUSH2 0x3056 JUMP JUMPDEST PUSH1 0x40 MLOAD PUSH1 0x85 DUP3 LT ISZERO PUSH2 0x1E4 JUMPI PUSH1 0x20 SWAP2 DUP2 MSTORE RETURN JUMPDEST CALLVALUE PUSH2 0x1F8 JUMPI PUSH1 0x40 CALLDATASIZE PUSH1 0x3 NOT ADD SLT PUSH2 0x1F8 JUMPI PUSH2 0x9B8 PUSH2 0x3D6 CALLDATASIZE PUSH2 0x13FB JUMP JUMPDEST PUSH1 0x40 MLOAD SWAP1 PUSH2 0xF60 PUSH2 0x3E7 DUP2 DUP5 PUSH2 0x13D9 JUMP JUMPDEST PUSH1 0x7A DUP4 MSTORE PUSH1 0x1F NOT ADD CALLDATASIZE PUSH1 0x20 DUP5 ADD CALLDATACOPY PUSH2 0x3C8 PUSH2 0x401 DUP4 PUSH2 0x1486 JUMP JUMPDEST MSTORE PUSH2 0x274 PUSH2 0x40E DUP4 PUSH2 0x1B67 JUMP JUMPDEST MSTORE PUSH1 0x40 PUSH2 0x41A DUP4 PUSH2 0x1CFF JUMP JUMPDEST MSTORE PUSH1 0x40 PUSH2 0x426 DUP4 PUSH2 0x18E2 JUMP JUMPDEST MSTORE PUSH1 0x40 PUSH2 0x432 DUP4 PUSH2 0x18F3 JUMP JUMPDEST MSTORE PUSH1 0x40 PUSH2 0x43E DUP4 PUSH2 0x1904 JUMP JUMPDEST MSTORE PUSH1 0x40 PUSH2 0x44A DUP4 PUSH2 0x1915 JUMP JUMPDEST MSTORE PUSH1 0x40 PUSH2 0x456 DUP4 PUSH2 0x1926 JUMP JUMPDEST MSTORE PUSH1 0x40 PUSH2 0x462 DUP4 PUSH2 0x1937 JUMP JUMPDEST MSTORE PUSH1 0x40 PUSH2 0x46E DUP4 PUSH2 0x1948 JUMP JUMPDEST MSTORE PUSH1 0x40 PUSH2 0x47A DUP4 PUSH2 0x1959 JUMP JUMPDEST MSTORE PUSH1 0x40 PUSH2 0x486 DUP4 PUSH2 0x1A57 JUMP JUMPDEST MSTORE PUSH1 0x40 PUSH2 0x492 DUP4 PUSH2 0x1C11 JUMP JUMPDEST MSTORE PUSH1 0x40 PUSH2 0x49E DUP4 PUSH2 0x1C22 JUMP JUMPDEST MSTORE PUSH1 0x40 PUSH2 0x4AA DUP4 PUSH2 0x1C33 JUMP JUMPDEST MSTORE PUSH1 0x40 PUSH2 0x4B6 DUP4 PUSH2 0x1C44 JUMP JUMPDEST MSTORE PUSH1 0x40 PUSH2 0x4C2 DUP4 PUSH2 0x1C55 JUMP JUMPDEST MSTORE PUSH1 0x40 PUSH2 0x4CE DUP4 PUSH2 0x1C00 JUMP JUMPDEST MSTORE PUSH1 0x40 PUSH2 0x4DA DUP4 PUSH2 0x1A35 JUMP JUMPDEST MSTORE PUSH1 0x40 PUSH2 0x4E6 DUP4 PUSH2 0x1A46 JUMP JUMPDEST MSTORE PUSH2 0x23A PUSH2 0x4F3 DUP4 PUSH2 0x1BBC JUMP JUMPDEST MSTORE PUSH2 0x230 PUSH2 0x500 DUP4 PUSH2 0x1B45 JUMP JUMPDEST MSTORE PUSH1 0x32 PUSH2 0x50C DUP4 PUSH2 0x166D JUMP JUMPDEST MSTORE PUSH1 0x32 PUSH2 0x518 DUP4 PUSH2 0x14A7 JUMP JUMPDEST MSTORE PUSH1 0x32 PUSH2 0x524 DUP4 PUSH2 0x14B8 JUMP JUMPDEST MSTORE PUSH1 0x32 PUSH2 0x530 DUP4 PUSH2 0x14C9 JUMP JUMPDEST MSTORE PUSH1 0x32 PUSH2 0x53C DUP4 PUSH2 0x14DA JUMP JUMPDEST MSTORE PUSH1 0x32 PUSH2 0x548 DUP4 PUSH2 0x14EB JUMP JUMPDEST MSTORE PUSH1 0x32 PUSH2 0x554 DUP4 PUSH2 0x14FC JUMP JUMPDEST MSTORE PUSH1 0x32 PUSH2 0x560 DUP4 PUSH2 0x150D JUMP JUMPDEST MSTORE PUSH1 0x32 PUSH2 0x56C DUP4 PUSH2 0x151E JUMP JUMPDEST MSTORE PUSH1 0x32 PUSH2 0x578 DUP4 PUSH2 0x152F JUMP JUMPDEST MSTORE PUSH1 0x32 PUSH2 0x584 DUP4 PUSH2 0x1540 JUMP JUMPDEST MSTORE PUSH2 0x21C PUSH2 0x591 DUP4 PUSH2 0x1A8A JUMP JUMPDEST MSTORE PUSH1 0x2E PUSH2 0x59D DUP4 PUSH2 0x1827 JUMP JUMPDEST MSTORE PUSH1 0x2E PUSH2 0x5A9 DUP4 PUSH2 0x167E JUMP JUMPDEST MSTORE PUSH1 0x2E PUSH2 0x5B5 DUP4 PUSH2 0x168F JUMP JUMPDEST MSTORE PUSH1 0x2E PUSH2 0x5C1 DUP4 PUSH2 0x16A0 JUMP JUMPDEST MSTORE PUSH1 0x2E PUSH2 0x5CD DUP4 PUSH2 0x16B1 JUMP JUMPDEST MSTORE PUSH1 0x2E PUSH2 0x5D9 DUP4 PUSH2 0x16C2 JUMP JUMPDEST MSTORE PUSH1 0x2E PUSH2 0x5E5 DUP4 PUSH2 0x16D3 JUMP JUMPDEST MSTORE PUSH1 0x2E PUSH2 0x5F1 DUP4 PUSH2 0x16E4 JUMP JUMPDEST MSTORE PUSH1 0x2E PUSH2 0x5FD DUP4 PUSH2 0x16F5 JUMP JUMPDEST MSTORE PUSH1 0x2E PUSH2 0x609 DUP4 PUSH2 0x1706 JUMP JUMPDEST MSTORE PUSH1 0x2E PUSH2 0x615 DUP4 PUSH2 0x1ADF JUMP JUMPDEST MSTORE PUSH2 0x1DB PUSH2 0x622 DUP4 PUSH2 0x1A25 JUMP JUMPDEST MSTORE PUSH2 0x1DB PUSH2 0x62F DUP4 PUSH2 0x1BEF JUMP JUMPDEST MSTORE PUSH2 0x1A9 PUSH2 0x63C DUP4 PUSH2 0x196A JUMP JUMPDEST MSTORE PUSH2 0x190 PUSH2 0x649 DUP4 PUSH2 0x186B JUMP JUMPDEST MSTORE PUSH1 0x3E PUSH2 0x655 DUP4 PUSH2 0x187C JUMP JUMPDEST MSTORE PUSH1 0x3E PUSH2 0x661 DUP4 PUSH2 0x188D JUMP JUMPDEST MSTORE PUSH1 0x3E PUSH2 0x66D DUP4 PUSH2 0x1B78 JUMP JUMPDEST MSTORE PUSH1 0x3E PUSH2 0x679 DUP4 PUSH2 0x1B89 JUMP JUMPDEST MSTORE PUSH1 0x3E PUSH2 0x685 DUP4 PUSH2 0x1B9A JUMP JUMPDEST MSTORE PUSH1 0x3E PUSH2 0x691 DUP4 PUSH2 0x1BAB JUMP JUMPDEST MSTORE PUSH2 0x15B PUSH2 0x69E DUP4 PUSH2 0x1CEE JUMP JUMPDEST MSTORE PUSH2 0x13D PUSH2 0x6AB DUP4 PUSH2 0x1A9B JUMP JUMPDEST MSTORE PUSH2 0x118 PUSH2 0x6B8 DUP4 PUSH2 0x1A79 JUMP JUMPDEST MSTORE PUSH1 0xE1 PUSH2 0x6C4 DUP4 PUSH2 0x1D32 JUMP JUMPDEST MSTORE PUSH1 0x1C PUSH2 0x6D0 DUP4 PUSH2 0x1AAC JUMP JUMPDEST MSTORE PUSH1 0x1C PUSH2 0x6DC DUP4 PUSH2 0x1ABD JUMP JUMPDEST MSTORE PUSH1 0x1C PUSH2 0x6E8 DUP4 PUSH2 0x1D21 JUMP JUMPDEST MSTORE PUSH1 0x1C PUSH2 0x6F4 DUP4 PUSH2 0x1D10 JUMP JUMPDEST MSTORE PUSH1 0x1C PUSH2 0x700 DUP4 PUSH2 0x1838 JUMP JUMPDEST MSTORE PUSH1 0x1C PUSH2 0x70C DUP4 PUSH2 0x1849 JUMP JUMPDEST MSTORE PUSH1 0x1C PUSH2 0x718 DUP4 PUSH2 0x185A JUMP JUMPDEST MSTORE PUSH1 0x14 PUSH2 0x724 DUP4 PUSH2 0x1AF0 JUMP JUMPDEST MSTORE PUSH1 0x14 PUSH2 0x730 DUP4 PUSH2 0x1B01 JUMP JUMPDEST MSTORE PUSH1 0x14 PUSH2 0x73C DUP4 PUSH2 0x1551 JUMP JUMPDEST MSTORE PUSH1 0x14 PUSH2 0x748 DUP4 PUSH2 0x1562 JUMP JUMPDEST MSTORE PUSH1 0x14 PUSH2 0x754 DUP4 PUSH2 0x1573 JUMP JUMPDEST MSTORE PUSH1 0x14 PUSH2 0x760 DUP4 PUSH2 0x1584 JUMP JUMPDEST MSTORE PUSH1 0x14 PUSH2 0x76C DUP4 PUSH2 0x1595 JUMP JUMPDEST MSTORE PUSH1 0x14 PUSH2 0x778 DUP4 PUSH2 0x1ACE JUMP JUMPDEST MSTORE PUSH1 0x21 PUSH2 0x784 DUP4 PUSH2 0x1BCD JUMP JUMPDEST MSTORE PUSH1 0x21 PUSH2 0x790 DUP4 PUSH2 0x189E JUMP JUMPDEST MSTORE PUSH1 0x21 PUSH2 0x79C DUP4 PUSH2 0x18AF JUMP JUMPDEST MSTORE PUSH1 0x21 PUSH2 0x7A8 DUP4 PUSH2 0x18C0 JUMP JUMPDEST MSTORE PUSH1 0x16 PUSH2 0x7B4 DUP4 PUSH2 0x15A6 JUMP JUMPDEST MSTORE PUSH1 0x16 PUSH2 0x7C0 DUP4 PUSH2 0x15B6 JUMP JUMPDEST MSTORE PUSH1 0x16 PUSH2 0x7CC DUP4 PUSH2 0x15C6 JUMP JUMPDEST MSTORE PUSH1 0x16 PUSH2 0x7D8 DUP4 PUSH2 0x15D6 JUMP JUMPDEST MSTORE PUSH1 0x16 PUSH2 0x7E4 DUP4 PUSH2 0x15E6 JUMP JUMPDEST MSTORE PUSH1 0xA PUSH2 0x7F0 DUP4 PUSH2 0x179F JUMP JUMPDEST MSTORE PUSH1 0xA PUSH2 0x7FC DUP4 PUSH2 0x17B0 JUMP JUMPDEST MSTORE PUSH1 0xA PUSH2 0x808 DUP4 PUSH2 0x17C1 JUMP JUMPDEST MSTORE PUSH1 0xA PUSH2 0x814 DUP4 PUSH2 0x17D2 JUMP JUMPDEST MSTORE PUSH1 0xA PUSH2 0x820 DUP4 PUSH2 0x17E3 JUMP JUMPDEST MSTORE PUSH1 0xA PUSH2 0x82C DUP4 PUSH2 0x17F4 JUMP JUMPDEST MSTORE PUSH1 0xA PUSH2 0x838 DUP4 PUSH2 0x1805 JUMP JUMPDEST MSTORE PUSH1 0xA PUSH2 0x844 DUP4 PUSH2 0x1816 JUMP JUMPDEST MSTORE PUSH1 0x45 PUSH2 0x850 DUP4 PUSH2 0x1B56 JUMP JUMPDEST MSTORE PUSH1 0x5 PUSH2 0x85C DUP4 PUSH2 0x18D1 JUMP JUMPDEST MSTORE PUSH1 0x5 PUSH2 0x868 DUP4 PUSH2 0x199D JUMP JUMPDEST MSTORE PUSH1 0x5 PUSH2 0x874 DUP4 PUSH2 0x1717 JUMP JUMPDEST MSTORE PUSH1 0x5 PUSH2 0x880 DUP4 PUSH2 0x1728 JUMP JUMPDEST MSTORE PUSH1 0x5 PUSH2 0x88C DUP4 PUSH2 0x1739 JUMP JUMPDEST MSTORE PUSH1 0x5 PUSH2 0x898 DUP4 PUSH2 0x174A JUMP JUMPDEST MSTORE PUSH1 0x5 PUSH2 0x8A4 DUP4 PUSH2 0x175B JUMP JUMPDEST MSTORE PUSH1 0x5 PUSH2 0x8B0 DUP4 PUSH2 0x176C JUMP JUMPDEST MSTORE PUSH1 0x5 PUSH2 0x8BC DUP4 PUSH2 0x177D JUMP JUMPDEST MSTORE PUSH1 0x5 PUSH2 0x8C8 DUP4 PUSH2 0x19AE JUMP JUMPDEST MSTORE PUSH1 0x5 PUSH2 0x8D4 DUP4 PUSH2 0x19BF JUMP JUMPDEST MSTORE PUSH1 0x5 PUSH2 0x8E0 DUP4 PUSH2 0x19D0 JUMP JUMPDEST MSTORE PUSH1 0x5 PUSH2 0x8EC DUP4 PUSH2 0x19E1 JUMP JUMPDEST MSTORE PUSH1 0x5 PUSH2 0x8F8 DUP4 PUSH2 0x19F2 JUMP JUMPDEST MSTORE PUSH1 0x5 PUSH2 0x904 DUP4 PUSH2 0x1A03 JUMP JUMPDEST MSTORE PUSH1 0x5 PUSH2 0x910 DUP4 PUSH2 0x1A14 JUMP JUMPDEST MSTORE PUSH1 0x5 PUSH2 0x91C DUP4 PUSH2 0x1BDE JUMP JUMPDEST MSTORE PUSH1 0x3 PUSH2 0x928 DUP4 PUSH2 0x197B JUMP JUMPDEST MSTORE PUSH1 0x3 PUSH2 0x934 DUP4 PUSH2 0x198C JUMP JUMPDEST MSTORE PUSH1 0x3 PUSH2 0x940 DUP4 PUSH2 0x15F6 JUMP JUMPDEST MSTORE PUSH1 0x3 PUSH2 0x94C DUP4 PUSH2 0x1607 JUMP JUMPDEST MSTORE PUSH1 0x3 PUSH2 0x958 DUP4 PUSH2 0x1618 JUMP JUMPDEST MSTORE PUSH1 0x3 PUSH2 0x964 DUP4 PUSH2 0x1629 JUMP JUMPDEST MSTORE PUSH1 0x3 PUSH2 0x970 DUP4 PUSH2 0x163A JUMP JUMPDEST MSTORE PUSH1 0x3 PUSH2 0x97C DUP4 PUSH2 0x164B JUMP JUMPDEST MSTORE PUSH1 0x3 PUSH2 0x988 DUP4 PUSH2 0x165C JUMP JUMPDEST MSTORE PUSH1 0x17 PUSH2 0x994 DUP4 PUSH2 0x1A68 JUMP JUMPDEST MSTORE PUSH1 0x4 PUSH2 0x9A0 DUP4 PUSH2 0x1B34 JUMP JUMPDEST MSTORE PUSH1 0x3 PUSH2 0x9AC DUP4 PUSH2 0x1B12 JUMP JUMPDEST MSTORE PUSH1 0x3 PUSH2 0x1CA DUP4 PUSH2 0x1B23 JUMP JUMPDEST PUSH1 0x7A DUP2 LT ISZERO PUSH2 0x1E4 JUMPI PUSH1 0x20 SWAP1 PUSH1 0x40 MLOAD SWAP1 DUP2 MSTORE RETURN JUMPDEST CALLVALUE PUSH2 0x1F8 JUMPI PUSH1 0x40 CALLDATASIZE PUSH1 0x3 NOT ADD SLT PUSH2 0x1F8 JUMPI PUSH1 0x20 PUSH2 0xA76 PUSH2 0x9EB CALLDATASIZE PUSH2 0x13FB JUMP JUMPDEST PUSH1 0x40 MLOAD SWAP1 PUSH2 0x140 PUSH2 0x9FC DUP2 DUP5 PUSH2 0x13D9 JUMP JUMPDEST PUSH1 0x9 DUP4 MSTORE PUSH1 0x1F NOT ADD CALLDATASIZE DUP6 DUP5 ADD CALLDATACOPY PUSH2 0x2328 PUSH2 0xA15 DUP4 PUSH2 0x1486 JUMP JUMPDEST MSTORE PUSH2 0x15E PUSH2 0xA22 DUP4 PUSH2 0x15D6 JUMP JUMPDEST MSTORE PUSH1 0xFA PUSH2 0xA2E DUP4 PUSH2 0x1A25 JUMP JUMPDEST MSTORE PUSH1 0x8C PUSH2 0xA3A DUP4 PUSH2 0x15C6 JUMP JUMPDEST MSTORE PUSH1 0x64 PUSH2 0xA46 DUP4 PUSH2 0x17B0 JUMP JUMPDEST MSTORE PUSH1 0x4B PUSH2 0xA52 DUP4 PUSH2 0x15B6 JUMP JUMPDEST MSTORE PUSH1 0x32 PUSH2 0xA5E DUP4 PUSH2 0x179F JUMP JUMPDEST MSTORE PUSH1 0x19 PUSH2 0xA6A DUP4 PUSH2 0x15A6 JUMP JUMPDEST MSTORE PUSH1 0xA PUSH2 0x1CA DUP4 PUSH2 0x15E6 JUMP JUMPDEST PUSH2 0xA7F DUP2 PUSH2 0x1423 JUMP JUMPDEST PUSH1 0x40 MLOAD SWAP1 PUSH2 0xA8C DUP2 PUSH2 0x1423 JUMP JUMPDEST DUP2 MSTORE RETURN JUMPDEST CALLVALUE PUSH2 0x1F8 JUMPI PUSH1 0x40 CALLDATASIZE PUSH1 0x3 NOT ADD SLT PUSH2 0x1F8 JUMPI PUSH2 0xAF8 PUSH2 0xAAD CALLDATASIZE PUSH2 0x13FB JUMP JUMPDEST PUSH1 0x40 MLOAD SWAP1 PUSH2 0xABC PUSH1 0xA0 DUP4 PUSH2 0x13D9 JUMP JUMPDEST PUSH1 0x4 DUP3 MSTORE PUSH1 0x80 CALLDATASIZE PUSH1 0x20 DUP5 ADD CALLDATACOPY PUSH2 0x26AC PUSH2 0xAD4 DUP4 PUSH2 0x1486 JUMP JUMPDEST MSTORE PUSH1 0x28 PUSH2 0xAE0 DUP4 PUSH2 0x1A25 JUMP JUMPDEST MSTORE PUSH1 0x1E PUSH2 0xAEC DUP4 PUSH2 0x15A6 JUMP JUMPDEST MSTORE PUSH1 0x1E PUSH2 0x1CA DUP4 PUSH2 0x15B6 JUMP JUMPDEST PUSH1 0x4 DUP2 LT ISZERO PUSH2 0x1E4 JUMPI PUSH1 0x20 SWAP1 PUSH1 0x40 MLOAD SWAP1 DUP2 MSTORE RETURN JUMPDEST CALLVALUE PUSH2 0x1F8 JUMPI PUSH2 0xB23 PUSH2 0xB1D CALLDATASIZE PUSH2 0x142D JUMP JUMPDEST SWAP1 PUSH2 0x24DF JUMP JUMPDEST PUSH1 0x40 MLOAD PUSH1 0xC3 DUP3 LT ISZERO PUSH2 0x1E4 JUMPI PUSH1 0x20 SWAP2 DUP2 MSTORE RETURN JUMPDEST CALLVALUE PUSH2 0x1F8 JUMPI PUSH2 0xB97 PUSH2 0xB47 CALLDATASIZE PUSH2 0x142D JUMP JUMPDEST PUSH2 0xB79 PUSH2 0xB74 PUSH2 0x400 SWAP4 PUSH1 0x40 MLOAD SWAP5 PUSH2 0xB5F DUP2 DUP8 PUSH2 0x13D9 JUMP JUMPDEST PUSH1 0x1F DUP7 MSTORE PUSH1 0x1F NOT ADD CALLDATASIZE PUSH1 0x20 DUP8 ADD CALLDATACOPY CALLDATASIZE SWAP1 PUSH2 0x1D96 JUMP JUMPDEST PUSH2 0x38A9 JUMP JUMPDEST ISZERO PUSH2 0xBAB JUMPI PUSH2 0x1388 PUSH2 0xB8A DUP4 PUSH2 0x16D3 JUMP JUMPDEST MSTORE PUSH2 0x1388 PUSH2 0x1CA DUP4 PUSH2 0x16E4 JUMP JUMPDEST PUSH1 0x1F DUP2 LT ISZERO PUSH2 0x1E4 JUMPI PUSH1 0x20 SWAP1 PUSH1 0x40 MLOAD SWAP1 DUP2 MSTORE RETURN JUMPDEST PUSH0 PUSH2 0xBB5 DUP4 PUSH2 0x1486 JUMP JUMPDEST MSTORE PUSH2 0x101D PUSH2 0xBC2 DUP4 PUSH2 0x16F5 JUMP JUMPDEST MSTORE PUSH2 0x101D PUSH2 0xBCF DUP4 PUSH2 0x1AF0 JUMP JUMPDEST MSTORE PUSH2 0x1F4 PUSH2 0xBDC DUP4 PUSH2 0x1551 JUMP JUMPDEST MSTORE PUSH2 0x1F4 PUSH2 0xBE9 DUP4 PUSH2 0x1562 JUMP JUMPDEST MSTORE PUSH1 0xFA PUSH2 0xBF5 DUP4 PUSH2 0x17F4 JUMP JUMPDEST MSTORE PUSH1 0x7D PUSH2 0xC01 DUP4 PUSH2 0x1B01 JUMP JUMPDEST MSTORE PUSH1 0x64 PUSH2 0xC0D DUP4 PUSH2 0x15A6 JUMP JUMPDEST MSTORE PUSH1 0x4B PUSH2 0xC19 DUP4 PUSH2 0x1573 JUMP JUMPDEST MSTORE PUSH1 0x32 PUSH2 0xC25 DUP4 PUSH2 0x1A25 JUMP JUMPDEST MSTORE PUSH1 0x1E PUSH2 0xC31 DUP4 PUSH2 0x1805 JUMP JUMPDEST MSTORE PUSH1 0x1E PUSH2 0xC3D DUP4 PUSH2 0x1816 JUMP JUMPDEST MSTORE PUSH1 0x1E PUSH2 0xC49 DUP4 PUSH2 0x1827 JUMP JUMPDEST MSTORE PUSH1 0x1E PUSH2 0xC55 DUP4 PUSH2 0x167E JUMP JUMPDEST MSTORE PUSH1 0x1E PUSH2 0xC61 DUP4 PUSH2 0x168F JUMP JUMPDEST MSTORE PUSH1 0x1E PUSH2 0xC6D DUP4 PUSH2 0x16A0 JUMP JUMPDEST MSTORE PUSH1 0x1E PUSH2 0xC79 DUP4 PUSH2 0x16B1 JUMP JUMPDEST MSTORE PUSH1 0x1E PUSH2 0xC85 DUP4 PUSH2 0x16C2 JUMP JUMPDEST MSTORE PUSH1 0xB PUSH2 0xC91 DUP4 PUSH2 0x15B6 JUMP JUMPDEST MSTORE PUSH1 0xB PUSH2 0xC9D DUP4 PUSH2 0x15C6 JUMP JUMPDEST MSTORE PUSH1 0xB PUSH2 0xCA9 DUP4 PUSH2 0x15D6 JUMP JUMPDEST MSTORE PUSH1 0xB PUSH2 0xCB5 DUP4 PUSH2 0x15E6 JUMP JUMPDEST MSTORE PUSH1 0xB PUSH2 0xCC1 DUP4 PUSH2 0x179F JUMP JUMPDEST MSTORE PUSH1 0xB PUSH2 0xCCD DUP4 PUSH2 0x17B0 JUMP JUMPDEST MSTORE PUSH1 0xB PUSH2 0xCD9 DUP4 PUSH2 0x17C1 JUMP JUMPDEST MSTORE PUSH1 0xB PUSH2 0xCE5 DUP4 PUSH2 0x17D2 JUMP JUMPDEST MSTORE PUSH1 0xB PUSH2 0xCF1 DUP4 PUSH2 0x17E3 JUMP JUMPDEST MSTORE PUSH1 0x19 PUSH2 0xCFD DUP4 PUSH2 0x1706 JUMP JUMPDEST MSTORE PUSH1 0x19 PUSH2 0x1CA DUP4 PUSH2 0x1ADF JUMP JUMPDEST CALLVALUE PUSH2 0x1F8 JUMPI PUSH2 0xD20 PUSH2 0xD1A CALLDATASIZE PUSH2 0x142D JUMP JUMPDEST SWAP1 PUSH2 0x2146 JUMP JUMPDEST PUSH1 0x40 MLOAD PUSH1 0x13 DUP3 LT ISZERO PUSH2 0x1E4 JUMPI PUSH1 0x20 SWAP2 DUP2 MSTORE RETURN JUMPDEST CALLVALUE PUSH2 0x1F8 JUMPI PUSH1 0x40 CALLDATASIZE PUSH1 0x3 NOT ADD SLT PUSH2 0x1F8 JUMPI PUSH2 0x1395 PUSH2 0xD50 CALLDATASIZE PUSH2 0x13FB JUMP JUMPDEST PUSH1 0x40 MLOAD SWAP1 PUSH2 0x1080 PUSH2 0xD61 DUP2 DUP5 PUSH2 0x13D9 JUMP JUMPDEST PUSH1 0x83 DUP4 MSTORE PUSH1 0x1F NOT ADD CALLDATASIZE PUSH1 0x20 DUP5 ADD CALLDATACOPY PUSH2 0x367 PUSH2 0xD7B DUP4 PUSH2 0x1486 JUMP JUMPDEST MSTORE PUSH1 0x55 PUSH2 0xD87 DUP4 PUSH2 0x14A7 JUMP JUMPDEST MSTORE PUSH1 0x55 PUSH2 0xD93 DUP4 PUSH2 0x14B8 JUMP JUMPDEST MSTORE PUSH1 0x55 PUSH2 0xD9F DUP4 PUSH2 0x14C9 JUMP JUMPDEST MSTORE PUSH1 0x55 PUSH2 0xDAB DUP4 PUSH2 0x14DA JUMP JUMPDEST MSTORE PUSH1 0x55 PUSH2 0xDB7 DUP4 PUSH2 0x14EB JUMP JUMPDEST MSTORE PUSH1 0x55 PUSH2 0xDC3 DUP4 PUSH2 0x14FC JUMP JUMPDEST MSTORE PUSH1 0x55 PUSH2 0xDCF DUP4 PUSH2 0x150D JUMP JUMPDEST MSTORE PUSH1 0x55 PUSH2 0xDDB DUP4 PUSH2 0x151E JUMP JUMPDEST MSTORE PUSH1 0x55 PUSH2 0xDE7 DUP4 PUSH2 0x152F JUMP JUMPDEST MSTORE PUSH1 0x55 PUSH2 0xDF3 DUP4 PUSH2 0x1540 JUMP JUMPDEST MSTORE PUSH1 0x96 PUSH2 0xDFF DUP4 PUSH2 0x1551 JUMP JUMPDEST MSTORE PUSH1 0x96 PUSH2 0xE0B DUP4 PUSH2 0x1562 JUMP JUMPDEST MSTORE PUSH1 0x96 PUSH2 0xE17 DUP4 PUSH2 0x1573 JUMP JUMPDEST MSTORE PUSH1 0x96 PUSH2 0xE23 DUP4 PUSH2 0x1584 JUMP JUMPDEST MSTORE PUSH1 0x96 PUSH2 0xE2F DUP4 PUSH2 0x1595 JUMP JUMPDEST MSTORE PUSH1 0x92 PUSH2 0xE3B DUP4 PUSH2 0x15A6 JUMP JUMPDEST MSTORE PUSH1 0x92 PUSH2 0xE47 DUP4 PUSH2 0x15B6 JUMP JUMPDEST MSTORE PUSH1 0x92 PUSH2 0xE53 DUP4 PUSH2 0x15C6 JUMP JUMPDEST MSTORE PUSH1 0x92 PUSH2 0xE5F DUP4 PUSH2 0x15D6 JUMP JUMPDEST MSTORE PUSH1 0x92 PUSH2 0xE6B DUP4 PUSH2 0x15E6 JUMP JUMPDEST MSTORE PUSH1 0x5A PUSH2 0xE77 DUP4 PUSH2 0x15F6 JUMP JUMPDEST MSTORE PUSH1 0x5A PUSH2 0xE83 DUP4 PUSH2 0x1607 JUMP JUMPDEST MSTORE PUSH1 0x5A PUSH2 0xE8F DUP4 PUSH2 0x1618 JUMP JUMPDEST MSTORE PUSH1 0x5A PUSH2 0xE9B DUP4 PUSH2 0x1629 JUMP JUMPDEST MSTORE PUSH1 0x5A PUSH2 0xEA7 DUP4 PUSH2 0x163A JUMP JUMPDEST MSTORE PUSH1 0x5A PUSH2 0xEB3 DUP4 PUSH2 0x164B JUMP JUMPDEST MSTORE PUSH1 0x5A PUSH2 0xEBF DUP4 PUSH2 0x165C JUMP JUMPDEST MSTORE PUSH1 0x5A PUSH2 0xECB DUP4 PUSH2 0x166D JUMP JUMPDEST MSTORE PUSH1 0x50 PUSH2 0xED7 DUP4 PUSH2 0x167E JUMP JUMPDEST MSTORE PUSH1 0x50 PUSH2 0xEE3 DUP4 PUSH2 0x168F JUMP JUMPDEST MSTORE PUSH1 0x50 PUSH2 0xEEF DUP4 PUSH2 0x16A0 JUMP JUMPDEST MSTORE PUSH1 0x50 PUSH2 0xEFB DUP4 PUSH2 0x16B1 JUMP JUMPDEST MSTORE PUSH1 0x50 PUSH2 0xF07 DUP4 PUSH2 0x16C2 JUMP JUMPDEST MSTORE PUSH1 0x50 PUSH2 0xF13 DUP4 PUSH2 0x16D3 JUMP JUMPDEST MSTORE PUSH1 0x50 PUSH2 0xF1F DUP4 PUSH2 0x16E4 JUMP JUMPDEST MSTORE PUSH1 0x50 PUSH2 0xF2B DUP4 PUSH2 0x16F5 JUMP JUMPDEST MSTORE PUSH1 0x50 PUSH2 0xF37 DUP4 PUSH2 0x1706 JUMP JUMPDEST MSTORE PUSH1 0x57 PUSH2 0xF43 DUP4 PUSH2 0x1717 JUMP JUMPDEST MSTORE PUSH1 0x57 PUSH2 0xF4F DUP4 PUSH2 0x1728 JUMP JUMPDEST MSTORE PUSH1 0x57 PUSH2 0xF5B DUP4 PUSH2 0x1739 JUMP JUMPDEST MSTORE PUSH1 0x57 PUSH2 0xF67 DUP4 PUSH2 0x174A JUMP JUMPDEST MSTORE PUSH1 0x57 PUSH2 0xF73 DUP4 PUSH2 0x175B JUMP JUMPDEST MSTORE PUSH1 0x57 PUSH2 0xF7F DUP4 PUSH2 0x176C JUMP JUMPDEST MSTORE PUSH1 0x57 PUSH2 0xF8B DUP4 PUSH2 0x177D JUMP JUMPDEST MSTORE PUSH1 0x57 PUSH2 0xF97 DUP4 PUSH2 0x178E JUMP JUMPDEST MSTORE PUSH1 0x49 PUSH2 0xFA3 DUP4 PUSH2 0x179F JUMP JUMPDEST MSTORE PUSH1 0x49 PUSH2 0xFAF DUP4 PUSH2 0x17B0 JUMP JUMPDEST MSTORE PUSH1 0x49 PUSH2 0xFBB DUP4 PUSH2 0x17C1 JUMP JUMPDEST MSTORE PUSH1 0x49 PUSH2 0xFC7 DUP4 PUSH2 0x17D2 JUMP JUMPDEST MSTORE PUSH1 0x49 PUSH2 0xFD3 DUP4 PUSH2 0x17E3 JUMP JUMPDEST MSTORE PUSH1 0x49 PUSH2 0xFDF DUP4 PUSH2 0x17F4 JUMP JUMPDEST MSTORE PUSH1 0x49 PUSH2 0xFEB DUP4 PUSH2 0x1805 JUMP JUMPDEST MSTORE PUSH1 0x49 PUSH2 0xFF7 DUP4 PUSH2 0x1816 JUMP JUMPDEST MSTORE PUSH1 0x49 PUSH2 0x1003 DUP4 PUSH2 0x1827 JUMP JUMPDEST MSTORE PUSH2 0x177 PUSH2 0x1010 DUP4 PUSH2 0x1838 JUMP JUMPDEST MSTORE PUSH1 0x4A PUSH2 0x101C DUP4 PUSH2 0x1849 JUMP JUMPDEST MSTORE PUSH1 0x4A PUSH2 0x1028 DUP4 PUSH2 0x185A JUMP JUMPDEST MSTORE PUSH1 0x4A PUSH2 0x1034 DUP4 PUSH2 0x186B JUMP JUMPDEST MSTORE PUSH1 0x4A PUSH2 0x1040 DUP4 PUSH2 0x187C JUMP JUMPDEST MSTORE PUSH1 0x4A PUSH2 0x104C DUP4 PUSH2 0x188D JUMP JUMPDEST MSTORE PUSH1 0x5B PUSH2 0x1058 DUP4 PUSH2 0x189E JUMP JUMPDEST MSTORE PUSH1 0x5B PUSH2 0x1064 DUP4 PUSH2 0x18AF JUMP JUMPDEST MSTORE PUSH1 0x5B PUSH2 0x1070 DUP4 PUSH2 0x18C0 JUMP JUMPDEST MSTORE PUSH1 0x5B PUSH2 0x107C DUP4 PUSH2 0x18D1 JUMP JUMPDEST MSTORE PUSH1 0x2C PUSH2 0x1088 DUP4 PUSH2 0x18E2 JUMP JUMPDEST MSTORE PUSH1 0x2C PUSH2 0x1094 DUP4 PUSH2 0x18F3 JUMP JUMPDEST MSTORE PUSH1 0x2C PUSH2 0x10A0 DUP4 PUSH2 0x1904 JUMP JUMPDEST MSTORE PUSH1 0x2C PUSH2 0x10AC DUP4 PUSH2 0x1915 JUMP JUMPDEST MSTORE PUSH1 0x2C PUSH2 0x10B8 DUP4 PUSH2 0x1926 JUMP JUMPDEST MSTORE PUSH1 0x2C PUSH2 0x10C4 DUP4 PUSH2 0x1937 JUMP JUMPDEST MSTORE PUSH1 0x2C PUSH2 0x10D0 DUP4 PUSH2 0x1948 JUMP JUMPDEST MSTORE PUSH1 0x2C PUSH2 0x10DC DUP4 PUSH2 0x1959 JUMP JUMPDEST MSTORE PUSH1 0x74 PUSH2 0x10E8 DUP4 PUSH2 0x196A JUMP JUMPDEST MSTORE PUSH1 0x74 PUSH2 0x10F4 DUP4 PUSH2 0x197B JUMP JUMPDEST MSTORE PUSH1 0x74 PUSH2 0x1100 DUP4 PUSH2 0x198C JUMP JUMPDEST MSTORE PUSH2 0x154 PUSH2 0x110D DUP4 PUSH2 0x199D JUMP JUMPDEST MSTORE PUSH1 0x30 PUSH2 0x1119 DUP4 PUSH2 0x19AE JUMP JUMPDEST MSTORE PUSH1 0x30 PUSH2 0x1125 DUP4 PUSH2 0x19BF JUMP JUMPDEST MSTORE PUSH1 0x30 PUSH2 0x1131 DUP4 PUSH2 0x19D0 JUMP JUMPDEST MSTORE PUSH1 0x30 PUSH2 0x113D DUP4 PUSH2 0x19E1 JUMP JUMPDEST MSTORE PUSH1 0x30 PUSH2 0x1149 DUP4 PUSH2 0x19F2 JUMP JUMPDEST MSTORE PUSH1 0x30 PUSH2 0x1155 DUP4 PUSH2 0x1A03 JUMP JUMPDEST MSTORE PUSH1 0x30 PUSH2 0x1161 DUP4 PUSH2 0x1A14 JUMP JUMPDEST MSTORE PUSH1 0xE1 PUSH2 0x116D DUP4 PUSH2 0x1A25 JUMP JUMPDEST MSTORE PUSH1 0x18 PUSH2 0x1179 DUP4 PUSH2 0x1A35 JUMP JUMPDEST MSTORE PUSH1 0x18 PUSH2 0x1185 DUP4 PUSH2 0x1A46 JUMP JUMPDEST MSTORE PUSH1 0x18 PUSH2 0x1191 DUP4 PUSH2 0x1A57 JUMP JUMPDEST MSTORE PUSH1 0x18 PUSH2 0x119D DUP4 PUSH2 0x1A68 JUMP JUMPDEST MSTORE PUSH1 0x18 PUSH2 0x11A9 DUP4 PUSH2 0x1A79 JUMP JUMPDEST MSTORE PUSH1 0x18 PUSH2 0x11B5 DUP4 PUSH2 0x1A8A JUMP JUMPDEST MSTORE PUSH1 0x18 PUSH2 0x11C1 DUP4 PUSH2 0x1A9B JUMP JUMPDEST MSTORE PUSH1 0x18 PUSH2 0x11CD DUP4 PUSH2 0x1AAC JUMP JUMPDEST MSTORE PUSH1 0x18 PUSH2 0x11D9 DUP4 PUSH2 0x1ABD JUMP JUMPDEST MSTORE PUSH1 0xC8 PUSH2 0x11E5 DUP4 PUSH2 0x1ACE JUMP JUMPDEST MSTORE PUSH1 0x40 PUSH2 0x11F1 DUP4 PUSH2 0x1ADF JUMP JUMPDEST MSTORE PUSH1 0x40 PUSH2 0x11FD DUP4 PUSH2 0x1AF0 JUMP JUMPDEST MSTORE PUSH1 0x40 PUSH2 0x1209 DUP4 PUSH2 0x1B01 JUMP JUMPDEST MSTORE PUSH1 0x32 PUSH2 0x1215 DUP4 PUSH2 0x1B12 JUMP JUMPDEST MSTORE PUSH1 0x32 PUSH2 0x1221 DUP4 PUSH2 0x1B23 JUMP JUMPDEST MSTORE PUSH1 0x32 PUSH2 0x122D DUP4 PUSH2 0x1B34 JUMP JUMPDEST MSTORE PUSH1 0x4B PUSH2 0x1239 DUP4 PUSH2 0x1B45 JUMP JUMPDEST MSTORE PUSH1 0x28 PUSH2 0x1245 DUP4 PUSH2 0x1B56 JUMP JUMPDEST MSTORE PUSH1 0x19 PUSH2 0x1251 DUP4 PUSH2 0x1B67 JUMP JUMPDEST MSTORE PUSH1 0x41 PUSH2 0x125D DUP4 PUSH2 0x1B78 JUMP JUMPDEST MSTORE PUSH1 0xF PUSH2 0x1269 DUP4 PUSH2 0x1B89 JUMP JUMPDEST MSTORE PUSH1 0xF PUSH2 0x1275 DUP4 PUSH2 0x1B9A JUMP JUMPDEST MSTORE PUSH1 0xF PUSH2 0x1281 DUP4 PUSH2 0x1BAB JUMP JUMPDEST MSTORE PUSH1 0xF PUSH2 0x128D DUP4 PUSH2 0x1BBC JUMP JUMPDEST MSTORE PUSH1 0x37 PUSH2 0x1299 DUP4 PUSH2 0x1BCD JUMP JUMPDEST MSTORE PUSH1 0x32 PUSH2 0x12A5 DUP4 PUSH2 0x1BDE JUMP JUMPDEST MSTORE PUSH1 0x6 PUSH2 0x12B1 DUP4 PUSH2 0x1BEF JUMP JUMPDEST MSTORE PUSH1 0x6 PUSH2 0x12BD DUP4 PUSH2 0x1C00 JUMP JUMPDEST MSTORE PUSH1 0x6 PUSH2 0x12C9 DUP4 PUSH2 0x1C11 JUMP JUMPDEST MSTORE PUSH1 0x6 PUSH2 0x12D5 DUP4 PUSH2 0x1C22 JUMP JUMPDEST MSTORE PUSH1 0x6 PUSH2 0x12E1 DUP4 PUSH2 0x1C33 JUMP JUMPDEST MSTORE PUSH1 0x6 PUSH2 0x12ED DUP4 PUSH2 0x1C44 JUMP JUMPDEST MSTORE PUSH1 0x6 PUSH2 0x12F9 DUP4 PUSH2 0x1C55 JUMP JUMPDEST MSTORE PUSH1 0x5 PUSH2 0x1305 DUP4 PUSH2 0x1C66 JUMP JUMPDEST MSTORE PUSH1 0x5 PUSH2 0x1311 DUP4 PUSH2 0x1C77 JUMP JUMPDEST MSTORE PUSH1 0x5 PUSH2 0x131D DUP4 PUSH2 0x1C88 JUMP JUMPDEST MSTORE PUSH1 0x5 PUSH2 0x1329 DUP4 PUSH2 0x1C99 JUMP JUMPDEST MSTORE PUSH1 0x5 PUSH2 0x1335 DUP4 PUSH2 0x1CAA JUMP JUMPDEST MSTORE PUSH1 0x5 PUSH2 0x1341 DUP4 PUSH2 0x1CBB JUMP JUMPDEST MSTORE PUSH1 0x5 PUSH2 0x134D DUP4 PUSH2 0x1CCC JUMP JUMPDEST MSTORE PUSH1 0x5 PUSH2 0x1359 DUP4 PUSH2 0x1CDD JUMP JUMPDEST MSTORE PUSH1 0x19 PUSH2 0x1365 DUP4 PUSH2 0x1CEE JUMP JUMPDEST MSTORE PUSH1 0xA PUSH2 0x1371 DUP4 PUSH2 0x1CFF JUMP JUMPDEST MSTORE PUSH1 0x1E PUSH2 0x137D DUP4 PUSH2 0x1D10 JUMP JUMPDEST MSTORE PUSH1 0xF PUSH2 0x1389 DUP4 PUSH2 0x1D21 JUMP JUMPDEST MSTORE PUSH1 0x3 PUSH2 0x1CA DUP4 PUSH2 0x1D32 JUMP JUMPDEST PUSH1 0x83 DUP2 LT ISZERO PUSH2 0x1E4 JUMPI PUSH1 0x20 SWAP1 PUSH1 0x40 MLOAD SWAP1 DUP2 MSTORE RETURN JUMPDEST PUSH1 0x40 DUP2 ADD SWAP1 DUP2 LT PUSH8 0xFFFFFFFFFFFFFFFF DUP3 GT OR PUSH2 0x13C5 JUMPI PUSH1 0x40 MSTORE JUMP JUMPDEST PUSH4 0x4E487B71 PUSH1 0xE0 SHL PUSH0 MSTORE PUSH1 0x41 PUSH1 0x4 MSTORE PUSH1 0x24 PUSH0 REVERT JUMPDEST SWAP1 PUSH1 0x1F DUP1 NOT SWAP2 ADD AND DUP2 ADD SWAP1 DUP2 LT PUSH8 0xFFFFFFFFFFFFFFFF DUP3 GT OR PUSH2 0x13C5 JUMPI PUSH1 0x40 MSTORE JUMP JUMPDEST PUSH1 0x40 SWAP1 PUSH1 0x3 NOT ADD SLT PUSH2 0x1F8 JUMPI PUSH1 0x40 MLOAD SWAP1 PUSH2 0x1414 DUP3 PUSH2 0x13A9 JUMP JUMPDEST PUSH1 0x4 CALLDATALOAD DUP3 MSTORE PUSH1 0x24 CALLDATALOAD PUSH1 0x20 DUP4 ADD MSTORE JUMP JUMPDEST PUSH1 0x9 GT ISZERO PUSH2 0x1E4 JUMPI JUMP JUMPDEST SWAP1 PUSH1 0x60 PUSH1 0x3 NOT DUP4 ADD SLT PUSH2 0x1F8 JUMPI PUSH1 0x4 CALLDATALOAD PUSH8 0xFFFFFFFFFFFFFFFF DUP2 GT PUSH2 0x1F8 JUMPI PUSH2 0x3E0 DUP2 DUP5 SUB PUSH1 0x3 NOT ADD SLT PUSH2 0x1F8 JUMPI PUSH1 0x24 PUSH1 0x40 SWAP2 PUSH1 0x4 ADD SWAP4 SUB SLT PUSH2 0x1F8 JUMPI PUSH1 0x40 MLOAD PUSH2 0x1476 DUP2 PUSH2 0x13A9 JUMP JUMPDEST PUSH1 0x24 CALLDATALOAD DUP2 MSTORE PUSH1 0x44 CALLDATALOAD PUSH1 0x20 DUP3 ADD MSTORE SWAP1 JUMP JUMPDEST DUP1 MLOAD ISZERO PUSH2 0x1493 JUMPI PUSH1 0x20 ADD SWAP1 JUMP JUMPDEST PUSH4 0x4E487B71 PUSH1 0xE0 SHL PUSH0 MSTORE PUSH1 0x32 PUSH1 0x4 MSTORE PUSH1 0x24 PUSH0 REVERT JUMPDEST DUP1 MLOAD PUSH1 0x59 LT ISZERO PUSH2 0x1493 JUMPI PUSH2 0xB40 ADD SWAP1 JUMP JUMPDEST DUP1 MLOAD PUSH1 0x5A LT ISZERO PUSH2 0x1493 JUMPI PUSH2 0xB60 ADD SWAP1 JUMP JUMPDEST DUP1 MLOAD PUSH1 0x5B LT ISZERO PUSH2 0x1493 JUMPI PUSH2 0xB80 ADD SWAP1 JUMP JUMPDEST DUP1 MLOAD PUSH1 0x5C LT ISZERO PUSH2 0x1493 JUMPI PUSH2 0xBA0 ADD SWAP1 JUMP JUMPDEST DUP1 MLOAD PUSH1 0x5D LT ISZERO PUSH2 0x1493 JUMPI PUSH2 0xBC0 ADD SWAP1 JUMP JUMPDEST DUP1 MLOAD PUSH1 0x5E LT ISZERO PUSH2 0x1493 JUMPI PUSH2 0xBE0 ADD SWAP1 JUMP JUMPDEST DUP1 MLOAD PUSH1 0x5F LT ISZERO PUSH2 0x1493 JUMPI PUSH2 0xC00 ADD SWAP1 JUMP JUMPDEST DUP1 MLOAD PUSH1 0x60 LT ISZERO PUSH2 0x1493 JUMPI PUSH2 0xC20 ADD SWAP1 JUMP JUMPDEST DUP1 MLOAD PUSH1 0x61 LT ISZERO PUSH2 0x1493 JUMPI PUSH2 0xC40 ADD SWAP1 JUMP JUMPDEST DUP1 MLOAD PUSH1 0x62 LT ISZERO PUSH2 0x1493 JUMPI PUSH2 0xC60 ADD SWAP1 JUMP JUMPDEST DUP1 MLOAD PUSH1 0x1C LT ISZERO PUSH2 0x1493 JUMPI PUSH2 0x3A0 ADD SWAP1 JUMP JUMPDEST DUP1 MLOAD PUSH1 0x1D LT ISZERO PUSH2 0x1493 JUMPI PUSH2 0x3C0 ADD SWAP1 JUMP JUMPDEST DUP1 MLOAD PUSH1 0x1E LT ISZERO PUSH2 0x1493 JUMPI PUSH2 0x3E0 ADD SWAP1 JUMP JUMPDEST DUP1 MLOAD PUSH1 0x1F LT ISZERO PUSH2 0x1493 JUMPI PUSH2 0x400 ADD SWAP1 JUMP JUMPDEST DUP1 MLOAD PUSH1 0x20 LT ISZERO PUSH2 0x1493 JUMPI PUSH2 0x420 ADD SWAP1 JUMP JUMPDEST DUP1 MLOAD PUSH1 0x2 LT ISZERO PUSH2 0x1493 JUMPI PUSH1 0x60 ADD SWAP1 JUMP JUMPDEST DUP1 MLOAD PUSH1 0x3 LT ISZERO PUSH2 0x1493 JUMPI PUSH1 0x80 ADD SWAP1 JUMP JUMPDEST DUP1 MLOAD PUSH1 0x4 LT ISZERO PUSH2 0x1493 JUMPI PUSH1 0xA0 ADD SWAP1 JUMP JUMPDEST DUP1 MLOAD PUSH1 0x5 LT ISZERO PUSH2 0x1493 JUMPI PUSH1 0xC0 ADD SWAP1 JUMP JUMPDEST DUP1 MLOAD PUSH1 0x6 LT ISZERO PUSH2 0x1493 JUMPI PUSH1 0xE0 ADD SWAP1 JUMP JUMPDEST DUP1 MLOAD PUSH1 0x51 LT ISZERO PUSH2 0x1493 JUMPI PUSH2 0xA40 ADD SWAP1 JUMP JUMPDEST DUP1 MLOAD PUSH1 0x52 LT ISZERO PUSH2 0x1493 JUMPI PUSH2 0xA60 ADD SWAP1 JUMP JUMPDEST DUP1 MLOAD PUSH1 0x53 LT ISZERO PUSH2 0x1493 JUMPI PUSH2 0xA80 ADD SWAP1 JUMP JUMPDEST DUP1 MLOAD PUSH1 0x54 LT ISZERO PUSH2 0x1493 JUMPI PUSH2 0xAA0 ADD SWAP1 JUMP JUMPDEST DUP1 MLOAD PUSH1 0x55 LT ISZERO PUSH2 0x1493 JUMPI PUSH2 0xAC0 ADD SWAP1 JUMP JUMPDEST DUP1 MLOAD PUSH1 0x56 LT ISZERO PUSH2 0x1493 JUMPI PUSH2 0xAE0 ADD SWAP1 JUMP JUMPDEST DUP1 MLOAD PUSH1 0x57 LT ISZERO PUSH2 0x1493 JUMPI PUSH2 0xB00 ADD SWAP1 JUMP JUMPDEST DUP1 MLOAD PUSH1 0x58 LT ISZERO PUSH2 0x1493 JUMPI PUSH2 0xB20 ADD SWAP1 JUMP JUMPDEST DUP1 MLOAD PUSH1 0x10 LT ISZERO PUSH2 0x1493 JUMPI PUSH2 0x220 ADD SWAP1 JUMP JUMPDEST DUP1 MLOAD PUSH1 0x11 LT ISZERO PUSH2 0x1493 JUMPI PUSH2 0x240 ADD SWAP1 JUMP JUMPDEST DUP1 MLOAD PUSH1 0x12 LT ISZERO PUSH2 0x1493 JUMPI PUSH2 0x260 ADD SWAP1 JUMP JUMPDEST DUP1 MLOAD PUSH1 0x13 LT ISZERO PUSH2 0x1493 JUMPI PUSH2 0x280 ADD SWAP1 JUMP JUMPDEST DUP1 MLOAD PUSH1 0x14 LT ISZERO PUSH2 0x1493 JUMPI PUSH2 0x2A0 ADD SWAP1 JUMP JUMPDEST DUP1 MLOAD PUSH1 0x15 LT ISZERO PUSH2 0x1493 JUMPI PUSH2 0x2C0 ADD SWAP1 JUMP JUMPDEST DUP1 MLOAD PUSH1 0x16 LT ISZERO PUSH2 0x1493 JUMPI PUSH2 0x2E0 ADD SWAP1 JUMP JUMPDEST DUP1 MLOAD PUSH1 0x17 LT ISZERO PUSH2 0x1493 JUMPI PUSH2 0x300 ADD SWAP1 JUMP JUMPDEST DUP1 MLOAD PUSH1 0x18 LT ISZERO PUSH2 0x1493 JUMPI PUSH2 0x320 ADD SWAP1 JUMP JUMPDEST DUP1 MLOAD PUSH1 0x73 LT ISZERO PUSH2 0x1493 JUMPI PUSH2 0xE80 ADD SWAP1 JUMP JUMPDEST DUP1 MLOAD PUSH1 0x74 LT ISZERO PUSH2 0x1493 JUMPI PUSH2 0xEA0 ADD SWAP1 JUMP JUMPDEST DUP1 MLOAD PUSH1 0x75 LT ISZERO PUSH2 0x1493 JUMPI PUSH2 0xEC0 ADD SWAP1 JUMP JUMPDEST DUP1 MLOAD PUSH1 0x76 LT ISZERO PUSH2 0x1493 JUMPI PUSH2 0xEE0 ADD SWAP1 JUMP JUMPDEST DUP1 MLOAD PUSH1 0x77 LT ISZERO PUSH2 0x1493 JUMPI PUSH2 0xF00 ADD SWAP1 JUMP JUMPDEST DUP1 MLOAD PUSH1 0x78 LT ISZERO PUSH2 0x1493 JUMPI PUSH2 0xF20 ADD SWAP1 JUMP JUMPDEST DUP1 MLOAD PUSH1 0x79 LT ISZERO PUSH2 0x1493 JUMPI PUSH2 0xF40 ADD SWAP1 JUMP JUMPDEST DUP1 MLOAD PUSH1 0x7A LT ISZERO PUSH2 0x1493 JUMPI PUSH2 0xF60 ADD SWAP1 JUMP JUMPDEST DUP1 MLOAD PUSH1 0x7 LT ISZERO PUSH2 0x1493 JUMPI PUSH2 0x100 ADD SWAP1 JUMP JUMPDEST DUP1 MLOAD PUSH1 0x8 LT ISZERO PUSH2 0x1493 JUMPI PUSH2 0x120 ADD SWAP1 JUMP JUMPDEST DUP1 MLOAD PUSH1 0x9 LT ISZERO PUSH2 0x1493 JUMPI PUSH2 0x140 ADD SWAP1 JUMP JUMPDEST DUP1 MLOAD PUSH1 0xA LT ISZERO PUSH2 0x1493 JUMPI PUSH2 0x160 ADD SWAP1 JUMP JUMPDEST DUP1 MLOAD PUSH1 0xB LT ISZERO PUSH2 0x1493 JUMPI PUSH2 0x180 ADD SWAP1 JUMP JUMPDEST DUP1 MLOAD PUSH1 0xC LT ISZERO PUSH2 0x1493 JUMPI PUSH2 0x1A0 ADD SWAP1 JUMP JUMPDEST DUP1 MLOAD PUSH1 0xD LT ISZERO PUSH2 0x1493 JUMPI PUSH2 0x1C0 ADD SWAP1 JUMP JUMPDEST DUP1 MLOAD PUSH1 0xE LT ISZERO PUSH2 0x1493 JUMPI PUSH2 0x1E0 ADD SWAP1 JUMP JUMPDEST DUP1 MLOAD PUSH1 0xF LT ISZERO PUSH2 0x1493 JUMPI PUSH2 0x200 ADD SWAP1 JUMP JUMPDEST DUP1 MLOAD PUSH1 0x34 LT ISZERO PUSH2 0x1493 JUMPI PUSH2 0x6A0 ADD SWAP1 JUMP JUMPDEST DUP1 MLOAD PUSH1 0x35 LT ISZERO PUSH2 0x1493 JUMPI PUSH2 0x6C0 ADD SWAP1 JUMP JUMPDEST DUP1 MLOAD PUSH1 0x36 LT ISZERO PUSH2 0x1493 JUMPI PUSH2 0x6E0 ADD SWAP1 JUMP JUMPDEST DUP1 MLOAD PUSH1 0x37 LT ISZERO PUSH2 0x1493 JUMPI PUSH2 0x700 ADD SWAP1 JUMP JUMPDEST DUP1 MLOAD PUSH1 0x38 LT ISZERO PUSH2 0x1493 JUMPI PUSH2 0x720 ADD SWAP1 JUMP JUMPDEST DUP1 MLOAD PUSH1 0x39 LT ISZERO PUSH2 0x1493 JUMPI PUSH2 0x740 ADD SWAP1 JUMP JUMPDEST DUP1 MLOAD PUSH1 0x6E LT ISZERO PUSH2 0x1493 JUMPI PUSH2 0xDE0 ADD SWAP1 JUMP JUMPDEST DUP1 MLOAD PUSH1 0x6F LT ISZERO PUSH2 0x1493 JUMPI PUSH2 0xE00 ADD SWAP1 JUMP JUMPDEST DUP1 MLOAD PUSH1 0x70 LT ISZERO PUSH2 0x1493 JUMPI PUSH2 0xE20 ADD SWAP1 JUMP JUMPDEST DUP1 MLOAD PUSH1 0x71 LT ISZERO PUSH2 0x1493 JUMPI PUSH2 0xE40 ADD SWAP1 JUMP JUMPDEST DUP1 MLOAD PUSH1 0x63 LT ISZERO PUSH2 0x1493 JUMPI PUSH2 0xC80 ADD SWAP1 JUMP JUMPDEST DUP1 MLOAD PUSH1 0x64 LT ISZERO PUSH2 0x1493 JUMPI PUSH2 0xCA0 ADD SWAP1 JUMP JUMPDEST DUP1 MLOAD PUSH1 0x65 LT ISZERO PUSH2 0x1493 JUMPI PUSH2 0xCC0 ADD SWAP1 JUMP JUMPDEST DUP1 MLOAD PUSH1 0x66 LT ISZERO PUSH2 0x1493 JUMPI PUSH2 0xCE0 ADD SWAP1 JUMP JUMPDEST DUP1 MLOAD PUSH1 0x67 LT ISZERO PUSH2 0x1493 JUMPI PUSH2 0xD00 ADD SWAP1 JUMP JUMPDEST DUP1 MLOAD PUSH1 0x68 LT ISZERO PUSH2 0x1493 JUMPI PUSH2 0xD20 ADD SWAP1 JUMP JUMPDEST DUP1 MLOAD PUSH1 0x69 LT ISZERO PUSH2 0x1493 JUMPI PUSH2 0xD40 ADD SWAP1 JUMP JUMPDEST DUP1 MLOAD PUSH1 0x6A LT ISZERO PUSH2 0x1493 JUMPI PUSH2 0xD60 ADD SWAP1 JUMP JUMPDEST DUP1 MLOAD PUSH1 0x4E LT ISZERO PUSH2 0x1493 JUMPI PUSH2 0x9E0 ADD SWAP1 JUMP JUMPDEST DUP1 MLOAD PUSH1 0x4F LT ISZERO PUSH2 0x1493 JUMPI PUSH2 0xA00 ADD SWAP1 JUMP JUMPDEST DUP1 MLOAD PUSH1 0x50 LT ISZERO PUSH2 0x1493 JUMPI PUSH2 0xA20 ADD SWAP1 JUMP JUMPDEST DUP1 MLOAD PUSH1 0x72 LT ISZERO PUSH2 0x1493 JUMPI PUSH2 0xE60 ADD SWAP1 JUMP JUMPDEST DUP1 MLOAD PUSH1 0x42 LT ISZERO PUSH2 0x1493 JUMPI PUSH2 0x860 ADD SWAP1 JUMP JUMPDEST DUP1 MLOAD PUSH1 0x43 LT ISZERO PUSH2 0x1493 JUMPI PUSH2 0x880 ADD SWAP1 JUMP JUMPDEST DUP1 MLOAD PUSH1 0x44 LT ISZERO PUSH2 0x1493 JUMPI PUSH2 0x8A0 ADD SWAP1 JUMP JUMPDEST DUP1 MLOAD PUSH1 0x45 LT ISZERO PUSH2 0x1493 JUMPI PUSH2 0x8C0 ADD SWAP1 JUMP JUMPDEST DUP1 MLOAD PUSH1 0x46 LT ISZERO PUSH2 0x1493 JUMPI PUSH2 0x8E0 ADD SWAP1 JUMP JUMPDEST DUP1 MLOAD PUSH1 0x47 LT ISZERO PUSH2 0x1493 JUMPI PUSH2 0x900 ADD SWAP1 JUMP JUMPDEST DUP1 MLOAD PUSH1 0x48 LT ISZERO PUSH2 0x1493 JUMPI PUSH2 0x920 ADD SWAP1 JUMP JUMPDEST DUP1 MLOAD PUSH1 0x1 LT ISZERO PUSH2 0x1493 JUMPI PUSH1 0x40 ADD SWAP1 JUMP JUMPDEST DUP1 MLOAD PUSH1 0x29 LT ISZERO PUSH2 0x1493 JUMPI PUSH2 0x540 ADD SWAP1 JUMP JUMPDEST DUP1 MLOAD PUSH1 0x2A LT ISZERO PUSH2 0x1493 JUMPI PUSH2 0x560 ADD SWAP1 JUMP JUMPDEST DUP1 MLOAD PUSH1 0x2B LT ISZERO PUSH2 0x1493 JUMPI PUSH2 0x580 ADD SWAP1 JUMP JUMPDEST DUP1 MLOAD PUSH1 0x2C LT ISZERO PUSH2 0x1493 JUMPI PUSH2 0x5A0 ADD SWAP1 JUMP JUMPDEST DUP1 MLOAD PUSH1 0x2D LT ISZERO PUSH2 0x1493 JUMPI PUSH2 0x5C0 ADD SWAP1 JUMP JUMPDEST DUP1 MLOAD PUSH1 0x2E LT ISZERO PUSH2 0x1493 JUMPI PUSH2 0x5E0 ADD SWAP1 JUMP JUMPDEST DUP1 MLOAD PUSH1 0x2F LT ISZERO PUSH2 0x1493 JUMPI PUSH2 0x600 ADD SWAP1 JUMP JUMPDEST DUP1 MLOAD PUSH1 0x30 LT ISZERO PUSH2 0x1493 JUMPI PUSH2 0x620 ADD SWAP1 JUMP JUMPDEST DUP1 MLOAD PUSH1 0x31 LT ISZERO PUSH2 0x1493 JUMPI PUSH2 0x640 ADD SWAP1 JUMP JUMPDEST DUP1 MLOAD PUSH1 0x21 LT ISZERO PUSH2 0x1493 JUMPI PUSH2 0x440 ADD SWAP1 JUMP JUMPDEST DUP1 MLOAD PUSH1 0x19 LT ISZERO PUSH2 0x1493 JUMPI PUSH2 0x340 ADD SWAP1 JUMP JUMPDEST DUP1 MLOAD PUSH1 0x1A LT ISZERO PUSH2 0x1493 JUMPI PUSH2 0x360 ADD SWAP1 JUMP JUMPDEST DUP1 MLOAD PUSH1 0x1B LT ISZERO PUSH2 0x1493 JUMPI PUSH2 0x380 ADD SWAP1 JUMP JUMPDEST DUP1 MLOAD PUSH1 0x3F LT ISZERO PUSH2 0x1493 JUMPI PUSH2 0x800 ADD SWAP1 JUMP JUMPDEST DUP1 MLOAD PUSH1 0x40 LT ISZERO PUSH2 0x1493 JUMPI PUSH2 0x820 ADD SWAP1 JUMP JUMPDEST DUP1 MLOAD PUSH1 0x41 LT ISZERO PUSH2 0x1493 JUMPI PUSH2 0x840 ADD SWAP1 JUMP JUMPDEST DUP1 MLOAD PUSH1 0x4A LT ISZERO PUSH2 0x1493 JUMPI PUSH2 0x960 ADD SWAP1 JUMP JUMPDEST DUP1 MLOAD PUSH1 0x4C LT ISZERO PUSH2 0x1493 JUMPI PUSH2 0x9A0 ADD SWAP1 JUMP JUMPDEST DUP1 MLOAD PUSH1 0x4D LT ISZERO PUSH2 0x1493 JUMPI PUSH2 0x9C0 ADD SWAP1 JUMP JUMPDEST DUP1 MLOAD PUSH1 0x3A LT ISZERO PUSH2 0x1493 JUMPI PUSH2 0x760 ADD SWAP1 JUMP JUMPDEST DUP1 MLOAD PUSH1 0x3B LT ISZERO PUSH2 0x1493 JUMPI PUSH2 0x780 ADD SWAP1 JUMP JUMPDEST DUP1 MLOAD PUSH1 0x3C LT ISZERO PUSH2 0x1493 JUMPI PUSH2 0x7A0 ADD SWAP1 JUMP JUMPDEST DUP1 MLOAD PUSH1 0x3D LT ISZERO PUSH2 0x1493 JUMPI PUSH2 0x7C0 ADD SWAP1 JUMP JUMPDEST DUP1 MLOAD PUSH1 0x3E LT ISZERO PUSH2 0x1493 JUMPI PUSH2 0x7E0 ADD SWAP1 JUMP JUMPDEST DUP1 MLOAD PUSH1 0x6D LT ISZERO PUSH2 0x1493 JUMPI PUSH2 0xDC0 ADD SWAP1 JUMP JUMPDEST DUP1 MLOAD PUSH1 0x49 LT ISZERO PUSH2 0x1493 JUMPI PUSH2 0x940 ADD SWAP1 JUMP JUMPDEST DUP1 MLOAD PUSH1 0x22 LT ISZERO PUSH2 0x1493 JUMPI PUSH2 0x460 ADD SWAP1 JUMP JUMPDEST DUP1 MLOAD PUSH1 0x28 LT ISZERO PUSH2 0x1493 JUMPI PUSH2 0x520 ADD SWAP1 JUMP JUMPDEST DUP1 MLOAD PUSH1 0x23 LT ISZERO PUSH2 0x1493 JUMPI PUSH2 0x480 ADD SWAP1 JUMP JUMPDEST DUP1 MLOAD PUSH1 0x24 LT ISZERO PUSH2 0x1493 JUMPI PUSH2 0x4A0 ADD SWAP1 JUMP JUMPDEST DUP1 MLOAD PUSH1 0x25 LT ISZERO PUSH2 0x1493 JUMPI PUSH2 0x4C0 ADD SWAP1 JUMP JUMPDEST DUP1 MLOAD PUSH1 0x26 LT ISZERO PUSH2 0x1493 JUMPI PUSH2 0x4E0 ADD SWAP1 JUMP JUMPDEST DUP1 MLOAD PUSH1 0x27 LT ISZERO PUSH2 0x1493 JUMPI PUSH2 0x500 ADD SWAP1 JUMP JUMPDEST DUP1 MLOAD PUSH1 0x7B LT ISZERO PUSH2 0x1493 JUMPI PUSH2 0xF80 ADD SWAP1 JUMP JUMPDEST DUP1 MLOAD PUSH1 0x7C LT ISZERO PUSH2 0x1493 JUMPI PUSH2 0xFA0 ADD SWAP1 JUMP JUMPDEST DUP1 MLOAD PUSH1 0x7D LT ISZERO PUSH2 0x1493 JUMPI PUSH2 0xFC0 ADD SWAP1 JUMP JUMPDEST DUP1 MLOAD PUSH1 0x7E LT ISZERO PUSH2 0x1493 JUMPI PUSH2 0xFE0 ADD SWAP1 JUMP JUMPDEST DUP1 MLOAD PUSH1 0x7F LT ISZERO PUSH2 0x1493 JUMPI PUSH2 0x1000 ADD SWAP1 JUMP JUMPDEST DUP1 MLOAD PUSH1 0x80 LT ISZERO PUSH2 0x1493 JUMPI PUSH2 0x1020 ADD SWAP1 JUMP JUMPDEST DUP1 MLOAD PUSH1 0x81 LT ISZERO PUSH2 0x1493 JUMPI PUSH2 0x1040 ADD SWAP1 JUMP JUMPDEST DUP1 MLOAD PUSH1 0x82 LT ISZERO PUSH2 0x1493 JUMPI PUSH2 0x1060 ADD SWAP1 JUMP JUMPDEST DUP1 MLOAD PUSH1 0x6C LT ISZERO PUSH2 0x1493 JUMPI PUSH2 0xDA0 ADD SWAP1 JUMP JUMPDEST DUP1 MLOAD PUSH1 0x6B LT ISZERO PUSH2 0x1493 JUMPI PUSH2 0xD80 ADD SWAP1 JUMP JUMPDEST DUP1 MLOAD PUSH1 0x33 LT ISZERO PUSH2 0x1493 JUMPI PUSH2 0x680 ADD SWAP1 JUMP JUMPDEST DUP1 MLOAD PUSH1 0x32 LT ISZERO PUSH2 0x1493 JUMPI PUSH2 0x660 ADD SWAP1 JUMP JUMPDEST DUP1 MLOAD PUSH1 0x4B LT ISZERO PUSH2 0x1493 JUMPI PUSH2 0x980 ADD SWAP1 JUMP JUMPDEST DUP1 MLOAD PUSH1 0x83 LT ISZERO PUSH2 0x1493 JUMPI PUSH2 0x1080 ADD SWAP1 JUMP JUMPDEST DUP1 MLOAD PUSH1 0x84 LT ISZERO PUSH2 0x1493 JUMPI PUSH2 0x10A0 ADD SWAP1 JUMP JUMPDEST DUP1 MLOAD DUP3 LT ISZERO PUSH2 0x1493 JUMPI PUSH1 0x20 SWAP2 PUSH1 0x5 SHL ADD ADD SWAP1 JUMP JUMPDEST CALLDATALOAD SWAP1 PUSH1 0xFF DUP3 AND DUP3 SUB PUSH2 0x1F8 JUMPI JUMP JUMPDEST CALLDATALOAD SWAP1 PUSH2 0xFFFF DUP3 AND DUP3 SUB PUSH2 0x1F8 JUMPI JUMP JUMPDEST SWAP2 SWAP1 SWAP2 PUSH2 0x3E0 DUP2 DUP5 SUB SLT PUSH2 0x1F8 JUMPI PUSH1 0x40 MLOAD SWAP1 PUSH2 0x3E0 DUP3 ADD DUP3 DUP2 LT PUSH8 0xFFFFFFFFFFFFFFFF DUP3 GT OR PUSH2 0x13C5 JUMPI PUSH1 0x40 MSTORE DUP2 SWAP4 DUP2 CALLDATALOAD PUSH8 0xFFFFFFFFFFFFFFFF DUP2 GT PUSH2 0x1F8 JUMPI DUP3 ADD DUP2 PUSH1 0x1F DUP3 ADD SLT ISZERO PUSH2 0x1F8 JUMPI DUP1 CALLDATALOAD SWAP1 PUSH8 0xFFFFFFFFFFFFFFFF DUP3 GT PUSH2 0x13C5 JUMPI PUSH1 0x20 DUP3 PUSH1 0x5 SHL ADD SWAP3 PUSH2 0x1E0A PUSH1 0x40 MLOAD SWAP5 DUP6 PUSH2 0x13D9 JUMP JUMPDEST DUP3 DUP5 MSTORE PUSH1 0x20 PUSH1 0xA0 DUP2 DUP7 ADD SWAP5 MUL DUP4 ADD ADD SWAP2 DUP2 DUP4 GT PUSH2 0x1F8 JUMPI PUSH1 0x20 ADD SWAP3 JUMPDEST DUP3 DUP5 LT PUSH2 0x209C JUMPI POP POP POP POP DUP3 MSTORE PUSH2 0x1E3F PUSH1 0x20 DUP3 ADD PUSH2 0x1D79 JUMP JUMPDEST PUSH1 0x20 DUP4 ADD MSTORE PUSH2 0x1E50 PUSH1 0x40 DUP3 ADD PUSH2 0x1D87 JUMP JUMPDEST PUSH1 0x40 DUP4 ADD MSTORE PUSH2 0x1E61 PUSH1 0x60 DUP3 ADD PUSH2 0x1D87 JUMP JUMPDEST PUSH1 0x60 DUP4 ADD MSTORE PUSH1 0x80 DUP2 ADD CALLDATALOAD PUSH4 0xFFFFFFFF DUP2 AND DUP2 SUB PUSH2 0x1F8 JUMPI PUSH1 0x80 DUP4 ADD MSTORE PUSH1 0xA0 DUP2 ADD CALLDATALOAD PUSH1 0x2 DUP2 LT ISZERO PUSH2 0x1F8 JUMPI PUSH1 0xA0 DUP4 ADD MSTORE PUSH1 0xC0 DUP2 ADD CALLDATALOAD PUSH1 0x5 DUP2 LT ISZERO PUSH2 0x1F8 JUMPI PUSH1 0xC0 DUP4 ADD MSTORE PUSH1 0xE0 DUP2 ADD CALLDATALOAD PUSH1 0x1D DUP2 LT ISZERO PUSH2 0x1F8 JUMPI PUSH1 0xE0 DUP4 ADD MSTORE PUSH2 0x100 DUP2 ADD CALLDATALOAD PUSH1 0x17 DUP2 LT ISZERO PUSH2 0x1F8 JUMPI PUSH2 0x100 DUP4 ADD MSTORE PUSH2 0x120 DUP2 ADD CALLDATALOAD PUSH1 0x14 DUP2 LT ISZERO PUSH2 0x1F8 JUMPI PUSH2 0x120 DUP4 ADD MSTORE PUSH2 0x140 DUP2 ADD CALLDATALOAD PUSH1 0x9 DUP2 LT ISZERO PUSH2 0x1F8 JUMPI PUSH2 0x140 DUP4 ADD MSTORE PUSH2 0x160 DUP2 ADD CALLDATALOAD PUSH1 0x9 DUP2 LT ISZERO PUSH2 0x1F8 JUMPI PUSH2 0x160 DUP4 ADD MSTORE PUSH2 0x180 DUP2 ADD CALLDATALOAD PUSH1 0x4 DUP2 LT ISZERO PUSH2 0x1F8 JUMPI PUSH2 0x180 DUP4 ADD MSTORE PUSH2 0x1A0 DUP2 ADD CALLDATALOAD PUSH1 0x58 DUP2 LT ISZERO PUSH2 0x1F8 JUMPI PUSH2 0x1A0 DUP4 ADD MSTORE PUSH2 0x1C0 DUP2 ADD CALLDATALOAD PUSH1 0x16 DUP2 LT ISZERO PUSH2 0x1F8 JUMPI PUSH2 0x1C0 DUP4 ADD MSTORE PUSH2 0x1E0 DUP2 ADD CALLDATALOAD PUSH1 0xD4 DUP2 LT ISZERO PUSH2 0x1F8 JUMPI PUSH2 0x1E0 DUP4 ADD MSTORE PUSH2 0x200 DUP2 ADD CALLDATALOAD PUSH1 0x6A DUP2 LT ISZERO PUSH2 0x1F8 JUMPI PUSH2 0x200 DUP4 ADD MSTORE PUSH2 0x220 DUP2 ADD CALLDATALOAD PUSH1 0xA9 DUP2 LT ISZERO PUSH2 0x1F8 JUMPI PUSH2 0x220 DUP4 ADD MSTORE PUSH2 0x240 DUP2 ADD CALLDATALOAD PUSH1 0x80 DUP2 LT ISZERO PUSH2 0x1F8 JUMPI PUSH2 0x240 DUP4 ADD MSTORE PUSH2 0x260 DUP2 ADD CALLDATALOAD PUSH1 0x1A DUP2 LT ISZERO PUSH2 0x1F8 JUMPI PUSH2 0x260 DUP4 ADD MSTORE PUSH2 0x280 DUP2 ADD CALLDATALOAD PUSH1 0x1F DUP2 LT ISZERO PUSH2 0x1F8 JUMPI PUSH2 0x280 DUP4 ADD MSTORE PUSH2 0x2A0 DUP2 ADD CALLDATALOAD PUSH1 0x13 DUP2 LT ISZERO PUSH2 0x1F8 JUMPI PUSH2 0x2A0 DUP4 ADD MSTORE PUSH2 0x2C0 DUP2 ADD CALLDATALOAD PUSH1 0x9 DUP2 LT ISZERO PUSH2 0x1F8 JUMPI PUSH2 0x2C0 DUP4 ADD MSTORE PUSH2 0x2E0 DUP2 ADD CALLDATALOAD PUSH1 0x9 DUP2 LT ISZERO PUSH2 0x1F8 JUMPI PUSH2 0x2E0 DUP4 ADD MSTORE PUSH2 0x300 DUP2 ADD CALLDATALOAD PUSH1 0x4 DUP2 LT ISZERO PUSH2 0x1F8 JUMPI PUSH2 0x300 DUP4 ADD MSTORE PUSH2 0x320 DUP2 ADD CALLDATALOAD PUSH1 0x15 DUP2 LT ISZERO PUSH2 0x1F8 JUMPI PUSH2 0x320 DUP4 ADD MSTORE PUSH2 0x340 DUP2 ADD CALLDATALOAD PUSH1 0xC3 DUP2 LT ISZERO PUSH2 0x1F8 JUMPI PUSH2 0x340 DUP4 ADD MSTORE PUSH2 0x360 DUP2 ADD CALLDATALOAD PUSH1 0x85 DUP2 LT ISZERO PUSH2 0x1F8 JUMPI PUSH2 0x360 DUP4 ADD MSTORE PUSH2 0x380 DUP2 ADD CALLDATALOAD PUSH1 0x83 DUP2 LT ISZERO PUSH2 0x1F8 JUMPI PUSH2 0x380 DUP4 ADD MSTORE PUSH2 0x3A0 DUP2 ADD CALLDATALOAD SWAP1 PUSH1 0x7A DUP3 LT ISZERO PUSH2 0x1F8 JUMPI PUSH2 0x3C0 SWAP2 PUSH2 0x3A0 DUP5 ADD MSTORE ADD CALLDATALOAD SWAP1 PUSH1 0x17 DUP3 LT ISZERO PUSH2 0x1F8 JUMPI PUSH2 0x3C0 ADD MSTORE JUMP JUMPDEST DUP4 DUP3 SUB PUSH1 0xA0 DUP2 SLT PUSH2 0x1F8 JUMPI PUSH1 0x40 MLOAD SWAP1 PUSH1 0x80 DUP3 ADD DUP3 DUP2 LT PUSH8 0xFFFFFFFFFFFFFFFF DUP3 GT OR PUSH2 0x13C5 JUMPI PUSH1 0x40 MSTORE DUP6 CALLDATALOAD PUSH1 0x1B DUP2 LT ISZERO PUSH2 0x1F8 JUMPI DUP3 MSTORE PUSH2 0x20DE PUSH1 0x20 DUP8 ADD PUSH2 0x1D79 JUMP JUMPDEST PUSH1 0x20 DUP4 ADD MSTORE PUSH1 0x40 DUP7 ADD CALLDATALOAD SWAP1 DUP2 ISZERO ISZERO DUP3 SUB PUSH2 0x1F8 JUMPI PUSH1 0x40 SWAP2 DUP3 DUP5 ADD MSTORE PUSH1 0x5F NOT ADD SLT PUSH2 0x1F8 JUMPI PUSH1 0x40 MLOAD SWAP2 PUSH2 0x210F DUP4 PUSH2 0x13A9 JUMP JUMPDEST PUSH1 0x60 DUP7 ADD CALLDATALOAD SWAP2 PUSH1 0x1B DUP4 LT ISZERO PUSH2 0x1F8 JUMPI DUP4 PUSH1 0x20 SWAP4 PUSH1 0xA0 SWAP6 MSTORE PUSH2 0x2132 PUSH1 0x80 DUP10 ADD PUSH2 0x1D79 JUMP JUMPDEST DUP5 DUP3 ADD MSTORE PUSH1 0x60 DUP3 ADD MSTORE DUP2 MSTORE ADD SWAP4 ADD SWAP3 PUSH2 0x1E26 JUMP JUMPDEST PUSH1 0x40 MLOAD SWAP1 PUSH2 0x280 PUSH2 0x2157 DUP2 DUP5 PUSH2 0x13D9 JUMP JUMPDEST PUSH1 0x13 DUP4 MSTORE PUSH1 0x1F NOT ADD CALLDATASIZE PUSH1 0x20 DUP5 ADD CALLDATACOPY PUSH2 0x2177 PUSH2 0x2172 CALLDATASIZE DUP4 PUSH2 0x1D96 JUMP JUMPDEST PUSH2 0x385D JUMP JUMPDEST DUP1 ISZERO PUSH2 0x24C7 JUMPI JUMPDEST ISZERO PUSH2 0x2278 JUMPI POP PUSH2 0x226C SWAP2 PUSH2 0x24A1 PUSH2 0x2194 DUP4 PUSH2 0x1486 JUMP JUMPDEST MSTORE PUSH1 0xC8 PUSH2 0x21A0 DUP4 PUSH2 0x1816 JUMP JUMPDEST MSTORE PUSH1 0x23 PUSH2 0x21AC DUP4 PUSH2 0x15E6 JUMP JUMPDEST MSTORE PUSH1 0x16 PUSH2 0x21B8 DUP4 PUSH2 0x17F4 JUMP JUMPDEST MSTORE PUSH1 0x14 PUSH2 0x21C4 DUP4 PUSH2 0x167E JUMP JUMPDEST MSTORE PUSH1 0x12 PUSH2 0x21D0 DUP4 PUSH2 0x17D2 JUMP JUMPDEST MSTORE PUSH1 0x10 PUSH2 0x21DC DUP4 PUSH2 0x1A25 JUMP JUMPDEST MSTORE PUSH1 0xE PUSH2 0x21E8 DUP4 PUSH2 0x168F JUMP JUMPDEST MSTORE PUSH1 0xC PUSH2 0x21F4 DUP4 PUSH2 0x15A6 JUMP JUMPDEST MSTORE PUSH1 0xA PUSH2 0x2200 DUP4 PUSH2 0x17E3 JUMP JUMPDEST MSTORE PUSH1 0x8 PUSH2 0x220C DUP4 PUSH2 0x16A0 JUMP JUMPDEST MSTORE PUSH1 0x7D PUSH2 0x2218 DUP4 PUSH2 0x15D6 JUMP JUMPDEST MSTORE PUSH1 0x4B PUSH2 0x2224 DUP4 PUSH2 0x15B6 JUMP JUMPDEST MSTORE PUSH1 0x10 PUSH2 0x2230 DUP4 PUSH2 0x15C6 JUMP JUMPDEST MSTORE PUSH1 0xC PUSH2 0x223C DUP4 PUSH2 0x1805 JUMP JUMPDEST MSTORE PUSH1 0xC PUSH2 0x2248 DUP4 PUSH2 0x1827 JUMP JUMPDEST MSTORE PUSH1 0xA PUSH2 0x2254 DUP4 PUSH2 0x179F JUMP JUMPDEST MSTORE PUSH1 0xA PUSH2 0x2260 DUP4 PUSH2 0x17B0 JUMP JUMPDEST MSTORE PUSH1 0x8 PUSH2 0x1CA DUP4 PUSH2 0x17C1 JUMP JUMPDEST PUSH1 0x13 DUP2 LT ISZERO PUSH2 0x1E4 JUMPI SWAP1 JUMP JUMPDEST PUSH2 0x260 PUSH2 0x2285 CALLDATASIZE DUP4 PUSH2 0x1D96 JUMP JUMPDEST ADD MLOAD PUSH1 0x1A DUP2 LT ISZERO PUSH2 0x1E4 JUMPI PUSH1 0x2 EQ DUP1 ISZERO PUSH2 0x24A6 JUMPI JUMPDEST ISZERO PUSH2 0x2304 JUMPI POP PUSH2 0x226C SWAP2 PUSH2 0x24A1 PUSH2 0x22B0 DUP4 PUSH2 0x1486 JUMP JUMPDEST MSTORE PUSH1 0xC8 PUSH2 0x22BC DUP4 PUSH2 0x1816 JUMP JUMPDEST MSTORE PUSH1 0x4B PUSH2 0x22C8 DUP4 PUSH2 0x15B6 JUMP JUMPDEST MSTORE PUSH1 0x10 PUSH2 0x22D4 DUP4 PUSH2 0x15C6 JUMP JUMPDEST MSTORE PUSH1 0xC PUSH2 0x22E0 DUP4 PUSH2 0x1805 JUMP JUMPDEST MSTORE PUSH1 0xC PUSH2 0x22EC DUP4 PUSH2 0x1827 JUMP JUMPDEST MSTORE PUSH1 0xA PUSH2 0x22F8 DUP4 PUSH2 0x179F JUMP JUMPDEST MSTORE PUSH1 0xA PUSH2 0x1CA DUP4 PUSH2 0x17B0 JUMP JUMPDEST PUSH2 0x260 PUSH2 0x2311 CALLDATASIZE DUP4 PUSH2 0x1D96 JUMP JUMPDEST ADD MLOAD PUSH1 0x1A DUP2 LT ISZERO PUSH2 0x1E4 JUMPI PUSH1 0x1 EQ SWAP1 DUP2 ISZERO PUSH2 0x2483 JUMPI JUMPDEST DUP2 ISZERO PUSH2 0x246E JUMPI JUMPDEST DUP2 ISZERO PUSH2 0x244B JUMPI JUMPDEST DUP2 ISZERO PUSH2 0x2428 JUMPI JUMPDEST DUP2 ISZERO PUSH2 0x2405 JUMPI JUMPDEST DUP2 ISZERO PUSH2 0x23EA JUMPI JUMPDEST POP ISZERO PUSH2 0x23E4 JUMPI PUSH2 0x226C SWAP2 PUSH2 0x2562 PUSH2 0x2360 DUP4 PUSH2 0x1486 JUMP JUMPDEST MSTORE PUSH1 0xC8 PUSH2 0x236C DUP4 PUSH2 0x1816 JUMP JUMPDEST MSTORE PUSH1 0x23 PUSH2 0x2378 DUP4 PUSH2 0x15E6 JUMP JUMPDEST MSTORE PUSH1 0x16 PUSH2 0x2384 DUP4 PUSH2 0x17F4 JUMP JUMPDEST MSTORE PUSH1 0x14 PUSH2 0x2390 DUP4 PUSH2 0x167E JUMP JUMPDEST MSTORE PUSH1 0x12 PUSH2 0x239C DUP4 PUSH2 0x17D2 JUMP JUMPDEST MSTORE PUSH1 0x10 PUSH2 0x23A8 DUP4 PUSH2 0x1A25 JUMP JUMPDEST MSTORE PUSH1 0xE PUSH2 0x23B4 DUP4 PUSH2 0x168F JUMP JUMPDEST MSTORE PUSH1 0xC PUSH2 0x23C0 DUP4 PUSH2 0x15A6 JUMP JUMPDEST MSTORE PUSH1 0xA PUSH2 0x23CC DUP4 PUSH2 0x17E3 JUMP JUMPDEST MSTORE PUSH1 0x8 PUSH2 0x23D8 DUP4 PUSH2 0x16A0 JUMP JUMPDEST MSTORE PUSH1 0x4B PUSH2 0x1CA DUP4 PUSH2 0x15B6 JUMP JUMPDEST POP POP PUSH0 SWAP1 JUMP JUMPDEST PUSH2 0x23FF SWAP2 POP PUSH2 0x23FA SWAP1 CALLDATASIZE SWAP1 PUSH2 0x1D96 JUMP JUMPDEST PUSH2 0x38BD JUMP JUMPDEST PUSH0 PUSH2 0x234A JUMP JUMPDEST SWAP1 POP PUSH2 0x260 PUSH2 0x2414 CALLDATASIZE DUP4 PUSH2 0x1D96 JUMP JUMPDEST ADD MLOAD PUSH1 0x1A DUP2 LT ISZERO PUSH2 0x1E4 JUMPI PUSH1 0x16 EQ SWAP1 PUSH2 0x2343 JUMP JUMPDEST SWAP1 POP PUSH2 0x260 PUSH2 0x2437 CALLDATASIZE DUP4 PUSH2 0x1D96 JUMP JUMPDEST ADD MLOAD PUSH1 0x1A DUP2 LT ISZERO PUSH2 0x1E4 JUMPI PUSH1 0x6 EQ SWAP1 PUSH2 0x233C JUMP JUMPDEST SWAP1 POP PUSH2 0x260 PUSH2 0x245A CALLDATASIZE DUP4 PUSH2 0x1D96 JUMP JUMPDEST ADD MLOAD PUSH1 0x1A DUP2 LT ISZERO PUSH2 0x1E4 JUMPI PUSH1 0x5 EQ SWAP1 PUSH2 0x2335 JUMP JUMPDEST SWAP1 POP PUSH2 0x247D PUSH2 0xB74 CALLDATASIZE DUP4 PUSH2 0x1D96 JUMP JUMPDEST SWAP1 PUSH2 0x232E JUMP JUMPDEST SWAP1 POP PUSH2 0x260 PUSH2 0x2492 CALLDATASIZE DUP4 PUSH2 0x1D96 JUMP JUMPDEST ADD MLOAD PUSH1 0x1A DUP2 LT ISZERO PUSH2 0x1E4 JUMPI PUSH1 0x3 EQ SWAP1 PUSH2 0x2327 JUMP JUMPDEST POP PUSH2 0x260 PUSH2 0x24B4 CALLDATASIZE DUP4 PUSH2 0x1D96 JUMP JUMPDEST ADD MLOAD PUSH1 0x1A DUP2 LT ISZERO PUSH2 0x1E4 JUMPI PUSH1 0x18 EQ PUSH2 0x229A JUMP JUMPDEST POP PUSH2 0x24DA PUSH2 0x24D5 CALLDATASIZE DUP4 PUSH2 0x1D96 JUMP JUMPDEST PUSH2 0x3895 JUMP JUMPDEST PUSH2 0x217E JUMP JUMPDEST PUSH1 0x40 MLOAD SWAP1 PUSH2 0x1880 PUSH2 0x24F0 DUP2 DUP5 PUSH2 0x13D9 JUMP JUMPDEST PUSH1 0xC3 DUP4 MSTORE PUSH1 0x1F NOT ADD CALLDATASIZE PUSH1 0x20 DUP5 ADD CALLDATACOPY PUSH2 0x250B PUSH2 0x2172 CALLDATASIZE DUP4 PUSH2 0x1D96 JUMP JUMPDEST DUP1 ISZERO PUSH2 0x3043 JUMPI JUMPDEST ISZERO PUSH2 0x2FD4 JUMPI POP PUSH2 0x190 PUSH2 0x2524 DUP3 PUSH2 0x1486 JUMP JUMPDEST MSTORE JUMPDEST PUSH1 0xE1 PUSH2 0x2531 DUP3 PUSH2 0x1A25 JUMP JUMPDEST MSTORE PUSH1 0x96 PUSH2 0x253D DUP3 PUSH2 0x15C6 JUMP JUMPDEST MSTORE PUSH1 0x7D PUSH2 0x2549 DUP3 PUSH2 0x15A6 JUMP JUMPDEST MSTORE PUSH1 0x64 PUSH2 0x2555 DUP3 PUSH2 0x15D6 JUMP JUMPDEST MSTORE PUSH1 0x4C PUSH2 0x2561 DUP3 PUSH2 0x17F4 JUMP JUMPDEST MSTORE PUSH1 0x20 PUSH2 0x256D DUP3 PUSH2 0x15B6 JUMP JUMPDEST MSTORE PUSH1 0x20 PUSH2 0x2579 DUP3 PUSH2 0x15E6 JUMP JUMPDEST MSTORE PUSH1 0x20 PUSH2 0x2585 DUP3 PUSH2 0x179F JUMP JUMPDEST MSTORE PUSH1 0x20 PUSH2 0x2591 DUP3 PUSH2 0x17B0 JUMP JUMPDEST MSTORE PUSH1 0x20 PUSH2 0x259D DUP3 PUSH2 0x17C1 JUMP JUMPDEST MSTORE PUSH1 0x20 PUSH2 0x25A9 DUP3 PUSH2 0x17D2 JUMP JUMPDEST MSTORE PUSH1 0x20 PUSH2 0x25B5 DUP3 PUSH2 0x17E3 JUMP JUMPDEST MSTORE PUSH1 0xE1 PUSH2 0x25C1 DUP3 PUSH2 0x1805 JUMP JUMPDEST MSTORE PUSH1 0x96 PUSH2 0x25CD DUP3 PUSH2 0x167E JUMP JUMPDEST MSTORE PUSH1 0x7D PUSH2 0x25D9 DUP3 PUSH2 0x1816 JUMP JUMPDEST MSTORE PUSH1 0x64 PUSH2 0x25E5 DUP3 PUSH2 0x168F JUMP JUMPDEST MSTORE PUSH1 0x4C PUSH2 0x25F1 DUP3 PUSH2 0x1706 JUMP JUMPDEST MSTORE PUSH1 0x20 PUSH2 0x25FD DUP3 PUSH2 0x1827 JUMP JUMPDEST MSTORE PUSH1 0x20 PUSH2 0x2609 DUP3 PUSH2 0x16A0 JUMP JUMPDEST MSTORE PUSH1 0x20 PUSH2 0x2615 DUP3 PUSH2 0x16B1 JUMP JUMPDEST MSTORE PUSH1 0x20 PUSH2 0x2621 DUP3 PUSH2 0x16C2 JUMP JUMPDEST MSTORE PUSH1 0x20 PUSH2 0x262D DUP3 PUSH2 0x16D3 JUMP JUMPDEST MSTORE PUSH1 0x20 PUSH2 0x2639 DUP3 PUSH2 0x16E4 JUMP JUMPDEST MSTORE PUSH1 0x20 PUSH2 0x2645 DUP3 PUSH2 0x16F5 JUMP JUMPDEST MSTORE PUSH1 0xE1 PUSH2 0x2651 DUP3 PUSH2 0x1584 JUMP JUMPDEST MSTORE PUSH1 0x96 PUSH2 0x265D DUP3 PUSH2 0x1BEF JUMP JUMPDEST MSTORE PUSH1 0x7D PUSH2 0x2669 DUP3 PUSH2 0x1595 JUMP JUMPDEST MSTORE PUSH1 0x64 PUSH2 0x2675 DUP3 PUSH2 0x1C11 JUMP JUMPDEST MSTORE PUSH1 0x4B PUSH2 0x2681 DUP3 PUSH2 0x1A46 JUMP JUMPDEST MSTORE PUSH1 0x20 PUSH2 0x268D DUP3 PUSH2 0x1ACE JUMP JUMPDEST MSTORE PUSH1 0x20 PUSH2 0x2699 DUP3 PUSH2 0x1C22 JUMP JUMPDEST MSTORE PUSH1 0x20 PUSH2 0x26A5 DUP3 PUSH2 0x1C33 JUMP JUMPDEST MSTORE PUSH1 0x20 PUSH2 0x26B1 DUP3 PUSH2 0x1C44 JUMP JUMPDEST MSTORE PUSH1 0x20 PUSH2 0x26BD DUP3 PUSH2 0x1C55 JUMP JUMPDEST MSTORE PUSH1 0x20 PUSH2 0x26C9 DUP3 PUSH2 0x1C00 JUMP JUMPDEST MSTORE PUSH1 0x20 PUSH2 0x26D5 DUP3 PUSH2 0x1A35 JUMP JUMPDEST MSTORE PUSH1 0xE1 PUSH2 0x26E1 DUP3 PUSH2 0x1618 JUMP JUMPDEST MSTORE PUSH1 0x96 PUSH2 0x26ED DUP3 PUSH2 0x164B JUMP JUMPDEST MSTORE PUSH1 0x7D PUSH2 0x26F9 DUP3 PUSH2 0x1629 JUMP JUMPDEST MSTORE PUSH1 0x64 PUSH2 0x2705 DUP3 PUSH2 0x165C JUMP JUMPDEST MSTORE PUSH1 0x4C PUSH2 0x2711 DUP3 PUSH2 0x14FC JUMP JUMPDEST MSTORE PUSH1 0x20 PUSH2 0x271D DUP3 PUSH2 0x163A JUMP JUMPDEST MSTORE PUSH1 0x20 PUSH2 0x2729 DUP3 PUSH2 0x166D JUMP JUMPDEST MSTORE PUSH1 0x20 PUSH2 0x2735 DUP3 PUSH2 0x14A7 JUMP JUMPDEST MSTORE PUSH1 0x20 PUSH2 0x2741 DUP3 PUSH2 0x14B8 JUMP JUMPDEST MSTORE PUSH1 0x20 PUSH2 0x274D DUP3 PUSH2 0x14C9 JUMP JUMPDEST MSTORE PUSH1 0x20 PUSH2 0x2759 DUP3 PUSH2 0x14DA JUMP JUMPDEST MSTORE PUSH1 0x20 PUSH2 0x2765 DUP3 PUSH2 0x14EB JUMP JUMPDEST MSTORE DUP1 MLOAD PUSH1 0x87 LT ISZERO PUSH2 0x1493 JUMPI PUSH2 0x10E0 DUP2 ADD SWAP2 PUSH1 0xE1 PUSH2 0x1100 DUP4 ADD MSTORE DUP2 MLOAD PUSH1 0x8A LT ISZERO PUSH2 0x1493 JUMPI PUSH2 0x1140 DUP3 ADD PUSH1 0x96 PUSH2 0x1160 DUP5 ADD MSTORE DUP3 MLOAD PUSH1 0x88 LT ISZERO PUSH2 0x1493 JUMPI PUSH1 0x7D PUSH2 0x1120 DUP5 ADD MSTORE DUP3 MLOAD PUSH1 0x8B LT ISZERO PUSH2 0x1493 JUMPI PUSH1 0x64 PUSH2 0x1180 DUP5 ADD MSTORE DUP3 MLOAD PUSH1 0x92 LT ISZERO PUSH2 0x1493 JUMPI PUSH2 0x1240 DUP4 ADD SWAP1 PUSH1 0x4C PUSH2 0x1260 DUP6 ADD MSTORE DUP4 MLOAD PUSH1 0x89 LT ISZERO PUSH2 0x1493 JUMPI PUSH1 0x20 SWAP1 MSTORE DUP3 MLOAD PUSH1 0x8C LT ISZERO PUSH2 0x1493 JUMPI PUSH1 0x20 PUSH2 0x11A0 DUP5 ADD MSTORE DUP3 MLOAD PUSH1 0x8D LT ISZERO PUSH2 0x1493 JUMPI PUSH1 0x20 PUSH2 0x11C0 DUP5 ADD MSTORE DUP3 MLOAD PUSH1 0x8E LT ISZERO PUSH2 0x1493 JUMPI PUSH1 0x20 PUSH2 0x11E0 DUP5 ADD MSTORE DUP3 MLOAD PUSH1 0x8F LT ISZERO PUSH2 0x1493 JUMPI PUSH1 0x20 PUSH2 0x1200 DUP5 ADD MSTORE DUP3 MLOAD PUSH1 0x90 LT ISZERO PUSH2 0x1493 JUMPI PUSH1 0x20 PUSH2 0x1220 DUP5 ADD MSTORE DUP3 MLOAD PUSH1 0x91 LT ISZERO PUSH2 0x1493 JUMPI PUSH1 0x20 SWAP1 MSTORE DUP2 MLOAD PUSH1 0x9F LT ISZERO PUSH2 0x1493 JUMPI PUSH2 0x13E0 DUP3 ADD PUSH1 0xE1 PUSH2 0x1400 DUP5 ADD MSTORE DUP3 MLOAD PUSH1 0xA2 LT ISZERO PUSH2 0x1493 JUMPI PUSH2 0x1440 DUP4 ADD PUSH1 0x96 PUSH2 0x1460 DUP6 ADD MSTORE DUP4 MLOAD PUSH1 0xA0 LT ISZERO PUSH2 0x1493 JUMPI PUSH1 0x7D PUSH2 0x1420 DUP6 ADD MSTORE DUP4 MLOAD PUSH1 0xA3 LT ISZERO PUSH2 0x1493 JUMPI PUSH1 0x64 PUSH2 0x1480 DUP6 ADD MSTORE DUP4 MLOAD PUSH1 0xAA LT ISZERO PUSH2 0x1493 JUMPI PUSH2 0x1540 DUP5 ADD SWAP1 PUSH1 0x4C PUSH2 0x1560 DUP7 ADD MSTORE DUP5 MLOAD PUSH1 0xA1 LT ISZERO PUSH2 0x1493 JUMPI PUSH1 0x20 SWAP1 MSTORE DUP4 MLOAD PUSH1 0xA4 LT ISZERO PUSH2 0x1493 JUMPI PUSH1 0x20 PUSH2 0x14A0 DUP6 ADD MSTORE DUP4 MLOAD PUSH1 0xA5 LT ISZERO PUSH2 0x1493 JUMPI PUSH1 0x20 PUSH2 0x14C0 DUP6 ADD MSTORE DUP4 MLOAD PUSH1 0xA6 LT ISZERO PUSH2 0x1493 JUMPI PUSH1 0x20 PUSH2 0x14E0 DUP6 ADD MSTORE DUP4 MLOAD PUSH1 0xA7 LT ISZERO PUSH2 0x1493 JUMPI PUSH1 0x20 PUSH2 0x1500 DUP6 ADD MSTORE DUP4 MLOAD PUSH1 0xA8 LT ISZERO PUSH2 0x1493 JUMPI PUSH1 0x20 PUSH2 0x1520 DUP6 ADD MSTORE DUP4 MLOAD PUSH1 0xA9 LT ISZERO PUSH2 0x1493 JUMPI PUSH1 0x20 SWAP1 MSTORE PUSH1 0xD2 PUSH2 0x2932 DUP5 PUSH2 0x1A57 JUMP JUMPDEST MSTORE PUSH1 0x96 PUSH2 0x293E DUP5 PUSH2 0x1A8A JUMP JUMPDEST MSTORE PUSH1 0x78 PUSH2 0x294A DUP5 PUSH2 0x1A68 JUMP JUMPDEST MSTORE PUSH1 0x64 PUSH2 0x2956 DUP5 PUSH2 0x1A9B JUMP JUMPDEST MSTORE PUSH1 0x3C PUSH2 0x2962 DUP5 PUSH2 0x185A JUMP JUMPDEST MSTORE PUSH1 0x1E PUSH2 0x296E DUP5 PUSH2 0x1A79 JUMP JUMPDEST MSTORE PUSH1 0x1E PUSH2 0x297A DUP5 PUSH2 0x1AAC JUMP JUMPDEST MSTORE PUSH1 0x1E PUSH2 0x2986 DUP5 PUSH2 0x1ABD JUMP JUMPDEST MSTORE PUSH1 0x1E PUSH2 0x2992 DUP5 PUSH2 0x1D21 JUMP JUMPDEST MSTORE PUSH1 0x1E PUSH2 0x299E DUP5 PUSH2 0x1D10 JUMP JUMPDEST MSTORE PUSH1 0x1E PUSH2 0x29AA DUP5 PUSH2 0x1838 JUMP JUMPDEST MSTORE PUSH1 0x1E PUSH2 0x29B6 DUP5 PUSH2 0x1849 JUMP JUMPDEST MSTORE PUSH1 0xD2 PUSH2 0x29C2 DUP5 PUSH2 0x150D JUMP JUMPDEST MSTORE PUSH1 0x96 PUSH2 0x29CE DUP5 PUSH2 0x1540 JUMP JUMPDEST MSTORE PUSH1 0x78 PUSH2 0x29DA DUP5 PUSH2 0x151E JUMP JUMPDEST MSTORE PUSH1 0x64 PUSH2 0x29E6 DUP5 PUSH2 0x18E2 JUMP JUMPDEST MSTORE PUSH1 0x3C PUSH2 0x29F2 DUP5 PUSH2 0x1959 JUMP JUMPDEST MSTORE PUSH1 0x1E PUSH2 0x29FE DUP5 PUSH2 0x152F JUMP JUMPDEST MSTORE PUSH1 0x1E PUSH2 0x2A0A DUP5 PUSH2 0x18F3 JUMP JUMPDEST MSTORE PUSH1 0x1E PUSH2 0x2A16 DUP5 PUSH2 0x1904 JUMP JUMPDEST MSTORE PUSH1 0x1E PUSH2 0x2A22 DUP5 PUSH2 0x1915 JUMP JUMPDEST MSTORE PUSH1 0x1E PUSH2 0x2A2E DUP5 PUSH2 0x1926 JUMP JUMPDEST MSTORE PUSH1 0x1E PUSH2 0x2A3A DUP5 PUSH2 0x1937 JUMP JUMPDEST MSTORE PUSH1 0x1E PUSH2 0x2A46 DUP5 PUSH2 0x1948 JUMP JUMPDEST MSTORE DUP3 MLOAD PUSH1 0xAB LT ISZERO PUSH2 0x1493 JUMPI PUSH1 0x4B PUSH2 0x1580 DUP5 ADD MSTORE DUP3 MLOAD PUSH1 0xAE LT ISZERO PUSH2 0x1493 JUMPI PUSH2 0x15C0 DUP4 ADD PUSH1 0x41 PUSH2 0x15E0 DUP6 ADD MSTORE DUP4 MLOAD PUSH1 0xAC LT ISZERO PUSH2 0x1493 JUMPI PUSH1 0x32 PUSH2 0x15A0 DUP6 ADD MSTORE DUP4 MLOAD PUSH1 0xAF LT ISZERO PUSH2 0x1493 JUMPI PUSH1 0x2D PUSH2 0x1600 DUP6 ADD MSTORE DUP4 MLOAD PUSH1 0xB6 LT ISZERO PUSH2 0x1493 JUMPI PUSH2 0x16C0 DUP5 ADD SWAP1 PUSH1 0x1F PUSH2 0x16E0 DUP7 ADD MSTORE DUP5 MLOAD PUSH1 0xAD LT ISZERO PUSH2 0x1493 JUMPI PUSH1 0xC SWAP1 MSTORE DUP4 MLOAD PUSH1 0xB0 LT ISZERO PUSH2 0x1493 JUMPI PUSH1 0xC PUSH2 0x1620 DUP6 ADD MSTORE DUP4 MLOAD PUSH1 0xB1 LT ISZERO PUSH2 0x1493 JUMPI PUSH1 0xC PUSH2 0x1640 DUP6 ADD MSTORE DUP4 MLOAD PUSH1 0xB2 LT ISZERO PUSH2 0x1493 JUMPI PUSH1 0xC PUSH2 0x1660 DUP6 ADD MSTORE DUP4 MLOAD PUSH1 0xB3 LT ISZERO PUSH2 0x1493 JUMPI PUSH1 0xC PUSH2 0x1680 DUP6 ADD MSTORE DUP4 MLOAD PUSH1 0xB4 LT ISZERO PUSH2 0x1493 JUMPI PUSH1 0xC PUSH2 0x16A0 DUP6 ADD MSTORE DUP4 MLOAD PUSH1 0xB5 LT ISZERO PUSH2 0x1493 JUMPI PUSH1 0xC SWAP1 MSTORE DUP3 MLOAD PUSH1 0x93 LT ISZERO PUSH2 0x1493 JUMPI PUSH1 0x4B PUSH2 0x1280 DUP5 ADD MSTORE DUP3 MLOAD PUSH1 0x96 LT ISZERO PUSH2 0x1493 JUMPI PUSH2 0x12C0 DUP4 ADD PUSH1 0x41 PUSH2 0x12E0 DUP6 ADD MSTORE DUP4 MLOAD PUSH1 0x94 LT ISZERO PUSH2 0x1493 JUMPI PUSH1 0x32 PUSH2 0x12A0 DUP6 ADD MSTORE DUP4 MLOAD PUSH1 0x97 LT ISZERO PUSH2 0x1493 JUMPI PUSH1 0x2D PUSH2 0x1300 DUP6 ADD MSTORE DUP4 MLOAD PUSH1 0x9E LT ISZERO PUSH2 0x1493 JUMPI PUSH1 0x1F PUSH2 0x13C0 DUP6 ADD SWAP3 MSTORE DUP4 MLOAD PUSH1 0x95 LT ISZERO PUSH2 0x1493 JUMPI PUSH1 0xC SWAP1 MSTORE DUP3 MLOAD PUSH1 0x98 LT ISZERO PUSH2 0x1493 JUMPI PUSH1 0xC PUSH2 0x1320 DUP5 ADD MSTORE DUP3 MLOAD PUSH1 0x99 LT ISZERO PUSH2 0x1493 JUMPI PUSH1 0xC PUSH2 0x1340 DUP5 ADD MSTORE DUP3 MLOAD PUSH1 0x9A LT ISZERO PUSH2 0x1493 JUMPI PUSH1 0xC PUSH2 0x1360 DUP5 ADD MSTORE DUP3 MLOAD PUSH1 0x9B LT ISZERO PUSH2 0x1493 JUMPI PUSH1 0xC PUSH2 0x1380 DUP5 ADD MSTORE DUP3 MLOAD PUSH1 0x9C LT ISZERO PUSH2 0x1493 JUMPI PUSH1 0xC PUSH2 0x13A0 DUP5 ADD MSTORE DUP3 MLOAD PUSH1 0x9D LT ISZERO PUSH2 0x1493 JUMPI PUSH1 0xC SWAP1 MSTORE PUSH1 0x4B PUSH2 0x2C03 DUP4 PUSH2 0x186B JUMP JUMPDEST MSTORE PUSH1 0x41 PUSH2 0x2C0F DUP4 PUSH2 0x1B78 JUMP JUMPDEST MSTORE PUSH1 0x32 PUSH2 0x2C1B DUP4 PUSH2 0x187C JUMP JUMPDEST MSTORE PUSH1 0x2D PUSH2 0x2C27 DUP4 PUSH2 0x1B89 JUMP JUMPDEST MSTORE PUSH1 0x1F PUSH2 0x2C33 DUP4 PUSH2 0x19AE JUMP JUMPDEST MSTORE PUSH1 0xC PUSH2 0x2C3F DUP4 PUSH2 0x188D JUMP JUMPDEST MSTORE PUSH1 0xC PUSH2 0x2C4B DUP4 PUSH2 0x1B9A JUMP JUMPDEST MSTORE PUSH1 0xC PUSH2 0x2C57 DUP4 PUSH2 0x1BAB JUMP JUMPDEST MSTORE PUSH1 0xC PUSH2 0x2C63 DUP4 PUSH2 0x1BBC JUMP JUMPDEST MSTORE PUSH1 0xC PUSH2 0x2C6F DUP4 PUSH2 0x1B12 JUMP JUMPDEST MSTORE PUSH1 0xC PUSH2 0x2C7B DUP4 PUSH2 0x1B23 JUMP JUMPDEST MSTORE PUSH1 0xC PUSH2 0x2C87 DUP4 PUSH2 0x1B34 JUMP JUMPDEST MSTORE DUP2 MLOAD PUSH1 0xB7 LT ISZERO PUSH2 0x1493 JUMPI PUSH1 0x4B PUSH2 0x1700 DUP4 ADD MSTORE DUP2 MLOAD PUSH1 0xBA LT ISZERO PUSH2 0x1493 JUMPI PUSH2 0x1740 DUP3 ADD PUSH1 0x41 PUSH2 0x1760 DUP5 ADD MSTORE DUP3 MLOAD PUSH1 0xB8 LT ISZERO PUSH2 0x1493 JUMPI PUSH1 0x32 PUSH2 0x1720 DUP5 ADD MSTORE DUP3 MLOAD PUSH1 0xBB LT ISZERO PUSH2 0x1493 JUMPI PUSH1 0x2D PUSH2 0x1780 DUP5 ADD MSTORE DUP3 MLOAD PUSH1 0xC2 LT ISZERO PUSH2 0x1493 JUMPI PUSH2 0x1840 DUP4 ADD SWAP1 PUSH1 0x1F PUSH2 0x1860 DUP6 ADD MSTORE DUP4 MLOAD PUSH1 0xB9 LT ISZERO PUSH2 0x1493 JUMPI PUSH1 0xC SWAP1 MSTORE DUP3 MLOAD PUSH1 0xBC LT ISZERO PUSH2 0x1493 JUMPI PUSH1 0xC PUSH2 0x17A0 DUP5 ADD MSTORE DUP3 MLOAD PUSH1 0xBD LT ISZERO PUSH2 0x1493 JUMPI PUSH1 0xC PUSH2 0x17C0 DUP5 ADD MSTORE DUP3 MLOAD PUSH1 0xBE LT ISZERO PUSH2 0x1493 JUMPI PUSH1 0xC PUSH2 0x17E0 DUP5 ADD MSTORE DUP3 MLOAD PUSH1 0xBF LT ISZERO PUSH2 0x1493 JUMPI PUSH1 0xC PUSH2 0x1800 DUP5 ADD MSTORE DUP3 MLOAD PUSH1 0xC0 LT ISZERO PUSH2 0x1493 JUMPI PUSH1 0xC PUSH2 0x1820 DUP5 ADD MSTORE DUP3 MLOAD PUSH1 0xC1 LT ISZERO PUSH2 0x1493 JUMPI PUSH1 0xC SWAP1 MSTORE PUSH1 0x4B PUSH2 0x2D6E DUP4 PUSH2 0x19BF JUMP JUMPDEST MSTORE PUSH1 0x37 PUSH2 0x2D7A DUP4 PUSH2 0x19F2 JUMP JUMPDEST MSTORE PUSH1 0x2D PUSH2 0x2D86 DUP4 PUSH2 0x19D0 JUMP JUMPDEST MSTORE PUSH1 0x23 PUSH2 0x2D92 DUP4 PUSH2 0x1A03 JUMP JUMPDEST MSTORE PUSH1 0x11 PUSH2 0x2D9E DUP4 PUSH2 0x1607 JUMP JUMPDEST MSTORE PUSH1 0x7 PUSH2 0x2DAA DUP4 PUSH2 0x19E1 JUMP JUMPDEST MSTORE PUSH1 0x7 PUSH2 0x2DB6 DUP4 PUSH2 0x1A14 JUMP JUMPDEST MSTORE PUSH1 0x7 PUSH2 0x2DC2 DUP4 PUSH2 0x1B67 JUMP JUMPDEST MSTORE PUSH1 0x7 PUSH2 0x2DCE DUP4 PUSH2 0x196A JUMP JUMPDEST MSTORE PUSH1 0x7 PUSH2 0x2DDA DUP4 PUSH2 0x197B JUMP JUMPDEST MSTORE PUSH1 0x7 PUSH2 0x2DE6 DUP4 PUSH2 0x198C JUMP JUMPDEST MSTORE PUSH1 0x7 PUSH2 0x2DF2 DUP4 PUSH2 0x15F6 JUMP JUMPDEST MSTORE PUSH1 0x6 PUSH2 0x2DFE DUP4 PUSH2 0x1BDE JUMP JUMPDEST MSTORE PUSH1 0x6 PUSH2 0x2E0A DUP4 PUSH2 0x1B45 JUMP JUMPDEST MSTORE PUSH1 0x6 PUSH2 0x2E16 DUP4 PUSH2 0x1D32 JUMP JUMPDEST MSTORE PUSH1 0x6 PUSH2 0x2E22 DUP4 PUSH2 0x1B56 JUMP JUMPDEST MSTORE PUSH1 0x49 PUSH2 0x2E2E DUP4 PUSH2 0x1C66 JUMP JUMPDEST MSTORE PUSH1 0x37 PUSH2 0x2E3A DUP4 PUSH2 0x1C99 JUMP JUMPDEST MSTORE PUSH1 0x2D PUSH2 0x2E46 DUP4 PUSH2 0x1C77 JUMP JUMPDEST MSTORE PUSH1 0x23 PUSH2 0x2E52 DUP4 PUSH2 0x1CAA JUMP JUMPDEST MSTORE DUP2 MLOAD PUSH1 0x86 LT ISZERO PUSH2 0x1493 JUMPI PUSH1 0xF PUSH2 0x10C0 DUP4 ADD SWAP4 MSTORE PUSH1 0xB PUSH2 0x2E71 DUP4 PUSH2 0x1C88 JUMP JUMPDEST MSTORE PUSH1 0xB PUSH2 0x2E7D DUP4 PUSH2 0x1CBB JUMP JUMPDEST MSTORE PUSH1 0xB PUSH2 0x2E89 DUP4 PUSH2 0x1CCC JUMP JUMPDEST MSTORE PUSH1 0xB PUSH2 0x2E95 DUP4 PUSH2 0x1CDD JUMP JUMPDEST MSTORE PUSH1 0xB PUSH2 0x2EA1 DUP4 PUSH2 0x1D43 JUMP JUMPDEST MSTORE PUSH1 0xB PUSH2 0x2EAD DUP4 PUSH2 0x1D54 JUMP JUMPDEST MSTORE DUP2 MLOAD PUSH1 0x85 LT ISZERO PUSH2 0x1493 JUMPI PUSH1 0xB DUP4 PUSH2 0x2FC8 SWAP5 POP MSTORE PUSH1 0x3C PUSH2 0x2ECC DUP4 PUSH2 0x1CFF JUMP JUMPDEST MSTORE PUSH1 0x2D PUSH2 0x2ED8 DUP4 PUSH2 0x1CEE JUMP JUMPDEST MSTORE PUSH1 0x23 PUSH2 0x2EE4 DUP4 PUSH2 0x189E JUMP JUMPDEST MSTORE PUSH1 0x14 PUSH2 0x2EF0 DUP4 PUSH2 0x18AF JUMP JUMPDEST MSTORE PUSH1 0xF PUSH2 0x2EFC DUP4 PUSH2 0x178E JUMP JUMPDEST MSTORE PUSH1 0x9 PUSH2 0x2F08 DUP4 PUSH2 0x1BCD JUMP JUMPDEST MSTORE PUSH1 0x9 PUSH2 0x2F14 DUP4 PUSH2 0x18C0 JUMP JUMPDEST MSTORE PUSH1 0x9 PUSH2 0x2F20 DUP4 PUSH2 0x1739 JUMP JUMPDEST MSTORE PUSH1 0x9 PUSH2 0x2F2C DUP4 PUSH2 0x174A JUMP JUMPDEST MSTORE PUSH1 0x9 PUSH2 0x2F38 DUP4 PUSH2 0x175B JUMP JUMPDEST MSTORE PUSH1 0x9 PUSH2 0x2F44 DUP4 PUSH2 0x176C JUMP JUMPDEST MSTORE PUSH1 0x9 PUSH2 0x2F50 DUP4 PUSH2 0x177D JUMP JUMPDEST MSTORE PUSH1 0x3 PUSH2 0x2F5C DUP4 PUSH2 0x18D1 JUMP JUMPDEST MSTORE PUSH1 0x3 PUSH2 0x2F68 DUP4 PUSH2 0x199D JUMP JUMPDEST MSTORE PUSH1 0x3 PUSH2 0x2F74 DUP4 PUSH2 0x1717 JUMP JUMPDEST MSTORE PUSH1 0x3 PUSH2 0x2F80 DUP4 PUSH2 0x1728 JUMP JUMPDEST MSTORE PUSH1 0x29 PUSH2 0x2F8C DUP4 PUSH2 0x1ADF JUMP JUMPDEST MSTORE PUSH1 0x29 PUSH2 0x2F98 DUP4 PUSH2 0x1AF0 JUMP JUMPDEST MSTORE PUSH1 0x29 PUSH2 0x2FA4 DUP4 PUSH2 0x1B01 JUMP JUMPDEST MSTORE PUSH1 0x29 PUSH2 0x2FB0 DUP4 PUSH2 0x1551 JUMP JUMPDEST MSTORE PUSH1 0x29 PUSH2 0x2FBC DUP4 PUSH2 0x1562 JUMP JUMPDEST MSTORE PUSH1 0x29 PUSH2 0x1CA DUP4 PUSH2 0x1573 JUMP JUMPDEST PUSH1 0xC3 DUP2 LT ISZERO PUSH2 0x1E4 JUMPI SWAP1 JUMP JUMPDEST PUSH2 0x2FE6 PUSH2 0x2FE1 CALLDATASIZE DUP4 PUSH2 0x1D96 JUMP JUMPDEST PUSH2 0x38D1 JUMP JUMPDEST SWAP1 DUP2 ISZERO PUSH2 0x3029 JUMPI JUMPDEST DUP2 ISZERO PUSH2 0x3013 JUMPI JUMPDEST POP ISZERO PUSH2 0x3001 JUMPI POP POP PUSH0 SWAP1 JUMP JUMPDEST PUSH2 0x4B0 PUSH2 0x300D DUP3 PUSH2 0x1486 JUMP JUMPDEST MSTORE PUSH2 0x2526 JUMP JUMPDEST PUSH2 0x3023 SWAP2 POP PUSH2 0x23FA SWAP1 CALLDATASIZE SWAP1 PUSH2 0x1D96 JUMP JUMPDEST PUSH0 PUSH2 0x2FF5 JUMP JUMPDEST SWAP1 POP PUSH2 0x303D PUSH2 0x3038 CALLDATASIZE DUP4 PUSH2 0x1D96 JUMP JUMPDEST PUSH2 0x38E5 JUMP JUMPDEST SWAP1 PUSH2 0x2FEE JUMP JUMPDEST POP PUSH2 0x3051 PUSH2 0x24D5 CALLDATASIZE DUP4 PUSH2 0x1D96 JUMP JUMPDEST PUSH2 0x2512 JUMP JUMPDEST PUSH1 0x40 MLOAD SWAP1 PUSH2 0x10C0 PUSH2 0x3067 DUP2 DUP5 PUSH2 0x13D9 JUMP JUMPDEST PUSH1 0x85 DUP4 MSTORE PUSH1 0x1F NOT ADD CALLDATASIZE PUSH1 0x20 DUP5 ADD CALLDATACOPY PUSH2 0x3082 PUSH2 0x2172 CALLDATASIZE DUP4 PUSH2 0x1D96 JUMP JUMPDEST DUP1 ISZERO PUSH2 0x3745 JUMPI JUMPDEST ISZERO PUSH2 0x36DC JUMPI POP PUSH2 0x36D0 SWAP2 PUSH2 0x190 PUSH2 0x309F DUP4 PUSH2 0x1486 JUMP JUMPDEST MSTORE JUMPDEST PUSH1 0xE1 PUSH2 0x30AC DUP4 PUSH2 0x1A25 JUMP JUMPDEST MSTORE PUSH1 0x96 PUSH2 0x30B8 DUP4 PUSH2 0x15C6 JUMP JUMPDEST MSTORE PUSH1 0x7D PUSH2 0x30C4 DUP4 PUSH2 0x15A6 JUMP JUMPDEST MSTORE PUSH1 0x64 PUSH2 0x30D0 DUP4 PUSH2 0x15D6 JUMP JUMPDEST MSTORE PUSH1 0x4B PUSH2 0x30DC DUP4 PUSH2 0x17F4 JUMP JUMPDEST MSTORE PUSH1 0x21 PUSH2 0x30E8 DUP4 PUSH2 0x15B6 JUMP JUMPDEST MSTORE PUSH1 0x20 PUSH2 0x30F4 DUP4 PUSH2 0x15E6 JUMP JUMPDEST MSTORE PUSH1 0x20 PUSH2 0x3100 DUP4 PUSH2 0x179F JUMP JUMPDEST MSTORE PUSH1 0x20 PUSH2 0x310C DUP4 PUSH2 0x17B0 JUMP JUMPDEST MSTORE PUSH1 0x20 PUSH2 0x3118 DUP4 PUSH2 0x17C1 JUMP JUMPDEST MSTORE PUSH1 0x20 PUSH2 0x3124 DUP4 PUSH2 0x17D2 JUMP JUMPDEST MSTORE PUSH1 0x20 PUSH2 0x3130 DUP4 PUSH2 0x17E3 JUMP JUMPDEST MSTORE PUSH1 0xE1 PUSH2 0x313C DUP4 PUSH2 0x1805 JUMP JUMPDEST MSTORE PUSH1 0x96 PUSH2 0x3148 DUP4 PUSH2 0x167E JUMP JUMPDEST MSTORE PUSH1 0x7D PUSH2 0x3154 DUP4 PUSH2 0x1816 JUMP JUMPDEST MSTORE PUSH1 0x64 PUSH2 0x3160 DUP4 PUSH2 0x168F JUMP JUMPDEST MSTORE PUSH1 0x4B PUSH2 0x316C DUP4 PUSH2 0x1706 JUMP JUMPDEST MSTORE PUSH1 0x21 PUSH2 0x3178 DUP4 PUSH2 0x1827 JUMP JUMPDEST MSTORE PUSH1 0x20 PUSH2 0x3184 DUP4 PUSH2 0x16A0 JUMP JUMPDEST MSTORE PUSH1 0x20 PUSH2 0x3190 DUP4 PUSH2 0x16B1 JUMP JUMPDEST MSTORE PUSH1 0x20 PUSH2 0x319C DUP4 PUSH2 0x16C2 JUMP JUMPDEST MSTORE PUSH1 0x20 PUSH2 0x31A8 DUP4 PUSH2 0x16D3 JUMP JUMPDEST MSTORE PUSH1 0x20 PUSH2 0x31B4 DUP4 PUSH2 0x16E4 JUMP JUMPDEST MSTORE PUSH1 0x20 PUSH2 0x31C0 DUP4 PUSH2 0x16F5 JUMP JUMPDEST MSTORE PUSH1 0xE1 PUSH2 0x31CC DUP4 PUSH2 0x1BDE JUMP JUMPDEST MSTORE PUSH1 0x96 PUSH2 0x31D8 DUP4 PUSH2 0x1B56 JUMP JUMPDEST MSTORE PUSH1 0x7D PUSH2 0x31E4 DUP4 PUSH2 0x1B45 JUMP JUMPDEST MSTORE PUSH1 0x64 PUSH2 0x31F0 DUP4 PUSH2 0x1B67 JUMP JUMPDEST MSTORE PUSH1 0x4B PUSH2 0x31FC DUP4 PUSH2 0x1629 JUMP JUMPDEST MSTORE PUSH1 0x21 PUSH2 0x3208 DUP4 PUSH2 0x1D32 JUMP JUMPDEST MSTORE PUSH1 0x20 PUSH2 0x3214 DUP4 PUSH2 0x196A JUMP JUMPDEST MSTORE PUSH1 0x20 PUSH2 0x3220 DUP4 PUSH2 0x197B JUMP JUMPDEST MSTORE PUSH1 0x20 PUSH2 0x322C DUP4 PUSH2 0x198C JUMP JUMPDEST MSTORE PUSH1 0x20 PUSH2 0x3238 DUP4 PUSH2 0x15F6 JUMP JUMPDEST MSTORE PUSH1 0x20 PUSH2 0x3244 DUP4 PUSH2 0x1607 JUMP JUMPDEST MSTORE PUSH1 0x20 PUSH2 0x3250 DUP4 PUSH2 0x1618 JUMP JUMPDEST MSTORE PUSH1 0xE1 PUSH2 0x325C DUP4 PUSH2 0x152F JUMP JUMPDEST MSTORE PUSH1 0x96 PUSH2 0x3268 DUP4 PUSH2 0x18F3 JUMP JUMPDEST MSTORE PUSH1 0x7D PUSH2 0x3274 DUP4 PUSH2 0x1540 JUMP JUMPDEST MSTORE PUSH1 0x64 PUSH2 0x3280 DUP4 PUSH2 0x1904 JUMP JUMPDEST MSTORE PUSH1 0x4B PUSH2 0x328C DUP4 PUSH2 0x1CEE JUMP JUMPDEST MSTORE PUSH1 0x21 PUSH2 0x3298 DUP4 PUSH2 0x18E2 JUMP JUMPDEST MSTORE PUSH1 0x20 PUSH2 0x32A4 DUP4 PUSH2 0x1915 JUMP JUMPDEST MSTORE PUSH1 0x20 PUSH2 0x32B0 DUP4 PUSH2 0x1926 JUMP JUMPDEST MSTORE PUSH1 0x20 PUSH2 0x32BC DUP4 PUSH2 0x1937 JUMP JUMPDEST MSTORE PUSH1 0x20 PUSH2 0x32C8 DUP4 PUSH2 0x1948 JUMP JUMPDEST MSTORE PUSH1 0x20 PUSH2 0x32D4 DUP4 PUSH2 0x1959 JUMP JUMPDEST MSTORE PUSH1 0x20 PUSH2 0x32E0 DUP4 PUSH2 0x1CFF JUMP JUMPDEST MSTORE PUSH1 0xD0 PUSH2 0x32EC DUP4 PUSH2 0x1ADF JUMP JUMPDEST MSTORE PUSH1 0x96 PUSH2 0x32F8 DUP4 PUSH2 0x1551 JUMP JUMPDEST MSTORE PUSH1 0x78 PUSH2 0x3304 DUP4 PUSH2 0x1AF0 JUMP JUMPDEST MSTORE PUSH1 0x64 PUSH2 0x3310 DUP4 PUSH2 0x1562 JUMP JUMPDEST MSTORE PUSH1 0x3C PUSH2 0x331C DUP4 PUSH2 0x1C22 JUMP JUMPDEST MSTORE PUSH1 0x20 PUSH2 0x3328 DUP4 PUSH2 0x1B01 JUMP JUMPDEST MSTORE PUSH1 0x1E PUSH2 0x3334 DUP4 PUSH2 0x1573 JUMP JUMPDEST MSTORE PUSH1 0x1E PUSH2 0x3340 DUP4 PUSH2 0x1584 JUMP JUMPDEST MSTORE PUSH1 0x1E PUSH2 0x334C DUP4 PUSH2 0x1595 JUMP JUMPDEST MSTORE PUSH1 0x1E PUSH2 0x3358 DUP4 PUSH2 0x1ACE JUMP JUMPDEST MSTORE PUSH1 0x1E PUSH2 0x3364 DUP4 PUSH2 0x1BEF JUMP JUMPDEST MSTORE PUSH1 0x1E PUSH2 0x3370 DUP4 PUSH2 0x1C11 JUMP JUMPDEST MSTORE PUSH1 0xD0 PUSH2 0x337C DUP4 PUSH2 0x1ABD JUMP JUMPDEST MSTORE PUSH1 0x96 PUSH2 0x3388 DUP4 PUSH2 0x1838 JUMP JUMPDEST MSTORE PUSH1 0x78 PUSH2 0x3394 DUP4 PUSH2 0x1D21 JUMP JUMPDEST MSTORE PUSH1 0x64 PUSH2 0x33A0 DUP4 PUSH2 0x1849 JUMP JUMPDEST MSTORE PUSH1 0x3C PUSH2 0x33AC DUP4 PUSH2 0x1B9A JUMP JUMPDEST MSTORE PUSH1 0x1F PUSH2 0x33B8 DUP4 PUSH2 0x1D10 JUMP JUMPDEST MSTORE PUSH1 0x1F PUSH2 0x33C4 DUP4 PUSH2 0x185A JUMP JUMPDEST MSTORE PUSH1 0x1E PUSH2 0x33D0 DUP4 PUSH2 0x186B JUMP JUMPDEST MSTORE PUSH1 0x1E PUSH2 0x33DC DUP4 PUSH2 0x187C JUMP JUMPDEST MSTORE PUSH1 0x1E PUSH2 0x33E8 DUP4 PUSH2 0x188D JUMP JUMPDEST MSTORE PUSH1 0x1E PUSH2 0x33F4 DUP4 PUSH2 0x1B78 JUMP JUMPDEST MSTORE PUSH1 0x1E PUSH2 0x3400 DUP4 PUSH2 0x1B89 JUMP JUMPDEST MSTORE PUSH1 0x4B PUSH2 0x340C DUP4 PUSH2 0x1BCD JUMP JUMPDEST MSTORE PUSH1 0x41 PUSH2 0x3418 DUP4 PUSH2 0x18C0 JUMP JUMPDEST MSTORE PUSH1 0x32 PUSH2 0x3424 DUP4 PUSH2 0x189E JUMP JUMPDEST MSTORE PUSH1 0x2D PUSH2 0x3430 DUP4 PUSH2 0x18D1 JUMP JUMPDEST MSTORE PUSH1 0x1C PUSH2 0x343C DUP4 PUSH2 0x176C JUMP JUMPDEST MSTORE PUSH1 0xD PUSH2 0x3448 DUP4 PUSH2 0x18AF JUMP JUMPDEST MSTORE PUSH1 0xD PUSH2 0x3454 DUP4 PUSH2 0x199D JUMP JUMPDEST MSTORE PUSH1 0xD PUSH2 0x3460 DUP4 PUSH2 0x1717 JUMP JUMPDEST MSTORE PUSH1 0xC PUSH2 0x346C DUP4 PUSH2 0x1728 JUMP JUMPDEST MSTORE PUSH1 0xC PUSH2 0x3478 DUP4 PUSH2 0x1739 JUMP JUMPDEST MSTORE PUSH1 0xC PUSH2 0x3484 DUP4 PUSH2 0x174A JUMP JUMPDEST MSTORE PUSH1 0xC PUSH2 0x3490 DUP4 PUSH2 0x175B JUMP JUMPDEST MSTORE PUSH1 0x4B PUSH2 0x349C DUP4 PUSH2 0x163A JUMP JUMPDEST MSTORE PUSH1 0x41 PUSH2 0x34A8 DUP4 PUSH2 0x166D JUMP JUMPDEST MSTORE PUSH1 0x32 PUSH2 0x34B4 DUP4 PUSH2 0x164B JUMP JUMPDEST MSTORE PUSH1 0x2D PUSH2 0x34C0 DUP4 PUSH2 0x14A7 JUMP JUMPDEST MSTORE PUSH1 0x1C PUSH2 0x34CC DUP4 PUSH2 0x151E JUMP JUMPDEST MSTORE PUSH1 0xD PUSH2 0x34D8 DUP4 PUSH2 0x165C JUMP JUMPDEST MSTORE PUSH1 0xD PUSH2 0x34E4 DUP4 PUSH2 0x14B8 JUMP JUMPDEST MSTORE PUSH1 0xD PUSH2 0x34F0 DUP4 PUSH2 0x14C9 JUMP JUMPDEST MSTORE PUSH1 0xC PUSH2 0x34FC DUP4 PUSH2 0x14DA JUMP JUMPDEST MSTORE PUSH1 0xC PUSH2 0x3508 DUP4 PUSH2 0x14EB JUMP JUMPDEST MSTORE PUSH1 0xC PUSH2 0x3514 DUP4 PUSH2 0x14FC JUMP JUMPDEST MSTORE PUSH1 0xC PUSH2 0x3520 DUP4 PUSH2 0x150D JUMP JUMPDEST MSTORE PUSH1 0x4B PUSH2 0x352C DUP4 PUSH2 0x1C33 JUMP JUMPDEST MSTORE PUSH1 0x41 PUSH2 0x3538 DUP4 PUSH2 0x1C00 JUMP JUMPDEST MSTORE PUSH1 0x32 PUSH2 0x3544 DUP4 PUSH2 0x1C44 JUMP JUMPDEST MSTORE PUSH1 0x2D PUSH2 0x3550 DUP4 PUSH2 0x1A35 JUMP JUMPDEST MSTORE PUSH1 0x1C PUSH2 0x355C DUP4 PUSH2 0x1AAC JUMP JUMPDEST MSTORE PUSH1 0xD PUSH2 0x3568 DUP4 PUSH2 0x1C55 JUMP JUMPDEST MSTORE PUSH1 0xD PUSH2 0x3574 DUP4 PUSH2 0x1A46 JUMP JUMPDEST MSTORE PUSH1 0xD PUSH2 0x3580 DUP4 PUSH2 0x1A57 JUMP JUMPDEST MSTORE PUSH1 0xC PUSH2 0x358C DUP4 PUSH2 0x1A68 JUMP JUMPDEST MSTORE PUSH1 0xC PUSH2 0x3598 DUP4 PUSH2 0x1A79 JUMP JUMPDEST MSTORE PUSH1 0xC PUSH2 0x35A4 DUP4 PUSH2 0x1A8A JUMP JUMPDEST MSTORE PUSH1 0xC PUSH2 0x35B0 DUP4 PUSH2 0x1A9B JUMP JUMPDEST MSTORE PUSH1 0x4B PUSH2 0x35BC DUP4 PUSH2 0x177D JUMP JUMPDEST MSTORE PUSH1 0x41 PUSH2 0x35C8 DUP4 PUSH2 0x1C77 JUMP JUMPDEST MSTORE PUSH1 0x32 PUSH2 0x35D4 DUP4 PUSH2 0x178E JUMP JUMPDEST MSTORE PUSH1 0x2D PUSH2 0x35E0 DUP4 PUSH2 0x1C88 JUMP JUMPDEST MSTORE PUSH1 0x1C PUSH2 0x35EC DUP4 PUSH2 0x1D54 JUMP JUMPDEST MSTORE PUSH1 0xD PUSH2 0x35F8 DUP4 PUSH2 0x1C66 JUMP JUMPDEST MSTORE PUSH1 0xD PUSH2 0x3604 DUP4 PUSH2 0x1C99 JUMP JUMPDEST MSTORE PUSH1 0xD PUSH2 0x3610 DUP4 PUSH2 0x1CAA JUMP JUMPDEST MSTORE PUSH1 0xC PUSH2 0x361C DUP4 PUSH2 0x1CBB JUMP JUMPDEST MSTORE PUSH1 0xC PUSH2 0x3628 DUP4 PUSH2 0x1CCC JUMP JUMPDEST MSTORE PUSH1 0xC PUSH2 0x3634 DUP4 PUSH2 0x1CDD JUMP JUMPDEST MSTORE PUSH1 0xC PUSH2 0x3640 DUP4 PUSH2 0x1D43 JUMP JUMPDEST MSTORE PUSH1 0x4B PUSH2 0x364C DUP4 PUSH2 0x1BAB JUMP JUMPDEST MSTORE PUSH1 0x37 PUSH2 0x3658 DUP4 PUSH2 0x1B23 JUMP JUMPDEST MSTORE PUSH1 0x2D PUSH2 0x3664 DUP4 PUSH2 0x1BBC JUMP JUMPDEST MSTORE PUSH1 0x23 PUSH2 0x3670 DUP4 PUSH2 0x1B34 JUMP JUMPDEST MSTORE PUSH1 0xF PUSH2 0x367C DUP4 PUSH2 0x1A14 JUMP JUMPDEST MSTORE PUSH1 0xB PUSH2 0x3688 DUP4 PUSH2 0x1B12 JUMP JUMPDEST MSTORE PUSH1 0xB PUSH2 0x3694 DUP4 PUSH2 0x19AE JUMP JUMPDEST MSTORE PUSH1 0xB PUSH2 0x36A0 DUP4 PUSH2 0x19BF JUMP JUMPDEST MSTORE PUSH1 0xB PUSH2 0x36AC DUP4 PUSH2 0x19D0 JUMP JUMPDEST MSTORE PUSH1 0xB PUSH2 0x36B8 DUP4 PUSH2 0x19E1 JUMP JUMPDEST MSTORE PUSH1 0xA PUSH2 0x36C4 DUP4 PUSH2 0x19F2 JUMP JUMPDEST MSTORE PUSH1 0xA PUSH2 0x1CA DUP4 PUSH2 0x1A03 JUMP JUMPDEST PUSH1 0x85 DUP2 LT ISZERO PUSH2 0x1E4 JUMPI SWAP1 JUMP JUMPDEST PUSH2 0x36E9 PUSH2 0x2FE1 CALLDATASIZE DUP4 PUSH2 0x1D96 JUMP JUMPDEST SWAP1 DUP2 ISZERO PUSH2 0x3730 JUMPI JUMPDEST DUP2 ISZERO PUSH2 0x371A JUMPI JUMPDEST POP ISZERO PUSH2 0x3704 JUMPI POP POP PUSH0 SWAP1 JUMP JUMPDEST PUSH2 0x36D0 SWAP2 PUSH2 0x320 PUSH2 0x3714 DUP4 PUSH2 0x1486 JUMP JUMPDEST MSTORE PUSH2 0x30A1 JUMP JUMPDEST PUSH2 0x372A SWAP2 POP PUSH2 0x23FA SWAP1 CALLDATASIZE SWAP1 PUSH2 0x1D96 JUMP JUMPDEST PUSH0 PUSH2 0x36F8 JUMP JUMPDEST SWAP1 POP PUSH2 0x373F PUSH2 0x3038 CALLDATASIZE DUP4 PUSH2 0x1D96 JUMP JUMPDEST SWAP1 PUSH2 0x36F1 JUMP JUMPDEST POP PUSH2 0x3753 PUSH2 0x24D5 CALLDATASIZE DUP4 PUSH2 0x1D96 JUMP JUMPDEST PUSH2 0x3089 JUMP JUMPDEST SWAP1 SWAP2 PUSH0 SWAP1 DUP2 JUMPDEST DUP5 MLOAD DUP4 LT ISZERO PUSH2 0x3782 JUMPI PUSH1 0x1 SWAP1 PUSH2 0xFFFF PUSH2 0x3777 DUP6 DUP9 PUSH2 0x1D65 JUMP JUMPDEST MLOAD AND ADD SWAP3 ADD SWAP2 PUSH2 0x375E JUMP JUMPDEST SWAP2 POP SWAP3 SWAP2 PUSH1 0x20 DUP2 ADD DUP1 MLOAD PUSH0 NOT DUP2 EQ PUSH2 0x3849 JUMPI PUSH1 0x1 ADD DUP1 SWAP2 MSTORE DUP2 MLOAD SWAP1 PUSH1 0x40 MLOAD SWAP1 PUSH1 0x20 DUP3 ADD SWAP3 DUP4 MSTORE PUSH1 0x40 DUP3 ADD MSTORE PUSH1 0x40 DUP2 MSTORE PUSH2 0x37BC PUSH1 0x60 DUP3 PUSH2 0x13D9 JUMP JUMPDEST MLOAD SWAP1 KECCAK256 DUP1 SWAP2 MSTORE DUP2 ISZERO PUSH2 0x3835 JUMPI MOD PUSH0 DUP1 JUMPDEST DUP4 MLOAD DUP3 LT ISZERO PUSH2 0x37FD JUMPI PUSH2 0xFFFF PUSH2 0x37E2 DUP4 DUP7 PUSH2 0x1D65 JUMP JUMPDEST MLOAD AND ADD SWAP1 DUP2 DUP4 LT PUSH2 0x37F6 JUMPI PUSH1 0x1 ADD SWAP1 PUSH2 0x37CC JUMP JUMPDEST SWAP3 POP POP POP SWAP1 JUMP JUMPDEST PUSH1 0x40 MLOAD PUSH3 0x461BCD PUSH1 0xE5 SHL DUP2 MSTORE PUSH1 0x20 PUSH1 0x4 DUP3 ADD MSTORE PUSH1 0x10 PUSH1 0x24 DUP3 ADD MSTORE PUSH16 0x14D95B1958DD1A5BDB8819985A5B1959 PUSH1 0x82 SHL PUSH1 0x44 DUP3 ADD MSTORE PUSH1 0x64 SWAP1 REVERT JUMPDEST PUSH4 0x4E487B71 PUSH1 0xE0 SHL PUSH0 MSTORE PUSH1 0x12 PUSH1 0x4 MSTORE PUSH1 0x24 PUSH0 REVERT JUMPDEST PUSH4 0x4E487B71 PUSH1 0xE0 SHL PUSH0 MSTORE PUSH1 0x11 PUSH1 0x4 MSTORE PUSH1 0x24 PUSH0 REVERT JUMPDEST PUSH2 0x260 ADD DUP1 MLOAD PUSH1 0x1A DUP2 LT ISZERO PUSH2 0x1E4 JUMPI PUSH1 0xFF PUSH1 0x7 SWAP2 AND LT ISZERO SWAP1 DUP2 PUSH2 0x387E JUMPI POP SWAP1 JUMP JUMPDEST SWAP1 POP MLOAD PUSH1 0x1A DUP2 LT ISZERO PUSH2 0x1E4 JUMPI PUSH1 0xFF PUSH1 0xA SWAP2 AND GT ISZERO SWAP1 JUMP JUMPDEST PUSH2 0x260 ADD MLOAD PUSH1 0x1A DUP2 LT ISZERO PUSH2 0x1E4 JUMPI PUSH1 0x19 EQ SWAP1 JUMP JUMPDEST PUSH2 0x260 ADD MLOAD PUSH1 0x1A DUP2 LT ISZERO PUSH2 0x1E4 JUMPI PUSH1 0x4 EQ SWAP1 JUMP JUMPDEST PUSH2 0x260 ADD MLOAD PUSH1 0x1A DUP2 LT ISZERO PUSH2 0x1E4 JUMPI PUSH1 0x17 EQ SWAP1 JUMP JUMPDEST PUSH2 0x260 ADD MLOAD PUSH1 0x1A DUP2 LT ISZERO PUSH2 0x1E4 JUMPI PUSH1 0x15 EQ SWAP1 JUMP JUMPDEST PUSH2 0x260 ADD MLOAD PUSH1 0x1A DUP2 LT ISZERO PUSH2 0x1E4 JUMPI PUSH1 0x14 EQ SWAP1 JUMP INVALID LOG2 PUSH5 0x6970667358 0x22 SLT KECCAK256 PUSH28 0x37721E724C498EA6FF5BB0ADFAFF8AE22D49CC5B969116709A29DD2 0x2F OR PUSH10 0x64736F6C634300081E00 CALLER "
		},
		"gasEstimates": {
			"creation": {
				"codeDepositCost": "2927800",
				"executionCost": "3221",
				"totalCost": "2931021"
			},
			"external": {
				"selectFemaleChain((uint256,uint256))": "infinite",
				"selectFemaleEarring((uint256,uint256))": "infinite",
				"selectFemaleEyeWear((uint256,uint256))": "infinite",
				"selectFemaleEyes(((uint8,uint8,bool,(uint8,uint8))[],uint8,uint16,uint16,uint32,uint8,uint8,uint8,uint8,uint8,uint8,uint8,uint8,uint8,uint8,uint8,uint8,uint8,uint8,uint8,uint8,uint8,uint8,uint8,uint8,uint8,uint8,uint8,uint8,uint8,uint8),(uint256,uint256))": "infinite",
				"selectFemaleFace(((uint8,uint8,bool,(uint8,uint8))[],uint8,uint16,uint16,uint32,uint8,uint8,uint8,uint8,uint8,uint8,uint8,uint8,uint8,uint8,uint8,uint8,uint8,uint8,uint8,uint8,uint8,uint8,uint8,uint8,uint8,uint8,uint8,uint8,uint8,uint8),(uint256,uint256))": "infinite",
				"selectFemaleHair(((uint8,uint8,bool,(uint8,uint8))[],uint8,uint16,uint16,uint32,uint8,uint8,uint8,uint8,uint8,uint8,uint8,uint8,uint8,uint8,uint8,uint8,uint8,uint8,uint8,uint8,uint8,uint8,uint8,uint8,uint8,uint8,uint8,uint8,uint8,uint8),(uint256,uint256))": "infinite",
				"selectFemaleHatHair(((uint8,uint8,bool,(uint8,uint8))[],uint8,uint16,uint16,uint32,uint8,uint8,uint8,uint8,uint8,uint8,uint8,uint8,uint8,uint8,uint8,uint8,uint8,uint8,uint8,uint8,uint8,uint8,uint8,uint8,uint8,uint8,uint8,uint8,uint8,uint8),(uint256,uint256))": "infinite",
				"selectFemaleHeadwear((uint256,uint256))": "infinite",
				"selectFemaleMask((uint256,uint256))": "infinite",
				"selectFemaleScarf((uint256,uint256))": "infinite",
				"selectFemaleSkin((uint256,uint256))": "infinite"
			}
		},
		"methodIdentifiers": {
			"selectFemaleChain((uint256,uint256))": "29814be5",
			"selectFemaleEarring((uint256,uint256))": "8e57a737",
			"selectFemaleEyeWear((uint256,uint256))": "a063f74f",
			"selectFemaleEyes(((uint8,uint8,bool,(uint8,uint8))[],uint8,uint16,uint16,uint32,uint8,uint8,uint8,uint8,uint8,uint8,uint8,uint8,uint8,uint8,uint8,uint8,uint8,uint8,uint8,uint8,uint8,uint8,uint8,uint8,uint8,uint8,uint8,uint8,uint8,uint8),(uint256,uint256))": "5255e3ce",
			"selectFemaleFace(((uint8,uint8,bool,(uint8,uint8))[],uint8,uint16,uint16,uint32,uint8,uint8,uint8,uint8,uint8,uint8,uint8,uint8,uint8,uint8,uint8,uint8,uint8,uint8,uint8,uint8,uint8,uint8,uint8,uint8,uint8,uint8,uint8,uint8,uint8,uint8),(uint256,uint256))": "3f07a23d",
			"selectFemaleHair(((uint8,uint8,bool,(uint8,uint8))[],uint8,uint16,uint16,uint32,uint8,uint8,uint8,uint8,uint8,uint8,uint8,uint8,uint8,uint8,uint8,uint8,uint8,uint8,uint8,uint8,uint8,uint8,uint8,uint8,uint8,uint8,uint8,uint8,uint8,uint8),(uint256,uint256))": "5a995063",
			"selectFemaleHatHair(((uint8,uint8,bool,(uint8,uint8))[],uint8,uint16,uint16,uint32,uint8,uint8,uint8,uint8,uint8,uint8,uint8,uint8,uint8,uint8,uint8,uint8,uint8,uint8,uint8,uint8,uint8,uint8,uint8,uint8,uint8,uint8,uint8,uint8,uint8,uint8),(uint256,uint256))": "c8ef86a4",
			"selectFemaleHeadwear((uint256,uint256))": "2743c88f",
			"selectFemaleMask((uint256,uint256))": "e0cf503a",
			"selectFemaleScarf((uint256,uint256))": "74953ae2",
			"selectFemaleSkin((uint256,uint256))": "d5a6e660"
		}
	},
	"abi": [
		{
			"inputs": [
				{
					"components": [
						{
							"internalType": "uint256",
							"name": "seed",
							"type": "uint256"
						},
						{
							"internalType": "uint256",
							"name": "counter",
							"type": "uint256"
						}
					],
					"internalType": "struct RandomCtx",
					"name": "rndCtx",
					"type": "tuple"
				}
			],
			"name": "selectFemaleChain",
			"outputs": [
				{
					"internalType": "enum E_Female_Chain",
					"name": "",
					"type": "uint8"
				}
			],
			"stateMutability": "pure",
			"type": "function"
		},
		{
			"inputs": [
				{
					"components": [
						{
							"internalType": "uint256",
							"name": "seed",
							"type": "uint256"
						},
						{
							"internalType": "uint256",
							"name": "counter",
							"type": "uint256"
						}
					],
					"internalType": "struct RandomCtx",
					"name": "rndCtx",
					"type": "tuple"
				}
			],
			"name": "selectFemaleEarring",
			"outputs": [
				{
					"internalType": "enum E_Female_Earring",
					"name": "",
					"type": "uint8"
				}
			],
			"stateMutability": "pure",
			"type": "function"
		},
		{
			"inputs": [
				{
					"components": [
						{
							"internalType": "uint256",
							"name": "seed",
							"type": "uint256"
						},
						{
							"internalType": "uint256",
							"name": "counter",
							"type": "uint256"
						}
					],
					"internalType": "struct RandomCtx",
					"name": "rndCtx",
					"type": "tuple"
				}
			],
			"name": "selectFemaleEyeWear",
			"outputs": [
				{
					"internalType": "enum E_Female_Eye_Wear",
					"name": "",
					"type": "uint8"
				}
			],
			"stateMutability": "pure",
			"type": "function"
		},
		{
			"inputs": [
				{
					"components": [
						{
							"components": [
								{
									"internalType": "enum E_TraitsGroup",
									"name": "traitGroup",
									"type": "uint8"
								},
								{
									"internalType": "uint8",
									"name": "traitIndex",
									"type": "uint8"
								},
								{
									"internalType": "bool",
									"name": "hasFiller",
									"type": "bool"
								},
								{
									"components": [
										{
											"internalType": "enum E_TraitsGroup",
											"name": "traitGroup",
											"type": "uint8"
										},
										{
											"internalType": "uint8",
											"name": "traitIndex",
											"type": "uint8"
										}
									],
									"internalType": "struct FillerTrait",
									"name": "filler",
									"type": "tuple"
								}
							],
							"internalType": "struct TraitToRender[]",
							"name": "traitsToRender",
							"type": "tuple[]"
						},
						{
							"internalType": "uint8",
							"name": "traitsToRenderLength",
							"type": "uint8"
						},
						{
							"internalType": "uint16",
							"name": "tokenIdSeed",
							"type": "uint16"
						},
						{
							"internalType": "uint16",
							"name": "specialId",
							"type": "uint16"
						},
						{
							"internalType": "uint32",
							"name": "birthday",
							"type": "uint32"
						},
						{
							"internalType": "enum E_Sex",
							"name": "sex",
							"type": "uint8"
						},
						{
							"internalType": "enum E_Background",
							"name": "background",
							"type": "uint8"
						},
						{
							"internalType": "enum E_Male_Skin",
							"name": "maleSkin",
							"type": "uint8"
						},
						{
							"internalType": "enum E_Male_Eyes",
							"name": "maleEyes",
							"type": "uint8"
						},
						{
							"internalType": "enum E_Male_Face",
							"name": "maleFace",
							"type": "uint8"
						},
						{
							"internalType": "enum E_Male_Chain",
							"name": "maleChain",
							"type": "uint8"
						},
						{
							"internalType": "enum E_Male_Earring",
							"name": "maleEarring",
							"type": "uint8"
						},
						{
							"internalType": "enum E_Male_Scarf",
							"name": "maleScarf",
							"type": "uint8"
						},
						{
							"internalType": "enum E_Male_Facial_Hair",
							"name": "maleFacialHair",
							"type": "uint8"
						},
						{
							"internalType": "enum E_Male_Mask",
							"name": "maleMask",
							"type": "uint8"
						},
						{
							"internalType": "enum E_Male_Hair",
							"name": "maleHair",
							"type": "uint8"
						},
						{
							"internalType": "enum E_Male_Hat_Hair",
							"name": "maleHatHair",
							"type": "uint8"
						},
						{
							"internalType": "enum E_Male_Headwear",
							"name": "maleHeadwear",
							"type": "uint8"
						},
						{
							"internalType": "enum E_Male_Eye_Wear",
							"name": "maleEyeWear",
							"type": "uint8"
						},
						{
							"internalType": "enum E_Female_Skin",
							"name": "femaleSkin",
							"type": "uint8"
						},
						{
							"internalType": "enum E_Female_Eyes",
							"name": "femaleEyes",
							"type": "uint8"
						},
						{
							"internalType": "enum E_Female_Face",
							"name": "femaleFace",
							"type": "uint8"
						},
						{
							"internalType": "enum E_Female_Chain",
							"name": "femaleChain",
							"type": "uint8"
						},
						{
							"internalType": "enum E_Female_Earring",
							"name": "femaleEarring",
							"type": "uint8"
						},
						{
							"internalType": "enum E_Female_Scarf",
							"name": "femaleScarf",
							"type": "uint8"
						},
						{
							"internalType": "enum E_Female_Mask",
							"name": "femaleMask",
							"type": "uint8"
						},
						{
							"internalType": "enum E_Female_Hair",
							"name": "femaleHair",
							"type": "uint8"
						},
						{
							"internalType": "enum E_Female_Hat_Hair",
							"name": "femaleHatHair",
							"type": "uint8"
						},
						{
							"internalType": "enum E_Female_Headwear",
							"name": "femaleHeadwear",
							"type": "uint8"
						},
						{
							"internalType": "enum E_Female_Eye_Wear",
							"name": "femaleEyeWear",
							"type": "uint8"
						},
						{
							"internalType": "enum E_Mouth",
							"name": "mouth",
							"type": "uint8"
						}
					],
					"internalType": "struct TraitsContext",
					"name": "traits",
					"type": "tuple"
				},
				{
					"components": [
						{
							"internalType": "uint256",
							"name": "seed",
							"type": "uint256"
						},
						{
							"internalType": "uint256",
							"name": "counter",
							"type": "uint256"
						}
					],
					"internalType": "struct RandomCtx",
					"name": "rndCtx",
					"type": "tuple"
				}
			],
			"name": "selectFemaleEyes",
			"outputs": [
				{
					"internalType": "enum E_Female_Eyes",
					"name": "",
					"type": "uint8"
				}
			],
			"stateMutability": "pure",
			"type": "function"
		},
		{
			"inputs": [
				{
					"components": [
						{
							"components": [
								{
									"internalType": "enum E_TraitsGroup",
									"name": "traitGroup",
									"type": "uint8"
								},
								{
									"internalType": "uint8",
									"name": "traitIndex",
									"type": "uint8"
								},
								{
									"internalType": "bool",
									"name": "hasFiller",
									"type": "bool"
								},
								{
									"components": [
										{
											"internalType": "enum E_TraitsGroup",
											"name": "traitGroup",
											"type": "uint8"
										},
										{
											"internalType": "uint8",
											"name": "traitIndex",
											"type": "uint8"
										}
									],
									"internalType": "struct FillerTrait",
									"name": "filler",
									"type": "tuple"
								}
							],
							"internalType": "struct TraitToRender[]",
							"name": "traitsToRender",
							"type": "tuple[]"
						},
						{
							"internalType": "uint8",
							"name": "traitsToRenderLength",
							"type": "uint8"
						},
						{
							"internalType": "uint16",
							"name": "tokenIdSeed",
							"type": "uint16"
						},
						{
							"internalType": "uint16",
							"name": "specialId",
							"type": "uint16"
						},
						{
							"internalType": "uint32",
							"name": "birthday",
							"type": "uint32"
						},
						{
							"internalType": "enum E_Sex",
							"name": "sex",
							"type": "uint8"
						},
						{
							"internalType": "enum E_Background",
							"name": "background",
							"type": "uint8"
						},
						{
							"internalType": "enum E_Male_Skin",
							"name": "maleSkin",
							"type": "uint8"
						},
						{
							"internalType": "enum E_Male_Eyes",
							"name": "maleEyes",
							"type": "uint8"
						},
						{
							"internalType": "enum E_Male_Face",
							"name": "maleFace",
							"type": "uint8"
						},
						{
							"internalType": "enum E_Male_Chain",
							"name": "maleChain",
							"type": "uint8"
						},
						{
							"internalType": "enum E_Male_Earring",
							"name": "maleEarring",
							"type": "uint8"
						},
						{
							"internalType": "enum E_Male_Scarf",
							"name": "maleScarf",
							"type": "uint8"
						},
						{
							"internalType": "enum E_Male_Facial_Hair",
							"name": "maleFacialHair",
							"type": "uint8"
						},
						{
							"internalType": "enum E_Male_Mask",
							"name": "maleMask",
							"type": "uint8"
						},
						{
							"internalType": "enum E_Male_Hair",
							"name": "maleHair",
							"type": "uint8"
						},
						{
							"internalType": "enum E_Male_Hat_Hair",
							"name": "maleHatHair",
							"type": "uint8"
						},
						{
							"internalType": "enum E_Male_Headwear",
							"name": "maleHeadwear",
							"type": "uint8"
						},
						{
							"internalType": "enum E_Male_Eye_Wear",
							"name": "maleEyeWear",
							"type": "uint8"
						},
						{
							"internalType": "enum E_Female_Skin",
							"name": "femaleSkin",
							"type": "uint8"
						},
						{
							"internalType": "enum E_Female_Eyes",
							"name": "femaleEyes",
							"type": "uint8"
						},
						{
							"internalType": "enum E_Female_Face",
							"name": "femaleFace",
							"type": "uint8"
						},
						{
							"internalType": "enum E_Female_Chain",
							"name": "femaleChain",
							"type": "uint8"
						},
						{
							"internalType": "enum E_Female_Earring",
							"name": "femaleEarring",
							"type": "uint8"
						},
						{
							"internalType": "enum E_Female_Scarf",
							"name": "femaleScarf",
							"type": "uint8"
						},
						{
							"internalType": "enum E_Female_Mask",
							"name": "femaleMask",
							"type": "uint8"
						},
						{
							"internalType": "enum E_Female_Hair",
							"name": "femaleHair",
							"type": "uint8"
						},
						{
							"internalType": "enum E_Female_Hat_Hair",
							"name": "femaleHatHair",
							"type": "uint8"
						},
						{
							"internalType": "enum E_Female_Headwear",
							"name": "femaleHeadwear",
							"type": "uint8"
						},
						{
							"internalType": "enum E_Female_Eye_Wear",
							"name": "femaleEyeWear",
							"type": "uint8"
						},
						{
							"internalType": "enum E_Mouth",
							"name": "mouth",
							"type": "uint8"
						}
					],
					"internalType": "struct TraitsContext",
					"name": "traits",
					"type": "tuple"
				},
				{
					"components": [
						{
							"internalType": "uint256",
							"name": "seed",
							"type": "uint256"
						},
						{
							"internalType": "uint256",
							"name": "counter",
							"type": "uint256"
						}
					],
					"internalType": "struct RandomCtx",
					"name": "rndCtx",
					"type": "tuple"
				}
			],
			"name": "selectFemaleFace",
			"outputs": [
				{
					"internalType": "enum E_Female_Face",
					"name": "",
					"type": "uint8"
				}
			],
			"stateMutability": "pure",
			"type": "function"
		},
		{
			"inputs": [
				{
					"components": [
						{
							"components": [
								{
									"internalType": "enum E_TraitsGroup",
									"name": "traitGroup",
									"type": "uint8"
								},
								{
									"internalType": "uint8",
									"name": "traitIndex",
									"type": "uint8"
								},
								{
									"internalType": "bool",
									"name": "hasFiller",
									"type": "bool"
								},
								{
									"components": [
										{
											"internalType": "enum E_TraitsGroup",
											"name": "traitGroup",
											"type": "uint8"
										},
										{
											"internalType": "uint8",
											"name": "traitIndex",
											"type": "uint8"
										}
									],
									"internalType": "struct FillerTrait",
									"name": "filler",
									"type": "tuple"
								}
							],
							"internalType": "struct TraitToRender[]",
							"name": "traitsToRender",
							"type": "tuple[]"
						},
						{
							"internalType": "uint8",
							"name": "traitsToRenderLength",
							"type": "uint8"
						},
						{
							"internalType": "uint16",
							"name": "tokenIdSeed",
							"type": "uint16"
						},
						{
							"internalType": "uint16",
							"name": "specialId",
							"type": "uint16"
						},
						{
							"internalType": "uint32",
							"name": "birthday",
							"type": "uint32"
						},
						{
							"internalType": "enum E_Sex",
							"name": "sex",
							"type": "uint8"
						},
						{
							"internalType": "enum E_Background",
							"name": "background",
							"type": "uint8"
						},
						{
							"internalType": "enum E_Male_Skin",
							"name": "maleSkin",
							"type": "uint8"
						},
						{
							"internalType": "enum E_Male_Eyes",
							"name": "maleEyes",
							"type": "uint8"
						},
						{
							"internalType": "enum E_Male_Face",
							"name": "maleFace",
							"type": "uint8"
						},
						{
							"internalType": "enum E_Male_Chain",
							"name": "maleChain",
							"type": "uint8"
						},
						{
							"internalType": "enum E_Male_Earring",
							"name": "maleEarring",
							"type": "uint8"
						},
						{
							"internalType": "enum E_Male_Scarf",
							"name": "maleScarf",
							"type": "uint8"
						},
						{
							"internalType": "enum E_Male_Facial_Hair",
							"name": "maleFacialHair",
							"type": "uint8"
						},
						{
							"internalType": "enum E_Male_Mask",
							"name": "maleMask",
							"type": "uint8"
						},
						{
							"internalType": "enum E_Male_Hair",
							"name": "maleHair",
							"type": "uint8"
						},
						{
							"internalType": "enum E_Male_Hat_Hair",
							"name": "maleHatHair",
							"type": "uint8"
						},
						{
							"internalType": "enum E_Male_Headwear",
							"name": "maleHeadwear",
							"type": "uint8"
						},
						{
							"internalType": "enum E_Male_Eye_Wear",
							"name": "maleEyeWear",
							"type": "uint8"
						},
						{
							"internalType": "enum E_Female_Skin",
							"name": "femaleSkin",
							"type": "uint8"
						},
						{
							"internalType": "enum E_Female_Eyes",
							"name": "femaleEyes",
							"type": "uint8"
						},
						{
							"internalType": "enum E_Female_Face",
							"name": "femaleFace",
							"type": "uint8"
						},
						{
							"internalType": "enum E_Female_Chain",
							"name": "femaleChain",
							"type": "uint8"
						},
						{
							"internalType": "enum E_Female_Earring",
							"name": "femaleEarring",
							"type": "uint8"
						},
						{
							"internalType": "enum E_Female_Scarf",
							"name": "femaleScarf",
							"type": "uint8"
						},
						{
							"internalType": "enum E_Female_Mask",
							"name": "femaleMask",
							"type": "uint8"
						},
						{
							"internalType": "enum E_Female_Hair",
							"name": "femaleHair",
							"type": "uint8"
						},
						{
							"internalType": "enum E_Female_Hat_Hair",
							"name": "femaleHatHair",
							"type": "uint8"
						},
						{
							"internalType": "enum E_Female_Headwear",
							"name": "femaleHeadwear",
							"type": "uint8"
						},
						{
							"internalType": "enum E_Female_Eye_Wear",
							"name": "femaleEyeWear",
							"type": "uint8"
						},
						{
							"internalType": "enum E_Mouth",
							"name": "mouth",
							"type": "uint8"
						}
					],
					"internalType": "struct TraitsContext",
					"name": "traits",
					"type": "tuple"
				},
				{
					"components": [
						{
							"internalType": "uint256",
							"name": "seed",
							"type": "uint256"
						},
						{
							"internalType": "uint256",
							"name": "counter",
							"type": "uint256"
						}
					],
					"internalType": "struct RandomCtx",
					"name": "rndCtx",
					"type": "tuple"
				}
			],
			"name": "selectFemaleHair",
			"outputs": [
				{
					"internalType": "enum E_Female_Hair",
					"name": "",
					"type": "uint8"
				}
			],
			"stateMutability": "pure",
			"type": "function"
		},
		{
			"inputs": [
				{
					"components": [
						{
							"components": [
								{
									"internalType": "enum E_TraitsGroup",
									"name": "traitGroup",
									"type": "uint8"
								},
								{
									"internalType": "uint8",
									"name": "traitIndex",
									"type": "uint8"
								},
								{
									"internalType": "bool",
									"name": "hasFiller",
									"type": "bool"
								},
								{
									"components": [
										{
											"internalType": "enum E_TraitsGroup",
											"name": "traitGroup",
											"type": "uint8"
										},
										{
											"internalType": "uint8",
											"name": "traitIndex",
											"type": "uint8"
										}
									],
									"internalType": "struct FillerTrait",
									"name": "filler",
									"type": "tuple"
								}
							],
							"internalType": "struct TraitToRender[]",
							"name": "traitsToRender",
							"type": "tuple[]"
						},
						{
							"internalType": "uint8",
							"name": "traitsToRenderLength",
							"type": "uint8"
						},
						{
							"internalType": "uint16",
							"name": "tokenIdSeed",
							"type": "uint16"
						},
						{
							"internalType": "uint16",
							"name": "specialId",
							"type": "uint16"
						},
						{
							"internalType": "uint32",
							"name": "birthday",
							"type": "uint32"
						},
						{
							"internalType": "enum E_Sex",
							"name": "sex",
							"type": "uint8"
						},
						{
							"internalType": "enum E_Background",
							"name": "background",
							"type": "uint8"
						},
						{
							"internalType": "enum E_Male_Skin",
							"name": "maleSkin",
							"type": "uint8"
						},
						{
							"internalType": "enum E_Male_Eyes",
							"name": "maleEyes",
							"type": "uint8"
						},
						{
							"internalType": "enum E_Male_Face",
							"name": "maleFace",
							"type": "uint8"
						},
						{
							"internalType": "enum E_Male_Chain",
							"name": "maleChain",
							"type": "uint8"
						},
						{
							"internalType": "enum E_Male_Earring",
							"name": "maleEarring",
							"type": "uint8"
						},
						{
							"internalType": "enum E_Male_Scarf",
							"name": "maleScarf",
							"type": "uint8"
						},
						{
							"internalType": "enum E_Male_Facial_Hair",
							"name": "maleFacialHair",
							"type": "uint8"
						},
						{
							"internalType": "enum E_Male_Mask",
							"name": "maleMask",
							"type": "uint8"
						},
						{
							"internalType": "enum E_Male_Hair",
							"name": "maleHair",
							"type": "uint8"
						},
						{
							"internalType": "enum E_Male_Hat_Hair",
							"name": "maleHatHair",
							"type": "uint8"
						},
						{
							"internalType": "enum E_Male_Headwear",
							"name": "maleHeadwear",
							"type": "uint8"
						},
						{
							"internalType": "enum E_Male_Eye_Wear",
							"name": "maleEyeWear",
							"type": "uint8"
						},
						{
							"internalType": "enum E_Female_Skin",
							"name": "femaleSkin",
							"type": "uint8"
						},
						{
							"internalType": "enum E_Female_Eyes",
							"name": "femaleEyes",
							"type": "uint8"
						},
						{
							"internalType": "enum E_Female_Face",
							"name": "femaleFace",
							"type": "uint8"
						},
						{
							"internalType": "enum E_Female_Chain",
							"name": "femaleChain",
							"type": "uint8"
						},
						{
							"internalType": "enum E_Female_Earring",
							"name": "femaleEarring",
							"type": "uint8"
						},
						{
							"internalType": "enum E_Female_Scarf",
							"name": "femaleScarf",
							"type": "uint8"
						},
						{
							"internalType": "enum E_Female_Mask",
							"name": "femaleMask",
							"type": "uint8"
						},
						{
							"internalType": "enum E_Female_Hair",
							"name": "femaleHair",
							"type": "uint8"
						},
						{
							"internalType": "enum E_Female_Hat_Hair",
							"name": "femaleHatHair",
							"type": "uint8"
						},
						{
							"internalType": "enum E_Female_Headwear",
							"name": "femaleHeadwear",
							"type": "uint8"
						},
						{
							"internalType": "enum E_Female_Eye_Wear",
							"name": "femaleEyeWear",
							"type": "uint8"
						},
						{
							"internalType": "enum E_Mouth",
							"name": "mouth",
							"type": "uint8"
						}
					],
					"internalType": "struct TraitsContext",
					"name": "traits",
					"type": "tuple"
				},
				{
					"components": [
						{
							"internalType": "uint256",
							"name": "seed",
							"type": "uint256"
						},
						{
							"internalType": "uint256",
							"name": "counter",
							"type": "uint256"
						}
					],
					"internalType": "struct RandomCtx",
					"name": "rndCtx",
					"type": "tuple"
				}
			],
			"name": "selectFemaleHatHair",
			"outputs": [
				{
					"internalType": "enum E_Female_Hat_Hair",
					"name": "",
					"type": "uint8"
				}
			],
			"stateMutability": "pure",
			"type": "function"
		},
		{
			"inputs": [
				{
					"components": [
						{
							"internalType": "uint256",
							"name": "seed",
							"type": "uint256"
						},
						{
							"internalType": "uint256",
							"name": "counter",
							"type": "uint256"
						}
					],
					"internalType": "struct RandomCtx",
					"name": "rndCtx",
					"type": "tuple"
				}
			],
			"name": "selectFemaleHeadwear",
			"outputs": [
				{
					"internalType": "enum E_Female_Headwear",
					"name": "",
					"type": "uint8"
				}
			],
			"stateMutability": "pure",
			"type": "function"
		},
		{
			"inputs": [
				{
					"components": [
						{
							"internalType": "uint256",
							"name": "seed",
							"type": "uint256"
						},
						{
							"internalType": "uint256",
							"name": "counter",
							"type": "uint256"
						}
					],
					"internalType": "struct RandomCtx",
					"name": "rndCtx",
					"type": "tuple"
				}
			],
			"name": "selectFemaleMask",
			"outputs": [
				{
					"internalType": "enum E_Female_Mask",
					"name": "",
					"type": "uint8"
				}
			],
			"stateMutability": "pure",
			"type": "function"
		},
		{
			"inputs": [
				{
					"components": [
						{
							"internalType": "uint256",
							"name": "seed",
							"type": "uint256"
						},
						{
							"internalType": "uint256",
							"name": "counter",
							"type": "uint256"
						}
					],
					"internalType": "struct RandomCtx",
					"name": "rndCtx",
					"type": "tuple"
				}
			],
			"name": "selectFemaleScarf",
			"outputs": [
				{
					"internalType": "enum E_Female_Scarf",
					"name": "",
					"type": "uint8"
				}
			],
			"stateMutability": "pure",
			"type": "function"
		},
		{
			"inputs": [
				{
					"components": [
						{
							"internalType": "uint256",
							"name": "seed",
							"type": "uint256"
						},
						{
							"internalType": "uint256",
							"name": "counter",
							"type": "uint256"
						}
					],
					"internalType": "struct RandomCtx",
					"name": "rndCtx",
					"type": "tuple"
				}
			],
			"name": "selectFemaleSkin",
			"outputs": [
				{
					"internalType": "enum E_Female_Skin",
					"name": "",
					"type": "uint8"
				}
			],
			"stateMutability": "pure",
			"type": "function"
		}
	]
}