{
	"data": {
		"bytecode": {
			"linkReferences": {},
			"object": "60808060405234601557613918908161001a8239f35b5f80fdfe60806040526004361015610011575f80fd5b5f3560e01c80632743c88f14610d2857806329814be514610b6a57806340aba8db14610cfe578063660a197a14610cd457806374953ae214610c585780637829af6914610c2e5780638e57a73714610b6a578063a063f74f14610557578063d5a6e660146103cf578063e0cf503a146102835763f17076c714610092575f80fd5b3461027f576100f96100a336611422565b6100d56100d061040093604051946100bb81876113ce565b601f8652601f19013660208701373690611d8b565b613861565b15610121576113886100e6836116c8565b526113886100f3836116d9565b52613750565b601f81101561010d57602090604051908152f35b634e487b7160e01b5f52602160045260245ffd5b5f61012b8361147b565b5261101d610138836116ea565b5261101d61014583611ae5565b526101f461015283611546565b526101f461015f83611557565b5260fa61016b836117e9565b52607d61017783611af6565b5260646101838361159b565b52604b61018f83611568565b52603261019b83611a1a565b52601e6101a7836117fa565b52601e6101b38361180b565b52601e6101bf8361181c565b52601e6101cb83611673565b52601e6101d783611684565b52601e6101e383611695565b52601e6101ef836116a6565b52601e6101fb836116b7565b52600b610207836115ab565b52600b610213836115bb565b52600b61021f836115cb565b52600b61022b836115db565b52600b61023783611794565b52600b610243836117a5565b52600b61024f836117b6565b52600b61025b836117c7565b52600b610267836117d8565b526019610273836116fb565b5260196100f383611ad4565b5f80fd5b3461027f57604036600319011261027f576103bb6102a0366113f0565b604051906102c06102b181846113ce565b60158352601f190136602084013761253f6102cb8361147b565b5260286102d78361180b565b5260196102e3836115db565b5260196102ef83611794565b5260196102fb836117a5565b526019610307836117b6565b526019610313836117c7565b52601961031f836117d8565b52601961032b836117e9565b526019610337836117fa565b52601e61034383611a1a565b52601e61034f8361159b565b52601e61035b836115ab565b52601e610367836115bb565b52600a61037383611673565b52600a61037f83611684565b52600a61038b83611695565b52600a610397836116a6565b52600a6103a3836116b7565b52601e6103af836115cb565b52600f6100f38361181c565b601581101561010d57602090604051908152f35b3461027f57604036600319011261027f576105436103ec366113f0565b604051906103606103fd81846113ce565b601a8352601f19013660208401376102ee61041783611794565b526102ee610424836117d8565b526102ee610431836117e9565b526102ee61043e836117fa565b526102ee61044b8361180b565b526102ee6104588361181c565b526102ee61046583611673565b526102ee61047283611684565b526102ee61047f83611695565b526102ee61048c836117a5565b526102ee610499836117b6565b526102ee6104a6836117c7565b5261012c6104b383611ad4565b5260e16104bf8361159b565b5260966104cb836116fb565b52605a6104d7836116c8565b5260416104e3836115cb565b52602d6104ef836115bb565b5260196104fb83611a1a565b526019610507836116b7565b526016610513836116d9565b52601461051f836115db565b52600f61052b836115ab565b52600a610537836116ea565b5260086100f3836116a6565b601a81101561010d57602090604051908152f35b3461027f57604036600319011261027f57610b56610574366113f0565b60405190610f6061058581846113ce565b607a8352601f19013660208401376103c861059f8361147b565b526102746105ac83611b5c565b5260406105b883611cf4565b5260406105c4836118d7565b5260406105d0836118e8565b5260406105dc836118f9565b5260406105e88361190a565b5260406105f48361191b565b5260406106008361192c565b52604061060c8361193d565b5260406106188361194e565b52604061062483611a4c565b52604061063083611c06565b52604061063c83611c17565b52604061064883611c28565b52604061065483611c39565b52604061066083611c4a565b52604061066c83611bf5565b52604061067883611a2a565b52604061068483611a3b565b5261023a61069183611bb1565b5261023061069e83611b3a565b5260326106aa83611662565b5260326106b68361149c565b5260326106c2836114ad565b5260326106ce836114be565b5260326106da836114cf565b5260326106e6836114e0565b5260326106f2836114f1565b5260326106fe83611502565b52603261070a83611513565b52603261071683611524565b52603261072283611535565b5261021c61072f83611a7f565b52602e61073b8361181c565b52602e61074783611673565b52602e61075383611684565b52602e61075f83611695565b52602e61076b836116a6565b52602e610777836116b7565b52602e610783836116c8565b52602e61078f836116d9565b52602e61079b836116ea565b52602e6107a7836116fb565b52602e6107b383611ad4565b526101db6107c083611a1a565b526101db6107cd83611be4565b526101a96107da8361195f565b526101906107e783611860565b52603e6107f383611871565b52603e6107ff83611882565b52603e61080b83611b6d565b52603e61081783611b7e565b52603e61082383611b8f565b52603e61082f83611ba0565b5261015b61083c83611ce3565b5261013d61084983611a90565b5261011861085683611a6e565b5260e161086283611d27565b52601c61086e83611aa1565b52601c61087a83611ab2565b52601c61088683611d16565b52601c61089283611d05565b52601c61089e8361182d565b52601c6108aa8361183e565b52601c6108b68361184f565b5260146108c283611ae5565b5260146108ce83611af6565b5260146108da83611546565b5260146108e683611557565b5260146108f283611568565b5260146108fe83611579565b52601461090a8361158a565b52601461091683611ac3565b52602161092283611bc2565b52602161092e83611893565b52602161093a836118a4565b526021610946836118b5565b5260166109528361159b565b52601661095e836115ab565b52601661096a836115bb565b526016610976836115cb565b526016610982836115db565b52600a61098e83611794565b52600a61099a836117a5565b52600a6109a6836117b6565b52600a6109b2836117c7565b52600a6109be836117d8565b52600a6109ca836117e9565b52600a6109d6836117fa565b52600a6109e28361180b565b5260456109ee83611b4b565b5260056109fa836118c6565b526005610a0683611992565b526005610a128361170c565b526005610a1e8361171d565b526005610a2a8361172e565b526005610a368361173f565b526005610a4283611750565b526005610a4e83611761565b526005610a5a83611772565b526005610a66836119a3565b526005610a72836119b4565b526005610a7e836119c5565b526005610a8a836119d6565b526005610a96836119e7565b526005610aa2836119f8565b526005610aae83611a09565b526005610aba83611bd3565b526003610ac683611970565b526003610ad283611981565b526003610ade836115eb565b526003610aea836115fc565b526003610af68361160d565b526003610b028361161e565b526003610b0e8361162f565b526003610b1a83611640565b526003610b2683611651565b526017610b3283611a5d565b526004610b3e83611b29565b526003610b4a83611b07565b5260036100f383611b18565b607a81101561010d57602090604051908152f35b3461027f57604036600319011261027f576020610c14610b89366113f0565b60405190610140610b9a81846113ce565b60098352601f19013685840137612328610bb38361147b565b5261015e610bc0836115cb565b5260fa610bcc83611a1a565b52608c610bd8836115bb565b526064610be4836117a5565b52604b610bf0836115ab565b526032610bfc83611794565b526019610c088361159b565b52600a6100f3836115db565b610c1d81611418565b60405190610c2a81611418565b8152f35b3461027f57610c45610c3f36611422565b906133cf565b604051601382101561010d576020918152f35b3461027f57604036600319011261027f57610cc0610c75366113f0565b60405190610c8460a0836113ce565b6004825260803660208401376126ac610c9c8361147b565b526028610ca883611a1a565b52601e610cb48361159b565b52601e6100f3836115ab565b600481101561010d57602090604051908152f35b3461027f57610ceb610ce536611422565b90612862565b60405160c382101561010d576020918152f35b3461027f57610d15610d0f36611422565b90612147565b604051608582101561010d576020918152f35b3461027f57604036600319011261027f5761138a610d45366113f0565b60405190611080610d5681846113ce565b60838352601f1901366020840137610367610d708361147b565b526055610d7c8361149c565b526055610d88836114ad565b526055610d94836114be565b526055610da0836114cf565b526055610dac836114e0565b526055610db8836114f1565b526055610dc483611502565b526055610dd083611513565b526055610ddc83611524565b526055610de883611535565b526096610df483611546565b526096610e0083611557565b526096610e0c83611568565b526096610e1883611579565b526096610e248361158a565b526092610e308361159b565b526092610e3c836115ab565b526092610e48836115bb565b526092610e54836115cb565b526092610e60836115db565b52605a610e6c836115eb565b52605a610e78836115fc565b52605a610e848361160d565b52605a610e908361161e565b52605a610e9c8361162f565b52605a610ea883611640565b52605a610eb483611651565b52605a610ec083611662565b526050610ecc83611673565b526050610ed883611684565b526050610ee483611695565b526050610ef0836116a6565b526050610efc836116b7565b526050610f08836116c8565b526050610f14836116d9565b526050610f20836116ea565b526050610f2c836116fb565b526057610f388361170c565b526057610f448361171d565b526057610f508361172e565b526057610f5c8361173f565b526057610f6883611750565b526057610f7483611761565b526057610f8083611772565b526057610f8c83611783565b526049610f9883611794565b526049610fa4836117a5565b526049610fb0836117b6565b526049610fbc836117c7565b526049610fc8836117d8565b526049610fd4836117e9565b526049610fe0836117fa565b526049610fec8361180b565b526049610ff88361181c565b526101776110058361182d565b52604a6110118361183e565b52604a61101d8361184f565b52604a61102983611860565b52604a61103583611871565b52604a61104183611882565b52605b61104d83611893565b52605b611059836118a4565b52605b611065836118b5565b52605b611071836118c6565b52602c61107d836118d7565b52602c611089836118e8565b52602c611095836118f9565b52602c6110a18361190a565b52602c6110ad8361191b565b52602c6110b98361192c565b52602c6110c58361193d565b52602c6110d18361194e565b5260746110dd8361195f565b5260746110e983611970565b5260746110f583611981565b5261015461110283611992565b52603061110e836119a3565b52603061111a836119b4565b526030611126836119c5565b526030611132836119d6565b52603061113e836119e7565b52603061114a836119f8565b52603061115683611a09565b5260e161116283611a1a565b52601861116e83611a2a565b52601861117a83611a3b565b52601861118683611a4c565b52601861119283611a5d565b52601861119e83611a6e565b5260186111aa83611a7f565b5260186111b683611a90565b5260186111c283611aa1565b5260186111ce83611ab2565b5260c86111da83611ac3565b5260406111e683611ad4565b5260406111f283611ae5565b5260406111fe83611af6565b52603261120a83611b07565b52603261121683611b18565b52603261122283611b29565b52604b61122e83611b3a565b52602861123a83611b4b565b52601961124683611b5c565b52604161125283611b6d565b52600f61125e83611b7e565b52600f61126a83611b8f565b52600f61127683611ba0565b52600f61128283611bb1565b52603761128e83611bc2565b52603261129a83611bd3565b5260066112a683611be4565b5260066112b283611bf5565b5260066112be83611c06565b5260066112ca83611c17565b5260066112d683611c28565b5260066112e283611c39565b5260066112ee83611c4a565b5260056112fa83611c5b565b52600561130683611c6c565b52600561131283611c7d565b52600561131e83611c8e565b52600561132a83611c9f565b52600561133683611cb0565b52600561134283611cc1565b52600561134e83611cd2565b52601961135a83611ce3565b52600a61136683611cf4565b52601e61137283611d05565b52600f61137e83611d16565b5260036100f383611d27565b608381101561010d57602090604051908152f35b6040810190811067ffffffffffffffff8211176113ba57604052565b634e487b7160e01b5f52604160045260245ffd5b90601f8019910116810190811067ffffffffffffffff8211176113ba57604052565b604090600319011261027f57604051906114098261139e565b60043582526024356020830152565b6009111561010d57565b90606060031983011261027f5760043567ffffffffffffffff811161027f57610400818403600319011261027f57602460409160040193031261027f5760405161146b8161139e565b6024358152604435602082015290565b8051156114885760200190565b634e487b7160e01b5f52603260045260245ffd5b80516059101561148857610b400190565b8051605a101561148857610b600190565b8051605b101561148857610b800190565b8051605c101561148857610ba00190565b8051605d101561148857610bc00190565b8051605e101561148857610be00190565b8051605f101561148857610c000190565b80516060101561148857610c200190565b80516061101561148857610c400190565b80516062101561148857610c600190565b8051601c1015611488576103a00190565b8051601d1015611488576103c00190565b8051601e1015611488576103e00190565b8051601f1015611488576104000190565b805160201015611488576104200190565b8051600210156114885760600190565b8051600310156114885760800190565b8051600410156114885760a00190565b8051600510156114885760c00190565b8051600610156114885760e00190565b80516051101561148857610a400190565b80516052101561148857610a600190565b80516053101561148857610a800190565b80516054101561148857610aa00190565b80516055101561148857610ac00190565b80516056101561148857610ae00190565b80516057101561148857610b000190565b80516058101561148857610b200190565b805160101015611488576102200190565b805160111015611488576102400190565b805160121015611488576102600190565b805160131015611488576102800190565b805160141015611488576102a00190565b805160151015611488576102c00190565b805160161015611488576102e00190565b805160171015611488576103000190565b805160181015611488576103200190565b80516073101561148857610e800190565b80516074101561148857610ea00190565b80516075101561148857610ec00190565b80516076101561148857610ee00190565b80516077101561148857610f000190565b80516078101561148857610f200190565b80516079101561148857610f400190565b8051607a101561148857610f600190565b805160071015611488576101000190565b805160081015611488576101200190565b805160091015611488576101400190565b8051600a1015611488576101600190565b8051600b1015611488576101800190565b8051600c1015611488576101a00190565b8051600d1015611488576101c00190565b8051600e1015611488576101e00190565b8051600f1015611488576102000190565b805160341015611488576106a00190565b805160351015611488576106c00190565b805160361015611488576106e00190565b805160371015611488576107000190565b805160381015611488576107200190565b805160391015611488576107400190565b8051606e101561148857610de00190565b8051606f101561148857610e000190565b80516070101561148857610e200190565b80516071101561148857610e400190565b80516063101561148857610c800190565b80516064101561148857610ca00190565b80516065101561148857610cc00190565b80516066101561148857610ce00190565b80516067101561148857610d000190565b80516068101561148857610d200190565b80516069101561148857610d400190565b8051606a101561148857610d600190565b8051604e1015611488576109e00190565b8051604f101561148857610a000190565b80516050101561148857610a200190565b80516072101561148857610e600190565b805160421015611488576108600190565b805160431015611488576108800190565b805160441015611488576108a00190565b805160451015611488576108c00190565b805160461015611488576108e00190565b805160471015611488576109000190565b805160481015611488576109200190565b8051600110156114885760400190565b805160291015611488576105400190565b8051602a1015611488576105600190565b8051602b1015611488576105800190565b8051602c1015611488576105a00190565b8051602d1015611488576105c00190565b8051602e1015611488576105e00190565b8051602f1015611488576106000190565b805160301015611488576106200190565b805160311015611488576106400190565b805160211015611488576104400190565b805160191015611488576103400190565b8051601a1015611488576103600190565b8051601b1015611488576103800190565b8051603f1015611488576108000190565b805160401015611488576108200190565b805160411015611488576108400190565b8051604a1015611488576109600190565b8051604c1015611488576109a00190565b8051604d1015611488576109c00190565b8051603a1015611488576107600190565b8051603b1015611488576107800190565b8051603c1015611488576107a00190565b8051603d1015611488576107c00190565b8051603e1015611488576107e00190565b8051606d101561148857610dc00190565b805160491015611488576109400190565b805160221015611488576104600190565b805160281015611488576105200190565b805160231015611488576104800190565b805160241015611488576104a00190565b805160251015611488576104c00190565b805160261015611488576104e00190565b805160271015611488576105000190565b8051607b101561148857610f800190565b8051607c101561148857610fa00190565b8051607d101561148857610fc00190565b8051607e101561148857610fe00190565b8051607f1015611488576110000190565b805160801015611488576110200190565b805160811015611488576110400190565b805160821015611488576110600190565b8051606c101561148857610da00190565b8051606b101561148857610d800190565b805160331015611488576106800190565b805160321015611488576106600190565b8051604b1015611488576109800190565b805160841015611488576110a00190565b805160831015611488576110800190565b80518210156114885760209160051b010190565b359060ff8216820361027f57565b359061ffff8216820361027f57565b9190916104008184031261027f5760405190610400820182811067ffffffffffffffff8211176113ba576040528193813567ffffffffffffffff811161027f57820181601f8201121561027f5780359067ffffffffffffffff82116113ba5760208260051b0192611dff60405194856113ce565b828452602060a081860194028301019181831161027f57602001925b82841061209d57505050508252611e3460208201611d6e565b6020830152611e4560408201611d7c565b604083015260608101356060830152611e6060808201611d7c565b608083015260a081013563ffffffff8116810361027f5760a083015260c0810135600281101561027f5760c083015260e0810135600681101561027f5760e0830152610100810135601d81101561027f57610100830152610120810135601781101561027f57610120830152610140810135601481101561027f57610140830152610160810135600981101561027f57610160830152610180810135600981101561027f576101808301526101a0810135600481101561027f576101a08301526101c0810135605881101561027f576101c08301526101e0810135601681101561027f576101e083015261020081013560d481101561027f57610200830152610220810135606a81101561027f5761022083015261024081013560a981101561027f57610240830152610260810135608081101561027f57610260830152610280810135601a81101561027f576102808301526102a0810135601f81101561027f576102a08301526102c0810135601381101561027f576102c08301526102e0810135600981101561027f576102e0830152610300810135600981101561027f57610300830152610320810135600481101561027f57610320830152610340810135601581101561027f5761034083015261036081013560c381101561027f57610360830152610380810135608581101561027f576103808301526103a0810135608381101561027f576103a08301526103c081013590607a82101561027f576103e0916103c0840152013590601782101561027f576103e00152565b83820360a0811261027f57604051906080820182811067ffffffffffffffff8211176113ba576040528535601b81101561027f5782526120df60208701611d6e565b6020830152604086013590811515820361027f5760409182840152605f19011261027f57604051916121108361139e565b606086013591601b83101561027f578360209360a0955261213360808901611d6e565b848201526060820152815201930192611e1b565b604051906110c061215881846113ce565b60858352601f19013660208401376121786121733683611d8b565b6137d9565b801561284a575b156127d257506127c6916101906121958361147b565b525b60e16121a283611a1a565b5260966121ae836115bb565b52607d6121ba8361159b565b5260646121c6836115cb565b52604b6121d2836117e9565b5260216121de836115ab565b5260206121ea836115db565b5260206121f683611794565b526020612202836117a5565b52602061220e836117b6565b52602061221a836117c7565b526020612226836117d8565b5260e1612232836117fa565b52609661223e83611673565b52607d61224a8361180b565b52606461225683611684565b52604b612262836116fb565b52602161226e8361181c565b52602061227a83611695565b526020612286836116a6565b526020612292836116b7565b52602061229e836116c8565b5260206122aa836116d9565b5260206122b6836116ea565b5260e16122c283611bd3565b5260966122ce83611b4b565b52607d6122da83611b3a565b5260646122e683611b5c565b52604b6122f28361161e565b5260216122fe83611d27565b52602061230a8361195f565b52602061231683611970565b52602061232283611981565b52602061232e836115eb565b52602061233a836115fc565b5260206123468361160d565b5260e161235283611524565b52609661235e836118e8565b52607d61236a83611535565b526064612376836118f9565b52604b61238283611ce3565b52602161238e836118d7565b52602061239a8361190a565b5260206123a68361191b565b5260206123b28361192c565b5260206123be8361193d565b5260206123ca8361194e565b5260206123d683611cf4565b5260d06123e283611ad4565b5260966123ee83611546565b5260786123fa83611ae5565b52606461240683611557565b52603c61241283611c17565b52602061241e83611af6565b52601e61242a83611568565b52601e61243683611579565b52601e6124428361158a565b52601e61244e83611ac3565b52601e61245a83611be4565b52601e61246683611c06565b5260d061247283611ab2565b52609661247e8361182d565b52607861248a83611d16565b5260646124968361183e565b52603c6124a283611b8f565b52601f6124ae83611d05565b52601f6124ba8361184f565b52601e6124c683611860565b52601e6124d283611871565b52601e6124de83611882565b52601e6124ea83611b6d565b52601e6124f683611b7e565b52604b61250283611bc2565b52604161250e836118b5565b52603261251a83611893565b52602d612526836118c6565b52601c61253283611761565b52600d61253e836118a4565b52600d61254a83611992565b52600d6125568361170c565b52600c6125628361171d565b52600c61256e8361172e565b52600c61257a8361173f565b52600c61258683611750565b52604b6125928361162f565b52604161259e83611662565b5260326125aa83611640565b52602d6125b68361149c565b52601c6125c283611513565b52600d6125ce83611651565b52600d6125da836114ad565b52600d6125e6836114be565b52600c6125f2836114cf565b52600c6125fe836114e0565b52600c61260a836114f1565b52600c61261683611502565b52604b61262283611c28565b52604161262e83611bf5565b52603261263a83611c39565b52602d61264683611a2a565b52601c61265283611aa1565b52600d61265e83611c4a565b52600d61266a83611a3b565b52600d61267683611a4c565b52600c61268283611a5d565b52600c61268e83611a6e565b52600c61269a83611a7f565b52600c6126a683611a90565b52604b6126b283611772565b5260416126be83611c6c565b5260326126ca83611783565b52602d6126d683611c7d565b52601c6126e283611d38565b52600d6126ee83611c5b565b52600d6126fa83611c8e565b52600d61270683611c9f565b52600c61271283611cb0565b52600c61271e83611cc1565b52600c61272a83611cd2565b52600c61273683611d49565b52604b61274283611ba0565b52603761274e83611b18565b52602d61275a83611bb1565b52602361276683611b29565b52600f61277283611a09565b52600b61277e83611b07565b52600b61278a836119a3565b52600b612796836119b4565b52600b6127a2836119c5565b52600b6127ae836119d6565b52600a6127ba836119e7565b52600a6100f3836119f8565b608581101561010d5790565b6127e46127df3683611d8b565b613825565b908115612830575b8115612815575b50156127ff5750505f90565b6127c69161032061280f8361147b565b52612197565b61282a9150612825903690611d8b565b61384d565b5f6127f3565b905061284461283f3683611d8b565b613839565b906127ec565b5061285d6128583683611d8b565b613811565b61217f565b6040519061188061287381846113ce565b60c38352601f190136602084013761288e6121733683611d8b565b80156133bc575b1561335757506101906128a78261147b565b525b60e16128b482611a1a565b5260966128c0826115bb565b52607d6128cc8261159b565b5260646128d8826115cb565b52604c6128e4826117e9565b5260206128f0826115ab565b5260206128fc826115db565b52602061290882611794565b526020612914826117a5565b526020612920826117b6565b52602061292c826117c7565b526020612938826117d8565b5260e1612944826117fa565b52609661295082611673565b52607d61295c8261180b565b52606461296882611684565b52604c612974826116fb565b5260206129808261181c565b52602061298c82611695565b526020612998826116a6565b5260206129a4826116b7565b5260206129b0826116c8565b5260206129bc826116d9565b5260206129c8826116ea565b5260e16129d482611579565b5260966129e082611be4565b52607d6129ec8261158a565b5260646129f882611c06565b52604b612a0482611a3b565b526020612a1082611ac3565b526020612a1c82611c17565b526020612a2882611c28565b526020612a3482611c39565b526020612a4082611c4a565b526020612a4c82611bf5565b526020612a5882611a2a565b5260e1612a648261160d565b526096612a7082611640565b52607d612a7c8261161e565b526064612a8882611651565b52604c612a94826114f1565b526020612aa08261162f565b526020612aac82611662565b526020612ab88261149c565b526020612ac4826114ad565b526020612ad0826114be565b526020612adc826114cf565b526020612ae8826114e0565b52805160871015611488576110e081019160e16111008301528151608a1015611488576111408201609661116084015282516088101561148857607d6111208401528251608b101561148857606461118084015282516092101561148857611240830190604c61126085015283516089101561148857602090528251608c10156114885760206111a08401528251608d10156114885760206111c08401528251608e10156114885760206111e08401528251608f101561148857602061120084015282516090101561148857602061122084015282516091101561148857602090528151609f1015611488576113e0820160e1611400840152825160a210156114885761144083016096611460850152835160a0101561148857607d611420850152835160a31015611488576064611480850152835160aa101561148857611540840190604c611560860152845160a110156114885760209052835160a410156114885760206114a0850152835160a510156114885760206114c0850152835160a610156114885760206114e0850152835160a71015611488576020611500850152835160a81015611488576020611520850152835160a91015611488576020905260d2612cb584611a4c565b526096612cc184611a7f565b526078612ccd84611a5d565b526064612cd984611a90565b52603c612ce58461184f565b52601e612cf184611a6e565b52601e612cfd84611aa1565b52601e612d0984611ab2565b52601e612d1584611d16565b52601e612d2184611d05565b52601e612d2d8461182d565b52601e612d398461183e565b5260d2612d4584611502565b526096612d5184611535565b526078612d5d84611513565b526064612d69846118d7565b52603c612d758461194e565b52601e612d8184611524565b52601e612d8d846118e8565b52601e612d99846118f9565b52601e612da58461190a565b52601e612db18461191b565b52601e612dbd8461192c565b52601e612dc98461193d565b52825160ab101561148857604b611580840152825160ae1015611488576115c0830160416115e0850152835160ac10156114885760326115a0850152835160af101561148857602d611600850152835160b61015611488576116c0840190601f6116e0860152845160ad101561148857600c9052835160b0101561148857600c611620850152835160b1101561148857600c611640850152835160b2101561148857600c611660850152835160b3101561148857600c611680850152835160b4101561148857600c6116a0850152835160b5101561148857600c905282516093101561148857604b611280840152825160961015611488576112c0830160416112e08501528351609410156114885760326112a085015283516097101561148857602d6113008501528351609e101561148857601f6113c08501925283516095101561148857600c905282516098101561148857600c61132084015282516099101561148857600c6113408401528251609a101561148857600c6113608401528251609b101561148857600c6113808401528251609c101561148857600c6113a08401528251609d101561148857600c9052604b612f8683611860565b526041612f9283611b6d565b526032612f9e83611871565b52602d612faa83611b7e565b52601f612fb6836119a3565b52600c612fc283611882565b52600c612fce83611b8f565b52600c612fda83611ba0565b52600c612fe683611bb1565b52600c612ff283611b07565b52600c612ffe83611b18565b52600c61300a83611b29565b52815160b7101561148857604b611700830152815160ba10156114885761174082016041611760840152825160b81015611488576032611720840152825160bb101561148857602d611780840152825160c2101561148857611840830190601f611860850152835160b9101561148857600c9052825160bc101561148857600c6117a0840152825160bd101561148857600c6117c0840152825160be101561148857600c6117e0840152825160bf101561148857600c611800840152825160c0101561148857600c611820840152825160c1101561148857600c9052604b6130f1836119b4565b5260376130fd836119e7565b52602d613109836119c5565b526023613115836119f8565b526011613121836115fc565b52600761312d836119d6565b52600761313983611a09565b52600761314583611b5c565b5260076131518361195f565b52600761315d83611970565b52600761316983611981565b526007613175836115eb565b52600661318183611bd3565b52600661318d83611b3a565b52600661319983611d27565b5260066131a583611b4b565b5260496131b183611c5b565b5260376131bd83611c8e565b52602d6131c983611c6c565b5260236131d583611c9f565b5281516086101561148857600f6110c083019352600b6131f483611c7d565b52600b61320083611cb0565b52600b61320c83611cc1565b52600b61321883611cd2565b52600b61322483611d49565b52600b61323083611d38565b5281516085101561148857600b8361334b945052603c61324f83611cf4565b52602d61325b83611ce3565b52602361326783611893565b526014613273836118a4565b52600f61327f83611783565b52600961328b83611bc2565b526009613297836118b5565b5260096132a38361172e565b5260096132af8361173f565b5260096132bb83611750565b5260096132c783611761565b5260096132d383611772565b5260036132df836118c6565b5260036132eb83611992565b5260036132f78361170c565b5260036133038361171d565b52602961330f83611ad4565b52602961331b83611ae5565b52602961332783611af6565b52602961333383611546565b52602961333f83611557565b5260296100f383611568565b60c381101561010d5790565b6133646127df3683611d8b565b9081156133a7575b8115613391575b501561337f5750505f90565b6104b061338b8261147b565b526128a9565b6133a19150612825903690611d8b565b5f613373565b90506133b661283f3683611d8b565b9061336c565b506133ca6128583683611d8b565b612895565b610280604051916133e082846113ce565b60138352601f1982013660208501376133fc6121733683611d8b565b801561373d575b156134fe5750506134f2916124a161341a8361147b565b5260c86134268361180b565b526023613432836115db565b52601661343e836117e9565b52601461344a83611673565b526012613456836117c7565b52601061346283611a1a565b52600e61346e83611684565b52600c61347a8361159b565b52600a613486836117d8565b52600861349283611695565b52607d61349e836115cb565b52604b6134aa836115ab565b5260106134b6836115bb565b52600c6134c2836117fa565b52600c6134ce8361181c565b52600a6134da83611794565b52600a6134e6836117a5565b5260086100f3836117b6565b601381101561010d5790565b816135093683611d8b565b0151601a81101561010d57600214801561371e575b156135895750506134f2916124a16135358361147b565b5260c86135418361180b565b52604b61354d836115ab565b526010613559836115bb565b52600c613565836117fa565b52600c6135718361181c565b52600a61357d83611794565b52600a6100f3836117a5565b816135943683611d8b565b0151601a81101561010d576001149182156136fd575b82156136e8575b82156136c7575b82156136a6575b8215613684575b50811561366e575b5015613668576134f2916125626135e48361147b565b5260c86135f08361180b565b5260236135fc836115db565b526016613608836117e9565b52601461361483611673565b526012613620836117c7565b52601061362c83611a1a565b52600e61363883611684565b52600c6136448361159b565b52600a613650836117d8565b52600861365c83611695565b52604b6100f3836115ab565b50505f90565b61367e9150612825903690611d8b565b5f6135ce565b9091506136913683611d8b565b0151601a81101561010d57601614905f6135c6565b8092506136b33683611d8b565b0151601a81101561010d57600614916135bf565b8092506136d43683611d8b565b0151601a81101561010d57600514916135b8565b91506136f76100d03683611d8b565b916135b1565b80925061370a3683611d8b565b0151601a81101561010d57600314916135aa565b508161372a3683611d8b565b0151601a81101561010d5760181461351e565b5061374b6128583683611d8b565b613403565b905f925f935b825185101561377a5760019061ffff61376f8786611d5a565b511601940193613756565b90935060208301600181510180915283519060405190602082019283526040820152604081526137ab6060826113ce565b51902080935280156137c5576137c2920690613875565b90565b634e487b7160e01b5f52601260045260245ffd5b610280018051601a81101561010d5760ff60079116101590816137fa575090565b905051601a81101561010d5760ff600a9116111590565b6102800151601a81101561010d5760191490565b6102800151601a81101561010d5760151490565b6102800151601a81101561010d5760141490565b6102800151601a81101561010d5760171490565b6102800151601a81101561010d5760041490565b905f805b83518210156138aa5761ffff61388f8386611d5a565b511601908183106138a35760010190613879565b9250505090565b60405162461bcd60e51b815260206004820152601060248201526f14d95b1958dd1a5bdb8819985a5b195960821b6044820152606490fdfea2646970667358221220c8a061a5e2bf6bc5ea645419015313705c9721e54d561ed1b70aa972afb7bdde64736f6c634300081e0033",
			"opcodes": "PUSH1 0x80 DUP1 PUSH1 0x40 MSTORE CALLVALUE PUSH1 0x15 JUMPI PUSH2 0x3918 SWAP1 DUP2 PUSH2 0x1A DUP3 CODECOPY RETURN JUMPDEST PUSH0 DUP1 REVERT INVALID PUSH1 0x80 PUSH1 0x40 MSTORE PUSH1 0x4 CALLDATASIZE LT ISZERO PUSH2 0x11 JUMPI PUSH0 DUP1 REVERT JUMPDEST PUSH0 CALLDATALOAD PUSH1 0xE0 SHR DUP1 PUSH4 0x2743C88F EQ PUSH2 0xD28 JUMPI DUP1 PUSH4 0x29814BE5 EQ PUSH2 0xB6A JUMPI DUP1 PUSH4 0x40ABA8DB EQ PUSH2 0xCFE JUMPI DUP1 PUSH4 0x660A197A EQ PUSH2 0xCD4 JUMPI DUP1 PUSH4 0x74953AE2 EQ PUSH2 0xC58 JUMPI DUP1 PUSH4 0x7829AF69 EQ PUSH2 0xC2E JUMPI DUP1 PUSH4 0x8E57A737 EQ PUSH2 0xB6A JUMPI DUP1 PUSH4 0xA063F74F EQ PUSH2 0x557 JUMPI DUP1 PUSH4 0xD5A6E660 EQ PUSH2 0x3CF JUMPI DUP1 PUSH4 0xE0CF503A EQ PUSH2 0x283 JUMPI PUSH4 0xF17076C7 EQ PUSH2 0x92 JUMPI PUSH0 DUP1 REVERT JUMPDEST CALLVALUE PUSH2 0x27F JUMPI PUSH2 0xF9 PUSH2 0xA3 CALLDATASIZE PUSH2 0x1422 JUMP JUMPDEST PUSH2 0xD5 PUSH2 0xD0 PUSH2 0x400 SWAP4 PUSH1 0x40 MLOAD SWAP5 PUSH2 0xBB DUP2 DUP8 PUSH2 0x13CE JUMP JUMPDEST PUSH1 0x1F DUP7 MSTORE PUSH1 0x1F NOT ADD CALLDATASIZE PUSH1 0x20 DUP8 ADD CALLDATACOPY CALLDATASIZE SWAP1 PUSH2 0x1D8B JUMP JUMPDEST PUSH2 0x3861 JUMP JUMPDEST ISZERO PUSH2 0x121 JUMPI PUSH2 0x1388 PUSH2 0xE6 DUP4 PUSH2 0x16C8 JUMP JUMPDEST MSTORE PUSH2 0x1388 PUSH2 0xF3 DUP4 PUSH2 0x16D9 JUMP JUMPDEST MSTORE PUSH2 0x3750 JUMP JUMPDEST PUSH1 0x1F DUP2 LT ISZERO PUSH2 0x10D JUMPI PUSH1 0x20 SWAP1 PUSH1 0x40 MLOAD SWAP1 DUP2 MSTORE RETURN JUMPDEST PUSH4 0x4E487B71 PUSH1 0xE0 SHL PUSH0 MSTORE PUSH1 0x21 PUSH1 0x4 MSTORE PUSH1 0x24 PUSH0 REVERT JUMPDEST PUSH0 PUSH2 0x12B DUP4 PUSH2 0x147B JUMP JUMPDEST MSTORE PUSH2 0x101D PUSH2 0x138 DUP4 PUSH2 0x16EA JUMP JUMPDEST MSTORE PUSH2 0x101D PUSH2 0x145 DUP4 PUSH2 0x1AE5 JUMP JUMPDEST MSTORE PUSH2 0x1F4 PUSH2 0x152 DUP4 PUSH2 0x1546 JUMP JUMPDEST MSTORE PUSH2 0x1F4 PUSH2 0x15F DUP4 PUSH2 0x1557 JUMP JUMPDEST MSTORE PUSH1 0xFA PUSH2 0x16B DUP4 PUSH2 0x17E9 JUMP JUMPDEST MSTORE PUSH1 0x7D PUSH2 0x177 DUP4 PUSH2 0x1AF6 JUMP JUMPDEST MSTORE PUSH1 0x64 PUSH2 0x183 DUP4 PUSH2 0x159B JUMP JUMPDEST MSTORE PUSH1 0x4B PUSH2 0x18F DUP4 PUSH2 0x1568 JUMP JUMPDEST MSTORE PUSH1 0x32 PUSH2 0x19B DUP4 PUSH2 0x1A1A JUMP JUMPDEST MSTORE PUSH1 0x1E PUSH2 0x1A7 DUP4 PUSH2 0x17FA JUMP JUMPDEST MSTORE PUSH1 0x1E PUSH2 0x1B3 DUP4 PUSH2 0x180B JUMP JUMPDEST MSTORE PUSH1 0x1E PUSH2 0x1BF DUP4 PUSH2 0x181C JUMP JUMPDEST MSTORE PUSH1 0x1E PUSH2 0x1CB DUP4 PUSH2 0x1673 JUMP JUMPDEST MSTORE PUSH1 0x1E PUSH2 0x1D7 DUP4 PUSH2 0x1684 JUMP JUMPDEST MSTORE PUSH1 0x1E PUSH2 0x1E3 DUP4 PUSH2 0x1695 JUMP JUMPDEST MSTORE PUSH1 0x1E PUSH2 0x1EF DUP4 PUSH2 0x16A6 JUMP JUMPDEST MSTORE PUSH1 0x1E PUSH2 0x1FB DUP4 PUSH2 0x16B7 JUMP JUMPDEST MSTORE PUSH1 0xB PUSH2 0x207 DUP4 PUSH2 0x15AB JUMP JUMPDEST MSTORE PUSH1 0xB PUSH2 0x213 DUP4 PUSH2 0x15BB JUMP JUMPDEST MSTORE PUSH1 0xB PUSH2 0x21F DUP4 PUSH2 0x15CB JUMP JUMPDEST MSTORE PUSH1 0xB PUSH2 0x22B DUP4 PUSH2 0x15DB JUMP JUMPDEST MSTORE PUSH1 0xB PUSH2 0x237 DUP4 PUSH2 0x1794 JUMP JUMPDEST MSTORE PUSH1 0xB PUSH2 0x243 DUP4 PUSH2 0x17A5 JUMP JUMPDEST MSTORE PUSH1 0xB PUSH2 0x24F DUP4 PUSH2 0x17B6 JUMP JUMPDEST MSTORE PUSH1 0xB PUSH2 0x25B DUP4 PUSH2 0x17C7 JUMP JUMPDEST MSTORE PUSH1 0xB PUSH2 0x267 DUP4 PUSH2 0x17D8 JUMP JUMPDEST MSTORE PUSH1 0x19 PUSH2 0x273 DUP4 PUSH2 0x16FB JUMP JUMPDEST MSTORE PUSH1 0x19 PUSH2 0xF3 DUP4 PUSH2 0x1AD4 JUMP JUMPDEST PUSH0 DUP1 REVERT JUMPDEST CALLVALUE PUSH2 0x27F JUMPI PUSH1 0x40 CALLDATASIZE PUSH1 0x3 NOT ADD SLT PUSH2 0x27F JUMPI PUSH2 0x3BB PUSH2 0x2A0 CALLDATASIZE PUSH2 0x13F0 JUMP JUMPDEST PUSH1 0x40 MLOAD SWAP1 PUSH2 0x2C0 PUSH2 0x2B1 DUP2 DUP5 PUSH2 0x13CE JUMP JUMPDEST PUSH1 0x15 DUP4 MSTORE PUSH1 0x1F NOT ADD CALLDATASIZE PUSH1 0x20 DUP5 ADD CALLDATACOPY PUSH2 0x253F PUSH2 0x2CB DUP4 PUSH2 0x147B JUMP JUMPDEST MSTORE PUSH1 0x28 PUSH2 0x2D7 DUP4 PUSH2 0x180B JUMP JUMPDEST MSTORE PUSH1 0x19 PUSH2 0x2E3 DUP4 PUSH2 0x15DB JUMP JUMPDEST MSTORE PUSH1 0x19 PUSH2 0x2EF DUP4 PUSH2 0x1794 JUMP JUMPDEST MSTORE PUSH1 0x19 PUSH2 0x2FB DUP4 PUSH2 0x17A5 JUMP JUMPDEST MSTORE PUSH1 0x19 PUSH2 0x307 DUP4 PUSH2 0x17B6 JUMP JUMPDEST MSTORE PUSH1 0x19 PUSH2 0x313 DUP4 PUSH2 0x17C7 JUMP JUMPDEST MSTORE PUSH1 0x19 PUSH2 0x31F DUP4 PUSH2 0x17D8 JUMP JUMPDEST MSTORE PUSH1 0x19 PUSH2 0x32B DUP4 PUSH2 0x17E9 JUMP JUMPDEST MSTORE PUSH1 0x19 PUSH2 0x337 DUP4 PUSH2 0x17FA JUMP JUMPDEST MSTORE PUSH1 0x1E PUSH2 0x343 DUP4 PUSH2 0x1A1A JUMP JUMPDEST MSTORE PUSH1 0x1E PUSH2 0x34F DUP4 PUSH2 0x159B JUMP JUMPDEST MSTORE PUSH1 0x1E PUSH2 0x35B DUP4 PUSH2 0x15AB JUMP JUMPDEST MSTORE PUSH1 0x1E PUSH2 0x367 DUP4 PUSH2 0x15BB JUMP JUMPDEST MSTORE PUSH1 0xA PUSH2 0x373 DUP4 PUSH2 0x1673 JUMP JUMPDEST MSTORE PUSH1 0xA PUSH2 0x37F DUP4 PUSH2 0x1684 JUMP JUMPDEST MSTORE PUSH1 0xA PUSH2 0x38B DUP4 PUSH2 0x1695 JUMP JUMPDEST MSTORE PUSH1 0xA PUSH2 0x397 DUP4 PUSH2 0x16A6 JUMP JUMPDEST MSTORE PUSH1 0xA PUSH2 0x3A3 DUP4 PUSH2 0x16B7 JUMP JUMPDEST MSTORE PUSH1 0x1E PUSH2 0x3AF DUP4 PUSH2 0x15CB JUMP JUMPDEST MSTORE PUSH1 0xF PUSH2 0xF3 DUP4 PUSH2 0x181C JUMP JUMPDEST PUSH1 0x15 DUP2 LT ISZERO PUSH2 0x10D JUMPI PUSH1 0x20 SWAP1 PUSH1 0x40 MLOAD SWAP1 DUP2 MSTORE RETURN JUMPDEST CALLVALUE PUSH2 0x27F JUMPI PUSH1 0x40 CALLDATASIZE PUSH1 0x3 NOT ADD SLT PUSH2 0x27F JUMPI PUSH2 0x543 PUSH2 0x3EC CALLDATASIZE PUSH2 0x13F0 JUMP JUMPDEST PUSH1 0x40 MLOAD SWAP1 PUSH2 0x360 PUSH2 0x3FD DUP2 DUP5 PUSH2 0x13CE JUMP JUMPDEST PUSH1 0x1A DUP4 MSTORE PUSH1 0x1F NOT ADD CALLDATASIZE PUSH1 0x20 DUP5 ADD CALLDATACOPY PUSH2 0x2EE PUSH2 0x417 DUP4 PUSH2 0x1794 JUMP JUMPDEST MSTORE PUSH2 0x2EE PUSH2 0x424 DUP4 PUSH2 0x17D8 JUMP JUMPDEST MSTORE PUSH2 0x2EE PUSH2 0x431 DUP4 PUSH2 0x17E9 JUMP JUMPDEST MSTORE PUSH2 0x2EE PUSH2 0x43E DUP4 PUSH2 0x17FA JUMP JUMPDEST MSTORE PUSH2 0x2EE PUSH2 0x44B DUP4 PUSH2 0x180B JUMP JUMPDEST MSTORE PUSH2 0x2EE PUSH2 0x458 DUP4 PUSH2 0x181C JUMP JUMPDEST MSTORE PUSH2 0x2EE PUSH2 0x465 DUP4 PUSH2 0x1673 JUMP JUMPDEST MSTORE PUSH2 0x2EE PUSH2 0x472 DUP4 PUSH2 0x1684 JUMP JUMPDEST MSTORE PUSH2 0x2EE PUSH2 0x47F DUP4 PUSH2 0x1695 JUMP JUMPDEST MSTORE PUSH2 0x2EE PUSH2 0x48C DUP4 PUSH2 0x17A5 JUMP JUMPDEST MSTORE PUSH2 0x2EE PUSH2 0x499 DUP4 PUSH2 0x17B6 JUMP JUMPDEST MSTORE PUSH2 0x2EE PUSH2 0x4A6 DUP4 PUSH2 0x17C7 JUMP JUMPDEST MSTORE PUSH2 0x12C PUSH2 0x4B3 DUP4 PUSH2 0x1AD4 JUMP JUMPDEST MSTORE PUSH1 0xE1 PUSH2 0x4BF DUP4 PUSH2 0x159B JUMP JUMPDEST MSTORE PUSH1 0x96 PUSH2 0x4CB DUP4 PUSH2 0x16FB JUMP JUMPDEST MSTORE PUSH1 0x5A PUSH2 0x4D7 DUP4 PUSH2 0x16C8 JUMP JUMPDEST MSTORE PUSH1 0x41 PUSH2 0x4E3 DUP4 PUSH2 0x15CB JUMP JUMPDEST MSTORE PUSH1 0x2D PUSH2 0x4EF DUP4 PUSH2 0x15BB JUMP JUMPDEST MSTORE PUSH1 0x19 PUSH2 0x4FB DUP4 PUSH2 0x1A1A JUMP JUMPDEST MSTORE PUSH1 0x19 PUSH2 0x507 DUP4 PUSH2 0x16B7 JUMP JUMPDEST MSTORE PUSH1 0x16 PUSH2 0x513 DUP4 PUSH2 0x16D9 JUMP JUMPDEST MSTORE PUSH1 0x14 PUSH2 0x51F DUP4 PUSH2 0x15DB JUMP JUMPDEST MSTORE PUSH1 0xF PUSH2 0x52B DUP4 PUSH2 0x15AB JUMP JUMPDEST MSTORE PUSH1 0xA PUSH2 0x537 DUP4 PUSH2 0x16EA JUMP JUMPDEST MSTORE PUSH1 0x8 PUSH2 0xF3 DUP4 PUSH2 0x16A6 JUMP JUMPDEST PUSH1 0x1A DUP2 LT ISZERO PUSH2 0x10D JUMPI PUSH1 0x20 SWAP1 PUSH1 0x40 MLOAD SWAP1 DUP2 MSTORE RETURN JUMPDEST CALLVALUE PUSH2 0x27F JUMPI PUSH1 0x40 CALLDATASIZE PUSH1 0x3 NOT ADD SLT PUSH2 0x27F JUMPI PUSH2 0xB56 PUSH2 0x574 CALLDATASIZE PUSH2 0x13F0 JUMP JUMPDEST PUSH1 0x40 MLOAD SWAP1 PUSH2 0xF60 PUSH2 0x585 DUP2 DUP5 PUSH2 0x13CE JUMP JUMPDEST PUSH1 0x7A DUP4 MSTORE PUSH1 0x1F NOT ADD CALLDATASIZE PUSH1 0x20 DUP5 ADD CALLDATACOPY PUSH2 0x3C8 PUSH2 0x59F DUP4 PUSH2 0x147B JUMP JUMPDEST MSTORE PUSH2 0x274 PUSH2 0x5AC DUP4 PUSH2 0x1B5C JUMP JUMPDEST MSTORE PUSH1 0x40 PUSH2 0x5B8 DUP4 PUSH2 0x1CF4 JUMP JUMPDEST MSTORE PUSH1 0x40 PUSH2 0x5C4 DUP4 PUSH2 0x18D7 JUMP JUMPDEST MSTORE PUSH1 0x40 PUSH2 0x5D0 DUP4 PUSH2 0x18E8 JUMP JUMPDEST MSTORE PUSH1 0x40 PUSH2 0x5DC DUP4 PUSH2 0x18F9 JUMP JUMPDEST MSTORE PUSH1 0x40 PUSH2 0x5E8 DUP4 PUSH2 0x190A JUMP JUMPDEST MSTORE PUSH1 0x40 PUSH2 0x5F4 DUP4 PUSH2 0x191B JUMP JUMPDEST MSTORE PUSH1 0x40 PUSH2 0x600 DUP4 PUSH2 0x192C JUMP JUMPDEST MSTORE PUSH1 0x40 PUSH2 0x60C DUP4 PUSH2 0x193D JUMP JUMPDEST MSTORE PUSH1 0x40 PUSH2 0x618 DUP4 PUSH2 0x194E JUMP JUMPDEST MSTORE PUSH1 0x40 PUSH2 0x624 DUP4 PUSH2 0x1A4C JUMP JUMPDEST MSTORE PUSH1 0x40 PUSH2 0x630 DUP4 PUSH2 0x1C06 JUMP JUMPDEST MSTORE PUSH1 0x40 PUSH2 0x63C DUP4 PUSH2 0x1C17 JUMP JUMPDEST MSTORE PUSH1 0x40 PUSH2 0x648 DUP4 PUSH2 0x1C28 JUMP JUMPDEST MSTORE PUSH1 0x40 PUSH2 0x654 DUP4 PUSH2 0x1C39 JUMP JUMPDEST MSTORE PUSH1 0x40 PUSH2 0x660 DUP4 PUSH2 0x1C4A JUMP JUMPDEST MSTORE PUSH1 0x40 PUSH2 0x66C DUP4 PUSH2 0x1BF5 JUMP JUMPDEST MSTORE PUSH1 0x40 PUSH2 0x678 DUP4 PUSH2 0x1A2A JUMP JUMPDEST MSTORE PUSH1 0x40 PUSH2 0x684 DUP4 PUSH2 0x1A3B JUMP JUMPDEST MSTORE PUSH2 0x23A PUSH2 0x691 DUP4 PUSH2 0x1BB1 JUMP JUMPDEST MSTORE PUSH2 0x230 PUSH2 0x69E DUP4 PUSH2 0x1B3A JUMP JUMPDEST MSTORE PUSH1 0x32 PUSH2 0x6AA DUP4 PUSH2 0x1662 JUMP JUMPDEST MSTORE PUSH1 0x32 PUSH2 0x6B6 DUP4 PUSH2 0x149C JUMP JUMPDEST MSTORE PUSH1 0x32 PUSH2 0x6C2 DUP4 PUSH2 0x14AD JUMP JUMPDEST MSTORE PUSH1 0x32 PUSH2 0x6CE DUP4 PUSH2 0x14BE JUMP JUMPDEST MSTORE PUSH1 0x32 PUSH2 0x6DA DUP4 PUSH2 0x14CF JUMP JUMPDEST MSTORE PUSH1 0x32 PUSH2 0x6E6 DUP4 PUSH2 0x14E0 JUMP JUMPDEST MSTORE PUSH1 0x32 PUSH2 0x6F2 DUP4 PUSH2 0x14F1 JUMP JUMPDEST MSTORE PUSH1 0x32 PUSH2 0x6FE DUP4 PUSH2 0x1502 JUMP JUMPDEST MSTORE PUSH1 0x32 PUSH2 0x70A DUP4 PUSH2 0x1513 JUMP JUMPDEST MSTORE PUSH1 0x32 PUSH2 0x716 DUP4 PUSH2 0x1524 JUMP JUMPDEST MSTORE PUSH1 0x32 PUSH2 0x722 DUP4 PUSH2 0x1535 JUMP JUMPDEST MSTORE PUSH2 0x21C PUSH2 0x72F DUP4 PUSH2 0x1A7F JUMP JUMPDEST MSTORE PUSH1 0x2E PUSH2 0x73B DUP4 PUSH2 0x181C JUMP JUMPDEST MSTORE PUSH1 0x2E PUSH2 0x747 DUP4 PUSH2 0x1673 JUMP JUMPDEST MSTORE PUSH1 0x2E PUSH2 0x753 DUP4 PUSH2 0x1684 JUMP JUMPDEST MSTORE PUSH1 0x2E PUSH2 0x75F DUP4 PUSH2 0x1695 JUMP JUMPDEST MSTORE PUSH1 0x2E PUSH2 0x76B DUP4 PUSH2 0x16A6 JUMP JUMPDEST MSTORE PUSH1 0x2E PUSH2 0x777 DUP4 PUSH2 0x16B7 JUMP JUMPDEST MSTORE PUSH1 0x2E PUSH2 0x783 DUP4 PUSH2 0x16C8 JUMP JUMPDEST MSTORE PUSH1 0x2E PUSH2 0x78F DUP4 PUSH2 0x16D9 JUMP JUMPDEST MSTORE PUSH1 0x2E PUSH2 0x79B DUP4 PUSH2 0x16EA JUMP JUMPDEST MSTORE PUSH1 0x2E PUSH2 0x7A7 DUP4 PUSH2 0x16FB JUMP JUMPDEST MSTORE PUSH1 0x2E PUSH2 0x7B3 DUP4 PUSH2 0x1AD4 JUMP JUMPDEST MSTORE PUSH2 0x1DB PUSH2 0x7C0 DUP4 PUSH2 0x1A1A JUMP JUMPDEST MSTORE PUSH2 0x1DB PUSH2 0x7CD DUP4 PUSH2 0x1BE4 JUMP JUMPDEST MSTORE PUSH2 0x1A9 PUSH2 0x7DA DUP4 PUSH2 0x195F JUMP JUMPDEST MSTORE PUSH2 0x190 PUSH2 0x7E7 DUP4 PUSH2 0x1860 JUMP JUMPDEST MSTORE PUSH1 0x3E PUSH2 0x7F3 DUP4 PUSH2 0x1871 JUMP JUMPDEST MSTORE PUSH1 0x3E PUSH2 0x7FF DUP4 PUSH2 0x1882 JUMP JUMPDEST MSTORE PUSH1 0x3E PUSH2 0x80B DUP4 PUSH2 0x1B6D JUMP JUMPDEST MSTORE PUSH1 0x3E PUSH2 0x817 DUP4 PUSH2 0x1B7E JUMP JUMPDEST MSTORE PUSH1 0x3E PUSH2 0x823 DUP4 PUSH2 0x1B8F JUMP JUMPDEST MSTORE PUSH1 0x3E PUSH2 0x82F DUP4 PUSH2 0x1BA0 JUMP JUMPDEST MSTORE PUSH2 0x15B PUSH2 0x83C DUP4 PUSH2 0x1CE3 JUMP JUMPDEST MSTORE PUSH2 0x13D PUSH2 0x849 DUP4 PUSH2 0x1A90 JUMP JUMPDEST MSTORE PUSH2 0x118 PUSH2 0x856 DUP4 PUSH2 0x1A6E JUMP JUMPDEST MSTORE PUSH1 0xE1 PUSH2 0x862 DUP4 PUSH2 0x1D27 JUMP JUMPDEST MSTORE PUSH1 0x1C PUSH2 0x86E DUP4 PUSH2 0x1AA1 JUMP JUMPDEST MSTORE PUSH1 0x1C PUSH2 0x87A DUP4 PUSH2 0x1AB2 JUMP JUMPDEST MSTORE PUSH1 0x1C PUSH2 0x886 DUP4 PUSH2 0x1D16 JUMP JUMPDEST MSTORE PUSH1 0x1C PUSH2 0x892 DUP4 PUSH2 0x1D05 JUMP JUMPDEST MSTORE PUSH1 0x1C PUSH2 0x89E DUP4 PUSH2 0x182D JUMP JUMPDEST MSTORE PUSH1 0x1C PUSH2 0x8AA DUP4 PUSH2 0x183E JUMP JUMPDEST MSTORE PUSH1 0x1C PUSH2 0x8B6 DUP4 PUSH2 0x184F JUMP JUMPDEST MSTORE PUSH1 0x14 PUSH2 0x8C2 DUP4 PUSH2 0x1AE5 JUMP JUMPDEST MSTORE PUSH1 0x14 PUSH2 0x8CE DUP4 PUSH2 0x1AF6 JUMP JUMPDEST MSTORE PUSH1 0x14 PUSH2 0x8DA DUP4 PUSH2 0x1546 JUMP JUMPDEST MSTORE PUSH1 0x14 PUSH2 0x8E6 DUP4 PUSH2 0x1557 JUMP JUMPDEST MSTORE PUSH1 0x14 PUSH2 0x8F2 DUP4 PUSH2 0x1568 JUMP JUMPDEST MSTORE PUSH1 0x14 PUSH2 0x8FE DUP4 PUSH2 0x1579 JUMP JUMPDEST MSTORE PUSH1 0x14 PUSH2 0x90A DUP4 PUSH2 0x158A JUMP JUMPDEST MSTORE PUSH1 0x14 PUSH2 0x916 DUP4 PUSH2 0x1AC3 JUMP JUMPDEST MSTORE PUSH1 0x21 PUSH2 0x922 DUP4 PUSH2 0x1BC2 JUMP JUMPDEST MSTORE PUSH1 0x21 PUSH2 0x92E DUP4 PUSH2 0x1893 JUMP JUMPDEST MSTORE PUSH1 0x21 PUSH2 0x93A DUP4 PUSH2 0x18A4 JUMP JUMPDEST MSTORE PUSH1 0x21 PUSH2 0x946 DUP4 PUSH2 0x18B5 JUMP JUMPDEST MSTORE PUSH1 0x16 PUSH2 0x952 DUP4 PUSH2 0x159B JUMP JUMPDEST MSTORE PUSH1 0x16 PUSH2 0x95E DUP4 PUSH2 0x15AB JUMP JUMPDEST MSTORE PUSH1 0x16 PUSH2 0x96A DUP4 PUSH2 0x15BB JUMP JUMPDEST MSTORE PUSH1 0x16 PUSH2 0x976 DUP4 PUSH2 0x15CB JUMP JUMPDEST MSTORE PUSH1 0x16 PUSH2 0x982 DUP4 PUSH2 0x15DB JUMP JUMPDEST MSTORE PUSH1 0xA PUSH2 0x98E DUP4 PUSH2 0x1794 JUMP JUMPDEST MSTORE PUSH1 0xA PUSH2 0x99A DUP4 PUSH2 0x17A5 JUMP JUMPDEST MSTORE PUSH1 0xA PUSH2 0x9A6 DUP4 PUSH2 0x17B6 JUMP JUMPDEST MSTORE PUSH1 0xA PUSH2 0x9B2 DUP4 PUSH2 0x17C7 JUMP JUMPDEST MSTORE PUSH1 0xA PUSH2 0x9BE DUP4 PUSH2 0x17D8 JUMP JUMPDEST MSTORE PUSH1 0xA PUSH2 0x9CA DUP4 PUSH2 0x17E9 JUMP JUMPDEST MSTORE PUSH1 0xA PUSH2 0x9D6 DUP4 PUSH2 0x17FA JUMP JUMPDEST MSTORE PUSH1 0xA PUSH2 0x9E2 DUP4 PUSH2 0x180B JUMP JUMPDEST MSTORE PUSH1 0x45 PUSH2 0x9EE DUP4 PUSH2 0x1B4B JUMP JUMPDEST MSTORE PUSH1 0x5 PUSH2 0x9FA DUP4 PUSH2 0x18C6 JUMP JUMPDEST MSTORE PUSH1 0x5 PUSH2 0xA06 DUP4 PUSH2 0x1992 JUMP JUMPDEST MSTORE PUSH1 0x5 PUSH2 0xA12 DUP4 PUSH2 0x170C JUMP JUMPDEST MSTORE PUSH1 0x5 PUSH2 0xA1E DUP4 PUSH2 0x171D JUMP JUMPDEST MSTORE PUSH1 0x5 PUSH2 0xA2A DUP4 PUSH2 0x172E JUMP JUMPDEST MSTORE PUSH1 0x5 PUSH2 0xA36 DUP4 PUSH2 0x173F JUMP JUMPDEST MSTORE PUSH1 0x5 PUSH2 0xA42 DUP4 PUSH2 0x1750 JUMP JUMPDEST MSTORE PUSH1 0x5 PUSH2 0xA4E DUP4 PUSH2 0x1761 JUMP JUMPDEST MSTORE PUSH1 0x5 PUSH2 0xA5A DUP4 PUSH2 0x1772 JUMP JUMPDEST MSTORE PUSH1 0x5 PUSH2 0xA66 DUP4 PUSH2 0x19A3 JUMP JUMPDEST MSTORE PUSH1 0x5 PUSH2 0xA72 DUP4 PUSH2 0x19B4 JUMP JUMPDEST MSTORE PUSH1 0x5 PUSH2 0xA7E DUP4 PUSH2 0x19C5 JUMP JUMPDEST MSTORE PUSH1 0x5 PUSH2 0xA8A DUP4 PUSH2 0x19D6 JUMP JUMPDEST MSTORE PUSH1 0x5 PUSH2 0xA96 DUP4 PUSH2 0x19E7 JUMP JUMPDEST MSTORE PUSH1 0x5 PUSH2 0xAA2 DUP4 PUSH2 0x19F8 JUMP JUMPDEST MSTORE PUSH1 0x5 PUSH2 0xAAE DUP4 PUSH2 0x1A09 JUMP JUMPDEST MSTORE PUSH1 0x5 PUSH2 0xABA DUP4 PUSH2 0x1BD3 JUMP JUMPDEST MSTORE PUSH1 0x3 PUSH2 0xAC6 DUP4 PUSH2 0x1970 JUMP JUMPDEST MSTORE PUSH1 0x3 PUSH2 0xAD2 DUP4 PUSH2 0x1981 JUMP JUMPDEST MSTORE PUSH1 0x3 PUSH2 0xADE DUP4 PUSH2 0x15EB JUMP JUMPDEST MSTORE PUSH1 0x3 PUSH2 0xAEA DUP4 PUSH2 0x15FC JUMP JUMPDEST MSTORE PUSH1 0x3 PUSH2 0xAF6 DUP4 PUSH2 0x160D JUMP JUMPDEST MSTORE PUSH1 0x3 PUSH2 0xB02 DUP4 PUSH2 0x161E JUMP JUMPDEST MSTORE PUSH1 0x3 PUSH2 0xB0E DUP4 PUSH2 0x162F JUMP JUMPDEST MSTORE PUSH1 0x3 PUSH2 0xB1A DUP4 PUSH2 0x1640 JUMP JUMPDEST MSTORE PUSH1 0x3 PUSH2 0xB26 DUP4 PUSH2 0x1651 JUMP JUMPDEST MSTORE PUSH1 0x17 PUSH2 0xB32 DUP4 PUSH2 0x1A5D JUMP JUMPDEST MSTORE PUSH1 0x4 PUSH2 0xB3E DUP4 PUSH2 0x1B29 JUMP JUMPDEST MSTORE PUSH1 0x3 PUSH2 0xB4A DUP4 PUSH2 0x1B07 JUMP JUMPDEST MSTORE PUSH1 0x3 PUSH2 0xF3 DUP4 PUSH2 0x1B18 JUMP JUMPDEST PUSH1 0x7A DUP2 LT ISZERO PUSH2 0x10D JUMPI PUSH1 0x20 SWAP1 PUSH1 0x40 MLOAD SWAP1 DUP2 MSTORE RETURN JUMPDEST CALLVALUE PUSH2 0x27F JUMPI PUSH1 0x40 CALLDATASIZE PUSH1 0x3 NOT ADD SLT PUSH2 0x27F JUMPI PUSH1 0x20 PUSH2 0xC14 PUSH2 0xB89 CALLDATASIZE PUSH2 0x13F0 JUMP JUMPDEST PUSH1 0x40 MLOAD SWAP1 PUSH2 0x140 PUSH2 0xB9A DUP2 DUP5 PUSH2 0x13CE JUMP JUMPDEST PUSH1 0x9 DUP4 MSTORE PUSH1 0x1F NOT ADD CALLDATASIZE DUP6 DUP5 ADD CALLDATACOPY PUSH2 0x2328 PUSH2 0xBB3 DUP4 PUSH2 0x147B JUMP JUMPDEST MSTORE PUSH2 0x15E PUSH2 0xBC0 DUP4 PUSH2 0x15CB JUMP JUMPDEST MSTORE PUSH1 0xFA PUSH2 0xBCC DUP4 PUSH2 0x1A1A JUMP JUMPDEST MSTORE PUSH1 0x8C PUSH2 0xBD8 DUP4 PUSH2 0x15BB JUMP JUMPDEST MSTORE PUSH1 0x64 PUSH2 0xBE4 DUP4 PUSH2 0x17A5 JUMP JUMPDEST MSTORE PUSH1 0x4B PUSH2 0xBF0 DUP4 PUSH2 0x15AB JUMP JUMPDEST MSTORE PUSH1 0x32 PUSH2 0xBFC DUP4 PUSH2 0x1794 JUMP JUMPDEST MSTORE PUSH1 0x19 PUSH2 0xC08 DUP4 PUSH2 0x159B JUMP JUMPDEST MSTORE PUSH1 0xA PUSH2 0xF3 DUP4 PUSH2 0x15DB JUMP JUMPDEST PUSH2 0xC1D DUP2 PUSH2 0x1418 JUMP JUMPDEST PUSH1 0x40 MLOAD SWAP1 PUSH2 0xC2A DUP2 PUSH2 0x1418 JUMP JUMPDEST DUP2 MSTORE RETURN JUMPDEST CALLVALUE PUSH2 0x27F JUMPI PUSH2 0xC45 PUSH2 0xC3F CALLDATASIZE PUSH2 0x1422 JUMP JUMPDEST SWAP1 PUSH2 0x33CF JUMP JUMPDEST PUSH1 0x40 MLOAD PUSH1 0x13 DUP3 LT ISZERO PUSH2 0x10D JUMPI PUSH1 0x20 SWAP2 DUP2 MSTORE RETURN JUMPDEST CALLVALUE PUSH2 0x27F JUMPI PUSH1 0x40 CALLDATASIZE PUSH1 0x3 NOT ADD SLT PUSH2 0x27F JUMPI PUSH2 0xCC0 PUSH2 0xC75 CALLDATASIZE PUSH2 0x13F0 JUMP JUMPDEST PUSH1 0x40 MLOAD SWAP1 PUSH2 0xC84 PUSH1 0xA0 DUP4 PUSH2 0x13CE JUMP JUMPDEST PUSH1 0x4 DUP3 MSTORE PUSH1 0x80 CALLDATASIZE PUSH1 0x20 DUP5 ADD CALLDATACOPY PUSH2 0x26AC PUSH2 0xC9C DUP4 PUSH2 0x147B JUMP JUMPDEST MSTORE PUSH1 0x28 PUSH2 0xCA8 DUP4 PUSH2 0x1A1A JUMP JUMPDEST MSTORE PUSH1 0x1E PUSH2 0xCB4 DUP4 PUSH2 0x159B JUMP JUMPDEST MSTORE PUSH1 0x1E PUSH2 0xF3 DUP4 PUSH2 0x15AB JUMP JUMPDEST PUSH1 0x4 DUP2 LT ISZERO PUSH2 0x10D JUMPI PUSH1 0x20 SWAP1 PUSH1 0x40 MLOAD SWAP1 DUP2 MSTORE RETURN JUMPDEST CALLVALUE PUSH2 0x27F JUMPI PUSH2 0xCEB PUSH2 0xCE5 CALLDATASIZE PUSH2 0x1422 JUMP JUMPDEST SWAP1 PUSH2 0x2862 JUMP JUMPDEST PUSH1 0x40 MLOAD PUSH1 0xC3 DUP3 LT ISZERO PUSH2 0x10D JUMPI PUSH1 0x20 SWAP2 DUP2 MSTORE RETURN JUMPDEST CALLVALUE PUSH2 0x27F JUMPI PUSH2 0xD15 PUSH2 0xD0F CALLDATASIZE PUSH2 0x1422 JUMP JUMPDEST SWAP1 PUSH2 0x2147 JUMP JUMPDEST PUSH1 0x40 MLOAD PUSH1 0x85 DUP3 LT ISZERO PUSH2 0x10D JUMPI PUSH1 0x20 SWAP2 DUP2 MSTORE RETURN JUMPDEST CALLVALUE PUSH2 0x27F JUMPI PUSH1 0x40 CALLDATASIZE PUSH1 0x3 NOT ADD SLT PUSH2 0x27F JUMPI PUSH2 0x138A PUSH2 0xD45 CALLDATASIZE PUSH2 0x13F0 JUMP JUMPDEST PUSH1 0x40 MLOAD SWAP1 PUSH2 0x1080 PUSH2 0xD56 DUP2 DUP5 PUSH2 0x13CE JUMP JUMPDEST PUSH1 0x83 DUP4 MSTORE PUSH1 0x1F NOT ADD CALLDATASIZE PUSH1 0x20 DUP5 ADD CALLDATACOPY PUSH2 0x367 PUSH2 0xD70 DUP4 PUSH2 0x147B JUMP JUMPDEST MSTORE PUSH1 0x55 PUSH2 0xD7C DUP4 PUSH2 0x149C JUMP JUMPDEST MSTORE PUSH1 0x55 PUSH2 0xD88 DUP4 PUSH2 0x14AD JUMP JUMPDEST MSTORE PUSH1 0x55 PUSH2 0xD94 DUP4 PUSH2 0x14BE JUMP JUMPDEST MSTORE PUSH1 0x55 PUSH2 0xDA0 DUP4 PUSH2 0x14CF JUMP JUMPDEST MSTORE PUSH1 0x55 PUSH2 0xDAC DUP4 PUSH2 0x14E0 JUMP JUMPDEST MSTORE PUSH1 0x55 PUSH2 0xDB8 DUP4 PUSH2 0x14F1 JUMP JUMPDEST MSTORE PUSH1 0x55 PUSH2 0xDC4 DUP4 PUSH2 0x1502 JUMP JUMPDEST MSTORE PUSH1 0x55 PUSH2 0xDD0 DUP4 PUSH2 0x1513 JUMP JUMPDEST MSTORE PUSH1 0x55 PUSH2 0xDDC DUP4 PUSH2 0x1524 JUMP JUMPDEST MSTORE PUSH1 0x55 PUSH2 0xDE8 DUP4 PUSH2 0x1535 JUMP JUMPDEST MSTORE PUSH1 0x96 PUSH2 0xDF4 DUP4 PUSH2 0x1546 JUMP JUMPDEST MSTORE PUSH1 0x96 PUSH2 0xE00 DUP4 PUSH2 0x1557 JUMP JUMPDEST MSTORE PUSH1 0x96 PUSH2 0xE0C DUP4 PUSH2 0x1568 JUMP JUMPDEST MSTORE PUSH1 0x96 PUSH2 0xE18 DUP4 PUSH2 0x1579 JUMP JUMPDEST MSTORE PUSH1 0x96 PUSH2 0xE24 DUP4 PUSH2 0x158A JUMP JUMPDEST MSTORE PUSH1 0x92 PUSH2 0xE30 DUP4 PUSH2 0x159B JUMP JUMPDEST MSTORE PUSH1 0x92 PUSH2 0xE3C DUP4 PUSH2 0x15AB JUMP JUMPDEST MSTORE PUSH1 0x92 PUSH2 0xE48 DUP4 PUSH2 0x15BB JUMP JUMPDEST MSTORE PUSH1 0x92 PUSH2 0xE54 DUP4 PUSH2 0x15CB JUMP JUMPDEST MSTORE PUSH1 0x92 PUSH2 0xE60 DUP4 PUSH2 0x15DB JUMP JUMPDEST MSTORE PUSH1 0x5A PUSH2 0xE6C DUP4 PUSH2 0x15EB JUMP JUMPDEST MSTORE PUSH1 0x5A PUSH2 0xE78 DUP4 PUSH2 0x15FC JUMP JUMPDEST MSTORE PUSH1 0x5A PUSH2 0xE84 DUP4 PUSH2 0x160D JUMP JUMPDEST MSTORE PUSH1 0x5A PUSH2 0xE90 DUP4 PUSH2 0x161E JUMP JUMPDEST MSTORE PUSH1 0x5A PUSH2 0xE9C DUP4 PUSH2 0x162F JUMP JUMPDEST MSTORE PUSH1 0x5A PUSH2 0xEA8 DUP4 PUSH2 0x1640 JUMP JUMPDEST MSTORE PUSH1 0x5A PUSH2 0xEB4 DUP4 PUSH2 0x1651 JUMP JUMPDEST MSTORE PUSH1 0x5A PUSH2 0xEC0 DUP4 PUSH2 0x1662 JUMP JUMPDEST MSTORE PUSH1 0x50 PUSH2 0xECC DUP4 PUSH2 0x1673 JUMP JUMPDEST MSTORE PUSH1 0x50 PUSH2 0xED8 DUP4 PUSH2 0x1684 JUMP JUMPDEST MSTORE PUSH1 0x50 PUSH2 0xEE4 DUP4 PUSH2 0x1695 JUMP JUMPDEST MSTORE PUSH1 0x50 PUSH2 0xEF0 DUP4 PUSH2 0x16A6 JUMP JUMPDEST MSTORE PUSH1 0x50 PUSH2 0xEFC DUP4 PUSH2 0x16B7 JUMP JUMPDEST MSTORE PUSH1 0x50 PUSH2 0xF08 DUP4 PUSH2 0x16C8 JUMP JUMPDEST MSTORE PUSH1 0x50 PUSH2 0xF14 DUP4 PUSH2 0x16D9 JUMP JUMPDEST MSTORE PUSH1 0x50 PUSH2 0xF20 DUP4 PUSH2 0x16EA JUMP JUMPDEST MSTORE PUSH1 0x50 PUSH2 0xF2C DUP4 PUSH2 0x16FB JUMP JUMPDEST MSTORE PUSH1 0x57 PUSH2 0xF38 DUP4 PUSH2 0x170C JUMP JUMPDEST MSTORE PUSH1 0x57 PUSH2 0xF44 DUP4 PUSH2 0x171D JUMP JUMPDEST MSTORE PUSH1 0x57 PUSH2 0xF50 DUP4 PUSH2 0x172E JUMP JUMPDEST MSTORE PUSH1 0x57 PUSH2 0xF5C DUP4 PUSH2 0x173F JUMP JUMPDEST MSTORE PUSH1 0x57 PUSH2 0xF68 DUP4 PUSH2 0x1750 JUMP JUMPDEST MSTORE PUSH1 0x57 PUSH2 0xF74 DUP4 PUSH2 0x1761 JUMP JUMPDEST MSTORE PUSH1 0x57 PUSH2 0xF80 DUP4 PUSH2 0x1772 JUMP JUMPDEST MSTORE PUSH1 0x57 PUSH2 0xF8C DUP4 PUSH2 0x1783 JUMP JUMPDEST MSTORE PUSH1 0x49 PUSH2 0xF98 DUP4 PUSH2 0x1794 JUMP JUMPDEST MSTORE PUSH1 0x49 PUSH2 0xFA4 DUP4 PUSH2 0x17A5 JUMP JUMPDEST MSTORE PUSH1 0x49 PUSH2 0xFB0 DUP4 PUSH2 0x17B6 JUMP JUMPDEST MSTORE PUSH1 0x49 PUSH2 0xFBC DUP4 PUSH2 0x17C7 JUMP JUMPDEST MSTORE PUSH1 0x49 PUSH2 0xFC8 DUP4 PUSH2 0x17D8 JUMP JUMPDEST MSTORE PUSH1 0x49 PUSH2 0xFD4 DUP4 PUSH2 0x17E9 JUMP JUMPDEST MSTORE PUSH1 0x49 PUSH2 0xFE0 DUP4 PUSH2 0x17FA JUMP JUMPDEST MSTORE PUSH1 0x49 PUSH2 0xFEC DUP4 PUSH2 0x180B JUMP JUMPDEST MSTORE PUSH1 0x49 PUSH2 0xFF8 DUP4 PUSH2 0x181C JUMP JUMPDEST MSTORE PUSH2 0x177 PUSH2 0x1005 DUP4 PUSH2 0x182D JUMP JUMPDEST MSTORE PUSH1 0x4A PUSH2 0x1011 DUP4 PUSH2 0x183E JUMP JUMPDEST MSTORE PUSH1 0x4A PUSH2 0x101D DUP4 PUSH2 0x184F JUMP JUMPDEST MSTORE PUSH1 0x4A PUSH2 0x1029 DUP4 PUSH2 0x1860 JUMP JUMPDEST MSTORE PUSH1 0x4A PUSH2 0x1035 DUP4 PUSH2 0x1871 JUMP JUMPDEST MSTORE PUSH1 0x4A PUSH2 0x1041 DUP4 PUSH2 0x1882 JUMP JUMPDEST MSTORE PUSH1 0x5B PUSH2 0x104D DUP4 PUSH2 0x1893 JUMP JUMPDEST MSTORE PUSH1 0x5B PUSH2 0x1059 DUP4 PUSH2 0x18A4 JUMP JUMPDEST MSTORE PUSH1 0x5B PUSH2 0x1065 DUP4 PUSH2 0x18B5 JUMP JUMPDEST MSTORE PUSH1 0x5B PUSH2 0x1071 DUP4 PUSH2 0x18C6 JUMP JUMPDEST MSTORE PUSH1 0x2C PUSH2 0x107D DUP4 PUSH2 0x18D7 JUMP JUMPDEST MSTORE PUSH1 0x2C PUSH2 0x1089 DUP4 PUSH2 0x18E8 JUMP JUMPDEST MSTORE PUSH1 0x2C PUSH2 0x1095 DUP4 PUSH2 0x18F9 JUMP JUMPDEST MSTORE PUSH1 0x2C PUSH2 0x10A1 DUP4 PUSH2 0x190A JUMP JUMPDEST MSTORE PUSH1 0x2C PUSH2 0x10AD DUP4 PUSH2 0x191B JUMP JUMPDEST MSTORE PUSH1 0x2C PUSH2 0x10B9 DUP4 PUSH2 0x192C JUMP JUMPDEST MSTORE PUSH1 0x2C PUSH2 0x10C5 DUP4 PUSH2 0x193D JUMP JUMPDEST MSTORE PUSH1 0x2C PUSH2 0x10D1 DUP4 PUSH2 0x194E JUMP JUMPDEST MSTORE PUSH1 0x74 PUSH2 0x10DD DUP4 PUSH2 0x195F JUMP JUMPDEST MSTORE PUSH1 0x74 PUSH2 0x10E9 DUP4 PUSH2 0x1970 JUMP JUMPDEST MSTORE PUSH1 0x74 PUSH2 0x10F5 DUP4 PUSH2 0x1981 JUMP JUMPDEST MSTORE PUSH2 0x154 PUSH2 0x1102 DUP4 PUSH2 0x1992 JUMP JUMPDEST MSTORE PUSH1 0x30 PUSH2 0x110E DUP4 PUSH2 0x19A3 JUMP JUMPDEST MSTORE PUSH1 0x30 PUSH2 0x111A DUP4 PUSH2 0x19B4 JUMP JUMPDEST MSTORE PUSH1 0x30 PUSH2 0x1126 DUP4 PUSH2 0x19C5 JUMP JUMPDEST MSTORE PUSH1 0x30 PUSH2 0x1132 DUP4 PUSH2 0x19D6 JUMP JUMPDEST MSTORE PUSH1 0x30 PUSH2 0x113E DUP4 PUSH2 0x19E7 JUMP JUMPDEST MSTORE PUSH1 0x30 PUSH2 0x114A DUP4 PUSH2 0x19F8 JUMP JUMPDEST MSTORE PUSH1 0x30 PUSH2 0x1156 DUP4 PUSH2 0x1A09 JUMP JUMPDEST MSTORE PUSH1 0xE1 PUSH2 0x1162 DUP4 PUSH2 0x1A1A JUMP JUMPDEST MSTORE PUSH1 0x18 PUSH2 0x116E DUP4 PUSH2 0x1A2A JUMP JUMPDEST MSTORE PUSH1 0x18 PUSH2 0x117A DUP4 PUSH2 0x1A3B JUMP JUMPDEST MSTORE PUSH1 0x18 PUSH2 0x1186 DUP4 PUSH2 0x1A4C JUMP JUMPDEST MSTORE PUSH1 0x18 PUSH2 0x1192 DUP4 PUSH2 0x1A5D JUMP JUMPDEST MSTORE PUSH1 0x18 PUSH2 0x119E DUP4 PUSH2 0x1A6E JUMP JUMPDEST MSTORE PUSH1 0x18 PUSH2 0x11AA DUP4 PUSH2 0x1A7F JUMP JUMPDEST MSTORE PUSH1 0x18 PUSH2 0x11B6 DUP4 PUSH2 0x1A90 JUMP JUMPDEST MSTORE PUSH1 0x18 PUSH2 0x11C2 DUP4 PUSH2 0x1AA1 JUMP JUMPDEST MSTORE PUSH1 0x18 PUSH2 0x11CE DUP4 PUSH2 0x1AB2 JUMP JUMPDEST MSTORE PUSH1 0xC8 PUSH2 0x11DA DUP4 PUSH2 0x1AC3 JUMP JUMPDEST MSTORE PUSH1 0x40 PUSH2 0x11E6 DUP4 PUSH2 0x1AD4 JUMP JUMPDEST MSTORE PUSH1 0x40 PUSH2 0x11F2 DUP4 PUSH2 0x1AE5 JUMP JUMPDEST MSTORE PUSH1 0x40 PUSH2 0x11FE DUP4 PUSH2 0x1AF6 JUMP JUMPDEST MSTORE PUSH1 0x32 PUSH2 0x120A DUP4 PUSH2 0x1B07 JUMP JUMPDEST MSTORE PUSH1 0x32 PUSH2 0x1216 DUP4 PUSH2 0x1B18 JUMP JUMPDEST MSTORE PUSH1 0x32 PUSH2 0x1222 DUP4 PUSH2 0x1B29 JUMP JUMPDEST MSTORE PUSH1 0x4B PUSH2 0x122E DUP4 PUSH2 0x1B3A JUMP JUMPDEST MSTORE PUSH1 0x28 PUSH2 0x123A DUP4 PUSH2 0x1B4B JUMP JUMPDEST MSTORE PUSH1 0x19 PUSH2 0x1246 DUP4 PUSH2 0x1B5C JUMP JUMPDEST MSTORE PUSH1 0x41 PUSH2 0x1252 DUP4 PUSH2 0x1B6D JUMP JUMPDEST MSTORE PUSH1 0xF PUSH2 0x125E DUP4 PUSH2 0x1B7E JUMP JUMPDEST MSTORE PUSH1 0xF PUSH2 0x126A DUP4 PUSH2 0x1B8F JUMP JUMPDEST MSTORE PUSH1 0xF PUSH2 0x1276 DUP4 PUSH2 0x1BA0 JUMP JUMPDEST MSTORE PUSH1 0xF PUSH2 0x1282 DUP4 PUSH2 0x1BB1 JUMP JUMPDEST MSTORE PUSH1 0x37 PUSH2 0x128E DUP4 PUSH2 0x1BC2 JUMP JUMPDEST MSTORE PUSH1 0x32 PUSH2 0x129A DUP4 PUSH2 0x1BD3 JUMP JUMPDEST MSTORE PUSH1 0x6 PUSH2 0x12A6 DUP4 PUSH2 0x1BE4 JUMP JUMPDEST MSTORE PUSH1 0x6 PUSH2 0x12B2 DUP4 PUSH2 0x1BF5 JUMP JUMPDEST MSTORE PUSH1 0x6 PUSH2 0x12BE DUP4 PUSH2 0x1C06 JUMP JUMPDEST MSTORE PUSH1 0x6 PUSH2 0x12CA DUP4 PUSH2 0x1C17 JUMP JUMPDEST MSTORE PUSH1 0x6 PUSH2 0x12D6 DUP4 PUSH2 0x1C28 JUMP JUMPDEST MSTORE PUSH1 0x6 PUSH2 0x12E2 DUP4 PUSH2 0x1C39 JUMP JUMPDEST MSTORE PUSH1 0x6 PUSH2 0x12EE DUP4 PUSH2 0x1C4A JUMP JUMPDEST MSTORE PUSH1 0x5 PUSH2 0x12FA DUP4 PUSH2 0x1C5B JUMP JUMPDEST MSTORE PUSH1 0x5 PUSH2 0x1306 DUP4 PUSH2 0x1C6C JUMP JUMPDEST MSTORE PUSH1 0x5 PUSH2 0x1312 DUP4 PUSH2 0x1C7D JUMP JUMPDEST MSTORE PUSH1 0x5 PUSH2 0x131E DUP4 PUSH2 0x1C8E JUMP JUMPDEST MSTORE PUSH1 0x5 PUSH2 0x132A DUP4 PUSH2 0x1C9F JUMP JUMPDEST MSTORE PUSH1 0x5 PUSH2 0x1336 DUP4 PUSH2 0x1CB0 JUMP JUMPDEST MSTORE PUSH1 0x5 PUSH2 0x1342 DUP4 PUSH2 0x1CC1 JUMP JUMPDEST MSTORE PUSH1 0x5 PUSH2 0x134E DUP4 PUSH2 0x1CD2 JUMP JUMPDEST MSTORE PUSH1 0x19 PUSH2 0x135A DUP4 PUSH2 0x1CE3 JUMP JUMPDEST MSTORE PUSH1 0xA PUSH2 0x1366 DUP4 PUSH2 0x1CF4 JUMP JUMPDEST MSTORE PUSH1 0x1E PUSH2 0x1372 DUP4 PUSH2 0x1D05 JUMP JUMPDEST MSTORE PUSH1 0xF PUSH2 0x137E DUP4 PUSH2 0x1D16 JUMP JUMPDEST MSTORE PUSH1 0x3 PUSH2 0xF3 DUP4 PUSH2 0x1D27 JUMP JUMPDEST PUSH1 0x83 DUP2 LT ISZERO PUSH2 0x10D JUMPI PUSH1 0x20 SWAP1 PUSH1 0x40 MLOAD SWAP1 DUP2 MSTORE RETURN JUMPDEST PUSH1 0x40 DUP2 ADD SWAP1 DUP2 LT PUSH8 0xFFFFFFFFFFFFFFFF DUP3 GT OR PUSH2 0x13BA JUMPI PUSH1 0x40 MSTORE JUMP JUMPDEST PUSH4 0x4E487B71 PUSH1 0xE0 SHL PUSH0 MSTORE PUSH1 0x41 PUSH1 0x4 MSTORE PUSH1 0x24 PUSH0 REVERT JUMPDEST SWAP1 PUSH1 0x1F DUP1 NOT SWAP2 ADD AND DUP2 ADD SWAP1 DUP2 LT PUSH8 0xFFFFFFFFFFFFFFFF DUP3 GT OR PUSH2 0x13BA JUMPI PUSH1 0x40 MSTORE JUMP JUMPDEST PUSH1 0x40 SWAP1 PUSH1 0x3 NOT ADD SLT PUSH2 0x27F JUMPI PUSH1 0x40 MLOAD SWAP1 PUSH2 0x1409 DUP3 PUSH2 0x139E JUMP JUMPDEST PUSH1 0x4 CALLDATALOAD DUP3 MSTORE PUSH1 0x24 CALLDATALOAD PUSH1 0x20 DUP4 ADD MSTORE JUMP JUMPDEST PUSH1 0x9 GT ISZERO PUSH2 0x10D JUMPI JUMP JUMPDEST SWAP1 PUSH1 0x60 PUSH1 0x3 NOT DUP4 ADD SLT PUSH2 0x27F JUMPI PUSH1 0x4 CALLDATALOAD PUSH8 0xFFFFFFFFFFFFFFFF DUP2 GT PUSH2 0x27F JUMPI PUSH2 0x400 DUP2 DUP5 SUB PUSH1 0x3 NOT ADD SLT PUSH2 0x27F JUMPI PUSH1 0x24 PUSH1 0x40 SWAP2 PUSH1 0x4 ADD SWAP4 SUB SLT PUSH2 0x27F JUMPI PUSH1 0x40 MLOAD PUSH2 0x146B DUP2 PUSH2 0x139E JUMP JUMPDEST PUSH1 0x24 CALLDATALOAD DUP2 MSTORE PUSH1 0x44 CALLDATALOAD PUSH1 0x20 DUP3 ADD MSTORE SWAP1 JUMP JUMPDEST DUP1 MLOAD ISZERO PUSH2 0x1488 JUMPI PUSH1 0x20 ADD SWAP1 JUMP JUMPDEST PUSH4 0x4E487B71 PUSH1 0xE0 SHL PUSH0 MSTORE PUSH1 0x32 PUSH1 0x4 MSTORE PUSH1 0x24 PUSH0 REVERT JUMPDEST DUP1 MLOAD PUSH1 0x59 LT ISZERO PUSH2 0x1488 JUMPI PUSH2 0xB40 ADD SWAP1 JUMP JUMPDEST DUP1 MLOAD PUSH1 0x5A LT ISZERO PUSH2 0x1488 JUMPI PUSH2 0xB60 ADD SWAP1 JUMP JUMPDEST DUP1 MLOAD PUSH1 0x5B LT ISZERO PUSH2 0x1488 JUMPI PUSH2 0xB80 ADD SWAP1 JUMP JUMPDEST DUP1 MLOAD PUSH1 0x5C LT ISZERO PUSH2 0x1488 JUMPI PUSH2 0xBA0 ADD SWAP1 JUMP JUMPDEST DUP1 MLOAD PUSH1 0x5D LT ISZERO PUSH2 0x1488 JUMPI PUSH2 0xBC0 ADD SWAP1 JUMP JUMPDEST DUP1 MLOAD PUSH1 0x5E LT ISZERO PUSH2 0x1488 JUMPI PUSH2 0xBE0 ADD SWAP1 JUMP JUMPDEST DUP1 MLOAD PUSH1 0x5F LT ISZERO PUSH2 0x1488 JUMPI PUSH2 0xC00 ADD SWAP1 JUMP JUMPDEST DUP1 MLOAD PUSH1 0x60 LT ISZERO PUSH2 0x1488 JUMPI PUSH2 0xC20 ADD SWAP1 JUMP JUMPDEST DUP1 MLOAD PUSH1 0x61 LT ISZERO PUSH2 0x1488 JUMPI PUSH2 0xC40 ADD SWAP1 JUMP JUMPDEST DUP1 MLOAD PUSH1 0x62 LT ISZERO PUSH2 0x1488 JUMPI PUSH2 0xC60 ADD SWAP1 JUMP JUMPDEST DUP1 MLOAD PUSH1 0x1C LT ISZERO PUSH2 0x1488 JUMPI PUSH2 0x3A0 ADD SWAP1 JUMP JUMPDEST DUP1 MLOAD PUSH1 0x1D LT ISZERO PUSH2 0x1488 JUMPI PUSH2 0x3C0 ADD SWAP1 JUMP JUMPDEST DUP1 MLOAD PUSH1 0x1E LT ISZERO PUSH2 0x1488 JUMPI PUSH2 0x3E0 ADD SWAP1 JUMP JUMPDEST DUP1 MLOAD PUSH1 0x1F LT ISZERO PUSH2 0x1488 JUMPI PUSH2 0x400 ADD SWAP1 JUMP JUMPDEST DUP1 MLOAD PUSH1 0x20 LT ISZERO PUSH2 0x1488 JUMPI PUSH2 0x420 ADD SWAP1 JUMP JUMPDEST DUP1 MLOAD PUSH1 0x2 LT ISZERO PUSH2 0x1488 JUMPI PUSH1 0x60 ADD SWAP1 JUMP JUMPDEST DUP1 MLOAD PUSH1 0x3 LT ISZERO PUSH2 0x1488 JUMPI PUSH1 0x80 ADD SWAP1 JUMP JUMPDEST DUP1 MLOAD PUSH1 0x4 LT ISZERO PUSH2 0x1488 JUMPI PUSH1 0xA0 ADD SWAP1 JUMP JUMPDEST DUP1 MLOAD PUSH1 0x5 LT ISZERO PUSH2 0x1488 JUMPI PUSH1 0xC0 ADD SWAP1 JUMP JUMPDEST DUP1 MLOAD PUSH1 0x6 LT ISZERO PUSH2 0x1488 JUMPI PUSH1 0xE0 ADD SWAP1 JUMP JUMPDEST DUP1 MLOAD PUSH1 0x51 LT ISZERO PUSH2 0x1488 JUMPI PUSH2 0xA40 ADD SWAP1 JUMP JUMPDEST DUP1 MLOAD PUSH1 0x52 LT ISZERO PUSH2 0x1488 JUMPI PUSH2 0xA60 ADD SWAP1 JUMP JUMPDEST DUP1 MLOAD PUSH1 0x53 LT ISZERO PUSH2 0x1488 JUMPI PUSH2 0xA80 ADD SWAP1 JUMP JUMPDEST DUP1 MLOAD PUSH1 0x54 LT ISZERO PUSH2 0x1488 JUMPI PUSH2 0xAA0 ADD SWAP1 JUMP JUMPDEST DUP1 MLOAD PUSH1 0x55 LT ISZERO PUSH2 0x1488 JUMPI PUSH2 0xAC0 ADD SWAP1 JUMP JUMPDEST DUP1 MLOAD PUSH1 0x56 LT ISZERO PUSH2 0x1488 JUMPI PUSH2 0xAE0 ADD SWAP1 JUMP JUMPDEST DUP1 MLOAD PUSH1 0x57 LT ISZERO PUSH2 0x1488 JUMPI PUSH2 0xB00 ADD SWAP1 JUMP JUMPDEST DUP1 MLOAD PUSH1 0x58 LT ISZERO PUSH2 0x1488 JUMPI PUSH2 0xB20 ADD SWAP1 JUMP JUMPDEST DUP1 MLOAD PUSH1 0x10 LT ISZERO PUSH2 0x1488 JUMPI PUSH2 0x220 ADD SWAP1 JUMP JUMPDEST DUP1 MLOAD PUSH1 0x11 LT ISZERO PUSH2 0x1488 JUMPI PUSH2 0x240 ADD SWAP1 JUMP JUMPDEST DUP1 MLOAD PUSH1 0x12 LT ISZERO PUSH2 0x1488 JUMPI PUSH2 0x260 ADD SWAP1 JUMP JUMPDEST DUP1 MLOAD PUSH1 0x13 LT ISZERO PUSH2 0x1488 JUMPI PUSH2 0x280 ADD SWAP1 JUMP JUMPDEST DUP1 MLOAD PUSH1 0x14 LT ISZERO PUSH2 0x1488 JUMPI PUSH2 0x2A0 ADD SWAP1 JUMP JUMPDEST DUP1 MLOAD PUSH1 0x15 LT ISZERO PUSH2 0x1488 JUMPI PUSH2 0x2C0 ADD SWAP1 JUMP JUMPDEST DUP1 MLOAD PUSH1 0x16 LT ISZERO PUSH2 0x1488 JUMPI PUSH2 0x2E0 ADD SWAP1 JUMP JUMPDEST DUP1 MLOAD PUSH1 0x17 LT ISZERO PUSH2 0x1488 JUMPI PUSH2 0x300 ADD SWAP1 JUMP JUMPDEST DUP1 MLOAD PUSH1 0x18 LT ISZERO PUSH2 0x1488 JUMPI PUSH2 0x320 ADD SWAP1 JUMP JUMPDEST DUP1 MLOAD PUSH1 0x73 LT ISZERO PUSH2 0x1488 JUMPI PUSH2 0xE80 ADD SWAP1 JUMP JUMPDEST DUP1 MLOAD PUSH1 0x74 LT ISZERO PUSH2 0x1488 JUMPI PUSH2 0xEA0 ADD SWAP1 JUMP JUMPDEST DUP1 MLOAD PUSH1 0x75 LT ISZERO PUSH2 0x1488 JUMPI PUSH2 0xEC0 ADD SWAP1 JUMP JUMPDEST DUP1 MLOAD PUSH1 0x76 LT ISZERO PUSH2 0x1488 JUMPI PUSH2 0xEE0 ADD SWAP1 JUMP JUMPDEST DUP1 MLOAD PUSH1 0x77 LT ISZERO PUSH2 0x1488 JUMPI PUSH2 0xF00 ADD SWAP1 JUMP JUMPDEST DUP1 MLOAD PUSH1 0x78 LT ISZERO PUSH2 0x1488 JUMPI PUSH2 0xF20 ADD SWAP1 JUMP JUMPDEST DUP1 MLOAD PUSH1 0x79 LT ISZERO PUSH2 0x1488 JUMPI PUSH2 0xF40 ADD SWAP1 JUMP JUMPDEST DUP1 MLOAD PUSH1 0x7A LT ISZERO PUSH2 0x1488 JUMPI PUSH2 0xF60 ADD SWAP1 JUMP JUMPDEST DUP1 MLOAD PUSH1 0x7 LT ISZERO PUSH2 0x1488 JUMPI PUSH2 0x100 ADD SWAP1 JUMP JUMPDEST DUP1 MLOAD PUSH1 0x8 LT ISZERO PUSH2 0x1488 JUMPI PUSH2 0x120 ADD SWAP1 JUMP JUMPDEST DUP1 MLOAD PUSH1 0x9 LT ISZERO PUSH2 0x1488 JUMPI PUSH2 0x140 ADD SWAP1 JUMP JUMPDEST DUP1 MLOAD PUSH1 0xA LT ISZERO PUSH2 0x1488 JUMPI PUSH2 0x160 ADD SWAP1 JUMP JUMPDEST DUP1 MLOAD PUSH1 0xB LT ISZERO PUSH2 0x1488 JUMPI PUSH2 0x180 ADD SWAP1 JUMP JUMPDEST DUP1 MLOAD PUSH1 0xC LT ISZERO PUSH2 0x1488 JUMPI PUSH2 0x1A0 ADD SWAP1 JUMP JUMPDEST DUP1 MLOAD PUSH1 0xD LT ISZERO PUSH2 0x1488 JUMPI PUSH2 0x1C0 ADD SWAP1 JUMP JUMPDEST DUP1 MLOAD PUSH1 0xE LT ISZERO PUSH2 0x1488 JUMPI PUSH2 0x1E0 ADD SWAP1 JUMP JUMPDEST DUP1 MLOAD PUSH1 0xF LT ISZERO PUSH2 0x1488 JUMPI PUSH2 0x200 ADD SWAP1 JUMP JUMPDEST DUP1 MLOAD PUSH1 0x34 LT ISZERO PUSH2 0x1488 JUMPI PUSH2 0x6A0 ADD SWAP1 JUMP JUMPDEST DUP1 MLOAD PUSH1 0x35 LT ISZERO PUSH2 0x1488 JUMPI PUSH2 0x6C0 ADD SWAP1 JUMP JUMPDEST DUP1 MLOAD PUSH1 0x36 LT ISZERO PUSH2 0x1488 JUMPI PUSH2 0x6E0 ADD SWAP1 JUMP JUMPDEST DUP1 MLOAD PUSH1 0x37 LT ISZERO PUSH2 0x1488 JUMPI PUSH2 0x700 ADD SWAP1 JUMP JUMPDEST DUP1 MLOAD PUSH1 0x38 LT ISZERO PUSH2 0x1488 JUMPI PUSH2 0x720 ADD SWAP1 JUMP JUMPDEST DUP1 MLOAD PUSH1 0x39 LT ISZERO PUSH2 0x1488 JUMPI PUSH2 0x740 ADD SWAP1 JUMP JUMPDEST DUP1 MLOAD PUSH1 0x6E LT ISZERO PUSH2 0x1488 JUMPI PUSH2 0xDE0 ADD SWAP1 JUMP JUMPDEST DUP1 MLOAD PUSH1 0x6F LT ISZERO PUSH2 0x1488 JUMPI PUSH2 0xE00 ADD SWAP1 JUMP JUMPDEST DUP1 MLOAD PUSH1 0x70 LT ISZERO PUSH2 0x1488 JUMPI PUSH2 0xE20 ADD SWAP1 JUMP JUMPDEST DUP1 MLOAD PUSH1 0x71 LT ISZERO PUSH2 0x1488 JUMPI PUSH2 0xE40 ADD SWAP1 JUMP JUMPDEST DUP1 MLOAD PUSH1 0x63 LT ISZERO PUSH2 0x1488 JUMPI PUSH2 0xC80 ADD SWAP1 JUMP JUMPDEST DUP1 MLOAD PUSH1 0x64 LT ISZERO PUSH2 0x1488 JUMPI PUSH2 0xCA0 ADD SWAP1 JUMP JUMPDEST DUP1 MLOAD PUSH1 0x65 LT ISZERO PUSH2 0x1488 JUMPI PUSH2 0xCC0 ADD SWAP1 JUMP JUMPDEST DUP1 MLOAD PUSH1 0x66 LT ISZERO PUSH2 0x1488 JUMPI PUSH2 0xCE0 ADD SWAP1 JUMP JUMPDEST DUP1 MLOAD PUSH1 0x67 LT ISZERO PUSH2 0x1488 JUMPI PUSH2 0xD00 ADD SWAP1 JUMP JUMPDEST DUP1 MLOAD PUSH1 0x68 LT ISZERO PUSH2 0x1488 JUMPI PUSH2 0xD20 ADD SWAP1 JUMP JUMPDEST DUP1 MLOAD PUSH1 0x69 LT ISZERO PUSH2 0x1488 JUMPI PUSH2 0xD40 ADD SWAP1 JUMP JUMPDEST DUP1 MLOAD PUSH1 0x6A LT ISZERO PUSH2 0x1488 JUMPI PUSH2 0xD60 ADD SWAP1 JUMP JUMPDEST DUP1 MLOAD PUSH1 0x4E LT ISZERO PUSH2 0x1488 JUMPI PUSH2 0x9E0 ADD SWAP1 JUMP JUMPDEST DUP1 MLOAD PUSH1 0x4F LT ISZERO PUSH2 0x1488 JUMPI PUSH2 0xA00 ADD SWAP1 JUMP JUMPDEST DUP1 MLOAD PUSH1 0x50 LT ISZERO PUSH2 0x1488 JUMPI PUSH2 0xA20 ADD SWAP1 JUMP JUMPDEST DUP1 MLOAD PUSH1 0x72 LT ISZERO PUSH2 0x1488 JUMPI PUSH2 0xE60 ADD SWAP1 JUMP JUMPDEST DUP1 MLOAD PUSH1 0x42 LT ISZERO PUSH2 0x1488 JUMPI PUSH2 0x860 ADD SWAP1 JUMP JUMPDEST DUP1 MLOAD PUSH1 0x43 LT ISZERO PUSH2 0x1488 JUMPI PUSH2 0x880 ADD SWAP1 JUMP JUMPDEST DUP1 MLOAD PUSH1 0x44 LT ISZERO PUSH2 0x1488 JUMPI PUSH2 0x8A0 ADD SWAP1 JUMP JUMPDEST DUP1 MLOAD PUSH1 0x45 LT ISZERO PUSH2 0x1488 JUMPI PUSH2 0x8C0 ADD SWAP1 JUMP JUMPDEST DUP1 MLOAD PUSH1 0x46 LT ISZERO PUSH2 0x1488 JUMPI PUSH2 0x8E0 ADD SWAP1 JUMP JUMPDEST DUP1 MLOAD PUSH1 0x47 LT ISZERO PUSH2 0x1488 JUMPI PUSH2 0x900 ADD SWAP1 JUMP JUMPDEST DUP1 MLOAD PUSH1 0x48 LT ISZERO PUSH2 0x1488 JUMPI PUSH2 0x920 ADD SWAP1 JUMP JUMPDEST DUP1 MLOAD PUSH1 0x1 LT ISZERO PUSH2 0x1488 JUMPI PUSH1 0x40 ADD SWAP1 JUMP JUMPDEST DUP1 MLOAD PUSH1 0x29 LT ISZERO PUSH2 0x1488 JUMPI PUSH2 0x540 ADD SWAP1 JUMP JUMPDEST DUP1 MLOAD PUSH1 0x2A LT ISZERO PUSH2 0x1488 JUMPI PUSH2 0x560 ADD SWAP1 JUMP JUMPDEST DUP1 MLOAD PUSH1 0x2B LT ISZERO PUSH2 0x1488 JUMPI PUSH2 0x580 ADD SWAP1 JUMP JUMPDEST DUP1 MLOAD PUSH1 0x2C LT ISZERO PUSH2 0x1488 JUMPI PUSH2 0x5A0 ADD SWAP1 JUMP JUMPDEST DUP1 MLOAD PUSH1 0x2D LT ISZERO PUSH2 0x1488 JUMPI PUSH2 0x5C0 ADD SWAP1 JUMP JUMPDEST DUP1 MLOAD PUSH1 0x2E LT ISZERO PUSH2 0x1488 JUMPI PUSH2 0x5E0 ADD SWAP1 JUMP JUMPDEST DUP1 MLOAD PUSH1 0x2F LT ISZERO PUSH2 0x1488 JUMPI PUSH2 0x600 ADD SWAP1 JUMP JUMPDEST DUP1 MLOAD PUSH1 0x30 LT ISZERO PUSH2 0x1488 JUMPI PUSH2 0x620 ADD SWAP1 JUMP JUMPDEST DUP1 MLOAD PUSH1 0x31 LT ISZERO PUSH2 0x1488 JUMPI PUSH2 0x640 ADD SWAP1 JUMP JUMPDEST DUP1 MLOAD PUSH1 0x21 LT ISZERO PUSH2 0x1488 JUMPI PUSH2 0x440 ADD SWAP1 JUMP JUMPDEST DUP1 MLOAD PUSH1 0x19 LT ISZERO PUSH2 0x1488 JUMPI PUSH2 0x340 ADD SWAP1 JUMP JUMPDEST DUP1 MLOAD PUSH1 0x1A LT ISZERO PUSH2 0x1488 JUMPI PUSH2 0x360 ADD SWAP1 JUMP JUMPDEST DUP1 MLOAD PUSH1 0x1B LT ISZERO PUSH2 0x1488 JUMPI PUSH2 0x380 ADD SWAP1 JUMP JUMPDEST DUP1 MLOAD PUSH1 0x3F LT ISZERO PUSH2 0x1488 JUMPI PUSH2 0x800 ADD SWAP1 JUMP JUMPDEST DUP1 MLOAD PUSH1 0x40 LT ISZERO PUSH2 0x1488 JUMPI PUSH2 0x820 ADD SWAP1 JUMP JUMPDEST DUP1 MLOAD PUSH1 0x41 LT ISZERO PUSH2 0x1488 JUMPI PUSH2 0x840 ADD SWAP1 JUMP JUMPDEST DUP1 MLOAD PUSH1 0x4A LT ISZERO PUSH2 0x1488 JUMPI PUSH2 0x960 ADD SWAP1 JUMP JUMPDEST DUP1 MLOAD PUSH1 0x4C LT ISZERO PUSH2 0x1488 JUMPI PUSH2 0x9A0 ADD SWAP1 JUMP JUMPDEST DUP1 MLOAD PUSH1 0x4D LT ISZERO PUSH2 0x1488 JUMPI PUSH2 0x9C0 ADD SWAP1 JUMP JUMPDEST DUP1 MLOAD PUSH1 0x3A LT ISZERO PUSH2 0x1488 JUMPI PUSH2 0x760 ADD SWAP1 JUMP JUMPDEST DUP1 MLOAD PUSH1 0x3B LT ISZERO PUSH2 0x1488 JUMPI PUSH2 0x780 ADD SWAP1 JUMP JUMPDEST DUP1 MLOAD PUSH1 0x3C LT ISZERO PUSH2 0x1488 JUMPI PUSH2 0x7A0 ADD SWAP1 JUMP JUMPDEST DUP1 MLOAD PUSH1 0x3D LT ISZERO PUSH2 0x1488 JUMPI PUSH2 0x7C0 ADD SWAP1 JUMP JUMPDEST DUP1 MLOAD PUSH1 0x3E LT ISZERO PUSH2 0x1488 JUMPI PUSH2 0x7E0 ADD SWAP1 JUMP JUMPDEST DUP1 MLOAD PUSH1 0x6D LT ISZERO PUSH2 0x1488 JUMPI PUSH2 0xDC0 ADD SWAP1 JUMP JUMPDEST DUP1 MLOAD PUSH1 0x49 LT ISZERO PUSH2 0x1488 JUMPI PUSH2 0x940 ADD SWAP1 JUMP JUMPDEST DUP1 MLOAD PUSH1 0x22 LT ISZERO PUSH2 0x1488 JUMPI PUSH2 0x460 ADD SWAP1 JUMP JUMPDEST DUP1 MLOAD PUSH1 0x28 LT ISZERO PUSH2 0x1488 JUMPI PUSH2 0x520 ADD SWAP1 JUMP JUMPDEST DUP1 MLOAD PUSH1 0x23 LT ISZERO PUSH2 0x1488 JUMPI PUSH2 0x480 ADD SWAP1 JUMP JUMPDEST DUP1 MLOAD PUSH1 0x24 LT ISZERO PUSH2 0x1488 JUMPI PUSH2 0x4A0 ADD SWAP1 JUMP JUMPDEST DUP1 MLOAD PUSH1 0x25 LT ISZERO PUSH2 0x1488 JUMPI PUSH2 0x4C0 ADD SWAP1 JUMP JUMPDEST DUP1 MLOAD PUSH1 0x26 LT ISZERO PUSH2 0x1488 JUMPI PUSH2 0x4E0 ADD SWAP1 JUMP JUMPDEST DUP1 MLOAD PUSH1 0x27 LT ISZERO PUSH2 0x1488 JUMPI PUSH2 0x500 ADD SWAP1 JUMP JUMPDEST DUP1 MLOAD PUSH1 0x7B LT ISZERO PUSH2 0x1488 JUMPI PUSH2 0xF80 ADD SWAP1 JUMP JUMPDEST DUP1 MLOAD PUSH1 0x7C LT ISZERO PUSH2 0x1488 JUMPI PUSH2 0xFA0 ADD SWAP1 JUMP JUMPDEST DUP1 MLOAD PUSH1 0x7D LT ISZERO PUSH2 0x1488 JUMPI PUSH2 0xFC0 ADD SWAP1 JUMP JUMPDEST DUP1 MLOAD PUSH1 0x7E LT ISZERO PUSH2 0x1488 JUMPI PUSH2 0xFE0 ADD SWAP1 JUMP JUMPDEST DUP1 MLOAD PUSH1 0x7F LT ISZERO PUSH2 0x1488 JUMPI PUSH2 0x1000 ADD SWAP1 JUMP JUMPDEST DUP1 MLOAD PUSH1 0x80 LT ISZERO PUSH2 0x1488 JUMPI PUSH2 0x1020 ADD SWAP1 JUMP JUMPDEST DUP1 MLOAD PUSH1 0x81 LT ISZERO PUSH2 0x1488 JUMPI PUSH2 0x1040 ADD SWAP1 JUMP JUMPDEST DUP1 MLOAD PUSH1 0x82 LT ISZERO PUSH2 0x1488 JUMPI PUSH2 0x1060 ADD SWAP1 JUMP JUMPDEST DUP1 MLOAD PUSH1 0x6C LT ISZERO PUSH2 0x1488 JUMPI PUSH2 0xDA0 ADD SWAP1 JUMP JUMPDEST DUP1 MLOAD PUSH1 0x6B LT ISZERO PUSH2 0x1488 JUMPI PUSH2 0xD80 ADD SWAP1 JUMP JUMPDEST DUP1 MLOAD PUSH1 0x33 LT ISZERO PUSH2 0x1488 JUMPI PUSH2 0x680 ADD SWAP1 JUMP JUMPDEST DUP1 MLOAD PUSH1 0x32 LT ISZERO PUSH2 0x1488 JUMPI PUSH2 0x660 ADD SWAP1 JUMP JUMPDEST DUP1 MLOAD PUSH1 0x4B LT ISZERO PUSH2 0x1488 JUMPI PUSH2 0x980 ADD SWAP1 JUMP JUMPDEST DUP1 MLOAD PUSH1 0x84 LT ISZERO PUSH2 0x1488 JUMPI PUSH2 0x10A0 ADD SWAP1 JUMP JUMPDEST DUP1 MLOAD PUSH1 0x83 LT ISZERO PUSH2 0x1488 JUMPI PUSH2 0x1080 ADD SWAP1 JUMP JUMPDEST DUP1 MLOAD DUP3 LT ISZERO PUSH2 0x1488 JUMPI PUSH1 0x20 SWAP2 PUSH1 0x5 SHL ADD ADD SWAP1 JUMP JUMPDEST CALLDATALOAD SWAP1 PUSH1 0xFF DUP3 AND DUP3 SUB PUSH2 0x27F JUMPI JUMP JUMPDEST CALLDATALOAD SWAP1 PUSH2 0xFFFF DUP3 AND DUP3 SUB PUSH2 0x27F JUMPI JUMP JUMPDEST SWAP2 SWAP1 SWAP2 PUSH2 0x400 DUP2 DUP5 SUB SLT PUSH2 0x27F JUMPI PUSH1 0x40 MLOAD SWAP1 PUSH2 0x400 DUP3 ADD DUP3 DUP2 LT PUSH8 0xFFFFFFFFFFFFFFFF DUP3 GT OR PUSH2 0x13BA JUMPI PUSH1 0x40 MSTORE DUP2 SWAP4 DUP2 CALLDATALOAD PUSH8 0xFFFFFFFFFFFFFFFF DUP2 GT PUSH2 0x27F JUMPI DUP3 ADD DUP2 PUSH1 0x1F DUP3 ADD SLT ISZERO PUSH2 0x27F JUMPI DUP1 CALLDATALOAD SWAP1 PUSH8 0xFFFFFFFFFFFFFFFF DUP3 GT PUSH2 0x13BA JUMPI PUSH1 0x20 DUP3 PUSH1 0x5 SHL ADD SWAP3 PUSH2 0x1DFF PUSH1 0x40 MLOAD SWAP5 DUP6 PUSH2 0x13CE JUMP JUMPDEST DUP3 DUP5 MSTORE PUSH1 0x20 PUSH1 0xA0 DUP2 DUP7 ADD SWAP5 MUL DUP4 ADD ADD SWAP2 DUP2 DUP4 GT PUSH2 0x27F JUMPI PUSH1 0x20 ADD SWAP3 JUMPDEST DUP3 DUP5 LT PUSH2 0x209D JUMPI POP POP POP POP DUP3 MSTORE PUSH2 0x1E34 PUSH1 0x20 DUP3 ADD PUSH2 0x1D6E JUMP JUMPDEST PUSH1 0x20 DUP4 ADD MSTORE PUSH2 0x1E45 PUSH1 0x40 DUP3 ADD PUSH2 0x1D7C JUMP JUMPDEST PUSH1 0x40 DUP4 ADD MSTORE PUSH1 0x60 DUP2 ADD CALLDATALOAD PUSH1 0x60 DUP4 ADD MSTORE PUSH2 0x1E60 PUSH1 0x80 DUP3 ADD PUSH2 0x1D7C JUMP JUMPDEST PUSH1 0x80 DUP4 ADD MSTORE PUSH1 0xA0 DUP2 ADD CALLDATALOAD PUSH4 0xFFFFFFFF DUP2 AND DUP2 SUB PUSH2 0x27F JUMPI PUSH1 0xA0 DUP4 ADD MSTORE PUSH1 0xC0 DUP2 ADD CALLDATALOAD PUSH1 0x2 DUP2 LT ISZERO PUSH2 0x27F JUMPI PUSH1 0xC0 DUP4 ADD MSTORE PUSH1 0xE0 DUP2 ADD CALLDATALOAD PUSH1 0x6 DUP2 LT ISZERO PUSH2 0x27F JUMPI PUSH1 0xE0 DUP4 ADD MSTORE PUSH2 0x100 DUP2 ADD CALLDATALOAD PUSH1 0x1D DUP2 LT ISZERO PUSH2 0x27F JUMPI PUSH2 0x100 DUP4 ADD MSTORE PUSH2 0x120 DUP2 ADD CALLDATALOAD PUSH1 0x17 DUP2 LT ISZERO PUSH2 0x27F JUMPI PUSH2 0x120 DUP4 ADD MSTORE PUSH2 0x140 DUP2 ADD CALLDATALOAD PUSH1 0x14 DUP2 LT ISZERO PUSH2 0x27F JUMPI PUSH2 0x140 DUP4 ADD MSTORE PUSH2 0x160 DUP2 ADD CALLDATALOAD PUSH1 0x9 DUP2 LT ISZERO PUSH2 0x27F JUMPI PUSH2 0x160 DUP4 ADD MSTORE PUSH2 0x180 DUP2 ADD CALLDATALOAD PUSH1 0x9 DUP2 LT ISZERO PUSH2 0x27F JUMPI PUSH2 0x180 DUP4 ADD MSTORE PUSH2 0x1A0 DUP2 ADD CALLDATALOAD PUSH1 0x4 DUP2 LT ISZERO PUSH2 0x27F JUMPI PUSH2 0x1A0 DUP4 ADD MSTORE PUSH2 0x1C0 DUP2 ADD CALLDATALOAD PUSH1 0x58 DUP2 LT ISZERO PUSH2 0x27F JUMPI PUSH2 0x1C0 DUP4 ADD MSTORE PUSH2 0x1E0 DUP2 ADD CALLDATALOAD PUSH1 0x16 DUP2 LT ISZERO PUSH2 0x27F JUMPI PUSH2 0x1E0 DUP4 ADD MSTORE PUSH2 0x200 DUP2 ADD CALLDATALOAD PUSH1 0xD4 DUP2 LT ISZERO PUSH2 0x27F JUMPI PUSH2 0x200 DUP4 ADD MSTORE PUSH2 0x220 DUP2 ADD CALLDATALOAD PUSH1 0x6A DUP2 LT ISZERO PUSH2 0x27F JUMPI PUSH2 0x220 DUP4 ADD MSTORE PUSH2 0x240 DUP2 ADD CALLDATALOAD PUSH1 0xA9 DUP2 LT ISZERO PUSH2 0x27F JUMPI PUSH2 0x240 DUP4 ADD MSTORE PUSH2 0x260 DUP2 ADD CALLDATALOAD PUSH1 0x80 DUP2 LT ISZERO PUSH2 0x27F JUMPI PUSH2 0x260 DUP4 ADD MSTORE PUSH2 0x280 DUP2 ADD CALLDATALOAD PUSH1 0x1A DUP2 LT ISZERO PUSH2 0x27F JUMPI PUSH2 0x280 DUP4 ADD MSTORE PUSH2 0x2A0 DUP2 ADD CALLDATALOAD PUSH1 0x1F DUP2 LT ISZERO PUSH2 0x27F JUMPI PUSH2 0x2A0 DUP4 ADD MSTORE PUSH2 0x2C0 DUP2 ADD CALLDATALOAD PUSH1 0x13 DUP2 LT ISZERO PUSH2 0x27F JUMPI PUSH2 0x2C0 DUP4 ADD MSTORE PUSH2 0x2E0 DUP2 ADD CALLDATALOAD PUSH1 0x9 DUP2 LT ISZERO PUSH2 0x27F JUMPI PUSH2 0x2E0 DUP4 ADD MSTORE PUSH2 0x300 DUP2 ADD CALLDATALOAD PUSH1 0x9 DUP2 LT ISZERO PUSH2 0x27F JUMPI PUSH2 0x300 DUP4 ADD MSTORE PUSH2 0x320 DUP2 ADD CALLDATALOAD PUSH1 0x4 DUP2 LT ISZERO PUSH2 0x27F JUMPI PUSH2 0x320 DUP4 ADD MSTORE PUSH2 0x340 DUP2 ADD CALLDATALOAD PUSH1 0x15 DUP2 LT ISZERO PUSH2 0x27F JUMPI PUSH2 0x340 DUP4 ADD MSTORE PUSH2 0x360 DUP2 ADD CALLDATALOAD PUSH1 0xC3 DUP2 LT ISZERO PUSH2 0x27F JUMPI PUSH2 0x360 DUP4 ADD MSTORE PUSH2 0x380 DUP2 ADD CALLDATALOAD PUSH1 0x85 DUP2 LT ISZERO PUSH2 0x27F JUMPI PUSH2 0x380 DUP4 ADD MSTORE PUSH2 0x3A0 DUP2 ADD CALLDATALOAD PUSH1 0x83 DUP2 LT ISZERO PUSH2 0x27F JUMPI PUSH2 0x3A0 DUP4 ADD MSTORE PUSH2 0x3C0 DUP2 ADD CALLDATALOAD SWAP1 PUSH1 0x7A DUP3 LT ISZERO PUSH2 0x27F JUMPI PUSH2 0x3E0 SWAP2 PUSH2 0x3C0 DUP5 ADD MSTORE ADD CALLDATALOAD SWAP1 PUSH1 0x17 DUP3 LT ISZERO PUSH2 0x27F JUMPI PUSH2 0x3E0 ADD MSTORE JUMP JUMPDEST DUP4 DUP3 SUB PUSH1 0xA0 DUP2 SLT PUSH2 0x27F JUMPI PUSH1 0x40 MLOAD SWAP1 PUSH1 0x80 DUP3 ADD DUP3 DUP2 LT PUSH8 0xFFFFFFFFFFFFFFFF DUP3 GT OR PUSH2 0x13BA JUMPI PUSH1 0x40 MSTORE DUP6 CALLDATALOAD PUSH1 0x1B DUP2 LT ISZERO PUSH2 0x27F JUMPI DUP3 MSTORE PUSH2 0x20DF PUSH1 0x20 DUP8 ADD PUSH2 0x1D6E JUMP JUMPDEST PUSH1 0x20 DUP4 ADD MSTORE PUSH1 0x40 DUP7 ADD CALLDATALOAD SWAP1 DUP2 ISZERO ISZERO DUP3 SUB PUSH2 0x27F JUMPI PUSH1 0x40 SWAP2 DUP3 DUP5 ADD MSTORE PUSH1 0x5F NOT ADD SLT PUSH2 0x27F JUMPI PUSH1 0x40 MLOAD SWAP2 PUSH2 0x2110 DUP4 PUSH2 0x139E JUMP JUMPDEST PUSH1 0x60 DUP7 ADD CALLDATALOAD SWAP2 PUSH1 0x1B DUP4 LT ISZERO PUSH2 0x27F JUMPI DUP4 PUSH1 0x20 SWAP4 PUSH1 0xA0 SWAP6 MSTORE PUSH2 0x2133 PUSH1 0x80 DUP10 ADD PUSH2 0x1D6E JUMP JUMPDEST DUP5 DUP3 ADD MSTORE PUSH1 0x60 DUP3 ADD MSTORE DUP2 MSTORE ADD SWAP4 ADD SWAP3 PUSH2 0x1E1B JUMP JUMPDEST PUSH1 0x40 MLOAD SWAP1 PUSH2 0x10C0 PUSH2 0x2158 DUP2 DUP5 PUSH2 0x13CE JUMP JUMPDEST PUSH1 0x85 DUP4 MSTORE PUSH1 0x1F NOT ADD CALLDATASIZE PUSH1 0x20 DUP5 ADD CALLDATACOPY PUSH2 0x2178 PUSH2 0x2173 CALLDATASIZE DUP4 PUSH2 0x1D8B JUMP JUMPDEST PUSH2 0x37D9 JUMP JUMPDEST DUP1 ISZERO PUSH2 0x284A JUMPI JUMPDEST ISZERO PUSH2 0x27D2 JUMPI POP PUSH2 0x27C6 SWAP2 PUSH2 0x190 PUSH2 0x2195 DUP4 PUSH2 0x147B JUMP JUMPDEST MSTORE JUMPDEST PUSH1 0xE1 PUSH2 0x21A2 DUP4 PUSH2 0x1A1A JUMP JUMPDEST MSTORE PUSH1 0x96 PUSH2 0x21AE DUP4 PUSH2 0x15BB JUMP JUMPDEST MSTORE PUSH1 0x7D PUSH2 0x21BA DUP4 PUSH2 0x159B JUMP JUMPDEST MSTORE PUSH1 0x64 PUSH2 0x21C6 DUP4 PUSH2 0x15CB JUMP JUMPDEST MSTORE PUSH1 0x4B PUSH2 0x21D2 DUP4 PUSH2 0x17E9 JUMP JUMPDEST MSTORE PUSH1 0x21 PUSH2 0x21DE DUP4 PUSH2 0x15AB JUMP JUMPDEST MSTORE PUSH1 0x20 PUSH2 0x21EA DUP4 PUSH2 0x15DB JUMP JUMPDEST MSTORE PUSH1 0x20 PUSH2 0x21F6 DUP4 PUSH2 0x1794 JUMP JUMPDEST MSTORE PUSH1 0x20 PUSH2 0x2202 DUP4 PUSH2 0x17A5 JUMP JUMPDEST MSTORE PUSH1 0x20 PUSH2 0x220E DUP4 PUSH2 0x17B6 JUMP JUMPDEST MSTORE PUSH1 0x20 PUSH2 0x221A DUP4 PUSH2 0x17C7 JUMP JUMPDEST MSTORE PUSH1 0x20 PUSH2 0x2226 DUP4 PUSH2 0x17D8 JUMP JUMPDEST MSTORE PUSH1 0xE1 PUSH2 0x2232 DUP4 PUSH2 0x17FA JUMP JUMPDEST MSTORE PUSH1 0x96 PUSH2 0x223E DUP4 PUSH2 0x1673 JUMP JUMPDEST MSTORE PUSH1 0x7D PUSH2 0x224A DUP4 PUSH2 0x180B JUMP JUMPDEST MSTORE PUSH1 0x64 PUSH2 0x2256 DUP4 PUSH2 0x1684 JUMP JUMPDEST MSTORE PUSH1 0x4B PUSH2 0x2262 DUP4 PUSH2 0x16FB JUMP JUMPDEST MSTORE PUSH1 0x21 PUSH2 0x226E DUP4 PUSH2 0x181C JUMP JUMPDEST MSTORE PUSH1 0x20 PUSH2 0x227A DUP4 PUSH2 0x1695 JUMP JUMPDEST MSTORE PUSH1 0x20 PUSH2 0x2286 DUP4 PUSH2 0x16A6 JUMP JUMPDEST MSTORE PUSH1 0x20 PUSH2 0x2292 DUP4 PUSH2 0x16B7 JUMP JUMPDEST MSTORE PUSH1 0x20 PUSH2 0x229E DUP4 PUSH2 0x16C8 JUMP JUMPDEST MSTORE PUSH1 0x20 PUSH2 0x22AA DUP4 PUSH2 0x16D9 JUMP JUMPDEST MSTORE PUSH1 0x20 PUSH2 0x22B6 DUP4 PUSH2 0x16EA JUMP JUMPDEST MSTORE PUSH1 0xE1 PUSH2 0x22C2 DUP4 PUSH2 0x1BD3 JUMP JUMPDEST MSTORE PUSH1 0x96 PUSH2 0x22CE DUP4 PUSH2 0x1B4B JUMP JUMPDEST MSTORE PUSH1 0x7D PUSH2 0x22DA DUP4 PUSH2 0x1B3A JUMP JUMPDEST MSTORE PUSH1 0x64 PUSH2 0x22E6 DUP4 PUSH2 0x1B5C JUMP JUMPDEST MSTORE PUSH1 0x4B PUSH2 0x22F2 DUP4 PUSH2 0x161E JUMP JUMPDEST MSTORE PUSH1 0x21 PUSH2 0x22FE DUP4 PUSH2 0x1D27 JUMP JUMPDEST MSTORE PUSH1 0x20 PUSH2 0x230A DUP4 PUSH2 0x195F JUMP JUMPDEST MSTORE PUSH1 0x20 PUSH2 0x2316 DUP4 PUSH2 0x1970 JUMP JUMPDEST MSTORE PUSH1 0x20 PUSH2 0x2322 DUP4 PUSH2 0x1981 JUMP JUMPDEST MSTORE PUSH1 0x20 PUSH2 0x232E DUP4 PUSH2 0x15EB JUMP JUMPDEST MSTORE PUSH1 0x20 PUSH2 0x233A DUP4 PUSH2 0x15FC JUMP JUMPDEST MSTORE PUSH1 0x20 PUSH2 0x2346 DUP4 PUSH2 0x160D JUMP JUMPDEST MSTORE PUSH1 0xE1 PUSH2 0x2352 DUP4 PUSH2 0x1524 JUMP JUMPDEST MSTORE PUSH1 0x96 PUSH2 0x235E DUP4 PUSH2 0x18E8 JUMP JUMPDEST MSTORE PUSH1 0x7D PUSH2 0x236A DUP4 PUSH2 0x1535 JUMP JUMPDEST MSTORE PUSH1 0x64 PUSH2 0x2376 DUP4 PUSH2 0x18F9 JUMP JUMPDEST MSTORE PUSH1 0x4B PUSH2 0x2382 DUP4 PUSH2 0x1CE3 JUMP JUMPDEST MSTORE PUSH1 0x21 PUSH2 0x238E DUP4 PUSH2 0x18D7 JUMP JUMPDEST MSTORE PUSH1 0x20 PUSH2 0x239A DUP4 PUSH2 0x190A JUMP JUMPDEST MSTORE PUSH1 0x20 PUSH2 0x23A6 DUP4 PUSH2 0x191B JUMP JUMPDEST MSTORE PUSH1 0x20 PUSH2 0x23B2 DUP4 PUSH2 0x192C JUMP JUMPDEST MSTORE PUSH1 0x20 PUSH2 0x23BE DUP4 PUSH2 0x193D JUMP JUMPDEST MSTORE PUSH1 0x20 PUSH2 0x23CA DUP4 PUSH2 0x194E JUMP JUMPDEST MSTORE PUSH1 0x20 PUSH2 0x23D6 DUP4 PUSH2 0x1CF4 JUMP JUMPDEST MSTORE PUSH1 0xD0 PUSH2 0x23E2 DUP4 PUSH2 0x1AD4 JUMP JUMPDEST MSTORE PUSH1 0x96 PUSH2 0x23EE DUP4 PUSH2 0x1546 JUMP JUMPDEST MSTORE PUSH1 0x78 PUSH2 0x23FA DUP4 PUSH2 0x1AE5 JUMP JUMPDEST MSTORE PUSH1 0x64 PUSH2 0x2406 DUP4 PUSH2 0x1557 JUMP JUMPDEST MSTORE PUSH1 0x3C PUSH2 0x2412 DUP4 PUSH2 0x1C17 JUMP JUMPDEST MSTORE PUSH1 0x20 PUSH2 0x241E DUP4 PUSH2 0x1AF6 JUMP JUMPDEST MSTORE PUSH1 0x1E PUSH2 0x242A DUP4 PUSH2 0x1568 JUMP JUMPDEST MSTORE PUSH1 0x1E PUSH2 0x2436 DUP4 PUSH2 0x1579 JUMP JUMPDEST MSTORE PUSH1 0x1E PUSH2 0x2442 DUP4 PUSH2 0x158A JUMP JUMPDEST MSTORE PUSH1 0x1E PUSH2 0x244E DUP4 PUSH2 0x1AC3 JUMP JUMPDEST MSTORE PUSH1 0x1E PUSH2 0x245A DUP4 PUSH2 0x1BE4 JUMP JUMPDEST MSTORE PUSH1 0x1E PUSH2 0x2466 DUP4 PUSH2 0x1C06 JUMP JUMPDEST MSTORE PUSH1 0xD0 PUSH2 0x2472 DUP4 PUSH2 0x1AB2 JUMP JUMPDEST MSTORE PUSH1 0x96 PUSH2 0x247E DUP4 PUSH2 0x182D JUMP JUMPDEST MSTORE PUSH1 0x78 PUSH2 0x248A DUP4 PUSH2 0x1D16 JUMP JUMPDEST MSTORE PUSH1 0x64 PUSH2 0x2496 DUP4 PUSH2 0x183E JUMP JUMPDEST MSTORE PUSH1 0x3C PUSH2 0x24A2 DUP4 PUSH2 0x1B8F JUMP JUMPDEST MSTORE PUSH1 0x1F PUSH2 0x24AE DUP4 PUSH2 0x1D05 JUMP JUMPDEST MSTORE PUSH1 0x1F PUSH2 0x24BA DUP4 PUSH2 0x184F JUMP JUMPDEST MSTORE PUSH1 0x1E PUSH2 0x24C6 DUP4 PUSH2 0x1860 JUMP JUMPDEST MSTORE PUSH1 0x1E PUSH2 0x24D2 DUP4 PUSH2 0x1871 JUMP JUMPDEST MSTORE PUSH1 0x1E PUSH2 0x24DE DUP4 PUSH2 0x1882 JUMP JUMPDEST MSTORE PUSH1 0x1E PUSH2 0x24EA DUP4 PUSH2 0x1B6D JUMP JUMPDEST MSTORE PUSH1 0x1E PUSH2 0x24F6 DUP4 PUSH2 0x1B7E JUMP JUMPDEST MSTORE PUSH1 0x4B PUSH2 0x2502 DUP4 PUSH2 0x1BC2 JUMP JUMPDEST MSTORE PUSH1 0x41 PUSH2 0x250E DUP4 PUSH2 0x18B5 JUMP JUMPDEST MSTORE PUSH1 0x32 PUSH2 0x251A DUP4 PUSH2 0x1893 JUMP JUMPDEST MSTORE PUSH1 0x2D PUSH2 0x2526 DUP4 PUSH2 0x18C6 JUMP JUMPDEST MSTORE PUSH1 0x1C PUSH2 0x2532 DUP4 PUSH2 0x1761 JUMP JUMPDEST MSTORE PUSH1 0xD PUSH2 0x253E DUP4 PUSH2 0x18A4 JUMP JUMPDEST MSTORE PUSH1 0xD PUSH2 0x254A DUP4 PUSH2 0x1992 JUMP JUMPDEST MSTORE PUSH1 0xD PUSH2 0x2556 DUP4 PUSH2 0x170C JUMP JUMPDEST MSTORE PUSH1 0xC PUSH2 0x2562 DUP4 PUSH2 0x171D JUMP JUMPDEST MSTORE PUSH1 0xC PUSH2 0x256E DUP4 PUSH2 0x172E JUMP JUMPDEST MSTORE PUSH1 0xC PUSH2 0x257A DUP4 PUSH2 0x173F JUMP JUMPDEST MSTORE PUSH1 0xC PUSH2 0x2586 DUP4 PUSH2 0x1750 JUMP JUMPDEST MSTORE PUSH1 0x4B PUSH2 0x2592 DUP4 PUSH2 0x162F JUMP JUMPDEST MSTORE PUSH1 0x41 PUSH2 0x259E DUP4 PUSH2 0x1662 JUMP JUMPDEST MSTORE PUSH1 0x32 PUSH2 0x25AA DUP4 PUSH2 0x1640 JUMP JUMPDEST MSTORE PUSH1 0x2D PUSH2 0x25B6 DUP4 PUSH2 0x149C JUMP JUMPDEST MSTORE PUSH1 0x1C PUSH2 0x25C2 DUP4 PUSH2 0x1513 JUMP JUMPDEST MSTORE PUSH1 0xD PUSH2 0x25CE DUP4 PUSH2 0x1651 JUMP JUMPDEST MSTORE PUSH1 0xD PUSH2 0x25DA DUP4 PUSH2 0x14AD JUMP JUMPDEST MSTORE PUSH1 0xD PUSH2 0x25E6 DUP4 PUSH2 0x14BE JUMP JUMPDEST MSTORE PUSH1 0xC PUSH2 0x25F2 DUP4 PUSH2 0x14CF JUMP JUMPDEST MSTORE PUSH1 0xC PUSH2 0x25FE DUP4 PUSH2 0x14E0 JUMP JUMPDEST MSTORE PUSH1 0xC PUSH2 0x260A DUP4 PUSH2 0x14F1 JUMP JUMPDEST MSTORE PUSH1 0xC PUSH2 0x2616 DUP4 PUSH2 0x1502 JUMP JUMPDEST MSTORE PUSH1 0x4B PUSH2 0x2622 DUP4 PUSH2 0x1C28 JUMP JUMPDEST MSTORE PUSH1 0x41 PUSH2 0x262E DUP4 PUSH2 0x1BF5 JUMP JUMPDEST MSTORE PUSH1 0x32 PUSH2 0x263A DUP4 PUSH2 0x1C39 JUMP JUMPDEST MSTORE PUSH1 0x2D PUSH2 0x2646 DUP4 PUSH2 0x1A2A JUMP JUMPDEST MSTORE PUSH1 0x1C PUSH2 0x2652 DUP4 PUSH2 0x1AA1 JUMP JUMPDEST MSTORE PUSH1 0xD PUSH2 0x265E DUP4 PUSH2 0x1C4A JUMP JUMPDEST MSTORE PUSH1 0xD PUSH2 0x266A DUP4 PUSH2 0x1A3B JUMP JUMPDEST MSTORE PUSH1 0xD PUSH2 0x2676 DUP4 PUSH2 0x1A4C JUMP JUMPDEST MSTORE PUSH1 0xC PUSH2 0x2682 DUP4 PUSH2 0x1A5D JUMP JUMPDEST MSTORE PUSH1 0xC PUSH2 0x268E DUP4 PUSH2 0x1A6E JUMP JUMPDEST MSTORE PUSH1 0xC PUSH2 0x269A DUP4 PUSH2 0x1A7F JUMP JUMPDEST MSTORE PUSH1 0xC PUSH2 0x26A6 DUP4 PUSH2 0x1A90 JUMP JUMPDEST MSTORE PUSH1 0x4B PUSH2 0x26B2 DUP4 PUSH2 0x1772 JUMP JUMPDEST MSTORE PUSH1 0x41 PUSH2 0x26BE DUP4 PUSH2 0x1C6C JUMP JUMPDEST MSTORE PUSH1 0x32 PUSH2 0x26CA DUP4 PUSH2 0x1783 JUMP JUMPDEST MSTORE PUSH1 0x2D PUSH2 0x26D6 DUP4 PUSH2 0x1C7D JUMP JUMPDEST MSTORE PUSH1 0x1C PUSH2 0x26E2 DUP4 PUSH2 0x1D38 JUMP JUMPDEST MSTORE PUSH1 0xD PUSH2 0x26EE DUP4 PUSH2 0x1C5B JUMP JUMPDEST MSTORE PUSH1 0xD PUSH2 0x26FA DUP4 PUSH2 0x1C8E JUMP JUMPDEST MSTORE PUSH1 0xD PUSH2 0x2706 DUP4 PUSH2 0x1C9F JUMP JUMPDEST MSTORE PUSH1 0xC PUSH2 0x2712 DUP4 PUSH2 0x1CB0 JUMP JUMPDEST MSTORE PUSH1 0xC PUSH2 0x271E DUP4 PUSH2 0x1CC1 JUMP JUMPDEST MSTORE PUSH1 0xC PUSH2 0x272A DUP4 PUSH2 0x1CD2 JUMP JUMPDEST MSTORE PUSH1 0xC PUSH2 0x2736 DUP4 PUSH2 0x1D49 JUMP JUMPDEST MSTORE PUSH1 0x4B PUSH2 0x2742 DUP4 PUSH2 0x1BA0 JUMP JUMPDEST MSTORE PUSH1 0x37 PUSH2 0x274E DUP4 PUSH2 0x1B18 JUMP JUMPDEST MSTORE PUSH1 0x2D PUSH2 0x275A DUP4 PUSH2 0x1BB1 JUMP JUMPDEST MSTORE PUSH1 0x23 PUSH2 0x2766 DUP4 PUSH2 0x1B29 JUMP JUMPDEST MSTORE PUSH1 0xF PUSH2 0x2772 DUP4 PUSH2 0x1A09 JUMP JUMPDEST MSTORE PUSH1 0xB PUSH2 0x277E DUP4 PUSH2 0x1B07 JUMP JUMPDEST MSTORE PUSH1 0xB PUSH2 0x278A DUP4 PUSH2 0x19A3 JUMP JUMPDEST MSTORE PUSH1 0xB PUSH2 0x2796 DUP4 PUSH2 0x19B4 JUMP JUMPDEST MSTORE PUSH1 0xB PUSH2 0x27A2 DUP4 PUSH2 0x19C5 JUMP JUMPDEST MSTORE PUSH1 0xB PUSH2 0x27AE DUP4 PUSH2 0x19D6 JUMP JUMPDEST MSTORE PUSH1 0xA PUSH2 0x27BA DUP4 PUSH2 0x19E7 JUMP JUMPDEST MSTORE PUSH1 0xA PUSH2 0xF3 DUP4 PUSH2 0x19F8 JUMP JUMPDEST PUSH1 0x85 DUP2 LT ISZERO PUSH2 0x10D JUMPI SWAP1 JUMP JUMPDEST PUSH2 0x27E4 PUSH2 0x27DF CALLDATASIZE DUP4 PUSH2 0x1D8B JUMP JUMPDEST PUSH2 0x3825 JUMP JUMPDEST SWAP1 DUP2 ISZERO PUSH2 0x2830 JUMPI JUMPDEST DUP2 ISZERO PUSH2 0x2815 JUMPI JUMPDEST POP ISZERO PUSH2 0x27FF JUMPI POP POP PUSH0 SWAP1 JUMP JUMPDEST PUSH2 0x27C6 SWAP2 PUSH2 0x320 PUSH2 0x280F DUP4 PUSH2 0x147B JUMP JUMPDEST MSTORE PUSH2 0x2197 JUMP JUMPDEST PUSH2 0x282A SWAP2 POP PUSH2 0x2825 SWAP1 CALLDATASIZE SWAP1 PUSH2 0x1D8B JUMP JUMPDEST PUSH2 0x384D JUMP JUMPDEST PUSH0 PUSH2 0x27F3 JUMP JUMPDEST SWAP1 POP PUSH2 0x2844 PUSH2 0x283F CALLDATASIZE DUP4 PUSH2 0x1D8B JUMP JUMPDEST PUSH2 0x3839 JUMP JUMPDEST SWAP1 PUSH2 0x27EC JUMP JUMPDEST POP PUSH2 0x285D PUSH2 0x2858 CALLDATASIZE DUP4 PUSH2 0x1D8B JUMP JUMPDEST PUSH2 0x3811 JUMP JUMPDEST PUSH2 0x217F JUMP JUMPDEST PUSH1 0x40 MLOAD SWAP1 PUSH2 0x1880 PUSH2 0x2873 DUP2 DUP5 PUSH2 0x13CE JUMP JUMPDEST PUSH1 0xC3 DUP4 MSTORE PUSH1 0x1F NOT ADD CALLDATASIZE PUSH1 0x20 DUP5 ADD CALLDATACOPY PUSH2 0x288E PUSH2 0x2173 CALLDATASIZE DUP4 PUSH2 0x1D8B JUMP JUMPDEST DUP1 ISZERO PUSH2 0x33BC JUMPI JUMPDEST ISZERO PUSH2 0x3357 JUMPI POP PUSH2 0x190 PUSH2 0x28A7 DUP3 PUSH2 0x147B JUMP JUMPDEST MSTORE JUMPDEST PUSH1 0xE1 PUSH2 0x28B4 DUP3 PUSH2 0x1A1A JUMP JUMPDEST MSTORE PUSH1 0x96 PUSH2 0x28C0 DUP3 PUSH2 0x15BB JUMP JUMPDEST MSTORE PUSH1 0x7D PUSH2 0x28CC DUP3 PUSH2 0x159B JUMP JUMPDEST MSTORE PUSH1 0x64 PUSH2 0x28D8 DUP3 PUSH2 0x15CB JUMP JUMPDEST MSTORE PUSH1 0x4C PUSH2 0x28E4 DUP3 PUSH2 0x17E9 JUMP JUMPDEST MSTORE PUSH1 0x20 PUSH2 0x28F0 DUP3 PUSH2 0x15AB JUMP JUMPDEST MSTORE PUSH1 0x20 PUSH2 0x28FC DUP3 PUSH2 0x15DB JUMP JUMPDEST MSTORE PUSH1 0x20 PUSH2 0x2908 DUP3 PUSH2 0x1794 JUMP JUMPDEST MSTORE PUSH1 0x20 PUSH2 0x2914 DUP3 PUSH2 0x17A5 JUMP JUMPDEST MSTORE PUSH1 0x20 PUSH2 0x2920 DUP3 PUSH2 0x17B6 JUMP JUMPDEST MSTORE PUSH1 0x20 PUSH2 0x292C DUP3 PUSH2 0x17C7 JUMP JUMPDEST MSTORE PUSH1 0x20 PUSH2 0x2938 DUP3 PUSH2 0x17D8 JUMP JUMPDEST MSTORE PUSH1 0xE1 PUSH2 0x2944 DUP3 PUSH2 0x17FA JUMP JUMPDEST MSTORE PUSH1 0x96 PUSH2 0x2950 DUP3 PUSH2 0x1673 JUMP JUMPDEST MSTORE PUSH1 0x7D PUSH2 0x295C DUP3 PUSH2 0x180B JUMP JUMPDEST MSTORE PUSH1 0x64 PUSH2 0x2968 DUP3 PUSH2 0x1684 JUMP JUMPDEST MSTORE PUSH1 0x4C PUSH2 0x2974 DUP3 PUSH2 0x16FB JUMP JUMPDEST MSTORE PUSH1 0x20 PUSH2 0x2980 DUP3 PUSH2 0x181C JUMP JUMPDEST MSTORE PUSH1 0x20 PUSH2 0x298C DUP3 PUSH2 0x1695 JUMP JUMPDEST MSTORE PUSH1 0x20 PUSH2 0x2998 DUP3 PUSH2 0x16A6 JUMP JUMPDEST MSTORE PUSH1 0x20 PUSH2 0x29A4 DUP3 PUSH2 0x16B7 JUMP JUMPDEST MSTORE PUSH1 0x20 PUSH2 0x29B0 DUP3 PUSH2 0x16C8 JUMP JUMPDEST MSTORE PUSH1 0x20 PUSH2 0x29BC DUP3 PUSH2 0x16D9 JUMP JUMPDEST MSTORE PUSH1 0x20 PUSH2 0x29C8 DUP3 PUSH2 0x16EA JUMP JUMPDEST MSTORE PUSH1 0xE1 PUSH2 0x29D4 DUP3 PUSH2 0x1579 JUMP JUMPDEST MSTORE PUSH1 0x96 PUSH2 0x29E0 DUP3 PUSH2 0x1BE4 JUMP JUMPDEST MSTORE PUSH1 0x7D PUSH2 0x29EC DUP3 PUSH2 0x158A JUMP JUMPDEST MSTORE PUSH1 0x64 PUSH2 0x29F8 DUP3 PUSH2 0x1C06 JUMP JUMPDEST MSTORE PUSH1 0x4B PUSH2 0x2A04 DUP3 PUSH2 0x1A3B JUMP JUMPDEST MSTORE PUSH1 0x20 PUSH2 0x2A10 DUP3 PUSH2 0x1AC3 JUMP JUMPDEST MSTORE PUSH1 0x20 PUSH2 0x2A1C DUP3 PUSH2 0x1C17 JUMP JUMPDEST MSTORE PUSH1 0x20 PUSH2 0x2A28 DUP3 PUSH2 0x1C28 JUMP JUMPDEST MSTORE PUSH1 0x20 PUSH2 0x2A34 DUP3 PUSH2 0x1C39 JUMP JUMPDEST MSTORE PUSH1 0x20 PUSH2 0x2A40 DUP3 PUSH2 0x1C4A JUMP JUMPDEST MSTORE PUSH1 0x20 PUSH2 0x2A4C DUP3 PUSH2 0x1BF5 JUMP JUMPDEST MSTORE PUSH1 0x20 PUSH2 0x2A58 DUP3 PUSH2 0x1A2A JUMP JUMPDEST MSTORE PUSH1 0xE1 PUSH2 0x2A64 DUP3 PUSH2 0x160D JUMP JUMPDEST MSTORE PUSH1 0x96 PUSH2 0x2A70 DUP3 PUSH2 0x1640 JUMP JUMPDEST MSTORE PUSH1 0x7D PUSH2 0x2A7C DUP3 PUSH2 0x161E JUMP JUMPDEST MSTORE PUSH1 0x64 PUSH2 0x2A88 DUP3 PUSH2 0x1651 JUMP JUMPDEST MSTORE PUSH1 0x4C PUSH2 0x2A94 DUP3 PUSH2 0x14F1 JUMP JUMPDEST MSTORE PUSH1 0x20 PUSH2 0x2AA0 DUP3 PUSH2 0x162F JUMP JUMPDEST MSTORE PUSH1 0x20 PUSH2 0x2AAC DUP3 PUSH2 0x1662 JUMP JUMPDEST MSTORE PUSH1 0x20 PUSH2 0x2AB8 DUP3 PUSH2 0x149C JUMP JUMPDEST MSTORE PUSH1 0x20 PUSH2 0x2AC4 DUP3 PUSH2 0x14AD JUMP JUMPDEST MSTORE PUSH1 0x20 PUSH2 0x2AD0 DUP3 PUSH2 0x14BE JUMP JUMPDEST MSTORE PUSH1 0x20 PUSH2 0x2ADC DUP3 PUSH2 0x14CF JUMP JUMPDEST MSTORE PUSH1 0x20 PUSH2 0x2AE8 DUP3 PUSH2 0x14E0 JUMP JUMPDEST MSTORE DUP1 MLOAD PUSH1 0x87 LT ISZERO PUSH2 0x1488 JUMPI PUSH2 0x10E0 DUP2 ADD SWAP2 PUSH1 0xE1 PUSH2 0x1100 DUP4 ADD MSTORE DUP2 MLOAD PUSH1 0x8A LT ISZERO PUSH2 0x1488 JUMPI PUSH2 0x1140 DUP3 ADD PUSH1 0x96 PUSH2 0x1160 DUP5 ADD MSTORE DUP3 MLOAD PUSH1 0x88 LT ISZERO PUSH2 0x1488 JUMPI PUSH1 0x7D PUSH2 0x1120 DUP5 ADD MSTORE DUP3 MLOAD PUSH1 0x8B LT ISZERO PUSH2 0x1488 JUMPI PUSH1 0x64 PUSH2 0x1180 DUP5 ADD MSTORE DUP3 MLOAD PUSH1 0x92 LT ISZERO PUSH2 0x1488 JUMPI PUSH2 0x1240 DUP4 ADD SWAP1 PUSH1 0x4C PUSH2 0x1260 DUP6 ADD MSTORE DUP4 MLOAD PUSH1 0x89 LT ISZERO PUSH2 0x1488 JUMPI PUSH1 0x20 SWAP1 MSTORE DUP3 MLOAD PUSH1 0x8C LT ISZERO PUSH2 0x1488 JUMPI PUSH1 0x20 PUSH2 0x11A0 DUP5 ADD MSTORE DUP3 MLOAD PUSH1 0x8D LT ISZERO PUSH2 0x1488 JUMPI PUSH1 0x20 PUSH2 0x11C0 DUP5 ADD MSTORE DUP3 MLOAD PUSH1 0x8E LT ISZERO PUSH2 0x1488 JUMPI PUSH1 0x20 PUSH2 0x11E0 DUP5 ADD MSTORE DUP3 MLOAD PUSH1 0x8F LT ISZERO PUSH2 0x1488 JUMPI PUSH1 0x20 PUSH2 0x1200 DUP5 ADD MSTORE DUP3 MLOAD PUSH1 0x90 LT ISZERO PUSH2 0x1488 JUMPI PUSH1 0x20 PUSH2 0x1220 DUP5 ADD MSTORE DUP3 MLOAD PUSH1 0x91 LT ISZERO PUSH2 0x1488 JUMPI PUSH1 0x20 SWAP1 MSTORE DUP2 MLOAD PUSH1 0x9F LT ISZERO PUSH2 0x1488 JUMPI PUSH2 0x13E0 DUP3 ADD PUSH1 0xE1 PUSH2 0x1400 DUP5 ADD MSTORE DUP3 MLOAD PUSH1 0xA2 LT ISZERO PUSH2 0x1488 JUMPI PUSH2 0x1440 DUP4 ADD PUSH1 0x96 PUSH2 0x1460 DUP6 ADD MSTORE DUP4 MLOAD PUSH1 0xA0 LT ISZERO PUSH2 0x1488 JUMPI PUSH1 0x7D PUSH2 0x1420 DUP6 ADD MSTORE DUP4 MLOAD PUSH1 0xA3 LT ISZERO PUSH2 0x1488 JUMPI PUSH1 0x64 PUSH2 0x1480 DUP6 ADD MSTORE DUP4 MLOAD PUSH1 0xAA LT ISZERO PUSH2 0x1488 JUMPI PUSH2 0x1540 DUP5 ADD SWAP1 PUSH1 0x4C PUSH2 0x1560 DUP7 ADD MSTORE DUP5 MLOAD PUSH1 0xA1 LT ISZERO PUSH2 0x1488 JUMPI PUSH1 0x20 SWAP1 MSTORE DUP4 MLOAD PUSH1 0xA4 LT ISZERO PUSH2 0x1488 JUMPI PUSH1 0x20 PUSH2 0x14A0 DUP6 ADD MSTORE DUP4 MLOAD PUSH1 0xA5 LT ISZERO PUSH2 0x1488 JUMPI PUSH1 0x20 PUSH2 0x14C0 DUP6 ADD MSTORE DUP4 MLOAD PUSH1 0xA6 LT ISZERO PUSH2 0x1488 JUMPI PUSH1 0x20 PUSH2 0x14E0 DUP6 ADD MSTORE DUP4 MLOAD PUSH1 0xA7 LT ISZERO PUSH2 0x1488 JUMPI PUSH1 0x20 PUSH2 0x1500 DUP6 ADD MSTORE DUP4 MLOAD PUSH1 0xA8 LT ISZERO PUSH2 0x1488 JUMPI PUSH1 0x20 PUSH2 0x1520 DUP6 ADD MSTORE DUP4 MLOAD PUSH1 0xA9 LT ISZERO PUSH2 0x1488 JUMPI PUSH1 0x20 SWAP1 MSTORE PUSH1 0xD2 PUSH2 0x2CB5 DUP5 PUSH2 0x1A4C JUMP JUMPDEST MSTORE PUSH1 0x96 PUSH2 0x2CC1 DUP5 PUSH2 0x1A7F JUMP JUMPDEST MSTORE PUSH1 0x78 PUSH2 0x2CCD DUP5 PUSH2 0x1A5D JUMP JUMPDEST MSTORE PUSH1 0x64 PUSH2 0x2CD9 DUP5 PUSH2 0x1A90 JUMP JUMPDEST MSTORE PUSH1 0x3C PUSH2 0x2CE5 DUP5 PUSH2 0x184F JUMP JUMPDEST MSTORE PUSH1 0x1E PUSH2 0x2CF1 DUP5 PUSH2 0x1A6E JUMP JUMPDEST MSTORE PUSH1 0x1E PUSH2 0x2CFD DUP5 PUSH2 0x1AA1 JUMP JUMPDEST MSTORE PUSH1 0x1E PUSH2 0x2D09 DUP5 PUSH2 0x1AB2 JUMP JUMPDEST MSTORE PUSH1 0x1E PUSH2 0x2D15 DUP5 PUSH2 0x1D16 JUMP JUMPDEST MSTORE PUSH1 0x1E PUSH2 0x2D21 DUP5 PUSH2 0x1D05 JUMP JUMPDEST MSTORE PUSH1 0x1E PUSH2 0x2D2D DUP5 PUSH2 0x182D JUMP JUMPDEST MSTORE PUSH1 0x1E PUSH2 0x2D39 DUP5 PUSH2 0x183E JUMP JUMPDEST MSTORE PUSH1 0xD2 PUSH2 0x2D45 DUP5 PUSH2 0x1502 JUMP JUMPDEST MSTORE PUSH1 0x96 PUSH2 0x2D51 DUP5 PUSH2 0x1535 JUMP JUMPDEST MSTORE PUSH1 0x78 PUSH2 0x2D5D DUP5 PUSH2 0x1513 JUMP JUMPDEST MSTORE PUSH1 0x64 PUSH2 0x2D69 DUP5 PUSH2 0x18D7 JUMP JUMPDEST MSTORE PUSH1 0x3C PUSH2 0x2D75 DUP5 PUSH2 0x194E JUMP JUMPDEST MSTORE PUSH1 0x1E PUSH2 0x2D81 DUP5 PUSH2 0x1524 JUMP JUMPDEST MSTORE PUSH1 0x1E PUSH2 0x2D8D DUP5 PUSH2 0x18E8 JUMP JUMPDEST MSTORE PUSH1 0x1E PUSH2 0x2D99 DUP5 PUSH2 0x18F9 JUMP JUMPDEST MSTORE PUSH1 0x1E PUSH2 0x2DA5 DUP5 PUSH2 0x190A JUMP JUMPDEST MSTORE PUSH1 0x1E PUSH2 0x2DB1 DUP5 PUSH2 0x191B JUMP JUMPDEST MSTORE PUSH1 0x1E PUSH2 0x2DBD DUP5 PUSH2 0x192C JUMP JUMPDEST MSTORE PUSH1 0x1E PUSH2 0x2DC9 DUP5 PUSH2 0x193D JUMP JUMPDEST MSTORE DUP3 MLOAD PUSH1 0xAB LT ISZERO PUSH2 0x1488 JUMPI PUSH1 0x4B PUSH2 0x1580 DUP5 ADD MSTORE DUP3 MLOAD PUSH1 0xAE LT ISZERO PUSH2 0x1488 JUMPI PUSH2 0x15C0 DUP4 ADD PUSH1 0x41 PUSH2 0x15E0 DUP6 ADD MSTORE DUP4 MLOAD PUSH1 0xAC LT ISZERO PUSH2 0x1488 JUMPI PUSH1 0x32 PUSH2 0x15A0 DUP6 ADD MSTORE DUP4 MLOAD PUSH1 0xAF LT ISZERO PUSH2 0x1488 JUMPI PUSH1 0x2D PUSH2 0x1600 DUP6 ADD MSTORE DUP4 MLOAD PUSH1 0xB6 LT ISZERO PUSH2 0x1488 JUMPI PUSH2 0x16C0 DUP5 ADD SWAP1 PUSH1 0x1F PUSH2 0x16E0 DUP7 ADD MSTORE DUP5 MLOAD PUSH1 0xAD LT ISZERO PUSH2 0x1488 JUMPI PUSH1 0xC SWAP1 MSTORE DUP4 MLOAD PUSH1 0xB0 LT ISZERO PUSH2 0x1488 JUMPI PUSH1 0xC PUSH2 0x1620 DUP6 ADD MSTORE DUP4 MLOAD PUSH1 0xB1 LT ISZERO PUSH2 0x1488 JUMPI PUSH1 0xC PUSH2 0x1640 DUP6 ADD MSTORE DUP4 MLOAD PUSH1 0xB2 LT ISZERO PUSH2 0x1488 JUMPI PUSH1 0xC PUSH2 0x1660 DUP6 ADD MSTORE DUP4 MLOAD PUSH1 0xB3 LT ISZERO PUSH2 0x1488 JUMPI PUSH1 0xC PUSH2 0x1680 DUP6 ADD MSTORE DUP4 MLOAD PUSH1 0xB4 LT ISZERO PUSH2 0x1488 JUMPI PUSH1 0xC PUSH2 0x16A0 DUP6 ADD MSTORE DUP4 MLOAD PUSH1 0xB5 LT ISZERO PUSH2 0x1488 JUMPI PUSH1 0xC SWAP1 MSTORE DUP3 MLOAD PUSH1 0x93 LT ISZERO PUSH2 0x1488 JUMPI PUSH1 0x4B PUSH2 0x1280 DUP5 ADD MSTORE DUP3 MLOAD PUSH1 0x96 LT ISZERO PUSH2 0x1488 JUMPI PUSH2 0x12C0 DUP4 ADD PUSH1 0x41 PUSH2 0x12E0 DUP6 ADD MSTORE DUP4 MLOAD PUSH1 0x94 LT ISZERO PUSH2 0x1488 JUMPI PUSH1 0x32 PUSH2 0x12A0 DUP6 ADD MSTORE DUP4 MLOAD PUSH1 0x97 LT ISZERO PUSH2 0x1488 JUMPI PUSH1 0x2D PUSH2 0x1300 DUP6 ADD MSTORE DUP4 MLOAD PUSH1 0x9E LT ISZERO PUSH2 0x1488 JUMPI PUSH1 0x1F PUSH2 0x13C0 DUP6 ADD SWAP3 MSTORE DUP4 MLOAD PUSH1 0x95 LT ISZERO PUSH2 0x1488 JUMPI PUSH1 0xC SWAP1 MSTORE DUP3 MLOAD PUSH1 0x98 LT ISZERO PUSH2 0x1488 JUMPI PUSH1 0xC PUSH2 0x1320 DUP5 ADD MSTORE DUP3 MLOAD PUSH1 0x99 LT ISZERO PUSH2 0x1488 JUMPI PUSH1 0xC PUSH2 0x1340 DUP5 ADD MSTORE DUP3 MLOAD PUSH1 0x9A LT ISZERO PUSH2 0x1488 JUMPI PUSH1 0xC PUSH2 0x1360 DUP5 ADD MSTORE DUP3 MLOAD PUSH1 0x9B LT ISZERO PUSH2 0x1488 JUMPI PUSH1 0xC PUSH2 0x1380 DUP5 ADD MSTORE DUP3 MLOAD PUSH1 0x9C LT ISZERO PUSH2 0x1488 JUMPI PUSH1 0xC PUSH2 0x13A0 DUP5 ADD MSTORE DUP3 MLOAD PUSH1 0x9D LT ISZERO PUSH2 0x1488 JUMPI PUSH1 0xC SWAP1 MSTORE PUSH1 0x4B PUSH2 0x2F86 DUP4 PUSH2 0x1860 JUMP JUMPDEST MSTORE PUSH1 0x41 PUSH2 0x2F92 DUP4 PUSH2 0x1B6D JUMP JUMPDEST MSTORE PUSH1 0x32 PUSH2 0x2F9E DUP4 PUSH2 0x1871 JUMP JUMPDEST MSTORE PUSH1 0x2D PUSH2 0x2FAA DUP4 PUSH2 0x1B7E JUMP JUMPDEST MSTORE PUSH1 0x1F PUSH2 0x2FB6 DUP4 PUSH2 0x19A3 JUMP JUMPDEST MSTORE PUSH1 0xC PUSH2 0x2FC2 DUP4 PUSH2 0x1882 JUMP JUMPDEST MSTORE PUSH1 0xC PUSH2 0x2FCE DUP4 PUSH2 0x1B8F JUMP JUMPDEST MSTORE PUSH1 0xC PUSH2 0x2FDA DUP4 PUSH2 0x1BA0 JUMP JUMPDEST MSTORE PUSH1 0xC PUSH2 0x2FE6 DUP4 PUSH2 0x1BB1 JUMP JUMPDEST MSTORE PUSH1 0xC PUSH2 0x2FF2 DUP4 PUSH2 0x1B07 JUMP JUMPDEST MSTORE PUSH1 0xC PUSH2 0x2FFE DUP4 PUSH2 0x1B18 JUMP JUMPDEST MSTORE PUSH1 0xC PUSH2 0x300A DUP4 PUSH2 0x1B29 JUMP JUMPDEST MSTORE DUP2 MLOAD PUSH1 0xB7 LT ISZERO PUSH2 0x1488 JUMPI PUSH1 0x4B PUSH2 0x1700 DUP4 ADD MSTORE DUP2 MLOAD PUSH1 0xBA LT ISZERO PUSH2 0x1488 JUMPI PUSH2 0x1740 DUP3 ADD PUSH1 0x41 PUSH2 0x1760 DUP5 ADD MSTORE DUP3 MLOAD PUSH1 0xB8 LT ISZERO PUSH2 0x1488 JUMPI PUSH1 0x32 PUSH2 0x1720 DUP5 ADD MSTORE DUP3 MLOAD PUSH1 0xBB LT ISZERO PUSH2 0x1488 JUMPI PUSH1 0x2D PUSH2 0x1780 DUP5 ADD MSTORE DUP3 MLOAD PUSH1 0xC2 LT ISZERO PUSH2 0x1488 JUMPI PUSH2 0x1840 DUP4 ADD SWAP1 PUSH1 0x1F PUSH2 0x1860 DUP6 ADD MSTORE DUP4 MLOAD PUSH1 0xB9 LT ISZERO PUSH2 0x1488 JUMPI PUSH1 0xC SWAP1 MSTORE DUP3 MLOAD PUSH1 0xBC LT ISZERO PUSH2 0x1488 JUMPI PUSH1 0xC PUSH2 0x17A0 DUP5 ADD MSTORE DUP3 MLOAD PUSH1 0xBD LT ISZERO PUSH2 0x1488 JUMPI PUSH1 0xC PUSH2 0x17C0 DUP5 ADD MSTORE DUP3 MLOAD PUSH1 0xBE LT ISZERO PUSH2 0x1488 JUMPI PUSH1 0xC PUSH2 0x17E0 DUP5 ADD MSTORE DUP3 MLOAD PUSH1 0xBF LT ISZERO PUSH2 0x1488 JUMPI PUSH1 0xC PUSH2 0x1800 DUP5 ADD MSTORE DUP3 MLOAD PUSH1 0xC0 LT ISZERO PUSH2 0x1488 JUMPI PUSH1 0xC PUSH2 0x1820 DUP5 ADD MSTORE DUP3 MLOAD PUSH1 0xC1 LT ISZERO PUSH2 0x1488 JUMPI PUSH1 0xC SWAP1 MSTORE PUSH1 0x4B PUSH2 0x30F1 DUP4 PUSH2 0x19B4 JUMP JUMPDEST MSTORE PUSH1 0x37 PUSH2 0x30FD DUP4 PUSH2 0x19E7 JUMP JUMPDEST MSTORE PUSH1 0x2D PUSH2 0x3109 DUP4 PUSH2 0x19C5 JUMP JUMPDEST MSTORE PUSH1 0x23 PUSH2 0x3115 DUP4 PUSH2 0x19F8 JUMP JUMPDEST MSTORE PUSH1 0x11 PUSH2 0x3121 DUP4 PUSH2 0x15FC JUMP JUMPDEST MSTORE PUSH1 0x7 PUSH2 0x312D DUP4 PUSH2 0x19D6 JUMP JUMPDEST MSTORE PUSH1 0x7 PUSH2 0x3139 DUP4 PUSH2 0x1A09 JUMP JUMPDEST MSTORE PUSH1 0x7 PUSH2 0x3145 DUP4 PUSH2 0x1B5C JUMP JUMPDEST MSTORE PUSH1 0x7 PUSH2 0x3151 DUP4 PUSH2 0x195F JUMP JUMPDEST MSTORE PUSH1 0x7 PUSH2 0x315D DUP4 PUSH2 0x1970 JUMP JUMPDEST MSTORE PUSH1 0x7 PUSH2 0x3169 DUP4 PUSH2 0x1981 JUMP JUMPDEST MSTORE PUSH1 0x7 PUSH2 0x3175 DUP4 PUSH2 0x15EB JUMP JUMPDEST MSTORE PUSH1 0x6 PUSH2 0x3181 DUP4 PUSH2 0x1BD3 JUMP JUMPDEST MSTORE PUSH1 0x6 PUSH2 0x318D DUP4 PUSH2 0x1B3A JUMP JUMPDEST MSTORE PUSH1 0x6 PUSH2 0x3199 DUP4 PUSH2 0x1D27 JUMP JUMPDEST MSTORE PUSH1 0x6 PUSH2 0x31A5 DUP4 PUSH2 0x1B4B JUMP JUMPDEST MSTORE PUSH1 0x49 PUSH2 0x31B1 DUP4 PUSH2 0x1C5B JUMP JUMPDEST MSTORE PUSH1 0x37 PUSH2 0x31BD DUP4 PUSH2 0x1C8E JUMP JUMPDEST MSTORE PUSH1 0x2D PUSH2 0x31C9 DUP4 PUSH2 0x1C6C JUMP JUMPDEST MSTORE PUSH1 0x23 PUSH2 0x31D5 DUP4 PUSH2 0x1C9F JUMP JUMPDEST MSTORE DUP2 MLOAD PUSH1 0x86 LT ISZERO PUSH2 0x1488 JUMPI PUSH1 0xF PUSH2 0x10C0 DUP4 ADD SWAP4 MSTORE PUSH1 0xB PUSH2 0x31F4 DUP4 PUSH2 0x1C7D JUMP JUMPDEST MSTORE PUSH1 0xB PUSH2 0x3200 DUP4 PUSH2 0x1CB0 JUMP JUMPDEST MSTORE PUSH1 0xB PUSH2 0x320C DUP4 PUSH2 0x1CC1 JUMP JUMPDEST MSTORE PUSH1 0xB PUSH2 0x3218 DUP4 PUSH2 0x1CD2 JUMP JUMPDEST MSTORE PUSH1 0xB PUSH2 0x3224 DUP4 PUSH2 0x1D49 JUMP JUMPDEST MSTORE PUSH1 0xB PUSH2 0x3230 DUP4 PUSH2 0x1D38 JUMP JUMPDEST MSTORE DUP2 MLOAD PUSH1 0x85 LT ISZERO PUSH2 0x1488 JUMPI PUSH1 0xB DUP4 PUSH2 0x334B SWAP5 POP MSTORE PUSH1 0x3C PUSH2 0x324F DUP4 PUSH2 0x1CF4 JUMP JUMPDEST MSTORE PUSH1 0x2D PUSH2 0x325B DUP4 PUSH2 0x1CE3 JUMP JUMPDEST MSTORE PUSH1 0x23 PUSH2 0x3267 DUP4 PUSH2 0x1893 JUMP JUMPDEST MSTORE PUSH1 0x14 PUSH2 0x3273 DUP4 PUSH2 0x18A4 JUMP JUMPDEST MSTORE PUSH1 0xF PUSH2 0x327F DUP4 PUSH2 0x1783 JUMP JUMPDEST MSTORE PUSH1 0x9 PUSH2 0x328B DUP4 PUSH2 0x1BC2 JUMP JUMPDEST MSTORE PUSH1 0x9 PUSH2 0x3297 DUP4 PUSH2 0x18B5 JUMP JUMPDEST MSTORE PUSH1 0x9 PUSH2 0x32A3 DUP4 PUSH2 0x172E JUMP JUMPDEST MSTORE PUSH1 0x9 PUSH2 0x32AF DUP4 PUSH2 0x173F JUMP JUMPDEST MSTORE PUSH1 0x9 PUSH2 0x32BB DUP4 PUSH2 0x1750 JUMP JUMPDEST MSTORE PUSH1 0x9 PUSH2 0x32C7 DUP4 PUSH2 0x1761 JUMP JUMPDEST MSTORE PUSH1 0x9 PUSH2 0x32D3 DUP4 PUSH2 0x1772 JUMP JUMPDEST MSTORE PUSH1 0x3 PUSH2 0x32DF DUP4 PUSH2 0x18C6 JUMP JUMPDEST MSTORE PUSH1 0x3 PUSH2 0x32EB DUP4 PUSH2 0x1992 JUMP JUMPDEST MSTORE PUSH1 0x3 PUSH2 0x32F7 DUP4 PUSH2 0x170C JUMP JUMPDEST MSTORE PUSH1 0x3 PUSH2 0x3303 DUP4 PUSH2 0x171D JUMP JUMPDEST MSTORE PUSH1 0x29 PUSH2 0x330F DUP4 PUSH2 0x1AD4 JUMP JUMPDEST MSTORE PUSH1 0x29 PUSH2 0x331B DUP4 PUSH2 0x1AE5 JUMP JUMPDEST MSTORE PUSH1 0x29 PUSH2 0x3327 DUP4 PUSH2 0x1AF6 JUMP JUMPDEST MSTORE PUSH1 0x29 PUSH2 0x3333 DUP4 PUSH2 0x1546 JUMP JUMPDEST MSTORE PUSH1 0x29 PUSH2 0x333F DUP4 PUSH2 0x1557 JUMP JUMPDEST MSTORE PUSH1 0x29 PUSH2 0xF3 DUP4 PUSH2 0x1568 JUMP JUMPDEST PUSH1 0xC3 DUP2 LT ISZERO PUSH2 0x10D JUMPI SWAP1 JUMP JUMPDEST PUSH2 0x3364 PUSH2 0x27DF CALLDATASIZE DUP4 PUSH2 0x1D8B JUMP JUMPDEST SWAP1 DUP2 ISZERO PUSH2 0x33A7 JUMPI JUMPDEST DUP2 ISZERO PUSH2 0x3391 JUMPI JUMPDEST POP ISZERO PUSH2 0x337F JUMPI POP POP PUSH0 SWAP1 JUMP JUMPDEST PUSH2 0x4B0 PUSH2 0x338B DUP3 PUSH2 0x147B JUMP JUMPDEST MSTORE PUSH2 0x28A9 JUMP JUMPDEST PUSH2 0x33A1 SWAP2 POP PUSH2 0x2825 SWAP1 CALLDATASIZE SWAP1 PUSH2 0x1D8B JUMP JUMPDEST PUSH0 PUSH2 0x3373 JUMP JUMPDEST SWAP1 POP PUSH2 0x33B6 PUSH2 0x283F CALLDATASIZE DUP4 PUSH2 0x1D8B JUMP JUMPDEST SWAP1 PUSH2 0x336C JUMP JUMPDEST POP PUSH2 0x33CA PUSH2 0x2858 CALLDATASIZE DUP4 PUSH2 0x1D8B JUMP JUMPDEST PUSH2 0x2895 JUMP JUMPDEST PUSH2 0x280 PUSH1 0x40 MLOAD SWAP2 PUSH2 0x33E0 DUP3 DUP5 PUSH2 0x13CE JUMP JUMPDEST PUSH1 0x13 DUP4 MSTORE PUSH1 0x1F NOT DUP3 ADD CALLDATASIZE PUSH1 0x20 DUP6 ADD CALLDATACOPY PUSH2 0x33FC PUSH2 0x2173 CALLDATASIZE DUP4 PUSH2 0x1D8B JUMP JUMPDEST DUP1 ISZERO PUSH2 0x373D JUMPI JUMPDEST ISZERO PUSH2 0x34FE JUMPI POP POP PUSH2 0x34F2 SWAP2 PUSH2 0x24A1 PUSH2 0x341A DUP4 PUSH2 0x147B JUMP JUMPDEST MSTORE PUSH1 0xC8 PUSH2 0x3426 DUP4 PUSH2 0x180B JUMP JUMPDEST MSTORE PUSH1 0x23 PUSH2 0x3432 DUP4 PUSH2 0x15DB JUMP JUMPDEST MSTORE PUSH1 0x16 PUSH2 0x343E DUP4 PUSH2 0x17E9 JUMP JUMPDEST MSTORE PUSH1 0x14 PUSH2 0x344A DUP4 PUSH2 0x1673 JUMP JUMPDEST MSTORE PUSH1 0x12 PUSH2 0x3456 DUP4 PUSH2 0x17C7 JUMP JUMPDEST MSTORE PUSH1 0x10 PUSH2 0x3462 DUP4 PUSH2 0x1A1A JUMP JUMPDEST MSTORE PUSH1 0xE PUSH2 0x346E DUP4 PUSH2 0x1684 JUMP JUMPDEST MSTORE PUSH1 0xC PUSH2 0x347A DUP4 PUSH2 0x159B JUMP JUMPDEST MSTORE PUSH1 0xA PUSH2 0x3486 DUP4 PUSH2 0x17D8 JUMP JUMPDEST MSTORE PUSH1 0x8 PUSH2 0x3492 DUP4 PUSH2 0x1695 JUMP JUMPDEST MSTORE PUSH1 0x7D PUSH2 0x349E DUP4 PUSH2 0x15CB JUMP JUMPDEST MSTORE PUSH1 0x4B PUSH2 0x34AA DUP4 PUSH2 0x15AB JUMP JUMPDEST MSTORE PUSH1 0x10 PUSH2 0x34B6 DUP4 PUSH2 0x15BB JUMP JUMPDEST MSTORE PUSH1 0xC PUSH2 0x34C2 DUP4 PUSH2 0x17FA JUMP JUMPDEST MSTORE PUSH1 0xC PUSH2 0x34CE DUP4 PUSH2 0x181C JUMP JUMPDEST MSTORE PUSH1 0xA PUSH2 0x34DA DUP4 PUSH2 0x1794 JUMP JUMPDEST MSTORE PUSH1 0xA PUSH2 0x34E6 DUP4 PUSH2 0x17A5 JUMP JUMPDEST MSTORE PUSH1 0x8 PUSH2 0xF3 DUP4 PUSH2 0x17B6 JUMP JUMPDEST PUSH1 0x13 DUP2 LT ISZERO PUSH2 0x10D JUMPI SWAP1 JUMP JUMPDEST DUP2 PUSH2 0x3509 CALLDATASIZE DUP4 PUSH2 0x1D8B JUMP JUMPDEST ADD MLOAD PUSH1 0x1A DUP2 LT ISZERO PUSH2 0x10D JUMPI PUSH1 0x2 EQ DUP1 ISZERO PUSH2 0x371E JUMPI JUMPDEST ISZERO PUSH2 0x3589 JUMPI POP POP PUSH2 0x34F2 SWAP2 PUSH2 0x24A1 PUSH2 0x3535 DUP4 PUSH2 0x147B JUMP JUMPDEST MSTORE PUSH1 0xC8 PUSH2 0x3541 DUP4 PUSH2 0x180B JUMP JUMPDEST MSTORE PUSH1 0x4B PUSH2 0x354D DUP4 PUSH2 0x15AB JUMP JUMPDEST MSTORE PUSH1 0x10 PUSH2 0x3559 DUP4 PUSH2 0x15BB JUMP JUMPDEST MSTORE PUSH1 0xC PUSH2 0x3565 DUP4 PUSH2 0x17FA JUMP JUMPDEST MSTORE PUSH1 0xC PUSH2 0x3571 DUP4 PUSH2 0x181C JUMP JUMPDEST MSTORE PUSH1 0xA PUSH2 0x357D DUP4 PUSH2 0x1794 JUMP JUMPDEST MSTORE PUSH1 0xA PUSH2 0xF3 DUP4 PUSH2 0x17A5 JUMP JUMPDEST DUP2 PUSH2 0x3594 CALLDATASIZE DUP4 PUSH2 0x1D8B JUMP JUMPDEST ADD MLOAD PUSH1 0x1A DUP2 LT ISZERO PUSH2 0x10D JUMPI PUSH1 0x1 EQ SWAP2 DUP3 ISZERO PUSH2 0x36FD JUMPI JUMPDEST DUP3 ISZERO PUSH2 0x36E8 JUMPI JUMPDEST DUP3 ISZERO PUSH2 0x36C7 JUMPI JUMPDEST DUP3 ISZERO PUSH2 0x36A6 JUMPI JUMPDEST DUP3 ISZERO PUSH2 0x3684 JUMPI JUMPDEST POP DUP2 ISZERO PUSH2 0x366E JUMPI JUMPDEST POP ISZERO PUSH2 0x3668 JUMPI PUSH2 0x34F2 SWAP2 PUSH2 0x2562 PUSH2 0x35E4 DUP4 PUSH2 0x147B JUMP JUMPDEST MSTORE PUSH1 0xC8 PUSH2 0x35F0 DUP4 PUSH2 0x180B JUMP JUMPDEST MSTORE PUSH1 0x23 PUSH2 0x35FC DUP4 PUSH2 0x15DB JUMP JUMPDEST MSTORE PUSH1 0x16 PUSH2 0x3608 DUP4 PUSH2 0x17E9 JUMP JUMPDEST MSTORE PUSH1 0x14 PUSH2 0x3614 DUP4 PUSH2 0x1673 JUMP JUMPDEST MSTORE PUSH1 0x12 PUSH2 0x3620 DUP4 PUSH2 0x17C7 JUMP JUMPDEST MSTORE PUSH1 0x10 PUSH2 0x362C DUP4 PUSH2 0x1A1A JUMP JUMPDEST MSTORE PUSH1 0xE PUSH2 0x3638 DUP4 PUSH2 0x1684 JUMP JUMPDEST MSTORE PUSH1 0xC PUSH2 0x3644 DUP4 PUSH2 0x159B JUMP JUMPDEST MSTORE PUSH1 0xA PUSH2 0x3650 DUP4 PUSH2 0x17D8 JUMP JUMPDEST MSTORE PUSH1 0x8 PUSH2 0x365C DUP4 PUSH2 0x1695 JUMP JUMPDEST MSTORE PUSH1 0x4B PUSH2 0xF3 DUP4 PUSH2 0x15AB JUMP JUMPDEST POP POP PUSH0 SWAP1 JUMP JUMPDEST PUSH2 0x367E SWAP2 POP PUSH2 0x2825 SWAP1 CALLDATASIZE SWAP1 PUSH2 0x1D8B JUMP JUMPDEST PUSH0 PUSH2 0x35CE JUMP JUMPDEST SWAP1 SWAP2 POP PUSH2 0x3691 CALLDATASIZE DUP4 PUSH2 0x1D8B JUMP JUMPDEST ADD MLOAD PUSH1 0x1A DUP2 LT ISZERO PUSH2 0x10D JUMPI PUSH1 0x16 EQ SWAP1 PUSH0 PUSH2 0x35C6 JUMP JUMPDEST DUP1 SWAP3 POP PUSH2 0x36B3 CALLDATASIZE DUP4 PUSH2 0x1D8B JUMP JUMPDEST ADD MLOAD PUSH1 0x1A DUP2 LT ISZERO PUSH2 0x10D JUMPI PUSH1 0x6 EQ SWAP2 PUSH2 0x35BF JUMP JUMPDEST DUP1 SWAP3 POP PUSH2 0x36D4 CALLDATASIZE DUP4 PUSH2 0x1D8B JUMP JUMPDEST ADD MLOAD PUSH1 0x1A DUP2 LT ISZERO PUSH2 0x10D JUMPI PUSH1 0x5 EQ SWAP2 PUSH2 0x35B8 JUMP JUMPDEST SWAP2 POP PUSH2 0x36F7 PUSH2 0xD0 CALLDATASIZE DUP4 PUSH2 0x1D8B JUMP JUMPDEST SWAP2 PUSH2 0x35B1 JUMP JUMPDEST DUP1 SWAP3 POP PUSH2 0x370A CALLDATASIZE DUP4 PUSH2 0x1D8B JUMP JUMPDEST ADD MLOAD PUSH1 0x1A DUP2 LT ISZERO PUSH2 0x10D JUMPI PUSH1 0x3 EQ SWAP2 PUSH2 0x35AA JUMP JUMPDEST POP DUP2 PUSH2 0x372A CALLDATASIZE DUP4 PUSH2 0x1D8B JUMP JUMPDEST ADD MLOAD PUSH1 0x1A DUP2 LT ISZERO PUSH2 0x10D JUMPI PUSH1 0x18 EQ PUSH2 0x351E JUMP JUMPDEST POP PUSH2 0x374B PUSH2 0x2858 CALLDATASIZE DUP4 PUSH2 0x1D8B JUMP JUMPDEST PUSH2 0x3403 JUMP JUMPDEST SWAP1 PUSH0 SWAP3 PUSH0 SWAP4 JUMPDEST DUP3 MLOAD DUP6 LT ISZERO PUSH2 0x377A JUMPI PUSH1 0x1 SWAP1 PUSH2 0xFFFF PUSH2 0x376F DUP8 DUP7 PUSH2 0x1D5A JUMP JUMPDEST MLOAD AND ADD SWAP5 ADD SWAP4 PUSH2 0x3756 JUMP JUMPDEST SWAP1 SWAP4 POP PUSH1 0x20 DUP4 ADD PUSH1 0x1 DUP2 MLOAD ADD DUP1 SWAP2 MSTORE DUP4 MLOAD SWAP1 PUSH1 0x40 MLOAD SWAP1 PUSH1 0x20 DUP3 ADD SWAP3 DUP4 MSTORE PUSH1 0x40 DUP3 ADD MSTORE PUSH1 0x40 DUP2 MSTORE PUSH2 0x37AB PUSH1 0x60 DUP3 PUSH2 0x13CE JUMP JUMPDEST MLOAD SWAP1 KECCAK256 DUP1 SWAP4 MSTORE DUP1 ISZERO PUSH2 0x37C5 JUMPI PUSH2 0x37C2 SWAP3 MOD SWAP1 PUSH2 0x3875 JUMP JUMPDEST SWAP1 JUMP JUMPDEST PUSH4 0x4E487B71 PUSH1 0xE0 SHL PUSH0 MSTORE PUSH1 0x12 PUSH1 0x4 MSTORE PUSH1 0x24 PUSH0 REVERT JUMPDEST PUSH2 0x280 ADD DUP1 MLOAD PUSH1 0x1A DUP2 LT ISZERO PUSH2 0x10D JUMPI PUSH1 0xFF PUSH1 0x7 SWAP2 AND LT ISZERO SWAP1 DUP2 PUSH2 0x37FA JUMPI POP SWAP1 JUMP JUMPDEST SWAP1 POP MLOAD PUSH1 0x1A DUP2 LT ISZERO PUSH2 0x10D JUMPI PUSH1 0xFF PUSH1 0xA SWAP2 AND GT ISZERO SWAP1 JUMP JUMPDEST PUSH2 0x280 ADD MLOAD PUSH1 0x1A DUP2 LT ISZERO PUSH2 0x10D JUMPI PUSH1 0x19 EQ SWAP1 JUMP JUMPDEST PUSH2 0x280 ADD MLOAD PUSH1 0x1A DUP2 LT ISZERO PUSH2 0x10D JUMPI PUSH1 0x15 EQ SWAP1 JUMP JUMPDEST PUSH2 0x280 ADD MLOAD PUSH1 0x1A DUP2 LT ISZERO PUSH2 0x10D JUMPI PUSH1 0x14 EQ SWAP1 JUMP JUMPDEST PUSH2 0x280 ADD MLOAD PUSH1 0x1A DUP2 LT ISZERO PUSH2 0x10D JUMPI PUSH1 0x17 EQ SWAP1 JUMP JUMPDEST PUSH2 0x280 ADD MLOAD PUSH1 0x1A DUP2 LT ISZERO PUSH2 0x10D JUMPI PUSH1 0x4 EQ SWAP1 JUMP JUMPDEST SWAP1 PUSH0 DUP1 JUMPDEST DUP4 MLOAD DUP3 LT ISZERO PUSH2 0x38AA JUMPI PUSH2 0xFFFF PUSH2 0x388F DUP4 DUP7 PUSH2 0x1D5A JUMP JUMPDEST MLOAD AND ADD SWAP1 DUP2 DUP4 LT PUSH2 0x38A3 JUMPI PUSH1 0x1 ADD SWAP1 PUSH2 0x3879 JUMP JUMPDEST SWAP3 POP POP POP SWAP1 JUMP JUMPDEST PUSH1 0x40 MLOAD PUSH3 0x461BCD PUSH1 0xE5 SHL DUP2 MSTORE PUSH1 0x20 PUSH1 0x4 DUP3 ADD MSTORE PUSH1 0x10 PUSH1 0x24 DUP3 ADD MSTORE PUSH16 0x14D95B1958DD1A5BDB8819985A5B1959 PUSH1 0x82 SHL PUSH1 0x44 DUP3 ADD MSTORE PUSH1 0x64 SWAP1 REVERT INVALID LOG2 PUSH5 0x6970667358 0x22 SLT KECCAK256 0xC8 LOG0 PUSH2 0xA5E2 0xBF PUSH12 0xC5EA645419015313705C9721 JUMPF 0x4D56 0x1E DATALOADN 0xB70A 0xA9 PUSH19 0xAFB7BDDE64736F6C634300081E003300000000 "
		},
		"gasEstimates": {
			"creation": {
				"codeDepositCost": "2923200",
				"executionCost": "3214",
				"totalCost": "2926414"
			},
			"external": {
				"selectFemaleChain((uint256,uint256))": "infinite",
				"selectFemaleEarring((uint256,uint256))": "infinite",
				"selectFemaleEyeWear((uint256,uint256))": "infinite",
				"selectFemaleEyes(((uint8,uint8,bool,(uint8,uint8))[],uint8,uint16,uint256,uint16,uint32,uint8,uint8,uint8,uint8,uint8,uint8,uint8,uint8,uint8,uint8,uint8,uint8,uint8,uint8,uint8,uint8,uint8,uint8,uint8,uint8,uint8,uint8,uint8,uint8,uint8,uint8),(uint256,uint256))": "infinite",
				"selectFemaleFace(((uint8,uint8,bool,(uint8,uint8))[],uint8,uint16,uint256,uint16,uint32,uint8,uint8,uint8,uint8,uint8,uint8,uint8,uint8,uint8,uint8,uint8,uint8,uint8,uint8,uint8,uint8,uint8,uint8,uint8,uint8,uint8,uint8,uint8,uint8,uint8,uint8),(uint256,uint256))": "infinite",
				"selectFemaleHair(((uint8,uint8,bool,(uint8,uint8))[],uint8,uint16,uint256,uint16,uint32,uint8,uint8,uint8,uint8,uint8,uint8,uint8,uint8,uint8,uint8,uint8,uint8,uint8,uint8,uint8,uint8,uint8,uint8,uint8,uint8,uint8,uint8,uint8,uint8,uint8,uint8),(uint256,uint256))": "infinite",
				"selectFemaleHatHair(((uint8,uint8,bool,(uint8,uint8))[],uint8,uint16,uint256,uint16,uint32,uint8,uint8,uint8,uint8,uint8,uint8,uint8,uint8,uint8,uint8,uint8,uint8,uint8,uint8,uint8,uint8,uint8,uint8,uint8,uint8,uint8,uint8,uint8,uint8,uint8,uint8),(uint256,uint256))": "infinite",
				"selectFemaleHeadwear((uint256,uint256))": "infinite",
				"selectFemaleMask((uint256,uint256))": "infinite",
				"selectFemaleScarf((uint256,uint256))": "infinite",
				"selectFemaleSkin((uint256,uint256))": "infinite"
			}
		},
		"methodIdentifiers": {
			"selectFemaleChain((uint256,uint256))": "29814be5",
			"selectFemaleEarring((uint256,uint256))": "8e57a737",
			"selectFemaleEyeWear((uint256,uint256))": "a063f74f",
			"selectFemaleEyes(((uint8,uint8,bool,(uint8,uint8))[],uint8,uint16,uint256,uint16,uint32,uint8,uint8,uint8,uint8,uint8,uint8,uint8,uint8,uint8,uint8,uint8,uint8,uint8,uint8,uint8,uint8,uint8,uint8,uint8,uint8,uint8,uint8,uint8,uint8,uint8,uint8),(uint256,uint256))": "f17076c7",
			"selectFemaleFace(((uint8,uint8,bool,(uint8,uint8))[],uint8,uint16,uint256,uint16,uint32,uint8,uint8,uint8,uint8,uint8,uint8,uint8,uint8,uint8,uint8,uint8,uint8,uint8,uint8,uint8,uint8,uint8,uint8,uint8,uint8,uint8,uint8,uint8,uint8,uint8,uint8),(uint256,uint256))": "7829af69",
			"selectFemaleHair(((uint8,uint8,bool,(uint8,uint8))[],uint8,uint16,uint256,uint16,uint32,uint8,uint8,uint8,uint8,uint8,uint8,uint8,uint8,uint8,uint8,uint8,uint8,uint8,uint8,uint8,uint8,uint8,uint8,uint8,uint8,uint8,uint8,uint8,uint8,uint8,uint8),(uint256,uint256))": "660a197a",
			"selectFemaleHatHair(((uint8,uint8,bool,(uint8,uint8))[],uint8,uint16,uint256,uint16,uint32,uint8,uint8,uint8,uint8,uint8,uint8,uint8,uint8,uint8,uint8,uint8,uint8,uint8,uint8,uint8,uint8,uint8,uint8,uint8,uint8,uint8,uint8,uint8,uint8,uint8,uint8),(uint256,uint256))": "40aba8db",
			"selectFemaleHeadwear((uint256,uint256))": "2743c88f",
			"selectFemaleMask((uint256,uint256))": "e0cf503a",
			"selectFemaleScarf((uint256,uint256))": "74953ae2",
			"selectFemaleSkin((uint256,uint256))": "d5a6e660"
		}
	},
	"abi": [
		{
			"inputs": [
				{
					"components": [
						{
							"internalType": "uint256",
							"name": "seed",
							"type": "uint256"
						},
						{
							"internalType": "uint256",
							"name": "counter",
							"type": "uint256"
						}
					],
					"internalType": "struct RandomCtx",
					"name": "rndCtx",
					"type": "tuple"
				}
			],
			"name": "selectFemaleChain",
			"outputs": [
				{
					"internalType": "enum E_Female_Chain",
					"name": "",
					"type": "uint8"
				}
			],
			"stateMutability": "pure",
			"type": "function"
		},
		{
			"inputs": [
				{
					"components": [
						{
							"internalType": "uint256",
							"name": "seed",
							"type": "uint256"
						},
						{
							"internalType": "uint256",
							"name": "counter",
							"type": "uint256"
						}
					],
					"internalType": "struct RandomCtx",
					"name": "rndCtx",
					"type": "tuple"
				}
			],
			"name": "selectFemaleEarring",
			"outputs": [
				{
					"internalType": "enum E_Female_Earring",
					"name": "",
					"type": "uint8"
				}
			],
			"stateMutability": "pure",
			"type": "function"
		},
		{
			"inputs": [
				{
					"components": [
						{
							"internalType": "uint256",
							"name": "seed",
							"type": "uint256"
						},
						{
							"internalType": "uint256",
							"name": "counter",
							"type": "uint256"
						}
					],
					"internalType": "struct RandomCtx",
					"name": "rndCtx",
					"type": "tuple"
				}
			],
			"name": "selectFemaleEyeWear",
			"outputs": [
				{
					"internalType": "enum E_Female_Eye_Wear",
					"name": "",
					"type": "uint8"
				}
			],
			"stateMutability": "pure",
			"type": "function"
		},
		{
			"inputs": [
				{
					"components": [
						{
							"components": [
								{
									"internalType": "enum E_TraitsGroup",
									"name": "traitGroup",
									"type": "uint8"
								},
								{
									"internalType": "uint8",
									"name": "traitIndex",
									"type": "uint8"
								},
								{
									"internalType": "bool",
									"name": "hasFiller",
									"type": "bool"
								},
								{
									"components": [
										{
											"internalType": "enum E_TraitsGroup",
											"name": "traitGroup",
											"type": "uint8"
										},
										{
											"internalType": "uint8",
											"name": "traitIndex",
											"type": "uint8"
										}
									],
									"internalType": "struct FillerTrait",
									"name": "filler",
									"type": "tuple"
								}
							],
							"internalType": "struct TraitToRender[]",
							"name": "traitsToRender",
							"type": "tuple[]"
						},
						{
							"internalType": "uint8",
							"name": "traitsToRenderLength",
							"type": "uint8"
						},
						{
							"internalType": "uint16",
							"name": "tokenIdSeed",
							"type": "uint16"
						},
						{
							"internalType": "uint256",
							"name": "globalSeed",
							"type": "uint256"
						},
						{
							"internalType": "uint16",
							"name": "specialId",
							"type": "uint16"
						},
						{
							"internalType": "uint32",
							"name": "birthday",
							"type": "uint32"
						},
						{
							"internalType": "enum E_Sex",
							"name": "sex",
							"type": "uint8"
						},
						{
							"internalType": "enum E_Background",
							"name": "background",
							"type": "uint8"
						},
						{
							"internalType": "enum E_Male_Skin",
							"name": "maleSkin",
							"type": "uint8"
						},
						{
							"internalType": "enum E_Male_Eyes",
							"name": "maleEyes",
							"type": "uint8"
						},
						{
							"internalType": "enum E_Male_Face",
							"name": "maleFace",
							"type": "uint8"
						},
						{
							"internalType": "enum E_Male_Chain",
							"name": "maleChain",
							"type": "uint8"
						},
						{
							"internalType": "enum E_Male_Earring",
							"name": "maleEarring",
							"type": "uint8"
						},
						{
							"internalType": "enum E_Male_Scarf",
							"name": "maleScarf",
							"type": "uint8"
						},
						{
							"internalType": "enum E_Male_Facial_Hair",
							"name": "maleFacialHair",
							"type": "uint8"
						},
						{
							"internalType": "enum E_Male_Mask",
							"name": "maleMask",
							"type": "uint8"
						},
						{
							"internalType": "enum E_Male_Hair",
							"name": "maleHair",
							"type": "uint8"
						},
						{
							"internalType": "enum E_Male_Hat_Hair",
							"name": "maleHatHair",
							"type": "uint8"
						},
						{
							"internalType": "enum E_Male_Headwear",
							"name": "maleHeadwear",
							"type": "uint8"
						},
						{
							"internalType": "enum E_Male_Eye_Wear",
							"name": "maleEyeWear",
							"type": "uint8"
						},
						{
							"internalType": "enum E_Female_Skin",
							"name": "femaleSkin",
							"type": "uint8"
						},
						{
							"internalType": "enum E_Female_Eyes",
							"name": "femaleEyes",
							"type": "uint8"
						},
						{
							"internalType": "enum E_Female_Face",
							"name": "femaleFace",
							"type": "uint8"
						},
						{
							"internalType": "enum E_Female_Chain",
							"name": "femaleChain",
							"type": "uint8"
						},
						{
							"internalType": "enum E_Female_Earring",
							"name": "femaleEarring",
							"type": "uint8"
						},
						{
							"internalType": "enum E_Female_Scarf",
							"name": "femaleScarf",
							"type": "uint8"
						},
						{
							"internalType": "enum E_Female_Mask",
							"name": "femaleMask",
							"type": "uint8"
						},
						{
							"internalType": "enum E_Female_Hair",
							"name": "femaleHair",
							"type": "uint8"
						},
						{
							"internalType": "enum E_Female_Hat_Hair",
							"name": "femaleHatHair",
							"type": "uint8"
						},
						{
							"internalType": "enum E_Female_Headwear",
							"name": "femaleHeadwear",
							"type": "uint8"
						},
						{
							"internalType": "enum E_Female_Eye_Wear",
							"name": "femaleEyeWear",
							"type": "uint8"
						},
						{
							"internalType": "enum E_Mouth",
							"name": "mouth",
							"type": "uint8"
						}
					],
					"internalType": "struct TraitsContext",
					"name": "traits",
					"type": "tuple"
				},
				{
					"components": [
						{
							"internalType": "uint256",
							"name": "seed",
							"type": "uint256"
						},
						{
							"internalType": "uint256",
							"name": "counter",
							"type": "uint256"
						}
					],
					"internalType": "struct RandomCtx",
					"name": "rndCtx",
					"type": "tuple"
				}
			],
			"name": "selectFemaleEyes",
			"outputs": [
				{
					"internalType": "enum E_Female_Eyes",
					"name": "",
					"type": "uint8"
				}
			],
			"stateMutability": "pure",
			"type": "function"
		},
		{
			"inputs": [
				{
					"components": [
						{
							"components": [
								{
									"internalType": "enum E_TraitsGroup",
									"name": "traitGroup",
									"type": "uint8"
								},
								{
									"internalType": "uint8",
									"name": "traitIndex",
									"type": "uint8"
								},
								{
									"internalType": "bool",
									"name": "hasFiller",
									"type": "bool"
								},
								{
									"components": [
										{
											"internalType": "enum E_TraitsGroup",
											"name": "traitGroup",
											"type": "uint8"
										},
										{
											"internalType": "uint8",
											"name": "traitIndex",
											"type": "uint8"
										}
									],
									"internalType": "struct FillerTrait",
									"name": "filler",
									"type": "tuple"
								}
							],
							"internalType": "struct TraitToRender[]",
							"name": "traitsToRender",
							"type": "tuple[]"
						},
						{
							"internalType": "uint8",
							"name": "traitsToRenderLength",
							"type": "uint8"
						},
						{
							"internalType": "uint16",
							"name": "tokenIdSeed",
							"type": "uint16"
						},
						{
							"internalType": "uint256",
							"name": "globalSeed",
							"type": "uint256"
						},
						{
							"internalType": "uint16",
							"name": "specialId",
							"type": "uint16"
						},
						{
							"internalType": "uint32",
							"name": "birthday",
							"type": "uint32"
						},
						{
							"internalType": "enum E_Sex",
							"name": "sex",
							"type": "uint8"
						},
						{
							"internalType": "enum E_Background",
							"name": "background",
							"type": "uint8"
						},
						{
							"internalType": "enum E_Male_Skin",
							"name": "maleSkin",
							"type": "uint8"
						},
						{
							"internalType": "enum E_Male_Eyes",
							"name": "maleEyes",
							"type": "uint8"
						},
						{
							"internalType": "enum E_Male_Face",
							"name": "maleFace",
							"type": "uint8"
						},
						{
							"internalType": "enum E_Male_Chain",
							"name": "maleChain",
							"type": "uint8"
						},
						{
							"internalType": "enum E_Male_Earring",
							"name": "maleEarring",
							"type": "uint8"
						},
						{
							"internalType": "enum E_Male_Scarf",
							"name": "maleScarf",
							"type": "uint8"
						},
						{
							"internalType": "enum E_Male_Facial_Hair",
							"name": "maleFacialHair",
							"type": "uint8"
						},
						{
							"internalType": "enum E_Male_Mask",
							"name": "maleMask",
							"type": "uint8"
						},
						{
							"internalType": "enum E_Male_Hair",
							"name": "maleHair",
							"type": "uint8"
						},
						{
							"internalType": "enum E_Male_Hat_Hair",
							"name": "maleHatHair",
							"type": "uint8"
						},
						{
							"internalType": "enum E_Male_Headwear",
							"name": "maleHeadwear",
							"type": "uint8"
						},
						{
							"internalType": "enum E_Male_Eye_Wear",
							"name": "maleEyeWear",
							"type": "uint8"
						},
						{
							"internalType": "enum E_Female_Skin",
							"name": "femaleSkin",
							"type": "uint8"
						},
						{
							"internalType": "enum E_Female_Eyes",
							"name": "femaleEyes",
							"type": "uint8"
						},
						{
							"internalType": "enum E_Female_Face",
							"name": "femaleFace",
							"type": "uint8"
						},
						{
							"internalType": "enum E_Female_Chain",
							"name": "femaleChain",
							"type": "uint8"
						},
						{
							"internalType": "enum E_Female_Earring",
							"name": "femaleEarring",
							"type": "uint8"
						},
						{
							"internalType": "enum E_Female_Scarf",
							"name": "femaleScarf",
							"type": "uint8"
						},
						{
							"internalType": "enum E_Female_Mask",
							"name": "femaleMask",
							"type": "uint8"
						},
						{
							"internalType": "enum E_Female_Hair",
							"name": "femaleHair",
							"type": "uint8"
						},
						{
							"internalType": "enum E_Female_Hat_Hair",
							"name": "femaleHatHair",
							"type": "uint8"
						},
						{
							"internalType": "enum E_Female_Headwear",
							"name": "femaleHeadwear",
							"type": "uint8"
						},
						{
							"internalType": "enum E_Female_Eye_Wear",
							"name": "femaleEyeWear",
							"type": "uint8"
						},
						{
							"internalType": "enum E_Mouth",
							"name": "mouth",
							"type": "uint8"
						}
					],
					"internalType": "struct TraitsContext",
					"name": "traits",
					"type": "tuple"
				},
				{
					"components": [
						{
							"internalType": "uint256",
							"name": "seed",
							"type": "uint256"
						},
						{
							"internalType": "uint256",
							"name": "counter",
							"type": "uint256"
						}
					],
					"internalType": "struct RandomCtx",
					"name": "rndCtx",
					"type": "tuple"
				}
			],
			"name": "selectFemaleFace",
			"outputs": [
				{
					"internalType": "enum E_Female_Face",
					"name": "",
					"type": "uint8"
				}
			],
			"stateMutability": "pure",
			"type": "function"
		},
		{
			"inputs": [
				{
					"components": [
						{
							"components": [
								{
									"internalType": "enum E_TraitsGroup",
									"name": "traitGroup",
									"type": "uint8"
								},
								{
									"internalType": "uint8",
									"name": "traitIndex",
									"type": "uint8"
								},
								{
									"internalType": "bool",
									"name": "hasFiller",
									"type": "bool"
								},
								{
									"components": [
										{
											"internalType": "enum E_TraitsGroup",
											"name": "traitGroup",
											"type": "uint8"
										},
										{
											"internalType": "uint8",
											"name": "traitIndex",
											"type": "uint8"
										}
									],
									"internalType": "struct FillerTrait",
									"name": "filler",
									"type": "tuple"
								}
							],
							"internalType": "struct TraitToRender[]",
							"name": "traitsToRender",
							"type": "tuple[]"
						},
						{
							"internalType": "uint8",
							"name": "traitsToRenderLength",
							"type": "uint8"
						},
						{
							"internalType": "uint16",
							"name": "tokenIdSeed",
							"type": "uint16"
						},
						{
							"internalType": "uint256",
							"name": "globalSeed",
							"type": "uint256"
						},
						{
							"internalType": "uint16",
							"name": "specialId",
							"type": "uint16"
						},
						{
							"internalType": "uint32",
							"name": "birthday",
							"type": "uint32"
						},
						{
							"internalType": "enum E_Sex",
							"name": "sex",
							"type": "uint8"
						},
						{
							"internalType": "enum E_Background",
							"name": "background",
							"type": "uint8"
						},
						{
							"internalType": "enum E_Male_Skin",
							"name": "maleSkin",
							"type": "uint8"
						},
						{
							"internalType": "enum E_Male_Eyes",
							"name": "maleEyes",
							"type": "uint8"
						},
						{
							"internalType": "enum E_Male_Face",
							"name": "maleFace",
							"type": "uint8"
						},
						{
							"internalType": "enum E_Male_Chain",
							"name": "maleChain",
							"type": "uint8"
						},
						{
							"internalType": "enum E_Male_Earring",
							"name": "maleEarring",
							"type": "uint8"
						},
						{
							"internalType": "enum E_Male_Scarf",
							"name": "maleScarf",
							"type": "uint8"
						},
						{
							"internalType": "enum E_Male_Facial_Hair",
							"name": "maleFacialHair",
							"type": "uint8"
						},
						{
							"internalType": "enum E_Male_Mask",
							"name": "maleMask",
							"type": "uint8"
						},
						{
							"internalType": "enum E_Male_Hair",
							"name": "maleHair",
							"type": "uint8"
						},
						{
							"internalType": "enum E_Male_Hat_Hair",
							"name": "maleHatHair",
							"type": "uint8"
						},
						{
							"internalType": "enum E_Male_Headwear",
							"name": "maleHeadwear",
							"type": "uint8"
						},
						{
							"internalType": "enum E_Male_Eye_Wear",
							"name": "maleEyeWear",
							"type": "uint8"
						},
						{
							"internalType": "enum E_Female_Skin",
							"name": "femaleSkin",
							"type": "uint8"
						},
						{
							"internalType": "enum E_Female_Eyes",
							"name": "femaleEyes",
							"type": "uint8"
						},
						{
							"internalType": "enum E_Female_Face",
							"name": "femaleFace",
							"type": "uint8"
						},
						{
							"internalType": "enum E_Female_Chain",
							"name": "femaleChain",
							"type": "uint8"
						},
						{
							"internalType": "enum E_Female_Earring",
							"name": "femaleEarring",
							"type": "uint8"
						},
						{
							"internalType": "enum E_Female_Scarf",
							"name": "femaleScarf",
							"type": "uint8"
						},
						{
							"internalType": "enum E_Female_Mask",
							"name": "femaleMask",
							"type": "uint8"
						},
						{
							"internalType": "enum E_Female_Hair",
							"name": "femaleHair",
							"type": "uint8"
						},
						{
							"internalType": "enum E_Female_Hat_Hair",
							"name": "femaleHatHair",
							"type": "uint8"
						},
						{
							"internalType": "enum E_Female_Headwear",
							"name": "femaleHeadwear",
							"type": "uint8"
						},
						{
							"internalType": "enum E_Female_Eye_Wear",
							"name": "femaleEyeWear",
							"type": "uint8"
						},
						{
							"internalType": "enum E_Mouth",
							"name": "mouth",
							"type": "uint8"
						}
					],
					"internalType": "struct TraitsContext",
					"name": "traits",
					"type": "tuple"
				},
				{
					"components": [
						{
							"internalType": "uint256",
							"name": "seed",
							"type": "uint256"
						},
						{
							"internalType": "uint256",
							"name": "counter",
							"type": "uint256"
						}
					],
					"internalType": "struct RandomCtx",
					"name": "rndCtx",
					"type": "tuple"
				}
			],
			"name": "selectFemaleHair",
			"outputs": [
				{
					"internalType": "enum E_Female_Hair",
					"name": "",
					"type": "uint8"
				}
			],
			"stateMutability": "pure",
			"type": "function"
		},
		{
			"inputs": [
				{
					"components": [
						{
							"components": [
								{
									"internalType": "enum E_TraitsGroup",
									"name": "traitGroup",
									"type": "uint8"
								},
								{
									"internalType": "uint8",
									"name": "traitIndex",
									"type": "uint8"
								},
								{
									"internalType": "bool",
									"name": "hasFiller",
									"type": "bool"
								},
								{
									"components": [
										{
											"internalType": "enum E_TraitsGroup",
											"name": "traitGroup",
											"type": "uint8"
										},
										{
											"internalType": "uint8",
											"name": "traitIndex",
											"type": "uint8"
										}
									],
									"internalType": "struct FillerTrait",
									"name": "filler",
									"type": "tuple"
								}
							],
							"internalType": "struct TraitToRender[]",
							"name": "traitsToRender",
							"type": "tuple[]"
						},
						{
							"internalType": "uint8",
							"name": "traitsToRenderLength",
							"type": "uint8"
						},
						{
							"internalType": "uint16",
							"name": "tokenIdSeed",
							"type": "uint16"
						},
						{
							"internalType": "uint256",
							"name": "globalSeed",
							"type": "uint256"
						},
						{
							"internalType": "uint16",
							"name": "specialId",
							"type": "uint16"
						},
						{
							"internalType": "uint32",
							"name": "birthday",
							"type": "uint32"
						},
						{
							"internalType": "enum E_Sex",
							"name": "sex",
							"type": "uint8"
						},
						{
							"internalType": "enum E_Background",
							"name": "background",
							"type": "uint8"
						},
						{
							"internalType": "enum E_Male_Skin",
							"name": "maleSkin",
							"type": "uint8"
						},
						{
							"internalType": "enum E_Male_Eyes",
							"name": "maleEyes",
							"type": "uint8"
						},
						{
							"internalType": "enum E_Male_Face",
							"name": "maleFace",
							"type": "uint8"
						},
						{
							"internalType": "enum E_Male_Chain",
							"name": "maleChain",
							"type": "uint8"
						},
						{
							"internalType": "enum E_Male_Earring",
							"name": "maleEarring",
							"type": "uint8"
						},
						{
							"internalType": "enum E_Male_Scarf",
							"name": "maleScarf",
							"type": "uint8"
						},
						{
							"internalType": "enum E_Male_Facial_Hair",
							"name": "maleFacialHair",
							"type": "uint8"
						},
						{
							"internalType": "enum E_Male_Mask",
							"name": "maleMask",
							"type": "uint8"
						},
						{
							"internalType": "enum E_Male_Hair",
							"name": "maleHair",
							"type": "uint8"
						},
						{
							"internalType": "enum E_Male_Hat_Hair",
							"name": "maleHatHair",
							"type": "uint8"
						},
						{
							"internalType": "enum E_Male_Headwear",
							"name": "maleHeadwear",
							"type": "uint8"
						},
						{
							"internalType": "enum E_Male_Eye_Wear",
							"name": "maleEyeWear",
							"type": "uint8"
						},
						{
							"internalType": "enum E_Female_Skin",
							"name": "femaleSkin",
							"type": "uint8"
						},
						{
							"internalType": "enum E_Female_Eyes",
							"name": "femaleEyes",
							"type": "uint8"
						},
						{
							"internalType": "enum E_Female_Face",
							"name": "femaleFace",
							"type": "uint8"
						},
						{
							"internalType": "enum E_Female_Chain",
							"name": "femaleChain",
							"type": "uint8"
						},
						{
							"internalType": "enum E_Female_Earring",
							"name": "femaleEarring",
							"type": "uint8"
						},
						{
							"internalType": "enum E_Female_Scarf",
							"name": "femaleScarf",
							"type": "uint8"
						},
						{
							"internalType": "enum E_Female_Mask",
							"name": "femaleMask",
							"type": "uint8"
						},
						{
							"internalType": "enum E_Female_Hair",
							"name": "femaleHair",
							"type": "uint8"
						},
						{
							"internalType": "enum E_Female_Hat_Hair",
							"name": "femaleHatHair",
							"type": "uint8"
						},
						{
							"internalType": "enum E_Female_Headwear",
							"name": "femaleHeadwear",
							"type": "uint8"
						},
						{
							"internalType": "enum E_Female_Eye_Wear",
							"name": "femaleEyeWear",
							"type": "uint8"
						},
						{
							"internalType": "enum E_Mouth",
							"name": "mouth",
							"type": "uint8"
						}
					],
					"internalType": "struct TraitsContext",
					"name": "traits",
					"type": "tuple"
				},
				{
					"components": [
						{
							"internalType": "uint256",
							"name": "seed",
							"type": "uint256"
						},
						{
							"internalType": "uint256",
							"name": "counter",
							"type": "uint256"
						}
					],
					"internalType": "struct RandomCtx",
					"name": "rndCtx",
					"type": "tuple"
				}
			],
			"name": "selectFemaleHatHair",
			"outputs": [
				{
					"internalType": "enum E_Female_Hat_Hair",
					"name": "",
					"type": "uint8"
				}
			],
			"stateMutability": "pure",
			"type": "function"
		},
		{
			"inputs": [
				{
					"components": [
						{
							"internalType": "uint256",
							"name": "seed",
							"type": "uint256"
						},
						{
							"internalType": "uint256",
							"name": "counter",
							"type": "uint256"
						}
					],
					"internalType": "struct RandomCtx",
					"name": "rndCtx",
					"type": "tuple"
				}
			],
			"name": "selectFemaleHeadwear",
			"outputs": [
				{
					"internalType": "enum E_Female_Headwear",
					"name": "",
					"type": "uint8"
				}
			],
			"stateMutability": "pure",
			"type": "function"
		},
		{
			"inputs": [
				{
					"components": [
						{
							"internalType": "uint256",
							"name": "seed",
							"type": "uint256"
						},
						{
							"internalType": "uint256",
							"name": "counter",
							"type": "uint256"
						}
					],
					"internalType": "struct RandomCtx",
					"name": "rndCtx",
					"type": "tuple"
				}
			],
			"name": "selectFemaleMask",
			"outputs": [
				{
					"internalType": "enum E_Female_Mask",
					"name": "",
					"type": "uint8"
				}
			],
			"stateMutability": "pure",
			"type": "function"
		},
		{
			"inputs": [
				{
					"components": [
						{
							"internalType": "uint256",
							"name": "seed",
							"type": "uint256"
						},
						{
							"internalType": "uint256",
							"name": "counter",
							"type": "uint256"
						}
					],
					"internalType": "struct RandomCtx",
					"name": "rndCtx",
					"type": "tuple"
				}
			],
			"name": "selectFemaleScarf",
			"outputs": [
				{
					"internalType": "enum E_Female_Scarf",
					"name": "",
					"type": "uint8"
				}
			],
			"stateMutability": "pure",
			"type": "function"
		},
		{
			"inputs": [
				{
					"components": [
						{
							"internalType": "uint256",
							"name": "seed",
							"type": "uint256"
						},
						{
							"internalType": "uint256",
							"name": "counter",
							"type": "uint256"
						}
					],
					"internalType": "struct RandomCtx",
					"name": "rndCtx",
					"type": "tuple"
				}
			],
			"name": "selectFemaleSkin",
			"outputs": [
				{
					"internalType": "enum E_Female_Skin",
					"name": "",
					"type": "uint8"
				}
			],
			"stateMutability": "pure",
			"type": "function"
		}
	]
}