{
	"data": {
		"bytecode": {
			"linkReferences": {},
			"object": "6080604052348015600e575f5ffd5b50617eac8061001c5f395ff3fe608060405234801561000f575f5ffd5b50600436106100a6575f3560e01c80636245a7441161006e5780636245a7441461015357806369b913fa1461017357806374953ae2146101935780638e57a737146100d3578063a063f74f146101b3578063e0cf503a146101d3575f5ffd5b80632743c88f146100aa57806329814be5146100d357806351245032146100f35780635489f9cf1461011357806358a44c9814610133575b5f5ffd5b6100bd6100b8366004617787565b6101f3565b6040516100ca91906177bc565b60405180910390f35b6100e66100e1366004617787565b61166d565b6040516100ca91906177e9565b610106610101366004617787565b61181f565b6040516100ca91906177f6565b61012661012136600461780a565b611c5c565b6040516100ca919061785b565b61014661014136600461780a565b6131d8565b6040516100ca919061786f565b61016661016136600461780a565b61371a565b6040516100ca9190617883565b61018661018136600461780a565b613e34565b6040516100ca9190617897565b6101a66101a1366004617787565b615d0b565b6040516100ca91906178ab565b6101c66101c1366004617787565b615df2565b6040516100ca91906178bf565b6101e66101e1366004617787565b617104565b6040516100ca91906178d3565b60408051608380825261108082019092525f918291906020820161106080368337019050509050610367815f8151811061022f5761022f6178e7565b61ffff90921660209283029190910190910152605581605a81518110610257576102576178e7565b61ffff90921660209283029190910190910152605581605b8151811061027f5761027f6178e7565b61ffff90921660209283029190910190910152605581605c815181106102a7576102a76178e7565b61ffff90921660209283029190910190910152605581605d815181106102cf576102cf6178e7565b61ffff90921660209283029190910190910152605581605e815181106102f7576102f76178e7565b61ffff90921660209283029190910190910152605581605f8151811061031f5761031f6178e7565b61ffff90921660209283029190910190910152605581606081518110610347576103476178e7565b61ffff9092166020928302919091019091015260558160618151811061036f5761036f6178e7565b61ffff90921660209283029190910190910152605581606281518110610397576103976178e7565b61ffff909216602092830291909101909101526055816063815181106103bf576103bf6178e7565b61ffff90921660209283029190910190910152609681601d815181106103e7576103e76178e7565b61ffff90921660209283029190910190910152609681601e8151811061040f5761040f6178e7565b61ffff90921660209283029190910190910152609681601f81518110610437576104376178e7565b61ffff90921660209283029190910182015260969082908151811061045e5761045e6178e7565b61ffff90921660209283029190910190910152609681601c81518110610486576104866178e7565b61ffff909216602092830291909101909101526092816002815181106104ae576104ae6178e7565b61ffff909216602092830291909101909101526092816003815181106104d6576104d66178e7565b61ffff909216602092830291909101909101526092816004815181106104fe576104fe6178e7565b61ffff90921660209283029190910190910152609281600581518110610526576105266178e7565b61ffff9092166020928302919091019091015260928160068151811061054e5761054e6178e7565b61ffff90921660209283029190910190910152605a81605181518110610576576105766178e7565b61ffff90921660209283029190910190910152605a8160528151811061059e5761059e6178e7565b61ffff90921660209283029190910190910152605a816053815181106105c6576105c66178e7565b61ffff90921660209283029190910190910152605a816054815181106105ee576105ee6178e7565b61ffff90921660209283029190910190910152605a81605581518110610616576106166178e7565b61ffff90921660209283029190910190910152605a8160568151811061063e5761063e6178e7565b61ffff90921660209283029190910190910152605a81605781518110610666576106666178e7565b61ffff90921660209283029190910190910152605a8160588151811061068e5761068e6178e7565b61ffff909216602092830291909101909101526050816010815181106106b6576106b66178e7565b61ffff909216602092830291909101909101526050816011815181106106de576106de6178e7565b61ffff90921660209283029190910190910152605081601281518110610706576107066178e7565b61ffff9092166020928302919091019091015260508160138151811061072e5761072e6178e7565b61ffff90921660209283029190910190910152605081601481518110610756576107566178e7565b61ffff9092166020928302919091019091015260508160158151811061077e5761077e6178e7565b61ffff909216602092830291909101909101526050816016815181106107a6576107a66178e7565b61ffff909216602092830291909101909101526050816017815181106107ce576107ce6178e7565b61ffff909216602092830291909101909101526050816018815181106107f6576107f66178e7565b61ffff9092166020928302919091019091015260578160748151811061081e5761081e6178e7565b61ffff90921660209283029190910190910152605781607581518110610846576108466178e7565b61ffff9092166020928302919091019091015260578160768151811061086e5761086e6178e7565b61ffff90921660209283029190910190910152605781607781518110610896576108966178e7565b61ffff909216602092830291909101909101526057816078815181106108be576108be6178e7565b61ffff909216602092830291909101909101526057816079815181106108e6576108e66178e7565b61ffff90921660209283029190910190910152605781607a8151811061090e5761090e6178e7565b61ffff90921660209283029190910190910152605781607b81518110610936576109366178e7565b61ffff9092166020928302919091019091015260498160078151811061095e5761095e6178e7565b61ffff90921660209283029190910190910152604981600881518110610986576109866178e7565b61ffff909216602092830291909101909101526049816009815181106109ae576109ae6178e7565b61ffff90921660209283029190910190910152604981600a815181106109d6576109d66178e7565b61ffff90921660209283029190910190910152604981600b815181106109fe576109fe6178e7565b61ffff90921660209283029190910190910152604981600c81518110610a2657610a266178e7565b61ffff90921660209283029190910190910152604981600d81518110610a4e57610a4e6178e7565b61ffff90921660209283029190910190910152604981600e81518110610a7657610a766178e7565b61ffff90921660209283029190910190910152604981600f81518110610a9e57610a9e6178e7565b61ffff9092166020928302919091019091015261017781603481518110610ac757610ac76178e7565b61ffff90921660209283029190910190910152604a81603681518110610aef57610aef6178e7565b61ffff90921660209283029190910190910152604a81603781518110610b1757610b176178e7565b61ffff90921660209283029190910190910152604a81603881518110610b3f57610b3f6178e7565b61ffff90921660209283029190910190910152604a81603981518110610b6757610b676178e7565b61ffff90921660209283029190910190910152604a81603581518110610b8f57610b8f6178e7565b61ffff90921660209283029190910190910152605b81606f81518110610bb757610bb76178e7565b61ffff90921660209283029190910190910152605b81607081518110610bdf57610bdf6178e7565b61ffff90921660209283029190910190910152605b81607181518110610c0757610c076178e7565b61ffff90921660209283029190910190910152605b81607281518110610c2f57610c2f6178e7565b61ffff90921660209283029190910190910152602c81606481518110610c5757610c576178e7565b61ffff90921660209283029190910190910152602c81606581518110610c7f57610c7f6178e7565b61ffff90921660209283029190910190910152602c81606681518110610ca757610ca76178e7565b61ffff90921660209283029190910190910152602c81606781518110610ccf57610ccf6178e7565b61ffff90921660209283029190910190910152602c81606881518110610cf757610cf76178e7565b61ffff90921660209283029190910190910152602c81606981518110610d1f57610d1f6178e7565b61ffff90921660209283029190910190910152602c81606a81518110610d4757610d476178e7565b61ffff90921660209283029190910190910152602c81606b81518110610d6f57610d6f6178e7565b61ffff90921660209283029190910190910152607481604e81518110610d9757610d976178e7565b61ffff90921660209283029190910190910152607481604f81518110610dbf57610dbf6178e7565b61ffff90921660209283029190910190910152607481605081518110610de757610de76178e7565b61ffff9092166020928302919091019091015261015481607381518110610e1057610e106178e7565b61ffff90921660209283029190910190910152603081604281518110610e3857610e386178e7565b61ffff90921660209283029190910190910152603081604381518110610e6057610e606178e7565b61ffff90921660209283029190910190910152603081604481518110610e8857610e886178e7565b61ffff90921660209283029190910190910152603081604581518110610eb057610eb06178e7565b61ffff90921660209283029190910190910152603081604681518110610ed857610ed86178e7565b61ffff90921660209283029190910190910152603081604781518110610f0057610f006178e7565b61ffff90921660209283029190910190910152603081604881518110610f2857610f286178e7565b61ffff9092166020928302919091019091015260e181600181518110610f5057610f506178e7565b61ffff90921660209283029190910190910152601881602a81518110610f7857610f786178e7565b61ffff90921660209283029190910190910152601881602b81518110610fa057610fa06178e7565b61ffff90921660209283029190910190910152601881602c81518110610fc857610fc86178e7565b61ffff90921660209283029190910190910152601881602d81518110610ff057610ff06178e7565b61ffff90921660209283029190910190910152601881602e81518110611018576110186178e7565b61ffff90921660209283029190910190910152601881602f81518110611040576110406178e7565b61ffff90921660209283029190910190910152601881603081518110611068576110686178e7565b61ffff90921660209283029190910190910152601881603181518110611090576110906178e7565b61ffff909216602092830291909101909101526018816029815181106110b8576110b86178e7565b61ffff9092166020928302919091019091015260c8816021815181106110e0576110e06178e7565b61ffff90921660209283029190910190910152604081601981518110611108576111086178e7565b61ffff90921660209283029190910190910152604081601a81518110611130576111306178e7565b61ffff90921660209283029190910190910152604081601b81518110611158576111586178e7565b61ffff90921660209283029190910190910152603281603f81518110611180576111806178e7565b61ffff909216602092830291909101909101526032816040815181106111a8576111a86178e7565b61ffff909216602092830291909101909101526032816041815181106111d0576111d06178e7565b61ffff90921660209283029190910190910152604b81604a815181106111f8576111f86178e7565b61ffff90921660209283029190910190910152602881604d81518110611220576112206178e7565b61ffff90921660209283029190910190910152601981604c81518110611248576112486178e7565b61ffff90921660209283029190910190910152604181603a81518110611270576112706178e7565b61ffff90921660209283029190910190910152600f81603b81518110611298576112986178e7565b61ffff90921660209283029190910190910152600f81603c815181106112c0576112c06178e7565b61ffff90921660209283029190910190910152600f81603d815181106112e8576112e86178e7565b61ffff90921660209283029190910190910152600f81603e81518110611310576113106178e7565b61ffff90921660209283029190910190910152603781606e81518110611338576113386178e7565b61ffff90921660209283029190910190910152603281604981518110611360576113606178e7565b61ffff90921660209283029190910190910152600981602481518110611388576113886178e7565b61ffff909216602092830291909101909101526009816025815181106113b0576113b06178e7565b61ffff909216602092830291909101909101526009816026815181106113d8576113d86178e7565b61ffff90921660209283029190910190910152600981602781518110611400576114006178e7565b61ffff90921660209283029190910190910152600981602281518110611428576114286178e7565b61ffff90921660209283029190910190910152600581607d81518110611450576114506178e7565b61ffff90921660209283029190910190910152600581607e81518110611478576114786178e7565b61ffff90921660209283029190910190910152600581607f815181106114a0576114a06178e7565b61ffff909216602092830291909101909101526005816080815181106114c8576114c86178e7565b61ffff909216602092830291909101909101526005816081815181106114f0576114f06178e7565b61ffff90921660209283029190910190910152600581608281518110611518576115186178e7565b61ffff90921660209283029190910190910152600581608381518110611540576115406178e7565b61ffff90921660209283029190910190910152600581607c81518110611568576115686178e7565b61ffff90921660209283029190910190910152601981606d81518110611590576115906178e7565b61ffff90921660209283029190910190910152600a81606c815181106115b8576115b86178e7565b61ffff90921660209283029190910190910152601e816033815181106115e0576115e06178e7565b61ffff90921660209283029190910190910152600f81603281518110611608576116086178e7565b61ffff90921660209283029190910190910152600381604b81518110611630576116306178e7565b602002602001019061ffff16908161ffff16815250505f6116518483617494565b9050806083811115611665576116656177a8565b949350505050565b60408051600980825261014082019092525f918291906020820161012080368337019050509050612328815f815181106116a9576116a96178e7565b61ffff9092166020928302919091019091015261015e816005815181106116d2576116d26178e7565b61ffff9092166020928302919091019091015260fa816001815181106116fa576116fa6178e7565b61ffff90921660209283029190910190910152608c81600481518110611722576117226178e7565b61ffff9092166020928302919091019091015260648160088151811061174a5761174a6178e7565b61ffff90921660209283029190910190910152604b81600381518110611772576117726178e7565b61ffff9092166020928302919091019091015260328160078151811061179a5761179a6178e7565b61ffff909216602092830291909101909101526019816002815181106117c2576117c26178e7565b61ffff90921660209283029190910190910152600a816006815181106117ea576117ea6178e7565b602002602001019061ffff16908161ffff16815250505f61180b8483617494565b9050806008811115611665576116656177a8565b60408051601980825261034082019092525f9182919060208201610320803683370190505090506102ee8160078151811061185c5761185c6178e7565b61ffff909216602092830291909101909101526102ee81600881518110611885576118856178e7565b61ffff909216602092830291909101909101526102ee816009815181106118ae576118ae6178e7565b61ffff909216602092830291909101909101526102ee81600a815181106118d7576118d76178e7565b61ffff909216602092830291909101909101526102ee81600b81518110611900576119006178e7565b61ffff909216602092830291909101909101526102ee81600c81518110611929576119296178e7565b61ffff909216602092830291909101909101526102ee81600d81518110611952576119526178e7565b61ffff909216602092830291909101909101526102ee81600e8151811061197b5761197b6178e7565b61ffff909216602092830291909101909101526102ee81600f815181106119a4576119a46178e7565b61ffff909216602092830291909101909101526102ee816010815181106119cd576119cd6178e7565b61ffff909216602092830291909101909101526102ee816011815181106119f6576119f66178e7565b61ffff909216602092830291909101909101526102ee81601281518110611a1f57611a1f6178e7565b61ffff9092166020928302919091019091015261012c81601881518110611a4857611a486178e7565b61ffff9092166020928302919091019091015260e181600281518110611a7057611a706178e7565b61ffff90921660209283029190910190910152609681601981518110611a9857611a986178e7565b61ffff90921660209283029190910190910152605a81601581518110611ac057611ac06178e7565b61ffff90921660209283029190910190910152604181600581518110611ae857611ae86178e7565b61ffff90921660209283029190910190910152602d81600481518110611b1057611b106178e7565b61ffff90921660209283029190910190910152601981600181518110611b3857611b386178e7565b61ffff90921660209283029190910190910152601981601481518110611b6057611b606178e7565b61ffff909216602092830291909101909101526016818181518110611b8757611b876178e7565b61ffff90921660209283029190910190910152601481600681518110611baf57611baf6178e7565b61ffff90921660209283029190910190910152600f81600381518110611bd757611bd76178e7565b61ffff90921660209283029190910190910152600a81601781518110611bff57611bff6178e7565b61ffff90921660209283029190910190910152600881601381518110611c2757611c276178e7565b602002602001019061ffff16908161ffff16815250505f611c488483617494565b9050806019811115611665576116656177a8565b6040805160858082526110c082019092525f91829190602082016110a080368337019050509050611c94611c8f85617b89565b6174ec565b80611cab5750611cab611ca685617b89565b61753a565b15611ce057610190815f81518110611cc557611cc56178e7565b602002602001019061ffff16908161ffff1681525050611d59565b611cf1611cec85617b89565b61755c565b80611d085750611d08611d0385617b89565b617564565b80611d1f5750611d1f611d1a85617b89565b61756c565b15611d2d575f9150506131d2565b610320815f81518110611d4257611d426178e7565b602002602001019061ffff16908161ffff16815250505b60e181600181518110611d6e57611d6e6178e7565b61ffff90921660209283029190910190910152609681600481518110611d9657611d966178e7565b61ffff90921660209283029190910190910152607d81600281518110611dbe57611dbe6178e7565b61ffff90921660209283029190910190910152606481600581518110611de657611de66178e7565b61ffff90921660209283029190910190910152604b81600c81518110611e0e57611e0e6178e7565b61ffff90921660209283029190910190910152602181600381518110611e3657611e366178e7565b61ffff90921660209283029190910182015281600681518110611e5b57611e5b6178e7565b61ffff90921660209283029190910182015281600781518110611e8057611e806178e7565b61ffff90921660209283029190910182015281600881518110611ea557611ea56178e7565b61ffff90921660209283029190910182015281600981518110611eca57611eca6178e7565b61ffff90921660209283029190910182015281600a81518110611eef57611eef6178e7565b61ffff90921660209283029190910182015281600b81518110611f1457611f146178e7565b61ffff9092166020928302919091019091015260e181600d81518110611f3c57611f3c6178e7565b61ffff90921660209283029190910190910152609681601081518110611f6457611f646178e7565b61ffff90921660209283029190910190910152607d81600e81518110611f8c57611f8c6178e7565b61ffff90921660209283029190910190910152606481601181518110611fb457611fb46178e7565b61ffff90921660209283029190910190910152604b81601881518110611fdc57611fdc6178e7565b61ffff90921660209283029190910190910152602181600f81518110612004576120046178e7565b61ffff90921660209283029190910182015281601281518110612029576120296178e7565b61ffff9092166020928302919091018201528160138151811061204e5761204e6178e7565b61ffff90921660209283029190910182015281601481518110612073576120736178e7565b61ffff90921660209283029190910182015281601581518110612098576120986178e7565b61ffff909216602092830291909101820152816016815181106120bd576120bd6178e7565b61ffff909216602092830291909101820152816017815181106120e2576120e26178e7565b61ffff9092166020928302919091019091015260e18160498151811061210a5761210a6178e7565b61ffff90921660209283029190910190910152609681604c81518110612132576121326178e7565b61ffff90921660209283029190910190910152607d81604a8151811061215a5761215a6178e7565b61ffff90921660209283029190910190910152606481604d81518110612182576121826178e7565b61ffff90921660209283029190910190910152604b816054815181106121aa576121aa6178e7565b61ffff90921660209283029190910190910152602181604b815181106121d2576121d26178e7565b61ffff90921660209283029190910182015281604e815181106121f7576121f76178e7565b61ffff90921660209283029190910182015281604f8151811061221c5761221c6178e7565b61ffff90921660209283029190910182015281605081518110612241576122416178e7565b61ffff90921660209283029190910182015281605181518110612266576122666178e7565b61ffff9092166020928302919091018201528160528151811061228b5761228b6178e7565b61ffff909216602092830291909101820152816053815181106122b0576122b06178e7565b61ffff9092166020928302919091019091015260e1816061815181106122d8576122d86178e7565b61ffff90921660209283029190910190910152609681606481518110612300576123006178e7565b61ffff90921660209283029190910190910152607d81606281518110612328576123286178e7565b61ffff90921660209283029190910190910152606481606581518110612350576123506178e7565b61ffff90921660209283029190910190910152604b81606c81518110612378576123786178e7565b61ffff909216602092830291909101909101526021816063815181106123a0576123a06178e7565b61ffff909216602092830291909101820152816066815181106123c5576123c56178e7565b61ffff909216602092830291909101820152816067815181106123ea576123ea6178e7565b61ffff9092166020928302919091018201528160688151811061240f5761240f6178e7565b61ffff90921660209283029190910182015281606981518110612434576124346178e7565b61ffff90921660209283029190910182015281606a81518110612459576124596178e7565b61ffff90921660209283029190910182015281606b8151811061247e5761247e6178e7565b61ffff9092166020928302919091019091015260d0816019815181106124a6576124a66178e7565b61ffff90921660209283029190910190910152609681601c815181106124ce576124ce6178e7565b61ffff90921660209283029190910190910152607881601a815181106124f6576124f66178e7565b61ffff90921660209283029190910190910152606481601d8151811061251e5761251e6178e7565b61ffff90921660209283029190910190910152603c81602481518110612546576125466178e7565b61ffff90921660209283029190910182015281601b8151811061256b5761256b6178e7565b61ffff90921660209283029190910190910152601e818181518110612592576125926178e7565b61ffff90921660209283029190910190910152601e81601f815181106125ba576125ba6178e7565b61ffff909216602092830291909101820152601e908290815181106125e1576125e16178e7565b61ffff90921660209283029190910190910152601e81602181518110612609576126096178e7565b61ffff90921660209283029190910190910152601e81602281518110612631576126316178e7565b61ffff90921660209283029190910190910152601e81602381518110612659576126596178e7565b61ffff9092166020928302919091019091015260d081603181518110612681576126816178e7565b61ffff909216602092830291909101909101526096816034815181106126a9576126a96178e7565b61ffff909216602092830291909101909101526078816032815181106126d1576126d16178e7565b61ffff909216602092830291909101909101526064816035815181106126f9576126f96178e7565b61ffff90921660209283029190910190910152603c818181518110612720576127206178e7565b61ffff90921660209283029190910190910152601f81603381518110612748576127486178e7565b61ffff90921660209283029190910190910152601f81603681518110612770576127706178e7565b61ffff90921660209283029190910190910152601e81603781518110612798576127986178e7565b61ffff90921660209283029190910190910152601e816038815181106127c0576127c06178e7565b61ffff90921660209283029190910190910152601e816039815181106127e8576127e86178e7565b61ffff90921660209283029190910190910152601e81603a81518110612810576128106178e7565b61ffff90921660209283029190910190910152601e81603b81518110612838576128386178e7565b61ffff90921660209283029190910190910152604b81606d81518110612860576128606178e7565b61ffff90921660209283029190910190910152604181607081518110612888576128886178e7565b61ffff90921660209283029190910190910152603281606e815181106128b0576128b06178e7565b61ffff90921660209283029190910190910152602d816071815181106128d8576128d86178e7565b61ffff90921660209283029190910190910152601c81607881518110612900576129006178e7565b61ffff90921660209283029190910190910152600d81606f81518110612928576129286178e7565b61ffff90921660209283029190910190910152600d81607281518110612950576129506178e7565b61ffff90921660209283029190910190910152600d81607381518110612978576129786178e7565b61ffff90921660209283029190910190910152600c816074815181106129a0576129a06178e7565b61ffff90921660209283029190910190910152600c816075815181106129c8576129c86178e7565b61ffff90921660209283029190910190910152600c816076815181106129f0576129f06178e7565b61ffff90921660209283029190910190910152600c81607781518110612a1857612a186178e7565b61ffff90921660209283029190910190910152604b81605581518110612a4057612a406178e7565b61ffff90921660209283029190910190910152604181605881518110612a6857612a686178e7565b61ffff90921660209283029190910190910152603281605681518110612a9057612a906178e7565b61ffff90921660209283029190910190910152602d81605981518110612ab857612ab86178e7565b61ffff90921660209283029190910190910152601c81606081518110612ae057612ae06178e7565b61ffff90921660209283029190910190910152600d81605781518110612b0857612b086178e7565b61ffff90921660209283029190910190910152600d81605a81518110612b3057612b306178e7565b61ffff90921660209283029190910190910152600d81605b81518110612b5857612b586178e7565b61ffff90921660209283029190910190910152600c81605c81518110612b8057612b806178e7565b61ffff90921660209283029190910190910152600c81605d81518110612ba857612ba86178e7565b61ffff90921660209283029190910190910152600c81605e81518110612bd057612bd06178e7565b61ffff90921660209283029190910190910152600c81605f81518110612bf857612bf86178e7565b61ffff90921660209283029190910190910152604b81602581518110612c2057612c206178e7565b61ffff90921660209283029190910190910152604181602881518110612c4857612c486178e7565b61ffff90921660209283029190910190910152603281602681518110612c7057612c706178e7565b61ffff90921660209283029190910190910152602d81602981518110612c9857612c986178e7565b61ffff90921660209283029190910190910152601c81603081518110612cc057612cc06178e7565b61ffff90921660209283029190910190910152600d81602781518110612ce857612ce86178e7565b61ffff90921660209283029190910190910152600d81602a81518110612d1057612d106178e7565b61ffff90921660209283029190910190910152600d81602b81518110612d3857612d386178e7565b61ffff90921660209283029190910190910152600c81602c81518110612d6057612d606178e7565b61ffff90921660209283029190910190910152600c81602d81518110612d8857612d886178e7565b61ffff90921660209283029190910190910152600c81602e81518110612db057612db06178e7565b61ffff90921660209283029190910190910152600c81602f81518110612dd857612dd86178e7565b61ffff90921660209283029190910190910152604b81607981518110612e0057612e006178e7565b61ffff90921660209283029190910190910152604181607c81518110612e2857612e286178e7565b61ffff90921660209283029190910190910152603281607a81518110612e5057612e506178e7565b61ffff90921660209283029190910190910152602d81607d81518110612e7857612e786178e7565b61ffff90921660209283029190910190910152601c81608481518110612ea057612ea06178e7565b61ffff90921660209283029190910190910152600d81607b81518110612ec857612ec86178e7565b61ffff90921660209283029190910190910152600d81607e81518110612ef057612ef06178e7565b61ffff90921660209283029190910190910152600d81607f81518110612f1857612f186178e7565b61ffff90921660209283029190910190910152600c81608081518110612f4057612f406178e7565b61ffff90921660209283029190910190910152600c81608181518110612f6857612f686178e7565b61ffff90921660209283029190910190910152600c81608281518110612f9057612f906178e7565b61ffff90921660209283029190910190910152600c81608381518110612fb857612fb86178e7565b61ffff90921660209283029190910190910152604b81603d81518110612fe057612fe06178e7565b61ffff90921660209283029190910190910152603781604081518110613008576130086178e7565b61ffff90921660209283029190910190910152602d81603e81518110613030576130306178e7565b61ffff90921660209283029190910190910152602381604181518110613058576130586178e7565b61ffff90921660209283029190910190910152600f81604881518110613080576130806178e7565b61ffff90921660209283029190910190910152600b81603f815181106130a8576130a86178e7565b61ffff90921660209283029190910190910152600b816042815181106130d0576130d06178e7565b61ffff90921660209283029190910190910152600b816043815181106130f8576130f86178e7565b61ffff90921660209283029190910190910152600b81604481518110613120576131206178e7565b61ffff90921660209283029190910190910152600b81604581518110613148576131486178e7565b61ffff90921660209283029190910190910152600a81604681518110613170576131706178e7565b61ffff90921660209283029190910190910152600a81604781518110613198576131986178e7565b602002602001019061ffff16908161ffff16815250505f6131b98483617494565b90508060848111156131cd576131cd6177a8565b925050505b92915050565b60408051601f80825261040082019092525f91829190602082016103e08036833701905050905061321061320b85617b89565b617574565b1561326f576113888160158151811061322b5761322b6178e7565b61ffff9092166020928302919091019091015261138881601681518110613254576132546178e7565b602002602001019061ffff16908161ffff16815250506136fb565b5f818181518110613282576132826178e7565b61ffff9092166020928302919091019091015261101d816017815181106132ab576132ab6178e7565b61ffff9092166020928302919091019091015261101d81601a815181106132d4576132d46178e7565b61ffff909216602092830291909101909101526101f481601c815181106132fd576132fd6178e7565b61ffff909216602092830291909101909101526101f481601d81518110613326576133266178e7565b61ffff9092166020928302919091019091015260fa81600c8151811061334e5761334e6178e7565b61ffff90921660209283029190910190910152607d81601b81518110613376576133766178e7565b61ffff9092166020928302919091019091015260648160028151811061339e5761339e6178e7565b61ffff90921660209283029190910190910152604b81601e815181106133c6576133c66178e7565b61ffff909216602092830291909101909101526032816001815181106133ee576133ee6178e7565b61ffff90921660209283029190910190910152601e81600d81518110613416576134166178e7565b61ffff90921660209283029190910190910152601e81600e8151811061343e5761343e6178e7565b61ffff90921660209283029190910190910152601e81600f81518110613466576134666178e7565b61ffff90921660209283029190910190910152601e8160108151811061348e5761348e6178e7565b61ffff90921660209283029190910190910152601e816011815181106134b6576134b66178e7565b61ffff90921660209283029190910190910152601e816012815181106134de576134de6178e7565b61ffff90921660209283029190910190910152601e81601381518110613506576135066178e7565b61ffff90921660209283029190910190910152601e8160148151811061352e5761352e6178e7565b61ffff90921660209283029190910190910152600b81600381518110613556576135566178e7565b61ffff90921660209283029190910190910152600b8160048151811061357e5761357e6178e7565b61ffff90921660209283029190910190910152600b816005815181106135a6576135a66178e7565b61ffff90921660209283029190910190910152600b816006815181106135ce576135ce6178e7565b61ffff90921660209283029190910190910152600b816007815181106135f6576135f66178e7565b61ffff90921660209283029190910190910152600b8160088151811061361e5761361e6178e7565b61ffff90921660209283029190910190910152600b81600981518110613646576136466178e7565b61ffff90921660209283029190910190910152600b81600a8151811061366e5761366e6178e7565b61ffff90921660209283029190910190910152600b818181518110613695576136956178e7565b61ffff909216602092830291909101909101526019816018815181106136bd576136bd6178e7565b61ffff9092166020928302919091019091015260198181815181106136e4576136e46178e7565b602002602001019061ffff16908161ffff16815250505b5f6137068483617494565b905080601e8111156131cd576131cd6177a8565b60408051601380825261028082019092525f91829190602082016102608036833701905050905061374d611c8f85617b89565b8061375f575061375f611ca685617b89565b15613a65576124a1815f81518110613779576137796178e7565b61ffff9092166020928302919091019091015260c881600e815181106137a1576137a16178e7565b61ffff909216602092830291909101909101526023816006815181106137c9576137c96178e7565b61ffff90921660209283029190910190910152601681600c815181106137f1576137f16178e7565b61ffff90921660209283029190910190910152601481601081518110613819576138196178e7565b61ffff90921660209283029190910190910152601281600a81518110613841576138416178e7565b61ffff90921660209283029190910190910152601081600181518110613869576138696178e7565b61ffff90921660209283029190910190910152600e81601181518110613891576138916178e7565b61ffff90921660209283029190910190910152600c816002815181106138b9576138b96178e7565b61ffff90921660209283029190910190910152600a81600b815181106138e1576138e16178e7565b61ffff90921660209283029190910190910152600881601281518110613909576139096178e7565b61ffff90921660209283029190910190910152607d81600581518110613931576139316178e7565b61ffff90921660209283029190910190910152604b81600381518110613959576139596178e7565b61ffff90921660209283029190910190910152601081600481518110613981576139816178e7565b61ffff90921660209283029190910190910152600c81600d815181106139a9576139a96178e7565b61ffff90921660209283029190910190910152600c81600f815181106139d1576139d16178e7565b61ffff90921660209283029190910190910152600a816007815181106139f9576139f96178e7565b61ffff90921660209283029190910190910152600a81600881518110613a2157613a216178e7565b61ffff9092166020928302919091019091015260088160095b81518110613a4a57613a4a6178e7565b602002602001019061ffff16908161ffff1681525050613e15565b613a76613a7185617b89565b61757c565b80613a8d5750613a8d613a8885617b89565b617584565b15613bb4576124a1815f81518110613aa757613aa76178e7565b61ffff9092166020928302919091019091015260c881600e81518110613acf57613acf6178e7565b61ffff90921660209283029190910190910152604b81600381518110613af757613af76178e7565b61ffff90921660209283029190910190910152601081600481518110613b1f57613b1f6178e7565b61ffff90921660209283029190910190910152600c81600d81518110613b4757613b476178e7565b61ffff90921660209283029190910190910152600c81600f81518110613b6f57613b6f6178e7565b61ffff90921660209283029190910190910152600a81600781518110613b9757613b976178e7565b61ffff90921660209283029190910190910152600a816008613a3a565b613bc5613bc085617b89565b61758c565b80613bdc5750613bdc613bd785617b89565b617594565b80613bee5750613bee61320b85617b89565b80613c055750613c05613c0085617b89565b61759c565b80613c1c5750613c1c613c1785617b89565b6175a4565b80613c335750613c33613c2e85617b89565b6175ac565b80613c455750613c45611d1a85617b89565b15613e0c57612562815f81518110613c5f57613c5f6178e7565b61ffff9092166020928302919091019091015260c881600e81518110613c8757613c876178e7565b61ffff90921660209283029190910190910152602381600681518110613caf57613caf6178e7565b61ffff90921660209283029190910190910152601681600c81518110613cd757613cd76178e7565b61ffff90921660209283029190910190910152601481601081518110613cff57613cff6178e7565b61ffff90921660209283029190910190910152601281600a81518110613d2757613d276178e7565b61ffff90921660209283029190910190910152601081600181518110613d4f57613d4f6178e7565b61ffff90921660209283029190910190910152600e81601181518110613d7757613d776178e7565b61ffff90921660209283029190910190910152600c81600281518110613d9f57613d9f6178e7565b61ffff90921660209283029190910190910152600a81600b81518110613dc757613dc76178e7565b61ffff90921660209283029190910190910152600881601281518110613def57613def6178e7565b61ffff90921660209283029190910190910152604b816003613a3a565b5f9150506131d2565b5f613e208483617494565b90508060128111156131cd576131cd6177a8565b6040805160c380825261188082019092525f918291906020820161186080368337019050509050613e67611c8f85617b89565b80613e795750613e79611ca685617b89565b15613eae57610190815f81518110613e9357613e936178e7565b602002602001019061ffff16908161ffff1681525050613f18565b613eba611cec85617b89565b80613ecc5750613ecc611d0385617b89565b80613ede5750613ede611d1a85617b89565b15613eec575f9150506131d2565b6104b0815f81518110613f0157613f016178e7565b602002602001019061ffff16908161ffff16815250505b60e181600181518110613f2d57613f2d6178e7565b61ffff90921660209283029190910190910152609681600481518110613f5557613f556178e7565b61ffff90921660209283029190910190910152607d81600281518110613f7d57613f7d6178e7565b61ffff90921660209283029190910190910152606481600581518110613fa557613fa56178e7565b61ffff90921660209283029190910190910152604c81600c81518110613fcd57613fcd6178e7565b61ffff90921660209283029190910182015281600381518110613ff257613ff26178e7565b61ffff90921660209283029190910182015281600681518110614017576140176178e7565b61ffff9092166020928302919091018201528160078151811061403c5761403c6178e7565b61ffff90921660209283029190910182015281600881518110614061576140616178e7565b61ffff90921660209283029190910182015281600981518110614086576140866178e7565b61ffff90921660209283029190910182015281600a815181106140ab576140ab6178e7565b61ffff90921660209283029190910182015281600b815181106140d0576140d06178e7565b61ffff9092166020928302919091019091015260e181600d815181106140f8576140f86178e7565b61ffff90921660209283029190910190910152609681601081518110614120576141206178e7565b61ffff90921660209283029190910190910152607d81600e81518110614148576141486178e7565b61ffff90921660209283029190910190910152606481601181518110614170576141706178e7565b61ffff90921660209283029190910190910152604c81601881518110614198576141986178e7565b61ffff90921660209283029190910182015281600f815181106141bd576141bd6178e7565b61ffff909216602092830291909101820152816012815181106141e2576141e26178e7565b61ffff90921660209283029190910182015281601381518110614207576142076178e7565b61ffff9092166020928302919091018201528160148151811061422c5761422c6178e7565b61ffff90921660209283029190910182015281601581518110614251576142516178e7565b61ffff90921660209283029190910182015281601681518110614276576142766178e7565b61ffff9092166020928302919091018201528160178151811061429b5761429b6178e7565b61ffff9092166020928302919091019091015260e181601f815181106142c3576142c36178e7565b61ffff909216602092830291909101909101526096816022815181106142eb576142eb6178e7565b61ffff909216602092830291909101820152607d90829081518110614312576143126178e7565b61ffff9092166020928302919091019091015260648160238151811061433a5761433a6178e7565b61ffff90921660209283029190910190910152604b81602a81518110614362576143626178e7565b61ffff90921660209283029190910182015281602181518110614387576143876178e7565b61ffff909216602092830291909101820152816024815181106143ac576143ac6178e7565b61ffff909216602092830291909101820152816025815181106143d1576143d16178e7565b61ffff909216602092830291909101820152816026815181106143f6576143f66178e7565b61ffff9092166020928302919091018201528160278151811061441b5761441b6178e7565b61ffff90921660209283029190910182015281602881518110614440576144406178e7565b61ffff90921660209283029190910182015281602981518110614465576144656178e7565b61ffff9092166020928302919091019091015260e18160538151811061448d5761448d6178e7565b61ffff909216602092830291909101909101526096816056815181106144b5576144b56178e7565b61ffff90921660209283029190910190910152607d816054815181106144dd576144dd6178e7565b61ffff90921660209283029190910190910152606481605781518110614505576145056178e7565b61ffff90921660209283029190910190910152604c81605e8151811061452d5761452d6178e7565b61ffff90921660209283029190910182015281605581518110614552576145526178e7565b61ffff90921660209283029190910182015281605881518110614577576145776178e7565b61ffff9092166020928302919091018201528160598151811061459c5761459c6178e7565b61ffff90921660209283029190910182015281605a815181106145c1576145c16178e7565b61ffff90921660209283029190910182015281605b815181106145e6576145e66178e7565b61ffff90921660209283029190910182015281605c8151811061460b5761460b6178e7565b61ffff90921660209283029190910182015281605d81518110614630576146306178e7565b61ffff9092166020928302919091019091015260e181608781518110614658576146586178e7565b61ffff90921660209283029190910190910152609681608a81518110614680576146806178e7565b61ffff90921660209283029190910190910152607d816088815181106146a8576146a86178e7565b61ffff90921660209283029190910190910152606481608b815181106146d0576146d06178e7565b61ffff90921660209283029190910190910152604c816092815181106146f8576146f86178e7565b61ffff9092166020928302919091018201528160898151811061471d5761471d6178e7565b61ffff90921660209283029190910182015281608c81518110614742576147426178e7565b61ffff90921660209283029190910182015281608d81518110614767576147676178e7565b61ffff90921660209283029190910182015281608e8151811061478c5761478c6178e7565b61ffff90921660209283029190910182015281608f815181106147b1576147b16178e7565b61ffff909216602092830291909101820152816090815181106147d6576147d66178e7565b61ffff909216602092830291909101820152816091815181106147fb576147fb6178e7565b61ffff9092166020928302919091019091015260e181609f81518110614823576148236178e7565b61ffff9092166020928302919091019091015260968160a28151811061484b5761484b6178e7565b61ffff90921660209283029190910190910152607d8160a081518110614873576148736178e7565b61ffff9092166020928302919091019091015260648160a38151811061489b5761489b6178e7565b61ffff90921660209283029190910190910152604c8160aa815181106148c3576148c36178e7565b61ffff9092166020928302919091018201528160a1815181106148e8576148e86178e7565b61ffff9092166020928302919091018201528160a48151811061490d5761490d6178e7565b61ffff9092166020928302919091018201528160a581518110614932576149326178e7565b61ffff9092166020928302919091018201528160a681518110614957576149576178e7565b61ffff9092166020928302919091018201528160a78151811061497c5761497c6178e7565b61ffff9092166020928302919091018201528160a8815181106149a1576149a16178e7565b61ffff9092166020928302919091018201528160a9815181106149c6576149c66178e7565b61ffff9092166020928302919091019091015260d281602b815181106149ee576149ee6178e7565b61ffff90921660209283029190910190910152609681602e81518110614a1657614a166178e7565b61ffff90921660209283029190910190910152607881602c81518110614a3e57614a3e6178e7565b61ffff90921660209283029190910190910152606481602f81518110614a6657614a666178e7565b61ffff90921660209283029190910190910152603c81603681518110614a8e57614a8e6178e7565b61ffff90921660209283029190910190910152601e81602d81518110614ab657614ab66178e7565b61ffff90921660209283029190910190910152601e81603081518110614ade57614ade6178e7565b61ffff90921660209283029190910190910152601e81603181518110614b0657614b066178e7565b61ffff90921660209283029190910190910152601e81603281518110614b2e57614b2e6178e7565b61ffff90921660209283029190910190910152601e81603381518110614b5657614b566178e7565b61ffff90921660209283029190910190910152601e81603481518110614b7e57614b7e6178e7565b61ffff90921660209283029190910190910152601e81603581518110614ba657614ba66178e7565b61ffff9092166020928302919091019091015260d281605f81518110614bce57614bce6178e7565b61ffff90921660209283029190910190910152609681606281518110614bf657614bf66178e7565b61ffff90921660209283029190910190910152607881606081518110614c1e57614c1e6178e7565b61ffff90921660209283029190910190910152606481606381518110614c4657614c466178e7565b61ffff90921660209283029190910190910152603c81606a81518110614c6e57614c6e6178e7565b61ffff90921660209283029190910190910152601e81606181518110614c9657614c966178e7565b61ffff90921660209283029190910190910152601e81606481518110614cbe57614cbe6178e7565b61ffff90921660209283029190910190910152601e81606581518110614ce657614ce66178e7565b61ffff90921660209283029190910190910152601e81606681518110614d0e57614d0e6178e7565b61ffff90921660209283029190910190910152601e81606781518110614d3657614d366178e7565b61ffff90921660209283029190910190910152601e81606881518110614d5e57614d5e6178e7565b61ffff90921660209283029190910190910152601e81606981518110614d8657614d866178e7565b61ffff90921660209283029190910190910152604b8160ab81518110614dae57614dae6178e7565b61ffff9092166020928302919091019091015260418160ae81518110614dd657614dd66178e7565b61ffff9092166020928302919091019091015260328160ac81518110614dfe57614dfe6178e7565b61ffff90921660209283029190910190910152602d8160af81518110614e2657614e266178e7565b61ffff90921660209283029190910190910152601f8160b681518110614e4e57614e4e6178e7565b61ffff90921660209283029190910190910152600c8160ad81518110614e7657614e766178e7565b61ffff90921660209283029190910190910152600c8160b081518110614e9e57614e9e6178e7565b61ffff90921660209283029190910190910152600c8160b181518110614ec657614ec66178e7565b61ffff90921660209283029190910190910152600c8160b281518110614eee57614eee6178e7565b61ffff90921660209283029190910190910152600c8160b381518110614f1657614f166178e7565b61ffff90921660209283029190910190910152600c8160b481518110614f3e57614f3e6178e7565b61ffff90921660209283029190910190910152600c8160b581518110614f6657614f666178e7565b61ffff90921660209283029190910190910152604b81609381518110614f8e57614f8e6178e7565b61ffff90921660209283029190910190910152604181609681518110614fb657614fb66178e7565b61ffff90921660209283029190910190910152603281609481518110614fde57614fde6178e7565b61ffff90921660209283029190910190910152602d81609781518110615006576150066178e7565b61ffff90921660209283029190910190910152601f81609e8151811061502e5761502e6178e7565b61ffff90921660209283029190910190910152600c81609581518110615056576150566178e7565b61ffff90921660209283029190910190910152600c8160988151811061507e5761507e6178e7565b61ffff90921660209283029190910190910152600c816099815181106150a6576150a66178e7565b61ffff90921660209283029190910190910152600c81609a815181106150ce576150ce6178e7565b61ffff90921660209283029190910190910152600c81609b815181106150f6576150f66178e7565b61ffff90921660209283029190910190910152600c81609c8151811061511e5761511e6178e7565b61ffff90921660209283029190910190910152600c81609d81518110615146576151466178e7565b61ffff90921660209283029190910190910152604b8160378151811061516e5761516e6178e7565b61ffff90921660209283029190910190910152604181603a81518110615196576151966178e7565b61ffff909216602092830291909101909101526032816038815181106151be576151be6178e7565b61ffff90921660209283029190910190910152602d81603b815181106151e6576151e66178e7565b61ffff90921660209283029190910190910152601f8160428151811061520e5761520e6178e7565b61ffff90921660209283029190910190910152600c81603981518110615236576152366178e7565b61ffff90921660209283029190910190910152600c81603c8151811061525e5761525e6178e7565b61ffff90921660209283029190910190910152600c81603d81518110615286576152866178e7565b61ffff90921660209283029190910190910152600c81603e815181106152ae576152ae6178e7565b61ffff90921660209283029190910190910152600c81603f815181106152d6576152d66178e7565b61ffff90921660209283029190910190910152600c816040815181106152fe576152fe6178e7565b61ffff90921660209283029190910190910152600c81604181518110615326576153266178e7565b61ffff90921660209283029190910190910152604b8160b78151811061534e5761534e6178e7565b61ffff9092166020928302919091019091015260418160ba81518110615376576153766178e7565b61ffff9092166020928302919091019091015260328160b88151811061539e5761539e6178e7565b61ffff90921660209283029190910190910152602d8160bb815181106153c6576153c66178e7565b61ffff90921660209283029190910190910152601f8160c2815181106153ee576153ee6178e7565b61ffff90921660209283029190910190910152600c8160b981518110615416576154166178e7565b61ffff90921660209283029190910190910152600c8160bc8151811061543e5761543e6178e7565b61ffff90921660209283029190910190910152600c8160bd81518110615466576154666178e7565b61ffff90921660209283029190910190910152600c8160be8151811061548e5761548e6178e7565b61ffff90921660209283029190910190910152600c8160bf815181106154b6576154b66178e7565b61ffff90921660209283029190910190910152600c8160c0815181106154de576154de6178e7565b61ffff90921660209283029190910190910152600c8160c181518110615506576155066178e7565b61ffff90921660209283029190910190910152604b8160438151811061552e5761552e6178e7565b61ffff90921660209283029190910190910152603781604681518110615556576155566178e7565b61ffff90921660209283029190910190910152602d8160448151811061557e5761557e6178e7565b61ffff909216602092830291909101909101526023816047815181106155a6576155a66178e7565b61ffff909216602092830291909101909101526011816052815181106155ce576155ce6178e7565b61ffff909216602092830291909101909101526007816045815181106155f6576155f66178e7565b61ffff9092166020928302919091019091015260078160488151811061561e5761561e6178e7565b61ffff90921660209283029190910190910152600781604d81518110615646576156466178e7565b61ffff90921660209283029190910190910152600781604e8151811061566e5761566e6178e7565b61ffff90921660209283029190910190910152600781604f81518110615696576156966178e7565b61ffff909216602092830291909101909101526007816050815181106156be576156be6178e7565b61ffff909216602092830291909101909101526007816051815181106156e6576156e66178e7565b61ffff9092166020928302919091019091015260068160498151811061570e5761570e6178e7565b61ffff90921660209283029190910190910152600681604a81518110615736576157366178e7565b61ffff90921660209283029190910190910152600681604b8151811061575e5761575e6178e7565b61ffff90921660209283029190910190910152600681604c81518110615786576157866178e7565b61ffff90921660209283029190910190910152604981607b815181106157ae576157ae6178e7565b61ffff90921660209283029190910190910152603781607e815181106157d6576157d66178e7565b61ffff90921660209283029190910190910152602d81607c815181106157fe576157fe6178e7565b61ffff90921660209283029190910190910152602381607f81518110615826576158266178e7565b61ffff90921660209283029190910190910152600f8160868151811061584e5761584e6178e7565b61ffff90921660209283029190910190910152600b81607d81518110615876576158766178e7565b61ffff90921660209283029190910190910152600b8160808151811061589e5761589e6178e7565b61ffff90921660209283029190910190910152600b816081815181106158c6576158c66178e7565b61ffff90921660209283029190910190910152600b816082815181106158ee576158ee6178e7565b61ffff90921660209283029190910190910152600b81608381518110615916576159166178e7565b61ffff90921660209283029190910190910152600b8160848151811061593e5761593e6178e7565b61ffff90921660209283029190910190910152600b81608581518110615966576159666178e7565b61ffff90921660209283029190910190910152603c81606b8151811061598e5761598e6178e7565b61ffff90921660209283029190910190910152602d81606c815181106159b6576159b66178e7565b61ffff90921660209283029190910190910152602381606e815181106159de576159de6178e7565b61ffff90921660209283029190910190910152601481606f81518110615a0657615a066178e7565b61ffff90921660209283029190910190910152600f81607a81518110615a2e57615a2e6178e7565b61ffff90921660209283029190910190910152600981606d81518110615a5657615a566178e7565b61ffff90921660209283029190910190910152600981607081518110615a7e57615a7e6178e7565b61ffff90921660209283029190910190910152600981607581518110615aa657615aa66178e7565b61ffff90921660209283029190910190910152600981607681518110615ace57615ace6178e7565b61ffff90921660209283029190910190910152600981607781518110615af657615af66178e7565b61ffff90921660209283029190910190910152600981607881518110615b1e57615b1e6178e7565b61ffff90921660209283029190910190910152600981607981518110615b4657615b466178e7565b61ffff90921660209283029190910190910152600381607181518110615b6e57615b6e6178e7565b61ffff90921660209283029190910190910152600381607281518110615b9657615b966178e7565b61ffff90921660209283029190910190910152600381607381518110615bbe57615bbe6178e7565b61ffff90921660209283029190910190910152600381607481518110615be657615be66178e7565b61ffff90921660209283029190910190910152602981601981518110615c0e57615c0e6178e7565b61ffff90921660209283029190910190910152602981601a81518110615c3657615c366178e7565b61ffff90921660209283029190910190910152602981601b81518110615c5e57615c5e6178e7565b61ffff90921660209283029190910190910152602981601c81518110615c8657615c866178e7565b61ffff90921660209283029190910190910152602981601d81518110615cae57615cae6178e7565b61ffff90921660209283029190910190910152602981601e81518110615cd657615cd66178e7565b602002602001019061ffff16908161ffff16815250505f615cf78483617494565b90508060c28111156131cd576131cd6177a8565b60408051600480825260a082019092525f91829190602082016080803683370190505090506126ac815f81518110615d4557615d456178e7565b61ffff90921660209283029190910190910152602881600181518110615d6d57615d6d6178e7565b61ffff90921660209283029190910190910152601e81600281518110615d9557615d956178e7565b61ffff90921660209283029190910190910152601e81600381518110615dbd57615dbd6178e7565b602002602001019061ffff16908161ffff16815250505f615dde8483617494565b9050806003811115611665576116656177a8565b604080516079808252610f4082019092525f9182919060208201610f20803683370190505090506103c8815f81518110615e2e57615e2e6178e7565b61ffff9092166020928302919091019091015261027481604d81518110615e5757615e576178e7565b61ffff90921660209283029190910190910152604881606481518110615e7f57615e7f6178e7565b61ffff90921660209283029190910190910152604881606581518110615ea757615ea76178e7565b61ffff90921660209283029190910190910152604881606681518110615ecf57615ecf6178e7565b61ffff90921660209283029190910190910152604881606781518110615ef757615ef76178e7565b61ffff90921660209283029190910190910152604881606881518110615f1f57615f1f6178e7565b61ffff90921660209283029190910190910152604881606981518110615f4757615f476178e7565b61ffff90921660209283029190910190910152604881606a81518110615f6f57615f6f6178e7565b61ffff90921660209283029190910190910152604881606b81518110615f9757615f976178e7565b61ffff90921660209283029190910190910152604881602481518110615fbf57615fbf6178e7565b61ffff90921660209283029190910190910152604881602581518110615fe757615fe76178e7565b61ffff9092166020928302919091019091015260488160268151811061600f5761600f6178e7565b61ffff90921660209283029190910190910152604881602781518110616037576160376178e7565b61ffff9092166020928302919091019091015260488160288151811061605f5761605f6178e7565b61ffff90921660209283029190910190910152604881602981518110616087576160876178e7565b61ffff90921660209283029190910190910152604881602a815181106160af576160af6178e7565b61ffff90921660209283029190910190910152604881602b815181106160d7576160d76178e7565b61ffff9092166020928302919091019091015261023a81603e81518110616100576161006178e7565b61ffff9092166020928302919091019091015261023081604a81518110616129576161296178e7565b61ffff90921660209283029190910190910152603281605881518110616151576161516178e7565b61ffff90921660209283029190910190910152603281605981518110616179576161796178e7565b61ffff90921660209283029190910190910152603281605a815181106161a1576161a16178e7565b61ffff90921660209283029190910190910152603281605b815181106161c9576161c96178e7565b61ffff90921660209283029190910190910152603281605c815181106161f1576161f16178e7565b61ffff90921660209283029190910190910152603281605d81518110616219576162196178e7565b61ffff90921660209283029190910190910152603281605e81518110616241576162416178e7565b61ffff90921660209283029190910190910152603281605f81518110616269576162696178e7565b61ffff90921660209283029190910190910152603281606081518110616291576162916178e7565b61ffff909216602092830291909101909101526032816061815181106162b9576162b96178e7565b61ffff909216602092830291909101909101526032816062815181106162e1576162e16178e7565b61ffff9092166020928302919091019091015261021c81602e8151811061630a5761630a6178e7565b61ffff90921660209283029190910190910152602e81600f81518110616332576163326178e7565b61ffff90921660209283029190910190910152602e8160108151811061635a5761635a6178e7565b61ffff90921660209283029190910190910152602e81601181518110616382576163826178e7565b61ffff90921660209283029190910190910152602e816012815181106163aa576163aa6178e7565b61ffff90921660209283029190910190910152602e816013815181106163d2576163d26178e7565b61ffff90921660209283029190910190910152602e816014815181106163fa576163fa6178e7565b61ffff90921660209283029190910190910152602e81601581518110616422576164226178e7565b61ffff90921660209283029190910190910152602e8160168151811061644a5761644a6178e7565b61ffff90921660209283029190910190910152602e81601781518110616472576164726178e7565b61ffff90921660209283029190910190910152602e8160188151811061649a5761649a6178e7565b61ffff90921660209283029190910190910152602e816019815181106164c2576164c26178e7565b61ffff909216602092830291909101909101526101db816001815181106164eb576164eb6178e7565b61ffff909216602092830291909101909101526101db81602281518110616514576165146178e7565b61ffff909216602092830291909101909101526101a981604e8151811061653d5761653d6178e7565b61ffff9092166020928302919091019091015261019081603781518110616566576165666178e7565b61ffff90921660209283029190910190910152603e8160398151811061658e5761658e6178e7565b61ffff90921660209283029190910190910152603e81603a815181106165b6576165b66178e7565b61ffff90921660209283029190910190910152603e81603b815181106165de576165de6178e7565b61ffff90921660209283029190910190910152603e81603c81518110616606576166066178e7565b61ffff90921660209283029190910190910152603e81603d8151811061662e5761662e6178e7565b61ffff90921660209283029190910190910152603e81603881518110616656576166566178e7565b61ffff9092166020928302919091019091015261015b81606c8151811061667f5761667f6178e7565b61ffff9092166020928302919091019091015261013d81602f815181106166a8576166a86178e7565b61ffff9092166020928302919091019091015261011881602d815181106166d1576166d16178e7565b61ffff9092166020928302919091019091015260e181604b815181106166f9576166f96178e7565b61ffff90921660209283029190910190910152601c81603081518110616721576167216178e7565b61ffff90921660209283029190910190910152601c81603181518110616749576167496178e7565b61ffff90921660209283029190910190910152601c81603281518110616771576167716178e7565b61ffff90921660209283029190910190910152601c81603381518110616799576167996178e7565b61ffff90921660209283029190910190910152601c816034815181106167c1576167c16178e7565b61ffff90921660209283029190910190910152601c816035815181106167e9576167e96178e7565b61ffff90921660209283029190910190910152601c81603681518110616811576168116178e7565b61ffff90921660209283029190910190910152601481601a81518110616839576168396178e7565b61ffff90921660209283029190910190910152601481601b81518110616861576168616178e7565b61ffff90921660209283029190910190910152601481601c81518110616889576168896178e7565b61ffff90921660209283029190910190910152601481601d815181106168b1576168b16178e7565b61ffff90921660209283029190910190910152601481601e815181106168d9576168d96178e7565b61ffff90921660209283029190910190910152601481601f81518110616901576169016178e7565b61ffff909216602092830291909101820152601490829081518110616928576169286178e7565b61ffff90921660209283029190910190910152601481602181518110616950576169506178e7565b61ffff90921660209283029190910190910152602181606e81518110616978576169786178e7565b61ffff90921660209283029190910190910152602181606f815181106169a0576169a06178e7565b61ffff909216602092830291909101909101526021816070815181106169c8576169c86178e7565b61ffff90921660209283029190910190910152602181606d815181106169f0576169f06178e7565b61ffff90921660209283029190910190910152601681600281518110616a1857616a186178e7565b61ffff90921660209283029190910190910152601681600381518110616a4057616a406178e7565b61ffff90921660209283029190910190910152601681600481518110616a6857616a686178e7565b61ffff90921660209283029190910190910152601681600581518110616a9057616a906178e7565b61ffff90921660209283029190910190910152601681600681518110616ab857616ab86178e7565b61ffff90921660209283029190910190910152600a81600781518110616ae057616ae06178e7565b61ffff90921660209283029190910190910152600a81600881518110616b0857616b086178e7565b61ffff90921660209283029190910190910152600a81600981518110616b3057616b306178e7565b61ffff90921660209283029190910190910152600a818181518110616b5757616b576178e7565b61ffff90921660209283029190910190910152600a81600b81518110616b7f57616b7f6178e7565b61ffff90921660209283029190910190910152600a81600c81518110616ba757616ba76178e7565b61ffff90921660209283029190910190910152600a81600d81518110616bcf57616bcf6178e7565b61ffff90921660209283029190910190910152600a81600e81518110616bf757616bf76178e7565b61ffff90921660209283029190910190910152604581604c81518110616c1f57616c1f6178e7565b61ffff90921660209283029190910190910152600581607181518110616c4757616c476178e7565b61ffff90921660209283029190910190910152600581607281518110616c6f57616c6f6178e7565b61ffff90921660209283029190910190910152600581607381518110616c9757616c976178e7565b61ffff90921660209283029190910190910152600581607481518110616cbf57616cbf6178e7565b61ffff90921660209283029190910190910152600581607581518110616ce757616ce76178e7565b61ffff90921660209283029190910190910152600581607681518110616d0f57616d0f6178e7565b61ffff90921660209283029190910190910152600581607781518110616d3757616d376178e7565b61ffff90921660209283029190910190910152600581607881518110616d5f57616d5f6178e7565b61ffff90921660209283029190910190910152600581607981518110616d8757616d876178e7565b61ffff90921660209283029190910190910152600581604281518110616daf57616daf6178e7565b61ffff90921660209283029190910190910152600581604381518110616dd757616dd76178e7565b61ffff90921660209283029190910190910152600581604481518110616dff57616dff6178e7565b61ffff90921660209283029190910190910152600581604581518110616e2757616e276178e7565b61ffff90921660209283029190910190910152600581604681518110616e4f57616e4f6178e7565b61ffff90921660209283029190910190910152600581604781518110616e7757616e776178e7565b61ffff90921660209283029190910190910152600581604881518110616e9f57616e9f6178e7565b61ffff90921660209283029190910190910152600581604981518110616ec757616ec76178e7565b61ffff90921660209283029190910190910152600381605081518110616eef57616eef6178e7565b61ffff90921660209283029190910190910152600381605181518110616f1757616f176178e7565b61ffff90921660209283029190910190910152600381605281518110616f3f57616f3f6178e7565b61ffff90921660209283029190910190910152600381605381518110616f6757616f676178e7565b61ffff90921660209283029190910190910152600381605481518110616f8f57616f8f6178e7565b61ffff90921660209283029190910190910152600381605581518110616fb757616fb76178e7565b61ffff90921660209283029190910190910152600381605681518110616fdf57616fdf6178e7565b61ffff90921660209283029190910190910152600381605781518110617007576170076178e7565b61ffff90921660209283029190910190910152600381604f8151811061702f5761702f6178e7565b61ffff90921660209283029190910190910152601781602c81518110617057576170576178e7565b61ffff90921660209283029190910190910152600481603f8151811061707f5761707f6178e7565b61ffff909216602092830291909101909101526003816040815181106170a7576170a76178e7565b61ffff909216602092830291909101909101526003816041815181106170cf576170cf6178e7565b602002602001019061ffff16908161ffff16815250505f6170f08483617494565b9050806079811115611665576116656177a8565b6040805160158082526102c082019092525f91829190602082016102a08036833701905050905061253f815f81518110617140576171406178e7565b61ffff90921660209283029190910190910152602881600681518110617168576171686178e7565b61ffff90921660209283029190910190910152601981600781518110617190576171906178e7565b61ffff909216602092830291909101909101526019816008815181106171b8576171b86178e7565b61ffff909216602092830291909101909101526019816009815181106171e0576171e06178e7565b61ffff90921660209283029190910190910152601981600a81518110617208576172086178e7565b61ffff90921660209283029190910190910152601981600b81518110617230576172306178e7565b61ffff90921660209283029190910190910152601981600c81518110617258576172586178e7565b61ffff90921660209283029190910190910152601981600d81518110617280576172806178e7565b61ffff90921660209283029190910190910152601981600e815181106172a8576172a86178e7565b61ffff90921660209283029190910190910152601e816001815181106172d0576172d06178e7565b61ffff90921660209283029190910190910152601e816002815181106172f8576172f86178e7565b61ffff90921660209283029190910190910152601e81600381518110617320576173206178e7565b61ffff90921660209283029190910190910152601e81600481518110617348576173486178e7565b61ffff90921660209283029190910190910152600a81601081518110617370576173706178e7565b61ffff90921660209283029190910190910152600a81601181518110617398576173986178e7565b61ffff90921660209283029190910190910152600a816012815181106173c0576173c06178e7565b61ffff90921660209283029190910190910152600a816013815181106173e8576173e86178e7565b61ffff90921660209283029190910190910152600a81601481518110617410576174106178e7565b61ffff90921660209283029190910190910152601e81600581518110617438576174386178e7565b61ffff90921660209283029190910190910152600f81818151811061745f5761745f6178e7565b602002602001019061ffff16908161ffff16815250505f6174808483617494565b9050806014811115611665576116656177a8565b5f80805b83518110156174d4578381815181106174b3576174b36178e7565b602002602001015161ffff16826174ca9190617e2c565b9150600101617498565b505f6174e085836175b4565b90506131cd8482617612565b5f600760ff168261028001516019811115617509576175096177a8565b60ff16101580156131d25750610280820151601290601981111561752f5761752f6177a8565b60ff16111592915050565b5f60185b8261028001516019811115617555576175556177a8565b1492915050565b5f601561753e565b5f601461753e565b5f601761753e565b5f600461753e565b5f600261753e565b5f601961753e565b5f600161753e565b5f600361753e565b5f600561753e565b5f600661753e565b5f601661753e565b6020820180515f916175c582617e3f565b90525082516020808501516040515f936175eb9390929101918252602082015260400190565b60408051601f19818403018152919052805160209091012080855290506116658382617e57565b5f80805b845181101561766357848181518110617631576176316178e7565b602002602001015161ffff16826176489190617e2c565b91508184101561765b5791506131d29050565b600101617616565b5060405162461bcd60e51b815260206004820152601060248201526f14d95b1958dd1a5bdb8819985a5b195960821b604482015260640160405180910390fd5b634e487b7160e01b5f52604160045260245ffd5b6040805190810167ffffffffffffffff811182821017156176da576176da6176a3565b60405290565b6040516080810167ffffffffffffffff811182821017156176da576176da6176a3565b604051610420810167ffffffffffffffff811182821017156176da576176da6176a3565b604051601f8201601f1916810167ffffffffffffffff81118282101715617750576177506176a3565b604052919050565b5f60408284031215617768575f5ffd5b6177706176b7565b823581526020928301359281019290925250919050565b5f60408284031215617797575f5ffd5b6177a18383617758565b9392505050565b634e487b7160e01b5f52602160045260245ffd5b60208101608483106177d0576177d06177a8565b91905290565b600981106177e6576177e66177a8565b50565b602081016177d0836177d6565b60208101601a83106177d0576177d06177a8565b5f5f6060838503121561781b575f5ffd5b823567ffffffffffffffff811115617831575f5ffd5b83016104208186031215617843575f5ffd5b91506178528460208501617758565b90509250929050565b60208101608583106177d0576177d06177a8565b60208101601f83106177d0576177d06177a8565b60208101601383106177d0576177d06177a8565b6020810160c383106177d0576177d06177a8565b60208101600483106177d0576177d06177a8565b60208101607a83106177d0576177d06177a8565b60208101601583106177d0576177d06177a8565b634e487b7160e01b5f52603260045260245ffd5b8035601c8110617909575f5ffd5b919050565b803560ff81168114617909575f5ffd5b5f82601f83011261792d575f5ffd5b813567ffffffffffffffff811115617947576179476176a3565b61795660208260051b01617727565b80828252602082019150602060a08402860101925085831115617977575f5ffd5b602085015b83811015617a275780870360a0811215617994575f5ffd5b61799c6176e0565b6179a5836178fb565b81526179b36020840161790e565b6020820152604083013580151581146179ca575f5ffd5b806040830152506040605f19830112156179e2575f5ffd5b6179ea6176b7565b91506179f8606084016178fb565b8252617a066080840161790e565b6020830152816060820152808552505060208301925060a08101905061797c565b5095945050505050565b803561ffff81168114617909575f5ffd5b803563ffffffff81168114617909575f5ffd5b803560028110617909575f5ffd5b8035600b8110617909575f5ffd5b8035601d8110617909575f5ffd5b803560178110617909575f5ffd5b803560148110617909575f5ffd5b803560098110617909575f5ffd5b803560048110617909575f5ffd5b803560588110617909575f5ffd5b803560168110617909575f5ffd5b803560d48110617909575f5ffd5b8035606a8110617909575f5ffd5b803560a98110617909575f5ffd5b803560808110617909575f5ffd5b8035601a8110617909575f5ffd5b8035601f8110617909575f5ffd5b803560138110617909575f5ffd5b803560158110617909575f5ffd5b803560c38110617909575f5ffd5b803560858110617909575f5ffd5b803560848110617909575f5ffd5b8035607a8110617909575f5ffd5b8035600d8110617909575f5ffd5b5f6104208236031215617b9a575f5ffd5b617ba2617703565b823567ffffffffffffffff811115617bb8575f5ffd5b617bc43682860161791e565b825250617bd36020840161790e565b6020820152617be460408401617a31565b604082015260608381013590820152617bff60808401617a31565b6080820152617c1060a08401617a42565b60a0820152617c2160c08401617a55565b60c0820152617c3260e08401617a63565b60e0820152617c446101008401617a71565b610100820152617c576101208401617a7f565b610120820152617c6a6101408401617a8d565b610140820152617c7d6101608401617a9b565b610160820152617c906101808401617a9b565b610180820152617ca36101a08401617aa9565b6101a0820152617cb66101c08401617ab7565b6101c0820152617cc96101e08401617ac5565b6101e0820152617cdc6102008401617ad3565b610200820152617cef6102208401617ae1565b610220820152617d026102408401617aef565b610240820152617d156102608401617afd565b610260820152617d286102808401617b0b565b610280820152617d3b6102a08401617b19565b6102a0820152617d4e6102c08401617b27565b6102c0820152617d616102e08401617a9b565b6102e0820152617d746103008401617a9b565b610300820152617d876103208401617aa9565b610320820152617d9a6103408401617b35565b610340820152617dad6103608401617b43565b610360820152617dc06103808401617b51565b610380820152617dd36103a08401617b5f565b6103a0820152617de66103c08401617b6d565b6103c0820152617df96103e08401617b7b565b6103e0820152617e0c6104008401617a63565b61040082015292915050565b634e487b7160e01b5f52601160045260245ffd5b808201808211156131d2576131d2617e18565b5f60018201617e5057617e50617e18565b5060010190565b5f82617e7157634e487b7160e01b5f52601260045260245ffd5b50069056fea2646970667358221220860f5a59805b523280635753d4c5ff7b4d9cd52f9b2b4fe8b662990368885cb464736f6c634300081e0033",
			"opcodes": "PUSH1 0x80 PUSH1 0x40 MSTORE CALLVALUE DUP1 ISZERO PUSH1 0xE JUMPI PUSH0 PUSH0 REVERT JUMPDEST POP PUSH2 0x7EAC DUP1 PUSH2 0x1C PUSH0 CODECOPY PUSH0 RETURN INVALID PUSH1 0x80 PUSH1 0x40 MSTORE CALLVALUE DUP1 ISZERO PUSH2 0xF JUMPI PUSH0 PUSH0 REVERT JUMPDEST POP PUSH1 0x4 CALLDATASIZE LT PUSH2 0xA6 JUMPI PUSH0 CALLDATALOAD PUSH1 0xE0 SHR DUP1 PUSH4 0x6245A744 GT PUSH2 0x6E JUMPI DUP1 PUSH4 0x6245A744 EQ PUSH2 0x153 JUMPI DUP1 PUSH4 0x69B913FA EQ PUSH2 0x173 JUMPI DUP1 PUSH4 0x74953AE2 EQ PUSH2 0x193 JUMPI DUP1 PUSH4 0x8E57A737 EQ PUSH2 0xD3 JUMPI DUP1 PUSH4 0xA063F74F EQ PUSH2 0x1B3 JUMPI DUP1 PUSH4 0xE0CF503A EQ PUSH2 0x1D3 JUMPI PUSH0 PUSH0 REVERT JUMPDEST DUP1 PUSH4 0x2743C88F EQ PUSH2 0xAA JUMPI DUP1 PUSH4 0x29814BE5 EQ PUSH2 0xD3 JUMPI DUP1 PUSH4 0x51245032 EQ PUSH2 0xF3 JUMPI DUP1 PUSH4 0x5489F9CF EQ PUSH2 0x113 JUMPI DUP1 PUSH4 0x58A44C98 EQ PUSH2 0x133 JUMPI JUMPDEST PUSH0 PUSH0 REVERT JUMPDEST PUSH2 0xBD PUSH2 0xB8 CALLDATASIZE PUSH1 0x4 PUSH2 0x7787 JUMP JUMPDEST PUSH2 0x1F3 JUMP JUMPDEST PUSH1 0x40 MLOAD PUSH2 0xCA SWAP2 SWAP1 PUSH2 0x77BC JUMP JUMPDEST PUSH1 0x40 MLOAD DUP1 SWAP2 SUB SWAP1 RETURN JUMPDEST PUSH2 0xE6 PUSH2 0xE1 CALLDATASIZE PUSH1 0x4 PUSH2 0x7787 JUMP JUMPDEST PUSH2 0x166D JUMP JUMPDEST PUSH1 0x40 MLOAD PUSH2 0xCA SWAP2 SWAP1 PUSH2 0x77E9 JUMP JUMPDEST PUSH2 0x106 PUSH2 0x101 CALLDATASIZE PUSH1 0x4 PUSH2 0x7787 JUMP JUMPDEST PUSH2 0x181F JUMP JUMPDEST PUSH1 0x40 MLOAD PUSH2 0xCA SWAP2 SWAP1 PUSH2 0x77F6 JUMP JUMPDEST PUSH2 0x126 PUSH2 0x121 CALLDATASIZE PUSH1 0x4 PUSH2 0x780A JUMP JUMPDEST PUSH2 0x1C5C JUMP JUMPDEST PUSH1 0x40 MLOAD PUSH2 0xCA SWAP2 SWAP1 PUSH2 0x785B JUMP JUMPDEST PUSH2 0x146 PUSH2 0x141 CALLDATASIZE PUSH1 0x4 PUSH2 0x780A JUMP JUMPDEST PUSH2 0x31D8 JUMP JUMPDEST PUSH1 0x40 MLOAD PUSH2 0xCA SWAP2 SWAP1 PUSH2 0x786F JUMP JUMPDEST PUSH2 0x166 PUSH2 0x161 CALLDATASIZE PUSH1 0x4 PUSH2 0x780A JUMP JUMPDEST PUSH2 0x371A JUMP JUMPDEST PUSH1 0x40 MLOAD PUSH2 0xCA SWAP2 SWAP1 PUSH2 0x7883 JUMP JUMPDEST PUSH2 0x186 PUSH2 0x181 CALLDATASIZE PUSH1 0x4 PUSH2 0x780A JUMP JUMPDEST PUSH2 0x3E34 JUMP JUMPDEST PUSH1 0x40 MLOAD PUSH2 0xCA SWAP2 SWAP1 PUSH2 0x7897 JUMP JUMPDEST PUSH2 0x1A6 PUSH2 0x1A1 CALLDATASIZE PUSH1 0x4 PUSH2 0x7787 JUMP JUMPDEST PUSH2 0x5D0B JUMP JUMPDEST PUSH1 0x40 MLOAD PUSH2 0xCA SWAP2 SWAP1 PUSH2 0x78AB JUMP JUMPDEST PUSH2 0x1C6 PUSH2 0x1C1 CALLDATASIZE PUSH1 0x4 PUSH2 0x7787 JUMP JUMPDEST PUSH2 0x5DF2 JUMP JUMPDEST PUSH1 0x40 MLOAD PUSH2 0xCA SWAP2 SWAP1 PUSH2 0x78BF JUMP JUMPDEST PUSH2 0x1E6 PUSH2 0x1E1 CALLDATASIZE PUSH1 0x4 PUSH2 0x7787 JUMP JUMPDEST PUSH2 0x7104 JUMP JUMPDEST PUSH1 0x40 MLOAD PUSH2 0xCA SWAP2 SWAP1 PUSH2 0x78D3 JUMP JUMPDEST PUSH1 0x40 DUP1 MLOAD PUSH1 0x83 DUP1 DUP3 MSTORE PUSH2 0x1080 DUP3 ADD SWAP1 SWAP3 MSTORE PUSH0 SWAP2 DUP3 SWAP2 SWAP1 PUSH1 0x20 DUP3 ADD PUSH2 0x1060 DUP1 CALLDATASIZE DUP4 CALLDATACOPY ADD SWAP1 POP POP SWAP1 POP PUSH2 0x367 DUP2 PUSH0 DUP2 MLOAD DUP2 LT PUSH2 0x22F JUMPI PUSH2 0x22F PUSH2 0x78E7 JUMP JUMPDEST PUSH2 0xFFFF SWAP1 SWAP3 AND PUSH1 0x20 SWAP3 DUP4 MUL SWAP2 SWAP1 SWAP2 ADD SWAP1 SWAP2 ADD MSTORE PUSH1 0x55 DUP2 PUSH1 0x5A DUP2 MLOAD DUP2 LT PUSH2 0x257 JUMPI PUSH2 0x257 PUSH2 0x78E7 JUMP JUMPDEST PUSH2 0xFFFF SWAP1 SWAP3 AND PUSH1 0x20 SWAP3 DUP4 MUL SWAP2 SWAP1 SWAP2 ADD SWAP1 SWAP2 ADD MSTORE PUSH1 0x55 DUP2 PUSH1 0x5B DUP2 MLOAD DUP2 LT PUSH2 0x27F JUMPI PUSH2 0x27F PUSH2 0x78E7 JUMP JUMPDEST PUSH2 0xFFFF SWAP1 SWAP3 AND PUSH1 0x20 SWAP3 DUP4 MUL SWAP2 SWAP1 SWAP2 ADD SWAP1 SWAP2 ADD MSTORE PUSH1 0x55 DUP2 PUSH1 0x5C DUP2 MLOAD DUP2 LT PUSH2 0x2A7 JUMPI PUSH2 0x2A7 PUSH2 0x78E7 JUMP JUMPDEST PUSH2 0xFFFF SWAP1 SWAP3 AND PUSH1 0x20 SWAP3 DUP4 MUL SWAP2 SWAP1 SWAP2 ADD SWAP1 SWAP2 ADD MSTORE PUSH1 0x55 DUP2 PUSH1 0x5D DUP2 MLOAD DUP2 LT PUSH2 0x2CF JUMPI PUSH2 0x2CF PUSH2 0x78E7 JUMP JUMPDEST PUSH2 0xFFFF SWAP1 SWAP3 AND PUSH1 0x20 SWAP3 DUP4 MUL SWAP2 SWAP1 SWAP2 ADD SWAP1 SWAP2 ADD MSTORE PUSH1 0x55 DUP2 PUSH1 0x5E DUP2 MLOAD DUP2 LT PUSH2 0x2F7 JUMPI PUSH2 0x2F7 PUSH2 0x78E7 JUMP JUMPDEST PUSH2 0xFFFF SWAP1 SWAP3 AND PUSH1 0x20 SWAP3 DUP4 MUL SWAP2 SWAP1 SWAP2 ADD SWAP1 SWAP2 ADD MSTORE PUSH1 0x55 DUP2 PUSH1 0x5F DUP2 MLOAD DUP2 LT PUSH2 0x31F JUMPI PUSH2 0x31F PUSH2 0x78E7 JUMP JUMPDEST PUSH2 0xFFFF SWAP1 SWAP3 AND PUSH1 0x20 SWAP3 DUP4 MUL SWAP2 SWAP1 SWAP2 ADD SWAP1 SWAP2 ADD MSTORE PUSH1 0x55 DUP2 PUSH1 0x60 DUP2 MLOAD DUP2 LT PUSH2 0x347 JUMPI PUSH2 0x347 PUSH2 0x78E7 JUMP JUMPDEST PUSH2 0xFFFF SWAP1 SWAP3 AND PUSH1 0x20 SWAP3 DUP4 MUL SWAP2 SWAP1 SWAP2 ADD SWAP1 SWAP2 ADD MSTORE PUSH1 0x55 DUP2 PUSH1 0x61 DUP2 MLOAD DUP2 LT PUSH2 0x36F JUMPI PUSH2 0x36F PUSH2 0x78E7 JUMP JUMPDEST PUSH2 0xFFFF SWAP1 SWAP3 AND PUSH1 0x20 SWAP3 DUP4 MUL SWAP2 SWAP1 SWAP2 ADD SWAP1 SWAP2 ADD MSTORE PUSH1 0x55 DUP2 PUSH1 0x62 DUP2 MLOAD DUP2 LT PUSH2 0x397 JUMPI PUSH2 0x397 PUSH2 0x78E7 JUMP JUMPDEST PUSH2 0xFFFF SWAP1 SWAP3 AND PUSH1 0x20 SWAP3 DUP4 MUL SWAP2 SWAP1 SWAP2 ADD SWAP1 SWAP2 ADD MSTORE PUSH1 0x55 DUP2 PUSH1 0x63 DUP2 MLOAD DUP2 LT PUSH2 0x3BF JUMPI PUSH2 0x3BF PUSH2 0x78E7 JUMP JUMPDEST PUSH2 0xFFFF SWAP1 SWAP3 AND PUSH1 0x20 SWAP3 DUP4 MUL SWAP2 SWAP1 SWAP2 ADD SWAP1 SWAP2 ADD MSTORE PUSH1 0x96 DUP2 PUSH1 0x1D DUP2 MLOAD DUP2 LT PUSH2 0x3E7 JUMPI PUSH2 0x3E7 PUSH2 0x78E7 JUMP JUMPDEST PUSH2 0xFFFF SWAP1 SWAP3 AND PUSH1 0x20 SWAP3 DUP4 MUL SWAP2 SWAP1 SWAP2 ADD SWAP1 SWAP2 ADD MSTORE PUSH1 0x96 DUP2 PUSH1 0x1E DUP2 MLOAD DUP2 LT PUSH2 0x40F JUMPI PUSH2 0x40F PUSH2 0x78E7 JUMP JUMPDEST PUSH2 0xFFFF SWAP1 SWAP3 AND PUSH1 0x20 SWAP3 DUP4 MUL SWAP2 SWAP1 SWAP2 ADD SWAP1 SWAP2 ADD MSTORE PUSH1 0x96 DUP2 PUSH1 0x1F DUP2 MLOAD DUP2 LT PUSH2 0x437 JUMPI PUSH2 0x437 PUSH2 0x78E7 JUMP JUMPDEST PUSH2 0xFFFF SWAP1 SWAP3 AND PUSH1 0x20 SWAP3 DUP4 MUL SWAP2 SWAP1 SWAP2 ADD DUP3 ADD MSTORE PUSH1 0x96 SWAP1 DUP3 SWAP1 DUP2 MLOAD DUP2 LT PUSH2 0x45E JUMPI PUSH2 0x45E PUSH2 0x78E7 JUMP JUMPDEST PUSH2 0xFFFF SWAP1 SWAP3 AND PUSH1 0x20 SWAP3 DUP4 MUL SWAP2 SWAP1 SWAP2 ADD SWAP1 SWAP2 ADD MSTORE PUSH1 0x96 DUP2 PUSH1 0x1C DUP2 MLOAD DUP2 LT PUSH2 0x486 JUMPI PUSH2 0x486 PUSH2 0x78E7 JUMP JUMPDEST PUSH2 0xFFFF SWAP1 SWAP3 AND PUSH1 0x20 SWAP3 DUP4 MUL SWAP2 SWAP1 SWAP2 ADD SWAP1 SWAP2 ADD MSTORE PUSH1 0x92 DUP2 PUSH1 0x2 DUP2 MLOAD DUP2 LT PUSH2 0x4AE JUMPI PUSH2 0x4AE PUSH2 0x78E7 JUMP JUMPDEST PUSH2 0xFFFF SWAP1 SWAP3 AND PUSH1 0x20 SWAP3 DUP4 MUL SWAP2 SWAP1 SWAP2 ADD SWAP1 SWAP2 ADD MSTORE PUSH1 0x92 DUP2 PUSH1 0x3 DUP2 MLOAD DUP2 LT PUSH2 0x4D6 JUMPI PUSH2 0x4D6 PUSH2 0x78E7 JUMP JUMPDEST PUSH2 0xFFFF SWAP1 SWAP3 AND PUSH1 0x20 SWAP3 DUP4 MUL SWAP2 SWAP1 SWAP2 ADD SWAP1 SWAP2 ADD MSTORE PUSH1 0x92 DUP2 PUSH1 0x4 DUP2 MLOAD DUP2 LT PUSH2 0x4FE JUMPI PUSH2 0x4FE PUSH2 0x78E7 JUMP JUMPDEST PUSH2 0xFFFF SWAP1 SWAP3 AND PUSH1 0x20 SWAP3 DUP4 MUL SWAP2 SWAP1 SWAP2 ADD SWAP1 SWAP2 ADD MSTORE PUSH1 0x92 DUP2 PUSH1 0x5 DUP2 MLOAD DUP2 LT PUSH2 0x526 JUMPI PUSH2 0x526 PUSH2 0x78E7 JUMP JUMPDEST PUSH2 0xFFFF SWAP1 SWAP3 AND PUSH1 0x20 SWAP3 DUP4 MUL SWAP2 SWAP1 SWAP2 ADD SWAP1 SWAP2 ADD MSTORE PUSH1 0x92 DUP2 PUSH1 0x6 DUP2 MLOAD DUP2 LT PUSH2 0x54E JUMPI PUSH2 0x54E PUSH2 0x78E7 JUMP JUMPDEST PUSH2 0xFFFF SWAP1 SWAP3 AND PUSH1 0x20 SWAP3 DUP4 MUL SWAP2 SWAP1 SWAP2 ADD SWAP1 SWAP2 ADD MSTORE PUSH1 0x5A DUP2 PUSH1 0x51 DUP2 MLOAD DUP2 LT PUSH2 0x576 JUMPI PUSH2 0x576 PUSH2 0x78E7 JUMP JUMPDEST PUSH2 0xFFFF SWAP1 SWAP3 AND PUSH1 0x20 SWAP3 DUP4 MUL SWAP2 SWAP1 SWAP2 ADD SWAP1 SWAP2 ADD MSTORE PUSH1 0x5A DUP2 PUSH1 0x52 DUP2 MLOAD DUP2 LT PUSH2 0x59E JUMPI PUSH2 0x59E PUSH2 0x78E7 JUMP JUMPDEST PUSH2 0xFFFF SWAP1 SWAP3 AND PUSH1 0x20 SWAP3 DUP4 MUL SWAP2 SWAP1 SWAP2 ADD SWAP1 SWAP2 ADD MSTORE PUSH1 0x5A DUP2 PUSH1 0x53 DUP2 MLOAD DUP2 LT PUSH2 0x5C6 JUMPI PUSH2 0x5C6 PUSH2 0x78E7 JUMP JUMPDEST PUSH2 0xFFFF SWAP1 SWAP3 AND PUSH1 0x20 SWAP3 DUP4 MUL SWAP2 SWAP1 SWAP2 ADD SWAP1 SWAP2 ADD MSTORE PUSH1 0x5A DUP2 PUSH1 0x54 DUP2 MLOAD DUP2 LT PUSH2 0x5EE JUMPI PUSH2 0x5EE PUSH2 0x78E7 JUMP JUMPDEST PUSH2 0xFFFF SWAP1 SWAP3 AND PUSH1 0x20 SWAP3 DUP4 MUL SWAP2 SWAP1 SWAP2 ADD SWAP1 SWAP2 ADD MSTORE PUSH1 0x5A DUP2 PUSH1 0x55 DUP2 MLOAD DUP2 LT PUSH2 0x616 JUMPI PUSH2 0x616 PUSH2 0x78E7 JUMP JUMPDEST PUSH2 0xFFFF SWAP1 SWAP3 AND PUSH1 0x20 SWAP3 DUP4 MUL SWAP2 SWAP1 SWAP2 ADD SWAP1 SWAP2 ADD MSTORE PUSH1 0x5A DUP2 PUSH1 0x56 DUP2 MLOAD DUP2 LT PUSH2 0x63E JUMPI PUSH2 0x63E PUSH2 0x78E7 JUMP JUMPDEST PUSH2 0xFFFF SWAP1 SWAP3 AND PUSH1 0x20 SWAP3 DUP4 MUL SWAP2 SWAP1 SWAP2 ADD SWAP1 SWAP2 ADD MSTORE PUSH1 0x5A DUP2 PUSH1 0x57 DUP2 MLOAD DUP2 LT PUSH2 0x666 JUMPI PUSH2 0x666 PUSH2 0x78E7 JUMP JUMPDEST PUSH2 0xFFFF SWAP1 SWAP3 AND PUSH1 0x20 SWAP3 DUP4 MUL SWAP2 SWAP1 SWAP2 ADD SWAP1 SWAP2 ADD MSTORE PUSH1 0x5A DUP2 PUSH1 0x58 DUP2 MLOAD DUP2 LT PUSH2 0x68E JUMPI PUSH2 0x68E PUSH2 0x78E7 JUMP JUMPDEST PUSH2 0xFFFF SWAP1 SWAP3 AND PUSH1 0x20 SWAP3 DUP4 MUL SWAP2 SWAP1 SWAP2 ADD SWAP1 SWAP2 ADD MSTORE PUSH1 0x50 DUP2 PUSH1 0x10 DUP2 MLOAD DUP2 LT PUSH2 0x6B6 JUMPI PUSH2 0x6B6 PUSH2 0x78E7 JUMP JUMPDEST PUSH2 0xFFFF SWAP1 SWAP3 AND PUSH1 0x20 SWAP3 DUP4 MUL SWAP2 SWAP1 SWAP2 ADD SWAP1 SWAP2 ADD MSTORE PUSH1 0x50 DUP2 PUSH1 0x11 DUP2 MLOAD DUP2 LT PUSH2 0x6DE JUMPI PUSH2 0x6DE PUSH2 0x78E7 JUMP JUMPDEST PUSH2 0xFFFF SWAP1 SWAP3 AND PUSH1 0x20 SWAP3 DUP4 MUL SWAP2 SWAP1 SWAP2 ADD SWAP1 SWAP2 ADD MSTORE PUSH1 0x50 DUP2 PUSH1 0x12 DUP2 MLOAD DUP2 LT PUSH2 0x706 JUMPI PUSH2 0x706 PUSH2 0x78E7 JUMP JUMPDEST PUSH2 0xFFFF SWAP1 SWAP3 AND PUSH1 0x20 SWAP3 DUP4 MUL SWAP2 SWAP1 SWAP2 ADD SWAP1 SWAP2 ADD MSTORE PUSH1 0x50 DUP2 PUSH1 0x13 DUP2 MLOAD DUP2 LT PUSH2 0x72E JUMPI PUSH2 0x72E PUSH2 0x78E7 JUMP JUMPDEST PUSH2 0xFFFF SWAP1 SWAP3 AND PUSH1 0x20 SWAP3 DUP4 MUL SWAP2 SWAP1 SWAP2 ADD SWAP1 SWAP2 ADD MSTORE PUSH1 0x50 DUP2 PUSH1 0x14 DUP2 MLOAD DUP2 LT PUSH2 0x756 JUMPI PUSH2 0x756 PUSH2 0x78E7 JUMP JUMPDEST PUSH2 0xFFFF SWAP1 SWAP3 AND PUSH1 0x20 SWAP3 DUP4 MUL SWAP2 SWAP1 SWAP2 ADD SWAP1 SWAP2 ADD MSTORE PUSH1 0x50 DUP2 PUSH1 0x15 DUP2 MLOAD DUP2 LT PUSH2 0x77E JUMPI PUSH2 0x77E PUSH2 0x78E7 JUMP JUMPDEST PUSH2 0xFFFF SWAP1 SWAP3 AND PUSH1 0x20 SWAP3 DUP4 MUL SWAP2 SWAP1 SWAP2 ADD SWAP1 SWAP2 ADD MSTORE PUSH1 0x50 DUP2 PUSH1 0x16 DUP2 MLOAD DUP2 LT PUSH2 0x7A6 JUMPI PUSH2 0x7A6 PUSH2 0x78E7 JUMP JUMPDEST PUSH2 0xFFFF SWAP1 SWAP3 AND PUSH1 0x20 SWAP3 DUP4 MUL SWAP2 SWAP1 SWAP2 ADD SWAP1 SWAP2 ADD MSTORE PUSH1 0x50 DUP2 PUSH1 0x17 DUP2 MLOAD DUP2 LT PUSH2 0x7CE JUMPI PUSH2 0x7CE PUSH2 0x78E7 JUMP JUMPDEST PUSH2 0xFFFF SWAP1 SWAP3 AND PUSH1 0x20 SWAP3 DUP4 MUL SWAP2 SWAP1 SWAP2 ADD SWAP1 SWAP2 ADD MSTORE PUSH1 0x50 DUP2 PUSH1 0x18 DUP2 MLOAD DUP2 LT PUSH2 0x7F6 JUMPI PUSH2 0x7F6 PUSH2 0x78E7 JUMP JUMPDEST PUSH2 0xFFFF SWAP1 SWAP3 AND PUSH1 0x20 SWAP3 DUP4 MUL SWAP2 SWAP1 SWAP2 ADD SWAP1 SWAP2 ADD MSTORE PUSH1 0x57 DUP2 PUSH1 0x74 DUP2 MLOAD DUP2 LT PUSH2 0x81E JUMPI PUSH2 0x81E PUSH2 0x78E7 JUMP JUMPDEST PUSH2 0xFFFF SWAP1 SWAP3 AND PUSH1 0x20 SWAP3 DUP4 MUL SWAP2 SWAP1 SWAP2 ADD SWAP1 SWAP2 ADD MSTORE PUSH1 0x57 DUP2 PUSH1 0x75 DUP2 MLOAD DUP2 LT PUSH2 0x846 JUMPI PUSH2 0x846 PUSH2 0x78E7 JUMP JUMPDEST PUSH2 0xFFFF SWAP1 SWAP3 AND PUSH1 0x20 SWAP3 DUP4 MUL SWAP2 SWAP1 SWAP2 ADD SWAP1 SWAP2 ADD MSTORE PUSH1 0x57 DUP2 PUSH1 0x76 DUP2 MLOAD DUP2 LT PUSH2 0x86E JUMPI PUSH2 0x86E PUSH2 0x78E7 JUMP JUMPDEST PUSH2 0xFFFF SWAP1 SWAP3 AND PUSH1 0x20 SWAP3 DUP4 MUL SWAP2 SWAP1 SWAP2 ADD SWAP1 SWAP2 ADD MSTORE PUSH1 0x57 DUP2 PUSH1 0x77 DUP2 MLOAD DUP2 LT PUSH2 0x896 JUMPI PUSH2 0x896 PUSH2 0x78E7 JUMP JUMPDEST PUSH2 0xFFFF SWAP1 SWAP3 AND PUSH1 0x20 SWAP3 DUP4 MUL SWAP2 SWAP1 SWAP2 ADD SWAP1 SWAP2 ADD MSTORE PUSH1 0x57 DUP2 PUSH1 0x78 DUP2 MLOAD DUP2 LT PUSH2 0x8BE JUMPI PUSH2 0x8BE PUSH2 0x78E7 JUMP JUMPDEST PUSH2 0xFFFF SWAP1 SWAP3 AND PUSH1 0x20 SWAP3 DUP4 MUL SWAP2 SWAP1 SWAP2 ADD SWAP1 SWAP2 ADD MSTORE PUSH1 0x57 DUP2 PUSH1 0x79 DUP2 MLOAD DUP2 LT PUSH2 0x8E6 JUMPI PUSH2 0x8E6 PUSH2 0x78E7 JUMP JUMPDEST PUSH2 0xFFFF SWAP1 SWAP3 AND PUSH1 0x20 SWAP3 DUP4 MUL SWAP2 SWAP1 SWAP2 ADD SWAP1 SWAP2 ADD MSTORE PUSH1 0x57 DUP2 PUSH1 0x7A DUP2 MLOAD DUP2 LT PUSH2 0x90E JUMPI PUSH2 0x90E PUSH2 0x78E7 JUMP JUMPDEST PUSH2 0xFFFF SWAP1 SWAP3 AND PUSH1 0x20 SWAP3 DUP4 MUL SWAP2 SWAP1 SWAP2 ADD SWAP1 SWAP2 ADD MSTORE PUSH1 0x57 DUP2 PUSH1 0x7B DUP2 MLOAD DUP2 LT PUSH2 0x936 JUMPI PUSH2 0x936 PUSH2 0x78E7 JUMP JUMPDEST PUSH2 0xFFFF SWAP1 SWAP3 AND PUSH1 0x20 SWAP3 DUP4 MUL SWAP2 SWAP1 SWAP2 ADD SWAP1 SWAP2 ADD MSTORE PUSH1 0x49 DUP2 PUSH1 0x7 DUP2 MLOAD DUP2 LT PUSH2 0x95E JUMPI PUSH2 0x95E PUSH2 0x78E7 JUMP JUMPDEST PUSH2 0xFFFF SWAP1 SWAP3 AND PUSH1 0x20 SWAP3 DUP4 MUL SWAP2 SWAP1 SWAP2 ADD SWAP1 SWAP2 ADD MSTORE PUSH1 0x49 DUP2 PUSH1 0x8 DUP2 MLOAD DUP2 LT PUSH2 0x986 JUMPI PUSH2 0x986 PUSH2 0x78E7 JUMP JUMPDEST PUSH2 0xFFFF SWAP1 SWAP3 AND PUSH1 0x20 SWAP3 DUP4 MUL SWAP2 SWAP1 SWAP2 ADD SWAP1 SWAP2 ADD MSTORE PUSH1 0x49 DUP2 PUSH1 0x9 DUP2 MLOAD DUP2 LT PUSH2 0x9AE JUMPI PUSH2 0x9AE PUSH2 0x78E7 JUMP JUMPDEST PUSH2 0xFFFF SWAP1 SWAP3 AND PUSH1 0x20 SWAP3 DUP4 MUL SWAP2 SWAP1 SWAP2 ADD SWAP1 SWAP2 ADD MSTORE PUSH1 0x49 DUP2 PUSH1 0xA DUP2 MLOAD DUP2 LT PUSH2 0x9D6 JUMPI PUSH2 0x9D6 PUSH2 0x78E7 JUMP JUMPDEST PUSH2 0xFFFF SWAP1 SWAP3 AND PUSH1 0x20 SWAP3 DUP4 MUL SWAP2 SWAP1 SWAP2 ADD SWAP1 SWAP2 ADD MSTORE PUSH1 0x49 DUP2 PUSH1 0xB DUP2 MLOAD DUP2 LT PUSH2 0x9FE JUMPI PUSH2 0x9FE PUSH2 0x78E7 JUMP JUMPDEST PUSH2 0xFFFF SWAP1 SWAP3 AND PUSH1 0x20 SWAP3 DUP4 MUL SWAP2 SWAP1 SWAP2 ADD SWAP1 SWAP2 ADD MSTORE PUSH1 0x49 DUP2 PUSH1 0xC DUP2 MLOAD DUP2 LT PUSH2 0xA26 JUMPI PUSH2 0xA26 PUSH2 0x78E7 JUMP JUMPDEST PUSH2 0xFFFF SWAP1 SWAP3 AND PUSH1 0x20 SWAP3 DUP4 MUL SWAP2 SWAP1 SWAP2 ADD SWAP1 SWAP2 ADD MSTORE PUSH1 0x49 DUP2 PUSH1 0xD DUP2 MLOAD DUP2 LT PUSH2 0xA4E JUMPI PUSH2 0xA4E PUSH2 0x78E7 JUMP JUMPDEST PUSH2 0xFFFF SWAP1 SWAP3 AND PUSH1 0x20 SWAP3 DUP4 MUL SWAP2 SWAP1 SWAP2 ADD SWAP1 SWAP2 ADD MSTORE PUSH1 0x49 DUP2 PUSH1 0xE DUP2 MLOAD DUP2 LT PUSH2 0xA76 JUMPI PUSH2 0xA76 PUSH2 0x78E7 JUMP JUMPDEST PUSH2 0xFFFF SWAP1 SWAP3 AND PUSH1 0x20 SWAP3 DUP4 MUL SWAP2 SWAP1 SWAP2 ADD SWAP1 SWAP2 ADD MSTORE PUSH1 0x49 DUP2 PUSH1 0xF DUP2 MLOAD DUP2 LT PUSH2 0xA9E JUMPI PUSH2 0xA9E PUSH2 0x78E7 JUMP JUMPDEST PUSH2 0xFFFF SWAP1 SWAP3 AND PUSH1 0x20 SWAP3 DUP4 MUL SWAP2 SWAP1 SWAP2 ADD SWAP1 SWAP2 ADD MSTORE PUSH2 0x177 DUP2 PUSH1 0x34 DUP2 MLOAD DUP2 LT PUSH2 0xAC7 JUMPI PUSH2 0xAC7 PUSH2 0x78E7 JUMP JUMPDEST PUSH2 0xFFFF SWAP1 SWAP3 AND PUSH1 0x20 SWAP3 DUP4 MUL SWAP2 SWAP1 SWAP2 ADD SWAP1 SWAP2 ADD MSTORE PUSH1 0x4A DUP2 PUSH1 0x36 DUP2 MLOAD DUP2 LT PUSH2 0xAEF JUMPI PUSH2 0xAEF PUSH2 0x78E7 JUMP JUMPDEST PUSH2 0xFFFF SWAP1 SWAP3 AND PUSH1 0x20 SWAP3 DUP4 MUL SWAP2 SWAP1 SWAP2 ADD SWAP1 SWAP2 ADD MSTORE PUSH1 0x4A DUP2 PUSH1 0x37 DUP2 MLOAD DUP2 LT PUSH2 0xB17 JUMPI PUSH2 0xB17 PUSH2 0x78E7 JUMP JUMPDEST PUSH2 0xFFFF SWAP1 SWAP3 AND PUSH1 0x20 SWAP3 DUP4 MUL SWAP2 SWAP1 SWAP2 ADD SWAP1 SWAP2 ADD MSTORE PUSH1 0x4A DUP2 PUSH1 0x38 DUP2 MLOAD DUP2 LT PUSH2 0xB3F JUMPI PUSH2 0xB3F PUSH2 0x78E7 JUMP JUMPDEST PUSH2 0xFFFF SWAP1 SWAP3 AND PUSH1 0x20 SWAP3 DUP4 MUL SWAP2 SWAP1 SWAP2 ADD SWAP1 SWAP2 ADD MSTORE PUSH1 0x4A DUP2 PUSH1 0x39 DUP2 MLOAD DUP2 LT PUSH2 0xB67 JUMPI PUSH2 0xB67 PUSH2 0x78E7 JUMP JUMPDEST PUSH2 0xFFFF SWAP1 SWAP3 AND PUSH1 0x20 SWAP3 DUP4 MUL SWAP2 SWAP1 SWAP2 ADD SWAP1 SWAP2 ADD MSTORE PUSH1 0x4A DUP2 PUSH1 0x35 DUP2 MLOAD DUP2 LT PUSH2 0xB8F JUMPI PUSH2 0xB8F PUSH2 0x78E7 JUMP JUMPDEST PUSH2 0xFFFF SWAP1 SWAP3 AND PUSH1 0x20 SWAP3 DUP4 MUL SWAP2 SWAP1 SWAP2 ADD SWAP1 SWAP2 ADD MSTORE PUSH1 0x5B DUP2 PUSH1 0x6F DUP2 MLOAD DUP2 LT PUSH2 0xBB7 JUMPI PUSH2 0xBB7 PUSH2 0x78E7 JUMP JUMPDEST PUSH2 0xFFFF SWAP1 SWAP3 AND PUSH1 0x20 SWAP3 DUP4 MUL SWAP2 SWAP1 SWAP2 ADD SWAP1 SWAP2 ADD MSTORE PUSH1 0x5B DUP2 PUSH1 0x70 DUP2 MLOAD DUP2 LT PUSH2 0xBDF JUMPI PUSH2 0xBDF PUSH2 0x78E7 JUMP JUMPDEST PUSH2 0xFFFF SWAP1 SWAP3 AND PUSH1 0x20 SWAP3 DUP4 MUL SWAP2 SWAP1 SWAP2 ADD SWAP1 SWAP2 ADD MSTORE PUSH1 0x5B DUP2 PUSH1 0x71 DUP2 MLOAD DUP2 LT PUSH2 0xC07 JUMPI PUSH2 0xC07 PUSH2 0x78E7 JUMP JUMPDEST PUSH2 0xFFFF SWAP1 SWAP3 AND PUSH1 0x20 SWAP3 DUP4 MUL SWAP2 SWAP1 SWAP2 ADD SWAP1 SWAP2 ADD MSTORE PUSH1 0x5B DUP2 PUSH1 0x72 DUP2 MLOAD DUP2 LT PUSH2 0xC2F JUMPI PUSH2 0xC2F PUSH2 0x78E7 JUMP JUMPDEST PUSH2 0xFFFF SWAP1 SWAP3 AND PUSH1 0x20 SWAP3 DUP4 MUL SWAP2 SWAP1 SWAP2 ADD SWAP1 SWAP2 ADD MSTORE PUSH1 0x2C DUP2 PUSH1 0x64 DUP2 MLOAD DUP2 LT PUSH2 0xC57 JUMPI PUSH2 0xC57 PUSH2 0x78E7 JUMP JUMPDEST PUSH2 0xFFFF SWAP1 SWAP3 AND PUSH1 0x20 SWAP3 DUP4 MUL SWAP2 SWAP1 SWAP2 ADD SWAP1 SWAP2 ADD MSTORE PUSH1 0x2C DUP2 PUSH1 0x65 DUP2 MLOAD DUP2 LT PUSH2 0xC7F JUMPI PUSH2 0xC7F PUSH2 0x78E7 JUMP JUMPDEST PUSH2 0xFFFF SWAP1 SWAP3 AND PUSH1 0x20 SWAP3 DUP4 MUL SWAP2 SWAP1 SWAP2 ADD SWAP1 SWAP2 ADD MSTORE PUSH1 0x2C DUP2 PUSH1 0x66 DUP2 MLOAD DUP2 LT PUSH2 0xCA7 JUMPI PUSH2 0xCA7 PUSH2 0x78E7 JUMP JUMPDEST PUSH2 0xFFFF SWAP1 SWAP3 AND PUSH1 0x20 SWAP3 DUP4 MUL SWAP2 SWAP1 SWAP2 ADD SWAP1 SWAP2 ADD MSTORE PUSH1 0x2C DUP2 PUSH1 0x67 DUP2 MLOAD DUP2 LT PUSH2 0xCCF JUMPI PUSH2 0xCCF PUSH2 0x78E7 JUMP JUMPDEST PUSH2 0xFFFF SWAP1 SWAP3 AND PUSH1 0x20 SWAP3 DUP4 MUL SWAP2 SWAP1 SWAP2 ADD SWAP1 SWAP2 ADD MSTORE PUSH1 0x2C DUP2 PUSH1 0x68 DUP2 MLOAD DUP2 LT PUSH2 0xCF7 JUMPI PUSH2 0xCF7 PUSH2 0x78E7 JUMP JUMPDEST PUSH2 0xFFFF SWAP1 SWAP3 AND PUSH1 0x20 SWAP3 DUP4 MUL SWAP2 SWAP1 SWAP2 ADD SWAP1 SWAP2 ADD MSTORE PUSH1 0x2C DUP2 PUSH1 0x69 DUP2 MLOAD DUP2 LT PUSH2 0xD1F JUMPI PUSH2 0xD1F PUSH2 0x78E7 JUMP JUMPDEST PUSH2 0xFFFF SWAP1 SWAP3 AND PUSH1 0x20 SWAP3 DUP4 MUL SWAP2 SWAP1 SWAP2 ADD SWAP1 SWAP2 ADD MSTORE PUSH1 0x2C DUP2 PUSH1 0x6A DUP2 MLOAD DUP2 LT PUSH2 0xD47 JUMPI PUSH2 0xD47 PUSH2 0x78E7 JUMP JUMPDEST PUSH2 0xFFFF SWAP1 SWAP3 AND PUSH1 0x20 SWAP3 DUP4 MUL SWAP2 SWAP1 SWAP2 ADD SWAP1 SWAP2 ADD MSTORE PUSH1 0x2C DUP2 PUSH1 0x6B DUP2 MLOAD DUP2 LT PUSH2 0xD6F JUMPI PUSH2 0xD6F PUSH2 0x78E7 JUMP JUMPDEST PUSH2 0xFFFF SWAP1 SWAP3 AND PUSH1 0x20 SWAP3 DUP4 MUL SWAP2 SWAP1 SWAP2 ADD SWAP1 SWAP2 ADD MSTORE PUSH1 0x74 DUP2 PUSH1 0x4E DUP2 MLOAD DUP2 LT PUSH2 0xD97 JUMPI PUSH2 0xD97 PUSH2 0x78E7 JUMP JUMPDEST PUSH2 0xFFFF SWAP1 SWAP3 AND PUSH1 0x20 SWAP3 DUP4 MUL SWAP2 SWAP1 SWAP2 ADD SWAP1 SWAP2 ADD MSTORE PUSH1 0x74 DUP2 PUSH1 0x4F DUP2 MLOAD DUP2 LT PUSH2 0xDBF JUMPI PUSH2 0xDBF PUSH2 0x78E7 JUMP JUMPDEST PUSH2 0xFFFF SWAP1 SWAP3 AND PUSH1 0x20 SWAP3 DUP4 MUL SWAP2 SWAP1 SWAP2 ADD SWAP1 SWAP2 ADD MSTORE PUSH1 0x74 DUP2 PUSH1 0x50 DUP2 MLOAD DUP2 LT PUSH2 0xDE7 JUMPI PUSH2 0xDE7 PUSH2 0x78E7 JUMP JUMPDEST PUSH2 0xFFFF SWAP1 SWAP3 AND PUSH1 0x20 SWAP3 DUP4 MUL SWAP2 SWAP1 SWAP2 ADD SWAP1 SWAP2 ADD MSTORE PUSH2 0x154 DUP2 PUSH1 0x73 DUP2 MLOAD DUP2 LT PUSH2 0xE10 JUMPI PUSH2 0xE10 PUSH2 0x78E7 JUMP JUMPDEST PUSH2 0xFFFF SWAP1 SWAP3 AND PUSH1 0x20 SWAP3 DUP4 MUL SWAP2 SWAP1 SWAP2 ADD SWAP1 SWAP2 ADD MSTORE PUSH1 0x30 DUP2 PUSH1 0x42 DUP2 MLOAD DUP2 LT PUSH2 0xE38 JUMPI PUSH2 0xE38 PUSH2 0x78E7 JUMP JUMPDEST PUSH2 0xFFFF SWAP1 SWAP3 AND PUSH1 0x20 SWAP3 DUP4 MUL SWAP2 SWAP1 SWAP2 ADD SWAP1 SWAP2 ADD MSTORE PUSH1 0x30 DUP2 PUSH1 0x43 DUP2 MLOAD DUP2 LT PUSH2 0xE60 JUMPI PUSH2 0xE60 PUSH2 0x78E7 JUMP JUMPDEST PUSH2 0xFFFF SWAP1 SWAP3 AND PUSH1 0x20 SWAP3 DUP4 MUL SWAP2 SWAP1 SWAP2 ADD SWAP1 SWAP2 ADD MSTORE PUSH1 0x30 DUP2 PUSH1 0x44 DUP2 MLOAD DUP2 LT PUSH2 0xE88 JUMPI PUSH2 0xE88 PUSH2 0x78E7 JUMP JUMPDEST PUSH2 0xFFFF SWAP1 SWAP3 AND PUSH1 0x20 SWAP3 DUP4 MUL SWAP2 SWAP1 SWAP2 ADD SWAP1 SWAP2 ADD MSTORE PUSH1 0x30 DUP2 PUSH1 0x45 DUP2 MLOAD DUP2 LT PUSH2 0xEB0 JUMPI PUSH2 0xEB0 PUSH2 0x78E7 JUMP JUMPDEST PUSH2 0xFFFF SWAP1 SWAP3 AND PUSH1 0x20 SWAP3 DUP4 MUL SWAP2 SWAP1 SWAP2 ADD SWAP1 SWAP2 ADD MSTORE PUSH1 0x30 DUP2 PUSH1 0x46 DUP2 MLOAD DUP2 LT PUSH2 0xED8 JUMPI PUSH2 0xED8 PUSH2 0x78E7 JUMP JUMPDEST PUSH2 0xFFFF SWAP1 SWAP3 AND PUSH1 0x20 SWAP3 DUP4 MUL SWAP2 SWAP1 SWAP2 ADD SWAP1 SWAP2 ADD MSTORE PUSH1 0x30 DUP2 PUSH1 0x47 DUP2 MLOAD DUP2 LT PUSH2 0xF00 JUMPI PUSH2 0xF00 PUSH2 0x78E7 JUMP JUMPDEST PUSH2 0xFFFF SWAP1 SWAP3 AND PUSH1 0x20 SWAP3 DUP4 MUL SWAP2 SWAP1 SWAP2 ADD SWAP1 SWAP2 ADD MSTORE PUSH1 0x30 DUP2 PUSH1 0x48 DUP2 MLOAD DUP2 LT PUSH2 0xF28 JUMPI PUSH2 0xF28 PUSH2 0x78E7 JUMP JUMPDEST PUSH2 0xFFFF SWAP1 SWAP3 AND PUSH1 0x20 SWAP3 DUP4 MUL SWAP2 SWAP1 SWAP2 ADD SWAP1 SWAP2 ADD MSTORE PUSH1 0xE1 DUP2 PUSH1 0x1 DUP2 MLOAD DUP2 LT PUSH2 0xF50 JUMPI PUSH2 0xF50 PUSH2 0x78E7 JUMP JUMPDEST PUSH2 0xFFFF SWAP1 SWAP3 AND PUSH1 0x20 SWAP3 DUP4 MUL SWAP2 SWAP1 SWAP2 ADD SWAP1 SWAP2 ADD MSTORE PUSH1 0x18 DUP2 PUSH1 0x2A DUP2 MLOAD DUP2 LT PUSH2 0xF78 JUMPI PUSH2 0xF78 PUSH2 0x78E7 JUMP JUMPDEST PUSH2 0xFFFF SWAP1 SWAP3 AND PUSH1 0x20 SWAP3 DUP4 MUL SWAP2 SWAP1 SWAP2 ADD SWAP1 SWAP2 ADD MSTORE PUSH1 0x18 DUP2 PUSH1 0x2B DUP2 MLOAD DUP2 LT PUSH2 0xFA0 JUMPI PUSH2 0xFA0 PUSH2 0x78E7 JUMP JUMPDEST PUSH2 0xFFFF SWAP1 SWAP3 AND PUSH1 0x20 SWAP3 DUP4 MUL SWAP2 SWAP1 SWAP2 ADD SWAP1 SWAP2 ADD MSTORE PUSH1 0x18 DUP2 PUSH1 0x2C DUP2 MLOAD DUP2 LT PUSH2 0xFC8 JUMPI PUSH2 0xFC8 PUSH2 0x78E7 JUMP JUMPDEST PUSH2 0xFFFF SWAP1 SWAP3 AND PUSH1 0x20 SWAP3 DUP4 MUL SWAP2 SWAP1 SWAP2 ADD SWAP1 SWAP2 ADD MSTORE PUSH1 0x18 DUP2 PUSH1 0x2D DUP2 MLOAD DUP2 LT PUSH2 0xFF0 JUMPI PUSH2 0xFF0 PUSH2 0x78E7 JUMP JUMPDEST PUSH2 0xFFFF SWAP1 SWAP3 AND PUSH1 0x20 SWAP3 DUP4 MUL SWAP2 SWAP1 SWAP2 ADD SWAP1 SWAP2 ADD MSTORE PUSH1 0x18 DUP2 PUSH1 0x2E DUP2 MLOAD DUP2 LT PUSH2 0x1018 JUMPI PUSH2 0x1018 PUSH2 0x78E7 JUMP JUMPDEST PUSH2 0xFFFF SWAP1 SWAP3 AND PUSH1 0x20 SWAP3 DUP4 MUL SWAP2 SWAP1 SWAP2 ADD SWAP1 SWAP2 ADD MSTORE PUSH1 0x18 DUP2 PUSH1 0x2F DUP2 MLOAD DUP2 LT PUSH2 0x1040 JUMPI PUSH2 0x1040 PUSH2 0x78E7 JUMP JUMPDEST PUSH2 0xFFFF SWAP1 SWAP3 AND PUSH1 0x20 SWAP3 DUP4 MUL SWAP2 SWAP1 SWAP2 ADD SWAP1 SWAP2 ADD MSTORE PUSH1 0x18 DUP2 PUSH1 0x30 DUP2 MLOAD DUP2 LT PUSH2 0x1068 JUMPI PUSH2 0x1068 PUSH2 0x78E7 JUMP JUMPDEST PUSH2 0xFFFF SWAP1 SWAP3 AND PUSH1 0x20 SWAP3 DUP4 MUL SWAP2 SWAP1 SWAP2 ADD SWAP1 SWAP2 ADD MSTORE PUSH1 0x18 DUP2 PUSH1 0x31 DUP2 MLOAD DUP2 LT PUSH2 0x1090 JUMPI PUSH2 0x1090 PUSH2 0x78E7 JUMP JUMPDEST PUSH2 0xFFFF SWAP1 SWAP3 AND PUSH1 0x20 SWAP3 DUP4 MUL SWAP2 SWAP1 SWAP2 ADD SWAP1 SWAP2 ADD MSTORE PUSH1 0x18 DUP2 PUSH1 0x29 DUP2 MLOAD DUP2 LT PUSH2 0x10B8 JUMPI PUSH2 0x10B8 PUSH2 0x78E7 JUMP JUMPDEST PUSH2 0xFFFF SWAP1 SWAP3 AND PUSH1 0x20 SWAP3 DUP4 MUL SWAP2 SWAP1 SWAP2 ADD SWAP1 SWAP2 ADD MSTORE PUSH1 0xC8 DUP2 PUSH1 0x21 DUP2 MLOAD DUP2 LT PUSH2 0x10E0 JUMPI PUSH2 0x10E0 PUSH2 0x78E7 JUMP JUMPDEST PUSH2 0xFFFF SWAP1 SWAP3 AND PUSH1 0x20 SWAP3 DUP4 MUL SWAP2 SWAP1 SWAP2 ADD SWAP1 SWAP2 ADD MSTORE PUSH1 0x40 DUP2 PUSH1 0x19 DUP2 MLOAD DUP2 LT PUSH2 0x1108 JUMPI PUSH2 0x1108 PUSH2 0x78E7 JUMP JUMPDEST PUSH2 0xFFFF SWAP1 SWAP3 AND PUSH1 0x20 SWAP3 DUP4 MUL SWAP2 SWAP1 SWAP2 ADD SWAP1 SWAP2 ADD MSTORE PUSH1 0x40 DUP2 PUSH1 0x1A DUP2 MLOAD DUP2 LT PUSH2 0x1130 JUMPI PUSH2 0x1130 PUSH2 0x78E7 JUMP JUMPDEST PUSH2 0xFFFF SWAP1 SWAP3 AND PUSH1 0x20 SWAP3 DUP4 MUL SWAP2 SWAP1 SWAP2 ADD SWAP1 SWAP2 ADD MSTORE PUSH1 0x40 DUP2 PUSH1 0x1B DUP2 MLOAD DUP2 LT PUSH2 0x1158 JUMPI PUSH2 0x1158 PUSH2 0x78E7 JUMP JUMPDEST PUSH2 0xFFFF SWAP1 SWAP3 AND PUSH1 0x20 SWAP3 DUP4 MUL SWAP2 SWAP1 SWAP2 ADD SWAP1 SWAP2 ADD MSTORE PUSH1 0x32 DUP2 PUSH1 0x3F DUP2 MLOAD DUP2 LT PUSH2 0x1180 JUMPI PUSH2 0x1180 PUSH2 0x78E7 JUMP JUMPDEST PUSH2 0xFFFF SWAP1 SWAP3 AND PUSH1 0x20 SWAP3 DUP4 MUL SWAP2 SWAP1 SWAP2 ADD SWAP1 SWAP2 ADD MSTORE PUSH1 0x32 DUP2 PUSH1 0x40 DUP2 MLOAD DUP2 LT PUSH2 0x11A8 JUMPI PUSH2 0x11A8 PUSH2 0x78E7 JUMP JUMPDEST PUSH2 0xFFFF SWAP1 SWAP3 AND PUSH1 0x20 SWAP3 DUP4 MUL SWAP2 SWAP1 SWAP2 ADD SWAP1 SWAP2 ADD MSTORE PUSH1 0x32 DUP2 PUSH1 0x41 DUP2 MLOAD DUP2 LT PUSH2 0x11D0 JUMPI PUSH2 0x11D0 PUSH2 0x78E7 JUMP JUMPDEST PUSH2 0xFFFF SWAP1 SWAP3 AND PUSH1 0x20 SWAP3 DUP4 MUL SWAP2 SWAP1 SWAP2 ADD SWAP1 SWAP2 ADD MSTORE PUSH1 0x4B DUP2 PUSH1 0x4A DUP2 MLOAD DUP2 LT PUSH2 0x11F8 JUMPI PUSH2 0x11F8 PUSH2 0x78E7 JUMP JUMPDEST PUSH2 0xFFFF SWAP1 SWAP3 AND PUSH1 0x20 SWAP3 DUP4 MUL SWAP2 SWAP1 SWAP2 ADD SWAP1 SWAP2 ADD MSTORE PUSH1 0x28 DUP2 PUSH1 0x4D DUP2 MLOAD DUP2 LT PUSH2 0x1220 JUMPI PUSH2 0x1220 PUSH2 0x78E7 JUMP JUMPDEST PUSH2 0xFFFF SWAP1 SWAP3 AND PUSH1 0x20 SWAP3 DUP4 MUL SWAP2 SWAP1 SWAP2 ADD SWAP1 SWAP2 ADD MSTORE PUSH1 0x19 DUP2 PUSH1 0x4C DUP2 MLOAD DUP2 LT PUSH2 0x1248 JUMPI PUSH2 0x1248 PUSH2 0x78E7 JUMP JUMPDEST PUSH2 0xFFFF SWAP1 SWAP3 AND PUSH1 0x20 SWAP3 DUP4 MUL SWAP2 SWAP1 SWAP2 ADD SWAP1 SWAP2 ADD MSTORE PUSH1 0x41 DUP2 PUSH1 0x3A DUP2 MLOAD DUP2 LT PUSH2 0x1270 JUMPI PUSH2 0x1270 PUSH2 0x78E7 JUMP JUMPDEST PUSH2 0xFFFF SWAP1 SWAP3 AND PUSH1 0x20 SWAP3 DUP4 MUL SWAP2 SWAP1 SWAP2 ADD SWAP1 SWAP2 ADD MSTORE PUSH1 0xF DUP2 PUSH1 0x3B DUP2 MLOAD DUP2 LT PUSH2 0x1298 JUMPI PUSH2 0x1298 PUSH2 0x78E7 JUMP JUMPDEST PUSH2 0xFFFF SWAP1 SWAP3 AND PUSH1 0x20 SWAP3 DUP4 MUL SWAP2 SWAP1 SWAP2 ADD SWAP1 SWAP2 ADD MSTORE PUSH1 0xF DUP2 PUSH1 0x3C DUP2 MLOAD DUP2 LT PUSH2 0x12C0 JUMPI PUSH2 0x12C0 PUSH2 0x78E7 JUMP JUMPDEST PUSH2 0xFFFF SWAP1 SWAP3 AND PUSH1 0x20 SWAP3 DUP4 MUL SWAP2 SWAP1 SWAP2 ADD SWAP1 SWAP2 ADD MSTORE PUSH1 0xF DUP2 PUSH1 0x3D DUP2 MLOAD DUP2 LT PUSH2 0x12E8 JUMPI PUSH2 0x12E8 PUSH2 0x78E7 JUMP JUMPDEST PUSH2 0xFFFF SWAP1 SWAP3 AND PUSH1 0x20 SWAP3 DUP4 MUL SWAP2 SWAP1 SWAP2 ADD SWAP1 SWAP2 ADD MSTORE PUSH1 0xF DUP2 PUSH1 0x3E DUP2 MLOAD DUP2 LT PUSH2 0x1310 JUMPI PUSH2 0x1310 PUSH2 0x78E7 JUMP JUMPDEST PUSH2 0xFFFF SWAP1 SWAP3 AND PUSH1 0x20 SWAP3 DUP4 MUL SWAP2 SWAP1 SWAP2 ADD SWAP1 SWAP2 ADD MSTORE PUSH1 0x37 DUP2 PUSH1 0x6E DUP2 MLOAD DUP2 LT PUSH2 0x1338 JUMPI PUSH2 0x1338 PUSH2 0x78E7 JUMP JUMPDEST PUSH2 0xFFFF SWAP1 SWAP3 AND PUSH1 0x20 SWAP3 DUP4 MUL SWAP2 SWAP1 SWAP2 ADD SWAP1 SWAP2 ADD MSTORE PUSH1 0x32 DUP2 PUSH1 0x49 DUP2 MLOAD DUP2 LT PUSH2 0x1360 JUMPI PUSH2 0x1360 PUSH2 0x78E7 JUMP JUMPDEST PUSH2 0xFFFF SWAP1 SWAP3 AND PUSH1 0x20 SWAP3 DUP4 MUL SWAP2 SWAP1 SWAP2 ADD SWAP1 SWAP2 ADD MSTORE PUSH1 0x9 DUP2 PUSH1 0x24 DUP2 MLOAD DUP2 LT PUSH2 0x1388 JUMPI PUSH2 0x1388 PUSH2 0x78E7 JUMP JUMPDEST PUSH2 0xFFFF SWAP1 SWAP3 AND PUSH1 0x20 SWAP3 DUP4 MUL SWAP2 SWAP1 SWAP2 ADD SWAP1 SWAP2 ADD MSTORE PUSH1 0x9 DUP2 PUSH1 0x25 DUP2 MLOAD DUP2 LT PUSH2 0x13B0 JUMPI PUSH2 0x13B0 PUSH2 0x78E7 JUMP JUMPDEST PUSH2 0xFFFF SWAP1 SWAP3 AND PUSH1 0x20 SWAP3 DUP4 MUL SWAP2 SWAP1 SWAP2 ADD SWAP1 SWAP2 ADD MSTORE PUSH1 0x9 DUP2 PUSH1 0x26 DUP2 MLOAD DUP2 LT PUSH2 0x13D8 JUMPI PUSH2 0x13D8 PUSH2 0x78E7 JUMP JUMPDEST PUSH2 0xFFFF SWAP1 SWAP3 AND PUSH1 0x20 SWAP3 DUP4 MUL SWAP2 SWAP1 SWAP2 ADD SWAP1 SWAP2 ADD MSTORE PUSH1 0x9 DUP2 PUSH1 0x27 DUP2 MLOAD DUP2 LT PUSH2 0x1400 JUMPI PUSH2 0x1400 PUSH2 0x78E7 JUMP JUMPDEST PUSH2 0xFFFF SWAP1 SWAP3 AND PUSH1 0x20 SWAP3 DUP4 MUL SWAP2 SWAP1 SWAP2 ADD SWAP1 SWAP2 ADD MSTORE PUSH1 0x9 DUP2 PUSH1 0x22 DUP2 MLOAD DUP2 LT PUSH2 0x1428 JUMPI PUSH2 0x1428 PUSH2 0x78E7 JUMP JUMPDEST PUSH2 0xFFFF SWAP1 SWAP3 AND PUSH1 0x20 SWAP3 DUP4 MUL SWAP2 SWAP1 SWAP2 ADD SWAP1 SWAP2 ADD MSTORE PUSH1 0x5 DUP2 PUSH1 0x7D DUP2 MLOAD DUP2 LT PUSH2 0x1450 JUMPI PUSH2 0x1450 PUSH2 0x78E7 JUMP JUMPDEST PUSH2 0xFFFF SWAP1 SWAP3 AND PUSH1 0x20 SWAP3 DUP4 MUL SWAP2 SWAP1 SWAP2 ADD SWAP1 SWAP2 ADD MSTORE PUSH1 0x5 DUP2 PUSH1 0x7E DUP2 MLOAD DUP2 LT PUSH2 0x1478 JUMPI PUSH2 0x1478 PUSH2 0x78E7 JUMP JUMPDEST PUSH2 0xFFFF SWAP1 SWAP3 AND PUSH1 0x20 SWAP3 DUP4 MUL SWAP2 SWAP1 SWAP2 ADD SWAP1 SWAP2 ADD MSTORE PUSH1 0x5 DUP2 PUSH1 0x7F DUP2 MLOAD DUP2 LT PUSH2 0x14A0 JUMPI PUSH2 0x14A0 PUSH2 0x78E7 JUMP JUMPDEST PUSH2 0xFFFF SWAP1 SWAP3 AND PUSH1 0x20 SWAP3 DUP4 MUL SWAP2 SWAP1 SWAP2 ADD SWAP1 SWAP2 ADD MSTORE PUSH1 0x5 DUP2 PUSH1 0x80 DUP2 MLOAD DUP2 LT PUSH2 0x14C8 JUMPI PUSH2 0x14C8 PUSH2 0x78E7 JUMP JUMPDEST PUSH2 0xFFFF SWAP1 SWAP3 AND PUSH1 0x20 SWAP3 DUP4 MUL SWAP2 SWAP1 SWAP2 ADD SWAP1 SWAP2 ADD MSTORE PUSH1 0x5 DUP2 PUSH1 0x81 DUP2 MLOAD DUP2 LT PUSH2 0x14F0 JUMPI PUSH2 0x14F0 PUSH2 0x78E7 JUMP JUMPDEST PUSH2 0xFFFF SWAP1 SWAP3 AND PUSH1 0x20 SWAP3 DUP4 MUL SWAP2 SWAP1 SWAP2 ADD SWAP1 SWAP2 ADD MSTORE PUSH1 0x5 DUP2 PUSH1 0x82 DUP2 MLOAD DUP2 LT PUSH2 0x1518 JUMPI PUSH2 0x1518 PUSH2 0x78E7 JUMP JUMPDEST PUSH2 0xFFFF SWAP1 SWAP3 AND PUSH1 0x20 SWAP3 DUP4 MUL SWAP2 SWAP1 SWAP2 ADD SWAP1 SWAP2 ADD MSTORE PUSH1 0x5 DUP2 PUSH1 0x83 DUP2 MLOAD DUP2 LT PUSH2 0x1540 JUMPI PUSH2 0x1540 PUSH2 0x78E7 JUMP JUMPDEST PUSH2 0xFFFF SWAP1 SWAP3 AND PUSH1 0x20 SWAP3 DUP4 MUL SWAP2 SWAP1 SWAP2 ADD SWAP1 SWAP2 ADD MSTORE PUSH1 0x5 DUP2 PUSH1 0x7C DUP2 MLOAD DUP2 LT PUSH2 0x1568 JUMPI PUSH2 0x1568 PUSH2 0x78E7 JUMP JUMPDEST PUSH2 0xFFFF SWAP1 SWAP3 AND PUSH1 0x20 SWAP3 DUP4 MUL SWAP2 SWAP1 SWAP2 ADD SWAP1 SWAP2 ADD MSTORE PUSH1 0x19 DUP2 PUSH1 0x6D DUP2 MLOAD DUP2 LT PUSH2 0x1590 JUMPI PUSH2 0x1590 PUSH2 0x78E7 JUMP JUMPDEST PUSH2 0xFFFF SWAP1 SWAP3 AND PUSH1 0x20 SWAP3 DUP4 MUL SWAP2 SWAP1 SWAP2 ADD SWAP1 SWAP2 ADD MSTORE PUSH1 0xA DUP2 PUSH1 0x6C DUP2 MLOAD DUP2 LT PUSH2 0x15B8 JUMPI PUSH2 0x15B8 PUSH2 0x78E7 JUMP JUMPDEST PUSH2 0xFFFF SWAP1 SWAP3 AND PUSH1 0x20 SWAP3 DUP4 MUL SWAP2 SWAP1 SWAP2 ADD SWAP1 SWAP2 ADD MSTORE PUSH1 0x1E DUP2 PUSH1 0x33 DUP2 MLOAD DUP2 LT PUSH2 0x15E0 JUMPI PUSH2 0x15E0 PUSH2 0x78E7 JUMP JUMPDEST PUSH2 0xFFFF SWAP1 SWAP3 AND PUSH1 0x20 SWAP3 DUP4 MUL SWAP2 SWAP1 SWAP2 ADD SWAP1 SWAP2 ADD MSTORE PUSH1 0xF DUP2 PUSH1 0x32 DUP2 MLOAD DUP2 LT PUSH2 0x1608 JUMPI PUSH2 0x1608 PUSH2 0x78E7 JUMP JUMPDEST PUSH2 0xFFFF SWAP1 SWAP3 AND PUSH1 0x20 SWAP3 DUP4 MUL SWAP2 SWAP1 SWAP2 ADD SWAP1 SWAP2 ADD MSTORE PUSH1 0x3 DUP2 PUSH1 0x4B DUP2 MLOAD DUP2 LT PUSH2 0x1630 JUMPI PUSH2 0x1630 PUSH2 0x78E7 JUMP JUMPDEST PUSH1 0x20 MUL PUSH1 0x20 ADD ADD SWAP1 PUSH2 0xFFFF AND SWAP1 DUP2 PUSH2 0xFFFF AND DUP2 MSTORE POP POP PUSH0 PUSH2 0x1651 DUP5 DUP4 PUSH2 0x7494 JUMP JUMPDEST SWAP1 POP DUP1 PUSH1 0x83 DUP2 GT ISZERO PUSH2 0x1665 JUMPI PUSH2 0x1665 PUSH2 0x77A8 JUMP JUMPDEST SWAP5 SWAP4 POP POP POP POP JUMP JUMPDEST PUSH1 0x40 DUP1 MLOAD PUSH1 0x9 DUP1 DUP3 MSTORE PUSH2 0x140 DUP3 ADD SWAP1 SWAP3 MSTORE PUSH0 SWAP2 DUP3 SWAP2 SWAP1 PUSH1 0x20 DUP3 ADD PUSH2 0x120 DUP1 CALLDATASIZE DUP4 CALLDATACOPY ADD SWAP1 POP POP SWAP1 POP PUSH2 0x2328 DUP2 PUSH0 DUP2 MLOAD DUP2 LT PUSH2 0x16A9 JUMPI PUSH2 0x16A9 PUSH2 0x78E7 JUMP JUMPDEST PUSH2 0xFFFF SWAP1 SWAP3 AND PUSH1 0x20 SWAP3 DUP4 MUL SWAP2 SWAP1 SWAP2 ADD SWAP1 SWAP2 ADD MSTORE PUSH2 0x15E DUP2 PUSH1 0x5 DUP2 MLOAD DUP2 LT PUSH2 0x16D2 JUMPI PUSH2 0x16D2 PUSH2 0x78E7 JUMP JUMPDEST PUSH2 0xFFFF SWAP1 SWAP3 AND PUSH1 0x20 SWAP3 DUP4 MUL SWAP2 SWAP1 SWAP2 ADD SWAP1 SWAP2 ADD MSTORE PUSH1 0xFA DUP2 PUSH1 0x1 DUP2 MLOAD DUP2 LT PUSH2 0x16FA JUMPI PUSH2 0x16FA PUSH2 0x78E7 JUMP JUMPDEST PUSH2 0xFFFF SWAP1 SWAP3 AND PUSH1 0x20 SWAP3 DUP4 MUL SWAP2 SWAP1 SWAP2 ADD SWAP1 SWAP2 ADD MSTORE PUSH1 0x8C DUP2 PUSH1 0x4 DUP2 MLOAD DUP2 LT PUSH2 0x1722 JUMPI PUSH2 0x1722 PUSH2 0x78E7 JUMP JUMPDEST PUSH2 0xFFFF SWAP1 SWAP3 AND PUSH1 0x20 SWAP3 DUP4 MUL SWAP2 SWAP1 SWAP2 ADD SWAP1 SWAP2 ADD MSTORE PUSH1 0x64 DUP2 PUSH1 0x8 DUP2 MLOAD DUP2 LT PUSH2 0x174A JUMPI PUSH2 0x174A PUSH2 0x78E7 JUMP JUMPDEST PUSH2 0xFFFF SWAP1 SWAP3 AND PUSH1 0x20 SWAP3 DUP4 MUL SWAP2 SWAP1 SWAP2 ADD SWAP1 SWAP2 ADD MSTORE PUSH1 0x4B DUP2 PUSH1 0x3 DUP2 MLOAD DUP2 LT PUSH2 0x1772 JUMPI PUSH2 0x1772 PUSH2 0x78E7 JUMP JUMPDEST PUSH2 0xFFFF SWAP1 SWAP3 AND PUSH1 0x20 SWAP3 DUP4 MUL SWAP2 SWAP1 SWAP2 ADD SWAP1 SWAP2 ADD MSTORE PUSH1 0x32 DUP2 PUSH1 0x7 DUP2 MLOAD DUP2 LT PUSH2 0x179A JUMPI PUSH2 0x179A PUSH2 0x78E7 JUMP JUMPDEST PUSH2 0xFFFF SWAP1 SWAP3 AND PUSH1 0x20 SWAP3 DUP4 MUL SWAP2 SWAP1 SWAP2 ADD SWAP1 SWAP2 ADD MSTORE PUSH1 0x19 DUP2 PUSH1 0x2 DUP2 MLOAD DUP2 LT PUSH2 0x17C2 JUMPI PUSH2 0x17C2 PUSH2 0x78E7 JUMP JUMPDEST PUSH2 0xFFFF SWAP1 SWAP3 AND PUSH1 0x20 SWAP3 DUP4 MUL SWAP2 SWAP1 SWAP2 ADD SWAP1 SWAP2 ADD MSTORE PUSH1 0xA DUP2 PUSH1 0x6 DUP2 MLOAD DUP2 LT PUSH2 0x17EA JUMPI PUSH2 0x17EA PUSH2 0x78E7 JUMP JUMPDEST PUSH1 0x20 MUL PUSH1 0x20 ADD ADD SWAP1 PUSH2 0xFFFF AND SWAP1 DUP2 PUSH2 0xFFFF AND DUP2 MSTORE POP POP PUSH0 PUSH2 0x180B DUP5 DUP4 PUSH2 0x7494 JUMP JUMPDEST SWAP1 POP DUP1 PUSH1 0x8 DUP2 GT ISZERO PUSH2 0x1665 JUMPI PUSH2 0x1665 PUSH2 0x77A8 JUMP JUMPDEST PUSH1 0x40 DUP1 MLOAD PUSH1 0x19 DUP1 DUP3 MSTORE PUSH2 0x340 DUP3 ADD SWAP1 SWAP3 MSTORE PUSH0 SWAP2 DUP3 SWAP2 SWAP1 PUSH1 0x20 DUP3 ADD PUSH2 0x320 DUP1 CALLDATASIZE DUP4 CALLDATACOPY ADD SWAP1 POP POP SWAP1 POP PUSH2 0x2EE DUP2 PUSH1 0x7 DUP2 MLOAD DUP2 LT PUSH2 0x185C JUMPI PUSH2 0x185C PUSH2 0x78E7 JUMP JUMPDEST PUSH2 0xFFFF SWAP1 SWAP3 AND PUSH1 0x20 SWAP3 DUP4 MUL SWAP2 SWAP1 SWAP2 ADD SWAP1 SWAP2 ADD MSTORE PUSH2 0x2EE DUP2 PUSH1 0x8 DUP2 MLOAD DUP2 LT PUSH2 0x1885 JUMPI PUSH2 0x1885 PUSH2 0x78E7 JUMP JUMPDEST PUSH2 0xFFFF SWAP1 SWAP3 AND PUSH1 0x20 SWAP3 DUP4 MUL SWAP2 SWAP1 SWAP2 ADD SWAP1 SWAP2 ADD MSTORE PUSH2 0x2EE DUP2 PUSH1 0x9 DUP2 MLOAD DUP2 LT PUSH2 0x18AE JUMPI PUSH2 0x18AE PUSH2 0x78E7 JUMP JUMPDEST PUSH2 0xFFFF SWAP1 SWAP3 AND PUSH1 0x20 SWAP3 DUP4 MUL SWAP2 SWAP1 SWAP2 ADD SWAP1 SWAP2 ADD MSTORE PUSH2 0x2EE DUP2 PUSH1 0xA DUP2 MLOAD DUP2 LT PUSH2 0x18D7 JUMPI PUSH2 0x18D7 PUSH2 0x78E7 JUMP JUMPDEST PUSH2 0xFFFF SWAP1 SWAP3 AND PUSH1 0x20 SWAP3 DUP4 MUL SWAP2 SWAP1 SWAP2 ADD SWAP1 SWAP2 ADD MSTORE PUSH2 0x2EE DUP2 PUSH1 0xB DUP2 MLOAD DUP2 LT PUSH2 0x1900 JUMPI PUSH2 0x1900 PUSH2 0x78E7 JUMP JUMPDEST PUSH2 0xFFFF SWAP1 SWAP3 AND PUSH1 0x20 SWAP3 DUP4 MUL SWAP2 SWAP1 SWAP2 ADD SWAP1 SWAP2 ADD MSTORE PUSH2 0x2EE DUP2 PUSH1 0xC DUP2 MLOAD DUP2 LT PUSH2 0x1929 JUMPI PUSH2 0x1929 PUSH2 0x78E7 JUMP JUMPDEST PUSH2 0xFFFF SWAP1 SWAP3 AND PUSH1 0x20 SWAP3 DUP4 MUL SWAP2 SWAP1 SWAP2 ADD SWAP1 SWAP2 ADD MSTORE PUSH2 0x2EE DUP2 PUSH1 0xD DUP2 MLOAD DUP2 LT PUSH2 0x1952 JUMPI PUSH2 0x1952 PUSH2 0x78E7 JUMP JUMPDEST PUSH2 0xFFFF SWAP1 SWAP3 AND PUSH1 0x20 SWAP3 DUP4 MUL SWAP2 SWAP1 SWAP2 ADD SWAP1 SWAP2 ADD MSTORE PUSH2 0x2EE DUP2 PUSH1 0xE DUP2 MLOAD DUP2 LT PUSH2 0x197B JUMPI PUSH2 0x197B PUSH2 0x78E7 JUMP JUMPDEST PUSH2 0xFFFF SWAP1 SWAP3 AND PUSH1 0x20 SWAP3 DUP4 MUL SWAP2 SWAP1 SWAP2 ADD SWAP1 SWAP2 ADD MSTORE PUSH2 0x2EE DUP2 PUSH1 0xF DUP2 MLOAD DUP2 LT PUSH2 0x19A4 JUMPI PUSH2 0x19A4 PUSH2 0x78E7 JUMP JUMPDEST PUSH2 0xFFFF SWAP1 SWAP3 AND PUSH1 0x20 SWAP3 DUP4 MUL SWAP2 SWAP1 SWAP2 ADD SWAP1 SWAP2 ADD MSTORE PUSH2 0x2EE DUP2 PUSH1 0x10 DUP2 MLOAD DUP2 LT PUSH2 0x19CD JUMPI PUSH2 0x19CD PUSH2 0x78E7 JUMP JUMPDEST PUSH2 0xFFFF SWAP1 SWAP3 AND PUSH1 0x20 SWAP3 DUP4 MUL SWAP2 SWAP1 SWAP2 ADD SWAP1 SWAP2 ADD MSTORE PUSH2 0x2EE DUP2 PUSH1 0x11 DUP2 MLOAD DUP2 LT PUSH2 0x19F6 JUMPI PUSH2 0x19F6 PUSH2 0x78E7 JUMP JUMPDEST PUSH2 0xFFFF SWAP1 SWAP3 AND PUSH1 0x20 SWAP3 DUP4 MUL SWAP2 SWAP1 SWAP2 ADD SWAP1 SWAP2 ADD MSTORE PUSH2 0x2EE DUP2 PUSH1 0x12 DUP2 MLOAD DUP2 LT PUSH2 0x1A1F JUMPI PUSH2 0x1A1F PUSH2 0x78E7 JUMP JUMPDEST PUSH2 0xFFFF SWAP1 SWAP3 AND PUSH1 0x20 SWAP3 DUP4 MUL SWAP2 SWAP1 SWAP2 ADD SWAP1 SWAP2 ADD MSTORE PUSH2 0x12C DUP2 PUSH1 0x18 DUP2 MLOAD DUP2 LT PUSH2 0x1A48 JUMPI PUSH2 0x1A48 PUSH2 0x78E7 JUMP JUMPDEST PUSH2 0xFFFF SWAP1 SWAP3 AND PUSH1 0x20 SWAP3 DUP4 MUL SWAP2 SWAP1 SWAP2 ADD SWAP1 SWAP2 ADD MSTORE PUSH1 0xE1 DUP2 PUSH1 0x2 DUP2 MLOAD DUP2 LT PUSH2 0x1A70 JUMPI PUSH2 0x1A70 PUSH2 0x78E7 JUMP JUMPDEST PUSH2 0xFFFF SWAP1 SWAP3 AND PUSH1 0x20 SWAP3 DUP4 MUL SWAP2 SWAP1 SWAP2 ADD SWAP1 SWAP2 ADD MSTORE PUSH1 0x96 DUP2 PUSH1 0x19 DUP2 MLOAD DUP2 LT PUSH2 0x1A98 JUMPI PUSH2 0x1A98 PUSH2 0x78E7 JUMP JUMPDEST PUSH2 0xFFFF SWAP1 SWAP3 AND PUSH1 0x20 SWAP3 DUP4 MUL SWAP2 SWAP1 SWAP2 ADD SWAP1 SWAP2 ADD MSTORE PUSH1 0x5A DUP2 PUSH1 0x15 DUP2 MLOAD DUP2 LT PUSH2 0x1AC0 JUMPI PUSH2 0x1AC0 PUSH2 0x78E7 JUMP JUMPDEST PUSH2 0xFFFF SWAP1 SWAP3 AND PUSH1 0x20 SWAP3 DUP4 MUL SWAP2 SWAP1 SWAP2 ADD SWAP1 SWAP2 ADD MSTORE PUSH1 0x41 DUP2 PUSH1 0x5 DUP2 MLOAD DUP2 LT PUSH2 0x1AE8 JUMPI PUSH2 0x1AE8 PUSH2 0x78E7 JUMP JUMPDEST PUSH2 0xFFFF SWAP1 SWAP3 AND PUSH1 0x20 SWAP3 DUP4 MUL SWAP2 SWAP1 SWAP2 ADD SWAP1 SWAP2 ADD MSTORE PUSH1 0x2D DUP2 PUSH1 0x4 DUP2 MLOAD DUP2 LT PUSH2 0x1B10 JUMPI PUSH2 0x1B10 PUSH2 0x78E7 JUMP JUMPDEST PUSH2 0xFFFF SWAP1 SWAP3 AND PUSH1 0x20 SWAP3 DUP4 MUL SWAP2 SWAP1 SWAP2 ADD SWAP1 SWAP2 ADD MSTORE PUSH1 0x19 DUP2 PUSH1 0x1 DUP2 MLOAD DUP2 LT PUSH2 0x1B38 JUMPI PUSH2 0x1B38 PUSH2 0x78E7 JUMP JUMPDEST PUSH2 0xFFFF SWAP1 SWAP3 AND PUSH1 0x20 SWAP3 DUP4 MUL SWAP2 SWAP1 SWAP2 ADD SWAP1 SWAP2 ADD MSTORE PUSH1 0x19 DUP2 PUSH1 0x14 DUP2 MLOAD DUP2 LT PUSH2 0x1B60 JUMPI PUSH2 0x1B60 PUSH2 0x78E7 JUMP JUMPDEST PUSH2 0xFFFF SWAP1 SWAP3 AND PUSH1 0x20 SWAP3 DUP4 MUL SWAP2 SWAP1 SWAP2 ADD SWAP1 SWAP2 ADD MSTORE PUSH1 0x16 DUP2 DUP2 DUP2 MLOAD DUP2 LT PUSH2 0x1B87 JUMPI PUSH2 0x1B87 PUSH2 0x78E7 JUMP JUMPDEST PUSH2 0xFFFF SWAP1 SWAP3 AND PUSH1 0x20 SWAP3 DUP4 MUL SWAP2 SWAP1 SWAP2 ADD SWAP1 SWAP2 ADD MSTORE PUSH1 0x14 DUP2 PUSH1 0x6 DUP2 MLOAD DUP2 LT PUSH2 0x1BAF JUMPI PUSH2 0x1BAF PUSH2 0x78E7 JUMP JUMPDEST PUSH2 0xFFFF SWAP1 SWAP3 AND PUSH1 0x20 SWAP3 DUP4 MUL SWAP2 SWAP1 SWAP2 ADD SWAP1 SWAP2 ADD MSTORE PUSH1 0xF DUP2 PUSH1 0x3 DUP2 MLOAD DUP2 LT PUSH2 0x1BD7 JUMPI PUSH2 0x1BD7 PUSH2 0x78E7 JUMP JUMPDEST PUSH2 0xFFFF SWAP1 SWAP3 AND PUSH1 0x20 SWAP3 DUP4 MUL SWAP2 SWAP1 SWAP2 ADD SWAP1 SWAP2 ADD MSTORE PUSH1 0xA DUP2 PUSH1 0x17 DUP2 MLOAD DUP2 LT PUSH2 0x1BFF JUMPI PUSH2 0x1BFF PUSH2 0x78E7 JUMP JUMPDEST PUSH2 0xFFFF SWAP1 SWAP3 AND PUSH1 0x20 SWAP3 DUP4 MUL SWAP2 SWAP1 SWAP2 ADD SWAP1 SWAP2 ADD MSTORE PUSH1 0x8 DUP2 PUSH1 0x13 DUP2 MLOAD DUP2 LT PUSH2 0x1C27 JUMPI PUSH2 0x1C27 PUSH2 0x78E7 JUMP JUMPDEST PUSH1 0x20 MUL PUSH1 0x20 ADD ADD SWAP1 PUSH2 0xFFFF AND SWAP1 DUP2 PUSH2 0xFFFF AND DUP2 MSTORE POP POP PUSH0 PUSH2 0x1C48 DUP5 DUP4 PUSH2 0x7494 JUMP JUMPDEST SWAP1 POP DUP1 PUSH1 0x19 DUP2 GT ISZERO PUSH2 0x1665 JUMPI PUSH2 0x1665 PUSH2 0x77A8 JUMP JUMPDEST PUSH1 0x40 DUP1 MLOAD PUSH1 0x85 DUP1 DUP3 MSTORE PUSH2 0x10C0 DUP3 ADD SWAP1 SWAP3 MSTORE PUSH0 SWAP2 DUP3 SWAP2 SWAP1 PUSH1 0x20 DUP3 ADD PUSH2 0x10A0 DUP1 CALLDATASIZE DUP4 CALLDATACOPY ADD SWAP1 POP POP SWAP1 POP PUSH2 0x1C94 PUSH2 0x1C8F DUP6 PUSH2 0x7B89 JUMP JUMPDEST PUSH2 0x74EC JUMP JUMPDEST DUP1 PUSH2 0x1CAB JUMPI POP PUSH2 0x1CAB PUSH2 0x1CA6 DUP6 PUSH2 0x7B89 JUMP JUMPDEST PUSH2 0x753A JUMP JUMPDEST ISZERO PUSH2 0x1CE0 JUMPI PUSH2 0x190 DUP2 PUSH0 DUP2 MLOAD DUP2 LT PUSH2 0x1CC5 JUMPI PUSH2 0x1CC5 PUSH2 0x78E7 JUMP JUMPDEST PUSH1 0x20 MUL PUSH1 0x20 ADD ADD SWAP1 PUSH2 0xFFFF AND SWAP1 DUP2 PUSH2 0xFFFF AND DUP2 MSTORE POP POP PUSH2 0x1D59 JUMP JUMPDEST PUSH2 0x1CF1 PUSH2 0x1CEC DUP6 PUSH2 0x7B89 JUMP JUMPDEST PUSH2 0x755C JUMP JUMPDEST DUP1 PUSH2 0x1D08 JUMPI POP PUSH2 0x1D08 PUSH2 0x1D03 DUP6 PUSH2 0x7B89 JUMP JUMPDEST PUSH2 0x7564 JUMP JUMPDEST DUP1 PUSH2 0x1D1F JUMPI POP PUSH2 0x1D1F PUSH2 0x1D1A DUP6 PUSH2 0x7B89 JUMP JUMPDEST PUSH2 0x756C JUMP JUMPDEST ISZERO PUSH2 0x1D2D JUMPI PUSH0 SWAP2 POP POP PUSH2 0x31D2 JUMP JUMPDEST PUSH2 0x320 DUP2 PUSH0 DUP2 MLOAD DUP2 LT PUSH2 0x1D42 JUMPI PUSH2 0x1D42 PUSH2 0x78E7 JUMP JUMPDEST PUSH1 0x20 MUL PUSH1 0x20 ADD ADD SWAP1 PUSH2 0xFFFF AND SWAP1 DUP2 PUSH2 0xFFFF AND DUP2 MSTORE POP POP JUMPDEST PUSH1 0xE1 DUP2 PUSH1 0x1 DUP2 MLOAD DUP2 LT PUSH2 0x1D6E JUMPI PUSH2 0x1D6E PUSH2 0x78E7 JUMP JUMPDEST PUSH2 0xFFFF SWAP1 SWAP3 AND PUSH1 0x20 SWAP3 DUP4 MUL SWAP2 SWAP1 SWAP2 ADD SWAP1 SWAP2 ADD MSTORE PUSH1 0x96 DUP2 PUSH1 0x4 DUP2 MLOAD DUP2 LT PUSH2 0x1D96 JUMPI PUSH2 0x1D96 PUSH2 0x78E7 JUMP JUMPDEST PUSH2 0xFFFF SWAP1 SWAP3 AND PUSH1 0x20 SWAP3 DUP4 MUL SWAP2 SWAP1 SWAP2 ADD SWAP1 SWAP2 ADD MSTORE PUSH1 0x7D DUP2 PUSH1 0x2 DUP2 MLOAD DUP2 LT PUSH2 0x1DBE JUMPI PUSH2 0x1DBE PUSH2 0x78E7 JUMP JUMPDEST PUSH2 0xFFFF SWAP1 SWAP3 AND PUSH1 0x20 SWAP3 DUP4 MUL SWAP2 SWAP1 SWAP2 ADD SWAP1 SWAP2 ADD MSTORE PUSH1 0x64 DUP2 PUSH1 0x5 DUP2 MLOAD DUP2 LT PUSH2 0x1DE6 JUMPI PUSH2 0x1DE6 PUSH2 0x78E7 JUMP JUMPDEST PUSH2 0xFFFF SWAP1 SWAP3 AND PUSH1 0x20 SWAP3 DUP4 MUL SWAP2 SWAP1 SWAP2 ADD SWAP1 SWAP2 ADD MSTORE PUSH1 0x4B DUP2 PUSH1 0xC DUP2 MLOAD DUP2 LT PUSH2 0x1E0E JUMPI PUSH2 0x1E0E PUSH2 0x78E7 JUMP JUMPDEST PUSH2 0xFFFF SWAP1 SWAP3 AND PUSH1 0x20 SWAP3 DUP4 MUL SWAP2 SWAP1 SWAP2 ADD SWAP1 SWAP2 ADD MSTORE PUSH1 0x21 DUP2 PUSH1 0x3 DUP2 MLOAD DUP2 LT PUSH2 0x1E36 JUMPI PUSH2 0x1E36 PUSH2 0x78E7 JUMP JUMPDEST PUSH2 0xFFFF SWAP1 SWAP3 AND PUSH1 0x20 SWAP3 DUP4 MUL SWAP2 SWAP1 SWAP2 ADD DUP3 ADD MSTORE DUP2 PUSH1 0x6 DUP2 MLOAD DUP2 LT PUSH2 0x1E5B JUMPI PUSH2 0x1E5B PUSH2 0x78E7 JUMP JUMPDEST PUSH2 0xFFFF SWAP1 SWAP3 AND PUSH1 0x20 SWAP3 DUP4 MUL SWAP2 SWAP1 SWAP2 ADD DUP3 ADD MSTORE DUP2 PUSH1 0x7 DUP2 MLOAD DUP2 LT PUSH2 0x1E80 JUMPI PUSH2 0x1E80 PUSH2 0x78E7 JUMP JUMPDEST PUSH2 0xFFFF SWAP1 SWAP3 AND PUSH1 0x20 SWAP3 DUP4 MUL SWAP2 SWAP1 SWAP2 ADD DUP3 ADD MSTORE DUP2 PUSH1 0x8 DUP2 MLOAD DUP2 LT PUSH2 0x1EA5 JUMPI PUSH2 0x1EA5 PUSH2 0x78E7 JUMP JUMPDEST PUSH2 0xFFFF SWAP1 SWAP3 AND PUSH1 0x20 SWAP3 DUP4 MUL SWAP2 SWAP1 SWAP2 ADD DUP3 ADD MSTORE DUP2 PUSH1 0x9 DUP2 MLOAD DUP2 LT PUSH2 0x1ECA JUMPI PUSH2 0x1ECA PUSH2 0x78E7 JUMP JUMPDEST PUSH2 0xFFFF SWAP1 SWAP3 AND PUSH1 0x20 SWAP3 DUP4 MUL SWAP2 SWAP1 SWAP2 ADD DUP3 ADD MSTORE DUP2 PUSH1 0xA DUP2 MLOAD DUP2 LT PUSH2 0x1EEF JUMPI PUSH2 0x1EEF PUSH2 0x78E7 JUMP JUMPDEST PUSH2 0xFFFF SWAP1 SWAP3 AND PUSH1 0x20 SWAP3 DUP4 MUL SWAP2 SWAP1 SWAP2 ADD DUP3 ADD MSTORE DUP2 PUSH1 0xB DUP2 MLOAD DUP2 LT PUSH2 0x1F14 JUMPI PUSH2 0x1F14 PUSH2 0x78E7 JUMP JUMPDEST PUSH2 0xFFFF SWAP1 SWAP3 AND PUSH1 0x20 SWAP3 DUP4 MUL SWAP2 SWAP1 SWAP2 ADD SWAP1 SWAP2 ADD MSTORE PUSH1 0xE1 DUP2 PUSH1 0xD DUP2 MLOAD DUP2 LT PUSH2 0x1F3C JUMPI PUSH2 0x1F3C PUSH2 0x78E7 JUMP JUMPDEST PUSH2 0xFFFF SWAP1 SWAP3 AND PUSH1 0x20 SWAP3 DUP4 MUL SWAP2 SWAP1 SWAP2 ADD SWAP1 SWAP2 ADD MSTORE PUSH1 0x96 DUP2 PUSH1 0x10 DUP2 MLOAD DUP2 LT PUSH2 0x1F64 JUMPI PUSH2 0x1F64 PUSH2 0x78E7 JUMP JUMPDEST PUSH2 0xFFFF SWAP1 SWAP3 AND PUSH1 0x20 SWAP3 DUP4 MUL SWAP2 SWAP1 SWAP2 ADD SWAP1 SWAP2 ADD MSTORE PUSH1 0x7D DUP2 PUSH1 0xE DUP2 MLOAD DUP2 LT PUSH2 0x1F8C JUMPI PUSH2 0x1F8C PUSH2 0x78E7 JUMP JUMPDEST PUSH2 0xFFFF SWAP1 SWAP3 AND PUSH1 0x20 SWAP3 DUP4 MUL SWAP2 SWAP1 SWAP2 ADD SWAP1 SWAP2 ADD MSTORE PUSH1 0x64 DUP2 PUSH1 0x11 DUP2 MLOAD DUP2 LT PUSH2 0x1FB4 JUMPI PUSH2 0x1FB4 PUSH2 0x78E7 JUMP JUMPDEST PUSH2 0xFFFF SWAP1 SWAP3 AND PUSH1 0x20 SWAP3 DUP4 MUL SWAP2 SWAP1 SWAP2 ADD SWAP1 SWAP2 ADD MSTORE PUSH1 0x4B DUP2 PUSH1 0x18 DUP2 MLOAD DUP2 LT PUSH2 0x1FDC JUMPI PUSH2 0x1FDC PUSH2 0x78E7 JUMP JUMPDEST PUSH2 0xFFFF SWAP1 SWAP3 AND PUSH1 0x20 SWAP3 DUP4 MUL SWAP2 SWAP1 SWAP2 ADD SWAP1 SWAP2 ADD MSTORE PUSH1 0x21 DUP2 PUSH1 0xF DUP2 MLOAD DUP2 LT PUSH2 0x2004 JUMPI PUSH2 0x2004 PUSH2 0x78E7 JUMP JUMPDEST PUSH2 0xFFFF SWAP1 SWAP3 AND PUSH1 0x20 SWAP3 DUP4 MUL SWAP2 SWAP1 SWAP2 ADD DUP3 ADD MSTORE DUP2 PUSH1 0x12 DUP2 MLOAD DUP2 LT PUSH2 0x2029 JUMPI PUSH2 0x2029 PUSH2 0x78E7 JUMP JUMPDEST PUSH2 0xFFFF SWAP1 SWAP3 AND PUSH1 0x20 SWAP3 DUP4 MUL SWAP2 SWAP1 SWAP2 ADD DUP3 ADD MSTORE DUP2 PUSH1 0x13 DUP2 MLOAD DUP2 LT PUSH2 0x204E JUMPI PUSH2 0x204E PUSH2 0x78E7 JUMP JUMPDEST PUSH2 0xFFFF SWAP1 SWAP3 AND PUSH1 0x20 SWAP3 DUP4 MUL SWAP2 SWAP1 SWAP2 ADD DUP3 ADD MSTORE DUP2 PUSH1 0x14 DUP2 MLOAD DUP2 LT PUSH2 0x2073 JUMPI PUSH2 0x2073 PUSH2 0x78E7 JUMP JUMPDEST PUSH2 0xFFFF SWAP1 SWAP3 AND PUSH1 0x20 SWAP3 DUP4 MUL SWAP2 SWAP1 SWAP2 ADD DUP3 ADD MSTORE DUP2 PUSH1 0x15 DUP2 MLOAD DUP2 LT PUSH2 0x2098 JUMPI PUSH2 0x2098 PUSH2 0x78E7 JUMP JUMPDEST PUSH2 0xFFFF SWAP1 SWAP3 AND PUSH1 0x20 SWAP3 DUP4 MUL SWAP2 SWAP1 SWAP2 ADD DUP3 ADD MSTORE DUP2 PUSH1 0x16 DUP2 MLOAD DUP2 LT PUSH2 0x20BD JUMPI PUSH2 0x20BD PUSH2 0x78E7 JUMP JUMPDEST PUSH2 0xFFFF SWAP1 SWAP3 AND PUSH1 0x20 SWAP3 DUP4 MUL SWAP2 SWAP1 SWAP2 ADD DUP3 ADD MSTORE DUP2 PUSH1 0x17 DUP2 MLOAD DUP2 LT PUSH2 0x20E2 JUMPI PUSH2 0x20E2 PUSH2 0x78E7 JUMP JUMPDEST PUSH2 0xFFFF SWAP1 SWAP3 AND PUSH1 0x20 SWAP3 DUP4 MUL SWAP2 SWAP1 SWAP2 ADD SWAP1 SWAP2 ADD MSTORE PUSH1 0xE1 DUP2 PUSH1 0x49 DUP2 MLOAD DUP2 LT PUSH2 0x210A JUMPI PUSH2 0x210A PUSH2 0x78E7 JUMP JUMPDEST PUSH2 0xFFFF SWAP1 SWAP3 AND PUSH1 0x20 SWAP3 DUP4 MUL SWAP2 SWAP1 SWAP2 ADD SWAP1 SWAP2 ADD MSTORE PUSH1 0x96 DUP2 PUSH1 0x4C DUP2 MLOAD DUP2 LT PUSH2 0x2132 JUMPI PUSH2 0x2132 PUSH2 0x78E7 JUMP JUMPDEST PUSH2 0xFFFF SWAP1 SWAP3 AND PUSH1 0x20 SWAP3 DUP4 MUL SWAP2 SWAP1 SWAP2 ADD SWAP1 SWAP2 ADD MSTORE PUSH1 0x7D DUP2 PUSH1 0x4A DUP2 MLOAD DUP2 LT PUSH2 0x215A JUMPI PUSH2 0x215A PUSH2 0x78E7 JUMP JUMPDEST PUSH2 0xFFFF SWAP1 SWAP3 AND PUSH1 0x20 SWAP3 DUP4 MUL SWAP2 SWAP1 SWAP2 ADD SWAP1 SWAP2 ADD MSTORE PUSH1 0x64 DUP2 PUSH1 0x4D DUP2 MLOAD DUP2 LT PUSH2 0x2182 JUMPI PUSH2 0x2182 PUSH2 0x78E7 JUMP JUMPDEST PUSH2 0xFFFF SWAP1 SWAP3 AND PUSH1 0x20 SWAP3 DUP4 MUL SWAP2 SWAP1 SWAP2 ADD SWAP1 SWAP2 ADD MSTORE PUSH1 0x4B DUP2 PUSH1 0x54 DUP2 MLOAD DUP2 LT PUSH2 0x21AA JUMPI PUSH2 0x21AA PUSH2 0x78E7 JUMP JUMPDEST PUSH2 0xFFFF SWAP1 SWAP3 AND PUSH1 0x20 SWAP3 DUP4 MUL SWAP2 SWAP1 SWAP2 ADD SWAP1 SWAP2 ADD MSTORE PUSH1 0x21 DUP2 PUSH1 0x4B DUP2 MLOAD DUP2 LT PUSH2 0x21D2 JUMPI PUSH2 0x21D2 PUSH2 0x78E7 JUMP JUMPDEST PUSH2 0xFFFF SWAP1 SWAP3 AND PUSH1 0x20 SWAP3 DUP4 MUL SWAP2 SWAP1 SWAP2 ADD DUP3 ADD MSTORE DUP2 PUSH1 0x4E DUP2 MLOAD DUP2 LT PUSH2 0x21F7 JUMPI PUSH2 0x21F7 PUSH2 0x78E7 JUMP JUMPDEST PUSH2 0xFFFF SWAP1 SWAP3 AND PUSH1 0x20 SWAP3 DUP4 MUL SWAP2 SWAP1 SWAP2 ADD DUP3 ADD MSTORE DUP2 PUSH1 0x4F DUP2 MLOAD DUP2 LT PUSH2 0x221C JUMPI PUSH2 0x221C PUSH2 0x78E7 JUMP JUMPDEST PUSH2 0xFFFF SWAP1 SWAP3 AND PUSH1 0x20 SWAP3 DUP4 MUL SWAP2 SWAP1 SWAP2 ADD DUP3 ADD MSTORE DUP2 PUSH1 0x50 DUP2 MLOAD DUP2 LT PUSH2 0x2241 JUMPI PUSH2 0x2241 PUSH2 0x78E7 JUMP JUMPDEST PUSH2 0xFFFF SWAP1 SWAP3 AND PUSH1 0x20 SWAP3 DUP4 MUL SWAP2 SWAP1 SWAP2 ADD DUP3 ADD MSTORE DUP2 PUSH1 0x51 DUP2 MLOAD DUP2 LT PUSH2 0x2266 JUMPI PUSH2 0x2266 PUSH2 0x78E7 JUMP JUMPDEST PUSH2 0xFFFF SWAP1 SWAP3 AND PUSH1 0x20 SWAP3 DUP4 MUL SWAP2 SWAP1 SWAP2 ADD DUP3 ADD MSTORE DUP2 PUSH1 0x52 DUP2 MLOAD DUP2 LT PUSH2 0x228B JUMPI PUSH2 0x228B PUSH2 0x78E7 JUMP JUMPDEST PUSH2 0xFFFF SWAP1 SWAP3 AND PUSH1 0x20 SWAP3 DUP4 MUL SWAP2 SWAP1 SWAP2 ADD DUP3 ADD MSTORE DUP2 PUSH1 0x53 DUP2 MLOAD DUP2 LT PUSH2 0x22B0 JUMPI PUSH2 0x22B0 PUSH2 0x78E7 JUMP JUMPDEST PUSH2 0xFFFF SWAP1 SWAP3 AND PUSH1 0x20 SWAP3 DUP4 MUL SWAP2 SWAP1 SWAP2 ADD SWAP1 SWAP2 ADD MSTORE PUSH1 0xE1 DUP2 PUSH1 0x61 DUP2 MLOAD DUP2 LT PUSH2 0x22D8 JUMPI PUSH2 0x22D8 PUSH2 0x78E7 JUMP JUMPDEST PUSH2 0xFFFF SWAP1 SWAP3 AND PUSH1 0x20 SWAP3 DUP4 MUL SWAP2 SWAP1 SWAP2 ADD SWAP1 SWAP2 ADD MSTORE PUSH1 0x96 DUP2 PUSH1 0x64 DUP2 MLOAD DUP2 LT PUSH2 0x2300 JUMPI PUSH2 0x2300 PUSH2 0x78E7 JUMP JUMPDEST PUSH2 0xFFFF SWAP1 SWAP3 AND PUSH1 0x20 SWAP3 DUP4 MUL SWAP2 SWAP1 SWAP2 ADD SWAP1 SWAP2 ADD MSTORE PUSH1 0x7D DUP2 PUSH1 0x62 DUP2 MLOAD DUP2 LT PUSH2 0x2328 JUMPI PUSH2 0x2328 PUSH2 0x78E7 JUMP JUMPDEST PUSH2 0xFFFF SWAP1 SWAP3 AND PUSH1 0x20 SWAP3 DUP4 MUL SWAP2 SWAP1 SWAP2 ADD SWAP1 SWAP2 ADD MSTORE PUSH1 0x64 DUP2 PUSH1 0x65 DUP2 MLOAD DUP2 LT PUSH2 0x2350 JUMPI PUSH2 0x2350 PUSH2 0x78E7 JUMP JUMPDEST PUSH2 0xFFFF SWAP1 SWAP3 AND PUSH1 0x20 SWAP3 DUP4 MUL SWAP2 SWAP1 SWAP2 ADD SWAP1 SWAP2 ADD MSTORE PUSH1 0x4B DUP2 PUSH1 0x6C DUP2 MLOAD DUP2 LT PUSH2 0x2378 JUMPI PUSH2 0x2378 PUSH2 0x78E7 JUMP JUMPDEST PUSH2 0xFFFF SWAP1 SWAP3 AND PUSH1 0x20 SWAP3 DUP4 MUL SWAP2 SWAP1 SWAP2 ADD SWAP1 SWAP2 ADD MSTORE PUSH1 0x21 DUP2 PUSH1 0x63 DUP2 MLOAD DUP2 LT PUSH2 0x23A0 JUMPI PUSH2 0x23A0 PUSH2 0x78E7 JUMP JUMPDEST PUSH2 0xFFFF SWAP1 SWAP3 AND PUSH1 0x20 SWAP3 DUP4 MUL SWAP2 SWAP1 SWAP2 ADD DUP3 ADD MSTORE DUP2 PUSH1 0x66 DUP2 MLOAD DUP2 LT PUSH2 0x23C5 JUMPI PUSH2 0x23C5 PUSH2 0x78E7 JUMP JUMPDEST PUSH2 0xFFFF SWAP1 SWAP3 AND PUSH1 0x20 SWAP3 DUP4 MUL SWAP2 SWAP1 SWAP2 ADD DUP3 ADD MSTORE DUP2 PUSH1 0x67 DUP2 MLOAD DUP2 LT PUSH2 0x23EA JUMPI PUSH2 0x23EA PUSH2 0x78E7 JUMP JUMPDEST PUSH2 0xFFFF SWAP1 SWAP3 AND PUSH1 0x20 SWAP3 DUP4 MUL SWAP2 SWAP1 SWAP2 ADD DUP3 ADD MSTORE DUP2 PUSH1 0x68 DUP2 MLOAD DUP2 LT PUSH2 0x240F JUMPI PUSH2 0x240F PUSH2 0x78E7 JUMP JUMPDEST PUSH2 0xFFFF SWAP1 SWAP3 AND PUSH1 0x20 SWAP3 DUP4 MUL SWAP2 SWAP1 SWAP2 ADD DUP3 ADD MSTORE DUP2 PUSH1 0x69 DUP2 MLOAD DUP2 LT PUSH2 0x2434 JUMPI PUSH2 0x2434 PUSH2 0x78E7 JUMP JUMPDEST PUSH2 0xFFFF SWAP1 SWAP3 AND PUSH1 0x20 SWAP3 DUP4 MUL SWAP2 SWAP1 SWAP2 ADD DUP3 ADD MSTORE DUP2 PUSH1 0x6A DUP2 MLOAD DUP2 LT PUSH2 0x2459 JUMPI PUSH2 0x2459 PUSH2 0x78E7 JUMP JUMPDEST PUSH2 0xFFFF SWAP1 SWAP3 AND PUSH1 0x20 SWAP3 DUP4 MUL SWAP2 SWAP1 SWAP2 ADD DUP3 ADD MSTORE DUP2 PUSH1 0x6B DUP2 MLOAD DUP2 LT PUSH2 0x247E JUMPI PUSH2 0x247E PUSH2 0x78E7 JUMP JUMPDEST PUSH2 0xFFFF SWAP1 SWAP3 AND PUSH1 0x20 SWAP3 DUP4 MUL SWAP2 SWAP1 SWAP2 ADD SWAP1 SWAP2 ADD MSTORE PUSH1 0xD0 DUP2 PUSH1 0x19 DUP2 MLOAD DUP2 LT PUSH2 0x24A6 JUMPI PUSH2 0x24A6 PUSH2 0x78E7 JUMP JUMPDEST PUSH2 0xFFFF SWAP1 SWAP3 AND PUSH1 0x20 SWAP3 DUP4 MUL SWAP2 SWAP1 SWAP2 ADD SWAP1 SWAP2 ADD MSTORE PUSH1 0x96 DUP2 PUSH1 0x1C DUP2 MLOAD DUP2 LT PUSH2 0x24CE JUMPI PUSH2 0x24CE PUSH2 0x78E7 JUMP JUMPDEST PUSH2 0xFFFF SWAP1 SWAP3 AND PUSH1 0x20 SWAP3 DUP4 MUL SWAP2 SWAP1 SWAP2 ADD SWAP1 SWAP2 ADD MSTORE PUSH1 0x78 DUP2 PUSH1 0x1A DUP2 MLOAD DUP2 LT PUSH2 0x24F6 JUMPI PUSH2 0x24F6 PUSH2 0x78E7 JUMP JUMPDEST PUSH2 0xFFFF SWAP1 SWAP3 AND PUSH1 0x20 SWAP3 DUP4 MUL SWAP2 SWAP1 SWAP2 ADD SWAP1 SWAP2 ADD MSTORE PUSH1 0x64 DUP2 PUSH1 0x1D DUP2 MLOAD DUP2 LT PUSH2 0x251E JUMPI PUSH2 0x251E PUSH2 0x78E7 JUMP JUMPDEST PUSH2 0xFFFF SWAP1 SWAP3 AND PUSH1 0x20 SWAP3 DUP4 MUL SWAP2 SWAP1 SWAP2 ADD SWAP1 SWAP2 ADD MSTORE PUSH1 0x3C DUP2 PUSH1 0x24 DUP2 MLOAD DUP2 LT PUSH2 0x2546 JUMPI PUSH2 0x2546 PUSH2 0x78E7 JUMP JUMPDEST PUSH2 0xFFFF SWAP1 SWAP3 AND PUSH1 0x20 SWAP3 DUP4 MUL SWAP2 SWAP1 SWAP2 ADD DUP3 ADD MSTORE DUP2 PUSH1 0x1B DUP2 MLOAD DUP2 LT PUSH2 0x256B JUMPI PUSH2 0x256B PUSH2 0x78E7 JUMP JUMPDEST PUSH2 0xFFFF SWAP1 SWAP3 AND PUSH1 0x20 SWAP3 DUP4 MUL SWAP2 SWAP1 SWAP2 ADD SWAP1 SWAP2 ADD MSTORE PUSH1 0x1E DUP2 DUP2 DUP2 MLOAD DUP2 LT PUSH2 0x2592 JUMPI PUSH2 0x2592 PUSH2 0x78E7 JUMP JUMPDEST PUSH2 0xFFFF SWAP1 SWAP3 AND PUSH1 0x20 SWAP3 DUP4 MUL SWAP2 SWAP1 SWAP2 ADD SWAP1 SWAP2 ADD MSTORE PUSH1 0x1E DUP2 PUSH1 0x1F DUP2 MLOAD DUP2 LT PUSH2 0x25BA JUMPI PUSH2 0x25BA PUSH2 0x78E7 JUMP JUMPDEST PUSH2 0xFFFF SWAP1 SWAP3 AND PUSH1 0x20 SWAP3 DUP4 MUL SWAP2 SWAP1 SWAP2 ADD DUP3 ADD MSTORE PUSH1 0x1E SWAP1 DUP3 SWAP1 DUP2 MLOAD DUP2 LT PUSH2 0x25E1 JUMPI PUSH2 0x25E1 PUSH2 0x78E7 JUMP JUMPDEST PUSH2 0xFFFF SWAP1 SWAP3 AND PUSH1 0x20 SWAP3 DUP4 MUL SWAP2 SWAP1 SWAP2 ADD SWAP1 SWAP2 ADD MSTORE PUSH1 0x1E DUP2 PUSH1 0x21 DUP2 MLOAD DUP2 LT PUSH2 0x2609 JUMPI PUSH2 0x2609 PUSH2 0x78E7 JUMP JUMPDEST PUSH2 0xFFFF SWAP1 SWAP3 AND PUSH1 0x20 SWAP3 DUP4 MUL SWAP2 SWAP1 SWAP2 ADD SWAP1 SWAP2 ADD MSTORE PUSH1 0x1E DUP2 PUSH1 0x22 DUP2 MLOAD DUP2 LT PUSH2 0x2631 JUMPI PUSH2 0x2631 PUSH2 0x78E7 JUMP JUMPDEST PUSH2 0xFFFF SWAP1 SWAP3 AND PUSH1 0x20 SWAP3 DUP4 MUL SWAP2 SWAP1 SWAP2 ADD SWAP1 SWAP2 ADD MSTORE PUSH1 0x1E DUP2 PUSH1 0x23 DUP2 MLOAD DUP2 LT PUSH2 0x2659 JUMPI PUSH2 0x2659 PUSH2 0x78E7 JUMP JUMPDEST PUSH2 0xFFFF SWAP1 SWAP3 AND PUSH1 0x20 SWAP3 DUP4 MUL SWAP2 SWAP1 SWAP2 ADD SWAP1 SWAP2 ADD MSTORE PUSH1 0xD0 DUP2 PUSH1 0x31 DUP2 MLOAD DUP2 LT PUSH2 0x2681 JUMPI PUSH2 0x2681 PUSH2 0x78E7 JUMP JUMPDEST PUSH2 0xFFFF SWAP1 SWAP3 AND PUSH1 0x20 SWAP3 DUP4 MUL SWAP2 SWAP1 SWAP2 ADD SWAP1 SWAP2 ADD MSTORE PUSH1 0x96 DUP2 PUSH1 0x34 DUP2 MLOAD DUP2 LT PUSH2 0x26A9 JUMPI PUSH2 0x26A9 PUSH2 0x78E7 JUMP JUMPDEST PUSH2 0xFFFF SWAP1 SWAP3 AND PUSH1 0x20 SWAP3 DUP4 MUL SWAP2 SWAP1 SWAP2 ADD SWAP1 SWAP2 ADD MSTORE PUSH1 0x78 DUP2 PUSH1 0x32 DUP2 MLOAD DUP2 LT PUSH2 0x26D1 JUMPI PUSH2 0x26D1 PUSH2 0x78E7 JUMP JUMPDEST PUSH2 0xFFFF SWAP1 SWAP3 AND PUSH1 0x20 SWAP3 DUP4 MUL SWAP2 SWAP1 SWAP2 ADD SWAP1 SWAP2 ADD MSTORE PUSH1 0x64 DUP2 PUSH1 0x35 DUP2 MLOAD DUP2 LT PUSH2 0x26F9 JUMPI PUSH2 0x26F9 PUSH2 0x78E7 JUMP JUMPDEST PUSH2 0xFFFF SWAP1 SWAP3 AND PUSH1 0x20 SWAP3 DUP4 MUL SWAP2 SWAP1 SWAP2 ADD SWAP1 SWAP2 ADD MSTORE PUSH1 0x3C DUP2 DUP2 DUP2 MLOAD DUP2 LT PUSH2 0x2720 JUMPI PUSH2 0x2720 PUSH2 0x78E7 JUMP JUMPDEST PUSH2 0xFFFF SWAP1 SWAP3 AND PUSH1 0x20 SWAP3 DUP4 MUL SWAP2 SWAP1 SWAP2 ADD SWAP1 SWAP2 ADD MSTORE PUSH1 0x1F DUP2 PUSH1 0x33 DUP2 MLOAD DUP2 LT PUSH2 0x2748 JUMPI PUSH2 0x2748 PUSH2 0x78E7 JUMP JUMPDEST PUSH2 0xFFFF SWAP1 SWAP3 AND PUSH1 0x20 SWAP3 DUP4 MUL SWAP2 SWAP1 SWAP2 ADD SWAP1 SWAP2 ADD MSTORE PUSH1 0x1F DUP2 PUSH1 0x36 DUP2 MLOAD DUP2 LT PUSH2 0x2770 JUMPI PUSH2 0x2770 PUSH2 0x78E7 JUMP JUMPDEST PUSH2 0xFFFF SWAP1 SWAP3 AND PUSH1 0x20 SWAP3 DUP4 MUL SWAP2 SWAP1 SWAP2 ADD SWAP1 SWAP2 ADD MSTORE PUSH1 0x1E DUP2 PUSH1 0x37 DUP2 MLOAD DUP2 LT PUSH2 0x2798 JUMPI PUSH2 0x2798 PUSH2 0x78E7 JUMP JUMPDEST PUSH2 0xFFFF SWAP1 SWAP3 AND PUSH1 0x20 SWAP3 DUP4 MUL SWAP2 SWAP1 SWAP2 ADD SWAP1 SWAP2 ADD MSTORE PUSH1 0x1E DUP2 PUSH1 0x38 DUP2 MLOAD DUP2 LT PUSH2 0x27C0 JUMPI PUSH2 0x27C0 PUSH2 0x78E7 JUMP JUMPDEST PUSH2 0xFFFF SWAP1 SWAP3 AND PUSH1 0x20 SWAP3 DUP4 MUL SWAP2 SWAP1 SWAP2 ADD SWAP1 SWAP2 ADD MSTORE PUSH1 0x1E DUP2 PUSH1 0x39 DUP2 MLOAD DUP2 LT PUSH2 0x27E8 JUMPI PUSH2 0x27E8 PUSH2 0x78E7 JUMP JUMPDEST PUSH2 0xFFFF SWAP1 SWAP3 AND PUSH1 0x20 SWAP3 DUP4 MUL SWAP2 SWAP1 SWAP2 ADD SWAP1 SWAP2 ADD MSTORE PUSH1 0x1E DUP2 PUSH1 0x3A DUP2 MLOAD DUP2 LT PUSH2 0x2810 JUMPI PUSH2 0x2810 PUSH2 0x78E7 JUMP JUMPDEST PUSH2 0xFFFF SWAP1 SWAP3 AND PUSH1 0x20 SWAP3 DUP4 MUL SWAP2 SWAP1 SWAP2 ADD SWAP1 SWAP2 ADD MSTORE PUSH1 0x1E DUP2 PUSH1 0x3B DUP2 MLOAD DUP2 LT PUSH2 0x2838 JUMPI PUSH2 0x2838 PUSH2 0x78E7 JUMP JUMPDEST PUSH2 0xFFFF SWAP1 SWAP3 AND PUSH1 0x20 SWAP3 DUP4 MUL SWAP2 SWAP1 SWAP2 ADD SWAP1 SWAP2 ADD MSTORE PUSH1 0x4B DUP2 PUSH1 0x6D DUP2 MLOAD DUP2 LT PUSH2 0x2860 JUMPI PUSH2 0x2860 PUSH2 0x78E7 JUMP JUMPDEST PUSH2 0xFFFF SWAP1 SWAP3 AND PUSH1 0x20 SWAP3 DUP4 MUL SWAP2 SWAP1 SWAP2 ADD SWAP1 SWAP2 ADD MSTORE PUSH1 0x41 DUP2 PUSH1 0x70 DUP2 MLOAD DUP2 LT PUSH2 0x2888 JUMPI PUSH2 0x2888 PUSH2 0x78E7 JUMP JUMPDEST PUSH2 0xFFFF SWAP1 SWAP3 AND PUSH1 0x20 SWAP3 DUP4 MUL SWAP2 SWAP1 SWAP2 ADD SWAP1 SWAP2 ADD MSTORE PUSH1 0x32 DUP2 PUSH1 0x6E DUP2 MLOAD DUP2 LT PUSH2 0x28B0 JUMPI PUSH2 0x28B0 PUSH2 0x78E7 JUMP JUMPDEST PUSH2 0xFFFF SWAP1 SWAP3 AND PUSH1 0x20 SWAP3 DUP4 MUL SWAP2 SWAP1 SWAP2 ADD SWAP1 SWAP2 ADD MSTORE PUSH1 0x2D DUP2 PUSH1 0x71 DUP2 MLOAD DUP2 LT PUSH2 0x28D8 JUMPI PUSH2 0x28D8 PUSH2 0x78E7 JUMP JUMPDEST PUSH2 0xFFFF SWAP1 SWAP3 AND PUSH1 0x20 SWAP3 DUP4 MUL SWAP2 SWAP1 SWAP2 ADD SWAP1 SWAP2 ADD MSTORE PUSH1 0x1C DUP2 PUSH1 0x78 DUP2 MLOAD DUP2 LT PUSH2 0x2900 JUMPI PUSH2 0x2900 PUSH2 0x78E7 JUMP JUMPDEST PUSH2 0xFFFF SWAP1 SWAP3 AND PUSH1 0x20 SWAP3 DUP4 MUL SWAP2 SWAP1 SWAP2 ADD SWAP1 SWAP2 ADD MSTORE PUSH1 0xD DUP2 PUSH1 0x6F DUP2 MLOAD DUP2 LT PUSH2 0x2928 JUMPI PUSH2 0x2928 PUSH2 0x78E7 JUMP JUMPDEST PUSH2 0xFFFF SWAP1 SWAP3 AND PUSH1 0x20 SWAP3 DUP4 MUL SWAP2 SWAP1 SWAP2 ADD SWAP1 SWAP2 ADD MSTORE PUSH1 0xD DUP2 PUSH1 0x72 DUP2 MLOAD DUP2 LT PUSH2 0x2950 JUMPI PUSH2 0x2950 PUSH2 0x78E7 JUMP JUMPDEST PUSH2 0xFFFF SWAP1 SWAP3 AND PUSH1 0x20 SWAP3 DUP4 MUL SWAP2 SWAP1 SWAP2 ADD SWAP1 SWAP2 ADD MSTORE PUSH1 0xD DUP2 PUSH1 0x73 DUP2 MLOAD DUP2 LT PUSH2 0x2978 JUMPI PUSH2 0x2978 PUSH2 0x78E7 JUMP JUMPDEST PUSH2 0xFFFF SWAP1 SWAP3 AND PUSH1 0x20 SWAP3 DUP4 MUL SWAP2 SWAP1 SWAP2 ADD SWAP1 SWAP2 ADD MSTORE PUSH1 0xC DUP2 PUSH1 0x74 DUP2 MLOAD DUP2 LT PUSH2 0x29A0 JUMPI PUSH2 0x29A0 PUSH2 0x78E7 JUMP JUMPDEST PUSH2 0xFFFF SWAP1 SWAP3 AND PUSH1 0x20 SWAP3 DUP4 MUL SWAP2 SWAP1 SWAP2 ADD SWAP1 SWAP2 ADD MSTORE PUSH1 0xC DUP2 PUSH1 0x75 DUP2 MLOAD DUP2 LT PUSH2 0x29C8 JUMPI PUSH2 0x29C8 PUSH2 0x78E7 JUMP JUMPDEST PUSH2 0xFFFF SWAP1 SWAP3 AND PUSH1 0x20 SWAP3 DUP4 MUL SWAP2 SWAP1 SWAP2 ADD SWAP1 SWAP2 ADD MSTORE PUSH1 0xC DUP2 PUSH1 0x76 DUP2 MLOAD DUP2 LT PUSH2 0x29F0 JUMPI PUSH2 0x29F0 PUSH2 0x78E7 JUMP JUMPDEST PUSH2 0xFFFF SWAP1 SWAP3 AND PUSH1 0x20 SWAP3 DUP4 MUL SWAP2 SWAP1 SWAP2 ADD SWAP1 SWAP2 ADD MSTORE PUSH1 0xC DUP2 PUSH1 0x77 DUP2 MLOAD DUP2 LT PUSH2 0x2A18 JUMPI PUSH2 0x2A18 PUSH2 0x78E7 JUMP JUMPDEST PUSH2 0xFFFF SWAP1 SWAP3 AND PUSH1 0x20 SWAP3 DUP4 MUL SWAP2 SWAP1 SWAP2 ADD SWAP1 SWAP2 ADD MSTORE PUSH1 0x4B DUP2 PUSH1 0x55 DUP2 MLOAD DUP2 LT PUSH2 0x2A40 JUMPI PUSH2 0x2A40 PUSH2 0x78E7 JUMP JUMPDEST PUSH2 0xFFFF SWAP1 SWAP3 AND PUSH1 0x20 SWAP3 DUP4 MUL SWAP2 SWAP1 SWAP2 ADD SWAP1 SWAP2 ADD MSTORE PUSH1 0x41 DUP2 PUSH1 0x58 DUP2 MLOAD DUP2 LT PUSH2 0x2A68 JUMPI PUSH2 0x2A68 PUSH2 0x78E7 JUMP JUMPDEST PUSH2 0xFFFF SWAP1 SWAP3 AND PUSH1 0x20 SWAP3 DUP4 MUL SWAP2 SWAP1 SWAP2 ADD SWAP1 SWAP2 ADD MSTORE PUSH1 0x32 DUP2 PUSH1 0x56 DUP2 MLOAD DUP2 LT PUSH2 0x2A90 JUMPI PUSH2 0x2A90 PUSH2 0x78E7 JUMP JUMPDEST PUSH2 0xFFFF SWAP1 SWAP3 AND PUSH1 0x20 SWAP3 DUP4 MUL SWAP2 SWAP1 SWAP2 ADD SWAP1 SWAP2 ADD MSTORE PUSH1 0x2D DUP2 PUSH1 0x59 DUP2 MLOAD DUP2 LT PUSH2 0x2AB8 JUMPI PUSH2 0x2AB8 PUSH2 0x78E7 JUMP JUMPDEST PUSH2 0xFFFF SWAP1 SWAP3 AND PUSH1 0x20 SWAP3 DUP4 MUL SWAP2 SWAP1 SWAP2 ADD SWAP1 SWAP2 ADD MSTORE PUSH1 0x1C DUP2 PUSH1 0x60 DUP2 MLOAD DUP2 LT PUSH2 0x2AE0 JUMPI PUSH2 0x2AE0 PUSH2 0x78E7 JUMP JUMPDEST PUSH2 0xFFFF SWAP1 SWAP3 AND PUSH1 0x20 SWAP3 DUP4 MUL SWAP2 SWAP1 SWAP2 ADD SWAP1 SWAP2 ADD MSTORE PUSH1 0xD DUP2 PUSH1 0x57 DUP2 MLOAD DUP2 LT PUSH2 0x2B08 JUMPI PUSH2 0x2B08 PUSH2 0x78E7 JUMP JUMPDEST PUSH2 0xFFFF SWAP1 SWAP3 AND PUSH1 0x20 SWAP3 DUP4 MUL SWAP2 SWAP1 SWAP2 ADD SWAP1 SWAP2 ADD MSTORE PUSH1 0xD DUP2 PUSH1 0x5A DUP2 MLOAD DUP2 LT PUSH2 0x2B30 JUMPI PUSH2 0x2B30 PUSH2 0x78E7 JUMP JUMPDEST PUSH2 0xFFFF SWAP1 SWAP3 AND PUSH1 0x20 SWAP3 DUP4 MUL SWAP2 SWAP1 SWAP2 ADD SWAP1 SWAP2 ADD MSTORE PUSH1 0xD DUP2 PUSH1 0x5B DUP2 MLOAD DUP2 LT PUSH2 0x2B58 JUMPI PUSH2 0x2B58 PUSH2 0x78E7 JUMP JUMPDEST PUSH2 0xFFFF SWAP1 SWAP3 AND PUSH1 0x20 SWAP3 DUP4 MUL SWAP2 SWAP1 SWAP2 ADD SWAP1 SWAP2 ADD MSTORE PUSH1 0xC DUP2 PUSH1 0x5C DUP2 MLOAD DUP2 LT PUSH2 0x2B80 JUMPI PUSH2 0x2B80 PUSH2 0x78E7 JUMP JUMPDEST PUSH2 0xFFFF SWAP1 SWAP3 AND PUSH1 0x20 SWAP3 DUP4 MUL SWAP2 SWAP1 SWAP2 ADD SWAP1 SWAP2 ADD MSTORE PUSH1 0xC DUP2 PUSH1 0x5D DUP2 MLOAD DUP2 LT PUSH2 0x2BA8 JUMPI PUSH2 0x2BA8 PUSH2 0x78E7 JUMP JUMPDEST PUSH2 0xFFFF SWAP1 SWAP3 AND PUSH1 0x20 SWAP3 DUP4 MUL SWAP2 SWAP1 SWAP2 ADD SWAP1 SWAP2 ADD MSTORE PUSH1 0xC DUP2 PUSH1 0x5E DUP2 MLOAD DUP2 LT PUSH2 0x2BD0 JUMPI PUSH2 0x2BD0 PUSH2 0x78E7 JUMP JUMPDEST PUSH2 0xFFFF SWAP1 SWAP3 AND PUSH1 0x20 SWAP3 DUP4 MUL SWAP2 SWAP1 SWAP2 ADD SWAP1 SWAP2 ADD MSTORE PUSH1 0xC DUP2 PUSH1 0x5F DUP2 MLOAD DUP2 LT PUSH2 0x2BF8 JUMPI PUSH2 0x2BF8 PUSH2 0x78E7 JUMP JUMPDEST PUSH2 0xFFFF SWAP1 SWAP3 AND PUSH1 0x20 SWAP3 DUP4 MUL SWAP2 SWAP1 SWAP2 ADD SWAP1 SWAP2 ADD MSTORE PUSH1 0x4B DUP2 PUSH1 0x25 DUP2 MLOAD DUP2 LT PUSH2 0x2C20 JUMPI PUSH2 0x2C20 PUSH2 0x78E7 JUMP JUMPDEST PUSH2 0xFFFF SWAP1 SWAP3 AND PUSH1 0x20 SWAP3 DUP4 MUL SWAP2 SWAP1 SWAP2 ADD SWAP1 SWAP2 ADD MSTORE PUSH1 0x41 DUP2 PUSH1 0x28 DUP2 MLOAD DUP2 LT PUSH2 0x2C48 JUMPI PUSH2 0x2C48 PUSH2 0x78E7 JUMP JUMPDEST PUSH2 0xFFFF SWAP1 SWAP3 AND PUSH1 0x20 SWAP3 DUP4 MUL SWAP2 SWAP1 SWAP2 ADD SWAP1 SWAP2 ADD MSTORE PUSH1 0x32 DUP2 PUSH1 0x26 DUP2 MLOAD DUP2 LT PUSH2 0x2C70 JUMPI PUSH2 0x2C70 PUSH2 0x78E7 JUMP JUMPDEST PUSH2 0xFFFF SWAP1 SWAP3 AND PUSH1 0x20 SWAP3 DUP4 MUL SWAP2 SWAP1 SWAP2 ADD SWAP1 SWAP2 ADD MSTORE PUSH1 0x2D DUP2 PUSH1 0x29 DUP2 MLOAD DUP2 LT PUSH2 0x2C98 JUMPI PUSH2 0x2C98 PUSH2 0x78E7 JUMP JUMPDEST PUSH2 0xFFFF SWAP1 SWAP3 AND PUSH1 0x20 SWAP3 DUP4 MUL SWAP2 SWAP1 SWAP2 ADD SWAP1 SWAP2 ADD MSTORE PUSH1 0x1C DUP2 PUSH1 0x30 DUP2 MLOAD DUP2 LT PUSH2 0x2CC0 JUMPI PUSH2 0x2CC0 PUSH2 0x78E7 JUMP JUMPDEST PUSH2 0xFFFF SWAP1 SWAP3 AND PUSH1 0x20 SWAP3 DUP4 MUL SWAP2 SWAP1 SWAP2 ADD SWAP1 SWAP2 ADD MSTORE PUSH1 0xD DUP2 PUSH1 0x27 DUP2 MLOAD DUP2 LT PUSH2 0x2CE8 JUMPI PUSH2 0x2CE8 PUSH2 0x78E7 JUMP JUMPDEST PUSH2 0xFFFF SWAP1 SWAP3 AND PUSH1 0x20 SWAP3 DUP4 MUL SWAP2 SWAP1 SWAP2 ADD SWAP1 SWAP2 ADD MSTORE PUSH1 0xD DUP2 PUSH1 0x2A DUP2 MLOAD DUP2 LT PUSH2 0x2D10 JUMPI PUSH2 0x2D10 PUSH2 0x78E7 JUMP JUMPDEST PUSH2 0xFFFF SWAP1 SWAP3 AND PUSH1 0x20 SWAP3 DUP4 MUL SWAP2 SWAP1 SWAP2 ADD SWAP1 SWAP2 ADD MSTORE PUSH1 0xD DUP2 PUSH1 0x2B DUP2 MLOAD DUP2 LT PUSH2 0x2D38 JUMPI PUSH2 0x2D38 PUSH2 0x78E7 JUMP JUMPDEST PUSH2 0xFFFF SWAP1 SWAP3 AND PUSH1 0x20 SWAP3 DUP4 MUL SWAP2 SWAP1 SWAP2 ADD SWAP1 SWAP2 ADD MSTORE PUSH1 0xC DUP2 PUSH1 0x2C DUP2 MLOAD DUP2 LT PUSH2 0x2D60 JUMPI PUSH2 0x2D60 PUSH2 0x78E7 JUMP JUMPDEST PUSH2 0xFFFF SWAP1 SWAP3 AND PUSH1 0x20 SWAP3 DUP4 MUL SWAP2 SWAP1 SWAP2 ADD SWAP1 SWAP2 ADD MSTORE PUSH1 0xC DUP2 PUSH1 0x2D DUP2 MLOAD DUP2 LT PUSH2 0x2D88 JUMPI PUSH2 0x2D88 PUSH2 0x78E7 JUMP JUMPDEST PUSH2 0xFFFF SWAP1 SWAP3 AND PUSH1 0x20 SWAP3 DUP4 MUL SWAP2 SWAP1 SWAP2 ADD SWAP1 SWAP2 ADD MSTORE PUSH1 0xC DUP2 PUSH1 0x2E DUP2 MLOAD DUP2 LT PUSH2 0x2DB0 JUMPI PUSH2 0x2DB0 PUSH2 0x78E7 JUMP JUMPDEST PUSH2 0xFFFF SWAP1 SWAP3 AND PUSH1 0x20 SWAP3 DUP4 MUL SWAP2 SWAP1 SWAP2 ADD SWAP1 SWAP2 ADD MSTORE PUSH1 0xC DUP2 PUSH1 0x2F DUP2 MLOAD DUP2 LT PUSH2 0x2DD8 JUMPI PUSH2 0x2DD8 PUSH2 0x78E7 JUMP JUMPDEST PUSH2 0xFFFF SWAP1 SWAP3 AND PUSH1 0x20 SWAP3 DUP4 MUL SWAP2 SWAP1 SWAP2 ADD SWAP1 SWAP2 ADD MSTORE PUSH1 0x4B DUP2 PUSH1 0x79 DUP2 MLOAD DUP2 LT PUSH2 0x2E00 JUMPI PUSH2 0x2E00 PUSH2 0x78E7 JUMP JUMPDEST PUSH2 0xFFFF SWAP1 SWAP3 AND PUSH1 0x20 SWAP3 DUP4 MUL SWAP2 SWAP1 SWAP2 ADD SWAP1 SWAP2 ADD MSTORE PUSH1 0x41 DUP2 PUSH1 0x7C DUP2 MLOAD DUP2 LT PUSH2 0x2E28 JUMPI PUSH2 0x2E28 PUSH2 0x78E7 JUMP JUMPDEST PUSH2 0xFFFF SWAP1 SWAP3 AND PUSH1 0x20 SWAP3 DUP4 MUL SWAP2 SWAP1 SWAP2 ADD SWAP1 SWAP2 ADD MSTORE PUSH1 0x32 DUP2 PUSH1 0x7A DUP2 MLOAD DUP2 LT PUSH2 0x2E50 JUMPI PUSH2 0x2E50 PUSH2 0x78E7 JUMP JUMPDEST PUSH2 0xFFFF SWAP1 SWAP3 AND PUSH1 0x20 SWAP3 DUP4 MUL SWAP2 SWAP1 SWAP2 ADD SWAP1 SWAP2 ADD MSTORE PUSH1 0x2D DUP2 PUSH1 0x7D DUP2 MLOAD DUP2 LT PUSH2 0x2E78 JUMPI PUSH2 0x2E78 PUSH2 0x78E7 JUMP JUMPDEST PUSH2 0xFFFF SWAP1 SWAP3 AND PUSH1 0x20 SWAP3 DUP4 MUL SWAP2 SWAP1 SWAP2 ADD SWAP1 SWAP2 ADD MSTORE PUSH1 0x1C DUP2 PUSH1 0x84 DUP2 MLOAD DUP2 LT PUSH2 0x2EA0 JUMPI PUSH2 0x2EA0 PUSH2 0x78E7 JUMP JUMPDEST PUSH2 0xFFFF SWAP1 SWAP3 AND PUSH1 0x20 SWAP3 DUP4 MUL SWAP2 SWAP1 SWAP2 ADD SWAP1 SWAP2 ADD MSTORE PUSH1 0xD DUP2 PUSH1 0x7B DUP2 MLOAD DUP2 LT PUSH2 0x2EC8 JUMPI PUSH2 0x2EC8 PUSH2 0x78E7 JUMP JUMPDEST PUSH2 0xFFFF SWAP1 SWAP3 AND PUSH1 0x20 SWAP3 DUP4 MUL SWAP2 SWAP1 SWAP2 ADD SWAP1 SWAP2 ADD MSTORE PUSH1 0xD DUP2 PUSH1 0x7E DUP2 MLOAD DUP2 LT PUSH2 0x2EF0 JUMPI PUSH2 0x2EF0 PUSH2 0x78E7 JUMP JUMPDEST PUSH2 0xFFFF SWAP1 SWAP3 AND PUSH1 0x20 SWAP3 DUP4 MUL SWAP2 SWAP1 SWAP2 ADD SWAP1 SWAP2 ADD MSTORE PUSH1 0xD DUP2 PUSH1 0x7F DUP2 MLOAD DUP2 LT PUSH2 0x2F18 JUMPI PUSH2 0x2F18 PUSH2 0x78E7 JUMP JUMPDEST PUSH2 0xFFFF SWAP1 SWAP3 AND PUSH1 0x20 SWAP3 DUP4 MUL SWAP2 SWAP1 SWAP2 ADD SWAP1 SWAP2 ADD MSTORE PUSH1 0xC DUP2 PUSH1 0x80 DUP2 MLOAD DUP2 LT PUSH2 0x2F40 JUMPI PUSH2 0x2F40 PUSH2 0x78E7 JUMP JUMPDEST PUSH2 0xFFFF SWAP1 SWAP3 AND PUSH1 0x20 SWAP3 DUP4 MUL SWAP2 SWAP1 SWAP2 ADD SWAP1 SWAP2 ADD MSTORE PUSH1 0xC DUP2 PUSH1 0x81 DUP2 MLOAD DUP2 LT PUSH2 0x2F68 JUMPI PUSH2 0x2F68 PUSH2 0x78E7 JUMP JUMPDEST PUSH2 0xFFFF SWAP1 SWAP3 AND PUSH1 0x20 SWAP3 DUP4 MUL SWAP2 SWAP1 SWAP2 ADD SWAP1 SWAP2 ADD MSTORE PUSH1 0xC DUP2 PUSH1 0x82 DUP2 MLOAD DUP2 LT PUSH2 0x2F90 JUMPI PUSH2 0x2F90 PUSH2 0x78E7 JUMP JUMPDEST PUSH2 0xFFFF SWAP1 SWAP3 AND PUSH1 0x20 SWAP3 DUP4 MUL SWAP2 SWAP1 SWAP2 ADD SWAP1 SWAP2 ADD MSTORE PUSH1 0xC DUP2 PUSH1 0x83 DUP2 MLOAD DUP2 LT PUSH2 0x2FB8 JUMPI PUSH2 0x2FB8 PUSH2 0x78E7 JUMP JUMPDEST PUSH2 0xFFFF SWAP1 SWAP3 AND PUSH1 0x20 SWAP3 DUP4 MUL SWAP2 SWAP1 SWAP2 ADD SWAP1 SWAP2 ADD MSTORE PUSH1 0x4B DUP2 PUSH1 0x3D DUP2 MLOAD DUP2 LT PUSH2 0x2FE0 JUMPI PUSH2 0x2FE0 PUSH2 0x78E7 JUMP JUMPDEST PUSH2 0xFFFF SWAP1 SWAP3 AND PUSH1 0x20 SWAP3 DUP4 MUL SWAP2 SWAP1 SWAP2 ADD SWAP1 SWAP2 ADD MSTORE PUSH1 0x37 DUP2 PUSH1 0x40 DUP2 MLOAD DUP2 LT PUSH2 0x3008 JUMPI PUSH2 0x3008 PUSH2 0x78E7 JUMP JUMPDEST PUSH2 0xFFFF SWAP1 SWAP3 AND PUSH1 0x20 SWAP3 DUP4 MUL SWAP2 SWAP1 SWAP2 ADD SWAP1 SWAP2 ADD MSTORE PUSH1 0x2D DUP2 PUSH1 0x3E DUP2 MLOAD DUP2 LT PUSH2 0x3030 JUMPI PUSH2 0x3030 PUSH2 0x78E7 JUMP JUMPDEST PUSH2 0xFFFF SWAP1 SWAP3 AND PUSH1 0x20 SWAP3 DUP4 MUL SWAP2 SWAP1 SWAP2 ADD SWAP1 SWAP2 ADD MSTORE PUSH1 0x23 DUP2 PUSH1 0x41 DUP2 MLOAD DUP2 LT PUSH2 0x3058 JUMPI PUSH2 0x3058 PUSH2 0x78E7 JUMP JUMPDEST PUSH2 0xFFFF SWAP1 SWAP3 AND PUSH1 0x20 SWAP3 DUP4 MUL SWAP2 SWAP1 SWAP2 ADD SWAP1 SWAP2 ADD MSTORE PUSH1 0xF DUP2 PUSH1 0x48 DUP2 MLOAD DUP2 LT PUSH2 0x3080 JUMPI PUSH2 0x3080 PUSH2 0x78E7 JUMP JUMPDEST PUSH2 0xFFFF SWAP1 SWAP3 AND PUSH1 0x20 SWAP3 DUP4 MUL SWAP2 SWAP1 SWAP2 ADD SWAP1 SWAP2 ADD MSTORE PUSH1 0xB DUP2 PUSH1 0x3F DUP2 MLOAD DUP2 LT PUSH2 0x30A8 JUMPI PUSH2 0x30A8 PUSH2 0x78E7 JUMP JUMPDEST PUSH2 0xFFFF SWAP1 SWAP3 AND PUSH1 0x20 SWAP3 DUP4 MUL SWAP2 SWAP1 SWAP2 ADD SWAP1 SWAP2 ADD MSTORE PUSH1 0xB DUP2 PUSH1 0x42 DUP2 MLOAD DUP2 LT PUSH2 0x30D0 JUMPI PUSH2 0x30D0 PUSH2 0x78E7 JUMP JUMPDEST PUSH2 0xFFFF SWAP1 SWAP3 AND PUSH1 0x20 SWAP3 DUP4 MUL SWAP2 SWAP1 SWAP2 ADD SWAP1 SWAP2 ADD MSTORE PUSH1 0xB DUP2 PUSH1 0x43 DUP2 MLOAD DUP2 LT PUSH2 0x30F8 JUMPI PUSH2 0x30F8 PUSH2 0x78E7 JUMP JUMPDEST PUSH2 0xFFFF SWAP1 SWAP3 AND PUSH1 0x20 SWAP3 DUP4 MUL SWAP2 SWAP1 SWAP2 ADD SWAP1 SWAP2 ADD MSTORE PUSH1 0xB DUP2 PUSH1 0x44 DUP2 MLOAD DUP2 LT PUSH2 0x3120 JUMPI PUSH2 0x3120 PUSH2 0x78E7 JUMP JUMPDEST PUSH2 0xFFFF SWAP1 SWAP3 AND PUSH1 0x20 SWAP3 DUP4 MUL SWAP2 SWAP1 SWAP2 ADD SWAP1 SWAP2 ADD MSTORE PUSH1 0xB DUP2 PUSH1 0x45 DUP2 MLOAD DUP2 LT PUSH2 0x3148 JUMPI PUSH2 0x3148 PUSH2 0x78E7 JUMP JUMPDEST PUSH2 0xFFFF SWAP1 SWAP3 AND PUSH1 0x20 SWAP3 DUP4 MUL SWAP2 SWAP1 SWAP2 ADD SWAP1 SWAP2 ADD MSTORE PUSH1 0xA DUP2 PUSH1 0x46 DUP2 MLOAD DUP2 LT PUSH2 0x3170 JUMPI PUSH2 0x3170 PUSH2 0x78E7 JUMP JUMPDEST PUSH2 0xFFFF SWAP1 SWAP3 AND PUSH1 0x20 SWAP3 DUP4 MUL SWAP2 SWAP1 SWAP2 ADD SWAP1 SWAP2 ADD MSTORE PUSH1 0xA DUP2 PUSH1 0x47 DUP2 MLOAD DUP2 LT PUSH2 0x3198 JUMPI PUSH2 0x3198 PUSH2 0x78E7 JUMP JUMPDEST PUSH1 0x20 MUL PUSH1 0x20 ADD ADD SWAP1 PUSH2 0xFFFF AND SWAP1 DUP2 PUSH2 0xFFFF AND DUP2 MSTORE POP POP PUSH0 PUSH2 0x31B9 DUP5 DUP4 PUSH2 0x7494 JUMP JUMPDEST SWAP1 POP DUP1 PUSH1 0x84 DUP2 GT ISZERO PUSH2 0x31CD JUMPI PUSH2 0x31CD PUSH2 0x77A8 JUMP JUMPDEST SWAP3 POP POP POP JUMPDEST SWAP3 SWAP2 POP POP JUMP JUMPDEST PUSH1 0x40 DUP1 MLOAD PUSH1 0x1F DUP1 DUP3 MSTORE PUSH2 0x400 DUP3 ADD SWAP1 SWAP3 MSTORE PUSH0 SWAP2 DUP3 SWAP2 SWAP1 PUSH1 0x20 DUP3 ADD PUSH2 0x3E0 DUP1 CALLDATASIZE DUP4 CALLDATACOPY ADD SWAP1 POP POP SWAP1 POP PUSH2 0x3210 PUSH2 0x320B DUP6 PUSH2 0x7B89 JUMP JUMPDEST PUSH2 0x7574 JUMP JUMPDEST ISZERO PUSH2 0x326F JUMPI PUSH2 0x1388 DUP2 PUSH1 0x15 DUP2 MLOAD DUP2 LT PUSH2 0x322B JUMPI PUSH2 0x322B PUSH2 0x78E7 JUMP JUMPDEST PUSH2 0xFFFF SWAP1 SWAP3 AND PUSH1 0x20 SWAP3 DUP4 MUL SWAP2 SWAP1 SWAP2 ADD SWAP1 SWAP2 ADD MSTORE PUSH2 0x1388 DUP2 PUSH1 0x16 DUP2 MLOAD DUP2 LT PUSH2 0x3254 JUMPI PUSH2 0x3254 PUSH2 0x78E7 JUMP JUMPDEST PUSH1 0x20 MUL PUSH1 0x20 ADD ADD SWAP1 PUSH2 0xFFFF AND SWAP1 DUP2 PUSH2 0xFFFF AND DUP2 MSTORE POP POP PUSH2 0x36FB JUMP JUMPDEST PUSH0 DUP2 DUP2 DUP2 MLOAD DUP2 LT PUSH2 0x3282 JUMPI PUSH2 0x3282 PUSH2 0x78E7 JUMP JUMPDEST PUSH2 0xFFFF SWAP1 SWAP3 AND PUSH1 0x20 SWAP3 DUP4 MUL SWAP2 SWAP1 SWAP2 ADD SWAP1 SWAP2 ADD MSTORE PUSH2 0x101D DUP2 PUSH1 0x17 DUP2 MLOAD DUP2 LT PUSH2 0x32AB JUMPI PUSH2 0x32AB PUSH2 0x78E7 JUMP JUMPDEST PUSH2 0xFFFF SWAP1 SWAP3 AND PUSH1 0x20 SWAP3 DUP4 MUL SWAP2 SWAP1 SWAP2 ADD SWAP1 SWAP2 ADD MSTORE PUSH2 0x101D DUP2 PUSH1 0x1A DUP2 MLOAD DUP2 LT PUSH2 0x32D4 JUMPI PUSH2 0x32D4 PUSH2 0x78E7 JUMP JUMPDEST PUSH2 0xFFFF SWAP1 SWAP3 AND PUSH1 0x20 SWAP3 DUP4 MUL SWAP2 SWAP1 SWAP2 ADD SWAP1 SWAP2 ADD MSTORE PUSH2 0x1F4 DUP2 PUSH1 0x1C DUP2 MLOAD DUP2 LT PUSH2 0x32FD JUMPI PUSH2 0x32FD PUSH2 0x78E7 JUMP JUMPDEST PUSH2 0xFFFF SWAP1 SWAP3 AND PUSH1 0x20 SWAP3 DUP4 MUL SWAP2 SWAP1 SWAP2 ADD SWAP1 SWAP2 ADD MSTORE PUSH2 0x1F4 DUP2 PUSH1 0x1D DUP2 MLOAD DUP2 LT PUSH2 0x3326 JUMPI PUSH2 0x3326 PUSH2 0x78E7 JUMP JUMPDEST PUSH2 0xFFFF SWAP1 SWAP3 AND PUSH1 0x20 SWAP3 DUP4 MUL SWAP2 SWAP1 SWAP2 ADD SWAP1 SWAP2 ADD MSTORE PUSH1 0xFA DUP2 PUSH1 0xC DUP2 MLOAD DUP2 LT PUSH2 0x334E JUMPI PUSH2 0x334E PUSH2 0x78E7 JUMP JUMPDEST PUSH2 0xFFFF SWAP1 SWAP3 AND PUSH1 0x20 SWAP3 DUP4 MUL SWAP2 SWAP1 SWAP2 ADD SWAP1 SWAP2 ADD MSTORE PUSH1 0x7D DUP2 PUSH1 0x1B DUP2 MLOAD DUP2 LT PUSH2 0x3376 JUMPI PUSH2 0x3376 PUSH2 0x78E7 JUMP JUMPDEST PUSH2 0xFFFF SWAP1 SWAP3 AND PUSH1 0x20 SWAP3 DUP4 MUL SWAP2 SWAP1 SWAP2 ADD SWAP1 SWAP2 ADD MSTORE PUSH1 0x64 DUP2 PUSH1 0x2 DUP2 MLOAD DUP2 LT PUSH2 0x339E JUMPI PUSH2 0x339E PUSH2 0x78E7 JUMP JUMPDEST PUSH2 0xFFFF SWAP1 SWAP3 AND PUSH1 0x20 SWAP3 DUP4 MUL SWAP2 SWAP1 SWAP2 ADD SWAP1 SWAP2 ADD MSTORE PUSH1 0x4B DUP2 PUSH1 0x1E DUP2 MLOAD DUP2 LT PUSH2 0x33C6 JUMPI PUSH2 0x33C6 PUSH2 0x78E7 JUMP JUMPDEST PUSH2 0xFFFF SWAP1 SWAP3 AND PUSH1 0x20 SWAP3 DUP4 MUL SWAP2 SWAP1 SWAP2 ADD SWAP1 SWAP2 ADD MSTORE PUSH1 0x32 DUP2 PUSH1 0x1 DUP2 MLOAD DUP2 LT PUSH2 0x33EE JUMPI PUSH2 0x33EE PUSH2 0x78E7 JUMP JUMPDEST PUSH2 0xFFFF SWAP1 SWAP3 AND PUSH1 0x20 SWAP3 DUP4 MUL SWAP2 SWAP1 SWAP2 ADD SWAP1 SWAP2 ADD MSTORE PUSH1 0x1E DUP2 PUSH1 0xD DUP2 MLOAD DUP2 LT PUSH2 0x3416 JUMPI PUSH2 0x3416 PUSH2 0x78E7 JUMP JUMPDEST PUSH2 0xFFFF SWAP1 SWAP3 AND PUSH1 0x20 SWAP3 DUP4 MUL SWAP2 SWAP1 SWAP2 ADD SWAP1 SWAP2 ADD MSTORE PUSH1 0x1E DUP2 PUSH1 0xE DUP2 MLOAD DUP2 LT PUSH2 0x343E JUMPI PUSH2 0x343E PUSH2 0x78E7 JUMP JUMPDEST PUSH2 0xFFFF SWAP1 SWAP3 AND PUSH1 0x20 SWAP3 DUP4 MUL SWAP2 SWAP1 SWAP2 ADD SWAP1 SWAP2 ADD MSTORE PUSH1 0x1E DUP2 PUSH1 0xF DUP2 MLOAD DUP2 LT PUSH2 0x3466 JUMPI PUSH2 0x3466 PUSH2 0x78E7 JUMP JUMPDEST PUSH2 0xFFFF SWAP1 SWAP3 AND PUSH1 0x20 SWAP3 DUP4 MUL SWAP2 SWAP1 SWAP2 ADD SWAP1 SWAP2 ADD MSTORE PUSH1 0x1E DUP2 PUSH1 0x10 DUP2 MLOAD DUP2 LT PUSH2 0x348E JUMPI PUSH2 0x348E PUSH2 0x78E7 JUMP JUMPDEST PUSH2 0xFFFF SWAP1 SWAP3 AND PUSH1 0x20 SWAP3 DUP4 MUL SWAP2 SWAP1 SWAP2 ADD SWAP1 SWAP2 ADD MSTORE PUSH1 0x1E DUP2 PUSH1 0x11 DUP2 MLOAD DUP2 LT PUSH2 0x34B6 JUMPI PUSH2 0x34B6 PUSH2 0x78E7 JUMP JUMPDEST PUSH2 0xFFFF SWAP1 SWAP3 AND PUSH1 0x20 SWAP3 DUP4 MUL SWAP2 SWAP1 SWAP2 ADD SWAP1 SWAP2 ADD MSTORE PUSH1 0x1E DUP2 PUSH1 0x12 DUP2 MLOAD DUP2 LT PUSH2 0x34DE JUMPI PUSH2 0x34DE PUSH2 0x78E7 JUMP JUMPDEST PUSH2 0xFFFF SWAP1 SWAP3 AND PUSH1 0x20 SWAP3 DUP4 MUL SWAP2 SWAP1 SWAP2 ADD SWAP1 SWAP2 ADD MSTORE PUSH1 0x1E DUP2 PUSH1 0x13 DUP2 MLOAD DUP2 LT PUSH2 0x3506 JUMPI PUSH2 0x3506 PUSH2 0x78E7 JUMP JUMPDEST PUSH2 0xFFFF SWAP1 SWAP3 AND PUSH1 0x20 SWAP3 DUP4 MUL SWAP2 SWAP1 SWAP2 ADD SWAP1 SWAP2 ADD MSTORE PUSH1 0x1E DUP2 PUSH1 0x14 DUP2 MLOAD DUP2 LT PUSH2 0x352E JUMPI PUSH2 0x352E PUSH2 0x78E7 JUMP JUMPDEST PUSH2 0xFFFF SWAP1 SWAP3 AND PUSH1 0x20 SWAP3 DUP4 MUL SWAP2 SWAP1 SWAP2 ADD SWAP1 SWAP2 ADD MSTORE PUSH1 0xB DUP2 PUSH1 0x3 DUP2 MLOAD DUP2 LT PUSH2 0x3556 JUMPI PUSH2 0x3556 PUSH2 0x78E7 JUMP JUMPDEST PUSH2 0xFFFF SWAP1 SWAP3 AND PUSH1 0x20 SWAP3 DUP4 MUL SWAP2 SWAP1 SWAP2 ADD SWAP1 SWAP2 ADD MSTORE PUSH1 0xB DUP2 PUSH1 0x4 DUP2 MLOAD DUP2 LT PUSH2 0x357E JUMPI PUSH2 0x357E PUSH2 0x78E7 JUMP JUMPDEST PUSH2 0xFFFF SWAP1 SWAP3 AND PUSH1 0x20 SWAP3 DUP4 MUL SWAP2 SWAP1 SWAP2 ADD SWAP1 SWAP2 ADD MSTORE PUSH1 0xB DUP2 PUSH1 0x5 DUP2 MLOAD DUP2 LT PUSH2 0x35A6 JUMPI PUSH2 0x35A6 PUSH2 0x78E7 JUMP JUMPDEST PUSH2 0xFFFF SWAP1 SWAP3 AND PUSH1 0x20 SWAP3 DUP4 MUL SWAP2 SWAP1 SWAP2 ADD SWAP1 SWAP2 ADD MSTORE PUSH1 0xB DUP2 PUSH1 0x6 DUP2 MLOAD DUP2 LT PUSH2 0x35CE JUMPI PUSH2 0x35CE PUSH2 0x78E7 JUMP JUMPDEST PUSH2 0xFFFF SWAP1 SWAP3 AND PUSH1 0x20 SWAP3 DUP4 MUL SWAP2 SWAP1 SWAP2 ADD SWAP1 SWAP2 ADD MSTORE PUSH1 0xB DUP2 PUSH1 0x7 DUP2 MLOAD DUP2 LT PUSH2 0x35F6 JUMPI PUSH2 0x35F6 PUSH2 0x78E7 JUMP JUMPDEST PUSH2 0xFFFF SWAP1 SWAP3 AND PUSH1 0x20 SWAP3 DUP4 MUL SWAP2 SWAP1 SWAP2 ADD SWAP1 SWAP2 ADD MSTORE PUSH1 0xB DUP2 PUSH1 0x8 DUP2 MLOAD DUP2 LT PUSH2 0x361E JUMPI PUSH2 0x361E PUSH2 0x78E7 JUMP JUMPDEST PUSH2 0xFFFF SWAP1 SWAP3 AND PUSH1 0x20 SWAP3 DUP4 MUL SWAP2 SWAP1 SWAP2 ADD SWAP1 SWAP2 ADD MSTORE PUSH1 0xB DUP2 PUSH1 0x9 DUP2 MLOAD DUP2 LT PUSH2 0x3646 JUMPI PUSH2 0x3646 PUSH2 0x78E7 JUMP JUMPDEST PUSH2 0xFFFF SWAP1 SWAP3 AND PUSH1 0x20 SWAP3 DUP4 MUL SWAP2 SWAP1 SWAP2 ADD SWAP1 SWAP2 ADD MSTORE PUSH1 0xB DUP2 PUSH1 0xA DUP2 MLOAD DUP2 LT PUSH2 0x366E JUMPI PUSH2 0x366E PUSH2 0x78E7 JUMP JUMPDEST PUSH2 0xFFFF SWAP1 SWAP3 AND PUSH1 0x20 SWAP3 DUP4 MUL SWAP2 SWAP1 SWAP2 ADD SWAP1 SWAP2 ADD MSTORE PUSH1 0xB DUP2 DUP2 DUP2 MLOAD DUP2 LT PUSH2 0x3695 JUMPI PUSH2 0x3695 PUSH2 0x78E7 JUMP JUMPDEST PUSH2 0xFFFF SWAP1 SWAP3 AND PUSH1 0x20 SWAP3 DUP4 MUL SWAP2 SWAP1 SWAP2 ADD SWAP1 SWAP2 ADD MSTORE PUSH1 0x19 DUP2 PUSH1 0x18 DUP2 MLOAD DUP2 LT PUSH2 0x36BD JUMPI PUSH2 0x36BD PUSH2 0x78E7 JUMP JUMPDEST PUSH2 0xFFFF SWAP1 SWAP3 AND PUSH1 0x20 SWAP3 DUP4 MUL SWAP2 SWAP1 SWAP2 ADD SWAP1 SWAP2 ADD MSTORE PUSH1 0x19 DUP2 DUP2 DUP2 MLOAD DUP2 LT PUSH2 0x36E4 JUMPI PUSH2 0x36E4 PUSH2 0x78E7 JUMP JUMPDEST PUSH1 0x20 MUL PUSH1 0x20 ADD ADD SWAP1 PUSH2 0xFFFF AND SWAP1 DUP2 PUSH2 0xFFFF AND DUP2 MSTORE POP POP JUMPDEST PUSH0 PUSH2 0x3706 DUP5 DUP4 PUSH2 0x7494 JUMP JUMPDEST SWAP1 POP DUP1 PUSH1 0x1E DUP2 GT ISZERO PUSH2 0x31CD JUMPI PUSH2 0x31CD PUSH2 0x77A8 JUMP JUMPDEST PUSH1 0x40 DUP1 MLOAD PUSH1 0x13 DUP1 DUP3 MSTORE PUSH2 0x280 DUP3 ADD SWAP1 SWAP3 MSTORE PUSH0 SWAP2 DUP3 SWAP2 SWAP1 PUSH1 0x20 DUP3 ADD PUSH2 0x260 DUP1 CALLDATASIZE DUP4 CALLDATACOPY ADD SWAP1 POP POP SWAP1 POP PUSH2 0x374D PUSH2 0x1C8F DUP6 PUSH2 0x7B89 JUMP JUMPDEST DUP1 PUSH2 0x375F JUMPI POP PUSH2 0x375F PUSH2 0x1CA6 DUP6 PUSH2 0x7B89 JUMP JUMPDEST ISZERO PUSH2 0x3A65 JUMPI PUSH2 0x24A1 DUP2 PUSH0 DUP2 MLOAD DUP2 LT PUSH2 0x3779 JUMPI PUSH2 0x3779 PUSH2 0x78E7 JUMP JUMPDEST PUSH2 0xFFFF SWAP1 SWAP3 AND PUSH1 0x20 SWAP3 DUP4 MUL SWAP2 SWAP1 SWAP2 ADD SWAP1 SWAP2 ADD MSTORE PUSH1 0xC8 DUP2 PUSH1 0xE DUP2 MLOAD DUP2 LT PUSH2 0x37A1 JUMPI PUSH2 0x37A1 PUSH2 0x78E7 JUMP JUMPDEST PUSH2 0xFFFF SWAP1 SWAP3 AND PUSH1 0x20 SWAP3 DUP4 MUL SWAP2 SWAP1 SWAP2 ADD SWAP1 SWAP2 ADD MSTORE PUSH1 0x23 DUP2 PUSH1 0x6 DUP2 MLOAD DUP2 LT PUSH2 0x37C9 JUMPI PUSH2 0x37C9 PUSH2 0x78E7 JUMP JUMPDEST PUSH2 0xFFFF SWAP1 SWAP3 AND PUSH1 0x20 SWAP3 DUP4 MUL SWAP2 SWAP1 SWAP2 ADD SWAP1 SWAP2 ADD MSTORE PUSH1 0x16 DUP2 PUSH1 0xC DUP2 MLOAD DUP2 LT PUSH2 0x37F1 JUMPI PUSH2 0x37F1 PUSH2 0x78E7 JUMP JUMPDEST PUSH2 0xFFFF SWAP1 SWAP3 AND PUSH1 0x20 SWAP3 DUP4 MUL SWAP2 SWAP1 SWAP2 ADD SWAP1 SWAP2 ADD MSTORE PUSH1 0x14 DUP2 PUSH1 0x10 DUP2 MLOAD DUP2 LT PUSH2 0x3819 JUMPI PUSH2 0x3819 PUSH2 0x78E7 JUMP JUMPDEST PUSH2 0xFFFF SWAP1 SWAP3 AND PUSH1 0x20 SWAP3 DUP4 MUL SWAP2 SWAP1 SWAP2 ADD SWAP1 SWAP2 ADD MSTORE PUSH1 0x12 DUP2 PUSH1 0xA DUP2 MLOAD DUP2 LT PUSH2 0x3841 JUMPI PUSH2 0x3841 PUSH2 0x78E7 JUMP JUMPDEST PUSH2 0xFFFF SWAP1 SWAP3 AND PUSH1 0x20 SWAP3 DUP4 MUL SWAP2 SWAP1 SWAP2 ADD SWAP1 SWAP2 ADD MSTORE PUSH1 0x10 DUP2 PUSH1 0x1 DUP2 MLOAD DUP2 LT PUSH2 0x3869 JUMPI PUSH2 0x3869 PUSH2 0x78E7 JUMP JUMPDEST PUSH2 0xFFFF SWAP1 SWAP3 AND PUSH1 0x20 SWAP3 DUP4 MUL SWAP2 SWAP1 SWAP2 ADD SWAP1 SWAP2 ADD MSTORE PUSH1 0xE DUP2 PUSH1 0x11 DUP2 MLOAD DUP2 LT PUSH2 0x3891 JUMPI PUSH2 0x3891 PUSH2 0x78E7 JUMP JUMPDEST PUSH2 0xFFFF SWAP1 SWAP3 AND PUSH1 0x20 SWAP3 DUP4 MUL SWAP2 SWAP1 SWAP2 ADD SWAP1 SWAP2 ADD MSTORE PUSH1 0xC DUP2 PUSH1 0x2 DUP2 MLOAD DUP2 LT PUSH2 0x38B9 JUMPI PUSH2 0x38B9 PUSH2 0x78E7 JUMP JUMPDEST PUSH2 0xFFFF SWAP1 SWAP3 AND PUSH1 0x20 SWAP3 DUP4 MUL SWAP2 SWAP1 SWAP2 ADD SWAP1 SWAP2 ADD MSTORE PUSH1 0xA DUP2 PUSH1 0xB DUP2 MLOAD DUP2 LT PUSH2 0x38E1 JUMPI PUSH2 0x38E1 PUSH2 0x78E7 JUMP JUMPDEST PUSH2 0xFFFF SWAP1 SWAP3 AND PUSH1 0x20 SWAP3 DUP4 MUL SWAP2 SWAP1 SWAP2 ADD SWAP1 SWAP2 ADD MSTORE PUSH1 0x8 DUP2 PUSH1 0x12 DUP2 MLOAD DUP2 LT PUSH2 0x3909 JUMPI PUSH2 0x3909 PUSH2 0x78E7 JUMP JUMPDEST PUSH2 0xFFFF SWAP1 SWAP3 AND PUSH1 0x20 SWAP3 DUP4 MUL SWAP2 SWAP1 SWAP2 ADD SWAP1 SWAP2 ADD MSTORE PUSH1 0x7D DUP2 PUSH1 0x5 DUP2 MLOAD DUP2 LT PUSH2 0x3931 JUMPI PUSH2 0x3931 PUSH2 0x78E7 JUMP JUMPDEST PUSH2 0xFFFF SWAP1 SWAP3 AND PUSH1 0x20 SWAP3 DUP4 MUL SWAP2 SWAP1 SWAP2 ADD SWAP1 SWAP2 ADD MSTORE PUSH1 0x4B DUP2 PUSH1 0x3 DUP2 MLOAD DUP2 LT PUSH2 0x3959 JUMPI PUSH2 0x3959 PUSH2 0x78E7 JUMP JUMPDEST PUSH2 0xFFFF SWAP1 SWAP3 AND PUSH1 0x20 SWAP3 DUP4 MUL SWAP2 SWAP1 SWAP2 ADD SWAP1 SWAP2 ADD MSTORE PUSH1 0x10 DUP2 PUSH1 0x4 DUP2 MLOAD DUP2 LT PUSH2 0x3981 JUMPI PUSH2 0x3981 PUSH2 0x78E7 JUMP JUMPDEST PUSH2 0xFFFF SWAP1 SWAP3 AND PUSH1 0x20 SWAP3 DUP4 MUL SWAP2 SWAP1 SWAP2 ADD SWAP1 SWAP2 ADD MSTORE PUSH1 0xC DUP2 PUSH1 0xD DUP2 MLOAD DUP2 LT PUSH2 0x39A9 JUMPI PUSH2 0x39A9 PUSH2 0x78E7 JUMP JUMPDEST PUSH2 0xFFFF SWAP1 SWAP3 AND PUSH1 0x20 SWAP3 DUP4 MUL SWAP2 SWAP1 SWAP2 ADD SWAP1 SWAP2 ADD MSTORE PUSH1 0xC DUP2 PUSH1 0xF DUP2 MLOAD DUP2 LT PUSH2 0x39D1 JUMPI PUSH2 0x39D1 PUSH2 0x78E7 JUMP JUMPDEST PUSH2 0xFFFF SWAP1 SWAP3 AND PUSH1 0x20 SWAP3 DUP4 MUL SWAP2 SWAP1 SWAP2 ADD SWAP1 SWAP2 ADD MSTORE PUSH1 0xA DUP2 PUSH1 0x7 DUP2 MLOAD DUP2 LT PUSH2 0x39F9 JUMPI PUSH2 0x39F9 PUSH2 0x78E7 JUMP JUMPDEST PUSH2 0xFFFF SWAP1 SWAP3 AND PUSH1 0x20 SWAP3 DUP4 MUL SWAP2 SWAP1 SWAP2 ADD SWAP1 SWAP2 ADD MSTORE PUSH1 0xA DUP2 PUSH1 0x8 DUP2 MLOAD DUP2 LT PUSH2 0x3A21 JUMPI PUSH2 0x3A21 PUSH2 0x78E7 JUMP JUMPDEST PUSH2 0xFFFF SWAP1 SWAP3 AND PUSH1 0x20 SWAP3 DUP4 MUL SWAP2 SWAP1 SWAP2 ADD SWAP1 SWAP2 ADD MSTORE PUSH1 0x8 DUP2 PUSH1 0x9 JUMPDEST DUP2 MLOAD DUP2 LT PUSH2 0x3A4A JUMPI PUSH2 0x3A4A PUSH2 0x78E7 JUMP JUMPDEST PUSH1 0x20 MUL PUSH1 0x20 ADD ADD SWAP1 PUSH2 0xFFFF AND SWAP1 DUP2 PUSH2 0xFFFF AND DUP2 MSTORE POP POP PUSH2 0x3E15 JUMP JUMPDEST PUSH2 0x3A76 PUSH2 0x3A71 DUP6 PUSH2 0x7B89 JUMP JUMPDEST PUSH2 0x757C JUMP JUMPDEST DUP1 PUSH2 0x3A8D JUMPI POP PUSH2 0x3A8D PUSH2 0x3A88 DUP6 PUSH2 0x7B89 JUMP JUMPDEST PUSH2 0x7584 JUMP JUMPDEST ISZERO PUSH2 0x3BB4 JUMPI PUSH2 0x24A1 DUP2 PUSH0 DUP2 MLOAD DUP2 LT PUSH2 0x3AA7 JUMPI PUSH2 0x3AA7 PUSH2 0x78E7 JUMP JUMPDEST PUSH2 0xFFFF SWAP1 SWAP3 AND PUSH1 0x20 SWAP3 DUP4 MUL SWAP2 SWAP1 SWAP2 ADD SWAP1 SWAP2 ADD MSTORE PUSH1 0xC8 DUP2 PUSH1 0xE DUP2 MLOAD DUP2 LT PUSH2 0x3ACF JUMPI PUSH2 0x3ACF PUSH2 0x78E7 JUMP JUMPDEST PUSH2 0xFFFF SWAP1 SWAP3 AND PUSH1 0x20 SWAP3 DUP4 MUL SWAP2 SWAP1 SWAP2 ADD SWAP1 SWAP2 ADD MSTORE PUSH1 0x4B DUP2 PUSH1 0x3 DUP2 MLOAD DUP2 LT PUSH2 0x3AF7 JUMPI PUSH2 0x3AF7 PUSH2 0x78E7 JUMP JUMPDEST PUSH2 0xFFFF SWAP1 SWAP3 AND PUSH1 0x20 SWAP3 DUP4 MUL SWAP2 SWAP1 SWAP2 ADD SWAP1 SWAP2 ADD MSTORE PUSH1 0x10 DUP2 PUSH1 0x4 DUP2 MLOAD DUP2 LT PUSH2 0x3B1F JUMPI PUSH2 0x3B1F PUSH2 0x78E7 JUMP JUMPDEST PUSH2 0xFFFF SWAP1 SWAP3 AND PUSH1 0x20 SWAP3 DUP4 MUL SWAP2 SWAP1 SWAP2 ADD SWAP1 SWAP2 ADD MSTORE PUSH1 0xC DUP2 PUSH1 0xD DUP2 MLOAD DUP2 LT PUSH2 0x3B47 JUMPI PUSH2 0x3B47 PUSH2 0x78E7 JUMP JUMPDEST PUSH2 0xFFFF SWAP1 SWAP3 AND PUSH1 0x20 SWAP3 DUP4 MUL SWAP2 SWAP1 SWAP2 ADD SWAP1 SWAP2 ADD MSTORE PUSH1 0xC DUP2 PUSH1 0xF DUP2 MLOAD DUP2 LT PUSH2 0x3B6F JUMPI PUSH2 0x3B6F PUSH2 0x78E7 JUMP JUMPDEST PUSH2 0xFFFF SWAP1 SWAP3 AND PUSH1 0x20 SWAP3 DUP4 MUL SWAP2 SWAP1 SWAP2 ADD SWAP1 SWAP2 ADD MSTORE PUSH1 0xA DUP2 PUSH1 0x7 DUP2 MLOAD DUP2 LT PUSH2 0x3B97 JUMPI PUSH2 0x3B97 PUSH2 0x78E7 JUMP JUMPDEST PUSH2 0xFFFF SWAP1 SWAP3 AND PUSH1 0x20 SWAP3 DUP4 MUL SWAP2 SWAP1 SWAP2 ADD SWAP1 SWAP2 ADD MSTORE PUSH1 0xA DUP2 PUSH1 0x8 PUSH2 0x3A3A JUMP JUMPDEST PUSH2 0x3BC5 PUSH2 0x3BC0 DUP6 PUSH2 0x7B89 JUMP JUMPDEST PUSH2 0x758C JUMP JUMPDEST DUP1 PUSH2 0x3BDC JUMPI POP PUSH2 0x3BDC PUSH2 0x3BD7 DUP6 PUSH2 0x7B89 JUMP JUMPDEST PUSH2 0x7594 JUMP JUMPDEST DUP1 PUSH2 0x3BEE JUMPI POP PUSH2 0x3BEE PUSH2 0x320B DUP6 PUSH2 0x7B89 JUMP JUMPDEST DUP1 PUSH2 0x3C05 JUMPI POP PUSH2 0x3C05 PUSH2 0x3C00 DUP6 PUSH2 0x7B89 JUMP JUMPDEST PUSH2 0x759C JUMP JUMPDEST DUP1 PUSH2 0x3C1C JUMPI POP PUSH2 0x3C1C PUSH2 0x3C17 DUP6 PUSH2 0x7B89 JUMP JUMPDEST PUSH2 0x75A4 JUMP JUMPDEST DUP1 PUSH2 0x3C33 JUMPI POP PUSH2 0x3C33 PUSH2 0x3C2E DUP6 PUSH2 0x7B89 JUMP JUMPDEST PUSH2 0x75AC JUMP JUMPDEST DUP1 PUSH2 0x3C45 JUMPI POP PUSH2 0x3C45 PUSH2 0x1D1A DUP6 PUSH2 0x7B89 JUMP JUMPDEST ISZERO PUSH2 0x3E0C JUMPI PUSH2 0x2562 DUP2 PUSH0 DUP2 MLOAD DUP2 LT PUSH2 0x3C5F JUMPI PUSH2 0x3C5F PUSH2 0x78E7 JUMP JUMPDEST PUSH2 0xFFFF SWAP1 SWAP3 AND PUSH1 0x20 SWAP3 DUP4 MUL SWAP2 SWAP1 SWAP2 ADD SWAP1 SWAP2 ADD MSTORE PUSH1 0xC8 DUP2 PUSH1 0xE DUP2 MLOAD DUP2 LT PUSH2 0x3C87 JUMPI PUSH2 0x3C87 PUSH2 0x78E7 JUMP JUMPDEST PUSH2 0xFFFF SWAP1 SWAP3 AND PUSH1 0x20 SWAP3 DUP4 MUL SWAP2 SWAP1 SWAP2 ADD SWAP1 SWAP2 ADD MSTORE PUSH1 0x23 DUP2 PUSH1 0x6 DUP2 MLOAD DUP2 LT PUSH2 0x3CAF JUMPI PUSH2 0x3CAF PUSH2 0x78E7 JUMP JUMPDEST PUSH2 0xFFFF SWAP1 SWAP3 AND PUSH1 0x20 SWAP3 DUP4 MUL SWAP2 SWAP1 SWAP2 ADD SWAP1 SWAP2 ADD MSTORE PUSH1 0x16 DUP2 PUSH1 0xC DUP2 MLOAD DUP2 LT PUSH2 0x3CD7 JUMPI PUSH2 0x3CD7 PUSH2 0x78E7 JUMP JUMPDEST PUSH2 0xFFFF SWAP1 SWAP3 AND PUSH1 0x20 SWAP3 DUP4 MUL SWAP2 SWAP1 SWAP2 ADD SWAP1 SWAP2 ADD MSTORE PUSH1 0x14 DUP2 PUSH1 0x10 DUP2 MLOAD DUP2 LT PUSH2 0x3CFF JUMPI PUSH2 0x3CFF PUSH2 0x78E7 JUMP JUMPDEST PUSH2 0xFFFF SWAP1 SWAP3 AND PUSH1 0x20 SWAP3 DUP4 MUL SWAP2 SWAP1 SWAP2 ADD SWAP1 SWAP2 ADD MSTORE PUSH1 0x12 DUP2 PUSH1 0xA DUP2 MLOAD DUP2 LT PUSH2 0x3D27 JUMPI PUSH2 0x3D27 PUSH2 0x78E7 JUMP JUMPDEST PUSH2 0xFFFF SWAP1 SWAP3 AND PUSH1 0x20 SWAP3 DUP4 MUL SWAP2 SWAP1 SWAP2 ADD SWAP1 SWAP2 ADD MSTORE PUSH1 0x10 DUP2 PUSH1 0x1 DUP2 MLOAD DUP2 LT PUSH2 0x3D4F JUMPI PUSH2 0x3D4F PUSH2 0x78E7 JUMP JUMPDEST PUSH2 0xFFFF SWAP1 SWAP3 AND PUSH1 0x20 SWAP3 DUP4 MUL SWAP2 SWAP1 SWAP2 ADD SWAP1 SWAP2 ADD MSTORE PUSH1 0xE DUP2 PUSH1 0x11 DUP2 MLOAD DUP2 LT PUSH2 0x3D77 JUMPI PUSH2 0x3D77 PUSH2 0x78E7 JUMP JUMPDEST PUSH2 0xFFFF SWAP1 SWAP3 AND PUSH1 0x20 SWAP3 DUP4 MUL SWAP2 SWAP1 SWAP2 ADD SWAP1 SWAP2 ADD MSTORE PUSH1 0xC DUP2 PUSH1 0x2 DUP2 MLOAD DUP2 LT PUSH2 0x3D9F JUMPI PUSH2 0x3D9F PUSH2 0x78E7 JUMP JUMPDEST PUSH2 0xFFFF SWAP1 SWAP3 AND PUSH1 0x20 SWAP3 DUP4 MUL SWAP2 SWAP1 SWAP2 ADD SWAP1 SWAP2 ADD MSTORE PUSH1 0xA DUP2 PUSH1 0xB DUP2 MLOAD DUP2 LT PUSH2 0x3DC7 JUMPI PUSH2 0x3DC7 PUSH2 0x78E7 JUMP JUMPDEST PUSH2 0xFFFF SWAP1 SWAP3 AND PUSH1 0x20 SWAP3 DUP4 MUL SWAP2 SWAP1 SWAP2 ADD SWAP1 SWAP2 ADD MSTORE PUSH1 0x8 DUP2 PUSH1 0x12 DUP2 MLOAD DUP2 LT PUSH2 0x3DEF JUMPI PUSH2 0x3DEF PUSH2 0x78E7 JUMP JUMPDEST PUSH2 0xFFFF SWAP1 SWAP3 AND PUSH1 0x20 SWAP3 DUP4 MUL SWAP2 SWAP1 SWAP2 ADD SWAP1 SWAP2 ADD MSTORE PUSH1 0x4B DUP2 PUSH1 0x3 PUSH2 0x3A3A JUMP JUMPDEST PUSH0 SWAP2 POP POP PUSH2 0x31D2 JUMP JUMPDEST PUSH0 PUSH2 0x3E20 DUP5 DUP4 PUSH2 0x7494 JUMP JUMPDEST SWAP1 POP DUP1 PUSH1 0x12 DUP2 GT ISZERO PUSH2 0x31CD JUMPI PUSH2 0x31CD PUSH2 0x77A8 JUMP JUMPDEST PUSH1 0x40 DUP1 MLOAD PUSH1 0xC3 DUP1 DUP3 MSTORE PUSH2 0x1880 DUP3 ADD SWAP1 SWAP3 MSTORE PUSH0 SWAP2 DUP3 SWAP2 SWAP1 PUSH1 0x20 DUP3 ADD PUSH2 0x1860 DUP1 CALLDATASIZE DUP4 CALLDATACOPY ADD SWAP1 POP POP SWAP1 POP PUSH2 0x3E67 PUSH2 0x1C8F DUP6 PUSH2 0x7B89 JUMP JUMPDEST DUP1 PUSH2 0x3E79 JUMPI POP PUSH2 0x3E79 PUSH2 0x1CA6 DUP6 PUSH2 0x7B89 JUMP JUMPDEST ISZERO PUSH2 0x3EAE JUMPI PUSH2 0x190 DUP2 PUSH0 DUP2 MLOAD DUP2 LT PUSH2 0x3E93 JUMPI PUSH2 0x3E93 PUSH2 0x78E7 JUMP JUMPDEST PUSH1 0x20 MUL PUSH1 0x20 ADD ADD SWAP1 PUSH2 0xFFFF AND SWAP1 DUP2 PUSH2 0xFFFF AND DUP2 MSTORE POP POP PUSH2 0x3F18 JUMP JUMPDEST PUSH2 0x3EBA PUSH2 0x1CEC DUP6 PUSH2 0x7B89 JUMP JUMPDEST DUP1 PUSH2 0x3ECC JUMPI POP PUSH2 0x3ECC PUSH2 0x1D03 DUP6 PUSH2 0x7B89 JUMP JUMPDEST DUP1 PUSH2 0x3EDE JUMPI POP PUSH2 0x3EDE PUSH2 0x1D1A DUP6 PUSH2 0x7B89 JUMP JUMPDEST ISZERO PUSH2 0x3EEC JUMPI PUSH0 SWAP2 POP POP PUSH2 0x31D2 JUMP JUMPDEST PUSH2 0x4B0 DUP2 PUSH0 DUP2 MLOAD DUP2 LT PUSH2 0x3F01 JUMPI PUSH2 0x3F01 PUSH2 0x78E7 JUMP JUMPDEST PUSH1 0x20 MUL PUSH1 0x20 ADD ADD SWAP1 PUSH2 0xFFFF AND SWAP1 DUP2 PUSH2 0xFFFF AND DUP2 MSTORE POP POP JUMPDEST PUSH1 0xE1 DUP2 PUSH1 0x1 DUP2 MLOAD DUP2 LT PUSH2 0x3F2D JUMPI PUSH2 0x3F2D PUSH2 0x78E7 JUMP JUMPDEST PUSH2 0xFFFF SWAP1 SWAP3 AND PUSH1 0x20 SWAP3 DUP4 MUL SWAP2 SWAP1 SWAP2 ADD SWAP1 SWAP2 ADD MSTORE PUSH1 0x96 DUP2 PUSH1 0x4 DUP2 MLOAD DUP2 LT PUSH2 0x3F55 JUMPI PUSH2 0x3F55 PUSH2 0x78E7 JUMP JUMPDEST PUSH2 0xFFFF SWAP1 SWAP3 AND PUSH1 0x20 SWAP3 DUP4 MUL SWAP2 SWAP1 SWAP2 ADD SWAP1 SWAP2 ADD MSTORE PUSH1 0x7D DUP2 PUSH1 0x2 DUP2 MLOAD DUP2 LT PUSH2 0x3F7D JUMPI PUSH2 0x3F7D PUSH2 0x78E7 JUMP JUMPDEST PUSH2 0xFFFF SWAP1 SWAP3 AND PUSH1 0x20 SWAP3 DUP4 MUL SWAP2 SWAP1 SWAP2 ADD SWAP1 SWAP2 ADD MSTORE PUSH1 0x64 DUP2 PUSH1 0x5 DUP2 MLOAD DUP2 LT PUSH2 0x3FA5 JUMPI PUSH2 0x3FA5 PUSH2 0x78E7 JUMP JUMPDEST PUSH2 0xFFFF SWAP1 SWAP3 AND PUSH1 0x20 SWAP3 DUP4 MUL SWAP2 SWAP1 SWAP2 ADD SWAP1 SWAP2 ADD MSTORE PUSH1 0x4C DUP2 PUSH1 0xC DUP2 MLOAD DUP2 LT PUSH2 0x3FCD JUMPI PUSH2 0x3FCD PUSH2 0x78E7 JUMP JUMPDEST PUSH2 0xFFFF SWAP1 SWAP3 AND PUSH1 0x20 SWAP3 DUP4 MUL SWAP2 SWAP1 SWAP2 ADD DUP3 ADD MSTORE DUP2 PUSH1 0x3 DUP2 MLOAD DUP2 LT PUSH2 0x3FF2 JUMPI PUSH2 0x3FF2 PUSH2 0x78E7 JUMP JUMPDEST PUSH2 0xFFFF SWAP1 SWAP3 AND PUSH1 0x20 SWAP3 DUP4 MUL SWAP2 SWAP1 SWAP2 ADD DUP3 ADD MSTORE DUP2 PUSH1 0x6 DUP2 MLOAD DUP2 LT PUSH2 0x4017 JUMPI PUSH2 0x4017 PUSH2 0x78E7 JUMP JUMPDEST PUSH2 0xFFFF SWAP1 SWAP3 AND PUSH1 0x20 SWAP3 DUP4 MUL SWAP2 SWAP1 SWAP2 ADD DUP3 ADD MSTORE DUP2 PUSH1 0x7 DUP2 MLOAD DUP2 LT PUSH2 0x403C JUMPI PUSH2 0x403C PUSH2 0x78E7 JUMP JUMPDEST PUSH2 0xFFFF SWAP1 SWAP3 AND PUSH1 0x20 SWAP3 DUP4 MUL SWAP2 SWAP1 SWAP2 ADD DUP3 ADD MSTORE DUP2 PUSH1 0x8 DUP2 MLOAD DUP2 LT PUSH2 0x4061 JUMPI PUSH2 0x4061 PUSH2 0x78E7 JUMP JUMPDEST PUSH2 0xFFFF SWAP1 SWAP3 AND PUSH1 0x20 SWAP3 DUP4 MUL SWAP2 SWAP1 SWAP2 ADD DUP3 ADD MSTORE DUP2 PUSH1 0x9 DUP2 MLOAD DUP2 LT PUSH2 0x4086 JUMPI PUSH2 0x4086 PUSH2 0x78E7 JUMP JUMPDEST PUSH2 0xFFFF SWAP1 SWAP3 AND PUSH1 0x20 SWAP3 DUP4 MUL SWAP2 SWAP1 SWAP2 ADD DUP3 ADD MSTORE DUP2 PUSH1 0xA DUP2 MLOAD DUP2 LT PUSH2 0x40AB JUMPI PUSH2 0x40AB PUSH2 0x78E7 JUMP JUMPDEST PUSH2 0xFFFF SWAP1 SWAP3 AND PUSH1 0x20 SWAP3 DUP4 MUL SWAP2 SWAP1 SWAP2 ADD DUP3 ADD MSTORE DUP2 PUSH1 0xB DUP2 MLOAD DUP2 LT PUSH2 0x40D0 JUMPI PUSH2 0x40D0 PUSH2 0x78E7 JUMP JUMPDEST PUSH2 0xFFFF SWAP1 SWAP3 AND PUSH1 0x20 SWAP3 DUP4 MUL SWAP2 SWAP1 SWAP2 ADD SWAP1 SWAP2 ADD MSTORE PUSH1 0xE1 DUP2 PUSH1 0xD DUP2 MLOAD DUP2 LT PUSH2 0x40F8 JUMPI PUSH2 0x40F8 PUSH2 0x78E7 JUMP JUMPDEST PUSH2 0xFFFF SWAP1 SWAP3 AND PUSH1 0x20 SWAP3 DUP4 MUL SWAP2 SWAP1 SWAP2 ADD SWAP1 SWAP2 ADD MSTORE PUSH1 0x96 DUP2 PUSH1 0x10 DUP2 MLOAD DUP2 LT PUSH2 0x4120 JUMPI PUSH2 0x4120 PUSH2 0x78E7 JUMP JUMPDEST PUSH2 0xFFFF SWAP1 SWAP3 AND PUSH1 0x20 SWAP3 DUP4 MUL SWAP2 SWAP1 SWAP2 ADD SWAP1 SWAP2 ADD MSTORE PUSH1 0x7D DUP2 PUSH1 0xE DUP2 MLOAD DUP2 LT PUSH2 0x4148 JUMPI PUSH2 0x4148 PUSH2 0x78E7 JUMP JUMPDEST PUSH2 0xFFFF SWAP1 SWAP3 AND PUSH1 0x20 SWAP3 DUP4 MUL SWAP2 SWAP1 SWAP2 ADD SWAP1 SWAP2 ADD MSTORE PUSH1 0x64 DUP2 PUSH1 0x11 DUP2 MLOAD DUP2 LT PUSH2 0x4170 JUMPI PUSH2 0x4170 PUSH2 0x78E7 JUMP JUMPDEST PUSH2 0xFFFF SWAP1 SWAP3 AND PUSH1 0x20 SWAP3 DUP4 MUL SWAP2 SWAP1 SWAP2 ADD SWAP1 SWAP2 ADD MSTORE PUSH1 0x4C DUP2 PUSH1 0x18 DUP2 MLOAD DUP2 LT PUSH2 0x4198 JUMPI PUSH2 0x4198 PUSH2 0x78E7 JUMP JUMPDEST PUSH2 0xFFFF SWAP1 SWAP3 AND PUSH1 0x20 SWAP3 DUP4 MUL SWAP2 SWAP1 SWAP2 ADD DUP3 ADD MSTORE DUP2 PUSH1 0xF DUP2 MLOAD DUP2 LT PUSH2 0x41BD JUMPI PUSH2 0x41BD PUSH2 0x78E7 JUMP JUMPDEST PUSH2 0xFFFF SWAP1 SWAP3 AND PUSH1 0x20 SWAP3 DUP4 MUL SWAP2 SWAP1 SWAP2 ADD DUP3 ADD MSTORE DUP2 PUSH1 0x12 DUP2 MLOAD DUP2 LT PUSH2 0x41E2 JUMPI PUSH2 0x41E2 PUSH2 0x78E7 JUMP JUMPDEST PUSH2 0xFFFF SWAP1 SWAP3 AND PUSH1 0x20 SWAP3 DUP4 MUL SWAP2 SWAP1 SWAP2 ADD DUP3 ADD MSTORE DUP2 PUSH1 0x13 DUP2 MLOAD DUP2 LT PUSH2 0x4207 JUMPI PUSH2 0x4207 PUSH2 0x78E7 JUMP JUMPDEST PUSH2 0xFFFF SWAP1 SWAP3 AND PUSH1 0x20 SWAP3 DUP4 MUL SWAP2 SWAP1 SWAP2 ADD DUP3 ADD MSTORE DUP2 PUSH1 0x14 DUP2 MLOAD DUP2 LT PUSH2 0x422C JUMPI PUSH2 0x422C PUSH2 0x78E7 JUMP JUMPDEST PUSH2 0xFFFF SWAP1 SWAP3 AND PUSH1 0x20 SWAP3 DUP4 MUL SWAP2 SWAP1 SWAP2 ADD DUP3 ADD MSTORE DUP2 PUSH1 0x15 DUP2 MLOAD DUP2 LT PUSH2 0x4251 JUMPI PUSH2 0x4251 PUSH2 0x78E7 JUMP JUMPDEST PUSH2 0xFFFF SWAP1 SWAP3 AND PUSH1 0x20 SWAP3 DUP4 MUL SWAP2 SWAP1 SWAP2 ADD DUP3 ADD MSTORE DUP2 PUSH1 0x16 DUP2 MLOAD DUP2 LT PUSH2 0x4276 JUMPI PUSH2 0x4276 PUSH2 0x78E7 JUMP JUMPDEST PUSH2 0xFFFF SWAP1 SWAP3 AND PUSH1 0x20 SWAP3 DUP4 MUL SWAP2 SWAP1 SWAP2 ADD DUP3 ADD MSTORE DUP2 PUSH1 0x17 DUP2 MLOAD DUP2 LT PUSH2 0x429B JUMPI PUSH2 0x429B PUSH2 0x78E7 JUMP JUMPDEST PUSH2 0xFFFF SWAP1 SWAP3 AND PUSH1 0x20 SWAP3 DUP4 MUL SWAP2 SWAP1 SWAP2 ADD SWAP1 SWAP2 ADD MSTORE PUSH1 0xE1 DUP2 PUSH1 0x1F DUP2 MLOAD DUP2 LT PUSH2 0x42C3 JUMPI PUSH2 0x42C3 PUSH2 0x78E7 JUMP JUMPDEST PUSH2 0xFFFF SWAP1 SWAP3 AND PUSH1 0x20 SWAP3 DUP4 MUL SWAP2 SWAP1 SWAP2 ADD SWAP1 SWAP2 ADD MSTORE PUSH1 0x96 DUP2 PUSH1 0x22 DUP2 MLOAD DUP2 LT PUSH2 0x42EB JUMPI PUSH2 0x42EB PUSH2 0x78E7 JUMP JUMPDEST PUSH2 0xFFFF SWAP1 SWAP3 AND PUSH1 0x20 SWAP3 DUP4 MUL SWAP2 SWAP1 SWAP2 ADD DUP3 ADD MSTORE PUSH1 0x7D SWAP1 DUP3 SWAP1 DUP2 MLOAD DUP2 LT PUSH2 0x4312 JUMPI PUSH2 0x4312 PUSH2 0x78E7 JUMP JUMPDEST PUSH2 0xFFFF SWAP1 SWAP3 AND PUSH1 0x20 SWAP3 DUP4 MUL SWAP2 SWAP1 SWAP2 ADD SWAP1 SWAP2 ADD MSTORE PUSH1 0x64 DUP2 PUSH1 0x23 DUP2 MLOAD DUP2 LT PUSH2 0x433A JUMPI PUSH2 0x433A PUSH2 0x78E7 JUMP JUMPDEST PUSH2 0xFFFF SWAP1 SWAP3 AND PUSH1 0x20 SWAP3 DUP4 MUL SWAP2 SWAP1 SWAP2 ADD SWAP1 SWAP2 ADD MSTORE PUSH1 0x4B DUP2 PUSH1 0x2A DUP2 MLOAD DUP2 LT PUSH2 0x4362 JUMPI PUSH2 0x4362 PUSH2 0x78E7 JUMP JUMPDEST PUSH2 0xFFFF SWAP1 SWAP3 AND PUSH1 0x20 SWAP3 DUP4 MUL SWAP2 SWAP1 SWAP2 ADD DUP3 ADD MSTORE DUP2 PUSH1 0x21 DUP2 MLOAD DUP2 LT PUSH2 0x4387 JUMPI PUSH2 0x4387 PUSH2 0x78E7 JUMP JUMPDEST PUSH2 0xFFFF SWAP1 SWAP3 AND PUSH1 0x20 SWAP3 DUP4 MUL SWAP2 SWAP1 SWAP2 ADD DUP3 ADD MSTORE DUP2 PUSH1 0x24 DUP2 MLOAD DUP2 LT PUSH2 0x43AC JUMPI PUSH2 0x43AC PUSH2 0x78E7 JUMP JUMPDEST PUSH2 0xFFFF SWAP1 SWAP3 AND PUSH1 0x20 SWAP3 DUP4 MUL SWAP2 SWAP1 SWAP2 ADD DUP3 ADD MSTORE DUP2 PUSH1 0x25 DUP2 MLOAD DUP2 LT PUSH2 0x43D1 JUMPI PUSH2 0x43D1 PUSH2 0x78E7 JUMP JUMPDEST PUSH2 0xFFFF SWAP1 SWAP3 AND PUSH1 0x20 SWAP3 DUP4 MUL SWAP2 SWAP1 SWAP2 ADD DUP3 ADD MSTORE DUP2 PUSH1 0x26 DUP2 MLOAD DUP2 LT PUSH2 0x43F6 JUMPI PUSH2 0x43F6 PUSH2 0x78E7 JUMP JUMPDEST PUSH2 0xFFFF SWAP1 SWAP3 AND PUSH1 0x20 SWAP3 DUP4 MUL SWAP2 SWAP1 SWAP2 ADD DUP3 ADD MSTORE DUP2 PUSH1 0x27 DUP2 MLOAD DUP2 LT PUSH2 0x441B JUMPI PUSH2 0x441B PUSH2 0x78E7 JUMP JUMPDEST PUSH2 0xFFFF SWAP1 SWAP3 AND PUSH1 0x20 SWAP3 DUP4 MUL SWAP2 SWAP1 SWAP2 ADD DUP3 ADD MSTORE DUP2 PUSH1 0x28 DUP2 MLOAD DUP2 LT PUSH2 0x4440 JUMPI PUSH2 0x4440 PUSH2 0x78E7 JUMP JUMPDEST PUSH2 0xFFFF SWAP1 SWAP3 AND PUSH1 0x20 SWAP3 DUP4 MUL SWAP2 SWAP1 SWAP2 ADD DUP3 ADD MSTORE DUP2 PUSH1 0x29 DUP2 MLOAD DUP2 LT PUSH2 0x4465 JUMPI PUSH2 0x4465 PUSH2 0x78E7 JUMP JUMPDEST PUSH2 0xFFFF SWAP1 SWAP3 AND PUSH1 0x20 SWAP3 DUP4 MUL SWAP2 SWAP1 SWAP2 ADD SWAP1 SWAP2 ADD MSTORE PUSH1 0xE1 DUP2 PUSH1 0x53 DUP2 MLOAD DUP2 LT PUSH2 0x448D JUMPI PUSH2 0x448D PUSH2 0x78E7 JUMP JUMPDEST PUSH2 0xFFFF SWAP1 SWAP3 AND PUSH1 0x20 SWAP3 DUP4 MUL SWAP2 SWAP1 SWAP2 ADD SWAP1 SWAP2 ADD MSTORE PUSH1 0x96 DUP2 PUSH1 0x56 DUP2 MLOAD DUP2 LT PUSH2 0x44B5 JUMPI PUSH2 0x44B5 PUSH2 0x78E7 JUMP JUMPDEST PUSH2 0xFFFF SWAP1 SWAP3 AND PUSH1 0x20 SWAP3 DUP4 MUL SWAP2 SWAP1 SWAP2 ADD SWAP1 SWAP2 ADD MSTORE PUSH1 0x7D DUP2 PUSH1 0x54 DUP2 MLOAD DUP2 LT PUSH2 0x44DD JUMPI PUSH2 0x44DD PUSH2 0x78E7 JUMP JUMPDEST PUSH2 0xFFFF SWAP1 SWAP3 AND PUSH1 0x20 SWAP3 DUP4 MUL SWAP2 SWAP1 SWAP2 ADD SWAP1 SWAP2 ADD MSTORE PUSH1 0x64 DUP2 PUSH1 0x57 DUP2 MLOAD DUP2 LT PUSH2 0x4505 JUMPI PUSH2 0x4505 PUSH2 0x78E7 JUMP JUMPDEST PUSH2 0xFFFF SWAP1 SWAP3 AND PUSH1 0x20 SWAP3 DUP4 MUL SWAP2 SWAP1 SWAP2 ADD SWAP1 SWAP2 ADD MSTORE PUSH1 0x4C DUP2 PUSH1 0x5E DUP2 MLOAD DUP2 LT PUSH2 0x452D JUMPI PUSH2 0x452D PUSH2 0x78E7 JUMP JUMPDEST PUSH2 0xFFFF SWAP1 SWAP3 AND PUSH1 0x20 SWAP3 DUP4 MUL SWAP2 SWAP1 SWAP2 ADD DUP3 ADD MSTORE DUP2 PUSH1 0x55 DUP2 MLOAD DUP2 LT PUSH2 0x4552 JUMPI PUSH2 0x4552 PUSH2 0x78E7 JUMP JUMPDEST PUSH2 0xFFFF SWAP1 SWAP3 AND PUSH1 0x20 SWAP3 DUP4 MUL SWAP2 SWAP1 SWAP2 ADD DUP3 ADD MSTORE DUP2 PUSH1 0x58 DUP2 MLOAD DUP2 LT PUSH2 0x4577 JUMPI PUSH2 0x4577 PUSH2 0x78E7 JUMP JUMPDEST PUSH2 0xFFFF SWAP1 SWAP3 AND PUSH1 0x20 SWAP3 DUP4 MUL SWAP2 SWAP1 SWAP2 ADD DUP3 ADD MSTORE DUP2 PUSH1 0x59 DUP2 MLOAD DUP2 LT PUSH2 0x459C JUMPI PUSH2 0x459C PUSH2 0x78E7 JUMP JUMPDEST PUSH2 0xFFFF SWAP1 SWAP3 AND PUSH1 0x20 SWAP3 DUP4 MUL SWAP2 SWAP1 SWAP2 ADD DUP3 ADD MSTORE DUP2 PUSH1 0x5A DUP2 MLOAD DUP2 LT PUSH2 0x45C1 JUMPI PUSH2 0x45C1 PUSH2 0x78E7 JUMP JUMPDEST PUSH2 0xFFFF SWAP1 SWAP3 AND PUSH1 0x20 SWAP3 DUP4 MUL SWAP2 SWAP1 SWAP2 ADD DUP3 ADD MSTORE DUP2 PUSH1 0x5B DUP2 MLOAD DUP2 LT PUSH2 0x45E6 JUMPI PUSH2 0x45E6 PUSH2 0x78E7 JUMP JUMPDEST PUSH2 0xFFFF SWAP1 SWAP3 AND PUSH1 0x20 SWAP3 DUP4 MUL SWAP2 SWAP1 SWAP2 ADD DUP3 ADD MSTORE DUP2 PUSH1 0x5C DUP2 MLOAD DUP2 LT PUSH2 0x460B JUMPI PUSH2 0x460B PUSH2 0x78E7 JUMP JUMPDEST PUSH2 0xFFFF SWAP1 SWAP3 AND PUSH1 0x20 SWAP3 DUP4 MUL SWAP2 SWAP1 SWAP2 ADD DUP3 ADD MSTORE DUP2 PUSH1 0x5D DUP2 MLOAD DUP2 LT PUSH2 0x4630 JUMPI PUSH2 0x4630 PUSH2 0x78E7 JUMP JUMPDEST PUSH2 0xFFFF SWAP1 SWAP3 AND PUSH1 0x20 SWAP3 DUP4 MUL SWAP2 SWAP1 SWAP2 ADD SWAP1 SWAP2 ADD MSTORE PUSH1 0xE1 DUP2 PUSH1 0x87 DUP2 MLOAD DUP2 LT PUSH2 0x4658 JUMPI PUSH2 0x4658 PUSH2 0x78E7 JUMP JUMPDEST PUSH2 0xFFFF SWAP1 SWAP3 AND PUSH1 0x20 SWAP3 DUP4 MUL SWAP2 SWAP1 SWAP2 ADD SWAP1 SWAP2 ADD MSTORE PUSH1 0x96 DUP2 PUSH1 0x8A DUP2 MLOAD DUP2 LT PUSH2 0x4680 JUMPI PUSH2 0x4680 PUSH2 0x78E7 JUMP JUMPDEST PUSH2 0xFFFF SWAP1 SWAP3 AND PUSH1 0x20 SWAP3 DUP4 MUL SWAP2 SWAP1 SWAP2 ADD SWAP1 SWAP2 ADD MSTORE PUSH1 0x7D DUP2 PUSH1 0x88 DUP2 MLOAD DUP2 LT PUSH2 0x46A8 JUMPI PUSH2 0x46A8 PUSH2 0x78E7 JUMP JUMPDEST PUSH2 0xFFFF SWAP1 SWAP3 AND PUSH1 0x20 SWAP3 DUP4 MUL SWAP2 SWAP1 SWAP2 ADD SWAP1 SWAP2 ADD MSTORE PUSH1 0x64 DUP2 PUSH1 0x8B DUP2 MLOAD DUP2 LT PUSH2 0x46D0 JUMPI PUSH2 0x46D0 PUSH2 0x78E7 JUMP JUMPDEST PUSH2 0xFFFF SWAP1 SWAP3 AND PUSH1 0x20 SWAP3 DUP4 MUL SWAP2 SWAP1 SWAP2 ADD SWAP1 SWAP2 ADD MSTORE PUSH1 0x4C DUP2 PUSH1 0x92 DUP2 MLOAD DUP2 LT PUSH2 0x46F8 JUMPI PUSH2 0x46F8 PUSH2 0x78E7 JUMP JUMPDEST PUSH2 0xFFFF SWAP1 SWAP3 AND PUSH1 0x20 SWAP3 DUP4 MUL SWAP2 SWAP1 SWAP2 ADD DUP3 ADD MSTORE DUP2 PUSH1 0x89 DUP2 MLOAD DUP2 LT PUSH2 0x471D JUMPI PUSH2 0x471D PUSH2 0x78E7 JUMP JUMPDEST PUSH2 0xFFFF SWAP1 SWAP3 AND PUSH1 0x20 SWAP3 DUP4 MUL SWAP2 SWAP1 SWAP2 ADD DUP3 ADD MSTORE DUP2 PUSH1 0x8C DUP2 MLOAD DUP2 LT PUSH2 0x4742 JUMPI PUSH2 0x4742 PUSH2 0x78E7 JUMP JUMPDEST PUSH2 0xFFFF SWAP1 SWAP3 AND PUSH1 0x20 SWAP3 DUP4 MUL SWAP2 SWAP1 SWAP2 ADD DUP3 ADD MSTORE DUP2 PUSH1 0x8D DUP2 MLOAD DUP2 LT PUSH2 0x4767 JUMPI PUSH2 0x4767 PUSH2 0x78E7 JUMP JUMPDEST PUSH2 0xFFFF SWAP1 SWAP3 AND PUSH1 0x20 SWAP3 DUP4 MUL SWAP2 SWAP1 SWAP2 ADD DUP3 ADD MSTORE DUP2 PUSH1 0x8E DUP2 MLOAD DUP2 LT PUSH2 0x478C JUMPI PUSH2 0x478C PUSH2 0x78E7 JUMP JUMPDEST PUSH2 0xFFFF SWAP1 SWAP3 AND PUSH1 0x20 SWAP3 DUP4 MUL SWAP2 SWAP1 SWAP2 ADD DUP3 ADD MSTORE DUP2 PUSH1 0x8F DUP2 MLOAD DUP2 LT PUSH2 0x47B1 JUMPI PUSH2 0x47B1 PUSH2 0x78E7 JUMP JUMPDEST PUSH2 0xFFFF SWAP1 SWAP3 AND PUSH1 0x20 SWAP3 DUP4 MUL SWAP2 SWAP1 SWAP2 ADD DUP3 ADD MSTORE DUP2 PUSH1 0x90 DUP2 MLOAD DUP2 LT PUSH2 0x47D6 JUMPI PUSH2 0x47D6 PUSH2 0x78E7 JUMP JUMPDEST PUSH2 0xFFFF SWAP1 SWAP3 AND PUSH1 0x20 SWAP3 DUP4 MUL SWAP2 SWAP1 SWAP2 ADD DUP3 ADD MSTORE DUP2 PUSH1 0x91 DUP2 MLOAD DUP2 LT PUSH2 0x47FB JUMPI PUSH2 0x47FB PUSH2 0x78E7 JUMP JUMPDEST PUSH2 0xFFFF SWAP1 SWAP3 AND PUSH1 0x20 SWAP3 DUP4 MUL SWAP2 SWAP1 SWAP2 ADD SWAP1 SWAP2 ADD MSTORE PUSH1 0xE1 DUP2 PUSH1 0x9F DUP2 MLOAD DUP2 LT PUSH2 0x4823 JUMPI PUSH2 0x4823 PUSH2 0x78E7 JUMP JUMPDEST PUSH2 0xFFFF SWAP1 SWAP3 AND PUSH1 0x20 SWAP3 DUP4 MUL SWAP2 SWAP1 SWAP2 ADD SWAP1 SWAP2 ADD MSTORE PUSH1 0x96 DUP2 PUSH1 0xA2 DUP2 MLOAD DUP2 LT PUSH2 0x484B JUMPI PUSH2 0x484B PUSH2 0x78E7 JUMP JUMPDEST PUSH2 0xFFFF SWAP1 SWAP3 AND PUSH1 0x20 SWAP3 DUP4 MUL SWAP2 SWAP1 SWAP2 ADD SWAP1 SWAP2 ADD MSTORE PUSH1 0x7D DUP2 PUSH1 0xA0 DUP2 MLOAD DUP2 LT PUSH2 0x4873 JUMPI PUSH2 0x4873 PUSH2 0x78E7 JUMP JUMPDEST PUSH2 0xFFFF SWAP1 SWAP3 AND PUSH1 0x20 SWAP3 DUP4 MUL SWAP2 SWAP1 SWAP2 ADD SWAP1 SWAP2 ADD MSTORE PUSH1 0x64 DUP2 PUSH1 0xA3 DUP2 MLOAD DUP2 LT PUSH2 0x489B JUMPI PUSH2 0x489B PUSH2 0x78E7 JUMP JUMPDEST PUSH2 0xFFFF SWAP1 SWAP3 AND PUSH1 0x20 SWAP3 DUP4 MUL SWAP2 SWAP1 SWAP2 ADD SWAP1 SWAP2 ADD MSTORE PUSH1 0x4C DUP2 PUSH1 0xAA DUP2 MLOAD DUP2 LT PUSH2 0x48C3 JUMPI PUSH2 0x48C3 PUSH2 0x78E7 JUMP JUMPDEST PUSH2 0xFFFF SWAP1 SWAP3 AND PUSH1 0x20 SWAP3 DUP4 MUL SWAP2 SWAP1 SWAP2 ADD DUP3 ADD MSTORE DUP2 PUSH1 0xA1 DUP2 MLOAD DUP2 LT PUSH2 0x48E8 JUMPI PUSH2 0x48E8 PUSH2 0x78E7 JUMP JUMPDEST PUSH2 0xFFFF SWAP1 SWAP3 AND PUSH1 0x20 SWAP3 DUP4 MUL SWAP2 SWAP1 SWAP2 ADD DUP3 ADD MSTORE DUP2 PUSH1 0xA4 DUP2 MLOAD DUP2 LT PUSH2 0x490D JUMPI PUSH2 0x490D PUSH2 0x78E7 JUMP JUMPDEST PUSH2 0xFFFF SWAP1 SWAP3 AND PUSH1 0x20 SWAP3 DUP4 MUL SWAP2 SWAP1 SWAP2 ADD DUP3 ADD MSTORE DUP2 PUSH1 0xA5 DUP2 MLOAD DUP2 LT PUSH2 0x4932 JUMPI PUSH2 0x4932 PUSH2 0x78E7 JUMP JUMPDEST PUSH2 0xFFFF SWAP1 SWAP3 AND PUSH1 0x20 SWAP3 DUP4 MUL SWAP2 SWAP1 SWAP2 ADD DUP3 ADD MSTORE DUP2 PUSH1 0xA6 DUP2 MLOAD DUP2 LT PUSH2 0x4957 JUMPI PUSH2 0x4957 PUSH2 0x78E7 JUMP JUMPDEST PUSH2 0xFFFF SWAP1 SWAP3 AND PUSH1 0x20 SWAP3 DUP4 MUL SWAP2 SWAP1 SWAP2 ADD DUP3 ADD MSTORE DUP2 PUSH1 0xA7 DUP2 MLOAD DUP2 LT PUSH2 0x497C JUMPI PUSH2 0x497C PUSH2 0x78E7 JUMP JUMPDEST PUSH2 0xFFFF SWAP1 SWAP3 AND PUSH1 0x20 SWAP3 DUP4 MUL SWAP2 SWAP1 SWAP2 ADD DUP3 ADD MSTORE DUP2 PUSH1 0xA8 DUP2 MLOAD DUP2 LT PUSH2 0x49A1 JUMPI PUSH2 0x49A1 PUSH2 0x78E7 JUMP JUMPDEST PUSH2 0xFFFF SWAP1 SWAP3 AND PUSH1 0x20 SWAP3 DUP4 MUL SWAP2 SWAP1 SWAP2 ADD DUP3 ADD MSTORE DUP2 PUSH1 0xA9 DUP2 MLOAD DUP2 LT PUSH2 0x49C6 JUMPI PUSH2 0x49C6 PUSH2 0x78E7 JUMP JUMPDEST PUSH2 0xFFFF SWAP1 SWAP3 AND PUSH1 0x20 SWAP3 DUP4 MUL SWAP2 SWAP1 SWAP2 ADD SWAP1 SWAP2 ADD MSTORE PUSH1 0xD2 DUP2 PUSH1 0x2B DUP2 MLOAD DUP2 LT PUSH2 0x49EE JUMPI PUSH2 0x49EE PUSH2 0x78E7 JUMP JUMPDEST PUSH2 0xFFFF SWAP1 SWAP3 AND PUSH1 0x20 SWAP3 DUP4 MUL SWAP2 SWAP1 SWAP2 ADD SWAP1 SWAP2 ADD MSTORE PUSH1 0x96 DUP2 PUSH1 0x2E DUP2 MLOAD DUP2 LT PUSH2 0x4A16 JUMPI PUSH2 0x4A16 PUSH2 0x78E7 JUMP JUMPDEST PUSH2 0xFFFF SWAP1 SWAP3 AND PUSH1 0x20 SWAP3 DUP4 MUL SWAP2 SWAP1 SWAP2 ADD SWAP1 SWAP2 ADD MSTORE PUSH1 0x78 DUP2 PUSH1 0x2C DUP2 MLOAD DUP2 LT PUSH2 0x4A3E JUMPI PUSH2 0x4A3E PUSH2 0x78E7 JUMP JUMPDEST PUSH2 0xFFFF SWAP1 SWAP3 AND PUSH1 0x20 SWAP3 DUP4 MUL SWAP2 SWAP1 SWAP2 ADD SWAP1 SWAP2 ADD MSTORE PUSH1 0x64 DUP2 PUSH1 0x2F DUP2 MLOAD DUP2 LT PUSH2 0x4A66 JUMPI PUSH2 0x4A66 PUSH2 0x78E7 JUMP JUMPDEST PUSH2 0xFFFF SWAP1 SWAP3 AND PUSH1 0x20 SWAP3 DUP4 MUL SWAP2 SWAP1 SWAP2 ADD SWAP1 SWAP2 ADD MSTORE PUSH1 0x3C DUP2 PUSH1 0x36 DUP2 MLOAD DUP2 LT PUSH2 0x4A8E JUMPI PUSH2 0x4A8E PUSH2 0x78E7 JUMP JUMPDEST PUSH2 0xFFFF SWAP1 SWAP3 AND PUSH1 0x20 SWAP3 DUP4 MUL SWAP2 SWAP1 SWAP2 ADD SWAP1 SWAP2 ADD MSTORE PUSH1 0x1E DUP2 PUSH1 0x2D DUP2 MLOAD DUP2 LT PUSH2 0x4AB6 JUMPI PUSH2 0x4AB6 PUSH2 0x78E7 JUMP JUMPDEST PUSH2 0xFFFF SWAP1 SWAP3 AND PUSH1 0x20 SWAP3 DUP4 MUL SWAP2 SWAP1 SWAP2 ADD SWAP1 SWAP2 ADD MSTORE PUSH1 0x1E DUP2 PUSH1 0x30 DUP2 MLOAD DUP2 LT PUSH2 0x4ADE JUMPI PUSH2 0x4ADE PUSH2 0x78E7 JUMP JUMPDEST PUSH2 0xFFFF SWAP1 SWAP3 AND PUSH1 0x20 SWAP3 DUP4 MUL SWAP2 SWAP1 SWAP2 ADD SWAP1 SWAP2 ADD MSTORE PUSH1 0x1E DUP2 PUSH1 0x31 DUP2 MLOAD DUP2 LT PUSH2 0x4B06 JUMPI PUSH2 0x4B06 PUSH2 0x78E7 JUMP JUMPDEST PUSH2 0xFFFF SWAP1 SWAP3 AND PUSH1 0x20 SWAP3 DUP4 MUL SWAP2 SWAP1 SWAP2 ADD SWAP1 SWAP2 ADD MSTORE PUSH1 0x1E DUP2 PUSH1 0x32 DUP2 MLOAD DUP2 LT PUSH2 0x4B2E JUMPI PUSH2 0x4B2E PUSH2 0x78E7 JUMP JUMPDEST PUSH2 0xFFFF SWAP1 SWAP3 AND PUSH1 0x20 SWAP3 DUP4 MUL SWAP2 SWAP1 SWAP2 ADD SWAP1 SWAP2 ADD MSTORE PUSH1 0x1E DUP2 PUSH1 0x33 DUP2 MLOAD DUP2 LT PUSH2 0x4B56 JUMPI PUSH2 0x4B56 PUSH2 0x78E7 JUMP JUMPDEST PUSH2 0xFFFF SWAP1 SWAP3 AND PUSH1 0x20 SWAP3 DUP4 MUL SWAP2 SWAP1 SWAP2 ADD SWAP1 SWAP2 ADD MSTORE PUSH1 0x1E DUP2 PUSH1 0x34 DUP2 MLOAD DUP2 LT PUSH2 0x4B7E JUMPI PUSH2 0x4B7E PUSH2 0x78E7 JUMP JUMPDEST PUSH2 0xFFFF SWAP1 SWAP3 AND PUSH1 0x20 SWAP3 DUP4 MUL SWAP2 SWAP1 SWAP2 ADD SWAP1 SWAP2 ADD MSTORE PUSH1 0x1E DUP2 PUSH1 0x35 DUP2 MLOAD DUP2 LT PUSH2 0x4BA6 JUMPI PUSH2 0x4BA6 PUSH2 0x78E7 JUMP JUMPDEST PUSH2 0xFFFF SWAP1 SWAP3 AND PUSH1 0x20 SWAP3 DUP4 MUL SWAP2 SWAP1 SWAP2 ADD SWAP1 SWAP2 ADD MSTORE PUSH1 0xD2 DUP2 PUSH1 0x5F DUP2 MLOAD DUP2 LT PUSH2 0x4BCE JUMPI PUSH2 0x4BCE PUSH2 0x78E7 JUMP JUMPDEST PUSH2 0xFFFF SWAP1 SWAP3 AND PUSH1 0x20 SWAP3 DUP4 MUL SWAP2 SWAP1 SWAP2 ADD SWAP1 SWAP2 ADD MSTORE PUSH1 0x96 DUP2 PUSH1 0x62 DUP2 MLOAD DUP2 LT PUSH2 0x4BF6 JUMPI PUSH2 0x4BF6 PUSH2 0x78E7 JUMP JUMPDEST PUSH2 0xFFFF SWAP1 SWAP3 AND PUSH1 0x20 SWAP3 DUP4 MUL SWAP2 SWAP1 SWAP2 ADD SWAP1 SWAP2 ADD MSTORE PUSH1 0x78 DUP2 PUSH1 0x60 DUP2 MLOAD DUP2 LT PUSH2 0x4C1E JUMPI PUSH2 0x4C1E PUSH2 0x78E7 JUMP JUMPDEST PUSH2 0xFFFF SWAP1 SWAP3 AND PUSH1 0x20 SWAP3 DUP4 MUL SWAP2 SWAP1 SWAP2 ADD SWAP1 SWAP2 ADD MSTORE PUSH1 0x64 DUP2 PUSH1 0x63 DUP2 MLOAD DUP2 LT PUSH2 0x4C46 JUMPI PUSH2 0x4C46 PUSH2 0x78E7 JUMP JUMPDEST PUSH2 0xFFFF SWAP1 SWAP3 AND PUSH1 0x20 SWAP3 DUP4 MUL SWAP2 SWAP1 SWAP2 ADD SWAP1 SWAP2 ADD MSTORE PUSH1 0x3C DUP2 PUSH1 0x6A DUP2 MLOAD DUP2 LT PUSH2 0x4C6E JUMPI PUSH2 0x4C6E PUSH2 0x78E7 JUMP JUMPDEST PUSH2 0xFFFF SWAP1 SWAP3 AND PUSH1 0x20 SWAP3 DUP4 MUL SWAP2 SWAP1 SWAP2 ADD SWAP1 SWAP2 ADD MSTORE PUSH1 0x1E DUP2 PUSH1 0x61 DUP2 MLOAD DUP2 LT PUSH2 0x4C96 JUMPI PUSH2 0x4C96 PUSH2 0x78E7 JUMP JUMPDEST PUSH2 0xFFFF SWAP1 SWAP3 AND PUSH1 0x20 SWAP3 DUP4 MUL SWAP2 SWAP1 SWAP2 ADD SWAP1 SWAP2 ADD MSTORE PUSH1 0x1E DUP2 PUSH1 0x64 DUP2 MLOAD DUP2 LT PUSH2 0x4CBE JUMPI PUSH2 0x4CBE PUSH2 0x78E7 JUMP JUMPDEST PUSH2 0xFFFF SWAP1 SWAP3 AND PUSH1 0x20 SWAP3 DUP4 MUL SWAP2 SWAP1 SWAP2 ADD SWAP1 SWAP2 ADD MSTORE PUSH1 0x1E DUP2 PUSH1 0x65 DUP2 MLOAD DUP2 LT PUSH2 0x4CE6 JUMPI PUSH2 0x4CE6 PUSH2 0x78E7 JUMP JUMPDEST PUSH2 0xFFFF SWAP1 SWAP3 AND PUSH1 0x20 SWAP3 DUP4 MUL SWAP2 SWAP1 SWAP2 ADD SWAP1 SWAP2 ADD MSTORE PUSH1 0x1E DUP2 PUSH1 0x66 DUP2 MLOAD DUP2 LT PUSH2 0x4D0E JUMPI PUSH2 0x4D0E PUSH2 0x78E7 JUMP JUMPDEST PUSH2 0xFFFF SWAP1 SWAP3 AND PUSH1 0x20 SWAP3 DUP4 MUL SWAP2 SWAP1 SWAP2 ADD SWAP1 SWAP2 ADD MSTORE PUSH1 0x1E DUP2 PUSH1 0x67 DUP2 MLOAD DUP2 LT PUSH2 0x4D36 JUMPI PUSH2 0x4D36 PUSH2 0x78E7 JUMP JUMPDEST PUSH2 0xFFFF SWAP1 SWAP3 AND PUSH1 0x20 SWAP3 DUP4 MUL SWAP2 SWAP1 SWAP2 ADD SWAP1 SWAP2 ADD MSTORE PUSH1 0x1E DUP2 PUSH1 0x68 DUP2 MLOAD DUP2 LT PUSH2 0x4D5E JUMPI PUSH2 0x4D5E PUSH2 0x78E7 JUMP JUMPDEST PUSH2 0xFFFF SWAP1 SWAP3 AND PUSH1 0x20 SWAP3 DUP4 MUL SWAP2 SWAP1 SWAP2 ADD SWAP1 SWAP2 ADD MSTORE PUSH1 0x1E DUP2 PUSH1 0x69 DUP2 MLOAD DUP2 LT PUSH2 0x4D86 JUMPI PUSH2 0x4D86 PUSH2 0x78E7 JUMP JUMPDEST PUSH2 0xFFFF SWAP1 SWAP3 AND PUSH1 0x20 SWAP3 DUP4 MUL SWAP2 SWAP1 SWAP2 ADD SWAP1 SWAP2 ADD MSTORE PUSH1 0x4B DUP2 PUSH1 0xAB DUP2 MLOAD DUP2 LT PUSH2 0x4DAE JUMPI PUSH2 0x4DAE PUSH2 0x78E7 JUMP JUMPDEST PUSH2 0xFFFF SWAP1 SWAP3 AND PUSH1 0x20 SWAP3 DUP4 MUL SWAP2 SWAP1 SWAP2 ADD SWAP1 SWAP2 ADD MSTORE PUSH1 0x41 DUP2 PUSH1 0xAE DUP2 MLOAD DUP2 LT PUSH2 0x4DD6 JUMPI PUSH2 0x4DD6 PUSH2 0x78E7 JUMP JUMPDEST PUSH2 0xFFFF SWAP1 SWAP3 AND PUSH1 0x20 SWAP3 DUP4 MUL SWAP2 SWAP1 SWAP2 ADD SWAP1 SWAP2 ADD MSTORE PUSH1 0x32 DUP2 PUSH1 0xAC DUP2 MLOAD DUP2 LT PUSH2 0x4DFE JUMPI PUSH2 0x4DFE PUSH2 0x78E7 JUMP JUMPDEST PUSH2 0xFFFF SWAP1 SWAP3 AND PUSH1 0x20 SWAP3 DUP4 MUL SWAP2 SWAP1 SWAP2 ADD SWAP1 SWAP2 ADD MSTORE PUSH1 0x2D DUP2 PUSH1 0xAF DUP2 MLOAD DUP2 LT PUSH2 0x4E26 JUMPI PUSH2 0x4E26 PUSH2 0x78E7 JUMP JUMPDEST PUSH2 0xFFFF SWAP1 SWAP3 AND PUSH1 0x20 SWAP3 DUP4 MUL SWAP2 SWAP1 SWAP2 ADD SWAP1 SWAP2 ADD MSTORE PUSH1 0x1F DUP2 PUSH1 0xB6 DUP2 MLOAD DUP2 LT PUSH2 0x4E4E JUMPI PUSH2 0x4E4E PUSH2 0x78E7 JUMP JUMPDEST PUSH2 0xFFFF SWAP1 SWAP3 AND PUSH1 0x20 SWAP3 DUP4 MUL SWAP2 SWAP1 SWAP2 ADD SWAP1 SWAP2 ADD MSTORE PUSH1 0xC DUP2 PUSH1 0xAD DUP2 MLOAD DUP2 LT PUSH2 0x4E76 JUMPI PUSH2 0x4E76 PUSH2 0x78E7 JUMP JUMPDEST PUSH2 0xFFFF SWAP1 SWAP3 AND PUSH1 0x20 SWAP3 DUP4 MUL SWAP2 SWAP1 SWAP2 ADD SWAP1 SWAP2 ADD MSTORE PUSH1 0xC DUP2 PUSH1 0xB0 DUP2 MLOAD DUP2 LT PUSH2 0x4E9E JUMPI PUSH2 0x4E9E PUSH2 0x78E7 JUMP JUMPDEST PUSH2 0xFFFF SWAP1 SWAP3 AND PUSH1 0x20 SWAP3 DUP4 MUL SWAP2 SWAP1 SWAP2 ADD SWAP1 SWAP2 ADD MSTORE PUSH1 0xC DUP2 PUSH1 0xB1 DUP2 MLOAD DUP2 LT PUSH2 0x4EC6 JUMPI PUSH2 0x4EC6 PUSH2 0x78E7 JUMP JUMPDEST PUSH2 0xFFFF SWAP1 SWAP3 AND PUSH1 0x20 SWAP3 DUP4 MUL SWAP2 SWAP1 SWAP2 ADD SWAP1 SWAP2 ADD MSTORE PUSH1 0xC DUP2 PUSH1 0xB2 DUP2 MLOAD DUP2 LT PUSH2 0x4EEE JUMPI PUSH2 0x4EEE PUSH2 0x78E7 JUMP JUMPDEST PUSH2 0xFFFF SWAP1 SWAP3 AND PUSH1 0x20 SWAP3 DUP4 MUL SWAP2 SWAP1 SWAP2 ADD SWAP1 SWAP2 ADD MSTORE PUSH1 0xC DUP2 PUSH1 0xB3 DUP2 MLOAD DUP2 LT PUSH2 0x4F16 JUMPI PUSH2 0x4F16 PUSH2 0x78E7 JUMP JUMPDEST PUSH2 0xFFFF SWAP1 SWAP3 AND PUSH1 0x20 SWAP3 DUP4 MUL SWAP2 SWAP1 SWAP2 ADD SWAP1 SWAP2 ADD MSTORE PUSH1 0xC DUP2 PUSH1 0xB4 DUP2 MLOAD DUP2 LT PUSH2 0x4F3E JUMPI PUSH2 0x4F3E PUSH2 0x78E7 JUMP JUMPDEST PUSH2 0xFFFF SWAP1 SWAP3 AND PUSH1 0x20 SWAP3 DUP4 MUL SWAP2 SWAP1 SWAP2 ADD SWAP1 SWAP2 ADD MSTORE PUSH1 0xC DUP2 PUSH1 0xB5 DUP2 MLOAD DUP2 LT PUSH2 0x4F66 JUMPI PUSH2 0x4F66 PUSH2 0x78E7 JUMP JUMPDEST PUSH2 0xFFFF SWAP1 SWAP3 AND PUSH1 0x20 SWAP3 DUP4 MUL SWAP2 SWAP1 SWAP2 ADD SWAP1 SWAP2 ADD MSTORE PUSH1 0x4B DUP2 PUSH1 0x93 DUP2 MLOAD DUP2 LT PUSH2 0x4F8E JUMPI PUSH2 0x4F8E PUSH2 0x78E7 JUMP JUMPDEST PUSH2 0xFFFF SWAP1 SWAP3 AND PUSH1 0x20 SWAP3 DUP4 MUL SWAP2 SWAP1 SWAP2 ADD SWAP1 SWAP2 ADD MSTORE PUSH1 0x41 DUP2 PUSH1 0x96 DUP2 MLOAD DUP2 LT PUSH2 0x4FB6 JUMPI PUSH2 0x4FB6 PUSH2 0x78E7 JUMP JUMPDEST PUSH2 0xFFFF SWAP1 SWAP3 AND PUSH1 0x20 SWAP3 DUP4 MUL SWAP2 SWAP1 SWAP2 ADD SWAP1 SWAP2 ADD MSTORE PUSH1 0x32 DUP2 PUSH1 0x94 DUP2 MLOAD DUP2 LT PUSH2 0x4FDE JUMPI PUSH2 0x4FDE PUSH2 0x78E7 JUMP JUMPDEST PUSH2 0xFFFF SWAP1 SWAP3 AND PUSH1 0x20 SWAP3 DUP4 MUL SWAP2 SWAP1 SWAP2 ADD SWAP1 SWAP2 ADD MSTORE PUSH1 0x2D DUP2 PUSH1 0x97 DUP2 MLOAD DUP2 LT PUSH2 0x5006 JUMPI PUSH2 0x5006 PUSH2 0x78E7 JUMP JUMPDEST PUSH2 0xFFFF SWAP1 SWAP3 AND PUSH1 0x20 SWAP3 DUP4 MUL SWAP2 SWAP1 SWAP2 ADD SWAP1 SWAP2 ADD MSTORE PUSH1 0x1F DUP2 PUSH1 0x9E DUP2 MLOAD DUP2 LT PUSH2 0x502E JUMPI PUSH2 0x502E PUSH2 0x78E7 JUMP JUMPDEST PUSH2 0xFFFF SWAP1 SWAP3 AND PUSH1 0x20 SWAP3 DUP4 MUL SWAP2 SWAP1 SWAP2 ADD SWAP1 SWAP2 ADD MSTORE PUSH1 0xC DUP2 PUSH1 0x95 DUP2 MLOAD DUP2 LT PUSH2 0x5056 JUMPI PUSH2 0x5056 PUSH2 0x78E7 JUMP JUMPDEST PUSH2 0xFFFF SWAP1 SWAP3 AND PUSH1 0x20 SWAP3 DUP4 MUL SWAP2 SWAP1 SWAP2 ADD SWAP1 SWAP2 ADD MSTORE PUSH1 0xC DUP2 PUSH1 0x98 DUP2 MLOAD DUP2 LT PUSH2 0x507E JUMPI PUSH2 0x507E PUSH2 0x78E7 JUMP JUMPDEST PUSH2 0xFFFF SWAP1 SWAP3 AND PUSH1 0x20 SWAP3 DUP4 MUL SWAP2 SWAP1 SWAP2 ADD SWAP1 SWAP2 ADD MSTORE PUSH1 0xC DUP2 PUSH1 0x99 DUP2 MLOAD DUP2 LT PUSH2 0x50A6 JUMPI PUSH2 0x50A6 PUSH2 0x78E7 JUMP JUMPDEST PUSH2 0xFFFF SWAP1 SWAP3 AND PUSH1 0x20 SWAP3 DUP4 MUL SWAP2 SWAP1 SWAP2 ADD SWAP1 SWAP2 ADD MSTORE PUSH1 0xC DUP2 PUSH1 0x9A DUP2 MLOAD DUP2 LT PUSH2 0x50CE JUMPI PUSH2 0x50CE PUSH2 0x78E7 JUMP JUMPDEST PUSH2 0xFFFF SWAP1 SWAP3 AND PUSH1 0x20 SWAP3 DUP4 MUL SWAP2 SWAP1 SWAP2 ADD SWAP1 SWAP2 ADD MSTORE PUSH1 0xC DUP2 PUSH1 0x9B DUP2 MLOAD DUP2 LT PUSH2 0x50F6 JUMPI PUSH2 0x50F6 PUSH2 0x78E7 JUMP JUMPDEST PUSH2 0xFFFF SWAP1 SWAP3 AND PUSH1 0x20 SWAP3 DUP4 MUL SWAP2 SWAP1 SWAP2 ADD SWAP1 SWAP2 ADD MSTORE PUSH1 0xC DUP2 PUSH1 0x9C DUP2 MLOAD DUP2 LT PUSH2 0x511E JUMPI PUSH2 0x511E PUSH2 0x78E7 JUMP JUMPDEST PUSH2 0xFFFF SWAP1 SWAP3 AND PUSH1 0x20 SWAP3 DUP4 MUL SWAP2 SWAP1 SWAP2 ADD SWAP1 SWAP2 ADD MSTORE PUSH1 0xC DUP2 PUSH1 0x9D DUP2 MLOAD DUP2 LT PUSH2 0x5146 JUMPI PUSH2 0x5146 PUSH2 0x78E7 JUMP JUMPDEST PUSH2 0xFFFF SWAP1 SWAP3 AND PUSH1 0x20 SWAP3 DUP4 MUL SWAP2 SWAP1 SWAP2 ADD SWAP1 SWAP2 ADD MSTORE PUSH1 0x4B DUP2 PUSH1 0x37 DUP2 MLOAD DUP2 LT PUSH2 0x516E JUMPI PUSH2 0x516E PUSH2 0x78E7 JUMP JUMPDEST PUSH2 0xFFFF SWAP1 SWAP3 AND PUSH1 0x20 SWAP3 DUP4 MUL SWAP2 SWAP1 SWAP2 ADD SWAP1 SWAP2 ADD MSTORE PUSH1 0x41 DUP2 PUSH1 0x3A DUP2 MLOAD DUP2 LT PUSH2 0x5196 JUMPI PUSH2 0x5196 PUSH2 0x78E7 JUMP JUMPDEST PUSH2 0xFFFF SWAP1 SWAP3 AND PUSH1 0x20 SWAP3 DUP4 MUL SWAP2 SWAP1 SWAP2 ADD SWAP1 SWAP2 ADD MSTORE PUSH1 0x32 DUP2 PUSH1 0x38 DUP2 MLOAD DUP2 LT PUSH2 0x51BE JUMPI PUSH2 0x51BE PUSH2 0x78E7 JUMP JUMPDEST PUSH2 0xFFFF SWAP1 SWAP3 AND PUSH1 0x20 SWAP3 DUP4 MUL SWAP2 SWAP1 SWAP2 ADD SWAP1 SWAP2 ADD MSTORE PUSH1 0x2D DUP2 PUSH1 0x3B DUP2 MLOAD DUP2 LT PUSH2 0x51E6 JUMPI PUSH2 0x51E6 PUSH2 0x78E7 JUMP JUMPDEST PUSH2 0xFFFF SWAP1 SWAP3 AND PUSH1 0x20 SWAP3 DUP4 MUL SWAP2 SWAP1 SWAP2 ADD SWAP1 SWAP2 ADD MSTORE PUSH1 0x1F DUP2 PUSH1 0x42 DUP2 MLOAD DUP2 LT PUSH2 0x520E JUMPI PUSH2 0x520E PUSH2 0x78E7 JUMP JUMPDEST PUSH2 0xFFFF SWAP1 SWAP3 AND PUSH1 0x20 SWAP3 DUP4 MUL SWAP2 SWAP1 SWAP2 ADD SWAP1 SWAP2 ADD MSTORE PUSH1 0xC DUP2 PUSH1 0x39 DUP2 MLOAD DUP2 LT PUSH2 0x5236 JUMPI PUSH2 0x5236 PUSH2 0x78E7 JUMP JUMPDEST PUSH2 0xFFFF SWAP1 SWAP3 AND PUSH1 0x20 SWAP3 DUP4 MUL SWAP2 SWAP1 SWAP2 ADD SWAP1 SWAP2 ADD MSTORE PUSH1 0xC DUP2 PUSH1 0x3C DUP2 MLOAD DUP2 LT PUSH2 0x525E JUMPI PUSH2 0x525E PUSH2 0x78E7 JUMP JUMPDEST PUSH2 0xFFFF SWAP1 SWAP3 AND PUSH1 0x20 SWAP3 DUP4 MUL SWAP2 SWAP1 SWAP2 ADD SWAP1 SWAP2 ADD MSTORE PUSH1 0xC DUP2 PUSH1 0x3D DUP2 MLOAD DUP2 LT PUSH2 0x5286 JUMPI PUSH2 0x5286 PUSH2 0x78E7 JUMP JUMPDEST PUSH2 0xFFFF SWAP1 SWAP3 AND PUSH1 0x20 SWAP3 DUP4 MUL SWAP2 SWAP1 SWAP2 ADD SWAP1 SWAP2 ADD MSTORE PUSH1 0xC DUP2 PUSH1 0x3E DUP2 MLOAD DUP2 LT PUSH2 0x52AE JUMPI PUSH2 0x52AE PUSH2 0x78E7 JUMP JUMPDEST PUSH2 0xFFFF SWAP1 SWAP3 AND PUSH1 0x20 SWAP3 DUP4 MUL SWAP2 SWAP1 SWAP2 ADD SWAP1 SWAP2 ADD MSTORE PUSH1 0xC DUP2 PUSH1 0x3F DUP2 MLOAD DUP2 LT PUSH2 0x52D6 JUMPI PUSH2 0x52D6 PUSH2 0x78E7 JUMP JUMPDEST PUSH2 0xFFFF SWAP1 SWAP3 AND PUSH1 0x20 SWAP3 DUP4 MUL SWAP2 SWAP1 SWAP2 ADD SWAP1 SWAP2 ADD MSTORE PUSH1 0xC DUP2 PUSH1 0x40 DUP2 MLOAD DUP2 LT PUSH2 0x52FE JUMPI PUSH2 0x52FE PUSH2 0x78E7 JUMP JUMPDEST PUSH2 0xFFFF SWAP1 SWAP3 AND PUSH1 0x20 SWAP3 DUP4 MUL SWAP2 SWAP1 SWAP2 ADD SWAP1 SWAP2 ADD MSTORE PUSH1 0xC DUP2 PUSH1 0x41 DUP2 MLOAD DUP2 LT PUSH2 0x5326 JUMPI PUSH2 0x5326 PUSH2 0x78E7 JUMP JUMPDEST PUSH2 0xFFFF SWAP1 SWAP3 AND PUSH1 0x20 SWAP3 DUP4 MUL SWAP2 SWAP1 SWAP2 ADD SWAP1 SWAP2 ADD MSTORE PUSH1 0x4B DUP2 PUSH1 0xB7 DUP2 MLOAD DUP2 LT PUSH2 0x534E JUMPI PUSH2 0x534E PUSH2 0x78E7 JUMP JUMPDEST PUSH2 0xFFFF SWAP1 SWAP3 AND PUSH1 0x20 SWAP3 DUP4 MUL SWAP2 SWAP1 SWAP2 ADD SWAP1 SWAP2 ADD MSTORE PUSH1 0x41 DUP2 PUSH1 0xBA DUP2 MLOAD DUP2 LT PUSH2 0x5376 JUMPI PUSH2 0x5376 PUSH2 0x78E7 JUMP JUMPDEST PUSH2 0xFFFF SWAP1 SWAP3 AND PUSH1 0x20 SWAP3 DUP4 MUL SWAP2 SWAP1 SWAP2 ADD SWAP1 SWAP2 ADD MSTORE PUSH1 0x32 DUP2 PUSH1 0xB8 DUP2 MLOAD DUP2 LT PUSH2 0x539E JUMPI PUSH2 0x539E PUSH2 0x78E7 JUMP JUMPDEST PUSH2 0xFFFF SWAP1 SWAP3 AND PUSH1 0x20 SWAP3 DUP4 MUL SWAP2 SWAP1 SWAP2 ADD SWAP1 SWAP2 ADD MSTORE PUSH1 0x2D DUP2 PUSH1 0xBB DUP2 MLOAD DUP2 LT PUSH2 0x53C6 JUMPI PUSH2 0x53C6 PUSH2 0x78E7 JUMP JUMPDEST PUSH2 0xFFFF SWAP1 SWAP3 AND PUSH1 0x20 SWAP3 DUP4 MUL SWAP2 SWAP1 SWAP2 ADD SWAP1 SWAP2 ADD MSTORE PUSH1 0x1F DUP2 PUSH1 0xC2 DUP2 MLOAD DUP2 LT PUSH2 0x53EE JUMPI PUSH2 0x53EE PUSH2 0x78E7 JUMP JUMPDEST PUSH2 0xFFFF SWAP1 SWAP3 AND PUSH1 0x20 SWAP3 DUP4 MUL SWAP2 SWAP1 SWAP2 ADD SWAP1 SWAP2 ADD MSTORE PUSH1 0xC DUP2 PUSH1 0xB9 DUP2 MLOAD DUP2 LT PUSH2 0x5416 JUMPI PUSH2 0x5416 PUSH2 0x78E7 JUMP JUMPDEST PUSH2 0xFFFF SWAP1 SWAP3 AND PUSH1 0x20 SWAP3 DUP4 MUL SWAP2 SWAP1 SWAP2 ADD SWAP1 SWAP2 ADD MSTORE PUSH1 0xC DUP2 PUSH1 0xBC DUP2 MLOAD DUP2 LT PUSH2 0x543E JUMPI PUSH2 0x543E PUSH2 0x78E7 JUMP JUMPDEST PUSH2 0xFFFF SWAP1 SWAP3 AND PUSH1 0x20 SWAP3 DUP4 MUL SWAP2 SWAP1 SWAP2 ADD SWAP1 SWAP2 ADD MSTORE PUSH1 0xC DUP2 PUSH1 0xBD DUP2 MLOAD DUP2 LT PUSH2 0x5466 JUMPI PUSH2 0x5466 PUSH2 0x78E7 JUMP JUMPDEST PUSH2 0xFFFF SWAP1 SWAP3 AND PUSH1 0x20 SWAP3 DUP4 MUL SWAP2 SWAP1 SWAP2 ADD SWAP1 SWAP2 ADD MSTORE PUSH1 0xC DUP2 PUSH1 0xBE DUP2 MLOAD DUP2 LT PUSH2 0x548E JUMPI PUSH2 0x548E PUSH2 0x78E7 JUMP JUMPDEST PUSH2 0xFFFF SWAP1 SWAP3 AND PUSH1 0x20 SWAP3 DUP4 MUL SWAP2 SWAP1 SWAP2 ADD SWAP1 SWAP2 ADD MSTORE PUSH1 0xC DUP2 PUSH1 0xBF DUP2 MLOAD DUP2 LT PUSH2 0x54B6 JUMPI PUSH2 0x54B6 PUSH2 0x78E7 JUMP JUMPDEST PUSH2 0xFFFF SWAP1 SWAP3 AND PUSH1 0x20 SWAP3 DUP4 MUL SWAP2 SWAP1 SWAP2 ADD SWAP1 SWAP2 ADD MSTORE PUSH1 0xC DUP2 PUSH1 0xC0 DUP2 MLOAD DUP2 LT PUSH2 0x54DE JUMPI PUSH2 0x54DE PUSH2 0x78E7 JUMP JUMPDEST PUSH2 0xFFFF SWAP1 SWAP3 AND PUSH1 0x20 SWAP3 DUP4 MUL SWAP2 SWAP1 SWAP2 ADD SWAP1 SWAP2 ADD MSTORE PUSH1 0xC DUP2 PUSH1 0xC1 DUP2 MLOAD DUP2 LT PUSH2 0x5506 JUMPI PUSH2 0x5506 PUSH2 0x78E7 JUMP JUMPDEST PUSH2 0xFFFF SWAP1 SWAP3 AND PUSH1 0x20 SWAP3 DUP4 MUL SWAP2 SWAP1 SWAP2 ADD SWAP1 SWAP2 ADD MSTORE PUSH1 0x4B DUP2 PUSH1 0x43 DUP2 MLOAD DUP2 LT PUSH2 0x552E JUMPI PUSH2 0x552E PUSH2 0x78E7 JUMP JUMPDEST PUSH2 0xFFFF SWAP1 SWAP3 AND PUSH1 0x20 SWAP3 DUP4 MUL SWAP2 SWAP1 SWAP2 ADD SWAP1 SWAP2 ADD MSTORE PUSH1 0x37 DUP2 PUSH1 0x46 DUP2 MLOAD DUP2 LT PUSH2 0x5556 JUMPI PUSH2 0x5556 PUSH2 0x78E7 JUMP JUMPDEST PUSH2 0xFFFF SWAP1 SWAP3 AND PUSH1 0x20 SWAP3 DUP4 MUL SWAP2 SWAP1 SWAP2 ADD SWAP1 SWAP2 ADD MSTORE PUSH1 0x2D DUP2 PUSH1 0x44 DUP2 MLOAD DUP2 LT PUSH2 0x557E JUMPI PUSH2 0x557E PUSH2 0x78E7 JUMP JUMPDEST PUSH2 0xFFFF SWAP1 SWAP3 AND PUSH1 0x20 SWAP3 DUP4 MUL SWAP2 SWAP1 SWAP2 ADD SWAP1 SWAP2 ADD MSTORE PUSH1 0x23 DUP2 PUSH1 0x47 DUP2 MLOAD DUP2 LT PUSH2 0x55A6 JUMPI PUSH2 0x55A6 PUSH2 0x78E7 JUMP JUMPDEST PUSH2 0xFFFF SWAP1 SWAP3 AND PUSH1 0x20 SWAP3 DUP4 MUL SWAP2 SWAP1 SWAP2 ADD SWAP1 SWAP2 ADD MSTORE PUSH1 0x11 DUP2 PUSH1 0x52 DUP2 MLOAD DUP2 LT PUSH2 0x55CE JUMPI PUSH2 0x55CE PUSH2 0x78E7 JUMP JUMPDEST PUSH2 0xFFFF SWAP1 SWAP3 AND PUSH1 0x20 SWAP3 DUP4 MUL SWAP2 SWAP1 SWAP2 ADD SWAP1 SWAP2 ADD MSTORE PUSH1 0x7 DUP2 PUSH1 0x45 DUP2 MLOAD DUP2 LT PUSH2 0x55F6 JUMPI PUSH2 0x55F6 PUSH2 0x78E7 JUMP JUMPDEST PUSH2 0xFFFF SWAP1 SWAP3 AND PUSH1 0x20 SWAP3 DUP4 MUL SWAP2 SWAP1 SWAP2 ADD SWAP1 SWAP2 ADD MSTORE PUSH1 0x7 DUP2 PUSH1 0x48 DUP2 MLOAD DUP2 LT PUSH2 0x561E JUMPI PUSH2 0x561E PUSH2 0x78E7 JUMP JUMPDEST PUSH2 0xFFFF SWAP1 SWAP3 AND PUSH1 0x20 SWAP3 DUP4 MUL SWAP2 SWAP1 SWAP2 ADD SWAP1 SWAP2 ADD MSTORE PUSH1 0x7 DUP2 PUSH1 0x4D DUP2 MLOAD DUP2 LT PUSH2 0x5646 JUMPI PUSH2 0x5646 PUSH2 0x78E7 JUMP JUMPDEST PUSH2 0xFFFF SWAP1 SWAP3 AND PUSH1 0x20 SWAP3 DUP4 MUL SWAP2 SWAP1 SWAP2 ADD SWAP1 SWAP2 ADD MSTORE PUSH1 0x7 DUP2 PUSH1 0x4E DUP2 MLOAD DUP2 LT PUSH2 0x566E JUMPI PUSH2 0x566E PUSH2 0x78E7 JUMP JUMPDEST PUSH2 0xFFFF SWAP1 SWAP3 AND PUSH1 0x20 SWAP3 DUP4 MUL SWAP2 SWAP1 SWAP2 ADD SWAP1 SWAP2 ADD MSTORE PUSH1 0x7 DUP2 PUSH1 0x4F DUP2 MLOAD DUP2 LT PUSH2 0x5696 JUMPI PUSH2 0x5696 PUSH2 0x78E7 JUMP JUMPDEST PUSH2 0xFFFF SWAP1 SWAP3 AND PUSH1 0x20 SWAP3 DUP4 MUL SWAP2 SWAP1 SWAP2 ADD SWAP1 SWAP2 ADD MSTORE PUSH1 0x7 DUP2 PUSH1 0x50 DUP2 MLOAD DUP2 LT PUSH2 0x56BE JUMPI PUSH2 0x56BE PUSH2 0x78E7 JUMP JUMPDEST PUSH2 0xFFFF SWAP1 SWAP3 AND PUSH1 0x20 SWAP3 DUP4 MUL SWAP2 SWAP1 SWAP2 ADD SWAP1 SWAP2 ADD MSTORE PUSH1 0x7 DUP2 PUSH1 0x51 DUP2 MLOAD DUP2 LT PUSH2 0x56E6 JUMPI PUSH2 0x56E6 PUSH2 0x78E7 JUMP JUMPDEST PUSH2 0xFFFF SWAP1 SWAP3 AND PUSH1 0x20 SWAP3 DUP4 MUL SWAP2 SWAP1 SWAP2 ADD SWAP1 SWAP2 ADD MSTORE PUSH1 0x6 DUP2 PUSH1 0x49 DUP2 MLOAD DUP2 LT PUSH2 0x570E JUMPI PUSH2 0x570E PUSH2 0x78E7 JUMP JUMPDEST PUSH2 0xFFFF SWAP1 SWAP3 AND PUSH1 0x20 SWAP3 DUP4 MUL SWAP2 SWAP1 SWAP2 ADD SWAP1 SWAP2 ADD MSTORE PUSH1 0x6 DUP2 PUSH1 0x4A DUP2 MLOAD DUP2 LT PUSH2 0x5736 JUMPI PUSH2 0x5736 PUSH2 0x78E7 JUMP JUMPDEST PUSH2 0xFFFF SWAP1 SWAP3 AND PUSH1 0x20 SWAP3 DUP4 MUL SWAP2 SWAP1 SWAP2 ADD SWAP1 SWAP2 ADD MSTORE PUSH1 0x6 DUP2 PUSH1 0x4B DUP2 MLOAD DUP2 LT PUSH2 0x575E JUMPI PUSH2 0x575E PUSH2 0x78E7 JUMP JUMPDEST PUSH2 0xFFFF SWAP1 SWAP3 AND PUSH1 0x20 SWAP3 DUP4 MUL SWAP2 SWAP1 SWAP2 ADD SWAP1 SWAP2 ADD MSTORE PUSH1 0x6 DUP2 PUSH1 0x4C DUP2 MLOAD DUP2 LT PUSH2 0x5786 JUMPI PUSH2 0x5786 PUSH2 0x78E7 JUMP JUMPDEST PUSH2 0xFFFF SWAP1 SWAP3 AND PUSH1 0x20 SWAP3 DUP4 MUL SWAP2 SWAP1 SWAP2 ADD SWAP1 SWAP2 ADD MSTORE PUSH1 0x49 DUP2 PUSH1 0x7B DUP2 MLOAD DUP2 LT PUSH2 0x57AE JUMPI PUSH2 0x57AE PUSH2 0x78E7 JUMP JUMPDEST PUSH2 0xFFFF SWAP1 SWAP3 AND PUSH1 0x20 SWAP3 DUP4 MUL SWAP2 SWAP1 SWAP2 ADD SWAP1 SWAP2 ADD MSTORE PUSH1 0x37 DUP2 PUSH1 0x7E DUP2 MLOAD DUP2 LT PUSH2 0x57D6 JUMPI PUSH2 0x57D6 PUSH2 0x78E7 JUMP JUMPDEST PUSH2 0xFFFF SWAP1 SWAP3 AND PUSH1 0x20 SWAP3 DUP4 MUL SWAP2 SWAP1 SWAP2 ADD SWAP1 SWAP2 ADD MSTORE PUSH1 0x2D DUP2 PUSH1 0x7C DUP2 MLOAD DUP2 LT PUSH2 0x57FE JUMPI PUSH2 0x57FE PUSH2 0x78E7 JUMP JUMPDEST PUSH2 0xFFFF SWAP1 SWAP3 AND PUSH1 0x20 SWAP3 DUP4 MUL SWAP2 SWAP1 SWAP2 ADD SWAP1 SWAP2 ADD MSTORE PUSH1 0x23 DUP2 PUSH1 0x7F DUP2 MLOAD DUP2 LT PUSH2 0x5826 JUMPI PUSH2 0x5826 PUSH2 0x78E7 JUMP JUMPDEST PUSH2 0xFFFF SWAP1 SWAP3 AND PUSH1 0x20 SWAP3 DUP4 MUL SWAP2 SWAP1 SWAP2 ADD SWAP1 SWAP2 ADD MSTORE PUSH1 0xF DUP2 PUSH1 0x86 DUP2 MLOAD DUP2 LT PUSH2 0x584E JUMPI PUSH2 0x584E PUSH2 0x78E7 JUMP JUMPDEST PUSH2 0xFFFF SWAP1 SWAP3 AND PUSH1 0x20 SWAP3 DUP4 MUL SWAP2 SWAP1 SWAP2 ADD SWAP1 SWAP2 ADD MSTORE PUSH1 0xB DUP2 PUSH1 0x7D DUP2 MLOAD DUP2 LT PUSH2 0x5876 JUMPI PUSH2 0x5876 PUSH2 0x78E7 JUMP JUMPDEST PUSH2 0xFFFF SWAP1 SWAP3 AND PUSH1 0x20 SWAP3 DUP4 MUL SWAP2 SWAP1 SWAP2 ADD SWAP1 SWAP2 ADD MSTORE PUSH1 0xB DUP2 PUSH1 0x80 DUP2 MLOAD DUP2 LT PUSH2 0x589E JUMPI PUSH2 0x589E PUSH2 0x78E7 JUMP JUMPDEST PUSH2 0xFFFF SWAP1 SWAP3 AND PUSH1 0x20 SWAP3 DUP4 MUL SWAP2 SWAP1 SWAP2 ADD SWAP1 SWAP2 ADD MSTORE PUSH1 0xB DUP2 PUSH1 0x81 DUP2 MLOAD DUP2 LT PUSH2 0x58C6 JUMPI PUSH2 0x58C6 PUSH2 0x78E7 JUMP JUMPDEST PUSH2 0xFFFF SWAP1 SWAP3 AND PUSH1 0x20 SWAP3 DUP4 MUL SWAP2 SWAP1 SWAP2 ADD SWAP1 SWAP2 ADD MSTORE PUSH1 0xB DUP2 PUSH1 0x82 DUP2 MLOAD DUP2 LT PUSH2 0x58EE JUMPI PUSH2 0x58EE PUSH2 0x78E7 JUMP JUMPDEST PUSH2 0xFFFF SWAP1 SWAP3 AND PUSH1 0x20 SWAP3 DUP4 MUL SWAP2 SWAP1 SWAP2 ADD SWAP1 SWAP2 ADD MSTORE PUSH1 0xB DUP2 PUSH1 0x83 DUP2 MLOAD DUP2 LT PUSH2 0x5916 JUMPI PUSH2 0x5916 PUSH2 0x78E7 JUMP JUMPDEST PUSH2 0xFFFF SWAP1 SWAP3 AND PUSH1 0x20 SWAP3 DUP4 MUL SWAP2 SWAP1 SWAP2 ADD SWAP1 SWAP2 ADD MSTORE PUSH1 0xB DUP2 PUSH1 0x84 DUP2 MLOAD DUP2 LT PUSH2 0x593E JUMPI PUSH2 0x593E PUSH2 0x78E7 JUMP JUMPDEST PUSH2 0xFFFF SWAP1 SWAP3 AND PUSH1 0x20 SWAP3 DUP4 MUL SWAP2 SWAP1 SWAP2 ADD SWAP1 SWAP2 ADD MSTORE PUSH1 0xB DUP2 PUSH1 0x85 DUP2 MLOAD DUP2 LT PUSH2 0x5966 JUMPI PUSH2 0x5966 PUSH2 0x78E7 JUMP JUMPDEST PUSH2 0xFFFF SWAP1 SWAP3 AND PUSH1 0x20 SWAP3 DUP4 MUL SWAP2 SWAP1 SWAP2 ADD SWAP1 SWAP2 ADD MSTORE PUSH1 0x3C DUP2 PUSH1 0x6B DUP2 MLOAD DUP2 LT PUSH2 0x598E JUMPI PUSH2 0x598E PUSH2 0x78E7 JUMP JUMPDEST PUSH2 0xFFFF SWAP1 SWAP3 AND PUSH1 0x20 SWAP3 DUP4 MUL SWAP2 SWAP1 SWAP2 ADD SWAP1 SWAP2 ADD MSTORE PUSH1 0x2D DUP2 PUSH1 0x6C DUP2 MLOAD DUP2 LT PUSH2 0x59B6 JUMPI PUSH2 0x59B6 PUSH2 0x78E7 JUMP JUMPDEST PUSH2 0xFFFF SWAP1 SWAP3 AND PUSH1 0x20 SWAP3 DUP4 MUL SWAP2 SWAP1 SWAP2 ADD SWAP1 SWAP2 ADD MSTORE PUSH1 0x23 DUP2 PUSH1 0x6E DUP2 MLOAD DUP2 LT PUSH2 0x59DE JUMPI PUSH2 0x59DE PUSH2 0x78E7 JUMP JUMPDEST PUSH2 0xFFFF SWAP1 SWAP3 AND PUSH1 0x20 SWAP3 DUP4 MUL SWAP2 SWAP1 SWAP2 ADD SWAP1 SWAP2 ADD MSTORE PUSH1 0x14 DUP2 PUSH1 0x6F DUP2 MLOAD DUP2 LT PUSH2 0x5A06 JUMPI PUSH2 0x5A06 PUSH2 0x78E7 JUMP JUMPDEST PUSH2 0xFFFF SWAP1 SWAP3 AND PUSH1 0x20 SWAP3 DUP4 MUL SWAP2 SWAP1 SWAP2 ADD SWAP1 SWAP2 ADD MSTORE PUSH1 0xF DUP2 PUSH1 0x7A DUP2 MLOAD DUP2 LT PUSH2 0x5A2E JUMPI PUSH2 0x5A2E PUSH2 0x78E7 JUMP JUMPDEST PUSH2 0xFFFF SWAP1 SWAP3 AND PUSH1 0x20 SWAP3 DUP4 MUL SWAP2 SWAP1 SWAP2 ADD SWAP1 SWAP2 ADD MSTORE PUSH1 0x9 DUP2 PUSH1 0x6D DUP2 MLOAD DUP2 LT PUSH2 0x5A56 JUMPI PUSH2 0x5A56 PUSH2 0x78E7 JUMP JUMPDEST PUSH2 0xFFFF SWAP1 SWAP3 AND PUSH1 0x20 SWAP3 DUP4 MUL SWAP2 SWAP1 SWAP2 ADD SWAP1 SWAP2 ADD MSTORE PUSH1 0x9 DUP2 PUSH1 0x70 DUP2 MLOAD DUP2 LT PUSH2 0x5A7E JUMPI PUSH2 0x5A7E PUSH2 0x78E7 JUMP JUMPDEST PUSH2 0xFFFF SWAP1 SWAP3 AND PUSH1 0x20 SWAP3 DUP4 MUL SWAP2 SWAP1 SWAP2 ADD SWAP1 SWAP2 ADD MSTORE PUSH1 0x9 DUP2 PUSH1 0x75 DUP2 MLOAD DUP2 LT PUSH2 0x5AA6 JUMPI PUSH2 0x5AA6 PUSH2 0x78E7 JUMP JUMPDEST PUSH2 0xFFFF SWAP1 SWAP3 AND PUSH1 0x20 SWAP3 DUP4 MUL SWAP2 SWAP1 SWAP2 ADD SWAP1 SWAP2 ADD MSTORE PUSH1 0x9 DUP2 PUSH1 0x76 DUP2 MLOAD DUP2 LT PUSH2 0x5ACE JUMPI PUSH2 0x5ACE PUSH2 0x78E7 JUMP JUMPDEST PUSH2 0xFFFF SWAP1 SWAP3 AND PUSH1 0x20 SWAP3 DUP4 MUL SWAP2 SWAP1 SWAP2 ADD SWAP1 SWAP2 ADD MSTORE PUSH1 0x9 DUP2 PUSH1 0x77 DUP2 MLOAD DUP2 LT PUSH2 0x5AF6 JUMPI PUSH2 0x5AF6 PUSH2 0x78E7 JUMP JUMPDEST PUSH2 0xFFFF SWAP1 SWAP3 AND PUSH1 0x20 SWAP3 DUP4 MUL SWAP2 SWAP1 SWAP2 ADD SWAP1 SWAP2 ADD MSTORE PUSH1 0x9 DUP2 PUSH1 0x78 DUP2 MLOAD DUP2 LT PUSH2 0x5B1E JUMPI PUSH2 0x5B1E PUSH2 0x78E7 JUMP JUMPDEST PUSH2 0xFFFF SWAP1 SWAP3 AND PUSH1 0x20 SWAP3 DUP4 MUL SWAP2 SWAP1 SWAP2 ADD SWAP1 SWAP2 ADD MSTORE PUSH1 0x9 DUP2 PUSH1 0x79 DUP2 MLOAD DUP2 LT PUSH2 0x5B46 JUMPI PUSH2 0x5B46 PUSH2 0x78E7 JUMP JUMPDEST PUSH2 0xFFFF SWAP1 SWAP3 AND PUSH1 0x20 SWAP3 DUP4 MUL SWAP2 SWAP1 SWAP2 ADD SWAP1 SWAP2 ADD MSTORE PUSH1 0x3 DUP2 PUSH1 0x71 DUP2 MLOAD DUP2 LT PUSH2 0x5B6E JUMPI PUSH2 0x5B6E PUSH2 0x78E7 JUMP JUMPDEST PUSH2 0xFFFF SWAP1 SWAP3 AND PUSH1 0x20 SWAP3 DUP4 MUL SWAP2 SWAP1 SWAP2 ADD SWAP1 SWAP2 ADD MSTORE PUSH1 0x3 DUP2 PUSH1 0x72 DUP2 MLOAD DUP2 LT PUSH2 0x5B96 JUMPI PUSH2 0x5B96 PUSH2 0x78E7 JUMP JUMPDEST PUSH2 0xFFFF SWAP1 SWAP3 AND PUSH1 0x20 SWAP3 DUP4 MUL SWAP2 SWAP1 SWAP2 ADD SWAP1 SWAP2 ADD MSTORE PUSH1 0x3 DUP2 PUSH1 0x73 DUP2 MLOAD DUP2 LT PUSH2 0x5BBE JUMPI PUSH2 0x5BBE PUSH2 0x78E7 JUMP JUMPDEST PUSH2 0xFFFF SWAP1 SWAP3 AND PUSH1 0x20 SWAP3 DUP4 MUL SWAP2 SWAP1 SWAP2 ADD SWAP1 SWAP2 ADD MSTORE PUSH1 0x3 DUP2 PUSH1 0x74 DUP2 MLOAD DUP2 LT PUSH2 0x5BE6 JUMPI PUSH2 0x5BE6 PUSH2 0x78E7 JUMP JUMPDEST PUSH2 0xFFFF SWAP1 SWAP3 AND PUSH1 0x20 SWAP3 DUP4 MUL SWAP2 SWAP1 SWAP2 ADD SWAP1 SWAP2 ADD MSTORE PUSH1 0x29 DUP2 PUSH1 0x19 DUP2 MLOAD DUP2 LT PUSH2 0x5C0E JUMPI PUSH2 0x5C0E PUSH2 0x78E7 JUMP JUMPDEST PUSH2 0xFFFF SWAP1 SWAP3 AND PUSH1 0x20 SWAP3 DUP4 MUL SWAP2 SWAP1 SWAP2 ADD SWAP1 SWAP2 ADD MSTORE PUSH1 0x29 DUP2 PUSH1 0x1A DUP2 MLOAD DUP2 LT PUSH2 0x5C36 JUMPI PUSH2 0x5C36 PUSH2 0x78E7 JUMP JUMPDEST PUSH2 0xFFFF SWAP1 SWAP3 AND PUSH1 0x20 SWAP3 DUP4 MUL SWAP2 SWAP1 SWAP2 ADD SWAP1 SWAP2 ADD MSTORE PUSH1 0x29 DUP2 PUSH1 0x1B DUP2 MLOAD DUP2 LT PUSH2 0x5C5E JUMPI PUSH2 0x5C5E PUSH2 0x78E7 JUMP JUMPDEST PUSH2 0xFFFF SWAP1 SWAP3 AND PUSH1 0x20 SWAP3 DUP4 MUL SWAP2 SWAP1 SWAP2 ADD SWAP1 SWAP2 ADD MSTORE PUSH1 0x29 DUP2 PUSH1 0x1C DUP2 MLOAD DUP2 LT PUSH2 0x5C86 JUMPI PUSH2 0x5C86 PUSH2 0x78E7 JUMP JUMPDEST PUSH2 0xFFFF SWAP1 SWAP3 AND PUSH1 0x20 SWAP3 DUP4 MUL SWAP2 SWAP1 SWAP2 ADD SWAP1 SWAP2 ADD MSTORE PUSH1 0x29 DUP2 PUSH1 0x1D DUP2 MLOAD DUP2 LT PUSH2 0x5CAE JUMPI PUSH2 0x5CAE PUSH2 0x78E7 JUMP JUMPDEST PUSH2 0xFFFF SWAP1 SWAP3 AND PUSH1 0x20 SWAP3 DUP4 MUL SWAP2 SWAP1 SWAP2 ADD SWAP1 SWAP2 ADD MSTORE PUSH1 0x29 DUP2 PUSH1 0x1E DUP2 MLOAD DUP2 LT PUSH2 0x5CD6 JUMPI PUSH2 0x5CD6 PUSH2 0x78E7 JUMP JUMPDEST PUSH1 0x20 MUL PUSH1 0x20 ADD ADD SWAP1 PUSH2 0xFFFF AND SWAP1 DUP2 PUSH2 0xFFFF AND DUP2 MSTORE POP POP PUSH0 PUSH2 0x5CF7 DUP5 DUP4 PUSH2 0x7494 JUMP JUMPDEST SWAP1 POP DUP1 PUSH1 0xC2 DUP2 GT ISZERO PUSH2 0x31CD JUMPI PUSH2 0x31CD PUSH2 0x77A8 JUMP JUMPDEST PUSH1 0x40 DUP1 MLOAD PUSH1 0x4 DUP1 DUP3 MSTORE PUSH1 0xA0 DUP3 ADD SWAP1 SWAP3 MSTORE PUSH0 SWAP2 DUP3 SWAP2 SWAP1 PUSH1 0x20 DUP3 ADD PUSH1 0x80 DUP1 CALLDATASIZE DUP4 CALLDATACOPY ADD SWAP1 POP POP SWAP1 POP PUSH2 0x26AC DUP2 PUSH0 DUP2 MLOAD DUP2 LT PUSH2 0x5D45 JUMPI PUSH2 0x5D45 PUSH2 0x78E7 JUMP JUMPDEST PUSH2 0xFFFF SWAP1 SWAP3 AND PUSH1 0x20 SWAP3 DUP4 MUL SWAP2 SWAP1 SWAP2 ADD SWAP1 SWAP2 ADD MSTORE PUSH1 0x28 DUP2 PUSH1 0x1 DUP2 MLOAD DUP2 LT PUSH2 0x5D6D JUMPI PUSH2 0x5D6D PUSH2 0x78E7 JUMP JUMPDEST PUSH2 0xFFFF SWAP1 SWAP3 AND PUSH1 0x20 SWAP3 DUP4 MUL SWAP2 SWAP1 SWAP2 ADD SWAP1 SWAP2 ADD MSTORE PUSH1 0x1E DUP2 PUSH1 0x2 DUP2 MLOAD DUP2 LT PUSH2 0x5D95 JUMPI PUSH2 0x5D95 PUSH2 0x78E7 JUMP JUMPDEST PUSH2 0xFFFF SWAP1 SWAP3 AND PUSH1 0x20 SWAP3 DUP4 MUL SWAP2 SWAP1 SWAP2 ADD SWAP1 SWAP2 ADD MSTORE PUSH1 0x1E DUP2 PUSH1 0x3 DUP2 MLOAD DUP2 LT PUSH2 0x5DBD JUMPI PUSH2 0x5DBD PUSH2 0x78E7 JUMP JUMPDEST PUSH1 0x20 MUL PUSH1 0x20 ADD ADD SWAP1 PUSH2 0xFFFF AND SWAP1 DUP2 PUSH2 0xFFFF AND DUP2 MSTORE POP POP PUSH0 PUSH2 0x5DDE DUP5 DUP4 PUSH2 0x7494 JUMP JUMPDEST SWAP1 POP DUP1 PUSH1 0x3 DUP2 GT ISZERO PUSH2 0x1665 JUMPI PUSH2 0x1665 PUSH2 0x77A8 JUMP JUMPDEST PUSH1 0x40 DUP1 MLOAD PUSH1 0x79 DUP1 DUP3 MSTORE PUSH2 0xF40 DUP3 ADD SWAP1 SWAP3 MSTORE PUSH0 SWAP2 DUP3 SWAP2 SWAP1 PUSH1 0x20 DUP3 ADD PUSH2 0xF20 DUP1 CALLDATASIZE DUP4 CALLDATACOPY ADD SWAP1 POP POP SWAP1 POP PUSH2 0x3C8 DUP2 PUSH0 DUP2 MLOAD DUP2 LT PUSH2 0x5E2E JUMPI PUSH2 0x5E2E PUSH2 0x78E7 JUMP JUMPDEST PUSH2 0xFFFF SWAP1 SWAP3 AND PUSH1 0x20 SWAP3 DUP4 MUL SWAP2 SWAP1 SWAP2 ADD SWAP1 SWAP2 ADD MSTORE PUSH2 0x274 DUP2 PUSH1 0x4D DUP2 MLOAD DUP2 LT PUSH2 0x5E57 JUMPI PUSH2 0x5E57 PUSH2 0x78E7 JUMP JUMPDEST PUSH2 0xFFFF SWAP1 SWAP3 AND PUSH1 0x20 SWAP3 DUP4 MUL SWAP2 SWAP1 SWAP2 ADD SWAP1 SWAP2 ADD MSTORE PUSH1 0x48 DUP2 PUSH1 0x64 DUP2 MLOAD DUP2 LT PUSH2 0x5E7F JUMPI PUSH2 0x5E7F PUSH2 0x78E7 JUMP JUMPDEST PUSH2 0xFFFF SWAP1 SWAP3 AND PUSH1 0x20 SWAP3 DUP4 MUL SWAP2 SWAP1 SWAP2 ADD SWAP1 SWAP2 ADD MSTORE PUSH1 0x48 DUP2 PUSH1 0x65 DUP2 MLOAD DUP2 LT PUSH2 0x5EA7 JUMPI PUSH2 0x5EA7 PUSH2 0x78E7 JUMP JUMPDEST PUSH2 0xFFFF SWAP1 SWAP3 AND PUSH1 0x20 SWAP3 DUP4 MUL SWAP2 SWAP1 SWAP2 ADD SWAP1 SWAP2 ADD MSTORE PUSH1 0x48 DUP2 PUSH1 0x66 DUP2 MLOAD DUP2 LT PUSH2 0x5ECF JUMPI PUSH2 0x5ECF PUSH2 0x78E7 JUMP JUMPDEST PUSH2 0xFFFF SWAP1 SWAP3 AND PUSH1 0x20 SWAP3 DUP4 MUL SWAP2 SWAP1 SWAP2 ADD SWAP1 SWAP2 ADD MSTORE PUSH1 0x48 DUP2 PUSH1 0x67 DUP2 MLOAD DUP2 LT PUSH2 0x5EF7 JUMPI PUSH2 0x5EF7 PUSH2 0x78E7 JUMP JUMPDEST PUSH2 0xFFFF SWAP1 SWAP3 AND PUSH1 0x20 SWAP3 DUP4 MUL SWAP2 SWAP1 SWAP2 ADD SWAP1 SWAP2 ADD MSTORE PUSH1 0x48 DUP2 PUSH1 0x68 DUP2 MLOAD DUP2 LT PUSH2 0x5F1F JUMPI PUSH2 0x5F1F PUSH2 0x78E7 JUMP JUMPDEST PUSH2 0xFFFF SWAP1 SWAP3 AND PUSH1 0x20 SWAP3 DUP4 MUL SWAP2 SWAP1 SWAP2 ADD SWAP1 SWAP2 ADD MSTORE PUSH1 0x48 DUP2 PUSH1 0x69 DUP2 MLOAD DUP2 LT PUSH2 0x5F47 JUMPI PUSH2 0x5F47 PUSH2 0x78E7 JUMP JUMPDEST PUSH2 0xFFFF SWAP1 SWAP3 AND PUSH1 0x20 SWAP3 DUP4 MUL SWAP2 SWAP1 SWAP2 ADD SWAP1 SWAP2 ADD MSTORE PUSH1 0x48 DUP2 PUSH1 0x6A DUP2 MLOAD DUP2 LT PUSH2 0x5F6F JUMPI PUSH2 0x5F6F PUSH2 0x78E7 JUMP JUMPDEST PUSH2 0xFFFF SWAP1 SWAP3 AND PUSH1 0x20 SWAP3 DUP4 MUL SWAP2 SWAP1 SWAP2 ADD SWAP1 SWAP2 ADD MSTORE PUSH1 0x48 DUP2 PUSH1 0x6B DUP2 MLOAD DUP2 LT PUSH2 0x5F97 JUMPI PUSH2 0x5F97 PUSH2 0x78E7 JUMP JUMPDEST PUSH2 0xFFFF SWAP1 SWAP3 AND PUSH1 0x20 SWAP3 DUP4 MUL SWAP2 SWAP1 SWAP2 ADD SWAP1 SWAP2 ADD MSTORE PUSH1 0x48 DUP2 PUSH1 0x24 DUP2 MLOAD DUP2 LT PUSH2 0x5FBF JUMPI PUSH2 0x5FBF PUSH2 0x78E7 JUMP JUMPDEST PUSH2 0xFFFF SWAP1 SWAP3 AND PUSH1 0x20 SWAP3 DUP4 MUL SWAP2 SWAP1 SWAP2 ADD SWAP1 SWAP2 ADD MSTORE PUSH1 0x48 DUP2 PUSH1 0x25 DUP2 MLOAD DUP2 LT PUSH2 0x5FE7 JUMPI PUSH2 0x5FE7 PUSH2 0x78E7 JUMP JUMPDEST PUSH2 0xFFFF SWAP1 SWAP3 AND PUSH1 0x20 SWAP3 DUP4 MUL SWAP2 SWAP1 SWAP2 ADD SWAP1 SWAP2 ADD MSTORE PUSH1 0x48 DUP2 PUSH1 0x26 DUP2 MLOAD DUP2 LT PUSH2 0x600F JUMPI PUSH2 0x600F PUSH2 0x78E7 JUMP JUMPDEST PUSH2 0xFFFF SWAP1 SWAP3 AND PUSH1 0x20 SWAP3 DUP4 MUL SWAP2 SWAP1 SWAP2 ADD SWAP1 SWAP2 ADD MSTORE PUSH1 0x48 DUP2 PUSH1 0x27 DUP2 MLOAD DUP2 LT PUSH2 0x6037 JUMPI PUSH2 0x6037 PUSH2 0x78E7 JUMP JUMPDEST PUSH2 0xFFFF SWAP1 SWAP3 AND PUSH1 0x20 SWAP3 DUP4 MUL SWAP2 SWAP1 SWAP2 ADD SWAP1 SWAP2 ADD MSTORE PUSH1 0x48 DUP2 PUSH1 0x28 DUP2 MLOAD DUP2 LT PUSH2 0x605F JUMPI PUSH2 0x605F PUSH2 0x78E7 JUMP JUMPDEST PUSH2 0xFFFF SWAP1 SWAP3 AND PUSH1 0x20 SWAP3 DUP4 MUL SWAP2 SWAP1 SWAP2 ADD SWAP1 SWAP2 ADD MSTORE PUSH1 0x48 DUP2 PUSH1 0x29 DUP2 MLOAD DUP2 LT PUSH2 0x6087 JUMPI PUSH2 0x6087 PUSH2 0x78E7 JUMP JUMPDEST PUSH2 0xFFFF SWAP1 SWAP3 AND PUSH1 0x20 SWAP3 DUP4 MUL SWAP2 SWAP1 SWAP2 ADD SWAP1 SWAP2 ADD MSTORE PUSH1 0x48 DUP2 PUSH1 0x2A DUP2 MLOAD DUP2 LT PUSH2 0x60AF JUMPI PUSH2 0x60AF PUSH2 0x78E7 JUMP JUMPDEST PUSH2 0xFFFF SWAP1 SWAP3 AND PUSH1 0x20 SWAP3 DUP4 MUL SWAP2 SWAP1 SWAP2 ADD SWAP1 SWAP2 ADD MSTORE PUSH1 0x48 DUP2 PUSH1 0x2B DUP2 MLOAD DUP2 LT PUSH2 0x60D7 JUMPI PUSH2 0x60D7 PUSH2 0x78E7 JUMP JUMPDEST PUSH2 0xFFFF SWAP1 SWAP3 AND PUSH1 0x20 SWAP3 DUP4 MUL SWAP2 SWAP1 SWAP2 ADD SWAP1 SWAP2 ADD MSTORE PUSH2 0x23A DUP2 PUSH1 0x3E DUP2 MLOAD DUP2 LT PUSH2 0x6100 JUMPI PUSH2 0x6100 PUSH2 0x78E7 JUMP JUMPDEST PUSH2 0xFFFF SWAP1 SWAP3 AND PUSH1 0x20 SWAP3 DUP4 MUL SWAP2 SWAP1 SWAP2 ADD SWAP1 SWAP2 ADD MSTORE PUSH2 0x230 DUP2 PUSH1 0x4A DUP2 MLOAD DUP2 LT PUSH2 0x6129 JUMPI PUSH2 0x6129 PUSH2 0x78E7 JUMP JUMPDEST PUSH2 0xFFFF SWAP1 SWAP3 AND PUSH1 0x20 SWAP3 DUP4 MUL SWAP2 SWAP1 SWAP2 ADD SWAP1 SWAP2 ADD MSTORE PUSH1 0x32 DUP2 PUSH1 0x58 DUP2 MLOAD DUP2 LT PUSH2 0x6151 JUMPI PUSH2 0x6151 PUSH2 0x78E7 JUMP JUMPDEST PUSH2 0xFFFF SWAP1 SWAP3 AND PUSH1 0x20 SWAP3 DUP4 MUL SWAP2 SWAP1 SWAP2 ADD SWAP1 SWAP2 ADD MSTORE PUSH1 0x32 DUP2 PUSH1 0x59 DUP2 MLOAD DUP2 LT PUSH2 0x6179 JUMPI PUSH2 0x6179 PUSH2 0x78E7 JUMP JUMPDEST PUSH2 0xFFFF SWAP1 SWAP3 AND PUSH1 0x20 SWAP3 DUP4 MUL SWAP2 SWAP1 SWAP2 ADD SWAP1 SWAP2 ADD MSTORE PUSH1 0x32 DUP2 PUSH1 0x5A DUP2 MLOAD DUP2 LT PUSH2 0x61A1 JUMPI PUSH2 0x61A1 PUSH2 0x78E7 JUMP JUMPDEST PUSH2 0xFFFF SWAP1 SWAP3 AND PUSH1 0x20 SWAP3 DUP4 MUL SWAP2 SWAP1 SWAP2 ADD SWAP1 SWAP2 ADD MSTORE PUSH1 0x32 DUP2 PUSH1 0x5B DUP2 MLOAD DUP2 LT PUSH2 0x61C9 JUMPI PUSH2 0x61C9 PUSH2 0x78E7 JUMP JUMPDEST PUSH2 0xFFFF SWAP1 SWAP3 AND PUSH1 0x20 SWAP3 DUP4 MUL SWAP2 SWAP1 SWAP2 ADD SWAP1 SWAP2 ADD MSTORE PUSH1 0x32 DUP2 PUSH1 0x5C DUP2 MLOAD DUP2 LT PUSH2 0x61F1 JUMPI PUSH2 0x61F1 PUSH2 0x78E7 JUMP JUMPDEST PUSH2 0xFFFF SWAP1 SWAP3 AND PUSH1 0x20 SWAP3 DUP4 MUL SWAP2 SWAP1 SWAP2 ADD SWAP1 SWAP2 ADD MSTORE PUSH1 0x32 DUP2 PUSH1 0x5D DUP2 MLOAD DUP2 LT PUSH2 0x6219 JUMPI PUSH2 0x6219 PUSH2 0x78E7 JUMP JUMPDEST PUSH2 0xFFFF SWAP1 SWAP3 AND PUSH1 0x20 SWAP3 DUP4 MUL SWAP2 SWAP1 SWAP2 ADD SWAP1 SWAP2 ADD MSTORE PUSH1 0x32 DUP2 PUSH1 0x5E DUP2 MLOAD DUP2 LT PUSH2 0x6241 JUMPI PUSH2 0x6241 PUSH2 0x78E7 JUMP JUMPDEST PUSH2 0xFFFF SWAP1 SWAP3 AND PUSH1 0x20 SWAP3 DUP4 MUL SWAP2 SWAP1 SWAP2 ADD SWAP1 SWAP2 ADD MSTORE PUSH1 0x32 DUP2 PUSH1 0x5F DUP2 MLOAD DUP2 LT PUSH2 0x6269 JUMPI PUSH2 0x6269 PUSH2 0x78E7 JUMP JUMPDEST PUSH2 0xFFFF SWAP1 SWAP3 AND PUSH1 0x20 SWAP3 DUP4 MUL SWAP2 SWAP1 SWAP2 ADD SWAP1 SWAP2 ADD MSTORE PUSH1 0x32 DUP2 PUSH1 0x60 DUP2 MLOAD DUP2 LT PUSH2 0x6291 JUMPI PUSH2 0x6291 PUSH2 0x78E7 JUMP JUMPDEST PUSH2 0xFFFF SWAP1 SWAP3 AND PUSH1 0x20 SWAP3 DUP4 MUL SWAP2 SWAP1 SWAP2 ADD SWAP1 SWAP2 ADD MSTORE PUSH1 0x32 DUP2 PUSH1 0x61 DUP2 MLOAD DUP2 LT PUSH2 0x62B9 JUMPI PUSH2 0x62B9 PUSH2 0x78E7 JUMP JUMPDEST PUSH2 0xFFFF SWAP1 SWAP3 AND PUSH1 0x20 SWAP3 DUP4 MUL SWAP2 SWAP1 SWAP2 ADD SWAP1 SWAP2 ADD MSTORE PUSH1 0x32 DUP2 PUSH1 0x62 DUP2 MLOAD DUP2 LT PUSH2 0x62E1 JUMPI PUSH2 0x62E1 PUSH2 0x78E7 JUMP JUMPDEST PUSH2 0xFFFF SWAP1 SWAP3 AND PUSH1 0x20 SWAP3 DUP4 MUL SWAP2 SWAP1 SWAP2 ADD SWAP1 SWAP2 ADD MSTORE PUSH2 0x21C DUP2 PUSH1 0x2E DUP2 MLOAD DUP2 LT PUSH2 0x630A JUMPI PUSH2 0x630A PUSH2 0x78E7 JUMP JUMPDEST PUSH2 0xFFFF SWAP1 SWAP3 AND PUSH1 0x20 SWAP3 DUP4 MUL SWAP2 SWAP1 SWAP2 ADD SWAP1 SWAP2 ADD MSTORE PUSH1 0x2E DUP2 PUSH1 0xF DUP2 MLOAD DUP2 LT PUSH2 0x6332 JUMPI PUSH2 0x6332 PUSH2 0x78E7 JUMP JUMPDEST PUSH2 0xFFFF SWAP1 SWAP3 AND PUSH1 0x20 SWAP3 DUP4 MUL SWAP2 SWAP1 SWAP2 ADD SWAP1 SWAP2 ADD MSTORE PUSH1 0x2E DUP2 PUSH1 0x10 DUP2 MLOAD DUP2 LT PUSH2 0x635A JUMPI PUSH2 0x635A PUSH2 0x78E7 JUMP JUMPDEST PUSH2 0xFFFF SWAP1 SWAP3 AND PUSH1 0x20 SWAP3 DUP4 MUL SWAP2 SWAP1 SWAP2 ADD SWAP1 SWAP2 ADD MSTORE PUSH1 0x2E DUP2 PUSH1 0x11 DUP2 MLOAD DUP2 LT PUSH2 0x6382 JUMPI PUSH2 0x6382 PUSH2 0x78E7 JUMP JUMPDEST PUSH2 0xFFFF SWAP1 SWAP3 AND PUSH1 0x20 SWAP3 DUP4 MUL SWAP2 SWAP1 SWAP2 ADD SWAP1 SWAP2 ADD MSTORE PUSH1 0x2E DUP2 PUSH1 0x12 DUP2 MLOAD DUP2 LT PUSH2 0x63AA JUMPI PUSH2 0x63AA PUSH2 0x78E7 JUMP JUMPDEST PUSH2 0xFFFF SWAP1 SWAP3 AND PUSH1 0x20 SWAP3 DUP4 MUL SWAP2 SWAP1 SWAP2 ADD SWAP1 SWAP2 ADD MSTORE PUSH1 0x2E DUP2 PUSH1 0x13 DUP2 MLOAD DUP2 LT PUSH2 0x63D2 JUMPI PUSH2 0x63D2 PUSH2 0x78E7 JUMP JUMPDEST PUSH2 0xFFFF SWAP1 SWAP3 AND PUSH1 0x20 SWAP3 DUP4 MUL SWAP2 SWAP1 SWAP2 ADD SWAP1 SWAP2 ADD MSTORE PUSH1 0x2E DUP2 PUSH1 0x14 DUP2 MLOAD DUP2 LT PUSH2 0x63FA JUMPI PUSH2 0x63FA PUSH2 0x78E7 JUMP JUMPDEST PUSH2 0xFFFF SWAP1 SWAP3 AND PUSH1 0x20 SWAP3 DUP4 MUL SWAP2 SWAP1 SWAP2 ADD SWAP1 SWAP2 ADD MSTORE PUSH1 0x2E DUP2 PUSH1 0x15 DUP2 MLOAD DUP2 LT PUSH2 0x6422 JUMPI PUSH2 0x6422 PUSH2 0x78E7 JUMP JUMPDEST PUSH2 0xFFFF SWAP1 SWAP3 AND PUSH1 0x20 SWAP3 DUP4 MUL SWAP2 SWAP1 SWAP2 ADD SWAP1 SWAP2 ADD MSTORE PUSH1 0x2E DUP2 PUSH1 0x16 DUP2 MLOAD DUP2 LT PUSH2 0x644A JUMPI PUSH2 0x644A PUSH2 0x78E7 JUMP JUMPDEST PUSH2 0xFFFF SWAP1 SWAP3 AND PUSH1 0x20 SWAP3 DUP4 MUL SWAP2 SWAP1 SWAP2 ADD SWAP1 SWAP2 ADD MSTORE PUSH1 0x2E DUP2 PUSH1 0x17 DUP2 MLOAD DUP2 LT PUSH2 0x6472 JUMPI PUSH2 0x6472 PUSH2 0x78E7 JUMP JUMPDEST PUSH2 0xFFFF SWAP1 SWAP3 AND PUSH1 0x20 SWAP3 DUP4 MUL SWAP2 SWAP1 SWAP2 ADD SWAP1 SWAP2 ADD MSTORE PUSH1 0x2E DUP2 PUSH1 0x18 DUP2 MLOAD DUP2 LT PUSH2 0x649A JUMPI PUSH2 0x649A PUSH2 0x78E7 JUMP JUMPDEST PUSH2 0xFFFF SWAP1 SWAP3 AND PUSH1 0x20 SWAP3 DUP4 MUL SWAP2 SWAP1 SWAP2 ADD SWAP1 SWAP2 ADD MSTORE PUSH1 0x2E DUP2 PUSH1 0x19 DUP2 MLOAD DUP2 LT PUSH2 0x64C2 JUMPI PUSH2 0x64C2 PUSH2 0x78E7 JUMP JUMPDEST PUSH2 0xFFFF SWAP1 SWAP3 AND PUSH1 0x20 SWAP3 DUP4 MUL SWAP2 SWAP1 SWAP2 ADD SWAP1 SWAP2 ADD MSTORE PUSH2 0x1DB DUP2 PUSH1 0x1 DUP2 MLOAD DUP2 LT PUSH2 0x64EB JUMPI PUSH2 0x64EB PUSH2 0x78E7 JUMP JUMPDEST PUSH2 0xFFFF SWAP1 SWAP3 AND PUSH1 0x20 SWAP3 DUP4 MUL SWAP2 SWAP1 SWAP2 ADD SWAP1 SWAP2 ADD MSTORE PUSH2 0x1DB DUP2 PUSH1 0x22 DUP2 MLOAD DUP2 LT PUSH2 0x6514 JUMPI PUSH2 0x6514 PUSH2 0x78E7 JUMP JUMPDEST PUSH2 0xFFFF SWAP1 SWAP3 AND PUSH1 0x20 SWAP3 DUP4 MUL SWAP2 SWAP1 SWAP2 ADD SWAP1 SWAP2 ADD MSTORE PUSH2 0x1A9 DUP2 PUSH1 0x4E DUP2 MLOAD DUP2 LT PUSH2 0x653D JUMPI PUSH2 0x653D PUSH2 0x78E7 JUMP JUMPDEST PUSH2 0xFFFF SWAP1 SWAP3 AND PUSH1 0x20 SWAP3 DUP4 MUL SWAP2 SWAP1 SWAP2 ADD SWAP1 SWAP2 ADD MSTORE PUSH2 0x190 DUP2 PUSH1 0x37 DUP2 MLOAD DUP2 LT PUSH2 0x6566 JUMPI PUSH2 0x6566 PUSH2 0x78E7 JUMP JUMPDEST PUSH2 0xFFFF SWAP1 SWAP3 AND PUSH1 0x20 SWAP3 DUP4 MUL SWAP2 SWAP1 SWAP2 ADD SWAP1 SWAP2 ADD MSTORE PUSH1 0x3E DUP2 PUSH1 0x39 DUP2 MLOAD DUP2 LT PUSH2 0x658E JUMPI PUSH2 0x658E PUSH2 0x78E7 JUMP JUMPDEST PUSH2 0xFFFF SWAP1 SWAP3 AND PUSH1 0x20 SWAP3 DUP4 MUL SWAP2 SWAP1 SWAP2 ADD SWAP1 SWAP2 ADD MSTORE PUSH1 0x3E DUP2 PUSH1 0x3A DUP2 MLOAD DUP2 LT PUSH2 0x65B6 JUMPI PUSH2 0x65B6 PUSH2 0x78E7 JUMP JUMPDEST PUSH2 0xFFFF SWAP1 SWAP3 AND PUSH1 0x20 SWAP3 DUP4 MUL SWAP2 SWAP1 SWAP2 ADD SWAP1 SWAP2 ADD MSTORE PUSH1 0x3E DUP2 PUSH1 0x3B DUP2 MLOAD DUP2 LT PUSH2 0x65DE JUMPI PUSH2 0x65DE PUSH2 0x78E7 JUMP JUMPDEST PUSH2 0xFFFF SWAP1 SWAP3 AND PUSH1 0x20 SWAP3 DUP4 MUL SWAP2 SWAP1 SWAP2 ADD SWAP1 SWAP2 ADD MSTORE PUSH1 0x3E DUP2 PUSH1 0x3C DUP2 MLOAD DUP2 LT PUSH2 0x6606 JUMPI PUSH2 0x6606 PUSH2 0x78E7 JUMP JUMPDEST PUSH2 0xFFFF SWAP1 SWAP3 AND PUSH1 0x20 SWAP3 DUP4 MUL SWAP2 SWAP1 SWAP2 ADD SWAP1 SWAP2 ADD MSTORE PUSH1 0x3E DUP2 PUSH1 0x3D DUP2 MLOAD DUP2 LT PUSH2 0x662E JUMPI PUSH2 0x662E PUSH2 0x78E7 JUMP JUMPDEST PUSH2 0xFFFF SWAP1 SWAP3 AND PUSH1 0x20 SWAP3 DUP4 MUL SWAP2 SWAP1 SWAP2 ADD SWAP1 SWAP2 ADD MSTORE PUSH1 0x3E DUP2 PUSH1 0x38 DUP2 MLOAD DUP2 LT PUSH2 0x6656 JUMPI PUSH2 0x6656 PUSH2 0x78E7 JUMP JUMPDEST PUSH2 0xFFFF SWAP1 SWAP3 AND PUSH1 0x20 SWAP3 DUP4 MUL SWAP2 SWAP1 SWAP2 ADD SWAP1 SWAP2 ADD MSTORE PUSH2 0x15B DUP2 PUSH1 0x6C DUP2 MLOAD DUP2 LT PUSH2 0x667F JUMPI PUSH2 0x667F PUSH2 0x78E7 JUMP JUMPDEST PUSH2 0xFFFF SWAP1 SWAP3 AND PUSH1 0x20 SWAP3 DUP4 MUL SWAP2 SWAP1 SWAP2 ADD SWAP1 SWAP2 ADD MSTORE PUSH2 0x13D DUP2 PUSH1 0x2F DUP2 MLOAD DUP2 LT PUSH2 0x66A8 JUMPI PUSH2 0x66A8 PUSH2 0x78E7 JUMP JUMPDEST PUSH2 0xFFFF SWAP1 SWAP3 AND PUSH1 0x20 SWAP3 DUP4 MUL SWAP2 SWAP1 SWAP2 ADD SWAP1 SWAP2 ADD MSTORE PUSH2 0x118 DUP2 PUSH1 0x2D DUP2 MLOAD DUP2 LT PUSH2 0x66D1 JUMPI PUSH2 0x66D1 PUSH2 0x78E7 JUMP JUMPDEST PUSH2 0xFFFF SWAP1 SWAP3 AND PUSH1 0x20 SWAP3 DUP4 MUL SWAP2 SWAP1 SWAP2 ADD SWAP1 SWAP2 ADD MSTORE PUSH1 0xE1 DUP2 PUSH1 0x4B DUP2 MLOAD DUP2 LT PUSH2 0x66F9 JUMPI PUSH2 0x66F9 PUSH2 0x78E7 JUMP JUMPDEST PUSH2 0xFFFF SWAP1 SWAP3 AND PUSH1 0x20 SWAP3 DUP4 MUL SWAP2 SWAP1 SWAP2 ADD SWAP1 SWAP2 ADD MSTORE PUSH1 0x1C DUP2 PUSH1 0x30 DUP2 MLOAD DUP2 LT PUSH2 0x6721 JUMPI PUSH2 0x6721 PUSH2 0x78E7 JUMP JUMPDEST PUSH2 0xFFFF SWAP1 SWAP3 AND PUSH1 0x20 SWAP3 DUP4 MUL SWAP2 SWAP1 SWAP2 ADD SWAP1 SWAP2 ADD MSTORE PUSH1 0x1C DUP2 PUSH1 0x31 DUP2 MLOAD DUP2 LT PUSH2 0x6749 JUMPI PUSH2 0x6749 PUSH2 0x78E7 JUMP JUMPDEST PUSH2 0xFFFF SWAP1 SWAP3 AND PUSH1 0x20 SWAP3 DUP4 MUL SWAP2 SWAP1 SWAP2 ADD SWAP1 SWAP2 ADD MSTORE PUSH1 0x1C DUP2 PUSH1 0x32 DUP2 MLOAD DUP2 LT PUSH2 0x6771 JUMPI PUSH2 0x6771 PUSH2 0x78E7 JUMP JUMPDEST PUSH2 0xFFFF SWAP1 SWAP3 AND PUSH1 0x20 SWAP3 DUP4 MUL SWAP2 SWAP1 SWAP2 ADD SWAP1 SWAP2 ADD MSTORE PUSH1 0x1C DUP2 PUSH1 0x33 DUP2 MLOAD DUP2 LT PUSH2 0x6799 JUMPI PUSH2 0x6799 PUSH2 0x78E7 JUMP JUMPDEST PUSH2 0xFFFF SWAP1 SWAP3 AND PUSH1 0x20 SWAP3 DUP4 MUL SWAP2 SWAP1 SWAP2 ADD SWAP1 SWAP2 ADD MSTORE PUSH1 0x1C DUP2 PUSH1 0x34 DUP2 MLOAD DUP2 LT PUSH2 0x67C1 JUMPI PUSH2 0x67C1 PUSH2 0x78E7 JUMP JUMPDEST PUSH2 0xFFFF SWAP1 SWAP3 AND PUSH1 0x20 SWAP3 DUP4 MUL SWAP2 SWAP1 SWAP2 ADD SWAP1 SWAP2 ADD MSTORE PUSH1 0x1C DUP2 PUSH1 0x35 DUP2 MLOAD DUP2 LT PUSH2 0x67E9 JUMPI PUSH2 0x67E9 PUSH2 0x78E7 JUMP JUMPDEST PUSH2 0xFFFF SWAP1 SWAP3 AND PUSH1 0x20 SWAP3 DUP4 MUL SWAP2 SWAP1 SWAP2 ADD SWAP1 SWAP2 ADD MSTORE PUSH1 0x1C DUP2 PUSH1 0x36 DUP2 MLOAD DUP2 LT PUSH2 0x6811 JUMPI PUSH2 0x6811 PUSH2 0x78E7 JUMP JUMPDEST PUSH2 0xFFFF SWAP1 SWAP3 AND PUSH1 0x20 SWAP3 DUP4 MUL SWAP2 SWAP1 SWAP2 ADD SWAP1 SWAP2 ADD MSTORE PUSH1 0x14 DUP2 PUSH1 0x1A DUP2 MLOAD DUP2 LT PUSH2 0x6839 JUMPI PUSH2 0x6839 PUSH2 0x78E7 JUMP JUMPDEST PUSH2 0xFFFF SWAP1 SWAP3 AND PUSH1 0x20 SWAP3 DUP4 MUL SWAP2 SWAP1 SWAP2 ADD SWAP1 SWAP2 ADD MSTORE PUSH1 0x14 DUP2 PUSH1 0x1B DUP2 MLOAD DUP2 LT PUSH2 0x6861 JUMPI PUSH2 0x6861 PUSH2 0x78E7 JUMP JUMPDEST PUSH2 0xFFFF SWAP1 SWAP3 AND PUSH1 0x20 SWAP3 DUP4 MUL SWAP2 SWAP1 SWAP2 ADD SWAP1 SWAP2 ADD MSTORE PUSH1 0x14 DUP2 PUSH1 0x1C DUP2 MLOAD DUP2 LT PUSH2 0x6889 JUMPI PUSH2 0x6889 PUSH2 0x78E7 JUMP JUMPDEST PUSH2 0xFFFF SWAP1 SWAP3 AND PUSH1 0x20 SWAP3 DUP4 MUL SWAP2 SWAP1 SWAP2 ADD SWAP1 SWAP2 ADD MSTORE PUSH1 0x14 DUP2 PUSH1 0x1D DUP2 MLOAD DUP2 LT PUSH2 0x68B1 JUMPI PUSH2 0x68B1 PUSH2 0x78E7 JUMP JUMPDEST PUSH2 0xFFFF SWAP1 SWAP3 AND PUSH1 0x20 SWAP3 DUP4 MUL SWAP2 SWAP1 SWAP2 ADD SWAP1 SWAP2 ADD MSTORE PUSH1 0x14 DUP2 PUSH1 0x1E DUP2 MLOAD DUP2 LT PUSH2 0x68D9 JUMPI PUSH2 0x68D9 PUSH2 0x78E7 JUMP JUMPDEST PUSH2 0xFFFF SWAP1 SWAP3 AND PUSH1 0x20 SWAP3 DUP4 MUL SWAP2 SWAP1 SWAP2 ADD SWAP1 SWAP2 ADD MSTORE PUSH1 0x14 DUP2 PUSH1 0x1F DUP2 MLOAD DUP2 LT PUSH2 0x6901 JUMPI PUSH2 0x6901 PUSH2 0x78E7 JUMP JUMPDEST PUSH2 0xFFFF SWAP1 SWAP3 AND PUSH1 0x20 SWAP3 DUP4 MUL SWAP2 SWAP1 SWAP2 ADD DUP3 ADD MSTORE PUSH1 0x14 SWAP1 DUP3 SWAP1 DUP2 MLOAD DUP2 LT PUSH2 0x6928 JUMPI PUSH2 0x6928 PUSH2 0x78E7 JUMP JUMPDEST PUSH2 0xFFFF SWAP1 SWAP3 AND PUSH1 0x20 SWAP3 DUP4 MUL SWAP2 SWAP1 SWAP2 ADD SWAP1 SWAP2 ADD MSTORE PUSH1 0x14 DUP2 PUSH1 0x21 DUP2 MLOAD DUP2 LT PUSH2 0x6950 JUMPI PUSH2 0x6950 PUSH2 0x78E7 JUMP JUMPDEST PUSH2 0xFFFF SWAP1 SWAP3 AND PUSH1 0x20 SWAP3 DUP4 MUL SWAP2 SWAP1 SWAP2 ADD SWAP1 SWAP2 ADD MSTORE PUSH1 0x21 DUP2 PUSH1 0x6E DUP2 MLOAD DUP2 LT PUSH2 0x6978 JUMPI PUSH2 0x6978 PUSH2 0x78E7 JUMP JUMPDEST PUSH2 0xFFFF SWAP1 SWAP3 AND PUSH1 0x20 SWAP3 DUP4 MUL SWAP2 SWAP1 SWAP2 ADD SWAP1 SWAP2 ADD MSTORE PUSH1 0x21 DUP2 PUSH1 0x6F DUP2 MLOAD DUP2 LT PUSH2 0x69A0 JUMPI PUSH2 0x69A0 PUSH2 0x78E7 JUMP JUMPDEST PUSH2 0xFFFF SWAP1 SWAP3 AND PUSH1 0x20 SWAP3 DUP4 MUL SWAP2 SWAP1 SWAP2 ADD SWAP1 SWAP2 ADD MSTORE PUSH1 0x21 DUP2 PUSH1 0x70 DUP2 MLOAD DUP2 LT PUSH2 0x69C8 JUMPI PUSH2 0x69C8 PUSH2 0x78E7 JUMP JUMPDEST PUSH2 0xFFFF SWAP1 SWAP3 AND PUSH1 0x20 SWAP3 DUP4 MUL SWAP2 SWAP1 SWAP2 ADD SWAP1 SWAP2 ADD MSTORE PUSH1 0x21 DUP2 PUSH1 0x6D DUP2 MLOAD DUP2 LT PUSH2 0x69F0 JUMPI PUSH2 0x69F0 PUSH2 0x78E7 JUMP JUMPDEST PUSH2 0xFFFF SWAP1 SWAP3 AND PUSH1 0x20 SWAP3 DUP4 MUL SWAP2 SWAP1 SWAP2 ADD SWAP1 SWAP2 ADD MSTORE PUSH1 0x16 DUP2 PUSH1 0x2 DUP2 MLOAD DUP2 LT PUSH2 0x6A18 JUMPI PUSH2 0x6A18 PUSH2 0x78E7 JUMP JUMPDEST PUSH2 0xFFFF SWAP1 SWAP3 AND PUSH1 0x20 SWAP3 DUP4 MUL SWAP2 SWAP1 SWAP2 ADD SWAP1 SWAP2 ADD MSTORE PUSH1 0x16 DUP2 PUSH1 0x3 DUP2 MLOAD DUP2 LT PUSH2 0x6A40 JUMPI PUSH2 0x6A40 PUSH2 0x78E7 JUMP JUMPDEST PUSH2 0xFFFF SWAP1 SWAP3 AND PUSH1 0x20 SWAP3 DUP4 MUL SWAP2 SWAP1 SWAP2 ADD SWAP1 SWAP2 ADD MSTORE PUSH1 0x16 DUP2 PUSH1 0x4 DUP2 MLOAD DUP2 LT PUSH2 0x6A68 JUMPI PUSH2 0x6A68 PUSH2 0x78E7 JUMP JUMPDEST PUSH2 0xFFFF SWAP1 SWAP3 AND PUSH1 0x20 SWAP3 DUP4 MUL SWAP2 SWAP1 SWAP2 ADD SWAP1 SWAP2 ADD MSTORE PUSH1 0x16 DUP2 PUSH1 0x5 DUP2 MLOAD DUP2 LT PUSH2 0x6A90 JUMPI PUSH2 0x6A90 PUSH2 0x78E7 JUMP JUMPDEST PUSH2 0xFFFF SWAP1 SWAP3 AND PUSH1 0x20 SWAP3 DUP4 MUL SWAP2 SWAP1 SWAP2 ADD SWAP1 SWAP2 ADD MSTORE PUSH1 0x16 DUP2 PUSH1 0x6 DUP2 MLOAD DUP2 LT PUSH2 0x6AB8 JUMPI PUSH2 0x6AB8 PUSH2 0x78E7 JUMP JUMPDEST PUSH2 0xFFFF SWAP1 SWAP3 AND PUSH1 0x20 SWAP3 DUP4 MUL SWAP2 SWAP1 SWAP2 ADD SWAP1 SWAP2 ADD MSTORE PUSH1 0xA DUP2 PUSH1 0x7 DUP2 MLOAD DUP2 LT PUSH2 0x6AE0 JUMPI PUSH2 0x6AE0 PUSH2 0x78E7 JUMP JUMPDEST PUSH2 0xFFFF SWAP1 SWAP3 AND PUSH1 0x20 SWAP3 DUP4 MUL SWAP2 SWAP1 SWAP2 ADD SWAP1 SWAP2 ADD MSTORE PUSH1 0xA DUP2 PUSH1 0x8 DUP2 MLOAD DUP2 LT PUSH2 0x6B08 JUMPI PUSH2 0x6B08 PUSH2 0x78E7 JUMP JUMPDEST PUSH2 0xFFFF SWAP1 SWAP3 AND PUSH1 0x20 SWAP3 DUP4 MUL SWAP2 SWAP1 SWAP2 ADD SWAP1 SWAP2 ADD MSTORE PUSH1 0xA DUP2 PUSH1 0x9 DUP2 MLOAD DUP2 LT PUSH2 0x6B30 JUMPI PUSH2 0x6B30 PUSH2 0x78E7 JUMP JUMPDEST PUSH2 0xFFFF SWAP1 SWAP3 AND PUSH1 0x20 SWAP3 DUP4 MUL SWAP2 SWAP1 SWAP2 ADD SWAP1 SWAP2 ADD MSTORE PUSH1 0xA DUP2 DUP2 DUP2 MLOAD DUP2 LT PUSH2 0x6B57 JUMPI PUSH2 0x6B57 PUSH2 0x78E7 JUMP JUMPDEST PUSH2 0xFFFF SWAP1 SWAP3 AND PUSH1 0x20 SWAP3 DUP4 MUL SWAP2 SWAP1 SWAP2 ADD SWAP1 SWAP2 ADD MSTORE PUSH1 0xA DUP2 PUSH1 0xB DUP2 MLOAD DUP2 LT PUSH2 0x6B7F JUMPI PUSH2 0x6B7F PUSH2 0x78E7 JUMP JUMPDEST PUSH2 0xFFFF SWAP1 SWAP3 AND PUSH1 0x20 SWAP3 DUP4 MUL SWAP2 SWAP1 SWAP2 ADD SWAP1 SWAP2 ADD MSTORE PUSH1 0xA DUP2 PUSH1 0xC DUP2 MLOAD DUP2 LT PUSH2 0x6BA7 JUMPI PUSH2 0x6BA7 PUSH2 0x78E7 JUMP JUMPDEST PUSH2 0xFFFF SWAP1 SWAP3 AND PUSH1 0x20 SWAP3 DUP4 MUL SWAP2 SWAP1 SWAP2 ADD SWAP1 SWAP2 ADD MSTORE PUSH1 0xA DUP2 PUSH1 0xD DUP2 MLOAD DUP2 LT PUSH2 0x6BCF JUMPI PUSH2 0x6BCF PUSH2 0x78E7 JUMP JUMPDEST PUSH2 0xFFFF SWAP1 SWAP3 AND PUSH1 0x20 SWAP3 DUP4 MUL SWAP2 SWAP1 SWAP2 ADD SWAP1 SWAP2 ADD MSTORE PUSH1 0xA DUP2 PUSH1 0xE DUP2 MLOAD DUP2 LT PUSH2 0x6BF7 JUMPI PUSH2 0x6BF7 PUSH2 0x78E7 JUMP JUMPDEST PUSH2 0xFFFF SWAP1 SWAP3 AND PUSH1 0x20 SWAP3 DUP4 MUL SWAP2 SWAP1 SWAP2 ADD SWAP1 SWAP2 ADD MSTORE PUSH1 0x45 DUP2 PUSH1 0x4C DUP2 MLOAD DUP2 LT PUSH2 0x6C1F JUMPI PUSH2 0x6C1F PUSH2 0x78E7 JUMP JUMPDEST PUSH2 0xFFFF SWAP1 SWAP3 AND PUSH1 0x20 SWAP3 DUP4 MUL SWAP2 SWAP1 SWAP2 ADD SWAP1 SWAP2 ADD MSTORE PUSH1 0x5 DUP2 PUSH1 0x71 DUP2 MLOAD DUP2 LT PUSH2 0x6C47 JUMPI PUSH2 0x6C47 PUSH2 0x78E7 JUMP JUMPDEST PUSH2 0xFFFF SWAP1 SWAP3 AND PUSH1 0x20 SWAP3 DUP4 MUL SWAP2 SWAP1 SWAP2 ADD SWAP1 SWAP2 ADD MSTORE PUSH1 0x5 DUP2 PUSH1 0x72 DUP2 MLOAD DUP2 LT PUSH2 0x6C6F JUMPI PUSH2 0x6C6F PUSH2 0x78E7 JUMP JUMPDEST PUSH2 0xFFFF SWAP1 SWAP3 AND PUSH1 0x20 SWAP3 DUP4 MUL SWAP2 SWAP1 SWAP2 ADD SWAP1 SWAP2 ADD MSTORE PUSH1 0x5 DUP2 PUSH1 0x73 DUP2 MLOAD DUP2 LT PUSH2 0x6C97 JUMPI PUSH2 0x6C97 PUSH2 0x78E7 JUMP JUMPDEST PUSH2 0xFFFF SWAP1 SWAP3 AND PUSH1 0x20 SWAP3 DUP4 MUL SWAP2 SWAP1 SWAP2 ADD SWAP1 SWAP2 ADD MSTORE PUSH1 0x5 DUP2 PUSH1 0x74 DUP2 MLOAD DUP2 LT PUSH2 0x6CBF JUMPI PUSH2 0x6CBF PUSH2 0x78E7 JUMP JUMPDEST PUSH2 0xFFFF SWAP1 SWAP3 AND PUSH1 0x20 SWAP3 DUP4 MUL SWAP2 SWAP1 SWAP2 ADD SWAP1 SWAP2 ADD MSTORE PUSH1 0x5 DUP2 PUSH1 0x75 DUP2 MLOAD DUP2 LT PUSH2 0x6CE7 JUMPI PUSH2 0x6CE7 PUSH2 0x78E7 JUMP JUMPDEST PUSH2 0xFFFF SWAP1 SWAP3 AND PUSH1 0x20 SWAP3 DUP4 MUL SWAP2 SWAP1 SWAP2 ADD SWAP1 SWAP2 ADD MSTORE PUSH1 0x5 DUP2 PUSH1 0x76 DUP2 MLOAD DUP2 LT PUSH2 0x6D0F JUMPI PUSH2 0x6D0F PUSH2 0x78E7 JUMP JUMPDEST PUSH2 0xFFFF SWAP1 SWAP3 AND PUSH1 0x20 SWAP3 DUP4 MUL SWAP2 SWAP1 SWAP2 ADD SWAP1 SWAP2 ADD MSTORE PUSH1 0x5 DUP2 PUSH1 0x77 DUP2 MLOAD DUP2 LT PUSH2 0x6D37 JUMPI PUSH2 0x6D37 PUSH2 0x78E7 JUMP JUMPDEST PUSH2 0xFFFF SWAP1 SWAP3 AND PUSH1 0x20 SWAP3 DUP4 MUL SWAP2 SWAP1 SWAP2 ADD SWAP1 SWAP2 ADD MSTORE PUSH1 0x5 DUP2 PUSH1 0x78 DUP2 MLOAD DUP2 LT PUSH2 0x6D5F JUMPI PUSH2 0x6D5F PUSH2 0x78E7 JUMP JUMPDEST PUSH2 0xFFFF SWAP1 SWAP3 AND PUSH1 0x20 SWAP3 DUP4 MUL SWAP2 SWAP1 SWAP2 ADD SWAP1 SWAP2 ADD MSTORE PUSH1 0x5 DUP2 PUSH1 0x79 DUP2 MLOAD DUP2 LT PUSH2 0x6D87 JUMPI PUSH2 0x6D87 PUSH2 0x78E7 JUMP JUMPDEST PUSH2 0xFFFF SWAP1 SWAP3 AND PUSH1 0x20 SWAP3 DUP4 MUL SWAP2 SWAP1 SWAP2 ADD SWAP1 SWAP2 ADD MSTORE PUSH1 0x5 DUP2 PUSH1 0x42 DUP2 MLOAD DUP2 LT PUSH2 0x6DAF JUMPI PUSH2 0x6DAF PUSH2 0x78E7 JUMP JUMPDEST PUSH2 0xFFFF SWAP1 SWAP3 AND PUSH1 0x20 SWAP3 DUP4 MUL SWAP2 SWAP1 SWAP2 ADD SWAP1 SWAP2 ADD MSTORE PUSH1 0x5 DUP2 PUSH1 0x43 DUP2 MLOAD DUP2 LT PUSH2 0x6DD7 JUMPI PUSH2 0x6DD7 PUSH2 0x78E7 JUMP JUMPDEST PUSH2 0xFFFF SWAP1 SWAP3 AND PUSH1 0x20 SWAP3 DUP4 MUL SWAP2 SWAP1 SWAP2 ADD SWAP1 SWAP2 ADD MSTORE PUSH1 0x5 DUP2 PUSH1 0x44 DUP2 MLOAD DUP2 LT PUSH2 0x6DFF JUMPI PUSH2 0x6DFF PUSH2 0x78E7 JUMP JUMPDEST PUSH2 0xFFFF SWAP1 SWAP3 AND PUSH1 0x20 SWAP3 DUP4 MUL SWAP2 SWAP1 SWAP2 ADD SWAP1 SWAP2 ADD MSTORE PUSH1 0x5 DUP2 PUSH1 0x45 DUP2 MLOAD DUP2 LT PUSH2 0x6E27 JUMPI PUSH2 0x6E27 PUSH2 0x78E7 JUMP JUMPDEST PUSH2 0xFFFF SWAP1 SWAP3 AND PUSH1 0x20 SWAP3 DUP4 MUL SWAP2 SWAP1 SWAP2 ADD SWAP1 SWAP2 ADD MSTORE PUSH1 0x5 DUP2 PUSH1 0x46 DUP2 MLOAD DUP2 LT PUSH2 0x6E4F JUMPI PUSH2 0x6E4F PUSH2 0x78E7 JUMP JUMPDEST PUSH2 0xFFFF SWAP1 SWAP3 AND PUSH1 0x20 SWAP3 DUP4 MUL SWAP2 SWAP1 SWAP2 ADD SWAP1 SWAP2 ADD MSTORE PUSH1 0x5 DUP2 PUSH1 0x47 DUP2 MLOAD DUP2 LT PUSH2 0x6E77 JUMPI PUSH2 0x6E77 PUSH2 0x78E7 JUMP JUMPDEST PUSH2 0xFFFF SWAP1 SWAP3 AND PUSH1 0x20 SWAP3 DUP4 MUL SWAP2 SWAP1 SWAP2 ADD SWAP1 SWAP2 ADD MSTORE PUSH1 0x5 DUP2 PUSH1 0x48 DUP2 MLOAD DUP2 LT PUSH2 0x6E9F JUMPI PUSH2 0x6E9F PUSH2 0x78E7 JUMP JUMPDEST PUSH2 0xFFFF SWAP1 SWAP3 AND PUSH1 0x20 SWAP3 DUP4 MUL SWAP2 SWAP1 SWAP2 ADD SWAP1 SWAP2 ADD MSTORE PUSH1 0x5 DUP2 PUSH1 0x49 DUP2 MLOAD DUP2 LT PUSH2 0x6EC7 JUMPI PUSH2 0x6EC7 PUSH2 0x78E7 JUMP JUMPDEST PUSH2 0xFFFF SWAP1 SWAP3 AND PUSH1 0x20 SWAP3 DUP4 MUL SWAP2 SWAP1 SWAP2 ADD SWAP1 SWAP2 ADD MSTORE PUSH1 0x3 DUP2 PUSH1 0x50 DUP2 MLOAD DUP2 LT PUSH2 0x6EEF JUMPI PUSH2 0x6EEF PUSH2 0x78E7 JUMP JUMPDEST PUSH2 0xFFFF SWAP1 SWAP3 AND PUSH1 0x20 SWAP3 DUP4 MUL SWAP2 SWAP1 SWAP2 ADD SWAP1 SWAP2 ADD MSTORE PUSH1 0x3 DUP2 PUSH1 0x51 DUP2 MLOAD DUP2 LT PUSH2 0x6F17 JUMPI PUSH2 0x6F17 PUSH2 0x78E7 JUMP JUMPDEST PUSH2 0xFFFF SWAP1 SWAP3 AND PUSH1 0x20 SWAP3 DUP4 MUL SWAP2 SWAP1 SWAP2 ADD SWAP1 SWAP2 ADD MSTORE PUSH1 0x3 DUP2 PUSH1 0x52 DUP2 MLOAD DUP2 LT PUSH2 0x6F3F JUMPI PUSH2 0x6F3F PUSH2 0x78E7 JUMP JUMPDEST PUSH2 0xFFFF SWAP1 SWAP3 AND PUSH1 0x20 SWAP3 DUP4 MUL SWAP2 SWAP1 SWAP2 ADD SWAP1 SWAP2 ADD MSTORE PUSH1 0x3 DUP2 PUSH1 0x53 DUP2 MLOAD DUP2 LT PUSH2 0x6F67 JUMPI PUSH2 0x6F67 PUSH2 0x78E7 JUMP JUMPDEST PUSH2 0xFFFF SWAP1 SWAP3 AND PUSH1 0x20 SWAP3 DUP4 MUL SWAP2 SWAP1 SWAP2 ADD SWAP1 SWAP2 ADD MSTORE PUSH1 0x3 DUP2 PUSH1 0x54 DUP2 MLOAD DUP2 LT PUSH2 0x6F8F JUMPI PUSH2 0x6F8F PUSH2 0x78E7 JUMP JUMPDEST PUSH2 0xFFFF SWAP1 SWAP3 AND PUSH1 0x20 SWAP3 DUP4 MUL SWAP2 SWAP1 SWAP2 ADD SWAP1 SWAP2 ADD MSTORE PUSH1 0x3 DUP2 PUSH1 0x55 DUP2 MLOAD DUP2 LT PUSH2 0x6FB7 JUMPI PUSH2 0x6FB7 PUSH2 0x78E7 JUMP JUMPDEST PUSH2 0xFFFF SWAP1 SWAP3 AND PUSH1 0x20 SWAP3 DUP4 MUL SWAP2 SWAP1 SWAP2 ADD SWAP1 SWAP2 ADD MSTORE PUSH1 0x3 DUP2 PUSH1 0x56 DUP2 MLOAD DUP2 LT PUSH2 0x6FDF JUMPI PUSH2 0x6FDF PUSH2 0x78E7 JUMP JUMPDEST PUSH2 0xFFFF SWAP1 SWAP3 AND PUSH1 0x20 SWAP3 DUP4 MUL SWAP2 SWAP1 SWAP2 ADD SWAP1 SWAP2 ADD MSTORE PUSH1 0x3 DUP2 PUSH1 0x57 DUP2 MLOAD DUP2 LT PUSH2 0x7007 JUMPI PUSH2 0x7007 PUSH2 0x78E7 JUMP JUMPDEST PUSH2 0xFFFF SWAP1 SWAP3 AND PUSH1 0x20 SWAP3 DUP4 MUL SWAP2 SWAP1 SWAP2 ADD SWAP1 SWAP2 ADD MSTORE PUSH1 0x3 DUP2 PUSH1 0x4F DUP2 MLOAD DUP2 LT PUSH2 0x702F JUMPI PUSH2 0x702F PUSH2 0x78E7 JUMP JUMPDEST PUSH2 0xFFFF SWAP1 SWAP3 AND PUSH1 0x20 SWAP3 DUP4 MUL SWAP2 SWAP1 SWAP2 ADD SWAP1 SWAP2 ADD MSTORE PUSH1 0x17 DUP2 PUSH1 0x2C DUP2 MLOAD DUP2 LT PUSH2 0x7057 JUMPI PUSH2 0x7057 PUSH2 0x78E7 JUMP JUMPDEST PUSH2 0xFFFF SWAP1 SWAP3 AND PUSH1 0x20 SWAP3 DUP4 MUL SWAP2 SWAP1 SWAP2 ADD SWAP1 SWAP2 ADD MSTORE PUSH1 0x4 DUP2 PUSH1 0x3F DUP2 MLOAD DUP2 LT PUSH2 0x707F JUMPI PUSH2 0x707F PUSH2 0x78E7 JUMP JUMPDEST PUSH2 0xFFFF SWAP1 SWAP3 AND PUSH1 0x20 SWAP3 DUP4 MUL SWAP2 SWAP1 SWAP2 ADD SWAP1 SWAP2 ADD MSTORE PUSH1 0x3 DUP2 PUSH1 0x40 DUP2 MLOAD DUP2 LT PUSH2 0x70A7 JUMPI PUSH2 0x70A7 PUSH2 0x78E7 JUMP JUMPDEST PUSH2 0xFFFF SWAP1 SWAP3 AND PUSH1 0x20 SWAP3 DUP4 MUL SWAP2 SWAP1 SWAP2 ADD SWAP1 SWAP2 ADD MSTORE PUSH1 0x3 DUP2 PUSH1 0x41 DUP2 MLOAD DUP2 LT PUSH2 0x70CF JUMPI PUSH2 0x70CF PUSH2 0x78E7 JUMP JUMPDEST PUSH1 0x20 MUL PUSH1 0x20 ADD ADD SWAP1 PUSH2 0xFFFF AND SWAP1 DUP2 PUSH2 0xFFFF AND DUP2 MSTORE POP POP PUSH0 PUSH2 0x70F0 DUP5 DUP4 PUSH2 0x7494 JUMP JUMPDEST SWAP1 POP DUP1 PUSH1 0x79 DUP2 GT ISZERO PUSH2 0x1665 JUMPI PUSH2 0x1665 PUSH2 0x77A8 JUMP JUMPDEST PUSH1 0x40 DUP1 MLOAD PUSH1 0x15 DUP1 DUP3 MSTORE PUSH2 0x2C0 DUP3 ADD SWAP1 SWAP3 MSTORE PUSH0 SWAP2 DUP3 SWAP2 SWAP1 PUSH1 0x20 DUP3 ADD PUSH2 0x2A0 DUP1 CALLDATASIZE DUP4 CALLDATACOPY ADD SWAP1 POP POP SWAP1 POP PUSH2 0x253F DUP2 PUSH0 DUP2 MLOAD DUP2 LT PUSH2 0x7140 JUMPI PUSH2 0x7140 PUSH2 0x78E7 JUMP JUMPDEST PUSH2 0xFFFF SWAP1 SWAP3 AND PUSH1 0x20 SWAP3 DUP4 MUL SWAP2 SWAP1 SWAP2 ADD SWAP1 SWAP2 ADD MSTORE PUSH1 0x28 DUP2 PUSH1 0x6 DUP2 MLOAD DUP2 LT PUSH2 0x7168 JUMPI PUSH2 0x7168 PUSH2 0x78E7 JUMP JUMPDEST PUSH2 0xFFFF SWAP1 SWAP3 AND PUSH1 0x20 SWAP3 DUP4 MUL SWAP2 SWAP1 SWAP2 ADD SWAP1 SWAP2 ADD MSTORE PUSH1 0x19 DUP2 PUSH1 0x7 DUP2 MLOAD DUP2 LT PUSH2 0x7190 JUMPI PUSH2 0x7190 PUSH2 0x78E7 JUMP JUMPDEST PUSH2 0xFFFF SWAP1 SWAP3 AND PUSH1 0x20 SWAP3 DUP4 MUL SWAP2 SWAP1 SWAP2 ADD SWAP1 SWAP2 ADD MSTORE PUSH1 0x19 DUP2 PUSH1 0x8 DUP2 MLOAD DUP2 LT PUSH2 0x71B8 JUMPI PUSH2 0x71B8 PUSH2 0x78E7 JUMP JUMPDEST PUSH2 0xFFFF SWAP1 SWAP3 AND PUSH1 0x20 SWAP3 DUP4 MUL SWAP2 SWAP1 SWAP2 ADD SWAP1 SWAP2 ADD MSTORE PUSH1 0x19 DUP2 PUSH1 0x9 DUP2 MLOAD DUP2 LT PUSH2 0x71E0 JUMPI PUSH2 0x71E0 PUSH2 0x78E7 JUMP JUMPDEST PUSH2 0xFFFF SWAP1 SWAP3 AND PUSH1 0x20 SWAP3 DUP4 MUL SWAP2 SWAP1 SWAP2 ADD SWAP1 SWAP2 ADD MSTORE PUSH1 0x19 DUP2 PUSH1 0xA DUP2 MLOAD DUP2 LT PUSH2 0x7208 JUMPI PUSH2 0x7208 PUSH2 0x78E7 JUMP JUMPDEST PUSH2 0xFFFF SWAP1 SWAP3 AND PUSH1 0x20 SWAP3 DUP4 MUL SWAP2 SWAP1 SWAP2 ADD SWAP1 SWAP2 ADD MSTORE PUSH1 0x19 DUP2 PUSH1 0xB DUP2 MLOAD DUP2 LT PUSH2 0x7230 JUMPI PUSH2 0x7230 PUSH2 0x78E7 JUMP JUMPDEST PUSH2 0xFFFF SWAP1 SWAP3 AND PUSH1 0x20 SWAP3 DUP4 MUL SWAP2 SWAP1 SWAP2 ADD SWAP1 SWAP2 ADD MSTORE PUSH1 0x19 DUP2 PUSH1 0xC DUP2 MLOAD DUP2 LT PUSH2 0x7258 JUMPI PUSH2 0x7258 PUSH2 0x78E7 JUMP JUMPDEST PUSH2 0xFFFF SWAP1 SWAP3 AND PUSH1 0x20 SWAP3 DUP4 MUL SWAP2 SWAP1 SWAP2 ADD SWAP1 SWAP2 ADD MSTORE PUSH1 0x19 DUP2 PUSH1 0xD DUP2 MLOAD DUP2 LT PUSH2 0x7280 JUMPI PUSH2 0x7280 PUSH2 0x78E7 JUMP JUMPDEST PUSH2 0xFFFF SWAP1 SWAP3 AND PUSH1 0x20 SWAP3 DUP4 MUL SWAP2 SWAP1 SWAP2 ADD SWAP1 SWAP2 ADD MSTORE PUSH1 0x19 DUP2 PUSH1 0xE DUP2 MLOAD DUP2 LT PUSH2 0x72A8 JUMPI PUSH2 0x72A8 PUSH2 0x78E7 JUMP JUMPDEST PUSH2 0xFFFF SWAP1 SWAP3 AND PUSH1 0x20 SWAP3 DUP4 MUL SWAP2 SWAP1 SWAP2 ADD SWAP1 SWAP2 ADD MSTORE PUSH1 0x1E DUP2 PUSH1 0x1 DUP2 MLOAD DUP2 LT PUSH2 0x72D0 JUMPI PUSH2 0x72D0 PUSH2 0x78E7 JUMP JUMPDEST PUSH2 0xFFFF SWAP1 SWAP3 AND PUSH1 0x20 SWAP3 DUP4 MUL SWAP2 SWAP1 SWAP2 ADD SWAP1 SWAP2 ADD MSTORE PUSH1 0x1E DUP2 PUSH1 0x2 DUP2 MLOAD DUP2 LT PUSH2 0x72F8 JUMPI PUSH2 0x72F8 PUSH2 0x78E7 JUMP JUMPDEST PUSH2 0xFFFF SWAP1 SWAP3 AND PUSH1 0x20 SWAP3 DUP4 MUL SWAP2 SWAP1 SWAP2 ADD SWAP1 SWAP2 ADD MSTORE PUSH1 0x1E DUP2 PUSH1 0x3 DUP2 MLOAD DUP2 LT PUSH2 0x7320 JUMPI PUSH2 0x7320 PUSH2 0x78E7 JUMP JUMPDEST PUSH2 0xFFFF SWAP1 SWAP3 AND PUSH1 0x20 SWAP3 DUP4 MUL SWAP2 SWAP1 SWAP2 ADD SWAP1 SWAP2 ADD MSTORE PUSH1 0x1E DUP2 PUSH1 0x4 DUP2 MLOAD DUP2 LT PUSH2 0x7348 JUMPI PUSH2 0x7348 PUSH2 0x78E7 JUMP JUMPDEST PUSH2 0xFFFF SWAP1 SWAP3 AND PUSH1 0x20 SWAP3 DUP4 MUL SWAP2 SWAP1 SWAP2 ADD SWAP1 SWAP2 ADD MSTORE PUSH1 0xA DUP2 PUSH1 0x10 DUP2 MLOAD DUP2 LT PUSH2 0x7370 JUMPI PUSH2 0x7370 PUSH2 0x78E7 JUMP JUMPDEST PUSH2 0xFFFF SWAP1 SWAP3 AND PUSH1 0x20 SWAP3 DUP4 MUL SWAP2 SWAP1 SWAP2 ADD SWAP1 SWAP2 ADD MSTORE PUSH1 0xA DUP2 PUSH1 0x11 DUP2 MLOAD DUP2 LT PUSH2 0x7398 JUMPI PUSH2 0x7398 PUSH2 0x78E7 JUMP JUMPDEST PUSH2 0xFFFF SWAP1 SWAP3 AND PUSH1 0x20 SWAP3 DUP4 MUL SWAP2 SWAP1 SWAP2 ADD SWAP1 SWAP2 ADD MSTORE PUSH1 0xA DUP2 PUSH1 0x12 DUP2 MLOAD DUP2 LT PUSH2 0x73C0 JUMPI PUSH2 0x73C0 PUSH2 0x78E7 JUMP JUMPDEST PUSH2 0xFFFF SWAP1 SWAP3 AND PUSH1 0x20 SWAP3 DUP4 MUL SWAP2 SWAP1 SWAP2 ADD SWAP1 SWAP2 ADD MSTORE PUSH1 0xA DUP2 PUSH1 0x13 DUP2 MLOAD DUP2 LT PUSH2 0x73E8 JUMPI PUSH2 0x73E8 PUSH2 0x78E7 JUMP JUMPDEST PUSH2 0xFFFF SWAP1 SWAP3 AND PUSH1 0x20 SWAP3 DUP4 MUL SWAP2 SWAP1 SWAP2 ADD SWAP1 SWAP2 ADD MSTORE PUSH1 0xA DUP2 PUSH1 0x14 DUP2 MLOAD DUP2 LT PUSH2 0x7410 JUMPI PUSH2 0x7410 PUSH2 0x78E7 JUMP JUMPDEST PUSH2 0xFFFF SWAP1 SWAP3 AND PUSH1 0x20 SWAP3 DUP4 MUL SWAP2 SWAP1 SWAP2 ADD SWAP1 SWAP2 ADD MSTORE PUSH1 0x1E DUP2 PUSH1 0x5 DUP2 MLOAD DUP2 LT PUSH2 0x7438 JUMPI PUSH2 0x7438 PUSH2 0x78E7 JUMP JUMPDEST PUSH2 0xFFFF SWAP1 SWAP3 AND PUSH1 0x20 SWAP3 DUP4 MUL SWAP2 SWAP1 SWAP2 ADD SWAP1 SWAP2 ADD MSTORE PUSH1 0xF DUP2 DUP2 DUP2 MLOAD DUP2 LT PUSH2 0x745F JUMPI PUSH2 0x745F PUSH2 0x78E7 JUMP JUMPDEST PUSH1 0x20 MUL PUSH1 0x20 ADD ADD SWAP1 PUSH2 0xFFFF AND SWAP1 DUP2 PUSH2 0xFFFF AND DUP2 MSTORE POP POP PUSH0 PUSH2 0x7480 DUP5 DUP4 PUSH2 0x7494 JUMP JUMPDEST SWAP1 POP DUP1 PUSH1 0x14 DUP2 GT ISZERO PUSH2 0x1665 JUMPI PUSH2 0x1665 PUSH2 0x77A8 JUMP JUMPDEST PUSH0 DUP1 DUP1 JUMPDEST DUP4 MLOAD DUP2 LT ISZERO PUSH2 0x74D4 JUMPI DUP4 DUP2 DUP2 MLOAD DUP2 LT PUSH2 0x74B3 JUMPI PUSH2 0x74B3 PUSH2 0x78E7 JUMP JUMPDEST PUSH1 0x20 MUL PUSH1 0x20 ADD ADD MLOAD PUSH2 0xFFFF AND DUP3 PUSH2 0x74CA SWAP2 SWAP1 PUSH2 0x7E2C JUMP JUMPDEST SWAP2 POP PUSH1 0x1 ADD PUSH2 0x7498 JUMP JUMPDEST POP PUSH0 PUSH2 0x74E0 DUP6 DUP4 PUSH2 0x75B4 JUMP JUMPDEST SWAP1 POP PUSH2 0x31CD DUP5 DUP3 PUSH2 0x7612 JUMP JUMPDEST PUSH0 PUSH1 0x7 PUSH1 0xFF AND DUP3 PUSH2 0x280 ADD MLOAD PUSH1 0x19 DUP2 GT ISZERO PUSH2 0x7509 JUMPI PUSH2 0x7509 PUSH2 0x77A8 JUMP JUMPDEST PUSH1 0xFF AND LT ISZERO DUP1 ISZERO PUSH2 0x31D2 JUMPI POP PUSH2 0x280 DUP3 ADD MLOAD PUSH1 0x12 SWAP1 PUSH1 0x19 DUP2 GT ISZERO PUSH2 0x752F JUMPI PUSH2 0x752F PUSH2 0x77A8 JUMP JUMPDEST PUSH1 0xFF AND GT ISZERO SWAP3 SWAP2 POP POP JUMP JUMPDEST PUSH0 PUSH1 0x18 JUMPDEST DUP3 PUSH2 0x280 ADD MLOAD PUSH1 0x19 DUP2 GT ISZERO PUSH2 0x7555 JUMPI PUSH2 0x7555 PUSH2 0x77A8 JUMP JUMPDEST EQ SWAP3 SWAP2 POP POP JUMP JUMPDEST PUSH0 PUSH1 0x15 PUSH2 0x753E JUMP JUMPDEST PUSH0 PUSH1 0x14 PUSH2 0x753E JUMP JUMPDEST PUSH0 PUSH1 0x17 PUSH2 0x753E JUMP JUMPDEST PUSH0 PUSH1 0x4 PUSH2 0x753E JUMP JUMPDEST PUSH0 PUSH1 0x2 PUSH2 0x753E JUMP JUMPDEST PUSH0 PUSH1 0x19 PUSH2 0x753E JUMP JUMPDEST PUSH0 PUSH1 0x1 PUSH2 0x753E JUMP JUMPDEST PUSH0 PUSH1 0x3 PUSH2 0x753E JUMP JUMPDEST PUSH0 PUSH1 0x5 PUSH2 0x753E JUMP JUMPDEST PUSH0 PUSH1 0x6 PUSH2 0x753E JUMP JUMPDEST PUSH0 PUSH1 0x16 PUSH2 0x753E JUMP JUMPDEST PUSH1 0x20 DUP3 ADD DUP1 MLOAD PUSH0 SWAP2 PUSH2 0x75C5 DUP3 PUSH2 0x7E3F JUMP JUMPDEST SWAP1 MSTORE POP DUP3 MLOAD PUSH1 0x20 DUP1 DUP6 ADD MLOAD PUSH1 0x40 MLOAD PUSH0 SWAP4 PUSH2 0x75EB SWAP4 SWAP1 SWAP3 SWAP2 ADD SWAP2 DUP3 MSTORE PUSH1 0x20 DUP3 ADD MSTORE PUSH1 0x40 ADD SWAP1 JUMP JUMPDEST PUSH1 0x40 DUP1 MLOAD PUSH1 0x1F NOT DUP2 DUP5 SUB ADD DUP2 MSTORE SWAP2 SWAP1 MSTORE DUP1 MLOAD PUSH1 0x20 SWAP1 SWAP2 ADD KECCAK256 DUP1 DUP6 MSTORE SWAP1 POP PUSH2 0x1665 DUP4 DUP3 PUSH2 0x7E57 JUMP JUMPDEST PUSH0 DUP1 DUP1 JUMPDEST DUP5 MLOAD DUP2 LT ISZERO PUSH2 0x7663 JUMPI DUP5 DUP2 DUP2 MLOAD DUP2 LT PUSH2 0x7631 JUMPI PUSH2 0x7631 PUSH2 0x78E7 JUMP JUMPDEST PUSH1 0x20 MUL PUSH1 0x20 ADD ADD MLOAD PUSH2 0xFFFF AND DUP3 PUSH2 0x7648 SWAP2 SWAP1 PUSH2 0x7E2C JUMP JUMPDEST SWAP2 POP DUP2 DUP5 LT ISZERO PUSH2 0x765B JUMPI SWAP2 POP PUSH2 0x31D2 SWAP1 POP JUMP JUMPDEST PUSH1 0x1 ADD PUSH2 0x7616 JUMP JUMPDEST POP PUSH1 0x40 MLOAD PUSH3 0x461BCD PUSH1 0xE5 SHL DUP2 MSTORE PUSH1 0x20 PUSH1 0x4 DUP3 ADD MSTORE PUSH1 0x10 PUSH1 0x24 DUP3 ADD MSTORE PUSH16 0x14D95B1958DD1A5BDB8819985A5B1959 PUSH1 0x82 SHL PUSH1 0x44 DUP3 ADD MSTORE PUSH1 0x64 ADD PUSH1 0x40 MLOAD DUP1 SWAP2 SUB SWAP1 REVERT JUMPDEST PUSH4 0x4E487B71 PUSH1 0xE0 SHL PUSH0 MSTORE PUSH1 0x41 PUSH1 0x4 MSTORE PUSH1 0x24 PUSH0 REVERT JUMPDEST PUSH1 0x40 DUP1 MLOAD SWAP1 DUP2 ADD PUSH8 0xFFFFFFFFFFFFFFFF DUP2 GT DUP3 DUP3 LT OR ISZERO PUSH2 0x76DA JUMPI PUSH2 0x76DA PUSH2 0x76A3 JUMP JUMPDEST PUSH1 0x40 MSTORE SWAP1 JUMP JUMPDEST PUSH1 0x40 MLOAD PUSH1 0x80 DUP2 ADD PUSH8 0xFFFFFFFFFFFFFFFF DUP2 GT DUP3 DUP3 LT OR ISZERO PUSH2 0x76DA JUMPI PUSH2 0x76DA PUSH2 0x76A3 JUMP JUMPDEST PUSH1 0x40 MLOAD PUSH2 0x420 DUP2 ADD PUSH8 0xFFFFFFFFFFFFFFFF DUP2 GT DUP3 DUP3 LT OR ISZERO PUSH2 0x76DA JUMPI PUSH2 0x76DA PUSH2 0x76A3 JUMP JUMPDEST PUSH1 0x40 MLOAD PUSH1 0x1F DUP3 ADD PUSH1 0x1F NOT AND DUP2 ADD PUSH8 0xFFFFFFFFFFFFFFFF DUP2 GT DUP3 DUP3 LT OR ISZERO PUSH2 0x7750 JUMPI PUSH2 0x7750 PUSH2 0x76A3 JUMP JUMPDEST PUSH1 0x40 MSTORE SWAP2 SWAP1 POP JUMP JUMPDEST PUSH0 PUSH1 0x40 DUP3 DUP5 SUB SLT ISZERO PUSH2 0x7768 JUMPI PUSH0 PUSH0 REVERT JUMPDEST PUSH2 0x7770 PUSH2 0x76B7 JUMP JUMPDEST DUP3 CALLDATALOAD DUP2 MSTORE PUSH1 0x20 SWAP3 DUP4 ADD CALLDATALOAD SWAP3 DUP2 ADD SWAP3 SWAP1 SWAP3 MSTORE POP SWAP2 SWAP1 POP JUMP JUMPDEST PUSH0 PUSH1 0x40 DUP3 DUP5 SUB SLT ISZERO PUSH2 0x7797 JUMPI PUSH0 PUSH0 REVERT JUMPDEST PUSH2 0x77A1 DUP4 DUP4 PUSH2 0x7758 JUMP JUMPDEST SWAP4 SWAP3 POP POP POP JUMP JUMPDEST PUSH4 0x4E487B71 PUSH1 0xE0 SHL PUSH0 MSTORE PUSH1 0x21 PUSH1 0x4 MSTORE PUSH1 0x24 PUSH0 REVERT JUMPDEST PUSH1 0x20 DUP2 ADD PUSH1 0x84 DUP4 LT PUSH2 0x77D0 JUMPI PUSH2 0x77D0 PUSH2 0x77A8 JUMP JUMPDEST SWAP2 SWAP1 MSTORE SWAP1 JUMP JUMPDEST PUSH1 0x9 DUP2 LT PUSH2 0x77E6 JUMPI PUSH2 0x77E6 PUSH2 0x77A8 JUMP JUMPDEST POP JUMP JUMPDEST PUSH1 0x20 DUP2 ADD PUSH2 0x77D0 DUP4 PUSH2 0x77D6 JUMP JUMPDEST PUSH1 0x20 DUP2 ADD PUSH1 0x1A DUP4 LT PUSH2 0x77D0 JUMPI PUSH2 0x77D0 PUSH2 0x77A8 JUMP JUMPDEST PUSH0 PUSH0 PUSH1 0x60 DUP4 DUP6 SUB SLT ISZERO PUSH2 0x781B JUMPI PUSH0 PUSH0 REVERT JUMPDEST DUP3 CALLDATALOAD PUSH8 0xFFFFFFFFFFFFFFFF DUP2 GT ISZERO PUSH2 0x7831 JUMPI PUSH0 PUSH0 REVERT JUMPDEST DUP4 ADD PUSH2 0x420 DUP2 DUP7 SUB SLT ISZERO PUSH2 0x7843 JUMPI PUSH0 PUSH0 REVERT JUMPDEST SWAP2 POP PUSH2 0x7852 DUP5 PUSH1 0x20 DUP6 ADD PUSH2 0x7758 JUMP JUMPDEST SWAP1 POP SWAP3 POP SWAP3 SWAP1 POP JUMP JUMPDEST PUSH1 0x20 DUP2 ADD PUSH1 0x85 DUP4 LT PUSH2 0x77D0 JUMPI PUSH2 0x77D0 PUSH2 0x77A8 JUMP JUMPDEST PUSH1 0x20 DUP2 ADD PUSH1 0x1F DUP4 LT PUSH2 0x77D0 JUMPI PUSH2 0x77D0 PUSH2 0x77A8 JUMP JUMPDEST PUSH1 0x20 DUP2 ADD PUSH1 0x13 DUP4 LT PUSH2 0x77D0 JUMPI PUSH2 0x77D0 PUSH2 0x77A8 JUMP JUMPDEST PUSH1 0x20 DUP2 ADD PUSH1 0xC3 DUP4 LT PUSH2 0x77D0 JUMPI PUSH2 0x77D0 PUSH2 0x77A8 JUMP JUMPDEST PUSH1 0x20 DUP2 ADD PUSH1 0x4 DUP4 LT PUSH2 0x77D0 JUMPI PUSH2 0x77D0 PUSH2 0x77A8 JUMP JUMPDEST PUSH1 0x20 DUP2 ADD PUSH1 0x7A DUP4 LT PUSH2 0x77D0 JUMPI PUSH2 0x77D0 PUSH2 0x77A8 JUMP JUMPDEST PUSH1 0x20 DUP2 ADD PUSH1 0x15 DUP4 LT PUSH2 0x77D0 JUMPI PUSH2 0x77D0 PUSH2 0x77A8 JUMP JUMPDEST PUSH4 0x4E487B71 PUSH1 0xE0 SHL PUSH0 MSTORE PUSH1 0x32 PUSH1 0x4 MSTORE PUSH1 0x24 PUSH0 REVERT JUMPDEST DUP1 CALLDATALOAD PUSH1 0x1C DUP2 LT PUSH2 0x7909 JUMPI PUSH0 PUSH0 REVERT JUMPDEST SWAP2 SWAP1 POP JUMP JUMPDEST DUP1 CALLDATALOAD PUSH1 0xFF DUP2 AND DUP2 EQ PUSH2 0x7909 JUMPI PUSH0 PUSH0 REVERT JUMPDEST PUSH0 DUP3 PUSH1 0x1F DUP4 ADD SLT PUSH2 0x792D JUMPI PUSH0 PUSH0 REVERT JUMPDEST DUP2 CALLDATALOAD PUSH8 0xFFFFFFFFFFFFFFFF DUP2 GT ISZERO PUSH2 0x7947 JUMPI PUSH2 0x7947 PUSH2 0x76A3 JUMP JUMPDEST PUSH2 0x7956 PUSH1 0x20 DUP3 PUSH1 0x5 SHL ADD PUSH2 0x7727 JUMP JUMPDEST DUP1 DUP3 DUP3 MSTORE PUSH1 0x20 DUP3 ADD SWAP2 POP PUSH1 0x20 PUSH1 0xA0 DUP5 MUL DUP7 ADD ADD SWAP3 POP DUP6 DUP4 GT ISZERO PUSH2 0x7977 JUMPI PUSH0 PUSH0 REVERT JUMPDEST PUSH1 0x20 DUP6 ADD JUMPDEST DUP4 DUP2 LT ISZERO PUSH2 0x7A27 JUMPI DUP1 DUP8 SUB PUSH1 0xA0 DUP2 SLT ISZERO PUSH2 0x7994 JUMPI PUSH0 PUSH0 REVERT JUMPDEST PUSH2 0x799C PUSH2 0x76E0 JUMP JUMPDEST PUSH2 0x79A5 DUP4 PUSH2 0x78FB JUMP JUMPDEST DUP2 MSTORE PUSH2 0x79B3 PUSH1 0x20 DUP5 ADD PUSH2 0x790E JUMP JUMPDEST PUSH1 0x20 DUP3 ADD MSTORE PUSH1 0x40 DUP4 ADD CALLDATALOAD DUP1 ISZERO ISZERO DUP2 EQ PUSH2 0x79CA JUMPI PUSH0 PUSH0 REVERT JUMPDEST DUP1 PUSH1 0x40 DUP4 ADD MSTORE POP PUSH1 0x40 PUSH1 0x5F NOT DUP4 ADD SLT ISZERO PUSH2 0x79E2 JUMPI PUSH0 PUSH0 REVERT JUMPDEST PUSH2 0x79EA PUSH2 0x76B7 JUMP JUMPDEST SWAP2 POP PUSH2 0x79F8 PUSH1 0x60 DUP5 ADD PUSH2 0x78FB JUMP JUMPDEST DUP3 MSTORE PUSH2 0x7A06 PUSH1 0x80 DUP5 ADD PUSH2 0x790E JUMP JUMPDEST PUSH1 0x20 DUP4 ADD MSTORE DUP2 PUSH1 0x60 DUP3 ADD MSTORE DUP1 DUP6 MSTORE POP POP PUSH1 0x20 DUP4 ADD SWAP3 POP PUSH1 0xA0 DUP2 ADD SWAP1 POP PUSH2 0x797C JUMP JUMPDEST POP SWAP6 SWAP5 POP POP POP POP POP JUMP JUMPDEST DUP1 CALLDATALOAD PUSH2 0xFFFF DUP2 AND DUP2 EQ PUSH2 0x7909 JUMPI PUSH0 PUSH0 REVERT JUMPDEST DUP1 CALLDATALOAD PUSH4 0xFFFFFFFF DUP2 AND DUP2 EQ PUSH2 0x7909 JUMPI PUSH0 PUSH0 REVERT JUMPDEST DUP1 CALLDATALOAD PUSH1 0x2 DUP2 LT PUSH2 0x7909 JUMPI PUSH0 PUSH0 REVERT JUMPDEST DUP1 CALLDATALOAD PUSH1 0xB DUP2 LT PUSH2 0x7909 JUMPI PUSH0 PUSH0 REVERT JUMPDEST DUP1 CALLDATALOAD PUSH1 0x1D DUP2 LT PUSH2 0x7909 JUMPI PUSH0 PUSH0 REVERT JUMPDEST DUP1 CALLDATALOAD PUSH1 0x17 DUP2 LT PUSH2 0x7909 JUMPI PUSH0 PUSH0 REVERT JUMPDEST DUP1 CALLDATALOAD PUSH1 0x14 DUP2 LT PUSH2 0x7909 JUMPI PUSH0 PUSH0 REVERT JUMPDEST DUP1 CALLDATALOAD PUSH1 0x9 DUP2 LT PUSH2 0x7909 JUMPI PUSH0 PUSH0 REVERT JUMPDEST DUP1 CALLDATALOAD PUSH1 0x4 DUP2 LT PUSH2 0x7909 JUMPI PUSH0 PUSH0 REVERT JUMPDEST DUP1 CALLDATALOAD PUSH1 0x58 DUP2 LT PUSH2 0x7909 JUMPI PUSH0 PUSH0 REVERT JUMPDEST DUP1 CALLDATALOAD PUSH1 0x16 DUP2 LT PUSH2 0x7909 JUMPI PUSH0 PUSH0 REVERT JUMPDEST DUP1 CALLDATALOAD PUSH1 0xD4 DUP2 LT PUSH2 0x7909 JUMPI PUSH0 PUSH0 REVERT JUMPDEST DUP1 CALLDATALOAD PUSH1 0x6A DUP2 LT PUSH2 0x7909 JUMPI PUSH0 PUSH0 REVERT JUMPDEST DUP1 CALLDATALOAD PUSH1 0xA9 DUP2 LT PUSH2 0x7909 JUMPI PUSH0 PUSH0 REVERT JUMPDEST DUP1 CALLDATALOAD PUSH1 0x80 DUP2 LT PUSH2 0x7909 JUMPI PUSH0 PUSH0 REVERT JUMPDEST DUP1 CALLDATALOAD PUSH1 0x1A DUP2 LT PUSH2 0x7909 JUMPI PUSH0 PUSH0 REVERT JUMPDEST DUP1 CALLDATALOAD PUSH1 0x1F DUP2 LT PUSH2 0x7909 JUMPI PUSH0 PUSH0 REVERT JUMPDEST DUP1 CALLDATALOAD PUSH1 0x13 DUP2 LT PUSH2 0x7909 JUMPI PUSH0 PUSH0 REVERT JUMPDEST DUP1 CALLDATALOAD PUSH1 0x15 DUP2 LT PUSH2 0x7909 JUMPI PUSH0 PUSH0 REVERT JUMPDEST DUP1 CALLDATALOAD PUSH1 0xC3 DUP2 LT PUSH2 0x7909 JUMPI PUSH0 PUSH0 REVERT JUMPDEST DUP1 CALLDATALOAD PUSH1 0x85 DUP2 LT PUSH2 0x7909 JUMPI PUSH0 PUSH0 REVERT JUMPDEST DUP1 CALLDATALOAD PUSH1 0x84 DUP2 LT PUSH2 0x7909 JUMPI PUSH0 PUSH0 REVERT JUMPDEST DUP1 CALLDATALOAD PUSH1 0x7A DUP2 LT PUSH2 0x7909 JUMPI PUSH0 PUSH0 REVERT JUMPDEST DUP1 CALLDATALOAD PUSH1 0xD DUP2 LT PUSH2 0x7909 JUMPI PUSH0 PUSH0 REVERT JUMPDEST PUSH0 PUSH2 0x420 DUP3 CALLDATASIZE SUB SLT ISZERO PUSH2 0x7B9A JUMPI PUSH0 PUSH0 REVERT JUMPDEST PUSH2 0x7BA2 PUSH2 0x7703 JUMP JUMPDEST DUP3 CALLDATALOAD PUSH8 0xFFFFFFFFFFFFFFFF DUP2 GT ISZERO PUSH2 0x7BB8 JUMPI PUSH0 PUSH0 REVERT JUMPDEST PUSH2 0x7BC4 CALLDATASIZE DUP3 DUP7 ADD PUSH2 0x791E JUMP JUMPDEST DUP3 MSTORE POP PUSH2 0x7BD3 PUSH1 0x20 DUP5 ADD PUSH2 0x790E JUMP JUMPDEST PUSH1 0x20 DUP3 ADD MSTORE PUSH2 0x7BE4 PUSH1 0x40 DUP5 ADD PUSH2 0x7A31 JUMP JUMPDEST PUSH1 0x40 DUP3 ADD MSTORE PUSH1 0x60 DUP4 DUP2 ADD CALLDATALOAD SWAP1 DUP3 ADD MSTORE PUSH2 0x7BFF PUSH1 0x80 DUP5 ADD PUSH2 0x7A31 JUMP JUMPDEST PUSH1 0x80 DUP3 ADD MSTORE PUSH2 0x7C10 PUSH1 0xA0 DUP5 ADD PUSH2 0x7A42 JUMP JUMPDEST PUSH1 0xA0 DUP3 ADD MSTORE PUSH2 0x7C21 PUSH1 0xC0 DUP5 ADD PUSH2 0x7A55 JUMP JUMPDEST PUSH1 0xC0 DUP3 ADD MSTORE PUSH2 0x7C32 PUSH1 0xE0 DUP5 ADD PUSH2 0x7A63 JUMP JUMPDEST PUSH1 0xE0 DUP3 ADD MSTORE PUSH2 0x7C44 PUSH2 0x100 DUP5 ADD PUSH2 0x7A71 JUMP JUMPDEST PUSH2 0x100 DUP3 ADD MSTORE PUSH2 0x7C57 PUSH2 0x120 DUP5 ADD PUSH2 0x7A7F JUMP JUMPDEST PUSH2 0x120 DUP3 ADD MSTORE PUSH2 0x7C6A PUSH2 0x140 DUP5 ADD PUSH2 0x7A8D JUMP JUMPDEST PUSH2 0x140 DUP3 ADD MSTORE PUSH2 0x7C7D PUSH2 0x160 DUP5 ADD PUSH2 0x7A9B JUMP JUMPDEST PUSH2 0x160 DUP3 ADD MSTORE PUSH2 0x7C90 PUSH2 0x180 DUP5 ADD PUSH2 0x7A9B JUMP JUMPDEST PUSH2 0x180 DUP3 ADD MSTORE PUSH2 0x7CA3 PUSH2 0x1A0 DUP5 ADD PUSH2 0x7AA9 JUMP JUMPDEST PUSH2 0x1A0 DUP3 ADD MSTORE PUSH2 0x7CB6 PUSH2 0x1C0 DUP5 ADD PUSH2 0x7AB7 JUMP JUMPDEST PUSH2 0x1C0 DUP3 ADD MSTORE PUSH2 0x7CC9 PUSH2 0x1E0 DUP5 ADD PUSH2 0x7AC5 JUMP JUMPDEST PUSH2 0x1E0 DUP3 ADD MSTORE PUSH2 0x7CDC PUSH2 0x200 DUP5 ADD PUSH2 0x7AD3 JUMP JUMPDEST PUSH2 0x200 DUP3 ADD MSTORE PUSH2 0x7CEF PUSH2 0x220 DUP5 ADD PUSH2 0x7AE1 JUMP JUMPDEST PUSH2 0x220 DUP3 ADD MSTORE PUSH2 0x7D02 PUSH2 0x240 DUP5 ADD PUSH2 0x7AEF JUMP JUMPDEST PUSH2 0x240 DUP3 ADD MSTORE PUSH2 0x7D15 PUSH2 0x260 DUP5 ADD PUSH2 0x7AFD JUMP JUMPDEST PUSH2 0x260 DUP3 ADD MSTORE PUSH2 0x7D28 PUSH2 0x280 DUP5 ADD PUSH2 0x7B0B JUMP JUMPDEST PUSH2 0x280 DUP3 ADD MSTORE PUSH2 0x7D3B PUSH2 0x2A0 DUP5 ADD PUSH2 0x7B19 JUMP JUMPDEST PUSH2 0x2A0 DUP3 ADD MSTORE PUSH2 0x7D4E PUSH2 0x2C0 DUP5 ADD PUSH2 0x7B27 JUMP JUMPDEST PUSH2 0x2C0 DUP3 ADD MSTORE PUSH2 0x7D61 PUSH2 0x2E0 DUP5 ADD PUSH2 0x7A9B JUMP JUMPDEST PUSH2 0x2E0 DUP3 ADD MSTORE PUSH2 0x7D74 PUSH2 0x300 DUP5 ADD PUSH2 0x7A9B JUMP JUMPDEST PUSH2 0x300 DUP3 ADD MSTORE PUSH2 0x7D87 PUSH2 0x320 DUP5 ADD PUSH2 0x7AA9 JUMP JUMPDEST PUSH2 0x320 DUP3 ADD MSTORE PUSH2 0x7D9A PUSH2 0x340 DUP5 ADD PUSH2 0x7B35 JUMP JUMPDEST PUSH2 0x340 DUP3 ADD MSTORE PUSH2 0x7DAD PUSH2 0x360 DUP5 ADD PUSH2 0x7B43 JUMP JUMPDEST PUSH2 0x360 DUP3 ADD MSTORE PUSH2 0x7DC0 PUSH2 0x380 DUP5 ADD PUSH2 0x7B51 JUMP JUMPDEST PUSH2 0x380 DUP3 ADD MSTORE PUSH2 0x7DD3 PUSH2 0x3A0 DUP5 ADD PUSH2 0x7B5F JUMP JUMPDEST PUSH2 0x3A0 DUP3 ADD MSTORE PUSH2 0x7DE6 PUSH2 0x3C0 DUP5 ADD PUSH2 0x7B6D JUMP JUMPDEST PUSH2 0x3C0 DUP3 ADD MSTORE PUSH2 0x7DF9 PUSH2 0x3E0 DUP5 ADD PUSH2 0x7B7B JUMP JUMPDEST PUSH2 0x3E0 DUP3 ADD MSTORE PUSH2 0x7E0C PUSH2 0x400 DUP5 ADD PUSH2 0x7A63 JUMP JUMPDEST PUSH2 0x400 DUP3 ADD MSTORE SWAP3 SWAP2 POP POP JUMP JUMPDEST PUSH4 0x4E487B71 PUSH1 0xE0 SHL PUSH0 MSTORE PUSH1 0x11 PUSH1 0x4 MSTORE PUSH1 0x24 PUSH0 REVERT JUMPDEST DUP1 DUP3 ADD DUP1 DUP3 GT ISZERO PUSH2 0x31D2 JUMPI PUSH2 0x31D2 PUSH2 0x7E18 JUMP JUMPDEST PUSH0 PUSH1 0x1 DUP3 ADD PUSH2 0x7E50 JUMPI PUSH2 0x7E50 PUSH2 0x7E18 JUMP JUMPDEST POP PUSH1 0x1 ADD SWAP1 JUMP JUMPDEST PUSH0 DUP3 PUSH2 0x7E71 JUMPI PUSH4 0x4E487B71 PUSH1 0xE0 SHL PUSH0 MSTORE PUSH1 0x12 PUSH1 0x4 MSTORE PUSH1 0x24 PUSH0 REVERT JUMPDEST POP MOD SWAP1 JUMP INVALID LOG2 PUSH5 0x6970667358 0x22 SLT KECCAK256 DUP7 0xF GAS MSIZE DUP1 JUMPDEST MSTORE ORIGIN DUP1 PUSH4 0x5753D4C5 SELFDESTRUCT PUSH28 0x4D9CD52F9B2B4FE8B662990368885CB464736F6C634300081E003300 "
		},
		"gasEstimates": {
			"creation": {
				"codeDepositCost": "6485600",
				"executionCost": "8141",
				"totalCost": "6493741"
			},
			"external": {
				"selectFemaleChain((uint256,uint256))": "infinite",
				"selectFemaleEarring((uint256,uint256))": "infinite",
				"selectFemaleEyeWear((uint256,uint256))": "infinite",
				"selectFemaleEyes(((uint8,uint8,bool,(uint8,uint8))[],uint8,uint16,uint256,uint16,uint32,uint8,uint8,uint8,uint8,uint8,uint8,uint8,uint8,uint8,uint8,uint8,uint8,uint8,uint8,uint8,uint8,uint8,uint8,uint8,uint8,uint8,uint8,uint8,uint8,uint8,uint8,uint8),(uint256,uint256))": "infinite",
				"selectFemaleFace(((uint8,uint8,bool,(uint8,uint8))[],uint8,uint16,uint256,uint16,uint32,uint8,uint8,uint8,uint8,uint8,uint8,uint8,uint8,uint8,uint8,uint8,uint8,uint8,uint8,uint8,uint8,uint8,uint8,uint8,uint8,uint8,uint8,uint8,uint8,uint8,uint8,uint8),(uint256,uint256))": "infinite",
				"selectFemaleHair(((uint8,uint8,bool,(uint8,uint8))[],uint8,uint16,uint256,uint16,uint32,uint8,uint8,uint8,uint8,uint8,uint8,uint8,uint8,uint8,uint8,uint8,uint8,uint8,uint8,uint8,uint8,uint8,uint8,uint8,uint8,uint8,uint8,uint8,uint8,uint8,uint8,uint8),(uint256,uint256))": "infinite",
				"selectFemaleHatHair(((uint8,uint8,bool,(uint8,uint8))[],uint8,uint16,uint256,uint16,uint32,uint8,uint8,uint8,uint8,uint8,uint8,uint8,uint8,uint8,uint8,uint8,uint8,uint8,uint8,uint8,uint8,uint8,uint8,uint8,uint8,uint8,uint8,uint8,uint8,uint8,uint8,uint8),(uint256,uint256))": "infinite",
				"selectFemaleHeadwear((uint256,uint256))": "infinite",
				"selectFemaleMask((uint256,uint256))": "infinite",
				"selectFemaleScarf((uint256,uint256))": "infinite",
				"selectFemaleSkinType((uint256,uint256))": "infinite"
			}
		},
		"methodIdentifiers": {
			"selectFemaleChain((uint256,uint256))": "29814be5",
			"selectFemaleEarring((uint256,uint256))": "8e57a737",
			"selectFemaleEyeWear((uint256,uint256))": "a063f74f",
			"selectFemaleEyes(((uint8,uint8,bool,(uint8,uint8))[],uint8,uint16,uint256,uint16,uint32,uint8,uint8,uint8,uint8,uint8,uint8,uint8,uint8,uint8,uint8,uint8,uint8,uint8,uint8,uint8,uint8,uint8,uint8,uint8,uint8,uint8,uint8,uint8,uint8,uint8,uint8,uint8),(uint256,uint256))": "58a44c98",
			"selectFemaleFace(((uint8,uint8,bool,(uint8,uint8))[],uint8,uint16,uint256,uint16,uint32,uint8,uint8,uint8,uint8,uint8,uint8,uint8,uint8,uint8,uint8,uint8,uint8,uint8,uint8,uint8,uint8,uint8,uint8,uint8,uint8,uint8,uint8,uint8,uint8,uint8,uint8,uint8),(uint256,uint256))": "6245a744",
			"selectFemaleHair(((uint8,uint8,bool,(uint8,uint8))[],uint8,uint16,uint256,uint16,uint32,uint8,uint8,uint8,uint8,uint8,uint8,uint8,uint8,uint8,uint8,uint8,uint8,uint8,uint8,uint8,uint8,uint8,uint8,uint8,uint8,uint8,uint8,uint8,uint8,uint8,uint8,uint8),(uint256,uint256))": "69b913fa",
			"selectFemaleHatHair(((uint8,uint8,bool,(uint8,uint8))[],uint8,uint16,uint256,uint16,uint32,uint8,uint8,uint8,uint8,uint8,uint8,uint8,uint8,uint8,uint8,uint8,uint8,uint8,uint8,uint8,uint8,uint8,uint8,uint8,uint8,uint8,uint8,uint8,uint8,uint8,uint8,uint8),(uint256,uint256))": "5489f9cf",
			"selectFemaleHeadwear((uint256,uint256))": "2743c88f",
			"selectFemaleMask((uint256,uint256))": "e0cf503a",
			"selectFemaleScarf((uint256,uint256))": "74953ae2",
			"selectFemaleSkinType((uint256,uint256))": "51245032"
		}
	},
	"abi": [
		{
			"inputs": [
				{
					"components": [
						{
							"internalType": "uint256",
							"name": "seed",
							"type": "uint256"
						},
						{
							"internalType": "uint256",
							"name": "counter",
							"type": "uint256"
						}
					],
					"internalType": "struct RandomCtx",
					"name": "rndCtx",
					"type": "tuple"
				}
			],
			"name": "selectFemaleChain",
			"outputs": [
				{
					"internalType": "enum E_Female_Chain",
					"name": "",
					"type": "uint8"
				}
			],
			"stateMutability": "pure",
			"type": "function"
		},
		{
			"inputs": [
				{
					"components": [
						{
							"internalType": "uint256",
							"name": "seed",
							"type": "uint256"
						},
						{
							"internalType": "uint256",
							"name": "counter",
							"type": "uint256"
						}
					],
					"internalType": "struct RandomCtx",
					"name": "rndCtx",
					"type": "tuple"
				}
			],
			"name": "selectFemaleEarring",
			"outputs": [
				{
					"internalType": "enum E_Female_Earring",
					"name": "",
					"type": "uint8"
				}
			],
			"stateMutability": "pure",
			"type": "function"
		},
		{
			"inputs": [
				{
					"components": [
						{
							"internalType": "uint256",
							"name": "seed",
							"type": "uint256"
						},
						{
							"internalType": "uint256",
							"name": "counter",
							"type": "uint256"
						}
					],
					"internalType": "struct RandomCtx",
					"name": "rndCtx",
					"type": "tuple"
				}
			],
			"name": "selectFemaleEyeWear",
			"outputs": [
				{
					"internalType": "enum E_Female_Eye_Wear",
					"name": "",
					"type": "uint8"
				}
			],
			"stateMutability": "pure",
			"type": "function"
		},
		{
			"inputs": [
				{
					"components": [
						{
							"components": [
								{
									"internalType": "enum E_TraitsGroup",
									"name": "traitGroup",
									"type": "uint8"
								},
								{
									"internalType": "uint8",
									"name": "traitIndex",
									"type": "uint8"
								},
								{
									"internalType": "bool",
									"name": "hasFiller",
									"type": "bool"
								},
								{
									"components": [
										{
											"internalType": "enum E_TraitsGroup",
											"name": "traitGroup",
											"type": "uint8"
										},
										{
											"internalType": "uint8",
											"name": "traitIndex",
											"type": "uint8"
										}
									],
									"internalType": "struct FillerTrait",
									"name": "filler",
									"type": "tuple"
								}
							],
							"internalType": "struct TraitToRender[]",
							"name": "traitsToRender",
							"type": "tuple[]"
						},
						{
							"internalType": "uint8",
							"name": "traitsToRenderLength",
							"type": "uint8"
						},
						{
							"internalType": "uint16",
							"name": "tokenIdSeed",
							"type": "uint16"
						},
						{
							"internalType": "uint256",
							"name": "globalSeed",
							"type": "uint256"
						},
						{
							"internalType": "uint16",
							"name": "specialId",
							"type": "uint16"
						},
						{
							"internalType": "uint32",
							"name": "birthday",
							"type": "uint32"
						},
						{
							"internalType": "enum E_Sex",
							"name": "sex",
							"type": "uint8"
						},
						{
							"internalType": "enum E_Background",
							"name": "background",
							"type": "uint8"
						},
						{
							"internalType": "enum E_Male_Skin",
							"name": "maleSkinType",
							"type": "uint8"
						},
						{
							"internalType": "enum E_Male_Eyes",
							"name": "maleEyes",
							"type": "uint8"
						},
						{
							"internalType": "enum E_Male_Face",
							"name": "maleFace",
							"type": "uint8"
						},
						{
							"internalType": "enum E_Male_Chain",
							"name": "maleChain",
							"type": "uint8"
						},
						{
							"internalType": "enum E_Male_Earring",
							"name": "maleEarring",
							"type": "uint8"
						},
						{
							"internalType": "enum E_Male_Scarf",
							"name": "maleScarf",
							"type": "uint8"
						},
						{
							"internalType": "enum E_Male_Facial_Hair",
							"name": "maleFacialHair",
							"type": "uint8"
						},
						{
							"internalType": "enum E_Male_Mask",
							"name": "maleMask",
							"type": "uint8"
						},
						{
							"internalType": "enum E_Male_Hair",
							"name": "maleHair",
							"type": "uint8"
						},
						{
							"internalType": "enum E_Male_Hat_Hair",
							"name": "maleHatHair",
							"type": "uint8"
						},
						{
							"internalType": "enum E_Male_Headwear",
							"name": "maleHeadwear",
							"type": "uint8"
						},
						{
							"internalType": "enum E_Male_Eye_Wear",
							"name": "maleEyeWear",
							"type": "uint8"
						},
						{
							"internalType": "enum E_Female_Skin",
							"name": "femaleSkinType",
							"type": "uint8"
						},
						{
							"internalType": "enum E_Female_Eyes",
							"name": "femaleEyes",
							"type": "uint8"
						},
						{
							"internalType": "enum E_Female_Face",
							"name": "femaleFace",
							"type": "uint8"
						},
						{
							"internalType": "enum E_Female_Chain",
							"name": "femaleChain",
							"type": "uint8"
						},
						{
							"internalType": "enum E_Female_Earring",
							"name": "femaleEarring",
							"type": "uint8"
						},
						{
							"internalType": "enum E_Female_Scarf",
							"name": "femaleScarf",
							"type": "uint8"
						},
						{
							"internalType": "enum E_Female_Mask",
							"name": "femaleMask",
							"type": "uint8"
						},
						{
							"internalType": "enum E_Female_Hair",
							"name": "femaleHair",
							"type": "uint8"
						},
						{
							"internalType": "enum E_Female_Hat_Hair",
							"name": "femaleHatHair",
							"type": "uint8"
						},
						{
							"internalType": "enum E_Female_Headwear",
							"name": "femaleHeadwear",
							"type": "uint8"
						},
						{
							"internalType": "enum E_Female_Eye_Wear",
							"name": "femaleEyeWear",
							"type": "uint8"
						},
						{
							"internalType": "enum E_Lips_N_Teeth",
							"name": "lipsNTeeth",
							"type": "uint8"
						},
						{
							"internalType": "enum E_Mouth",
							"name": "mouth",
							"type": "uint8"
						}
					],
					"internalType": "struct TraitsContext",
					"name": "traits",
					"type": "tuple"
				},
				{
					"components": [
						{
							"internalType": "uint256",
							"name": "seed",
							"type": "uint256"
						},
						{
							"internalType": "uint256",
							"name": "counter",
							"type": "uint256"
						}
					],
					"internalType": "struct RandomCtx",
					"name": "rndCtx",
					"type": "tuple"
				}
			],
			"name": "selectFemaleEyes",
			"outputs": [
				{
					"internalType": "enum E_Female_Eyes",
					"name": "",
					"type": "uint8"
				}
			],
			"stateMutability": "pure",
			"type": "function"
		},
		{
			"inputs": [
				{
					"components": [
						{
							"components": [
								{
									"internalType": "enum E_TraitsGroup",
									"name": "traitGroup",
									"type": "uint8"
								},
								{
									"internalType": "uint8",
									"name": "traitIndex",
									"type": "uint8"
								},
								{
									"internalType": "bool",
									"name": "hasFiller",
									"type": "bool"
								},
								{
									"components": [
										{
											"internalType": "enum E_TraitsGroup",
											"name": "traitGroup",
											"type": "uint8"
										},
										{
											"internalType": "uint8",
											"name": "traitIndex",
											"type": "uint8"
										}
									],
									"internalType": "struct FillerTrait",
									"name": "filler",
									"type": "tuple"
								}
							],
							"internalType": "struct TraitToRender[]",
							"name": "traitsToRender",
							"type": "tuple[]"
						},
						{
							"internalType": "uint8",
							"name": "traitsToRenderLength",
							"type": "uint8"
						},
						{
							"internalType": "uint16",
							"name": "tokenIdSeed",
							"type": "uint16"
						},
						{
							"internalType": "uint256",
							"name": "globalSeed",
							"type": "uint256"
						},
						{
							"internalType": "uint16",
							"name": "specialId",
							"type": "uint16"
						},
						{
							"internalType": "uint32",
							"name": "birthday",
							"type": "uint32"
						},
						{
							"internalType": "enum E_Sex",
							"name": "sex",
							"type": "uint8"
						},
						{
							"internalType": "enum E_Background",
							"name": "background",
							"type": "uint8"
						},
						{
							"internalType": "enum E_Male_Skin",
							"name": "maleSkinType",
							"type": "uint8"
						},
						{
							"internalType": "enum E_Male_Eyes",
							"name": "maleEyes",
							"type": "uint8"
						},
						{
							"internalType": "enum E_Male_Face",
							"name": "maleFace",
							"type": "uint8"
						},
						{
							"internalType": "enum E_Male_Chain",
							"name": "maleChain",
							"type": "uint8"
						},
						{
							"internalType": "enum E_Male_Earring",
							"name": "maleEarring",
							"type": "uint8"
						},
						{
							"internalType": "enum E_Male_Scarf",
							"name": "maleScarf",
							"type": "uint8"
						},
						{
							"internalType": "enum E_Male_Facial_Hair",
							"name": "maleFacialHair",
							"type": "uint8"
						},
						{
							"internalType": "enum E_Male_Mask",
							"name": "maleMask",
							"type": "uint8"
						},
						{
							"internalType": "enum E_Male_Hair",
							"name": "maleHair",
							"type": "uint8"
						},
						{
							"internalType": "enum E_Male_Hat_Hair",
							"name": "maleHatHair",
							"type": "uint8"
						},
						{
							"internalType": "enum E_Male_Headwear",
							"name": "maleHeadwear",
							"type": "uint8"
						},
						{
							"internalType": "enum E_Male_Eye_Wear",
							"name": "maleEyeWear",
							"type": "uint8"
						},
						{
							"internalType": "enum E_Female_Skin",
							"name": "femaleSkinType",
							"type": "uint8"
						},
						{
							"internalType": "enum E_Female_Eyes",
							"name": "femaleEyes",
							"type": "uint8"
						},
						{
							"internalType": "enum E_Female_Face",
							"name": "femaleFace",
							"type": "uint8"
						},
						{
							"internalType": "enum E_Female_Chain",
							"name": "femaleChain",
							"type": "uint8"
						},
						{
							"internalType": "enum E_Female_Earring",
							"name": "femaleEarring",
							"type": "uint8"
						},
						{
							"internalType": "enum E_Female_Scarf",
							"name": "femaleScarf",
							"type": "uint8"
						},
						{
							"internalType": "enum E_Female_Mask",
							"name": "femaleMask",
							"type": "uint8"
						},
						{
							"internalType": "enum E_Female_Hair",
							"name": "femaleHair",
							"type": "uint8"
						},
						{
							"internalType": "enum E_Female_Hat_Hair",
							"name": "femaleHatHair",
							"type": "uint8"
						},
						{
							"internalType": "enum E_Female_Headwear",
							"name": "femaleHeadwear",
							"type": "uint8"
						},
						{
							"internalType": "enum E_Female_Eye_Wear",
							"name": "femaleEyeWear",
							"type": "uint8"
						},
						{
							"internalType": "enum E_Lips_N_Teeth",
							"name": "lipsNTeeth",
							"type": "uint8"
						},
						{
							"internalType": "enum E_Mouth",
							"name": "mouth",
							"type": "uint8"
						}
					],
					"internalType": "struct TraitsContext",
					"name": "traits",
					"type": "tuple"
				},
				{
					"components": [
						{
							"internalType": "uint256",
							"name": "seed",
							"type": "uint256"
						},
						{
							"internalType": "uint256",
							"name": "counter",
							"type": "uint256"
						}
					],
					"internalType": "struct RandomCtx",
					"name": "rndCtx",
					"type": "tuple"
				}
			],
			"name": "selectFemaleFace",
			"outputs": [
				{
					"internalType": "enum E_Female_Face",
					"name": "",
					"type": "uint8"
				}
			],
			"stateMutability": "pure",
			"type": "function"
		},
		{
			"inputs": [
				{
					"components": [
						{
							"components": [
								{
									"internalType": "enum E_TraitsGroup",
									"name": "traitGroup",
									"type": "uint8"
								},
								{
									"internalType": "uint8",
									"name": "traitIndex",
									"type": "uint8"
								},
								{
									"internalType": "bool",
									"name": "hasFiller",
									"type": "bool"
								},
								{
									"components": [
										{
											"internalType": "enum E_TraitsGroup",
											"name": "traitGroup",
											"type": "uint8"
										},
										{
											"internalType": "uint8",
											"name": "traitIndex",
											"type": "uint8"
										}
									],
									"internalType": "struct FillerTrait",
									"name": "filler",
									"type": "tuple"
								}
							],
							"internalType": "struct TraitToRender[]",
							"name": "traitsToRender",
							"type": "tuple[]"
						},
						{
							"internalType": "uint8",
							"name": "traitsToRenderLength",
							"type": "uint8"
						},
						{
							"internalType": "uint16",
							"name": "tokenIdSeed",
							"type": "uint16"
						},
						{
							"internalType": "uint256",
							"name": "globalSeed",
							"type": "uint256"
						},
						{
							"internalType": "uint16",
							"name": "specialId",
							"type": "uint16"
						},
						{
							"internalType": "uint32",
							"name": "birthday",
							"type": "uint32"
						},
						{
							"internalType": "enum E_Sex",
							"name": "sex",
							"type": "uint8"
						},
						{
							"internalType": "enum E_Background",
							"name": "background",
							"type": "uint8"
						},
						{
							"internalType": "enum E_Male_Skin",
							"name": "maleSkinType",
							"type": "uint8"
						},
						{
							"internalType": "enum E_Male_Eyes",
							"name": "maleEyes",
							"type": "uint8"
						},
						{
							"internalType": "enum E_Male_Face",
							"name": "maleFace",
							"type": "uint8"
						},
						{
							"internalType": "enum E_Male_Chain",
							"name": "maleChain",
							"type": "uint8"
						},
						{
							"internalType": "enum E_Male_Earring",
							"name": "maleEarring",
							"type": "uint8"
						},
						{
							"internalType": "enum E_Male_Scarf",
							"name": "maleScarf",
							"type": "uint8"
						},
						{
							"internalType": "enum E_Male_Facial_Hair",
							"name": "maleFacialHair",
							"type": "uint8"
						},
						{
							"internalType": "enum E_Male_Mask",
							"name": "maleMask",
							"type": "uint8"
						},
						{
							"internalType": "enum E_Male_Hair",
							"name": "maleHair",
							"type": "uint8"
						},
						{
							"internalType": "enum E_Male_Hat_Hair",
							"name": "maleHatHair",
							"type": "uint8"
						},
						{
							"internalType": "enum E_Male_Headwear",
							"name": "maleHeadwear",
							"type": "uint8"
						},
						{
							"internalType": "enum E_Male_Eye_Wear",
							"name": "maleEyeWear",
							"type": "uint8"
						},
						{
							"internalType": "enum E_Female_Skin",
							"name": "femaleSkinType",
							"type": "uint8"
						},
						{
							"internalType": "enum E_Female_Eyes",
							"name": "femaleEyes",
							"type": "uint8"
						},
						{
							"internalType": "enum E_Female_Face",
							"name": "femaleFace",
							"type": "uint8"
						},
						{
							"internalType": "enum E_Female_Chain",
							"name": "femaleChain",
							"type": "uint8"
						},
						{
							"internalType": "enum E_Female_Earring",
							"name": "femaleEarring",
							"type": "uint8"
						},
						{
							"internalType": "enum E_Female_Scarf",
							"name": "femaleScarf",
							"type": "uint8"
						},
						{
							"internalType": "enum E_Female_Mask",
							"name": "femaleMask",
							"type": "uint8"
						},
						{
							"internalType": "enum E_Female_Hair",
							"name": "femaleHair",
							"type": "uint8"
						},
						{
							"internalType": "enum E_Female_Hat_Hair",
							"name": "femaleHatHair",
							"type": "uint8"
						},
						{
							"internalType": "enum E_Female_Headwear",
							"name": "femaleHeadwear",
							"type": "uint8"
						},
						{
							"internalType": "enum E_Female_Eye_Wear",
							"name": "femaleEyeWear",
							"type": "uint8"
						},
						{
							"internalType": "enum E_Lips_N_Teeth",
							"name": "lipsNTeeth",
							"type": "uint8"
						},
						{
							"internalType": "enum E_Mouth",
							"name": "mouth",
							"type": "uint8"
						}
					],
					"internalType": "struct TraitsContext",
					"name": "traits",
					"type": "tuple"
				},
				{
					"components": [
						{
							"internalType": "uint256",
							"name": "seed",
							"type": "uint256"
						},
						{
							"internalType": "uint256",
							"name": "counter",
							"type": "uint256"
						}
					],
					"internalType": "struct RandomCtx",
					"name": "rndCtx",
					"type": "tuple"
				}
			],
			"name": "selectFemaleHair",
			"outputs": [
				{
					"internalType": "enum E_Female_Hair",
					"name": "",
					"type": "uint8"
				}
			],
			"stateMutability": "pure",
			"type": "function"
		},
		{
			"inputs": [
				{
					"components": [
						{
							"components": [
								{
									"internalType": "enum E_TraitsGroup",
									"name": "traitGroup",
									"type": "uint8"
								},
								{
									"internalType": "uint8",
									"name": "traitIndex",
									"type": "uint8"
								},
								{
									"internalType": "bool",
									"name": "hasFiller",
									"type": "bool"
								},
								{
									"components": [
										{
											"internalType": "enum E_TraitsGroup",
											"name": "traitGroup",
											"type": "uint8"
										},
										{
											"internalType": "uint8",
											"name": "traitIndex",
											"type": "uint8"
										}
									],
									"internalType": "struct FillerTrait",
									"name": "filler",
									"type": "tuple"
								}
							],
							"internalType": "struct TraitToRender[]",
							"name": "traitsToRender",
							"type": "tuple[]"
						},
						{
							"internalType": "uint8",
							"name": "traitsToRenderLength",
							"type": "uint8"
						},
						{
							"internalType": "uint16",
							"name": "tokenIdSeed",
							"type": "uint16"
						},
						{
							"internalType": "uint256",
							"name": "globalSeed",
							"type": "uint256"
						},
						{
							"internalType": "uint16",
							"name": "specialId",
							"type": "uint16"
						},
						{
							"internalType": "uint32",
							"name": "birthday",
							"type": "uint32"
						},
						{
							"internalType": "enum E_Sex",
							"name": "sex",
							"type": "uint8"
						},
						{
							"internalType": "enum E_Background",
							"name": "background",
							"type": "uint8"
						},
						{
							"internalType": "enum E_Male_Skin",
							"name": "maleSkinType",
							"type": "uint8"
						},
						{
							"internalType": "enum E_Male_Eyes",
							"name": "maleEyes",
							"type": "uint8"
						},
						{
							"internalType": "enum E_Male_Face",
							"name": "maleFace",
							"type": "uint8"
						},
						{
							"internalType": "enum E_Male_Chain",
							"name": "maleChain",
							"type": "uint8"
						},
						{
							"internalType": "enum E_Male_Earring",
							"name": "maleEarring",
							"type": "uint8"
						},
						{
							"internalType": "enum E_Male_Scarf",
							"name": "maleScarf",
							"type": "uint8"
						},
						{
							"internalType": "enum E_Male_Facial_Hair",
							"name": "maleFacialHair",
							"type": "uint8"
						},
						{
							"internalType": "enum E_Male_Mask",
							"name": "maleMask",
							"type": "uint8"
						},
						{
							"internalType": "enum E_Male_Hair",
							"name": "maleHair",
							"type": "uint8"
						},
						{
							"internalType": "enum E_Male_Hat_Hair",
							"name": "maleHatHair",
							"type": "uint8"
						},
						{
							"internalType": "enum E_Male_Headwear",
							"name": "maleHeadwear",
							"type": "uint8"
						},
						{
							"internalType": "enum E_Male_Eye_Wear",
							"name": "maleEyeWear",
							"type": "uint8"
						},
						{
							"internalType": "enum E_Female_Skin",
							"name": "femaleSkinType",
							"type": "uint8"
						},
						{
							"internalType": "enum E_Female_Eyes",
							"name": "femaleEyes",
							"type": "uint8"
						},
						{
							"internalType": "enum E_Female_Face",
							"name": "femaleFace",
							"type": "uint8"
						},
						{
							"internalType": "enum E_Female_Chain",
							"name": "femaleChain",
							"type": "uint8"
						},
						{
							"internalType": "enum E_Female_Earring",
							"name": "femaleEarring",
							"type": "uint8"
						},
						{
							"internalType": "enum E_Female_Scarf",
							"name": "femaleScarf",
							"type": "uint8"
						},
						{
							"internalType": "enum E_Female_Mask",
							"name": "femaleMask",
							"type": "uint8"
						},
						{
							"internalType": "enum E_Female_Hair",
							"name": "femaleHair",
							"type": "uint8"
						},
						{
							"internalType": "enum E_Female_Hat_Hair",
							"name": "femaleHatHair",
							"type": "uint8"
						},
						{
							"internalType": "enum E_Female_Headwear",
							"name": "femaleHeadwear",
							"type": "uint8"
						},
						{
							"internalType": "enum E_Female_Eye_Wear",
							"name": "femaleEyeWear",
							"type": "uint8"
						},
						{
							"internalType": "enum E_Lips_N_Teeth",
							"name": "lipsNTeeth",
							"type": "uint8"
						},
						{
							"internalType": "enum E_Mouth",
							"name": "mouth",
							"type": "uint8"
						}
					],
					"internalType": "struct TraitsContext",
					"name": "traits",
					"type": "tuple"
				},
				{
					"components": [
						{
							"internalType": "uint256",
							"name": "seed",
							"type": "uint256"
						},
						{
							"internalType": "uint256",
							"name": "counter",
							"type": "uint256"
						}
					],
					"internalType": "struct RandomCtx",
					"name": "rndCtx",
					"type": "tuple"
				}
			],
			"name": "selectFemaleHatHair",
			"outputs": [
				{
					"internalType": "enum E_Female_Hat_Hair",
					"name": "",
					"type": "uint8"
				}
			],
			"stateMutability": "pure",
			"type": "function"
		},
		{
			"inputs": [
				{
					"components": [
						{
							"internalType": "uint256",
							"name": "seed",
							"type": "uint256"
						},
						{
							"internalType": "uint256",
							"name": "counter",
							"type": "uint256"
						}
					],
					"internalType": "struct RandomCtx",
					"name": "rndCtx",
					"type": "tuple"
				}
			],
			"name": "selectFemaleHeadwear",
			"outputs": [
				{
					"internalType": "enum E_Female_Headwear",
					"name": "",
					"type": "uint8"
				}
			],
			"stateMutability": "pure",
			"type": "function"
		},
		{
			"inputs": [
				{
					"components": [
						{
							"internalType": "uint256",
							"name": "seed",
							"type": "uint256"
						},
						{
							"internalType": "uint256",
							"name": "counter",
							"type": "uint256"
						}
					],
					"internalType": "struct RandomCtx",
					"name": "rndCtx",
					"type": "tuple"
				}
			],
			"name": "selectFemaleMask",
			"outputs": [
				{
					"internalType": "enum E_Female_Mask",
					"name": "",
					"type": "uint8"
				}
			],
			"stateMutability": "pure",
			"type": "function"
		},
		{
			"inputs": [
				{
					"components": [
						{
							"internalType": "uint256",
							"name": "seed",
							"type": "uint256"
						},
						{
							"internalType": "uint256",
							"name": "counter",
							"type": "uint256"
						}
					],
					"internalType": "struct RandomCtx",
					"name": "rndCtx",
					"type": "tuple"
				}
			],
			"name": "selectFemaleScarf",
			"outputs": [
				{
					"internalType": "enum E_Female_Scarf",
					"name": "",
					"type": "uint8"
				}
			],
			"stateMutability": "pure",
			"type": "function"
		},
		{
			"inputs": [
				{
					"components": [
						{
							"internalType": "uint256",
							"name": "seed",
							"type": "uint256"
						},
						{
							"internalType": "uint256",
							"name": "counter",
							"type": "uint256"
						}
					],
					"internalType": "struct RandomCtx",
					"name": "rndCtx",
					"type": "tuple"
				}
			],
			"name": "selectFemaleSkinType",
			"outputs": [
				{
					"internalType": "enum E_Female_Skin",
					"name": "",
					"type": "uint8"
				}
			],
			"stateMutability": "pure",
			"type": "function"
		}
	]
}