{
	"data": {
		"bytecode": {
			"linkReferences": {},
			"object": "60808060405234601557614601908161001a8239f35b5f80fdfe60806040526004361015610011575f80fd5b5f3560e01c8063146e3eef146106315780632cbd5f511461193d5780632e2d64ec146119135780633775819b146117b35780633e8af2ff1461178957806342b2ba9e1461112e57806344701528146111045780634e87244f146110885780634f4f0d0714610849578063e7449565146106f1578063eafa510a14610631578063f120bcf0146104855763fdd1f51a146100a8575f80fd5b34610481576100b6366119eb565b60405190916103006100c88184611997565b60178352601f190136602084013760c06100e236836125c2565b015160028110156102c2576101c0916001610104921461044c575b36906125c2565b01805160588110156102c257600114908115610436575b8115610420575b811561040a575b81156103f4575b81156103de575b81156103c8575b81156103b2575b811561039c575b8115610386575b8115610370575b811561035a575b8115610344575b811561032e575b8115610318575b8115610302575b81156102ec575b81156102d6575b81156102aa575b50906020926102739261028d575b611fdb6101ac83611a4e565b5261012c6101b983611b24565b5260fa6101c583611ac0565b5260c86101d183611ab0565b5260966101dd83611ae1565b5260646101e983611b9b565b5260326101f583611af1565b52609661020183611a6f565b52607d61020d83611a7f565b52603261021983611a8f565b52601e61022583611ad1565b52601961023183611b02565b52601461023d83611b79565b52600f61024983611b68565b52603261025583611a9f565b52601461026183611b57565b52600a61026d83611bac565b52614439565b61027c81611a44565b6040519061028981611a44565b8152f35b606461029883611b13565b5260646102a483611b46565b526101a0565b9050519060588210156102c257906053146020610192565b634e487b7160e01b5f52602160045260245ffd5b8091505160588110156102c257604f149061018b565b8091505160588110156102c257604a1490610184565b8091505160588110156102c2576045149061017d565b8091505160588110156102c25760411490610176565b8091505160588110156102c257603d149061016f565b8091505160588110156102c25760391490610168565b8091505160588110156102c25760341490610161565b8091505160588110156102c2576030149061015a565b8091505160588110156102c257602b1490610153565b8091505160588110156102c2576027149061014c565b8091505160588110156102c25760231490610145565b8091505160588110156102c257601f149061013e565b8091505160588110156102c257601a1490610137565b8091505160588110156102c25760151490610130565b8091505160588110156102c25760111490610129565b8091505160588110156102c257600d1490610122565b8091505160588110156102c2576005149061011b565b602361045785611bce565b52601e61046385611b35565b52601461046f85611bbd565b52600f61047b85611b8a565b526100fd565b5f80fd5b346104815760403660031901126104815761061d6104a2366119b9565b604051906103c06104b38184611997565b601d8352601f19013660208401376102ee6104cd83611ac0565b526102ee6104da83611b8a565b526102ee6104e783611b35565b526102ee6104f483611bbd565b526102ee61050183611bce565b526102ee61050e83611af1565b526102ee61051b83611b9b565b526102ee61052883611bac565b526102ee61053583611b02565b526102ee61054283611a9f565b526102ee61054f83611b68565b526102ee61055c83611b79565b5261012c61056983611fdb565b5260af61057583611ad1565b52607861058183611fca565b52605061058d83611fb9565b52603c61059983611b57565b5260376105a583611a6f565b52602d6105b183611a8f565b5260236105bd83611a7f565b52601e6105c983611e21565b5260166105d583611b13565b5260126105e183611e10565b5260106105ed83611b24565b52600e6105f983611ae1565b52600c61060583611ab0565b52600a61061183611e32565b52600861026d83611b46565b601d8110156102c257602090604051908152f35b346104815760403660031901126104815760206106db610650366119b9565b604051906101406106618184611997565b60098352601f1901368584013761232861067a83611a4e565b5261015e61068783611a6f565b5260fa61069383611a7f565b52608c61069f83611a8f565b5260646106ab83611a9f565b52604b6106b783611ab0565b5260326106c383611ac0565b5260196106cf83611ad1565b52600a61026d83611ae1565b6106e4816119e1565b60405190610289816119e1565b346104815760403660031901126104815761083561070e366119b9565b604051906102e061071f8184611997565b60168352601f190136602084013761253061073983611a4e565b52602861074583611bce565b52601961075183611ae1565b52601961075d83611ac0565b52601961076983611a9f565b52601961077583611b68565b52601961078183611b79565b52601961078d83611b8a565b52601961079983611b35565b5260196107a583611bbd565b52601e6107b183611a7f565b52601e6107bd83611ad1565b52601e6107c983611ab0565b52601e6107d583611a8f565b52600a6107e183611bac565b52600a6107ed83611b02565b52600a6107f983611b46565b52600a61080583611b13565b52600a61081183611b24565b52601e61081d83611a6f565b52600f61082983611b9b565b52600f61026d83611af1565b60168110156102c257602090604051908152f35b3461048157604036600319011261048157611074610866366119b9565b604051906115406108778184611997565b60a98352601f19013660208401376103bb61089183611a4e565b52604b61089d83611bf0565b52604b6108a983611edc565b52604b6108b583612041565b52604b6108c183612052565b52604b6108cd83612063565b52604b6108d983612074565b52604b6108e583612096565b52604b6108f1836120a7565b52604b6108fd836120b8565b52604b610909836120c9565b52608261091583611c9a565b52608261092183611cab565b52608261092d83611cbc565b52608261093983611ccd565b52608261094583611cde565b52607e61095183611a7f565b52607e61095d83611ad1565b52607e61096983611ab0565b52607e61097583611a8f565b52607e61098183611a6f565b52604e61098d83611c01565b52604e61099983611c12565b52604e6109a583611c23565b52604e6109b183611c34565b52604e6109bd83611c45565b52604e6109c983611c56565b52604e6109d583611c67565b52604e6109e183611c78565b5260446109ed83611af1565b5260446109f983611b9b565b526044610a0583611bac565b526044610a1183611b02565b526044610a1d83611b46565b526044610a2983611b13565b526044610a3583611b24565b526044610a4183611b57565b526044610a4d83611e10565b52604b610a59836122d8565b52604b610a65836122e9565b52604b610a71836122fa565b52604b610a7d8361230b565b52604b610a898361231c565b52604b610a958361232d565b52604b610aa18361233e565b52604b610aad8361234f565b52603e610ab983611ae1565b52603e610ac583611ac0565b52603e610ad183611a9f565b52603e610add83611b68565b52603e610ae983611b79565b52603e610af583611b8a565b52603e610b0183611b35565b52603e610b0d83611bbd565b52603e610b1983611bce565b526042610b2583611eba565b526042610b3183611ecb565b526042610b3d83611d22565b526042610b49836122b6565b526042610b55836122c7565b52610145610b6283611f20565b526040610b6e836121ea565b526040610b7a83611d33565b526040610b86836121b7565b526040610b92836121c8565b526040610b9e836121d9565b52604e610baa83612360565b52604e610bb683612371565b52604e610bc283612382565b52604e610bce83612393565b526026610bda836120da565b526026610be6836120eb565b526026610bf2836120fc565b526026610bfe8361210d565b526026610c0a8361211e565b526026610c16836123a4565b526026610c22836123b5565b526026610c2e836123c6565b526064610c3a83611dcc565b526064610c4683611ddd565b526064610c5283611dee565b52610127610c5f83611f42565b52610122610c6c836123d7565b526029610c7883612261565b526029610c8483612272565b526029610c9083612283565b526029610c9c83611d44565b526029610ca883611d55565b526029610cb483611d66565b526029610cc083611d77565b526012610ccc83611e87565b526012610cd883611f53565b526012610ce483611f64565b526012610cf083611f75565b526012610cfc83611f86565b526012610d0883611f97565b526012610d1483611fa8565b526012610d2083611e65565b526012610d2c83611e76565b526096610d3883611cef565b526030610d4483611e21565b526030610d5083611e32565b526030610d5c83611fb9565b52600f610d68836121a6565b52600f610d748361212f565b52600f610d80836122a5565b52600f610d8c83612140565b52600f610d9883612151565b52600f610da483612162565b52600f610db083612173565b52600f610dbc83612184565b52600f610dc883612195565b52600e610dd4836123e8565b52600e610de0836123f9565b52600e610dec8361240a565b52600e610df88361241b565b52600e610e048361242c565b52600e610e108361243d565b52600e610e1c8361244e565b52600e610e288361245f565b52600e610e3483612470565b526010610e4083611fec565b526010610e4c83611fdb565b526010610e5883611ffd565b526010610e648361200e565b526010610e708361201f565b526010610e7c83612030565b526010610e8883611e43565b526010610e9483612481565b526010610ea083612492565b526010610eac836124a3565b526010610eb8836124b4565b526010610ec4836124c5565b526010610ed0836124d6565b526010610edc836124e7565b52606e610ee883611fca565b526069610ef483611e98565b526022610f008361221d565b526022610f0c8361222e565b526022610f188361223f565b526064610f2483612250565b52604b610f3083611d99565b52602d610f3c83611dbb565b526014610f4883611daa565b526041610f5483611f31565b52600f610f6083611bdf565b52600f610f6c83611e54565b52600f610f78836121fb565b52600f610f848361220c565b526037610f90836124f8565b526032610f9c83611d88565b526006610fa883611d00565b526006610fb483611eed565b526006610fc083611d11565b526006610fcc83611c89565b526006610fd883612294565b526006610fe483611efe565b526006610ff083611dff565b526005610ffc83612509565b5260056110088361251a565b5260056110148361252b565b5260056110208361253c565b52600561102c8361254d565b5260056110388361255e565b5260056110448361256f565b52600561105083612580565b52601e61105c83611f0f565b52600f61106883611ea9565b52600361026d83612085565b60a98110156102c257602090604051908152f35b34610481576040366003190112610481576110f06110a5366119b9565b604051906110b460a083611997565b6004825260803660208401376126ac6110cc83611a4e565b5260286110d883611a7f565b52601e6110e483611ad1565b52601e61026d83611ab0565b60048110156102c257602090604051908152f35b346104815761111b611115366119eb565b90613e7e565b604051606a8210156102c2576020918152f35b346104815760403660031901126104815761177561114b366119b9565b6040519061102061115c8184611997565b60808352601f19013660208401376103e861117683611a4e565b5261027461118383611bdf565b52604061118f83611bf0565b52604061119b83611c01565b5260406111a783611c12565b5260406111b383611c23565b5260406111bf83611c34565b5260406111cb83611c45565b5260406111d783611c56565b5260406111e383611c67565b5260406111ef83611c78565b5260406111fb83611c89565b52604061120783611c9a565b52604061121383611cab565b52604061121f83611cbc565b52604061122b83611ccd565b52604061123783611cde565b52604061124383611cef565b52604061124f83611d00565b52604061125b83611d11565b5261023a61126883611d22565b5261023061127583611d33565b52603261128183611d44565b52603261128d83611d55565b52603261129983611d66565b5260326112a583611d77565b5260326112b183611d88565b5260326112bd83611d99565b5260326112c983611daa565b5260326112d583611dbb565b5260326112e183611dcc565b5260326112ed83611ddd565b5260326112f983611dee565b5261021c61130683611dff565b52602e61131283611af1565b52602e61131e83611b9b565b52602e61132a83611bac565b52602e61133683611b02565b52602e61134283611b46565b52602e61134e83611b13565b52602e61135a83611b24565b52602e61136683611b57565b52602e61137283611e10565b52602e61137e83611e21565b52602e61138a83611e32565b526101db61139783611a7f565b526101db6113a483611e43565b526101a96113b183611e54565b526101906113be83611e65565b52603e6113ca83611e76565b52603e6113d683611e87565b52603e6113e283611e98565b52603e6113ee83611ea9565b52603e6113fa83611eba565b52603e61140683611ecb565b5261015b61141383611edc565b5261013d61142083611eed565b5261011861142d83611efe565b52607d61143983611f0f565b52607d61144583611f20565b5260e161145183611f31565b52601c61145d83611f42565b52601c61146983611f53565b52601c61147583611f64565b52601c61148183611f75565b52601c61148d83611f86565b52601c61149983611f97565b52601c6114a583611fa8565b5260146114b183611fb9565b5260146114bd83611fca565b5260146114c983611fdb565b5260146114d583611fec565b5260146114e183611ffd565b5260146114ed8361200e565b5260146114f98361201f565b52601461150583612030565b52602161151183612041565b52602161151d83612052565b52602161152983612063565b52602161153583612074565b52601661154183611ad1565b52601661154d83611ab0565b52601661155983611a8f565b52601661156583611a6f565b52601661157183611ae1565b52600a61157d83611ac0565b52600a61158983611a9f565b52600a61159583611b68565b52600a6115a183611b79565b52600a6115ad83611b8a565b52600a6115b983611b35565b52600a6115c583611bbd565b52600a6115d183611bce565b5260456115dd83612085565b5260056115e983612096565b5260056115f5836120a7565b526005611601836120b8565b52600561160d836120c9565b526005611619836120da565b526005611625836120eb565b526005611631836120fc565b52600561163d8361210d565b5260056116498361211e565b5260056116558361212f565b52600561166183612140565b52600561166d83612151565b52600561167983612162565b52600561168583612173565b52600561169183612184565b52600561169d83612195565b5260056116a9836121a6565b5260096116b5836121b7565b5260096116c1836121c8565b5260096116cd836121d9565b5260096116d9836121ea565b5260036116e5836121fb565b5260036116f18361220c565b5260036116fd8361221d565b5260036117098361222e565b5260036117158361223f565b52600361172183612250565b52600361172d83612261565b52600361173983612272565b52600361174583612283565b52601761175183612294565b52600461175d836122a5565b526003611769836122b6565b52600361026d836122c7565b60808110156102c257602090604051908152f35b34610481576117a061179a366119eb565b9061394a565b60405160588210156102c2576020918152f35b346104815760206102736117c6366119eb565b6117f76117f261030093604051946117de8187611997565b60178652601f1901368887013736906125c2565b61450e565b156118155761138861180883611bbd565b5261138861026d83611bce565b5f61181f83611a4e565b5261101d61182c83611af1565b5261101d61183983611b02565b526101f461184683611b13565b526101f461185383611b24565b5260fa61185f83611b35565b52607d61186b83611b46565b52606461187783611ad1565b52604c61188383611b57565b52603261188f83611a7f565b52600b61189b83611ab0565b52600b6118a783611a8f565b52600b6118b383611a6f565b52600b6118bf83611ae1565b52600b6118cb83611ac0565b52600b6118d783611a9f565b52600b6118e383611b68565b52600b6118ef83611b79565b52600b6118fb83611b8a565b52601961190783611b9b565b52601961026d83611bac565b346104815761192a611924366119eb565b90612d81565b60405160d48210156102c2576020918152f35b346104815761195461194e366119eb565b9061297e565b60405160148210156102c2576020918152f35b6040810190811067ffffffffffffffff82111761198357604052565b634e487b7160e01b5f52604160045260245ffd5b90601f8019910116810190811067ffffffffffffffff82111761198357604052565b604090600319011261048157604051906119d282611967565b60043582526024356020830152565b600911156102c257565b9060606003198301126104815760043567ffffffffffffffff811161048157610400818403600319011261048157602460409160040193031261048157604051611a3481611967565b6024358152604435602082015290565b601711156102c257565b805115611a5b5760200190565b634e487b7160e01b5f52603260045260245ffd5b805160051015611a5b5760c00190565b805160011015611a5b5760400190565b805160041015611a5b5760a00190565b805160081015611a5b576101200190565b805160031015611a5b5760800190565b805160071015611a5b576101000190565b805160021015611a5b5760600190565b805160061015611a5b5760e00190565b8051600f1015611a5b576102000190565b805160121015611a5b576102600190565b805160141015611a5b576102a00190565b805160151015611a5b576102c00190565b8051600c1015611a5b576101a00190565b805160131015611a5b576102800190565b805160161015611a5b576102e00190565b805160091015611a5b576101400190565b8051600a1015611a5b576101600190565b8051600b1015611a5b576101800190565b805160101015611a5b576102200190565b805160111015611a5b576102400190565b8051600d1015611a5b576101c00190565b8051600e1015611a5b576101e00190565b805160531015611a5b57610a800190565b805160711015611a5b57610e400190565b805160691015611a5b57610d400190565b8051606a1015611a5b57610d600190565b8051606b1015611a5b57610d800190565b8051606c1015611a5b57610da00190565b8051606d1015611a5b57610dc00190565b8051606e1015611a5b57610de00190565b8051606f1015611a5b57610e000190565b805160701015611a5b57610e200190565b8051602b1015611a5b576105800190565b805160231015611a5b576104800190565b805160241015611a5b576104a00190565b805160251015611a5b576104c00190565b805160261015611a5b576104e00190565b805160271015611a5b576105000190565b805160281015611a5b576105200190565b805160291015611a5b576105400190565b8051602a1015611a5b576105600190565b8051603e1015611a5b576107e00190565b8051604c1015611a5b576109a00190565b8051605e1015611a5b57610be00190565b8051605f1015611a5b57610c000190565b805160601015611a5b57610c200190565b805160611015611a5b57610c400190565b805160621015611a5b57610c600190565b805160631015611a5b57610c800190565b805160641015611a5b57610ca00190565b805160651015611a5b57610cc00190565b805160661015611a5b57610ce00190565b805160671015611a5b57610d000190565b805160681015611a5b57610d200190565b8051602e1015611a5b576105e00190565b805160171015611a5b576103000190565b805160181015611a5b576103200190565b805160191015611a5b576103400190565b805160221015611a5b576104600190565b805160541015611a5b57610aa00190565b805160371015611a5b576107000190565b805160381015611a5b576107200190565b805160391015611a5b576107400190565b8051603a1015611a5b576107600190565b8051603b1015611a5b576107800190565b8051603c1015611a5b576107a00190565b8051603d1015611a5b576107c00190565b805160721015611a5b57610e600190565b8051602f1015611a5b576106000190565b8051602d1015611a5b576105c00190565b8051604a1015611a5b576109600190565b8051604b1015611a5b576109800190565b805160511015611a5b57610a400190565b805160301015611a5b576106200190565b805160311015611a5b576106400190565b805160321015611a5b576106600190565b805160331015611a5b576106800190565b805160341015611a5b576106a00190565b805160351015611a5b576106c00190565b805160361015611a5b576106e00190565b8051601a1015611a5b576103600190565b8051601b1015611a5b576103800190565b8051601c1015611a5b576103a00190565b8051601d1015611a5b576103c00190565b8051601e1015611a5b576103e00190565b8051601f1015611a5b576104000190565b805160201015611a5b576104200190565b805160211015611a5b576104400190565b805160731015611a5b57610e800190565b805160741015611a5b57610ea00190565b805160751015611a5b57610ec00190565b805160761015611a5b57610ee00190565b805160521015611a5b57610a600190565b805160771015611a5b57610f000190565b805160781015611a5b57610f200190565b805160791015611a5b57610f400190565b8051607a1015611a5b57610f600190565b8051607b1015611a5b57610f800190565b8051607c1015611a5b57610fa00190565b8051607d1015611a5b57610fc00190565b8051607e1015611a5b57610fe00190565b8051607f1015611a5b576110000190565b805160421015611a5b576108600190565b805160431015611a5b576108800190565b805160441015611a5b576108a00190565b805160451015611a5b576108c00190565b805160461015611a5b576108e00190565b805160471015611a5b576109000190565b805160481015611a5b576109200190565b805160491015611a5b576109400190565b8051604d1015611a5b576109c00190565b8051604e1015611a5b576109e00190565b8051604f1015611a5b57610a000190565b805160501015611a5b57610a200190565b805160551015611a5b57610ac00190565b805160561015611a5b57610ae00190565b805160571015611a5b57610b000190565b805160581015611a5b57610b200190565b805160591015611a5b57610b400190565b8051605a1015611a5b57610b600190565b8051605b1015611a5b57610b800190565b8051605c1015611a5b57610ba00190565b8051605d1015611a5b57610bc00190565b8051602c1015611a5b576105a00190565b805160411015611a5b576108400190565b8051603f1015611a5b576108000190565b805160401015611a5b576108200190565b805160991015611a5b576113400190565b8051609a1015611a5b576113600190565b8051609b1015611a5b576113800190565b8051609c1015611a5b576113a00190565b8051609d1015611a5b576113c00190565b8051609e1015611a5b576113e00190565b8051609f1015611a5b576114000190565b805160a01015611a5b576114200190565b8051608d1015611a5b576111c00190565b8051608e1015611a5b576111e00190565b8051608f1015611a5b576112000190565b805160901015611a5b576112200190565b805160801015611a5b576110200190565b805160811015611a5b576110400190565b805160821015611a5b576110600190565b805160911015611a5b576112400190565b8051608b1015611a5b576111800190565b805160831015611a5b576110800190565b805160841015611a5b576110a00190565b805160851015611a5b576110c00190565b805160861015611a5b576110e00190565b805160871015611a5b576111000190565b805160881015611a5b576111200190565b805160891015611a5b576111400190565b8051608a1015611a5b576111600190565b805160921015611a5b576112600190565b805160931015611a5b576112800190565b805160941015611a5b576112a00190565b805160951015611a5b576112c00190565b805160961015611a5b576112e00190565b805160971015611a5b576113000190565b805160981015611a5b576113200190565b8051608c1015611a5b576111a00190565b805160a11015611a5b576114400190565b805160a21015611a5b576114600190565b805160a31015611a5b576114800190565b805160a41015611a5b576114a00190565b805160a51015611a5b576114c00190565b805160a61015611a5b576114e00190565b805160a71015611a5b576115000190565b805160a81015611a5b576115200190565b8051821015611a5b5760209160051b010190565b359060ff8216820361048157565b359061ffff8216820361048157565b919091610400818403126104815760405190610400820182811067ffffffffffffffff821117611983576040528193813567ffffffffffffffff811161048157820181601f820112156104815780359067ffffffffffffffff82116119835760208260051b01926126366040519485611997565b828452602060a081860194028301019181831161048157602001925b8284106128d45750505050825261266b602082016125a5565b602083015261267c604082016125b3565b604083015260608101356060830152612697608082016125b3565b608083015260a081013563ffffffff811681036104815760a083015260c081013560028110156104815760c083015260e081013560068110156104815760e0830152610100810135601d811015610481576101008301526101208101356017811015610481576101208301526101408101356014811015610481576101408301526101608101356009811015610481576101608301526101808101356009811015610481576101808301526101a08101356004811015610481576101a08301526101c08101356058811015610481576101c08301526101e08101356016811015610481576101e083015261020081013560d481101561048157610200830152610220810135606a8110156104815761022083015261024081013560a981101561048157610240830152610260810135608081101561048157610260830152610280810135601a811015610481576102808301526102a0810135601f811015610481576102a08301526102c08101356013811015610481576102c08301526102e08101356009811015610481576102e083015261030081013560098110156104815761030083015261032081013560048110156104815761032083015261034081013560158110156104815761034083015261036081013560c3811015610481576103608301526103808101356085811015610481576103808301526103a08101356083811015610481576103a08301526103c081013590607a821015610481576103e0916103c08401520135906017821015610481576103e00152565b83820360a0811261048157604051906080820182811067ffffffffffffffff821117611983576040528535601b811015610481578252612916602087016125a5565b602083015260408601359081151582036104815760409182840152605f190112610481576040519161294783611967565b606086013591601b831015610481578360209360a0955261296a608089016125a5565b848201526060820152815201930192612652565b604051906102a061298f8184611997565b60148352601f19013660208401376129af6129aa36836125c2565b6144c2565b8015612d69575b15612abc5750612ab0916124956129cc83611a4e565b5260c86129d883611bbd565b5260236129e483611a6f565b5260166129f083611b46565b5260146129fc83611b79565b526012612a0883611a7f565b526010612a1483611ad1565b52600e612a2083611bac565b52600c612a2c83611b68565b52600a612a3883611b9b565b526008612a4483611b8a565b52604b612a5083611ab0565b52603c612a5c83611bce565b526032612a6883611b02565b526010612a7483611a8f565b52600c612a8083611b35565b52600c612a8c83611af1565b52600a612a9883611ae1565b52600a612aa483611ac0565b52600861026d83611a9f565b60148110156102c25790565b610100612ac936836125c2565b0151601d8110156102c2576002148015612d48575b8015612d27575b15612b5b5750612ab091612495612afb83611a4e565b5260c8612b0783611bbd565b52604b612b1383611ab0565b526032612b1f83611b02565b526010612b2b83611a8f565b52600c612b3783611b35565b52600c612b4383611af1565b52600a612b4f83611ae1565b52600a61026d83611ac0565b610100612b6836836125c2565b0151601d8110156102c257600114908115612d04575b8115612cef575b8115612ccc575b8115612ca9575b8115612c86575b8115612c63575b8115612c48575b5015612c4257612ab091612495612bbe83611a4e565b5260c8612bca83611bbd565b526023612bd683611a6f565b526016612be283611b46565b526014612bee83611b79565b526012612bfa83611a7f565b526010612c0683611ad1565b52600e612c1283611bac565b52600c612c1e83611b68565b52600a612c2a83611b9b565b526008612c3683611b8a565b52604b61026d83611ab0565b50505f90565b612c5d9150612c589036906125c2565b614522565b5f612ba8565b9050610100612c7236836125c2565b0151601d8110156102c25760171490612ba1565b9050610100612c9536836125c2565b0151601d8110156102c25760151490612b9a565b9050610100612cb836836125c2565b0151601d8110156102c25760061490612b93565b9050610100612cdb36836125c2565b0151601d8110156102c25760051490612b8c565b9050612cfe6117f236836125c2565b90612b85565b9050610100612d1336836125c2565b0151601d8110156102c25760031490612b7e565b50610100612d3536836125c2565b0151601d8110156102c257601b14612ae5565b50610100612d5636836125c2565b0151601d8110156102c257601a14612ade565b50612d7c612d7736836125c2565b6144fa565b6129b6565b60405190611aa0612d928184611997565b60d48352601f1901366020840137612dad6129aa36836125c2565b8015613937575b156138c85750610190612dc682611a4e565b525b60c8612dd382611a7f565b5260b4612ddf82611a8f565b526078612deb82611ad1565b526064612df782611a6f565b526019612e0382611ab0565b526019612e0f82611ae1565b526019612e1b82611ac0565b526019612e2782611a9f565b526019612e3382611b68565b526019612e3f82611b79565b526019612e4b82611b8a565b526019612e5782611b35565b5260e1612e6382611bbd565b5260c8612e6f82611af1565b52608c612e7b82611bce565b526064612e8782611b9b565b526055612e9382611bac565b5260fa612e9f82611e10565b5260e1612eab82611b24565b5260c8612eb782611b02565b5260b9612ec382611b13565b5260af612ecf82611b46565b5260a5612edb82611b57565b526007612ee782611e21565b526007612ef382611e32565b526007612eff82611fb9565b526007612f0b82611fca565b526007612f1782611fdb565b526007612f2382611fec565b526007612f2f82611ffd565b526012612f3b8261200e565b52600e612f478261201f565b52600a612f5382611e43565b526007612f5f82611c9a565b526002612f6b82612030565b526002612f7782611cab565b526002612f8382611cbc565b526002612f8f82611ccd565b526002612f9b82611cde565b526002612fa782611cef565b526002612fb382611d00565b526002612fbf82611d11565b526004612fcb82611c89565b526004612fd782612294565b526003612fe382611efe565b526003612fef82611dff565b526003612ffb82611eed565b52600361300782611f42565b5260c861301382611f53565b5260af61301f82611f86565b52609661302b82611f64565b52607561303782611f97565b52601a61304382611f75565b52601a61304f82611fa8565b52601a61305b82611e65565b52601a61306782611e76565b52601a61307382611e87565b52601a61307f82611e98565b52601a61308b82611ea9565b52601a61309782611eba565b5260236130a382611ecb565b52601e6130af826122b6565b5260196130bb82611d22565b5260146130c7826122c7565b52600f6130d3826122a5565b52600c6130df8261212f565b5260096130eb82612162565b5260076130f782612140565b52600661310382612173565b52600261310f82612151565b52600261311b82612184565b52600261312782612195565b526002613133826121a6565b52600261313f82611f0f565b52600261314b82611f20565b52600261315782611d33565b526002613163826121b7565b52604661316f826121c8565b52603c61317b826121ea565b526032613187826121d9565b52602861319382611f31565b52601e61319f82612085565b52603b6131ab82611bdf565b52602d6131b78261220c565b5260236131c382611e54565b52601e6131cf8261221d565b5260076131db826121fb565b5260076131e78261222e565b5260076131f38261223f565b5260076131ff82612250565b52600761320b82612261565b52600761321782612272565b52600761322382612283565b52600761322f82611d44565b52604661323b82611d55565b52603c61324782611d77565b52601e61325382611d66565b52601961325f82611d88565b52600f61326b82611d99565b5260c861327782611daa565b5260b461328382611ddd565b52607861328f82611dbb565b52606461329b82611dee565b5260196132a782611dcc565b5260196132b382611c01565b5260196132bf82611c12565b5260196132cb82611c23565b5260196132d782611c34565b5260196132e382611c45565b5260196132ef82611c56565b5260196132fb82611c67565b52600661330782611c78565b52600461331382612041565b52600361331f82611bf0565b52600261332b82612052565b52600261333782611edc565b52600261334382612063565b52600261334f826120c9565b52600261335b826120da565b526002613367826120eb565b526002613373826120fc565b52600261337f8261210d565b52600261338b8261211e565b52600161339782612074565b5260016133a382612096565b5260016133af826120a7565b5260016133bb826120b8565b5260966133c7826123a4565b52604b6133d3826123b5565b5260196133df826123c6565b5260376133eb826123f9565b52602d6133f78261241b565b5260236134038261240a565b52601961340f8261242c565b52600f61341b8261243d565b5260046134278261244e565b526003613433826123e8565b52600261343f8261245f565b52600161344b826124f8565b52600261345782612470565b52600261346382612360565b52600261346f82612481565b52600261347b82612492565b526002613487826124a3565b526002613493826124b4565b52600261349f826124c5565b5260026134ab826124d6565b5260016134b782612371565b5260016134c382612382565b5260016134cf82612393565b5260016134db826123d7565b526104b06134e8826124e7565b5260066134f4826122d8565b5260056135008261230b565b52600461350c826122e9565b5260026135188261231c565b526001613524826122fa565b5260016135308261232d565b52600161353c8261233e565b5260016135488261234f565b52600161355482612509565b5260016135608261251a565b52600161356c8261252b565b5260016135788261253c565b526104b06135858261254d565b5260376135918261255e565b52602d61359d8261256f565b5260236135a982612580565b52805160a91015611a5b576019611540820152805160aa1015611a5b57600f611560820152805160ab1015611a5b576014611580820152805160ae1015611a5b576115c0810160106115e0830152815160ac1015611a5b57600c6115a0830152815160af1015611a5b576008611600830152815160ad1015611a5b5760039052805160b01015611a5b576003611620820152805160b11015611a5b576003611640820152805160b21015611a5b576003611660820152805160b31015611a5b576003611680820152805160b41015611a5b5760036116a0820152805160b51015611a5b5760036116c0820152805160b61015611a5b5760036116e0820152805160b71015611a5b576032611700820152805160b81015611a5b576028611720820152805160b91015611a5b57601e611740820152805160ba1015611a5b576014611760820152805160bb1015611a5b57600a611780820152805160bc1015611a5b5760106117a0820152805160bf1015611a5b576117e08101600e611800830152815160bd1015611a5b57600c6117c0830152815160c01015611a5b576009611820830152815160be1015611a5b5760039052805160c11015611a5b576003611840820152805160c21015611a5b576003611860820152805160c31015611a5b576003611880820152805160c41015611a5b5760036118a0820152805160c51015611a5b5760036118c0820152805160c61015611a5b5760036118e0820152805160c71015611a5b576003611900820152805160c81015611a5b5760c8611920820152805160cb1015611a5b57611960810160b4611980830152815160c91015611a5b576078611940830152815160cc1015611a5b5760646119a0830152815160ca1015611a5b5760199052805160cd1015611a5b5760196119c0820152805160ce1015611a5b5760196119e0820152805160cf1015611a5b576019611a00820152805160d01015611a5b576019611a20820152805160d11015611a5b576019611a40820152805160d21015611a5b576019611a60820152805160d31015611a5b576138bc916019611a80830152614439565b60d48110156102c25790565b6138da6138d536836125c2565b614536565b90811561391d575b8115613907575b50156138f55750505f90565b6104b061390182611a4e565b52612dc8565b6139179150612c589036906125c2565b5f6138e9565b905061393161392c36836125c2565b61454a565b906138e2565b50613945612d7736836125c2565b612db4565b6040519091610b2061395c8184611997565b60588352601f19013660208401376139776129aa36856125c2565b1580613e6a575b80613e56575b15613990575050505f90565b6139a16117f2613a369436906125c2565b15613a42576113886139b283611a4e565b5260606139be83611b35565b52602a6139ca83611ac0565b52602a6139d683611b68565b5260196139e283611b79565b5260196139ee83611e21565b52601b6139fa83611fec565b52601e613a0683611dff565b526014613a1283611e65565b526023613a1e83612195565b526019613a2a836121b7565b52601461026d8361220c565b60588110156102c25790565b611388613a4e83611a4e565b52605a613a5a83611a7f565b526041613a6683611ad1565b52602d613a7283611ab0565b526019613a7e83611a8f565b526060613a8a83611b35565b52602a613a9683611ac0565b52602a613aa283611b68565b52604b613aae83611a6f565b52603c613aba83611ae1565b526032613ac683611a9f565b526023613ad283611b8a565b526019613ade83611b79565b526069613aea83611bbd565b526050613af683611bce565b526032613b0283611af1565b52601e613b0e83611b9b565b52609b613b1a83611bac565b526073613b2683611b02565b526050613b3283611b46565b526028613b3e83611b13565b526064613b4a83611b24565b526055613b5683611b57565b52603c613b6283611e10565b52602d613b6e83611e32565b526019613b7a83611e21565b52606b613b8683611fb9565b526057613b9283611fca565b526043613b9e83611fdb565b52602f613baa83611ffd565b52601b613bb683611fec565b526046613bc28361200e565b526032613bce8361201f565b526023613bda83612030565b526014613be683611e43565b526028613bf283611c9a565b52601e613bfe83611cab565b526014613c0a83611cbc565b52600a613c1683611ccd565b52608c613c2283611cde565b526069613c2e83611cef565b526046613c3a83611d00565b526028613c4683611d11565b526078613c5283611c89565b52605f613c5e83612294565b52604b613c6a83611efe565b526032613c7683611eed565b52601e613c8283611dff565b52604b613c8e83611f42565b52603c613c9a83611f53565b526023613ca683611f64565b526014613cb283611f75565b52605a613cbe83611f86565b52604b613cca83611f97565b526037613cd683611fa8565b526028613ce283611e76565b526014613cee83611e65565b52605f613cfa83611e87565b52604b613d0683611e98565b526032613d1283611ea9565b526019613d1e83611eba565b526037613d2a83611ecb565b52602d613d3683611d22565b526019613d42836122b6565b52600f613d4e836122c7565b52602d613d5a836122a5565b526023613d668361212f565b526019613d7283612140565b52600f613d7e83612151565b526082613d8a83612162565b526069613d9683612173565b526050613da283612184565b526037613dae836121a6565b526023613dba83612195565b52605f613dc683611f0f565b52604b613dd283611f20565b52603c613dde83611d33565b52602d613dea836121c8565b526019613df6836121b7565b52603c613e02836121d9565b52602d613e0e836121ea565b52601e613e1a83611f31565b526014613e2683612085565b526041613e3283611bdf565b526037613e3e83611e54565b526028613e4a836121fb565b52601e613a2a8361221d565b50613e646117f236856125c2565b15613984565b50613e78612d7736856125c2565b1561397e565b6040519091610d60613e908184611997565b606a8352601f1901366020840137613eab6138d536856125c2565b8015614426575b8015614413575b15613ec5575050505f90565b6143df92613ed66129aa36836125c2565b9081156143fd575b50156143eb57610190613ef083611a4e565b525b60fa613efd83611b8a565b5260e1613f0983611b68565b5260c8613f1583611ae1565b5260b9613f2183611a9f565b5260af613f2d83611ac0565b5260a5613f3983611b79565b526104b0613f46836122b6565b526104b0613f5383611d33565b5260c8613f5f83611b35565b5260af613f6b83611af1565b526096613f7783611bbd565b526075613f8383611b9b565b52601a613f8f83611bce565b52601a613f9b83611bac565b52601a613fa783611b02565b52601a613fb383611b46565b52601a613fbf83611b13565b52601a613fcb83611b24565b52601a613fd783611b57565b52601a613fe383611e10565b5260c8613fef83611f42565b5260b4613ffb83611f75565b52607861400783611f53565b52606461401383611f86565b52601961401f83611f64565b52601961402b83611f97565b52601961403783611fa8565b52601961404383611e65565b52601961404f83611e76565b52601961405b83611e87565b52601961406783611e98565b52601961407383611ea9565b5260c861407f83611d44565b5260b461408b83611d55565b52607861409783611d77565b5260646140a383611d88565b5260196140af83611d66565b5260196140bb83611d99565b5260196140c783611daa565b5260196140d383611dbb565b5260196140df83611dcc565b5260196140eb83611ddd565b5260196140f783611dee565b52601961410383611c01565b5260e161410f83611a7f565b5260c861411b83611ad1565b52608c61412783611ab0565b52606461413383611a8f565b52605561413f83611a6f565b52609661414b83611eba565b52604b61415783611ecb565b52601961416383611d22565b52603b61416f83611cab565b52602d61417b83611cde565b52602361418783611cbc565b52601e61419383611cef565b52600761419f83611ccd565b5260076141ab83611d00565b5260076141b783611d11565b5260076141c383611c89565b5260076141cf83612294565b5260076141db83611efe565b5260076141e783611dff565b5260076141f383611eed565b5260326141ff8361223f565b52602861420b83612261565b52601e61421783612250565b52601461422383612272565b52600a61422f83612283565b52601461423b836121b7565b526010614247836121ea565b52600c614253836121c8565b52600861425f83611f31565b52600361426b836121d9565b52600361427783612085565b52600361428383611bdf565b52600361428f83611e54565b52600361429b836121fb565b5260036142a78361220c565b5260036142b38361221d565b5260036142bf8361222e565b52600c6142cb83611e21565b5260096142d783611e32565b5260076142e383611fca565b5260066142ef83611fdb565b5260026142fb83611fb9565b52600261430783611fec565b52600261431383611ffd565b52600261431f8361200e565b52600261432b8361201f565b52600261433783612030565b52600261434383611e43565b52600261434f83611c9a565b52600661435b836122c7565b52600561436783612140565b526004614373836122a5565b52600261437f83612151565b52600161438b8361212f565b52600161439783612162565b5260016143a383612173565b5260016143af83612184565b5260016143bb83612195565b5260016143c7836121a6565b5260016143d383611f0f565b52600161026d83611f20565b606a8110156102c25790565b6103206143f783611a4e565b52613ef2565b61440d9150612d779036906125c2565b5f613ede565b50614421612c5836856125c2565b613eb9565b5061443461392c36856125c2565b613eb2565b905f925f935b82518510156144635760019061ffff6144588786612591565b51160194019361443f565b9093506020830160018151018091528351906040519060208201928352604082015260408152614494606082611997565b51902080935280156144ae576144ab92069061455e565b90565b634e487b7160e01b5f52601260045260245ffd5b610100018051601d8110156102c25760ff60079116101590816144e3575090565b905051601d8110156102c25760ff600a9116111590565b6101000151601d8110156102c257601c1490565b6101000151601d8110156102c25760041490565b6101000151601d8110156102c25760191490565b6101000151601d8110156102c25760161490565b6101000151601d8110156102c25760141490565b905f805b83518210156145935761ffff6145788386612591565b5116019081831061458c5760010190614562565b9250505090565b60405162461bcd60e51b815260206004820152601060248201526f14d95b1958dd1a5bdb8819985a5b195960821b6044820152606490fdfea2646970667358221220df21285e9366f87f11ae454a2b78325f6c85222ed39030fdfdd3501bbb22337e64736f6c634300081e0033",
			"opcodes": "PUSH1 0x80 DUP1 PUSH1 0x40 MSTORE CALLVALUE PUSH1 0x15 JUMPI PUSH2 0x4601 SWAP1 DUP2 PUSH2 0x1A DUP3 CODECOPY RETURN JUMPDEST PUSH0 DUP1 REVERT INVALID PUSH1 0x80 PUSH1 0x40 MSTORE PUSH1 0x4 CALLDATASIZE LT ISZERO PUSH2 0x11 JUMPI PUSH0 DUP1 REVERT JUMPDEST PUSH0 CALLDATALOAD PUSH1 0xE0 SHR DUP1 PUSH4 0x146E3EEF EQ PUSH2 0x631 JUMPI DUP1 PUSH4 0x2CBD5F51 EQ PUSH2 0x193D JUMPI DUP1 PUSH4 0x2E2D64EC EQ PUSH2 0x1913 JUMPI DUP1 PUSH4 0x3775819B EQ PUSH2 0x17B3 JUMPI DUP1 PUSH4 0x3E8AF2FF EQ PUSH2 0x1789 JUMPI DUP1 PUSH4 0x42B2BA9E EQ PUSH2 0x112E JUMPI DUP1 PUSH4 0x44701528 EQ PUSH2 0x1104 JUMPI DUP1 PUSH4 0x4E87244F EQ PUSH2 0x1088 JUMPI DUP1 PUSH4 0x4F4F0D07 EQ PUSH2 0x849 JUMPI DUP1 PUSH4 0xE7449565 EQ PUSH2 0x6F1 JUMPI DUP1 PUSH4 0xEAFA510A EQ PUSH2 0x631 JUMPI DUP1 PUSH4 0xF120BCF0 EQ PUSH2 0x485 JUMPI PUSH4 0xFDD1F51A EQ PUSH2 0xA8 JUMPI PUSH0 DUP1 REVERT JUMPDEST CALLVALUE PUSH2 0x481 JUMPI PUSH2 0xB6 CALLDATASIZE PUSH2 0x19EB JUMP JUMPDEST PUSH1 0x40 MLOAD SWAP1 SWAP2 PUSH2 0x300 PUSH2 0xC8 DUP2 DUP5 PUSH2 0x1997 JUMP JUMPDEST PUSH1 0x17 DUP4 MSTORE PUSH1 0x1F NOT ADD CALLDATASIZE PUSH1 0x20 DUP5 ADD CALLDATACOPY PUSH1 0xC0 PUSH2 0xE2 CALLDATASIZE DUP4 PUSH2 0x25C2 JUMP JUMPDEST ADD MLOAD PUSH1 0x2 DUP2 LT ISZERO PUSH2 0x2C2 JUMPI PUSH2 0x1C0 SWAP2 PUSH1 0x1 PUSH2 0x104 SWAP3 EQ PUSH2 0x44C JUMPI JUMPDEST CALLDATASIZE SWAP1 PUSH2 0x25C2 JUMP JUMPDEST ADD DUP1 MLOAD PUSH1 0x58 DUP2 LT ISZERO PUSH2 0x2C2 JUMPI PUSH1 0x1 EQ SWAP1 DUP2 ISZERO PUSH2 0x436 JUMPI JUMPDEST DUP2 ISZERO PUSH2 0x420 JUMPI JUMPDEST DUP2 ISZERO PUSH2 0x40A JUMPI JUMPDEST DUP2 ISZERO PUSH2 0x3F4 JUMPI JUMPDEST DUP2 ISZERO PUSH2 0x3DE JUMPI JUMPDEST DUP2 ISZERO PUSH2 0x3C8 JUMPI JUMPDEST DUP2 ISZERO PUSH2 0x3B2 JUMPI JUMPDEST DUP2 ISZERO PUSH2 0x39C JUMPI JUMPDEST DUP2 ISZERO PUSH2 0x386 JUMPI JUMPDEST DUP2 ISZERO PUSH2 0x370 JUMPI JUMPDEST DUP2 ISZERO PUSH2 0x35A JUMPI JUMPDEST DUP2 ISZERO PUSH2 0x344 JUMPI JUMPDEST DUP2 ISZERO PUSH2 0x32E JUMPI JUMPDEST DUP2 ISZERO PUSH2 0x318 JUMPI JUMPDEST DUP2 ISZERO PUSH2 0x302 JUMPI JUMPDEST DUP2 ISZERO PUSH2 0x2EC JUMPI JUMPDEST DUP2 ISZERO PUSH2 0x2D6 JUMPI JUMPDEST DUP2 ISZERO PUSH2 0x2AA JUMPI JUMPDEST POP SWAP1 PUSH1 0x20 SWAP3 PUSH2 0x273 SWAP3 PUSH2 0x28D JUMPI JUMPDEST PUSH2 0x1FDB PUSH2 0x1AC DUP4 PUSH2 0x1A4E JUMP JUMPDEST MSTORE PUSH2 0x12C PUSH2 0x1B9 DUP4 PUSH2 0x1B24 JUMP JUMPDEST MSTORE PUSH1 0xFA PUSH2 0x1C5 DUP4 PUSH2 0x1AC0 JUMP JUMPDEST MSTORE PUSH1 0xC8 PUSH2 0x1D1 DUP4 PUSH2 0x1AB0 JUMP JUMPDEST MSTORE PUSH1 0x96 PUSH2 0x1DD DUP4 PUSH2 0x1AE1 JUMP JUMPDEST MSTORE PUSH1 0x64 PUSH2 0x1E9 DUP4 PUSH2 0x1B9B JUMP JUMPDEST MSTORE PUSH1 0x32 PUSH2 0x1F5 DUP4 PUSH2 0x1AF1 JUMP JUMPDEST MSTORE PUSH1 0x96 PUSH2 0x201 DUP4 PUSH2 0x1A6F JUMP JUMPDEST MSTORE PUSH1 0x7D PUSH2 0x20D DUP4 PUSH2 0x1A7F JUMP JUMPDEST MSTORE PUSH1 0x32 PUSH2 0x219 DUP4 PUSH2 0x1A8F JUMP JUMPDEST MSTORE PUSH1 0x1E PUSH2 0x225 DUP4 PUSH2 0x1AD1 JUMP JUMPDEST MSTORE PUSH1 0x19 PUSH2 0x231 DUP4 PUSH2 0x1B02 JUMP JUMPDEST MSTORE PUSH1 0x14 PUSH2 0x23D DUP4 PUSH2 0x1B79 JUMP JUMPDEST MSTORE PUSH1 0xF PUSH2 0x249 DUP4 PUSH2 0x1B68 JUMP JUMPDEST MSTORE PUSH1 0x32 PUSH2 0x255 DUP4 PUSH2 0x1A9F JUMP JUMPDEST MSTORE PUSH1 0x14 PUSH2 0x261 DUP4 PUSH2 0x1B57 JUMP JUMPDEST MSTORE PUSH1 0xA PUSH2 0x26D DUP4 PUSH2 0x1BAC JUMP JUMPDEST MSTORE PUSH2 0x4439 JUMP JUMPDEST PUSH2 0x27C DUP2 PUSH2 0x1A44 JUMP JUMPDEST PUSH1 0x40 MLOAD SWAP1 PUSH2 0x289 DUP2 PUSH2 0x1A44 JUMP JUMPDEST DUP2 MSTORE RETURN JUMPDEST PUSH1 0x64 PUSH2 0x298 DUP4 PUSH2 0x1B13 JUMP JUMPDEST MSTORE PUSH1 0x64 PUSH2 0x2A4 DUP4 PUSH2 0x1B46 JUMP JUMPDEST MSTORE PUSH2 0x1A0 JUMP JUMPDEST SWAP1 POP MLOAD SWAP1 PUSH1 0x58 DUP3 LT ISZERO PUSH2 0x2C2 JUMPI SWAP1 PUSH1 0x53 EQ PUSH1 0x20 PUSH2 0x192 JUMP JUMPDEST PUSH4 0x4E487B71 PUSH1 0xE0 SHL PUSH0 MSTORE PUSH1 0x21 PUSH1 0x4 MSTORE PUSH1 0x24 PUSH0 REVERT JUMPDEST DUP1 SWAP2 POP MLOAD PUSH1 0x58 DUP2 LT ISZERO PUSH2 0x2C2 JUMPI PUSH1 0x4F EQ SWAP1 PUSH2 0x18B JUMP JUMPDEST DUP1 SWAP2 POP MLOAD PUSH1 0x58 DUP2 LT ISZERO PUSH2 0x2C2 JUMPI PUSH1 0x4A EQ SWAP1 PUSH2 0x184 JUMP JUMPDEST DUP1 SWAP2 POP MLOAD PUSH1 0x58 DUP2 LT ISZERO PUSH2 0x2C2 JUMPI PUSH1 0x45 EQ SWAP1 PUSH2 0x17D JUMP JUMPDEST DUP1 SWAP2 POP MLOAD PUSH1 0x58 DUP2 LT ISZERO PUSH2 0x2C2 JUMPI PUSH1 0x41 EQ SWAP1 PUSH2 0x176 JUMP JUMPDEST DUP1 SWAP2 POP MLOAD PUSH1 0x58 DUP2 LT ISZERO PUSH2 0x2C2 JUMPI PUSH1 0x3D EQ SWAP1 PUSH2 0x16F JUMP JUMPDEST DUP1 SWAP2 POP MLOAD PUSH1 0x58 DUP2 LT ISZERO PUSH2 0x2C2 JUMPI PUSH1 0x39 EQ SWAP1 PUSH2 0x168 JUMP JUMPDEST DUP1 SWAP2 POP MLOAD PUSH1 0x58 DUP2 LT ISZERO PUSH2 0x2C2 JUMPI PUSH1 0x34 EQ SWAP1 PUSH2 0x161 JUMP JUMPDEST DUP1 SWAP2 POP MLOAD PUSH1 0x58 DUP2 LT ISZERO PUSH2 0x2C2 JUMPI PUSH1 0x30 EQ SWAP1 PUSH2 0x15A JUMP JUMPDEST DUP1 SWAP2 POP MLOAD PUSH1 0x58 DUP2 LT ISZERO PUSH2 0x2C2 JUMPI PUSH1 0x2B EQ SWAP1 PUSH2 0x153 JUMP JUMPDEST DUP1 SWAP2 POP MLOAD PUSH1 0x58 DUP2 LT ISZERO PUSH2 0x2C2 JUMPI PUSH1 0x27 EQ SWAP1 PUSH2 0x14C JUMP JUMPDEST DUP1 SWAP2 POP MLOAD PUSH1 0x58 DUP2 LT ISZERO PUSH2 0x2C2 JUMPI PUSH1 0x23 EQ SWAP1 PUSH2 0x145 JUMP JUMPDEST DUP1 SWAP2 POP MLOAD PUSH1 0x58 DUP2 LT ISZERO PUSH2 0x2C2 JUMPI PUSH1 0x1F EQ SWAP1 PUSH2 0x13E JUMP JUMPDEST DUP1 SWAP2 POP MLOAD PUSH1 0x58 DUP2 LT ISZERO PUSH2 0x2C2 JUMPI PUSH1 0x1A EQ SWAP1 PUSH2 0x137 JUMP JUMPDEST DUP1 SWAP2 POP MLOAD PUSH1 0x58 DUP2 LT ISZERO PUSH2 0x2C2 JUMPI PUSH1 0x15 EQ SWAP1 PUSH2 0x130 JUMP JUMPDEST DUP1 SWAP2 POP MLOAD PUSH1 0x58 DUP2 LT ISZERO PUSH2 0x2C2 JUMPI PUSH1 0x11 EQ SWAP1 PUSH2 0x129 JUMP JUMPDEST DUP1 SWAP2 POP MLOAD PUSH1 0x58 DUP2 LT ISZERO PUSH2 0x2C2 JUMPI PUSH1 0xD EQ SWAP1 PUSH2 0x122 JUMP JUMPDEST DUP1 SWAP2 POP MLOAD PUSH1 0x58 DUP2 LT ISZERO PUSH2 0x2C2 JUMPI PUSH1 0x5 EQ SWAP1 PUSH2 0x11B JUMP JUMPDEST PUSH1 0x23 PUSH2 0x457 DUP6 PUSH2 0x1BCE JUMP JUMPDEST MSTORE PUSH1 0x1E PUSH2 0x463 DUP6 PUSH2 0x1B35 JUMP JUMPDEST MSTORE PUSH1 0x14 PUSH2 0x46F DUP6 PUSH2 0x1BBD JUMP JUMPDEST MSTORE PUSH1 0xF PUSH2 0x47B DUP6 PUSH2 0x1B8A JUMP JUMPDEST MSTORE PUSH2 0xFD JUMP JUMPDEST PUSH0 DUP1 REVERT JUMPDEST CALLVALUE PUSH2 0x481 JUMPI PUSH1 0x40 CALLDATASIZE PUSH1 0x3 NOT ADD SLT PUSH2 0x481 JUMPI PUSH2 0x61D PUSH2 0x4A2 CALLDATASIZE PUSH2 0x19B9 JUMP JUMPDEST PUSH1 0x40 MLOAD SWAP1 PUSH2 0x3C0 PUSH2 0x4B3 DUP2 DUP5 PUSH2 0x1997 JUMP JUMPDEST PUSH1 0x1D DUP4 MSTORE PUSH1 0x1F NOT ADD CALLDATASIZE PUSH1 0x20 DUP5 ADD CALLDATACOPY PUSH2 0x2EE PUSH2 0x4CD DUP4 PUSH2 0x1AC0 JUMP JUMPDEST MSTORE PUSH2 0x2EE PUSH2 0x4DA DUP4 PUSH2 0x1B8A JUMP JUMPDEST MSTORE PUSH2 0x2EE PUSH2 0x4E7 DUP4 PUSH2 0x1B35 JUMP JUMPDEST MSTORE PUSH2 0x2EE PUSH2 0x4F4 DUP4 PUSH2 0x1BBD JUMP JUMPDEST MSTORE PUSH2 0x2EE PUSH2 0x501 DUP4 PUSH2 0x1BCE JUMP JUMPDEST MSTORE PUSH2 0x2EE PUSH2 0x50E DUP4 PUSH2 0x1AF1 JUMP JUMPDEST MSTORE PUSH2 0x2EE PUSH2 0x51B DUP4 PUSH2 0x1B9B JUMP JUMPDEST MSTORE PUSH2 0x2EE PUSH2 0x528 DUP4 PUSH2 0x1BAC JUMP JUMPDEST MSTORE PUSH2 0x2EE PUSH2 0x535 DUP4 PUSH2 0x1B02 JUMP JUMPDEST MSTORE PUSH2 0x2EE PUSH2 0x542 DUP4 PUSH2 0x1A9F JUMP JUMPDEST MSTORE PUSH2 0x2EE PUSH2 0x54F DUP4 PUSH2 0x1B68 JUMP JUMPDEST MSTORE PUSH2 0x2EE PUSH2 0x55C DUP4 PUSH2 0x1B79 JUMP JUMPDEST MSTORE PUSH2 0x12C PUSH2 0x569 DUP4 PUSH2 0x1FDB JUMP JUMPDEST MSTORE PUSH1 0xAF PUSH2 0x575 DUP4 PUSH2 0x1AD1 JUMP JUMPDEST MSTORE PUSH1 0x78 PUSH2 0x581 DUP4 PUSH2 0x1FCA JUMP JUMPDEST MSTORE PUSH1 0x50 PUSH2 0x58D DUP4 PUSH2 0x1FB9 JUMP JUMPDEST MSTORE PUSH1 0x3C PUSH2 0x599 DUP4 PUSH2 0x1B57 JUMP JUMPDEST MSTORE PUSH1 0x37 PUSH2 0x5A5 DUP4 PUSH2 0x1A6F JUMP JUMPDEST MSTORE PUSH1 0x2D PUSH2 0x5B1 DUP4 PUSH2 0x1A8F JUMP JUMPDEST MSTORE PUSH1 0x23 PUSH2 0x5BD DUP4 PUSH2 0x1A7F JUMP JUMPDEST MSTORE PUSH1 0x1E PUSH2 0x5C9 DUP4 PUSH2 0x1E21 JUMP JUMPDEST MSTORE PUSH1 0x16 PUSH2 0x5D5 DUP4 PUSH2 0x1B13 JUMP JUMPDEST MSTORE PUSH1 0x12 PUSH2 0x5E1 DUP4 PUSH2 0x1E10 JUMP JUMPDEST MSTORE PUSH1 0x10 PUSH2 0x5ED DUP4 PUSH2 0x1B24 JUMP JUMPDEST MSTORE PUSH1 0xE PUSH2 0x5F9 DUP4 PUSH2 0x1AE1 JUMP JUMPDEST MSTORE PUSH1 0xC PUSH2 0x605 DUP4 PUSH2 0x1AB0 JUMP JUMPDEST MSTORE PUSH1 0xA PUSH2 0x611 DUP4 PUSH2 0x1E32 JUMP JUMPDEST MSTORE PUSH1 0x8 PUSH2 0x26D DUP4 PUSH2 0x1B46 JUMP JUMPDEST PUSH1 0x1D DUP2 LT ISZERO PUSH2 0x2C2 JUMPI PUSH1 0x20 SWAP1 PUSH1 0x40 MLOAD SWAP1 DUP2 MSTORE RETURN JUMPDEST CALLVALUE PUSH2 0x481 JUMPI PUSH1 0x40 CALLDATASIZE PUSH1 0x3 NOT ADD SLT PUSH2 0x481 JUMPI PUSH1 0x20 PUSH2 0x6DB PUSH2 0x650 CALLDATASIZE PUSH2 0x19B9 JUMP JUMPDEST PUSH1 0x40 MLOAD SWAP1 PUSH2 0x140 PUSH2 0x661 DUP2 DUP5 PUSH2 0x1997 JUMP JUMPDEST PUSH1 0x9 DUP4 MSTORE PUSH1 0x1F NOT ADD CALLDATASIZE DUP6 DUP5 ADD CALLDATACOPY PUSH2 0x2328 PUSH2 0x67A DUP4 PUSH2 0x1A4E JUMP JUMPDEST MSTORE PUSH2 0x15E PUSH2 0x687 DUP4 PUSH2 0x1A6F JUMP JUMPDEST MSTORE PUSH1 0xFA PUSH2 0x693 DUP4 PUSH2 0x1A7F JUMP JUMPDEST MSTORE PUSH1 0x8C PUSH2 0x69F DUP4 PUSH2 0x1A8F JUMP JUMPDEST MSTORE PUSH1 0x64 PUSH2 0x6AB DUP4 PUSH2 0x1A9F JUMP JUMPDEST MSTORE PUSH1 0x4B PUSH2 0x6B7 DUP4 PUSH2 0x1AB0 JUMP JUMPDEST MSTORE PUSH1 0x32 PUSH2 0x6C3 DUP4 PUSH2 0x1AC0 JUMP JUMPDEST MSTORE PUSH1 0x19 PUSH2 0x6CF DUP4 PUSH2 0x1AD1 JUMP JUMPDEST MSTORE PUSH1 0xA PUSH2 0x26D DUP4 PUSH2 0x1AE1 JUMP JUMPDEST PUSH2 0x6E4 DUP2 PUSH2 0x19E1 JUMP JUMPDEST PUSH1 0x40 MLOAD SWAP1 PUSH2 0x289 DUP2 PUSH2 0x19E1 JUMP JUMPDEST CALLVALUE PUSH2 0x481 JUMPI PUSH1 0x40 CALLDATASIZE PUSH1 0x3 NOT ADD SLT PUSH2 0x481 JUMPI PUSH2 0x835 PUSH2 0x70E CALLDATASIZE PUSH2 0x19B9 JUMP JUMPDEST PUSH1 0x40 MLOAD SWAP1 PUSH2 0x2E0 PUSH2 0x71F DUP2 DUP5 PUSH2 0x1997 JUMP JUMPDEST PUSH1 0x16 DUP4 MSTORE PUSH1 0x1F NOT ADD CALLDATASIZE PUSH1 0x20 DUP5 ADD CALLDATACOPY PUSH2 0x2530 PUSH2 0x739 DUP4 PUSH2 0x1A4E JUMP JUMPDEST MSTORE PUSH1 0x28 PUSH2 0x745 DUP4 PUSH2 0x1BCE JUMP JUMPDEST MSTORE PUSH1 0x19 PUSH2 0x751 DUP4 PUSH2 0x1AE1 JUMP JUMPDEST MSTORE PUSH1 0x19 PUSH2 0x75D DUP4 PUSH2 0x1AC0 JUMP JUMPDEST MSTORE PUSH1 0x19 PUSH2 0x769 DUP4 PUSH2 0x1A9F JUMP JUMPDEST MSTORE PUSH1 0x19 PUSH2 0x775 DUP4 PUSH2 0x1B68 JUMP JUMPDEST MSTORE PUSH1 0x19 PUSH2 0x781 DUP4 PUSH2 0x1B79 JUMP JUMPDEST MSTORE PUSH1 0x19 PUSH2 0x78D DUP4 PUSH2 0x1B8A JUMP JUMPDEST MSTORE PUSH1 0x19 PUSH2 0x799 DUP4 PUSH2 0x1B35 JUMP JUMPDEST MSTORE PUSH1 0x19 PUSH2 0x7A5 DUP4 PUSH2 0x1BBD JUMP JUMPDEST MSTORE PUSH1 0x1E PUSH2 0x7B1 DUP4 PUSH2 0x1A7F JUMP JUMPDEST MSTORE PUSH1 0x1E PUSH2 0x7BD DUP4 PUSH2 0x1AD1 JUMP JUMPDEST MSTORE PUSH1 0x1E PUSH2 0x7C9 DUP4 PUSH2 0x1AB0 JUMP JUMPDEST MSTORE PUSH1 0x1E PUSH2 0x7D5 DUP4 PUSH2 0x1A8F JUMP JUMPDEST MSTORE PUSH1 0xA PUSH2 0x7E1 DUP4 PUSH2 0x1BAC JUMP JUMPDEST MSTORE PUSH1 0xA PUSH2 0x7ED DUP4 PUSH2 0x1B02 JUMP JUMPDEST MSTORE PUSH1 0xA PUSH2 0x7F9 DUP4 PUSH2 0x1B46 JUMP JUMPDEST MSTORE PUSH1 0xA PUSH2 0x805 DUP4 PUSH2 0x1B13 JUMP JUMPDEST MSTORE PUSH1 0xA PUSH2 0x811 DUP4 PUSH2 0x1B24 JUMP JUMPDEST MSTORE PUSH1 0x1E PUSH2 0x81D DUP4 PUSH2 0x1A6F JUMP JUMPDEST MSTORE PUSH1 0xF PUSH2 0x829 DUP4 PUSH2 0x1B9B JUMP JUMPDEST MSTORE PUSH1 0xF PUSH2 0x26D DUP4 PUSH2 0x1AF1 JUMP JUMPDEST PUSH1 0x16 DUP2 LT ISZERO PUSH2 0x2C2 JUMPI PUSH1 0x20 SWAP1 PUSH1 0x40 MLOAD SWAP1 DUP2 MSTORE RETURN JUMPDEST CALLVALUE PUSH2 0x481 JUMPI PUSH1 0x40 CALLDATASIZE PUSH1 0x3 NOT ADD SLT PUSH2 0x481 JUMPI PUSH2 0x1074 PUSH2 0x866 CALLDATASIZE PUSH2 0x19B9 JUMP JUMPDEST PUSH1 0x40 MLOAD SWAP1 PUSH2 0x1540 PUSH2 0x877 DUP2 DUP5 PUSH2 0x1997 JUMP JUMPDEST PUSH1 0xA9 DUP4 MSTORE PUSH1 0x1F NOT ADD CALLDATASIZE PUSH1 0x20 DUP5 ADD CALLDATACOPY PUSH2 0x3BB PUSH2 0x891 DUP4 PUSH2 0x1A4E JUMP JUMPDEST MSTORE PUSH1 0x4B PUSH2 0x89D DUP4 PUSH2 0x1BF0 JUMP JUMPDEST MSTORE PUSH1 0x4B PUSH2 0x8A9 DUP4 PUSH2 0x1EDC JUMP JUMPDEST MSTORE PUSH1 0x4B PUSH2 0x8B5 DUP4 PUSH2 0x2041 JUMP JUMPDEST MSTORE PUSH1 0x4B PUSH2 0x8C1 DUP4 PUSH2 0x2052 JUMP JUMPDEST MSTORE PUSH1 0x4B PUSH2 0x8CD DUP4 PUSH2 0x2063 JUMP JUMPDEST MSTORE PUSH1 0x4B PUSH2 0x8D9 DUP4 PUSH2 0x2074 JUMP JUMPDEST MSTORE PUSH1 0x4B PUSH2 0x8E5 DUP4 PUSH2 0x2096 JUMP JUMPDEST MSTORE PUSH1 0x4B PUSH2 0x8F1 DUP4 PUSH2 0x20A7 JUMP JUMPDEST MSTORE PUSH1 0x4B PUSH2 0x8FD DUP4 PUSH2 0x20B8 JUMP JUMPDEST MSTORE PUSH1 0x4B PUSH2 0x909 DUP4 PUSH2 0x20C9 JUMP JUMPDEST MSTORE PUSH1 0x82 PUSH2 0x915 DUP4 PUSH2 0x1C9A JUMP JUMPDEST MSTORE PUSH1 0x82 PUSH2 0x921 DUP4 PUSH2 0x1CAB JUMP JUMPDEST MSTORE PUSH1 0x82 PUSH2 0x92D DUP4 PUSH2 0x1CBC JUMP JUMPDEST MSTORE PUSH1 0x82 PUSH2 0x939 DUP4 PUSH2 0x1CCD JUMP JUMPDEST MSTORE PUSH1 0x82 PUSH2 0x945 DUP4 PUSH2 0x1CDE JUMP JUMPDEST MSTORE PUSH1 0x7E PUSH2 0x951 DUP4 PUSH2 0x1A7F JUMP JUMPDEST MSTORE PUSH1 0x7E PUSH2 0x95D DUP4 PUSH2 0x1AD1 JUMP JUMPDEST MSTORE PUSH1 0x7E PUSH2 0x969 DUP4 PUSH2 0x1AB0 JUMP JUMPDEST MSTORE PUSH1 0x7E PUSH2 0x975 DUP4 PUSH2 0x1A8F JUMP JUMPDEST MSTORE PUSH1 0x7E PUSH2 0x981 DUP4 PUSH2 0x1A6F JUMP JUMPDEST MSTORE PUSH1 0x4E PUSH2 0x98D DUP4 PUSH2 0x1C01 JUMP JUMPDEST MSTORE PUSH1 0x4E PUSH2 0x999 DUP4 PUSH2 0x1C12 JUMP JUMPDEST MSTORE PUSH1 0x4E PUSH2 0x9A5 DUP4 PUSH2 0x1C23 JUMP JUMPDEST MSTORE PUSH1 0x4E PUSH2 0x9B1 DUP4 PUSH2 0x1C34 JUMP JUMPDEST MSTORE PUSH1 0x4E PUSH2 0x9BD DUP4 PUSH2 0x1C45 JUMP JUMPDEST MSTORE PUSH1 0x4E PUSH2 0x9C9 DUP4 PUSH2 0x1C56 JUMP JUMPDEST MSTORE PUSH1 0x4E PUSH2 0x9D5 DUP4 PUSH2 0x1C67 JUMP JUMPDEST MSTORE PUSH1 0x4E PUSH2 0x9E1 DUP4 PUSH2 0x1C78 JUMP JUMPDEST MSTORE PUSH1 0x44 PUSH2 0x9ED DUP4 PUSH2 0x1AF1 JUMP JUMPDEST MSTORE PUSH1 0x44 PUSH2 0x9F9 DUP4 PUSH2 0x1B9B JUMP JUMPDEST MSTORE PUSH1 0x44 PUSH2 0xA05 DUP4 PUSH2 0x1BAC JUMP JUMPDEST MSTORE PUSH1 0x44 PUSH2 0xA11 DUP4 PUSH2 0x1B02 JUMP JUMPDEST MSTORE PUSH1 0x44 PUSH2 0xA1D DUP4 PUSH2 0x1B46 JUMP JUMPDEST MSTORE PUSH1 0x44 PUSH2 0xA29 DUP4 PUSH2 0x1B13 JUMP JUMPDEST MSTORE PUSH1 0x44 PUSH2 0xA35 DUP4 PUSH2 0x1B24 JUMP JUMPDEST MSTORE PUSH1 0x44 PUSH2 0xA41 DUP4 PUSH2 0x1B57 JUMP JUMPDEST MSTORE PUSH1 0x44 PUSH2 0xA4D DUP4 PUSH2 0x1E10 JUMP JUMPDEST MSTORE PUSH1 0x4B PUSH2 0xA59 DUP4 PUSH2 0x22D8 JUMP JUMPDEST MSTORE PUSH1 0x4B PUSH2 0xA65 DUP4 PUSH2 0x22E9 JUMP JUMPDEST MSTORE PUSH1 0x4B PUSH2 0xA71 DUP4 PUSH2 0x22FA JUMP JUMPDEST MSTORE PUSH1 0x4B PUSH2 0xA7D DUP4 PUSH2 0x230B JUMP JUMPDEST MSTORE PUSH1 0x4B PUSH2 0xA89 DUP4 PUSH2 0x231C JUMP JUMPDEST MSTORE PUSH1 0x4B PUSH2 0xA95 DUP4 PUSH2 0x232D JUMP JUMPDEST MSTORE PUSH1 0x4B PUSH2 0xAA1 DUP4 PUSH2 0x233E JUMP JUMPDEST MSTORE PUSH1 0x4B PUSH2 0xAAD DUP4 PUSH2 0x234F JUMP JUMPDEST MSTORE PUSH1 0x3E PUSH2 0xAB9 DUP4 PUSH2 0x1AE1 JUMP JUMPDEST MSTORE PUSH1 0x3E PUSH2 0xAC5 DUP4 PUSH2 0x1AC0 JUMP JUMPDEST MSTORE PUSH1 0x3E PUSH2 0xAD1 DUP4 PUSH2 0x1A9F JUMP JUMPDEST MSTORE PUSH1 0x3E PUSH2 0xADD DUP4 PUSH2 0x1B68 JUMP JUMPDEST MSTORE PUSH1 0x3E PUSH2 0xAE9 DUP4 PUSH2 0x1B79 JUMP JUMPDEST MSTORE PUSH1 0x3E PUSH2 0xAF5 DUP4 PUSH2 0x1B8A JUMP JUMPDEST MSTORE PUSH1 0x3E PUSH2 0xB01 DUP4 PUSH2 0x1B35 JUMP JUMPDEST MSTORE PUSH1 0x3E PUSH2 0xB0D DUP4 PUSH2 0x1BBD JUMP JUMPDEST MSTORE PUSH1 0x3E PUSH2 0xB19 DUP4 PUSH2 0x1BCE JUMP JUMPDEST MSTORE PUSH1 0x42 PUSH2 0xB25 DUP4 PUSH2 0x1EBA JUMP JUMPDEST MSTORE PUSH1 0x42 PUSH2 0xB31 DUP4 PUSH2 0x1ECB JUMP JUMPDEST MSTORE PUSH1 0x42 PUSH2 0xB3D DUP4 PUSH2 0x1D22 JUMP JUMPDEST MSTORE PUSH1 0x42 PUSH2 0xB49 DUP4 PUSH2 0x22B6 JUMP JUMPDEST MSTORE PUSH1 0x42 PUSH2 0xB55 DUP4 PUSH2 0x22C7 JUMP JUMPDEST MSTORE PUSH2 0x145 PUSH2 0xB62 DUP4 PUSH2 0x1F20 JUMP JUMPDEST MSTORE PUSH1 0x40 PUSH2 0xB6E DUP4 PUSH2 0x21EA JUMP JUMPDEST MSTORE PUSH1 0x40 PUSH2 0xB7A DUP4 PUSH2 0x1D33 JUMP JUMPDEST MSTORE PUSH1 0x40 PUSH2 0xB86 DUP4 PUSH2 0x21B7 JUMP JUMPDEST MSTORE PUSH1 0x40 PUSH2 0xB92 DUP4 PUSH2 0x21C8 JUMP JUMPDEST MSTORE PUSH1 0x40 PUSH2 0xB9E DUP4 PUSH2 0x21D9 JUMP JUMPDEST MSTORE PUSH1 0x4E PUSH2 0xBAA DUP4 PUSH2 0x2360 JUMP JUMPDEST MSTORE PUSH1 0x4E PUSH2 0xBB6 DUP4 PUSH2 0x2371 JUMP JUMPDEST MSTORE PUSH1 0x4E PUSH2 0xBC2 DUP4 PUSH2 0x2382 JUMP JUMPDEST MSTORE PUSH1 0x4E PUSH2 0xBCE DUP4 PUSH2 0x2393 JUMP JUMPDEST MSTORE PUSH1 0x26 PUSH2 0xBDA DUP4 PUSH2 0x20DA JUMP JUMPDEST MSTORE PUSH1 0x26 PUSH2 0xBE6 DUP4 PUSH2 0x20EB JUMP JUMPDEST MSTORE PUSH1 0x26 PUSH2 0xBF2 DUP4 PUSH2 0x20FC JUMP JUMPDEST MSTORE PUSH1 0x26 PUSH2 0xBFE DUP4 PUSH2 0x210D JUMP JUMPDEST MSTORE PUSH1 0x26 PUSH2 0xC0A DUP4 PUSH2 0x211E JUMP JUMPDEST MSTORE PUSH1 0x26 PUSH2 0xC16 DUP4 PUSH2 0x23A4 JUMP JUMPDEST MSTORE PUSH1 0x26 PUSH2 0xC22 DUP4 PUSH2 0x23B5 JUMP JUMPDEST MSTORE PUSH1 0x26 PUSH2 0xC2E DUP4 PUSH2 0x23C6 JUMP JUMPDEST MSTORE PUSH1 0x64 PUSH2 0xC3A DUP4 PUSH2 0x1DCC JUMP JUMPDEST MSTORE PUSH1 0x64 PUSH2 0xC46 DUP4 PUSH2 0x1DDD JUMP JUMPDEST MSTORE PUSH1 0x64 PUSH2 0xC52 DUP4 PUSH2 0x1DEE JUMP JUMPDEST MSTORE PUSH2 0x127 PUSH2 0xC5F DUP4 PUSH2 0x1F42 JUMP JUMPDEST MSTORE PUSH2 0x122 PUSH2 0xC6C DUP4 PUSH2 0x23D7 JUMP JUMPDEST MSTORE PUSH1 0x29 PUSH2 0xC78 DUP4 PUSH2 0x2261 JUMP JUMPDEST MSTORE PUSH1 0x29 PUSH2 0xC84 DUP4 PUSH2 0x2272 JUMP JUMPDEST MSTORE PUSH1 0x29 PUSH2 0xC90 DUP4 PUSH2 0x2283 JUMP JUMPDEST MSTORE PUSH1 0x29 PUSH2 0xC9C DUP4 PUSH2 0x1D44 JUMP JUMPDEST MSTORE PUSH1 0x29 PUSH2 0xCA8 DUP4 PUSH2 0x1D55 JUMP JUMPDEST MSTORE PUSH1 0x29 PUSH2 0xCB4 DUP4 PUSH2 0x1D66 JUMP JUMPDEST MSTORE PUSH1 0x29 PUSH2 0xCC0 DUP4 PUSH2 0x1D77 JUMP JUMPDEST MSTORE PUSH1 0x12 PUSH2 0xCCC DUP4 PUSH2 0x1E87 JUMP JUMPDEST MSTORE PUSH1 0x12 PUSH2 0xCD8 DUP4 PUSH2 0x1F53 JUMP JUMPDEST MSTORE PUSH1 0x12 PUSH2 0xCE4 DUP4 PUSH2 0x1F64 JUMP JUMPDEST MSTORE PUSH1 0x12 PUSH2 0xCF0 DUP4 PUSH2 0x1F75 JUMP JUMPDEST MSTORE PUSH1 0x12 PUSH2 0xCFC DUP4 PUSH2 0x1F86 JUMP JUMPDEST MSTORE PUSH1 0x12 PUSH2 0xD08 DUP4 PUSH2 0x1F97 JUMP JUMPDEST MSTORE PUSH1 0x12 PUSH2 0xD14 DUP4 PUSH2 0x1FA8 JUMP JUMPDEST MSTORE PUSH1 0x12 PUSH2 0xD20 DUP4 PUSH2 0x1E65 JUMP JUMPDEST MSTORE PUSH1 0x12 PUSH2 0xD2C DUP4 PUSH2 0x1E76 JUMP JUMPDEST MSTORE PUSH1 0x96 PUSH2 0xD38 DUP4 PUSH2 0x1CEF JUMP JUMPDEST MSTORE PUSH1 0x30 PUSH2 0xD44 DUP4 PUSH2 0x1E21 JUMP JUMPDEST MSTORE PUSH1 0x30 PUSH2 0xD50 DUP4 PUSH2 0x1E32 JUMP JUMPDEST MSTORE PUSH1 0x30 PUSH2 0xD5C DUP4 PUSH2 0x1FB9 JUMP JUMPDEST MSTORE PUSH1 0xF PUSH2 0xD68 DUP4 PUSH2 0x21A6 JUMP JUMPDEST MSTORE PUSH1 0xF PUSH2 0xD74 DUP4 PUSH2 0x212F JUMP JUMPDEST MSTORE PUSH1 0xF PUSH2 0xD80 DUP4 PUSH2 0x22A5 JUMP JUMPDEST MSTORE PUSH1 0xF PUSH2 0xD8C DUP4 PUSH2 0x2140 JUMP JUMPDEST MSTORE PUSH1 0xF PUSH2 0xD98 DUP4 PUSH2 0x2151 JUMP JUMPDEST MSTORE PUSH1 0xF PUSH2 0xDA4 DUP4 PUSH2 0x2162 JUMP JUMPDEST MSTORE PUSH1 0xF PUSH2 0xDB0 DUP4 PUSH2 0x2173 JUMP JUMPDEST MSTORE PUSH1 0xF PUSH2 0xDBC DUP4 PUSH2 0x2184 JUMP JUMPDEST MSTORE PUSH1 0xF PUSH2 0xDC8 DUP4 PUSH2 0x2195 JUMP JUMPDEST MSTORE PUSH1 0xE PUSH2 0xDD4 DUP4 PUSH2 0x23E8 JUMP JUMPDEST MSTORE PUSH1 0xE PUSH2 0xDE0 DUP4 PUSH2 0x23F9 JUMP JUMPDEST MSTORE PUSH1 0xE PUSH2 0xDEC DUP4 PUSH2 0x240A JUMP JUMPDEST MSTORE PUSH1 0xE PUSH2 0xDF8 DUP4 PUSH2 0x241B JUMP JUMPDEST MSTORE PUSH1 0xE PUSH2 0xE04 DUP4 PUSH2 0x242C JUMP JUMPDEST MSTORE PUSH1 0xE PUSH2 0xE10 DUP4 PUSH2 0x243D JUMP JUMPDEST MSTORE PUSH1 0xE PUSH2 0xE1C DUP4 PUSH2 0x244E JUMP JUMPDEST MSTORE PUSH1 0xE PUSH2 0xE28 DUP4 PUSH2 0x245F JUMP JUMPDEST MSTORE PUSH1 0xE PUSH2 0xE34 DUP4 PUSH2 0x2470 JUMP JUMPDEST MSTORE PUSH1 0x10 PUSH2 0xE40 DUP4 PUSH2 0x1FEC JUMP JUMPDEST MSTORE PUSH1 0x10 PUSH2 0xE4C DUP4 PUSH2 0x1FDB JUMP JUMPDEST MSTORE PUSH1 0x10 PUSH2 0xE58 DUP4 PUSH2 0x1FFD JUMP JUMPDEST MSTORE PUSH1 0x10 PUSH2 0xE64 DUP4 PUSH2 0x200E JUMP JUMPDEST MSTORE PUSH1 0x10 PUSH2 0xE70 DUP4 PUSH2 0x201F JUMP JUMPDEST MSTORE PUSH1 0x10 PUSH2 0xE7C DUP4 PUSH2 0x2030 JUMP JUMPDEST MSTORE PUSH1 0x10 PUSH2 0xE88 DUP4 PUSH2 0x1E43 JUMP JUMPDEST MSTORE PUSH1 0x10 PUSH2 0xE94 DUP4 PUSH2 0x2481 JUMP JUMPDEST MSTORE PUSH1 0x10 PUSH2 0xEA0 DUP4 PUSH2 0x2492 JUMP JUMPDEST MSTORE PUSH1 0x10 PUSH2 0xEAC DUP4 PUSH2 0x24A3 JUMP JUMPDEST MSTORE PUSH1 0x10 PUSH2 0xEB8 DUP4 PUSH2 0x24B4 JUMP JUMPDEST MSTORE PUSH1 0x10 PUSH2 0xEC4 DUP4 PUSH2 0x24C5 JUMP JUMPDEST MSTORE PUSH1 0x10 PUSH2 0xED0 DUP4 PUSH2 0x24D6 JUMP JUMPDEST MSTORE PUSH1 0x10 PUSH2 0xEDC DUP4 PUSH2 0x24E7 JUMP JUMPDEST MSTORE PUSH1 0x6E PUSH2 0xEE8 DUP4 PUSH2 0x1FCA JUMP JUMPDEST MSTORE PUSH1 0x69 PUSH2 0xEF4 DUP4 PUSH2 0x1E98 JUMP JUMPDEST MSTORE PUSH1 0x22 PUSH2 0xF00 DUP4 PUSH2 0x221D JUMP JUMPDEST MSTORE PUSH1 0x22 PUSH2 0xF0C DUP4 PUSH2 0x222E JUMP JUMPDEST MSTORE PUSH1 0x22 PUSH2 0xF18 DUP4 PUSH2 0x223F JUMP JUMPDEST MSTORE PUSH1 0x64 PUSH2 0xF24 DUP4 PUSH2 0x2250 JUMP JUMPDEST MSTORE PUSH1 0x4B PUSH2 0xF30 DUP4 PUSH2 0x1D99 JUMP JUMPDEST MSTORE PUSH1 0x2D PUSH2 0xF3C DUP4 PUSH2 0x1DBB JUMP JUMPDEST MSTORE PUSH1 0x14 PUSH2 0xF48 DUP4 PUSH2 0x1DAA JUMP JUMPDEST MSTORE PUSH1 0x41 PUSH2 0xF54 DUP4 PUSH2 0x1F31 JUMP JUMPDEST MSTORE PUSH1 0xF PUSH2 0xF60 DUP4 PUSH2 0x1BDF JUMP JUMPDEST MSTORE PUSH1 0xF PUSH2 0xF6C DUP4 PUSH2 0x1E54 JUMP JUMPDEST MSTORE PUSH1 0xF PUSH2 0xF78 DUP4 PUSH2 0x21FB JUMP JUMPDEST MSTORE PUSH1 0xF PUSH2 0xF84 DUP4 PUSH2 0x220C JUMP JUMPDEST MSTORE PUSH1 0x37 PUSH2 0xF90 DUP4 PUSH2 0x24F8 JUMP JUMPDEST MSTORE PUSH1 0x32 PUSH2 0xF9C DUP4 PUSH2 0x1D88 JUMP JUMPDEST MSTORE PUSH1 0x6 PUSH2 0xFA8 DUP4 PUSH2 0x1D00 JUMP JUMPDEST MSTORE PUSH1 0x6 PUSH2 0xFB4 DUP4 PUSH2 0x1EED JUMP JUMPDEST MSTORE PUSH1 0x6 PUSH2 0xFC0 DUP4 PUSH2 0x1D11 JUMP JUMPDEST MSTORE PUSH1 0x6 PUSH2 0xFCC DUP4 PUSH2 0x1C89 JUMP JUMPDEST MSTORE PUSH1 0x6 PUSH2 0xFD8 DUP4 PUSH2 0x2294 JUMP JUMPDEST MSTORE PUSH1 0x6 PUSH2 0xFE4 DUP4 PUSH2 0x1EFE JUMP JUMPDEST MSTORE PUSH1 0x6 PUSH2 0xFF0 DUP4 PUSH2 0x1DFF JUMP JUMPDEST MSTORE PUSH1 0x5 PUSH2 0xFFC DUP4 PUSH2 0x2509 JUMP JUMPDEST MSTORE PUSH1 0x5 PUSH2 0x1008 DUP4 PUSH2 0x251A JUMP JUMPDEST MSTORE PUSH1 0x5 PUSH2 0x1014 DUP4 PUSH2 0x252B JUMP JUMPDEST MSTORE PUSH1 0x5 PUSH2 0x1020 DUP4 PUSH2 0x253C JUMP JUMPDEST MSTORE PUSH1 0x5 PUSH2 0x102C DUP4 PUSH2 0x254D JUMP JUMPDEST MSTORE PUSH1 0x5 PUSH2 0x1038 DUP4 PUSH2 0x255E JUMP JUMPDEST MSTORE PUSH1 0x5 PUSH2 0x1044 DUP4 PUSH2 0x256F JUMP JUMPDEST MSTORE PUSH1 0x5 PUSH2 0x1050 DUP4 PUSH2 0x2580 JUMP JUMPDEST MSTORE PUSH1 0x1E PUSH2 0x105C DUP4 PUSH2 0x1F0F JUMP JUMPDEST MSTORE PUSH1 0xF PUSH2 0x1068 DUP4 PUSH2 0x1EA9 JUMP JUMPDEST MSTORE PUSH1 0x3 PUSH2 0x26D DUP4 PUSH2 0x2085 JUMP JUMPDEST PUSH1 0xA9 DUP2 LT ISZERO PUSH2 0x2C2 JUMPI PUSH1 0x20 SWAP1 PUSH1 0x40 MLOAD SWAP1 DUP2 MSTORE RETURN JUMPDEST CALLVALUE PUSH2 0x481 JUMPI PUSH1 0x40 CALLDATASIZE PUSH1 0x3 NOT ADD SLT PUSH2 0x481 JUMPI PUSH2 0x10F0 PUSH2 0x10A5 CALLDATASIZE PUSH2 0x19B9 JUMP JUMPDEST PUSH1 0x40 MLOAD SWAP1 PUSH2 0x10B4 PUSH1 0xA0 DUP4 PUSH2 0x1997 JUMP JUMPDEST PUSH1 0x4 DUP3 MSTORE PUSH1 0x80 CALLDATASIZE PUSH1 0x20 DUP5 ADD CALLDATACOPY PUSH2 0x26AC PUSH2 0x10CC DUP4 PUSH2 0x1A4E JUMP JUMPDEST MSTORE PUSH1 0x28 PUSH2 0x10D8 DUP4 PUSH2 0x1A7F JUMP JUMPDEST MSTORE PUSH1 0x1E PUSH2 0x10E4 DUP4 PUSH2 0x1AD1 JUMP JUMPDEST MSTORE PUSH1 0x1E PUSH2 0x26D DUP4 PUSH2 0x1AB0 JUMP JUMPDEST PUSH1 0x4 DUP2 LT ISZERO PUSH2 0x2C2 JUMPI PUSH1 0x20 SWAP1 PUSH1 0x40 MLOAD SWAP1 DUP2 MSTORE RETURN JUMPDEST CALLVALUE PUSH2 0x481 JUMPI PUSH2 0x111B PUSH2 0x1115 CALLDATASIZE PUSH2 0x19EB JUMP JUMPDEST SWAP1 PUSH2 0x3E7E JUMP JUMPDEST PUSH1 0x40 MLOAD PUSH1 0x6A DUP3 LT ISZERO PUSH2 0x2C2 JUMPI PUSH1 0x20 SWAP2 DUP2 MSTORE RETURN JUMPDEST CALLVALUE PUSH2 0x481 JUMPI PUSH1 0x40 CALLDATASIZE PUSH1 0x3 NOT ADD SLT PUSH2 0x481 JUMPI PUSH2 0x1775 PUSH2 0x114B CALLDATASIZE PUSH2 0x19B9 JUMP JUMPDEST PUSH1 0x40 MLOAD SWAP1 PUSH2 0x1020 PUSH2 0x115C DUP2 DUP5 PUSH2 0x1997 JUMP JUMPDEST PUSH1 0x80 DUP4 MSTORE PUSH1 0x1F NOT ADD CALLDATASIZE PUSH1 0x20 DUP5 ADD CALLDATACOPY PUSH2 0x3E8 PUSH2 0x1176 DUP4 PUSH2 0x1A4E JUMP JUMPDEST MSTORE PUSH2 0x274 PUSH2 0x1183 DUP4 PUSH2 0x1BDF JUMP JUMPDEST MSTORE PUSH1 0x40 PUSH2 0x118F DUP4 PUSH2 0x1BF0 JUMP JUMPDEST MSTORE PUSH1 0x40 PUSH2 0x119B DUP4 PUSH2 0x1C01 JUMP JUMPDEST MSTORE PUSH1 0x40 PUSH2 0x11A7 DUP4 PUSH2 0x1C12 JUMP JUMPDEST MSTORE PUSH1 0x40 PUSH2 0x11B3 DUP4 PUSH2 0x1C23 JUMP JUMPDEST MSTORE PUSH1 0x40 PUSH2 0x11BF DUP4 PUSH2 0x1C34 JUMP JUMPDEST MSTORE PUSH1 0x40 PUSH2 0x11CB DUP4 PUSH2 0x1C45 JUMP JUMPDEST MSTORE PUSH1 0x40 PUSH2 0x11D7 DUP4 PUSH2 0x1C56 JUMP JUMPDEST MSTORE PUSH1 0x40 PUSH2 0x11E3 DUP4 PUSH2 0x1C67 JUMP JUMPDEST MSTORE PUSH1 0x40 PUSH2 0x11EF DUP4 PUSH2 0x1C78 JUMP JUMPDEST MSTORE PUSH1 0x40 PUSH2 0x11FB DUP4 PUSH2 0x1C89 JUMP JUMPDEST MSTORE PUSH1 0x40 PUSH2 0x1207 DUP4 PUSH2 0x1C9A JUMP JUMPDEST MSTORE PUSH1 0x40 PUSH2 0x1213 DUP4 PUSH2 0x1CAB JUMP JUMPDEST MSTORE PUSH1 0x40 PUSH2 0x121F DUP4 PUSH2 0x1CBC JUMP JUMPDEST MSTORE PUSH1 0x40 PUSH2 0x122B DUP4 PUSH2 0x1CCD JUMP JUMPDEST MSTORE PUSH1 0x40 PUSH2 0x1237 DUP4 PUSH2 0x1CDE JUMP JUMPDEST MSTORE PUSH1 0x40 PUSH2 0x1243 DUP4 PUSH2 0x1CEF JUMP JUMPDEST MSTORE PUSH1 0x40 PUSH2 0x124F DUP4 PUSH2 0x1D00 JUMP JUMPDEST MSTORE PUSH1 0x40 PUSH2 0x125B DUP4 PUSH2 0x1D11 JUMP JUMPDEST MSTORE PUSH2 0x23A PUSH2 0x1268 DUP4 PUSH2 0x1D22 JUMP JUMPDEST MSTORE PUSH2 0x230 PUSH2 0x1275 DUP4 PUSH2 0x1D33 JUMP JUMPDEST MSTORE PUSH1 0x32 PUSH2 0x1281 DUP4 PUSH2 0x1D44 JUMP JUMPDEST MSTORE PUSH1 0x32 PUSH2 0x128D DUP4 PUSH2 0x1D55 JUMP JUMPDEST MSTORE PUSH1 0x32 PUSH2 0x1299 DUP4 PUSH2 0x1D66 JUMP JUMPDEST MSTORE PUSH1 0x32 PUSH2 0x12A5 DUP4 PUSH2 0x1D77 JUMP JUMPDEST MSTORE PUSH1 0x32 PUSH2 0x12B1 DUP4 PUSH2 0x1D88 JUMP JUMPDEST MSTORE PUSH1 0x32 PUSH2 0x12BD DUP4 PUSH2 0x1D99 JUMP JUMPDEST MSTORE PUSH1 0x32 PUSH2 0x12C9 DUP4 PUSH2 0x1DAA JUMP JUMPDEST MSTORE PUSH1 0x32 PUSH2 0x12D5 DUP4 PUSH2 0x1DBB JUMP JUMPDEST MSTORE PUSH1 0x32 PUSH2 0x12E1 DUP4 PUSH2 0x1DCC JUMP JUMPDEST MSTORE PUSH1 0x32 PUSH2 0x12ED DUP4 PUSH2 0x1DDD JUMP JUMPDEST MSTORE PUSH1 0x32 PUSH2 0x12F9 DUP4 PUSH2 0x1DEE JUMP JUMPDEST MSTORE PUSH2 0x21C PUSH2 0x1306 DUP4 PUSH2 0x1DFF JUMP JUMPDEST MSTORE PUSH1 0x2E PUSH2 0x1312 DUP4 PUSH2 0x1AF1 JUMP JUMPDEST MSTORE PUSH1 0x2E PUSH2 0x131E DUP4 PUSH2 0x1B9B JUMP JUMPDEST MSTORE PUSH1 0x2E PUSH2 0x132A DUP4 PUSH2 0x1BAC JUMP JUMPDEST MSTORE PUSH1 0x2E PUSH2 0x1336 DUP4 PUSH2 0x1B02 JUMP JUMPDEST MSTORE PUSH1 0x2E PUSH2 0x1342 DUP4 PUSH2 0x1B46 JUMP JUMPDEST MSTORE PUSH1 0x2E PUSH2 0x134E DUP4 PUSH2 0x1B13 JUMP JUMPDEST MSTORE PUSH1 0x2E PUSH2 0x135A DUP4 PUSH2 0x1B24 JUMP JUMPDEST MSTORE PUSH1 0x2E PUSH2 0x1366 DUP4 PUSH2 0x1B57 JUMP JUMPDEST MSTORE PUSH1 0x2E PUSH2 0x1372 DUP4 PUSH2 0x1E10 JUMP JUMPDEST MSTORE PUSH1 0x2E PUSH2 0x137E DUP4 PUSH2 0x1E21 JUMP JUMPDEST MSTORE PUSH1 0x2E PUSH2 0x138A DUP4 PUSH2 0x1E32 JUMP JUMPDEST MSTORE PUSH2 0x1DB PUSH2 0x1397 DUP4 PUSH2 0x1A7F JUMP JUMPDEST MSTORE PUSH2 0x1DB PUSH2 0x13A4 DUP4 PUSH2 0x1E43 JUMP JUMPDEST MSTORE PUSH2 0x1A9 PUSH2 0x13B1 DUP4 PUSH2 0x1E54 JUMP JUMPDEST MSTORE PUSH2 0x190 PUSH2 0x13BE DUP4 PUSH2 0x1E65 JUMP JUMPDEST MSTORE PUSH1 0x3E PUSH2 0x13CA DUP4 PUSH2 0x1E76 JUMP JUMPDEST MSTORE PUSH1 0x3E PUSH2 0x13D6 DUP4 PUSH2 0x1E87 JUMP JUMPDEST MSTORE PUSH1 0x3E PUSH2 0x13E2 DUP4 PUSH2 0x1E98 JUMP JUMPDEST MSTORE PUSH1 0x3E PUSH2 0x13EE DUP4 PUSH2 0x1EA9 JUMP JUMPDEST MSTORE PUSH1 0x3E PUSH2 0x13FA DUP4 PUSH2 0x1EBA JUMP JUMPDEST MSTORE PUSH1 0x3E PUSH2 0x1406 DUP4 PUSH2 0x1ECB JUMP JUMPDEST MSTORE PUSH2 0x15B PUSH2 0x1413 DUP4 PUSH2 0x1EDC JUMP JUMPDEST MSTORE PUSH2 0x13D PUSH2 0x1420 DUP4 PUSH2 0x1EED JUMP JUMPDEST MSTORE PUSH2 0x118 PUSH2 0x142D DUP4 PUSH2 0x1EFE JUMP JUMPDEST MSTORE PUSH1 0x7D PUSH2 0x1439 DUP4 PUSH2 0x1F0F JUMP JUMPDEST MSTORE PUSH1 0x7D PUSH2 0x1445 DUP4 PUSH2 0x1F20 JUMP JUMPDEST MSTORE PUSH1 0xE1 PUSH2 0x1451 DUP4 PUSH2 0x1F31 JUMP JUMPDEST MSTORE PUSH1 0x1C PUSH2 0x145D DUP4 PUSH2 0x1F42 JUMP JUMPDEST MSTORE PUSH1 0x1C PUSH2 0x1469 DUP4 PUSH2 0x1F53 JUMP JUMPDEST MSTORE PUSH1 0x1C PUSH2 0x1475 DUP4 PUSH2 0x1F64 JUMP JUMPDEST MSTORE PUSH1 0x1C PUSH2 0x1481 DUP4 PUSH2 0x1F75 JUMP JUMPDEST MSTORE PUSH1 0x1C PUSH2 0x148D DUP4 PUSH2 0x1F86 JUMP JUMPDEST MSTORE PUSH1 0x1C PUSH2 0x1499 DUP4 PUSH2 0x1F97 JUMP JUMPDEST MSTORE PUSH1 0x1C PUSH2 0x14A5 DUP4 PUSH2 0x1FA8 JUMP JUMPDEST MSTORE PUSH1 0x14 PUSH2 0x14B1 DUP4 PUSH2 0x1FB9 JUMP JUMPDEST MSTORE PUSH1 0x14 PUSH2 0x14BD DUP4 PUSH2 0x1FCA JUMP JUMPDEST MSTORE PUSH1 0x14 PUSH2 0x14C9 DUP4 PUSH2 0x1FDB JUMP JUMPDEST MSTORE PUSH1 0x14 PUSH2 0x14D5 DUP4 PUSH2 0x1FEC JUMP JUMPDEST MSTORE PUSH1 0x14 PUSH2 0x14E1 DUP4 PUSH2 0x1FFD JUMP JUMPDEST MSTORE PUSH1 0x14 PUSH2 0x14ED DUP4 PUSH2 0x200E JUMP JUMPDEST MSTORE PUSH1 0x14 PUSH2 0x14F9 DUP4 PUSH2 0x201F JUMP JUMPDEST MSTORE PUSH1 0x14 PUSH2 0x1505 DUP4 PUSH2 0x2030 JUMP JUMPDEST MSTORE PUSH1 0x21 PUSH2 0x1511 DUP4 PUSH2 0x2041 JUMP JUMPDEST MSTORE PUSH1 0x21 PUSH2 0x151D DUP4 PUSH2 0x2052 JUMP JUMPDEST MSTORE PUSH1 0x21 PUSH2 0x1529 DUP4 PUSH2 0x2063 JUMP JUMPDEST MSTORE PUSH1 0x21 PUSH2 0x1535 DUP4 PUSH2 0x2074 JUMP JUMPDEST MSTORE PUSH1 0x16 PUSH2 0x1541 DUP4 PUSH2 0x1AD1 JUMP JUMPDEST MSTORE PUSH1 0x16 PUSH2 0x154D DUP4 PUSH2 0x1AB0 JUMP JUMPDEST MSTORE PUSH1 0x16 PUSH2 0x1559 DUP4 PUSH2 0x1A8F JUMP JUMPDEST MSTORE PUSH1 0x16 PUSH2 0x1565 DUP4 PUSH2 0x1A6F JUMP JUMPDEST MSTORE PUSH1 0x16 PUSH2 0x1571 DUP4 PUSH2 0x1AE1 JUMP JUMPDEST MSTORE PUSH1 0xA PUSH2 0x157D DUP4 PUSH2 0x1AC0 JUMP JUMPDEST MSTORE PUSH1 0xA PUSH2 0x1589 DUP4 PUSH2 0x1A9F JUMP JUMPDEST MSTORE PUSH1 0xA PUSH2 0x1595 DUP4 PUSH2 0x1B68 JUMP JUMPDEST MSTORE PUSH1 0xA PUSH2 0x15A1 DUP4 PUSH2 0x1B79 JUMP JUMPDEST MSTORE PUSH1 0xA PUSH2 0x15AD DUP4 PUSH2 0x1B8A JUMP JUMPDEST MSTORE PUSH1 0xA PUSH2 0x15B9 DUP4 PUSH2 0x1B35 JUMP JUMPDEST MSTORE PUSH1 0xA PUSH2 0x15C5 DUP4 PUSH2 0x1BBD JUMP JUMPDEST MSTORE PUSH1 0xA PUSH2 0x15D1 DUP4 PUSH2 0x1BCE JUMP JUMPDEST MSTORE PUSH1 0x45 PUSH2 0x15DD DUP4 PUSH2 0x2085 JUMP JUMPDEST MSTORE PUSH1 0x5 PUSH2 0x15E9 DUP4 PUSH2 0x2096 JUMP JUMPDEST MSTORE PUSH1 0x5 PUSH2 0x15F5 DUP4 PUSH2 0x20A7 JUMP JUMPDEST MSTORE PUSH1 0x5 PUSH2 0x1601 DUP4 PUSH2 0x20B8 JUMP JUMPDEST MSTORE PUSH1 0x5 PUSH2 0x160D DUP4 PUSH2 0x20C9 JUMP JUMPDEST MSTORE PUSH1 0x5 PUSH2 0x1619 DUP4 PUSH2 0x20DA JUMP JUMPDEST MSTORE PUSH1 0x5 PUSH2 0x1625 DUP4 PUSH2 0x20EB JUMP JUMPDEST MSTORE PUSH1 0x5 PUSH2 0x1631 DUP4 PUSH2 0x20FC JUMP JUMPDEST MSTORE PUSH1 0x5 PUSH2 0x163D DUP4 PUSH2 0x210D JUMP JUMPDEST MSTORE PUSH1 0x5 PUSH2 0x1649 DUP4 PUSH2 0x211E JUMP JUMPDEST MSTORE PUSH1 0x5 PUSH2 0x1655 DUP4 PUSH2 0x212F JUMP JUMPDEST MSTORE PUSH1 0x5 PUSH2 0x1661 DUP4 PUSH2 0x2140 JUMP JUMPDEST MSTORE PUSH1 0x5 PUSH2 0x166D DUP4 PUSH2 0x2151 JUMP JUMPDEST MSTORE PUSH1 0x5 PUSH2 0x1679 DUP4 PUSH2 0x2162 JUMP JUMPDEST MSTORE PUSH1 0x5 PUSH2 0x1685 DUP4 PUSH2 0x2173 JUMP JUMPDEST MSTORE PUSH1 0x5 PUSH2 0x1691 DUP4 PUSH2 0x2184 JUMP JUMPDEST MSTORE PUSH1 0x5 PUSH2 0x169D DUP4 PUSH2 0x2195 JUMP JUMPDEST MSTORE PUSH1 0x5 PUSH2 0x16A9 DUP4 PUSH2 0x21A6 JUMP JUMPDEST MSTORE PUSH1 0x9 PUSH2 0x16B5 DUP4 PUSH2 0x21B7 JUMP JUMPDEST MSTORE PUSH1 0x9 PUSH2 0x16C1 DUP4 PUSH2 0x21C8 JUMP JUMPDEST MSTORE PUSH1 0x9 PUSH2 0x16CD DUP4 PUSH2 0x21D9 JUMP JUMPDEST MSTORE PUSH1 0x9 PUSH2 0x16D9 DUP4 PUSH2 0x21EA JUMP JUMPDEST MSTORE PUSH1 0x3 PUSH2 0x16E5 DUP4 PUSH2 0x21FB JUMP JUMPDEST MSTORE PUSH1 0x3 PUSH2 0x16F1 DUP4 PUSH2 0x220C JUMP JUMPDEST MSTORE PUSH1 0x3 PUSH2 0x16FD DUP4 PUSH2 0x221D JUMP JUMPDEST MSTORE PUSH1 0x3 PUSH2 0x1709 DUP4 PUSH2 0x222E JUMP JUMPDEST MSTORE PUSH1 0x3 PUSH2 0x1715 DUP4 PUSH2 0x223F JUMP JUMPDEST MSTORE PUSH1 0x3 PUSH2 0x1721 DUP4 PUSH2 0x2250 JUMP JUMPDEST MSTORE PUSH1 0x3 PUSH2 0x172D DUP4 PUSH2 0x2261 JUMP JUMPDEST MSTORE PUSH1 0x3 PUSH2 0x1739 DUP4 PUSH2 0x2272 JUMP JUMPDEST MSTORE PUSH1 0x3 PUSH2 0x1745 DUP4 PUSH2 0x2283 JUMP JUMPDEST MSTORE PUSH1 0x17 PUSH2 0x1751 DUP4 PUSH2 0x2294 JUMP JUMPDEST MSTORE PUSH1 0x4 PUSH2 0x175D DUP4 PUSH2 0x22A5 JUMP JUMPDEST MSTORE PUSH1 0x3 PUSH2 0x1769 DUP4 PUSH2 0x22B6 JUMP JUMPDEST MSTORE PUSH1 0x3 PUSH2 0x26D DUP4 PUSH2 0x22C7 JUMP JUMPDEST PUSH1 0x80 DUP2 LT ISZERO PUSH2 0x2C2 JUMPI PUSH1 0x20 SWAP1 PUSH1 0x40 MLOAD SWAP1 DUP2 MSTORE RETURN JUMPDEST CALLVALUE PUSH2 0x481 JUMPI PUSH2 0x17A0 PUSH2 0x179A CALLDATASIZE PUSH2 0x19EB JUMP JUMPDEST SWAP1 PUSH2 0x394A JUMP JUMPDEST PUSH1 0x40 MLOAD PUSH1 0x58 DUP3 LT ISZERO PUSH2 0x2C2 JUMPI PUSH1 0x20 SWAP2 DUP2 MSTORE RETURN JUMPDEST CALLVALUE PUSH2 0x481 JUMPI PUSH1 0x20 PUSH2 0x273 PUSH2 0x17C6 CALLDATASIZE PUSH2 0x19EB JUMP JUMPDEST PUSH2 0x17F7 PUSH2 0x17F2 PUSH2 0x300 SWAP4 PUSH1 0x40 MLOAD SWAP5 PUSH2 0x17DE DUP2 DUP8 PUSH2 0x1997 JUMP JUMPDEST PUSH1 0x17 DUP7 MSTORE PUSH1 0x1F NOT ADD CALLDATASIZE DUP9 DUP8 ADD CALLDATACOPY CALLDATASIZE SWAP1 PUSH2 0x25C2 JUMP JUMPDEST PUSH2 0x450E JUMP JUMPDEST ISZERO PUSH2 0x1815 JUMPI PUSH2 0x1388 PUSH2 0x1808 DUP4 PUSH2 0x1BBD JUMP JUMPDEST MSTORE PUSH2 0x1388 PUSH2 0x26D DUP4 PUSH2 0x1BCE JUMP JUMPDEST PUSH0 PUSH2 0x181F DUP4 PUSH2 0x1A4E JUMP JUMPDEST MSTORE PUSH2 0x101D PUSH2 0x182C DUP4 PUSH2 0x1AF1 JUMP JUMPDEST MSTORE PUSH2 0x101D PUSH2 0x1839 DUP4 PUSH2 0x1B02 JUMP JUMPDEST MSTORE PUSH2 0x1F4 PUSH2 0x1846 DUP4 PUSH2 0x1B13 JUMP JUMPDEST MSTORE PUSH2 0x1F4 PUSH2 0x1853 DUP4 PUSH2 0x1B24 JUMP JUMPDEST MSTORE PUSH1 0xFA PUSH2 0x185F DUP4 PUSH2 0x1B35 JUMP JUMPDEST MSTORE PUSH1 0x7D PUSH2 0x186B DUP4 PUSH2 0x1B46 JUMP JUMPDEST MSTORE PUSH1 0x64 PUSH2 0x1877 DUP4 PUSH2 0x1AD1 JUMP JUMPDEST MSTORE PUSH1 0x4C PUSH2 0x1883 DUP4 PUSH2 0x1B57 JUMP JUMPDEST MSTORE PUSH1 0x32 PUSH2 0x188F DUP4 PUSH2 0x1A7F JUMP JUMPDEST MSTORE PUSH1 0xB PUSH2 0x189B DUP4 PUSH2 0x1AB0 JUMP JUMPDEST MSTORE PUSH1 0xB PUSH2 0x18A7 DUP4 PUSH2 0x1A8F JUMP JUMPDEST MSTORE PUSH1 0xB PUSH2 0x18B3 DUP4 PUSH2 0x1A6F JUMP JUMPDEST MSTORE PUSH1 0xB PUSH2 0x18BF DUP4 PUSH2 0x1AE1 JUMP JUMPDEST MSTORE PUSH1 0xB PUSH2 0x18CB DUP4 PUSH2 0x1AC0 JUMP JUMPDEST MSTORE PUSH1 0xB PUSH2 0x18D7 DUP4 PUSH2 0x1A9F JUMP JUMPDEST MSTORE PUSH1 0xB PUSH2 0x18E3 DUP4 PUSH2 0x1B68 JUMP JUMPDEST MSTORE PUSH1 0xB PUSH2 0x18EF DUP4 PUSH2 0x1B79 JUMP JUMPDEST MSTORE PUSH1 0xB PUSH2 0x18FB DUP4 PUSH2 0x1B8A JUMP JUMPDEST MSTORE PUSH1 0x19 PUSH2 0x1907 DUP4 PUSH2 0x1B9B JUMP JUMPDEST MSTORE PUSH1 0x19 PUSH2 0x26D DUP4 PUSH2 0x1BAC JUMP JUMPDEST CALLVALUE PUSH2 0x481 JUMPI PUSH2 0x192A PUSH2 0x1924 CALLDATASIZE PUSH2 0x19EB JUMP JUMPDEST SWAP1 PUSH2 0x2D81 JUMP JUMPDEST PUSH1 0x40 MLOAD PUSH1 0xD4 DUP3 LT ISZERO PUSH2 0x2C2 JUMPI PUSH1 0x20 SWAP2 DUP2 MSTORE RETURN JUMPDEST CALLVALUE PUSH2 0x481 JUMPI PUSH2 0x1954 PUSH2 0x194E CALLDATASIZE PUSH2 0x19EB JUMP JUMPDEST SWAP1 PUSH2 0x297E JUMP JUMPDEST PUSH1 0x40 MLOAD PUSH1 0x14 DUP3 LT ISZERO PUSH2 0x2C2 JUMPI PUSH1 0x20 SWAP2 DUP2 MSTORE RETURN JUMPDEST PUSH1 0x40 DUP2 ADD SWAP1 DUP2 LT PUSH8 0xFFFFFFFFFFFFFFFF DUP3 GT OR PUSH2 0x1983 JUMPI PUSH1 0x40 MSTORE JUMP JUMPDEST PUSH4 0x4E487B71 PUSH1 0xE0 SHL PUSH0 MSTORE PUSH1 0x41 PUSH1 0x4 MSTORE PUSH1 0x24 PUSH0 REVERT JUMPDEST SWAP1 PUSH1 0x1F DUP1 NOT SWAP2 ADD AND DUP2 ADD SWAP1 DUP2 LT PUSH8 0xFFFFFFFFFFFFFFFF DUP3 GT OR PUSH2 0x1983 JUMPI PUSH1 0x40 MSTORE JUMP JUMPDEST PUSH1 0x40 SWAP1 PUSH1 0x3 NOT ADD SLT PUSH2 0x481 JUMPI PUSH1 0x40 MLOAD SWAP1 PUSH2 0x19D2 DUP3 PUSH2 0x1967 JUMP JUMPDEST PUSH1 0x4 CALLDATALOAD DUP3 MSTORE PUSH1 0x24 CALLDATALOAD PUSH1 0x20 DUP4 ADD MSTORE JUMP JUMPDEST PUSH1 0x9 GT ISZERO PUSH2 0x2C2 JUMPI JUMP JUMPDEST SWAP1 PUSH1 0x60 PUSH1 0x3 NOT DUP4 ADD SLT PUSH2 0x481 JUMPI PUSH1 0x4 CALLDATALOAD PUSH8 0xFFFFFFFFFFFFFFFF DUP2 GT PUSH2 0x481 JUMPI PUSH2 0x400 DUP2 DUP5 SUB PUSH1 0x3 NOT ADD SLT PUSH2 0x481 JUMPI PUSH1 0x24 PUSH1 0x40 SWAP2 PUSH1 0x4 ADD SWAP4 SUB SLT PUSH2 0x481 JUMPI PUSH1 0x40 MLOAD PUSH2 0x1A34 DUP2 PUSH2 0x1967 JUMP JUMPDEST PUSH1 0x24 CALLDATALOAD DUP2 MSTORE PUSH1 0x44 CALLDATALOAD PUSH1 0x20 DUP3 ADD MSTORE SWAP1 JUMP JUMPDEST PUSH1 0x17 GT ISZERO PUSH2 0x2C2 JUMPI JUMP JUMPDEST DUP1 MLOAD ISZERO PUSH2 0x1A5B JUMPI PUSH1 0x20 ADD SWAP1 JUMP JUMPDEST PUSH4 0x4E487B71 PUSH1 0xE0 SHL PUSH0 MSTORE PUSH1 0x32 PUSH1 0x4 MSTORE PUSH1 0x24 PUSH0 REVERT JUMPDEST DUP1 MLOAD PUSH1 0x5 LT ISZERO PUSH2 0x1A5B JUMPI PUSH1 0xC0 ADD SWAP1 JUMP JUMPDEST DUP1 MLOAD PUSH1 0x1 LT ISZERO PUSH2 0x1A5B JUMPI PUSH1 0x40 ADD SWAP1 JUMP JUMPDEST DUP1 MLOAD PUSH1 0x4 LT ISZERO PUSH2 0x1A5B JUMPI PUSH1 0xA0 ADD SWAP1 JUMP JUMPDEST DUP1 MLOAD PUSH1 0x8 LT ISZERO PUSH2 0x1A5B JUMPI PUSH2 0x120 ADD SWAP1 JUMP JUMPDEST DUP1 MLOAD PUSH1 0x3 LT ISZERO PUSH2 0x1A5B JUMPI PUSH1 0x80 ADD SWAP1 JUMP JUMPDEST DUP1 MLOAD PUSH1 0x7 LT ISZERO PUSH2 0x1A5B JUMPI PUSH2 0x100 ADD SWAP1 JUMP JUMPDEST DUP1 MLOAD PUSH1 0x2 LT ISZERO PUSH2 0x1A5B JUMPI PUSH1 0x60 ADD SWAP1 JUMP JUMPDEST DUP1 MLOAD PUSH1 0x6 LT ISZERO PUSH2 0x1A5B JUMPI PUSH1 0xE0 ADD SWAP1 JUMP JUMPDEST DUP1 MLOAD PUSH1 0xF LT ISZERO PUSH2 0x1A5B JUMPI PUSH2 0x200 ADD SWAP1 JUMP JUMPDEST DUP1 MLOAD PUSH1 0x12 LT ISZERO PUSH2 0x1A5B JUMPI PUSH2 0x260 ADD SWAP1 JUMP JUMPDEST DUP1 MLOAD PUSH1 0x14 LT ISZERO PUSH2 0x1A5B JUMPI PUSH2 0x2A0 ADD SWAP1 JUMP JUMPDEST DUP1 MLOAD PUSH1 0x15 LT ISZERO PUSH2 0x1A5B JUMPI PUSH2 0x2C0 ADD SWAP1 JUMP JUMPDEST DUP1 MLOAD PUSH1 0xC LT ISZERO PUSH2 0x1A5B JUMPI PUSH2 0x1A0 ADD SWAP1 JUMP JUMPDEST DUP1 MLOAD PUSH1 0x13 LT ISZERO PUSH2 0x1A5B JUMPI PUSH2 0x280 ADD SWAP1 JUMP JUMPDEST DUP1 MLOAD PUSH1 0x16 LT ISZERO PUSH2 0x1A5B JUMPI PUSH2 0x2E0 ADD SWAP1 JUMP JUMPDEST DUP1 MLOAD PUSH1 0x9 LT ISZERO PUSH2 0x1A5B JUMPI PUSH2 0x140 ADD SWAP1 JUMP JUMPDEST DUP1 MLOAD PUSH1 0xA LT ISZERO PUSH2 0x1A5B JUMPI PUSH2 0x160 ADD SWAP1 JUMP JUMPDEST DUP1 MLOAD PUSH1 0xB LT ISZERO PUSH2 0x1A5B JUMPI PUSH2 0x180 ADD SWAP1 JUMP JUMPDEST DUP1 MLOAD PUSH1 0x10 LT ISZERO PUSH2 0x1A5B JUMPI PUSH2 0x220 ADD SWAP1 JUMP JUMPDEST DUP1 MLOAD PUSH1 0x11 LT ISZERO PUSH2 0x1A5B JUMPI PUSH2 0x240 ADD SWAP1 JUMP JUMPDEST DUP1 MLOAD PUSH1 0xD LT ISZERO PUSH2 0x1A5B JUMPI PUSH2 0x1C0 ADD SWAP1 JUMP JUMPDEST DUP1 MLOAD PUSH1 0xE LT ISZERO PUSH2 0x1A5B JUMPI PUSH2 0x1E0 ADD SWAP1 JUMP JUMPDEST DUP1 MLOAD PUSH1 0x53 LT ISZERO PUSH2 0x1A5B JUMPI PUSH2 0xA80 ADD SWAP1 JUMP JUMPDEST DUP1 MLOAD PUSH1 0x71 LT ISZERO PUSH2 0x1A5B JUMPI PUSH2 0xE40 ADD SWAP1 JUMP JUMPDEST DUP1 MLOAD PUSH1 0x69 LT ISZERO PUSH2 0x1A5B JUMPI PUSH2 0xD40 ADD SWAP1 JUMP JUMPDEST DUP1 MLOAD PUSH1 0x6A LT ISZERO PUSH2 0x1A5B JUMPI PUSH2 0xD60 ADD SWAP1 JUMP JUMPDEST DUP1 MLOAD PUSH1 0x6B LT ISZERO PUSH2 0x1A5B JUMPI PUSH2 0xD80 ADD SWAP1 JUMP JUMPDEST DUP1 MLOAD PUSH1 0x6C LT ISZERO PUSH2 0x1A5B JUMPI PUSH2 0xDA0 ADD SWAP1 JUMP JUMPDEST DUP1 MLOAD PUSH1 0x6D LT ISZERO PUSH2 0x1A5B JUMPI PUSH2 0xDC0 ADD SWAP1 JUMP JUMPDEST DUP1 MLOAD PUSH1 0x6E LT ISZERO PUSH2 0x1A5B JUMPI PUSH2 0xDE0 ADD SWAP1 JUMP JUMPDEST DUP1 MLOAD PUSH1 0x6F LT ISZERO PUSH2 0x1A5B JUMPI PUSH2 0xE00 ADD SWAP1 JUMP JUMPDEST DUP1 MLOAD PUSH1 0x70 LT ISZERO PUSH2 0x1A5B JUMPI PUSH2 0xE20 ADD SWAP1 JUMP JUMPDEST DUP1 MLOAD PUSH1 0x2B LT ISZERO PUSH2 0x1A5B JUMPI PUSH2 0x580 ADD SWAP1 JUMP JUMPDEST DUP1 MLOAD PUSH1 0x23 LT ISZERO PUSH2 0x1A5B JUMPI PUSH2 0x480 ADD SWAP1 JUMP JUMPDEST DUP1 MLOAD PUSH1 0x24 LT ISZERO PUSH2 0x1A5B JUMPI PUSH2 0x4A0 ADD SWAP1 JUMP JUMPDEST DUP1 MLOAD PUSH1 0x25 LT ISZERO PUSH2 0x1A5B JUMPI PUSH2 0x4C0 ADD SWAP1 JUMP JUMPDEST DUP1 MLOAD PUSH1 0x26 LT ISZERO PUSH2 0x1A5B JUMPI PUSH2 0x4E0 ADD SWAP1 JUMP JUMPDEST DUP1 MLOAD PUSH1 0x27 LT ISZERO PUSH2 0x1A5B JUMPI PUSH2 0x500 ADD SWAP1 JUMP JUMPDEST DUP1 MLOAD PUSH1 0x28 LT ISZERO PUSH2 0x1A5B JUMPI PUSH2 0x520 ADD SWAP1 JUMP JUMPDEST DUP1 MLOAD PUSH1 0x29 LT ISZERO PUSH2 0x1A5B JUMPI PUSH2 0x540 ADD SWAP1 JUMP JUMPDEST DUP1 MLOAD PUSH1 0x2A LT ISZERO PUSH2 0x1A5B JUMPI PUSH2 0x560 ADD SWAP1 JUMP JUMPDEST DUP1 MLOAD PUSH1 0x3E LT ISZERO PUSH2 0x1A5B JUMPI PUSH2 0x7E0 ADD SWAP1 JUMP JUMPDEST DUP1 MLOAD PUSH1 0x4C LT ISZERO PUSH2 0x1A5B JUMPI PUSH2 0x9A0 ADD SWAP1 JUMP JUMPDEST DUP1 MLOAD PUSH1 0x5E LT ISZERO PUSH2 0x1A5B JUMPI PUSH2 0xBE0 ADD SWAP1 JUMP JUMPDEST DUP1 MLOAD PUSH1 0x5F LT ISZERO PUSH2 0x1A5B JUMPI PUSH2 0xC00 ADD SWAP1 JUMP JUMPDEST DUP1 MLOAD PUSH1 0x60 LT ISZERO PUSH2 0x1A5B JUMPI PUSH2 0xC20 ADD SWAP1 JUMP JUMPDEST DUP1 MLOAD PUSH1 0x61 LT ISZERO PUSH2 0x1A5B JUMPI PUSH2 0xC40 ADD SWAP1 JUMP JUMPDEST DUP1 MLOAD PUSH1 0x62 LT ISZERO PUSH2 0x1A5B JUMPI PUSH2 0xC60 ADD SWAP1 JUMP JUMPDEST DUP1 MLOAD PUSH1 0x63 LT ISZERO PUSH2 0x1A5B JUMPI PUSH2 0xC80 ADD SWAP1 JUMP JUMPDEST DUP1 MLOAD PUSH1 0x64 LT ISZERO PUSH2 0x1A5B JUMPI PUSH2 0xCA0 ADD SWAP1 JUMP JUMPDEST DUP1 MLOAD PUSH1 0x65 LT ISZERO PUSH2 0x1A5B JUMPI PUSH2 0xCC0 ADD SWAP1 JUMP JUMPDEST DUP1 MLOAD PUSH1 0x66 LT ISZERO PUSH2 0x1A5B JUMPI PUSH2 0xCE0 ADD SWAP1 JUMP JUMPDEST DUP1 MLOAD PUSH1 0x67 LT ISZERO PUSH2 0x1A5B JUMPI PUSH2 0xD00 ADD SWAP1 JUMP JUMPDEST DUP1 MLOAD PUSH1 0x68 LT ISZERO PUSH2 0x1A5B JUMPI PUSH2 0xD20 ADD SWAP1 JUMP JUMPDEST DUP1 MLOAD PUSH1 0x2E LT ISZERO PUSH2 0x1A5B JUMPI PUSH2 0x5E0 ADD SWAP1 JUMP JUMPDEST DUP1 MLOAD PUSH1 0x17 LT ISZERO PUSH2 0x1A5B JUMPI PUSH2 0x300 ADD SWAP1 JUMP JUMPDEST DUP1 MLOAD PUSH1 0x18 LT ISZERO PUSH2 0x1A5B JUMPI PUSH2 0x320 ADD SWAP1 JUMP JUMPDEST DUP1 MLOAD PUSH1 0x19 LT ISZERO PUSH2 0x1A5B JUMPI PUSH2 0x340 ADD SWAP1 JUMP JUMPDEST DUP1 MLOAD PUSH1 0x22 LT ISZERO PUSH2 0x1A5B JUMPI PUSH2 0x460 ADD SWAP1 JUMP JUMPDEST DUP1 MLOAD PUSH1 0x54 LT ISZERO PUSH2 0x1A5B JUMPI PUSH2 0xAA0 ADD SWAP1 JUMP JUMPDEST DUP1 MLOAD PUSH1 0x37 LT ISZERO PUSH2 0x1A5B JUMPI PUSH2 0x700 ADD SWAP1 JUMP JUMPDEST DUP1 MLOAD PUSH1 0x38 LT ISZERO PUSH2 0x1A5B JUMPI PUSH2 0x720 ADD SWAP1 JUMP JUMPDEST DUP1 MLOAD PUSH1 0x39 LT ISZERO PUSH2 0x1A5B JUMPI PUSH2 0x740 ADD SWAP1 JUMP JUMPDEST DUP1 MLOAD PUSH1 0x3A LT ISZERO PUSH2 0x1A5B JUMPI PUSH2 0x760 ADD SWAP1 JUMP JUMPDEST DUP1 MLOAD PUSH1 0x3B LT ISZERO PUSH2 0x1A5B JUMPI PUSH2 0x780 ADD SWAP1 JUMP JUMPDEST DUP1 MLOAD PUSH1 0x3C LT ISZERO PUSH2 0x1A5B JUMPI PUSH2 0x7A0 ADD SWAP1 JUMP JUMPDEST DUP1 MLOAD PUSH1 0x3D LT ISZERO PUSH2 0x1A5B JUMPI PUSH2 0x7C0 ADD SWAP1 JUMP JUMPDEST DUP1 MLOAD PUSH1 0x72 LT ISZERO PUSH2 0x1A5B JUMPI PUSH2 0xE60 ADD SWAP1 JUMP JUMPDEST DUP1 MLOAD PUSH1 0x2F LT ISZERO PUSH2 0x1A5B JUMPI PUSH2 0x600 ADD SWAP1 JUMP JUMPDEST DUP1 MLOAD PUSH1 0x2D LT ISZERO PUSH2 0x1A5B JUMPI PUSH2 0x5C0 ADD SWAP1 JUMP JUMPDEST DUP1 MLOAD PUSH1 0x4A LT ISZERO PUSH2 0x1A5B JUMPI PUSH2 0x960 ADD SWAP1 JUMP JUMPDEST DUP1 MLOAD PUSH1 0x4B LT ISZERO PUSH2 0x1A5B JUMPI PUSH2 0x980 ADD SWAP1 JUMP JUMPDEST DUP1 MLOAD PUSH1 0x51 LT ISZERO PUSH2 0x1A5B JUMPI PUSH2 0xA40 ADD SWAP1 JUMP JUMPDEST DUP1 MLOAD PUSH1 0x30 LT ISZERO PUSH2 0x1A5B JUMPI PUSH2 0x620 ADD SWAP1 JUMP JUMPDEST DUP1 MLOAD PUSH1 0x31 LT ISZERO PUSH2 0x1A5B JUMPI PUSH2 0x640 ADD SWAP1 JUMP JUMPDEST DUP1 MLOAD PUSH1 0x32 LT ISZERO PUSH2 0x1A5B JUMPI PUSH2 0x660 ADD SWAP1 JUMP JUMPDEST DUP1 MLOAD PUSH1 0x33 LT ISZERO PUSH2 0x1A5B JUMPI PUSH2 0x680 ADD SWAP1 JUMP JUMPDEST DUP1 MLOAD PUSH1 0x34 LT ISZERO PUSH2 0x1A5B JUMPI PUSH2 0x6A0 ADD SWAP1 JUMP JUMPDEST DUP1 MLOAD PUSH1 0x35 LT ISZERO PUSH2 0x1A5B JUMPI PUSH2 0x6C0 ADD SWAP1 JUMP JUMPDEST DUP1 MLOAD PUSH1 0x36 LT ISZERO PUSH2 0x1A5B JUMPI PUSH2 0x6E0 ADD SWAP1 JUMP JUMPDEST DUP1 MLOAD PUSH1 0x1A LT ISZERO PUSH2 0x1A5B JUMPI PUSH2 0x360 ADD SWAP1 JUMP JUMPDEST DUP1 MLOAD PUSH1 0x1B LT ISZERO PUSH2 0x1A5B JUMPI PUSH2 0x380 ADD SWAP1 JUMP JUMPDEST DUP1 MLOAD PUSH1 0x1C LT ISZERO PUSH2 0x1A5B JUMPI PUSH2 0x3A0 ADD SWAP1 JUMP JUMPDEST DUP1 MLOAD PUSH1 0x1D LT ISZERO PUSH2 0x1A5B JUMPI PUSH2 0x3C0 ADD SWAP1 JUMP JUMPDEST DUP1 MLOAD PUSH1 0x1E LT ISZERO PUSH2 0x1A5B JUMPI PUSH2 0x3E0 ADD SWAP1 JUMP JUMPDEST DUP1 MLOAD PUSH1 0x1F LT ISZERO PUSH2 0x1A5B JUMPI PUSH2 0x400 ADD SWAP1 JUMP JUMPDEST DUP1 MLOAD PUSH1 0x20 LT ISZERO PUSH2 0x1A5B JUMPI PUSH2 0x420 ADD SWAP1 JUMP JUMPDEST DUP1 MLOAD PUSH1 0x21 LT ISZERO PUSH2 0x1A5B JUMPI PUSH2 0x440 ADD SWAP1 JUMP JUMPDEST DUP1 MLOAD PUSH1 0x73 LT ISZERO PUSH2 0x1A5B JUMPI PUSH2 0xE80 ADD SWAP1 JUMP JUMPDEST DUP1 MLOAD PUSH1 0x74 LT ISZERO PUSH2 0x1A5B JUMPI PUSH2 0xEA0 ADD SWAP1 JUMP JUMPDEST DUP1 MLOAD PUSH1 0x75 LT ISZERO PUSH2 0x1A5B JUMPI PUSH2 0xEC0 ADD SWAP1 JUMP JUMPDEST DUP1 MLOAD PUSH1 0x76 LT ISZERO PUSH2 0x1A5B JUMPI PUSH2 0xEE0 ADD SWAP1 JUMP JUMPDEST DUP1 MLOAD PUSH1 0x52 LT ISZERO PUSH2 0x1A5B JUMPI PUSH2 0xA60 ADD SWAP1 JUMP JUMPDEST DUP1 MLOAD PUSH1 0x77 LT ISZERO PUSH2 0x1A5B JUMPI PUSH2 0xF00 ADD SWAP1 JUMP JUMPDEST DUP1 MLOAD PUSH1 0x78 LT ISZERO PUSH2 0x1A5B JUMPI PUSH2 0xF20 ADD SWAP1 JUMP JUMPDEST DUP1 MLOAD PUSH1 0x79 LT ISZERO PUSH2 0x1A5B JUMPI PUSH2 0xF40 ADD SWAP1 JUMP JUMPDEST DUP1 MLOAD PUSH1 0x7A LT ISZERO PUSH2 0x1A5B JUMPI PUSH2 0xF60 ADD SWAP1 JUMP JUMPDEST DUP1 MLOAD PUSH1 0x7B LT ISZERO PUSH2 0x1A5B JUMPI PUSH2 0xF80 ADD SWAP1 JUMP JUMPDEST DUP1 MLOAD PUSH1 0x7C LT ISZERO PUSH2 0x1A5B JUMPI PUSH2 0xFA0 ADD SWAP1 JUMP JUMPDEST DUP1 MLOAD PUSH1 0x7D LT ISZERO PUSH2 0x1A5B JUMPI PUSH2 0xFC0 ADD SWAP1 JUMP JUMPDEST DUP1 MLOAD PUSH1 0x7E LT ISZERO PUSH2 0x1A5B JUMPI PUSH2 0xFE0 ADD SWAP1 JUMP JUMPDEST DUP1 MLOAD PUSH1 0x7F LT ISZERO PUSH2 0x1A5B JUMPI PUSH2 0x1000 ADD SWAP1 JUMP JUMPDEST DUP1 MLOAD PUSH1 0x42 LT ISZERO PUSH2 0x1A5B JUMPI PUSH2 0x860 ADD SWAP1 JUMP JUMPDEST DUP1 MLOAD PUSH1 0x43 LT ISZERO PUSH2 0x1A5B JUMPI PUSH2 0x880 ADD SWAP1 JUMP JUMPDEST DUP1 MLOAD PUSH1 0x44 LT ISZERO PUSH2 0x1A5B JUMPI PUSH2 0x8A0 ADD SWAP1 JUMP JUMPDEST DUP1 MLOAD PUSH1 0x45 LT ISZERO PUSH2 0x1A5B JUMPI PUSH2 0x8C0 ADD SWAP1 JUMP JUMPDEST DUP1 MLOAD PUSH1 0x46 LT ISZERO PUSH2 0x1A5B JUMPI PUSH2 0x8E0 ADD SWAP1 JUMP JUMPDEST DUP1 MLOAD PUSH1 0x47 LT ISZERO PUSH2 0x1A5B JUMPI PUSH2 0x900 ADD SWAP1 JUMP JUMPDEST DUP1 MLOAD PUSH1 0x48 LT ISZERO PUSH2 0x1A5B JUMPI PUSH2 0x920 ADD SWAP1 JUMP JUMPDEST DUP1 MLOAD PUSH1 0x49 LT ISZERO PUSH2 0x1A5B JUMPI PUSH2 0x940 ADD SWAP1 JUMP JUMPDEST DUP1 MLOAD PUSH1 0x4D LT ISZERO PUSH2 0x1A5B JUMPI PUSH2 0x9C0 ADD SWAP1 JUMP JUMPDEST DUP1 MLOAD PUSH1 0x4E LT ISZERO PUSH2 0x1A5B JUMPI PUSH2 0x9E0 ADD SWAP1 JUMP JUMPDEST DUP1 MLOAD PUSH1 0x4F LT ISZERO PUSH2 0x1A5B JUMPI PUSH2 0xA00 ADD SWAP1 JUMP JUMPDEST DUP1 MLOAD PUSH1 0x50 LT ISZERO PUSH2 0x1A5B JUMPI PUSH2 0xA20 ADD SWAP1 JUMP JUMPDEST DUP1 MLOAD PUSH1 0x55 LT ISZERO PUSH2 0x1A5B JUMPI PUSH2 0xAC0 ADD SWAP1 JUMP JUMPDEST DUP1 MLOAD PUSH1 0x56 LT ISZERO PUSH2 0x1A5B JUMPI PUSH2 0xAE0 ADD SWAP1 JUMP JUMPDEST DUP1 MLOAD PUSH1 0x57 LT ISZERO PUSH2 0x1A5B JUMPI PUSH2 0xB00 ADD SWAP1 JUMP JUMPDEST DUP1 MLOAD PUSH1 0x58 LT ISZERO PUSH2 0x1A5B JUMPI PUSH2 0xB20 ADD SWAP1 JUMP JUMPDEST DUP1 MLOAD PUSH1 0x59 LT ISZERO PUSH2 0x1A5B JUMPI PUSH2 0xB40 ADD SWAP1 JUMP JUMPDEST DUP1 MLOAD PUSH1 0x5A LT ISZERO PUSH2 0x1A5B JUMPI PUSH2 0xB60 ADD SWAP1 JUMP JUMPDEST DUP1 MLOAD PUSH1 0x5B LT ISZERO PUSH2 0x1A5B JUMPI PUSH2 0xB80 ADD SWAP1 JUMP JUMPDEST DUP1 MLOAD PUSH1 0x5C LT ISZERO PUSH2 0x1A5B JUMPI PUSH2 0xBA0 ADD SWAP1 JUMP JUMPDEST DUP1 MLOAD PUSH1 0x5D LT ISZERO PUSH2 0x1A5B JUMPI PUSH2 0xBC0 ADD SWAP1 JUMP JUMPDEST DUP1 MLOAD PUSH1 0x2C LT ISZERO PUSH2 0x1A5B JUMPI PUSH2 0x5A0 ADD SWAP1 JUMP JUMPDEST DUP1 MLOAD PUSH1 0x41 LT ISZERO PUSH2 0x1A5B JUMPI PUSH2 0x840 ADD SWAP1 JUMP JUMPDEST DUP1 MLOAD PUSH1 0x3F LT ISZERO PUSH2 0x1A5B JUMPI PUSH2 0x800 ADD SWAP1 JUMP JUMPDEST DUP1 MLOAD PUSH1 0x40 LT ISZERO PUSH2 0x1A5B JUMPI PUSH2 0x820 ADD SWAP1 JUMP JUMPDEST DUP1 MLOAD PUSH1 0x99 LT ISZERO PUSH2 0x1A5B JUMPI PUSH2 0x1340 ADD SWAP1 JUMP JUMPDEST DUP1 MLOAD PUSH1 0x9A LT ISZERO PUSH2 0x1A5B JUMPI PUSH2 0x1360 ADD SWAP1 JUMP JUMPDEST DUP1 MLOAD PUSH1 0x9B LT ISZERO PUSH2 0x1A5B JUMPI PUSH2 0x1380 ADD SWAP1 JUMP JUMPDEST DUP1 MLOAD PUSH1 0x9C LT ISZERO PUSH2 0x1A5B JUMPI PUSH2 0x13A0 ADD SWAP1 JUMP JUMPDEST DUP1 MLOAD PUSH1 0x9D LT ISZERO PUSH2 0x1A5B JUMPI PUSH2 0x13C0 ADD SWAP1 JUMP JUMPDEST DUP1 MLOAD PUSH1 0x9E LT ISZERO PUSH2 0x1A5B JUMPI PUSH2 0x13E0 ADD SWAP1 JUMP JUMPDEST DUP1 MLOAD PUSH1 0x9F LT ISZERO PUSH2 0x1A5B JUMPI PUSH2 0x1400 ADD SWAP1 JUMP JUMPDEST DUP1 MLOAD PUSH1 0xA0 LT ISZERO PUSH2 0x1A5B JUMPI PUSH2 0x1420 ADD SWAP1 JUMP JUMPDEST DUP1 MLOAD PUSH1 0x8D LT ISZERO PUSH2 0x1A5B JUMPI PUSH2 0x11C0 ADD SWAP1 JUMP JUMPDEST DUP1 MLOAD PUSH1 0x8E LT ISZERO PUSH2 0x1A5B JUMPI PUSH2 0x11E0 ADD SWAP1 JUMP JUMPDEST DUP1 MLOAD PUSH1 0x8F LT ISZERO PUSH2 0x1A5B JUMPI PUSH2 0x1200 ADD SWAP1 JUMP JUMPDEST DUP1 MLOAD PUSH1 0x90 LT ISZERO PUSH2 0x1A5B JUMPI PUSH2 0x1220 ADD SWAP1 JUMP JUMPDEST DUP1 MLOAD PUSH1 0x80 LT ISZERO PUSH2 0x1A5B JUMPI PUSH2 0x1020 ADD SWAP1 JUMP JUMPDEST DUP1 MLOAD PUSH1 0x81 LT ISZERO PUSH2 0x1A5B JUMPI PUSH2 0x1040 ADD SWAP1 JUMP JUMPDEST DUP1 MLOAD PUSH1 0x82 LT ISZERO PUSH2 0x1A5B JUMPI PUSH2 0x1060 ADD SWAP1 JUMP JUMPDEST DUP1 MLOAD PUSH1 0x91 LT ISZERO PUSH2 0x1A5B JUMPI PUSH2 0x1240 ADD SWAP1 JUMP JUMPDEST DUP1 MLOAD PUSH1 0x8B LT ISZERO PUSH2 0x1A5B JUMPI PUSH2 0x1180 ADD SWAP1 JUMP JUMPDEST DUP1 MLOAD PUSH1 0x83 LT ISZERO PUSH2 0x1A5B JUMPI PUSH2 0x1080 ADD SWAP1 JUMP JUMPDEST DUP1 MLOAD PUSH1 0x84 LT ISZERO PUSH2 0x1A5B JUMPI PUSH2 0x10A0 ADD SWAP1 JUMP JUMPDEST DUP1 MLOAD PUSH1 0x85 LT ISZERO PUSH2 0x1A5B JUMPI PUSH2 0x10C0 ADD SWAP1 JUMP JUMPDEST DUP1 MLOAD PUSH1 0x86 LT ISZERO PUSH2 0x1A5B JUMPI PUSH2 0x10E0 ADD SWAP1 JUMP JUMPDEST DUP1 MLOAD PUSH1 0x87 LT ISZERO PUSH2 0x1A5B JUMPI PUSH2 0x1100 ADD SWAP1 JUMP JUMPDEST DUP1 MLOAD PUSH1 0x88 LT ISZERO PUSH2 0x1A5B JUMPI PUSH2 0x1120 ADD SWAP1 JUMP JUMPDEST DUP1 MLOAD PUSH1 0x89 LT ISZERO PUSH2 0x1A5B JUMPI PUSH2 0x1140 ADD SWAP1 JUMP JUMPDEST DUP1 MLOAD PUSH1 0x8A LT ISZERO PUSH2 0x1A5B JUMPI PUSH2 0x1160 ADD SWAP1 JUMP JUMPDEST DUP1 MLOAD PUSH1 0x92 LT ISZERO PUSH2 0x1A5B JUMPI PUSH2 0x1260 ADD SWAP1 JUMP JUMPDEST DUP1 MLOAD PUSH1 0x93 LT ISZERO PUSH2 0x1A5B JUMPI PUSH2 0x1280 ADD SWAP1 JUMP JUMPDEST DUP1 MLOAD PUSH1 0x94 LT ISZERO PUSH2 0x1A5B JUMPI PUSH2 0x12A0 ADD SWAP1 JUMP JUMPDEST DUP1 MLOAD PUSH1 0x95 LT ISZERO PUSH2 0x1A5B JUMPI PUSH2 0x12C0 ADD SWAP1 JUMP JUMPDEST DUP1 MLOAD PUSH1 0x96 LT ISZERO PUSH2 0x1A5B JUMPI PUSH2 0x12E0 ADD SWAP1 JUMP JUMPDEST DUP1 MLOAD PUSH1 0x97 LT ISZERO PUSH2 0x1A5B JUMPI PUSH2 0x1300 ADD SWAP1 JUMP JUMPDEST DUP1 MLOAD PUSH1 0x98 LT ISZERO PUSH2 0x1A5B JUMPI PUSH2 0x1320 ADD SWAP1 JUMP JUMPDEST DUP1 MLOAD PUSH1 0x8C LT ISZERO PUSH2 0x1A5B JUMPI PUSH2 0x11A0 ADD SWAP1 JUMP JUMPDEST DUP1 MLOAD PUSH1 0xA1 LT ISZERO PUSH2 0x1A5B JUMPI PUSH2 0x1440 ADD SWAP1 JUMP JUMPDEST DUP1 MLOAD PUSH1 0xA2 LT ISZERO PUSH2 0x1A5B JUMPI PUSH2 0x1460 ADD SWAP1 JUMP JUMPDEST DUP1 MLOAD PUSH1 0xA3 LT ISZERO PUSH2 0x1A5B JUMPI PUSH2 0x1480 ADD SWAP1 JUMP JUMPDEST DUP1 MLOAD PUSH1 0xA4 LT ISZERO PUSH2 0x1A5B JUMPI PUSH2 0x14A0 ADD SWAP1 JUMP JUMPDEST DUP1 MLOAD PUSH1 0xA5 LT ISZERO PUSH2 0x1A5B JUMPI PUSH2 0x14C0 ADD SWAP1 JUMP JUMPDEST DUP1 MLOAD PUSH1 0xA6 LT ISZERO PUSH2 0x1A5B JUMPI PUSH2 0x14E0 ADD SWAP1 JUMP JUMPDEST DUP1 MLOAD PUSH1 0xA7 LT ISZERO PUSH2 0x1A5B JUMPI PUSH2 0x1500 ADD SWAP1 JUMP JUMPDEST DUP1 MLOAD PUSH1 0xA8 LT ISZERO PUSH2 0x1A5B JUMPI PUSH2 0x1520 ADD SWAP1 JUMP JUMPDEST DUP1 MLOAD DUP3 LT ISZERO PUSH2 0x1A5B JUMPI PUSH1 0x20 SWAP2 PUSH1 0x5 SHL ADD ADD SWAP1 JUMP JUMPDEST CALLDATALOAD SWAP1 PUSH1 0xFF DUP3 AND DUP3 SUB PUSH2 0x481 JUMPI JUMP JUMPDEST CALLDATALOAD SWAP1 PUSH2 0xFFFF DUP3 AND DUP3 SUB PUSH2 0x481 JUMPI JUMP JUMPDEST SWAP2 SWAP1 SWAP2 PUSH2 0x400 DUP2 DUP5 SUB SLT PUSH2 0x481 JUMPI PUSH1 0x40 MLOAD SWAP1 PUSH2 0x400 DUP3 ADD DUP3 DUP2 LT PUSH8 0xFFFFFFFFFFFFFFFF DUP3 GT OR PUSH2 0x1983 JUMPI PUSH1 0x40 MSTORE DUP2 SWAP4 DUP2 CALLDATALOAD PUSH8 0xFFFFFFFFFFFFFFFF DUP2 GT PUSH2 0x481 JUMPI DUP3 ADD DUP2 PUSH1 0x1F DUP3 ADD SLT ISZERO PUSH2 0x481 JUMPI DUP1 CALLDATALOAD SWAP1 PUSH8 0xFFFFFFFFFFFFFFFF DUP3 GT PUSH2 0x1983 JUMPI PUSH1 0x20 DUP3 PUSH1 0x5 SHL ADD SWAP3 PUSH2 0x2636 PUSH1 0x40 MLOAD SWAP5 DUP6 PUSH2 0x1997 JUMP JUMPDEST DUP3 DUP5 MSTORE PUSH1 0x20 PUSH1 0xA0 DUP2 DUP7 ADD SWAP5 MUL DUP4 ADD ADD SWAP2 DUP2 DUP4 GT PUSH2 0x481 JUMPI PUSH1 0x20 ADD SWAP3 JUMPDEST DUP3 DUP5 LT PUSH2 0x28D4 JUMPI POP POP POP POP DUP3 MSTORE PUSH2 0x266B PUSH1 0x20 DUP3 ADD PUSH2 0x25A5 JUMP JUMPDEST PUSH1 0x20 DUP4 ADD MSTORE PUSH2 0x267C PUSH1 0x40 DUP3 ADD PUSH2 0x25B3 JUMP JUMPDEST PUSH1 0x40 DUP4 ADD MSTORE PUSH1 0x60 DUP2 ADD CALLDATALOAD PUSH1 0x60 DUP4 ADD MSTORE PUSH2 0x2697 PUSH1 0x80 DUP3 ADD PUSH2 0x25B3 JUMP JUMPDEST PUSH1 0x80 DUP4 ADD MSTORE PUSH1 0xA0 DUP2 ADD CALLDATALOAD PUSH4 0xFFFFFFFF DUP2 AND DUP2 SUB PUSH2 0x481 JUMPI PUSH1 0xA0 DUP4 ADD MSTORE PUSH1 0xC0 DUP2 ADD CALLDATALOAD PUSH1 0x2 DUP2 LT ISZERO PUSH2 0x481 JUMPI PUSH1 0xC0 DUP4 ADD MSTORE PUSH1 0xE0 DUP2 ADD CALLDATALOAD PUSH1 0x6 DUP2 LT ISZERO PUSH2 0x481 JUMPI PUSH1 0xE0 DUP4 ADD MSTORE PUSH2 0x100 DUP2 ADD CALLDATALOAD PUSH1 0x1D DUP2 LT ISZERO PUSH2 0x481 JUMPI PUSH2 0x100 DUP4 ADD MSTORE PUSH2 0x120 DUP2 ADD CALLDATALOAD PUSH1 0x17 DUP2 LT ISZERO PUSH2 0x481 JUMPI PUSH2 0x120 DUP4 ADD MSTORE PUSH2 0x140 DUP2 ADD CALLDATALOAD PUSH1 0x14 DUP2 LT ISZERO PUSH2 0x481 JUMPI PUSH2 0x140 DUP4 ADD MSTORE PUSH2 0x160 DUP2 ADD CALLDATALOAD PUSH1 0x9 DUP2 LT ISZERO PUSH2 0x481 JUMPI PUSH2 0x160 DUP4 ADD MSTORE PUSH2 0x180 DUP2 ADD CALLDATALOAD PUSH1 0x9 DUP2 LT ISZERO PUSH2 0x481 JUMPI PUSH2 0x180 DUP4 ADD MSTORE PUSH2 0x1A0 DUP2 ADD CALLDATALOAD PUSH1 0x4 DUP2 LT ISZERO PUSH2 0x481 JUMPI PUSH2 0x1A0 DUP4 ADD MSTORE PUSH2 0x1C0 DUP2 ADD CALLDATALOAD PUSH1 0x58 DUP2 LT ISZERO PUSH2 0x481 JUMPI PUSH2 0x1C0 DUP4 ADD MSTORE PUSH2 0x1E0 DUP2 ADD CALLDATALOAD PUSH1 0x16 DUP2 LT ISZERO PUSH2 0x481 JUMPI PUSH2 0x1E0 DUP4 ADD MSTORE PUSH2 0x200 DUP2 ADD CALLDATALOAD PUSH1 0xD4 DUP2 LT ISZERO PUSH2 0x481 JUMPI PUSH2 0x200 DUP4 ADD MSTORE PUSH2 0x220 DUP2 ADD CALLDATALOAD PUSH1 0x6A DUP2 LT ISZERO PUSH2 0x481 JUMPI PUSH2 0x220 DUP4 ADD MSTORE PUSH2 0x240 DUP2 ADD CALLDATALOAD PUSH1 0xA9 DUP2 LT ISZERO PUSH2 0x481 JUMPI PUSH2 0x240 DUP4 ADD MSTORE PUSH2 0x260 DUP2 ADD CALLDATALOAD PUSH1 0x80 DUP2 LT ISZERO PUSH2 0x481 JUMPI PUSH2 0x260 DUP4 ADD MSTORE PUSH2 0x280 DUP2 ADD CALLDATALOAD PUSH1 0x1A DUP2 LT ISZERO PUSH2 0x481 JUMPI PUSH2 0x280 DUP4 ADD MSTORE PUSH2 0x2A0 DUP2 ADD CALLDATALOAD PUSH1 0x1F DUP2 LT ISZERO PUSH2 0x481 JUMPI PUSH2 0x2A0 DUP4 ADD MSTORE PUSH2 0x2C0 DUP2 ADD CALLDATALOAD PUSH1 0x13 DUP2 LT ISZERO PUSH2 0x481 JUMPI PUSH2 0x2C0 DUP4 ADD MSTORE PUSH2 0x2E0 DUP2 ADD CALLDATALOAD PUSH1 0x9 DUP2 LT ISZERO PUSH2 0x481 JUMPI PUSH2 0x2E0 DUP4 ADD MSTORE PUSH2 0x300 DUP2 ADD CALLDATALOAD PUSH1 0x9 DUP2 LT ISZERO PUSH2 0x481 JUMPI PUSH2 0x300 DUP4 ADD MSTORE PUSH2 0x320 DUP2 ADD CALLDATALOAD PUSH1 0x4 DUP2 LT ISZERO PUSH2 0x481 JUMPI PUSH2 0x320 DUP4 ADD MSTORE PUSH2 0x340 DUP2 ADD CALLDATALOAD PUSH1 0x15 DUP2 LT ISZERO PUSH2 0x481 JUMPI PUSH2 0x340 DUP4 ADD MSTORE PUSH2 0x360 DUP2 ADD CALLDATALOAD PUSH1 0xC3 DUP2 LT ISZERO PUSH2 0x481 JUMPI PUSH2 0x360 DUP4 ADD MSTORE PUSH2 0x380 DUP2 ADD CALLDATALOAD PUSH1 0x85 DUP2 LT ISZERO PUSH2 0x481 JUMPI PUSH2 0x380 DUP4 ADD MSTORE PUSH2 0x3A0 DUP2 ADD CALLDATALOAD PUSH1 0x83 DUP2 LT ISZERO PUSH2 0x481 JUMPI PUSH2 0x3A0 DUP4 ADD MSTORE PUSH2 0x3C0 DUP2 ADD CALLDATALOAD SWAP1 PUSH1 0x7A DUP3 LT ISZERO PUSH2 0x481 JUMPI PUSH2 0x3E0 SWAP2 PUSH2 0x3C0 DUP5 ADD MSTORE ADD CALLDATALOAD SWAP1 PUSH1 0x17 DUP3 LT ISZERO PUSH2 0x481 JUMPI PUSH2 0x3E0 ADD MSTORE JUMP JUMPDEST DUP4 DUP3 SUB PUSH1 0xA0 DUP2 SLT PUSH2 0x481 JUMPI PUSH1 0x40 MLOAD SWAP1 PUSH1 0x80 DUP3 ADD DUP3 DUP2 LT PUSH8 0xFFFFFFFFFFFFFFFF DUP3 GT OR PUSH2 0x1983 JUMPI PUSH1 0x40 MSTORE DUP6 CALLDATALOAD PUSH1 0x1B DUP2 LT ISZERO PUSH2 0x481 JUMPI DUP3 MSTORE PUSH2 0x2916 PUSH1 0x20 DUP8 ADD PUSH2 0x25A5 JUMP JUMPDEST PUSH1 0x20 DUP4 ADD MSTORE PUSH1 0x40 DUP7 ADD CALLDATALOAD SWAP1 DUP2 ISZERO ISZERO DUP3 SUB PUSH2 0x481 JUMPI PUSH1 0x40 SWAP2 DUP3 DUP5 ADD MSTORE PUSH1 0x5F NOT ADD SLT PUSH2 0x481 JUMPI PUSH1 0x40 MLOAD SWAP2 PUSH2 0x2947 DUP4 PUSH2 0x1967 JUMP JUMPDEST PUSH1 0x60 DUP7 ADD CALLDATALOAD SWAP2 PUSH1 0x1B DUP4 LT ISZERO PUSH2 0x481 JUMPI DUP4 PUSH1 0x20 SWAP4 PUSH1 0xA0 SWAP6 MSTORE PUSH2 0x296A PUSH1 0x80 DUP10 ADD PUSH2 0x25A5 JUMP JUMPDEST DUP5 DUP3 ADD MSTORE PUSH1 0x60 DUP3 ADD MSTORE DUP2 MSTORE ADD SWAP4 ADD SWAP3 PUSH2 0x2652 JUMP JUMPDEST PUSH1 0x40 MLOAD SWAP1 PUSH2 0x2A0 PUSH2 0x298F DUP2 DUP5 PUSH2 0x1997 JUMP JUMPDEST PUSH1 0x14 DUP4 MSTORE PUSH1 0x1F NOT ADD CALLDATASIZE PUSH1 0x20 DUP5 ADD CALLDATACOPY PUSH2 0x29AF PUSH2 0x29AA CALLDATASIZE DUP4 PUSH2 0x25C2 JUMP JUMPDEST PUSH2 0x44C2 JUMP JUMPDEST DUP1 ISZERO PUSH2 0x2D69 JUMPI JUMPDEST ISZERO PUSH2 0x2ABC JUMPI POP PUSH2 0x2AB0 SWAP2 PUSH2 0x2495 PUSH2 0x29CC DUP4 PUSH2 0x1A4E JUMP JUMPDEST MSTORE PUSH1 0xC8 PUSH2 0x29D8 DUP4 PUSH2 0x1BBD JUMP JUMPDEST MSTORE PUSH1 0x23 PUSH2 0x29E4 DUP4 PUSH2 0x1A6F JUMP JUMPDEST MSTORE PUSH1 0x16 PUSH2 0x29F0 DUP4 PUSH2 0x1B46 JUMP JUMPDEST MSTORE PUSH1 0x14 PUSH2 0x29FC DUP4 PUSH2 0x1B79 JUMP JUMPDEST MSTORE PUSH1 0x12 PUSH2 0x2A08 DUP4 PUSH2 0x1A7F JUMP JUMPDEST MSTORE PUSH1 0x10 PUSH2 0x2A14 DUP4 PUSH2 0x1AD1 JUMP JUMPDEST MSTORE PUSH1 0xE PUSH2 0x2A20 DUP4 PUSH2 0x1BAC JUMP JUMPDEST MSTORE PUSH1 0xC PUSH2 0x2A2C DUP4 PUSH2 0x1B68 JUMP JUMPDEST MSTORE PUSH1 0xA PUSH2 0x2A38 DUP4 PUSH2 0x1B9B JUMP JUMPDEST MSTORE PUSH1 0x8 PUSH2 0x2A44 DUP4 PUSH2 0x1B8A JUMP JUMPDEST MSTORE PUSH1 0x4B PUSH2 0x2A50 DUP4 PUSH2 0x1AB0 JUMP JUMPDEST MSTORE PUSH1 0x3C PUSH2 0x2A5C DUP4 PUSH2 0x1BCE JUMP JUMPDEST MSTORE PUSH1 0x32 PUSH2 0x2A68 DUP4 PUSH2 0x1B02 JUMP JUMPDEST MSTORE PUSH1 0x10 PUSH2 0x2A74 DUP4 PUSH2 0x1A8F JUMP JUMPDEST MSTORE PUSH1 0xC PUSH2 0x2A80 DUP4 PUSH2 0x1B35 JUMP JUMPDEST MSTORE PUSH1 0xC PUSH2 0x2A8C DUP4 PUSH2 0x1AF1 JUMP JUMPDEST MSTORE PUSH1 0xA PUSH2 0x2A98 DUP4 PUSH2 0x1AE1 JUMP JUMPDEST MSTORE PUSH1 0xA PUSH2 0x2AA4 DUP4 PUSH2 0x1AC0 JUMP JUMPDEST MSTORE PUSH1 0x8 PUSH2 0x26D DUP4 PUSH2 0x1A9F JUMP JUMPDEST PUSH1 0x14 DUP2 LT ISZERO PUSH2 0x2C2 JUMPI SWAP1 JUMP JUMPDEST PUSH2 0x100 PUSH2 0x2AC9 CALLDATASIZE DUP4 PUSH2 0x25C2 JUMP JUMPDEST ADD MLOAD PUSH1 0x1D DUP2 LT ISZERO PUSH2 0x2C2 JUMPI PUSH1 0x2 EQ DUP1 ISZERO PUSH2 0x2D48 JUMPI JUMPDEST DUP1 ISZERO PUSH2 0x2D27 JUMPI JUMPDEST ISZERO PUSH2 0x2B5B JUMPI POP PUSH2 0x2AB0 SWAP2 PUSH2 0x2495 PUSH2 0x2AFB DUP4 PUSH2 0x1A4E JUMP JUMPDEST MSTORE PUSH1 0xC8 PUSH2 0x2B07 DUP4 PUSH2 0x1BBD JUMP JUMPDEST MSTORE PUSH1 0x4B PUSH2 0x2B13 DUP4 PUSH2 0x1AB0 JUMP JUMPDEST MSTORE PUSH1 0x32 PUSH2 0x2B1F DUP4 PUSH2 0x1B02 JUMP JUMPDEST MSTORE PUSH1 0x10 PUSH2 0x2B2B DUP4 PUSH2 0x1A8F JUMP JUMPDEST MSTORE PUSH1 0xC PUSH2 0x2B37 DUP4 PUSH2 0x1B35 JUMP JUMPDEST MSTORE PUSH1 0xC PUSH2 0x2B43 DUP4 PUSH2 0x1AF1 JUMP JUMPDEST MSTORE PUSH1 0xA PUSH2 0x2B4F DUP4 PUSH2 0x1AE1 JUMP JUMPDEST MSTORE PUSH1 0xA PUSH2 0x26D DUP4 PUSH2 0x1AC0 JUMP JUMPDEST PUSH2 0x100 PUSH2 0x2B68 CALLDATASIZE DUP4 PUSH2 0x25C2 JUMP JUMPDEST ADD MLOAD PUSH1 0x1D DUP2 LT ISZERO PUSH2 0x2C2 JUMPI PUSH1 0x1 EQ SWAP1 DUP2 ISZERO PUSH2 0x2D04 JUMPI JUMPDEST DUP2 ISZERO PUSH2 0x2CEF JUMPI JUMPDEST DUP2 ISZERO PUSH2 0x2CCC JUMPI JUMPDEST DUP2 ISZERO PUSH2 0x2CA9 JUMPI JUMPDEST DUP2 ISZERO PUSH2 0x2C86 JUMPI JUMPDEST DUP2 ISZERO PUSH2 0x2C63 JUMPI JUMPDEST DUP2 ISZERO PUSH2 0x2C48 JUMPI JUMPDEST POP ISZERO PUSH2 0x2C42 JUMPI PUSH2 0x2AB0 SWAP2 PUSH2 0x2495 PUSH2 0x2BBE DUP4 PUSH2 0x1A4E JUMP JUMPDEST MSTORE PUSH1 0xC8 PUSH2 0x2BCA DUP4 PUSH2 0x1BBD JUMP JUMPDEST MSTORE PUSH1 0x23 PUSH2 0x2BD6 DUP4 PUSH2 0x1A6F JUMP JUMPDEST MSTORE PUSH1 0x16 PUSH2 0x2BE2 DUP4 PUSH2 0x1B46 JUMP JUMPDEST MSTORE PUSH1 0x14 PUSH2 0x2BEE DUP4 PUSH2 0x1B79 JUMP JUMPDEST MSTORE PUSH1 0x12 PUSH2 0x2BFA DUP4 PUSH2 0x1A7F JUMP JUMPDEST MSTORE PUSH1 0x10 PUSH2 0x2C06 DUP4 PUSH2 0x1AD1 JUMP JUMPDEST MSTORE PUSH1 0xE PUSH2 0x2C12 DUP4 PUSH2 0x1BAC JUMP JUMPDEST MSTORE PUSH1 0xC PUSH2 0x2C1E DUP4 PUSH2 0x1B68 JUMP JUMPDEST MSTORE PUSH1 0xA PUSH2 0x2C2A DUP4 PUSH2 0x1B9B JUMP JUMPDEST MSTORE PUSH1 0x8 PUSH2 0x2C36 DUP4 PUSH2 0x1B8A JUMP JUMPDEST MSTORE PUSH1 0x4B PUSH2 0x26D DUP4 PUSH2 0x1AB0 JUMP JUMPDEST POP POP PUSH0 SWAP1 JUMP JUMPDEST PUSH2 0x2C5D SWAP2 POP PUSH2 0x2C58 SWAP1 CALLDATASIZE SWAP1 PUSH2 0x25C2 JUMP JUMPDEST PUSH2 0x4522 JUMP JUMPDEST PUSH0 PUSH2 0x2BA8 JUMP JUMPDEST SWAP1 POP PUSH2 0x100 PUSH2 0x2C72 CALLDATASIZE DUP4 PUSH2 0x25C2 JUMP JUMPDEST ADD MLOAD PUSH1 0x1D DUP2 LT ISZERO PUSH2 0x2C2 JUMPI PUSH1 0x17 EQ SWAP1 PUSH2 0x2BA1 JUMP JUMPDEST SWAP1 POP PUSH2 0x100 PUSH2 0x2C95 CALLDATASIZE DUP4 PUSH2 0x25C2 JUMP JUMPDEST ADD MLOAD PUSH1 0x1D DUP2 LT ISZERO PUSH2 0x2C2 JUMPI PUSH1 0x15 EQ SWAP1 PUSH2 0x2B9A JUMP JUMPDEST SWAP1 POP PUSH2 0x100 PUSH2 0x2CB8 CALLDATASIZE DUP4 PUSH2 0x25C2 JUMP JUMPDEST ADD MLOAD PUSH1 0x1D DUP2 LT ISZERO PUSH2 0x2C2 JUMPI PUSH1 0x6 EQ SWAP1 PUSH2 0x2B93 JUMP JUMPDEST SWAP1 POP PUSH2 0x100 PUSH2 0x2CDB CALLDATASIZE DUP4 PUSH2 0x25C2 JUMP JUMPDEST ADD MLOAD PUSH1 0x1D DUP2 LT ISZERO PUSH2 0x2C2 JUMPI PUSH1 0x5 EQ SWAP1 PUSH2 0x2B8C JUMP JUMPDEST SWAP1 POP PUSH2 0x2CFE PUSH2 0x17F2 CALLDATASIZE DUP4 PUSH2 0x25C2 JUMP JUMPDEST SWAP1 PUSH2 0x2B85 JUMP JUMPDEST SWAP1 POP PUSH2 0x100 PUSH2 0x2D13 CALLDATASIZE DUP4 PUSH2 0x25C2 JUMP JUMPDEST ADD MLOAD PUSH1 0x1D DUP2 LT ISZERO PUSH2 0x2C2 JUMPI PUSH1 0x3 EQ SWAP1 PUSH2 0x2B7E JUMP JUMPDEST POP PUSH2 0x100 PUSH2 0x2D35 CALLDATASIZE DUP4 PUSH2 0x25C2 JUMP JUMPDEST ADD MLOAD PUSH1 0x1D DUP2 LT ISZERO PUSH2 0x2C2 JUMPI PUSH1 0x1B EQ PUSH2 0x2AE5 JUMP JUMPDEST POP PUSH2 0x100 PUSH2 0x2D56 CALLDATASIZE DUP4 PUSH2 0x25C2 JUMP JUMPDEST ADD MLOAD PUSH1 0x1D DUP2 LT ISZERO PUSH2 0x2C2 JUMPI PUSH1 0x1A EQ PUSH2 0x2ADE JUMP JUMPDEST POP PUSH2 0x2D7C PUSH2 0x2D77 CALLDATASIZE DUP4 PUSH2 0x25C2 JUMP JUMPDEST PUSH2 0x44FA JUMP JUMPDEST PUSH2 0x29B6 JUMP JUMPDEST PUSH1 0x40 MLOAD SWAP1 PUSH2 0x1AA0 PUSH2 0x2D92 DUP2 DUP5 PUSH2 0x1997 JUMP JUMPDEST PUSH1 0xD4 DUP4 MSTORE PUSH1 0x1F NOT ADD CALLDATASIZE PUSH1 0x20 DUP5 ADD CALLDATACOPY PUSH2 0x2DAD PUSH2 0x29AA CALLDATASIZE DUP4 PUSH2 0x25C2 JUMP JUMPDEST DUP1 ISZERO PUSH2 0x3937 JUMPI JUMPDEST ISZERO PUSH2 0x38C8 JUMPI POP PUSH2 0x190 PUSH2 0x2DC6 DUP3 PUSH2 0x1A4E JUMP JUMPDEST MSTORE JUMPDEST PUSH1 0xC8 PUSH2 0x2DD3 DUP3 PUSH2 0x1A7F JUMP JUMPDEST MSTORE PUSH1 0xB4 PUSH2 0x2DDF DUP3 PUSH2 0x1A8F JUMP JUMPDEST MSTORE PUSH1 0x78 PUSH2 0x2DEB DUP3 PUSH2 0x1AD1 JUMP JUMPDEST MSTORE PUSH1 0x64 PUSH2 0x2DF7 DUP3 PUSH2 0x1A6F JUMP JUMPDEST MSTORE PUSH1 0x19 PUSH2 0x2E03 DUP3 PUSH2 0x1AB0 JUMP JUMPDEST MSTORE PUSH1 0x19 PUSH2 0x2E0F DUP3 PUSH2 0x1AE1 JUMP JUMPDEST MSTORE PUSH1 0x19 PUSH2 0x2E1B DUP3 PUSH2 0x1AC0 JUMP JUMPDEST MSTORE PUSH1 0x19 PUSH2 0x2E27 DUP3 PUSH2 0x1A9F JUMP JUMPDEST MSTORE PUSH1 0x19 PUSH2 0x2E33 DUP3 PUSH2 0x1B68 JUMP JUMPDEST MSTORE PUSH1 0x19 PUSH2 0x2E3F DUP3 PUSH2 0x1B79 JUMP JUMPDEST MSTORE PUSH1 0x19 PUSH2 0x2E4B DUP3 PUSH2 0x1B8A JUMP JUMPDEST MSTORE PUSH1 0x19 PUSH2 0x2E57 DUP3 PUSH2 0x1B35 JUMP JUMPDEST MSTORE PUSH1 0xE1 PUSH2 0x2E63 DUP3 PUSH2 0x1BBD JUMP JUMPDEST MSTORE PUSH1 0xC8 PUSH2 0x2E6F DUP3 PUSH2 0x1AF1 JUMP JUMPDEST MSTORE PUSH1 0x8C PUSH2 0x2E7B DUP3 PUSH2 0x1BCE JUMP JUMPDEST MSTORE PUSH1 0x64 PUSH2 0x2E87 DUP3 PUSH2 0x1B9B JUMP JUMPDEST MSTORE PUSH1 0x55 PUSH2 0x2E93 DUP3 PUSH2 0x1BAC JUMP JUMPDEST MSTORE PUSH1 0xFA PUSH2 0x2E9F DUP3 PUSH2 0x1E10 JUMP JUMPDEST MSTORE PUSH1 0xE1 PUSH2 0x2EAB DUP3 PUSH2 0x1B24 JUMP JUMPDEST MSTORE PUSH1 0xC8 PUSH2 0x2EB7 DUP3 PUSH2 0x1B02 JUMP JUMPDEST MSTORE PUSH1 0xB9 PUSH2 0x2EC3 DUP3 PUSH2 0x1B13 JUMP JUMPDEST MSTORE PUSH1 0xAF PUSH2 0x2ECF DUP3 PUSH2 0x1B46 JUMP JUMPDEST MSTORE PUSH1 0xA5 PUSH2 0x2EDB DUP3 PUSH2 0x1B57 JUMP JUMPDEST MSTORE PUSH1 0x7 PUSH2 0x2EE7 DUP3 PUSH2 0x1E21 JUMP JUMPDEST MSTORE PUSH1 0x7 PUSH2 0x2EF3 DUP3 PUSH2 0x1E32 JUMP JUMPDEST MSTORE PUSH1 0x7 PUSH2 0x2EFF DUP3 PUSH2 0x1FB9 JUMP JUMPDEST MSTORE PUSH1 0x7 PUSH2 0x2F0B DUP3 PUSH2 0x1FCA JUMP JUMPDEST MSTORE PUSH1 0x7 PUSH2 0x2F17 DUP3 PUSH2 0x1FDB JUMP JUMPDEST MSTORE PUSH1 0x7 PUSH2 0x2F23 DUP3 PUSH2 0x1FEC JUMP JUMPDEST MSTORE PUSH1 0x7 PUSH2 0x2F2F DUP3 PUSH2 0x1FFD JUMP JUMPDEST MSTORE PUSH1 0x12 PUSH2 0x2F3B DUP3 PUSH2 0x200E JUMP JUMPDEST MSTORE PUSH1 0xE PUSH2 0x2F47 DUP3 PUSH2 0x201F JUMP JUMPDEST MSTORE PUSH1 0xA PUSH2 0x2F53 DUP3 PUSH2 0x1E43 JUMP JUMPDEST MSTORE PUSH1 0x7 PUSH2 0x2F5F DUP3 PUSH2 0x1C9A JUMP JUMPDEST MSTORE PUSH1 0x2 PUSH2 0x2F6B DUP3 PUSH2 0x2030 JUMP JUMPDEST MSTORE PUSH1 0x2 PUSH2 0x2F77 DUP3 PUSH2 0x1CAB JUMP JUMPDEST MSTORE PUSH1 0x2 PUSH2 0x2F83 DUP3 PUSH2 0x1CBC JUMP JUMPDEST MSTORE PUSH1 0x2 PUSH2 0x2F8F DUP3 PUSH2 0x1CCD JUMP JUMPDEST MSTORE PUSH1 0x2 PUSH2 0x2F9B DUP3 PUSH2 0x1CDE JUMP JUMPDEST MSTORE PUSH1 0x2 PUSH2 0x2FA7 DUP3 PUSH2 0x1CEF JUMP JUMPDEST MSTORE PUSH1 0x2 PUSH2 0x2FB3 DUP3 PUSH2 0x1D00 JUMP JUMPDEST MSTORE PUSH1 0x2 PUSH2 0x2FBF DUP3 PUSH2 0x1D11 JUMP JUMPDEST MSTORE PUSH1 0x4 PUSH2 0x2FCB DUP3 PUSH2 0x1C89 JUMP JUMPDEST MSTORE PUSH1 0x4 PUSH2 0x2FD7 DUP3 PUSH2 0x2294 JUMP JUMPDEST MSTORE PUSH1 0x3 PUSH2 0x2FE3 DUP3 PUSH2 0x1EFE JUMP JUMPDEST MSTORE PUSH1 0x3 PUSH2 0x2FEF DUP3 PUSH2 0x1DFF JUMP JUMPDEST MSTORE PUSH1 0x3 PUSH2 0x2FFB DUP3 PUSH2 0x1EED JUMP JUMPDEST MSTORE PUSH1 0x3 PUSH2 0x3007 DUP3 PUSH2 0x1F42 JUMP JUMPDEST MSTORE PUSH1 0xC8 PUSH2 0x3013 DUP3 PUSH2 0x1F53 JUMP JUMPDEST MSTORE PUSH1 0xAF PUSH2 0x301F DUP3 PUSH2 0x1F86 JUMP JUMPDEST MSTORE PUSH1 0x96 PUSH2 0x302B DUP3 PUSH2 0x1F64 JUMP JUMPDEST MSTORE PUSH1 0x75 PUSH2 0x3037 DUP3 PUSH2 0x1F97 JUMP JUMPDEST MSTORE PUSH1 0x1A PUSH2 0x3043 DUP3 PUSH2 0x1F75 JUMP JUMPDEST MSTORE PUSH1 0x1A PUSH2 0x304F DUP3 PUSH2 0x1FA8 JUMP JUMPDEST MSTORE PUSH1 0x1A PUSH2 0x305B DUP3 PUSH2 0x1E65 JUMP JUMPDEST MSTORE PUSH1 0x1A PUSH2 0x3067 DUP3 PUSH2 0x1E76 JUMP JUMPDEST MSTORE PUSH1 0x1A PUSH2 0x3073 DUP3 PUSH2 0x1E87 JUMP JUMPDEST MSTORE PUSH1 0x1A PUSH2 0x307F DUP3 PUSH2 0x1E98 JUMP JUMPDEST MSTORE PUSH1 0x1A PUSH2 0x308B DUP3 PUSH2 0x1EA9 JUMP JUMPDEST MSTORE PUSH1 0x1A PUSH2 0x3097 DUP3 PUSH2 0x1EBA JUMP JUMPDEST MSTORE PUSH1 0x23 PUSH2 0x30A3 DUP3 PUSH2 0x1ECB JUMP JUMPDEST MSTORE PUSH1 0x1E PUSH2 0x30AF DUP3 PUSH2 0x22B6 JUMP JUMPDEST MSTORE PUSH1 0x19 PUSH2 0x30BB DUP3 PUSH2 0x1D22 JUMP JUMPDEST MSTORE PUSH1 0x14 PUSH2 0x30C7 DUP3 PUSH2 0x22C7 JUMP JUMPDEST MSTORE PUSH1 0xF PUSH2 0x30D3 DUP3 PUSH2 0x22A5 JUMP JUMPDEST MSTORE PUSH1 0xC PUSH2 0x30DF DUP3 PUSH2 0x212F JUMP JUMPDEST MSTORE PUSH1 0x9 PUSH2 0x30EB DUP3 PUSH2 0x2162 JUMP JUMPDEST MSTORE PUSH1 0x7 PUSH2 0x30F7 DUP3 PUSH2 0x2140 JUMP JUMPDEST MSTORE PUSH1 0x6 PUSH2 0x3103 DUP3 PUSH2 0x2173 JUMP JUMPDEST MSTORE PUSH1 0x2 PUSH2 0x310F DUP3 PUSH2 0x2151 JUMP JUMPDEST MSTORE PUSH1 0x2 PUSH2 0x311B DUP3 PUSH2 0x2184 JUMP JUMPDEST MSTORE PUSH1 0x2 PUSH2 0x3127 DUP3 PUSH2 0x2195 JUMP JUMPDEST MSTORE PUSH1 0x2 PUSH2 0x3133 DUP3 PUSH2 0x21A6 JUMP JUMPDEST MSTORE PUSH1 0x2 PUSH2 0x313F DUP3 PUSH2 0x1F0F JUMP JUMPDEST MSTORE PUSH1 0x2 PUSH2 0x314B DUP3 PUSH2 0x1F20 JUMP JUMPDEST MSTORE PUSH1 0x2 PUSH2 0x3157 DUP3 PUSH2 0x1D33 JUMP JUMPDEST MSTORE PUSH1 0x2 PUSH2 0x3163 DUP3 PUSH2 0x21B7 JUMP JUMPDEST MSTORE PUSH1 0x46 PUSH2 0x316F DUP3 PUSH2 0x21C8 JUMP JUMPDEST MSTORE PUSH1 0x3C PUSH2 0x317B DUP3 PUSH2 0x21EA JUMP JUMPDEST MSTORE PUSH1 0x32 PUSH2 0x3187 DUP3 PUSH2 0x21D9 JUMP JUMPDEST MSTORE PUSH1 0x28 PUSH2 0x3193 DUP3 PUSH2 0x1F31 JUMP JUMPDEST MSTORE PUSH1 0x1E PUSH2 0x319F DUP3 PUSH2 0x2085 JUMP JUMPDEST MSTORE PUSH1 0x3B PUSH2 0x31AB DUP3 PUSH2 0x1BDF JUMP JUMPDEST MSTORE PUSH1 0x2D PUSH2 0x31B7 DUP3 PUSH2 0x220C JUMP JUMPDEST MSTORE PUSH1 0x23 PUSH2 0x31C3 DUP3 PUSH2 0x1E54 JUMP JUMPDEST MSTORE PUSH1 0x1E PUSH2 0x31CF DUP3 PUSH2 0x221D JUMP JUMPDEST MSTORE PUSH1 0x7 PUSH2 0x31DB DUP3 PUSH2 0x21FB JUMP JUMPDEST MSTORE PUSH1 0x7 PUSH2 0x31E7 DUP3 PUSH2 0x222E JUMP JUMPDEST MSTORE PUSH1 0x7 PUSH2 0x31F3 DUP3 PUSH2 0x223F JUMP JUMPDEST MSTORE PUSH1 0x7 PUSH2 0x31FF DUP3 PUSH2 0x2250 JUMP JUMPDEST MSTORE PUSH1 0x7 PUSH2 0x320B DUP3 PUSH2 0x2261 JUMP JUMPDEST MSTORE PUSH1 0x7 PUSH2 0x3217 DUP3 PUSH2 0x2272 JUMP JUMPDEST MSTORE PUSH1 0x7 PUSH2 0x3223 DUP3 PUSH2 0x2283 JUMP JUMPDEST MSTORE PUSH1 0x7 PUSH2 0x322F DUP3 PUSH2 0x1D44 JUMP JUMPDEST MSTORE PUSH1 0x46 PUSH2 0x323B DUP3 PUSH2 0x1D55 JUMP JUMPDEST MSTORE PUSH1 0x3C PUSH2 0x3247 DUP3 PUSH2 0x1D77 JUMP JUMPDEST MSTORE PUSH1 0x1E PUSH2 0x3253 DUP3 PUSH2 0x1D66 JUMP JUMPDEST MSTORE PUSH1 0x19 PUSH2 0x325F DUP3 PUSH2 0x1D88 JUMP JUMPDEST MSTORE PUSH1 0xF PUSH2 0x326B DUP3 PUSH2 0x1D99 JUMP JUMPDEST MSTORE PUSH1 0xC8 PUSH2 0x3277 DUP3 PUSH2 0x1DAA JUMP JUMPDEST MSTORE PUSH1 0xB4 PUSH2 0x3283 DUP3 PUSH2 0x1DDD JUMP JUMPDEST MSTORE PUSH1 0x78 PUSH2 0x328F DUP3 PUSH2 0x1DBB JUMP JUMPDEST MSTORE PUSH1 0x64 PUSH2 0x329B DUP3 PUSH2 0x1DEE JUMP JUMPDEST MSTORE PUSH1 0x19 PUSH2 0x32A7 DUP3 PUSH2 0x1DCC JUMP JUMPDEST MSTORE PUSH1 0x19 PUSH2 0x32B3 DUP3 PUSH2 0x1C01 JUMP JUMPDEST MSTORE PUSH1 0x19 PUSH2 0x32BF DUP3 PUSH2 0x1C12 JUMP JUMPDEST MSTORE PUSH1 0x19 PUSH2 0x32CB DUP3 PUSH2 0x1C23 JUMP JUMPDEST MSTORE PUSH1 0x19 PUSH2 0x32D7 DUP3 PUSH2 0x1C34 JUMP JUMPDEST MSTORE PUSH1 0x19 PUSH2 0x32E3 DUP3 PUSH2 0x1C45 JUMP JUMPDEST MSTORE PUSH1 0x19 PUSH2 0x32EF DUP3 PUSH2 0x1C56 JUMP JUMPDEST MSTORE PUSH1 0x19 PUSH2 0x32FB DUP3 PUSH2 0x1C67 JUMP JUMPDEST MSTORE PUSH1 0x6 PUSH2 0x3307 DUP3 PUSH2 0x1C78 JUMP JUMPDEST MSTORE PUSH1 0x4 PUSH2 0x3313 DUP3 PUSH2 0x2041 JUMP JUMPDEST MSTORE PUSH1 0x3 PUSH2 0x331F DUP3 PUSH2 0x1BF0 JUMP JUMPDEST MSTORE PUSH1 0x2 PUSH2 0x332B DUP3 PUSH2 0x2052 JUMP JUMPDEST MSTORE PUSH1 0x2 PUSH2 0x3337 DUP3 PUSH2 0x1EDC JUMP JUMPDEST MSTORE PUSH1 0x2 PUSH2 0x3343 DUP3 PUSH2 0x2063 JUMP JUMPDEST MSTORE PUSH1 0x2 PUSH2 0x334F DUP3 PUSH2 0x20C9 JUMP JUMPDEST MSTORE PUSH1 0x2 PUSH2 0x335B DUP3 PUSH2 0x20DA JUMP JUMPDEST MSTORE PUSH1 0x2 PUSH2 0x3367 DUP3 PUSH2 0x20EB JUMP JUMPDEST MSTORE PUSH1 0x2 PUSH2 0x3373 DUP3 PUSH2 0x20FC JUMP JUMPDEST MSTORE PUSH1 0x2 PUSH2 0x337F DUP3 PUSH2 0x210D JUMP JUMPDEST MSTORE PUSH1 0x2 PUSH2 0x338B DUP3 PUSH2 0x211E JUMP JUMPDEST MSTORE PUSH1 0x1 PUSH2 0x3397 DUP3 PUSH2 0x2074 JUMP JUMPDEST MSTORE PUSH1 0x1 PUSH2 0x33A3 DUP3 PUSH2 0x2096 JUMP JUMPDEST MSTORE PUSH1 0x1 PUSH2 0x33AF DUP3 PUSH2 0x20A7 JUMP JUMPDEST MSTORE PUSH1 0x1 PUSH2 0x33BB DUP3 PUSH2 0x20B8 JUMP JUMPDEST MSTORE PUSH1 0x96 PUSH2 0x33C7 DUP3 PUSH2 0x23A4 JUMP JUMPDEST MSTORE PUSH1 0x4B PUSH2 0x33D3 DUP3 PUSH2 0x23B5 JUMP JUMPDEST MSTORE PUSH1 0x19 PUSH2 0x33DF DUP3 PUSH2 0x23C6 JUMP JUMPDEST MSTORE PUSH1 0x37 PUSH2 0x33EB DUP3 PUSH2 0x23F9 JUMP JUMPDEST MSTORE PUSH1 0x2D PUSH2 0x33F7 DUP3 PUSH2 0x241B JUMP JUMPDEST MSTORE PUSH1 0x23 PUSH2 0x3403 DUP3 PUSH2 0x240A JUMP JUMPDEST MSTORE PUSH1 0x19 PUSH2 0x340F DUP3 PUSH2 0x242C JUMP JUMPDEST MSTORE PUSH1 0xF PUSH2 0x341B DUP3 PUSH2 0x243D JUMP JUMPDEST MSTORE PUSH1 0x4 PUSH2 0x3427 DUP3 PUSH2 0x244E JUMP JUMPDEST MSTORE PUSH1 0x3 PUSH2 0x3433 DUP3 PUSH2 0x23E8 JUMP JUMPDEST MSTORE PUSH1 0x2 PUSH2 0x343F DUP3 PUSH2 0x245F JUMP JUMPDEST MSTORE PUSH1 0x1 PUSH2 0x344B DUP3 PUSH2 0x24F8 JUMP JUMPDEST MSTORE PUSH1 0x2 PUSH2 0x3457 DUP3 PUSH2 0x2470 JUMP JUMPDEST MSTORE PUSH1 0x2 PUSH2 0x3463 DUP3 PUSH2 0x2360 JUMP JUMPDEST MSTORE PUSH1 0x2 PUSH2 0x346F DUP3 PUSH2 0x2481 JUMP JUMPDEST MSTORE PUSH1 0x2 PUSH2 0x347B DUP3 PUSH2 0x2492 JUMP JUMPDEST MSTORE PUSH1 0x2 PUSH2 0x3487 DUP3 PUSH2 0x24A3 JUMP JUMPDEST MSTORE PUSH1 0x2 PUSH2 0x3493 DUP3 PUSH2 0x24B4 JUMP JUMPDEST MSTORE PUSH1 0x2 PUSH2 0x349F DUP3 PUSH2 0x24C5 JUMP JUMPDEST MSTORE PUSH1 0x2 PUSH2 0x34AB DUP3 PUSH2 0x24D6 JUMP JUMPDEST MSTORE PUSH1 0x1 PUSH2 0x34B7 DUP3 PUSH2 0x2371 JUMP JUMPDEST MSTORE PUSH1 0x1 PUSH2 0x34C3 DUP3 PUSH2 0x2382 JUMP JUMPDEST MSTORE PUSH1 0x1 PUSH2 0x34CF DUP3 PUSH2 0x2393 JUMP JUMPDEST MSTORE PUSH1 0x1 PUSH2 0x34DB DUP3 PUSH2 0x23D7 JUMP JUMPDEST MSTORE PUSH2 0x4B0 PUSH2 0x34E8 DUP3 PUSH2 0x24E7 JUMP JUMPDEST MSTORE PUSH1 0x6 PUSH2 0x34F4 DUP3 PUSH2 0x22D8 JUMP JUMPDEST MSTORE PUSH1 0x5 PUSH2 0x3500 DUP3 PUSH2 0x230B JUMP JUMPDEST MSTORE PUSH1 0x4 PUSH2 0x350C DUP3 PUSH2 0x22E9 JUMP JUMPDEST MSTORE PUSH1 0x2 PUSH2 0x3518 DUP3 PUSH2 0x231C JUMP JUMPDEST MSTORE PUSH1 0x1 PUSH2 0x3524 DUP3 PUSH2 0x22FA JUMP JUMPDEST MSTORE PUSH1 0x1 PUSH2 0x3530 DUP3 PUSH2 0x232D JUMP JUMPDEST MSTORE PUSH1 0x1 PUSH2 0x353C DUP3 PUSH2 0x233E JUMP JUMPDEST MSTORE PUSH1 0x1 PUSH2 0x3548 DUP3 PUSH2 0x234F JUMP JUMPDEST MSTORE PUSH1 0x1 PUSH2 0x3554 DUP3 PUSH2 0x2509 JUMP JUMPDEST MSTORE PUSH1 0x1 PUSH2 0x3560 DUP3 PUSH2 0x251A JUMP JUMPDEST MSTORE PUSH1 0x1 PUSH2 0x356C DUP3 PUSH2 0x252B JUMP JUMPDEST MSTORE PUSH1 0x1 PUSH2 0x3578 DUP3 PUSH2 0x253C JUMP JUMPDEST MSTORE PUSH2 0x4B0 PUSH2 0x3585 DUP3 PUSH2 0x254D JUMP JUMPDEST MSTORE PUSH1 0x37 PUSH2 0x3591 DUP3 PUSH2 0x255E JUMP JUMPDEST MSTORE PUSH1 0x2D PUSH2 0x359D DUP3 PUSH2 0x256F JUMP JUMPDEST MSTORE PUSH1 0x23 PUSH2 0x35A9 DUP3 PUSH2 0x2580 JUMP JUMPDEST MSTORE DUP1 MLOAD PUSH1 0xA9 LT ISZERO PUSH2 0x1A5B JUMPI PUSH1 0x19 PUSH2 0x1540 DUP3 ADD MSTORE DUP1 MLOAD PUSH1 0xAA LT ISZERO PUSH2 0x1A5B JUMPI PUSH1 0xF PUSH2 0x1560 DUP3 ADD MSTORE DUP1 MLOAD PUSH1 0xAB LT ISZERO PUSH2 0x1A5B JUMPI PUSH1 0x14 PUSH2 0x1580 DUP3 ADD MSTORE DUP1 MLOAD PUSH1 0xAE LT ISZERO PUSH2 0x1A5B JUMPI PUSH2 0x15C0 DUP2 ADD PUSH1 0x10 PUSH2 0x15E0 DUP4 ADD MSTORE DUP2 MLOAD PUSH1 0xAC LT ISZERO PUSH2 0x1A5B JUMPI PUSH1 0xC PUSH2 0x15A0 DUP4 ADD MSTORE DUP2 MLOAD PUSH1 0xAF LT ISZERO PUSH2 0x1A5B JUMPI PUSH1 0x8 PUSH2 0x1600 DUP4 ADD MSTORE DUP2 MLOAD PUSH1 0xAD LT ISZERO PUSH2 0x1A5B JUMPI PUSH1 0x3 SWAP1 MSTORE DUP1 MLOAD PUSH1 0xB0 LT ISZERO PUSH2 0x1A5B JUMPI PUSH1 0x3 PUSH2 0x1620 DUP3 ADD MSTORE DUP1 MLOAD PUSH1 0xB1 LT ISZERO PUSH2 0x1A5B JUMPI PUSH1 0x3 PUSH2 0x1640 DUP3 ADD MSTORE DUP1 MLOAD PUSH1 0xB2 LT ISZERO PUSH2 0x1A5B JUMPI PUSH1 0x3 PUSH2 0x1660 DUP3 ADD MSTORE DUP1 MLOAD PUSH1 0xB3 LT ISZERO PUSH2 0x1A5B JUMPI PUSH1 0x3 PUSH2 0x1680 DUP3 ADD MSTORE DUP1 MLOAD PUSH1 0xB4 LT ISZERO PUSH2 0x1A5B JUMPI PUSH1 0x3 PUSH2 0x16A0 DUP3 ADD MSTORE DUP1 MLOAD PUSH1 0xB5 LT ISZERO PUSH2 0x1A5B JUMPI PUSH1 0x3 PUSH2 0x16C0 DUP3 ADD MSTORE DUP1 MLOAD PUSH1 0xB6 LT ISZERO PUSH2 0x1A5B JUMPI PUSH1 0x3 PUSH2 0x16E0 DUP3 ADD MSTORE DUP1 MLOAD PUSH1 0xB7 LT ISZERO PUSH2 0x1A5B JUMPI PUSH1 0x32 PUSH2 0x1700 DUP3 ADD MSTORE DUP1 MLOAD PUSH1 0xB8 LT ISZERO PUSH2 0x1A5B JUMPI PUSH1 0x28 PUSH2 0x1720 DUP3 ADD MSTORE DUP1 MLOAD PUSH1 0xB9 LT ISZERO PUSH2 0x1A5B JUMPI PUSH1 0x1E PUSH2 0x1740 DUP3 ADD MSTORE DUP1 MLOAD PUSH1 0xBA LT ISZERO PUSH2 0x1A5B JUMPI PUSH1 0x14 PUSH2 0x1760 DUP3 ADD MSTORE DUP1 MLOAD PUSH1 0xBB LT ISZERO PUSH2 0x1A5B JUMPI PUSH1 0xA PUSH2 0x1780 DUP3 ADD MSTORE DUP1 MLOAD PUSH1 0xBC LT ISZERO PUSH2 0x1A5B JUMPI PUSH1 0x10 PUSH2 0x17A0 DUP3 ADD MSTORE DUP1 MLOAD PUSH1 0xBF LT ISZERO PUSH2 0x1A5B JUMPI PUSH2 0x17E0 DUP2 ADD PUSH1 0xE PUSH2 0x1800 DUP4 ADD MSTORE DUP2 MLOAD PUSH1 0xBD LT ISZERO PUSH2 0x1A5B JUMPI PUSH1 0xC PUSH2 0x17C0 DUP4 ADD MSTORE DUP2 MLOAD PUSH1 0xC0 LT ISZERO PUSH2 0x1A5B JUMPI PUSH1 0x9 PUSH2 0x1820 DUP4 ADD MSTORE DUP2 MLOAD PUSH1 0xBE LT ISZERO PUSH2 0x1A5B JUMPI PUSH1 0x3 SWAP1 MSTORE DUP1 MLOAD PUSH1 0xC1 LT ISZERO PUSH2 0x1A5B JUMPI PUSH1 0x3 PUSH2 0x1840 DUP3 ADD MSTORE DUP1 MLOAD PUSH1 0xC2 LT ISZERO PUSH2 0x1A5B JUMPI PUSH1 0x3 PUSH2 0x1860 DUP3 ADD MSTORE DUP1 MLOAD PUSH1 0xC3 LT ISZERO PUSH2 0x1A5B JUMPI PUSH1 0x3 PUSH2 0x1880 DUP3 ADD MSTORE DUP1 MLOAD PUSH1 0xC4 LT ISZERO PUSH2 0x1A5B JUMPI PUSH1 0x3 PUSH2 0x18A0 DUP3 ADD MSTORE DUP1 MLOAD PUSH1 0xC5 LT ISZERO PUSH2 0x1A5B JUMPI PUSH1 0x3 PUSH2 0x18C0 DUP3 ADD MSTORE DUP1 MLOAD PUSH1 0xC6 LT ISZERO PUSH2 0x1A5B JUMPI PUSH1 0x3 PUSH2 0x18E0 DUP3 ADD MSTORE DUP1 MLOAD PUSH1 0xC7 LT ISZERO PUSH2 0x1A5B JUMPI PUSH1 0x3 PUSH2 0x1900 DUP3 ADD MSTORE DUP1 MLOAD PUSH1 0xC8 LT ISZERO PUSH2 0x1A5B JUMPI PUSH1 0xC8 PUSH2 0x1920 DUP3 ADD MSTORE DUP1 MLOAD PUSH1 0xCB LT ISZERO PUSH2 0x1A5B JUMPI PUSH2 0x1960 DUP2 ADD PUSH1 0xB4 PUSH2 0x1980 DUP4 ADD MSTORE DUP2 MLOAD PUSH1 0xC9 LT ISZERO PUSH2 0x1A5B JUMPI PUSH1 0x78 PUSH2 0x1940 DUP4 ADD MSTORE DUP2 MLOAD PUSH1 0xCC LT ISZERO PUSH2 0x1A5B JUMPI PUSH1 0x64 PUSH2 0x19A0 DUP4 ADD MSTORE DUP2 MLOAD PUSH1 0xCA LT ISZERO PUSH2 0x1A5B JUMPI PUSH1 0x19 SWAP1 MSTORE DUP1 MLOAD PUSH1 0xCD LT ISZERO PUSH2 0x1A5B JUMPI PUSH1 0x19 PUSH2 0x19C0 DUP3 ADD MSTORE DUP1 MLOAD PUSH1 0xCE LT ISZERO PUSH2 0x1A5B JUMPI PUSH1 0x19 PUSH2 0x19E0 DUP3 ADD MSTORE DUP1 MLOAD PUSH1 0xCF LT ISZERO PUSH2 0x1A5B JUMPI PUSH1 0x19 PUSH2 0x1A00 DUP3 ADD MSTORE DUP1 MLOAD PUSH1 0xD0 LT ISZERO PUSH2 0x1A5B JUMPI PUSH1 0x19 PUSH2 0x1A20 DUP3 ADD MSTORE DUP1 MLOAD PUSH1 0xD1 LT ISZERO PUSH2 0x1A5B JUMPI PUSH1 0x19 PUSH2 0x1A40 DUP3 ADD MSTORE DUP1 MLOAD PUSH1 0xD2 LT ISZERO PUSH2 0x1A5B JUMPI PUSH1 0x19 PUSH2 0x1A60 DUP3 ADD MSTORE DUP1 MLOAD PUSH1 0xD3 LT ISZERO PUSH2 0x1A5B JUMPI PUSH2 0x38BC SWAP2 PUSH1 0x19 PUSH2 0x1A80 DUP4 ADD MSTORE PUSH2 0x4439 JUMP JUMPDEST PUSH1 0xD4 DUP2 LT ISZERO PUSH2 0x2C2 JUMPI SWAP1 JUMP JUMPDEST PUSH2 0x38DA PUSH2 0x38D5 CALLDATASIZE DUP4 PUSH2 0x25C2 JUMP JUMPDEST PUSH2 0x4536 JUMP JUMPDEST SWAP1 DUP2 ISZERO PUSH2 0x391D JUMPI JUMPDEST DUP2 ISZERO PUSH2 0x3907 JUMPI JUMPDEST POP ISZERO PUSH2 0x38F5 JUMPI POP POP PUSH0 SWAP1 JUMP JUMPDEST PUSH2 0x4B0 PUSH2 0x3901 DUP3 PUSH2 0x1A4E JUMP JUMPDEST MSTORE PUSH2 0x2DC8 JUMP JUMPDEST PUSH2 0x3917 SWAP2 POP PUSH2 0x2C58 SWAP1 CALLDATASIZE SWAP1 PUSH2 0x25C2 JUMP JUMPDEST PUSH0 PUSH2 0x38E9 JUMP JUMPDEST SWAP1 POP PUSH2 0x3931 PUSH2 0x392C CALLDATASIZE DUP4 PUSH2 0x25C2 JUMP JUMPDEST PUSH2 0x454A JUMP JUMPDEST SWAP1 PUSH2 0x38E2 JUMP JUMPDEST POP PUSH2 0x3945 PUSH2 0x2D77 CALLDATASIZE DUP4 PUSH2 0x25C2 JUMP JUMPDEST PUSH2 0x2DB4 JUMP JUMPDEST PUSH1 0x40 MLOAD SWAP1 SWAP2 PUSH2 0xB20 PUSH2 0x395C DUP2 DUP5 PUSH2 0x1997 JUMP JUMPDEST PUSH1 0x58 DUP4 MSTORE PUSH1 0x1F NOT ADD CALLDATASIZE PUSH1 0x20 DUP5 ADD CALLDATACOPY PUSH2 0x3977 PUSH2 0x29AA CALLDATASIZE DUP6 PUSH2 0x25C2 JUMP JUMPDEST ISZERO DUP1 PUSH2 0x3E6A JUMPI JUMPDEST DUP1 PUSH2 0x3E56 JUMPI JUMPDEST ISZERO PUSH2 0x3990 JUMPI POP POP POP PUSH0 SWAP1 JUMP JUMPDEST PUSH2 0x39A1 PUSH2 0x17F2 PUSH2 0x3A36 SWAP5 CALLDATASIZE SWAP1 PUSH2 0x25C2 JUMP JUMPDEST ISZERO PUSH2 0x3A42 JUMPI PUSH2 0x1388 PUSH2 0x39B2 DUP4 PUSH2 0x1A4E JUMP JUMPDEST MSTORE PUSH1 0x60 PUSH2 0x39BE DUP4 PUSH2 0x1B35 JUMP JUMPDEST MSTORE PUSH1 0x2A PUSH2 0x39CA DUP4 PUSH2 0x1AC0 JUMP JUMPDEST MSTORE PUSH1 0x2A PUSH2 0x39D6 DUP4 PUSH2 0x1B68 JUMP JUMPDEST MSTORE PUSH1 0x19 PUSH2 0x39E2 DUP4 PUSH2 0x1B79 JUMP JUMPDEST MSTORE PUSH1 0x19 PUSH2 0x39EE DUP4 PUSH2 0x1E21 JUMP JUMPDEST MSTORE PUSH1 0x1B PUSH2 0x39FA DUP4 PUSH2 0x1FEC JUMP JUMPDEST MSTORE PUSH1 0x1E PUSH2 0x3A06 DUP4 PUSH2 0x1DFF JUMP JUMPDEST MSTORE PUSH1 0x14 PUSH2 0x3A12 DUP4 PUSH2 0x1E65 JUMP JUMPDEST MSTORE PUSH1 0x23 PUSH2 0x3A1E DUP4 PUSH2 0x2195 JUMP JUMPDEST MSTORE PUSH1 0x19 PUSH2 0x3A2A DUP4 PUSH2 0x21B7 JUMP JUMPDEST MSTORE PUSH1 0x14 PUSH2 0x26D DUP4 PUSH2 0x220C JUMP JUMPDEST PUSH1 0x58 DUP2 LT ISZERO PUSH2 0x2C2 JUMPI SWAP1 JUMP JUMPDEST PUSH2 0x1388 PUSH2 0x3A4E DUP4 PUSH2 0x1A4E JUMP JUMPDEST MSTORE PUSH1 0x5A PUSH2 0x3A5A DUP4 PUSH2 0x1A7F JUMP JUMPDEST MSTORE PUSH1 0x41 PUSH2 0x3A66 DUP4 PUSH2 0x1AD1 JUMP JUMPDEST MSTORE PUSH1 0x2D PUSH2 0x3A72 DUP4 PUSH2 0x1AB0 JUMP JUMPDEST MSTORE PUSH1 0x19 PUSH2 0x3A7E DUP4 PUSH2 0x1A8F JUMP JUMPDEST MSTORE PUSH1 0x60 PUSH2 0x3A8A DUP4 PUSH2 0x1B35 JUMP JUMPDEST MSTORE PUSH1 0x2A PUSH2 0x3A96 DUP4 PUSH2 0x1AC0 JUMP JUMPDEST MSTORE PUSH1 0x2A PUSH2 0x3AA2 DUP4 PUSH2 0x1B68 JUMP JUMPDEST MSTORE PUSH1 0x4B PUSH2 0x3AAE DUP4 PUSH2 0x1A6F JUMP JUMPDEST MSTORE PUSH1 0x3C PUSH2 0x3ABA DUP4 PUSH2 0x1AE1 JUMP JUMPDEST MSTORE PUSH1 0x32 PUSH2 0x3AC6 DUP4 PUSH2 0x1A9F JUMP JUMPDEST MSTORE PUSH1 0x23 PUSH2 0x3AD2 DUP4 PUSH2 0x1B8A JUMP JUMPDEST MSTORE PUSH1 0x19 PUSH2 0x3ADE DUP4 PUSH2 0x1B79 JUMP JUMPDEST MSTORE PUSH1 0x69 PUSH2 0x3AEA DUP4 PUSH2 0x1BBD JUMP JUMPDEST MSTORE PUSH1 0x50 PUSH2 0x3AF6 DUP4 PUSH2 0x1BCE JUMP JUMPDEST MSTORE PUSH1 0x32 PUSH2 0x3B02 DUP4 PUSH2 0x1AF1 JUMP JUMPDEST MSTORE PUSH1 0x1E PUSH2 0x3B0E DUP4 PUSH2 0x1B9B JUMP JUMPDEST MSTORE PUSH1 0x9B PUSH2 0x3B1A DUP4 PUSH2 0x1BAC JUMP JUMPDEST MSTORE PUSH1 0x73 PUSH2 0x3B26 DUP4 PUSH2 0x1B02 JUMP JUMPDEST MSTORE PUSH1 0x50 PUSH2 0x3B32 DUP4 PUSH2 0x1B46 JUMP JUMPDEST MSTORE PUSH1 0x28 PUSH2 0x3B3E DUP4 PUSH2 0x1B13 JUMP JUMPDEST MSTORE PUSH1 0x64 PUSH2 0x3B4A DUP4 PUSH2 0x1B24 JUMP JUMPDEST MSTORE PUSH1 0x55 PUSH2 0x3B56 DUP4 PUSH2 0x1B57 JUMP JUMPDEST MSTORE PUSH1 0x3C PUSH2 0x3B62 DUP4 PUSH2 0x1E10 JUMP JUMPDEST MSTORE PUSH1 0x2D PUSH2 0x3B6E DUP4 PUSH2 0x1E32 JUMP JUMPDEST MSTORE PUSH1 0x19 PUSH2 0x3B7A DUP4 PUSH2 0x1E21 JUMP JUMPDEST MSTORE PUSH1 0x6B PUSH2 0x3B86 DUP4 PUSH2 0x1FB9 JUMP JUMPDEST MSTORE PUSH1 0x57 PUSH2 0x3B92 DUP4 PUSH2 0x1FCA JUMP JUMPDEST MSTORE PUSH1 0x43 PUSH2 0x3B9E DUP4 PUSH2 0x1FDB JUMP JUMPDEST MSTORE PUSH1 0x2F PUSH2 0x3BAA DUP4 PUSH2 0x1FFD JUMP JUMPDEST MSTORE PUSH1 0x1B PUSH2 0x3BB6 DUP4 PUSH2 0x1FEC JUMP JUMPDEST MSTORE PUSH1 0x46 PUSH2 0x3BC2 DUP4 PUSH2 0x200E JUMP JUMPDEST MSTORE PUSH1 0x32 PUSH2 0x3BCE DUP4 PUSH2 0x201F JUMP JUMPDEST MSTORE PUSH1 0x23 PUSH2 0x3BDA DUP4 PUSH2 0x2030 JUMP JUMPDEST MSTORE PUSH1 0x14 PUSH2 0x3BE6 DUP4 PUSH2 0x1E43 JUMP JUMPDEST MSTORE PUSH1 0x28 PUSH2 0x3BF2 DUP4 PUSH2 0x1C9A JUMP JUMPDEST MSTORE PUSH1 0x1E PUSH2 0x3BFE DUP4 PUSH2 0x1CAB JUMP JUMPDEST MSTORE PUSH1 0x14 PUSH2 0x3C0A DUP4 PUSH2 0x1CBC JUMP JUMPDEST MSTORE PUSH1 0xA PUSH2 0x3C16 DUP4 PUSH2 0x1CCD JUMP JUMPDEST MSTORE PUSH1 0x8C PUSH2 0x3C22 DUP4 PUSH2 0x1CDE JUMP JUMPDEST MSTORE PUSH1 0x69 PUSH2 0x3C2E DUP4 PUSH2 0x1CEF JUMP JUMPDEST MSTORE PUSH1 0x46 PUSH2 0x3C3A DUP4 PUSH2 0x1D00 JUMP JUMPDEST MSTORE PUSH1 0x28 PUSH2 0x3C46 DUP4 PUSH2 0x1D11 JUMP JUMPDEST MSTORE PUSH1 0x78 PUSH2 0x3C52 DUP4 PUSH2 0x1C89 JUMP JUMPDEST MSTORE PUSH1 0x5F PUSH2 0x3C5E DUP4 PUSH2 0x2294 JUMP JUMPDEST MSTORE PUSH1 0x4B PUSH2 0x3C6A DUP4 PUSH2 0x1EFE JUMP JUMPDEST MSTORE PUSH1 0x32 PUSH2 0x3C76 DUP4 PUSH2 0x1EED JUMP JUMPDEST MSTORE PUSH1 0x1E PUSH2 0x3C82 DUP4 PUSH2 0x1DFF JUMP JUMPDEST MSTORE PUSH1 0x4B PUSH2 0x3C8E DUP4 PUSH2 0x1F42 JUMP JUMPDEST MSTORE PUSH1 0x3C PUSH2 0x3C9A DUP4 PUSH2 0x1F53 JUMP JUMPDEST MSTORE PUSH1 0x23 PUSH2 0x3CA6 DUP4 PUSH2 0x1F64 JUMP JUMPDEST MSTORE PUSH1 0x14 PUSH2 0x3CB2 DUP4 PUSH2 0x1F75 JUMP JUMPDEST MSTORE PUSH1 0x5A PUSH2 0x3CBE DUP4 PUSH2 0x1F86 JUMP JUMPDEST MSTORE PUSH1 0x4B PUSH2 0x3CCA DUP4 PUSH2 0x1F97 JUMP JUMPDEST MSTORE PUSH1 0x37 PUSH2 0x3CD6 DUP4 PUSH2 0x1FA8 JUMP JUMPDEST MSTORE PUSH1 0x28 PUSH2 0x3CE2 DUP4 PUSH2 0x1E76 JUMP JUMPDEST MSTORE PUSH1 0x14 PUSH2 0x3CEE DUP4 PUSH2 0x1E65 JUMP JUMPDEST MSTORE PUSH1 0x5F PUSH2 0x3CFA DUP4 PUSH2 0x1E87 JUMP JUMPDEST MSTORE PUSH1 0x4B PUSH2 0x3D06 DUP4 PUSH2 0x1E98 JUMP JUMPDEST MSTORE PUSH1 0x32 PUSH2 0x3D12 DUP4 PUSH2 0x1EA9 JUMP JUMPDEST MSTORE PUSH1 0x19 PUSH2 0x3D1E DUP4 PUSH2 0x1EBA JUMP JUMPDEST MSTORE PUSH1 0x37 PUSH2 0x3D2A DUP4 PUSH2 0x1ECB JUMP JUMPDEST MSTORE PUSH1 0x2D PUSH2 0x3D36 DUP4 PUSH2 0x1D22 JUMP JUMPDEST MSTORE PUSH1 0x19 PUSH2 0x3D42 DUP4 PUSH2 0x22B6 JUMP JUMPDEST MSTORE PUSH1 0xF PUSH2 0x3D4E DUP4 PUSH2 0x22C7 JUMP JUMPDEST MSTORE PUSH1 0x2D PUSH2 0x3D5A DUP4 PUSH2 0x22A5 JUMP JUMPDEST MSTORE PUSH1 0x23 PUSH2 0x3D66 DUP4 PUSH2 0x212F JUMP JUMPDEST MSTORE PUSH1 0x19 PUSH2 0x3D72 DUP4 PUSH2 0x2140 JUMP JUMPDEST MSTORE PUSH1 0xF PUSH2 0x3D7E DUP4 PUSH2 0x2151 JUMP JUMPDEST MSTORE PUSH1 0x82 PUSH2 0x3D8A DUP4 PUSH2 0x2162 JUMP JUMPDEST MSTORE PUSH1 0x69 PUSH2 0x3D96 DUP4 PUSH2 0x2173 JUMP JUMPDEST MSTORE PUSH1 0x50 PUSH2 0x3DA2 DUP4 PUSH2 0x2184 JUMP JUMPDEST MSTORE PUSH1 0x37 PUSH2 0x3DAE DUP4 PUSH2 0x21A6 JUMP JUMPDEST MSTORE PUSH1 0x23 PUSH2 0x3DBA DUP4 PUSH2 0x2195 JUMP JUMPDEST MSTORE PUSH1 0x5F PUSH2 0x3DC6 DUP4 PUSH2 0x1F0F JUMP JUMPDEST MSTORE PUSH1 0x4B PUSH2 0x3DD2 DUP4 PUSH2 0x1F20 JUMP JUMPDEST MSTORE PUSH1 0x3C PUSH2 0x3DDE DUP4 PUSH2 0x1D33 JUMP JUMPDEST MSTORE PUSH1 0x2D PUSH2 0x3DEA DUP4 PUSH2 0x21C8 JUMP JUMPDEST MSTORE PUSH1 0x19 PUSH2 0x3DF6 DUP4 PUSH2 0x21B7 JUMP JUMPDEST MSTORE PUSH1 0x3C PUSH2 0x3E02 DUP4 PUSH2 0x21D9 JUMP JUMPDEST MSTORE PUSH1 0x2D PUSH2 0x3E0E DUP4 PUSH2 0x21EA JUMP JUMPDEST MSTORE PUSH1 0x1E PUSH2 0x3E1A DUP4 PUSH2 0x1F31 JUMP JUMPDEST MSTORE PUSH1 0x14 PUSH2 0x3E26 DUP4 PUSH2 0x2085 JUMP JUMPDEST MSTORE PUSH1 0x41 PUSH2 0x3E32 DUP4 PUSH2 0x1BDF JUMP JUMPDEST MSTORE PUSH1 0x37 PUSH2 0x3E3E DUP4 PUSH2 0x1E54 JUMP JUMPDEST MSTORE PUSH1 0x28 PUSH2 0x3E4A DUP4 PUSH2 0x21FB JUMP JUMPDEST MSTORE PUSH1 0x1E PUSH2 0x3A2A DUP4 PUSH2 0x221D JUMP JUMPDEST POP PUSH2 0x3E64 PUSH2 0x17F2 CALLDATASIZE DUP6 PUSH2 0x25C2 JUMP JUMPDEST ISZERO PUSH2 0x3984 JUMP JUMPDEST POP PUSH2 0x3E78 PUSH2 0x2D77 CALLDATASIZE DUP6 PUSH2 0x25C2 JUMP JUMPDEST ISZERO PUSH2 0x397E JUMP JUMPDEST PUSH1 0x40 MLOAD SWAP1 SWAP2 PUSH2 0xD60 PUSH2 0x3E90 DUP2 DUP5 PUSH2 0x1997 JUMP JUMPDEST PUSH1 0x6A DUP4 MSTORE PUSH1 0x1F NOT ADD CALLDATASIZE PUSH1 0x20 DUP5 ADD CALLDATACOPY PUSH2 0x3EAB PUSH2 0x38D5 CALLDATASIZE DUP6 PUSH2 0x25C2 JUMP JUMPDEST DUP1 ISZERO PUSH2 0x4426 JUMPI JUMPDEST DUP1 ISZERO PUSH2 0x4413 JUMPI JUMPDEST ISZERO PUSH2 0x3EC5 JUMPI POP POP POP PUSH0 SWAP1 JUMP JUMPDEST PUSH2 0x43DF SWAP3 PUSH2 0x3ED6 PUSH2 0x29AA CALLDATASIZE DUP4 PUSH2 0x25C2 JUMP JUMPDEST SWAP1 DUP2 ISZERO PUSH2 0x43FD JUMPI JUMPDEST POP ISZERO PUSH2 0x43EB JUMPI PUSH2 0x190 PUSH2 0x3EF0 DUP4 PUSH2 0x1A4E JUMP JUMPDEST MSTORE JUMPDEST PUSH1 0xFA PUSH2 0x3EFD DUP4 PUSH2 0x1B8A JUMP JUMPDEST MSTORE PUSH1 0xE1 PUSH2 0x3F09 DUP4 PUSH2 0x1B68 JUMP JUMPDEST MSTORE PUSH1 0xC8 PUSH2 0x3F15 DUP4 PUSH2 0x1AE1 JUMP JUMPDEST MSTORE PUSH1 0xB9 PUSH2 0x3F21 DUP4 PUSH2 0x1A9F JUMP JUMPDEST MSTORE PUSH1 0xAF PUSH2 0x3F2D DUP4 PUSH2 0x1AC0 JUMP JUMPDEST MSTORE PUSH1 0xA5 PUSH2 0x3F39 DUP4 PUSH2 0x1B79 JUMP JUMPDEST MSTORE PUSH2 0x4B0 PUSH2 0x3F46 DUP4 PUSH2 0x22B6 JUMP JUMPDEST MSTORE PUSH2 0x4B0 PUSH2 0x3F53 DUP4 PUSH2 0x1D33 JUMP JUMPDEST MSTORE PUSH1 0xC8 PUSH2 0x3F5F DUP4 PUSH2 0x1B35 JUMP JUMPDEST MSTORE PUSH1 0xAF PUSH2 0x3F6B DUP4 PUSH2 0x1AF1 JUMP JUMPDEST MSTORE PUSH1 0x96 PUSH2 0x3F77 DUP4 PUSH2 0x1BBD JUMP JUMPDEST MSTORE PUSH1 0x75 PUSH2 0x3F83 DUP4 PUSH2 0x1B9B JUMP JUMPDEST MSTORE PUSH1 0x1A PUSH2 0x3F8F DUP4 PUSH2 0x1BCE JUMP JUMPDEST MSTORE PUSH1 0x1A PUSH2 0x3F9B DUP4 PUSH2 0x1BAC JUMP JUMPDEST MSTORE PUSH1 0x1A PUSH2 0x3FA7 DUP4 PUSH2 0x1B02 JUMP JUMPDEST MSTORE PUSH1 0x1A PUSH2 0x3FB3 DUP4 PUSH2 0x1B46 JUMP JUMPDEST MSTORE PUSH1 0x1A PUSH2 0x3FBF DUP4 PUSH2 0x1B13 JUMP JUMPDEST MSTORE PUSH1 0x1A PUSH2 0x3FCB DUP4 PUSH2 0x1B24 JUMP JUMPDEST MSTORE PUSH1 0x1A PUSH2 0x3FD7 DUP4 PUSH2 0x1B57 JUMP JUMPDEST MSTORE PUSH1 0x1A PUSH2 0x3FE3 DUP4 PUSH2 0x1E10 JUMP JUMPDEST MSTORE PUSH1 0xC8 PUSH2 0x3FEF DUP4 PUSH2 0x1F42 JUMP JUMPDEST MSTORE PUSH1 0xB4 PUSH2 0x3FFB DUP4 PUSH2 0x1F75 JUMP JUMPDEST MSTORE PUSH1 0x78 PUSH2 0x4007 DUP4 PUSH2 0x1F53 JUMP JUMPDEST MSTORE PUSH1 0x64 PUSH2 0x4013 DUP4 PUSH2 0x1F86 JUMP JUMPDEST MSTORE PUSH1 0x19 PUSH2 0x401F DUP4 PUSH2 0x1F64 JUMP JUMPDEST MSTORE PUSH1 0x19 PUSH2 0x402B DUP4 PUSH2 0x1F97 JUMP JUMPDEST MSTORE PUSH1 0x19 PUSH2 0x4037 DUP4 PUSH2 0x1FA8 JUMP JUMPDEST MSTORE PUSH1 0x19 PUSH2 0x4043 DUP4 PUSH2 0x1E65 JUMP JUMPDEST MSTORE PUSH1 0x19 PUSH2 0x404F DUP4 PUSH2 0x1E76 JUMP JUMPDEST MSTORE PUSH1 0x19 PUSH2 0x405B DUP4 PUSH2 0x1E87 JUMP JUMPDEST MSTORE PUSH1 0x19 PUSH2 0x4067 DUP4 PUSH2 0x1E98 JUMP JUMPDEST MSTORE PUSH1 0x19 PUSH2 0x4073 DUP4 PUSH2 0x1EA9 JUMP JUMPDEST MSTORE PUSH1 0xC8 PUSH2 0x407F DUP4 PUSH2 0x1D44 JUMP JUMPDEST MSTORE PUSH1 0xB4 PUSH2 0x408B DUP4 PUSH2 0x1D55 JUMP JUMPDEST MSTORE PUSH1 0x78 PUSH2 0x4097 DUP4 PUSH2 0x1D77 JUMP JUMPDEST MSTORE PUSH1 0x64 PUSH2 0x40A3 DUP4 PUSH2 0x1D88 JUMP JUMPDEST MSTORE PUSH1 0x19 PUSH2 0x40AF DUP4 PUSH2 0x1D66 JUMP JUMPDEST MSTORE PUSH1 0x19 PUSH2 0x40BB DUP4 PUSH2 0x1D99 JUMP JUMPDEST MSTORE PUSH1 0x19 PUSH2 0x40C7 DUP4 PUSH2 0x1DAA JUMP JUMPDEST MSTORE PUSH1 0x19 PUSH2 0x40D3 DUP4 PUSH2 0x1DBB JUMP JUMPDEST MSTORE PUSH1 0x19 PUSH2 0x40DF DUP4 PUSH2 0x1DCC JUMP JUMPDEST MSTORE PUSH1 0x19 PUSH2 0x40EB DUP4 PUSH2 0x1DDD JUMP JUMPDEST MSTORE PUSH1 0x19 PUSH2 0x40F7 DUP4 PUSH2 0x1DEE JUMP JUMPDEST MSTORE PUSH1 0x19 PUSH2 0x4103 DUP4 PUSH2 0x1C01 JUMP JUMPDEST MSTORE PUSH1 0xE1 PUSH2 0x410F DUP4 PUSH2 0x1A7F JUMP JUMPDEST MSTORE PUSH1 0xC8 PUSH2 0x411B DUP4 PUSH2 0x1AD1 JUMP JUMPDEST MSTORE PUSH1 0x8C PUSH2 0x4127 DUP4 PUSH2 0x1AB0 JUMP JUMPDEST MSTORE PUSH1 0x64 PUSH2 0x4133 DUP4 PUSH2 0x1A8F JUMP JUMPDEST MSTORE PUSH1 0x55 PUSH2 0x413F DUP4 PUSH2 0x1A6F JUMP JUMPDEST MSTORE PUSH1 0x96 PUSH2 0x414B DUP4 PUSH2 0x1EBA JUMP JUMPDEST MSTORE PUSH1 0x4B PUSH2 0x4157 DUP4 PUSH2 0x1ECB JUMP JUMPDEST MSTORE PUSH1 0x19 PUSH2 0x4163 DUP4 PUSH2 0x1D22 JUMP JUMPDEST MSTORE PUSH1 0x3B PUSH2 0x416F DUP4 PUSH2 0x1CAB JUMP JUMPDEST MSTORE PUSH1 0x2D PUSH2 0x417B DUP4 PUSH2 0x1CDE JUMP JUMPDEST MSTORE PUSH1 0x23 PUSH2 0x4187 DUP4 PUSH2 0x1CBC JUMP JUMPDEST MSTORE PUSH1 0x1E PUSH2 0x4193 DUP4 PUSH2 0x1CEF JUMP JUMPDEST MSTORE PUSH1 0x7 PUSH2 0x419F DUP4 PUSH2 0x1CCD JUMP JUMPDEST MSTORE PUSH1 0x7 PUSH2 0x41AB DUP4 PUSH2 0x1D00 JUMP JUMPDEST MSTORE PUSH1 0x7 PUSH2 0x41B7 DUP4 PUSH2 0x1D11 JUMP JUMPDEST MSTORE PUSH1 0x7 PUSH2 0x41C3 DUP4 PUSH2 0x1C89 JUMP JUMPDEST MSTORE PUSH1 0x7 PUSH2 0x41CF DUP4 PUSH2 0x2294 JUMP JUMPDEST MSTORE PUSH1 0x7 PUSH2 0x41DB DUP4 PUSH2 0x1EFE JUMP JUMPDEST MSTORE PUSH1 0x7 PUSH2 0x41E7 DUP4 PUSH2 0x1DFF JUMP JUMPDEST MSTORE PUSH1 0x7 PUSH2 0x41F3 DUP4 PUSH2 0x1EED JUMP JUMPDEST MSTORE PUSH1 0x32 PUSH2 0x41FF DUP4 PUSH2 0x223F JUMP JUMPDEST MSTORE PUSH1 0x28 PUSH2 0x420B DUP4 PUSH2 0x2261 JUMP JUMPDEST MSTORE PUSH1 0x1E PUSH2 0x4217 DUP4 PUSH2 0x2250 JUMP JUMPDEST MSTORE PUSH1 0x14 PUSH2 0x4223 DUP4 PUSH2 0x2272 JUMP JUMPDEST MSTORE PUSH1 0xA PUSH2 0x422F DUP4 PUSH2 0x2283 JUMP JUMPDEST MSTORE PUSH1 0x14 PUSH2 0x423B DUP4 PUSH2 0x21B7 JUMP JUMPDEST MSTORE PUSH1 0x10 PUSH2 0x4247 DUP4 PUSH2 0x21EA JUMP JUMPDEST MSTORE PUSH1 0xC PUSH2 0x4253 DUP4 PUSH2 0x21C8 JUMP JUMPDEST MSTORE PUSH1 0x8 PUSH2 0x425F DUP4 PUSH2 0x1F31 JUMP JUMPDEST MSTORE PUSH1 0x3 PUSH2 0x426B DUP4 PUSH2 0x21D9 JUMP JUMPDEST MSTORE PUSH1 0x3 PUSH2 0x4277 DUP4 PUSH2 0x2085 JUMP JUMPDEST MSTORE PUSH1 0x3 PUSH2 0x4283 DUP4 PUSH2 0x1BDF JUMP JUMPDEST MSTORE PUSH1 0x3 PUSH2 0x428F DUP4 PUSH2 0x1E54 JUMP JUMPDEST MSTORE PUSH1 0x3 PUSH2 0x429B DUP4 PUSH2 0x21FB JUMP JUMPDEST MSTORE PUSH1 0x3 PUSH2 0x42A7 DUP4 PUSH2 0x220C JUMP JUMPDEST MSTORE PUSH1 0x3 PUSH2 0x42B3 DUP4 PUSH2 0x221D JUMP JUMPDEST MSTORE PUSH1 0x3 PUSH2 0x42BF DUP4 PUSH2 0x222E JUMP JUMPDEST MSTORE PUSH1 0xC PUSH2 0x42CB DUP4 PUSH2 0x1E21 JUMP JUMPDEST MSTORE PUSH1 0x9 PUSH2 0x42D7 DUP4 PUSH2 0x1E32 JUMP JUMPDEST MSTORE PUSH1 0x7 PUSH2 0x42E3 DUP4 PUSH2 0x1FCA JUMP JUMPDEST MSTORE PUSH1 0x6 PUSH2 0x42EF DUP4 PUSH2 0x1FDB JUMP JUMPDEST MSTORE PUSH1 0x2 PUSH2 0x42FB DUP4 PUSH2 0x1FB9 JUMP JUMPDEST MSTORE PUSH1 0x2 PUSH2 0x4307 DUP4 PUSH2 0x1FEC JUMP JUMPDEST MSTORE PUSH1 0x2 PUSH2 0x4313 DUP4 PUSH2 0x1FFD JUMP JUMPDEST MSTORE PUSH1 0x2 PUSH2 0x431F DUP4 PUSH2 0x200E JUMP JUMPDEST MSTORE PUSH1 0x2 PUSH2 0x432B DUP4 PUSH2 0x201F JUMP JUMPDEST MSTORE PUSH1 0x2 PUSH2 0x4337 DUP4 PUSH2 0x2030 JUMP JUMPDEST MSTORE PUSH1 0x2 PUSH2 0x4343 DUP4 PUSH2 0x1E43 JUMP JUMPDEST MSTORE PUSH1 0x2 PUSH2 0x434F DUP4 PUSH2 0x1C9A JUMP JUMPDEST MSTORE PUSH1 0x6 PUSH2 0x435B DUP4 PUSH2 0x22C7 JUMP JUMPDEST MSTORE PUSH1 0x5 PUSH2 0x4367 DUP4 PUSH2 0x2140 JUMP JUMPDEST MSTORE PUSH1 0x4 PUSH2 0x4373 DUP4 PUSH2 0x22A5 JUMP JUMPDEST MSTORE PUSH1 0x2 PUSH2 0x437F DUP4 PUSH2 0x2151 JUMP JUMPDEST MSTORE PUSH1 0x1 PUSH2 0x438B DUP4 PUSH2 0x212F JUMP JUMPDEST MSTORE PUSH1 0x1 PUSH2 0x4397 DUP4 PUSH2 0x2162 JUMP JUMPDEST MSTORE PUSH1 0x1 PUSH2 0x43A3 DUP4 PUSH2 0x2173 JUMP JUMPDEST MSTORE PUSH1 0x1 PUSH2 0x43AF DUP4 PUSH2 0x2184 JUMP JUMPDEST MSTORE PUSH1 0x1 PUSH2 0x43BB DUP4 PUSH2 0x2195 JUMP JUMPDEST MSTORE PUSH1 0x1 PUSH2 0x43C7 DUP4 PUSH2 0x21A6 JUMP JUMPDEST MSTORE PUSH1 0x1 PUSH2 0x43D3 DUP4 PUSH2 0x1F0F JUMP JUMPDEST MSTORE PUSH1 0x1 PUSH2 0x26D DUP4 PUSH2 0x1F20 JUMP JUMPDEST PUSH1 0x6A DUP2 LT ISZERO PUSH2 0x2C2 JUMPI SWAP1 JUMP JUMPDEST PUSH2 0x320 PUSH2 0x43F7 DUP4 PUSH2 0x1A4E JUMP JUMPDEST MSTORE PUSH2 0x3EF2 JUMP JUMPDEST PUSH2 0x440D SWAP2 POP PUSH2 0x2D77 SWAP1 CALLDATASIZE SWAP1 PUSH2 0x25C2 JUMP JUMPDEST PUSH0 PUSH2 0x3EDE JUMP JUMPDEST POP PUSH2 0x4421 PUSH2 0x2C58 CALLDATASIZE DUP6 PUSH2 0x25C2 JUMP JUMPDEST PUSH2 0x3EB9 JUMP JUMPDEST POP PUSH2 0x4434 PUSH2 0x392C CALLDATASIZE DUP6 PUSH2 0x25C2 JUMP JUMPDEST PUSH2 0x3EB2 JUMP JUMPDEST SWAP1 PUSH0 SWAP3 PUSH0 SWAP4 JUMPDEST DUP3 MLOAD DUP6 LT ISZERO PUSH2 0x4463 JUMPI PUSH1 0x1 SWAP1 PUSH2 0xFFFF PUSH2 0x4458 DUP8 DUP7 PUSH2 0x2591 JUMP JUMPDEST MLOAD AND ADD SWAP5 ADD SWAP4 PUSH2 0x443F JUMP JUMPDEST SWAP1 SWAP4 POP PUSH1 0x20 DUP4 ADD PUSH1 0x1 DUP2 MLOAD ADD DUP1 SWAP2 MSTORE DUP4 MLOAD SWAP1 PUSH1 0x40 MLOAD SWAP1 PUSH1 0x20 DUP3 ADD SWAP3 DUP4 MSTORE PUSH1 0x40 DUP3 ADD MSTORE PUSH1 0x40 DUP2 MSTORE PUSH2 0x4494 PUSH1 0x60 DUP3 PUSH2 0x1997 JUMP JUMPDEST MLOAD SWAP1 KECCAK256 DUP1 SWAP4 MSTORE DUP1 ISZERO PUSH2 0x44AE JUMPI PUSH2 0x44AB SWAP3 MOD SWAP1 PUSH2 0x455E JUMP JUMPDEST SWAP1 JUMP JUMPDEST PUSH4 0x4E487B71 PUSH1 0xE0 SHL PUSH0 MSTORE PUSH1 0x12 PUSH1 0x4 MSTORE PUSH1 0x24 PUSH0 REVERT JUMPDEST PUSH2 0x100 ADD DUP1 MLOAD PUSH1 0x1D DUP2 LT ISZERO PUSH2 0x2C2 JUMPI PUSH1 0xFF PUSH1 0x7 SWAP2 AND LT ISZERO SWAP1 DUP2 PUSH2 0x44E3 JUMPI POP SWAP1 JUMP JUMPDEST SWAP1 POP MLOAD PUSH1 0x1D DUP2 LT ISZERO PUSH2 0x2C2 JUMPI PUSH1 0xFF PUSH1 0xA SWAP2 AND GT ISZERO SWAP1 JUMP JUMPDEST PUSH2 0x100 ADD MLOAD PUSH1 0x1D DUP2 LT ISZERO PUSH2 0x2C2 JUMPI PUSH1 0x1C EQ SWAP1 JUMP JUMPDEST PUSH2 0x100 ADD MLOAD PUSH1 0x1D DUP2 LT ISZERO PUSH2 0x2C2 JUMPI PUSH1 0x4 EQ SWAP1 JUMP JUMPDEST PUSH2 0x100 ADD MLOAD PUSH1 0x1D DUP2 LT ISZERO PUSH2 0x2C2 JUMPI PUSH1 0x19 EQ SWAP1 JUMP JUMPDEST PUSH2 0x100 ADD MLOAD PUSH1 0x1D DUP2 LT ISZERO PUSH2 0x2C2 JUMPI PUSH1 0x16 EQ SWAP1 JUMP JUMPDEST PUSH2 0x100 ADD MLOAD PUSH1 0x1D DUP2 LT ISZERO PUSH2 0x2C2 JUMPI PUSH1 0x14 EQ SWAP1 JUMP JUMPDEST SWAP1 PUSH0 DUP1 JUMPDEST DUP4 MLOAD DUP3 LT ISZERO PUSH2 0x4593 JUMPI PUSH2 0xFFFF PUSH2 0x4578 DUP4 DUP7 PUSH2 0x2591 JUMP JUMPDEST MLOAD AND ADD SWAP1 DUP2 DUP4 LT PUSH2 0x458C JUMPI PUSH1 0x1 ADD SWAP1 PUSH2 0x4562 JUMP JUMPDEST SWAP3 POP POP POP SWAP1 JUMP JUMPDEST PUSH1 0x40 MLOAD PUSH3 0x461BCD PUSH1 0xE5 SHL DUP2 MSTORE PUSH1 0x20 PUSH1 0x4 DUP3 ADD MSTORE PUSH1 0x10 PUSH1 0x24 DUP3 ADD MSTORE PUSH16 0x14D95B1958DD1A5BDB8819985A5B1959 PUSH1 0x82 SHL PUSH1 0x44 DUP3 ADD MSTORE PUSH1 0x64 SWAP1 REVERT INVALID LOG2 PUSH5 0x6970667358 0x22 SLT KECCAK256 0xDF 0x21 0x28 MCOPY SWAP4 PUSH7 0xF87F11AE454A2B PUSH25 0x325F6C85222ED39030FDFDD3501BBB22337E64736F6C634300 ADDMOD 0x1E STOP CALLER "
		},
		"gasEstimates": {
			"creation": {
				"codeDepositCost": "3584200",
				"executionCost": "4046",
				"totalCost": "3588246"
			},
			"external": {
				"selectMaleChain((uint256,uint256))": "infinite",
				"selectMaleEarring((uint256,uint256))": "infinite",
				"selectMaleEyeWear((uint256,uint256))": "infinite",
				"selectMaleEyes(((uint8,uint8,bool,(uint8,uint8))[],uint8,uint16,uint256,uint16,uint32,uint8,uint8,uint8,uint8,uint8,uint8,uint8,uint8,uint8,uint8,uint8,uint8,uint8,uint8,uint8,uint8,uint8,uint8,uint8,uint8,uint8,uint8,uint8,uint8,uint8,uint8),(uint256,uint256))": "infinite",
				"selectMaleFace(((uint8,uint8,bool,(uint8,uint8))[],uint8,uint16,uint256,uint16,uint32,uint8,uint8,uint8,uint8,uint8,uint8,uint8,uint8,uint8,uint8,uint8,uint8,uint8,uint8,uint8,uint8,uint8,uint8,uint8,uint8,uint8,uint8,uint8,uint8,uint8,uint8),(uint256,uint256))": "infinite",
				"selectMaleFacialHair(((uint8,uint8,bool,(uint8,uint8))[],uint8,uint16,uint256,uint16,uint32,uint8,uint8,uint8,uint8,uint8,uint8,uint8,uint8,uint8,uint8,uint8,uint8,uint8,uint8,uint8,uint8,uint8,uint8,uint8,uint8,uint8,uint8,uint8,uint8,uint8,uint8),(uint256,uint256))": "infinite",
				"selectMaleHair(((uint8,uint8,bool,(uint8,uint8))[],uint8,uint16,uint256,uint16,uint32,uint8,uint8,uint8,uint8,uint8,uint8,uint8,uint8,uint8,uint8,uint8,uint8,uint8,uint8,uint8,uint8,uint8,uint8,uint8,uint8,uint8,uint8,uint8,uint8,uint8,uint8),(uint256,uint256))": "infinite",
				"selectMaleHatHair(((uint8,uint8,bool,(uint8,uint8))[],uint8,uint16,uint256,uint16,uint32,uint8,uint8,uint8,uint8,uint8,uint8,uint8,uint8,uint8,uint8,uint8,uint8,uint8,uint8,uint8,uint8,uint8,uint8,uint8,uint8,uint8,uint8,uint8,uint8,uint8,uint8),(uint256,uint256))": "infinite",
				"selectMaleHeadwear((uint256,uint256))": "infinite",
				"selectMaleMask((uint256,uint256))": "infinite",
				"selectMaleScarf((uint256,uint256))": "infinite",
				"selectMaleSkin((uint256,uint256))": "infinite",
				"selectMouth(((uint8,uint8,bool,(uint8,uint8))[],uint8,uint16,uint256,uint16,uint32,uint8,uint8,uint8,uint8,uint8,uint8,uint8,uint8,uint8,uint8,uint8,uint8,uint8,uint8,uint8,uint8,uint8,uint8,uint8,uint8,uint8,uint8,uint8,uint8,uint8,uint8),(uint256,uint256))": "infinite"
			}
		},
		"methodIdentifiers": {
			"selectMaleChain((uint256,uint256))": "146e3eef",
			"selectMaleEarring((uint256,uint256))": "eafa510a",
			"selectMaleEyeWear((uint256,uint256))": "42b2ba9e",
			"selectMaleEyes(((uint8,uint8,bool,(uint8,uint8))[],uint8,uint16,uint256,uint16,uint32,uint8,uint8,uint8,uint8,uint8,uint8,uint8,uint8,uint8,uint8,uint8,uint8,uint8,uint8,uint8,uint8,uint8,uint8,uint8,uint8,uint8,uint8,uint8,uint8,uint8,uint8),(uint256,uint256))": "3775819b",
			"selectMaleFace(((uint8,uint8,bool,(uint8,uint8))[],uint8,uint16,uint256,uint16,uint32,uint8,uint8,uint8,uint8,uint8,uint8,uint8,uint8,uint8,uint8,uint8,uint8,uint8,uint8,uint8,uint8,uint8,uint8,uint8,uint8,uint8,uint8,uint8,uint8,uint8,uint8),(uint256,uint256))": "2cbd5f51",
			"selectMaleFacialHair(((uint8,uint8,bool,(uint8,uint8))[],uint8,uint16,uint256,uint16,uint32,uint8,uint8,uint8,uint8,uint8,uint8,uint8,uint8,uint8,uint8,uint8,uint8,uint8,uint8,uint8,uint8,uint8,uint8,uint8,uint8,uint8,uint8,uint8,uint8,uint8,uint8),(uint256,uint256))": "3e8af2ff",
			"selectMaleHair(((uint8,uint8,bool,(uint8,uint8))[],uint8,uint16,uint256,uint16,uint32,uint8,uint8,uint8,uint8,uint8,uint8,uint8,uint8,uint8,uint8,uint8,uint8,uint8,uint8,uint8,uint8,uint8,uint8,uint8,uint8,uint8,uint8,uint8,uint8,uint8,uint8),(uint256,uint256))": "2e2d64ec",
			"selectMaleHatHair(((uint8,uint8,bool,(uint8,uint8))[],uint8,uint16,uint256,uint16,uint32,uint8,uint8,uint8,uint8,uint8,uint8,uint8,uint8,uint8,uint8,uint8,uint8,uint8,uint8,uint8,uint8,uint8,uint8,uint8,uint8,uint8,uint8,uint8,uint8,uint8,uint8),(uint256,uint256))": "44701528",
			"selectMaleHeadwear((uint256,uint256))": "4f4f0d07",
			"selectMaleMask((uint256,uint256))": "e7449565",
			"selectMaleScarf((uint256,uint256))": "4e87244f",
			"selectMaleSkin((uint256,uint256))": "f120bcf0",
			"selectMouth(((uint8,uint8,bool,(uint8,uint8))[],uint8,uint16,uint256,uint16,uint32,uint8,uint8,uint8,uint8,uint8,uint8,uint8,uint8,uint8,uint8,uint8,uint8,uint8,uint8,uint8,uint8,uint8,uint8,uint8,uint8,uint8,uint8,uint8,uint8,uint8,uint8),(uint256,uint256))": "fdd1f51a"
		}
	},
	"abi": [
		{
			"inputs": [
				{
					"components": [
						{
							"internalType": "uint256",
							"name": "seed",
							"type": "uint256"
						},
						{
							"internalType": "uint256",
							"name": "counter",
							"type": "uint256"
						}
					],
					"internalType": "struct RandomCtx",
					"name": "rndCtx",
					"type": "tuple"
				}
			],
			"name": "selectMaleChain",
			"outputs": [
				{
					"internalType": "enum E_Male_Chain",
					"name": "",
					"type": "uint8"
				}
			],
			"stateMutability": "pure",
			"type": "function"
		},
		{
			"inputs": [
				{
					"components": [
						{
							"internalType": "uint256",
							"name": "seed",
							"type": "uint256"
						},
						{
							"internalType": "uint256",
							"name": "counter",
							"type": "uint256"
						}
					],
					"internalType": "struct RandomCtx",
					"name": "rndCtx",
					"type": "tuple"
				}
			],
			"name": "selectMaleEarring",
			"outputs": [
				{
					"internalType": "enum E_Male_Earring",
					"name": "",
					"type": "uint8"
				}
			],
			"stateMutability": "pure",
			"type": "function"
		},
		{
			"inputs": [
				{
					"components": [
						{
							"internalType": "uint256",
							"name": "seed",
							"type": "uint256"
						},
						{
							"internalType": "uint256",
							"name": "counter",
							"type": "uint256"
						}
					],
					"internalType": "struct RandomCtx",
					"name": "rndCtx",
					"type": "tuple"
				}
			],
			"name": "selectMaleEyeWear",
			"outputs": [
				{
					"internalType": "enum E_Male_Eye_Wear",
					"name": "",
					"type": "uint8"
				}
			],
			"stateMutability": "pure",
			"type": "function"
		},
		{
			"inputs": [
				{
					"components": [
						{
							"components": [
								{
									"internalType": "enum E_TraitsGroup",
									"name": "traitGroup",
									"type": "uint8"
								},
								{
									"internalType": "uint8",
									"name": "traitIndex",
									"type": "uint8"
								},
								{
									"internalType": "bool",
									"name": "hasFiller",
									"type": "bool"
								},
								{
									"components": [
										{
											"internalType": "enum E_TraitsGroup",
											"name": "traitGroup",
											"type": "uint8"
										},
										{
											"internalType": "uint8",
											"name": "traitIndex",
											"type": "uint8"
										}
									],
									"internalType": "struct FillerTrait",
									"name": "filler",
									"type": "tuple"
								}
							],
							"internalType": "struct TraitToRender[]",
							"name": "traitsToRender",
							"type": "tuple[]"
						},
						{
							"internalType": "uint8",
							"name": "traitsToRenderLength",
							"type": "uint8"
						},
						{
							"internalType": "uint16",
							"name": "tokenIdSeed",
							"type": "uint16"
						},
						{
							"internalType": "uint256",
							"name": "globalSeed",
							"type": "uint256"
						},
						{
							"internalType": "uint16",
							"name": "specialId",
							"type": "uint16"
						},
						{
							"internalType": "uint32",
							"name": "birthday",
							"type": "uint32"
						},
						{
							"internalType": "enum E_Sex",
							"name": "sex",
							"type": "uint8"
						},
						{
							"internalType": "enum E_Background",
							"name": "background",
							"type": "uint8"
						},
						{
							"internalType": "enum E_Male_Skin",
							"name": "maleSkin",
							"type": "uint8"
						},
						{
							"internalType": "enum E_Male_Eyes",
							"name": "maleEyes",
							"type": "uint8"
						},
						{
							"internalType": "enum E_Male_Face",
							"name": "maleFace",
							"type": "uint8"
						},
						{
							"internalType": "enum E_Male_Chain",
							"name": "maleChain",
							"type": "uint8"
						},
						{
							"internalType": "enum E_Male_Earring",
							"name": "maleEarring",
							"type": "uint8"
						},
						{
							"internalType": "enum E_Male_Scarf",
							"name": "maleScarf",
							"type": "uint8"
						},
						{
							"internalType": "enum E_Male_Facial_Hair",
							"name": "maleFacialHair",
							"type": "uint8"
						},
						{
							"internalType": "enum E_Male_Mask",
							"name": "maleMask",
							"type": "uint8"
						},
						{
							"internalType": "enum E_Male_Hair",
							"name": "maleHair",
							"type": "uint8"
						},
						{
							"internalType": "enum E_Male_Hat_Hair",
							"name": "maleHatHair",
							"type": "uint8"
						},
						{
							"internalType": "enum E_Male_Headwear",
							"name": "maleHeadwear",
							"type": "uint8"
						},
						{
							"internalType": "enum E_Male_Eye_Wear",
							"name": "maleEyeWear",
							"type": "uint8"
						},
						{
							"internalType": "enum E_Female_Skin",
							"name": "femaleSkin",
							"type": "uint8"
						},
						{
							"internalType": "enum E_Female_Eyes",
							"name": "femaleEyes",
							"type": "uint8"
						},
						{
							"internalType": "enum E_Female_Face",
							"name": "femaleFace",
							"type": "uint8"
						},
						{
							"internalType": "enum E_Female_Chain",
							"name": "femaleChain",
							"type": "uint8"
						},
						{
							"internalType": "enum E_Female_Earring",
							"name": "femaleEarring",
							"type": "uint8"
						},
						{
							"internalType": "enum E_Female_Scarf",
							"name": "femaleScarf",
							"type": "uint8"
						},
						{
							"internalType": "enum E_Female_Mask",
							"name": "femaleMask",
							"type": "uint8"
						},
						{
							"internalType": "enum E_Female_Hair",
							"name": "femaleHair",
							"type": "uint8"
						},
						{
							"internalType": "enum E_Female_Hat_Hair",
							"name": "femaleHatHair",
							"type": "uint8"
						},
						{
							"internalType": "enum E_Female_Headwear",
							"name": "femaleHeadwear",
							"type": "uint8"
						},
						{
							"internalType": "enum E_Female_Eye_Wear",
							"name": "femaleEyeWear",
							"type": "uint8"
						},
						{
							"internalType": "enum E_Mouth",
							"name": "mouth",
							"type": "uint8"
						}
					],
					"internalType": "struct TraitsContext",
					"name": "traits",
					"type": "tuple"
				},
				{
					"components": [
						{
							"internalType": "uint256",
							"name": "seed",
							"type": "uint256"
						},
						{
							"internalType": "uint256",
							"name": "counter",
							"type": "uint256"
						}
					],
					"internalType": "struct RandomCtx",
					"name": "rndCtx",
					"type": "tuple"
				}
			],
			"name": "selectMaleEyes",
			"outputs": [
				{
					"internalType": "enum E_Male_Eyes",
					"name": "",
					"type": "uint8"
				}
			],
			"stateMutability": "pure",
			"type": "function"
		},
		{
			"inputs": [
				{
					"components": [
						{
							"components": [
								{
									"internalType": "enum E_TraitsGroup",
									"name": "traitGroup",
									"type": "uint8"
								},
								{
									"internalType": "uint8",
									"name": "traitIndex",
									"type": "uint8"
								},
								{
									"internalType": "bool",
									"name": "hasFiller",
									"type": "bool"
								},
								{
									"components": [
										{
											"internalType": "enum E_TraitsGroup",
											"name": "traitGroup",
											"type": "uint8"
										},
										{
											"internalType": "uint8",
											"name": "traitIndex",
											"type": "uint8"
										}
									],
									"internalType": "struct FillerTrait",
									"name": "filler",
									"type": "tuple"
								}
							],
							"internalType": "struct TraitToRender[]",
							"name": "traitsToRender",
							"type": "tuple[]"
						},
						{
							"internalType": "uint8",
							"name": "traitsToRenderLength",
							"type": "uint8"
						},
						{
							"internalType": "uint16",
							"name": "tokenIdSeed",
							"type": "uint16"
						},
						{
							"internalType": "uint256",
							"name": "globalSeed",
							"type": "uint256"
						},
						{
							"internalType": "uint16",
							"name": "specialId",
							"type": "uint16"
						},
						{
							"internalType": "uint32",
							"name": "birthday",
							"type": "uint32"
						},
						{
							"internalType": "enum E_Sex",
							"name": "sex",
							"type": "uint8"
						},
						{
							"internalType": "enum E_Background",
							"name": "background",
							"type": "uint8"
						},
						{
							"internalType": "enum E_Male_Skin",
							"name": "maleSkin",
							"type": "uint8"
						},
						{
							"internalType": "enum E_Male_Eyes",
							"name": "maleEyes",
							"type": "uint8"
						},
						{
							"internalType": "enum E_Male_Face",
							"name": "maleFace",
							"type": "uint8"
						},
						{
							"internalType": "enum E_Male_Chain",
							"name": "maleChain",
							"type": "uint8"
						},
						{
							"internalType": "enum E_Male_Earring",
							"name": "maleEarring",
							"type": "uint8"
						},
						{
							"internalType": "enum E_Male_Scarf",
							"name": "maleScarf",
							"type": "uint8"
						},
						{
							"internalType": "enum E_Male_Facial_Hair",
							"name": "maleFacialHair",
							"type": "uint8"
						},
						{
							"internalType": "enum E_Male_Mask",
							"name": "maleMask",
							"type": "uint8"
						},
						{
							"internalType": "enum E_Male_Hair",
							"name": "maleHair",
							"type": "uint8"
						},
						{
							"internalType": "enum E_Male_Hat_Hair",
							"name": "maleHatHair",
							"type": "uint8"
						},
						{
							"internalType": "enum E_Male_Headwear",
							"name": "maleHeadwear",
							"type": "uint8"
						},
						{
							"internalType": "enum E_Male_Eye_Wear",
							"name": "maleEyeWear",
							"type": "uint8"
						},
						{
							"internalType": "enum E_Female_Skin",
							"name": "femaleSkin",
							"type": "uint8"
						},
						{
							"internalType": "enum E_Female_Eyes",
							"name": "femaleEyes",
							"type": "uint8"
						},
						{
							"internalType": "enum E_Female_Face",
							"name": "femaleFace",
							"type": "uint8"
						},
						{
							"internalType": "enum E_Female_Chain",
							"name": "femaleChain",
							"type": "uint8"
						},
						{
							"internalType": "enum E_Female_Earring",
							"name": "femaleEarring",
							"type": "uint8"
						},
						{
							"internalType": "enum E_Female_Scarf",
							"name": "femaleScarf",
							"type": "uint8"
						},
						{
							"internalType": "enum E_Female_Mask",
							"name": "femaleMask",
							"type": "uint8"
						},
						{
							"internalType": "enum E_Female_Hair",
							"name": "femaleHair",
							"type": "uint8"
						},
						{
							"internalType": "enum E_Female_Hat_Hair",
							"name": "femaleHatHair",
							"type": "uint8"
						},
						{
							"internalType": "enum E_Female_Headwear",
							"name": "femaleHeadwear",
							"type": "uint8"
						},
						{
							"internalType": "enum E_Female_Eye_Wear",
							"name": "femaleEyeWear",
							"type": "uint8"
						},
						{
							"internalType": "enum E_Mouth",
							"name": "mouth",
							"type": "uint8"
						}
					],
					"internalType": "struct TraitsContext",
					"name": "traits",
					"type": "tuple"
				},
				{
					"components": [
						{
							"internalType": "uint256",
							"name": "seed",
							"type": "uint256"
						},
						{
							"internalType": "uint256",
							"name": "counter",
							"type": "uint256"
						}
					],
					"internalType": "struct RandomCtx",
					"name": "rndCtx",
					"type": "tuple"
				}
			],
			"name": "selectMaleFace",
			"outputs": [
				{
					"internalType": "enum E_Male_Face",
					"name": "",
					"type": "uint8"
				}
			],
			"stateMutability": "pure",
			"type": "function"
		},
		{
			"inputs": [
				{
					"components": [
						{
							"components": [
								{
									"internalType": "enum E_TraitsGroup",
									"name": "traitGroup",
									"type": "uint8"
								},
								{
									"internalType": "uint8",
									"name": "traitIndex",
									"type": "uint8"
								},
								{
									"internalType": "bool",
									"name": "hasFiller",
									"type": "bool"
								},
								{
									"components": [
										{
											"internalType": "enum E_TraitsGroup",
											"name": "traitGroup",
											"type": "uint8"
										},
										{
											"internalType": "uint8",
											"name": "traitIndex",
											"type": "uint8"
										}
									],
									"internalType": "struct FillerTrait",
									"name": "filler",
									"type": "tuple"
								}
							],
							"internalType": "struct TraitToRender[]",
							"name": "traitsToRender",
							"type": "tuple[]"
						},
						{
							"internalType": "uint8",
							"name": "traitsToRenderLength",
							"type": "uint8"
						},
						{
							"internalType": "uint16",
							"name": "tokenIdSeed",
							"type": "uint16"
						},
						{
							"internalType": "uint256",
							"name": "globalSeed",
							"type": "uint256"
						},
						{
							"internalType": "uint16",
							"name": "specialId",
							"type": "uint16"
						},
						{
							"internalType": "uint32",
							"name": "birthday",
							"type": "uint32"
						},
						{
							"internalType": "enum E_Sex",
							"name": "sex",
							"type": "uint8"
						},
						{
							"internalType": "enum E_Background",
							"name": "background",
							"type": "uint8"
						},
						{
							"internalType": "enum E_Male_Skin",
							"name": "maleSkin",
							"type": "uint8"
						},
						{
							"internalType": "enum E_Male_Eyes",
							"name": "maleEyes",
							"type": "uint8"
						},
						{
							"internalType": "enum E_Male_Face",
							"name": "maleFace",
							"type": "uint8"
						},
						{
							"internalType": "enum E_Male_Chain",
							"name": "maleChain",
							"type": "uint8"
						},
						{
							"internalType": "enum E_Male_Earring",
							"name": "maleEarring",
							"type": "uint8"
						},
						{
							"internalType": "enum E_Male_Scarf",
							"name": "maleScarf",
							"type": "uint8"
						},
						{
							"internalType": "enum E_Male_Facial_Hair",
							"name": "maleFacialHair",
							"type": "uint8"
						},
						{
							"internalType": "enum E_Male_Mask",
							"name": "maleMask",
							"type": "uint8"
						},
						{
							"internalType": "enum E_Male_Hair",
							"name": "maleHair",
							"type": "uint8"
						},
						{
							"internalType": "enum E_Male_Hat_Hair",
							"name": "maleHatHair",
							"type": "uint8"
						},
						{
							"internalType": "enum E_Male_Headwear",
							"name": "maleHeadwear",
							"type": "uint8"
						},
						{
							"internalType": "enum E_Male_Eye_Wear",
							"name": "maleEyeWear",
							"type": "uint8"
						},
						{
							"internalType": "enum E_Female_Skin",
							"name": "femaleSkin",
							"type": "uint8"
						},
						{
							"internalType": "enum E_Female_Eyes",
							"name": "femaleEyes",
							"type": "uint8"
						},
						{
							"internalType": "enum E_Female_Face",
							"name": "femaleFace",
							"type": "uint8"
						},
						{
							"internalType": "enum E_Female_Chain",
							"name": "femaleChain",
							"type": "uint8"
						},
						{
							"internalType": "enum E_Female_Earring",
							"name": "femaleEarring",
							"type": "uint8"
						},
						{
							"internalType": "enum E_Female_Scarf",
							"name": "femaleScarf",
							"type": "uint8"
						},
						{
							"internalType": "enum E_Female_Mask",
							"name": "femaleMask",
							"type": "uint8"
						},
						{
							"internalType": "enum E_Female_Hair",
							"name": "femaleHair",
							"type": "uint8"
						},
						{
							"internalType": "enum E_Female_Hat_Hair",
							"name": "femaleHatHair",
							"type": "uint8"
						},
						{
							"internalType": "enum E_Female_Headwear",
							"name": "femaleHeadwear",
							"type": "uint8"
						},
						{
							"internalType": "enum E_Female_Eye_Wear",
							"name": "femaleEyeWear",
							"type": "uint8"
						},
						{
							"internalType": "enum E_Mouth",
							"name": "mouth",
							"type": "uint8"
						}
					],
					"internalType": "struct TraitsContext",
					"name": "traits",
					"type": "tuple"
				},
				{
					"components": [
						{
							"internalType": "uint256",
							"name": "seed",
							"type": "uint256"
						},
						{
							"internalType": "uint256",
							"name": "counter",
							"type": "uint256"
						}
					],
					"internalType": "struct RandomCtx",
					"name": "rndCtx",
					"type": "tuple"
				}
			],
			"name": "selectMaleFacialHair",
			"outputs": [
				{
					"internalType": "enum E_Male_Facial_Hair",
					"name": "",
					"type": "uint8"
				}
			],
			"stateMutability": "pure",
			"type": "function"
		},
		{
			"inputs": [
				{
					"components": [
						{
							"components": [
								{
									"internalType": "enum E_TraitsGroup",
									"name": "traitGroup",
									"type": "uint8"
								},
								{
									"internalType": "uint8",
									"name": "traitIndex",
									"type": "uint8"
								},
								{
									"internalType": "bool",
									"name": "hasFiller",
									"type": "bool"
								},
								{
									"components": [
										{
											"internalType": "enum E_TraitsGroup",
											"name": "traitGroup",
											"type": "uint8"
										},
										{
											"internalType": "uint8",
											"name": "traitIndex",
											"type": "uint8"
										}
									],
									"internalType": "struct FillerTrait",
									"name": "filler",
									"type": "tuple"
								}
							],
							"internalType": "struct TraitToRender[]",
							"name": "traitsToRender",
							"type": "tuple[]"
						},
						{
							"internalType": "uint8",
							"name": "traitsToRenderLength",
							"type": "uint8"
						},
						{
							"internalType": "uint16",
							"name": "tokenIdSeed",
							"type": "uint16"
						},
						{
							"internalType": "uint256",
							"name": "globalSeed",
							"type": "uint256"
						},
						{
							"internalType": "uint16",
							"name": "specialId",
							"type": "uint16"
						},
						{
							"internalType": "uint32",
							"name": "birthday",
							"type": "uint32"
						},
						{
							"internalType": "enum E_Sex",
							"name": "sex",
							"type": "uint8"
						},
						{
							"internalType": "enum E_Background",
							"name": "background",
							"type": "uint8"
						},
						{
							"internalType": "enum E_Male_Skin",
							"name": "maleSkin",
							"type": "uint8"
						},
						{
							"internalType": "enum E_Male_Eyes",
							"name": "maleEyes",
							"type": "uint8"
						},
						{
							"internalType": "enum E_Male_Face",
							"name": "maleFace",
							"type": "uint8"
						},
						{
							"internalType": "enum E_Male_Chain",
							"name": "maleChain",
							"type": "uint8"
						},
						{
							"internalType": "enum E_Male_Earring",
							"name": "maleEarring",
							"type": "uint8"
						},
						{
							"internalType": "enum E_Male_Scarf",
							"name": "maleScarf",
							"type": "uint8"
						},
						{
							"internalType": "enum E_Male_Facial_Hair",
							"name": "maleFacialHair",
							"type": "uint8"
						},
						{
							"internalType": "enum E_Male_Mask",
							"name": "maleMask",
							"type": "uint8"
						},
						{
							"internalType": "enum E_Male_Hair",
							"name": "maleHair",
							"type": "uint8"
						},
						{
							"internalType": "enum E_Male_Hat_Hair",
							"name": "maleHatHair",
							"type": "uint8"
						},
						{
							"internalType": "enum E_Male_Headwear",
							"name": "maleHeadwear",
							"type": "uint8"
						},
						{
							"internalType": "enum E_Male_Eye_Wear",
							"name": "maleEyeWear",
							"type": "uint8"
						},
						{
							"internalType": "enum E_Female_Skin",
							"name": "femaleSkin",
							"type": "uint8"
						},
						{
							"internalType": "enum E_Female_Eyes",
							"name": "femaleEyes",
							"type": "uint8"
						},
						{
							"internalType": "enum E_Female_Face",
							"name": "femaleFace",
							"type": "uint8"
						},
						{
							"internalType": "enum E_Female_Chain",
							"name": "femaleChain",
							"type": "uint8"
						},
						{
							"internalType": "enum E_Female_Earring",
							"name": "femaleEarring",
							"type": "uint8"
						},
						{
							"internalType": "enum E_Female_Scarf",
							"name": "femaleScarf",
							"type": "uint8"
						},
						{
							"internalType": "enum E_Female_Mask",
							"name": "femaleMask",
							"type": "uint8"
						},
						{
							"internalType": "enum E_Female_Hair",
							"name": "femaleHair",
							"type": "uint8"
						},
						{
							"internalType": "enum E_Female_Hat_Hair",
							"name": "femaleHatHair",
							"type": "uint8"
						},
						{
							"internalType": "enum E_Female_Headwear",
							"name": "femaleHeadwear",
							"type": "uint8"
						},
						{
							"internalType": "enum E_Female_Eye_Wear",
							"name": "femaleEyeWear",
							"type": "uint8"
						},
						{
							"internalType": "enum E_Mouth",
							"name": "mouth",
							"type": "uint8"
						}
					],
					"internalType": "struct TraitsContext",
					"name": "traits",
					"type": "tuple"
				},
				{
					"components": [
						{
							"internalType": "uint256",
							"name": "seed",
							"type": "uint256"
						},
						{
							"internalType": "uint256",
							"name": "counter",
							"type": "uint256"
						}
					],
					"internalType": "struct RandomCtx",
					"name": "rndCtx",
					"type": "tuple"
				}
			],
			"name": "selectMaleHair",
			"outputs": [
				{
					"internalType": "enum E_Male_Hair",
					"name": "",
					"type": "uint8"
				}
			],
			"stateMutability": "pure",
			"type": "function"
		},
		{
			"inputs": [
				{
					"components": [
						{
							"components": [
								{
									"internalType": "enum E_TraitsGroup",
									"name": "traitGroup",
									"type": "uint8"
								},
								{
									"internalType": "uint8",
									"name": "traitIndex",
									"type": "uint8"
								},
								{
									"internalType": "bool",
									"name": "hasFiller",
									"type": "bool"
								},
								{
									"components": [
										{
											"internalType": "enum E_TraitsGroup",
											"name": "traitGroup",
											"type": "uint8"
										},
										{
											"internalType": "uint8",
											"name": "traitIndex",
											"type": "uint8"
										}
									],
									"internalType": "struct FillerTrait",
									"name": "filler",
									"type": "tuple"
								}
							],
							"internalType": "struct TraitToRender[]",
							"name": "traitsToRender",
							"type": "tuple[]"
						},
						{
							"internalType": "uint8",
							"name": "traitsToRenderLength",
							"type": "uint8"
						},
						{
							"internalType": "uint16",
							"name": "tokenIdSeed",
							"type": "uint16"
						},
						{
							"internalType": "uint256",
							"name": "globalSeed",
							"type": "uint256"
						},
						{
							"internalType": "uint16",
							"name": "specialId",
							"type": "uint16"
						},
						{
							"internalType": "uint32",
							"name": "birthday",
							"type": "uint32"
						},
						{
							"internalType": "enum E_Sex",
							"name": "sex",
							"type": "uint8"
						},
						{
							"internalType": "enum E_Background",
							"name": "background",
							"type": "uint8"
						},
						{
							"internalType": "enum E_Male_Skin",
							"name": "maleSkin",
							"type": "uint8"
						},
						{
							"internalType": "enum E_Male_Eyes",
							"name": "maleEyes",
							"type": "uint8"
						},
						{
							"internalType": "enum E_Male_Face",
							"name": "maleFace",
							"type": "uint8"
						},
						{
							"internalType": "enum E_Male_Chain",
							"name": "maleChain",
							"type": "uint8"
						},
						{
							"internalType": "enum E_Male_Earring",
							"name": "maleEarring",
							"type": "uint8"
						},
						{
							"internalType": "enum E_Male_Scarf",
							"name": "maleScarf",
							"type": "uint8"
						},
						{
							"internalType": "enum E_Male_Facial_Hair",
							"name": "maleFacialHair",
							"type": "uint8"
						},
						{
							"internalType": "enum E_Male_Mask",
							"name": "maleMask",
							"type": "uint8"
						},
						{
							"internalType": "enum E_Male_Hair",
							"name": "maleHair",
							"type": "uint8"
						},
						{
							"internalType": "enum E_Male_Hat_Hair",
							"name": "maleHatHair",
							"type": "uint8"
						},
						{
							"internalType": "enum E_Male_Headwear",
							"name": "maleHeadwear",
							"type": "uint8"
						},
						{
							"internalType": "enum E_Male_Eye_Wear",
							"name": "maleEyeWear",
							"type": "uint8"
						},
						{
							"internalType": "enum E_Female_Skin",
							"name": "femaleSkin",
							"type": "uint8"
						},
						{
							"internalType": "enum E_Female_Eyes",
							"name": "femaleEyes",
							"type": "uint8"
						},
						{
							"internalType": "enum E_Female_Face",
							"name": "femaleFace",
							"type": "uint8"
						},
						{
							"internalType": "enum E_Female_Chain",
							"name": "femaleChain",
							"type": "uint8"
						},
						{
							"internalType": "enum E_Female_Earring",
							"name": "femaleEarring",
							"type": "uint8"
						},
						{
							"internalType": "enum E_Female_Scarf",
							"name": "femaleScarf",
							"type": "uint8"
						},
						{
							"internalType": "enum E_Female_Mask",
							"name": "femaleMask",
							"type": "uint8"
						},
						{
							"internalType": "enum E_Female_Hair",
							"name": "femaleHair",
							"type": "uint8"
						},
						{
							"internalType": "enum E_Female_Hat_Hair",
							"name": "femaleHatHair",
							"type": "uint8"
						},
						{
							"internalType": "enum E_Female_Headwear",
							"name": "femaleHeadwear",
							"type": "uint8"
						},
						{
							"internalType": "enum E_Female_Eye_Wear",
							"name": "femaleEyeWear",
							"type": "uint8"
						},
						{
							"internalType": "enum E_Mouth",
							"name": "mouth",
							"type": "uint8"
						}
					],
					"internalType": "struct TraitsContext",
					"name": "traits",
					"type": "tuple"
				},
				{
					"components": [
						{
							"internalType": "uint256",
							"name": "seed",
							"type": "uint256"
						},
						{
							"internalType": "uint256",
							"name": "counter",
							"type": "uint256"
						}
					],
					"internalType": "struct RandomCtx",
					"name": "rndCtx",
					"type": "tuple"
				}
			],
			"name": "selectMaleHatHair",
			"outputs": [
				{
					"internalType": "enum E_Male_Hat_Hair",
					"name": "",
					"type": "uint8"
				}
			],
			"stateMutability": "pure",
			"type": "function"
		},
		{
			"inputs": [
				{
					"components": [
						{
							"internalType": "uint256",
							"name": "seed",
							"type": "uint256"
						},
						{
							"internalType": "uint256",
							"name": "counter",
							"type": "uint256"
						}
					],
					"internalType": "struct RandomCtx",
					"name": "rndCtx",
					"type": "tuple"
				}
			],
			"name": "selectMaleHeadwear",
			"outputs": [
				{
					"internalType": "enum E_Male_Headwear",
					"name": "",
					"type": "uint8"
				}
			],
			"stateMutability": "pure",
			"type": "function"
		},
		{
			"inputs": [
				{
					"components": [
						{
							"internalType": "uint256",
							"name": "seed",
							"type": "uint256"
						},
						{
							"internalType": "uint256",
							"name": "counter",
							"type": "uint256"
						}
					],
					"internalType": "struct RandomCtx",
					"name": "rndCtx",
					"type": "tuple"
				}
			],
			"name": "selectMaleMask",
			"outputs": [
				{
					"internalType": "enum E_Male_Mask",
					"name": "",
					"type": "uint8"
				}
			],
			"stateMutability": "pure",
			"type": "function"
		},
		{
			"inputs": [
				{
					"components": [
						{
							"internalType": "uint256",
							"name": "seed",
							"type": "uint256"
						},
						{
							"internalType": "uint256",
							"name": "counter",
							"type": "uint256"
						}
					],
					"internalType": "struct RandomCtx",
					"name": "rndCtx",
					"type": "tuple"
				}
			],
			"name": "selectMaleScarf",
			"outputs": [
				{
					"internalType": "enum E_Male_Scarf",
					"name": "",
					"type": "uint8"
				}
			],
			"stateMutability": "pure",
			"type": "function"
		},
		{
			"inputs": [
				{
					"components": [
						{
							"internalType": "uint256",
							"name": "seed",
							"type": "uint256"
						},
						{
							"internalType": "uint256",
							"name": "counter",
							"type": "uint256"
						}
					],
					"internalType": "struct RandomCtx",
					"name": "rndCtx",
					"type": "tuple"
				}
			],
			"name": "selectMaleSkin",
			"outputs": [
				{
					"internalType": "enum E_Male_Skin",
					"name": "",
					"type": "uint8"
				}
			],
			"stateMutability": "pure",
			"type": "function"
		},
		{
			"inputs": [
				{
					"components": [
						{
							"components": [
								{
									"internalType": "enum E_TraitsGroup",
									"name": "traitGroup",
									"type": "uint8"
								},
								{
									"internalType": "uint8",
									"name": "traitIndex",
									"type": "uint8"
								},
								{
									"internalType": "bool",
									"name": "hasFiller",
									"type": "bool"
								},
								{
									"components": [
										{
											"internalType": "enum E_TraitsGroup",
											"name": "traitGroup",
											"type": "uint8"
										},
										{
											"internalType": "uint8",
											"name": "traitIndex",
											"type": "uint8"
										}
									],
									"internalType": "struct FillerTrait",
									"name": "filler",
									"type": "tuple"
								}
							],
							"internalType": "struct TraitToRender[]",
							"name": "traitsToRender",
							"type": "tuple[]"
						},
						{
							"internalType": "uint8",
							"name": "traitsToRenderLength",
							"type": "uint8"
						},
						{
							"internalType": "uint16",
							"name": "tokenIdSeed",
							"type": "uint16"
						},
						{
							"internalType": "uint256",
							"name": "globalSeed",
							"type": "uint256"
						},
						{
							"internalType": "uint16",
							"name": "specialId",
							"type": "uint16"
						},
						{
							"internalType": "uint32",
							"name": "birthday",
							"type": "uint32"
						},
						{
							"internalType": "enum E_Sex",
							"name": "sex",
							"type": "uint8"
						},
						{
							"internalType": "enum E_Background",
							"name": "background",
							"type": "uint8"
						},
						{
							"internalType": "enum E_Male_Skin",
							"name": "maleSkin",
							"type": "uint8"
						},
						{
							"internalType": "enum E_Male_Eyes",
							"name": "maleEyes",
							"type": "uint8"
						},
						{
							"internalType": "enum E_Male_Face",
							"name": "maleFace",
							"type": "uint8"
						},
						{
							"internalType": "enum E_Male_Chain",
							"name": "maleChain",
							"type": "uint8"
						},
						{
							"internalType": "enum E_Male_Earring",
							"name": "maleEarring",
							"type": "uint8"
						},
						{
							"internalType": "enum E_Male_Scarf",
							"name": "maleScarf",
							"type": "uint8"
						},
						{
							"internalType": "enum E_Male_Facial_Hair",
							"name": "maleFacialHair",
							"type": "uint8"
						},
						{
							"internalType": "enum E_Male_Mask",
							"name": "maleMask",
							"type": "uint8"
						},
						{
							"internalType": "enum E_Male_Hair",
							"name": "maleHair",
							"type": "uint8"
						},
						{
							"internalType": "enum E_Male_Hat_Hair",
							"name": "maleHatHair",
							"type": "uint8"
						},
						{
							"internalType": "enum E_Male_Headwear",
							"name": "maleHeadwear",
							"type": "uint8"
						},
						{
							"internalType": "enum E_Male_Eye_Wear",
							"name": "maleEyeWear",
							"type": "uint8"
						},
						{
							"internalType": "enum E_Female_Skin",
							"name": "femaleSkin",
							"type": "uint8"
						},
						{
							"internalType": "enum E_Female_Eyes",
							"name": "femaleEyes",
							"type": "uint8"
						},
						{
							"internalType": "enum E_Female_Face",
							"name": "femaleFace",
							"type": "uint8"
						},
						{
							"internalType": "enum E_Female_Chain",
							"name": "femaleChain",
							"type": "uint8"
						},
						{
							"internalType": "enum E_Female_Earring",
							"name": "femaleEarring",
							"type": "uint8"
						},
						{
							"internalType": "enum E_Female_Scarf",
							"name": "femaleScarf",
							"type": "uint8"
						},
						{
							"internalType": "enum E_Female_Mask",
							"name": "femaleMask",
							"type": "uint8"
						},
						{
							"internalType": "enum E_Female_Hair",
							"name": "femaleHair",
							"type": "uint8"
						},
						{
							"internalType": "enum E_Female_Hat_Hair",
							"name": "femaleHatHair",
							"type": "uint8"
						},
						{
							"internalType": "enum E_Female_Headwear",
							"name": "femaleHeadwear",
							"type": "uint8"
						},
						{
							"internalType": "enum E_Female_Eye_Wear",
							"name": "femaleEyeWear",
							"type": "uint8"
						},
						{
							"internalType": "enum E_Mouth",
							"name": "mouth",
							"type": "uint8"
						}
					],
					"internalType": "struct TraitsContext",
					"name": "traits",
					"type": "tuple"
				},
				{
					"components": [
						{
							"internalType": "uint256",
							"name": "seed",
							"type": "uint256"
						},
						{
							"internalType": "uint256",
							"name": "counter",
							"type": "uint256"
						}
					],
					"internalType": "struct RandomCtx",
					"name": "rndCtx",
					"type": "tuple"
				}
			],
			"name": "selectMouth",
			"outputs": [
				{
					"internalType": "enum E_Mouth",
					"name": "",
					"type": "uint8"
				}
			],
			"stateMutability": "pure",
			"type": "function"
		}
	]
}