{
	"data": {
		"bytecode": {
			"linkReferences": {},
			"object": "6080604052348015600e575f5ffd5b5061fc558061001c5f395ff3fe608060405234801561000f575f5ffd5b50600436106100e8575f3560e01c8063886815ff1161008a578063d571806311610064578063d5718063146102cc578063d908ec45146102fc578063e74495651461032c578063eafa510a1461035c576100e8565b8063886815ff1461023c578063afec691c1461026c578063b5f4debb1461029c576100e8565b806348048824116100c6578063480488241461017c5780634e87244f146101ac5780634f4f0d07146101dc5780636d4637d91461020c576100e8565b8063146e3eef146100ec57806325e2eca01461011c57806342b2ba9e1461014c575b5f5ffd5b6101066004803603810190610101919061ead0565b61038c565b604051610113919061eb6e565b60405180910390f35b6101366004803603810190610131919061ebaa565b610631565b604051610143919061ec4a565b60405180910390f35b6101666004803603810190610161919061ead0565b610c5b565b604051610173919061eca9565b60405180910390f35b6101966004803603810190610191919061ebaa565b612b60565b6040516101a3919061ed08565b60405180910390f35b6101c660048036038101906101c1919061ead0565b615ff8565b6040516101d3919061ed67565b60405180910390f35b6101f660048036038101906101f1919061ead0565b616166565b604051610203919061edc6565b60405180910390f35b6102266004803603810190610221919061ebaa565b618a8f565b604051610233919061ee25565b60405180910390f35b6102566004803603810190610251919061ead0565b618e5c565b604051610263919061ee84565b60405180910390f35b6102866004803603810190610281919061ead0565b6195a7565b604051610293919061eee3565b60405180910390f35b6102b660048036038101906102b1919061ebaa565b6198ca565b6040516102c3919061ef42565b60405180910390f35b6102e660048036038101906102e1919061ebaa565b61b1ee565b6040516102f3919061efa1565b60405180910390f35b6103166004803603810190610311919061ebaa565b61ccda565b604051610323919061f000565b60405180910390f35b6103466004803603810190610341919061ead0565b61d898565b604051610353919061f05f565b60405180910390f35b6103766004803603810190610371919061ead0565b61de24565b604051610383919061f0be565b60405180910390f35b5f5f600967ffffffffffffffff8111156103a9576103a861e9d4565b5b6040519080825280602002602001820160405280156103d75781602001602082028036833780820191505090505b509050612328815f60088111156103f1576103f061eafb565b5b815181106104025761040161f0d7565b5b602002602001019061ffff16908161ffff168152505061015e81600560088111156104305761042f61eafb565b5b815181106104415761044061f0d7565b5b602002602001019061ffff16908161ffff168152505060fa816001600881111561046e5761046d61eafb565b5b8151811061047f5761047e61f0d7565b5b602002602001019061ffff16908161ffff1681525050608c81600460088111156104ac576104ab61eafb565b5b815181106104bd576104bc61f0d7565b5b602002602001019061ffff16908161ffff16815250506064816008808111156104e9576104e861eafb565b5b815181106104fa576104f961f0d7565b5b602002602001019061ffff16908161ffff1681525050604b81600360088111156105275761052661eafb565b5b815181106105385761053761f0d7565b5b602002602001019061ffff16908161ffff1681525050603281600760088111156105655761056461eafb565b5b815181106105765761057561f0d7565b5b602002602001019061ffff16908161ffff1681525050601981600260088111156105a3576105a261eafb565b5b815181106105b4576105b361f0d7565b5b602002602001019061ffff16908161ffff1681525050600a81600660088111156105e1576105e061eafb565b5b815181106105f2576105f161f0d7565b5b602002602001019061ffff16908161ffff16815250505f610613848361e0c9565b90508060088111156106285761062761eafb565b5b92505050919050565b5f5f601767ffffffffffffffff81111561064e5761064d61e9d4565b5b60405190808252806020026020018201604052801561067c5781602001602082028036833780820191505090505b5090506106918461068c9061fa46565b61e137565b156107195761138881600d60168111156106ae576106ad61eafb565b5b815181106106bf576106be61f0d7565b5b602002602001019061ffff16908161ffff168152505061138881600e60168111156106ed576106ec61eafb565b5b815181106106fe576106fd61f0d7565b5b602002602001019061ffff16908161ffff1681525050610c31565b5f815f601681111561072e5761072d61eafb565b5b8151811061073f5761073e61f0d7565b5b602002602001019061ffff16908161ffff168152505061101d81600f601681111561076d5761076c61eafb565b5b8151811061077e5761077d61f0d7565b5b602002602001019061ffff16908161ffff168152505061101d81601260168111156107ac576107ab61eafb565b5b815181106107bd576107bc61f0d7565b5b602002602001019061ffff16908161ffff16815250506101f481601460168111156107eb576107ea61eafb565b5b815181106107fc576107fb61f0d7565b5b602002602001019061ffff16908161ffff16815250506101f4816015601681111561082a5761082961eafb565b5b8151811061083b5761083a61f0d7565b5b602002602001019061ffff16908161ffff168152505060fa81600c60168111156108685761086761eafb565b5b815181106108795761087861f0d7565b5b602002602001019061ffff16908161ffff1681525050607d81601360168111156108a6576108a561eafb565b5b815181106108b7576108b661f0d7565b5b602002602001019061ffff16908161ffff1681525050606481600260168111156108e4576108e361eafb565b5b815181106108f5576108f461f0d7565b5b602002602001019061ffff16908161ffff1681525050604c816016808111156109215761092061eafb565b5b815181106109325761093161f0d7565b5b602002602001019061ffff16908161ffff16815250506032816001601681111561095f5761095e61eafb565b5b815181106109705761096f61f0d7565b5b602002602001019061ffff16908161ffff1681525050600b816003601681111561099d5761099c61eafb565b5b815181106109ae576109ad61f0d7565b5b602002602001019061ffff16908161ffff1681525050600b81600460168111156109db576109da61eafb565b5b815181106109ec576109eb61f0d7565b5b602002602001019061ffff16908161ffff1681525050600b8160056016811115610a1957610a1861eafb565b5b81518110610a2a57610a2961f0d7565b5b602002602001019061ffff16908161ffff1681525050600b8160066016811115610a5757610a5661eafb565b5b81518110610a6857610a6761f0d7565b5b602002602001019061ffff16908161ffff1681525050600b8160076016811115610a9557610a9461eafb565b5b81518110610aa657610aa561f0d7565b5b602002602001019061ffff16908161ffff1681525050600b8160086016811115610ad357610ad261eafb565b5b81518110610ae457610ae361f0d7565b5b602002602001019061ffff16908161ffff1681525050600b8160096016811115610b1157610b1061eafb565b5b81518110610b2257610b2161f0d7565b5b602002602001019061ffff16908161ffff1681525050600b81600a6016811115610b4f57610b4e61eafb565b5b81518110610b6057610b5f61f0d7565b5b602002602001019061ffff16908161ffff1681525050600b81600b6016811115610b8d57610b8c61eafb565b5b81518110610b9e57610b9d61f0d7565b5b602002602001019061ffff16908161ffff168152505060198160106016811115610bcb57610bca61eafb565b5b81518110610bdc57610bdb61f0d7565b5b602002602001019061ffff16908161ffff168152505060198160116016811115610c0957610c0861eafb565b5b81518110610c1a57610c1961f0d7565b5b602002602001019061ffff16908161ffff16815250505b5f610c3c848361e0c9565b9050806016811115610c5157610c5061eafb565b5b9250505092915050565b5f5f607f67ffffffffffffffff811115610c7857610c7761e9d4565b5b604051908082528060200260200182016040528015610ca65781602001602082028036833780820191505090505b5090506103e8815f607f811115610cc057610cbf61eafb565b5b81518110610cd157610cd061f0d7565b5b602002602001019061ffff16908161ffff1681525050610274816053607f811115610cff57610cfe61eafb565b5b81518110610d1057610d0f61f0d7565b5b602002602001019061ffff16908161ffff1681525050604881606a607f811115610d3d57610d3c61eafb565b5b81518110610d4e57610d4d61f0d7565b5b602002602001019061ffff16908161ffff1681525050604881606b607f811115610d7b57610d7a61eafb565b5b81518110610d8c57610d8b61f0d7565b5b602002602001019061ffff16908161ffff1681525050604881606c607f811115610db957610db861eafb565b5b81518110610dca57610dc961f0d7565b5b602002602001019061ffff16908161ffff1681525050604881606d607f811115610df757610df661eafb565b5b81518110610e0857610e0761f0d7565b5b602002602001019061ffff16908161ffff1681525050604881606e607f811115610e3557610e3461eafb565b5b81518110610e4657610e4561f0d7565b5b602002602001019061ffff16908161ffff1681525050604881606f607f811115610e7357610e7261eafb565b5b81518110610e8457610e8361f0d7565b5b602002602001019061ffff16908161ffff16815250506048816070607f811115610eb157610eb061eafb565b5b81518110610ec257610ec161f0d7565b5b602002602001019061ffff16908161ffff16815250506048816071607f811115610eef57610eee61eafb565b5b81518110610f0057610eff61f0d7565b5b602002602001019061ffff16908161ffff16815250506048816024607f811115610f2d57610f2c61eafb565b5b81518110610f3e57610f3d61f0d7565b5b602002602001019061ffff16908161ffff16815250506048816025607f811115610f6b57610f6a61eafb565b5b81518110610f7c57610f7b61f0d7565b5b602002602001019061ffff16908161ffff16815250506048816026607f811115610fa957610fa861eafb565b5b81518110610fba57610fb961f0d7565b5b602002602001019061ffff16908161ffff16815250506048816027607f811115610fe757610fe661eafb565b5b81518110610ff857610ff761f0d7565b5b602002602001019061ffff16908161ffff16815250506048816028607f8111156110255761102461eafb565b5b815181106110365761103561f0d7565b5b602002602001019061ffff16908161ffff16815250506048816029607f8111156110635761106261eafb565b5b815181106110745761107361f0d7565b5b602002602001019061ffff16908161ffff1681525050604881602a607f8111156110a1576110a061eafb565b5b815181106110b2576110b161f0d7565b5b602002602001019061ffff16908161ffff1681525050604881602b607f8111156110df576110de61eafb565b5b815181106110f0576110ef61f0d7565b5b602002602001019061ffff16908161ffff168152505061023a81603e607f81111561111e5761111d61eafb565b5b8151811061112f5761112e61f0d7565b5b602002602001019061ffff16908161ffff168152505061023081604c607f81111561115d5761115c61eafb565b5b8151811061116e5761116d61f0d7565b5b602002602001019061ffff16908161ffff1681525050603281605e607f81111561119b5761119a61eafb565b5b815181106111ac576111ab61f0d7565b5b602002602001019061ffff16908161ffff1681525050603281605f607f8111156111d9576111d861eafb565b5b815181106111ea576111e961f0d7565b5b602002602001019061ffff16908161ffff16815250506032816060607f8111156112175761121661eafb565b5b815181106112285761122761f0d7565b5b602002602001019061ffff16908161ffff16815250506032816061607f8111156112555761125461eafb565b5b815181106112665761126561f0d7565b5b602002602001019061ffff16908161ffff16815250506032816062607f8111156112935761129261eafb565b5b815181106112a4576112a361f0d7565b5b602002602001019061ffff16908161ffff16815250506032816063607f8111156112d1576112d061eafb565b5b815181106112e2576112e161f0d7565b5b602002602001019061ffff16908161ffff16815250506032816064607f81111561130f5761130e61eafb565b5b815181106113205761131f61f0d7565b5b602002602001019061ffff16908161ffff16815250506032816065607f81111561134d5761134c61eafb565b5b8151811061135e5761135d61f0d7565b5b602002602001019061ffff16908161ffff16815250506032816066607f81111561138b5761138a61eafb565b5b8151811061139c5761139b61f0d7565b5b602002602001019061ffff16908161ffff16815250506032816067607f8111156113c9576113c861eafb565b5b815181106113da576113d961f0d7565b5b602002602001019061ffff16908161ffff16815250506032816068607f8111156114075761140661eafb565b5b815181106114185761141761f0d7565b5b602002602001019061ffff16908161ffff168152505061021c81602e607f8111156114465761144561eafb565b5b815181106114575761145661f0d7565b5b602002602001019061ffff16908161ffff1681525050602e81600f607f8111156114845761148361eafb565b5b815181106114955761149461f0d7565b5b602002602001019061ffff16908161ffff1681525050602e816010607f8111156114c2576114c161eafb565b5b815181106114d3576114d261f0d7565b5b602002602001019061ffff16908161ffff1681525050602e816011607f811115611500576114ff61eafb565b5b815181106115115761151061f0d7565b5b602002602001019061ffff16908161ffff1681525050602e816012607f81111561153e5761153d61eafb565b5b8151811061154f5761154e61f0d7565b5b602002602001019061ffff16908161ffff1681525050602e816013607f81111561157c5761157b61eafb565b5b8151811061158d5761158c61f0d7565b5b602002602001019061ffff16908161ffff1681525050602e816014607f8111156115ba576115b961eafb565b5b815181106115cb576115ca61f0d7565b5b602002602001019061ffff16908161ffff1681525050602e816015607f8111156115f8576115f761eafb565b5b815181106116095761160861f0d7565b5b602002602001019061ffff16908161ffff1681525050602e816016607f8111156116365761163561eafb565b5b815181106116475761164661f0d7565b5b602002602001019061ffff16908161ffff1681525050602e816017607f8111156116745761167361eafb565b5b815181106116855761168461f0d7565b5b602002602001019061ffff16908161ffff1681525050602e816018607f8111156116b2576116b161eafb565b5b815181106116c3576116c261f0d7565b5b602002602001019061ffff16908161ffff1681525050602e816019607f8111156116f0576116ef61eafb565b5b815181106117015761170061f0d7565b5b602002602001019061ffff16908161ffff16815250506101db816001607f81111561172f5761172e61eafb565b5b815181106117405761173f61f0d7565b5b602002602001019061ffff16908161ffff16815250506101db816022607f81111561176e5761176d61eafb565b5b8151811061177f5761177e61f0d7565b5b602002602001019061ffff16908161ffff16815250506101a9816054607f8111156117ad576117ac61eafb565b5b815181106117be576117bd61f0d7565b5b602002602001019061ffff16908161ffff1681525050610190816037607f8111156117ec576117eb61eafb565b5b815181106117fd576117fc61f0d7565b5b602002602001019061ffff16908161ffff1681525050603e816039607f81111561182a5761182961eafb565b5b8151811061183b5761183a61f0d7565b5b602002602001019061ffff16908161ffff1681525050603e81603a607f8111156118685761186761eafb565b5b815181106118795761187861f0d7565b5b602002602001019061ffff16908161ffff1681525050603e81603b607f8111156118a6576118a561eafb565b5b815181106118b7576118b661f0d7565b5b602002602001019061ffff16908161ffff1681525050603e81603c607f8111156118e4576118e361eafb565b5b815181106118f5576118f461f0d7565b5b602002602001019061ffff16908161ffff1681525050603e81603d607f8111156119225761192161eafb565b5b815181106119335761193261f0d7565b5b602002602001019061ffff16908161ffff1681525050603e816038607f8111156119605761195f61eafb565b5b815181106119715761197061f0d7565b5b602002602001019061ffff16908161ffff168152505061015b816072607f81111561199f5761199e61eafb565b5b815181106119b0576119af61f0d7565b5b602002602001019061ffff16908161ffff168152505061013d81602f607f8111156119de576119dd61eafb565b5b815181106119ef576119ee61f0d7565b5b602002602001019061ffff16908161ffff168152505061011881602d607f811115611a1d57611a1c61eafb565b5b81518110611a2e57611a2d61f0d7565b5b602002602001019061ffff16908161ffff1681525050607d81604a607f811115611a5b57611a5a61eafb565b5b81518110611a6c57611a6b61f0d7565b5b602002602001019061ffff16908161ffff1681525050607d81604b607f811115611a9957611a9861eafb565b5b81518110611aaa57611aa961f0d7565b5b602002602001019061ffff16908161ffff168152505060e1816051607f811115611ad757611ad661eafb565b5b81518110611ae857611ae761f0d7565b5b602002602001019061ffff16908161ffff1681525050601c816030607f811115611b1557611b1461eafb565b5b81518110611b2657611b2561f0d7565b5b602002602001019061ffff16908161ffff1681525050601c816031607f811115611b5357611b5261eafb565b5b81518110611b6457611b6361f0d7565b5b602002602001019061ffff16908161ffff1681525050601c816032607f811115611b9157611b9061eafb565b5b81518110611ba257611ba161f0d7565b5b602002602001019061ffff16908161ffff1681525050601c816033607f811115611bcf57611bce61eafb565b5b81518110611be057611bdf61f0d7565b5b602002602001019061ffff16908161ffff1681525050601c816034607f811115611c0d57611c0c61eafb565b5b81518110611c1e57611c1d61f0d7565b5b602002602001019061ffff16908161ffff1681525050601c816035607f811115611c4b57611c4a61eafb565b5b81518110611c5c57611c5b61f0d7565b5b602002602001019061ffff16908161ffff1681525050601c816036607f811115611c8957611c8861eafb565b5b81518110611c9a57611c9961f0d7565b5b602002602001019061ffff16908161ffff1681525050601481601a607f811115611cc757611cc661eafb565b5b81518110611cd857611cd761f0d7565b5b602002602001019061ffff16908161ffff1681525050601481601b607f811115611d0557611d0461eafb565b5b81518110611d1657611d1561f0d7565b5b602002602001019061ffff16908161ffff1681525050601481601c607f811115611d4357611d4261eafb565b5b81518110611d5457611d5361f0d7565b5b602002602001019061ffff16908161ffff1681525050601481601d607f811115611d8157611d8061eafb565b5b81518110611d9257611d9161f0d7565b5b602002602001019061ffff16908161ffff1681525050601481601e607f811115611dbf57611dbe61eafb565b5b81518110611dd057611dcf61f0d7565b5b602002602001019061ffff16908161ffff1681525050601481601f607f811115611dfd57611dfc61eafb565b5b81518110611e0e57611e0d61f0d7565b5b602002602001019061ffff16908161ffff16815250506014816020607f811115611e3b57611e3a61eafb565b5b81518110611e4c57611e4b61f0d7565b5b602002602001019061ffff16908161ffff16815250506014816021607f811115611e7957611e7861eafb565b5b81518110611e8a57611e8961f0d7565b5b602002602001019061ffff16908161ffff16815250506021816074607f811115611eb757611eb661eafb565b5b81518110611ec857611ec761f0d7565b5b602002602001019061ffff16908161ffff16815250506021816075607f811115611ef557611ef461eafb565b5b81518110611f0657611f0561f0d7565b5b602002602001019061ffff16908161ffff16815250506021816076607f811115611f3357611f3261eafb565b5b81518110611f4457611f4361f0d7565b5b602002602001019061ffff16908161ffff16815250506021816073607f811115611f7157611f7061eafb565b5b81518110611f8257611f8161f0d7565b5b602002602001019061ffff16908161ffff16815250506016816002607f811115611faf57611fae61eafb565b5b81518110611fc057611fbf61f0d7565b5b602002602001019061ffff16908161ffff16815250506016816003607f811115611fed57611fec61eafb565b5b81518110611ffe57611ffd61f0d7565b5b602002602001019061ffff16908161ffff16815250506016816004607f81111561202b5761202a61eafb565b5b8151811061203c5761203b61f0d7565b5b602002602001019061ffff16908161ffff16815250506016816005607f8111156120695761206861eafb565b5b8151811061207a5761207961f0d7565b5b602002602001019061ffff16908161ffff16815250506016816006607f8111156120a7576120a661eafb565b5b815181106120b8576120b761f0d7565b5b602002602001019061ffff16908161ffff1681525050600a816007607f8111156120e5576120e461eafb565b5b815181106120f6576120f561f0d7565b5b602002602001019061ffff16908161ffff1681525050600a816008607f8111156121235761212261eafb565b5b815181106121345761213361f0d7565b5b602002602001019061ffff16908161ffff1681525050600a816009607f8111156121615761216061eafb565b5b815181106121725761217161f0d7565b5b602002602001019061ffff16908161ffff1681525050600a81600a607f81111561219f5761219e61eafb565b5b815181106121b0576121af61f0d7565b5b602002602001019061ffff16908161ffff1681525050600a81600b607f8111156121dd576121dc61eafb565b5b815181106121ee576121ed61f0d7565b5b602002602001019061ffff16908161ffff1681525050600a81600c607f81111561221b5761221a61eafb565b5b8151811061222c5761222b61f0d7565b5b602002602001019061ffff16908161ffff1681525050600a81600d607f8111156122595761225861eafb565b5b8151811061226a5761226961f0d7565b5b602002602001019061ffff16908161ffff1681525050600a81600e607f8111156122975761229661eafb565b5b815181106122a8576122a761f0d7565b5b602002602001019061ffff16908161ffff16815250506045816052607f8111156122d5576122d461eafb565b5b815181106122e6576122e561f0d7565b5b602002602001019061ffff16908161ffff16815250506005816077607f8111156123135761231261eafb565b5b815181106123245761232361f0d7565b5b602002602001019061ffff16908161ffff16815250506005816078607f8111156123515761235061eafb565b5b815181106123625761236161f0d7565b5b602002602001019061ffff16908161ffff16815250506005816079607f81111561238f5761238e61eafb565b5b815181106123a05761239f61f0d7565b5b602002602001019061ffff16908161ffff1681525050600581607a607f8111156123cd576123cc61eafb565b5b815181106123de576123dd61f0d7565b5b602002602001019061ffff16908161ffff1681525050600581607b607f81111561240b5761240a61eafb565b5b8151811061241c5761241b61f0d7565b5b602002602001019061ffff16908161ffff1681525050600581607c607f8111156124495761244861eafb565b5b8151811061245a5761245961f0d7565b5b602002602001019061ffff16908161ffff1681525050600581607d607f8111156124875761248661eafb565b5b815181106124985761249761f0d7565b5b602002602001019061ffff16908161ffff1681525050600581607e607f8111156124c5576124c461eafb565b5b815181106124d6576124d561f0d7565b5b602002602001019061ffff16908161ffff1681525050600581607f808111156125025761250161eafb565b5b815181106125135761251261f0d7565b5b602002602001019061ffff16908161ffff16815250506005816042607f8111156125405761253f61eafb565b5b815181106125515761255061f0d7565b5b602002602001019061ffff16908161ffff16815250506005816043607f81111561257e5761257d61eafb565b5b8151811061258f5761258e61f0d7565b5b602002602001019061ffff16908161ffff16815250506005816044607f8111156125bc576125bb61eafb565b5b815181106125cd576125cc61f0d7565b5b602002602001019061ffff16908161ffff16815250506005816045607f8111156125fa576125f961eafb565b5b8151811061260b5761260a61f0d7565b5b602002602001019061ffff16908161ffff16815250506005816046607f8111156126385761263761eafb565b5b815181106126495761264861f0d7565b5b602002602001019061ffff16908161ffff16815250506005816047607f8111156126765761267561eafb565b5b815181106126875761268661f0d7565b5b602002602001019061ffff16908161ffff16815250506005816048607f8111156126b4576126b361eafb565b5b815181106126c5576126c461f0d7565b5b602002602001019061ffff16908161ffff16815250506005816049607f8111156126f2576126f161eafb565b5b815181106127035761270261f0d7565b5b602002602001019061ffff16908161ffff1681525050600981604d607f8111156127305761272f61eafb565b5b815181106127415761274061f0d7565b5b602002602001019061ffff16908161ffff1681525050600981604e607f81111561276e5761276d61eafb565b5b8151811061277f5761277e61f0d7565b5b602002602001019061ffff16908161ffff1681525050600981604f607f8111156127ac576127ab61eafb565b5b815181106127bd576127bc61f0d7565b5b602002602001019061ffff16908161ffff16815250506009816050607f8111156127ea576127e961eafb565b5b815181106127fb576127fa61f0d7565b5b602002602001019061ffff16908161ffff16815250506003816056607f8111156128285761282761eafb565b5b815181106128395761283861f0d7565b5b602002602001019061ffff16908161ffff16815250506003816057607f8111156128665761286561eafb565b5b815181106128775761287661f0d7565b5b602002602001019061ffff16908161ffff16815250506003816058607f8111156128a4576128a361eafb565b5b815181106128b5576128b461f0d7565b5b602002602001019061ffff16908161ffff16815250506003816059607f8111156128e2576128e161eafb565b5b815181106128f3576128f261f0d7565b5b602002602001019061ffff16908161ffff1681525050600381605a607f8111156129205761291f61eafb565b5b815181106129315761293061f0d7565b5b602002602001019061ffff16908161ffff1681525050600381605b607f81111561295e5761295d61eafb565b5b8151811061296f5761296e61f0d7565b5b602002602001019061ffff16908161ffff1681525050600381605c607f81111561299c5761299b61eafb565b5b815181106129ad576129ac61f0d7565b5b602002602001019061ffff16908161ffff1681525050600381605d607f8111156129da576129d961eafb565b5b815181106129eb576129ea61f0d7565b5b602002602001019061ffff16908161ffff16815250506003816055607f811115612a1857612a1761eafb565b5b81518110612a2957612a2861f0d7565b5b602002602001019061ffff16908161ffff1681525050601781602c607f811115612a5657612a5561eafb565b5b81518110612a6757612a6661f0d7565b5b602002602001019061ffff16908161ffff1681525050600481603f607f811115612a9457612a9361eafb565b5b81518110612aa557612aa461f0d7565b5b602002602001019061ffff16908161ffff16815250506003816040607f811115612ad257612ad161eafb565b5b81518110612ae357612ae261f0d7565b5b602002602001019061ffff16908161ffff16815250506003816041607f811115612b1057612b0f61eafb565b5b81518110612b2157612b2061f0d7565b5b602002602001019061ffff16908161ffff16815250505f612b42848361e0c9565b905080607f811115612b5757612b5661eafb565b5b92505050919050565b5f5f60d467ffffffffffffffff811115612b7d57612b7c61e9d4565b5b604051908082528060200260200182016040528015612bab5781602001602082028036833780820191505090505b509050612bc084612bbb9061fa46565b61e16c565b80612bd95750612bd884612bd39061fa46565b61e1e4565b5b15612c2157610190815f60d3811115612bf557612bf461eafb565b5b81518110612c0657612c0561f0d7565b5b602002602001019061ffff16908161ffff1681525050612cb2565b612c3384612c2e9061fa46565b61e219565b80612c4c5750612c4b84612c469061fa46565b61e24e565b5b80612c655750612c6484612c5f9061fa46565b61e283565b5b15612c73575f915050615ff2565b6104b0815f60d3811115612c8a57612c8961eafb565b5b81518110612c9b57612c9a61f0d7565b5b602002602001019061ffff16908161ffff16815250505b60c881600160d3811115612cc957612cc861eafb565b5b81518110612cda57612cd961f0d7565b5b602002602001019061ffff16908161ffff168152505060b481600460d3811115612d0757612d0661eafb565b5b81518110612d1857612d1761f0d7565b5b602002602001019061ffff16908161ffff1681525050607881600260d3811115612d4557612d4461eafb565b5b81518110612d5657612d5561f0d7565b5b602002602001019061ffff16908161ffff1681525050606481600560d3811115612d8357612d8261eafb565b5b81518110612d9457612d9361f0d7565b5b602002602001019061ffff16908161ffff1681525050601981600360d3811115612dc157612dc061eafb565b5b81518110612dd257612dd161f0d7565b5b602002602001019061ffff16908161ffff1681525050601981600660d3811115612dff57612dfe61eafb565b5b81518110612e1057612e0f61f0d7565b5b602002602001019061ffff16908161ffff1681525050601981600760d3811115612e3d57612e3c61eafb565b5b81518110612e4e57612e4d61f0d7565b5b602002602001019061ffff16908161ffff1681525050601981600860d3811115612e7b57612e7a61eafb565b5b81518110612e8c57612e8b61f0d7565b5b602002602001019061ffff16908161ffff1681525050601981600960d3811115612eb957612eb861eafb565b5b81518110612eca57612ec961f0d7565b5b602002602001019061ffff16908161ffff1681525050601981600a60d3811115612ef757612ef661eafb565b5b81518110612f0857612f0761f0d7565b5b602002602001019061ffff16908161ffff1681525050601981600b60d3811115612f3557612f3461eafb565b5b81518110612f4657612f4561f0d7565b5b602002602001019061ffff16908161ffff1681525050601981600c60d3811115612f7357612f7261eafb565b5b81518110612f8457612f8361f0d7565b5b602002602001019061ffff16908161ffff168152505060e181600d60d3811115612fb157612fb061eafb565b5b81518110612fc257612fc161f0d7565b5b602002602001019061ffff16908161ffff168152505060c881600f60d3811115612fef57612fee61eafb565b5b8151811061300057612fff61f0d7565b5b602002602001019061ffff16908161ffff1681525050608c81600e60d381111561302d5761302c61eafb565b5b8151811061303e5761303d61f0d7565b5b602002602001019061ffff16908161ffff1681525050606481601060d381111561306b5761306a61eafb565b5b8151811061307c5761307b61f0d7565b5b602002602001019061ffff16908161ffff1681525050605581601160d38111156130a9576130a861eafb565b5b815181106130ba576130b961f0d7565b5b602002602001019061ffff16908161ffff168152505060fa81601260d38111156130e7576130e661eafb565b5b815181106130f8576130f761f0d7565b5b602002602001019061ffff16908161ffff168152505060e181601660d38111156131255761312461eafb565b5b815181106131365761313561f0d7565b5b602002602001019061ffff16908161ffff168152505060c881601360d38111156131635761316261eafb565b5b815181106131745761317361f0d7565b5b602002602001019061ffff16908161ffff168152505060b981601560d38111156131a1576131a061eafb565b5b815181106131b2576131b161f0d7565b5b602002602001019061ffff16908161ffff168152505060af81601460d38111156131df576131de61eafb565b5b815181106131f0576131ef61f0d7565b5b602002602001019061ffff16908161ffff168152505060a581601760d381111561321d5761321c61eafb565b5b8151811061322e5761322d61f0d7565b5b602002602001019061ffff16908161ffff1681525050600781601860d381111561325b5761325a61eafb565b5b8151811061326c5761326b61f0d7565b5b602002602001019061ffff16908161ffff1681525050600781601960d38111156132995761329861eafb565b5b815181106132aa576132a961f0d7565b5b602002602001019061ffff16908161ffff1681525050600781601a60d38111156132d7576132d661eafb565b5b815181106132e8576132e761f0d7565b5b602002602001019061ffff16908161ffff1681525050600781601b60d38111156133155761331461eafb565b5b815181106133265761332561f0d7565b5b602002602001019061ffff16908161ffff1681525050600781601c60d38111156133535761335261eafb565b5b815181106133645761336361f0d7565b5b602002602001019061ffff16908161ffff1681525050600781601d60d38111156133915761339061eafb565b5b815181106133a2576133a161f0d7565b5b602002602001019061ffff16908161ffff1681525050600781601e60d38111156133cf576133ce61eafb565b5b815181106133e0576133df61f0d7565b5b602002602001019061ffff16908161ffff1681525050601281601f60d381111561340d5761340c61eafb565b5b8151811061341e5761341d61f0d7565b5b602002602001019061ffff16908161ffff1681525050600e81602060d381111561344b5761344a61eafb565b5b8151811061345c5761345b61f0d7565b5b602002602001019061ffff16908161ffff1681525050600a81602260d38111156134895761348861eafb565b5b8151811061349a5761349961f0d7565b5b602002602001019061ffff16908161ffff1681525050600781602360d38111156134c7576134c661eafb565b5b815181106134d8576134d761f0d7565b5b602002602001019061ffff16908161ffff1681525050600281602160d38111156135055761350461eafb565b5b815181106135165761351561f0d7565b5b602002602001019061ffff16908161ffff1681525050600281602460d38111156135435761354261eafb565b5b815181106135545761355361f0d7565b5b602002602001019061ffff16908161ffff1681525050600281602560d38111156135815761358061eafb565b5b815181106135925761359161f0d7565b5b602002602001019061ffff16908161ffff1681525050600281602660d38111156135bf576135be61eafb565b5b815181106135d0576135cf61f0d7565b5b602002602001019061ffff16908161ffff1681525050600281602760d38111156135fd576135fc61eafb565b5b8151811061360e5761360d61f0d7565b5b602002602001019061ffff16908161ffff1681525050600281602860d381111561363b5761363a61eafb565b5b8151811061364c5761364b61f0d7565b5b602002602001019061ffff16908161ffff1681525050600281602960d38111156136795761367861eafb565b5b8151811061368a5761368961f0d7565b5b602002602001019061ffff16908161ffff1681525050600281602a60d38111156136b7576136b661eafb565b5b815181106136c8576136c761f0d7565b5b602002602001019061ffff16908161ffff1681525050600481602b60d38111156136f5576136f461eafb565b5b815181106137065761370561f0d7565b5b602002602001019061ffff16908161ffff1681525050600481602c60d38111156137335761373261eafb565b5b815181106137445761374361f0d7565b5b602002602001019061ffff16908161ffff1681525050600381602d60d38111156137715761377061eafb565b5b815181106137825761378161f0d7565b5b602002602001019061ffff16908161ffff1681525050600381602e60d38111156137af576137ae61eafb565b5b815181106137c0576137bf61f0d7565b5b602002602001019061ffff16908161ffff1681525050600381602f60d38111156137ed576137ec61eafb565b5b815181106137fe576137fd61f0d7565b5b602002602001019061ffff16908161ffff1681525050600381603060d381111561382b5761382a61eafb565b5b8151811061383c5761383b61f0d7565b5b602002602001019061ffff16908161ffff168152505060c881603160d38111156138695761386861eafb565b5b8151811061387a5761387961f0d7565b5b602002602001019061ffff16908161ffff168152505060af81603460d38111156138a7576138a661eafb565b5b815181106138b8576138b761f0d7565b5b602002602001019061ffff16908161ffff1681525050609681603260d38111156138e5576138e461eafb565b5b815181106138f6576138f561f0d7565b5b602002602001019061ffff16908161ffff1681525050607581603560d38111156139235761392261eafb565b5b815181106139345761393361f0d7565b5b602002602001019061ffff16908161ffff1681525050601a81603360d38111156139615761396061eafb565b5b815181106139725761397161f0d7565b5b602002602001019061ffff16908161ffff1681525050601a81603660d381111561399f5761399e61eafb565b5b815181106139b0576139af61f0d7565b5b602002602001019061ffff16908161ffff1681525050601a81603760d38111156139dd576139dc61eafb565b5b815181106139ee576139ed61f0d7565b5b602002602001019061ffff16908161ffff1681525050601a81603860d3811115613a1b57613a1a61eafb565b5b81518110613a2c57613a2b61f0d7565b5b602002602001019061ffff16908161ffff1681525050601a81603960d3811115613a5957613a5861eafb565b5b81518110613a6a57613a6961f0d7565b5b602002602001019061ffff16908161ffff1681525050601a81603a60d3811115613a9757613a9661eafb565b5b81518110613aa857613aa761f0d7565b5b602002602001019061ffff16908161ffff1681525050601a81603b60d3811115613ad557613ad461eafb565b5b81518110613ae657613ae561f0d7565b5b602002602001019061ffff16908161ffff1681525050601a81603c60d3811115613b1357613b1261eafb565b5b81518110613b2457613b2361f0d7565b5b602002602001019061ffff16908161ffff1681525050602381603d60d3811115613b5157613b5061eafb565b5b81518110613b6257613b6161f0d7565b5b602002602001019061ffff16908161ffff1681525050601e81603f60d3811115613b8f57613b8e61eafb565b5b81518110613ba057613b9f61f0d7565b5b602002602001019061ffff16908161ffff1681525050601981603e60d3811115613bcd57613bcc61eafb565b5b81518110613bde57613bdd61f0d7565b5b602002602001019061ffff16908161ffff1681525050601481604060d3811115613c0b57613c0a61eafb565b5b81518110613c1c57613c1b61f0d7565b5b602002602001019061ffff16908161ffff1681525050600f81604160d3811115613c4957613c4861eafb565b5b81518110613c5a57613c5961f0d7565b5b602002602001019061ffff16908161ffff1681525050600c81604260d3811115613c8757613c8661eafb565b5b81518110613c9857613c9761f0d7565b5b602002602001019061ffff16908161ffff1681525050600981604560d3811115613cc557613cc461eafb565b5b81518110613cd657613cd561f0d7565b5b602002602001019061ffff16908161ffff1681525050600781604360d3811115613d0357613d0261eafb565b5b81518110613d1457613d1361f0d7565b5b602002602001019061ffff16908161ffff1681525050600681604660d3811115613d4157613d4061eafb565b5b81518110613d5257613d5161f0d7565b5b602002602001019061ffff16908161ffff1681525050600281604460d3811115613d7f57613d7e61eafb565b5b81518110613d9057613d8f61f0d7565b5b602002602001019061ffff16908161ffff1681525050600281604760d3811115613dbd57613dbc61eafb565b5b81518110613dce57613dcd61f0d7565b5b602002602001019061ffff16908161ffff1681525050600281604860d3811115613dfb57613dfa61eafb565b5b81518110613e0c57613e0b61f0d7565b5b602002602001019061ffff16908161ffff1681525050600281604960d3811115613e3957613e3861eafb565b5b81518110613e4a57613e4961f0d7565b5b602002602001019061ffff16908161ffff1681525050600281604a60d3811115613e7757613e7661eafb565b5b81518110613e8857613e8761f0d7565b5b602002602001019061ffff16908161ffff1681525050600281604b60d3811115613eb557613eb461eafb565b5b81518110613ec657613ec561f0d7565b5b602002602001019061ffff16908161ffff1681525050600281604c60d3811115613ef357613ef261eafb565b5b81518110613f0457613f0361f0d7565b5b602002602001019061ffff16908161ffff1681525050600281604d60d3811115613f3157613f3061eafb565b5b81518110613f4257613f4161f0d7565b5b602002602001019061ffff16908161ffff1681525050604681604e60d3811115613f6f57613f6e61eafb565b5b81518110613f8057613f7f61f0d7565b5b602002602001019061ffff16908161ffff1681525050603c81605060d3811115613fad57613fac61eafb565b5b81518110613fbe57613fbd61f0d7565b5b602002602001019061ffff16908161ffff1681525050603281604f60d3811115613feb57613fea61eafb565b5b81518110613ffc57613ffb61f0d7565b5b602002602001019061ffff16908161ffff1681525050602881605160d38111156140295761402861eafb565b5b8151811061403a5761403961f0d7565b5b602002602001019061ffff16908161ffff1681525050601e81605260d38111156140675761406661eafb565b5b815181106140785761407761f0d7565b5b602002602001019061ffff16908161ffff1681525050603b81605360d38111156140a5576140a461eafb565b5b815181106140b6576140b561f0d7565b5b602002602001019061ffff16908161ffff1681525050602d81605660d38111156140e3576140e261eafb565b5b815181106140f4576140f361f0d7565b5b602002602001019061ffff16908161ffff1681525050602381605460d38111156141215761412061eafb565b5b815181106141325761413161f0d7565b5b602002602001019061ffff16908161ffff1681525050601e81605760d381111561415f5761415e61eafb565b5b815181106141705761416f61f0d7565b5b602002602001019061ffff16908161ffff1681525050600781605560d381111561419d5761419c61eafb565b5b815181106141ae576141ad61f0d7565b5b602002602001019061ffff16908161ffff1681525050600781605860d38111156141db576141da61eafb565b5b815181106141ec576141eb61f0d7565b5b602002602001019061ffff16908161ffff1681525050600781605960d38111156142195761421861eafb565b5b8151811061422a5761422961f0d7565b5b602002602001019061ffff16908161ffff1681525050600781605a60d38111156142575761425661eafb565b5b815181106142685761426761f0d7565b5b602002602001019061ffff16908161ffff1681525050600781605b60d38111156142955761429461eafb565b5b815181106142a6576142a561f0d7565b5b602002602001019061ffff16908161ffff1681525050600781605c60d38111156142d3576142d261eafb565b5b815181106142e4576142e361f0d7565b5b602002602001019061ffff16908161ffff1681525050600781605d60d38111156143115761431061eafb565b5b815181106143225761432161f0d7565b5b602002602001019061ffff16908161ffff1681525050600781605e60d381111561434f5761434e61eafb565b5b815181106143605761435f61f0d7565b5b602002602001019061ffff16908161ffff1681525050604681605f60d381111561438d5761438c61eafb565b5b8151811061439e5761439d61f0d7565b5b602002602001019061ffff16908161ffff1681525050603c81606160d38111156143cb576143ca61eafb565b5b815181106143dc576143db61f0d7565b5b602002602001019061ffff16908161ffff1681525050601e81606060d38111156144095761440861eafb565b5b8151811061441a5761441961f0d7565b5b602002602001019061ffff16908161ffff1681525050601981606260d38111156144475761444661eafb565b5b815181106144585761445761f0d7565b5b602002602001019061ffff16908161ffff1681525050600f81606360d38111156144855761448461eafb565b5b815181106144965761449561f0d7565b5b602002602001019061ffff16908161ffff168152505060c881606460d38111156144c3576144c261eafb565b5b815181106144d4576144d361f0d7565b5b602002602001019061ffff16908161ffff168152505060b481606760d38111156145015761450061eafb565b5b815181106145125761451161f0d7565b5b602002602001019061ffff16908161ffff1681525050607881606560d381111561453f5761453e61eafb565b5b815181106145505761454f61f0d7565b5b602002602001019061ffff16908161ffff1681525050606481606860d381111561457d5761457c61eafb565b5b8151811061458e5761458d61f0d7565b5b602002602001019061ffff16908161ffff1681525050601981606660d38111156145bb576145ba61eafb565b5b815181106145cc576145cb61f0d7565b5b602002602001019061ffff16908161ffff1681525050601981606960d38111156145f9576145f861eafb565b5b8151811061460a5761460961f0d7565b5b602002602001019061ffff16908161ffff1681525050601981606a60d38111156146375761463661eafb565b5b815181106146485761464761f0d7565b5b602002602001019061ffff16908161ffff1681525050601981606b60d38111156146755761467461eafb565b5b815181106146865761468561f0d7565b5b602002602001019061ffff16908161ffff1681525050601981606c60d38111156146b3576146b261eafb565b5b815181106146c4576146c361f0d7565b5b602002602001019061ffff16908161ffff1681525050601981606d60d38111156146f1576146f061eafb565b5b815181106147025761470161f0d7565b5b602002602001019061ffff16908161ffff1681525050601981606e60d381111561472f5761472e61eafb565b5b815181106147405761473f61f0d7565b5b602002602001019061ffff16908161ffff1681525050601981606f60d381111561476d5761476c61eafb565b5b8151811061477e5761477d61f0d7565b5b602002602001019061ffff16908161ffff1681525050600681607060d38111156147ab576147aa61eafb565b5b815181106147bc576147bb61f0d7565b5b602002602001019061ffff16908161ffff1681525050600481607360d38111156147e9576147e861eafb565b5b815181106147fa576147f961f0d7565b5b602002602001019061ffff16908161ffff1681525050600381607160d38111156148275761482661eafb565b5b815181106148385761483761f0d7565b5b602002602001019061ffff16908161ffff1681525050600281607460d38111156148655761486461eafb565b5b815181106148765761487561f0d7565b5b602002602001019061ffff16908161ffff1681525050600281607260d38111156148a3576148a261eafb565b5b815181106148b4576148b361f0d7565b5b602002602001019061ffff16908161ffff1681525050600281607560d38111156148e1576148e061eafb565b5b815181106148f2576148f161f0d7565b5b602002602001019061ffff16908161ffff1681525050600281607a60d381111561491f5761491e61eafb565b5b815181106149305761492f61f0d7565b5b602002602001019061ffff16908161ffff1681525050600281607b60d381111561495d5761495c61eafb565b5b8151811061496e5761496d61f0d7565b5b602002602001019061ffff16908161ffff1681525050600281607c60d381111561499b5761499a61eafb565b5b815181106149ac576149ab61f0d7565b5b602002602001019061ffff16908161ffff1681525050600281607d60d38111156149d9576149d861eafb565b5b815181106149ea576149e961f0d7565b5b602002602001019061ffff16908161ffff1681525050600281607e60d3811115614a1757614a1661eafb565b5b81518110614a2857614a2761f0d7565b5b602002602001019061ffff16908161ffff1681525050600281607f60d3811115614a5557614a5461eafb565b5b81518110614a6657614a6561f0d7565b5b602002602001019061ffff16908161ffff1681525050600181607660d3811115614a9357614a9261eafb565b5b81518110614aa457614aa361f0d7565b5b602002602001019061ffff16908161ffff1681525050600181607760d3811115614ad157614ad061eafb565b5b81518110614ae257614ae161f0d7565b5b602002602001019061ffff16908161ffff1681525050600181607860d3811115614b0f57614b0e61eafb565b5b81518110614b2057614b1f61f0d7565b5b602002602001019061ffff16908161ffff1681525050600181607960d3811115614b4d57614b4c61eafb565b5b81518110614b5e57614b5d61f0d7565b5b602002602001019061ffff16908161ffff1681525050609681608060d3811115614b8b57614b8a61eafb565b5b81518110614b9c57614b9b61f0d7565b5b602002602001019061ffff16908161ffff1681525050604b81608160d3811115614bc957614bc861eafb565b5b81518110614bda57614bd961f0d7565b5b602002602001019061ffff16908161ffff1681525050601981608260d3811115614c0757614c0661eafb565b5b81518110614c1857614c1761f0d7565b5b602002602001019061ffff16908161ffff1681525050603781608360d3811115614c4557614c4461eafb565b5b81518110614c5657614c5561f0d7565b5b602002602001019061ffff16908161ffff1681525050602d81608560d3811115614c8357614c8261eafb565b5b81518110614c9457614c9361f0d7565b5b602002602001019061ffff16908161ffff1681525050602381608460d3811115614cc157614cc061eafb565b5b81518110614cd257614cd161f0d7565b5b602002602001019061ffff16908161ffff1681525050601981608660d3811115614cff57614cfe61eafb565b5b81518110614d1057614d0f61f0d7565b5b602002602001019061ffff16908161ffff1681525050600f81608760d3811115614d3d57614d3c61eafb565b5b81518110614d4e57614d4d61f0d7565b5b602002602001019061ffff16908161ffff1681525050600481608860d3811115614d7b57614d7a61eafb565b5b81518110614d8c57614d8b61f0d7565b5b602002602001019061ffff16908161ffff1681525050600381608b60d3811115614db957614db861eafb565b5b81518110614dca57614dc961f0d7565b5b602002602001019061ffff16908161ffff1681525050600281608960d3811115614df757614df661eafb565b5b81518110614e0857614e0761f0d7565b5b602002602001019061ffff16908161ffff1681525050600181608c60d3811115614e3557614e3461eafb565b5b81518110614e4657614e4561f0d7565b5b602002602001019061ffff16908161ffff1681525050600281608a60d3811115614e7357614e7261eafb565b5b81518110614e8457614e8361f0d7565b5b602002602001019061ffff16908161ffff1681525050600281608d60d3811115614eb157614eb061eafb565b5b81518110614ec257614ec161f0d7565b5b602002602001019061ffff16908161ffff1681525050600281609260d3811115614eef57614eee61eafb565b5b81518110614f0057614eff61f0d7565b5b602002602001019061ffff16908161ffff1681525050600281609360d3811115614f2d57614f2c61eafb565b5b81518110614f3e57614f3d61f0d7565b5b602002602001019061ffff16908161ffff1681525050600281609460d3811115614f6b57614f6a61eafb565b5b81518110614f7c57614f7b61f0d7565b5b602002602001019061ffff16908161ffff1681525050600281609560d3811115614fa957614fa861eafb565b5b81518110614fba57614fb961f0d7565b5b602002602001019061ffff16908161ffff1681525050600281609660d3811115614fe757614fe661eafb565b5b81518110614ff857614ff761f0d7565b5b602002602001019061ffff16908161ffff1681525050600281609760d38111156150255761502461eafb565b5b815181106150365761503561f0d7565b5b602002602001019061ffff16908161ffff1681525050600181608e60d38111156150635761506261eafb565b5b815181106150745761507361f0d7565b5b602002602001019061ffff16908161ffff1681525050600181608f60d38111156150a1576150a061eafb565b5b815181106150b2576150b161f0d7565b5b602002602001019061ffff16908161ffff1681525050600181609060d38111156150df576150de61eafb565b5b815181106150f0576150ef61f0d7565b5b602002602001019061ffff16908161ffff1681525050600181609160d381111561511d5761511c61eafb565b5b8151811061512e5761512d61f0d7565b5b602002602001019061ffff16908161ffff16815250506104b081609860d381111561515c5761515b61eafb565b5b8151811061516d5761516c61f0d7565b5b602002602001019061ffff16908161ffff1681525050600681609960d381111561519a5761519961eafb565b5b815181106151ab576151aa61f0d7565b5b602002602001019061ffff16908161ffff1681525050600581609c60d38111156151d8576151d761eafb565b5b815181106151e9576151e861f0d7565b5b602002602001019061ffff16908161ffff1681525050600481609a60d38111156152165761521561eafb565b5b815181106152275761522661f0d7565b5b602002602001019061ffff16908161ffff1681525050600281609d60d38111156152545761525361eafb565b5b815181106152655761526461f0d7565b5b602002602001019061ffff16908161ffff1681525050600181609b60d38111156152925761529161eafb565b5b815181106152a3576152a261f0d7565b5b602002602001019061ffff16908161ffff1681525050600181609e60d38111156152d0576152cf61eafb565b5b815181106152e1576152e061f0d7565b5b602002602001019061ffff16908161ffff1681525050600181609f60d381111561530e5761530d61eafb565b5b8151811061531f5761531e61f0d7565b5b602002602001019061ffff16908161ffff168152505060018160a060d381111561534c5761534b61eafb565b5b8151811061535d5761535c61f0d7565b5b602002602001019061ffff16908161ffff168152505060018160a160d381111561538a5761538961eafb565b5b8151811061539b5761539a61f0d7565b5b602002602001019061ffff16908161ffff168152505060018160a260d38111156153c8576153c761eafb565b5b815181106153d9576153d861f0d7565b5b602002602001019061ffff16908161ffff168152505060018160a360d38111156154065761540561eafb565b5b815181106154175761541661f0d7565b5b602002602001019061ffff16908161ffff168152505060018160a460d38111156154445761544361eafb565b5b815181106154555761545461f0d7565b5b602002602001019061ffff16908161ffff16815250506104b08160a560d38111156154835761548261eafb565b5b815181106154945761549361f0d7565b5b602002602001019061ffff16908161ffff168152505060378160a660d38111156154c1576154c061eafb565b5b815181106154d2576154d161f0d7565b5b602002602001019061ffff16908161ffff1681525050602d8160a760d38111156154ff576154fe61eafb565b5b815181106155105761550f61f0d7565b5b602002602001019061ffff16908161ffff168152505060238160a860d381111561553d5761553c61eafb565b5b8151811061554e5761554d61f0d7565b5b602002602001019061ffff16908161ffff168152505060198160a960d381111561557b5761557a61eafb565b5b8151811061558c5761558b61f0d7565b5b602002602001019061ffff16908161ffff1681525050600f8160aa60d38111156155b9576155b861eafb565b5b815181106155ca576155c961f0d7565b5b602002602001019061ffff16908161ffff168152505060148160ab60d38111156155f7576155f661eafb565b5b815181106156085761560761f0d7565b5b602002602001019061ffff16908161ffff168152505060108160ae60d38111156156355761563461eafb565b5b815181106156465761564561f0d7565b5b602002602001019061ffff16908161ffff1681525050600c8160ac60d38111156156735761567261eafb565b5b815181106156845761568361f0d7565b5b602002602001019061ffff16908161ffff168152505060088160af60d38111156156b1576156b061eafb565b5b815181106156c2576156c161f0d7565b5b602002602001019061ffff16908161ffff168152505060038160ad60d38111156156ef576156ee61eafb565b5b81518110615700576156ff61f0d7565b5b602002602001019061ffff16908161ffff168152505060038160b060d381111561572d5761572c61eafb565b5b8151811061573e5761573d61f0d7565b5b602002602001019061ffff16908161ffff168152505060038160b160d381111561576b5761576a61eafb565b5b8151811061577c5761577b61f0d7565b5b602002602001019061ffff16908161ffff168152505060038160b260d38111156157a9576157a861eafb565b5b815181106157ba576157b961f0d7565b5b602002602001019061ffff16908161ffff168152505060038160b360d38111156157e7576157e661eafb565b5b815181106157f8576157f761f0d7565b5b602002602001019061ffff16908161ffff168152505060038160b460d38111156158255761582461eafb565b5b815181106158365761583561f0d7565b5b602002602001019061ffff16908161ffff168152505060038160b560d38111156158635761586261eafb565b5b815181106158745761587361f0d7565b5b602002602001019061ffff16908161ffff168152505060038160b660d38111156158a1576158a061eafb565b5b815181106158b2576158b161f0d7565b5b602002602001019061ffff16908161ffff168152505060328160b760d38111156158df576158de61eafb565b5b815181106158f0576158ef61f0d7565b5b602002602001019061ffff16908161ffff168152505060288160b860d381111561591d5761591c61eafb565b5b8151811061592e5761592d61f0d7565b5b602002602001019061ffff16908161ffff1681525050601e8160b960d381111561595b5761595a61eafb565b5b8151811061596c5761596b61f0d7565b5b602002602001019061ffff16908161ffff168152505060148160ba60d38111156159995761599861eafb565b5b815181106159aa576159a961f0d7565b5b602002602001019061ffff16908161ffff1681525050600a8160bb60d38111156159d7576159d661eafb565b5b815181106159e8576159e761f0d7565b5b602002602001019061ffff16908161ffff168152505060108160bc60d3811115615a1557615a1461eafb565b5b81518110615a2657615a2561f0d7565b5b602002602001019061ffff16908161ffff1681525050600e8160bf60d3811115615a5357615a5261eafb565b5b81518110615a6457615a6361f0d7565b5b602002602001019061ffff16908161ffff1681525050600c8160bd60d3811115615a9157615a9061eafb565b5b81518110615aa257615aa161f0d7565b5b602002602001019061ffff16908161ffff168152505060098160c060d3811115615acf57615ace61eafb565b5b81518110615ae057615adf61f0d7565b5b602002602001019061ffff16908161ffff168152505060038160be60d3811115615b0d57615b0c61eafb565b5b81518110615b1e57615b1d61f0d7565b5b602002602001019061ffff16908161ffff168152505060038160c160d3811115615b4b57615b4a61eafb565b5b81518110615b5c57615b5b61f0d7565b5b602002602001019061ffff16908161ffff168152505060038160c260d3811115615b8957615b8861eafb565b5b81518110615b9a57615b9961f0d7565b5b602002602001019061ffff16908161ffff168152505060038160c360d3811115615bc757615bc661eafb565b5b81518110615bd857615bd761f0d7565b5b602002602001019061ffff16908161ffff168152505060038160c460d3811115615c0557615c0461eafb565b5b81518110615c1657615c1561f0d7565b5b602002602001019061ffff16908161ffff168152505060038160c560d3811115615c4357615c4261eafb565b5b81518110615c5457615c5361f0d7565b5b602002602001019061ffff16908161ffff168152505060038160c660d3811115615c8157615c8061eafb565b5b81518110615c9257615c9161f0d7565b5b602002602001019061ffff16908161ffff168152505060038160c760d3811115615cbf57615cbe61eafb565b5b81518110615cd057615ccf61f0d7565b5b602002602001019061ffff16908161ffff168152505060c88160c860d3811115615cfd57615cfc61eafb565b5b81518110615d0e57615d0d61f0d7565b5b602002602001019061ffff16908161ffff168152505060b48160cb60d3811115615d3b57615d3a61eafb565b5b81518110615d4c57615d4b61f0d7565b5b602002602001019061ffff16908161ffff168152505060788160c960d3811115615d7957615d7861eafb565b5b81518110615d8a57615d8961f0d7565b5b602002602001019061ffff16908161ffff168152505060648160cc60d3811115615db757615db661eafb565b5b81518110615dc857615dc761f0d7565b5b602002602001019061ffff16908161ffff168152505060198160ca60d3811115615df557615df461eafb565b5b81518110615e0657615e0561f0d7565b5b602002602001019061ffff16908161ffff168152505060198160cd60d3811115615e3357615e3261eafb565b5b81518110615e4457615e4361f0d7565b5b602002602001019061ffff16908161ffff168152505060198160ce60d3811115615e7157615e7061eafb565b5b81518110615e8257615e8161f0d7565b5b602002602001019061ffff16908161ffff168152505060198160cf60d3811115615eaf57615eae61eafb565b5b81518110615ec057615ebf61f0d7565b5b602002602001019061ffff16908161ffff168152505060198160d060d3811115615eed57615eec61eafb565b5b81518110615efe57615efd61f0d7565b5b602002602001019061ffff16908161ffff168152505060198160d160d3811115615f2b57615f2a61eafb565b5b81518110615f3c57615f3b61f0d7565b5b602002602001019061ffff16908161ffff168152505060198160d260d3811115615f6957615f6861eafb565b5b81518110615f7a57615f7961f0d7565b5b602002602001019061ffff16908161ffff168152505060198160d380811115615fa657615fa561eafb565b5b81518110615fb757615fb661f0d7565b5b602002602001019061ffff16908161ffff16815250505f615fd8848361e0c9565b90508060d3811115615fed57615fec61eafb565b5b925050505b92915050565b5f5f600967ffffffffffffffff8111156160155761601461e9d4565b5b6040519080825280602002602001820160405280156160435781602001602082028036833780820191505090505b5090506126ac815f600381111561605d5761605c61eafb565b5b8151811061606e5761606d61f0d7565b5b602002602001019061ffff16908161ffff16815250506028816001600381111561609b5761609a61eafb565b5b815181106160ac576160ab61f0d7565b5b602002602001019061ffff16908161ffff1681525050601e81600260038111156160d9576160d861eafb565b5b815181106160ea576160e961f0d7565b5b602002602001019061ffff16908161ffff1681525050601e816003808111156161165761611561eafb565b5b815181106161275761612661f0d7565b5b602002602001019061ffff16908161ffff16815250505f616148848361e0c9565b905080600381111561615d5761615c61eafb565b5b92505050919050565b5f5f60a967ffffffffffffffff8111156161835761618261e9d4565b5b6040519080825280602002602001820160405280156161b15781602001602082028036833780820191505090505b5090506103bb815f60a88111156161cb576161ca61eafb565b5b815181106161dc576161db61f0d7565b5b602002602001019061ffff16908161ffff1681525050604b81607160a88111156162095761620861eafb565b5b8151811061621a5761621961f0d7565b5b602002602001019061ffff16908161ffff1681525050604b81607260a88111156162475761624661eafb565b5b815181106162585761625761f0d7565b5b602002602001019061ffff16908161ffff1681525050604b81607360a88111156162855761628461eafb565b5b815181106162965761629561f0d7565b5b602002602001019061ffff16908161ffff1681525050604b81607460a88111156162c3576162c261eafb565b5b815181106162d4576162d361f0d7565b5b602002602001019061ffff16908161ffff1681525050604b81607560a88111156163015761630061eafb565b5b815181106163125761631161f0d7565b5b602002602001019061ffff16908161ffff1681525050604b81607660a881111561633f5761633e61eafb565b5b815181106163505761634f61f0d7565b5b602002602001019061ffff16908161ffff1681525050604b81607760a881111561637d5761637c61eafb565b5b8151811061638e5761638d61f0d7565b5b602002602001019061ffff16908161ffff1681525050604b81607860a88111156163bb576163ba61eafb565b5b815181106163cc576163cb61f0d7565b5b602002602001019061ffff16908161ffff1681525050604b81607960a88111156163f9576163f861eafb565b5b8151811061640a5761640961f0d7565b5b602002602001019061ffff16908161ffff1681525050604b81607a60a88111156164375761643661eafb565b5b815181106164485761644761f0d7565b5b602002602001019061ffff16908161ffff1681525050608281602460a88111156164755761647461eafb565b5b815181106164865761648561f0d7565b5b602002602001019061ffff16908161ffff1681525050608281602560a88111156164b3576164b261eafb565b5b815181106164c4576164c361f0d7565b5b602002602001019061ffff16908161ffff1681525050608281602660a88111156164f1576164f061eafb565b5b815181106165025761650161f0d7565b5b602002602001019061ffff16908161ffff1681525050608281602760a881111561652f5761652e61eafb565b5b815181106165405761653f61f0d7565b5b602002602001019061ffff16908161ffff1681525050608281602360a881111561656d5761656c61eafb565b5b8151811061657e5761657d61f0d7565b5b602002602001019061ffff16908161ffff1681525050607e81600260a88111156165ab576165aa61eafb565b5b815181106165bc576165bb61f0d7565b5b602002602001019061ffff16908161ffff1681525050607e81600360a88111156165e9576165e861eafb565b5b815181106165fa576165f961f0d7565b5b602002602001019061ffff16908161ffff1681525050607e81600460a88111156166275761662661eafb565b5b815181106166385761663761f0d7565b5b602002602001019061ffff16908161ffff1681525050607e81600560a88111156166655761666461eafb565b5b815181106166765761667561f0d7565b5b602002602001019061ffff16908161ffff1681525050607e81600160a88111156166a3576166a261eafb565b5b815181106166b4576166b361f0d7565b5b602002602001019061ffff16908161ffff1681525050604e81606960a88111156166e1576166e061eafb565b5b815181106166f2576166f161f0d7565b5b602002602001019061ffff16908161ffff1681525050604e81606a60a881111561671f5761671e61eafb565b5b815181106167305761672f61f0d7565b5b602002602001019061ffff16908161ffff1681525050604e81606b60a881111561675d5761675c61eafb565b5b8151811061676e5761676d61f0d7565b5b602002602001019061ffff16908161ffff1681525050604e81606c60a881111561679b5761679a61eafb565b5b815181106167ac576167ab61f0d7565b5b602002602001019061ffff16908161ffff1681525050604e81606d60a88111156167d9576167d861eafb565b5b815181106167ea576167e961f0d7565b5b602002602001019061ffff16908161ffff1681525050604e81606e60a88111156168175761681661eafb565b5b815181106168285761682761f0d7565b5b602002602001019061ffff16908161ffff1681525050604e81606f60a88111156168555761685461eafb565b5b815181106168665761686561f0d7565b5b602002602001019061ffff16908161ffff1681525050604e81607060a88111156168935761689261eafb565b5b815181106168a4576168a361f0d7565b5b602002602001019061ffff16908161ffff1681525050604481600f60a88111156168d1576168d061eafb565b5b815181106168e2576168e161f0d7565b5b602002602001019061ffff16908161ffff1681525050604481601060a881111561690f5761690e61eafb565b5b815181106169205761691f61f0d7565b5b602002602001019061ffff16908161ffff1681525050604481601160a881111561694d5761694c61eafb565b5b8151811061695e5761695d61f0d7565b5b602002602001019061ffff16908161ffff1681525050604481601260a881111561698b5761698a61eafb565b5b8151811061699c5761699b61f0d7565b5b602002602001019061ffff16908161ffff1681525050604481601360a88111156169c9576169c861eafb565b5b815181106169da576169d961f0d7565b5b602002602001019061ffff16908161ffff1681525050604481601460a8811115616a0757616a0661eafb565b5b81518110616a1857616a1761f0d7565b5b602002602001019061ffff16908161ffff1681525050604481601560a8811115616a4557616a4461eafb565b5b81518110616a5657616a5561f0d7565b5b602002602001019061ffff16908161ffff1681525050604481601660a8811115616a8357616a8261eafb565b5b81518110616a9457616a9361f0d7565b5b602002602001019061ffff16908161ffff1681525050604481601760a8811115616ac157616ac061eafb565b5b81518110616ad257616ad161f0d7565b5b602002602001019061ffff16908161ffff1681525050604b81609960a8811115616aff57616afe61eafb565b5b81518110616b1057616b0f61f0d7565b5b602002602001019061ffff16908161ffff1681525050604b81609a60a8811115616b3d57616b3c61eafb565b5b81518110616b4e57616b4d61f0d7565b5b602002602001019061ffff16908161ffff1681525050604b81609b60a8811115616b7b57616b7a61eafb565b5b81518110616b8c57616b8b61f0d7565b5b602002602001019061ffff16908161ffff1681525050604b81609c60a8811115616bb957616bb861eafb565b5b81518110616bca57616bc961f0d7565b5b602002602001019061ffff16908161ffff1681525050604b81609d60a8811115616bf757616bf661eafb565b5b81518110616c0857616c0761f0d7565b5b602002602001019061ffff16908161ffff1681525050604b81609e60a8811115616c3557616c3461eafb565b5b81518110616c4657616c4561f0d7565b5b602002602001019061ffff16908161ffff1681525050604b81609f60a8811115616c7357616c7261eafb565b5b81518110616c8457616c8361f0d7565b5b602002602001019061ffff16908161ffff1681525050604b8160a060a8811115616cb157616cb061eafb565b5b81518110616cc257616cc161f0d7565b5b602002602001019061ffff16908161ffff1681525050603e81600660a8811115616cef57616cee61eafb565b5b81518110616d0057616cff61f0d7565b5b602002602001019061ffff16908161ffff1681525050603e81600760a8811115616d2d57616d2c61eafb565b5b81518110616d3e57616d3d61f0d7565b5b602002602001019061ffff16908161ffff1681525050603e81600860a8811115616d6b57616d6a61eafb565b5b81518110616d7c57616d7b61f0d7565b5b602002602001019061ffff16908161ffff1681525050603e81600960a8811115616da957616da861eafb565b5b81518110616dba57616db961f0d7565b5b602002602001019061ffff16908161ffff1681525050603e81600a60a8811115616de757616de661eafb565b5b81518110616df857616df761f0d7565b5b602002602001019061ffff16908161ffff1681525050603e81600b60a8811115616e2557616e2461eafb565b5b81518110616e3657616e3561f0d7565b5b602002602001019061ffff16908161ffff1681525050603e81600c60a8811115616e6357616e6261eafb565b5b81518110616e7457616e7361f0d7565b5b602002602001019061ffff16908161ffff1681525050603e81600d60a8811115616ea157616ea061eafb565b5b81518110616eb257616eb161f0d7565b5b602002602001019061ffff16908161ffff1681525050603e81600e60a8811115616edf57616ede61eafb565b5b81518110616ef057616eef61f0d7565b5b602002602001019061ffff16908161ffff1681525050604281603c60a8811115616f1d57616f1c61eafb565b5b81518110616f2e57616f2d61f0d7565b5b602002602001019061ffff16908161ffff1681525050604281603d60a8811115616f5b57616f5a61eafb565b5b81518110616f6c57616f6b61f0d7565b5b602002602001019061ffff16908161ffff1681525050604281603e60a8811115616f9957616f9861eafb565b5b81518110616faa57616fa961f0d7565b5b602002602001019061ffff16908161ffff1681525050604281603f60a8811115616fd757616fd661eafb565b5b81518110616fe857616fe761f0d7565b5b602002602001019061ffff16908161ffff1681525050604281604060a88111156170155761701461eafb565b5b815181106170265761702561f0d7565b5b602002602001019061ffff16908161ffff168152505061014581604b60a88111156170545761705361eafb565b5b815181106170655761706461f0d7565b5b602002602001019061ffff16908161ffff1681525050604081604c60a88111156170925761709161eafb565b5b815181106170a3576170a261f0d7565b5b602002602001019061ffff16908161ffff1681525050604081604d60a88111156170d0576170cf61eafb565b5b815181106170e1576170e061f0d7565b5b602002602001019061ffff16908161ffff1681525050604081604e60a881111561710e5761710d61eafb565b5b8151811061711f5761711e61f0d7565b5b602002602001019061ffff16908161ffff1681525050604081604f60a881111561714c5761714b61eafb565b5b8151811061715d5761715c61f0d7565b5b602002602001019061ffff16908161ffff1681525050604081605060a881111561718a5761718961eafb565b5b8151811061719b5761719a61f0d7565b5b602002602001019061ffff16908161ffff1681525050604e81608d60a88111156171c8576171c761eafb565b5b815181106171d9576171d861f0d7565b5b602002602001019061ffff16908161ffff1681525050604e81608e60a88111156172065761720561eafb565b5b815181106172175761721661f0d7565b5b602002602001019061ffff16908161ffff1681525050604e81608f60a88111156172445761724361eafb565b5b815181106172555761725461f0d7565b5b602002602001019061ffff16908161ffff1681525050604e81609060a88111156172825761728161eafb565b5b815181106172935761729261f0d7565b5b602002602001019061ffff16908161ffff1681525050602681607b60a88111156172c0576172bf61eafb565b5b815181106172d1576172d061f0d7565b5b602002602001019061ffff16908161ffff1681525050602681607c60a88111156172fe576172fd61eafb565b5b8151811061730f5761730e61f0d7565b5b602002602001019061ffff16908161ffff1681525050602681607d60a881111561733c5761733b61eafb565b5b8151811061734d5761734c61f0d7565b5b602002602001019061ffff16908161ffff1681525050602681607e60a881111561737a5761737961eafb565b5b8151811061738b5761738a61f0d7565b5b602002602001019061ffff16908161ffff1681525050602681607f60a88111156173b8576173b761eafb565b5b815181106173c9576173c861f0d7565b5b602002602001019061ffff16908161ffff1681525050602681608060a88111156173f6576173f561eafb565b5b815181106174075761740661f0d7565b5b602002602001019061ffff16908161ffff1681525050602681608160a88111156174345761743361eafb565b5b815181106174455761744461f0d7565b5b602002602001019061ffff16908161ffff1681525050602681608260a88111156174725761747161eafb565b5b815181106174835761748261f0d7565b5b602002602001019061ffff16908161ffff1681525050606481606660a88111156174b0576174af61eafb565b5b815181106174c1576174c061f0d7565b5b602002602001019061ffff16908161ffff1681525050606481606760a88111156174ee576174ed61eafb565b5b815181106174ff576174fe61f0d7565b5b602002602001019061ffff16908161ffff1681525050606481606860a881111561752c5761752b61eafb565b5b8151811061753d5761753c61f0d7565b5b602002602001019061ffff16908161ffff168152505061012781603060a881111561756b5761756a61eafb565b5b8151811061757c5761757b61f0d7565b5b602002602001019061ffff16908161ffff168152505061012281609160a88111156175aa576175a961eafb565b5b815181106175bb576175ba61f0d7565b5b602002602001019061ffff16908161ffff1681525050602981605b60a88111156175e8576175e761eafb565b5b815181106175f9576175f861f0d7565b5b602002602001019061ffff16908161ffff1681525050602981605c60a88111156176265761762561eafb565b5b815181106176375761763661f0d7565b5b602002602001019061ffff16908161ffff1681525050602981605d60a88111156176645761766361eafb565b5b815181106176755761767461f0d7565b5b602002602001019061ffff16908161ffff1681525050602981605e60a88111156176a2576176a161eafb565b5b815181106176b3576176b261f0d7565b5b602002602001019061ffff16908161ffff1681525050602981605f60a88111156176e0576176df61eafb565b5b815181106176f1576176f061f0d7565b5b602002602001019061ffff16908161ffff1681525050602981606060a881111561771e5761771d61eafb565b5b8151811061772f5761772e61f0d7565b5b602002602001019061ffff16908161ffff1681525050602981606160a881111561775c5761775b61eafb565b5b8151811061776d5761776c61f0d7565b5b602002602001019061ffff16908161ffff1681525050601281603160a881111561779a5761779961eafb565b5b815181106177ab576177aa61f0d7565b5b602002602001019061ffff16908161ffff1681525050601281603260a88111156177d8576177d761eafb565b5b815181106177e9576177e861f0d7565b5b602002602001019061ffff16908161ffff1681525050601281603360a88111156178165761781561eafb565b5b815181106178275761782661f0d7565b5b602002602001019061ffff16908161ffff1681525050601281603460a88111156178545761785361eafb565b5b815181106178655761786461f0d7565b5b602002602001019061ffff16908161ffff1681525050601281603560a88111156178925761789161eafb565b5b815181106178a3576178a261f0d7565b5b602002602001019061ffff16908161ffff1681525050601281603660a88111156178d0576178cf61eafb565b5b815181106178e1576178e061f0d7565b5b602002602001019061ffff16908161ffff1681525050601281603760a881111561790e5761790d61eafb565b5b8151811061791f5761791e61f0d7565b5b602002602001019061ffff16908161ffff1681525050601281603860a881111561794c5761794b61eafb565b5b8151811061795d5761795c61f0d7565b5b602002602001019061ffff16908161ffff1681525050601281603960a881111561798a5761798961eafb565b5b8151811061799b5761799a61f0d7565b5b602002602001019061ffff16908161ffff1681525050609681602860a88111156179c8576179c761eafb565b5b815181106179d9576179d861f0d7565b5b602002602001019061ffff16908161ffff1681525050603081601860a8811115617a0657617a0561eafb565b5b81518110617a1757617a1661f0d7565b5b602002602001019061ffff16908161ffff1681525050603081601960a8811115617a4457617a4361eafb565b5b81518110617a5557617a5461f0d7565b5b602002602001019061ffff16908161ffff1681525050603081601a60a8811115617a8257617a8161eafb565b5b81518110617a9357617a9261f0d7565b5b602002602001019061ffff16908161ffff1681525050600f81604160a8811115617ac057617abf61eafb565b5b81518110617ad157617ad061f0d7565b5b602002602001019061ffff16908161ffff1681525050600f81604360a8811115617afe57617afd61eafb565b5b81518110617b0f57617b0e61f0d7565b5b602002602001019061ffff16908161ffff1681525050600f81604260a8811115617b3c57617b3b61eafb565b5b81518110617b4d57617b4c61f0d7565b5b602002602001019061ffff16908161ffff1681525050600f81604460a8811115617b7a57617b7961eafb565b5b81518110617b8b57617b8a61f0d7565b5b602002602001019061ffff16908161ffff1681525050600f81604560a8811115617bb857617bb761eafb565b5b81518110617bc957617bc861f0d7565b5b602002602001019061ffff16908161ffff1681525050600f81604660a8811115617bf657617bf561eafb565b5b81518110617c0757617c0661f0d7565b5b602002602001019061ffff16908161ffff1681525050600f81604760a8811115617c3457617c3361eafb565b5b81518110617c4557617c4461f0d7565b5b602002602001019061ffff16908161ffff1681525050600f81604860a8811115617c7257617c7161eafb565b5b81518110617c8357617c8261f0d7565b5b602002602001019061ffff16908161ffff1681525050600f81604960a8811115617cb057617caf61eafb565b5b81518110617cc157617cc061f0d7565b5b602002602001019061ffff16908161ffff1681525050600e81608360a8811115617cee57617ced61eafb565b5b81518110617cff57617cfe61f0d7565b5b602002602001019061ffff16908161ffff1681525050600e81608460a8811115617d2c57617d2b61eafb565b5b81518110617d3d57617d3c61f0d7565b5b602002602001019061ffff16908161ffff1681525050600e81608560a8811115617d6a57617d6961eafb565b5b81518110617d7b57617d7a61f0d7565b5b602002602001019061ffff16908161ffff1681525050600e81608660a8811115617da857617da761eafb565b5b81518110617db957617db861f0d7565b5b602002602001019061ffff16908161ffff1681525050600e81608760a8811115617de657617de561eafb565b5b81518110617df757617df661f0d7565b5b602002602001019061ffff16908161ffff1681525050600e81608860a8811115617e2457617e2361eafb565b5b81518110617e3557617e3461f0d7565b5b602002602001019061ffff16908161ffff1681525050600e81608960a8811115617e6257617e6161eafb565b5b81518110617e7357617e7261f0d7565b5b602002602001019061ffff16908161ffff1681525050600e81608a60a8811115617ea057617e9f61eafb565b5b81518110617eb157617eb061f0d7565b5b602002602001019061ffff16908161ffff1681525050600e81608b60a8811115617ede57617edd61eafb565b5b81518110617eef57617eee61f0d7565b5b602002602001019061ffff16908161ffff1681525050601081601d60a8811115617f1c57617f1b61eafb565b5b81518110617f2d57617f2c61f0d7565b5b602002602001019061ffff16908161ffff1681525050601081601c60a8811115617f5a57617f5961eafb565b5b81518110617f6b57617f6a61f0d7565b5b602002602001019061ffff16908161ffff1681525050601081601e60a8811115617f9857617f9761eafb565b5b81518110617fa957617fa861f0d7565b5b602002602001019061ffff16908161ffff1681525050601081601f60a8811115617fd657617fd561eafb565b5b81518110617fe757617fe661f0d7565b5b602002602001019061ffff16908161ffff1681525050601081602060a88111156180145761801361eafb565b5b815181106180255761802461f0d7565b5b602002602001019061ffff16908161ffff1681525050601081602160a88111156180525761805161eafb565b5b815181106180635761806261f0d7565b5b602002602001019061ffff16908161ffff1681525050601081602260a88111156180905761808f61eafb565b5b815181106180a1576180a061f0d7565b5b602002602001019061ffff16908161ffff1681525050601081609260a88111156180ce576180cd61eafb565b5b815181106180df576180de61f0d7565b5b602002602001019061ffff16908161ffff1681525050601081609360a881111561810c5761810b61eafb565b5b8151811061811d5761811c61f0d7565b5b602002602001019061ffff16908161ffff1681525050601081609460a881111561814a5761814961eafb565b5b8151811061815b5761815a61f0d7565b5b602002602001019061ffff16908161ffff1681525050601081609560a88111156181885761818761eafb565b5b815181106181995761819861f0d7565b5b602002602001019061ffff16908161ffff1681525050601081609660a88111156181c6576181c561eafb565b5b815181106181d7576181d661f0d7565b5b602002602001019061ffff16908161ffff1681525050601081609760a88111156182045761820361eafb565b5b815181106182155761821461f0d7565b5b602002602001019061ffff16908161ffff1681525050601081609860a88111156182425761824161eafb565b5b815181106182535761825261f0d7565b5b602002602001019061ffff16908161ffff1681525050606e81601b60a88111156182805761827f61eafb565b5b815181106182915761829061f0d7565b5b602002602001019061ffff16908161ffff1681525050606981603a60a88111156182be576182bd61eafb565b5b815181106182cf576182ce61f0d7565b5b602002602001019061ffff16908161ffff1681525050602281605760a88111156182fc576182fb61eafb565b5b8151811061830d5761830c61f0d7565b5b602002602001019061ffff16908161ffff1681525050602281605860a881111561833a5761833961eafb565b5b8151811061834b5761834a61f0d7565b5b602002602001019061ffff16908161ffff1681525050602281605960a88111156183785761837761eafb565b5b815181106183895761838861f0d7565b5b602002602001019061ffff16908161ffff1681525050606481605a60a88111156183b6576183b561eafb565b5b815181106183c7576183c661f0d7565b5b602002602001019061ffff16908161ffff1681525050604b81606360a88111156183f4576183f361eafb565b5b815181106184055761840461f0d7565b5b602002602001019061ffff16908161ffff1681525050602d81606460a88111156184325761843161eafb565b5b815181106184435761844261f0d7565b5b602002602001019061ffff16908161ffff1681525050601481606560a88111156184705761846f61eafb565b5b815181106184815761848061f0d7565b5b602002602001019061ffff16908161ffff1681525050604181605160a88111156184ae576184ad61eafb565b5b815181106184bf576184be61f0d7565b5b602002602001019061ffff16908161ffff1681525050600f81605360a88111156184ec576184eb61eafb565b5b815181106184fd576184fc61f0d7565b5b602002602001019061ffff16908161ffff1681525050600f81605460a881111561852a5761852961eafb565b5b8151811061853b5761853a61f0d7565b5b602002602001019061ffff16908161ffff1681525050600f81605560a88111156185685761856761eafb565b5b815181106185795761857861f0d7565b5b602002602001019061ffff16908161ffff1681525050600f81605660a88111156185a6576185a561eafb565b5b815181106185b7576185b661f0d7565b5b602002602001019061ffff16908161ffff1681525050603781608c60a88111156185e4576185e361eafb565b5b815181106185f5576185f461f0d7565b5b602002602001019061ffff16908161ffff1681525050603281606260a88111156186225761862161eafb565b5b815181106186335761863261f0d7565b5b602002602001019061ffff16908161ffff1681525050600781602960a88111156186605761865f61eafb565b5b815181106186715761867061f0d7565b5b602002602001019061ffff16908161ffff1681525050600781602b60a881111561869e5761869d61eafb565b5b815181106186af576186ae61f0d7565b5b602002602001019061ffff16908161ffff1681525050600781602c60a88111156186dc576186db61eafb565b5b815181106186ed576186ec61f0d7565b5b602002602001019061ffff16908161ffff1681525050600781602d60a881111561871a5761871961eafb565b5b8151811061872b5761872a61f0d7565b5b602002602001019061ffff16908161ffff1681525050600781602e60a88111156187585761875761eafb565b5b815181106187695761876861f0d7565b5b602002602001019061ffff16908161ffff1681525050600781602f60a88111156187965761879561eafb565b5b815181106187a7576187a661f0d7565b5b602002602001019061ffff16908161ffff168152505060058160a260a88111156187d4576187d361eafb565b5b815181106187e5576187e461f0d7565b5b602002602001019061ffff16908161ffff168152505060058160a360a88111156188125761881161eafb565b5b815181106188235761882261f0d7565b5b602002602001019061ffff16908161ffff168152505060058160a460a88111156188505761884f61eafb565b5b815181106188615761886061f0d7565b5b602002602001019061ffff16908161ffff168152505060058160a560a881111561888e5761888d61eafb565b5b8151811061889f5761889e61f0d7565b5b602002602001019061ffff16908161ffff168152505060058160a660a88111156188cc576188cb61eafb565b5b815181106188dd576188dc61f0d7565b5b602002602001019061ffff16908161ffff168152505060058160a760a881111561890a5761890961eafb565b5b8151811061891b5761891a61f0d7565b5b602002602001019061ffff16908161ffff168152505060058160a8808111156189475761894661eafb565b5b815181106189585761895761f0d7565b5b602002602001019061ffff16908161ffff168152505060058160a160a88111156189855761898461eafb565b5b815181106189965761899561f0d7565b5b602002602001019061ffff16908161ffff1681525050601e81604a60a88111156189c3576189c261eafb565b5b815181106189d4576189d361f0d7565b5b602002602001019061ffff16908161ffff1681525050600f81603b60a8811115618a0157618a0061eafb565b5b81518110618a1257618a1161f0d7565b5b602002602001019061ffff16908161ffff1681525050600381605260a8811115618a3f57618a3e61eafb565b5b81518110618a5057618a4f61f0d7565b5b602002602001019061ffff16908161ffff16815250505f618a71848361e0c9565b90508060a8811115618a8657618a8561eafb565b5b92505050919050565b5f5f600d67ffffffffffffffff811115618aac57618aab61e9d4565b5b604051908082528060200260200182016040528015618ada5781602001602082028036833780820191505090505b509050618aef84618aea9061fa46565b61e2b8565b15618bed57601e816009600c811115618b0b57618b0a61eafb565b5b81518110618b1c57618b1b61f0d7565b5b602002602001019061ffff16908161ffff16815250506014816007600c811115618b4957618b4861eafb565b5b81518110618b5a57618b5961f0d7565b5b602002602001019061ffff16908161ffff1681525050600f816008600c811115618b8757618b8661eafb565b5b81518110618b9857618b9761f0d7565b5b602002602001019061ffff16908161ffff1681525050600a816006600c811115618bc557618bc461eafb565b5b81518110618bd657618bd561f0d7565b5b602002602001019061ffff16908161ffff16815250505b618bff84618bfa9061fa46565b61e2ec565b15618c8057608781600c80811115618c1a57618c1961eafb565b5b81518110618c2b57618c2a61f0d7565b5b602002602001019061ffff16908161ffff1681525050608281600b600c811115618c5857618c5761eafb565b5b81518110618c6957618c6861f0d7565b5b602002602001019061ffff16908161ffff16815250505b612328815f600c811115618c9757618c9661eafb565b5b81518110618ca857618ca761f0d7565b5b602002602001019061ffff16908161ffff168152505060e1816002600c811115618cd557618cd461eafb565b5b81518110618ce657618ce561f0d7565b5b602002602001019061ffff16908161ffff168152505060b9816001600c811115618d1357618d1261eafb565b5b81518110618d2457618d2361f0d7565b5b602002602001019061ffff16908161ffff16815250506091816003600c811115618d5157618d5061eafb565b5b81518110618d6257618d6161f0d7565b5b602002602001019061ffff16908161ffff1681525050603781600a600c811115618d8f57618d8e61eafb565b5b81518110618da057618d9f61f0d7565b5b602002602001019061ffff16908161ffff16815250506023816005600c811115618dcd57618dcc61eafb565b5b81518110618dde57618ddd61f0d7565b5b602002602001019061ffff16908161ffff1681525050600f816004600c811115618e0b57618e0a61eafb565b5b81518110618e1c57618e1b61f0d7565b5b602002602001019061ffff16908161ffff16815250505f618e3d848361e0c9565b905080600c811115618e5257618e5161eafb565b5b9250505092915050565b5f5f601c67ffffffffffffffff811115618e7957618e7861e9d4565b5b604051908082528060200260200182016040528015618ea75781602001602082028036833780820191505090505b5090506102ee816007601c811115618ec257618ec161eafb565b5b81518110618ed357618ed261f0d7565b5b602002602001019061ffff16908161ffff16815250506102ee816008601c811115618f0157618f0061eafb565b5b81518110618f1257618f1161f0d7565b5b602002602001019061ffff16908161ffff16815250506102ee816009601c811115618f4057618f3f61eafb565b5b81518110618f5157618f5061f0d7565b5b602002602001019061ffff16908161ffff16815250506102ee81600a601c811115618f7f57618f7e61eafb565b5b81518110618f9057618f8f61f0d7565b5b602002602001019061ffff16908161ffff16815250506102ee81600b601c811115618fbe57618fbd61eafb565b5b81518110618fcf57618fce61f0d7565b5b602002602001019061ffff16908161ffff16815250506102ee81600c601c811115618ffd57618ffc61eafb565b5b8151811061900e5761900d61f0d7565b5b602002602001019061ffff16908161ffff16815250506102ee81600d601c81111561903c5761903b61eafb565b5b8151811061904d5761904c61f0d7565b5b602002602001019061ffff16908161ffff16815250506102ee81600e601c81111561907b5761907a61eafb565b5b8151811061908c5761908b61f0d7565b5b602002602001019061ffff16908161ffff16815250506102ee81600f601c8111156190ba576190b961eafb565b5b815181106190cb576190ca61f0d7565b5b602002602001019061ffff16908161ffff16815250506102ee816010601c8111156190f9576190f861eafb565b5b8151811061910a5761910961f0d7565b5b602002602001019061ffff16908161ffff16815250506102ee816011601c8111156191385761913761eafb565b5b815181106191495761914861f0d7565b5b602002602001019061ffff16908161ffff16815250506102ee816012601c8111156191775761917661eafb565b5b815181106191885761918761f0d7565b5b602002602001019061ffff16908161ffff168152505061012c81601b601c8111156191b6576191b561eafb565b5b815181106191c7576191c661f0d7565b5b602002602001019061ffff16908161ffff168152505060af816002601c8111156191f4576191f361eafb565b5b815181106192055761920461f0d7565b5b602002602001019061ffff16908161ffff1681525050607881601c808111156192315761923061eafb565b5b815181106192425761924161f0d7565b5b602002602001019061ffff16908161ffff1681525050605081601a601c81111561926f5761926e61eafb565b5b815181106192805761927f61f0d7565b5b602002602001019061ffff16908161ffff1681525050603c816016601c8111156192ad576192ac61eafb565b5b815181106192be576192bd61f0d7565b5b602002602001019061ffff16908161ffff16815250506037816005601c8111156192eb576192ea61eafb565b5b815181106192fc576192fb61f0d7565b5b602002602001019061ffff16908161ffff1681525050602d816004601c8111156193295761932861eafb565b5b8151811061933a5761933961f0d7565b5b602002602001019061ffff16908161ffff16815250506023816001601c8111156193675761936661eafb565b5b815181106193785761937761f0d7565b5b602002602001019061ffff16908161ffff1681525050601e816018601c8111156193a5576193a461eafb565b5b815181106193b6576193b561f0d7565b5b602002602001019061ffff16908161ffff16815250506016816014601c8111156193e3576193e261eafb565b5b815181106193f4576193f361f0d7565b5b602002602001019061ffff16908161ffff16815250506012816017601c8111156194215761942061eafb565b5b815181106194325761943161f0d7565b5b602002602001019061ffff16908161ffff16815250506010816015601c81111561945f5761945e61eafb565b5b815181106194705761946f61f0d7565b5b602002602001019061ffff16908161ffff1681525050600e816006601c81111561949d5761949c61eafb565b5b815181106194ae576194ad61f0d7565b5b602002602001019061ffff16908161ffff1681525050600c816003601c8111156194db576194da61eafb565b5b815181106194ec576194eb61f0d7565b5b602002602001019061ffff16908161ffff1681525050600a816019601c8111156195195761951861eafb565b5b8151811061952a5761952961f0d7565b5b602002602001019061ffff16908161ffff16815250506008816013601c8111156195575761955661eafb565b5b815181106195685761956761f0d7565b5b602002602001019061ffff16908161ffff16815250505f619589848361e0c9565b905080601c81111561959e5761959d61eafb565b5b92505050919050565b5f5f600b67ffffffffffffffff8111156195c4576195c361e9d4565b5b6040519080825280602002602001820160405280156195f25781602001602082028036833780820191505090505b50905061206c815f600a81111561960c5761960b61eafb565b5b8151811061961d5761961c61f0d7565b5b602002602001019061ffff16908161ffff16815250506101f4816009600a81111561964b5761964a61eafb565b5b8151811061965c5761965b61f0d7565b5b602002602001019061ffff16908161ffff1681525050610190816005600a81111561968a5761968961eafb565b5b8151811061969b5761969a61f0d7565b5b602002602001019061ffff16908161ffff168152505061012c816002600a8111156196c9576196c861eafb565b5b815181106196da576196d961f0d7565b5b602002602001019061ffff16908161ffff168152505060c8816004600a8111156197075761970661eafb565b5b815181106197185761971761f0d7565b5b602002602001019061ffff16908161ffff16815250506064816007600a8111156197455761974461eafb565b5b815181106197565761975561f0d7565b5b602002602001019061ffff16908161ffff16815250506032816006600a8111156197835761978261eafb565b5b815181106197945761979361f0d7565b5b602002602001019061ffff16908161ffff1681525050604b816003600a8111156197c1576197c061eafb565b5b815181106197d2576197d161f0d7565b5b602002602001019061ffff16908161ffff16815250506019816001600a8111156197ff576197fe61eafb565b5b815181106198105761980f61f0d7565b5b602002602001019061ffff16908161ffff1681525050602381600a8081111561983c5761983b61eafb565b5b8151811061984d5761984c61f0d7565b5b602002602001019061ffff16908161ffff1681525050600f816008600a81111561987a5761987961eafb565b5b8151811061988b5761988a61f0d7565b5b602002602001019061ffff16908161ffff16815250505f6198ac848361e0c9565b905080600a8111156198c1576198c061eafb565b5b92505050919050565b5f5f605867ffffffffffffffff8111156198e7576198e661e9d4565b5b6040519080825280602002602001820160405280156199155781602001602082028036833780820191505090505b50905061992a846199259061fa46565b61e16c565b15801561994657506199448461993f9061fa46565b61e1e4565b155b8015619961575061995f8461995a9061fa46565b61e137565b155b1561996f575f91505061b1e8565b6199818461997c9061fa46565b61e137565b15619c7357611388815f605781111561999d5761999c61eafb565b5b815181106199ae576199ad61f0d7565b5b602002602001019061ffff16908161ffff1681525050606081600560578111156199db576199da61eafb565b5b815181106199ec576199eb61f0d7565b5b602002602001019061ffff16908161ffff1681525050602a8160086057811115619a1957619a1861eafb565b5b81518110619a2a57619a2961f0d7565b5b602002602001019061ffff16908161ffff1681525050602a81600a6057811115619a5757619a5661eafb565b5b81518110619a6857619a6761f0d7565b5b602002602001019061ffff16908161ffff1681525050601981600b6057811115619a9557619a9461eafb565b5b81518110619aa657619aa561f0d7565b5b602002602001019061ffff16908161ffff168152505060198160186057811115619ad357619ad261eafb565b5b81518110619ae457619ae361f0d7565b5b602002602001019061ffff16908161ffff1681525050601b81601d6057811115619b1157619b1061eafb565b5b81518110619b2257619b2161f0d7565b5b602002602001019061ffff16908161ffff1681525050601e81602e6057811115619b4f57619b4e61eafb565b5b81518110619b6057619b5f61f0d7565b5b602002602001019061ffff16908161ffff168152505060148160376057811115619b8d57619b8c61eafb565b5b81518110619b9e57619b9d61f0d7565b5b602002602001019061ffff16908161ffff168152505060238160486057811115619bcb57619bca61eafb565b5b81518110619bdc57619bdb61f0d7565b5b602002602001019061ffff16908161ffff1681525050601981604d6057811115619c0957619c0861eafb565b5b81518110619c1a57619c1961f0d7565b5b602002602001019061ffff16908161ffff168152505060148160566057811115619c4757619c4661eafb565b5b81518110619c5857619c5761f0d7565b5b602002602001019061ffff16908161ffff168152505061b1c3565b611388815f6057811115619c8a57619c8961eafb565b5b81518110619c9b57619c9a61f0d7565b5b602002602001019061ffff16908161ffff1681525050605a8160016057811115619cc857619cc761eafb565b5b81518110619cd957619cd861f0d7565b5b602002602001019061ffff16908161ffff168152505060418160026057811115619d0657619d0561eafb565b5b81518110619d1757619d1661f0d7565b5b602002602001019061ffff16908161ffff1681525050602d8160036057811115619d4457619d4361eafb565b5b81518110619d5557619d5461f0d7565b5b602002602001019061ffff16908161ffff168152505060198160046057811115619d8257619d8161eafb565b5b81518110619d9357619d9261f0d7565b5b602002602001019061ffff16908161ffff168152505060608160056057811115619dc057619dbf61eafb565b5b81518110619dd157619dd061f0d7565b5b602002602001019061ffff16908161ffff1681525050602a8160086057811115619dfe57619dfd61eafb565b5b81518110619e0f57619e0e61f0d7565b5b602002602001019061ffff16908161ffff1681525050602a81600a6057811115619e3c57619e3b61eafb565b5b81518110619e4d57619e4c61f0d7565b5b602002602001019061ffff16908161ffff1681525050604b8160066057811115619e7a57619e7961eafb565b5b81518110619e8b57619e8a61f0d7565b5b602002602001019061ffff16908161ffff1681525050603c8160076057811115619eb857619eb761eafb565b5b81518110619ec957619ec861f0d7565b5b602002602001019061ffff16908161ffff168152505060328160096057811115619ef657619ef561eafb565b5b81518110619f0757619f0661f0d7565b5b602002602001019061ffff16908161ffff1681525050602381600c6057811115619f3457619f3361eafb565b5b81518110619f4557619f4461f0d7565b5b602002602001019061ffff16908161ffff1681525050601981600b6057811115619f7257619f7161eafb565b5b81518110619f8357619f8261f0d7565b5b602002602001019061ffff16908161ffff1681525050606981600d6057811115619fb057619faf61eafb565b5b81518110619fc157619fc061f0d7565b5b602002602001019061ffff16908161ffff1681525050605081600e6057811115619fee57619fed61eafb565b5b81518110619fff57619ffe61f0d7565b5b602002602001019061ffff16908161ffff1681525050603281600f605781111561a02c5761a02b61eafb565b5b8151811061a03d5761a03c61f0d7565b5b602002602001019061ffff16908161ffff1681525050601e816010605781111561a06a5761a06961eafb565b5b8151811061a07b5761a07a61f0d7565b5b602002602001019061ffff16908161ffff1681525050609b816011605781111561a0a85761a0a761eafb565b5b8151811061a0b95761a0b861f0d7565b5b602002602001019061ffff16908161ffff16815250506073816012605781111561a0e65761a0e561eafb565b5b8151811061a0f75761a0f661f0d7565b5b602002602001019061ffff16908161ffff16815250506050816013605781111561a1245761a12361eafb565b5b8151811061a1355761a13461f0d7565b5b602002602001019061ffff16908161ffff16815250506028816014605781111561a1625761a16161eafb565b5b8151811061a1735761a17261f0d7565b5b602002602001019061ffff16908161ffff16815250506064816015605781111561a1a05761a19f61eafb565b5b8151811061a1b15761a1b061f0d7565b5b602002602001019061ffff16908161ffff16815250506055816016605781111561a1de5761a1dd61eafb565b5b8151811061a1ef5761a1ee61f0d7565b5b602002602001019061ffff16908161ffff1681525050603c816017605781111561a21c5761a21b61eafb565b5b8151811061a22d5761a22c61f0d7565b5b602002602001019061ffff16908161ffff1681525050602d816019605781111561a25a5761a25961eafb565b5b8151811061a26b5761a26a61f0d7565b5b602002602001019061ffff16908161ffff16815250506019816018605781111561a2985761a29761eafb565b5b8151811061a2a95761a2a861f0d7565b5b602002602001019061ffff16908161ffff1681525050606b81601a605781111561a2d65761a2d561eafb565b5b8151811061a2e75761a2e661f0d7565b5b602002602001019061ffff16908161ffff1681525050605781601b605781111561a3145761a31361eafb565b5b8151811061a3255761a32461f0d7565b5b602002602001019061ffff16908161ffff1681525050604381601c605781111561a3525761a35161eafb565b5b8151811061a3635761a36261f0d7565b5b602002602001019061ffff16908161ffff1681525050602f81601e605781111561a3905761a38f61eafb565b5b8151811061a3a15761a3a061f0d7565b5b602002602001019061ffff16908161ffff1681525050601b81601d605781111561a3ce5761a3cd61eafb565b5b8151811061a3df5761a3de61f0d7565b5b602002602001019061ffff16908161ffff1681525050604681601f605781111561a40c5761a40b61eafb565b5b8151811061a41d5761a41c61f0d7565b5b602002602001019061ffff16908161ffff16815250506032816020605781111561a44a5761a44961eafb565b5b8151811061a45b5761a45a61f0d7565b5b602002602001019061ffff16908161ffff16815250506023816021605781111561a4885761a48761eafb565b5b8151811061a4995761a49861f0d7565b5b602002602001019061ffff16908161ffff16815250506014816022605781111561a4c65761a4c561eafb565b5b8151811061a4d75761a4d661f0d7565b5b602002602001019061ffff16908161ffff16815250506028816023605781111561a5045761a50361eafb565b5b8151811061a5155761a51461f0d7565b5b602002602001019061ffff16908161ffff1681525050601e816024605781111561a5425761a54161eafb565b5b8151811061a5535761a55261f0d7565b5b602002602001019061ffff16908161ffff16815250506014816025605781111561a5805761a57f61eafb565b5b8151811061a5915761a59061f0d7565b5b602002602001019061ffff16908161ffff1681525050600a816026605781111561a5be5761a5bd61eafb565b5b8151811061a5cf5761a5ce61f0d7565b5b602002602001019061ffff16908161ffff1681525050608c816027605781111561a5fc5761a5fb61eafb565b5b8151811061a60d5761a60c61f0d7565b5b602002602001019061ffff16908161ffff16815250506069816028605781111561a63a5761a63961eafb565b5b8151811061a64b5761a64a61f0d7565b5b602002602001019061ffff16908161ffff16815250506046816029605781111561a6785761a67761eafb565b5b8151811061a6895761a68861f0d7565b5b602002602001019061ffff16908161ffff1681525050602881602a605781111561a6b65761a6b561eafb565b5b8151811061a6c75761a6c661f0d7565b5b602002602001019061ffff16908161ffff1681525050607881602b605781111561a6f45761a6f361eafb565b5b8151811061a7055761a70461f0d7565b5b602002602001019061ffff16908161ffff1681525050605f81602c605781111561a7325761a73161eafb565b5b8151811061a7435761a74261f0d7565b5b602002602001019061ffff16908161ffff1681525050604b81602d605781111561a7705761a76f61eafb565b5b8151811061a7815761a78061f0d7565b5b602002602001019061ffff16908161ffff1681525050603281602f605781111561a7ae5761a7ad61eafb565b5b8151811061a7bf5761a7be61f0d7565b5b602002602001019061ffff16908161ffff1681525050601e81602e605781111561a7ec5761a7eb61eafb565b5b8151811061a7fd5761a7fc61f0d7565b5b602002602001019061ffff16908161ffff1681525050604b816030605781111561a82a5761a82961eafb565b5b8151811061a83b5761a83a61f0d7565b5b602002602001019061ffff16908161ffff1681525050603c816031605781111561a8685761a86761eafb565b5b8151811061a8795761a87861f0d7565b5b602002602001019061ffff16908161ffff16815250506023816032605781111561a8a65761a8a561eafb565b5b8151811061a8b75761a8b661f0d7565b5b602002602001019061ffff16908161ffff16815250506014816033605781111561a8e45761a8e361eafb565b5b8151811061a8f55761a8f461f0d7565b5b602002602001019061ffff16908161ffff1681525050605a816034605781111561a9225761a92161eafb565b5b8151811061a9335761a93261f0d7565b5b602002602001019061ffff16908161ffff1681525050604b816035605781111561a9605761a95f61eafb565b5b8151811061a9715761a97061f0d7565b5b602002602001019061ffff16908161ffff16815250506037816036605781111561a99e5761a99d61eafb565b5b8151811061a9af5761a9ae61f0d7565b5b602002602001019061ffff16908161ffff16815250506028816038605781111561a9dc5761a9db61eafb565b5b8151811061a9ed5761a9ec61f0d7565b5b602002602001019061ffff16908161ffff16815250506014816037605781111561aa1a5761aa1961eafb565b5b8151811061aa2b5761aa2a61f0d7565b5b602002602001019061ffff16908161ffff1681525050605f816039605781111561aa585761aa5761eafb565b5b8151811061aa695761aa6861f0d7565b5b602002602001019061ffff16908161ffff1681525050604b81603a605781111561aa965761aa9561eafb565b5b8151811061aaa75761aaa661f0d7565b5b602002602001019061ffff16908161ffff1681525050603281603b605781111561aad45761aad361eafb565b5b8151811061aae55761aae461f0d7565b5b602002602001019061ffff16908161ffff1681525050601981603c605781111561ab125761ab1161eafb565b5b8151811061ab235761ab2261f0d7565b5b602002602001019061ffff16908161ffff1681525050603781603d605781111561ab505761ab4f61eafb565b5b8151811061ab615761ab6061f0d7565b5b602002602001019061ffff16908161ffff1681525050602d81603e605781111561ab8e5761ab8d61eafb565b5b8151811061ab9f5761ab9e61f0d7565b5b602002602001019061ffff16908161ffff1681525050601981603f605781111561abcc5761abcb61eafb565b5b8151811061abdd5761abdc61f0d7565b5b602002602001019061ffff16908161ffff1681525050600f816040605781111561ac0a5761ac0961eafb565b5b8151811061ac1b5761ac1a61f0d7565b5b602002602001019061ffff16908161ffff1681525050602d816041605781111561ac485761ac4761eafb565b5b8151811061ac595761ac5861f0d7565b5b602002602001019061ffff16908161ffff16815250506023816042605781111561ac865761ac8561eafb565b5b8151811061ac975761ac9661f0d7565b5b602002602001019061ffff16908161ffff16815250506019816043605781111561acc45761acc361eafb565b5b8151811061acd55761acd461f0d7565b5b602002602001019061ffff16908161ffff1681525050600f816044605781111561ad025761ad0161eafb565b5b8151811061ad135761ad1261f0d7565b5b602002602001019061ffff16908161ffff16815250506082816045605781111561ad405761ad3f61eafb565b5b8151811061ad515761ad5061f0d7565b5b602002602001019061ffff16908161ffff16815250506069816046605781111561ad7e5761ad7d61eafb565b5b8151811061ad8f5761ad8e61f0d7565b5b602002602001019061ffff16908161ffff16815250506050816047605781111561adbc5761adbb61eafb565b5b8151811061adcd5761adcc61f0d7565b5b602002602001019061ffff16908161ffff16815250506037816049605781111561adfa5761adf961eafb565b5b8151811061ae0b5761ae0a61f0d7565b5b602002602001019061ffff16908161ffff16815250506023816048605781111561ae385761ae3761eafb565b5b8151811061ae495761ae4861f0d7565b5b602002602001019061ffff16908161ffff1681525050605f81604a605781111561ae765761ae7561eafb565b5b8151811061ae875761ae8661f0d7565b5b602002602001019061ffff16908161ffff1681525050604b81604b605781111561aeb45761aeb361eafb565b5b8151811061aec55761aec461f0d7565b5b602002602001019061ffff16908161ffff1681525050603c81604c605781111561aef25761aef161eafb565b5b8151811061af035761af0261f0d7565b5b602002602001019061ffff16908161ffff1681525050602d81604e605781111561af305761af2f61eafb565b5b8151811061af415761af4061f0d7565b5b602002602001019061ffff16908161ffff1681525050601981604d605781111561af6e5761af6d61eafb565b5b8151811061af7f5761af7e61f0d7565b5b602002602001019061ffff16908161ffff1681525050603c81604f605781111561afac5761afab61eafb565b5b8151811061afbd5761afbc61f0d7565b5b602002602001019061ffff16908161ffff1681525050602d816050605781111561afea5761afe961eafb565b5b8151811061affb5761affa61f0d7565b5b602002602001019061ffff16908161ffff1681525050601e816051605781111561b0285761b02761eafb565b5b8151811061b0395761b03861f0d7565b5b602002602001019061ffff16908161ffff16815250506014816052605781111561b0665761b06561eafb565b5b8151811061b0775761b07661f0d7565b5b602002602001019061ffff16908161ffff16815250506041816053605781111561b0a45761b0a361eafb565b5b8151811061b0b55761b0b461f0d7565b5b602002602001019061ffff16908161ffff16815250506037816054605781111561b0e25761b0e161eafb565b5b8151811061b0f35761b0f261f0d7565b5b602002602001019061ffff16908161ffff16815250506028816055605781111561b1205761b11f61eafb565b5b8151811061b1315761b13061f0d7565b5b602002602001019061ffff16908161ffff1681525050601e8160578081111561b15d5761b15c61eafb565b5b8151811061b16e5761b16d61f0d7565b5b602002602001019061ffff16908161ffff16815250506014816056605781111561b19b5761b19a61eafb565b5b8151811061b1ac5761b1ab61f0d7565b5b602002602001019061ffff16908161ffff16815250505b5f61b1ce848361e0c9565b905080605781111561b1e35761b1e261eafb565b5b925050505b92915050565b5f5f606a67ffffffffffffffff81111561b20b5761b20a61e9d4565b5b60405190808252806020026020018201604052801561b2395781602001602082028036833780820191505090505b50905061b24e8461b2499061fa46565b61e219565b8061b267575061b2668461b2619061fa46565b61e24e565b5b8061b280575061b27f8461b27a9061fa46565b61e283565b5b1561b28e575f91505061ccd4565b61b2a08461b29b9061fa46565b61e16c565b8061b2b9575061b2b88461b2b39061fa46565b61e1e4565b5b1561b30157610190815f606981111561b2d55761b2d461eafb565b5b8151811061b2e65761b2e561f0d7565b5b602002602001019061ffff16908161ffff168152505061b340565b610320815f606981111561b3185761b31761eafb565b5b8151811061b3295761b32861f0d7565b5b602002602001019061ffff16908161ffff16815250505b60fa81600b606981111561b3575761b35661eafb565b5b8151811061b3685761b36761f0d7565b5b602002602001019061ffff16908161ffff168152505060e1816009606981111561b3955761b39461eafb565b5b8151811061b3a65761b3a561f0d7565b5b602002602001019061ffff16908161ffff168152505060c8816006606981111561b3d35761b3d261eafb565b5b8151811061b3e45761b3e361f0d7565b5b602002602001019061ffff16908161ffff168152505060b9816008606981111561b4115761b41061eafb565b5b8151811061b4225761b42161f0d7565b5b602002602001019061ffff16908161ffff168152505060af816007606981111561b44f5761b44e61eafb565b5b8151811061b4605761b45f61f0d7565b5b602002602001019061ffff16908161ffff168152505060a581600a606981111561b48d5761b48c61eafb565b5b8151811061b49e5761b49d61f0d7565b5b602002602001019061ffff16908161ffff16815250506104b081603f606981111561b4cc5761b4cb61eafb565b5b8151811061b4dd5761b4dc61f0d7565b5b602002602001019061ffff16908161ffff16815250506104b081604c606981111561b50b5761b50a61eafb565b5b8151811061b51c5761b51b61f0d7565b5b602002602001019061ffff16908161ffff168152505060c881600c606981111561b5495761b54861eafb565b5b8151811061b55a5761b55961f0d7565b5b602002602001019061ffff16908161ffff168152505060af81600f606981111561b5875761b58661eafb565b5b8151811061b5985761b59761f0d7565b5b602002602001019061ffff16908161ffff1681525050609681600d606981111561b5c55761b5c461eafb565b5b8151811061b5d65761b5d561f0d7565b5b602002602001019061ffff16908161ffff16815250506075816010606981111561b6035761b60261eafb565b5b8151811061b6145761b61361f0d7565b5b602002602001019061ffff16908161ffff1681525050601a81600e606981111561b6415761b64061eafb565b5b8151811061b6525761b65161f0d7565b5b602002602001019061ffff16908161ffff1681525050601a816011606981111561b67f5761b67e61eafb565b5b8151811061b6905761b68f61f0d7565b5b602002602001019061ffff16908161ffff1681525050601a816012606981111561b6bd5761b6bc61eafb565b5b8151811061b6ce5761b6cd61f0d7565b5b602002602001019061ffff16908161ffff1681525050601a816013606981111561b6fb5761b6fa61eafb565b5b8151811061b70c5761b70b61f0d7565b5b602002602001019061ffff16908161ffff1681525050601a816014606981111561b7395761b73861eafb565b5b8151811061b74a5761b74961f0d7565b5b602002602001019061ffff16908161ffff1681525050601a816015606981111561b7775761b77661eafb565b5b8151811061b7885761b78761f0d7565b5b602002602001019061ffff16908161ffff1681525050601a816016606981111561b7b55761b7b461eafb565b5b8151811061b7c65761b7c561f0d7565b5b602002602001019061ffff16908161ffff1681525050601a816017606981111561b7f35761b7f261eafb565b5b8151811061b8045761b80361f0d7565b5b602002602001019061ffff16908161ffff168152505060c8816030606981111561b8315761b83061eafb565b5b8151811061b8425761b84161f0d7565b5b602002602001019061ffff16908161ffff168152505060b4816033606981111561b86f5761b86e61eafb565b5b8151811061b8805761b87f61f0d7565b5b602002602001019061ffff16908161ffff16815250506078816031606981111561b8ad5761b8ac61eafb565b5b8151811061b8be5761b8bd61f0d7565b5b602002602001019061ffff16908161ffff16815250506064816034606981111561b8eb5761b8ea61eafb565b5b8151811061b8fc5761b8fb61f0d7565b5b602002602001019061ffff16908161ffff16815250506019816032606981111561b9295761b92861eafb565b5b8151811061b93a5761b93961f0d7565b5b602002602001019061ffff16908161ffff16815250506019816035606981111561b9675761b96661eafb565b5b8151811061b9785761b97761f0d7565b5b602002602001019061ffff16908161ffff16815250506019816036606981111561b9a55761b9a461eafb565b5b8151811061b9b65761b9b561f0d7565b5b602002602001019061ffff16908161ffff16815250506019816037606981111561b9e35761b9e261eafb565b5b8151811061b9f45761b9f361f0d7565b5b602002602001019061ffff16908161ffff16815250506019816038606981111561ba215761ba2061eafb565b5b8151811061ba325761ba3161f0d7565b5b602002602001019061ffff16908161ffff16815250506019816039606981111561ba5f5761ba5e61eafb565b5b8151811061ba705761ba6f61f0d7565b5b602002602001019061ffff16908161ffff1681525050601981603a606981111561ba9d5761ba9c61eafb565b5b8151811061baae5761baad61f0d7565b5b602002602001019061ffff16908161ffff1681525050601981603b606981111561badb5761bada61eafb565b5b8151811061baec5761baeb61f0d7565b5b602002602001019061ffff16908161ffff168152505060c881605e606981111561bb195761bb1861eafb565b5b8151811061bb2a5761bb2961f0d7565b5b602002602001019061ffff16908161ffff168152505060b481605f606981111561bb575761bb5661eafb565b5b8151811061bb685761bb6761f0d7565b5b602002602001019061ffff16908161ffff16815250506078816061606981111561bb955761bb9461eafb565b5b8151811061bba65761bba561f0d7565b5b602002602001019061ffff16908161ffff16815250506064816062606981111561bbd35761bbd261eafb565b5b8151811061bbe45761bbe361f0d7565b5b602002602001019061ffff16908161ffff16815250506019816060606981111561bc115761bc1061eafb565b5b8151811061bc225761bc2161f0d7565b5b602002602001019061ffff16908161ffff16815250506019816063606981111561bc4f5761bc4e61eafb565b5b8151811061bc605761bc5f61f0d7565b5b602002602001019061ffff16908161ffff16815250506019816064606981111561bc8d5761bc8c61eafb565b5b8151811061bc9e5761bc9d61f0d7565b5b602002602001019061ffff16908161ffff16815250506019816065606981111561bccb5761bcca61eafb565b5b8151811061bcdc5761bcdb61f0d7565b5b602002602001019061ffff16908161ffff16815250506019816066606981111561bd095761bd0861eafb565b5b8151811061bd1a5761bd1961f0d7565b5b602002602001019061ffff16908161ffff16815250506019816067606981111561bd475761bd4661eafb565b5b8151811061bd585761bd5761f0d7565b5b602002602001019061ffff16908161ffff16815250506019816068606981111561bd855761bd8461eafb565b5b8151811061bd965761bd9561f0d7565b5b602002602001019061ffff16908161ffff168152505060198160698081111561bdc25761bdc161eafb565b5b8151811061bdd35761bdd261f0d7565b5b602002602001019061ffff16908161ffff168152505060e1816001606981111561be005761bdff61eafb565b5b8151811061be115761be1061f0d7565b5b602002602001019061ffff16908161ffff168152505060c8816002606981111561be3e5761be3d61eafb565b5b8151811061be4f5761be4e61f0d7565b5b602002602001019061ffff16908161ffff1681525050608c816003606981111561be7c5761be7b61eafb565b5b8151811061be8d5761be8c61f0d7565b5b602002602001019061ffff16908161ffff16815250506064816004606981111561beba5761beb961eafb565b5b8151811061becb5761beca61f0d7565b5b602002602001019061ffff16908161ffff16815250506055816005606981111561bef85761bef761eafb565b5b8151811061bf095761bf0861f0d7565b5b602002602001019061ffff16908161ffff1681525050609681603c606981111561bf365761bf3561eafb565b5b8151811061bf475761bf4661f0d7565b5b602002602001019061ffff16908161ffff1681525050604b81603d606981111561bf745761bf7361eafb565b5b8151811061bf855761bf8461f0d7565b5b602002602001019061ffff16908161ffff1681525050601981603e606981111561bfb25761bfb161eafb565b5b8151811061bfc35761bfc261f0d7565b5b602002602001019061ffff16908161ffff1681525050603b816024606981111561bff05761bfef61eafb565b5b8151811061c0015761c00061f0d7565b5b602002602001019061ffff16908161ffff1681525050602d816027606981111561c02e5761c02d61eafb565b5b8151811061c03f5761c03e61f0d7565b5b602002602001019061ffff16908161ffff16815250506023816025606981111561c06c5761c06b61eafb565b5b8151811061c07d5761c07c61f0d7565b5b602002602001019061ffff16908161ffff1681525050601e816028606981111561c0aa5761c0a961eafb565b5b8151811061c0bb5761c0ba61f0d7565b5b602002602001019061ffff16908161ffff16815250506007816026606981111561c0e85761c0e761eafb565b5b8151811061c0f95761c0f861f0d7565b5b602002602001019061ffff16908161ffff16815250506007816029606981111561c1265761c12561eafb565b5b8151811061c1375761c13661f0d7565b5b602002602001019061ffff16908161ffff1681525050600781602a606981111561c1645761c16361eafb565b5b8151811061c1755761c17461f0d7565b5b602002602001019061ffff16908161ffff1681525050600781602b606981111561c1a25761c1a161eafb565b5b8151811061c1b35761c1b261f0d7565b5b602002602001019061ffff16908161ffff1681525050600781602c606981111561c1e05761c1df61eafb565b5b8151811061c1f15761c1f061f0d7565b5b602002602001019061ffff16908161ffff1681525050600781602d606981111561c21e5761c21d61eafb565b5b8151811061c22f5761c22e61f0d7565b5b602002602001019061ffff16908161ffff1681525050600781602e606981111561c25c5761c25b61eafb565b5b8151811061c26d5761c26c61f0d7565b5b602002602001019061ffff16908161ffff1681525050600781602f606981111561c29a5761c29961eafb565b5b8151811061c2ab5761c2aa61f0d7565b5b602002602001019061ffff16908161ffff16815250506032816059606981111561c2d85761c2d761eafb565b5b8151811061c2e95761c2e861f0d7565b5b602002602001019061ffff16908161ffff1681525050602881605b606981111561c3165761c31561eafb565b5b8151811061c3275761c32661f0d7565b5b602002602001019061ffff16908161ffff1681525050601e81605a606981111561c3545761c35361eafb565b5b8151811061c3655761c36461f0d7565b5b602002602001019061ffff16908161ffff1681525050601481605c606981111561c3925761c39161eafb565b5b8151811061c3a35761c3a261f0d7565b5b602002602001019061ffff16908161ffff1681525050600a81605d606981111561c3d05761c3cf61eafb565b5b8151811061c3e15761c3e061f0d7565b5b602002602001019061ffff16908161ffff1681525050601481604d606981111561c40e5761c40d61eafb565b5b8151811061c41f5761c41e61f0d7565b5b602002602001019061ffff16908161ffff16815250506010816050606981111561c44c5761c44b61eafb565b5b8151811061c45d5761c45c61f0d7565b5b602002602001019061ffff16908161ffff1681525050600c81604e606981111561c48a5761c48961eafb565b5b8151811061c49b5761c49a61f0d7565b5b602002602001019061ffff16908161ffff16815250506008816051606981111561c4c85761c4c761eafb565b5b8151811061c4d95761c4d861f0d7565b5b602002602001019061ffff16908161ffff1681525050600381604f606981111561c5065761c50561eafb565b5b8151811061c5175761c51661f0d7565b5b602002602001019061ffff16908161ffff16815250506003816052606981111561c5445761c54361eafb565b5b8151811061c5555761c55461f0d7565b5b602002602001019061ffff16908161ffff16815250506003816053606981111561c5825761c58161eafb565b5b8151811061c5935761c59261f0d7565b5b602002602001019061ffff16908161ffff16815250506003816054606981111561c5c05761c5bf61eafb565b5b8151811061c5d15761c5d061f0d7565b5b602002602001019061ffff16908161ffff16815250506003816055606981111561c5fe5761c5fd61eafb565b5b8151811061c60f5761c60e61f0d7565b5b602002602001019061ffff16908161ffff16815250506003816056606981111561c63c5761c63b61eafb565b5b8151811061c64d5761c64c61f0d7565b5b602002602001019061ffff16908161ffff16815250506003816057606981111561c67a5761c67961eafb565b5b8151811061c68b5761c68a61f0d7565b5b602002602001019061ffff16908161ffff16815250506003816058606981111561c6b85761c6b761eafb565b5b8151811061c6c95761c6c861f0d7565b5b602002602001019061ffff16908161ffff1681525050600c816018606981111561c6f65761c6f561eafb565b5b8151811061c7075761c70661f0d7565b5b602002602001019061ffff16908161ffff16815250506009816019606981111561c7345761c73361eafb565b5b8151811061c7455761c74461f0d7565b5b602002602001019061ffff16908161ffff1681525050600781601b606981111561c7725761c77161eafb565b5b8151811061c7835761c78261f0d7565b5b602002602001019061ffff16908161ffff1681525050600681601c606981111561c7b05761c7af61eafb565b5b8151811061c7c15761c7c061f0d7565b5b602002602001019061ffff16908161ffff1681525050600281601a606981111561c7ee5761c7ed61eafb565b5b8151811061c7ff5761c7fe61f0d7565b5b602002602001019061ffff16908161ffff1681525050600281601d606981111561c82c5761c82b61eafb565b5b8151811061c83d5761c83c61f0d7565b5b602002602001019061ffff16908161ffff1681525050600281601e606981111561c86a5761c86961eafb565b5b8151811061c87b5761c87a61f0d7565b5b602002602001019061ffff16908161ffff1681525050600281601f606981111561c8a85761c8a761eafb565b5b8151811061c8b95761c8b861f0d7565b5b602002602001019061ffff16908161ffff16815250506002816020606981111561c8e65761c8e561eafb565b5b8151811061c8f75761c8f661f0d7565b5b602002602001019061ffff16908161ffff16815250506002816021606981111561c9245761c92361eafb565b5b8151811061c9355761c93461f0d7565b5b602002602001019061ffff16908161ffff16815250506002816022606981111561c9625761c96161eafb565b5b8151811061c9735761c97261f0d7565b5b602002602001019061ffff16908161ffff16815250506002816023606981111561c9a05761c99f61eafb565b5b8151811061c9b15761c9b061f0d7565b5b602002602001019061ffff16908161ffff16815250506006816040606981111561c9de5761c9dd61eafb565b5b8151811061c9ef5761c9ee61f0d7565b5b602002602001019061ffff16908161ffff16815250506005816043606981111561ca1c5761ca1b61eafb565b5b8151811061ca2d5761ca2c61f0d7565b5b602002602001019061ffff16908161ffff16815250506004816041606981111561ca5a5761ca5961eafb565b5b8151811061ca6b5761ca6a61f0d7565b5b602002602001019061ffff16908161ffff16815250506002816044606981111561ca985761ca9761eafb565b5b8151811061caa95761caa861f0d7565b5b602002602001019061ffff16908161ffff16815250506001816042606981111561cad65761cad561eafb565b5b8151811061cae75761cae661f0d7565b5b602002602001019061ffff16908161ffff16815250506001816045606981111561cb145761cb1361eafb565b5b8151811061cb255761cb2461f0d7565b5b602002602001019061ffff16908161ffff16815250506001816046606981111561cb525761cb5161eafb565b5b8151811061cb635761cb6261f0d7565b5b602002602001019061ffff16908161ffff16815250506001816047606981111561cb905761cb8f61eafb565b5b8151811061cba15761cba061f0d7565b5b602002602001019061ffff16908161ffff16815250506001816048606981111561cbce5761cbcd61eafb565b5b8151811061cbdf5761cbde61f0d7565b5b602002602001019061ffff16908161ffff16815250506001816049606981111561cc0c5761cc0b61eafb565b5b8151811061cc1d5761cc1c61f0d7565b5b602002602001019061ffff16908161ffff1681525050600181604a606981111561cc4a5761cc4961eafb565b5b8151811061cc5b5761cc5a61f0d7565b5b602002602001019061ffff16908161ffff1681525050600181604b606981111561cc885761cc8761eafb565b5b8151811061cc995761cc9861f0d7565b5b602002602001019061ffff16908161ffff16815250505f61ccba848361e0c9565b905080606981111561cccf5761ccce61eafb565b5b925050505b92915050565b5f5f601467ffffffffffffffff81111561ccf75761ccf661e9d4565b5b60405190808252806020026020018201604052801561cd255781602001602082028036833780820191505090505b50905061cd3a8461cd359061fa46565b61e16c565b8061cd53575061cd528461cd4d9061fa46565b61e1e4565b5b1561d23457612495815f601381111561cd6f5761cd6e61eafb565b5b8151811061cd805761cd7f61f0d7565b5b602002602001019061ffff16908161ffff168152505060c881600d601381111561cdad5761cdac61eafb565b5b8151811061cdbe5761cdbd61f0d7565b5b602002602001019061ffff16908161ffff16815250506023816005601381111561cdeb5761cdea61eafb565b5b8151811061cdfc5761cdfb61f0d7565b5b602002602001019061ffff16908161ffff168152505060168160138081111561ce285761ce2761eafb565b5b8151811061ce395761ce3861f0d7565b5b602002602001019061ffff16908161ffff1681525050601481600a601381111561ce665761ce6561eafb565b5b8151811061ce775761ce7661f0d7565b5b602002602001019061ffff16908161ffff16815250506012816001601381111561cea45761cea361eafb565b5b8151811061ceb55761ceb461f0d7565b5b602002602001019061ffff16908161ffff16815250506010816002601381111561cee25761cee161eafb565b5b8151811061cef35761cef261f0d7565b5b602002602001019061ffff16908161ffff1681525050600e816011601381111561cf205761cf1f61eafb565b5b8151811061cf315761cf3061f0d7565b5b602002602001019061ffff16908161ffff1681525050600c816009601381111561cf5e5761cf5d61eafb565b5b8151811061cf6f5761cf6e61f0d7565b5b602002602001019061ffff16908161ffff1681525050600a816010601381111561cf9c5761cf9b61eafb565b5b8151811061cfad5761cfac61f0d7565b5b602002602001019061ffff16908161ffff1681525050600881600b601381111561cfda5761cfd961eafb565b5b8151811061cfeb5761cfea61f0d7565b5b602002602001019061ffff16908161ffff1681525050604b816003601381111561d0185761d01761eafb565b5b8151811061d0295761d02861f0d7565b5b602002602001019061ffff16908161ffff1681525050603c81600e601381111561d0565761d05561eafb565b5b8151811061d0675761d06661f0d7565b5b602002602001019061ffff16908161ffff16815250506032816012601381111561d0945761d09361eafb565b5b8151811061d0a55761d0a461f0d7565b5b602002602001019061ffff16908161ffff16815250506010816004601381111561d0d25761d0d161eafb565b5b8151811061d0e35761d0e261f0d7565b5b602002602001019061ffff16908161ffff1681525050600c81600c601381111561d1105761d10f61eafb565b5b8151811061d1215761d12061f0d7565b5b602002602001019061ffff16908161ffff1681525050600c81600f601381111561d14e5761d14d61eafb565b5b8151811061d15f5761d15e61f0d7565b5b602002602001019061ffff16908161ffff1681525050600a816006601381111561d18c5761d18b61eafb565b5b8151811061d19d5761d19c61f0d7565b5b602002602001019061ffff16908161ffff1681525050600a816007601381111561d1ca5761d1c961eafb565b5b8151811061d1db5761d1da61f0d7565b5b602002602001019061ffff16908161ffff16815250506008816008601381111561d2085761d20761eafb565b5b8151811061d2195761d21861f0d7565b5b602002602001019061ffff16908161ffff168152505061d86d565b61d2468461d2419061fa46565b61e6c9565b8061d25f575061d25e8461d2599061fa46565b61e6fe565b5b8061d278575061d2778461d2729061fa46565b61e733565b5b1561d4b057612495815f601381111561d2945761d29361eafb565b5b8151811061d2a55761d2a461f0d7565b5b602002602001019061ffff16908161ffff168152505060c881600d601381111561d2d25761d2d161eafb565b5b8151811061d2e35761d2e261f0d7565b5b602002602001019061ffff16908161ffff1681525050604b816003601381111561d3105761d30f61eafb565b5b8151811061d3215761d32061f0d7565b5b602002602001019061ffff16908161ffff16815250506032816012601381111561d34e5761d34d61eafb565b5b8151811061d35f5761d35e61f0d7565b5b602002602001019061ffff16908161ffff16815250506010816004601381111561d38c5761d38b61eafb565b5b8151811061d39d5761d39c61f0d7565b5b602002602001019061ffff16908161ffff1681525050600c81600c601381111561d3ca5761d3c961eafb565b5b8151811061d3db5761d3da61f0d7565b5b602002602001019061ffff16908161ffff1681525050600c81600f601381111561d4085761d40761eafb565b5b8151811061d4195761d41861f0d7565b5b602002602001019061ffff16908161ffff1681525050600a816006601381111561d4465761d44561eafb565b5b8151811061d4575761d45661f0d7565b5b602002602001019061ffff16908161ffff1681525050600a816007601381111561d4845761d48361eafb565b5b8151811061d4955761d49461f0d7565b5b602002602001019061ffff16908161ffff168152505061d86c565b61d4c28461d4bd9061fa46565b61e767565b8061d4db575061d4da8461d4d59061fa46565b61e79c565b5b8061d4f4575061d4f38461d4ee9061fa46565b61e137565b5b8061d50d575061d50c8461d5079061fa46565b61e7d1565b5b8061d526575061d5258461d5209061fa46565b61e806565b5b8061d53f575061d53e8461d5399061fa46565b61e83b565b5b8061d558575061d5578461d5529061fa46565b61e870565b5b8061d571575061d5708461d56b9061fa46565b61e283565b5b1561d86257612495815f601381111561d58d5761d58c61eafb565b5b8151811061d59e5761d59d61f0d7565b5b602002602001019061ffff16908161ffff168152505060c881600d601381111561d5cb5761d5ca61eafb565b5b8151811061d5dc5761d5db61f0d7565b5b602002602001019061ffff16908161ffff16815250506023816005601381111561d6095761d60861eafb565b5b8151811061d61a5761d61961f0d7565b5b602002602001019061ffff16908161ffff168152505060168160138081111561d6465761d64561eafb565b5b8151811061d6575761d65661f0d7565b5b602002602001019061ffff16908161ffff1681525050601481600a601381111561d6845761d68361eafb565b5b8151811061d6955761d69461f0d7565b5b602002602001019061ffff16908161ffff16815250506012816001601381111561d6c25761d6c161eafb565b5b8151811061d6d35761d6d261f0d7565b5b602002602001019061ffff16908161ffff16815250506010816002601381111561d7005761d6ff61eafb565b5b8151811061d7115761d71061f0d7565b5b602002602001019061ffff16908161ffff1681525050600e816011601381111561d73e5761d73d61eafb565b5b8151811061d74f5761d74e61f0d7565b5b602002602001019061ffff16908161ffff1681525050600c816009601381111561d77c5761d77b61eafb565b5b8151811061d78d5761d78c61f0d7565b5b602002602001019061ffff16908161ffff1681525050600a816010601381111561d7ba5761d7b961eafb565b5b8151811061d7cb5761d7ca61f0d7565b5b602002602001019061ffff16908161ffff1681525050600881600b601381111561d7f85761d7f761eafb565b5b8151811061d8095761d80861f0d7565b5b602002602001019061ffff16908161ffff1681525050604b816003601381111561d8365761d83561eafb565b5b8151811061d8475761d84661f0d7565b5b602002602001019061ffff16908161ffff168152505061d86b565b5f91505061d892565b5b5b5f61d878848361e0c9565b905080601381111561d88d5761d88c61eafb565b5b925050505b92915050565b5f5f601667ffffffffffffffff81111561d8b55761d8b461e9d4565b5b60405190808252806020026020018201604052801561d8e35781602001602082028036833780820191505090505b50905061253f815f601581111561d8fd5761d8fc61eafb565b5b8151811061d90e5761d90d61f0d7565b5b602002602001019061ffff16908161ffff16815250506028816006601581111561d93b5761d93a61eafb565b5b8151811061d94c5761d94b61f0d7565b5b602002602001019061ffff16908161ffff16815250506019816007601581111561d9795761d97861eafb565b5b8151811061d98a5761d98961f0d7565b5b602002602001019061ffff16908161ffff16815250506019816008601581111561d9b75761d9b661eafb565b5b8151811061d9c85761d9c761f0d7565b5b602002602001019061ffff16908161ffff16815250506019816009601581111561d9f55761d9f461eafb565b5b8151811061da065761da0561f0d7565b5b602002602001019061ffff16908161ffff1681525050601981600a601581111561da335761da3261eafb565b5b8151811061da445761da4361f0d7565b5b602002602001019061ffff16908161ffff1681525050601981600b601581111561da715761da7061eafb565b5b8151811061da825761da8161f0d7565b5b602002602001019061ffff16908161ffff1681525050601981600c601581111561daaf5761daae61eafb565b5b8151811061dac05761dabf61f0d7565b5b602002602001019061ffff16908161ffff1681525050601981600d601581111561daed5761daec61eafb565b5b8151811061dafe5761dafd61f0d7565b5b602002602001019061ffff16908161ffff1681525050601981600e601581111561db2b5761db2a61eafb565b5b8151811061db3c5761db3b61f0d7565b5b602002602001019061ffff16908161ffff1681525050601e816001601581111561db695761db6861eafb565b5b8151811061db7a5761db7961f0d7565b5b602002602001019061ffff16908161ffff1681525050601e816002601581111561dba75761dba661eafb565b5b8151811061dbb85761dbb761f0d7565b5b602002602001019061ffff16908161ffff1681525050601e816003601581111561dbe55761dbe461eafb565b5b8151811061dbf65761dbf561f0d7565b5b602002602001019061ffff16908161ffff1681525050601e816004601581111561dc235761dc2261eafb565b5b8151811061dc345761dc3361f0d7565b5b602002602001019061ffff16908161ffff1681525050600a816011601581111561dc615761dc6061eafb565b5b8151811061dc725761dc7161f0d7565b5b602002602001019061ffff16908161ffff1681525050600a816012601581111561dc9f5761dc9e61eafb565b5b8151811061dcb05761dcaf61f0d7565b5b602002602001019061ffff16908161ffff1681525050600a816013601581111561dcdd5761dcdc61eafb565b5b8151811061dcee5761dced61f0d7565b5b602002602001019061ffff16908161ffff1681525050600a816014601581111561dd1b5761dd1a61eafb565b5b8151811061dd2c5761dd2b61f0d7565b5b602002602001019061ffff16908161ffff1681525050600a8160158081111561dd585761dd5761eafb565b5b8151811061dd695761dd6861f0d7565b5b602002602001019061ffff16908161ffff1681525050601e816005601581111561dd965761dd9561eafb565b5b8151811061dda75761dda661f0d7565b5b602002602001019061ffff16908161ffff1681525050600f81600f601581111561ddd45761ddd361eafb565b5b8151811061dde55761dde461f0d7565b5b602002602001019061ffff16908161ffff16815250505f61de06848361e0c9565b905080601581111561de1b5761de1a61eafb565b5b92505050919050565b5f5f600967ffffffffffffffff81111561de415761de4061e9d4565b5b60405190808252806020026020018201604052801561de6f5781602001602082028036833780820191505090505b509050612328815f600881111561de895761de8861eafb565b5b8151811061de9a5761de9961f0d7565b5b602002602001019061ffff16908161ffff168152505061015e816005600881111561dec85761dec761eafb565b5b8151811061ded95761ded861f0d7565b5b602002602001019061ffff16908161ffff168152505060fa816001600881111561df065761df0561eafb565b5b8151811061df175761df1661f0d7565b5b602002602001019061ffff16908161ffff1681525050608c816004600881111561df445761df4361eafb565b5b8151811061df555761df5461f0d7565b5b602002602001019061ffff16908161ffff168152505060648160088081111561df815761df8061eafb565b5b8151811061df925761df9161f0d7565b5b602002602001019061ffff16908161ffff1681525050604b816003600881111561dfbf5761dfbe61eafb565b5b8151811061dfd05761dfcf61f0d7565b5b602002602001019061ffff16908161ffff16815250506032816007600881111561dffd5761dffc61eafb565b5b8151811061e00e5761e00d61f0d7565b5b602002602001019061ffff16908161ffff16815250506019816002600881111561e03b5761e03a61eafb565b5b8151811061e04c5761e04b61f0d7565b5b602002602001019061ffff16908161ffff1681525050600a816006600881111561e0795761e07861eafb565b5b8151811061e08a5761e08961f0d7565b5b602002602001019061ffff16908161ffff16815250505f61e0ab848361e0c9565b905080600881111561e0c05761e0bf61eafb565b5b92505050919050565b5f5f5f90505f5f90505b835181101561e1155783818151811061e0ef5761e0ee61f0d7565b5b602002602001015161ffff168261e106919061fa85565b9150808060010191505061e0d3565b505f61e121858361e8a5565b905061e12d848261e90f565b9250505092915050565b5f6004601c81111561e14c5761e14b61eafb565b5b826101000151601c81111561e1645761e16361eafb565b5b149050919050565b5f6007601c81111561e1815761e18061eafb565b5b60ff16826101000151601c81111561e19c5761e19b61eafb565b5b60ff161015801561e1dd57506012601c81111561e1bc5761e1bb61eafb565b5b60ff16826101000151601c81111561e1d75761e1d661eafb565b5b60ff1611155b9050919050565b5f601b601c81111561e1f95761e1f861eafb565b5b826101000151601c81111561e2115761e21061eafb565b5b149050919050565b5f6016601c81111561e22e5761e22d61eafb565b5b826101000151601c81111561e2465761e24561eafb565b5b149050919050565b5f6014601c81111561e2635761e26261eafb565b5b826101000151601c81111561e27b5761e27a61eafb565b5b149050919050565b5f6019601c81111561e2985761e29761eafb565b5b826101000151601c81111561e2b05761e2af61eafb565b5b149050919050565b5f60018081111561e2cc5761e2cb61eafb565b5b8260c00151600181111561e2e35761e2e261eafb565b5b14159050919050565b5f6001605781111561e3015761e30061eafb565b5b826101c00151605781111561e3195761e31861eafb565b5b148061e34e57506006605781111561e3345761e33361eafb565b5b826101c00151605781111561e34c5761e34b61eafb565b5b145b8061e3825750600d605781111561e3685761e36761eafb565b5b826101c00151605781111561e3805761e37f61eafb565b5b145b8061e3b657506011605781111561e39c5761e39b61eafb565b5b826101c00151605781111561e3b45761e3b361eafb565b5b145b8061e3ea57506015605781111561e3d05761e3cf61eafb565b5b826101c00151605781111561e3e85761e3e761eafb565b5b145b8061e41e5750601a605781111561e4045761e40361eafb565b5b826101c00151605781111561e41c5761e41b61eafb565b5b145b8061e4525750601f605781111561e4385761e43761eafb565b5b826101c00151605781111561e4505761e44f61eafb565b5b145b8061e48657506023605781111561e46c5761e46b61eafb565b5b826101c00151605781111561e4845761e48361eafb565b5b145b8061e4ba57506027605781111561e4a05761e49f61eafb565b5b826101c00151605781111561e4b85761e4b761eafb565b5b145b8061e4ee5750602b605781111561e4d45761e4d361eafb565b5b826101c00151605781111561e4ec5761e4eb61eafb565b5b145b8061e52257506030605781111561e5085761e50761eafb565b5b826101c00151605781111561e5205761e51f61eafb565b5b145b8061e55657506034605781111561e53c5761e53b61eafb565b5b826101c00151605781111561e5545761e55361eafb565b5b145b8061e58a57506039605781111561e5705761e56f61eafb565b5b826101c00151605781111561e5885761e58761eafb565b5b145b8061e5be5750603d605781111561e5a45761e5a361eafb565b5b826101c00151605781111561e5bc5761e5bb61eafb565b5b145b8061e5f257506041605781111561e5d85761e5d761eafb565b5b826101c00151605781111561e5f05761e5ef61eafb565b5b145b8061e62657506045605781111561e60c5761e60b61eafb565b5b826101c00151605781111561e6245761e62361eafb565b5b145b8061e65a5750604a605781111561e6405761e63f61eafb565b5b826101c00151605781111561e6585761e65761eafb565b5b145b8061e68e5750604f605781111561e6745761e67361eafb565b5b826101c00151605781111561e68c5761e68b61eafb565b5b145b8061e6c257506053605781111561e6a85761e6a761eafb565b5b826101c00151605781111561e6c05761e6bf61eafb565b5b145b9050919050565b5f6002601c81111561e6de5761e6dd61eafb565b5b826101000151601c81111561e6f65761e6f561eafb565b5b149050919050565b5f601a601c81111561e7135761e71261eafb565b5b826101000151601c81111561e72b5761e72a61eafb565b5b149050919050565b5f601c8081111561e7475761e74661eafb565b5b826101000151601c81111561e75f5761e75e61eafb565b5b149050919050565b5f6001601c81111561e77c5761e77b61eafb565b5b826101000151601c81111561e7945761e79361eafb565b5b149050919050565b5f6003601c81111561e7b15761e7b061eafb565b5b826101000151601c81111561e7c95761e7c861eafb565b5b149050919050565b5f6005601c81111561e7e65761e7e561eafb565b5b826101000151601c81111561e7fe5761e7fd61eafb565b5b149050919050565b5f6006601c81111561e81b5761e81a61eafb565b5b826101000151601c81111561e8335761e83261eafb565b5b149050919050565b5f6015601c81111561e8505761e84f61eafb565b5b826101000151601c81111561e8685761e86761eafb565b5b149050919050565b5f6017601c81111561e8855761e88461eafb565b5b826101000151601c81111561e89d5761e89c61eafb565b5b149050919050565b5f82602001805180919061e8b89061fab8565b815250505f835f0151846020015160405160200161e8d792919061fb1f565b604051602081830303815290604052805190602001205f1c905080845f018181525050828161e906919061fb77565b91505092915050565b5f5f5f90505f5f90505b845181101561e96d5784818151811061e9355761e93461f0d7565b5b602002602001015161ffff168261e94c919061fa85565b91508184101561e96057809250505061e9a9565b808060010191505061e919565b506040517f08c379a000000000000000000000000000000000000000000000000000000000815260040161e9a09061fc01565b60405180910390fd5b92915050565b5f604051905090565b5f5ffd5b5f5ffd5b5f5ffd5b5f601f19601f8301169050919050565b7f4e487b71000000000000000000000000000000000000000000000000000000005f52604160045260245ffd5b61ea0a8261e9c4565b810181811067ffffffffffffffff8211171561ea295761ea2861e9d4565b5b80604052505050565b5f61ea3b61e9af565b905061ea47828261ea01565b919050565b5f5ffd5b5f819050919050565b61ea628161ea50565b811461ea6c575f5ffd5b50565b5f8135905061ea7d8161ea59565b92915050565b5f6040828403121561ea985761ea9761e9c0565b5b61eaa2604061ea32565b90505f61eab18482850161ea6f565b5f83015250602061eac48482850161ea6f565b60208301525092915050565b5f6040828403121561eae55761eae461e9b8565b5b5f61eaf28482850161ea83565b91505092915050565b7f4e487b71000000000000000000000000000000000000000000000000000000005f52602160045260245ffd5b6009811061eb395761eb3861eafb565b5b50565b5f81905061eb498261eb28565b919050565b5f61eb588261eb3c565b9050919050565b61eb688161eb4e565b82525050565b5f60208201905061eb815f83018461eb5f565b92915050565b5f5ffd5b5f610420828403121561eba15761eba061eb87565b5b81905092915050565b5f5f6060838503121561ebc05761ebbf61e9b8565b5b5f83013567ffffffffffffffff81111561ebdd5761ebdc61e9bc565b5b61ebe98582860161eb8b565b925050602061ebfa8582860161ea83565b9150509250929050565b6017811061ec155761ec1461eafb565b5b50565b5f81905061ec258261ec04565b919050565b5f61ec348261ec18565b9050919050565b61ec448161ec2a565b82525050565b5f60208201905061ec5d5f83018461ec3b565b92915050565b6080811061ec745761ec7361eafb565b5b50565b5f81905061ec848261ec63565b919050565b5f61ec938261ec77565b9050919050565b61eca38161ec89565b82525050565b5f60208201905061ecbc5f83018461ec9a565b92915050565b60d4811061ecd35761ecd261eafb565b5b50565b5f81905061ece38261ecc2565b919050565b5f61ecf28261ecd6565b9050919050565b61ed028161ece8565b82525050565b5f60208201905061ed1b5f83018461ecf9565b92915050565b6004811061ed325761ed3161eafb565b5b50565b5f81905061ed428261ed21565b919050565b5f61ed518261ed35565b9050919050565b61ed618161ed47565b82525050565b5f60208201905061ed7a5f83018461ed58565b92915050565b60a9811061ed915761ed9061eafb565b5b50565b5f81905061eda18261ed80565b919050565b5f61edb08261ed94565b9050919050565b61edc08161eda6565b82525050565b5f60208201905061edd95f83018461edb7565b92915050565b600d811061edf05761edef61eafb565b5b50565b5f81905061ee008261eddf565b919050565b5f61ee0f8261edf3565b9050919050565b61ee1f8161ee05565b82525050565b5f60208201905061ee385f83018461ee16565b92915050565b601d811061ee4f5761ee4e61eafb565b5b50565b5f81905061ee5f8261ee3e565b919050565b5f61ee6e8261ee52565b9050919050565b61ee7e8161ee64565b82525050565b5f60208201905061ee975f83018461ee75565b92915050565b600b811061eeae5761eead61eafb565b5b50565b5f81905061eebe8261ee9d565b919050565b5f61eecd8261eeb1565b9050919050565b61eedd8161eec3565b82525050565b5f60208201905061eef65f83018461eed4565b92915050565b6058811061ef0d5761ef0c61eafb565b5b50565b5f81905061ef1d8261eefc565b919050565b5f61ef2c8261ef10565b9050919050565b61ef3c8161ef22565b82525050565b5f60208201905061ef555f83018461ef33565b92915050565b606a811061ef6c5761ef6b61eafb565b5b50565b5f81905061ef7c8261ef5b565b919050565b5f61ef8b8261ef6f565b9050919050565b61ef9b8161ef81565b82525050565b5f60208201905061efb45f83018461ef92565b92915050565b6014811061efcb5761efca61eafb565b5b50565b5f81905061efdb8261efba565b919050565b5f61efea8261efce565b9050919050565b61effa8161efe0565b82525050565b5f60208201905061f0135f83018461eff1565b92915050565b6016811061f02a5761f02961eafb565b5b50565b5f81905061f03a8261f019565b919050565b5f61f0498261f02d565b9050919050565b61f0598161f03f565b82525050565b5f60208201905061f0725f83018461f050565b92915050565b6009811061f0895761f08861eafb565b5b50565b5f81905061f0998261f078565b919050565b5f61f0a88261f08c565b9050919050565b61f0b88161f09e565b82525050565b5f60208201905061f0d15f83018461f0af565b92915050565b7f4e487b71000000000000000000000000000000000000000000000000000000005f52603260045260245ffd5b5f5ffd5b5f67ffffffffffffffff82111561f1225761f12161e9d4565b5b602082029050602081019050919050565b5f5ffd5b601c811061f143575f5ffd5b50565b5f8135905061f1548161f137565b92915050565b5f60ff82169050919050565b61f16f8161f15a565b811461f179575f5ffd5b50565b5f8135905061f18a8161f166565b92915050565b5f8115159050919050565b61f1a48161f190565b811461f1ae575f5ffd5b50565b5f8135905061f1bf8161f19b565b92915050565b5f6040828403121561f1da5761f1d961e9c0565b5b61f1e4604061ea32565b90505f61f1f38482850161f146565b5f83015250602061f2068482850161f17c565b60208301525092915050565b5f60a0828403121561f2275761f22661e9c0565b5b61f231608061ea32565b90505f61f2408482850161f146565b5f83015250602061f2538482850161f17c565b602083015250604061f2678482850161f1b1565b604083015250606061f27b8482850161f1c5565b60608301525092915050565b5f61f29961f2948461f108565b61ea32565b90508083825260208201905060a0840283018581111561f2bc5761f2bb61f133565b5b835b8181101561f2e5578061f2d1888261f212565b84526020840193505060a08101905061f2be565b5050509392505050565b5f82601f83011261f3035761f30261f104565b5b813561f31384826020860161f287565b91505092915050565b5f61ffff82169050919050565b61f3328161f31c565b811461f33c575f5ffd5b50565b5f8135905061f34d8161f329565b92915050565b5f63ffffffff82169050919050565b61f36b8161f353565b811461f375575f5ffd5b50565b5f8135905061f3868161f362565b92915050565b6002811061f398575f5ffd5b50565b5f8135905061f3a98161f38c565b92915050565b600b811061f3bb575f5ffd5b50565b5f8135905061f3cc8161f3af565b92915050565b601d811061f3de575f5ffd5b50565b5f8135905061f3ef8161f3d2565b92915050565b6017811061f401575f5ffd5b50565b5f8135905061f4128161f3f5565b92915050565b6014811061f424575f5ffd5b50565b5f8135905061f4358161f418565b92915050565b6009811061f447575f5ffd5b50565b5f8135905061f4588161f43b565b92915050565b6009811061f46a575f5ffd5b50565b5f8135905061f47b8161f45e565b92915050565b6004811061f48d575f5ffd5b50565b5f8135905061f49e8161f481565b92915050565b6058811061f4b0575f5ffd5b50565b5f8135905061f4c18161f4a4565b92915050565b6016811061f4d3575f5ffd5b50565b5f8135905061f4e48161f4c7565b92915050565b60d4811061f4f6575f5ffd5b50565b5f8135905061f5078161f4ea565b92915050565b606a811061f519575f5ffd5b50565b5f8135905061f52a8161f50d565b92915050565b60a9811061f53c575f5ffd5b50565b5f8135905061f54d8161f530565b92915050565b6080811061f55f575f5ffd5b50565b5f8135905061f5708161f553565b92915050565b601a811061f582575f5ffd5b50565b5f8135905061f5938161f576565b92915050565b601f811061f5a5575f5ffd5b50565b5f8135905061f5b68161f599565b92915050565b6013811061f5c8575f5ffd5b50565b5f8135905061f5d98161f5bc565b92915050565b6009811061f5eb575f5ffd5b50565b5f8135905061f5fc8161f5df565b92915050565b6009811061f60e575f5ffd5b50565b5f8135905061f61f8161f602565b92915050565b6004811061f631575f5ffd5b50565b5f8135905061f6428161f625565b92915050565b6015811061f654575f5ffd5b50565b5f8135905061f6658161f648565b92915050565b60c3811061f677575f5ffd5b50565b5f8135905061f6888161f66b565b92915050565b6085811061f69a575f5ffd5b50565b5f8135905061f6ab8161f68e565b92915050565b6084811061f6bd575f5ffd5b50565b5f8135905061f6ce8161f6b1565b92915050565b607a811061f6e0575f5ffd5b50565b5f8135905061f6f18161f6d4565b92915050565b600d811061f703575f5ffd5b50565b5f8135905061f7148161f6f7565b92915050565b600b811061f726575f5ffd5b50565b5f8135905061f7378161f71a565b92915050565b5f610420828403121561f7535761f75261e9c0565b5b61f75e61042061ea32565b90505f82013567ffffffffffffffff81111561f77d5761f77c61ea4c565b5b61f7898482850161f2ef565b5f83015250602061f79c8482850161f17c565b602083015250604061f7b08482850161f33f565b604083015250606061f7c48482850161ea6f565b606083015250608061f7d88482850161f33f565b60808301525060a061f7ec8482850161f378565b60a08301525060c061f8008482850161f39b565b60c08301525060e061f8148482850161f3be565b60e08301525061010061f8298482850161f3e1565b6101008301525061012061f83f8482850161f404565b6101208301525061014061f8558482850161f427565b6101408301525061016061f86b8482850161f44a565b6101608301525061018061f8818482850161f46d565b610180830152506101a061f8978482850161f490565b6101a0830152506101c061f8ad8482850161f4b3565b6101c0830152506101e061f8c38482850161f4d6565b6101e08301525061020061f8d98482850161f4f9565b6102008301525061022061f8ef8482850161f51c565b6102208301525061024061f9058482850161f53f565b6102408301525061026061f91b8482850161f562565b6102608301525061028061f9318482850161f585565b610280830152506102a061f9478482850161f5a8565b6102a0830152506102c061f95d8482850161f5cb565b6102c0830152506102e061f9738482850161f5ee565b6102e08301525061030061f9898482850161f611565b6103008301525061032061f99f8482850161f634565b6103208301525061034061f9b58482850161f657565b6103408301525061036061f9cb8482850161f67a565b6103608301525061038061f9e18482850161f69d565b610380830152506103a061f9f78482850161f6c0565b6103a0830152506103c061fa0d8482850161f6e3565b6103c0830152506103e061fa238482850161f706565b6103e08301525061040061fa398482850161f729565b6104008301525092915050565b5f61fa51368361f73d565b9050919050565b7f4e487b71000000000000000000000000000000000000000000000000000000005f52601160045260245ffd5b5f61fa8f8261ea50565b915061fa9a8361ea50565b925082820190508082111561fab25761fab161fa58565b5b92915050565b5f61fac28261ea50565b91507fffffffffffffffffffffffffffffffffffffffffffffffffffffffffffffffff820361faf45761faf361fa58565b5b600182019050919050565b5f819050919050565b61fb1961fb148261ea50565b61faff565b82525050565b5f61fb2a828561fb08565b60208201915061fb3a828461fb08565b6020820191508190509392505050565b7f4e487b71000000000000000000000000000000000000000000000000000000005f52601260045260245ffd5b5f61fb818261ea50565b915061fb8c8361ea50565b92508261fb9c5761fb9b61fb4a565b5b828206905092915050565b5f82825260208201905092915050565b7f53656c656374696f6e206661696c6564000000000000000000000000000000005f82015250565b5f61fbeb60108361fba7565b915061fbf68261fbb7565b602082019050919050565b5f6020820190508181035f83015261fc188161fbdf565b905091905056fea2646970667358221220588d38eca69b921dfc0045b7741e973310fe95a71a4dae5533a5cbb0aa47f33964736f6c634300081e0033",
			"opcodes": "PUSH1 0x80 PUSH1 0x40 MSTORE CALLVALUE DUP1 ISZERO PUSH1 0xE JUMPI PUSH0 PUSH0 REVERT JUMPDEST POP PUSH2 0xFC55 DUP1 PUSH2 0x1C PUSH0 CODECOPY PUSH0 RETURN INVALID PUSH1 0x80 PUSH1 0x40 MSTORE CALLVALUE DUP1 ISZERO PUSH2 0xF JUMPI PUSH0 PUSH0 REVERT JUMPDEST POP PUSH1 0x4 CALLDATASIZE LT PUSH2 0xE8 JUMPI PUSH0 CALLDATALOAD PUSH1 0xE0 SHR DUP1 PUSH4 0x886815FF GT PUSH2 0x8A JUMPI DUP1 PUSH4 0xD5718063 GT PUSH2 0x64 JUMPI DUP1 PUSH4 0xD5718063 EQ PUSH2 0x2CC JUMPI DUP1 PUSH4 0xD908EC45 EQ PUSH2 0x2FC JUMPI DUP1 PUSH4 0xE7449565 EQ PUSH2 0x32C JUMPI DUP1 PUSH4 0xEAFA510A EQ PUSH2 0x35C JUMPI PUSH2 0xE8 JUMP JUMPDEST DUP1 PUSH4 0x886815FF EQ PUSH2 0x23C JUMPI DUP1 PUSH4 0xAFEC691C EQ PUSH2 0x26C JUMPI DUP1 PUSH4 0xB5F4DEBB EQ PUSH2 0x29C JUMPI PUSH2 0xE8 JUMP JUMPDEST DUP1 PUSH4 0x48048824 GT PUSH2 0xC6 JUMPI DUP1 PUSH4 0x48048824 EQ PUSH2 0x17C JUMPI DUP1 PUSH4 0x4E87244F EQ PUSH2 0x1AC JUMPI DUP1 PUSH4 0x4F4F0D07 EQ PUSH2 0x1DC JUMPI DUP1 PUSH4 0x6D4637D9 EQ PUSH2 0x20C JUMPI PUSH2 0xE8 JUMP JUMPDEST DUP1 PUSH4 0x146E3EEF EQ PUSH2 0xEC JUMPI DUP1 PUSH4 0x25E2ECA0 EQ PUSH2 0x11C JUMPI DUP1 PUSH4 0x42B2BA9E EQ PUSH2 0x14C JUMPI JUMPDEST PUSH0 PUSH0 REVERT JUMPDEST PUSH2 0x106 PUSH1 0x4 DUP1 CALLDATASIZE SUB DUP2 ADD SWAP1 PUSH2 0x101 SWAP2 SWAP1 PUSH2 0xEAD0 JUMP JUMPDEST PUSH2 0x38C JUMP JUMPDEST PUSH1 0x40 MLOAD PUSH2 0x113 SWAP2 SWAP1 PUSH2 0xEB6E JUMP JUMPDEST PUSH1 0x40 MLOAD DUP1 SWAP2 SUB SWAP1 RETURN JUMPDEST PUSH2 0x136 PUSH1 0x4 DUP1 CALLDATASIZE SUB DUP2 ADD SWAP1 PUSH2 0x131 SWAP2 SWAP1 PUSH2 0xEBAA JUMP JUMPDEST PUSH2 0x631 JUMP JUMPDEST PUSH1 0x40 MLOAD PUSH2 0x143 SWAP2 SWAP1 PUSH2 0xEC4A JUMP JUMPDEST PUSH1 0x40 MLOAD DUP1 SWAP2 SUB SWAP1 RETURN JUMPDEST PUSH2 0x166 PUSH1 0x4 DUP1 CALLDATASIZE SUB DUP2 ADD SWAP1 PUSH2 0x161 SWAP2 SWAP1 PUSH2 0xEAD0 JUMP JUMPDEST PUSH2 0xC5B JUMP JUMPDEST PUSH1 0x40 MLOAD PUSH2 0x173 SWAP2 SWAP1 PUSH2 0xECA9 JUMP JUMPDEST PUSH1 0x40 MLOAD DUP1 SWAP2 SUB SWAP1 RETURN JUMPDEST PUSH2 0x196 PUSH1 0x4 DUP1 CALLDATASIZE SUB DUP2 ADD SWAP1 PUSH2 0x191 SWAP2 SWAP1 PUSH2 0xEBAA JUMP JUMPDEST PUSH2 0x2B60 JUMP JUMPDEST PUSH1 0x40 MLOAD PUSH2 0x1A3 SWAP2 SWAP1 PUSH2 0xED08 JUMP JUMPDEST PUSH1 0x40 MLOAD DUP1 SWAP2 SUB SWAP1 RETURN JUMPDEST PUSH2 0x1C6 PUSH1 0x4 DUP1 CALLDATASIZE SUB DUP2 ADD SWAP1 PUSH2 0x1C1 SWAP2 SWAP1 PUSH2 0xEAD0 JUMP JUMPDEST PUSH2 0x5FF8 JUMP JUMPDEST PUSH1 0x40 MLOAD PUSH2 0x1D3 SWAP2 SWAP1 PUSH2 0xED67 JUMP JUMPDEST PUSH1 0x40 MLOAD DUP1 SWAP2 SUB SWAP1 RETURN JUMPDEST PUSH2 0x1F6 PUSH1 0x4 DUP1 CALLDATASIZE SUB DUP2 ADD SWAP1 PUSH2 0x1F1 SWAP2 SWAP1 PUSH2 0xEAD0 JUMP JUMPDEST PUSH2 0x6166 JUMP JUMPDEST PUSH1 0x40 MLOAD PUSH2 0x203 SWAP2 SWAP1 PUSH2 0xEDC6 JUMP JUMPDEST PUSH1 0x40 MLOAD DUP1 SWAP2 SUB SWAP1 RETURN JUMPDEST PUSH2 0x226 PUSH1 0x4 DUP1 CALLDATASIZE SUB DUP2 ADD SWAP1 PUSH2 0x221 SWAP2 SWAP1 PUSH2 0xEBAA JUMP JUMPDEST PUSH2 0x8A8F JUMP JUMPDEST PUSH1 0x40 MLOAD PUSH2 0x233 SWAP2 SWAP1 PUSH2 0xEE25 JUMP JUMPDEST PUSH1 0x40 MLOAD DUP1 SWAP2 SUB SWAP1 RETURN JUMPDEST PUSH2 0x256 PUSH1 0x4 DUP1 CALLDATASIZE SUB DUP2 ADD SWAP1 PUSH2 0x251 SWAP2 SWAP1 PUSH2 0xEAD0 JUMP JUMPDEST PUSH2 0x8E5C JUMP JUMPDEST PUSH1 0x40 MLOAD PUSH2 0x263 SWAP2 SWAP1 PUSH2 0xEE84 JUMP JUMPDEST PUSH1 0x40 MLOAD DUP1 SWAP2 SUB SWAP1 RETURN JUMPDEST PUSH2 0x286 PUSH1 0x4 DUP1 CALLDATASIZE SUB DUP2 ADD SWAP1 PUSH2 0x281 SWAP2 SWAP1 PUSH2 0xEAD0 JUMP JUMPDEST PUSH2 0x95A7 JUMP JUMPDEST PUSH1 0x40 MLOAD PUSH2 0x293 SWAP2 SWAP1 PUSH2 0xEEE3 JUMP JUMPDEST PUSH1 0x40 MLOAD DUP1 SWAP2 SUB SWAP1 RETURN JUMPDEST PUSH2 0x2B6 PUSH1 0x4 DUP1 CALLDATASIZE SUB DUP2 ADD SWAP1 PUSH2 0x2B1 SWAP2 SWAP1 PUSH2 0xEBAA JUMP JUMPDEST PUSH2 0x98CA JUMP JUMPDEST PUSH1 0x40 MLOAD PUSH2 0x2C3 SWAP2 SWAP1 PUSH2 0xEF42 JUMP JUMPDEST PUSH1 0x40 MLOAD DUP1 SWAP2 SUB SWAP1 RETURN JUMPDEST PUSH2 0x2E6 PUSH1 0x4 DUP1 CALLDATASIZE SUB DUP2 ADD SWAP1 PUSH2 0x2E1 SWAP2 SWAP1 PUSH2 0xEBAA JUMP JUMPDEST PUSH2 0xB1EE JUMP JUMPDEST PUSH1 0x40 MLOAD PUSH2 0x2F3 SWAP2 SWAP1 PUSH2 0xEFA1 JUMP JUMPDEST PUSH1 0x40 MLOAD DUP1 SWAP2 SUB SWAP1 RETURN JUMPDEST PUSH2 0x316 PUSH1 0x4 DUP1 CALLDATASIZE SUB DUP2 ADD SWAP1 PUSH2 0x311 SWAP2 SWAP1 PUSH2 0xEBAA JUMP JUMPDEST PUSH2 0xCCDA JUMP JUMPDEST PUSH1 0x40 MLOAD PUSH2 0x323 SWAP2 SWAP1 PUSH2 0xF000 JUMP JUMPDEST PUSH1 0x40 MLOAD DUP1 SWAP2 SUB SWAP1 RETURN JUMPDEST PUSH2 0x346 PUSH1 0x4 DUP1 CALLDATASIZE SUB DUP2 ADD SWAP1 PUSH2 0x341 SWAP2 SWAP1 PUSH2 0xEAD0 JUMP JUMPDEST PUSH2 0xD898 JUMP JUMPDEST PUSH1 0x40 MLOAD PUSH2 0x353 SWAP2 SWAP1 PUSH2 0xF05F JUMP JUMPDEST PUSH1 0x40 MLOAD DUP1 SWAP2 SUB SWAP1 RETURN JUMPDEST PUSH2 0x376 PUSH1 0x4 DUP1 CALLDATASIZE SUB DUP2 ADD SWAP1 PUSH2 0x371 SWAP2 SWAP1 PUSH2 0xEAD0 JUMP JUMPDEST PUSH2 0xDE24 JUMP JUMPDEST PUSH1 0x40 MLOAD PUSH2 0x383 SWAP2 SWAP1 PUSH2 0xF0BE JUMP JUMPDEST PUSH1 0x40 MLOAD DUP1 SWAP2 SUB SWAP1 RETURN JUMPDEST PUSH0 PUSH0 PUSH1 0x9 PUSH8 0xFFFFFFFFFFFFFFFF DUP2 GT ISZERO PUSH2 0x3A9 JUMPI PUSH2 0x3A8 PUSH2 0xE9D4 JUMP JUMPDEST JUMPDEST PUSH1 0x40 MLOAD SWAP1 DUP1 DUP3 MSTORE DUP1 PUSH1 0x20 MUL PUSH1 0x20 ADD DUP3 ADD PUSH1 0x40 MSTORE DUP1 ISZERO PUSH2 0x3D7 JUMPI DUP2 PUSH1 0x20 ADD PUSH1 0x20 DUP3 MUL DUP1 CALLDATASIZE DUP4 CALLDATACOPY DUP1 DUP3 ADD SWAP2 POP POP SWAP1 POP JUMPDEST POP SWAP1 POP PUSH2 0x2328 DUP2 PUSH0 PUSH1 0x8 DUP2 GT ISZERO PUSH2 0x3F1 JUMPI PUSH2 0x3F0 PUSH2 0xEAFB JUMP JUMPDEST JUMPDEST DUP2 MLOAD DUP2 LT PUSH2 0x402 JUMPI PUSH2 0x401 PUSH2 0xF0D7 JUMP JUMPDEST JUMPDEST PUSH1 0x20 MUL PUSH1 0x20 ADD ADD SWAP1 PUSH2 0xFFFF AND SWAP1 DUP2 PUSH2 0xFFFF AND DUP2 MSTORE POP POP PUSH2 0x15E DUP2 PUSH1 0x5 PUSH1 0x8 DUP2 GT ISZERO PUSH2 0x430 JUMPI PUSH2 0x42F PUSH2 0xEAFB JUMP JUMPDEST JUMPDEST DUP2 MLOAD DUP2 LT PUSH2 0x441 JUMPI PUSH2 0x440 PUSH2 0xF0D7 JUMP JUMPDEST JUMPDEST PUSH1 0x20 MUL PUSH1 0x20 ADD ADD SWAP1 PUSH2 0xFFFF AND SWAP1 DUP2 PUSH2 0xFFFF AND DUP2 MSTORE POP POP PUSH1 0xFA DUP2 PUSH1 0x1 PUSH1 0x8 DUP2 GT ISZERO PUSH2 0x46E JUMPI PUSH2 0x46D PUSH2 0xEAFB JUMP JUMPDEST JUMPDEST DUP2 MLOAD DUP2 LT PUSH2 0x47F JUMPI PUSH2 0x47E PUSH2 0xF0D7 JUMP JUMPDEST JUMPDEST PUSH1 0x20 MUL PUSH1 0x20 ADD ADD SWAP1 PUSH2 0xFFFF AND SWAP1 DUP2 PUSH2 0xFFFF AND DUP2 MSTORE POP POP PUSH1 0x8C DUP2 PUSH1 0x4 PUSH1 0x8 DUP2 GT ISZERO PUSH2 0x4AC JUMPI PUSH2 0x4AB PUSH2 0xEAFB JUMP JUMPDEST JUMPDEST DUP2 MLOAD DUP2 LT PUSH2 0x4BD JUMPI PUSH2 0x4BC PUSH2 0xF0D7 JUMP JUMPDEST JUMPDEST PUSH1 0x20 MUL PUSH1 0x20 ADD ADD SWAP1 PUSH2 0xFFFF AND SWAP1 DUP2 PUSH2 0xFFFF AND DUP2 MSTORE POP POP PUSH1 0x64 DUP2 PUSH1 0x8 DUP1 DUP2 GT ISZERO PUSH2 0x4E9 JUMPI PUSH2 0x4E8 PUSH2 0xEAFB JUMP JUMPDEST JUMPDEST DUP2 MLOAD DUP2 LT PUSH2 0x4FA JUMPI PUSH2 0x4F9 PUSH2 0xF0D7 JUMP JUMPDEST JUMPDEST PUSH1 0x20 MUL PUSH1 0x20 ADD ADD SWAP1 PUSH2 0xFFFF AND SWAP1 DUP2 PUSH2 0xFFFF AND DUP2 MSTORE POP POP PUSH1 0x4B DUP2 PUSH1 0x3 PUSH1 0x8 DUP2 GT ISZERO PUSH2 0x527 JUMPI PUSH2 0x526 PUSH2 0xEAFB JUMP JUMPDEST JUMPDEST DUP2 MLOAD DUP2 LT PUSH2 0x538 JUMPI PUSH2 0x537 PUSH2 0xF0D7 JUMP JUMPDEST JUMPDEST PUSH1 0x20 MUL PUSH1 0x20 ADD ADD SWAP1 PUSH2 0xFFFF AND SWAP1 DUP2 PUSH2 0xFFFF AND DUP2 MSTORE POP POP PUSH1 0x32 DUP2 PUSH1 0x7 PUSH1 0x8 DUP2 GT ISZERO PUSH2 0x565 JUMPI PUSH2 0x564 PUSH2 0xEAFB JUMP JUMPDEST JUMPDEST DUP2 MLOAD DUP2 LT PUSH2 0x576 JUMPI PUSH2 0x575 PUSH2 0xF0D7 JUMP JUMPDEST JUMPDEST PUSH1 0x20 MUL PUSH1 0x20 ADD ADD SWAP1 PUSH2 0xFFFF AND SWAP1 DUP2 PUSH2 0xFFFF AND DUP2 MSTORE POP POP PUSH1 0x19 DUP2 PUSH1 0x2 PUSH1 0x8 DUP2 GT ISZERO PUSH2 0x5A3 JUMPI PUSH2 0x5A2 PUSH2 0xEAFB JUMP JUMPDEST JUMPDEST DUP2 MLOAD DUP2 LT PUSH2 0x5B4 JUMPI PUSH2 0x5B3 PUSH2 0xF0D7 JUMP JUMPDEST JUMPDEST PUSH1 0x20 MUL PUSH1 0x20 ADD ADD SWAP1 PUSH2 0xFFFF AND SWAP1 DUP2 PUSH2 0xFFFF AND DUP2 MSTORE POP POP PUSH1 0xA DUP2 PUSH1 0x6 PUSH1 0x8 DUP2 GT ISZERO PUSH2 0x5E1 JUMPI PUSH2 0x5E0 PUSH2 0xEAFB JUMP JUMPDEST JUMPDEST DUP2 MLOAD DUP2 LT PUSH2 0x5F2 JUMPI PUSH2 0x5F1 PUSH2 0xF0D7 JUMP JUMPDEST JUMPDEST PUSH1 0x20 MUL PUSH1 0x20 ADD ADD SWAP1 PUSH2 0xFFFF AND SWAP1 DUP2 PUSH2 0xFFFF AND DUP2 MSTORE POP POP PUSH0 PUSH2 0x613 DUP5 DUP4 PUSH2 0xE0C9 JUMP JUMPDEST SWAP1 POP DUP1 PUSH1 0x8 DUP2 GT ISZERO PUSH2 0x628 JUMPI PUSH2 0x627 PUSH2 0xEAFB JUMP JUMPDEST JUMPDEST SWAP3 POP POP POP SWAP2 SWAP1 POP JUMP JUMPDEST PUSH0 PUSH0 PUSH1 0x17 PUSH8 0xFFFFFFFFFFFFFFFF DUP2 GT ISZERO PUSH2 0x64E JUMPI PUSH2 0x64D PUSH2 0xE9D4 JUMP JUMPDEST JUMPDEST PUSH1 0x40 MLOAD SWAP1 DUP1 DUP3 MSTORE DUP1 PUSH1 0x20 MUL PUSH1 0x20 ADD DUP3 ADD PUSH1 0x40 MSTORE DUP1 ISZERO PUSH2 0x67C JUMPI DUP2 PUSH1 0x20 ADD PUSH1 0x20 DUP3 MUL DUP1 CALLDATASIZE DUP4 CALLDATACOPY DUP1 DUP3 ADD SWAP2 POP POP SWAP1 POP JUMPDEST POP SWAP1 POP PUSH2 0x691 DUP5 PUSH2 0x68C SWAP1 PUSH2 0xFA46 JUMP JUMPDEST PUSH2 0xE137 JUMP JUMPDEST ISZERO PUSH2 0x719 JUMPI PUSH2 0x1388 DUP2 PUSH1 0xD PUSH1 0x16 DUP2 GT ISZERO PUSH2 0x6AE JUMPI PUSH2 0x6AD PUSH2 0xEAFB JUMP JUMPDEST JUMPDEST DUP2 MLOAD DUP2 LT PUSH2 0x6BF JUMPI PUSH2 0x6BE PUSH2 0xF0D7 JUMP JUMPDEST JUMPDEST PUSH1 0x20 MUL PUSH1 0x20 ADD ADD SWAP1 PUSH2 0xFFFF AND SWAP1 DUP2 PUSH2 0xFFFF AND DUP2 MSTORE POP POP PUSH2 0x1388 DUP2 PUSH1 0xE PUSH1 0x16 DUP2 GT ISZERO PUSH2 0x6ED JUMPI PUSH2 0x6EC PUSH2 0xEAFB JUMP JUMPDEST JUMPDEST DUP2 MLOAD DUP2 LT PUSH2 0x6FE JUMPI PUSH2 0x6FD PUSH2 0xF0D7 JUMP JUMPDEST JUMPDEST PUSH1 0x20 MUL PUSH1 0x20 ADD ADD SWAP1 PUSH2 0xFFFF AND SWAP1 DUP2 PUSH2 0xFFFF AND DUP2 MSTORE POP POP PUSH2 0xC31 JUMP JUMPDEST PUSH0 DUP2 PUSH0 PUSH1 0x16 DUP2 GT ISZERO PUSH2 0x72E JUMPI PUSH2 0x72D PUSH2 0xEAFB JUMP JUMPDEST JUMPDEST DUP2 MLOAD DUP2 LT PUSH2 0x73F JUMPI PUSH2 0x73E PUSH2 0xF0D7 JUMP JUMPDEST JUMPDEST PUSH1 0x20 MUL PUSH1 0x20 ADD ADD SWAP1 PUSH2 0xFFFF AND SWAP1 DUP2 PUSH2 0xFFFF AND DUP2 MSTORE POP POP PUSH2 0x101D DUP2 PUSH1 0xF PUSH1 0x16 DUP2 GT ISZERO PUSH2 0x76D JUMPI PUSH2 0x76C PUSH2 0xEAFB JUMP JUMPDEST JUMPDEST DUP2 MLOAD DUP2 LT PUSH2 0x77E JUMPI PUSH2 0x77D PUSH2 0xF0D7 JUMP JUMPDEST JUMPDEST PUSH1 0x20 MUL PUSH1 0x20 ADD ADD SWAP1 PUSH2 0xFFFF AND SWAP1 DUP2 PUSH2 0xFFFF AND DUP2 MSTORE POP POP PUSH2 0x101D DUP2 PUSH1 0x12 PUSH1 0x16 DUP2 GT ISZERO PUSH2 0x7AC JUMPI PUSH2 0x7AB PUSH2 0xEAFB JUMP JUMPDEST JUMPDEST DUP2 MLOAD DUP2 LT PUSH2 0x7BD JUMPI PUSH2 0x7BC PUSH2 0xF0D7 JUMP JUMPDEST JUMPDEST PUSH1 0x20 MUL PUSH1 0x20 ADD ADD SWAP1 PUSH2 0xFFFF AND SWAP1 DUP2 PUSH2 0xFFFF AND DUP2 MSTORE POP POP PUSH2 0x1F4 DUP2 PUSH1 0x14 PUSH1 0x16 DUP2 GT ISZERO PUSH2 0x7EB JUMPI PUSH2 0x7EA PUSH2 0xEAFB JUMP JUMPDEST JUMPDEST DUP2 MLOAD DUP2 LT PUSH2 0x7FC JUMPI PUSH2 0x7FB PUSH2 0xF0D7 JUMP JUMPDEST JUMPDEST PUSH1 0x20 MUL PUSH1 0x20 ADD ADD SWAP1 PUSH2 0xFFFF AND SWAP1 DUP2 PUSH2 0xFFFF AND DUP2 MSTORE POP POP PUSH2 0x1F4 DUP2 PUSH1 0x15 PUSH1 0x16 DUP2 GT ISZERO PUSH2 0x82A JUMPI PUSH2 0x829 PUSH2 0xEAFB JUMP JUMPDEST JUMPDEST DUP2 MLOAD DUP2 LT PUSH2 0x83B JUMPI PUSH2 0x83A PUSH2 0xF0D7 JUMP JUMPDEST JUMPDEST PUSH1 0x20 MUL PUSH1 0x20 ADD ADD SWAP1 PUSH2 0xFFFF AND SWAP1 DUP2 PUSH2 0xFFFF AND DUP2 MSTORE POP POP PUSH1 0xFA DUP2 PUSH1 0xC PUSH1 0x16 DUP2 GT ISZERO PUSH2 0x868 JUMPI PUSH2 0x867 PUSH2 0xEAFB JUMP JUMPDEST JUMPDEST DUP2 MLOAD DUP2 LT PUSH2 0x879 JUMPI PUSH2 0x878 PUSH2 0xF0D7 JUMP JUMPDEST JUMPDEST PUSH1 0x20 MUL PUSH1 0x20 ADD ADD SWAP1 PUSH2 0xFFFF AND SWAP1 DUP2 PUSH2 0xFFFF AND DUP2 MSTORE POP POP PUSH1 0x7D DUP2 PUSH1 0x13 PUSH1 0x16 DUP2 GT ISZERO PUSH2 0x8A6 JUMPI PUSH2 0x8A5 PUSH2 0xEAFB JUMP JUMPDEST JUMPDEST DUP2 MLOAD DUP2 LT PUSH2 0x8B7 JUMPI PUSH2 0x8B6 PUSH2 0xF0D7 JUMP JUMPDEST JUMPDEST PUSH1 0x20 MUL PUSH1 0x20 ADD ADD SWAP1 PUSH2 0xFFFF AND SWAP1 DUP2 PUSH2 0xFFFF AND DUP2 MSTORE POP POP PUSH1 0x64 DUP2 PUSH1 0x2 PUSH1 0x16 DUP2 GT ISZERO PUSH2 0x8E4 JUMPI PUSH2 0x8E3 PUSH2 0xEAFB JUMP JUMPDEST JUMPDEST DUP2 MLOAD DUP2 LT PUSH2 0x8F5 JUMPI PUSH2 0x8F4 PUSH2 0xF0D7 JUMP JUMPDEST JUMPDEST PUSH1 0x20 MUL PUSH1 0x20 ADD ADD SWAP1 PUSH2 0xFFFF AND SWAP1 DUP2 PUSH2 0xFFFF AND DUP2 MSTORE POP POP PUSH1 0x4C DUP2 PUSH1 0x16 DUP1 DUP2 GT ISZERO PUSH2 0x921 JUMPI PUSH2 0x920 PUSH2 0xEAFB JUMP JUMPDEST JUMPDEST DUP2 MLOAD DUP2 LT PUSH2 0x932 JUMPI PUSH2 0x931 PUSH2 0xF0D7 JUMP JUMPDEST JUMPDEST PUSH1 0x20 MUL PUSH1 0x20 ADD ADD SWAP1 PUSH2 0xFFFF AND SWAP1 DUP2 PUSH2 0xFFFF AND DUP2 MSTORE POP POP PUSH1 0x32 DUP2 PUSH1 0x1 PUSH1 0x16 DUP2 GT ISZERO PUSH2 0x95F JUMPI PUSH2 0x95E PUSH2 0xEAFB JUMP JUMPDEST JUMPDEST DUP2 MLOAD DUP2 LT PUSH2 0x970 JUMPI PUSH2 0x96F PUSH2 0xF0D7 JUMP JUMPDEST JUMPDEST PUSH1 0x20 MUL PUSH1 0x20 ADD ADD SWAP1 PUSH2 0xFFFF AND SWAP1 DUP2 PUSH2 0xFFFF AND DUP2 MSTORE POP POP PUSH1 0xB DUP2 PUSH1 0x3 PUSH1 0x16 DUP2 GT ISZERO PUSH2 0x99D JUMPI PUSH2 0x99C PUSH2 0xEAFB JUMP JUMPDEST JUMPDEST DUP2 MLOAD DUP2 LT PUSH2 0x9AE JUMPI PUSH2 0x9AD PUSH2 0xF0D7 JUMP JUMPDEST JUMPDEST PUSH1 0x20 MUL PUSH1 0x20 ADD ADD SWAP1 PUSH2 0xFFFF AND SWAP1 DUP2 PUSH2 0xFFFF AND DUP2 MSTORE POP POP PUSH1 0xB DUP2 PUSH1 0x4 PUSH1 0x16 DUP2 GT ISZERO PUSH2 0x9DB JUMPI PUSH2 0x9DA PUSH2 0xEAFB JUMP JUMPDEST JUMPDEST DUP2 MLOAD DUP2 LT PUSH2 0x9EC JUMPI PUSH2 0x9EB PUSH2 0xF0D7 JUMP JUMPDEST JUMPDEST PUSH1 0x20 MUL PUSH1 0x20 ADD ADD SWAP1 PUSH2 0xFFFF AND SWAP1 DUP2 PUSH2 0xFFFF AND DUP2 MSTORE POP POP PUSH1 0xB DUP2 PUSH1 0x5 PUSH1 0x16 DUP2 GT ISZERO PUSH2 0xA19 JUMPI PUSH2 0xA18 PUSH2 0xEAFB JUMP JUMPDEST JUMPDEST DUP2 MLOAD DUP2 LT PUSH2 0xA2A JUMPI PUSH2 0xA29 PUSH2 0xF0D7 JUMP JUMPDEST JUMPDEST PUSH1 0x20 MUL PUSH1 0x20 ADD ADD SWAP1 PUSH2 0xFFFF AND SWAP1 DUP2 PUSH2 0xFFFF AND DUP2 MSTORE POP POP PUSH1 0xB DUP2 PUSH1 0x6 PUSH1 0x16 DUP2 GT ISZERO PUSH2 0xA57 JUMPI PUSH2 0xA56 PUSH2 0xEAFB JUMP JUMPDEST JUMPDEST DUP2 MLOAD DUP2 LT PUSH2 0xA68 JUMPI PUSH2 0xA67 PUSH2 0xF0D7 JUMP JUMPDEST JUMPDEST PUSH1 0x20 MUL PUSH1 0x20 ADD ADD SWAP1 PUSH2 0xFFFF AND SWAP1 DUP2 PUSH2 0xFFFF AND DUP2 MSTORE POP POP PUSH1 0xB DUP2 PUSH1 0x7 PUSH1 0x16 DUP2 GT ISZERO PUSH2 0xA95 JUMPI PUSH2 0xA94 PUSH2 0xEAFB JUMP JUMPDEST JUMPDEST DUP2 MLOAD DUP2 LT PUSH2 0xAA6 JUMPI PUSH2 0xAA5 PUSH2 0xF0D7 JUMP JUMPDEST JUMPDEST PUSH1 0x20 MUL PUSH1 0x20 ADD ADD SWAP1 PUSH2 0xFFFF AND SWAP1 DUP2 PUSH2 0xFFFF AND DUP2 MSTORE POP POP PUSH1 0xB DUP2 PUSH1 0x8 PUSH1 0x16 DUP2 GT ISZERO PUSH2 0xAD3 JUMPI PUSH2 0xAD2 PUSH2 0xEAFB JUMP JUMPDEST JUMPDEST DUP2 MLOAD DUP2 LT PUSH2 0xAE4 JUMPI PUSH2 0xAE3 PUSH2 0xF0D7 JUMP JUMPDEST JUMPDEST PUSH1 0x20 MUL PUSH1 0x20 ADD ADD SWAP1 PUSH2 0xFFFF AND SWAP1 DUP2 PUSH2 0xFFFF AND DUP2 MSTORE POP POP PUSH1 0xB DUP2 PUSH1 0x9 PUSH1 0x16 DUP2 GT ISZERO PUSH2 0xB11 JUMPI PUSH2 0xB10 PUSH2 0xEAFB JUMP JUMPDEST JUMPDEST DUP2 MLOAD DUP2 LT PUSH2 0xB22 JUMPI PUSH2 0xB21 PUSH2 0xF0D7 JUMP JUMPDEST JUMPDEST PUSH1 0x20 MUL PUSH1 0x20 ADD ADD SWAP1 PUSH2 0xFFFF AND SWAP1 DUP2 PUSH2 0xFFFF AND DUP2 MSTORE POP POP PUSH1 0xB DUP2 PUSH1 0xA PUSH1 0x16 DUP2 GT ISZERO PUSH2 0xB4F JUMPI PUSH2 0xB4E PUSH2 0xEAFB JUMP JUMPDEST JUMPDEST DUP2 MLOAD DUP2 LT PUSH2 0xB60 JUMPI PUSH2 0xB5F PUSH2 0xF0D7 JUMP JUMPDEST JUMPDEST PUSH1 0x20 MUL PUSH1 0x20 ADD ADD SWAP1 PUSH2 0xFFFF AND SWAP1 DUP2 PUSH2 0xFFFF AND DUP2 MSTORE POP POP PUSH1 0xB DUP2 PUSH1 0xB PUSH1 0x16 DUP2 GT ISZERO PUSH2 0xB8D JUMPI PUSH2 0xB8C PUSH2 0xEAFB JUMP JUMPDEST JUMPDEST DUP2 MLOAD DUP2 LT PUSH2 0xB9E JUMPI PUSH2 0xB9D PUSH2 0xF0D7 JUMP JUMPDEST JUMPDEST PUSH1 0x20 MUL PUSH1 0x20 ADD ADD SWAP1 PUSH2 0xFFFF AND SWAP1 DUP2 PUSH2 0xFFFF AND DUP2 MSTORE POP POP PUSH1 0x19 DUP2 PUSH1 0x10 PUSH1 0x16 DUP2 GT ISZERO PUSH2 0xBCB JUMPI PUSH2 0xBCA PUSH2 0xEAFB JUMP JUMPDEST JUMPDEST DUP2 MLOAD DUP2 LT PUSH2 0xBDC JUMPI PUSH2 0xBDB PUSH2 0xF0D7 JUMP JUMPDEST JUMPDEST PUSH1 0x20 MUL PUSH1 0x20 ADD ADD SWAP1 PUSH2 0xFFFF AND SWAP1 DUP2 PUSH2 0xFFFF AND DUP2 MSTORE POP POP PUSH1 0x19 DUP2 PUSH1 0x11 PUSH1 0x16 DUP2 GT ISZERO PUSH2 0xC09 JUMPI PUSH2 0xC08 PUSH2 0xEAFB JUMP JUMPDEST JUMPDEST DUP2 MLOAD DUP2 LT PUSH2 0xC1A JUMPI PUSH2 0xC19 PUSH2 0xF0D7 JUMP JUMPDEST JUMPDEST PUSH1 0x20 MUL PUSH1 0x20 ADD ADD SWAP1 PUSH2 0xFFFF AND SWAP1 DUP2 PUSH2 0xFFFF AND DUP2 MSTORE POP POP JUMPDEST PUSH0 PUSH2 0xC3C DUP5 DUP4 PUSH2 0xE0C9 JUMP JUMPDEST SWAP1 POP DUP1 PUSH1 0x16 DUP2 GT ISZERO PUSH2 0xC51 JUMPI PUSH2 0xC50 PUSH2 0xEAFB JUMP JUMPDEST JUMPDEST SWAP3 POP POP POP SWAP3 SWAP2 POP POP JUMP JUMPDEST PUSH0 PUSH0 PUSH1 0x7F PUSH8 0xFFFFFFFFFFFFFFFF DUP2 GT ISZERO PUSH2 0xC78 JUMPI PUSH2 0xC77 PUSH2 0xE9D4 JUMP JUMPDEST JUMPDEST PUSH1 0x40 MLOAD SWAP1 DUP1 DUP3 MSTORE DUP1 PUSH1 0x20 MUL PUSH1 0x20 ADD DUP3 ADD PUSH1 0x40 MSTORE DUP1 ISZERO PUSH2 0xCA6 JUMPI DUP2 PUSH1 0x20 ADD PUSH1 0x20 DUP3 MUL DUP1 CALLDATASIZE DUP4 CALLDATACOPY DUP1 DUP3 ADD SWAP2 POP POP SWAP1 POP JUMPDEST POP SWAP1 POP PUSH2 0x3E8 DUP2 PUSH0 PUSH1 0x7F DUP2 GT ISZERO PUSH2 0xCC0 JUMPI PUSH2 0xCBF PUSH2 0xEAFB JUMP JUMPDEST JUMPDEST DUP2 MLOAD DUP2 LT PUSH2 0xCD1 JUMPI PUSH2 0xCD0 PUSH2 0xF0D7 JUMP JUMPDEST JUMPDEST PUSH1 0x20 MUL PUSH1 0x20 ADD ADD SWAP1 PUSH2 0xFFFF AND SWAP1 DUP2 PUSH2 0xFFFF AND DUP2 MSTORE POP POP PUSH2 0x274 DUP2 PUSH1 0x53 PUSH1 0x7F DUP2 GT ISZERO PUSH2 0xCFF JUMPI PUSH2 0xCFE PUSH2 0xEAFB JUMP JUMPDEST JUMPDEST DUP2 MLOAD DUP2 LT PUSH2 0xD10 JUMPI PUSH2 0xD0F PUSH2 0xF0D7 JUMP JUMPDEST JUMPDEST PUSH1 0x20 MUL PUSH1 0x20 ADD ADD SWAP1 PUSH2 0xFFFF AND SWAP1 DUP2 PUSH2 0xFFFF AND DUP2 MSTORE POP POP PUSH1 0x48 DUP2 PUSH1 0x6A PUSH1 0x7F DUP2 GT ISZERO PUSH2 0xD3D JUMPI PUSH2 0xD3C PUSH2 0xEAFB JUMP JUMPDEST JUMPDEST DUP2 MLOAD DUP2 LT PUSH2 0xD4E JUMPI PUSH2 0xD4D PUSH2 0xF0D7 JUMP JUMPDEST JUMPDEST PUSH1 0x20 MUL PUSH1 0x20 ADD ADD SWAP1 PUSH2 0xFFFF AND SWAP1 DUP2 PUSH2 0xFFFF AND DUP2 MSTORE POP POP PUSH1 0x48 DUP2 PUSH1 0x6B PUSH1 0x7F DUP2 GT ISZERO PUSH2 0xD7B JUMPI PUSH2 0xD7A PUSH2 0xEAFB JUMP JUMPDEST JUMPDEST DUP2 MLOAD DUP2 LT PUSH2 0xD8C JUMPI PUSH2 0xD8B PUSH2 0xF0D7 JUMP JUMPDEST JUMPDEST PUSH1 0x20 MUL PUSH1 0x20 ADD ADD SWAP1 PUSH2 0xFFFF AND SWAP1 DUP2 PUSH2 0xFFFF AND DUP2 MSTORE POP POP PUSH1 0x48 DUP2 PUSH1 0x6C PUSH1 0x7F DUP2 GT ISZERO PUSH2 0xDB9 JUMPI PUSH2 0xDB8 PUSH2 0xEAFB JUMP JUMPDEST JUMPDEST DUP2 MLOAD DUP2 LT PUSH2 0xDCA JUMPI PUSH2 0xDC9 PUSH2 0xF0D7 JUMP JUMPDEST JUMPDEST PUSH1 0x20 MUL PUSH1 0x20 ADD ADD SWAP1 PUSH2 0xFFFF AND SWAP1 DUP2 PUSH2 0xFFFF AND DUP2 MSTORE POP POP PUSH1 0x48 DUP2 PUSH1 0x6D PUSH1 0x7F DUP2 GT ISZERO PUSH2 0xDF7 JUMPI PUSH2 0xDF6 PUSH2 0xEAFB JUMP JUMPDEST JUMPDEST DUP2 MLOAD DUP2 LT PUSH2 0xE08 JUMPI PUSH2 0xE07 PUSH2 0xF0D7 JUMP JUMPDEST JUMPDEST PUSH1 0x20 MUL PUSH1 0x20 ADD ADD SWAP1 PUSH2 0xFFFF AND SWAP1 DUP2 PUSH2 0xFFFF AND DUP2 MSTORE POP POP PUSH1 0x48 DUP2 PUSH1 0x6E PUSH1 0x7F DUP2 GT ISZERO PUSH2 0xE35 JUMPI PUSH2 0xE34 PUSH2 0xEAFB JUMP JUMPDEST JUMPDEST DUP2 MLOAD DUP2 LT PUSH2 0xE46 JUMPI PUSH2 0xE45 PUSH2 0xF0D7 JUMP JUMPDEST JUMPDEST PUSH1 0x20 MUL PUSH1 0x20 ADD ADD SWAP1 PUSH2 0xFFFF AND SWAP1 DUP2 PUSH2 0xFFFF AND DUP2 MSTORE POP POP PUSH1 0x48 DUP2 PUSH1 0x6F PUSH1 0x7F DUP2 GT ISZERO PUSH2 0xE73 JUMPI PUSH2 0xE72 PUSH2 0xEAFB JUMP JUMPDEST JUMPDEST DUP2 MLOAD DUP2 LT PUSH2 0xE84 JUMPI PUSH2 0xE83 PUSH2 0xF0D7 JUMP JUMPDEST JUMPDEST PUSH1 0x20 MUL PUSH1 0x20 ADD ADD SWAP1 PUSH2 0xFFFF AND SWAP1 DUP2 PUSH2 0xFFFF AND DUP2 MSTORE POP POP PUSH1 0x48 DUP2 PUSH1 0x70 PUSH1 0x7F DUP2 GT ISZERO PUSH2 0xEB1 JUMPI PUSH2 0xEB0 PUSH2 0xEAFB JUMP JUMPDEST JUMPDEST DUP2 MLOAD DUP2 LT PUSH2 0xEC2 JUMPI PUSH2 0xEC1 PUSH2 0xF0D7 JUMP JUMPDEST JUMPDEST PUSH1 0x20 MUL PUSH1 0x20 ADD ADD SWAP1 PUSH2 0xFFFF AND SWAP1 DUP2 PUSH2 0xFFFF AND DUP2 MSTORE POP POP PUSH1 0x48 DUP2 PUSH1 0x71 PUSH1 0x7F DUP2 GT ISZERO PUSH2 0xEEF JUMPI PUSH2 0xEEE PUSH2 0xEAFB JUMP JUMPDEST JUMPDEST DUP2 MLOAD DUP2 LT PUSH2 0xF00 JUMPI PUSH2 0xEFF PUSH2 0xF0D7 JUMP JUMPDEST JUMPDEST PUSH1 0x20 MUL PUSH1 0x20 ADD ADD SWAP1 PUSH2 0xFFFF AND SWAP1 DUP2 PUSH2 0xFFFF AND DUP2 MSTORE POP POP PUSH1 0x48 DUP2 PUSH1 0x24 PUSH1 0x7F DUP2 GT ISZERO PUSH2 0xF2D JUMPI PUSH2 0xF2C PUSH2 0xEAFB JUMP JUMPDEST JUMPDEST DUP2 MLOAD DUP2 LT PUSH2 0xF3E JUMPI PUSH2 0xF3D PUSH2 0xF0D7 JUMP JUMPDEST JUMPDEST PUSH1 0x20 MUL PUSH1 0x20 ADD ADD SWAP1 PUSH2 0xFFFF AND SWAP1 DUP2 PUSH2 0xFFFF AND DUP2 MSTORE POP POP PUSH1 0x48 DUP2 PUSH1 0x25 PUSH1 0x7F DUP2 GT ISZERO PUSH2 0xF6B JUMPI PUSH2 0xF6A PUSH2 0xEAFB JUMP JUMPDEST JUMPDEST DUP2 MLOAD DUP2 LT PUSH2 0xF7C JUMPI PUSH2 0xF7B PUSH2 0xF0D7 JUMP JUMPDEST JUMPDEST PUSH1 0x20 MUL PUSH1 0x20 ADD ADD SWAP1 PUSH2 0xFFFF AND SWAP1 DUP2 PUSH2 0xFFFF AND DUP2 MSTORE POP POP PUSH1 0x48 DUP2 PUSH1 0x26 PUSH1 0x7F DUP2 GT ISZERO PUSH2 0xFA9 JUMPI PUSH2 0xFA8 PUSH2 0xEAFB JUMP JUMPDEST JUMPDEST DUP2 MLOAD DUP2 LT PUSH2 0xFBA JUMPI PUSH2 0xFB9 PUSH2 0xF0D7 JUMP JUMPDEST JUMPDEST PUSH1 0x20 MUL PUSH1 0x20 ADD ADD SWAP1 PUSH2 0xFFFF AND SWAP1 DUP2 PUSH2 0xFFFF AND DUP2 MSTORE POP POP PUSH1 0x48 DUP2 PUSH1 0x27 PUSH1 0x7F DUP2 GT ISZERO PUSH2 0xFE7 JUMPI PUSH2 0xFE6 PUSH2 0xEAFB JUMP JUMPDEST JUMPDEST DUP2 MLOAD DUP2 LT PUSH2 0xFF8 JUMPI PUSH2 0xFF7 PUSH2 0xF0D7 JUMP JUMPDEST JUMPDEST PUSH1 0x20 MUL PUSH1 0x20 ADD ADD SWAP1 PUSH2 0xFFFF AND SWAP1 DUP2 PUSH2 0xFFFF AND DUP2 MSTORE POP POP PUSH1 0x48 DUP2 PUSH1 0x28 PUSH1 0x7F DUP2 GT ISZERO PUSH2 0x1025 JUMPI PUSH2 0x1024 PUSH2 0xEAFB JUMP JUMPDEST JUMPDEST DUP2 MLOAD DUP2 LT PUSH2 0x1036 JUMPI PUSH2 0x1035 PUSH2 0xF0D7 JUMP JUMPDEST JUMPDEST PUSH1 0x20 MUL PUSH1 0x20 ADD ADD SWAP1 PUSH2 0xFFFF AND SWAP1 DUP2 PUSH2 0xFFFF AND DUP2 MSTORE POP POP PUSH1 0x48 DUP2 PUSH1 0x29 PUSH1 0x7F DUP2 GT ISZERO PUSH2 0x1063 JUMPI PUSH2 0x1062 PUSH2 0xEAFB JUMP JUMPDEST JUMPDEST DUP2 MLOAD DUP2 LT PUSH2 0x1074 JUMPI PUSH2 0x1073 PUSH2 0xF0D7 JUMP JUMPDEST JUMPDEST PUSH1 0x20 MUL PUSH1 0x20 ADD ADD SWAP1 PUSH2 0xFFFF AND SWAP1 DUP2 PUSH2 0xFFFF AND DUP2 MSTORE POP POP PUSH1 0x48 DUP2 PUSH1 0x2A PUSH1 0x7F DUP2 GT ISZERO PUSH2 0x10A1 JUMPI PUSH2 0x10A0 PUSH2 0xEAFB JUMP JUMPDEST JUMPDEST DUP2 MLOAD DUP2 LT PUSH2 0x10B2 JUMPI PUSH2 0x10B1 PUSH2 0xF0D7 JUMP JUMPDEST JUMPDEST PUSH1 0x20 MUL PUSH1 0x20 ADD ADD SWAP1 PUSH2 0xFFFF AND SWAP1 DUP2 PUSH2 0xFFFF AND DUP2 MSTORE POP POP PUSH1 0x48 DUP2 PUSH1 0x2B PUSH1 0x7F DUP2 GT ISZERO PUSH2 0x10DF JUMPI PUSH2 0x10DE PUSH2 0xEAFB JUMP JUMPDEST JUMPDEST DUP2 MLOAD DUP2 LT PUSH2 0x10F0 JUMPI PUSH2 0x10EF PUSH2 0xF0D7 JUMP JUMPDEST JUMPDEST PUSH1 0x20 MUL PUSH1 0x20 ADD ADD SWAP1 PUSH2 0xFFFF AND SWAP1 DUP2 PUSH2 0xFFFF AND DUP2 MSTORE POP POP PUSH2 0x23A DUP2 PUSH1 0x3E PUSH1 0x7F DUP2 GT ISZERO PUSH2 0x111E JUMPI PUSH2 0x111D PUSH2 0xEAFB JUMP JUMPDEST JUMPDEST DUP2 MLOAD DUP2 LT PUSH2 0x112F JUMPI PUSH2 0x112E PUSH2 0xF0D7 JUMP JUMPDEST JUMPDEST PUSH1 0x20 MUL PUSH1 0x20 ADD ADD SWAP1 PUSH2 0xFFFF AND SWAP1 DUP2 PUSH2 0xFFFF AND DUP2 MSTORE POP POP PUSH2 0x230 DUP2 PUSH1 0x4C PUSH1 0x7F DUP2 GT ISZERO PUSH2 0x115D JUMPI PUSH2 0x115C PUSH2 0xEAFB JUMP JUMPDEST JUMPDEST DUP2 MLOAD DUP2 LT PUSH2 0x116E JUMPI PUSH2 0x116D PUSH2 0xF0D7 JUMP JUMPDEST JUMPDEST PUSH1 0x20 MUL PUSH1 0x20 ADD ADD SWAP1 PUSH2 0xFFFF AND SWAP1 DUP2 PUSH2 0xFFFF AND DUP2 MSTORE POP POP PUSH1 0x32 DUP2 PUSH1 0x5E PUSH1 0x7F DUP2 GT ISZERO PUSH2 0x119B JUMPI PUSH2 0x119A PUSH2 0xEAFB JUMP JUMPDEST JUMPDEST DUP2 MLOAD DUP2 LT PUSH2 0x11AC JUMPI PUSH2 0x11AB PUSH2 0xF0D7 JUMP JUMPDEST JUMPDEST PUSH1 0x20 MUL PUSH1 0x20 ADD ADD SWAP1 PUSH2 0xFFFF AND SWAP1 DUP2 PUSH2 0xFFFF AND DUP2 MSTORE POP POP PUSH1 0x32 DUP2 PUSH1 0x5F PUSH1 0x7F DUP2 GT ISZERO PUSH2 0x11D9 JUMPI PUSH2 0x11D8 PUSH2 0xEAFB JUMP JUMPDEST JUMPDEST DUP2 MLOAD DUP2 LT PUSH2 0x11EA JUMPI PUSH2 0x11E9 PUSH2 0xF0D7 JUMP JUMPDEST JUMPDEST PUSH1 0x20 MUL PUSH1 0x20 ADD ADD SWAP1 PUSH2 0xFFFF AND SWAP1 DUP2 PUSH2 0xFFFF AND DUP2 MSTORE POP POP PUSH1 0x32 DUP2 PUSH1 0x60 PUSH1 0x7F DUP2 GT ISZERO PUSH2 0x1217 JUMPI PUSH2 0x1216 PUSH2 0xEAFB JUMP JUMPDEST JUMPDEST DUP2 MLOAD DUP2 LT PUSH2 0x1228 JUMPI PUSH2 0x1227 PUSH2 0xF0D7 JUMP JUMPDEST JUMPDEST PUSH1 0x20 MUL PUSH1 0x20 ADD ADD SWAP1 PUSH2 0xFFFF AND SWAP1 DUP2 PUSH2 0xFFFF AND DUP2 MSTORE POP POP PUSH1 0x32 DUP2 PUSH1 0x61 PUSH1 0x7F DUP2 GT ISZERO PUSH2 0x1255 JUMPI PUSH2 0x1254 PUSH2 0xEAFB JUMP JUMPDEST JUMPDEST DUP2 MLOAD DUP2 LT PUSH2 0x1266 JUMPI PUSH2 0x1265 PUSH2 0xF0D7 JUMP JUMPDEST JUMPDEST PUSH1 0x20 MUL PUSH1 0x20 ADD ADD SWAP1 PUSH2 0xFFFF AND SWAP1 DUP2 PUSH2 0xFFFF AND DUP2 MSTORE POP POP PUSH1 0x32 DUP2 PUSH1 0x62 PUSH1 0x7F DUP2 GT ISZERO PUSH2 0x1293 JUMPI PUSH2 0x1292 PUSH2 0xEAFB JUMP JUMPDEST JUMPDEST DUP2 MLOAD DUP2 LT PUSH2 0x12A4 JUMPI PUSH2 0x12A3 PUSH2 0xF0D7 JUMP JUMPDEST JUMPDEST PUSH1 0x20 MUL PUSH1 0x20 ADD ADD SWAP1 PUSH2 0xFFFF AND SWAP1 DUP2 PUSH2 0xFFFF AND DUP2 MSTORE POP POP PUSH1 0x32 DUP2 PUSH1 0x63 PUSH1 0x7F DUP2 GT ISZERO PUSH2 0x12D1 JUMPI PUSH2 0x12D0 PUSH2 0xEAFB JUMP JUMPDEST JUMPDEST DUP2 MLOAD DUP2 LT PUSH2 0x12E2 JUMPI PUSH2 0x12E1 PUSH2 0xF0D7 JUMP JUMPDEST JUMPDEST PUSH1 0x20 MUL PUSH1 0x20 ADD ADD SWAP1 PUSH2 0xFFFF AND SWAP1 DUP2 PUSH2 0xFFFF AND DUP2 MSTORE POP POP PUSH1 0x32 DUP2 PUSH1 0x64 PUSH1 0x7F DUP2 GT ISZERO PUSH2 0x130F JUMPI PUSH2 0x130E PUSH2 0xEAFB JUMP JUMPDEST JUMPDEST DUP2 MLOAD DUP2 LT PUSH2 0x1320 JUMPI PUSH2 0x131F PUSH2 0xF0D7 JUMP JUMPDEST JUMPDEST PUSH1 0x20 MUL PUSH1 0x20 ADD ADD SWAP1 PUSH2 0xFFFF AND SWAP1 DUP2 PUSH2 0xFFFF AND DUP2 MSTORE POP POP PUSH1 0x32 DUP2 PUSH1 0x65 PUSH1 0x7F DUP2 GT ISZERO PUSH2 0x134D JUMPI PUSH2 0x134C PUSH2 0xEAFB JUMP JUMPDEST JUMPDEST DUP2 MLOAD DUP2 LT PUSH2 0x135E JUMPI PUSH2 0x135D PUSH2 0xF0D7 JUMP JUMPDEST JUMPDEST PUSH1 0x20 MUL PUSH1 0x20 ADD ADD SWAP1 PUSH2 0xFFFF AND SWAP1 DUP2 PUSH2 0xFFFF AND DUP2 MSTORE POP POP PUSH1 0x32 DUP2 PUSH1 0x66 PUSH1 0x7F DUP2 GT ISZERO PUSH2 0x138B JUMPI PUSH2 0x138A PUSH2 0xEAFB JUMP JUMPDEST JUMPDEST DUP2 MLOAD DUP2 LT PUSH2 0x139C JUMPI PUSH2 0x139B PUSH2 0xF0D7 JUMP JUMPDEST JUMPDEST PUSH1 0x20 MUL PUSH1 0x20 ADD ADD SWAP1 PUSH2 0xFFFF AND SWAP1 DUP2 PUSH2 0xFFFF AND DUP2 MSTORE POP POP PUSH1 0x32 DUP2 PUSH1 0x67 PUSH1 0x7F DUP2 GT ISZERO PUSH2 0x13C9 JUMPI PUSH2 0x13C8 PUSH2 0xEAFB JUMP JUMPDEST JUMPDEST DUP2 MLOAD DUP2 LT PUSH2 0x13DA JUMPI PUSH2 0x13D9 PUSH2 0xF0D7 JUMP JUMPDEST JUMPDEST PUSH1 0x20 MUL PUSH1 0x20 ADD ADD SWAP1 PUSH2 0xFFFF AND SWAP1 DUP2 PUSH2 0xFFFF AND DUP2 MSTORE POP POP PUSH1 0x32 DUP2 PUSH1 0x68 PUSH1 0x7F DUP2 GT ISZERO PUSH2 0x1407 JUMPI PUSH2 0x1406 PUSH2 0xEAFB JUMP JUMPDEST JUMPDEST DUP2 MLOAD DUP2 LT PUSH2 0x1418 JUMPI PUSH2 0x1417 PUSH2 0xF0D7 JUMP JUMPDEST JUMPDEST PUSH1 0x20 MUL PUSH1 0x20 ADD ADD SWAP1 PUSH2 0xFFFF AND SWAP1 DUP2 PUSH2 0xFFFF AND DUP2 MSTORE POP POP PUSH2 0x21C DUP2 PUSH1 0x2E PUSH1 0x7F DUP2 GT ISZERO PUSH2 0x1446 JUMPI PUSH2 0x1445 PUSH2 0xEAFB JUMP JUMPDEST JUMPDEST DUP2 MLOAD DUP2 LT PUSH2 0x1457 JUMPI PUSH2 0x1456 PUSH2 0xF0D7 JUMP JUMPDEST JUMPDEST PUSH1 0x20 MUL PUSH1 0x20 ADD ADD SWAP1 PUSH2 0xFFFF AND SWAP1 DUP2 PUSH2 0xFFFF AND DUP2 MSTORE POP POP PUSH1 0x2E DUP2 PUSH1 0xF PUSH1 0x7F DUP2 GT ISZERO PUSH2 0x1484 JUMPI PUSH2 0x1483 PUSH2 0xEAFB JUMP JUMPDEST JUMPDEST DUP2 MLOAD DUP2 LT PUSH2 0x1495 JUMPI PUSH2 0x1494 PUSH2 0xF0D7 JUMP JUMPDEST JUMPDEST PUSH1 0x20 MUL PUSH1 0x20 ADD ADD SWAP1 PUSH2 0xFFFF AND SWAP1 DUP2 PUSH2 0xFFFF AND DUP2 MSTORE POP POP PUSH1 0x2E DUP2 PUSH1 0x10 PUSH1 0x7F DUP2 GT ISZERO PUSH2 0x14C2 JUMPI PUSH2 0x14C1 PUSH2 0xEAFB JUMP JUMPDEST JUMPDEST DUP2 MLOAD DUP2 LT PUSH2 0x14D3 JUMPI PUSH2 0x14D2 PUSH2 0xF0D7 JUMP JUMPDEST JUMPDEST PUSH1 0x20 MUL PUSH1 0x20 ADD ADD SWAP1 PUSH2 0xFFFF AND SWAP1 DUP2 PUSH2 0xFFFF AND DUP2 MSTORE POP POP PUSH1 0x2E DUP2 PUSH1 0x11 PUSH1 0x7F DUP2 GT ISZERO PUSH2 0x1500 JUMPI PUSH2 0x14FF PUSH2 0xEAFB JUMP JUMPDEST JUMPDEST DUP2 MLOAD DUP2 LT PUSH2 0x1511 JUMPI PUSH2 0x1510 PUSH2 0xF0D7 JUMP JUMPDEST JUMPDEST PUSH1 0x20 MUL PUSH1 0x20 ADD ADD SWAP1 PUSH2 0xFFFF AND SWAP1 DUP2 PUSH2 0xFFFF AND DUP2 MSTORE POP POP PUSH1 0x2E DUP2 PUSH1 0x12 PUSH1 0x7F DUP2 GT ISZERO PUSH2 0x153E JUMPI PUSH2 0x153D PUSH2 0xEAFB JUMP JUMPDEST JUMPDEST DUP2 MLOAD DUP2 LT PUSH2 0x154F JUMPI PUSH2 0x154E PUSH2 0xF0D7 JUMP JUMPDEST JUMPDEST PUSH1 0x20 MUL PUSH1 0x20 ADD ADD SWAP1 PUSH2 0xFFFF AND SWAP1 DUP2 PUSH2 0xFFFF AND DUP2 MSTORE POP POP PUSH1 0x2E DUP2 PUSH1 0x13 PUSH1 0x7F DUP2 GT ISZERO PUSH2 0x157C JUMPI PUSH2 0x157B PUSH2 0xEAFB JUMP JUMPDEST JUMPDEST DUP2 MLOAD DUP2 LT PUSH2 0x158D JUMPI PUSH2 0x158C PUSH2 0xF0D7 JUMP JUMPDEST JUMPDEST PUSH1 0x20 MUL PUSH1 0x20 ADD ADD SWAP1 PUSH2 0xFFFF AND SWAP1 DUP2 PUSH2 0xFFFF AND DUP2 MSTORE POP POP PUSH1 0x2E DUP2 PUSH1 0x14 PUSH1 0x7F DUP2 GT ISZERO PUSH2 0x15BA JUMPI PUSH2 0x15B9 PUSH2 0xEAFB JUMP JUMPDEST JUMPDEST DUP2 MLOAD DUP2 LT PUSH2 0x15CB JUMPI PUSH2 0x15CA PUSH2 0xF0D7 JUMP JUMPDEST JUMPDEST PUSH1 0x20 MUL PUSH1 0x20 ADD ADD SWAP1 PUSH2 0xFFFF AND SWAP1 DUP2 PUSH2 0xFFFF AND DUP2 MSTORE POP POP PUSH1 0x2E DUP2 PUSH1 0x15 PUSH1 0x7F DUP2 GT ISZERO PUSH2 0x15F8 JUMPI PUSH2 0x15F7 PUSH2 0xEAFB JUMP JUMPDEST JUMPDEST DUP2 MLOAD DUP2 LT PUSH2 0x1609 JUMPI PUSH2 0x1608 PUSH2 0xF0D7 JUMP JUMPDEST JUMPDEST PUSH1 0x20 MUL PUSH1 0x20 ADD ADD SWAP1 PUSH2 0xFFFF AND SWAP1 DUP2 PUSH2 0xFFFF AND DUP2 MSTORE POP POP PUSH1 0x2E DUP2 PUSH1 0x16 PUSH1 0x7F DUP2 GT ISZERO PUSH2 0x1636 JUMPI PUSH2 0x1635 PUSH2 0xEAFB JUMP JUMPDEST JUMPDEST DUP2 MLOAD DUP2 LT PUSH2 0x1647 JUMPI PUSH2 0x1646 PUSH2 0xF0D7 JUMP JUMPDEST JUMPDEST PUSH1 0x20 MUL PUSH1 0x20 ADD ADD SWAP1 PUSH2 0xFFFF AND SWAP1 DUP2 PUSH2 0xFFFF AND DUP2 MSTORE POP POP PUSH1 0x2E DUP2 PUSH1 0x17 PUSH1 0x7F DUP2 GT ISZERO PUSH2 0x1674 JUMPI PUSH2 0x1673 PUSH2 0xEAFB JUMP JUMPDEST JUMPDEST DUP2 MLOAD DUP2 LT PUSH2 0x1685 JUMPI PUSH2 0x1684 PUSH2 0xF0D7 JUMP JUMPDEST JUMPDEST PUSH1 0x20 MUL PUSH1 0x20 ADD ADD SWAP1 PUSH2 0xFFFF AND SWAP1 DUP2 PUSH2 0xFFFF AND DUP2 MSTORE POP POP PUSH1 0x2E DUP2 PUSH1 0x18 PUSH1 0x7F DUP2 GT ISZERO PUSH2 0x16B2 JUMPI PUSH2 0x16B1 PUSH2 0xEAFB JUMP JUMPDEST JUMPDEST DUP2 MLOAD DUP2 LT PUSH2 0x16C3 JUMPI PUSH2 0x16C2 PUSH2 0xF0D7 JUMP JUMPDEST JUMPDEST PUSH1 0x20 MUL PUSH1 0x20 ADD ADD SWAP1 PUSH2 0xFFFF AND SWAP1 DUP2 PUSH2 0xFFFF AND DUP2 MSTORE POP POP PUSH1 0x2E DUP2 PUSH1 0x19 PUSH1 0x7F DUP2 GT ISZERO PUSH2 0x16F0 JUMPI PUSH2 0x16EF PUSH2 0xEAFB JUMP JUMPDEST JUMPDEST DUP2 MLOAD DUP2 LT PUSH2 0x1701 JUMPI PUSH2 0x1700 PUSH2 0xF0D7 JUMP JUMPDEST JUMPDEST PUSH1 0x20 MUL PUSH1 0x20 ADD ADD SWAP1 PUSH2 0xFFFF AND SWAP1 DUP2 PUSH2 0xFFFF AND DUP2 MSTORE POP POP PUSH2 0x1DB DUP2 PUSH1 0x1 PUSH1 0x7F DUP2 GT ISZERO PUSH2 0x172F JUMPI PUSH2 0x172E PUSH2 0xEAFB JUMP JUMPDEST JUMPDEST DUP2 MLOAD DUP2 LT PUSH2 0x1740 JUMPI PUSH2 0x173F PUSH2 0xF0D7 JUMP JUMPDEST JUMPDEST PUSH1 0x20 MUL PUSH1 0x20 ADD ADD SWAP1 PUSH2 0xFFFF AND SWAP1 DUP2 PUSH2 0xFFFF AND DUP2 MSTORE POP POP PUSH2 0x1DB DUP2 PUSH1 0x22 PUSH1 0x7F DUP2 GT ISZERO PUSH2 0x176E JUMPI PUSH2 0x176D PUSH2 0xEAFB JUMP JUMPDEST JUMPDEST DUP2 MLOAD DUP2 LT PUSH2 0x177F JUMPI PUSH2 0x177E PUSH2 0xF0D7 JUMP JUMPDEST JUMPDEST PUSH1 0x20 MUL PUSH1 0x20 ADD ADD SWAP1 PUSH2 0xFFFF AND SWAP1 DUP2 PUSH2 0xFFFF AND DUP2 MSTORE POP POP PUSH2 0x1A9 DUP2 PUSH1 0x54 PUSH1 0x7F DUP2 GT ISZERO PUSH2 0x17AD JUMPI PUSH2 0x17AC PUSH2 0xEAFB JUMP JUMPDEST JUMPDEST DUP2 MLOAD DUP2 LT PUSH2 0x17BE JUMPI PUSH2 0x17BD PUSH2 0xF0D7 JUMP JUMPDEST JUMPDEST PUSH1 0x20 MUL PUSH1 0x20 ADD ADD SWAP1 PUSH2 0xFFFF AND SWAP1 DUP2 PUSH2 0xFFFF AND DUP2 MSTORE POP POP PUSH2 0x190 DUP2 PUSH1 0x37 PUSH1 0x7F DUP2 GT ISZERO PUSH2 0x17EC JUMPI PUSH2 0x17EB PUSH2 0xEAFB JUMP JUMPDEST JUMPDEST DUP2 MLOAD DUP2 LT PUSH2 0x17FD JUMPI PUSH2 0x17FC PUSH2 0xF0D7 JUMP JUMPDEST JUMPDEST PUSH1 0x20 MUL PUSH1 0x20 ADD ADD SWAP1 PUSH2 0xFFFF AND SWAP1 DUP2 PUSH2 0xFFFF AND DUP2 MSTORE POP POP PUSH1 0x3E DUP2 PUSH1 0x39 PUSH1 0x7F DUP2 GT ISZERO PUSH2 0x182A JUMPI PUSH2 0x1829 PUSH2 0xEAFB JUMP JUMPDEST JUMPDEST DUP2 MLOAD DUP2 LT PUSH2 0x183B JUMPI PUSH2 0x183A PUSH2 0xF0D7 JUMP JUMPDEST JUMPDEST PUSH1 0x20 MUL PUSH1 0x20 ADD ADD SWAP1 PUSH2 0xFFFF AND SWAP1 DUP2 PUSH2 0xFFFF AND DUP2 MSTORE POP POP PUSH1 0x3E DUP2 PUSH1 0x3A PUSH1 0x7F DUP2 GT ISZERO PUSH2 0x1868 JUMPI PUSH2 0x1867 PUSH2 0xEAFB JUMP JUMPDEST JUMPDEST DUP2 MLOAD DUP2 LT PUSH2 0x1879 JUMPI PUSH2 0x1878 PUSH2 0xF0D7 JUMP JUMPDEST JUMPDEST PUSH1 0x20 MUL PUSH1 0x20 ADD ADD SWAP1 PUSH2 0xFFFF AND SWAP1 DUP2 PUSH2 0xFFFF AND DUP2 MSTORE POP POP PUSH1 0x3E DUP2 PUSH1 0x3B PUSH1 0x7F DUP2 GT ISZERO PUSH2 0x18A6 JUMPI PUSH2 0x18A5 PUSH2 0xEAFB JUMP JUMPDEST JUMPDEST DUP2 MLOAD DUP2 LT PUSH2 0x18B7 JUMPI PUSH2 0x18B6 PUSH2 0xF0D7 JUMP JUMPDEST JUMPDEST PUSH1 0x20 MUL PUSH1 0x20 ADD ADD SWAP1 PUSH2 0xFFFF AND SWAP1 DUP2 PUSH2 0xFFFF AND DUP2 MSTORE POP POP PUSH1 0x3E DUP2 PUSH1 0x3C PUSH1 0x7F DUP2 GT ISZERO PUSH2 0x18E4 JUMPI PUSH2 0x18E3 PUSH2 0xEAFB JUMP JUMPDEST JUMPDEST DUP2 MLOAD DUP2 LT PUSH2 0x18F5 JUMPI PUSH2 0x18F4 PUSH2 0xF0D7 JUMP JUMPDEST JUMPDEST PUSH1 0x20 MUL PUSH1 0x20 ADD ADD SWAP1 PUSH2 0xFFFF AND SWAP1 DUP2 PUSH2 0xFFFF AND DUP2 MSTORE POP POP PUSH1 0x3E DUP2 PUSH1 0x3D PUSH1 0x7F DUP2 GT ISZERO PUSH2 0x1922 JUMPI PUSH2 0x1921 PUSH2 0xEAFB JUMP JUMPDEST JUMPDEST DUP2 MLOAD DUP2 LT PUSH2 0x1933 JUMPI PUSH2 0x1932 PUSH2 0xF0D7 JUMP JUMPDEST JUMPDEST PUSH1 0x20 MUL PUSH1 0x20 ADD ADD SWAP1 PUSH2 0xFFFF AND SWAP1 DUP2 PUSH2 0xFFFF AND DUP2 MSTORE POP POP PUSH1 0x3E DUP2 PUSH1 0x38 PUSH1 0x7F DUP2 GT ISZERO PUSH2 0x1960 JUMPI PUSH2 0x195F PUSH2 0xEAFB JUMP JUMPDEST JUMPDEST DUP2 MLOAD DUP2 LT PUSH2 0x1971 JUMPI PUSH2 0x1970 PUSH2 0xF0D7 JUMP JUMPDEST JUMPDEST PUSH1 0x20 MUL PUSH1 0x20 ADD ADD SWAP1 PUSH2 0xFFFF AND SWAP1 DUP2 PUSH2 0xFFFF AND DUP2 MSTORE POP POP PUSH2 0x15B DUP2 PUSH1 0x72 PUSH1 0x7F DUP2 GT ISZERO PUSH2 0x199F JUMPI PUSH2 0x199E PUSH2 0xEAFB JUMP JUMPDEST JUMPDEST DUP2 MLOAD DUP2 LT PUSH2 0x19B0 JUMPI PUSH2 0x19AF PUSH2 0xF0D7 JUMP JUMPDEST JUMPDEST PUSH1 0x20 MUL PUSH1 0x20 ADD ADD SWAP1 PUSH2 0xFFFF AND SWAP1 DUP2 PUSH2 0xFFFF AND DUP2 MSTORE POP POP PUSH2 0x13D DUP2 PUSH1 0x2F PUSH1 0x7F DUP2 GT ISZERO PUSH2 0x19DE JUMPI PUSH2 0x19DD PUSH2 0xEAFB JUMP JUMPDEST JUMPDEST DUP2 MLOAD DUP2 LT PUSH2 0x19EF JUMPI PUSH2 0x19EE PUSH2 0xF0D7 JUMP JUMPDEST JUMPDEST PUSH1 0x20 MUL PUSH1 0x20 ADD ADD SWAP1 PUSH2 0xFFFF AND SWAP1 DUP2 PUSH2 0xFFFF AND DUP2 MSTORE POP POP PUSH2 0x118 DUP2 PUSH1 0x2D PUSH1 0x7F DUP2 GT ISZERO PUSH2 0x1A1D JUMPI PUSH2 0x1A1C PUSH2 0xEAFB JUMP JUMPDEST JUMPDEST DUP2 MLOAD DUP2 LT PUSH2 0x1A2E JUMPI PUSH2 0x1A2D PUSH2 0xF0D7 JUMP JUMPDEST JUMPDEST PUSH1 0x20 MUL PUSH1 0x20 ADD ADD SWAP1 PUSH2 0xFFFF AND SWAP1 DUP2 PUSH2 0xFFFF AND DUP2 MSTORE POP POP PUSH1 0x7D DUP2 PUSH1 0x4A PUSH1 0x7F DUP2 GT ISZERO PUSH2 0x1A5B JUMPI PUSH2 0x1A5A PUSH2 0xEAFB JUMP JUMPDEST JUMPDEST DUP2 MLOAD DUP2 LT PUSH2 0x1A6C JUMPI PUSH2 0x1A6B PUSH2 0xF0D7 JUMP JUMPDEST JUMPDEST PUSH1 0x20 MUL PUSH1 0x20 ADD ADD SWAP1 PUSH2 0xFFFF AND SWAP1 DUP2 PUSH2 0xFFFF AND DUP2 MSTORE POP POP PUSH1 0x7D DUP2 PUSH1 0x4B PUSH1 0x7F DUP2 GT ISZERO PUSH2 0x1A99 JUMPI PUSH2 0x1A98 PUSH2 0xEAFB JUMP JUMPDEST JUMPDEST DUP2 MLOAD DUP2 LT PUSH2 0x1AAA JUMPI PUSH2 0x1AA9 PUSH2 0xF0D7 JUMP JUMPDEST JUMPDEST PUSH1 0x20 MUL PUSH1 0x20 ADD ADD SWAP1 PUSH2 0xFFFF AND SWAP1 DUP2 PUSH2 0xFFFF AND DUP2 MSTORE POP POP PUSH1 0xE1 DUP2 PUSH1 0x51 PUSH1 0x7F DUP2 GT ISZERO PUSH2 0x1AD7 JUMPI PUSH2 0x1AD6 PUSH2 0xEAFB JUMP JUMPDEST JUMPDEST DUP2 MLOAD DUP2 LT PUSH2 0x1AE8 JUMPI PUSH2 0x1AE7 PUSH2 0xF0D7 JUMP JUMPDEST JUMPDEST PUSH1 0x20 MUL PUSH1 0x20 ADD ADD SWAP1 PUSH2 0xFFFF AND SWAP1 DUP2 PUSH2 0xFFFF AND DUP2 MSTORE POP POP PUSH1 0x1C DUP2 PUSH1 0x30 PUSH1 0x7F DUP2 GT ISZERO PUSH2 0x1B15 JUMPI PUSH2 0x1B14 PUSH2 0xEAFB JUMP JUMPDEST JUMPDEST DUP2 MLOAD DUP2 LT PUSH2 0x1B26 JUMPI PUSH2 0x1B25 PUSH2 0xF0D7 JUMP JUMPDEST JUMPDEST PUSH1 0x20 MUL PUSH1 0x20 ADD ADD SWAP1 PUSH2 0xFFFF AND SWAP1 DUP2 PUSH2 0xFFFF AND DUP2 MSTORE POP POP PUSH1 0x1C DUP2 PUSH1 0x31 PUSH1 0x7F DUP2 GT ISZERO PUSH2 0x1B53 JUMPI PUSH2 0x1B52 PUSH2 0xEAFB JUMP JUMPDEST JUMPDEST DUP2 MLOAD DUP2 LT PUSH2 0x1B64 JUMPI PUSH2 0x1B63 PUSH2 0xF0D7 JUMP JUMPDEST JUMPDEST PUSH1 0x20 MUL PUSH1 0x20 ADD ADD SWAP1 PUSH2 0xFFFF AND SWAP1 DUP2 PUSH2 0xFFFF AND DUP2 MSTORE POP POP PUSH1 0x1C DUP2 PUSH1 0x32 PUSH1 0x7F DUP2 GT ISZERO PUSH2 0x1B91 JUMPI PUSH2 0x1B90 PUSH2 0xEAFB JUMP JUMPDEST JUMPDEST DUP2 MLOAD DUP2 LT PUSH2 0x1BA2 JUMPI PUSH2 0x1BA1 PUSH2 0xF0D7 JUMP JUMPDEST JUMPDEST PUSH1 0x20 MUL PUSH1 0x20 ADD ADD SWAP1 PUSH2 0xFFFF AND SWAP1 DUP2 PUSH2 0xFFFF AND DUP2 MSTORE POP POP PUSH1 0x1C DUP2 PUSH1 0x33 PUSH1 0x7F DUP2 GT ISZERO PUSH2 0x1BCF JUMPI PUSH2 0x1BCE PUSH2 0xEAFB JUMP JUMPDEST JUMPDEST DUP2 MLOAD DUP2 LT PUSH2 0x1BE0 JUMPI PUSH2 0x1BDF PUSH2 0xF0D7 JUMP JUMPDEST JUMPDEST PUSH1 0x20 MUL PUSH1 0x20 ADD ADD SWAP1 PUSH2 0xFFFF AND SWAP1 DUP2 PUSH2 0xFFFF AND DUP2 MSTORE POP POP PUSH1 0x1C DUP2 PUSH1 0x34 PUSH1 0x7F DUP2 GT ISZERO PUSH2 0x1C0D JUMPI PUSH2 0x1C0C PUSH2 0xEAFB JUMP JUMPDEST JUMPDEST DUP2 MLOAD DUP2 LT PUSH2 0x1C1E JUMPI PUSH2 0x1C1D PUSH2 0xF0D7 JUMP JUMPDEST JUMPDEST PUSH1 0x20 MUL PUSH1 0x20 ADD ADD SWAP1 PUSH2 0xFFFF AND SWAP1 DUP2 PUSH2 0xFFFF AND DUP2 MSTORE POP POP PUSH1 0x1C DUP2 PUSH1 0x35 PUSH1 0x7F DUP2 GT ISZERO PUSH2 0x1C4B JUMPI PUSH2 0x1C4A PUSH2 0xEAFB JUMP JUMPDEST JUMPDEST DUP2 MLOAD DUP2 LT PUSH2 0x1C5C JUMPI PUSH2 0x1C5B PUSH2 0xF0D7 JUMP JUMPDEST JUMPDEST PUSH1 0x20 MUL PUSH1 0x20 ADD ADD SWAP1 PUSH2 0xFFFF AND SWAP1 DUP2 PUSH2 0xFFFF AND DUP2 MSTORE POP POP PUSH1 0x1C DUP2 PUSH1 0x36 PUSH1 0x7F DUP2 GT ISZERO PUSH2 0x1C89 JUMPI PUSH2 0x1C88 PUSH2 0xEAFB JUMP JUMPDEST JUMPDEST DUP2 MLOAD DUP2 LT PUSH2 0x1C9A JUMPI PUSH2 0x1C99 PUSH2 0xF0D7 JUMP JUMPDEST JUMPDEST PUSH1 0x20 MUL PUSH1 0x20 ADD ADD SWAP1 PUSH2 0xFFFF AND SWAP1 DUP2 PUSH2 0xFFFF AND DUP2 MSTORE POP POP PUSH1 0x14 DUP2 PUSH1 0x1A PUSH1 0x7F DUP2 GT ISZERO PUSH2 0x1CC7 JUMPI PUSH2 0x1CC6 PUSH2 0xEAFB JUMP JUMPDEST JUMPDEST DUP2 MLOAD DUP2 LT PUSH2 0x1CD8 JUMPI PUSH2 0x1CD7 PUSH2 0xF0D7 JUMP JUMPDEST JUMPDEST PUSH1 0x20 MUL PUSH1 0x20 ADD ADD SWAP1 PUSH2 0xFFFF AND SWAP1 DUP2 PUSH2 0xFFFF AND DUP2 MSTORE POP POP PUSH1 0x14 DUP2 PUSH1 0x1B PUSH1 0x7F DUP2 GT ISZERO PUSH2 0x1D05 JUMPI PUSH2 0x1D04 PUSH2 0xEAFB JUMP JUMPDEST JUMPDEST DUP2 MLOAD DUP2 LT PUSH2 0x1D16 JUMPI PUSH2 0x1D15 PUSH2 0xF0D7 JUMP JUMPDEST JUMPDEST PUSH1 0x20 MUL PUSH1 0x20 ADD ADD SWAP1 PUSH2 0xFFFF AND SWAP1 DUP2 PUSH2 0xFFFF AND DUP2 MSTORE POP POP PUSH1 0x14 DUP2 PUSH1 0x1C PUSH1 0x7F DUP2 GT ISZERO PUSH2 0x1D43 JUMPI PUSH2 0x1D42 PUSH2 0xEAFB JUMP JUMPDEST JUMPDEST DUP2 MLOAD DUP2 LT PUSH2 0x1D54 JUMPI PUSH2 0x1D53 PUSH2 0xF0D7 JUMP JUMPDEST JUMPDEST PUSH1 0x20 MUL PUSH1 0x20 ADD ADD SWAP1 PUSH2 0xFFFF AND SWAP1 DUP2 PUSH2 0xFFFF AND DUP2 MSTORE POP POP PUSH1 0x14 DUP2 PUSH1 0x1D PUSH1 0x7F DUP2 GT ISZERO PUSH2 0x1D81 JUMPI PUSH2 0x1D80 PUSH2 0xEAFB JUMP JUMPDEST JUMPDEST DUP2 MLOAD DUP2 LT PUSH2 0x1D92 JUMPI PUSH2 0x1D91 PUSH2 0xF0D7 JUMP JUMPDEST JUMPDEST PUSH1 0x20 MUL PUSH1 0x20 ADD ADD SWAP1 PUSH2 0xFFFF AND SWAP1 DUP2 PUSH2 0xFFFF AND DUP2 MSTORE POP POP PUSH1 0x14 DUP2 PUSH1 0x1E PUSH1 0x7F DUP2 GT ISZERO PUSH2 0x1DBF JUMPI PUSH2 0x1DBE PUSH2 0xEAFB JUMP JUMPDEST JUMPDEST DUP2 MLOAD DUP2 LT PUSH2 0x1DD0 JUMPI PUSH2 0x1DCF PUSH2 0xF0D7 JUMP JUMPDEST JUMPDEST PUSH1 0x20 MUL PUSH1 0x20 ADD ADD SWAP1 PUSH2 0xFFFF AND SWAP1 DUP2 PUSH2 0xFFFF AND DUP2 MSTORE POP POP PUSH1 0x14 DUP2 PUSH1 0x1F PUSH1 0x7F DUP2 GT ISZERO PUSH2 0x1DFD JUMPI PUSH2 0x1DFC PUSH2 0xEAFB JUMP JUMPDEST JUMPDEST DUP2 MLOAD DUP2 LT PUSH2 0x1E0E JUMPI PUSH2 0x1E0D PUSH2 0xF0D7 JUMP JUMPDEST JUMPDEST PUSH1 0x20 MUL PUSH1 0x20 ADD ADD SWAP1 PUSH2 0xFFFF AND SWAP1 DUP2 PUSH2 0xFFFF AND DUP2 MSTORE POP POP PUSH1 0x14 DUP2 PUSH1 0x20 PUSH1 0x7F DUP2 GT ISZERO PUSH2 0x1E3B JUMPI PUSH2 0x1E3A PUSH2 0xEAFB JUMP JUMPDEST JUMPDEST DUP2 MLOAD DUP2 LT PUSH2 0x1E4C JUMPI PUSH2 0x1E4B PUSH2 0xF0D7 JUMP JUMPDEST JUMPDEST PUSH1 0x20 MUL PUSH1 0x20 ADD ADD SWAP1 PUSH2 0xFFFF AND SWAP1 DUP2 PUSH2 0xFFFF AND DUP2 MSTORE POP POP PUSH1 0x14 DUP2 PUSH1 0x21 PUSH1 0x7F DUP2 GT ISZERO PUSH2 0x1E79 JUMPI PUSH2 0x1E78 PUSH2 0xEAFB JUMP JUMPDEST JUMPDEST DUP2 MLOAD DUP2 LT PUSH2 0x1E8A JUMPI PUSH2 0x1E89 PUSH2 0xF0D7 JUMP JUMPDEST JUMPDEST PUSH1 0x20 MUL PUSH1 0x20 ADD ADD SWAP1 PUSH2 0xFFFF AND SWAP1 DUP2 PUSH2 0xFFFF AND DUP2 MSTORE POP POP PUSH1 0x21 DUP2 PUSH1 0x74 PUSH1 0x7F DUP2 GT ISZERO PUSH2 0x1EB7 JUMPI PUSH2 0x1EB6 PUSH2 0xEAFB JUMP JUMPDEST JUMPDEST DUP2 MLOAD DUP2 LT PUSH2 0x1EC8 JUMPI PUSH2 0x1EC7 PUSH2 0xF0D7 JUMP JUMPDEST JUMPDEST PUSH1 0x20 MUL PUSH1 0x20 ADD ADD SWAP1 PUSH2 0xFFFF AND SWAP1 DUP2 PUSH2 0xFFFF AND DUP2 MSTORE POP POP PUSH1 0x21 DUP2 PUSH1 0x75 PUSH1 0x7F DUP2 GT ISZERO PUSH2 0x1EF5 JUMPI PUSH2 0x1EF4 PUSH2 0xEAFB JUMP JUMPDEST JUMPDEST DUP2 MLOAD DUP2 LT PUSH2 0x1F06 JUMPI PUSH2 0x1F05 PUSH2 0xF0D7 JUMP JUMPDEST JUMPDEST PUSH1 0x20 MUL PUSH1 0x20 ADD ADD SWAP1 PUSH2 0xFFFF AND SWAP1 DUP2 PUSH2 0xFFFF AND DUP2 MSTORE POP POP PUSH1 0x21 DUP2 PUSH1 0x76 PUSH1 0x7F DUP2 GT ISZERO PUSH2 0x1F33 JUMPI PUSH2 0x1F32 PUSH2 0xEAFB JUMP JUMPDEST JUMPDEST DUP2 MLOAD DUP2 LT PUSH2 0x1F44 JUMPI PUSH2 0x1F43 PUSH2 0xF0D7 JUMP JUMPDEST JUMPDEST PUSH1 0x20 MUL PUSH1 0x20 ADD ADD SWAP1 PUSH2 0xFFFF AND SWAP1 DUP2 PUSH2 0xFFFF AND DUP2 MSTORE POP POP PUSH1 0x21 DUP2 PUSH1 0x73 PUSH1 0x7F DUP2 GT ISZERO PUSH2 0x1F71 JUMPI PUSH2 0x1F70 PUSH2 0xEAFB JUMP JUMPDEST JUMPDEST DUP2 MLOAD DUP2 LT PUSH2 0x1F82 JUMPI PUSH2 0x1F81 PUSH2 0xF0D7 JUMP JUMPDEST JUMPDEST PUSH1 0x20 MUL PUSH1 0x20 ADD ADD SWAP1 PUSH2 0xFFFF AND SWAP1 DUP2 PUSH2 0xFFFF AND DUP2 MSTORE POP POP PUSH1 0x16 DUP2 PUSH1 0x2 PUSH1 0x7F DUP2 GT ISZERO PUSH2 0x1FAF JUMPI PUSH2 0x1FAE PUSH2 0xEAFB JUMP JUMPDEST JUMPDEST DUP2 MLOAD DUP2 LT PUSH2 0x1FC0 JUMPI PUSH2 0x1FBF PUSH2 0xF0D7 JUMP JUMPDEST JUMPDEST PUSH1 0x20 MUL PUSH1 0x20 ADD ADD SWAP1 PUSH2 0xFFFF AND SWAP1 DUP2 PUSH2 0xFFFF AND DUP2 MSTORE POP POP PUSH1 0x16 DUP2 PUSH1 0x3 PUSH1 0x7F DUP2 GT ISZERO PUSH2 0x1FED JUMPI PUSH2 0x1FEC PUSH2 0xEAFB JUMP JUMPDEST JUMPDEST DUP2 MLOAD DUP2 LT PUSH2 0x1FFE JUMPI PUSH2 0x1FFD PUSH2 0xF0D7 JUMP JUMPDEST JUMPDEST PUSH1 0x20 MUL PUSH1 0x20 ADD ADD SWAP1 PUSH2 0xFFFF AND SWAP1 DUP2 PUSH2 0xFFFF AND DUP2 MSTORE POP POP PUSH1 0x16 DUP2 PUSH1 0x4 PUSH1 0x7F DUP2 GT ISZERO PUSH2 0x202B JUMPI PUSH2 0x202A PUSH2 0xEAFB JUMP JUMPDEST JUMPDEST DUP2 MLOAD DUP2 LT PUSH2 0x203C JUMPI PUSH2 0x203B PUSH2 0xF0D7 JUMP JUMPDEST JUMPDEST PUSH1 0x20 MUL PUSH1 0x20 ADD ADD SWAP1 PUSH2 0xFFFF AND SWAP1 DUP2 PUSH2 0xFFFF AND DUP2 MSTORE POP POP PUSH1 0x16 DUP2 PUSH1 0x5 PUSH1 0x7F DUP2 GT ISZERO PUSH2 0x2069 JUMPI PUSH2 0x2068 PUSH2 0xEAFB JUMP JUMPDEST JUMPDEST DUP2 MLOAD DUP2 LT PUSH2 0x207A JUMPI PUSH2 0x2079 PUSH2 0xF0D7 JUMP JUMPDEST JUMPDEST PUSH1 0x20 MUL PUSH1 0x20 ADD ADD SWAP1 PUSH2 0xFFFF AND SWAP1 DUP2 PUSH2 0xFFFF AND DUP2 MSTORE POP POP PUSH1 0x16 DUP2 PUSH1 0x6 PUSH1 0x7F DUP2 GT ISZERO PUSH2 0x20A7 JUMPI PUSH2 0x20A6 PUSH2 0xEAFB JUMP JUMPDEST JUMPDEST DUP2 MLOAD DUP2 LT PUSH2 0x20B8 JUMPI PUSH2 0x20B7 PUSH2 0xF0D7 JUMP JUMPDEST JUMPDEST PUSH1 0x20 MUL PUSH1 0x20 ADD ADD SWAP1 PUSH2 0xFFFF AND SWAP1 DUP2 PUSH2 0xFFFF AND DUP2 MSTORE POP POP PUSH1 0xA DUP2 PUSH1 0x7 PUSH1 0x7F DUP2 GT ISZERO PUSH2 0x20E5 JUMPI PUSH2 0x20E4 PUSH2 0xEAFB JUMP JUMPDEST JUMPDEST DUP2 MLOAD DUP2 LT PUSH2 0x20F6 JUMPI PUSH2 0x20F5 PUSH2 0xF0D7 JUMP JUMPDEST JUMPDEST PUSH1 0x20 MUL PUSH1 0x20 ADD ADD SWAP1 PUSH2 0xFFFF AND SWAP1 DUP2 PUSH2 0xFFFF AND DUP2 MSTORE POP POP PUSH1 0xA DUP2 PUSH1 0x8 PUSH1 0x7F DUP2 GT ISZERO PUSH2 0x2123 JUMPI PUSH2 0x2122 PUSH2 0xEAFB JUMP JUMPDEST JUMPDEST DUP2 MLOAD DUP2 LT PUSH2 0x2134 JUMPI PUSH2 0x2133 PUSH2 0xF0D7 JUMP JUMPDEST JUMPDEST PUSH1 0x20 MUL PUSH1 0x20 ADD ADD SWAP1 PUSH2 0xFFFF AND SWAP1 DUP2 PUSH2 0xFFFF AND DUP2 MSTORE POP POP PUSH1 0xA DUP2 PUSH1 0x9 PUSH1 0x7F DUP2 GT ISZERO PUSH2 0x2161 JUMPI PUSH2 0x2160 PUSH2 0xEAFB JUMP JUMPDEST JUMPDEST DUP2 MLOAD DUP2 LT PUSH2 0x2172 JUMPI PUSH2 0x2171 PUSH2 0xF0D7 JUMP JUMPDEST JUMPDEST PUSH1 0x20 MUL PUSH1 0x20 ADD ADD SWAP1 PUSH2 0xFFFF AND SWAP1 DUP2 PUSH2 0xFFFF AND DUP2 MSTORE POP POP PUSH1 0xA DUP2 PUSH1 0xA PUSH1 0x7F DUP2 GT ISZERO PUSH2 0x219F JUMPI PUSH2 0x219E PUSH2 0xEAFB JUMP JUMPDEST JUMPDEST DUP2 MLOAD DUP2 LT PUSH2 0x21B0 JUMPI PUSH2 0x21AF PUSH2 0xF0D7 JUMP JUMPDEST JUMPDEST PUSH1 0x20 MUL PUSH1 0x20 ADD ADD SWAP1 PUSH2 0xFFFF AND SWAP1 DUP2 PUSH2 0xFFFF AND DUP2 MSTORE POP POP PUSH1 0xA DUP2 PUSH1 0xB PUSH1 0x7F DUP2 GT ISZERO PUSH2 0x21DD JUMPI PUSH2 0x21DC PUSH2 0xEAFB JUMP JUMPDEST JUMPDEST DUP2 MLOAD DUP2 LT PUSH2 0x21EE JUMPI PUSH2 0x21ED PUSH2 0xF0D7 JUMP JUMPDEST JUMPDEST PUSH1 0x20 MUL PUSH1 0x20 ADD ADD SWAP1 PUSH2 0xFFFF AND SWAP1 DUP2 PUSH2 0xFFFF AND DUP2 MSTORE POP POP PUSH1 0xA DUP2 PUSH1 0xC PUSH1 0x7F DUP2 GT ISZERO PUSH2 0x221B JUMPI PUSH2 0x221A PUSH2 0xEAFB JUMP JUMPDEST JUMPDEST DUP2 MLOAD DUP2 LT PUSH2 0x222C JUMPI PUSH2 0x222B PUSH2 0xF0D7 JUMP JUMPDEST JUMPDEST PUSH1 0x20 MUL PUSH1 0x20 ADD ADD SWAP1 PUSH2 0xFFFF AND SWAP1 DUP2 PUSH2 0xFFFF AND DUP2 MSTORE POP POP PUSH1 0xA DUP2 PUSH1 0xD PUSH1 0x7F DUP2 GT ISZERO PUSH2 0x2259 JUMPI PUSH2 0x2258 PUSH2 0xEAFB JUMP JUMPDEST JUMPDEST DUP2 MLOAD DUP2 LT PUSH2 0x226A JUMPI PUSH2 0x2269 PUSH2 0xF0D7 JUMP JUMPDEST JUMPDEST PUSH1 0x20 MUL PUSH1 0x20 ADD ADD SWAP1 PUSH2 0xFFFF AND SWAP1 DUP2 PUSH2 0xFFFF AND DUP2 MSTORE POP POP PUSH1 0xA DUP2 PUSH1 0xE PUSH1 0x7F DUP2 GT ISZERO PUSH2 0x2297 JUMPI PUSH2 0x2296 PUSH2 0xEAFB JUMP JUMPDEST JUMPDEST DUP2 MLOAD DUP2 LT PUSH2 0x22A8 JUMPI PUSH2 0x22A7 PUSH2 0xF0D7 JUMP JUMPDEST JUMPDEST PUSH1 0x20 MUL PUSH1 0x20 ADD ADD SWAP1 PUSH2 0xFFFF AND SWAP1 DUP2 PUSH2 0xFFFF AND DUP2 MSTORE POP POP PUSH1 0x45 DUP2 PUSH1 0x52 PUSH1 0x7F DUP2 GT ISZERO PUSH2 0x22D5 JUMPI PUSH2 0x22D4 PUSH2 0xEAFB JUMP JUMPDEST JUMPDEST DUP2 MLOAD DUP2 LT PUSH2 0x22E6 JUMPI PUSH2 0x22E5 PUSH2 0xF0D7 JUMP JUMPDEST JUMPDEST PUSH1 0x20 MUL PUSH1 0x20 ADD ADD SWAP1 PUSH2 0xFFFF AND SWAP1 DUP2 PUSH2 0xFFFF AND DUP2 MSTORE POP POP PUSH1 0x5 DUP2 PUSH1 0x77 PUSH1 0x7F DUP2 GT ISZERO PUSH2 0x2313 JUMPI PUSH2 0x2312 PUSH2 0xEAFB JUMP JUMPDEST JUMPDEST DUP2 MLOAD DUP2 LT PUSH2 0x2324 JUMPI PUSH2 0x2323 PUSH2 0xF0D7 JUMP JUMPDEST JUMPDEST PUSH1 0x20 MUL PUSH1 0x20 ADD ADD SWAP1 PUSH2 0xFFFF AND SWAP1 DUP2 PUSH2 0xFFFF AND DUP2 MSTORE POP POP PUSH1 0x5 DUP2 PUSH1 0x78 PUSH1 0x7F DUP2 GT ISZERO PUSH2 0x2351 JUMPI PUSH2 0x2350 PUSH2 0xEAFB JUMP JUMPDEST JUMPDEST DUP2 MLOAD DUP2 LT PUSH2 0x2362 JUMPI PUSH2 0x2361 PUSH2 0xF0D7 JUMP JUMPDEST JUMPDEST PUSH1 0x20 MUL PUSH1 0x20 ADD ADD SWAP1 PUSH2 0xFFFF AND SWAP1 DUP2 PUSH2 0xFFFF AND DUP2 MSTORE POP POP PUSH1 0x5 DUP2 PUSH1 0x79 PUSH1 0x7F DUP2 GT ISZERO PUSH2 0x238F JUMPI PUSH2 0x238E PUSH2 0xEAFB JUMP JUMPDEST JUMPDEST DUP2 MLOAD DUP2 LT PUSH2 0x23A0 JUMPI PUSH2 0x239F PUSH2 0xF0D7 JUMP JUMPDEST JUMPDEST PUSH1 0x20 MUL PUSH1 0x20 ADD ADD SWAP1 PUSH2 0xFFFF AND SWAP1 DUP2 PUSH2 0xFFFF AND DUP2 MSTORE POP POP PUSH1 0x5 DUP2 PUSH1 0x7A PUSH1 0x7F DUP2 GT ISZERO PUSH2 0x23CD JUMPI PUSH2 0x23CC PUSH2 0xEAFB JUMP JUMPDEST JUMPDEST DUP2 MLOAD DUP2 LT PUSH2 0x23DE JUMPI PUSH2 0x23DD PUSH2 0xF0D7 JUMP JUMPDEST JUMPDEST PUSH1 0x20 MUL PUSH1 0x20 ADD ADD SWAP1 PUSH2 0xFFFF AND SWAP1 DUP2 PUSH2 0xFFFF AND DUP2 MSTORE POP POP PUSH1 0x5 DUP2 PUSH1 0x7B PUSH1 0x7F DUP2 GT ISZERO PUSH2 0x240B JUMPI PUSH2 0x240A PUSH2 0xEAFB JUMP JUMPDEST JUMPDEST DUP2 MLOAD DUP2 LT PUSH2 0x241C JUMPI PUSH2 0x241B PUSH2 0xF0D7 JUMP JUMPDEST JUMPDEST PUSH1 0x20 MUL PUSH1 0x20 ADD ADD SWAP1 PUSH2 0xFFFF AND SWAP1 DUP2 PUSH2 0xFFFF AND DUP2 MSTORE POP POP PUSH1 0x5 DUP2 PUSH1 0x7C PUSH1 0x7F DUP2 GT ISZERO PUSH2 0x2449 JUMPI PUSH2 0x2448 PUSH2 0xEAFB JUMP JUMPDEST JUMPDEST DUP2 MLOAD DUP2 LT PUSH2 0x245A JUMPI PUSH2 0x2459 PUSH2 0xF0D7 JUMP JUMPDEST JUMPDEST PUSH1 0x20 MUL PUSH1 0x20 ADD ADD SWAP1 PUSH2 0xFFFF AND SWAP1 DUP2 PUSH2 0xFFFF AND DUP2 MSTORE POP POP PUSH1 0x5 DUP2 PUSH1 0x7D PUSH1 0x7F DUP2 GT ISZERO PUSH2 0x2487 JUMPI PUSH2 0x2486 PUSH2 0xEAFB JUMP JUMPDEST JUMPDEST DUP2 MLOAD DUP2 LT PUSH2 0x2498 JUMPI PUSH2 0x2497 PUSH2 0xF0D7 JUMP JUMPDEST JUMPDEST PUSH1 0x20 MUL PUSH1 0x20 ADD ADD SWAP1 PUSH2 0xFFFF AND SWAP1 DUP2 PUSH2 0xFFFF AND DUP2 MSTORE POP POP PUSH1 0x5 DUP2 PUSH1 0x7E PUSH1 0x7F DUP2 GT ISZERO PUSH2 0x24C5 JUMPI PUSH2 0x24C4 PUSH2 0xEAFB JUMP JUMPDEST JUMPDEST DUP2 MLOAD DUP2 LT PUSH2 0x24D6 JUMPI PUSH2 0x24D5 PUSH2 0xF0D7 JUMP JUMPDEST JUMPDEST PUSH1 0x20 MUL PUSH1 0x20 ADD ADD SWAP1 PUSH2 0xFFFF AND SWAP1 DUP2 PUSH2 0xFFFF AND DUP2 MSTORE POP POP PUSH1 0x5 DUP2 PUSH1 0x7F DUP1 DUP2 GT ISZERO PUSH2 0x2502 JUMPI PUSH2 0x2501 PUSH2 0xEAFB JUMP JUMPDEST JUMPDEST DUP2 MLOAD DUP2 LT PUSH2 0x2513 JUMPI PUSH2 0x2512 PUSH2 0xF0D7 JUMP JUMPDEST JUMPDEST PUSH1 0x20 MUL PUSH1 0x20 ADD ADD SWAP1 PUSH2 0xFFFF AND SWAP1 DUP2 PUSH2 0xFFFF AND DUP2 MSTORE POP POP PUSH1 0x5 DUP2 PUSH1 0x42 PUSH1 0x7F DUP2 GT ISZERO PUSH2 0x2540 JUMPI PUSH2 0x253F PUSH2 0xEAFB JUMP JUMPDEST JUMPDEST DUP2 MLOAD DUP2 LT PUSH2 0x2551 JUMPI PUSH2 0x2550 PUSH2 0xF0D7 JUMP JUMPDEST JUMPDEST PUSH1 0x20 MUL PUSH1 0x20 ADD ADD SWAP1 PUSH2 0xFFFF AND SWAP1 DUP2 PUSH2 0xFFFF AND DUP2 MSTORE POP POP PUSH1 0x5 DUP2 PUSH1 0x43 PUSH1 0x7F DUP2 GT ISZERO PUSH2 0x257E JUMPI PUSH2 0x257D PUSH2 0xEAFB JUMP JUMPDEST JUMPDEST DUP2 MLOAD DUP2 LT PUSH2 0x258F JUMPI PUSH2 0x258E PUSH2 0xF0D7 JUMP JUMPDEST JUMPDEST PUSH1 0x20 MUL PUSH1 0x20 ADD ADD SWAP1 PUSH2 0xFFFF AND SWAP1 DUP2 PUSH2 0xFFFF AND DUP2 MSTORE POP POP PUSH1 0x5 DUP2 PUSH1 0x44 PUSH1 0x7F DUP2 GT ISZERO PUSH2 0x25BC JUMPI PUSH2 0x25BB PUSH2 0xEAFB JUMP JUMPDEST JUMPDEST DUP2 MLOAD DUP2 LT PUSH2 0x25CD JUMPI PUSH2 0x25CC PUSH2 0xF0D7 JUMP JUMPDEST JUMPDEST PUSH1 0x20 MUL PUSH1 0x20 ADD ADD SWAP1 PUSH2 0xFFFF AND SWAP1 DUP2 PUSH2 0xFFFF AND DUP2 MSTORE POP POP PUSH1 0x5 DUP2 PUSH1 0x45 PUSH1 0x7F DUP2 GT ISZERO PUSH2 0x25FA JUMPI PUSH2 0x25F9 PUSH2 0xEAFB JUMP JUMPDEST JUMPDEST DUP2 MLOAD DUP2 LT PUSH2 0x260B JUMPI PUSH2 0x260A PUSH2 0xF0D7 JUMP JUMPDEST JUMPDEST PUSH1 0x20 MUL PUSH1 0x20 ADD ADD SWAP1 PUSH2 0xFFFF AND SWAP1 DUP2 PUSH2 0xFFFF AND DUP2 MSTORE POP POP PUSH1 0x5 DUP2 PUSH1 0x46 PUSH1 0x7F DUP2 GT ISZERO PUSH2 0x2638 JUMPI PUSH2 0x2637 PUSH2 0xEAFB JUMP JUMPDEST JUMPDEST DUP2 MLOAD DUP2 LT PUSH2 0x2649 JUMPI PUSH2 0x2648 PUSH2 0xF0D7 JUMP JUMPDEST JUMPDEST PUSH1 0x20 MUL PUSH1 0x20 ADD ADD SWAP1 PUSH2 0xFFFF AND SWAP1 DUP2 PUSH2 0xFFFF AND DUP2 MSTORE POP POP PUSH1 0x5 DUP2 PUSH1 0x47 PUSH1 0x7F DUP2 GT ISZERO PUSH2 0x2676 JUMPI PUSH2 0x2675 PUSH2 0xEAFB JUMP JUMPDEST JUMPDEST DUP2 MLOAD DUP2 LT PUSH2 0x2687 JUMPI PUSH2 0x2686 PUSH2 0xF0D7 JUMP JUMPDEST JUMPDEST PUSH1 0x20 MUL PUSH1 0x20 ADD ADD SWAP1 PUSH2 0xFFFF AND SWAP1 DUP2 PUSH2 0xFFFF AND DUP2 MSTORE POP POP PUSH1 0x5 DUP2 PUSH1 0x48 PUSH1 0x7F DUP2 GT ISZERO PUSH2 0x26B4 JUMPI PUSH2 0x26B3 PUSH2 0xEAFB JUMP JUMPDEST JUMPDEST DUP2 MLOAD DUP2 LT PUSH2 0x26C5 JUMPI PUSH2 0x26C4 PUSH2 0xF0D7 JUMP JUMPDEST JUMPDEST PUSH1 0x20 MUL PUSH1 0x20 ADD ADD SWAP1 PUSH2 0xFFFF AND SWAP1 DUP2 PUSH2 0xFFFF AND DUP2 MSTORE POP POP PUSH1 0x5 DUP2 PUSH1 0x49 PUSH1 0x7F DUP2 GT ISZERO PUSH2 0x26F2 JUMPI PUSH2 0x26F1 PUSH2 0xEAFB JUMP JUMPDEST JUMPDEST DUP2 MLOAD DUP2 LT PUSH2 0x2703 JUMPI PUSH2 0x2702 PUSH2 0xF0D7 JUMP JUMPDEST JUMPDEST PUSH1 0x20 MUL PUSH1 0x20 ADD ADD SWAP1 PUSH2 0xFFFF AND SWAP1 DUP2 PUSH2 0xFFFF AND DUP2 MSTORE POP POP PUSH1 0x9 DUP2 PUSH1 0x4D PUSH1 0x7F DUP2 GT ISZERO PUSH2 0x2730 JUMPI PUSH2 0x272F PUSH2 0xEAFB JUMP JUMPDEST JUMPDEST DUP2 MLOAD DUP2 LT PUSH2 0x2741 JUMPI PUSH2 0x2740 PUSH2 0xF0D7 JUMP JUMPDEST JUMPDEST PUSH1 0x20 MUL PUSH1 0x20 ADD ADD SWAP1 PUSH2 0xFFFF AND SWAP1 DUP2 PUSH2 0xFFFF AND DUP2 MSTORE POP POP PUSH1 0x9 DUP2 PUSH1 0x4E PUSH1 0x7F DUP2 GT ISZERO PUSH2 0x276E JUMPI PUSH2 0x276D PUSH2 0xEAFB JUMP JUMPDEST JUMPDEST DUP2 MLOAD DUP2 LT PUSH2 0x277F JUMPI PUSH2 0x277E PUSH2 0xF0D7 JUMP JUMPDEST JUMPDEST PUSH1 0x20 MUL PUSH1 0x20 ADD ADD SWAP1 PUSH2 0xFFFF AND SWAP1 DUP2 PUSH2 0xFFFF AND DUP2 MSTORE POP POP PUSH1 0x9 DUP2 PUSH1 0x4F PUSH1 0x7F DUP2 GT ISZERO PUSH2 0x27AC JUMPI PUSH2 0x27AB PUSH2 0xEAFB JUMP JUMPDEST JUMPDEST DUP2 MLOAD DUP2 LT PUSH2 0x27BD JUMPI PUSH2 0x27BC PUSH2 0xF0D7 JUMP JUMPDEST JUMPDEST PUSH1 0x20 MUL PUSH1 0x20 ADD ADD SWAP1 PUSH2 0xFFFF AND SWAP1 DUP2 PUSH2 0xFFFF AND DUP2 MSTORE POP POP PUSH1 0x9 DUP2 PUSH1 0x50 PUSH1 0x7F DUP2 GT ISZERO PUSH2 0x27EA JUMPI PUSH2 0x27E9 PUSH2 0xEAFB JUMP JUMPDEST JUMPDEST DUP2 MLOAD DUP2 LT PUSH2 0x27FB JUMPI PUSH2 0x27FA PUSH2 0xF0D7 JUMP JUMPDEST JUMPDEST PUSH1 0x20 MUL PUSH1 0x20 ADD ADD SWAP1 PUSH2 0xFFFF AND SWAP1 DUP2 PUSH2 0xFFFF AND DUP2 MSTORE POP POP PUSH1 0x3 DUP2 PUSH1 0x56 PUSH1 0x7F DUP2 GT ISZERO PUSH2 0x2828 JUMPI PUSH2 0x2827 PUSH2 0xEAFB JUMP JUMPDEST JUMPDEST DUP2 MLOAD DUP2 LT PUSH2 0x2839 JUMPI PUSH2 0x2838 PUSH2 0xF0D7 JUMP JUMPDEST JUMPDEST PUSH1 0x20 MUL PUSH1 0x20 ADD ADD SWAP1 PUSH2 0xFFFF AND SWAP1 DUP2 PUSH2 0xFFFF AND DUP2 MSTORE POP POP PUSH1 0x3 DUP2 PUSH1 0x57 PUSH1 0x7F DUP2 GT ISZERO PUSH2 0x2866 JUMPI PUSH2 0x2865 PUSH2 0xEAFB JUMP JUMPDEST JUMPDEST DUP2 MLOAD DUP2 LT PUSH2 0x2877 JUMPI PUSH2 0x2876 PUSH2 0xF0D7 JUMP JUMPDEST JUMPDEST PUSH1 0x20 MUL PUSH1 0x20 ADD ADD SWAP1 PUSH2 0xFFFF AND SWAP1 DUP2 PUSH2 0xFFFF AND DUP2 MSTORE POP POP PUSH1 0x3 DUP2 PUSH1 0x58 PUSH1 0x7F DUP2 GT ISZERO PUSH2 0x28A4 JUMPI PUSH2 0x28A3 PUSH2 0xEAFB JUMP JUMPDEST JUMPDEST DUP2 MLOAD DUP2 LT PUSH2 0x28B5 JUMPI PUSH2 0x28B4 PUSH2 0xF0D7 JUMP JUMPDEST JUMPDEST PUSH1 0x20 MUL PUSH1 0x20 ADD ADD SWAP1 PUSH2 0xFFFF AND SWAP1 DUP2 PUSH2 0xFFFF AND DUP2 MSTORE POP POP PUSH1 0x3 DUP2 PUSH1 0x59 PUSH1 0x7F DUP2 GT ISZERO PUSH2 0x28E2 JUMPI PUSH2 0x28E1 PUSH2 0xEAFB JUMP JUMPDEST JUMPDEST DUP2 MLOAD DUP2 LT PUSH2 0x28F3 JUMPI PUSH2 0x28F2 PUSH2 0xF0D7 JUMP JUMPDEST JUMPDEST PUSH1 0x20 MUL PUSH1 0x20 ADD ADD SWAP1 PUSH2 0xFFFF AND SWAP1 DUP2 PUSH2 0xFFFF AND DUP2 MSTORE POP POP PUSH1 0x3 DUP2 PUSH1 0x5A PUSH1 0x7F DUP2 GT ISZERO PUSH2 0x2920 JUMPI PUSH2 0x291F PUSH2 0xEAFB JUMP JUMPDEST JUMPDEST DUP2 MLOAD DUP2 LT PUSH2 0x2931 JUMPI PUSH2 0x2930 PUSH2 0xF0D7 JUMP JUMPDEST JUMPDEST PUSH1 0x20 MUL PUSH1 0x20 ADD ADD SWAP1 PUSH2 0xFFFF AND SWAP1 DUP2 PUSH2 0xFFFF AND DUP2 MSTORE POP POP PUSH1 0x3 DUP2 PUSH1 0x5B PUSH1 0x7F DUP2 GT ISZERO PUSH2 0x295E JUMPI PUSH2 0x295D PUSH2 0xEAFB JUMP JUMPDEST JUMPDEST DUP2 MLOAD DUP2 LT PUSH2 0x296F JUMPI PUSH2 0x296E PUSH2 0xF0D7 JUMP JUMPDEST JUMPDEST PUSH1 0x20 MUL PUSH1 0x20 ADD ADD SWAP1 PUSH2 0xFFFF AND SWAP1 DUP2 PUSH2 0xFFFF AND DUP2 MSTORE POP POP PUSH1 0x3 DUP2 PUSH1 0x5C PUSH1 0x7F DUP2 GT ISZERO PUSH2 0x299C JUMPI PUSH2 0x299B PUSH2 0xEAFB JUMP JUMPDEST JUMPDEST DUP2 MLOAD DUP2 LT PUSH2 0x29AD JUMPI PUSH2 0x29AC PUSH2 0xF0D7 JUMP JUMPDEST JUMPDEST PUSH1 0x20 MUL PUSH1 0x20 ADD ADD SWAP1 PUSH2 0xFFFF AND SWAP1 DUP2 PUSH2 0xFFFF AND DUP2 MSTORE POP POP PUSH1 0x3 DUP2 PUSH1 0x5D PUSH1 0x7F DUP2 GT ISZERO PUSH2 0x29DA JUMPI PUSH2 0x29D9 PUSH2 0xEAFB JUMP JUMPDEST JUMPDEST DUP2 MLOAD DUP2 LT PUSH2 0x29EB JUMPI PUSH2 0x29EA PUSH2 0xF0D7 JUMP JUMPDEST JUMPDEST PUSH1 0x20 MUL PUSH1 0x20 ADD ADD SWAP1 PUSH2 0xFFFF AND SWAP1 DUP2 PUSH2 0xFFFF AND DUP2 MSTORE POP POP PUSH1 0x3 DUP2 PUSH1 0x55 PUSH1 0x7F DUP2 GT ISZERO PUSH2 0x2A18 JUMPI PUSH2 0x2A17 PUSH2 0xEAFB JUMP JUMPDEST JUMPDEST DUP2 MLOAD DUP2 LT PUSH2 0x2A29 JUMPI PUSH2 0x2A28 PUSH2 0xF0D7 JUMP JUMPDEST JUMPDEST PUSH1 0x20 MUL PUSH1 0x20 ADD ADD SWAP1 PUSH2 0xFFFF AND SWAP1 DUP2 PUSH2 0xFFFF AND DUP2 MSTORE POP POP PUSH1 0x17 DUP2 PUSH1 0x2C PUSH1 0x7F DUP2 GT ISZERO PUSH2 0x2A56 JUMPI PUSH2 0x2A55 PUSH2 0xEAFB JUMP JUMPDEST JUMPDEST DUP2 MLOAD DUP2 LT PUSH2 0x2A67 JUMPI PUSH2 0x2A66 PUSH2 0xF0D7 JUMP JUMPDEST JUMPDEST PUSH1 0x20 MUL PUSH1 0x20 ADD ADD SWAP1 PUSH2 0xFFFF AND SWAP1 DUP2 PUSH2 0xFFFF AND DUP2 MSTORE POP POP PUSH1 0x4 DUP2 PUSH1 0x3F PUSH1 0x7F DUP2 GT ISZERO PUSH2 0x2A94 JUMPI PUSH2 0x2A93 PUSH2 0xEAFB JUMP JUMPDEST JUMPDEST DUP2 MLOAD DUP2 LT PUSH2 0x2AA5 JUMPI PUSH2 0x2AA4 PUSH2 0xF0D7 JUMP JUMPDEST JUMPDEST PUSH1 0x20 MUL PUSH1 0x20 ADD ADD SWAP1 PUSH2 0xFFFF AND SWAP1 DUP2 PUSH2 0xFFFF AND DUP2 MSTORE POP POP PUSH1 0x3 DUP2 PUSH1 0x40 PUSH1 0x7F DUP2 GT ISZERO PUSH2 0x2AD2 JUMPI PUSH2 0x2AD1 PUSH2 0xEAFB JUMP JUMPDEST JUMPDEST DUP2 MLOAD DUP2 LT PUSH2 0x2AE3 JUMPI PUSH2 0x2AE2 PUSH2 0xF0D7 JUMP JUMPDEST JUMPDEST PUSH1 0x20 MUL PUSH1 0x20 ADD ADD SWAP1 PUSH2 0xFFFF AND SWAP1 DUP2 PUSH2 0xFFFF AND DUP2 MSTORE POP POP PUSH1 0x3 DUP2 PUSH1 0x41 PUSH1 0x7F DUP2 GT ISZERO PUSH2 0x2B10 JUMPI PUSH2 0x2B0F PUSH2 0xEAFB JUMP JUMPDEST JUMPDEST DUP2 MLOAD DUP2 LT PUSH2 0x2B21 JUMPI PUSH2 0x2B20 PUSH2 0xF0D7 JUMP JUMPDEST JUMPDEST PUSH1 0x20 MUL PUSH1 0x20 ADD ADD SWAP1 PUSH2 0xFFFF AND SWAP1 DUP2 PUSH2 0xFFFF AND DUP2 MSTORE POP POP PUSH0 PUSH2 0x2B42 DUP5 DUP4 PUSH2 0xE0C9 JUMP JUMPDEST SWAP1 POP DUP1 PUSH1 0x7F DUP2 GT ISZERO PUSH2 0x2B57 JUMPI PUSH2 0x2B56 PUSH2 0xEAFB JUMP JUMPDEST JUMPDEST SWAP3 POP POP POP SWAP2 SWAP1 POP JUMP JUMPDEST PUSH0 PUSH0 PUSH1 0xD4 PUSH8 0xFFFFFFFFFFFFFFFF DUP2 GT ISZERO PUSH2 0x2B7D JUMPI PUSH2 0x2B7C PUSH2 0xE9D4 JUMP JUMPDEST JUMPDEST PUSH1 0x40 MLOAD SWAP1 DUP1 DUP3 MSTORE DUP1 PUSH1 0x20 MUL PUSH1 0x20 ADD DUP3 ADD PUSH1 0x40 MSTORE DUP1 ISZERO PUSH2 0x2BAB JUMPI DUP2 PUSH1 0x20 ADD PUSH1 0x20 DUP3 MUL DUP1 CALLDATASIZE DUP4 CALLDATACOPY DUP1 DUP3 ADD SWAP2 POP POP SWAP1 POP JUMPDEST POP SWAP1 POP PUSH2 0x2BC0 DUP5 PUSH2 0x2BBB SWAP1 PUSH2 0xFA46 JUMP JUMPDEST PUSH2 0xE16C JUMP JUMPDEST DUP1 PUSH2 0x2BD9 JUMPI POP PUSH2 0x2BD8 DUP5 PUSH2 0x2BD3 SWAP1 PUSH2 0xFA46 JUMP JUMPDEST PUSH2 0xE1E4 JUMP JUMPDEST JUMPDEST ISZERO PUSH2 0x2C21 JUMPI PUSH2 0x190 DUP2 PUSH0 PUSH1 0xD3 DUP2 GT ISZERO PUSH2 0x2BF5 JUMPI PUSH2 0x2BF4 PUSH2 0xEAFB JUMP JUMPDEST JUMPDEST DUP2 MLOAD DUP2 LT PUSH2 0x2C06 JUMPI PUSH2 0x2C05 PUSH2 0xF0D7 JUMP JUMPDEST JUMPDEST PUSH1 0x20 MUL PUSH1 0x20 ADD ADD SWAP1 PUSH2 0xFFFF AND SWAP1 DUP2 PUSH2 0xFFFF AND DUP2 MSTORE POP POP PUSH2 0x2CB2 JUMP JUMPDEST PUSH2 0x2C33 DUP5 PUSH2 0x2C2E SWAP1 PUSH2 0xFA46 JUMP JUMPDEST PUSH2 0xE219 JUMP JUMPDEST DUP1 PUSH2 0x2C4C JUMPI POP PUSH2 0x2C4B DUP5 PUSH2 0x2C46 SWAP1 PUSH2 0xFA46 JUMP JUMPDEST PUSH2 0xE24E JUMP JUMPDEST JUMPDEST DUP1 PUSH2 0x2C65 JUMPI POP PUSH2 0x2C64 DUP5 PUSH2 0x2C5F SWAP1 PUSH2 0xFA46 JUMP JUMPDEST PUSH2 0xE283 JUMP JUMPDEST JUMPDEST ISZERO PUSH2 0x2C73 JUMPI PUSH0 SWAP2 POP POP PUSH2 0x5FF2 JUMP JUMPDEST PUSH2 0x4B0 DUP2 PUSH0 PUSH1 0xD3 DUP2 GT ISZERO PUSH2 0x2C8A JUMPI PUSH2 0x2C89 PUSH2 0xEAFB JUMP JUMPDEST JUMPDEST DUP2 MLOAD DUP2 LT PUSH2 0x2C9B JUMPI PUSH2 0x2C9A PUSH2 0xF0D7 JUMP JUMPDEST JUMPDEST PUSH1 0x20 MUL PUSH1 0x20 ADD ADD SWAP1 PUSH2 0xFFFF AND SWAP1 DUP2 PUSH2 0xFFFF AND DUP2 MSTORE POP POP JUMPDEST PUSH1 0xC8 DUP2 PUSH1 0x1 PUSH1 0xD3 DUP2 GT ISZERO PUSH2 0x2CC9 JUMPI PUSH2 0x2CC8 PUSH2 0xEAFB JUMP JUMPDEST JUMPDEST DUP2 MLOAD DUP2 LT PUSH2 0x2CDA JUMPI PUSH2 0x2CD9 PUSH2 0xF0D7 JUMP JUMPDEST JUMPDEST PUSH1 0x20 MUL PUSH1 0x20 ADD ADD SWAP1 PUSH2 0xFFFF AND SWAP1 DUP2 PUSH2 0xFFFF AND DUP2 MSTORE POP POP PUSH1 0xB4 DUP2 PUSH1 0x4 PUSH1 0xD3 DUP2 GT ISZERO PUSH2 0x2D07 JUMPI PUSH2 0x2D06 PUSH2 0xEAFB JUMP JUMPDEST JUMPDEST DUP2 MLOAD DUP2 LT PUSH2 0x2D18 JUMPI PUSH2 0x2D17 PUSH2 0xF0D7 JUMP JUMPDEST JUMPDEST PUSH1 0x20 MUL PUSH1 0x20 ADD ADD SWAP1 PUSH2 0xFFFF AND SWAP1 DUP2 PUSH2 0xFFFF AND DUP2 MSTORE POP POP PUSH1 0x78 DUP2 PUSH1 0x2 PUSH1 0xD3 DUP2 GT ISZERO PUSH2 0x2D45 JUMPI PUSH2 0x2D44 PUSH2 0xEAFB JUMP JUMPDEST JUMPDEST DUP2 MLOAD DUP2 LT PUSH2 0x2D56 JUMPI PUSH2 0x2D55 PUSH2 0xF0D7 JUMP JUMPDEST JUMPDEST PUSH1 0x20 MUL PUSH1 0x20 ADD ADD SWAP1 PUSH2 0xFFFF AND SWAP1 DUP2 PUSH2 0xFFFF AND DUP2 MSTORE POP POP PUSH1 0x64 DUP2 PUSH1 0x5 PUSH1 0xD3 DUP2 GT ISZERO PUSH2 0x2D83 JUMPI PUSH2 0x2D82 PUSH2 0xEAFB JUMP JUMPDEST JUMPDEST DUP2 MLOAD DUP2 LT PUSH2 0x2D94 JUMPI PUSH2 0x2D93 PUSH2 0xF0D7 JUMP JUMPDEST JUMPDEST PUSH1 0x20 MUL PUSH1 0x20 ADD ADD SWAP1 PUSH2 0xFFFF AND SWAP1 DUP2 PUSH2 0xFFFF AND DUP2 MSTORE POP POP PUSH1 0x19 DUP2 PUSH1 0x3 PUSH1 0xD3 DUP2 GT ISZERO PUSH2 0x2DC1 JUMPI PUSH2 0x2DC0 PUSH2 0xEAFB JUMP JUMPDEST JUMPDEST DUP2 MLOAD DUP2 LT PUSH2 0x2DD2 JUMPI PUSH2 0x2DD1 PUSH2 0xF0D7 JUMP JUMPDEST JUMPDEST PUSH1 0x20 MUL PUSH1 0x20 ADD ADD SWAP1 PUSH2 0xFFFF AND SWAP1 DUP2 PUSH2 0xFFFF AND DUP2 MSTORE POP POP PUSH1 0x19 DUP2 PUSH1 0x6 PUSH1 0xD3 DUP2 GT ISZERO PUSH2 0x2DFF JUMPI PUSH2 0x2DFE PUSH2 0xEAFB JUMP JUMPDEST JUMPDEST DUP2 MLOAD DUP2 LT PUSH2 0x2E10 JUMPI PUSH2 0x2E0F PUSH2 0xF0D7 JUMP JUMPDEST JUMPDEST PUSH1 0x20 MUL PUSH1 0x20 ADD ADD SWAP1 PUSH2 0xFFFF AND SWAP1 DUP2 PUSH2 0xFFFF AND DUP2 MSTORE POP POP PUSH1 0x19 DUP2 PUSH1 0x7 PUSH1 0xD3 DUP2 GT ISZERO PUSH2 0x2E3D JUMPI PUSH2 0x2E3C PUSH2 0xEAFB JUMP JUMPDEST JUMPDEST DUP2 MLOAD DUP2 LT PUSH2 0x2E4E JUMPI PUSH2 0x2E4D PUSH2 0xF0D7 JUMP JUMPDEST JUMPDEST PUSH1 0x20 MUL PUSH1 0x20 ADD ADD SWAP1 PUSH2 0xFFFF AND SWAP1 DUP2 PUSH2 0xFFFF AND DUP2 MSTORE POP POP PUSH1 0x19 DUP2 PUSH1 0x8 PUSH1 0xD3 DUP2 GT ISZERO PUSH2 0x2E7B JUMPI PUSH2 0x2E7A PUSH2 0xEAFB JUMP JUMPDEST JUMPDEST DUP2 MLOAD DUP2 LT PUSH2 0x2E8C JUMPI PUSH2 0x2E8B PUSH2 0xF0D7 JUMP JUMPDEST JUMPDEST PUSH1 0x20 MUL PUSH1 0x20 ADD ADD SWAP1 PUSH2 0xFFFF AND SWAP1 DUP2 PUSH2 0xFFFF AND DUP2 MSTORE POP POP PUSH1 0x19 DUP2 PUSH1 0x9 PUSH1 0xD3 DUP2 GT ISZERO PUSH2 0x2EB9 JUMPI PUSH2 0x2EB8 PUSH2 0xEAFB JUMP JUMPDEST JUMPDEST DUP2 MLOAD DUP2 LT PUSH2 0x2ECA JUMPI PUSH2 0x2EC9 PUSH2 0xF0D7 JUMP JUMPDEST JUMPDEST PUSH1 0x20 MUL PUSH1 0x20 ADD ADD SWAP1 PUSH2 0xFFFF AND SWAP1 DUP2 PUSH2 0xFFFF AND DUP2 MSTORE POP POP PUSH1 0x19 DUP2 PUSH1 0xA PUSH1 0xD3 DUP2 GT ISZERO PUSH2 0x2EF7 JUMPI PUSH2 0x2EF6 PUSH2 0xEAFB JUMP JUMPDEST JUMPDEST DUP2 MLOAD DUP2 LT PUSH2 0x2F08 JUMPI PUSH2 0x2F07 PUSH2 0xF0D7 JUMP JUMPDEST JUMPDEST PUSH1 0x20 MUL PUSH1 0x20 ADD ADD SWAP1 PUSH2 0xFFFF AND SWAP1 DUP2 PUSH2 0xFFFF AND DUP2 MSTORE POP POP PUSH1 0x19 DUP2 PUSH1 0xB PUSH1 0xD3 DUP2 GT ISZERO PUSH2 0x2F35 JUMPI PUSH2 0x2F34 PUSH2 0xEAFB JUMP JUMPDEST JUMPDEST DUP2 MLOAD DUP2 LT PUSH2 0x2F46 JUMPI PUSH2 0x2F45 PUSH2 0xF0D7 JUMP JUMPDEST JUMPDEST PUSH1 0x20 MUL PUSH1 0x20 ADD ADD SWAP1 PUSH2 0xFFFF AND SWAP1 DUP2 PUSH2 0xFFFF AND DUP2 MSTORE POP POP PUSH1 0x19 DUP2 PUSH1 0xC PUSH1 0xD3 DUP2 GT ISZERO PUSH2 0x2F73 JUMPI PUSH2 0x2F72 PUSH2 0xEAFB JUMP JUMPDEST JUMPDEST DUP2 MLOAD DUP2 LT PUSH2 0x2F84 JUMPI PUSH2 0x2F83 PUSH2 0xF0D7 JUMP JUMPDEST JUMPDEST PUSH1 0x20 MUL PUSH1 0x20 ADD ADD SWAP1 PUSH2 0xFFFF AND SWAP1 DUP2 PUSH2 0xFFFF AND DUP2 MSTORE POP POP PUSH1 0xE1 DUP2 PUSH1 0xD PUSH1 0xD3 DUP2 GT ISZERO PUSH2 0x2FB1 JUMPI PUSH2 0x2FB0 PUSH2 0xEAFB JUMP JUMPDEST JUMPDEST DUP2 MLOAD DUP2 LT PUSH2 0x2FC2 JUMPI PUSH2 0x2FC1 PUSH2 0xF0D7 JUMP JUMPDEST JUMPDEST PUSH1 0x20 MUL PUSH1 0x20 ADD ADD SWAP1 PUSH2 0xFFFF AND SWAP1 DUP2 PUSH2 0xFFFF AND DUP2 MSTORE POP POP PUSH1 0xC8 DUP2 PUSH1 0xF PUSH1 0xD3 DUP2 GT ISZERO PUSH2 0x2FEF JUMPI PUSH2 0x2FEE PUSH2 0xEAFB JUMP JUMPDEST JUMPDEST DUP2 MLOAD DUP2 LT PUSH2 0x3000 JUMPI PUSH2 0x2FFF PUSH2 0xF0D7 JUMP JUMPDEST JUMPDEST PUSH1 0x20 MUL PUSH1 0x20 ADD ADD SWAP1 PUSH2 0xFFFF AND SWAP1 DUP2 PUSH2 0xFFFF AND DUP2 MSTORE POP POP PUSH1 0x8C DUP2 PUSH1 0xE PUSH1 0xD3 DUP2 GT ISZERO PUSH2 0x302D JUMPI PUSH2 0x302C PUSH2 0xEAFB JUMP JUMPDEST JUMPDEST DUP2 MLOAD DUP2 LT PUSH2 0x303E JUMPI PUSH2 0x303D PUSH2 0xF0D7 JUMP JUMPDEST JUMPDEST PUSH1 0x20 MUL PUSH1 0x20 ADD ADD SWAP1 PUSH2 0xFFFF AND SWAP1 DUP2 PUSH2 0xFFFF AND DUP2 MSTORE POP POP PUSH1 0x64 DUP2 PUSH1 0x10 PUSH1 0xD3 DUP2 GT ISZERO PUSH2 0x306B JUMPI PUSH2 0x306A PUSH2 0xEAFB JUMP JUMPDEST JUMPDEST DUP2 MLOAD DUP2 LT PUSH2 0x307C JUMPI PUSH2 0x307B PUSH2 0xF0D7 JUMP JUMPDEST JUMPDEST PUSH1 0x20 MUL PUSH1 0x20 ADD ADD SWAP1 PUSH2 0xFFFF AND SWAP1 DUP2 PUSH2 0xFFFF AND DUP2 MSTORE POP POP PUSH1 0x55 DUP2 PUSH1 0x11 PUSH1 0xD3 DUP2 GT ISZERO PUSH2 0x30A9 JUMPI PUSH2 0x30A8 PUSH2 0xEAFB JUMP JUMPDEST JUMPDEST DUP2 MLOAD DUP2 LT PUSH2 0x30BA JUMPI PUSH2 0x30B9 PUSH2 0xF0D7 JUMP JUMPDEST JUMPDEST PUSH1 0x20 MUL PUSH1 0x20 ADD ADD SWAP1 PUSH2 0xFFFF AND SWAP1 DUP2 PUSH2 0xFFFF AND DUP2 MSTORE POP POP PUSH1 0xFA DUP2 PUSH1 0x12 PUSH1 0xD3 DUP2 GT ISZERO PUSH2 0x30E7 JUMPI PUSH2 0x30E6 PUSH2 0xEAFB JUMP JUMPDEST JUMPDEST DUP2 MLOAD DUP2 LT PUSH2 0x30F8 JUMPI PUSH2 0x30F7 PUSH2 0xF0D7 JUMP JUMPDEST JUMPDEST PUSH1 0x20 MUL PUSH1 0x20 ADD ADD SWAP1 PUSH2 0xFFFF AND SWAP1 DUP2 PUSH2 0xFFFF AND DUP2 MSTORE POP POP PUSH1 0xE1 DUP2 PUSH1 0x16 PUSH1 0xD3 DUP2 GT ISZERO PUSH2 0x3125 JUMPI PUSH2 0x3124 PUSH2 0xEAFB JUMP JUMPDEST JUMPDEST DUP2 MLOAD DUP2 LT PUSH2 0x3136 JUMPI PUSH2 0x3135 PUSH2 0xF0D7 JUMP JUMPDEST JUMPDEST PUSH1 0x20 MUL PUSH1 0x20 ADD ADD SWAP1 PUSH2 0xFFFF AND SWAP1 DUP2 PUSH2 0xFFFF AND DUP2 MSTORE POP POP PUSH1 0xC8 DUP2 PUSH1 0x13 PUSH1 0xD3 DUP2 GT ISZERO PUSH2 0x3163 JUMPI PUSH2 0x3162 PUSH2 0xEAFB JUMP JUMPDEST JUMPDEST DUP2 MLOAD DUP2 LT PUSH2 0x3174 JUMPI PUSH2 0x3173 PUSH2 0xF0D7 JUMP JUMPDEST JUMPDEST PUSH1 0x20 MUL PUSH1 0x20 ADD ADD SWAP1 PUSH2 0xFFFF AND SWAP1 DUP2 PUSH2 0xFFFF AND DUP2 MSTORE POP POP PUSH1 0xB9 DUP2 PUSH1 0x15 PUSH1 0xD3 DUP2 GT ISZERO PUSH2 0x31A1 JUMPI PUSH2 0x31A0 PUSH2 0xEAFB JUMP JUMPDEST JUMPDEST DUP2 MLOAD DUP2 LT PUSH2 0x31B2 JUMPI PUSH2 0x31B1 PUSH2 0xF0D7 JUMP JUMPDEST JUMPDEST PUSH1 0x20 MUL PUSH1 0x20 ADD ADD SWAP1 PUSH2 0xFFFF AND SWAP1 DUP2 PUSH2 0xFFFF AND DUP2 MSTORE POP POP PUSH1 0xAF DUP2 PUSH1 0x14 PUSH1 0xD3 DUP2 GT ISZERO PUSH2 0x31DF JUMPI PUSH2 0x31DE PUSH2 0xEAFB JUMP JUMPDEST JUMPDEST DUP2 MLOAD DUP2 LT PUSH2 0x31F0 JUMPI PUSH2 0x31EF PUSH2 0xF0D7 JUMP JUMPDEST JUMPDEST PUSH1 0x20 MUL PUSH1 0x20 ADD ADD SWAP1 PUSH2 0xFFFF AND SWAP1 DUP2 PUSH2 0xFFFF AND DUP2 MSTORE POP POP PUSH1 0xA5 DUP2 PUSH1 0x17 PUSH1 0xD3 DUP2 GT ISZERO PUSH2 0x321D JUMPI PUSH2 0x321C PUSH2 0xEAFB JUMP JUMPDEST JUMPDEST DUP2 MLOAD DUP2 LT PUSH2 0x322E JUMPI PUSH2 0x322D PUSH2 0xF0D7 JUMP JUMPDEST JUMPDEST PUSH1 0x20 MUL PUSH1 0x20 ADD ADD SWAP1 PUSH2 0xFFFF AND SWAP1 DUP2 PUSH2 0xFFFF AND DUP2 MSTORE POP POP PUSH1 0x7 DUP2 PUSH1 0x18 PUSH1 0xD3 DUP2 GT ISZERO PUSH2 0x325B JUMPI PUSH2 0x325A PUSH2 0xEAFB JUMP JUMPDEST JUMPDEST DUP2 MLOAD DUP2 LT PUSH2 0x326C JUMPI PUSH2 0x326B PUSH2 0xF0D7 JUMP JUMPDEST JUMPDEST PUSH1 0x20 MUL PUSH1 0x20 ADD ADD SWAP1 PUSH2 0xFFFF AND SWAP1 DUP2 PUSH2 0xFFFF AND DUP2 MSTORE POP POP PUSH1 0x7 DUP2 PUSH1 0x19 PUSH1 0xD3 DUP2 GT ISZERO PUSH2 0x3299 JUMPI PUSH2 0x3298 PUSH2 0xEAFB JUMP JUMPDEST JUMPDEST DUP2 MLOAD DUP2 LT PUSH2 0x32AA JUMPI PUSH2 0x32A9 PUSH2 0xF0D7 JUMP JUMPDEST JUMPDEST PUSH1 0x20 MUL PUSH1 0x20 ADD ADD SWAP1 PUSH2 0xFFFF AND SWAP1 DUP2 PUSH2 0xFFFF AND DUP2 MSTORE POP POP PUSH1 0x7 DUP2 PUSH1 0x1A PUSH1 0xD3 DUP2 GT ISZERO PUSH2 0x32D7 JUMPI PUSH2 0x32D6 PUSH2 0xEAFB JUMP JUMPDEST JUMPDEST DUP2 MLOAD DUP2 LT PUSH2 0x32E8 JUMPI PUSH2 0x32E7 PUSH2 0xF0D7 JUMP JUMPDEST JUMPDEST PUSH1 0x20 MUL PUSH1 0x20 ADD ADD SWAP1 PUSH2 0xFFFF AND SWAP1 DUP2 PUSH2 0xFFFF AND DUP2 MSTORE POP POP PUSH1 0x7 DUP2 PUSH1 0x1B PUSH1 0xD3 DUP2 GT ISZERO PUSH2 0x3315 JUMPI PUSH2 0x3314 PUSH2 0xEAFB JUMP JUMPDEST JUMPDEST DUP2 MLOAD DUP2 LT PUSH2 0x3326 JUMPI PUSH2 0x3325 PUSH2 0xF0D7 JUMP JUMPDEST JUMPDEST PUSH1 0x20 MUL PUSH1 0x20 ADD ADD SWAP1 PUSH2 0xFFFF AND SWAP1 DUP2 PUSH2 0xFFFF AND DUP2 MSTORE POP POP PUSH1 0x7 DUP2 PUSH1 0x1C PUSH1 0xD3 DUP2 GT ISZERO PUSH2 0x3353 JUMPI PUSH2 0x3352 PUSH2 0xEAFB JUMP JUMPDEST JUMPDEST DUP2 MLOAD DUP2 LT PUSH2 0x3364 JUMPI PUSH2 0x3363 PUSH2 0xF0D7 JUMP JUMPDEST JUMPDEST PUSH1 0x20 MUL PUSH1 0x20 ADD ADD SWAP1 PUSH2 0xFFFF AND SWAP1 DUP2 PUSH2 0xFFFF AND DUP2 MSTORE POP POP PUSH1 0x7 DUP2 PUSH1 0x1D PUSH1 0xD3 DUP2 GT ISZERO PUSH2 0x3391 JUMPI PUSH2 0x3390 PUSH2 0xEAFB JUMP JUMPDEST JUMPDEST DUP2 MLOAD DUP2 LT PUSH2 0x33A2 JUMPI PUSH2 0x33A1 PUSH2 0xF0D7 JUMP JUMPDEST JUMPDEST PUSH1 0x20 MUL PUSH1 0x20 ADD ADD SWAP1 PUSH2 0xFFFF AND SWAP1 DUP2 PUSH2 0xFFFF AND DUP2 MSTORE POP POP PUSH1 0x7 DUP2 PUSH1 0x1E PUSH1 0xD3 DUP2 GT ISZERO PUSH2 0x33CF JUMPI PUSH2 0x33CE PUSH2 0xEAFB JUMP JUMPDEST JUMPDEST DUP2 MLOAD DUP2 LT PUSH2 0x33E0 JUMPI PUSH2 0x33DF PUSH2 0xF0D7 JUMP JUMPDEST JUMPDEST PUSH1 0x20 MUL PUSH1 0x20 ADD ADD SWAP1 PUSH2 0xFFFF AND SWAP1 DUP2 PUSH2 0xFFFF AND DUP2 MSTORE POP POP PUSH1 0x12 DUP2 PUSH1 0x1F PUSH1 0xD3 DUP2 GT ISZERO PUSH2 0x340D JUMPI PUSH2 0x340C PUSH2 0xEAFB JUMP JUMPDEST JUMPDEST DUP2 MLOAD DUP2 LT PUSH2 0x341E JUMPI PUSH2 0x341D PUSH2 0xF0D7 JUMP JUMPDEST JUMPDEST PUSH1 0x20 MUL PUSH1 0x20 ADD ADD SWAP1 PUSH2 0xFFFF AND SWAP1 DUP2 PUSH2 0xFFFF AND DUP2 MSTORE POP POP PUSH1 0xE DUP2 PUSH1 0x20 PUSH1 0xD3 DUP2 GT ISZERO PUSH2 0x344B JUMPI PUSH2 0x344A PUSH2 0xEAFB JUMP JUMPDEST JUMPDEST DUP2 MLOAD DUP2 LT PUSH2 0x345C JUMPI PUSH2 0x345B PUSH2 0xF0D7 JUMP JUMPDEST JUMPDEST PUSH1 0x20 MUL PUSH1 0x20 ADD ADD SWAP1 PUSH2 0xFFFF AND SWAP1 DUP2 PUSH2 0xFFFF AND DUP2 MSTORE POP POP PUSH1 0xA DUP2 PUSH1 0x22 PUSH1 0xD3 DUP2 GT ISZERO PUSH2 0x3489 JUMPI PUSH2 0x3488 PUSH2 0xEAFB JUMP JUMPDEST JUMPDEST DUP2 MLOAD DUP2 LT PUSH2 0x349A JUMPI PUSH2 0x3499 PUSH2 0xF0D7 JUMP JUMPDEST JUMPDEST PUSH1 0x20 MUL PUSH1 0x20 ADD ADD SWAP1 PUSH2 0xFFFF AND SWAP1 DUP2 PUSH2 0xFFFF AND DUP2 MSTORE POP POP PUSH1 0x7 DUP2 PUSH1 0x23 PUSH1 0xD3 DUP2 GT ISZERO PUSH2 0x34C7 JUMPI PUSH2 0x34C6 PUSH2 0xEAFB JUMP JUMPDEST JUMPDEST DUP2 MLOAD DUP2 LT PUSH2 0x34D8 JUMPI PUSH2 0x34D7 PUSH2 0xF0D7 JUMP JUMPDEST JUMPDEST PUSH1 0x20 MUL PUSH1 0x20 ADD ADD SWAP1 PUSH2 0xFFFF AND SWAP1 DUP2 PUSH2 0xFFFF AND DUP2 MSTORE POP POP PUSH1 0x2 DUP2 PUSH1 0x21 PUSH1 0xD3 DUP2 GT ISZERO PUSH2 0x3505 JUMPI PUSH2 0x3504 PUSH2 0xEAFB JUMP JUMPDEST JUMPDEST DUP2 MLOAD DUP2 LT PUSH2 0x3516 JUMPI PUSH2 0x3515 PUSH2 0xF0D7 JUMP JUMPDEST JUMPDEST PUSH1 0x20 MUL PUSH1 0x20 ADD ADD SWAP1 PUSH2 0xFFFF AND SWAP1 DUP2 PUSH2 0xFFFF AND DUP2 MSTORE POP POP PUSH1 0x2 DUP2 PUSH1 0x24 PUSH1 0xD3 DUP2 GT ISZERO PUSH2 0x3543 JUMPI PUSH2 0x3542 PUSH2 0xEAFB JUMP JUMPDEST JUMPDEST DUP2 MLOAD DUP2 LT PUSH2 0x3554 JUMPI PUSH2 0x3553 PUSH2 0xF0D7 JUMP JUMPDEST JUMPDEST PUSH1 0x20 MUL PUSH1 0x20 ADD ADD SWAP1 PUSH2 0xFFFF AND SWAP1 DUP2 PUSH2 0xFFFF AND DUP2 MSTORE POP POP PUSH1 0x2 DUP2 PUSH1 0x25 PUSH1 0xD3 DUP2 GT ISZERO PUSH2 0x3581 JUMPI PUSH2 0x3580 PUSH2 0xEAFB JUMP JUMPDEST JUMPDEST DUP2 MLOAD DUP2 LT PUSH2 0x3592 JUMPI PUSH2 0x3591 PUSH2 0xF0D7 JUMP JUMPDEST JUMPDEST PUSH1 0x20 MUL PUSH1 0x20 ADD ADD SWAP1 PUSH2 0xFFFF AND SWAP1 DUP2 PUSH2 0xFFFF AND DUP2 MSTORE POP POP PUSH1 0x2 DUP2 PUSH1 0x26 PUSH1 0xD3 DUP2 GT ISZERO PUSH2 0x35BF JUMPI PUSH2 0x35BE PUSH2 0xEAFB JUMP JUMPDEST JUMPDEST DUP2 MLOAD DUP2 LT PUSH2 0x35D0 JUMPI PUSH2 0x35CF PUSH2 0xF0D7 JUMP JUMPDEST JUMPDEST PUSH1 0x20 MUL PUSH1 0x20 ADD ADD SWAP1 PUSH2 0xFFFF AND SWAP1 DUP2 PUSH2 0xFFFF AND DUP2 MSTORE POP POP PUSH1 0x2 DUP2 PUSH1 0x27 PUSH1 0xD3 DUP2 GT ISZERO PUSH2 0x35FD JUMPI PUSH2 0x35FC PUSH2 0xEAFB JUMP JUMPDEST JUMPDEST DUP2 MLOAD DUP2 LT PUSH2 0x360E JUMPI PUSH2 0x360D PUSH2 0xF0D7 JUMP JUMPDEST JUMPDEST PUSH1 0x20 MUL PUSH1 0x20 ADD ADD SWAP1 PUSH2 0xFFFF AND SWAP1 DUP2 PUSH2 0xFFFF AND DUP2 MSTORE POP POP PUSH1 0x2 DUP2 PUSH1 0x28 PUSH1 0xD3 DUP2 GT ISZERO PUSH2 0x363B JUMPI PUSH2 0x363A PUSH2 0xEAFB JUMP JUMPDEST JUMPDEST DUP2 MLOAD DUP2 LT PUSH2 0x364C JUMPI PUSH2 0x364B PUSH2 0xF0D7 JUMP JUMPDEST JUMPDEST PUSH1 0x20 MUL PUSH1 0x20 ADD ADD SWAP1 PUSH2 0xFFFF AND SWAP1 DUP2 PUSH2 0xFFFF AND DUP2 MSTORE POP POP PUSH1 0x2 DUP2 PUSH1 0x29 PUSH1 0xD3 DUP2 GT ISZERO PUSH2 0x3679 JUMPI PUSH2 0x3678 PUSH2 0xEAFB JUMP JUMPDEST JUMPDEST DUP2 MLOAD DUP2 LT PUSH2 0x368A JUMPI PUSH2 0x3689 PUSH2 0xF0D7 JUMP JUMPDEST JUMPDEST PUSH1 0x20 MUL PUSH1 0x20 ADD ADD SWAP1 PUSH2 0xFFFF AND SWAP1 DUP2 PUSH2 0xFFFF AND DUP2 MSTORE POP POP PUSH1 0x2 DUP2 PUSH1 0x2A PUSH1 0xD3 DUP2 GT ISZERO PUSH2 0x36B7 JUMPI PUSH2 0x36B6 PUSH2 0xEAFB JUMP JUMPDEST JUMPDEST DUP2 MLOAD DUP2 LT PUSH2 0x36C8 JUMPI PUSH2 0x36C7 PUSH2 0xF0D7 JUMP JUMPDEST JUMPDEST PUSH1 0x20 MUL PUSH1 0x20 ADD ADD SWAP1 PUSH2 0xFFFF AND SWAP1 DUP2 PUSH2 0xFFFF AND DUP2 MSTORE POP POP PUSH1 0x4 DUP2 PUSH1 0x2B PUSH1 0xD3 DUP2 GT ISZERO PUSH2 0x36F5 JUMPI PUSH2 0x36F4 PUSH2 0xEAFB JUMP JUMPDEST JUMPDEST DUP2 MLOAD DUP2 LT PUSH2 0x3706 JUMPI PUSH2 0x3705 PUSH2 0xF0D7 JUMP JUMPDEST JUMPDEST PUSH1 0x20 MUL PUSH1 0x20 ADD ADD SWAP1 PUSH2 0xFFFF AND SWAP1 DUP2 PUSH2 0xFFFF AND DUP2 MSTORE POP POP PUSH1 0x4 DUP2 PUSH1 0x2C PUSH1 0xD3 DUP2 GT ISZERO PUSH2 0x3733 JUMPI PUSH2 0x3732 PUSH2 0xEAFB JUMP JUMPDEST JUMPDEST DUP2 MLOAD DUP2 LT PUSH2 0x3744 JUMPI PUSH2 0x3743 PUSH2 0xF0D7 JUMP JUMPDEST JUMPDEST PUSH1 0x20 MUL PUSH1 0x20 ADD ADD SWAP1 PUSH2 0xFFFF AND SWAP1 DUP2 PUSH2 0xFFFF AND DUP2 MSTORE POP POP PUSH1 0x3 DUP2 PUSH1 0x2D PUSH1 0xD3 DUP2 GT ISZERO PUSH2 0x3771 JUMPI PUSH2 0x3770 PUSH2 0xEAFB JUMP JUMPDEST JUMPDEST DUP2 MLOAD DUP2 LT PUSH2 0x3782 JUMPI PUSH2 0x3781 PUSH2 0xF0D7 JUMP JUMPDEST JUMPDEST PUSH1 0x20 MUL PUSH1 0x20 ADD ADD SWAP1 PUSH2 0xFFFF AND SWAP1 DUP2 PUSH2 0xFFFF AND DUP2 MSTORE POP POP PUSH1 0x3 DUP2 PUSH1 0x2E PUSH1 0xD3 DUP2 GT ISZERO PUSH2 0x37AF JUMPI PUSH2 0x37AE PUSH2 0xEAFB JUMP JUMPDEST JUMPDEST DUP2 MLOAD DUP2 LT PUSH2 0x37C0 JUMPI PUSH2 0x37BF PUSH2 0xF0D7 JUMP JUMPDEST JUMPDEST PUSH1 0x20 MUL PUSH1 0x20 ADD ADD SWAP1 PUSH2 0xFFFF AND SWAP1 DUP2 PUSH2 0xFFFF AND DUP2 MSTORE POP POP PUSH1 0x3 DUP2 PUSH1 0x2F PUSH1 0xD3 DUP2 GT ISZERO PUSH2 0x37ED JUMPI PUSH2 0x37EC PUSH2 0xEAFB JUMP JUMPDEST JUMPDEST DUP2 MLOAD DUP2 LT PUSH2 0x37FE JUMPI PUSH2 0x37FD PUSH2 0xF0D7 JUMP JUMPDEST JUMPDEST PUSH1 0x20 MUL PUSH1 0x20 ADD ADD SWAP1 PUSH2 0xFFFF AND SWAP1 DUP2 PUSH2 0xFFFF AND DUP2 MSTORE POP POP PUSH1 0x3 DUP2 PUSH1 0x30 PUSH1 0xD3 DUP2 GT ISZERO PUSH2 0x382B JUMPI PUSH2 0x382A PUSH2 0xEAFB JUMP JUMPDEST JUMPDEST DUP2 MLOAD DUP2 LT PUSH2 0x383C JUMPI PUSH2 0x383B PUSH2 0xF0D7 JUMP JUMPDEST JUMPDEST PUSH1 0x20 MUL PUSH1 0x20 ADD ADD SWAP1 PUSH2 0xFFFF AND SWAP1 DUP2 PUSH2 0xFFFF AND DUP2 MSTORE POP POP PUSH1 0xC8 DUP2 PUSH1 0x31 PUSH1 0xD3 DUP2 GT ISZERO PUSH2 0x3869 JUMPI PUSH2 0x3868 PUSH2 0xEAFB JUMP JUMPDEST JUMPDEST DUP2 MLOAD DUP2 LT PUSH2 0x387A JUMPI PUSH2 0x3879 PUSH2 0xF0D7 JUMP JUMPDEST JUMPDEST PUSH1 0x20 MUL PUSH1 0x20 ADD ADD SWAP1 PUSH2 0xFFFF AND SWAP1 DUP2 PUSH2 0xFFFF AND DUP2 MSTORE POP POP PUSH1 0xAF DUP2 PUSH1 0x34 PUSH1 0xD3 DUP2 GT ISZERO PUSH2 0x38A7 JUMPI PUSH2 0x38A6 PUSH2 0xEAFB JUMP JUMPDEST JUMPDEST DUP2 MLOAD DUP2 LT PUSH2 0x38B8 JUMPI PUSH2 0x38B7 PUSH2 0xF0D7 JUMP JUMPDEST JUMPDEST PUSH1 0x20 MUL PUSH1 0x20 ADD ADD SWAP1 PUSH2 0xFFFF AND SWAP1 DUP2 PUSH2 0xFFFF AND DUP2 MSTORE POP POP PUSH1 0x96 DUP2 PUSH1 0x32 PUSH1 0xD3 DUP2 GT ISZERO PUSH2 0x38E5 JUMPI PUSH2 0x38E4 PUSH2 0xEAFB JUMP JUMPDEST JUMPDEST DUP2 MLOAD DUP2 LT PUSH2 0x38F6 JUMPI PUSH2 0x38F5 PUSH2 0xF0D7 JUMP JUMPDEST JUMPDEST PUSH1 0x20 MUL PUSH1 0x20 ADD ADD SWAP1 PUSH2 0xFFFF AND SWAP1 DUP2 PUSH2 0xFFFF AND DUP2 MSTORE POP POP PUSH1 0x75 DUP2 PUSH1 0x35 PUSH1 0xD3 DUP2 GT ISZERO PUSH2 0x3923 JUMPI PUSH2 0x3922 PUSH2 0xEAFB JUMP JUMPDEST JUMPDEST DUP2 MLOAD DUP2 LT PUSH2 0x3934 JUMPI PUSH2 0x3933 PUSH2 0xF0D7 JUMP JUMPDEST JUMPDEST PUSH1 0x20 MUL PUSH1 0x20 ADD ADD SWAP1 PUSH2 0xFFFF AND SWAP1 DUP2 PUSH2 0xFFFF AND DUP2 MSTORE POP POP PUSH1 0x1A DUP2 PUSH1 0x33 PUSH1 0xD3 DUP2 GT ISZERO PUSH2 0x3961 JUMPI PUSH2 0x3960 PUSH2 0xEAFB JUMP JUMPDEST JUMPDEST DUP2 MLOAD DUP2 LT PUSH2 0x3972 JUMPI PUSH2 0x3971 PUSH2 0xF0D7 JUMP JUMPDEST JUMPDEST PUSH1 0x20 MUL PUSH1 0x20 ADD ADD SWAP1 PUSH2 0xFFFF AND SWAP1 DUP2 PUSH2 0xFFFF AND DUP2 MSTORE POP POP PUSH1 0x1A DUP2 PUSH1 0x36 PUSH1 0xD3 DUP2 GT ISZERO PUSH2 0x399F JUMPI PUSH2 0x399E PUSH2 0xEAFB JUMP JUMPDEST JUMPDEST DUP2 MLOAD DUP2 LT PUSH2 0x39B0 JUMPI PUSH2 0x39AF PUSH2 0xF0D7 JUMP JUMPDEST JUMPDEST PUSH1 0x20 MUL PUSH1 0x20 ADD ADD SWAP1 PUSH2 0xFFFF AND SWAP1 DUP2 PUSH2 0xFFFF AND DUP2 MSTORE POP POP PUSH1 0x1A DUP2 PUSH1 0x37 PUSH1 0xD3 DUP2 GT ISZERO PUSH2 0x39DD JUMPI PUSH2 0x39DC PUSH2 0xEAFB JUMP JUMPDEST JUMPDEST DUP2 MLOAD DUP2 LT PUSH2 0x39EE JUMPI PUSH2 0x39ED PUSH2 0xF0D7 JUMP JUMPDEST JUMPDEST PUSH1 0x20 MUL PUSH1 0x20 ADD ADD SWAP1 PUSH2 0xFFFF AND SWAP1 DUP2 PUSH2 0xFFFF AND DUP2 MSTORE POP POP PUSH1 0x1A DUP2 PUSH1 0x38 PUSH1 0xD3 DUP2 GT ISZERO PUSH2 0x3A1B JUMPI PUSH2 0x3A1A PUSH2 0xEAFB JUMP JUMPDEST JUMPDEST DUP2 MLOAD DUP2 LT PUSH2 0x3A2C JUMPI PUSH2 0x3A2B PUSH2 0xF0D7 JUMP JUMPDEST JUMPDEST PUSH1 0x20 MUL PUSH1 0x20 ADD ADD SWAP1 PUSH2 0xFFFF AND SWAP1 DUP2 PUSH2 0xFFFF AND DUP2 MSTORE POP POP PUSH1 0x1A DUP2 PUSH1 0x39 PUSH1 0xD3 DUP2 GT ISZERO PUSH2 0x3A59 JUMPI PUSH2 0x3A58 PUSH2 0xEAFB JUMP JUMPDEST JUMPDEST DUP2 MLOAD DUP2 LT PUSH2 0x3A6A JUMPI PUSH2 0x3A69 PUSH2 0xF0D7 JUMP JUMPDEST JUMPDEST PUSH1 0x20 MUL PUSH1 0x20 ADD ADD SWAP1 PUSH2 0xFFFF AND SWAP1 DUP2 PUSH2 0xFFFF AND DUP2 MSTORE POP POP PUSH1 0x1A DUP2 PUSH1 0x3A PUSH1 0xD3 DUP2 GT ISZERO PUSH2 0x3A97 JUMPI PUSH2 0x3A96 PUSH2 0xEAFB JUMP JUMPDEST JUMPDEST DUP2 MLOAD DUP2 LT PUSH2 0x3AA8 JUMPI PUSH2 0x3AA7 PUSH2 0xF0D7 JUMP JUMPDEST JUMPDEST PUSH1 0x20 MUL PUSH1 0x20 ADD ADD SWAP1 PUSH2 0xFFFF AND SWAP1 DUP2 PUSH2 0xFFFF AND DUP2 MSTORE POP POP PUSH1 0x1A DUP2 PUSH1 0x3B PUSH1 0xD3 DUP2 GT ISZERO PUSH2 0x3AD5 JUMPI PUSH2 0x3AD4 PUSH2 0xEAFB JUMP JUMPDEST JUMPDEST DUP2 MLOAD DUP2 LT PUSH2 0x3AE6 JUMPI PUSH2 0x3AE5 PUSH2 0xF0D7 JUMP JUMPDEST JUMPDEST PUSH1 0x20 MUL PUSH1 0x20 ADD ADD SWAP1 PUSH2 0xFFFF AND SWAP1 DUP2 PUSH2 0xFFFF AND DUP2 MSTORE POP POP PUSH1 0x1A DUP2 PUSH1 0x3C PUSH1 0xD3 DUP2 GT ISZERO PUSH2 0x3B13 JUMPI PUSH2 0x3B12 PUSH2 0xEAFB JUMP JUMPDEST JUMPDEST DUP2 MLOAD DUP2 LT PUSH2 0x3B24 JUMPI PUSH2 0x3B23 PUSH2 0xF0D7 JUMP JUMPDEST JUMPDEST PUSH1 0x20 MUL PUSH1 0x20 ADD ADD SWAP1 PUSH2 0xFFFF AND SWAP1 DUP2 PUSH2 0xFFFF AND DUP2 MSTORE POP POP PUSH1 0x23 DUP2 PUSH1 0x3D PUSH1 0xD3 DUP2 GT ISZERO PUSH2 0x3B51 JUMPI PUSH2 0x3B50 PUSH2 0xEAFB JUMP JUMPDEST JUMPDEST DUP2 MLOAD DUP2 LT PUSH2 0x3B62 JUMPI PUSH2 0x3B61 PUSH2 0xF0D7 JUMP JUMPDEST JUMPDEST PUSH1 0x20 MUL PUSH1 0x20 ADD ADD SWAP1 PUSH2 0xFFFF AND SWAP1 DUP2 PUSH2 0xFFFF AND DUP2 MSTORE POP POP PUSH1 0x1E DUP2 PUSH1 0x3F PUSH1 0xD3 DUP2 GT ISZERO PUSH2 0x3B8F JUMPI PUSH2 0x3B8E PUSH2 0xEAFB JUMP JUMPDEST JUMPDEST DUP2 MLOAD DUP2 LT PUSH2 0x3BA0 JUMPI PUSH2 0x3B9F PUSH2 0xF0D7 JUMP JUMPDEST JUMPDEST PUSH1 0x20 MUL PUSH1 0x20 ADD ADD SWAP1 PUSH2 0xFFFF AND SWAP1 DUP2 PUSH2 0xFFFF AND DUP2 MSTORE POP POP PUSH1 0x19 DUP2 PUSH1 0x3E PUSH1 0xD3 DUP2 GT ISZERO PUSH2 0x3BCD JUMPI PUSH2 0x3BCC PUSH2 0xEAFB JUMP JUMPDEST JUMPDEST DUP2 MLOAD DUP2 LT PUSH2 0x3BDE JUMPI PUSH2 0x3BDD PUSH2 0xF0D7 JUMP JUMPDEST JUMPDEST PUSH1 0x20 MUL PUSH1 0x20 ADD ADD SWAP1 PUSH2 0xFFFF AND SWAP1 DUP2 PUSH2 0xFFFF AND DUP2 MSTORE POP POP PUSH1 0x14 DUP2 PUSH1 0x40 PUSH1 0xD3 DUP2 GT ISZERO PUSH2 0x3C0B JUMPI PUSH2 0x3C0A PUSH2 0xEAFB JUMP JUMPDEST JUMPDEST DUP2 MLOAD DUP2 LT PUSH2 0x3C1C JUMPI PUSH2 0x3C1B PUSH2 0xF0D7 JUMP JUMPDEST JUMPDEST PUSH1 0x20 MUL PUSH1 0x20 ADD ADD SWAP1 PUSH2 0xFFFF AND SWAP1 DUP2 PUSH2 0xFFFF AND DUP2 MSTORE POP POP PUSH1 0xF DUP2 PUSH1 0x41 PUSH1 0xD3 DUP2 GT ISZERO PUSH2 0x3C49 JUMPI PUSH2 0x3C48 PUSH2 0xEAFB JUMP JUMPDEST JUMPDEST DUP2 MLOAD DUP2 LT PUSH2 0x3C5A JUMPI PUSH2 0x3C59 PUSH2 0xF0D7 JUMP JUMPDEST JUMPDEST PUSH1 0x20 MUL PUSH1 0x20 ADD ADD SWAP1 PUSH2 0xFFFF AND SWAP1 DUP2 PUSH2 0xFFFF AND DUP2 MSTORE POP POP PUSH1 0xC DUP2 PUSH1 0x42 PUSH1 0xD3 DUP2 GT ISZERO PUSH2 0x3C87 JUMPI PUSH2 0x3C86 PUSH2 0xEAFB JUMP JUMPDEST JUMPDEST DUP2 MLOAD DUP2 LT PUSH2 0x3C98 JUMPI PUSH2 0x3C97 PUSH2 0xF0D7 JUMP JUMPDEST JUMPDEST PUSH1 0x20 MUL PUSH1 0x20 ADD ADD SWAP1 PUSH2 0xFFFF AND SWAP1 DUP2 PUSH2 0xFFFF AND DUP2 MSTORE POP POP PUSH1 0x9 DUP2 PUSH1 0x45 PUSH1 0xD3 DUP2 GT ISZERO PUSH2 0x3CC5 JUMPI PUSH2 0x3CC4 PUSH2 0xEAFB JUMP JUMPDEST JUMPDEST DUP2 MLOAD DUP2 LT PUSH2 0x3CD6 JUMPI PUSH2 0x3CD5 PUSH2 0xF0D7 JUMP JUMPDEST JUMPDEST PUSH1 0x20 MUL PUSH1 0x20 ADD ADD SWAP1 PUSH2 0xFFFF AND SWAP1 DUP2 PUSH2 0xFFFF AND DUP2 MSTORE POP POP PUSH1 0x7 DUP2 PUSH1 0x43 PUSH1 0xD3 DUP2 GT ISZERO PUSH2 0x3D03 JUMPI PUSH2 0x3D02 PUSH2 0xEAFB JUMP JUMPDEST JUMPDEST DUP2 MLOAD DUP2 LT PUSH2 0x3D14 JUMPI PUSH2 0x3D13 PUSH2 0xF0D7 JUMP JUMPDEST JUMPDEST PUSH1 0x20 MUL PUSH1 0x20 ADD ADD SWAP1 PUSH2 0xFFFF AND SWAP1 DUP2 PUSH2 0xFFFF AND DUP2 MSTORE POP POP PUSH1 0x6 DUP2 PUSH1 0x46 PUSH1 0xD3 DUP2 GT ISZERO PUSH2 0x3D41 JUMPI PUSH2 0x3D40 PUSH2 0xEAFB JUMP JUMPDEST JUMPDEST DUP2 MLOAD DUP2 LT PUSH2 0x3D52 JUMPI PUSH2 0x3D51 PUSH2 0xF0D7 JUMP JUMPDEST JUMPDEST PUSH1 0x20 MUL PUSH1 0x20 ADD ADD SWAP1 PUSH2 0xFFFF AND SWAP1 DUP2 PUSH2 0xFFFF AND DUP2 MSTORE POP POP PUSH1 0x2 DUP2 PUSH1 0x44 PUSH1 0xD3 DUP2 GT ISZERO PUSH2 0x3D7F JUMPI PUSH2 0x3D7E PUSH2 0xEAFB JUMP JUMPDEST JUMPDEST DUP2 MLOAD DUP2 LT PUSH2 0x3D90 JUMPI PUSH2 0x3D8F PUSH2 0xF0D7 JUMP JUMPDEST JUMPDEST PUSH1 0x20 MUL PUSH1 0x20 ADD ADD SWAP1 PUSH2 0xFFFF AND SWAP1 DUP2 PUSH2 0xFFFF AND DUP2 MSTORE POP POP PUSH1 0x2 DUP2 PUSH1 0x47 PUSH1 0xD3 DUP2 GT ISZERO PUSH2 0x3DBD JUMPI PUSH2 0x3DBC PUSH2 0xEAFB JUMP JUMPDEST JUMPDEST DUP2 MLOAD DUP2 LT PUSH2 0x3DCE JUMPI PUSH2 0x3DCD PUSH2 0xF0D7 JUMP JUMPDEST JUMPDEST PUSH1 0x20 MUL PUSH1 0x20 ADD ADD SWAP1 PUSH2 0xFFFF AND SWAP1 DUP2 PUSH2 0xFFFF AND DUP2 MSTORE POP POP PUSH1 0x2 DUP2 PUSH1 0x48 PUSH1 0xD3 DUP2 GT ISZERO PUSH2 0x3DFB JUMPI PUSH2 0x3DFA PUSH2 0xEAFB JUMP JUMPDEST JUMPDEST DUP2 MLOAD DUP2 LT PUSH2 0x3E0C JUMPI PUSH2 0x3E0B PUSH2 0xF0D7 JUMP JUMPDEST JUMPDEST PUSH1 0x20 MUL PUSH1 0x20 ADD ADD SWAP1 PUSH2 0xFFFF AND SWAP1 DUP2 PUSH2 0xFFFF AND DUP2 MSTORE POP POP PUSH1 0x2 DUP2 PUSH1 0x49 PUSH1 0xD3 DUP2 GT ISZERO PUSH2 0x3E39 JUMPI PUSH2 0x3E38 PUSH2 0xEAFB JUMP JUMPDEST JUMPDEST DUP2 MLOAD DUP2 LT PUSH2 0x3E4A JUMPI PUSH2 0x3E49 PUSH2 0xF0D7 JUMP JUMPDEST JUMPDEST PUSH1 0x20 MUL PUSH1 0x20 ADD ADD SWAP1 PUSH2 0xFFFF AND SWAP1 DUP2 PUSH2 0xFFFF AND DUP2 MSTORE POP POP PUSH1 0x2 DUP2 PUSH1 0x4A PUSH1 0xD3 DUP2 GT ISZERO PUSH2 0x3E77 JUMPI PUSH2 0x3E76 PUSH2 0xEAFB JUMP JUMPDEST JUMPDEST DUP2 MLOAD DUP2 LT PUSH2 0x3E88 JUMPI PUSH2 0x3E87 PUSH2 0xF0D7 JUMP JUMPDEST JUMPDEST PUSH1 0x20 MUL PUSH1 0x20 ADD ADD SWAP1 PUSH2 0xFFFF AND SWAP1 DUP2 PUSH2 0xFFFF AND DUP2 MSTORE POP POP PUSH1 0x2 DUP2 PUSH1 0x4B PUSH1 0xD3 DUP2 GT ISZERO PUSH2 0x3EB5 JUMPI PUSH2 0x3EB4 PUSH2 0xEAFB JUMP JUMPDEST JUMPDEST DUP2 MLOAD DUP2 LT PUSH2 0x3EC6 JUMPI PUSH2 0x3EC5 PUSH2 0xF0D7 JUMP JUMPDEST JUMPDEST PUSH1 0x20 MUL PUSH1 0x20 ADD ADD SWAP1 PUSH2 0xFFFF AND SWAP1 DUP2 PUSH2 0xFFFF AND DUP2 MSTORE POP POP PUSH1 0x2 DUP2 PUSH1 0x4C PUSH1 0xD3 DUP2 GT ISZERO PUSH2 0x3EF3 JUMPI PUSH2 0x3EF2 PUSH2 0xEAFB JUMP JUMPDEST JUMPDEST DUP2 MLOAD DUP2 LT PUSH2 0x3F04 JUMPI PUSH2 0x3F03 PUSH2 0xF0D7 JUMP JUMPDEST JUMPDEST PUSH1 0x20 MUL PUSH1 0x20 ADD ADD SWAP1 PUSH2 0xFFFF AND SWAP1 DUP2 PUSH2 0xFFFF AND DUP2 MSTORE POP POP PUSH1 0x2 DUP2 PUSH1 0x4D PUSH1 0xD3 DUP2 GT ISZERO PUSH2 0x3F31 JUMPI PUSH2 0x3F30 PUSH2 0xEAFB JUMP JUMPDEST JUMPDEST DUP2 MLOAD DUP2 LT PUSH2 0x3F42 JUMPI PUSH2 0x3F41 PUSH2 0xF0D7 JUMP JUMPDEST JUMPDEST PUSH1 0x20 MUL PUSH1 0x20 ADD ADD SWAP1 PUSH2 0xFFFF AND SWAP1 DUP2 PUSH2 0xFFFF AND DUP2 MSTORE POP POP PUSH1 0x46 DUP2 PUSH1 0x4E PUSH1 0xD3 DUP2 GT ISZERO PUSH2 0x3F6F JUMPI PUSH2 0x3F6E PUSH2 0xEAFB JUMP JUMPDEST JUMPDEST DUP2 MLOAD DUP2 LT PUSH2 0x3F80 JUMPI PUSH2 0x3F7F PUSH2 0xF0D7 JUMP JUMPDEST JUMPDEST PUSH1 0x20 MUL PUSH1 0x20 ADD ADD SWAP1 PUSH2 0xFFFF AND SWAP1 DUP2 PUSH2 0xFFFF AND DUP2 MSTORE POP POP PUSH1 0x3C DUP2 PUSH1 0x50 PUSH1 0xD3 DUP2 GT ISZERO PUSH2 0x3FAD JUMPI PUSH2 0x3FAC PUSH2 0xEAFB JUMP JUMPDEST JUMPDEST DUP2 MLOAD DUP2 LT PUSH2 0x3FBE JUMPI PUSH2 0x3FBD PUSH2 0xF0D7 JUMP JUMPDEST JUMPDEST PUSH1 0x20 MUL PUSH1 0x20 ADD ADD SWAP1 PUSH2 0xFFFF AND SWAP1 DUP2 PUSH2 0xFFFF AND DUP2 MSTORE POP POP PUSH1 0x32 DUP2 PUSH1 0x4F PUSH1 0xD3 DUP2 GT ISZERO PUSH2 0x3FEB JUMPI PUSH2 0x3FEA PUSH2 0xEAFB JUMP JUMPDEST JUMPDEST DUP2 MLOAD DUP2 LT PUSH2 0x3FFC JUMPI PUSH2 0x3FFB PUSH2 0xF0D7 JUMP JUMPDEST JUMPDEST PUSH1 0x20 MUL PUSH1 0x20 ADD ADD SWAP1 PUSH2 0xFFFF AND SWAP1 DUP2 PUSH2 0xFFFF AND DUP2 MSTORE POP POP PUSH1 0x28 DUP2 PUSH1 0x51 PUSH1 0xD3 DUP2 GT ISZERO PUSH2 0x4029 JUMPI PUSH2 0x4028 PUSH2 0xEAFB JUMP JUMPDEST JUMPDEST DUP2 MLOAD DUP2 LT PUSH2 0x403A JUMPI PUSH2 0x4039 PUSH2 0xF0D7 JUMP JUMPDEST JUMPDEST PUSH1 0x20 MUL PUSH1 0x20 ADD ADD SWAP1 PUSH2 0xFFFF AND SWAP1 DUP2 PUSH2 0xFFFF AND DUP2 MSTORE POP POP PUSH1 0x1E DUP2 PUSH1 0x52 PUSH1 0xD3 DUP2 GT ISZERO PUSH2 0x4067 JUMPI PUSH2 0x4066 PUSH2 0xEAFB JUMP JUMPDEST JUMPDEST DUP2 MLOAD DUP2 LT PUSH2 0x4078 JUMPI PUSH2 0x4077 PUSH2 0xF0D7 JUMP JUMPDEST JUMPDEST PUSH1 0x20 MUL PUSH1 0x20 ADD ADD SWAP1 PUSH2 0xFFFF AND SWAP1 DUP2 PUSH2 0xFFFF AND DUP2 MSTORE POP POP PUSH1 0x3B DUP2 PUSH1 0x53 PUSH1 0xD3 DUP2 GT ISZERO PUSH2 0x40A5 JUMPI PUSH2 0x40A4 PUSH2 0xEAFB JUMP JUMPDEST JUMPDEST DUP2 MLOAD DUP2 LT PUSH2 0x40B6 JUMPI PUSH2 0x40B5 PUSH2 0xF0D7 JUMP JUMPDEST JUMPDEST PUSH1 0x20 MUL PUSH1 0x20 ADD ADD SWAP1 PUSH2 0xFFFF AND SWAP1 DUP2 PUSH2 0xFFFF AND DUP2 MSTORE POP POP PUSH1 0x2D DUP2 PUSH1 0x56 PUSH1 0xD3 DUP2 GT ISZERO PUSH2 0x40E3 JUMPI PUSH2 0x40E2 PUSH2 0xEAFB JUMP JUMPDEST JUMPDEST DUP2 MLOAD DUP2 LT PUSH2 0x40F4 JUMPI PUSH2 0x40F3 PUSH2 0xF0D7 JUMP JUMPDEST JUMPDEST PUSH1 0x20 MUL PUSH1 0x20 ADD ADD SWAP1 PUSH2 0xFFFF AND SWAP1 DUP2 PUSH2 0xFFFF AND DUP2 MSTORE POP POP PUSH1 0x23 DUP2 PUSH1 0x54 PUSH1 0xD3 DUP2 GT ISZERO PUSH2 0x4121 JUMPI PUSH2 0x4120 PUSH2 0xEAFB JUMP JUMPDEST JUMPDEST DUP2 MLOAD DUP2 LT PUSH2 0x4132 JUMPI PUSH2 0x4131 PUSH2 0xF0D7 JUMP JUMPDEST JUMPDEST PUSH1 0x20 MUL PUSH1 0x20 ADD ADD SWAP1 PUSH2 0xFFFF AND SWAP1 DUP2 PUSH2 0xFFFF AND DUP2 MSTORE POP POP PUSH1 0x1E DUP2 PUSH1 0x57 PUSH1 0xD3 DUP2 GT ISZERO PUSH2 0x415F JUMPI PUSH2 0x415E PUSH2 0xEAFB JUMP JUMPDEST JUMPDEST DUP2 MLOAD DUP2 LT PUSH2 0x4170 JUMPI PUSH2 0x416F PUSH2 0xF0D7 JUMP JUMPDEST JUMPDEST PUSH1 0x20 MUL PUSH1 0x20 ADD ADD SWAP1 PUSH2 0xFFFF AND SWAP1 DUP2 PUSH2 0xFFFF AND DUP2 MSTORE POP POP PUSH1 0x7 DUP2 PUSH1 0x55 PUSH1 0xD3 DUP2 GT ISZERO PUSH2 0x419D JUMPI PUSH2 0x419C PUSH2 0xEAFB JUMP JUMPDEST JUMPDEST DUP2 MLOAD DUP2 LT PUSH2 0x41AE JUMPI PUSH2 0x41AD PUSH2 0xF0D7 JUMP JUMPDEST JUMPDEST PUSH1 0x20 MUL PUSH1 0x20 ADD ADD SWAP1 PUSH2 0xFFFF AND SWAP1 DUP2 PUSH2 0xFFFF AND DUP2 MSTORE POP POP PUSH1 0x7 DUP2 PUSH1 0x58 PUSH1 0xD3 DUP2 GT ISZERO PUSH2 0x41DB JUMPI PUSH2 0x41DA PUSH2 0xEAFB JUMP JUMPDEST JUMPDEST DUP2 MLOAD DUP2 LT PUSH2 0x41EC JUMPI PUSH2 0x41EB PUSH2 0xF0D7 JUMP JUMPDEST JUMPDEST PUSH1 0x20 MUL PUSH1 0x20 ADD ADD SWAP1 PUSH2 0xFFFF AND SWAP1 DUP2 PUSH2 0xFFFF AND DUP2 MSTORE POP POP PUSH1 0x7 DUP2 PUSH1 0x59 PUSH1 0xD3 DUP2 GT ISZERO PUSH2 0x4219 JUMPI PUSH2 0x4218 PUSH2 0xEAFB JUMP JUMPDEST JUMPDEST DUP2 MLOAD DUP2 LT PUSH2 0x422A JUMPI PUSH2 0x4229 PUSH2 0xF0D7 JUMP JUMPDEST JUMPDEST PUSH1 0x20 MUL PUSH1 0x20 ADD ADD SWAP1 PUSH2 0xFFFF AND SWAP1 DUP2 PUSH2 0xFFFF AND DUP2 MSTORE POP POP PUSH1 0x7 DUP2 PUSH1 0x5A PUSH1 0xD3 DUP2 GT ISZERO PUSH2 0x4257 JUMPI PUSH2 0x4256 PUSH2 0xEAFB JUMP JUMPDEST JUMPDEST DUP2 MLOAD DUP2 LT PUSH2 0x4268 JUMPI PUSH2 0x4267 PUSH2 0xF0D7 JUMP JUMPDEST JUMPDEST PUSH1 0x20 MUL PUSH1 0x20 ADD ADD SWAP1 PUSH2 0xFFFF AND SWAP1 DUP2 PUSH2 0xFFFF AND DUP2 MSTORE POP POP PUSH1 0x7 DUP2 PUSH1 0x5B PUSH1 0xD3 DUP2 GT ISZERO PUSH2 0x4295 JUMPI PUSH2 0x4294 PUSH2 0xEAFB JUMP JUMPDEST JUMPDEST DUP2 MLOAD DUP2 LT PUSH2 0x42A6 JUMPI PUSH2 0x42A5 PUSH2 0xF0D7 JUMP JUMPDEST JUMPDEST PUSH1 0x20 MUL PUSH1 0x20 ADD ADD SWAP1 PUSH2 0xFFFF AND SWAP1 DUP2 PUSH2 0xFFFF AND DUP2 MSTORE POP POP PUSH1 0x7 DUP2 PUSH1 0x5C PUSH1 0xD3 DUP2 GT ISZERO PUSH2 0x42D3 JUMPI PUSH2 0x42D2 PUSH2 0xEAFB JUMP JUMPDEST JUMPDEST DUP2 MLOAD DUP2 LT PUSH2 0x42E4 JUMPI PUSH2 0x42E3 PUSH2 0xF0D7 JUMP JUMPDEST JUMPDEST PUSH1 0x20 MUL PUSH1 0x20 ADD ADD SWAP1 PUSH2 0xFFFF AND SWAP1 DUP2 PUSH2 0xFFFF AND DUP2 MSTORE POP POP PUSH1 0x7 DUP2 PUSH1 0x5D PUSH1 0xD3 DUP2 GT ISZERO PUSH2 0x4311 JUMPI PUSH2 0x4310 PUSH2 0xEAFB JUMP JUMPDEST JUMPDEST DUP2 MLOAD DUP2 LT PUSH2 0x4322 JUMPI PUSH2 0x4321 PUSH2 0xF0D7 JUMP JUMPDEST JUMPDEST PUSH1 0x20 MUL PUSH1 0x20 ADD ADD SWAP1 PUSH2 0xFFFF AND SWAP1 DUP2 PUSH2 0xFFFF AND DUP2 MSTORE POP POP PUSH1 0x7 DUP2 PUSH1 0x5E PUSH1 0xD3 DUP2 GT ISZERO PUSH2 0x434F JUMPI PUSH2 0x434E PUSH2 0xEAFB JUMP JUMPDEST JUMPDEST DUP2 MLOAD DUP2 LT PUSH2 0x4360 JUMPI PUSH2 0x435F PUSH2 0xF0D7 JUMP JUMPDEST JUMPDEST PUSH1 0x20 MUL PUSH1 0x20 ADD ADD SWAP1 PUSH2 0xFFFF AND SWAP1 DUP2 PUSH2 0xFFFF AND DUP2 MSTORE POP POP PUSH1 0x46 DUP2 PUSH1 0x5F PUSH1 0xD3 DUP2 GT ISZERO PUSH2 0x438D JUMPI PUSH2 0x438C PUSH2 0xEAFB JUMP JUMPDEST JUMPDEST DUP2 MLOAD DUP2 LT PUSH2 0x439E JUMPI PUSH2 0x439D PUSH2 0xF0D7 JUMP JUMPDEST JUMPDEST PUSH1 0x20 MUL PUSH1 0x20 ADD ADD SWAP1 PUSH2 0xFFFF AND SWAP1 DUP2 PUSH2 0xFFFF AND DUP2 MSTORE POP POP PUSH1 0x3C DUP2 PUSH1 0x61 PUSH1 0xD3 DUP2 GT ISZERO PUSH2 0x43CB JUMPI PUSH2 0x43CA PUSH2 0xEAFB JUMP JUMPDEST JUMPDEST DUP2 MLOAD DUP2 LT PUSH2 0x43DC JUMPI PUSH2 0x43DB PUSH2 0xF0D7 JUMP JUMPDEST JUMPDEST PUSH1 0x20 MUL PUSH1 0x20 ADD ADD SWAP1 PUSH2 0xFFFF AND SWAP1 DUP2 PUSH2 0xFFFF AND DUP2 MSTORE POP POP PUSH1 0x1E DUP2 PUSH1 0x60 PUSH1 0xD3 DUP2 GT ISZERO PUSH2 0x4409 JUMPI PUSH2 0x4408 PUSH2 0xEAFB JUMP JUMPDEST JUMPDEST DUP2 MLOAD DUP2 LT PUSH2 0x441A JUMPI PUSH2 0x4419 PUSH2 0xF0D7 JUMP JUMPDEST JUMPDEST PUSH1 0x20 MUL PUSH1 0x20 ADD ADD SWAP1 PUSH2 0xFFFF AND SWAP1 DUP2 PUSH2 0xFFFF AND DUP2 MSTORE POP POP PUSH1 0x19 DUP2 PUSH1 0x62 PUSH1 0xD3 DUP2 GT ISZERO PUSH2 0x4447 JUMPI PUSH2 0x4446 PUSH2 0xEAFB JUMP JUMPDEST JUMPDEST DUP2 MLOAD DUP2 LT PUSH2 0x4458 JUMPI PUSH2 0x4457 PUSH2 0xF0D7 JUMP JUMPDEST JUMPDEST PUSH1 0x20 MUL PUSH1 0x20 ADD ADD SWAP1 PUSH2 0xFFFF AND SWAP1 DUP2 PUSH2 0xFFFF AND DUP2 MSTORE POP POP PUSH1 0xF DUP2 PUSH1 0x63 PUSH1 0xD3 DUP2 GT ISZERO PUSH2 0x4485 JUMPI PUSH2 0x4484 PUSH2 0xEAFB JUMP JUMPDEST JUMPDEST DUP2 MLOAD DUP2 LT PUSH2 0x4496 JUMPI PUSH2 0x4495 PUSH2 0xF0D7 JUMP JUMPDEST JUMPDEST PUSH1 0x20 MUL PUSH1 0x20 ADD ADD SWAP1 PUSH2 0xFFFF AND SWAP1 DUP2 PUSH2 0xFFFF AND DUP2 MSTORE POP POP PUSH1 0xC8 DUP2 PUSH1 0x64 PUSH1 0xD3 DUP2 GT ISZERO PUSH2 0x44C3 JUMPI PUSH2 0x44C2 PUSH2 0xEAFB JUMP JUMPDEST JUMPDEST DUP2 MLOAD DUP2 LT PUSH2 0x44D4 JUMPI PUSH2 0x44D3 PUSH2 0xF0D7 JUMP JUMPDEST JUMPDEST PUSH1 0x20 MUL PUSH1 0x20 ADD ADD SWAP1 PUSH2 0xFFFF AND SWAP1 DUP2 PUSH2 0xFFFF AND DUP2 MSTORE POP POP PUSH1 0xB4 DUP2 PUSH1 0x67 PUSH1 0xD3 DUP2 GT ISZERO PUSH2 0x4501 JUMPI PUSH2 0x4500 PUSH2 0xEAFB JUMP JUMPDEST JUMPDEST DUP2 MLOAD DUP2 LT PUSH2 0x4512 JUMPI PUSH2 0x4511 PUSH2 0xF0D7 JUMP JUMPDEST JUMPDEST PUSH1 0x20 MUL PUSH1 0x20 ADD ADD SWAP1 PUSH2 0xFFFF AND SWAP1 DUP2 PUSH2 0xFFFF AND DUP2 MSTORE POP POP PUSH1 0x78 DUP2 PUSH1 0x65 PUSH1 0xD3 DUP2 GT ISZERO PUSH2 0x453F JUMPI PUSH2 0x453E PUSH2 0xEAFB JUMP JUMPDEST JUMPDEST DUP2 MLOAD DUP2 LT PUSH2 0x4550 JUMPI PUSH2 0x454F PUSH2 0xF0D7 JUMP JUMPDEST JUMPDEST PUSH1 0x20 MUL PUSH1 0x20 ADD ADD SWAP1 PUSH2 0xFFFF AND SWAP1 DUP2 PUSH2 0xFFFF AND DUP2 MSTORE POP POP PUSH1 0x64 DUP2 PUSH1 0x68 PUSH1 0xD3 DUP2 GT ISZERO PUSH2 0x457D JUMPI PUSH2 0x457C PUSH2 0xEAFB JUMP JUMPDEST JUMPDEST DUP2 MLOAD DUP2 LT PUSH2 0x458E JUMPI PUSH2 0x458D PUSH2 0xF0D7 JUMP JUMPDEST JUMPDEST PUSH1 0x20 MUL PUSH1 0x20 ADD ADD SWAP1 PUSH2 0xFFFF AND SWAP1 DUP2 PUSH2 0xFFFF AND DUP2 MSTORE POP POP PUSH1 0x19 DUP2 PUSH1 0x66 PUSH1 0xD3 DUP2 GT ISZERO PUSH2 0x45BB JUMPI PUSH2 0x45BA PUSH2 0xEAFB JUMP JUMPDEST JUMPDEST DUP2 MLOAD DUP2 LT PUSH2 0x45CC JUMPI PUSH2 0x45CB PUSH2 0xF0D7 JUMP JUMPDEST JUMPDEST PUSH1 0x20 MUL PUSH1 0x20 ADD ADD SWAP1 PUSH2 0xFFFF AND SWAP1 DUP2 PUSH2 0xFFFF AND DUP2 MSTORE POP POP PUSH1 0x19 DUP2 PUSH1 0x69 PUSH1 0xD3 DUP2 GT ISZERO PUSH2 0x45F9 JUMPI PUSH2 0x45F8 PUSH2 0xEAFB JUMP JUMPDEST JUMPDEST DUP2 MLOAD DUP2 LT PUSH2 0x460A JUMPI PUSH2 0x4609 PUSH2 0xF0D7 JUMP JUMPDEST JUMPDEST PUSH1 0x20 MUL PUSH1 0x20 ADD ADD SWAP1 PUSH2 0xFFFF AND SWAP1 DUP2 PUSH2 0xFFFF AND DUP2 MSTORE POP POP PUSH1 0x19 DUP2 PUSH1 0x6A PUSH1 0xD3 DUP2 GT ISZERO PUSH2 0x4637 JUMPI PUSH2 0x4636 PUSH2 0xEAFB JUMP JUMPDEST JUMPDEST DUP2 MLOAD DUP2 LT PUSH2 0x4648 JUMPI PUSH2 0x4647 PUSH2 0xF0D7 JUMP JUMPDEST JUMPDEST PUSH1 0x20 MUL PUSH1 0x20 ADD ADD SWAP1 PUSH2 0xFFFF AND SWAP1 DUP2 PUSH2 0xFFFF AND DUP2 MSTORE POP POP PUSH1 0x19 DUP2 PUSH1 0x6B PUSH1 0xD3 DUP2 GT ISZERO PUSH2 0x4675 JUMPI PUSH2 0x4674 PUSH2 0xEAFB JUMP JUMPDEST JUMPDEST DUP2 MLOAD DUP2 LT PUSH2 0x4686 JUMPI PUSH2 0x4685 PUSH2 0xF0D7 JUMP JUMPDEST JUMPDEST PUSH1 0x20 MUL PUSH1 0x20 ADD ADD SWAP1 PUSH2 0xFFFF AND SWAP1 DUP2 PUSH2 0xFFFF AND DUP2 MSTORE POP POP PUSH1 0x19 DUP2 PUSH1 0x6C PUSH1 0xD3 DUP2 GT ISZERO PUSH2 0x46B3 JUMPI PUSH2 0x46B2 PUSH2 0xEAFB JUMP JUMPDEST JUMPDEST DUP2 MLOAD DUP2 LT PUSH2 0x46C4 JUMPI PUSH2 0x46C3 PUSH2 0xF0D7 JUMP JUMPDEST JUMPDEST PUSH1 0x20 MUL PUSH1 0x20 ADD ADD SWAP1 PUSH2 0xFFFF AND SWAP1 DUP2 PUSH2 0xFFFF AND DUP2 MSTORE POP POP PUSH1 0x19 DUP2 PUSH1 0x6D PUSH1 0xD3 DUP2 GT ISZERO PUSH2 0x46F1 JUMPI PUSH2 0x46F0 PUSH2 0xEAFB JUMP JUMPDEST JUMPDEST DUP2 MLOAD DUP2 LT PUSH2 0x4702 JUMPI PUSH2 0x4701 PUSH2 0xF0D7 JUMP JUMPDEST JUMPDEST PUSH1 0x20 MUL PUSH1 0x20 ADD ADD SWAP1 PUSH2 0xFFFF AND SWAP1 DUP2 PUSH2 0xFFFF AND DUP2 MSTORE POP POP PUSH1 0x19 DUP2 PUSH1 0x6E PUSH1 0xD3 DUP2 GT ISZERO PUSH2 0x472F JUMPI PUSH2 0x472E PUSH2 0xEAFB JUMP JUMPDEST JUMPDEST DUP2 MLOAD DUP2 LT PUSH2 0x4740 JUMPI PUSH2 0x473F PUSH2 0xF0D7 JUMP JUMPDEST JUMPDEST PUSH1 0x20 MUL PUSH1 0x20 ADD ADD SWAP1 PUSH2 0xFFFF AND SWAP1 DUP2 PUSH2 0xFFFF AND DUP2 MSTORE POP POP PUSH1 0x19 DUP2 PUSH1 0x6F PUSH1 0xD3 DUP2 GT ISZERO PUSH2 0x476D JUMPI PUSH2 0x476C PUSH2 0xEAFB JUMP JUMPDEST JUMPDEST DUP2 MLOAD DUP2 LT PUSH2 0x477E JUMPI PUSH2 0x477D PUSH2 0xF0D7 JUMP JUMPDEST JUMPDEST PUSH1 0x20 MUL PUSH1 0x20 ADD ADD SWAP1 PUSH2 0xFFFF AND SWAP1 DUP2 PUSH2 0xFFFF AND DUP2 MSTORE POP POP PUSH1 0x6 DUP2 PUSH1 0x70 PUSH1 0xD3 DUP2 GT ISZERO PUSH2 0x47AB JUMPI PUSH2 0x47AA PUSH2 0xEAFB JUMP JUMPDEST JUMPDEST DUP2 MLOAD DUP2 LT PUSH2 0x47BC JUMPI PUSH2 0x47BB PUSH2 0xF0D7 JUMP JUMPDEST JUMPDEST PUSH1 0x20 MUL PUSH1 0x20 ADD ADD SWAP1 PUSH2 0xFFFF AND SWAP1 DUP2 PUSH2 0xFFFF AND DUP2 MSTORE POP POP PUSH1 0x4 DUP2 PUSH1 0x73 PUSH1 0xD3 DUP2 GT ISZERO PUSH2 0x47E9 JUMPI PUSH2 0x47E8 PUSH2 0xEAFB JUMP JUMPDEST JUMPDEST DUP2 MLOAD DUP2 LT PUSH2 0x47FA JUMPI PUSH2 0x47F9 PUSH2 0xF0D7 JUMP JUMPDEST JUMPDEST PUSH1 0x20 MUL PUSH1 0x20 ADD ADD SWAP1 PUSH2 0xFFFF AND SWAP1 DUP2 PUSH2 0xFFFF AND DUP2 MSTORE POP POP PUSH1 0x3 DUP2 PUSH1 0x71 PUSH1 0xD3 DUP2 GT ISZERO PUSH2 0x4827 JUMPI PUSH2 0x4826 PUSH2 0xEAFB JUMP JUMPDEST JUMPDEST DUP2 MLOAD DUP2 LT PUSH2 0x4838 JUMPI PUSH2 0x4837 PUSH2 0xF0D7 JUMP JUMPDEST JUMPDEST PUSH1 0x20 MUL PUSH1 0x20 ADD ADD SWAP1 PUSH2 0xFFFF AND SWAP1 DUP2 PUSH2 0xFFFF AND DUP2 MSTORE POP POP PUSH1 0x2 DUP2 PUSH1 0x74 PUSH1 0xD3 DUP2 GT ISZERO PUSH2 0x4865 JUMPI PUSH2 0x4864 PUSH2 0xEAFB JUMP JUMPDEST JUMPDEST DUP2 MLOAD DUP2 LT PUSH2 0x4876 JUMPI PUSH2 0x4875 PUSH2 0xF0D7 JUMP JUMPDEST JUMPDEST PUSH1 0x20 MUL PUSH1 0x20 ADD ADD SWAP1 PUSH2 0xFFFF AND SWAP1 DUP2 PUSH2 0xFFFF AND DUP2 MSTORE POP POP PUSH1 0x2 DUP2 PUSH1 0x72 PUSH1 0xD3 DUP2 GT ISZERO PUSH2 0x48A3 JUMPI PUSH2 0x48A2 PUSH2 0xEAFB JUMP JUMPDEST JUMPDEST DUP2 MLOAD DUP2 LT PUSH2 0x48B4 JUMPI PUSH2 0x48B3 PUSH2 0xF0D7 JUMP JUMPDEST JUMPDEST PUSH1 0x20 MUL PUSH1 0x20 ADD ADD SWAP1 PUSH2 0xFFFF AND SWAP1 DUP2 PUSH2 0xFFFF AND DUP2 MSTORE POP POP PUSH1 0x2 DUP2 PUSH1 0x75 PUSH1 0xD3 DUP2 GT ISZERO PUSH2 0x48E1 JUMPI PUSH2 0x48E0 PUSH2 0xEAFB JUMP JUMPDEST JUMPDEST DUP2 MLOAD DUP2 LT PUSH2 0x48F2 JUMPI PUSH2 0x48F1 PUSH2 0xF0D7 JUMP JUMPDEST JUMPDEST PUSH1 0x20 MUL PUSH1 0x20 ADD ADD SWAP1 PUSH2 0xFFFF AND SWAP1 DUP2 PUSH2 0xFFFF AND DUP2 MSTORE POP POP PUSH1 0x2 DUP2 PUSH1 0x7A PUSH1 0xD3 DUP2 GT ISZERO PUSH2 0x491F JUMPI PUSH2 0x491E PUSH2 0xEAFB JUMP JUMPDEST JUMPDEST DUP2 MLOAD DUP2 LT PUSH2 0x4930 JUMPI PUSH2 0x492F PUSH2 0xF0D7 JUMP JUMPDEST JUMPDEST PUSH1 0x20 MUL PUSH1 0x20 ADD ADD SWAP1 PUSH2 0xFFFF AND SWAP1 DUP2 PUSH2 0xFFFF AND DUP2 MSTORE POP POP PUSH1 0x2 DUP2 PUSH1 0x7B PUSH1 0xD3 DUP2 GT ISZERO PUSH2 0x495D JUMPI PUSH2 0x495C PUSH2 0xEAFB JUMP JUMPDEST JUMPDEST DUP2 MLOAD DUP2 LT PUSH2 0x496E JUMPI PUSH2 0x496D PUSH2 0xF0D7 JUMP JUMPDEST JUMPDEST PUSH1 0x20 MUL PUSH1 0x20 ADD ADD SWAP1 PUSH2 0xFFFF AND SWAP1 DUP2 PUSH2 0xFFFF AND DUP2 MSTORE POP POP PUSH1 0x2 DUP2 PUSH1 0x7C PUSH1 0xD3 DUP2 GT ISZERO PUSH2 0x499B JUMPI PUSH2 0x499A PUSH2 0xEAFB JUMP JUMPDEST JUMPDEST DUP2 MLOAD DUP2 LT PUSH2 0x49AC JUMPI PUSH2 0x49AB PUSH2 0xF0D7 JUMP JUMPDEST JUMPDEST PUSH1 0x20 MUL PUSH1 0x20 ADD ADD SWAP1 PUSH2 0xFFFF AND SWAP1 DUP2 PUSH2 0xFFFF AND DUP2 MSTORE POP POP PUSH1 0x2 DUP2 PUSH1 0x7D PUSH1 0xD3 DUP2 GT ISZERO PUSH2 0x49D9 JUMPI PUSH2 0x49D8 PUSH2 0xEAFB JUMP JUMPDEST JUMPDEST DUP2 MLOAD DUP2 LT PUSH2 0x49EA JUMPI PUSH2 0x49E9 PUSH2 0xF0D7 JUMP JUMPDEST JUMPDEST PUSH1 0x20 MUL PUSH1 0x20 ADD ADD SWAP1 PUSH2 0xFFFF AND SWAP1 DUP2 PUSH2 0xFFFF AND DUP2 MSTORE POP POP PUSH1 0x2 DUP2 PUSH1 0x7E PUSH1 0xD3 DUP2 GT ISZERO PUSH2 0x4A17 JUMPI PUSH2 0x4A16 PUSH2 0xEAFB JUMP JUMPDEST JUMPDEST DUP2 MLOAD DUP2 LT PUSH2 0x4A28 JUMPI PUSH2 0x4A27 PUSH2 0xF0D7 JUMP JUMPDEST JUMPDEST PUSH1 0x20 MUL PUSH1 0x20 ADD ADD SWAP1 PUSH2 0xFFFF AND SWAP1 DUP2 PUSH2 0xFFFF AND DUP2 MSTORE POP POP PUSH1 0x2 DUP2 PUSH1 0x7F PUSH1 0xD3 DUP2 GT ISZERO PUSH2 0x4A55 JUMPI PUSH2 0x4A54 PUSH2 0xEAFB JUMP JUMPDEST JUMPDEST DUP2 MLOAD DUP2 LT PUSH2 0x4A66 JUMPI PUSH2 0x4A65 PUSH2 0xF0D7 JUMP JUMPDEST JUMPDEST PUSH1 0x20 MUL PUSH1 0x20 ADD ADD SWAP1 PUSH2 0xFFFF AND SWAP1 DUP2 PUSH2 0xFFFF AND DUP2 MSTORE POP POP PUSH1 0x1 DUP2 PUSH1 0x76 PUSH1 0xD3 DUP2 GT ISZERO PUSH2 0x4A93 JUMPI PUSH2 0x4A92 PUSH2 0xEAFB JUMP JUMPDEST JUMPDEST DUP2 MLOAD DUP2 LT PUSH2 0x4AA4 JUMPI PUSH2 0x4AA3 PUSH2 0xF0D7 JUMP JUMPDEST JUMPDEST PUSH1 0x20 MUL PUSH1 0x20 ADD ADD SWAP1 PUSH2 0xFFFF AND SWAP1 DUP2 PUSH2 0xFFFF AND DUP2 MSTORE POP POP PUSH1 0x1 DUP2 PUSH1 0x77 PUSH1 0xD3 DUP2 GT ISZERO PUSH2 0x4AD1 JUMPI PUSH2 0x4AD0 PUSH2 0xEAFB JUMP JUMPDEST JUMPDEST DUP2 MLOAD DUP2 LT PUSH2 0x4AE2 JUMPI PUSH2 0x4AE1 PUSH2 0xF0D7 JUMP JUMPDEST JUMPDEST PUSH1 0x20 MUL PUSH1 0x20 ADD ADD SWAP1 PUSH2 0xFFFF AND SWAP1 DUP2 PUSH2 0xFFFF AND DUP2 MSTORE POP POP PUSH1 0x1 DUP2 PUSH1 0x78 PUSH1 0xD3 DUP2 GT ISZERO PUSH2 0x4B0F JUMPI PUSH2 0x4B0E PUSH2 0xEAFB JUMP JUMPDEST JUMPDEST DUP2 MLOAD DUP2 LT PUSH2 0x4B20 JUMPI PUSH2 0x4B1F PUSH2 0xF0D7 JUMP JUMPDEST JUMPDEST PUSH1 0x20 MUL PUSH1 0x20 ADD ADD SWAP1 PUSH2 0xFFFF AND SWAP1 DUP2 PUSH2 0xFFFF AND DUP2 MSTORE POP POP PUSH1 0x1 DUP2 PUSH1 0x79 PUSH1 0xD3 DUP2 GT ISZERO PUSH2 0x4B4D JUMPI PUSH2 0x4B4C PUSH2 0xEAFB JUMP JUMPDEST JUMPDEST DUP2 MLOAD DUP2 LT PUSH2 0x4B5E JUMPI PUSH2 0x4B5D PUSH2 0xF0D7 JUMP JUMPDEST JUMPDEST PUSH1 0x20 MUL PUSH1 0x20 ADD ADD SWAP1 PUSH2 0xFFFF AND SWAP1 DUP2 PUSH2 0xFFFF AND DUP2 MSTORE POP POP PUSH1 0x96 DUP2 PUSH1 0x80 PUSH1 0xD3 DUP2 GT ISZERO PUSH2 0x4B8B JUMPI PUSH2 0x4B8A PUSH2 0xEAFB JUMP JUMPDEST JUMPDEST DUP2 MLOAD DUP2 LT PUSH2 0x4B9C JUMPI PUSH2 0x4B9B PUSH2 0xF0D7 JUMP JUMPDEST JUMPDEST PUSH1 0x20 MUL PUSH1 0x20 ADD ADD SWAP1 PUSH2 0xFFFF AND SWAP1 DUP2 PUSH2 0xFFFF AND DUP2 MSTORE POP POP PUSH1 0x4B DUP2 PUSH1 0x81 PUSH1 0xD3 DUP2 GT ISZERO PUSH2 0x4BC9 JUMPI PUSH2 0x4BC8 PUSH2 0xEAFB JUMP JUMPDEST JUMPDEST DUP2 MLOAD DUP2 LT PUSH2 0x4BDA JUMPI PUSH2 0x4BD9 PUSH2 0xF0D7 JUMP JUMPDEST JUMPDEST PUSH1 0x20 MUL PUSH1 0x20 ADD ADD SWAP1 PUSH2 0xFFFF AND SWAP1 DUP2 PUSH2 0xFFFF AND DUP2 MSTORE POP POP PUSH1 0x19 DUP2 PUSH1 0x82 PUSH1 0xD3 DUP2 GT ISZERO PUSH2 0x4C07 JUMPI PUSH2 0x4C06 PUSH2 0xEAFB JUMP JUMPDEST JUMPDEST DUP2 MLOAD DUP2 LT PUSH2 0x4C18 JUMPI PUSH2 0x4C17 PUSH2 0xF0D7 JUMP JUMPDEST JUMPDEST PUSH1 0x20 MUL PUSH1 0x20 ADD ADD SWAP1 PUSH2 0xFFFF AND SWAP1 DUP2 PUSH2 0xFFFF AND DUP2 MSTORE POP POP PUSH1 0x37 DUP2 PUSH1 0x83 PUSH1 0xD3 DUP2 GT ISZERO PUSH2 0x4C45 JUMPI PUSH2 0x4C44 PUSH2 0xEAFB JUMP JUMPDEST JUMPDEST DUP2 MLOAD DUP2 LT PUSH2 0x4C56 JUMPI PUSH2 0x4C55 PUSH2 0xF0D7 JUMP JUMPDEST JUMPDEST PUSH1 0x20 MUL PUSH1 0x20 ADD ADD SWAP1 PUSH2 0xFFFF AND SWAP1 DUP2 PUSH2 0xFFFF AND DUP2 MSTORE POP POP PUSH1 0x2D DUP2 PUSH1 0x85 PUSH1 0xD3 DUP2 GT ISZERO PUSH2 0x4C83 JUMPI PUSH2 0x4C82 PUSH2 0xEAFB JUMP JUMPDEST JUMPDEST DUP2 MLOAD DUP2 LT PUSH2 0x4C94 JUMPI PUSH2 0x4C93 PUSH2 0xF0D7 JUMP JUMPDEST JUMPDEST PUSH1 0x20 MUL PUSH1 0x20 ADD ADD SWAP1 PUSH2 0xFFFF AND SWAP1 DUP2 PUSH2 0xFFFF AND DUP2 MSTORE POP POP PUSH1 0x23 DUP2 PUSH1 0x84 PUSH1 0xD3 DUP2 GT ISZERO PUSH2 0x4CC1 JUMPI PUSH2 0x4CC0 PUSH2 0xEAFB JUMP JUMPDEST JUMPDEST DUP2 MLOAD DUP2 LT PUSH2 0x4CD2 JUMPI PUSH2 0x4CD1 PUSH2 0xF0D7 JUMP JUMPDEST JUMPDEST PUSH1 0x20 MUL PUSH1 0x20 ADD ADD SWAP1 PUSH2 0xFFFF AND SWAP1 DUP2 PUSH2 0xFFFF AND DUP2 MSTORE POP POP PUSH1 0x19 DUP2 PUSH1 0x86 PUSH1 0xD3 DUP2 GT ISZERO PUSH2 0x4CFF JUMPI PUSH2 0x4CFE PUSH2 0xEAFB JUMP JUMPDEST JUMPDEST DUP2 MLOAD DUP2 LT PUSH2 0x4D10 JUMPI PUSH2 0x4D0F PUSH2 0xF0D7 JUMP JUMPDEST JUMPDEST PUSH1 0x20 MUL PUSH1 0x20 ADD ADD SWAP1 PUSH2 0xFFFF AND SWAP1 DUP2 PUSH2 0xFFFF AND DUP2 MSTORE POP POP PUSH1 0xF DUP2 PUSH1 0x87 PUSH1 0xD3 DUP2 GT ISZERO PUSH2 0x4D3D JUMPI PUSH2 0x4D3C PUSH2 0xEAFB JUMP JUMPDEST JUMPDEST DUP2 MLOAD DUP2 LT PUSH2 0x4D4E JUMPI PUSH2 0x4D4D PUSH2 0xF0D7 JUMP JUMPDEST JUMPDEST PUSH1 0x20 MUL PUSH1 0x20 ADD ADD SWAP1 PUSH2 0xFFFF AND SWAP1 DUP2 PUSH2 0xFFFF AND DUP2 MSTORE POP POP PUSH1 0x4 DUP2 PUSH1 0x88 PUSH1 0xD3 DUP2 GT ISZERO PUSH2 0x4D7B JUMPI PUSH2 0x4D7A PUSH2 0xEAFB JUMP JUMPDEST JUMPDEST DUP2 MLOAD DUP2 LT PUSH2 0x4D8C JUMPI PUSH2 0x4D8B PUSH2 0xF0D7 JUMP JUMPDEST JUMPDEST PUSH1 0x20 MUL PUSH1 0x20 ADD ADD SWAP1 PUSH2 0xFFFF AND SWAP1 DUP2 PUSH2 0xFFFF AND DUP2 MSTORE POP POP PUSH1 0x3 DUP2 PUSH1 0x8B PUSH1 0xD3 DUP2 GT ISZERO PUSH2 0x4DB9 JUMPI PUSH2 0x4DB8 PUSH2 0xEAFB JUMP JUMPDEST JUMPDEST DUP2 MLOAD DUP2 LT PUSH2 0x4DCA JUMPI PUSH2 0x4DC9 PUSH2 0xF0D7 JUMP JUMPDEST JUMPDEST PUSH1 0x20 MUL PUSH1 0x20 ADD ADD SWAP1 PUSH2 0xFFFF AND SWAP1 DUP2 PUSH2 0xFFFF AND DUP2 MSTORE POP POP PUSH1 0x2 DUP2 PUSH1 0x89 PUSH1 0xD3 DUP2 GT ISZERO PUSH2 0x4DF7 JUMPI PUSH2 0x4DF6 PUSH2 0xEAFB JUMP JUMPDEST JUMPDEST DUP2 MLOAD DUP2 LT PUSH2 0x4E08 JUMPI PUSH2 0x4E07 PUSH2 0xF0D7 JUMP JUMPDEST JUMPDEST PUSH1 0x20 MUL PUSH1 0x20 ADD ADD SWAP1 PUSH2 0xFFFF AND SWAP1 DUP2 PUSH2 0xFFFF AND DUP2 MSTORE POP POP PUSH1 0x1 DUP2 PUSH1 0x8C PUSH1 0xD3 DUP2 GT ISZERO PUSH2 0x4E35 JUMPI PUSH2 0x4E34 PUSH2 0xEAFB JUMP JUMPDEST JUMPDEST DUP2 MLOAD DUP2 LT PUSH2 0x4E46 JUMPI PUSH2 0x4E45 PUSH2 0xF0D7 JUMP JUMPDEST JUMPDEST PUSH1 0x20 MUL PUSH1 0x20 ADD ADD SWAP1 PUSH2 0xFFFF AND SWAP1 DUP2 PUSH2 0xFFFF AND DUP2 MSTORE POP POP PUSH1 0x2 DUP2 PUSH1 0x8A PUSH1 0xD3 DUP2 GT ISZERO PUSH2 0x4E73 JUMPI PUSH2 0x4E72 PUSH2 0xEAFB JUMP JUMPDEST JUMPDEST DUP2 MLOAD DUP2 LT PUSH2 0x4E84 JUMPI PUSH2 0x4E83 PUSH2 0xF0D7 JUMP JUMPDEST JUMPDEST PUSH1 0x20 MUL PUSH1 0x20 ADD ADD SWAP1 PUSH2 0xFFFF AND SWAP1 DUP2 PUSH2 0xFFFF AND DUP2 MSTORE POP POP PUSH1 0x2 DUP2 PUSH1 0x8D PUSH1 0xD3 DUP2 GT ISZERO PUSH2 0x4EB1 JUMPI PUSH2 0x4EB0 PUSH2 0xEAFB JUMP JUMPDEST JUMPDEST DUP2 MLOAD DUP2 LT PUSH2 0x4EC2 JUMPI PUSH2 0x4EC1 PUSH2 0xF0D7 JUMP JUMPDEST JUMPDEST PUSH1 0x20 MUL PUSH1 0x20 ADD ADD SWAP1 PUSH2 0xFFFF AND SWAP1 DUP2 PUSH2 0xFFFF AND DUP2 MSTORE POP POP PUSH1 0x2 DUP2 PUSH1 0x92 PUSH1 0xD3 DUP2 GT ISZERO PUSH2 0x4EEF JUMPI PUSH2 0x4EEE PUSH2 0xEAFB JUMP JUMPDEST JUMPDEST DUP2 MLOAD DUP2 LT PUSH2 0x4F00 JUMPI PUSH2 0x4EFF PUSH2 0xF0D7 JUMP JUMPDEST JUMPDEST PUSH1 0x20 MUL PUSH1 0x20 ADD ADD SWAP1 PUSH2 0xFFFF AND SWAP1 DUP2 PUSH2 0xFFFF AND DUP2 MSTORE POP POP PUSH1 0x2 DUP2 PUSH1 0x93 PUSH1 0xD3 DUP2 GT ISZERO PUSH2 0x4F2D JUMPI PUSH2 0x4F2C PUSH2 0xEAFB JUMP JUMPDEST JUMPDEST DUP2 MLOAD DUP2 LT PUSH2 0x4F3E JUMPI PUSH2 0x4F3D PUSH2 0xF0D7 JUMP JUMPDEST JUMPDEST PUSH1 0x20 MUL PUSH1 0x20 ADD ADD SWAP1 PUSH2 0xFFFF AND SWAP1 DUP2 PUSH2 0xFFFF AND DUP2 MSTORE POP POP PUSH1 0x2 DUP2 PUSH1 0x94 PUSH1 0xD3 DUP2 GT ISZERO PUSH2 0x4F6B JUMPI PUSH2 0x4F6A PUSH2 0xEAFB JUMP JUMPDEST JUMPDEST DUP2 MLOAD DUP2 LT PUSH2 0x4F7C JUMPI PUSH2 0x4F7B PUSH2 0xF0D7 JUMP JUMPDEST JUMPDEST PUSH1 0x20 MUL PUSH1 0x20 ADD ADD SWAP1 PUSH2 0xFFFF AND SWAP1 DUP2 PUSH2 0xFFFF AND DUP2 MSTORE POP POP PUSH1 0x2 DUP2 PUSH1 0x95 PUSH1 0xD3 DUP2 GT ISZERO PUSH2 0x4FA9 JUMPI PUSH2 0x4FA8 PUSH2 0xEAFB JUMP JUMPDEST JUMPDEST DUP2 MLOAD DUP2 LT PUSH2 0x4FBA JUMPI PUSH2 0x4FB9 PUSH2 0xF0D7 JUMP JUMPDEST JUMPDEST PUSH1 0x20 MUL PUSH1 0x20 ADD ADD SWAP1 PUSH2 0xFFFF AND SWAP1 DUP2 PUSH2 0xFFFF AND DUP2 MSTORE POP POP PUSH1 0x2 DUP2 PUSH1 0x96 PUSH1 0xD3 DUP2 GT ISZERO PUSH2 0x4FE7 JUMPI PUSH2 0x4FE6 PUSH2 0xEAFB JUMP JUMPDEST JUMPDEST DUP2 MLOAD DUP2 LT PUSH2 0x4FF8 JUMPI PUSH2 0x4FF7 PUSH2 0xF0D7 JUMP JUMPDEST JUMPDEST PUSH1 0x20 MUL PUSH1 0x20 ADD ADD SWAP1 PUSH2 0xFFFF AND SWAP1 DUP2 PUSH2 0xFFFF AND DUP2 MSTORE POP POP PUSH1 0x2 DUP2 PUSH1 0x97 PUSH1 0xD3 DUP2 GT ISZERO PUSH2 0x5025 JUMPI PUSH2 0x5024 PUSH2 0xEAFB JUMP JUMPDEST JUMPDEST DUP2 MLOAD DUP2 LT PUSH2 0x5036 JUMPI PUSH2 0x5035 PUSH2 0xF0D7 JUMP JUMPDEST JUMPDEST PUSH1 0x20 MUL PUSH1 0x20 ADD ADD SWAP1 PUSH2 0xFFFF AND SWAP1 DUP2 PUSH2 0xFFFF AND DUP2 MSTORE POP POP PUSH1 0x1 DUP2 PUSH1 0x8E PUSH1 0xD3 DUP2 GT ISZERO PUSH2 0x5063 JUMPI PUSH2 0x5062 PUSH2 0xEAFB JUMP JUMPDEST JUMPDEST DUP2 MLOAD DUP2 LT PUSH2 0x5074 JUMPI PUSH2 0x5073 PUSH2 0xF0D7 JUMP JUMPDEST JUMPDEST PUSH1 0x20 MUL PUSH1 0x20 ADD ADD SWAP1 PUSH2 0xFFFF AND SWAP1 DUP2 PUSH2 0xFFFF AND DUP2 MSTORE POP POP PUSH1 0x1 DUP2 PUSH1 0x8F PUSH1 0xD3 DUP2 GT ISZERO PUSH2 0x50A1 JUMPI PUSH2 0x50A0 PUSH2 0xEAFB JUMP JUMPDEST JUMPDEST DUP2 MLOAD DUP2 LT PUSH2 0x50B2 JUMPI PUSH2 0x50B1 PUSH2 0xF0D7 JUMP JUMPDEST JUMPDEST PUSH1 0x20 MUL PUSH1 0x20 ADD ADD SWAP1 PUSH2 0xFFFF AND SWAP1 DUP2 PUSH2 0xFFFF AND DUP2 MSTORE POP POP PUSH1 0x1 DUP2 PUSH1 0x90 PUSH1 0xD3 DUP2 GT ISZERO PUSH2 0x50DF JUMPI PUSH2 0x50DE PUSH2 0xEAFB JUMP JUMPDEST JUMPDEST DUP2 MLOAD DUP2 LT PUSH2 0x50F0 JUMPI PUSH2 0x50EF PUSH2 0xF0D7 JUMP JUMPDEST JUMPDEST PUSH1 0x20 MUL PUSH1 0x20 ADD ADD SWAP1 PUSH2 0xFFFF AND SWAP1 DUP2 PUSH2 0xFFFF AND DUP2 MSTORE POP POP PUSH1 0x1 DUP2 PUSH1 0x91 PUSH1 0xD3 DUP2 GT ISZERO PUSH2 0x511D JUMPI PUSH2 0x511C PUSH2 0xEAFB JUMP JUMPDEST JUMPDEST DUP2 MLOAD DUP2 LT PUSH2 0x512E JUMPI PUSH2 0x512D PUSH2 0xF0D7 JUMP JUMPDEST JUMPDEST PUSH1 0x20 MUL PUSH1 0x20 ADD ADD SWAP1 PUSH2 0xFFFF AND SWAP1 DUP2 PUSH2 0xFFFF AND DUP2 MSTORE POP POP PUSH2 0x4B0 DUP2 PUSH1 0x98 PUSH1 0xD3 DUP2 GT ISZERO PUSH2 0x515C JUMPI PUSH2 0x515B PUSH2 0xEAFB JUMP JUMPDEST JUMPDEST DUP2 MLOAD DUP2 LT PUSH2 0x516D JUMPI PUSH2 0x516C PUSH2 0xF0D7 JUMP JUMPDEST JUMPDEST PUSH1 0x20 MUL PUSH1 0x20 ADD ADD SWAP1 PUSH2 0xFFFF AND SWAP1 DUP2 PUSH2 0xFFFF AND DUP2 MSTORE POP POP PUSH1 0x6 DUP2 PUSH1 0x99 PUSH1 0xD3 DUP2 GT ISZERO PUSH2 0x519A JUMPI PUSH2 0x5199 PUSH2 0xEAFB JUMP JUMPDEST JUMPDEST DUP2 MLOAD DUP2 LT PUSH2 0x51AB JUMPI PUSH2 0x51AA PUSH2 0xF0D7 JUMP JUMPDEST JUMPDEST PUSH1 0x20 MUL PUSH1 0x20 ADD ADD SWAP1 PUSH2 0xFFFF AND SWAP1 DUP2 PUSH2 0xFFFF AND DUP2 MSTORE POP POP PUSH1 0x5 DUP2 PUSH1 0x9C PUSH1 0xD3 DUP2 GT ISZERO PUSH2 0x51D8 JUMPI PUSH2 0x51D7 PUSH2 0xEAFB JUMP JUMPDEST JUMPDEST DUP2 MLOAD DUP2 LT PUSH2 0x51E9 JUMPI PUSH2 0x51E8 PUSH2 0xF0D7 JUMP JUMPDEST JUMPDEST PUSH1 0x20 MUL PUSH1 0x20 ADD ADD SWAP1 PUSH2 0xFFFF AND SWAP1 DUP2 PUSH2 0xFFFF AND DUP2 MSTORE POP POP PUSH1 0x4 DUP2 PUSH1 0x9A PUSH1 0xD3 DUP2 GT ISZERO PUSH2 0x5216 JUMPI PUSH2 0x5215 PUSH2 0xEAFB JUMP JUMPDEST JUMPDEST DUP2 MLOAD DUP2 LT PUSH2 0x5227 JUMPI PUSH2 0x5226 PUSH2 0xF0D7 JUMP JUMPDEST JUMPDEST PUSH1 0x20 MUL PUSH1 0x20 ADD ADD SWAP1 PUSH2 0xFFFF AND SWAP1 DUP2 PUSH2 0xFFFF AND DUP2 MSTORE POP POP PUSH1 0x2 DUP2 PUSH1 0x9D PUSH1 0xD3 DUP2 GT ISZERO PUSH2 0x5254 JUMPI PUSH2 0x5253 PUSH2 0xEAFB JUMP JUMPDEST JUMPDEST DUP2 MLOAD DUP2 LT PUSH2 0x5265 JUMPI PUSH2 0x5264 PUSH2 0xF0D7 JUMP JUMPDEST JUMPDEST PUSH1 0x20 MUL PUSH1 0x20 ADD ADD SWAP1 PUSH2 0xFFFF AND SWAP1 DUP2 PUSH2 0xFFFF AND DUP2 MSTORE POP POP PUSH1 0x1 DUP2 PUSH1 0x9B PUSH1 0xD3 DUP2 GT ISZERO PUSH2 0x5292 JUMPI PUSH2 0x5291 PUSH2 0xEAFB JUMP JUMPDEST JUMPDEST DUP2 MLOAD DUP2 LT PUSH2 0x52A3 JUMPI PUSH2 0x52A2 PUSH2 0xF0D7 JUMP JUMPDEST JUMPDEST PUSH1 0x20 MUL PUSH1 0x20 ADD ADD SWAP1 PUSH2 0xFFFF AND SWAP1 DUP2 PUSH2 0xFFFF AND DUP2 MSTORE POP POP PUSH1 0x1 DUP2 PUSH1 0x9E PUSH1 0xD3 DUP2 GT ISZERO PUSH2 0x52D0 JUMPI PUSH2 0x52CF PUSH2 0xEAFB JUMP JUMPDEST JUMPDEST DUP2 MLOAD DUP2 LT PUSH2 0x52E1 JUMPI PUSH2 0x52E0 PUSH2 0xF0D7 JUMP JUMPDEST JUMPDEST PUSH1 0x20 MUL PUSH1 0x20 ADD ADD SWAP1 PUSH2 0xFFFF AND SWAP1 DUP2 PUSH2 0xFFFF AND DUP2 MSTORE POP POP PUSH1 0x1 DUP2 PUSH1 0x9F PUSH1 0xD3 DUP2 GT ISZERO PUSH2 0x530E JUMPI PUSH2 0x530D PUSH2 0xEAFB JUMP JUMPDEST JUMPDEST DUP2 MLOAD DUP2 LT PUSH2 0x531F JUMPI PUSH2 0x531E PUSH2 0xF0D7 JUMP JUMPDEST JUMPDEST PUSH1 0x20 MUL PUSH1 0x20 ADD ADD SWAP1 PUSH2 0xFFFF AND SWAP1 DUP2 PUSH2 0xFFFF AND DUP2 MSTORE POP POP PUSH1 0x1 DUP2 PUSH1 0xA0 PUSH1 0xD3 DUP2 GT ISZERO PUSH2 0x534C JUMPI PUSH2 0x534B PUSH2 0xEAFB JUMP JUMPDEST JUMPDEST DUP2 MLOAD DUP2 LT PUSH2 0x535D JUMPI PUSH2 0x535C PUSH2 0xF0D7 JUMP JUMPDEST JUMPDEST PUSH1 0x20 MUL PUSH1 0x20 ADD ADD SWAP1 PUSH2 0xFFFF AND SWAP1 DUP2 PUSH2 0xFFFF AND DUP2 MSTORE POP POP PUSH1 0x1 DUP2 PUSH1 0xA1 PUSH1 0xD3 DUP2 GT ISZERO PUSH2 0x538A JUMPI PUSH2 0x5389 PUSH2 0xEAFB JUMP JUMPDEST JUMPDEST DUP2 MLOAD DUP2 LT PUSH2 0x539B JUMPI PUSH2 0x539A PUSH2 0xF0D7 JUMP JUMPDEST JUMPDEST PUSH1 0x20 MUL PUSH1 0x20 ADD ADD SWAP1 PUSH2 0xFFFF AND SWAP1 DUP2 PUSH2 0xFFFF AND DUP2 MSTORE POP POP PUSH1 0x1 DUP2 PUSH1 0xA2 PUSH1 0xD3 DUP2 GT ISZERO PUSH2 0x53C8 JUMPI PUSH2 0x53C7 PUSH2 0xEAFB JUMP JUMPDEST JUMPDEST DUP2 MLOAD DUP2 LT PUSH2 0x53D9 JUMPI PUSH2 0x53D8 PUSH2 0xF0D7 JUMP JUMPDEST JUMPDEST PUSH1 0x20 MUL PUSH1 0x20 ADD ADD SWAP1 PUSH2 0xFFFF AND SWAP1 DUP2 PUSH2 0xFFFF AND DUP2 MSTORE POP POP PUSH1 0x1 DUP2 PUSH1 0xA3 PUSH1 0xD3 DUP2 GT ISZERO PUSH2 0x5406 JUMPI PUSH2 0x5405 PUSH2 0xEAFB JUMP JUMPDEST JUMPDEST DUP2 MLOAD DUP2 LT PUSH2 0x5417 JUMPI PUSH2 0x5416 PUSH2 0xF0D7 JUMP JUMPDEST JUMPDEST PUSH1 0x20 MUL PUSH1 0x20 ADD ADD SWAP1 PUSH2 0xFFFF AND SWAP1 DUP2 PUSH2 0xFFFF AND DUP2 MSTORE POP POP PUSH1 0x1 DUP2 PUSH1 0xA4 PUSH1 0xD3 DUP2 GT ISZERO PUSH2 0x5444 JUMPI PUSH2 0x5443 PUSH2 0xEAFB JUMP JUMPDEST JUMPDEST DUP2 MLOAD DUP2 LT PUSH2 0x5455 JUMPI PUSH2 0x5454 PUSH2 0xF0D7 JUMP JUMPDEST JUMPDEST PUSH1 0x20 MUL PUSH1 0x20 ADD ADD SWAP1 PUSH2 0xFFFF AND SWAP1 DUP2 PUSH2 0xFFFF AND DUP2 MSTORE POP POP PUSH2 0x4B0 DUP2 PUSH1 0xA5 PUSH1 0xD3 DUP2 GT ISZERO PUSH2 0x5483 JUMPI PUSH2 0x5482 PUSH2 0xEAFB JUMP JUMPDEST JUMPDEST DUP2 MLOAD DUP2 LT PUSH2 0x5494 JUMPI PUSH2 0x5493 PUSH2 0xF0D7 JUMP JUMPDEST JUMPDEST PUSH1 0x20 MUL PUSH1 0x20 ADD ADD SWAP1 PUSH2 0xFFFF AND SWAP1 DUP2 PUSH2 0xFFFF AND DUP2 MSTORE POP POP PUSH1 0x37 DUP2 PUSH1 0xA6 PUSH1 0xD3 DUP2 GT ISZERO PUSH2 0x54C1 JUMPI PUSH2 0x54C0 PUSH2 0xEAFB JUMP JUMPDEST JUMPDEST DUP2 MLOAD DUP2 LT PUSH2 0x54D2 JUMPI PUSH2 0x54D1 PUSH2 0xF0D7 JUMP JUMPDEST JUMPDEST PUSH1 0x20 MUL PUSH1 0x20 ADD ADD SWAP1 PUSH2 0xFFFF AND SWAP1 DUP2 PUSH2 0xFFFF AND DUP2 MSTORE POP POP PUSH1 0x2D DUP2 PUSH1 0xA7 PUSH1 0xD3 DUP2 GT ISZERO PUSH2 0x54FF JUMPI PUSH2 0x54FE PUSH2 0xEAFB JUMP JUMPDEST JUMPDEST DUP2 MLOAD DUP2 LT PUSH2 0x5510 JUMPI PUSH2 0x550F PUSH2 0xF0D7 JUMP JUMPDEST JUMPDEST PUSH1 0x20 MUL PUSH1 0x20 ADD ADD SWAP1 PUSH2 0xFFFF AND SWAP1 DUP2 PUSH2 0xFFFF AND DUP2 MSTORE POP POP PUSH1 0x23 DUP2 PUSH1 0xA8 PUSH1 0xD3 DUP2 GT ISZERO PUSH2 0x553D JUMPI PUSH2 0x553C PUSH2 0xEAFB JUMP JUMPDEST JUMPDEST DUP2 MLOAD DUP2 LT PUSH2 0x554E JUMPI PUSH2 0x554D PUSH2 0xF0D7 JUMP JUMPDEST JUMPDEST PUSH1 0x20 MUL PUSH1 0x20 ADD ADD SWAP1 PUSH2 0xFFFF AND SWAP1 DUP2 PUSH2 0xFFFF AND DUP2 MSTORE POP POP PUSH1 0x19 DUP2 PUSH1 0xA9 PUSH1 0xD3 DUP2 GT ISZERO PUSH2 0x557B JUMPI PUSH2 0x557A PUSH2 0xEAFB JUMP JUMPDEST JUMPDEST DUP2 MLOAD DUP2 LT PUSH2 0x558C JUMPI PUSH2 0x558B PUSH2 0xF0D7 JUMP JUMPDEST JUMPDEST PUSH1 0x20 MUL PUSH1 0x20 ADD ADD SWAP1 PUSH2 0xFFFF AND SWAP1 DUP2 PUSH2 0xFFFF AND DUP2 MSTORE POP POP PUSH1 0xF DUP2 PUSH1 0xAA PUSH1 0xD3 DUP2 GT ISZERO PUSH2 0x55B9 JUMPI PUSH2 0x55B8 PUSH2 0xEAFB JUMP JUMPDEST JUMPDEST DUP2 MLOAD DUP2 LT PUSH2 0x55CA JUMPI PUSH2 0x55C9 PUSH2 0xF0D7 JUMP JUMPDEST JUMPDEST PUSH1 0x20 MUL PUSH1 0x20 ADD ADD SWAP1 PUSH2 0xFFFF AND SWAP1 DUP2 PUSH2 0xFFFF AND DUP2 MSTORE POP POP PUSH1 0x14 DUP2 PUSH1 0xAB PUSH1 0xD3 DUP2 GT ISZERO PUSH2 0x55F7 JUMPI PUSH2 0x55F6 PUSH2 0xEAFB JUMP JUMPDEST JUMPDEST DUP2 MLOAD DUP2 LT PUSH2 0x5608 JUMPI PUSH2 0x5607 PUSH2 0xF0D7 JUMP JUMPDEST JUMPDEST PUSH1 0x20 MUL PUSH1 0x20 ADD ADD SWAP1 PUSH2 0xFFFF AND SWAP1 DUP2 PUSH2 0xFFFF AND DUP2 MSTORE POP POP PUSH1 0x10 DUP2 PUSH1 0xAE PUSH1 0xD3 DUP2 GT ISZERO PUSH2 0x5635 JUMPI PUSH2 0x5634 PUSH2 0xEAFB JUMP JUMPDEST JUMPDEST DUP2 MLOAD DUP2 LT PUSH2 0x5646 JUMPI PUSH2 0x5645 PUSH2 0xF0D7 JUMP JUMPDEST JUMPDEST PUSH1 0x20 MUL PUSH1 0x20 ADD ADD SWAP1 PUSH2 0xFFFF AND SWAP1 DUP2 PUSH2 0xFFFF AND DUP2 MSTORE POP POP PUSH1 0xC DUP2 PUSH1 0xAC PUSH1 0xD3 DUP2 GT ISZERO PUSH2 0x5673 JUMPI PUSH2 0x5672 PUSH2 0xEAFB JUMP JUMPDEST JUMPDEST DUP2 MLOAD DUP2 LT PUSH2 0x5684 JUMPI PUSH2 0x5683 PUSH2 0xF0D7 JUMP JUMPDEST JUMPDEST PUSH1 0x20 MUL PUSH1 0x20 ADD ADD SWAP1 PUSH2 0xFFFF AND SWAP1 DUP2 PUSH2 0xFFFF AND DUP2 MSTORE POP POP PUSH1 0x8 DUP2 PUSH1 0xAF PUSH1 0xD3 DUP2 GT ISZERO PUSH2 0x56B1 JUMPI PUSH2 0x56B0 PUSH2 0xEAFB JUMP JUMPDEST JUMPDEST DUP2 MLOAD DUP2 LT PUSH2 0x56C2 JUMPI PUSH2 0x56C1 PUSH2 0xF0D7 JUMP JUMPDEST JUMPDEST PUSH1 0x20 MUL PUSH1 0x20 ADD ADD SWAP1 PUSH2 0xFFFF AND SWAP1 DUP2 PUSH2 0xFFFF AND DUP2 MSTORE POP POP PUSH1 0x3 DUP2 PUSH1 0xAD PUSH1 0xD3 DUP2 GT ISZERO PUSH2 0x56EF JUMPI PUSH2 0x56EE PUSH2 0xEAFB JUMP JUMPDEST JUMPDEST DUP2 MLOAD DUP2 LT PUSH2 0x5700 JUMPI PUSH2 0x56FF PUSH2 0xF0D7 JUMP JUMPDEST JUMPDEST PUSH1 0x20 MUL PUSH1 0x20 ADD ADD SWAP1 PUSH2 0xFFFF AND SWAP1 DUP2 PUSH2 0xFFFF AND DUP2 MSTORE POP POP PUSH1 0x3 DUP2 PUSH1 0xB0 PUSH1 0xD3 DUP2 GT ISZERO PUSH2 0x572D JUMPI PUSH2 0x572C PUSH2 0xEAFB JUMP JUMPDEST JUMPDEST DUP2 MLOAD DUP2 LT PUSH2 0x573E JUMPI PUSH2 0x573D PUSH2 0xF0D7 JUMP JUMPDEST JUMPDEST PUSH1 0x20 MUL PUSH1 0x20 ADD ADD SWAP1 PUSH2 0xFFFF AND SWAP1 DUP2 PUSH2 0xFFFF AND DUP2 MSTORE POP POP PUSH1 0x3 DUP2 PUSH1 0xB1 PUSH1 0xD3 DUP2 GT ISZERO PUSH2 0x576B JUMPI PUSH2 0x576A PUSH2 0xEAFB JUMP JUMPDEST JUMPDEST DUP2 MLOAD DUP2 LT PUSH2 0x577C JUMPI PUSH2 0x577B PUSH2 0xF0D7 JUMP JUMPDEST JUMPDEST PUSH1 0x20 MUL PUSH1 0x20 ADD ADD SWAP1 PUSH2 0xFFFF AND SWAP1 DUP2 PUSH2 0xFFFF AND DUP2 MSTORE POP POP PUSH1 0x3 DUP2 PUSH1 0xB2 PUSH1 0xD3 DUP2 GT ISZERO PUSH2 0x57A9 JUMPI PUSH2 0x57A8 PUSH2 0xEAFB JUMP JUMPDEST JUMPDEST DUP2 MLOAD DUP2 LT PUSH2 0x57BA JUMPI PUSH2 0x57B9 PUSH2 0xF0D7 JUMP JUMPDEST JUMPDEST PUSH1 0x20 MUL PUSH1 0x20 ADD ADD SWAP1 PUSH2 0xFFFF AND SWAP1 DUP2 PUSH2 0xFFFF AND DUP2 MSTORE POP POP PUSH1 0x3 DUP2 PUSH1 0xB3 PUSH1 0xD3 DUP2 GT ISZERO PUSH2 0x57E7 JUMPI PUSH2 0x57E6 PUSH2 0xEAFB JUMP JUMPDEST JUMPDEST DUP2 MLOAD DUP2 LT PUSH2 0x57F8 JUMPI PUSH2 0x57F7 PUSH2 0xF0D7 JUMP JUMPDEST JUMPDEST PUSH1 0x20 MUL PUSH1 0x20 ADD ADD SWAP1 PUSH2 0xFFFF AND SWAP1 DUP2 PUSH2 0xFFFF AND DUP2 MSTORE POP POP PUSH1 0x3 DUP2 PUSH1 0xB4 PUSH1 0xD3 DUP2 GT ISZERO PUSH2 0x5825 JUMPI PUSH2 0x5824 PUSH2 0xEAFB JUMP JUMPDEST JUMPDEST DUP2 MLOAD DUP2 LT PUSH2 0x5836 JUMPI PUSH2 0x5835 PUSH2 0xF0D7 JUMP JUMPDEST JUMPDEST PUSH1 0x20 MUL PUSH1 0x20 ADD ADD SWAP1 PUSH2 0xFFFF AND SWAP1 DUP2 PUSH2 0xFFFF AND DUP2 MSTORE POP POP PUSH1 0x3 DUP2 PUSH1 0xB5 PUSH1 0xD3 DUP2 GT ISZERO PUSH2 0x5863 JUMPI PUSH2 0x5862 PUSH2 0xEAFB JUMP JUMPDEST JUMPDEST DUP2 MLOAD DUP2 LT PUSH2 0x5874 JUMPI PUSH2 0x5873 PUSH2 0xF0D7 JUMP JUMPDEST JUMPDEST PUSH1 0x20 MUL PUSH1 0x20 ADD ADD SWAP1 PUSH2 0xFFFF AND SWAP1 DUP2 PUSH2 0xFFFF AND DUP2 MSTORE POP POP PUSH1 0x3 DUP2 PUSH1 0xB6 PUSH1 0xD3 DUP2 GT ISZERO PUSH2 0x58A1 JUMPI PUSH2 0x58A0 PUSH2 0xEAFB JUMP JUMPDEST JUMPDEST DUP2 MLOAD DUP2 LT PUSH2 0x58B2 JUMPI PUSH2 0x58B1 PUSH2 0xF0D7 JUMP JUMPDEST JUMPDEST PUSH1 0x20 MUL PUSH1 0x20 ADD ADD SWAP1 PUSH2 0xFFFF AND SWAP1 DUP2 PUSH2 0xFFFF AND DUP2 MSTORE POP POP PUSH1 0x32 DUP2 PUSH1 0xB7 PUSH1 0xD3 DUP2 GT ISZERO PUSH2 0x58DF JUMPI PUSH2 0x58DE PUSH2 0xEAFB JUMP JUMPDEST JUMPDEST DUP2 MLOAD DUP2 LT PUSH2 0x58F0 JUMPI PUSH2 0x58EF PUSH2 0xF0D7 JUMP JUMPDEST JUMPDEST PUSH1 0x20 MUL PUSH1 0x20 ADD ADD SWAP1 PUSH2 0xFFFF AND SWAP1 DUP2 PUSH2 0xFFFF AND DUP2 MSTORE POP POP PUSH1 0x28 DUP2 PUSH1 0xB8 PUSH1 0xD3 DUP2 GT ISZERO PUSH2 0x591D JUMPI PUSH2 0x591C PUSH2 0xEAFB JUMP JUMPDEST JUMPDEST DUP2 MLOAD DUP2 LT PUSH2 0x592E JUMPI PUSH2 0x592D PUSH2 0xF0D7 JUMP JUMPDEST JUMPDEST PUSH1 0x20 MUL PUSH1 0x20 ADD ADD SWAP1 PUSH2 0xFFFF AND SWAP1 DUP2 PUSH2 0xFFFF AND DUP2 MSTORE POP POP PUSH1 0x1E DUP2 PUSH1 0xB9 PUSH1 0xD3 DUP2 GT ISZERO PUSH2 0x595B JUMPI PUSH2 0x595A PUSH2 0xEAFB JUMP JUMPDEST JUMPDEST DUP2 MLOAD DUP2 LT PUSH2 0x596C JUMPI PUSH2 0x596B PUSH2 0xF0D7 JUMP JUMPDEST JUMPDEST PUSH1 0x20 MUL PUSH1 0x20 ADD ADD SWAP1 PUSH2 0xFFFF AND SWAP1 DUP2 PUSH2 0xFFFF AND DUP2 MSTORE POP POP PUSH1 0x14 DUP2 PUSH1 0xBA PUSH1 0xD3 DUP2 GT ISZERO PUSH2 0x5999 JUMPI PUSH2 0x5998 PUSH2 0xEAFB JUMP JUMPDEST JUMPDEST DUP2 MLOAD DUP2 LT PUSH2 0x59AA JUMPI PUSH2 0x59A9 PUSH2 0xF0D7 JUMP JUMPDEST JUMPDEST PUSH1 0x20 MUL PUSH1 0x20 ADD ADD SWAP1 PUSH2 0xFFFF AND SWAP1 DUP2 PUSH2 0xFFFF AND DUP2 MSTORE POP POP PUSH1 0xA DUP2 PUSH1 0xBB PUSH1 0xD3 DUP2 GT ISZERO PUSH2 0x59D7 JUMPI PUSH2 0x59D6 PUSH2 0xEAFB JUMP JUMPDEST JUMPDEST DUP2 MLOAD DUP2 LT PUSH2 0x59E8 JUMPI PUSH2 0x59E7 PUSH2 0xF0D7 JUMP JUMPDEST JUMPDEST PUSH1 0x20 MUL PUSH1 0x20 ADD ADD SWAP1 PUSH2 0xFFFF AND SWAP1 DUP2 PUSH2 0xFFFF AND DUP2 MSTORE POP POP PUSH1 0x10 DUP2 PUSH1 0xBC PUSH1 0xD3 DUP2 GT ISZERO PUSH2 0x5A15 JUMPI PUSH2 0x5A14 PUSH2 0xEAFB JUMP JUMPDEST JUMPDEST DUP2 MLOAD DUP2 LT PUSH2 0x5A26 JUMPI PUSH2 0x5A25 PUSH2 0xF0D7 JUMP JUMPDEST JUMPDEST PUSH1 0x20 MUL PUSH1 0x20 ADD ADD SWAP1 PUSH2 0xFFFF AND SWAP1 DUP2 PUSH2 0xFFFF AND DUP2 MSTORE POP POP PUSH1 0xE DUP2 PUSH1 0xBF PUSH1 0xD3 DUP2 GT ISZERO PUSH2 0x5A53 JUMPI PUSH2 0x5A52 PUSH2 0xEAFB JUMP JUMPDEST JUMPDEST DUP2 MLOAD DUP2 LT PUSH2 0x5A64 JUMPI PUSH2 0x5A63 PUSH2 0xF0D7 JUMP JUMPDEST JUMPDEST PUSH1 0x20 MUL PUSH1 0x20 ADD ADD SWAP1 PUSH2 0xFFFF AND SWAP1 DUP2 PUSH2 0xFFFF AND DUP2 MSTORE POP POP PUSH1 0xC DUP2 PUSH1 0xBD PUSH1 0xD3 DUP2 GT ISZERO PUSH2 0x5A91 JUMPI PUSH2 0x5A90 PUSH2 0xEAFB JUMP JUMPDEST JUMPDEST DUP2 MLOAD DUP2 LT PUSH2 0x5AA2 JUMPI PUSH2 0x5AA1 PUSH2 0xF0D7 JUMP JUMPDEST JUMPDEST PUSH1 0x20 MUL PUSH1 0x20 ADD ADD SWAP1 PUSH2 0xFFFF AND SWAP1 DUP2 PUSH2 0xFFFF AND DUP2 MSTORE POP POP PUSH1 0x9 DUP2 PUSH1 0xC0 PUSH1 0xD3 DUP2 GT ISZERO PUSH2 0x5ACF JUMPI PUSH2 0x5ACE PUSH2 0xEAFB JUMP JUMPDEST JUMPDEST DUP2 MLOAD DUP2 LT PUSH2 0x5AE0 JUMPI PUSH2 0x5ADF PUSH2 0xF0D7 JUMP JUMPDEST JUMPDEST PUSH1 0x20 MUL PUSH1 0x20 ADD ADD SWAP1 PUSH2 0xFFFF AND SWAP1 DUP2 PUSH2 0xFFFF AND DUP2 MSTORE POP POP PUSH1 0x3 DUP2 PUSH1 0xBE PUSH1 0xD3 DUP2 GT ISZERO PUSH2 0x5B0D JUMPI PUSH2 0x5B0C PUSH2 0xEAFB JUMP JUMPDEST JUMPDEST DUP2 MLOAD DUP2 LT PUSH2 0x5B1E JUMPI PUSH2 0x5B1D PUSH2 0xF0D7 JUMP JUMPDEST JUMPDEST PUSH1 0x20 MUL PUSH1 0x20 ADD ADD SWAP1 PUSH2 0xFFFF AND SWAP1 DUP2 PUSH2 0xFFFF AND DUP2 MSTORE POP POP PUSH1 0x3 DUP2 PUSH1 0xC1 PUSH1 0xD3 DUP2 GT ISZERO PUSH2 0x5B4B JUMPI PUSH2 0x5B4A PUSH2 0xEAFB JUMP JUMPDEST JUMPDEST DUP2 MLOAD DUP2 LT PUSH2 0x5B5C JUMPI PUSH2 0x5B5B PUSH2 0xF0D7 JUMP JUMPDEST JUMPDEST PUSH1 0x20 MUL PUSH1 0x20 ADD ADD SWAP1 PUSH2 0xFFFF AND SWAP1 DUP2 PUSH2 0xFFFF AND DUP2 MSTORE POP POP PUSH1 0x3 DUP2 PUSH1 0xC2 PUSH1 0xD3 DUP2 GT ISZERO PUSH2 0x5B89 JUMPI PUSH2 0x5B88 PUSH2 0xEAFB JUMP JUMPDEST JUMPDEST DUP2 MLOAD DUP2 LT PUSH2 0x5B9A JUMPI PUSH2 0x5B99 PUSH2 0xF0D7 JUMP JUMPDEST JUMPDEST PUSH1 0x20 MUL PUSH1 0x20 ADD ADD SWAP1 PUSH2 0xFFFF AND SWAP1 DUP2 PUSH2 0xFFFF AND DUP2 MSTORE POP POP PUSH1 0x3 DUP2 PUSH1 0xC3 PUSH1 0xD3 DUP2 GT ISZERO PUSH2 0x5BC7 JUMPI PUSH2 0x5BC6 PUSH2 0xEAFB JUMP JUMPDEST JUMPDEST DUP2 MLOAD DUP2 LT PUSH2 0x5BD8 JUMPI PUSH2 0x5BD7 PUSH2 0xF0D7 JUMP JUMPDEST JUMPDEST PUSH1 0x20 MUL PUSH1 0x20 ADD ADD SWAP1 PUSH2 0xFFFF AND SWAP1 DUP2 PUSH2 0xFFFF AND DUP2 MSTORE POP POP PUSH1 0x3 DUP2 PUSH1 0xC4 PUSH1 0xD3 DUP2 GT ISZERO PUSH2 0x5C05 JUMPI PUSH2 0x5C04 PUSH2 0xEAFB JUMP JUMPDEST JUMPDEST DUP2 MLOAD DUP2 LT PUSH2 0x5C16 JUMPI PUSH2 0x5C15 PUSH2 0xF0D7 JUMP JUMPDEST JUMPDEST PUSH1 0x20 MUL PUSH1 0x20 ADD ADD SWAP1 PUSH2 0xFFFF AND SWAP1 DUP2 PUSH2 0xFFFF AND DUP2 MSTORE POP POP PUSH1 0x3 DUP2 PUSH1 0xC5 PUSH1 0xD3 DUP2 GT ISZERO PUSH2 0x5C43 JUMPI PUSH2 0x5C42 PUSH2 0xEAFB JUMP JUMPDEST JUMPDEST DUP2 MLOAD DUP2 LT PUSH2 0x5C54 JUMPI PUSH2 0x5C53 PUSH2 0xF0D7 JUMP JUMPDEST JUMPDEST PUSH1 0x20 MUL PUSH1 0x20 ADD ADD SWAP1 PUSH2 0xFFFF AND SWAP1 DUP2 PUSH2 0xFFFF AND DUP2 MSTORE POP POP PUSH1 0x3 DUP2 PUSH1 0xC6 PUSH1 0xD3 DUP2 GT ISZERO PUSH2 0x5C81 JUMPI PUSH2 0x5C80 PUSH2 0xEAFB JUMP JUMPDEST JUMPDEST DUP2 MLOAD DUP2 LT PUSH2 0x5C92 JUMPI PUSH2 0x5C91 PUSH2 0xF0D7 JUMP JUMPDEST JUMPDEST PUSH1 0x20 MUL PUSH1 0x20 ADD ADD SWAP1 PUSH2 0xFFFF AND SWAP1 DUP2 PUSH2 0xFFFF AND DUP2 MSTORE POP POP PUSH1 0x3 DUP2 PUSH1 0xC7 PUSH1 0xD3 DUP2 GT ISZERO PUSH2 0x5CBF JUMPI PUSH2 0x5CBE PUSH2 0xEAFB JUMP JUMPDEST JUMPDEST DUP2 MLOAD DUP2 LT PUSH2 0x5CD0 JUMPI PUSH2 0x5CCF PUSH2 0xF0D7 JUMP JUMPDEST JUMPDEST PUSH1 0x20 MUL PUSH1 0x20 ADD ADD SWAP1 PUSH2 0xFFFF AND SWAP1 DUP2 PUSH2 0xFFFF AND DUP2 MSTORE POP POP PUSH1 0xC8 DUP2 PUSH1 0xC8 PUSH1 0xD3 DUP2 GT ISZERO PUSH2 0x5CFD JUMPI PUSH2 0x5CFC PUSH2 0xEAFB JUMP JUMPDEST JUMPDEST DUP2 MLOAD DUP2 LT PUSH2 0x5D0E JUMPI PUSH2 0x5D0D PUSH2 0xF0D7 JUMP JUMPDEST JUMPDEST PUSH1 0x20 MUL PUSH1 0x20 ADD ADD SWAP1 PUSH2 0xFFFF AND SWAP1 DUP2 PUSH2 0xFFFF AND DUP2 MSTORE POP POP PUSH1 0xB4 DUP2 PUSH1 0xCB PUSH1 0xD3 DUP2 GT ISZERO PUSH2 0x5D3B JUMPI PUSH2 0x5D3A PUSH2 0xEAFB JUMP JUMPDEST JUMPDEST DUP2 MLOAD DUP2 LT PUSH2 0x5D4C JUMPI PUSH2 0x5D4B PUSH2 0xF0D7 JUMP JUMPDEST JUMPDEST PUSH1 0x20 MUL PUSH1 0x20 ADD ADD SWAP1 PUSH2 0xFFFF AND SWAP1 DUP2 PUSH2 0xFFFF AND DUP2 MSTORE POP POP PUSH1 0x78 DUP2 PUSH1 0xC9 PUSH1 0xD3 DUP2 GT ISZERO PUSH2 0x5D79 JUMPI PUSH2 0x5D78 PUSH2 0xEAFB JUMP JUMPDEST JUMPDEST DUP2 MLOAD DUP2 LT PUSH2 0x5D8A JUMPI PUSH2 0x5D89 PUSH2 0xF0D7 JUMP JUMPDEST JUMPDEST PUSH1 0x20 MUL PUSH1 0x20 ADD ADD SWAP1 PUSH2 0xFFFF AND SWAP1 DUP2 PUSH2 0xFFFF AND DUP2 MSTORE POP POP PUSH1 0x64 DUP2 PUSH1 0xCC PUSH1 0xD3 DUP2 GT ISZERO PUSH2 0x5DB7 JUMPI PUSH2 0x5DB6 PUSH2 0xEAFB JUMP JUMPDEST JUMPDEST DUP2 MLOAD DUP2 LT PUSH2 0x5DC8 JUMPI PUSH2 0x5DC7 PUSH2 0xF0D7 JUMP JUMPDEST JUMPDEST PUSH1 0x20 MUL PUSH1 0x20 ADD ADD SWAP1 PUSH2 0xFFFF AND SWAP1 DUP2 PUSH2 0xFFFF AND DUP2 MSTORE POP POP PUSH1 0x19 DUP2 PUSH1 0xCA PUSH1 0xD3 DUP2 GT ISZERO PUSH2 0x5DF5 JUMPI PUSH2 0x5DF4 PUSH2 0xEAFB JUMP JUMPDEST JUMPDEST DUP2 MLOAD DUP2 LT PUSH2 0x5E06 JUMPI PUSH2 0x5E05 PUSH2 0xF0D7 JUMP JUMPDEST JUMPDEST PUSH1 0x20 MUL PUSH1 0x20 ADD ADD SWAP1 PUSH2 0xFFFF AND SWAP1 DUP2 PUSH2 0xFFFF AND DUP2 MSTORE POP POP PUSH1 0x19 DUP2 PUSH1 0xCD PUSH1 0xD3 DUP2 GT ISZERO PUSH2 0x5E33 JUMPI PUSH2 0x5E32 PUSH2 0xEAFB JUMP JUMPDEST JUMPDEST DUP2 MLOAD DUP2 LT PUSH2 0x5E44 JUMPI PUSH2 0x5E43 PUSH2 0xF0D7 JUMP JUMPDEST JUMPDEST PUSH1 0x20 MUL PUSH1 0x20 ADD ADD SWAP1 PUSH2 0xFFFF AND SWAP1 DUP2 PUSH2 0xFFFF AND DUP2 MSTORE POP POP PUSH1 0x19 DUP2 PUSH1 0xCE PUSH1 0xD3 DUP2 GT ISZERO PUSH2 0x5E71 JUMPI PUSH2 0x5E70 PUSH2 0xEAFB JUMP JUMPDEST JUMPDEST DUP2 MLOAD DUP2 LT PUSH2 0x5E82 JUMPI PUSH2 0x5E81 PUSH2 0xF0D7 JUMP JUMPDEST JUMPDEST PUSH1 0x20 MUL PUSH1 0x20 ADD ADD SWAP1 PUSH2 0xFFFF AND SWAP1 DUP2 PUSH2 0xFFFF AND DUP2 MSTORE POP POP PUSH1 0x19 DUP2 PUSH1 0xCF PUSH1 0xD3 DUP2 GT ISZERO PUSH2 0x5EAF JUMPI PUSH2 0x5EAE PUSH2 0xEAFB JUMP JUMPDEST JUMPDEST DUP2 MLOAD DUP2 LT PUSH2 0x5EC0 JUMPI PUSH2 0x5EBF PUSH2 0xF0D7 JUMP JUMPDEST JUMPDEST PUSH1 0x20 MUL PUSH1 0x20 ADD ADD SWAP1 PUSH2 0xFFFF AND SWAP1 DUP2 PUSH2 0xFFFF AND DUP2 MSTORE POP POP PUSH1 0x19 DUP2 PUSH1 0xD0 PUSH1 0xD3 DUP2 GT ISZERO PUSH2 0x5EED JUMPI PUSH2 0x5EEC PUSH2 0xEAFB JUMP JUMPDEST JUMPDEST DUP2 MLOAD DUP2 LT PUSH2 0x5EFE JUMPI PUSH2 0x5EFD PUSH2 0xF0D7 JUMP JUMPDEST JUMPDEST PUSH1 0x20 MUL PUSH1 0x20 ADD ADD SWAP1 PUSH2 0xFFFF AND SWAP1 DUP2 PUSH2 0xFFFF AND DUP2 MSTORE POP POP PUSH1 0x19 DUP2 PUSH1 0xD1 PUSH1 0xD3 DUP2 GT ISZERO PUSH2 0x5F2B JUMPI PUSH2 0x5F2A PUSH2 0xEAFB JUMP JUMPDEST JUMPDEST DUP2 MLOAD DUP2 LT PUSH2 0x5F3C JUMPI PUSH2 0x5F3B PUSH2 0xF0D7 JUMP JUMPDEST JUMPDEST PUSH1 0x20 MUL PUSH1 0x20 ADD ADD SWAP1 PUSH2 0xFFFF AND SWAP1 DUP2 PUSH2 0xFFFF AND DUP2 MSTORE POP POP PUSH1 0x19 DUP2 PUSH1 0xD2 PUSH1 0xD3 DUP2 GT ISZERO PUSH2 0x5F69 JUMPI PUSH2 0x5F68 PUSH2 0xEAFB JUMP JUMPDEST JUMPDEST DUP2 MLOAD DUP2 LT PUSH2 0x5F7A JUMPI PUSH2 0x5F79 PUSH2 0xF0D7 JUMP JUMPDEST JUMPDEST PUSH1 0x20 MUL PUSH1 0x20 ADD ADD SWAP1 PUSH2 0xFFFF AND SWAP1 DUP2 PUSH2 0xFFFF AND DUP2 MSTORE POP POP PUSH1 0x19 DUP2 PUSH1 0xD3 DUP1 DUP2 GT ISZERO PUSH2 0x5FA6 JUMPI PUSH2 0x5FA5 PUSH2 0xEAFB JUMP JUMPDEST JUMPDEST DUP2 MLOAD DUP2 LT PUSH2 0x5FB7 JUMPI PUSH2 0x5FB6 PUSH2 0xF0D7 JUMP JUMPDEST JUMPDEST PUSH1 0x20 MUL PUSH1 0x20 ADD ADD SWAP1 PUSH2 0xFFFF AND SWAP1 DUP2 PUSH2 0xFFFF AND DUP2 MSTORE POP POP PUSH0 PUSH2 0x5FD8 DUP5 DUP4 PUSH2 0xE0C9 JUMP JUMPDEST SWAP1 POP DUP1 PUSH1 0xD3 DUP2 GT ISZERO PUSH2 0x5FED JUMPI PUSH2 0x5FEC PUSH2 0xEAFB JUMP JUMPDEST JUMPDEST SWAP3 POP POP POP JUMPDEST SWAP3 SWAP2 POP POP JUMP JUMPDEST PUSH0 PUSH0 PUSH1 0x9 PUSH8 0xFFFFFFFFFFFFFFFF DUP2 GT ISZERO PUSH2 0x6015 JUMPI PUSH2 0x6014 PUSH2 0xE9D4 JUMP JUMPDEST JUMPDEST PUSH1 0x40 MLOAD SWAP1 DUP1 DUP3 MSTORE DUP1 PUSH1 0x20 MUL PUSH1 0x20 ADD DUP3 ADD PUSH1 0x40 MSTORE DUP1 ISZERO PUSH2 0x6043 JUMPI DUP2 PUSH1 0x20 ADD PUSH1 0x20 DUP3 MUL DUP1 CALLDATASIZE DUP4 CALLDATACOPY DUP1 DUP3 ADD SWAP2 POP POP SWAP1 POP JUMPDEST POP SWAP1 POP PUSH2 0x26AC DUP2 PUSH0 PUSH1 0x3 DUP2 GT ISZERO PUSH2 0x605D JUMPI PUSH2 0x605C PUSH2 0xEAFB JUMP JUMPDEST JUMPDEST DUP2 MLOAD DUP2 LT PUSH2 0x606E JUMPI PUSH2 0x606D PUSH2 0xF0D7 JUMP JUMPDEST JUMPDEST PUSH1 0x20 MUL PUSH1 0x20 ADD ADD SWAP1 PUSH2 0xFFFF AND SWAP1 DUP2 PUSH2 0xFFFF AND DUP2 MSTORE POP POP PUSH1 0x28 DUP2 PUSH1 0x1 PUSH1 0x3 DUP2 GT ISZERO PUSH2 0x609B JUMPI PUSH2 0x609A PUSH2 0xEAFB JUMP JUMPDEST JUMPDEST DUP2 MLOAD DUP2 LT PUSH2 0x60AC JUMPI PUSH2 0x60AB PUSH2 0xF0D7 JUMP JUMPDEST JUMPDEST PUSH1 0x20 MUL PUSH1 0x20 ADD ADD SWAP1 PUSH2 0xFFFF AND SWAP1 DUP2 PUSH2 0xFFFF AND DUP2 MSTORE POP POP PUSH1 0x1E DUP2 PUSH1 0x2 PUSH1 0x3 DUP2 GT ISZERO PUSH2 0x60D9 JUMPI PUSH2 0x60D8 PUSH2 0xEAFB JUMP JUMPDEST JUMPDEST DUP2 MLOAD DUP2 LT PUSH2 0x60EA JUMPI PUSH2 0x60E9 PUSH2 0xF0D7 JUMP JUMPDEST JUMPDEST PUSH1 0x20 MUL PUSH1 0x20 ADD ADD SWAP1 PUSH2 0xFFFF AND SWAP1 DUP2 PUSH2 0xFFFF AND DUP2 MSTORE POP POP PUSH1 0x1E DUP2 PUSH1 0x3 DUP1 DUP2 GT ISZERO PUSH2 0x6116 JUMPI PUSH2 0x6115 PUSH2 0xEAFB JUMP JUMPDEST JUMPDEST DUP2 MLOAD DUP2 LT PUSH2 0x6127 JUMPI PUSH2 0x6126 PUSH2 0xF0D7 JUMP JUMPDEST JUMPDEST PUSH1 0x20 MUL PUSH1 0x20 ADD ADD SWAP1 PUSH2 0xFFFF AND SWAP1 DUP2 PUSH2 0xFFFF AND DUP2 MSTORE POP POP PUSH0 PUSH2 0x6148 DUP5 DUP4 PUSH2 0xE0C9 JUMP JUMPDEST SWAP1 POP DUP1 PUSH1 0x3 DUP2 GT ISZERO PUSH2 0x615D JUMPI PUSH2 0x615C PUSH2 0xEAFB JUMP JUMPDEST JUMPDEST SWAP3 POP POP POP SWAP2 SWAP1 POP JUMP JUMPDEST PUSH0 PUSH0 PUSH1 0xA9 PUSH8 0xFFFFFFFFFFFFFFFF DUP2 GT ISZERO PUSH2 0x6183 JUMPI PUSH2 0x6182 PUSH2 0xE9D4 JUMP JUMPDEST JUMPDEST PUSH1 0x40 MLOAD SWAP1 DUP1 DUP3 MSTORE DUP1 PUSH1 0x20 MUL PUSH1 0x20 ADD DUP3 ADD PUSH1 0x40 MSTORE DUP1 ISZERO PUSH2 0x61B1 JUMPI DUP2 PUSH1 0x20 ADD PUSH1 0x20 DUP3 MUL DUP1 CALLDATASIZE DUP4 CALLDATACOPY DUP1 DUP3 ADD SWAP2 POP POP SWAP1 POP JUMPDEST POP SWAP1 POP PUSH2 0x3BB DUP2 PUSH0 PUSH1 0xA8 DUP2 GT ISZERO PUSH2 0x61CB JUMPI PUSH2 0x61CA PUSH2 0xEAFB JUMP JUMPDEST JUMPDEST DUP2 MLOAD DUP2 LT PUSH2 0x61DC JUMPI PUSH2 0x61DB PUSH2 0xF0D7 JUMP JUMPDEST JUMPDEST PUSH1 0x20 MUL PUSH1 0x20 ADD ADD SWAP1 PUSH2 0xFFFF AND SWAP1 DUP2 PUSH2 0xFFFF AND DUP2 MSTORE POP POP PUSH1 0x4B DUP2 PUSH1 0x71 PUSH1 0xA8 DUP2 GT ISZERO PUSH2 0x6209 JUMPI PUSH2 0x6208 PUSH2 0xEAFB JUMP JUMPDEST JUMPDEST DUP2 MLOAD DUP2 LT PUSH2 0x621A JUMPI PUSH2 0x6219 PUSH2 0xF0D7 JUMP JUMPDEST JUMPDEST PUSH1 0x20 MUL PUSH1 0x20 ADD ADD SWAP1 PUSH2 0xFFFF AND SWAP1 DUP2 PUSH2 0xFFFF AND DUP2 MSTORE POP POP PUSH1 0x4B DUP2 PUSH1 0x72 PUSH1 0xA8 DUP2 GT ISZERO PUSH2 0x6247 JUMPI PUSH2 0x6246 PUSH2 0xEAFB JUMP JUMPDEST JUMPDEST DUP2 MLOAD DUP2 LT PUSH2 0x6258 JUMPI PUSH2 0x6257 PUSH2 0xF0D7 JUMP JUMPDEST JUMPDEST PUSH1 0x20 MUL PUSH1 0x20 ADD ADD SWAP1 PUSH2 0xFFFF AND SWAP1 DUP2 PUSH2 0xFFFF AND DUP2 MSTORE POP POP PUSH1 0x4B DUP2 PUSH1 0x73 PUSH1 0xA8 DUP2 GT ISZERO PUSH2 0x6285 JUMPI PUSH2 0x6284 PUSH2 0xEAFB JUMP JUMPDEST JUMPDEST DUP2 MLOAD DUP2 LT PUSH2 0x6296 JUMPI PUSH2 0x6295 PUSH2 0xF0D7 JUMP JUMPDEST JUMPDEST PUSH1 0x20 MUL PUSH1 0x20 ADD ADD SWAP1 PUSH2 0xFFFF AND SWAP1 DUP2 PUSH2 0xFFFF AND DUP2 MSTORE POP POP PUSH1 0x4B DUP2 PUSH1 0x74 PUSH1 0xA8 DUP2 GT ISZERO PUSH2 0x62C3 JUMPI PUSH2 0x62C2 PUSH2 0xEAFB JUMP JUMPDEST JUMPDEST DUP2 MLOAD DUP2 LT PUSH2 0x62D4 JUMPI PUSH2 0x62D3 PUSH2 0xF0D7 JUMP JUMPDEST JUMPDEST PUSH1 0x20 MUL PUSH1 0x20 ADD ADD SWAP1 PUSH2 0xFFFF AND SWAP1 DUP2 PUSH2 0xFFFF AND DUP2 MSTORE POP POP PUSH1 0x4B DUP2 PUSH1 0x75 PUSH1 0xA8 DUP2 GT ISZERO PUSH2 0x6301 JUMPI PUSH2 0x6300 PUSH2 0xEAFB JUMP JUMPDEST JUMPDEST DUP2 MLOAD DUP2 LT PUSH2 0x6312 JUMPI PUSH2 0x6311 PUSH2 0xF0D7 JUMP JUMPDEST JUMPDEST PUSH1 0x20 MUL PUSH1 0x20 ADD ADD SWAP1 PUSH2 0xFFFF AND SWAP1 DUP2 PUSH2 0xFFFF AND DUP2 MSTORE POP POP PUSH1 0x4B DUP2 PUSH1 0x76 PUSH1 0xA8 DUP2 GT ISZERO PUSH2 0x633F JUMPI PUSH2 0x633E PUSH2 0xEAFB JUMP JUMPDEST JUMPDEST DUP2 MLOAD DUP2 LT PUSH2 0x6350 JUMPI PUSH2 0x634F PUSH2 0xF0D7 JUMP JUMPDEST JUMPDEST PUSH1 0x20 MUL PUSH1 0x20 ADD ADD SWAP1 PUSH2 0xFFFF AND SWAP1 DUP2 PUSH2 0xFFFF AND DUP2 MSTORE POP POP PUSH1 0x4B DUP2 PUSH1 0x77 PUSH1 0xA8 DUP2 GT ISZERO PUSH2 0x637D JUMPI PUSH2 0x637C PUSH2 0xEAFB JUMP JUMPDEST JUMPDEST DUP2 MLOAD DUP2 LT PUSH2 0x638E JUMPI PUSH2 0x638D PUSH2 0xF0D7 JUMP JUMPDEST JUMPDEST PUSH1 0x20 MUL PUSH1 0x20 ADD ADD SWAP1 PUSH2 0xFFFF AND SWAP1 DUP2 PUSH2 0xFFFF AND DUP2 MSTORE POP POP PUSH1 0x4B DUP2 PUSH1 0x78 PUSH1 0xA8 DUP2 GT ISZERO PUSH2 0x63BB JUMPI PUSH2 0x63BA PUSH2 0xEAFB JUMP JUMPDEST JUMPDEST DUP2 MLOAD DUP2 LT PUSH2 0x63CC JUMPI PUSH2 0x63CB PUSH2 0xF0D7 JUMP JUMPDEST JUMPDEST PUSH1 0x20 MUL PUSH1 0x20 ADD ADD SWAP1 PUSH2 0xFFFF AND SWAP1 DUP2 PUSH2 0xFFFF AND DUP2 MSTORE POP POP PUSH1 0x4B DUP2 PUSH1 0x79 PUSH1 0xA8 DUP2 GT ISZERO PUSH2 0x63F9 JUMPI PUSH2 0x63F8 PUSH2 0xEAFB JUMP JUMPDEST JUMPDEST DUP2 MLOAD DUP2 LT PUSH2 0x640A JUMPI PUSH2 0x6409 PUSH2 0xF0D7 JUMP JUMPDEST JUMPDEST PUSH1 0x20 MUL PUSH1 0x20 ADD ADD SWAP1 PUSH2 0xFFFF AND SWAP1 DUP2 PUSH2 0xFFFF AND DUP2 MSTORE POP POP PUSH1 0x4B DUP2 PUSH1 0x7A PUSH1 0xA8 DUP2 GT ISZERO PUSH2 0x6437 JUMPI PUSH2 0x6436 PUSH2 0xEAFB JUMP JUMPDEST JUMPDEST DUP2 MLOAD DUP2 LT PUSH2 0x6448 JUMPI PUSH2 0x6447 PUSH2 0xF0D7 JUMP JUMPDEST JUMPDEST PUSH1 0x20 MUL PUSH1 0x20 ADD ADD SWAP1 PUSH2 0xFFFF AND SWAP1 DUP2 PUSH2 0xFFFF AND DUP2 MSTORE POP POP PUSH1 0x82 DUP2 PUSH1 0x24 PUSH1 0xA8 DUP2 GT ISZERO PUSH2 0x6475 JUMPI PUSH2 0x6474 PUSH2 0xEAFB JUMP JUMPDEST JUMPDEST DUP2 MLOAD DUP2 LT PUSH2 0x6486 JUMPI PUSH2 0x6485 PUSH2 0xF0D7 JUMP JUMPDEST JUMPDEST PUSH1 0x20 MUL PUSH1 0x20 ADD ADD SWAP1 PUSH2 0xFFFF AND SWAP1 DUP2 PUSH2 0xFFFF AND DUP2 MSTORE POP POP PUSH1 0x82 DUP2 PUSH1 0x25 PUSH1 0xA8 DUP2 GT ISZERO PUSH2 0x64B3 JUMPI PUSH2 0x64B2 PUSH2 0xEAFB JUMP JUMPDEST JUMPDEST DUP2 MLOAD DUP2 LT PUSH2 0x64C4 JUMPI PUSH2 0x64C3 PUSH2 0xF0D7 JUMP JUMPDEST JUMPDEST PUSH1 0x20 MUL PUSH1 0x20 ADD ADD SWAP1 PUSH2 0xFFFF AND SWAP1 DUP2 PUSH2 0xFFFF AND DUP2 MSTORE POP POP PUSH1 0x82 DUP2 PUSH1 0x26 PUSH1 0xA8 DUP2 GT ISZERO PUSH2 0x64F1 JUMPI PUSH2 0x64F0 PUSH2 0xEAFB JUMP JUMPDEST JUMPDEST DUP2 MLOAD DUP2 LT PUSH2 0x6502 JUMPI PUSH2 0x6501 PUSH2 0xF0D7 JUMP JUMPDEST JUMPDEST PUSH1 0x20 MUL PUSH1 0x20 ADD ADD SWAP1 PUSH2 0xFFFF AND SWAP1 DUP2 PUSH2 0xFFFF AND DUP2 MSTORE POP POP PUSH1 0x82 DUP2 PUSH1 0x27 PUSH1 0xA8 DUP2 GT ISZERO PUSH2 0x652F JUMPI PUSH2 0x652E PUSH2 0xEAFB JUMP JUMPDEST JUMPDEST DUP2 MLOAD DUP2 LT PUSH2 0x6540 JUMPI PUSH2 0x653F PUSH2 0xF0D7 JUMP JUMPDEST JUMPDEST PUSH1 0x20 MUL PUSH1 0x20 ADD ADD SWAP1 PUSH2 0xFFFF AND SWAP1 DUP2 PUSH2 0xFFFF AND DUP2 MSTORE POP POP PUSH1 0x82 DUP2 PUSH1 0x23 PUSH1 0xA8 DUP2 GT ISZERO PUSH2 0x656D JUMPI PUSH2 0x656C PUSH2 0xEAFB JUMP JUMPDEST JUMPDEST DUP2 MLOAD DUP2 LT PUSH2 0x657E JUMPI PUSH2 0x657D PUSH2 0xF0D7 JUMP JUMPDEST JUMPDEST PUSH1 0x20 MUL PUSH1 0x20 ADD ADD SWAP1 PUSH2 0xFFFF AND SWAP1 DUP2 PUSH2 0xFFFF AND DUP2 MSTORE POP POP PUSH1 0x7E DUP2 PUSH1 0x2 PUSH1 0xA8 DUP2 GT ISZERO PUSH2 0x65AB JUMPI PUSH2 0x65AA PUSH2 0xEAFB JUMP JUMPDEST JUMPDEST DUP2 MLOAD DUP2 LT PUSH2 0x65BC JUMPI PUSH2 0x65BB PUSH2 0xF0D7 JUMP JUMPDEST JUMPDEST PUSH1 0x20 MUL PUSH1 0x20 ADD ADD SWAP1 PUSH2 0xFFFF AND SWAP1 DUP2 PUSH2 0xFFFF AND DUP2 MSTORE POP POP PUSH1 0x7E DUP2 PUSH1 0x3 PUSH1 0xA8 DUP2 GT ISZERO PUSH2 0x65E9 JUMPI PUSH2 0x65E8 PUSH2 0xEAFB JUMP JUMPDEST JUMPDEST DUP2 MLOAD DUP2 LT PUSH2 0x65FA JUMPI PUSH2 0x65F9 PUSH2 0xF0D7 JUMP JUMPDEST JUMPDEST PUSH1 0x20 MUL PUSH1 0x20 ADD ADD SWAP1 PUSH2 0xFFFF AND SWAP1 DUP2 PUSH2 0xFFFF AND DUP2 MSTORE POP POP PUSH1 0x7E DUP2 PUSH1 0x4 PUSH1 0xA8 DUP2 GT ISZERO PUSH2 0x6627 JUMPI PUSH2 0x6626 PUSH2 0xEAFB JUMP JUMPDEST JUMPDEST DUP2 MLOAD DUP2 LT PUSH2 0x6638 JUMPI PUSH2 0x6637 PUSH2 0xF0D7 JUMP JUMPDEST JUMPDEST PUSH1 0x20 MUL PUSH1 0x20 ADD ADD SWAP1 PUSH2 0xFFFF AND SWAP1 DUP2 PUSH2 0xFFFF AND DUP2 MSTORE POP POP PUSH1 0x7E DUP2 PUSH1 0x5 PUSH1 0xA8 DUP2 GT ISZERO PUSH2 0x6665 JUMPI PUSH2 0x6664 PUSH2 0xEAFB JUMP JUMPDEST JUMPDEST DUP2 MLOAD DUP2 LT PUSH2 0x6676 JUMPI PUSH2 0x6675 PUSH2 0xF0D7 JUMP JUMPDEST JUMPDEST PUSH1 0x20 MUL PUSH1 0x20 ADD ADD SWAP1 PUSH2 0xFFFF AND SWAP1 DUP2 PUSH2 0xFFFF AND DUP2 MSTORE POP POP PUSH1 0x7E DUP2 PUSH1 0x1 PUSH1 0xA8 DUP2 GT ISZERO PUSH2 0x66A3 JUMPI PUSH2 0x66A2 PUSH2 0xEAFB JUMP JUMPDEST JUMPDEST DUP2 MLOAD DUP2 LT PUSH2 0x66B4 JUMPI PUSH2 0x66B3 PUSH2 0xF0D7 JUMP JUMPDEST JUMPDEST PUSH1 0x20 MUL PUSH1 0x20 ADD ADD SWAP1 PUSH2 0xFFFF AND SWAP1 DUP2 PUSH2 0xFFFF AND DUP2 MSTORE POP POP PUSH1 0x4E DUP2 PUSH1 0x69 PUSH1 0xA8 DUP2 GT ISZERO PUSH2 0x66E1 JUMPI PUSH2 0x66E0 PUSH2 0xEAFB JUMP JUMPDEST JUMPDEST DUP2 MLOAD DUP2 LT PUSH2 0x66F2 JUMPI PUSH2 0x66F1 PUSH2 0xF0D7 JUMP JUMPDEST JUMPDEST PUSH1 0x20 MUL PUSH1 0x20 ADD ADD SWAP1 PUSH2 0xFFFF AND SWAP1 DUP2 PUSH2 0xFFFF AND DUP2 MSTORE POP POP PUSH1 0x4E DUP2 PUSH1 0x6A PUSH1 0xA8 DUP2 GT ISZERO PUSH2 0x671F JUMPI PUSH2 0x671E PUSH2 0xEAFB JUMP JUMPDEST JUMPDEST DUP2 MLOAD DUP2 LT PUSH2 0x6730 JUMPI PUSH2 0x672F PUSH2 0xF0D7 JUMP JUMPDEST JUMPDEST PUSH1 0x20 MUL PUSH1 0x20 ADD ADD SWAP1 PUSH2 0xFFFF AND SWAP1 DUP2 PUSH2 0xFFFF AND DUP2 MSTORE POP POP PUSH1 0x4E DUP2 PUSH1 0x6B PUSH1 0xA8 DUP2 GT ISZERO PUSH2 0x675D JUMPI PUSH2 0x675C PUSH2 0xEAFB JUMP JUMPDEST JUMPDEST DUP2 MLOAD DUP2 LT PUSH2 0x676E JUMPI PUSH2 0x676D PUSH2 0xF0D7 JUMP JUMPDEST JUMPDEST PUSH1 0x20 MUL PUSH1 0x20 ADD ADD SWAP1 PUSH2 0xFFFF AND SWAP1 DUP2 PUSH2 0xFFFF AND DUP2 MSTORE POP POP PUSH1 0x4E DUP2 PUSH1 0x6C PUSH1 0xA8 DUP2 GT ISZERO PUSH2 0x679B JUMPI PUSH2 0x679A PUSH2 0xEAFB JUMP JUMPDEST JUMPDEST DUP2 MLOAD DUP2 LT PUSH2 0x67AC JUMPI PUSH2 0x67AB PUSH2 0xF0D7 JUMP JUMPDEST JUMPDEST PUSH1 0x20 MUL PUSH1 0x20 ADD ADD SWAP1 PUSH2 0xFFFF AND SWAP1 DUP2 PUSH2 0xFFFF AND DUP2 MSTORE POP POP PUSH1 0x4E DUP2 PUSH1 0x6D PUSH1 0xA8 DUP2 GT ISZERO PUSH2 0x67D9 JUMPI PUSH2 0x67D8 PUSH2 0xEAFB JUMP JUMPDEST JUMPDEST DUP2 MLOAD DUP2 LT PUSH2 0x67EA JUMPI PUSH2 0x67E9 PUSH2 0xF0D7 JUMP JUMPDEST JUMPDEST PUSH1 0x20 MUL PUSH1 0x20 ADD ADD SWAP1 PUSH2 0xFFFF AND SWAP1 DUP2 PUSH2 0xFFFF AND DUP2 MSTORE POP POP PUSH1 0x4E DUP2 PUSH1 0x6E PUSH1 0xA8 DUP2 GT ISZERO PUSH2 0x6817 JUMPI PUSH2 0x6816 PUSH2 0xEAFB JUMP JUMPDEST JUMPDEST DUP2 MLOAD DUP2 LT PUSH2 0x6828 JUMPI PUSH2 0x6827 PUSH2 0xF0D7 JUMP JUMPDEST JUMPDEST PUSH1 0x20 MUL PUSH1 0x20 ADD ADD SWAP1 PUSH2 0xFFFF AND SWAP1 DUP2 PUSH2 0xFFFF AND DUP2 MSTORE POP POP PUSH1 0x4E DUP2 PUSH1 0x6F PUSH1 0xA8 DUP2 GT ISZERO PUSH2 0x6855 JUMPI PUSH2 0x6854 PUSH2 0xEAFB JUMP JUMPDEST JUMPDEST DUP2 MLOAD DUP2 LT PUSH2 0x6866 JUMPI PUSH2 0x6865 PUSH2 0xF0D7 JUMP JUMPDEST JUMPDEST PUSH1 0x20 MUL PUSH1 0x20 ADD ADD SWAP1 PUSH2 0xFFFF AND SWAP1 DUP2 PUSH2 0xFFFF AND DUP2 MSTORE POP POP PUSH1 0x4E DUP2 PUSH1 0x70 PUSH1 0xA8 DUP2 GT ISZERO PUSH2 0x6893 JUMPI PUSH2 0x6892 PUSH2 0xEAFB JUMP JUMPDEST JUMPDEST DUP2 MLOAD DUP2 LT PUSH2 0x68A4 JUMPI PUSH2 0x68A3 PUSH2 0xF0D7 JUMP JUMPDEST JUMPDEST PUSH1 0x20 MUL PUSH1 0x20 ADD ADD SWAP1 PUSH2 0xFFFF AND SWAP1 DUP2 PUSH2 0xFFFF AND DUP2 MSTORE POP POP PUSH1 0x44 DUP2 PUSH1 0xF PUSH1 0xA8 DUP2 GT ISZERO PUSH2 0x68D1 JUMPI PUSH2 0x68D0 PUSH2 0xEAFB JUMP JUMPDEST JUMPDEST DUP2 MLOAD DUP2 LT PUSH2 0x68E2 JUMPI PUSH2 0x68E1 PUSH2 0xF0D7 JUMP JUMPDEST JUMPDEST PUSH1 0x20 MUL PUSH1 0x20 ADD ADD SWAP1 PUSH2 0xFFFF AND SWAP1 DUP2 PUSH2 0xFFFF AND DUP2 MSTORE POP POP PUSH1 0x44 DUP2 PUSH1 0x10 PUSH1 0xA8 DUP2 GT ISZERO PUSH2 0x690F JUMPI PUSH2 0x690E PUSH2 0xEAFB JUMP JUMPDEST JUMPDEST DUP2 MLOAD DUP2 LT PUSH2 0x6920 JUMPI PUSH2 0x691F PUSH2 0xF0D7 JUMP JUMPDEST JUMPDEST PUSH1 0x20 MUL PUSH1 0x20 ADD ADD SWAP1 PUSH2 0xFFFF AND SWAP1 DUP2 PUSH2 0xFFFF AND DUP2 MSTORE POP POP PUSH1 0x44 DUP2 PUSH1 0x11 PUSH1 0xA8 DUP2 GT ISZERO PUSH2 0x694D JUMPI PUSH2 0x694C PUSH2 0xEAFB JUMP JUMPDEST JUMPDEST DUP2 MLOAD DUP2 LT PUSH2 0x695E JUMPI PUSH2 0x695D PUSH2 0xF0D7 JUMP JUMPDEST JUMPDEST PUSH1 0x20 MUL PUSH1 0x20 ADD ADD SWAP1 PUSH2 0xFFFF AND SWAP1 DUP2 PUSH2 0xFFFF AND DUP2 MSTORE POP POP PUSH1 0x44 DUP2 PUSH1 0x12 PUSH1 0xA8 DUP2 GT ISZERO PUSH2 0x698B JUMPI PUSH2 0x698A PUSH2 0xEAFB JUMP JUMPDEST JUMPDEST DUP2 MLOAD DUP2 LT PUSH2 0x699C JUMPI PUSH2 0x699B PUSH2 0xF0D7 JUMP JUMPDEST JUMPDEST PUSH1 0x20 MUL PUSH1 0x20 ADD ADD SWAP1 PUSH2 0xFFFF AND SWAP1 DUP2 PUSH2 0xFFFF AND DUP2 MSTORE POP POP PUSH1 0x44 DUP2 PUSH1 0x13 PUSH1 0xA8 DUP2 GT ISZERO PUSH2 0x69C9 JUMPI PUSH2 0x69C8 PUSH2 0xEAFB JUMP JUMPDEST JUMPDEST DUP2 MLOAD DUP2 LT PUSH2 0x69DA JUMPI PUSH2 0x69D9 PUSH2 0xF0D7 JUMP JUMPDEST JUMPDEST PUSH1 0x20 MUL PUSH1 0x20 ADD ADD SWAP1 PUSH2 0xFFFF AND SWAP1 DUP2 PUSH2 0xFFFF AND DUP2 MSTORE POP POP PUSH1 0x44 DUP2 PUSH1 0x14 PUSH1 0xA8 DUP2 GT ISZERO PUSH2 0x6A07 JUMPI PUSH2 0x6A06 PUSH2 0xEAFB JUMP JUMPDEST JUMPDEST DUP2 MLOAD DUP2 LT PUSH2 0x6A18 JUMPI PUSH2 0x6A17 PUSH2 0xF0D7 JUMP JUMPDEST JUMPDEST PUSH1 0x20 MUL PUSH1 0x20 ADD ADD SWAP1 PUSH2 0xFFFF AND SWAP1 DUP2 PUSH2 0xFFFF AND DUP2 MSTORE POP POP PUSH1 0x44 DUP2 PUSH1 0x15 PUSH1 0xA8 DUP2 GT ISZERO PUSH2 0x6A45 JUMPI PUSH2 0x6A44 PUSH2 0xEAFB JUMP JUMPDEST JUMPDEST DUP2 MLOAD DUP2 LT PUSH2 0x6A56 JUMPI PUSH2 0x6A55 PUSH2 0xF0D7 JUMP JUMPDEST JUMPDEST PUSH1 0x20 MUL PUSH1 0x20 ADD ADD SWAP1 PUSH2 0xFFFF AND SWAP1 DUP2 PUSH2 0xFFFF AND DUP2 MSTORE POP POP PUSH1 0x44 DUP2 PUSH1 0x16 PUSH1 0xA8 DUP2 GT ISZERO PUSH2 0x6A83 JUMPI PUSH2 0x6A82 PUSH2 0xEAFB JUMP JUMPDEST JUMPDEST DUP2 MLOAD DUP2 LT PUSH2 0x6A94 JUMPI PUSH2 0x6A93 PUSH2 0xF0D7 JUMP JUMPDEST JUMPDEST PUSH1 0x20 MUL PUSH1 0x20 ADD ADD SWAP1 PUSH2 0xFFFF AND SWAP1 DUP2 PUSH2 0xFFFF AND DUP2 MSTORE POP POP PUSH1 0x44 DUP2 PUSH1 0x17 PUSH1 0xA8 DUP2 GT ISZERO PUSH2 0x6AC1 JUMPI PUSH2 0x6AC0 PUSH2 0xEAFB JUMP JUMPDEST JUMPDEST DUP2 MLOAD DUP2 LT PUSH2 0x6AD2 JUMPI PUSH2 0x6AD1 PUSH2 0xF0D7 JUMP JUMPDEST JUMPDEST PUSH1 0x20 MUL PUSH1 0x20 ADD ADD SWAP1 PUSH2 0xFFFF AND SWAP1 DUP2 PUSH2 0xFFFF AND DUP2 MSTORE POP POP PUSH1 0x4B DUP2 PUSH1 0x99 PUSH1 0xA8 DUP2 GT ISZERO PUSH2 0x6AFF JUMPI PUSH2 0x6AFE PUSH2 0xEAFB JUMP JUMPDEST JUMPDEST DUP2 MLOAD DUP2 LT PUSH2 0x6B10 JUMPI PUSH2 0x6B0F PUSH2 0xF0D7 JUMP JUMPDEST JUMPDEST PUSH1 0x20 MUL PUSH1 0x20 ADD ADD SWAP1 PUSH2 0xFFFF AND SWAP1 DUP2 PUSH2 0xFFFF AND DUP2 MSTORE POP POP PUSH1 0x4B DUP2 PUSH1 0x9A PUSH1 0xA8 DUP2 GT ISZERO PUSH2 0x6B3D JUMPI PUSH2 0x6B3C PUSH2 0xEAFB JUMP JUMPDEST JUMPDEST DUP2 MLOAD DUP2 LT PUSH2 0x6B4E JUMPI PUSH2 0x6B4D PUSH2 0xF0D7 JUMP JUMPDEST JUMPDEST PUSH1 0x20 MUL PUSH1 0x20 ADD ADD SWAP1 PUSH2 0xFFFF AND SWAP1 DUP2 PUSH2 0xFFFF AND DUP2 MSTORE POP POP PUSH1 0x4B DUP2 PUSH1 0x9B PUSH1 0xA8 DUP2 GT ISZERO PUSH2 0x6B7B JUMPI PUSH2 0x6B7A PUSH2 0xEAFB JUMP JUMPDEST JUMPDEST DUP2 MLOAD DUP2 LT PUSH2 0x6B8C JUMPI PUSH2 0x6B8B PUSH2 0xF0D7 JUMP JUMPDEST JUMPDEST PUSH1 0x20 MUL PUSH1 0x20 ADD ADD SWAP1 PUSH2 0xFFFF AND SWAP1 DUP2 PUSH2 0xFFFF AND DUP2 MSTORE POP POP PUSH1 0x4B DUP2 PUSH1 0x9C PUSH1 0xA8 DUP2 GT ISZERO PUSH2 0x6BB9 JUMPI PUSH2 0x6BB8 PUSH2 0xEAFB JUMP JUMPDEST JUMPDEST DUP2 MLOAD DUP2 LT PUSH2 0x6BCA JUMPI PUSH2 0x6BC9 PUSH2 0xF0D7 JUMP JUMPDEST JUMPDEST PUSH1 0x20 MUL PUSH1 0x20 ADD ADD SWAP1 PUSH2 0xFFFF AND SWAP1 DUP2 PUSH2 0xFFFF AND DUP2 MSTORE POP POP PUSH1 0x4B DUP2 PUSH1 0x9D PUSH1 0xA8 DUP2 GT ISZERO PUSH2 0x6BF7 JUMPI PUSH2 0x6BF6 PUSH2 0xEAFB JUMP JUMPDEST JUMPDEST DUP2 MLOAD DUP2 LT PUSH2 0x6C08 JUMPI PUSH2 0x6C07 PUSH2 0xF0D7 JUMP JUMPDEST JUMPDEST PUSH1 0x20 MUL PUSH1 0x20 ADD ADD SWAP1 PUSH2 0xFFFF AND SWAP1 DUP2 PUSH2 0xFFFF AND DUP2 MSTORE POP POP PUSH1 0x4B DUP2 PUSH1 0x9E PUSH1 0xA8 DUP2 GT ISZERO PUSH2 0x6C35 JUMPI PUSH2 0x6C34 PUSH2 0xEAFB JUMP JUMPDEST JUMPDEST DUP2 MLOAD DUP2 LT PUSH2 0x6C46 JUMPI PUSH2 0x6C45 PUSH2 0xF0D7 JUMP JUMPDEST JUMPDEST PUSH1 0x20 MUL PUSH1 0x20 ADD ADD SWAP1 PUSH2 0xFFFF AND SWAP1 DUP2 PUSH2 0xFFFF AND DUP2 MSTORE POP POP PUSH1 0x4B DUP2 PUSH1 0x9F PUSH1 0xA8 DUP2 GT ISZERO PUSH2 0x6C73 JUMPI PUSH2 0x6C72 PUSH2 0xEAFB JUMP JUMPDEST JUMPDEST DUP2 MLOAD DUP2 LT PUSH2 0x6C84 JUMPI PUSH2 0x6C83 PUSH2 0xF0D7 JUMP JUMPDEST JUMPDEST PUSH1 0x20 MUL PUSH1 0x20 ADD ADD SWAP1 PUSH2 0xFFFF AND SWAP1 DUP2 PUSH2 0xFFFF AND DUP2 MSTORE POP POP PUSH1 0x4B DUP2 PUSH1 0xA0 PUSH1 0xA8 DUP2 GT ISZERO PUSH2 0x6CB1 JUMPI PUSH2 0x6CB0 PUSH2 0xEAFB JUMP JUMPDEST JUMPDEST DUP2 MLOAD DUP2 LT PUSH2 0x6CC2 JUMPI PUSH2 0x6CC1 PUSH2 0xF0D7 JUMP JUMPDEST JUMPDEST PUSH1 0x20 MUL PUSH1 0x20 ADD ADD SWAP1 PUSH2 0xFFFF AND SWAP1 DUP2 PUSH2 0xFFFF AND DUP2 MSTORE POP POP PUSH1 0x3E DUP2 PUSH1 0x6 PUSH1 0xA8 DUP2 GT ISZERO PUSH2 0x6CEF JUMPI PUSH2 0x6CEE PUSH2 0xEAFB JUMP JUMPDEST JUMPDEST DUP2 MLOAD DUP2 LT PUSH2 0x6D00 JUMPI PUSH2 0x6CFF PUSH2 0xF0D7 JUMP JUMPDEST JUMPDEST PUSH1 0x20 MUL PUSH1 0x20 ADD ADD SWAP1 PUSH2 0xFFFF AND SWAP1 DUP2 PUSH2 0xFFFF AND DUP2 MSTORE POP POP PUSH1 0x3E DUP2 PUSH1 0x7 PUSH1 0xA8 DUP2 GT ISZERO PUSH2 0x6D2D JUMPI PUSH2 0x6D2C PUSH2 0xEAFB JUMP JUMPDEST JUMPDEST DUP2 MLOAD DUP2 LT PUSH2 0x6D3E JUMPI PUSH2 0x6D3D PUSH2 0xF0D7 JUMP JUMPDEST JUMPDEST PUSH1 0x20 MUL PUSH1 0x20 ADD ADD SWAP1 PUSH2 0xFFFF AND SWAP1 DUP2 PUSH2 0xFFFF AND DUP2 MSTORE POP POP PUSH1 0x3E DUP2 PUSH1 0x8 PUSH1 0xA8 DUP2 GT ISZERO PUSH2 0x6D6B JUMPI PUSH2 0x6D6A PUSH2 0xEAFB JUMP JUMPDEST JUMPDEST DUP2 MLOAD DUP2 LT PUSH2 0x6D7C JUMPI PUSH2 0x6D7B PUSH2 0xF0D7 JUMP JUMPDEST JUMPDEST PUSH1 0x20 MUL PUSH1 0x20 ADD ADD SWAP1 PUSH2 0xFFFF AND SWAP1 DUP2 PUSH2 0xFFFF AND DUP2 MSTORE POP POP PUSH1 0x3E DUP2 PUSH1 0x9 PUSH1 0xA8 DUP2 GT ISZERO PUSH2 0x6DA9 JUMPI PUSH2 0x6DA8 PUSH2 0xEAFB JUMP JUMPDEST JUMPDEST DUP2 MLOAD DUP2 LT PUSH2 0x6DBA JUMPI PUSH2 0x6DB9 PUSH2 0xF0D7 JUMP JUMPDEST JUMPDEST PUSH1 0x20 MUL PUSH1 0x20 ADD ADD SWAP1 PUSH2 0xFFFF AND SWAP1 DUP2 PUSH2 0xFFFF AND DUP2 MSTORE POP POP PUSH1 0x3E DUP2 PUSH1 0xA PUSH1 0xA8 DUP2 GT ISZERO PUSH2 0x6DE7 JUMPI PUSH2 0x6DE6 PUSH2 0xEAFB JUMP JUMPDEST JUMPDEST DUP2 MLOAD DUP2 LT PUSH2 0x6DF8 JUMPI PUSH2 0x6DF7 PUSH2 0xF0D7 JUMP JUMPDEST JUMPDEST PUSH1 0x20 MUL PUSH1 0x20 ADD ADD SWAP1 PUSH2 0xFFFF AND SWAP1 DUP2 PUSH2 0xFFFF AND DUP2 MSTORE POP POP PUSH1 0x3E DUP2 PUSH1 0xB PUSH1 0xA8 DUP2 GT ISZERO PUSH2 0x6E25 JUMPI PUSH2 0x6E24 PUSH2 0xEAFB JUMP JUMPDEST JUMPDEST DUP2 MLOAD DUP2 LT PUSH2 0x6E36 JUMPI PUSH2 0x6E35 PUSH2 0xF0D7 JUMP JUMPDEST JUMPDEST PUSH1 0x20 MUL PUSH1 0x20 ADD ADD SWAP1 PUSH2 0xFFFF AND SWAP1 DUP2 PUSH2 0xFFFF AND DUP2 MSTORE POP POP PUSH1 0x3E DUP2 PUSH1 0xC PUSH1 0xA8 DUP2 GT ISZERO PUSH2 0x6E63 JUMPI PUSH2 0x6E62 PUSH2 0xEAFB JUMP JUMPDEST JUMPDEST DUP2 MLOAD DUP2 LT PUSH2 0x6E74 JUMPI PUSH2 0x6E73 PUSH2 0xF0D7 JUMP JUMPDEST JUMPDEST PUSH1 0x20 MUL PUSH1 0x20 ADD ADD SWAP1 PUSH2 0xFFFF AND SWAP1 DUP2 PUSH2 0xFFFF AND DUP2 MSTORE POP POP PUSH1 0x3E DUP2 PUSH1 0xD PUSH1 0xA8 DUP2 GT ISZERO PUSH2 0x6EA1 JUMPI PUSH2 0x6EA0 PUSH2 0xEAFB JUMP JUMPDEST JUMPDEST DUP2 MLOAD DUP2 LT PUSH2 0x6EB2 JUMPI PUSH2 0x6EB1 PUSH2 0xF0D7 JUMP JUMPDEST JUMPDEST PUSH1 0x20 MUL PUSH1 0x20 ADD ADD SWAP1 PUSH2 0xFFFF AND SWAP1 DUP2 PUSH2 0xFFFF AND DUP2 MSTORE POP POP PUSH1 0x3E DUP2 PUSH1 0xE PUSH1 0xA8 DUP2 GT ISZERO PUSH2 0x6EDF JUMPI PUSH2 0x6EDE PUSH2 0xEAFB JUMP JUMPDEST JUMPDEST DUP2 MLOAD DUP2 LT PUSH2 0x6EF0 JUMPI PUSH2 0x6EEF PUSH2 0xF0D7 JUMP JUMPDEST JUMPDEST PUSH1 0x20 MUL PUSH1 0x20 ADD ADD SWAP1 PUSH2 0xFFFF AND SWAP1 DUP2 PUSH2 0xFFFF AND DUP2 MSTORE POP POP PUSH1 0x42 DUP2 PUSH1 0x3C PUSH1 0xA8 DUP2 GT ISZERO PUSH2 0x6F1D JUMPI PUSH2 0x6F1C PUSH2 0xEAFB JUMP JUMPDEST JUMPDEST DUP2 MLOAD DUP2 LT PUSH2 0x6F2E JUMPI PUSH2 0x6F2D PUSH2 0xF0D7 JUMP JUMPDEST JUMPDEST PUSH1 0x20 MUL PUSH1 0x20 ADD ADD SWAP1 PUSH2 0xFFFF AND SWAP1 DUP2 PUSH2 0xFFFF AND DUP2 MSTORE POP POP PUSH1 0x42 DUP2 PUSH1 0x3D PUSH1 0xA8 DUP2 GT ISZERO PUSH2 0x6F5B JUMPI PUSH2 0x6F5A PUSH2 0xEAFB JUMP JUMPDEST JUMPDEST DUP2 MLOAD DUP2 LT PUSH2 0x6F6C JUMPI PUSH2 0x6F6B PUSH2 0xF0D7 JUMP JUMPDEST JUMPDEST PUSH1 0x20 MUL PUSH1 0x20 ADD ADD SWAP1 PUSH2 0xFFFF AND SWAP1 DUP2 PUSH2 0xFFFF AND DUP2 MSTORE POP POP PUSH1 0x42 DUP2 PUSH1 0x3E PUSH1 0xA8 DUP2 GT ISZERO PUSH2 0x6F99 JUMPI PUSH2 0x6F98 PUSH2 0xEAFB JUMP JUMPDEST JUMPDEST DUP2 MLOAD DUP2 LT PUSH2 0x6FAA JUMPI PUSH2 0x6FA9 PUSH2 0xF0D7 JUMP JUMPDEST JUMPDEST PUSH1 0x20 MUL PUSH1 0x20 ADD ADD SWAP1 PUSH2 0xFFFF AND SWAP1 DUP2 PUSH2 0xFFFF AND DUP2 MSTORE POP POP PUSH1 0x42 DUP2 PUSH1 0x3F PUSH1 0xA8 DUP2 GT ISZERO PUSH2 0x6FD7 JUMPI PUSH2 0x6FD6 PUSH2 0xEAFB JUMP JUMPDEST JUMPDEST DUP2 MLOAD DUP2 LT PUSH2 0x6FE8 JUMPI PUSH2 0x6FE7 PUSH2 0xF0D7 JUMP JUMPDEST JUMPDEST PUSH1 0x20 MUL PUSH1 0x20 ADD ADD SWAP1 PUSH2 0xFFFF AND SWAP1 DUP2 PUSH2 0xFFFF AND DUP2 MSTORE POP POP PUSH1 0x42 DUP2 PUSH1 0x40 PUSH1 0xA8 DUP2 GT ISZERO PUSH2 0x7015 JUMPI PUSH2 0x7014 PUSH2 0xEAFB JUMP JUMPDEST JUMPDEST DUP2 MLOAD DUP2 LT PUSH2 0x7026 JUMPI PUSH2 0x7025 PUSH2 0xF0D7 JUMP JUMPDEST JUMPDEST PUSH1 0x20 MUL PUSH1 0x20 ADD ADD SWAP1 PUSH2 0xFFFF AND SWAP1 DUP2 PUSH2 0xFFFF AND DUP2 MSTORE POP POP PUSH2 0x145 DUP2 PUSH1 0x4B PUSH1 0xA8 DUP2 GT ISZERO PUSH2 0x7054 JUMPI PUSH2 0x7053 PUSH2 0xEAFB JUMP JUMPDEST JUMPDEST DUP2 MLOAD DUP2 LT PUSH2 0x7065 JUMPI PUSH2 0x7064 PUSH2 0xF0D7 JUMP JUMPDEST JUMPDEST PUSH1 0x20 MUL PUSH1 0x20 ADD ADD SWAP1 PUSH2 0xFFFF AND SWAP1 DUP2 PUSH2 0xFFFF AND DUP2 MSTORE POP POP PUSH1 0x40 DUP2 PUSH1 0x4C PUSH1 0xA8 DUP2 GT ISZERO PUSH2 0x7092 JUMPI PUSH2 0x7091 PUSH2 0xEAFB JUMP JUMPDEST JUMPDEST DUP2 MLOAD DUP2 LT PUSH2 0x70A3 JUMPI PUSH2 0x70A2 PUSH2 0xF0D7 JUMP JUMPDEST JUMPDEST PUSH1 0x20 MUL PUSH1 0x20 ADD ADD SWAP1 PUSH2 0xFFFF AND SWAP1 DUP2 PUSH2 0xFFFF AND DUP2 MSTORE POP POP PUSH1 0x40 DUP2 PUSH1 0x4D PUSH1 0xA8 DUP2 GT ISZERO PUSH2 0x70D0 JUMPI PUSH2 0x70CF PUSH2 0xEAFB JUMP JUMPDEST JUMPDEST DUP2 MLOAD DUP2 LT PUSH2 0x70E1 JUMPI PUSH2 0x70E0 PUSH2 0xF0D7 JUMP JUMPDEST JUMPDEST PUSH1 0x20 MUL PUSH1 0x20 ADD ADD SWAP1 PUSH2 0xFFFF AND SWAP1 DUP2 PUSH2 0xFFFF AND DUP2 MSTORE POP POP PUSH1 0x40 DUP2 PUSH1 0x4E PUSH1 0xA8 DUP2 GT ISZERO PUSH2 0x710E JUMPI PUSH2 0x710D PUSH2 0xEAFB JUMP JUMPDEST JUMPDEST DUP2 MLOAD DUP2 LT PUSH2 0x711F JUMPI PUSH2 0x711E PUSH2 0xF0D7 JUMP JUMPDEST JUMPDEST PUSH1 0x20 MUL PUSH1 0x20 ADD ADD SWAP1 PUSH2 0xFFFF AND SWAP1 DUP2 PUSH2 0xFFFF AND DUP2 MSTORE POP POP PUSH1 0x40 DUP2 PUSH1 0x4F PUSH1 0xA8 DUP2 GT ISZERO PUSH2 0x714C JUMPI PUSH2 0x714B PUSH2 0xEAFB JUMP JUMPDEST JUMPDEST DUP2 MLOAD DUP2 LT PUSH2 0x715D JUMPI PUSH2 0x715C PUSH2 0xF0D7 JUMP JUMPDEST JUMPDEST PUSH1 0x20 MUL PUSH1 0x20 ADD ADD SWAP1 PUSH2 0xFFFF AND SWAP1 DUP2 PUSH2 0xFFFF AND DUP2 MSTORE POP POP PUSH1 0x40 DUP2 PUSH1 0x50 PUSH1 0xA8 DUP2 GT ISZERO PUSH2 0x718A JUMPI PUSH2 0x7189 PUSH2 0xEAFB JUMP JUMPDEST JUMPDEST DUP2 MLOAD DUP2 LT PUSH2 0x719B JUMPI PUSH2 0x719A PUSH2 0xF0D7 JUMP JUMPDEST JUMPDEST PUSH1 0x20 MUL PUSH1 0x20 ADD ADD SWAP1 PUSH2 0xFFFF AND SWAP1 DUP2 PUSH2 0xFFFF AND DUP2 MSTORE POP POP PUSH1 0x4E DUP2 PUSH1 0x8D PUSH1 0xA8 DUP2 GT ISZERO PUSH2 0x71C8 JUMPI PUSH2 0x71C7 PUSH2 0xEAFB JUMP JUMPDEST JUMPDEST DUP2 MLOAD DUP2 LT PUSH2 0x71D9 JUMPI PUSH2 0x71D8 PUSH2 0xF0D7 JUMP JUMPDEST JUMPDEST PUSH1 0x20 MUL PUSH1 0x20 ADD ADD SWAP1 PUSH2 0xFFFF AND SWAP1 DUP2 PUSH2 0xFFFF AND DUP2 MSTORE POP POP PUSH1 0x4E DUP2 PUSH1 0x8E PUSH1 0xA8 DUP2 GT ISZERO PUSH2 0x7206 JUMPI PUSH2 0x7205 PUSH2 0xEAFB JUMP JUMPDEST JUMPDEST DUP2 MLOAD DUP2 LT PUSH2 0x7217 JUMPI PUSH2 0x7216 PUSH2 0xF0D7 JUMP JUMPDEST JUMPDEST PUSH1 0x20 MUL PUSH1 0x20 ADD ADD SWAP1 PUSH2 0xFFFF AND SWAP1 DUP2 PUSH2 0xFFFF AND DUP2 MSTORE POP POP PUSH1 0x4E DUP2 PUSH1 0x8F PUSH1 0xA8 DUP2 GT ISZERO PUSH2 0x7244 JUMPI PUSH2 0x7243 PUSH2 0xEAFB JUMP JUMPDEST JUMPDEST DUP2 MLOAD DUP2 LT PUSH2 0x7255 JUMPI PUSH2 0x7254 PUSH2 0xF0D7 JUMP JUMPDEST JUMPDEST PUSH1 0x20 MUL PUSH1 0x20 ADD ADD SWAP1 PUSH2 0xFFFF AND SWAP1 DUP2 PUSH2 0xFFFF AND DUP2 MSTORE POP POP PUSH1 0x4E DUP2 PUSH1 0x90 PUSH1 0xA8 DUP2 GT ISZERO PUSH2 0x7282 JUMPI PUSH2 0x7281 PUSH2 0xEAFB JUMP JUMPDEST JUMPDEST DUP2 MLOAD DUP2 LT PUSH2 0x7293 JUMPI PUSH2 0x7292 PUSH2 0xF0D7 JUMP JUMPDEST JUMPDEST PUSH1 0x20 MUL PUSH1 0x20 ADD ADD SWAP1 PUSH2 0xFFFF AND SWAP1 DUP2 PUSH2 0xFFFF AND DUP2 MSTORE POP POP PUSH1 0x26 DUP2 PUSH1 0x7B PUSH1 0xA8 DUP2 GT ISZERO PUSH2 0x72C0 JUMPI PUSH2 0x72BF PUSH2 0xEAFB JUMP JUMPDEST JUMPDEST DUP2 MLOAD DUP2 LT PUSH2 0x72D1 JUMPI PUSH2 0x72D0 PUSH2 0xF0D7 JUMP JUMPDEST JUMPDEST PUSH1 0x20 MUL PUSH1 0x20 ADD ADD SWAP1 PUSH2 0xFFFF AND SWAP1 DUP2 PUSH2 0xFFFF AND DUP2 MSTORE POP POP PUSH1 0x26 DUP2 PUSH1 0x7C PUSH1 0xA8 DUP2 GT ISZERO PUSH2 0x72FE JUMPI PUSH2 0x72FD PUSH2 0xEAFB JUMP JUMPDEST JUMPDEST DUP2 MLOAD DUP2 LT PUSH2 0x730F JUMPI PUSH2 0x730E PUSH2 0xF0D7 JUMP JUMPDEST JUMPDEST PUSH1 0x20 MUL PUSH1 0x20 ADD ADD SWAP1 PUSH2 0xFFFF AND SWAP1 DUP2 PUSH2 0xFFFF AND DUP2 MSTORE POP POP PUSH1 0x26 DUP2 PUSH1 0x7D PUSH1 0xA8 DUP2 GT ISZERO PUSH2 0x733C JUMPI PUSH2 0x733B PUSH2 0xEAFB JUMP JUMPDEST JUMPDEST DUP2 MLOAD DUP2 LT PUSH2 0x734D JUMPI PUSH2 0x734C PUSH2 0xF0D7 JUMP JUMPDEST JUMPDEST PUSH1 0x20 MUL PUSH1 0x20 ADD ADD SWAP1 PUSH2 0xFFFF AND SWAP1 DUP2 PUSH2 0xFFFF AND DUP2 MSTORE POP POP PUSH1 0x26 DUP2 PUSH1 0x7E PUSH1 0xA8 DUP2 GT ISZERO PUSH2 0x737A JUMPI PUSH2 0x7379 PUSH2 0xEAFB JUMP JUMPDEST JUMPDEST DUP2 MLOAD DUP2 LT PUSH2 0x738B JUMPI PUSH2 0x738A PUSH2 0xF0D7 JUMP JUMPDEST JUMPDEST PUSH1 0x20 MUL PUSH1 0x20 ADD ADD SWAP1 PUSH2 0xFFFF AND SWAP1 DUP2 PUSH2 0xFFFF AND DUP2 MSTORE POP POP PUSH1 0x26 DUP2 PUSH1 0x7F PUSH1 0xA8 DUP2 GT ISZERO PUSH2 0x73B8 JUMPI PUSH2 0x73B7 PUSH2 0xEAFB JUMP JUMPDEST JUMPDEST DUP2 MLOAD DUP2 LT PUSH2 0x73C9 JUMPI PUSH2 0x73C8 PUSH2 0xF0D7 JUMP JUMPDEST JUMPDEST PUSH1 0x20 MUL PUSH1 0x20 ADD ADD SWAP1 PUSH2 0xFFFF AND SWAP1 DUP2 PUSH2 0xFFFF AND DUP2 MSTORE POP POP PUSH1 0x26 DUP2 PUSH1 0x80 PUSH1 0xA8 DUP2 GT ISZERO PUSH2 0x73F6 JUMPI PUSH2 0x73F5 PUSH2 0xEAFB JUMP JUMPDEST JUMPDEST DUP2 MLOAD DUP2 LT PUSH2 0x7407 JUMPI PUSH2 0x7406 PUSH2 0xF0D7 JUMP JUMPDEST JUMPDEST PUSH1 0x20 MUL PUSH1 0x20 ADD ADD SWAP1 PUSH2 0xFFFF AND SWAP1 DUP2 PUSH2 0xFFFF AND DUP2 MSTORE POP POP PUSH1 0x26 DUP2 PUSH1 0x81 PUSH1 0xA8 DUP2 GT ISZERO PUSH2 0x7434 JUMPI PUSH2 0x7433 PUSH2 0xEAFB JUMP JUMPDEST JUMPDEST DUP2 MLOAD DUP2 LT PUSH2 0x7445 JUMPI PUSH2 0x7444 PUSH2 0xF0D7 JUMP JUMPDEST JUMPDEST PUSH1 0x20 MUL PUSH1 0x20 ADD ADD SWAP1 PUSH2 0xFFFF AND SWAP1 DUP2 PUSH2 0xFFFF AND DUP2 MSTORE POP POP PUSH1 0x26 DUP2 PUSH1 0x82 PUSH1 0xA8 DUP2 GT ISZERO PUSH2 0x7472 JUMPI PUSH2 0x7471 PUSH2 0xEAFB JUMP JUMPDEST JUMPDEST DUP2 MLOAD DUP2 LT PUSH2 0x7483 JUMPI PUSH2 0x7482 PUSH2 0xF0D7 JUMP JUMPDEST JUMPDEST PUSH1 0x20 MUL PUSH1 0x20 ADD ADD SWAP1 PUSH2 0xFFFF AND SWAP1 DUP2 PUSH2 0xFFFF AND DUP2 MSTORE POP POP PUSH1 0x64 DUP2 PUSH1 0x66 PUSH1 0xA8 DUP2 GT ISZERO PUSH2 0x74B0 JUMPI PUSH2 0x74AF PUSH2 0xEAFB JUMP JUMPDEST JUMPDEST DUP2 MLOAD DUP2 LT PUSH2 0x74C1 JUMPI PUSH2 0x74C0 PUSH2 0xF0D7 JUMP JUMPDEST JUMPDEST PUSH1 0x20 MUL PUSH1 0x20 ADD ADD SWAP1 PUSH2 0xFFFF AND SWAP1 DUP2 PUSH2 0xFFFF AND DUP2 MSTORE POP POP PUSH1 0x64 DUP2 PUSH1 0x67 PUSH1 0xA8 DUP2 GT ISZERO PUSH2 0x74EE JUMPI PUSH2 0x74ED PUSH2 0xEAFB JUMP JUMPDEST JUMPDEST DUP2 MLOAD DUP2 LT PUSH2 0x74FF JUMPI PUSH2 0x74FE PUSH2 0xF0D7 JUMP JUMPDEST JUMPDEST PUSH1 0x20 MUL PUSH1 0x20 ADD ADD SWAP1 PUSH2 0xFFFF AND SWAP1 DUP2 PUSH2 0xFFFF AND DUP2 MSTORE POP POP PUSH1 0x64 DUP2 PUSH1 0x68 PUSH1 0xA8 DUP2 GT ISZERO PUSH2 0x752C JUMPI PUSH2 0x752B PUSH2 0xEAFB JUMP JUMPDEST JUMPDEST DUP2 MLOAD DUP2 LT PUSH2 0x753D JUMPI PUSH2 0x753C PUSH2 0xF0D7 JUMP JUMPDEST JUMPDEST PUSH1 0x20 MUL PUSH1 0x20 ADD ADD SWAP1 PUSH2 0xFFFF AND SWAP1 DUP2 PUSH2 0xFFFF AND DUP2 MSTORE POP POP PUSH2 0x127 DUP2 PUSH1 0x30 PUSH1 0xA8 DUP2 GT ISZERO PUSH2 0x756B JUMPI PUSH2 0x756A PUSH2 0xEAFB JUMP JUMPDEST JUMPDEST DUP2 MLOAD DUP2 LT PUSH2 0x757C JUMPI PUSH2 0x757B PUSH2 0xF0D7 JUMP JUMPDEST JUMPDEST PUSH1 0x20 MUL PUSH1 0x20 ADD ADD SWAP1 PUSH2 0xFFFF AND SWAP1 DUP2 PUSH2 0xFFFF AND DUP2 MSTORE POP POP PUSH2 0x122 DUP2 PUSH1 0x91 PUSH1 0xA8 DUP2 GT ISZERO PUSH2 0x75AA JUMPI PUSH2 0x75A9 PUSH2 0xEAFB JUMP JUMPDEST JUMPDEST DUP2 MLOAD DUP2 LT PUSH2 0x75BB JUMPI PUSH2 0x75BA PUSH2 0xF0D7 JUMP JUMPDEST JUMPDEST PUSH1 0x20 MUL PUSH1 0x20 ADD ADD SWAP1 PUSH2 0xFFFF AND SWAP1 DUP2 PUSH2 0xFFFF AND DUP2 MSTORE POP POP PUSH1 0x29 DUP2 PUSH1 0x5B PUSH1 0xA8 DUP2 GT ISZERO PUSH2 0x75E8 JUMPI PUSH2 0x75E7 PUSH2 0xEAFB JUMP JUMPDEST JUMPDEST DUP2 MLOAD DUP2 LT PUSH2 0x75F9 JUMPI PUSH2 0x75F8 PUSH2 0xF0D7 JUMP JUMPDEST JUMPDEST PUSH1 0x20 MUL PUSH1 0x20 ADD ADD SWAP1 PUSH2 0xFFFF AND SWAP1 DUP2 PUSH2 0xFFFF AND DUP2 MSTORE POP POP PUSH1 0x29 DUP2 PUSH1 0x5C PUSH1 0xA8 DUP2 GT ISZERO PUSH2 0x7626 JUMPI PUSH2 0x7625 PUSH2 0xEAFB JUMP JUMPDEST JUMPDEST DUP2 MLOAD DUP2 LT PUSH2 0x7637 JUMPI PUSH2 0x7636 PUSH2 0xF0D7 JUMP JUMPDEST JUMPDEST PUSH1 0x20 MUL PUSH1 0x20 ADD ADD SWAP1 PUSH2 0xFFFF AND SWAP1 DUP2 PUSH2 0xFFFF AND DUP2 MSTORE POP POP PUSH1 0x29 DUP2 PUSH1 0x5D PUSH1 0xA8 DUP2 GT ISZERO PUSH2 0x7664 JUMPI PUSH2 0x7663 PUSH2 0xEAFB JUMP JUMPDEST JUMPDEST DUP2 MLOAD DUP2 LT PUSH2 0x7675 JUMPI PUSH2 0x7674 PUSH2 0xF0D7 JUMP JUMPDEST JUMPDEST PUSH1 0x20 MUL PUSH1 0x20 ADD ADD SWAP1 PUSH2 0xFFFF AND SWAP1 DUP2 PUSH2 0xFFFF AND DUP2 MSTORE POP POP PUSH1 0x29 DUP2 PUSH1 0x5E PUSH1 0xA8 DUP2 GT ISZERO PUSH2 0x76A2 JUMPI PUSH2 0x76A1 PUSH2 0xEAFB JUMP JUMPDEST JUMPDEST DUP2 MLOAD DUP2 LT PUSH2 0x76B3 JUMPI PUSH2 0x76B2 PUSH2 0xF0D7 JUMP JUMPDEST JUMPDEST PUSH1 0x20 MUL PUSH1 0x20 ADD ADD SWAP1 PUSH2 0xFFFF AND SWAP1 DUP2 PUSH2 0xFFFF AND DUP2 MSTORE POP POP PUSH1 0x29 DUP2 PUSH1 0x5F PUSH1 0xA8 DUP2 GT ISZERO PUSH2 0x76E0 JUMPI PUSH2 0x76DF PUSH2 0xEAFB JUMP JUMPDEST JUMPDEST DUP2 MLOAD DUP2 LT PUSH2 0x76F1 JUMPI PUSH2 0x76F0 PUSH2 0xF0D7 JUMP JUMPDEST JUMPDEST PUSH1 0x20 MUL PUSH1 0x20 ADD ADD SWAP1 PUSH2 0xFFFF AND SWAP1 DUP2 PUSH2 0xFFFF AND DUP2 MSTORE POP POP PUSH1 0x29 DUP2 PUSH1 0x60 PUSH1 0xA8 DUP2 GT ISZERO PUSH2 0x771E JUMPI PUSH2 0x771D PUSH2 0xEAFB JUMP JUMPDEST JUMPDEST DUP2 MLOAD DUP2 LT PUSH2 0x772F JUMPI PUSH2 0x772E PUSH2 0xF0D7 JUMP JUMPDEST JUMPDEST PUSH1 0x20 MUL PUSH1 0x20 ADD ADD SWAP1 PUSH2 0xFFFF AND SWAP1 DUP2 PUSH2 0xFFFF AND DUP2 MSTORE POP POP PUSH1 0x29 DUP2 PUSH1 0x61 PUSH1 0xA8 DUP2 GT ISZERO PUSH2 0x775C JUMPI PUSH2 0x775B PUSH2 0xEAFB JUMP JUMPDEST JUMPDEST DUP2 MLOAD DUP2 LT PUSH2 0x776D JUMPI PUSH2 0x776C PUSH2 0xF0D7 JUMP JUMPDEST JUMPDEST PUSH1 0x20 MUL PUSH1 0x20 ADD ADD SWAP1 PUSH2 0xFFFF AND SWAP1 DUP2 PUSH2 0xFFFF AND DUP2 MSTORE POP POP PUSH1 0x12 DUP2 PUSH1 0x31 PUSH1 0xA8 DUP2 GT ISZERO PUSH2 0x779A JUMPI PUSH2 0x7799 PUSH2 0xEAFB JUMP JUMPDEST JUMPDEST DUP2 MLOAD DUP2 LT PUSH2 0x77AB JUMPI PUSH2 0x77AA PUSH2 0xF0D7 JUMP JUMPDEST JUMPDEST PUSH1 0x20 MUL PUSH1 0x20 ADD ADD SWAP1 PUSH2 0xFFFF AND SWAP1 DUP2 PUSH2 0xFFFF AND DUP2 MSTORE POP POP PUSH1 0x12 DUP2 PUSH1 0x32 PUSH1 0xA8 DUP2 GT ISZERO PUSH2 0x77D8 JUMPI PUSH2 0x77D7 PUSH2 0xEAFB JUMP JUMPDEST JUMPDEST DUP2 MLOAD DUP2 LT PUSH2 0x77E9 JUMPI PUSH2 0x77E8 PUSH2 0xF0D7 JUMP JUMPDEST JUMPDEST PUSH1 0x20 MUL PUSH1 0x20 ADD ADD SWAP1 PUSH2 0xFFFF AND SWAP1 DUP2 PUSH2 0xFFFF AND DUP2 MSTORE POP POP PUSH1 0x12 DUP2 PUSH1 0x33 PUSH1 0xA8 DUP2 GT ISZERO PUSH2 0x7816 JUMPI PUSH2 0x7815 PUSH2 0xEAFB JUMP JUMPDEST JUMPDEST DUP2 MLOAD DUP2 LT PUSH2 0x7827 JUMPI PUSH2 0x7826 PUSH2 0xF0D7 JUMP JUMPDEST JUMPDEST PUSH1 0x20 MUL PUSH1 0x20 ADD ADD SWAP1 PUSH2 0xFFFF AND SWAP1 DUP2 PUSH2 0xFFFF AND DUP2 MSTORE POP POP PUSH1 0x12 DUP2 PUSH1 0x34 PUSH1 0xA8 DUP2 GT ISZERO PUSH2 0x7854 JUMPI PUSH2 0x7853 PUSH2 0xEAFB JUMP JUMPDEST JUMPDEST DUP2 MLOAD DUP2 LT PUSH2 0x7865 JUMPI PUSH2 0x7864 PUSH2 0xF0D7 JUMP JUMPDEST JUMPDEST PUSH1 0x20 MUL PUSH1 0x20 ADD ADD SWAP1 PUSH2 0xFFFF AND SWAP1 DUP2 PUSH2 0xFFFF AND DUP2 MSTORE POP POP PUSH1 0x12 DUP2 PUSH1 0x35 PUSH1 0xA8 DUP2 GT ISZERO PUSH2 0x7892 JUMPI PUSH2 0x7891 PUSH2 0xEAFB JUMP JUMPDEST JUMPDEST DUP2 MLOAD DUP2 LT PUSH2 0x78A3 JUMPI PUSH2 0x78A2 PUSH2 0xF0D7 JUMP JUMPDEST JUMPDEST PUSH1 0x20 MUL PUSH1 0x20 ADD ADD SWAP1 PUSH2 0xFFFF AND SWAP1 DUP2 PUSH2 0xFFFF AND DUP2 MSTORE POP POP PUSH1 0x12 DUP2 PUSH1 0x36 PUSH1 0xA8 DUP2 GT ISZERO PUSH2 0x78D0 JUMPI PUSH2 0x78CF PUSH2 0xEAFB JUMP JUMPDEST JUMPDEST DUP2 MLOAD DUP2 LT PUSH2 0x78E1 JUMPI PUSH2 0x78E0 PUSH2 0xF0D7 JUMP JUMPDEST JUMPDEST PUSH1 0x20 MUL PUSH1 0x20 ADD ADD SWAP1 PUSH2 0xFFFF AND SWAP1 DUP2 PUSH2 0xFFFF AND DUP2 MSTORE POP POP PUSH1 0x12 DUP2 PUSH1 0x37 PUSH1 0xA8 DUP2 GT ISZERO PUSH2 0x790E JUMPI PUSH2 0x790D PUSH2 0xEAFB JUMP JUMPDEST JUMPDEST DUP2 MLOAD DUP2 LT PUSH2 0x791F JUMPI PUSH2 0x791E PUSH2 0xF0D7 JUMP JUMPDEST JUMPDEST PUSH1 0x20 MUL PUSH1 0x20 ADD ADD SWAP1 PUSH2 0xFFFF AND SWAP1 DUP2 PUSH2 0xFFFF AND DUP2 MSTORE POP POP PUSH1 0x12 DUP2 PUSH1 0x38 PUSH1 0xA8 DUP2 GT ISZERO PUSH2 0x794C JUMPI PUSH2 0x794B PUSH2 0xEAFB JUMP JUMPDEST JUMPDEST DUP2 MLOAD DUP2 LT PUSH2 0x795D JUMPI PUSH2 0x795C PUSH2 0xF0D7 JUMP JUMPDEST JUMPDEST PUSH1 0x20 MUL PUSH1 0x20 ADD ADD SWAP1 PUSH2 0xFFFF AND SWAP1 DUP2 PUSH2 0xFFFF AND DUP2 MSTORE POP POP PUSH1 0x12 DUP2 PUSH1 0x39 PUSH1 0xA8 DUP2 GT ISZERO PUSH2 0x798A JUMPI PUSH2 0x7989 PUSH2 0xEAFB JUMP JUMPDEST JUMPDEST DUP2 MLOAD DUP2 LT PUSH2 0x799B JUMPI PUSH2 0x799A PUSH2 0xF0D7 JUMP JUMPDEST JUMPDEST PUSH1 0x20 MUL PUSH1 0x20 ADD ADD SWAP1 PUSH2 0xFFFF AND SWAP1 DUP2 PUSH2 0xFFFF AND DUP2 MSTORE POP POP PUSH1 0x96 DUP2 PUSH1 0x28 PUSH1 0xA8 DUP2 GT ISZERO PUSH2 0x79C8 JUMPI PUSH2 0x79C7 PUSH2 0xEAFB JUMP JUMPDEST JUMPDEST DUP2 MLOAD DUP2 LT PUSH2 0x79D9 JUMPI PUSH2 0x79D8 PUSH2 0xF0D7 JUMP JUMPDEST JUMPDEST PUSH1 0x20 MUL PUSH1 0x20 ADD ADD SWAP1 PUSH2 0xFFFF AND SWAP1 DUP2 PUSH2 0xFFFF AND DUP2 MSTORE POP POP PUSH1 0x30 DUP2 PUSH1 0x18 PUSH1 0xA8 DUP2 GT ISZERO PUSH2 0x7A06 JUMPI PUSH2 0x7A05 PUSH2 0xEAFB JUMP JUMPDEST JUMPDEST DUP2 MLOAD DUP2 LT PUSH2 0x7A17 JUMPI PUSH2 0x7A16 PUSH2 0xF0D7 JUMP JUMPDEST JUMPDEST PUSH1 0x20 MUL PUSH1 0x20 ADD ADD SWAP1 PUSH2 0xFFFF AND SWAP1 DUP2 PUSH2 0xFFFF AND DUP2 MSTORE POP POP PUSH1 0x30 DUP2 PUSH1 0x19 PUSH1 0xA8 DUP2 GT ISZERO PUSH2 0x7A44 JUMPI PUSH2 0x7A43 PUSH2 0xEAFB JUMP JUMPDEST JUMPDEST DUP2 MLOAD DUP2 LT PUSH2 0x7A55 JUMPI PUSH2 0x7A54 PUSH2 0xF0D7 JUMP JUMPDEST JUMPDEST PUSH1 0x20 MUL PUSH1 0x20 ADD ADD SWAP1 PUSH2 0xFFFF AND SWAP1 DUP2 PUSH2 0xFFFF AND DUP2 MSTORE POP POP PUSH1 0x30 DUP2 PUSH1 0x1A PUSH1 0xA8 DUP2 GT ISZERO PUSH2 0x7A82 JUMPI PUSH2 0x7A81 PUSH2 0xEAFB JUMP JUMPDEST JUMPDEST DUP2 MLOAD DUP2 LT PUSH2 0x7A93 JUMPI PUSH2 0x7A92 PUSH2 0xF0D7 JUMP JUMPDEST JUMPDEST PUSH1 0x20 MUL PUSH1 0x20 ADD ADD SWAP1 PUSH2 0xFFFF AND SWAP1 DUP2 PUSH2 0xFFFF AND DUP2 MSTORE POP POP PUSH1 0xF DUP2 PUSH1 0x41 PUSH1 0xA8 DUP2 GT ISZERO PUSH2 0x7AC0 JUMPI PUSH2 0x7ABF PUSH2 0xEAFB JUMP JUMPDEST JUMPDEST DUP2 MLOAD DUP2 LT PUSH2 0x7AD1 JUMPI PUSH2 0x7AD0 PUSH2 0xF0D7 JUMP JUMPDEST JUMPDEST PUSH1 0x20 MUL PUSH1 0x20 ADD ADD SWAP1 PUSH2 0xFFFF AND SWAP1 DUP2 PUSH2 0xFFFF AND DUP2 MSTORE POP POP PUSH1 0xF DUP2 PUSH1 0x43 PUSH1 0xA8 DUP2 GT ISZERO PUSH2 0x7AFE JUMPI PUSH2 0x7AFD PUSH2 0xEAFB JUMP JUMPDEST JUMPDEST DUP2 MLOAD DUP2 LT PUSH2 0x7B0F JUMPI PUSH2 0x7B0E PUSH2 0xF0D7 JUMP JUMPDEST JUMPDEST PUSH1 0x20 MUL PUSH1 0x20 ADD ADD SWAP1 PUSH2 0xFFFF AND SWAP1 DUP2 PUSH2 0xFFFF AND DUP2 MSTORE POP POP PUSH1 0xF DUP2 PUSH1 0x42 PUSH1 0xA8 DUP2 GT ISZERO PUSH2 0x7B3C JUMPI PUSH2 0x7B3B PUSH2 0xEAFB JUMP JUMPDEST JUMPDEST DUP2 MLOAD DUP2 LT PUSH2 0x7B4D JUMPI PUSH2 0x7B4C PUSH2 0xF0D7 JUMP JUMPDEST JUMPDEST PUSH1 0x20 MUL PUSH1 0x20 ADD ADD SWAP1 PUSH2 0xFFFF AND SWAP1 DUP2 PUSH2 0xFFFF AND DUP2 MSTORE POP POP PUSH1 0xF DUP2 PUSH1 0x44 PUSH1 0xA8 DUP2 GT ISZERO PUSH2 0x7B7A JUMPI PUSH2 0x7B79 PUSH2 0xEAFB JUMP JUMPDEST JUMPDEST DUP2 MLOAD DUP2 LT PUSH2 0x7B8B JUMPI PUSH2 0x7B8A PUSH2 0xF0D7 JUMP JUMPDEST JUMPDEST PUSH1 0x20 MUL PUSH1 0x20 ADD ADD SWAP1 PUSH2 0xFFFF AND SWAP1 DUP2 PUSH2 0xFFFF AND DUP2 MSTORE POP POP PUSH1 0xF DUP2 PUSH1 0x45 PUSH1 0xA8 DUP2 GT ISZERO PUSH2 0x7BB8 JUMPI PUSH2 0x7BB7 PUSH2 0xEAFB JUMP JUMPDEST JUMPDEST DUP2 MLOAD DUP2 LT PUSH2 0x7BC9 JUMPI PUSH2 0x7BC8 PUSH2 0xF0D7 JUMP JUMPDEST JUMPDEST PUSH1 0x20 MUL PUSH1 0x20 ADD ADD SWAP1 PUSH2 0xFFFF AND SWAP1 DUP2 PUSH2 0xFFFF AND DUP2 MSTORE POP POP PUSH1 0xF DUP2 PUSH1 0x46 PUSH1 0xA8 DUP2 GT ISZERO PUSH2 0x7BF6 JUMPI PUSH2 0x7BF5 PUSH2 0xEAFB JUMP JUMPDEST JUMPDEST DUP2 MLOAD DUP2 LT PUSH2 0x7C07 JUMPI PUSH2 0x7C06 PUSH2 0xF0D7 JUMP JUMPDEST JUMPDEST PUSH1 0x20 MUL PUSH1 0x20 ADD ADD SWAP1 PUSH2 0xFFFF AND SWAP1 DUP2 PUSH2 0xFFFF AND DUP2 MSTORE POP POP PUSH1 0xF DUP2 PUSH1 0x47 PUSH1 0xA8 DUP2 GT ISZERO PUSH2 0x7C34 JUMPI PUSH2 0x7C33 PUSH2 0xEAFB JUMP JUMPDEST JUMPDEST DUP2 MLOAD DUP2 LT PUSH2 0x7C45 JUMPI PUSH2 0x7C44 PUSH2 0xF0D7 JUMP JUMPDEST JUMPDEST PUSH1 0x20 MUL PUSH1 0x20 ADD ADD SWAP1 PUSH2 0xFFFF AND SWAP1 DUP2 PUSH2 0xFFFF AND DUP2 MSTORE POP POP PUSH1 0xF DUP2 PUSH1 0x48 PUSH1 0xA8 DUP2 GT ISZERO PUSH2 0x7C72 JUMPI PUSH2 0x7C71 PUSH2 0xEAFB JUMP JUMPDEST JUMPDEST DUP2 MLOAD DUP2 LT PUSH2 0x7C83 JUMPI PUSH2 0x7C82 PUSH2 0xF0D7 JUMP JUMPDEST JUMPDEST PUSH1 0x20 MUL PUSH1 0x20 ADD ADD SWAP1 PUSH2 0xFFFF AND SWAP1 DUP2 PUSH2 0xFFFF AND DUP2 MSTORE POP POP PUSH1 0xF DUP2 PUSH1 0x49 PUSH1 0xA8 DUP2 GT ISZERO PUSH2 0x7CB0 JUMPI PUSH2 0x7CAF PUSH2 0xEAFB JUMP JUMPDEST JUMPDEST DUP2 MLOAD DUP2 LT PUSH2 0x7CC1 JUMPI PUSH2 0x7CC0 PUSH2 0xF0D7 JUMP JUMPDEST JUMPDEST PUSH1 0x20 MUL PUSH1 0x20 ADD ADD SWAP1 PUSH2 0xFFFF AND SWAP1 DUP2 PUSH2 0xFFFF AND DUP2 MSTORE POP POP PUSH1 0xE DUP2 PUSH1 0x83 PUSH1 0xA8 DUP2 GT ISZERO PUSH2 0x7CEE JUMPI PUSH2 0x7CED PUSH2 0xEAFB JUMP JUMPDEST JUMPDEST DUP2 MLOAD DUP2 LT PUSH2 0x7CFF JUMPI PUSH2 0x7CFE PUSH2 0xF0D7 JUMP JUMPDEST JUMPDEST PUSH1 0x20 MUL PUSH1 0x20 ADD ADD SWAP1 PUSH2 0xFFFF AND SWAP1 DUP2 PUSH2 0xFFFF AND DUP2 MSTORE POP POP PUSH1 0xE DUP2 PUSH1 0x84 PUSH1 0xA8 DUP2 GT ISZERO PUSH2 0x7D2C JUMPI PUSH2 0x7D2B PUSH2 0xEAFB JUMP JUMPDEST JUMPDEST DUP2 MLOAD DUP2 LT PUSH2 0x7D3D JUMPI PUSH2 0x7D3C PUSH2 0xF0D7 JUMP JUMPDEST JUMPDEST PUSH1 0x20 MUL PUSH1 0x20 ADD ADD SWAP1 PUSH2 0xFFFF AND SWAP1 DUP2 PUSH2 0xFFFF AND DUP2 MSTORE POP POP PUSH1 0xE DUP2 PUSH1 0x85 PUSH1 0xA8 DUP2 GT ISZERO PUSH2 0x7D6A JUMPI PUSH2 0x7D69 PUSH2 0xEAFB JUMP JUMPDEST JUMPDEST DUP2 MLOAD DUP2 LT PUSH2 0x7D7B JUMPI PUSH2 0x7D7A PUSH2 0xF0D7 JUMP JUMPDEST JUMPDEST PUSH1 0x20 MUL PUSH1 0x20 ADD ADD SWAP1 PUSH2 0xFFFF AND SWAP1 DUP2 PUSH2 0xFFFF AND DUP2 MSTORE POP POP PUSH1 0xE DUP2 PUSH1 0x86 PUSH1 0xA8 DUP2 GT ISZERO PUSH2 0x7DA8 JUMPI PUSH2 0x7DA7 PUSH2 0xEAFB JUMP JUMPDEST JUMPDEST DUP2 MLOAD DUP2 LT PUSH2 0x7DB9 JUMPI PUSH2 0x7DB8 PUSH2 0xF0D7 JUMP JUMPDEST JUMPDEST PUSH1 0x20 MUL PUSH1 0x20 ADD ADD SWAP1 PUSH2 0xFFFF AND SWAP1 DUP2 PUSH2 0xFFFF AND DUP2 MSTORE POP POP PUSH1 0xE DUP2 PUSH1 0x87 PUSH1 0xA8 DUP2 GT ISZERO PUSH2 0x7DE6 JUMPI PUSH2 0x7DE5 PUSH2 0xEAFB JUMP JUMPDEST JUMPDEST DUP2 MLOAD DUP2 LT PUSH2 0x7DF7 JUMPI PUSH2 0x7DF6 PUSH2 0xF0D7 JUMP JUMPDEST JUMPDEST PUSH1 0x20 MUL PUSH1 0x20 ADD ADD SWAP1 PUSH2 0xFFFF AND SWAP1 DUP2 PUSH2 0xFFFF AND DUP2 MSTORE POP POP PUSH1 0xE DUP2 PUSH1 0x88 PUSH1 0xA8 DUP2 GT ISZERO PUSH2 0x7E24 JUMPI PUSH2 0x7E23 PUSH2 0xEAFB JUMP JUMPDEST JUMPDEST DUP2 MLOAD DUP2 LT PUSH2 0x7E35 JUMPI PUSH2 0x7E34 PUSH2 0xF0D7 JUMP JUMPDEST JUMPDEST PUSH1 0x20 MUL PUSH1 0x20 ADD ADD SWAP1 PUSH2 0xFFFF AND SWAP1 DUP2 PUSH2 0xFFFF AND DUP2 MSTORE POP POP PUSH1 0xE DUP2 PUSH1 0x89 PUSH1 0xA8 DUP2 GT ISZERO PUSH2 0x7E62 JUMPI PUSH2 0x7E61 PUSH2 0xEAFB JUMP JUMPDEST JUMPDEST DUP2 MLOAD DUP2 LT PUSH2 0x7E73 JUMPI PUSH2 0x7E72 PUSH2 0xF0D7 JUMP JUMPDEST JUMPDEST PUSH1 0x20 MUL PUSH1 0x20 ADD ADD SWAP1 PUSH2 0xFFFF AND SWAP1 DUP2 PUSH2 0xFFFF AND DUP2 MSTORE POP POP PUSH1 0xE DUP2 PUSH1 0x8A PUSH1 0xA8 DUP2 GT ISZERO PUSH2 0x7EA0 JUMPI PUSH2 0x7E9F PUSH2 0xEAFB JUMP JUMPDEST JUMPDEST DUP2 MLOAD DUP2 LT PUSH2 0x7EB1 JUMPI PUSH2 0x7EB0 PUSH2 0xF0D7 JUMP JUMPDEST JUMPDEST PUSH1 0x20 MUL PUSH1 0x20 ADD ADD SWAP1 PUSH2 0xFFFF AND SWAP1 DUP2 PUSH2 0xFFFF AND DUP2 MSTORE POP POP PUSH1 0xE DUP2 PUSH1 0x8B PUSH1 0xA8 DUP2 GT ISZERO PUSH2 0x7EDE JUMPI PUSH2 0x7EDD PUSH2 0xEAFB JUMP JUMPDEST JUMPDEST DUP2 MLOAD DUP2 LT PUSH2 0x7EEF JUMPI PUSH2 0x7EEE PUSH2 0xF0D7 JUMP JUMPDEST JUMPDEST PUSH1 0x20 MUL PUSH1 0x20 ADD ADD SWAP1 PUSH2 0xFFFF AND SWAP1 DUP2 PUSH2 0xFFFF AND DUP2 MSTORE POP POP PUSH1 0x10 DUP2 PUSH1 0x1D PUSH1 0xA8 DUP2 GT ISZERO PUSH2 0x7F1C JUMPI PUSH2 0x7F1B PUSH2 0xEAFB JUMP JUMPDEST JUMPDEST DUP2 MLOAD DUP2 LT PUSH2 0x7F2D JUMPI PUSH2 0x7F2C PUSH2 0xF0D7 JUMP JUMPDEST JUMPDEST PUSH1 0x20 MUL PUSH1 0x20 ADD ADD SWAP1 PUSH2 0xFFFF AND SWAP1 DUP2 PUSH2 0xFFFF AND DUP2 MSTORE POP POP PUSH1 0x10 DUP2 PUSH1 0x1C PUSH1 0xA8 DUP2 GT ISZERO PUSH2 0x7F5A JUMPI PUSH2 0x7F59 PUSH2 0xEAFB JUMP JUMPDEST JUMPDEST DUP2 MLOAD DUP2 LT PUSH2 0x7F6B JUMPI PUSH2 0x7F6A PUSH2 0xF0D7 JUMP JUMPDEST JUMPDEST PUSH1 0x20 MUL PUSH1 0x20 ADD ADD SWAP1 PUSH2 0xFFFF AND SWAP1 DUP2 PUSH2 0xFFFF AND DUP2 MSTORE POP POP PUSH1 0x10 DUP2 PUSH1 0x1E PUSH1 0xA8 DUP2 GT ISZERO PUSH2 0x7F98 JUMPI PUSH2 0x7F97 PUSH2 0xEAFB JUMP JUMPDEST JUMPDEST DUP2 MLOAD DUP2 LT PUSH2 0x7FA9 JUMPI PUSH2 0x7FA8 PUSH2 0xF0D7 JUMP JUMPDEST JUMPDEST PUSH1 0x20 MUL PUSH1 0x20 ADD ADD SWAP1 PUSH2 0xFFFF AND SWAP1 DUP2 PUSH2 0xFFFF AND DUP2 MSTORE POP POP PUSH1 0x10 DUP2 PUSH1 0x1F PUSH1 0xA8 DUP2 GT ISZERO PUSH2 0x7FD6 JUMPI PUSH2 0x7FD5 PUSH2 0xEAFB JUMP JUMPDEST JUMPDEST DUP2 MLOAD DUP2 LT PUSH2 0x7FE7 JUMPI PUSH2 0x7FE6 PUSH2 0xF0D7 JUMP JUMPDEST JUMPDEST PUSH1 0x20 MUL PUSH1 0x20 ADD ADD SWAP1 PUSH2 0xFFFF AND SWAP1 DUP2 PUSH2 0xFFFF AND DUP2 MSTORE POP POP PUSH1 0x10 DUP2 PUSH1 0x20 PUSH1 0xA8 DUP2 GT ISZERO PUSH2 0x8014 JUMPI PUSH2 0x8013 PUSH2 0xEAFB JUMP JUMPDEST JUMPDEST DUP2 MLOAD DUP2 LT PUSH2 0x8025 JUMPI PUSH2 0x8024 PUSH2 0xF0D7 JUMP JUMPDEST JUMPDEST PUSH1 0x20 MUL PUSH1 0x20 ADD ADD SWAP1 PUSH2 0xFFFF AND SWAP1 DUP2 PUSH2 0xFFFF AND DUP2 MSTORE POP POP PUSH1 0x10 DUP2 PUSH1 0x21 PUSH1 0xA8 DUP2 GT ISZERO PUSH2 0x8052 JUMPI PUSH2 0x8051 PUSH2 0xEAFB JUMP JUMPDEST JUMPDEST DUP2 MLOAD DUP2 LT PUSH2 0x8063 JUMPI PUSH2 0x8062 PUSH2 0xF0D7 JUMP JUMPDEST JUMPDEST PUSH1 0x20 MUL PUSH1 0x20 ADD ADD SWAP1 PUSH2 0xFFFF AND SWAP1 DUP2 PUSH2 0xFFFF AND DUP2 MSTORE POP POP PUSH1 0x10 DUP2 PUSH1 0x22 PUSH1 0xA8 DUP2 GT ISZERO PUSH2 0x8090 JUMPI PUSH2 0x808F PUSH2 0xEAFB JUMP JUMPDEST JUMPDEST DUP2 MLOAD DUP2 LT PUSH2 0x80A1 JUMPI PUSH2 0x80A0 PUSH2 0xF0D7 JUMP JUMPDEST JUMPDEST PUSH1 0x20 MUL PUSH1 0x20 ADD ADD SWAP1 PUSH2 0xFFFF AND SWAP1 DUP2 PUSH2 0xFFFF AND DUP2 MSTORE POP POP PUSH1 0x10 DUP2 PUSH1 0x92 PUSH1 0xA8 DUP2 GT ISZERO PUSH2 0x80CE JUMPI PUSH2 0x80CD PUSH2 0xEAFB JUMP JUMPDEST JUMPDEST DUP2 MLOAD DUP2 LT PUSH2 0x80DF JUMPI PUSH2 0x80DE PUSH2 0xF0D7 JUMP JUMPDEST JUMPDEST PUSH1 0x20 MUL PUSH1 0x20 ADD ADD SWAP1 PUSH2 0xFFFF AND SWAP1 DUP2 PUSH2 0xFFFF AND DUP2 MSTORE POP POP PUSH1 0x10 DUP2 PUSH1 0x93 PUSH1 0xA8 DUP2 GT ISZERO PUSH2 0x810C JUMPI PUSH2 0x810B PUSH2 0xEAFB JUMP JUMPDEST JUMPDEST DUP2 MLOAD DUP2 LT PUSH2 0x811D JUMPI PUSH2 0x811C PUSH2 0xF0D7 JUMP JUMPDEST JUMPDEST PUSH1 0x20 MUL PUSH1 0x20 ADD ADD SWAP1 PUSH2 0xFFFF AND SWAP1 DUP2 PUSH2 0xFFFF AND DUP2 MSTORE POP POP PUSH1 0x10 DUP2 PUSH1 0x94 PUSH1 0xA8 DUP2 GT ISZERO PUSH2 0x814A JUMPI PUSH2 0x8149 PUSH2 0xEAFB JUMP JUMPDEST JUMPDEST DUP2 MLOAD DUP2 LT PUSH2 0x815B JUMPI PUSH2 0x815A PUSH2 0xF0D7 JUMP JUMPDEST JUMPDEST PUSH1 0x20 MUL PUSH1 0x20 ADD ADD SWAP1 PUSH2 0xFFFF AND SWAP1 DUP2 PUSH2 0xFFFF AND DUP2 MSTORE POP POP PUSH1 0x10 DUP2 PUSH1 0x95 PUSH1 0xA8 DUP2 GT ISZERO PUSH2 0x8188 JUMPI PUSH2 0x8187 PUSH2 0xEAFB JUMP JUMPDEST JUMPDEST DUP2 MLOAD DUP2 LT PUSH2 0x8199 JUMPI PUSH2 0x8198 PUSH2 0xF0D7 JUMP JUMPDEST JUMPDEST PUSH1 0x20 MUL PUSH1 0x20 ADD ADD SWAP1 PUSH2 0xFFFF AND SWAP1 DUP2 PUSH2 0xFFFF AND DUP2 MSTORE POP POP PUSH1 0x10 DUP2 PUSH1 0x96 PUSH1 0xA8 DUP2 GT ISZERO PUSH2 0x81C6 JUMPI PUSH2 0x81C5 PUSH2 0xEAFB JUMP JUMPDEST JUMPDEST DUP2 MLOAD DUP2 LT PUSH2 0x81D7 JUMPI PUSH2 0x81D6 PUSH2 0xF0D7 JUMP JUMPDEST JUMPDEST PUSH1 0x20 MUL PUSH1 0x20 ADD ADD SWAP1 PUSH2 0xFFFF AND SWAP1 DUP2 PUSH2 0xFFFF AND DUP2 MSTORE POP POP PUSH1 0x10 DUP2 PUSH1 0x97 PUSH1 0xA8 DUP2 GT ISZERO PUSH2 0x8204 JUMPI PUSH2 0x8203 PUSH2 0xEAFB JUMP JUMPDEST JUMPDEST DUP2 MLOAD DUP2 LT PUSH2 0x8215 JUMPI PUSH2 0x8214 PUSH2 0xF0D7 JUMP JUMPDEST JUMPDEST PUSH1 0x20 MUL PUSH1 0x20 ADD ADD SWAP1 PUSH2 0xFFFF AND SWAP1 DUP2 PUSH2 0xFFFF AND DUP2 MSTORE POP POP PUSH1 0x10 DUP2 PUSH1 0x98 PUSH1 0xA8 DUP2 GT ISZERO PUSH2 0x8242 JUMPI PUSH2 0x8241 PUSH2 0xEAFB JUMP JUMPDEST JUMPDEST DUP2 MLOAD DUP2 LT PUSH2 0x8253 JUMPI PUSH2 0x8252 PUSH2 0xF0D7 JUMP JUMPDEST JUMPDEST PUSH1 0x20 MUL PUSH1 0x20 ADD ADD SWAP1 PUSH2 0xFFFF AND SWAP1 DUP2 PUSH2 0xFFFF AND DUP2 MSTORE POP POP PUSH1 0x6E DUP2 PUSH1 0x1B PUSH1 0xA8 DUP2 GT ISZERO PUSH2 0x8280 JUMPI PUSH2 0x827F PUSH2 0xEAFB JUMP JUMPDEST JUMPDEST DUP2 MLOAD DUP2 LT PUSH2 0x8291 JUMPI PUSH2 0x8290 PUSH2 0xF0D7 JUMP JUMPDEST JUMPDEST PUSH1 0x20 MUL PUSH1 0x20 ADD ADD SWAP1 PUSH2 0xFFFF AND SWAP1 DUP2 PUSH2 0xFFFF AND DUP2 MSTORE POP POP PUSH1 0x69 DUP2 PUSH1 0x3A PUSH1 0xA8 DUP2 GT ISZERO PUSH2 0x82BE JUMPI PUSH2 0x82BD PUSH2 0xEAFB JUMP JUMPDEST JUMPDEST DUP2 MLOAD DUP2 LT PUSH2 0x82CF JUMPI PUSH2 0x82CE PUSH2 0xF0D7 JUMP JUMPDEST JUMPDEST PUSH1 0x20 MUL PUSH1 0x20 ADD ADD SWAP1 PUSH2 0xFFFF AND SWAP1 DUP2 PUSH2 0xFFFF AND DUP2 MSTORE POP POP PUSH1 0x22 DUP2 PUSH1 0x57 PUSH1 0xA8 DUP2 GT ISZERO PUSH2 0x82FC JUMPI PUSH2 0x82FB PUSH2 0xEAFB JUMP JUMPDEST JUMPDEST DUP2 MLOAD DUP2 LT PUSH2 0x830D JUMPI PUSH2 0x830C PUSH2 0xF0D7 JUMP JUMPDEST JUMPDEST PUSH1 0x20 MUL PUSH1 0x20 ADD ADD SWAP1 PUSH2 0xFFFF AND SWAP1 DUP2 PUSH2 0xFFFF AND DUP2 MSTORE POP POP PUSH1 0x22 DUP2 PUSH1 0x58 PUSH1 0xA8 DUP2 GT ISZERO PUSH2 0x833A JUMPI PUSH2 0x8339 PUSH2 0xEAFB JUMP JUMPDEST JUMPDEST DUP2 MLOAD DUP2 LT PUSH2 0x834B JUMPI PUSH2 0x834A PUSH2 0xF0D7 JUMP JUMPDEST JUMPDEST PUSH1 0x20 MUL PUSH1 0x20 ADD ADD SWAP1 PUSH2 0xFFFF AND SWAP1 DUP2 PUSH2 0xFFFF AND DUP2 MSTORE POP POP PUSH1 0x22 DUP2 PUSH1 0x59 PUSH1 0xA8 DUP2 GT ISZERO PUSH2 0x8378 JUMPI PUSH2 0x8377 PUSH2 0xEAFB JUMP JUMPDEST JUMPDEST DUP2 MLOAD DUP2 LT PUSH2 0x8389 JUMPI PUSH2 0x8388 PUSH2 0xF0D7 JUMP JUMPDEST JUMPDEST PUSH1 0x20 MUL PUSH1 0x20 ADD ADD SWAP1 PUSH2 0xFFFF AND SWAP1 DUP2 PUSH2 0xFFFF AND DUP2 MSTORE POP POP PUSH1 0x64 DUP2 PUSH1 0x5A PUSH1 0xA8 DUP2 GT ISZERO PUSH2 0x83B6 JUMPI PUSH2 0x83B5 PUSH2 0xEAFB JUMP JUMPDEST JUMPDEST DUP2 MLOAD DUP2 LT PUSH2 0x83C7 JUMPI PUSH2 0x83C6 PUSH2 0xF0D7 JUMP JUMPDEST JUMPDEST PUSH1 0x20 MUL PUSH1 0x20 ADD ADD SWAP1 PUSH2 0xFFFF AND SWAP1 DUP2 PUSH2 0xFFFF AND DUP2 MSTORE POP POP PUSH1 0x4B DUP2 PUSH1 0x63 PUSH1 0xA8 DUP2 GT ISZERO PUSH2 0x83F4 JUMPI PUSH2 0x83F3 PUSH2 0xEAFB JUMP JUMPDEST JUMPDEST DUP2 MLOAD DUP2 LT PUSH2 0x8405 JUMPI PUSH2 0x8404 PUSH2 0xF0D7 JUMP JUMPDEST JUMPDEST PUSH1 0x20 MUL PUSH1 0x20 ADD ADD SWAP1 PUSH2 0xFFFF AND SWAP1 DUP2 PUSH2 0xFFFF AND DUP2 MSTORE POP POP PUSH1 0x2D DUP2 PUSH1 0x64 PUSH1 0xA8 DUP2 GT ISZERO PUSH2 0x8432 JUMPI PUSH2 0x8431 PUSH2 0xEAFB JUMP JUMPDEST JUMPDEST DUP2 MLOAD DUP2 LT PUSH2 0x8443 JUMPI PUSH2 0x8442 PUSH2 0xF0D7 JUMP JUMPDEST JUMPDEST PUSH1 0x20 MUL PUSH1 0x20 ADD ADD SWAP1 PUSH2 0xFFFF AND SWAP1 DUP2 PUSH2 0xFFFF AND DUP2 MSTORE POP POP PUSH1 0x14 DUP2 PUSH1 0x65 PUSH1 0xA8 DUP2 GT ISZERO PUSH2 0x8470 JUMPI PUSH2 0x846F PUSH2 0xEAFB JUMP JUMPDEST JUMPDEST DUP2 MLOAD DUP2 LT PUSH2 0x8481 JUMPI PUSH2 0x8480 PUSH2 0xF0D7 JUMP JUMPDEST JUMPDEST PUSH1 0x20 MUL PUSH1 0x20 ADD ADD SWAP1 PUSH2 0xFFFF AND SWAP1 DUP2 PUSH2 0xFFFF AND DUP2 MSTORE POP POP PUSH1 0x41 DUP2 PUSH1 0x51 PUSH1 0xA8 DUP2 GT ISZERO PUSH2 0x84AE JUMPI PUSH2 0x84AD PUSH2 0xEAFB JUMP JUMPDEST JUMPDEST DUP2 MLOAD DUP2 LT PUSH2 0x84BF JUMPI PUSH2 0x84BE PUSH2 0xF0D7 JUMP JUMPDEST JUMPDEST PUSH1 0x20 MUL PUSH1 0x20 ADD ADD SWAP1 PUSH2 0xFFFF AND SWAP1 DUP2 PUSH2 0xFFFF AND DUP2 MSTORE POP POP PUSH1 0xF DUP2 PUSH1 0x53 PUSH1 0xA8 DUP2 GT ISZERO PUSH2 0x84EC JUMPI PUSH2 0x84EB PUSH2 0xEAFB JUMP JUMPDEST JUMPDEST DUP2 MLOAD DUP2 LT PUSH2 0x84FD JUMPI PUSH2 0x84FC PUSH2 0xF0D7 JUMP JUMPDEST JUMPDEST PUSH1 0x20 MUL PUSH1 0x20 ADD ADD SWAP1 PUSH2 0xFFFF AND SWAP1 DUP2 PUSH2 0xFFFF AND DUP2 MSTORE POP POP PUSH1 0xF DUP2 PUSH1 0x54 PUSH1 0xA8 DUP2 GT ISZERO PUSH2 0x852A JUMPI PUSH2 0x8529 PUSH2 0xEAFB JUMP JUMPDEST JUMPDEST DUP2 MLOAD DUP2 LT PUSH2 0x853B JUMPI PUSH2 0x853A PUSH2 0xF0D7 JUMP JUMPDEST JUMPDEST PUSH1 0x20 MUL PUSH1 0x20 ADD ADD SWAP1 PUSH2 0xFFFF AND SWAP1 DUP2 PUSH2 0xFFFF AND DUP2 MSTORE POP POP PUSH1 0xF DUP2 PUSH1 0x55 PUSH1 0xA8 DUP2 GT ISZERO PUSH2 0x8568 JUMPI PUSH2 0x8567 PUSH2 0xEAFB JUMP JUMPDEST JUMPDEST DUP2 MLOAD DUP2 LT PUSH2 0x8579 JUMPI PUSH2 0x8578 PUSH2 0xF0D7 JUMP JUMPDEST JUMPDEST PUSH1 0x20 MUL PUSH1 0x20 ADD ADD SWAP1 PUSH2 0xFFFF AND SWAP1 DUP2 PUSH2 0xFFFF AND DUP2 MSTORE POP POP PUSH1 0xF DUP2 PUSH1 0x56 PUSH1 0xA8 DUP2 GT ISZERO PUSH2 0x85A6 JUMPI PUSH2 0x85A5 PUSH2 0xEAFB JUMP JUMPDEST JUMPDEST DUP2 MLOAD DUP2 LT PUSH2 0x85B7 JUMPI PUSH2 0x85B6 PUSH2 0xF0D7 JUMP JUMPDEST JUMPDEST PUSH1 0x20 MUL PUSH1 0x20 ADD ADD SWAP1 PUSH2 0xFFFF AND SWAP1 DUP2 PUSH2 0xFFFF AND DUP2 MSTORE POP POP PUSH1 0x37 DUP2 PUSH1 0x8C PUSH1 0xA8 DUP2 GT ISZERO PUSH2 0x85E4 JUMPI PUSH2 0x85E3 PUSH2 0xEAFB JUMP JUMPDEST JUMPDEST DUP2 MLOAD DUP2 LT PUSH2 0x85F5 JUMPI PUSH2 0x85F4 PUSH2 0xF0D7 JUMP JUMPDEST JUMPDEST PUSH1 0x20 MUL PUSH1 0x20 ADD ADD SWAP1 PUSH2 0xFFFF AND SWAP1 DUP2 PUSH2 0xFFFF AND DUP2 MSTORE POP POP PUSH1 0x32 DUP2 PUSH1 0x62 PUSH1 0xA8 DUP2 GT ISZERO PUSH2 0x8622 JUMPI PUSH2 0x8621 PUSH2 0xEAFB JUMP JUMPDEST JUMPDEST DUP2 MLOAD DUP2 LT PUSH2 0x8633 JUMPI PUSH2 0x8632 PUSH2 0xF0D7 JUMP JUMPDEST JUMPDEST PUSH1 0x20 MUL PUSH1 0x20 ADD ADD SWAP1 PUSH2 0xFFFF AND SWAP1 DUP2 PUSH2 0xFFFF AND DUP2 MSTORE POP POP PUSH1 0x7 DUP2 PUSH1 0x29 PUSH1 0xA8 DUP2 GT ISZERO PUSH2 0x8660 JUMPI PUSH2 0x865F PUSH2 0xEAFB JUMP JUMPDEST JUMPDEST DUP2 MLOAD DUP2 LT PUSH2 0x8671 JUMPI PUSH2 0x8670 PUSH2 0xF0D7 JUMP JUMPDEST JUMPDEST PUSH1 0x20 MUL PUSH1 0x20 ADD ADD SWAP1 PUSH2 0xFFFF AND SWAP1 DUP2 PUSH2 0xFFFF AND DUP2 MSTORE POP POP PUSH1 0x7 DUP2 PUSH1 0x2B PUSH1 0xA8 DUP2 GT ISZERO PUSH2 0x869E JUMPI PUSH2 0x869D PUSH2 0xEAFB JUMP JUMPDEST JUMPDEST DUP2 MLOAD DUP2 LT PUSH2 0x86AF JUMPI PUSH2 0x86AE PUSH2 0xF0D7 JUMP JUMPDEST JUMPDEST PUSH1 0x20 MUL PUSH1 0x20 ADD ADD SWAP1 PUSH2 0xFFFF AND SWAP1 DUP2 PUSH2 0xFFFF AND DUP2 MSTORE POP POP PUSH1 0x7 DUP2 PUSH1 0x2C PUSH1 0xA8 DUP2 GT ISZERO PUSH2 0x86DC JUMPI PUSH2 0x86DB PUSH2 0xEAFB JUMP JUMPDEST JUMPDEST DUP2 MLOAD DUP2 LT PUSH2 0x86ED JUMPI PUSH2 0x86EC PUSH2 0xF0D7 JUMP JUMPDEST JUMPDEST PUSH1 0x20 MUL PUSH1 0x20 ADD ADD SWAP1 PUSH2 0xFFFF AND SWAP1 DUP2 PUSH2 0xFFFF AND DUP2 MSTORE POP POP PUSH1 0x7 DUP2 PUSH1 0x2D PUSH1 0xA8 DUP2 GT ISZERO PUSH2 0x871A JUMPI PUSH2 0x8719 PUSH2 0xEAFB JUMP JUMPDEST JUMPDEST DUP2 MLOAD DUP2 LT PUSH2 0x872B JUMPI PUSH2 0x872A PUSH2 0xF0D7 JUMP JUMPDEST JUMPDEST PUSH1 0x20 MUL PUSH1 0x20 ADD ADD SWAP1 PUSH2 0xFFFF AND SWAP1 DUP2 PUSH2 0xFFFF AND DUP2 MSTORE POP POP PUSH1 0x7 DUP2 PUSH1 0x2E PUSH1 0xA8 DUP2 GT ISZERO PUSH2 0x8758 JUMPI PUSH2 0x8757 PUSH2 0xEAFB JUMP JUMPDEST JUMPDEST DUP2 MLOAD DUP2 LT PUSH2 0x8769 JUMPI PUSH2 0x8768 PUSH2 0xF0D7 JUMP JUMPDEST JUMPDEST PUSH1 0x20 MUL PUSH1 0x20 ADD ADD SWAP1 PUSH2 0xFFFF AND SWAP1 DUP2 PUSH2 0xFFFF AND DUP2 MSTORE POP POP PUSH1 0x7 DUP2 PUSH1 0x2F PUSH1 0xA8 DUP2 GT ISZERO PUSH2 0x8796 JUMPI PUSH2 0x8795 PUSH2 0xEAFB JUMP JUMPDEST JUMPDEST DUP2 MLOAD DUP2 LT PUSH2 0x87A7 JUMPI PUSH2 0x87A6 PUSH2 0xF0D7 JUMP JUMPDEST JUMPDEST PUSH1 0x20 MUL PUSH1 0x20 ADD ADD SWAP1 PUSH2 0xFFFF AND SWAP1 DUP2 PUSH2 0xFFFF AND DUP2 MSTORE POP POP PUSH1 0x5 DUP2 PUSH1 0xA2 PUSH1 0xA8 DUP2 GT ISZERO PUSH2 0x87D4 JUMPI PUSH2 0x87D3 PUSH2 0xEAFB JUMP JUMPDEST JUMPDEST DUP2 MLOAD DUP2 LT PUSH2 0x87E5 JUMPI PUSH2 0x87E4 PUSH2 0xF0D7 JUMP JUMPDEST JUMPDEST PUSH1 0x20 MUL PUSH1 0x20 ADD ADD SWAP1 PUSH2 0xFFFF AND SWAP1 DUP2 PUSH2 0xFFFF AND DUP2 MSTORE POP POP PUSH1 0x5 DUP2 PUSH1 0xA3 PUSH1 0xA8 DUP2 GT ISZERO PUSH2 0x8812 JUMPI PUSH2 0x8811 PUSH2 0xEAFB JUMP JUMPDEST JUMPDEST DUP2 MLOAD DUP2 LT PUSH2 0x8823 JUMPI PUSH2 0x8822 PUSH2 0xF0D7 JUMP JUMPDEST JUMPDEST PUSH1 0x20 MUL PUSH1 0x20 ADD ADD SWAP1 PUSH2 0xFFFF AND SWAP1 DUP2 PUSH2 0xFFFF AND DUP2 MSTORE POP POP PUSH1 0x5 DUP2 PUSH1 0xA4 PUSH1 0xA8 DUP2 GT ISZERO PUSH2 0x8850 JUMPI PUSH2 0x884F PUSH2 0xEAFB JUMP JUMPDEST JUMPDEST DUP2 MLOAD DUP2 LT PUSH2 0x8861 JUMPI PUSH2 0x8860 PUSH2 0xF0D7 JUMP JUMPDEST JUMPDEST PUSH1 0x20 MUL PUSH1 0x20 ADD ADD SWAP1 PUSH2 0xFFFF AND SWAP1 DUP2 PUSH2 0xFFFF AND DUP2 MSTORE POP POP PUSH1 0x5 DUP2 PUSH1 0xA5 PUSH1 0xA8 DUP2 GT ISZERO PUSH2 0x888E JUMPI PUSH2 0x888D PUSH2 0xEAFB JUMP JUMPDEST JUMPDEST DUP2 MLOAD DUP2 LT PUSH2 0x889F JUMPI PUSH2 0x889E PUSH2 0xF0D7 JUMP JUMPDEST JUMPDEST PUSH1 0x20 MUL PUSH1 0x20 ADD ADD SWAP1 PUSH2 0xFFFF AND SWAP1 DUP2 PUSH2 0xFFFF AND DUP2 MSTORE POP POP PUSH1 0x5 DUP2 PUSH1 0xA6 PUSH1 0xA8 DUP2 GT ISZERO PUSH2 0x88CC JUMPI PUSH2 0x88CB PUSH2 0xEAFB JUMP JUMPDEST JUMPDEST DUP2 MLOAD DUP2 LT PUSH2 0x88DD JUMPI PUSH2 0x88DC PUSH2 0xF0D7 JUMP JUMPDEST JUMPDEST PUSH1 0x20 MUL PUSH1 0x20 ADD ADD SWAP1 PUSH2 0xFFFF AND SWAP1 DUP2 PUSH2 0xFFFF AND DUP2 MSTORE POP POP PUSH1 0x5 DUP2 PUSH1 0xA7 PUSH1 0xA8 DUP2 GT ISZERO PUSH2 0x890A JUMPI PUSH2 0x8909 PUSH2 0xEAFB JUMP JUMPDEST JUMPDEST DUP2 MLOAD DUP2 LT PUSH2 0x891B JUMPI PUSH2 0x891A PUSH2 0xF0D7 JUMP JUMPDEST JUMPDEST PUSH1 0x20 MUL PUSH1 0x20 ADD ADD SWAP1 PUSH2 0xFFFF AND SWAP1 DUP2 PUSH2 0xFFFF AND DUP2 MSTORE POP POP PUSH1 0x5 DUP2 PUSH1 0xA8 DUP1 DUP2 GT ISZERO PUSH2 0x8947 JUMPI PUSH2 0x8946 PUSH2 0xEAFB JUMP JUMPDEST JUMPDEST DUP2 MLOAD DUP2 LT PUSH2 0x8958 JUMPI PUSH2 0x8957 PUSH2 0xF0D7 JUMP JUMPDEST JUMPDEST PUSH1 0x20 MUL PUSH1 0x20 ADD ADD SWAP1 PUSH2 0xFFFF AND SWAP1 DUP2 PUSH2 0xFFFF AND DUP2 MSTORE POP POP PUSH1 0x5 DUP2 PUSH1 0xA1 PUSH1 0xA8 DUP2 GT ISZERO PUSH2 0x8985 JUMPI PUSH2 0x8984 PUSH2 0xEAFB JUMP JUMPDEST JUMPDEST DUP2 MLOAD DUP2 LT PUSH2 0x8996 JUMPI PUSH2 0x8995 PUSH2 0xF0D7 JUMP JUMPDEST JUMPDEST PUSH1 0x20 MUL PUSH1 0x20 ADD ADD SWAP1 PUSH2 0xFFFF AND SWAP1 DUP2 PUSH2 0xFFFF AND DUP2 MSTORE POP POP PUSH1 0x1E DUP2 PUSH1 0x4A PUSH1 0xA8 DUP2 GT ISZERO PUSH2 0x89C3 JUMPI PUSH2 0x89C2 PUSH2 0xEAFB JUMP JUMPDEST JUMPDEST DUP2 MLOAD DUP2 LT PUSH2 0x89D4 JUMPI PUSH2 0x89D3 PUSH2 0xF0D7 JUMP JUMPDEST JUMPDEST PUSH1 0x20 MUL PUSH1 0x20 ADD ADD SWAP1 PUSH2 0xFFFF AND SWAP1 DUP2 PUSH2 0xFFFF AND DUP2 MSTORE POP POP PUSH1 0xF DUP2 PUSH1 0x3B PUSH1 0xA8 DUP2 GT ISZERO PUSH2 0x8A01 JUMPI PUSH2 0x8A00 PUSH2 0xEAFB JUMP JUMPDEST JUMPDEST DUP2 MLOAD DUP2 LT PUSH2 0x8A12 JUMPI PUSH2 0x8A11 PUSH2 0xF0D7 JUMP JUMPDEST JUMPDEST PUSH1 0x20 MUL PUSH1 0x20 ADD ADD SWAP1 PUSH2 0xFFFF AND SWAP1 DUP2 PUSH2 0xFFFF AND DUP2 MSTORE POP POP PUSH1 0x3 DUP2 PUSH1 0x52 PUSH1 0xA8 DUP2 GT ISZERO PUSH2 0x8A3F JUMPI PUSH2 0x8A3E PUSH2 0xEAFB JUMP JUMPDEST JUMPDEST DUP2 MLOAD DUP2 LT PUSH2 0x8A50 JUMPI PUSH2 0x8A4F PUSH2 0xF0D7 JUMP JUMPDEST JUMPDEST PUSH1 0x20 MUL PUSH1 0x20 ADD ADD SWAP1 PUSH2 0xFFFF AND SWAP1 DUP2 PUSH2 0xFFFF AND DUP2 MSTORE POP POP PUSH0 PUSH2 0x8A71 DUP5 DUP4 PUSH2 0xE0C9 JUMP JUMPDEST SWAP1 POP DUP1 PUSH1 0xA8 DUP2 GT ISZERO PUSH2 0x8A86 JUMPI PUSH2 0x8A85 PUSH2 0xEAFB JUMP JUMPDEST JUMPDEST SWAP3 POP POP POP SWAP2 SWAP1 POP JUMP JUMPDEST PUSH0 PUSH0 PUSH1 0xD PUSH8 0xFFFFFFFFFFFFFFFF DUP2 GT ISZERO PUSH2 0x8AAC JUMPI PUSH2 0x8AAB PUSH2 0xE9D4 JUMP JUMPDEST JUMPDEST PUSH1 0x40 MLOAD SWAP1 DUP1 DUP3 MSTORE DUP1 PUSH1 0x20 MUL PUSH1 0x20 ADD DUP3 ADD PUSH1 0x40 MSTORE DUP1 ISZERO PUSH2 0x8ADA JUMPI DUP2 PUSH1 0x20 ADD PUSH1 0x20 DUP3 MUL DUP1 CALLDATASIZE DUP4 CALLDATACOPY DUP1 DUP3 ADD SWAP2 POP POP SWAP1 POP JUMPDEST POP SWAP1 POP PUSH2 0x8AEF DUP5 PUSH2 0x8AEA SWAP1 PUSH2 0xFA46 JUMP JUMPDEST PUSH2 0xE2B8 JUMP JUMPDEST ISZERO PUSH2 0x8BED JUMPI PUSH1 0x1E DUP2 PUSH1 0x9 PUSH1 0xC DUP2 GT ISZERO PUSH2 0x8B0B JUMPI PUSH2 0x8B0A PUSH2 0xEAFB JUMP JUMPDEST JUMPDEST DUP2 MLOAD DUP2 LT PUSH2 0x8B1C JUMPI PUSH2 0x8B1B PUSH2 0xF0D7 JUMP JUMPDEST JUMPDEST PUSH1 0x20 MUL PUSH1 0x20 ADD ADD SWAP1 PUSH2 0xFFFF AND SWAP1 DUP2 PUSH2 0xFFFF AND DUP2 MSTORE POP POP PUSH1 0x14 DUP2 PUSH1 0x7 PUSH1 0xC DUP2 GT ISZERO PUSH2 0x8B49 JUMPI PUSH2 0x8B48 PUSH2 0xEAFB JUMP JUMPDEST JUMPDEST DUP2 MLOAD DUP2 LT PUSH2 0x8B5A JUMPI PUSH2 0x8B59 PUSH2 0xF0D7 JUMP JUMPDEST JUMPDEST PUSH1 0x20 MUL PUSH1 0x20 ADD ADD SWAP1 PUSH2 0xFFFF AND SWAP1 DUP2 PUSH2 0xFFFF AND DUP2 MSTORE POP POP PUSH1 0xF DUP2 PUSH1 0x8 PUSH1 0xC DUP2 GT ISZERO PUSH2 0x8B87 JUMPI PUSH2 0x8B86 PUSH2 0xEAFB JUMP JUMPDEST JUMPDEST DUP2 MLOAD DUP2 LT PUSH2 0x8B98 JUMPI PUSH2 0x8B97 PUSH2 0xF0D7 JUMP JUMPDEST JUMPDEST PUSH1 0x20 MUL PUSH1 0x20 ADD ADD SWAP1 PUSH2 0xFFFF AND SWAP1 DUP2 PUSH2 0xFFFF AND DUP2 MSTORE POP POP PUSH1 0xA DUP2 PUSH1 0x6 PUSH1 0xC DUP2 GT ISZERO PUSH2 0x8BC5 JUMPI PUSH2 0x8BC4 PUSH2 0xEAFB JUMP JUMPDEST JUMPDEST DUP2 MLOAD DUP2 LT PUSH2 0x8BD6 JUMPI PUSH2 0x8BD5 PUSH2 0xF0D7 JUMP JUMPDEST JUMPDEST PUSH1 0x20 MUL PUSH1 0x20 ADD ADD SWAP1 PUSH2 0xFFFF AND SWAP1 DUP2 PUSH2 0xFFFF AND DUP2 MSTORE POP POP JUMPDEST PUSH2 0x8BFF DUP5 PUSH2 0x8BFA SWAP1 PUSH2 0xFA46 JUMP JUMPDEST PUSH2 0xE2EC JUMP JUMPDEST ISZERO PUSH2 0x8C80 JUMPI PUSH1 0x87 DUP2 PUSH1 0xC DUP1 DUP2 GT ISZERO PUSH2 0x8C1A JUMPI PUSH2 0x8C19 PUSH2 0xEAFB JUMP JUMPDEST JUMPDEST DUP2 MLOAD DUP2 LT PUSH2 0x8C2B JUMPI PUSH2 0x8C2A PUSH2 0xF0D7 JUMP JUMPDEST JUMPDEST PUSH1 0x20 MUL PUSH1 0x20 ADD ADD SWAP1 PUSH2 0xFFFF AND SWAP1 DUP2 PUSH2 0xFFFF AND DUP2 MSTORE POP POP PUSH1 0x82 DUP2 PUSH1 0xB PUSH1 0xC DUP2 GT ISZERO PUSH2 0x8C58 JUMPI PUSH2 0x8C57 PUSH2 0xEAFB JUMP JUMPDEST JUMPDEST DUP2 MLOAD DUP2 LT PUSH2 0x8C69 JUMPI PUSH2 0x8C68 PUSH2 0xF0D7 JUMP JUMPDEST JUMPDEST PUSH1 0x20 MUL PUSH1 0x20 ADD ADD SWAP1 PUSH2 0xFFFF AND SWAP1 DUP2 PUSH2 0xFFFF AND DUP2 MSTORE POP POP JUMPDEST PUSH2 0x2328 DUP2 PUSH0 PUSH1 0xC DUP2 GT ISZERO PUSH2 0x8C97 JUMPI PUSH2 0x8C96 PUSH2 0xEAFB JUMP JUMPDEST JUMPDEST DUP2 MLOAD DUP2 LT PUSH2 0x8CA8 JUMPI PUSH2 0x8CA7 PUSH2 0xF0D7 JUMP JUMPDEST JUMPDEST PUSH1 0x20 MUL PUSH1 0x20 ADD ADD SWAP1 PUSH2 0xFFFF AND SWAP1 DUP2 PUSH2 0xFFFF AND DUP2 MSTORE POP POP PUSH1 0xE1 DUP2 PUSH1 0x2 PUSH1 0xC DUP2 GT ISZERO PUSH2 0x8CD5 JUMPI PUSH2 0x8CD4 PUSH2 0xEAFB JUMP JUMPDEST JUMPDEST DUP2 MLOAD DUP2 LT PUSH2 0x8CE6 JUMPI PUSH2 0x8CE5 PUSH2 0xF0D7 JUMP JUMPDEST JUMPDEST PUSH1 0x20 MUL PUSH1 0x20 ADD ADD SWAP1 PUSH2 0xFFFF AND SWAP1 DUP2 PUSH2 0xFFFF AND DUP2 MSTORE POP POP PUSH1 0xB9 DUP2 PUSH1 0x1 PUSH1 0xC DUP2 GT ISZERO PUSH2 0x8D13 JUMPI PUSH2 0x8D12 PUSH2 0xEAFB JUMP JUMPDEST JUMPDEST DUP2 MLOAD DUP2 LT PUSH2 0x8D24 JUMPI PUSH2 0x8D23 PUSH2 0xF0D7 JUMP JUMPDEST JUMPDEST PUSH1 0x20 MUL PUSH1 0x20 ADD ADD SWAP1 PUSH2 0xFFFF AND SWAP1 DUP2 PUSH2 0xFFFF AND DUP2 MSTORE POP POP PUSH1 0x91 DUP2 PUSH1 0x3 PUSH1 0xC DUP2 GT ISZERO PUSH2 0x8D51 JUMPI PUSH2 0x8D50 PUSH2 0xEAFB JUMP JUMPDEST JUMPDEST DUP2 MLOAD DUP2 LT PUSH2 0x8D62 JUMPI PUSH2 0x8D61 PUSH2 0xF0D7 JUMP JUMPDEST JUMPDEST PUSH1 0x20 MUL PUSH1 0x20 ADD ADD SWAP1 PUSH2 0xFFFF AND SWAP1 DUP2 PUSH2 0xFFFF AND DUP2 MSTORE POP POP PUSH1 0x37 DUP2 PUSH1 0xA PUSH1 0xC DUP2 GT ISZERO PUSH2 0x8D8F JUMPI PUSH2 0x8D8E PUSH2 0xEAFB JUMP JUMPDEST JUMPDEST DUP2 MLOAD DUP2 LT PUSH2 0x8DA0 JUMPI PUSH2 0x8D9F PUSH2 0xF0D7 JUMP JUMPDEST JUMPDEST PUSH1 0x20 MUL PUSH1 0x20 ADD ADD SWAP1 PUSH2 0xFFFF AND SWAP1 DUP2 PUSH2 0xFFFF AND DUP2 MSTORE POP POP PUSH1 0x23 DUP2 PUSH1 0x5 PUSH1 0xC DUP2 GT ISZERO PUSH2 0x8DCD JUMPI PUSH2 0x8DCC PUSH2 0xEAFB JUMP JUMPDEST JUMPDEST DUP2 MLOAD DUP2 LT PUSH2 0x8DDE JUMPI PUSH2 0x8DDD PUSH2 0xF0D7 JUMP JUMPDEST JUMPDEST PUSH1 0x20 MUL PUSH1 0x20 ADD ADD SWAP1 PUSH2 0xFFFF AND SWAP1 DUP2 PUSH2 0xFFFF AND DUP2 MSTORE POP POP PUSH1 0xF DUP2 PUSH1 0x4 PUSH1 0xC DUP2 GT ISZERO PUSH2 0x8E0B JUMPI PUSH2 0x8E0A PUSH2 0xEAFB JUMP JUMPDEST JUMPDEST DUP2 MLOAD DUP2 LT PUSH2 0x8E1C JUMPI PUSH2 0x8E1B PUSH2 0xF0D7 JUMP JUMPDEST JUMPDEST PUSH1 0x20 MUL PUSH1 0x20 ADD ADD SWAP1 PUSH2 0xFFFF AND SWAP1 DUP2 PUSH2 0xFFFF AND DUP2 MSTORE POP POP PUSH0 PUSH2 0x8E3D DUP5 DUP4 PUSH2 0xE0C9 JUMP JUMPDEST SWAP1 POP DUP1 PUSH1 0xC DUP2 GT ISZERO PUSH2 0x8E52 JUMPI PUSH2 0x8E51 PUSH2 0xEAFB JUMP JUMPDEST JUMPDEST SWAP3 POP POP POP SWAP3 SWAP2 POP POP JUMP JUMPDEST PUSH0 PUSH0 PUSH1 0x1C PUSH8 0xFFFFFFFFFFFFFFFF DUP2 GT ISZERO PUSH2 0x8E79 JUMPI PUSH2 0x8E78 PUSH2 0xE9D4 JUMP JUMPDEST JUMPDEST PUSH1 0x40 MLOAD SWAP1 DUP1 DUP3 MSTORE DUP1 PUSH1 0x20 MUL PUSH1 0x20 ADD DUP3 ADD PUSH1 0x40 MSTORE DUP1 ISZERO PUSH2 0x8EA7 JUMPI DUP2 PUSH1 0x20 ADD PUSH1 0x20 DUP3 MUL DUP1 CALLDATASIZE DUP4 CALLDATACOPY DUP1 DUP3 ADD SWAP2 POP POP SWAP1 POP JUMPDEST POP SWAP1 POP PUSH2 0x2EE DUP2 PUSH1 0x7 PUSH1 0x1C DUP2 GT ISZERO PUSH2 0x8EC2 JUMPI PUSH2 0x8EC1 PUSH2 0xEAFB JUMP JUMPDEST JUMPDEST DUP2 MLOAD DUP2 LT PUSH2 0x8ED3 JUMPI PUSH2 0x8ED2 PUSH2 0xF0D7 JUMP JUMPDEST JUMPDEST PUSH1 0x20 MUL PUSH1 0x20 ADD ADD SWAP1 PUSH2 0xFFFF AND SWAP1 DUP2 PUSH2 0xFFFF AND DUP2 MSTORE POP POP PUSH2 0x2EE DUP2 PUSH1 0x8 PUSH1 0x1C DUP2 GT ISZERO PUSH2 0x8F01 JUMPI PUSH2 0x8F00 PUSH2 0xEAFB JUMP JUMPDEST JUMPDEST DUP2 MLOAD DUP2 LT PUSH2 0x8F12 JUMPI PUSH2 0x8F11 PUSH2 0xF0D7 JUMP JUMPDEST JUMPDEST PUSH1 0x20 MUL PUSH1 0x20 ADD ADD SWAP1 PUSH2 0xFFFF AND SWAP1 DUP2 PUSH2 0xFFFF AND DUP2 MSTORE POP POP PUSH2 0x2EE DUP2 PUSH1 0x9 PUSH1 0x1C DUP2 GT ISZERO PUSH2 0x8F40 JUMPI PUSH2 0x8F3F PUSH2 0xEAFB JUMP JUMPDEST JUMPDEST DUP2 MLOAD DUP2 LT PUSH2 0x8F51 JUMPI PUSH2 0x8F50 PUSH2 0xF0D7 JUMP JUMPDEST JUMPDEST PUSH1 0x20 MUL PUSH1 0x20 ADD ADD SWAP1 PUSH2 0xFFFF AND SWAP1 DUP2 PUSH2 0xFFFF AND DUP2 MSTORE POP POP PUSH2 0x2EE DUP2 PUSH1 0xA PUSH1 0x1C DUP2 GT ISZERO PUSH2 0x8F7F JUMPI PUSH2 0x8F7E PUSH2 0xEAFB JUMP JUMPDEST JUMPDEST DUP2 MLOAD DUP2 LT PUSH2 0x8F90 JUMPI PUSH2 0x8F8F PUSH2 0xF0D7 JUMP JUMPDEST JUMPDEST PUSH1 0x20 MUL PUSH1 0x20 ADD ADD SWAP1 PUSH2 0xFFFF AND SWAP1 DUP2 PUSH2 0xFFFF AND DUP2 MSTORE POP POP PUSH2 0x2EE DUP2 PUSH1 0xB PUSH1 0x1C DUP2 GT ISZERO PUSH2 0x8FBE JUMPI PUSH2 0x8FBD PUSH2 0xEAFB JUMP JUMPDEST JUMPDEST DUP2 MLOAD DUP2 LT PUSH2 0x8FCF JUMPI PUSH2 0x8FCE PUSH2 0xF0D7 JUMP JUMPDEST JUMPDEST PUSH1 0x20 MUL PUSH1 0x20 ADD ADD SWAP1 PUSH2 0xFFFF AND SWAP1 DUP2 PUSH2 0xFFFF AND DUP2 MSTORE POP POP PUSH2 0x2EE DUP2 PUSH1 0xC PUSH1 0x1C DUP2 GT ISZERO PUSH2 0x8FFD JUMPI PUSH2 0x8FFC PUSH2 0xEAFB JUMP JUMPDEST JUMPDEST DUP2 MLOAD DUP2 LT PUSH2 0x900E JUMPI PUSH2 0x900D PUSH2 0xF0D7 JUMP JUMPDEST JUMPDEST PUSH1 0x20 MUL PUSH1 0x20 ADD ADD SWAP1 PUSH2 0xFFFF AND SWAP1 DUP2 PUSH2 0xFFFF AND DUP2 MSTORE POP POP PUSH2 0x2EE DUP2 PUSH1 0xD PUSH1 0x1C DUP2 GT ISZERO PUSH2 0x903C JUMPI PUSH2 0x903B PUSH2 0xEAFB JUMP JUMPDEST JUMPDEST DUP2 MLOAD DUP2 LT PUSH2 0x904D JUMPI PUSH2 0x904C PUSH2 0xF0D7 JUMP JUMPDEST JUMPDEST PUSH1 0x20 MUL PUSH1 0x20 ADD ADD SWAP1 PUSH2 0xFFFF AND SWAP1 DUP2 PUSH2 0xFFFF AND DUP2 MSTORE POP POP PUSH2 0x2EE DUP2 PUSH1 0xE PUSH1 0x1C DUP2 GT ISZERO PUSH2 0x907B JUMPI PUSH2 0x907A PUSH2 0xEAFB JUMP JUMPDEST JUMPDEST DUP2 MLOAD DUP2 LT PUSH2 0x908C JUMPI PUSH2 0x908B PUSH2 0xF0D7 JUMP JUMPDEST JUMPDEST PUSH1 0x20 MUL PUSH1 0x20 ADD ADD SWAP1 PUSH2 0xFFFF AND SWAP1 DUP2 PUSH2 0xFFFF AND DUP2 MSTORE POP POP PUSH2 0x2EE DUP2 PUSH1 0xF PUSH1 0x1C DUP2 GT ISZERO PUSH2 0x90BA JUMPI PUSH2 0x90B9 PUSH2 0xEAFB JUMP JUMPDEST JUMPDEST DUP2 MLOAD DUP2 LT PUSH2 0x90CB JUMPI PUSH2 0x90CA PUSH2 0xF0D7 JUMP JUMPDEST JUMPDEST PUSH1 0x20 MUL PUSH1 0x20 ADD ADD SWAP1 PUSH2 0xFFFF AND SWAP1 DUP2 PUSH2 0xFFFF AND DUP2 MSTORE POP POP PUSH2 0x2EE DUP2 PUSH1 0x10 PUSH1 0x1C DUP2 GT ISZERO PUSH2 0x90F9 JUMPI PUSH2 0x90F8 PUSH2 0xEAFB JUMP JUMPDEST JUMPDEST DUP2 MLOAD DUP2 LT PUSH2 0x910A JUMPI PUSH2 0x9109 PUSH2 0xF0D7 JUMP JUMPDEST JUMPDEST PUSH1 0x20 MUL PUSH1 0x20 ADD ADD SWAP1 PUSH2 0xFFFF AND SWAP1 DUP2 PUSH2 0xFFFF AND DUP2 MSTORE POP POP PUSH2 0x2EE DUP2 PUSH1 0x11 PUSH1 0x1C DUP2 GT ISZERO PUSH2 0x9138 JUMPI PUSH2 0x9137 PUSH2 0xEAFB JUMP JUMPDEST JUMPDEST DUP2 MLOAD DUP2 LT PUSH2 0x9149 JUMPI PUSH2 0x9148 PUSH2 0xF0D7 JUMP JUMPDEST JUMPDEST PUSH1 0x20 MUL PUSH1 0x20 ADD ADD SWAP1 PUSH2 0xFFFF AND SWAP1 DUP2 PUSH2 0xFFFF AND DUP2 MSTORE POP POP PUSH2 0x2EE DUP2 PUSH1 0x12 PUSH1 0x1C DUP2 GT ISZERO PUSH2 0x9177 JUMPI PUSH2 0x9176 PUSH2 0xEAFB JUMP JUMPDEST JUMPDEST DUP2 MLOAD DUP2 LT PUSH2 0x9188 JUMPI PUSH2 0x9187 PUSH2 0xF0D7 JUMP JUMPDEST JUMPDEST PUSH1 0x20 MUL PUSH1 0x20 ADD ADD SWAP1 PUSH2 0xFFFF AND SWAP1 DUP2 PUSH2 0xFFFF AND DUP2 MSTORE POP POP PUSH2 0x12C DUP2 PUSH1 0x1B PUSH1 0x1C DUP2 GT ISZERO PUSH2 0x91B6 JUMPI PUSH2 0x91B5 PUSH2 0xEAFB JUMP JUMPDEST JUMPDEST DUP2 MLOAD DUP2 LT PUSH2 0x91C7 JUMPI PUSH2 0x91C6 PUSH2 0xF0D7 JUMP JUMPDEST JUMPDEST PUSH1 0x20 MUL PUSH1 0x20 ADD ADD SWAP1 PUSH2 0xFFFF AND SWAP1 DUP2 PUSH2 0xFFFF AND DUP2 MSTORE POP POP PUSH1 0xAF DUP2 PUSH1 0x2 PUSH1 0x1C DUP2 GT ISZERO PUSH2 0x91F4 JUMPI PUSH2 0x91F3 PUSH2 0xEAFB JUMP JUMPDEST JUMPDEST DUP2 MLOAD DUP2 LT PUSH2 0x9205 JUMPI PUSH2 0x9204 PUSH2 0xF0D7 JUMP JUMPDEST JUMPDEST PUSH1 0x20 MUL PUSH1 0x20 ADD ADD SWAP1 PUSH2 0xFFFF AND SWAP1 DUP2 PUSH2 0xFFFF AND DUP2 MSTORE POP POP PUSH1 0x78 DUP2 PUSH1 0x1C DUP1 DUP2 GT ISZERO PUSH2 0x9231 JUMPI PUSH2 0x9230 PUSH2 0xEAFB JUMP JUMPDEST JUMPDEST DUP2 MLOAD DUP2 LT PUSH2 0x9242 JUMPI PUSH2 0x9241 PUSH2 0xF0D7 JUMP JUMPDEST JUMPDEST PUSH1 0x20 MUL PUSH1 0x20 ADD ADD SWAP1 PUSH2 0xFFFF AND SWAP1 DUP2 PUSH2 0xFFFF AND DUP2 MSTORE POP POP PUSH1 0x50 DUP2 PUSH1 0x1A PUSH1 0x1C DUP2 GT ISZERO PUSH2 0x926F JUMPI PUSH2 0x926E PUSH2 0xEAFB JUMP JUMPDEST JUMPDEST DUP2 MLOAD DUP2 LT PUSH2 0x9280 JUMPI PUSH2 0x927F PUSH2 0xF0D7 JUMP JUMPDEST JUMPDEST PUSH1 0x20 MUL PUSH1 0x20 ADD ADD SWAP1 PUSH2 0xFFFF AND SWAP1 DUP2 PUSH2 0xFFFF AND DUP2 MSTORE POP POP PUSH1 0x3C DUP2 PUSH1 0x16 PUSH1 0x1C DUP2 GT ISZERO PUSH2 0x92AD JUMPI PUSH2 0x92AC PUSH2 0xEAFB JUMP JUMPDEST JUMPDEST DUP2 MLOAD DUP2 LT PUSH2 0x92BE JUMPI PUSH2 0x92BD PUSH2 0xF0D7 JUMP JUMPDEST JUMPDEST PUSH1 0x20 MUL PUSH1 0x20 ADD ADD SWAP1 PUSH2 0xFFFF AND SWAP1 DUP2 PUSH2 0xFFFF AND DUP2 MSTORE POP POP PUSH1 0x37 DUP2 PUSH1 0x5 PUSH1 0x1C DUP2 GT ISZERO PUSH2 0x92EB JUMPI PUSH2 0x92EA PUSH2 0xEAFB JUMP JUMPDEST JUMPDEST DUP2 MLOAD DUP2 LT PUSH2 0x92FC JUMPI PUSH2 0x92FB PUSH2 0xF0D7 JUMP JUMPDEST JUMPDEST PUSH1 0x20 MUL PUSH1 0x20 ADD ADD SWAP1 PUSH2 0xFFFF AND SWAP1 DUP2 PUSH2 0xFFFF AND DUP2 MSTORE POP POP PUSH1 0x2D DUP2 PUSH1 0x4 PUSH1 0x1C DUP2 GT ISZERO PUSH2 0x9329 JUMPI PUSH2 0x9328 PUSH2 0xEAFB JUMP JUMPDEST JUMPDEST DUP2 MLOAD DUP2 LT PUSH2 0x933A JUMPI PUSH2 0x9339 PUSH2 0xF0D7 JUMP JUMPDEST JUMPDEST PUSH1 0x20 MUL PUSH1 0x20 ADD ADD SWAP1 PUSH2 0xFFFF AND SWAP1 DUP2 PUSH2 0xFFFF AND DUP2 MSTORE POP POP PUSH1 0x23 DUP2 PUSH1 0x1 PUSH1 0x1C DUP2 GT ISZERO PUSH2 0x9367 JUMPI PUSH2 0x9366 PUSH2 0xEAFB JUMP JUMPDEST JUMPDEST DUP2 MLOAD DUP2 LT PUSH2 0x9378 JUMPI PUSH2 0x9377 PUSH2 0xF0D7 JUMP JUMPDEST JUMPDEST PUSH1 0x20 MUL PUSH1 0x20 ADD ADD SWAP1 PUSH2 0xFFFF AND SWAP1 DUP2 PUSH2 0xFFFF AND DUP2 MSTORE POP POP PUSH1 0x1E DUP2 PUSH1 0x18 PUSH1 0x1C DUP2 GT ISZERO PUSH2 0x93A5 JUMPI PUSH2 0x93A4 PUSH2 0xEAFB JUMP JUMPDEST JUMPDEST DUP2 MLOAD DUP2 LT PUSH2 0x93B6 JUMPI PUSH2 0x93B5 PUSH2 0xF0D7 JUMP JUMPDEST JUMPDEST PUSH1 0x20 MUL PUSH1 0x20 ADD ADD SWAP1 PUSH2 0xFFFF AND SWAP1 DUP2 PUSH2 0xFFFF AND DUP2 MSTORE POP POP PUSH1 0x16 DUP2 PUSH1 0x14 PUSH1 0x1C DUP2 GT ISZERO PUSH2 0x93E3 JUMPI PUSH2 0x93E2 PUSH2 0xEAFB JUMP JUMPDEST JUMPDEST DUP2 MLOAD DUP2 LT PUSH2 0x93F4 JUMPI PUSH2 0x93F3 PUSH2 0xF0D7 JUMP JUMPDEST JUMPDEST PUSH1 0x20 MUL PUSH1 0x20 ADD ADD SWAP1 PUSH2 0xFFFF AND SWAP1 DUP2 PUSH2 0xFFFF AND DUP2 MSTORE POP POP PUSH1 0x12 DUP2 PUSH1 0x17 PUSH1 0x1C DUP2 GT ISZERO PUSH2 0x9421 JUMPI PUSH2 0x9420 PUSH2 0xEAFB JUMP JUMPDEST JUMPDEST DUP2 MLOAD DUP2 LT PUSH2 0x9432 JUMPI PUSH2 0x9431 PUSH2 0xF0D7 JUMP JUMPDEST JUMPDEST PUSH1 0x20 MUL PUSH1 0x20 ADD ADD SWAP1 PUSH2 0xFFFF AND SWAP1 DUP2 PUSH2 0xFFFF AND DUP2 MSTORE POP POP PUSH1 0x10 DUP2 PUSH1 0x15 PUSH1 0x1C DUP2 GT ISZERO PUSH2 0x945F JUMPI PUSH2 0x945E PUSH2 0xEAFB JUMP JUMPDEST JUMPDEST DUP2 MLOAD DUP2 LT PUSH2 0x9470 JUMPI PUSH2 0x946F PUSH2 0xF0D7 JUMP JUMPDEST JUMPDEST PUSH1 0x20 MUL PUSH1 0x20 ADD ADD SWAP1 PUSH2 0xFFFF AND SWAP1 DUP2 PUSH2 0xFFFF AND DUP2 MSTORE POP POP PUSH1 0xE DUP2 PUSH1 0x6 PUSH1 0x1C DUP2 GT ISZERO PUSH2 0x949D JUMPI PUSH2 0x949C PUSH2 0xEAFB JUMP JUMPDEST JUMPDEST DUP2 MLOAD DUP2 LT PUSH2 0x94AE JUMPI PUSH2 0x94AD PUSH2 0xF0D7 JUMP JUMPDEST JUMPDEST PUSH1 0x20 MUL PUSH1 0x20 ADD ADD SWAP1 PUSH2 0xFFFF AND SWAP1 DUP2 PUSH2 0xFFFF AND DUP2 MSTORE POP POP PUSH1 0xC DUP2 PUSH1 0x3 PUSH1 0x1C DUP2 GT ISZERO PUSH2 0x94DB JUMPI PUSH2 0x94DA PUSH2 0xEAFB JUMP JUMPDEST JUMPDEST DUP2 MLOAD DUP2 LT PUSH2 0x94EC JUMPI PUSH2 0x94EB PUSH2 0xF0D7 JUMP JUMPDEST JUMPDEST PUSH1 0x20 MUL PUSH1 0x20 ADD ADD SWAP1 PUSH2 0xFFFF AND SWAP1 DUP2 PUSH2 0xFFFF AND DUP2 MSTORE POP POP PUSH1 0xA DUP2 PUSH1 0x19 PUSH1 0x1C DUP2 GT ISZERO PUSH2 0x9519 JUMPI PUSH2 0x9518 PUSH2 0xEAFB JUMP JUMPDEST JUMPDEST DUP2 MLOAD DUP2 LT PUSH2 0x952A JUMPI PUSH2 0x9529 PUSH2 0xF0D7 JUMP JUMPDEST JUMPDEST PUSH1 0x20 MUL PUSH1 0x20 ADD ADD SWAP1 PUSH2 0xFFFF AND SWAP1 DUP2 PUSH2 0xFFFF AND DUP2 MSTORE POP POP PUSH1 0x8 DUP2 PUSH1 0x13 PUSH1 0x1C DUP2 GT ISZERO PUSH2 0x9557 JUMPI PUSH2 0x9556 PUSH2 0xEAFB JUMP JUMPDEST JUMPDEST DUP2 MLOAD DUP2 LT PUSH2 0x9568 JUMPI PUSH2 0x9567 PUSH2 0xF0D7 JUMP JUMPDEST JUMPDEST PUSH1 0x20 MUL PUSH1 0x20 ADD ADD SWAP1 PUSH2 0xFFFF AND SWAP1 DUP2 PUSH2 0xFFFF AND DUP2 MSTORE POP POP PUSH0 PUSH2 0x9589 DUP5 DUP4 PUSH2 0xE0C9 JUMP JUMPDEST SWAP1 POP DUP1 PUSH1 0x1C DUP2 GT ISZERO PUSH2 0x959E JUMPI PUSH2 0x959D PUSH2 0xEAFB JUMP JUMPDEST JUMPDEST SWAP3 POP POP POP SWAP2 SWAP1 POP JUMP JUMPDEST PUSH0 PUSH0 PUSH1 0xB PUSH8 0xFFFFFFFFFFFFFFFF DUP2 GT ISZERO PUSH2 0x95C4 JUMPI PUSH2 0x95C3 PUSH2 0xE9D4 JUMP JUMPDEST JUMPDEST PUSH1 0x40 MLOAD SWAP1 DUP1 DUP3 MSTORE DUP1 PUSH1 0x20 MUL PUSH1 0x20 ADD DUP3 ADD PUSH1 0x40 MSTORE DUP1 ISZERO PUSH2 0x95F2 JUMPI DUP2 PUSH1 0x20 ADD PUSH1 0x20 DUP3 MUL DUP1 CALLDATASIZE DUP4 CALLDATACOPY DUP1 DUP3 ADD SWAP2 POP POP SWAP1 POP JUMPDEST POP SWAP1 POP PUSH2 0x206C DUP2 PUSH0 PUSH1 0xA DUP2 GT ISZERO PUSH2 0x960C JUMPI PUSH2 0x960B PUSH2 0xEAFB JUMP JUMPDEST JUMPDEST DUP2 MLOAD DUP2 LT PUSH2 0x961D JUMPI PUSH2 0x961C PUSH2 0xF0D7 JUMP JUMPDEST JUMPDEST PUSH1 0x20 MUL PUSH1 0x20 ADD ADD SWAP1 PUSH2 0xFFFF AND SWAP1 DUP2 PUSH2 0xFFFF AND DUP2 MSTORE POP POP PUSH2 0x1F4 DUP2 PUSH1 0x9 PUSH1 0xA DUP2 GT ISZERO PUSH2 0x964B JUMPI PUSH2 0x964A PUSH2 0xEAFB JUMP JUMPDEST JUMPDEST DUP2 MLOAD DUP2 LT PUSH2 0x965C JUMPI PUSH2 0x965B PUSH2 0xF0D7 JUMP JUMPDEST JUMPDEST PUSH1 0x20 MUL PUSH1 0x20 ADD ADD SWAP1 PUSH2 0xFFFF AND SWAP1 DUP2 PUSH2 0xFFFF AND DUP2 MSTORE POP POP PUSH2 0x190 DUP2 PUSH1 0x5 PUSH1 0xA DUP2 GT ISZERO PUSH2 0x968A JUMPI PUSH2 0x9689 PUSH2 0xEAFB JUMP JUMPDEST JUMPDEST DUP2 MLOAD DUP2 LT PUSH2 0x969B JUMPI PUSH2 0x969A PUSH2 0xF0D7 JUMP JUMPDEST JUMPDEST PUSH1 0x20 MUL PUSH1 0x20 ADD ADD SWAP1 PUSH2 0xFFFF AND SWAP1 DUP2 PUSH2 0xFFFF AND DUP2 MSTORE POP POP PUSH2 0x12C DUP2 PUSH1 0x2 PUSH1 0xA DUP2 GT ISZERO PUSH2 0x96C9 JUMPI PUSH2 0x96C8 PUSH2 0xEAFB JUMP JUMPDEST JUMPDEST DUP2 MLOAD DUP2 LT PUSH2 0x96DA JUMPI PUSH2 0x96D9 PUSH2 0xF0D7 JUMP JUMPDEST JUMPDEST PUSH1 0x20 MUL PUSH1 0x20 ADD ADD SWAP1 PUSH2 0xFFFF AND SWAP1 DUP2 PUSH2 0xFFFF AND DUP2 MSTORE POP POP PUSH1 0xC8 DUP2 PUSH1 0x4 PUSH1 0xA DUP2 GT ISZERO PUSH2 0x9707 JUMPI PUSH2 0x9706 PUSH2 0xEAFB JUMP JUMPDEST JUMPDEST DUP2 MLOAD DUP2 LT PUSH2 0x9718 JUMPI PUSH2 0x9717 PUSH2 0xF0D7 JUMP JUMPDEST JUMPDEST PUSH1 0x20 MUL PUSH1 0x20 ADD ADD SWAP1 PUSH2 0xFFFF AND SWAP1 DUP2 PUSH2 0xFFFF AND DUP2 MSTORE POP POP PUSH1 0x64 DUP2 PUSH1 0x7 PUSH1 0xA DUP2 GT ISZERO PUSH2 0x9745 JUMPI PUSH2 0x9744 PUSH2 0xEAFB JUMP JUMPDEST JUMPDEST DUP2 MLOAD DUP2 LT PUSH2 0x9756 JUMPI PUSH2 0x9755 PUSH2 0xF0D7 JUMP JUMPDEST JUMPDEST PUSH1 0x20 MUL PUSH1 0x20 ADD ADD SWAP1 PUSH2 0xFFFF AND SWAP1 DUP2 PUSH2 0xFFFF AND DUP2 MSTORE POP POP PUSH1 0x32 DUP2 PUSH1 0x6 PUSH1 0xA DUP2 GT ISZERO PUSH2 0x9783 JUMPI PUSH2 0x9782 PUSH2 0xEAFB JUMP JUMPDEST JUMPDEST DUP2 MLOAD DUP2 LT PUSH2 0x9794 JUMPI PUSH2 0x9793 PUSH2 0xF0D7 JUMP JUMPDEST JUMPDEST PUSH1 0x20 MUL PUSH1 0x20 ADD ADD SWAP1 PUSH2 0xFFFF AND SWAP1 DUP2 PUSH2 0xFFFF AND DUP2 MSTORE POP POP PUSH1 0x4B DUP2 PUSH1 0x3 PUSH1 0xA DUP2 GT ISZERO PUSH2 0x97C1 JUMPI PUSH2 0x97C0 PUSH2 0xEAFB JUMP JUMPDEST JUMPDEST DUP2 MLOAD DUP2 LT PUSH2 0x97D2 JUMPI PUSH2 0x97D1 PUSH2 0xF0D7 JUMP JUMPDEST JUMPDEST PUSH1 0x20 MUL PUSH1 0x20 ADD ADD SWAP1 PUSH2 0xFFFF AND SWAP1 DUP2 PUSH2 0xFFFF AND DUP2 MSTORE POP POP PUSH1 0x19 DUP2 PUSH1 0x1 PUSH1 0xA DUP2 GT ISZERO PUSH2 0x97FF JUMPI PUSH2 0x97FE PUSH2 0xEAFB JUMP JUMPDEST JUMPDEST DUP2 MLOAD DUP2 LT PUSH2 0x9810 JUMPI PUSH2 0x980F PUSH2 0xF0D7 JUMP JUMPDEST JUMPDEST PUSH1 0x20 MUL PUSH1 0x20 ADD ADD SWAP1 PUSH2 0xFFFF AND SWAP1 DUP2 PUSH2 0xFFFF AND DUP2 MSTORE POP POP PUSH1 0x23 DUP2 PUSH1 0xA DUP1 DUP2 GT ISZERO PUSH2 0x983C JUMPI PUSH2 0x983B PUSH2 0xEAFB JUMP JUMPDEST JUMPDEST DUP2 MLOAD DUP2 LT PUSH2 0x984D JUMPI PUSH2 0x984C PUSH2 0xF0D7 JUMP JUMPDEST JUMPDEST PUSH1 0x20 MUL PUSH1 0x20 ADD ADD SWAP1 PUSH2 0xFFFF AND SWAP1 DUP2 PUSH2 0xFFFF AND DUP2 MSTORE POP POP PUSH1 0xF DUP2 PUSH1 0x8 PUSH1 0xA DUP2 GT ISZERO PUSH2 0x987A JUMPI PUSH2 0x9879 PUSH2 0xEAFB JUMP JUMPDEST JUMPDEST DUP2 MLOAD DUP2 LT PUSH2 0x988B JUMPI PUSH2 0x988A PUSH2 0xF0D7 JUMP JUMPDEST JUMPDEST PUSH1 0x20 MUL PUSH1 0x20 ADD ADD SWAP1 PUSH2 0xFFFF AND SWAP1 DUP2 PUSH2 0xFFFF AND DUP2 MSTORE POP POP PUSH0 PUSH2 0x98AC DUP5 DUP4 PUSH2 0xE0C9 JUMP JUMPDEST SWAP1 POP DUP1 PUSH1 0xA DUP2 GT ISZERO PUSH2 0x98C1 JUMPI PUSH2 0x98C0 PUSH2 0xEAFB JUMP JUMPDEST JUMPDEST SWAP3 POP POP POP SWAP2 SWAP1 POP JUMP JUMPDEST PUSH0 PUSH0 PUSH1 0x58 PUSH8 0xFFFFFFFFFFFFFFFF DUP2 GT ISZERO PUSH2 0x98E7 JUMPI PUSH2 0x98E6 PUSH2 0xE9D4 JUMP JUMPDEST JUMPDEST PUSH1 0x40 MLOAD SWAP1 DUP1 DUP3 MSTORE DUP1 PUSH1 0x20 MUL PUSH1 0x20 ADD DUP3 ADD PUSH1 0x40 MSTORE DUP1 ISZERO PUSH2 0x9915 JUMPI DUP2 PUSH1 0x20 ADD PUSH1 0x20 DUP3 MUL DUP1 CALLDATASIZE DUP4 CALLDATACOPY DUP1 DUP3 ADD SWAP2 POP POP SWAP1 POP JUMPDEST POP SWAP1 POP PUSH2 0x992A DUP5 PUSH2 0x9925 SWAP1 PUSH2 0xFA46 JUMP JUMPDEST PUSH2 0xE16C JUMP JUMPDEST ISZERO DUP1 ISZERO PUSH2 0x9946 JUMPI POP PUSH2 0x9944 DUP5 PUSH2 0x993F SWAP1 PUSH2 0xFA46 JUMP JUMPDEST PUSH2 0xE1E4 JUMP JUMPDEST ISZERO JUMPDEST DUP1 ISZERO PUSH2 0x9961 JUMPI POP PUSH2 0x995F DUP5 PUSH2 0x995A SWAP1 PUSH2 0xFA46 JUMP JUMPDEST PUSH2 0xE137 JUMP JUMPDEST ISZERO JUMPDEST ISZERO PUSH2 0x996F JUMPI PUSH0 SWAP2 POP POP PUSH2 0xB1E8 JUMP JUMPDEST PUSH2 0x9981 DUP5 PUSH2 0x997C SWAP1 PUSH2 0xFA46 JUMP JUMPDEST PUSH2 0xE137 JUMP JUMPDEST ISZERO PUSH2 0x9C73 JUMPI PUSH2 0x1388 DUP2 PUSH0 PUSH1 0x57 DUP2 GT ISZERO PUSH2 0x999D JUMPI PUSH2 0x999C PUSH2 0xEAFB JUMP JUMPDEST JUMPDEST DUP2 MLOAD DUP2 LT PUSH2 0x99AE JUMPI PUSH2 0x99AD PUSH2 0xF0D7 JUMP JUMPDEST JUMPDEST PUSH1 0x20 MUL PUSH1 0x20 ADD ADD SWAP1 PUSH2 0xFFFF AND SWAP1 DUP2 PUSH2 0xFFFF AND DUP2 MSTORE POP POP PUSH1 0x60 DUP2 PUSH1 0x5 PUSH1 0x57 DUP2 GT ISZERO PUSH2 0x99DB JUMPI PUSH2 0x99DA PUSH2 0xEAFB JUMP JUMPDEST JUMPDEST DUP2 MLOAD DUP2 LT PUSH2 0x99EC JUMPI PUSH2 0x99EB PUSH2 0xF0D7 JUMP JUMPDEST JUMPDEST PUSH1 0x20 MUL PUSH1 0x20 ADD ADD SWAP1 PUSH2 0xFFFF AND SWAP1 DUP2 PUSH2 0xFFFF AND DUP2 MSTORE POP POP PUSH1 0x2A DUP2 PUSH1 0x8 PUSH1 0x57 DUP2 GT ISZERO PUSH2 0x9A19 JUMPI PUSH2 0x9A18 PUSH2 0xEAFB JUMP JUMPDEST JUMPDEST DUP2 MLOAD DUP2 LT PUSH2 0x9A2A JUMPI PUSH2 0x9A29 PUSH2 0xF0D7 JUMP JUMPDEST JUMPDEST PUSH1 0x20 MUL PUSH1 0x20 ADD ADD SWAP1 PUSH2 0xFFFF AND SWAP1 DUP2 PUSH2 0xFFFF AND DUP2 MSTORE POP POP PUSH1 0x2A DUP2 PUSH1 0xA PUSH1 0x57 DUP2 GT ISZERO PUSH2 0x9A57 JUMPI PUSH2 0x9A56 PUSH2 0xEAFB JUMP JUMPDEST JUMPDEST DUP2 MLOAD DUP2 LT PUSH2 0x9A68 JUMPI PUSH2 0x9A67 PUSH2 0xF0D7 JUMP JUMPDEST JUMPDEST PUSH1 0x20 MUL PUSH1 0x20 ADD ADD SWAP1 PUSH2 0xFFFF AND SWAP1 DUP2 PUSH2 0xFFFF AND DUP2 MSTORE POP POP PUSH1 0x19 DUP2 PUSH1 0xB PUSH1 0x57 DUP2 GT ISZERO PUSH2 0x9A95 JUMPI PUSH2 0x9A94 PUSH2 0xEAFB JUMP JUMPDEST JUMPDEST DUP2 MLOAD DUP2 LT PUSH2 0x9AA6 JUMPI PUSH2 0x9AA5 PUSH2 0xF0D7 JUMP JUMPDEST JUMPDEST PUSH1 0x20 MUL PUSH1 0x20 ADD ADD SWAP1 PUSH2 0xFFFF AND SWAP1 DUP2 PUSH2 0xFFFF AND DUP2 MSTORE POP POP PUSH1 0x19 DUP2 PUSH1 0x18 PUSH1 0x57 DUP2 GT ISZERO PUSH2 0x9AD3 JUMPI PUSH2 0x9AD2 PUSH2 0xEAFB JUMP JUMPDEST JUMPDEST DUP2 MLOAD DUP2 LT PUSH2 0x9AE4 JUMPI PUSH2 0x9AE3 PUSH2 0xF0D7 JUMP JUMPDEST JUMPDEST PUSH1 0x20 MUL PUSH1 0x20 ADD ADD SWAP1 PUSH2 0xFFFF AND SWAP1 DUP2 PUSH2 0xFFFF AND DUP2 MSTORE POP POP PUSH1 0x1B DUP2 PUSH1 0x1D PUSH1 0x57 DUP2 GT ISZERO PUSH2 0x9B11 JUMPI PUSH2 0x9B10 PUSH2 0xEAFB JUMP JUMPDEST JUMPDEST DUP2 MLOAD DUP2 LT PUSH2 0x9B22 JUMPI PUSH2 0x9B21 PUSH2 0xF0D7 JUMP JUMPDEST JUMPDEST PUSH1 0x20 MUL PUSH1 0x20 ADD ADD SWAP1 PUSH2 0xFFFF AND SWAP1 DUP2 PUSH2 0xFFFF AND DUP2 MSTORE POP POP PUSH1 0x1E DUP2 PUSH1 0x2E PUSH1 0x57 DUP2 GT ISZERO PUSH2 0x9B4F JUMPI PUSH2 0x9B4E PUSH2 0xEAFB JUMP JUMPDEST JUMPDEST DUP2 MLOAD DUP2 LT PUSH2 0x9B60 JUMPI PUSH2 0x9B5F PUSH2 0xF0D7 JUMP JUMPDEST JUMPDEST PUSH1 0x20 MUL PUSH1 0x20 ADD ADD SWAP1 PUSH2 0xFFFF AND SWAP1 DUP2 PUSH2 0xFFFF AND DUP2 MSTORE POP POP PUSH1 0x14 DUP2 PUSH1 0x37 PUSH1 0x57 DUP2 GT ISZERO PUSH2 0x9B8D JUMPI PUSH2 0x9B8C PUSH2 0xEAFB JUMP JUMPDEST JUMPDEST DUP2 MLOAD DUP2 LT PUSH2 0x9B9E JUMPI PUSH2 0x9B9D PUSH2 0xF0D7 JUMP JUMPDEST JUMPDEST PUSH1 0x20 MUL PUSH1 0x20 ADD ADD SWAP1 PUSH2 0xFFFF AND SWAP1 DUP2 PUSH2 0xFFFF AND DUP2 MSTORE POP POP PUSH1 0x23 DUP2 PUSH1 0x48 PUSH1 0x57 DUP2 GT ISZERO PUSH2 0x9BCB JUMPI PUSH2 0x9BCA PUSH2 0xEAFB JUMP JUMPDEST JUMPDEST DUP2 MLOAD DUP2 LT PUSH2 0x9BDC JUMPI PUSH2 0x9BDB PUSH2 0xF0D7 JUMP JUMPDEST JUMPDEST PUSH1 0x20 MUL PUSH1 0x20 ADD ADD SWAP1 PUSH2 0xFFFF AND SWAP1 DUP2 PUSH2 0xFFFF AND DUP2 MSTORE POP POP PUSH1 0x19 DUP2 PUSH1 0x4D PUSH1 0x57 DUP2 GT ISZERO PUSH2 0x9C09 JUMPI PUSH2 0x9C08 PUSH2 0xEAFB JUMP JUMPDEST JUMPDEST DUP2 MLOAD DUP2 LT PUSH2 0x9C1A JUMPI PUSH2 0x9C19 PUSH2 0xF0D7 JUMP JUMPDEST JUMPDEST PUSH1 0x20 MUL PUSH1 0x20 ADD ADD SWAP1 PUSH2 0xFFFF AND SWAP1 DUP2 PUSH2 0xFFFF AND DUP2 MSTORE POP POP PUSH1 0x14 DUP2 PUSH1 0x56 PUSH1 0x57 DUP2 GT ISZERO PUSH2 0x9C47 JUMPI PUSH2 0x9C46 PUSH2 0xEAFB JUMP JUMPDEST JUMPDEST DUP2 MLOAD DUP2 LT PUSH2 0x9C58 JUMPI PUSH2 0x9C57 PUSH2 0xF0D7 JUMP JUMPDEST JUMPDEST PUSH1 0x20 MUL PUSH1 0x20 ADD ADD SWAP1 PUSH2 0xFFFF AND SWAP1 DUP2 PUSH2 0xFFFF AND DUP2 MSTORE POP POP PUSH2 0xB1C3 JUMP JUMPDEST PUSH2 0x1388 DUP2 PUSH0 PUSH1 0x57 DUP2 GT ISZERO PUSH2 0x9C8A JUMPI PUSH2 0x9C89 PUSH2 0xEAFB JUMP JUMPDEST JUMPDEST DUP2 MLOAD DUP2 LT PUSH2 0x9C9B JUMPI PUSH2 0x9C9A PUSH2 0xF0D7 JUMP JUMPDEST JUMPDEST PUSH1 0x20 MUL PUSH1 0x20 ADD ADD SWAP1 PUSH2 0xFFFF AND SWAP1 DUP2 PUSH2 0xFFFF AND DUP2 MSTORE POP POP PUSH1 0x5A DUP2 PUSH1 0x1 PUSH1 0x57 DUP2 GT ISZERO PUSH2 0x9CC8 JUMPI PUSH2 0x9CC7 PUSH2 0xEAFB JUMP JUMPDEST JUMPDEST DUP2 MLOAD DUP2 LT PUSH2 0x9CD9 JUMPI PUSH2 0x9CD8 PUSH2 0xF0D7 JUMP JUMPDEST JUMPDEST PUSH1 0x20 MUL PUSH1 0x20 ADD ADD SWAP1 PUSH2 0xFFFF AND SWAP1 DUP2 PUSH2 0xFFFF AND DUP2 MSTORE POP POP PUSH1 0x41 DUP2 PUSH1 0x2 PUSH1 0x57 DUP2 GT ISZERO PUSH2 0x9D06 JUMPI PUSH2 0x9D05 PUSH2 0xEAFB JUMP JUMPDEST JUMPDEST DUP2 MLOAD DUP2 LT PUSH2 0x9D17 JUMPI PUSH2 0x9D16 PUSH2 0xF0D7 JUMP JUMPDEST JUMPDEST PUSH1 0x20 MUL PUSH1 0x20 ADD ADD SWAP1 PUSH2 0xFFFF AND SWAP1 DUP2 PUSH2 0xFFFF AND DUP2 MSTORE POP POP PUSH1 0x2D DUP2 PUSH1 0x3 PUSH1 0x57 DUP2 GT ISZERO PUSH2 0x9D44 JUMPI PUSH2 0x9D43 PUSH2 0xEAFB JUMP JUMPDEST JUMPDEST DUP2 MLOAD DUP2 LT PUSH2 0x9D55 JUMPI PUSH2 0x9D54 PUSH2 0xF0D7 JUMP JUMPDEST JUMPDEST PUSH1 0x20 MUL PUSH1 0x20 ADD ADD SWAP1 PUSH2 0xFFFF AND SWAP1 DUP2 PUSH2 0xFFFF AND DUP2 MSTORE POP POP PUSH1 0x19 DUP2 PUSH1 0x4 PUSH1 0x57 DUP2 GT ISZERO PUSH2 0x9D82 JUMPI PUSH2 0x9D81 PUSH2 0xEAFB JUMP JUMPDEST JUMPDEST DUP2 MLOAD DUP2 LT PUSH2 0x9D93 JUMPI PUSH2 0x9D92 PUSH2 0xF0D7 JUMP JUMPDEST JUMPDEST PUSH1 0x20 MUL PUSH1 0x20 ADD ADD SWAP1 PUSH2 0xFFFF AND SWAP1 DUP2 PUSH2 0xFFFF AND DUP2 MSTORE POP POP PUSH1 0x60 DUP2 PUSH1 0x5 PUSH1 0x57 DUP2 GT ISZERO PUSH2 0x9DC0 JUMPI PUSH2 0x9DBF PUSH2 0xEAFB JUMP JUMPDEST JUMPDEST DUP2 MLOAD DUP2 LT PUSH2 0x9DD1 JUMPI PUSH2 0x9DD0 PUSH2 0xF0D7 JUMP JUMPDEST JUMPDEST PUSH1 0x20 MUL PUSH1 0x20 ADD ADD SWAP1 PUSH2 0xFFFF AND SWAP1 DUP2 PUSH2 0xFFFF AND DUP2 MSTORE POP POP PUSH1 0x2A DUP2 PUSH1 0x8 PUSH1 0x57 DUP2 GT ISZERO PUSH2 0x9DFE JUMPI PUSH2 0x9DFD PUSH2 0xEAFB JUMP JUMPDEST JUMPDEST DUP2 MLOAD DUP2 LT PUSH2 0x9E0F JUMPI PUSH2 0x9E0E PUSH2 0xF0D7 JUMP JUMPDEST JUMPDEST PUSH1 0x20 MUL PUSH1 0x20 ADD ADD SWAP1 PUSH2 0xFFFF AND SWAP1 DUP2 PUSH2 0xFFFF AND DUP2 MSTORE POP POP PUSH1 0x2A DUP2 PUSH1 0xA PUSH1 0x57 DUP2 GT ISZERO PUSH2 0x9E3C JUMPI PUSH2 0x9E3B PUSH2 0xEAFB JUMP JUMPDEST JUMPDEST DUP2 MLOAD DUP2 LT PUSH2 0x9E4D JUMPI PUSH2 0x9E4C PUSH2 0xF0D7 JUMP JUMPDEST JUMPDEST PUSH1 0x20 MUL PUSH1 0x20 ADD ADD SWAP1 PUSH2 0xFFFF AND SWAP1 DUP2 PUSH2 0xFFFF AND DUP2 MSTORE POP POP PUSH1 0x4B DUP2 PUSH1 0x6 PUSH1 0x57 DUP2 GT ISZERO PUSH2 0x9E7A JUMPI PUSH2 0x9E79 PUSH2 0xEAFB JUMP JUMPDEST JUMPDEST DUP2 MLOAD DUP2 LT PUSH2 0x9E8B JUMPI PUSH2 0x9E8A PUSH2 0xF0D7 JUMP JUMPDEST JUMPDEST PUSH1 0x20 MUL PUSH1 0x20 ADD ADD SWAP1 PUSH2 0xFFFF AND SWAP1 DUP2 PUSH2 0xFFFF AND DUP2 MSTORE POP POP PUSH1 0x3C DUP2 PUSH1 0x7 PUSH1 0x57 DUP2 GT ISZERO PUSH2 0x9EB8 JUMPI PUSH2 0x9EB7 PUSH2 0xEAFB JUMP JUMPDEST JUMPDEST DUP2 MLOAD DUP2 LT PUSH2 0x9EC9 JUMPI PUSH2 0x9EC8 PUSH2 0xF0D7 JUMP JUMPDEST JUMPDEST PUSH1 0x20 MUL PUSH1 0x20 ADD ADD SWAP1 PUSH2 0xFFFF AND SWAP1 DUP2 PUSH2 0xFFFF AND DUP2 MSTORE POP POP PUSH1 0x32 DUP2 PUSH1 0x9 PUSH1 0x57 DUP2 GT ISZERO PUSH2 0x9EF6 JUMPI PUSH2 0x9EF5 PUSH2 0xEAFB JUMP JUMPDEST JUMPDEST DUP2 MLOAD DUP2 LT PUSH2 0x9F07 JUMPI PUSH2 0x9F06 PUSH2 0xF0D7 JUMP JUMPDEST JUMPDEST PUSH1 0x20 MUL PUSH1 0x20 ADD ADD SWAP1 PUSH2 0xFFFF AND SWAP1 DUP2 PUSH2 0xFFFF AND DUP2 MSTORE POP POP PUSH1 0x23 DUP2 PUSH1 0xC PUSH1 0x57 DUP2 GT ISZERO PUSH2 0x9F34 JUMPI PUSH2 0x9F33 PUSH2 0xEAFB JUMP JUMPDEST JUMPDEST DUP2 MLOAD DUP2 LT PUSH2 0x9F45 JUMPI PUSH2 0x9F44 PUSH2 0xF0D7 JUMP JUMPDEST JUMPDEST PUSH1 0x20 MUL PUSH1 0x20 ADD ADD SWAP1 PUSH2 0xFFFF AND SWAP1 DUP2 PUSH2 0xFFFF AND DUP2 MSTORE POP POP PUSH1 0x19 DUP2 PUSH1 0xB PUSH1 0x57 DUP2 GT ISZERO PUSH2 0x9F72 JUMPI PUSH2 0x9F71 PUSH2 0xEAFB JUMP JUMPDEST JUMPDEST DUP2 MLOAD DUP2 LT PUSH2 0x9F83 JUMPI PUSH2 0x9F82 PUSH2 0xF0D7 JUMP JUMPDEST JUMPDEST PUSH1 0x20 MUL PUSH1 0x20 ADD ADD SWAP1 PUSH2 0xFFFF AND SWAP1 DUP2 PUSH2 0xFFFF AND DUP2 MSTORE POP POP PUSH1 0x69 DUP2 PUSH1 0xD PUSH1 0x57 DUP2 GT ISZERO PUSH2 0x9FB0 JUMPI PUSH2 0x9FAF PUSH2 0xEAFB JUMP JUMPDEST JUMPDEST DUP2 MLOAD DUP2 LT PUSH2 0x9FC1 JUMPI PUSH2 0x9FC0 PUSH2 0xF0D7 JUMP JUMPDEST JUMPDEST PUSH1 0x20 MUL PUSH1 0x20 ADD ADD SWAP1 PUSH2 0xFFFF AND SWAP1 DUP2 PUSH2 0xFFFF AND DUP2 MSTORE POP POP PUSH1 0x50 DUP2 PUSH1 0xE PUSH1 0x57 DUP2 GT ISZERO PUSH2 0x9FEE JUMPI PUSH2 0x9FED PUSH2 0xEAFB JUMP JUMPDEST JUMPDEST DUP2 MLOAD DUP2 LT PUSH2 0x9FFF JUMPI PUSH2 0x9FFE PUSH2 0xF0D7 JUMP JUMPDEST JUMPDEST PUSH1 0x20 MUL PUSH1 0x20 ADD ADD SWAP1 PUSH2 0xFFFF AND SWAP1 DUP2 PUSH2 0xFFFF AND DUP2 MSTORE POP POP PUSH1 0x32 DUP2 PUSH1 0xF PUSH1 0x57 DUP2 GT ISZERO PUSH2 0xA02C JUMPI PUSH2 0xA02B PUSH2 0xEAFB JUMP JUMPDEST JUMPDEST DUP2 MLOAD DUP2 LT PUSH2 0xA03D JUMPI PUSH2 0xA03C PUSH2 0xF0D7 JUMP JUMPDEST JUMPDEST PUSH1 0x20 MUL PUSH1 0x20 ADD ADD SWAP1 PUSH2 0xFFFF AND SWAP1 DUP2 PUSH2 0xFFFF AND DUP2 MSTORE POP POP PUSH1 0x1E DUP2 PUSH1 0x10 PUSH1 0x57 DUP2 GT ISZERO PUSH2 0xA06A JUMPI PUSH2 0xA069 PUSH2 0xEAFB JUMP JUMPDEST JUMPDEST DUP2 MLOAD DUP2 LT PUSH2 0xA07B JUMPI PUSH2 0xA07A PUSH2 0xF0D7 JUMP JUMPDEST JUMPDEST PUSH1 0x20 MUL PUSH1 0x20 ADD ADD SWAP1 PUSH2 0xFFFF AND SWAP1 DUP2 PUSH2 0xFFFF AND DUP2 MSTORE POP POP PUSH1 0x9B DUP2 PUSH1 0x11 PUSH1 0x57 DUP2 GT ISZERO PUSH2 0xA0A8 JUMPI PUSH2 0xA0A7 PUSH2 0xEAFB JUMP JUMPDEST JUMPDEST DUP2 MLOAD DUP2 LT PUSH2 0xA0B9 JUMPI PUSH2 0xA0B8 PUSH2 0xF0D7 JUMP JUMPDEST JUMPDEST PUSH1 0x20 MUL PUSH1 0x20 ADD ADD SWAP1 PUSH2 0xFFFF AND SWAP1 DUP2 PUSH2 0xFFFF AND DUP2 MSTORE POP POP PUSH1 0x73 DUP2 PUSH1 0x12 PUSH1 0x57 DUP2 GT ISZERO PUSH2 0xA0E6 JUMPI PUSH2 0xA0E5 PUSH2 0xEAFB JUMP JUMPDEST JUMPDEST DUP2 MLOAD DUP2 LT PUSH2 0xA0F7 JUMPI PUSH2 0xA0F6 PUSH2 0xF0D7 JUMP JUMPDEST JUMPDEST PUSH1 0x20 MUL PUSH1 0x20 ADD ADD SWAP1 PUSH2 0xFFFF AND SWAP1 DUP2 PUSH2 0xFFFF AND DUP2 MSTORE POP POP PUSH1 0x50 DUP2 PUSH1 0x13 PUSH1 0x57 DUP2 GT ISZERO PUSH2 0xA124 JUMPI PUSH2 0xA123 PUSH2 0xEAFB JUMP JUMPDEST JUMPDEST DUP2 MLOAD DUP2 LT PUSH2 0xA135 JUMPI PUSH2 0xA134 PUSH2 0xF0D7 JUMP JUMPDEST JUMPDEST PUSH1 0x20 MUL PUSH1 0x20 ADD ADD SWAP1 PUSH2 0xFFFF AND SWAP1 DUP2 PUSH2 0xFFFF AND DUP2 MSTORE POP POP PUSH1 0x28 DUP2 PUSH1 0x14 PUSH1 0x57 DUP2 GT ISZERO PUSH2 0xA162 JUMPI PUSH2 0xA161 PUSH2 0xEAFB JUMP JUMPDEST JUMPDEST DUP2 MLOAD DUP2 LT PUSH2 0xA173 JUMPI PUSH2 0xA172 PUSH2 0xF0D7 JUMP JUMPDEST JUMPDEST PUSH1 0x20 MUL PUSH1 0x20 ADD ADD SWAP1 PUSH2 0xFFFF AND SWAP1 DUP2 PUSH2 0xFFFF AND DUP2 MSTORE POP POP PUSH1 0x64 DUP2 PUSH1 0x15 PUSH1 0x57 DUP2 GT ISZERO PUSH2 0xA1A0 JUMPI PUSH2 0xA19F PUSH2 0xEAFB JUMP JUMPDEST JUMPDEST DUP2 MLOAD DUP2 LT PUSH2 0xA1B1 JUMPI PUSH2 0xA1B0 PUSH2 0xF0D7 JUMP JUMPDEST JUMPDEST PUSH1 0x20 MUL PUSH1 0x20 ADD ADD SWAP1 PUSH2 0xFFFF AND SWAP1 DUP2 PUSH2 0xFFFF AND DUP2 MSTORE POP POP PUSH1 0x55 DUP2 PUSH1 0x16 PUSH1 0x57 DUP2 GT ISZERO PUSH2 0xA1DE JUMPI PUSH2 0xA1DD PUSH2 0xEAFB JUMP JUMPDEST JUMPDEST DUP2 MLOAD DUP2 LT PUSH2 0xA1EF JUMPI PUSH2 0xA1EE PUSH2 0xF0D7 JUMP JUMPDEST JUMPDEST PUSH1 0x20 MUL PUSH1 0x20 ADD ADD SWAP1 PUSH2 0xFFFF AND SWAP1 DUP2 PUSH2 0xFFFF AND DUP2 MSTORE POP POP PUSH1 0x3C DUP2 PUSH1 0x17 PUSH1 0x57 DUP2 GT ISZERO PUSH2 0xA21C JUMPI PUSH2 0xA21B PUSH2 0xEAFB JUMP JUMPDEST JUMPDEST DUP2 MLOAD DUP2 LT PUSH2 0xA22D JUMPI PUSH2 0xA22C PUSH2 0xF0D7 JUMP JUMPDEST JUMPDEST PUSH1 0x20 MUL PUSH1 0x20 ADD ADD SWAP1 PUSH2 0xFFFF AND SWAP1 DUP2 PUSH2 0xFFFF AND DUP2 MSTORE POP POP PUSH1 0x2D DUP2 PUSH1 0x19 PUSH1 0x57 DUP2 GT ISZERO PUSH2 0xA25A JUMPI PUSH2 0xA259 PUSH2 0xEAFB JUMP JUMPDEST JUMPDEST DUP2 MLOAD DUP2 LT PUSH2 0xA26B JUMPI PUSH2 0xA26A PUSH2 0xF0D7 JUMP JUMPDEST JUMPDEST PUSH1 0x20 MUL PUSH1 0x20 ADD ADD SWAP1 PUSH2 0xFFFF AND SWAP1 DUP2 PUSH2 0xFFFF AND DUP2 MSTORE POP POP PUSH1 0x19 DUP2 PUSH1 0x18 PUSH1 0x57 DUP2 GT ISZERO PUSH2 0xA298 JUMPI PUSH2 0xA297 PUSH2 0xEAFB JUMP JUMPDEST JUMPDEST DUP2 MLOAD DUP2 LT PUSH2 0xA2A9 JUMPI PUSH2 0xA2A8 PUSH2 0xF0D7 JUMP JUMPDEST JUMPDEST PUSH1 0x20 MUL PUSH1 0x20 ADD ADD SWAP1 PUSH2 0xFFFF AND SWAP1 DUP2 PUSH2 0xFFFF AND DUP2 MSTORE POP POP PUSH1 0x6B DUP2 PUSH1 0x1A PUSH1 0x57 DUP2 GT ISZERO PUSH2 0xA2D6 JUMPI PUSH2 0xA2D5 PUSH2 0xEAFB JUMP JUMPDEST JUMPDEST DUP2 MLOAD DUP2 LT PUSH2 0xA2E7 JUMPI PUSH2 0xA2E6 PUSH2 0xF0D7 JUMP JUMPDEST JUMPDEST PUSH1 0x20 MUL PUSH1 0x20 ADD ADD SWAP1 PUSH2 0xFFFF AND SWAP1 DUP2 PUSH2 0xFFFF AND DUP2 MSTORE POP POP PUSH1 0x57 DUP2 PUSH1 0x1B PUSH1 0x57 DUP2 GT ISZERO PUSH2 0xA314 JUMPI PUSH2 0xA313 PUSH2 0xEAFB JUMP JUMPDEST JUMPDEST DUP2 MLOAD DUP2 LT PUSH2 0xA325 JUMPI PUSH2 0xA324 PUSH2 0xF0D7 JUMP JUMPDEST JUMPDEST PUSH1 0x20 MUL PUSH1 0x20 ADD ADD SWAP1 PUSH2 0xFFFF AND SWAP1 DUP2 PUSH2 0xFFFF AND DUP2 MSTORE POP POP PUSH1 0x43 DUP2 PUSH1 0x1C PUSH1 0x57 DUP2 GT ISZERO PUSH2 0xA352 JUMPI PUSH2 0xA351 PUSH2 0xEAFB JUMP JUMPDEST JUMPDEST DUP2 MLOAD DUP2 LT PUSH2 0xA363 JUMPI PUSH2 0xA362 PUSH2 0xF0D7 JUMP JUMPDEST JUMPDEST PUSH1 0x20 MUL PUSH1 0x20 ADD ADD SWAP1 PUSH2 0xFFFF AND SWAP1 DUP2 PUSH2 0xFFFF AND DUP2 MSTORE POP POP PUSH1 0x2F DUP2 PUSH1 0x1E PUSH1 0x57 DUP2 GT ISZERO PUSH2 0xA390 JUMPI PUSH2 0xA38F PUSH2 0xEAFB JUMP JUMPDEST JUMPDEST DUP2 MLOAD DUP2 LT PUSH2 0xA3A1 JUMPI PUSH2 0xA3A0 PUSH2 0xF0D7 JUMP JUMPDEST JUMPDEST PUSH1 0x20 MUL PUSH1 0x20 ADD ADD SWAP1 PUSH2 0xFFFF AND SWAP1 DUP2 PUSH2 0xFFFF AND DUP2 MSTORE POP POP PUSH1 0x1B DUP2 PUSH1 0x1D PUSH1 0x57 DUP2 GT ISZERO PUSH2 0xA3CE JUMPI PUSH2 0xA3CD PUSH2 0xEAFB JUMP JUMPDEST JUMPDEST DUP2 MLOAD DUP2 LT PUSH2 0xA3DF JUMPI PUSH2 0xA3DE PUSH2 0xF0D7 JUMP JUMPDEST JUMPDEST PUSH1 0x20 MUL PUSH1 0x20 ADD ADD SWAP1 PUSH2 0xFFFF AND SWAP1 DUP2 PUSH2 0xFFFF AND DUP2 MSTORE POP POP PUSH1 0x46 DUP2 PUSH1 0x1F PUSH1 0x57 DUP2 GT ISZERO PUSH2 0xA40C JUMPI PUSH2 0xA40B PUSH2 0xEAFB JUMP JUMPDEST JUMPDEST DUP2 MLOAD DUP2 LT PUSH2 0xA41D JUMPI PUSH2 0xA41C PUSH2 0xF0D7 JUMP JUMPDEST JUMPDEST PUSH1 0x20 MUL PUSH1 0x20 ADD ADD SWAP1 PUSH2 0xFFFF AND SWAP1 DUP2 PUSH2 0xFFFF AND DUP2 MSTORE POP POP PUSH1 0x32 DUP2 PUSH1 0x20 PUSH1 0x57 DUP2 GT ISZERO PUSH2 0xA44A JUMPI PUSH2 0xA449 PUSH2 0xEAFB JUMP JUMPDEST JUMPDEST DUP2 MLOAD DUP2 LT PUSH2 0xA45B JUMPI PUSH2 0xA45A PUSH2 0xF0D7 JUMP JUMPDEST JUMPDEST PUSH1 0x20 MUL PUSH1 0x20 ADD ADD SWAP1 PUSH2 0xFFFF AND SWAP1 DUP2 PUSH2 0xFFFF AND DUP2 MSTORE POP POP PUSH1 0x23 DUP2 PUSH1 0x21 PUSH1 0x57 DUP2 GT ISZERO PUSH2 0xA488 JUMPI PUSH2 0xA487 PUSH2 0xEAFB JUMP JUMPDEST JUMPDEST DUP2 MLOAD DUP2 LT PUSH2 0xA499 JUMPI PUSH2 0xA498 PUSH2 0xF0D7 JUMP JUMPDEST JUMPDEST PUSH1 0x20 MUL PUSH1 0x20 ADD ADD SWAP1 PUSH2 0xFFFF AND SWAP1 DUP2 PUSH2 0xFFFF AND DUP2 MSTORE POP POP PUSH1 0x14 DUP2 PUSH1 0x22 PUSH1 0x57 DUP2 GT ISZERO PUSH2 0xA4C6 JUMPI PUSH2 0xA4C5 PUSH2 0xEAFB JUMP JUMPDEST JUMPDEST DUP2 MLOAD DUP2 LT PUSH2 0xA4D7 JUMPI PUSH2 0xA4D6 PUSH2 0xF0D7 JUMP JUMPDEST JUMPDEST PUSH1 0x20 MUL PUSH1 0x20 ADD ADD SWAP1 PUSH2 0xFFFF AND SWAP1 DUP2 PUSH2 0xFFFF AND DUP2 MSTORE POP POP PUSH1 0x28 DUP2 PUSH1 0x23 PUSH1 0x57 DUP2 GT ISZERO PUSH2 0xA504 JUMPI PUSH2 0xA503 PUSH2 0xEAFB JUMP JUMPDEST JUMPDEST DUP2 MLOAD DUP2 LT PUSH2 0xA515 JUMPI PUSH2 0xA514 PUSH2 0xF0D7 JUMP JUMPDEST JUMPDEST PUSH1 0x20 MUL PUSH1 0x20 ADD ADD SWAP1 PUSH2 0xFFFF AND SWAP1 DUP2 PUSH2 0xFFFF AND DUP2 MSTORE POP POP PUSH1 0x1E DUP2 PUSH1 0x24 PUSH1 0x57 DUP2 GT ISZERO PUSH2 0xA542 JUMPI PUSH2 0xA541 PUSH2 0xEAFB JUMP JUMPDEST JUMPDEST DUP2 MLOAD DUP2 LT PUSH2 0xA553 JUMPI PUSH2 0xA552 PUSH2 0xF0D7 JUMP JUMPDEST JUMPDEST PUSH1 0x20 MUL PUSH1 0x20 ADD ADD SWAP1 PUSH2 0xFFFF AND SWAP1 DUP2 PUSH2 0xFFFF AND DUP2 MSTORE POP POP PUSH1 0x14 DUP2 PUSH1 0x25 PUSH1 0x57 DUP2 GT ISZERO PUSH2 0xA580 JUMPI PUSH2 0xA57F PUSH2 0xEAFB JUMP JUMPDEST JUMPDEST DUP2 MLOAD DUP2 LT PUSH2 0xA591 JUMPI PUSH2 0xA590 PUSH2 0xF0D7 JUMP JUMPDEST JUMPDEST PUSH1 0x20 MUL PUSH1 0x20 ADD ADD SWAP1 PUSH2 0xFFFF AND SWAP1 DUP2 PUSH2 0xFFFF AND DUP2 MSTORE POP POP PUSH1 0xA DUP2 PUSH1 0x26 PUSH1 0x57 DUP2 GT ISZERO PUSH2 0xA5BE JUMPI PUSH2 0xA5BD PUSH2 0xEAFB JUMP JUMPDEST JUMPDEST DUP2 MLOAD DUP2 LT PUSH2 0xA5CF JUMPI PUSH2 0xA5CE PUSH2 0xF0D7 JUMP JUMPDEST JUMPDEST PUSH1 0x20 MUL PUSH1 0x20 ADD ADD SWAP1 PUSH2 0xFFFF AND SWAP1 DUP2 PUSH2 0xFFFF AND DUP2 MSTORE POP POP PUSH1 0x8C DUP2 PUSH1 0x27 PUSH1 0x57 DUP2 GT ISZERO PUSH2 0xA5FC JUMPI PUSH2 0xA5FB PUSH2 0xEAFB JUMP JUMPDEST JUMPDEST DUP2 MLOAD DUP2 LT PUSH2 0xA60D JUMPI PUSH2 0xA60C PUSH2 0xF0D7 JUMP JUMPDEST JUMPDEST PUSH1 0x20 MUL PUSH1 0x20 ADD ADD SWAP1 PUSH2 0xFFFF AND SWAP1 DUP2 PUSH2 0xFFFF AND DUP2 MSTORE POP POP PUSH1 0x69 DUP2 PUSH1 0x28 PUSH1 0x57 DUP2 GT ISZERO PUSH2 0xA63A JUMPI PUSH2 0xA639 PUSH2 0xEAFB JUMP JUMPDEST JUMPDEST DUP2 MLOAD DUP2 LT PUSH2 0xA64B JUMPI PUSH2 0xA64A PUSH2 0xF0D7 JUMP JUMPDEST JUMPDEST PUSH1 0x20 MUL PUSH1 0x20 ADD ADD SWAP1 PUSH2 0xFFFF AND SWAP1 DUP2 PUSH2 0xFFFF AND DUP2 MSTORE POP POP PUSH1 0x46 DUP2 PUSH1 0x29 PUSH1 0x57 DUP2 GT ISZERO PUSH2 0xA678 JUMPI PUSH2 0xA677 PUSH2 0xEAFB JUMP JUMPDEST JUMPDEST DUP2 MLOAD DUP2 LT PUSH2 0xA689 JUMPI PUSH2 0xA688 PUSH2 0xF0D7 JUMP JUMPDEST JUMPDEST PUSH1 0x20 MUL PUSH1 0x20 ADD ADD SWAP1 PUSH2 0xFFFF AND SWAP1 DUP2 PUSH2 0xFFFF AND DUP2 MSTORE POP POP PUSH1 0x28 DUP2 PUSH1 0x2A PUSH1 0x57 DUP2 GT ISZERO PUSH2 0xA6B6 JUMPI PUSH2 0xA6B5 PUSH2 0xEAFB JUMP JUMPDEST JUMPDEST DUP2 MLOAD DUP2 LT PUSH2 0xA6C7 JUMPI PUSH2 0xA6C6 PUSH2 0xF0D7 JUMP JUMPDEST JUMPDEST PUSH1 0x20 MUL PUSH1 0x20 ADD ADD SWAP1 PUSH2 0xFFFF AND SWAP1 DUP2 PUSH2 0xFFFF AND DUP2 MSTORE POP POP PUSH1 0x78 DUP2 PUSH1 0x2B PUSH1 0x57 DUP2 GT ISZERO PUSH2 0xA6F4 JUMPI PUSH2 0xA6F3 PUSH2 0xEAFB JUMP JUMPDEST JUMPDEST DUP2 MLOAD DUP2 LT PUSH2 0xA705 JUMPI PUSH2 0xA704 PUSH2 0xF0D7 JUMP JUMPDEST JUMPDEST PUSH1 0x20 MUL PUSH1 0x20 ADD ADD SWAP1 PUSH2 0xFFFF AND SWAP1 DUP2 PUSH2 0xFFFF AND DUP2 MSTORE POP POP PUSH1 0x5F DUP2 PUSH1 0x2C PUSH1 0x57 DUP2 GT ISZERO PUSH2 0xA732 JUMPI PUSH2 0xA731 PUSH2 0xEAFB JUMP JUMPDEST JUMPDEST DUP2 MLOAD DUP2 LT PUSH2 0xA743 JUMPI PUSH2 0xA742 PUSH2 0xF0D7 JUMP JUMPDEST JUMPDEST PUSH1 0x20 MUL PUSH1 0x20 ADD ADD SWAP1 PUSH2 0xFFFF AND SWAP1 DUP2 PUSH2 0xFFFF AND DUP2 MSTORE POP POP PUSH1 0x4B DUP2 PUSH1 0x2D PUSH1 0x57 DUP2 GT ISZERO PUSH2 0xA770 JUMPI PUSH2 0xA76F PUSH2 0xEAFB JUMP JUMPDEST JUMPDEST DUP2 MLOAD DUP2 LT PUSH2 0xA781 JUMPI PUSH2 0xA780 PUSH2 0xF0D7 JUMP JUMPDEST JUMPDEST PUSH1 0x20 MUL PUSH1 0x20 ADD ADD SWAP1 PUSH2 0xFFFF AND SWAP1 DUP2 PUSH2 0xFFFF AND DUP2 MSTORE POP POP PUSH1 0x32 DUP2 PUSH1 0x2F PUSH1 0x57 DUP2 GT ISZERO PUSH2 0xA7AE JUMPI PUSH2 0xA7AD PUSH2 0xEAFB JUMP JUMPDEST JUMPDEST DUP2 MLOAD DUP2 LT PUSH2 0xA7BF JUMPI PUSH2 0xA7BE PUSH2 0xF0D7 JUMP JUMPDEST JUMPDEST PUSH1 0x20 MUL PUSH1 0x20 ADD ADD SWAP1 PUSH2 0xFFFF AND SWAP1 DUP2 PUSH2 0xFFFF AND DUP2 MSTORE POP POP PUSH1 0x1E DUP2 PUSH1 0x2E PUSH1 0x57 DUP2 GT ISZERO PUSH2 0xA7EC JUMPI PUSH2 0xA7EB PUSH2 0xEAFB JUMP JUMPDEST JUMPDEST DUP2 MLOAD DUP2 LT PUSH2 0xA7FD JUMPI PUSH2 0xA7FC PUSH2 0xF0D7 JUMP JUMPDEST JUMPDEST PUSH1 0x20 MUL PUSH1 0x20 ADD ADD SWAP1 PUSH2 0xFFFF AND SWAP1 DUP2 PUSH2 0xFFFF AND DUP2 MSTORE POP POP PUSH1 0x4B DUP2 PUSH1 0x30 PUSH1 0x57 DUP2 GT ISZERO PUSH2 0xA82A JUMPI PUSH2 0xA829 PUSH2 0xEAFB JUMP JUMPDEST JUMPDEST DUP2 MLOAD DUP2 LT PUSH2 0xA83B JUMPI PUSH2 0xA83A PUSH2 0xF0D7 JUMP JUMPDEST JUMPDEST PUSH1 0x20 MUL PUSH1 0x20 ADD ADD SWAP1 PUSH2 0xFFFF AND SWAP1 DUP2 PUSH2 0xFFFF AND DUP2 MSTORE POP POP PUSH1 0x3C DUP2 PUSH1 0x31 PUSH1 0x57 DUP2 GT ISZERO PUSH2 0xA868 JUMPI PUSH2 0xA867 PUSH2 0xEAFB JUMP JUMPDEST JUMPDEST DUP2 MLOAD DUP2 LT PUSH2 0xA879 JUMPI PUSH2 0xA878 PUSH2 0xF0D7 JUMP JUMPDEST JUMPDEST PUSH1 0x20 MUL PUSH1 0x20 ADD ADD SWAP1 PUSH2 0xFFFF AND SWAP1 DUP2 PUSH2 0xFFFF AND DUP2 MSTORE POP POP PUSH1 0x23 DUP2 PUSH1 0x32 PUSH1 0x57 DUP2 GT ISZERO PUSH2 0xA8A6 JUMPI PUSH2 0xA8A5 PUSH2 0xEAFB JUMP JUMPDEST JUMPDEST DUP2 MLOAD DUP2 LT PUSH2 0xA8B7 JUMPI PUSH2 0xA8B6 PUSH2 0xF0D7 JUMP JUMPDEST JUMPDEST PUSH1 0x20 MUL PUSH1 0x20 ADD ADD SWAP1 PUSH2 0xFFFF AND SWAP1 DUP2 PUSH2 0xFFFF AND DUP2 MSTORE POP POP PUSH1 0x14 DUP2 PUSH1 0x33 PUSH1 0x57 DUP2 GT ISZERO PUSH2 0xA8E4 JUMPI PUSH2 0xA8E3 PUSH2 0xEAFB JUMP JUMPDEST JUMPDEST DUP2 MLOAD DUP2 LT PUSH2 0xA8F5 JUMPI PUSH2 0xA8F4 PUSH2 0xF0D7 JUMP JUMPDEST JUMPDEST PUSH1 0x20 MUL PUSH1 0x20 ADD ADD SWAP1 PUSH2 0xFFFF AND SWAP1 DUP2 PUSH2 0xFFFF AND DUP2 MSTORE POP POP PUSH1 0x5A DUP2 PUSH1 0x34 PUSH1 0x57 DUP2 GT ISZERO PUSH2 0xA922 JUMPI PUSH2 0xA921 PUSH2 0xEAFB JUMP JUMPDEST JUMPDEST DUP2 MLOAD DUP2 LT PUSH2 0xA933 JUMPI PUSH2 0xA932 PUSH2 0xF0D7 JUMP JUMPDEST JUMPDEST PUSH1 0x20 MUL PUSH1 0x20 ADD ADD SWAP1 PUSH2 0xFFFF AND SWAP1 DUP2 PUSH2 0xFFFF AND DUP2 MSTORE POP POP PUSH1 0x4B DUP2 PUSH1 0x35 PUSH1 0x57 DUP2 GT ISZERO PUSH2 0xA960 JUMPI PUSH2 0xA95F PUSH2 0xEAFB JUMP JUMPDEST JUMPDEST DUP2 MLOAD DUP2 LT PUSH2 0xA971 JUMPI PUSH2 0xA970 PUSH2 0xF0D7 JUMP JUMPDEST JUMPDEST PUSH1 0x20 MUL PUSH1 0x20 ADD ADD SWAP1 PUSH2 0xFFFF AND SWAP1 DUP2 PUSH2 0xFFFF AND DUP2 MSTORE POP POP PUSH1 0x37 DUP2 PUSH1 0x36 PUSH1 0x57 DUP2 GT ISZERO PUSH2 0xA99E JUMPI PUSH2 0xA99D PUSH2 0xEAFB JUMP JUMPDEST JUMPDEST DUP2 MLOAD DUP2 LT PUSH2 0xA9AF JUMPI PUSH2 0xA9AE PUSH2 0xF0D7 JUMP JUMPDEST JUMPDEST PUSH1 0x20 MUL PUSH1 0x20 ADD ADD SWAP1 PUSH2 0xFFFF AND SWAP1 DUP2 PUSH2 0xFFFF AND DUP2 MSTORE POP POP PUSH1 0x28 DUP2 PUSH1 0x38 PUSH1 0x57 DUP2 GT ISZERO PUSH2 0xA9DC JUMPI PUSH2 0xA9DB PUSH2 0xEAFB JUMP JUMPDEST JUMPDEST DUP2 MLOAD DUP2 LT PUSH2 0xA9ED JUMPI PUSH2 0xA9EC PUSH2 0xF0D7 JUMP JUMPDEST JUMPDEST PUSH1 0x20 MUL PUSH1 0x20 ADD ADD SWAP1 PUSH2 0xFFFF AND SWAP1 DUP2 PUSH2 0xFFFF AND DUP2 MSTORE POP POP PUSH1 0x14 DUP2 PUSH1 0x37 PUSH1 0x57 DUP2 GT ISZERO PUSH2 0xAA1A JUMPI PUSH2 0xAA19 PUSH2 0xEAFB JUMP JUMPDEST JUMPDEST DUP2 MLOAD DUP2 LT PUSH2 0xAA2B JUMPI PUSH2 0xAA2A PUSH2 0xF0D7 JUMP JUMPDEST JUMPDEST PUSH1 0x20 MUL PUSH1 0x20 ADD ADD SWAP1 PUSH2 0xFFFF AND SWAP1 DUP2 PUSH2 0xFFFF AND DUP2 MSTORE POP POP PUSH1 0x5F DUP2 PUSH1 0x39 PUSH1 0x57 DUP2 GT ISZERO PUSH2 0xAA58 JUMPI PUSH2 0xAA57 PUSH2 0xEAFB JUMP JUMPDEST JUMPDEST DUP2 MLOAD DUP2 LT PUSH2 0xAA69 JUMPI PUSH2 0xAA68 PUSH2 0xF0D7 JUMP JUMPDEST JUMPDEST PUSH1 0x20 MUL PUSH1 0x20 ADD ADD SWAP1 PUSH2 0xFFFF AND SWAP1 DUP2 PUSH2 0xFFFF AND DUP2 MSTORE POP POP PUSH1 0x4B DUP2 PUSH1 0x3A PUSH1 0x57 DUP2 GT ISZERO PUSH2 0xAA96 JUMPI PUSH2 0xAA95 PUSH2 0xEAFB JUMP JUMPDEST JUMPDEST DUP2 MLOAD DUP2 LT PUSH2 0xAAA7 JUMPI PUSH2 0xAAA6 PUSH2 0xF0D7 JUMP JUMPDEST JUMPDEST PUSH1 0x20 MUL PUSH1 0x20 ADD ADD SWAP1 PUSH2 0xFFFF AND SWAP1 DUP2 PUSH2 0xFFFF AND DUP2 MSTORE POP POP PUSH1 0x32 DUP2 PUSH1 0x3B PUSH1 0x57 DUP2 GT ISZERO PUSH2 0xAAD4 JUMPI PUSH2 0xAAD3 PUSH2 0xEAFB JUMP JUMPDEST JUMPDEST DUP2 MLOAD DUP2 LT PUSH2 0xAAE5 JUMPI PUSH2 0xAAE4 PUSH2 0xF0D7 JUMP JUMPDEST JUMPDEST PUSH1 0x20 MUL PUSH1 0x20 ADD ADD SWAP1 PUSH2 0xFFFF AND SWAP1 DUP2 PUSH2 0xFFFF AND DUP2 MSTORE POP POP PUSH1 0x19 DUP2 PUSH1 0x3C PUSH1 0x57 DUP2 GT ISZERO PUSH2 0xAB12 JUMPI PUSH2 0xAB11 PUSH2 0xEAFB JUMP JUMPDEST JUMPDEST DUP2 MLOAD DUP2 LT PUSH2 0xAB23 JUMPI PUSH2 0xAB22 PUSH2 0xF0D7 JUMP JUMPDEST JUMPDEST PUSH1 0x20 MUL PUSH1 0x20 ADD ADD SWAP1 PUSH2 0xFFFF AND SWAP1 DUP2 PUSH2 0xFFFF AND DUP2 MSTORE POP POP PUSH1 0x37 DUP2 PUSH1 0x3D PUSH1 0x57 DUP2 GT ISZERO PUSH2 0xAB50 JUMPI PUSH2 0xAB4F PUSH2 0xEAFB JUMP JUMPDEST JUMPDEST DUP2 MLOAD DUP2 LT PUSH2 0xAB61 JUMPI PUSH2 0xAB60 PUSH2 0xF0D7 JUMP JUMPDEST JUMPDEST PUSH1 0x20 MUL PUSH1 0x20 ADD ADD SWAP1 PUSH2 0xFFFF AND SWAP1 DUP2 PUSH2 0xFFFF AND DUP2 MSTORE POP POP PUSH1 0x2D DUP2 PUSH1 0x3E PUSH1 0x57 DUP2 GT ISZERO PUSH2 0xAB8E JUMPI PUSH2 0xAB8D PUSH2 0xEAFB JUMP JUMPDEST JUMPDEST DUP2 MLOAD DUP2 LT PUSH2 0xAB9F JUMPI PUSH2 0xAB9E PUSH2 0xF0D7 JUMP JUMPDEST JUMPDEST PUSH1 0x20 MUL PUSH1 0x20 ADD ADD SWAP1 PUSH2 0xFFFF AND SWAP1 DUP2 PUSH2 0xFFFF AND DUP2 MSTORE POP POP PUSH1 0x19 DUP2 PUSH1 0x3F PUSH1 0x57 DUP2 GT ISZERO PUSH2 0xABCC JUMPI PUSH2 0xABCB PUSH2 0xEAFB JUMP JUMPDEST JUMPDEST DUP2 MLOAD DUP2 LT PUSH2 0xABDD JUMPI PUSH2 0xABDC PUSH2 0xF0D7 JUMP JUMPDEST JUMPDEST PUSH1 0x20 MUL PUSH1 0x20 ADD ADD SWAP1 PUSH2 0xFFFF AND SWAP1 DUP2 PUSH2 0xFFFF AND DUP2 MSTORE POP POP PUSH1 0xF DUP2 PUSH1 0x40 PUSH1 0x57 DUP2 GT ISZERO PUSH2 0xAC0A JUMPI PUSH2 0xAC09 PUSH2 0xEAFB JUMP JUMPDEST JUMPDEST DUP2 MLOAD DUP2 LT PUSH2 0xAC1B JUMPI PUSH2 0xAC1A PUSH2 0xF0D7 JUMP JUMPDEST JUMPDEST PUSH1 0x20 MUL PUSH1 0x20 ADD ADD SWAP1 PUSH2 0xFFFF AND SWAP1 DUP2 PUSH2 0xFFFF AND DUP2 MSTORE POP POP PUSH1 0x2D DUP2 PUSH1 0x41 PUSH1 0x57 DUP2 GT ISZERO PUSH2 0xAC48 JUMPI PUSH2 0xAC47 PUSH2 0xEAFB JUMP JUMPDEST JUMPDEST DUP2 MLOAD DUP2 LT PUSH2 0xAC59 JUMPI PUSH2 0xAC58 PUSH2 0xF0D7 JUMP JUMPDEST JUMPDEST PUSH1 0x20 MUL PUSH1 0x20 ADD ADD SWAP1 PUSH2 0xFFFF AND SWAP1 DUP2 PUSH2 0xFFFF AND DUP2 MSTORE POP POP PUSH1 0x23 DUP2 PUSH1 0x42 PUSH1 0x57 DUP2 GT ISZERO PUSH2 0xAC86 JUMPI PUSH2 0xAC85 PUSH2 0xEAFB JUMP JUMPDEST JUMPDEST DUP2 MLOAD DUP2 LT PUSH2 0xAC97 JUMPI PUSH2 0xAC96 PUSH2 0xF0D7 JUMP JUMPDEST JUMPDEST PUSH1 0x20 MUL PUSH1 0x20 ADD ADD SWAP1 PUSH2 0xFFFF AND SWAP1 DUP2 PUSH2 0xFFFF AND DUP2 MSTORE POP POP PUSH1 0x19 DUP2 PUSH1 0x43 PUSH1 0x57 DUP2 GT ISZERO PUSH2 0xACC4 JUMPI PUSH2 0xACC3 PUSH2 0xEAFB JUMP JUMPDEST JUMPDEST DUP2 MLOAD DUP2 LT PUSH2 0xACD5 JUMPI PUSH2 0xACD4 PUSH2 0xF0D7 JUMP JUMPDEST JUMPDEST PUSH1 0x20 MUL PUSH1 0x20 ADD ADD SWAP1 PUSH2 0xFFFF AND SWAP1 DUP2 PUSH2 0xFFFF AND DUP2 MSTORE POP POP PUSH1 0xF DUP2 PUSH1 0x44 PUSH1 0x57 DUP2 GT ISZERO PUSH2 0xAD02 JUMPI PUSH2 0xAD01 PUSH2 0xEAFB JUMP JUMPDEST JUMPDEST DUP2 MLOAD DUP2 LT PUSH2 0xAD13 JUMPI PUSH2 0xAD12 PUSH2 0xF0D7 JUMP JUMPDEST JUMPDEST PUSH1 0x20 MUL PUSH1 0x20 ADD ADD SWAP1 PUSH2 0xFFFF AND SWAP1 DUP2 PUSH2 0xFFFF AND DUP2 MSTORE POP POP PUSH1 0x82 DUP2 PUSH1 0x45 PUSH1 0x57 DUP2 GT ISZERO PUSH2 0xAD40 JUMPI PUSH2 0xAD3F PUSH2 0xEAFB JUMP JUMPDEST JUMPDEST DUP2 MLOAD DUP2 LT PUSH2 0xAD51 JUMPI PUSH2 0xAD50 PUSH2 0xF0D7 JUMP JUMPDEST JUMPDEST PUSH1 0x20 MUL PUSH1 0x20 ADD ADD SWAP1 PUSH2 0xFFFF AND SWAP1 DUP2 PUSH2 0xFFFF AND DUP2 MSTORE POP POP PUSH1 0x69 DUP2 PUSH1 0x46 PUSH1 0x57 DUP2 GT ISZERO PUSH2 0xAD7E JUMPI PUSH2 0xAD7D PUSH2 0xEAFB JUMP JUMPDEST JUMPDEST DUP2 MLOAD DUP2 LT PUSH2 0xAD8F JUMPI PUSH2 0xAD8E PUSH2 0xF0D7 JUMP JUMPDEST JUMPDEST PUSH1 0x20 MUL PUSH1 0x20 ADD ADD SWAP1 PUSH2 0xFFFF AND SWAP1 DUP2 PUSH2 0xFFFF AND DUP2 MSTORE POP POP PUSH1 0x50 DUP2 PUSH1 0x47 PUSH1 0x57 DUP2 GT ISZERO PUSH2 0xADBC JUMPI PUSH2 0xADBB PUSH2 0xEAFB JUMP JUMPDEST JUMPDEST DUP2 MLOAD DUP2 LT PUSH2 0xADCD JUMPI PUSH2 0xADCC PUSH2 0xF0D7 JUMP JUMPDEST JUMPDEST PUSH1 0x20 MUL PUSH1 0x20 ADD ADD SWAP1 PUSH2 0xFFFF AND SWAP1 DUP2 PUSH2 0xFFFF AND DUP2 MSTORE POP POP PUSH1 0x37 DUP2 PUSH1 0x49 PUSH1 0x57 DUP2 GT ISZERO PUSH2 0xADFA JUMPI PUSH2 0xADF9 PUSH2 0xEAFB JUMP JUMPDEST JUMPDEST DUP2 MLOAD DUP2 LT PUSH2 0xAE0B JUMPI PUSH2 0xAE0A PUSH2 0xF0D7 JUMP JUMPDEST JUMPDEST PUSH1 0x20 MUL PUSH1 0x20 ADD ADD SWAP1 PUSH2 0xFFFF AND SWAP1 DUP2 PUSH2 0xFFFF AND DUP2 MSTORE POP POP PUSH1 0x23 DUP2 PUSH1 0x48 PUSH1 0x57 DUP2 GT ISZERO PUSH2 0xAE38 JUMPI PUSH2 0xAE37 PUSH2 0xEAFB JUMP JUMPDEST JUMPDEST DUP2 MLOAD DUP2 LT PUSH2 0xAE49 JUMPI PUSH2 0xAE48 PUSH2 0xF0D7 JUMP JUMPDEST JUMPDEST PUSH1 0x20 MUL PUSH1 0x20 ADD ADD SWAP1 PUSH2 0xFFFF AND SWAP1 DUP2 PUSH2 0xFFFF AND DUP2 MSTORE POP POP PUSH1 0x5F DUP2 PUSH1 0x4A PUSH1 0x57 DUP2 GT ISZERO PUSH2 0xAE76 JUMPI PUSH2 0xAE75 PUSH2 0xEAFB JUMP JUMPDEST JUMPDEST DUP2 MLOAD DUP2 LT PUSH2 0xAE87 JUMPI PUSH2 0xAE86 PUSH2 0xF0D7 JUMP JUMPDEST JUMPDEST PUSH1 0x20 MUL PUSH1 0x20 ADD ADD SWAP1 PUSH2 0xFFFF AND SWAP1 DUP2 PUSH2 0xFFFF AND DUP2 MSTORE POP POP PUSH1 0x4B DUP2 PUSH1 0x4B PUSH1 0x57 DUP2 GT ISZERO PUSH2 0xAEB4 JUMPI PUSH2 0xAEB3 PUSH2 0xEAFB JUMP JUMPDEST JUMPDEST DUP2 MLOAD DUP2 LT PUSH2 0xAEC5 JUMPI PUSH2 0xAEC4 PUSH2 0xF0D7 JUMP JUMPDEST JUMPDEST PUSH1 0x20 MUL PUSH1 0x20 ADD ADD SWAP1 PUSH2 0xFFFF AND SWAP1 DUP2 PUSH2 0xFFFF AND DUP2 MSTORE POP POP PUSH1 0x3C DUP2 PUSH1 0x4C PUSH1 0x57 DUP2 GT ISZERO PUSH2 0xAEF2 JUMPI PUSH2 0xAEF1 PUSH2 0xEAFB JUMP JUMPDEST JUMPDEST DUP2 MLOAD DUP2 LT PUSH2 0xAF03 JUMPI PUSH2 0xAF02 PUSH2 0xF0D7 JUMP JUMPDEST JUMPDEST PUSH1 0x20 MUL PUSH1 0x20 ADD ADD SWAP1 PUSH2 0xFFFF AND SWAP1 DUP2 PUSH2 0xFFFF AND DUP2 MSTORE POP POP PUSH1 0x2D DUP2 PUSH1 0x4E PUSH1 0x57 DUP2 GT ISZERO PUSH2 0xAF30 JUMPI PUSH2 0xAF2F PUSH2 0xEAFB JUMP JUMPDEST JUMPDEST DUP2 MLOAD DUP2 LT PUSH2 0xAF41 JUMPI PUSH2 0xAF40 PUSH2 0xF0D7 JUMP JUMPDEST JUMPDEST PUSH1 0x20 MUL PUSH1 0x20 ADD ADD SWAP1 PUSH2 0xFFFF AND SWAP1 DUP2 PUSH2 0xFFFF AND DUP2 MSTORE POP POP PUSH1 0x19 DUP2 PUSH1 0x4D PUSH1 0x57 DUP2 GT ISZERO PUSH2 0xAF6E JUMPI PUSH2 0xAF6D PUSH2 0xEAFB JUMP JUMPDEST JUMPDEST DUP2 MLOAD DUP2 LT PUSH2 0xAF7F JUMPI PUSH2 0xAF7E PUSH2 0xF0D7 JUMP JUMPDEST JUMPDEST PUSH1 0x20 MUL PUSH1 0x20 ADD ADD SWAP1 PUSH2 0xFFFF AND SWAP1 DUP2 PUSH2 0xFFFF AND DUP2 MSTORE POP POP PUSH1 0x3C DUP2 PUSH1 0x4F PUSH1 0x57 DUP2 GT ISZERO PUSH2 0xAFAC JUMPI PUSH2 0xAFAB PUSH2 0xEAFB JUMP JUMPDEST JUMPDEST DUP2 MLOAD DUP2 LT PUSH2 0xAFBD JUMPI PUSH2 0xAFBC PUSH2 0xF0D7 JUMP JUMPDEST JUMPDEST PUSH1 0x20 MUL PUSH1 0x20 ADD ADD SWAP1 PUSH2 0xFFFF AND SWAP1 DUP2 PUSH2 0xFFFF AND DUP2 MSTORE POP POP PUSH1 0x2D DUP2 PUSH1 0x50 PUSH1 0x57 DUP2 GT ISZERO PUSH2 0xAFEA JUMPI PUSH2 0xAFE9 PUSH2 0xEAFB JUMP JUMPDEST JUMPDEST DUP2 MLOAD DUP2 LT PUSH2 0xAFFB JUMPI PUSH2 0xAFFA PUSH2 0xF0D7 JUMP JUMPDEST JUMPDEST PUSH1 0x20 MUL PUSH1 0x20 ADD ADD SWAP1 PUSH2 0xFFFF AND SWAP1 DUP2 PUSH2 0xFFFF AND DUP2 MSTORE POP POP PUSH1 0x1E DUP2 PUSH1 0x51 PUSH1 0x57 DUP2 GT ISZERO PUSH2 0xB028 JUMPI PUSH2 0xB027 PUSH2 0xEAFB JUMP JUMPDEST JUMPDEST DUP2 MLOAD DUP2 LT PUSH2 0xB039 JUMPI PUSH2 0xB038 PUSH2 0xF0D7 JUMP JUMPDEST JUMPDEST PUSH1 0x20 MUL PUSH1 0x20 ADD ADD SWAP1 PUSH2 0xFFFF AND SWAP1 DUP2 PUSH2 0xFFFF AND DUP2 MSTORE POP POP PUSH1 0x14 DUP2 PUSH1 0x52 PUSH1 0x57 DUP2 GT ISZERO PUSH2 0xB066 JUMPI PUSH2 0xB065 PUSH2 0xEAFB JUMP JUMPDEST JUMPDEST DUP2 MLOAD DUP2 LT PUSH2 0xB077 JUMPI PUSH2 0xB076 PUSH2 0xF0D7 JUMP JUMPDEST JUMPDEST PUSH1 0x20 MUL PUSH1 0x20 ADD ADD SWAP1 PUSH2 0xFFFF AND SWAP1 DUP2 PUSH2 0xFFFF AND DUP2 MSTORE POP POP PUSH1 0x41 DUP2 PUSH1 0x53 PUSH1 0x57 DUP2 GT ISZERO PUSH2 0xB0A4 JUMPI PUSH2 0xB0A3 PUSH2 0xEAFB JUMP JUMPDEST JUMPDEST DUP2 MLOAD DUP2 LT PUSH2 0xB0B5 JUMPI PUSH2 0xB0B4 PUSH2 0xF0D7 JUMP JUMPDEST JUMPDEST PUSH1 0x20 MUL PUSH1 0x20 ADD ADD SWAP1 PUSH2 0xFFFF AND SWAP1 DUP2 PUSH2 0xFFFF AND DUP2 MSTORE POP POP PUSH1 0x37 DUP2 PUSH1 0x54 PUSH1 0x57 DUP2 GT ISZERO PUSH2 0xB0E2 JUMPI PUSH2 0xB0E1 PUSH2 0xEAFB JUMP JUMPDEST JUMPDEST DUP2 MLOAD DUP2 LT PUSH2 0xB0F3 JUMPI PUSH2 0xB0F2 PUSH2 0xF0D7 JUMP JUMPDEST JUMPDEST PUSH1 0x20 MUL PUSH1 0x20 ADD ADD SWAP1 PUSH2 0xFFFF AND SWAP1 DUP2 PUSH2 0xFFFF AND DUP2 MSTORE POP POP PUSH1 0x28 DUP2 PUSH1 0x55 PUSH1 0x57 DUP2 GT ISZERO PUSH2 0xB120 JUMPI PUSH2 0xB11F PUSH2 0xEAFB JUMP JUMPDEST JUMPDEST DUP2 MLOAD DUP2 LT PUSH2 0xB131 JUMPI PUSH2 0xB130 PUSH2 0xF0D7 JUMP JUMPDEST JUMPDEST PUSH1 0x20 MUL PUSH1 0x20 ADD ADD SWAP1 PUSH2 0xFFFF AND SWAP1 DUP2 PUSH2 0xFFFF AND DUP2 MSTORE POP POP PUSH1 0x1E DUP2 PUSH1 0x57 DUP1 DUP2 GT ISZERO PUSH2 0xB15D JUMPI PUSH2 0xB15C PUSH2 0xEAFB JUMP JUMPDEST JUMPDEST DUP2 MLOAD DUP2 LT PUSH2 0xB16E JUMPI PUSH2 0xB16D PUSH2 0xF0D7 JUMP JUMPDEST JUMPDEST PUSH1 0x20 MUL PUSH1 0x20 ADD ADD SWAP1 PUSH2 0xFFFF AND SWAP1 DUP2 PUSH2 0xFFFF AND DUP2 MSTORE POP POP PUSH1 0x14 DUP2 PUSH1 0x56 PUSH1 0x57 DUP2 GT ISZERO PUSH2 0xB19B JUMPI PUSH2 0xB19A PUSH2 0xEAFB JUMP JUMPDEST JUMPDEST DUP2 MLOAD DUP2 LT PUSH2 0xB1AC JUMPI PUSH2 0xB1AB PUSH2 0xF0D7 JUMP JUMPDEST JUMPDEST PUSH1 0x20 MUL PUSH1 0x20 ADD ADD SWAP1 PUSH2 0xFFFF AND SWAP1 DUP2 PUSH2 0xFFFF AND DUP2 MSTORE POP POP JUMPDEST PUSH0 PUSH2 0xB1CE DUP5 DUP4 PUSH2 0xE0C9 JUMP JUMPDEST SWAP1 POP DUP1 PUSH1 0x57 DUP2 GT ISZERO PUSH2 0xB1E3 JUMPI PUSH2 0xB1E2 PUSH2 0xEAFB JUMP JUMPDEST JUMPDEST SWAP3 POP POP POP JUMPDEST SWAP3 SWAP2 POP POP JUMP JUMPDEST PUSH0 PUSH0 PUSH1 0x6A PUSH8 0xFFFFFFFFFFFFFFFF DUP2 GT ISZERO PUSH2 0xB20B JUMPI PUSH2 0xB20A PUSH2 0xE9D4 JUMP JUMPDEST JUMPDEST PUSH1 0x40 MLOAD SWAP1 DUP1 DUP3 MSTORE DUP1 PUSH1 0x20 MUL PUSH1 0x20 ADD DUP3 ADD PUSH1 0x40 MSTORE DUP1 ISZERO PUSH2 0xB239 JUMPI DUP2 PUSH1 0x20 ADD PUSH1 0x20 DUP3 MUL DUP1 CALLDATASIZE DUP4 CALLDATACOPY DUP1 DUP3 ADD SWAP2 POP POP SWAP1 POP JUMPDEST POP SWAP1 POP PUSH2 0xB24E DUP5 PUSH2 0xB249 SWAP1 PUSH2 0xFA46 JUMP JUMPDEST PUSH2 0xE219 JUMP JUMPDEST DUP1 PUSH2 0xB267 JUMPI POP PUSH2 0xB266 DUP5 PUSH2 0xB261 SWAP1 PUSH2 0xFA46 JUMP JUMPDEST PUSH2 0xE24E JUMP JUMPDEST JUMPDEST DUP1 PUSH2 0xB280 JUMPI POP PUSH2 0xB27F DUP5 PUSH2 0xB27A SWAP1 PUSH2 0xFA46 JUMP JUMPDEST PUSH2 0xE283 JUMP JUMPDEST JUMPDEST ISZERO PUSH2 0xB28E JUMPI PUSH0 SWAP2 POP POP PUSH2 0xCCD4 JUMP JUMPDEST PUSH2 0xB2A0 DUP5 PUSH2 0xB29B SWAP1 PUSH2 0xFA46 JUMP JUMPDEST PUSH2 0xE16C JUMP JUMPDEST DUP1 PUSH2 0xB2B9 JUMPI POP PUSH2 0xB2B8 DUP5 PUSH2 0xB2B3 SWAP1 PUSH2 0xFA46 JUMP JUMPDEST PUSH2 0xE1E4 JUMP JUMPDEST JUMPDEST ISZERO PUSH2 0xB301 JUMPI PUSH2 0x190 DUP2 PUSH0 PUSH1 0x69 DUP2 GT ISZERO PUSH2 0xB2D5 JUMPI PUSH2 0xB2D4 PUSH2 0xEAFB JUMP JUMPDEST JUMPDEST DUP2 MLOAD DUP2 LT PUSH2 0xB2E6 JUMPI PUSH2 0xB2E5 PUSH2 0xF0D7 JUMP JUMPDEST JUMPDEST PUSH1 0x20 MUL PUSH1 0x20 ADD ADD SWAP1 PUSH2 0xFFFF AND SWAP1 DUP2 PUSH2 0xFFFF AND DUP2 MSTORE POP POP PUSH2 0xB340 JUMP JUMPDEST PUSH2 0x320 DUP2 PUSH0 PUSH1 0x69 DUP2 GT ISZERO PUSH2 0xB318 JUMPI PUSH2 0xB317 PUSH2 0xEAFB JUMP JUMPDEST JUMPDEST DUP2 MLOAD DUP2 LT PUSH2 0xB329 JUMPI PUSH2 0xB328 PUSH2 0xF0D7 JUMP JUMPDEST JUMPDEST PUSH1 0x20 MUL PUSH1 0x20 ADD ADD SWAP1 PUSH2 0xFFFF AND SWAP1 DUP2 PUSH2 0xFFFF AND DUP2 MSTORE POP POP JUMPDEST PUSH1 0xFA DUP2 PUSH1 0xB PUSH1 0x69 DUP2 GT ISZERO PUSH2 0xB357 JUMPI PUSH2 0xB356 PUSH2 0xEAFB JUMP JUMPDEST JUMPDEST DUP2 MLOAD DUP2 LT PUSH2 0xB368 JUMPI PUSH2 0xB367 PUSH2 0xF0D7 JUMP JUMPDEST JUMPDEST PUSH1 0x20 MUL PUSH1 0x20 ADD ADD SWAP1 PUSH2 0xFFFF AND SWAP1 DUP2 PUSH2 0xFFFF AND DUP2 MSTORE POP POP PUSH1 0xE1 DUP2 PUSH1 0x9 PUSH1 0x69 DUP2 GT ISZERO PUSH2 0xB395 JUMPI PUSH2 0xB394 PUSH2 0xEAFB JUMP JUMPDEST JUMPDEST DUP2 MLOAD DUP2 LT PUSH2 0xB3A6 JUMPI PUSH2 0xB3A5 PUSH2 0xF0D7 JUMP JUMPDEST JUMPDEST PUSH1 0x20 MUL PUSH1 0x20 ADD ADD SWAP1 PUSH2 0xFFFF AND SWAP1 DUP2 PUSH2 0xFFFF AND DUP2 MSTORE POP POP PUSH1 0xC8 DUP2 PUSH1 0x6 PUSH1 0x69 DUP2 GT ISZERO PUSH2 0xB3D3 JUMPI PUSH2 0xB3D2 PUSH2 0xEAFB JUMP JUMPDEST JUMPDEST DUP2 MLOAD DUP2 LT PUSH2 0xB3E4 JUMPI PUSH2 0xB3E3 PUSH2 0xF0D7 JUMP JUMPDEST JUMPDEST PUSH1 0x20 MUL PUSH1 0x20 ADD ADD SWAP1 PUSH2 0xFFFF AND SWAP1 DUP2 PUSH2 0xFFFF AND DUP2 MSTORE POP POP PUSH1 0xB9 DUP2 PUSH1 0x8 PUSH1 0x69 DUP2 GT ISZERO PUSH2 0xB411 JUMPI PUSH2 0xB410 PUSH2 0xEAFB JUMP JUMPDEST JUMPDEST DUP2 MLOAD DUP2 LT PUSH2 0xB422 JUMPI PUSH2 0xB421 PUSH2 0xF0D7 JUMP JUMPDEST JUMPDEST PUSH1 0x20 MUL PUSH1 0x20 ADD ADD SWAP1 PUSH2 0xFFFF AND SWAP1 DUP2 PUSH2 0xFFFF AND DUP2 MSTORE POP POP PUSH1 0xAF DUP2 PUSH1 0x7 PUSH1 0x69 DUP2 GT ISZERO PUSH2 0xB44F JUMPI PUSH2 0xB44E PUSH2 0xEAFB JUMP JUMPDEST JUMPDEST DUP2 MLOAD DUP2 LT PUSH2 0xB460 JUMPI PUSH2 0xB45F PUSH2 0xF0D7 JUMP JUMPDEST JUMPDEST PUSH1 0x20 MUL PUSH1 0x20 ADD ADD SWAP1 PUSH2 0xFFFF AND SWAP1 DUP2 PUSH2 0xFFFF AND DUP2 MSTORE POP POP PUSH1 0xA5 DUP2 PUSH1 0xA PUSH1 0x69 DUP2 GT ISZERO PUSH2 0xB48D JUMPI PUSH2 0xB48C PUSH2 0xEAFB JUMP JUMPDEST JUMPDEST DUP2 MLOAD DUP2 LT PUSH2 0xB49E JUMPI PUSH2 0xB49D PUSH2 0xF0D7 JUMP JUMPDEST JUMPDEST PUSH1 0x20 MUL PUSH1 0x20 ADD ADD SWAP1 PUSH2 0xFFFF AND SWAP1 DUP2 PUSH2 0xFFFF AND DUP2 MSTORE POP POP PUSH2 0x4B0 DUP2 PUSH1 0x3F PUSH1 0x69 DUP2 GT ISZERO PUSH2 0xB4CC JUMPI PUSH2 0xB4CB PUSH2 0xEAFB JUMP JUMPDEST JUMPDEST DUP2 MLOAD DUP2 LT PUSH2 0xB4DD JUMPI PUSH2 0xB4DC PUSH2 0xF0D7 JUMP JUMPDEST JUMPDEST PUSH1 0x20 MUL PUSH1 0x20 ADD ADD SWAP1 PUSH2 0xFFFF AND SWAP1 DUP2 PUSH2 0xFFFF AND DUP2 MSTORE POP POP PUSH2 0x4B0 DUP2 PUSH1 0x4C PUSH1 0x69 DUP2 GT ISZERO PUSH2 0xB50B JUMPI PUSH2 0xB50A PUSH2 0xEAFB JUMP JUMPDEST JUMPDEST DUP2 MLOAD DUP2 LT PUSH2 0xB51C JUMPI PUSH2 0xB51B PUSH2 0xF0D7 JUMP JUMPDEST JUMPDEST PUSH1 0x20 MUL PUSH1 0x20 ADD ADD SWAP1 PUSH2 0xFFFF AND SWAP1 DUP2 PUSH2 0xFFFF AND DUP2 MSTORE POP POP PUSH1 0xC8 DUP2 PUSH1 0xC PUSH1 0x69 DUP2 GT ISZERO PUSH2 0xB549 JUMPI PUSH2 0xB548 PUSH2 0xEAFB JUMP JUMPDEST JUMPDEST DUP2 MLOAD DUP2 LT PUSH2 0xB55A JUMPI PUSH2 0xB559 PUSH2 0xF0D7 JUMP JUMPDEST JUMPDEST PUSH1 0x20 MUL PUSH1 0x20 ADD ADD SWAP1 PUSH2 0xFFFF AND SWAP1 DUP2 PUSH2 0xFFFF AND DUP2 MSTORE POP POP PUSH1 0xAF DUP2 PUSH1 0xF PUSH1 0x69 DUP2 GT ISZERO PUSH2 0xB587 JUMPI PUSH2 0xB586 PUSH2 0xEAFB JUMP JUMPDEST JUMPDEST DUP2 MLOAD DUP2 LT PUSH2 0xB598 JUMPI PUSH2 0xB597 PUSH2 0xF0D7 JUMP JUMPDEST JUMPDEST PUSH1 0x20 MUL PUSH1 0x20 ADD ADD SWAP1 PUSH2 0xFFFF AND SWAP1 DUP2 PUSH2 0xFFFF AND DUP2 MSTORE POP POP PUSH1 0x96 DUP2 PUSH1 0xD PUSH1 0x69 DUP2 GT ISZERO PUSH2 0xB5C5 JUMPI PUSH2 0xB5C4 PUSH2 0xEAFB JUMP JUMPDEST JUMPDEST DUP2 MLOAD DUP2 LT PUSH2 0xB5D6 JUMPI PUSH2 0xB5D5 PUSH2 0xF0D7 JUMP JUMPDEST JUMPDEST PUSH1 0x20 MUL PUSH1 0x20 ADD ADD SWAP1 PUSH2 0xFFFF AND SWAP1 DUP2 PUSH2 0xFFFF AND DUP2 MSTORE POP POP PUSH1 0x75 DUP2 PUSH1 0x10 PUSH1 0x69 DUP2 GT ISZERO PUSH2 0xB603 JUMPI PUSH2 0xB602 PUSH2 0xEAFB JUMP JUMPDEST JUMPDEST DUP2 MLOAD DUP2 LT PUSH2 0xB614 JUMPI PUSH2 0xB613 PUSH2 0xF0D7 JUMP JUMPDEST JUMPDEST PUSH1 0x20 MUL PUSH1 0x20 ADD ADD SWAP1 PUSH2 0xFFFF AND SWAP1 DUP2 PUSH2 0xFFFF AND DUP2 MSTORE POP POP PUSH1 0x1A DUP2 PUSH1 0xE PUSH1 0x69 DUP2 GT ISZERO PUSH2 0xB641 JUMPI PUSH2 0xB640 PUSH2 0xEAFB JUMP JUMPDEST JUMPDEST DUP2 MLOAD DUP2 LT PUSH2 0xB652 JUMPI PUSH2 0xB651 PUSH2 0xF0D7 JUMP JUMPDEST JUMPDEST PUSH1 0x20 MUL PUSH1 0x20 ADD ADD SWAP1 PUSH2 0xFFFF AND SWAP1 DUP2 PUSH2 0xFFFF AND DUP2 MSTORE POP POP PUSH1 0x1A DUP2 PUSH1 0x11 PUSH1 0x69 DUP2 GT ISZERO PUSH2 0xB67F JUMPI PUSH2 0xB67E PUSH2 0xEAFB JUMP JUMPDEST JUMPDEST DUP2 MLOAD DUP2 LT PUSH2 0xB690 JUMPI PUSH2 0xB68F PUSH2 0xF0D7 JUMP JUMPDEST JUMPDEST PUSH1 0x20 MUL PUSH1 0x20 ADD ADD SWAP1 PUSH2 0xFFFF AND SWAP1 DUP2 PUSH2 0xFFFF AND DUP2 MSTORE POP POP PUSH1 0x1A DUP2 PUSH1 0x12 PUSH1 0x69 DUP2 GT ISZERO PUSH2 0xB6BD JUMPI PUSH2 0xB6BC PUSH2 0xEAFB JUMP JUMPDEST JUMPDEST DUP2 MLOAD DUP2 LT PUSH2 0xB6CE JUMPI PUSH2 0xB6CD PUSH2 0xF0D7 JUMP JUMPDEST JUMPDEST PUSH1 0x20 MUL PUSH1 0x20 ADD ADD SWAP1 PUSH2 0xFFFF AND SWAP1 DUP2 PUSH2 0xFFFF AND DUP2 MSTORE POP POP PUSH1 0x1A DUP2 PUSH1 0x13 PUSH1 0x69 DUP2 GT ISZERO PUSH2 0xB6FB JUMPI PUSH2 0xB6FA PUSH2 0xEAFB JUMP JUMPDEST JUMPDEST DUP2 MLOAD DUP2 LT PUSH2 0xB70C JUMPI PUSH2 0xB70B PUSH2 0xF0D7 JUMP JUMPDEST JUMPDEST PUSH1 0x20 MUL PUSH1 0x20 ADD ADD SWAP1 PUSH2 0xFFFF AND SWAP1 DUP2 PUSH2 0xFFFF AND DUP2 MSTORE POP POP PUSH1 0x1A DUP2 PUSH1 0x14 PUSH1 0x69 DUP2 GT ISZERO PUSH2 0xB739 JUMPI PUSH2 0xB738 PUSH2 0xEAFB JUMP JUMPDEST JUMPDEST DUP2 MLOAD DUP2 LT PUSH2 0xB74A JUMPI PUSH2 0xB749 PUSH2 0xF0D7 JUMP JUMPDEST JUMPDEST PUSH1 0x20 MUL PUSH1 0x20 ADD ADD SWAP1 PUSH2 0xFFFF AND SWAP1 DUP2 PUSH2 0xFFFF AND DUP2 MSTORE POP POP PUSH1 0x1A DUP2 PUSH1 0x15 PUSH1 0x69 DUP2 GT ISZERO PUSH2 0xB777 JUMPI PUSH2 0xB776 PUSH2 0xEAFB JUMP JUMPDEST JUMPDEST DUP2 MLOAD DUP2 LT PUSH2 0xB788 JUMPI PUSH2 0xB787 PUSH2 0xF0D7 JUMP JUMPDEST JUMPDEST PUSH1 0x20 MUL PUSH1 0x20 ADD ADD SWAP1 PUSH2 0xFFFF AND SWAP1 DUP2 PUSH2 0xFFFF AND DUP2 MSTORE POP POP PUSH1 0x1A DUP2 PUSH1 0x16 PUSH1 0x69 DUP2 GT ISZERO PUSH2 0xB7B5 JUMPI PUSH2 0xB7B4 PUSH2 0xEAFB JUMP JUMPDEST JUMPDEST DUP2 MLOAD DUP2 LT PUSH2 0xB7C6 JUMPI PUSH2 0xB7C5 PUSH2 0xF0D7 JUMP JUMPDEST JUMPDEST PUSH1 0x20 MUL PUSH1 0x20 ADD ADD SWAP1 PUSH2 0xFFFF AND SWAP1 DUP2 PUSH2 0xFFFF AND DUP2 MSTORE POP POP PUSH1 0x1A DUP2 PUSH1 0x17 PUSH1 0x69 DUP2 GT ISZERO PUSH2 0xB7F3 JUMPI PUSH2 0xB7F2 PUSH2 0xEAFB JUMP JUMPDEST JUMPDEST DUP2 MLOAD DUP2 LT PUSH2 0xB804 JUMPI PUSH2 0xB803 PUSH2 0xF0D7 JUMP JUMPDEST JUMPDEST PUSH1 0x20 MUL PUSH1 0x20 ADD ADD SWAP1 PUSH2 0xFFFF AND SWAP1 DUP2 PUSH2 0xFFFF AND DUP2 MSTORE POP POP PUSH1 0xC8 DUP2 PUSH1 0x30 PUSH1 0x69 DUP2 GT ISZERO PUSH2 0xB831 JUMPI PUSH2 0xB830 PUSH2 0xEAFB JUMP JUMPDEST JUMPDEST DUP2 MLOAD DUP2 LT PUSH2 0xB842 JUMPI PUSH2 0xB841 PUSH2 0xF0D7 JUMP JUMPDEST JUMPDEST PUSH1 0x20 MUL PUSH1 0x20 ADD ADD SWAP1 PUSH2 0xFFFF AND SWAP1 DUP2 PUSH2 0xFFFF AND DUP2 MSTORE POP POP PUSH1 0xB4 DUP2 PUSH1 0x33 PUSH1 0x69 DUP2 GT ISZERO PUSH2 0xB86F JUMPI PUSH2 0xB86E PUSH2 0xEAFB JUMP JUMPDEST JUMPDEST DUP2 MLOAD DUP2 LT PUSH2 0xB880 JUMPI PUSH2 0xB87F PUSH2 0xF0D7 JUMP JUMPDEST JUMPDEST PUSH1 0x20 MUL PUSH1 0x20 ADD ADD SWAP1 PUSH2 0xFFFF AND SWAP1 DUP2 PUSH2 0xFFFF AND DUP2 MSTORE POP POP PUSH1 0x78 DUP2 PUSH1 0x31 PUSH1 0x69 DUP2 GT ISZERO PUSH2 0xB8AD JUMPI PUSH2 0xB8AC PUSH2 0xEAFB JUMP JUMPDEST JUMPDEST DUP2 MLOAD DUP2 LT PUSH2 0xB8BE JUMPI PUSH2 0xB8BD PUSH2 0xF0D7 JUMP JUMPDEST JUMPDEST PUSH1 0x20 MUL PUSH1 0x20 ADD ADD SWAP1 PUSH2 0xFFFF AND SWAP1 DUP2 PUSH2 0xFFFF AND DUP2 MSTORE POP POP PUSH1 0x64 DUP2 PUSH1 0x34 PUSH1 0x69 DUP2 GT ISZERO PUSH2 0xB8EB JUMPI PUSH2 0xB8EA PUSH2 0xEAFB JUMP JUMPDEST JUMPDEST DUP2 MLOAD DUP2 LT PUSH2 0xB8FC JUMPI PUSH2 0xB8FB PUSH2 0xF0D7 JUMP JUMPDEST JUMPDEST PUSH1 0x20 MUL PUSH1 0x20 ADD ADD SWAP1 PUSH2 0xFFFF AND SWAP1 DUP2 PUSH2 0xFFFF AND DUP2 MSTORE POP POP PUSH1 0x19 DUP2 PUSH1 0x32 PUSH1 0x69 DUP2 GT ISZERO PUSH2 0xB929 JUMPI PUSH2 0xB928 PUSH2 0xEAFB JUMP JUMPDEST JUMPDEST DUP2 MLOAD DUP2 LT PUSH2 0xB93A JUMPI PUSH2 0xB939 PUSH2 0xF0D7 JUMP JUMPDEST JUMPDEST PUSH1 0x20 MUL PUSH1 0x20 ADD ADD SWAP1 PUSH2 0xFFFF AND SWAP1 DUP2 PUSH2 0xFFFF AND DUP2 MSTORE POP POP PUSH1 0x19 DUP2 PUSH1 0x35 PUSH1 0x69 DUP2 GT ISZERO PUSH2 0xB967 JUMPI PUSH2 0xB966 PUSH2 0xEAFB JUMP JUMPDEST JUMPDEST DUP2 MLOAD DUP2 LT PUSH2 0xB978 JUMPI PUSH2 0xB977 PUSH2 0xF0D7 JUMP JUMPDEST JUMPDEST PUSH1 0x20 MUL PUSH1 0x20 ADD ADD SWAP1 PUSH2 0xFFFF AND SWAP1 DUP2 PUSH2 0xFFFF AND DUP2 MSTORE POP POP PUSH1 0x19 DUP2 PUSH1 0x36 PUSH1 0x69 DUP2 GT ISZERO PUSH2 0xB9A5 JUMPI PUSH2 0xB9A4 PUSH2 0xEAFB JUMP JUMPDEST JUMPDEST DUP2 MLOAD DUP2 LT PUSH2 0xB9B6 JUMPI PUSH2 0xB9B5 PUSH2 0xF0D7 JUMP JUMPDEST JUMPDEST PUSH1 0x20 MUL PUSH1 0x20 ADD ADD SWAP1 PUSH2 0xFFFF AND SWAP1 DUP2 PUSH2 0xFFFF AND DUP2 MSTORE POP POP PUSH1 0x19 DUP2 PUSH1 0x37 PUSH1 0x69 DUP2 GT ISZERO PUSH2 0xB9E3 JUMPI PUSH2 0xB9E2 PUSH2 0xEAFB JUMP JUMPDEST JUMPDEST DUP2 MLOAD DUP2 LT PUSH2 0xB9F4 JUMPI PUSH2 0xB9F3 PUSH2 0xF0D7 JUMP JUMPDEST JUMPDEST PUSH1 0x20 MUL PUSH1 0x20 ADD ADD SWAP1 PUSH2 0xFFFF AND SWAP1 DUP2 PUSH2 0xFFFF AND DUP2 MSTORE POP POP PUSH1 0x19 DUP2 PUSH1 0x38 PUSH1 0x69 DUP2 GT ISZERO PUSH2 0xBA21 JUMPI PUSH2 0xBA20 PUSH2 0xEAFB JUMP JUMPDEST JUMPDEST DUP2 MLOAD DUP2 LT PUSH2 0xBA32 JUMPI PUSH2 0xBA31 PUSH2 0xF0D7 JUMP JUMPDEST JUMPDEST PUSH1 0x20 MUL PUSH1 0x20 ADD ADD SWAP1 PUSH2 0xFFFF AND SWAP1 DUP2 PUSH2 0xFFFF AND DUP2 MSTORE POP POP PUSH1 0x19 DUP2 PUSH1 0x39 PUSH1 0x69 DUP2 GT ISZERO PUSH2 0xBA5F JUMPI PUSH2 0xBA5E PUSH2 0xEAFB JUMP JUMPDEST JUMPDEST DUP2 MLOAD DUP2 LT PUSH2 0xBA70 JUMPI PUSH2 0xBA6F PUSH2 0xF0D7 JUMP JUMPDEST JUMPDEST PUSH1 0x20 MUL PUSH1 0x20 ADD ADD SWAP1 PUSH2 0xFFFF AND SWAP1 DUP2 PUSH2 0xFFFF AND DUP2 MSTORE POP POP PUSH1 0x19 DUP2 PUSH1 0x3A PUSH1 0x69 DUP2 GT ISZERO PUSH2 0xBA9D JUMPI PUSH2 0xBA9C PUSH2 0xEAFB JUMP JUMPDEST JUMPDEST DUP2 MLOAD DUP2 LT PUSH2 0xBAAE JUMPI PUSH2 0xBAAD PUSH2 0xF0D7 JUMP JUMPDEST JUMPDEST PUSH1 0x20 MUL PUSH1 0x20 ADD ADD SWAP1 PUSH2 0xFFFF AND SWAP1 DUP2 PUSH2 0xFFFF AND DUP2 MSTORE POP POP PUSH1 0x19 DUP2 PUSH1 0x3B PUSH1 0x69 DUP2 GT ISZERO PUSH2 0xBADB JUMPI PUSH2 0xBADA PUSH2 0xEAFB JUMP JUMPDEST JUMPDEST DUP2 MLOAD DUP2 LT PUSH2 0xBAEC JUMPI PUSH2 0xBAEB PUSH2 0xF0D7 JUMP JUMPDEST JUMPDEST PUSH1 0x20 MUL PUSH1 0x20 ADD ADD SWAP1 PUSH2 0xFFFF AND SWAP1 DUP2 PUSH2 0xFFFF AND DUP2 MSTORE POP POP PUSH1 0xC8 DUP2 PUSH1 0x5E PUSH1 0x69 DUP2 GT ISZERO PUSH2 0xBB19 JUMPI PUSH2 0xBB18 PUSH2 0xEAFB JUMP JUMPDEST JUMPDEST DUP2 MLOAD DUP2 LT PUSH2 0xBB2A JUMPI PUSH2 0xBB29 PUSH2 0xF0D7 JUMP JUMPDEST JUMPDEST PUSH1 0x20 MUL PUSH1 0x20 ADD ADD SWAP1 PUSH2 0xFFFF AND SWAP1 DUP2 PUSH2 0xFFFF AND DUP2 MSTORE POP POP PUSH1 0xB4 DUP2 PUSH1 0x5F PUSH1 0x69 DUP2 GT ISZERO PUSH2 0xBB57 JUMPI PUSH2 0xBB56 PUSH2 0xEAFB JUMP JUMPDEST JUMPDEST DUP2 MLOAD DUP2 LT PUSH2 0xBB68 JUMPI PUSH2 0xBB67 PUSH2 0xF0D7 JUMP JUMPDEST JUMPDEST PUSH1 0x20 MUL PUSH1 0x20 ADD ADD SWAP1 PUSH2 0xFFFF AND SWAP1 DUP2 PUSH2 0xFFFF AND DUP2 MSTORE POP POP PUSH1 0x78 DUP2 PUSH1 0x61 PUSH1 0x69 DUP2 GT ISZERO PUSH2 0xBB95 JUMPI PUSH2 0xBB94 PUSH2 0xEAFB JUMP JUMPDEST JUMPDEST DUP2 MLOAD DUP2 LT PUSH2 0xBBA6 JUMPI PUSH2 0xBBA5 PUSH2 0xF0D7 JUMP JUMPDEST JUMPDEST PUSH1 0x20 MUL PUSH1 0x20 ADD ADD SWAP1 PUSH2 0xFFFF AND SWAP1 DUP2 PUSH2 0xFFFF AND DUP2 MSTORE POP POP PUSH1 0x64 DUP2 PUSH1 0x62 PUSH1 0x69 DUP2 GT ISZERO PUSH2 0xBBD3 JUMPI PUSH2 0xBBD2 PUSH2 0xEAFB JUMP JUMPDEST JUMPDEST DUP2 MLOAD DUP2 LT PUSH2 0xBBE4 JUMPI PUSH2 0xBBE3 PUSH2 0xF0D7 JUMP JUMPDEST JUMPDEST PUSH1 0x20 MUL PUSH1 0x20 ADD ADD SWAP1 PUSH2 0xFFFF AND SWAP1 DUP2 PUSH2 0xFFFF AND DUP2 MSTORE POP POP PUSH1 0x19 DUP2 PUSH1 0x60 PUSH1 0x69 DUP2 GT ISZERO PUSH2 0xBC11 JUMPI PUSH2 0xBC10 PUSH2 0xEAFB JUMP JUMPDEST JUMPDEST DUP2 MLOAD DUP2 LT PUSH2 0xBC22 JUMPI PUSH2 0xBC21 PUSH2 0xF0D7 JUMP JUMPDEST JUMPDEST PUSH1 0x20 MUL PUSH1 0x20 ADD ADD SWAP1 PUSH2 0xFFFF AND SWAP1 DUP2 PUSH2 0xFFFF AND DUP2 MSTORE POP POP PUSH1 0x19 DUP2 PUSH1 0x63 PUSH1 0x69 DUP2 GT ISZERO PUSH2 0xBC4F JUMPI PUSH2 0xBC4E PUSH2 0xEAFB JUMP JUMPDEST JUMPDEST DUP2 MLOAD DUP2 LT PUSH2 0xBC60 JUMPI PUSH2 0xBC5F PUSH2 0xF0D7 JUMP JUMPDEST JUMPDEST PUSH1 0x20 MUL PUSH1 0x20 ADD ADD SWAP1 PUSH2 0xFFFF AND SWAP1 DUP2 PUSH2 0xFFFF AND DUP2 MSTORE POP POP PUSH1 0x19 DUP2 PUSH1 0x64 PUSH1 0x69 DUP2 GT ISZERO PUSH2 0xBC8D JUMPI PUSH2 0xBC8C PUSH2 0xEAFB JUMP JUMPDEST JUMPDEST DUP2 MLOAD DUP2 LT PUSH2 0xBC9E JUMPI PUSH2 0xBC9D PUSH2 0xF0D7 JUMP JUMPDEST JUMPDEST PUSH1 0x20 MUL PUSH1 0x20 ADD ADD SWAP1 PUSH2 0xFFFF AND SWAP1 DUP2 PUSH2 0xFFFF AND DUP2 MSTORE POP POP PUSH1 0x19 DUP2 PUSH1 0x65 PUSH1 0x69 DUP2 GT ISZERO PUSH2 0xBCCB JUMPI PUSH2 0xBCCA PUSH2 0xEAFB JUMP JUMPDEST JUMPDEST DUP2 MLOAD DUP2 LT PUSH2 0xBCDC JUMPI PUSH2 0xBCDB PUSH2 0xF0D7 JUMP JUMPDEST JUMPDEST PUSH1 0x20 MUL PUSH1 0x20 ADD ADD SWAP1 PUSH2 0xFFFF AND SWAP1 DUP2 PUSH2 0xFFFF AND DUP2 MSTORE POP POP PUSH1 0x19 DUP2 PUSH1 0x66 PUSH1 0x69 DUP2 GT ISZERO PUSH2 0xBD09 JUMPI PUSH2 0xBD08 PUSH2 0xEAFB JUMP JUMPDEST JUMPDEST DUP2 MLOAD DUP2 LT PUSH2 0xBD1A JUMPI PUSH2 0xBD19 PUSH2 0xF0D7 JUMP JUMPDEST JUMPDEST PUSH1 0x20 MUL PUSH1 0x20 ADD ADD SWAP1 PUSH2 0xFFFF AND SWAP1 DUP2 PUSH2 0xFFFF AND DUP2 MSTORE POP POP PUSH1 0x19 DUP2 PUSH1 0x67 PUSH1 0x69 DUP2 GT ISZERO PUSH2 0xBD47 JUMPI PUSH2 0xBD46 PUSH2 0xEAFB JUMP JUMPDEST JUMPDEST DUP2 MLOAD DUP2 LT PUSH2 0xBD58 JUMPI PUSH2 0xBD57 PUSH2 0xF0D7 JUMP JUMPDEST JUMPDEST PUSH1 0x20 MUL PUSH1 0x20 ADD ADD SWAP1 PUSH2 0xFFFF AND SWAP1 DUP2 PUSH2 0xFFFF AND DUP2 MSTORE POP POP PUSH1 0x19 DUP2 PUSH1 0x68 PUSH1 0x69 DUP2 GT ISZERO PUSH2 0xBD85 JUMPI PUSH2 0xBD84 PUSH2 0xEAFB JUMP JUMPDEST JUMPDEST DUP2 MLOAD DUP2 LT PUSH2 0xBD96 JUMPI PUSH2 0xBD95 PUSH2 0xF0D7 JUMP JUMPDEST JUMPDEST PUSH1 0x20 MUL PUSH1 0x20 ADD ADD SWAP1 PUSH2 0xFFFF AND SWAP1 DUP2 PUSH2 0xFFFF AND DUP2 MSTORE POP POP PUSH1 0x19 DUP2 PUSH1 0x69 DUP1 DUP2 GT ISZERO PUSH2 0xBDC2 JUMPI PUSH2 0xBDC1 PUSH2 0xEAFB JUMP JUMPDEST JUMPDEST DUP2 MLOAD DUP2 LT PUSH2 0xBDD3 JUMPI PUSH2 0xBDD2 PUSH2 0xF0D7 JUMP JUMPDEST JUMPDEST PUSH1 0x20 MUL PUSH1 0x20 ADD ADD SWAP1 PUSH2 0xFFFF AND SWAP1 DUP2 PUSH2 0xFFFF AND DUP2 MSTORE POP POP PUSH1 0xE1 DUP2 PUSH1 0x1 PUSH1 0x69 DUP2 GT ISZERO PUSH2 0xBE00 JUMPI PUSH2 0xBDFF PUSH2 0xEAFB JUMP JUMPDEST JUMPDEST DUP2 MLOAD DUP2 LT PUSH2 0xBE11 JUMPI PUSH2 0xBE10 PUSH2 0xF0D7 JUMP JUMPDEST JUMPDEST PUSH1 0x20 MUL PUSH1 0x20 ADD ADD SWAP1 PUSH2 0xFFFF AND SWAP1 DUP2 PUSH2 0xFFFF AND DUP2 MSTORE POP POP PUSH1 0xC8 DUP2 PUSH1 0x2 PUSH1 0x69 DUP2 GT ISZERO PUSH2 0xBE3E JUMPI PUSH2 0xBE3D PUSH2 0xEAFB JUMP JUMPDEST JUMPDEST DUP2 MLOAD DUP2 LT PUSH2 0xBE4F JUMPI PUSH2 0xBE4E PUSH2 0xF0D7 JUMP JUMPDEST JUMPDEST PUSH1 0x20 MUL PUSH1 0x20 ADD ADD SWAP1 PUSH2 0xFFFF AND SWAP1 DUP2 PUSH2 0xFFFF AND DUP2 MSTORE POP POP PUSH1 0x8C DUP2 PUSH1 0x3 PUSH1 0x69 DUP2 GT ISZERO PUSH2 0xBE7C JUMPI PUSH2 0xBE7B PUSH2 0xEAFB JUMP JUMPDEST JUMPDEST DUP2 MLOAD DUP2 LT PUSH2 0xBE8D JUMPI PUSH2 0xBE8C PUSH2 0xF0D7 JUMP JUMPDEST JUMPDEST PUSH1 0x20 MUL PUSH1 0x20 ADD ADD SWAP1 PUSH2 0xFFFF AND SWAP1 DUP2 PUSH2 0xFFFF AND DUP2 MSTORE POP POP PUSH1 0x64 DUP2 PUSH1 0x4 PUSH1 0x69 DUP2 GT ISZERO PUSH2 0xBEBA JUMPI PUSH2 0xBEB9 PUSH2 0xEAFB JUMP JUMPDEST JUMPDEST DUP2 MLOAD DUP2 LT PUSH2 0xBECB JUMPI PUSH2 0xBECA PUSH2 0xF0D7 JUMP JUMPDEST JUMPDEST PUSH1 0x20 MUL PUSH1 0x20 ADD ADD SWAP1 PUSH2 0xFFFF AND SWAP1 DUP2 PUSH2 0xFFFF AND DUP2 MSTORE POP POP PUSH1 0x55 DUP2 PUSH1 0x5 PUSH1 0x69 DUP2 GT ISZERO PUSH2 0xBEF8 JUMPI PUSH2 0xBEF7 PUSH2 0xEAFB JUMP JUMPDEST JUMPDEST DUP2 MLOAD DUP2 LT PUSH2 0xBF09 JUMPI PUSH2 0xBF08 PUSH2 0xF0D7 JUMP JUMPDEST JUMPDEST PUSH1 0x20 MUL PUSH1 0x20 ADD ADD SWAP1 PUSH2 0xFFFF AND SWAP1 DUP2 PUSH2 0xFFFF AND DUP2 MSTORE POP POP PUSH1 0x96 DUP2 PUSH1 0x3C PUSH1 0x69 DUP2 GT ISZERO PUSH2 0xBF36 JUMPI PUSH2 0xBF35 PUSH2 0xEAFB JUMP JUMPDEST JUMPDEST DUP2 MLOAD DUP2 LT PUSH2 0xBF47 JUMPI PUSH2 0xBF46 PUSH2 0xF0D7 JUMP JUMPDEST JUMPDEST PUSH1 0x20 MUL PUSH1 0x20 ADD ADD SWAP1 PUSH2 0xFFFF AND SWAP1 DUP2 PUSH2 0xFFFF AND DUP2 MSTORE POP POP PUSH1 0x4B DUP2 PUSH1 0x3D PUSH1 0x69 DUP2 GT ISZERO PUSH2 0xBF74 JUMPI PUSH2 0xBF73 PUSH2 0xEAFB JUMP JUMPDEST JUMPDEST DUP2 MLOAD DUP2 LT PUSH2 0xBF85 JUMPI PUSH2 0xBF84 PUSH2 0xF0D7 JUMP JUMPDEST JUMPDEST PUSH1 0x20 MUL PUSH1 0x20 ADD ADD SWAP1 PUSH2 0xFFFF AND SWAP1 DUP2 PUSH2 0xFFFF AND DUP2 MSTORE POP POP PUSH1 0x19 DUP2 PUSH1 0x3E PUSH1 0x69 DUP2 GT ISZERO PUSH2 0xBFB2 JUMPI PUSH2 0xBFB1 PUSH2 0xEAFB JUMP JUMPDEST JUMPDEST DUP2 MLOAD DUP2 LT PUSH2 0xBFC3 JUMPI PUSH2 0xBFC2 PUSH2 0xF0D7 JUMP JUMPDEST JUMPDEST PUSH1 0x20 MUL PUSH1 0x20 ADD ADD SWAP1 PUSH2 0xFFFF AND SWAP1 DUP2 PUSH2 0xFFFF AND DUP2 MSTORE POP POP PUSH1 0x3B DUP2 PUSH1 0x24 PUSH1 0x69 DUP2 GT ISZERO PUSH2 0xBFF0 JUMPI PUSH2 0xBFEF PUSH2 0xEAFB JUMP JUMPDEST JUMPDEST DUP2 MLOAD DUP2 LT PUSH2 0xC001 JUMPI PUSH2 0xC000 PUSH2 0xF0D7 JUMP JUMPDEST JUMPDEST PUSH1 0x20 MUL PUSH1 0x20 ADD ADD SWAP1 PUSH2 0xFFFF AND SWAP1 DUP2 PUSH2 0xFFFF AND DUP2 MSTORE POP POP PUSH1 0x2D DUP2 PUSH1 0x27 PUSH1 0x69 DUP2 GT ISZERO PUSH2 0xC02E JUMPI PUSH2 0xC02D PUSH2 0xEAFB JUMP JUMPDEST JUMPDEST DUP2 MLOAD DUP2 LT PUSH2 0xC03F JUMPI PUSH2 0xC03E PUSH2 0xF0D7 JUMP JUMPDEST JUMPDEST PUSH1 0x20 MUL PUSH1 0x20 ADD ADD SWAP1 PUSH2 0xFFFF AND SWAP1 DUP2 PUSH2 0xFFFF AND DUP2 MSTORE POP POP PUSH1 0x23 DUP2 PUSH1 0x25 PUSH1 0x69 DUP2 GT ISZERO PUSH2 0xC06C JUMPI PUSH2 0xC06B PUSH2 0xEAFB JUMP JUMPDEST JUMPDEST DUP2 MLOAD DUP2 LT PUSH2 0xC07D JUMPI PUSH2 0xC07C PUSH2 0xF0D7 JUMP JUMPDEST JUMPDEST PUSH1 0x20 MUL PUSH1 0x20 ADD ADD SWAP1 PUSH2 0xFFFF AND SWAP1 DUP2 PUSH2 0xFFFF AND DUP2 MSTORE POP POP PUSH1 0x1E DUP2 PUSH1 0x28 PUSH1 0x69 DUP2 GT ISZERO PUSH2 0xC0AA JUMPI PUSH2 0xC0A9 PUSH2 0xEAFB JUMP JUMPDEST JUMPDEST DUP2 MLOAD DUP2 LT PUSH2 0xC0BB JUMPI PUSH2 0xC0BA PUSH2 0xF0D7 JUMP JUMPDEST JUMPDEST PUSH1 0x20 MUL PUSH1 0x20 ADD ADD SWAP1 PUSH2 0xFFFF AND SWAP1 DUP2 PUSH2 0xFFFF AND DUP2 MSTORE POP POP PUSH1 0x7 DUP2 PUSH1 0x26 PUSH1 0x69 DUP2 GT ISZERO PUSH2 0xC0E8 JUMPI PUSH2 0xC0E7 PUSH2 0xEAFB JUMP JUMPDEST JUMPDEST DUP2 MLOAD DUP2 LT PUSH2 0xC0F9 JUMPI PUSH2 0xC0F8 PUSH2 0xF0D7 JUMP JUMPDEST JUMPDEST PUSH1 0x20 MUL PUSH1 0x20 ADD ADD SWAP1 PUSH2 0xFFFF AND SWAP1 DUP2 PUSH2 0xFFFF AND DUP2 MSTORE POP POP PUSH1 0x7 DUP2 PUSH1 0x29 PUSH1 0x69 DUP2 GT ISZERO PUSH2 0xC126 JUMPI PUSH2 0xC125 PUSH2 0xEAFB JUMP JUMPDEST JUMPDEST DUP2 MLOAD DUP2 LT PUSH2 0xC137 JUMPI PUSH2 0xC136 PUSH2 0xF0D7 JUMP JUMPDEST JUMPDEST PUSH1 0x20 MUL PUSH1 0x20 ADD ADD SWAP1 PUSH2 0xFFFF AND SWAP1 DUP2 PUSH2 0xFFFF AND DUP2 MSTORE POP POP PUSH1 0x7 DUP2 PUSH1 0x2A PUSH1 0x69 DUP2 GT ISZERO PUSH2 0xC164 JUMPI PUSH2 0xC163 PUSH2 0xEAFB JUMP JUMPDEST JUMPDEST DUP2 MLOAD DUP2 LT PUSH2 0xC175 JUMPI PUSH2 0xC174 PUSH2 0xF0D7 JUMP JUMPDEST JUMPDEST PUSH1 0x20 MUL PUSH1 0x20 ADD ADD SWAP1 PUSH2 0xFFFF AND SWAP1 DUP2 PUSH2 0xFFFF AND DUP2 MSTORE POP POP PUSH1 0x7 DUP2 PUSH1 0x2B PUSH1 0x69 DUP2 GT ISZERO PUSH2 0xC1A2 JUMPI PUSH2 0xC1A1 PUSH2 0xEAFB JUMP JUMPDEST JUMPDEST DUP2 MLOAD DUP2 LT PUSH2 0xC1B3 JUMPI PUSH2 0xC1B2 PUSH2 0xF0D7 JUMP JUMPDEST JUMPDEST PUSH1 0x20 MUL PUSH1 0x20 ADD ADD SWAP1 PUSH2 0xFFFF AND SWAP1 DUP2 PUSH2 0xFFFF AND DUP2 MSTORE POP POP PUSH1 0x7 DUP2 PUSH1 0x2C PUSH1 0x69 DUP2 GT ISZERO PUSH2 0xC1E0 JUMPI PUSH2 0xC1DF PUSH2 0xEAFB JUMP JUMPDEST JUMPDEST DUP2 MLOAD DUP2 LT PUSH2 0xC1F1 JUMPI PUSH2 0xC1F0 PUSH2 0xF0D7 JUMP JUMPDEST JUMPDEST PUSH1 0x20 MUL PUSH1 0x20 ADD ADD SWAP1 PUSH2 0xFFFF AND SWAP1 DUP2 PUSH2 0xFFFF AND DUP2 MSTORE POP POP PUSH1 0x7 DUP2 PUSH1 0x2D PUSH1 0x69 DUP2 GT ISZERO PUSH2 0xC21E JUMPI PUSH2 0xC21D PUSH2 0xEAFB JUMP JUMPDEST JUMPDEST DUP2 MLOAD DUP2 LT PUSH2 0xC22F JUMPI PUSH2 0xC22E PUSH2 0xF0D7 JUMP JUMPDEST JUMPDEST PUSH1 0x20 MUL PUSH1 0x20 ADD ADD SWAP1 PUSH2 0xFFFF AND SWAP1 DUP2 PUSH2 0xFFFF AND DUP2 MSTORE POP POP PUSH1 0x7 DUP2 PUSH1 0x2E PUSH1 0x69 DUP2 GT ISZERO PUSH2 0xC25C JUMPI PUSH2 0xC25B PUSH2 0xEAFB JUMP JUMPDEST JUMPDEST DUP2 MLOAD DUP2 LT PUSH2 0xC26D JUMPI PUSH2 0xC26C PUSH2 0xF0D7 JUMP JUMPDEST JUMPDEST PUSH1 0x20 MUL PUSH1 0x20 ADD ADD SWAP1 PUSH2 0xFFFF AND SWAP1 DUP2 PUSH2 0xFFFF AND DUP2 MSTORE POP POP PUSH1 0x7 DUP2 PUSH1 0x2F PUSH1 0x69 DUP2 GT ISZERO PUSH2 0xC29A JUMPI PUSH2 0xC299 PUSH2 0xEAFB JUMP JUMPDEST JUMPDEST DUP2 MLOAD DUP2 LT PUSH2 0xC2AB JUMPI PUSH2 0xC2AA PUSH2 0xF0D7 JUMP JUMPDEST JUMPDEST PUSH1 0x20 MUL PUSH1 0x20 ADD ADD SWAP1 PUSH2 0xFFFF AND SWAP1 DUP2 PUSH2 0xFFFF AND DUP2 MSTORE POP POP PUSH1 0x32 DUP2 PUSH1 0x59 PUSH1 0x69 DUP2 GT ISZERO PUSH2 0xC2D8 JUMPI PUSH2 0xC2D7 PUSH2 0xEAFB JUMP JUMPDEST JUMPDEST DUP2 MLOAD DUP2 LT PUSH2 0xC2E9 JUMPI PUSH2 0xC2E8 PUSH2 0xF0D7 JUMP JUMPDEST JUMPDEST PUSH1 0x20 MUL PUSH1 0x20 ADD ADD SWAP1 PUSH2 0xFFFF AND SWAP1 DUP2 PUSH2 0xFFFF AND DUP2 MSTORE POP POP PUSH1 0x28 DUP2 PUSH1 0x5B PUSH1 0x69 DUP2 GT ISZERO PUSH2 0xC316 JUMPI PUSH2 0xC315 PUSH2 0xEAFB JUMP JUMPDEST JUMPDEST DUP2 MLOAD DUP2 LT PUSH2 0xC327 JUMPI PUSH2 0xC326 PUSH2 0xF0D7 JUMP JUMPDEST JUMPDEST PUSH1 0x20 MUL PUSH1 0x20 ADD ADD SWAP1 PUSH2 0xFFFF AND SWAP1 DUP2 PUSH2 0xFFFF AND DUP2 MSTORE POP POP PUSH1 0x1E DUP2 PUSH1 0x5A PUSH1 0x69 DUP2 GT ISZERO PUSH2 0xC354 JUMPI PUSH2 0xC353 PUSH2 0xEAFB JUMP JUMPDEST JUMPDEST DUP2 MLOAD DUP2 LT PUSH2 0xC365 JUMPI PUSH2 0xC364 PUSH2 0xF0D7 JUMP JUMPDEST JUMPDEST PUSH1 0x20 MUL PUSH1 0x20 ADD ADD SWAP1 PUSH2 0xFFFF AND SWAP1 DUP2 PUSH2 0xFFFF AND DUP2 MSTORE POP POP PUSH1 0x14 DUP2 PUSH1 0x5C PUSH1 0x69 DUP2 GT ISZERO PUSH2 0xC392 JUMPI PUSH2 0xC391 PUSH2 0xEAFB JUMP JUMPDEST JUMPDEST DUP2 MLOAD DUP2 LT PUSH2 0xC3A3 JUMPI PUSH2 0xC3A2 PUSH2 0xF0D7 JUMP JUMPDEST JUMPDEST PUSH1 0x20 MUL PUSH1 0x20 ADD ADD SWAP1 PUSH2 0xFFFF AND SWAP1 DUP2 PUSH2 0xFFFF AND DUP2 MSTORE POP POP PUSH1 0xA DUP2 PUSH1 0x5D PUSH1 0x69 DUP2 GT ISZERO PUSH2 0xC3D0 JUMPI PUSH2 0xC3CF PUSH2 0xEAFB JUMP JUMPDEST JUMPDEST DUP2 MLOAD DUP2 LT PUSH2 0xC3E1 JUMPI PUSH2 0xC3E0 PUSH2 0xF0D7 JUMP JUMPDEST JUMPDEST PUSH1 0x20 MUL PUSH1 0x20 ADD ADD SWAP1 PUSH2 0xFFFF AND SWAP1 DUP2 PUSH2 0xFFFF AND DUP2 MSTORE POP POP PUSH1 0x14 DUP2 PUSH1 0x4D PUSH1 0x69 DUP2 GT ISZERO PUSH2 0xC40E JUMPI PUSH2 0xC40D PUSH2 0xEAFB JUMP JUMPDEST JUMPDEST DUP2 MLOAD DUP2 LT PUSH2 0xC41F JUMPI PUSH2 0xC41E PUSH2 0xF0D7 JUMP JUMPDEST JUMPDEST PUSH1 0x20 MUL PUSH1 0x20 ADD ADD SWAP1 PUSH2 0xFFFF AND SWAP1 DUP2 PUSH2 0xFFFF AND DUP2 MSTORE POP POP PUSH1 0x10 DUP2 PUSH1 0x50 PUSH1 0x69 DUP2 GT ISZERO PUSH2 0xC44C JUMPI PUSH2 0xC44B PUSH2 0xEAFB JUMP JUMPDEST JUMPDEST DUP2 MLOAD DUP2 LT PUSH2 0xC45D JUMPI PUSH2 0xC45C PUSH2 0xF0D7 JUMP JUMPDEST JUMPDEST PUSH1 0x20 MUL PUSH1 0x20 ADD ADD SWAP1 PUSH2 0xFFFF AND SWAP1 DUP2 PUSH2 0xFFFF AND DUP2 MSTORE POP POP PUSH1 0xC DUP2 PUSH1 0x4E PUSH1 0x69 DUP2 GT ISZERO PUSH2 0xC48A JUMPI PUSH2 0xC489 PUSH2 0xEAFB JUMP JUMPDEST JUMPDEST DUP2 MLOAD DUP2 LT PUSH2 0xC49B JUMPI PUSH2 0xC49A PUSH2 0xF0D7 JUMP JUMPDEST JUMPDEST PUSH1 0x20 MUL PUSH1 0x20 ADD ADD SWAP1 PUSH2 0xFFFF AND SWAP1 DUP2 PUSH2 0xFFFF AND DUP2 MSTORE POP POP PUSH1 0x8 DUP2 PUSH1 0x51 PUSH1 0x69 DUP2 GT ISZERO PUSH2 0xC4C8 JUMPI PUSH2 0xC4C7 PUSH2 0xEAFB JUMP JUMPDEST JUMPDEST DUP2 MLOAD DUP2 LT PUSH2 0xC4D9 JUMPI PUSH2 0xC4D8 PUSH2 0xF0D7 JUMP JUMPDEST JUMPDEST PUSH1 0x20 MUL PUSH1 0x20 ADD ADD SWAP1 PUSH2 0xFFFF AND SWAP1 DUP2 PUSH2 0xFFFF AND DUP2 MSTORE POP POP PUSH1 0x3 DUP2 PUSH1 0x4F PUSH1 0x69 DUP2 GT ISZERO PUSH2 0xC506 JUMPI PUSH2 0xC505 PUSH2 0xEAFB JUMP JUMPDEST JUMPDEST DUP2 MLOAD DUP2 LT PUSH2 0xC517 JUMPI PUSH2 0xC516 PUSH2 0xF0D7 JUMP JUMPDEST JUMPDEST PUSH1 0x20 MUL PUSH1 0x20 ADD ADD SWAP1 PUSH2 0xFFFF AND SWAP1 DUP2 PUSH2 0xFFFF AND DUP2 MSTORE POP POP PUSH1 0x3 DUP2 PUSH1 0x52 PUSH1 0x69 DUP2 GT ISZERO PUSH2 0xC544 JUMPI PUSH2 0xC543 PUSH2 0xEAFB JUMP JUMPDEST JUMPDEST DUP2 MLOAD DUP2 LT PUSH2 0xC555 JUMPI PUSH2 0xC554 PUSH2 0xF0D7 JUMP JUMPDEST JUMPDEST PUSH1 0x20 MUL PUSH1 0x20 ADD ADD SWAP1 PUSH2 0xFFFF AND SWAP1 DUP2 PUSH2 0xFFFF AND DUP2 MSTORE POP POP PUSH1 0x3 DUP2 PUSH1 0x53 PUSH1 0x69 DUP2 GT ISZERO PUSH2 0xC582 JUMPI PUSH2 0xC581 PUSH2 0xEAFB JUMP JUMPDEST JUMPDEST DUP2 MLOAD DUP2 LT PUSH2 0xC593 JUMPI PUSH2 0xC592 PUSH2 0xF0D7 JUMP JUMPDEST JUMPDEST PUSH1 0x20 MUL PUSH1 0x20 ADD ADD SWAP1 PUSH2 0xFFFF AND SWAP1 DUP2 PUSH2 0xFFFF AND DUP2 MSTORE POP POP PUSH1 0x3 DUP2 PUSH1 0x54 PUSH1 0x69 DUP2 GT ISZERO PUSH2 0xC5C0 JUMPI PUSH2 0xC5BF PUSH2 0xEAFB JUMP JUMPDEST JUMPDEST DUP2 MLOAD DUP2 LT PUSH2 0xC5D1 JUMPI PUSH2 0xC5D0 PUSH2 0xF0D7 JUMP JUMPDEST JUMPDEST PUSH1 0x20 MUL PUSH1 0x20 ADD ADD SWAP1 PUSH2 0xFFFF AND SWAP1 DUP2 PUSH2 0xFFFF AND DUP2 MSTORE POP POP PUSH1 0x3 DUP2 PUSH1 0x55 PUSH1 0x69 DUP2 GT ISZERO PUSH2 0xC5FE JUMPI PUSH2 0xC5FD PUSH2 0xEAFB JUMP JUMPDEST JUMPDEST DUP2 MLOAD DUP2 LT PUSH2 0xC60F JUMPI PUSH2 0xC60E PUSH2 0xF0D7 JUMP JUMPDEST JUMPDEST PUSH1 0x20 MUL PUSH1 0x20 ADD ADD SWAP1 PUSH2 0xFFFF AND SWAP1 DUP2 PUSH2 0xFFFF AND DUP2 MSTORE POP POP PUSH1 0x3 DUP2 PUSH1 0x56 PUSH1 0x69 DUP2 GT ISZERO PUSH2 0xC63C JUMPI PUSH2 0xC63B PUSH2 0xEAFB JUMP JUMPDEST JUMPDEST DUP2 MLOAD DUP2 LT PUSH2 0xC64D JUMPI PUSH2 0xC64C PUSH2 0xF0D7 JUMP JUMPDEST JUMPDEST PUSH1 0x20 MUL PUSH1 0x20 ADD ADD SWAP1 PUSH2 0xFFFF AND SWAP1 DUP2 PUSH2 0xFFFF AND DUP2 MSTORE POP POP PUSH1 0x3 DUP2 PUSH1 0x57 PUSH1 0x69 DUP2 GT ISZERO PUSH2 0xC67A JUMPI PUSH2 0xC679 PUSH2 0xEAFB JUMP JUMPDEST JUMPDEST DUP2 MLOAD DUP2 LT PUSH2 0xC68B JUMPI PUSH2 0xC68A PUSH2 0xF0D7 JUMP JUMPDEST JUMPDEST PUSH1 0x20 MUL PUSH1 0x20 ADD ADD SWAP1 PUSH2 0xFFFF AND SWAP1 DUP2 PUSH2 0xFFFF AND DUP2 MSTORE POP POP PUSH1 0x3 DUP2 PUSH1 0x58 PUSH1 0x69 DUP2 GT ISZERO PUSH2 0xC6B8 JUMPI PUSH2 0xC6B7 PUSH2 0xEAFB JUMP JUMPDEST JUMPDEST DUP2 MLOAD DUP2 LT PUSH2 0xC6C9 JUMPI PUSH2 0xC6C8 PUSH2 0xF0D7 JUMP JUMPDEST JUMPDEST PUSH1 0x20 MUL PUSH1 0x20 ADD ADD SWAP1 PUSH2 0xFFFF AND SWAP1 DUP2 PUSH2 0xFFFF AND DUP2 MSTORE POP POP PUSH1 0xC DUP2 PUSH1 0x18 PUSH1 0x69 DUP2 GT ISZERO PUSH2 0xC6F6 JUMPI PUSH2 0xC6F5 PUSH2 0xEAFB JUMP JUMPDEST JUMPDEST DUP2 MLOAD DUP2 LT PUSH2 0xC707 JUMPI PUSH2 0xC706 PUSH2 0xF0D7 JUMP JUMPDEST JUMPDEST PUSH1 0x20 MUL PUSH1 0x20 ADD ADD SWAP1 PUSH2 0xFFFF AND SWAP1 DUP2 PUSH2 0xFFFF AND DUP2 MSTORE POP POP PUSH1 0x9 DUP2 PUSH1 0x19 PUSH1 0x69 DUP2 GT ISZERO PUSH2 0xC734 JUMPI PUSH2 0xC733 PUSH2 0xEAFB JUMP JUMPDEST JUMPDEST DUP2 MLOAD DUP2 LT PUSH2 0xC745 JUMPI PUSH2 0xC744 PUSH2 0xF0D7 JUMP JUMPDEST JUMPDEST PUSH1 0x20 MUL PUSH1 0x20 ADD ADD SWAP1 PUSH2 0xFFFF AND SWAP1 DUP2 PUSH2 0xFFFF AND DUP2 MSTORE POP POP PUSH1 0x7 DUP2 PUSH1 0x1B PUSH1 0x69 DUP2 GT ISZERO PUSH2 0xC772 JUMPI PUSH2 0xC771 PUSH2 0xEAFB JUMP JUMPDEST JUMPDEST DUP2 MLOAD DUP2 LT PUSH2 0xC783 JUMPI PUSH2 0xC782 PUSH2 0xF0D7 JUMP JUMPDEST JUMPDEST PUSH1 0x20 MUL PUSH1 0x20 ADD ADD SWAP1 PUSH2 0xFFFF AND SWAP1 DUP2 PUSH2 0xFFFF AND DUP2 MSTORE POP POP PUSH1 0x6 DUP2 PUSH1 0x1C PUSH1 0x69 DUP2 GT ISZERO PUSH2 0xC7B0 JUMPI PUSH2 0xC7AF PUSH2 0xEAFB JUMP JUMPDEST JUMPDEST DUP2 MLOAD DUP2 LT PUSH2 0xC7C1 JUMPI PUSH2 0xC7C0 PUSH2 0xF0D7 JUMP JUMPDEST JUMPDEST PUSH1 0x20 MUL PUSH1 0x20 ADD ADD SWAP1 PUSH2 0xFFFF AND SWAP1 DUP2 PUSH2 0xFFFF AND DUP2 MSTORE POP POP PUSH1 0x2 DUP2 PUSH1 0x1A PUSH1 0x69 DUP2 GT ISZERO PUSH2 0xC7EE JUMPI PUSH2 0xC7ED PUSH2 0xEAFB JUMP JUMPDEST JUMPDEST DUP2 MLOAD DUP2 LT PUSH2 0xC7FF JUMPI PUSH2 0xC7FE PUSH2 0xF0D7 JUMP JUMPDEST JUMPDEST PUSH1 0x20 MUL PUSH1 0x20 ADD ADD SWAP1 PUSH2 0xFFFF AND SWAP1 DUP2 PUSH2 0xFFFF AND DUP2 MSTORE POP POP PUSH1 0x2 DUP2 PUSH1 0x1D PUSH1 0x69 DUP2 GT ISZERO PUSH2 0xC82C JUMPI PUSH2 0xC82B PUSH2 0xEAFB JUMP JUMPDEST JUMPDEST DUP2 MLOAD DUP2 LT PUSH2 0xC83D JUMPI PUSH2 0xC83C PUSH2 0xF0D7 JUMP JUMPDEST JUMPDEST PUSH1 0x20 MUL PUSH1 0x20 ADD ADD SWAP1 PUSH2 0xFFFF AND SWAP1 DUP2 PUSH2 0xFFFF AND DUP2 MSTORE POP POP PUSH1 0x2 DUP2 PUSH1 0x1E PUSH1 0x69 DUP2 GT ISZERO PUSH2 0xC86A JUMPI PUSH2 0xC869 PUSH2 0xEAFB JUMP JUMPDEST JUMPDEST DUP2 MLOAD DUP2 LT PUSH2 0xC87B JUMPI PUSH2 0xC87A PUSH2 0xF0D7 JUMP JUMPDEST JUMPDEST PUSH1 0x20 MUL PUSH1 0x20 ADD ADD SWAP1 PUSH2 0xFFFF AND SWAP1 DUP2 PUSH2 0xFFFF AND DUP2 MSTORE POP POP PUSH1 0x2 DUP2 PUSH1 0x1F PUSH1 0x69 DUP2 GT ISZERO PUSH2 0xC8A8 JUMPI PUSH2 0xC8A7 PUSH2 0xEAFB JUMP JUMPDEST JUMPDEST DUP2 MLOAD DUP2 LT PUSH2 0xC8B9 JUMPI PUSH2 0xC8B8 PUSH2 0xF0D7 JUMP JUMPDEST JUMPDEST PUSH1 0x20 MUL PUSH1 0x20 ADD ADD SWAP1 PUSH2 0xFFFF AND SWAP1 DUP2 PUSH2 0xFFFF AND DUP2 MSTORE POP POP PUSH1 0x2 DUP2 PUSH1 0x20 PUSH1 0x69 DUP2 GT ISZERO PUSH2 0xC8E6 JUMPI PUSH2 0xC8E5 PUSH2 0xEAFB JUMP JUMPDEST JUMPDEST DUP2 MLOAD DUP2 LT PUSH2 0xC8F7 JUMPI PUSH2 0xC8F6 PUSH2 0xF0D7 JUMP JUMPDEST JUMPDEST PUSH1 0x20 MUL PUSH1 0x20 ADD ADD SWAP1 PUSH2 0xFFFF AND SWAP1 DUP2 PUSH2 0xFFFF AND DUP2 MSTORE POP POP PUSH1 0x2 DUP2 PUSH1 0x21 PUSH1 0x69 DUP2 GT ISZERO PUSH2 0xC924 JUMPI PUSH2 0xC923 PUSH2 0xEAFB JUMP JUMPDEST JUMPDEST DUP2 MLOAD DUP2 LT PUSH2 0xC935 JUMPI PUSH2 0xC934 PUSH2 0xF0D7 JUMP JUMPDEST JUMPDEST PUSH1 0x20 MUL PUSH1 0x20 ADD ADD SWAP1 PUSH2 0xFFFF AND SWAP1 DUP2 PUSH2 0xFFFF AND DUP2 MSTORE POP POP PUSH1 0x2 DUP2 PUSH1 0x22 PUSH1 0x69 DUP2 GT ISZERO PUSH2 0xC962 JUMPI PUSH2 0xC961 PUSH2 0xEAFB JUMP JUMPDEST JUMPDEST DUP2 MLOAD DUP2 LT PUSH2 0xC973 JUMPI PUSH2 0xC972 PUSH2 0xF0D7 JUMP JUMPDEST JUMPDEST PUSH1 0x20 MUL PUSH1 0x20 ADD ADD SWAP1 PUSH2 0xFFFF AND SWAP1 DUP2 PUSH2 0xFFFF AND DUP2 MSTORE POP POP PUSH1 0x2 DUP2 PUSH1 0x23 PUSH1 0x69 DUP2 GT ISZERO PUSH2 0xC9A0 JUMPI PUSH2 0xC99F PUSH2 0xEAFB JUMP JUMPDEST JUMPDEST DUP2 MLOAD DUP2 LT PUSH2 0xC9B1 JUMPI PUSH2 0xC9B0 PUSH2 0xF0D7 JUMP JUMPDEST JUMPDEST PUSH1 0x20 MUL PUSH1 0x20 ADD ADD SWAP1 PUSH2 0xFFFF AND SWAP1 DUP2 PUSH2 0xFFFF AND DUP2 MSTORE POP POP PUSH1 0x6 DUP2 PUSH1 0x40 PUSH1 0x69 DUP2 GT ISZERO PUSH2 0xC9DE JUMPI PUSH2 0xC9DD PUSH2 0xEAFB JUMP JUMPDEST JUMPDEST DUP2 MLOAD DUP2 LT PUSH2 0xC9EF JUMPI PUSH2 0xC9EE PUSH2 0xF0D7 JUMP JUMPDEST JUMPDEST PUSH1 0x20 MUL PUSH1 0x20 ADD ADD SWAP1 PUSH2 0xFFFF AND SWAP1 DUP2 PUSH2 0xFFFF AND DUP2 MSTORE POP POP PUSH1 0x5 DUP2 PUSH1 0x43 PUSH1 0x69 DUP2 GT ISZERO PUSH2 0xCA1C JUMPI PUSH2 0xCA1B PUSH2 0xEAFB JUMP JUMPDEST JUMPDEST DUP2 MLOAD DUP2 LT PUSH2 0xCA2D JUMPI PUSH2 0xCA2C PUSH2 0xF0D7 JUMP JUMPDEST JUMPDEST PUSH1 0x20 MUL PUSH1 0x20 ADD ADD SWAP1 PUSH2 0xFFFF AND SWAP1 DUP2 PUSH2 0xFFFF AND DUP2 MSTORE POP POP PUSH1 0x4 DUP2 PUSH1 0x41 PUSH1 0x69 DUP2 GT ISZERO PUSH2 0xCA5A JUMPI PUSH2 0xCA59 PUSH2 0xEAFB JUMP JUMPDEST JUMPDEST DUP2 MLOAD DUP2 LT PUSH2 0xCA6B JUMPI PUSH2 0xCA6A PUSH2 0xF0D7 JUMP JUMPDEST JUMPDEST PUSH1 0x20 MUL PUSH1 0x20 ADD ADD SWAP1 PUSH2 0xFFFF AND SWAP1 DUP2 PUSH2 0xFFFF AND DUP2 MSTORE POP POP PUSH1 0x2 DUP2 PUSH1 0x44 PUSH1 0x69 DUP2 GT ISZERO PUSH2 0xCA98 JUMPI PUSH2 0xCA97 PUSH2 0xEAFB JUMP JUMPDEST JUMPDEST DUP2 MLOAD DUP2 LT PUSH2 0xCAA9 JUMPI PUSH2 0xCAA8 PUSH2 0xF0D7 JUMP JUMPDEST JUMPDEST PUSH1 0x20 MUL PUSH1 0x20 ADD ADD SWAP1 PUSH2 0xFFFF AND SWAP1 DUP2 PUSH2 0xFFFF AND DUP2 MSTORE POP POP PUSH1 0x1 DUP2 PUSH1 0x42 PUSH1 0x69 DUP2 GT ISZERO PUSH2 0xCAD6 JUMPI PUSH2 0xCAD5 PUSH2 0xEAFB JUMP JUMPDEST JUMPDEST DUP2 MLOAD DUP2 LT PUSH2 0xCAE7 JUMPI PUSH2 0xCAE6 PUSH2 0xF0D7 JUMP JUMPDEST JUMPDEST PUSH1 0x20 MUL PUSH1 0x20 ADD ADD SWAP1 PUSH2 0xFFFF AND SWAP1 DUP2 PUSH2 0xFFFF AND DUP2 MSTORE POP POP PUSH1 0x1 DUP2 PUSH1 0x45 PUSH1 0x69 DUP2 GT ISZERO PUSH2 0xCB14 JUMPI PUSH2 0xCB13 PUSH2 0xEAFB JUMP JUMPDEST JUMPDEST DUP2 MLOAD DUP2 LT PUSH2 0xCB25 JUMPI PUSH2 0xCB24 PUSH2 0xF0D7 JUMP JUMPDEST JUMPDEST PUSH1 0x20 MUL PUSH1 0x20 ADD ADD SWAP1 PUSH2 0xFFFF AND SWAP1 DUP2 PUSH2 0xFFFF AND DUP2 MSTORE POP POP PUSH1 0x1 DUP2 PUSH1 0x46 PUSH1 0x69 DUP2 GT ISZERO PUSH2 0xCB52 JUMPI PUSH2 0xCB51 PUSH2 0xEAFB JUMP JUMPDEST JUMPDEST DUP2 MLOAD DUP2 LT PUSH2 0xCB63 JUMPI PUSH2 0xCB62 PUSH2 0xF0D7 JUMP JUMPDEST JUMPDEST PUSH1 0x20 MUL PUSH1 0x20 ADD ADD SWAP1 PUSH2 0xFFFF AND SWAP1 DUP2 PUSH2 0xFFFF AND DUP2 MSTORE POP POP PUSH1 0x1 DUP2 PUSH1 0x47 PUSH1 0x69 DUP2 GT ISZERO PUSH2 0xCB90 JUMPI PUSH2 0xCB8F PUSH2 0xEAFB JUMP JUMPDEST JUMPDEST DUP2 MLOAD DUP2 LT PUSH2 0xCBA1 JUMPI PUSH2 0xCBA0 PUSH2 0xF0D7 JUMP JUMPDEST JUMPDEST PUSH1 0x20 MUL PUSH1 0x20 ADD ADD SWAP1 PUSH2 0xFFFF AND SWAP1 DUP2 PUSH2 0xFFFF AND DUP2 MSTORE POP POP PUSH1 0x1 DUP2 PUSH1 0x48 PUSH1 0x69 DUP2 GT ISZERO PUSH2 0xCBCE JUMPI PUSH2 0xCBCD PUSH2 0xEAFB JUMP JUMPDEST JUMPDEST DUP2 MLOAD DUP2 LT PUSH2 0xCBDF JUMPI PUSH2 0xCBDE PUSH2 0xF0D7 JUMP JUMPDEST JUMPDEST PUSH1 0x20 MUL PUSH1 0x20 ADD ADD SWAP1 PUSH2 0xFFFF AND SWAP1 DUP2 PUSH2 0xFFFF AND DUP2 MSTORE POP POP PUSH1 0x1 DUP2 PUSH1 0x49 PUSH1 0x69 DUP2 GT ISZERO PUSH2 0xCC0C JUMPI PUSH2 0xCC0B PUSH2 0xEAFB JUMP JUMPDEST JUMPDEST DUP2 MLOAD DUP2 LT PUSH2 0xCC1D JUMPI PUSH2 0xCC1C PUSH2 0xF0D7 JUMP JUMPDEST JUMPDEST PUSH1 0x20 MUL PUSH1 0x20 ADD ADD SWAP1 PUSH2 0xFFFF AND SWAP1 DUP2 PUSH2 0xFFFF AND DUP2 MSTORE POP POP PUSH1 0x1 DUP2 PUSH1 0x4A PUSH1 0x69 DUP2 GT ISZERO PUSH2 0xCC4A JUMPI PUSH2 0xCC49 PUSH2 0xEAFB JUMP JUMPDEST JUMPDEST DUP2 MLOAD DUP2 LT PUSH2 0xCC5B JUMPI PUSH2 0xCC5A PUSH2 0xF0D7 JUMP JUMPDEST JUMPDEST PUSH1 0x20 MUL PUSH1 0x20 ADD ADD SWAP1 PUSH2 0xFFFF AND SWAP1 DUP2 PUSH2 0xFFFF AND DUP2 MSTORE POP POP PUSH1 0x1 DUP2 PUSH1 0x4B PUSH1 0x69 DUP2 GT ISZERO PUSH2 0xCC88 JUMPI PUSH2 0xCC87 PUSH2 0xEAFB JUMP JUMPDEST JUMPDEST DUP2 MLOAD DUP2 LT PUSH2 0xCC99 JUMPI PUSH2 0xCC98 PUSH2 0xF0D7 JUMP JUMPDEST JUMPDEST PUSH1 0x20 MUL PUSH1 0x20 ADD ADD SWAP1 PUSH2 0xFFFF AND SWAP1 DUP2 PUSH2 0xFFFF AND DUP2 MSTORE POP POP PUSH0 PUSH2 0xCCBA DUP5 DUP4 PUSH2 0xE0C9 JUMP JUMPDEST SWAP1 POP DUP1 PUSH1 0x69 DUP2 GT ISZERO PUSH2 0xCCCF JUMPI PUSH2 0xCCCE PUSH2 0xEAFB JUMP JUMPDEST JUMPDEST SWAP3 POP POP POP JUMPDEST SWAP3 SWAP2 POP POP JUMP JUMPDEST PUSH0 PUSH0 PUSH1 0x14 PUSH8 0xFFFFFFFFFFFFFFFF DUP2 GT ISZERO PUSH2 0xCCF7 JUMPI PUSH2 0xCCF6 PUSH2 0xE9D4 JUMP JUMPDEST JUMPDEST PUSH1 0x40 MLOAD SWAP1 DUP1 DUP3 MSTORE DUP1 PUSH1 0x20 MUL PUSH1 0x20 ADD DUP3 ADD PUSH1 0x40 MSTORE DUP1 ISZERO PUSH2 0xCD25 JUMPI DUP2 PUSH1 0x20 ADD PUSH1 0x20 DUP3 MUL DUP1 CALLDATASIZE DUP4 CALLDATACOPY DUP1 DUP3 ADD SWAP2 POP POP SWAP1 POP JUMPDEST POP SWAP1 POP PUSH2 0xCD3A DUP5 PUSH2 0xCD35 SWAP1 PUSH2 0xFA46 JUMP JUMPDEST PUSH2 0xE16C JUMP JUMPDEST DUP1 PUSH2 0xCD53 JUMPI POP PUSH2 0xCD52 DUP5 PUSH2 0xCD4D SWAP1 PUSH2 0xFA46 JUMP JUMPDEST PUSH2 0xE1E4 JUMP JUMPDEST JUMPDEST ISZERO PUSH2 0xD234 JUMPI PUSH2 0x2495 DUP2 PUSH0 PUSH1 0x13 DUP2 GT ISZERO PUSH2 0xCD6F JUMPI PUSH2 0xCD6E PUSH2 0xEAFB JUMP JUMPDEST JUMPDEST DUP2 MLOAD DUP2 LT PUSH2 0xCD80 JUMPI PUSH2 0xCD7F PUSH2 0xF0D7 JUMP JUMPDEST JUMPDEST PUSH1 0x20 MUL PUSH1 0x20 ADD ADD SWAP1 PUSH2 0xFFFF AND SWAP1 DUP2 PUSH2 0xFFFF AND DUP2 MSTORE POP POP PUSH1 0xC8 DUP2 PUSH1 0xD PUSH1 0x13 DUP2 GT ISZERO PUSH2 0xCDAD JUMPI PUSH2 0xCDAC PUSH2 0xEAFB JUMP JUMPDEST JUMPDEST DUP2 MLOAD DUP2 LT PUSH2 0xCDBE JUMPI PUSH2 0xCDBD PUSH2 0xF0D7 JUMP JUMPDEST JUMPDEST PUSH1 0x20 MUL PUSH1 0x20 ADD ADD SWAP1 PUSH2 0xFFFF AND SWAP1 DUP2 PUSH2 0xFFFF AND DUP2 MSTORE POP POP PUSH1 0x23 DUP2 PUSH1 0x5 PUSH1 0x13 DUP2 GT ISZERO PUSH2 0xCDEB JUMPI PUSH2 0xCDEA PUSH2 0xEAFB JUMP JUMPDEST JUMPDEST DUP2 MLOAD DUP2 LT PUSH2 0xCDFC JUMPI PUSH2 0xCDFB PUSH2 0xF0D7 JUMP JUMPDEST JUMPDEST PUSH1 0x20 MUL PUSH1 0x20 ADD ADD SWAP1 PUSH2 0xFFFF AND SWAP1 DUP2 PUSH2 0xFFFF AND DUP2 MSTORE POP POP PUSH1 0x16 DUP2 PUSH1 0x13 DUP1 DUP2 GT ISZERO PUSH2 0xCE28 JUMPI PUSH2 0xCE27 PUSH2 0xEAFB JUMP JUMPDEST JUMPDEST DUP2 MLOAD DUP2 LT PUSH2 0xCE39 JUMPI PUSH2 0xCE38 PUSH2 0xF0D7 JUMP JUMPDEST JUMPDEST PUSH1 0x20 MUL PUSH1 0x20 ADD ADD SWAP1 PUSH2 0xFFFF AND SWAP1 DUP2 PUSH2 0xFFFF AND DUP2 MSTORE POP POP PUSH1 0x14 DUP2 PUSH1 0xA PUSH1 0x13 DUP2 GT ISZERO PUSH2 0xCE66 JUMPI PUSH2 0xCE65 PUSH2 0xEAFB JUMP JUMPDEST JUMPDEST DUP2 MLOAD DUP2 LT PUSH2 0xCE77 JUMPI PUSH2 0xCE76 PUSH2 0xF0D7 JUMP JUMPDEST JUMPDEST PUSH1 0x20 MUL PUSH1 0x20 ADD ADD SWAP1 PUSH2 0xFFFF AND SWAP1 DUP2 PUSH2 0xFFFF AND DUP2 MSTORE POP POP PUSH1 0x12 DUP2 PUSH1 0x1 PUSH1 0x13 DUP2 GT ISZERO PUSH2 0xCEA4 JUMPI PUSH2 0xCEA3 PUSH2 0xEAFB JUMP JUMPDEST JUMPDEST DUP2 MLOAD DUP2 LT PUSH2 0xCEB5 JUMPI PUSH2 0xCEB4 PUSH2 0xF0D7 JUMP JUMPDEST JUMPDEST PUSH1 0x20 MUL PUSH1 0x20 ADD ADD SWAP1 PUSH2 0xFFFF AND SWAP1 DUP2 PUSH2 0xFFFF AND DUP2 MSTORE POP POP PUSH1 0x10 DUP2 PUSH1 0x2 PUSH1 0x13 DUP2 GT ISZERO PUSH2 0xCEE2 JUMPI PUSH2 0xCEE1 PUSH2 0xEAFB JUMP JUMPDEST JUMPDEST DUP2 MLOAD DUP2 LT PUSH2 0xCEF3 JUMPI PUSH2 0xCEF2 PUSH2 0xF0D7 JUMP JUMPDEST JUMPDEST PUSH1 0x20 MUL PUSH1 0x20 ADD ADD SWAP1 PUSH2 0xFFFF AND SWAP1 DUP2 PUSH2 0xFFFF AND DUP2 MSTORE POP POP PUSH1 0xE DUP2 PUSH1 0x11 PUSH1 0x13 DUP2 GT ISZERO PUSH2 0xCF20 JUMPI PUSH2 0xCF1F PUSH2 0xEAFB JUMP JUMPDEST JUMPDEST DUP2 MLOAD DUP2 LT PUSH2 0xCF31 JUMPI PUSH2 0xCF30 PUSH2 0xF0D7 JUMP JUMPDEST JUMPDEST PUSH1 0x20 MUL PUSH1 0x20 ADD ADD SWAP1 PUSH2 0xFFFF AND SWAP1 DUP2 PUSH2 0xFFFF AND DUP2 MSTORE POP POP PUSH1 0xC DUP2 PUSH1 0x9 PUSH1 0x13 DUP2 GT ISZERO PUSH2 0xCF5E JUMPI PUSH2 0xCF5D PUSH2 0xEAFB JUMP JUMPDEST JUMPDEST DUP2 MLOAD DUP2 LT PUSH2 0xCF6F JUMPI PUSH2 0xCF6E PUSH2 0xF0D7 JUMP JUMPDEST JUMPDEST PUSH1 0x20 MUL PUSH1 0x20 ADD ADD SWAP1 PUSH2 0xFFFF AND SWAP1 DUP2 PUSH2 0xFFFF AND DUP2 MSTORE POP POP PUSH1 0xA DUP2 PUSH1 0x10 PUSH1 0x13 DUP2 GT ISZERO PUSH2 0xCF9C JUMPI PUSH2 0xCF9B PUSH2 0xEAFB JUMP JUMPDEST JUMPDEST DUP2 MLOAD DUP2 LT PUSH2 0xCFAD JUMPI PUSH2 0xCFAC PUSH2 0xF0D7 JUMP JUMPDEST JUMPDEST PUSH1 0x20 MUL PUSH1 0x20 ADD ADD SWAP1 PUSH2 0xFFFF AND SWAP1 DUP2 PUSH2 0xFFFF AND DUP2 MSTORE POP POP PUSH1 0x8 DUP2 PUSH1 0xB PUSH1 0x13 DUP2 GT ISZERO PUSH2 0xCFDA JUMPI PUSH2 0xCFD9 PUSH2 0xEAFB JUMP JUMPDEST JUMPDEST DUP2 MLOAD DUP2 LT PUSH2 0xCFEB JUMPI PUSH2 0xCFEA PUSH2 0xF0D7 JUMP JUMPDEST JUMPDEST PUSH1 0x20 MUL PUSH1 0x20 ADD ADD SWAP1 PUSH2 0xFFFF AND SWAP1 DUP2 PUSH2 0xFFFF AND DUP2 MSTORE POP POP PUSH1 0x4B DUP2 PUSH1 0x3 PUSH1 0x13 DUP2 GT ISZERO PUSH2 0xD018 JUMPI PUSH2 0xD017 PUSH2 0xEAFB JUMP JUMPDEST JUMPDEST DUP2 MLOAD DUP2 LT PUSH2 0xD029 JUMPI PUSH2 0xD028 PUSH2 0xF0D7 JUMP JUMPDEST JUMPDEST PUSH1 0x20 MUL PUSH1 0x20 ADD ADD SWAP1 PUSH2 0xFFFF AND SWAP1 DUP2 PUSH2 0xFFFF AND DUP2 MSTORE POP POP PUSH1 0x3C DUP2 PUSH1 0xE PUSH1 0x13 DUP2 GT ISZERO PUSH2 0xD056 JUMPI PUSH2 0xD055 PUSH2 0xEAFB JUMP JUMPDEST JUMPDEST DUP2 MLOAD DUP2 LT PUSH2 0xD067 JUMPI PUSH2 0xD066 PUSH2 0xF0D7 JUMP JUMPDEST JUMPDEST PUSH1 0x20 MUL PUSH1 0x20 ADD ADD SWAP1 PUSH2 0xFFFF AND SWAP1 DUP2 PUSH2 0xFFFF AND DUP2 MSTORE POP POP PUSH1 0x32 DUP2 PUSH1 0x12 PUSH1 0x13 DUP2 GT ISZERO PUSH2 0xD094 JUMPI PUSH2 0xD093 PUSH2 0xEAFB JUMP JUMPDEST JUMPDEST DUP2 MLOAD DUP2 LT PUSH2 0xD0A5 JUMPI PUSH2 0xD0A4 PUSH2 0xF0D7 JUMP JUMPDEST JUMPDEST PUSH1 0x20 MUL PUSH1 0x20 ADD ADD SWAP1 PUSH2 0xFFFF AND SWAP1 DUP2 PUSH2 0xFFFF AND DUP2 MSTORE POP POP PUSH1 0x10 DUP2 PUSH1 0x4 PUSH1 0x13 DUP2 GT ISZERO PUSH2 0xD0D2 JUMPI PUSH2 0xD0D1 PUSH2 0xEAFB JUMP JUMPDEST JUMPDEST DUP2 MLOAD DUP2 LT PUSH2 0xD0E3 JUMPI PUSH2 0xD0E2 PUSH2 0xF0D7 JUMP JUMPDEST JUMPDEST PUSH1 0x20 MUL PUSH1 0x20 ADD ADD SWAP1 PUSH2 0xFFFF AND SWAP1 DUP2 PUSH2 0xFFFF AND DUP2 MSTORE POP POP PUSH1 0xC DUP2 PUSH1 0xC PUSH1 0x13 DUP2 GT ISZERO PUSH2 0xD110 JUMPI PUSH2 0xD10F PUSH2 0xEAFB JUMP JUMPDEST JUMPDEST DUP2 MLOAD DUP2 LT PUSH2 0xD121 JUMPI PUSH2 0xD120 PUSH2 0xF0D7 JUMP JUMPDEST JUMPDEST PUSH1 0x20 MUL PUSH1 0x20 ADD ADD SWAP1 PUSH2 0xFFFF AND SWAP1 DUP2 PUSH2 0xFFFF AND DUP2 MSTORE POP POP PUSH1 0xC DUP2 PUSH1 0xF PUSH1 0x13 DUP2 GT ISZERO PUSH2 0xD14E JUMPI PUSH2 0xD14D PUSH2 0xEAFB JUMP JUMPDEST JUMPDEST DUP2 MLOAD DUP2 LT PUSH2 0xD15F JUMPI PUSH2 0xD15E PUSH2 0xF0D7 JUMP JUMPDEST JUMPDEST PUSH1 0x20 MUL PUSH1 0x20 ADD ADD SWAP1 PUSH2 0xFFFF AND SWAP1 DUP2 PUSH2 0xFFFF AND DUP2 MSTORE POP POP PUSH1 0xA DUP2 PUSH1 0x6 PUSH1 0x13 DUP2 GT ISZERO PUSH2 0xD18C JUMPI PUSH2 0xD18B PUSH2 0xEAFB JUMP JUMPDEST JUMPDEST DUP2 MLOAD DUP2 LT PUSH2 0xD19D JUMPI PUSH2 0xD19C PUSH2 0xF0D7 JUMP JUMPDEST JUMPDEST PUSH1 0x20 MUL PUSH1 0x20 ADD ADD SWAP1 PUSH2 0xFFFF AND SWAP1 DUP2 PUSH2 0xFFFF AND DUP2 MSTORE POP POP PUSH1 0xA DUP2 PUSH1 0x7 PUSH1 0x13 DUP2 GT ISZERO PUSH2 0xD1CA JUMPI PUSH2 0xD1C9 PUSH2 0xEAFB JUMP JUMPDEST JUMPDEST DUP2 MLOAD DUP2 LT PUSH2 0xD1DB JUMPI PUSH2 0xD1DA PUSH2 0xF0D7 JUMP JUMPDEST JUMPDEST PUSH1 0x20 MUL PUSH1 0x20 ADD ADD SWAP1 PUSH2 0xFFFF AND SWAP1 DUP2 PUSH2 0xFFFF AND DUP2 MSTORE POP POP PUSH1 0x8 DUP2 PUSH1 0x8 PUSH1 0x13 DUP2 GT ISZERO PUSH2 0xD208 JUMPI PUSH2 0xD207 PUSH2 0xEAFB JUMP JUMPDEST JUMPDEST DUP2 MLOAD DUP2 LT PUSH2 0xD219 JUMPI PUSH2 0xD218 PUSH2 0xF0D7 JUMP JUMPDEST JUMPDEST PUSH1 0x20 MUL PUSH1 0x20 ADD ADD SWAP1 PUSH2 0xFFFF AND SWAP1 DUP2 PUSH2 0xFFFF AND DUP2 MSTORE POP POP PUSH2 0xD86D JUMP JUMPDEST PUSH2 0xD246 DUP5 PUSH2 0xD241 SWAP1 PUSH2 0xFA46 JUMP JUMPDEST PUSH2 0xE6C9 JUMP JUMPDEST DUP1 PUSH2 0xD25F JUMPI POP PUSH2 0xD25E DUP5 PUSH2 0xD259 SWAP1 PUSH2 0xFA46 JUMP JUMPDEST PUSH2 0xE6FE JUMP JUMPDEST JUMPDEST DUP1 PUSH2 0xD278 JUMPI POP PUSH2 0xD277 DUP5 PUSH2 0xD272 SWAP1 PUSH2 0xFA46 JUMP JUMPDEST PUSH2 0xE733 JUMP JUMPDEST JUMPDEST ISZERO PUSH2 0xD4B0 JUMPI PUSH2 0x2495 DUP2 PUSH0 PUSH1 0x13 DUP2 GT ISZERO PUSH2 0xD294 JUMPI PUSH2 0xD293 PUSH2 0xEAFB JUMP JUMPDEST JUMPDEST DUP2 MLOAD DUP2 LT PUSH2 0xD2A5 JUMPI PUSH2 0xD2A4 PUSH2 0xF0D7 JUMP JUMPDEST JUMPDEST PUSH1 0x20 MUL PUSH1 0x20 ADD ADD SWAP1 PUSH2 0xFFFF AND SWAP1 DUP2 PUSH2 0xFFFF AND DUP2 MSTORE POP POP PUSH1 0xC8 DUP2 PUSH1 0xD PUSH1 0x13 DUP2 GT ISZERO PUSH2 0xD2D2 JUMPI PUSH2 0xD2D1 PUSH2 0xEAFB JUMP JUMPDEST JUMPDEST DUP2 MLOAD DUP2 LT PUSH2 0xD2E3 JUMPI PUSH2 0xD2E2 PUSH2 0xF0D7 JUMP JUMPDEST JUMPDEST PUSH1 0x20 MUL PUSH1 0x20 ADD ADD SWAP1 PUSH2 0xFFFF AND SWAP1 DUP2 PUSH2 0xFFFF AND DUP2 MSTORE POP POP PUSH1 0x4B DUP2 PUSH1 0x3 PUSH1 0x13 DUP2 GT ISZERO PUSH2 0xD310 JUMPI PUSH2 0xD30F PUSH2 0xEAFB JUMP JUMPDEST JUMPDEST DUP2 MLOAD DUP2 LT PUSH2 0xD321 JUMPI PUSH2 0xD320 PUSH2 0xF0D7 JUMP JUMPDEST JUMPDEST PUSH1 0x20 MUL PUSH1 0x20 ADD ADD SWAP1 PUSH2 0xFFFF AND SWAP1 DUP2 PUSH2 0xFFFF AND DUP2 MSTORE POP POP PUSH1 0x32 DUP2 PUSH1 0x12 PUSH1 0x13 DUP2 GT ISZERO PUSH2 0xD34E JUMPI PUSH2 0xD34D PUSH2 0xEAFB JUMP JUMPDEST JUMPDEST DUP2 MLOAD DUP2 LT PUSH2 0xD35F JUMPI PUSH2 0xD35E PUSH2 0xF0D7 JUMP JUMPDEST JUMPDEST PUSH1 0x20 MUL PUSH1 0x20 ADD ADD SWAP1 PUSH2 0xFFFF AND SWAP1 DUP2 PUSH2 0xFFFF AND DUP2 MSTORE POP POP PUSH1 0x10 DUP2 PUSH1 0x4 PUSH1 0x13 DUP2 GT ISZERO PUSH2 0xD38C JUMPI PUSH2 0xD38B PUSH2 0xEAFB JUMP JUMPDEST JUMPDEST DUP2 MLOAD DUP2 LT PUSH2 0xD39D JUMPI PUSH2 0xD39C PUSH2 0xF0D7 JUMP JUMPDEST JUMPDEST PUSH1 0x20 MUL PUSH1 0x20 ADD ADD SWAP1 PUSH2 0xFFFF AND SWAP1 DUP2 PUSH2 0xFFFF AND DUP2 MSTORE POP POP PUSH1 0xC DUP2 PUSH1 0xC PUSH1 0x13 DUP2 GT ISZERO PUSH2 0xD3CA JUMPI PUSH2 0xD3C9 PUSH2 0xEAFB JUMP JUMPDEST JUMPDEST DUP2 MLOAD DUP2 LT PUSH2 0xD3DB JUMPI PUSH2 0xD3DA PUSH2 0xF0D7 JUMP JUMPDEST JUMPDEST PUSH1 0x20 MUL PUSH1 0x20 ADD ADD SWAP1 PUSH2 0xFFFF AND SWAP1 DUP2 PUSH2 0xFFFF AND DUP2 MSTORE POP POP PUSH1 0xC DUP2 PUSH1 0xF PUSH1 0x13 DUP2 GT ISZERO PUSH2 0xD408 JUMPI PUSH2 0xD407 PUSH2 0xEAFB JUMP JUMPDEST JUMPDEST DUP2 MLOAD DUP2 LT PUSH2 0xD419 JUMPI PUSH2 0xD418 PUSH2 0xF0D7 JUMP JUMPDEST JUMPDEST PUSH1 0x20 MUL PUSH1 0x20 ADD ADD SWAP1 PUSH2 0xFFFF AND SWAP1 DUP2 PUSH2 0xFFFF AND DUP2 MSTORE POP POP PUSH1 0xA DUP2 PUSH1 0x6 PUSH1 0x13 DUP2 GT ISZERO PUSH2 0xD446 JUMPI PUSH2 0xD445 PUSH2 0xEAFB JUMP JUMPDEST JUMPDEST DUP2 MLOAD DUP2 LT PUSH2 0xD457 JUMPI PUSH2 0xD456 PUSH2 0xF0D7 JUMP JUMPDEST JUMPDEST PUSH1 0x20 MUL PUSH1 0x20 ADD ADD SWAP1 PUSH2 0xFFFF AND SWAP1 DUP2 PUSH2 0xFFFF AND DUP2 MSTORE POP POP PUSH1 0xA DUP2 PUSH1 0x7 PUSH1 0x13 DUP2 GT ISZERO PUSH2 0xD484 JUMPI PUSH2 0xD483 PUSH2 0xEAFB JUMP JUMPDEST JUMPDEST DUP2 MLOAD DUP2 LT PUSH2 0xD495 JUMPI PUSH2 0xD494 PUSH2 0xF0D7 JUMP JUMPDEST JUMPDEST PUSH1 0x20 MUL PUSH1 0x20 ADD ADD SWAP1 PUSH2 0xFFFF AND SWAP1 DUP2 PUSH2 0xFFFF AND DUP2 MSTORE POP POP PUSH2 0xD86C JUMP JUMPDEST PUSH2 0xD4C2 DUP5 PUSH2 0xD4BD SWAP1 PUSH2 0xFA46 JUMP JUMPDEST PUSH2 0xE767 JUMP JUMPDEST DUP1 PUSH2 0xD4DB JUMPI POP PUSH2 0xD4DA DUP5 PUSH2 0xD4D5 SWAP1 PUSH2 0xFA46 JUMP JUMPDEST PUSH2 0xE79C JUMP JUMPDEST JUMPDEST DUP1 PUSH2 0xD4F4 JUMPI POP PUSH2 0xD4F3 DUP5 PUSH2 0xD4EE SWAP1 PUSH2 0xFA46 JUMP JUMPDEST PUSH2 0xE137 JUMP JUMPDEST JUMPDEST DUP1 PUSH2 0xD50D JUMPI POP PUSH2 0xD50C DUP5 PUSH2 0xD507 SWAP1 PUSH2 0xFA46 JUMP JUMPDEST PUSH2 0xE7D1 JUMP JUMPDEST JUMPDEST DUP1 PUSH2 0xD526 JUMPI POP PUSH2 0xD525 DUP5 PUSH2 0xD520 SWAP1 PUSH2 0xFA46 JUMP JUMPDEST PUSH2 0xE806 JUMP JUMPDEST JUMPDEST DUP1 PUSH2 0xD53F JUMPI POP PUSH2 0xD53E DUP5 PUSH2 0xD539 SWAP1 PUSH2 0xFA46 JUMP JUMPDEST PUSH2 0xE83B JUMP JUMPDEST JUMPDEST DUP1 PUSH2 0xD558 JUMPI POP PUSH2 0xD557 DUP5 PUSH2 0xD552 SWAP1 PUSH2 0xFA46 JUMP JUMPDEST PUSH2 0xE870 JUMP JUMPDEST JUMPDEST DUP1 PUSH2 0xD571 JUMPI POP PUSH2 0xD570 DUP5 PUSH2 0xD56B SWAP1 PUSH2 0xFA46 JUMP JUMPDEST PUSH2 0xE283 JUMP JUMPDEST JUMPDEST ISZERO PUSH2 0xD862 JUMPI PUSH2 0x2495 DUP2 PUSH0 PUSH1 0x13 DUP2 GT ISZERO PUSH2 0xD58D JUMPI PUSH2 0xD58C PUSH2 0xEAFB JUMP JUMPDEST JUMPDEST DUP2 MLOAD DUP2 LT PUSH2 0xD59E JUMPI PUSH2 0xD59D PUSH2 0xF0D7 JUMP JUMPDEST JUMPDEST PUSH1 0x20 MUL PUSH1 0x20 ADD ADD SWAP1 PUSH2 0xFFFF AND SWAP1 DUP2 PUSH2 0xFFFF AND DUP2 MSTORE POP POP PUSH1 0xC8 DUP2 PUSH1 0xD PUSH1 0x13 DUP2 GT ISZERO PUSH2 0xD5CB JUMPI PUSH2 0xD5CA PUSH2 0xEAFB JUMP JUMPDEST JUMPDEST DUP2 MLOAD DUP2 LT PUSH2 0xD5DC JUMPI PUSH2 0xD5DB PUSH2 0xF0D7 JUMP JUMPDEST JUMPDEST PUSH1 0x20 MUL PUSH1 0x20 ADD ADD SWAP1 PUSH2 0xFFFF AND SWAP1 DUP2 PUSH2 0xFFFF AND DUP2 MSTORE POP POP PUSH1 0x23 DUP2 PUSH1 0x5 PUSH1 0x13 DUP2 GT ISZERO PUSH2 0xD609 JUMPI PUSH2 0xD608 PUSH2 0xEAFB JUMP JUMPDEST JUMPDEST DUP2 MLOAD DUP2 LT PUSH2 0xD61A JUMPI PUSH2 0xD619 PUSH2 0xF0D7 JUMP JUMPDEST JUMPDEST PUSH1 0x20 MUL PUSH1 0x20 ADD ADD SWAP1 PUSH2 0xFFFF AND SWAP1 DUP2 PUSH2 0xFFFF AND DUP2 MSTORE POP POP PUSH1 0x16 DUP2 PUSH1 0x13 DUP1 DUP2 GT ISZERO PUSH2 0xD646 JUMPI PUSH2 0xD645 PUSH2 0xEAFB JUMP JUMPDEST JUMPDEST DUP2 MLOAD DUP2 LT PUSH2 0xD657 JUMPI PUSH2 0xD656 PUSH2 0xF0D7 JUMP JUMPDEST JUMPDEST PUSH1 0x20 MUL PUSH1 0x20 ADD ADD SWAP1 PUSH2 0xFFFF AND SWAP1 DUP2 PUSH2 0xFFFF AND DUP2 MSTORE POP POP PUSH1 0x14 DUP2 PUSH1 0xA PUSH1 0x13 DUP2 GT ISZERO PUSH2 0xD684 JUMPI PUSH2 0xD683 PUSH2 0xEAFB JUMP JUMPDEST JUMPDEST DUP2 MLOAD DUP2 LT PUSH2 0xD695 JUMPI PUSH2 0xD694 PUSH2 0xF0D7 JUMP JUMPDEST JUMPDEST PUSH1 0x20 MUL PUSH1 0x20 ADD ADD SWAP1 PUSH2 0xFFFF AND SWAP1 DUP2 PUSH2 0xFFFF AND DUP2 MSTORE POP POP PUSH1 0x12 DUP2 PUSH1 0x1 PUSH1 0x13 DUP2 GT ISZERO PUSH2 0xD6C2 JUMPI PUSH2 0xD6C1 PUSH2 0xEAFB JUMP JUMPDEST JUMPDEST DUP2 MLOAD DUP2 LT PUSH2 0xD6D3 JUMPI PUSH2 0xD6D2 PUSH2 0xF0D7 JUMP JUMPDEST JUMPDEST PUSH1 0x20 MUL PUSH1 0x20 ADD ADD SWAP1 PUSH2 0xFFFF AND SWAP1 DUP2 PUSH2 0xFFFF AND DUP2 MSTORE POP POP PUSH1 0x10 DUP2 PUSH1 0x2 PUSH1 0x13 DUP2 GT ISZERO PUSH2 0xD700 JUMPI PUSH2 0xD6FF PUSH2 0xEAFB JUMP JUMPDEST JUMPDEST DUP2 MLOAD DUP2 LT PUSH2 0xD711 JUMPI PUSH2 0xD710 PUSH2 0xF0D7 JUMP JUMPDEST JUMPDEST PUSH1 0x20 MUL PUSH1 0x20 ADD ADD SWAP1 PUSH2 0xFFFF AND SWAP1 DUP2 PUSH2 0xFFFF AND DUP2 MSTORE POP POP PUSH1 0xE DUP2 PUSH1 0x11 PUSH1 0x13 DUP2 GT ISZERO PUSH2 0xD73E JUMPI PUSH2 0xD73D PUSH2 0xEAFB JUMP JUMPDEST JUMPDEST DUP2 MLOAD DUP2 LT PUSH2 0xD74F JUMPI PUSH2 0xD74E PUSH2 0xF0D7 JUMP JUMPDEST JUMPDEST PUSH1 0x20 MUL PUSH1 0x20 ADD ADD SWAP1 PUSH2 0xFFFF AND SWAP1 DUP2 PUSH2 0xFFFF AND DUP2 MSTORE POP POP PUSH1 0xC DUP2 PUSH1 0x9 PUSH1 0x13 DUP2 GT ISZERO PUSH2 0xD77C JUMPI PUSH2 0xD77B PUSH2 0xEAFB JUMP JUMPDEST JUMPDEST DUP2 MLOAD DUP2 LT PUSH2 0xD78D JUMPI PUSH2 0xD78C PUSH2 0xF0D7 JUMP JUMPDEST JUMPDEST PUSH1 0x20 MUL PUSH1 0x20 ADD ADD SWAP1 PUSH2 0xFFFF AND SWAP1 DUP2 PUSH2 0xFFFF AND DUP2 MSTORE POP POP PUSH1 0xA DUP2 PUSH1 0x10 PUSH1 0x13 DUP2 GT ISZERO PUSH2 0xD7BA JUMPI PUSH2 0xD7B9 PUSH2 0xEAFB JUMP JUMPDEST JUMPDEST DUP2 MLOAD DUP2 LT PUSH2 0xD7CB JUMPI PUSH2 0xD7CA PUSH2 0xF0D7 JUMP JUMPDEST JUMPDEST PUSH1 0x20 MUL PUSH1 0x20 ADD ADD SWAP1 PUSH2 0xFFFF AND SWAP1 DUP2 PUSH2 0xFFFF AND DUP2 MSTORE POP POP PUSH1 0x8 DUP2 PUSH1 0xB PUSH1 0x13 DUP2 GT ISZERO PUSH2 0xD7F8 JUMPI PUSH2 0xD7F7 PUSH2 0xEAFB JUMP JUMPDEST JUMPDEST DUP2 MLOAD DUP2 LT PUSH2 0xD809 JUMPI PUSH2 0xD808 PUSH2 0xF0D7 JUMP JUMPDEST JUMPDEST PUSH1 0x20 MUL PUSH1 0x20 ADD ADD SWAP1 PUSH2 0xFFFF AND SWAP1 DUP2 PUSH2 0xFFFF AND DUP2 MSTORE POP POP PUSH1 0x4B DUP2 PUSH1 0x3 PUSH1 0x13 DUP2 GT ISZERO PUSH2 0xD836 JUMPI PUSH2 0xD835 PUSH2 0xEAFB JUMP JUMPDEST JUMPDEST DUP2 MLOAD DUP2 LT PUSH2 0xD847 JUMPI PUSH2 0xD846 PUSH2 0xF0D7 JUMP JUMPDEST JUMPDEST PUSH1 0x20 MUL PUSH1 0x20 ADD ADD SWAP1 PUSH2 0xFFFF AND SWAP1 DUP2 PUSH2 0xFFFF AND DUP2 MSTORE POP POP PUSH2 0xD86B JUMP JUMPDEST PUSH0 SWAP2 POP POP PUSH2 0xD892 JUMP JUMPDEST JUMPDEST JUMPDEST PUSH0 PUSH2 0xD878 DUP5 DUP4 PUSH2 0xE0C9 JUMP JUMPDEST SWAP1 POP DUP1 PUSH1 0x13 DUP2 GT ISZERO PUSH2 0xD88D JUMPI PUSH2 0xD88C PUSH2 0xEAFB JUMP JUMPDEST JUMPDEST SWAP3 POP POP POP JUMPDEST SWAP3 SWAP2 POP POP JUMP JUMPDEST PUSH0 PUSH0 PUSH1 0x16 PUSH8 0xFFFFFFFFFFFFFFFF DUP2 GT ISZERO PUSH2 0xD8B5 JUMPI PUSH2 0xD8B4 PUSH2 0xE9D4 JUMP JUMPDEST JUMPDEST PUSH1 0x40 MLOAD SWAP1 DUP1 DUP3 MSTORE DUP1 PUSH1 0x20 MUL PUSH1 0x20 ADD DUP3 ADD PUSH1 0x40 MSTORE DUP1 ISZERO PUSH2 0xD8E3 JUMPI DUP2 PUSH1 0x20 ADD PUSH1 0x20 DUP3 MUL DUP1 CALLDATASIZE DUP4 CALLDATACOPY DUP1 DUP3 ADD SWAP2 POP POP SWAP1 POP JUMPDEST POP SWAP1 POP PUSH2 0x253F DUP2 PUSH0 PUSH1 0x15 DUP2 GT ISZERO PUSH2 0xD8FD JUMPI PUSH2 0xD8FC PUSH2 0xEAFB JUMP JUMPDEST JUMPDEST DUP2 MLOAD DUP2 LT PUSH2 0xD90E JUMPI PUSH2 0xD90D PUSH2 0xF0D7 JUMP JUMPDEST JUMPDEST PUSH1 0x20 MUL PUSH1 0x20 ADD ADD SWAP1 PUSH2 0xFFFF AND SWAP1 DUP2 PUSH2 0xFFFF AND DUP2 MSTORE POP POP PUSH1 0x28 DUP2 PUSH1 0x6 PUSH1 0x15 DUP2 GT ISZERO PUSH2 0xD93B JUMPI PUSH2 0xD93A PUSH2 0xEAFB JUMP JUMPDEST JUMPDEST DUP2 MLOAD DUP2 LT PUSH2 0xD94C JUMPI PUSH2 0xD94B PUSH2 0xF0D7 JUMP JUMPDEST JUMPDEST PUSH1 0x20 MUL PUSH1 0x20 ADD ADD SWAP1 PUSH2 0xFFFF AND SWAP1 DUP2 PUSH2 0xFFFF AND DUP2 MSTORE POP POP PUSH1 0x19 DUP2 PUSH1 0x7 PUSH1 0x15 DUP2 GT ISZERO PUSH2 0xD979 JUMPI PUSH2 0xD978 PUSH2 0xEAFB JUMP JUMPDEST JUMPDEST DUP2 MLOAD DUP2 LT PUSH2 0xD98A JUMPI PUSH2 0xD989 PUSH2 0xF0D7 JUMP JUMPDEST JUMPDEST PUSH1 0x20 MUL PUSH1 0x20 ADD ADD SWAP1 PUSH2 0xFFFF AND SWAP1 DUP2 PUSH2 0xFFFF AND DUP2 MSTORE POP POP PUSH1 0x19 DUP2 PUSH1 0x8 PUSH1 0x15 DUP2 GT ISZERO PUSH2 0xD9B7 JUMPI PUSH2 0xD9B6 PUSH2 0xEAFB JUMP JUMPDEST JUMPDEST DUP2 MLOAD DUP2 LT PUSH2 0xD9C8 JUMPI PUSH2 0xD9C7 PUSH2 0xF0D7 JUMP JUMPDEST JUMPDEST PUSH1 0x20 MUL PUSH1 0x20 ADD ADD SWAP1 PUSH2 0xFFFF AND SWAP1 DUP2 PUSH2 0xFFFF AND DUP2 MSTORE POP POP PUSH1 0x19 DUP2 PUSH1 0x9 PUSH1 0x15 DUP2 GT ISZERO PUSH2 0xD9F5 JUMPI PUSH2 0xD9F4 PUSH2 0xEAFB JUMP JUMPDEST JUMPDEST DUP2 MLOAD DUP2 LT PUSH2 0xDA06 JUMPI PUSH2 0xDA05 PUSH2 0xF0D7 JUMP JUMPDEST JUMPDEST PUSH1 0x20 MUL PUSH1 0x20 ADD ADD SWAP1 PUSH2 0xFFFF AND SWAP1 DUP2 PUSH2 0xFFFF AND DUP2 MSTORE POP POP PUSH1 0x19 DUP2 PUSH1 0xA PUSH1 0x15 DUP2 GT ISZERO PUSH2 0xDA33 JUMPI PUSH2 0xDA32 PUSH2 0xEAFB JUMP JUMPDEST JUMPDEST DUP2 MLOAD DUP2 LT PUSH2 0xDA44 JUMPI PUSH2 0xDA43 PUSH2 0xF0D7 JUMP JUMPDEST JUMPDEST PUSH1 0x20 MUL PUSH1 0x20 ADD ADD SWAP1 PUSH2 0xFFFF AND SWAP1 DUP2 PUSH2 0xFFFF AND DUP2 MSTORE POP POP PUSH1 0x19 DUP2 PUSH1 0xB PUSH1 0x15 DUP2 GT ISZERO PUSH2 0xDA71 JUMPI PUSH2 0xDA70 PUSH2 0xEAFB JUMP JUMPDEST JUMPDEST DUP2 MLOAD DUP2 LT PUSH2 0xDA82 JUMPI PUSH2 0xDA81 PUSH2 0xF0D7 JUMP JUMPDEST JUMPDEST PUSH1 0x20 MUL PUSH1 0x20 ADD ADD SWAP1 PUSH2 0xFFFF AND SWAP1 DUP2 PUSH2 0xFFFF AND DUP2 MSTORE POP POP PUSH1 0x19 DUP2 PUSH1 0xC PUSH1 0x15 DUP2 GT ISZERO PUSH2 0xDAAF JUMPI PUSH2 0xDAAE PUSH2 0xEAFB JUMP JUMPDEST JUMPDEST DUP2 MLOAD DUP2 LT PUSH2 0xDAC0 JUMPI PUSH2 0xDABF PUSH2 0xF0D7 JUMP JUMPDEST JUMPDEST PUSH1 0x20 MUL PUSH1 0x20 ADD ADD SWAP1 PUSH2 0xFFFF AND SWAP1 DUP2 PUSH2 0xFFFF AND DUP2 MSTORE POP POP PUSH1 0x19 DUP2 PUSH1 0xD PUSH1 0x15 DUP2 GT ISZERO PUSH2 0xDAED JUMPI PUSH2 0xDAEC PUSH2 0xEAFB JUMP JUMPDEST JUMPDEST DUP2 MLOAD DUP2 LT PUSH2 0xDAFE JUMPI PUSH2 0xDAFD PUSH2 0xF0D7 JUMP JUMPDEST JUMPDEST PUSH1 0x20 MUL PUSH1 0x20 ADD ADD SWAP1 PUSH2 0xFFFF AND SWAP1 DUP2 PUSH2 0xFFFF AND DUP2 MSTORE POP POP PUSH1 0x19 DUP2 PUSH1 0xE PUSH1 0x15 DUP2 GT ISZERO PUSH2 0xDB2B JUMPI PUSH2 0xDB2A PUSH2 0xEAFB JUMP JUMPDEST JUMPDEST DUP2 MLOAD DUP2 LT PUSH2 0xDB3C JUMPI PUSH2 0xDB3B PUSH2 0xF0D7 JUMP JUMPDEST JUMPDEST PUSH1 0x20 MUL PUSH1 0x20 ADD ADD SWAP1 PUSH2 0xFFFF AND SWAP1 DUP2 PUSH2 0xFFFF AND DUP2 MSTORE POP POP PUSH1 0x1E DUP2 PUSH1 0x1 PUSH1 0x15 DUP2 GT ISZERO PUSH2 0xDB69 JUMPI PUSH2 0xDB68 PUSH2 0xEAFB JUMP JUMPDEST JUMPDEST DUP2 MLOAD DUP2 LT PUSH2 0xDB7A JUMPI PUSH2 0xDB79 PUSH2 0xF0D7 JUMP JUMPDEST JUMPDEST PUSH1 0x20 MUL PUSH1 0x20 ADD ADD SWAP1 PUSH2 0xFFFF AND SWAP1 DUP2 PUSH2 0xFFFF AND DUP2 MSTORE POP POP PUSH1 0x1E DUP2 PUSH1 0x2 PUSH1 0x15 DUP2 GT ISZERO PUSH2 0xDBA7 JUMPI PUSH2 0xDBA6 PUSH2 0xEAFB JUMP JUMPDEST JUMPDEST DUP2 MLOAD DUP2 LT PUSH2 0xDBB8 JUMPI PUSH2 0xDBB7 PUSH2 0xF0D7 JUMP JUMPDEST JUMPDEST PUSH1 0x20 MUL PUSH1 0x20 ADD ADD SWAP1 PUSH2 0xFFFF AND SWAP1 DUP2 PUSH2 0xFFFF AND DUP2 MSTORE POP POP PUSH1 0x1E DUP2 PUSH1 0x3 PUSH1 0x15 DUP2 GT ISZERO PUSH2 0xDBE5 JUMPI PUSH2 0xDBE4 PUSH2 0xEAFB JUMP JUMPDEST JUMPDEST DUP2 MLOAD DUP2 LT PUSH2 0xDBF6 JUMPI PUSH2 0xDBF5 PUSH2 0xF0D7 JUMP JUMPDEST JUMPDEST PUSH1 0x20 MUL PUSH1 0x20 ADD ADD SWAP1 PUSH2 0xFFFF AND SWAP1 DUP2 PUSH2 0xFFFF AND DUP2 MSTORE POP POP PUSH1 0x1E DUP2 PUSH1 0x4 PUSH1 0x15 DUP2 GT ISZERO PUSH2 0xDC23 JUMPI PUSH2 0xDC22 PUSH2 0xEAFB JUMP JUMPDEST JUMPDEST DUP2 MLOAD DUP2 LT PUSH2 0xDC34 JUMPI PUSH2 0xDC33 PUSH2 0xF0D7 JUMP JUMPDEST JUMPDEST PUSH1 0x20 MUL PUSH1 0x20 ADD ADD SWAP1 PUSH2 0xFFFF AND SWAP1 DUP2 PUSH2 0xFFFF AND DUP2 MSTORE POP POP PUSH1 0xA DUP2 PUSH1 0x11 PUSH1 0x15 DUP2 GT ISZERO PUSH2 0xDC61 JUMPI PUSH2 0xDC60 PUSH2 0xEAFB JUMP JUMPDEST JUMPDEST DUP2 MLOAD DUP2 LT PUSH2 0xDC72 JUMPI PUSH2 0xDC71 PUSH2 0xF0D7 JUMP JUMPDEST JUMPDEST PUSH1 0x20 MUL PUSH1 0x20 ADD ADD SWAP1 PUSH2 0xFFFF AND SWAP1 DUP2 PUSH2 0xFFFF AND DUP2 MSTORE POP POP PUSH1 0xA DUP2 PUSH1 0x12 PUSH1 0x15 DUP2 GT ISZERO PUSH2 0xDC9F JUMPI PUSH2 0xDC9E PUSH2 0xEAFB JUMP JUMPDEST JUMPDEST DUP2 MLOAD DUP2 LT PUSH2 0xDCB0 JUMPI PUSH2 0xDCAF PUSH2 0xF0D7 JUMP JUMPDEST JUMPDEST PUSH1 0x20 MUL PUSH1 0x20 ADD ADD SWAP1 PUSH2 0xFFFF AND SWAP1 DUP2 PUSH2 0xFFFF AND DUP2 MSTORE POP POP PUSH1 0xA DUP2 PUSH1 0x13 PUSH1 0x15 DUP2 GT ISZERO PUSH2 0xDCDD JUMPI PUSH2 0xDCDC PUSH2 0xEAFB JUMP JUMPDEST JUMPDEST DUP2 MLOAD DUP2 LT PUSH2 0xDCEE JUMPI PUSH2 0xDCED PUSH2 0xF0D7 JUMP JUMPDEST JUMPDEST PUSH1 0x20 MUL PUSH1 0x20 ADD ADD SWAP1 PUSH2 0xFFFF AND SWAP1 DUP2 PUSH2 0xFFFF AND DUP2 MSTORE POP POP PUSH1 0xA DUP2 PUSH1 0x14 PUSH1 0x15 DUP2 GT ISZERO PUSH2 0xDD1B JUMPI PUSH2 0xDD1A PUSH2 0xEAFB JUMP JUMPDEST JUMPDEST DUP2 MLOAD DUP2 LT PUSH2 0xDD2C JUMPI PUSH2 0xDD2B PUSH2 0xF0D7 JUMP JUMPDEST JUMPDEST PUSH1 0x20 MUL PUSH1 0x20 ADD ADD SWAP1 PUSH2 0xFFFF AND SWAP1 DUP2 PUSH2 0xFFFF AND DUP2 MSTORE POP POP PUSH1 0xA DUP2 PUSH1 0x15 DUP1 DUP2 GT ISZERO PUSH2 0xDD58 JUMPI PUSH2 0xDD57 PUSH2 0xEAFB JUMP JUMPDEST JUMPDEST DUP2 MLOAD DUP2 LT PUSH2 0xDD69 JUMPI PUSH2 0xDD68 PUSH2 0xF0D7 JUMP JUMPDEST JUMPDEST PUSH1 0x20 MUL PUSH1 0x20 ADD ADD SWAP1 PUSH2 0xFFFF AND SWAP1 DUP2 PUSH2 0xFFFF AND DUP2 MSTORE POP POP PUSH1 0x1E DUP2 PUSH1 0x5 PUSH1 0x15 DUP2 GT ISZERO PUSH2 0xDD96 JUMPI PUSH2 0xDD95 PUSH2 0xEAFB JUMP JUMPDEST JUMPDEST DUP2 MLOAD DUP2 LT PUSH2 0xDDA7 JUMPI PUSH2 0xDDA6 PUSH2 0xF0D7 JUMP JUMPDEST JUMPDEST PUSH1 0x20 MUL PUSH1 0x20 ADD ADD SWAP1 PUSH2 0xFFFF AND SWAP1 DUP2 PUSH2 0xFFFF AND DUP2 MSTORE POP POP PUSH1 0xF DUP2 PUSH1 0xF PUSH1 0x15 DUP2 GT ISZERO PUSH2 0xDDD4 JUMPI PUSH2 0xDDD3 PUSH2 0xEAFB JUMP JUMPDEST JUMPDEST DUP2 MLOAD DUP2 LT PUSH2 0xDDE5 JUMPI PUSH2 0xDDE4 PUSH2 0xF0D7 JUMP JUMPDEST JUMPDEST PUSH1 0x20 MUL PUSH1 0x20 ADD ADD SWAP1 PUSH2 0xFFFF AND SWAP1 DUP2 PUSH2 0xFFFF AND DUP2 MSTORE POP POP PUSH0 PUSH2 0xDE06 DUP5 DUP4 PUSH2 0xE0C9 JUMP JUMPDEST SWAP1 POP DUP1 PUSH1 0x15 DUP2 GT ISZERO PUSH2 0xDE1B JUMPI PUSH2 0xDE1A PUSH2 0xEAFB JUMP JUMPDEST JUMPDEST SWAP3 POP POP POP SWAP2 SWAP1 POP JUMP JUMPDEST PUSH0 PUSH0 PUSH1 0x9 PUSH8 0xFFFFFFFFFFFFFFFF DUP2 GT ISZERO PUSH2 0xDE41 JUMPI PUSH2 0xDE40 PUSH2 0xE9D4 JUMP JUMPDEST JUMPDEST PUSH1 0x40 MLOAD SWAP1 DUP1 DUP3 MSTORE DUP1 PUSH1 0x20 MUL PUSH1 0x20 ADD DUP3 ADD PUSH1 0x40 MSTORE DUP1 ISZERO PUSH2 0xDE6F JUMPI DUP2 PUSH1 0x20 ADD PUSH1 0x20 DUP3 MUL DUP1 CALLDATASIZE DUP4 CALLDATACOPY DUP1 DUP3 ADD SWAP2 POP POP SWAP1 POP JUMPDEST POP SWAP1 POP PUSH2 0x2328 DUP2 PUSH0 PUSH1 0x8 DUP2 GT ISZERO PUSH2 0xDE89 JUMPI PUSH2 0xDE88 PUSH2 0xEAFB JUMP JUMPDEST JUMPDEST DUP2 MLOAD DUP2 LT PUSH2 0xDE9A JUMPI PUSH2 0xDE99 PUSH2 0xF0D7 JUMP JUMPDEST JUMPDEST PUSH1 0x20 MUL PUSH1 0x20 ADD ADD SWAP1 PUSH2 0xFFFF AND SWAP1 DUP2 PUSH2 0xFFFF AND DUP2 MSTORE POP POP PUSH2 0x15E DUP2 PUSH1 0x5 PUSH1 0x8 DUP2 GT ISZERO PUSH2 0xDEC8 JUMPI PUSH2 0xDEC7 PUSH2 0xEAFB JUMP JUMPDEST JUMPDEST DUP2 MLOAD DUP2 LT PUSH2 0xDED9 JUMPI PUSH2 0xDED8 PUSH2 0xF0D7 JUMP JUMPDEST JUMPDEST PUSH1 0x20 MUL PUSH1 0x20 ADD ADD SWAP1 PUSH2 0xFFFF AND SWAP1 DUP2 PUSH2 0xFFFF AND DUP2 MSTORE POP POP PUSH1 0xFA DUP2 PUSH1 0x1 PUSH1 0x8 DUP2 GT ISZERO PUSH2 0xDF06 JUMPI PUSH2 0xDF05 PUSH2 0xEAFB JUMP JUMPDEST JUMPDEST DUP2 MLOAD DUP2 LT PUSH2 0xDF17 JUMPI PUSH2 0xDF16 PUSH2 0xF0D7 JUMP JUMPDEST JUMPDEST PUSH1 0x20 MUL PUSH1 0x20 ADD ADD SWAP1 PUSH2 0xFFFF AND SWAP1 DUP2 PUSH2 0xFFFF AND DUP2 MSTORE POP POP PUSH1 0x8C DUP2 PUSH1 0x4 PUSH1 0x8 DUP2 GT ISZERO PUSH2 0xDF44 JUMPI PUSH2 0xDF43 PUSH2 0xEAFB JUMP JUMPDEST JUMPDEST DUP2 MLOAD DUP2 LT PUSH2 0xDF55 JUMPI PUSH2 0xDF54 PUSH2 0xF0D7 JUMP JUMPDEST JUMPDEST PUSH1 0x20 MUL PUSH1 0x20 ADD ADD SWAP1 PUSH2 0xFFFF AND SWAP1 DUP2 PUSH2 0xFFFF AND DUP2 MSTORE POP POP PUSH1 0x64 DUP2 PUSH1 0x8 DUP1 DUP2 GT ISZERO PUSH2 0xDF81 JUMPI PUSH2 0xDF80 PUSH2 0xEAFB JUMP JUMPDEST JUMPDEST DUP2 MLOAD DUP2 LT PUSH2 0xDF92 JUMPI PUSH2 0xDF91 PUSH2 0xF0D7 JUMP JUMPDEST JUMPDEST PUSH1 0x20 MUL PUSH1 0x20 ADD ADD SWAP1 PUSH2 0xFFFF AND SWAP1 DUP2 PUSH2 0xFFFF AND DUP2 MSTORE POP POP PUSH1 0x4B DUP2 PUSH1 0x3 PUSH1 0x8 DUP2 GT ISZERO PUSH2 0xDFBF JUMPI PUSH2 0xDFBE PUSH2 0xEAFB JUMP JUMPDEST JUMPDEST DUP2 MLOAD DUP2 LT PUSH2 0xDFD0 JUMPI PUSH2 0xDFCF PUSH2 0xF0D7 JUMP JUMPDEST JUMPDEST PUSH1 0x20 MUL PUSH1 0x20 ADD ADD SWAP1 PUSH2 0xFFFF AND SWAP1 DUP2 PUSH2 0xFFFF AND DUP2 MSTORE POP POP PUSH1 0x32 DUP2 PUSH1 0x7 PUSH1 0x8 DUP2 GT ISZERO PUSH2 0xDFFD JUMPI PUSH2 0xDFFC PUSH2 0xEAFB JUMP JUMPDEST JUMPDEST DUP2 MLOAD DUP2 LT PUSH2 0xE00E JUMPI PUSH2 0xE00D PUSH2 0xF0D7 JUMP JUMPDEST JUMPDEST PUSH1 0x20 MUL PUSH1 0x20 ADD ADD SWAP1 PUSH2 0xFFFF AND SWAP1 DUP2 PUSH2 0xFFFF AND DUP2 MSTORE POP POP PUSH1 0x19 DUP2 PUSH1 0x2 PUSH1 0x8 DUP2 GT ISZERO PUSH2 0xE03B JUMPI PUSH2 0xE03A PUSH2 0xEAFB JUMP JUMPDEST JUMPDEST DUP2 MLOAD DUP2 LT PUSH2 0xE04C JUMPI PUSH2 0xE04B PUSH2 0xF0D7 JUMP JUMPDEST JUMPDEST PUSH1 0x20 MUL PUSH1 0x20 ADD ADD SWAP1 PUSH2 0xFFFF AND SWAP1 DUP2 PUSH2 0xFFFF AND DUP2 MSTORE POP POP PUSH1 0xA DUP2 PUSH1 0x6 PUSH1 0x8 DUP2 GT ISZERO PUSH2 0xE079 JUMPI PUSH2 0xE078 PUSH2 0xEAFB JUMP JUMPDEST JUMPDEST DUP2 MLOAD DUP2 LT PUSH2 0xE08A JUMPI PUSH2 0xE089 PUSH2 0xF0D7 JUMP JUMPDEST JUMPDEST PUSH1 0x20 MUL PUSH1 0x20 ADD ADD SWAP1 PUSH2 0xFFFF AND SWAP1 DUP2 PUSH2 0xFFFF AND DUP2 MSTORE POP POP PUSH0 PUSH2 0xE0AB DUP5 DUP4 PUSH2 0xE0C9 JUMP JUMPDEST SWAP1 POP DUP1 PUSH1 0x8 DUP2 GT ISZERO PUSH2 0xE0C0 JUMPI PUSH2 0xE0BF PUSH2 0xEAFB JUMP JUMPDEST JUMPDEST SWAP3 POP POP POP SWAP2 SWAP1 POP JUMP JUMPDEST PUSH0 PUSH0 PUSH0 SWAP1 POP PUSH0 PUSH0 SWAP1 POP JUMPDEST DUP4 MLOAD DUP2 LT ISZERO PUSH2 0xE115 JUMPI DUP4 DUP2 DUP2 MLOAD DUP2 LT PUSH2 0xE0EF JUMPI PUSH2 0xE0EE PUSH2 0xF0D7 JUMP JUMPDEST JUMPDEST PUSH1 0x20 MUL PUSH1 0x20 ADD ADD MLOAD PUSH2 0xFFFF AND DUP3 PUSH2 0xE106 SWAP2 SWAP1 PUSH2 0xFA85 JUMP JUMPDEST SWAP2 POP DUP1 DUP1 PUSH1 0x1 ADD SWAP2 POP POP PUSH2 0xE0D3 JUMP JUMPDEST POP PUSH0 PUSH2 0xE121 DUP6 DUP4 PUSH2 0xE8A5 JUMP JUMPDEST SWAP1 POP PUSH2 0xE12D DUP5 DUP3 PUSH2 0xE90F JUMP JUMPDEST SWAP3 POP POP POP SWAP3 SWAP2 POP POP JUMP JUMPDEST PUSH0 PUSH1 0x4 PUSH1 0x1C DUP2 GT ISZERO PUSH2 0xE14C JUMPI PUSH2 0xE14B PUSH2 0xEAFB JUMP JUMPDEST JUMPDEST DUP3 PUSH2 0x100 ADD MLOAD PUSH1 0x1C DUP2 GT ISZERO PUSH2 0xE164 JUMPI PUSH2 0xE163 PUSH2 0xEAFB JUMP JUMPDEST JUMPDEST EQ SWAP1 POP SWAP2 SWAP1 POP JUMP JUMPDEST PUSH0 PUSH1 0x7 PUSH1 0x1C DUP2 GT ISZERO PUSH2 0xE181 JUMPI PUSH2 0xE180 PUSH2 0xEAFB JUMP JUMPDEST JUMPDEST PUSH1 0xFF AND DUP3 PUSH2 0x100 ADD MLOAD PUSH1 0x1C DUP2 GT ISZERO PUSH2 0xE19C JUMPI PUSH2 0xE19B PUSH2 0xEAFB JUMP JUMPDEST JUMPDEST PUSH1 0xFF AND LT ISZERO DUP1 ISZERO PUSH2 0xE1DD JUMPI POP PUSH1 0x12 PUSH1 0x1C DUP2 GT ISZERO PUSH2 0xE1BC JUMPI PUSH2 0xE1BB PUSH2 0xEAFB JUMP JUMPDEST JUMPDEST PUSH1 0xFF AND DUP3 PUSH2 0x100 ADD MLOAD PUSH1 0x1C DUP2 GT ISZERO PUSH2 0xE1D7 JUMPI PUSH2 0xE1D6 PUSH2 0xEAFB JUMP JUMPDEST JUMPDEST PUSH1 0xFF AND GT ISZERO JUMPDEST SWAP1 POP SWAP2 SWAP1 POP JUMP JUMPDEST PUSH0 PUSH1 0x1B PUSH1 0x1C DUP2 GT ISZERO PUSH2 0xE1F9 JUMPI PUSH2 0xE1F8 PUSH2 0xEAFB JUMP JUMPDEST JUMPDEST DUP3 PUSH2 0x100 ADD MLOAD PUSH1 0x1C DUP2 GT ISZERO PUSH2 0xE211 JUMPI PUSH2 0xE210 PUSH2 0xEAFB JUMP JUMPDEST JUMPDEST EQ SWAP1 POP SWAP2 SWAP1 POP JUMP JUMPDEST PUSH0 PUSH1 0x16 PUSH1 0x1C DUP2 GT ISZERO PUSH2 0xE22E JUMPI PUSH2 0xE22D PUSH2 0xEAFB JUMP JUMPDEST JUMPDEST DUP3 PUSH2 0x100 ADD MLOAD PUSH1 0x1C DUP2 GT ISZERO PUSH2 0xE246 JUMPI PUSH2 0xE245 PUSH2 0xEAFB JUMP JUMPDEST JUMPDEST EQ SWAP1 POP SWAP2 SWAP1 POP JUMP JUMPDEST PUSH0 PUSH1 0x14 PUSH1 0x1C DUP2 GT ISZERO PUSH2 0xE263 JUMPI PUSH2 0xE262 PUSH2 0xEAFB JUMP JUMPDEST JUMPDEST DUP3 PUSH2 0x100 ADD MLOAD PUSH1 0x1C DUP2 GT ISZERO PUSH2 0xE27B JUMPI PUSH2 0xE27A PUSH2 0xEAFB JUMP JUMPDEST JUMPDEST EQ SWAP1 POP SWAP2 SWAP1 POP JUMP JUMPDEST PUSH0 PUSH1 0x19 PUSH1 0x1C DUP2 GT ISZERO PUSH2 0xE298 JUMPI PUSH2 0xE297 PUSH2 0xEAFB JUMP JUMPDEST JUMPDEST DUP3 PUSH2 0x100 ADD MLOAD PUSH1 0x1C DUP2 GT ISZERO PUSH2 0xE2B0 JUMPI PUSH2 0xE2AF PUSH2 0xEAFB JUMP JUMPDEST JUMPDEST EQ SWAP1 POP SWAP2 SWAP1 POP JUMP JUMPDEST PUSH0 PUSH1 0x1 DUP1 DUP2 GT ISZERO PUSH2 0xE2CC JUMPI PUSH2 0xE2CB PUSH2 0xEAFB JUMP JUMPDEST JUMPDEST DUP3 PUSH1 0xC0 ADD MLOAD PUSH1 0x1 DUP2 GT ISZERO PUSH2 0xE2E3 JUMPI PUSH2 0xE2E2 PUSH2 0xEAFB JUMP JUMPDEST JUMPDEST EQ ISZERO SWAP1 POP SWAP2 SWAP1 POP JUMP JUMPDEST PUSH0 PUSH1 0x1 PUSH1 0x57 DUP2 GT ISZERO PUSH2 0xE301 JUMPI PUSH2 0xE300 PUSH2 0xEAFB JUMP JUMPDEST JUMPDEST DUP3 PUSH2 0x1C0 ADD MLOAD PUSH1 0x57 DUP2 GT ISZERO PUSH2 0xE319 JUMPI PUSH2 0xE318 PUSH2 0xEAFB JUMP JUMPDEST JUMPDEST EQ DUP1 PUSH2 0xE34E JUMPI POP PUSH1 0x6 PUSH1 0x57 DUP2 GT ISZERO PUSH2 0xE334 JUMPI PUSH2 0xE333 PUSH2 0xEAFB JUMP JUMPDEST JUMPDEST DUP3 PUSH2 0x1C0 ADD MLOAD PUSH1 0x57 DUP2 GT ISZERO PUSH2 0xE34C JUMPI PUSH2 0xE34B PUSH2 0xEAFB JUMP JUMPDEST JUMPDEST EQ JUMPDEST DUP1 PUSH2 0xE382 JUMPI POP PUSH1 0xD PUSH1 0x57 DUP2 GT ISZERO PUSH2 0xE368 JUMPI PUSH2 0xE367 PUSH2 0xEAFB JUMP JUMPDEST JUMPDEST DUP3 PUSH2 0x1C0 ADD MLOAD PUSH1 0x57 DUP2 GT ISZERO PUSH2 0xE380 JUMPI PUSH2 0xE37F PUSH2 0xEAFB JUMP JUMPDEST JUMPDEST EQ JUMPDEST DUP1 PUSH2 0xE3B6 JUMPI POP PUSH1 0x11 PUSH1 0x57 DUP2 GT ISZERO PUSH2 0xE39C JUMPI PUSH2 0xE39B PUSH2 0xEAFB JUMP JUMPDEST JUMPDEST DUP3 PUSH2 0x1C0 ADD MLOAD PUSH1 0x57 DUP2 GT ISZERO PUSH2 0xE3B4 JUMPI PUSH2 0xE3B3 PUSH2 0xEAFB JUMP JUMPDEST JUMPDEST EQ JUMPDEST DUP1 PUSH2 0xE3EA JUMPI POP PUSH1 0x15 PUSH1 0x57 DUP2 GT ISZERO PUSH2 0xE3D0 JUMPI PUSH2 0xE3CF PUSH2 0xEAFB JUMP JUMPDEST JUMPDEST DUP3 PUSH2 0x1C0 ADD MLOAD PUSH1 0x57 DUP2 GT ISZERO PUSH2 0xE3E8 JUMPI PUSH2 0xE3E7 PUSH2 0xEAFB JUMP JUMPDEST JUMPDEST EQ JUMPDEST DUP1 PUSH2 0xE41E JUMPI POP PUSH1 0x1A PUSH1 0x57 DUP2 GT ISZERO PUSH2 0xE404 JUMPI PUSH2 0xE403 PUSH2 0xEAFB JUMP JUMPDEST JUMPDEST DUP3 PUSH2 0x1C0 ADD MLOAD PUSH1 0x57 DUP2 GT ISZERO PUSH2 0xE41C JUMPI PUSH2 0xE41B PUSH2 0xEAFB JUMP JUMPDEST JUMPDEST EQ JUMPDEST DUP1 PUSH2 0xE452 JUMPI POP PUSH1 0x1F PUSH1 0x57 DUP2 GT ISZERO PUSH2 0xE438 JUMPI PUSH2 0xE437 PUSH2 0xEAFB JUMP JUMPDEST JUMPDEST DUP3 PUSH2 0x1C0 ADD MLOAD PUSH1 0x57 DUP2 GT ISZERO PUSH2 0xE450 JUMPI PUSH2 0xE44F PUSH2 0xEAFB JUMP JUMPDEST JUMPDEST EQ JUMPDEST DUP1 PUSH2 0xE486 JUMPI POP PUSH1 0x23 PUSH1 0x57 DUP2 GT ISZERO PUSH2 0xE46C JUMPI PUSH2 0xE46B PUSH2 0xEAFB JUMP JUMPDEST JUMPDEST DUP3 PUSH2 0x1C0 ADD MLOAD PUSH1 0x57 DUP2 GT ISZERO PUSH2 0xE484 JUMPI PUSH2 0xE483 PUSH2 0xEAFB JUMP JUMPDEST JUMPDEST EQ JUMPDEST DUP1 PUSH2 0xE4BA JUMPI POP PUSH1 0x27 PUSH1 0x57 DUP2 GT ISZERO PUSH2 0xE4A0 JUMPI PUSH2 0xE49F PUSH2 0xEAFB JUMP JUMPDEST JUMPDEST DUP3 PUSH2 0x1C0 ADD MLOAD PUSH1 0x57 DUP2 GT ISZERO PUSH2 0xE4B8 JUMPI PUSH2 0xE4B7 PUSH2 0xEAFB JUMP JUMPDEST JUMPDEST EQ JUMPDEST DUP1 PUSH2 0xE4EE JUMPI POP PUSH1 0x2B PUSH1 0x57 DUP2 GT ISZERO PUSH2 0xE4D4 JUMPI PUSH2 0xE4D3 PUSH2 0xEAFB JUMP JUMPDEST JUMPDEST DUP3 PUSH2 0x1C0 ADD MLOAD PUSH1 0x57 DUP2 GT ISZERO PUSH2 0xE4EC JUMPI PUSH2 0xE4EB PUSH2 0xEAFB JUMP JUMPDEST JUMPDEST EQ JUMPDEST DUP1 PUSH2 0xE522 JUMPI POP PUSH1 0x30 PUSH1 0x57 DUP2 GT ISZERO PUSH2 0xE508 JUMPI PUSH2 0xE507 PUSH2 0xEAFB JUMP JUMPDEST JUMPDEST DUP3 PUSH2 0x1C0 ADD MLOAD PUSH1 0x57 DUP2 GT ISZERO PUSH2 0xE520 JUMPI PUSH2 0xE51F PUSH2 0xEAFB JUMP JUMPDEST JUMPDEST EQ JUMPDEST DUP1 PUSH2 0xE556 JUMPI POP PUSH1 0x34 PUSH1 0x57 DUP2 GT ISZERO PUSH2 0xE53C JUMPI PUSH2 0xE53B PUSH2 0xEAFB JUMP JUMPDEST JUMPDEST DUP3 PUSH2 0x1C0 ADD MLOAD PUSH1 0x57 DUP2 GT ISZERO PUSH2 0xE554 JUMPI PUSH2 0xE553 PUSH2 0xEAFB JUMP JUMPDEST JUMPDEST EQ JUMPDEST DUP1 PUSH2 0xE58A JUMPI POP PUSH1 0x39 PUSH1 0x57 DUP2 GT ISZERO PUSH2 0xE570 JUMPI PUSH2 0xE56F PUSH2 0xEAFB JUMP JUMPDEST JUMPDEST DUP3 PUSH2 0x1C0 ADD MLOAD PUSH1 0x57 DUP2 GT ISZERO PUSH2 0xE588 JUMPI PUSH2 0xE587 PUSH2 0xEAFB JUMP JUMPDEST JUMPDEST EQ JUMPDEST DUP1 PUSH2 0xE5BE JUMPI POP PUSH1 0x3D PUSH1 0x57 DUP2 GT ISZERO PUSH2 0xE5A4 JUMPI PUSH2 0xE5A3 PUSH2 0xEAFB JUMP JUMPDEST JUMPDEST DUP3 PUSH2 0x1C0 ADD MLOAD PUSH1 0x57 DUP2 GT ISZERO PUSH2 0xE5BC JUMPI PUSH2 0xE5BB PUSH2 0xEAFB JUMP JUMPDEST JUMPDEST EQ JUMPDEST DUP1 PUSH2 0xE5F2 JUMPI POP PUSH1 0x41 PUSH1 0x57 DUP2 GT ISZERO PUSH2 0xE5D8 JUMPI PUSH2 0xE5D7 PUSH2 0xEAFB JUMP JUMPDEST JUMPDEST DUP3 PUSH2 0x1C0 ADD MLOAD PUSH1 0x57 DUP2 GT ISZERO PUSH2 0xE5F0 JUMPI PUSH2 0xE5EF PUSH2 0xEAFB JUMP JUMPDEST JUMPDEST EQ JUMPDEST DUP1 PUSH2 0xE626 JUMPI POP PUSH1 0x45 PUSH1 0x57 DUP2 GT ISZERO PUSH2 0xE60C JUMPI PUSH2 0xE60B PUSH2 0xEAFB JUMP JUMPDEST JUMPDEST DUP3 PUSH2 0x1C0 ADD MLOAD PUSH1 0x57 DUP2 GT ISZERO PUSH2 0xE624 JUMPI PUSH2 0xE623 PUSH2 0xEAFB JUMP JUMPDEST JUMPDEST EQ JUMPDEST DUP1 PUSH2 0xE65A JUMPI POP PUSH1 0x4A PUSH1 0x57 DUP2 GT ISZERO PUSH2 0xE640 JUMPI PUSH2 0xE63F PUSH2 0xEAFB JUMP JUMPDEST JUMPDEST DUP3 PUSH2 0x1C0 ADD MLOAD PUSH1 0x57 DUP2 GT ISZERO PUSH2 0xE658 JUMPI PUSH2 0xE657 PUSH2 0xEAFB JUMP JUMPDEST JUMPDEST EQ JUMPDEST DUP1 PUSH2 0xE68E JUMPI POP PUSH1 0x4F PUSH1 0x57 DUP2 GT ISZERO PUSH2 0xE674 JUMPI PUSH2 0xE673 PUSH2 0xEAFB JUMP JUMPDEST JUMPDEST DUP3 PUSH2 0x1C0 ADD MLOAD PUSH1 0x57 DUP2 GT ISZERO PUSH2 0xE68C JUMPI PUSH2 0xE68B PUSH2 0xEAFB JUMP JUMPDEST JUMPDEST EQ JUMPDEST DUP1 PUSH2 0xE6C2 JUMPI POP PUSH1 0x53 PUSH1 0x57 DUP2 GT ISZERO PUSH2 0xE6A8 JUMPI PUSH2 0xE6A7 PUSH2 0xEAFB JUMP JUMPDEST JUMPDEST DUP3 PUSH2 0x1C0 ADD MLOAD PUSH1 0x57 DUP2 GT ISZERO PUSH2 0xE6C0 JUMPI PUSH2 0xE6BF PUSH2 0xEAFB JUMP JUMPDEST JUMPDEST EQ JUMPDEST SWAP1 POP SWAP2 SWAP1 POP JUMP JUMPDEST PUSH0 PUSH1 0x2 PUSH1 0x1C DUP2 GT ISZERO PUSH2 0xE6DE JUMPI PUSH2 0xE6DD PUSH2 0xEAFB JUMP JUMPDEST JUMPDEST DUP3 PUSH2 0x100 ADD MLOAD PUSH1 0x1C DUP2 GT ISZERO PUSH2 0xE6F6 JUMPI PUSH2 0xE6F5 PUSH2 0xEAFB JUMP JUMPDEST JUMPDEST EQ SWAP1 POP SWAP2 SWAP1 POP JUMP JUMPDEST PUSH0 PUSH1 0x1A PUSH1 0x1C DUP2 GT ISZERO PUSH2 0xE713 JUMPI PUSH2 0xE712 PUSH2 0xEAFB JUMP JUMPDEST JUMPDEST DUP3 PUSH2 0x100 ADD MLOAD PUSH1 0x1C DUP2 GT ISZERO PUSH2 0xE72B JUMPI PUSH2 0xE72A PUSH2 0xEAFB JUMP JUMPDEST JUMPDEST EQ SWAP1 POP SWAP2 SWAP1 POP JUMP JUMPDEST PUSH0 PUSH1 0x1C DUP1 DUP2 GT ISZERO PUSH2 0xE747 JUMPI PUSH2 0xE746 PUSH2 0xEAFB JUMP JUMPDEST JUMPDEST DUP3 PUSH2 0x100 ADD MLOAD PUSH1 0x1C DUP2 GT ISZERO PUSH2 0xE75F JUMPI PUSH2 0xE75E PUSH2 0xEAFB JUMP JUMPDEST JUMPDEST EQ SWAP1 POP SWAP2 SWAP1 POP JUMP JUMPDEST PUSH0 PUSH1 0x1 PUSH1 0x1C DUP2 GT ISZERO PUSH2 0xE77C JUMPI PUSH2 0xE77B PUSH2 0xEAFB JUMP JUMPDEST JUMPDEST DUP3 PUSH2 0x100 ADD MLOAD PUSH1 0x1C DUP2 GT ISZERO PUSH2 0xE794 JUMPI PUSH2 0xE793 PUSH2 0xEAFB JUMP JUMPDEST JUMPDEST EQ SWAP1 POP SWAP2 SWAP1 POP JUMP JUMPDEST PUSH0 PUSH1 0x3 PUSH1 0x1C DUP2 GT ISZERO PUSH2 0xE7B1 JUMPI PUSH2 0xE7B0 PUSH2 0xEAFB JUMP JUMPDEST JUMPDEST DUP3 PUSH2 0x100 ADD MLOAD PUSH1 0x1C DUP2 GT ISZERO PUSH2 0xE7C9 JUMPI PUSH2 0xE7C8 PUSH2 0xEAFB JUMP JUMPDEST JUMPDEST EQ SWAP1 POP SWAP2 SWAP1 POP JUMP JUMPDEST PUSH0 PUSH1 0x5 PUSH1 0x1C DUP2 GT ISZERO PUSH2 0xE7E6 JUMPI PUSH2 0xE7E5 PUSH2 0xEAFB JUMP JUMPDEST JUMPDEST DUP3 PUSH2 0x100 ADD MLOAD PUSH1 0x1C DUP2 GT ISZERO PUSH2 0xE7FE JUMPI PUSH2 0xE7FD PUSH2 0xEAFB JUMP JUMPDEST JUMPDEST EQ SWAP1 POP SWAP2 SWAP1 POP JUMP JUMPDEST PUSH0 PUSH1 0x6 PUSH1 0x1C DUP2 GT ISZERO PUSH2 0xE81B JUMPI PUSH2 0xE81A PUSH2 0xEAFB JUMP JUMPDEST JUMPDEST DUP3 PUSH2 0x100 ADD MLOAD PUSH1 0x1C DUP2 GT ISZERO PUSH2 0xE833 JUMPI PUSH2 0xE832 PUSH2 0xEAFB JUMP JUMPDEST JUMPDEST EQ SWAP1 POP SWAP2 SWAP1 POP JUMP JUMPDEST PUSH0 PUSH1 0x15 PUSH1 0x1C DUP2 GT ISZERO PUSH2 0xE850 JUMPI PUSH2 0xE84F PUSH2 0xEAFB JUMP JUMPDEST JUMPDEST DUP3 PUSH2 0x100 ADD MLOAD PUSH1 0x1C DUP2 GT ISZERO PUSH2 0xE868 JUMPI PUSH2 0xE867 PUSH2 0xEAFB JUMP JUMPDEST JUMPDEST EQ SWAP1 POP SWAP2 SWAP1 POP JUMP JUMPDEST PUSH0 PUSH1 0x17 PUSH1 0x1C DUP2 GT ISZERO PUSH2 0xE885 JUMPI PUSH2 0xE884 PUSH2 0xEAFB JUMP JUMPDEST JUMPDEST DUP3 PUSH2 0x100 ADD MLOAD PUSH1 0x1C DUP2 GT ISZERO PUSH2 0xE89D JUMPI PUSH2 0xE89C PUSH2 0xEAFB JUMP JUMPDEST JUMPDEST EQ SWAP1 POP SWAP2 SWAP1 POP JUMP JUMPDEST PUSH0 DUP3 PUSH1 0x20 ADD DUP1 MLOAD DUP1 SWAP2 SWAP1 PUSH2 0xE8B8 SWAP1 PUSH2 0xFAB8 JUMP JUMPDEST DUP2 MSTORE POP POP PUSH0 DUP4 PUSH0 ADD MLOAD DUP5 PUSH1 0x20 ADD MLOAD PUSH1 0x40 MLOAD PUSH1 0x20 ADD PUSH2 0xE8D7 SWAP3 SWAP2 SWAP1 PUSH2 0xFB1F JUMP JUMPDEST PUSH1 0x40 MLOAD PUSH1 0x20 DUP2 DUP4 SUB SUB DUP2 MSTORE SWAP1 PUSH1 0x40 MSTORE DUP1 MLOAD SWAP1 PUSH1 0x20 ADD KECCAK256 PUSH0 SHR SWAP1 POP DUP1 DUP5 PUSH0 ADD DUP2 DUP2 MSTORE POP POP DUP3 DUP2 PUSH2 0xE906 SWAP2 SWAP1 PUSH2 0xFB77 JUMP JUMPDEST SWAP2 POP POP SWAP3 SWAP2 POP POP JUMP JUMPDEST PUSH0 PUSH0 PUSH0 SWAP1 POP PUSH0 PUSH0 SWAP1 POP JUMPDEST DUP5 MLOAD DUP2 LT ISZERO PUSH2 0xE96D JUMPI DUP5 DUP2 DUP2 MLOAD DUP2 LT PUSH2 0xE935 JUMPI PUSH2 0xE934 PUSH2 0xF0D7 JUMP JUMPDEST JUMPDEST PUSH1 0x20 MUL PUSH1 0x20 ADD ADD MLOAD PUSH2 0xFFFF AND DUP3 PUSH2 0xE94C SWAP2 SWAP1 PUSH2 0xFA85 JUMP JUMPDEST SWAP2 POP DUP2 DUP5 LT ISZERO PUSH2 0xE960 JUMPI DUP1 SWAP3 POP POP POP PUSH2 0xE9A9 JUMP JUMPDEST DUP1 DUP1 PUSH1 0x1 ADD SWAP2 POP POP PUSH2 0xE919 JUMP JUMPDEST POP PUSH1 0x40 MLOAD PUSH32 0x8C379A000000000000000000000000000000000000000000000000000000000 DUP2 MSTORE PUSH1 0x4 ADD PUSH2 0xE9A0 SWAP1 PUSH2 0xFC01 JUMP JUMPDEST PUSH1 0x40 MLOAD DUP1 SWAP2 SUB SWAP1 REVERT JUMPDEST SWAP3 SWAP2 POP POP JUMP JUMPDEST PUSH0 PUSH1 0x40 MLOAD SWAP1 POP SWAP1 JUMP JUMPDEST PUSH0 PUSH0 REVERT JUMPDEST PUSH0 PUSH0 REVERT JUMPDEST PUSH0 PUSH0 REVERT JUMPDEST PUSH0 PUSH1 0x1F NOT PUSH1 0x1F DUP4 ADD AND SWAP1 POP SWAP2 SWAP1 POP JUMP JUMPDEST PUSH32 0x4E487B7100000000000000000000000000000000000000000000000000000000 PUSH0 MSTORE PUSH1 0x41 PUSH1 0x4 MSTORE PUSH1 0x24 PUSH0 REVERT JUMPDEST PUSH2 0xEA0A DUP3 PUSH2 0xE9C4 JUMP JUMPDEST DUP2 ADD DUP2 DUP2 LT PUSH8 0xFFFFFFFFFFFFFFFF DUP3 GT OR ISZERO PUSH2 0xEA29 JUMPI PUSH2 0xEA28 PUSH2 0xE9D4 JUMP JUMPDEST JUMPDEST DUP1 PUSH1 0x40 MSTORE POP POP POP JUMP JUMPDEST PUSH0 PUSH2 0xEA3B PUSH2 0xE9AF JUMP JUMPDEST SWAP1 POP PUSH2 0xEA47 DUP3 DUP3 PUSH2 0xEA01 JUMP JUMPDEST SWAP2 SWAP1 POP JUMP JUMPDEST PUSH0 PUSH0 REVERT JUMPDEST PUSH0 DUP2 SWAP1 POP SWAP2 SWAP1 POP JUMP JUMPDEST PUSH2 0xEA62 DUP2 PUSH2 0xEA50 JUMP JUMPDEST DUP2 EQ PUSH2 0xEA6C JUMPI PUSH0 PUSH0 REVERT JUMPDEST POP JUMP JUMPDEST PUSH0 DUP2 CALLDATALOAD SWAP1 POP PUSH2 0xEA7D DUP2 PUSH2 0xEA59 JUMP JUMPDEST SWAP3 SWAP2 POP POP JUMP JUMPDEST PUSH0 PUSH1 0x40 DUP3 DUP5 SUB SLT ISZERO PUSH2 0xEA98 JUMPI PUSH2 0xEA97 PUSH2 0xE9C0 JUMP JUMPDEST JUMPDEST PUSH2 0xEAA2 PUSH1 0x40 PUSH2 0xEA32 JUMP JUMPDEST SWAP1 POP PUSH0 PUSH2 0xEAB1 DUP5 DUP3 DUP6 ADD PUSH2 0xEA6F JUMP JUMPDEST PUSH0 DUP4 ADD MSTORE POP PUSH1 0x20 PUSH2 0xEAC4 DUP5 DUP3 DUP6 ADD PUSH2 0xEA6F JUMP JUMPDEST PUSH1 0x20 DUP4 ADD MSTORE POP SWAP3 SWAP2 POP POP JUMP JUMPDEST PUSH0 PUSH1 0x40 DUP3 DUP5 SUB SLT ISZERO PUSH2 0xEAE5 JUMPI PUSH2 0xEAE4 PUSH2 0xE9B8 JUMP JUMPDEST JUMPDEST PUSH0 PUSH2 0xEAF2 DUP5 DUP3 DUP6 ADD PUSH2 0xEA83 JUMP JUMPDEST SWAP2 POP POP SWAP3 SWAP2 POP POP JUMP JUMPDEST PUSH32 0x4E487B7100000000000000000000000000000000000000000000000000000000 PUSH0 MSTORE PUSH1 0x21 PUSH1 0x4 MSTORE PUSH1 0x24 PUSH0 REVERT JUMPDEST PUSH1 0x9 DUP2 LT PUSH2 0xEB39 JUMPI PUSH2 0xEB38 PUSH2 0xEAFB JUMP JUMPDEST JUMPDEST POP JUMP JUMPDEST PUSH0 DUP2 SWAP1 POP PUSH2 0xEB49 DUP3 PUSH2 0xEB28 JUMP JUMPDEST SWAP2 SWAP1 POP JUMP JUMPDEST PUSH0 PUSH2 0xEB58 DUP3 PUSH2 0xEB3C JUMP JUMPDEST SWAP1 POP SWAP2 SWAP1 POP JUMP JUMPDEST PUSH2 0xEB68 DUP2 PUSH2 0xEB4E JUMP JUMPDEST DUP3 MSTORE POP POP JUMP JUMPDEST PUSH0 PUSH1 0x20 DUP3 ADD SWAP1 POP PUSH2 0xEB81 PUSH0 DUP4 ADD DUP5 PUSH2 0xEB5F JUMP JUMPDEST SWAP3 SWAP2 POP POP JUMP JUMPDEST PUSH0 PUSH0 REVERT JUMPDEST PUSH0 PUSH2 0x420 DUP3 DUP5 SUB SLT ISZERO PUSH2 0xEBA1 JUMPI PUSH2 0xEBA0 PUSH2 0xEB87 JUMP JUMPDEST JUMPDEST DUP2 SWAP1 POP SWAP3 SWAP2 POP POP JUMP JUMPDEST PUSH0 PUSH0 PUSH1 0x60 DUP4 DUP6 SUB SLT ISZERO PUSH2 0xEBC0 JUMPI PUSH2 0xEBBF PUSH2 0xE9B8 JUMP JUMPDEST JUMPDEST PUSH0 DUP4 ADD CALLDATALOAD PUSH8 0xFFFFFFFFFFFFFFFF DUP2 GT ISZERO PUSH2 0xEBDD JUMPI PUSH2 0xEBDC PUSH2 0xE9BC JUMP JUMPDEST JUMPDEST PUSH2 0xEBE9 DUP6 DUP3 DUP7 ADD PUSH2 0xEB8B JUMP JUMPDEST SWAP3 POP POP PUSH1 0x20 PUSH2 0xEBFA DUP6 DUP3 DUP7 ADD PUSH2 0xEA83 JUMP JUMPDEST SWAP2 POP POP SWAP3 POP SWAP3 SWAP1 POP JUMP JUMPDEST PUSH1 0x17 DUP2 LT PUSH2 0xEC15 JUMPI PUSH2 0xEC14 PUSH2 0xEAFB JUMP JUMPDEST JUMPDEST POP JUMP JUMPDEST PUSH0 DUP2 SWAP1 POP PUSH2 0xEC25 DUP3 PUSH2 0xEC04 JUMP JUMPDEST SWAP2 SWAP1 POP JUMP JUMPDEST PUSH0 PUSH2 0xEC34 DUP3 PUSH2 0xEC18 JUMP JUMPDEST SWAP1 POP SWAP2 SWAP1 POP JUMP JUMPDEST PUSH2 0xEC44 DUP2 PUSH2 0xEC2A JUMP JUMPDEST DUP3 MSTORE POP POP JUMP JUMPDEST PUSH0 PUSH1 0x20 DUP3 ADD SWAP1 POP PUSH2 0xEC5D PUSH0 DUP4 ADD DUP5 PUSH2 0xEC3B JUMP JUMPDEST SWAP3 SWAP2 POP POP JUMP JUMPDEST PUSH1 0x80 DUP2 LT PUSH2 0xEC74 JUMPI PUSH2 0xEC73 PUSH2 0xEAFB JUMP JUMPDEST JUMPDEST POP JUMP JUMPDEST PUSH0 DUP2 SWAP1 POP PUSH2 0xEC84 DUP3 PUSH2 0xEC63 JUMP JUMPDEST SWAP2 SWAP1 POP JUMP JUMPDEST PUSH0 PUSH2 0xEC93 DUP3 PUSH2 0xEC77 JUMP JUMPDEST SWAP1 POP SWAP2 SWAP1 POP JUMP JUMPDEST PUSH2 0xECA3 DUP2 PUSH2 0xEC89 JUMP JUMPDEST DUP3 MSTORE POP POP JUMP JUMPDEST PUSH0 PUSH1 0x20 DUP3 ADD SWAP1 POP PUSH2 0xECBC PUSH0 DUP4 ADD DUP5 PUSH2 0xEC9A JUMP JUMPDEST SWAP3 SWAP2 POP POP JUMP JUMPDEST PUSH1 0xD4 DUP2 LT PUSH2 0xECD3 JUMPI PUSH2 0xECD2 PUSH2 0xEAFB JUMP JUMPDEST JUMPDEST POP JUMP JUMPDEST PUSH0 DUP2 SWAP1 POP PUSH2 0xECE3 DUP3 PUSH2 0xECC2 JUMP JUMPDEST SWAP2 SWAP1 POP JUMP JUMPDEST PUSH0 PUSH2 0xECF2 DUP3 PUSH2 0xECD6 JUMP JUMPDEST SWAP1 POP SWAP2 SWAP1 POP JUMP JUMPDEST PUSH2 0xED02 DUP2 PUSH2 0xECE8 JUMP JUMPDEST DUP3 MSTORE POP POP JUMP JUMPDEST PUSH0 PUSH1 0x20 DUP3 ADD SWAP1 POP PUSH2 0xED1B PUSH0 DUP4 ADD DUP5 PUSH2 0xECF9 JUMP JUMPDEST SWAP3 SWAP2 POP POP JUMP JUMPDEST PUSH1 0x4 DUP2 LT PUSH2 0xED32 JUMPI PUSH2 0xED31 PUSH2 0xEAFB JUMP JUMPDEST JUMPDEST POP JUMP JUMPDEST PUSH0 DUP2 SWAP1 POP PUSH2 0xED42 DUP3 PUSH2 0xED21 JUMP JUMPDEST SWAP2 SWAP1 POP JUMP JUMPDEST PUSH0 PUSH2 0xED51 DUP3 PUSH2 0xED35 JUMP JUMPDEST SWAP1 POP SWAP2 SWAP1 POP JUMP JUMPDEST PUSH2 0xED61 DUP2 PUSH2 0xED47 JUMP JUMPDEST DUP3 MSTORE POP POP JUMP JUMPDEST PUSH0 PUSH1 0x20 DUP3 ADD SWAP1 POP PUSH2 0xED7A PUSH0 DUP4 ADD DUP5 PUSH2 0xED58 JUMP JUMPDEST SWAP3 SWAP2 POP POP JUMP JUMPDEST PUSH1 0xA9 DUP2 LT PUSH2 0xED91 JUMPI PUSH2 0xED90 PUSH2 0xEAFB JUMP JUMPDEST JUMPDEST POP JUMP JUMPDEST PUSH0 DUP2 SWAP1 POP PUSH2 0xEDA1 DUP3 PUSH2 0xED80 JUMP JUMPDEST SWAP2 SWAP1 POP JUMP JUMPDEST PUSH0 PUSH2 0xEDB0 DUP3 PUSH2 0xED94 JUMP JUMPDEST SWAP1 POP SWAP2 SWAP1 POP JUMP JUMPDEST PUSH2 0xEDC0 DUP2 PUSH2 0xEDA6 JUMP JUMPDEST DUP3 MSTORE POP POP JUMP JUMPDEST PUSH0 PUSH1 0x20 DUP3 ADD SWAP1 POP PUSH2 0xEDD9 PUSH0 DUP4 ADD DUP5 PUSH2 0xEDB7 JUMP JUMPDEST SWAP3 SWAP2 POP POP JUMP JUMPDEST PUSH1 0xD DUP2 LT PUSH2 0xEDF0 JUMPI PUSH2 0xEDEF PUSH2 0xEAFB JUMP JUMPDEST JUMPDEST POP JUMP JUMPDEST PUSH0 DUP2 SWAP1 POP PUSH2 0xEE00 DUP3 PUSH2 0xEDDF JUMP JUMPDEST SWAP2 SWAP1 POP JUMP JUMPDEST PUSH0 PUSH2 0xEE0F DUP3 PUSH2 0xEDF3 JUMP JUMPDEST SWAP1 POP SWAP2 SWAP1 POP JUMP JUMPDEST PUSH2 0xEE1F DUP2 PUSH2 0xEE05 JUMP JUMPDEST DUP3 MSTORE POP POP JUMP JUMPDEST PUSH0 PUSH1 0x20 DUP3 ADD SWAP1 POP PUSH2 0xEE38 PUSH0 DUP4 ADD DUP5 PUSH2 0xEE16 JUMP JUMPDEST SWAP3 SWAP2 POP POP JUMP JUMPDEST PUSH1 0x1D DUP2 LT PUSH2 0xEE4F JUMPI PUSH2 0xEE4E PUSH2 0xEAFB JUMP JUMPDEST JUMPDEST POP JUMP JUMPDEST PUSH0 DUP2 SWAP1 POP PUSH2 0xEE5F DUP3 PUSH2 0xEE3E JUMP JUMPDEST SWAP2 SWAP1 POP JUMP JUMPDEST PUSH0 PUSH2 0xEE6E DUP3 PUSH2 0xEE52 JUMP JUMPDEST SWAP1 POP SWAP2 SWAP1 POP JUMP JUMPDEST PUSH2 0xEE7E DUP2 PUSH2 0xEE64 JUMP JUMPDEST DUP3 MSTORE POP POP JUMP JUMPDEST PUSH0 PUSH1 0x20 DUP3 ADD SWAP1 POP PUSH2 0xEE97 PUSH0 DUP4 ADD DUP5 PUSH2 0xEE75 JUMP JUMPDEST SWAP3 SWAP2 POP POP JUMP JUMPDEST PUSH1 0xB DUP2 LT PUSH2 0xEEAE JUMPI PUSH2 0xEEAD PUSH2 0xEAFB JUMP JUMPDEST JUMPDEST POP JUMP JUMPDEST PUSH0 DUP2 SWAP1 POP PUSH2 0xEEBE DUP3 PUSH2 0xEE9D JUMP JUMPDEST SWAP2 SWAP1 POP JUMP JUMPDEST PUSH0 PUSH2 0xEECD DUP3 PUSH2 0xEEB1 JUMP JUMPDEST SWAP1 POP SWAP2 SWAP1 POP JUMP JUMPDEST PUSH2 0xEEDD DUP2 PUSH2 0xEEC3 JUMP JUMPDEST DUP3 MSTORE POP POP JUMP JUMPDEST PUSH0 PUSH1 0x20 DUP3 ADD SWAP1 POP PUSH2 0xEEF6 PUSH0 DUP4 ADD DUP5 PUSH2 0xEED4 JUMP JUMPDEST SWAP3 SWAP2 POP POP JUMP JUMPDEST PUSH1 0x58 DUP2 LT PUSH2 0xEF0D JUMPI PUSH2 0xEF0C PUSH2 0xEAFB JUMP JUMPDEST JUMPDEST POP JUMP JUMPDEST PUSH0 DUP2 SWAP1 POP PUSH2 0xEF1D DUP3 PUSH2 0xEEFC JUMP JUMPDEST SWAP2 SWAP1 POP JUMP JUMPDEST PUSH0 PUSH2 0xEF2C DUP3 PUSH2 0xEF10 JUMP JUMPDEST SWAP1 POP SWAP2 SWAP1 POP JUMP JUMPDEST PUSH2 0xEF3C DUP2 PUSH2 0xEF22 JUMP JUMPDEST DUP3 MSTORE POP POP JUMP JUMPDEST PUSH0 PUSH1 0x20 DUP3 ADD SWAP1 POP PUSH2 0xEF55 PUSH0 DUP4 ADD DUP5 PUSH2 0xEF33 JUMP JUMPDEST SWAP3 SWAP2 POP POP JUMP JUMPDEST PUSH1 0x6A DUP2 LT PUSH2 0xEF6C JUMPI PUSH2 0xEF6B PUSH2 0xEAFB JUMP JUMPDEST JUMPDEST POP JUMP JUMPDEST PUSH0 DUP2 SWAP1 POP PUSH2 0xEF7C DUP3 PUSH2 0xEF5B JUMP JUMPDEST SWAP2 SWAP1 POP JUMP JUMPDEST PUSH0 PUSH2 0xEF8B DUP3 PUSH2 0xEF6F JUMP JUMPDEST SWAP1 POP SWAP2 SWAP1 POP JUMP JUMPDEST PUSH2 0xEF9B DUP2 PUSH2 0xEF81 JUMP JUMPDEST DUP3 MSTORE POP POP JUMP JUMPDEST PUSH0 PUSH1 0x20 DUP3 ADD SWAP1 POP PUSH2 0xEFB4 PUSH0 DUP4 ADD DUP5 PUSH2 0xEF92 JUMP JUMPDEST SWAP3 SWAP2 POP POP JUMP JUMPDEST PUSH1 0x14 DUP2 LT PUSH2 0xEFCB JUMPI PUSH2 0xEFCA PUSH2 0xEAFB JUMP JUMPDEST JUMPDEST POP JUMP JUMPDEST PUSH0 DUP2 SWAP1 POP PUSH2 0xEFDB DUP3 PUSH2 0xEFBA JUMP JUMPDEST SWAP2 SWAP1 POP JUMP JUMPDEST PUSH0 PUSH2 0xEFEA DUP3 PUSH2 0xEFCE JUMP JUMPDEST SWAP1 POP SWAP2 SWAP1 POP JUMP JUMPDEST PUSH2 0xEFFA DUP2 PUSH2 0xEFE0 JUMP JUMPDEST DUP3 MSTORE POP POP JUMP JUMPDEST PUSH0 PUSH1 0x20 DUP3 ADD SWAP1 POP PUSH2 0xF013 PUSH0 DUP4 ADD DUP5 PUSH2 0xEFF1 JUMP JUMPDEST SWAP3 SWAP2 POP POP JUMP JUMPDEST PUSH1 0x16 DUP2 LT PUSH2 0xF02A JUMPI PUSH2 0xF029 PUSH2 0xEAFB JUMP JUMPDEST JUMPDEST POP JUMP JUMPDEST PUSH0 DUP2 SWAP1 POP PUSH2 0xF03A DUP3 PUSH2 0xF019 JUMP JUMPDEST SWAP2 SWAP1 POP JUMP JUMPDEST PUSH0 PUSH2 0xF049 DUP3 PUSH2 0xF02D JUMP JUMPDEST SWAP1 POP SWAP2 SWAP1 POP JUMP JUMPDEST PUSH2 0xF059 DUP2 PUSH2 0xF03F JUMP JUMPDEST DUP3 MSTORE POP POP JUMP JUMPDEST PUSH0 PUSH1 0x20 DUP3 ADD SWAP1 POP PUSH2 0xF072 PUSH0 DUP4 ADD DUP5 PUSH2 0xF050 JUMP JUMPDEST SWAP3 SWAP2 POP POP JUMP JUMPDEST PUSH1 0x9 DUP2 LT PUSH2 0xF089 JUMPI PUSH2 0xF088 PUSH2 0xEAFB JUMP JUMPDEST JUMPDEST POP JUMP JUMPDEST PUSH0 DUP2 SWAP1 POP PUSH2 0xF099 DUP3 PUSH2 0xF078 JUMP JUMPDEST SWAP2 SWAP1 POP JUMP JUMPDEST PUSH0 PUSH2 0xF0A8 DUP3 PUSH2 0xF08C JUMP JUMPDEST SWAP1 POP SWAP2 SWAP1 POP JUMP JUMPDEST PUSH2 0xF0B8 DUP2 PUSH2 0xF09E JUMP JUMPDEST DUP3 MSTORE POP POP JUMP JUMPDEST PUSH0 PUSH1 0x20 DUP3 ADD SWAP1 POP PUSH2 0xF0D1 PUSH0 DUP4 ADD DUP5 PUSH2 0xF0AF JUMP JUMPDEST SWAP3 SWAP2 POP POP JUMP JUMPDEST PUSH32 0x4E487B7100000000000000000000000000000000000000000000000000000000 PUSH0 MSTORE PUSH1 0x32 PUSH1 0x4 MSTORE PUSH1 0x24 PUSH0 REVERT JUMPDEST PUSH0 PUSH0 REVERT JUMPDEST PUSH0 PUSH8 0xFFFFFFFFFFFFFFFF DUP3 GT ISZERO PUSH2 0xF122 JUMPI PUSH2 0xF121 PUSH2 0xE9D4 JUMP JUMPDEST JUMPDEST PUSH1 0x20 DUP3 MUL SWAP1 POP PUSH1 0x20 DUP2 ADD SWAP1 POP SWAP2 SWAP1 POP JUMP JUMPDEST PUSH0 PUSH0 REVERT JUMPDEST PUSH1 0x1C DUP2 LT PUSH2 0xF143 JUMPI PUSH0 PUSH0 REVERT JUMPDEST POP JUMP JUMPDEST PUSH0 DUP2 CALLDATALOAD SWAP1 POP PUSH2 0xF154 DUP2 PUSH2 0xF137 JUMP JUMPDEST SWAP3 SWAP2 POP POP JUMP JUMPDEST PUSH0 PUSH1 0xFF DUP3 AND SWAP1 POP SWAP2 SWAP1 POP JUMP JUMPDEST PUSH2 0xF16F DUP2 PUSH2 0xF15A JUMP JUMPDEST DUP2 EQ PUSH2 0xF179 JUMPI PUSH0 PUSH0 REVERT JUMPDEST POP JUMP JUMPDEST PUSH0 DUP2 CALLDATALOAD SWAP1 POP PUSH2 0xF18A DUP2 PUSH2 0xF166 JUMP JUMPDEST SWAP3 SWAP2 POP POP JUMP JUMPDEST PUSH0 DUP2 ISZERO ISZERO SWAP1 POP SWAP2 SWAP1 POP JUMP JUMPDEST PUSH2 0xF1A4 DUP2 PUSH2 0xF190 JUMP JUMPDEST DUP2 EQ PUSH2 0xF1AE JUMPI PUSH0 PUSH0 REVERT JUMPDEST POP JUMP JUMPDEST PUSH0 DUP2 CALLDATALOAD SWAP1 POP PUSH2 0xF1BF DUP2 PUSH2 0xF19B JUMP JUMPDEST SWAP3 SWAP2 POP POP JUMP JUMPDEST PUSH0 PUSH1 0x40 DUP3 DUP5 SUB SLT ISZERO PUSH2 0xF1DA JUMPI PUSH2 0xF1D9 PUSH2 0xE9C0 JUMP JUMPDEST JUMPDEST PUSH2 0xF1E4 PUSH1 0x40 PUSH2 0xEA32 JUMP JUMPDEST SWAP1 POP PUSH0 PUSH2 0xF1F3 DUP5 DUP3 DUP6 ADD PUSH2 0xF146 JUMP JUMPDEST PUSH0 DUP4 ADD MSTORE POP PUSH1 0x20 PUSH2 0xF206 DUP5 DUP3 DUP6 ADD PUSH2 0xF17C JUMP JUMPDEST PUSH1 0x20 DUP4 ADD MSTORE POP SWAP3 SWAP2 POP POP JUMP JUMPDEST PUSH0 PUSH1 0xA0 DUP3 DUP5 SUB SLT ISZERO PUSH2 0xF227 JUMPI PUSH2 0xF226 PUSH2 0xE9C0 JUMP JUMPDEST JUMPDEST PUSH2 0xF231 PUSH1 0x80 PUSH2 0xEA32 JUMP JUMPDEST SWAP1 POP PUSH0 PUSH2 0xF240 DUP5 DUP3 DUP6 ADD PUSH2 0xF146 JUMP JUMPDEST PUSH0 DUP4 ADD MSTORE POP PUSH1 0x20 PUSH2 0xF253 DUP5 DUP3 DUP6 ADD PUSH2 0xF17C JUMP JUMPDEST PUSH1 0x20 DUP4 ADD MSTORE POP PUSH1 0x40 PUSH2 0xF267 DUP5 DUP3 DUP6 ADD PUSH2 0xF1B1 JUMP JUMPDEST PUSH1 0x40 DUP4 ADD MSTORE POP PUSH1 0x60 PUSH2 0xF27B DUP5 DUP3 DUP6 ADD PUSH2 0xF1C5 JUMP JUMPDEST PUSH1 0x60 DUP4 ADD MSTORE POP SWAP3 SWAP2 POP POP JUMP JUMPDEST PUSH0 PUSH2 0xF299 PUSH2 0xF294 DUP5 PUSH2 0xF108 JUMP JUMPDEST PUSH2 0xEA32 JUMP JUMPDEST SWAP1 POP DUP1 DUP4 DUP3 MSTORE PUSH1 0x20 DUP3 ADD SWAP1 POP PUSH1 0xA0 DUP5 MUL DUP4 ADD DUP6 DUP2 GT ISZERO PUSH2 0xF2BC JUMPI PUSH2 0xF2BB PUSH2 0xF133 JUMP JUMPDEST JUMPDEST DUP4 JUMPDEST DUP2 DUP2 LT ISZERO PUSH2 0xF2E5 JUMPI DUP1 PUSH2 0xF2D1 DUP9 DUP3 PUSH2 0xF212 JUMP JUMPDEST DUP5 MSTORE PUSH1 0x20 DUP5 ADD SWAP4 POP POP PUSH1 0xA0 DUP2 ADD SWAP1 POP PUSH2 0xF2BE JUMP JUMPDEST POP POP POP SWAP4 SWAP3 POP POP POP JUMP JUMPDEST PUSH0 DUP3 PUSH1 0x1F DUP4 ADD SLT PUSH2 0xF303 JUMPI PUSH2 0xF302 PUSH2 0xF104 JUMP JUMPDEST JUMPDEST DUP2 CALLDATALOAD PUSH2 0xF313 DUP5 DUP3 PUSH1 0x20 DUP7 ADD PUSH2 0xF287 JUMP JUMPDEST SWAP2 POP POP SWAP3 SWAP2 POP POP JUMP JUMPDEST PUSH0 PUSH2 0xFFFF DUP3 AND SWAP1 POP SWAP2 SWAP1 POP JUMP JUMPDEST PUSH2 0xF332 DUP2 PUSH2 0xF31C JUMP JUMPDEST DUP2 EQ PUSH2 0xF33C JUMPI PUSH0 PUSH0 REVERT JUMPDEST POP JUMP JUMPDEST PUSH0 DUP2 CALLDATALOAD SWAP1 POP PUSH2 0xF34D DUP2 PUSH2 0xF329 JUMP JUMPDEST SWAP3 SWAP2 POP POP JUMP JUMPDEST PUSH0 PUSH4 0xFFFFFFFF DUP3 AND SWAP1 POP SWAP2 SWAP1 POP JUMP JUMPDEST PUSH2 0xF36B DUP2 PUSH2 0xF353 JUMP JUMPDEST DUP2 EQ PUSH2 0xF375 JUMPI PUSH0 PUSH0 REVERT JUMPDEST POP JUMP JUMPDEST PUSH0 DUP2 CALLDATALOAD SWAP1 POP PUSH2 0xF386 DUP2 PUSH2 0xF362 JUMP JUMPDEST SWAP3 SWAP2 POP POP JUMP JUMPDEST PUSH1 0x2 DUP2 LT PUSH2 0xF398 JUMPI PUSH0 PUSH0 REVERT JUMPDEST POP JUMP JUMPDEST PUSH0 DUP2 CALLDATALOAD SWAP1 POP PUSH2 0xF3A9 DUP2 PUSH2 0xF38C JUMP JUMPDEST SWAP3 SWAP2 POP POP JUMP JUMPDEST PUSH1 0xB DUP2 LT PUSH2 0xF3BB JUMPI PUSH0 PUSH0 REVERT JUMPDEST POP JUMP JUMPDEST PUSH0 DUP2 CALLDATALOAD SWAP1 POP PUSH2 0xF3CC DUP2 PUSH2 0xF3AF JUMP JUMPDEST SWAP3 SWAP2 POP POP JUMP JUMPDEST PUSH1 0x1D DUP2 LT PUSH2 0xF3DE JUMPI PUSH0 PUSH0 REVERT JUMPDEST POP JUMP JUMPDEST PUSH0 DUP2 CALLDATALOAD SWAP1 POP PUSH2 0xF3EF DUP2 PUSH2 0xF3D2 JUMP JUMPDEST SWAP3 SWAP2 POP POP JUMP JUMPDEST PUSH1 0x17 DUP2 LT PUSH2 0xF401 JUMPI PUSH0 PUSH0 REVERT JUMPDEST POP JUMP JUMPDEST PUSH0 DUP2 CALLDATALOAD SWAP1 POP PUSH2 0xF412 DUP2 PUSH2 0xF3F5 JUMP JUMPDEST SWAP3 SWAP2 POP POP JUMP JUMPDEST PUSH1 0x14 DUP2 LT PUSH2 0xF424 JUMPI PUSH0 PUSH0 REVERT JUMPDEST POP JUMP JUMPDEST PUSH0 DUP2 CALLDATALOAD SWAP1 POP PUSH2 0xF435 DUP2 PUSH2 0xF418 JUMP JUMPDEST SWAP3 SWAP2 POP POP JUMP JUMPDEST PUSH1 0x9 DUP2 LT PUSH2 0xF447 JUMPI PUSH0 PUSH0 REVERT JUMPDEST POP JUMP JUMPDEST PUSH0 DUP2 CALLDATALOAD SWAP1 POP PUSH2 0xF458 DUP2 PUSH2 0xF43B JUMP JUMPDEST SWAP3 SWAP2 POP POP JUMP JUMPDEST PUSH1 0x9 DUP2 LT PUSH2 0xF46A JUMPI PUSH0 PUSH0 REVERT JUMPDEST POP JUMP JUMPDEST PUSH0 DUP2 CALLDATALOAD SWAP1 POP PUSH2 0xF47B DUP2 PUSH2 0xF45E JUMP JUMPDEST SWAP3 SWAP2 POP POP JUMP JUMPDEST PUSH1 0x4 DUP2 LT PUSH2 0xF48D JUMPI PUSH0 PUSH0 REVERT JUMPDEST POP JUMP JUMPDEST PUSH0 DUP2 CALLDATALOAD SWAP1 POP PUSH2 0xF49E DUP2 PUSH2 0xF481 JUMP JUMPDEST SWAP3 SWAP2 POP POP JUMP JUMPDEST PUSH1 0x58 DUP2 LT PUSH2 0xF4B0 JUMPI PUSH0 PUSH0 REVERT JUMPDEST POP JUMP JUMPDEST PUSH0 DUP2 CALLDATALOAD SWAP1 POP PUSH2 0xF4C1 DUP2 PUSH2 0xF4A4 JUMP JUMPDEST SWAP3 SWAP2 POP POP JUMP JUMPDEST PUSH1 0x16 DUP2 LT PUSH2 0xF4D3 JUMPI PUSH0 PUSH0 REVERT JUMPDEST POP JUMP JUMPDEST PUSH0 DUP2 CALLDATALOAD SWAP1 POP PUSH2 0xF4E4 DUP2 PUSH2 0xF4C7 JUMP JUMPDEST SWAP3 SWAP2 POP POP JUMP JUMPDEST PUSH1 0xD4 DUP2 LT PUSH2 0xF4F6 JUMPI PUSH0 PUSH0 REVERT JUMPDEST POP JUMP JUMPDEST PUSH0 DUP2 CALLDATALOAD SWAP1 POP PUSH2 0xF507 DUP2 PUSH2 0xF4EA JUMP JUMPDEST SWAP3 SWAP2 POP POP JUMP JUMPDEST PUSH1 0x6A DUP2 LT PUSH2 0xF519 JUMPI PUSH0 PUSH0 REVERT JUMPDEST POP JUMP JUMPDEST PUSH0 DUP2 CALLDATALOAD SWAP1 POP PUSH2 0xF52A DUP2 PUSH2 0xF50D JUMP JUMPDEST SWAP3 SWAP2 POP POP JUMP JUMPDEST PUSH1 0xA9 DUP2 LT PUSH2 0xF53C JUMPI PUSH0 PUSH0 REVERT JUMPDEST POP JUMP JUMPDEST PUSH0 DUP2 CALLDATALOAD SWAP1 POP PUSH2 0xF54D DUP2 PUSH2 0xF530 JUMP JUMPDEST SWAP3 SWAP2 POP POP JUMP JUMPDEST PUSH1 0x80 DUP2 LT PUSH2 0xF55F JUMPI PUSH0 PUSH0 REVERT JUMPDEST POP JUMP JUMPDEST PUSH0 DUP2 CALLDATALOAD SWAP1 POP PUSH2 0xF570 DUP2 PUSH2 0xF553 JUMP JUMPDEST SWAP3 SWAP2 POP POP JUMP JUMPDEST PUSH1 0x1A DUP2 LT PUSH2 0xF582 JUMPI PUSH0 PUSH0 REVERT JUMPDEST POP JUMP JUMPDEST PUSH0 DUP2 CALLDATALOAD SWAP1 POP PUSH2 0xF593 DUP2 PUSH2 0xF576 JUMP JUMPDEST SWAP3 SWAP2 POP POP JUMP JUMPDEST PUSH1 0x1F DUP2 LT PUSH2 0xF5A5 JUMPI PUSH0 PUSH0 REVERT JUMPDEST POP JUMP JUMPDEST PUSH0 DUP2 CALLDATALOAD SWAP1 POP PUSH2 0xF5B6 DUP2 PUSH2 0xF599 JUMP JUMPDEST SWAP3 SWAP2 POP POP JUMP JUMPDEST PUSH1 0x13 DUP2 LT PUSH2 0xF5C8 JUMPI PUSH0 PUSH0 REVERT JUMPDEST POP JUMP JUMPDEST PUSH0 DUP2 CALLDATALOAD SWAP1 POP PUSH2 0xF5D9 DUP2 PUSH2 0xF5BC JUMP JUMPDEST SWAP3 SWAP2 POP POP JUMP JUMPDEST PUSH1 0x9 DUP2 LT PUSH2 0xF5EB JUMPI PUSH0 PUSH0 REVERT JUMPDEST POP JUMP JUMPDEST PUSH0 DUP2 CALLDATALOAD SWAP1 POP PUSH2 0xF5FC DUP2 PUSH2 0xF5DF JUMP JUMPDEST SWAP3 SWAP2 POP POP JUMP JUMPDEST PUSH1 0x9 DUP2 LT PUSH2 0xF60E JUMPI PUSH0 PUSH0 REVERT JUMPDEST POP JUMP JUMPDEST PUSH0 DUP2 CALLDATALOAD SWAP1 POP PUSH2 0xF61F DUP2 PUSH2 0xF602 JUMP JUMPDEST SWAP3 SWAP2 POP POP JUMP JUMPDEST PUSH1 0x4 DUP2 LT PUSH2 0xF631 JUMPI PUSH0 PUSH0 REVERT JUMPDEST POP JUMP JUMPDEST PUSH0 DUP2 CALLDATALOAD SWAP1 POP PUSH2 0xF642 DUP2 PUSH2 0xF625 JUMP JUMPDEST SWAP3 SWAP2 POP POP JUMP JUMPDEST PUSH1 0x15 DUP2 LT PUSH2 0xF654 JUMPI PUSH0 PUSH0 REVERT JUMPDEST POP JUMP JUMPDEST PUSH0 DUP2 CALLDATALOAD SWAP1 POP PUSH2 0xF665 DUP2 PUSH2 0xF648 JUMP JUMPDEST SWAP3 SWAP2 POP POP JUMP JUMPDEST PUSH1 0xC3 DUP2 LT PUSH2 0xF677 JUMPI PUSH0 PUSH0 REVERT JUMPDEST POP JUMP JUMPDEST PUSH0 DUP2 CALLDATALOAD SWAP1 POP PUSH2 0xF688 DUP2 PUSH2 0xF66B JUMP JUMPDEST SWAP3 SWAP2 POP POP JUMP JUMPDEST PUSH1 0x85 DUP2 LT PUSH2 0xF69A JUMPI PUSH0 PUSH0 REVERT JUMPDEST POP JUMP JUMPDEST PUSH0 DUP2 CALLDATALOAD SWAP1 POP PUSH2 0xF6AB DUP2 PUSH2 0xF68E JUMP JUMPDEST SWAP3 SWAP2 POP POP JUMP JUMPDEST PUSH1 0x84 DUP2 LT PUSH2 0xF6BD JUMPI PUSH0 PUSH0 REVERT JUMPDEST POP JUMP JUMPDEST PUSH0 DUP2 CALLDATALOAD SWAP1 POP PUSH2 0xF6CE DUP2 PUSH2 0xF6B1 JUMP JUMPDEST SWAP3 SWAP2 POP POP JUMP JUMPDEST PUSH1 0x7A DUP2 LT PUSH2 0xF6E0 JUMPI PUSH0 PUSH0 REVERT JUMPDEST POP JUMP JUMPDEST PUSH0 DUP2 CALLDATALOAD SWAP1 POP PUSH2 0xF6F1 DUP2 PUSH2 0xF6D4 JUMP JUMPDEST SWAP3 SWAP2 POP POP JUMP JUMPDEST PUSH1 0xD DUP2 LT PUSH2 0xF703 JUMPI PUSH0 PUSH0 REVERT JUMPDEST POP JUMP JUMPDEST PUSH0 DUP2 CALLDATALOAD SWAP1 POP PUSH2 0xF714 DUP2 PUSH2 0xF6F7 JUMP JUMPDEST SWAP3 SWAP2 POP POP JUMP JUMPDEST PUSH1 0xB DUP2 LT PUSH2 0xF726 JUMPI PUSH0 PUSH0 REVERT JUMPDEST POP JUMP JUMPDEST PUSH0 DUP2 CALLDATALOAD SWAP1 POP PUSH2 0xF737 DUP2 PUSH2 0xF71A JUMP JUMPDEST SWAP3 SWAP2 POP POP JUMP JUMPDEST PUSH0 PUSH2 0x420 DUP3 DUP5 SUB SLT ISZERO PUSH2 0xF753 JUMPI PUSH2 0xF752 PUSH2 0xE9C0 JUMP JUMPDEST JUMPDEST PUSH2 0xF75E PUSH2 0x420 PUSH2 0xEA32 JUMP JUMPDEST SWAP1 POP PUSH0 DUP3 ADD CALLDATALOAD PUSH8 0xFFFFFFFFFFFFFFFF DUP2 GT ISZERO PUSH2 0xF77D JUMPI PUSH2 0xF77C PUSH2 0xEA4C JUMP JUMPDEST JUMPDEST PUSH2 0xF789 DUP5 DUP3 DUP6 ADD PUSH2 0xF2EF JUMP JUMPDEST PUSH0 DUP4 ADD MSTORE POP PUSH1 0x20 PUSH2 0xF79C DUP5 DUP3 DUP6 ADD PUSH2 0xF17C JUMP JUMPDEST PUSH1 0x20 DUP4 ADD MSTORE POP PUSH1 0x40 PUSH2 0xF7B0 DUP5 DUP3 DUP6 ADD PUSH2 0xF33F JUMP JUMPDEST PUSH1 0x40 DUP4 ADD MSTORE POP PUSH1 0x60 PUSH2 0xF7C4 DUP5 DUP3 DUP6 ADD PUSH2 0xEA6F JUMP JUMPDEST PUSH1 0x60 DUP4 ADD MSTORE POP PUSH1 0x80 PUSH2 0xF7D8 DUP5 DUP3 DUP6 ADD PUSH2 0xF33F JUMP JUMPDEST PUSH1 0x80 DUP4 ADD MSTORE POP PUSH1 0xA0 PUSH2 0xF7EC DUP5 DUP3 DUP6 ADD PUSH2 0xF378 JUMP JUMPDEST PUSH1 0xA0 DUP4 ADD MSTORE POP PUSH1 0xC0 PUSH2 0xF800 DUP5 DUP3 DUP6 ADD PUSH2 0xF39B JUMP JUMPDEST PUSH1 0xC0 DUP4 ADD MSTORE POP PUSH1 0xE0 PUSH2 0xF814 DUP5 DUP3 DUP6 ADD PUSH2 0xF3BE JUMP JUMPDEST PUSH1 0xE0 DUP4 ADD MSTORE POP PUSH2 0x100 PUSH2 0xF829 DUP5 DUP3 DUP6 ADD PUSH2 0xF3E1 JUMP JUMPDEST PUSH2 0x100 DUP4 ADD MSTORE POP PUSH2 0x120 PUSH2 0xF83F DUP5 DUP3 DUP6 ADD PUSH2 0xF404 JUMP JUMPDEST PUSH2 0x120 DUP4 ADD MSTORE POP PUSH2 0x140 PUSH2 0xF855 DUP5 DUP3 DUP6 ADD PUSH2 0xF427 JUMP JUMPDEST PUSH2 0x140 DUP4 ADD MSTORE POP PUSH2 0x160 PUSH2 0xF86B DUP5 DUP3 DUP6 ADD PUSH2 0xF44A JUMP JUMPDEST PUSH2 0x160 DUP4 ADD MSTORE POP PUSH2 0x180 PUSH2 0xF881 DUP5 DUP3 DUP6 ADD PUSH2 0xF46D JUMP JUMPDEST PUSH2 0x180 DUP4 ADD MSTORE POP PUSH2 0x1A0 PUSH2 0xF897 DUP5 DUP3 DUP6 ADD PUSH2 0xF490 JUMP JUMPDEST PUSH2 0x1A0 DUP4 ADD MSTORE POP PUSH2 0x1C0 PUSH2 0xF8AD DUP5 DUP3 DUP6 ADD PUSH2 0xF4B3 JUMP JUMPDEST PUSH2 0x1C0 DUP4 ADD MSTORE POP PUSH2 0x1E0 PUSH2 0xF8C3 DUP5 DUP3 DUP6 ADD PUSH2 0xF4D6 JUMP JUMPDEST PUSH2 0x1E0 DUP4 ADD MSTORE POP PUSH2 0x200 PUSH2 0xF8D9 DUP5 DUP3 DUP6 ADD PUSH2 0xF4F9 JUMP JUMPDEST PUSH2 0x200 DUP4 ADD MSTORE POP PUSH2 0x220 PUSH2 0xF8EF DUP5 DUP3 DUP6 ADD PUSH2 0xF51C JUMP JUMPDEST PUSH2 0x220 DUP4 ADD MSTORE POP PUSH2 0x240 PUSH2 0xF905 DUP5 DUP3 DUP6 ADD PUSH2 0xF53F JUMP JUMPDEST PUSH2 0x240 DUP4 ADD MSTORE POP PUSH2 0x260 PUSH2 0xF91B DUP5 DUP3 DUP6 ADD PUSH2 0xF562 JUMP JUMPDEST PUSH2 0x260 DUP4 ADD MSTORE POP PUSH2 0x280 PUSH2 0xF931 DUP5 DUP3 DUP6 ADD PUSH2 0xF585 JUMP JUMPDEST PUSH2 0x280 DUP4 ADD MSTORE POP PUSH2 0x2A0 PUSH2 0xF947 DUP5 DUP3 DUP6 ADD PUSH2 0xF5A8 JUMP JUMPDEST PUSH2 0x2A0 DUP4 ADD MSTORE POP PUSH2 0x2C0 PUSH2 0xF95D DUP5 DUP3 DUP6 ADD PUSH2 0xF5CB JUMP JUMPDEST PUSH2 0x2C0 DUP4 ADD MSTORE POP PUSH2 0x2E0 PUSH2 0xF973 DUP5 DUP3 DUP6 ADD PUSH2 0xF5EE JUMP JUMPDEST PUSH2 0x2E0 DUP4 ADD MSTORE POP PUSH2 0x300 PUSH2 0xF989 DUP5 DUP3 DUP6 ADD PUSH2 0xF611 JUMP JUMPDEST PUSH2 0x300 DUP4 ADD MSTORE POP PUSH2 0x320 PUSH2 0xF99F DUP5 DUP3 DUP6 ADD PUSH2 0xF634 JUMP JUMPDEST PUSH2 0x320 DUP4 ADD MSTORE POP PUSH2 0x340 PUSH2 0xF9B5 DUP5 DUP3 DUP6 ADD PUSH2 0xF657 JUMP JUMPDEST PUSH2 0x340 DUP4 ADD MSTORE POP PUSH2 0x360 PUSH2 0xF9CB DUP5 DUP3 DUP6 ADD PUSH2 0xF67A JUMP JUMPDEST PUSH2 0x360 DUP4 ADD MSTORE POP PUSH2 0x380 PUSH2 0xF9E1 DUP5 DUP3 DUP6 ADD PUSH2 0xF69D JUMP JUMPDEST PUSH2 0x380 DUP4 ADD MSTORE POP PUSH2 0x3A0 PUSH2 0xF9F7 DUP5 DUP3 DUP6 ADD PUSH2 0xF6C0 JUMP JUMPDEST PUSH2 0x3A0 DUP4 ADD MSTORE POP PUSH2 0x3C0 PUSH2 0xFA0D DUP5 DUP3 DUP6 ADD PUSH2 0xF6E3 JUMP JUMPDEST PUSH2 0x3C0 DUP4 ADD MSTORE POP PUSH2 0x3E0 PUSH2 0xFA23 DUP5 DUP3 DUP6 ADD PUSH2 0xF706 JUMP JUMPDEST PUSH2 0x3E0 DUP4 ADD MSTORE POP PUSH2 0x400 PUSH2 0xFA39 DUP5 DUP3 DUP6 ADD PUSH2 0xF729 JUMP JUMPDEST PUSH2 0x400 DUP4 ADD MSTORE POP SWAP3 SWAP2 POP POP JUMP JUMPDEST PUSH0 PUSH2 0xFA51 CALLDATASIZE DUP4 PUSH2 0xF73D JUMP JUMPDEST SWAP1 POP SWAP2 SWAP1 POP JUMP JUMPDEST PUSH32 0x4E487B7100000000000000000000000000000000000000000000000000000000 PUSH0 MSTORE PUSH1 0x11 PUSH1 0x4 MSTORE PUSH1 0x24 PUSH0 REVERT JUMPDEST PUSH0 PUSH2 0xFA8F DUP3 PUSH2 0xEA50 JUMP JUMPDEST SWAP2 POP PUSH2 0xFA9A DUP4 PUSH2 0xEA50 JUMP JUMPDEST SWAP3 POP DUP3 DUP3 ADD SWAP1 POP DUP1 DUP3 GT ISZERO PUSH2 0xFAB2 JUMPI PUSH2 0xFAB1 PUSH2 0xFA58 JUMP JUMPDEST JUMPDEST SWAP3 SWAP2 POP POP JUMP JUMPDEST PUSH0 PUSH2 0xFAC2 DUP3 PUSH2 0xEA50 JUMP JUMPDEST SWAP2 POP PUSH32 0xFFFFFFFFFFFFFFFFFFFFFFFFFFFFFFFFFFFFFFFFFFFFFFFFFFFFFFFFFFFFFFFF DUP3 SUB PUSH2 0xFAF4 JUMPI PUSH2 0xFAF3 PUSH2 0xFA58 JUMP JUMPDEST JUMPDEST PUSH1 0x1 DUP3 ADD SWAP1 POP SWAP2 SWAP1 POP JUMP JUMPDEST PUSH0 DUP2 SWAP1 POP SWAP2 SWAP1 POP JUMP JUMPDEST PUSH2 0xFB19 PUSH2 0xFB14 DUP3 PUSH2 0xEA50 JUMP JUMPDEST PUSH2 0xFAFF JUMP JUMPDEST DUP3 MSTORE POP POP JUMP JUMPDEST PUSH0 PUSH2 0xFB2A DUP3 DUP6 PUSH2 0xFB08 JUMP JUMPDEST PUSH1 0x20 DUP3 ADD SWAP2 POP PUSH2 0xFB3A DUP3 DUP5 PUSH2 0xFB08 JUMP JUMPDEST PUSH1 0x20 DUP3 ADD SWAP2 POP DUP2 SWAP1 POP SWAP4 SWAP3 POP POP POP JUMP JUMPDEST PUSH32 0x4E487B7100000000000000000000000000000000000000000000000000000000 PUSH0 MSTORE PUSH1 0x12 PUSH1 0x4 MSTORE PUSH1 0x24 PUSH0 REVERT JUMPDEST PUSH0 PUSH2 0xFB81 DUP3 PUSH2 0xEA50 JUMP JUMPDEST SWAP2 POP PUSH2 0xFB8C DUP4 PUSH2 0xEA50 JUMP JUMPDEST SWAP3 POP DUP3 PUSH2 0xFB9C JUMPI PUSH2 0xFB9B PUSH2 0xFB4A JUMP JUMPDEST JUMPDEST DUP3 DUP3 MOD SWAP1 POP SWAP3 SWAP2 POP POP JUMP JUMPDEST PUSH0 DUP3 DUP3 MSTORE PUSH1 0x20 DUP3 ADD SWAP1 POP SWAP3 SWAP2 POP POP JUMP JUMPDEST PUSH32 0x53656C656374696F6E206661696C656400000000000000000000000000000000 PUSH0 DUP3 ADD MSTORE POP JUMP JUMPDEST PUSH0 PUSH2 0xFBEB PUSH1 0x10 DUP4 PUSH2 0xFBA7 JUMP JUMPDEST SWAP2 POP PUSH2 0xFBF6 DUP3 PUSH2 0xFBB7 JUMP JUMPDEST PUSH1 0x20 DUP3 ADD SWAP1 POP SWAP2 SWAP1 POP JUMP JUMPDEST PUSH0 PUSH1 0x20 DUP3 ADD SWAP1 POP DUP2 DUP2 SUB PUSH0 DUP4 ADD MSTORE PUSH2 0xFC18 DUP2 PUSH2 0xFBDF JUMP JUMPDEST SWAP1 POP SWAP2 SWAP1 POP JUMP INVALID LOG2 PUSH5 0x6970667358 0x22 SLT KECCAK256 PC DUP14 CODESIZE EOFCREATE 0xA6 SWAP12 SWAP3 SAR 0xFC STOP GASLIMIT 0xB7 PUSH21 0x1E973310FE95A71A4DAE5533A5CBB0AA47F3396473 PUSH16 0x6C634300081E00330000000000000000 "
		},
		"gasEstimates": {
			"creation": {
				"codeDepositCost": "12919400",
				"executionCost": "20124",
				"totalCost": "12939524"
			},
			"external": {
				"selectLipsNTeeth(((uint8,uint8,bool,(uint8,uint8))[],uint8,uint16,uint256,uint16,uint32,uint8,uint8,uint8,uint8,uint8,uint8,uint8,uint8,uint8,uint8,uint8,uint8,uint8,uint8,uint8,uint8,uint8,uint8,uint8,uint8,uint8,uint8,uint8,uint8,uint8,uint8,uint8),(uint256,uint256))": "infinite",
				"selectMaleChain((uint256,uint256))": "infinite",
				"selectMaleEarring((uint256,uint256))": "infinite",
				"selectMaleEyeWear((uint256,uint256))": "infinite",
				"selectMaleEyes(((uint8,uint8,bool,(uint8,uint8))[],uint8,uint16,uint256,uint16,uint32,uint8,uint8,uint8,uint8,uint8,uint8,uint8,uint8,uint8,uint8,uint8,uint8,uint8,uint8,uint8,uint8,uint8,uint8,uint8,uint8,uint8,uint8,uint8,uint8,uint8,uint8,uint8),(uint256,uint256))": "infinite",
				"selectMaleFace(((uint8,uint8,bool,(uint8,uint8))[],uint8,uint16,uint256,uint16,uint32,uint8,uint8,uint8,uint8,uint8,uint8,uint8,uint8,uint8,uint8,uint8,uint8,uint8,uint8,uint8,uint8,uint8,uint8,uint8,uint8,uint8,uint8,uint8,uint8,uint8,uint8,uint8),(uint256,uint256))": "infinite",
				"selectMaleFacialHair(((uint8,uint8,bool,(uint8,uint8))[],uint8,uint16,uint256,uint16,uint32,uint8,uint8,uint8,uint8,uint8,uint8,uint8,uint8,uint8,uint8,uint8,uint8,uint8,uint8,uint8,uint8,uint8,uint8,uint8,uint8,uint8,uint8,uint8,uint8,uint8,uint8,uint8),(uint256,uint256))": "infinite",
				"selectMaleHair(((uint8,uint8,bool,(uint8,uint8))[],uint8,uint16,uint256,uint16,uint32,uint8,uint8,uint8,uint8,uint8,uint8,uint8,uint8,uint8,uint8,uint8,uint8,uint8,uint8,uint8,uint8,uint8,uint8,uint8,uint8,uint8,uint8,uint8,uint8,uint8,uint8,uint8),(uint256,uint256))": "infinite",
				"selectMaleHatHair(((uint8,uint8,bool,(uint8,uint8))[],uint8,uint16,uint256,uint16,uint32,uint8,uint8,uint8,uint8,uint8,uint8,uint8,uint8,uint8,uint8,uint8,uint8,uint8,uint8,uint8,uint8,uint8,uint8,uint8,uint8,uint8,uint8,uint8,uint8,uint8,uint8,uint8),(uint256,uint256))": "infinite",
				"selectMaleHeadwear((uint256,uint256))": "infinite",
				"selectMaleMask((uint256,uint256))": "infinite",
				"selectMaleScarf((uint256,uint256))": "infinite",
				"selectMaleSkinType((uint256,uint256))": "infinite",
				"selectMouth((uint256,uint256))": "infinite"
			}
		},
		"methodIdentifiers": {
			"selectLipsNTeeth(((uint8,uint8,bool,(uint8,uint8))[],uint8,uint16,uint256,uint16,uint32,uint8,uint8,uint8,uint8,uint8,uint8,uint8,uint8,uint8,uint8,uint8,uint8,uint8,uint8,uint8,uint8,uint8,uint8,uint8,uint8,uint8,uint8,uint8,uint8,uint8,uint8,uint8),(uint256,uint256))": "6d4637d9",
			"selectMaleChain((uint256,uint256))": "146e3eef",
			"selectMaleEarring((uint256,uint256))": "eafa510a",
			"selectMaleEyeWear((uint256,uint256))": "42b2ba9e",
			"selectMaleEyes(((uint8,uint8,bool,(uint8,uint8))[],uint8,uint16,uint256,uint16,uint32,uint8,uint8,uint8,uint8,uint8,uint8,uint8,uint8,uint8,uint8,uint8,uint8,uint8,uint8,uint8,uint8,uint8,uint8,uint8,uint8,uint8,uint8,uint8,uint8,uint8,uint8,uint8),(uint256,uint256))": "25e2eca0",
			"selectMaleFace(((uint8,uint8,bool,(uint8,uint8))[],uint8,uint16,uint256,uint16,uint32,uint8,uint8,uint8,uint8,uint8,uint8,uint8,uint8,uint8,uint8,uint8,uint8,uint8,uint8,uint8,uint8,uint8,uint8,uint8,uint8,uint8,uint8,uint8,uint8,uint8,uint8,uint8),(uint256,uint256))": "d908ec45",
			"selectMaleFacialHair(((uint8,uint8,bool,(uint8,uint8))[],uint8,uint16,uint256,uint16,uint32,uint8,uint8,uint8,uint8,uint8,uint8,uint8,uint8,uint8,uint8,uint8,uint8,uint8,uint8,uint8,uint8,uint8,uint8,uint8,uint8,uint8,uint8,uint8,uint8,uint8,uint8,uint8),(uint256,uint256))": "b5f4debb",
			"selectMaleHair(((uint8,uint8,bool,(uint8,uint8))[],uint8,uint16,uint256,uint16,uint32,uint8,uint8,uint8,uint8,uint8,uint8,uint8,uint8,uint8,uint8,uint8,uint8,uint8,uint8,uint8,uint8,uint8,uint8,uint8,uint8,uint8,uint8,uint8,uint8,uint8,uint8,uint8),(uint256,uint256))": "48048824",
			"selectMaleHatHair(((uint8,uint8,bool,(uint8,uint8))[],uint8,uint16,uint256,uint16,uint32,uint8,uint8,uint8,uint8,uint8,uint8,uint8,uint8,uint8,uint8,uint8,uint8,uint8,uint8,uint8,uint8,uint8,uint8,uint8,uint8,uint8,uint8,uint8,uint8,uint8,uint8,uint8),(uint256,uint256))": "d5718063",
			"selectMaleHeadwear((uint256,uint256))": "4f4f0d07",
			"selectMaleMask((uint256,uint256))": "e7449565",
			"selectMaleScarf((uint256,uint256))": "4e87244f",
			"selectMaleSkinType((uint256,uint256))": "886815ff",
			"selectMouth((uint256,uint256))": "afec691c"
		}
	},
	"abi": [
		{
			"inputs": [
				{
					"components": [
						{
							"components": [
								{
									"internalType": "enum E_TraitsGroup",
									"name": "traitGroup",
									"type": "uint8"
								},
								{
									"internalType": "uint8",
									"name": "traitIndex",
									"type": "uint8"
								},
								{
									"internalType": "bool",
									"name": "hasFiller",
									"type": "bool"
								},
								{
									"components": [
										{
											"internalType": "enum E_TraitsGroup",
											"name": "traitGroup",
											"type": "uint8"
										},
										{
											"internalType": "uint8",
											"name": "traitIndex",
											"type": "uint8"
										}
									],
									"internalType": "struct FillerTrait",
									"name": "filler",
									"type": "tuple"
								}
							],
							"internalType": "struct TraitToRender[]",
							"name": "traitsToRender",
							"type": "tuple[]"
						},
						{
							"internalType": "uint8",
							"name": "traitsToRenderLength",
							"type": "uint8"
						},
						{
							"internalType": "uint16",
							"name": "tokenIdSeed",
							"type": "uint16"
						},
						{
							"internalType": "uint256",
							"name": "globalSeed",
							"type": "uint256"
						},
						{
							"internalType": "uint16",
							"name": "specialId",
							"type": "uint16"
						},
						{
							"internalType": "uint32",
							"name": "birthday",
							"type": "uint32"
						},
						{
							"internalType": "enum E_Sex",
							"name": "sex",
							"type": "uint8"
						},
						{
							"internalType": "enum E_Background",
							"name": "background",
							"type": "uint8"
						},
						{
							"internalType": "enum E_Male_Skin",
							"name": "maleSkinType",
							"type": "uint8"
						},
						{
							"internalType": "enum E_Male_Eyes",
							"name": "maleEyes",
							"type": "uint8"
						},
						{
							"internalType": "enum E_Male_Face",
							"name": "maleFace",
							"type": "uint8"
						},
						{
							"internalType": "enum E_Male_Chain",
							"name": "maleChain",
							"type": "uint8"
						},
						{
							"internalType": "enum E_Male_Earring",
							"name": "maleEarring",
							"type": "uint8"
						},
						{
							"internalType": "enum E_Male_Scarf",
							"name": "maleScarf",
							"type": "uint8"
						},
						{
							"internalType": "enum E_Male_Facial_Hair",
							"name": "maleFacialHair",
							"type": "uint8"
						},
						{
							"internalType": "enum E_Male_Mask",
							"name": "maleMask",
							"type": "uint8"
						},
						{
							"internalType": "enum E_Male_Hair",
							"name": "maleHair",
							"type": "uint8"
						},
						{
							"internalType": "enum E_Male_Hat_Hair",
							"name": "maleHatHair",
							"type": "uint8"
						},
						{
							"internalType": "enum E_Male_Headwear",
							"name": "maleHeadwear",
							"type": "uint8"
						},
						{
							"internalType": "enum E_Male_Eye_Wear",
							"name": "maleEyeWear",
							"type": "uint8"
						},
						{
							"internalType": "enum E_Female_Skin",
							"name": "femaleSkinType",
							"type": "uint8"
						},
						{
							"internalType": "enum E_Female_Eyes",
							"name": "femaleEyes",
							"type": "uint8"
						},
						{
							"internalType": "enum E_Female_Face",
							"name": "femaleFace",
							"type": "uint8"
						},
						{
							"internalType": "enum E_Female_Chain",
							"name": "femaleChain",
							"type": "uint8"
						},
						{
							"internalType": "enum E_Female_Earring",
							"name": "femaleEarring",
							"type": "uint8"
						},
						{
							"internalType": "enum E_Female_Scarf",
							"name": "femaleScarf",
							"type": "uint8"
						},
						{
							"internalType": "enum E_Female_Mask",
							"name": "femaleMask",
							"type": "uint8"
						},
						{
							"internalType": "enum E_Female_Hair",
							"name": "femaleHair",
							"type": "uint8"
						},
						{
							"internalType": "enum E_Female_Hat_Hair",
							"name": "femaleHatHair",
							"type": "uint8"
						},
						{
							"internalType": "enum E_Female_Headwear",
							"name": "femaleHeadwear",
							"type": "uint8"
						},
						{
							"internalType": "enum E_Female_Eye_Wear",
							"name": "femaleEyeWear",
							"type": "uint8"
						},
						{
							"internalType": "enum E_Lips_N_Teeth",
							"name": "lipsNTeeth",
							"type": "uint8"
						},
						{
							"internalType": "enum E_Mouth",
							"name": "mouth",
							"type": "uint8"
						}
					],
					"internalType": "struct TraitsContext",
					"name": "traits",
					"type": "tuple"
				},
				{
					"components": [
						{
							"internalType": "uint256",
							"name": "seed",
							"type": "uint256"
						},
						{
							"internalType": "uint256",
							"name": "counter",
							"type": "uint256"
						}
					],
					"internalType": "struct RandomCtx",
					"name": "rndCtx",
					"type": "tuple"
				}
			],
			"name": "selectLipsNTeeth",
			"outputs": [
				{
					"internalType": "enum E_Lips_N_Teeth",
					"name": "",
					"type": "uint8"
				}
			],
			"stateMutability": "pure",
			"type": "function"
		},
		{
			"inputs": [
				{
					"components": [
						{
							"internalType": "uint256",
							"name": "seed",
							"type": "uint256"
						},
						{
							"internalType": "uint256",
							"name": "counter",
							"type": "uint256"
						}
					],
					"internalType": "struct RandomCtx",
					"name": "rndCtx",
					"type": "tuple"
				}
			],
			"name": "selectMaleChain",
			"outputs": [
				{
					"internalType": "enum E_Male_Chain",
					"name": "",
					"type": "uint8"
				}
			],
			"stateMutability": "pure",
			"type": "function"
		},
		{
			"inputs": [
				{
					"components": [
						{
							"internalType": "uint256",
							"name": "seed",
							"type": "uint256"
						},
						{
							"internalType": "uint256",
							"name": "counter",
							"type": "uint256"
						}
					],
					"internalType": "struct RandomCtx",
					"name": "rndCtx",
					"type": "tuple"
				}
			],
			"name": "selectMaleEarring",
			"outputs": [
				{
					"internalType": "enum E_Male_Earring",
					"name": "",
					"type": "uint8"
				}
			],
			"stateMutability": "pure",
			"type": "function"
		},
		{
			"inputs": [
				{
					"components": [
						{
							"internalType": "uint256",
							"name": "seed",
							"type": "uint256"
						},
						{
							"internalType": "uint256",
							"name": "counter",
							"type": "uint256"
						}
					],
					"internalType": "struct RandomCtx",
					"name": "rndCtx",
					"type": "tuple"
				}
			],
			"name": "selectMaleEyeWear",
			"outputs": [
				{
					"internalType": "enum E_Male_Eye_Wear",
					"name": "",
					"type": "uint8"
				}
			],
			"stateMutability": "pure",
			"type": "function"
		},
		{
			"inputs": [
				{
					"components": [
						{
							"components": [
								{
									"internalType": "enum E_TraitsGroup",
									"name": "traitGroup",
									"type": "uint8"
								},
								{
									"internalType": "uint8",
									"name": "traitIndex",
									"type": "uint8"
								},
								{
									"internalType": "bool",
									"name": "hasFiller",
									"type": "bool"
								},
								{
									"components": [
										{
											"internalType": "enum E_TraitsGroup",
											"name": "traitGroup",
											"type": "uint8"
										},
										{
											"internalType": "uint8",
											"name": "traitIndex",
											"type": "uint8"
										}
									],
									"internalType": "struct FillerTrait",
									"name": "filler",
									"type": "tuple"
								}
							],
							"internalType": "struct TraitToRender[]",
							"name": "traitsToRender",
							"type": "tuple[]"
						},
						{
							"internalType": "uint8",
							"name": "traitsToRenderLength",
							"type": "uint8"
						},
						{
							"internalType": "uint16",
							"name": "tokenIdSeed",
							"type": "uint16"
						},
						{
							"internalType": "uint256",
							"name": "globalSeed",
							"type": "uint256"
						},
						{
							"internalType": "uint16",
							"name": "specialId",
							"type": "uint16"
						},
						{
							"internalType": "uint32",
							"name": "birthday",
							"type": "uint32"
						},
						{
							"internalType": "enum E_Sex",
							"name": "sex",
							"type": "uint8"
						},
						{
							"internalType": "enum E_Background",
							"name": "background",
							"type": "uint8"
						},
						{
							"internalType": "enum E_Male_Skin",
							"name": "maleSkinType",
							"type": "uint8"
						},
						{
							"internalType": "enum E_Male_Eyes",
							"name": "maleEyes",
							"type": "uint8"
						},
						{
							"internalType": "enum E_Male_Face",
							"name": "maleFace",
							"type": "uint8"
						},
						{
							"internalType": "enum E_Male_Chain",
							"name": "maleChain",
							"type": "uint8"
						},
						{
							"internalType": "enum E_Male_Earring",
							"name": "maleEarring",
							"type": "uint8"
						},
						{
							"internalType": "enum E_Male_Scarf",
							"name": "maleScarf",
							"type": "uint8"
						},
						{
							"internalType": "enum E_Male_Facial_Hair",
							"name": "maleFacialHair",
							"type": "uint8"
						},
						{
							"internalType": "enum E_Male_Mask",
							"name": "maleMask",
							"type": "uint8"
						},
						{
							"internalType": "enum E_Male_Hair",
							"name": "maleHair",
							"type": "uint8"
						},
						{
							"internalType": "enum E_Male_Hat_Hair",
							"name": "maleHatHair",
							"type": "uint8"
						},
						{
							"internalType": "enum E_Male_Headwear",
							"name": "maleHeadwear",
							"type": "uint8"
						},
						{
							"internalType": "enum E_Male_Eye_Wear",
							"name": "maleEyeWear",
							"type": "uint8"
						},
						{
							"internalType": "enum E_Female_Skin",
							"name": "femaleSkinType",
							"type": "uint8"
						},
						{
							"internalType": "enum E_Female_Eyes",
							"name": "femaleEyes",
							"type": "uint8"
						},
						{
							"internalType": "enum E_Female_Face",
							"name": "femaleFace",
							"type": "uint8"
						},
						{
							"internalType": "enum E_Female_Chain",
							"name": "femaleChain",
							"type": "uint8"
						},
						{
							"internalType": "enum E_Female_Earring",
							"name": "femaleEarring",
							"type": "uint8"
						},
						{
							"internalType": "enum E_Female_Scarf",
							"name": "femaleScarf",
							"type": "uint8"
						},
						{
							"internalType": "enum E_Female_Mask",
							"name": "femaleMask",
							"type": "uint8"
						},
						{
							"internalType": "enum E_Female_Hair",
							"name": "femaleHair",
							"type": "uint8"
						},
						{
							"internalType": "enum E_Female_Hat_Hair",
							"name": "femaleHatHair",
							"type": "uint8"
						},
						{
							"internalType": "enum E_Female_Headwear",
							"name": "femaleHeadwear",
							"type": "uint8"
						},
						{
							"internalType": "enum E_Female_Eye_Wear",
							"name": "femaleEyeWear",
							"type": "uint8"
						},
						{
							"internalType": "enum E_Lips_N_Teeth",
							"name": "lipsNTeeth",
							"type": "uint8"
						},
						{
							"internalType": "enum E_Mouth",
							"name": "mouth",
							"type": "uint8"
						}
					],
					"internalType": "struct TraitsContext",
					"name": "traits",
					"type": "tuple"
				},
				{
					"components": [
						{
							"internalType": "uint256",
							"name": "seed",
							"type": "uint256"
						},
						{
							"internalType": "uint256",
							"name": "counter",
							"type": "uint256"
						}
					],
					"internalType": "struct RandomCtx",
					"name": "rndCtx",
					"type": "tuple"
				}
			],
			"name": "selectMaleEyes",
			"outputs": [
				{
					"internalType": "enum E_Male_Eyes",
					"name": "",
					"type": "uint8"
				}
			],
			"stateMutability": "pure",
			"type": "function"
		},
		{
			"inputs": [
				{
					"components": [
						{
							"components": [
								{
									"internalType": "enum E_TraitsGroup",
									"name": "traitGroup",
									"type": "uint8"
								},
								{
									"internalType": "uint8",
									"name": "traitIndex",
									"type": "uint8"
								},
								{
									"internalType": "bool",
									"name": "hasFiller",
									"type": "bool"
								},
								{
									"components": [
										{
											"internalType": "enum E_TraitsGroup",
											"name": "traitGroup",
											"type": "uint8"
										},
										{
											"internalType": "uint8",
											"name": "traitIndex",
											"type": "uint8"
										}
									],
									"internalType": "struct FillerTrait",
									"name": "filler",
									"type": "tuple"
								}
							],
							"internalType": "struct TraitToRender[]",
							"name": "traitsToRender",
							"type": "tuple[]"
						},
						{
							"internalType": "uint8",
							"name": "traitsToRenderLength",
							"type": "uint8"
						},
						{
							"internalType": "uint16",
							"name": "tokenIdSeed",
							"type": "uint16"
						},
						{
							"internalType": "uint256",
							"name": "globalSeed",
							"type": "uint256"
						},
						{
							"internalType": "uint16",
							"name": "specialId",
							"type": "uint16"
						},
						{
							"internalType": "uint32",
							"name": "birthday",
							"type": "uint32"
						},
						{
							"internalType": "enum E_Sex",
							"name": "sex",
							"type": "uint8"
						},
						{
							"internalType": "enum E_Background",
							"name": "background",
							"type": "uint8"
						},
						{
							"internalType": "enum E_Male_Skin",
							"name": "maleSkinType",
							"type": "uint8"
						},
						{
							"internalType": "enum E_Male_Eyes",
							"name": "maleEyes",
							"type": "uint8"
						},
						{
							"internalType": "enum E_Male_Face",
							"name": "maleFace",
							"type": "uint8"
						},
						{
							"internalType": "enum E_Male_Chain",
							"name": "maleChain",
							"type": "uint8"
						},
						{
							"internalType": "enum E_Male_Earring",
							"name": "maleEarring",
							"type": "uint8"
						},
						{
							"internalType": "enum E_Male_Scarf",
							"name": "maleScarf",
							"type": "uint8"
						},
						{
							"internalType": "enum E_Male_Facial_Hair",
							"name": "maleFacialHair",
							"type": "uint8"
						},
						{
							"internalType": "enum E_Male_Mask",
							"name": "maleMask",
							"type": "uint8"
						},
						{
							"internalType": "enum E_Male_Hair",
							"name": "maleHair",
							"type": "uint8"
						},
						{
							"internalType": "enum E_Male_Hat_Hair",
							"name": "maleHatHair",
							"type": "uint8"
						},
						{
							"internalType": "enum E_Male_Headwear",
							"name": "maleHeadwear",
							"type": "uint8"
						},
						{
							"internalType": "enum E_Male_Eye_Wear",
							"name": "maleEyeWear",
							"type": "uint8"
						},
						{
							"internalType": "enum E_Female_Skin",
							"name": "femaleSkinType",
							"type": "uint8"
						},
						{
							"internalType": "enum E_Female_Eyes",
							"name": "femaleEyes",
							"type": "uint8"
						},
						{
							"internalType": "enum E_Female_Face",
							"name": "femaleFace",
							"type": "uint8"
						},
						{
							"internalType": "enum E_Female_Chain",
							"name": "femaleChain",
							"type": "uint8"
						},
						{
							"internalType": "enum E_Female_Earring",
							"name": "femaleEarring",
							"type": "uint8"
						},
						{
							"internalType": "enum E_Female_Scarf",
							"name": "femaleScarf",
							"type": "uint8"
						},
						{
							"internalType": "enum E_Female_Mask",
							"name": "femaleMask",
							"type": "uint8"
						},
						{
							"internalType": "enum E_Female_Hair",
							"name": "femaleHair",
							"type": "uint8"
						},
						{
							"internalType": "enum E_Female_Hat_Hair",
							"name": "femaleHatHair",
							"type": "uint8"
						},
						{
							"internalType": "enum E_Female_Headwear",
							"name": "femaleHeadwear",
							"type": "uint8"
						},
						{
							"internalType": "enum E_Female_Eye_Wear",
							"name": "femaleEyeWear",
							"type": "uint8"
						},
						{
							"internalType": "enum E_Lips_N_Teeth",
							"name": "lipsNTeeth",
							"type": "uint8"
						},
						{
							"internalType": "enum E_Mouth",
							"name": "mouth",
							"type": "uint8"
						}
					],
					"internalType": "struct TraitsContext",
					"name": "traits",
					"type": "tuple"
				},
				{
					"components": [
						{
							"internalType": "uint256",
							"name": "seed",
							"type": "uint256"
						},
						{
							"internalType": "uint256",
							"name": "counter",
							"type": "uint256"
						}
					],
					"internalType": "struct RandomCtx",
					"name": "rndCtx",
					"type": "tuple"
				}
			],
			"name": "selectMaleFace",
			"outputs": [
				{
					"internalType": "enum E_Male_Face",
					"name": "",
					"type": "uint8"
				}
			],
			"stateMutability": "pure",
			"type": "function"
		},
		{
			"inputs": [
				{
					"components": [
						{
							"components": [
								{
									"internalType": "enum E_TraitsGroup",
									"name": "traitGroup",
									"type": "uint8"
								},
								{
									"internalType": "uint8",
									"name": "traitIndex",
									"type": "uint8"
								},
								{
									"internalType": "bool",
									"name": "hasFiller",
									"type": "bool"
								},
								{
									"components": [
										{
											"internalType": "enum E_TraitsGroup",
											"name": "traitGroup",
											"type": "uint8"
										},
										{
											"internalType": "uint8",
											"name": "traitIndex",
											"type": "uint8"
										}
									],
									"internalType": "struct FillerTrait",
									"name": "filler",
									"type": "tuple"
								}
							],
							"internalType": "struct TraitToRender[]",
							"name": "traitsToRender",
							"type": "tuple[]"
						},
						{
							"internalType": "uint8",
							"name": "traitsToRenderLength",
							"type": "uint8"
						},
						{
							"internalType": "uint16",
							"name": "tokenIdSeed",
							"type": "uint16"
						},
						{
							"internalType": "uint256",
							"name": "globalSeed",
							"type": "uint256"
						},
						{
							"internalType": "uint16",
							"name": "specialId",
							"type": "uint16"
						},
						{
							"internalType": "uint32",
							"name": "birthday",
							"type": "uint32"
						},
						{
							"internalType": "enum E_Sex",
							"name": "sex",
							"type": "uint8"
						},
						{
							"internalType": "enum E_Background",
							"name": "background",
							"type": "uint8"
						},
						{
							"internalType": "enum E_Male_Skin",
							"name": "maleSkinType",
							"type": "uint8"
						},
						{
							"internalType": "enum E_Male_Eyes",
							"name": "maleEyes",
							"type": "uint8"
						},
						{
							"internalType": "enum E_Male_Face",
							"name": "maleFace",
							"type": "uint8"
						},
						{
							"internalType": "enum E_Male_Chain",
							"name": "maleChain",
							"type": "uint8"
						},
						{
							"internalType": "enum E_Male_Earring",
							"name": "maleEarring",
							"type": "uint8"
						},
						{
							"internalType": "enum E_Male_Scarf",
							"name": "maleScarf",
							"type": "uint8"
						},
						{
							"internalType": "enum E_Male_Facial_Hair",
							"name": "maleFacialHair",
							"type": "uint8"
						},
						{
							"internalType": "enum E_Male_Mask",
							"name": "maleMask",
							"type": "uint8"
						},
						{
							"internalType": "enum E_Male_Hair",
							"name": "maleHair",
							"type": "uint8"
						},
						{
							"internalType": "enum E_Male_Hat_Hair",
							"name": "maleHatHair",
							"type": "uint8"
						},
						{
							"internalType": "enum E_Male_Headwear",
							"name": "maleHeadwear",
							"type": "uint8"
						},
						{
							"internalType": "enum E_Male_Eye_Wear",
							"name": "maleEyeWear",
							"type": "uint8"
						},
						{
							"internalType": "enum E_Female_Skin",
							"name": "femaleSkinType",
							"type": "uint8"
						},
						{
							"internalType": "enum E_Female_Eyes",
							"name": "femaleEyes",
							"type": "uint8"
						},
						{
							"internalType": "enum E_Female_Face",
							"name": "femaleFace",
							"type": "uint8"
						},
						{
							"internalType": "enum E_Female_Chain",
							"name": "femaleChain",
							"type": "uint8"
						},
						{
							"internalType": "enum E_Female_Earring",
							"name": "femaleEarring",
							"type": "uint8"
						},
						{
							"internalType": "enum E_Female_Scarf",
							"name": "femaleScarf",
							"type": "uint8"
						},
						{
							"internalType": "enum E_Female_Mask",
							"name": "femaleMask",
							"type": "uint8"
						},
						{
							"internalType": "enum E_Female_Hair",
							"name": "femaleHair",
							"type": "uint8"
						},
						{
							"internalType": "enum E_Female_Hat_Hair",
							"name": "femaleHatHair",
							"type": "uint8"
						},
						{
							"internalType": "enum E_Female_Headwear",
							"name": "femaleHeadwear",
							"type": "uint8"
						},
						{
							"internalType": "enum E_Female_Eye_Wear",
							"name": "femaleEyeWear",
							"type": "uint8"
						},
						{
							"internalType": "enum E_Lips_N_Teeth",
							"name": "lipsNTeeth",
							"type": "uint8"
						},
						{
							"internalType": "enum E_Mouth",
							"name": "mouth",
							"type": "uint8"
						}
					],
					"internalType": "struct TraitsContext",
					"name": "traits",
					"type": "tuple"
				},
				{
					"components": [
						{
							"internalType": "uint256",
							"name": "seed",
							"type": "uint256"
						},
						{
							"internalType": "uint256",
							"name": "counter",
							"type": "uint256"
						}
					],
					"internalType": "struct RandomCtx",
					"name": "rndCtx",
					"type": "tuple"
				}
			],
			"name": "selectMaleFacialHair",
			"outputs": [
				{
					"internalType": "enum E_Male_Facial_Hair",
					"name": "",
					"type": "uint8"
				}
			],
			"stateMutability": "pure",
			"type": "function"
		},
		{
			"inputs": [
				{
					"components": [
						{
							"components": [
								{
									"internalType": "enum E_TraitsGroup",
									"name": "traitGroup",
									"type": "uint8"
								},
								{
									"internalType": "uint8",
									"name": "traitIndex",
									"type": "uint8"
								},
								{
									"internalType": "bool",
									"name": "hasFiller",
									"type": "bool"
								},
								{
									"components": [
										{
											"internalType": "enum E_TraitsGroup",
											"name": "traitGroup",
											"type": "uint8"
										},
										{
											"internalType": "uint8",
											"name": "traitIndex",
											"type": "uint8"
										}
									],
									"internalType": "struct FillerTrait",
									"name": "filler",
									"type": "tuple"
								}
							],
							"internalType": "struct TraitToRender[]",
							"name": "traitsToRender",
							"type": "tuple[]"
						},
						{
							"internalType": "uint8",
							"name": "traitsToRenderLength",
							"type": "uint8"
						},
						{
							"internalType": "uint16",
							"name": "tokenIdSeed",
							"type": "uint16"
						},
						{
							"internalType": "uint256",
							"name": "globalSeed",
							"type": "uint256"
						},
						{
							"internalType": "uint16",
							"name": "specialId",
							"type": "uint16"
						},
						{
							"internalType": "uint32",
							"name": "birthday",
							"type": "uint32"
						},
						{
							"internalType": "enum E_Sex",
							"name": "sex",
							"type": "uint8"
						},
						{
							"internalType": "enum E_Background",
							"name": "background",
							"type": "uint8"
						},
						{
							"internalType": "enum E_Male_Skin",
							"name": "maleSkinType",
							"type": "uint8"
						},
						{
							"internalType": "enum E_Male_Eyes",
							"name": "maleEyes",
							"type": "uint8"
						},
						{
							"internalType": "enum E_Male_Face",
							"name": "maleFace",
							"type": "uint8"
						},
						{
							"internalType": "enum E_Male_Chain",
							"name": "maleChain",
							"type": "uint8"
						},
						{
							"internalType": "enum E_Male_Earring",
							"name": "maleEarring",
							"type": "uint8"
						},
						{
							"internalType": "enum E_Male_Scarf",
							"name": "maleScarf",
							"type": "uint8"
						},
						{
							"internalType": "enum E_Male_Facial_Hair",
							"name": "maleFacialHair",
							"type": "uint8"
						},
						{
							"internalType": "enum E_Male_Mask",
							"name": "maleMask",
							"type": "uint8"
						},
						{
							"internalType": "enum E_Male_Hair",
							"name": "maleHair",
							"type": "uint8"
						},
						{
							"internalType": "enum E_Male_Hat_Hair",
							"name": "maleHatHair",
							"type": "uint8"
						},
						{
							"internalType": "enum E_Male_Headwear",
							"name": "maleHeadwear",
							"type": "uint8"
						},
						{
							"internalType": "enum E_Male_Eye_Wear",
							"name": "maleEyeWear",
							"type": "uint8"
						},
						{
							"internalType": "enum E_Female_Skin",
							"name": "femaleSkinType",
							"type": "uint8"
						},
						{
							"internalType": "enum E_Female_Eyes",
							"name": "femaleEyes",
							"type": "uint8"
						},
						{
							"internalType": "enum E_Female_Face",
							"name": "femaleFace",
							"type": "uint8"
						},
						{
							"internalType": "enum E_Female_Chain",
							"name": "femaleChain",
							"type": "uint8"
						},
						{
							"internalType": "enum E_Female_Earring",
							"name": "femaleEarring",
							"type": "uint8"
						},
						{
							"internalType": "enum E_Female_Scarf",
							"name": "femaleScarf",
							"type": "uint8"
						},
						{
							"internalType": "enum E_Female_Mask",
							"name": "femaleMask",
							"type": "uint8"
						},
						{
							"internalType": "enum E_Female_Hair",
							"name": "femaleHair",
							"type": "uint8"
						},
						{
							"internalType": "enum E_Female_Hat_Hair",
							"name": "femaleHatHair",
							"type": "uint8"
						},
						{
							"internalType": "enum E_Female_Headwear",
							"name": "femaleHeadwear",
							"type": "uint8"
						},
						{
							"internalType": "enum E_Female_Eye_Wear",
							"name": "femaleEyeWear",
							"type": "uint8"
						},
						{
							"internalType": "enum E_Lips_N_Teeth",
							"name": "lipsNTeeth",
							"type": "uint8"
						},
						{
							"internalType": "enum E_Mouth",
							"name": "mouth",
							"type": "uint8"
						}
					],
					"internalType": "struct TraitsContext",
					"name": "traits",
					"type": "tuple"
				},
				{
					"components": [
						{
							"internalType": "uint256",
							"name": "seed",
							"type": "uint256"
						},
						{
							"internalType": "uint256",
							"name": "counter",
							"type": "uint256"
						}
					],
					"internalType": "struct RandomCtx",
					"name": "rndCtx",
					"type": "tuple"
				}
			],
			"name": "selectMaleHair",
			"outputs": [
				{
					"internalType": "enum E_Male_Hair",
					"name": "",
					"type": "uint8"
				}
			],
			"stateMutability": "pure",
			"type": "function"
		},
		{
			"inputs": [
				{
					"components": [
						{
							"components": [
								{
									"internalType": "enum E_TraitsGroup",
									"name": "traitGroup",
									"type": "uint8"
								},
								{
									"internalType": "uint8",
									"name": "traitIndex",
									"type": "uint8"
								},
								{
									"internalType": "bool",
									"name": "hasFiller",
									"type": "bool"
								},
								{
									"components": [
										{
											"internalType": "enum E_TraitsGroup",
											"name": "traitGroup",
											"type": "uint8"
										},
										{
											"internalType": "uint8",
											"name": "traitIndex",
											"type": "uint8"
										}
									],
									"internalType": "struct FillerTrait",
									"name": "filler",
									"type": "tuple"
								}
							],
							"internalType": "struct TraitToRender[]",
							"name": "traitsToRender",
							"type": "tuple[]"
						},
						{
							"internalType": "uint8",
							"name": "traitsToRenderLength",
							"type": "uint8"
						},
						{
							"internalType": "uint16",
							"name": "tokenIdSeed",
							"type": "uint16"
						},
						{
							"internalType": "uint256",
							"name": "globalSeed",
							"type": "uint256"
						},
						{
							"internalType": "uint16",
							"name": "specialId",
							"type": "uint16"
						},
						{
							"internalType": "uint32",
							"name": "birthday",
							"type": "uint32"
						},
						{
							"internalType": "enum E_Sex",
							"name": "sex",
							"type": "uint8"
						},
						{
							"internalType": "enum E_Background",
							"name": "background",
							"type": "uint8"
						},
						{
							"internalType": "enum E_Male_Skin",
							"name": "maleSkinType",
							"type": "uint8"
						},
						{
							"internalType": "enum E_Male_Eyes",
							"name": "maleEyes",
							"type": "uint8"
						},
						{
							"internalType": "enum E_Male_Face",
							"name": "maleFace",
							"type": "uint8"
						},
						{
							"internalType": "enum E_Male_Chain",
							"name": "maleChain",
							"type": "uint8"
						},
						{
							"internalType": "enum E_Male_Earring",
							"name": "maleEarring",
							"type": "uint8"
						},
						{
							"internalType": "enum E_Male_Scarf",
							"name": "maleScarf",
							"type": "uint8"
						},
						{
							"internalType": "enum E_Male_Facial_Hair",
							"name": "maleFacialHair",
							"type": "uint8"
						},
						{
							"internalType": "enum E_Male_Mask",
							"name": "maleMask",
							"type": "uint8"
						},
						{
							"internalType": "enum E_Male_Hair",
							"name": "maleHair",
							"type": "uint8"
						},
						{
							"internalType": "enum E_Male_Hat_Hair",
							"name": "maleHatHair",
							"type": "uint8"
						},
						{
							"internalType": "enum E_Male_Headwear",
							"name": "maleHeadwear",
							"type": "uint8"
						},
						{
							"internalType": "enum E_Male_Eye_Wear",
							"name": "maleEyeWear",
							"type": "uint8"
						},
						{
							"internalType": "enum E_Female_Skin",
							"name": "femaleSkinType",
							"type": "uint8"
						},
						{
							"internalType": "enum E_Female_Eyes",
							"name": "femaleEyes",
							"type": "uint8"
						},
						{
							"internalType": "enum E_Female_Face",
							"name": "femaleFace",
							"type": "uint8"
						},
						{
							"internalType": "enum E_Female_Chain",
							"name": "femaleChain",
							"type": "uint8"
						},
						{
							"internalType": "enum E_Female_Earring",
							"name": "femaleEarring",
							"type": "uint8"
						},
						{
							"internalType": "enum E_Female_Scarf",
							"name": "femaleScarf",
							"type": "uint8"
						},
						{
							"internalType": "enum E_Female_Mask",
							"name": "femaleMask",
							"type": "uint8"
						},
						{
							"internalType": "enum E_Female_Hair",
							"name": "femaleHair",
							"type": "uint8"
						},
						{
							"internalType": "enum E_Female_Hat_Hair",
							"name": "femaleHatHair",
							"type": "uint8"
						},
						{
							"internalType": "enum E_Female_Headwear",
							"name": "femaleHeadwear",
							"type": "uint8"
						},
						{
							"internalType": "enum E_Female_Eye_Wear",
							"name": "femaleEyeWear",
							"type": "uint8"
						},
						{
							"internalType": "enum E_Lips_N_Teeth",
							"name": "lipsNTeeth",
							"type": "uint8"
						},
						{
							"internalType": "enum E_Mouth",
							"name": "mouth",
							"type": "uint8"
						}
					],
					"internalType": "struct TraitsContext",
					"name": "traits",
					"type": "tuple"
				},
				{
					"components": [
						{
							"internalType": "uint256",
							"name": "seed",
							"type": "uint256"
						},
						{
							"internalType": "uint256",
							"name": "counter",
							"type": "uint256"
						}
					],
					"internalType": "struct RandomCtx",
					"name": "rndCtx",
					"type": "tuple"
				}
			],
			"name": "selectMaleHatHair",
			"outputs": [
				{
					"internalType": "enum E_Male_Hat_Hair",
					"name": "",
					"type": "uint8"
				}
			],
			"stateMutability": "pure",
			"type": "function"
		},
		{
			"inputs": [
				{
					"components": [
						{
							"internalType": "uint256",
							"name": "seed",
							"type": "uint256"
						},
						{
							"internalType": "uint256",
							"name": "counter",
							"type": "uint256"
						}
					],
					"internalType": "struct RandomCtx",
					"name": "rndCtx",
					"type": "tuple"
				}
			],
			"name": "selectMaleHeadwear",
			"outputs": [
				{
					"internalType": "enum E_Male_Headwear",
					"name": "",
					"type": "uint8"
				}
			],
			"stateMutability": "pure",
			"type": "function"
		},
		{
			"inputs": [
				{
					"components": [
						{
							"internalType": "uint256",
							"name": "seed",
							"type": "uint256"
						},
						{
							"internalType": "uint256",
							"name": "counter",
							"type": "uint256"
						}
					],
					"internalType": "struct RandomCtx",
					"name": "rndCtx",
					"type": "tuple"
				}
			],
			"name": "selectMaleMask",
			"outputs": [
				{
					"internalType": "enum E_Male_Mask",
					"name": "",
					"type": "uint8"
				}
			],
			"stateMutability": "pure",
			"type": "function"
		},
		{
			"inputs": [
				{
					"components": [
						{
							"internalType": "uint256",
							"name": "seed",
							"type": "uint256"
						},
						{
							"internalType": "uint256",
							"name": "counter",
							"type": "uint256"
						}
					],
					"internalType": "struct RandomCtx",
					"name": "rndCtx",
					"type": "tuple"
				}
			],
			"name": "selectMaleScarf",
			"outputs": [
				{
					"internalType": "enum E_Male_Scarf",
					"name": "",
					"type": "uint8"
				}
			],
			"stateMutability": "pure",
			"type": "function"
		},
		{
			"inputs": [
				{
					"components": [
						{
							"internalType": "uint256",
							"name": "seed",
							"type": "uint256"
						},
						{
							"internalType": "uint256",
							"name": "counter",
							"type": "uint256"
						}
					],
					"internalType": "struct RandomCtx",
					"name": "rndCtx",
					"type": "tuple"
				}
			],
			"name": "selectMaleSkinType",
			"outputs": [
				{
					"internalType": "enum E_Male_Skin",
					"name": "",
					"type": "uint8"
				}
			],
			"stateMutability": "pure",
			"type": "function"
		},
		{
			"inputs": [
				{
					"components": [
						{
							"internalType": "uint256",
							"name": "seed",
							"type": "uint256"
						},
						{
							"internalType": "uint256",
							"name": "counter",
							"type": "uint256"
						}
					],
					"internalType": "struct RandomCtx",
					"name": "rndCtx",
					"type": "tuple"
				}
			],
			"name": "selectMouth",
			"outputs": [
				{
					"internalType": "enum E_Mouth",
					"name": "",
					"type": "uint8"
				}
			],
			"stateMutability": "pure",
			"type": "function"
		}
	]
}