{
	"data": {
		"bytecode": {
			"linkReferences": {},
			"object": "60808060405234601557611d5a908161001a8239f35b5f80fdfe60806040526004361015610011575f80fd5b5f3560e01c80630b625f9b146100df57806318412d03146100da5780631b495a2d146100d557806320d076e2146100d057806327f00da4146100cb57806328dcd095146100c6578063777dbab9146100ad5780637c2534b7146100c15780638a886457146100bc5780639a236c4a146100b7578063c2ee6eda146100b2578063cbe9b474146100ad5763d0d4547f146100a8575f80fd5b610845565b610419565b610811565b610699565b61065c565b610479565b6103e5565b61034d565b610334565b6102de565b61025f565b610235565b634e487b7160e01b5f52604160045260245ffd5b604051906020820182811067ffffffffffffffff82111761011857604052565b6100e4565b604051906080820182811067ffffffffffffffff82111761011857604052565b604051906040820182811067ffffffffffffffff82111761011857604052565b604051906103e0820182811067ffffffffffffffff82111761011857604052565b6040519190601f01601f1916820167ffffffffffffffff81118382101761011857604052565b60209060031901126101c0576101b86100f8565b906004358252565b5f80fd5b9060406003198301126101c05760043567ffffffffffffffff81116101c0576103e081840360031901126101c0576020906004019260231901126101c05761020a6100f8565b602435815290565b634e487b7160e01b5f52602160045260245ffd5b6017111561023057565b610212565b346101c057602061024e610248366101c4565b90610e32565b6040519061025b81610226565b8152f35b346101c05760203660031901126101c0576102ca61027c366101a4565b610286606061017e565b602c81527f253a001e001e001e001e001e002800190019001900190019001900190019000f60208201526a078005000500050005000560a11b60408201529061192d565b601681101561023057602090604051908152f35b346101c05760203660031901126101c0576103206102fb366101a4565b610305604061017e565b600881526713560014000f000f60c11b60208201529061192d565b600481101561023057602090604051908152f35b346101c057602061024e610347366101c4565b90610ec5565b346101c05760203660031901126101c0576103c761036a366101a4565b610374606061017e565b90603a82527c2300af000c002d0037000e02ee02ee02ee02ee02ee02ee02ee02ee02ee60208301527f02ee02ee02ee000800160010003c0012001e000a0050012c0078000000000000604083015261192d565b601d81101561023057602090604051908152f35b60d4111561023057565b346101c0576103fc6103f6366101c4565b906111b9565b60405160d4821015610230576020918152f35b6009111561023057565b346101c05760203660031901126101c0576020610446610438366101a4565b61044061129b565b9061192d565b61044f8161040f565b6040519061025b8161040f565b60a9111561023057565b9190602083019260a98210156102305752565b346101c05760203660031901126101c05761064e610639610499366101a4565b6104a1610d01565b7f03bb007e007e007e007e007e003e003e003e003e003e003e003e003e003e004460208201527e440044004400440044004400440044003000300030006e001000100010001060408201527e1000100010008200820082008200820096000600060006000600060006000660608201527f01270012001200120012001200120012001200120069000f004200420042004260808201527e42000f000f000f000f000f000f000f000f000f001e0145004000400040004060a08201527e4000410003000f000f000f000f00220022002200640029002900290029002960c08201527e2900290032004b002d0014006400640064004e004e004e004e004e004e004e60e08201527e4e004b004b004b004b004b004b004b004b004b004b002600260026002600266101008201527e2600260026000e000e000e000e000e000e000e000e000e0037004e004e004e6101208201527e4e01220010001000100010001000100010004b004b004b004b004b004b004b610140820152704b0005000500050005000500050005000560701b6101608201529061192d565b6106428161045c565b60405191829182610466565b0390f35b6058111561023057565b346101c05761067361066d366101c4565b90611345565b6040516058821015610230576020918152f35b9190602083019260808210156102305752565b346101c05760203660031901126101c0576107ee6106b6366101a4565b6106be610d14565b907f03e801db00160016001600160016000a000a000a000a000a000a000a000a002e60208301527e2e002e002e002e002e002e002e002e002e002e00140014001400140014001460408301527e14001401db00400040004000400040004000400040004000170118021c013d60608301527e1c001c001c001c001c001c001c0190003e003e003e003e003e003e023a000460808301527e03000300050005000500050005000500050005007d007d023000090009000960a08301527e0900e10045027401a90003000300030003000300030003000300030032003260c08301527e3200320032003200320032003200320032004000400040004000400040004060e08301527e400040015b002100210021002100050005000500050005000500050005000561010083015261192d565b60808110156102305761064e9060405191829182610686565b606a111561023057565b346101c057610828610822366101c4565b906115b8565b604051606a821015610230576020918152f35b6014111561023057565b346101c05761085c610856366101c4565b90611740565b6040516014821015610230576020918152f35b3590601b8210156101c057565b359060ff821682036101c057565b81601f820112156101c05780359067ffffffffffffffff8211610118576108b660208360051b0161017e565b92602060a08186868152019402830101918183116101c057602001925b8284106108e1575050505090565b83820360a081126101c0576108f461011d565b906108fe8661086f565b825261090c6020870161087c565b602083015260408601359081151582036101c05760409182840152605f1901126101c05760a09160209161093e61013d565b61094a6060890161086f565b81526109586080890161087c565b8482015260608201528152019301926108d3565b359061ffff821682036101c057565b359063ffffffff821682036101c057565b359060028210156101c057565b359060058210156101c057565b3590601d8210156101c057565b359060178210156101c057565b359060148210156101c057565b359060098210156101c057565b359060048210156101c057565b359060588210156101c057565b359060168210156101c057565b359060d48210156101c057565b3590606a8210156101c057565b359060a98210156101c057565b359060808210156101c057565b3590601a8210156101c057565b3590601f8210156101c057565b359060138210156101c057565b359060158210156101c057565b359060c38210156101c057565b359060858210156101c057565b359060838210156101c057565b3590607a8210156101c057565b9190916103e0818403126101c057610ab361015d565b9281359167ffffffffffffffff83116101c057610ad86103c092610cf994830161088a565b8552610ae66020820161087c565b6020860152610af76040820161096c565b6040860152610b086060820161096c565b6060860152610b196080820161097b565b6080860152610b2a60a0820161098c565b60a0860152610b3b60c08201610999565b60c0860152610b4c60e082016109a6565b60e0860152610b5e61010082016109b3565b610100860152610b7161012082016109c0565b610120860152610b8461014082016109cd565b610140860152610b9761016082016109cd565b610160860152610baa61018082016109da565b610180860152610bbd6101a082016109e7565b6101a0860152610bd06101c082016109f4565b6101c0860152610be36101e08201610a01565b6101e0860152610bf66102008201610a0e565b610200860152610c096102208201610a1b565b610220860152610c1c6102408201610a28565b610240860152610c2f6102608201610a35565b610260860152610c426102808201610a42565b610280860152610c556102a08201610a4f565b6102a0860152610c686102c082016109cd565b6102c0860152610c7b6102e082016109cd565b6102e0860152610c8e61030082016109da565b610300860152610ca16103208201610a5c565b610320860152610cb46103408201610a69565b610340860152610cc76103608201610a76565b610360860152610cda6103808201610a83565b610380860152610ced6103a08201610a90565b6103a0860152016109b3565b6103c0830152565b610d0c61018061017e565b906101528252565b610d1f61012061017e565b906101008252565b610d326101e061017e565b906101a68252565b610d4460e061017e565b9060b08252565b610d55606061017e565b602e81527f1fdb007d001e00c800320096009600fa0032000f00140000000000000000003260208201526c190002800640000000004b000560921b604082015290565b610da2606061017e565b602e81527f1fdb007d001e00c800320096009600fa0032000f00140000000000000000003260208201526c190002800640190019004b000560921b604082015290565b610def606061017e565b602e81527f1fdb007d001e00c800320096009600fa0032000f0014000f001e00140023003260208201526c190002800640190019004b000560921b604082015290565b60a0610e3e3683610a9d565b0151600281101561023057600103610e695750610e5d90610440610de5565b610e6681610226565b90565b60016a08842222110888842220226101a0610e8683943690610a9d565b0151610e9181610652565b610e9a81610652565b1c1603610eb357610e5d90610ead610d98565b906119f6565b610e5d90610ebf610d4b565b90611999565b610ed3610ed8913690610a9d565b611bc3565b610f2a57610e5d90610eea606061017e565b602a81527c320064000b000b000b000b000b000b000b000b000b00fa101d001900196020820152690407401f407d007d001360b21b60408201529061192d565b5b602081208082526126d0811015610f425750610f2b565b61138891506127109006105f14610f5857600d90565b600e90565b61256b01908161256b11610f6d57565b634e487b7160e01b5f52601160045260245ffd5b6001019081600111610f6d57565b611d9c019081611d9c11610f6d57565b9060028201809211610f6d57565b91908201809211610f6d57565b610fc2610d27565b7cc80078001900b4006400190019001900190019001900e1008c00c8006460208201527e5500fa00c800af00b900e100a500070007000700070007000700070012000e60408201527e02000a0007000200020002000200020002000200040004000300030003000360608201527ec80096001a00af0075001a001a001a001a001a001a001a00230019001e001460808201527e0f000c0007000200090006000200020002000200020002000200460032003c60a08201527e28001e003b00230007002d001e00070007000700070007000700070046001e60c08201527e3c0019000f00c80078001900b400640019001900190019001900190019000660e08201527e030002000400020002000100010001000100020002000200020002000200966101008201527e4b001900370023002d0019000f0004000200020003000100020001000100016101208201527e0100020002000200020002000204b0000600040001000500020001000100016101408201527e0100010001000104b00037002d00230019000f0014000c00030010000800036101608201527e030003000300030003000300320028001e0014000a0010000c0003000e00096101808201527e0300030003000300030003000300c80078001900b4006400190019001900196101a082015264190019001960d01b6101c082015290565b6111cb6111c63683610a9d565b611bf6565b8015611283575b801561126b575b156111e45750505f90565b6111f66111f13683610a9d565b611c2f565b908115611250575b5015611248576101905b61122261121d61121783610f5d565b84611bd6565b610f81565b11156112435761123a90611234610fba565b90611a53565b610e66816103db565b505f90565b6104b0611208565b6112659150611260903690610a9d565b611c66565b5f6111fe565b5061127e6112793683610a9d565b611c1c565b6111d9565b506112966112913683610a9d565b611c09565b6111d2565b6112a5604061017e565b601281527108ca003e80064012c02300578002800c801960721b602082015290565b6112d160e061017e565b60b081527f13880000000000000000006000000000002a0000002a0019000000000000000060208201526e190000000000000000001b000000006040820152621e00006060820152600560821b60808201526e23000000000000000000190000000060a0820152600560921b60c082015290565b906113536111f13684610a9d565b1580611491575b8061147d575b61147757611375610ed361138b933690610a9d565b15611394576113826112c7565b61150b91611b0d565b610e6681610652565b61139c610d3a565b7f1388005a0041002d00190060004b003c002a0032002a0019002300690050003260208201527e1e009b00730050002800640055003c0019002d006b00570043001b002f004660408201527e32002300140028001e0014000a008c0069004600280078005f004b001e003260608201527e4b003c00230014005a004b003700140028005f004b003200190037002d001960808201527e0f002d00230019000f00820069005000230037005f004b003c0019002d003c60a08201526e16800f000a0020801b8014000a000f60811b60c082015261271091611b0d565b50505f90565b5061148b610ed33684610a9d565b15611360565b5061149f6112603684610a9d565b1561135a565b6114b061010061017e565b60d481527ce100c8008c0064005500c800af00b900e100a500fa00c80096001a00af60208201527e75001a001a001a001a001a001a001a000c000900020007000600020002000260408201527e02000200020002003b00230007002d001e000700070007000700070007000760608201527ec80078001900b4006400190019001900190019001900190096004b001904b060808201527e060004000100050002000100010001000100010001000104b00014000c000360a08201527e10000800030003000300030003000300030032001e00280014000a00c800b460c08201527e1900780064001900190019001900190019001900000000000000000000000060e082015290565b6115c56111c63683610a9d565b801561165e575b801561164b575b156115de5750505f90565b6115eb6111f13683610a9d565b908115611635575b501561162d576101905b61160c61121d61121783610f8f565b1115611243576116249061161e6114a5565b90611ab0565b610e6681610807565b6103206115fd565b6116459150611260903690610a9d565b5f6115f3565b506116596112793683610a9d565b6115d3565b5061166c6112913683610a9d565b6115cc565b61167b606061017e565b602881527f249500120010004b00000023000000000000000c00140008000000c8000000006020820152660500070000000b60c11b604082015290565b6116c2606061017e565b602881527f249500000000004b00100000000a000a0000000000000000000c00c80000000c6020820152601960d11b604082015290565b611703606061017e565b602881527f249500120010004b00100023000a000a0008000c00140008000c00c8003c000c6020820152660500070019000b60c11b604082015290565b61174d6111f13683610a9d565b80156118ef575b15611778575061176f906117666116f9565b6126f591611b0d565b610e668161083b565b61178a6117853683610a9d565b611c79565b80156118d7575b80156118bf575b156117b3575061176f906117aa6116b8565b61261691611b0d565b6117c56117c03683610a9d565b611cb2565b9081156118a5575b8115611890575b8115611876575b811561185c575b8115611842575b8115611828575b8115611812575b50156112435761176f90611809611671565b61264391611b0d565b6118229150611279903690610a9d565b5f6117f7565b905061183c6118373683610a9d565b611d11565b906117f0565b90506118566118513683610a9d565b611cfe565b906117e9565b905061187061186b3683610a9d565b611ceb565b906117e2565b905061188a6118853683610a9d565b611cd8565b906117db565b905061189f610ed33683610a9d565b906117d4565b90506118b96118b43683610a9d565b611cc5565b906117cd565b506118d26118cd3683610a9d565b611c9f565b611798565b506118ea6118e53683610a9d565b611c8c565b611791565b506118fd6112603683610a9d565b611754565b60609060208152601060208201526f14d95b1958dd1a5bdb8819985a5b195960821b60408201520190565b61271061193991611bd6565b8151915f805b8482106119635760405162461bcd60e51b81528061195f60048201611902565b0390fd5b611977906020838501015160f01c90610fad565b9081841061198e5761198890610f9f565b9061193f565b935050505060011c90565b6125e46119a591611bd6565b8151915f805b8482106119cb5760405162461bcd60e51b81528061195f60048201611902565b6119df906020838501015160f01c90610fad565b9081841061198e576119f090610f9f565b906119ab565b6126ac611a0291611bd6565b8151915f805b848210611a285760405162461bcd60e51b81528061195f60048201611902565b611a3c906020838501015160f01c90610fad565b9081841061198e57611a4d90610f9f565b90611a08565b61256b611a5f91611bd6565b8151915f805b848210611a855760405162461bcd60e51b81528061195f60048201611902565b611a99906020838501015160f01c90610fad565b9081841061198e57611aaa90610f9f565b90611a65565b611d9c611abc91611bd6565b8151915f805b848210611ae25760405162461bcd60e51b81528061195f60048201611902565b611af6906020838501015160f01c90610fad565b9081841061198e57611b0790610f9f565b90611ac2565b90918015611b7e57611b1e91611bd6565b8151915f805b848210611b445760405162461bcd60e51b81528061195f60048201611902565b82820160200151611b59919060f01c90610fad565b90818410611b7057611b6a90610f9f565b90611b24565b60011c9350610e6692505050565b60405162461bcd60e51b815260206004820152601760248201527f746f74616c576569676874206d757374206265203e20300000000000000000006044820152606490fd5b60e00151601d8110156102305760041490565b5b6020812080825282805f0306811015611bf05750611bd7565b90500690565b60e00151601d8110156102305760161490565b60e00151601d8110156102305760141490565b60e00151601d8110156102305760191490565b60e0018051601d8110156102305760ff6007911610159081611c4f575090565b905051601d8110156102305760ff600a9116111590565b60e00151601d81101561023057601c1490565b60e00151601d8110156102305760021490565b60e00151601d81101561023057601a1490565b60e00151601d81101561023057601b1490565b60e00151601d8110156102305760011490565b60e00151601d8110156102305760031490565b60e00151601d8110156102305760051490565b60e00151601d8110156102305760061490565b60e00151601d8110156102305760151490565b60e00151601d811015610230576017149056fea2646970667358221220d41e20433a2c24fab3a523dcda0c8f3a57bd065cf82269b97bfaeaec5aa7380164736f6c634300081e0033",
			"opcodes": "PUSH1 0x80 DUP1 PUSH1 0x40 MSTORE CALLVALUE PUSH1 0x15 JUMPI PUSH2 0x1D5A SWAP1 DUP2 PUSH2 0x1A DUP3 CODECOPY RETURN JUMPDEST PUSH0 DUP1 REVERT INVALID PUSH1 0x80 PUSH1 0x40 MSTORE PUSH1 0x4 CALLDATASIZE LT ISZERO PUSH2 0x11 JUMPI PUSH0 DUP1 REVERT JUMPDEST PUSH0 CALLDATALOAD PUSH1 0xE0 SHR DUP1 PUSH4 0xB625F9B EQ PUSH2 0xDF JUMPI DUP1 PUSH4 0x18412D03 EQ PUSH2 0xDA JUMPI DUP1 PUSH4 0x1B495A2D EQ PUSH2 0xD5 JUMPI DUP1 PUSH4 0x20D076E2 EQ PUSH2 0xD0 JUMPI DUP1 PUSH4 0x27F00DA4 EQ PUSH2 0xCB JUMPI DUP1 PUSH4 0x28DCD095 EQ PUSH2 0xC6 JUMPI DUP1 PUSH4 0x777DBAB9 EQ PUSH2 0xAD JUMPI DUP1 PUSH4 0x7C2534B7 EQ PUSH2 0xC1 JUMPI DUP1 PUSH4 0x8A886457 EQ PUSH2 0xBC JUMPI DUP1 PUSH4 0x9A236C4A EQ PUSH2 0xB7 JUMPI DUP1 PUSH4 0xC2EE6EDA EQ PUSH2 0xB2 JUMPI DUP1 PUSH4 0xCBE9B474 EQ PUSH2 0xAD JUMPI PUSH4 0xD0D4547F EQ PUSH2 0xA8 JUMPI PUSH0 DUP1 REVERT JUMPDEST PUSH2 0x845 JUMP JUMPDEST PUSH2 0x419 JUMP JUMPDEST PUSH2 0x811 JUMP JUMPDEST PUSH2 0x699 JUMP JUMPDEST PUSH2 0x65C JUMP JUMPDEST PUSH2 0x479 JUMP JUMPDEST PUSH2 0x3E5 JUMP JUMPDEST PUSH2 0x34D JUMP JUMPDEST PUSH2 0x334 JUMP JUMPDEST PUSH2 0x2DE JUMP JUMPDEST PUSH2 0x25F JUMP JUMPDEST PUSH2 0x235 JUMP JUMPDEST PUSH4 0x4E487B71 PUSH1 0xE0 SHL PUSH0 MSTORE PUSH1 0x41 PUSH1 0x4 MSTORE PUSH1 0x24 PUSH0 REVERT JUMPDEST PUSH1 0x40 MLOAD SWAP1 PUSH1 0x20 DUP3 ADD DUP3 DUP2 LT PUSH8 0xFFFFFFFFFFFFFFFF DUP3 GT OR PUSH2 0x118 JUMPI PUSH1 0x40 MSTORE JUMP JUMPDEST PUSH2 0xE4 JUMP JUMPDEST PUSH1 0x40 MLOAD SWAP1 PUSH1 0x80 DUP3 ADD DUP3 DUP2 LT PUSH8 0xFFFFFFFFFFFFFFFF DUP3 GT OR PUSH2 0x118 JUMPI PUSH1 0x40 MSTORE JUMP JUMPDEST PUSH1 0x40 MLOAD SWAP1 PUSH1 0x40 DUP3 ADD DUP3 DUP2 LT PUSH8 0xFFFFFFFFFFFFFFFF DUP3 GT OR PUSH2 0x118 JUMPI PUSH1 0x40 MSTORE JUMP JUMPDEST PUSH1 0x40 MLOAD SWAP1 PUSH2 0x3E0 DUP3 ADD DUP3 DUP2 LT PUSH8 0xFFFFFFFFFFFFFFFF DUP3 GT OR PUSH2 0x118 JUMPI PUSH1 0x40 MSTORE JUMP JUMPDEST PUSH1 0x40 MLOAD SWAP2 SWAP1 PUSH1 0x1F ADD PUSH1 0x1F NOT AND DUP3 ADD PUSH8 0xFFFFFFFFFFFFFFFF DUP2 GT DUP4 DUP3 LT OR PUSH2 0x118 JUMPI PUSH1 0x40 MSTORE JUMP JUMPDEST PUSH1 0x20 SWAP1 PUSH1 0x3 NOT ADD SLT PUSH2 0x1C0 JUMPI PUSH2 0x1B8 PUSH2 0xF8 JUMP JUMPDEST SWAP1 PUSH1 0x4 CALLDATALOAD DUP3 MSTORE JUMP JUMPDEST PUSH0 DUP1 REVERT JUMPDEST SWAP1 PUSH1 0x40 PUSH1 0x3 NOT DUP4 ADD SLT PUSH2 0x1C0 JUMPI PUSH1 0x4 CALLDATALOAD PUSH8 0xFFFFFFFFFFFFFFFF DUP2 GT PUSH2 0x1C0 JUMPI PUSH2 0x3E0 DUP2 DUP5 SUB PUSH1 0x3 NOT ADD SLT PUSH2 0x1C0 JUMPI PUSH1 0x20 SWAP1 PUSH1 0x4 ADD SWAP3 PUSH1 0x23 NOT ADD SLT PUSH2 0x1C0 JUMPI PUSH2 0x20A PUSH2 0xF8 JUMP JUMPDEST PUSH1 0x24 CALLDATALOAD DUP2 MSTORE SWAP1 JUMP JUMPDEST PUSH4 0x4E487B71 PUSH1 0xE0 SHL PUSH0 MSTORE PUSH1 0x21 PUSH1 0x4 MSTORE PUSH1 0x24 PUSH0 REVERT JUMPDEST PUSH1 0x17 GT ISZERO PUSH2 0x230 JUMPI JUMP JUMPDEST PUSH2 0x212 JUMP JUMPDEST CALLVALUE PUSH2 0x1C0 JUMPI PUSH1 0x20 PUSH2 0x24E PUSH2 0x248 CALLDATASIZE PUSH2 0x1C4 JUMP JUMPDEST SWAP1 PUSH2 0xE32 JUMP JUMPDEST PUSH1 0x40 MLOAD SWAP1 PUSH2 0x25B DUP2 PUSH2 0x226 JUMP JUMPDEST DUP2 MSTORE RETURN JUMPDEST CALLVALUE PUSH2 0x1C0 JUMPI PUSH1 0x20 CALLDATASIZE PUSH1 0x3 NOT ADD SLT PUSH2 0x1C0 JUMPI PUSH2 0x2CA PUSH2 0x27C CALLDATASIZE PUSH2 0x1A4 JUMP JUMPDEST PUSH2 0x286 PUSH1 0x60 PUSH2 0x17E JUMP JUMPDEST PUSH1 0x2C DUP2 MSTORE PUSH32 0x253A001E001E001E001E001E002800190019001900190019001900190019000F PUSH1 0x20 DUP3 ADD MSTORE PUSH11 0x780050005000500050005 PUSH1 0xA1 SHL PUSH1 0x40 DUP3 ADD MSTORE SWAP1 PUSH2 0x192D JUMP JUMPDEST PUSH1 0x16 DUP2 LT ISZERO PUSH2 0x230 JUMPI PUSH1 0x20 SWAP1 PUSH1 0x40 MLOAD SWAP1 DUP2 MSTORE RETURN JUMPDEST CALLVALUE PUSH2 0x1C0 JUMPI PUSH1 0x20 CALLDATASIZE PUSH1 0x3 NOT ADD SLT PUSH2 0x1C0 JUMPI PUSH2 0x320 PUSH2 0x2FB CALLDATASIZE PUSH2 0x1A4 JUMP JUMPDEST PUSH2 0x305 PUSH1 0x40 PUSH2 0x17E JUMP JUMPDEST PUSH1 0x8 DUP2 MSTORE PUSH8 0x13560014000F000F PUSH1 0xC1 SHL PUSH1 0x20 DUP3 ADD MSTORE SWAP1 PUSH2 0x192D JUMP JUMPDEST PUSH1 0x4 DUP2 LT ISZERO PUSH2 0x230 JUMPI PUSH1 0x20 SWAP1 PUSH1 0x40 MLOAD SWAP1 DUP2 MSTORE RETURN JUMPDEST CALLVALUE PUSH2 0x1C0 JUMPI PUSH1 0x20 PUSH2 0x24E PUSH2 0x347 CALLDATASIZE PUSH2 0x1C4 JUMP JUMPDEST SWAP1 PUSH2 0xEC5 JUMP JUMPDEST CALLVALUE PUSH2 0x1C0 JUMPI PUSH1 0x20 CALLDATASIZE PUSH1 0x3 NOT ADD SLT PUSH2 0x1C0 JUMPI PUSH2 0x3C7 PUSH2 0x36A CALLDATASIZE PUSH2 0x1A4 JUMP JUMPDEST PUSH2 0x374 PUSH1 0x60 PUSH2 0x17E JUMP JUMPDEST SWAP1 PUSH1 0x3A DUP3 MSTORE PUSH29 0x2300AF000C002D0037000E02EE02EE02EE02EE02EE02EE02EE02EE02EE PUSH1 0x20 DUP4 ADD MSTORE PUSH32 0x2EE02EE02EE000800160010003C0012001E000A0050012C0078000000000000 PUSH1 0x40 DUP4 ADD MSTORE PUSH2 0x192D JUMP JUMPDEST PUSH1 0x1D DUP2 LT ISZERO PUSH2 0x230 JUMPI PUSH1 0x20 SWAP1 PUSH1 0x40 MLOAD SWAP1 DUP2 MSTORE RETURN JUMPDEST PUSH1 0xD4 GT ISZERO PUSH2 0x230 JUMPI JUMP JUMPDEST CALLVALUE PUSH2 0x1C0 JUMPI PUSH2 0x3FC PUSH2 0x3F6 CALLDATASIZE PUSH2 0x1C4 JUMP JUMPDEST SWAP1 PUSH2 0x11B9 JUMP JUMPDEST PUSH1 0x40 MLOAD PUSH1 0xD4 DUP3 LT ISZERO PUSH2 0x230 JUMPI PUSH1 0x20 SWAP2 DUP2 MSTORE RETURN JUMPDEST PUSH1 0x9 GT ISZERO PUSH2 0x230 JUMPI JUMP JUMPDEST CALLVALUE PUSH2 0x1C0 JUMPI PUSH1 0x20 CALLDATASIZE PUSH1 0x3 NOT ADD SLT PUSH2 0x1C0 JUMPI PUSH1 0x20 PUSH2 0x446 PUSH2 0x438 CALLDATASIZE PUSH2 0x1A4 JUMP JUMPDEST PUSH2 0x440 PUSH2 0x129B JUMP JUMPDEST SWAP1 PUSH2 0x192D JUMP JUMPDEST PUSH2 0x44F DUP2 PUSH2 0x40F JUMP JUMPDEST PUSH1 0x40 MLOAD SWAP1 PUSH2 0x25B DUP2 PUSH2 0x40F JUMP JUMPDEST PUSH1 0xA9 GT ISZERO PUSH2 0x230 JUMPI JUMP JUMPDEST SWAP2 SWAP1 PUSH1 0x20 DUP4 ADD SWAP3 PUSH1 0xA9 DUP3 LT ISZERO PUSH2 0x230 JUMPI MSTORE JUMP JUMPDEST CALLVALUE PUSH2 0x1C0 JUMPI PUSH1 0x20 CALLDATASIZE PUSH1 0x3 NOT ADD SLT PUSH2 0x1C0 JUMPI PUSH2 0x64E PUSH2 0x639 PUSH2 0x499 CALLDATASIZE PUSH2 0x1A4 JUMP JUMPDEST PUSH2 0x4A1 PUSH2 0xD01 JUMP JUMPDEST PUSH32 0x3BB007E007E007E007E007E003E003E003E003E003E003E003E003E003E0044 PUSH1 0x20 DUP3 ADD MSTORE PUSH31 0x440044004400440044004400440044003000300030006E0010001000100010 PUSH1 0x40 DUP3 ADD MSTORE PUSH31 0x10001000100082008200820082008200960006000600060006000600060006 PUSH1 0x60 DUP3 ADD MSTORE PUSH32 0x1270012001200120012001200120012001200120069000F0042004200420042 PUSH1 0x80 DUP3 ADD MSTORE PUSH31 0x42000F000F000F000F000F000F000F000F000F001E01450040004000400040 PUSH1 0xA0 DUP3 ADD MSTORE PUSH31 0x4000410003000F000F000F000F002200220022006400290029002900290029 PUSH1 0xC0 DUP3 ADD MSTORE PUSH31 0x2900290032004B002D0014006400640064004E004E004E004E004E004E004E PUSH1 0xE0 DUP3 ADD MSTORE PUSH31 0x4E004B004B004B004B004B004B004B004B004B004B00260026002600260026 PUSH2 0x100 DUP3 ADD MSTORE PUSH31 0x2600260026000E000E000E000E000E000E000E000E000E0037004E004E004E PUSH2 0x120 DUP3 ADD MSTORE PUSH31 0x4E01220010001000100010001000100010004B004B004B004B004B004B004B PUSH2 0x140 DUP3 ADD MSTORE PUSH17 0x4B00050005000500050005000500050005 PUSH1 0x70 SHL PUSH2 0x160 DUP3 ADD MSTORE SWAP1 PUSH2 0x192D JUMP JUMPDEST PUSH2 0x642 DUP2 PUSH2 0x45C JUMP JUMPDEST PUSH1 0x40 MLOAD SWAP2 DUP3 SWAP2 DUP3 PUSH2 0x466 JUMP JUMPDEST SUB SWAP1 RETURN JUMPDEST PUSH1 0x58 GT ISZERO PUSH2 0x230 JUMPI JUMP JUMPDEST CALLVALUE PUSH2 0x1C0 JUMPI PUSH2 0x673 PUSH2 0x66D CALLDATASIZE PUSH2 0x1C4 JUMP JUMPDEST SWAP1 PUSH2 0x1345 JUMP JUMPDEST PUSH1 0x40 MLOAD PUSH1 0x58 DUP3 LT ISZERO PUSH2 0x230 JUMPI PUSH1 0x20 SWAP2 DUP2 MSTORE RETURN JUMPDEST SWAP2 SWAP1 PUSH1 0x20 DUP4 ADD SWAP3 PUSH1 0x80 DUP3 LT ISZERO PUSH2 0x230 JUMPI MSTORE JUMP JUMPDEST CALLVALUE PUSH2 0x1C0 JUMPI PUSH1 0x20 CALLDATASIZE PUSH1 0x3 NOT ADD SLT PUSH2 0x1C0 JUMPI PUSH2 0x7EE PUSH2 0x6B6 CALLDATASIZE PUSH2 0x1A4 JUMP JUMPDEST PUSH2 0x6BE PUSH2 0xD14 JUMP JUMPDEST SWAP1 PUSH32 0x3E801DB00160016001600160016000A000A000A000A000A000A000A000A002E PUSH1 0x20 DUP4 ADD MSTORE PUSH31 0x2E002E002E002E002E002E002E002E002E002E001400140014001400140014 PUSH1 0x40 DUP4 ADD MSTORE PUSH31 0x14001401DB00400040004000400040004000400040004000170118021C013D PUSH1 0x60 DUP4 ADD MSTORE PUSH31 0x1C001C001C001C001C001C001C0190003E003E003E003E003E003E023A0004 PUSH1 0x80 DUP4 ADD MSTORE PUSH31 0x3000300050005000500050005000500050005007D007D0230000900090009 PUSH1 0xA0 DUP4 ADD MSTORE PUSH31 0x900E10045027401A900030003000300030003000300030003000300320032 PUSH1 0xC0 DUP4 ADD MSTORE PUSH31 0x32003200320032003200320032003200320040004000400040004000400040 PUSH1 0xE0 DUP4 ADD MSTORE PUSH31 0x400040015B0021002100210021000500050005000500050005000500050005 PUSH2 0x100 DUP4 ADD MSTORE PUSH2 0x192D JUMP JUMPDEST PUSH1 0x80 DUP2 LT ISZERO PUSH2 0x230 JUMPI PUSH2 0x64E SWAP1 PUSH1 0x40 MLOAD SWAP2 DUP3 SWAP2 DUP3 PUSH2 0x686 JUMP JUMPDEST PUSH1 0x6A GT ISZERO PUSH2 0x230 JUMPI JUMP JUMPDEST CALLVALUE PUSH2 0x1C0 JUMPI PUSH2 0x828 PUSH2 0x822 CALLDATASIZE PUSH2 0x1C4 JUMP JUMPDEST SWAP1 PUSH2 0x15B8 JUMP JUMPDEST PUSH1 0x40 MLOAD PUSH1 0x6A DUP3 LT ISZERO PUSH2 0x230 JUMPI PUSH1 0x20 SWAP2 DUP2 MSTORE RETURN JUMPDEST PUSH1 0x14 GT ISZERO PUSH2 0x230 JUMPI JUMP JUMPDEST CALLVALUE PUSH2 0x1C0 JUMPI PUSH2 0x85C PUSH2 0x856 CALLDATASIZE PUSH2 0x1C4 JUMP JUMPDEST SWAP1 PUSH2 0x1740 JUMP JUMPDEST PUSH1 0x40 MLOAD PUSH1 0x14 DUP3 LT ISZERO PUSH2 0x230 JUMPI PUSH1 0x20 SWAP2 DUP2 MSTORE RETURN JUMPDEST CALLDATALOAD SWAP1 PUSH1 0x1B DUP3 LT ISZERO PUSH2 0x1C0 JUMPI JUMP JUMPDEST CALLDATALOAD SWAP1 PUSH1 0xFF DUP3 AND DUP3 SUB PUSH2 0x1C0 JUMPI JUMP JUMPDEST DUP2 PUSH1 0x1F DUP3 ADD SLT ISZERO PUSH2 0x1C0 JUMPI DUP1 CALLDATALOAD SWAP1 PUSH8 0xFFFFFFFFFFFFFFFF DUP3 GT PUSH2 0x118 JUMPI PUSH2 0x8B6 PUSH1 0x20 DUP4 PUSH1 0x5 SHL ADD PUSH2 0x17E JUMP JUMPDEST SWAP3 PUSH1 0x20 PUSH1 0xA0 DUP2 DUP7 DUP7 DUP2 MSTORE ADD SWAP5 MUL DUP4 ADD ADD SWAP2 DUP2 DUP4 GT PUSH2 0x1C0 JUMPI PUSH1 0x20 ADD SWAP3 JUMPDEST DUP3 DUP5 LT PUSH2 0x8E1 JUMPI POP POP POP POP SWAP1 JUMP JUMPDEST DUP4 DUP3 SUB PUSH1 0xA0 DUP2 SLT PUSH2 0x1C0 JUMPI PUSH2 0x8F4 PUSH2 0x11D JUMP JUMPDEST SWAP1 PUSH2 0x8FE DUP7 PUSH2 0x86F JUMP JUMPDEST DUP3 MSTORE PUSH2 0x90C PUSH1 0x20 DUP8 ADD PUSH2 0x87C JUMP JUMPDEST PUSH1 0x20 DUP4 ADD MSTORE PUSH1 0x40 DUP7 ADD CALLDATALOAD SWAP1 DUP2 ISZERO ISZERO DUP3 SUB PUSH2 0x1C0 JUMPI PUSH1 0x40 SWAP2 DUP3 DUP5 ADD MSTORE PUSH1 0x5F NOT ADD SLT PUSH2 0x1C0 JUMPI PUSH1 0xA0 SWAP2 PUSH1 0x20 SWAP2 PUSH2 0x93E PUSH2 0x13D JUMP JUMPDEST PUSH2 0x94A PUSH1 0x60 DUP10 ADD PUSH2 0x86F JUMP JUMPDEST DUP2 MSTORE PUSH2 0x958 PUSH1 0x80 DUP10 ADD PUSH2 0x87C JUMP JUMPDEST DUP5 DUP3 ADD MSTORE PUSH1 0x60 DUP3 ADD MSTORE DUP2 MSTORE ADD SWAP4 ADD SWAP3 PUSH2 0x8D3 JUMP JUMPDEST CALLDATALOAD SWAP1 PUSH2 0xFFFF DUP3 AND DUP3 SUB PUSH2 0x1C0 JUMPI JUMP JUMPDEST CALLDATALOAD SWAP1 PUSH4 0xFFFFFFFF DUP3 AND DUP3 SUB PUSH2 0x1C0 JUMPI JUMP JUMPDEST CALLDATALOAD SWAP1 PUSH1 0x2 DUP3 LT ISZERO PUSH2 0x1C0 JUMPI JUMP JUMPDEST CALLDATALOAD SWAP1 PUSH1 0x5 DUP3 LT ISZERO PUSH2 0x1C0 JUMPI JUMP JUMPDEST CALLDATALOAD SWAP1 PUSH1 0x1D DUP3 LT ISZERO PUSH2 0x1C0 JUMPI JUMP JUMPDEST CALLDATALOAD SWAP1 PUSH1 0x17 DUP3 LT ISZERO PUSH2 0x1C0 JUMPI JUMP JUMPDEST CALLDATALOAD SWAP1 PUSH1 0x14 DUP3 LT ISZERO PUSH2 0x1C0 JUMPI JUMP JUMPDEST CALLDATALOAD SWAP1 PUSH1 0x9 DUP3 LT ISZERO PUSH2 0x1C0 JUMPI JUMP JUMPDEST CALLDATALOAD SWAP1 PUSH1 0x4 DUP3 LT ISZERO PUSH2 0x1C0 JUMPI JUMP JUMPDEST CALLDATALOAD SWAP1 PUSH1 0x58 DUP3 LT ISZERO PUSH2 0x1C0 JUMPI JUMP JUMPDEST CALLDATALOAD SWAP1 PUSH1 0x16 DUP3 LT ISZERO PUSH2 0x1C0 JUMPI JUMP JUMPDEST CALLDATALOAD SWAP1 PUSH1 0xD4 DUP3 LT ISZERO PUSH2 0x1C0 JUMPI JUMP JUMPDEST CALLDATALOAD SWAP1 PUSH1 0x6A DUP3 LT ISZERO PUSH2 0x1C0 JUMPI JUMP JUMPDEST CALLDATALOAD SWAP1 PUSH1 0xA9 DUP3 LT ISZERO PUSH2 0x1C0 JUMPI JUMP JUMPDEST CALLDATALOAD SWAP1 PUSH1 0x80 DUP3 LT ISZERO PUSH2 0x1C0 JUMPI JUMP JUMPDEST CALLDATALOAD SWAP1 PUSH1 0x1A DUP3 LT ISZERO PUSH2 0x1C0 JUMPI JUMP JUMPDEST CALLDATALOAD SWAP1 PUSH1 0x1F DUP3 LT ISZERO PUSH2 0x1C0 JUMPI JUMP JUMPDEST CALLDATALOAD SWAP1 PUSH1 0x13 DUP3 LT ISZERO PUSH2 0x1C0 JUMPI JUMP JUMPDEST CALLDATALOAD SWAP1 PUSH1 0x15 DUP3 LT ISZERO PUSH2 0x1C0 JUMPI JUMP JUMPDEST CALLDATALOAD SWAP1 PUSH1 0xC3 DUP3 LT ISZERO PUSH2 0x1C0 JUMPI JUMP JUMPDEST CALLDATALOAD SWAP1 PUSH1 0x85 DUP3 LT ISZERO PUSH2 0x1C0 JUMPI JUMP JUMPDEST CALLDATALOAD SWAP1 PUSH1 0x83 DUP3 LT ISZERO PUSH2 0x1C0 JUMPI JUMP JUMPDEST CALLDATALOAD SWAP1 PUSH1 0x7A DUP3 LT ISZERO PUSH2 0x1C0 JUMPI JUMP JUMPDEST SWAP2 SWAP1 SWAP2 PUSH2 0x3E0 DUP2 DUP5 SUB SLT PUSH2 0x1C0 JUMPI PUSH2 0xAB3 PUSH2 0x15D JUMP JUMPDEST SWAP3 DUP2 CALLDATALOAD SWAP2 PUSH8 0xFFFFFFFFFFFFFFFF DUP4 GT PUSH2 0x1C0 JUMPI PUSH2 0xAD8 PUSH2 0x3C0 SWAP3 PUSH2 0xCF9 SWAP5 DUP4 ADD PUSH2 0x88A JUMP JUMPDEST DUP6 MSTORE PUSH2 0xAE6 PUSH1 0x20 DUP3 ADD PUSH2 0x87C JUMP JUMPDEST PUSH1 0x20 DUP7 ADD MSTORE PUSH2 0xAF7 PUSH1 0x40 DUP3 ADD PUSH2 0x96C JUMP JUMPDEST PUSH1 0x40 DUP7 ADD MSTORE PUSH2 0xB08 PUSH1 0x60 DUP3 ADD PUSH2 0x96C JUMP JUMPDEST PUSH1 0x60 DUP7 ADD MSTORE PUSH2 0xB19 PUSH1 0x80 DUP3 ADD PUSH2 0x97B JUMP JUMPDEST PUSH1 0x80 DUP7 ADD MSTORE PUSH2 0xB2A PUSH1 0xA0 DUP3 ADD PUSH2 0x98C JUMP JUMPDEST PUSH1 0xA0 DUP7 ADD MSTORE PUSH2 0xB3B PUSH1 0xC0 DUP3 ADD PUSH2 0x999 JUMP JUMPDEST PUSH1 0xC0 DUP7 ADD MSTORE PUSH2 0xB4C PUSH1 0xE0 DUP3 ADD PUSH2 0x9A6 JUMP JUMPDEST PUSH1 0xE0 DUP7 ADD MSTORE PUSH2 0xB5E PUSH2 0x100 DUP3 ADD PUSH2 0x9B3 JUMP JUMPDEST PUSH2 0x100 DUP7 ADD MSTORE PUSH2 0xB71 PUSH2 0x120 DUP3 ADD PUSH2 0x9C0 JUMP JUMPDEST PUSH2 0x120 DUP7 ADD MSTORE PUSH2 0xB84 PUSH2 0x140 DUP3 ADD PUSH2 0x9CD JUMP JUMPDEST PUSH2 0x140 DUP7 ADD MSTORE PUSH2 0xB97 PUSH2 0x160 DUP3 ADD PUSH2 0x9CD JUMP JUMPDEST PUSH2 0x160 DUP7 ADD MSTORE PUSH2 0xBAA PUSH2 0x180 DUP3 ADD PUSH2 0x9DA JUMP JUMPDEST PUSH2 0x180 DUP7 ADD MSTORE PUSH2 0xBBD PUSH2 0x1A0 DUP3 ADD PUSH2 0x9E7 JUMP JUMPDEST PUSH2 0x1A0 DUP7 ADD MSTORE PUSH2 0xBD0 PUSH2 0x1C0 DUP3 ADD PUSH2 0x9F4 JUMP JUMPDEST PUSH2 0x1C0 DUP7 ADD MSTORE PUSH2 0xBE3 PUSH2 0x1E0 DUP3 ADD PUSH2 0xA01 JUMP JUMPDEST PUSH2 0x1E0 DUP7 ADD MSTORE PUSH2 0xBF6 PUSH2 0x200 DUP3 ADD PUSH2 0xA0E JUMP JUMPDEST PUSH2 0x200 DUP7 ADD MSTORE PUSH2 0xC09 PUSH2 0x220 DUP3 ADD PUSH2 0xA1B JUMP JUMPDEST PUSH2 0x220 DUP7 ADD MSTORE PUSH2 0xC1C PUSH2 0x240 DUP3 ADD PUSH2 0xA28 JUMP JUMPDEST PUSH2 0x240 DUP7 ADD MSTORE PUSH2 0xC2F PUSH2 0x260 DUP3 ADD PUSH2 0xA35 JUMP JUMPDEST PUSH2 0x260 DUP7 ADD MSTORE PUSH2 0xC42 PUSH2 0x280 DUP3 ADD PUSH2 0xA42 JUMP JUMPDEST PUSH2 0x280 DUP7 ADD MSTORE PUSH2 0xC55 PUSH2 0x2A0 DUP3 ADD PUSH2 0xA4F JUMP JUMPDEST PUSH2 0x2A0 DUP7 ADD MSTORE PUSH2 0xC68 PUSH2 0x2C0 DUP3 ADD PUSH2 0x9CD JUMP JUMPDEST PUSH2 0x2C0 DUP7 ADD MSTORE PUSH2 0xC7B PUSH2 0x2E0 DUP3 ADD PUSH2 0x9CD JUMP JUMPDEST PUSH2 0x2E0 DUP7 ADD MSTORE PUSH2 0xC8E PUSH2 0x300 DUP3 ADD PUSH2 0x9DA JUMP JUMPDEST PUSH2 0x300 DUP7 ADD MSTORE PUSH2 0xCA1 PUSH2 0x320 DUP3 ADD PUSH2 0xA5C JUMP JUMPDEST PUSH2 0x320 DUP7 ADD MSTORE PUSH2 0xCB4 PUSH2 0x340 DUP3 ADD PUSH2 0xA69 JUMP JUMPDEST PUSH2 0x340 DUP7 ADD MSTORE PUSH2 0xCC7 PUSH2 0x360 DUP3 ADD PUSH2 0xA76 JUMP JUMPDEST PUSH2 0x360 DUP7 ADD MSTORE PUSH2 0xCDA PUSH2 0x380 DUP3 ADD PUSH2 0xA83 JUMP JUMPDEST PUSH2 0x380 DUP7 ADD MSTORE PUSH2 0xCED PUSH2 0x3A0 DUP3 ADD PUSH2 0xA90 JUMP JUMPDEST PUSH2 0x3A0 DUP7 ADD MSTORE ADD PUSH2 0x9B3 JUMP JUMPDEST PUSH2 0x3C0 DUP4 ADD MSTORE JUMP JUMPDEST PUSH2 0xD0C PUSH2 0x180 PUSH2 0x17E JUMP JUMPDEST SWAP1 PUSH2 0x152 DUP3 MSTORE JUMP JUMPDEST PUSH2 0xD1F PUSH2 0x120 PUSH2 0x17E JUMP JUMPDEST SWAP1 PUSH2 0x100 DUP3 MSTORE JUMP JUMPDEST PUSH2 0xD32 PUSH2 0x1E0 PUSH2 0x17E JUMP JUMPDEST SWAP1 PUSH2 0x1A6 DUP3 MSTORE JUMP JUMPDEST PUSH2 0xD44 PUSH1 0xE0 PUSH2 0x17E JUMP JUMPDEST SWAP1 PUSH1 0xB0 DUP3 MSTORE JUMP JUMPDEST PUSH2 0xD55 PUSH1 0x60 PUSH2 0x17E JUMP JUMPDEST PUSH1 0x2E DUP2 MSTORE PUSH32 0x1FDB007D001E00C800320096009600FA0032000F001400000000000000000032 PUSH1 0x20 DUP3 ADD MSTORE PUSH13 0x190002800640000000004B0005 PUSH1 0x92 SHL PUSH1 0x40 DUP3 ADD MSTORE SWAP1 JUMP JUMPDEST PUSH2 0xDA2 PUSH1 0x60 PUSH2 0x17E JUMP JUMPDEST PUSH1 0x2E DUP2 MSTORE PUSH32 0x1FDB007D001E00C800320096009600FA0032000F001400000000000000000032 PUSH1 0x20 DUP3 ADD MSTORE PUSH13 0x190002800640190019004B0005 PUSH1 0x92 SHL PUSH1 0x40 DUP3 ADD MSTORE SWAP1 JUMP JUMPDEST PUSH2 0xDEF PUSH1 0x60 PUSH2 0x17E JUMP JUMPDEST PUSH1 0x2E DUP2 MSTORE PUSH32 0x1FDB007D001E00C800320096009600FA0032000F0014000F001E001400230032 PUSH1 0x20 DUP3 ADD MSTORE PUSH13 0x190002800640190019004B0005 PUSH1 0x92 SHL PUSH1 0x40 DUP3 ADD MSTORE SWAP1 JUMP JUMPDEST PUSH1 0xA0 PUSH2 0xE3E CALLDATASIZE DUP4 PUSH2 0xA9D JUMP JUMPDEST ADD MLOAD PUSH1 0x2 DUP2 LT ISZERO PUSH2 0x230 JUMPI PUSH1 0x1 SUB PUSH2 0xE69 JUMPI POP PUSH2 0xE5D SWAP1 PUSH2 0x440 PUSH2 0xDE5 JUMP JUMPDEST PUSH2 0xE66 DUP2 PUSH2 0x226 JUMP JUMPDEST SWAP1 JUMP JUMPDEST PUSH1 0x1 PUSH11 0x884222211088884222022 PUSH2 0x1A0 PUSH2 0xE86 DUP4 SWAP5 CALLDATASIZE SWAP1 PUSH2 0xA9D JUMP JUMPDEST ADD MLOAD PUSH2 0xE91 DUP2 PUSH2 0x652 JUMP JUMPDEST PUSH2 0xE9A DUP2 PUSH2 0x652 JUMP JUMPDEST SHR AND SUB PUSH2 0xEB3 JUMPI PUSH2 0xE5D SWAP1 PUSH2 0xEAD PUSH2 0xD98 JUMP JUMPDEST SWAP1 PUSH2 0x19F6 JUMP JUMPDEST PUSH2 0xE5D SWAP1 PUSH2 0xEBF PUSH2 0xD4B JUMP JUMPDEST SWAP1 PUSH2 0x1999 JUMP JUMPDEST PUSH2 0xED3 PUSH2 0xED8 SWAP2 CALLDATASIZE SWAP1 PUSH2 0xA9D JUMP JUMPDEST PUSH2 0x1BC3 JUMP JUMPDEST PUSH2 0xF2A JUMPI PUSH2 0xE5D SWAP1 PUSH2 0xEEA PUSH1 0x60 PUSH2 0x17E JUMP JUMPDEST PUSH1 0x2A DUP2 MSTORE PUSH29 0x320064000B000B000B000B000B000B000B000B000B00FA101D00190019 PUSH1 0x20 DUP3 ADD MSTORE PUSH10 0x407401F407D007D0013 PUSH1 0xB2 SHL PUSH1 0x40 DUP3 ADD MSTORE SWAP1 PUSH2 0x192D JUMP JUMPDEST JUMPDEST PUSH1 0x20 DUP2 KECCAK256 DUP1 DUP3 MSTORE PUSH2 0x26D0 DUP2 LT ISZERO PUSH2 0xF42 JUMPI POP PUSH2 0xF2B JUMP JUMPDEST PUSH2 0x1388 SWAP2 POP PUSH2 0x2710 SWAP1 MOD LT PUSH0 EQ PUSH2 0xF58 JUMPI PUSH1 0xD SWAP1 JUMP JUMPDEST PUSH1 0xE SWAP1 JUMP JUMPDEST PUSH2 0x256B ADD SWAP1 DUP2 PUSH2 0x256B GT PUSH2 0xF6D JUMPI JUMP JUMPDEST PUSH4 0x4E487B71 PUSH1 0xE0 SHL PUSH0 MSTORE PUSH1 0x11 PUSH1 0x4 MSTORE PUSH1 0x24 PUSH0 REVERT JUMPDEST PUSH1 0x1 ADD SWAP1 DUP2 PUSH1 0x1 GT PUSH2 0xF6D JUMPI JUMP JUMPDEST PUSH2 0x1D9C ADD SWAP1 DUP2 PUSH2 0x1D9C GT PUSH2 0xF6D JUMPI JUMP JUMPDEST SWAP1 PUSH1 0x2 DUP3 ADD DUP1 SWAP3 GT PUSH2 0xF6D JUMPI JUMP JUMPDEST SWAP2 SWAP1 DUP3 ADD DUP1 SWAP3 GT PUSH2 0xF6D JUMPI JUMP JUMPDEST PUSH2 0xFC2 PUSH2 0xD27 JUMP JUMPDEST PUSH29 0xC80078001900B4006400190019001900190019001900E1008C00C80064 PUSH1 0x20 DUP3 ADD MSTORE PUSH31 0x5500FA00C800AF00B900E100A500070007000700070007000700070012000E PUSH1 0x40 DUP3 ADD MSTORE PUSH31 0x2000A00070002000200020002000200020002000400040003000300030003 PUSH1 0x60 DUP3 ADD MSTORE PUSH31 0xC80096001A00AF0075001A001A001A001A001A001A001A00230019001E0014 PUSH1 0x80 DUP3 ADD MSTORE PUSH31 0xF000C0007000200090006000200020002000200020002000200460032003C PUSH1 0xA0 DUP3 ADD MSTORE PUSH31 0x28001E003B00230007002D001E00070007000700070007000700070046001E PUSH1 0xC0 DUP3 ADD MSTORE PUSH31 0x3C0019000F00C80078001900B4006400190019001900190019001900190006 PUSH1 0xE0 DUP3 ADD MSTORE PUSH31 0x3000200040002000200010001000100010002000200020002000200020096 PUSH2 0x100 DUP3 ADD MSTORE PUSH31 0x4B001900370023002D0019000F000400020002000300010002000100010001 PUSH2 0x120 DUP3 ADD MSTORE PUSH31 0x100020002000200020002000204B000060004000100050002000100010001 PUSH2 0x140 DUP3 ADD MSTORE PUSH31 0x100010001000104B00037002D00230019000F0014000C0003001000080003 PUSH2 0x160 DUP3 ADD MSTORE PUSH31 0x30003000300030003000300320028001E0014000A0010000C0003000E0009 PUSH2 0x180 DUP3 ADD MSTORE PUSH31 0x300030003000300030003000300C80078001900B400640019001900190019 PUSH2 0x1A0 DUP3 ADD MSTORE PUSH5 0x1900190019 PUSH1 0xD0 SHL PUSH2 0x1C0 DUP3 ADD MSTORE SWAP1 JUMP JUMPDEST PUSH2 0x11CB PUSH2 0x11C6 CALLDATASIZE DUP4 PUSH2 0xA9D JUMP JUMPDEST PUSH2 0x1BF6 JUMP JUMPDEST DUP1 ISZERO PUSH2 0x1283 JUMPI JUMPDEST DUP1 ISZERO PUSH2 0x126B JUMPI JUMPDEST ISZERO PUSH2 0x11E4 JUMPI POP POP PUSH0 SWAP1 JUMP JUMPDEST PUSH2 0x11F6 PUSH2 0x11F1 CALLDATASIZE DUP4 PUSH2 0xA9D JUMP JUMPDEST PUSH2 0x1C2F JUMP JUMPDEST SWAP1 DUP2 ISZERO PUSH2 0x1250 JUMPI JUMPDEST POP ISZERO PUSH2 0x1248 JUMPI PUSH2 0x190 JUMPDEST PUSH2 0x1222 PUSH2 0x121D PUSH2 0x1217 DUP4 PUSH2 0xF5D JUMP JUMPDEST DUP5 PUSH2 0x1BD6 JUMP JUMPDEST PUSH2 0xF81 JUMP JUMPDEST GT ISZERO PUSH2 0x1243 JUMPI PUSH2 0x123A SWAP1 PUSH2 0x1234 PUSH2 0xFBA JUMP JUMPDEST SWAP1 PUSH2 0x1A53 JUMP JUMPDEST PUSH2 0xE66 DUP2 PUSH2 0x3DB JUMP JUMPDEST POP PUSH0 SWAP1 JUMP JUMPDEST PUSH2 0x4B0 PUSH2 0x1208 JUMP JUMPDEST PUSH2 0x1265 SWAP2 POP PUSH2 0x1260 SWAP1 CALLDATASIZE SWAP1 PUSH2 0xA9D JUMP JUMPDEST PUSH2 0x1C66 JUMP JUMPDEST PUSH0 PUSH2 0x11FE JUMP JUMPDEST POP PUSH2 0x127E PUSH2 0x1279 CALLDATASIZE DUP4 PUSH2 0xA9D JUMP JUMPDEST PUSH2 0x1C1C JUMP JUMPDEST PUSH2 0x11D9 JUMP JUMPDEST POP PUSH2 0x1296 PUSH2 0x1291 CALLDATASIZE DUP4 PUSH2 0xA9D JUMP JUMPDEST PUSH2 0x1C09 JUMP JUMPDEST PUSH2 0x11D2 JUMP JUMPDEST PUSH2 0x12A5 PUSH1 0x40 PUSH2 0x17E JUMP JUMPDEST PUSH1 0x12 DUP2 MSTORE PUSH18 0x8CA003E80064012C02300578002800C8019 PUSH1 0x72 SHL PUSH1 0x20 DUP3 ADD MSTORE SWAP1 JUMP JUMPDEST PUSH2 0x12D1 PUSH1 0xE0 PUSH2 0x17E JUMP JUMPDEST PUSH1 0xB0 DUP2 MSTORE PUSH32 0x13880000000000000000006000000000002A0000002A00190000000000000000 PUSH1 0x20 DUP3 ADD MSTORE PUSH15 0x190000000000000000001B00000000 PUSH1 0x40 DUP3 ADD MSTORE PUSH3 0x1E0000 PUSH1 0x60 DUP3 ADD MSTORE PUSH1 0x5 PUSH1 0x82 SHL PUSH1 0x80 DUP3 ADD MSTORE PUSH15 0x230000000000000000001900000000 PUSH1 0xA0 DUP3 ADD MSTORE PUSH1 0x5 PUSH1 0x92 SHL PUSH1 0xC0 DUP3 ADD MSTORE SWAP1 JUMP JUMPDEST SWAP1 PUSH2 0x1353 PUSH2 0x11F1 CALLDATASIZE DUP5 PUSH2 0xA9D JUMP JUMPDEST ISZERO DUP1 PUSH2 0x1491 JUMPI JUMPDEST DUP1 PUSH2 0x147D JUMPI JUMPDEST PUSH2 0x1477 JUMPI PUSH2 0x1375 PUSH2 0xED3 PUSH2 0x138B SWAP4 CALLDATASIZE SWAP1 PUSH2 0xA9D JUMP JUMPDEST ISZERO PUSH2 0x1394 JUMPI PUSH2 0x1382 PUSH2 0x12C7 JUMP JUMPDEST PUSH2 0x150B SWAP2 PUSH2 0x1B0D JUMP JUMPDEST PUSH2 0xE66 DUP2 PUSH2 0x652 JUMP JUMPDEST PUSH2 0x139C PUSH2 0xD3A JUMP JUMPDEST PUSH32 0x1388005A0041002D00190060004B003C002A0032002A00190023006900500032 PUSH1 0x20 DUP3 ADD MSTORE PUSH31 0x1E009B00730050002800640055003C0019002D006B00570043001B002F0046 PUSH1 0x40 DUP3 ADD MSTORE PUSH31 0x32002300140028001E0014000A008C0069004600280078005F004B001E0032 PUSH1 0x60 DUP3 ADD MSTORE PUSH31 0x4B003C00230014005A004B003700140028005F004B003200190037002D0019 PUSH1 0x80 DUP3 ADD MSTORE PUSH31 0xF002D00230019000F00820069005000230037005F004B003C0019002D003C PUSH1 0xA0 DUP3 ADD MSTORE PUSH15 0x16800F000A0020801B8014000A000F PUSH1 0x81 SHL PUSH1 0xC0 DUP3 ADD MSTORE PUSH2 0x2710 SWAP2 PUSH2 0x1B0D JUMP JUMPDEST POP POP PUSH0 SWAP1 JUMP JUMPDEST POP PUSH2 0x148B PUSH2 0xED3 CALLDATASIZE DUP5 PUSH2 0xA9D JUMP JUMPDEST ISZERO PUSH2 0x1360 JUMP JUMPDEST POP PUSH2 0x149F PUSH2 0x1260 CALLDATASIZE DUP5 PUSH2 0xA9D JUMP JUMPDEST ISZERO PUSH2 0x135A JUMP JUMPDEST PUSH2 0x14B0 PUSH2 0x100 PUSH2 0x17E JUMP JUMPDEST PUSH1 0xD4 DUP2 MSTORE PUSH29 0xE100C8008C0064005500C800AF00B900E100A500FA00C80096001A00AF PUSH1 0x20 DUP3 ADD MSTORE PUSH31 0x75001A001A001A001A001A001A001A000C0009000200070006000200020002 PUSH1 0x40 DUP3 ADD MSTORE PUSH31 0x2000200020002003B00230007002D001E0007000700070007000700070007 PUSH1 0x60 DUP3 ADD MSTORE PUSH31 0xC80078001900B4006400190019001900190019001900190096004B001904B0 PUSH1 0x80 DUP3 ADD MSTORE PUSH31 0x60004000100050002000100010001000100010001000104B00014000C0003 PUSH1 0xA0 DUP3 ADD MSTORE PUSH31 0x10000800030003000300030003000300030032001E00280014000A00C800B4 PUSH1 0xC0 DUP3 ADD MSTORE PUSH31 0x19007800640019001900190019001900190019000000000000000000000000 PUSH1 0xE0 DUP3 ADD MSTORE SWAP1 JUMP JUMPDEST PUSH2 0x15C5 PUSH2 0x11C6 CALLDATASIZE DUP4 PUSH2 0xA9D JUMP JUMPDEST DUP1 ISZERO PUSH2 0x165E JUMPI JUMPDEST DUP1 ISZERO PUSH2 0x164B JUMPI JUMPDEST ISZERO PUSH2 0x15DE JUMPI POP POP PUSH0 SWAP1 JUMP JUMPDEST PUSH2 0x15EB PUSH2 0x11F1 CALLDATASIZE DUP4 PUSH2 0xA9D JUMP JUMPDEST SWAP1 DUP2 ISZERO PUSH2 0x1635 JUMPI JUMPDEST POP ISZERO PUSH2 0x162D JUMPI PUSH2 0x190 JUMPDEST PUSH2 0x160C PUSH2 0x121D PUSH2 0x1217 DUP4 PUSH2 0xF8F JUMP JUMPDEST GT ISZERO PUSH2 0x1243 JUMPI PUSH2 0x1624 SWAP1 PUSH2 0x161E PUSH2 0x14A5 JUMP JUMPDEST SWAP1 PUSH2 0x1AB0 JUMP JUMPDEST PUSH2 0xE66 DUP2 PUSH2 0x807 JUMP JUMPDEST PUSH2 0x320 PUSH2 0x15FD JUMP JUMPDEST PUSH2 0x1645 SWAP2 POP PUSH2 0x1260 SWAP1 CALLDATASIZE SWAP1 PUSH2 0xA9D JUMP JUMPDEST PUSH0 PUSH2 0x15F3 JUMP JUMPDEST POP PUSH2 0x1659 PUSH2 0x1279 CALLDATASIZE DUP4 PUSH2 0xA9D JUMP JUMPDEST PUSH2 0x15D3 JUMP JUMPDEST POP PUSH2 0x166C PUSH2 0x1291 CALLDATASIZE DUP4 PUSH2 0xA9D JUMP JUMPDEST PUSH2 0x15CC JUMP JUMPDEST PUSH2 0x167B PUSH1 0x60 PUSH2 0x17E JUMP JUMPDEST PUSH1 0x28 DUP2 MSTORE PUSH32 0x249500120010004B00000023000000000000000C00140008000000C800000000 PUSH1 0x20 DUP3 ADD MSTORE PUSH7 0x500070000000B PUSH1 0xC1 SHL PUSH1 0x40 DUP3 ADD MSTORE SWAP1 JUMP JUMPDEST PUSH2 0x16C2 PUSH1 0x60 PUSH2 0x17E JUMP JUMPDEST PUSH1 0x28 DUP2 MSTORE PUSH32 0x249500000000004B00100000000A000A0000000000000000000C00C80000000C PUSH1 0x20 DUP3 ADD MSTORE PUSH1 0x19 PUSH1 0xD1 SHL PUSH1 0x40 DUP3 ADD MSTORE SWAP1 JUMP JUMPDEST PUSH2 0x1703 PUSH1 0x60 PUSH2 0x17E JUMP JUMPDEST PUSH1 0x28 DUP2 MSTORE PUSH32 0x249500120010004B00100023000A000A0008000C00140008000C00C8003C000C PUSH1 0x20 DUP3 ADD MSTORE PUSH7 0x500070019000B PUSH1 0xC1 SHL PUSH1 0x40 DUP3 ADD MSTORE SWAP1 JUMP JUMPDEST PUSH2 0x174D PUSH2 0x11F1 CALLDATASIZE DUP4 PUSH2 0xA9D JUMP JUMPDEST DUP1 ISZERO PUSH2 0x18EF JUMPI JUMPDEST ISZERO PUSH2 0x1778 JUMPI POP PUSH2 0x176F SWAP1 PUSH2 0x1766 PUSH2 0x16F9 JUMP JUMPDEST PUSH2 0x26F5 SWAP2 PUSH2 0x1B0D JUMP JUMPDEST PUSH2 0xE66 DUP2 PUSH2 0x83B JUMP JUMPDEST PUSH2 0x178A PUSH2 0x1785 CALLDATASIZE DUP4 PUSH2 0xA9D JUMP JUMPDEST PUSH2 0x1C79 JUMP JUMPDEST DUP1 ISZERO PUSH2 0x18D7 JUMPI JUMPDEST DUP1 ISZERO PUSH2 0x18BF JUMPI JUMPDEST ISZERO PUSH2 0x17B3 JUMPI POP PUSH2 0x176F SWAP1 PUSH2 0x17AA PUSH2 0x16B8 JUMP JUMPDEST PUSH2 0x2616 SWAP2 PUSH2 0x1B0D JUMP JUMPDEST PUSH2 0x17C5 PUSH2 0x17C0 CALLDATASIZE DUP4 PUSH2 0xA9D JUMP JUMPDEST PUSH2 0x1CB2 JUMP JUMPDEST SWAP1 DUP2 ISZERO PUSH2 0x18A5 JUMPI JUMPDEST DUP2 ISZERO PUSH2 0x1890 JUMPI JUMPDEST DUP2 ISZERO PUSH2 0x1876 JUMPI JUMPDEST DUP2 ISZERO PUSH2 0x185C JUMPI JUMPDEST DUP2 ISZERO PUSH2 0x1842 JUMPI JUMPDEST DUP2 ISZERO PUSH2 0x1828 JUMPI JUMPDEST DUP2 ISZERO PUSH2 0x1812 JUMPI JUMPDEST POP ISZERO PUSH2 0x1243 JUMPI PUSH2 0x176F SWAP1 PUSH2 0x1809 PUSH2 0x1671 JUMP JUMPDEST PUSH2 0x2643 SWAP2 PUSH2 0x1B0D JUMP JUMPDEST PUSH2 0x1822 SWAP2 POP PUSH2 0x1279 SWAP1 CALLDATASIZE SWAP1 PUSH2 0xA9D JUMP JUMPDEST PUSH0 PUSH2 0x17F7 JUMP JUMPDEST SWAP1 POP PUSH2 0x183C PUSH2 0x1837 CALLDATASIZE DUP4 PUSH2 0xA9D JUMP JUMPDEST PUSH2 0x1D11 JUMP JUMPDEST SWAP1 PUSH2 0x17F0 JUMP JUMPDEST SWAP1 POP PUSH2 0x1856 PUSH2 0x1851 CALLDATASIZE DUP4 PUSH2 0xA9D JUMP JUMPDEST PUSH2 0x1CFE JUMP JUMPDEST SWAP1 PUSH2 0x17E9 JUMP JUMPDEST SWAP1 POP PUSH2 0x1870 PUSH2 0x186B CALLDATASIZE DUP4 PUSH2 0xA9D JUMP JUMPDEST PUSH2 0x1CEB JUMP JUMPDEST SWAP1 PUSH2 0x17E2 JUMP JUMPDEST SWAP1 POP PUSH2 0x188A PUSH2 0x1885 CALLDATASIZE DUP4 PUSH2 0xA9D JUMP JUMPDEST PUSH2 0x1CD8 JUMP JUMPDEST SWAP1 PUSH2 0x17DB JUMP JUMPDEST SWAP1 POP PUSH2 0x189F PUSH2 0xED3 CALLDATASIZE DUP4 PUSH2 0xA9D JUMP JUMPDEST SWAP1 PUSH2 0x17D4 JUMP JUMPDEST SWAP1 POP PUSH2 0x18B9 PUSH2 0x18B4 CALLDATASIZE DUP4 PUSH2 0xA9D JUMP JUMPDEST PUSH2 0x1CC5 JUMP JUMPDEST SWAP1 PUSH2 0x17CD JUMP JUMPDEST POP PUSH2 0x18D2 PUSH2 0x18CD CALLDATASIZE DUP4 PUSH2 0xA9D JUMP JUMPDEST PUSH2 0x1C9F JUMP JUMPDEST PUSH2 0x1798 JUMP JUMPDEST POP PUSH2 0x18EA PUSH2 0x18E5 CALLDATASIZE DUP4 PUSH2 0xA9D JUMP JUMPDEST PUSH2 0x1C8C JUMP JUMPDEST PUSH2 0x1791 JUMP JUMPDEST POP PUSH2 0x18FD PUSH2 0x1260 CALLDATASIZE DUP4 PUSH2 0xA9D JUMP JUMPDEST PUSH2 0x1754 JUMP JUMPDEST PUSH1 0x60 SWAP1 PUSH1 0x20 DUP2 MSTORE PUSH1 0x10 PUSH1 0x20 DUP3 ADD MSTORE PUSH16 0x14D95B1958DD1A5BDB8819985A5B1959 PUSH1 0x82 SHL PUSH1 0x40 DUP3 ADD MSTORE ADD SWAP1 JUMP JUMPDEST PUSH2 0x2710 PUSH2 0x1939 SWAP2 PUSH2 0x1BD6 JUMP JUMPDEST DUP2 MLOAD SWAP2 PUSH0 DUP1 JUMPDEST DUP5 DUP3 LT PUSH2 0x1963 JUMPI PUSH1 0x40 MLOAD PUSH3 0x461BCD PUSH1 0xE5 SHL DUP2 MSTORE DUP1 PUSH2 0x195F PUSH1 0x4 DUP3 ADD PUSH2 0x1902 JUMP JUMPDEST SUB SWAP1 REVERT JUMPDEST PUSH2 0x1977 SWAP1 PUSH1 0x20 DUP4 DUP6 ADD ADD MLOAD PUSH1 0xF0 SHR SWAP1 PUSH2 0xFAD JUMP JUMPDEST SWAP1 DUP2 DUP5 LT PUSH2 0x198E JUMPI PUSH2 0x1988 SWAP1 PUSH2 0xF9F JUMP JUMPDEST SWAP1 PUSH2 0x193F JUMP JUMPDEST SWAP4 POP POP POP POP PUSH1 0x1 SHR SWAP1 JUMP JUMPDEST PUSH2 0x25E4 PUSH2 0x19A5 SWAP2 PUSH2 0x1BD6 JUMP JUMPDEST DUP2 MLOAD SWAP2 PUSH0 DUP1 JUMPDEST DUP5 DUP3 LT PUSH2 0x19CB JUMPI PUSH1 0x40 MLOAD PUSH3 0x461BCD PUSH1 0xE5 SHL DUP2 MSTORE DUP1 PUSH2 0x195F PUSH1 0x4 DUP3 ADD PUSH2 0x1902 JUMP JUMPDEST PUSH2 0x19DF SWAP1 PUSH1 0x20 DUP4 DUP6 ADD ADD MLOAD PUSH1 0xF0 SHR SWAP1 PUSH2 0xFAD JUMP JUMPDEST SWAP1 DUP2 DUP5 LT PUSH2 0x198E JUMPI PUSH2 0x19F0 SWAP1 PUSH2 0xF9F JUMP JUMPDEST SWAP1 PUSH2 0x19AB JUMP JUMPDEST PUSH2 0x26AC PUSH2 0x1A02 SWAP2 PUSH2 0x1BD6 JUMP JUMPDEST DUP2 MLOAD SWAP2 PUSH0 DUP1 JUMPDEST DUP5 DUP3 LT PUSH2 0x1A28 JUMPI PUSH1 0x40 MLOAD PUSH3 0x461BCD PUSH1 0xE5 SHL DUP2 MSTORE DUP1 PUSH2 0x195F PUSH1 0x4 DUP3 ADD PUSH2 0x1902 JUMP JUMPDEST PUSH2 0x1A3C SWAP1 PUSH1 0x20 DUP4 DUP6 ADD ADD MLOAD PUSH1 0xF0 SHR SWAP1 PUSH2 0xFAD JUMP JUMPDEST SWAP1 DUP2 DUP5 LT PUSH2 0x198E JUMPI PUSH2 0x1A4D SWAP1 PUSH2 0xF9F JUMP JUMPDEST SWAP1 PUSH2 0x1A08 JUMP JUMPDEST PUSH2 0x256B PUSH2 0x1A5F SWAP2 PUSH2 0x1BD6 JUMP JUMPDEST DUP2 MLOAD SWAP2 PUSH0 DUP1 JUMPDEST DUP5 DUP3 LT PUSH2 0x1A85 JUMPI PUSH1 0x40 MLOAD PUSH3 0x461BCD PUSH1 0xE5 SHL DUP2 MSTORE DUP1 PUSH2 0x195F PUSH1 0x4 DUP3 ADD PUSH2 0x1902 JUMP JUMPDEST PUSH2 0x1A99 SWAP1 PUSH1 0x20 DUP4 DUP6 ADD ADD MLOAD PUSH1 0xF0 SHR SWAP1 PUSH2 0xFAD JUMP JUMPDEST SWAP1 DUP2 DUP5 LT PUSH2 0x198E JUMPI PUSH2 0x1AAA SWAP1 PUSH2 0xF9F JUMP JUMPDEST SWAP1 PUSH2 0x1A65 JUMP JUMPDEST PUSH2 0x1D9C PUSH2 0x1ABC SWAP2 PUSH2 0x1BD6 JUMP JUMPDEST DUP2 MLOAD SWAP2 PUSH0 DUP1 JUMPDEST DUP5 DUP3 LT PUSH2 0x1AE2 JUMPI PUSH1 0x40 MLOAD PUSH3 0x461BCD PUSH1 0xE5 SHL DUP2 MSTORE DUP1 PUSH2 0x195F PUSH1 0x4 DUP3 ADD PUSH2 0x1902 JUMP JUMPDEST PUSH2 0x1AF6 SWAP1 PUSH1 0x20 DUP4 DUP6 ADD ADD MLOAD PUSH1 0xF0 SHR SWAP1 PUSH2 0xFAD JUMP JUMPDEST SWAP1 DUP2 DUP5 LT PUSH2 0x198E JUMPI PUSH2 0x1B07 SWAP1 PUSH2 0xF9F JUMP JUMPDEST SWAP1 PUSH2 0x1AC2 JUMP JUMPDEST SWAP1 SWAP2 DUP1 ISZERO PUSH2 0x1B7E JUMPI PUSH2 0x1B1E SWAP2 PUSH2 0x1BD6 JUMP JUMPDEST DUP2 MLOAD SWAP2 PUSH0 DUP1 JUMPDEST DUP5 DUP3 LT PUSH2 0x1B44 JUMPI PUSH1 0x40 MLOAD PUSH3 0x461BCD PUSH1 0xE5 SHL DUP2 MSTORE DUP1 PUSH2 0x195F PUSH1 0x4 DUP3 ADD PUSH2 0x1902 JUMP JUMPDEST DUP3 DUP3 ADD PUSH1 0x20 ADD MLOAD PUSH2 0x1B59 SWAP2 SWAP1 PUSH1 0xF0 SHR SWAP1 PUSH2 0xFAD JUMP JUMPDEST SWAP1 DUP2 DUP5 LT PUSH2 0x1B70 JUMPI PUSH2 0x1B6A SWAP1 PUSH2 0xF9F JUMP JUMPDEST SWAP1 PUSH2 0x1B24 JUMP JUMPDEST PUSH1 0x1 SHR SWAP4 POP PUSH2 0xE66 SWAP3 POP POP POP JUMP JUMPDEST PUSH1 0x40 MLOAD PUSH3 0x461BCD PUSH1 0xE5 SHL DUP2 MSTORE PUSH1 0x20 PUSH1 0x4 DUP3 ADD MSTORE PUSH1 0x17 PUSH1 0x24 DUP3 ADD MSTORE PUSH32 0x746F74616C576569676874206D757374206265203E2030000000000000000000 PUSH1 0x44 DUP3 ADD MSTORE PUSH1 0x64 SWAP1 REVERT JUMPDEST PUSH1 0xE0 ADD MLOAD PUSH1 0x1D DUP2 LT ISZERO PUSH2 0x230 JUMPI PUSH1 0x4 EQ SWAP1 JUMP JUMPDEST JUMPDEST PUSH1 0x20 DUP2 KECCAK256 DUP1 DUP3 MSTORE DUP3 DUP1 PUSH0 SUB MOD DUP2 LT ISZERO PUSH2 0x1BF0 JUMPI POP PUSH2 0x1BD7 JUMP JUMPDEST SWAP1 POP MOD SWAP1 JUMP JUMPDEST PUSH1 0xE0 ADD MLOAD PUSH1 0x1D DUP2 LT ISZERO PUSH2 0x230 JUMPI PUSH1 0x16 EQ SWAP1 JUMP JUMPDEST PUSH1 0xE0 ADD MLOAD PUSH1 0x1D DUP2 LT ISZERO PUSH2 0x230 JUMPI PUSH1 0x14 EQ SWAP1 JUMP JUMPDEST PUSH1 0xE0 ADD MLOAD PUSH1 0x1D DUP2 LT ISZERO PUSH2 0x230 JUMPI PUSH1 0x19 EQ SWAP1 JUMP JUMPDEST PUSH1 0xE0 ADD DUP1 MLOAD PUSH1 0x1D DUP2 LT ISZERO PUSH2 0x230 JUMPI PUSH1 0xFF PUSH1 0x7 SWAP2 AND LT ISZERO SWAP1 DUP2 PUSH2 0x1C4F JUMPI POP SWAP1 JUMP JUMPDEST SWAP1 POP MLOAD PUSH1 0x1D DUP2 LT ISZERO PUSH2 0x230 JUMPI PUSH1 0xFF PUSH1 0xA SWAP2 AND GT ISZERO SWAP1 JUMP JUMPDEST PUSH1 0xE0 ADD MLOAD PUSH1 0x1D DUP2 LT ISZERO PUSH2 0x230 JUMPI PUSH1 0x1C EQ SWAP1 JUMP JUMPDEST PUSH1 0xE0 ADD MLOAD PUSH1 0x1D DUP2 LT ISZERO PUSH2 0x230 JUMPI PUSH1 0x2 EQ SWAP1 JUMP JUMPDEST PUSH1 0xE0 ADD MLOAD PUSH1 0x1D DUP2 LT ISZERO PUSH2 0x230 JUMPI PUSH1 0x1A EQ SWAP1 JUMP JUMPDEST PUSH1 0xE0 ADD MLOAD PUSH1 0x1D DUP2 LT ISZERO PUSH2 0x230 JUMPI PUSH1 0x1B EQ SWAP1 JUMP JUMPDEST PUSH1 0xE0 ADD MLOAD PUSH1 0x1D DUP2 LT ISZERO PUSH2 0x230 JUMPI PUSH1 0x1 EQ SWAP1 JUMP JUMPDEST PUSH1 0xE0 ADD MLOAD PUSH1 0x1D DUP2 LT ISZERO PUSH2 0x230 JUMPI PUSH1 0x3 EQ SWAP1 JUMP JUMPDEST PUSH1 0xE0 ADD MLOAD PUSH1 0x1D DUP2 LT ISZERO PUSH2 0x230 JUMPI PUSH1 0x5 EQ SWAP1 JUMP JUMPDEST PUSH1 0xE0 ADD MLOAD PUSH1 0x1D DUP2 LT ISZERO PUSH2 0x230 JUMPI PUSH1 0x6 EQ SWAP1 JUMP JUMPDEST PUSH1 0xE0 ADD MLOAD PUSH1 0x1D DUP2 LT ISZERO PUSH2 0x230 JUMPI PUSH1 0x15 EQ SWAP1 JUMP JUMPDEST PUSH1 0xE0 ADD MLOAD PUSH1 0x1D DUP2 LT ISZERO PUSH2 0x230 JUMPI PUSH1 0x17 EQ SWAP1 JUMP INVALID LOG2 PUSH5 0x6970667358 0x22 SLT KECCAK256 0xD4 0x1E KECCAK256 NUMBER GASPRICE 0x2C 0x24 STATICCALL 0xB3 0xA5 0x23 0xDC 0xDA 0xC DUP16 GASPRICE JUMPI 0xBD MOD TLOAD EXTCALL 0x22 PUSH10 0xB97BFAEAEC5AA7380164 PUSH20 0x6F6C634300081E00330000000000000000000000 "
		},
		"gasEstimates": {
			"creation": {
				"codeDepositCost": "1502800",
				"executionCost": "1578",
				"totalCost": "1504378"
			},
			"external": {
				"selectMaleChain((uint256))": "infinite",
				"selectMaleEarring((uint256))": "infinite",
				"selectMaleEyeWear((uint256))": "infinite",
				"selectMaleEyes(((uint8,uint8,bool,(uint8,uint8))[],uint8,uint16,uint16,uint32,uint8,uint8,uint8,uint8,uint8,uint8,uint8,uint8,uint8,uint8,uint8,uint8,uint8,uint8,uint8,uint8,uint8,uint8,uint8,uint8,uint8,uint8,uint8,uint8,uint8,uint8),(uint256))": "infinite",
				"selectMaleFace(((uint8,uint8,bool,(uint8,uint8))[],uint8,uint16,uint16,uint32,uint8,uint8,uint8,uint8,uint8,uint8,uint8,uint8,uint8,uint8,uint8,uint8,uint8,uint8,uint8,uint8,uint8,uint8,uint8,uint8,uint8,uint8,uint8,uint8,uint8,uint8),(uint256))": "infinite",
				"selectMaleFacialHair(((uint8,uint8,bool,(uint8,uint8))[],uint8,uint16,uint16,uint32,uint8,uint8,uint8,uint8,uint8,uint8,uint8,uint8,uint8,uint8,uint8,uint8,uint8,uint8,uint8,uint8,uint8,uint8,uint8,uint8,uint8,uint8,uint8,uint8,uint8,uint8),(uint256))": "infinite",
				"selectMaleHair(((uint8,uint8,bool,(uint8,uint8))[],uint8,uint16,uint16,uint32,uint8,uint8,uint8,uint8,uint8,uint8,uint8,uint8,uint8,uint8,uint8,uint8,uint8,uint8,uint8,uint8,uint8,uint8,uint8,uint8,uint8,uint8,uint8,uint8,uint8,uint8),(uint256))": "infinite",
				"selectMaleHatHair(((uint8,uint8,bool,(uint8,uint8))[],uint8,uint16,uint16,uint32,uint8,uint8,uint8,uint8,uint8,uint8,uint8,uint8,uint8,uint8,uint8,uint8,uint8,uint8,uint8,uint8,uint8,uint8,uint8,uint8,uint8,uint8,uint8,uint8,uint8,uint8),(uint256))": "infinite",
				"selectMaleHeadwear((uint256))": "infinite",
				"selectMaleMask((uint256))": "infinite",
				"selectMaleScarf((uint256))": "infinite",
				"selectMaleSkin((uint256))": "infinite",
				"selectMouth(((uint8,uint8,bool,(uint8,uint8))[],uint8,uint16,uint16,uint32,uint8,uint8,uint8,uint8,uint8,uint8,uint8,uint8,uint8,uint8,uint8,uint8,uint8,uint8,uint8,uint8,uint8,uint8,uint8,uint8,uint8,uint8,uint8,uint8,uint8,uint8),(uint256))": "infinite"
			},
			"internal": {
				"_selectRandomTrait(struct LibPRNG.PRNG memory,bytes memory,uint256)": "infinite"
			}
		},
		"methodIdentifiers": {
			"selectMaleChain((uint256))": "cbe9b474",
			"selectMaleEarring((uint256))": "777dbab9",
			"selectMaleEyeWear((uint256))": "9a236c4a",
			"selectMaleEyes(((uint8,uint8,bool,(uint8,uint8))[],uint8,uint16,uint16,uint32,uint8,uint8,uint8,uint8,uint8,uint8,uint8,uint8,uint8,uint8,uint8,uint8,uint8,uint8,uint8,uint8,uint8,uint8,uint8,uint8,uint8,uint8,uint8,uint8,uint8,uint8),(uint256))": "20d076e2",
			"selectMaleFace(((uint8,uint8,bool,(uint8,uint8))[],uint8,uint16,uint16,uint32,uint8,uint8,uint8,uint8,uint8,uint8,uint8,uint8,uint8,uint8,uint8,uint8,uint8,uint8,uint8,uint8,uint8,uint8,uint8,uint8,uint8,uint8,uint8,uint8,uint8,uint8),(uint256))": "d0d4547f",
			"selectMaleFacialHair(((uint8,uint8,bool,(uint8,uint8))[],uint8,uint16,uint16,uint32,uint8,uint8,uint8,uint8,uint8,uint8,uint8,uint8,uint8,uint8,uint8,uint8,uint8,uint8,uint8,uint8,uint8,uint8,uint8,uint8,uint8,uint8,uint8,uint8,uint8,uint8),(uint256))": "8a886457",
			"selectMaleHair(((uint8,uint8,bool,(uint8,uint8))[],uint8,uint16,uint16,uint32,uint8,uint8,uint8,uint8,uint8,uint8,uint8,uint8,uint8,uint8,uint8,uint8,uint8,uint8,uint8,uint8,uint8,uint8,uint8,uint8,uint8,uint8,uint8,uint8,uint8,uint8),(uint256))": "28dcd095",
			"selectMaleHatHair(((uint8,uint8,bool,(uint8,uint8))[],uint8,uint16,uint16,uint32,uint8,uint8,uint8,uint8,uint8,uint8,uint8,uint8,uint8,uint8,uint8,uint8,uint8,uint8,uint8,uint8,uint8,uint8,uint8,uint8,uint8,uint8,uint8,uint8,uint8,uint8),(uint256))": "c2ee6eda",
			"selectMaleHeadwear((uint256))": "7c2534b7",
			"selectMaleMask((uint256))": "18412d03",
			"selectMaleScarf((uint256))": "1b495a2d",
			"selectMaleSkin((uint256))": "27f00da4",
			"selectMouth(((uint8,uint8,bool,(uint8,uint8))[],uint8,uint16,uint16,uint32,uint8,uint8,uint8,uint8,uint8,uint8,uint8,uint8,uint8,uint8,uint8,uint8,uint8,uint8,uint8,uint8,uint8,uint8,uint8,uint8,uint8,uint8,uint8,uint8,uint8,uint8),(uint256))": "0b625f9b"
		}
	},
	"abi": [
		{
			"inputs": [
				{
					"components": [
						{
							"internalType": "uint256",
							"name": "state",
							"type": "uint256"
						}
					],
					"internalType": "struct LibPRNG.PRNG",
					"name": "prng",
					"type": "tuple"
				}
			],
			"name": "selectMaleChain",
			"outputs": [
				{
					"internalType": "enum E_Male_Chain",
					"name": "",
					"type": "uint8"
				}
			],
			"stateMutability": "pure",
			"type": "function"
		},
		{
			"inputs": [
				{
					"components": [
						{
							"internalType": "uint256",
							"name": "state",
							"type": "uint256"
						}
					],
					"internalType": "struct LibPRNG.PRNG",
					"name": "prng",
					"type": "tuple"
				}
			],
			"name": "selectMaleEarring",
			"outputs": [
				{
					"internalType": "enum E_Male_Earring",
					"name": "",
					"type": "uint8"
				}
			],
			"stateMutability": "pure",
			"type": "function"
		},
		{
			"inputs": [
				{
					"components": [
						{
							"internalType": "uint256",
							"name": "state",
							"type": "uint256"
						}
					],
					"internalType": "struct LibPRNG.PRNG",
					"name": "prng",
					"type": "tuple"
				}
			],
			"name": "selectMaleEyeWear",
			"outputs": [
				{
					"internalType": "enum E_Male_Eye_Wear",
					"name": "",
					"type": "uint8"
				}
			],
			"stateMutability": "pure",
			"type": "function"
		},
		{
			"inputs": [
				{
					"components": [
						{
							"components": [
								{
									"internalType": "enum E_TraitsGroup",
									"name": "traitGroup",
									"type": "uint8"
								},
								{
									"internalType": "uint8",
									"name": "traitIndex",
									"type": "uint8"
								},
								{
									"internalType": "bool",
									"name": "hasFiller",
									"type": "bool"
								},
								{
									"components": [
										{
											"internalType": "enum E_TraitsGroup",
											"name": "traitGroup",
											"type": "uint8"
										},
										{
											"internalType": "uint8",
											"name": "traitIndex",
											"type": "uint8"
										}
									],
									"internalType": "struct FillerTrait",
									"name": "filler",
									"type": "tuple"
								}
							],
							"internalType": "struct TraitToRender[]",
							"name": "traitsToRender",
							"type": "tuple[]"
						},
						{
							"internalType": "uint8",
							"name": "traitsToRenderLength",
							"type": "uint8"
						},
						{
							"internalType": "uint16",
							"name": "tokenIdSeed",
							"type": "uint16"
						},
						{
							"internalType": "uint16",
							"name": "specialId",
							"type": "uint16"
						},
						{
							"internalType": "uint32",
							"name": "birthday",
							"type": "uint32"
						},
						{
							"internalType": "enum E_Sex",
							"name": "sex",
							"type": "uint8"
						},
						{
							"internalType": "enum E_Background",
							"name": "background",
							"type": "uint8"
						},
						{
							"internalType": "enum E_Male_Skin",
							"name": "maleSkin",
							"type": "uint8"
						},
						{
							"internalType": "enum E_Male_Eyes",
							"name": "maleEyes",
							"type": "uint8"
						},
						{
							"internalType": "enum E_Male_Face",
							"name": "maleFace",
							"type": "uint8"
						},
						{
							"internalType": "enum E_Male_Chain",
							"name": "maleChain",
							"type": "uint8"
						},
						{
							"internalType": "enum E_Male_Earring",
							"name": "maleEarring",
							"type": "uint8"
						},
						{
							"internalType": "enum E_Male_Scarf",
							"name": "maleScarf",
							"type": "uint8"
						},
						{
							"internalType": "enum E_Male_Facial_Hair",
							"name": "maleFacialHair",
							"type": "uint8"
						},
						{
							"internalType": "enum E_Male_Mask",
							"name": "maleMask",
							"type": "uint8"
						},
						{
							"internalType": "enum E_Male_Hair",
							"name": "maleHair",
							"type": "uint8"
						},
						{
							"internalType": "enum E_Male_Hat_Hair",
							"name": "maleHatHair",
							"type": "uint8"
						},
						{
							"internalType": "enum E_Male_Headwear",
							"name": "maleHeadwear",
							"type": "uint8"
						},
						{
							"internalType": "enum E_Male_Eye_Wear",
							"name": "maleEyeWear",
							"type": "uint8"
						},
						{
							"internalType": "enum E_Female_Skin",
							"name": "femaleSkin",
							"type": "uint8"
						},
						{
							"internalType": "enum E_Female_Eyes",
							"name": "femaleEyes",
							"type": "uint8"
						},
						{
							"internalType": "enum E_Female_Face",
							"name": "femaleFace",
							"type": "uint8"
						},
						{
							"internalType": "enum E_Female_Chain",
							"name": "femaleChain",
							"type": "uint8"
						},
						{
							"internalType": "enum E_Female_Earring",
							"name": "femaleEarring",
							"type": "uint8"
						},
						{
							"internalType": "enum E_Female_Scarf",
							"name": "femaleScarf",
							"type": "uint8"
						},
						{
							"internalType": "enum E_Female_Mask",
							"name": "femaleMask",
							"type": "uint8"
						},
						{
							"internalType": "enum E_Female_Hair",
							"name": "femaleHair",
							"type": "uint8"
						},
						{
							"internalType": "enum E_Female_Hat_Hair",
							"name": "femaleHatHair",
							"type": "uint8"
						},
						{
							"internalType": "enum E_Female_Headwear",
							"name": "femaleHeadwear",
							"type": "uint8"
						},
						{
							"internalType": "enum E_Female_Eye_Wear",
							"name": "femaleEyeWear",
							"type": "uint8"
						},
						{
							"internalType": "enum E_Mouth",
							"name": "mouth",
							"type": "uint8"
						}
					],
					"internalType": "struct TraitsContext",
					"name": "ctx",
					"type": "tuple"
				},
				{
					"components": [
						{
							"internalType": "uint256",
							"name": "state",
							"type": "uint256"
						}
					],
					"internalType": "struct LibPRNG.PRNG",
					"name": "prng",
					"type": "tuple"
				}
			],
			"name": "selectMaleEyes",
			"outputs": [
				{
					"internalType": "enum E_Male_Eyes",
					"name": "",
					"type": "uint8"
				}
			],
			"stateMutability": "pure",
			"type": "function"
		},
		{
			"inputs": [
				{
					"components": [
						{
							"components": [
								{
									"internalType": "enum E_TraitsGroup",
									"name": "traitGroup",
									"type": "uint8"
								},
								{
									"internalType": "uint8",
									"name": "traitIndex",
									"type": "uint8"
								},
								{
									"internalType": "bool",
									"name": "hasFiller",
									"type": "bool"
								},
								{
									"components": [
										{
											"internalType": "enum E_TraitsGroup",
											"name": "traitGroup",
											"type": "uint8"
										},
										{
											"internalType": "uint8",
											"name": "traitIndex",
											"type": "uint8"
										}
									],
									"internalType": "struct FillerTrait",
									"name": "filler",
									"type": "tuple"
								}
							],
							"internalType": "struct TraitToRender[]",
							"name": "traitsToRender",
							"type": "tuple[]"
						},
						{
							"internalType": "uint8",
							"name": "traitsToRenderLength",
							"type": "uint8"
						},
						{
							"internalType": "uint16",
							"name": "tokenIdSeed",
							"type": "uint16"
						},
						{
							"internalType": "uint16",
							"name": "specialId",
							"type": "uint16"
						},
						{
							"internalType": "uint32",
							"name": "birthday",
							"type": "uint32"
						},
						{
							"internalType": "enum E_Sex",
							"name": "sex",
							"type": "uint8"
						},
						{
							"internalType": "enum E_Background",
							"name": "background",
							"type": "uint8"
						},
						{
							"internalType": "enum E_Male_Skin",
							"name": "maleSkin",
							"type": "uint8"
						},
						{
							"internalType": "enum E_Male_Eyes",
							"name": "maleEyes",
							"type": "uint8"
						},
						{
							"internalType": "enum E_Male_Face",
							"name": "maleFace",
							"type": "uint8"
						},
						{
							"internalType": "enum E_Male_Chain",
							"name": "maleChain",
							"type": "uint8"
						},
						{
							"internalType": "enum E_Male_Earring",
							"name": "maleEarring",
							"type": "uint8"
						},
						{
							"internalType": "enum E_Male_Scarf",
							"name": "maleScarf",
							"type": "uint8"
						},
						{
							"internalType": "enum E_Male_Facial_Hair",
							"name": "maleFacialHair",
							"type": "uint8"
						},
						{
							"internalType": "enum E_Male_Mask",
							"name": "maleMask",
							"type": "uint8"
						},
						{
							"internalType": "enum E_Male_Hair",
							"name": "maleHair",
							"type": "uint8"
						},
						{
							"internalType": "enum E_Male_Hat_Hair",
							"name": "maleHatHair",
							"type": "uint8"
						},
						{
							"internalType": "enum E_Male_Headwear",
							"name": "maleHeadwear",
							"type": "uint8"
						},
						{
							"internalType": "enum E_Male_Eye_Wear",
							"name": "maleEyeWear",
							"type": "uint8"
						},
						{
							"internalType": "enum E_Female_Skin",
							"name": "femaleSkin",
							"type": "uint8"
						},
						{
							"internalType": "enum E_Female_Eyes",
							"name": "femaleEyes",
							"type": "uint8"
						},
						{
							"internalType": "enum E_Female_Face",
							"name": "femaleFace",
							"type": "uint8"
						},
						{
							"internalType": "enum E_Female_Chain",
							"name": "femaleChain",
							"type": "uint8"
						},
						{
							"internalType": "enum E_Female_Earring",
							"name": "femaleEarring",
							"type": "uint8"
						},
						{
							"internalType": "enum E_Female_Scarf",
							"name": "femaleScarf",
							"type": "uint8"
						},
						{
							"internalType": "enum E_Female_Mask",
							"name": "femaleMask",
							"type": "uint8"
						},
						{
							"internalType": "enum E_Female_Hair",
							"name": "femaleHair",
							"type": "uint8"
						},
						{
							"internalType": "enum E_Female_Hat_Hair",
							"name": "femaleHatHair",
							"type": "uint8"
						},
						{
							"internalType": "enum E_Female_Headwear",
							"name": "femaleHeadwear",
							"type": "uint8"
						},
						{
							"internalType": "enum E_Female_Eye_Wear",
							"name": "femaleEyeWear",
							"type": "uint8"
						},
						{
							"internalType": "enum E_Mouth",
							"name": "mouth",
							"type": "uint8"
						}
					],
					"internalType": "struct TraitsContext",
					"name": "ctx",
					"type": "tuple"
				},
				{
					"components": [
						{
							"internalType": "uint256",
							"name": "state",
							"type": "uint256"
						}
					],
					"internalType": "struct LibPRNG.PRNG",
					"name": "prng",
					"type": "tuple"
				}
			],
			"name": "selectMaleFace",
			"outputs": [
				{
					"internalType": "enum E_Male_Face",
					"name": "",
					"type": "uint8"
				}
			],
			"stateMutability": "pure",
			"type": "function"
		},
		{
			"inputs": [
				{
					"components": [
						{
							"components": [
								{
									"internalType": "enum E_TraitsGroup",
									"name": "traitGroup",
									"type": "uint8"
								},
								{
									"internalType": "uint8",
									"name": "traitIndex",
									"type": "uint8"
								},
								{
									"internalType": "bool",
									"name": "hasFiller",
									"type": "bool"
								},
								{
									"components": [
										{
											"internalType": "enum E_TraitsGroup",
											"name": "traitGroup",
											"type": "uint8"
										},
										{
											"internalType": "uint8",
											"name": "traitIndex",
											"type": "uint8"
										}
									],
									"internalType": "struct FillerTrait",
									"name": "filler",
									"type": "tuple"
								}
							],
							"internalType": "struct TraitToRender[]",
							"name": "traitsToRender",
							"type": "tuple[]"
						},
						{
							"internalType": "uint8",
							"name": "traitsToRenderLength",
							"type": "uint8"
						},
						{
							"internalType": "uint16",
							"name": "tokenIdSeed",
							"type": "uint16"
						},
						{
							"internalType": "uint16",
							"name": "specialId",
							"type": "uint16"
						},
						{
							"internalType": "uint32",
							"name": "birthday",
							"type": "uint32"
						},
						{
							"internalType": "enum E_Sex",
							"name": "sex",
							"type": "uint8"
						},
						{
							"internalType": "enum E_Background",
							"name": "background",
							"type": "uint8"
						},
						{
							"internalType": "enum E_Male_Skin",
							"name": "maleSkin",
							"type": "uint8"
						},
						{
							"internalType": "enum E_Male_Eyes",
							"name": "maleEyes",
							"type": "uint8"
						},
						{
							"internalType": "enum E_Male_Face",
							"name": "maleFace",
							"type": "uint8"
						},
						{
							"internalType": "enum E_Male_Chain",
							"name": "maleChain",
							"type": "uint8"
						},
						{
							"internalType": "enum E_Male_Earring",
							"name": "maleEarring",
							"type": "uint8"
						},
						{
							"internalType": "enum E_Male_Scarf",
							"name": "maleScarf",
							"type": "uint8"
						},
						{
							"internalType": "enum E_Male_Facial_Hair",
							"name": "maleFacialHair",
							"type": "uint8"
						},
						{
							"internalType": "enum E_Male_Mask",
							"name": "maleMask",
							"type": "uint8"
						},
						{
							"internalType": "enum E_Male_Hair",
							"name": "maleHair",
							"type": "uint8"
						},
						{
							"internalType": "enum E_Male_Hat_Hair",
							"name": "maleHatHair",
							"type": "uint8"
						},
						{
							"internalType": "enum E_Male_Headwear",
							"name": "maleHeadwear",
							"type": "uint8"
						},
						{
							"internalType": "enum E_Male_Eye_Wear",
							"name": "maleEyeWear",
							"type": "uint8"
						},
						{
							"internalType": "enum E_Female_Skin",
							"name": "femaleSkin",
							"type": "uint8"
						},
						{
							"internalType": "enum E_Female_Eyes",
							"name": "femaleEyes",
							"type": "uint8"
						},
						{
							"internalType": "enum E_Female_Face",
							"name": "femaleFace",
							"type": "uint8"
						},
						{
							"internalType": "enum E_Female_Chain",
							"name": "femaleChain",
							"type": "uint8"
						},
						{
							"internalType": "enum E_Female_Earring",
							"name": "femaleEarring",
							"type": "uint8"
						},
						{
							"internalType": "enum E_Female_Scarf",
							"name": "femaleScarf",
							"type": "uint8"
						},
						{
							"internalType": "enum E_Female_Mask",
							"name": "femaleMask",
							"type": "uint8"
						},
						{
							"internalType": "enum E_Female_Hair",
							"name": "femaleHair",
							"type": "uint8"
						},
						{
							"internalType": "enum E_Female_Hat_Hair",
							"name": "femaleHatHair",
							"type": "uint8"
						},
						{
							"internalType": "enum E_Female_Headwear",
							"name": "femaleHeadwear",
							"type": "uint8"
						},
						{
							"internalType": "enum E_Female_Eye_Wear",
							"name": "femaleEyeWear",
							"type": "uint8"
						},
						{
							"internalType": "enum E_Mouth",
							"name": "mouth",
							"type": "uint8"
						}
					],
					"internalType": "struct TraitsContext",
					"name": "ctx",
					"type": "tuple"
				},
				{
					"components": [
						{
							"internalType": "uint256",
							"name": "state",
							"type": "uint256"
						}
					],
					"internalType": "struct LibPRNG.PRNG",
					"name": "prng",
					"type": "tuple"
				}
			],
			"name": "selectMaleFacialHair",
			"outputs": [
				{
					"internalType": "enum E_Male_Facial_Hair",
					"name": "",
					"type": "uint8"
				}
			],
			"stateMutability": "pure",
			"type": "function"
		},
		{
			"inputs": [
				{
					"components": [
						{
							"components": [
								{
									"internalType": "enum E_TraitsGroup",
									"name": "traitGroup",
									"type": "uint8"
								},
								{
									"internalType": "uint8",
									"name": "traitIndex",
									"type": "uint8"
								},
								{
									"internalType": "bool",
									"name": "hasFiller",
									"type": "bool"
								},
								{
									"components": [
										{
											"internalType": "enum E_TraitsGroup",
											"name": "traitGroup",
											"type": "uint8"
										},
										{
											"internalType": "uint8",
											"name": "traitIndex",
											"type": "uint8"
										}
									],
									"internalType": "struct FillerTrait",
									"name": "filler",
									"type": "tuple"
								}
							],
							"internalType": "struct TraitToRender[]",
							"name": "traitsToRender",
							"type": "tuple[]"
						},
						{
							"internalType": "uint8",
							"name": "traitsToRenderLength",
							"type": "uint8"
						},
						{
							"internalType": "uint16",
							"name": "tokenIdSeed",
							"type": "uint16"
						},
						{
							"internalType": "uint16",
							"name": "specialId",
							"type": "uint16"
						},
						{
							"internalType": "uint32",
							"name": "birthday",
							"type": "uint32"
						},
						{
							"internalType": "enum E_Sex",
							"name": "sex",
							"type": "uint8"
						},
						{
							"internalType": "enum E_Background",
							"name": "background",
							"type": "uint8"
						},
						{
							"internalType": "enum E_Male_Skin",
							"name": "maleSkin",
							"type": "uint8"
						},
						{
							"internalType": "enum E_Male_Eyes",
							"name": "maleEyes",
							"type": "uint8"
						},
						{
							"internalType": "enum E_Male_Face",
							"name": "maleFace",
							"type": "uint8"
						},
						{
							"internalType": "enum E_Male_Chain",
							"name": "maleChain",
							"type": "uint8"
						},
						{
							"internalType": "enum E_Male_Earring",
							"name": "maleEarring",
							"type": "uint8"
						},
						{
							"internalType": "enum E_Male_Scarf",
							"name": "maleScarf",
							"type": "uint8"
						},
						{
							"internalType": "enum E_Male_Facial_Hair",
							"name": "maleFacialHair",
							"type": "uint8"
						},
						{
							"internalType": "enum E_Male_Mask",
							"name": "maleMask",
							"type": "uint8"
						},
						{
							"internalType": "enum E_Male_Hair",
							"name": "maleHair",
							"type": "uint8"
						},
						{
							"internalType": "enum E_Male_Hat_Hair",
							"name": "maleHatHair",
							"type": "uint8"
						},
						{
							"internalType": "enum E_Male_Headwear",
							"name": "maleHeadwear",
							"type": "uint8"
						},
						{
							"internalType": "enum E_Male_Eye_Wear",
							"name": "maleEyeWear",
							"type": "uint8"
						},
						{
							"internalType": "enum E_Female_Skin",
							"name": "femaleSkin",
							"type": "uint8"
						},
						{
							"internalType": "enum E_Female_Eyes",
							"name": "femaleEyes",
							"type": "uint8"
						},
						{
							"internalType": "enum E_Female_Face",
							"name": "femaleFace",
							"type": "uint8"
						},
						{
							"internalType": "enum E_Female_Chain",
							"name": "femaleChain",
							"type": "uint8"
						},
						{
							"internalType": "enum E_Female_Earring",
							"name": "femaleEarring",
							"type": "uint8"
						},
						{
							"internalType": "enum E_Female_Scarf",
							"name": "femaleScarf",
							"type": "uint8"
						},
						{
							"internalType": "enum E_Female_Mask",
							"name": "femaleMask",
							"type": "uint8"
						},
						{
							"internalType": "enum E_Female_Hair",
							"name": "femaleHair",
							"type": "uint8"
						},
						{
							"internalType": "enum E_Female_Hat_Hair",
							"name": "femaleHatHair",
							"type": "uint8"
						},
						{
							"internalType": "enum E_Female_Headwear",
							"name": "femaleHeadwear",
							"type": "uint8"
						},
						{
							"internalType": "enum E_Female_Eye_Wear",
							"name": "femaleEyeWear",
							"type": "uint8"
						},
						{
							"internalType": "enum E_Mouth",
							"name": "mouth",
							"type": "uint8"
						}
					],
					"internalType": "struct TraitsContext",
					"name": "ctx",
					"type": "tuple"
				},
				{
					"components": [
						{
							"internalType": "uint256",
							"name": "state",
							"type": "uint256"
						}
					],
					"internalType": "struct LibPRNG.PRNG",
					"name": "prng",
					"type": "tuple"
				}
			],
			"name": "selectMaleHair",
			"outputs": [
				{
					"internalType": "enum E_Male_Hair",
					"name": "",
					"type": "uint8"
				}
			],
			"stateMutability": "pure",
			"type": "function"
		},
		{
			"inputs": [
				{
					"components": [
						{
							"components": [
								{
									"internalType": "enum E_TraitsGroup",
									"name": "traitGroup",
									"type": "uint8"
								},
								{
									"internalType": "uint8",
									"name": "traitIndex",
									"type": "uint8"
								},
								{
									"internalType": "bool",
									"name": "hasFiller",
									"type": "bool"
								},
								{
									"components": [
										{
											"internalType": "enum E_TraitsGroup",
											"name": "traitGroup",
											"type": "uint8"
										},
										{
											"internalType": "uint8",
											"name": "traitIndex",
											"type": "uint8"
										}
									],
									"internalType": "struct FillerTrait",
									"name": "filler",
									"type": "tuple"
								}
							],
							"internalType": "struct TraitToRender[]",
							"name": "traitsToRender",
							"type": "tuple[]"
						},
						{
							"internalType": "uint8",
							"name": "traitsToRenderLength",
							"type": "uint8"
						},
						{
							"internalType": "uint16",
							"name": "tokenIdSeed",
							"type": "uint16"
						},
						{
							"internalType": "uint16",
							"name": "specialId",
							"type": "uint16"
						},
						{
							"internalType": "uint32",
							"name": "birthday",
							"type": "uint32"
						},
						{
							"internalType": "enum E_Sex",
							"name": "sex",
							"type": "uint8"
						},
						{
							"internalType": "enum E_Background",
							"name": "background",
							"type": "uint8"
						},
						{
							"internalType": "enum E_Male_Skin",
							"name": "maleSkin",
							"type": "uint8"
						},
						{
							"internalType": "enum E_Male_Eyes",
							"name": "maleEyes",
							"type": "uint8"
						},
						{
							"internalType": "enum E_Male_Face",
							"name": "maleFace",
							"type": "uint8"
						},
						{
							"internalType": "enum E_Male_Chain",
							"name": "maleChain",
							"type": "uint8"
						},
						{
							"internalType": "enum E_Male_Earring",
							"name": "maleEarring",
							"type": "uint8"
						},
						{
							"internalType": "enum E_Male_Scarf",
							"name": "maleScarf",
							"type": "uint8"
						},
						{
							"internalType": "enum E_Male_Facial_Hair",
							"name": "maleFacialHair",
							"type": "uint8"
						},
						{
							"internalType": "enum E_Male_Mask",
							"name": "maleMask",
							"type": "uint8"
						},
						{
							"internalType": "enum E_Male_Hair",
							"name": "maleHair",
							"type": "uint8"
						},
						{
							"internalType": "enum E_Male_Hat_Hair",
							"name": "maleHatHair",
							"type": "uint8"
						},
						{
							"internalType": "enum E_Male_Headwear",
							"name": "maleHeadwear",
							"type": "uint8"
						},
						{
							"internalType": "enum E_Male_Eye_Wear",
							"name": "maleEyeWear",
							"type": "uint8"
						},
						{
							"internalType": "enum E_Female_Skin",
							"name": "femaleSkin",
							"type": "uint8"
						},
						{
							"internalType": "enum E_Female_Eyes",
							"name": "femaleEyes",
							"type": "uint8"
						},
						{
							"internalType": "enum E_Female_Face",
							"name": "femaleFace",
							"type": "uint8"
						},
						{
							"internalType": "enum E_Female_Chain",
							"name": "femaleChain",
							"type": "uint8"
						},
						{
							"internalType": "enum E_Female_Earring",
							"name": "femaleEarring",
							"type": "uint8"
						},
						{
							"internalType": "enum E_Female_Scarf",
							"name": "femaleScarf",
							"type": "uint8"
						},
						{
							"internalType": "enum E_Female_Mask",
							"name": "femaleMask",
							"type": "uint8"
						},
						{
							"internalType": "enum E_Female_Hair",
							"name": "femaleHair",
							"type": "uint8"
						},
						{
							"internalType": "enum E_Female_Hat_Hair",
							"name": "femaleHatHair",
							"type": "uint8"
						},
						{
							"internalType": "enum E_Female_Headwear",
							"name": "femaleHeadwear",
							"type": "uint8"
						},
						{
							"internalType": "enum E_Female_Eye_Wear",
							"name": "femaleEyeWear",
							"type": "uint8"
						},
						{
							"internalType": "enum E_Mouth",
							"name": "mouth",
							"type": "uint8"
						}
					],
					"internalType": "struct TraitsContext",
					"name": "ctx",
					"type": "tuple"
				},
				{
					"components": [
						{
							"internalType": "uint256",
							"name": "state",
							"type": "uint256"
						}
					],
					"internalType": "struct LibPRNG.PRNG",
					"name": "prng",
					"type": "tuple"
				}
			],
			"name": "selectMaleHatHair",
			"outputs": [
				{
					"internalType": "enum E_Male_Hat_Hair",
					"name": "",
					"type": "uint8"
				}
			],
			"stateMutability": "pure",
			"type": "function"
		},
		{
			"inputs": [
				{
					"components": [
						{
							"internalType": "uint256",
							"name": "state",
							"type": "uint256"
						}
					],
					"internalType": "struct LibPRNG.PRNG",
					"name": "prng",
					"type": "tuple"
				}
			],
			"name": "selectMaleHeadwear",
			"outputs": [
				{
					"internalType": "enum E_Male_Headwear",
					"name": "",
					"type": "uint8"
				}
			],
			"stateMutability": "pure",
			"type": "function"
		},
		{
			"inputs": [
				{
					"components": [
						{
							"internalType": "uint256",
							"name": "state",
							"type": "uint256"
						}
					],
					"internalType": "struct LibPRNG.PRNG",
					"name": "prng",
					"type": "tuple"
				}
			],
			"name": "selectMaleMask",
			"outputs": [
				{
					"internalType": "enum E_Male_Mask",
					"name": "",
					"type": "uint8"
				}
			],
			"stateMutability": "pure",
			"type": "function"
		},
		{
			"inputs": [
				{
					"components": [
						{
							"internalType": "uint256",
							"name": "state",
							"type": "uint256"
						}
					],
					"internalType": "struct LibPRNG.PRNG",
					"name": "prng",
					"type": "tuple"
				}
			],
			"name": "selectMaleScarf",
			"outputs": [
				{
					"internalType": "enum E_Male_Scarf",
					"name": "",
					"type": "uint8"
				}
			],
			"stateMutability": "pure",
			"type": "function"
		},
		{
			"inputs": [
				{
					"components": [
						{
							"internalType": "uint256",
							"name": "state",
							"type": "uint256"
						}
					],
					"internalType": "struct LibPRNG.PRNG",
					"name": "prng",
					"type": "tuple"
				}
			],
			"name": "selectMaleSkin",
			"outputs": [
				{
					"internalType": "enum E_Male_Skin",
					"name": "",
					"type": "uint8"
				}
			],
			"stateMutability": "pure",
			"type": "function"
		},
		{
			"inputs": [
				{
					"components": [
						{
							"components": [
								{
									"internalType": "enum E_TraitsGroup",
									"name": "traitGroup",
									"type": "uint8"
								},
								{
									"internalType": "uint8",
									"name": "traitIndex",
									"type": "uint8"
								},
								{
									"internalType": "bool",
									"name": "hasFiller",
									"type": "bool"
								},
								{
									"components": [
										{
											"internalType": "enum E_TraitsGroup",
											"name": "traitGroup",
											"type": "uint8"
										},
										{
											"internalType": "uint8",
											"name": "traitIndex",
											"type": "uint8"
										}
									],
									"internalType": "struct FillerTrait",
									"name": "filler",
									"type": "tuple"
								}
							],
							"internalType": "struct TraitToRender[]",
							"name": "traitsToRender",
							"type": "tuple[]"
						},
						{
							"internalType": "uint8",
							"name": "traitsToRenderLength",
							"type": "uint8"
						},
						{
							"internalType": "uint16",
							"name": "tokenIdSeed",
							"type": "uint16"
						},
						{
							"internalType": "uint16",
							"name": "specialId",
							"type": "uint16"
						},
						{
							"internalType": "uint32",
							"name": "birthday",
							"type": "uint32"
						},
						{
							"internalType": "enum E_Sex",
							"name": "sex",
							"type": "uint8"
						},
						{
							"internalType": "enum E_Background",
							"name": "background",
							"type": "uint8"
						},
						{
							"internalType": "enum E_Male_Skin",
							"name": "maleSkin",
							"type": "uint8"
						},
						{
							"internalType": "enum E_Male_Eyes",
							"name": "maleEyes",
							"type": "uint8"
						},
						{
							"internalType": "enum E_Male_Face",
							"name": "maleFace",
							"type": "uint8"
						},
						{
							"internalType": "enum E_Male_Chain",
							"name": "maleChain",
							"type": "uint8"
						},
						{
							"internalType": "enum E_Male_Earring",
							"name": "maleEarring",
							"type": "uint8"
						},
						{
							"internalType": "enum E_Male_Scarf",
							"name": "maleScarf",
							"type": "uint8"
						},
						{
							"internalType": "enum E_Male_Facial_Hair",
							"name": "maleFacialHair",
							"type": "uint8"
						},
						{
							"internalType": "enum E_Male_Mask",
							"name": "maleMask",
							"type": "uint8"
						},
						{
							"internalType": "enum E_Male_Hair",
							"name": "maleHair",
							"type": "uint8"
						},
						{
							"internalType": "enum E_Male_Hat_Hair",
							"name": "maleHatHair",
							"type": "uint8"
						},
						{
							"internalType": "enum E_Male_Headwear",
							"name": "maleHeadwear",
							"type": "uint8"
						},
						{
							"internalType": "enum E_Male_Eye_Wear",
							"name": "maleEyeWear",
							"type": "uint8"
						},
						{
							"internalType": "enum E_Female_Skin",
							"name": "femaleSkin",
							"type": "uint8"
						},
						{
							"internalType": "enum E_Female_Eyes",
							"name": "femaleEyes",
							"type": "uint8"
						},
						{
							"internalType": "enum E_Female_Face",
							"name": "femaleFace",
							"type": "uint8"
						},
						{
							"internalType": "enum E_Female_Chain",
							"name": "femaleChain",
							"type": "uint8"
						},
						{
							"internalType": "enum E_Female_Earring",
							"name": "femaleEarring",
							"type": "uint8"
						},
						{
							"internalType": "enum E_Female_Scarf",
							"name": "femaleScarf",
							"type": "uint8"
						},
						{
							"internalType": "enum E_Female_Mask",
							"name": "femaleMask",
							"type": "uint8"
						},
						{
							"internalType": "enum E_Female_Hair",
							"name": "femaleHair",
							"type": "uint8"
						},
						{
							"internalType": "enum E_Female_Hat_Hair",
							"name": "femaleHatHair",
							"type": "uint8"
						},
						{
							"internalType": "enum E_Female_Headwear",
							"name": "femaleHeadwear",
							"type": "uint8"
						},
						{
							"internalType": "enum E_Female_Eye_Wear",
							"name": "femaleEyeWear",
							"type": "uint8"
						},
						{
							"internalType": "enum E_Mouth",
							"name": "mouth",
							"type": "uint8"
						}
					],
					"internalType": "struct TraitsContext",
					"name": "ctx",
					"type": "tuple"
				},
				{
					"components": [
						{
							"internalType": "uint256",
							"name": "state",
							"type": "uint256"
						}
					],
					"internalType": "struct LibPRNG.PRNG",
					"name": "prng",
					"type": "tuple"
				}
			],
			"name": "selectMouth",
			"outputs": [
				{
					"internalType": "enum E_Mouth",
					"name": "",
					"type": "uint8"
				}
			],
			"stateMutability": "pure",
			"type": "function"
		}
	]
}