{
	"data": {
		"bytecode": {
			"linkReferences": {},
			"object": "60a034606557601f6107e538819003918201601f19168301916001600160401b03831184841017606957808492602094604052833981010312606557516001600160a01b0381168103606557608052604051610767908161007e82396080518160930152f35b5f80fd5b634e487b7160e01b5f52604160045260245ffdfe60806040526004361015610011575f80fd5b5f3560e01c637d13443314610024575f80fd5b3461015c57606036600319011261015c5760043561ffff811680910361015c5760243560ff811680910361015c5761006761006161006d9361053a565b9161053a565b906101f9565b6040516369dde37960e01b81526301fca05560048201525f816024816001600160a01b037f0000000000000000000000000000000000000000000000000000000000000000165afa908115610157575f91610135575b506101116100e3602060405161277081016040526127508152015f815290565b916100f56100ef61038f565b8461057f565b6101006100ef6103f0565b61010b6100ef610446565b826105c2565b61012261011c6104e1565b8261057f565b61013160405192839283610184565b0390f35b61015191503d805f833e61014981836101c0565b810190610311565b5f6100c3565b610384565b5f80fd5b805180835260209291819084018484015e5f828201840152601f01601f1916010190565b909161019b6101a993604084526040840190610160565b916020818403910152610160565b90565b634e487b7160e01b5f52604160045260245ffd5b90601f8019910116810190811067ffffffffffffffff8211176101e257604052565b6101ac565b805191908290602001825e015f815290565b6040516d2261747472696275746573223a5b60901b60208201527f7b2274726169745f74797065223a2254797065222c2276616c7565223a225072602e8201526a194b54995d99585b089f4b60aa1b604e8201527f7b2274726169745f74797065223a22546f6b656e2049442053656564222c227660598201526630b63ab2911d1160c91b6079820152929161030f9160049185916102ed9190602d906102a49060808601906101e7565b62089f4b60ea1b81527f7b2274726169745f74797065223a224261636b67726f756e6420496e6465782260038201526916113b30b63ab2911d1160b11b602382015201906101e7565b62089f4b60ea1b8152605d60f81b600382015203601b198101855201836101c0565b565b60208183031261015c5780519067ffffffffffffffff821161015c570181601f8201121561015c5780519067ffffffffffffffff82116101e25760405192610363601f8401601f1916602001856101c0565b8284526020838301011161015c57815f9260208093018386015e8301015290565b6040513d5f823e3d90fd5b6040519061039e6060836101c0565b603c82527f30302f737667222076696577426f783d22302030203438203438223e000000006040837f3c73766720786d6c6e733d22687474703a2f2f7777772e77332e6f72672f323060208201520152565b604051906103ff6060836101c0565b60328252713c32b630ba32b21dbe901e17b9ba3cb6329f60711b6040837f3c7374796c653e20696d67207b696d6167652d72656e646572696e673a20706960208201520152565b6040519061045560a0836101c0565b606b82526a19da598ed8985cd94d8d0b60aa1b6080837f3c666f726569676e4f626a6563742077696474683d223234222068656967687460208201527f3d223234223e3c696d6720786d6c6e733d22687474703a2f2f7777772e77332e60408201527f6f72672f313939392f7868746d6c22207372633d22646174613a696d6167652f60608201520152565b604051906104f06060836101c0565b603582527417b337b932b4b3b727b13532b1ba1f1e17b9bb339f60591b6040837f222077696474683d223130302522206865696768743d223130302522202f3e3c60208201520152565b90604051600a608082019360a083016040525f8552935b5f19019360308282060185530492831561056d57600a90610551565b809350608091030191601f1901918252565b9061058b8151836106ab565b8051906020828183019201019060208451850101905b8281106105b2575050508151019052565b80518252602091820191016105a1565b815180156106a6576003600282010460021b9060038106906105e483856106ab565b604051947f4142434445464748494a4b4c4d4e4f505152535455565758595a616263646566601f5261022f197f6768696a6b6c6d6e6f707172737475767778797a303132333435363738392d5f01603f526004600360208751880101938301925b0192603f8451818160121c165183538181600c1c16516001840153818160061c1651600284015316516003820153019181811015610687576003600491610645565b50506001603d92838115158403531460011b9003538151019052604052565b505050565b603f19601f1982015101905191820180921161071d57106106c857565b60405162461bcd60e51b815260206004820152602760248201527f44796e616d69634275666665723a20417070656e64696e67206f7574206f66206044820152663137bab732399760c91b6064820152608490fd5b634e487b7160e01b5f52601160045260245ffdfea264697066735822122068911274f84dfa42b2bc996453f2014cc1a379a28a7aecd8a31b286d36e3ed0364736f6c634300081e0033",
			"opcodes": "PUSH1 0xA0 CALLVALUE PUSH1 0x65 JUMPI PUSH1 0x1F PUSH2 0x7E5 CODESIZE DUP2 SWAP1 SUB SWAP2 DUP3 ADD PUSH1 0x1F NOT AND DUP4 ADD SWAP2 PUSH1 0x1 PUSH1 0x1 PUSH1 0x40 SHL SUB DUP4 GT DUP5 DUP5 LT OR PUSH1 0x69 JUMPI DUP1 DUP5 SWAP3 PUSH1 0x20 SWAP5 PUSH1 0x40 MSTORE DUP4 CODECOPY DUP2 ADD SUB SLT PUSH1 0x65 JUMPI MLOAD PUSH1 0x1 PUSH1 0x1 PUSH1 0xA0 SHL SUB DUP2 AND DUP2 SUB PUSH1 0x65 JUMPI PUSH1 0x80 MSTORE PUSH1 0x40 MLOAD PUSH2 0x767 SWAP1 DUP2 PUSH2 0x7E DUP3 CODECOPY PUSH1 0x80 MLOAD DUP2 PUSH1 0x93 ADD MSTORE RETURN JUMPDEST PUSH0 DUP1 REVERT JUMPDEST PUSH4 0x4E487B71 PUSH1 0xE0 SHL PUSH0 MSTORE PUSH1 0x41 PUSH1 0x4 MSTORE PUSH1 0x24 PUSH0 REVERT INVALID PUSH1 0x80 PUSH1 0x40 MSTORE PUSH1 0x4 CALLDATASIZE LT ISZERO PUSH2 0x11 JUMPI PUSH0 DUP1 REVERT JUMPDEST PUSH0 CALLDATALOAD PUSH1 0xE0 SHR PUSH4 0x7D134433 EQ PUSH2 0x24 JUMPI PUSH0 DUP1 REVERT JUMPDEST CALLVALUE PUSH2 0x15C JUMPI PUSH1 0x60 CALLDATASIZE PUSH1 0x3 NOT ADD SLT PUSH2 0x15C JUMPI PUSH1 0x4 CALLDATALOAD PUSH2 0xFFFF DUP2 AND DUP1 SWAP2 SUB PUSH2 0x15C JUMPI PUSH1 0x24 CALLDATALOAD PUSH1 0xFF DUP2 AND DUP1 SWAP2 SUB PUSH2 0x15C JUMPI PUSH2 0x67 PUSH2 0x61 PUSH2 0x6D SWAP4 PUSH2 0x53A JUMP JUMPDEST SWAP2 PUSH2 0x53A JUMP JUMPDEST SWAP1 PUSH2 0x1F9 JUMP JUMPDEST PUSH1 0x40 MLOAD PUSH4 0x69DDE379 PUSH1 0xE0 SHL DUP2 MSTORE PUSH4 0x1FCA055 PUSH1 0x4 DUP3 ADD MSTORE PUSH0 DUP2 PUSH1 0x24 DUP2 PUSH1 0x1 PUSH1 0x1 PUSH1 0xA0 SHL SUB PUSH32 0x0 AND GAS STATICCALL SWAP1 DUP2 ISZERO PUSH2 0x157 JUMPI PUSH0 SWAP2 PUSH2 0x135 JUMPI JUMPDEST POP PUSH2 0x111 PUSH2 0xE3 PUSH1 0x20 PUSH1 0x40 MLOAD PUSH2 0x2770 DUP2 ADD PUSH1 0x40 MSTORE PUSH2 0x2750 DUP2 MSTORE ADD PUSH0 DUP2 MSTORE SWAP1 JUMP JUMPDEST SWAP2 PUSH2 0xF5 PUSH2 0xEF PUSH2 0x38F JUMP JUMPDEST DUP5 PUSH2 0x57F JUMP JUMPDEST PUSH2 0x100 PUSH2 0xEF PUSH2 0x3F0 JUMP JUMPDEST PUSH2 0x10B PUSH2 0xEF PUSH2 0x446 JUMP JUMPDEST DUP3 PUSH2 0x5C2 JUMP JUMPDEST PUSH2 0x122 PUSH2 0x11C PUSH2 0x4E1 JUMP JUMPDEST DUP3 PUSH2 0x57F JUMP JUMPDEST PUSH2 0x131 PUSH1 0x40 MLOAD SWAP3 DUP4 SWAP3 DUP4 PUSH2 0x184 JUMP JUMPDEST SUB SWAP1 RETURN JUMPDEST PUSH2 0x151 SWAP2 POP RETURNDATASIZE DUP1 PUSH0 DUP4 RETURNDATACOPY PUSH2 0x149 DUP2 DUP4 PUSH2 0x1C0 JUMP JUMPDEST DUP2 ADD SWAP1 PUSH2 0x311 JUMP JUMPDEST PUSH0 PUSH2 0xC3 JUMP JUMPDEST PUSH2 0x384 JUMP JUMPDEST PUSH0 DUP1 REVERT JUMPDEST DUP1 MLOAD DUP1 DUP4 MSTORE PUSH1 0x20 SWAP3 SWAP2 DUP2 SWAP1 DUP5 ADD DUP5 DUP5 ADD MCOPY PUSH0 DUP3 DUP3 ADD DUP5 ADD MSTORE PUSH1 0x1F ADD PUSH1 0x1F NOT AND ADD ADD SWAP1 JUMP JUMPDEST SWAP1 SWAP2 PUSH2 0x19B PUSH2 0x1A9 SWAP4 PUSH1 0x40 DUP5 MSTORE PUSH1 0x40 DUP5 ADD SWAP1 PUSH2 0x160 JUMP JUMPDEST SWAP2 PUSH1 0x20 DUP2 DUP5 SUB SWAP2 ADD MSTORE PUSH2 0x160 JUMP JUMPDEST SWAP1 JUMP JUMPDEST PUSH4 0x4E487B71 PUSH1 0xE0 SHL PUSH0 MSTORE PUSH1 0x41 PUSH1 0x4 MSTORE PUSH1 0x24 PUSH0 REVERT JUMPDEST SWAP1 PUSH1 0x1F DUP1 NOT SWAP2 ADD AND DUP2 ADD SWAP1 DUP2 LT PUSH8 0xFFFFFFFFFFFFFFFF DUP3 GT OR PUSH2 0x1E2 JUMPI PUSH1 0x40 MSTORE JUMP JUMPDEST PUSH2 0x1AC JUMP JUMPDEST DUP1 MLOAD SWAP2 SWAP1 DUP3 SWAP1 PUSH1 0x20 ADD DUP3 MCOPY ADD PUSH0 DUP2 MSTORE SWAP1 JUMP JUMPDEST PUSH1 0x40 MLOAD PUSH14 0x2261747472696275746573223A5B PUSH1 0x90 SHL PUSH1 0x20 DUP3 ADD MSTORE PUSH32 0x7B2274726169745F74797065223A2254797065222C2276616C7565223A225072 PUSH1 0x2E DUP3 ADD MSTORE PUSH11 0x194B54995D99585B089F4B PUSH1 0xAA SHL PUSH1 0x4E DUP3 ADD MSTORE PUSH32 0x7B2274726169745F74797065223A22546F6B656E2049442053656564222C2276 PUSH1 0x59 DUP3 ADD MSTORE PUSH7 0x30B63AB2911D11 PUSH1 0xC9 SHL PUSH1 0x79 DUP3 ADD MSTORE SWAP3 SWAP2 PUSH2 0x30F SWAP2 PUSH1 0x4 SWAP2 DUP6 SWAP2 PUSH2 0x2ED SWAP2 SWAP1 PUSH1 0x2D SWAP1 PUSH2 0x2A4 SWAP1 PUSH1 0x80 DUP7 ADD SWAP1 PUSH2 0x1E7 JUMP JUMPDEST PUSH3 0x89F4B PUSH1 0xEA SHL DUP2 MSTORE PUSH32 0x7B2274726169745F74797065223A224261636B67726F756E6420496E64657822 PUSH1 0x3 DUP3 ADD MSTORE PUSH10 0x16113B30B63AB2911D11 PUSH1 0xB1 SHL PUSH1 0x23 DUP3 ADD MSTORE ADD SWAP1 PUSH2 0x1E7 JUMP JUMPDEST PUSH3 0x89F4B PUSH1 0xEA SHL DUP2 MSTORE PUSH1 0x5D PUSH1 0xF8 SHL PUSH1 0x3 DUP3 ADD MSTORE SUB PUSH1 0x1B NOT DUP2 ADD DUP6 MSTORE ADD DUP4 PUSH2 0x1C0 JUMP JUMPDEST JUMP JUMPDEST PUSH1 0x20 DUP2 DUP4 SUB SLT PUSH2 0x15C JUMPI DUP1 MLOAD SWAP1 PUSH8 0xFFFFFFFFFFFFFFFF DUP3 GT PUSH2 0x15C JUMPI ADD DUP2 PUSH1 0x1F DUP3 ADD SLT ISZERO PUSH2 0x15C JUMPI DUP1 MLOAD SWAP1 PUSH8 0xFFFFFFFFFFFFFFFF DUP3 GT PUSH2 0x1E2 JUMPI PUSH1 0x40 MLOAD SWAP3 PUSH2 0x363 PUSH1 0x1F DUP5 ADD PUSH1 0x1F NOT AND PUSH1 0x20 ADD DUP6 PUSH2 0x1C0 JUMP JUMPDEST DUP3 DUP5 MSTORE PUSH1 0x20 DUP4 DUP4 ADD ADD GT PUSH2 0x15C JUMPI DUP2 PUSH0 SWAP3 PUSH1 0x20 DUP1 SWAP4 ADD DUP4 DUP7 ADD MCOPY DUP4 ADD ADD MSTORE SWAP1 JUMP JUMPDEST PUSH1 0x40 MLOAD RETURNDATASIZE PUSH0 DUP3 RETURNDATACOPY RETURNDATASIZE SWAP1 REVERT JUMPDEST PUSH1 0x40 MLOAD SWAP1 PUSH2 0x39E PUSH1 0x60 DUP4 PUSH2 0x1C0 JUMP JUMPDEST PUSH1 0x3C DUP3 MSTORE PUSH32 0x30302F737667222076696577426F783D22302030203438203438223E00000000 PUSH1 0x40 DUP4 PUSH32 0x3C73766720786D6C6E733D22687474703A2F2F7777772E77332E6F72672F3230 PUSH1 0x20 DUP3 ADD MSTORE ADD MSTORE JUMP JUMPDEST PUSH1 0x40 MLOAD SWAP1 PUSH2 0x3FF PUSH1 0x60 DUP4 PUSH2 0x1C0 JUMP JUMPDEST PUSH1 0x32 DUP3 MSTORE PUSH18 0x3C32B630BA32B21DBE901E17B9BA3CB6329F PUSH1 0x71 SHL PUSH1 0x40 DUP4 PUSH32 0x3C7374796C653E20696D67207B696D6167652D72656E646572696E673A207069 PUSH1 0x20 DUP3 ADD MSTORE ADD MSTORE JUMP JUMPDEST PUSH1 0x40 MLOAD SWAP1 PUSH2 0x455 PUSH1 0xA0 DUP4 PUSH2 0x1C0 JUMP JUMPDEST PUSH1 0x6B DUP3 MSTORE PUSH11 0x19DA598ED8985CD94D8D0B PUSH1 0xAA SHL PUSH1 0x80 DUP4 PUSH32 0x3C666F726569676E4F626A6563742077696474683D2232342220686569676874 PUSH1 0x20 DUP3 ADD MSTORE PUSH32 0x3D223234223E3C696D6720786D6C6E733D22687474703A2F2F7777772E77332E PUSH1 0x40 DUP3 ADD MSTORE PUSH32 0x6F72672F313939392F7868746D6C22207372633D22646174613A696D6167652F PUSH1 0x60 DUP3 ADD MSTORE ADD MSTORE JUMP JUMPDEST PUSH1 0x40 MLOAD SWAP1 PUSH2 0x4F0 PUSH1 0x60 DUP4 PUSH2 0x1C0 JUMP JUMPDEST PUSH1 0x35 DUP3 MSTORE PUSH21 0x17B337B932B4B3B727B13532B1BA1F1E17B9BB339F PUSH1 0x59 SHL PUSH1 0x40 DUP4 PUSH32 0x222077696474683D223130302522206865696768743D223130302522202F3E3C PUSH1 0x20 DUP3 ADD MSTORE ADD MSTORE JUMP JUMPDEST SWAP1 PUSH1 0x40 MLOAD PUSH1 0xA PUSH1 0x80 DUP3 ADD SWAP4 PUSH1 0xA0 DUP4 ADD PUSH1 0x40 MSTORE PUSH0 DUP6 MSTORE SWAP4 JUMPDEST PUSH0 NOT ADD SWAP4 PUSH1 0x30 DUP3 DUP3 MOD ADD DUP6 MSTORE8 DIV SWAP3 DUP4 ISZERO PUSH2 0x56D JUMPI PUSH1 0xA SWAP1 PUSH2 0x551 JUMP JUMPDEST DUP1 SWAP4 POP PUSH1 0x80 SWAP2 SUB ADD SWAP2 PUSH1 0x1F NOT ADD SWAP2 DUP3 MSTORE JUMP JUMPDEST SWAP1 PUSH2 0x58B DUP2 MLOAD DUP4 PUSH2 0x6AB JUMP JUMPDEST DUP1 MLOAD SWAP1 PUSH1 0x20 DUP3 DUP2 DUP4 ADD SWAP3 ADD ADD SWAP1 PUSH1 0x20 DUP5 MLOAD DUP6 ADD ADD SWAP1 JUMPDEST DUP3 DUP2 LT PUSH2 0x5B2 JUMPI POP POP POP DUP2 MLOAD ADD SWAP1 MSTORE JUMP JUMPDEST DUP1 MLOAD DUP3 MSTORE PUSH1 0x20 SWAP2 DUP3 ADD SWAP2 ADD PUSH2 0x5A1 JUMP JUMPDEST DUP2 MLOAD DUP1 ISZERO PUSH2 0x6A6 JUMPI PUSH1 0x3 PUSH1 0x2 DUP3 ADD DIV PUSH1 0x2 SHL SWAP1 PUSH1 0x3 DUP2 MOD SWAP1 PUSH2 0x5E4 DUP4 DUP6 PUSH2 0x6AB JUMP JUMPDEST PUSH1 0x40 MLOAD SWAP5 PUSH32 0x4142434445464748494A4B4C4D4E4F505152535455565758595A616263646566 PUSH1 0x1F MSTORE PUSH2 0x22F NOT PUSH32 0x6768696A6B6C6D6E6F707172737475767778797A303132333435363738392D5F ADD PUSH1 0x3F MSTORE PUSH1 0x4 PUSH1 0x3 PUSH1 0x20 DUP8 MLOAD DUP9 ADD ADD SWAP4 DUP4 ADD SWAP3 JUMPDEST ADD SWAP3 PUSH1 0x3F DUP5 MLOAD DUP2 DUP2 PUSH1 0x12 SHR AND MLOAD DUP4 MSTORE8 DUP2 DUP2 PUSH1 0xC SHR AND MLOAD PUSH1 0x1 DUP5 ADD MSTORE8 DUP2 DUP2 PUSH1 0x6 SHR AND MLOAD PUSH1 0x2 DUP5 ADD MSTORE8 AND MLOAD PUSH1 0x3 DUP3 ADD MSTORE8 ADD SWAP2 DUP2 DUP2 LT ISZERO PUSH2 0x687 JUMPI PUSH1 0x3 PUSH1 0x4 SWAP2 PUSH2 0x645 JUMP JUMPDEST POP POP PUSH1 0x1 PUSH1 0x3D SWAP3 DUP4 DUP2 ISZERO ISZERO DUP5 SUB MSTORE8 EQ PUSH1 0x1 SHL SWAP1 SUB MSTORE8 DUP2 MLOAD ADD SWAP1 MSTORE PUSH1 0x40 MSTORE JUMP JUMPDEST POP POP POP JUMP JUMPDEST PUSH1 0x3F NOT PUSH1 0x1F NOT DUP3 ADD MLOAD ADD SWAP1 MLOAD SWAP2 DUP3 ADD DUP1 SWAP3 GT PUSH2 0x71D JUMPI LT PUSH2 0x6C8 JUMPI JUMP JUMPDEST PUSH1 0x40 MLOAD PUSH3 0x461BCD PUSH1 0xE5 SHL DUP2 MSTORE PUSH1 0x20 PUSH1 0x4 DUP3 ADD MSTORE PUSH1 0x27 PUSH1 0x24 DUP3 ADD MSTORE PUSH32 0x44796E616D69634275666665723A20417070656E64696E67206F7574206F6620 PUSH1 0x44 DUP3 ADD MSTORE PUSH7 0x3137BAB7323997 PUSH1 0xC9 SHL PUSH1 0x64 DUP3 ADD MSTORE PUSH1 0x84 SWAP1 REVERT JUMPDEST PUSH4 0x4E487B71 PUSH1 0xE0 SHL PUSH0 MSTORE PUSH1 0x11 PUSH1 0x4 MSTORE PUSH1 0x24 PUSH0 REVERT INVALID LOG2 PUSH5 0x6970667358 0x22 SLT KECCAK256 PUSH9 0x911274F84DFA42B2BC SWAP10 PUSH5 0x53F2014CC1 LOG3 PUSH26 0xA28A7AECD8A31B286D36E3ED0364736F6C634300081E00330000 "
		},
		"gasEstimates": {
			"creation": {
				"codeDepositCost": "379000",
				"executionCost": "infinite",
				"totalCost": "infinite"
			},
			"external": {
				"renderSVG(uint16,uint8,uint256)": "infinite"
			}
		},
		"methodIdentifiers": {
			"renderSVG(uint16,uint8,uint256)": "7d134433"
		}
	},
	"abi": [
		{
			"inputs": [
				{
					"internalType": "contract IAssets",
					"name": "assetsContract",
					"type": "address"
				}
			],
			"stateMutability": "nonpayable",
			"type": "constructor"
		},
		{
			"inputs": [
				{
					"internalType": "uint16",
					"name": "tokenIdSeed",
					"type": "uint16"
				},
				{
					"internalType": "uint8",
					"name": "backgroundIndex",
					"type": "uint8"
				},
				{
					"internalType": "uint256",
					"name": "globalSeed",
					"type": "uint256"
				}
			],
			"name": "renderSVG",
			"outputs": [
				{
					"internalType": "string",
					"name": "svg",
					"type": "string"
				},
				{
					"internalType": "string",
					"name": "attributes",
					"type": "string"
				}
			],
			"stateMutability": "view",
			"type": "function"
		}
	]
}