{
	"data": {
		"bytecode": {
			"linkReferences": {},
			"object": "60c0604052346100fd57615cd58038038061001981610115565b928339810160a0828203126100fd578151916100348361013a565b602081015160408201516060830151608084015190939192916001600160401b0382116100fd57019484601f870112156100fd578551946001600160401b038611610101578560051b9660208061008c818b01610115565b8099815201988201019182116100fd57602001965b8188106100e35750506100b49550610536565b60405161539590816109208239608051818181611b4b0152613272015260a05181818161181401526128900152f35b6020809189516100f28161013a565b8152019701966100a1565b5f80fd5b634e487b7160e01b5f52604160045260245ffd5b6040519190601f01601f191682016001600160401b0381118382101761010157604052565b6001600160a01b038116036100fd57565b6101556040610115565b90600582526452504e4b5360d81b6020830152565b6101746040610115565b90600d82526c5072656461746f7220426c756560981b6020830152565b61019b6040610115565b90600e82526d283932b230ba37b91023b932b2b760911b6020830152565b6101c36040610115565b90600c82526b141c9959185d1bdc8814995960a21b6020830152565b6101e96040610115565b90600b82526a53616e746120436c61757360a81b6020830152565b61020e6040610115565b90600c82526b536861646f77204e696e6a6160a01b6020830152565b6102346040610115565b906009825268151a194811195d9a5b60ba1b6020830152565b6102576040610115565b90600c82526b151a1948141bdc9d1c985a5d60a21b6020830152565b90600182811c921680156102a1575b602083101461028d57565b634e487b7160e01b5f52602260045260245ffd5b91607f1691610282565b5f5b8281106102b957505050565b5f828201556001016102ad565b601f81116102d2575050565b8181116102dd575050565b60025f52610314915f516020615cb55f395f51905f5291601f820160051c91602011610316575b601f82910160051c0391016102ab565b565b5f9150610304565b91601f821161032c57505050565b80821161033857505050565b610314925f5260205f20916020601f830160051c921061031657601f82910160051c0391016102ab565b80519091906001600160401b0381116101015761038b81610384600354610273565b600361031e565b602092601f82116001146103cb576103bb929382915f926103c0575b50508160011b915f199060031b1c19161790565b600355565b015190505f806103a7565b60035f52601f198216937fc2575a0e9e593c00f959f8c92f12db2869c3395a3b0502d05e2516446f71f85b915f5b86811061042f5750836001959610610417575b505050811b01600355565b01515f1960f88460031b161c191690555f808061040c565b919260206001819286850151815501940192016103f9565b6017905f905b6007821061045a57505050565b80518051906001600160401b038211610101576104818261047b8754610273565b8761031e565b602090601f83116001146104c657926104b7836001959460209487965f926103c05750508160011b915f199060031b1c19161790565b86555b0193019101909161044d565b90601f198316916104da875f5260205f2090565b925f5b81811061051e5750936020936001969387969383889510610506575b505050811b0186556104ba565b01515f1960f88460031b161c191690555f80806104f9565b929360206001819287860151815501950193016104dd565b909161064d926105726103149661054d6040610115565b600a815269526574726f50756e6b7360b01b602082015261056c61014b565b90610652565b6013805461ffff60a81b1916607d60ab1b17905561059560ff1960165416601655565b6105a561ff001960165416601655565b6105b662ff00001960165416601655565b6106206105c360e0610115565b6105cb61016a565b81526105d5610191565b60208201526105e26101b9565b60408201526105ef6101df565b60608201526105fc610204565b608082015261060961022a565b60a082015261061661024d565b60c0820152610447565b60805260a05260138054610100600160a81b03191660089290921b610100600160a81b0316919091179055565b600c55565b805190939291906001600160401b0381116101015761067b81610676600254610273565b6102c6565b6020601f82116001146107a65790806106ae926106b69596975f926103c05750508160011b915f199060031b1c19161790565b600255610362565b6106bf60015f55565b6106c76108c7565b80515f5b8181106107575750506106dd90610842565b7f867006957979daa4aa88eb4157c1262555f712bc61ec3d0046c5a49a2c190b456040517fd7aca75208b9be5ffc04c6a01922020ffd62b55e68e502e317f5344960279af85f80a1610737600160ff196013541617601355565b8061075261074760135460ff1690565b151582526020820190565b0390a1565b806107a061079361077a61076d6001958861081a565b516001600160a01b031690565b6001600160a01b03165f90815260116020526040902090565b805460ff19166001179055565b016106cb565b60025f52601f198216955f516020615cb55f395f51905f52965f5b8181106108025750916106b6959697918460019594106107ea575b505050811b01600255610362565b01515f1960f88460031b161c191690555f80806107dc565b838301518955600190980197602093840193016107c1565b805182101561082e5760209160051b010190565b634e487b7160e01b5f52603260045260245ffd5b8051906001600160401b0382116101015768010000000000000000821161010157602090601254836012558084106108ab575b500160125f5260205f205f5b83811061088e5750505050565b82516001600160a01b031682820155602090920191600101610881565b6108c19060125f528480855f20019103906102ab565b5f610875565b303b61091157600a8054336001600160a01b0319821681179092556001600160a01b03167f8be0079c531659141344cd1fd0a4f28419497f9722a3daafe3b4186f6b6457e05f80a3565b62dc149f60e41b5f5260045ffdfe60806040526004361015610011575f80fd5b5f3560e01c806301ffc9a71461046457806306fdde031461045f57806307aafa981461045a578063081812fc14610455578063095ea7b314610450578063098144d41461044b578063099b6bfa146104465780630d705df6146104415780630d9d713b1461043c57806318160ddd146104375780631b73593c146104325780631dbd73901461042d57806323452b9c1461042857806323b872dd146104235780632a55205a1461041e5780633680620d1461041957806342260b5d1461041457806342842e0e1461040f57806342966c681461040a57806344dae42c146104055780634563f30a14610400578063484b973c146103fb57806348a4c101146103f6578063511aa644146103f157806355f804b3146103ec57806356d3163d146103e75780635743bdff146103e257806360c308b6146103dd5780636352211e146103d857806364869dad146103d357806364f101f0146103ce57806366251b69146103c95780636c0360eb146103c45780636f8b44b0146103bf57806370a08231146103ba578063715018a6146103b557806373c5643a146103b057806374e4f5af146103ab57806379ba5097146103a65780637a05bc82146103a15780637bc2be761461039c578063840e15d414610397578063853b3b4c146103925780638ada6b0f1461038d5780638da5cb5b14610388578063911f456b14610383578063938e3d7b1461037e5780639559a5d91461037957806395d89b411461037457806399c5def31461036f5780639b7406a51461036a578063a22cb46514610365578063a483011414610360578063a9fc664e1461035b578063ad2f852a14610356578063b88d4fde14610351578063c6ab67a31461034c578063c87b56dd14610347578063cb743ba814610342578063cdb0e89e1461033d578063d5abeb0114610338578063d74b685714610333578063db846dbe1461032e578063e8a3d48514610329578063e985e9c514610324578063f2fde38b1461031f578063f4cc71051461031a578063f598f1da146103155763fe97b57614610310575f80fd5b61341d565b613295565b61325b565b6131d7565b6131b4565b61310f565b613097565b612ef8565b612edb565b612c86565b612bf5565b612b45565b612b28565b612ac6565b612a4d565b6129a8565b612959565b6128b3565b612879565b61285c565b6127b7565b612792565b61264e565b611c35565b611c0d565b611be1565b611af9565b611a9f565b611a0e565b61198b565b6118da565b6118b5565b6117b4565b611759565b6116ff565b611660565b6115bb565b611550565b611504565b611475565b611446565b6113eb565b6113c7565b61132d565b6111e3565b6110e3565b610f20565b610e21565b610dff565b610d1d565b610bbc565b610b98565b610b78565b610ad8565b610a89565b610a77565b6109f5565b6109d3565b610943565b61091f565b6108bd565b61087b565b61080e565b6107e6565b610723565b6106c3565b6106a6565b6105d0565b61047f565b6001600160e01b031981160361047b57565b5f80fd5b3461047b57602036600319011261047b576104d460043561049f81610469565b63ffffffff60e01b16630c487f4760e11b811490811561057d575b81156104d8575b5060405190151581529081906020820190565b0390f35b63152a902d60e11b81149150811561056c575b811561055b575b811561054a575b8115610507575b505f6104c1565b6301ffc9a760e01b811491508115610539575b8115610528575b505f610500565b635b5e139f60e01b1490505f610521565b6380ac58cd60e01b8114915061051a565b632483248360e11b811491506104f9565b63503e914d60e11b811491506104f2565b632b435fdb60e21b811491506104eb565b639c15441560e01b811491506104ba565b5f91031261047b57565b805180835260209291819084018484015e5f828201840152601f01601f1916010190565b9060206105cd928181520190610598565b90565b3461047b575f36600319011261047b576040515f6002546105f081612fc1565b80845290600181169081156106825750600114610624575b6104d48361061881850382610fe5565b604051918291826105bc565b60025f9081527f405787fa12a823e0f2b7631cc41b3ba8828b3321ca811111fa75cd3aa3bb5ace939250905b80821061066857509091508101602001610618610608565b919260018160209254838588010152019101909291610650565b60ff191660208086019190915291151560051b840190910191506106189050610608565b3461047b575f36600319011261047b576020601454604051908152f35b3461047b57602036600319011261047b576004356106e0816142a6565b15610703575f526006602052602060018060a01b0360405f205416604051908152f35b6333d1c03960e21b5f5260045ffd5b6001600160a01b0381160361047b57565b604036600319011261047b5760043561073b81610712565b6024359060ff601354166107d7576001600160a01b0361075a836143b5565b16908133036107ba575b5f83815260066020526040902080546001600160a01b0319166001600160a01b0383161790556001600160a01b0316907f8c5be1e5ebec7d5bd14f71427d1e84f3dd0314c0f7b2291e5b200ac8c7c3b9255f80a4005b6107c4338361424d565b610764576367d9dca160e11b5f5260045ffd5b636ab17e0560e01b5f5260045ffd5b3461047b575f36600319011261047b576009546040516001600160a01b039091168152602090f35b3461047b57602036600319011261047b5760043561082a614349565b5f545f190161086c5760407f7c22004198bf87da0f0dab623c72e66ca1200f4454aa3b9ca30f436275428b7c91600f549080600f5582519182526020820152a1005b63e03264af60e01b5f5260045ffd5b3461047b575f36600319011261047b576040805163657711f560e11b81525f6020820152f35b60243590811515820361047b57565b3590811515820361047b57565b3461047b57602036600319011261047b5760043580151580910361047b5760207f867006957979daa4aa88eb4157c1262555f712bc61ec3d0046c5a49a2c190b4591610907614370565b60ff196013541660ff821617601355604051908152a1005b3461047b575f36600319011261047b575f54600154602091035f1901604051908152f35b3461047b575f60e036600319011261047b5760043561096181610712565b60c036602319011261047b57610975614349565b61097e81614384565b6001600160a01b0316803b1561047b575f809160c4604051809481936301308e6560e01b83526109b060048401613453565b5af180156109ce576109c0575080f35b6109cc91505f90610fe5565b005b6134e1565b3461047b575f36600319011261047b57602060ff601654166040519015158152f35b3461047b575f36600319011261047b57610a0d614370565b6001600160601b0360a01b600b5416600b557f11a3cf439fb225bfe74225716b6774765670ec1060e3796802e62139d69974da60206040515f8152a1005b606090600319011261047b57600435610a6381610712565b90602435610a7081610712565b9060443590565b6109cc610a8336610a4b565b916134ec565b3461047b57604036600319011261047b576024356010548060a01c91828102928184041490151715610ad357604080516001600160a01b0390921682526127109092046020820152f35b61365b565b3461047b575f604036600319011261047b57600435610af681610712565b602435906001600160401b03821161047b576060600319833603011261047b57610b1e614349565b610b2781614384565b6001600160a01b0316803b1561047b57610b665f9291839260405194858094819363ebb4a55f60e01b83526020600484015260248301906004016136c0565b03925af180156109ce576109c0575080f35b3461047b575f36600319011261047b57602060105460a01c604051908152f35b6109cc610ba436610a4b565b9060405192610bb4602085610fe5565b5f84526141fb565b3461047b57602036600319011261047b57600435610bd9816143b5565b5f8281526006602052604090208054916001600160a01b03811691338084149085141715610c06565b1590565b610d06575b5f93610c178685614420565b610cfd575b506001600160a01b0382165f90815260056020526040902080546fffffffffffffffffffffffffffffffff0190556001600160a01b0382164260a01b17600360e01b17610c71855f52600460205260405f2090565b55600160e11b811615610cb8575b507fddf252ad1be2c89b69c2b068fc378daa952ba7f163c4a11628f55a4df523b3ef8280a46109cc610cb360015460010190565b600155565b60018401610cce815f52600460205260405f2090565b5415610cdb575b50610c7f565b83548114610cd557610cf5905f52600460205260405f2090565b555f80610cd5565b8390555f610c1c565b610d13610c02338561424d565b15610c0b576142f1565b3461047b57604036600319011261047b57610d36614349565b600435610d4281610712565b6001600160a01b031615610df0576127106001600160601b03610d63613795565b1611610dcd57610d716137ab565b7ff21fccf4d64d86d532c4e4eb86c007b6ad57a460c27d724188625e755ec6cf6d610d9a61377f565b610da2613795565b604080516001600160a01b0390931683526001600160601b039091166020830152819081015b0390a1005b6001600160601b03610ddd613795565b633cadbafb60e01b5f521660045260245ffd5b631cc0baef60e01b5f5260045ffd5b3461047b575f36600319011261047b57602060ff601354166040519015158152f35b3461047b57604036600319011261047b57600435610e3e81610712565b602435610e49614370565b3068929eee149b4bd212685414610ede573068929eee149b4bd21268556013549161ffff8360a81c16828110610ecf5761ffff831690039261ffff8411610ad35761ffff60a81b191660a89390931b61ffff60a81b1692909217601355610ec191610eb382614597565b610ebc826145dd565b61464b565b3868929eee149b4bd2126855005b630651450360e51b5f5260045ffd5b63ab143c065f526004601cfd5b606090600319011261047b57600435610f0381610712565b90602435610f1081610712565b90604435801515810361047b5790565b3461047b57610f2e36610eeb565b9091610f38614349565b610f4181614384565b6001600160a01b031691823b1561047b57604051638e7d1e4360e01b81526001600160a01b03909116600482015290151560248201525f81604481015b93818381819703925af180156109ce576109c0575080f35b634e487b7160e01b5f52604160045260245ffd5b60e081019081106001600160401b03821117610fc557604052565b610f96565b608081019081106001600160401b03821117610fc557604052565b90601f801991011681019081106001600160401b03821117610fc557604052565b60405190611015608083610fe5565b565b604435906001600160501b038216820361047b57565b35906001600160501b038216820361047b57565b6064359062ffffff8216820361047b57565b359062ffffff8216820361047b57565b6084359064ffffffffff8216820361047b57565b60a4359064ffffffffff8216820361047b57565b60c4359064ffffffffff8216820361047b57565b359064ffffffffff8216820361047b57565b60e4359061ffff8216820361047b57565b610104359061ffff8216820361047b57565b359061ffff8216820361047b57565b3461047b5761012036600319011261047b5760043561110181610712565b6024359061110e82610712565b60e036604319011261047b576109cc916040519161112b83610faa565b611133611017565b835261113d611041565b602084015261114a611063565b6040840152611157611077565b606084015261116461108b565b60808401526111716110b1565b60a084015261117e6110c2565b60c0840152613881565b9181601f8401121561047b578235916001600160401b03831161047b576020838186019501011161047b57565b602060031982011261047b57600435906001600160401b03821161047b576111df91600401611188565b9091565b3461047b576111f1366111b5565b6111f9614349565b6001600160401b038111610fc55761121b81611216600d54612fc1565b613910565b5f601f82116001146112ae578190611248935f926112a3575b50508160011b915f199060031b1c19161790565b600d555b5f5460015490035f19015b61125d57005b7f6bd5c950a8d8df17f772f5af37cb3655737899cbf903264b9795592da439661c610dc861128b5f54613ad9565b60405191829182919060206040840193600181520152565b013590505f80611234565b600d5f52601f198216927fd7b6990105719101dabeb77144f2a3385c8033acd3af97e9423a695e81ad1eb5915f5b858110611315575083600195106112fc575b505050811b01600d5561124c565b01355f19600384901b60f8161c191690555f80806112ee565b909260206001819286860135815501940191016112dc565b3461047b57602036600319011261047b5760043561134a81610712565b611352614370565b60138054610100600160a81b03191660089290921b610100600160a81b03169190911790555f5460015490035f190161138757005b5f545f198101908111610ad35760407f6bd5c950a8d8df17f772f5af37cb3655737899cbf903264b9795592da439661c91815190600182526020820152a1005b3461047b575f36600319011261047b57602061ffff60135460a81c16604051908152f35b3461047b57602036600319011261047b576004356001600160401b03811161047b573660238201121561047b5780600401356001600160401b03811161047b573660248260051b8401011161047b5760246109cc9201613af4565b3461047b57602036600319011261047b5760206001600160a01b0361146c6004356143b5565b16604051908152f35b3461047b57604036600319011261047b5760043561149281610712565b6024353068929eee149b4bd212685414610ede573068929eee149b4bd21268556114bb33614384565b5f545f190191818301809311610ad357600c548093116114df57610ec1925061464b565b505f545f1901908101809111610ad35763384b48c560e21b5f5260045260245260445ffd5b3461047b575f36600319011261047b5761151c614370565b6016805460ff19166001179055005b604090600319011261047b5760043561154381610712565b906024356105cd81610712565b3461047b5761155e3661152b565b90611567614349565b61157081614384565b6001600160a01b0316803b1561047b5760405163024e71b760e31b81526001600160a01b0390921660048301525f919082908290602490829084905af180156109ce576109c0575080f35b3461047b575f36600319011261047b576040515f600d546115db81612fc1565b80845290600181169081156106825750600114611602576104d48361061881850382610fe5565b600d5f9081527fd7b6990105719101dabeb77144f2a3385c8033acd3af97e9423a695e81ad1eb5939250905b80821061164657509091508101602001610618610608565b91926001816020925483858801015201910190929161162e565b3461047b57602036600319011261047b5760043561167c614370565b5f545f1901600c54116116f0575f545f190181106116e1576020817f7810bd47de260c3e9ee10061cf438099dd12256c79485f12f94dbccc981e806c92600c5560ff60165460101c166116d3575b604051908152a1005b6116dc8161489c565b6116ca565b639cf1dee560e01b5f5260045ffd5b63029b63e160e31b5f5260045ffd5b3461047b57602036600319011261047b5760043561171c81610712565b6001600160a01b0316801561174a575f52600560205260206001600160401b0360405f205416604051908152f35b6323d3ad8160e21b5f5260045ffd5b3461047b575f36600319011261047b57611771614370565b600a80546001600160a01b031981169091555f906001600160a01b03167f8be0079c531659141344cd1fd0a4f28419497f9722a3daafe3b4186f6b6457e08280a3005b3461047b57604036600319011261047b576004356024356117d3614370565b60ff60165460101c166118a65760405161180f81611801602082019486869091604092825260208201520190565b03601f198101835282610fe5565b5190207f00000000000000000000000000000000000000000000000000000000000000000361189757610dc8816118667f6c2137e80722ed4b518b32ea50ecb69ef2c76f0451088a3c0aa79ce523bab51493601555565b61187c6201000060165462ff0000191617601655565b611887600c5461489c565b6040519081529081906020820190565b633bdfc85960e11b5f5260045ffd5b631104d35360e11b5f5260045ffd5b3461047b575f36600319011261047b57602060ff60165460101c166040519015158152f35b3461047b575f36600319011261047b57600b546001600160a01b038116903382900361197c576001600160601b0360a01b16600b557f11a3cf439fb225bfe74225716b6774765670ec1060e3796802e62139d69974da60206040515f8152a1600a80546001600160a01b0319811683179091556001600160a01b03167f8be0079c531659141344cd1fd0a4f28419497f9722a3daafe3b4186f6b6457e05f80a3005b636b7584e760e11b5f5260045ffd5b3461047b575f604036600319011261047b576004356119a981610712565b6024356001600160401b03811161047b576119c8903690600401611188565b916119d1614349565b6119da81614384565b6001600160a01b031691823b1561047b57610b66925f928360405180968195829463b957d0cb60e01b845260048401613bfb565b3461047b575f61014036600319011261047b57600435611a2d81610712565b60243590611a3a82610712565b61010036604319011261047b57611a4f614349565b611a5881614384565b6001600160a01b031690813b1561047b57604051637ecd591560e11b81526001600160a01b039091166004820152905f90829061012490829084906109b060248401613c2b565b3461047b57602036600319011261047b57600435611abc81610712565b60018060a01b03165f52600560205260606001600160401b0360405f205460401c165f195f5401600c549060405192835260208301526040820152f35b3461047b57604036600319011261047b57600435602435611b18614370565b60165460081c60ff16611bd257604051611b4681611801602082019486869091604092825260208201520190565b5190207f000000000000000000000000000000000000000000000000000000000000000003611bc357611bb181611b9d7f07bccb191591b7e41b276df97ebf2cbb27e85e20fa7db7d336d3a9738021466f93601455565b61188761010061ff00196016541617601655565b0390a15f5460015490035f1901611257565b63148bb88160e31b5f5260045ffd5b6318ed71cd60e01b5f5260045ffd5b3461047b575f36600319011261047b5760135460405160089190911c6001600160a01b03168152602090f35b3461047b575f36600319011261047b57600a546040516001600160a01b039091168152602090f35b3461047b57602036600319011261047b576004356001600160401b03811161047b578060040190610300600319823603011261047b57611c73614370565b81358061260a575b5060248101611c8a8184613ced565b90506125b1575b5060448101611ca08184613ced565b9050612558575b50600165ffffffffffff611cbd60a48401613d1f565b161515611cda611ccf60c48501613d1f565b65ffffffffffff1690565b151517146124f6575b6101448101611cf28184613ced565b9050612492575b506101648101611d098184613de2565b3561242d575b5061018481016001600160a01b03611d268261378b565b166123c4575b506101a481013580612380575b506101c48101611d498184613e19565b90506122dd575b506101e48101611d608184613e19565b905061223a575b506102048101611d778184613e19565b9050612197575b506102248101611d8e8184613e19565b90506120f4575b506102648101611da58184613e72565b9050612016575b506102848101611dbc8184613e19565b9050611f77575b506102c48101611dd38184614090565b9050611e99575b506102e4810191611deb8382613e19565b9050611df357005b60645f939201925b611e058383613e19565b90508110156109cc57611e1661419d565b90611e208561378b565b611e3c611e3783611e318888613e19565b90613e62565b61378b565b303b1561047b575f91611e636040519586938493631446a99160e21b8552600485016141d3565b038183305af19182156109ce57600192611e7f575b5001611dfb565b80611e8d5f611e9393610fe5565b8061058e565b5f611e78565b611ea38184614090565b6102a48401929150611eb58386613e19565b91905003611f6857606483015f5b611ecd8387614090565b9050811015611f5e57611edf8261378b565b90611ef1611e3782611e31888b613e19565b91611f0682611f00878b614090565b906140c5565b92303b1561047b575f91611f2e6040519586938493631446a99160e21b8552600485016140d5565b038183305af19182156109ce57600192611f4a575b5001611ec3565b80611e8d5f611f5893610fe5565b5f611f43565b505050505f611dda565b6374ef6df760e01b5f5260045ffd5b6064820192905f5b611f898284613e19565b905081101561200c57611f9a613f9c565b90611fa48661378b565b611fb5611e3783611e318789613e19565b303b1561047b575f91611fdc6040519586938493633de15f3b60e11b855260048501613fe9565b038183305af19182156109ce57600192611ff8575b5001611f7f565b80611e8d5f61200693610fe5565b5f611ff1565b505091505f611dc3565b6120208184613e72565b61024484019291506120328386613e19565b919050036120e557606483015f5b61204a8387613e72565b90508110156120db5761205c8261378b565b9061206e611e3782611e31888b613e19565b916120838261207d878b613e72565b90613ea7565b92303b1561047b575f916120ab6040519586938493633de15f3b60e11b855260048501613eb7565b038183305af19182156109ce576001926120c7575b5001612040565b80611e8d5f6120d593610fe5565b5f6120c0565b505050505f611dac565b63b81aa63960e01b5f5260045ffd5b606482015f5b6121048386613e19565b905081101561218e576121168261378b565b90612128611e3782611e31878a613e19565b91303b1561047b5760405163196e877560e31b81526001600160a01b039182166004820152921660248301525f604483018190528260648183305af19182156109ce5760019261217a575b50016120fa565b80611e8d5f61218893610fe5565b5f612173565b5050505f611d95565b606482015f5b6121a78386613e19565b9050811015612231576121b98261378b565b906121cb611e3782611e31878a613e19565b91303b1561047b5760405163196e877560e31b81526001600160a01b03918216600482015292166024830152600160448301525f8260648183305af19182156109ce5760019261221d575b500161219d565b80611e8d5f61222b93610fe5565b5f612216565b5050505f611d7e565b606482015f5b61224a8386613e19565b90508110156122d45761225c8261378b565b9061226e611e3782611e31878a613e19565b91303b1561047b576040516348a4c10160e01b81526001600160a01b039182166004820152921660248301525f604483018190528260648183305af19182156109ce576001926122c0575b5001612240565b80611e8d5f6122ce93610fe5565b5f6122b9565b5050505f611d67565b606482015f5b6122ed8386613e19565b9050811015612377576122ff8261378b565b90612311611e3782611e31878a613e19565b91303b1561047b576040516348a4c10160e01b81526001600160a01b03918216600482015292166024830152600160448301525f8260648183305af19182156109ce57600192612363575b50016122e3565b80611e8d5f61237193610fe5565b5f61235c565b5050505f611d50565b303b1561047b576040516304cdb5fd60e11b815260048101919091525f8160248183305af180156109ce5715611d395780611e8d5f6123be93610fe5565b5f611d39565b6123d96123d36064840161378b565b9161378b565b90303b1561047b576040516366251b6960e01b81526001600160a01b039182166004820152911660248201525f8160448183305af180156109ce5715611d2c5780611e8d5f61242793610fe5565b5f611d2c565b61244361243c6064840161378b565b9184613de2565b90303b1561047b57604051633680620d60e01b8152915f918391829161246d919060048401613df7565b038183305af180156109ce5715611d0f5780611e8d5f61248c93610fe5565b5f611d0f565b6124a86124a16064840161378b565b9184613ced565b9190303b1561047b575f916124d16040519485938493633d02de4160e11b855260048501613dc0565b038183305af180156109ce5715611cf95780611e8d5f6124f093610fe5565b5f611cf9565b6125026064820161378b565b303b1561047b575f61252d91604051809381926306dcd64f60e21b8352608487019060048401613d29565b038183305af180156109ce57612544575b50611ce3565b80611e8d5f61255293610fe5565b5f61253e565b6125629083613ced565b90303b1561047b5760405163938e3d7b60e01b8152915f918391829161258c919060048401613bfb565b038183305af180156109ce5715611ca75780611e8d5f6125ab93610fe5565b5f611ca7565b6125bb9083613ced565b90303b1561047b576040516355f804b360e01b8152915f91839182916125e5919060048401613bfb565b038183305af180156109ce5715611c915780611e8d5f61260493610fe5565b5f611c91565b303b1561047b576040516306f8b44b60e41b815260048101919091525f8160248183305af180156109ce5715611c7b5780611e8d5f61264893610fe5565b5f611c7b565b3461047b5761265c366111b5565b612664614349565b6001600160401b038111610fc55761268681612681600e54612fc1565b613979565b5f91601f82116001146126f2576126d482807f905d981207a7d0b6c62cc46ab0be2a076d0298e4a86d0ab79882dbd01ac37378955f916126e7575b508160011b915f199060031b1c19161790565b600e555b610dc860405192839283613bfb565b90508301355f6126c1565b600e5f52601f1982167fbb7b4a454dc3493923482f07822329ed19e8244eff582cc204f8554c3620c3fd905f5b81811061277a575093837f905d981207a7d0b6c62cc46ab0be2a076d0298e4a86d0ab79882dbd01ac373789510612761575b5050600182811b01600e556126d8565b8201355f19600385901b60f8161c191690555f80612751565b8386013583556020958601956001909301920161271f565b3461047b575f36600319011261047b57602060ff60165460081c166040519015158152f35b3461047b575f36600319011261047b576040515f6003546127d781612fc1565b808452906001811690811561068257506001146127fe576104d48361061881850382610fe5565b60035f9081527fc2575a0e9e593c00f959f8c92f12db2869c3395a3b0502d05e2516446f71f85b939250905b80821061284257509091508101602001610618610608565b91926001816020925483858801015201910190929161282a565b3461047b575f36600319011261047b576020601554604051908152f35b3461047b575f36600319011261047b5760206040517f00000000000000000000000000000000000000000000000000000000000000008152f35b3461047b57604036600319011261047b576004356128d081610712565b6128d86108a1565b9060ff601354166107d757335f52600760205261291d8261290c8360405f209060018060a01b03165f5260205260405f2090565b9060ff801983541691151516179055565b60405191151582526001600160a01b03169033907f17307eab39ab6107e8899845ad3d59bd9653f200f220920489ca2b5937696c3190602090a3005b3461047b57604036600319011261047b577f6bd5c950a8d8df17f772f5af37cb3655737899cbf903264b9795592da439661c604060043560243561299b614349565b82519182526020820152a1005b3461047b57602036600319011261047b576004356129c581610712565b6129cd614370565b600954906001600160a01b03808316908216808214612a3e576001600160a01b031993909316909217600955604080516001600160a01b0393841681529190921660208201527fcc5dc080ff977b3c3a211fa63ab74f90f658f5ba9d3236e92c8f59570f442aac9181908101610dc8565b63251dd8cf60e11b5f5260045ffd5b3461047b575f36600319011261047b576010546040516001600160a01b039091168152602090f35b6001600160401b038111610fc557601f01601f191660200190565b929192612a9c82612a75565b91612aaa6040519384610fe5565b82948184528183011161047b578281602093845f960137010152565b608036600319011261047b57600435612ade81610712565b60243590612aeb82610712565b604435606435926001600160401b03841161047b573660238501121561047b57612b226109cc943690602481600401359101612a90565b926141fb565b3461047b575f36600319011261047b576020600f54604051908152f35b3461047b57602036600319011261047b57600435612b62816142a6565b15612be657610618816104d4925f52601e60205260405f2060405190612b8782610fca565b80549061ffff8216835260ff602084019260101c168252612bda612bd2612bc36002612bb560018601612ff9565b946040880195865201612ff9565b948560608201525161ffff1690565b925160ff1690565b90519160145494614c3a565b634a1850bf60e11b5f5260045ffd5b3461047b57612c0336610eeb565b9091612c0d614349565b612c1681614384565b6001600160a01b031691823b1561047b57604051633f952e6560e11b81526001600160a01b03909116600482015290151560248201525f8160448101610f7e565b90604060031983011261047b5760043591602435906001600160401b03821161047b576111df91600401611188565b3461047b57612c9436612c57565b9190612c9f82614d45565b612ca882614d6f565b612cb3368483612a90565b9182518015159081612ecf575b5015612ec0575f5b8351811015612e3757612cfc612cef612ce1838761423c565b516001600160f81b03191690565b6001600160f81b03191690565b600360fc1b8110159081612e28575b8115612e04575b8115612de0575b8115612d3d575b5015612d2e57600101612cc8565b63a23ef83b60e01b5f5260045ffd5b600160fd1b811491508115612dd2575b8115612dc4575b8115612db6575b8115612da8575b8115612d9a575b8115612d8c575b8115612d7e575b505f612d20565b602760f81b1490505f612d77565b601360f91b81149150612d70565b605f60f81b81149150612d69565b603f60f81b81149150612d62565b601760f91b81149150612d5b565b602d60f81b81149150612d54565b602160f81b81149150612d4d565b9050606160f81b81101580612df6575b90612d19565b50603d60f91b811115612df0565b9050604160f81b81101580612e1a575b90612d12565b50602d60f91b811115612e14565b603960f81b8111159150612d0b565b507f27fac8f362f0993df8069600bac492702d7c0d77d65545716bf8b7acd95f0214612ebb85612e7c81866001612e76885f52601e60205260405f2090565b01613a1d565b6040518481527ff8e1a15aba9398e019f0b49df1a4fde98ee17ae345cb5f6b5e2c27f5033e8ce79080602081015b0390a1604051918291339683613bfb565b0390a3005b634e9a61e560e11b5f5260045ffd5b6020915011155f612cc0565b3461047b575f36600319011261047b576020600c54604051908152f35b3461047b57604036600319011261047b57600435602435612f1882614d45565b612f2182614d6f565b6013811015612fb257612f5e60ff8216612f43845f52601e60205260405f2090565b9062ff000060ff8354921660101b169062ff00001916179055565b6040518281527ff8e1a15aba9398e019f0b49df1a4fde98ee17ae345cb5f6b5e2c27f5033e8ce790602090a133917f717ea6d16cd5b1adadf0580bb4b4ebbe47b8329c34ae1d20b2a3505b0b45121b5f80a4005b63acce9f5760e01b5f5260045ffd5b90600182811c92168015612fef575b6020831014612fdb57565b634e487b7160e01b5f52602260045260245ffd5b91607f1691612fd0565b9060405191825f82549261300c84612fc1565b80845293600181169081156130755750600114613031575b5061101592500383610fe5565b90505f9291925260205f20905f915b818310613059575050906020611015928201015f613024565b6020919350806001915483858901015201910190918492613040565b90506020925061101594915060ff191682840152151560051b8201015f613024565b3461047b57602036600319011261047b576004355f52601e60205260ff60405f206104d48154916131016130d960026130d260018501612ff9565b9301612ff9565b91604051958561ffff889716875260101c166020860152608060408601526080850190610598565b908382036060850152610598565b3461047b575f36600319011261047b576040515f600e5461312f81612fc1565b80845290600181169081156106825750600114613156576104d48361061881850382610fe5565b600e5f9081527fbb7b4a454dc3493923482f07822329ed19e8244eff582cc204f8554c3620c3fd939250905b80821061319a57509091508101602001610618610608565b919260018160209254838588010152019101909291613182565b3461047b5760206131cd6131c73661152b565b9061424d565b6040519015158152f35b3461047b57602036600319011261047b576004356131f481610712565b6131fc614370565b6001600160a01b0316801561324c576020817f11a3cf439fb225bfe74225716b6774765670ec1060e3796802e62139d69974da926001600160601b0360a01b600b541617600b55604051908152a1005b633a247dd760e11b5f5260045ffd5b3461047b575f36600319011261047b5760206040517f00000000000000000000000000000000000000000000000000000000000000008152f35b3461047b576132a336612c57565b6132ae839293614d45565b6132b782614d6f565b60a0811161340e57815f52601e602052600260405f20016001600160401b038211610fc5576132f0826132ea8354612fc1565b836139d9565b5f601f83116001146133805791612ebb9161334182807fe78644effc819f3563f83a630f6e92fefaf026611f984bf562bcf606de15395f965f9161337557508160011b915f199060031b1c19161790565b90556040518481527ff8e1a15aba9398e019f0b49df1a4fde98ee17ae345cb5f6b5e2c27f5033e8ce7908060208101612eaa565b90508801355f6126c1565b601f19831690613393835f5260205f2090565b915f5b8181106133f6575091612ebb9391857fe78644effc819f3563f83a630f6e92fefaf026611f984bf562bcf606de15395f9694106133dd575b5050600182811b019055612e7c565b8701355f19600385901b60f8161c191690555f806133ce565b9192602060018192868b013581550194019201613396565b63a005982d60e01b5f5260045ffd5b3461047b575f36600319011261047b57602060405160018152f35b65ffffffffffff81160361047b57565b359061101582613438565b602435906001600160501b038216820361047b576001600160501b036110159216815265ffffffffffff60443561348981613438565b16602082015265ffffffffffff6064356134a281613438565b16604082015261ffff6134b560846110d4565b16606082015261ffff6134c860a46110d4565b16608082015260a06134da60c46108b0565b1515910152565b6040513d5f823e3d90fd5b91906134f7826143b5565b6001600160a01b0384811694908216859003613656575f8481526006602052604090208054919033808414908814171561363f575b61355a9261353b8787856144d0565b613636575b506001600160a01b03165f90815260056020526040902090565b80545f190190556001600160a01b0382165f908152600560205260409020805460010190556001600160a01b0382164260a01b17600160e11b176135a6845f52600460205260405f2090565b55600160e11b8116156135f1575b506001600160a01b03169182907fddf252ad1be2c89b69c2b068fc378daa952ba7f163c4a11628f55a4df523b3ef5f80a4156135ec57565b61430e565b60018301613607815f52600460205260405f2090565b5415613614575b506135b4565b5f54811461360e5761362e905f52600460205260405f2090565b555f8061360e565b5f90555f613540565b61364c610c02338461424d565b1561352c576142f1565b614300565b634e487b7160e01b5f52601160045260245ffd5b908060209392818452848401375f828201840152601f01601f1916010190565b9035601e198236030181121561047b5701602081359101916001600160401b03821161047b57813603831361047b57565b91906060810190833581526020840135601e198536030181121561047b57840193602085359501946001600160401b03811161047b578060051b93843603871361047b576060602085015281905292820160809081019386915f9085015b82821061374b57505050506105cd93945080604061373d92019061368f565b91604081850391015261366f565b9091929560208061377160019361376b8b8e607f198d850301895261368f565b9061366f565b98019201920190929161371e565b6004356105cd81610712565b356105cd81610712565b6024356001600160601b038116810361047b5790565b6004356137b781610712565b60018060a01b03166001600160601b0360a01b60105416176010556024356001600160601b038116810361047b57601080546001600160a01b031660a09290921b6001600160a01b031916919091179055565b9060c080611015936001600160501b03815116845262ffffff602082015116602085015264ffffffffff604082015116604085015264ffffffffff606082015116606085015264ffffffffff608082015116608085015261387660a082015160a086019061ffff169052565b015161ffff16910152565b613889614349565b61389281614384565b6001600160a01b031691823b1561047b576040516309a7002f60e31b81526001600160a01b03909216600483015290915f91839161010491839185916138dc90602485019061380a565b5af180156109ce576138eb5750565b5f61101591610fe5565b5f5b82811061390357505050565b5f828201556001016138f7565b601f811161391c575050565b818111613927575050565b600d5f52611015917fd7b6990105719101dabeb77144f2a3385c8033acd3af97e9423a695e81ad1eb591601f820160051c91602011613971575b601f82910160051c0391016138f5565b5f9150613961565b601f8111613985575050565b818111613990575050565b600e5f52611015917fbb7b4a454dc3493923482f07822329ed19e8244eff582cc204f8554c3620c3fd91601f820160051c9160201161397157601f82910160051c0391016138f5565b91601f82116139e757505050565b8082116139f357505050565b611015925f5260205f20916020601f830160051c921061397157601f82910160051c0391016138f5565b9092916001600160401b038111610fc557613a4281613a3c8454612fc1565b846139d9565b5f601f8211600114613a74578190613a709394955f926112a35750508160011b915f199060031b1c19161790565b9055565b601f19821694613a87845f5260205f2090565b915f5b878110613ac1575083600195969710613aa8575b505050811b019055565b01355f19600384901b60f8161c191690555f8080613a9e565b90926020600181928686013581550194019101613a8a565b5f19810191908211610ad357565b91908203918211610ad357565b9190613afe614370565b6012545f5b818110613b9a5750505f5b818110613b57575082613b43827fbbd3b69c138de4d317d0bc4290282c4e1cbd1e58b579a5b4f114b598c237454d94956147ba565b613b5260405192839283614855565b0390a1565b80613b94613b87613b6e611e37600195878a613e62565b6001600160a01b03165f90815260116020526040902090565b805460ff19166001179055565b01613b0e565b601254811015613bf65760125f527fbb8a6a4669ba250d26cd7a459eca9d215f8307e33aebe50379bc5a3617ec344481015460019190613bf090613be6906001600160a01b0316613b6e565b805460ff19169055565b01613b03565b613e4e565b9160206105cd93818152019161366f565b359060ff8216820361047b57565b359063ffffffff8216820361047b57565b604435906001600160501b038216820361047b576001600160501b036110159216815261ffff613c5b60646110d4565b16602082015265ffffffffffff608435613c7481613438565b166040820152613c96613c8760a4613448565b65ffffffffffff166060830152565b613cad613ca360c4613c0c565b60ff166080830152565b613cc7613cba60e4613c1a565b63ffffffff1660a0830152565b613ce0613cd56101046110d4565b61ffff1660c0830152565b60e06134da6101246108b0565b903590601e198136030182121561047b57018035906001600160401b03821161047b5760200191813603831361047b57565b356105cd81613438565b60c06134da60a061101594969560e0850197600180841b031685526001600160501b03613d558261102d565b16602086015265ffffffffffff6020820135613d7081613438565b16604086015265ffffffffffff6040820135613d8b81613438565b16606086015261ffff613da0606083016110d4565b16608086015261ffff613db5608083016110d4565b1682860152016108b0565b6001600160a01b0390911681526040602082018190526105cd9391019161366f565b903590605e198136030182121561047b570190565b6001600160a01b0390911681526040602082018190526105cd929101906136c0565b903590601e198136030182121561047b57018035906001600160401b03821161047b57602001918160051b3603831361047b57565b634e487b7160e01b5f52603260045260245ffd5b9190811015613bf65760051b0190565b903590601e198136030182121561047b57018035906001600160401b03821161047b57602001918160081b3603831361047b57565b9190811015613bf65760081b0190565b6001600160a01b03918216815291166020820152610140810192916110159190610120906134da9060e0906001600160501b03613ef38261102d565b16604086015261ffff613f08602083016110d4565b16606086015265ffffffffffff6040820135613f2381613438565b166080860152613f47613f3860608301613448565b65ffffffffffff1660a0870152565b613f60613f5660808301613c0c565b60ff1660c0870152565b613f7b613f6f60a08301613c1a565b63ffffffff1686840152565b613f96613f8a60c083016110d4565b61ffff16610100870152565b016108b0565b6040519061010082018281106001600160401b03821117610fc5576040525f60e0838281528260208201528260408201528260608201528260808201528260a08201528260c08201520152565b90939260e0610120916110159461014085019760018060a01b0316855260018060a01b031660208501526001600160501b03815116604085015261ffff602082015116606085015265ffffffffffff604082015116608085015261405c606082015160a086019065ffffffffffff169052565b608081015160ff1660c085015260a081015163ffffffff168483015260c081015161ffff1661010085015201511515910152565b903590601e198136030182121561047b57018035906001600160401b03821161047b576020019160e082023603831361047b57565b9190811015613bf65760e0020190565b6001600160a01b03918216815291166020820152610120810192916110159190610100906141949060c0906001600160501b036141118261102d565b16604086015262ffffff61412760208301611053565b16606086015264ffffffffff61413f6040830161109f565b16608086015264ffffffffff6141576060830161109f565b1660a086015264ffffffffff61416f6080830161109f565b168286015261418e61418360a083016110d4565b61ffff1660e0870152565b016110d4565b61ffff16910152565b604051906141aa82610faa565b5f60c0838281528260208201528260408201528260608201528260808201528260a08201520152565b6001600160a01b0391821681529116602082015261012081019291611015916040019061380a565b9291906142098282866134ec565b803b614216575b50505050565b61421f93614a0e565b1561422d575f808080614210565b6368d2bf6b60e11b5f5260045ffd5b908151811015613bf6570160200190565b6001600160a01b038216731e0049783f008a0085193e00003d00cd54003c711461429f576001600160a01b039081165f908152600760209081526040808320939094168252919091522060ff90541690565b5050600190565b905f9180600111156142b55750565b5f5481106142c05750565b9091505b805f52600460205260405f2054806142e557508015610ad3575f19016142c4565b600160e01b1615919050565b632ce44b5f60e11b5f5260045ffd5b62a1148160e81b5f5260045ffd5b633a954ecd60e21b5f5260045ffd5b636f96cda160e11b5f5260045ffd5b63b562e8dd60e01b5f5260045ffd5b622e076360e81b5f5260045ffd5b60018060a01b03600a54163314303314171561436157565b635fc483c560e01b5f5260045ffd5b600a546001600160a01b0316330361436157565b60018060a01b03165f526011602052600160ff60405f2054161515036143a657565b6315e26ff360e01b5f5260045ffd5b8060011161431d576143cf815f52600460205260405f2090565b549081156143e65750600160e01b811661431d5790565b90505f5481101561431d575b5f19015f818152600460205260409020549081156144195750600160e01b811661431d5790565b90506143f2565b6001600160a01b038116151580806144c4575b6107d757806144bd575b614445575050565b6009546001600160a01b0316918261445c57505050565b823b1561047b5760405163657711f560e11b81523360048201526001600160a01b039290921660248301525f6044830181905260648301919091529091829060849082905afa80156109ce576144af5750565b80611e8d5f61101593610fe5565b505f61443d565b5060ff60135416614433565b90916001600160a01b0382161515808061458b575b6107d75780614579575b6144f857505050565b6009546001600160a01b03168061450f5750505050565b803b1561047b5760405163657711f560e11b81523360048201526001600160a01b03938416602482015293909216604484015260648301525f90829060849082905afa80156109ce57614565575b808080614210565b80611e8d5f61457393610fe5565b5f61455d565b506001600160a01b03831615156144ef565b5060ff601354166144e5565b5f545f1982820181019291018210610ad357600c548092116145b7575050565b5f545f19918101820191018110610ad35763384b48c560e21b5f5260045260245260445ffd5b60ff60165460101c161561463c575f195f5401905f5b8181106145ff57505050565b80830190818411610ad3576001820191828111610ad357600c5492818611610ad35761463061463692600195613ae7565b90614faa565b016145f3565b63636402df60e01b5f5260045ffd5b916040519061465b602083610fe5565b5f825260ff601654166147ab5761467183614597565b61467a836145dd565b5f549183156147a6576001600160a01b0385164260a01b6001861460e11b17176146ac845f52600460205260405f2090565b556001600160a01b0385165f81815260056020526040902080546801000000000000000187020190559384156147a157808401939560015b15614717575b5f87875f7fddf252ad1be2c89b69c2b068fc378daa952ba7f163c4a11628f55a4df523b3ef8180a46146e4565b95600101958487036146ea575f859055929550909350915f1901600c541461478a575b803b61474557505050565b9091925f549283039260015b15614775575b5f61476a610c028760018801978761496f565b15614751575b61422d565b8084106147575792509250505f540361047b57565b61479c600160ff196016541617601655565b61473a565b61433b565b61432c565b6306ce844d60e01b5f5260045ffd5b6001600160401b038211610fc557680100000000000000008211610fc5576012548260125580831061481c575b5060125f5260205f205f5b8381106147ff5750505050565b600190602084359461481086610712565b019381840155016147f2565b60125f5261484f908390037fbb8a6a4669ba250d26cd7a459eca9d215f8307e33aebe50379bc5a3617ec344484016138f5565b5f6147e7565b60208082528101839052604001915f5b8181106148725750505090565b909192602080600192863561488681610712565b848060a01b031681520194019101919091614865565b63fffffffe5f19820110156148ed57601f546148e057601f5f81905260e09190911b7ba03837a25210ee280c2113ff4b77ca23440b19d4866cca7200000000179055565b630c9f11f25f526004601cfd5b6383b539415f526004601cfd5b9081602091031261047b57516105cd81610469565b6001600160a01b0391821681529116602082015260408101919091526080606082018190526105cd92910190610598565b3d1561496a573d9061495182612a75565b9161495f6040519384610fe5565b82523d5f602084013e565b606090565b91614996926020925f604051809681958294630a85bd0160e11b845284336004860161490f565b03926001600160a01b03165af15f91816149dd575b506149c7576149b8614940565b80511561477057805190602001fd5b6001600160e01b031916630a85bd0160e11b1490565b614a0091925060203d602011614a07575b6149f88183610fe5565b8101906148fa565b905f6149ab565b503d6149ee565b906020925f614996959360405196879586948593630a85bd0160e11b8552336004860161490f565b81601f8201121561047b57805190614a4d82612a75565b92614a5b6040519485610fe5565b8284526020838301011161047b57815f9260208093018386015e8301015290565b91909160408184031261047b5780516001600160401b03811161047b5783614aa5918301614a36565b9260208201516001600160401b03811161047b576105cd9201614a36565b805191908290602001825e015f815290565b90611015614af792604051938491602360f81b60208401526021830190614ac3565b03601f198101845283610fe5565b61101590614af7614b2d94936002604051968794602360f81b60208701526021860190614ac3565b6101d160f51b81520190614ac3565b614be5614b7895946024614ba5611015966002614b96819860116040519d8e9a683d913730b6b2911d1160b91b60208d015260298c0190614ac3565b701116113232b9b1b934b83a34b7b7111d1160791b81520190614ac3565b61088b60f21b81520190614ac3565b600b60fa1b81527f22696d616765223a22646174613a696d6167652f7376672b786d6c3b626173656001820152620d8d0b60ea1b60218201520190614ac3565b61227d60f01b815203601d19810185520183610fe5565b90611015614af7926040519384917f646174613a6170706c69636174696f6e2f6a736f6e3b6261736536342c0000006020840152603d830190614ac3565b9293945f91614c9d93614c67614c5b60135460018060a01b039060081c1690565b6001600160a01b031690565b9160405195869485938493637d13443360e01b85526004850160ff60409295949361ffff60608401971683521660208201520152565b03915afa80156109ce576105cd94614cfa94614cf5945f945f94614d17575b5090614cef9181516020830120614cda614cd58361511f565b614ad5565b60208151910120145f14614cff57509361527e565b92614b3c565b61527e565b614bfc565b90614d0c614d119261511f565b614b05565b9361527e565b614cef929550614d3a9194503d805f833e614d328183610fe5565b810190614a7c565b949094939091614cbc565b6001600160a01b0390614d57906143b5565b163303614d6057565b634143fbf960e01b5f5260045ffd5b5f52601e60205261ffff60405f20541660108110614d8a5750565b600711614d9357565b6303d0ecdf60e11b5f5260045ffd5b60405190614db1604083610fe5565b601c82527f4120526574726f50756e6b206c6976696e67206f6e2d636861696e2e000000006020830152565b91909182516001600160401b038111610fc557614dfe81613a3c8454612fc1565b6020601f8211600114614e38578190613a709394955f92614e2d5750508160011b915f199060031b1c19161790565b015190505f80611234565b601f19821690614e4b845f5260205f2090565b915f5b818110614e8457509583600195969710614e6c57505050811b019055565b01515f1960f88460031b161c191690555f8080613a9e565b9192602060018192868b015181550194019201614e4e565b81518154602084015162ff000060109190911b1661ffff90921662ffffff1990911617178155906001820160408201518051906001600160401b038211610fc557614ef182614eeb8554612fc1565b856139d9565b602090601f8311600114614f365792614f2a836060946110159897946002975f92614e2d5750508160011b915f199060031b1c19161790565b90555b01519101614ddd565b90601f19831691614f4a855f5260205f2090565b925f5b818110614f92575093611015979693600296936001938360609810614f7a575b505050811b019055614f2d565b01515f1960f88460031b161c191690555f8080614f6d565b92936020600181928786015181550195019301614f4d565b901561511057601f54908163ffffffff16601554604051614fdf81611801856020830195869091604092825260208201520190565b519020908360e01c9080821461510357611015946150aa6150b7936150a5936150fe965f52806020528361fffe8280850360405f20060193116150598483839060018060c01b039060201c1682826004031c0154600f821c8316826004011b1c90600160105f19921b1b0116801515905f19018218021890565b96879461509d8585859060018060c01b039060201c1682826004031c0154600f821c8316826004011b1c90600160105f19921b1b0116801515905f19018218021890565b908484615164565b615164565b600101601f5561ffff1690565b916150c283826151a9565b6150d76150cd611006565b61ffff9095168552565b6001602085015260408401526150eb614da2565b60608401525f52601e60205260405f2090565b614e9c565b6351065f795f526004601cfd5b630abc61e760e41b5f5260045ffd5b90604051600a608082019360a083016040525f8552935b5f19019360308282060185530492831561515257600a90615136565b809350608091030191601f1901918252565b92919060018060c01b039060201c1681846004031c0192600f811c8216816004011b91845493600181019114150283831c1890600160105f19921b1b0116901b189055565b90601061ffff8216106151c35750614cd56105cd9161511f565b90506007811015613bf65760170160405190670189037b310189d160c51b6020830152815f8254926151f484612fc1565b936001811690811561525d575060011461521d575b506105cd925003601f198101835282610fe5565b9150505f528160205f205f905b83821061524257505060286105cd928201015f615209565b6020919250806001915460288588010152019101839161522a565b9050602892506105cd94915060ff191682840152801515028201015f615209565b9060609180518061528d575050565b9092506003600282010460021b90604051937f4142434445464748494a4b4c4d4e4f505152535455565758595a616263646566601f526106707f6768696a6b6c6d6e6f707172737475767778797a303132333435363738392d5f18603f526020850191838601926004600360208601945b0191603f8351818160121c16515f538181600c1c1651600153818160061c165160025316516003535f51815201908382101561533f576004906003906152fe565b50915060405f93016040526003613d3d60f01b910660020482035252825256fea26469706673582212206fdfa913b6a2cfc5b73234c75a5370cf3823de1e685760295ab5d5c29796f20864736f6c63430008210033405787fa12a823e0f2b7631cc41b3ba8828b3321ca811111fa75cd3aa3bb5ace",
			"opcodes": "PUSH1 0xC0 PUSH1 0x40 MSTORE CALLVALUE PUSH2 0xFD JUMPI PUSH2 0x5CD5 DUP1 CODESIZE SUB DUP1 PUSH2 0x19 DUP2 PUSH2 0x115 JUMP JUMPDEST SWAP3 DUP4 CODECOPY DUP2 ADD PUSH1 0xA0 DUP3 DUP3 SUB SLT PUSH2 0xFD JUMPI DUP2 MLOAD SWAP2 PUSH2 0x34 DUP4 PUSH2 0x13A JUMP JUMPDEST PUSH1 0x20 DUP2 ADD MLOAD PUSH1 0x40 DUP3 ADD MLOAD PUSH1 0x60 DUP4 ADD MLOAD PUSH1 0x80 DUP5 ADD MLOAD SWAP1 SWAP4 SWAP2 SWAP3 SWAP2 PUSH1 0x1 PUSH1 0x1 PUSH1 0x40 SHL SUB DUP3 GT PUSH2 0xFD JUMPI ADD SWAP5 DUP5 PUSH1 0x1F DUP8 ADD SLT ISZERO PUSH2 0xFD JUMPI DUP6 MLOAD SWAP5 PUSH1 0x1 PUSH1 0x1 PUSH1 0x40 SHL SUB DUP7 GT PUSH2 0x101 JUMPI DUP6 PUSH1 0x5 SHL SWAP7 PUSH1 0x20 DUP1 PUSH2 0x8C DUP2 DUP12 ADD PUSH2 0x115 JUMP JUMPDEST DUP1 SWAP10 DUP2 MSTORE ADD SWAP9 DUP3 ADD ADD SWAP2 DUP3 GT PUSH2 0xFD JUMPI PUSH1 0x20 ADD SWAP7 JUMPDEST DUP2 DUP9 LT PUSH2 0xE3 JUMPI POP POP PUSH2 0xB4 SWAP6 POP PUSH2 0x536 JUMP JUMPDEST PUSH1 0x40 MLOAD PUSH2 0x5395 SWAP1 DUP2 PUSH2 0x920 DUP3 CODECOPY PUSH1 0x80 MLOAD DUP2 DUP2 DUP2 PUSH2 0x1B4B ADD MSTORE PUSH2 0x3272 ADD MSTORE PUSH1 0xA0 MLOAD DUP2 DUP2 DUP2 PUSH2 0x1814 ADD MSTORE PUSH2 0x2890 ADD MSTORE RETURN JUMPDEST PUSH1 0x20 DUP1 SWAP2 DUP10 MLOAD PUSH2 0xF2 DUP2 PUSH2 0x13A JUMP JUMPDEST DUP2 MSTORE ADD SWAP8 ADD SWAP7 PUSH2 0xA1 JUMP JUMPDEST PUSH0 DUP1 REVERT JUMPDEST PUSH4 0x4E487B71 PUSH1 0xE0 SHL PUSH0 MSTORE PUSH1 0x41 PUSH1 0x4 MSTORE PUSH1 0x24 PUSH0 REVERT JUMPDEST PUSH1 0x40 MLOAD SWAP2 SWAP1 PUSH1 0x1F ADD PUSH1 0x1F NOT AND DUP3 ADD PUSH1 0x1 PUSH1 0x1 PUSH1 0x40 SHL SUB DUP2 GT DUP4 DUP3 LT OR PUSH2 0x101 JUMPI PUSH1 0x40 MSTORE JUMP JUMPDEST PUSH1 0x1 PUSH1 0x1 PUSH1 0xA0 SHL SUB DUP2 AND SUB PUSH2 0xFD JUMPI JUMP JUMPDEST PUSH2 0x155 PUSH1 0x40 PUSH2 0x115 JUMP JUMPDEST SWAP1 PUSH1 0x5 DUP3 MSTORE PUSH5 0x52504E4B53 PUSH1 0xD8 SHL PUSH1 0x20 DUP4 ADD MSTORE JUMP JUMPDEST PUSH2 0x174 PUSH1 0x40 PUSH2 0x115 JUMP JUMPDEST SWAP1 PUSH1 0xD DUP3 MSTORE PUSH13 0x5072656461746F7220426C7565 PUSH1 0x98 SHL PUSH1 0x20 DUP4 ADD MSTORE JUMP JUMPDEST PUSH2 0x19B PUSH1 0x40 PUSH2 0x115 JUMP JUMPDEST SWAP1 PUSH1 0xE DUP3 MSTORE PUSH14 0x283932B230BA37B91023B932B2B7 PUSH1 0x91 SHL PUSH1 0x20 DUP4 ADD MSTORE JUMP JUMPDEST PUSH2 0x1C3 PUSH1 0x40 PUSH2 0x115 JUMP JUMPDEST SWAP1 PUSH1 0xC DUP3 MSTORE PUSH12 0x141C9959185D1BDC88149959 PUSH1 0xA2 SHL PUSH1 0x20 DUP4 ADD MSTORE JUMP JUMPDEST PUSH2 0x1E9 PUSH1 0x40 PUSH2 0x115 JUMP JUMPDEST SWAP1 PUSH1 0xB DUP3 MSTORE PUSH11 0x53616E746120436C617573 PUSH1 0xA8 SHL PUSH1 0x20 DUP4 ADD MSTORE JUMP JUMPDEST PUSH2 0x20E PUSH1 0x40 PUSH2 0x115 JUMP JUMPDEST SWAP1 PUSH1 0xC DUP3 MSTORE PUSH12 0x536861646F77204E696E6A61 PUSH1 0xA0 SHL PUSH1 0x20 DUP4 ADD MSTORE JUMP JUMPDEST PUSH2 0x234 PUSH1 0x40 PUSH2 0x115 JUMP JUMPDEST SWAP1 PUSH1 0x9 DUP3 MSTORE PUSH9 0x151A194811195D9A5B PUSH1 0xBA SHL PUSH1 0x20 DUP4 ADD MSTORE JUMP JUMPDEST PUSH2 0x257 PUSH1 0x40 PUSH2 0x115 JUMP JUMPDEST SWAP1 PUSH1 0xC DUP3 MSTORE PUSH12 0x151A1948141BDC9D1C985A5D PUSH1 0xA2 SHL PUSH1 0x20 DUP4 ADD MSTORE JUMP JUMPDEST SWAP1 PUSH1 0x1 DUP3 DUP2 SHR SWAP3 AND DUP1 ISZERO PUSH2 0x2A1 JUMPI JUMPDEST PUSH1 0x20 DUP4 LT EQ PUSH2 0x28D JUMPI JUMP JUMPDEST PUSH4 0x4E487B71 PUSH1 0xE0 SHL PUSH0 MSTORE PUSH1 0x22 PUSH1 0x4 MSTORE PUSH1 0x24 PUSH0 REVERT JUMPDEST SWAP2 PUSH1 0x7F AND SWAP2 PUSH2 0x282 JUMP JUMPDEST PUSH0 JUMPDEST DUP3 DUP2 LT PUSH2 0x2B9 JUMPI POP POP POP JUMP JUMPDEST PUSH0 DUP3 DUP3 ADD SSTORE PUSH1 0x1 ADD PUSH2 0x2AD JUMP JUMPDEST PUSH1 0x1F DUP2 GT PUSH2 0x2D2 JUMPI POP POP JUMP JUMPDEST DUP2 DUP2 GT PUSH2 0x2DD JUMPI POP POP JUMP JUMPDEST PUSH1 0x2 PUSH0 MSTORE PUSH2 0x314 SWAP2 PUSH0 MLOAD PUSH1 0x20 PUSH2 0x5CB5 PUSH0 CODECOPY PUSH0 MLOAD SWAP1 PUSH0 MSTORE SWAP2 PUSH1 0x1F DUP3 ADD PUSH1 0x5 SHR SWAP2 PUSH1 0x20 GT PUSH2 0x316 JUMPI JUMPDEST PUSH1 0x1F DUP3 SWAP2 ADD PUSH1 0x5 SHR SUB SWAP2 ADD PUSH2 0x2AB JUMP JUMPDEST JUMP JUMPDEST PUSH0 SWAP2 POP PUSH2 0x304 JUMP JUMPDEST SWAP2 PUSH1 0x1F DUP3 GT PUSH2 0x32C JUMPI POP POP POP JUMP JUMPDEST DUP1 DUP3 GT PUSH2 0x338 JUMPI POP POP POP JUMP JUMPDEST PUSH2 0x314 SWAP3 PUSH0 MSTORE PUSH1 0x20 PUSH0 KECCAK256 SWAP2 PUSH1 0x20 PUSH1 0x1F DUP4 ADD PUSH1 0x5 SHR SWAP3 LT PUSH2 0x316 JUMPI PUSH1 0x1F DUP3 SWAP2 ADD PUSH1 0x5 SHR SUB SWAP2 ADD PUSH2 0x2AB JUMP JUMPDEST DUP1 MLOAD SWAP1 SWAP2 SWAP1 PUSH1 0x1 PUSH1 0x1 PUSH1 0x40 SHL SUB DUP2 GT PUSH2 0x101 JUMPI PUSH2 0x38B DUP2 PUSH2 0x384 PUSH1 0x3 SLOAD PUSH2 0x273 JUMP JUMPDEST PUSH1 0x3 PUSH2 0x31E JUMP JUMPDEST PUSH1 0x20 SWAP3 PUSH1 0x1F DUP3 GT PUSH1 0x1 EQ PUSH2 0x3CB JUMPI PUSH2 0x3BB SWAP3 SWAP4 DUP3 SWAP2 PUSH0 SWAP3 PUSH2 0x3C0 JUMPI JUMPDEST POP POP DUP2 PUSH1 0x1 SHL SWAP2 PUSH0 NOT SWAP1 PUSH1 0x3 SHL SHR NOT AND OR SWAP1 JUMP JUMPDEST PUSH1 0x3 SSTORE JUMP JUMPDEST ADD MLOAD SWAP1 POP PUSH0 DUP1 PUSH2 0x3A7 JUMP JUMPDEST PUSH1 0x3 PUSH0 MSTORE PUSH1 0x1F NOT DUP3 AND SWAP4 PUSH32 0xC2575A0E9E593C00F959F8C92F12DB2869C3395A3B0502D05E2516446F71F85B SWAP2 PUSH0 JUMPDEST DUP7 DUP2 LT PUSH2 0x42F JUMPI POP DUP4 PUSH1 0x1 SWAP6 SWAP7 LT PUSH2 0x417 JUMPI JUMPDEST POP POP POP DUP2 SHL ADD PUSH1 0x3 SSTORE JUMP JUMPDEST ADD MLOAD PUSH0 NOT PUSH1 0xF8 DUP5 PUSH1 0x3 SHL AND SHR NOT AND SWAP1 SSTORE PUSH0 DUP1 DUP1 PUSH2 0x40C JUMP JUMPDEST SWAP2 SWAP3 PUSH1 0x20 PUSH1 0x1 DUP2 SWAP3 DUP7 DUP6 ADD MLOAD DUP2 SSTORE ADD SWAP5 ADD SWAP3 ADD PUSH2 0x3F9 JUMP JUMPDEST PUSH1 0x17 SWAP1 PUSH0 SWAP1 JUMPDEST PUSH1 0x7 DUP3 LT PUSH2 0x45A JUMPI POP POP POP JUMP JUMPDEST DUP1 MLOAD DUP1 MLOAD SWAP1 PUSH1 0x1 PUSH1 0x1 PUSH1 0x40 SHL SUB DUP3 GT PUSH2 0x101 JUMPI PUSH2 0x481 DUP3 PUSH2 0x47B DUP8 SLOAD PUSH2 0x273 JUMP JUMPDEST DUP8 PUSH2 0x31E JUMP JUMPDEST PUSH1 0x20 SWAP1 PUSH1 0x1F DUP4 GT PUSH1 0x1 EQ PUSH2 0x4C6 JUMPI SWAP3 PUSH2 0x4B7 DUP4 PUSH1 0x1 SWAP6 SWAP5 PUSH1 0x20 SWAP5 DUP8 SWAP7 PUSH0 SWAP3 PUSH2 0x3C0 JUMPI POP POP DUP2 PUSH1 0x1 SHL SWAP2 PUSH0 NOT SWAP1 PUSH1 0x3 SHL SHR NOT AND OR SWAP1 JUMP JUMPDEST DUP7 SSTORE JUMPDEST ADD SWAP4 ADD SWAP2 ADD SWAP1 SWAP2 PUSH2 0x44D JUMP JUMPDEST SWAP1 PUSH1 0x1F NOT DUP4 AND SWAP2 PUSH2 0x4DA DUP8 PUSH0 MSTORE PUSH1 0x20 PUSH0 KECCAK256 SWAP1 JUMP JUMPDEST SWAP3 PUSH0 JUMPDEST DUP2 DUP2 LT PUSH2 0x51E JUMPI POP SWAP4 PUSH1 0x20 SWAP4 PUSH1 0x1 SWAP7 SWAP4 DUP8 SWAP7 SWAP4 DUP4 DUP9 SWAP6 LT PUSH2 0x506 JUMPI JUMPDEST POP POP POP DUP2 SHL ADD DUP7 SSTORE PUSH2 0x4BA JUMP JUMPDEST ADD MLOAD PUSH0 NOT PUSH1 0xF8 DUP5 PUSH1 0x3 SHL AND SHR NOT AND SWAP1 SSTORE PUSH0 DUP1 DUP1 PUSH2 0x4F9 JUMP JUMPDEST SWAP3 SWAP4 PUSH1 0x20 PUSH1 0x1 DUP2 SWAP3 DUP8 DUP7 ADD MLOAD DUP2 SSTORE ADD SWAP6 ADD SWAP4 ADD PUSH2 0x4DD JUMP JUMPDEST SWAP1 SWAP2 PUSH2 0x64D SWAP3 PUSH2 0x572 PUSH2 0x314 SWAP7 PUSH2 0x54D PUSH1 0x40 PUSH2 0x115 JUMP JUMPDEST PUSH1 0xA DUP2 MSTORE PUSH10 0x526574726F50756E6B73 PUSH1 0xB0 SHL PUSH1 0x20 DUP3 ADD MSTORE PUSH2 0x56C PUSH2 0x14B JUMP JUMPDEST SWAP1 PUSH2 0x652 JUMP JUMPDEST PUSH1 0x13 DUP1 SLOAD PUSH2 0xFFFF PUSH1 0xA8 SHL NOT AND PUSH1 0x7D PUSH1 0xAB SHL OR SWAP1 SSTORE PUSH2 0x595 PUSH1 0xFF NOT PUSH1 0x16 SLOAD AND PUSH1 0x16 SSTORE JUMP JUMPDEST PUSH2 0x5A5 PUSH2 0xFF00 NOT PUSH1 0x16 SLOAD AND PUSH1 0x16 SSTORE JUMP JUMPDEST PUSH2 0x5B6 PUSH3 0xFF0000 NOT PUSH1 0x16 SLOAD AND PUSH1 0x16 SSTORE JUMP JUMPDEST PUSH2 0x620 PUSH2 0x5C3 PUSH1 0xE0 PUSH2 0x115 JUMP JUMPDEST PUSH2 0x5CB PUSH2 0x16A JUMP JUMPDEST DUP2 MSTORE PUSH2 0x5D5 PUSH2 0x191 JUMP JUMPDEST PUSH1 0x20 DUP3 ADD MSTORE PUSH2 0x5E2 PUSH2 0x1B9 JUMP JUMPDEST PUSH1 0x40 DUP3 ADD MSTORE PUSH2 0x5EF PUSH2 0x1DF JUMP JUMPDEST PUSH1 0x60 DUP3 ADD MSTORE PUSH2 0x5FC PUSH2 0x204 JUMP JUMPDEST PUSH1 0x80 DUP3 ADD MSTORE PUSH2 0x609 PUSH2 0x22A JUMP JUMPDEST PUSH1 0xA0 DUP3 ADD MSTORE PUSH2 0x616 PUSH2 0x24D JUMP JUMPDEST PUSH1 0xC0 DUP3 ADD MSTORE PUSH2 0x447 JUMP JUMPDEST PUSH1 0x80 MSTORE PUSH1 0xA0 MSTORE PUSH1 0x13 DUP1 SLOAD PUSH2 0x100 PUSH1 0x1 PUSH1 0xA8 SHL SUB NOT AND PUSH1 0x8 SWAP3 SWAP1 SWAP3 SHL PUSH2 0x100 PUSH1 0x1 PUSH1 0xA8 SHL SUB AND SWAP2 SWAP1 SWAP2 OR SWAP1 SSTORE JUMP JUMPDEST PUSH1 0xC SSTORE JUMP JUMPDEST DUP1 MLOAD SWAP1 SWAP4 SWAP3 SWAP2 SWAP1 PUSH1 0x1 PUSH1 0x1 PUSH1 0x40 SHL SUB DUP2 GT PUSH2 0x101 JUMPI PUSH2 0x67B DUP2 PUSH2 0x676 PUSH1 0x2 SLOAD PUSH2 0x273 JUMP JUMPDEST PUSH2 0x2C6 JUMP JUMPDEST PUSH1 0x20 PUSH1 0x1F DUP3 GT PUSH1 0x1 EQ PUSH2 0x7A6 JUMPI SWAP1 DUP1 PUSH2 0x6AE SWAP3 PUSH2 0x6B6 SWAP6 SWAP7 SWAP8 PUSH0 SWAP3 PUSH2 0x3C0 JUMPI POP POP DUP2 PUSH1 0x1 SHL SWAP2 PUSH0 NOT SWAP1 PUSH1 0x3 SHL SHR NOT AND OR SWAP1 JUMP JUMPDEST PUSH1 0x2 SSTORE PUSH2 0x362 JUMP JUMPDEST PUSH2 0x6BF PUSH1 0x1 PUSH0 SSTORE JUMP JUMPDEST PUSH2 0x6C7 PUSH2 0x8C7 JUMP JUMPDEST DUP1 MLOAD PUSH0 JUMPDEST DUP2 DUP2 LT PUSH2 0x757 JUMPI POP POP PUSH2 0x6DD SWAP1 PUSH2 0x842 JUMP JUMPDEST PUSH32 0x867006957979DAA4AA88EB4157C1262555F712BC61EC3D0046C5A49A2C190B45 PUSH1 0x40 MLOAD PUSH32 0xD7ACA75208B9BE5FFC04C6A01922020FFD62B55E68E502E317F5344960279AF8 PUSH0 DUP1 LOG1 PUSH2 0x737 PUSH1 0x1 PUSH1 0xFF NOT PUSH1 0x13 SLOAD AND OR PUSH1 0x13 SSTORE JUMP JUMPDEST DUP1 PUSH2 0x752 PUSH2 0x747 PUSH1 0x13 SLOAD PUSH1 0xFF AND SWAP1 JUMP JUMPDEST ISZERO ISZERO DUP3 MSTORE PUSH1 0x20 DUP3 ADD SWAP1 JUMP JUMPDEST SUB SWAP1 LOG1 JUMP JUMPDEST DUP1 PUSH2 0x7A0 PUSH2 0x793 PUSH2 0x77A PUSH2 0x76D PUSH1 0x1 SWAP6 DUP9 PUSH2 0x81A JUMP JUMPDEST MLOAD PUSH1 0x1 PUSH1 0x1 PUSH1 0xA0 SHL SUB AND SWAP1 JUMP JUMPDEST PUSH1 0x1 PUSH1 0x1 PUSH1 0xA0 SHL SUB AND PUSH0 SWAP1 DUP2 MSTORE PUSH1 0x11 PUSH1 0x20 MSTORE PUSH1 0x40 SWAP1 KECCAK256 SWAP1 JUMP JUMPDEST DUP1 SLOAD PUSH1 0xFF NOT AND PUSH1 0x1 OR SWAP1 SSTORE JUMP JUMPDEST ADD PUSH2 0x6CB JUMP JUMPDEST PUSH1 0x2 PUSH0 MSTORE PUSH1 0x1F NOT DUP3 AND SWAP6 PUSH0 MLOAD PUSH1 0x20 PUSH2 0x5CB5 PUSH0 CODECOPY PUSH0 MLOAD SWAP1 PUSH0 MSTORE SWAP7 PUSH0 JUMPDEST DUP2 DUP2 LT PUSH2 0x802 JUMPI POP SWAP2 PUSH2 0x6B6 SWAP6 SWAP7 SWAP8 SWAP2 DUP5 PUSH1 0x1 SWAP6 SWAP5 LT PUSH2 0x7EA JUMPI JUMPDEST POP POP POP DUP2 SHL ADD PUSH1 0x2 SSTORE PUSH2 0x362 JUMP JUMPDEST ADD MLOAD PUSH0 NOT PUSH1 0xF8 DUP5 PUSH1 0x3 SHL AND SHR NOT AND SWAP1 SSTORE PUSH0 DUP1 DUP1 PUSH2 0x7DC JUMP JUMPDEST DUP4 DUP4 ADD MLOAD DUP10 SSTORE PUSH1 0x1 SWAP1 SWAP9 ADD SWAP8 PUSH1 0x20 SWAP4 DUP5 ADD SWAP4 ADD PUSH2 0x7C1 JUMP JUMPDEST DUP1 MLOAD DUP3 LT ISZERO PUSH2 0x82E JUMPI PUSH1 0x20 SWAP2 PUSH1 0x5 SHL ADD ADD SWAP1 JUMP JUMPDEST PUSH4 0x4E487B71 PUSH1 0xE0 SHL PUSH0 MSTORE PUSH1 0x32 PUSH1 0x4 MSTORE PUSH1 0x24 PUSH0 REVERT JUMPDEST DUP1 MLOAD SWAP1 PUSH1 0x1 PUSH1 0x1 PUSH1 0x40 SHL SUB DUP3 GT PUSH2 0x101 JUMPI PUSH9 0x10000000000000000 DUP3 GT PUSH2 0x101 JUMPI PUSH1 0x20 SWAP1 PUSH1 0x12 SLOAD DUP4 PUSH1 0x12 SSTORE DUP1 DUP5 LT PUSH2 0x8AB JUMPI JUMPDEST POP ADD PUSH1 0x12 PUSH0 MSTORE PUSH1 0x20 PUSH0 KECCAK256 PUSH0 JUMPDEST DUP4 DUP2 LT PUSH2 0x88E JUMPI POP POP POP POP JUMP JUMPDEST DUP3 MLOAD PUSH1 0x1 PUSH1 0x1 PUSH1 0xA0 SHL SUB AND DUP3 DUP3 ADD SSTORE PUSH1 0x20 SWAP1 SWAP3 ADD SWAP2 PUSH1 0x1 ADD PUSH2 0x881 JUMP JUMPDEST PUSH2 0x8C1 SWAP1 PUSH1 0x12 PUSH0 MSTORE DUP5 DUP1 DUP6 PUSH0 KECCAK256 ADD SWAP2 SUB SWAP1 PUSH2 0x2AB JUMP JUMPDEST PUSH0 PUSH2 0x875 JUMP JUMPDEST ADDRESS EXTCODESIZE PUSH2 0x911 JUMPI PUSH1 0xA DUP1 SLOAD CALLER PUSH1 0x1 PUSH1 0x1 PUSH1 0xA0 SHL SUB NOT DUP3 AND DUP2 OR SWAP1 SWAP3 SSTORE PUSH1 0x1 PUSH1 0x1 PUSH1 0xA0 SHL SUB AND PUSH32 0x8BE0079C531659141344CD1FD0A4F28419497F9722A3DAAFE3B4186F6B6457E0 PUSH0 DUP1 LOG3 JUMP JUMPDEST PUSH3 0xDC149F PUSH1 0xE4 SHL PUSH0 MSTORE PUSH1 0x4 PUSH0 REVERT INVALID PUSH1 0x80 PUSH1 0x40 MSTORE PUSH1 0x4 CALLDATASIZE LT ISZERO PUSH2 0x11 JUMPI PUSH0 DUP1 REVERT JUMPDEST PUSH0 CALLDATALOAD PUSH1 0xE0 SHR DUP1 PUSH4 0x1FFC9A7 EQ PUSH2 0x464 JUMPI DUP1 PUSH4 0x6FDDE03 EQ PUSH2 0x45F JUMPI DUP1 PUSH4 0x7AAFA98 EQ PUSH2 0x45A JUMPI DUP1 PUSH4 0x81812FC EQ PUSH2 0x455 JUMPI DUP1 PUSH4 0x95EA7B3 EQ PUSH2 0x450 JUMPI DUP1 PUSH4 0x98144D4 EQ PUSH2 0x44B JUMPI DUP1 PUSH4 0x99B6BFA EQ PUSH2 0x446 JUMPI DUP1 PUSH4 0xD705DF6 EQ PUSH2 0x441 JUMPI DUP1 PUSH4 0xD9D713B EQ PUSH2 0x43C JUMPI DUP1 PUSH4 0x18160DDD EQ PUSH2 0x437 JUMPI DUP1 PUSH4 0x1B73593C EQ PUSH2 0x432 JUMPI DUP1 PUSH4 0x1DBD7390 EQ PUSH2 0x42D JUMPI DUP1 PUSH4 0x23452B9C EQ PUSH2 0x428 JUMPI DUP1 PUSH4 0x23B872DD EQ PUSH2 0x423 JUMPI DUP1 PUSH4 0x2A55205A EQ PUSH2 0x41E JUMPI DUP1 PUSH4 0x3680620D EQ PUSH2 0x419 JUMPI DUP1 PUSH4 0x42260B5D EQ PUSH2 0x414 JUMPI DUP1 PUSH4 0x42842E0E EQ PUSH2 0x40F JUMPI DUP1 PUSH4 0x42966C68 EQ PUSH2 0x40A JUMPI DUP1 PUSH4 0x44DAE42C EQ PUSH2 0x405 JUMPI DUP1 PUSH4 0x4563F30A EQ PUSH2 0x400 JUMPI DUP1 PUSH4 0x484B973C EQ PUSH2 0x3FB JUMPI DUP1 PUSH4 0x48A4C101 EQ PUSH2 0x3F6 JUMPI DUP1 PUSH4 0x511AA644 EQ PUSH2 0x3F1 JUMPI DUP1 PUSH4 0x55F804B3 EQ PUSH2 0x3EC JUMPI DUP1 PUSH4 0x56D3163D EQ PUSH2 0x3E7 JUMPI DUP1 PUSH4 0x5743BDFF EQ PUSH2 0x3E2 JUMPI DUP1 PUSH4 0x60C308B6 EQ PUSH2 0x3DD JUMPI DUP1 PUSH4 0x6352211E EQ PUSH2 0x3D8 JUMPI DUP1 PUSH4 0x64869DAD EQ PUSH2 0x3D3 JUMPI DUP1 PUSH4 0x64F101F0 EQ PUSH2 0x3CE JUMPI DUP1 PUSH4 0x66251B69 EQ PUSH2 0x3C9 JUMPI DUP1 PUSH4 0x6C0360EB EQ PUSH2 0x3C4 JUMPI DUP1 PUSH4 0x6F8B44B0 EQ PUSH2 0x3BF JUMPI DUP1 PUSH4 0x70A08231 EQ PUSH2 0x3BA JUMPI DUP1 PUSH4 0x715018A6 EQ PUSH2 0x3B5 JUMPI DUP1 PUSH4 0x73C5643A EQ PUSH2 0x3B0 JUMPI DUP1 PUSH4 0x74E4F5AF EQ PUSH2 0x3AB JUMPI DUP1 PUSH4 0x79BA5097 EQ PUSH2 0x3A6 JUMPI DUP1 PUSH4 0x7A05BC82 EQ PUSH2 0x3A1 JUMPI DUP1 PUSH4 0x7BC2BE76 EQ PUSH2 0x39C JUMPI DUP1 PUSH4 0x840E15D4 EQ PUSH2 0x397 JUMPI DUP1 PUSH4 0x853B3B4C EQ PUSH2 0x392 JUMPI DUP1 PUSH4 0x8ADA6B0F EQ PUSH2 0x38D JUMPI DUP1 PUSH4 0x8DA5CB5B EQ PUSH2 0x388 JUMPI DUP1 PUSH4 0x911F456B EQ PUSH2 0x383 JUMPI DUP1 PUSH4 0x938E3D7B EQ PUSH2 0x37E JUMPI DUP1 PUSH4 0x9559A5D9 EQ PUSH2 0x379 JUMPI DUP1 PUSH4 0x95D89B41 EQ PUSH2 0x374 JUMPI DUP1 PUSH4 0x99C5DEF3 EQ PUSH2 0x36F JUMPI DUP1 PUSH4 0x9B7406A5 EQ PUSH2 0x36A JUMPI DUP1 PUSH4 0xA22CB465 EQ PUSH2 0x365 JUMPI DUP1 PUSH4 0xA4830114 EQ PUSH2 0x360 JUMPI DUP1 PUSH4 0xA9FC664E EQ PUSH2 0x35B JUMPI DUP1 PUSH4 0xAD2F852A EQ PUSH2 0x356 JUMPI DUP1 PUSH4 0xB88D4FDE EQ PUSH2 0x351 JUMPI DUP1 PUSH4 0xC6AB67A3 EQ PUSH2 0x34C JUMPI DUP1 PUSH4 0xC87B56DD EQ PUSH2 0x347 JUMPI DUP1 PUSH4 0xCB743BA8 EQ PUSH2 0x342 JUMPI DUP1 PUSH4 0xCDB0E89E EQ PUSH2 0x33D JUMPI DUP1 PUSH4 0xD5ABEB01 EQ PUSH2 0x338 JUMPI DUP1 PUSH4 0xD74B6857 EQ PUSH2 0x333 JUMPI DUP1 PUSH4 0xDB846DBE EQ PUSH2 0x32E JUMPI DUP1 PUSH4 0xE8A3D485 EQ PUSH2 0x329 JUMPI DUP1 PUSH4 0xE985E9C5 EQ PUSH2 0x324 JUMPI DUP1 PUSH4 0xF2FDE38B EQ PUSH2 0x31F JUMPI DUP1 PUSH4 0xF4CC7105 EQ PUSH2 0x31A JUMPI DUP1 PUSH4 0xF598F1DA EQ PUSH2 0x315 JUMPI PUSH4 0xFE97B576 EQ PUSH2 0x310 JUMPI PUSH0 DUP1 REVERT JUMPDEST PUSH2 0x341D JUMP JUMPDEST PUSH2 0x3295 JUMP JUMPDEST PUSH2 0x325B JUMP JUMPDEST PUSH2 0x31D7 JUMP JUMPDEST PUSH2 0x31B4 JUMP JUMPDEST PUSH2 0x310F JUMP JUMPDEST PUSH2 0x3097 JUMP JUMPDEST PUSH2 0x2EF8 JUMP JUMPDEST PUSH2 0x2EDB JUMP JUMPDEST PUSH2 0x2C86 JUMP JUMPDEST PUSH2 0x2BF5 JUMP JUMPDEST PUSH2 0x2B45 JUMP JUMPDEST PUSH2 0x2B28 JUMP JUMPDEST PUSH2 0x2AC6 JUMP JUMPDEST PUSH2 0x2A4D JUMP JUMPDEST PUSH2 0x29A8 JUMP JUMPDEST PUSH2 0x2959 JUMP JUMPDEST PUSH2 0x28B3 JUMP JUMPDEST PUSH2 0x2879 JUMP JUMPDEST PUSH2 0x285C JUMP JUMPDEST PUSH2 0x27B7 JUMP JUMPDEST PUSH2 0x2792 JUMP JUMPDEST PUSH2 0x264E JUMP JUMPDEST PUSH2 0x1C35 JUMP JUMPDEST PUSH2 0x1C0D JUMP JUMPDEST PUSH2 0x1BE1 JUMP JUMPDEST PUSH2 0x1AF9 JUMP JUMPDEST PUSH2 0x1A9F JUMP JUMPDEST PUSH2 0x1A0E JUMP JUMPDEST PUSH2 0x198B JUMP JUMPDEST PUSH2 0x18DA JUMP JUMPDEST PUSH2 0x18B5 JUMP JUMPDEST PUSH2 0x17B4 JUMP JUMPDEST PUSH2 0x1759 JUMP JUMPDEST PUSH2 0x16FF JUMP JUMPDEST PUSH2 0x1660 JUMP JUMPDEST PUSH2 0x15BB JUMP JUMPDEST PUSH2 0x1550 JUMP JUMPDEST PUSH2 0x1504 JUMP JUMPDEST PUSH2 0x1475 JUMP JUMPDEST PUSH2 0x1446 JUMP JUMPDEST PUSH2 0x13EB JUMP JUMPDEST PUSH2 0x13C7 JUMP JUMPDEST PUSH2 0x132D JUMP JUMPDEST PUSH2 0x11E3 JUMP JUMPDEST PUSH2 0x10E3 JUMP JUMPDEST PUSH2 0xF20 JUMP JUMPDEST PUSH2 0xE21 JUMP JUMPDEST PUSH2 0xDFF JUMP JUMPDEST PUSH2 0xD1D JUMP JUMPDEST PUSH2 0xBBC JUMP JUMPDEST PUSH2 0xB98 JUMP JUMPDEST PUSH2 0xB78 JUMP JUMPDEST PUSH2 0xAD8 JUMP JUMPDEST PUSH2 0xA89 JUMP JUMPDEST PUSH2 0xA77 JUMP JUMPDEST PUSH2 0x9F5 JUMP JUMPDEST PUSH2 0x9D3 JUMP JUMPDEST PUSH2 0x943 JUMP JUMPDEST PUSH2 0x91F JUMP JUMPDEST PUSH2 0x8BD JUMP JUMPDEST PUSH2 0x87B JUMP JUMPDEST PUSH2 0x80E JUMP JUMPDEST PUSH2 0x7E6 JUMP JUMPDEST PUSH2 0x723 JUMP JUMPDEST PUSH2 0x6C3 JUMP JUMPDEST PUSH2 0x6A6 JUMP JUMPDEST PUSH2 0x5D0 JUMP JUMPDEST PUSH2 0x47F JUMP JUMPDEST PUSH1 0x1 PUSH1 0x1 PUSH1 0xE0 SHL SUB NOT DUP2 AND SUB PUSH2 0x47B JUMPI JUMP JUMPDEST PUSH0 DUP1 REVERT JUMPDEST CALLVALUE PUSH2 0x47B JUMPI PUSH1 0x20 CALLDATASIZE PUSH1 0x3 NOT ADD SLT PUSH2 0x47B JUMPI PUSH2 0x4D4 PUSH1 0x4 CALLDATALOAD PUSH2 0x49F DUP2 PUSH2 0x469 JUMP JUMPDEST PUSH4 0xFFFFFFFF PUSH1 0xE0 SHL AND PUSH4 0xC487F47 PUSH1 0xE1 SHL DUP2 EQ SWAP1 DUP2 ISZERO PUSH2 0x57D JUMPI JUMPDEST DUP2 ISZERO PUSH2 0x4D8 JUMPI JUMPDEST POP PUSH1 0x40 MLOAD SWAP1 ISZERO ISZERO DUP2 MSTORE SWAP1 DUP2 SWAP1 PUSH1 0x20 DUP3 ADD SWAP1 JUMP JUMPDEST SUB SWAP1 RETURN JUMPDEST PUSH4 0x152A902D PUSH1 0xE1 SHL DUP2 EQ SWAP2 POP DUP2 ISZERO PUSH2 0x56C JUMPI JUMPDEST DUP2 ISZERO PUSH2 0x55B JUMPI JUMPDEST DUP2 ISZERO PUSH2 0x54A JUMPI JUMPDEST DUP2 ISZERO PUSH2 0x507 JUMPI JUMPDEST POP PUSH0 PUSH2 0x4C1 JUMP JUMPDEST PUSH4 0x1FFC9A7 PUSH1 0xE0 SHL DUP2 EQ SWAP2 POP DUP2 ISZERO PUSH2 0x539 JUMPI JUMPDEST DUP2 ISZERO PUSH2 0x528 JUMPI JUMPDEST POP PUSH0 PUSH2 0x500 JUMP JUMPDEST PUSH4 0x5B5E139F PUSH1 0xE0 SHL EQ SWAP1 POP PUSH0 PUSH2 0x521 JUMP JUMPDEST PUSH4 0x80AC58CD PUSH1 0xE0 SHL DUP2 EQ SWAP2 POP PUSH2 0x51A JUMP JUMPDEST PUSH4 0x24832483 PUSH1 0xE1 SHL DUP2 EQ SWAP2 POP PUSH2 0x4F9 JUMP JUMPDEST PUSH4 0x503E914D PUSH1 0xE1 SHL DUP2 EQ SWAP2 POP PUSH2 0x4F2 JUMP JUMPDEST PUSH4 0x2B435FDB PUSH1 0xE2 SHL DUP2 EQ SWAP2 POP PUSH2 0x4EB JUMP JUMPDEST PUSH4 0x9C154415 PUSH1 0xE0 SHL DUP2 EQ SWAP2 POP PUSH2 0x4BA JUMP JUMPDEST PUSH0 SWAP2 SUB SLT PUSH2 0x47B JUMPI JUMP JUMPDEST DUP1 MLOAD DUP1 DUP4 MSTORE PUSH1 0x20 SWAP3 SWAP2 DUP2 SWAP1 DUP5 ADD DUP5 DUP5 ADD MCOPY PUSH0 DUP3 DUP3 ADD DUP5 ADD MSTORE PUSH1 0x1F ADD PUSH1 0x1F NOT AND ADD ADD SWAP1 JUMP JUMPDEST SWAP1 PUSH1 0x20 PUSH2 0x5CD SWAP3 DUP2 DUP2 MSTORE ADD SWAP1 PUSH2 0x598 JUMP JUMPDEST SWAP1 JUMP JUMPDEST CALLVALUE PUSH2 0x47B JUMPI PUSH0 CALLDATASIZE PUSH1 0x3 NOT ADD SLT PUSH2 0x47B JUMPI PUSH1 0x40 MLOAD PUSH0 PUSH1 0x2 SLOAD PUSH2 0x5F0 DUP2 PUSH2 0x2FC1 JUMP JUMPDEST DUP1 DUP5 MSTORE SWAP1 PUSH1 0x1 DUP2 AND SWAP1 DUP2 ISZERO PUSH2 0x682 JUMPI POP PUSH1 0x1 EQ PUSH2 0x624 JUMPI JUMPDEST PUSH2 0x4D4 DUP4 PUSH2 0x618 DUP2 DUP6 SUB DUP3 PUSH2 0xFE5 JUMP JUMPDEST PUSH1 0x40 MLOAD SWAP2 DUP3 SWAP2 DUP3 PUSH2 0x5BC JUMP JUMPDEST PUSH1 0x2 PUSH0 SWAP1 DUP2 MSTORE PUSH32 0x405787FA12A823E0F2B7631CC41B3BA8828B3321CA811111FA75CD3AA3BB5ACE SWAP4 SWAP3 POP SWAP1 JUMPDEST DUP1 DUP3 LT PUSH2 0x668 JUMPI POP SWAP1 SWAP2 POP DUP2 ADD PUSH1 0x20 ADD PUSH2 0x618 PUSH2 0x608 JUMP JUMPDEST SWAP2 SWAP3 PUSH1 0x1 DUP2 PUSH1 0x20 SWAP3 SLOAD DUP4 DUP6 DUP9 ADD ADD MSTORE ADD SWAP2 ADD SWAP1 SWAP3 SWAP2 PUSH2 0x650 JUMP JUMPDEST PUSH1 0xFF NOT AND PUSH1 0x20 DUP1 DUP7 ADD SWAP2 SWAP1 SWAP2 MSTORE SWAP2 ISZERO ISZERO PUSH1 0x5 SHL DUP5 ADD SWAP1 SWAP2 ADD SWAP2 POP PUSH2 0x618 SWAP1 POP PUSH2 0x608 JUMP JUMPDEST CALLVALUE PUSH2 0x47B JUMPI PUSH0 CALLDATASIZE PUSH1 0x3 NOT ADD SLT PUSH2 0x47B JUMPI PUSH1 0x20 PUSH1 0x14 SLOAD PUSH1 0x40 MLOAD SWAP1 DUP2 MSTORE RETURN JUMPDEST CALLVALUE PUSH2 0x47B JUMPI PUSH1 0x20 CALLDATASIZE PUSH1 0x3 NOT ADD SLT PUSH2 0x47B JUMPI PUSH1 0x4 CALLDATALOAD PUSH2 0x6E0 DUP2 PUSH2 0x42A6 JUMP JUMPDEST ISZERO PUSH2 0x703 JUMPI PUSH0 MSTORE PUSH1 0x6 PUSH1 0x20 MSTORE PUSH1 0x20 PUSH1 0x1 DUP1 PUSH1 0xA0 SHL SUB PUSH1 0x40 PUSH0 KECCAK256 SLOAD AND PUSH1 0x40 MLOAD SWAP1 DUP2 MSTORE RETURN JUMPDEST PUSH4 0x33D1C039 PUSH1 0xE2 SHL PUSH0 MSTORE PUSH1 0x4 PUSH0 REVERT JUMPDEST PUSH1 0x1 PUSH1 0x1 PUSH1 0xA0 SHL SUB DUP2 AND SUB PUSH2 0x47B JUMPI JUMP JUMPDEST PUSH1 0x40 CALLDATASIZE PUSH1 0x3 NOT ADD SLT PUSH2 0x47B JUMPI PUSH1 0x4 CALLDATALOAD PUSH2 0x73B DUP2 PUSH2 0x712 JUMP JUMPDEST PUSH1 0x24 CALLDATALOAD SWAP1 PUSH1 0xFF PUSH1 0x13 SLOAD AND PUSH2 0x7D7 JUMPI PUSH1 0x1 PUSH1 0x1 PUSH1 0xA0 SHL SUB PUSH2 0x75A DUP4 PUSH2 0x43B5 JUMP JUMPDEST AND SWAP1 DUP2 CALLER SUB PUSH2 0x7BA JUMPI JUMPDEST PUSH0 DUP4 DUP2 MSTORE PUSH1 0x6 PUSH1 0x20 MSTORE PUSH1 0x40 SWAP1 KECCAK256 DUP1 SLOAD PUSH1 0x1 PUSH1 0x1 PUSH1 0xA0 SHL SUB NOT AND PUSH1 0x1 PUSH1 0x1 PUSH1 0xA0 SHL SUB DUP4 AND OR SWAP1 SSTORE PUSH1 0x1 PUSH1 0x1 PUSH1 0xA0 SHL SUB AND SWAP1 PUSH32 0x8C5BE1E5EBEC7D5BD14F71427D1E84F3DD0314C0F7B2291E5B200AC8C7C3B925 PUSH0 DUP1 LOG4 STOP JUMPDEST PUSH2 0x7C4 CALLER DUP4 PUSH2 0x424D JUMP JUMPDEST PUSH2 0x764 JUMPI PUSH4 0x67D9DCA1 PUSH1 0xE1 SHL PUSH0 MSTORE PUSH1 0x4 PUSH0 REVERT JUMPDEST PUSH4 0x6AB17E05 PUSH1 0xE0 SHL PUSH0 MSTORE PUSH1 0x4 PUSH0 REVERT JUMPDEST CALLVALUE PUSH2 0x47B JUMPI PUSH0 CALLDATASIZE PUSH1 0x3 NOT ADD SLT PUSH2 0x47B JUMPI PUSH1 0x9 SLOAD PUSH1 0x40 MLOAD PUSH1 0x1 PUSH1 0x1 PUSH1 0xA0 SHL SUB SWAP1 SWAP2 AND DUP2 MSTORE PUSH1 0x20 SWAP1 RETURN JUMPDEST CALLVALUE PUSH2 0x47B JUMPI PUSH1 0x20 CALLDATASIZE PUSH1 0x3 NOT ADD SLT PUSH2 0x47B JUMPI PUSH1 0x4 CALLDATALOAD PUSH2 0x82A PUSH2 0x4349 JUMP JUMPDEST PUSH0 SLOAD PUSH0 NOT ADD PUSH2 0x86C JUMPI PUSH1 0x40 PUSH32 0x7C22004198BF87DA0F0DAB623C72E66CA1200F4454AA3B9CA30F436275428B7C SWAP2 PUSH1 0xF SLOAD SWAP1 DUP1 PUSH1 0xF SSTORE DUP3 MLOAD SWAP2 DUP3 MSTORE PUSH1 0x20 DUP3 ADD MSTORE LOG1 STOP JUMPDEST PUSH4 0xE03264AF PUSH1 0xE0 SHL PUSH0 MSTORE PUSH1 0x4 PUSH0 REVERT JUMPDEST CALLVALUE PUSH2 0x47B JUMPI PUSH0 CALLDATASIZE PUSH1 0x3 NOT ADD SLT PUSH2 0x47B JUMPI PUSH1 0x40 DUP1 MLOAD PUSH4 0x657711F5 PUSH1 0xE1 SHL DUP2 MSTORE PUSH0 PUSH1 0x20 DUP3 ADD MSTORE RETURN JUMPDEST PUSH1 0x24 CALLDATALOAD SWAP1 DUP2 ISZERO ISZERO DUP3 SUB PUSH2 0x47B JUMPI JUMP JUMPDEST CALLDATALOAD SWAP1 DUP2 ISZERO ISZERO DUP3 SUB PUSH2 0x47B JUMPI JUMP JUMPDEST CALLVALUE PUSH2 0x47B JUMPI PUSH1 0x20 CALLDATASIZE PUSH1 0x3 NOT ADD SLT PUSH2 0x47B JUMPI PUSH1 0x4 CALLDATALOAD DUP1 ISZERO ISZERO DUP1 SWAP2 SUB PUSH2 0x47B JUMPI PUSH1 0x20 PUSH32 0x867006957979DAA4AA88EB4157C1262555F712BC61EC3D0046C5A49A2C190B45 SWAP2 PUSH2 0x907 PUSH2 0x4370 JUMP JUMPDEST PUSH1 0xFF NOT PUSH1 0x13 SLOAD AND PUSH1 0xFF DUP3 AND OR PUSH1 0x13 SSTORE PUSH1 0x40 MLOAD SWAP1 DUP2 MSTORE LOG1 STOP JUMPDEST CALLVALUE PUSH2 0x47B JUMPI PUSH0 CALLDATASIZE PUSH1 0x3 NOT ADD SLT PUSH2 0x47B JUMPI PUSH0 SLOAD PUSH1 0x1 SLOAD PUSH1 0x20 SWAP2 SUB PUSH0 NOT ADD PUSH1 0x40 MLOAD SWAP1 DUP2 MSTORE RETURN JUMPDEST CALLVALUE PUSH2 0x47B JUMPI PUSH0 PUSH1 0xE0 CALLDATASIZE PUSH1 0x3 NOT ADD SLT PUSH2 0x47B JUMPI PUSH1 0x4 CALLDATALOAD PUSH2 0x961 DUP2 PUSH2 0x712 JUMP JUMPDEST PUSH1 0xC0 CALLDATASIZE PUSH1 0x23 NOT ADD SLT PUSH2 0x47B JUMPI PUSH2 0x975 PUSH2 0x4349 JUMP JUMPDEST PUSH2 0x97E DUP2 PUSH2 0x4384 JUMP JUMPDEST PUSH1 0x1 PUSH1 0x1 PUSH1 0xA0 SHL SUB AND DUP1 EXTCODESIZE ISZERO PUSH2 0x47B JUMPI PUSH0 DUP1 SWAP2 PUSH1 0xC4 PUSH1 0x40 MLOAD DUP1 SWAP5 DUP2 SWAP4 PUSH4 0x1308E65 PUSH1 0xE0 SHL DUP4 MSTORE PUSH2 0x9B0 PUSH1 0x4 DUP5 ADD PUSH2 0x3453 JUMP JUMPDEST GAS CALL DUP1 ISZERO PUSH2 0x9CE JUMPI PUSH2 0x9C0 JUMPI POP DUP1 RETURN JUMPDEST PUSH2 0x9CC SWAP2 POP PUSH0 SWAP1 PUSH2 0xFE5 JUMP JUMPDEST STOP JUMPDEST PUSH2 0x34E1 JUMP JUMPDEST CALLVALUE PUSH2 0x47B JUMPI PUSH0 CALLDATASIZE PUSH1 0x3 NOT ADD SLT PUSH2 0x47B JUMPI PUSH1 0x20 PUSH1 0xFF PUSH1 0x16 SLOAD AND PUSH1 0x40 MLOAD SWAP1 ISZERO ISZERO DUP2 MSTORE RETURN JUMPDEST CALLVALUE PUSH2 0x47B JUMPI PUSH0 CALLDATASIZE PUSH1 0x3 NOT ADD SLT PUSH2 0x47B JUMPI PUSH2 0xA0D PUSH2 0x4370 JUMP JUMPDEST PUSH1 0x1 PUSH1 0x1 PUSH1 0x60 SHL SUB PUSH1 0xA0 SHL PUSH1 0xB SLOAD AND PUSH1 0xB SSTORE PUSH32 0x11A3CF439FB225BFE74225716B6774765670EC1060E3796802E62139D69974DA PUSH1 0x20 PUSH1 0x40 MLOAD PUSH0 DUP2 MSTORE LOG1 STOP JUMPDEST PUSH1 0x60 SWAP1 PUSH1 0x3 NOT ADD SLT PUSH2 0x47B JUMPI PUSH1 0x4 CALLDATALOAD PUSH2 0xA63 DUP2 PUSH2 0x712 JUMP JUMPDEST SWAP1 PUSH1 0x24 CALLDATALOAD PUSH2 0xA70 DUP2 PUSH2 0x712 JUMP JUMPDEST SWAP1 PUSH1 0x44 CALLDATALOAD SWAP1 JUMP JUMPDEST PUSH2 0x9CC PUSH2 0xA83 CALLDATASIZE PUSH2 0xA4B JUMP JUMPDEST SWAP2 PUSH2 0x34EC JUMP JUMPDEST CALLVALUE PUSH2 0x47B JUMPI PUSH1 0x40 CALLDATASIZE PUSH1 0x3 NOT ADD SLT PUSH2 0x47B JUMPI PUSH1 0x24 CALLDATALOAD PUSH1 0x10 SLOAD DUP1 PUSH1 0xA0 SHR SWAP2 DUP3 DUP2 MUL SWAP3 DUP2 DUP5 DIV EQ SWAP1 ISZERO OR ISZERO PUSH2 0xAD3 JUMPI PUSH1 0x40 DUP1 MLOAD PUSH1 0x1 PUSH1 0x1 PUSH1 0xA0 SHL SUB SWAP1 SWAP3 AND DUP3 MSTORE PUSH2 0x2710 SWAP1 SWAP3 DIV PUSH1 0x20 DUP3 ADD MSTORE RETURN JUMPDEST PUSH2 0x365B JUMP JUMPDEST CALLVALUE PUSH2 0x47B JUMPI PUSH0 PUSH1 0x40 CALLDATASIZE PUSH1 0x3 NOT ADD SLT PUSH2 0x47B JUMPI PUSH1 0x4 CALLDATALOAD PUSH2 0xAF6 DUP2 PUSH2 0x712 JUMP JUMPDEST PUSH1 0x24 CALLDATALOAD SWAP1 PUSH1 0x1 PUSH1 0x1 PUSH1 0x40 SHL SUB DUP3 GT PUSH2 0x47B JUMPI PUSH1 0x60 PUSH1 0x3 NOT DUP4 CALLDATASIZE SUB ADD SLT PUSH2 0x47B JUMPI PUSH2 0xB1E PUSH2 0x4349 JUMP JUMPDEST PUSH2 0xB27 DUP2 PUSH2 0x4384 JUMP JUMPDEST PUSH1 0x1 PUSH1 0x1 PUSH1 0xA0 SHL SUB AND DUP1 EXTCODESIZE ISZERO PUSH2 0x47B JUMPI PUSH2 0xB66 PUSH0 SWAP3 SWAP2 DUP4 SWAP3 PUSH1 0x40 MLOAD SWAP5 DUP6 DUP1 SWAP5 DUP2 SWAP4 PUSH4 0xEBB4A55F PUSH1 0xE0 SHL DUP4 MSTORE PUSH1 0x20 PUSH1 0x4 DUP5 ADD MSTORE PUSH1 0x24 DUP4 ADD SWAP1 PUSH1 0x4 ADD PUSH2 0x36C0 JUMP JUMPDEST SUB SWAP3 GAS CALL DUP1 ISZERO PUSH2 0x9CE JUMPI PUSH2 0x9C0 JUMPI POP DUP1 RETURN JUMPDEST CALLVALUE PUSH2 0x47B JUMPI PUSH0 CALLDATASIZE PUSH1 0x3 NOT ADD SLT PUSH2 0x47B JUMPI PUSH1 0x20 PUSH1 0x10 SLOAD PUSH1 0xA0 SHR PUSH1 0x40 MLOAD SWAP1 DUP2 MSTORE RETURN JUMPDEST PUSH2 0x9CC PUSH2 0xBA4 CALLDATASIZE PUSH2 0xA4B JUMP JUMPDEST SWAP1 PUSH1 0x40 MLOAD SWAP3 PUSH2 0xBB4 PUSH1 0x20 DUP6 PUSH2 0xFE5 JUMP JUMPDEST PUSH0 DUP5 MSTORE PUSH2 0x41FB JUMP JUMPDEST CALLVALUE PUSH2 0x47B JUMPI PUSH1 0x20 CALLDATASIZE PUSH1 0x3 NOT ADD SLT PUSH2 0x47B JUMPI PUSH1 0x4 CALLDATALOAD PUSH2 0xBD9 DUP2 PUSH2 0x43B5 JUMP JUMPDEST PUSH0 DUP3 DUP2 MSTORE PUSH1 0x6 PUSH1 0x20 MSTORE PUSH1 0x40 SWAP1 KECCAK256 DUP1 SLOAD SWAP2 PUSH1 0x1 PUSH1 0x1 PUSH1 0xA0 SHL SUB DUP2 AND SWAP2 CALLER DUP1 DUP5 EQ SWAP1 DUP6 EQ OR ISZERO PUSH2 0xC06 JUMP JUMPDEST ISZERO SWAP1 JUMP JUMPDEST PUSH2 0xD06 JUMPI JUMPDEST PUSH0 SWAP4 PUSH2 0xC17 DUP7 DUP6 PUSH2 0x4420 JUMP JUMPDEST PUSH2 0xCFD JUMPI JUMPDEST POP PUSH1 0x1 PUSH1 0x1 PUSH1 0xA0 SHL SUB DUP3 AND PUSH0 SWAP1 DUP2 MSTORE PUSH1 0x5 PUSH1 0x20 MSTORE PUSH1 0x40 SWAP1 KECCAK256 DUP1 SLOAD PUSH16 0xFFFFFFFFFFFFFFFFFFFFFFFFFFFFFFFF ADD SWAP1 SSTORE PUSH1 0x1 PUSH1 0x1 PUSH1 0xA0 SHL SUB DUP3 AND TIMESTAMP PUSH1 0xA0 SHL OR PUSH1 0x3 PUSH1 0xE0 SHL OR PUSH2 0xC71 DUP6 PUSH0 MSTORE PUSH1 0x4 PUSH1 0x20 MSTORE PUSH1 0x40 PUSH0 KECCAK256 SWAP1 JUMP JUMPDEST SSTORE PUSH1 0x1 PUSH1 0xE1 SHL DUP2 AND ISZERO PUSH2 0xCB8 JUMPI JUMPDEST POP PUSH32 0xDDF252AD1BE2C89B69C2B068FC378DAA952BA7F163C4A11628F55A4DF523B3EF DUP3 DUP1 LOG4 PUSH2 0x9CC PUSH2 0xCB3 PUSH1 0x1 SLOAD PUSH1 0x1 ADD SWAP1 JUMP JUMPDEST PUSH1 0x1 SSTORE JUMP JUMPDEST PUSH1 0x1 DUP5 ADD PUSH2 0xCCE DUP2 PUSH0 MSTORE PUSH1 0x4 PUSH1 0x20 MSTORE PUSH1 0x40 PUSH0 KECCAK256 SWAP1 JUMP JUMPDEST SLOAD ISZERO PUSH2 0xCDB JUMPI JUMPDEST POP PUSH2 0xC7F JUMP JUMPDEST DUP4 SLOAD DUP2 EQ PUSH2 0xCD5 JUMPI PUSH2 0xCF5 SWAP1 PUSH0 MSTORE PUSH1 0x4 PUSH1 0x20 MSTORE PUSH1 0x40 PUSH0 KECCAK256 SWAP1 JUMP JUMPDEST SSTORE PUSH0 DUP1 PUSH2 0xCD5 JUMP JUMPDEST DUP4 SWAP1 SSTORE PUSH0 PUSH2 0xC1C JUMP JUMPDEST PUSH2 0xD13 PUSH2 0xC02 CALLER DUP6 PUSH2 0x424D JUMP JUMPDEST ISZERO PUSH2 0xC0B JUMPI PUSH2 0x42F1 JUMP JUMPDEST CALLVALUE PUSH2 0x47B JUMPI PUSH1 0x40 CALLDATASIZE PUSH1 0x3 NOT ADD SLT PUSH2 0x47B JUMPI PUSH2 0xD36 PUSH2 0x4349 JUMP JUMPDEST PUSH1 0x4 CALLDATALOAD PUSH2 0xD42 DUP2 PUSH2 0x712 JUMP JUMPDEST PUSH1 0x1 PUSH1 0x1 PUSH1 0xA0 SHL SUB AND ISZERO PUSH2 0xDF0 JUMPI PUSH2 0x2710 PUSH1 0x1 PUSH1 0x1 PUSH1 0x60 SHL SUB PUSH2 0xD63 PUSH2 0x3795 JUMP JUMPDEST AND GT PUSH2 0xDCD JUMPI PUSH2 0xD71 PUSH2 0x37AB JUMP JUMPDEST PUSH32 0xF21FCCF4D64D86D532C4E4EB86C007B6AD57A460C27D724188625E755EC6CF6D PUSH2 0xD9A PUSH2 0x377F JUMP JUMPDEST PUSH2 0xDA2 PUSH2 0x3795 JUMP JUMPDEST PUSH1 0x40 DUP1 MLOAD PUSH1 0x1 PUSH1 0x1 PUSH1 0xA0 SHL SUB SWAP1 SWAP4 AND DUP4 MSTORE PUSH1 0x1 PUSH1 0x1 PUSH1 0x60 SHL SUB SWAP1 SWAP2 AND PUSH1 0x20 DUP4 ADD MSTORE DUP2 SWAP1 DUP2 ADD JUMPDEST SUB SWAP1 LOG1 STOP JUMPDEST PUSH1 0x1 PUSH1 0x1 PUSH1 0x60 SHL SUB PUSH2 0xDDD PUSH2 0x3795 JUMP JUMPDEST PUSH4 0x3CADBAFB PUSH1 0xE0 SHL PUSH0 MSTORE AND PUSH1 0x4 MSTORE PUSH1 0x24 PUSH0 REVERT JUMPDEST PUSH4 0x1CC0BAEF PUSH1 0xE0 SHL PUSH0 MSTORE PUSH1 0x4 PUSH0 REVERT JUMPDEST CALLVALUE PUSH2 0x47B JUMPI PUSH0 CALLDATASIZE PUSH1 0x3 NOT ADD SLT PUSH2 0x47B JUMPI PUSH1 0x20 PUSH1 0xFF PUSH1 0x13 SLOAD AND PUSH1 0x40 MLOAD SWAP1 ISZERO ISZERO DUP2 MSTORE RETURN JUMPDEST CALLVALUE PUSH2 0x47B JUMPI PUSH1 0x40 CALLDATASIZE PUSH1 0x3 NOT ADD SLT PUSH2 0x47B JUMPI PUSH1 0x4 CALLDATALOAD PUSH2 0xE3E DUP2 PUSH2 0x712 JUMP JUMPDEST PUSH1 0x24 CALLDATALOAD PUSH2 0xE49 PUSH2 0x4370 JUMP JUMPDEST ADDRESS PUSH9 0x929EEE149B4BD21268 SLOAD EQ PUSH2 0xEDE JUMPI ADDRESS PUSH9 0x929EEE149B4BD21268 SSTORE PUSH1 0x13 SLOAD SWAP2 PUSH2 0xFFFF DUP4 PUSH1 0xA8 SHR AND DUP3 DUP2 LT PUSH2 0xECF JUMPI PUSH2 0xFFFF DUP4 AND SWAP1 SUB SWAP3 PUSH2 0xFFFF DUP5 GT PUSH2 0xAD3 JUMPI PUSH2 0xFFFF PUSH1 0xA8 SHL NOT AND PUSH1 0xA8 SWAP4 SWAP1 SWAP4 SHL PUSH2 0xFFFF PUSH1 0xA8 SHL AND SWAP3 SWAP1 SWAP3 OR PUSH1 0x13 SSTORE PUSH2 0xEC1 SWAP2 PUSH2 0xEB3 DUP3 PUSH2 0x4597 JUMP JUMPDEST PUSH2 0xEBC DUP3 PUSH2 0x45DD JUMP JUMPDEST PUSH2 0x464B JUMP JUMPDEST CODESIZE PUSH9 0x929EEE149B4BD21268 SSTORE STOP JUMPDEST PUSH4 0x6514503 PUSH1 0xE5 SHL PUSH0 MSTORE PUSH1 0x4 PUSH0 REVERT JUMPDEST PUSH4 0xAB143C06 PUSH0 MSTORE PUSH1 0x4 PUSH1 0x1C REVERT JUMPDEST PUSH1 0x60 SWAP1 PUSH1 0x3 NOT ADD SLT PUSH2 0x47B JUMPI PUSH1 0x4 CALLDATALOAD PUSH2 0xF03 DUP2 PUSH2 0x712 JUMP JUMPDEST SWAP1 PUSH1 0x24 CALLDATALOAD PUSH2 0xF10 DUP2 PUSH2 0x712 JUMP JUMPDEST SWAP1 PUSH1 0x44 CALLDATALOAD DUP1 ISZERO ISZERO DUP2 SUB PUSH2 0x47B JUMPI SWAP1 JUMP JUMPDEST CALLVALUE PUSH2 0x47B JUMPI PUSH2 0xF2E CALLDATASIZE PUSH2 0xEEB JUMP JUMPDEST SWAP1 SWAP2 PUSH2 0xF38 PUSH2 0x4349 JUMP JUMPDEST PUSH2 0xF41 DUP2 PUSH2 0x4384 JUMP JUMPDEST PUSH1 0x1 PUSH1 0x1 PUSH1 0xA0 SHL SUB AND SWAP2 DUP3 EXTCODESIZE ISZERO PUSH2 0x47B JUMPI PUSH1 0x40 MLOAD PUSH4 0x8E7D1E43 PUSH1 0xE0 SHL DUP2 MSTORE PUSH1 0x1 PUSH1 0x1 PUSH1 0xA0 SHL SUB SWAP1 SWAP2 AND PUSH1 0x4 DUP3 ADD MSTORE SWAP1 ISZERO ISZERO PUSH1 0x24 DUP3 ADD MSTORE PUSH0 DUP2 PUSH1 0x44 DUP2 ADD JUMPDEST SWAP4 DUP2 DUP4 DUP2 DUP2 SWAP8 SUB SWAP3 GAS CALL DUP1 ISZERO PUSH2 0x9CE JUMPI PUSH2 0x9C0 JUMPI POP DUP1 RETURN JUMPDEST PUSH4 0x4E487B71 PUSH1 0xE0 SHL PUSH0 MSTORE PUSH1 0x41 PUSH1 0x4 MSTORE PUSH1 0x24 PUSH0 REVERT JUMPDEST PUSH1 0xE0 DUP2 ADD SWAP1 DUP2 LT PUSH1 0x1 PUSH1 0x1 PUSH1 0x40 SHL SUB DUP3 GT OR PUSH2 0xFC5 JUMPI PUSH1 0x40 MSTORE JUMP JUMPDEST PUSH2 0xF96 JUMP JUMPDEST PUSH1 0x80 DUP2 ADD SWAP1 DUP2 LT PUSH1 0x1 PUSH1 0x1 PUSH1 0x40 SHL SUB DUP3 GT OR PUSH2 0xFC5 JUMPI PUSH1 0x40 MSTORE JUMP JUMPDEST SWAP1 PUSH1 0x1F DUP1 NOT SWAP2 ADD AND DUP2 ADD SWAP1 DUP2 LT PUSH1 0x1 PUSH1 0x1 PUSH1 0x40 SHL SUB DUP3 GT OR PUSH2 0xFC5 JUMPI PUSH1 0x40 MSTORE JUMP JUMPDEST PUSH1 0x40 MLOAD SWAP1 PUSH2 0x1015 PUSH1 0x80 DUP4 PUSH2 0xFE5 JUMP JUMPDEST JUMP JUMPDEST PUSH1 0x44 CALLDATALOAD SWAP1 PUSH1 0x1 PUSH1 0x1 PUSH1 0x50 SHL SUB DUP3 AND DUP3 SUB PUSH2 0x47B JUMPI JUMP JUMPDEST CALLDATALOAD SWAP1 PUSH1 0x1 PUSH1 0x1 PUSH1 0x50 SHL SUB DUP3 AND DUP3 SUB PUSH2 0x47B JUMPI JUMP JUMPDEST PUSH1 0x64 CALLDATALOAD SWAP1 PUSH3 0xFFFFFF DUP3 AND DUP3 SUB PUSH2 0x47B JUMPI JUMP JUMPDEST CALLDATALOAD SWAP1 PUSH3 0xFFFFFF DUP3 AND DUP3 SUB PUSH2 0x47B JUMPI JUMP JUMPDEST PUSH1 0x84 CALLDATALOAD SWAP1 PUSH5 0xFFFFFFFFFF DUP3 AND DUP3 SUB PUSH2 0x47B JUMPI JUMP JUMPDEST PUSH1 0xA4 CALLDATALOAD SWAP1 PUSH5 0xFFFFFFFFFF DUP3 AND DUP3 SUB PUSH2 0x47B JUMPI JUMP JUMPDEST PUSH1 0xC4 CALLDATALOAD SWAP1 PUSH5 0xFFFFFFFFFF DUP3 AND DUP3 SUB PUSH2 0x47B JUMPI JUMP JUMPDEST CALLDATALOAD SWAP1 PUSH5 0xFFFFFFFFFF DUP3 AND DUP3 SUB PUSH2 0x47B JUMPI JUMP JUMPDEST PUSH1 0xE4 CALLDATALOAD SWAP1 PUSH2 0xFFFF DUP3 AND DUP3 SUB PUSH2 0x47B JUMPI JUMP JUMPDEST PUSH2 0x104 CALLDATALOAD SWAP1 PUSH2 0xFFFF DUP3 AND DUP3 SUB PUSH2 0x47B JUMPI JUMP JUMPDEST CALLDATALOAD SWAP1 PUSH2 0xFFFF DUP3 AND DUP3 SUB PUSH2 0x47B JUMPI JUMP JUMPDEST CALLVALUE PUSH2 0x47B JUMPI PUSH2 0x120 CALLDATASIZE PUSH1 0x3 NOT ADD SLT PUSH2 0x47B JUMPI PUSH1 0x4 CALLDATALOAD PUSH2 0x1101 DUP2 PUSH2 0x712 JUMP JUMPDEST PUSH1 0x24 CALLDATALOAD SWAP1 PUSH2 0x110E DUP3 PUSH2 0x712 JUMP JUMPDEST PUSH1 0xE0 CALLDATASIZE PUSH1 0x43 NOT ADD SLT PUSH2 0x47B JUMPI PUSH2 0x9CC SWAP2 PUSH1 0x40 MLOAD SWAP2 PUSH2 0x112B DUP4 PUSH2 0xFAA JUMP JUMPDEST PUSH2 0x1133 PUSH2 0x1017 JUMP JUMPDEST DUP4 MSTORE PUSH2 0x113D PUSH2 0x1041 JUMP JUMPDEST PUSH1 0x20 DUP5 ADD MSTORE PUSH2 0x114A PUSH2 0x1063 JUMP JUMPDEST PUSH1 0x40 DUP5 ADD MSTORE PUSH2 0x1157 PUSH2 0x1077 JUMP JUMPDEST PUSH1 0x60 DUP5 ADD MSTORE PUSH2 0x1164 PUSH2 0x108B JUMP JUMPDEST PUSH1 0x80 DUP5 ADD MSTORE PUSH2 0x1171 PUSH2 0x10B1 JUMP JUMPDEST PUSH1 0xA0 DUP5 ADD MSTORE PUSH2 0x117E PUSH2 0x10C2 JUMP JUMPDEST PUSH1 0xC0 DUP5 ADD MSTORE PUSH2 0x3881 JUMP JUMPDEST SWAP2 DUP2 PUSH1 0x1F DUP5 ADD SLT ISZERO PUSH2 0x47B JUMPI DUP3 CALLDATALOAD SWAP2 PUSH1 0x1 PUSH1 0x1 PUSH1 0x40 SHL SUB DUP4 GT PUSH2 0x47B JUMPI PUSH1 0x20 DUP4 DUP2 DUP7 ADD SWAP6 ADD ADD GT PUSH2 0x47B JUMPI JUMP JUMPDEST PUSH1 0x20 PUSH1 0x3 NOT DUP3 ADD SLT PUSH2 0x47B JUMPI PUSH1 0x4 CALLDATALOAD SWAP1 PUSH1 0x1 PUSH1 0x1 PUSH1 0x40 SHL SUB DUP3 GT PUSH2 0x47B JUMPI PUSH2 0x11DF SWAP2 PUSH1 0x4 ADD PUSH2 0x1188 JUMP JUMPDEST SWAP1 SWAP2 JUMP JUMPDEST CALLVALUE PUSH2 0x47B JUMPI PUSH2 0x11F1 CALLDATASIZE PUSH2 0x11B5 JUMP JUMPDEST PUSH2 0x11F9 PUSH2 0x4349 JUMP JUMPDEST PUSH1 0x1 PUSH1 0x1 PUSH1 0x40 SHL SUB DUP2 GT PUSH2 0xFC5 JUMPI PUSH2 0x121B DUP2 PUSH2 0x1216 PUSH1 0xD SLOAD PUSH2 0x2FC1 JUMP JUMPDEST PUSH2 0x3910 JUMP JUMPDEST PUSH0 PUSH1 0x1F DUP3 GT PUSH1 0x1 EQ PUSH2 0x12AE JUMPI DUP2 SWAP1 PUSH2 0x1248 SWAP4 PUSH0 SWAP3 PUSH2 0x12A3 JUMPI JUMPDEST POP POP DUP2 PUSH1 0x1 SHL SWAP2 PUSH0 NOT SWAP1 PUSH1 0x3 SHL SHR NOT AND OR SWAP1 JUMP JUMPDEST PUSH1 0xD SSTORE JUMPDEST PUSH0 SLOAD PUSH1 0x1 SLOAD SWAP1 SUB PUSH0 NOT ADD JUMPDEST PUSH2 0x125D JUMPI STOP JUMPDEST PUSH32 0x6BD5C950A8D8DF17F772F5AF37CB3655737899CBF903264B9795592DA439661C PUSH2 0xDC8 PUSH2 0x128B PUSH0 SLOAD PUSH2 0x3AD9 JUMP JUMPDEST PUSH1 0x40 MLOAD SWAP2 DUP3 SWAP2 DUP3 SWAP2 SWAP1 PUSH1 0x20 PUSH1 0x40 DUP5 ADD SWAP4 PUSH1 0x1 DUP2 MSTORE ADD MSTORE JUMP JUMPDEST ADD CALLDATALOAD SWAP1 POP PUSH0 DUP1 PUSH2 0x1234 JUMP JUMPDEST PUSH1 0xD PUSH0 MSTORE PUSH1 0x1F NOT DUP3 AND SWAP3 PUSH32 0xD7B6990105719101DABEB77144F2A3385C8033ACD3AF97E9423A695E81AD1EB5 SWAP2 PUSH0 JUMPDEST DUP6 DUP2 LT PUSH2 0x1315 JUMPI POP DUP4 PUSH1 0x1 SWAP6 LT PUSH2 0x12FC JUMPI JUMPDEST POP POP POP DUP2 SHL ADD PUSH1 0xD SSTORE PUSH2 0x124C JUMP JUMPDEST ADD CALLDATALOAD PUSH0 NOT PUSH1 0x3 DUP5 SWAP1 SHL PUSH1 0xF8 AND SHR NOT AND SWAP1 SSTORE PUSH0 DUP1 DUP1 PUSH2 0x12EE JUMP JUMPDEST SWAP1 SWAP3 PUSH1 0x20 PUSH1 0x1 DUP2 SWAP3 DUP7 DUP7 ADD CALLDATALOAD DUP2 SSTORE ADD SWAP5 ADD SWAP2 ADD PUSH2 0x12DC JUMP JUMPDEST CALLVALUE PUSH2 0x47B JUMPI PUSH1 0x20 CALLDATASIZE PUSH1 0x3 NOT ADD SLT PUSH2 0x47B JUMPI PUSH1 0x4 CALLDATALOAD PUSH2 0x134A DUP2 PUSH2 0x712 JUMP JUMPDEST PUSH2 0x1352 PUSH2 0x4370 JUMP JUMPDEST PUSH1 0x13 DUP1 SLOAD PUSH2 0x100 PUSH1 0x1 PUSH1 0xA8 SHL SUB NOT AND PUSH1 0x8 SWAP3 SWAP1 SWAP3 SHL PUSH2 0x100 PUSH1 0x1 PUSH1 0xA8 SHL SUB AND SWAP2 SWAP1 SWAP2 OR SWAP1 SSTORE PUSH0 SLOAD PUSH1 0x1 SLOAD SWAP1 SUB PUSH0 NOT ADD PUSH2 0x1387 JUMPI STOP JUMPDEST PUSH0 SLOAD PUSH0 NOT DUP2 ADD SWAP1 DUP2 GT PUSH2 0xAD3 JUMPI PUSH1 0x40 PUSH32 0x6BD5C950A8D8DF17F772F5AF37CB3655737899CBF903264B9795592DA439661C SWAP2 DUP2 MLOAD SWAP1 PUSH1 0x1 DUP3 MSTORE PUSH1 0x20 DUP3 ADD MSTORE LOG1 STOP JUMPDEST CALLVALUE PUSH2 0x47B JUMPI PUSH0 CALLDATASIZE PUSH1 0x3 NOT ADD SLT PUSH2 0x47B JUMPI PUSH1 0x20 PUSH2 0xFFFF PUSH1 0x13 SLOAD PUSH1 0xA8 SHR AND PUSH1 0x40 MLOAD SWAP1 DUP2 MSTORE RETURN JUMPDEST CALLVALUE PUSH2 0x47B JUMPI PUSH1 0x20 CALLDATASIZE PUSH1 0x3 NOT ADD SLT PUSH2 0x47B JUMPI PUSH1 0x4 CALLDATALOAD PUSH1 0x1 PUSH1 0x1 PUSH1 0x40 SHL SUB DUP2 GT PUSH2 0x47B JUMPI CALLDATASIZE PUSH1 0x23 DUP3 ADD SLT ISZERO PUSH2 0x47B JUMPI DUP1 PUSH1 0x4 ADD CALLDATALOAD PUSH1 0x1 PUSH1 0x1 PUSH1 0x40 SHL SUB DUP2 GT PUSH2 0x47B JUMPI CALLDATASIZE PUSH1 0x24 DUP3 PUSH1 0x5 SHL DUP5 ADD ADD GT PUSH2 0x47B JUMPI PUSH1 0x24 PUSH2 0x9CC SWAP3 ADD PUSH2 0x3AF4 JUMP JUMPDEST CALLVALUE PUSH2 0x47B JUMPI PUSH1 0x20 CALLDATASIZE PUSH1 0x3 NOT ADD SLT PUSH2 0x47B JUMPI PUSH1 0x20 PUSH1 0x1 PUSH1 0x1 PUSH1 0xA0 SHL SUB PUSH2 0x146C PUSH1 0x4 CALLDATALOAD PUSH2 0x43B5 JUMP JUMPDEST AND PUSH1 0x40 MLOAD SWAP1 DUP2 MSTORE RETURN JUMPDEST CALLVALUE PUSH2 0x47B JUMPI PUSH1 0x40 CALLDATASIZE PUSH1 0x3 NOT ADD SLT PUSH2 0x47B JUMPI PUSH1 0x4 CALLDATALOAD PUSH2 0x1492 DUP2 PUSH2 0x712 JUMP JUMPDEST PUSH1 0x24 CALLDATALOAD ADDRESS PUSH9 0x929EEE149B4BD21268 SLOAD EQ PUSH2 0xEDE JUMPI ADDRESS PUSH9 0x929EEE149B4BD21268 SSTORE PUSH2 0x14BB CALLER PUSH2 0x4384 JUMP JUMPDEST PUSH0 SLOAD PUSH0 NOT ADD SWAP2 DUP2 DUP4 ADD DUP1 SWAP4 GT PUSH2 0xAD3 JUMPI PUSH1 0xC SLOAD DUP1 SWAP4 GT PUSH2 0x14DF JUMPI PUSH2 0xEC1 SWAP3 POP PUSH2 0x464B JUMP JUMPDEST POP PUSH0 SLOAD PUSH0 NOT ADD SWAP1 DUP2 ADD DUP1 SWAP2 GT PUSH2 0xAD3 JUMPI PUSH4 0x384B48C5 PUSH1 0xE2 SHL PUSH0 MSTORE PUSH1 0x4 MSTORE PUSH1 0x24 MSTORE PUSH1 0x44 PUSH0 REVERT JUMPDEST CALLVALUE PUSH2 0x47B JUMPI PUSH0 CALLDATASIZE PUSH1 0x3 NOT ADD SLT PUSH2 0x47B JUMPI PUSH2 0x151C PUSH2 0x4370 JUMP JUMPDEST PUSH1 0x16 DUP1 SLOAD PUSH1 0xFF NOT AND PUSH1 0x1 OR SWAP1 SSTORE STOP JUMPDEST PUSH1 0x40 SWAP1 PUSH1 0x3 NOT ADD SLT PUSH2 0x47B JUMPI PUSH1 0x4 CALLDATALOAD PUSH2 0x1543 DUP2 PUSH2 0x712 JUMP JUMPDEST SWAP1 PUSH1 0x24 CALLDATALOAD PUSH2 0x5CD DUP2 PUSH2 0x712 JUMP JUMPDEST CALLVALUE PUSH2 0x47B JUMPI PUSH2 0x155E CALLDATASIZE PUSH2 0x152B JUMP JUMPDEST SWAP1 PUSH2 0x1567 PUSH2 0x4349 JUMP JUMPDEST PUSH2 0x1570 DUP2 PUSH2 0x4384 JUMP JUMPDEST PUSH1 0x1 PUSH1 0x1 PUSH1 0xA0 SHL SUB AND DUP1 EXTCODESIZE ISZERO PUSH2 0x47B JUMPI PUSH1 0x40 MLOAD PUSH4 0x24E71B7 PUSH1 0xE3 SHL DUP2 MSTORE PUSH1 0x1 PUSH1 0x1 PUSH1 0xA0 SHL SUB SWAP1 SWAP3 AND PUSH1 0x4 DUP4 ADD MSTORE PUSH0 SWAP2 SWAP1 DUP3 SWAP1 DUP3 SWAP1 PUSH1 0x24 SWAP1 DUP3 SWAP1 DUP5 SWAP1 GAS CALL DUP1 ISZERO PUSH2 0x9CE JUMPI PUSH2 0x9C0 JUMPI POP DUP1 RETURN JUMPDEST CALLVALUE PUSH2 0x47B JUMPI PUSH0 CALLDATASIZE PUSH1 0x3 NOT ADD SLT PUSH2 0x47B JUMPI PUSH1 0x40 MLOAD PUSH0 PUSH1 0xD SLOAD PUSH2 0x15DB DUP2 PUSH2 0x2FC1 JUMP JUMPDEST DUP1 DUP5 MSTORE SWAP1 PUSH1 0x1 DUP2 AND SWAP1 DUP2 ISZERO PUSH2 0x682 JUMPI POP PUSH1 0x1 EQ PUSH2 0x1602 JUMPI PUSH2 0x4D4 DUP4 PUSH2 0x618 DUP2 DUP6 SUB DUP3 PUSH2 0xFE5 JUMP JUMPDEST PUSH1 0xD PUSH0 SWAP1 DUP2 MSTORE PUSH32 0xD7B6990105719101DABEB77144F2A3385C8033ACD3AF97E9423A695E81AD1EB5 SWAP4 SWAP3 POP SWAP1 JUMPDEST DUP1 DUP3 LT PUSH2 0x1646 JUMPI POP SWAP1 SWAP2 POP DUP2 ADD PUSH1 0x20 ADD PUSH2 0x618 PUSH2 0x608 JUMP JUMPDEST SWAP2 SWAP3 PUSH1 0x1 DUP2 PUSH1 0x20 SWAP3 SLOAD DUP4 DUP6 DUP9 ADD ADD MSTORE ADD SWAP2 ADD SWAP1 SWAP3 SWAP2 PUSH2 0x162E JUMP JUMPDEST CALLVALUE PUSH2 0x47B JUMPI PUSH1 0x20 CALLDATASIZE PUSH1 0x3 NOT ADD SLT PUSH2 0x47B JUMPI PUSH1 0x4 CALLDATALOAD PUSH2 0x167C PUSH2 0x4370 JUMP JUMPDEST PUSH0 SLOAD PUSH0 NOT ADD PUSH1 0xC SLOAD GT PUSH2 0x16F0 JUMPI PUSH0 SLOAD PUSH0 NOT ADD DUP2 LT PUSH2 0x16E1 JUMPI PUSH1 0x20 DUP2 PUSH32 0x7810BD47DE260C3E9EE10061CF438099DD12256C79485F12F94DBCCC981E806C SWAP3 PUSH1 0xC SSTORE PUSH1 0xFF PUSH1 0x16 SLOAD PUSH1 0x10 SHR AND PUSH2 0x16D3 JUMPI JUMPDEST PUSH1 0x40 MLOAD SWAP1 DUP2 MSTORE LOG1 STOP JUMPDEST PUSH2 0x16DC DUP2 PUSH2 0x489C JUMP JUMPDEST PUSH2 0x16CA JUMP JUMPDEST PUSH4 0x9CF1DEE5 PUSH1 0xE0 SHL PUSH0 MSTORE PUSH1 0x4 PUSH0 REVERT JUMPDEST PUSH4 0x29B63E1 PUSH1 0xE3 SHL PUSH0 MSTORE PUSH1 0x4 PUSH0 REVERT JUMPDEST CALLVALUE PUSH2 0x47B JUMPI PUSH1 0x20 CALLDATASIZE PUSH1 0x3 NOT ADD SLT PUSH2 0x47B JUMPI PUSH1 0x4 CALLDATALOAD PUSH2 0x171C DUP2 PUSH2 0x712 JUMP JUMPDEST PUSH1 0x1 PUSH1 0x1 PUSH1 0xA0 SHL SUB AND DUP1 ISZERO PUSH2 0x174A JUMPI PUSH0 MSTORE PUSH1 0x5 PUSH1 0x20 MSTORE PUSH1 0x20 PUSH1 0x1 PUSH1 0x1 PUSH1 0x40 SHL SUB PUSH1 0x40 PUSH0 KECCAK256 SLOAD AND PUSH1 0x40 MLOAD SWAP1 DUP2 MSTORE RETURN JUMPDEST PUSH4 0x23D3AD81 PUSH1 0xE2 SHL PUSH0 MSTORE PUSH1 0x4 PUSH0 REVERT JUMPDEST CALLVALUE PUSH2 0x47B JUMPI PUSH0 CALLDATASIZE PUSH1 0x3 NOT ADD SLT PUSH2 0x47B JUMPI PUSH2 0x1771 PUSH2 0x4370 JUMP JUMPDEST PUSH1 0xA DUP1 SLOAD PUSH1 0x1 PUSH1 0x1 PUSH1 0xA0 SHL SUB NOT DUP2 AND SWAP1 SWAP2 SSTORE PUSH0 SWAP1 PUSH1 0x1 PUSH1 0x1 PUSH1 0xA0 SHL SUB AND PUSH32 0x8BE0079C531659141344CD1FD0A4F28419497F9722A3DAAFE3B4186F6B6457E0 DUP3 DUP1 LOG3 STOP JUMPDEST CALLVALUE PUSH2 0x47B JUMPI PUSH1 0x40 CALLDATASIZE PUSH1 0x3 NOT ADD SLT PUSH2 0x47B JUMPI PUSH1 0x4 CALLDATALOAD PUSH1 0x24 CALLDATALOAD PUSH2 0x17D3 PUSH2 0x4370 JUMP JUMPDEST PUSH1 0xFF PUSH1 0x16 SLOAD PUSH1 0x10 SHR AND PUSH2 0x18A6 JUMPI PUSH1 0x40 MLOAD PUSH2 0x180F DUP2 PUSH2 0x1801 PUSH1 0x20 DUP3 ADD SWAP5 DUP7 DUP7 SWAP1 SWAP2 PUSH1 0x40 SWAP3 DUP3 MSTORE PUSH1 0x20 DUP3 ADD MSTORE ADD SWAP1 JUMP JUMPDEST SUB PUSH1 0x1F NOT DUP2 ADD DUP4 MSTORE DUP3 PUSH2 0xFE5 JUMP JUMPDEST MLOAD SWAP1 KECCAK256 PUSH32 0x0 SUB PUSH2 0x1897 JUMPI PUSH2 0xDC8 DUP2 PUSH2 0x1866 PUSH32 0x6C2137E80722ED4B518B32EA50ECB69EF2C76F0451088A3C0AA79CE523BAB514 SWAP4 PUSH1 0x15 SSTORE JUMP JUMPDEST PUSH2 0x187C PUSH3 0x10000 PUSH1 0x16 SLOAD PUSH3 0xFF0000 NOT AND OR PUSH1 0x16 SSTORE JUMP JUMPDEST PUSH2 0x1887 PUSH1 0xC SLOAD PUSH2 0x489C JUMP JUMPDEST PUSH1 0x40 MLOAD SWAP1 DUP2 MSTORE SWAP1 DUP2 SWAP1 PUSH1 0x20 DUP3 ADD SWAP1 JUMP JUMPDEST PUSH4 0x3BDFC859 PUSH1 0xE1 SHL PUSH0 MSTORE PUSH1 0x4 PUSH0 REVERT JUMPDEST PUSH4 0x1104D353 PUSH1 0xE1 SHL PUSH0 MSTORE PUSH1 0x4 PUSH0 REVERT JUMPDEST CALLVALUE PUSH2 0x47B JUMPI PUSH0 CALLDATASIZE PUSH1 0x3 NOT ADD SLT PUSH2 0x47B JUMPI PUSH1 0x20 PUSH1 0xFF PUSH1 0x16 SLOAD PUSH1 0x10 SHR AND PUSH1 0x40 MLOAD SWAP1 ISZERO ISZERO DUP2 MSTORE RETURN JUMPDEST CALLVALUE PUSH2 0x47B JUMPI PUSH0 CALLDATASIZE PUSH1 0x3 NOT ADD SLT PUSH2 0x47B JUMPI PUSH1 0xB SLOAD PUSH1 0x1 PUSH1 0x1 PUSH1 0xA0 SHL SUB DUP2 AND SWAP1 CALLER DUP3 SWAP1 SUB PUSH2 0x197C JUMPI PUSH1 0x1 PUSH1 0x1 PUSH1 0x60 SHL SUB PUSH1 0xA0 SHL AND PUSH1 0xB SSTORE PUSH32 0x11A3CF439FB225BFE74225716B6774765670EC1060E3796802E62139D69974DA PUSH1 0x20 PUSH1 0x40 MLOAD PUSH0 DUP2 MSTORE LOG1 PUSH1 0xA DUP1 SLOAD PUSH1 0x1 PUSH1 0x1 PUSH1 0xA0 SHL SUB NOT DUP2 AND DUP4 OR SWAP1 SWAP2 SSTORE PUSH1 0x1 PUSH1 0x1 PUSH1 0xA0 SHL SUB AND PUSH32 0x8BE0079C531659141344CD1FD0A4F28419497F9722A3DAAFE3B4186F6B6457E0 PUSH0 DUP1 LOG3 STOP JUMPDEST PUSH4 0x6B7584E7 PUSH1 0xE1 SHL PUSH0 MSTORE PUSH1 0x4 PUSH0 REVERT JUMPDEST CALLVALUE PUSH2 0x47B JUMPI PUSH0 PUSH1 0x40 CALLDATASIZE PUSH1 0x3 NOT ADD SLT PUSH2 0x47B JUMPI PUSH1 0x4 CALLDATALOAD PUSH2 0x19A9 DUP2 PUSH2 0x712 JUMP JUMPDEST PUSH1 0x24 CALLDATALOAD PUSH1 0x1 PUSH1 0x1 PUSH1 0x40 SHL SUB DUP2 GT PUSH2 0x47B JUMPI PUSH2 0x19C8 SWAP1 CALLDATASIZE SWAP1 PUSH1 0x4 ADD PUSH2 0x1188 JUMP JUMPDEST SWAP2 PUSH2 0x19D1 PUSH2 0x4349 JUMP JUMPDEST PUSH2 0x19DA DUP2 PUSH2 0x4384 JUMP JUMPDEST PUSH1 0x1 PUSH1 0x1 PUSH1 0xA0 SHL SUB AND SWAP2 DUP3 EXTCODESIZE ISZERO PUSH2 0x47B JUMPI PUSH2 0xB66 SWAP3 PUSH0 SWAP3 DUP4 PUSH1 0x40 MLOAD DUP1 SWAP7 DUP2 SWAP6 DUP3 SWAP5 PUSH4 0xB957D0CB PUSH1 0xE0 SHL DUP5 MSTORE PUSH1 0x4 DUP5 ADD PUSH2 0x3BFB JUMP JUMPDEST CALLVALUE PUSH2 0x47B JUMPI PUSH0 PUSH2 0x140 CALLDATASIZE PUSH1 0x3 NOT ADD SLT PUSH2 0x47B JUMPI PUSH1 0x4 CALLDATALOAD PUSH2 0x1A2D DUP2 PUSH2 0x712 JUMP JUMPDEST PUSH1 0x24 CALLDATALOAD SWAP1 PUSH2 0x1A3A DUP3 PUSH2 0x712 JUMP JUMPDEST PUSH2 0x100 CALLDATASIZE PUSH1 0x43 NOT ADD SLT PUSH2 0x47B JUMPI PUSH2 0x1A4F PUSH2 0x4349 JUMP JUMPDEST PUSH2 0x1A58 DUP2 PUSH2 0x4384 JUMP JUMPDEST PUSH1 0x1 PUSH1 0x1 PUSH1 0xA0 SHL SUB AND SWAP1 DUP2 EXTCODESIZE ISZERO PUSH2 0x47B JUMPI PUSH1 0x40 MLOAD PUSH4 0x7ECD5915 PUSH1 0xE1 SHL DUP2 MSTORE PUSH1 0x1 PUSH1 0x1 PUSH1 0xA0 SHL SUB SWAP1 SWAP2 AND PUSH1 0x4 DUP3 ADD MSTORE SWAP1 PUSH0 SWAP1 DUP3 SWAP1 PUSH2 0x124 SWAP1 DUP3 SWAP1 DUP5 SWAP1 PUSH2 0x9B0 PUSH1 0x24 DUP5 ADD PUSH2 0x3C2B JUMP JUMPDEST CALLVALUE PUSH2 0x47B JUMPI PUSH1 0x20 CALLDATASIZE PUSH1 0x3 NOT ADD SLT PUSH2 0x47B JUMPI PUSH1 0x4 CALLDATALOAD PUSH2 0x1ABC DUP2 PUSH2 0x712 JUMP JUMPDEST PUSH1 0x1 DUP1 PUSH1 0xA0 SHL SUB AND PUSH0 MSTORE PUSH1 0x5 PUSH1 0x20 MSTORE PUSH1 0x60 PUSH1 0x1 PUSH1 0x1 PUSH1 0x40 SHL SUB PUSH1 0x40 PUSH0 KECCAK256 SLOAD PUSH1 0x40 SHR AND PUSH0 NOT PUSH0 SLOAD ADD PUSH1 0xC SLOAD SWAP1 PUSH1 0x40 MLOAD SWAP3 DUP4 MSTORE PUSH1 0x20 DUP4 ADD MSTORE PUSH1 0x40 DUP3 ADD MSTORE RETURN JUMPDEST CALLVALUE PUSH2 0x47B JUMPI PUSH1 0x40 CALLDATASIZE PUSH1 0x3 NOT ADD SLT PUSH2 0x47B JUMPI PUSH1 0x4 CALLDATALOAD PUSH1 0x24 CALLDATALOAD PUSH2 0x1B18 PUSH2 0x4370 JUMP JUMPDEST PUSH1 0x16 SLOAD PUSH1 0x8 SHR PUSH1 0xFF AND PUSH2 0x1BD2 JUMPI PUSH1 0x40 MLOAD PUSH2 0x1B46 DUP2 PUSH2 0x1801 PUSH1 0x20 DUP3 ADD SWAP5 DUP7 DUP7 SWAP1 SWAP2 PUSH1 0x40 SWAP3 DUP3 MSTORE PUSH1 0x20 DUP3 ADD MSTORE ADD SWAP1 JUMP JUMPDEST MLOAD SWAP1 KECCAK256 PUSH32 0x0 SUB PUSH2 0x1BC3 JUMPI PUSH2 0x1BB1 DUP2 PUSH2 0x1B9D PUSH32 0x7BCCB191591B7E41B276DF97EBF2CBB27E85E20FA7DB7D336D3A9738021466F SWAP4 PUSH1 0x14 SSTORE JUMP JUMPDEST PUSH2 0x1887 PUSH2 0x100 PUSH2 0xFF00 NOT PUSH1 0x16 SLOAD AND OR PUSH1 0x16 SSTORE JUMP JUMPDEST SUB SWAP1 LOG1 PUSH0 SLOAD PUSH1 0x1 SLOAD SWAP1 SUB PUSH0 NOT ADD PUSH2 0x1257 JUMP JUMPDEST PUSH4 0x148BB881 PUSH1 0xE3 SHL PUSH0 MSTORE PUSH1 0x4 PUSH0 REVERT JUMPDEST PUSH4 0x18ED71CD PUSH1 0xE0 SHL PUSH0 MSTORE PUSH1 0x4 PUSH0 REVERT JUMPDEST CALLVALUE PUSH2 0x47B JUMPI PUSH0 CALLDATASIZE PUSH1 0x3 NOT ADD SLT PUSH2 0x47B JUMPI PUSH1 0x13 SLOAD PUSH1 0x40 MLOAD PUSH1 0x8 SWAP2 SWAP1 SWAP2 SHR PUSH1 0x1 PUSH1 0x1 PUSH1 0xA0 SHL SUB AND DUP2 MSTORE PUSH1 0x20 SWAP1 RETURN JUMPDEST CALLVALUE PUSH2 0x47B JUMPI PUSH0 CALLDATASIZE PUSH1 0x3 NOT ADD SLT PUSH2 0x47B JUMPI PUSH1 0xA SLOAD PUSH1 0x40 MLOAD PUSH1 0x1 PUSH1 0x1 PUSH1 0xA0 SHL SUB SWAP1 SWAP2 AND DUP2 MSTORE PUSH1 0x20 SWAP1 RETURN JUMPDEST CALLVALUE PUSH2 0x47B JUMPI PUSH1 0x20 CALLDATASIZE PUSH1 0x3 NOT ADD SLT PUSH2 0x47B JUMPI PUSH1 0x4 CALLDATALOAD PUSH1 0x1 PUSH1 0x1 PUSH1 0x40 SHL SUB DUP2 GT PUSH2 0x47B JUMPI DUP1 PUSH1 0x4 ADD SWAP1 PUSH2 0x300 PUSH1 0x3 NOT DUP3 CALLDATASIZE SUB ADD SLT PUSH2 0x47B JUMPI PUSH2 0x1C73 PUSH2 0x4370 JUMP JUMPDEST DUP2 CALLDATALOAD DUP1 PUSH2 0x260A JUMPI JUMPDEST POP PUSH1 0x24 DUP2 ADD PUSH2 0x1C8A DUP2 DUP5 PUSH2 0x3CED JUMP JUMPDEST SWAP1 POP PUSH2 0x25B1 JUMPI JUMPDEST POP PUSH1 0x44 DUP2 ADD PUSH2 0x1CA0 DUP2 DUP5 PUSH2 0x3CED JUMP JUMPDEST SWAP1 POP PUSH2 0x2558 JUMPI JUMPDEST POP PUSH1 0x1 PUSH6 0xFFFFFFFFFFFF PUSH2 0x1CBD PUSH1 0xA4 DUP5 ADD PUSH2 0x3D1F JUMP JUMPDEST AND ISZERO ISZERO PUSH2 0x1CDA PUSH2 0x1CCF PUSH1 0xC4 DUP6 ADD PUSH2 0x3D1F JUMP JUMPDEST PUSH6 0xFFFFFFFFFFFF AND SWAP1 JUMP JUMPDEST ISZERO ISZERO OR EQ PUSH2 0x24F6 JUMPI JUMPDEST PUSH2 0x144 DUP2 ADD PUSH2 0x1CF2 DUP2 DUP5 PUSH2 0x3CED JUMP JUMPDEST SWAP1 POP PUSH2 0x2492 JUMPI JUMPDEST POP PUSH2 0x164 DUP2 ADD PUSH2 0x1D09 DUP2 DUP5 PUSH2 0x3DE2 JUMP JUMPDEST CALLDATALOAD PUSH2 0x242D JUMPI JUMPDEST POP PUSH2 0x184 DUP2 ADD PUSH1 0x1 PUSH1 0x1 PUSH1 0xA0 SHL SUB PUSH2 0x1D26 DUP3 PUSH2 0x378B JUMP JUMPDEST AND PUSH2 0x23C4 JUMPI JUMPDEST POP PUSH2 0x1A4 DUP2 ADD CALLDATALOAD DUP1 PUSH2 0x2380 JUMPI JUMPDEST POP PUSH2 0x1C4 DUP2 ADD PUSH2 0x1D49 DUP2 DUP5 PUSH2 0x3E19 JUMP JUMPDEST SWAP1 POP PUSH2 0x22DD JUMPI JUMPDEST POP PUSH2 0x1E4 DUP2 ADD PUSH2 0x1D60 DUP2 DUP5 PUSH2 0x3E19 JUMP JUMPDEST SWAP1 POP PUSH2 0x223A JUMPI JUMPDEST POP PUSH2 0x204 DUP2 ADD PUSH2 0x1D77 DUP2 DUP5 PUSH2 0x3E19 JUMP JUMPDEST SWAP1 POP PUSH2 0x2197 JUMPI JUMPDEST POP PUSH2 0x224 DUP2 ADD PUSH2 0x1D8E DUP2 DUP5 PUSH2 0x3E19 JUMP JUMPDEST SWAP1 POP PUSH2 0x20F4 JUMPI JUMPDEST POP PUSH2 0x264 DUP2 ADD PUSH2 0x1DA5 DUP2 DUP5 PUSH2 0x3E72 JUMP JUMPDEST SWAP1 POP PUSH2 0x2016 JUMPI JUMPDEST POP PUSH2 0x284 DUP2 ADD PUSH2 0x1DBC DUP2 DUP5 PUSH2 0x3E19 JUMP JUMPDEST SWAP1 POP PUSH2 0x1F77 JUMPI JUMPDEST POP PUSH2 0x2C4 DUP2 ADD PUSH2 0x1DD3 DUP2 DUP5 PUSH2 0x4090 JUMP JUMPDEST SWAP1 POP PUSH2 0x1E99 JUMPI JUMPDEST POP PUSH2 0x2E4 DUP2 ADD SWAP2 PUSH2 0x1DEB DUP4 DUP3 PUSH2 0x3E19 JUMP JUMPDEST SWAP1 POP PUSH2 0x1DF3 JUMPI STOP JUMPDEST PUSH1 0x64 PUSH0 SWAP4 SWAP3 ADD SWAP3 JUMPDEST PUSH2 0x1E05 DUP4 DUP4 PUSH2 0x3E19 JUMP JUMPDEST SWAP1 POP DUP2 LT ISZERO PUSH2 0x9CC JUMPI PUSH2 0x1E16 PUSH2 0x419D JUMP JUMPDEST SWAP1 PUSH2 0x1E20 DUP6 PUSH2 0x378B JUMP JUMPDEST PUSH2 0x1E3C PUSH2 0x1E37 DUP4 PUSH2 0x1E31 DUP9 DUP9 PUSH2 0x3E19 JUMP JUMPDEST SWAP1 PUSH2 0x3E62 JUMP JUMPDEST PUSH2 0x378B JUMP JUMPDEST ADDRESS EXTCODESIZE ISZERO PUSH2 0x47B JUMPI PUSH0 SWAP2 PUSH2 0x1E63 PUSH1 0x40 MLOAD SWAP6 DUP7 SWAP4 DUP5 SWAP4 PUSH4 0x1446A991 PUSH1 0xE2 SHL DUP6 MSTORE PUSH1 0x4 DUP6 ADD PUSH2 0x41D3 JUMP JUMPDEST SUB DUP2 DUP4 ADDRESS GAS CALL SWAP2 DUP3 ISZERO PUSH2 0x9CE JUMPI PUSH1 0x1 SWAP3 PUSH2 0x1E7F JUMPI JUMPDEST POP ADD PUSH2 0x1DFB JUMP JUMPDEST DUP1 PUSH2 0x1E8D PUSH0 PUSH2 0x1E93 SWAP4 PUSH2 0xFE5 JUMP JUMPDEST DUP1 PUSH2 0x58E JUMP JUMPDEST PUSH0 PUSH2 0x1E78 JUMP JUMPDEST PUSH2 0x1EA3 DUP2 DUP5 PUSH2 0x4090 JUMP JUMPDEST PUSH2 0x2A4 DUP5 ADD SWAP3 SWAP2 POP PUSH2 0x1EB5 DUP4 DUP7 PUSH2 0x3E19 JUMP JUMPDEST SWAP2 SWAP1 POP SUB PUSH2 0x1F68 JUMPI PUSH1 0x64 DUP4 ADD PUSH0 JUMPDEST PUSH2 0x1ECD DUP4 DUP8 PUSH2 0x4090 JUMP JUMPDEST SWAP1 POP DUP2 LT ISZERO PUSH2 0x1F5E JUMPI PUSH2 0x1EDF DUP3 PUSH2 0x378B JUMP JUMPDEST SWAP1 PUSH2 0x1EF1 PUSH2 0x1E37 DUP3 PUSH2 0x1E31 DUP9 DUP12 PUSH2 0x3E19 JUMP JUMPDEST SWAP2 PUSH2 0x1F06 DUP3 PUSH2 0x1F00 DUP8 DUP12 PUSH2 0x4090 JUMP JUMPDEST SWAP1 PUSH2 0x40C5 JUMP JUMPDEST SWAP3 ADDRESS EXTCODESIZE ISZERO PUSH2 0x47B JUMPI PUSH0 SWAP2 PUSH2 0x1F2E PUSH1 0x40 MLOAD SWAP6 DUP7 SWAP4 DUP5 SWAP4 PUSH4 0x1446A991 PUSH1 0xE2 SHL DUP6 MSTORE PUSH1 0x4 DUP6 ADD PUSH2 0x40D5 JUMP JUMPDEST SUB DUP2 DUP4 ADDRESS GAS CALL SWAP2 DUP3 ISZERO PUSH2 0x9CE JUMPI PUSH1 0x1 SWAP3 PUSH2 0x1F4A JUMPI JUMPDEST POP ADD PUSH2 0x1EC3 JUMP JUMPDEST DUP1 PUSH2 0x1E8D PUSH0 PUSH2 0x1F58 SWAP4 PUSH2 0xFE5 JUMP JUMPDEST PUSH0 PUSH2 0x1F43 JUMP JUMPDEST POP POP POP POP PUSH0 PUSH2 0x1DDA JUMP JUMPDEST PUSH4 0x74EF6DF7 PUSH1 0xE0 SHL PUSH0 MSTORE PUSH1 0x4 PUSH0 REVERT JUMPDEST PUSH1 0x64 DUP3 ADD SWAP3 SWAP1 PUSH0 JUMPDEST PUSH2 0x1F89 DUP3 DUP5 PUSH2 0x3E19 JUMP JUMPDEST SWAP1 POP DUP2 LT ISZERO PUSH2 0x200C JUMPI PUSH2 0x1F9A PUSH2 0x3F9C JUMP JUMPDEST SWAP1 PUSH2 0x1FA4 DUP7 PUSH2 0x378B JUMP JUMPDEST PUSH2 0x1FB5 PUSH2 0x1E37 DUP4 PUSH2 0x1E31 DUP8 DUP10 PUSH2 0x3E19 JUMP JUMPDEST ADDRESS EXTCODESIZE ISZERO PUSH2 0x47B JUMPI PUSH0 SWAP2 PUSH2 0x1FDC PUSH1 0x40 MLOAD SWAP6 DUP7 SWAP4 DUP5 SWAP4 PUSH4 0x3DE15F3B PUSH1 0xE1 SHL DUP6 MSTORE PUSH1 0x4 DUP6 ADD PUSH2 0x3FE9 JUMP JUMPDEST SUB DUP2 DUP4 ADDRESS GAS CALL SWAP2 DUP3 ISZERO PUSH2 0x9CE JUMPI PUSH1 0x1 SWAP3 PUSH2 0x1FF8 JUMPI JUMPDEST POP ADD PUSH2 0x1F7F JUMP JUMPDEST DUP1 PUSH2 0x1E8D PUSH0 PUSH2 0x2006 SWAP4 PUSH2 0xFE5 JUMP JUMPDEST PUSH0 PUSH2 0x1FF1 JUMP JUMPDEST POP POP SWAP2 POP PUSH0 PUSH2 0x1DC3 JUMP JUMPDEST PUSH2 0x2020 DUP2 DUP5 PUSH2 0x3E72 JUMP JUMPDEST PUSH2 0x244 DUP5 ADD SWAP3 SWAP2 POP PUSH2 0x2032 DUP4 DUP7 PUSH2 0x3E19 JUMP JUMPDEST SWAP2 SWAP1 POP SUB PUSH2 0x20E5 JUMPI PUSH1 0x64 DUP4 ADD PUSH0 JUMPDEST PUSH2 0x204A DUP4 DUP8 PUSH2 0x3E72 JUMP JUMPDEST SWAP1 POP DUP2 LT ISZERO PUSH2 0x20DB JUMPI PUSH2 0x205C DUP3 PUSH2 0x378B JUMP JUMPDEST SWAP1 PUSH2 0x206E PUSH2 0x1E37 DUP3 PUSH2 0x1E31 DUP9 DUP12 PUSH2 0x3E19 JUMP JUMPDEST SWAP2 PUSH2 0x2083 DUP3 PUSH2 0x207D DUP8 DUP12 PUSH2 0x3E72 JUMP JUMPDEST SWAP1 PUSH2 0x3EA7 JUMP JUMPDEST SWAP3 ADDRESS EXTCODESIZE ISZERO PUSH2 0x47B JUMPI PUSH0 SWAP2 PUSH2 0x20AB PUSH1 0x40 MLOAD SWAP6 DUP7 SWAP4 DUP5 SWAP4 PUSH4 0x3DE15F3B PUSH1 0xE1 SHL DUP6 MSTORE PUSH1 0x4 DUP6 ADD PUSH2 0x3EB7 JUMP JUMPDEST SUB DUP2 DUP4 ADDRESS GAS CALL SWAP2 DUP3 ISZERO PUSH2 0x9CE JUMPI PUSH1 0x1 SWAP3 PUSH2 0x20C7 JUMPI JUMPDEST POP ADD PUSH2 0x2040 JUMP JUMPDEST DUP1 PUSH2 0x1E8D PUSH0 PUSH2 0x20D5 SWAP4 PUSH2 0xFE5 JUMP JUMPDEST PUSH0 PUSH2 0x20C0 JUMP JUMPDEST POP POP POP POP PUSH0 PUSH2 0x1DAC JUMP JUMPDEST PUSH4 0xB81AA639 PUSH1 0xE0 SHL PUSH0 MSTORE PUSH1 0x4 PUSH0 REVERT JUMPDEST PUSH1 0x64 DUP3 ADD PUSH0 JUMPDEST PUSH2 0x2104 DUP4 DUP7 PUSH2 0x3E19 JUMP JUMPDEST SWAP1 POP DUP2 LT ISZERO PUSH2 0x218E JUMPI PUSH2 0x2116 DUP3 PUSH2 0x378B JUMP JUMPDEST SWAP1 PUSH2 0x2128 PUSH2 0x1E37 DUP3 PUSH2 0x1E31 DUP8 DUP11 PUSH2 0x3E19 JUMP JUMPDEST SWAP2 ADDRESS EXTCODESIZE ISZERO PUSH2 0x47B JUMPI PUSH1 0x40 MLOAD PUSH4 0x196E8775 PUSH1 0xE3 SHL DUP2 MSTORE PUSH1 0x1 PUSH1 0x1 PUSH1 0xA0 SHL SUB SWAP2 DUP3 AND PUSH1 0x4 DUP3 ADD MSTORE SWAP3 AND PUSH1 0x24 DUP4 ADD MSTORE PUSH0 PUSH1 0x44 DUP4 ADD DUP2 SWAP1 MSTORE DUP3 PUSH1 0x64 DUP2 DUP4 ADDRESS GAS CALL SWAP2 DUP3 ISZERO PUSH2 0x9CE JUMPI PUSH1 0x1 SWAP3 PUSH2 0x217A JUMPI JUMPDEST POP ADD PUSH2 0x20FA JUMP JUMPDEST DUP1 PUSH2 0x1E8D PUSH0 PUSH2 0x2188 SWAP4 PUSH2 0xFE5 JUMP JUMPDEST PUSH0 PUSH2 0x2173 JUMP JUMPDEST POP POP POP PUSH0 PUSH2 0x1D95 JUMP JUMPDEST PUSH1 0x64 DUP3 ADD PUSH0 JUMPDEST PUSH2 0x21A7 DUP4 DUP7 PUSH2 0x3E19 JUMP JUMPDEST SWAP1 POP DUP2 LT ISZERO PUSH2 0x2231 JUMPI PUSH2 0x21B9 DUP3 PUSH2 0x378B JUMP JUMPDEST SWAP1 PUSH2 0x21CB PUSH2 0x1E37 DUP3 PUSH2 0x1E31 DUP8 DUP11 PUSH2 0x3E19 JUMP JUMPDEST SWAP2 ADDRESS EXTCODESIZE ISZERO PUSH2 0x47B JUMPI PUSH1 0x40 MLOAD PUSH4 0x196E8775 PUSH1 0xE3 SHL DUP2 MSTORE PUSH1 0x1 PUSH1 0x1 PUSH1 0xA0 SHL SUB SWAP2 DUP3 AND PUSH1 0x4 DUP3 ADD MSTORE SWAP3 AND PUSH1 0x24 DUP4 ADD MSTORE PUSH1 0x1 PUSH1 0x44 DUP4 ADD MSTORE PUSH0 DUP3 PUSH1 0x64 DUP2 DUP4 ADDRESS GAS CALL SWAP2 DUP3 ISZERO PUSH2 0x9CE JUMPI PUSH1 0x1 SWAP3 PUSH2 0x221D JUMPI JUMPDEST POP ADD PUSH2 0x219D JUMP JUMPDEST DUP1 PUSH2 0x1E8D PUSH0 PUSH2 0x222B SWAP4 PUSH2 0xFE5 JUMP JUMPDEST PUSH0 PUSH2 0x2216 JUMP JUMPDEST POP POP POP PUSH0 PUSH2 0x1D7E JUMP JUMPDEST PUSH1 0x64 DUP3 ADD PUSH0 JUMPDEST PUSH2 0x224A DUP4 DUP7 PUSH2 0x3E19 JUMP JUMPDEST SWAP1 POP DUP2 LT ISZERO PUSH2 0x22D4 JUMPI PUSH2 0x225C DUP3 PUSH2 0x378B JUMP JUMPDEST SWAP1 PUSH2 0x226E PUSH2 0x1E37 DUP3 PUSH2 0x1E31 DUP8 DUP11 PUSH2 0x3E19 JUMP JUMPDEST SWAP2 ADDRESS EXTCODESIZE ISZERO PUSH2 0x47B JUMPI PUSH1 0x40 MLOAD PUSH4 0x48A4C101 PUSH1 0xE0 SHL DUP2 MSTORE PUSH1 0x1 PUSH1 0x1 PUSH1 0xA0 SHL SUB SWAP2 DUP3 AND PUSH1 0x4 DUP3 ADD MSTORE SWAP3 AND PUSH1 0x24 DUP4 ADD MSTORE PUSH0 PUSH1 0x44 DUP4 ADD DUP2 SWAP1 MSTORE DUP3 PUSH1 0x64 DUP2 DUP4 ADDRESS GAS CALL SWAP2 DUP3 ISZERO PUSH2 0x9CE JUMPI PUSH1 0x1 SWAP3 PUSH2 0x22C0 JUMPI JUMPDEST POP ADD PUSH2 0x2240 JUMP JUMPDEST DUP1 PUSH2 0x1E8D PUSH0 PUSH2 0x22CE SWAP4 PUSH2 0xFE5 JUMP JUMPDEST PUSH0 PUSH2 0x22B9 JUMP JUMPDEST POP POP POP PUSH0 PUSH2 0x1D67 JUMP JUMPDEST PUSH1 0x64 DUP3 ADD PUSH0 JUMPDEST PUSH2 0x22ED DUP4 DUP7 PUSH2 0x3E19 JUMP JUMPDEST SWAP1 POP DUP2 LT ISZERO PUSH2 0x2377 JUMPI PUSH2 0x22FF DUP3 PUSH2 0x378B JUMP JUMPDEST SWAP1 PUSH2 0x2311 PUSH2 0x1E37 DUP3 PUSH2 0x1E31 DUP8 DUP11 PUSH2 0x3E19 JUMP JUMPDEST SWAP2 ADDRESS EXTCODESIZE ISZERO PUSH2 0x47B JUMPI PUSH1 0x40 MLOAD PUSH4 0x48A4C101 PUSH1 0xE0 SHL DUP2 MSTORE PUSH1 0x1 PUSH1 0x1 PUSH1 0xA0 SHL SUB SWAP2 DUP3 AND PUSH1 0x4 DUP3 ADD MSTORE SWAP3 AND PUSH1 0x24 DUP4 ADD MSTORE PUSH1 0x1 PUSH1 0x44 DUP4 ADD MSTORE PUSH0 DUP3 PUSH1 0x64 DUP2 DUP4 ADDRESS GAS CALL SWAP2 DUP3 ISZERO PUSH2 0x9CE JUMPI PUSH1 0x1 SWAP3 PUSH2 0x2363 JUMPI JUMPDEST POP ADD PUSH2 0x22E3 JUMP JUMPDEST DUP1 PUSH2 0x1E8D PUSH0 PUSH2 0x2371 SWAP4 PUSH2 0xFE5 JUMP JUMPDEST PUSH0 PUSH2 0x235C JUMP JUMPDEST POP POP POP PUSH0 PUSH2 0x1D50 JUMP JUMPDEST ADDRESS EXTCODESIZE ISZERO PUSH2 0x47B JUMPI PUSH1 0x40 MLOAD PUSH4 0x4CDB5FD PUSH1 0xE1 SHL DUP2 MSTORE PUSH1 0x4 DUP2 ADD SWAP2 SWAP1 SWAP2 MSTORE PUSH0 DUP2 PUSH1 0x24 DUP2 DUP4 ADDRESS GAS CALL DUP1 ISZERO PUSH2 0x9CE JUMPI ISZERO PUSH2 0x1D39 JUMPI DUP1 PUSH2 0x1E8D PUSH0 PUSH2 0x23BE SWAP4 PUSH2 0xFE5 JUMP JUMPDEST PUSH0 PUSH2 0x1D39 JUMP JUMPDEST PUSH2 0x23D9 PUSH2 0x23D3 PUSH1 0x64 DUP5 ADD PUSH2 0x378B JUMP JUMPDEST SWAP2 PUSH2 0x378B JUMP JUMPDEST SWAP1 ADDRESS EXTCODESIZE ISZERO PUSH2 0x47B JUMPI PUSH1 0x40 MLOAD PUSH4 0x66251B69 PUSH1 0xE0 SHL DUP2 MSTORE PUSH1 0x1 PUSH1 0x1 PUSH1 0xA0 SHL SUB SWAP2 DUP3 AND PUSH1 0x4 DUP3 ADD MSTORE SWAP2 AND PUSH1 0x24 DUP3 ADD MSTORE PUSH0 DUP2 PUSH1 0x44 DUP2 DUP4 ADDRESS GAS CALL DUP1 ISZERO PUSH2 0x9CE JUMPI ISZERO PUSH2 0x1D2C JUMPI DUP1 PUSH2 0x1E8D PUSH0 PUSH2 0x2427 SWAP4 PUSH2 0xFE5 JUMP JUMPDEST PUSH0 PUSH2 0x1D2C JUMP JUMPDEST PUSH2 0x2443 PUSH2 0x243C PUSH1 0x64 DUP5 ADD PUSH2 0x378B JUMP JUMPDEST SWAP2 DUP5 PUSH2 0x3DE2 JUMP JUMPDEST SWAP1 ADDRESS EXTCODESIZE ISZERO PUSH2 0x47B JUMPI PUSH1 0x40 MLOAD PUSH4 0x3680620D PUSH1 0xE0 SHL DUP2 MSTORE SWAP2 PUSH0 SWAP2 DUP4 SWAP2 DUP3 SWAP2 PUSH2 0x246D SWAP2 SWAP1 PUSH1 0x4 DUP5 ADD PUSH2 0x3DF7 JUMP JUMPDEST SUB DUP2 DUP4 ADDRESS GAS CALL DUP1 ISZERO PUSH2 0x9CE JUMPI ISZERO PUSH2 0x1D0F JUMPI DUP1 PUSH2 0x1E8D PUSH0 PUSH2 0x248C SWAP4 PUSH2 0xFE5 JUMP JUMPDEST PUSH0 PUSH2 0x1D0F JUMP JUMPDEST PUSH2 0x24A8 PUSH2 0x24A1 PUSH1 0x64 DUP5 ADD PUSH2 0x378B JUMP JUMPDEST SWAP2 DUP5 PUSH2 0x3CED JUMP JUMPDEST SWAP2 SWAP1 ADDRESS EXTCODESIZE ISZERO PUSH2 0x47B JUMPI PUSH0 SWAP2 PUSH2 0x24D1 PUSH1 0x40 MLOAD SWAP5 DUP6 SWAP4 DUP5 SWAP4 PUSH4 0x3D02DE41 PUSH1 0xE1 SHL DUP6 MSTORE PUSH1 0x4 DUP6 ADD PUSH2 0x3DC0 JUMP JUMPDEST SUB DUP2 DUP4 ADDRESS GAS CALL DUP1 ISZERO PUSH2 0x9CE JUMPI ISZERO PUSH2 0x1CF9 JUMPI DUP1 PUSH2 0x1E8D PUSH0 PUSH2 0x24F0 SWAP4 PUSH2 0xFE5 JUMP JUMPDEST PUSH0 PUSH2 0x1CF9 JUMP JUMPDEST PUSH2 0x2502 PUSH1 0x64 DUP3 ADD PUSH2 0x378B JUMP JUMPDEST ADDRESS EXTCODESIZE ISZERO PUSH2 0x47B JUMPI PUSH0 PUSH2 0x252D SWAP2 PUSH1 0x40 MLOAD DUP1 SWAP4 DUP2 SWAP3 PUSH4 0x6DCD64F PUSH1 0xE2 SHL DUP4 MSTORE PUSH1 0x84 DUP8 ADD SWAP1 PUSH1 0x4 DUP5 ADD PUSH2 0x3D29 JUMP JUMPDEST SUB DUP2 DUP4 ADDRESS GAS CALL DUP1 ISZERO PUSH2 0x9CE JUMPI PUSH2 0x2544 JUMPI JUMPDEST POP PUSH2 0x1CE3 JUMP JUMPDEST DUP1 PUSH2 0x1E8D PUSH0 PUSH2 0x2552 SWAP4 PUSH2 0xFE5 JUMP JUMPDEST PUSH0 PUSH2 0x253E JUMP JUMPDEST PUSH2 0x2562 SWAP1 DUP4 PUSH2 0x3CED JUMP JUMPDEST SWAP1 ADDRESS EXTCODESIZE ISZERO PUSH2 0x47B JUMPI PUSH1 0x40 MLOAD PUSH4 0x938E3D7B PUSH1 0xE0 SHL DUP2 MSTORE SWAP2 PUSH0 SWAP2 DUP4 SWAP2 DUP3 SWAP2 PUSH2 0x258C SWAP2 SWAP1 PUSH1 0x4 DUP5 ADD PUSH2 0x3BFB JUMP JUMPDEST SUB DUP2 DUP4 ADDRESS GAS CALL DUP1 ISZERO PUSH2 0x9CE JUMPI ISZERO PUSH2 0x1CA7 JUMPI DUP1 PUSH2 0x1E8D PUSH0 PUSH2 0x25AB SWAP4 PUSH2 0xFE5 JUMP JUMPDEST PUSH0 PUSH2 0x1CA7 JUMP JUMPDEST PUSH2 0x25BB SWAP1 DUP4 PUSH2 0x3CED JUMP JUMPDEST SWAP1 ADDRESS EXTCODESIZE ISZERO PUSH2 0x47B JUMPI PUSH1 0x40 MLOAD PUSH4 0x55F804B3 PUSH1 0xE0 SHL DUP2 MSTORE SWAP2 PUSH0 SWAP2 DUP4 SWAP2 DUP3 SWAP2 PUSH2 0x25E5 SWAP2 SWAP1 PUSH1 0x4 DUP5 ADD PUSH2 0x3BFB JUMP JUMPDEST SUB DUP2 DUP4 ADDRESS GAS CALL DUP1 ISZERO PUSH2 0x9CE JUMPI ISZERO PUSH2 0x1C91 JUMPI DUP1 PUSH2 0x1E8D PUSH0 PUSH2 0x2604 SWAP4 PUSH2 0xFE5 JUMP JUMPDEST PUSH0 PUSH2 0x1C91 JUMP JUMPDEST ADDRESS EXTCODESIZE ISZERO PUSH2 0x47B JUMPI PUSH1 0x40 MLOAD PUSH4 0x6F8B44B PUSH1 0xE4 SHL DUP2 MSTORE PUSH1 0x4 DUP2 ADD SWAP2 SWAP1 SWAP2 MSTORE PUSH0 DUP2 PUSH1 0x24 DUP2 DUP4 ADDRESS GAS CALL DUP1 ISZERO PUSH2 0x9CE JUMPI ISZERO PUSH2 0x1C7B JUMPI DUP1 PUSH2 0x1E8D PUSH0 PUSH2 0x2648 SWAP4 PUSH2 0xFE5 JUMP JUMPDEST PUSH0 PUSH2 0x1C7B JUMP JUMPDEST CALLVALUE PUSH2 0x47B JUMPI PUSH2 0x265C CALLDATASIZE PUSH2 0x11B5 JUMP JUMPDEST PUSH2 0x2664 PUSH2 0x4349 JUMP JUMPDEST PUSH1 0x1 PUSH1 0x1 PUSH1 0x40 SHL SUB DUP2 GT PUSH2 0xFC5 JUMPI PUSH2 0x2686 DUP2 PUSH2 0x2681 PUSH1 0xE SLOAD PUSH2 0x2FC1 JUMP JUMPDEST PUSH2 0x3979 JUMP JUMPDEST PUSH0 SWAP2 PUSH1 0x1F DUP3 GT PUSH1 0x1 EQ PUSH2 0x26F2 JUMPI PUSH2 0x26D4 DUP3 DUP1 PUSH32 0x905D981207A7D0B6C62CC46AB0BE2A076D0298E4A86D0AB79882DBD01AC37378 SWAP6 PUSH0 SWAP2 PUSH2 0x26E7 JUMPI JUMPDEST POP DUP2 PUSH1 0x1 SHL SWAP2 PUSH0 NOT SWAP1 PUSH1 0x3 SHL SHR NOT AND OR SWAP1 JUMP JUMPDEST PUSH1 0xE SSTORE JUMPDEST PUSH2 0xDC8 PUSH1 0x40 MLOAD SWAP3 DUP4 SWAP3 DUP4 PUSH2 0x3BFB JUMP JUMPDEST SWAP1 POP DUP4 ADD CALLDATALOAD PUSH0 PUSH2 0x26C1 JUMP JUMPDEST PUSH1 0xE PUSH0 MSTORE PUSH1 0x1F NOT DUP3 AND PUSH32 0xBB7B4A454DC3493923482F07822329ED19E8244EFF582CC204F8554C3620C3FD SWAP1 PUSH0 JUMPDEST DUP2 DUP2 LT PUSH2 0x277A JUMPI POP SWAP4 DUP4 PUSH32 0x905D981207A7D0B6C62CC46AB0BE2A076D0298E4A86D0AB79882DBD01AC37378 SWAP6 LT PUSH2 0x2761 JUMPI JUMPDEST POP POP PUSH1 0x1 DUP3 DUP2 SHL ADD PUSH1 0xE SSTORE PUSH2 0x26D8 JUMP JUMPDEST DUP3 ADD CALLDATALOAD PUSH0 NOT PUSH1 0x3 DUP6 SWAP1 SHL PUSH1 0xF8 AND SHR NOT AND SWAP1 SSTORE PUSH0 DUP1 PUSH2 0x2751 JUMP JUMPDEST DUP4 DUP7 ADD CALLDATALOAD DUP4 SSTORE PUSH1 0x20 SWAP6 DUP7 ADD SWAP6 PUSH1 0x1 SWAP1 SWAP4 ADD SWAP3 ADD PUSH2 0x271F JUMP JUMPDEST CALLVALUE PUSH2 0x47B JUMPI PUSH0 CALLDATASIZE PUSH1 0x3 NOT ADD SLT PUSH2 0x47B JUMPI PUSH1 0x20 PUSH1 0xFF PUSH1 0x16 SLOAD PUSH1 0x8 SHR AND PUSH1 0x40 MLOAD SWAP1 ISZERO ISZERO DUP2 MSTORE RETURN JUMPDEST CALLVALUE PUSH2 0x47B JUMPI PUSH0 CALLDATASIZE PUSH1 0x3 NOT ADD SLT PUSH2 0x47B JUMPI PUSH1 0x40 MLOAD PUSH0 PUSH1 0x3 SLOAD PUSH2 0x27D7 DUP2 PUSH2 0x2FC1 JUMP JUMPDEST DUP1 DUP5 MSTORE SWAP1 PUSH1 0x1 DUP2 AND SWAP1 DUP2 ISZERO PUSH2 0x682 JUMPI POP PUSH1 0x1 EQ PUSH2 0x27FE JUMPI PUSH2 0x4D4 DUP4 PUSH2 0x618 DUP2 DUP6 SUB DUP3 PUSH2 0xFE5 JUMP JUMPDEST PUSH1 0x3 PUSH0 SWAP1 DUP2 MSTORE PUSH32 0xC2575A0E9E593C00F959F8C92F12DB2869C3395A3B0502D05E2516446F71F85B SWAP4 SWAP3 POP SWAP1 JUMPDEST DUP1 DUP3 LT PUSH2 0x2842 JUMPI POP SWAP1 SWAP2 POP DUP2 ADD PUSH1 0x20 ADD PUSH2 0x618 PUSH2 0x608 JUMP JUMPDEST SWAP2 SWAP3 PUSH1 0x1 DUP2 PUSH1 0x20 SWAP3 SLOAD DUP4 DUP6 DUP9 ADD ADD MSTORE ADD SWAP2 ADD SWAP1 SWAP3 SWAP2 PUSH2 0x282A JUMP JUMPDEST CALLVALUE PUSH2 0x47B JUMPI PUSH0 CALLDATASIZE PUSH1 0x3 NOT ADD SLT PUSH2 0x47B JUMPI PUSH1 0x20 PUSH1 0x15 SLOAD PUSH1 0x40 MLOAD SWAP1 DUP2 MSTORE RETURN JUMPDEST CALLVALUE PUSH2 0x47B JUMPI PUSH0 CALLDATASIZE PUSH1 0x3 NOT ADD SLT PUSH2 0x47B JUMPI PUSH1 0x20 PUSH1 0x40 MLOAD PUSH32 0x0 DUP2 MSTORE RETURN JUMPDEST CALLVALUE PUSH2 0x47B JUMPI PUSH1 0x40 CALLDATASIZE PUSH1 0x3 NOT ADD SLT PUSH2 0x47B JUMPI PUSH1 0x4 CALLDATALOAD PUSH2 0x28D0 DUP2 PUSH2 0x712 JUMP JUMPDEST PUSH2 0x28D8 PUSH2 0x8A1 JUMP JUMPDEST SWAP1 PUSH1 0xFF PUSH1 0x13 SLOAD AND PUSH2 0x7D7 JUMPI CALLER PUSH0 MSTORE PUSH1 0x7 PUSH1 0x20 MSTORE PUSH2 0x291D DUP3 PUSH2 0x290C DUP4 PUSH1 0x40 PUSH0 KECCAK256 SWAP1 PUSH1 0x1 DUP1 PUSH1 0xA0 SHL SUB AND PUSH0 MSTORE PUSH1 0x20 MSTORE PUSH1 0x40 PUSH0 KECCAK256 SWAP1 JUMP JUMPDEST SWAP1 PUSH1 0xFF DUP1 NOT DUP4 SLOAD AND SWAP2 ISZERO ISZERO AND OR SWAP1 SSTORE JUMP JUMPDEST PUSH1 0x40 MLOAD SWAP2 ISZERO ISZERO DUP3 MSTORE PUSH1 0x1 PUSH1 0x1 PUSH1 0xA0 SHL SUB AND SWAP1 CALLER SWAP1 PUSH32 0x17307EAB39AB6107E8899845AD3D59BD9653F200F220920489CA2B5937696C31 SWAP1 PUSH1 0x20 SWAP1 LOG3 STOP JUMPDEST CALLVALUE PUSH2 0x47B JUMPI PUSH1 0x40 CALLDATASIZE PUSH1 0x3 NOT ADD SLT PUSH2 0x47B JUMPI PUSH32 0x6BD5C950A8D8DF17F772F5AF37CB3655737899CBF903264B9795592DA439661C PUSH1 0x40 PUSH1 0x4 CALLDATALOAD PUSH1 0x24 CALLDATALOAD PUSH2 0x299B PUSH2 0x4349 JUMP JUMPDEST DUP3 MLOAD SWAP2 DUP3 MSTORE PUSH1 0x20 DUP3 ADD MSTORE LOG1 STOP JUMPDEST CALLVALUE PUSH2 0x47B JUMPI PUSH1 0x20 CALLDATASIZE PUSH1 0x3 NOT ADD SLT PUSH2 0x47B JUMPI PUSH1 0x4 CALLDATALOAD PUSH2 0x29C5 DUP2 PUSH2 0x712 JUMP JUMPDEST PUSH2 0x29CD PUSH2 0x4370 JUMP JUMPDEST PUSH1 0x9 SLOAD SWAP1 PUSH1 0x1 PUSH1 0x1 PUSH1 0xA0 SHL SUB DUP1 DUP4 AND SWAP1 DUP3 AND DUP1 DUP3 EQ PUSH2 0x2A3E JUMPI PUSH1 0x1 PUSH1 0x1 PUSH1 0xA0 SHL SUB NOT SWAP4 SWAP1 SWAP4 AND SWAP1 SWAP3 OR PUSH1 0x9 SSTORE PUSH1 0x40 DUP1 MLOAD PUSH1 0x1 PUSH1 0x1 PUSH1 0xA0 SHL SUB SWAP4 DUP5 AND DUP2 MSTORE SWAP2 SWAP1 SWAP3 AND PUSH1 0x20 DUP3 ADD MSTORE PUSH32 0xCC5DC080FF977B3C3A211FA63AB74F90F658F5BA9D3236E92C8F59570F442AAC SWAP2 DUP2 SWAP1 DUP2 ADD PUSH2 0xDC8 JUMP JUMPDEST PUSH4 0x251DD8CF PUSH1 0xE1 SHL PUSH0 MSTORE PUSH1 0x4 PUSH0 REVERT JUMPDEST CALLVALUE PUSH2 0x47B JUMPI PUSH0 CALLDATASIZE PUSH1 0x3 NOT ADD SLT PUSH2 0x47B JUMPI PUSH1 0x10 SLOAD PUSH1 0x40 MLOAD PUSH1 0x1 PUSH1 0x1 PUSH1 0xA0 SHL SUB SWAP1 SWAP2 AND DUP2 MSTORE PUSH1 0x20 SWAP1 RETURN JUMPDEST PUSH1 0x1 PUSH1 0x1 PUSH1 0x40 SHL SUB DUP2 GT PUSH2 0xFC5 JUMPI PUSH1 0x1F ADD PUSH1 0x1F NOT AND PUSH1 0x20 ADD SWAP1 JUMP JUMPDEST SWAP3 SWAP2 SWAP3 PUSH2 0x2A9C DUP3 PUSH2 0x2A75 JUMP JUMPDEST SWAP2 PUSH2 0x2AAA PUSH1 0x40 MLOAD SWAP4 DUP5 PUSH2 0xFE5 JUMP JUMPDEST DUP3 SWAP5 DUP2 DUP5 MSTORE DUP2 DUP4 ADD GT PUSH2 0x47B JUMPI DUP3 DUP2 PUSH1 0x20 SWAP4 DUP5 PUSH0 SWAP7 ADD CALLDATACOPY ADD ADD MSTORE JUMP JUMPDEST PUSH1 0x80 CALLDATASIZE PUSH1 0x3 NOT ADD SLT PUSH2 0x47B JUMPI PUSH1 0x4 CALLDATALOAD PUSH2 0x2ADE DUP2 PUSH2 0x712 JUMP JUMPDEST PUSH1 0x24 CALLDATALOAD SWAP1 PUSH2 0x2AEB DUP3 PUSH2 0x712 JUMP JUMPDEST PUSH1 0x44 CALLDATALOAD PUSH1 0x64 CALLDATALOAD SWAP3 PUSH1 0x1 PUSH1 0x1 PUSH1 0x40 SHL SUB DUP5 GT PUSH2 0x47B JUMPI CALLDATASIZE PUSH1 0x23 DUP6 ADD SLT ISZERO PUSH2 0x47B JUMPI PUSH2 0x2B22 PUSH2 0x9CC SWAP5 CALLDATASIZE SWAP1 PUSH1 0x24 DUP2 PUSH1 0x4 ADD CALLDATALOAD SWAP2 ADD PUSH2 0x2A90 JUMP JUMPDEST SWAP3 PUSH2 0x41FB JUMP JUMPDEST CALLVALUE PUSH2 0x47B JUMPI PUSH0 CALLDATASIZE PUSH1 0x3 NOT ADD SLT PUSH2 0x47B JUMPI PUSH1 0x20 PUSH1 0xF SLOAD PUSH1 0x40 MLOAD SWAP1 DUP2 MSTORE RETURN JUMPDEST CALLVALUE PUSH2 0x47B JUMPI PUSH1 0x20 CALLDATASIZE PUSH1 0x3 NOT ADD SLT PUSH2 0x47B JUMPI PUSH1 0x4 CALLDATALOAD PUSH2 0x2B62 DUP2 PUSH2 0x42A6 JUMP JUMPDEST ISZERO PUSH2 0x2BE6 JUMPI PUSH2 0x618 DUP2 PUSH2 0x4D4 SWAP3 PUSH0 MSTORE PUSH1 0x1E PUSH1 0x20 MSTORE PUSH1 0x40 PUSH0 KECCAK256 PUSH1 0x40 MLOAD SWAP1 PUSH2 0x2B87 DUP3 PUSH2 0xFCA JUMP JUMPDEST DUP1 SLOAD SWAP1 PUSH2 0xFFFF DUP3 AND DUP4 MSTORE PUSH1 0xFF PUSH1 0x20 DUP5 ADD SWAP3 PUSH1 0x10 SHR AND DUP3 MSTORE PUSH2 0x2BDA PUSH2 0x2BD2 PUSH2 0x2BC3 PUSH1 0x2 PUSH2 0x2BB5 PUSH1 0x1 DUP7 ADD PUSH2 0x2FF9 JUMP JUMPDEST SWAP5 PUSH1 0x40 DUP9 ADD SWAP6 DUP7 MSTORE ADD PUSH2 0x2FF9 JUMP JUMPDEST SWAP5 DUP6 PUSH1 0x60 DUP3 ADD MSTORE MLOAD PUSH2 0xFFFF AND SWAP1 JUMP JUMPDEST SWAP3 MLOAD PUSH1 0xFF AND SWAP1 JUMP JUMPDEST SWAP1 MLOAD SWAP2 PUSH1 0x14 SLOAD SWAP5 PUSH2 0x4C3A JUMP JUMPDEST PUSH4 0x4A1850BF PUSH1 0xE1 SHL PUSH0 MSTORE PUSH1 0x4 PUSH0 REVERT JUMPDEST CALLVALUE PUSH2 0x47B JUMPI PUSH2 0x2C03 CALLDATASIZE PUSH2 0xEEB JUMP JUMPDEST SWAP1 SWAP2 PUSH2 0x2C0D PUSH2 0x4349 JUMP JUMPDEST PUSH2 0x2C16 DUP2 PUSH2 0x4384 JUMP JUMPDEST PUSH1 0x1 PUSH1 0x1 PUSH1 0xA0 SHL SUB AND SWAP2 DUP3 EXTCODESIZE ISZERO PUSH2 0x47B JUMPI PUSH1 0x40 MLOAD PUSH4 0x3F952E65 PUSH1 0xE1 SHL DUP2 MSTORE PUSH1 0x1 PUSH1 0x1 PUSH1 0xA0 SHL SUB SWAP1 SWAP2 AND PUSH1 0x4 DUP3 ADD MSTORE SWAP1 ISZERO ISZERO PUSH1 0x24 DUP3 ADD MSTORE PUSH0 DUP2 PUSH1 0x44 DUP2 ADD PUSH2 0xF7E JUMP JUMPDEST SWAP1 PUSH1 0x40 PUSH1 0x3 NOT DUP4 ADD SLT PUSH2 0x47B JUMPI PUSH1 0x4 CALLDATALOAD SWAP2 PUSH1 0x24 CALLDATALOAD SWAP1 PUSH1 0x1 PUSH1 0x1 PUSH1 0x40 SHL SUB DUP3 GT PUSH2 0x47B JUMPI PUSH2 0x11DF SWAP2 PUSH1 0x4 ADD PUSH2 0x1188 JUMP JUMPDEST CALLVALUE PUSH2 0x47B JUMPI PUSH2 0x2C94 CALLDATASIZE PUSH2 0x2C57 JUMP JUMPDEST SWAP2 SWAP1 PUSH2 0x2C9F DUP3 PUSH2 0x4D45 JUMP JUMPDEST PUSH2 0x2CA8 DUP3 PUSH2 0x4D6F JUMP JUMPDEST PUSH2 0x2CB3 CALLDATASIZE DUP5 DUP4 PUSH2 0x2A90 JUMP JUMPDEST SWAP2 DUP3 MLOAD DUP1 ISZERO ISZERO SWAP1 DUP2 PUSH2 0x2ECF JUMPI JUMPDEST POP ISZERO PUSH2 0x2EC0 JUMPI PUSH0 JUMPDEST DUP4 MLOAD DUP2 LT ISZERO PUSH2 0x2E37 JUMPI PUSH2 0x2CFC PUSH2 0x2CEF PUSH2 0x2CE1 DUP4 DUP8 PUSH2 0x423C JUMP JUMPDEST MLOAD PUSH1 0x1 PUSH1 0x1 PUSH1 0xF8 SHL SUB NOT AND SWAP1 JUMP JUMPDEST PUSH1 0x1 PUSH1 0x1 PUSH1 0xF8 SHL SUB NOT AND SWAP1 JUMP JUMPDEST PUSH1 0x3 PUSH1 0xFC SHL DUP2 LT ISZERO SWAP1 DUP2 PUSH2 0x2E28 JUMPI JUMPDEST DUP2 ISZERO PUSH2 0x2E04 JUMPI JUMPDEST DUP2 ISZERO PUSH2 0x2DE0 JUMPI JUMPDEST DUP2 ISZERO PUSH2 0x2D3D JUMPI JUMPDEST POP ISZERO PUSH2 0x2D2E JUMPI PUSH1 0x1 ADD PUSH2 0x2CC8 JUMP JUMPDEST PUSH4 0xA23EF83B PUSH1 0xE0 SHL PUSH0 MSTORE PUSH1 0x4 PUSH0 REVERT JUMPDEST PUSH1 0x1 PUSH1 0xFD SHL DUP2 EQ SWAP2 POP DUP2 ISZERO PUSH2 0x2DD2 JUMPI JUMPDEST DUP2 ISZERO PUSH2 0x2DC4 JUMPI JUMPDEST DUP2 ISZERO PUSH2 0x2DB6 JUMPI JUMPDEST DUP2 ISZERO PUSH2 0x2DA8 JUMPI JUMPDEST DUP2 ISZERO PUSH2 0x2D9A JUMPI JUMPDEST DUP2 ISZERO PUSH2 0x2D8C JUMPI JUMPDEST DUP2 ISZERO PUSH2 0x2D7E JUMPI JUMPDEST POP PUSH0 PUSH2 0x2D20 JUMP JUMPDEST PUSH1 0x27 PUSH1 0xF8 SHL EQ SWAP1 POP PUSH0 PUSH2 0x2D77 JUMP JUMPDEST PUSH1 0x13 PUSH1 0xF9 SHL DUP2 EQ SWAP2 POP PUSH2 0x2D70 JUMP JUMPDEST PUSH1 0x5F PUSH1 0xF8 SHL DUP2 EQ SWAP2 POP PUSH2 0x2D69 JUMP JUMPDEST PUSH1 0x3F PUSH1 0xF8 SHL DUP2 EQ SWAP2 POP PUSH2 0x2D62 JUMP JUMPDEST PUSH1 0x17 PUSH1 0xF9 SHL DUP2 EQ SWAP2 POP PUSH2 0x2D5B JUMP JUMPDEST PUSH1 0x2D PUSH1 0xF8 SHL DUP2 EQ SWAP2 POP PUSH2 0x2D54 JUMP JUMPDEST PUSH1 0x21 PUSH1 0xF8 SHL DUP2 EQ SWAP2 POP PUSH2 0x2D4D JUMP JUMPDEST SWAP1 POP PUSH1 0x61 PUSH1 0xF8 SHL DUP2 LT ISZERO DUP1 PUSH2 0x2DF6 JUMPI JUMPDEST SWAP1 PUSH2 0x2D19 JUMP JUMPDEST POP PUSH1 0x3D PUSH1 0xF9 SHL DUP2 GT ISZERO PUSH2 0x2DF0 JUMP JUMPDEST SWAP1 POP PUSH1 0x41 PUSH1 0xF8 SHL DUP2 LT ISZERO DUP1 PUSH2 0x2E1A JUMPI JUMPDEST SWAP1 PUSH2 0x2D12 JUMP JUMPDEST POP PUSH1 0x2D PUSH1 0xF9 SHL DUP2 GT ISZERO PUSH2 0x2E14 JUMP JUMPDEST PUSH1 0x39 PUSH1 0xF8 SHL DUP2 GT ISZERO SWAP2 POP PUSH2 0x2D0B JUMP JUMPDEST POP PUSH32 0x27FAC8F362F0993DF8069600BAC492702D7C0D77D65545716BF8B7ACD95F0214 PUSH2 0x2EBB DUP6 PUSH2 0x2E7C DUP2 DUP7 PUSH1 0x1 PUSH2 0x2E76 DUP9 PUSH0 MSTORE PUSH1 0x1E PUSH1 0x20 MSTORE PUSH1 0x40 PUSH0 KECCAK256 SWAP1 JUMP JUMPDEST ADD PUSH2 0x3A1D JUMP JUMPDEST PUSH1 0x40 MLOAD DUP5 DUP2 MSTORE PUSH32 0xF8E1A15ABA9398E019F0B49DF1A4FDE98EE17AE345CB5F6B5E2C27F5033E8CE7 SWAP1 DUP1 PUSH1 0x20 DUP2 ADD JUMPDEST SUB SWAP1 LOG1 PUSH1 0x40 MLOAD SWAP2 DUP3 SWAP2 CALLER SWAP7 DUP4 PUSH2 0x3BFB JUMP JUMPDEST SUB SWAP1 LOG3 STOP JUMPDEST PUSH4 0x4E9A61E5 PUSH1 0xE1 SHL PUSH0 MSTORE PUSH1 0x4 PUSH0 REVERT JUMPDEST PUSH1 0x20 SWAP2 POP GT ISZERO PUSH0 PUSH2 0x2CC0 JUMP JUMPDEST CALLVALUE PUSH2 0x47B JUMPI PUSH0 CALLDATASIZE PUSH1 0x3 NOT ADD SLT PUSH2 0x47B JUMPI PUSH1 0x20 PUSH1 0xC SLOAD PUSH1 0x40 MLOAD SWAP1 DUP2 MSTORE RETURN JUMPDEST CALLVALUE PUSH2 0x47B JUMPI PUSH1 0x40 CALLDATASIZE PUSH1 0x3 NOT ADD SLT PUSH2 0x47B JUMPI PUSH1 0x4 CALLDATALOAD PUSH1 0x24 CALLDATALOAD PUSH2 0x2F18 DUP3 PUSH2 0x4D45 JUMP JUMPDEST PUSH2 0x2F21 DUP3 PUSH2 0x4D6F JUMP JUMPDEST PUSH1 0x13 DUP2 LT ISZERO PUSH2 0x2FB2 JUMPI PUSH2 0x2F5E PUSH1 0xFF DUP3 AND PUSH2 0x2F43 DUP5 PUSH0 MSTORE PUSH1 0x1E PUSH1 0x20 MSTORE PUSH1 0x40 PUSH0 KECCAK256 SWAP1 JUMP JUMPDEST SWAP1 PUSH3 0xFF0000 PUSH1 0xFF DUP4 SLOAD SWAP3 AND PUSH1 0x10 SHL AND SWAP1 PUSH3 0xFF0000 NOT AND OR SWAP1 SSTORE JUMP JUMPDEST PUSH1 0x40 MLOAD DUP3 DUP2 MSTORE PUSH32 0xF8E1A15ABA9398E019F0B49DF1A4FDE98EE17AE345CB5F6B5E2C27F5033E8CE7 SWAP1 PUSH1 0x20 SWAP1 LOG1 CALLER SWAP2 PUSH32 0x717EA6D16CD5B1ADADF0580BB4B4EBBE47B8329C34AE1D20B2A3505B0B45121B PUSH0 DUP1 LOG4 STOP JUMPDEST PUSH4 0xACCE9F57 PUSH1 0xE0 SHL PUSH0 MSTORE PUSH1 0x4 PUSH0 REVERT JUMPDEST SWAP1 PUSH1 0x1 DUP3 DUP2 SHR SWAP3 AND DUP1 ISZERO PUSH2 0x2FEF JUMPI JUMPDEST PUSH1 0x20 DUP4 LT EQ PUSH2 0x2FDB JUMPI JUMP JUMPDEST PUSH4 0x4E487B71 PUSH1 0xE0 SHL PUSH0 MSTORE PUSH1 0x22 PUSH1 0x4 MSTORE PUSH1 0x24 PUSH0 REVERT JUMPDEST SWAP2 PUSH1 0x7F AND SWAP2 PUSH2 0x2FD0 JUMP JUMPDEST SWAP1 PUSH1 0x40 MLOAD SWAP2 DUP3 PUSH0 DUP3 SLOAD SWAP3 PUSH2 0x300C DUP5 PUSH2 0x2FC1 JUMP JUMPDEST DUP1 DUP5 MSTORE SWAP4 PUSH1 0x1 DUP2 AND SWAP1 DUP2 ISZERO PUSH2 0x3075 JUMPI POP PUSH1 0x1 EQ PUSH2 0x3031 JUMPI JUMPDEST POP PUSH2 0x1015 SWAP3 POP SUB DUP4 PUSH2 0xFE5 JUMP JUMPDEST SWAP1 POP PUSH0 SWAP3 SWAP2 SWAP3 MSTORE PUSH1 0x20 PUSH0 KECCAK256 SWAP1 PUSH0 SWAP2 JUMPDEST DUP2 DUP4 LT PUSH2 0x3059 JUMPI POP POP SWAP1 PUSH1 0x20 PUSH2 0x1015 SWAP3 DUP3 ADD ADD PUSH0 PUSH2 0x3024 JUMP JUMPDEST PUSH1 0x20 SWAP2 SWAP4 POP DUP1 PUSH1 0x1 SWAP2 SLOAD DUP4 DUP6 DUP10 ADD ADD MSTORE ADD SWAP2 ADD SWAP1 SWAP2 DUP5 SWAP3 PUSH2 0x3040 JUMP JUMPDEST SWAP1 POP PUSH1 0x20 SWAP3 POP PUSH2 0x1015 SWAP5 SWAP2 POP PUSH1 0xFF NOT AND DUP3 DUP5 ADD MSTORE ISZERO ISZERO PUSH1 0x5 SHL DUP3 ADD ADD PUSH0 PUSH2 0x3024 JUMP JUMPDEST CALLVALUE PUSH2 0x47B JUMPI PUSH1 0x20 CALLDATASIZE PUSH1 0x3 NOT ADD SLT PUSH2 0x47B JUMPI PUSH1 0x4 CALLDATALOAD PUSH0 MSTORE PUSH1 0x1E PUSH1 0x20 MSTORE PUSH1 0xFF PUSH1 0x40 PUSH0 KECCAK256 PUSH2 0x4D4 DUP2 SLOAD SWAP2 PUSH2 0x3101 PUSH2 0x30D9 PUSH1 0x2 PUSH2 0x30D2 PUSH1 0x1 DUP6 ADD PUSH2 0x2FF9 JUMP JUMPDEST SWAP4 ADD PUSH2 0x2FF9 JUMP JUMPDEST SWAP2 PUSH1 0x40 MLOAD SWAP6 DUP6 PUSH2 0xFFFF DUP9 SWAP8 AND DUP8 MSTORE PUSH1 0x10 SHR AND PUSH1 0x20 DUP7 ADD MSTORE PUSH1 0x80 PUSH1 0x40 DUP7 ADD MSTORE PUSH1 0x80 DUP6 ADD SWAP1 PUSH2 0x598 JUMP JUMPDEST SWAP1 DUP4 DUP3 SUB PUSH1 0x60 DUP6 ADD MSTORE PUSH2 0x598 JUMP JUMPDEST CALLVALUE PUSH2 0x47B JUMPI PUSH0 CALLDATASIZE PUSH1 0x3 NOT ADD SLT PUSH2 0x47B JUMPI PUSH1 0x40 MLOAD PUSH0 PUSH1 0xE SLOAD PUSH2 0x312F DUP2 PUSH2 0x2FC1 JUMP JUMPDEST DUP1 DUP5 MSTORE SWAP1 PUSH1 0x1 DUP2 AND SWAP1 DUP2 ISZERO PUSH2 0x682 JUMPI POP PUSH1 0x1 EQ PUSH2 0x3156 JUMPI PUSH2 0x4D4 DUP4 PUSH2 0x618 DUP2 DUP6 SUB DUP3 PUSH2 0xFE5 JUMP JUMPDEST PUSH1 0xE PUSH0 SWAP1 DUP2 MSTORE PUSH32 0xBB7B4A454DC3493923482F07822329ED19E8244EFF582CC204F8554C3620C3FD SWAP4 SWAP3 POP SWAP1 JUMPDEST DUP1 DUP3 LT PUSH2 0x319A JUMPI POP SWAP1 SWAP2 POP DUP2 ADD PUSH1 0x20 ADD PUSH2 0x618 PUSH2 0x608 JUMP JUMPDEST SWAP2 SWAP3 PUSH1 0x1 DUP2 PUSH1 0x20 SWAP3 SLOAD DUP4 DUP6 DUP9 ADD ADD MSTORE ADD SWAP2 ADD SWAP1 SWAP3 SWAP2 PUSH2 0x3182 JUMP JUMPDEST CALLVALUE PUSH2 0x47B JUMPI PUSH1 0x20 PUSH2 0x31CD PUSH2 0x31C7 CALLDATASIZE PUSH2 0x152B JUMP JUMPDEST SWAP1 PUSH2 0x424D JUMP JUMPDEST PUSH1 0x40 MLOAD SWAP1 ISZERO ISZERO DUP2 MSTORE RETURN JUMPDEST CALLVALUE PUSH2 0x47B JUMPI PUSH1 0x20 CALLDATASIZE PUSH1 0x3 NOT ADD SLT PUSH2 0x47B JUMPI PUSH1 0x4 CALLDATALOAD PUSH2 0x31F4 DUP2 PUSH2 0x712 JUMP JUMPDEST PUSH2 0x31FC PUSH2 0x4370 JUMP JUMPDEST PUSH1 0x1 PUSH1 0x1 PUSH1 0xA0 SHL SUB AND DUP1 ISZERO PUSH2 0x324C JUMPI PUSH1 0x20 DUP2 PUSH32 0x11A3CF439FB225BFE74225716B6774765670EC1060E3796802E62139D69974DA SWAP3 PUSH1 0x1 PUSH1 0x1 PUSH1 0x60 SHL SUB PUSH1 0xA0 SHL PUSH1 0xB SLOAD AND OR PUSH1 0xB SSTORE PUSH1 0x40 MLOAD SWAP1 DUP2 MSTORE LOG1 STOP JUMPDEST PUSH4 0x3A247DD7 PUSH1 0xE1 SHL PUSH0 MSTORE PUSH1 0x4 PUSH0 REVERT JUMPDEST CALLVALUE PUSH2 0x47B JUMPI PUSH0 CALLDATASIZE PUSH1 0x3 NOT ADD SLT PUSH2 0x47B JUMPI PUSH1 0x20 PUSH1 0x40 MLOAD PUSH32 0x0 DUP2 MSTORE RETURN JUMPDEST CALLVALUE PUSH2 0x47B JUMPI PUSH2 0x32A3 CALLDATASIZE PUSH2 0x2C57 JUMP JUMPDEST PUSH2 0x32AE DUP4 SWAP3 SWAP4 PUSH2 0x4D45 JUMP JUMPDEST PUSH2 0x32B7 DUP3 PUSH2 0x4D6F JUMP JUMPDEST PUSH1 0xA0 DUP2 GT PUSH2 0x340E JUMPI DUP2 PUSH0 MSTORE PUSH1 0x1E PUSH1 0x20 MSTORE PUSH1 0x2 PUSH1 0x40 PUSH0 KECCAK256 ADD PUSH1 0x1 PUSH1 0x1 PUSH1 0x40 SHL SUB DUP3 GT PUSH2 0xFC5 JUMPI PUSH2 0x32F0 DUP3 PUSH2 0x32EA DUP4 SLOAD PUSH2 0x2FC1 JUMP JUMPDEST DUP4 PUSH2 0x39D9 JUMP JUMPDEST PUSH0 PUSH1 0x1F DUP4 GT PUSH1 0x1 EQ PUSH2 0x3380 JUMPI SWAP2 PUSH2 0x2EBB SWAP2 PUSH2 0x3341 DUP3 DUP1 PUSH32 0xE78644EFFC819F3563F83A630F6E92FEFAF026611F984BF562BCF606DE15395F SWAP7 PUSH0 SWAP2 PUSH2 0x3375 JUMPI POP DUP2 PUSH1 0x1 SHL SWAP2 PUSH0 NOT SWAP1 PUSH1 0x3 SHL SHR NOT AND OR SWAP1 JUMP JUMPDEST SWAP1 SSTORE PUSH1 0x40 MLOAD DUP5 DUP2 MSTORE PUSH32 0xF8E1A15ABA9398E019F0B49DF1A4FDE98EE17AE345CB5F6B5E2C27F5033E8CE7 SWAP1 DUP1 PUSH1 0x20 DUP2 ADD PUSH2 0x2EAA JUMP JUMPDEST SWAP1 POP DUP9 ADD CALLDATALOAD PUSH0 PUSH2 0x26C1 JUMP JUMPDEST PUSH1 0x1F NOT DUP4 AND SWAP1 PUSH2 0x3393 DUP4 PUSH0 MSTORE PUSH1 0x20 PUSH0 KECCAK256 SWAP1 JUMP JUMPDEST SWAP2 PUSH0 JUMPDEST DUP2 DUP2 LT PUSH2 0x33F6 JUMPI POP SWAP2 PUSH2 0x2EBB SWAP4 SWAP2 DUP6 PUSH32 0xE78644EFFC819F3563F83A630F6E92FEFAF026611F984BF562BCF606DE15395F SWAP7 SWAP5 LT PUSH2 0x33DD JUMPI JUMPDEST POP POP PUSH1 0x1 DUP3 DUP2 SHL ADD SWAP1 SSTORE PUSH2 0x2E7C JUMP JUMPDEST DUP8 ADD CALLDATALOAD PUSH0 NOT PUSH1 0x3 DUP6 SWAP1 SHL PUSH1 0xF8 AND SHR NOT AND SWAP1 SSTORE PUSH0 DUP1 PUSH2 0x33CE JUMP JUMPDEST SWAP2 SWAP3 PUSH1 0x20 PUSH1 0x1 DUP2 SWAP3 DUP7 DUP12 ADD CALLDATALOAD DUP2 SSTORE ADD SWAP5 ADD SWAP3 ADD PUSH2 0x3396 JUMP JUMPDEST PUSH4 0xA005982D PUSH1 0xE0 SHL PUSH0 MSTORE PUSH1 0x4 PUSH0 REVERT JUMPDEST CALLVALUE PUSH2 0x47B JUMPI PUSH0 CALLDATASIZE PUSH1 0x3 NOT ADD SLT PUSH2 0x47B JUMPI PUSH1 0x20 PUSH1 0x40 MLOAD PUSH1 0x1 DUP2 MSTORE RETURN JUMPDEST PUSH6 0xFFFFFFFFFFFF DUP2 AND SUB PUSH2 0x47B JUMPI JUMP JUMPDEST CALLDATALOAD SWAP1 PUSH2 0x1015 DUP3 PUSH2 0x3438 JUMP JUMPDEST PUSH1 0x24 CALLDATALOAD SWAP1 PUSH1 0x1 PUSH1 0x1 PUSH1 0x50 SHL SUB DUP3 AND DUP3 SUB PUSH2 0x47B JUMPI PUSH1 0x1 PUSH1 0x1 PUSH1 0x50 SHL SUB PUSH2 0x1015 SWAP3 AND DUP2 MSTORE PUSH6 0xFFFFFFFFFFFF PUSH1 0x44 CALLDATALOAD PUSH2 0x3489 DUP2 PUSH2 0x3438 JUMP JUMPDEST AND PUSH1 0x20 DUP3 ADD MSTORE PUSH6 0xFFFFFFFFFFFF PUSH1 0x64 CALLDATALOAD PUSH2 0x34A2 DUP2 PUSH2 0x3438 JUMP JUMPDEST AND PUSH1 0x40 DUP3 ADD MSTORE PUSH2 0xFFFF PUSH2 0x34B5 PUSH1 0x84 PUSH2 0x10D4 JUMP JUMPDEST AND PUSH1 0x60 DUP3 ADD MSTORE PUSH2 0xFFFF PUSH2 0x34C8 PUSH1 0xA4 PUSH2 0x10D4 JUMP JUMPDEST AND PUSH1 0x80 DUP3 ADD MSTORE PUSH1 0xA0 PUSH2 0x34DA PUSH1 0xC4 PUSH2 0x8B0 JUMP JUMPDEST ISZERO ISZERO SWAP2 ADD MSTORE JUMP JUMPDEST PUSH1 0x40 MLOAD RETURNDATASIZE PUSH0 DUP3 RETURNDATACOPY RETURNDATASIZE SWAP1 REVERT JUMPDEST SWAP2 SWAP1 PUSH2 0x34F7 DUP3 PUSH2 0x43B5 JUMP JUMPDEST PUSH1 0x1 PUSH1 0x1 PUSH1 0xA0 SHL SUB DUP5 DUP2 AND SWAP5 SWAP1 DUP3 AND DUP6 SWAP1 SUB PUSH2 0x3656 JUMPI PUSH0 DUP5 DUP2 MSTORE PUSH1 0x6 PUSH1 0x20 MSTORE PUSH1 0x40 SWAP1 KECCAK256 DUP1 SLOAD SWAP2 SWAP1 CALLER DUP1 DUP5 EQ SWAP1 DUP9 EQ OR ISZERO PUSH2 0x363F JUMPI JUMPDEST PUSH2 0x355A SWAP3 PUSH2 0x353B DUP8 DUP8 DUP6 PUSH2 0x44D0 JUMP JUMPDEST PUSH2 0x3636 JUMPI JUMPDEST POP PUSH1 0x1 PUSH1 0x1 PUSH1 0xA0 SHL SUB AND PUSH0 SWAP1 DUP2 MSTORE PUSH1 0x5 PUSH1 0x20 MSTORE PUSH1 0x40 SWAP1 KECCAK256 SWAP1 JUMP JUMPDEST DUP1 SLOAD PUSH0 NOT ADD SWAP1 SSTORE PUSH1 0x1 PUSH1 0x1 PUSH1 0xA0 SHL SUB DUP3 AND PUSH0 SWAP1 DUP2 MSTORE PUSH1 0x5 PUSH1 0x20 MSTORE PUSH1 0x40 SWAP1 KECCAK256 DUP1 SLOAD PUSH1 0x1 ADD SWAP1 SSTORE PUSH1 0x1 PUSH1 0x1 PUSH1 0xA0 SHL SUB DUP3 AND TIMESTAMP PUSH1 0xA0 SHL OR PUSH1 0x1 PUSH1 0xE1 SHL OR PUSH2 0x35A6 DUP5 PUSH0 MSTORE PUSH1 0x4 PUSH1 0x20 MSTORE PUSH1 0x40 PUSH0 KECCAK256 SWAP1 JUMP JUMPDEST SSTORE PUSH1 0x1 PUSH1 0xE1 SHL DUP2 AND ISZERO PUSH2 0x35F1 JUMPI JUMPDEST POP PUSH1 0x1 PUSH1 0x1 PUSH1 0xA0 SHL SUB AND SWAP2 DUP3 SWAP1 PUSH32 0xDDF252AD1BE2C89B69C2B068FC378DAA952BA7F163C4A11628F55A4DF523B3EF PUSH0 DUP1 LOG4 ISZERO PUSH2 0x35EC JUMPI JUMP JUMPDEST PUSH2 0x430E JUMP JUMPDEST PUSH1 0x1 DUP4 ADD PUSH2 0x3607 DUP2 PUSH0 MSTORE PUSH1 0x4 PUSH1 0x20 MSTORE PUSH1 0x40 PUSH0 KECCAK256 SWAP1 JUMP JUMPDEST SLOAD ISZERO PUSH2 0x3614 JUMPI JUMPDEST POP PUSH2 0x35B4 JUMP JUMPDEST PUSH0 SLOAD DUP2 EQ PUSH2 0x360E JUMPI PUSH2 0x362E SWAP1 PUSH0 MSTORE PUSH1 0x4 PUSH1 0x20 MSTORE PUSH1 0x40 PUSH0 KECCAK256 SWAP1 JUMP JUMPDEST SSTORE PUSH0 DUP1 PUSH2 0x360E JUMP JUMPDEST PUSH0 SWAP1 SSTORE PUSH0 PUSH2 0x3540 JUMP JUMPDEST PUSH2 0x364C PUSH2 0xC02 CALLER DUP5 PUSH2 0x424D JUMP JUMPDEST ISZERO PUSH2 0x352C JUMPI PUSH2 0x42F1 JUMP JUMPDEST PUSH2 0x4300 JUMP JUMPDEST PUSH4 0x4E487B71 PUSH1 0xE0 SHL PUSH0 MSTORE PUSH1 0x11 PUSH1 0x4 MSTORE PUSH1 0x24 PUSH0 REVERT JUMPDEST SWAP1 DUP1 PUSH1 0x20 SWAP4 SWAP3 DUP2 DUP5 MSTORE DUP5 DUP5 ADD CALLDATACOPY PUSH0 DUP3 DUP3 ADD DUP5 ADD MSTORE PUSH1 0x1F ADD PUSH1 0x1F NOT AND ADD ADD SWAP1 JUMP JUMPDEST SWAP1 CALLDATALOAD PUSH1 0x1E NOT DUP3 CALLDATASIZE SUB ADD DUP2 SLT ISZERO PUSH2 0x47B JUMPI ADD PUSH1 0x20 DUP2 CALLDATALOAD SWAP2 ADD SWAP2 PUSH1 0x1 PUSH1 0x1 PUSH1 0x40 SHL SUB DUP3 GT PUSH2 0x47B JUMPI DUP2 CALLDATASIZE SUB DUP4 SGT PUSH2 0x47B JUMPI JUMP JUMPDEST SWAP2 SWAP1 PUSH1 0x60 DUP2 ADD SWAP1 DUP4 CALLDATALOAD DUP2 MSTORE PUSH1 0x20 DUP5 ADD CALLDATALOAD PUSH1 0x1E NOT DUP6 CALLDATASIZE SUB ADD DUP2 SLT ISZERO PUSH2 0x47B JUMPI DUP5 ADD SWAP4 PUSH1 0x20 DUP6 CALLDATALOAD SWAP6 ADD SWAP5 PUSH1 0x1 PUSH1 0x1 PUSH1 0x40 SHL SUB DUP2 GT PUSH2 0x47B JUMPI DUP1 PUSH1 0x5 SHL SWAP4 DUP5 CALLDATASIZE SUB DUP8 SGT PUSH2 0x47B JUMPI PUSH1 0x60 PUSH1 0x20 DUP6 ADD MSTORE DUP2 SWAP1 MSTORE SWAP3 DUP3 ADD PUSH1 0x80 SWAP1 DUP2 ADD SWAP4 DUP7 SWAP2 PUSH0 SWAP1 DUP6 ADD JUMPDEST DUP3 DUP3 LT PUSH2 0x374B JUMPI POP POP POP POP PUSH2 0x5CD SWAP4 SWAP5 POP DUP1 PUSH1 0x40 PUSH2 0x373D SWAP3 ADD SWAP1 PUSH2 0x368F JUMP JUMPDEST SWAP2 PUSH1 0x40 DUP2 DUP6 SUB SWAP2 ADD MSTORE PUSH2 0x366F JUMP JUMPDEST SWAP1 SWAP2 SWAP3 SWAP6 PUSH1 0x20 DUP1 PUSH2 0x3771 PUSH1 0x1 SWAP4 PUSH2 0x376B DUP12 DUP15 PUSH1 0x7F NOT DUP14 DUP6 SUB ADD DUP10 MSTORE PUSH2 0x368F JUMP JUMPDEST SWAP1 PUSH2 0x366F JUMP JUMPDEST SWAP9 ADD SWAP3 ADD SWAP3 ADD SWAP1 SWAP3 SWAP2 PUSH2 0x371E JUMP JUMPDEST PUSH1 0x4 CALLDATALOAD PUSH2 0x5CD DUP2 PUSH2 0x712 JUMP JUMPDEST CALLDATALOAD PUSH2 0x5CD DUP2 PUSH2 0x712 JUMP JUMPDEST PUSH1 0x24 CALLDATALOAD PUSH1 0x1 PUSH1 0x1 PUSH1 0x60 SHL SUB DUP2 AND DUP2 SUB PUSH2 0x47B JUMPI SWAP1 JUMP JUMPDEST PUSH1 0x4 CALLDATALOAD PUSH2 0x37B7 DUP2 PUSH2 0x712 JUMP JUMPDEST PUSH1 0x1 DUP1 PUSH1 0xA0 SHL SUB AND PUSH1 0x1 PUSH1 0x1 PUSH1 0x60 SHL SUB PUSH1 0xA0 SHL PUSH1 0x10 SLOAD AND OR PUSH1 0x10 SSTORE PUSH1 0x24 CALLDATALOAD PUSH1 0x1 PUSH1 0x1 PUSH1 0x60 SHL SUB DUP2 AND DUP2 SUB PUSH2 0x47B JUMPI PUSH1 0x10 DUP1 SLOAD PUSH1 0x1 PUSH1 0x1 PUSH1 0xA0 SHL SUB AND PUSH1 0xA0 SWAP3 SWAP1 SWAP3 SHL PUSH1 0x1 PUSH1 0x1 PUSH1 0xA0 SHL SUB NOT AND SWAP2 SWAP1 SWAP2 OR SWAP1 SSTORE JUMP JUMPDEST SWAP1 PUSH1 0xC0 DUP1 PUSH2 0x1015 SWAP4 PUSH1 0x1 PUSH1 0x1 PUSH1 0x50 SHL SUB DUP2 MLOAD AND DUP5 MSTORE PUSH3 0xFFFFFF PUSH1 0x20 DUP3 ADD MLOAD AND PUSH1 0x20 DUP6 ADD MSTORE PUSH5 0xFFFFFFFFFF PUSH1 0x40 DUP3 ADD MLOAD AND PUSH1 0x40 DUP6 ADD MSTORE PUSH5 0xFFFFFFFFFF PUSH1 0x60 DUP3 ADD MLOAD AND PUSH1 0x60 DUP6 ADD MSTORE PUSH5 0xFFFFFFFFFF PUSH1 0x80 DUP3 ADD MLOAD AND PUSH1 0x80 DUP6 ADD MSTORE PUSH2 0x3876 PUSH1 0xA0 DUP3 ADD MLOAD PUSH1 0xA0 DUP7 ADD SWAP1 PUSH2 0xFFFF AND SWAP1 MSTORE JUMP JUMPDEST ADD MLOAD PUSH2 0xFFFF AND SWAP2 ADD MSTORE JUMP JUMPDEST PUSH2 0x3889 PUSH2 0x4349 JUMP JUMPDEST PUSH2 0x3892 DUP2 PUSH2 0x4384 JUMP JUMPDEST PUSH1 0x1 PUSH1 0x1 PUSH1 0xA0 SHL SUB AND SWAP2 DUP3 EXTCODESIZE ISZERO PUSH2 0x47B JUMPI PUSH1 0x40 MLOAD PUSH4 0x9A7002F PUSH1 0xE3 SHL DUP2 MSTORE PUSH1 0x1 PUSH1 0x1 PUSH1 0xA0 SHL SUB SWAP1 SWAP3 AND PUSH1 0x4 DUP4 ADD MSTORE SWAP1 SWAP2 PUSH0 SWAP2 DUP4 SWAP2 PUSH2 0x104 SWAP2 DUP4 SWAP2 DUP6 SWAP2 PUSH2 0x38DC SWAP1 PUSH1 0x24 DUP6 ADD SWAP1 PUSH2 0x380A JUMP JUMPDEST GAS CALL DUP1 ISZERO PUSH2 0x9CE JUMPI PUSH2 0x38EB JUMPI POP JUMP JUMPDEST PUSH0 PUSH2 0x1015 SWAP2 PUSH2 0xFE5 JUMP JUMPDEST PUSH0 JUMPDEST DUP3 DUP2 LT PUSH2 0x3903 JUMPI POP POP POP JUMP JUMPDEST PUSH0 DUP3 DUP3 ADD SSTORE PUSH1 0x1 ADD PUSH2 0x38F7 JUMP JUMPDEST PUSH1 0x1F DUP2 GT PUSH2 0x391C JUMPI POP POP JUMP JUMPDEST DUP2 DUP2 GT PUSH2 0x3927 JUMPI POP POP JUMP JUMPDEST PUSH1 0xD PUSH0 MSTORE PUSH2 0x1015 SWAP2 PUSH32 0xD7B6990105719101DABEB77144F2A3385C8033ACD3AF97E9423A695E81AD1EB5 SWAP2 PUSH1 0x1F DUP3 ADD PUSH1 0x5 SHR SWAP2 PUSH1 0x20 GT PUSH2 0x3971 JUMPI JUMPDEST PUSH1 0x1F DUP3 SWAP2 ADD PUSH1 0x5 SHR SUB SWAP2 ADD PUSH2 0x38F5 JUMP JUMPDEST PUSH0 SWAP2 POP PUSH2 0x3961 JUMP JUMPDEST PUSH1 0x1F DUP2 GT PUSH2 0x3985 JUMPI POP POP JUMP JUMPDEST DUP2 DUP2 GT PUSH2 0x3990 JUMPI POP POP JUMP JUMPDEST PUSH1 0xE PUSH0 MSTORE PUSH2 0x1015 SWAP2 PUSH32 0xBB7B4A454DC3493923482F07822329ED19E8244EFF582CC204F8554C3620C3FD SWAP2 PUSH1 0x1F DUP3 ADD PUSH1 0x5 SHR SWAP2 PUSH1 0x20 GT PUSH2 0x3971 JUMPI PUSH1 0x1F DUP3 SWAP2 ADD PUSH1 0x5 SHR SUB SWAP2 ADD PUSH2 0x38F5 JUMP JUMPDEST SWAP2 PUSH1 0x1F DUP3 GT PUSH2 0x39E7 JUMPI POP POP POP JUMP JUMPDEST DUP1 DUP3 GT PUSH2 0x39F3 JUMPI POP POP POP JUMP JUMPDEST PUSH2 0x1015 SWAP3 PUSH0 MSTORE PUSH1 0x20 PUSH0 KECCAK256 SWAP2 PUSH1 0x20 PUSH1 0x1F DUP4 ADD PUSH1 0x5 SHR SWAP3 LT PUSH2 0x3971 JUMPI PUSH1 0x1F DUP3 SWAP2 ADD PUSH1 0x5 SHR SUB SWAP2 ADD PUSH2 0x38F5 JUMP JUMPDEST SWAP1 SWAP3 SWAP2 PUSH1 0x1 PUSH1 0x1 PUSH1 0x40 SHL SUB DUP2 GT PUSH2 0xFC5 JUMPI PUSH2 0x3A42 DUP2 PUSH2 0x3A3C DUP5 SLOAD PUSH2 0x2FC1 JUMP JUMPDEST DUP5 PUSH2 0x39D9 JUMP JUMPDEST PUSH0 PUSH1 0x1F DUP3 GT PUSH1 0x1 EQ PUSH2 0x3A74 JUMPI DUP2 SWAP1 PUSH2 0x3A70 SWAP4 SWAP5 SWAP6 PUSH0 SWAP3 PUSH2 0x12A3 JUMPI POP POP DUP2 PUSH1 0x1 SHL SWAP2 PUSH0 NOT SWAP1 PUSH1 0x3 SHL SHR NOT AND OR SWAP1 JUMP JUMPDEST SWAP1 SSTORE JUMP JUMPDEST PUSH1 0x1F NOT DUP3 AND SWAP5 PUSH2 0x3A87 DUP5 PUSH0 MSTORE PUSH1 0x20 PUSH0 KECCAK256 SWAP1 JUMP JUMPDEST SWAP2 PUSH0 JUMPDEST DUP8 DUP2 LT PUSH2 0x3AC1 JUMPI POP DUP4 PUSH1 0x1 SWAP6 SWAP7 SWAP8 LT PUSH2 0x3AA8 JUMPI JUMPDEST POP POP POP DUP2 SHL ADD SWAP1 SSTORE JUMP JUMPDEST ADD CALLDATALOAD PUSH0 NOT PUSH1 0x3 DUP5 SWAP1 SHL PUSH1 0xF8 AND SHR NOT AND SWAP1 SSTORE PUSH0 DUP1 DUP1 PUSH2 0x3A9E JUMP JUMPDEST SWAP1 SWAP3 PUSH1 0x20 PUSH1 0x1 DUP2 SWAP3 DUP7 DUP7 ADD CALLDATALOAD DUP2 SSTORE ADD SWAP5 ADD SWAP2 ADD PUSH2 0x3A8A JUMP JUMPDEST PUSH0 NOT DUP2 ADD SWAP2 SWAP1 DUP3 GT PUSH2 0xAD3 JUMPI JUMP JUMPDEST SWAP2 SWAP1 DUP3 SUB SWAP2 DUP3 GT PUSH2 0xAD3 JUMPI JUMP JUMPDEST SWAP2 SWAP1 PUSH2 0x3AFE PUSH2 0x4370 JUMP JUMPDEST PUSH1 0x12 SLOAD PUSH0 JUMPDEST DUP2 DUP2 LT PUSH2 0x3B9A JUMPI POP POP PUSH0 JUMPDEST DUP2 DUP2 LT PUSH2 0x3B57 JUMPI POP DUP3 PUSH2 0x3B43 DUP3 PUSH32 0xBBD3B69C138DE4D317D0BC4290282C4E1CBD1E58B579A5B4F114B598C237454D SWAP5 SWAP6 PUSH2 0x47BA JUMP JUMPDEST PUSH2 0x3B52 PUSH1 0x40 MLOAD SWAP3 DUP4 SWAP3 DUP4 PUSH2 0x4855 JUMP JUMPDEST SUB SWAP1 LOG1 JUMP JUMPDEST DUP1 PUSH2 0x3B94 PUSH2 0x3B87 PUSH2 0x3B6E PUSH2 0x1E37 PUSH1 0x1 SWAP6 DUP8 DUP11 PUSH2 0x3E62 JUMP JUMPDEST PUSH1 0x1 PUSH1 0x1 PUSH1 0xA0 SHL SUB AND PUSH0 SWAP1 DUP2 MSTORE PUSH1 0x11 PUSH1 0x20 MSTORE PUSH1 0x40 SWAP1 KECCAK256 SWAP1 JUMP JUMPDEST DUP1 SLOAD PUSH1 0xFF NOT AND PUSH1 0x1 OR SWAP1 SSTORE JUMP JUMPDEST ADD PUSH2 0x3B0E JUMP JUMPDEST PUSH1 0x12 SLOAD DUP2 LT ISZERO PUSH2 0x3BF6 JUMPI PUSH1 0x12 PUSH0 MSTORE PUSH32 0xBB8A6A4669BA250D26CD7A459ECA9D215F8307E33AEBE50379BC5A3617EC3444 DUP2 ADD SLOAD PUSH1 0x1 SWAP2 SWAP1 PUSH2 0x3BF0 SWAP1 PUSH2 0x3BE6 SWAP1 PUSH1 0x1 PUSH1 0x1 PUSH1 0xA0 SHL SUB AND PUSH2 0x3B6E JUMP JUMPDEST DUP1 SLOAD PUSH1 0xFF NOT AND SWAP1 SSTORE JUMP JUMPDEST ADD PUSH2 0x3B03 JUMP JUMPDEST PUSH2 0x3E4E JUMP JUMPDEST SWAP2 PUSH1 0x20 PUSH2 0x5CD SWAP4 DUP2 DUP2 MSTORE ADD SWAP2 PUSH2 0x366F JUMP JUMPDEST CALLDATALOAD SWAP1 PUSH1 0xFF DUP3 AND DUP3 SUB PUSH2 0x47B JUMPI JUMP JUMPDEST CALLDATALOAD SWAP1 PUSH4 0xFFFFFFFF DUP3 AND DUP3 SUB PUSH2 0x47B JUMPI JUMP JUMPDEST PUSH1 0x44 CALLDATALOAD SWAP1 PUSH1 0x1 PUSH1 0x1 PUSH1 0x50 SHL SUB DUP3 AND DUP3 SUB PUSH2 0x47B JUMPI PUSH1 0x1 PUSH1 0x1 PUSH1 0x50 SHL SUB PUSH2 0x1015 SWAP3 AND DUP2 MSTORE PUSH2 0xFFFF PUSH2 0x3C5B PUSH1 0x64 PUSH2 0x10D4 JUMP JUMPDEST AND PUSH1 0x20 DUP3 ADD MSTORE PUSH6 0xFFFFFFFFFFFF PUSH1 0x84 CALLDATALOAD PUSH2 0x3C74 DUP2 PUSH2 0x3438 JUMP JUMPDEST AND PUSH1 0x40 DUP3 ADD MSTORE PUSH2 0x3C96 PUSH2 0x3C87 PUSH1 0xA4 PUSH2 0x3448 JUMP JUMPDEST PUSH6 0xFFFFFFFFFFFF AND PUSH1 0x60 DUP4 ADD MSTORE JUMP JUMPDEST PUSH2 0x3CAD PUSH2 0x3CA3 PUSH1 0xC4 PUSH2 0x3C0C JUMP JUMPDEST PUSH1 0xFF AND PUSH1 0x80 DUP4 ADD MSTORE JUMP JUMPDEST PUSH2 0x3CC7 PUSH2 0x3CBA PUSH1 0xE4 PUSH2 0x3C1A JUMP JUMPDEST PUSH4 0xFFFFFFFF AND PUSH1 0xA0 DUP4 ADD MSTORE JUMP JUMPDEST PUSH2 0x3CE0 PUSH2 0x3CD5 PUSH2 0x104 PUSH2 0x10D4 JUMP JUMPDEST PUSH2 0xFFFF AND PUSH1 0xC0 DUP4 ADD MSTORE JUMP JUMPDEST PUSH1 0xE0 PUSH2 0x34DA PUSH2 0x124 PUSH2 0x8B0 JUMP JUMPDEST SWAP1 CALLDATALOAD SWAP1 PUSH1 0x1E NOT DUP2 CALLDATASIZE SUB ADD DUP3 SLT ISZERO PUSH2 0x47B JUMPI ADD DUP1 CALLDATALOAD SWAP1 PUSH1 0x1 PUSH1 0x1 PUSH1 0x40 SHL SUB DUP3 GT PUSH2 0x47B JUMPI PUSH1 0x20 ADD SWAP2 DUP2 CALLDATASIZE SUB DUP4 SGT PUSH2 0x47B JUMPI JUMP JUMPDEST CALLDATALOAD PUSH2 0x5CD DUP2 PUSH2 0x3438 JUMP JUMPDEST PUSH1 0xC0 PUSH2 0x34DA PUSH1 0xA0 PUSH2 0x1015 SWAP5 SWAP7 SWAP6 PUSH1 0xE0 DUP6 ADD SWAP8 PUSH1 0x1 DUP1 DUP5 SHL SUB AND DUP6 MSTORE PUSH1 0x1 PUSH1 0x1 PUSH1 0x50 SHL SUB PUSH2 0x3D55 DUP3 PUSH2 0x102D JUMP JUMPDEST AND PUSH1 0x20 DUP7 ADD MSTORE PUSH6 0xFFFFFFFFFFFF PUSH1 0x20 DUP3 ADD CALLDATALOAD PUSH2 0x3D70 DUP2 PUSH2 0x3438 JUMP JUMPDEST AND PUSH1 0x40 DUP7 ADD MSTORE PUSH6 0xFFFFFFFFFFFF PUSH1 0x40 DUP3 ADD CALLDATALOAD PUSH2 0x3D8B DUP2 PUSH2 0x3438 JUMP JUMPDEST AND PUSH1 0x60 DUP7 ADD MSTORE PUSH2 0xFFFF PUSH2 0x3DA0 PUSH1 0x60 DUP4 ADD PUSH2 0x10D4 JUMP JUMPDEST AND PUSH1 0x80 DUP7 ADD MSTORE PUSH2 0xFFFF PUSH2 0x3DB5 PUSH1 0x80 DUP4 ADD PUSH2 0x10D4 JUMP JUMPDEST AND DUP3 DUP7 ADD MSTORE ADD PUSH2 0x8B0 JUMP JUMPDEST PUSH1 0x1 PUSH1 0x1 PUSH1 0xA0 SHL SUB SWAP1 SWAP2 AND DUP2 MSTORE PUSH1 0x40 PUSH1 0x20 DUP3 ADD DUP2 SWAP1 MSTORE PUSH2 0x5CD SWAP4 SWAP2 ADD SWAP2 PUSH2 0x366F JUMP JUMPDEST SWAP1 CALLDATALOAD SWAP1 PUSH1 0x5E NOT DUP2 CALLDATASIZE SUB ADD DUP3 SLT ISZERO PUSH2 0x47B JUMPI ADD SWAP1 JUMP JUMPDEST PUSH1 0x1 PUSH1 0x1 PUSH1 0xA0 SHL SUB SWAP1 SWAP2 AND DUP2 MSTORE PUSH1 0x40 PUSH1 0x20 DUP3 ADD DUP2 SWAP1 MSTORE PUSH2 0x5CD SWAP3 SWAP2 ADD SWAP1 PUSH2 0x36C0 JUMP JUMPDEST SWAP1 CALLDATALOAD SWAP1 PUSH1 0x1E NOT DUP2 CALLDATASIZE SUB ADD DUP3 SLT ISZERO PUSH2 0x47B JUMPI ADD DUP1 CALLDATALOAD SWAP1 PUSH1 0x1 PUSH1 0x1 PUSH1 0x40 SHL SUB DUP3 GT PUSH2 0x47B JUMPI PUSH1 0x20 ADD SWAP2 DUP2 PUSH1 0x5 SHL CALLDATASIZE SUB DUP4 SGT PUSH2 0x47B JUMPI JUMP JUMPDEST PUSH4 0x4E487B71 PUSH1 0xE0 SHL PUSH0 MSTORE PUSH1 0x32 PUSH1 0x4 MSTORE PUSH1 0x24 PUSH0 REVERT JUMPDEST SWAP2 SWAP1 DUP2 LT ISZERO PUSH2 0x3BF6 JUMPI PUSH1 0x5 SHL ADD SWAP1 JUMP JUMPDEST SWAP1 CALLDATALOAD SWAP1 PUSH1 0x1E NOT DUP2 CALLDATASIZE SUB ADD DUP3 SLT ISZERO PUSH2 0x47B JUMPI ADD DUP1 CALLDATALOAD SWAP1 PUSH1 0x1 PUSH1 0x1 PUSH1 0x40 SHL SUB DUP3 GT PUSH2 0x47B JUMPI PUSH1 0x20 ADD SWAP2 DUP2 PUSH1 0x8 SHL CALLDATASIZE SUB DUP4 SGT PUSH2 0x47B JUMPI JUMP JUMPDEST SWAP2 SWAP1 DUP2 LT ISZERO PUSH2 0x3BF6 JUMPI PUSH1 0x8 SHL ADD SWAP1 JUMP JUMPDEST PUSH1 0x1 PUSH1 0x1 PUSH1 0xA0 SHL SUB SWAP2 DUP3 AND DUP2 MSTORE SWAP2 AND PUSH1 0x20 DUP3 ADD MSTORE PUSH2 0x140 DUP2 ADD SWAP3 SWAP2 PUSH2 0x1015 SWAP2 SWAP1 PUSH2 0x120 SWAP1 PUSH2 0x34DA SWAP1 PUSH1 0xE0 SWAP1 PUSH1 0x1 PUSH1 0x1 PUSH1 0x50 SHL SUB PUSH2 0x3EF3 DUP3 PUSH2 0x102D JUMP JUMPDEST AND PUSH1 0x40 DUP7 ADD MSTORE PUSH2 0xFFFF PUSH2 0x3F08 PUSH1 0x20 DUP4 ADD PUSH2 0x10D4 JUMP JUMPDEST AND PUSH1 0x60 DUP7 ADD MSTORE PUSH6 0xFFFFFFFFFFFF PUSH1 0x40 DUP3 ADD CALLDATALOAD PUSH2 0x3F23 DUP2 PUSH2 0x3438 JUMP JUMPDEST AND PUSH1 0x80 DUP7 ADD MSTORE PUSH2 0x3F47 PUSH2 0x3F38 PUSH1 0x60 DUP4 ADD PUSH2 0x3448 JUMP JUMPDEST PUSH6 0xFFFFFFFFFFFF AND PUSH1 0xA0 DUP8 ADD MSTORE JUMP JUMPDEST PUSH2 0x3F60 PUSH2 0x3F56 PUSH1 0x80 DUP4 ADD PUSH2 0x3C0C JUMP JUMPDEST PUSH1 0xFF AND PUSH1 0xC0 DUP8 ADD MSTORE JUMP JUMPDEST PUSH2 0x3F7B PUSH2 0x3F6F PUSH1 0xA0 DUP4 ADD PUSH2 0x3C1A JUMP JUMPDEST PUSH4 0xFFFFFFFF AND DUP7 DUP5 ADD MSTORE JUMP JUMPDEST PUSH2 0x3F96 PUSH2 0x3F8A PUSH1 0xC0 DUP4 ADD PUSH2 0x10D4 JUMP JUMPDEST PUSH2 0xFFFF AND PUSH2 0x100 DUP8 ADD MSTORE JUMP JUMPDEST ADD PUSH2 0x8B0 JUMP JUMPDEST PUSH1 0x40 MLOAD SWAP1 PUSH2 0x100 DUP3 ADD DUP3 DUP2 LT PUSH1 0x1 PUSH1 0x1 PUSH1 0x40 SHL SUB DUP3 GT OR PUSH2 0xFC5 JUMPI PUSH1 0x40 MSTORE PUSH0 PUSH1 0xE0 DUP4 DUP3 DUP2 MSTORE DUP3 PUSH1 0x20 DUP3 ADD MSTORE DUP3 PUSH1 0x40 DUP3 ADD MSTORE DUP3 PUSH1 0x60 DUP3 ADD MSTORE DUP3 PUSH1 0x80 DUP3 ADD MSTORE DUP3 PUSH1 0xA0 DUP3 ADD MSTORE DUP3 PUSH1 0xC0 DUP3 ADD MSTORE ADD MSTORE JUMP JUMPDEST SWAP1 SWAP4 SWAP3 PUSH1 0xE0 PUSH2 0x120 SWAP2 PUSH2 0x1015 SWAP5 PUSH2 0x140 DUP6 ADD SWAP8 PUSH1 0x1 DUP1 PUSH1 0xA0 SHL SUB AND DUP6 MSTORE PUSH1 0x1 DUP1 PUSH1 0xA0 SHL SUB AND PUSH1 0x20 DUP6 ADD MSTORE PUSH1 0x1 PUSH1 0x1 PUSH1 0x50 SHL SUB DUP2 MLOAD AND PUSH1 0x40 DUP6 ADD MSTORE PUSH2 0xFFFF PUSH1 0x20 DUP3 ADD MLOAD AND PUSH1 0x60 DUP6 ADD MSTORE PUSH6 0xFFFFFFFFFFFF PUSH1 0x40 DUP3 ADD MLOAD AND PUSH1 0x80 DUP6 ADD MSTORE PUSH2 0x405C PUSH1 0x60 DUP3 ADD MLOAD PUSH1 0xA0 DUP7 ADD SWAP1 PUSH6 0xFFFFFFFFFFFF AND SWAP1 MSTORE JUMP JUMPDEST PUSH1 0x80 DUP2 ADD MLOAD PUSH1 0xFF AND PUSH1 0xC0 DUP6 ADD MSTORE PUSH1 0xA0 DUP2 ADD MLOAD PUSH4 0xFFFFFFFF AND DUP5 DUP4 ADD MSTORE PUSH1 0xC0 DUP2 ADD MLOAD PUSH2 0xFFFF AND PUSH2 0x100 DUP6 ADD MSTORE ADD MLOAD ISZERO ISZERO SWAP2 ADD MSTORE JUMP JUMPDEST SWAP1 CALLDATALOAD SWAP1 PUSH1 0x1E NOT DUP2 CALLDATASIZE SUB ADD DUP3 SLT ISZERO PUSH2 0x47B JUMPI ADD DUP1 CALLDATALOAD SWAP1 PUSH1 0x1 PUSH1 0x1 PUSH1 0x40 SHL SUB DUP3 GT PUSH2 0x47B JUMPI PUSH1 0x20 ADD SWAP2 PUSH1 0xE0 DUP3 MUL CALLDATASIZE SUB DUP4 SGT PUSH2 0x47B JUMPI JUMP JUMPDEST SWAP2 SWAP1 DUP2 LT ISZERO PUSH2 0x3BF6 JUMPI PUSH1 0xE0 MUL ADD SWAP1 JUMP JUMPDEST PUSH1 0x1 PUSH1 0x1 PUSH1 0xA0 SHL SUB SWAP2 DUP3 AND DUP2 MSTORE SWAP2 AND PUSH1 0x20 DUP3 ADD MSTORE PUSH2 0x120 DUP2 ADD SWAP3 SWAP2 PUSH2 0x1015 SWAP2 SWAP1 PUSH2 0x100 SWAP1 PUSH2 0x4194 SWAP1 PUSH1 0xC0 SWAP1 PUSH1 0x1 PUSH1 0x1 PUSH1 0x50 SHL SUB PUSH2 0x4111 DUP3 PUSH2 0x102D JUMP JUMPDEST AND PUSH1 0x40 DUP7 ADD MSTORE PUSH3 0xFFFFFF PUSH2 0x4127 PUSH1 0x20 DUP4 ADD PUSH2 0x1053 JUMP JUMPDEST AND PUSH1 0x60 DUP7 ADD MSTORE PUSH5 0xFFFFFFFFFF PUSH2 0x413F PUSH1 0x40 DUP4 ADD PUSH2 0x109F JUMP JUMPDEST AND PUSH1 0x80 DUP7 ADD MSTORE PUSH5 0xFFFFFFFFFF PUSH2 0x4157 PUSH1 0x60 DUP4 ADD PUSH2 0x109F JUMP JUMPDEST AND PUSH1 0xA0 DUP7 ADD MSTORE PUSH5 0xFFFFFFFFFF PUSH2 0x416F PUSH1 0x80 DUP4 ADD PUSH2 0x109F JUMP JUMPDEST AND DUP3 DUP7 ADD MSTORE PUSH2 0x418E PUSH2 0x4183 PUSH1 0xA0 DUP4 ADD PUSH2 0x10D4 JUMP JUMPDEST PUSH2 0xFFFF AND PUSH1 0xE0 DUP8 ADD MSTORE JUMP JUMPDEST ADD PUSH2 0x10D4 JUMP JUMPDEST PUSH2 0xFFFF AND SWAP2 ADD MSTORE JUMP JUMPDEST PUSH1 0x40 MLOAD SWAP1 PUSH2 0x41AA DUP3 PUSH2 0xFAA JUMP JUMPDEST PUSH0 PUSH1 0xC0 DUP4 DUP3 DUP2 MSTORE DUP3 PUSH1 0x20 DUP3 ADD MSTORE DUP3 PUSH1 0x40 DUP3 ADD MSTORE DUP3 PUSH1 0x60 DUP3 ADD MSTORE DUP3 PUSH1 0x80 DUP3 ADD MSTORE DUP3 PUSH1 0xA0 DUP3 ADD MSTORE ADD MSTORE JUMP JUMPDEST PUSH1 0x1 PUSH1 0x1 PUSH1 0xA0 SHL SUB SWAP2 DUP3 AND DUP2 MSTORE SWAP2 AND PUSH1 0x20 DUP3 ADD MSTORE PUSH2 0x120 DUP2 ADD SWAP3 SWAP2 PUSH2 0x1015 SWAP2 PUSH1 0x40 ADD SWAP1 PUSH2 0x380A JUMP JUMPDEST SWAP3 SWAP2 SWAP1 PUSH2 0x4209 DUP3 DUP3 DUP7 PUSH2 0x34EC JUMP JUMPDEST DUP1 EXTCODESIZE PUSH2 0x4216 JUMPI JUMPDEST POP POP POP POP JUMP JUMPDEST PUSH2 0x421F SWAP4 PUSH2 0x4A0E JUMP JUMPDEST ISZERO PUSH2 0x422D JUMPI PUSH0 DUP1 DUP1 DUP1 PUSH2 0x4210 JUMP JUMPDEST PUSH4 0x68D2BF6B PUSH1 0xE1 SHL PUSH0 MSTORE PUSH1 0x4 PUSH0 REVERT JUMPDEST SWAP1 DUP2 MLOAD DUP2 LT ISZERO PUSH2 0x3BF6 JUMPI ADD PUSH1 0x20 ADD SWAP1 JUMP JUMPDEST PUSH1 0x1 PUSH1 0x1 PUSH1 0xA0 SHL SUB DUP3 AND PUSH20 0x1E0049783F008A0085193E00003D00CD54003C71 EQ PUSH2 0x429F JUMPI PUSH1 0x1 PUSH1 0x1 PUSH1 0xA0 SHL SUB SWAP1 DUP2 AND PUSH0 SWAP1 DUP2 MSTORE PUSH1 0x7 PUSH1 0x20 SWAP1 DUP2 MSTORE PUSH1 0x40 DUP1 DUP4 KECCAK256 SWAP4 SWAP1 SWAP5 AND DUP3 MSTORE SWAP2 SWAP1 SWAP2 MSTORE KECCAK256 PUSH1 0xFF SWAP1 SLOAD AND SWAP1 JUMP JUMPDEST POP POP PUSH1 0x1 SWAP1 JUMP JUMPDEST SWAP1 PUSH0 SWAP2 DUP1 PUSH1 0x1 GT ISZERO PUSH2 0x42B5 JUMPI POP JUMP JUMPDEST PUSH0 SLOAD DUP2 LT PUSH2 0x42C0 JUMPI POP JUMP JUMPDEST SWAP1 SWAP2 POP JUMPDEST DUP1 PUSH0 MSTORE PUSH1 0x4 PUSH1 0x20 MSTORE PUSH1 0x40 PUSH0 KECCAK256 SLOAD DUP1 PUSH2 0x42E5 JUMPI POP DUP1 ISZERO PUSH2 0xAD3 JUMPI PUSH0 NOT ADD PUSH2 0x42C4 JUMP JUMPDEST PUSH1 0x1 PUSH1 0xE0 SHL AND ISZERO SWAP2 SWAP1 POP JUMP JUMPDEST PUSH4 0x2CE44B5F PUSH1 0xE1 SHL PUSH0 MSTORE PUSH1 0x4 PUSH0 REVERT JUMPDEST PUSH3 0xA11481 PUSH1 0xE8 SHL PUSH0 MSTORE PUSH1 0x4 PUSH0 REVERT JUMPDEST PUSH4 0x3A954ECD PUSH1 0xE2 SHL PUSH0 MSTORE PUSH1 0x4 PUSH0 REVERT JUMPDEST PUSH4 0x6F96CDA1 PUSH1 0xE1 SHL PUSH0 MSTORE PUSH1 0x4 PUSH0 REVERT JUMPDEST PUSH4 0xB562E8DD PUSH1 0xE0 SHL PUSH0 MSTORE PUSH1 0x4 PUSH0 REVERT JUMPDEST PUSH3 0x2E0763 PUSH1 0xE8 SHL PUSH0 MSTORE PUSH1 0x4 PUSH0 REVERT JUMPDEST PUSH1 0x1 DUP1 PUSH1 0xA0 SHL SUB PUSH1 0xA SLOAD AND CALLER EQ ADDRESS CALLER EQ OR ISZERO PUSH2 0x4361 JUMPI JUMP JUMPDEST PUSH4 0x5FC483C5 PUSH1 0xE0 SHL PUSH0 MSTORE PUSH1 0x4 PUSH0 REVERT JUMPDEST PUSH1 0xA SLOAD PUSH1 0x1 PUSH1 0x1 PUSH1 0xA0 SHL SUB AND CALLER SUB PUSH2 0x4361 JUMPI JUMP JUMPDEST PUSH1 0x1 DUP1 PUSH1 0xA0 SHL SUB AND PUSH0 MSTORE PUSH1 0x11 PUSH1 0x20 MSTORE PUSH1 0x1 PUSH1 0xFF PUSH1 0x40 PUSH0 KECCAK256 SLOAD AND ISZERO ISZERO SUB PUSH2 0x43A6 JUMPI JUMP JUMPDEST PUSH4 0x15E26FF3 PUSH1 0xE0 SHL PUSH0 MSTORE PUSH1 0x4 PUSH0 REVERT JUMPDEST DUP1 PUSH1 0x1 GT PUSH2 0x431D JUMPI PUSH2 0x43CF DUP2 PUSH0 MSTORE PUSH1 0x4 PUSH1 0x20 MSTORE PUSH1 0x40 PUSH0 KECCAK256 SWAP1 JUMP JUMPDEST SLOAD SWAP1 DUP2 ISZERO PUSH2 0x43E6 JUMPI POP PUSH1 0x1 PUSH1 0xE0 SHL DUP2 AND PUSH2 0x431D JUMPI SWAP1 JUMP JUMPDEST SWAP1 POP PUSH0 SLOAD DUP2 LT ISZERO PUSH2 0x431D JUMPI JUMPDEST PUSH0 NOT ADD PUSH0 DUP2 DUP2 MSTORE PUSH1 0x4 PUSH1 0x20 MSTORE PUSH1 0x40 SWAP1 KECCAK256 SLOAD SWAP1 DUP2 ISZERO PUSH2 0x4419 JUMPI POP PUSH1 0x1 PUSH1 0xE0 SHL DUP2 AND PUSH2 0x431D JUMPI SWAP1 JUMP JUMPDEST SWAP1 POP PUSH2 0x43F2 JUMP JUMPDEST PUSH1 0x1 PUSH1 0x1 PUSH1 0xA0 SHL SUB DUP2 AND ISZERO ISZERO DUP1 DUP1 PUSH2 0x44C4 JUMPI JUMPDEST PUSH2 0x7D7 JUMPI DUP1 PUSH2 0x44BD JUMPI JUMPDEST PUSH2 0x4445 JUMPI POP POP JUMP JUMPDEST PUSH1 0x9 SLOAD PUSH1 0x1 PUSH1 0x1 PUSH1 0xA0 SHL SUB AND SWAP2 DUP3 PUSH2 0x445C JUMPI POP POP POP JUMP JUMPDEST DUP3 EXTCODESIZE ISZERO PUSH2 0x47B JUMPI PUSH1 0x40 MLOAD PUSH4 0x657711F5 PUSH1 0xE1 SHL DUP2 MSTORE CALLER PUSH1 0x4 DUP3 ADD MSTORE PUSH1 0x1 PUSH1 0x1 PUSH1 0xA0 SHL SUB SWAP3 SWAP1 SWAP3 AND PUSH1 0x24 DUP4 ADD MSTORE PUSH0 PUSH1 0x44 DUP4 ADD DUP2 SWAP1 MSTORE PUSH1 0x64 DUP4 ADD SWAP2 SWAP1 SWAP2 MSTORE SWAP1 SWAP2 DUP3 SWAP1 PUSH1 0x84 SWAP1 DUP3 SWAP1 GAS STATICCALL DUP1 ISZERO PUSH2 0x9CE JUMPI PUSH2 0x44AF JUMPI POP JUMP JUMPDEST DUP1 PUSH2 0x1E8D PUSH0 PUSH2 0x1015 SWAP4 PUSH2 0xFE5 JUMP JUMPDEST POP PUSH0 PUSH2 0x443D JUMP JUMPDEST POP PUSH1 0xFF PUSH1 0x13 SLOAD AND PUSH2 0x4433 JUMP JUMPDEST SWAP1 SWAP2 PUSH1 0x1 PUSH1 0x1 PUSH1 0xA0 SHL SUB DUP3 AND ISZERO ISZERO DUP1 DUP1 PUSH2 0x458B JUMPI JUMPDEST PUSH2 0x7D7 JUMPI DUP1 PUSH2 0x4579 JUMPI JUMPDEST PUSH2 0x44F8 JUMPI POP POP POP JUMP JUMPDEST PUSH1 0x9 SLOAD PUSH1 0x1 PUSH1 0x1 PUSH1 0xA0 SHL SUB AND DUP1 PUSH2 0x450F JUMPI POP POP POP POP JUMP JUMPDEST DUP1 EXTCODESIZE ISZERO PUSH2 0x47B JUMPI PUSH1 0x40 MLOAD PUSH4 0x657711F5 PUSH1 0xE1 SHL DUP2 MSTORE CALLER PUSH1 0x4 DUP3 ADD MSTORE PUSH1 0x1 PUSH1 0x1 PUSH1 0xA0 SHL SUB SWAP4 DUP5 AND PUSH1 0x24 DUP3 ADD MSTORE SWAP4 SWAP1 SWAP3 AND PUSH1 0x44 DUP5 ADD MSTORE PUSH1 0x64 DUP4 ADD MSTORE PUSH0 SWAP1 DUP3 SWAP1 PUSH1 0x84 SWAP1 DUP3 SWAP1 GAS STATICCALL DUP1 ISZERO PUSH2 0x9CE JUMPI PUSH2 0x4565 JUMPI JUMPDEST DUP1 DUP1 DUP1 PUSH2 0x4210 JUMP JUMPDEST DUP1 PUSH2 0x1E8D PUSH0 PUSH2 0x4573 SWAP4 PUSH2 0xFE5 JUMP JUMPDEST PUSH0 PUSH2 0x455D JUMP JUMPDEST POP PUSH1 0x1 PUSH1 0x1 PUSH1 0xA0 SHL SUB DUP4 AND ISZERO ISZERO PUSH2 0x44EF JUMP JUMPDEST POP PUSH1 0xFF PUSH1 0x13 SLOAD AND PUSH2 0x44E5 JUMP JUMPDEST PUSH0 SLOAD PUSH0 NOT DUP3 DUP3 ADD DUP2 ADD SWAP3 SWAP2 ADD DUP3 LT PUSH2 0xAD3 JUMPI PUSH1 0xC SLOAD DUP1 SWAP3 GT PUSH2 0x45B7 JUMPI POP POP JUMP JUMPDEST PUSH0 SLOAD PUSH0 NOT SWAP2 DUP2 ADD DUP3 ADD SWAP2 ADD DUP2 LT PUSH2 0xAD3 JUMPI PUSH4 0x384B48C5 PUSH1 0xE2 SHL PUSH0 MSTORE PUSH1 0x4 MSTORE PUSH1 0x24 MSTORE PUSH1 0x44 PUSH0 REVERT JUMPDEST PUSH1 0xFF PUSH1 0x16 SLOAD PUSH1 0x10 SHR AND ISZERO PUSH2 0x463C JUMPI PUSH0 NOT PUSH0 SLOAD ADD SWAP1 PUSH0 JUMPDEST DUP2 DUP2 LT PUSH2 0x45FF JUMPI POP POP POP JUMP JUMPDEST DUP1 DUP4 ADD SWAP1 DUP2 DUP5 GT PUSH2 0xAD3 JUMPI PUSH1 0x1 DUP3 ADD SWAP2 DUP3 DUP2 GT PUSH2 0xAD3 JUMPI PUSH1 0xC SLOAD SWAP3 DUP2 DUP7 GT PUSH2 0xAD3 JUMPI PUSH2 0x4630 PUSH2 0x4636 SWAP3 PUSH1 0x1 SWAP6 PUSH2 0x3AE7 JUMP JUMPDEST SWAP1 PUSH2 0x4FAA JUMP JUMPDEST ADD PUSH2 0x45F3 JUMP JUMPDEST PUSH4 0x636402DF PUSH1 0xE0 SHL PUSH0 MSTORE PUSH1 0x4 PUSH0 REVERT JUMPDEST SWAP2 PUSH1 0x40 MLOAD SWAP1 PUSH2 0x465B PUSH1 0x20 DUP4 PUSH2 0xFE5 JUMP JUMPDEST PUSH0 DUP3 MSTORE PUSH1 0xFF PUSH1 0x16 SLOAD AND PUSH2 0x47AB JUMPI PUSH2 0x4671 DUP4 PUSH2 0x4597 JUMP JUMPDEST PUSH2 0x467A DUP4 PUSH2 0x45DD JUMP JUMPDEST PUSH0 SLOAD SWAP2 DUP4 ISZERO PUSH2 0x47A6 JUMPI PUSH1 0x1 PUSH1 0x1 PUSH1 0xA0 SHL SUB DUP6 AND TIMESTAMP PUSH1 0xA0 SHL PUSH1 0x1 DUP7 EQ PUSH1 0xE1 SHL OR OR PUSH2 0x46AC DUP5 PUSH0 MSTORE PUSH1 0x4 PUSH1 0x20 MSTORE PUSH1 0x40 PUSH0 KECCAK256 SWAP1 JUMP JUMPDEST SSTORE PUSH1 0x1 PUSH1 0x1 PUSH1 0xA0 SHL SUB DUP6 AND PUSH0 DUP2 DUP2 MSTORE PUSH1 0x5 PUSH1 0x20 MSTORE PUSH1 0x40 SWAP1 KECCAK256 DUP1 SLOAD PUSH9 0x10000000000000001 DUP8 MUL ADD SWAP1 SSTORE SWAP4 DUP5 ISZERO PUSH2 0x47A1 JUMPI DUP1 DUP5 ADD SWAP4 SWAP6 PUSH1 0x1 JUMPDEST ISZERO PUSH2 0x4717 JUMPI JUMPDEST PUSH0 DUP8 DUP8 PUSH0 PUSH32 0xDDF252AD1BE2C89B69C2B068FC378DAA952BA7F163C4A11628F55A4DF523B3EF DUP2 DUP1 LOG4 PUSH2 0x46E4 JUMP JUMPDEST SWAP6 PUSH1 0x1 ADD SWAP6 DUP5 DUP8 SUB PUSH2 0x46EA JUMPI PUSH0 DUP6 SWAP1 SSTORE SWAP3 SWAP6 POP SWAP1 SWAP4 POP SWAP2 PUSH0 NOT ADD PUSH1 0xC SLOAD EQ PUSH2 0x478A JUMPI JUMPDEST DUP1 EXTCODESIZE PUSH2 0x4745 JUMPI POP POP POP JUMP JUMPDEST SWAP1 SWAP2 SWAP3 PUSH0 SLOAD SWAP3 DUP4 SUB SWAP3 PUSH1 0x1 JUMPDEST ISZERO PUSH2 0x4775 JUMPI JUMPDEST PUSH0 PUSH2 0x476A PUSH2 0xC02 DUP8 PUSH1 0x1 DUP9 ADD SWAP8 DUP8 PUSH2 0x496F JUMP JUMPDEST ISZERO PUSH2 0x4751 JUMPI JUMPDEST PUSH2 0x422D JUMP JUMPDEST DUP1 DUP5 LT PUSH2 0x4757 JUMPI SWAP3 POP SWAP3 POP POP PUSH0 SLOAD SUB PUSH2 0x47B JUMPI JUMP JUMPDEST PUSH2 0x479C PUSH1 0x1 PUSH1 0xFF NOT PUSH1 0x16 SLOAD AND OR PUSH1 0x16 SSTORE JUMP JUMPDEST PUSH2 0x473A JUMP JUMPDEST PUSH2 0x433B JUMP JUMPDEST PUSH2 0x432C JUMP JUMPDEST PUSH4 0x6CE844D PUSH1 0xE0 SHL PUSH0 MSTORE PUSH1 0x4 PUSH0 REVERT JUMPDEST PUSH1 0x1 PUSH1 0x1 PUSH1 0x40 SHL SUB DUP3 GT PUSH2 0xFC5 JUMPI PUSH9 0x10000000000000000 DUP3 GT PUSH2 0xFC5 JUMPI PUSH1 0x12 SLOAD DUP3 PUSH1 0x12 SSTORE DUP1 DUP4 LT PUSH2 0x481C JUMPI JUMPDEST POP PUSH1 0x12 PUSH0 MSTORE PUSH1 0x20 PUSH0 KECCAK256 PUSH0 JUMPDEST DUP4 DUP2 LT PUSH2 0x47FF JUMPI POP POP POP POP JUMP JUMPDEST PUSH1 0x1 SWAP1 PUSH1 0x20 DUP5 CALLDATALOAD SWAP5 PUSH2 0x4810 DUP7 PUSH2 0x712 JUMP JUMPDEST ADD SWAP4 DUP2 DUP5 ADD SSTORE ADD PUSH2 0x47F2 JUMP JUMPDEST PUSH1 0x12 PUSH0 MSTORE PUSH2 0x484F SWAP1 DUP4 SWAP1 SUB PUSH32 0xBB8A6A4669BA250D26CD7A459ECA9D215F8307E33AEBE50379BC5A3617EC3444 DUP5 ADD PUSH2 0x38F5 JUMP JUMPDEST PUSH0 PUSH2 0x47E7 JUMP JUMPDEST PUSH1 0x20 DUP1 DUP3 MSTORE DUP2 ADD DUP4 SWAP1 MSTORE PUSH1 0x40 ADD SWAP2 PUSH0 JUMPDEST DUP2 DUP2 LT PUSH2 0x4872 JUMPI POP POP POP SWAP1 JUMP JUMPDEST SWAP1 SWAP2 SWAP3 PUSH1 0x20 DUP1 PUSH1 0x1 SWAP3 DUP7 CALLDATALOAD PUSH2 0x4886 DUP2 PUSH2 0x712 JUMP JUMPDEST DUP5 DUP1 PUSH1 0xA0 SHL SUB AND DUP2 MSTORE ADD SWAP5 ADD SWAP2 ADD SWAP2 SWAP1 SWAP2 PUSH2 0x4865 JUMP JUMPDEST PUSH4 0xFFFFFFFE PUSH0 NOT DUP3 ADD LT ISZERO PUSH2 0x48ED JUMPI PUSH1 0x1F SLOAD PUSH2 0x48E0 JUMPI PUSH1 0x1F PUSH0 DUP2 SWAP1 MSTORE PUSH1 0xE0 SWAP2 SWAP1 SWAP2 SHL PUSH28 0xA03837A25210EE280C2113FF4B77CA23440B19D4866CCA7200000000 OR SWAP1 SSTORE JUMP JUMPDEST PUSH4 0xC9F11F2 PUSH0 MSTORE PUSH1 0x4 PUSH1 0x1C REVERT JUMPDEST PUSH4 0x83B53941 PUSH0 MSTORE PUSH1 0x4 PUSH1 0x1C REVERT JUMPDEST SWAP1 DUP2 PUSH1 0x20 SWAP2 SUB SLT PUSH2 0x47B JUMPI MLOAD PUSH2 0x5CD DUP2 PUSH2 0x469 JUMP JUMPDEST PUSH1 0x1 PUSH1 0x1 PUSH1 0xA0 SHL SUB SWAP2 DUP3 AND DUP2 MSTORE SWAP2 AND PUSH1 0x20 DUP3 ADD MSTORE PUSH1 0x40 DUP2 ADD SWAP2 SWAP1 SWAP2 MSTORE PUSH1 0x80 PUSH1 0x60 DUP3 ADD DUP2 SWAP1 MSTORE PUSH2 0x5CD SWAP3 SWAP2 ADD SWAP1 PUSH2 0x598 JUMP JUMPDEST RETURNDATASIZE ISZERO PUSH2 0x496A JUMPI RETURNDATASIZE SWAP1 PUSH2 0x4951 DUP3 PUSH2 0x2A75 JUMP JUMPDEST SWAP2 PUSH2 0x495F PUSH1 0x40 MLOAD SWAP4 DUP5 PUSH2 0xFE5 JUMP JUMPDEST DUP3 MSTORE RETURNDATASIZE PUSH0 PUSH1 0x20 DUP5 ADD RETURNDATACOPY JUMP JUMPDEST PUSH1 0x60 SWAP1 JUMP JUMPDEST SWAP2 PUSH2 0x4996 SWAP3 PUSH1 0x20 SWAP3 PUSH0 PUSH1 0x40 MLOAD DUP1 SWAP7 DUP2 SWAP6 DUP3 SWAP5 PUSH4 0xA85BD01 PUSH1 0xE1 SHL DUP5 MSTORE DUP5 CALLER PUSH1 0x4 DUP7 ADD PUSH2 0x490F JUMP JUMPDEST SUB SWAP3 PUSH1 0x1 PUSH1 0x1 PUSH1 0xA0 SHL SUB AND GAS CALL PUSH0 SWAP2 DUP2 PUSH2 0x49DD JUMPI JUMPDEST POP PUSH2 0x49C7 JUMPI PUSH2 0x49B8 PUSH2 0x4940 JUMP JUMPDEST DUP1 MLOAD ISZERO PUSH2 0x4770 JUMPI DUP1 MLOAD SWAP1 PUSH1 0x20 ADD REVERT JUMPDEST PUSH1 0x1 PUSH1 0x1 PUSH1 0xE0 SHL SUB NOT AND PUSH4 0xA85BD01 PUSH1 0xE1 SHL EQ SWAP1 JUMP JUMPDEST PUSH2 0x4A00 SWAP2 SWAP3 POP PUSH1 0x20 RETURNDATASIZE PUSH1 0x20 GT PUSH2 0x4A07 JUMPI JUMPDEST PUSH2 0x49F8 DUP2 DUP4 PUSH2 0xFE5 JUMP JUMPDEST DUP2 ADD SWAP1 PUSH2 0x48FA JUMP JUMPDEST SWAP1 PUSH0 PUSH2 0x49AB JUMP JUMPDEST POP RETURNDATASIZE PUSH2 0x49EE JUMP JUMPDEST SWAP1 PUSH1 0x20 SWAP3 PUSH0 PUSH2 0x4996 SWAP6 SWAP4 PUSH1 0x40 MLOAD SWAP7 DUP8 SWAP6 DUP7 SWAP5 DUP6 SWAP4 PUSH4 0xA85BD01 PUSH1 0xE1 SHL DUP6 MSTORE CALLER PUSH1 0x4 DUP7 ADD PUSH2 0x490F JUMP JUMPDEST DUP2 PUSH1 0x1F DUP3 ADD SLT ISZERO PUSH2 0x47B JUMPI DUP1 MLOAD SWAP1 PUSH2 0x4A4D DUP3 PUSH2 0x2A75 JUMP JUMPDEST SWAP3 PUSH2 0x4A5B PUSH1 0x40 MLOAD SWAP5 DUP6 PUSH2 0xFE5 JUMP JUMPDEST DUP3 DUP5 MSTORE PUSH1 0x20 DUP4 DUP4 ADD ADD GT PUSH2 0x47B JUMPI DUP2 PUSH0 SWAP3 PUSH1 0x20 DUP1 SWAP4 ADD DUP4 DUP7 ADD MCOPY DUP4 ADD ADD MSTORE SWAP1 JUMP JUMPDEST SWAP2 SWAP1 SWAP2 PUSH1 0x40 DUP2 DUP5 SUB SLT PUSH2 0x47B JUMPI DUP1 MLOAD PUSH1 0x1 PUSH1 0x1 PUSH1 0x40 SHL SUB DUP2 GT PUSH2 0x47B JUMPI DUP4 PUSH2 0x4AA5 SWAP2 DUP4 ADD PUSH2 0x4A36 JUMP JUMPDEST SWAP3 PUSH1 0x20 DUP3 ADD MLOAD PUSH1 0x1 PUSH1 0x1 PUSH1 0x40 SHL SUB DUP2 GT PUSH2 0x47B JUMPI PUSH2 0x5CD SWAP3 ADD PUSH2 0x4A36 JUMP JUMPDEST DUP1 MLOAD SWAP2 SWAP1 DUP3 SWAP1 PUSH1 0x20 ADD DUP3 MCOPY ADD PUSH0 DUP2 MSTORE SWAP1 JUMP JUMPDEST SWAP1 PUSH2 0x1015 PUSH2 0x4AF7 SWAP3 PUSH1 0x40 MLOAD SWAP4 DUP5 SWAP2 PUSH1 0x23 PUSH1 0xF8 SHL PUSH1 0x20 DUP5 ADD MSTORE PUSH1 0x21 DUP4 ADD SWAP1 PUSH2 0x4AC3 JUMP JUMPDEST SUB PUSH1 0x1F NOT DUP2 ADD DUP5 MSTORE DUP4 PUSH2 0xFE5 JUMP JUMPDEST PUSH2 0x1015 SWAP1 PUSH2 0x4AF7 PUSH2 0x4B2D SWAP5 SWAP4 PUSH1 0x2 PUSH1 0x40 MLOAD SWAP7 DUP8 SWAP5 PUSH1 0x23 PUSH1 0xF8 SHL PUSH1 0x20 DUP8 ADD MSTORE PUSH1 0x21 DUP7 ADD SWAP1 PUSH2 0x4AC3 JUMP JUMPDEST PUSH2 0x1D1 PUSH1 0xF5 SHL DUP2 MSTORE ADD SWAP1 PUSH2 0x4AC3 JUMP JUMPDEST PUSH2 0x4BE5 PUSH2 0x4B78 SWAP6 SWAP5 PUSH1 0x24 PUSH2 0x4BA5 PUSH2 0x1015 SWAP7 PUSH1 0x2 PUSH2 0x4B96 DUP2 SWAP9 PUSH1 0x11 PUSH1 0x40 MLOAD SWAP14 DUP15 SWAP11 PUSH9 0x3D913730B6B2911D11 PUSH1 0xB9 SHL PUSH1 0x20 DUP14 ADD MSTORE PUSH1 0x29 DUP13 ADD SWAP1 PUSH2 0x4AC3 JUMP JUMPDEST PUSH17 0x1116113232B9B1B934B83A34B7B7111D11 PUSH1 0x79 SHL DUP2 MSTORE ADD SWAP1 PUSH2 0x4AC3 JUMP JUMPDEST PUSH2 0x88B PUSH1 0xF2 SHL DUP2 MSTORE ADD SWAP1 PUSH2 0x4AC3 JUMP JUMPDEST PUSH1 0xB PUSH1 0xFA SHL DUP2 MSTORE PUSH32 0x22696D616765223A22646174613A696D6167652F7376672B786D6C3B62617365 PUSH1 0x1 DUP3 ADD MSTORE PUSH3 0xD8D0B PUSH1 0xEA SHL PUSH1 0x21 DUP3 ADD MSTORE ADD SWAP1 PUSH2 0x4AC3 JUMP JUMPDEST PUSH2 0x227D PUSH1 0xF0 SHL DUP2 MSTORE SUB PUSH1 0x1D NOT DUP2 ADD DUP6 MSTORE ADD DUP4 PUSH2 0xFE5 JUMP JUMPDEST SWAP1 PUSH2 0x1015 PUSH2 0x4AF7 SWAP3 PUSH1 0x40 MLOAD SWAP4 DUP5 SWAP2 PUSH32 0x646174613A6170706C69636174696F6E2F6A736F6E3B6261736536342C000000 PUSH1 0x20 DUP5 ADD MSTORE PUSH1 0x3D DUP4 ADD SWAP1 PUSH2 0x4AC3 JUMP JUMPDEST SWAP3 SWAP4 SWAP5 PUSH0 SWAP2 PUSH2 0x4C9D SWAP4 PUSH2 0x4C67 PUSH2 0x4C5B PUSH1 0x13 SLOAD PUSH1 0x1 DUP1 PUSH1 0xA0 SHL SUB SWAP1 PUSH1 0x8 SHR AND SWAP1 JUMP JUMPDEST PUSH1 0x1 PUSH1 0x1 PUSH1 0xA0 SHL SUB AND SWAP1 JUMP JUMPDEST SWAP2 PUSH1 0x40 MLOAD SWAP6 DUP7 SWAP5 DUP6 SWAP4 DUP5 SWAP4 PUSH4 0x7D134433 PUSH1 0xE0 SHL DUP6 MSTORE PUSH1 0x4 DUP6 ADD PUSH1 0xFF PUSH1 0x40 SWAP3 SWAP6 SWAP5 SWAP4 PUSH2 0xFFFF PUSH1 0x60 DUP5 ADD SWAP8 AND DUP4 MSTORE AND PUSH1 0x20 DUP3 ADD MSTORE ADD MSTORE JUMP JUMPDEST SUB SWAP2 GAS STATICCALL DUP1 ISZERO PUSH2 0x9CE JUMPI PUSH2 0x5CD SWAP5 PUSH2 0x4CFA SWAP5 PUSH2 0x4CF5 SWAP5 PUSH0 SWAP5 PUSH0 SWAP5 PUSH2 0x4D17 JUMPI JUMPDEST POP SWAP1 PUSH2 0x4CEF SWAP2 DUP2 MLOAD PUSH1 0x20 DUP4 ADD KECCAK256 PUSH2 0x4CDA PUSH2 0x4CD5 DUP4 PUSH2 0x511F JUMP JUMPDEST PUSH2 0x4AD5 JUMP JUMPDEST PUSH1 0x20 DUP2 MLOAD SWAP2 ADD KECCAK256 EQ PUSH0 EQ PUSH2 0x4CFF JUMPI POP SWAP4 PUSH2 0x527E JUMP JUMPDEST SWAP3 PUSH2 0x4B3C JUMP JUMPDEST PUSH2 0x527E JUMP JUMPDEST PUSH2 0x4BFC JUMP JUMPDEST SWAP1 PUSH2 0x4D0C PUSH2 0x4D11 SWAP3 PUSH2 0x511F JUMP JUMPDEST PUSH2 0x4B05 JUMP JUMPDEST SWAP4 PUSH2 0x527E JUMP JUMPDEST PUSH2 0x4CEF SWAP3 SWAP6 POP PUSH2 0x4D3A SWAP2 SWAP5 POP RETURNDATASIZE DUP1 PUSH0 DUP4 RETURNDATACOPY PUSH2 0x4D32 DUP2 DUP4 PUSH2 0xFE5 JUMP JUMPDEST DUP2 ADD SWAP1 PUSH2 0x4A7C JUMP JUMPDEST SWAP5 SWAP1 SWAP5 SWAP4 SWAP1 SWAP2 PUSH2 0x4CBC JUMP JUMPDEST PUSH1 0x1 PUSH1 0x1 PUSH1 0xA0 SHL SUB SWAP1 PUSH2 0x4D57 SWAP1 PUSH2 0x43B5 JUMP JUMPDEST AND CALLER SUB PUSH2 0x4D60 JUMPI JUMP JUMPDEST PUSH4 0x4143FBF9 PUSH1 0xE0 SHL PUSH0 MSTORE PUSH1 0x4 PUSH0 REVERT JUMPDEST PUSH0 MSTORE PUSH1 0x1E PUSH1 0x20 MSTORE PUSH2 0xFFFF PUSH1 0x40 PUSH0 KECCAK256 SLOAD AND PUSH1 0x10 DUP2 LT PUSH2 0x4D8A JUMPI POP JUMP JUMPDEST PUSH1 0x7 GT PUSH2 0x4D93 JUMPI JUMP JUMPDEST PUSH4 0x3D0ECDF PUSH1 0xE1 SHL PUSH0 MSTORE PUSH1 0x4 PUSH0 REVERT JUMPDEST PUSH1 0x40 MLOAD SWAP1 PUSH2 0x4DB1 PUSH1 0x40 DUP4 PUSH2 0xFE5 JUMP JUMPDEST PUSH1 0x1C DUP3 MSTORE PUSH32 0x4120526574726F50756E6B206C6976696E67206F6E2D636861696E2E00000000 PUSH1 0x20 DUP4 ADD MSTORE JUMP JUMPDEST SWAP2 SWAP1 SWAP2 DUP3 MLOAD PUSH1 0x1 PUSH1 0x1 PUSH1 0x40 SHL SUB DUP2 GT PUSH2 0xFC5 JUMPI PUSH2 0x4DFE DUP2 PUSH2 0x3A3C DUP5 SLOAD PUSH2 0x2FC1 JUMP JUMPDEST PUSH1 0x20 PUSH1 0x1F DUP3 GT PUSH1 0x1 EQ PUSH2 0x4E38 JUMPI DUP2 SWAP1 PUSH2 0x3A70 SWAP4 SWAP5 SWAP6 PUSH0 SWAP3 PUSH2 0x4E2D JUMPI POP POP DUP2 PUSH1 0x1 SHL SWAP2 PUSH0 NOT SWAP1 PUSH1 0x3 SHL SHR NOT AND OR SWAP1 JUMP JUMPDEST ADD MLOAD SWAP1 POP PUSH0 DUP1 PUSH2 0x1234 JUMP JUMPDEST PUSH1 0x1F NOT DUP3 AND SWAP1 PUSH2 0x4E4B DUP5 PUSH0 MSTORE PUSH1 0x20 PUSH0 KECCAK256 SWAP1 JUMP JUMPDEST SWAP2 PUSH0 JUMPDEST DUP2 DUP2 LT PUSH2 0x4E84 JUMPI POP SWAP6 DUP4 PUSH1 0x1 SWAP6 SWAP7 SWAP8 LT PUSH2 0x4E6C JUMPI POP POP POP DUP2 SHL ADD SWAP1 SSTORE JUMP JUMPDEST ADD MLOAD PUSH0 NOT PUSH1 0xF8 DUP5 PUSH1 0x3 SHL AND SHR NOT AND SWAP1 SSTORE PUSH0 DUP1 DUP1 PUSH2 0x3A9E JUMP JUMPDEST SWAP2 SWAP3 PUSH1 0x20 PUSH1 0x1 DUP2 SWAP3 DUP7 DUP12 ADD MLOAD DUP2 SSTORE ADD SWAP5 ADD SWAP3 ADD PUSH2 0x4E4E JUMP JUMPDEST DUP2 MLOAD DUP2 SLOAD PUSH1 0x20 DUP5 ADD MLOAD PUSH3 0xFF0000 PUSH1 0x10 SWAP2 SWAP1 SWAP2 SHL AND PUSH2 0xFFFF SWAP1 SWAP3 AND PUSH3 0xFFFFFF NOT SWAP1 SWAP2 AND OR OR DUP2 SSTORE SWAP1 PUSH1 0x1 DUP3 ADD PUSH1 0x40 DUP3 ADD MLOAD DUP1 MLOAD SWAP1 PUSH1 0x1 PUSH1 0x1 PUSH1 0x40 SHL SUB DUP3 GT PUSH2 0xFC5 JUMPI PUSH2 0x4EF1 DUP3 PUSH2 0x4EEB DUP6 SLOAD PUSH2 0x2FC1 JUMP JUMPDEST DUP6 PUSH2 0x39D9 JUMP JUMPDEST PUSH1 0x20 SWAP1 PUSH1 0x1F DUP4 GT PUSH1 0x1 EQ PUSH2 0x4F36 JUMPI SWAP3 PUSH2 0x4F2A DUP4 PUSH1 0x60 SWAP5 PUSH2 0x1015 SWAP9 SWAP8 SWAP5 PUSH1 0x2 SWAP8 PUSH0 SWAP3 PUSH2 0x4E2D JUMPI POP POP DUP2 PUSH1 0x1 SHL SWAP2 PUSH0 NOT SWAP1 PUSH1 0x3 SHL SHR NOT AND OR SWAP1 JUMP JUMPDEST SWAP1 SSTORE JUMPDEST ADD MLOAD SWAP2 ADD PUSH2 0x4DDD JUMP JUMPDEST SWAP1 PUSH1 0x1F NOT DUP4 AND SWAP2 PUSH2 0x4F4A DUP6 PUSH0 MSTORE PUSH1 0x20 PUSH0 KECCAK256 SWAP1 JUMP JUMPDEST SWAP3 PUSH0 JUMPDEST DUP2 DUP2 LT PUSH2 0x4F92 JUMPI POP SWAP4 PUSH2 0x1015 SWAP8 SWAP7 SWAP4 PUSH1 0x2 SWAP7 SWAP4 PUSH1 0x1 SWAP4 DUP4 PUSH1 0x60 SWAP9 LT PUSH2 0x4F7A JUMPI JUMPDEST POP POP POP DUP2 SHL ADD SWAP1 SSTORE PUSH2 0x4F2D JUMP JUMPDEST ADD MLOAD PUSH0 NOT PUSH1 0xF8 DUP5 PUSH1 0x3 SHL AND SHR NOT AND SWAP1 SSTORE PUSH0 DUP1 DUP1 PUSH2 0x4F6D JUMP JUMPDEST SWAP3 SWAP4 PUSH1 0x20 PUSH1 0x1 DUP2 SWAP3 DUP8 DUP7 ADD MLOAD DUP2 SSTORE ADD SWAP6 ADD SWAP4 ADD PUSH2 0x4F4D JUMP JUMPDEST SWAP1 ISZERO PUSH2 0x5110 JUMPI PUSH1 0x1F SLOAD SWAP1 DUP2 PUSH4 0xFFFFFFFF AND PUSH1 0x15 SLOAD PUSH1 0x40 MLOAD PUSH2 0x4FDF DUP2 PUSH2 0x1801 DUP6 PUSH1 0x20 DUP4 ADD SWAP6 DUP7 SWAP1 SWAP2 PUSH1 0x40 SWAP3 DUP3 MSTORE PUSH1 0x20 DUP3 ADD MSTORE ADD SWAP1 JUMP JUMPDEST MLOAD SWAP1 KECCAK256 SWAP1 DUP4 PUSH1 0xE0 SHR SWAP1 DUP1 DUP3 EQ PUSH2 0x5103 JUMPI PUSH2 0x1015 SWAP5 PUSH2 0x50AA PUSH2 0x50B7 SWAP4 PUSH2 0x50A5 SWAP4 PUSH2 0x50FE SWAP7 PUSH0 MSTORE DUP1 PUSH1 0x20 MSTORE DUP4 PUSH2 0xFFFE DUP3 DUP1 DUP6 SUB PUSH1 0x40 PUSH0 KECCAK256 MOD ADD SWAP4 GT PUSH2 0x5059 DUP5 DUP4 DUP4 SWAP1 PUSH1 0x1 DUP1 PUSH1 0xC0 SHL SUB SWAP1 PUSH1 0x20 SHR AND DUP3 DUP3 PUSH1 0x4 SUB SHR ADD SLOAD PUSH1 0xF DUP3 SHR DUP4 AND DUP3 PUSH1 0x4 ADD SHL SHR SWAP1 PUSH1 0x1 PUSH1 0x10 PUSH0 NOT SWAP3 SHL SHL ADD AND DUP1 ISZERO ISZERO SWAP1 PUSH0 NOT ADD DUP3 XOR MUL XOR SWAP1 JUMP JUMPDEST SWAP7 DUP8 SWAP5 PUSH2 0x509D DUP6 DUP6 DUP6 SWAP1 PUSH1 0x1 DUP1 PUSH1 0xC0 SHL SUB SWAP1 PUSH1 0x20 SHR AND DUP3 DUP3 PUSH1 0x4 SUB SHR ADD SLOAD PUSH1 0xF DUP3 SHR DUP4 AND DUP3 PUSH1 0x4 ADD SHL SHR SWAP1 PUSH1 0x1 PUSH1 0x10 PUSH0 NOT SWAP3 SHL SHL ADD AND DUP1 ISZERO ISZERO SWAP1 PUSH0 NOT ADD DUP3 XOR MUL XOR SWAP1 JUMP JUMPDEST SWAP1 DUP5 DUP5 PUSH2 0x5164 JUMP JUMPDEST PUSH2 0x5164 JUMP JUMPDEST PUSH1 0x1 ADD PUSH1 0x1F SSTORE PUSH2 0xFFFF AND SWAP1 JUMP JUMPDEST SWAP2 PUSH2 0x50C2 DUP4 DUP3 PUSH2 0x51A9 JUMP JUMPDEST PUSH2 0x50D7 PUSH2 0x50CD PUSH2 0x1006 JUMP JUMPDEST PUSH2 0xFFFF SWAP1 SWAP6 AND DUP6 MSTORE JUMP JUMPDEST PUSH1 0x1 PUSH1 0x20 DUP6 ADD MSTORE PUSH1 0x40 DUP5 ADD MSTORE PUSH2 0x50EB PUSH2 0x4DA2 JUMP JUMPDEST PUSH1 0x60 DUP5 ADD MSTORE PUSH0 MSTORE PUSH1 0x1E PUSH1 0x20 MSTORE PUSH1 0x40 PUSH0 KECCAK256 SWAP1 JUMP JUMPDEST PUSH2 0x4E9C JUMP JUMPDEST PUSH4 0x51065F79 PUSH0 MSTORE PUSH1 0x4 PUSH1 0x1C REVERT JUMPDEST PUSH4 0xABC61E7 PUSH1 0xE4 SHL PUSH0 MSTORE PUSH1 0x4 PUSH0 REVERT JUMPDEST SWAP1 PUSH1 0x40 MLOAD PUSH1 0xA PUSH1 0x80 DUP3 ADD SWAP4 PUSH1 0xA0 DUP4 ADD PUSH1 0x40 MSTORE PUSH0 DUP6 MSTORE SWAP4 JUMPDEST PUSH0 NOT ADD SWAP4 PUSH1 0x30 DUP3 DUP3 MOD ADD DUP6 MSTORE8 DIV SWAP3 DUP4 ISZERO PUSH2 0x5152 JUMPI PUSH1 0xA SWAP1 PUSH2 0x5136 JUMP JUMPDEST DUP1 SWAP4 POP PUSH1 0x80 SWAP2 SUB ADD SWAP2 PUSH1 0x1F NOT ADD SWAP2 DUP3 MSTORE JUMP JUMPDEST SWAP3 SWAP2 SWAP1 PUSH1 0x1 DUP1 PUSH1 0xC0 SHL SUB SWAP1 PUSH1 0x20 SHR AND DUP2 DUP5 PUSH1 0x4 SUB SHR ADD SWAP3 PUSH1 0xF DUP2 SHR DUP3 AND DUP2 PUSH1 0x4 ADD SHL SWAP2 DUP5 SLOAD SWAP4 PUSH1 0x1 DUP2 ADD SWAP2 EQ ISZERO MUL DUP4 DUP4 SHR XOR SWAP1 PUSH1 0x1 PUSH1 0x10 PUSH0 NOT SWAP3 SHL SHL ADD AND SWAP1 SHL XOR SWAP1 SSTORE JUMP JUMPDEST SWAP1 PUSH1 0x10 PUSH2 0xFFFF DUP3 AND LT PUSH2 0x51C3 JUMPI POP PUSH2 0x4CD5 PUSH2 0x5CD SWAP2 PUSH2 0x511F JUMP JUMPDEST SWAP1 POP PUSH1 0x7 DUP2 LT ISZERO PUSH2 0x3BF6 JUMPI PUSH1 0x17 ADD PUSH1 0x40 MLOAD SWAP1 PUSH8 0x189037B310189D1 PUSH1 0xC5 SHL PUSH1 0x20 DUP4 ADD MSTORE DUP2 PUSH0 DUP3 SLOAD SWAP3 PUSH2 0x51F4 DUP5 PUSH2 0x2FC1 JUMP JUMPDEST SWAP4 PUSH1 0x1 DUP2 AND SWAP1 DUP2 ISZERO PUSH2 0x525D JUMPI POP PUSH1 0x1 EQ PUSH2 0x521D JUMPI JUMPDEST POP PUSH2 0x5CD SWAP3 POP SUB PUSH1 0x1F NOT DUP2 ADD DUP4 MSTORE DUP3 PUSH2 0xFE5 JUMP JUMPDEST SWAP2 POP POP PUSH0 MSTORE DUP2 PUSH1 0x20 PUSH0 KECCAK256 PUSH0 SWAP1 JUMPDEST DUP4 DUP3 LT PUSH2 0x5242 JUMPI POP POP PUSH1 0x28 PUSH2 0x5CD SWAP3 DUP3 ADD ADD PUSH0 PUSH2 0x5209 JUMP JUMPDEST PUSH1 0x20 SWAP2 SWAP3 POP DUP1 PUSH1 0x1 SWAP2 SLOAD PUSH1 0x28 DUP6 DUP9 ADD ADD MSTORE ADD SWAP2 ADD DUP4 SWAP2 PUSH2 0x522A JUMP JUMPDEST SWAP1 POP PUSH1 0x28 SWAP3 POP PUSH2 0x5CD SWAP5 SWAP2 POP PUSH1 0xFF NOT AND DUP3 DUP5 ADD MSTORE DUP1 ISZERO ISZERO MUL DUP3 ADD ADD PUSH0 PUSH2 0x5209 JUMP JUMPDEST SWAP1 PUSH1 0x60 SWAP2 DUP1 MLOAD DUP1 PUSH2 0x528D JUMPI POP POP JUMP JUMPDEST SWAP1 SWAP3 POP PUSH1 0x3 PUSH1 0x2 DUP3 ADD DIV PUSH1 0x2 SHL SWAP1 PUSH1 0x40 MLOAD SWAP4 PUSH32 0x4142434445464748494A4B4C4D4E4F505152535455565758595A616263646566 PUSH1 0x1F MSTORE PUSH2 0x670 PUSH32 0x6768696A6B6C6D6E6F707172737475767778797A303132333435363738392D5F XOR PUSH1 0x3F MSTORE PUSH1 0x20 DUP6 ADD SWAP2 DUP4 DUP7 ADD SWAP3 PUSH1 0x4 PUSH1 0x3 PUSH1 0x20 DUP7 ADD SWAP5 JUMPDEST ADD SWAP2 PUSH1 0x3F DUP4 MLOAD DUP2 DUP2 PUSH1 0x12 SHR AND MLOAD PUSH0 MSTORE8 DUP2 DUP2 PUSH1 0xC SHR AND MLOAD PUSH1 0x1 MSTORE8 DUP2 DUP2 PUSH1 0x6 SHR AND MLOAD PUSH1 0x2 MSTORE8 AND MLOAD PUSH1 0x3 MSTORE8 PUSH0 MLOAD DUP2 MSTORE ADD SWAP1 DUP4 DUP3 LT ISZERO PUSH2 0x533F JUMPI PUSH1 0x4 SWAP1 PUSH1 0x3 SWAP1 PUSH2 0x52FE JUMP JUMPDEST POP SWAP2 POP PUSH1 0x40 PUSH0 SWAP4 ADD PUSH1 0x40 MSTORE PUSH1 0x3 PUSH2 0x3D3D PUSH1 0xF0 SHL SWAP2 MOD PUSH1 0x2 DIV DUP3 SUB MSTORE MSTORE DUP3 MSTORE JUMP INVALID LOG2 PUSH5 0x6970667358 0x22 SLT KECCAK256 PUSH16 0xDFA913B6A2CFC5B73234C75A5370CF38 0x23 0xDE CLZ PUSH9 0x5760295AB5D5C29796 CALLCODE ADDMOD PUSH5 0x736F6C6343 STOP ADDMOD 0x21 STOP CALLER BLOCKHASH JUMPI DUP8 STATICCALL SLT 0xA8 0x23 RJUMP 0xF2B7 PUSH4 0x1CC41B3B 0xA8 DUP3 DUP12 CALLER 0x21 0xCA DUP2 GT GT STATICCALL PUSH22 0xCD3AA3BB5ACE00000000000000000000000000000000 "
		},
		"gasEstimates": {
			"creation": {
				"codeDepositCost": "4279400",
				"executionCost": "infinite",
				"totalCost": "infinite"
			},
			"external": {
				"COMMITTED_GLOBAL_SEED_HASH()": "infinite",
				"COMMITTED_SHUFFLER_SEED_HASH()": "infinite",
				"acceptOwnership()": "52047",
				"approve(address,uint256)": "infinite",
				"balanceOf(address)": "3192",
				"baseURI()": "infinite",
				"burn(uint256)": "infinite",
				"cancelOwnershipTransfer()": "27822",
				"closeMint()": "27180",
				"contractURI()": "infinite",
				"defaultBackgroundIndex()": "1650",
				"emitBatchMetadataUpdate(uint256,uint256)": "4770",
				"getApproved(uint256)": "infinite",
				"getMintStats(address)": "7579",
				"getTransferValidationFunction()": "334",
				"getTransferValidator()": "2394",
				"globalSeed()": "2304",
				"globalSeedRevealed()": "3312",
				"globalTokenMetadata(uint256)": "infinite",
				"isApprovedForAll(address,address)": "infinite",
				"maxSupply()": "3580",
				"mintIsClosed()": "2514",
				"mintSeaDrop(address,uint256)": "infinite",
				"multiConfigure((uint256,string,string,address,(uint80,uint48,uint48,uint16,uint16,bool),string,(bytes32,string[],string),address,bytes32,address[],address[],address[],address[],address[],(uint80,uint16,uint48,uint48,uint8,uint32,uint16,bool)[],address[],address[],(uint80,uint24,uint40,uint40,uint40,uint16,uint16)[],address[]))": "infinite",
				"name()": "infinite",
				"owner()": "3252",
				"ownerMint(address,uint256)": "infinite",
				"ownerMintsRemaining()": "2844",
				"ownerOf(uint256)": "infinite",
				"provenanceHash()": "3492",
				"renderer()": "3239",
				"renounceOwnership()": "28834",
				"revealGlobalSeed(uint256,uint256)": "infinite",
				"revealShufflerSeed(uint256,uint256)": "infinite",
				"royaltyAddress()": "3472",
				"royaltyBasisPoints()": "2618",
				"royaltyInfo(uint256,uint256)": "2690",
				"safeTransferFrom(address,address,uint256)": "infinite",
				"safeTransferFrom(address,address,uint256,bytes)": "infinite",
				"setApprovalForAll(address,bool)": "29744",
				"setBaseURI(string)": "infinite",
				"setContractURI(string)": "infinite",
				"setMaxSupply(uint256)": "58984",
				"setProvenanceHash(bytes32)": "30090",
				"setRenderer(address)": "34870",
				"setRoyaltyInfo((address,uint96))": "infinite",
				"setTokenBackground(uint256,uint256)": "infinite",
				"setTokenBio(uint256,string)": "infinite",
				"setTokenName(uint256,string)": "infinite",
				"setTransferValidator(address)": "29206",
				"shufflerSeed()": "3338",
				"shufflerSeedRevealed()": "3092",
				"supportsInterface(bytes4)": "728",
				"symbol()": "infinite",
				"tokenURI(uint256)": "infinite",
				"totalSupply()": "4574",
				"transferFrom(address,address,uint256)": "infinite",
				"transferOwnership(address)": "29106",
				"transfersPaused()": "2712",
				"updateAllowList(address,(bytes32,string[],string))": "infinite",
				"updateAllowedFeeRecipient(address,address,bool)": "infinite",
				"updateAllowedSeaDrop(address[])": "infinite",
				"updateCreatorPayoutAddress(address,address)": "infinite",
				"updateDropURI(address,string)": "infinite",
				"updatePayer(address,address,bool)": "infinite",
				"updatePublicDrop(address,(uint80,uint48,uint48,uint16,uint16,bool))": "infinite",
				"updateSignedMintValidationParams(address,address,(uint80,uint24,uint40,uint40,uint40,uint16,uint16))": "infinite",
				"updateTokenGatedDrop(address,address,(uint80,uint16,uint48,uint48,uint8,uint32,uint16,bool))": "infinite",
				"updateTransfersPaused(bool)": "27773"
			},
			"internal": {
				"_addInternalMintMetadata(uint256)": "infinite",
				"_checkMaxSupply(uint256)": "6471",
				"_getInitialName(uint256,uint16)": "infinite",
				"_mint(address,uint256)": "infinite",
				"_notSpecial(uint256)": "2236",
				"_onlyTokenOwner(uint256)": "infinite",
				"_saveNewSeed(uint256,uint256)": "infinite",
				"_tokenExists(uint256)": "infinite",
				"renderDataUri(uint256,uint16,uint8,string memory,string memory,uint256)": "infinite"
			}
		},
		"methodIdentifiers": {
			"COMMITTED_GLOBAL_SEED_HASH()": "f4cc7105",
			"COMMITTED_SHUFFLER_SEED_HASH()": "9b7406a5",
			"acceptOwnership()": "79ba5097",
			"approve(address,uint256)": "095ea7b3",
			"balanceOf(address)": "70a08231",
			"baseURI()": "6c0360eb",
			"burn(uint256)": "42966c68",
			"cancelOwnershipTransfer()": "23452b9c",
			"closeMint()": "64f101f0",
			"contractURI()": "e8a3d485",
			"defaultBackgroundIndex()": "fe97b576",
			"emitBatchMetadataUpdate(uint256,uint256)": "a4830114",
			"getApproved(uint256)": "081812fc",
			"getMintStats(address)": "840e15d4",
			"getTransferValidationFunction()": "0d705df6",
			"getTransferValidator()": "098144d4",
			"globalSeed()": "07aafa98",
			"globalSeedRevealed()": "9559a5d9",
			"globalTokenMetadata(uint256)": "db846dbe",
			"isApprovedForAll(address,address)": "e985e9c5",
			"maxSupply()": "d5abeb01",
			"mintIsClosed()": "1dbd7390",
			"mintSeaDrop(address,uint256)": "64869dad",
			"multiConfigure((uint256,string,string,address,(uint80,uint48,uint48,uint16,uint16,bool),string,(bytes32,string[],string),address,bytes32,address[],address[],address[],address[],address[],(uint80,uint16,uint48,uint48,uint8,uint32,uint16,bool)[],address[],address[],(uint80,uint24,uint40,uint40,uint40,uint16,uint16)[],address[]))": "911f456b",
			"name()": "06fdde03",
			"owner()": "8da5cb5b",
			"ownerMint(address,uint256)": "484b973c",
			"ownerMintsRemaining()": "5743bdff",
			"ownerOf(uint256)": "6352211e",
			"provenanceHash()": "c6ab67a3",
			"renderer()": "8ada6b0f",
			"renounceOwnership()": "715018a6",
			"revealGlobalSeed(uint256,uint256)": "853b3b4c",
			"revealShufflerSeed(uint256,uint256)": "73c5643a",
			"royaltyAddress()": "ad2f852a",
			"royaltyBasisPoints()": "42260b5d",
			"royaltyInfo(uint256,uint256)": "2a55205a",
			"safeTransferFrom(address,address,uint256)": "42842e0e",
			"safeTransferFrom(address,address,uint256,bytes)": "b88d4fde",
			"setApprovalForAll(address,bool)": "a22cb465",
			"setBaseURI(string)": "55f804b3",
			"setContractURI(string)": "938e3d7b",
			"setMaxSupply(uint256)": "6f8b44b0",
			"setProvenanceHash(bytes32)": "099b6bfa",
			"setRenderer(address)": "56d3163d",
			"setRoyaltyInfo((address,uint96))": "44dae42c",
			"setTokenBackground(uint256,uint256)": "d74b6857",
			"setTokenBio(uint256,string)": "f598f1da",
			"setTokenName(uint256,string)": "cdb0e89e",
			"setTransferValidator(address)": "a9fc664e",
			"shufflerSeed()": "99c5def3",
			"shufflerSeedRevealed()": "74e4f5af",
			"supportsInterface(bytes4)": "01ffc9a7",
			"symbol()": "95d89b41",
			"tokenURI(uint256)": "c87b56dd",
			"totalSupply()": "18160ddd",
			"transferFrom(address,address,uint256)": "23b872dd",
			"transferOwnership(address)": "f2fde38b",
			"transfersPaused()": "4563f30a",
			"updateAllowList(address,(bytes32,string[],string))": "3680620d",
			"updateAllowedFeeRecipient(address,address,bool)": "48a4c101",
			"updateAllowedSeaDrop(address[])": "60c308b6",
			"updateCreatorPayoutAddress(address,address)": "66251b69",
			"updateDropURI(address,string)": "7a05bc82",
			"updatePayer(address,address,bool)": "cb743ba8",
			"updatePublicDrop(address,(uint80,uint48,uint48,uint16,uint16,bool))": "1b73593c",
			"updateSignedMintValidationParams(address,address,(uint80,uint24,uint40,uint40,uint40,uint16,uint16))": "511aa644",
			"updateTokenGatedDrop(address,address,(uint80,uint16,uint48,uint48,uint8,uint32,uint16,bool))": "7bc2be76",
			"updateTransfersPaused(bool)": "0d9d713b"
		}
	},
	"abi": [
		{
			"inputs": [],
			"name": "acceptOwnership",
			"outputs": [],
			"stateMutability": "nonpayable",
			"type": "function"
		},
		{
			"inputs": [
				{
					"internalType": "contract ISVGRenderer",
					"name": "_rendererParam",
					"type": "address"
				},
				{
					"internalType": "bytes32",
					"name": "_committedGlobalSeedHashParam",
					"type": "bytes32"
				},
				{
					"internalType": "bytes32",
					"name": "_committedShufflerSeedHashParam",
					"type": "bytes32"
				},
				{
					"internalType": "uint256",
					"name": "_maxSupplyParam",
					"type": "uint256"
				},
				{
					"internalType": "address[]",
					"name": "allowedSeaDropParam",
					"type": "address[]"
				}
			],
			"stateMutability": "nonpayable",
			"type": "constructor"
		},
		{
			"inputs": [],
			"name": "AlreadyInitialized",
			"type": "error"
		},
		{
			"inputs": [],
			"name": "ApprovalCallerNotOwnerNorApproved",
			"type": "error"
		},
		{
			"inputs": [],
			"name": "ApprovalQueryForNonexistentToken",
			"type": "error"
		},
		{
			"inputs": [],
			"name": "BalanceQueryForZeroAddress",
			"type": "error"
		},
		{
			"inputs": [],
			"name": "BioIsTooLong",
			"type": "error"
		},
		{
			"inputs": [],
			"name": "CallerIsNotTokenOwner",
			"type": "error"
		},
		{
			"inputs": [
				{
					"internalType": "uint256",
					"name": "newMaxSupply",
					"type": "uint256"
				}
			],
			"name": "CannotExceedMaxSupplyOfUint64",
			"type": "error"
		},
		{
			"inputs": [],
			"name": "GlobalSeedAlreadyRevealed",
			"type": "error"
		},
		{
			"inputs": [],
			"name": "InvalidBackgroundIndex",
			"type": "error"
		},
		{
			"inputs": [],
			"name": "InvalidCharacterInName",
			"type": "error"
		},
		{
			"inputs": [],
			"name": "InvalidGlobalSeedReveal",
			"type": "error"
		},
		{
			"inputs": [
				{
					"internalType": "uint256",
					"name": "basisPoints",
					"type": "uint256"
				}
			],
			"name": "InvalidRoyaltyBasisPoints",
			"type": "error"
		},
		{
			"inputs": [],
			"name": "InvalidShufflerSeedReveal",
			"type": "error"
		},
		{
			"inputs": [],
			"name": "MaxSupplyLessThanTotalMinted",
			"type": "error"
		},
		{
			"inputs": [],
			"name": "MintERC2309QuantityExceedsLimit",
			"type": "error"
		},
		{
			"inputs": [],
			"name": "MintIsClosed",
			"type": "error"
		},
		{
			"inputs": [
				{
					"internalType": "uint256",
					"name": "total",
					"type": "uint256"
				},
				{
					"internalType": "uint256",
					"name": "maxSupply",
					"type": "uint256"
				}
			],
			"name": "MintQuantityExceedsMaxSupply",
			"type": "error"
		},
		{
			"inputs": [],
			"name": "MintToZeroAddress",
			"type": "error"
		},
		{
			"inputs": [],
			"name": "MintZeroQuantity",
			"type": "error"
		},
		{
			"inputs": [],
			"name": "Mint_Total_Supply_Before_Setting_Max_Supply",
			"type": "error"
		},
		{
			"inputs": [],
			"name": "NameIsTooLong",
			"type": "error"
		},
		{
			"inputs": [
				{
					"internalType": "uint256",
					"name": "got",
					"type": "uint256"
				},
				{
					"internalType": "uint256",
					"name": "totalMinted",
					"type": "uint256"
				}
			],
			"name": "NewMaxSupplyCannotBeLessThenTotalMinted",
			"type": "error"
		},
		{
			"inputs": [],
			"name": "NewOwnerIsZeroAddress",
			"type": "error"
		},
		{
			"inputs": [],
			"name": "NoRemainingTokens",
			"type": "error"
		},
		{
			"inputs": [],
			"name": "NonExistentToken",
			"type": "error"
		},
		{
			"inputs": [],
			"name": "NotCompatibleWithSpotMints",
			"type": "error"
		},
		{
			"inputs": [],
			"name": "NotEnoughOwnerMintsRemaining",
			"type": "error"
		},
		{
			"inputs": [],
			"name": "NotNextOwner",
			"type": "error"
		},
		{
			"inputs": [],
			"name": "OnlyAllowedSeaDrop",
			"type": "error"
		},
		{
			"inputs": [],
			"name": "OnlyOwner",
			"type": "error"
		},
		{
			"inputs": [],
			"name": "OwnerQueryForNonexistentToken",
			"type": "error"
		},
		{
			"inputs": [],
			"name": "OwnershipNotInitializedForExtraData",
			"type": "error"
		},
		{
			"inputs": [],
			"name": "PreRenderedSpecialCannotBeCustomized",
			"type": "error"
		},
		{
			"inputs": [],
			"name": "ProvenanceHashCannotBeSetAfterMintStarted",
			"type": "error"
		},
		{
			"inputs": [],
			"name": "Reentrancy",
			"type": "error"
		},
		{
			"inputs": [],
			"name": "RoyaltyAddressCannotBeZeroAddress",
			"type": "error"
		},
		{
			"inputs": [],
			"name": "SameTransferValidator",
			"type": "error"
		},
		{
			"inputs": [],
			"name": "SequentialMintExceedsLimit",
			"type": "error"
		},
		{
			"inputs": [],
			"name": "SequentialUpToTooSmall",
			"type": "error"
		},
		{
			"inputs": [],
			"name": "ShufflerSeedAlreadyRevealed",
			"type": "error"
		},
		{
			"inputs": [],
			"name": "ShufflerSeedNotRevealedYet",
			"type": "error"
		},
		{
			"inputs": [],
			"name": "SignersMismatch",
			"type": "error"
		},
		{
			"inputs": [],
			"name": "SpotMintTokenIdTooSmall",
			"type": "error"
		},
		{
			"inputs": [],
			"name": "TokenAlreadyExists",
			"type": "error"
		},
		{
			"inputs": [],
			"name": "TokenGatedMismatch",
			"type": "error"
		},
		{
			"inputs": [],
			"name": "TokenIdsNotStrictlyAscending",
			"type": "error"
		},
		{
			"inputs": [],
			"name": "TransferCallerNotOwnerNorApproved",
			"type": "error"
		},
		{
			"inputs": [],
			"name": "TransferFromIncorrectOwner",
			"type": "error"
		},
		{
			"inputs": [],
			"name": "TransferToNonERC721ReceiverImplementer",
			"type": "error"
		},
		{
			"inputs": [],
			"name": "TransferToZeroAddress",
			"type": "error"
		},
		{
			"inputs": [],
			"name": "TransfersPaused",
			"type": "error"
		},
		{
			"inputs": [],
			"name": "URIQueryForNonexistentToken",
			"type": "error"
		},
		{
			"anonymous": false,
			"inputs": [
				{
					"indexed": false,
					"internalType": "address[]",
					"name": "allowedSeaDrop",
					"type": "address[]"
				}
			],
			"name": "AllowedSeaDropUpdated",
			"type": "event"
		},
		{
			"anonymous": false,
			"inputs": [
				{
					"indexed": true,
					"internalType": "address",
					"name": "owner",
					"type": "address"
				},
				{
					"indexed": true,
					"internalType": "address",
					"name": "approved",
					"type": "address"
				},
				{
					"indexed": true,
					"internalType": "uint256",
					"name": "tokenId",
					"type": "uint256"
				}
			],
			"name": "Approval",
			"type": "event"
		},
		{
			"anonymous": false,
			"inputs": [
				{
					"indexed": true,
					"internalType": "address",
					"name": "owner",
					"type": "address"
				},
				{
					"indexed": true,
					"internalType": "address",
					"name": "operator",
					"type": "address"
				},
				{
					"indexed": false,
					"internalType": "bool",
					"name": "approved",
					"type": "bool"
				}
			],
			"name": "ApprovalForAll",
			"type": "event"
		},
		{
			"inputs": [
				{
					"internalType": "address",
					"name": "to",
					"type": "address"
				},
				{
					"internalType": "uint256",
					"name": "tokenId",
					"type": "uint256"
				}
			],
			"name": "approve",
			"outputs": [],
			"stateMutability": "payable",
			"type": "function"
		},
		{
			"anonymous": false,
			"inputs": [
				{
					"indexed": true,
					"internalType": "uint256",
					"name": "tokenId",
					"type": "uint256"
				},
				{
					"indexed": true,
					"internalType": "uint256",
					"name": "backgroundIndex",
					"type": "uint256"
				},
				{
					"indexed": true,
					"internalType": "address",
					"name": "owner",
					"type": "address"
				}
			],
			"name": "BackgroundChanged",
			"type": "event"
		},
		{
			"anonymous": false,
			"inputs": [
				{
					"indexed": false,
					"internalType": "uint256",
					"name": "_fromTokenId",
					"type": "uint256"
				},
				{
					"indexed": false,
					"internalType": "uint256",
					"name": "_toTokenId",
					"type": "uint256"
				}
			],
			"name": "BatchMetadataUpdate",
			"type": "event"
		},
		{
			"anonymous": false,
			"inputs": [
				{
					"indexed": true,
					"internalType": "uint256",
					"name": "tokenId",
					"type": "uint256"
				},
				{
					"indexed": false,
					"internalType": "string",
					"name": "bio",
					"type": "string"
				},
				{
					"indexed": true,
					"internalType": "address",
					"name": "owner",
					"type": "address"
				}
			],
			"name": "BioChanged",
			"type": "event"
		},
		{
			"inputs": [
				{
					"internalType": "uint256",
					"name": "tokenId",
					"type": "uint256"
				}
			],
			"name": "burn",
			"outputs": [],
			"stateMutability": "nonpayable",
			"type": "function"
		},
		{
			"inputs": [],
			"name": "cancelOwnershipTransfer",
			"outputs": [],
			"stateMutability": "nonpayable",
			"type": "function"
		},
		{
			"inputs": [],
			"name": "closeMint",
			"outputs": [],
			"stateMutability": "nonpayable",
			"type": "function"
		},
		{
			"anonymous": false,
			"inputs": [
				{
					"indexed": true,
					"internalType": "uint256",
					"name": "fromTokenId",
					"type": "uint256"
				},
				{
					"indexed": false,
					"internalType": "uint256",
					"name": "toTokenId",
					"type": "uint256"
				},
				{
					"indexed": true,
					"internalType": "address",
					"name": "from",
					"type": "address"
				},
				{
					"indexed": true,
					"internalType": "address",
					"name": "to",
					"type": "address"
				}
			],
			"name": "ConsecutiveTransfer",
			"type": "event"
		},
		{
			"anonymous": false,
			"inputs": [
				{
					"indexed": false,
					"internalType": "string",
					"name": "newContractURI",
					"type": "string"
				}
			],
			"name": "ContractURIUpdated",
			"type": "event"
		},
		{
			"inputs": [
				{
					"internalType": "uint256",
					"name": "fromTokenId",
					"type": "uint256"
				},
				{
					"internalType": "uint256",
					"name": "toTokenId",
					"type": "uint256"
				}
			],
			"name": "emitBatchMetadataUpdate",
			"outputs": [],
			"stateMutability": "nonpayable",
			"type": "function"
		},
		{
			"anonymous": false,
			"inputs": [
				{
					"indexed": false,
					"internalType": "uint256",
					"name": "seed",
					"type": "uint256"
				}
			],
			"name": "GlobalSeedRevealed",
			"type": "event"
		},
		{
			"anonymous": false,
			"inputs": [
				{
					"indexed": false,
					"internalType": "uint256",
					"name": "newMaxSupply",
					"type": "uint256"
				}
			],
			"name": "MaxSupplyUpdated",
			"type": "event"
		},
		{
			"anonymous": false,
			"inputs": [
				{
					"indexed": false,
					"internalType": "uint256",
					"name": "_tokenId",
					"type": "uint256"
				}
			],
			"name": "MetadataUpdate",
			"type": "event"
		},
		{
			"inputs": [
				{
					"internalType": "address",
					"name": "minter",
					"type": "address"
				},
				{
					"internalType": "uint256",
					"name": "quantity",
					"type": "uint256"
				}
			],
			"name": "mintSeaDrop",
			"outputs": [],
			"stateMutability": "nonpayable",
			"type": "function"
		},
		{
			"inputs": [
				{
					"components": [
						{
							"internalType": "uint256",
							"name": "maxSupply",
							"type": "uint256"
						},
						{
							"internalType": "string",
							"name": "baseURI",
							"type": "string"
						},
						{
							"internalType": "string",
							"name": "contractURI",
							"type": "string"
						},
						{
							"internalType": "address",
							"name": "seaDropImpl",
							"type": "address"
						},
						{
							"components": [
								{
									"internalType": "uint80",
									"name": "mintPrice",
									"type": "uint80"
								},
								{
									"internalType": "uint48",
									"name": "startTime",
									"type": "uint48"
								},
								{
									"internalType": "uint48",
									"name": "endTime",
									"type": "uint48"
								},
								{
									"internalType": "uint16",
									"name": "maxTotalMintableByWallet",
									"type": "uint16"
								},
								{
									"internalType": "uint16",
									"name": "feeBps",
									"type": "uint16"
								},
								{
									"internalType": "bool",
									"name": "restrictFeeRecipients",
									"type": "bool"
								}
							],
							"internalType": "struct PublicDrop",
							"name": "publicDrop",
							"type": "tuple"
						},
						{
							"internalType": "string",
							"name": "dropURI",
							"type": "string"
						},
						{
							"components": [
								{
									"internalType": "bytes32",
									"name": "merkleRoot",
									"type": "bytes32"
								},
								{
									"internalType": "string[]",
									"name": "publicKeyURIs",
									"type": "string[]"
								},
								{
									"internalType": "string",
									"name": "allowListURI",
									"type": "string"
								}
							],
							"internalType": "struct AllowListData",
							"name": "allowListData",
							"type": "tuple"
						},
						{
							"internalType": "address",
							"name": "creatorPayoutAddress",
							"type": "address"
						},
						{
							"internalType": "bytes32",
							"name": "provenanceHash",
							"type": "bytes32"
						},
						{
							"internalType": "address[]",
							"name": "allowedFeeRecipients",
							"type": "address[]"
						},
						{
							"internalType": "address[]",
							"name": "disallowedFeeRecipients",
							"type": "address[]"
						},
						{
							"internalType": "address[]",
							"name": "allowedPayers",
							"type": "address[]"
						},
						{
							"internalType": "address[]",
							"name": "disallowedPayers",
							"type": "address[]"
						},
						{
							"internalType": "address[]",
							"name": "tokenGatedAllowedNftTokens",
							"type": "address[]"
						},
						{
							"components": [
								{
									"internalType": "uint80",
									"name": "mintPrice",
									"type": "uint80"
								},
								{
									"internalType": "uint16",
									"name": "maxTotalMintableByWallet",
									"type": "uint16"
								},
								{
									"internalType": "uint48",
									"name": "startTime",
									"type": "uint48"
								},
								{
									"internalType": "uint48",
									"name": "endTime",
									"type": "uint48"
								},
								{
									"internalType": "uint8",
									"name": "dropStageIndex",
									"type": "uint8"
								},
								{
									"internalType": "uint32",
									"name": "maxTokenSupplyForStage",
									"type": "uint32"
								},
								{
									"internalType": "uint16",
									"name": "feeBps",
									"type": "uint16"
								},
								{
									"internalType": "bool",
									"name": "restrictFeeRecipients",
									"type": "bool"
								}
							],
							"internalType": "struct TokenGatedDropStage[]",
							"name": "tokenGatedDropStages",
							"type": "tuple[]"
						},
						{
							"internalType": "address[]",
							"name": "disallowedTokenGatedAllowedNftTokens",
							"type": "address[]"
						},
						{
							"internalType": "address[]",
							"name": "signers",
							"type": "address[]"
						},
						{
							"components": [
								{
									"internalType": "uint80",
									"name": "minMintPrice",
									"type": "uint80"
								},
								{
									"internalType": "uint24",
									"name": "maxMaxTotalMintableByWallet",
									"type": "uint24"
								},
								{
									"internalType": "uint40",
									"name": "minStartTime",
									"type": "uint40"
								},
								{
									"internalType": "uint40",
									"name": "maxEndTime",
									"type": "uint40"
								},
								{
									"internalType": "uint40",
									"name": "maxMaxTokenSupplyForStage",
									"type": "uint40"
								},
								{
									"internalType": "uint16",
									"name": "minFeeBps",
									"type": "uint16"
								},
								{
									"internalType": "uint16",
									"name": "maxFeeBps",
									"type": "uint16"
								}
							],
							"internalType": "struct SignedMintValidationParams[]",
							"name": "signedMintValidationParams",
							"type": "tuple[]"
						},
						{
							"internalType": "address[]",
							"name": "disallowedSigners",
							"type": "address[]"
						}
					],
					"internalType": "struct ERC721SeaDropStructsErrorsAndEvents.MultiConfigureStruct",
					"name": "config",
					"type": "tuple"
				}
			],
			"name": "multiConfigure",
			"outputs": [],
			"stateMutability": "nonpayable",
			"type": "function"
		},
		{
			"anonymous": false,
			"inputs": [
				{
					"indexed": true,
					"internalType": "uint256",
					"name": "tokenId",
					"type": "uint256"
				},
				{
					"indexed": false,
					"internalType": "string",
					"name": "name",
					"type": "string"
				},
				{
					"indexed": true,
					"internalType": "address",
					"name": "owner",
					"type": "address"
				}
			],
			"name": "NameChanged",
			"type": "event"
		},
		{
			"inputs": [
				{
					"internalType": "address",
					"name": "toAddress",
					"type": "address"
				},
				{
					"internalType": "uint256",
					"name": "quantity",
					"type": "uint256"
				}
			],
			"name": "ownerMint",
			"outputs": [],
			"stateMutability": "nonpayable",
			"type": "function"
		},
		{
			"anonymous": false,
			"inputs": [
				{
					"indexed": false,
					"internalType": "uint256",
					"name": "newAmount",
					"type": "uint256"
				}
			],
			"name": "OwnerMintsUpdated",
			"type": "event"
		},
		{
			"anonymous": false,
			"inputs": [
				{
					"indexed": true,
					"internalType": "address",
					"name": "previousOwner",
					"type": "address"
				},
				{
					"indexed": true,
					"internalType": "address",
					"name": "newOwner",
					"type": "address"
				}
			],
			"name": "OwnershipTransferred",
			"type": "event"
		},
		{
			"anonymous": false,
			"inputs": [
				{
					"indexed": false,
					"internalType": "address",
					"name": "newPotentialAdministrator",
					"type": "address"
				}
			],
			"name": "PotentialOwnerUpdated",
			"type": "event"
		},
		{
			"anonymous": false,
			"inputs": [
				{
					"indexed": false,
					"internalType": "bytes32",
					"name": "previousHash",
					"type": "bytes32"
				},
				{
					"indexed": false,
					"internalType": "bytes32",
					"name": "newHash",
					"type": "bytes32"
				}
			],
			"name": "ProvenanceHashUpdated",
			"type": "event"
		},
		{
			"inputs": [],
			"name": "renounceOwnership",
			"outputs": [],
			"stateMutability": "nonpayable",
			"type": "function"
		},
		{
			"inputs": [
				{
					"internalType": "uint256",
					"name": "_seed",
					"type": "uint256"
				},
				{
					"internalType": "uint256",
					"name": "_nonce",
					"type": "uint256"
				}
			],
			"name": "revealGlobalSeed",
			"outputs": [],
			"stateMutability": "nonpayable",
			"type": "function"
		},
		{
			"inputs": [
				{
					"internalType": "uint256",
					"name": "_seed",
					"type": "uint256"
				},
				{
					"internalType": "uint256",
					"name": "_nonce",
					"type": "uint256"
				}
			],
			"name": "revealShufflerSeed",
			"outputs": [],
			"stateMutability": "nonpayable",
			"type": "function"
		},
		{
			"anonymous": false,
			"inputs": [
				{
					"indexed": false,
					"internalType": "address",
					"name": "receiver",
					"type": "address"
				},
				{
					"indexed": false,
					"internalType": "uint256",
					"name": "bps",
					"type": "uint256"
				}
			],
			"name": "RoyaltyInfoUpdated",
			"type": "event"
		},
		{
			"inputs": [
				{
					"internalType": "address",
					"name": "from",
					"type": "address"
				},
				{
					"internalType": "address",
					"name": "to",
					"type": "address"
				},
				{
					"internalType": "uint256",
					"name": "tokenId",
					"type": "uint256"
				}
			],
			"name": "safeTransferFrom",
			"outputs": [],
			"stateMutability": "payable",
			"type": "function"
		},
		{
			"inputs": [
				{
					"internalType": "address",
					"name": "from",
					"type": "address"
				},
				{
					"internalType": "address",
					"name": "to",
					"type": "address"
				},
				{
					"internalType": "uint256",
					"name": "tokenId",
					"type": "uint256"
				},
				{
					"internalType": "bytes",
					"name": "_data",
					"type": "bytes"
				}
			],
			"name": "safeTransferFrom",
			"outputs": [],
			"stateMutability": "payable",
			"type": "function"
		},
		{
			"anonymous": false,
			"inputs": [],
			"name": "SeaDropTokenDeployed",
			"type": "event"
		},
		{
			"inputs": [
				{
					"internalType": "address",
					"name": "operator",
					"type": "address"
				},
				{
					"internalType": "bool",
					"name": "approved",
					"type": "bool"
				}
			],
			"name": "setApprovalForAll",
			"outputs": [],
			"stateMutability": "nonpayable",
			"type": "function"
		},
		{
			"inputs": [
				{
					"internalType": "string",
					"name": "newBaseURI",
					"type": "string"
				}
			],
			"name": "setBaseURI",
			"outputs": [],
			"stateMutability": "nonpayable",
			"type": "function"
		},
		{
			"inputs": [
				{
					"internalType": "string",
					"name": "newContractURI",
					"type": "string"
				}
			],
			"name": "setContractURI",
			"outputs": [],
			"stateMutability": "nonpayable",
			"type": "function"
		},
		{
			"inputs": [
				{
					"internalType": "uint256",
					"name": "newMaxSupply",
					"type": "uint256"
				}
			],
			"name": "setMaxSupply",
			"outputs": [],
			"stateMutability": "nonpayable",
			"type": "function"
		},
		{
			"inputs": [
				{
					"internalType": "bytes32",
					"name": "newProvenanceHash",
					"type": "bytes32"
				}
			],
			"name": "setProvenanceHash",
			"outputs": [],
			"stateMutability": "nonpayable",
			"type": "function"
		},
		{
			"inputs": [
				{
					"internalType": "contract ISVGRenderer",
					"name": "_renderer",
					"type": "address"
				}
			],
			"name": "setRenderer",
			"outputs": [],
			"stateMutability": "nonpayable",
			"type": "function"
		},
		{
			"inputs": [
				{
					"components": [
						{
							"internalType": "address",
							"name": "royaltyAddress",
							"type": "address"
						},
						{
							"internalType": "uint96",
							"name": "royaltyBps",
							"type": "uint96"
						}
					],
					"internalType": "struct ISeaDropTokenContractMetadata.RoyaltyInfo",
					"name": "newInfo",
					"type": "tuple"
				}
			],
			"name": "setRoyaltyInfo",
			"outputs": [],
			"stateMutability": "nonpayable",
			"type": "function"
		},
		{
			"inputs": [
				{
					"internalType": "uint256",
					"name": "tokenId",
					"type": "uint256"
				},
				{
					"internalType": "uint256",
					"name": "backgroundIndex",
					"type": "uint256"
				}
			],
			"name": "setTokenBackground",
			"outputs": [],
			"stateMutability": "nonpayable",
			"type": "function"
		},
		{
			"inputs": [
				{
					"internalType": "uint256",
					"name": "tokenId",
					"type": "uint256"
				},
				{
					"internalType": "string",
					"name": "bio",
					"type": "string"
				}
			],
			"name": "setTokenBio",
			"outputs": [],
			"stateMutability": "nonpayable",
			"type": "function"
		},
		{
			"inputs": [
				{
					"internalType": "uint256",
					"name": "tokenId",
					"type": "uint256"
				},
				{
					"internalType": "string",
					"name": "name",
					"type": "string"
				}
			],
			"name": "setTokenName",
			"outputs": [],
			"stateMutability": "nonpayable",
			"type": "function"
		},
		{
			"inputs": [
				{
					"internalType": "address",
					"name": "newValidator",
					"type": "address"
				}
			],
			"name": "setTransferValidator",
			"outputs": [],
			"stateMutability": "nonpayable",
			"type": "function"
		},
		{
			"anonymous": false,
			"inputs": [
				{
					"indexed": false,
					"internalType": "uint256",
					"name": "seed",
					"type": "uint256"
				}
			],
			"name": "ShufflerSeedRevealed",
			"type": "event"
		},
		{
			"anonymous": false,
			"inputs": [
				{
					"indexed": true,
					"internalType": "address",
					"name": "from",
					"type": "address"
				},
				{
					"indexed": true,
					"internalType": "address",
					"name": "to",
					"type": "address"
				},
				{
					"indexed": true,
					"internalType": "uint256",
					"name": "tokenId",
					"type": "uint256"
				}
			],
			"name": "Transfer",
			"type": "event"
		},
		{
			"inputs": [
				{
					"internalType": "address",
					"name": "from",
					"type": "address"
				},
				{
					"internalType": "address",
					"name": "to",
					"type": "address"
				},
				{
					"internalType": "uint256",
					"name": "tokenId",
					"type": "uint256"
				}
			],
			"name": "transferFrom",
			"outputs": [],
			"stateMutability": "payable",
			"type": "function"
		},
		{
			"inputs": [
				{
					"internalType": "address",
					"name": "newPotentialOwner",
					"type": "address"
				}
			],
			"name": "transferOwnership",
			"outputs": [],
			"stateMutability": "nonpayable",
			"type": "function"
		},
		{
			"anonymous": false,
			"inputs": [
				{
					"indexed": false,
					"internalType": "address",
					"name": "oldValidator",
					"type": "address"
				},
				{
					"indexed": false,
					"internalType": "address",
					"name": "newValidator",
					"type": "address"
				}
			],
			"name": "TransferValidatorUpdated",
			"type": "event"
		},
		{
			"anonymous": false,
			"inputs": [
				{
					"indexed": false,
					"internalType": "bool",
					"name": "paused",
					"type": "bool"
				}
			],
			"name": "TransfersPausedChanged",
			"type": "event"
		},
		{
			"inputs": [
				{
					"internalType": "address",
					"name": "seaDropImpl",
					"type": "address"
				},
				{
					"internalType": "address",
					"name": "feeRecipient",
					"type": "address"
				},
				{
					"internalType": "bool",
					"name": "allowed",
					"type": "bool"
				}
			],
			"name": "updateAllowedFeeRecipient",
			"outputs": [],
			"stateMutability": "nonpayable",
			"type": "function"
		},
		{
			"inputs": [
				{
					"internalType": "address[]",
					"name": "allowedSeaDrop",
					"type": "address[]"
				}
			],
			"name": "updateAllowedSeaDrop",
			"outputs": [],
			"stateMutability": "nonpayable",
			"type": "function"
		},
		{
			"inputs": [
				{
					"internalType": "address",
					"name": "seaDropImpl",
					"type": "address"
				},
				{
					"components": [
						{
							"internalType": "bytes32",
							"name": "merkleRoot",
							"type": "bytes32"
						},
						{
							"internalType": "string[]",
							"name": "publicKeyURIs",
							"type": "string[]"
						},
						{
							"internalType": "string",
							"name": "allowListURI",
							"type": "string"
						}
					],
					"internalType": "struct AllowListData",
					"name": "allowListData",
					"type": "tuple"
				}
			],
			"name": "updateAllowList",
			"outputs": [],
			"stateMutability": "nonpayable",
			"type": "function"
		},
		{
			"inputs": [
				{
					"internalType": "address",
					"name": "seaDropImpl",
					"type": "address"
				},
				{
					"internalType": "address",
					"name": "payoutAddress",
					"type": "address"
				}
			],
			"name": "updateCreatorPayoutAddress",
			"outputs": [],
			"stateMutability": "nonpayable",
			"type": "function"
		},
		{
			"inputs": [
				{
					"internalType": "address",
					"name": "seaDropImpl",
					"type": "address"
				},
				{
					"internalType": "string",
					"name": "dropURI",
					"type": "string"
				}
			],
			"name": "updateDropURI",
			"outputs": [],
			"stateMutability": "nonpayable",
			"type": "function"
		},
		{
			"inputs": [
				{
					"internalType": "address",
					"name": "seaDropImpl",
					"type": "address"
				},
				{
					"internalType": "address",
					"name": "payer",
					"type": "address"
				},
				{
					"internalType": "bool",
					"name": "allowed",
					"type": "bool"
				}
			],
			"name": "updatePayer",
			"outputs": [],
			"stateMutability": "nonpayable",
			"type": "function"
		},
		{
			"inputs": [
				{
					"internalType": "address",
					"name": "seaDropImpl",
					"type": "address"
				},
				{
					"components": [
						{
							"internalType": "uint80",
							"name": "mintPrice",
							"type": "uint80"
						},
						{
							"internalType": "uint48",
							"name": "startTime",
							"type": "uint48"
						},
						{
							"internalType": "uint48",
							"name": "endTime",
							"type": "uint48"
						},
						{
							"internalType": "uint16",
							"name": "maxTotalMintableByWallet",
							"type": "uint16"
						},
						{
							"internalType": "uint16",
							"name": "feeBps",
							"type": "uint16"
						},
						{
							"internalType": "bool",
							"name": "restrictFeeRecipients",
							"type": "bool"
						}
					],
					"internalType": "struct PublicDrop",
					"name": "publicDrop",
					"type": "tuple"
				}
			],
			"name": "updatePublicDrop",
			"outputs": [],
			"stateMutability": "nonpayable",
			"type": "function"
		},
		{
			"inputs": [
				{
					"internalType": "address",
					"name": "seaDropImpl",
					"type": "address"
				},
				{
					"internalType": "address",
					"name": "signer",
					"type": "address"
				},
				{
					"components": [
						{
							"internalType": "uint80",
							"name": "minMintPrice",
							"type": "uint80"
						},
						{
							"internalType": "uint24",
							"name": "maxMaxTotalMintableByWallet",
							"type": "uint24"
						},
						{
							"internalType": "uint40",
							"name": "minStartTime",
							"type": "uint40"
						},
						{
							"internalType": "uint40",
							"name": "maxEndTime",
							"type": "uint40"
						},
						{
							"internalType": "uint40",
							"name": "maxMaxTokenSupplyForStage",
							"type": "uint40"
						},
						{
							"internalType": "uint16",
							"name": "minFeeBps",
							"type": "uint16"
						},
						{
							"internalType": "uint16",
							"name": "maxFeeBps",
							"type": "uint16"
						}
					],
					"internalType": "struct SignedMintValidationParams",
					"name": "signedMintValidationParams",
					"type": "tuple"
				}
			],
			"name": "updateSignedMintValidationParams",
			"outputs": [],
			"stateMutability": "nonpayable",
			"type": "function"
		},
		{
			"inputs": [
				{
					"internalType": "address",
					"name": "seaDropImpl",
					"type": "address"
				},
				{
					"internalType": "address",
					"name": "allowedNftToken",
					"type": "address"
				},
				{
					"components": [
						{
							"internalType": "uint80",
							"name": "mintPrice",
							"type": "uint80"
						},
						{
							"internalType": "uint16",
							"name": "maxTotalMintableByWallet",
							"type": "uint16"
						},
						{
							"internalType": "uint48",
							"name": "startTime",
							"type": "uint48"
						},
						{
							"internalType": "uint48",
							"name": "endTime",
							"type": "uint48"
						},
						{
							"internalType": "uint8",
							"name": "dropStageIndex",
							"type": "uint8"
						},
						{
							"internalType": "uint32",
							"name": "maxTokenSupplyForStage",
							"type": "uint32"
						},
						{
							"internalType": "uint16",
							"name": "feeBps",
							"type": "uint16"
						},
						{
							"internalType": "bool",
							"name": "restrictFeeRecipients",
							"type": "bool"
						}
					],
					"internalType": "struct TokenGatedDropStage",
					"name": "dropStage",
					"type": "tuple"
				}
			],
			"name": "updateTokenGatedDrop",
			"outputs": [],
			"stateMutability": "nonpayable",
			"type": "function"
		},
		{
			"inputs": [
				{
					"internalType": "bool",
					"name": "paused",
					"type": "bool"
				}
			],
			"name": "updateTransfersPaused",
			"outputs": [],
			"stateMutability": "nonpayable",
			"type": "function"
		},
		{
			"inputs": [
				{
					"internalType": "address",
					"name": "owner",
					"type": "address"
				}
			],
			"name": "balanceOf",
			"outputs": [
				{
					"internalType": "uint256",
					"name": "",
					"type": "uint256"
				}
			],
			"stateMutability": "view",
			"type": "function"
		},
		{
			"inputs": [],
			"name": "baseURI",
			"outputs": [
				{
					"internalType": "string",
					"name": "",
					"type": "string"
				}
			],
			"stateMutability": "view",
			"type": "function"
		},
		{
			"inputs": [],
			"name": "COMMITTED_GLOBAL_SEED_HASH",
			"outputs": [
				{
					"internalType": "bytes32",
					"name": "",
					"type": "bytes32"
				}
			],
			"stateMutability": "view",
			"type": "function"
		},
		{
			"inputs": [],
			"name": "COMMITTED_SHUFFLER_SEED_HASH",
			"outputs": [
				{
					"internalType": "bytes32",
					"name": "",
					"type": "bytes32"
				}
			],
			"stateMutability": "view",
			"type": "function"
		},
		{
			"inputs": [],
			"name": "contractURI",
			"outputs": [
				{
					"internalType": "string",
					"name": "",
					"type": "string"
				}
			],
			"stateMutability": "view",
			"type": "function"
		},
		{
			"inputs": [],
			"name": "defaultBackgroundIndex",
			"outputs": [
				{
					"internalType": "uint8",
					"name": "",
					"type": "uint8"
				}
			],
			"stateMutability": "view",
			"type": "function"
		},
		{
			"inputs": [
				{
					"internalType": "uint256",
					"name": "tokenId",
					"type": "uint256"
				}
			],
			"name": "getApproved",
			"outputs": [
				{
					"internalType": "address",
					"name": "",
					"type": "address"
				}
			],
			"stateMutability": "view",
			"type": "function"
		},
		{
			"inputs": [
				{
					"internalType": "address",
					"name": "minter",
					"type": "address"
				}
			],
			"name": "getMintStats",
			"outputs": [
				{
					"internalType": "uint256",
					"name": "minterNumMinted",
					"type": "uint256"
				},
				{
					"internalType": "uint256",
					"name": "currentTotalSupply",
					"type": "uint256"
				},
				{
					"internalType": "uint256",
					"name": "maxSupply",
					"type": "uint256"
				}
			],
			"stateMutability": "view",
			"type": "function"
		},
		{
			"inputs": [],
			"name": "getTransferValidationFunction",
			"outputs": [
				{
					"internalType": "bytes4",
					"name": "functionSignature",
					"type": "bytes4"
				},
				{
					"internalType": "bool",
					"name": "isViewFunction",
					"type": "bool"
				}
			],
			"stateMutability": "pure",
			"type": "function"
		},
		{
			"inputs": [],
			"name": "getTransferValidator",
			"outputs": [
				{
					"internalType": "address",
					"name": "",
					"type": "address"
				}
			],
			"stateMutability": "view",
			"type": "function"
		},
		{
			"inputs": [],
			"name": "globalSeed",
			"outputs": [
				{
					"internalType": "uint256",
					"name": "",
					"type": "uint256"
				}
			],
			"stateMutability": "view",
			"type": "function"
		},
		{
			"inputs": [],
			"name": "globalSeedRevealed",
			"outputs": [
				{
					"internalType": "bool",
					"name": "",
					"type": "bool"
				}
			],
			"stateMutability": "view",
			"type": "function"
		},
		{
			"inputs": [
				{
					"internalType": "uint256",
					"name": "",
					"type": "uint256"
				}
			],
			"name": "globalTokenMetadata",
			"outputs": [
				{
					"internalType": "uint16",
					"name": "tokenIdSeed",
					"type": "uint16"
				},
				{
					"internalType": "uint8",
					"name": "backgroundIndex",
					"type": "uint8"
				},
				{
					"internalType": "string",
					"name": "name",
					"type": "string"
				},
				{
					"internalType": "string",
					"name": "bio",
					"type": "string"
				}
			],
			"stateMutability": "view",
			"type": "function"
		},
		{
			"inputs": [
				{
					"internalType": "address",
					"name": "owner",
					"type": "address"
				},
				{
					"internalType": "address",
					"name": "operator",
					"type": "address"
				}
			],
			"name": "isApprovedForAll",
			"outputs": [
				{
					"internalType": "bool",
					"name": "",
					"type": "bool"
				}
			],
			"stateMutability": "view",
			"type": "function"
		},
		{
			"inputs": [],
			"name": "maxSupply",
			"outputs": [
				{
					"internalType": "uint256",
					"name": "",
					"type": "uint256"
				}
			],
			"stateMutability": "view",
			"type": "function"
		},
		{
			"inputs": [],
			"name": "mintIsClosed",
			"outputs": [
				{
					"internalType": "bool",
					"name": "",
					"type": "bool"
				}
			],
			"stateMutability": "view",
			"type": "function"
		},
		{
			"inputs": [],
			"name": "name",
			"outputs": [
				{
					"internalType": "string",
					"name": "",
					"type": "string"
				}
			],
			"stateMutability": "view",
			"type": "function"
		},
		{
			"inputs": [],
			"name": "owner",
			"outputs": [
				{
					"internalType": "address",
					"name": "",
					"type": "address"
				}
			],
			"stateMutability": "view",
			"type": "function"
		},
		{
			"inputs": [],
			"name": "ownerMintsRemaining",
			"outputs": [
				{
					"internalType": "uint16",
					"name": "",
					"type": "uint16"
				}
			],
			"stateMutability": "view",
			"type": "function"
		},
		{
			"inputs": [
				{
					"internalType": "uint256",
					"name": "tokenId",
					"type": "uint256"
				}
			],
			"name": "ownerOf",
			"outputs": [
				{
					"internalType": "address",
					"name": "",
					"type": "address"
				}
			],
			"stateMutability": "view",
			"type": "function"
		},
		{
			"inputs": [],
			"name": "provenanceHash",
			"outputs": [
				{
					"internalType": "bytes32",
					"name": "",
					"type": "bytes32"
				}
			],
			"stateMutability": "view",
			"type": "function"
		},
		{
			"inputs": [],
			"name": "renderer",
			"outputs": [
				{
					"internalType": "contract ISVGRenderer",
					"name": "",
					"type": "address"
				}
			],
			"stateMutability": "view",
			"type": "function"
		},
		{
			"inputs": [],
			"name": "royaltyAddress",
			"outputs": [
				{
					"internalType": "address",
					"name": "",
					"type": "address"
				}
			],
			"stateMutability": "view",
			"type": "function"
		},
		{
			"inputs": [],
			"name": "royaltyBasisPoints",
			"outputs": [
				{
					"internalType": "uint256",
					"name": "",
					"type": "uint256"
				}
			],
			"stateMutability": "view",
			"type": "function"
		},
		{
			"inputs": [
				{
					"internalType": "uint256",
					"name": "",
					"type": "uint256"
				},
				{
					"internalType": "uint256",
					"name": "_salePrice",
					"type": "uint256"
				}
			],
			"name": "royaltyInfo",
			"outputs": [
				{
					"internalType": "address",
					"name": "receiver",
					"type": "address"
				},
				{
					"internalType": "uint256",
					"name": "royaltyAmount",
					"type": "uint256"
				}
			],
			"stateMutability": "view",
			"type": "function"
		},
		{
			"inputs": [],
			"name": "shufflerSeed",
			"outputs": [
				{
					"internalType": "uint256",
					"name": "",
					"type": "uint256"
				}
			],
			"stateMutability": "view",
			"type": "function"
		},
		{
			"inputs": [],
			"name": "shufflerSeedRevealed",
			"outputs": [
				{
					"internalType": "bool",
					"name": "",
					"type": "bool"
				}
			],
			"stateMutability": "view",
			"type": "function"
		},
		{
			"inputs": [
				{
					"internalType": "bytes4",
					"name": "interfaceId",
					"type": "bytes4"
				}
			],
			"name": "supportsInterface",
			"outputs": [
				{
					"internalType": "bool",
					"name": "",
					"type": "bool"
				}
			],
			"stateMutability": "view",
			"type": "function"
		},
		{
			"inputs": [],
			"name": "symbol",
			"outputs": [
				{
					"internalType": "string",
					"name": "",
					"type": "string"
				}
			],
			"stateMutability": "view",
			"type": "function"
		},
		{
			"inputs": [
				{
					"internalType": "uint256",
					"name": "tokenId",
					"type": "uint256"
				}
			],
			"name": "tokenURI",
			"outputs": [
				{
					"internalType": "string",
					"name": "",
					"type": "string"
				}
			],
			"stateMutability": "view",
			"type": "function"
		},
		{
			"inputs": [],
			"name": "totalSupply",
			"outputs": [
				{
					"internalType": "uint256",
					"name": "result",
					"type": "uint256"
				}
			],
			"stateMutability": "view",
			"type": "function"
		},
		{
			"inputs": [],
			"name": "transfersPaused",
			"outputs": [
				{
					"internalType": "bool",
					"name": "",
					"type": "bool"
				}
			],
			"stateMutability": "view",
			"type": "function"
		}
	]
}