{
	"data": {
		"bytecode": {
			"linkReferences": {},
			"object": "60c0604052346100fd576164988038038061001981610115565b928339810160a0828203126100fd578151916100348361013a565b602081015160408201516060830151608084015190939192916001600160401b0382116100fd57019484601f870112156100fd578551946001600160401b038611610101578560051b9660208061008c818b01610115565b8099815201988201019182116100fd57602001965b8188106100e35750506100b4955061069c565b60405161597b9081610afd8239608051818181611eda01526138bc015260a0518181816119b30152612d9f0152f35b6020809189516100f28161013a565b8152019701966100a1565b5f80fd5b634e487b7160e01b5f52604160045260245ffd5b6040519190601f01601f191682016001600160401b0381118382101761010157604052565b6001600160a01b038116036100fd57565b6101556040610115565b90600a825269526574726f50756e6b7360b01b6020830152565b6101796040610115565b90600582526452504e4b5360d81b6020830152565b6101986040610115565b90600d82526c5072656461746f7220426c756560981b6020830152565b6101bf6040610115565b90600e82526d283932b230ba37b91023b932b2b760911b6020830152565b6101e76040610115565b90600c82526b141c9959185d1bdc8814995960a21b6020830152565b61020d6040610115565b90600b82526a53616e746120436c61757360a81b6020830152565b6102326040610115565b90600c82526b536861646f77204e696e6a6160a01b6020830152565b6102586040610115565b906009825268151a194811195d9a5b60ba1b6020830152565b61027b6040610115565b90600c82526b151a1948141bdc9d1c985a5d60a21b6020830152565b6102a16040610115565b90600d82526c416e6369656e74204d756d6d7960981b6020830152565b6102c86040610115565b906008825267437962657241706560c01b6020830152565b6102ea6040610115565b90601082526f20b731b4b2b73a1029b5b2b632ba37b760811b6020830152565b6103146040610115565b90600382526250696760e81b6020830152565b6103316040610115565b90600a82526929b632b73232b936b0b760b11b6020830152565b6103556040610115565b9060098252682a34329021b637bbb760b91b6020830152565b6103786040610115565b90600a8252695468652050697261746560b01b6020830152565b61039c6040610115565b9060098252680a8d0ca40aed2e8c6d60bb1b6020830152565b6103bf6040610115565b90600a825269151a194815da5e985c9960b21b6020830152565b90600182811c92168015610407575b60208310146103f357565b634e487b7160e01b5f52602260045260245ffd5b91607f16916103e8565b5f5b82811061041f57505050565b5f82820155600101610413565b601f8111610438575050565b818111610443575050565b60025f5261047a915f5160206164785f395f51905f5291601f820160051c9160201161047c575b601f82910160051c039101610411565b565b5f915061046a565b91601f821161049257505050565b80821161049e57505050565b61047a925f5260205f20916020601f830160051c921061047c57601f82910160051c039101610411565b80519091906001600160401b038111610101576104f1816104ea6003546103d9565b6003610484565b602092601f821160011461053157610521929382915f92610526575b50508160011b915f199060031b1c19161790565b600355565b015190505f8061050d565b60035f52601f198216937fc2575a0e9e593c00f959f8c92f12db2869c3395a3b0502d05e2516446f71f85b915f5b868110610595575083600195961061057d575b505050811b01600355565b01515f1960f88460031b161c191690555f8080610572565b9192602060018192868501518155019401920161055f565b6017905f905b601082106105c057505050565b80518051906001600160401b038211610101576105e7826105e187546103d9565b87610484565b602090601f831160011461062c579261061d836001959460209487965f926105265750508160011b915f199060031b1c19161790565b86555b019301910190916105b3565b90601f19831691610640875f5260205f2090565b925f5b818110610684575093602093600196938796938388951061066c575b505050811b018655610620565b01515f1960f88460031b161c191690555f808061065f565b92936020600181928786015181550195019301610643565b909161082a926106bf61047a966106b161014b565b6106b961016f565b9061082f565b6013805461ffff60a81b1916601960a81b1790556106e260ff1960165416601655565b6106f261ff001960165416601655565b61070362ff00001960165416601655565b61071563ff0000001960165416601655565b6107fd610723610200610115565b61072b61018e565b81526107356101b5565b60208201526107426101dd565b604082015261074f610203565b606082015261075c610228565b608082015261076961024e565b60a0820152610776610271565b60c0820152610783610297565b60e08201526107906102be565b61010082015261079e6102e0565b6101208201526107ac61030a565b6101408201526107ba610327565b6101608201526107c861034b565b6101808201526107d661036e565b6101a08201526107e4610392565b6101c08201526107f26103b5565b6101e08201526105ad565b60805260a05260138054610100600160a81b03191660089290921b610100600160a81b0316919091179055565b600c55565b805190939291906001600160401b03811161010157610858816108536002546103d9565b61042c565b6020601f821160011461098357908061088b926108939596975f926105265750508160011b915f199060031b1c19161790565b6002556104c8565b61089c60015f55565b6108a4610aa4565b80515f5b8181106109345750506108ba90610a1f565b7f867006957979daa4aa88eb4157c1262555f712bc61ec3d0046c5a49a2c190b456040517fd7aca75208b9be5ffc04c6a01922020ffd62b55e68e502e317f5344960279af85f80a1610914600160ff196013541617601355565b8061092f61092460135460ff1690565b151582526020820190565b0390a1565b8061097d61097061095761094a600195886109f7565b516001600160a01b031690565b6001600160a01b03165f90815260116020526040902090565b805460ff19166001179055565b016108a8565b60025f52601f198216955f5160206164785f395f51905f52965f5b8181106109df575091610893959697918460019594106109c7575b505050811b016002556104c8565b01515f1960f88460031b161c191690555f80806109b9565b8383015189556001909801976020938401930161099e565b8051821015610a0b5760209160051b010190565b634e487b7160e01b5f52603260045260245ffd5b8051906001600160401b038211610101576801000000000000000082116101015760209060125483601255808410610a88575b500160125f5260205f205f5b838110610a6b5750505050565b82516001600160a01b031682820155602090920191600101610a5e565b610a9e9060125f528480855f2001910390610411565b5f610a52565b303b610aee57600a8054336001600160a01b0319821681179092556001600160a01b03167f8be0079c531659141344cd1fd0a4f28419497f9722a3daafe3b4186f6b6457e05f80a3565b62dc149f60e41b5f5260045ffdfe60806040526004361015610011575f80fd5b5f3560e01c806301ffc9a7146104b457806306fdde03146104af57806307aafa98146104aa578063081812fc146104a5578063095ea7b3146104a0578063098144d41461049b578063099b6bfa146104965780630d705df6146104915780630d9d713b1461048c57806318160ddd146104875780631b73593c146104825780631dbd73901461047d57806323452b9c1461047857806323b872dd146104735780632a55205a1461046e5780633680620d1461046957806342260b5d1461046457806342842e0e1461045f57806342966c681461045a57806344dae42c146104555780634563f30a14610450578063484b973c1461044b57806348a4c10114610446578063511aa6441461044157806355f804b31461043c5780635743bdff146104375780635bbb21771461043257806360c308b61461042d57806361e567c9146104285780636352211e1461042357806364869dad1461041e57806364f101f01461041957806366251b69146104145780636c0360eb1461040f5780636f8b44b01461040a57806370a0823114610405578063715018a61461040057806373c5643a146103fb57806374e4f5af146103f657806379ba5097146103f15780637a05bc82146103ec5780637bc2be76146103e7578063840e15d4146103e25780638462151c146103dd578063853b3b4c146103d85780638ada6b0f146103d35780638da5cb5b146103ce578063911f456b146103c9578063938e3d7b146103c45780639559a5d9146103bf57806395d89b41146103ba57806399a2557a146103b557806399c5def3146103b05780639b7406a5146103ab578063a22cb465146103a6578063a4830114146103a1578063a9fc664e1461039c578063ad2f852a14610397578063b88d4fde14610392578063c23dc68f1461038d578063c6ab67a314610388578063c87b56dd14610383578063cb743ba81461037e578063cdb0e89e14610379578063d5abeb0114610374578063d74b68571461036f578063db846dbe1461036a578063e8a3d48514610365578063e985e9c514610360578063ea066c671461035b578063f2fde38b14610356578063f4cc710514610351578063f598f1da1461034c5763fe97b57614610347575f80fd5b61395b565b6138df565b6138a5565b613821565b613761565b61373e565b613699565b613621565b613456565b613439565b6131f8565b613167565b6130b7565b61309a565b613037565b612fd5565b612f5c565b612eb7565b612e68565b612dc2565b612d88565b612d6b565b612be6565b612b41565b612b1c565b6129d8565b611fc4565b611f9c565b611f70565b611e88565b611cea565b611c57565b611bc6565b611b43565b611a92565b611a6d565b611953565b6118f8565b6118d1565b61183e565b611799565b61172e565b6116e2565b611653565b611624565b6115d8565b6114c6565b6113f7565b611381565b611237565b611137565b610f74565b610e72565b610e50565b610d6e565b610c0d565b610be9565b610bc9565b610b29565b610ada565b610ac8565b610a46565b610a24565b610994565b61096f565b61090d565b6108cb565b61085e565b610836565b610773565b610713565b6106f6565b610620565b6104cf565b6001600160e01b03198116036104cb57565b5f80fd5b346104cb5760203660031901126104cb576105246004356104ef816104b9565b63ffffffff60e01b16630c487f4760e11b81149081156105cd575b8115610528575b5060405190151581529081906020820190565b0390f35b63152a902d60e11b8114915081156105bc575b81156105ab575b811561059a575b8115610557575b505f610511565b6301ffc9a760e01b811491508115610589575b8115610578575b505f610550565b635b5e139f60e01b1490505f610571565b6380ac58cd60e01b8114915061056a565b632483248360e11b81149150610549565b63503e914d60e11b81149150610542565b632b435fdb60e21b8114915061053b565b639c15441560e01b8114915061050a565b5f9103126104cb57565b805180835260209291819084018484015e5f828201840152601f01601f1916010190565b90602061061d9281815201906105e8565b90565b346104cb575f3660031901126104cb576040515f6002546106408161354b565b80845290600181169081156106d25750600114610674575b6105248361066881850382611039565b6040519182918261060c565b60025f9081527f405787fa12a823e0f2b7631cc41b3ba8828b3321ca811111fa75cd3aa3bb5ace939250905b8082106106b857509091508101602001610668610658565b9192600181602092548385880101520191019092916106a0565b60ff191660208086019190915291151560051b840190910191506106689050610658565b346104cb575f3660031901126104cb576020601454604051908152f35b346104cb5760203660031901126104cb5760043561073081614794565b15610753575f526006602052602060018060a01b0360405f205416604051908152f35b6333d1c03960e21b5f5260045ffd5b6001600160a01b038116036104cb57565b60403660031901126104cb5760043561078b81610762565b6024359060ff60135416610827576001600160a01b036107aa836148a3565b169081330361080a575b5f83815260066020526040902080546001600160a01b0319166001600160a01b0383161790556001600160a01b0316907f8c5be1e5ebec7d5bd14f71427d1e84f3dd0314c0f7b2291e5b200ac8c7c3b9255f80a4005b610814338361473b565b6107b4576367d9dca160e11b5f5260045ffd5b636ab17e0560e01b5f5260045ffd5b346104cb575f3660031901126104cb576009546040516001600160a01b039091168152602090f35b346104cb5760203660031901126104cb5760043561087a614837565b5f545f19016108bc5760407f7c22004198bf87da0f0dab623c72e66ca1200f4454aa3b9ca30f436275428b7c91600f549080600f5582519182526020820152a1005b63e03264af60e01b5f5260045ffd5b346104cb575f3660031901126104cb576040805163657711f560e11b81525f6020820152f35b6024359081151582036104cb57565b359081151582036104cb57565b346104cb5760203660031901126104cb576004358015158091036104cb5760207f867006957979daa4aa88eb4157c1262555f712bc61ec3d0046c5a49a2c190b459161095761485e565b60ff196013541660ff821617601355604051908152a1005b346104cb575f3660031901126104cb575f54600154602091035f19015b604051908152f35b346104cb575f60e03660031901126104cb576004356109b281610762565b60c03660231901126104cb576109c6614837565b6109cf81614872565b6001600160a01b0316803b156104cb575f809160c4604051809481936301308e6560e01b8352610a0160048401613991565b5af18015610a1f57610a11575080f35b610a1d91505f90611039565b005b613a1f565b346104cb575f3660031901126104cb57602060ff601654166040519015158152f35b346104cb575f3660031901126104cb57610a5e61485e565b6001600160601b0360a01b600b5416600b557f11a3cf439fb225bfe74225716b6774765670ec1060e3796802e62139d69974da60206040515f8152a1005b60609060031901126104cb57600435610ab481610762565b90602435610ac181610762565b9060443590565b610a1d610ad436610a9c565b91613a2a565b346104cb5760403660031901126104cb576024356010548060a01c91828102928184041490151715610b2457604080516001600160a01b0390921682526127109092046020820152f35b613b99565b346104cb575f60403660031901126104cb57600435610b4781610762565b602435906001600160401b0382116104cb57606060031983360301126104cb57610b6f614837565b610b7881614872565b6001600160a01b0316803b156104cb57610bb75f9291839260405194858094819363ebb4a55f60e01b8352602060048401526024830190600401613c14565b03925af18015610a1f57610a11575080f35b346104cb575f3660031901126104cb57602060105460a01c604051908152f35b610a1d610bf536610a9c565b9060405192610c05602085611039565b5f845261467e565b346104cb5760203660031901126104cb57600435610c2a816148a3565b5f8281526006602052604090208054916001600160a01b03811691338084149085141715610c57565b1590565b610d57575b5f93610c68868561490e565b610d4e575b506001600160a01b0382165f90815260056020526040902080546fffffffffffffffffffffffffffffffff0190556001600160a01b0382164260a01b17600360e01b17610cc2855f52600460205260405f2090565b55600160e11b811615610d09575b507fddf252ad1be2c89b69c2b068fc378daa952ba7f163c4a11628f55a4df523b3ef8280a4610a1d610d0460015460010190565b600155565b60018401610d1f815f52600460205260405f2090565b5415610d2c575b50610cd0565b83548114610d2657610d46905f52600460205260405f2090565b555f80610d26565b8390555f610c6d565b610d64610c53338561473b565b15610c5c576147df565b346104cb5760403660031901126104cb57610d87614837565b600435610d9381610762565b6001600160a01b031615610e41576127106001600160601b03610db4613ce9565b1611610e1e57610dc2613cff565b7ff21fccf4d64d86d532c4e4eb86c007b6ad57a460c27d724188625e755ec6cf6d610deb613cd3565b610df3613ce9565b604080516001600160a01b0390931683526001600160601b039091166020830152819081015b0390a1005b6001600160601b03610e2e613ce9565b633cadbafb60e01b5f521660045260245ffd5b631cc0baef60e01b5f5260045ffd5b346104cb575f3660031901126104cb57602060ff601354166040519015158152f35b346104cb5760403660031901126104cb57600435610e8f81610762565b602435610e9a61485e565b3068929eee149b4bd212685414610f32573068929eee149b4bd212685561ffff60135460a81c16818110610f235761ffff821690039161ffff8311610b2457610efe610f15936013549061ffff60a81b9060a81b169061ffff60a81b191617601355565b610f0782614a85565b610f1082614acb565b614b39565b3868929eee149b4bd2126855005b630651450360e51b5f5260045ffd5b63ab143c065f526004601cfd5b60609060031901126104cb57600435610f5781610762565b90602435610f6481610762565b9060443580151581036104cb5790565b346104cb57610f8236610f3f565b9091610f8c614837565b610f9581614872565b6001600160a01b031691823b156104cb57604051638e7d1e4360e01b81526001600160a01b03909116600482015290151560248201525f81604481015b93818381819703925af18015610a1f57610a11575080f35b634e487b7160e01b5f52604160045260245ffd5b60e081019081106001600160401b0382111761101957604052565b610fea565b608081019081106001600160401b0382111761101957604052565b90601f801991011681019081106001600160401b0382111761101957604052565b60405190611069608083611039565b565b604435906001600160501b03821682036104cb57565b35906001600160501b03821682036104cb57565b6064359062ffffff821682036104cb57565b359062ffffff821682036104cb57565b6084359064ffffffffff821682036104cb57565b60a4359064ffffffffff821682036104cb57565b60c4359064ffffffffff821682036104cb57565b359064ffffffffff821682036104cb57565b60e4359061ffff821682036104cb57565b610104359061ffff821682036104cb57565b359061ffff821682036104cb57565b346104cb576101203660031901126104cb5760043561115581610762565b6024359061116282610762565b60e03660431901126104cb57610a1d916040519161117f83610ffe565b61118761106b565b8352611191611095565b602084015261119e6110b7565b60408401526111ab6110cb565b60608401526111b86110df565b60808401526111c5611105565b60a08401526111d2611116565b60c0840152613dd5565b9181601f840112156104cb578235916001600160401b0383116104cb57602083818601950101116104cb57565b60206003198201126104cb57600435906001600160401b0382116104cb57611233916004016111dc565b9091565b346104cb5761124536611209565b61124d614837565b6001600160401b0381116110195761126f8161126a600d5461354b565b613e64565b5f601f821160011461130257819061129c935f926112f7575b50508160011b915f199060031b1c19161790565b600d555b5f5460015490035f19015b6112b157005b7f6bd5c950a8d8df17f772f5af37cb3655737899cbf903264b9795592da439661c610e196112df5f5461402d565b60405191829182919060206040840193600181520152565b013590505f80611288565b600d5f52601f198216927fd7b6990105719101dabeb77144f2a3385c8033acd3af97e9423a695e81ad1eb5915f5b85811061136957508360019510611350575b505050811b01600d556112a0565b01355f19600384901b60f8161c191690555f8080611342565b90926020600181928686013581550194019101611330565b346104cb575f3660031901126104cb57602061ffff60135460a81c16604051908152f35b9060206003198301126104cb576004356001600160401b0381116104cb5760040182601f820112156104cb578035926001600160401b0384116104cb576020808301928560051b0101116104cb579190565b346104cb57611405366113a5565b906040519180835260051b6020818401016040525b8081801561144057601f19908101926114379190850101356146e3565b9084015261141a565b846040518091602082016020835281518091526020604084019201905f5b81811061146c575050500390f35b9193509160206080826114b8600194885162ffffff6060809260018060a01b0381511685526001600160401b036020820151166020860152604081015115156040860152015116910152565b01940191019184939261145e565b346104cb576114d4366113a5565b6114dc61485e565b6012545f5b8181106115775750505f5b81811061152f575081611520827fbbd3b69c138de4d317d0bc4290282c4e1cbd1e58b579a5b4f114b598c237454d94614ca8565b610e1960405192839283614d43565b8061157161156461154b61154660019587896142e5565b613cdf565b6001600160a01b03165f90815260116020526040902090565b805460ff19166001179055565b016114ec565b6012548110156115d35760125f527fbb8a6a4669ba250d26cd7a459eca9d215f8307e33aebe50379bc5a3617ec3444810154600191906115cd906115c3906001600160a01b031661154b565b805460ff19169055565b016114e1565b6142d1565b346104cb5760203660031901126104cb5760043561ffff811681036104cb57610a1d9061160361485e565b6013805461ffff60a81b191660a89290921b61ffff60a81b16919091179055565b346104cb5760203660031901126104cb5760206001600160a01b0361164a6004356148a3565b16604051908152f35b346104cb5760403660031901126104cb5760043561167081610762565b6024353068929eee149b4bd212685414610f32573068929eee149b4bd212685561169933614872565b5f545f190191818301809311610b2457600c548093116116bd57610f159250614b39565b505f545f1901908101809111610b245763384b48c560e21b5f5260045260245260445ffd5b346104cb575f3660031901126104cb576116fa61485e565b6016805460ff19166001179055005b60409060031901126104cb5760043561172181610762565b9060243561061d81610762565b346104cb5761173c36611709565b90611745614837565b61174e81614872565b6001600160a01b0316803b156104cb5760405163024e71b760e31b81526001600160a01b0390921660048301525f919082908290602490829084905af18015610a1f57610a11575080f35b346104cb575f3660031901126104cb576040515f600d546117b98161354b565b80845290600181169081156106d257506001146117e0576105248361066881850382611039565b600d5f9081527fd7b6990105719101dabeb77144f2a3385c8033acd3af97e9423a695e81ad1eb5939250905b80821061182457509091508101602001610668610658565b91926001816020925483858801015201910190929161180c565b346104cb5760203660031901126104cb5760043561185a614837565b6001600160401b0381116118bf575f545f190181106118a4576020817f7810bd47de260c3e9ee10061cf438099dd12256c79485f12f94dbccc981e806c92600c55604051908152a1005b5f545f190190638c19f1f960e01b5f5260045260245260445ffd5b63b43e913760e01b5f5260045260245ffd5b346104cb5760203660031901126104cb57602061098c6004356118f381610762565b614048565b346104cb575f3660031901126104cb5761191061485e565b600a80546001600160a01b031981169091555f906001600160a01b03167f8be0079c531659141344cd1fd0a4f28419497f9722a3daafe3b4186f6b6457e08280a3005b346104cb5760403660031901126104cb5760043560243561197261485e565b60165460101c60ff16611a5e576040516119ae816119a0602082019486869091604092825260208201520190565b03601f198101835282611039565b5190207f000000000000000000000000000000000000000000000000000000000000000003611a4f57610e1981611a057f6c2137e80722ed4b518b32ea50ecb69ef2c76f0451088a3c0aa79ce523bab51493601555565b611a1b6201000060165462ff0000191617601655565b611a31600c546103e881115f14611a4157614d8a565b6040519081529081906020820190565b611a4a90613bad565b614d8a565b633bdfc85960e11b5f5260045ffd5b631104d35360e11b5f5260045ffd5b346104cb575f3660031901126104cb57602060ff60165460101c166040519015158152f35b346104cb575f3660031901126104cb57600b546001600160a01b0381169033829003611b34576001600160601b0360a01b16600b557f11a3cf439fb225bfe74225716b6774765670ec1060e3796802e62139d69974da60206040515f8152a1600a80546001600160a01b0319811683179091556001600160a01b03167f8be0079c531659141344cd1fd0a4f28419497f9722a3daafe3b4186f6b6457e05f80a3005b636b7584e760e11b5f5260045ffd5b346104cb575f60403660031901126104cb57600435611b6181610762565b6024356001600160401b0381116104cb57611b809036906004016111dc565b91611b89614837565b611b9281614872565b6001600160a01b031691823b156104cb57610bb7925f928360405180968195829463b957d0cb60e01b84526004840161407e565b346104cb575f6101403660031901126104cb57600435611be581610762565b60243590611bf282610762565b6101003660431901126104cb57611c07614837565b611c1081614872565b6001600160a01b031690813b156104cb57604051637ecd591560e11b81526001600160a01b039091166004820152905f9082906101249082908490610a01602484016140ae565b346104cb5760203660031901126104cb57600435611c7481610762565b60018060a01b03165f52600560205260606001600160401b0360405f205460401c165f195f5401600c549060405192835260208301526040820152f35b60206040818301928281528451809452019201905f5b818110611cd45750505090565b8251845260209384019390920191600101611cc7565b346104cb5760203660031901126104cb57600435611d0781610762565b5f5460609080600103611d23575b604051806105248482611cb1565b90819260019060609380831015611e79575f5480911015611e71575b50611d4981614048565b9285831015611e69575b83611d68575b5050505061052491505f611d15565b92935090915f19850184811115611e61575b506040519183850160051b83019485604052611d95856146e3565b905f91611da8610c536040830151151590565b611e4f575b505f97919591825b15611e20575b5f96611dc684614f24565b604081015115611de557505060015f935b019688604052969296611db5565b9390935180611e18575b50848418861b15611e03575b600190611dd7565b6001909901600581901b87018a905298611dfb565b93505f611def565b8083148015611e46575b15611dbb5750505050509150506105249181525f808080611d59565b50818914611e2a565b516001600160a01b031691505f611dad565b93505f611d7a565b5f9350611d53565b94505f611d3f565b631960ccad60e11b5f5260045ffd5b346104cb5760403660031901126104cb57600435602435611ea761485e565b60165460081c60ff16611f6157604051611ed5816119a0602082019486869091604092825260208201520190565b5190207f000000000000000000000000000000000000000000000000000000000000000003611f5257611f4081611f2c7f07bccb191591b7e41b276df97ebf2cbb27e85e20fa7db7d336d3a9738021466f93601455565b611a3161010061ff00196016541617601655565b0390a15f5460015490035f19016112ab565b63148bb88160e31b5f5260045ffd5b6318ed71cd60e01b5f5260045ffd5b346104cb575f3660031901126104cb5760135460405160089190911c6001600160a01b03168152602090f35b346104cb575f3660031901126104cb57600a546040516001600160a01b039091168152602090f35b346104cb5760203660031901126104cb576004356001600160401b0381116104cb57806004019061030060031982360301126104cb5761200261485e565b813580612994575b50602481016120198184614170565b905061293b575b506044810161202f8184614170565b90506128e2575b50600165ffffffffffff61204c60a484016141a2565b16151561206961205e60c485016141a2565b65ffffffffffff1690565b15151714612880575b61014481016120818184614170565b905061281c575b5061016481016120988184614265565b356127b7575b5061018481016001600160a01b036120b582613cdf565b1661274e575b506101a48101358061270a575b506101c481016120d8818461429c565b9050612667575b506101e481016120ef818461429c565b90506125c4575b506102048101612106818461429c565b9050612521575b50610224810161211d818461429c565b905061247e575b50610264810161213481846142f5565b90506123a0575b50610284810161214b818461429c565b9050612301575b506102c481016121628184614513565b9050612223575b506102e481019161217a838261429c565b905061218257005b60645f939201925b612194838361429c565b9050811015610a1d576121a5614620565b906121af85613cdf565b6121c6611546836121c0888861429c565b906142e5565b303b156104cb575f916121ed6040519586938493631446a99160e21b855260048501614656565b038183305af1918215610a1f57600192612209575b500161218a565b806122175f61221d93611039565b806105de565b5f612202565b61222d8184614513565b6102a4840192915061223f838661429c565b919050036122f257606483015f5b6122578387614513565b90508110156122e85761226982613cdf565b9061227b611546826121c0888b61429c565b916122908261228a878b614513565b90614548565b92303b156104cb575f916122b86040519586938493631446a99160e21b855260048501614558565b038183305af1918215610a1f576001926122d4575b500161224d565b806122175f6122e293611039565b5f6122cd565b505050505f612169565b6374ef6df760e01b5f5260045ffd5b6064820192905f5b612313828461429c565b90508110156123965761232461441f565b9061232e86613cdf565b61233f611546836121c0878961429c565b303b156104cb575f916123666040519586938493633de15f3b60e11b85526004850161446c565b038183305af1918215610a1f57600192612382575b5001612309565b806122175f61239093611039565b5f61237b565b505091505f612152565b6123aa81846142f5565b61024484019291506123bc838661429c565b9190500361246f57606483015f5b6123d483876142f5565b9050811015612465576123e682613cdf565b906123f8611546826121c0888b61429c565b9161240d82612407878b6142f5565b9061432a565b92303b156104cb575f916124356040519586938493633de15f3b60e11b85526004850161433a565b038183305af1918215610a1f57600192612451575b50016123ca565b806122175f61245f93611039565b5f61244a565b505050505f61213b565b63b81aa63960e01b5f5260045ffd5b606482015f5b61248e838661429c565b9050811015612518576124a082613cdf565b906124b2611546826121c0878a61429c565b91303b156104cb5760405163196e877560e31b81526001600160a01b039182166004820152921660248301525f604483018190528260648183305af1918215610a1f57600192612504575b5001612484565b806122175f61251293611039565b5f6124fd565b5050505f612124565b606482015f5b612531838661429c565b90508110156125bb5761254382613cdf565b90612555611546826121c0878a61429c565b91303b156104cb5760405163196e877560e31b81526001600160a01b03918216600482015292166024830152600160448301525f8260648183305af1918215610a1f576001926125a7575b5001612527565b806122175f6125b593611039565b5f6125a0565b5050505f61210d565b606482015f5b6125d4838661429c565b905081101561265e576125e682613cdf565b906125f8611546826121c0878a61429c565b91303b156104cb576040516348a4c10160e01b81526001600160a01b039182166004820152921660248301525f604483018190528260648183305af1918215610a1f5760019261264a575b50016125ca565b806122175f61265893611039565b5f612643565b5050505f6120f6565b606482015f5b612677838661429c565b90508110156127015761268982613cdf565b9061269b611546826121c0878a61429c565b91303b156104cb576040516348a4c10160e01b81526001600160a01b03918216600482015292166024830152600160448301525f8260648183305af1918215610a1f576001926126ed575b500161266d565b806122175f6126fb93611039565b5f6126e6565b5050505f6120df565b303b156104cb576040516304cdb5fd60e11b815260048101919091525f8160248183305af18015610a1f57156120c857806122175f61274893611039565b5f6120c8565b61276361275d60648401613cdf565b91613cdf565b90303b156104cb576040516366251b6960e01b81526001600160a01b039182166004820152911660248201525f8160448183305af18015610a1f57156120bb57806122175f6127b193611039565b5f6120bb565b6127cd6127c660648401613cdf565b9184614265565b90303b156104cb57604051633680620d60e01b8152915f91839182916127f791906004840161427a565b038183305af18015610a1f571561209e57806122175f61281693611039565b5f61209e565b61283261282b60648401613cdf565b9184614170565b9190303b156104cb575f9161285b6040519485938493633d02de4160e11b855260048501614243565b038183305af18015610a1f571561208857806122175f61287a93611039565b5f612088565b61288c60648201613cdf565b303b156104cb575f6128b791604051809381926306dcd64f60e21b83526084870190600484016141ac565b038183305af18015610a1f576128ce575b50612072565b806122175f6128dc93611039565b5f6128c8565b6128ec9083614170565b90303b156104cb5760405163938e3d7b60e01b8152915f918391829161291691906004840161407e565b038183305af18015610a1f571561203657806122175f61293593611039565b5f612036565b6129459083614170565b90303b156104cb576040516355f804b360e01b8152915f918391829161296f91906004840161407e565b038183305af18015610a1f571561202057806122175f61298e93611039565b5f612020565b303b156104cb576040516306f8b44b60e41b815260048101919091525f8160248183305af18015610a1f571561200a57806122175f6129d293611039565b5f61200a565b346104cb576129e636611209565b6129ee614837565b6001600160401b03811161101957612a1081612a0b600e5461354b565b613ecd565b5f91601f8211600114612a7c57612a5e82807f905d981207a7d0b6c62cc46ab0be2a076d0298e4a86d0ab79882dbd01ac37378955f91612a71575b508160011b915f199060031b1c19161790565b600e555b610e196040519283928361407e565b90508301355f612a4b565b600e5f52601f1982167fbb7b4a454dc3493923482f07822329ed19e8244eff582cc204f8554c3620c3fd905f5b818110612b04575093837f905d981207a7d0b6c62cc46ab0be2a076d0298e4a86d0ab79882dbd01ac373789510612aeb575b5050600182811b01600e55612a62565b8201355f19600385901b60f8161c191690555f80612adb565b83860135835560209586019560019093019201612aa9565b346104cb575f3660031901126104cb57602060ff60165460081c166040519015158152f35b346104cb575f3660031901126104cb576040515f600354612b618161354b565b80845290600181169081156106d25750600114612b88576105248361066881850382611039565b60035f9081527fc2575a0e9e593c00f959f8c92f12db2869c3395a3b0502d05e2516446f71f85b939250905b808210612bcc57509091508101602001610668610658565b919260018160209254838588010152019101909291612bb4565b346104cb5760603660031901126104cb57600435612c0381610762565b60443590606090602435838181811015611e7957600111612d62575b5f5480911015612d5a575b50612c3482614048565b9184821015612d52575b82612c52575b604051806105248682611cb1565b9080929350840383811115612d4a575b50604051906001840160051b82019384604052612c7e846146e3565b905f91612c91610c536040830151151590565b612d38575b505f9691949160015b15612d0b575b5f95612cb084614f24565b604081015115612ccf57505060015f935b019587604052959295612c9f565b9390935180612d03575b5084841860601b15612cee575b600190612cc1565b6001909801600581901b860189905297612ce6565b93505f612cd9565b8083148015612d2f575b15612ca557505050509150506105249181525f8080612c44565b50818814612d15565b516001600160a01b031691505f612c96565b92505f612c62565b5f9250612c3e565b93505f612c2a565b60019150612c1f565b346104cb575f3660031901126104cb576020601554604051908152f35b346104cb575f3660031901126104cb5760206040517f00000000000000000000000000000000000000000000000000000000000000008152f35b346104cb5760403660031901126104cb57600435612ddf81610762565b612de76108f1565b9060ff6013541661082757335f526007602052612e2c82612e1b8360405f209060018060a01b03165f5260205260405f2090565b9060ff801983541691151516179055565b60405191151582526001600160a01b03169033907f17307eab39ab6107e8899845ad3d59bd9653f200f220920489ca2b5937696c3190602090a3005b346104cb5760403660031901126104cb577f6bd5c950a8d8df17f772f5af37cb3655737899cbf903264b9795592da439661c6040600435602435612eaa614837565b82519182526020820152a1005b346104cb5760203660031901126104cb57600435612ed481610762565b612edc61485e565b600954906001600160a01b03808316908216808214612f4d576001600160a01b031993909316909217600955604080516001600160a01b0393841681529190921660208201527fcc5dc080ff977b3c3a211fa63ab74f90f658f5ba9d3236e92c8f59570f442aac9181908101610e19565b63251dd8cf60e11b5f5260045ffd5b346104cb575f3660031901126104cb576010546040516001600160a01b039091168152602090f35b6001600160401b03811161101957601f01601f191660200190565b929192612fab82612f84565b91612fb96040519384611039565b8294818452818301116104cb578281602093845f960137010152565b60803660031901126104cb57600435612fed81610762565b60243590612ffa82610762565b604435606435926001600160401b0384116104cb57366023850112156104cb57613031610a1d943690602481600401359101612f9f565b9261467e565b346104cb5760203660031901126104cb5760806130556004356146e3565b613098604051809262ffffff6060809260018060a01b0381511685526001600160401b036020820151166020860152604081015115156040860152015116910152565bf35b346104cb575f3660031901126104cb576020600f54604051908152f35b346104cb5760203660031901126104cb576004356130d481614794565b156131585761066881610524925f52602760205260405f20604051906130f98261101e565b80549061ffff8216835260ff602084019260101c16825261314c613144613135600261312760018601613583565b946040880195865201613583565b948560608201525161ffff1690565b925160ff1690565b9051916014549461528d565b634a1850bf60e11b5f5260045ffd5b346104cb5761317536610f3f565b909161317f614837565b61318881614872565b6001600160a01b031691823b156104cb57604051633f952e6560e11b81526001600160a01b03909116600482015290151560248201525f8160448101610fd2565b9060406003198301126104cb5760043591602435906001600160401b0382116104cb57611233916004016111dc565b346104cb57613206366131c9565b91906132118261542a565b6016546132229060181c60ff161590565b61342a57613231368483612f9f565b918251801515908161341e575b501561340f575f5b835181101561338b5761327a61326d61325f838761472a565b516001600160f81b03191690565b6001600160f81b03191690565b600360fc1b811015908161337c575b8115613358575b8115613334575b81156132bb575b50156132ac57600101613246565b63a23ef83b60e01b5f5260045ffd5b600160fd1b811491508115613326575b8115613318575b811561330a575b81156132fc575b81156132ee575b505f61329e565b602760f81b1490505f6132e7565b605f60f81b811491506132e0565b601760f91b811491506132d9565b602d60f81b811491506132d2565b602160f81b811491506132cb565b9050606160f81b8110158061334a575b90613297565b50603d60f91b811115613344565b9050604160f81b8110158061336e575b90613290565b50602d60f91b811115613368565b603960f81b8111159150613289565b507f27fac8f362f0993df8069600bac492702d7c0d77d65545716bf8b7acd95f021461340a856133d0818660016133ca885f52602760205260405f2090565b01613f71565b6040518481527ff8e1a15aba9398e019f0b49df1a4fde98ee17ae345cb5f6b5e2c27f5033e8ce790602090a160405191829133968361407e565b0390a3005b634e9a61e560e11b5f5260045ffd5b6020915011155f61323e565b6310f88b9d60e21b5f5260045ffd5b346104cb575f3660031901126104cb576020600c54604051908152f35b346104cb5760403660031901126104cb576004356024356134768261542a565b815f526027602052600761ffff60405f2054161061353c5760ff60165460181c161561342a57601381101561352d576134d960ff82166134be845f52602760205260405f2090565b9062ff000060ff8354921660101b169062ff00001916179055565b6040518281527ff8e1a15aba9398e019f0b49df1a4fde98ee17ae345cb5f6b5e2c27f5033e8ce790602090a133917f717ea6d16cd5b1adadf0580bb4b4ebbe47b8329c34ae1d20b2a3505b0b45121b5f80a4005b63acce9f5760e01b5f5260045ffd5b6303d0ecdf60e11b5f5260045ffd5b90600182811c92168015613579575b602083101461356557565b634e487b7160e01b5f52602260045260245ffd5b91607f169161355a565b9060405191825f8254926135968461354b565b80845293600181169081156135ff57506001146135bb575b5061106992500383611039565b90505f9291925260205f20905f915b8183106135e3575050906020611069928201015f6135ae565b60209193508060019154838589010152019101909184926135ca565b90506020925061106994915060ff191682840152151560051b8201015f6135ae565b346104cb5760203660031901126104cb576004355f52602760205260ff60405f2061052481549161368b613663600261365c60018501613583565b9301613583565b91604051958561ffff889716875260101c1660208601526080604086015260808501906105e8565b9083820360608501526105e8565b346104cb575f3660031901126104cb576040515f600e546136b98161354b565b80845290600181169081156106d257506001146136e0576105248361066881850382611039565b600e5f9081527fbb7b4a454dc3493923482f07822329ed19e8244eff582cc204f8554c3620c3fd939250905b80821061372457509091508101602001610668610658565b91926001816020925483858801015201910190929161370c565b346104cb57602061375761375136611709565b9061473b565b6040519015158152f35b346104cb5760403660031901126104cb5760043561377e81610762565b6137866108f1565b9061378f61485e565b60138054610100600160a81b03191660089290921b610100600160a81b03169190911790555f5460015490035f19016137de575b6137c957005b6016805463ff00000019166301000000179055005b5f545f198101908111610b245760407f6bd5c950a8d8df17f772f5af37cb3655737899cbf903264b9795592da439661c91815190600182526020820152a16137c3565b346104cb5760203660031901126104cb5760043561383e81610762565b61384661485e565b6001600160a01b03168015613896576020817f11a3cf439fb225bfe74225716b6774765670ec1060e3796802e62139d69974da926001600160601b0360a01b600b541617600b55604051908152a1005b633a247dd760e11b5f5260045ffd5b346104cb575f3660031901126104cb5760206040517f00000000000000000000000000000000000000000000000000000000000000008152f35b346104cb576138ed366131c9565b6138f883929361542a565b60ff60165460181c161561342a5760a0811161394c5761340a7fe78644effc819f3563f83a630f6e92fefaf026611f984bf562bcf606de15395f91835f5260276020526133d08186600260405f2001613f71565b63a005982d60e01b5f5260045ffd5b346104cb575f3660031901126104cb57602060405160018152f35b65ffffffffffff8116036104cb57565b359061106982613976565b602435906001600160501b03821682036104cb576001600160501b036110699216815265ffffffffffff6044356139c781613976565b16602082015265ffffffffffff6064356139e081613976565b16604082015261ffff6139f36084611128565b16606082015261ffff613a0660a4611128565b16608082015260a0613a1860c4610900565b1515910152565b6040513d5f823e3d90fd5b9190613a35826148a3565b6001600160a01b0384811694908216859003613b94575f84815260066020526040902080549190338084149088141715613b7d575b613a9892613a798787856149be565b613b74575b506001600160a01b03165f90815260056020526040902090565b80545f190190556001600160a01b0382165f908152600560205260409020805460010190556001600160a01b0382164260a01b17600160e11b17613ae4845f52600460205260405f2090565b55600160e11b811615613b2f575b506001600160a01b03169182907fddf252ad1be2c89b69c2b068fc378daa952ba7f163c4a11628f55a4df523b3ef5f80a415613b2a57565b6147fc565b60018301613b45815f52600460205260405f2090565b5415613b52575b50613af2565b5f548114613b4c57613b6c905f52600460205260405f2090565b555f80613b4c565b5f90555f613a7e565b613b8a610c53338461473b565b15613a6a576147df565b6147ee565b634e487b7160e01b5f52601160045260245ffd5b908160011b9180830460021490151715610b2457565b908060209392818452848401375f828201840152601f01601f1916010190565b9035601e19823603018112156104cb5701602081359101916001600160401b0382116104cb5781360383136104cb57565b91906060810190833581526020840135601e19853603018112156104cb57840193602085359501946001600160401b0381116104cb578060051b9384360387136104cb576060602085015281905292820160809081019386915f9085015b828210613c9f575050505061061d939450806040613c91920190613be3565b916040818503910152613bc3565b90919295602080613cc5600193613cbf8b8e607f198d8503018952613be3565b90613bc3565b980192019201909291613c72565b60043561061d81610762565b3561061d81610762565b6024356001600160601b03811681036104cb5790565b600435613d0b81610762565b60018060a01b03166001600160601b0360a01b60105416176010556024356001600160601b03811681036104cb57601080546001600160a01b031660a09290921b6001600160a01b031916919091179055565b9060c080611069936001600160501b03815116845262ffffff602082015116602085015264ffffffffff604082015116604085015264ffffffffff606082015116606085015264ffffffffff6080820151166080850152613dca60a082015160a086019061ffff169052565b015161ffff16910152565b613ddd614837565b613de681614872565b6001600160a01b031691823b156104cb576040516309a7002f60e31b81526001600160a01b03909216600483015290915f9183916101049183918591613e30906024850190613d5e565b5af18015610a1f57613e3f5750565b5f61106991611039565b5f5b828110613e5757505050565b5f82820155600101613e4b565b601f8111613e70575050565b818111613e7b575050565b600d5f52611069917fd7b6990105719101dabeb77144f2a3385c8033acd3af97e9423a695e81ad1eb591601f820160051c91602011613ec5575b601f82910160051c039101613e49565b5f9150613eb5565b601f8111613ed9575050565b818111613ee4575050565b600e5f52611069917fbb7b4a454dc3493923482f07822329ed19e8244eff582cc204f8554c3620c3fd91601f820160051c91602011613ec557601f82910160051c039101613e49565b91601f8211613f3b57505050565b808211613f4757505050565b611069925f5260205f20916020601f830160051c9210613ec557601f82910160051c039101613e49565b9092916001600160401b03811161101957613f9681613f90845461354b565b84613f2d565b5f601f8211600114613fc8578190613fc49394955f926112f75750508160011b915f199060031b1c19161790565b9055565b601f19821694613fdb845f5260205f2090565b915f5b878110614015575083600195969710613ffc575b505050811b019055565b01355f19600384901b60f8161c191690555f8080613ff2565b90926020600181928686013581550194019101613fde565b5f19810191908211610b2457565b91908203918211610b2457565b6001600160a01b0316801561406f575f5260056020526001600160401b0360405f20541690565b6323d3ad8160e21b5f5260045ffd5b91602061061d938181520191613bc3565b359060ff821682036104cb57565b359063ffffffff821682036104cb57565b604435906001600160501b03821682036104cb576001600160501b036110699216815261ffff6140de6064611128565b16602082015265ffffffffffff6084356140f781613976565b16604082015261411961410a60a4613986565b65ffffffffffff166060830152565b61413061412660c461408f565b60ff166080830152565b61414a61413d60e461409d565b63ffffffff1660a0830152565b614163614158610104611128565b61ffff1660c0830152565b60e0613a18610124610900565b903590601e19813603018212156104cb57018035906001600160401b0382116104cb576020019181360383136104cb57565b3561061d81613976565b60c0613a1860a061106994969560e0850197600180841b031685526001600160501b036141d882611081565b16602086015265ffffffffffff60208201356141f381613976565b16604086015265ffffffffffff604082013561420e81613976565b16606086015261ffff61422360608301611128565b16608086015261ffff61423860808301611128565b168286015201610900565b6001600160a01b03909116815260406020820181905261061d93910191613bc3565b903590605e19813603018212156104cb570190565b6001600160a01b03909116815260406020820181905261061d92910190613c14565b903590601e19813603018212156104cb57018035906001600160401b0382116104cb57602001918160051b360383136104cb57565b634e487b7160e01b5f52603260045260245ffd5b91908110156115d35760051b0190565b903590601e19813603018212156104cb57018035906001600160401b0382116104cb57602001918160081b360383136104cb57565b91908110156115d35760081b0190565b6001600160a01b0391821681529116602082015261014081019291611069919061012090613a189060e0906001600160501b0361437682611081565b16604086015261ffff61438b60208301611128565b16606086015265ffffffffffff60408201356143a681613976565b1660808601526143ca6143bb60608301613986565b65ffffffffffff1660a0870152565b6143e36143d96080830161408f565b60ff1660c0870152565b6143fe6143f260a0830161409d565b63ffffffff1686840152565b61441961440d60c08301611128565b61ffff16610100870152565b01610900565b6040519061010082018281106001600160401b03821117611019576040525f60e0838281528260208201528260408201528260608201528260808201528260a08201528260c08201520152565b90939260e0610120916110699461014085019760018060a01b0316855260018060a01b031660208501526001600160501b03815116604085015261ffff602082015116606085015265ffffffffffff60408201511660808501526144df606082015160a086019065ffffffffffff169052565b608081015160ff1660c085015260a081015163ffffffff168483015260c081015161ffff1661010085015201511515910152565b903590601e19813603018212156104cb57018035906001600160401b0382116104cb576020019160e08202360383136104cb57565b91908110156115d35760e0020190565b6001600160a01b03918216815291166020820152610120810192916110699190610100906146179060c0906001600160501b0361459482611081565b16604086015262ffffff6145aa602083016110a7565b16606086015264ffffffffff6145c2604083016110f3565b16608086015264ffffffffff6145da606083016110f3565b1660a086015264ffffffffff6145f2608083016110f3565b168286015261461161460660a08301611128565b61ffff1660e0870152565b01611128565b61ffff16910152565b6040519061462d82610ffe565b5f60c0838281528260208201528260408201528260608201528260808201528260a08201520152565b6001600160a01b03918216815291166020820152610120810192916110699160400190613d5e565b92919061468c828286613a2a565b803b614699575b50505050565b6146a293614efc565b156146b0575f808080614693565b6368d2bf6b60e11b5f5260045ffd5b604051906146cc8261101e565b5f6060838281528260208201528260408201520152565b906146ec6146bf565b9160018110156146f95750565b5f5481106147045750565b9091505b805f52600460205260405f2054614721575f1901614708565b61061d90614f24565b9081518110156115d3570160200190565b6001600160a01b038216731e0049783f008a0085193e00003d00cd54003c711461478d576001600160a01b039081165f908152600760209081526040808320939094168252919091522060ff90541690565b5050600190565b905f9180600111156147a35750565b5f5481106147ae5750565b9091505b805f52600460205260405f2054806147d357508015610b24575f19016147b2565b600160e01b1615919050565b632ce44b5f60e11b5f5260045ffd5b62a1148160e81b5f5260045ffd5b633a954ecd60e21b5f5260045ffd5b636f96cda160e11b5f5260045ffd5b63b562e8dd60e01b5f5260045ffd5b622e076360e81b5f5260045ffd5b60018060a01b03600a54163314303314171561484f57565b635fc483c560e01b5f5260045ffd5b600a546001600160a01b0316330361484f57565b60018060a01b03165f526011602052600160ff60405f20541615150361489457565b6315e26ff360e01b5f5260045ffd5b8060011161480b576148bd815f52600460205260405f2090565b549081156148d45750600160e01b811661480b5790565b90505f5481101561480b575b5f19015f818152600460205260409020549081156149075750600160e01b811661480b5790565b90506148e0565b6001600160a01b038116151580806149b2575b61082757806149ab575b614933575050565b6009546001600160a01b0316918261494a57505050565b823b156104cb5760405163657711f560e11b81523360048201526001600160a01b039290921660248301525f6044830181905260648301919091529091829060849082905afa8015610a1f5761499d5750565b806122175f61106993611039565b505f61492b565b5060ff60135416614921565b90916001600160a01b03821615158080614a79575b6108275780614a67575b6149e657505050565b6009546001600160a01b0316806149fd5750505050565b803b156104cb5760405163657711f560e11b81523360048201526001600160a01b03938416602482015293909216604484015260648301525f90829060849082905afa8015610a1f57614a53575b808080614693565b806122175f614a6193611039565b5f614a4b565b506001600160a01b03831615156149dd565b5060ff601354166149d3565b5f545f1982820181019291018210610b2457600c54809211614aa5575050565b5f545f19918101820191018110610b245763384b48c560e21b5f5260045260245260445ffd5b60ff60165460101c1615614b2a575f195f5401905f5b818110614aed57505050565b80830190818411610b24576001820191828111610b2457600c5492818611610b2457614b1e614b249260019561403b565b9061565c565b01614ae1565b63636402df60e01b5f5260045ffd5b9160405190614b49602083611039565b5f825260ff60165416614c9957614b5f83614a85565b614b6883614acb565b5f54918315614c94576001600160a01b0385164260a01b6001861460e11b1717614b9a845f52600460205260405f2090565b556001600160a01b0385165f8181526005602052604090208054680100000000000000018702019055938415614c8f57808401939560015b15614c05575b5f87875f7fddf252ad1be2c89b69c2b068fc378daa952ba7f163c4a11628f55a4df523b3ef8180a4614bd2565b9560010195848703614bd8575f859055929550909350915f1901600c5414614c78575b803b614c3357505050565b9091925f549283039260015b15614c63575b5f614c58610c5387600188019787614e5d565b15614c3f575b6146b0565b808410614c455792509250505f54036104cb57565b614c8a600160ff196016541617601655565b614c28565b614829565b61481a565b6306ce844d60e01b5f5260045ffd5b6001600160401b038211611019576801000000000000000082116110195760125482601255808310614d0a575b5060125f5260205f205f5b838110614ced5750505050565b6001906020843594614cfe86610762565b01938184015501614ce0565b60125f52614d3d908390037fbb8a6a4669ba250d26cd7a459eca9d215f8307e33aebe50379bc5a3617ec34448401613e49565b5f614cd5565b60208082528101839052604001915f5b818110614d605750505090565b9091926020806001928635614d7481610762565b848060a01b031681520194019101919091614d53565b63fffffffe5f1982011015614ddb57602854614dce5760285f81905260e09190911b7be16da923a2d88192e5070f37b4571d58682c0d66212ec63400000000179055565b630c9f11f25f526004601cfd5b6383b539415f526004601cfd5b908160209103126104cb575161061d816104b9565b6001600160a01b03918216815291166020820152604081019190915260806060820181905261061d929101906105e8565b3d15614e58573d90614e3f82612f84565b91614e4d6040519384611039565b82523d5f602084013e565b606090565b91614e84926020925f604051809681958294630a85bd0160e11b8452843360048601614dfd565b03926001600160a01b03165af15f9181614ecb575b50614eb557614ea6614e2e565b805115614c5e57805190602001fd5b6001600160e01b031916630a85bd0160e11b1490565b614eee91925060203d602011614ef5575b614ee68183611039565b810190614de8565b905f614e99565b503d614edc565b906020925f614e84959360405196879586948593630a85bd0160e11b85523360048601614dfd565b614f2c6146bf565b505f52600460205260405f2054614f416146bf565b6001600160a01b038216815260a082901c6001600160401b03166020820152600160e01b82161515604082015260e89190911c606082015290565b81601f820112156104cb57805190614f9382612f84565b92614fa16040519485611039565b828452602083830101116104cb57815f9260208093018386015e8301015290565b9190916040818403126104cb5780516001600160401b0381116104cb5783614feb918301614f7c565b9260208201516001600160401b0381116104cb5761061d9201614f7c565b805191908290602001825e015f815290565b9061106961503d92604051938491602360f81b60208401526021830190615009565b03601f198101845283611039565b6110699061503d615069949360026040519687946020860190615009565b6101d160f51b81520190615009565b60108110156115d357601701905f90565b9060405191670189037b310189d160c51b6020840152825f8254926150ad8461354b565b936001811690811561511657506001146150d6575b50611069925003601f198101845283611039565b9150505f528260205f205f905b8382106150fb5750506028611069928201015f6150c2565b602091925080600191546028858901015201910184916150e3565b90506028925061106994915060ff191682840152801515028201015f6150c2565b60405190615146604083611039565b600f82526e556e72657665616c65642050756e6b60881b6020830152565b60405190615173604083611039565b60168252752bb0b4ba103337b9103a3432903932bb32b0b617171760511b6020830152565b6152386151d4959460246152016110699660026151f2819860116040519d8e9a683d913730b6b2911d1160b91b60208d015260298c0190615009565b701116113232b9b1b934b83a34b7b7111d1160791b81520190615009565b61088b60f21b81520190615009565b7f2c22696d616765223a22646174613a696d6167652f7376672b786d6c3b626173815263194d8d0b60e21b60208201520190615009565b61227d60f01b815203601d19810185520183611039565b9061106961503d926040519384917f646174613a6170706c69636174696f6e2f6a736f6e3b6261736536342c0000006020840152603d830190615009565b929390945f906152f1936152bb6152af60135460018060a01b039060081c1690565b6001600160a01b031690565b90604051809681948293637d13443360e01b84528c6004850160ff60409295949361ffff60608401971683521660208201520152565b03915afa908115610a1f5761061d956153519561534c955f955f95615400575b506016546153239060181c60ff161590565b156153565750505050615334615137565b91615346615340615164565b91615864565b92615198565b615864565b61524f565b929492615346929190600761ffff841610156153c75761537f8161538461537f61538a946157da565b61501b565b506157da565b815160208301206153a090916020815191012090565b036153bf57506153b26153b891615078565b50615089565b9391615864565b905093615340565b6153d691925061537f906157da565b8151602083012081516020830120036153f157505b93615340565b906153fb9161504b565b6153eb565b9094506154209195503d805f833e6154188183611039565b810190614fc2565b949094935f615311565b6001600160a01b039061543c906148a3565b16330361544557565b634143fbf960e01b5f5260045ffd5b60405190615463604083611039565b601c82527f4120526574726f50756e6b206c6976696e67206f6e2d636861696e2e000000006020830152565b91909182516001600160401b038111611019576154b081613f90845461354b565b6020601f82116001146154ea578190613fc49394955f926154df5750508160011b915f199060031b1c19161790565b015190505f80611288565b601f198216906154fd845f5260205f2090565b915f5b8181106155365750958360019596971061551e57505050811b019055565b01515f1960f88460031b161c191690555f8080613ff2565b9192602060018192868b015181550194019201615500565b81518154602084015162ff000060109190911b1661ffff90921662ffffff1990911617178155906001820160408201518051906001600160401b038211611019576155a38261559d855461354b565b85613f2d565b602090601f83116001146155e857926155dc836060946110699897946002975f926154df5750508160011b915f199060031b1c19161790565b90555b0151910161548f565b90601f198316916155fc855f5260205f2090565b925f5b81811061564457509361106997969360029693600193836060981061562c575b505050811b0190556155df565b01515f1960f88460031b161c191690555f808061561f565b929360206001819287860151815501950193016155ff565b90156157cb57602854601554604080516020810192835263ffffffff909316908301529061568d81606081016119a0565b51902090602854918263ffffffff168360e01c908082146157be57611069946157636157709361575e936157b9965f52806020528361fffe8280850360405f20060193116157128483839060018060c01b039060201c1682826004031c0154600f821c8316826004011b1c90600160105f19921b1b0116801515905f19018218021890565b9687946157568585859060018060c01b039060201c1682826004031c0154600f821c8316826004011b1c90600160105f19921b1b0116801515905f19018218021890565b90848461581f565b61581f565b60010160285561ffff1690565b9161577d61537f826157da565b61579261578861105a565b61ffff9095168552565b6001602085015260408401526157a6615454565b60608401525f52602760205260405f2090565b61554e565b6351065f795f526004601cfd5b630abc61e760e41b5f5260045ffd5b90604051600a608082019360a083016040525f8552935b5f19019360308282060185530492831561580d57600a906157f1565b809350608091030191601f1901918252565b92919060018060c01b039060201c1681846004031c0192600f811c8216816004011b91845493600181019114150283831c1890600160105f19921b1b0116901b189055565b90606091805180615873575050565b9092506003600282010460021b90604051937f4142434445464748494a4b4c4d4e4f505152535455565758595a616263646566601f526106707f6768696a6b6c6d6e6f707172737475767778797a303132333435363738392d5f18603f526020850191838601926004600360208601945b0191603f8351818160121c16515f538181600c1c1651600153818160061c165160025316516003535f518152019083821015615925576004906003906158e4565b50915060405f93016040526003613d3d60f01b910660020482035252825256fea2646970667358221220e0b8201c6011b353defcf712252963b97515b343d7842db7a3141e41bf570abd64736f6c63430008210033405787fa12a823e0f2b7631cc41b3ba8828b3321ca811111fa75cd3aa3bb5ace",
			"opcodes": "PUSH1 0xC0 PUSH1 0x40 MSTORE CALLVALUE PUSH2 0xFD JUMPI PUSH2 0x6498 DUP1 CODESIZE SUB DUP1 PUSH2 0x19 DUP2 PUSH2 0x115 JUMP JUMPDEST SWAP3 DUP4 CODECOPY DUP2 ADD PUSH1 0xA0 DUP3 DUP3 SUB SLT PUSH2 0xFD JUMPI DUP2 MLOAD SWAP2 PUSH2 0x34 DUP4 PUSH2 0x13A JUMP JUMPDEST PUSH1 0x20 DUP2 ADD MLOAD PUSH1 0x40 DUP3 ADD MLOAD PUSH1 0x60 DUP4 ADD MLOAD PUSH1 0x80 DUP5 ADD MLOAD SWAP1 SWAP4 SWAP2 SWAP3 SWAP2 PUSH1 0x1 PUSH1 0x1 PUSH1 0x40 SHL SUB DUP3 GT PUSH2 0xFD JUMPI ADD SWAP5 DUP5 PUSH1 0x1F DUP8 ADD SLT ISZERO PUSH2 0xFD JUMPI DUP6 MLOAD SWAP5 PUSH1 0x1 PUSH1 0x1 PUSH1 0x40 SHL SUB DUP7 GT PUSH2 0x101 JUMPI DUP6 PUSH1 0x5 SHL SWAP7 PUSH1 0x20 DUP1 PUSH2 0x8C DUP2 DUP12 ADD PUSH2 0x115 JUMP JUMPDEST DUP1 SWAP10 DUP2 MSTORE ADD SWAP9 DUP3 ADD ADD SWAP2 DUP3 GT PUSH2 0xFD JUMPI PUSH1 0x20 ADD SWAP7 JUMPDEST DUP2 DUP9 LT PUSH2 0xE3 JUMPI POP POP PUSH2 0xB4 SWAP6 POP PUSH2 0x69C JUMP JUMPDEST PUSH1 0x40 MLOAD PUSH2 0x597B SWAP1 DUP2 PUSH2 0xAFD DUP3 CODECOPY PUSH1 0x80 MLOAD DUP2 DUP2 DUP2 PUSH2 0x1EDA ADD MSTORE PUSH2 0x38BC ADD MSTORE PUSH1 0xA0 MLOAD DUP2 DUP2 DUP2 PUSH2 0x19B3 ADD MSTORE PUSH2 0x2D9F ADD MSTORE RETURN JUMPDEST PUSH1 0x20 DUP1 SWAP2 DUP10 MLOAD PUSH2 0xF2 DUP2 PUSH2 0x13A JUMP JUMPDEST DUP2 MSTORE ADD SWAP8 ADD SWAP7 PUSH2 0xA1 JUMP JUMPDEST PUSH0 DUP1 REVERT JUMPDEST PUSH4 0x4E487B71 PUSH1 0xE0 SHL PUSH0 MSTORE PUSH1 0x41 PUSH1 0x4 MSTORE PUSH1 0x24 PUSH0 REVERT JUMPDEST PUSH1 0x40 MLOAD SWAP2 SWAP1 PUSH1 0x1F ADD PUSH1 0x1F NOT AND DUP3 ADD PUSH1 0x1 PUSH1 0x1 PUSH1 0x40 SHL SUB DUP2 GT DUP4 DUP3 LT OR PUSH2 0x101 JUMPI PUSH1 0x40 MSTORE JUMP JUMPDEST PUSH1 0x1 PUSH1 0x1 PUSH1 0xA0 SHL SUB DUP2 AND SUB PUSH2 0xFD JUMPI JUMP JUMPDEST PUSH2 0x155 PUSH1 0x40 PUSH2 0x115 JUMP JUMPDEST SWAP1 PUSH1 0xA DUP3 MSTORE PUSH10 0x526574726F50756E6B73 PUSH1 0xB0 SHL PUSH1 0x20 DUP4 ADD MSTORE JUMP JUMPDEST PUSH2 0x179 PUSH1 0x40 PUSH2 0x115 JUMP JUMPDEST SWAP1 PUSH1 0x5 DUP3 MSTORE PUSH5 0x52504E4B53 PUSH1 0xD8 SHL PUSH1 0x20 DUP4 ADD MSTORE JUMP JUMPDEST PUSH2 0x198 PUSH1 0x40 PUSH2 0x115 JUMP JUMPDEST SWAP1 PUSH1 0xD DUP3 MSTORE PUSH13 0x5072656461746F7220426C7565 PUSH1 0x98 SHL PUSH1 0x20 DUP4 ADD MSTORE JUMP JUMPDEST PUSH2 0x1BF PUSH1 0x40 PUSH2 0x115 JUMP JUMPDEST SWAP1 PUSH1 0xE DUP3 MSTORE PUSH14 0x283932B230BA37B91023B932B2B7 PUSH1 0x91 SHL PUSH1 0x20 DUP4 ADD MSTORE JUMP JUMPDEST PUSH2 0x1E7 PUSH1 0x40 PUSH2 0x115 JUMP JUMPDEST SWAP1 PUSH1 0xC DUP3 MSTORE PUSH12 0x141C9959185D1BDC88149959 PUSH1 0xA2 SHL PUSH1 0x20 DUP4 ADD MSTORE JUMP JUMPDEST PUSH2 0x20D PUSH1 0x40 PUSH2 0x115 JUMP JUMPDEST SWAP1 PUSH1 0xB DUP3 MSTORE PUSH11 0x53616E746120436C617573 PUSH1 0xA8 SHL PUSH1 0x20 DUP4 ADD MSTORE JUMP JUMPDEST PUSH2 0x232 PUSH1 0x40 PUSH2 0x115 JUMP JUMPDEST SWAP1 PUSH1 0xC DUP3 MSTORE PUSH12 0x536861646F77204E696E6A61 PUSH1 0xA0 SHL PUSH1 0x20 DUP4 ADD MSTORE JUMP JUMPDEST PUSH2 0x258 PUSH1 0x40 PUSH2 0x115 JUMP JUMPDEST SWAP1 PUSH1 0x9 DUP3 MSTORE PUSH9 0x151A194811195D9A5B PUSH1 0xBA SHL PUSH1 0x20 DUP4 ADD MSTORE JUMP JUMPDEST PUSH2 0x27B PUSH1 0x40 PUSH2 0x115 JUMP JUMPDEST SWAP1 PUSH1 0xC DUP3 MSTORE PUSH12 0x151A1948141BDC9D1C985A5D PUSH1 0xA2 SHL PUSH1 0x20 DUP4 ADD MSTORE JUMP JUMPDEST PUSH2 0x2A1 PUSH1 0x40 PUSH2 0x115 JUMP JUMPDEST SWAP1 PUSH1 0xD DUP3 MSTORE PUSH13 0x416E6369656E74204D756D6D79 PUSH1 0x98 SHL PUSH1 0x20 DUP4 ADD MSTORE JUMP JUMPDEST PUSH2 0x2C8 PUSH1 0x40 PUSH2 0x115 JUMP JUMPDEST SWAP1 PUSH1 0x8 DUP3 MSTORE PUSH8 0x4379626572417065 PUSH1 0xC0 SHL PUSH1 0x20 DUP4 ADD MSTORE JUMP JUMPDEST PUSH2 0x2EA PUSH1 0x40 PUSH2 0x115 JUMP JUMPDEST SWAP1 PUSH1 0x10 DUP3 MSTORE PUSH16 0x20B731B4B2B73A1029B5B2B632BA37B7 PUSH1 0x81 SHL PUSH1 0x20 DUP4 ADD MSTORE JUMP JUMPDEST PUSH2 0x314 PUSH1 0x40 PUSH2 0x115 JUMP JUMPDEST SWAP1 PUSH1 0x3 DUP3 MSTORE PUSH3 0x506967 PUSH1 0xE8 SHL PUSH1 0x20 DUP4 ADD MSTORE JUMP JUMPDEST PUSH2 0x331 PUSH1 0x40 PUSH2 0x115 JUMP JUMPDEST SWAP1 PUSH1 0xA DUP3 MSTORE PUSH10 0x29B632B73232B936B0B7 PUSH1 0xB1 SHL PUSH1 0x20 DUP4 ADD MSTORE JUMP JUMPDEST PUSH2 0x355 PUSH1 0x40 PUSH2 0x115 JUMP JUMPDEST SWAP1 PUSH1 0x9 DUP3 MSTORE PUSH9 0x2A34329021B637BBB7 PUSH1 0xB9 SHL PUSH1 0x20 DUP4 ADD MSTORE JUMP JUMPDEST PUSH2 0x378 PUSH1 0x40 PUSH2 0x115 JUMP JUMPDEST SWAP1 PUSH1 0xA DUP3 MSTORE PUSH10 0x54686520506972617465 PUSH1 0xB0 SHL PUSH1 0x20 DUP4 ADD MSTORE JUMP JUMPDEST PUSH2 0x39C PUSH1 0x40 PUSH2 0x115 JUMP JUMPDEST SWAP1 PUSH1 0x9 DUP3 MSTORE PUSH9 0xA8D0CA40AED2E8C6D PUSH1 0xBB SHL PUSH1 0x20 DUP4 ADD MSTORE JUMP JUMPDEST PUSH2 0x3BF PUSH1 0x40 PUSH2 0x115 JUMP JUMPDEST SWAP1 PUSH1 0xA DUP3 MSTORE PUSH10 0x151A194815DA5E985C99 PUSH1 0xB2 SHL PUSH1 0x20 DUP4 ADD MSTORE JUMP JUMPDEST SWAP1 PUSH1 0x1 DUP3 DUP2 SHR SWAP3 AND DUP1 ISZERO PUSH2 0x407 JUMPI JUMPDEST PUSH1 0x20 DUP4 LT EQ PUSH2 0x3F3 JUMPI JUMP JUMPDEST PUSH4 0x4E487B71 PUSH1 0xE0 SHL PUSH0 MSTORE PUSH1 0x22 PUSH1 0x4 MSTORE PUSH1 0x24 PUSH0 REVERT JUMPDEST SWAP2 PUSH1 0x7F AND SWAP2 PUSH2 0x3E8 JUMP JUMPDEST PUSH0 JUMPDEST DUP3 DUP2 LT PUSH2 0x41F JUMPI POP POP POP JUMP JUMPDEST PUSH0 DUP3 DUP3 ADD SSTORE PUSH1 0x1 ADD PUSH2 0x413 JUMP JUMPDEST PUSH1 0x1F DUP2 GT PUSH2 0x438 JUMPI POP POP JUMP JUMPDEST DUP2 DUP2 GT PUSH2 0x443 JUMPI POP POP JUMP JUMPDEST PUSH1 0x2 PUSH0 MSTORE PUSH2 0x47A SWAP2 PUSH0 MLOAD PUSH1 0x20 PUSH2 0x6478 PUSH0 CODECOPY PUSH0 MLOAD SWAP1 PUSH0 MSTORE SWAP2 PUSH1 0x1F DUP3 ADD PUSH1 0x5 SHR SWAP2 PUSH1 0x20 GT PUSH2 0x47C JUMPI JUMPDEST PUSH1 0x1F DUP3 SWAP2 ADD PUSH1 0x5 SHR SUB SWAP2 ADD PUSH2 0x411 JUMP JUMPDEST JUMP JUMPDEST PUSH0 SWAP2 POP PUSH2 0x46A JUMP JUMPDEST SWAP2 PUSH1 0x1F DUP3 GT PUSH2 0x492 JUMPI POP POP POP JUMP JUMPDEST DUP1 DUP3 GT PUSH2 0x49E JUMPI POP POP POP JUMP JUMPDEST PUSH2 0x47A SWAP3 PUSH0 MSTORE PUSH1 0x20 PUSH0 KECCAK256 SWAP2 PUSH1 0x20 PUSH1 0x1F DUP4 ADD PUSH1 0x5 SHR SWAP3 LT PUSH2 0x47C JUMPI PUSH1 0x1F DUP3 SWAP2 ADD PUSH1 0x5 SHR SUB SWAP2 ADD PUSH2 0x411 JUMP JUMPDEST DUP1 MLOAD SWAP1 SWAP2 SWAP1 PUSH1 0x1 PUSH1 0x1 PUSH1 0x40 SHL SUB DUP2 GT PUSH2 0x101 JUMPI PUSH2 0x4F1 DUP2 PUSH2 0x4EA PUSH1 0x3 SLOAD PUSH2 0x3D9 JUMP JUMPDEST PUSH1 0x3 PUSH2 0x484 JUMP JUMPDEST PUSH1 0x20 SWAP3 PUSH1 0x1F DUP3 GT PUSH1 0x1 EQ PUSH2 0x531 JUMPI PUSH2 0x521 SWAP3 SWAP4 DUP3 SWAP2 PUSH0 SWAP3 PUSH2 0x526 JUMPI JUMPDEST POP POP DUP2 PUSH1 0x1 SHL SWAP2 PUSH0 NOT SWAP1 PUSH1 0x3 SHL SHR NOT AND OR SWAP1 JUMP JUMPDEST PUSH1 0x3 SSTORE JUMP JUMPDEST ADD MLOAD SWAP1 POP PUSH0 DUP1 PUSH2 0x50D JUMP JUMPDEST PUSH1 0x3 PUSH0 MSTORE PUSH1 0x1F NOT DUP3 AND SWAP4 PUSH32 0xC2575A0E9E593C00F959F8C92F12DB2869C3395A3B0502D05E2516446F71F85B SWAP2 PUSH0 JUMPDEST DUP7 DUP2 LT PUSH2 0x595 JUMPI POP DUP4 PUSH1 0x1 SWAP6 SWAP7 LT PUSH2 0x57D JUMPI JUMPDEST POP POP POP DUP2 SHL ADD PUSH1 0x3 SSTORE JUMP JUMPDEST ADD MLOAD PUSH0 NOT PUSH1 0xF8 DUP5 PUSH1 0x3 SHL AND SHR NOT AND SWAP1 SSTORE PUSH0 DUP1 DUP1 PUSH2 0x572 JUMP JUMPDEST SWAP2 SWAP3 PUSH1 0x20 PUSH1 0x1 DUP2 SWAP3 DUP7 DUP6 ADD MLOAD DUP2 SSTORE ADD SWAP5 ADD SWAP3 ADD PUSH2 0x55F JUMP JUMPDEST PUSH1 0x17 SWAP1 PUSH0 SWAP1 JUMPDEST PUSH1 0x10 DUP3 LT PUSH2 0x5C0 JUMPI POP POP POP JUMP JUMPDEST DUP1 MLOAD DUP1 MLOAD SWAP1 PUSH1 0x1 PUSH1 0x1 PUSH1 0x40 SHL SUB DUP3 GT PUSH2 0x101 JUMPI PUSH2 0x5E7 DUP3 PUSH2 0x5E1 DUP8 SLOAD PUSH2 0x3D9 JUMP JUMPDEST DUP8 PUSH2 0x484 JUMP JUMPDEST PUSH1 0x20 SWAP1 PUSH1 0x1F DUP4 GT PUSH1 0x1 EQ PUSH2 0x62C JUMPI SWAP3 PUSH2 0x61D DUP4 PUSH1 0x1 SWAP6 SWAP5 PUSH1 0x20 SWAP5 DUP8 SWAP7 PUSH0 SWAP3 PUSH2 0x526 JUMPI POP POP DUP2 PUSH1 0x1 SHL SWAP2 PUSH0 NOT SWAP1 PUSH1 0x3 SHL SHR NOT AND OR SWAP1 JUMP JUMPDEST DUP7 SSTORE JUMPDEST ADD SWAP4 ADD SWAP2 ADD SWAP1 SWAP2 PUSH2 0x5B3 JUMP JUMPDEST SWAP1 PUSH1 0x1F NOT DUP4 AND SWAP2 PUSH2 0x640 DUP8 PUSH0 MSTORE PUSH1 0x20 PUSH0 KECCAK256 SWAP1 JUMP JUMPDEST SWAP3 PUSH0 JUMPDEST DUP2 DUP2 LT PUSH2 0x684 JUMPI POP SWAP4 PUSH1 0x20 SWAP4 PUSH1 0x1 SWAP7 SWAP4 DUP8 SWAP7 SWAP4 DUP4 DUP9 SWAP6 LT PUSH2 0x66C JUMPI JUMPDEST POP POP POP DUP2 SHL ADD DUP7 SSTORE PUSH2 0x620 JUMP JUMPDEST ADD MLOAD PUSH0 NOT PUSH1 0xF8 DUP5 PUSH1 0x3 SHL AND SHR NOT AND SWAP1 SSTORE PUSH0 DUP1 DUP1 PUSH2 0x65F JUMP JUMPDEST SWAP3 SWAP4 PUSH1 0x20 PUSH1 0x1 DUP2 SWAP3 DUP8 DUP7 ADD MLOAD DUP2 SSTORE ADD SWAP6 ADD SWAP4 ADD PUSH2 0x643 JUMP JUMPDEST SWAP1 SWAP2 PUSH2 0x82A SWAP3 PUSH2 0x6BF PUSH2 0x47A SWAP7 PUSH2 0x6B1 PUSH2 0x14B JUMP JUMPDEST PUSH2 0x6B9 PUSH2 0x16F JUMP JUMPDEST SWAP1 PUSH2 0x82F JUMP JUMPDEST PUSH1 0x13 DUP1 SLOAD PUSH2 0xFFFF PUSH1 0xA8 SHL NOT AND PUSH1 0x19 PUSH1 0xA8 SHL OR SWAP1 SSTORE PUSH2 0x6E2 PUSH1 0xFF NOT PUSH1 0x16 SLOAD AND PUSH1 0x16 SSTORE JUMP JUMPDEST PUSH2 0x6F2 PUSH2 0xFF00 NOT PUSH1 0x16 SLOAD AND PUSH1 0x16 SSTORE JUMP JUMPDEST PUSH2 0x703 PUSH3 0xFF0000 NOT PUSH1 0x16 SLOAD AND PUSH1 0x16 SSTORE JUMP JUMPDEST PUSH2 0x715 PUSH4 0xFF000000 NOT PUSH1 0x16 SLOAD AND PUSH1 0x16 SSTORE JUMP JUMPDEST PUSH2 0x7FD PUSH2 0x723 PUSH2 0x200 PUSH2 0x115 JUMP JUMPDEST PUSH2 0x72B PUSH2 0x18E JUMP JUMPDEST DUP2 MSTORE PUSH2 0x735 PUSH2 0x1B5 JUMP JUMPDEST PUSH1 0x20 DUP3 ADD MSTORE PUSH2 0x742 PUSH2 0x1DD JUMP JUMPDEST PUSH1 0x40 DUP3 ADD MSTORE PUSH2 0x74F PUSH2 0x203 JUMP JUMPDEST PUSH1 0x60 DUP3 ADD MSTORE PUSH2 0x75C PUSH2 0x228 JUMP JUMPDEST PUSH1 0x80 DUP3 ADD MSTORE PUSH2 0x769 PUSH2 0x24E JUMP JUMPDEST PUSH1 0xA0 DUP3 ADD MSTORE PUSH2 0x776 PUSH2 0x271 JUMP JUMPDEST PUSH1 0xC0 DUP3 ADD MSTORE PUSH2 0x783 PUSH2 0x297 JUMP JUMPDEST PUSH1 0xE0 DUP3 ADD MSTORE PUSH2 0x790 PUSH2 0x2BE JUMP JUMPDEST PUSH2 0x100 DUP3 ADD MSTORE PUSH2 0x79E PUSH2 0x2E0 JUMP JUMPDEST PUSH2 0x120 DUP3 ADD MSTORE PUSH2 0x7AC PUSH2 0x30A JUMP JUMPDEST PUSH2 0x140 DUP3 ADD MSTORE PUSH2 0x7BA PUSH2 0x327 JUMP JUMPDEST PUSH2 0x160 DUP3 ADD MSTORE PUSH2 0x7C8 PUSH2 0x34B JUMP JUMPDEST PUSH2 0x180 DUP3 ADD MSTORE PUSH2 0x7D6 PUSH2 0x36E JUMP JUMPDEST PUSH2 0x1A0 DUP3 ADD MSTORE PUSH2 0x7E4 PUSH2 0x392 JUMP JUMPDEST PUSH2 0x1C0 DUP3 ADD MSTORE PUSH2 0x7F2 PUSH2 0x3B5 JUMP JUMPDEST PUSH2 0x1E0 DUP3 ADD MSTORE PUSH2 0x5AD JUMP JUMPDEST PUSH1 0x80 MSTORE PUSH1 0xA0 MSTORE PUSH1 0x13 DUP1 SLOAD PUSH2 0x100 PUSH1 0x1 PUSH1 0xA8 SHL SUB NOT AND PUSH1 0x8 SWAP3 SWAP1 SWAP3 SHL PUSH2 0x100 PUSH1 0x1 PUSH1 0xA8 SHL SUB AND SWAP2 SWAP1 SWAP2 OR SWAP1 SSTORE JUMP JUMPDEST PUSH1 0xC SSTORE JUMP JUMPDEST DUP1 MLOAD SWAP1 SWAP4 SWAP3 SWAP2 SWAP1 PUSH1 0x1 PUSH1 0x1 PUSH1 0x40 SHL SUB DUP2 GT PUSH2 0x101 JUMPI PUSH2 0x858 DUP2 PUSH2 0x853 PUSH1 0x2 SLOAD PUSH2 0x3D9 JUMP JUMPDEST PUSH2 0x42C JUMP JUMPDEST PUSH1 0x20 PUSH1 0x1F DUP3 GT PUSH1 0x1 EQ PUSH2 0x983 JUMPI SWAP1 DUP1 PUSH2 0x88B SWAP3 PUSH2 0x893 SWAP6 SWAP7 SWAP8 PUSH0 SWAP3 PUSH2 0x526 JUMPI POP POP DUP2 PUSH1 0x1 SHL SWAP2 PUSH0 NOT SWAP1 PUSH1 0x3 SHL SHR NOT AND OR SWAP1 JUMP JUMPDEST PUSH1 0x2 SSTORE PUSH2 0x4C8 JUMP JUMPDEST PUSH2 0x89C PUSH1 0x1 PUSH0 SSTORE JUMP JUMPDEST PUSH2 0x8A4 PUSH2 0xAA4 JUMP JUMPDEST DUP1 MLOAD PUSH0 JUMPDEST DUP2 DUP2 LT PUSH2 0x934 JUMPI POP POP PUSH2 0x8BA SWAP1 PUSH2 0xA1F JUMP JUMPDEST PUSH32 0x867006957979DAA4AA88EB4157C1262555F712BC61EC3D0046C5A49A2C190B45 PUSH1 0x40 MLOAD PUSH32 0xD7ACA75208B9BE5FFC04C6A01922020FFD62B55E68E502E317F5344960279AF8 PUSH0 DUP1 LOG1 PUSH2 0x914 PUSH1 0x1 PUSH1 0xFF NOT PUSH1 0x13 SLOAD AND OR PUSH1 0x13 SSTORE JUMP JUMPDEST DUP1 PUSH2 0x92F PUSH2 0x924 PUSH1 0x13 SLOAD PUSH1 0xFF AND SWAP1 JUMP JUMPDEST ISZERO ISZERO DUP3 MSTORE PUSH1 0x20 DUP3 ADD SWAP1 JUMP JUMPDEST SUB SWAP1 LOG1 JUMP JUMPDEST DUP1 PUSH2 0x97D PUSH2 0x970 PUSH2 0x957 PUSH2 0x94A PUSH1 0x1 SWAP6 DUP9 PUSH2 0x9F7 JUMP JUMPDEST MLOAD PUSH1 0x1 PUSH1 0x1 PUSH1 0xA0 SHL SUB AND SWAP1 JUMP JUMPDEST PUSH1 0x1 PUSH1 0x1 PUSH1 0xA0 SHL SUB AND PUSH0 SWAP1 DUP2 MSTORE PUSH1 0x11 PUSH1 0x20 MSTORE PUSH1 0x40 SWAP1 KECCAK256 SWAP1 JUMP JUMPDEST DUP1 SLOAD PUSH1 0xFF NOT AND PUSH1 0x1 OR SWAP1 SSTORE JUMP JUMPDEST ADD PUSH2 0x8A8 JUMP JUMPDEST PUSH1 0x2 PUSH0 MSTORE PUSH1 0x1F NOT DUP3 AND SWAP6 PUSH0 MLOAD PUSH1 0x20 PUSH2 0x6478 PUSH0 CODECOPY PUSH0 MLOAD SWAP1 PUSH0 MSTORE SWAP7 PUSH0 JUMPDEST DUP2 DUP2 LT PUSH2 0x9DF JUMPI POP SWAP2 PUSH2 0x893 SWAP6 SWAP7 SWAP8 SWAP2 DUP5 PUSH1 0x1 SWAP6 SWAP5 LT PUSH2 0x9C7 JUMPI JUMPDEST POP POP POP DUP2 SHL ADD PUSH1 0x2 SSTORE PUSH2 0x4C8 JUMP JUMPDEST ADD MLOAD PUSH0 NOT PUSH1 0xF8 DUP5 PUSH1 0x3 SHL AND SHR NOT AND SWAP1 SSTORE PUSH0 DUP1 DUP1 PUSH2 0x9B9 JUMP JUMPDEST DUP4 DUP4 ADD MLOAD DUP10 SSTORE PUSH1 0x1 SWAP1 SWAP9 ADD SWAP8 PUSH1 0x20 SWAP4 DUP5 ADD SWAP4 ADD PUSH2 0x99E JUMP JUMPDEST DUP1 MLOAD DUP3 LT ISZERO PUSH2 0xA0B JUMPI PUSH1 0x20 SWAP2 PUSH1 0x5 SHL ADD ADD SWAP1 JUMP JUMPDEST PUSH4 0x4E487B71 PUSH1 0xE0 SHL PUSH0 MSTORE PUSH1 0x32 PUSH1 0x4 MSTORE PUSH1 0x24 PUSH0 REVERT JUMPDEST DUP1 MLOAD SWAP1 PUSH1 0x1 PUSH1 0x1 PUSH1 0x40 SHL SUB DUP3 GT PUSH2 0x101 JUMPI PUSH9 0x10000000000000000 DUP3 GT PUSH2 0x101 JUMPI PUSH1 0x20 SWAP1 PUSH1 0x12 SLOAD DUP4 PUSH1 0x12 SSTORE DUP1 DUP5 LT PUSH2 0xA88 JUMPI JUMPDEST POP ADD PUSH1 0x12 PUSH0 MSTORE PUSH1 0x20 PUSH0 KECCAK256 PUSH0 JUMPDEST DUP4 DUP2 LT PUSH2 0xA6B JUMPI POP POP POP POP JUMP JUMPDEST DUP3 MLOAD PUSH1 0x1 PUSH1 0x1 PUSH1 0xA0 SHL SUB AND DUP3 DUP3 ADD SSTORE PUSH1 0x20 SWAP1 SWAP3 ADD SWAP2 PUSH1 0x1 ADD PUSH2 0xA5E JUMP JUMPDEST PUSH2 0xA9E SWAP1 PUSH1 0x12 PUSH0 MSTORE DUP5 DUP1 DUP6 PUSH0 KECCAK256 ADD SWAP2 SUB SWAP1 PUSH2 0x411 JUMP JUMPDEST PUSH0 PUSH2 0xA52 JUMP JUMPDEST ADDRESS EXTCODESIZE PUSH2 0xAEE JUMPI PUSH1 0xA DUP1 SLOAD CALLER PUSH1 0x1 PUSH1 0x1 PUSH1 0xA0 SHL SUB NOT DUP3 AND DUP2 OR SWAP1 SWAP3 SSTORE PUSH1 0x1 PUSH1 0x1 PUSH1 0xA0 SHL SUB AND PUSH32 0x8BE0079C531659141344CD1FD0A4F28419497F9722A3DAAFE3B4186F6B6457E0 PUSH0 DUP1 LOG3 JUMP JUMPDEST PUSH3 0xDC149F PUSH1 0xE4 SHL PUSH0 MSTORE PUSH1 0x4 PUSH0 REVERT INVALID PUSH1 0x80 PUSH1 0x40 MSTORE PUSH1 0x4 CALLDATASIZE LT ISZERO PUSH2 0x11 JUMPI PUSH0 DUP1 REVERT JUMPDEST PUSH0 CALLDATALOAD PUSH1 0xE0 SHR DUP1 PUSH4 0x1FFC9A7 EQ PUSH2 0x4B4 JUMPI DUP1 PUSH4 0x6FDDE03 EQ PUSH2 0x4AF JUMPI DUP1 PUSH4 0x7AAFA98 EQ PUSH2 0x4AA JUMPI DUP1 PUSH4 0x81812FC EQ PUSH2 0x4A5 JUMPI DUP1 PUSH4 0x95EA7B3 EQ PUSH2 0x4A0 JUMPI DUP1 PUSH4 0x98144D4 EQ PUSH2 0x49B JUMPI DUP1 PUSH4 0x99B6BFA EQ PUSH2 0x496 JUMPI DUP1 PUSH4 0xD705DF6 EQ PUSH2 0x491 JUMPI DUP1 PUSH4 0xD9D713B EQ PUSH2 0x48C JUMPI DUP1 PUSH4 0x18160DDD EQ PUSH2 0x487 JUMPI DUP1 PUSH4 0x1B73593C EQ PUSH2 0x482 JUMPI DUP1 PUSH4 0x1DBD7390 EQ PUSH2 0x47D JUMPI DUP1 PUSH4 0x23452B9C EQ PUSH2 0x478 JUMPI DUP1 PUSH4 0x23B872DD EQ PUSH2 0x473 JUMPI DUP1 PUSH4 0x2A55205A EQ PUSH2 0x46E JUMPI DUP1 PUSH4 0x3680620D EQ PUSH2 0x469 JUMPI DUP1 PUSH4 0x42260B5D EQ PUSH2 0x464 JUMPI DUP1 PUSH4 0x42842E0E EQ PUSH2 0x45F JUMPI DUP1 PUSH4 0x42966C68 EQ PUSH2 0x45A JUMPI DUP1 PUSH4 0x44DAE42C EQ PUSH2 0x455 JUMPI DUP1 PUSH4 0x4563F30A EQ PUSH2 0x450 JUMPI DUP1 PUSH4 0x484B973C EQ PUSH2 0x44B JUMPI DUP1 PUSH4 0x48A4C101 EQ PUSH2 0x446 JUMPI DUP1 PUSH4 0x511AA644 EQ PUSH2 0x441 JUMPI DUP1 PUSH4 0x55F804B3 EQ PUSH2 0x43C JUMPI DUP1 PUSH4 0x5743BDFF EQ PUSH2 0x437 JUMPI DUP1 PUSH4 0x5BBB2177 EQ PUSH2 0x432 JUMPI DUP1 PUSH4 0x60C308B6 EQ PUSH2 0x42D JUMPI DUP1 PUSH4 0x61E567C9 EQ PUSH2 0x428 JUMPI DUP1 PUSH4 0x6352211E EQ PUSH2 0x423 JUMPI DUP1 PUSH4 0x64869DAD EQ PUSH2 0x41E JUMPI DUP1 PUSH4 0x64F101F0 EQ PUSH2 0x419 JUMPI DUP1 PUSH4 0x66251B69 EQ PUSH2 0x414 JUMPI DUP1 PUSH4 0x6C0360EB EQ PUSH2 0x40F JUMPI DUP1 PUSH4 0x6F8B44B0 EQ PUSH2 0x40A JUMPI DUP1 PUSH4 0x70A08231 EQ PUSH2 0x405 JUMPI DUP1 PUSH4 0x715018A6 EQ PUSH2 0x400 JUMPI DUP1 PUSH4 0x73C5643A EQ PUSH2 0x3FB JUMPI DUP1 PUSH4 0x74E4F5AF EQ PUSH2 0x3F6 JUMPI DUP1 PUSH4 0x79BA5097 EQ PUSH2 0x3F1 JUMPI DUP1 PUSH4 0x7A05BC82 EQ PUSH2 0x3EC JUMPI DUP1 PUSH4 0x7BC2BE76 EQ PUSH2 0x3E7 JUMPI DUP1 PUSH4 0x840E15D4 EQ PUSH2 0x3E2 JUMPI DUP1 PUSH4 0x8462151C EQ PUSH2 0x3DD JUMPI DUP1 PUSH4 0x853B3B4C EQ PUSH2 0x3D8 JUMPI DUP1 PUSH4 0x8ADA6B0F EQ PUSH2 0x3D3 JUMPI DUP1 PUSH4 0x8DA5CB5B EQ PUSH2 0x3CE JUMPI DUP1 PUSH4 0x911F456B EQ PUSH2 0x3C9 JUMPI DUP1 PUSH4 0x938E3D7B EQ PUSH2 0x3C4 JUMPI DUP1 PUSH4 0x9559A5D9 EQ PUSH2 0x3BF JUMPI DUP1 PUSH4 0x95D89B41 EQ PUSH2 0x3BA JUMPI DUP1 PUSH4 0x99A2557A EQ PUSH2 0x3B5 JUMPI DUP1 PUSH4 0x99C5DEF3 EQ PUSH2 0x3B0 JUMPI DUP1 PUSH4 0x9B7406A5 EQ PUSH2 0x3AB JUMPI DUP1 PUSH4 0xA22CB465 EQ PUSH2 0x3A6 JUMPI DUP1 PUSH4 0xA4830114 EQ PUSH2 0x3A1 JUMPI DUP1 PUSH4 0xA9FC664E EQ PUSH2 0x39C JUMPI DUP1 PUSH4 0xAD2F852A EQ PUSH2 0x397 JUMPI DUP1 PUSH4 0xB88D4FDE EQ PUSH2 0x392 JUMPI DUP1 PUSH4 0xC23DC68F EQ PUSH2 0x38D JUMPI DUP1 PUSH4 0xC6AB67A3 EQ PUSH2 0x388 JUMPI DUP1 PUSH4 0xC87B56DD EQ PUSH2 0x383 JUMPI DUP1 PUSH4 0xCB743BA8 EQ PUSH2 0x37E JUMPI DUP1 PUSH4 0xCDB0E89E EQ PUSH2 0x379 JUMPI DUP1 PUSH4 0xD5ABEB01 EQ PUSH2 0x374 JUMPI DUP1 PUSH4 0xD74B6857 EQ PUSH2 0x36F JUMPI DUP1 PUSH4 0xDB846DBE EQ PUSH2 0x36A JUMPI DUP1 PUSH4 0xE8A3D485 EQ PUSH2 0x365 JUMPI DUP1 PUSH4 0xE985E9C5 EQ PUSH2 0x360 JUMPI DUP1 PUSH4 0xEA066C67 EQ PUSH2 0x35B JUMPI DUP1 PUSH4 0xF2FDE38B EQ PUSH2 0x356 JUMPI DUP1 PUSH4 0xF4CC7105 EQ PUSH2 0x351 JUMPI DUP1 PUSH4 0xF598F1DA EQ PUSH2 0x34C JUMPI PUSH4 0xFE97B576 EQ PUSH2 0x347 JUMPI PUSH0 DUP1 REVERT JUMPDEST PUSH2 0x395B JUMP JUMPDEST PUSH2 0x38DF JUMP JUMPDEST PUSH2 0x38A5 JUMP JUMPDEST PUSH2 0x3821 JUMP JUMPDEST PUSH2 0x3761 JUMP JUMPDEST PUSH2 0x373E JUMP JUMPDEST PUSH2 0x3699 JUMP JUMPDEST PUSH2 0x3621 JUMP JUMPDEST PUSH2 0x3456 JUMP JUMPDEST PUSH2 0x3439 JUMP JUMPDEST PUSH2 0x31F8 JUMP JUMPDEST PUSH2 0x3167 JUMP JUMPDEST PUSH2 0x30B7 JUMP JUMPDEST PUSH2 0x309A JUMP JUMPDEST PUSH2 0x3037 JUMP JUMPDEST PUSH2 0x2FD5 JUMP JUMPDEST PUSH2 0x2F5C JUMP JUMPDEST PUSH2 0x2EB7 JUMP JUMPDEST PUSH2 0x2E68 JUMP JUMPDEST PUSH2 0x2DC2 JUMP JUMPDEST PUSH2 0x2D88 JUMP JUMPDEST PUSH2 0x2D6B JUMP JUMPDEST PUSH2 0x2BE6 JUMP JUMPDEST PUSH2 0x2B41 JUMP JUMPDEST PUSH2 0x2B1C JUMP JUMPDEST PUSH2 0x29D8 JUMP JUMPDEST PUSH2 0x1FC4 JUMP JUMPDEST PUSH2 0x1F9C JUMP JUMPDEST PUSH2 0x1F70 JUMP JUMPDEST PUSH2 0x1E88 JUMP JUMPDEST PUSH2 0x1CEA JUMP JUMPDEST PUSH2 0x1C57 JUMP JUMPDEST PUSH2 0x1BC6 JUMP JUMPDEST PUSH2 0x1B43 JUMP JUMPDEST PUSH2 0x1A92 JUMP JUMPDEST PUSH2 0x1A6D JUMP JUMPDEST PUSH2 0x1953 JUMP JUMPDEST PUSH2 0x18F8 JUMP JUMPDEST PUSH2 0x18D1 JUMP JUMPDEST PUSH2 0x183E JUMP JUMPDEST PUSH2 0x1799 JUMP JUMPDEST PUSH2 0x172E JUMP JUMPDEST PUSH2 0x16E2 JUMP JUMPDEST PUSH2 0x1653 JUMP JUMPDEST PUSH2 0x1624 JUMP JUMPDEST PUSH2 0x15D8 JUMP JUMPDEST PUSH2 0x14C6 JUMP JUMPDEST PUSH2 0x13F7 JUMP JUMPDEST PUSH2 0x1381 JUMP JUMPDEST PUSH2 0x1237 JUMP JUMPDEST PUSH2 0x1137 JUMP JUMPDEST PUSH2 0xF74 JUMP JUMPDEST PUSH2 0xE72 JUMP JUMPDEST PUSH2 0xE50 JUMP JUMPDEST PUSH2 0xD6E JUMP JUMPDEST PUSH2 0xC0D JUMP JUMPDEST PUSH2 0xBE9 JUMP JUMPDEST PUSH2 0xBC9 JUMP JUMPDEST PUSH2 0xB29 JUMP JUMPDEST PUSH2 0xADA JUMP JUMPDEST PUSH2 0xAC8 JUMP JUMPDEST PUSH2 0xA46 JUMP JUMPDEST PUSH2 0xA24 JUMP JUMPDEST PUSH2 0x994 JUMP JUMPDEST PUSH2 0x96F JUMP JUMPDEST PUSH2 0x90D JUMP JUMPDEST PUSH2 0x8CB JUMP JUMPDEST PUSH2 0x85E JUMP JUMPDEST PUSH2 0x836 JUMP JUMPDEST PUSH2 0x773 JUMP JUMPDEST PUSH2 0x713 JUMP JUMPDEST PUSH2 0x6F6 JUMP JUMPDEST PUSH2 0x620 JUMP JUMPDEST PUSH2 0x4CF JUMP JUMPDEST PUSH1 0x1 PUSH1 0x1 PUSH1 0xE0 SHL SUB NOT DUP2 AND SUB PUSH2 0x4CB JUMPI JUMP JUMPDEST PUSH0 DUP1 REVERT JUMPDEST CALLVALUE PUSH2 0x4CB JUMPI PUSH1 0x20 CALLDATASIZE PUSH1 0x3 NOT ADD SLT PUSH2 0x4CB JUMPI PUSH2 0x524 PUSH1 0x4 CALLDATALOAD PUSH2 0x4EF DUP2 PUSH2 0x4B9 JUMP JUMPDEST PUSH4 0xFFFFFFFF PUSH1 0xE0 SHL AND PUSH4 0xC487F47 PUSH1 0xE1 SHL DUP2 EQ SWAP1 DUP2 ISZERO PUSH2 0x5CD JUMPI JUMPDEST DUP2 ISZERO PUSH2 0x528 JUMPI JUMPDEST POP PUSH1 0x40 MLOAD SWAP1 ISZERO ISZERO DUP2 MSTORE SWAP1 DUP2 SWAP1 PUSH1 0x20 DUP3 ADD SWAP1 JUMP JUMPDEST SUB SWAP1 RETURN JUMPDEST PUSH4 0x152A902D PUSH1 0xE1 SHL DUP2 EQ SWAP2 POP DUP2 ISZERO PUSH2 0x5BC JUMPI JUMPDEST DUP2 ISZERO PUSH2 0x5AB JUMPI JUMPDEST DUP2 ISZERO PUSH2 0x59A JUMPI JUMPDEST DUP2 ISZERO PUSH2 0x557 JUMPI JUMPDEST POP PUSH0 PUSH2 0x511 JUMP JUMPDEST PUSH4 0x1FFC9A7 PUSH1 0xE0 SHL DUP2 EQ SWAP2 POP DUP2 ISZERO PUSH2 0x589 JUMPI JUMPDEST DUP2 ISZERO PUSH2 0x578 JUMPI JUMPDEST POP PUSH0 PUSH2 0x550 JUMP JUMPDEST PUSH4 0x5B5E139F PUSH1 0xE0 SHL EQ SWAP1 POP PUSH0 PUSH2 0x571 JUMP JUMPDEST PUSH4 0x80AC58CD PUSH1 0xE0 SHL DUP2 EQ SWAP2 POP PUSH2 0x56A JUMP JUMPDEST PUSH4 0x24832483 PUSH1 0xE1 SHL DUP2 EQ SWAP2 POP PUSH2 0x549 JUMP JUMPDEST PUSH4 0x503E914D PUSH1 0xE1 SHL DUP2 EQ SWAP2 POP PUSH2 0x542 JUMP JUMPDEST PUSH4 0x2B435FDB PUSH1 0xE2 SHL DUP2 EQ SWAP2 POP PUSH2 0x53B JUMP JUMPDEST PUSH4 0x9C154415 PUSH1 0xE0 SHL DUP2 EQ SWAP2 POP PUSH2 0x50A JUMP JUMPDEST PUSH0 SWAP2 SUB SLT PUSH2 0x4CB JUMPI JUMP JUMPDEST DUP1 MLOAD DUP1 DUP4 MSTORE PUSH1 0x20 SWAP3 SWAP2 DUP2 SWAP1 DUP5 ADD DUP5 DUP5 ADD MCOPY PUSH0 DUP3 DUP3 ADD DUP5 ADD MSTORE PUSH1 0x1F ADD PUSH1 0x1F NOT AND ADD ADD SWAP1 JUMP JUMPDEST SWAP1 PUSH1 0x20 PUSH2 0x61D SWAP3 DUP2 DUP2 MSTORE ADD SWAP1 PUSH2 0x5E8 JUMP JUMPDEST SWAP1 JUMP JUMPDEST CALLVALUE PUSH2 0x4CB JUMPI PUSH0 CALLDATASIZE PUSH1 0x3 NOT ADD SLT PUSH2 0x4CB JUMPI PUSH1 0x40 MLOAD PUSH0 PUSH1 0x2 SLOAD PUSH2 0x640 DUP2 PUSH2 0x354B JUMP JUMPDEST DUP1 DUP5 MSTORE SWAP1 PUSH1 0x1 DUP2 AND SWAP1 DUP2 ISZERO PUSH2 0x6D2 JUMPI POP PUSH1 0x1 EQ PUSH2 0x674 JUMPI JUMPDEST PUSH2 0x524 DUP4 PUSH2 0x668 DUP2 DUP6 SUB DUP3 PUSH2 0x1039 JUMP JUMPDEST PUSH1 0x40 MLOAD SWAP2 DUP3 SWAP2 DUP3 PUSH2 0x60C JUMP JUMPDEST PUSH1 0x2 PUSH0 SWAP1 DUP2 MSTORE PUSH32 0x405787FA12A823E0F2B7631CC41B3BA8828B3321CA811111FA75CD3AA3BB5ACE SWAP4 SWAP3 POP SWAP1 JUMPDEST DUP1 DUP3 LT PUSH2 0x6B8 JUMPI POP SWAP1 SWAP2 POP DUP2 ADD PUSH1 0x20 ADD PUSH2 0x668 PUSH2 0x658 JUMP JUMPDEST SWAP2 SWAP3 PUSH1 0x1 DUP2 PUSH1 0x20 SWAP3 SLOAD DUP4 DUP6 DUP9 ADD ADD MSTORE ADD SWAP2 ADD SWAP1 SWAP3 SWAP2 PUSH2 0x6A0 JUMP JUMPDEST PUSH1 0xFF NOT AND PUSH1 0x20 DUP1 DUP7 ADD SWAP2 SWAP1 SWAP2 MSTORE SWAP2 ISZERO ISZERO PUSH1 0x5 SHL DUP5 ADD SWAP1 SWAP2 ADD SWAP2 POP PUSH2 0x668 SWAP1 POP PUSH2 0x658 JUMP JUMPDEST CALLVALUE PUSH2 0x4CB JUMPI PUSH0 CALLDATASIZE PUSH1 0x3 NOT ADD SLT PUSH2 0x4CB JUMPI PUSH1 0x20 PUSH1 0x14 SLOAD PUSH1 0x40 MLOAD SWAP1 DUP2 MSTORE RETURN JUMPDEST CALLVALUE PUSH2 0x4CB JUMPI PUSH1 0x20 CALLDATASIZE PUSH1 0x3 NOT ADD SLT PUSH2 0x4CB JUMPI PUSH1 0x4 CALLDATALOAD PUSH2 0x730 DUP2 PUSH2 0x4794 JUMP JUMPDEST ISZERO PUSH2 0x753 JUMPI PUSH0 MSTORE PUSH1 0x6 PUSH1 0x20 MSTORE PUSH1 0x20 PUSH1 0x1 DUP1 PUSH1 0xA0 SHL SUB PUSH1 0x40 PUSH0 KECCAK256 SLOAD AND PUSH1 0x40 MLOAD SWAP1 DUP2 MSTORE RETURN JUMPDEST PUSH4 0x33D1C039 PUSH1 0xE2 SHL PUSH0 MSTORE PUSH1 0x4 PUSH0 REVERT JUMPDEST PUSH1 0x1 PUSH1 0x1 PUSH1 0xA0 SHL SUB DUP2 AND SUB PUSH2 0x4CB JUMPI JUMP JUMPDEST PUSH1 0x40 CALLDATASIZE PUSH1 0x3 NOT ADD SLT PUSH2 0x4CB JUMPI PUSH1 0x4 CALLDATALOAD PUSH2 0x78B DUP2 PUSH2 0x762 JUMP JUMPDEST PUSH1 0x24 CALLDATALOAD SWAP1 PUSH1 0xFF PUSH1 0x13 SLOAD AND PUSH2 0x827 JUMPI PUSH1 0x1 PUSH1 0x1 PUSH1 0xA0 SHL SUB PUSH2 0x7AA DUP4 PUSH2 0x48A3 JUMP JUMPDEST AND SWAP1 DUP2 CALLER SUB PUSH2 0x80A JUMPI JUMPDEST PUSH0 DUP4 DUP2 MSTORE PUSH1 0x6 PUSH1 0x20 MSTORE PUSH1 0x40 SWAP1 KECCAK256 DUP1 SLOAD PUSH1 0x1 PUSH1 0x1 PUSH1 0xA0 SHL SUB NOT AND PUSH1 0x1 PUSH1 0x1 PUSH1 0xA0 SHL SUB DUP4 AND OR SWAP1 SSTORE PUSH1 0x1 PUSH1 0x1 PUSH1 0xA0 SHL SUB AND SWAP1 PUSH32 0x8C5BE1E5EBEC7D5BD14F71427D1E84F3DD0314C0F7B2291E5B200AC8C7C3B925 PUSH0 DUP1 LOG4 STOP JUMPDEST PUSH2 0x814 CALLER DUP4 PUSH2 0x473B JUMP JUMPDEST PUSH2 0x7B4 JUMPI PUSH4 0x67D9DCA1 PUSH1 0xE1 SHL PUSH0 MSTORE PUSH1 0x4 PUSH0 REVERT JUMPDEST PUSH4 0x6AB17E05 PUSH1 0xE0 SHL PUSH0 MSTORE PUSH1 0x4 PUSH0 REVERT JUMPDEST CALLVALUE PUSH2 0x4CB JUMPI PUSH0 CALLDATASIZE PUSH1 0x3 NOT ADD SLT PUSH2 0x4CB JUMPI PUSH1 0x9 SLOAD PUSH1 0x40 MLOAD PUSH1 0x1 PUSH1 0x1 PUSH1 0xA0 SHL SUB SWAP1 SWAP2 AND DUP2 MSTORE PUSH1 0x20 SWAP1 RETURN JUMPDEST CALLVALUE PUSH2 0x4CB JUMPI PUSH1 0x20 CALLDATASIZE PUSH1 0x3 NOT ADD SLT PUSH2 0x4CB JUMPI PUSH1 0x4 CALLDATALOAD PUSH2 0x87A PUSH2 0x4837 JUMP JUMPDEST PUSH0 SLOAD PUSH0 NOT ADD PUSH2 0x8BC JUMPI PUSH1 0x40 PUSH32 0x7C22004198BF87DA0F0DAB623C72E66CA1200F4454AA3B9CA30F436275428B7C SWAP2 PUSH1 0xF SLOAD SWAP1 DUP1 PUSH1 0xF SSTORE DUP3 MLOAD SWAP2 DUP3 MSTORE PUSH1 0x20 DUP3 ADD MSTORE LOG1 STOP JUMPDEST PUSH4 0xE03264AF PUSH1 0xE0 SHL PUSH0 MSTORE PUSH1 0x4 PUSH0 REVERT JUMPDEST CALLVALUE PUSH2 0x4CB JUMPI PUSH0 CALLDATASIZE PUSH1 0x3 NOT ADD SLT PUSH2 0x4CB JUMPI PUSH1 0x40 DUP1 MLOAD PUSH4 0x657711F5 PUSH1 0xE1 SHL DUP2 MSTORE PUSH0 PUSH1 0x20 DUP3 ADD MSTORE RETURN JUMPDEST PUSH1 0x24 CALLDATALOAD SWAP1 DUP2 ISZERO ISZERO DUP3 SUB PUSH2 0x4CB JUMPI JUMP JUMPDEST CALLDATALOAD SWAP1 DUP2 ISZERO ISZERO DUP3 SUB PUSH2 0x4CB JUMPI JUMP JUMPDEST CALLVALUE PUSH2 0x4CB JUMPI PUSH1 0x20 CALLDATASIZE PUSH1 0x3 NOT ADD SLT PUSH2 0x4CB JUMPI PUSH1 0x4 CALLDATALOAD DUP1 ISZERO ISZERO DUP1 SWAP2 SUB PUSH2 0x4CB JUMPI PUSH1 0x20 PUSH32 0x867006957979DAA4AA88EB4157C1262555F712BC61EC3D0046C5A49A2C190B45 SWAP2 PUSH2 0x957 PUSH2 0x485E JUMP JUMPDEST PUSH1 0xFF NOT PUSH1 0x13 SLOAD AND PUSH1 0xFF DUP3 AND OR PUSH1 0x13 SSTORE PUSH1 0x40 MLOAD SWAP1 DUP2 MSTORE LOG1 STOP JUMPDEST CALLVALUE PUSH2 0x4CB JUMPI PUSH0 CALLDATASIZE PUSH1 0x3 NOT ADD SLT PUSH2 0x4CB JUMPI PUSH0 SLOAD PUSH1 0x1 SLOAD PUSH1 0x20 SWAP2 SUB PUSH0 NOT ADD JUMPDEST PUSH1 0x40 MLOAD SWAP1 DUP2 MSTORE RETURN JUMPDEST CALLVALUE PUSH2 0x4CB JUMPI PUSH0 PUSH1 0xE0 CALLDATASIZE PUSH1 0x3 NOT ADD SLT PUSH2 0x4CB JUMPI PUSH1 0x4 CALLDATALOAD PUSH2 0x9B2 DUP2 PUSH2 0x762 JUMP JUMPDEST PUSH1 0xC0 CALLDATASIZE PUSH1 0x23 NOT ADD SLT PUSH2 0x4CB JUMPI PUSH2 0x9C6 PUSH2 0x4837 JUMP JUMPDEST PUSH2 0x9CF DUP2 PUSH2 0x4872 JUMP JUMPDEST PUSH1 0x1 PUSH1 0x1 PUSH1 0xA0 SHL SUB AND DUP1 EXTCODESIZE ISZERO PUSH2 0x4CB JUMPI PUSH0 DUP1 SWAP2 PUSH1 0xC4 PUSH1 0x40 MLOAD DUP1 SWAP5 DUP2 SWAP4 PUSH4 0x1308E65 PUSH1 0xE0 SHL DUP4 MSTORE PUSH2 0xA01 PUSH1 0x4 DUP5 ADD PUSH2 0x3991 JUMP JUMPDEST GAS CALL DUP1 ISZERO PUSH2 0xA1F JUMPI PUSH2 0xA11 JUMPI POP DUP1 RETURN JUMPDEST PUSH2 0xA1D SWAP2 POP PUSH0 SWAP1 PUSH2 0x1039 JUMP JUMPDEST STOP JUMPDEST PUSH2 0x3A1F JUMP JUMPDEST CALLVALUE PUSH2 0x4CB JUMPI PUSH0 CALLDATASIZE PUSH1 0x3 NOT ADD SLT PUSH2 0x4CB JUMPI PUSH1 0x20 PUSH1 0xFF PUSH1 0x16 SLOAD AND PUSH1 0x40 MLOAD SWAP1 ISZERO ISZERO DUP2 MSTORE RETURN JUMPDEST CALLVALUE PUSH2 0x4CB JUMPI PUSH0 CALLDATASIZE PUSH1 0x3 NOT ADD SLT PUSH2 0x4CB JUMPI PUSH2 0xA5E PUSH2 0x485E JUMP JUMPDEST PUSH1 0x1 PUSH1 0x1 PUSH1 0x60 SHL SUB PUSH1 0xA0 SHL PUSH1 0xB SLOAD AND PUSH1 0xB SSTORE PUSH32 0x11A3CF439FB225BFE74225716B6774765670EC1060E3796802E62139D69974DA PUSH1 0x20 PUSH1 0x40 MLOAD PUSH0 DUP2 MSTORE LOG1 STOP JUMPDEST PUSH1 0x60 SWAP1 PUSH1 0x3 NOT ADD SLT PUSH2 0x4CB JUMPI PUSH1 0x4 CALLDATALOAD PUSH2 0xAB4 DUP2 PUSH2 0x762 JUMP JUMPDEST SWAP1 PUSH1 0x24 CALLDATALOAD PUSH2 0xAC1 DUP2 PUSH2 0x762 JUMP JUMPDEST SWAP1 PUSH1 0x44 CALLDATALOAD SWAP1 JUMP JUMPDEST PUSH2 0xA1D PUSH2 0xAD4 CALLDATASIZE PUSH2 0xA9C JUMP JUMPDEST SWAP2 PUSH2 0x3A2A JUMP JUMPDEST CALLVALUE PUSH2 0x4CB JUMPI PUSH1 0x40 CALLDATASIZE PUSH1 0x3 NOT ADD SLT PUSH2 0x4CB JUMPI PUSH1 0x24 CALLDATALOAD PUSH1 0x10 SLOAD DUP1 PUSH1 0xA0 SHR SWAP2 DUP3 DUP2 MUL SWAP3 DUP2 DUP5 DIV EQ SWAP1 ISZERO OR ISZERO PUSH2 0xB24 JUMPI PUSH1 0x40 DUP1 MLOAD PUSH1 0x1 PUSH1 0x1 PUSH1 0xA0 SHL SUB SWAP1 SWAP3 AND DUP3 MSTORE PUSH2 0x2710 SWAP1 SWAP3 DIV PUSH1 0x20 DUP3 ADD MSTORE RETURN JUMPDEST PUSH2 0x3B99 JUMP JUMPDEST CALLVALUE PUSH2 0x4CB JUMPI PUSH0 PUSH1 0x40 CALLDATASIZE PUSH1 0x3 NOT ADD SLT PUSH2 0x4CB JUMPI PUSH1 0x4 CALLDATALOAD PUSH2 0xB47 DUP2 PUSH2 0x762 JUMP JUMPDEST PUSH1 0x24 CALLDATALOAD SWAP1 PUSH1 0x1 PUSH1 0x1 PUSH1 0x40 SHL SUB DUP3 GT PUSH2 0x4CB JUMPI PUSH1 0x60 PUSH1 0x3 NOT DUP4 CALLDATASIZE SUB ADD SLT PUSH2 0x4CB JUMPI PUSH2 0xB6F PUSH2 0x4837 JUMP JUMPDEST PUSH2 0xB78 DUP2 PUSH2 0x4872 JUMP JUMPDEST PUSH1 0x1 PUSH1 0x1 PUSH1 0xA0 SHL SUB AND DUP1 EXTCODESIZE ISZERO PUSH2 0x4CB JUMPI PUSH2 0xBB7 PUSH0 SWAP3 SWAP2 DUP4 SWAP3 PUSH1 0x40 MLOAD SWAP5 DUP6 DUP1 SWAP5 DUP2 SWAP4 PUSH4 0xEBB4A55F PUSH1 0xE0 SHL DUP4 MSTORE PUSH1 0x20 PUSH1 0x4 DUP5 ADD MSTORE PUSH1 0x24 DUP4 ADD SWAP1 PUSH1 0x4 ADD PUSH2 0x3C14 JUMP JUMPDEST SUB SWAP3 GAS CALL DUP1 ISZERO PUSH2 0xA1F JUMPI PUSH2 0xA11 JUMPI POP DUP1 RETURN JUMPDEST CALLVALUE PUSH2 0x4CB JUMPI PUSH0 CALLDATASIZE PUSH1 0x3 NOT ADD SLT PUSH2 0x4CB JUMPI PUSH1 0x20 PUSH1 0x10 SLOAD PUSH1 0xA0 SHR PUSH1 0x40 MLOAD SWAP1 DUP2 MSTORE RETURN JUMPDEST PUSH2 0xA1D PUSH2 0xBF5 CALLDATASIZE PUSH2 0xA9C JUMP JUMPDEST SWAP1 PUSH1 0x40 MLOAD SWAP3 PUSH2 0xC05 PUSH1 0x20 DUP6 PUSH2 0x1039 JUMP JUMPDEST PUSH0 DUP5 MSTORE PUSH2 0x467E JUMP JUMPDEST CALLVALUE PUSH2 0x4CB JUMPI PUSH1 0x20 CALLDATASIZE PUSH1 0x3 NOT ADD SLT PUSH2 0x4CB JUMPI PUSH1 0x4 CALLDATALOAD PUSH2 0xC2A DUP2 PUSH2 0x48A3 JUMP JUMPDEST PUSH0 DUP3 DUP2 MSTORE PUSH1 0x6 PUSH1 0x20 MSTORE PUSH1 0x40 SWAP1 KECCAK256 DUP1 SLOAD SWAP2 PUSH1 0x1 PUSH1 0x1 PUSH1 0xA0 SHL SUB DUP2 AND SWAP2 CALLER DUP1 DUP5 EQ SWAP1 DUP6 EQ OR ISZERO PUSH2 0xC57 JUMP JUMPDEST ISZERO SWAP1 JUMP JUMPDEST PUSH2 0xD57 JUMPI JUMPDEST PUSH0 SWAP4 PUSH2 0xC68 DUP7 DUP6 PUSH2 0x490E JUMP JUMPDEST PUSH2 0xD4E JUMPI JUMPDEST POP PUSH1 0x1 PUSH1 0x1 PUSH1 0xA0 SHL SUB DUP3 AND PUSH0 SWAP1 DUP2 MSTORE PUSH1 0x5 PUSH1 0x20 MSTORE PUSH1 0x40 SWAP1 KECCAK256 DUP1 SLOAD PUSH16 0xFFFFFFFFFFFFFFFFFFFFFFFFFFFFFFFF ADD SWAP1 SSTORE PUSH1 0x1 PUSH1 0x1 PUSH1 0xA0 SHL SUB DUP3 AND TIMESTAMP PUSH1 0xA0 SHL OR PUSH1 0x3 PUSH1 0xE0 SHL OR PUSH2 0xCC2 DUP6 PUSH0 MSTORE PUSH1 0x4 PUSH1 0x20 MSTORE PUSH1 0x40 PUSH0 KECCAK256 SWAP1 JUMP JUMPDEST SSTORE PUSH1 0x1 PUSH1 0xE1 SHL DUP2 AND ISZERO PUSH2 0xD09 JUMPI JUMPDEST POP PUSH32 0xDDF252AD1BE2C89B69C2B068FC378DAA952BA7F163C4A11628F55A4DF523B3EF DUP3 DUP1 LOG4 PUSH2 0xA1D PUSH2 0xD04 PUSH1 0x1 SLOAD PUSH1 0x1 ADD SWAP1 JUMP JUMPDEST PUSH1 0x1 SSTORE JUMP JUMPDEST PUSH1 0x1 DUP5 ADD PUSH2 0xD1F DUP2 PUSH0 MSTORE PUSH1 0x4 PUSH1 0x20 MSTORE PUSH1 0x40 PUSH0 KECCAK256 SWAP1 JUMP JUMPDEST SLOAD ISZERO PUSH2 0xD2C JUMPI JUMPDEST POP PUSH2 0xCD0 JUMP JUMPDEST DUP4 SLOAD DUP2 EQ PUSH2 0xD26 JUMPI PUSH2 0xD46 SWAP1 PUSH0 MSTORE PUSH1 0x4 PUSH1 0x20 MSTORE PUSH1 0x40 PUSH0 KECCAK256 SWAP1 JUMP JUMPDEST SSTORE PUSH0 DUP1 PUSH2 0xD26 JUMP JUMPDEST DUP4 SWAP1 SSTORE PUSH0 PUSH2 0xC6D JUMP JUMPDEST PUSH2 0xD64 PUSH2 0xC53 CALLER DUP6 PUSH2 0x473B JUMP JUMPDEST ISZERO PUSH2 0xC5C JUMPI PUSH2 0x47DF JUMP JUMPDEST CALLVALUE PUSH2 0x4CB JUMPI PUSH1 0x40 CALLDATASIZE PUSH1 0x3 NOT ADD SLT PUSH2 0x4CB JUMPI PUSH2 0xD87 PUSH2 0x4837 JUMP JUMPDEST PUSH1 0x4 CALLDATALOAD PUSH2 0xD93 DUP2 PUSH2 0x762 JUMP JUMPDEST PUSH1 0x1 PUSH1 0x1 PUSH1 0xA0 SHL SUB AND ISZERO PUSH2 0xE41 JUMPI PUSH2 0x2710 PUSH1 0x1 PUSH1 0x1 PUSH1 0x60 SHL SUB PUSH2 0xDB4 PUSH2 0x3CE9 JUMP JUMPDEST AND GT PUSH2 0xE1E JUMPI PUSH2 0xDC2 PUSH2 0x3CFF JUMP JUMPDEST PUSH32 0xF21FCCF4D64D86D532C4E4EB86C007B6AD57A460C27D724188625E755EC6CF6D PUSH2 0xDEB PUSH2 0x3CD3 JUMP JUMPDEST PUSH2 0xDF3 PUSH2 0x3CE9 JUMP JUMPDEST PUSH1 0x40 DUP1 MLOAD PUSH1 0x1 PUSH1 0x1 PUSH1 0xA0 SHL SUB SWAP1 SWAP4 AND DUP4 MSTORE PUSH1 0x1 PUSH1 0x1 PUSH1 0x60 SHL SUB SWAP1 SWAP2 AND PUSH1 0x20 DUP4 ADD MSTORE DUP2 SWAP1 DUP2 ADD JUMPDEST SUB SWAP1 LOG1 STOP JUMPDEST PUSH1 0x1 PUSH1 0x1 PUSH1 0x60 SHL SUB PUSH2 0xE2E PUSH2 0x3CE9 JUMP JUMPDEST PUSH4 0x3CADBAFB PUSH1 0xE0 SHL PUSH0 MSTORE AND PUSH1 0x4 MSTORE PUSH1 0x24 PUSH0 REVERT JUMPDEST PUSH4 0x1CC0BAEF PUSH1 0xE0 SHL PUSH0 MSTORE PUSH1 0x4 PUSH0 REVERT JUMPDEST CALLVALUE PUSH2 0x4CB JUMPI PUSH0 CALLDATASIZE PUSH1 0x3 NOT ADD SLT PUSH2 0x4CB JUMPI PUSH1 0x20 PUSH1 0xFF PUSH1 0x13 SLOAD AND PUSH1 0x40 MLOAD SWAP1 ISZERO ISZERO DUP2 MSTORE RETURN JUMPDEST CALLVALUE PUSH2 0x4CB JUMPI PUSH1 0x40 CALLDATASIZE PUSH1 0x3 NOT ADD SLT PUSH2 0x4CB JUMPI PUSH1 0x4 CALLDATALOAD PUSH2 0xE8F DUP2 PUSH2 0x762 JUMP JUMPDEST PUSH1 0x24 CALLDATALOAD PUSH2 0xE9A PUSH2 0x485E JUMP JUMPDEST ADDRESS PUSH9 0x929EEE149B4BD21268 SLOAD EQ PUSH2 0xF32 JUMPI ADDRESS PUSH9 0x929EEE149B4BD21268 SSTORE PUSH2 0xFFFF PUSH1 0x13 SLOAD PUSH1 0xA8 SHR AND DUP2 DUP2 LT PUSH2 0xF23 JUMPI PUSH2 0xFFFF DUP3 AND SWAP1 SUB SWAP2 PUSH2 0xFFFF DUP4 GT PUSH2 0xB24 JUMPI PUSH2 0xEFE PUSH2 0xF15 SWAP4 PUSH1 0x13 SLOAD SWAP1 PUSH2 0xFFFF PUSH1 0xA8 SHL SWAP1 PUSH1 0xA8 SHL AND SWAP1 PUSH2 0xFFFF PUSH1 0xA8 SHL NOT AND OR PUSH1 0x13 SSTORE JUMP JUMPDEST PUSH2 0xF07 DUP3 PUSH2 0x4A85 JUMP JUMPDEST PUSH2 0xF10 DUP3 PUSH2 0x4ACB JUMP JUMPDEST PUSH2 0x4B39 JUMP JUMPDEST CODESIZE PUSH9 0x929EEE149B4BD21268 SSTORE STOP JUMPDEST PUSH4 0x6514503 PUSH1 0xE5 SHL PUSH0 MSTORE PUSH1 0x4 PUSH0 REVERT JUMPDEST PUSH4 0xAB143C06 PUSH0 MSTORE PUSH1 0x4 PUSH1 0x1C REVERT JUMPDEST PUSH1 0x60 SWAP1 PUSH1 0x3 NOT ADD SLT PUSH2 0x4CB JUMPI PUSH1 0x4 CALLDATALOAD PUSH2 0xF57 DUP2 PUSH2 0x762 JUMP JUMPDEST SWAP1 PUSH1 0x24 CALLDATALOAD PUSH2 0xF64 DUP2 PUSH2 0x762 JUMP JUMPDEST SWAP1 PUSH1 0x44 CALLDATALOAD DUP1 ISZERO ISZERO DUP2 SUB PUSH2 0x4CB JUMPI SWAP1 JUMP JUMPDEST CALLVALUE PUSH2 0x4CB JUMPI PUSH2 0xF82 CALLDATASIZE PUSH2 0xF3F JUMP JUMPDEST SWAP1 SWAP2 PUSH2 0xF8C PUSH2 0x4837 JUMP JUMPDEST PUSH2 0xF95 DUP2 PUSH2 0x4872 JUMP JUMPDEST PUSH1 0x1 PUSH1 0x1 PUSH1 0xA0 SHL SUB AND SWAP2 DUP3 EXTCODESIZE ISZERO PUSH2 0x4CB JUMPI PUSH1 0x40 MLOAD PUSH4 0x8E7D1E43 PUSH1 0xE0 SHL DUP2 MSTORE PUSH1 0x1 PUSH1 0x1 PUSH1 0xA0 SHL SUB SWAP1 SWAP2 AND PUSH1 0x4 DUP3 ADD MSTORE SWAP1 ISZERO ISZERO PUSH1 0x24 DUP3 ADD MSTORE PUSH0 DUP2 PUSH1 0x44 DUP2 ADD JUMPDEST SWAP4 DUP2 DUP4 DUP2 DUP2 SWAP8 SUB SWAP3 GAS CALL DUP1 ISZERO PUSH2 0xA1F JUMPI PUSH2 0xA11 JUMPI POP DUP1 RETURN JUMPDEST PUSH4 0x4E487B71 PUSH1 0xE0 SHL PUSH0 MSTORE PUSH1 0x41 PUSH1 0x4 MSTORE PUSH1 0x24 PUSH0 REVERT JUMPDEST PUSH1 0xE0 DUP2 ADD SWAP1 DUP2 LT PUSH1 0x1 PUSH1 0x1 PUSH1 0x40 SHL SUB DUP3 GT OR PUSH2 0x1019 JUMPI PUSH1 0x40 MSTORE JUMP JUMPDEST PUSH2 0xFEA JUMP JUMPDEST PUSH1 0x80 DUP2 ADD SWAP1 DUP2 LT PUSH1 0x1 PUSH1 0x1 PUSH1 0x40 SHL SUB DUP3 GT OR PUSH2 0x1019 JUMPI PUSH1 0x40 MSTORE JUMP JUMPDEST SWAP1 PUSH1 0x1F DUP1 NOT SWAP2 ADD AND DUP2 ADD SWAP1 DUP2 LT PUSH1 0x1 PUSH1 0x1 PUSH1 0x40 SHL SUB DUP3 GT OR PUSH2 0x1019 JUMPI PUSH1 0x40 MSTORE JUMP JUMPDEST PUSH1 0x40 MLOAD SWAP1 PUSH2 0x1069 PUSH1 0x80 DUP4 PUSH2 0x1039 JUMP JUMPDEST JUMP JUMPDEST PUSH1 0x44 CALLDATALOAD SWAP1 PUSH1 0x1 PUSH1 0x1 PUSH1 0x50 SHL SUB DUP3 AND DUP3 SUB PUSH2 0x4CB JUMPI JUMP JUMPDEST CALLDATALOAD SWAP1 PUSH1 0x1 PUSH1 0x1 PUSH1 0x50 SHL SUB DUP3 AND DUP3 SUB PUSH2 0x4CB JUMPI JUMP JUMPDEST PUSH1 0x64 CALLDATALOAD SWAP1 PUSH3 0xFFFFFF DUP3 AND DUP3 SUB PUSH2 0x4CB JUMPI JUMP JUMPDEST CALLDATALOAD SWAP1 PUSH3 0xFFFFFF DUP3 AND DUP3 SUB PUSH2 0x4CB JUMPI JUMP JUMPDEST PUSH1 0x84 CALLDATALOAD SWAP1 PUSH5 0xFFFFFFFFFF DUP3 AND DUP3 SUB PUSH2 0x4CB JUMPI JUMP JUMPDEST PUSH1 0xA4 CALLDATALOAD SWAP1 PUSH5 0xFFFFFFFFFF DUP3 AND DUP3 SUB PUSH2 0x4CB JUMPI JUMP JUMPDEST PUSH1 0xC4 CALLDATALOAD SWAP1 PUSH5 0xFFFFFFFFFF DUP3 AND DUP3 SUB PUSH2 0x4CB JUMPI JUMP JUMPDEST CALLDATALOAD SWAP1 PUSH5 0xFFFFFFFFFF DUP3 AND DUP3 SUB PUSH2 0x4CB JUMPI JUMP JUMPDEST PUSH1 0xE4 CALLDATALOAD SWAP1 PUSH2 0xFFFF DUP3 AND DUP3 SUB PUSH2 0x4CB JUMPI JUMP JUMPDEST PUSH2 0x104 CALLDATALOAD SWAP1 PUSH2 0xFFFF DUP3 AND DUP3 SUB PUSH2 0x4CB JUMPI JUMP JUMPDEST CALLDATALOAD SWAP1 PUSH2 0xFFFF DUP3 AND DUP3 SUB PUSH2 0x4CB JUMPI JUMP JUMPDEST CALLVALUE PUSH2 0x4CB JUMPI PUSH2 0x120 CALLDATASIZE PUSH1 0x3 NOT ADD SLT PUSH2 0x4CB JUMPI PUSH1 0x4 CALLDATALOAD PUSH2 0x1155 DUP2 PUSH2 0x762 JUMP JUMPDEST PUSH1 0x24 CALLDATALOAD SWAP1 PUSH2 0x1162 DUP3 PUSH2 0x762 JUMP JUMPDEST PUSH1 0xE0 CALLDATASIZE PUSH1 0x43 NOT ADD SLT PUSH2 0x4CB JUMPI PUSH2 0xA1D SWAP2 PUSH1 0x40 MLOAD SWAP2 PUSH2 0x117F DUP4 PUSH2 0xFFE JUMP JUMPDEST PUSH2 0x1187 PUSH2 0x106B JUMP JUMPDEST DUP4 MSTORE PUSH2 0x1191 PUSH2 0x1095 JUMP JUMPDEST PUSH1 0x20 DUP5 ADD MSTORE PUSH2 0x119E PUSH2 0x10B7 JUMP JUMPDEST PUSH1 0x40 DUP5 ADD MSTORE PUSH2 0x11AB PUSH2 0x10CB JUMP JUMPDEST PUSH1 0x60 DUP5 ADD MSTORE PUSH2 0x11B8 PUSH2 0x10DF JUMP JUMPDEST PUSH1 0x80 DUP5 ADD MSTORE PUSH2 0x11C5 PUSH2 0x1105 JUMP JUMPDEST PUSH1 0xA0 DUP5 ADD MSTORE PUSH2 0x11D2 PUSH2 0x1116 JUMP JUMPDEST PUSH1 0xC0 DUP5 ADD MSTORE PUSH2 0x3DD5 JUMP JUMPDEST SWAP2 DUP2 PUSH1 0x1F DUP5 ADD SLT ISZERO PUSH2 0x4CB JUMPI DUP3 CALLDATALOAD SWAP2 PUSH1 0x1 PUSH1 0x1 PUSH1 0x40 SHL SUB DUP4 GT PUSH2 0x4CB JUMPI PUSH1 0x20 DUP4 DUP2 DUP7 ADD SWAP6 ADD ADD GT PUSH2 0x4CB JUMPI JUMP JUMPDEST PUSH1 0x20 PUSH1 0x3 NOT DUP3 ADD SLT PUSH2 0x4CB JUMPI PUSH1 0x4 CALLDATALOAD SWAP1 PUSH1 0x1 PUSH1 0x1 PUSH1 0x40 SHL SUB DUP3 GT PUSH2 0x4CB JUMPI PUSH2 0x1233 SWAP2 PUSH1 0x4 ADD PUSH2 0x11DC JUMP JUMPDEST SWAP1 SWAP2 JUMP JUMPDEST CALLVALUE PUSH2 0x4CB JUMPI PUSH2 0x1245 CALLDATASIZE PUSH2 0x1209 JUMP JUMPDEST PUSH2 0x124D PUSH2 0x4837 JUMP JUMPDEST PUSH1 0x1 PUSH1 0x1 PUSH1 0x40 SHL SUB DUP2 GT PUSH2 0x1019 JUMPI PUSH2 0x126F DUP2 PUSH2 0x126A PUSH1 0xD SLOAD PUSH2 0x354B JUMP JUMPDEST PUSH2 0x3E64 JUMP JUMPDEST PUSH0 PUSH1 0x1F DUP3 GT PUSH1 0x1 EQ PUSH2 0x1302 JUMPI DUP2 SWAP1 PUSH2 0x129C SWAP4 PUSH0 SWAP3 PUSH2 0x12F7 JUMPI JUMPDEST POP POP DUP2 PUSH1 0x1 SHL SWAP2 PUSH0 NOT SWAP1 PUSH1 0x3 SHL SHR NOT AND OR SWAP1 JUMP JUMPDEST PUSH1 0xD SSTORE JUMPDEST PUSH0 SLOAD PUSH1 0x1 SLOAD SWAP1 SUB PUSH0 NOT ADD JUMPDEST PUSH2 0x12B1 JUMPI STOP JUMPDEST PUSH32 0x6BD5C950A8D8DF17F772F5AF37CB3655737899CBF903264B9795592DA439661C PUSH2 0xE19 PUSH2 0x12DF PUSH0 SLOAD PUSH2 0x402D JUMP JUMPDEST PUSH1 0x40 MLOAD SWAP2 DUP3 SWAP2 DUP3 SWAP2 SWAP1 PUSH1 0x20 PUSH1 0x40 DUP5 ADD SWAP4 PUSH1 0x1 DUP2 MSTORE ADD MSTORE JUMP JUMPDEST ADD CALLDATALOAD SWAP1 POP PUSH0 DUP1 PUSH2 0x1288 JUMP JUMPDEST PUSH1 0xD PUSH0 MSTORE PUSH1 0x1F NOT DUP3 AND SWAP3 PUSH32 0xD7B6990105719101DABEB77144F2A3385C8033ACD3AF97E9423A695E81AD1EB5 SWAP2 PUSH0 JUMPDEST DUP6 DUP2 LT PUSH2 0x1369 JUMPI POP DUP4 PUSH1 0x1 SWAP6 LT PUSH2 0x1350 JUMPI JUMPDEST POP POP POP DUP2 SHL ADD PUSH1 0xD SSTORE PUSH2 0x12A0 JUMP JUMPDEST ADD CALLDATALOAD PUSH0 NOT PUSH1 0x3 DUP5 SWAP1 SHL PUSH1 0xF8 AND SHR NOT AND SWAP1 SSTORE PUSH0 DUP1 DUP1 PUSH2 0x1342 JUMP JUMPDEST SWAP1 SWAP3 PUSH1 0x20 PUSH1 0x1 DUP2 SWAP3 DUP7 DUP7 ADD CALLDATALOAD DUP2 SSTORE ADD SWAP5 ADD SWAP2 ADD PUSH2 0x1330 JUMP JUMPDEST CALLVALUE PUSH2 0x4CB JUMPI PUSH0 CALLDATASIZE PUSH1 0x3 NOT ADD SLT PUSH2 0x4CB JUMPI PUSH1 0x20 PUSH2 0xFFFF PUSH1 0x13 SLOAD PUSH1 0xA8 SHR AND PUSH1 0x40 MLOAD SWAP1 DUP2 MSTORE RETURN JUMPDEST SWAP1 PUSH1 0x20 PUSH1 0x3 NOT DUP4 ADD SLT PUSH2 0x4CB JUMPI PUSH1 0x4 CALLDATALOAD PUSH1 0x1 PUSH1 0x1 PUSH1 0x40 SHL SUB DUP2 GT PUSH2 0x4CB JUMPI PUSH1 0x4 ADD DUP3 PUSH1 0x1F DUP3 ADD SLT ISZERO PUSH2 0x4CB JUMPI DUP1 CALLDATALOAD SWAP3 PUSH1 0x1 PUSH1 0x1 PUSH1 0x40 SHL SUB DUP5 GT PUSH2 0x4CB JUMPI PUSH1 0x20 DUP1 DUP4 ADD SWAP3 DUP6 PUSH1 0x5 SHL ADD ADD GT PUSH2 0x4CB JUMPI SWAP2 SWAP1 JUMP JUMPDEST CALLVALUE PUSH2 0x4CB JUMPI PUSH2 0x1405 CALLDATASIZE PUSH2 0x13A5 JUMP JUMPDEST SWAP1 PUSH1 0x40 MLOAD SWAP2 DUP1 DUP4 MSTORE PUSH1 0x5 SHL PUSH1 0x20 DUP2 DUP5 ADD ADD PUSH1 0x40 MSTORE JUMPDEST DUP1 DUP2 DUP1 ISZERO PUSH2 0x1440 JUMPI PUSH1 0x1F NOT SWAP1 DUP2 ADD SWAP3 PUSH2 0x1437 SWAP2 SWAP1 DUP6 ADD ADD CALLDATALOAD PUSH2 0x46E3 JUMP JUMPDEST SWAP1 DUP5 ADD MSTORE PUSH2 0x141A JUMP JUMPDEST DUP5 PUSH1 0x40 MLOAD DUP1 SWAP2 PUSH1 0x20 DUP3 ADD PUSH1 0x20 DUP4 MSTORE DUP2 MLOAD DUP1 SWAP2 MSTORE PUSH1 0x20 PUSH1 0x40 DUP5 ADD SWAP3 ADD SWAP1 PUSH0 JUMPDEST DUP2 DUP2 LT PUSH2 0x146C JUMPI POP POP POP SUB SWAP1 RETURN JUMPDEST SWAP2 SWAP4 POP SWAP2 PUSH1 0x20 PUSH1 0x80 DUP3 PUSH2 0x14B8 PUSH1 0x1 SWAP5 DUP9 MLOAD PUSH3 0xFFFFFF PUSH1 0x60 DUP1 SWAP3 PUSH1 0x1 DUP1 PUSH1 0xA0 SHL SUB DUP2 MLOAD AND DUP6 MSTORE PUSH1 0x1 PUSH1 0x1 PUSH1 0x40 SHL SUB PUSH1 0x20 DUP3 ADD MLOAD AND PUSH1 0x20 DUP7 ADD MSTORE PUSH1 0x40 DUP2 ADD MLOAD ISZERO ISZERO PUSH1 0x40 DUP7 ADD MSTORE ADD MLOAD AND SWAP2 ADD MSTORE JUMP JUMPDEST ADD SWAP5 ADD SWAP2 ADD SWAP2 DUP5 SWAP4 SWAP3 PUSH2 0x145E JUMP JUMPDEST CALLVALUE PUSH2 0x4CB JUMPI PUSH2 0x14D4 CALLDATASIZE PUSH2 0x13A5 JUMP JUMPDEST PUSH2 0x14DC PUSH2 0x485E JUMP JUMPDEST PUSH1 0x12 SLOAD PUSH0 JUMPDEST DUP2 DUP2 LT PUSH2 0x1577 JUMPI POP POP PUSH0 JUMPDEST DUP2 DUP2 LT PUSH2 0x152F JUMPI POP DUP2 PUSH2 0x1520 DUP3 PUSH32 0xBBD3B69C138DE4D317D0BC4290282C4E1CBD1E58B579A5B4F114B598C237454D SWAP5 PUSH2 0x4CA8 JUMP JUMPDEST PUSH2 0xE19 PUSH1 0x40 MLOAD SWAP3 DUP4 SWAP3 DUP4 PUSH2 0x4D43 JUMP JUMPDEST DUP1 PUSH2 0x1571 PUSH2 0x1564 PUSH2 0x154B PUSH2 0x1546 PUSH1 0x1 SWAP6 DUP8 DUP10 PUSH2 0x42E5 JUMP JUMPDEST PUSH2 0x3CDF JUMP JUMPDEST PUSH1 0x1 PUSH1 0x1 PUSH1 0xA0 SHL SUB AND PUSH0 SWAP1 DUP2 MSTORE PUSH1 0x11 PUSH1 0x20 MSTORE PUSH1 0x40 SWAP1 KECCAK256 SWAP1 JUMP JUMPDEST DUP1 SLOAD PUSH1 0xFF NOT AND PUSH1 0x1 OR SWAP1 SSTORE JUMP JUMPDEST ADD PUSH2 0x14EC JUMP JUMPDEST PUSH1 0x12 SLOAD DUP2 LT ISZERO PUSH2 0x15D3 JUMPI PUSH1 0x12 PUSH0 MSTORE PUSH32 0xBB8A6A4669BA250D26CD7A459ECA9D215F8307E33AEBE50379BC5A3617EC3444 DUP2 ADD SLOAD PUSH1 0x1 SWAP2 SWAP1 PUSH2 0x15CD SWAP1 PUSH2 0x15C3 SWAP1 PUSH1 0x1 PUSH1 0x1 PUSH1 0xA0 SHL SUB AND PUSH2 0x154B JUMP JUMPDEST DUP1 SLOAD PUSH1 0xFF NOT AND SWAP1 SSTORE JUMP JUMPDEST ADD PUSH2 0x14E1 JUMP JUMPDEST PUSH2 0x42D1 JUMP JUMPDEST CALLVALUE PUSH2 0x4CB JUMPI PUSH1 0x20 CALLDATASIZE PUSH1 0x3 NOT ADD SLT PUSH2 0x4CB JUMPI PUSH1 0x4 CALLDATALOAD PUSH2 0xFFFF DUP2 AND DUP2 SUB PUSH2 0x4CB JUMPI PUSH2 0xA1D SWAP1 PUSH2 0x1603 PUSH2 0x485E JUMP JUMPDEST PUSH1 0x13 DUP1 SLOAD PUSH2 0xFFFF PUSH1 0xA8 SHL NOT AND PUSH1 0xA8 SWAP3 SWAP1 SWAP3 SHL PUSH2 0xFFFF PUSH1 0xA8 SHL AND SWAP2 SWAP1 SWAP2 OR SWAP1 SSTORE JUMP JUMPDEST CALLVALUE PUSH2 0x4CB JUMPI PUSH1 0x20 CALLDATASIZE PUSH1 0x3 NOT ADD SLT PUSH2 0x4CB JUMPI PUSH1 0x20 PUSH1 0x1 PUSH1 0x1 PUSH1 0xA0 SHL SUB PUSH2 0x164A PUSH1 0x4 CALLDATALOAD PUSH2 0x48A3 JUMP JUMPDEST AND PUSH1 0x40 MLOAD SWAP1 DUP2 MSTORE RETURN JUMPDEST CALLVALUE PUSH2 0x4CB JUMPI PUSH1 0x40 CALLDATASIZE PUSH1 0x3 NOT ADD SLT PUSH2 0x4CB JUMPI PUSH1 0x4 CALLDATALOAD PUSH2 0x1670 DUP2 PUSH2 0x762 JUMP JUMPDEST PUSH1 0x24 CALLDATALOAD ADDRESS PUSH9 0x929EEE149B4BD21268 SLOAD EQ PUSH2 0xF32 JUMPI ADDRESS PUSH9 0x929EEE149B4BD21268 SSTORE PUSH2 0x1699 CALLER PUSH2 0x4872 JUMP JUMPDEST PUSH0 SLOAD PUSH0 NOT ADD SWAP2 DUP2 DUP4 ADD DUP1 SWAP4 GT PUSH2 0xB24 JUMPI PUSH1 0xC SLOAD DUP1 SWAP4 GT PUSH2 0x16BD JUMPI PUSH2 0xF15 SWAP3 POP PUSH2 0x4B39 JUMP JUMPDEST POP PUSH0 SLOAD PUSH0 NOT ADD SWAP1 DUP2 ADD DUP1 SWAP2 GT PUSH2 0xB24 JUMPI PUSH4 0x384B48C5 PUSH1 0xE2 SHL PUSH0 MSTORE PUSH1 0x4 MSTORE PUSH1 0x24 MSTORE PUSH1 0x44 PUSH0 REVERT JUMPDEST CALLVALUE PUSH2 0x4CB JUMPI PUSH0 CALLDATASIZE PUSH1 0x3 NOT ADD SLT PUSH2 0x4CB JUMPI PUSH2 0x16FA PUSH2 0x485E JUMP JUMPDEST PUSH1 0x16 DUP1 SLOAD PUSH1 0xFF NOT AND PUSH1 0x1 OR SWAP1 SSTORE STOP JUMPDEST PUSH1 0x40 SWAP1 PUSH1 0x3 NOT ADD SLT PUSH2 0x4CB JUMPI PUSH1 0x4 CALLDATALOAD PUSH2 0x1721 DUP2 PUSH2 0x762 JUMP JUMPDEST SWAP1 PUSH1 0x24 CALLDATALOAD PUSH2 0x61D DUP2 PUSH2 0x762 JUMP JUMPDEST CALLVALUE PUSH2 0x4CB JUMPI PUSH2 0x173C CALLDATASIZE PUSH2 0x1709 JUMP JUMPDEST SWAP1 PUSH2 0x1745 PUSH2 0x4837 JUMP JUMPDEST PUSH2 0x174E DUP2 PUSH2 0x4872 JUMP JUMPDEST PUSH1 0x1 PUSH1 0x1 PUSH1 0xA0 SHL SUB AND DUP1 EXTCODESIZE ISZERO PUSH2 0x4CB JUMPI PUSH1 0x40 MLOAD PUSH4 0x24E71B7 PUSH1 0xE3 SHL DUP2 MSTORE PUSH1 0x1 PUSH1 0x1 PUSH1 0xA0 SHL SUB SWAP1 SWAP3 AND PUSH1 0x4 DUP4 ADD MSTORE PUSH0 SWAP2 SWAP1 DUP3 SWAP1 DUP3 SWAP1 PUSH1 0x24 SWAP1 DUP3 SWAP1 DUP5 SWAP1 GAS CALL DUP1 ISZERO PUSH2 0xA1F JUMPI PUSH2 0xA11 JUMPI POP DUP1 RETURN JUMPDEST CALLVALUE PUSH2 0x4CB JUMPI PUSH0 CALLDATASIZE PUSH1 0x3 NOT ADD SLT PUSH2 0x4CB JUMPI PUSH1 0x40 MLOAD PUSH0 PUSH1 0xD SLOAD PUSH2 0x17B9 DUP2 PUSH2 0x354B JUMP JUMPDEST DUP1 DUP5 MSTORE SWAP1 PUSH1 0x1 DUP2 AND SWAP1 DUP2 ISZERO PUSH2 0x6D2 JUMPI POP PUSH1 0x1 EQ PUSH2 0x17E0 JUMPI PUSH2 0x524 DUP4 PUSH2 0x668 DUP2 DUP6 SUB DUP3 PUSH2 0x1039 JUMP JUMPDEST PUSH1 0xD PUSH0 SWAP1 DUP2 MSTORE PUSH32 0xD7B6990105719101DABEB77144F2A3385C8033ACD3AF97E9423A695E81AD1EB5 SWAP4 SWAP3 POP SWAP1 JUMPDEST DUP1 DUP3 LT PUSH2 0x1824 JUMPI POP SWAP1 SWAP2 POP DUP2 ADD PUSH1 0x20 ADD PUSH2 0x668 PUSH2 0x658 JUMP JUMPDEST SWAP2 SWAP3 PUSH1 0x1 DUP2 PUSH1 0x20 SWAP3 SLOAD DUP4 DUP6 DUP9 ADD ADD MSTORE ADD SWAP2 ADD SWAP1 SWAP3 SWAP2 PUSH2 0x180C JUMP JUMPDEST CALLVALUE PUSH2 0x4CB JUMPI PUSH1 0x20 CALLDATASIZE PUSH1 0x3 NOT ADD SLT PUSH2 0x4CB JUMPI PUSH1 0x4 CALLDATALOAD PUSH2 0x185A PUSH2 0x4837 JUMP JUMPDEST PUSH1 0x1 PUSH1 0x1 PUSH1 0x40 SHL SUB DUP2 GT PUSH2 0x18BF JUMPI PUSH0 SLOAD PUSH0 NOT ADD DUP2 LT PUSH2 0x18A4 JUMPI PUSH1 0x20 DUP2 PUSH32 0x7810BD47DE260C3E9EE10061CF438099DD12256C79485F12F94DBCCC981E806C SWAP3 PUSH1 0xC SSTORE PUSH1 0x40 MLOAD SWAP1 DUP2 MSTORE LOG1 STOP JUMPDEST PUSH0 SLOAD PUSH0 NOT ADD SWAP1 PUSH4 0x8C19F1F9 PUSH1 0xE0 SHL PUSH0 MSTORE PUSH1 0x4 MSTORE PUSH1 0x24 MSTORE PUSH1 0x44 PUSH0 REVERT JUMPDEST PUSH4 0xB43E9137 PUSH1 0xE0 SHL PUSH0 MSTORE PUSH1 0x4 MSTORE PUSH1 0x24 PUSH0 REVERT JUMPDEST CALLVALUE PUSH2 0x4CB JUMPI PUSH1 0x20 CALLDATASIZE PUSH1 0x3 NOT ADD SLT PUSH2 0x4CB JUMPI PUSH1 0x20 PUSH2 0x98C PUSH1 0x4 CALLDATALOAD PUSH2 0x18F3 DUP2 PUSH2 0x762 JUMP JUMPDEST PUSH2 0x4048 JUMP JUMPDEST CALLVALUE PUSH2 0x4CB JUMPI PUSH0 CALLDATASIZE PUSH1 0x3 NOT ADD SLT PUSH2 0x4CB JUMPI PUSH2 0x1910 PUSH2 0x485E JUMP JUMPDEST PUSH1 0xA DUP1 SLOAD PUSH1 0x1 PUSH1 0x1 PUSH1 0xA0 SHL SUB NOT DUP2 AND SWAP1 SWAP2 SSTORE PUSH0 SWAP1 PUSH1 0x1 PUSH1 0x1 PUSH1 0xA0 SHL SUB AND PUSH32 0x8BE0079C531659141344CD1FD0A4F28419497F9722A3DAAFE3B4186F6B6457E0 DUP3 DUP1 LOG3 STOP JUMPDEST CALLVALUE PUSH2 0x4CB JUMPI PUSH1 0x40 CALLDATASIZE PUSH1 0x3 NOT ADD SLT PUSH2 0x4CB JUMPI PUSH1 0x4 CALLDATALOAD PUSH1 0x24 CALLDATALOAD PUSH2 0x1972 PUSH2 0x485E JUMP JUMPDEST PUSH1 0x16 SLOAD PUSH1 0x10 SHR PUSH1 0xFF AND PUSH2 0x1A5E JUMPI PUSH1 0x40 MLOAD PUSH2 0x19AE DUP2 PUSH2 0x19A0 PUSH1 0x20 DUP3 ADD SWAP5 DUP7 DUP7 SWAP1 SWAP2 PUSH1 0x40 SWAP3 DUP3 MSTORE PUSH1 0x20 DUP3 ADD MSTORE ADD SWAP1 JUMP JUMPDEST SUB PUSH1 0x1F NOT DUP2 ADD DUP4 MSTORE DUP3 PUSH2 0x1039 JUMP JUMPDEST MLOAD SWAP1 KECCAK256 PUSH32 0x0 SUB PUSH2 0x1A4F JUMPI PUSH2 0xE19 DUP2 PUSH2 0x1A05 PUSH32 0x6C2137E80722ED4B518B32EA50ECB69EF2C76F0451088A3C0AA79CE523BAB514 SWAP4 PUSH1 0x15 SSTORE JUMP JUMPDEST PUSH2 0x1A1B PUSH3 0x10000 PUSH1 0x16 SLOAD PUSH3 0xFF0000 NOT AND OR PUSH1 0x16 SSTORE JUMP JUMPDEST PUSH2 0x1A31 PUSH1 0xC SLOAD PUSH2 0x3E8 DUP2 GT PUSH0 EQ PUSH2 0x1A41 JUMPI PUSH2 0x4D8A JUMP JUMPDEST PUSH1 0x40 MLOAD SWAP1 DUP2 MSTORE SWAP1 DUP2 SWAP1 PUSH1 0x20 DUP3 ADD SWAP1 JUMP JUMPDEST PUSH2 0x1A4A SWAP1 PUSH2 0x3BAD JUMP JUMPDEST PUSH2 0x4D8A JUMP JUMPDEST PUSH4 0x3BDFC859 PUSH1 0xE1 SHL PUSH0 MSTORE PUSH1 0x4 PUSH0 REVERT JUMPDEST PUSH4 0x1104D353 PUSH1 0xE1 SHL PUSH0 MSTORE PUSH1 0x4 PUSH0 REVERT JUMPDEST CALLVALUE PUSH2 0x4CB JUMPI PUSH0 CALLDATASIZE PUSH1 0x3 NOT ADD SLT PUSH2 0x4CB JUMPI PUSH1 0x20 PUSH1 0xFF PUSH1 0x16 SLOAD PUSH1 0x10 SHR AND PUSH1 0x40 MLOAD SWAP1 ISZERO ISZERO DUP2 MSTORE RETURN JUMPDEST CALLVALUE PUSH2 0x4CB JUMPI PUSH0 CALLDATASIZE PUSH1 0x3 NOT ADD SLT PUSH2 0x4CB JUMPI PUSH1 0xB SLOAD PUSH1 0x1 PUSH1 0x1 PUSH1 0xA0 SHL SUB DUP2 AND SWAP1 CALLER DUP3 SWAP1 SUB PUSH2 0x1B34 JUMPI PUSH1 0x1 PUSH1 0x1 PUSH1 0x60 SHL SUB PUSH1 0xA0 SHL AND PUSH1 0xB SSTORE PUSH32 0x11A3CF439FB225BFE74225716B6774765670EC1060E3796802E62139D69974DA PUSH1 0x20 PUSH1 0x40 MLOAD PUSH0 DUP2 MSTORE LOG1 PUSH1 0xA DUP1 SLOAD PUSH1 0x1 PUSH1 0x1 PUSH1 0xA0 SHL SUB NOT DUP2 AND DUP4 OR SWAP1 SWAP2 SSTORE PUSH1 0x1 PUSH1 0x1 PUSH1 0xA0 SHL SUB AND PUSH32 0x8BE0079C531659141344CD1FD0A4F28419497F9722A3DAAFE3B4186F6B6457E0 PUSH0 DUP1 LOG3 STOP JUMPDEST PUSH4 0x6B7584E7 PUSH1 0xE1 SHL PUSH0 MSTORE PUSH1 0x4 PUSH0 REVERT JUMPDEST CALLVALUE PUSH2 0x4CB JUMPI PUSH0 PUSH1 0x40 CALLDATASIZE PUSH1 0x3 NOT ADD SLT PUSH2 0x4CB JUMPI PUSH1 0x4 CALLDATALOAD PUSH2 0x1B61 DUP2 PUSH2 0x762 JUMP JUMPDEST PUSH1 0x24 CALLDATALOAD PUSH1 0x1 PUSH1 0x1 PUSH1 0x40 SHL SUB DUP2 GT PUSH2 0x4CB JUMPI PUSH2 0x1B80 SWAP1 CALLDATASIZE SWAP1 PUSH1 0x4 ADD PUSH2 0x11DC JUMP JUMPDEST SWAP2 PUSH2 0x1B89 PUSH2 0x4837 JUMP JUMPDEST PUSH2 0x1B92 DUP2 PUSH2 0x4872 JUMP JUMPDEST PUSH1 0x1 PUSH1 0x1 PUSH1 0xA0 SHL SUB AND SWAP2 DUP3 EXTCODESIZE ISZERO PUSH2 0x4CB JUMPI PUSH2 0xBB7 SWAP3 PUSH0 SWAP3 DUP4 PUSH1 0x40 MLOAD DUP1 SWAP7 DUP2 SWAP6 DUP3 SWAP5 PUSH4 0xB957D0CB PUSH1 0xE0 SHL DUP5 MSTORE PUSH1 0x4 DUP5 ADD PUSH2 0x407E JUMP JUMPDEST CALLVALUE PUSH2 0x4CB JUMPI PUSH0 PUSH2 0x140 CALLDATASIZE PUSH1 0x3 NOT ADD SLT PUSH2 0x4CB JUMPI PUSH1 0x4 CALLDATALOAD PUSH2 0x1BE5 DUP2 PUSH2 0x762 JUMP JUMPDEST PUSH1 0x24 CALLDATALOAD SWAP1 PUSH2 0x1BF2 DUP3 PUSH2 0x762 JUMP JUMPDEST PUSH2 0x100 CALLDATASIZE PUSH1 0x43 NOT ADD SLT PUSH2 0x4CB JUMPI PUSH2 0x1C07 PUSH2 0x4837 JUMP JUMPDEST PUSH2 0x1C10 DUP2 PUSH2 0x4872 JUMP JUMPDEST PUSH1 0x1 PUSH1 0x1 PUSH1 0xA0 SHL SUB AND SWAP1 DUP2 EXTCODESIZE ISZERO PUSH2 0x4CB JUMPI PUSH1 0x40 MLOAD PUSH4 0x7ECD5915 PUSH1 0xE1 SHL DUP2 MSTORE PUSH1 0x1 PUSH1 0x1 PUSH1 0xA0 SHL SUB SWAP1 SWAP2 AND PUSH1 0x4 DUP3 ADD MSTORE SWAP1 PUSH0 SWAP1 DUP3 SWAP1 PUSH2 0x124 SWAP1 DUP3 SWAP1 DUP5 SWAP1 PUSH2 0xA01 PUSH1 0x24 DUP5 ADD PUSH2 0x40AE JUMP JUMPDEST CALLVALUE PUSH2 0x4CB JUMPI PUSH1 0x20 CALLDATASIZE PUSH1 0x3 NOT ADD SLT PUSH2 0x4CB JUMPI PUSH1 0x4 CALLDATALOAD PUSH2 0x1C74 DUP2 PUSH2 0x762 JUMP JUMPDEST PUSH1 0x1 DUP1 PUSH1 0xA0 SHL SUB AND PUSH0 MSTORE PUSH1 0x5 PUSH1 0x20 MSTORE PUSH1 0x60 PUSH1 0x1 PUSH1 0x1 PUSH1 0x40 SHL SUB PUSH1 0x40 PUSH0 KECCAK256 SLOAD PUSH1 0x40 SHR AND PUSH0 NOT PUSH0 SLOAD ADD PUSH1 0xC SLOAD SWAP1 PUSH1 0x40 MLOAD SWAP3 DUP4 MSTORE PUSH1 0x20 DUP4 ADD MSTORE PUSH1 0x40 DUP3 ADD MSTORE RETURN JUMPDEST PUSH1 0x20 PUSH1 0x40 DUP2 DUP4 ADD SWAP3 DUP3 DUP2 MSTORE DUP5 MLOAD DUP1 SWAP5 MSTORE ADD SWAP3 ADD SWAP1 PUSH0 JUMPDEST DUP2 DUP2 LT PUSH2 0x1CD4 JUMPI POP POP POP SWAP1 JUMP JUMPDEST DUP3 MLOAD DUP5 MSTORE PUSH1 0x20 SWAP4 DUP5 ADD SWAP4 SWAP1 SWAP3 ADD SWAP2 PUSH1 0x1 ADD PUSH2 0x1CC7 JUMP JUMPDEST CALLVALUE PUSH2 0x4CB JUMPI PUSH1 0x20 CALLDATASIZE PUSH1 0x3 NOT ADD SLT PUSH2 0x4CB JUMPI PUSH1 0x4 CALLDATALOAD PUSH2 0x1D07 DUP2 PUSH2 0x762 JUMP JUMPDEST PUSH0 SLOAD PUSH1 0x60 SWAP1 DUP1 PUSH1 0x1 SUB PUSH2 0x1D23 JUMPI JUMPDEST PUSH1 0x40 MLOAD DUP1 PUSH2 0x524 DUP5 DUP3 PUSH2 0x1CB1 JUMP JUMPDEST SWAP1 DUP2 SWAP3 PUSH1 0x1 SWAP1 PUSH1 0x60 SWAP4 DUP1 DUP4 LT ISZERO PUSH2 0x1E79 JUMPI PUSH0 SLOAD DUP1 SWAP2 LT ISZERO PUSH2 0x1E71 JUMPI JUMPDEST POP PUSH2 0x1D49 DUP2 PUSH2 0x4048 JUMP JUMPDEST SWAP3 DUP6 DUP4 LT ISZERO PUSH2 0x1E69 JUMPI JUMPDEST DUP4 PUSH2 0x1D68 JUMPI JUMPDEST POP POP POP POP PUSH2 0x524 SWAP2 POP PUSH0 PUSH2 0x1D15 JUMP JUMPDEST SWAP3 SWAP4 POP SWAP1 SWAP2 PUSH0 NOT DUP6 ADD DUP5 DUP2 GT ISZERO PUSH2 0x1E61 JUMPI JUMPDEST POP PUSH1 0x40 MLOAD SWAP2 DUP4 DUP6 ADD PUSH1 0x5 SHL DUP4 ADD SWAP5 DUP6 PUSH1 0x40 MSTORE PUSH2 0x1D95 DUP6 PUSH2 0x46E3 JUMP JUMPDEST SWAP1 PUSH0 SWAP2 PUSH2 0x1DA8 PUSH2 0xC53 PUSH1 0x40 DUP4 ADD MLOAD ISZERO ISZERO SWAP1 JUMP JUMPDEST PUSH2 0x1E4F JUMPI JUMPDEST POP PUSH0 SWAP8 SWAP2 SWAP6 SWAP2 DUP3 JUMPDEST ISZERO PUSH2 0x1E20 JUMPI JUMPDEST PUSH0 SWAP7 PUSH2 0x1DC6 DUP5 PUSH2 0x4F24 JUMP JUMPDEST PUSH1 0x40 DUP2 ADD MLOAD ISZERO PUSH2 0x1DE5 JUMPI POP POP PUSH1 0x1 PUSH0 SWAP4 JUMPDEST ADD SWAP7 DUP9 PUSH1 0x40 MSTORE SWAP7 SWAP3 SWAP7 PUSH2 0x1DB5 JUMP JUMPDEST SWAP4 SWAP1 SWAP4 MLOAD DUP1 PUSH2 0x1E18 JUMPI JUMPDEST POP DUP5 DUP5 XOR DUP7 SHL ISZERO PUSH2 0x1E03 JUMPI JUMPDEST PUSH1 0x1 SWAP1 PUSH2 0x1DD7 JUMP JUMPDEST PUSH1 0x1 SWAP1 SWAP10 ADD PUSH1 0x5 DUP2 SWAP1 SHL DUP8 ADD DUP11 SWAP1 MSTORE SWAP9 PUSH2 0x1DFB JUMP JUMPDEST SWAP4 POP PUSH0 PUSH2 0x1DEF JUMP JUMPDEST DUP1 DUP4 EQ DUP1 ISZERO PUSH2 0x1E46 JUMPI JUMPDEST ISZERO PUSH2 0x1DBB JUMPI POP POP POP POP POP SWAP2 POP POP PUSH2 0x524 SWAP2 DUP2 MSTORE PUSH0 DUP1 DUP1 DUP1 PUSH2 0x1D59 JUMP JUMPDEST POP DUP2 DUP10 EQ PUSH2 0x1E2A JUMP JUMPDEST MLOAD PUSH1 0x1 PUSH1 0x1 PUSH1 0xA0 SHL SUB AND SWAP2 POP PUSH0 PUSH2 0x1DAD JUMP JUMPDEST SWAP4 POP PUSH0 PUSH2 0x1D7A JUMP JUMPDEST PUSH0 SWAP4 POP PUSH2 0x1D53 JUMP JUMPDEST SWAP5 POP PUSH0 PUSH2 0x1D3F JUMP JUMPDEST PUSH4 0x1960CCAD PUSH1 0xE1 SHL PUSH0 MSTORE PUSH1 0x4 PUSH0 REVERT JUMPDEST CALLVALUE PUSH2 0x4CB JUMPI PUSH1 0x40 CALLDATASIZE PUSH1 0x3 NOT ADD SLT PUSH2 0x4CB JUMPI PUSH1 0x4 CALLDATALOAD PUSH1 0x24 CALLDATALOAD PUSH2 0x1EA7 PUSH2 0x485E JUMP JUMPDEST PUSH1 0x16 SLOAD PUSH1 0x8 SHR PUSH1 0xFF AND PUSH2 0x1F61 JUMPI PUSH1 0x40 MLOAD PUSH2 0x1ED5 DUP2 PUSH2 0x19A0 PUSH1 0x20 DUP3 ADD SWAP5 DUP7 DUP7 SWAP1 SWAP2 PUSH1 0x40 SWAP3 DUP3 MSTORE PUSH1 0x20 DUP3 ADD MSTORE ADD SWAP1 JUMP JUMPDEST MLOAD SWAP1 KECCAK256 PUSH32 0x0 SUB PUSH2 0x1F52 JUMPI PUSH2 0x1F40 DUP2 PUSH2 0x1F2C PUSH32 0x7BCCB191591B7E41B276DF97EBF2CBB27E85E20FA7DB7D336D3A9738021466F SWAP4 PUSH1 0x14 SSTORE JUMP JUMPDEST PUSH2 0x1A31 PUSH2 0x100 PUSH2 0xFF00 NOT PUSH1 0x16 SLOAD AND OR PUSH1 0x16 SSTORE JUMP JUMPDEST SUB SWAP1 LOG1 PUSH0 SLOAD PUSH1 0x1 SLOAD SWAP1 SUB PUSH0 NOT ADD PUSH2 0x12AB JUMP JUMPDEST PUSH4 0x148BB881 PUSH1 0xE3 SHL PUSH0 MSTORE PUSH1 0x4 PUSH0 REVERT JUMPDEST PUSH4 0x18ED71CD PUSH1 0xE0 SHL PUSH0 MSTORE PUSH1 0x4 PUSH0 REVERT JUMPDEST CALLVALUE PUSH2 0x4CB JUMPI PUSH0 CALLDATASIZE PUSH1 0x3 NOT ADD SLT PUSH2 0x4CB JUMPI PUSH1 0x13 SLOAD PUSH1 0x40 MLOAD PUSH1 0x8 SWAP2 SWAP1 SWAP2 SHR PUSH1 0x1 PUSH1 0x1 PUSH1 0xA0 SHL SUB AND DUP2 MSTORE PUSH1 0x20 SWAP1 RETURN JUMPDEST CALLVALUE PUSH2 0x4CB JUMPI PUSH0 CALLDATASIZE PUSH1 0x3 NOT ADD SLT PUSH2 0x4CB JUMPI PUSH1 0xA SLOAD PUSH1 0x40 MLOAD PUSH1 0x1 PUSH1 0x1 PUSH1 0xA0 SHL SUB SWAP1 SWAP2 AND DUP2 MSTORE PUSH1 0x20 SWAP1 RETURN JUMPDEST CALLVALUE PUSH2 0x4CB JUMPI PUSH1 0x20 CALLDATASIZE PUSH1 0x3 NOT ADD SLT PUSH2 0x4CB JUMPI PUSH1 0x4 CALLDATALOAD PUSH1 0x1 PUSH1 0x1 PUSH1 0x40 SHL SUB DUP2 GT PUSH2 0x4CB JUMPI DUP1 PUSH1 0x4 ADD SWAP1 PUSH2 0x300 PUSH1 0x3 NOT DUP3 CALLDATASIZE SUB ADD SLT PUSH2 0x4CB JUMPI PUSH2 0x2002 PUSH2 0x485E JUMP JUMPDEST DUP2 CALLDATALOAD DUP1 PUSH2 0x2994 JUMPI JUMPDEST POP PUSH1 0x24 DUP2 ADD PUSH2 0x2019 DUP2 DUP5 PUSH2 0x4170 JUMP JUMPDEST SWAP1 POP PUSH2 0x293B JUMPI JUMPDEST POP PUSH1 0x44 DUP2 ADD PUSH2 0x202F DUP2 DUP5 PUSH2 0x4170 JUMP JUMPDEST SWAP1 POP PUSH2 0x28E2 JUMPI JUMPDEST POP PUSH1 0x1 PUSH6 0xFFFFFFFFFFFF PUSH2 0x204C PUSH1 0xA4 DUP5 ADD PUSH2 0x41A2 JUMP JUMPDEST AND ISZERO ISZERO PUSH2 0x2069 PUSH2 0x205E PUSH1 0xC4 DUP6 ADD PUSH2 0x41A2 JUMP JUMPDEST PUSH6 0xFFFFFFFFFFFF AND SWAP1 JUMP JUMPDEST ISZERO ISZERO OR EQ PUSH2 0x2880 JUMPI JUMPDEST PUSH2 0x144 DUP2 ADD PUSH2 0x2081 DUP2 DUP5 PUSH2 0x4170 JUMP JUMPDEST SWAP1 POP PUSH2 0x281C JUMPI JUMPDEST POP PUSH2 0x164 DUP2 ADD PUSH2 0x2098 DUP2 DUP5 PUSH2 0x4265 JUMP JUMPDEST CALLDATALOAD PUSH2 0x27B7 JUMPI JUMPDEST POP PUSH2 0x184 DUP2 ADD PUSH1 0x1 PUSH1 0x1 PUSH1 0xA0 SHL SUB PUSH2 0x20B5 DUP3 PUSH2 0x3CDF JUMP JUMPDEST AND PUSH2 0x274E JUMPI JUMPDEST POP PUSH2 0x1A4 DUP2 ADD CALLDATALOAD DUP1 PUSH2 0x270A JUMPI JUMPDEST POP PUSH2 0x1C4 DUP2 ADD PUSH2 0x20D8 DUP2 DUP5 PUSH2 0x429C JUMP JUMPDEST SWAP1 POP PUSH2 0x2667 JUMPI JUMPDEST POP PUSH2 0x1E4 DUP2 ADD PUSH2 0x20EF DUP2 DUP5 PUSH2 0x429C JUMP JUMPDEST SWAP1 POP PUSH2 0x25C4 JUMPI JUMPDEST POP PUSH2 0x204 DUP2 ADD PUSH2 0x2106 DUP2 DUP5 PUSH2 0x429C JUMP JUMPDEST SWAP1 POP PUSH2 0x2521 JUMPI JUMPDEST POP PUSH2 0x224 DUP2 ADD PUSH2 0x211D DUP2 DUP5 PUSH2 0x429C JUMP JUMPDEST SWAP1 POP PUSH2 0x247E JUMPI JUMPDEST POP PUSH2 0x264 DUP2 ADD PUSH2 0x2134 DUP2 DUP5 PUSH2 0x42F5 JUMP JUMPDEST SWAP1 POP PUSH2 0x23A0 JUMPI JUMPDEST POP PUSH2 0x284 DUP2 ADD PUSH2 0x214B DUP2 DUP5 PUSH2 0x429C JUMP JUMPDEST SWAP1 POP PUSH2 0x2301 JUMPI JUMPDEST POP PUSH2 0x2C4 DUP2 ADD PUSH2 0x2162 DUP2 DUP5 PUSH2 0x4513 JUMP JUMPDEST SWAP1 POP PUSH2 0x2223 JUMPI JUMPDEST POP PUSH2 0x2E4 DUP2 ADD SWAP2 PUSH2 0x217A DUP4 DUP3 PUSH2 0x429C JUMP JUMPDEST SWAP1 POP PUSH2 0x2182 JUMPI STOP JUMPDEST PUSH1 0x64 PUSH0 SWAP4 SWAP3 ADD SWAP3 JUMPDEST PUSH2 0x2194 DUP4 DUP4 PUSH2 0x429C JUMP JUMPDEST SWAP1 POP DUP2 LT ISZERO PUSH2 0xA1D JUMPI PUSH2 0x21A5 PUSH2 0x4620 JUMP JUMPDEST SWAP1 PUSH2 0x21AF DUP6 PUSH2 0x3CDF JUMP JUMPDEST PUSH2 0x21C6 PUSH2 0x1546 DUP4 PUSH2 0x21C0 DUP9 DUP9 PUSH2 0x429C JUMP JUMPDEST SWAP1 PUSH2 0x42E5 JUMP JUMPDEST ADDRESS EXTCODESIZE ISZERO PUSH2 0x4CB JUMPI PUSH0 SWAP2 PUSH2 0x21ED PUSH1 0x40 MLOAD SWAP6 DUP7 SWAP4 DUP5 SWAP4 PUSH4 0x1446A991 PUSH1 0xE2 SHL DUP6 MSTORE PUSH1 0x4 DUP6 ADD PUSH2 0x4656 JUMP JUMPDEST SUB DUP2 DUP4 ADDRESS GAS CALL SWAP2 DUP3 ISZERO PUSH2 0xA1F JUMPI PUSH1 0x1 SWAP3 PUSH2 0x2209 JUMPI JUMPDEST POP ADD PUSH2 0x218A JUMP JUMPDEST DUP1 PUSH2 0x2217 PUSH0 PUSH2 0x221D SWAP4 PUSH2 0x1039 JUMP JUMPDEST DUP1 PUSH2 0x5DE JUMP JUMPDEST PUSH0 PUSH2 0x2202 JUMP JUMPDEST PUSH2 0x222D DUP2 DUP5 PUSH2 0x4513 JUMP JUMPDEST PUSH2 0x2A4 DUP5 ADD SWAP3 SWAP2 POP PUSH2 0x223F DUP4 DUP7 PUSH2 0x429C JUMP JUMPDEST SWAP2 SWAP1 POP SUB PUSH2 0x22F2 JUMPI PUSH1 0x64 DUP4 ADD PUSH0 JUMPDEST PUSH2 0x2257 DUP4 DUP8 PUSH2 0x4513 JUMP JUMPDEST SWAP1 POP DUP2 LT ISZERO PUSH2 0x22E8 JUMPI PUSH2 0x2269 DUP3 PUSH2 0x3CDF JUMP JUMPDEST SWAP1 PUSH2 0x227B PUSH2 0x1546 DUP3 PUSH2 0x21C0 DUP9 DUP12 PUSH2 0x429C JUMP JUMPDEST SWAP2 PUSH2 0x2290 DUP3 PUSH2 0x228A DUP8 DUP12 PUSH2 0x4513 JUMP JUMPDEST SWAP1 PUSH2 0x4548 JUMP JUMPDEST SWAP3 ADDRESS EXTCODESIZE ISZERO PUSH2 0x4CB JUMPI PUSH0 SWAP2 PUSH2 0x22B8 PUSH1 0x40 MLOAD SWAP6 DUP7 SWAP4 DUP5 SWAP4 PUSH4 0x1446A991 PUSH1 0xE2 SHL DUP6 MSTORE PUSH1 0x4 DUP6 ADD PUSH2 0x4558 JUMP JUMPDEST SUB DUP2 DUP4 ADDRESS GAS CALL SWAP2 DUP3 ISZERO PUSH2 0xA1F JUMPI PUSH1 0x1 SWAP3 PUSH2 0x22D4 JUMPI JUMPDEST POP ADD PUSH2 0x224D JUMP JUMPDEST DUP1 PUSH2 0x2217 PUSH0 PUSH2 0x22E2 SWAP4 PUSH2 0x1039 JUMP JUMPDEST PUSH0 PUSH2 0x22CD JUMP JUMPDEST POP POP POP POP PUSH0 PUSH2 0x2169 JUMP JUMPDEST PUSH4 0x74EF6DF7 PUSH1 0xE0 SHL PUSH0 MSTORE PUSH1 0x4 PUSH0 REVERT JUMPDEST PUSH1 0x64 DUP3 ADD SWAP3 SWAP1 PUSH0 JUMPDEST PUSH2 0x2313 DUP3 DUP5 PUSH2 0x429C JUMP JUMPDEST SWAP1 POP DUP2 LT ISZERO PUSH2 0x2396 JUMPI PUSH2 0x2324 PUSH2 0x441F JUMP JUMPDEST SWAP1 PUSH2 0x232E DUP7 PUSH2 0x3CDF JUMP JUMPDEST PUSH2 0x233F PUSH2 0x1546 DUP4 PUSH2 0x21C0 DUP8 DUP10 PUSH2 0x429C JUMP JUMPDEST ADDRESS EXTCODESIZE ISZERO PUSH2 0x4CB JUMPI PUSH0 SWAP2 PUSH2 0x2366 PUSH1 0x40 MLOAD SWAP6 DUP7 SWAP4 DUP5 SWAP4 PUSH4 0x3DE15F3B PUSH1 0xE1 SHL DUP6 MSTORE PUSH1 0x4 DUP6 ADD PUSH2 0x446C JUMP JUMPDEST SUB DUP2 DUP4 ADDRESS GAS CALL SWAP2 DUP3 ISZERO PUSH2 0xA1F JUMPI PUSH1 0x1 SWAP3 PUSH2 0x2382 JUMPI JUMPDEST POP ADD PUSH2 0x2309 JUMP JUMPDEST DUP1 PUSH2 0x2217 PUSH0 PUSH2 0x2390 SWAP4 PUSH2 0x1039 JUMP JUMPDEST PUSH0 PUSH2 0x237B JUMP JUMPDEST POP POP SWAP2 POP PUSH0 PUSH2 0x2152 JUMP JUMPDEST PUSH2 0x23AA DUP2 DUP5 PUSH2 0x42F5 JUMP JUMPDEST PUSH2 0x244 DUP5 ADD SWAP3 SWAP2 POP PUSH2 0x23BC DUP4 DUP7 PUSH2 0x429C JUMP JUMPDEST SWAP2 SWAP1 POP SUB PUSH2 0x246F JUMPI PUSH1 0x64 DUP4 ADD PUSH0 JUMPDEST PUSH2 0x23D4 DUP4 DUP8 PUSH2 0x42F5 JUMP JUMPDEST SWAP1 POP DUP2 LT ISZERO PUSH2 0x2465 JUMPI PUSH2 0x23E6 DUP3 PUSH2 0x3CDF JUMP JUMPDEST SWAP1 PUSH2 0x23F8 PUSH2 0x1546 DUP3 PUSH2 0x21C0 DUP9 DUP12 PUSH2 0x429C JUMP JUMPDEST SWAP2 PUSH2 0x240D DUP3 PUSH2 0x2407 DUP8 DUP12 PUSH2 0x42F5 JUMP JUMPDEST SWAP1 PUSH2 0x432A JUMP JUMPDEST SWAP3 ADDRESS EXTCODESIZE ISZERO PUSH2 0x4CB JUMPI PUSH0 SWAP2 PUSH2 0x2435 PUSH1 0x40 MLOAD SWAP6 DUP7 SWAP4 DUP5 SWAP4 PUSH4 0x3DE15F3B PUSH1 0xE1 SHL DUP6 MSTORE PUSH1 0x4 DUP6 ADD PUSH2 0x433A JUMP JUMPDEST SUB DUP2 DUP4 ADDRESS GAS CALL SWAP2 DUP3 ISZERO PUSH2 0xA1F JUMPI PUSH1 0x1 SWAP3 PUSH2 0x2451 JUMPI JUMPDEST POP ADD PUSH2 0x23CA JUMP JUMPDEST DUP1 PUSH2 0x2217 PUSH0 PUSH2 0x245F SWAP4 PUSH2 0x1039 JUMP JUMPDEST PUSH0 PUSH2 0x244A JUMP JUMPDEST POP POP POP POP PUSH0 PUSH2 0x213B JUMP JUMPDEST PUSH4 0xB81AA639 PUSH1 0xE0 SHL PUSH0 MSTORE PUSH1 0x4 PUSH0 REVERT JUMPDEST PUSH1 0x64 DUP3 ADD PUSH0 JUMPDEST PUSH2 0x248E DUP4 DUP7 PUSH2 0x429C JUMP JUMPDEST SWAP1 POP DUP2 LT ISZERO PUSH2 0x2518 JUMPI PUSH2 0x24A0 DUP3 PUSH2 0x3CDF JUMP JUMPDEST SWAP1 PUSH2 0x24B2 PUSH2 0x1546 DUP3 PUSH2 0x21C0 DUP8 DUP11 PUSH2 0x429C JUMP JUMPDEST SWAP2 ADDRESS EXTCODESIZE ISZERO PUSH2 0x4CB JUMPI PUSH1 0x40 MLOAD PUSH4 0x196E8775 PUSH1 0xE3 SHL DUP2 MSTORE PUSH1 0x1 PUSH1 0x1 PUSH1 0xA0 SHL SUB SWAP2 DUP3 AND PUSH1 0x4 DUP3 ADD MSTORE SWAP3 AND PUSH1 0x24 DUP4 ADD MSTORE PUSH0 PUSH1 0x44 DUP4 ADD DUP2 SWAP1 MSTORE DUP3 PUSH1 0x64 DUP2 DUP4 ADDRESS GAS CALL SWAP2 DUP3 ISZERO PUSH2 0xA1F JUMPI PUSH1 0x1 SWAP3 PUSH2 0x2504 JUMPI JUMPDEST POP ADD PUSH2 0x2484 JUMP JUMPDEST DUP1 PUSH2 0x2217 PUSH0 PUSH2 0x2512 SWAP4 PUSH2 0x1039 JUMP JUMPDEST PUSH0 PUSH2 0x24FD JUMP JUMPDEST POP POP POP PUSH0 PUSH2 0x2124 JUMP JUMPDEST PUSH1 0x64 DUP3 ADD PUSH0 JUMPDEST PUSH2 0x2531 DUP4 DUP7 PUSH2 0x429C JUMP JUMPDEST SWAP1 POP DUP2 LT ISZERO PUSH2 0x25BB JUMPI PUSH2 0x2543 DUP3 PUSH2 0x3CDF JUMP JUMPDEST SWAP1 PUSH2 0x2555 PUSH2 0x1546 DUP3 PUSH2 0x21C0 DUP8 DUP11 PUSH2 0x429C JUMP JUMPDEST SWAP2 ADDRESS EXTCODESIZE ISZERO PUSH2 0x4CB JUMPI PUSH1 0x40 MLOAD PUSH4 0x196E8775 PUSH1 0xE3 SHL DUP2 MSTORE PUSH1 0x1 PUSH1 0x1 PUSH1 0xA0 SHL SUB SWAP2 DUP3 AND PUSH1 0x4 DUP3 ADD MSTORE SWAP3 AND PUSH1 0x24 DUP4 ADD MSTORE PUSH1 0x1 PUSH1 0x44 DUP4 ADD MSTORE PUSH0 DUP3 PUSH1 0x64 DUP2 DUP4 ADDRESS GAS CALL SWAP2 DUP3 ISZERO PUSH2 0xA1F JUMPI PUSH1 0x1 SWAP3 PUSH2 0x25A7 JUMPI JUMPDEST POP ADD PUSH2 0x2527 JUMP JUMPDEST DUP1 PUSH2 0x2217 PUSH0 PUSH2 0x25B5 SWAP4 PUSH2 0x1039 JUMP JUMPDEST PUSH0 PUSH2 0x25A0 JUMP JUMPDEST POP POP POP PUSH0 PUSH2 0x210D JUMP JUMPDEST PUSH1 0x64 DUP3 ADD PUSH0 JUMPDEST PUSH2 0x25D4 DUP4 DUP7 PUSH2 0x429C JUMP JUMPDEST SWAP1 POP DUP2 LT ISZERO PUSH2 0x265E JUMPI PUSH2 0x25E6 DUP3 PUSH2 0x3CDF JUMP JUMPDEST SWAP1 PUSH2 0x25F8 PUSH2 0x1546 DUP3 PUSH2 0x21C0 DUP8 DUP11 PUSH2 0x429C JUMP JUMPDEST SWAP2 ADDRESS EXTCODESIZE ISZERO PUSH2 0x4CB JUMPI PUSH1 0x40 MLOAD PUSH4 0x48A4C101 PUSH1 0xE0 SHL DUP2 MSTORE PUSH1 0x1 PUSH1 0x1 PUSH1 0xA0 SHL SUB SWAP2 DUP3 AND PUSH1 0x4 DUP3 ADD MSTORE SWAP3 AND PUSH1 0x24 DUP4 ADD MSTORE PUSH0 PUSH1 0x44 DUP4 ADD DUP2 SWAP1 MSTORE DUP3 PUSH1 0x64 DUP2 DUP4 ADDRESS GAS CALL SWAP2 DUP3 ISZERO PUSH2 0xA1F JUMPI PUSH1 0x1 SWAP3 PUSH2 0x264A JUMPI JUMPDEST POP ADD PUSH2 0x25CA JUMP JUMPDEST DUP1 PUSH2 0x2217 PUSH0 PUSH2 0x2658 SWAP4 PUSH2 0x1039 JUMP JUMPDEST PUSH0 PUSH2 0x2643 JUMP JUMPDEST POP POP POP PUSH0 PUSH2 0x20F6 JUMP JUMPDEST PUSH1 0x64 DUP3 ADD PUSH0 JUMPDEST PUSH2 0x2677 DUP4 DUP7 PUSH2 0x429C JUMP JUMPDEST SWAP1 POP DUP2 LT ISZERO PUSH2 0x2701 JUMPI PUSH2 0x2689 DUP3 PUSH2 0x3CDF JUMP JUMPDEST SWAP1 PUSH2 0x269B PUSH2 0x1546 DUP3 PUSH2 0x21C0 DUP8 DUP11 PUSH2 0x429C JUMP JUMPDEST SWAP2 ADDRESS EXTCODESIZE ISZERO PUSH2 0x4CB JUMPI PUSH1 0x40 MLOAD PUSH4 0x48A4C101 PUSH1 0xE0 SHL DUP2 MSTORE PUSH1 0x1 PUSH1 0x1 PUSH1 0xA0 SHL SUB SWAP2 DUP3 AND PUSH1 0x4 DUP3 ADD MSTORE SWAP3 AND PUSH1 0x24 DUP4 ADD MSTORE PUSH1 0x1 PUSH1 0x44 DUP4 ADD MSTORE PUSH0 DUP3 PUSH1 0x64 DUP2 DUP4 ADDRESS GAS CALL SWAP2 DUP3 ISZERO PUSH2 0xA1F JUMPI PUSH1 0x1 SWAP3 PUSH2 0x26ED JUMPI JUMPDEST POP ADD PUSH2 0x266D JUMP JUMPDEST DUP1 PUSH2 0x2217 PUSH0 PUSH2 0x26FB SWAP4 PUSH2 0x1039 JUMP JUMPDEST PUSH0 PUSH2 0x26E6 JUMP JUMPDEST POP POP POP PUSH0 PUSH2 0x20DF JUMP JUMPDEST ADDRESS EXTCODESIZE ISZERO PUSH2 0x4CB JUMPI PUSH1 0x40 MLOAD PUSH4 0x4CDB5FD PUSH1 0xE1 SHL DUP2 MSTORE PUSH1 0x4 DUP2 ADD SWAP2 SWAP1 SWAP2 MSTORE PUSH0 DUP2 PUSH1 0x24 DUP2 DUP4 ADDRESS GAS CALL DUP1 ISZERO PUSH2 0xA1F JUMPI ISZERO PUSH2 0x20C8 JUMPI DUP1 PUSH2 0x2217 PUSH0 PUSH2 0x2748 SWAP4 PUSH2 0x1039 JUMP JUMPDEST PUSH0 PUSH2 0x20C8 JUMP JUMPDEST PUSH2 0x2763 PUSH2 0x275D PUSH1 0x64 DUP5 ADD PUSH2 0x3CDF JUMP JUMPDEST SWAP2 PUSH2 0x3CDF JUMP JUMPDEST SWAP1 ADDRESS EXTCODESIZE ISZERO PUSH2 0x4CB JUMPI PUSH1 0x40 MLOAD PUSH4 0x66251B69 PUSH1 0xE0 SHL DUP2 MSTORE PUSH1 0x1 PUSH1 0x1 PUSH1 0xA0 SHL SUB SWAP2 DUP3 AND PUSH1 0x4 DUP3 ADD MSTORE SWAP2 AND PUSH1 0x24 DUP3 ADD MSTORE PUSH0 DUP2 PUSH1 0x44 DUP2 DUP4 ADDRESS GAS CALL DUP1 ISZERO PUSH2 0xA1F JUMPI ISZERO PUSH2 0x20BB JUMPI DUP1 PUSH2 0x2217 PUSH0 PUSH2 0x27B1 SWAP4 PUSH2 0x1039 JUMP JUMPDEST PUSH0 PUSH2 0x20BB JUMP JUMPDEST PUSH2 0x27CD PUSH2 0x27C6 PUSH1 0x64 DUP5 ADD PUSH2 0x3CDF JUMP JUMPDEST SWAP2 DUP5 PUSH2 0x4265 JUMP JUMPDEST SWAP1 ADDRESS EXTCODESIZE ISZERO PUSH2 0x4CB JUMPI PUSH1 0x40 MLOAD PUSH4 0x3680620D PUSH1 0xE0 SHL DUP2 MSTORE SWAP2 PUSH0 SWAP2 DUP4 SWAP2 DUP3 SWAP2 PUSH2 0x27F7 SWAP2 SWAP1 PUSH1 0x4 DUP5 ADD PUSH2 0x427A JUMP JUMPDEST SUB DUP2 DUP4 ADDRESS GAS CALL DUP1 ISZERO PUSH2 0xA1F JUMPI ISZERO PUSH2 0x209E JUMPI DUP1 PUSH2 0x2217 PUSH0 PUSH2 0x2816 SWAP4 PUSH2 0x1039 JUMP JUMPDEST PUSH0 PUSH2 0x209E JUMP JUMPDEST PUSH2 0x2832 PUSH2 0x282B PUSH1 0x64 DUP5 ADD PUSH2 0x3CDF JUMP JUMPDEST SWAP2 DUP5 PUSH2 0x4170 JUMP JUMPDEST SWAP2 SWAP1 ADDRESS EXTCODESIZE ISZERO PUSH2 0x4CB JUMPI PUSH0 SWAP2 PUSH2 0x285B PUSH1 0x40 MLOAD SWAP5 DUP6 SWAP4 DUP5 SWAP4 PUSH4 0x3D02DE41 PUSH1 0xE1 SHL DUP6 MSTORE PUSH1 0x4 DUP6 ADD PUSH2 0x4243 JUMP JUMPDEST SUB DUP2 DUP4 ADDRESS GAS CALL DUP1 ISZERO PUSH2 0xA1F JUMPI ISZERO PUSH2 0x2088 JUMPI DUP1 PUSH2 0x2217 PUSH0 PUSH2 0x287A SWAP4 PUSH2 0x1039 JUMP JUMPDEST PUSH0 PUSH2 0x2088 JUMP JUMPDEST PUSH2 0x288C PUSH1 0x64 DUP3 ADD PUSH2 0x3CDF JUMP JUMPDEST ADDRESS EXTCODESIZE ISZERO PUSH2 0x4CB JUMPI PUSH0 PUSH2 0x28B7 SWAP2 PUSH1 0x40 MLOAD DUP1 SWAP4 DUP2 SWAP3 PUSH4 0x6DCD64F PUSH1 0xE2 SHL DUP4 MSTORE PUSH1 0x84 DUP8 ADD SWAP1 PUSH1 0x4 DUP5 ADD PUSH2 0x41AC JUMP JUMPDEST SUB DUP2 DUP4 ADDRESS GAS CALL DUP1 ISZERO PUSH2 0xA1F JUMPI PUSH2 0x28CE JUMPI JUMPDEST POP PUSH2 0x2072 JUMP JUMPDEST DUP1 PUSH2 0x2217 PUSH0 PUSH2 0x28DC SWAP4 PUSH2 0x1039 JUMP JUMPDEST PUSH0 PUSH2 0x28C8 JUMP JUMPDEST PUSH2 0x28EC SWAP1 DUP4 PUSH2 0x4170 JUMP JUMPDEST SWAP1 ADDRESS EXTCODESIZE ISZERO PUSH2 0x4CB JUMPI PUSH1 0x40 MLOAD PUSH4 0x938E3D7B PUSH1 0xE0 SHL DUP2 MSTORE SWAP2 PUSH0 SWAP2 DUP4 SWAP2 DUP3 SWAP2 PUSH2 0x2916 SWAP2 SWAP1 PUSH1 0x4 DUP5 ADD PUSH2 0x407E JUMP JUMPDEST SUB DUP2 DUP4 ADDRESS GAS CALL DUP1 ISZERO PUSH2 0xA1F JUMPI ISZERO PUSH2 0x2036 JUMPI DUP1 PUSH2 0x2217 PUSH0 PUSH2 0x2935 SWAP4 PUSH2 0x1039 JUMP JUMPDEST PUSH0 PUSH2 0x2036 JUMP JUMPDEST PUSH2 0x2945 SWAP1 DUP4 PUSH2 0x4170 JUMP JUMPDEST SWAP1 ADDRESS EXTCODESIZE ISZERO PUSH2 0x4CB JUMPI PUSH1 0x40 MLOAD PUSH4 0x55F804B3 PUSH1 0xE0 SHL DUP2 MSTORE SWAP2 PUSH0 SWAP2 DUP4 SWAP2 DUP3 SWAP2 PUSH2 0x296F SWAP2 SWAP1 PUSH1 0x4 DUP5 ADD PUSH2 0x407E JUMP JUMPDEST SUB DUP2 DUP4 ADDRESS GAS CALL DUP1 ISZERO PUSH2 0xA1F JUMPI ISZERO PUSH2 0x2020 JUMPI DUP1 PUSH2 0x2217 PUSH0 PUSH2 0x298E SWAP4 PUSH2 0x1039 JUMP JUMPDEST PUSH0 PUSH2 0x2020 JUMP JUMPDEST ADDRESS EXTCODESIZE ISZERO PUSH2 0x4CB JUMPI PUSH1 0x40 MLOAD PUSH4 0x6F8B44B PUSH1 0xE4 SHL DUP2 MSTORE PUSH1 0x4 DUP2 ADD SWAP2 SWAP1 SWAP2 MSTORE PUSH0 DUP2 PUSH1 0x24 DUP2 DUP4 ADDRESS GAS CALL DUP1 ISZERO PUSH2 0xA1F JUMPI ISZERO PUSH2 0x200A JUMPI DUP1 PUSH2 0x2217 PUSH0 PUSH2 0x29D2 SWAP4 PUSH2 0x1039 JUMP JUMPDEST PUSH0 PUSH2 0x200A JUMP JUMPDEST CALLVALUE PUSH2 0x4CB JUMPI PUSH2 0x29E6 CALLDATASIZE PUSH2 0x1209 JUMP JUMPDEST PUSH2 0x29EE PUSH2 0x4837 JUMP JUMPDEST PUSH1 0x1 PUSH1 0x1 PUSH1 0x40 SHL SUB DUP2 GT PUSH2 0x1019 JUMPI PUSH2 0x2A10 DUP2 PUSH2 0x2A0B PUSH1 0xE SLOAD PUSH2 0x354B JUMP JUMPDEST PUSH2 0x3ECD JUMP JUMPDEST PUSH0 SWAP2 PUSH1 0x1F DUP3 GT PUSH1 0x1 EQ PUSH2 0x2A7C JUMPI PUSH2 0x2A5E DUP3 DUP1 PUSH32 0x905D981207A7D0B6C62CC46AB0BE2A076D0298E4A86D0AB79882DBD01AC37378 SWAP6 PUSH0 SWAP2 PUSH2 0x2A71 JUMPI JUMPDEST POP DUP2 PUSH1 0x1 SHL SWAP2 PUSH0 NOT SWAP1 PUSH1 0x3 SHL SHR NOT AND OR SWAP1 JUMP JUMPDEST PUSH1 0xE SSTORE JUMPDEST PUSH2 0xE19 PUSH1 0x40 MLOAD SWAP3 DUP4 SWAP3 DUP4 PUSH2 0x407E JUMP JUMPDEST SWAP1 POP DUP4 ADD CALLDATALOAD PUSH0 PUSH2 0x2A4B JUMP JUMPDEST PUSH1 0xE PUSH0 MSTORE PUSH1 0x1F NOT DUP3 AND PUSH32 0xBB7B4A454DC3493923482F07822329ED19E8244EFF582CC204F8554C3620C3FD SWAP1 PUSH0 JUMPDEST DUP2 DUP2 LT PUSH2 0x2B04 JUMPI POP SWAP4 DUP4 PUSH32 0x905D981207A7D0B6C62CC46AB0BE2A076D0298E4A86D0AB79882DBD01AC37378 SWAP6 LT PUSH2 0x2AEB JUMPI JUMPDEST POP POP PUSH1 0x1 DUP3 DUP2 SHL ADD PUSH1 0xE SSTORE PUSH2 0x2A62 JUMP JUMPDEST DUP3 ADD CALLDATALOAD PUSH0 NOT PUSH1 0x3 DUP6 SWAP1 SHL PUSH1 0xF8 AND SHR NOT AND SWAP1 SSTORE PUSH0 DUP1 PUSH2 0x2ADB JUMP JUMPDEST DUP4 DUP7 ADD CALLDATALOAD DUP4 SSTORE PUSH1 0x20 SWAP6 DUP7 ADD SWAP6 PUSH1 0x1 SWAP1 SWAP4 ADD SWAP3 ADD PUSH2 0x2AA9 JUMP JUMPDEST CALLVALUE PUSH2 0x4CB JUMPI PUSH0 CALLDATASIZE PUSH1 0x3 NOT ADD SLT PUSH2 0x4CB JUMPI PUSH1 0x20 PUSH1 0xFF PUSH1 0x16 SLOAD PUSH1 0x8 SHR AND PUSH1 0x40 MLOAD SWAP1 ISZERO ISZERO DUP2 MSTORE RETURN JUMPDEST CALLVALUE PUSH2 0x4CB JUMPI PUSH0 CALLDATASIZE PUSH1 0x3 NOT ADD SLT PUSH2 0x4CB JUMPI PUSH1 0x40 MLOAD PUSH0 PUSH1 0x3 SLOAD PUSH2 0x2B61 DUP2 PUSH2 0x354B JUMP JUMPDEST DUP1 DUP5 MSTORE SWAP1 PUSH1 0x1 DUP2 AND SWAP1 DUP2 ISZERO PUSH2 0x6D2 JUMPI POP PUSH1 0x1 EQ PUSH2 0x2B88 JUMPI PUSH2 0x524 DUP4 PUSH2 0x668 DUP2 DUP6 SUB DUP3 PUSH2 0x1039 JUMP JUMPDEST PUSH1 0x3 PUSH0 SWAP1 DUP2 MSTORE PUSH32 0xC2575A0E9E593C00F959F8C92F12DB2869C3395A3B0502D05E2516446F71F85B SWAP4 SWAP3 POP SWAP1 JUMPDEST DUP1 DUP3 LT PUSH2 0x2BCC JUMPI POP SWAP1 SWAP2 POP DUP2 ADD PUSH1 0x20 ADD PUSH2 0x668 PUSH2 0x658 JUMP JUMPDEST SWAP2 SWAP3 PUSH1 0x1 DUP2 PUSH1 0x20 SWAP3 SLOAD DUP4 DUP6 DUP9 ADD ADD MSTORE ADD SWAP2 ADD SWAP1 SWAP3 SWAP2 PUSH2 0x2BB4 JUMP JUMPDEST CALLVALUE PUSH2 0x4CB JUMPI PUSH1 0x60 CALLDATASIZE PUSH1 0x3 NOT ADD SLT PUSH2 0x4CB JUMPI PUSH1 0x4 CALLDATALOAD PUSH2 0x2C03 DUP2 PUSH2 0x762 JUMP JUMPDEST PUSH1 0x44 CALLDATALOAD SWAP1 PUSH1 0x60 SWAP1 PUSH1 0x24 CALLDATALOAD DUP4 DUP2 DUP2 DUP2 LT ISZERO PUSH2 0x1E79 JUMPI PUSH1 0x1 GT PUSH2 0x2D62 JUMPI JUMPDEST PUSH0 SLOAD DUP1 SWAP2 LT ISZERO PUSH2 0x2D5A JUMPI JUMPDEST POP PUSH2 0x2C34 DUP3 PUSH2 0x4048 JUMP JUMPDEST SWAP2 DUP5 DUP3 LT ISZERO PUSH2 0x2D52 JUMPI JUMPDEST DUP3 PUSH2 0x2C52 JUMPI JUMPDEST PUSH1 0x40 MLOAD DUP1 PUSH2 0x524 DUP7 DUP3 PUSH2 0x1CB1 JUMP JUMPDEST SWAP1 DUP1 SWAP3 SWAP4 POP DUP5 SUB DUP4 DUP2 GT ISZERO PUSH2 0x2D4A JUMPI JUMPDEST POP PUSH1 0x40 MLOAD SWAP1 PUSH1 0x1 DUP5 ADD PUSH1 0x5 SHL DUP3 ADD SWAP4 DUP5 PUSH1 0x40 MSTORE PUSH2 0x2C7E DUP5 PUSH2 0x46E3 JUMP JUMPDEST SWAP1 PUSH0 SWAP2 PUSH2 0x2C91 PUSH2 0xC53 PUSH1 0x40 DUP4 ADD MLOAD ISZERO ISZERO SWAP1 JUMP JUMPDEST PUSH2 0x2D38 JUMPI JUMPDEST POP PUSH0 SWAP7 SWAP2 SWAP5 SWAP2 PUSH1 0x1 JUMPDEST ISZERO PUSH2 0x2D0B JUMPI JUMPDEST PUSH0 SWAP6 PUSH2 0x2CB0 DUP5 PUSH2 0x4F24 JUMP JUMPDEST PUSH1 0x40 DUP2 ADD MLOAD ISZERO PUSH2 0x2CCF JUMPI POP POP PUSH1 0x1 PUSH0 SWAP4 JUMPDEST ADD SWAP6 DUP8 PUSH1 0x40 MSTORE SWAP6 SWAP3 SWAP6 PUSH2 0x2C9F JUMP JUMPDEST SWAP4 SWAP1 SWAP4 MLOAD DUP1 PUSH2 0x2D03 JUMPI JUMPDEST POP DUP5 DUP5 XOR PUSH1 0x60 SHL ISZERO PUSH2 0x2CEE JUMPI JUMPDEST PUSH1 0x1 SWAP1 PUSH2 0x2CC1 JUMP JUMPDEST PUSH1 0x1 SWAP1 SWAP9 ADD PUSH1 0x5 DUP2 SWAP1 SHL DUP7 ADD DUP10 SWAP1 MSTORE SWAP8 PUSH2 0x2CE6 JUMP JUMPDEST SWAP4 POP PUSH0 PUSH2 0x2CD9 JUMP JUMPDEST DUP1 DUP4 EQ DUP1 ISZERO PUSH2 0x2D2F JUMPI JUMPDEST ISZERO PUSH2 0x2CA5 JUMPI POP POP POP POP SWAP2 POP POP PUSH2 0x524 SWAP2 DUP2 MSTORE PUSH0 DUP1 DUP1 PUSH2 0x2C44 JUMP JUMPDEST POP DUP2 DUP9 EQ PUSH2 0x2D15 JUMP JUMPDEST MLOAD PUSH1 0x1 PUSH1 0x1 PUSH1 0xA0 SHL SUB AND SWAP2 POP PUSH0 PUSH2 0x2C96 JUMP JUMPDEST SWAP3 POP PUSH0 PUSH2 0x2C62 JUMP JUMPDEST PUSH0 SWAP3 POP PUSH2 0x2C3E JUMP JUMPDEST SWAP4 POP PUSH0 PUSH2 0x2C2A JUMP JUMPDEST PUSH1 0x1 SWAP2 POP PUSH2 0x2C1F JUMP JUMPDEST CALLVALUE PUSH2 0x4CB JUMPI PUSH0 CALLDATASIZE PUSH1 0x3 NOT ADD SLT PUSH2 0x4CB JUMPI PUSH1 0x20 PUSH1 0x15 SLOAD PUSH1 0x40 MLOAD SWAP1 DUP2 MSTORE RETURN JUMPDEST CALLVALUE PUSH2 0x4CB JUMPI PUSH0 CALLDATASIZE PUSH1 0x3 NOT ADD SLT PUSH2 0x4CB JUMPI PUSH1 0x20 PUSH1 0x40 MLOAD PUSH32 0x0 DUP2 MSTORE RETURN JUMPDEST CALLVALUE PUSH2 0x4CB JUMPI PUSH1 0x40 CALLDATASIZE PUSH1 0x3 NOT ADD SLT PUSH2 0x4CB JUMPI PUSH1 0x4 CALLDATALOAD PUSH2 0x2DDF DUP2 PUSH2 0x762 JUMP JUMPDEST PUSH2 0x2DE7 PUSH2 0x8F1 JUMP JUMPDEST SWAP1 PUSH1 0xFF PUSH1 0x13 SLOAD AND PUSH2 0x827 JUMPI CALLER PUSH0 MSTORE PUSH1 0x7 PUSH1 0x20 MSTORE PUSH2 0x2E2C DUP3 PUSH2 0x2E1B DUP4 PUSH1 0x40 PUSH0 KECCAK256 SWAP1 PUSH1 0x1 DUP1 PUSH1 0xA0 SHL SUB AND PUSH0 MSTORE PUSH1 0x20 MSTORE PUSH1 0x40 PUSH0 KECCAK256 SWAP1 JUMP JUMPDEST SWAP1 PUSH1 0xFF DUP1 NOT DUP4 SLOAD AND SWAP2 ISZERO ISZERO AND OR SWAP1 SSTORE JUMP JUMPDEST PUSH1 0x40 MLOAD SWAP2 ISZERO ISZERO DUP3 MSTORE PUSH1 0x1 PUSH1 0x1 PUSH1 0xA0 SHL SUB AND SWAP1 CALLER SWAP1 PUSH32 0x17307EAB39AB6107E8899845AD3D59BD9653F200F220920489CA2B5937696C31 SWAP1 PUSH1 0x20 SWAP1 LOG3 STOP JUMPDEST CALLVALUE PUSH2 0x4CB JUMPI PUSH1 0x40 CALLDATASIZE PUSH1 0x3 NOT ADD SLT PUSH2 0x4CB JUMPI PUSH32 0x6BD5C950A8D8DF17F772F5AF37CB3655737899CBF903264B9795592DA439661C PUSH1 0x40 PUSH1 0x4 CALLDATALOAD PUSH1 0x24 CALLDATALOAD PUSH2 0x2EAA PUSH2 0x4837 JUMP JUMPDEST DUP3 MLOAD SWAP2 DUP3 MSTORE PUSH1 0x20 DUP3 ADD MSTORE LOG1 STOP JUMPDEST CALLVALUE PUSH2 0x4CB JUMPI PUSH1 0x20 CALLDATASIZE PUSH1 0x3 NOT ADD SLT PUSH2 0x4CB JUMPI PUSH1 0x4 CALLDATALOAD PUSH2 0x2ED4 DUP2 PUSH2 0x762 JUMP JUMPDEST PUSH2 0x2EDC PUSH2 0x485E JUMP JUMPDEST PUSH1 0x9 SLOAD SWAP1 PUSH1 0x1 PUSH1 0x1 PUSH1 0xA0 SHL SUB DUP1 DUP4 AND SWAP1 DUP3 AND DUP1 DUP3 EQ PUSH2 0x2F4D JUMPI PUSH1 0x1 PUSH1 0x1 PUSH1 0xA0 SHL SUB NOT SWAP4 SWAP1 SWAP4 AND SWAP1 SWAP3 OR PUSH1 0x9 SSTORE PUSH1 0x40 DUP1 MLOAD PUSH1 0x1 PUSH1 0x1 PUSH1 0xA0 SHL SUB SWAP4 DUP5 AND DUP2 MSTORE SWAP2 SWAP1 SWAP3 AND PUSH1 0x20 DUP3 ADD MSTORE PUSH32 0xCC5DC080FF977B3C3A211FA63AB74F90F658F5BA9D3236E92C8F59570F442AAC SWAP2 DUP2 SWAP1 DUP2 ADD PUSH2 0xE19 JUMP JUMPDEST PUSH4 0x251DD8CF PUSH1 0xE1 SHL PUSH0 MSTORE PUSH1 0x4 PUSH0 REVERT JUMPDEST CALLVALUE PUSH2 0x4CB JUMPI PUSH0 CALLDATASIZE PUSH1 0x3 NOT ADD SLT PUSH2 0x4CB JUMPI PUSH1 0x10 SLOAD PUSH1 0x40 MLOAD PUSH1 0x1 PUSH1 0x1 PUSH1 0xA0 SHL SUB SWAP1 SWAP2 AND DUP2 MSTORE PUSH1 0x20 SWAP1 RETURN JUMPDEST PUSH1 0x1 PUSH1 0x1 PUSH1 0x40 SHL SUB DUP2 GT PUSH2 0x1019 JUMPI PUSH1 0x1F ADD PUSH1 0x1F NOT AND PUSH1 0x20 ADD SWAP1 JUMP JUMPDEST SWAP3 SWAP2 SWAP3 PUSH2 0x2FAB DUP3 PUSH2 0x2F84 JUMP JUMPDEST SWAP2 PUSH2 0x2FB9 PUSH1 0x40 MLOAD SWAP4 DUP5 PUSH2 0x1039 JUMP JUMPDEST DUP3 SWAP5 DUP2 DUP5 MSTORE DUP2 DUP4 ADD GT PUSH2 0x4CB JUMPI DUP3 DUP2 PUSH1 0x20 SWAP4 DUP5 PUSH0 SWAP7 ADD CALLDATACOPY ADD ADD MSTORE JUMP JUMPDEST PUSH1 0x80 CALLDATASIZE PUSH1 0x3 NOT ADD SLT PUSH2 0x4CB JUMPI PUSH1 0x4 CALLDATALOAD PUSH2 0x2FED DUP2 PUSH2 0x762 JUMP JUMPDEST PUSH1 0x24 CALLDATALOAD SWAP1 PUSH2 0x2FFA DUP3 PUSH2 0x762 JUMP JUMPDEST PUSH1 0x44 CALLDATALOAD PUSH1 0x64 CALLDATALOAD SWAP3 PUSH1 0x1 PUSH1 0x1 PUSH1 0x40 SHL SUB DUP5 GT PUSH2 0x4CB JUMPI CALLDATASIZE PUSH1 0x23 DUP6 ADD SLT ISZERO PUSH2 0x4CB JUMPI PUSH2 0x3031 PUSH2 0xA1D SWAP5 CALLDATASIZE SWAP1 PUSH1 0x24 DUP2 PUSH1 0x4 ADD CALLDATALOAD SWAP2 ADD PUSH2 0x2F9F JUMP JUMPDEST SWAP3 PUSH2 0x467E JUMP JUMPDEST CALLVALUE PUSH2 0x4CB JUMPI PUSH1 0x20 CALLDATASIZE PUSH1 0x3 NOT ADD SLT PUSH2 0x4CB JUMPI PUSH1 0x80 PUSH2 0x3055 PUSH1 0x4 CALLDATALOAD PUSH2 0x46E3 JUMP JUMPDEST PUSH2 0x3098 PUSH1 0x40 MLOAD DUP1 SWAP3 PUSH3 0xFFFFFF PUSH1 0x60 DUP1 SWAP3 PUSH1 0x1 DUP1 PUSH1 0xA0 SHL SUB DUP2 MLOAD AND DUP6 MSTORE PUSH1 0x1 PUSH1 0x1 PUSH1 0x40 SHL SUB PUSH1 0x20 DUP3 ADD MLOAD AND PUSH1 0x20 DUP7 ADD MSTORE PUSH1 0x40 DUP2 ADD MLOAD ISZERO ISZERO PUSH1 0x40 DUP7 ADD MSTORE ADD MLOAD AND SWAP2 ADD MSTORE JUMP JUMPDEST RETURN JUMPDEST CALLVALUE PUSH2 0x4CB JUMPI PUSH0 CALLDATASIZE PUSH1 0x3 NOT ADD SLT PUSH2 0x4CB JUMPI PUSH1 0x20 PUSH1 0xF SLOAD PUSH1 0x40 MLOAD SWAP1 DUP2 MSTORE RETURN JUMPDEST CALLVALUE PUSH2 0x4CB JUMPI PUSH1 0x20 CALLDATASIZE PUSH1 0x3 NOT ADD SLT PUSH2 0x4CB JUMPI PUSH1 0x4 CALLDATALOAD PUSH2 0x30D4 DUP2 PUSH2 0x4794 JUMP JUMPDEST ISZERO PUSH2 0x3158 JUMPI PUSH2 0x668 DUP2 PUSH2 0x524 SWAP3 PUSH0 MSTORE PUSH1 0x27 PUSH1 0x20 MSTORE PUSH1 0x40 PUSH0 KECCAK256 PUSH1 0x40 MLOAD SWAP1 PUSH2 0x30F9 DUP3 PUSH2 0x101E JUMP JUMPDEST DUP1 SLOAD SWAP1 PUSH2 0xFFFF DUP3 AND DUP4 MSTORE PUSH1 0xFF PUSH1 0x20 DUP5 ADD SWAP3 PUSH1 0x10 SHR AND DUP3 MSTORE PUSH2 0x314C PUSH2 0x3144 PUSH2 0x3135 PUSH1 0x2 PUSH2 0x3127 PUSH1 0x1 DUP7 ADD PUSH2 0x3583 JUMP JUMPDEST SWAP5 PUSH1 0x40 DUP9 ADD SWAP6 DUP7 MSTORE ADD PUSH2 0x3583 JUMP JUMPDEST SWAP5 DUP6 PUSH1 0x60 DUP3 ADD MSTORE MLOAD PUSH2 0xFFFF AND SWAP1 JUMP JUMPDEST SWAP3 MLOAD PUSH1 0xFF AND SWAP1 JUMP JUMPDEST SWAP1 MLOAD SWAP2 PUSH1 0x14 SLOAD SWAP5 PUSH2 0x528D JUMP JUMPDEST PUSH4 0x4A1850BF PUSH1 0xE1 SHL PUSH0 MSTORE PUSH1 0x4 PUSH0 REVERT JUMPDEST CALLVALUE PUSH2 0x4CB JUMPI PUSH2 0x3175 CALLDATASIZE PUSH2 0xF3F JUMP JUMPDEST SWAP1 SWAP2 PUSH2 0x317F PUSH2 0x4837 JUMP JUMPDEST PUSH2 0x3188 DUP2 PUSH2 0x4872 JUMP JUMPDEST PUSH1 0x1 PUSH1 0x1 PUSH1 0xA0 SHL SUB AND SWAP2 DUP3 EXTCODESIZE ISZERO PUSH2 0x4CB JUMPI PUSH1 0x40 MLOAD PUSH4 0x3F952E65 PUSH1 0xE1 SHL DUP2 MSTORE PUSH1 0x1 PUSH1 0x1 PUSH1 0xA0 SHL SUB SWAP1 SWAP2 AND PUSH1 0x4 DUP3 ADD MSTORE SWAP1 ISZERO ISZERO PUSH1 0x24 DUP3 ADD MSTORE PUSH0 DUP2 PUSH1 0x44 DUP2 ADD PUSH2 0xFD2 JUMP JUMPDEST SWAP1 PUSH1 0x40 PUSH1 0x3 NOT DUP4 ADD SLT PUSH2 0x4CB JUMPI PUSH1 0x4 CALLDATALOAD SWAP2 PUSH1 0x24 CALLDATALOAD SWAP1 PUSH1 0x1 PUSH1 0x1 PUSH1 0x40 SHL SUB DUP3 GT PUSH2 0x4CB JUMPI PUSH2 0x1233 SWAP2 PUSH1 0x4 ADD PUSH2 0x11DC JUMP JUMPDEST CALLVALUE PUSH2 0x4CB JUMPI PUSH2 0x3206 CALLDATASIZE PUSH2 0x31C9 JUMP JUMPDEST SWAP2 SWAP1 PUSH2 0x3211 DUP3 PUSH2 0x542A JUMP JUMPDEST PUSH1 0x16 SLOAD PUSH2 0x3222 SWAP1 PUSH1 0x18 SHR PUSH1 0xFF AND ISZERO SWAP1 JUMP JUMPDEST PUSH2 0x342A JUMPI PUSH2 0x3231 CALLDATASIZE DUP5 DUP4 PUSH2 0x2F9F JUMP JUMPDEST SWAP2 DUP3 MLOAD DUP1 ISZERO ISZERO SWAP1 DUP2 PUSH2 0x341E JUMPI JUMPDEST POP ISZERO PUSH2 0x340F JUMPI PUSH0 JUMPDEST DUP4 MLOAD DUP2 LT ISZERO PUSH2 0x338B JUMPI PUSH2 0x327A PUSH2 0x326D PUSH2 0x325F DUP4 DUP8 PUSH2 0x472A JUMP JUMPDEST MLOAD PUSH1 0x1 PUSH1 0x1 PUSH1 0xF8 SHL SUB NOT AND SWAP1 JUMP JUMPDEST PUSH1 0x1 PUSH1 0x1 PUSH1 0xF8 SHL SUB NOT AND SWAP1 JUMP JUMPDEST PUSH1 0x3 PUSH1 0xFC SHL DUP2 LT ISZERO SWAP1 DUP2 PUSH2 0x337C JUMPI JUMPDEST DUP2 ISZERO PUSH2 0x3358 JUMPI JUMPDEST DUP2 ISZERO PUSH2 0x3334 JUMPI JUMPDEST DUP2 ISZERO PUSH2 0x32BB JUMPI JUMPDEST POP ISZERO PUSH2 0x32AC JUMPI PUSH1 0x1 ADD PUSH2 0x3246 JUMP JUMPDEST PUSH4 0xA23EF83B PUSH1 0xE0 SHL PUSH0 MSTORE PUSH1 0x4 PUSH0 REVERT JUMPDEST PUSH1 0x1 PUSH1 0xFD SHL DUP2 EQ SWAP2 POP DUP2 ISZERO PUSH2 0x3326 JUMPI JUMPDEST DUP2 ISZERO PUSH2 0x3318 JUMPI JUMPDEST DUP2 ISZERO PUSH2 0x330A JUMPI JUMPDEST DUP2 ISZERO PUSH2 0x32FC JUMPI JUMPDEST DUP2 ISZERO PUSH2 0x32EE JUMPI JUMPDEST POP PUSH0 PUSH2 0x329E JUMP JUMPDEST PUSH1 0x27 PUSH1 0xF8 SHL EQ SWAP1 POP PUSH0 PUSH2 0x32E7 JUMP JUMPDEST PUSH1 0x5F PUSH1 0xF8 SHL DUP2 EQ SWAP2 POP PUSH2 0x32E0 JUMP JUMPDEST PUSH1 0x17 PUSH1 0xF9 SHL DUP2 EQ SWAP2 POP PUSH2 0x32D9 JUMP JUMPDEST PUSH1 0x2D PUSH1 0xF8 SHL DUP2 EQ SWAP2 POP PUSH2 0x32D2 JUMP JUMPDEST PUSH1 0x21 PUSH1 0xF8 SHL DUP2 EQ SWAP2 POP PUSH2 0x32CB JUMP JUMPDEST SWAP1 POP PUSH1 0x61 PUSH1 0xF8 SHL DUP2 LT ISZERO DUP1 PUSH2 0x334A JUMPI JUMPDEST SWAP1 PUSH2 0x3297 JUMP JUMPDEST POP PUSH1 0x3D PUSH1 0xF9 SHL DUP2 GT ISZERO PUSH2 0x3344 JUMP JUMPDEST SWAP1 POP PUSH1 0x41 PUSH1 0xF8 SHL DUP2 LT ISZERO DUP1 PUSH2 0x336E JUMPI JUMPDEST SWAP1 PUSH2 0x3290 JUMP JUMPDEST POP PUSH1 0x2D PUSH1 0xF9 SHL DUP2 GT ISZERO PUSH2 0x3368 JUMP JUMPDEST PUSH1 0x39 PUSH1 0xF8 SHL DUP2 GT ISZERO SWAP2 POP PUSH2 0x3289 JUMP JUMPDEST POP PUSH32 0x27FAC8F362F0993DF8069600BAC492702D7C0D77D65545716BF8B7ACD95F0214 PUSH2 0x340A DUP6 PUSH2 0x33D0 DUP2 DUP7 PUSH1 0x1 PUSH2 0x33CA DUP9 PUSH0 MSTORE PUSH1 0x27 PUSH1 0x20 MSTORE PUSH1 0x40 PUSH0 KECCAK256 SWAP1 JUMP JUMPDEST ADD PUSH2 0x3F71 JUMP JUMPDEST PUSH1 0x40 MLOAD DUP5 DUP2 MSTORE PUSH32 0xF8E1A15ABA9398E019F0B49DF1A4FDE98EE17AE345CB5F6B5E2C27F5033E8CE7 SWAP1 PUSH1 0x20 SWAP1 LOG1 PUSH1 0x40 MLOAD SWAP2 DUP3 SWAP2 CALLER SWAP7 DUP4 PUSH2 0x407E JUMP JUMPDEST SUB SWAP1 LOG3 STOP JUMPDEST PUSH4 0x4E9A61E5 PUSH1 0xE1 SHL PUSH0 MSTORE PUSH1 0x4 PUSH0 REVERT JUMPDEST PUSH1 0x20 SWAP2 POP GT ISZERO PUSH0 PUSH2 0x323E JUMP JUMPDEST PUSH4 0x10F88B9D PUSH1 0xE2 SHL PUSH0 MSTORE PUSH1 0x4 PUSH0 REVERT JUMPDEST CALLVALUE PUSH2 0x4CB JUMPI PUSH0 CALLDATASIZE PUSH1 0x3 NOT ADD SLT PUSH2 0x4CB JUMPI PUSH1 0x20 PUSH1 0xC SLOAD PUSH1 0x40 MLOAD SWAP1 DUP2 MSTORE RETURN JUMPDEST CALLVALUE PUSH2 0x4CB JUMPI PUSH1 0x40 CALLDATASIZE PUSH1 0x3 NOT ADD SLT PUSH2 0x4CB JUMPI PUSH1 0x4 CALLDATALOAD PUSH1 0x24 CALLDATALOAD PUSH2 0x3476 DUP3 PUSH2 0x542A JUMP JUMPDEST DUP2 PUSH0 MSTORE PUSH1 0x27 PUSH1 0x20 MSTORE PUSH1 0x7 PUSH2 0xFFFF PUSH1 0x40 PUSH0 KECCAK256 SLOAD AND LT PUSH2 0x353C JUMPI PUSH1 0xFF PUSH1 0x16 SLOAD PUSH1 0x18 SHR AND ISZERO PUSH2 0x342A JUMPI PUSH1 0x13 DUP2 LT ISZERO PUSH2 0x352D JUMPI PUSH2 0x34D9 PUSH1 0xFF DUP3 AND PUSH2 0x34BE DUP5 PUSH0 MSTORE PUSH1 0x27 PUSH1 0x20 MSTORE PUSH1 0x40 PUSH0 KECCAK256 SWAP1 JUMP JUMPDEST SWAP1 PUSH3 0xFF0000 PUSH1 0xFF DUP4 SLOAD SWAP3 AND PUSH1 0x10 SHL AND SWAP1 PUSH3 0xFF0000 NOT AND OR SWAP1 SSTORE JUMP JUMPDEST PUSH1 0x40 MLOAD DUP3 DUP2 MSTORE PUSH32 0xF8E1A15ABA9398E019F0B49DF1A4FDE98EE17AE345CB5F6B5E2C27F5033E8CE7 SWAP1 PUSH1 0x20 SWAP1 LOG1 CALLER SWAP2 PUSH32 0x717EA6D16CD5B1ADADF0580BB4B4EBBE47B8329C34AE1D20B2A3505B0B45121B PUSH0 DUP1 LOG4 STOP JUMPDEST PUSH4 0xACCE9F57 PUSH1 0xE0 SHL PUSH0 MSTORE PUSH1 0x4 PUSH0 REVERT JUMPDEST PUSH4 0x3D0ECDF PUSH1 0xE1 SHL PUSH0 MSTORE PUSH1 0x4 PUSH0 REVERT JUMPDEST SWAP1 PUSH1 0x1 DUP3 DUP2 SHR SWAP3 AND DUP1 ISZERO PUSH2 0x3579 JUMPI JUMPDEST PUSH1 0x20 DUP4 LT EQ PUSH2 0x3565 JUMPI JUMP JUMPDEST PUSH4 0x4E487B71 PUSH1 0xE0 SHL PUSH0 MSTORE PUSH1 0x22 PUSH1 0x4 MSTORE PUSH1 0x24 PUSH0 REVERT JUMPDEST SWAP2 PUSH1 0x7F AND SWAP2 PUSH2 0x355A JUMP JUMPDEST SWAP1 PUSH1 0x40 MLOAD SWAP2 DUP3 PUSH0 DUP3 SLOAD SWAP3 PUSH2 0x3596 DUP5 PUSH2 0x354B JUMP JUMPDEST DUP1 DUP5 MSTORE SWAP4 PUSH1 0x1 DUP2 AND SWAP1 DUP2 ISZERO PUSH2 0x35FF JUMPI POP PUSH1 0x1 EQ PUSH2 0x35BB JUMPI JUMPDEST POP PUSH2 0x1069 SWAP3 POP SUB DUP4 PUSH2 0x1039 JUMP JUMPDEST SWAP1 POP PUSH0 SWAP3 SWAP2 SWAP3 MSTORE PUSH1 0x20 PUSH0 KECCAK256 SWAP1 PUSH0 SWAP2 JUMPDEST DUP2 DUP4 LT PUSH2 0x35E3 JUMPI POP POP SWAP1 PUSH1 0x20 PUSH2 0x1069 SWAP3 DUP3 ADD ADD PUSH0 PUSH2 0x35AE JUMP JUMPDEST PUSH1 0x20 SWAP2 SWAP4 POP DUP1 PUSH1 0x1 SWAP2 SLOAD DUP4 DUP6 DUP10 ADD ADD MSTORE ADD SWAP2 ADD SWAP1 SWAP2 DUP5 SWAP3 PUSH2 0x35CA JUMP JUMPDEST SWAP1 POP PUSH1 0x20 SWAP3 POP PUSH2 0x1069 SWAP5 SWAP2 POP PUSH1 0xFF NOT AND DUP3 DUP5 ADD MSTORE ISZERO ISZERO PUSH1 0x5 SHL DUP3 ADD ADD PUSH0 PUSH2 0x35AE JUMP JUMPDEST CALLVALUE PUSH2 0x4CB JUMPI PUSH1 0x20 CALLDATASIZE PUSH1 0x3 NOT ADD SLT PUSH2 0x4CB JUMPI PUSH1 0x4 CALLDATALOAD PUSH0 MSTORE PUSH1 0x27 PUSH1 0x20 MSTORE PUSH1 0xFF PUSH1 0x40 PUSH0 KECCAK256 PUSH2 0x524 DUP2 SLOAD SWAP2 PUSH2 0x368B PUSH2 0x3663 PUSH1 0x2 PUSH2 0x365C PUSH1 0x1 DUP6 ADD PUSH2 0x3583 JUMP JUMPDEST SWAP4 ADD PUSH2 0x3583 JUMP JUMPDEST SWAP2 PUSH1 0x40 MLOAD SWAP6 DUP6 PUSH2 0xFFFF DUP9 SWAP8 AND DUP8 MSTORE PUSH1 0x10 SHR AND PUSH1 0x20 DUP7 ADD MSTORE PUSH1 0x80 PUSH1 0x40 DUP7 ADD MSTORE PUSH1 0x80 DUP6 ADD SWAP1 PUSH2 0x5E8 JUMP JUMPDEST SWAP1 DUP4 DUP3 SUB PUSH1 0x60 DUP6 ADD MSTORE PUSH2 0x5E8 JUMP JUMPDEST CALLVALUE PUSH2 0x4CB JUMPI PUSH0 CALLDATASIZE PUSH1 0x3 NOT ADD SLT PUSH2 0x4CB JUMPI PUSH1 0x40 MLOAD PUSH0 PUSH1 0xE SLOAD PUSH2 0x36B9 DUP2 PUSH2 0x354B JUMP JUMPDEST DUP1 DUP5 MSTORE SWAP1 PUSH1 0x1 DUP2 AND SWAP1 DUP2 ISZERO PUSH2 0x6D2 JUMPI POP PUSH1 0x1 EQ PUSH2 0x36E0 JUMPI PUSH2 0x524 DUP4 PUSH2 0x668 DUP2 DUP6 SUB DUP3 PUSH2 0x1039 JUMP JUMPDEST PUSH1 0xE PUSH0 SWAP1 DUP2 MSTORE PUSH32 0xBB7B4A454DC3493923482F07822329ED19E8244EFF582CC204F8554C3620C3FD SWAP4 SWAP3 POP SWAP1 JUMPDEST DUP1 DUP3 LT PUSH2 0x3724 JUMPI POP SWAP1 SWAP2 POP DUP2 ADD PUSH1 0x20 ADD PUSH2 0x668 PUSH2 0x658 JUMP JUMPDEST SWAP2 SWAP3 PUSH1 0x1 DUP2 PUSH1 0x20 SWAP3 SLOAD DUP4 DUP6 DUP9 ADD ADD MSTORE ADD SWAP2 ADD SWAP1 SWAP3 SWAP2 PUSH2 0x370C JUMP JUMPDEST CALLVALUE PUSH2 0x4CB JUMPI PUSH1 0x20 PUSH2 0x3757 PUSH2 0x3751 CALLDATASIZE PUSH2 0x1709 JUMP JUMPDEST SWAP1 PUSH2 0x473B JUMP JUMPDEST PUSH1 0x40 MLOAD SWAP1 ISZERO ISZERO DUP2 MSTORE RETURN JUMPDEST CALLVALUE PUSH2 0x4CB JUMPI PUSH1 0x40 CALLDATASIZE PUSH1 0x3 NOT ADD SLT PUSH2 0x4CB JUMPI PUSH1 0x4 CALLDATALOAD PUSH2 0x377E DUP2 PUSH2 0x762 JUMP JUMPDEST PUSH2 0x3786 PUSH2 0x8F1 JUMP JUMPDEST SWAP1 PUSH2 0x378F PUSH2 0x485E JUMP JUMPDEST PUSH1 0x13 DUP1 SLOAD PUSH2 0x100 PUSH1 0x1 PUSH1 0xA8 SHL SUB NOT AND PUSH1 0x8 SWAP3 SWAP1 SWAP3 SHL PUSH2 0x100 PUSH1 0x1 PUSH1 0xA8 SHL SUB AND SWAP2 SWAP1 SWAP2 OR SWAP1 SSTORE PUSH0 SLOAD PUSH1 0x1 SLOAD SWAP1 SUB PUSH0 NOT ADD PUSH2 0x37DE JUMPI JUMPDEST PUSH2 0x37C9 JUMPI STOP JUMPDEST PUSH1 0x16 DUP1 SLOAD PUSH4 0xFF000000 NOT AND PUSH4 0x1000000 OR SWAP1 SSTORE STOP JUMPDEST PUSH0 SLOAD PUSH0 NOT DUP2 ADD SWAP1 DUP2 GT PUSH2 0xB24 JUMPI PUSH1 0x40 PUSH32 0x6BD5C950A8D8DF17F772F5AF37CB3655737899CBF903264B9795592DA439661C SWAP2 DUP2 MLOAD SWAP1 PUSH1 0x1 DUP3 MSTORE PUSH1 0x20 DUP3 ADD MSTORE LOG1 PUSH2 0x37C3 JUMP JUMPDEST CALLVALUE PUSH2 0x4CB JUMPI PUSH1 0x20 CALLDATASIZE PUSH1 0x3 NOT ADD SLT PUSH2 0x4CB JUMPI PUSH1 0x4 CALLDATALOAD PUSH2 0x383E DUP2 PUSH2 0x762 JUMP JUMPDEST PUSH2 0x3846 PUSH2 0x485E JUMP JUMPDEST PUSH1 0x1 PUSH1 0x1 PUSH1 0xA0 SHL SUB AND DUP1 ISZERO PUSH2 0x3896 JUMPI PUSH1 0x20 DUP2 PUSH32 0x11A3CF439FB225BFE74225716B6774765670EC1060E3796802E62139D69974DA SWAP3 PUSH1 0x1 PUSH1 0x1 PUSH1 0x60 SHL SUB PUSH1 0xA0 SHL PUSH1 0xB SLOAD AND OR PUSH1 0xB SSTORE PUSH1 0x40 MLOAD SWAP1 DUP2 MSTORE LOG1 STOP JUMPDEST PUSH4 0x3A247DD7 PUSH1 0xE1 SHL PUSH0 MSTORE PUSH1 0x4 PUSH0 REVERT JUMPDEST CALLVALUE PUSH2 0x4CB JUMPI PUSH0 CALLDATASIZE PUSH1 0x3 NOT ADD SLT PUSH2 0x4CB JUMPI PUSH1 0x20 PUSH1 0x40 MLOAD PUSH32 0x0 DUP2 MSTORE RETURN JUMPDEST CALLVALUE PUSH2 0x4CB JUMPI PUSH2 0x38ED CALLDATASIZE PUSH2 0x31C9 JUMP JUMPDEST PUSH2 0x38F8 DUP4 SWAP3 SWAP4 PUSH2 0x542A JUMP JUMPDEST PUSH1 0xFF PUSH1 0x16 SLOAD PUSH1 0x18 SHR AND ISZERO PUSH2 0x342A JUMPI PUSH1 0xA0 DUP2 GT PUSH2 0x394C JUMPI PUSH2 0x340A PUSH32 0xE78644EFFC819F3563F83A630F6E92FEFAF026611F984BF562BCF606DE15395F SWAP2 DUP4 PUSH0 MSTORE PUSH1 0x27 PUSH1 0x20 MSTORE PUSH2 0x33D0 DUP2 DUP7 PUSH1 0x2 PUSH1 0x40 PUSH0 KECCAK256 ADD PUSH2 0x3F71 JUMP JUMPDEST PUSH4 0xA005982D PUSH1 0xE0 SHL PUSH0 MSTORE PUSH1 0x4 PUSH0 REVERT JUMPDEST CALLVALUE PUSH2 0x4CB JUMPI PUSH0 CALLDATASIZE PUSH1 0x3 NOT ADD SLT PUSH2 0x4CB JUMPI PUSH1 0x20 PUSH1 0x40 MLOAD PUSH1 0x1 DUP2 MSTORE RETURN JUMPDEST PUSH6 0xFFFFFFFFFFFF DUP2 AND SUB PUSH2 0x4CB JUMPI JUMP JUMPDEST CALLDATALOAD SWAP1 PUSH2 0x1069 DUP3 PUSH2 0x3976 JUMP JUMPDEST PUSH1 0x24 CALLDATALOAD SWAP1 PUSH1 0x1 PUSH1 0x1 PUSH1 0x50 SHL SUB DUP3 AND DUP3 SUB PUSH2 0x4CB JUMPI PUSH1 0x1 PUSH1 0x1 PUSH1 0x50 SHL SUB PUSH2 0x1069 SWAP3 AND DUP2 MSTORE PUSH6 0xFFFFFFFFFFFF PUSH1 0x44 CALLDATALOAD PUSH2 0x39C7 DUP2 PUSH2 0x3976 JUMP JUMPDEST AND PUSH1 0x20 DUP3 ADD MSTORE PUSH6 0xFFFFFFFFFFFF PUSH1 0x64 CALLDATALOAD PUSH2 0x39E0 DUP2 PUSH2 0x3976 JUMP JUMPDEST AND PUSH1 0x40 DUP3 ADD MSTORE PUSH2 0xFFFF PUSH2 0x39F3 PUSH1 0x84 PUSH2 0x1128 JUMP JUMPDEST AND PUSH1 0x60 DUP3 ADD MSTORE PUSH2 0xFFFF PUSH2 0x3A06 PUSH1 0xA4 PUSH2 0x1128 JUMP JUMPDEST AND PUSH1 0x80 DUP3 ADD MSTORE PUSH1 0xA0 PUSH2 0x3A18 PUSH1 0xC4 PUSH2 0x900 JUMP JUMPDEST ISZERO ISZERO SWAP2 ADD MSTORE JUMP JUMPDEST PUSH1 0x40 MLOAD RETURNDATASIZE PUSH0 DUP3 RETURNDATACOPY RETURNDATASIZE SWAP1 REVERT JUMPDEST SWAP2 SWAP1 PUSH2 0x3A35 DUP3 PUSH2 0x48A3 JUMP JUMPDEST PUSH1 0x1 PUSH1 0x1 PUSH1 0xA0 SHL SUB DUP5 DUP2 AND SWAP5 SWAP1 DUP3 AND DUP6 SWAP1 SUB PUSH2 0x3B94 JUMPI PUSH0 DUP5 DUP2 MSTORE PUSH1 0x6 PUSH1 0x20 MSTORE PUSH1 0x40 SWAP1 KECCAK256 DUP1 SLOAD SWAP2 SWAP1 CALLER DUP1 DUP5 EQ SWAP1 DUP9 EQ OR ISZERO PUSH2 0x3B7D JUMPI JUMPDEST PUSH2 0x3A98 SWAP3 PUSH2 0x3A79 DUP8 DUP8 DUP6 PUSH2 0x49BE JUMP JUMPDEST PUSH2 0x3B74 JUMPI JUMPDEST POP PUSH1 0x1 PUSH1 0x1 PUSH1 0xA0 SHL SUB AND PUSH0 SWAP1 DUP2 MSTORE PUSH1 0x5 PUSH1 0x20 MSTORE PUSH1 0x40 SWAP1 KECCAK256 SWAP1 JUMP JUMPDEST DUP1 SLOAD PUSH0 NOT ADD SWAP1 SSTORE PUSH1 0x1 PUSH1 0x1 PUSH1 0xA0 SHL SUB DUP3 AND PUSH0 SWAP1 DUP2 MSTORE PUSH1 0x5 PUSH1 0x20 MSTORE PUSH1 0x40 SWAP1 KECCAK256 DUP1 SLOAD PUSH1 0x1 ADD SWAP1 SSTORE PUSH1 0x1 PUSH1 0x1 PUSH1 0xA0 SHL SUB DUP3 AND TIMESTAMP PUSH1 0xA0 SHL OR PUSH1 0x1 PUSH1 0xE1 SHL OR PUSH2 0x3AE4 DUP5 PUSH0 MSTORE PUSH1 0x4 PUSH1 0x20 MSTORE PUSH1 0x40 PUSH0 KECCAK256 SWAP1 JUMP JUMPDEST SSTORE PUSH1 0x1 PUSH1 0xE1 SHL DUP2 AND ISZERO PUSH2 0x3B2F JUMPI JUMPDEST POP PUSH1 0x1 PUSH1 0x1 PUSH1 0xA0 SHL SUB AND SWAP2 DUP3 SWAP1 PUSH32 0xDDF252AD1BE2C89B69C2B068FC378DAA952BA7F163C4A11628F55A4DF523B3EF PUSH0 DUP1 LOG4 ISZERO PUSH2 0x3B2A JUMPI JUMP JUMPDEST PUSH2 0x47FC JUMP JUMPDEST PUSH1 0x1 DUP4 ADD PUSH2 0x3B45 DUP2 PUSH0 MSTORE PUSH1 0x4 PUSH1 0x20 MSTORE PUSH1 0x40 PUSH0 KECCAK256 SWAP1 JUMP JUMPDEST SLOAD ISZERO PUSH2 0x3B52 JUMPI JUMPDEST POP PUSH2 0x3AF2 JUMP JUMPDEST PUSH0 SLOAD DUP2 EQ PUSH2 0x3B4C JUMPI PUSH2 0x3B6C SWAP1 PUSH0 MSTORE PUSH1 0x4 PUSH1 0x20 MSTORE PUSH1 0x40 PUSH0 KECCAK256 SWAP1 JUMP JUMPDEST SSTORE PUSH0 DUP1 PUSH2 0x3B4C JUMP JUMPDEST PUSH0 SWAP1 SSTORE PUSH0 PUSH2 0x3A7E JUMP JUMPDEST PUSH2 0x3B8A PUSH2 0xC53 CALLER DUP5 PUSH2 0x473B JUMP JUMPDEST ISZERO PUSH2 0x3A6A JUMPI PUSH2 0x47DF JUMP JUMPDEST PUSH2 0x47EE JUMP JUMPDEST PUSH4 0x4E487B71 PUSH1 0xE0 SHL PUSH0 MSTORE PUSH1 0x11 PUSH1 0x4 MSTORE PUSH1 0x24 PUSH0 REVERT JUMPDEST SWAP1 DUP2 PUSH1 0x1 SHL SWAP2 DUP1 DUP4 DIV PUSH1 0x2 EQ SWAP1 ISZERO OR ISZERO PUSH2 0xB24 JUMPI JUMP JUMPDEST SWAP1 DUP1 PUSH1 0x20 SWAP4 SWAP3 DUP2 DUP5 MSTORE DUP5 DUP5 ADD CALLDATACOPY PUSH0 DUP3 DUP3 ADD DUP5 ADD MSTORE PUSH1 0x1F ADD PUSH1 0x1F NOT AND ADD ADD SWAP1 JUMP JUMPDEST SWAP1 CALLDATALOAD PUSH1 0x1E NOT DUP3 CALLDATASIZE SUB ADD DUP2 SLT ISZERO PUSH2 0x4CB JUMPI ADD PUSH1 0x20 DUP2 CALLDATALOAD SWAP2 ADD SWAP2 PUSH1 0x1 PUSH1 0x1 PUSH1 0x40 SHL SUB DUP3 GT PUSH2 0x4CB JUMPI DUP2 CALLDATASIZE SUB DUP4 SGT PUSH2 0x4CB JUMPI JUMP JUMPDEST SWAP2 SWAP1 PUSH1 0x60 DUP2 ADD SWAP1 DUP4 CALLDATALOAD DUP2 MSTORE PUSH1 0x20 DUP5 ADD CALLDATALOAD PUSH1 0x1E NOT DUP6 CALLDATASIZE SUB ADD DUP2 SLT ISZERO PUSH2 0x4CB JUMPI DUP5 ADD SWAP4 PUSH1 0x20 DUP6 CALLDATALOAD SWAP6 ADD SWAP5 PUSH1 0x1 PUSH1 0x1 PUSH1 0x40 SHL SUB DUP2 GT PUSH2 0x4CB JUMPI DUP1 PUSH1 0x5 SHL SWAP4 DUP5 CALLDATASIZE SUB DUP8 SGT PUSH2 0x4CB JUMPI PUSH1 0x60 PUSH1 0x20 DUP6 ADD MSTORE DUP2 SWAP1 MSTORE SWAP3 DUP3 ADD PUSH1 0x80 SWAP1 DUP2 ADD SWAP4 DUP7 SWAP2 PUSH0 SWAP1 DUP6 ADD JUMPDEST DUP3 DUP3 LT PUSH2 0x3C9F JUMPI POP POP POP POP PUSH2 0x61D SWAP4 SWAP5 POP DUP1 PUSH1 0x40 PUSH2 0x3C91 SWAP3 ADD SWAP1 PUSH2 0x3BE3 JUMP JUMPDEST SWAP2 PUSH1 0x40 DUP2 DUP6 SUB SWAP2 ADD MSTORE PUSH2 0x3BC3 JUMP JUMPDEST SWAP1 SWAP2 SWAP3 SWAP6 PUSH1 0x20 DUP1 PUSH2 0x3CC5 PUSH1 0x1 SWAP4 PUSH2 0x3CBF DUP12 DUP15 PUSH1 0x7F NOT DUP14 DUP6 SUB ADD DUP10 MSTORE PUSH2 0x3BE3 JUMP JUMPDEST SWAP1 PUSH2 0x3BC3 JUMP JUMPDEST SWAP9 ADD SWAP3 ADD SWAP3 ADD SWAP1 SWAP3 SWAP2 PUSH2 0x3C72 JUMP JUMPDEST PUSH1 0x4 CALLDATALOAD PUSH2 0x61D DUP2 PUSH2 0x762 JUMP JUMPDEST CALLDATALOAD PUSH2 0x61D DUP2 PUSH2 0x762 JUMP JUMPDEST PUSH1 0x24 CALLDATALOAD PUSH1 0x1 PUSH1 0x1 PUSH1 0x60 SHL SUB DUP2 AND DUP2 SUB PUSH2 0x4CB JUMPI SWAP1 JUMP JUMPDEST PUSH1 0x4 CALLDATALOAD PUSH2 0x3D0B DUP2 PUSH2 0x762 JUMP JUMPDEST PUSH1 0x1 DUP1 PUSH1 0xA0 SHL SUB AND PUSH1 0x1 PUSH1 0x1 PUSH1 0x60 SHL SUB PUSH1 0xA0 SHL PUSH1 0x10 SLOAD AND OR PUSH1 0x10 SSTORE PUSH1 0x24 CALLDATALOAD PUSH1 0x1 PUSH1 0x1 PUSH1 0x60 SHL SUB DUP2 AND DUP2 SUB PUSH2 0x4CB JUMPI PUSH1 0x10 DUP1 SLOAD PUSH1 0x1 PUSH1 0x1 PUSH1 0xA0 SHL SUB AND PUSH1 0xA0 SWAP3 SWAP1 SWAP3 SHL PUSH1 0x1 PUSH1 0x1 PUSH1 0xA0 SHL SUB NOT AND SWAP2 SWAP1 SWAP2 OR SWAP1 SSTORE JUMP JUMPDEST SWAP1 PUSH1 0xC0 DUP1 PUSH2 0x1069 SWAP4 PUSH1 0x1 PUSH1 0x1 PUSH1 0x50 SHL SUB DUP2 MLOAD AND DUP5 MSTORE PUSH3 0xFFFFFF PUSH1 0x20 DUP3 ADD MLOAD AND PUSH1 0x20 DUP6 ADD MSTORE PUSH5 0xFFFFFFFFFF PUSH1 0x40 DUP3 ADD MLOAD AND PUSH1 0x40 DUP6 ADD MSTORE PUSH5 0xFFFFFFFFFF PUSH1 0x60 DUP3 ADD MLOAD AND PUSH1 0x60 DUP6 ADD MSTORE PUSH5 0xFFFFFFFFFF PUSH1 0x80 DUP3 ADD MLOAD AND PUSH1 0x80 DUP6 ADD MSTORE PUSH2 0x3DCA PUSH1 0xA0 DUP3 ADD MLOAD PUSH1 0xA0 DUP7 ADD SWAP1 PUSH2 0xFFFF AND SWAP1 MSTORE JUMP JUMPDEST ADD MLOAD PUSH2 0xFFFF AND SWAP2 ADD MSTORE JUMP JUMPDEST PUSH2 0x3DDD PUSH2 0x4837 JUMP JUMPDEST PUSH2 0x3DE6 DUP2 PUSH2 0x4872 JUMP JUMPDEST PUSH1 0x1 PUSH1 0x1 PUSH1 0xA0 SHL SUB AND SWAP2 DUP3 EXTCODESIZE ISZERO PUSH2 0x4CB JUMPI PUSH1 0x40 MLOAD PUSH4 0x9A7002F PUSH1 0xE3 SHL DUP2 MSTORE PUSH1 0x1 PUSH1 0x1 PUSH1 0xA0 SHL SUB SWAP1 SWAP3 AND PUSH1 0x4 DUP4 ADD MSTORE SWAP1 SWAP2 PUSH0 SWAP2 DUP4 SWAP2 PUSH2 0x104 SWAP2 DUP4 SWAP2 DUP6 SWAP2 PUSH2 0x3E30 SWAP1 PUSH1 0x24 DUP6 ADD SWAP1 PUSH2 0x3D5E JUMP JUMPDEST GAS CALL DUP1 ISZERO PUSH2 0xA1F JUMPI PUSH2 0x3E3F JUMPI POP JUMP JUMPDEST PUSH0 PUSH2 0x1069 SWAP2 PUSH2 0x1039 JUMP JUMPDEST PUSH0 JUMPDEST DUP3 DUP2 LT PUSH2 0x3E57 JUMPI POP POP POP JUMP JUMPDEST PUSH0 DUP3 DUP3 ADD SSTORE PUSH1 0x1 ADD PUSH2 0x3E4B JUMP JUMPDEST PUSH1 0x1F DUP2 GT PUSH2 0x3E70 JUMPI POP POP JUMP JUMPDEST DUP2 DUP2 GT PUSH2 0x3E7B JUMPI POP POP JUMP JUMPDEST PUSH1 0xD PUSH0 MSTORE PUSH2 0x1069 SWAP2 PUSH32 0xD7B6990105719101DABEB77144F2A3385C8033ACD3AF97E9423A695E81AD1EB5 SWAP2 PUSH1 0x1F DUP3 ADD PUSH1 0x5 SHR SWAP2 PUSH1 0x20 GT PUSH2 0x3EC5 JUMPI JUMPDEST PUSH1 0x1F DUP3 SWAP2 ADD PUSH1 0x5 SHR SUB SWAP2 ADD PUSH2 0x3E49 JUMP JUMPDEST PUSH0 SWAP2 POP PUSH2 0x3EB5 JUMP JUMPDEST PUSH1 0x1F DUP2 GT PUSH2 0x3ED9 JUMPI POP POP JUMP JUMPDEST DUP2 DUP2 GT PUSH2 0x3EE4 JUMPI POP POP JUMP JUMPDEST PUSH1 0xE PUSH0 MSTORE PUSH2 0x1069 SWAP2 PUSH32 0xBB7B4A454DC3493923482F07822329ED19E8244EFF582CC204F8554C3620C3FD SWAP2 PUSH1 0x1F DUP3 ADD PUSH1 0x5 SHR SWAP2 PUSH1 0x20 GT PUSH2 0x3EC5 JUMPI PUSH1 0x1F DUP3 SWAP2 ADD PUSH1 0x5 SHR SUB SWAP2 ADD PUSH2 0x3E49 JUMP JUMPDEST SWAP2 PUSH1 0x1F DUP3 GT PUSH2 0x3F3B JUMPI POP POP POP JUMP JUMPDEST DUP1 DUP3 GT PUSH2 0x3F47 JUMPI POP POP POP JUMP JUMPDEST PUSH2 0x1069 SWAP3 PUSH0 MSTORE PUSH1 0x20 PUSH0 KECCAK256 SWAP2 PUSH1 0x20 PUSH1 0x1F DUP4 ADD PUSH1 0x5 SHR SWAP3 LT PUSH2 0x3EC5 JUMPI PUSH1 0x1F DUP3 SWAP2 ADD PUSH1 0x5 SHR SUB SWAP2 ADD PUSH2 0x3E49 JUMP JUMPDEST SWAP1 SWAP3 SWAP2 PUSH1 0x1 PUSH1 0x1 PUSH1 0x40 SHL SUB DUP2 GT PUSH2 0x1019 JUMPI PUSH2 0x3F96 DUP2 PUSH2 0x3F90 DUP5 SLOAD PUSH2 0x354B JUMP JUMPDEST DUP5 PUSH2 0x3F2D JUMP JUMPDEST PUSH0 PUSH1 0x1F DUP3 GT PUSH1 0x1 EQ PUSH2 0x3FC8 JUMPI DUP2 SWAP1 PUSH2 0x3FC4 SWAP4 SWAP5 SWAP6 PUSH0 SWAP3 PUSH2 0x12F7 JUMPI POP POP DUP2 PUSH1 0x1 SHL SWAP2 PUSH0 NOT SWAP1 PUSH1 0x3 SHL SHR NOT AND OR SWAP1 JUMP JUMPDEST SWAP1 SSTORE JUMP JUMPDEST PUSH1 0x1F NOT DUP3 AND SWAP5 PUSH2 0x3FDB DUP5 PUSH0 MSTORE PUSH1 0x20 PUSH0 KECCAK256 SWAP1 JUMP JUMPDEST SWAP2 PUSH0 JUMPDEST DUP8 DUP2 LT PUSH2 0x4015 JUMPI POP DUP4 PUSH1 0x1 SWAP6 SWAP7 SWAP8 LT PUSH2 0x3FFC JUMPI JUMPDEST POP POP POP DUP2 SHL ADD SWAP1 SSTORE JUMP JUMPDEST ADD CALLDATALOAD PUSH0 NOT PUSH1 0x3 DUP5 SWAP1 SHL PUSH1 0xF8 AND SHR NOT AND SWAP1 SSTORE PUSH0 DUP1 DUP1 PUSH2 0x3FF2 JUMP JUMPDEST SWAP1 SWAP3 PUSH1 0x20 PUSH1 0x1 DUP2 SWAP3 DUP7 DUP7 ADD CALLDATALOAD DUP2 SSTORE ADD SWAP5 ADD SWAP2 ADD PUSH2 0x3FDE JUMP JUMPDEST PUSH0 NOT DUP2 ADD SWAP2 SWAP1 DUP3 GT PUSH2 0xB24 JUMPI JUMP JUMPDEST SWAP2 SWAP1 DUP3 SUB SWAP2 DUP3 GT PUSH2 0xB24 JUMPI JUMP JUMPDEST PUSH1 0x1 PUSH1 0x1 PUSH1 0xA0 SHL SUB AND DUP1 ISZERO PUSH2 0x406F JUMPI PUSH0 MSTORE PUSH1 0x5 PUSH1 0x20 MSTORE PUSH1 0x1 PUSH1 0x1 PUSH1 0x40 SHL SUB PUSH1 0x40 PUSH0 KECCAK256 SLOAD AND SWAP1 JUMP JUMPDEST PUSH4 0x23D3AD81 PUSH1 0xE2 SHL PUSH0 MSTORE PUSH1 0x4 PUSH0 REVERT JUMPDEST SWAP2 PUSH1 0x20 PUSH2 0x61D SWAP4 DUP2 DUP2 MSTORE ADD SWAP2 PUSH2 0x3BC3 JUMP JUMPDEST CALLDATALOAD SWAP1 PUSH1 0xFF DUP3 AND DUP3 SUB PUSH2 0x4CB JUMPI JUMP JUMPDEST CALLDATALOAD SWAP1 PUSH4 0xFFFFFFFF DUP3 AND DUP3 SUB PUSH2 0x4CB JUMPI JUMP JUMPDEST PUSH1 0x44 CALLDATALOAD SWAP1 PUSH1 0x1 PUSH1 0x1 PUSH1 0x50 SHL SUB DUP3 AND DUP3 SUB PUSH2 0x4CB JUMPI PUSH1 0x1 PUSH1 0x1 PUSH1 0x50 SHL SUB PUSH2 0x1069 SWAP3 AND DUP2 MSTORE PUSH2 0xFFFF PUSH2 0x40DE PUSH1 0x64 PUSH2 0x1128 JUMP JUMPDEST AND PUSH1 0x20 DUP3 ADD MSTORE PUSH6 0xFFFFFFFFFFFF PUSH1 0x84 CALLDATALOAD PUSH2 0x40F7 DUP2 PUSH2 0x3976 JUMP JUMPDEST AND PUSH1 0x40 DUP3 ADD MSTORE PUSH2 0x4119 PUSH2 0x410A PUSH1 0xA4 PUSH2 0x3986 JUMP JUMPDEST PUSH6 0xFFFFFFFFFFFF AND PUSH1 0x60 DUP4 ADD MSTORE JUMP JUMPDEST PUSH2 0x4130 PUSH2 0x4126 PUSH1 0xC4 PUSH2 0x408F JUMP JUMPDEST PUSH1 0xFF AND PUSH1 0x80 DUP4 ADD MSTORE JUMP JUMPDEST PUSH2 0x414A PUSH2 0x413D PUSH1 0xE4 PUSH2 0x409D JUMP JUMPDEST PUSH4 0xFFFFFFFF AND PUSH1 0xA0 DUP4 ADD MSTORE JUMP JUMPDEST PUSH2 0x4163 PUSH2 0x4158 PUSH2 0x104 PUSH2 0x1128 JUMP JUMPDEST PUSH2 0xFFFF AND PUSH1 0xC0 DUP4 ADD MSTORE JUMP JUMPDEST PUSH1 0xE0 PUSH2 0x3A18 PUSH2 0x124 PUSH2 0x900 JUMP JUMPDEST SWAP1 CALLDATALOAD SWAP1 PUSH1 0x1E NOT DUP2 CALLDATASIZE SUB ADD DUP3 SLT ISZERO PUSH2 0x4CB JUMPI ADD DUP1 CALLDATALOAD SWAP1 PUSH1 0x1 PUSH1 0x1 PUSH1 0x40 SHL SUB DUP3 GT PUSH2 0x4CB JUMPI PUSH1 0x20 ADD SWAP2 DUP2 CALLDATASIZE SUB DUP4 SGT PUSH2 0x4CB JUMPI JUMP JUMPDEST CALLDATALOAD PUSH2 0x61D DUP2 PUSH2 0x3976 JUMP JUMPDEST PUSH1 0xC0 PUSH2 0x3A18 PUSH1 0xA0 PUSH2 0x1069 SWAP5 SWAP7 SWAP6 PUSH1 0xE0 DUP6 ADD SWAP8 PUSH1 0x1 DUP1 DUP5 SHL SUB AND DUP6 MSTORE PUSH1 0x1 PUSH1 0x1 PUSH1 0x50 SHL SUB PUSH2 0x41D8 DUP3 PUSH2 0x1081 JUMP JUMPDEST AND PUSH1 0x20 DUP7 ADD MSTORE PUSH6 0xFFFFFFFFFFFF PUSH1 0x20 DUP3 ADD CALLDATALOAD PUSH2 0x41F3 DUP2 PUSH2 0x3976 JUMP JUMPDEST AND PUSH1 0x40 DUP7 ADD MSTORE PUSH6 0xFFFFFFFFFFFF PUSH1 0x40 DUP3 ADD CALLDATALOAD PUSH2 0x420E DUP2 PUSH2 0x3976 JUMP JUMPDEST AND PUSH1 0x60 DUP7 ADD MSTORE PUSH2 0xFFFF PUSH2 0x4223 PUSH1 0x60 DUP4 ADD PUSH2 0x1128 JUMP JUMPDEST AND PUSH1 0x80 DUP7 ADD MSTORE PUSH2 0xFFFF PUSH2 0x4238 PUSH1 0x80 DUP4 ADD PUSH2 0x1128 JUMP JUMPDEST AND DUP3 DUP7 ADD MSTORE ADD PUSH2 0x900 JUMP JUMPDEST PUSH1 0x1 PUSH1 0x1 PUSH1 0xA0 SHL SUB SWAP1 SWAP2 AND DUP2 MSTORE PUSH1 0x40 PUSH1 0x20 DUP3 ADD DUP2 SWAP1 MSTORE PUSH2 0x61D SWAP4 SWAP2 ADD SWAP2 PUSH2 0x3BC3 JUMP JUMPDEST SWAP1 CALLDATALOAD SWAP1 PUSH1 0x5E NOT DUP2 CALLDATASIZE SUB ADD DUP3 SLT ISZERO PUSH2 0x4CB JUMPI ADD SWAP1 JUMP JUMPDEST PUSH1 0x1 PUSH1 0x1 PUSH1 0xA0 SHL SUB SWAP1 SWAP2 AND DUP2 MSTORE PUSH1 0x40 PUSH1 0x20 DUP3 ADD DUP2 SWAP1 MSTORE PUSH2 0x61D SWAP3 SWAP2 ADD SWAP1 PUSH2 0x3C14 JUMP JUMPDEST SWAP1 CALLDATALOAD SWAP1 PUSH1 0x1E NOT DUP2 CALLDATASIZE SUB ADD DUP3 SLT ISZERO PUSH2 0x4CB JUMPI ADD DUP1 CALLDATALOAD SWAP1 PUSH1 0x1 PUSH1 0x1 PUSH1 0x40 SHL SUB DUP3 GT PUSH2 0x4CB JUMPI PUSH1 0x20 ADD SWAP2 DUP2 PUSH1 0x5 SHL CALLDATASIZE SUB DUP4 SGT PUSH2 0x4CB JUMPI JUMP JUMPDEST PUSH4 0x4E487B71 PUSH1 0xE0 SHL PUSH0 MSTORE PUSH1 0x32 PUSH1 0x4 MSTORE PUSH1 0x24 PUSH0 REVERT JUMPDEST SWAP2 SWAP1 DUP2 LT ISZERO PUSH2 0x15D3 JUMPI PUSH1 0x5 SHL ADD SWAP1 JUMP JUMPDEST SWAP1 CALLDATALOAD SWAP1 PUSH1 0x1E NOT DUP2 CALLDATASIZE SUB ADD DUP3 SLT ISZERO PUSH2 0x4CB JUMPI ADD DUP1 CALLDATALOAD SWAP1 PUSH1 0x1 PUSH1 0x1 PUSH1 0x40 SHL SUB DUP3 GT PUSH2 0x4CB JUMPI PUSH1 0x20 ADD SWAP2 DUP2 PUSH1 0x8 SHL CALLDATASIZE SUB DUP4 SGT PUSH2 0x4CB JUMPI JUMP JUMPDEST SWAP2 SWAP1 DUP2 LT ISZERO PUSH2 0x15D3 JUMPI PUSH1 0x8 SHL ADD SWAP1 JUMP JUMPDEST PUSH1 0x1 PUSH1 0x1 PUSH1 0xA0 SHL SUB SWAP2 DUP3 AND DUP2 MSTORE SWAP2 AND PUSH1 0x20 DUP3 ADD MSTORE PUSH2 0x140 DUP2 ADD SWAP3 SWAP2 PUSH2 0x1069 SWAP2 SWAP1 PUSH2 0x120 SWAP1 PUSH2 0x3A18 SWAP1 PUSH1 0xE0 SWAP1 PUSH1 0x1 PUSH1 0x1 PUSH1 0x50 SHL SUB PUSH2 0x4376 DUP3 PUSH2 0x1081 JUMP JUMPDEST AND PUSH1 0x40 DUP7 ADD MSTORE PUSH2 0xFFFF PUSH2 0x438B PUSH1 0x20 DUP4 ADD PUSH2 0x1128 JUMP JUMPDEST AND PUSH1 0x60 DUP7 ADD MSTORE PUSH6 0xFFFFFFFFFFFF PUSH1 0x40 DUP3 ADD CALLDATALOAD PUSH2 0x43A6 DUP2 PUSH2 0x3976 JUMP JUMPDEST AND PUSH1 0x80 DUP7 ADD MSTORE PUSH2 0x43CA PUSH2 0x43BB PUSH1 0x60 DUP4 ADD PUSH2 0x3986 JUMP JUMPDEST PUSH6 0xFFFFFFFFFFFF AND PUSH1 0xA0 DUP8 ADD MSTORE JUMP JUMPDEST PUSH2 0x43E3 PUSH2 0x43D9 PUSH1 0x80 DUP4 ADD PUSH2 0x408F JUMP JUMPDEST PUSH1 0xFF AND PUSH1 0xC0 DUP8 ADD MSTORE JUMP JUMPDEST PUSH2 0x43FE PUSH2 0x43F2 PUSH1 0xA0 DUP4 ADD PUSH2 0x409D JUMP JUMPDEST PUSH4 0xFFFFFFFF AND DUP7 DUP5 ADD MSTORE JUMP JUMPDEST PUSH2 0x4419 PUSH2 0x440D PUSH1 0xC0 DUP4 ADD PUSH2 0x1128 JUMP JUMPDEST PUSH2 0xFFFF AND PUSH2 0x100 DUP8 ADD MSTORE JUMP JUMPDEST ADD PUSH2 0x900 JUMP JUMPDEST PUSH1 0x40 MLOAD SWAP1 PUSH2 0x100 DUP3 ADD DUP3 DUP2 LT PUSH1 0x1 PUSH1 0x1 PUSH1 0x40 SHL SUB DUP3 GT OR PUSH2 0x1019 JUMPI PUSH1 0x40 MSTORE PUSH0 PUSH1 0xE0 DUP4 DUP3 DUP2 MSTORE DUP3 PUSH1 0x20 DUP3 ADD MSTORE DUP3 PUSH1 0x40 DUP3 ADD MSTORE DUP3 PUSH1 0x60 DUP3 ADD MSTORE DUP3 PUSH1 0x80 DUP3 ADD MSTORE DUP3 PUSH1 0xA0 DUP3 ADD MSTORE DUP3 PUSH1 0xC0 DUP3 ADD MSTORE ADD MSTORE JUMP JUMPDEST SWAP1 SWAP4 SWAP3 PUSH1 0xE0 PUSH2 0x120 SWAP2 PUSH2 0x1069 SWAP5 PUSH2 0x140 DUP6 ADD SWAP8 PUSH1 0x1 DUP1 PUSH1 0xA0 SHL SUB AND DUP6 MSTORE PUSH1 0x1 DUP1 PUSH1 0xA0 SHL SUB AND PUSH1 0x20 DUP6 ADD MSTORE PUSH1 0x1 PUSH1 0x1 PUSH1 0x50 SHL SUB DUP2 MLOAD AND PUSH1 0x40 DUP6 ADD MSTORE PUSH2 0xFFFF PUSH1 0x20 DUP3 ADD MLOAD AND PUSH1 0x60 DUP6 ADD MSTORE PUSH6 0xFFFFFFFFFFFF PUSH1 0x40 DUP3 ADD MLOAD AND PUSH1 0x80 DUP6 ADD MSTORE PUSH2 0x44DF PUSH1 0x60 DUP3 ADD MLOAD PUSH1 0xA0 DUP7 ADD SWAP1 PUSH6 0xFFFFFFFFFFFF AND SWAP1 MSTORE JUMP JUMPDEST PUSH1 0x80 DUP2 ADD MLOAD PUSH1 0xFF AND PUSH1 0xC0 DUP6 ADD MSTORE PUSH1 0xA0 DUP2 ADD MLOAD PUSH4 0xFFFFFFFF AND DUP5 DUP4 ADD MSTORE PUSH1 0xC0 DUP2 ADD MLOAD PUSH2 0xFFFF AND PUSH2 0x100 DUP6 ADD MSTORE ADD MLOAD ISZERO ISZERO SWAP2 ADD MSTORE JUMP JUMPDEST SWAP1 CALLDATALOAD SWAP1 PUSH1 0x1E NOT DUP2 CALLDATASIZE SUB ADD DUP3 SLT ISZERO PUSH2 0x4CB JUMPI ADD DUP1 CALLDATALOAD SWAP1 PUSH1 0x1 PUSH1 0x1 PUSH1 0x40 SHL SUB DUP3 GT PUSH2 0x4CB JUMPI PUSH1 0x20 ADD SWAP2 PUSH1 0xE0 DUP3 MUL CALLDATASIZE SUB DUP4 SGT PUSH2 0x4CB JUMPI JUMP JUMPDEST SWAP2 SWAP1 DUP2 LT ISZERO PUSH2 0x15D3 JUMPI PUSH1 0xE0 MUL ADD SWAP1 JUMP JUMPDEST PUSH1 0x1 PUSH1 0x1 PUSH1 0xA0 SHL SUB SWAP2 DUP3 AND DUP2 MSTORE SWAP2 AND PUSH1 0x20 DUP3 ADD MSTORE PUSH2 0x120 DUP2 ADD SWAP3 SWAP2 PUSH2 0x1069 SWAP2 SWAP1 PUSH2 0x100 SWAP1 PUSH2 0x4617 SWAP1 PUSH1 0xC0 SWAP1 PUSH1 0x1 PUSH1 0x1 PUSH1 0x50 SHL SUB PUSH2 0x4594 DUP3 PUSH2 0x1081 JUMP JUMPDEST AND PUSH1 0x40 DUP7 ADD MSTORE PUSH3 0xFFFFFF PUSH2 0x45AA PUSH1 0x20 DUP4 ADD PUSH2 0x10A7 JUMP JUMPDEST AND PUSH1 0x60 DUP7 ADD MSTORE PUSH5 0xFFFFFFFFFF PUSH2 0x45C2 PUSH1 0x40 DUP4 ADD PUSH2 0x10F3 JUMP JUMPDEST AND PUSH1 0x80 DUP7 ADD MSTORE PUSH5 0xFFFFFFFFFF PUSH2 0x45DA PUSH1 0x60 DUP4 ADD PUSH2 0x10F3 JUMP JUMPDEST AND PUSH1 0xA0 DUP7 ADD MSTORE PUSH5 0xFFFFFFFFFF PUSH2 0x45F2 PUSH1 0x80 DUP4 ADD PUSH2 0x10F3 JUMP JUMPDEST AND DUP3 DUP7 ADD MSTORE PUSH2 0x4611 PUSH2 0x4606 PUSH1 0xA0 DUP4 ADD PUSH2 0x1128 JUMP JUMPDEST PUSH2 0xFFFF AND PUSH1 0xE0 DUP8 ADD MSTORE JUMP JUMPDEST ADD PUSH2 0x1128 JUMP JUMPDEST PUSH2 0xFFFF AND SWAP2 ADD MSTORE JUMP JUMPDEST PUSH1 0x40 MLOAD SWAP1 PUSH2 0x462D DUP3 PUSH2 0xFFE JUMP JUMPDEST PUSH0 PUSH1 0xC0 DUP4 DUP3 DUP2 MSTORE DUP3 PUSH1 0x20 DUP3 ADD MSTORE DUP3 PUSH1 0x40 DUP3 ADD MSTORE DUP3 PUSH1 0x60 DUP3 ADD MSTORE DUP3 PUSH1 0x80 DUP3 ADD MSTORE DUP3 PUSH1 0xA0 DUP3 ADD MSTORE ADD MSTORE JUMP JUMPDEST PUSH1 0x1 PUSH1 0x1 PUSH1 0xA0 SHL SUB SWAP2 DUP3 AND DUP2 MSTORE SWAP2 AND PUSH1 0x20 DUP3 ADD MSTORE PUSH2 0x120 DUP2 ADD SWAP3 SWAP2 PUSH2 0x1069 SWAP2 PUSH1 0x40 ADD SWAP1 PUSH2 0x3D5E JUMP JUMPDEST SWAP3 SWAP2 SWAP1 PUSH2 0x468C DUP3 DUP3 DUP7 PUSH2 0x3A2A JUMP JUMPDEST DUP1 EXTCODESIZE PUSH2 0x4699 JUMPI JUMPDEST POP POP POP POP JUMP JUMPDEST PUSH2 0x46A2 SWAP4 PUSH2 0x4EFC JUMP JUMPDEST ISZERO PUSH2 0x46B0 JUMPI PUSH0 DUP1 DUP1 DUP1 PUSH2 0x4693 JUMP JUMPDEST PUSH4 0x68D2BF6B PUSH1 0xE1 SHL PUSH0 MSTORE PUSH1 0x4 PUSH0 REVERT JUMPDEST PUSH1 0x40 MLOAD SWAP1 PUSH2 0x46CC DUP3 PUSH2 0x101E JUMP JUMPDEST PUSH0 PUSH1 0x60 DUP4 DUP3 DUP2 MSTORE DUP3 PUSH1 0x20 DUP3 ADD MSTORE DUP3 PUSH1 0x40 DUP3 ADD MSTORE ADD MSTORE JUMP JUMPDEST SWAP1 PUSH2 0x46EC PUSH2 0x46BF JUMP JUMPDEST SWAP2 PUSH1 0x1 DUP2 LT ISZERO PUSH2 0x46F9 JUMPI POP JUMP JUMPDEST PUSH0 SLOAD DUP2 LT PUSH2 0x4704 JUMPI POP JUMP JUMPDEST SWAP1 SWAP2 POP JUMPDEST DUP1 PUSH0 MSTORE PUSH1 0x4 PUSH1 0x20 MSTORE PUSH1 0x40 PUSH0 KECCAK256 SLOAD PUSH2 0x4721 JUMPI PUSH0 NOT ADD PUSH2 0x4708 JUMP JUMPDEST PUSH2 0x61D SWAP1 PUSH2 0x4F24 JUMP JUMPDEST SWAP1 DUP2 MLOAD DUP2 LT ISZERO PUSH2 0x15D3 JUMPI ADD PUSH1 0x20 ADD SWAP1 JUMP JUMPDEST PUSH1 0x1 PUSH1 0x1 PUSH1 0xA0 SHL SUB DUP3 AND PUSH20 0x1E0049783F008A0085193E00003D00CD54003C71 EQ PUSH2 0x478D JUMPI PUSH1 0x1 PUSH1 0x1 PUSH1 0xA0 SHL SUB SWAP1 DUP2 AND PUSH0 SWAP1 DUP2 MSTORE PUSH1 0x7 PUSH1 0x20 SWAP1 DUP2 MSTORE PUSH1 0x40 DUP1 DUP4 KECCAK256 SWAP4 SWAP1 SWAP5 AND DUP3 MSTORE SWAP2 SWAP1 SWAP2 MSTORE KECCAK256 PUSH1 0xFF SWAP1 SLOAD AND SWAP1 JUMP JUMPDEST POP POP PUSH1 0x1 SWAP1 JUMP JUMPDEST SWAP1 PUSH0 SWAP2 DUP1 PUSH1 0x1 GT ISZERO PUSH2 0x47A3 JUMPI POP JUMP JUMPDEST PUSH0 SLOAD DUP2 LT PUSH2 0x47AE JUMPI POP JUMP JUMPDEST SWAP1 SWAP2 POP JUMPDEST DUP1 PUSH0 MSTORE PUSH1 0x4 PUSH1 0x20 MSTORE PUSH1 0x40 PUSH0 KECCAK256 SLOAD DUP1 PUSH2 0x47D3 JUMPI POP DUP1 ISZERO PUSH2 0xB24 JUMPI PUSH0 NOT ADD PUSH2 0x47B2 JUMP JUMPDEST PUSH1 0x1 PUSH1 0xE0 SHL AND ISZERO SWAP2 SWAP1 POP JUMP JUMPDEST PUSH4 0x2CE44B5F PUSH1 0xE1 SHL PUSH0 MSTORE PUSH1 0x4 PUSH0 REVERT JUMPDEST PUSH3 0xA11481 PUSH1 0xE8 SHL PUSH0 MSTORE PUSH1 0x4 PUSH0 REVERT JUMPDEST PUSH4 0x3A954ECD PUSH1 0xE2 SHL PUSH0 MSTORE PUSH1 0x4 PUSH0 REVERT JUMPDEST PUSH4 0x6F96CDA1 PUSH1 0xE1 SHL PUSH0 MSTORE PUSH1 0x4 PUSH0 REVERT JUMPDEST PUSH4 0xB562E8DD PUSH1 0xE0 SHL PUSH0 MSTORE PUSH1 0x4 PUSH0 REVERT JUMPDEST PUSH3 0x2E0763 PUSH1 0xE8 SHL PUSH0 MSTORE PUSH1 0x4 PUSH0 REVERT JUMPDEST PUSH1 0x1 DUP1 PUSH1 0xA0 SHL SUB PUSH1 0xA SLOAD AND CALLER EQ ADDRESS CALLER EQ OR ISZERO PUSH2 0x484F JUMPI JUMP JUMPDEST PUSH4 0x5FC483C5 PUSH1 0xE0 SHL PUSH0 MSTORE PUSH1 0x4 PUSH0 REVERT JUMPDEST PUSH1 0xA SLOAD PUSH1 0x1 PUSH1 0x1 PUSH1 0xA0 SHL SUB AND CALLER SUB PUSH2 0x484F JUMPI JUMP JUMPDEST PUSH1 0x1 DUP1 PUSH1 0xA0 SHL SUB AND PUSH0 MSTORE PUSH1 0x11 PUSH1 0x20 MSTORE PUSH1 0x1 PUSH1 0xFF PUSH1 0x40 PUSH0 KECCAK256 SLOAD AND ISZERO ISZERO SUB PUSH2 0x4894 JUMPI JUMP JUMPDEST PUSH4 0x15E26FF3 PUSH1 0xE0 SHL PUSH0 MSTORE PUSH1 0x4 PUSH0 REVERT JUMPDEST DUP1 PUSH1 0x1 GT PUSH2 0x480B JUMPI PUSH2 0x48BD DUP2 PUSH0 MSTORE PUSH1 0x4 PUSH1 0x20 MSTORE PUSH1 0x40 PUSH0 KECCAK256 SWAP1 JUMP JUMPDEST SLOAD SWAP1 DUP2 ISZERO PUSH2 0x48D4 JUMPI POP PUSH1 0x1 PUSH1 0xE0 SHL DUP2 AND PUSH2 0x480B JUMPI SWAP1 JUMP JUMPDEST SWAP1 POP PUSH0 SLOAD DUP2 LT ISZERO PUSH2 0x480B JUMPI JUMPDEST PUSH0 NOT ADD PUSH0 DUP2 DUP2 MSTORE PUSH1 0x4 PUSH1 0x20 MSTORE PUSH1 0x40 SWAP1 KECCAK256 SLOAD SWAP1 DUP2 ISZERO PUSH2 0x4907 JUMPI POP PUSH1 0x1 PUSH1 0xE0 SHL DUP2 AND PUSH2 0x480B JUMPI SWAP1 JUMP JUMPDEST SWAP1 POP PUSH2 0x48E0 JUMP JUMPDEST PUSH1 0x1 PUSH1 0x1 PUSH1 0xA0 SHL SUB DUP2 AND ISZERO ISZERO DUP1 DUP1 PUSH2 0x49B2 JUMPI JUMPDEST PUSH2 0x827 JUMPI DUP1 PUSH2 0x49AB JUMPI JUMPDEST PUSH2 0x4933 JUMPI POP POP JUMP JUMPDEST PUSH1 0x9 SLOAD PUSH1 0x1 PUSH1 0x1 PUSH1 0xA0 SHL SUB AND SWAP2 DUP3 PUSH2 0x494A JUMPI POP POP POP JUMP JUMPDEST DUP3 EXTCODESIZE ISZERO PUSH2 0x4CB JUMPI PUSH1 0x40 MLOAD PUSH4 0x657711F5 PUSH1 0xE1 SHL DUP2 MSTORE CALLER PUSH1 0x4 DUP3 ADD MSTORE PUSH1 0x1 PUSH1 0x1 PUSH1 0xA0 SHL SUB SWAP3 SWAP1 SWAP3 AND PUSH1 0x24 DUP4 ADD MSTORE PUSH0 PUSH1 0x44 DUP4 ADD DUP2 SWAP1 MSTORE PUSH1 0x64 DUP4 ADD SWAP2 SWAP1 SWAP2 MSTORE SWAP1 SWAP2 DUP3 SWAP1 PUSH1 0x84 SWAP1 DUP3 SWAP1 GAS STATICCALL DUP1 ISZERO PUSH2 0xA1F JUMPI PUSH2 0x499D JUMPI POP JUMP JUMPDEST DUP1 PUSH2 0x2217 PUSH0 PUSH2 0x1069 SWAP4 PUSH2 0x1039 JUMP JUMPDEST POP PUSH0 PUSH2 0x492B JUMP JUMPDEST POP PUSH1 0xFF PUSH1 0x13 SLOAD AND PUSH2 0x4921 JUMP JUMPDEST SWAP1 SWAP2 PUSH1 0x1 PUSH1 0x1 PUSH1 0xA0 SHL SUB DUP3 AND ISZERO ISZERO DUP1 DUP1 PUSH2 0x4A79 JUMPI JUMPDEST PUSH2 0x827 JUMPI DUP1 PUSH2 0x4A67 JUMPI JUMPDEST PUSH2 0x49E6 JUMPI POP POP POP JUMP JUMPDEST PUSH1 0x9 SLOAD PUSH1 0x1 PUSH1 0x1 PUSH1 0xA0 SHL SUB AND DUP1 PUSH2 0x49FD JUMPI POP POP POP POP JUMP JUMPDEST DUP1 EXTCODESIZE ISZERO PUSH2 0x4CB JUMPI PUSH1 0x40 MLOAD PUSH4 0x657711F5 PUSH1 0xE1 SHL DUP2 MSTORE CALLER PUSH1 0x4 DUP3 ADD MSTORE PUSH1 0x1 PUSH1 0x1 PUSH1 0xA0 SHL SUB SWAP4 DUP5 AND PUSH1 0x24 DUP3 ADD MSTORE SWAP4 SWAP1 SWAP3 AND PUSH1 0x44 DUP5 ADD MSTORE PUSH1 0x64 DUP4 ADD MSTORE PUSH0 SWAP1 DUP3 SWAP1 PUSH1 0x84 SWAP1 DUP3 SWAP1 GAS STATICCALL DUP1 ISZERO PUSH2 0xA1F JUMPI PUSH2 0x4A53 JUMPI JUMPDEST DUP1 DUP1 DUP1 PUSH2 0x4693 JUMP JUMPDEST DUP1 PUSH2 0x2217 PUSH0 PUSH2 0x4A61 SWAP4 PUSH2 0x1039 JUMP JUMPDEST PUSH0 PUSH2 0x4A4B JUMP JUMPDEST POP PUSH1 0x1 PUSH1 0x1 PUSH1 0xA0 SHL SUB DUP4 AND ISZERO ISZERO PUSH2 0x49DD JUMP JUMPDEST POP PUSH1 0xFF PUSH1 0x13 SLOAD AND PUSH2 0x49D3 JUMP JUMPDEST PUSH0 SLOAD PUSH0 NOT DUP3 DUP3 ADD DUP2 ADD SWAP3 SWAP2 ADD DUP3 LT PUSH2 0xB24 JUMPI PUSH1 0xC SLOAD DUP1 SWAP3 GT PUSH2 0x4AA5 JUMPI POP POP JUMP JUMPDEST PUSH0 SLOAD PUSH0 NOT SWAP2 DUP2 ADD DUP3 ADD SWAP2 ADD DUP2 LT PUSH2 0xB24 JUMPI PUSH4 0x384B48C5 PUSH1 0xE2 SHL PUSH0 MSTORE PUSH1 0x4 MSTORE PUSH1 0x24 MSTORE PUSH1 0x44 PUSH0 REVERT JUMPDEST PUSH1 0xFF PUSH1 0x16 SLOAD PUSH1 0x10 SHR AND ISZERO PUSH2 0x4B2A JUMPI PUSH0 NOT PUSH0 SLOAD ADD SWAP1 PUSH0 JUMPDEST DUP2 DUP2 LT PUSH2 0x4AED JUMPI POP POP POP JUMP JUMPDEST DUP1 DUP4 ADD SWAP1 DUP2 DUP5 GT PUSH2 0xB24 JUMPI PUSH1 0x1 DUP3 ADD SWAP2 DUP3 DUP2 GT PUSH2 0xB24 JUMPI PUSH1 0xC SLOAD SWAP3 DUP2 DUP7 GT PUSH2 0xB24 JUMPI PUSH2 0x4B1E PUSH2 0x4B24 SWAP3 PUSH1 0x1 SWAP6 PUSH2 0x403B JUMP JUMPDEST SWAP1 PUSH2 0x565C JUMP JUMPDEST ADD PUSH2 0x4AE1 JUMP JUMPDEST PUSH4 0x636402DF PUSH1 0xE0 SHL PUSH0 MSTORE PUSH1 0x4 PUSH0 REVERT JUMPDEST SWAP2 PUSH1 0x40 MLOAD SWAP1 PUSH2 0x4B49 PUSH1 0x20 DUP4 PUSH2 0x1039 JUMP JUMPDEST PUSH0 DUP3 MSTORE PUSH1 0xFF PUSH1 0x16 SLOAD AND PUSH2 0x4C99 JUMPI PUSH2 0x4B5F DUP4 PUSH2 0x4A85 JUMP JUMPDEST PUSH2 0x4B68 DUP4 PUSH2 0x4ACB JUMP JUMPDEST PUSH0 SLOAD SWAP2 DUP4 ISZERO PUSH2 0x4C94 JUMPI PUSH1 0x1 PUSH1 0x1 PUSH1 0xA0 SHL SUB DUP6 AND TIMESTAMP PUSH1 0xA0 SHL PUSH1 0x1 DUP7 EQ PUSH1 0xE1 SHL OR OR PUSH2 0x4B9A DUP5 PUSH0 MSTORE PUSH1 0x4 PUSH1 0x20 MSTORE PUSH1 0x40 PUSH0 KECCAK256 SWAP1 JUMP JUMPDEST SSTORE PUSH1 0x1 PUSH1 0x1 PUSH1 0xA0 SHL SUB DUP6 AND PUSH0 DUP2 DUP2 MSTORE PUSH1 0x5 PUSH1 0x20 MSTORE PUSH1 0x40 SWAP1 KECCAK256 DUP1 SLOAD PUSH9 0x10000000000000001 DUP8 MUL ADD SWAP1 SSTORE SWAP4 DUP5 ISZERO PUSH2 0x4C8F JUMPI DUP1 DUP5 ADD SWAP4 SWAP6 PUSH1 0x1 JUMPDEST ISZERO PUSH2 0x4C05 JUMPI JUMPDEST PUSH0 DUP8 DUP8 PUSH0 PUSH32 0xDDF252AD1BE2C89B69C2B068FC378DAA952BA7F163C4A11628F55A4DF523B3EF DUP2 DUP1 LOG4 PUSH2 0x4BD2 JUMP JUMPDEST SWAP6 PUSH1 0x1 ADD SWAP6 DUP5 DUP8 SUB PUSH2 0x4BD8 JUMPI PUSH0 DUP6 SWAP1 SSTORE SWAP3 SWAP6 POP SWAP1 SWAP4 POP SWAP2 PUSH0 NOT ADD PUSH1 0xC SLOAD EQ PUSH2 0x4C78 JUMPI JUMPDEST DUP1 EXTCODESIZE PUSH2 0x4C33 JUMPI POP POP POP JUMP JUMPDEST SWAP1 SWAP2 SWAP3 PUSH0 SLOAD SWAP3 DUP4 SUB SWAP3 PUSH1 0x1 JUMPDEST ISZERO PUSH2 0x4C63 JUMPI JUMPDEST PUSH0 PUSH2 0x4C58 PUSH2 0xC53 DUP8 PUSH1 0x1 DUP9 ADD SWAP8 DUP8 PUSH2 0x4E5D JUMP JUMPDEST ISZERO PUSH2 0x4C3F JUMPI JUMPDEST PUSH2 0x46B0 JUMP JUMPDEST DUP1 DUP5 LT PUSH2 0x4C45 JUMPI SWAP3 POP SWAP3 POP POP PUSH0 SLOAD SUB PUSH2 0x4CB JUMPI JUMP JUMPDEST PUSH2 0x4C8A PUSH1 0x1 PUSH1 0xFF NOT PUSH1 0x16 SLOAD AND OR PUSH1 0x16 SSTORE JUMP JUMPDEST PUSH2 0x4C28 JUMP JUMPDEST PUSH2 0x4829 JUMP JUMPDEST PUSH2 0x481A JUMP JUMPDEST PUSH4 0x6CE844D PUSH1 0xE0 SHL PUSH0 MSTORE PUSH1 0x4 PUSH0 REVERT JUMPDEST PUSH1 0x1 PUSH1 0x1 PUSH1 0x40 SHL SUB DUP3 GT PUSH2 0x1019 JUMPI PUSH9 0x10000000000000000 DUP3 GT PUSH2 0x1019 JUMPI PUSH1 0x12 SLOAD DUP3 PUSH1 0x12 SSTORE DUP1 DUP4 LT PUSH2 0x4D0A JUMPI JUMPDEST POP PUSH1 0x12 PUSH0 MSTORE PUSH1 0x20 PUSH0 KECCAK256 PUSH0 JUMPDEST DUP4 DUP2 LT PUSH2 0x4CED JUMPI POP POP POP POP JUMP JUMPDEST PUSH1 0x1 SWAP1 PUSH1 0x20 DUP5 CALLDATALOAD SWAP5 PUSH2 0x4CFE DUP7 PUSH2 0x762 JUMP JUMPDEST ADD SWAP4 DUP2 DUP5 ADD SSTORE ADD PUSH2 0x4CE0 JUMP JUMPDEST PUSH1 0x12 PUSH0 MSTORE PUSH2 0x4D3D SWAP1 DUP4 SWAP1 SUB PUSH32 0xBB8A6A4669BA250D26CD7A459ECA9D215F8307E33AEBE50379BC5A3617EC3444 DUP5 ADD PUSH2 0x3E49 JUMP JUMPDEST PUSH0 PUSH2 0x4CD5 JUMP JUMPDEST PUSH1 0x20 DUP1 DUP3 MSTORE DUP2 ADD DUP4 SWAP1 MSTORE PUSH1 0x40 ADD SWAP2 PUSH0 JUMPDEST DUP2 DUP2 LT PUSH2 0x4D60 JUMPI POP POP POP SWAP1 JUMP JUMPDEST SWAP1 SWAP2 SWAP3 PUSH1 0x20 DUP1 PUSH1 0x1 SWAP3 DUP7 CALLDATALOAD PUSH2 0x4D74 DUP2 PUSH2 0x762 JUMP JUMPDEST DUP5 DUP1 PUSH1 0xA0 SHL SUB AND DUP2 MSTORE ADD SWAP5 ADD SWAP2 ADD SWAP2 SWAP1 SWAP2 PUSH2 0x4D53 JUMP JUMPDEST PUSH4 0xFFFFFFFE PUSH0 NOT DUP3 ADD LT ISZERO PUSH2 0x4DDB JUMPI PUSH1 0x28 SLOAD PUSH2 0x4DCE JUMPI PUSH1 0x28 PUSH0 DUP2 SWAP1 MSTORE PUSH1 0xE0 SWAP2 SWAP1 SWAP2 SHL PUSH28 0xE16DA923A2D88192E5070F37B4571D58682C0D66212EC63400000000 OR SWAP1 SSTORE JUMP JUMPDEST PUSH4 0xC9F11F2 PUSH0 MSTORE PUSH1 0x4 PUSH1 0x1C REVERT JUMPDEST PUSH4 0x83B53941 PUSH0 MSTORE PUSH1 0x4 PUSH1 0x1C REVERT JUMPDEST SWAP1 DUP2 PUSH1 0x20 SWAP2 SUB SLT PUSH2 0x4CB JUMPI MLOAD PUSH2 0x61D DUP2 PUSH2 0x4B9 JUMP JUMPDEST PUSH1 0x1 PUSH1 0x1 PUSH1 0xA0 SHL SUB SWAP2 DUP3 AND DUP2 MSTORE SWAP2 AND PUSH1 0x20 DUP3 ADD MSTORE PUSH1 0x40 DUP2 ADD SWAP2 SWAP1 SWAP2 MSTORE PUSH1 0x80 PUSH1 0x60 DUP3 ADD DUP2 SWAP1 MSTORE PUSH2 0x61D SWAP3 SWAP2 ADD SWAP1 PUSH2 0x5E8 JUMP JUMPDEST RETURNDATASIZE ISZERO PUSH2 0x4E58 JUMPI RETURNDATASIZE SWAP1 PUSH2 0x4E3F DUP3 PUSH2 0x2F84 JUMP JUMPDEST SWAP2 PUSH2 0x4E4D PUSH1 0x40 MLOAD SWAP4 DUP5 PUSH2 0x1039 JUMP JUMPDEST DUP3 MSTORE RETURNDATASIZE PUSH0 PUSH1 0x20 DUP5 ADD RETURNDATACOPY JUMP JUMPDEST PUSH1 0x60 SWAP1 JUMP JUMPDEST SWAP2 PUSH2 0x4E84 SWAP3 PUSH1 0x20 SWAP3 PUSH0 PUSH1 0x40 MLOAD DUP1 SWAP7 DUP2 SWAP6 DUP3 SWAP5 PUSH4 0xA85BD01 PUSH1 0xE1 SHL DUP5 MSTORE DUP5 CALLER PUSH1 0x4 DUP7 ADD PUSH2 0x4DFD JUMP JUMPDEST SUB SWAP3 PUSH1 0x1 PUSH1 0x1 PUSH1 0xA0 SHL SUB AND GAS CALL PUSH0 SWAP2 DUP2 PUSH2 0x4ECB JUMPI JUMPDEST POP PUSH2 0x4EB5 JUMPI PUSH2 0x4EA6 PUSH2 0x4E2E JUMP JUMPDEST DUP1 MLOAD ISZERO PUSH2 0x4C5E JUMPI DUP1 MLOAD SWAP1 PUSH1 0x20 ADD REVERT JUMPDEST PUSH1 0x1 PUSH1 0x1 PUSH1 0xE0 SHL SUB NOT AND PUSH4 0xA85BD01 PUSH1 0xE1 SHL EQ SWAP1 JUMP JUMPDEST PUSH2 0x4EEE SWAP2 SWAP3 POP PUSH1 0x20 RETURNDATASIZE PUSH1 0x20 GT PUSH2 0x4EF5 JUMPI JUMPDEST PUSH2 0x4EE6 DUP2 DUP4 PUSH2 0x1039 JUMP JUMPDEST DUP2 ADD SWAP1 PUSH2 0x4DE8 JUMP JUMPDEST SWAP1 PUSH0 PUSH2 0x4E99 JUMP JUMPDEST POP RETURNDATASIZE PUSH2 0x4EDC JUMP JUMPDEST SWAP1 PUSH1 0x20 SWAP3 PUSH0 PUSH2 0x4E84 SWAP6 SWAP4 PUSH1 0x40 MLOAD SWAP7 DUP8 SWAP6 DUP7 SWAP5 DUP6 SWAP4 PUSH4 0xA85BD01 PUSH1 0xE1 SHL DUP6 MSTORE CALLER PUSH1 0x4 DUP7 ADD PUSH2 0x4DFD JUMP JUMPDEST PUSH2 0x4F2C PUSH2 0x46BF JUMP JUMPDEST POP PUSH0 MSTORE PUSH1 0x4 PUSH1 0x20 MSTORE PUSH1 0x40 PUSH0 KECCAK256 SLOAD PUSH2 0x4F41 PUSH2 0x46BF JUMP JUMPDEST PUSH1 0x1 PUSH1 0x1 PUSH1 0xA0 SHL SUB DUP3 AND DUP2 MSTORE PUSH1 0xA0 DUP3 SWAP1 SHR PUSH1 0x1 PUSH1 0x1 PUSH1 0x40 SHL SUB AND PUSH1 0x20 DUP3 ADD MSTORE PUSH1 0x1 PUSH1 0xE0 SHL DUP3 AND ISZERO ISZERO PUSH1 0x40 DUP3 ADD MSTORE PUSH1 0xE8 SWAP2 SWAP1 SWAP2 SHR PUSH1 0x60 DUP3 ADD MSTORE SWAP1 JUMP JUMPDEST DUP2 PUSH1 0x1F DUP3 ADD SLT ISZERO PUSH2 0x4CB JUMPI DUP1 MLOAD SWAP1 PUSH2 0x4F93 DUP3 PUSH2 0x2F84 JUMP JUMPDEST SWAP3 PUSH2 0x4FA1 PUSH1 0x40 MLOAD SWAP5 DUP6 PUSH2 0x1039 JUMP JUMPDEST DUP3 DUP5 MSTORE PUSH1 0x20 DUP4 DUP4 ADD ADD GT PUSH2 0x4CB JUMPI DUP2 PUSH0 SWAP3 PUSH1 0x20 DUP1 SWAP4 ADD DUP4 DUP7 ADD MCOPY DUP4 ADD ADD MSTORE SWAP1 JUMP JUMPDEST SWAP2 SWAP1 SWAP2 PUSH1 0x40 DUP2 DUP5 SUB SLT PUSH2 0x4CB JUMPI DUP1 MLOAD PUSH1 0x1 PUSH1 0x1 PUSH1 0x40 SHL SUB DUP2 GT PUSH2 0x4CB JUMPI DUP4 PUSH2 0x4FEB SWAP2 DUP4 ADD PUSH2 0x4F7C JUMP JUMPDEST SWAP3 PUSH1 0x20 DUP3 ADD MLOAD PUSH1 0x1 PUSH1 0x1 PUSH1 0x40 SHL SUB DUP2 GT PUSH2 0x4CB JUMPI PUSH2 0x61D SWAP3 ADD PUSH2 0x4F7C JUMP JUMPDEST DUP1 MLOAD SWAP2 SWAP1 DUP3 SWAP1 PUSH1 0x20 ADD DUP3 MCOPY ADD PUSH0 DUP2 MSTORE SWAP1 JUMP JUMPDEST SWAP1 PUSH2 0x1069 PUSH2 0x503D SWAP3 PUSH1 0x40 MLOAD SWAP4 DUP5 SWAP2 PUSH1 0x23 PUSH1 0xF8 SHL PUSH1 0x20 DUP5 ADD MSTORE PUSH1 0x21 DUP4 ADD SWAP1 PUSH2 0x5009 JUMP JUMPDEST SUB PUSH1 0x1F NOT DUP2 ADD DUP5 MSTORE DUP4 PUSH2 0x1039 JUMP JUMPDEST PUSH2 0x1069 SWAP1 PUSH2 0x503D PUSH2 0x5069 SWAP5 SWAP4 PUSH1 0x2 PUSH1 0x40 MLOAD SWAP7 DUP8 SWAP5 PUSH1 0x20 DUP7 ADD SWAP1 PUSH2 0x5009 JUMP JUMPDEST PUSH2 0x1D1 PUSH1 0xF5 SHL DUP2 MSTORE ADD SWAP1 PUSH2 0x5009 JUMP JUMPDEST PUSH1 0x10 DUP2 LT ISZERO PUSH2 0x15D3 JUMPI PUSH1 0x17 ADD SWAP1 PUSH0 SWAP1 JUMP JUMPDEST SWAP1 PUSH1 0x40 MLOAD SWAP2 PUSH8 0x189037B310189D1 PUSH1 0xC5 SHL PUSH1 0x20 DUP5 ADD MSTORE DUP3 PUSH0 DUP3 SLOAD SWAP3 PUSH2 0x50AD DUP5 PUSH2 0x354B JUMP JUMPDEST SWAP4 PUSH1 0x1 DUP2 AND SWAP1 DUP2 ISZERO PUSH2 0x5116 JUMPI POP PUSH1 0x1 EQ PUSH2 0x50D6 JUMPI JUMPDEST POP PUSH2 0x1069 SWAP3 POP SUB PUSH1 0x1F NOT DUP2 ADD DUP5 MSTORE DUP4 PUSH2 0x1039 JUMP JUMPDEST SWAP2 POP POP PUSH0 MSTORE DUP3 PUSH1 0x20 PUSH0 KECCAK256 PUSH0 SWAP1 JUMPDEST DUP4 DUP3 LT PUSH2 0x50FB JUMPI POP POP PUSH1 0x28 PUSH2 0x1069 SWAP3 DUP3 ADD ADD PUSH0 PUSH2 0x50C2 JUMP JUMPDEST PUSH1 0x20 SWAP2 SWAP3 POP DUP1 PUSH1 0x1 SWAP2 SLOAD PUSH1 0x28 DUP6 DUP10 ADD ADD MSTORE ADD SWAP2 ADD DUP5 SWAP2 PUSH2 0x50E3 JUMP JUMPDEST SWAP1 POP PUSH1 0x28 SWAP3 POP PUSH2 0x1069 SWAP5 SWAP2 POP PUSH1 0xFF NOT AND DUP3 DUP5 ADD MSTORE DUP1 ISZERO ISZERO MUL DUP3 ADD ADD PUSH0 PUSH2 0x50C2 JUMP JUMPDEST PUSH1 0x40 MLOAD SWAP1 PUSH2 0x5146 PUSH1 0x40 DUP4 PUSH2 0x1039 JUMP JUMPDEST PUSH1 0xF DUP3 MSTORE PUSH15 0x556E72657665616C65642050756E6B PUSH1 0x88 SHL PUSH1 0x20 DUP4 ADD MSTORE JUMP JUMPDEST PUSH1 0x40 MLOAD SWAP1 PUSH2 0x5173 PUSH1 0x40 DUP4 PUSH2 0x1039 JUMP JUMPDEST PUSH1 0x16 DUP3 MSTORE PUSH22 0x2BB0B4BA103337B9103A3432903932BB32B0B6171717 PUSH1 0x51 SHL PUSH1 0x20 DUP4 ADD MSTORE JUMP JUMPDEST PUSH2 0x5238 PUSH2 0x51D4 SWAP6 SWAP5 PUSH1 0x24 PUSH2 0x5201 PUSH2 0x1069 SWAP7 PUSH1 0x2 PUSH2 0x51F2 DUP2 SWAP9 PUSH1 0x11 PUSH1 0x40 MLOAD SWAP14 DUP15 SWAP11 PUSH9 0x3D913730B6B2911D11 PUSH1 0xB9 SHL PUSH1 0x20 DUP14 ADD MSTORE PUSH1 0x29 DUP13 ADD SWAP1 PUSH2 0x5009 JUMP JUMPDEST PUSH17 0x1116113232B9B1B934B83A34B7B7111D11 PUSH1 0x79 SHL DUP2 MSTORE ADD SWAP1 PUSH2 0x5009 JUMP JUMPDEST PUSH2 0x88B PUSH1 0xF2 SHL DUP2 MSTORE ADD SWAP1 PUSH2 0x5009 JUMP JUMPDEST PUSH32 0x2C22696D616765223A22646174613A696D6167652F7376672B786D6C3B626173 DUP2 MSTORE PUSH4 0x194D8D0B PUSH1 0xE2 SHL PUSH1 0x20 DUP3 ADD MSTORE ADD SWAP1 PUSH2 0x5009 JUMP JUMPDEST PUSH2 0x227D PUSH1 0xF0 SHL DUP2 MSTORE SUB PUSH1 0x1D NOT DUP2 ADD DUP6 MSTORE ADD DUP4 PUSH2 0x1039 JUMP JUMPDEST SWAP1 PUSH2 0x1069 PUSH2 0x503D SWAP3 PUSH1 0x40 MLOAD SWAP4 DUP5 SWAP2 PUSH32 0x646174613A6170706C69636174696F6E2F6A736F6E3B6261736536342C000000 PUSH1 0x20 DUP5 ADD MSTORE PUSH1 0x3D DUP4 ADD SWAP1 PUSH2 0x5009 JUMP JUMPDEST SWAP3 SWAP4 SWAP1 SWAP5 PUSH0 SWAP1 PUSH2 0x52F1 SWAP4 PUSH2 0x52BB PUSH2 0x52AF PUSH1 0x13 SLOAD PUSH1 0x1 DUP1 PUSH1 0xA0 SHL SUB SWAP1 PUSH1 0x8 SHR AND SWAP1 JUMP JUMPDEST PUSH1 0x1 PUSH1 0x1 PUSH1 0xA0 SHL SUB AND SWAP1 JUMP JUMPDEST SWAP1 PUSH1 0x40 MLOAD DUP1 SWAP7 DUP2 SWAP5 DUP3 SWAP4 PUSH4 0x7D134433 PUSH1 0xE0 SHL DUP5 MSTORE DUP13 PUSH1 0x4 DUP6 ADD PUSH1 0xFF PUSH1 0x40 SWAP3 SWAP6 SWAP5 SWAP4 PUSH2 0xFFFF PUSH1 0x60 DUP5 ADD SWAP8 AND DUP4 MSTORE AND PUSH1 0x20 DUP3 ADD MSTORE ADD MSTORE JUMP JUMPDEST SUB SWAP2 GAS STATICCALL SWAP1 DUP2 ISZERO PUSH2 0xA1F JUMPI PUSH2 0x61D SWAP6 PUSH2 0x5351 SWAP6 PUSH2 0x534C SWAP6 PUSH0 SWAP6 PUSH0 SWAP6 PUSH2 0x5400 JUMPI JUMPDEST POP PUSH1 0x16 SLOAD PUSH2 0x5323 SWAP1 PUSH1 0x18 SHR PUSH1 0xFF AND ISZERO SWAP1 JUMP JUMPDEST ISZERO PUSH2 0x5356 JUMPI POP POP POP POP PUSH2 0x5334 PUSH2 0x5137 JUMP JUMPDEST SWAP2 PUSH2 0x5346 PUSH2 0x5340 PUSH2 0x5164 JUMP JUMPDEST SWAP2 PUSH2 0x5864 JUMP JUMPDEST SWAP3 PUSH2 0x5198 JUMP JUMPDEST PUSH2 0x5864 JUMP JUMPDEST PUSH2 0x524F JUMP JUMPDEST SWAP3 SWAP5 SWAP3 PUSH2 0x5346 SWAP3 SWAP2 SWAP1 PUSH1 0x7 PUSH2 0xFFFF DUP5 AND LT ISZERO PUSH2 0x53C7 JUMPI PUSH2 0x537F DUP2 PUSH2 0x5384 PUSH2 0x537F PUSH2 0x538A SWAP5 PUSH2 0x57DA JUMP JUMPDEST PUSH2 0x501B JUMP JUMPDEST POP PUSH2 0x57DA JUMP JUMPDEST DUP2 MLOAD PUSH1 0x20 DUP4 ADD KECCAK256 PUSH2 0x53A0 SWAP1 SWAP2 PUSH1 0x20 DUP2 MLOAD SWAP2 ADD KECCAK256 SWAP1 JUMP JUMPDEST SUB PUSH2 0x53BF JUMPI POP PUSH2 0x53B2 PUSH2 0x53B8 SWAP2 PUSH2 0x5078 JUMP JUMPDEST POP PUSH2 0x5089 JUMP JUMPDEST SWAP4 SWAP2 PUSH2 0x5864 JUMP JUMPDEST SWAP1 POP SWAP4 PUSH2 0x5340 JUMP JUMPDEST PUSH2 0x53D6 SWAP2 SWAP3 POP PUSH2 0x537F SWAP1 PUSH2 0x57DA JUMP JUMPDEST DUP2 MLOAD PUSH1 0x20 DUP4 ADD KECCAK256 DUP2 MLOAD PUSH1 0x20 DUP4 ADD KECCAK256 SUB PUSH2 0x53F1 JUMPI POP JUMPDEST SWAP4 PUSH2 0x5340 JUMP JUMPDEST SWAP1 PUSH2 0x53FB SWAP2 PUSH2 0x504B JUMP JUMPDEST PUSH2 0x53EB JUMP JUMPDEST SWAP1 SWAP5 POP PUSH2 0x5420 SWAP2 SWAP6 POP RETURNDATASIZE DUP1 PUSH0 DUP4 RETURNDATACOPY PUSH2 0x5418 DUP2 DUP4 PUSH2 0x1039 JUMP JUMPDEST DUP2 ADD SWAP1 PUSH2 0x4FC2 JUMP JUMPDEST SWAP5 SWAP1 SWAP5 SWAP4 PUSH0 PUSH2 0x5311 JUMP JUMPDEST PUSH1 0x1 PUSH1 0x1 PUSH1 0xA0 SHL SUB SWAP1 PUSH2 0x543C SWAP1 PUSH2 0x48A3 JUMP JUMPDEST AND CALLER SUB PUSH2 0x5445 JUMPI JUMP JUMPDEST PUSH4 0x4143FBF9 PUSH1 0xE0 SHL PUSH0 MSTORE PUSH1 0x4 PUSH0 REVERT JUMPDEST PUSH1 0x40 MLOAD SWAP1 PUSH2 0x5463 PUSH1 0x40 DUP4 PUSH2 0x1039 JUMP JUMPDEST PUSH1 0x1C DUP3 MSTORE PUSH32 0x4120526574726F50756E6B206C6976696E67206F6E2D636861696E2E00000000 PUSH1 0x20 DUP4 ADD MSTORE JUMP JUMPDEST SWAP2 SWAP1 SWAP2 DUP3 MLOAD PUSH1 0x1 PUSH1 0x1 PUSH1 0x40 SHL SUB DUP2 GT PUSH2 0x1019 JUMPI PUSH2 0x54B0 DUP2 PUSH2 0x3F90 DUP5 SLOAD PUSH2 0x354B JUMP JUMPDEST PUSH1 0x20 PUSH1 0x1F DUP3 GT PUSH1 0x1 EQ PUSH2 0x54EA JUMPI DUP2 SWAP1 PUSH2 0x3FC4 SWAP4 SWAP5 SWAP6 PUSH0 SWAP3 PUSH2 0x54DF JUMPI POP POP DUP2 PUSH1 0x1 SHL SWAP2 PUSH0 NOT SWAP1 PUSH1 0x3 SHL SHR NOT AND OR SWAP1 JUMP JUMPDEST ADD MLOAD SWAP1 POP PUSH0 DUP1 PUSH2 0x1288 JUMP JUMPDEST PUSH1 0x1F NOT DUP3 AND SWAP1 PUSH2 0x54FD DUP5 PUSH0 MSTORE PUSH1 0x20 PUSH0 KECCAK256 SWAP1 JUMP JUMPDEST SWAP2 PUSH0 JUMPDEST DUP2 DUP2 LT PUSH2 0x5536 JUMPI POP SWAP6 DUP4 PUSH1 0x1 SWAP6 SWAP7 SWAP8 LT PUSH2 0x551E JUMPI POP POP POP DUP2 SHL ADD SWAP1 SSTORE JUMP JUMPDEST ADD MLOAD PUSH0 NOT PUSH1 0xF8 DUP5 PUSH1 0x3 SHL AND SHR NOT AND SWAP1 SSTORE PUSH0 DUP1 DUP1 PUSH2 0x3FF2 JUMP JUMPDEST SWAP2 SWAP3 PUSH1 0x20 PUSH1 0x1 DUP2 SWAP3 DUP7 DUP12 ADD MLOAD DUP2 SSTORE ADD SWAP5 ADD SWAP3 ADD PUSH2 0x5500 JUMP JUMPDEST DUP2 MLOAD DUP2 SLOAD PUSH1 0x20 DUP5 ADD MLOAD PUSH3 0xFF0000 PUSH1 0x10 SWAP2 SWAP1 SWAP2 SHL AND PUSH2 0xFFFF SWAP1 SWAP3 AND PUSH3 0xFFFFFF NOT SWAP1 SWAP2 AND OR OR DUP2 SSTORE SWAP1 PUSH1 0x1 DUP3 ADD PUSH1 0x40 DUP3 ADD MLOAD DUP1 MLOAD SWAP1 PUSH1 0x1 PUSH1 0x1 PUSH1 0x40 SHL SUB DUP3 GT PUSH2 0x1019 JUMPI PUSH2 0x55A3 DUP3 PUSH2 0x559D DUP6 SLOAD PUSH2 0x354B JUMP JUMPDEST DUP6 PUSH2 0x3F2D JUMP JUMPDEST PUSH1 0x20 SWAP1 PUSH1 0x1F DUP4 GT PUSH1 0x1 EQ PUSH2 0x55E8 JUMPI SWAP3 PUSH2 0x55DC DUP4 PUSH1 0x60 SWAP5 PUSH2 0x1069 SWAP9 SWAP8 SWAP5 PUSH1 0x2 SWAP8 PUSH0 SWAP3 PUSH2 0x54DF JUMPI POP POP DUP2 PUSH1 0x1 SHL SWAP2 PUSH0 NOT SWAP1 PUSH1 0x3 SHL SHR NOT AND OR SWAP1 JUMP JUMPDEST SWAP1 SSTORE JUMPDEST ADD MLOAD SWAP2 ADD PUSH2 0x548F JUMP JUMPDEST SWAP1 PUSH1 0x1F NOT DUP4 AND SWAP2 PUSH2 0x55FC DUP6 PUSH0 MSTORE PUSH1 0x20 PUSH0 KECCAK256 SWAP1 JUMP JUMPDEST SWAP3 PUSH0 JUMPDEST DUP2 DUP2 LT PUSH2 0x5644 JUMPI POP SWAP4 PUSH2 0x1069 SWAP8 SWAP7 SWAP4 PUSH1 0x2 SWAP7 SWAP4 PUSH1 0x1 SWAP4 DUP4 PUSH1 0x60 SWAP9 LT PUSH2 0x562C JUMPI JUMPDEST POP POP POP DUP2 SHL ADD SWAP1 SSTORE PUSH2 0x55DF JUMP JUMPDEST ADD MLOAD PUSH0 NOT PUSH1 0xF8 DUP5 PUSH1 0x3 SHL AND SHR NOT AND SWAP1 SSTORE PUSH0 DUP1 DUP1 PUSH2 0x561F JUMP JUMPDEST SWAP3 SWAP4 PUSH1 0x20 PUSH1 0x1 DUP2 SWAP3 DUP8 DUP7 ADD MLOAD DUP2 SSTORE ADD SWAP6 ADD SWAP4 ADD PUSH2 0x55FF JUMP JUMPDEST SWAP1 ISZERO PUSH2 0x57CB JUMPI PUSH1 0x28 SLOAD PUSH1 0x15 SLOAD PUSH1 0x40 DUP1 MLOAD PUSH1 0x20 DUP2 ADD SWAP3 DUP4 MSTORE PUSH4 0xFFFFFFFF SWAP1 SWAP4 AND SWAP1 DUP4 ADD MSTORE SWAP1 PUSH2 0x568D DUP2 PUSH1 0x60 DUP2 ADD PUSH2 0x19A0 JUMP JUMPDEST MLOAD SWAP1 KECCAK256 SWAP1 PUSH1 0x28 SLOAD SWAP2 DUP3 PUSH4 0xFFFFFFFF AND DUP4 PUSH1 0xE0 SHR SWAP1 DUP1 DUP3 EQ PUSH2 0x57BE JUMPI PUSH2 0x1069 SWAP5 PUSH2 0x5763 PUSH2 0x5770 SWAP4 PUSH2 0x575E SWAP4 PUSH2 0x57B9 SWAP7 PUSH0 MSTORE DUP1 PUSH1 0x20 MSTORE DUP4 PUSH2 0xFFFE DUP3 DUP1 DUP6 SUB PUSH1 0x40 PUSH0 KECCAK256 MOD ADD SWAP4 GT PUSH2 0x5712 DUP5 DUP4 DUP4 SWAP1 PUSH1 0x1 DUP1 PUSH1 0xC0 SHL SUB SWAP1 PUSH1 0x20 SHR AND DUP3 DUP3 PUSH1 0x4 SUB SHR ADD SLOAD PUSH1 0xF DUP3 SHR DUP4 AND DUP3 PUSH1 0x4 ADD SHL SHR SWAP1 PUSH1 0x1 PUSH1 0x10 PUSH0 NOT SWAP3 SHL SHL ADD AND DUP1 ISZERO ISZERO SWAP1 PUSH0 NOT ADD DUP3 XOR MUL XOR SWAP1 JUMP JUMPDEST SWAP7 DUP8 SWAP5 PUSH2 0x5756 DUP6 DUP6 DUP6 SWAP1 PUSH1 0x1 DUP1 PUSH1 0xC0 SHL SUB SWAP1 PUSH1 0x20 SHR AND DUP3 DUP3 PUSH1 0x4 SUB SHR ADD SLOAD PUSH1 0xF DUP3 SHR DUP4 AND DUP3 PUSH1 0x4 ADD SHL SHR SWAP1 PUSH1 0x1 PUSH1 0x10 PUSH0 NOT SWAP3 SHL SHL ADD AND DUP1 ISZERO ISZERO SWAP1 PUSH0 NOT ADD DUP3 XOR MUL XOR SWAP1 JUMP JUMPDEST SWAP1 DUP5 DUP5 PUSH2 0x581F JUMP JUMPDEST PUSH2 0x581F JUMP JUMPDEST PUSH1 0x1 ADD PUSH1 0x28 SSTORE PUSH2 0xFFFF AND SWAP1 JUMP JUMPDEST SWAP2 PUSH2 0x577D PUSH2 0x537F DUP3 PUSH2 0x57DA JUMP JUMPDEST PUSH2 0x5792 PUSH2 0x5788 PUSH2 0x105A JUMP JUMPDEST PUSH2 0xFFFF SWAP1 SWAP6 AND DUP6 MSTORE JUMP JUMPDEST PUSH1 0x1 PUSH1 0x20 DUP6 ADD MSTORE PUSH1 0x40 DUP5 ADD MSTORE PUSH2 0x57A6 PUSH2 0x5454 JUMP JUMPDEST PUSH1 0x60 DUP5 ADD MSTORE PUSH0 MSTORE PUSH1 0x27 PUSH1 0x20 MSTORE PUSH1 0x40 PUSH0 KECCAK256 SWAP1 JUMP JUMPDEST PUSH2 0x554E JUMP JUMPDEST PUSH4 0x51065F79 PUSH0 MSTORE PUSH1 0x4 PUSH1 0x1C REVERT JUMPDEST PUSH4 0xABC61E7 PUSH1 0xE4 SHL PUSH0 MSTORE PUSH1 0x4 PUSH0 REVERT JUMPDEST SWAP1 PUSH1 0x40 MLOAD PUSH1 0xA PUSH1 0x80 DUP3 ADD SWAP4 PUSH1 0xA0 DUP4 ADD PUSH1 0x40 MSTORE PUSH0 DUP6 MSTORE SWAP4 JUMPDEST PUSH0 NOT ADD SWAP4 PUSH1 0x30 DUP3 DUP3 MOD ADD DUP6 MSTORE8 DIV SWAP3 DUP4 ISZERO PUSH2 0x580D JUMPI PUSH1 0xA SWAP1 PUSH2 0x57F1 JUMP JUMPDEST DUP1 SWAP4 POP PUSH1 0x80 SWAP2 SUB ADD SWAP2 PUSH1 0x1F NOT ADD SWAP2 DUP3 MSTORE JUMP JUMPDEST SWAP3 SWAP2 SWAP1 PUSH1 0x1 DUP1 PUSH1 0xC0 SHL SUB SWAP1 PUSH1 0x20 SHR AND DUP2 DUP5 PUSH1 0x4 SUB SHR ADD SWAP3 PUSH1 0xF DUP2 SHR DUP3 AND DUP2 PUSH1 0x4 ADD SHL SWAP2 DUP5 SLOAD SWAP4 PUSH1 0x1 DUP2 ADD SWAP2 EQ ISZERO MUL DUP4 DUP4 SHR XOR SWAP1 PUSH1 0x1 PUSH1 0x10 PUSH0 NOT SWAP3 SHL SHL ADD AND SWAP1 SHL XOR SWAP1 SSTORE JUMP JUMPDEST SWAP1 PUSH1 0x60 SWAP2 DUP1 MLOAD DUP1 PUSH2 0x5873 JUMPI POP POP JUMP JUMPDEST SWAP1 SWAP3 POP PUSH1 0x3 PUSH1 0x2 DUP3 ADD DIV PUSH1 0x2 SHL SWAP1 PUSH1 0x40 MLOAD SWAP4 PUSH32 0x4142434445464748494A4B4C4D4E4F505152535455565758595A616263646566 PUSH1 0x1F MSTORE PUSH2 0x670 PUSH32 0x6768696A6B6C6D6E6F707172737475767778797A303132333435363738392D5F XOR PUSH1 0x3F MSTORE PUSH1 0x20 DUP6 ADD SWAP2 DUP4 DUP7 ADD SWAP3 PUSH1 0x4 PUSH1 0x3 PUSH1 0x20 DUP7 ADD SWAP5 JUMPDEST ADD SWAP2 PUSH1 0x3F DUP4 MLOAD DUP2 DUP2 PUSH1 0x12 SHR AND MLOAD PUSH0 MSTORE8 DUP2 DUP2 PUSH1 0xC SHR AND MLOAD PUSH1 0x1 MSTORE8 DUP2 DUP2 PUSH1 0x6 SHR AND MLOAD PUSH1 0x2 MSTORE8 AND MLOAD PUSH1 0x3 MSTORE8 PUSH0 MLOAD DUP2 MSTORE ADD SWAP1 DUP4 DUP3 LT ISZERO PUSH2 0x5925 JUMPI PUSH1 0x4 SWAP1 PUSH1 0x3 SWAP1 PUSH2 0x58E4 JUMP JUMPDEST POP SWAP2 POP PUSH1 0x40 PUSH0 SWAP4 ADD PUSH1 0x40 MSTORE PUSH1 0x3 PUSH2 0x3D3D PUSH1 0xF0 SHL SWAP2 MOD PUSH1 0x2 DIV DUP3 SUB MSTORE MSTORE DUP3 MSTORE JUMP INVALID LOG2 PUSH5 0x6970667358 0x22 SLT KECCAK256 RJUMP 0xB820 SHR PUSH1 0x11 0xB3 MSTORE8 0xDE 0xFC 0xF7 SLT 0x25 0x29 PUSH4 0xB97515B3 NUMBER 0xD7 DUP5 0x2D 0xB7 LOG3 EQ CLZ COINBASE 0xBF JUMPI EXP 0xBD PUSH5 0x736F6C6343 STOP ADDMOD 0x21 STOP CALLER BLOCKHASH JUMPI DUP8 STATICCALL SLT 0xA8 0x23 RJUMP 0xF2B7 PUSH4 0x1CC41B3B 0xA8 DUP3 DUP12 CALLER 0x21 0xCA DUP2 GT GT STATICCALL PUSH22 0xCD3AA3BB5ACE00000000000000000000000000000000 "
		},
		"gasEstimates": {
			"creation": {
				"codeDepositCost": "4581400",
				"executionCost": "infinite",
				"totalCost": "infinite"
			},
			"external": {
				"COMMITTED_GLOBAL_SEED_HASH()": "infinite",
				"COMMITTED_SHUFFLER_SEED_HASH()": "infinite",
				"acceptOwnership()": "52069",
				"approve(address,uint256)": "infinite",
				"balanceOf(address)": "3241",
				"baseURI()": "infinite",
				"burn(uint256)": "infinite",
				"cancelOwnershipTransfer()": "27822",
				"closeMint()": "27202",
				"contractURI()": "infinite",
				"defaultBackgroundIndex()": "1760",
				"emitBatchMetadataUpdate(uint256,uint256)": "4836",
				"explicitOwnershipOf(uint256)": "infinite",
				"explicitOwnershipsOf(uint256[])": "infinite",
				"getApproved(uint256)": "infinite",
				"getMintStats(address)": "7601",
				"getTransferValidationFunction()": "334",
				"getTransferValidator()": "2394",
				"globalSeed()": "2304",
				"globalSeedRevealed()": "3356",
				"globalTokenMetadata(uint256)": "infinite",
				"isApprovedForAll(address,address)": "infinite",
				"maxSupply()": "3668",
				"mintIsClosed()": "2514",
				"mintSeaDrop(address,uint256)": "infinite",
				"multiConfigure((uint256,string,string,address,(uint80,uint48,uint48,uint16,uint16,bool),string,(bytes32,string[],string),address,bytes32,address[],address[],address[],address[],address[],(uint80,uint16,uint48,uint48,uint8,uint32,uint16,bool)[],address[],address[],(uint80,uint24,uint40,uint40,uint40,uint16,uint16)[],address[]))": "infinite",
				"name()": "infinite",
				"owner()": "3296",
				"ownerMint(address,uint256)": "infinite",
				"ownerMintsRemaining()": "2822",
				"ownerOf(uint256)": "infinite",
				"provenanceHash()": "3580",
				"renderer()": "3283",
				"renounceOwnership()": "28856",
				"revealGlobalSeed(uint256,uint256)": "infinite",
				"revealShufflerSeed(uint256,uint256)": "infinite",
				"royaltyAddress()": "3538",
				"royaltyBasisPoints()": "2618",
				"royaltyInfo(uint256,uint256)": "2690",
				"safeTransferFrom(address,address,uint256)": "infinite",
				"safeTransferFrom(address,address,uint256,bytes)": "infinite",
				"setApprovalForAll(address,bool)": "29810",
				"setBaseURI(string)": "infinite",
				"setContractURI(string)": "infinite",
				"setMaxSupply(uint256)": "28369",
				"setOwnerMintsRemaining(uint16)": "27225",
				"setProvenanceHash(bytes32)": "30090",
				"setRenderer(address,bool)": "60152",
				"setRoyaltyInfo((address,uint96))": "infinite",
				"setTokenBackground(uint256,uint256)": "infinite",
				"setTokenBio(uint256,string)": "infinite",
				"setTokenName(uint256,string)": "infinite",
				"setTransferValidator(address)": "29272",
				"shufflerSeed()": "3404",
				"shufflerSeedRevealed()": "3114",
				"supportsInterface(bytes4)": "728",
				"symbol()": "infinite",
				"tokenURI(uint256)": "infinite",
				"tokensOfOwner(address)": "infinite",
				"tokensOfOwnerIn(address,uint256,uint256)": "infinite",
				"totalSupply()": "4575",
				"transferFrom(address,address,uint256)": "infinite",
				"transferOwnership(address)": "29216",
				"transfersPaused()": "2712",
				"updateAllowList(address,(bytes32,string[],string))": "infinite",
				"updateAllowedFeeRecipient(address,address,bool)": "infinite",
				"updateAllowedSeaDrop(address[])": "infinite",
				"updateCreatorPayoutAddress(address,address)": "infinite",
				"updateDropURI(address,string)": "infinite",
				"updatePayer(address,address,bool)": "infinite",
				"updatePublicDrop(address,(uint80,uint48,uint48,uint16,uint16,bool))": "infinite",
				"updateSignedMintValidationParams(address,address,(uint80,uint24,uint40,uint40,uint40,uint16,uint16))": "infinite",
				"updateTokenGatedDrop(address,address,(uint80,uint16,uint48,uint48,uint8,uint32,uint16,bool))": "infinite",
				"updateTransfersPaused(bool)": "27773"
			},
			"internal": {
				"_addInternalMintMetadata(uint256)": "infinite",
				"_checkMaxSupply(uint256)": "6471",
				"_getInitialName(uint256)": "infinite",
				"_mint(address,uint256)": "infinite",
				"_notPreRenderedSpecial(uint256)": "infinite",
				"_onlyTokenOwner(uint256)": "infinite",
				"_saveNewSeed(uint256,uint256)": "infinite",
				"_tokenExists(uint256)": "infinite",
				"renderDataUri(uint256,uint16,uint8,string memory,string memory,uint256)": "infinite"
			}
		},
		"methodIdentifiers": {
			"COMMITTED_GLOBAL_SEED_HASH()": "f4cc7105",
			"COMMITTED_SHUFFLER_SEED_HASH()": "9b7406a5",
			"acceptOwnership()": "79ba5097",
			"approve(address,uint256)": "095ea7b3",
			"balanceOf(address)": "70a08231",
			"baseURI()": "6c0360eb",
			"burn(uint256)": "42966c68",
			"cancelOwnershipTransfer()": "23452b9c",
			"closeMint()": "64f101f0",
			"contractURI()": "e8a3d485",
			"defaultBackgroundIndex()": "fe97b576",
			"emitBatchMetadataUpdate(uint256,uint256)": "a4830114",
			"explicitOwnershipOf(uint256)": "c23dc68f",
			"explicitOwnershipsOf(uint256[])": "5bbb2177",
			"getApproved(uint256)": "081812fc",
			"getMintStats(address)": "840e15d4",
			"getTransferValidationFunction()": "0d705df6",
			"getTransferValidator()": "098144d4",
			"globalSeed()": "07aafa98",
			"globalSeedRevealed()": "9559a5d9",
			"globalTokenMetadata(uint256)": "db846dbe",
			"isApprovedForAll(address,address)": "e985e9c5",
			"maxSupply()": "d5abeb01",
			"mintIsClosed()": "1dbd7390",
			"mintSeaDrop(address,uint256)": "64869dad",
			"multiConfigure((uint256,string,string,address,(uint80,uint48,uint48,uint16,uint16,bool),string,(bytes32,string[],string),address,bytes32,address[],address[],address[],address[],address[],(uint80,uint16,uint48,uint48,uint8,uint32,uint16,bool)[],address[],address[],(uint80,uint24,uint40,uint40,uint40,uint16,uint16)[],address[]))": "911f456b",
			"name()": "06fdde03",
			"owner()": "8da5cb5b",
			"ownerMint(address,uint256)": "484b973c",
			"ownerMintsRemaining()": "5743bdff",
			"ownerOf(uint256)": "6352211e",
			"provenanceHash()": "c6ab67a3",
			"renderer()": "8ada6b0f",
			"renounceOwnership()": "715018a6",
			"revealGlobalSeed(uint256,uint256)": "853b3b4c",
			"revealShufflerSeed(uint256,uint256)": "73c5643a",
			"royaltyAddress()": "ad2f852a",
			"royaltyBasisPoints()": "42260b5d",
			"royaltyInfo(uint256,uint256)": "2a55205a",
			"safeTransferFrom(address,address,uint256)": "42842e0e",
			"safeTransferFrom(address,address,uint256,bytes)": "b88d4fde",
			"setApprovalForAll(address,bool)": "a22cb465",
			"setBaseURI(string)": "55f804b3",
			"setContractURI(string)": "938e3d7b",
			"setMaxSupply(uint256)": "6f8b44b0",
			"setOwnerMintsRemaining(uint16)": "61e567c9",
			"setProvenanceHash(bytes32)": "099b6bfa",
			"setRenderer(address,bool)": "ea066c67",
			"setRoyaltyInfo((address,uint96))": "44dae42c",
			"setTokenBackground(uint256,uint256)": "d74b6857",
			"setTokenBio(uint256,string)": "f598f1da",
			"setTokenName(uint256,string)": "cdb0e89e",
			"setTransferValidator(address)": "a9fc664e",
			"shufflerSeed()": "99c5def3",
			"shufflerSeedRevealed()": "74e4f5af",
			"supportsInterface(bytes4)": "01ffc9a7",
			"symbol()": "95d89b41",
			"tokenURI(uint256)": "c87b56dd",
			"tokensOfOwner(address)": "8462151c",
			"tokensOfOwnerIn(address,uint256,uint256)": "99a2557a",
			"totalSupply()": "18160ddd",
			"transferFrom(address,address,uint256)": "23b872dd",
			"transferOwnership(address)": "f2fde38b",
			"transfersPaused()": "4563f30a",
			"updateAllowList(address,(bytes32,string[],string))": "3680620d",
			"updateAllowedFeeRecipient(address,address,bool)": "48a4c101",
			"updateAllowedSeaDrop(address[])": "60c308b6",
			"updateCreatorPayoutAddress(address,address)": "66251b69",
			"updateDropURI(address,string)": "7a05bc82",
			"updatePayer(address,address,bool)": "cb743ba8",
			"updatePublicDrop(address,(uint80,uint48,uint48,uint16,uint16,bool))": "1b73593c",
			"updateSignedMintValidationParams(address,address,(uint80,uint24,uint40,uint40,uint40,uint16,uint16))": "511aa644",
			"updateTokenGatedDrop(address,address,(uint80,uint16,uint48,uint48,uint8,uint32,uint16,bool))": "7bc2be76",
			"updateTransfersPaused(bool)": "0d9d713b"
		}
	},
	"abi": [
		{
			"inputs": [
				{
					"internalType": "contract ISVGRenderer",
					"name": "_rendererParam",
					"type": "address"
				},
				{
					"internalType": "bytes32",
					"name": "_committedGlobalSeedHashParam",
					"type": "bytes32"
				},
				{
					"internalType": "bytes32",
					"name": "_committedShufflerSeedHashParam",
					"type": "bytes32"
				},
				{
					"internalType": "uint256",
					"name": "_maxSupplyParam",
					"type": "uint256"
				},
				{
					"internalType": "address[]",
					"name": "allowedSeaDropParam",
					"type": "address[]"
				}
			],
			"stateMutability": "nonpayable",
			"type": "constructor"
		},
		{
			"inputs": [],
			"name": "AlreadyInitialized",
			"type": "error"
		},
		{
			"inputs": [],
			"name": "ApprovalCallerNotOwnerNorApproved",
			"type": "error"
		},
		{
			"inputs": [],
			"name": "ApprovalQueryForNonexistentToken",
			"type": "error"
		},
		{
			"inputs": [],
			"name": "BalanceQueryForZeroAddress",
			"type": "error"
		},
		{
			"inputs": [],
			"name": "BioIsTooLong",
			"type": "error"
		},
		{
			"inputs": [],
			"name": "CallerIsNotTokenOwner",
			"type": "error"
		},
		{
			"inputs": [
				{
					"internalType": "uint256",
					"name": "newMaxSupply",
					"type": "uint256"
				}
			],
			"name": "CannotExceedMaxSupplyOfUint64",
			"type": "error"
		},
		{
			"inputs": [],
			"name": "GlobalSeedAlreadyRevealed",
			"type": "error"
		},
		{
			"inputs": [],
			"name": "InvalidBackgroundIndex",
			"type": "error"
		},
		{
			"inputs": [],
			"name": "InvalidCharacterInName",
			"type": "error"
		},
		{
			"inputs": [],
			"name": "InvalidGlobalSeedReveal",
			"type": "error"
		},
		{
			"inputs": [],
			"name": "InvalidQueryRange",
			"type": "error"
		},
		{
			"inputs": [
				{
					"internalType": "uint256",
					"name": "basisPoints",
					"type": "uint256"
				}
			],
			"name": "InvalidRoyaltyBasisPoints",
			"type": "error"
		},
		{
			"inputs": [],
			"name": "InvalidShufflerSeedReveal",
			"type": "error"
		},
		{
			"inputs": [],
			"name": "MetadataNotRevealedYet",
			"type": "error"
		},
		{
			"inputs": [],
			"name": "MintERC2309QuantityExceedsLimit",
			"type": "error"
		},
		{
			"inputs": [],
			"name": "MintIsClosed",
			"type": "error"
		},
		{
			"inputs": [
				{
					"internalType": "uint256",
					"name": "total",
					"type": "uint256"
				},
				{
					"internalType": "uint256",
					"name": "maxSupply",
					"type": "uint256"
				}
			],
			"name": "MintQuantityExceedsMaxSupply",
			"type": "error"
		},
		{
			"inputs": [],
			"name": "MintToZeroAddress",
			"type": "error"
		},
		{
			"inputs": [],
			"name": "MintZeroQuantity",
			"type": "error"
		},
		{
			"inputs": [],
			"name": "NameIsTooLong",
			"type": "error"
		},
		{
			"inputs": [
				{
					"internalType": "uint256",
					"name": "got",
					"type": "uint256"
				},
				{
					"internalType": "uint256",
					"name": "totalMinted",
					"type": "uint256"
				}
			],
			"name": "NewMaxSupplyCannotBeLessThenTotalMinted",
			"type": "error"
		},
		{
			"inputs": [],
			"name": "NewOwnerIsZeroAddress",
			"type": "error"
		},
		{
			"inputs": [],
			"name": "NoRemainingTokens",
			"type": "error"
		},
		{
			"inputs": [],
			"name": "NonExistentToken",
			"type": "error"
		},
		{
			"inputs": [],
			"name": "NotCompatibleWithSpotMints",
			"type": "error"
		},
		{
			"inputs": [],
			"name": "NotEnoughOwnerMintsRemaining",
			"type": "error"
		},
		{
			"inputs": [],
			"name": "NotNextOwner",
			"type": "error"
		},
		{
			"inputs": [],
			"name": "OnlyAllowedSeaDrop",
			"type": "error"
		},
		{
			"inputs": [],
			"name": "OnlyOwner",
			"type": "error"
		},
		{
			"inputs": [],
			"name": "OwnerQueryForNonexistentToken",
			"type": "error"
		},
		{
			"inputs": [],
			"name": "OwnershipNotInitializedForExtraData",
			"type": "error"
		},
		{
			"inputs": [],
			"name": "PreRenderedSpecialCannotBeCustomized",
			"type": "error"
		},
		{
			"inputs": [],
			"name": "ProvenanceHashCannotBeSetAfterMintStarted",
			"type": "error"
		},
		{
			"inputs": [],
			"name": "Reentrancy",
			"type": "error"
		},
		{
			"inputs": [],
			"name": "RoyaltyAddressCannotBeZeroAddress",
			"type": "error"
		},
		{
			"inputs": [],
			"name": "SameTransferValidator",
			"type": "error"
		},
		{
			"inputs": [],
			"name": "SequentialMintExceedsLimit",
			"type": "error"
		},
		{
			"inputs": [],
			"name": "SequentialUpToTooSmall",
			"type": "error"
		},
		{
			"inputs": [],
			"name": "ShufflerSeedAlreadyRevealed",
			"type": "error"
		},
		{
			"inputs": [],
			"name": "ShufflerSeedNotRevealedYet",
			"type": "error"
		},
		{
			"inputs": [],
			"name": "SignersMismatch",
			"type": "error"
		},
		{
			"inputs": [],
			"name": "SpotMintTokenIdTooSmall",
			"type": "error"
		},
		{
			"inputs": [],
			"name": "TokenAlreadyExists",
			"type": "error"
		},
		{
			"inputs": [],
			"name": "TokenGatedMismatch",
			"type": "error"
		},
		{
			"inputs": [],
			"name": "TokenIdsNotStrictlyAscending",
			"type": "error"
		},
		{
			"inputs": [],
			"name": "TransferCallerNotOwnerNorApproved",
			"type": "error"
		},
		{
			"inputs": [],
			"name": "TransferFromIncorrectOwner",
			"type": "error"
		},
		{
			"inputs": [],
			"name": "TransferToNonERC721ReceiverImplementer",
			"type": "error"
		},
		{
			"inputs": [],
			"name": "TransferToZeroAddress",
			"type": "error"
		},
		{
			"inputs": [],
			"name": "TransfersPaused",
			"type": "error"
		},
		{
			"inputs": [],
			"name": "URIQueryForNonexistentToken",
			"type": "error"
		},
		{
			"anonymous": false,
			"inputs": [
				{
					"indexed": false,
					"internalType": "address[]",
					"name": "allowedSeaDrop",
					"type": "address[]"
				}
			],
			"name": "AllowedSeaDropUpdated",
			"type": "event"
		},
		{
			"anonymous": false,
			"inputs": [
				{
					"indexed": true,
					"internalType": "address",
					"name": "owner",
					"type": "address"
				},
				{
					"indexed": true,
					"internalType": "address",
					"name": "approved",
					"type": "address"
				},
				{
					"indexed": true,
					"internalType": "uint256",
					"name": "tokenId",
					"type": "uint256"
				}
			],
			"name": "Approval",
			"type": "event"
		},
		{
			"anonymous": false,
			"inputs": [
				{
					"indexed": true,
					"internalType": "address",
					"name": "owner",
					"type": "address"
				},
				{
					"indexed": true,
					"internalType": "address",
					"name": "operator",
					"type": "address"
				},
				{
					"indexed": false,
					"internalType": "bool",
					"name": "approved",
					"type": "bool"
				}
			],
			"name": "ApprovalForAll",
			"type": "event"
		},
		{
			"anonymous": false,
			"inputs": [
				{
					"indexed": true,
					"internalType": "uint256",
					"name": "tokenId",
					"type": "uint256"
				},
				{
					"indexed": true,
					"internalType": "uint256",
					"name": "backgroundIndex",
					"type": "uint256"
				},
				{
					"indexed": true,
					"internalType": "address",
					"name": "owner",
					"type": "address"
				}
			],
			"name": "BackgroundChanged",
			"type": "event"
		},
		{
			"anonymous": false,
			"inputs": [
				{
					"indexed": false,
					"internalType": "uint256",
					"name": "_fromTokenId",
					"type": "uint256"
				},
				{
					"indexed": false,
					"internalType": "uint256",
					"name": "_toTokenId",
					"type": "uint256"
				}
			],
			"name": "BatchMetadataUpdate",
			"type": "event"
		},
		{
			"anonymous": false,
			"inputs": [
				{
					"indexed": true,
					"internalType": "uint256",
					"name": "tokenId",
					"type": "uint256"
				},
				{
					"indexed": false,
					"internalType": "string",
					"name": "bio",
					"type": "string"
				},
				{
					"indexed": true,
					"internalType": "address",
					"name": "owner",
					"type": "address"
				}
			],
			"name": "BioChanged",
			"type": "event"
		},
		{
			"anonymous": false,
			"inputs": [
				{
					"indexed": true,
					"internalType": "uint256",
					"name": "fromTokenId",
					"type": "uint256"
				},
				{
					"indexed": false,
					"internalType": "uint256",
					"name": "toTokenId",
					"type": "uint256"
				},
				{
					"indexed": true,
					"internalType": "address",
					"name": "from",
					"type": "address"
				},
				{
					"indexed": true,
					"internalType": "address",
					"name": "to",
					"type": "address"
				}
			],
			"name": "ConsecutiveTransfer",
			"type": "event"
		},
		{
			"anonymous": false,
			"inputs": [
				{
					"indexed": false,
					"internalType": "string",
					"name": "newContractURI",
					"type": "string"
				}
			],
			"name": "ContractURIUpdated",
			"type": "event"
		},
		{
			"anonymous": false,
			"inputs": [
				{
					"indexed": false,
					"internalType": "uint256",
					"name": "seed",
					"type": "uint256"
				}
			],
			"name": "GlobalSeedRevealed",
			"type": "event"
		},
		{
			"anonymous": false,
			"inputs": [
				{
					"indexed": false,
					"internalType": "uint256",
					"name": "newMaxSupply",
					"type": "uint256"
				}
			],
			"name": "MaxSupplyUpdated",
			"type": "event"
		},
		{
			"anonymous": false,
			"inputs": [
				{
					"indexed": false,
					"internalType": "uint256",
					"name": "_tokenId",
					"type": "uint256"
				}
			],
			"name": "MetadataUpdate",
			"type": "event"
		},
		{
			"anonymous": false,
			"inputs": [
				{
					"indexed": true,
					"internalType": "uint256",
					"name": "tokenId",
					"type": "uint256"
				},
				{
					"indexed": false,
					"internalType": "string",
					"name": "name",
					"type": "string"
				},
				{
					"indexed": true,
					"internalType": "address",
					"name": "owner",
					"type": "address"
				}
			],
			"name": "NameChanged",
			"type": "event"
		},
		{
			"anonymous": false,
			"inputs": [
				{
					"indexed": true,
					"internalType": "address",
					"name": "previousOwner",
					"type": "address"
				},
				{
					"indexed": true,
					"internalType": "address",
					"name": "newOwner",
					"type": "address"
				}
			],
			"name": "OwnershipTransferred",
			"type": "event"
		},
		{
			"anonymous": false,
			"inputs": [
				{
					"indexed": false,
					"internalType": "address",
					"name": "newPotentialAdministrator",
					"type": "address"
				}
			],
			"name": "PotentialOwnerUpdated",
			"type": "event"
		},
		{
			"anonymous": false,
			"inputs": [
				{
					"indexed": false,
					"internalType": "bytes32",
					"name": "previousHash",
					"type": "bytes32"
				},
				{
					"indexed": false,
					"internalType": "bytes32",
					"name": "newHash",
					"type": "bytes32"
				}
			],
			"name": "ProvenanceHashUpdated",
			"type": "event"
		},
		{
			"anonymous": false,
			"inputs": [
				{
					"indexed": false,
					"internalType": "address",
					"name": "receiver",
					"type": "address"
				},
				{
					"indexed": false,
					"internalType": "uint256",
					"name": "bps",
					"type": "uint256"
				}
			],
			"name": "RoyaltyInfoUpdated",
			"type": "event"
		},
		{
			"anonymous": false,
			"inputs": [],
			"name": "SeaDropTokenDeployed",
			"type": "event"
		},
		{
			"anonymous": false,
			"inputs": [
				{
					"indexed": false,
					"internalType": "uint256",
					"name": "seed",
					"type": "uint256"
				}
			],
			"name": "ShufflerSeedRevealed",
			"type": "event"
		},
		{
			"anonymous": false,
			"inputs": [
				{
					"indexed": true,
					"internalType": "address",
					"name": "from",
					"type": "address"
				},
				{
					"indexed": true,
					"internalType": "address",
					"name": "to",
					"type": "address"
				},
				{
					"indexed": true,
					"internalType": "uint256",
					"name": "tokenId",
					"type": "uint256"
				}
			],
			"name": "Transfer",
			"type": "event"
		},
		{
			"anonymous": false,
			"inputs": [
				{
					"indexed": false,
					"internalType": "address",
					"name": "oldValidator",
					"type": "address"
				},
				{
					"indexed": false,
					"internalType": "address",
					"name": "newValidator",
					"type": "address"
				}
			],
			"name": "TransferValidatorUpdated",
			"type": "event"
		},
		{
			"anonymous": false,
			"inputs": [
				{
					"indexed": false,
					"internalType": "bool",
					"name": "paused",
					"type": "bool"
				}
			],
			"name": "TransfersPausedChanged",
			"type": "event"
		},
		{
			"inputs": [],
			"name": "COMMITTED_GLOBAL_SEED_HASH",
			"outputs": [
				{
					"internalType": "bytes32",
					"name": "",
					"type": "bytes32"
				}
			],
			"stateMutability": "view",
			"type": "function"
		},
		{
			"inputs": [],
			"name": "COMMITTED_SHUFFLER_SEED_HASH",
			"outputs": [
				{
					"internalType": "bytes32",
					"name": "",
					"type": "bytes32"
				}
			],
			"stateMutability": "view",
			"type": "function"
		},
		{
			"inputs": [],
			"name": "acceptOwnership",
			"outputs": [],
			"stateMutability": "nonpayable",
			"type": "function"
		},
		{
			"inputs": [
				{
					"internalType": "address",
					"name": "to",
					"type": "address"
				},
				{
					"internalType": "uint256",
					"name": "tokenId",
					"type": "uint256"
				}
			],
			"name": "approve",
			"outputs": [],
			"stateMutability": "payable",
			"type": "function"
		},
		{
			"inputs": [
				{
					"internalType": "address",
					"name": "owner",
					"type": "address"
				}
			],
			"name": "balanceOf",
			"outputs": [
				{
					"internalType": "uint256",
					"name": "",
					"type": "uint256"
				}
			],
			"stateMutability": "view",
			"type": "function"
		},
		{
			"inputs": [],
			"name": "baseURI",
			"outputs": [
				{
					"internalType": "string",
					"name": "",
					"type": "string"
				}
			],
			"stateMutability": "view",
			"type": "function"
		},
		{
			"inputs": [
				{
					"internalType": "uint256",
					"name": "tokenId",
					"type": "uint256"
				}
			],
			"name": "burn",
			"outputs": [],
			"stateMutability": "nonpayable",
			"type": "function"
		},
		{
			"inputs": [],
			"name": "cancelOwnershipTransfer",
			"outputs": [],
			"stateMutability": "nonpayable",
			"type": "function"
		},
		{
			"inputs": [],
			"name": "closeMint",
			"outputs": [],
			"stateMutability": "nonpayable",
			"type": "function"
		},
		{
			"inputs": [],
			"name": "contractURI",
			"outputs": [
				{
					"internalType": "string",
					"name": "",
					"type": "string"
				}
			],
			"stateMutability": "view",
			"type": "function"
		},
		{
			"inputs": [],
			"name": "defaultBackgroundIndex",
			"outputs": [
				{
					"internalType": "uint8",
					"name": "",
					"type": "uint8"
				}
			],
			"stateMutability": "view",
			"type": "function"
		},
		{
			"inputs": [
				{
					"internalType": "uint256",
					"name": "fromTokenId",
					"type": "uint256"
				},
				{
					"internalType": "uint256",
					"name": "toTokenId",
					"type": "uint256"
				}
			],
			"name": "emitBatchMetadataUpdate",
			"outputs": [],
			"stateMutability": "nonpayable",
			"type": "function"
		},
		{
			"inputs": [
				{
					"internalType": "uint256",
					"name": "tokenId",
					"type": "uint256"
				}
			],
			"name": "explicitOwnershipOf",
			"outputs": [
				{
					"components": [
						{
							"internalType": "address",
							"name": "addr",
							"type": "address"
						},
						{
							"internalType": "uint64",
							"name": "startTimestamp",
							"type": "uint64"
						},
						{
							"internalType": "bool",
							"name": "burned",
							"type": "bool"
						},
						{
							"internalType": "uint24",
							"name": "extraData",
							"type": "uint24"
						}
					],
					"internalType": "struct IERC721A.TokenOwnership",
					"name": "ownership",
					"type": "tuple"
				}
			],
			"stateMutability": "view",
			"type": "function"
		},
		{
			"inputs": [
				{
					"internalType": "uint256[]",
					"name": "tokenIds",
					"type": "uint256[]"
				}
			],
			"name": "explicitOwnershipsOf",
			"outputs": [
				{
					"components": [
						{
							"internalType": "address",
							"name": "addr",
							"type": "address"
						},
						{
							"internalType": "uint64",
							"name": "startTimestamp",
							"type": "uint64"
						},
						{
							"internalType": "bool",
							"name": "burned",
							"type": "bool"
						},
						{
							"internalType": "uint24",
							"name": "extraData",
							"type": "uint24"
						}
					],
					"internalType": "struct IERC721A.TokenOwnership[]",
					"name": "",
					"type": "tuple[]"
				}
			],
			"stateMutability": "view",
			"type": "function"
		},
		{
			"inputs": [
				{
					"internalType": "uint256",
					"name": "tokenId",
					"type": "uint256"
				}
			],
			"name": "getApproved",
			"outputs": [
				{
					"internalType": "address",
					"name": "",
					"type": "address"
				}
			],
			"stateMutability": "view",
			"type": "function"
		},
		{
			"inputs": [
				{
					"internalType": "address",
					"name": "minter",
					"type": "address"
				}
			],
			"name": "getMintStats",
			"outputs": [
				{
					"internalType": "uint256",
					"name": "minterNumMinted",
					"type": "uint256"
				},
				{
					"internalType": "uint256",
					"name": "currentTotalSupply",
					"type": "uint256"
				},
				{
					"internalType": "uint256",
					"name": "maxSupply",
					"type": "uint256"
				}
			],
			"stateMutability": "view",
			"type": "function"
		},
		{
			"inputs": [],
			"name": "getTransferValidationFunction",
			"outputs": [
				{
					"internalType": "bytes4",
					"name": "functionSignature",
					"type": "bytes4"
				},
				{
					"internalType": "bool",
					"name": "isViewFunction",
					"type": "bool"
				}
			],
			"stateMutability": "pure",
			"type": "function"
		},
		{
			"inputs": [],
			"name": "getTransferValidator",
			"outputs": [
				{
					"internalType": "address",
					"name": "",
					"type": "address"
				}
			],
			"stateMutability": "view",
			"type": "function"
		},
		{
			"inputs": [],
			"name": "globalSeed",
			"outputs": [
				{
					"internalType": "uint256",
					"name": "",
					"type": "uint256"
				}
			],
			"stateMutability": "view",
			"type": "function"
		},
		{
			"inputs": [],
			"name": "globalSeedRevealed",
			"outputs": [
				{
					"internalType": "bool",
					"name": "",
					"type": "bool"
				}
			],
			"stateMutability": "view",
			"type": "function"
		},
		{
			"inputs": [
				{
					"internalType": "uint256",
					"name": "",
					"type": "uint256"
				}
			],
			"name": "globalTokenMetadata",
			"outputs": [
				{
					"internalType": "uint16",
					"name": "tokenIdSeed",
					"type": "uint16"
				},
				{
					"internalType": "uint8",
					"name": "backgroundIndex",
					"type": "uint8"
				},
				{
					"internalType": "string",
					"name": "name",
					"type": "string"
				},
				{
					"internalType": "string",
					"name": "bio",
					"type": "string"
				}
			],
			"stateMutability": "view",
			"type": "function"
		},
		{
			"inputs": [
				{
					"internalType": "address",
					"name": "owner",
					"type": "address"
				},
				{
					"internalType": "address",
					"name": "operator",
					"type": "address"
				}
			],
			"name": "isApprovedForAll",
			"outputs": [
				{
					"internalType": "bool",
					"name": "",
					"type": "bool"
				}
			],
			"stateMutability": "view",
			"type": "function"
		},
		{
			"inputs": [],
			"name": "maxSupply",
			"outputs": [
				{
					"internalType": "uint256",
					"name": "",
					"type": "uint256"
				}
			],
			"stateMutability": "view",
			"type": "function"
		},
		{
			"inputs": [],
			"name": "mintIsClosed",
			"outputs": [
				{
					"internalType": "bool",
					"name": "",
					"type": "bool"
				}
			],
			"stateMutability": "view",
			"type": "function"
		},
		{
			"inputs": [
				{
					"internalType": "address",
					"name": "minter",
					"type": "address"
				},
				{
					"internalType": "uint256",
					"name": "quantity",
					"type": "uint256"
				}
			],
			"name": "mintSeaDrop",
			"outputs": [],
			"stateMutability": "nonpayable",
			"type": "function"
		},
		{
			"inputs": [
				{
					"components": [
						{
							"internalType": "uint256",
							"name": "maxSupply",
							"type": "uint256"
						},
						{
							"internalType": "string",
							"name": "baseURI",
							"type": "string"
						},
						{
							"internalType": "string",
							"name": "contractURI",
							"type": "string"
						},
						{
							"internalType": "address",
							"name": "seaDropImpl",
							"type": "address"
						},
						{
							"components": [
								{
									"internalType": "uint80",
									"name": "mintPrice",
									"type": "uint80"
								},
								{
									"internalType": "uint48",
									"name": "startTime",
									"type": "uint48"
								},
								{
									"internalType": "uint48",
									"name": "endTime",
									"type": "uint48"
								},
								{
									"internalType": "uint16",
									"name": "maxTotalMintableByWallet",
									"type": "uint16"
								},
								{
									"internalType": "uint16",
									"name": "feeBps",
									"type": "uint16"
								},
								{
									"internalType": "bool",
									"name": "restrictFeeRecipients",
									"type": "bool"
								}
							],
							"internalType": "struct PublicDrop",
							"name": "publicDrop",
							"type": "tuple"
						},
						{
							"internalType": "string",
							"name": "dropURI",
							"type": "string"
						},
						{
							"components": [
								{
									"internalType": "bytes32",
									"name": "merkleRoot",
									"type": "bytes32"
								},
								{
									"internalType": "string[]",
									"name": "publicKeyURIs",
									"type": "string[]"
								},
								{
									"internalType": "string",
									"name": "allowListURI",
									"type": "string"
								}
							],
							"internalType": "struct AllowListData",
							"name": "allowListData",
							"type": "tuple"
						},
						{
							"internalType": "address",
							"name": "creatorPayoutAddress",
							"type": "address"
						},
						{
							"internalType": "bytes32",
							"name": "provenanceHash",
							"type": "bytes32"
						},
						{
							"internalType": "address[]",
							"name": "allowedFeeRecipients",
							"type": "address[]"
						},
						{
							"internalType": "address[]",
							"name": "disallowedFeeRecipients",
							"type": "address[]"
						},
						{
							"internalType": "address[]",
							"name": "allowedPayers",
							"type": "address[]"
						},
						{
							"internalType": "address[]",
							"name": "disallowedPayers",
							"type": "address[]"
						},
						{
							"internalType": "address[]",
							"name": "tokenGatedAllowedNftTokens",
							"type": "address[]"
						},
						{
							"components": [
								{
									"internalType": "uint80",
									"name": "mintPrice",
									"type": "uint80"
								},
								{
									"internalType": "uint16",
									"name": "maxTotalMintableByWallet",
									"type": "uint16"
								},
								{
									"internalType": "uint48",
									"name": "startTime",
									"type": "uint48"
								},
								{
									"internalType": "uint48",
									"name": "endTime",
									"type": "uint48"
								},
								{
									"internalType": "uint8",
									"name": "dropStageIndex",
									"type": "uint8"
								},
								{
									"internalType": "uint32",
									"name": "maxTokenSupplyForStage",
									"type": "uint32"
								},
								{
									"internalType": "uint16",
									"name": "feeBps",
									"type": "uint16"
								},
								{
									"internalType": "bool",
									"name": "restrictFeeRecipients",
									"type": "bool"
								}
							],
							"internalType": "struct TokenGatedDropStage[]",
							"name": "tokenGatedDropStages",
							"type": "tuple[]"
						},
						{
							"internalType": "address[]",
							"name": "disallowedTokenGatedAllowedNftTokens",
							"type": "address[]"
						},
						{
							"internalType": "address[]",
							"name": "signers",
							"type": "address[]"
						},
						{
							"components": [
								{
									"internalType": "uint80",
									"name": "minMintPrice",
									"type": "uint80"
								},
								{
									"internalType": "uint24",
									"name": "maxMaxTotalMintableByWallet",
									"type": "uint24"
								},
								{
									"internalType": "uint40",
									"name": "minStartTime",
									"type": "uint40"
								},
								{
									"internalType": "uint40",
									"name": "maxEndTime",
									"type": "uint40"
								},
								{
									"internalType": "uint40",
									"name": "maxMaxTokenSupplyForStage",
									"type": "uint40"
								},
								{
									"internalType": "uint16",
									"name": "minFeeBps",
									"type": "uint16"
								},
								{
									"internalType": "uint16",
									"name": "maxFeeBps",
									"type": "uint16"
								}
							],
							"internalType": "struct SignedMintValidationParams[]",
							"name": "signedMintValidationParams",
							"type": "tuple[]"
						},
						{
							"internalType": "address[]",
							"name": "disallowedSigners",
							"type": "address[]"
						}
					],
					"internalType": "struct ERC721SeaDropStructsErrorsAndEvents.MultiConfigureStruct",
					"name": "config",
					"type": "tuple"
				}
			],
			"name": "multiConfigure",
			"outputs": [],
			"stateMutability": "nonpayable",
			"type": "function"
		},
		{
			"inputs": [],
			"name": "name",
			"outputs": [
				{
					"internalType": "string",
					"name": "",
					"type": "string"
				}
			],
			"stateMutability": "view",
			"type": "function"
		},
		{
			"inputs": [],
			"name": "owner",
			"outputs": [
				{
					"internalType": "address",
					"name": "",
					"type": "address"
				}
			],
			"stateMutability": "view",
			"type": "function"
		},
		{
			"inputs": [
				{
					"internalType": "address",
					"name": "toAddress",
					"type": "address"
				},
				{
					"internalType": "uint256",
					"name": "quantity",
					"type": "uint256"
				}
			],
			"name": "ownerMint",
			"outputs": [],
			"stateMutability": "nonpayable",
			"type": "function"
		},
		{
			"inputs": [],
			"name": "ownerMintsRemaining",
			"outputs": [
				{
					"internalType": "uint16",
					"name": "",
					"type": "uint16"
				}
			],
			"stateMutability": "view",
			"type": "function"
		},
		{
			"inputs": [
				{
					"internalType": "uint256",
					"name": "tokenId",
					"type": "uint256"
				}
			],
			"name": "ownerOf",
			"outputs": [
				{
					"internalType": "address",
					"name": "",
					"type": "address"
				}
			],
			"stateMutability": "view",
			"type": "function"
		},
		{
			"inputs": [],
			"name": "provenanceHash",
			"outputs": [
				{
					"internalType": "bytes32",
					"name": "",
					"type": "bytes32"
				}
			],
			"stateMutability": "view",
			"type": "function"
		},
		{
			"inputs": [],
			"name": "renderer",
			"outputs": [
				{
					"internalType": "contract ISVGRenderer",
					"name": "",
					"type": "address"
				}
			],
			"stateMutability": "view",
			"type": "function"
		},
		{
			"inputs": [],
			"name": "renounceOwnership",
			"outputs": [],
			"stateMutability": "nonpayable",
			"type": "function"
		},
		{
			"inputs": [
				{
					"internalType": "uint256",
					"name": "_seed",
					"type": "uint256"
				},
				{
					"internalType": "uint256",
					"name": "_nonce",
					"type": "uint256"
				}
			],
			"name": "revealGlobalSeed",
			"outputs": [],
			"stateMutability": "nonpayable",
			"type": "function"
		},
		{
			"inputs": [
				{
					"internalType": "uint256",
					"name": "_seed",
					"type": "uint256"
				},
				{
					"internalType": "uint256",
					"name": "_nonce",
					"type": "uint256"
				}
			],
			"name": "revealShufflerSeed",
			"outputs": [],
			"stateMutability": "nonpayable",
			"type": "function"
		},
		{
			"inputs": [],
			"name": "royaltyAddress",
			"outputs": [
				{
					"internalType": "address",
					"name": "",
					"type": "address"
				}
			],
			"stateMutability": "view",
			"type": "function"
		},
		{
			"inputs": [],
			"name": "royaltyBasisPoints",
			"outputs": [
				{
					"internalType": "uint256",
					"name": "",
					"type": "uint256"
				}
			],
			"stateMutability": "view",
			"type": "function"
		},
		{
			"inputs": [
				{
					"internalType": "uint256",
					"name": "",
					"type": "uint256"
				},
				{
					"internalType": "uint256",
					"name": "_salePrice",
					"type": "uint256"
				}
			],
			"name": "royaltyInfo",
			"outputs": [
				{
					"internalType": "address",
					"name": "receiver",
					"type": "address"
				},
				{
					"internalType": "uint256",
					"name": "royaltyAmount",
					"type": "uint256"
				}
			],
			"stateMutability": "view",
			"type": "function"
		},
		{
			"inputs": [
				{
					"internalType": "address",
					"name": "from",
					"type": "address"
				},
				{
					"internalType": "address",
					"name": "to",
					"type": "address"
				},
				{
					"internalType": "uint256",
					"name": "tokenId",
					"type": "uint256"
				}
			],
			"name": "safeTransferFrom",
			"outputs": [],
			"stateMutability": "payable",
			"type": "function"
		},
		{
			"inputs": [
				{
					"internalType": "address",
					"name": "from",
					"type": "address"
				},
				{
					"internalType": "address",
					"name": "to",
					"type": "address"
				},
				{
					"internalType": "uint256",
					"name": "tokenId",
					"type": "uint256"
				},
				{
					"internalType": "bytes",
					"name": "_data",
					"type": "bytes"
				}
			],
			"name": "safeTransferFrom",
			"outputs": [],
			"stateMutability": "payable",
			"type": "function"
		},
		{
			"inputs": [
				{
					"internalType": "address",
					"name": "operator",
					"type": "address"
				},
				{
					"internalType": "bool",
					"name": "approved",
					"type": "bool"
				}
			],
			"name": "setApprovalForAll",
			"outputs": [],
			"stateMutability": "nonpayable",
			"type": "function"
		},
		{
			"inputs": [
				{
					"internalType": "string",
					"name": "newBaseURI",
					"type": "string"
				}
			],
			"name": "setBaseURI",
			"outputs": [],
			"stateMutability": "nonpayable",
			"type": "function"
		},
		{
			"inputs": [
				{
					"internalType": "string",
					"name": "newContractURI",
					"type": "string"
				}
			],
			"name": "setContractURI",
			"outputs": [],
			"stateMutability": "nonpayable",
			"type": "function"
		},
		{
			"inputs": [
				{
					"internalType": "uint256",
					"name": "newMaxSupply",
					"type": "uint256"
				}
			],
			"name": "setMaxSupply",
			"outputs": [],
			"stateMutability": "nonpayable",
			"type": "function"
		},
		{
			"inputs": [
				{
					"internalType": "uint16",
					"name": "newRemaining",
					"type": "uint16"
				}
			],
			"name": "setOwnerMintsRemaining",
			"outputs": [],
			"stateMutability": "nonpayable",
			"type": "function"
		},
		{
			"inputs": [
				{
					"internalType": "bytes32",
					"name": "newProvenanceHash",
					"type": "bytes32"
				}
			],
			"name": "setProvenanceHash",
			"outputs": [],
			"stateMutability": "nonpayable",
			"type": "function"
		},
		{
			"inputs": [
				{
					"internalType": "contract ISVGRenderer",
					"name": "_renderer",
					"type": "address"
				},
				{
					"internalType": "bool",
					"name": "_isReveal",
					"type": "bool"
				}
			],
			"name": "setRenderer",
			"outputs": [],
			"stateMutability": "nonpayable",
			"type": "function"
		},
		{
			"inputs": [
				{
					"components": [
						{
							"internalType": "address",
							"name": "royaltyAddress",
							"type": "address"
						},
						{
							"internalType": "uint96",
							"name": "royaltyBps",
							"type": "uint96"
						}
					],
					"internalType": "struct ISeaDropTokenContractMetadata.RoyaltyInfo",
					"name": "newInfo",
					"type": "tuple"
				}
			],
			"name": "setRoyaltyInfo",
			"outputs": [],
			"stateMutability": "nonpayable",
			"type": "function"
		},
		{
			"inputs": [
				{
					"internalType": "uint256",
					"name": "tokenId",
					"type": "uint256"
				},
				{
					"internalType": "uint256",
					"name": "backgroundIndex",
					"type": "uint256"
				}
			],
			"name": "setTokenBackground",
			"outputs": [],
			"stateMutability": "nonpayable",
			"type": "function"
		},
		{
			"inputs": [
				{
					"internalType": "uint256",
					"name": "tokenId",
					"type": "uint256"
				},
				{
					"internalType": "string",
					"name": "bio",
					"type": "string"
				}
			],
			"name": "setTokenBio",
			"outputs": [],
			"stateMutability": "nonpayable",
			"type": "function"
		},
		{
			"inputs": [
				{
					"internalType": "uint256",
					"name": "tokenId",
					"type": "uint256"
				},
				{
					"internalType": "string",
					"name": "name",
					"type": "string"
				}
			],
			"name": "setTokenName",
			"outputs": [],
			"stateMutability": "nonpayable",
			"type": "function"
		},
		{
			"inputs": [
				{
					"internalType": "address",
					"name": "newValidator",
					"type": "address"
				}
			],
			"name": "setTransferValidator",
			"outputs": [],
			"stateMutability": "nonpayable",
			"type": "function"
		},
		{
			"inputs": [],
			"name": "shufflerSeed",
			"outputs": [
				{
					"internalType": "uint256",
					"name": "",
					"type": "uint256"
				}
			],
			"stateMutability": "view",
			"type": "function"
		},
		{
			"inputs": [],
			"name": "shufflerSeedRevealed",
			"outputs": [
				{
					"internalType": "bool",
					"name": "",
					"type": "bool"
				}
			],
			"stateMutability": "view",
			"type": "function"
		},
		{
			"inputs": [
				{
					"internalType": "bytes4",
					"name": "interfaceId",
					"type": "bytes4"
				}
			],
			"name": "supportsInterface",
			"outputs": [
				{
					"internalType": "bool",
					"name": "",
					"type": "bool"
				}
			],
			"stateMutability": "view",
			"type": "function"
		},
		{
			"inputs": [],
			"name": "symbol",
			"outputs": [
				{
					"internalType": "string",
					"name": "",
					"type": "string"
				}
			],
			"stateMutability": "view",
			"type": "function"
		},
		{
			"inputs": [
				{
					"internalType": "uint256",
					"name": "tokenId",
					"type": "uint256"
				}
			],
			"name": "tokenURI",
			"outputs": [
				{
					"internalType": "string",
					"name": "",
					"type": "string"
				}
			],
			"stateMutability": "view",
			"type": "function"
		},
		{
			"inputs": [
				{
					"internalType": "address",
					"name": "owner",
					"type": "address"
				}
			],
			"name": "tokensOfOwner",
			"outputs": [
				{
					"internalType": "uint256[]",
					"name": "",
					"type": "uint256[]"
				}
			],
			"stateMutability": "view",
			"type": "function"
		},
		{
			"inputs": [
				{
					"internalType": "address",
					"name": "owner",
					"type": "address"
				},
				{
					"internalType": "uint256",
					"name": "start",
					"type": "uint256"
				},
				{
					"internalType": "uint256",
					"name": "stop",
					"type": "uint256"
				}
			],
			"name": "tokensOfOwnerIn",
			"outputs": [
				{
					"internalType": "uint256[]",
					"name": "",
					"type": "uint256[]"
				}
			],
			"stateMutability": "view",
			"type": "function"
		},
		{
			"inputs": [],
			"name": "totalSupply",
			"outputs": [
				{
					"internalType": "uint256",
					"name": "result",
					"type": "uint256"
				}
			],
			"stateMutability": "view",
			"type": "function"
		},
		{
			"inputs": [
				{
					"internalType": "address",
					"name": "from",
					"type": "address"
				},
				{
					"internalType": "address",
					"name": "to",
					"type": "address"
				},
				{
					"internalType": "uint256",
					"name": "tokenId",
					"type": "uint256"
				}
			],
			"name": "transferFrom",
			"outputs": [],
			"stateMutability": "payable",
			"type": "function"
		},
		{
			"inputs": [
				{
					"internalType": "address",
					"name": "newPotentialOwner",
					"type": "address"
				}
			],
			"name": "transferOwnership",
			"outputs": [],
			"stateMutability": "nonpayable",
			"type": "function"
		},
		{
			"inputs": [],
			"name": "transfersPaused",
			"outputs": [
				{
					"internalType": "bool",
					"name": "",
					"type": "bool"
				}
			],
			"stateMutability": "view",
			"type": "function"
		},
		{
			"inputs": [
				{
					"internalType": "address",
					"name": "seaDropImpl",
					"type": "address"
				},
				{
					"components": [
						{
							"internalType": "bytes32",
							"name": "merkleRoot",
							"type": "bytes32"
						},
						{
							"internalType": "string[]",
							"name": "publicKeyURIs",
							"type": "string[]"
						},
						{
							"internalType": "string",
							"name": "allowListURI",
							"type": "string"
						}
					],
					"internalType": "struct AllowListData",
					"name": "allowListData",
					"type": "tuple"
				}
			],
			"name": "updateAllowList",
			"outputs": [],
			"stateMutability": "nonpayable",
			"type": "function"
		},
		{
			"inputs": [
				{
					"internalType": "address",
					"name": "seaDropImpl",
					"type": "address"
				},
				{
					"internalType": "address",
					"name": "feeRecipient",
					"type": "address"
				},
				{
					"internalType": "bool",
					"name": "allowed",
					"type": "bool"
				}
			],
			"name": "updateAllowedFeeRecipient",
			"outputs": [],
			"stateMutability": "nonpayable",
			"type": "function"
		},
		{
			"inputs": [
				{
					"internalType": "address[]",
					"name": "allowedSeaDrop",
					"type": "address[]"
				}
			],
			"name": "updateAllowedSeaDrop",
			"outputs": [],
			"stateMutability": "nonpayable",
			"type": "function"
		},
		{
			"inputs": [
				{
					"internalType": "address",
					"name": "seaDropImpl",
					"type": "address"
				},
				{
					"internalType": "address",
					"name": "payoutAddress",
					"type": "address"
				}
			],
			"name": "updateCreatorPayoutAddress",
			"outputs": [],
			"stateMutability": "nonpayable",
			"type": "function"
		},
		{
			"inputs": [
				{
					"internalType": "address",
					"name": "seaDropImpl",
					"type": "address"
				},
				{
					"internalType": "string",
					"name": "dropURI",
					"type": "string"
				}
			],
			"name": "updateDropURI",
			"outputs": [],
			"stateMutability": "nonpayable",
			"type": "function"
		},
		{
			"inputs": [
				{
					"internalType": "address",
					"name": "seaDropImpl",
					"type": "address"
				},
				{
					"internalType": "address",
					"name": "payer",
					"type": "address"
				},
				{
					"internalType": "bool",
					"name": "allowed",
					"type": "bool"
				}
			],
			"name": "updatePayer",
			"outputs": [],
			"stateMutability": "nonpayable",
			"type": "function"
		},
		{
			"inputs": [
				{
					"internalType": "address",
					"name": "seaDropImpl",
					"type": "address"
				},
				{
					"components": [
						{
							"internalType": "uint80",
							"name": "mintPrice",
							"type": "uint80"
						},
						{
							"internalType": "uint48",
							"name": "startTime",
							"type": "uint48"
						},
						{
							"internalType": "uint48",
							"name": "endTime",
							"type": "uint48"
						},
						{
							"internalType": "uint16",
							"name": "maxTotalMintableByWallet",
							"type": "uint16"
						},
						{
							"internalType": "uint16",
							"name": "feeBps",
							"type": "uint16"
						},
						{
							"internalType": "bool",
							"name": "restrictFeeRecipients",
							"type": "bool"
						}
					],
					"internalType": "struct PublicDrop",
					"name": "publicDrop",
					"type": "tuple"
				}
			],
			"name": "updatePublicDrop",
			"outputs": [],
			"stateMutability": "nonpayable",
			"type": "function"
		},
		{
			"inputs": [
				{
					"internalType": "address",
					"name": "seaDropImpl",
					"type": "address"
				},
				{
					"internalType": "address",
					"name": "signer",
					"type": "address"
				},
				{
					"components": [
						{
							"internalType": "uint80",
							"name": "minMintPrice",
							"type": "uint80"
						},
						{
							"internalType": "uint24",
							"name": "maxMaxTotalMintableByWallet",
							"type": "uint24"
						},
						{
							"internalType": "uint40",
							"name": "minStartTime",
							"type": "uint40"
						},
						{
							"internalType": "uint40",
							"name": "maxEndTime",
							"type": "uint40"
						},
						{
							"internalType": "uint40",
							"name": "maxMaxTokenSupplyForStage",
							"type": "uint40"
						},
						{
							"internalType": "uint16",
							"name": "minFeeBps",
							"type": "uint16"
						},
						{
							"internalType": "uint16",
							"name": "maxFeeBps",
							"type": "uint16"
						}
					],
					"internalType": "struct SignedMintValidationParams",
					"name": "signedMintValidationParams",
					"type": "tuple"
				}
			],
			"name": "updateSignedMintValidationParams",
			"outputs": [],
			"stateMutability": "nonpayable",
			"type": "function"
		},
		{
			"inputs": [
				{
					"internalType": "address",
					"name": "seaDropImpl",
					"type": "address"
				},
				{
					"internalType": "address",
					"name": "allowedNftToken",
					"type": "address"
				},
				{
					"components": [
						{
							"internalType": "uint80",
							"name": "mintPrice",
							"type": "uint80"
						},
						{
							"internalType": "uint16",
							"name": "maxTotalMintableByWallet",
							"type": "uint16"
						},
						{
							"internalType": "uint48",
							"name": "startTime",
							"type": "uint48"
						},
						{
							"internalType": "uint48",
							"name": "endTime",
							"type": "uint48"
						},
						{
							"internalType": "uint8",
							"name": "dropStageIndex",
							"type": "uint8"
						},
						{
							"internalType": "uint32",
							"name": "maxTokenSupplyForStage",
							"type": "uint32"
						},
						{
							"internalType": "uint16",
							"name": "feeBps",
							"type": "uint16"
						},
						{
							"internalType": "bool",
							"name": "restrictFeeRecipients",
							"type": "bool"
						}
					],
					"internalType": "struct TokenGatedDropStage",
					"name": "dropStage",
					"type": "tuple"
				}
			],
			"name": "updateTokenGatedDrop",
			"outputs": [],
			"stateMutability": "nonpayable",
			"type": "function"
		},
		{
			"inputs": [
				{
					"internalType": "bool",
					"name": "paused",
					"type": "bool"
				}
			],
			"name": "updateTransfersPaused",
			"outputs": [],
			"stateMutability": "nonpayable",
			"type": "function"
		}
	]
}