{
	"data": {
		"bytecode": {
			"linkReferences": {},
			"object": "6080604052346100dd576162af80380380610019816100f5565b928339810160a0828203126100dd578151916100348361011a565b602081015160408201516060830151608084015190939192916001600160401b0382116100dd57019484601f870112156100dd578551946001600160401b0386116100e1578560051b9660208061008c818b016100f5565b8099815201988201019182116100dd57602001965b8188106100c35750506100b4955061014d565b604051615c22908161068d8239f35b6020809189516100d28161011a565b8152019701966100a1565b5f80fd5b634e487b7160e01b5f52604160045260245ffd5b6040519190601f01601f191682016001600160401b038111838210176100e157604052565b6001600160a01b038116036100dd57565b61013560406100f5565b90600a8252565b61014660406100f5565b9060058252565b929361015761012b565b69526574726f50756e6b7360b01b602082015261017261013c565b6452504e4b5360d81b6020820152815190916001600160401b0382116100e1576101a6826101a16002546104a8565b6104e0565b602090601f831160011461035e5791806101da926101e295945f92610353575b50508160011b915f199060031b1c19161790565b60025561055b565b6101eb60015f55565b6101f3610634565b6101fd6001601155565b80515f5b8181106103045750506102fd926102d66103029695936102236102db94610423565b7f867006957979daa4aa88eb4157c1262555f712bc61ec3d0046c5a49a2c190b456040517fd7aca75208b9be5ffc04c6a01922020ffd62b55e68e502e317f5344960279af85f80a161027d600160ff196014541617601455565b8061029861028d60145460ff1690565b151582526020820190565b0390a16018805460ff60a01b191690556102b760ff19601c5416601c55565b6102c761ff0019601c5416601c55565b6102d1600a601d55565b601a55565b601b55565b601880546001600160a01b0319166001600160a01b0392909216919091179055565b600c55565b565b8061034d61034061032761031a600195886103e5565b516001600160a01b031690565b6001600160a01b03165f90815260126020526040902090565b805460ff19166001179055565b01610201565b015190505f806101c6565b60025f52601f19831691907f405787fa12a823e0f2b7631cc41b3ba8828b3321ca811111fa75cd3aa3bb5ace925f5b8181106103cd57509160019391856101e2979694106103b5575b505050811b0160025561055b565b01515f1960f88460031b161c191690555f80806103a7565b9293602060018192878601518155019501930161038d565b80518210156103f95760209160051b010190565b634e487b7160e01b5f52603260045260245ffd5b818110610418575050565b5f815560010161040d565b8051906001600160401b0382116100e1576801000000000000000082116100e1576020906013548360135580841061048c575b500160135f5260205f205f5b83811061046f5750505050565b82516001600160a01b031682820155602090920191600101610462565b6104a29060135f5284845f20918201910161040d565b5f610456565b90600182811c921680156104d6575b60208310146104c257565b634e487b7160e01b5f52602260045260245ffd5b91607f16916104b7565b90601f82116104ed575050565b6103029160025f5260205f20906020601f840160051c83019310610519575b601f0160051c019061040d565b909150819061050c565b9190601f811161053257505050565b610302925f5260205f20906020601f840160051c8301931061051957601f0160051c019061040d565b80519091906001600160401b0381116100e1576105848161057d6003546104a8565b6003610523565b602092601f82116001146105b8576105b3929382915f926103535750508160011b915f199060031b1c19161790565b600355565b60035f52601f198216937fc2575a0e9e593c00f959f8c92f12db2869c3395a3b0502d05e2516446f71f85b915f5b86811061061c5750836001959610610604575b505050811b01600355565b01515f1960f88460031b161c191690555f80806105f9565b919260206001819286850151815501940192016105e6565b303b61067e57600a8054336001600160a01b0319821681179092556001600160a01b03167f8be0079c531659141344cd1fd0a4f28419497f9722a3daafe3b4186f6b6457e05f80a3565b62dc149f60e41b5f5260045ffdfe60806040526004361015610011575f80fd5b5f3560e01c806301ffc9a7146104b457806306fdde03146104af57806307aafa98146104aa578063081812fc146104a5578063095ea7b3146104a0578063098144d41461049b578063099b6bfa146104965780630d705df6146104915780630d9d713b1461048c57806318160ddd146104875780631b73593c146104825780631dbd73901461047d57806323452b9c1461047857806323b872dd146104735780632828adb21461046e5780632a55205a146104695780633198bb9e146104645780633680620d1461045f57806342260b5d1461045a57806342842e0e1461045557806342966c681461045057806344dae42c1461044b5780634563f30a14610446578063484b973c1461044157806348a4c1011461043c5780634b6769d5146104375780634c62dec114610432578063511aa6441461042d57806355f804b31461042857806356d3163d146104235780635743bdff1461041e5780635bbb217714610419578063603168011461041457806360c308b61461040f5780636352211e1461040a57806364869dad1461040557806364f101f01461040057806366251b69146103fb5780636c0360eb146103f65780636f8b44b0146103f157806370a08231146103ec578063715018a6146103e757806373c5643a146103e257806374e4f5af146103dd57806379ba5097146103d85780637a05bc82146103d35780637bc2be76146103ce578063840e15d4146103c95780638462151c146103c4578063853b3b4c146103bf5780638ada6b0f146103ba5780638da5cb5b146103b5578063911f456b146103b0578063938e3d7b146103ab5780639559a5d9146103a657806395d89b41146103a157806399a2557a1461039c57806399c5def314610397578063a22cb46514610392578063a48301141461038d578063a9fc664e14610388578063ad2f852a14610383578063b88d4fde1461037e578063c23dc68f14610379578063c6ab67a314610374578063c87b56dd1461036f578063cb743ba81461036a578063d5abeb0114610365578063db846dbe14610360578063e8a3d4851461035b578063e985e9c514610356578063ed9d985014610351578063f2fde38b1461034c5763fe55932a14610347575f80fd5b613741565b6136bd565b6136a0565b61367d565b6135d8565b613580565b61348d565b61342b565b613350565b613333565b6132d0565b61326e565b6131f5565b613150565b61310a565b613064565b613047565b612ec2565b612e1d565b612dfb565b612cb7565b6122a3565b61227b565b612253565b6121a4565b612006565b611f73565b611ee2565b611e5f565b611dae565b611d89565b611c87565b611c2c565b611c05565b611b72565b611acd565b611a62565b611a10565b611984565b611955565b611843565b611792565b61168f565b611620565b61159e565b611467565b611367565b6111ff565b61112c565b6110b6565b610fce565b610fac565b610eca565b610d69565b610d45565b610d25565b610c85565b610c68565b610c19565b610add565b610acb565b610a49565b610a24565b610994565b61096f565b61090d565b6108cb565b61085e565b610836565b610773565b610713565b6106f6565b610620565b6104cf565b6001600160e01b03198116036104cb57565b5f80fd5b346104cb5760203660031901126104cb576105246004356104ef816104b9565b63ffffffff60e01b16630c487f4760e11b81149081156105cd575b8115610528575b5060405190151581529081906020820190565b0390f35b63152a902d60e11b8114915081156105bc575b81156105ab575b811561059a575b8115610557575b505f610511565b6301ffc9a760e01b811491508115610589575b8115610578575b505f610550565b635b5e139f60e01b1490505f610571565b6380ac58cd60e01b8114915061056a565b632483248360e11b81149150610549565b63503e914d60e11b81149150610542565b632b435fdb60e21b8114915061053b565b639c15441560e01b8114915061050a565b5f9103126104cb57565b805180835260209291819084018484015e5f828201840152601f01601f1916010190565b90602061061d9281815201906105e8565b90565b346104cb575f3660031901126104cb576040515f600254610640816134aa565b80845290600181169081156106d25750600114610674575b6105248361066881850382611269565b6040519182918261060c565b60025f9081527f405787fa12a823e0f2b7631cc41b3ba8828b3321ca811111fa75cd3aa3bb5ace939250905b8082106106b857509091508101602001610668610658565b9192600181602092548385880101520191019092916106a0565b60ff191660208086019190915291151560051b840190910191506106689050610658565b346104cb575f3660031901126104cb576020601654604051908152f35b346104cb5760203660031901126104cb5760043561073081614c48565b15610753575f526006602052602060018060a01b0360405f205416604051908152f35b6333d1c03960e21b5f5260045ffd5b6001600160a01b038116036104cb57565b60403660031901126104cb5760043561078b81610762565b6024359060ff60145416610827576001600160a01b036107aa83614d48565b169081330361080a575b5f83815260066020526040902080546001600160a01b0319166001600160a01b0383161790556001600160a01b0316907f8c5be1e5ebec7d5bd14f71427d1e84f3dd0314c0f7b2291e5b200ac8c7c3b9255f80a4005b61081433836149ae565b6107b4576367d9dca160e11b5f5260045ffd5b636ab17e0560e01b5f5260045ffd5b346104cb575f3660031901126104cb576009546040516001600160a01b039091168152602090f35b346104cb5760203660031901126104cb5760043561087a614cdc565b5f545f19016108bc5760407f7c22004198bf87da0f0dab623c72e66ca1200f4454aa3b9ca30f436275428b7c91600f549080600f5582519182526020820152a1005b63e03264af60e01b5f5260045ffd5b346104cb575f3660031901126104cb576040805163657711f560e11b81525f6020820152f35b6024359081151582036104cb57565b359081151582036104cb57565b346104cb5760203660031901126104cb576004358015158091036104cb5760207f867006957979daa4aa88eb4157c1262555f712bc61ec3d0046c5a49a2c190b4591610957614d03565b60ff196014541660ff821617601455604051908152a1005b346104cb575f3660031901126104cb575f54600154602091035f19015b604051908152f35b346104cb575f60e03660031901126104cb576004356109b281610762565b60c03660231901126104cb576109c6614cdc565b6109cf81614d17565b6001600160a01b0316803b156104cb575f809160c4604051809481936301308e6560e01b8352610a016004840161385c565b5af18015610a1f57610a11575080f35b610a1d91505f90611269565b005b6138ea565b346104cb575f3660031901126104cb57602060ff60185460a01c166040519015158152f35b346104cb575f3660031901126104cb57610a61614d03565b6001600160601b0360a01b600b5416600b557f11a3cf439fb225bfe74225716b6774765670ec1060e3796802e62139d69974da60206040515f8152a1005b60609060031901126104cb57600435610ab781610762565b90602435610ac481610762565b9060443590565b610a1d610ad736610a9f565b916138f5565b346104cb5760203660031901126104cb57600435610b0d6001600160a01b03610b0583614d48565b163314613a64565b61ffff610b2d610b25835f52601960205260405f2090565b5461ffff1690565b1660108110610b40575b610a1d82613cb6565b60048114908115610c0e575b8115610c03575b8115610bf8575b8115610bed575b8115610be2575b8115610bd7575b50610b7a575f610b37565b60405162461bcd60e51b815260206004820152602a60248201527f5072652d72656e6465726564207370656369616c732063616e6e6f742062652060448201526918dd5cdd1bdb5a5e995960b21b606482015280608481015b0390fd5b600d9150145f610b6f565b600b81149150610b68565b600881149150610b61565b600781149150610b5a565b600681149150610b53565b600581149150610b4c565b346104cb5760403660031901126104cb576024356010548060a01c91828102928184041490151715610c6357604080516001600160a01b0390921682526127109092046020820152f35b613de6565b346104cb575f3660031901126104cb576020601b54604051908152f35b346104cb575f60403660031901126104cb57600435610ca381610762565b602435906001600160401b0382116104cb57606060031983360301126104cb57610ccb614cdc565b610cd481614d17565b6001600160a01b0316803b156104cb57610d135f9291839260405194858094819363ebb4a55f60e01b8352602060048401526024830190600401613e4b565b03925af18015610a1f57610a11575080f35b346104cb575f3660031901126104cb57602060105460a01c604051908152f35b610a1d610d5136610a9f565b9060405192610d61602085611269565b5f84526148f2565b346104cb5760203660031901126104cb57600435610d8681614d48565b5f8281526006602052604090208054916001600160a01b03811691338084149085141715610db3565b1590565b610eb3575b5f93610dc48685614db3565b610eaa575b506001600160a01b0382165f90815260056020526040902080546fffffffffffffffffffffffffffffffff0190556001600160a01b0382164260a01b17600360e01b17610e1e855f52600460205260405f2090565b55600160e11b811615610e65575b507fddf252ad1be2c89b69c2b068fc378daa952ba7f163c4a11628f55a4df523b3ef8280a4610a1d610e6060015460010190565b600155565b60018401610e7b815f52600460205260405f2090565b5415610e88575b50610e2c565b83548114610e8257610ea2905f52600460205260405f2090565b555f80610e82565b8390555f610dc9565b610ec0610daf33856149ae565b15610db857614c93565b346104cb5760403660031901126104cb57610ee3614cdc565b600435610eef81610762565b6001600160a01b031615610f9d576127106001600160601b03610f10613f20565b1611610f7a57610f1e613f36565b7ff21fccf4d64d86d532c4e4eb86c007b6ad57a460c27d724188625e755ec6cf6d610f47613f0a565b610f4f613f20565b604080516001600160a01b0390931683526001600160601b039091166020830152819081015b0390a1005b6001600160601b03610f8a613f20565b633cadbafb60e01b5f521660045260245ffd5b631cc0baef60e01b5f5260045ffd5b346104cb575f3660031901126104cb57602060ff601454166040519015158152f35b346104cb5760403660031901126104cb57600435610feb81610762565b602435610ff6614d03565b611004600160115414613f95565b6002601155601d549181831061103d57818303928311610c635761103392601d5561102e82614f6f565b614fb5565b610a1d6001601155565b606460405162461bcd60e51b815260206004820152602060248201527f4e6f7420656e6f756768206f776e6572206d696e74732072656d61696e696e676044820152fd5b60609060031901126104cb5760043561109981610762565b906024356110a681610762565b9060443580151581036104cb5790565b346104cb576110c436611081565b90916110ce614cdc565b6110d781614d17565b6001600160a01b031691823b156104cb57604051638e7d1e4360e01b81526001600160a01b03909116600482015290151560248201525f81604481015b93818381819703925af18015610a1f57610a11575080f35b346104cb5760403660031901126104cb576004356024356111576001600160a01b03610b0584614d48565b61ffff61116f610b25845f52601960205260405f2090565b1660108110611183575b50610a1d91614008565b600481149081156111f4575b81156111e9575b81156111de575b81156111d3575b81156111c8575b81156111bd575b50610b7a575f611179565b600d9150145f6111b2565b600b811491506111ab565b6008811491506111a4565b60078114915061119d565b600681149150611196565b60058114915061118f565b346104cb575f3660031901126104cb57602060405160018152f35b634e487b7160e01b5f52604160045260245ffd5b60e081019081106001600160401b0382111761124957604052565b61121a565b606081019081106001600160401b0382111761124957604052565b90601f801991011681019081106001600160401b0382111761124957604052565b60405190611299606083611269565b565b604435906001600160501b03821682036104cb57565b35906001600160501b03821682036104cb57565b6064359062ffffff821682036104cb57565b359062ffffff821682036104cb57565b6084359064ffffffffff821682036104cb57565b60a4359064ffffffffff821682036104cb57565b60c4359064ffffffffff821682036104cb57565b359064ffffffffff821682036104cb57565b60e4359061ffff821682036104cb57565b610104359061ffff821682036104cb57565b359061ffff821682036104cb57565b346104cb576101203660031901126104cb5760043561138581610762565b6024359061139282610762565b60e03660431901126104cb57610a1d91604051916113af8361122e565b6113b761129b565b83526113c16112c5565b60208401526113ce6112e7565b60408401526113db6112fb565b60608401526113e861130f565b60808401526113f5611335565b60a0840152611402611346565b60c08401526141a0565b9181601f840112156104cb578235916001600160401b0383116104cb57602083818601950101116104cb57565b60206003198201126104cb57600435906001600160401b0382116104cb576114639160040161140c565b9091565b346104cb5761147536611439565b61147d614cdc565b6001600160401b0381116112495761149f8161149a600d546134aa565b613b23565b5f601f821160011461151f5781906114cc935f92611514575b50508160011b915f199060031b1c19161790565b600d555b5f5460015490035f19015b6114e157005b5f516020615bcd5f395f51905f52610f756114fc5f54613fce565b60405191829182919060206040840193600181520152565b013590505f806114b8565b600d5f52601f198216927fd7b6990105719101dabeb77144f2a3385c8033acd3af97e9423a695e81ad1eb5915f5b8581106115865750836001951061156d575b505050811b01600d556114d0565b01355f19600384901b60f8161c191690555f808061155f565b9092602060018192868601358155019401910161154d565b346104cb5760203660031901126104cb576004356115bb81610762565b6115c3614d03565b601880546001600160a01b0319166001600160a01b03929092169190911790555f5460015490035f19016115f357005b5f545f198101908111610c635760405f516020615bcd5f395f51905f5291815190600182526020820152a1005b346104cb575f3660031901126104cb576020601d54604051908152f35b9060206003198301126104cb576004356001600160401b0381116104cb5760040182601f820112156104cb578035926001600160401b0384116104cb576020808301928560051b0101116104cb579190565b346104cb5761169d3661163d565b906040519180835260051b6020818401016040525b808180156116d857601f19908101926116cf919085010135614967565b908401526116b2565b846040518091602082016020835281518091526020604084019201905f5b818110611704575050500390f35b919350916020608082611750600194885162ffffff6060809260018060a01b0381511685526001600160401b036020820151166020860152604081015115156040860152015116910152565b0194019101918493926116f6565b6080604061061d936020845261ffff815116602085015261ffff6020820151168285015201519160608082015201906105e8565b346104cb5760203660031901126104cb576004356117ae614214565b506117b881614c48565b15611807575f52601960205261052460405f206117f66001604051926117dd8461124e565b61ffff8154818116865260101c166020850152016134e2565b60408201526040519182918261175e565b60405162461bcd60e51b8152602060048201526014602482015273151bdad95b88191bd95cc81b9bdd08195e1a5cdd60621b6044820152606490fd5b346104cb576118513661163d565b611859614d03565b6013545f5b8181106118f45750505f5b8181106118ac57508161189d827fbbd3b69c138de4d317d0bc4290282c4e1cbd1e58b579a5b4f114b598c237454d946151d9565b610f7560405192839283615275565b806118ee6118e16118c86118c36001958789614559565b613f16565b6001600160a01b03165f90815260126020526040902090565b805460ff19166001179055565b01611869565b6013548110156119505760135f527f66de8ffda797e3de9c05e8fc57b3bf0ec28a930d40b0d285d93c06501cf6a0908101546001919061194a90611940906001600160a01b03166118c8565b805460ff19169055565b0161185e565b614545565b346104cb5760203660031901126104cb5760206001600160a01b0361197b600435614d48565b16604051908152f35b346104cb5760403660031901126104cb576004356119a181610762565b6024356119b2600160115414613f95565b60026011556119c033614d17565b5f545f190191818301809311610c6357600c548093116119eb576119e49250614fb5565b6001601155005b505f545f1901908101809111610c635763384b48c560e21b5f5260045260245260445ffd5b346104cb575f3660031901126104cb57611a28614d03565b6018805460ff60a01b1916600160a01b179055005b60409060031901126104cb57600435611a5581610762565b9060243561061d81610762565b346104cb57611a7036611a3d565b90611a79614cdc565b611a8281614d17565b6001600160a01b0316803b156104cb5760405163024e71b760e31b81526001600160a01b0390921660048301525f919082908290602490829084905af18015610a1f57610a11575080f35b346104cb575f3660031901126104cb576040515f600d54611aed816134aa565b80845290600181169081156106d25750600114611b14576105248361066881850382611269565b600d5f9081527fd7b6990105719101dabeb77144f2a3385c8033acd3af97e9423a695e81ad1eb5939250905b808210611b5857509091508101602001610668610658565b919260018160209254838588010152019101909291611b40565b346104cb5760203660031901126104cb57600435611b8e614cdc565b6001600160401b038111611bf3575f545f19018110611bd8576020817f7810bd47de260c3e9ee10061cf438099dd12256c79485f12f94dbccc981e806c92600c55604051908152a1005b5f545f190190638c19f1f960e01b5f5260045260245260445ffd5b63b43e913760e01b5f5260045260245ffd5b346104cb5760203660031901126104cb57602061098c600435611c2781610762565b614233565b346104cb575f3660031901126104cb57611c44614d03565b600a80546001600160a01b031981169091555f906001600160a01b03167f8be0079c531659141344cd1fd0a4f28419497f9722a3daafe3b4186f6b6457e08280a3005b346104cb5760403660031901126104cb57600435602435611ca6614d03565b60ff601c5460081c16611d44577f6c2137e80722ed4b518b32ea50ecb69ef2c76f0451088a3c0aa79ce523bab51491611d17610f7592604051611d0b81611cfd602082019487869091604092825260208201520190565b03601f198101835282611269565b519020601b5414614269565b611d2081601755565b611d3461010061ff0019601c541617601c55565b6040519081529081906020820190565b60405162461bcd60e51b815260206004820152601e60248201527f53687566666c6572207365656420616c72656164792072657665616c656400006044820152606490fd5b346104cb575f3660031901126104cb57602060ff601c5460081c166040519015158152f35b346104cb575f3660031901126104cb57600b546001600160a01b0381169033829003611e50576001600160601b0360a01b16600b557f11a3cf439fb225bfe74225716b6774765670ec1060e3796802e62139d69974da60206040515f8152a1600a80546001600160a01b0319811683179091556001600160a01b03167f8be0079c531659141344cd1fd0a4f28419497f9722a3daafe3b4186f6b6457e05f80a3005b636b7584e760e11b5f5260045ffd5b346104cb575f60403660031901126104cb57600435611e7d81610762565b6024356001600160401b0381116104cb57611e9c90369060040161140c565b91611ea5614cdc565b611eae81614d17565b6001600160a01b031691823b156104cb57610d13925f928360405180968195829463b957d0cb60e01b8452600484016142a6565b346104cb575f6101403660031901126104cb57600435611f0181610762565b60243590611f0e82610762565b6101003660431901126104cb57611f23614cdc565b611f2c81614d17565b6001600160a01b031690813b156104cb57604051637ecd591560e11b81526001600160a01b039091166004820152905f9082906101249082908490610a01602484016142d6565b346104cb5760203660031901126104cb57600435611f9081610762565b60018060a01b03165f52600560205260606001600160401b0360405f205460401c165f195f5401600c549060405192835260208301526040820152f35b60206040818301928281528451809452019201905f5b818110611ff05750505090565b8251845260209384019390920191600101611fe3565b346104cb5760203660031901126104cb5760043561202381610762565b5f546060908060010361203f575b604051806105248482611fcd565b90819260019060609380831015612195575f548091101561218d575b5061206581614233565b9285831015612185575b83612084575b5050505061052491505f612031565b92935090915f1985018481111561217d575b506040519183850160051b830194856040526120b185614967565b905f916120c4610daf6040830151151590565b61216b575b505f97919591825b1561213c575b5f966120e2846153f8565b60408101511561210157505060015f935b0196886040529692966120d1565b9390935180612134575b50848418861b1561211f575b6001906120f3565b6001909901600581901b87018a905298612117565b93505f61210b565b8083148015612162575b156120d75750505050509150506105249181525f808080612075565b50818914612146565b516001600160a01b031691505f6120c9565b93505f612096565b5f935061206f565b94505f61205b565b631960ccad60e11b5f5260045ffd5b346104cb5760403660031901126104cb577f07bccb191591b7e41b276df97ebf2cbb27e85e20fa7db7d336d3a9738021466f6122416004356122266024356121ea614d03565b6121f960ff601c541615614398565b60405161221a81611cfd602082019487869091604092825260208201520190565b519020601a5414614269565b61222f81601655565b611d34600160ff19601c541617601c55565b0390a15f5460015490035f19016114db565b346104cb575f3660031901126104cb576018546040516001600160a01b039091168152602090f35b346104cb575f3660031901126104cb57600a546040516001600160a01b039091168152602090f35b346104cb5760203660031901126104cb576004356001600160401b0381116104cb57806004019061030060031982360301126104cb576122e1614d03565b813580612c73575b50602481016122f881846143e4565b9050612c1a575b506044810161230e81846143e4565b9050612bc1575b50600165ffffffffffff61232b60a48401614416565b16151561234861233d60c48501614416565b65ffffffffffff1690565b15151714612b5f575b610144810161236081846143e4565b9050612afb575b50610164810161237781846144d9565b35612a96575b5061018481016001600160a01b0361239482613f16565b16612a2d575b506101a4810135806129e9575b506101c481016123b78184614510565b9050612946575b506101e481016123ce8184614510565b90506128a3575b5061020481016123e58184614510565b9050612800575b5061022481016123fc8184614510565b905061275d575b5061026481016124138184614569565b905061267f575b50610284810161242a8184614510565b90506125e0575b506102c481016124418184614787565b9050612502575b506102e48101916124598382614510565b905061246157005b60645f939201925b6124738383614510565b9050811015610a1d57612484614894565b9061248e85613f16565b6124a56118c38361249f8888614510565b90614559565b303b156104cb575f916124cc6040519586938493631446a99160e21b8552600485016148ca565b038183305af1918215610a1f576001926124e8575b5001612469565b806124f65f6124fc93611269565b806105de565b5f6124e1565b61250c8184614787565b6102a4840192915061251e8386614510565b919050036125d157606483015f5b6125368387614787565b90508110156125c75761254882613f16565b9061255a6118c38261249f888b614510565b9161256f82612569878b614787565b906147bc565b92303b156104cb575f916125976040519586938493631446a99160e21b8552600485016147cc565b038183305af1918215610a1f576001926125b3575b500161252c565b806124f65f6125c193611269565b5f6125ac565b505050505f612448565b6374ef6df760e01b5f5260045ffd5b6064820192905f5b6125f28284614510565b905081101561267557612603614693565b9061260d86613f16565b61261e6118c38361249f8789614510565b303b156104cb575f916126456040519586938493633de15f3b60e11b8552600485016146e0565b038183305af1918215610a1f57600192612661575b50016125e8565b806124f65f61266f93611269565b5f61265a565b505091505f612431565b6126898184614569565b610244840192915061269b8386614510565b9190500361274e57606483015f5b6126b38387614569565b9050811015612744576126c582613f16565b906126d76118c38261249f888b614510565b916126ec826126e6878b614569565b9061459e565b92303b156104cb575f916127146040519586938493633de15f3b60e11b8552600485016145ae565b038183305af1918215610a1f57600192612730575b50016126a9565b806124f65f61273e93611269565b5f612729565b505050505f61241a565b63b81aa63960e01b5f5260045ffd5b606482015f5b61276d8386614510565b90508110156127f75761277f82613f16565b906127916118c38261249f878a614510565b91303b156104cb5760405163196e877560e31b81526001600160a01b039182166004820152921660248301525f604483018190528260648183305af1918215610a1f576001926127e3575b5001612763565b806124f65f6127f193611269565b5f6127dc565b5050505f612403565b606482015f5b6128108386614510565b905081101561289a5761282282613f16565b906128346118c38261249f878a614510565b91303b156104cb5760405163196e877560e31b81526001600160a01b03918216600482015292166024830152600160448301525f8260648183305af1918215610a1f57600192612886575b5001612806565b806124f65f61289493611269565b5f61287f565b5050505f6123ec565b606482015f5b6128b38386614510565b905081101561293d576128c582613f16565b906128d76118c38261249f878a614510565b91303b156104cb576040516348a4c10160e01b81526001600160a01b039182166004820152921660248301525f604483018190528260648183305af1918215610a1f57600192612929575b50016128a9565b806124f65f61293793611269565b5f612922565b5050505f6123d5565b606482015f5b6129568386614510565b90508110156129e05761296882613f16565b9061297a6118c38261249f878a614510565b91303b156104cb576040516348a4c10160e01b81526001600160a01b03918216600482015292166024830152600160448301525f8260648183305af1918215610a1f576001926129cc575b500161294c565b806124f65f6129da93611269565b5f6129c5565b5050505f6123be565b303b156104cb576040516304cdb5fd60e11b815260048101919091525f8160248183305af18015610a1f57156123a757806124f65f612a2793611269565b5f6123a7565b612a42612a3c60648401613f16565b91613f16565b90303b156104cb576040516366251b6960e01b81526001600160a01b039182166004820152911660248201525f8160448183305af18015610a1f571561239a57806124f65f612a9093611269565b5f61239a565b612aac612aa560648401613f16565b91846144d9565b90303b156104cb57604051633680620d60e01b8152915f9183918291612ad69190600484016144ee565b038183305af18015610a1f571561237d57806124f65f612af593611269565b5f61237d565b612b11612b0a60648401613f16565b91846143e4565b9190303b156104cb575f91612b3a6040519485938493633d02de4160e11b8552600485016144b7565b038183305af18015610a1f571561236757806124f65f612b5993611269565b5f612367565b612b6b60648201613f16565b303b156104cb575f612b9691604051809381926306dcd64f60e21b8352608487019060048401614420565b038183305af18015610a1f57612bad575b50612351565b806124f65f612bbb93611269565b5f612ba7565b612bcb90836143e4565b90303b156104cb5760405163938e3d7b60e01b8152915f9183918291612bf59190600484016142a6565b038183305af18015610a1f571561231557806124f65f612c1493611269565b5f612315565b612c2490836143e4565b90303b156104cb576040516355f804b360e01b8152915f9183918291612c4e9190600484016142a6565b038183305af18015610a1f57156122ff57806124f65f612c6d93611269565b5f6122ff565b303b156104cb576040516306f8b44b60e41b815260048101919091525f8160248183305af18015610a1f57156122e957806124f65f612cb193611269565b5f6122e9565b346104cb57612cc536611439565b612ccd614cdc565b6001600160401b03811161124957612cef81612cea600e546134aa565b613b66565b5f91601f8211600114612d5b57612d3d82807f905d981207a7d0b6c62cc46ab0be2a076d0298e4a86d0ab79882dbd01ac37378955f91612d50575b508160011b915f199060031b1c19161790565b600e555b610f75604051928392836142a6565b90508301355f612d2a565b600e5f52601f1982167fbb7b4a454dc3493923482f07822329ed19e8244eff582cc204f8554c3620c3fd905f5b818110612de3575093837f905d981207a7d0b6c62cc46ab0be2a076d0298e4a86d0ab79882dbd01ac373789510612dca575b5050600182811b01600e55612d41565b8201355f19600385901b60f8161c191690555f80612dba565b83860135835560209586019560019093019201612d88565b346104cb575f3660031901126104cb57602060ff601c54166040519015158152f35b346104cb575f3660031901126104cb576040515f600354612e3d816134aa565b80845290600181169081156106d25750600114612e64576105248361066881850382611269565b60035f9081527fc2575a0e9e593c00f959f8c92f12db2869c3395a3b0502d05e2516446f71f85b939250905b808210612ea857509091508101602001610668610658565b919260018160209254838588010152019101909291612e90565b346104cb5760603660031901126104cb57600435612edf81610762565b604435906060906024358381818110156121955760011161303e575b5f5480911015613036575b50612f1082614233565b918482101561302e575b82612f2e575b604051806105248682611fcd565b9080929350840383811115613026575b50604051906001840160051b82019384604052612f5a84614967565b905f91612f6d610daf6040830151151590565b613014575b505f9691949160015b15612fe7575b5f95612f8c846153f8565b604081015115612fab57505060015f935b019587604052959295612f7b565b9390935180612fdf575b5084841860601b15612fca575b600190612f9d565b6001909801600581901b860189905297612fc2565b93505f612fb5565b808314801561300b575b15612f8157505050509150506105249181525f8080612f20565b50818814612ff1565b516001600160a01b031691505f612f72565b92505f612f3e565b5f9250612f1a565b93505f612f06565b60019150612efb565b346104cb575f3660031901126104cb576020601754604051908152f35b346104cb5760403660031901126104cb5760043561308181610762565b6130896108f1565b9060ff6014541661082757335f5260076020526130ce826130bd8360405f209060018060a01b03165f5260205260405f2090565b9060ff801983541691151516179055565b60405191151582526001600160a01b03169033907f17307eab39ab6107e8899845ad3d59bd9653f200f220920489ca2b5937696c3190602090a3005b346104cb5760403660031901126104cb575f516020615bcd5f395f51905f52602435600435613137614cdc565b6040805191825260208201929092529081908101610f75565b346104cb5760203660031901126104cb5760043561316d81610762565b613175614d03565b600954906001600160a01b038083169082168082146131e6576001600160a01b031993909316909217600955604080516001600160a01b0393841681529190921660208201527fcc5dc080ff977b3c3a211fa63ab74f90f658f5ba9d3236e92c8f59570f442aac9181908101610f75565b63251dd8cf60e11b5f5260045ffd5b346104cb575f3660031901126104cb576010546040516001600160a01b039091168152602090f35b6001600160401b03811161124957601f01601f191660200190565b9291926132448261321d565b916132526040519384611269565b8294818452818301116104cb578281602093845f960137010152565b60803660031901126104cb5760043561328681610762565b6024359061329382610762565b604435606435926001600160401b0384116104cb57366023850112156104cb576132ca610a1d943690602481600401359101613238565b926148f2565b346104cb5760203660031901126104cb5760806132ee600435614967565b613331604051809262ffffff6060809260018060a01b0381511685526001600160401b036020820151166020860152604081015115156040860152015116910152565bf35b346104cb575f3660031901126104cb576020600f54604051908152f35b346104cb5760203660031901126104cb5760043561336d81614c48565b156133e65761066861052491613381614214565b50805f52601960205260405f206040519061339b8261124e565b6133dc6133d36133c4600184549461ffff8616875261ffff602088019660101c168652016134e2565b938460408201525161ffff1690565b915161ffff1690565b90601654936156da565b60405162461bcd60e51b815260206004820152601f60248201527f55524920717565727920666f72206e6f6e6578697374656e7420746f6b656e006044820152606490fd5b346104cb5761343936611081565b9091613443614cdc565b61344c81614d17565b6001600160a01b031691823b156104cb57604051633f952e6560e11b81526001600160a01b03909116600482015290151560248201525f8160448101611114565b346104cb575f3660031901126104cb576020600c54604051908152f35b90600182811c921680156134d8575b60208310146134c457565b634e487b7160e01b5f52602260045260245ffd5b91607f16916134b9565b9060405191825f8254926134f5846134aa565b808452936001811690811561355e575060011461351a575b5061129992500383611269565b90505f9291925260205f20905f915b818310613542575050906020611299928201015f61350d565b6020919350806001915483858901015201910190918492613529565b90506020925061129994915060ff191682840152151560051b8201015f61350d565b346104cb5760203660031901126104cb576004355f52601960205261ffff60405f206105246135b36001835493016134e2565b604051938381869516855260101c1660208401526060604084015260608301906105e8565b346104cb575f3660031901126104cb576040515f600e546135f8816134aa565b80845290600181169081156106d2575060011461361f576105248361066881850382611269565b600e5f9081527fbb7b4a454dc3493923482f07822329ed19e8244eff582cc204f8554c3620c3fd939250905b80821061366357509091508101602001610668610658565b91926001816020925483858801015201910190929161364b565b346104cb57602061369661369036611a3d565b906149ae565b6040519015158152f35b346104cb575f3660031901126104cb576020601a54604051908152f35b346104cb5760203660031901126104cb576004356136da81610762565b6136e2614d03565b6001600160a01b03168015613732576020817f11a3cf439fb225bfe74225716b6774765670ec1060e3796802e62139d69974da926001600160601b0360a01b600b541617600b55604051908152a1005b633a247dd760e11b5f5260045ffd5b346104cb5760403660031901126104cb576004356024356001600160401b0381116104cb57366023820112156104cb57613785903690602481600401359101613238565b6137996001600160a01b03610b0584614d48565b61ffff6137b1610b25845f52601960205260405f2090565b16601081106137c5575b50610a1d91614aa2565b60048114908115613836575b811561382b575b8115613820575b8115613815575b811561380a575b81156137ff575b50610b7a575f6137bb565b600d9150145f6137f4565b600b811491506137ed565b6008811491506137e6565b6007811491506137df565b6006811491506137d8565b6005811491506137d1565b65ffffffffffff8116036104cb57565b359061129982613841565b602435906001600160501b03821682036104cb576001600160501b036112999216815265ffffffffffff60443561389281613841565b16602082015265ffffffffffff6064356138ab81613841565b16604082015261ffff6138be6084611358565b16606082015261ffff6138d160a4611358565b16608082015260a06138e360c4610900565b1515910152565b6040513d5f823e3d90fd5b919061390082614d48565b6001600160a01b0384811694908216859003613a5f575f84815260066020526040902080549190338084149088141715613a48575b61396392613944878785614e63565b613a3f575b506001600160a01b03165f90815260056020526040902090565b80545f190190556001600160a01b0382165f908152600560205260409020805460010190556001600160a01b0382164260a01b17600160e11b176139af845f52600460205260405f2090565b55600160e11b8116156139fa575b506001600160a01b03169182907fddf252ad1be2c89b69c2b068fc378daa952ba7f163c4a11628f55a4df523b3ef5f80a4156139f557565b614cb0565b60018301613a10815f52600460205260405f2090565b5415613a1d575b506139bd565b5f548114613a1757613a37905f52600460205260405f2090565b555f80613a17565b5f90555f613949565b613a55610daf33846149ae565b1561393557614c93565b614ca2565b15613a6b57565b60405162461bcd60e51b815260206004820152602860248201527f5468652063616c6c6572206973206e6f7420746865206f776e6572206f6620746044820152673432903a37b5b2b760c11b6064820152608490fd5b805191908290602001825e015f815290565b90611299613aff926040519384916a526574726f50756e6b202360a81b6020840152602b830190613ac1565b03601f198101845283611269565b818110613b18575050565b5f8155600101613b0d565b90601f8211613b30575050565b61129991600d5f5260205f20906020601f840160051c83019310613b5c575b601f0160051c0190613b0d565b9091508190613b4f565b90601f8211613b73575050565b61129991600e5f5260205f20906020601f840160051c83019310613b5c57601f0160051c0190613b0d565b9190601f8111613bad57505050565b611299925f5260205f20906020601f840160051c83019310613b5c57601f0160051c0190613b0d565b91909182516001600160401b03811161124957613bfd81613bf784546134aa565b84613b9e565b6020601f8211600114613c3b578190613c2c9394955f92613c305750508160011b915f199060031b1c19161790565b9055565b015190505f806114b8565b601f19821690613c4e845f5260205f2090565b915f5b818110613c8857509583600195969710613c70575b505050811b019055565b01515f1960f88460031b161c191690555f8080613c66565b9192602060018192868b015181550194019201613c51565b613cb09060405191828092613ac1565b03902090565b613cc7613cc282614f2a565b613ad3565b90805f526019602052600160405f200182516001600160401b03811161124957613cf581613bf784546134aa565b6020601f8211600114613d7f579080613d21925f91613d7457508160011b915f199060031b1c19161790565b90555b60408051828152602081018390525f516020615bcd5f395f51905f529190a1613d4d3392613ca0565b907f27fac8f362f0993df8069600bac492702d7c0d77d65545716bf8b7acd95f02145f80a4565b90508501515f612d2a565b601f19821690613d92845f5260205f2090565b915f5b818110613dce57509083600194939210613db6575b5050811b019055613d24565b8601515f1960f88460031b161c191690555f80613daa565b9192602060018192868b015181550194019201613d95565b634e487b7160e01b5f52601160045260245ffd5b908060209392818452848401375f828201840152601f01601f1916010190565b9035601e19823603018112156104cb5701602081359101916001600160401b0382116104cb5781360383136104cb57565b91906060810190833581526020840135601e19853603018112156104cb57840193602085359501946001600160401b0381116104cb578060051b9384360387136104cb576060602085015281905292820160809081019386915f9085015b828210613ed6575050505061061d939450806040613ec8920190613e1a565b916040818503910152613dfa565b90919295602080613efc600193613ef68b8e607f198d8503018952613e1a565b90613dfa565b980192019201909291613ea9565b60043561061d81610762565b3561061d81610762565b6024356001600160601b03811681036104cb5790565b600435613f4281610762565b60018060a01b03166001600160601b0360a01b60105416176010556024356001600160601b03811681036104cb57601080546001600160a01b031660a09290921b6001600160a01b031916919091179055565b15613f9c57565b60405162461bcd60e51b815260206004820152600a6024820152695245454e5452414e435960b01b6044820152606490fd5b5f19810191908211610c6357565b15613fe45750565b60405162461bcd60e51b815260206004820152908190610bd39060248301906105e8565b906040516080810160a082016040525f8152600a6005915b5f19019160308282060183530490811561403c57600a90614020565b611cfd91508060806140a5926140ae95030190601f19019081526040519283917f496e76616c6964206261636b67726f756e6420696e6465782c206d757374206260208401526f032903132ba3bb2b2b710181030b732160851b60408401526050830190613ac1565b60068310613fdc565b6140e261ffff82166140c8845f52601960205260405f2090565b9063ffff000082549160101b169063ffff00001916179055565b60408051838152602081018490525f516020615bcd5f395f51905f529190a133917f717ea6d16cd5b1adadf0580bb4b4ebbe47b8329c34ae1d20b2a3505b0b45121b5f80a4565b9060c080611299936001600160501b03815116845262ffffff602082015116602085015264ffffffffff604082015116604085015264ffffffffff606082015116606085015264ffffffffff608082015116608085015261419560a082015160a086019061ffff169052565b015161ffff16910152565b6141a8614cdc565b6141b181614d17565b6001600160a01b031691823b156104cb576040516309a7002f60e31b81526001600160a01b03909216600483015290915f91839161010491839185916141fb906024850190614129565b5af18015610a1f5761420a5750565b5f61129991611269565b604051906142218261124e565b60606040835f81525f60208201520152565b6001600160a01b0316801561425a575f5260056020526001600160401b0360405f20541690565b6323d3ad8160e21b5f5260045ffd5b1561427057565b60405162461bcd60e51b815260206004820152600e60248201526d125b9d985b1a59081c995d99585b60921b6044820152606490fd5b91602061061d938181520191613dfa565b359060ff821682036104cb57565b359063ffffffff821682036104cb57565b604435906001600160501b03821682036104cb576001600160501b036112999216815261ffff6143066064611358565b16602082015265ffffffffffff60843561431f81613841565b16604082015261434161433260a4613851565b65ffffffffffff166060830152565b61435861434e60c46142b7565b60ff166080830152565b61437261436560e46142c5565b63ffffffff1660a0830152565b61438b614380610104611358565b61ffff1660c0830152565b60e06138e3610124610900565b1561439f57565b60405162461bcd60e51b815260206004820152601c60248201527f476c6f62616c207365656420616c72656164792072657665616c6564000000006044820152606490fd5b903590601e19813603018212156104cb57018035906001600160401b0382116104cb576020019181360383136104cb57565b3561061d81613841565b60c06138e360a061129994969560e0850197600180841b031685526001600160501b0361444c826112b1565b16602086015265ffffffffffff602082013561446781613841565b16604086015265ffffffffffff604082013561448281613841565b16606086015261ffff61449760608301611358565b16608086015261ffff6144ac60808301611358565b168286015201610900565b6001600160a01b03909116815260406020820181905261061d93910191613dfa565b903590605e19813603018212156104cb570190565b6001600160a01b03909116815260406020820181905261061d92910190613e4b565b903590601e19813603018212156104cb57018035906001600160401b0382116104cb57602001918160051b360383136104cb57565b634e487b7160e01b5f52603260045260245ffd5b91908110156119505760051b0190565b903590601e19813603018212156104cb57018035906001600160401b0382116104cb57602001918160081b360383136104cb57565b91908110156119505760081b0190565b6001600160a01b03918216815291166020820152610140810192916112999190610120906138e39060e0906001600160501b036145ea826112b1565b16604086015261ffff6145ff60208301611358565b16606086015265ffffffffffff604082013561461a81613841565b16608086015261463e61462f60608301613851565b65ffffffffffff1660a0870152565b61465761464d608083016142b7565b60ff1660c0870152565b61467261466660a083016142c5565b63ffffffff1686840152565b61468d61468160c08301611358565b61ffff16610100870152565b01610900565b6040519061010082018281106001600160401b03821117611249576040525f60e0838281528260208201528260408201528260608201528260808201528260a08201528260c08201520152565b90939260e0610120916112999461014085019760018060a01b0316855260018060a01b031660208501526001600160501b03815116604085015261ffff602082015116606085015265ffffffffffff6040820151166080850152614753606082015160a086019065ffffffffffff169052565b608081015160ff1660c085015260a081015163ffffffff168483015260c081015161ffff1661010085015201511515910152565b903590601e19813603018212156104cb57018035906001600160401b0382116104cb576020019160e08202360383136104cb57565b91908110156119505760e0020190565b6001600160a01b039182168152911660208201526101208101929161129991906101009061488b9060c0906001600160501b03614808826112b1565b16604086015262ffffff61481e602083016112d7565b16606086015264ffffffffff61483660408301611323565b16608086015264ffffffffff61484e60608301611323565b1660a086015264ffffffffff61486660808301611323565b168286015261488561487a60a08301611358565b61ffff1660e0870152565b01611358565b61ffff16910152565b604051906148a18261122e565b5f60c0838281528260208201528260408201528260608201528260808201528260a08201520152565b6001600160a01b03918216815291166020820152610120810192916112999160400190614129565b9291906149008282866138f5565b803b61490d575b50505050565b614916936153d0565b15614924575f808080614907565b6368d2bf6b60e11b5f5260045ffd5b60405190608082018281106001600160401b03821117611249576040525f6060838281528260208201528260408201520152565b90614970614933565b91600181101561497d5750565b5f5481106149885750565b9091505b805f52600460205260405f20546149a5575f190161498c565b61061d906153f8565b6001600160a01b038216731e0049783f008a0085193e00003d00cd54003c7114614a00576001600160a01b039081165f908152600760209081526040808320939094168252919091522060ff90541690565b5050600190565b15614a0e57565b60405162461bcd60e51b815260206004820152600f60248201526e4e616d6520312d333220636861727360881b6044820152606490fd5b908151811015611950570160200190565b15614a5d57565b60405162461bcd60e51b815260206004820152601960248201527f496e76616c69642063686172616374657220696e206e616d65000000000000006044820152606490fd5b91614ab882518015159081614c3c575b50614a07565b5f5b8251811015614c1c5780614b4f614af4614ae7614ad960019588614a45565b516001600160f81b03191690565b6001600160f81b03191690565b600360fc1b8110159081614c0d575b8115614be9575b8115614bc5575b8115614bb7575b8115614ba9575b8115614b9b575b8115614b8d575b8115614b7f575b8115614b71575b8115614b63575b8115614b55575b50614a56565b01614aba565b602760f81b1490505f614b49565b601360f91b81149150614b42565b605f60f81b81149150614b3b565b603f60f81b81149150614b34565b601760f91b81149150614b2d565b602d60f81b81149150614b26565b602160f81b81149150614b1f565b90508360fd1b811490614b18565b9050606160f81b81101580614bdb575b90614b11565b50603d60f91b811115614bd5565b9050604160f81b81101580614bff575b90614b0a565b50602d60f91b811115614bf9565b603960f81b8111159150614b03565b5091613d24826001614c36845f52601960205260405f2090565b01613bd6565b6020915011155f614ab2565b905f918060011115614c575750565b5f548110614c625750565b9091505b805f52600460205260405f205480614c8757508015610c63575f1901614c66565b600160e01b1615919050565b632ce44b5f60e11b5f5260045ffd5b62a1148160e81b5f5260045ffd5b633a954ecd60e21b5f5260045ffd5b636f96cda160e11b5f5260045ffd5b622e076360e81b5f5260045ffd5b60018060a01b03600a541633143033141715614cf457565b635fc483c560e01b5f5260045ffd5b600a546001600160a01b03163303614cf457565b60018060a01b03165f526012602052600160ff60405f205416151503614d3957565b6315e26ff360e01b5f5260045ffd5b80600111614cbf57614d62815f52600460205260405f2090565b54908115614d795750600160e01b8116614cbf5790565b90505f54811015614cbf575b5f19015f81815260046020526040902054908115614dac5750600160e01b8116614cbf5790565b9050614d85565b6001600160a01b03811615158080614e57575b6108275780614e50575b614dd8575050565b6009546001600160a01b03169182614def57505050565b823b156104cb5760405163657711f560e11b81523360048201526001600160a01b039290921660248301525f6044830181905260648301919091529091829060849082905afa8015610a1f57614e425750565b806124f65f61129993611269565b505f614dd0565b5060ff60145416614dc6565b90916001600160a01b03821615158080614f1e575b6108275780614f0c575b614e8b57505050565b6009546001600160a01b031680614ea25750505050565b803b156104cb5760405163657711f560e11b81523360048201526001600160a01b03938416602482015293909216604484015260648301525f90829060849082905afa8015610a1f57614ef8575b808080614907565b806124f65f614f0693611269565b5f614ef0565b506001600160a01b0383161515614e82565b5060ff60145416614e78565b90604051600a608082019360a083016040525f8552935b5f190193603082820601855304928315614f5d57600a90614f41565b809350608091030191601f1901918252565b5f545f1982820181019291018210610c6357600c54809211614f8f575050565b5f545f19918101820191018110610c635763384b48c560e21b5f5260045260245260445ffd5b602060405191614fc6602084611269565b5f835260ff60185460a01c1661519457614fdf84614f6f565b614ff060ff601c5460081c16615915565b5f5460015490035f190191848301808411600194855b6150a3575b505050506150198482615961565b5f545f1901600c54111561508b575b803b6150345750505050565b5f549384039180805b615057575b50505050505f54036104cb575f808080614907565b1561507e575b5f61506f610daf868487019686615331565b615079578161503d565b614924565b84831061505d5780615042565b6018805460ff60a01b1916600160a01b179055615028565b81610c63578281101561518f57858101808211610c6357600c5482810390808211610c635783906150db60ff601c5460081c16615915565b1461515257916151488896959493926151436151056150fe8a9633601754615b10565b61ffff1690565b91615112613cc282614f2a565b61512761511d61128a565b61ffff9095168552565b61ffff8716848b015260408401525f52601960205260405f2090565b615a24565b0190919293615006565b60405162461bcd60e51b81526004810187905260156024820152744e6f2072656d61696e696e6720656c656d656e747360581b6044820152606490fd5b61500b565b60405162461bcd60e51b815260206004820152601a60248201527f4d696e74206973207065726d616e656e746c7920636c6f7365640000000000006044820152606490fd5b6001600160401b03821161124957680100000000000000008211611249576013548260135580831061523b575b5060135f5260205f205f5b83811061521e5750505050565b600190602084359461522f86610762565b01938184015501615211565b60135f5261526f907f66de8ffda797e3de9c05e8fc57b3bf0ec28a930d40b0d285d93c06501cf6a090908101908401613b0d565b5f615206565b60208082528101839052604001915f5b8181106152925750505090565b90919260208060019286356152a681610762565b848060a01b031681520194019101919091615285565b908160209103126104cb575161061d816104b9565b6001600160a01b03918216815291166020820152604081019190915260806060820181905261061d929101906105e8565b3d1561532c573d906153138261321d565b916153216040519384611269565b82523d5f602084013e565b606090565b91615358926020925f604051809681958294630a85bd0160e11b84528433600486016152d1565b03926001600160a01b03165af15f918161539f575b506153895761537a615302565b80511561507957805190602001fd5b6001600160e01b031916630a85bd0160e11b1490565b6153c291925060203d6020116153c9575b6153ba8183611269565b8101906152bc565b905f61536d565b503d6153b0565b906020925f615358959360405196879586948593630a85bd0160e11b855233600486016152d1565b615400614933565b505f52600460205260405f2054615415614933565b6001600160a01b038216815260a082901c6001600160401b03166020820152600160e01b82161515604082015260e89190911c606082015290565b81601f820112156104cb578051906154678261321d565b926154756040519485611269565b828452602083830101116104cb57815f9260208093018386015e8301015290565b9190916040818403126104cb5780516001600160401b0381116104cb57836154bf918301615450565b9260208201516001600160401b0381116104cb5761061d9201615450565b906020828203126104cb5781516001600160401b0381116104cb5761061d9201615450565b61129990613aff615534949360026040519687946a526574726f50756e6b202360a81b6020870152602b860190613ac1565b6101d160f51b81520190613ac1565b6001906155e461557b959460246155a561129996601d6040519a8b97683d913730b6b2911d1160b91b60208a01526029890190613ac1565b7f222c226465736372697074696f6e223a22526574726f50756e6b73222c00000081520190613ac1565b600b60fa1b81527f22696d616765223a22646174613a696d6167652f7376672b786d6c3b6261736586820152620d8d0b60ea1b60218201520190613ac1565b601160f91b815203601e19810185520183611269565b906112996001615614936040519485916020830190613ac1565b607d60f81b815203601e19810185520183611269565b60026112999161568561564a959460286040519788946020860190613ac1565b7f2c22616e696d6174696f6e5f75726c223a22646174613a746578742f68746d6c8152670ed8985cd94d8d0b60c21b60208201520190613ac1565b61227d60f01b815203601d19810185520183611269565b90611299613aff926040519384917f646174613a6170706c69636174696f6e2f6a736f6e3b6261736536342c0000006020840152603d830190613ac1565b60185460405163020fe58b60e51b815261ffff9384166004820152929093166024830152604482019490945291926001600160a01b03909116915f81606481865afa908115610a1f575f905f9261580f575b505f60405180956374c2b45160e01b8252818061574c866004830161060c565b03915afa918215610a1f5761061d956157bc955f946157e3575b508061579e949561579892516020830120615783613cc283614f2a565b60208151910120145f146157cb575092615834565b91615543565b8151156157c1576157b16157b792615834565b9061562a565b615834565b61569c565b6157b791506155fa565b906157d86157dd92614f2a565b615502565b92615834565b61579e945090615807615798923d805f833e6157ff8183611269565b8101906154dd565b945090615766565b905061582d91503d805f833e6158258183611269565b810190615496565b905f61572c565b90606091805180615843575050565b9092506003600282010460021b90604051937f4142434445464748494a4b4c4d4e4f505152535455565758595a616263646566601f526106707f6768696a6b6c6d6e6f707172737475767778797a303132333435363738392d5f18603f526020850191838601926004600360208601945b0191603f8351818160121c16515f538181600c1c1651600153818160061c165160025316516003535f5181520190838210156158f5576004906003906158b4565b50915060405f93016040526003613d3d60f01b9106600204820352528252565b1561591c57565b60405162461bcd60e51b815260206004820152601e60248201527f53687566666c65722073656564206e6f742072657665616c65642079657400006044820152606490fd5b5f54908215615a15576001600160a01b0381164260a01b6001851460e11b1717615993835f52600460205260405f2090565b556001600160a01b03165f8181526005602052604090208054680100000000000000018502019055918215615a10578101909260015b156159fc575b5f84845f7fddf252ad1be2c89b69c2b068fc378daa952ba7f163c4a11628f55a4df523b3ef8180a46159c9565b92600101928184036159cf57925090505f55565b614cce565b63b562e8dd60e01b5f5260045ffd5b81518154602084015163ffff000060109190911b1661ffff90921663ffffffff19909116171781559091906040906001019201519182516001600160401b03811161124957615a7781613bf784546134aa565b6020601f8211600114615aa6578190613c2c9394955f92613c305750508160011b915f199060031b1c19161790565b601f19821690615ab9845f5260205f2090565b915f5b818110615ada57509583600195969710613c7057505050811b019055565b9192602060018192868b015181550194019201615abc565b8115615afc570690565b634e487b7160e01b5f52601260045260245ffd5b8290615b639260405190602082019283526001600160601b03199060601b1660408201528260548201524260748201524460948201524360b482015260b48152615b5b60d482611269565b519020615af2565b905f190190615bb1615b7d825f52601560205260405f2090565b5492615b91815f52601560205260405f2090565b549380615bc6575082935b80615bb55750915f52601560205260405f2090565b5590565b9050915f52601560205260405f2090565b93615b9c56fe6bd5c950a8d8df17f772f5af37cb3655737899cbf903264b9795592da439661ca2646970667358221220edcc92335a4480ec9ab2f1a56de901d43acbe146384a18c59057cd7d22fa0e6564736f6c634300081e0033",
			"opcodes": "PUSH1 0x80 PUSH1 0x40 MSTORE CALLVALUE PUSH2 0xDD JUMPI PUSH2 0x62AF DUP1 CODESIZE SUB DUP1 PUSH2 0x19 DUP2 PUSH2 0xF5 JUMP JUMPDEST SWAP3 DUP4 CODECOPY DUP2 ADD PUSH1 0xA0 DUP3 DUP3 SUB SLT PUSH2 0xDD JUMPI DUP2 MLOAD SWAP2 PUSH2 0x34 DUP4 PUSH2 0x11A JUMP JUMPDEST PUSH1 0x20 DUP2 ADD MLOAD PUSH1 0x40 DUP3 ADD MLOAD PUSH1 0x60 DUP4 ADD MLOAD PUSH1 0x80 DUP5 ADD MLOAD SWAP1 SWAP4 SWAP2 SWAP3 SWAP2 PUSH1 0x1 PUSH1 0x1 PUSH1 0x40 SHL SUB DUP3 GT PUSH2 0xDD JUMPI ADD SWAP5 DUP5 PUSH1 0x1F DUP8 ADD SLT ISZERO PUSH2 0xDD JUMPI DUP6 MLOAD SWAP5 PUSH1 0x1 PUSH1 0x1 PUSH1 0x40 SHL SUB DUP7 GT PUSH2 0xE1 JUMPI DUP6 PUSH1 0x5 SHL SWAP7 PUSH1 0x20 DUP1 PUSH2 0x8C DUP2 DUP12 ADD PUSH2 0xF5 JUMP JUMPDEST DUP1 SWAP10 DUP2 MSTORE ADD SWAP9 DUP3 ADD ADD SWAP2 DUP3 GT PUSH2 0xDD JUMPI PUSH1 0x20 ADD SWAP7 JUMPDEST DUP2 DUP9 LT PUSH2 0xC3 JUMPI POP POP PUSH2 0xB4 SWAP6 POP PUSH2 0x14D JUMP JUMPDEST PUSH1 0x40 MLOAD PUSH2 0x5C22 SWAP1 DUP2 PUSH2 0x68D DUP3 CODECOPY RETURN JUMPDEST PUSH1 0x20 DUP1 SWAP2 DUP10 MLOAD PUSH2 0xD2 DUP2 PUSH2 0x11A JUMP JUMPDEST DUP2 MSTORE ADD SWAP8 ADD SWAP7 PUSH2 0xA1 JUMP JUMPDEST PUSH0 DUP1 REVERT JUMPDEST PUSH4 0x4E487B71 PUSH1 0xE0 SHL PUSH0 MSTORE PUSH1 0x41 PUSH1 0x4 MSTORE PUSH1 0x24 PUSH0 REVERT JUMPDEST PUSH1 0x40 MLOAD SWAP2 SWAP1 PUSH1 0x1F ADD PUSH1 0x1F NOT AND DUP3 ADD PUSH1 0x1 PUSH1 0x1 PUSH1 0x40 SHL SUB DUP2 GT DUP4 DUP3 LT OR PUSH2 0xE1 JUMPI PUSH1 0x40 MSTORE JUMP JUMPDEST PUSH1 0x1 PUSH1 0x1 PUSH1 0xA0 SHL SUB DUP2 AND SUB PUSH2 0xDD JUMPI JUMP JUMPDEST PUSH2 0x135 PUSH1 0x40 PUSH2 0xF5 JUMP JUMPDEST SWAP1 PUSH1 0xA DUP3 MSTORE JUMP JUMPDEST PUSH2 0x146 PUSH1 0x40 PUSH2 0xF5 JUMP JUMPDEST SWAP1 PUSH1 0x5 DUP3 MSTORE JUMP JUMPDEST SWAP3 SWAP4 PUSH2 0x157 PUSH2 0x12B JUMP JUMPDEST PUSH10 0x526574726F50756E6B73 PUSH1 0xB0 SHL PUSH1 0x20 DUP3 ADD MSTORE PUSH2 0x172 PUSH2 0x13C JUMP JUMPDEST PUSH5 0x52504E4B53 PUSH1 0xD8 SHL PUSH1 0x20 DUP3 ADD MSTORE DUP2 MLOAD SWAP1 SWAP2 PUSH1 0x1 PUSH1 0x1 PUSH1 0x40 SHL SUB DUP3 GT PUSH2 0xE1 JUMPI PUSH2 0x1A6 DUP3 PUSH2 0x1A1 PUSH1 0x2 SLOAD PUSH2 0x4A8 JUMP JUMPDEST PUSH2 0x4E0 JUMP JUMPDEST PUSH1 0x20 SWAP1 PUSH1 0x1F DUP4 GT PUSH1 0x1 EQ PUSH2 0x35E JUMPI SWAP2 DUP1 PUSH2 0x1DA SWAP3 PUSH2 0x1E2 SWAP6 SWAP5 PUSH0 SWAP3 PUSH2 0x353 JUMPI JUMPDEST POP POP DUP2 PUSH1 0x1 SHL SWAP2 PUSH0 NOT SWAP1 PUSH1 0x3 SHL SHR NOT AND OR SWAP1 JUMP JUMPDEST PUSH1 0x2 SSTORE PUSH2 0x55B JUMP JUMPDEST PUSH2 0x1EB PUSH1 0x1 PUSH0 SSTORE JUMP JUMPDEST PUSH2 0x1F3 PUSH2 0x634 JUMP JUMPDEST PUSH2 0x1FD PUSH1 0x1 PUSH1 0x11 SSTORE JUMP JUMPDEST DUP1 MLOAD PUSH0 JUMPDEST DUP2 DUP2 LT PUSH2 0x304 JUMPI POP POP PUSH2 0x2FD SWAP3 PUSH2 0x2D6 PUSH2 0x302 SWAP7 SWAP6 SWAP4 PUSH2 0x223 PUSH2 0x2DB SWAP5 PUSH2 0x423 JUMP JUMPDEST PUSH32 0x867006957979DAA4AA88EB4157C1262555F712BC61EC3D0046C5A49A2C190B45 PUSH1 0x40 MLOAD PUSH32 0xD7ACA75208B9BE5FFC04C6A01922020FFD62B55E68E502E317F5344960279AF8 PUSH0 DUP1 LOG1 PUSH2 0x27D PUSH1 0x1 PUSH1 0xFF NOT PUSH1 0x14 SLOAD AND OR PUSH1 0x14 SSTORE JUMP JUMPDEST DUP1 PUSH2 0x298 PUSH2 0x28D PUSH1 0x14 SLOAD PUSH1 0xFF AND SWAP1 JUMP JUMPDEST ISZERO ISZERO DUP3 MSTORE PUSH1 0x20 DUP3 ADD SWAP1 JUMP JUMPDEST SUB SWAP1 LOG1 PUSH1 0x18 DUP1 SLOAD PUSH1 0xFF PUSH1 0xA0 SHL NOT AND SWAP1 SSTORE PUSH2 0x2B7 PUSH1 0xFF NOT PUSH1 0x1C SLOAD AND PUSH1 0x1C SSTORE JUMP JUMPDEST PUSH2 0x2C7 PUSH2 0xFF00 NOT PUSH1 0x1C SLOAD AND PUSH1 0x1C SSTORE JUMP JUMPDEST PUSH2 0x2D1 PUSH1 0xA PUSH1 0x1D SSTORE JUMP JUMPDEST PUSH1 0x1A SSTORE JUMP JUMPDEST PUSH1 0x1B SSTORE JUMP JUMPDEST PUSH1 0x18 DUP1 SLOAD PUSH1 0x1 PUSH1 0x1 PUSH1 0xA0 SHL SUB NOT AND PUSH1 0x1 PUSH1 0x1 PUSH1 0xA0 SHL SUB SWAP3 SWAP1 SWAP3 AND SWAP2 SWAP1 SWAP2 OR SWAP1 SSTORE JUMP JUMPDEST PUSH1 0xC SSTORE JUMP JUMPDEST JUMP JUMPDEST DUP1 PUSH2 0x34D PUSH2 0x340 PUSH2 0x327 PUSH2 0x31A PUSH1 0x1 SWAP6 DUP9 PUSH2 0x3E5 JUMP JUMPDEST MLOAD PUSH1 0x1 PUSH1 0x1 PUSH1 0xA0 SHL SUB AND SWAP1 JUMP JUMPDEST PUSH1 0x1 PUSH1 0x1 PUSH1 0xA0 SHL SUB AND PUSH0 SWAP1 DUP2 MSTORE PUSH1 0x12 PUSH1 0x20 MSTORE PUSH1 0x40 SWAP1 KECCAK256 SWAP1 JUMP JUMPDEST DUP1 SLOAD PUSH1 0xFF NOT AND PUSH1 0x1 OR SWAP1 SSTORE JUMP JUMPDEST ADD PUSH2 0x201 JUMP JUMPDEST ADD MLOAD SWAP1 POP PUSH0 DUP1 PUSH2 0x1C6 JUMP JUMPDEST PUSH1 0x2 PUSH0 MSTORE PUSH1 0x1F NOT DUP4 AND SWAP2 SWAP1 PUSH32 0x405787FA12A823E0F2B7631CC41B3BA8828B3321CA811111FA75CD3AA3BB5ACE SWAP3 PUSH0 JUMPDEST DUP2 DUP2 LT PUSH2 0x3CD JUMPI POP SWAP2 PUSH1 0x1 SWAP4 SWAP2 DUP6 PUSH2 0x1E2 SWAP8 SWAP7 SWAP5 LT PUSH2 0x3B5 JUMPI JUMPDEST POP POP POP DUP2 SHL ADD PUSH1 0x2 SSTORE PUSH2 0x55B JUMP JUMPDEST ADD MLOAD PUSH0 NOT PUSH1 0xF8 DUP5 PUSH1 0x3 SHL AND SHR NOT AND SWAP1 SSTORE PUSH0 DUP1 DUP1 PUSH2 0x3A7 JUMP JUMPDEST SWAP3 SWAP4 PUSH1 0x20 PUSH1 0x1 DUP2 SWAP3 DUP8 DUP7 ADD MLOAD DUP2 SSTORE ADD SWAP6 ADD SWAP4 ADD PUSH2 0x38D JUMP JUMPDEST DUP1 MLOAD DUP3 LT ISZERO PUSH2 0x3F9 JUMPI PUSH1 0x20 SWAP2 PUSH1 0x5 SHL ADD ADD SWAP1 JUMP JUMPDEST PUSH4 0x4E487B71 PUSH1 0xE0 SHL PUSH0 MSTORE PUSH1 0x32 PUSH1 0x4 MSTORE PUSH1 0x24 PUSH0 REVERT JUMPDEST DUP2 DUP2 LT PUSH2 0x418 JUMPI POP POP JUMP JUMPDEST PUSH0 DUP2 SSTORE PUSH1 0x1 ADD PUSH2 0x40D JUMP JUMPDEST DUP1 MLOAD SWAP1 PUSH1 0x1 PUSH1 0x1 PUSH1 0x40 SHL SUB DUP3 GT PUSH2 0xE1 JUMPI PUSH9 0x10000000000000000 DUP3 GT PUSH2 0xE1 JUMPI PUSH1 0x20 SWAP1 PUSH1 0x13 SLOAD DUP4 PUSH1 0x13 SSTORE DUP1 DUP5 LT PUSH2 0x48C JUMPI JUMPDEST POP ADD PUSH1 0x13 PUSH0 MSTORE PUSH1 0x20 PUSH0 KECCAK256 PUSH0 JUMPDEST DUP4 DUP2 LT PUSH2 0x46F JUMPI POP POP POP POP JUMP JUMPDEST DUP3 MLOAD PUSH1 0x1 PUSH1 0x1 PUSH1 0xA0 SHL SUB AND DUP3 DUP3 ADD SSTORE PUSH1 0x20 SWAP1 SWAP3 ADD SWAP2 PUSH1 0x1 ADD PUSH2 0x462 JUMP JUMPDEST PUSH2 0x4A2 SWAP1 PUSH1 0x13 PUSH0 MSTORE DUP5 DUP5 PUSH0 KECCAK256 SWAP2 DUP3 ADD SWAP2 ADD PUSH2 0x40D JUMP JUMPDEST PUSH0 PUSH2 0x456 JUMP JUMPDEST SWAP1 PUSH1 0x1 DUP3 DUP2 SHR SWAP3 AND DUP1 ISZERO PUSH2 0x4D6 JUMPI JUMPDEST PUSH1 0x20 DUP4 LT EQ PUSH2 0x4C2 JUMPI JUMP JUMPDEST PUSH4 0x4E487B71 PUSH1 0xE0 SHL PUSH0 MSTORE PUSH1 0x22 PUSH1 0x4 MSTORE PUSH1 0x24 PUSH0 REVERT JUMPDEST SWAP2 PUSH1 0x7F AND SWAP2 PUSH2 0x4B7 JUMP JUMPDEST SWAP1 PUSH1 0x1F DUP3 GT PUSH2 0x4ED JUMPI POP POP JUMP JUMPDEST PUSH2 0x302 SWAP2 PUSH1 0x2 PUSH0 MSTORE PUSH1 0x20 PUSH0 KECCAK256 SWAP1 PUSH1 0x20 PUSH1 0x1F DUP5 ADD PUSH1 0x5 SHR DUP4 ADD SWAP4 LT PUSH2 0x519 JUMPI JUMPDEST PUSH1 0x1F ADD PUSH1 0x5 SHR ADD SWAP1 PUSH2 0x40D JUMP JUMPDEST SWAP1 SWAP2 POP DUP2 SWAP1 PUSH2 0x50C JUMP JUMPDEST SWAP2 SWAP1 PUSH1 0x1F DUP2 GT PUSH2 0x532 JUMPI POP POP POP JUMP JUMPDEST PUSH2 0x302 SWAP3 PUSH0 MSTORE PUSH1 0x20 PUSH0 KECCAK256 SWAP1 PUSH1 0x20 PUSH1 0x1F DUP5 ADD PUSH1 0x5 SHR DUP4 ADD SWAP4 LT PUSH2 0x519 JUMPI PUSH1 0x1F ADD PUSH1 0x5 SHR ADD SWAP1 PUSH2 0x40D JUMP JUMPDEST DUP1 MLOAD SWAP1 SWAP2 SWAP1 PUSH1 0x1 PUSH1 0x1 PUSH1 0x40 SHL SUB DUP2 GT PUSH2 0xE1 JUMPI PUSH2 0x584 DUP2 PUSH2 0x57D PUSH1 0x3 SLOAD PUSH2 0x4A8 JUMP JUMPDEST PUSH1 0x3 PUSH2 0x523 JUMP JUMPDEST PUSH1 0x20 SWAP3 PUSH1 0x1F DUP3 GT PUSH1 0x1 EQ PUSH2 0x5B8 JUMPI PUSH2 0x5B3 SWAP3 SWAP4 DUP3 SWAP2 PUSH0 SWAP3 PUSH2 0x353 JUMPI POP POP DUP2 PUSH1 0x1 SHL SWAP2 PUSH0 NOT SWAP1 PUSH1 0x3 SHL SHR NOT AND OR SWAP1 JUMP JUMPDEST PUSH1 0x3 SSTORE JUMP JUMPDEST PUSH1 0x3 PUSH0 MSTORE PUSH1 0x1F NOT DUP3 AND SWAP4 PUSH32 0xC2575A0E9E593C00F959F8C92F12DB2869C3395A3B0502D05E2516446F71F85B SWAP2 PUSH0 JUMPDEST DUP7 DUP2 LT PUSH2 0x61C JUMPI POP DUP4 PUSH1 0x1 SWAP6 SWAP7 LT PUSH2 0x604 JUMPI JUMPDEST POP POP POP DUP2 SHL ADD PUSH1 0x3 SSTORE JUMP JUMPDEST ADD MLOAD PUSH0 NOT PUSH1 0xF8 DUP5 PUSH1 0x3 SHL AND SHR NOT AND SWAP1 SSTORE PUSH0 DUP1 DUP1 PUSH2 0x5F9 JUMP JUMPDEST SWAP2 SWAP3 PUSH1 0x20 PUSH1 0x1 DUP2 SWAP3 DUP7 DUP6 ADD MLOAD DUP2 SSTORE ADD SWAP5 ADD SWAP3 ADD PUSH2 0x5E6 JUMP JUMPDEST ADDRESS EXTCODESIZE PUSH2 0x67E JUMPI PUSH1 0xA DUP1 SLOAD CALLER PUSH1 0x1 PUSH1 0x1 PUSH1 0xA0 SHL SUB NOT DUP3 AND DUP2 OR SWAP1 SWAP3 SSTORE PUSH1 0x1 PUSH1 0x1 PUSH1 0xA0 SHL SUB AND PUSH32 0x8BE0079C531659141344CD1FD0A4F28419497F9722A3DAAFE3B4186F6B6457E0 PUSH0 DUP1 LOG3 JUMP JUMPDEST PUSH3 0xDC149F PUSH1 0xE4 SHL PUSH0 MSTORE PUSH1 0x4 PUSH0 REVERT INVALID PUSH1 0x80 PUSH1 0x40 MSTORE PUSH1 0x4 CALLDATASIZE LT ISZERO PUSH2 0x11 JUMPI PUSH0 DUP1 REVERT JUMPDEST PUSH0 CALLDATALOAD PUSH1 0xE0 SHR DUP1 PUSH4 0x1FFC9A7 EQ PUSH2 0x4B4 JUMPI DUP1 PUSH4 0x6FDDE03 EQ PUSH2 0x4AF JUMPI DUP1 PUSH4 0x7AAFA98 EQ PUSH2 0x4AA JUMPI DUP1 PUSH4 0x81812FC EQ PUSH2 0x4A5 JUMPI DUP1 PUSH4 0x95EA7B3 EQ PUSH2 0x4A0 JUMPI DUP1 PUSH4 0x98144D4 EQ PUSH2 0x49B JUMPI DUP1 PUSH4 0x99B6BFA EQ PUSH2 0x496 JUMPI DUP1 PUSH4 0xD705DF6 EQ PUSH2 0x491 JUMPI DUP1 PUSH4 0xD9D713B EQ PUSH2 0x48C JUMPI DUP1 PUSH4 0x18160DDD EQ PUSH2 0x487 JUMPI DUP1 PUSH4 0x1B73593C EQ PUSH2 0x482 JUMPI DUP1 PUSH4 0x1DBD7390 EQ PUSH2 0x47D JUMPI DUP1 PUSH4 0x23452B9C EQ PUSH2 0x478 JUMPI DUP1 PUSH4 0x23B872DD EQ PUSH2 0x473 JUMPI DUP1 PUSH4 0x2828ADB2 EQ PUSH2 0x46E JUMPI DUP1 PUSH4 0x2A55205A EQ PUSH2 0x469 JUMPI DUP1 PUSH4 0x3198BB9E EQ PUSH2 0x464 JUMPI DUP1 PUSH4 0x3680620D EQ PUSH2 0x45F JUMPI DUP1 PUSH4 0x42260B5D EQ PUSH2 0x45A JUMPI DUP1 PUSH4 0x42842E0E EQ PUSH2 0x455 JUMPI DUP1 PUSH4 0x42966C68 EQ PUSH2 0x450 JUMPI DUP1 PUSH4 0x44DAE42C EQ PUSH2 0x44B JUMPI DUP1 PUSH4 0x4563F30A EQ PUSH2 0x446 JUMPI DUP1 PUSH4 0x484B973C EQ PUSH2 0x441 JUMPI DUP1 PUSH4 0x48A4C101 EQ PUSH2 0x43C JUMPI DUP1 PUSH4 0x4B6769D5 EQ PUSH2 0x437 JUMPI DUP1 PUSH4 0x4C62DEC1 EQ PUSH2 0x432 JUMPI DUP1 PUSH4 0x511AA644 EQ PUSH2 0x42D JUMPI DUP1 PUSH4 0x55F804B3 EQ PUSH2 0x428 JUMPI DUP1 PUSH4 0x56D3163D EQ PUSH2 0x423 JUMPI DUP1 PUSH4 0x5743BDFF EQ PUSH2 0x41E JUMPI DUP1 PUSH4 0x5BBB2177 EQ PUSH2 0x419 JUMPI DUP1 PUSH4 0x60316801 EQ PUSH2 0x414 JUMPI DUP1 PUSH4 0x60C308B6 EQ PUSH2 0x40F JUMPI DUP1 PUSH4 0x6352211E EQ PUSH2 0x40A JUMPI DUP1 PUSH4 0x64869DAD EQ PUSH2 0x405 JUMPI DUP1 PUSH4 0x64F101F0 EQ PUSH2 0x400 JUMPI DUP1 PUSH4 0x66251B69 EQ PUSH2 0x3FB JUMPI DUP1 PUSH4 0x6C0360EB EQ PUSH2 0x3F6 JUMPI DUP1 PUSH4 0x6F8B44B0 EQ PUSH2 0x3F1 JUMPI DUP1 PUSH4 0x70A08231 EQ PUSH2 0x3EC JUMPI DUP1 PUSH4 0x715018A6 EQ PUSH2 0x3E7 JUMPI DUP1 PUSH4 0x73C5643A EQ PUSH2 0x3E2 JUMPI DUP1 PUSH4 0x74E4F5AF EQ PUSH2 0x3DD JUMPI DUP1 PUSH4 0x79BA5097 EQ PUSH2 0x3D8 JUMPI DUP1 PUSH4 0x7A05BC82 EQ PUSH2 0x3D3 JUMPI DUP1 PUSH4 0x7BC2BE76 EQ PUSH2 0x3CE JUMPI DUP1 PUSH4 0x840E15D4 EQ PUSH2 0x3C9 JUMPI DUP1 PUSH4 0x8462151C EQ PUSH2 0x3C4 JUMPI DUP1 PUSH4 0x853B3B4C EQ PUSH2 0x3BF JUMPI DUP1 PUSH4 0x8ADA6B0F EQ PUSH2 0x3BA JUMPI DUP1 PUSH4 0x8DA5CB5B EQ PUSH2 0x3B5 JUMPI DUP1 PUSH4 0x911F456B EQ PUSH2 0x3B0 JUMPI DUP1 PUSH4 0x938E3D7B EQ PUSH2 0x3AB JUMPI DUP1 PUSH4 0x9559A5D9 EQ PUSH2 0x3A6 JUMPI DUP1 PUSH4 0x95D89B41 EQ PUSH2 0x3A1 JUMPI DUP1 PUSH4 0x99A2557A EQ PUSH2 0x39C JUMPI DUP1 PUSH4 0x99C5DEF3 EQ PUSH2 0x397 JUMPI DUP1 PUSH4 0xA22CB465 EQ PUSH2 0x392 JUMPI DUP1 PUSH4 0xA4830114 EQ PUSH2 0x38D JUMPI DUP1 PUSH4 0xA9FC664E EQ PUSH2 0x388 JUMPI DUP1 PUSH4 0xAD2F852A EQ PUSH2 0x383 JUMPI DUP1 PUSH4 0xB88D4FDE EQ PUSH2 0x37E JUMPI DUP1 PUSH4 0xC23DC68F EQ PUSH2 0x379 JUMPI DUP1 PUSH4 0xC6AB67A3 EQ PUSH2 0x374 JUMPI DUP1 PUSH4 0xC87B56DD EQ PUSH2 0x36F JUMPI DUP1 PUSH4 0xCB743BA8 EQ PUSH2 0x36A JUMPI DUP1 PUSH4 0xD5ABEB01 EQ PUSH2 0x365 JUMPI DUP1 PUSH4 0xDB846DBE EQ PUSH2 0x360 JUMPI DUP1 PUSH4 0xE8A3D485 EQ PUSH2 0x35B JUMPI DUP1 PUSH4 0xE985E9C5 EQ PUSH2 0x356 JUMPI DUP1 PUSH4 0xED9D9850 EQ PUSH2 0x351 JUMPI DUP1 PUSH4 0xF2FDE38B EQ PUSH2 0x34C JUMPI PUSH4 0xFE55932A EQ PUSH2 0x347 JUMPI PUSH0 DUP1 REVERT JUMPDEST PUSH2 0x3741 JUMP JUMPDEST PUSH2 0x36BD JUMP JUMPDEST PUSH2 0x36A0 JUMP JUMPDEST PUSH2 0x367D JUMP JUMPDEST PUSH2 0x35D8 JUMP JUMPDEST PUSH2 0x3580 JUMP JUMPDEST PUSH2 0x348D JUMP JUMPDEST PUSH2 0x342B JUMP JUMPDEST PUSH2 0x3350 JUMP JUMPDEST PUSH2 0x3333 JUMP JUMPDEST PUSH2 0x32D0 JUMP JUMPDEST PUSH2 0x326E JUMP JUMPDEST PUSH2 0x31F5 JUMP JUMPDEST PUSH2 0x3150 JUMP JUMPDEST PUSH2 0x310A JUMP JUMPDEST PUSH2 0x3064 JUMP JUMPDEST PUSH2 0x3047 JUMP JUMPDEST PUSH2 0x2EC2 JUMP JUMPDEST PUSH2 0x2E1D JUMP JUMPDEST PUSH2 0x2DFB JUMP JUMPDEST PUSH2 0x2CB7 JUMP JUMPDEST PUSH2 0x22A3 JUMP JUMPDEST PUSH2 0x227B JUMP JUMPDEST PUSH2 0x2253 JUMP JUMPDEST PUSH2 0x21A4 JUMP JUMPDEST PUSH2 0x2006 JUMP JUMPDEST PUSH2 0x1F73 JUMP JUMPDEST PUSH2 0x1EE2 JUMP JUMPDEST PUSH2 0x1E5F JUMP JUMPDEST PUSH2 0x1DAE JUMP JUMPDEST PUSH2 0x1D89 JUMP JUMPDEST PUSH2 0x1C87 JUMP JUMPDEST PUSH2 0x1C2C JUMP JUMPDEST PUSH2 0x1C05 JUMP JUMPDEST PUSH2 0x1B72 JUMP JUMPDEST PUSH2 0x1ACD JUMP JUMPDEST PUSH2 0x1A62 JUMP JUMPDEST PUSH2 0x1A10 JUMP JUMPDEST PUSH2 0x1984 JUMP JUMPDEST PUSH2 0x1955 JUMP JUMPDEST PUSH2 0x1843 JUMP JUMPDEST PUSH2 0x1792 JUMP JUMPDEST PUSH2 0x168F JUMP JUMPDEST PUSH2 0x1620 JUMP JUMPDEST PUSH2 0x159E JUMP JUMPDEST PUSH2 0x1467 JUMP JUMPDEST PUSH2 0x1367 JUMP JUMPDEST PUSH2 0x11FF JUMP JUMPDEST PUSH2 0x112C JUMP JUMPDEST PUSH2 0x10B6 JUMP JUMPDEST PUSH2 0xFCE JUMP JUMPDEST PUSH2 0xFAC JUMP JUMPDEST PUSH2 0xECA JUMP JUMPDEST PUSH2 0xD69 JUMP JUMPDEST PUSH2 0xD45 JUMP JUMPDEST PUSH2 0xD25 JUMP JUMPDEST PUSH2 0xC85 JUMP JUMPDEST PUSH2 0xC68 JUMP JUMPDEST PUSH2 0xC19 JUMP JUMPDEST PUSH2 0xADD JUMP JUMPDEST PUSH2 0xACB JUMP JUMPDEST PUSH2 0xA49 JUMP JUMPDEST PUSH2 0xA24 JUMP JUMPDEST PUSH2 0x994 JUMP JUMPDEST PUSH2 0x96F JUMP JUMPDEST PUSH2 0x90D JUMP JUMPDEST PUSH2 0x8CB JUMP JUMPDEST PUSH2 0x85E JUMP JUMPDEST PUSH2 0x836 JUMP JUMPDEST PUSH2 0x773 JUMP JUMPDEST PUSH2 0x713 JUMP JUMPDEST PUSH2 0x6F6 JUMP JUMPDEST PUSH2 0x620 JUMP JUMPDEST PUSH2 0x4CF JUMP JUMPDEST PUSH1 0x1 PUSH1 0x1 PUSH1 0xE0 SHL SUB NOT DUP2 AND SUB PUSH2 0x4CB JUMPI JUMP JUMPDEST PUSH0 DUP1 REVERT JUMPDEST CALLVALUE PUSH2 0x4CB JUMPI PUSH1 0x20 CALLDATASIZE PUSH1 0x3 NOT ADD SLT PUSH2 0x4CB JUMPI PUSH2 0x524 PUSH1 0x4 CALLDATALOAD PUSH2 0x4EF DUP2 PUSH2 0x4B9 JUMP JUMPDEST PUSH4 0xFFFFFFFF PUSH1 0xE0 SHL AND PUSH4 0xC487F47 PUSH1 0xE1 SHL DUP2 EQ SWAP1 DUP2 ISZERO PUSH2 0x5CD JUMPI JUMPDEST DUP2 ISZERO PUSH2 0x528 JUMPI JUMPDEST POP PUSH1 0x40 MLOAD SWAP1 ISZERO ISZERO DUP2 MSTORE SWAP1 DUP2 SWAP1 PUSH1 0x20 DUP3 ADD SWAP1 JUMP JUMPDEST SUB SWAP1 RETURN JUMPDEST PUSH4 0x152A902D PUSH1 0xE1 SHL DUP2 EQ SWAP2 POP DUP2 ISZERO PUSH2 0x5BC JUMPI JUMPDEST DUP2 ISZERO PUSH2 0x5AB JUMPI JUMPDEST DUP2 ISZERO PUSH2 0x59A JUMPI JUMPDEST DUP2 ISZERO PUSH2 0x557 JUMPI JUMPDEST POP PUSH0 PUSH2 0x511 JUMP JUMPDEST PUSH4 0x1FFC9A7 PUSH1 0xE0 SHL DUP2 EQ SWAP2 POP DUP2 ISZERO PUSH2 0x589 JUMPI JUMPDEST DUP2 ISZERO PUSH2 0x578 JUMPI JUMPDEST POP PUSH0 PUSH2 0x550 JUMP JUMPDEST PUSH4 0x5B5E139F PUSH1 0xE0 SHL EQ SWAP1 POP PUSH0 PUSH2 0x571 JUMP JUMPDEST PUSH4 0x80AC58CD PUSH1 0xE0 SHL DUP2 EQ SWAP2 POP PUSH2 0x56A JUMP JUMPDEST PUSH4 0x24832483 PUSH1 0xE1 SHL DUP2 EQ SWAP2 POP PUSH2 0x549 JUMP JUMPDEST PUSH4 0x503E914D PUSH1 0xE1 SHL DUP2 EQ SWAP2 POP PUSH2 0x542 JUMP JUMPDEST PUSH4 0x2B435FDB PUSH1 0xE2 SHL DUP2 EQ SWAP2 POP PUSH2 0x53B JUMP JUMPDEST PUSH4 0x9C154415 PUSH1 0xE0 SHL DUP2 EQ SWAP2 POP PUSH2 0x50A JUMP JUMPDEST PUSH0 SWAP2 SUB SLT PUSH2 0x4CB JUMPI JUMP JUMPDEST DUP1 MLOAD DUP1 DUP4 MSTORE PUSH1 0x20 SWAP3 SWAP2 DUP2 SWAP1 DUP5 ADD DUP5 DUP5 ADD MCOPY PUSH0 DUP3 DUP3 ADD DUP5 ADD MSTORE PUSH1 0x1F ADD PUSH1 0x1F NOT AND ADD ADD SWAP1 JUMP JUMPDEST SWAP1 PUSH1 0x20 PUSH2 0x61D SWAP3 DUP2 DUP2 MSTORE ADD SWAP1 PUSH2 0x5E8 JUMP JUMPDEST SWAP1 JUMP JUMPDEST CALLVALUE PUSH2 0x4CB JUMPI PUSH0 CALLDATASIZE PUSH1 0x3 NOT ADD SLT PUSH2 0x4CB JUMPI PUSH1 0x40 MLOAD PUSH0 PUSH1 0x2 SLOAD PUSH2 0x640 DUP2 PUSH2 0x34AA JUMP JUMPDEST DUP1 DUP5 MSTORE SWAP1 PUSH1 0x1 DUP2 AND SWAP1 DUP2 ISZERO PUSH2 0x6D2 JUMPI POP PUSH1 0x1 EQ PUSH2 0x674 JUMPI JUMPDEST PUSH2 0x524 DUP4 PUSH2 0x668 DUP2 DUP6 SUB DUP3 PUSH2 0x1269 JUMP JUMPDEST PUSH1 0x40 MLOAD SWAP2 DUP3 SWAP2 DUP3 PUSH2 0x60C JUMP JUMPDEST PUSH1 0x2 PUSH0 SWAP1 DUP2 MSTORE PUSH32 0x405787FA12A823E0F2B7631CC41B3BA8828B3321CA811111FA75CD3AA3BB5ACE SWAP4 SWAP3 POP SWAP1 JUMPDEST DUP1 DUP3 LT PUSH2 0x6B8 JUMPI POP SWAP1 SWAP2 POP DUP2 ADD PUSH1 0x20 ADD PUSH2 0x668 PUSH2 0x658 JUMP JUMPDEST SWAP2 SWAP3 PUSH1 0x1 DUP2 PUSH1 0x20 SWAP3 SLOAD DUP4 DUP6 DUP9 ADD ADD MSTORE ADD SWAP2 ADD SWAP1 SWAP3 SWAP2 PUSH2 0x6A0 JUMP JUMPDEST PUSH1 0xFF NOT AND PUSH1 0x20 DUP1 DUP7 ADD SWAP2 SWAP1 SWAP2 MSTORE SWAP2 ISZERO ISZERO PUSH1 0x5 SHL DUP5 ADD SWAP1 SWAP2 ADD SWAP2 POP PUSH2 0x668 SWAP1 POP PUSH2 0x658 JUMP JUMPDEST CALLVALUE PUSH2 0x4CB JUMPI PUSH0 CALLDATASIZE PUSH1 0x3 NOT ADD SLT PUSH2 0x4CB JUMPI PUSH1 0x20 PUSH1 0x16 SLOAD PUSH1 0x40 MLOAD SWAP1 DUP2 MSTORE RETURN JUMPDEST CALLVALUE PUSH2 0x4CB JUMPI PUSH1 0x20 CALLDATASIZE PUSH1 0x3 NOT ADD SLT PUSH2 0x4CB JUMPI PUSH1 0x4 CALLDATALOAD PUSH2 0x730 DUP2 PUSH2 0x4C48 JUMP JUMPDEST ISZERO PUSH2 0x753 JUMPI PUSH0 MSTORE PUSH1 0x6 PUSH1 0x20 MSTORE PUSH1 0x20 PUSH1 0x1 DUP1 PUSH1 0xA0 SHL SUB PUSH1 0x40 PUSH0 KECCAK256 SLOAD AND PUSH1 0x40 MLOAD SWAP1 DUP2 MSTORE RETURN JUMPDEST PUSH4 0x33D1C039 PUSH1 0xE2 SHL PUSH0 MSTORE PUSH1 0x4 PUSH0 REVERT JUMPDEST PUSH1 0x1 PUSH1 0x1 PUSH1 0xA0 SHL SUB DUP2 AND SUB PUSH2 0x4CB JUMPI JUMP JUMPDEST PUSH1 0x40 CALLDATASIZE PUSH1 0x3 NOT ADD SLT PUSH2 0x4CB JUMPI PUSH1 0x4 CALLDATALOAD PUSH2 0x78B DUP2 PUSH2 0x762 JUMP JUMPDEST PUSH1 0x24 CALLDATALOAD SWAP1 PUSH1 0xFF PUSH1 0x14 SLOAD AND PUSH2 0x827 JUMPI PUSH1 0x1 PUSH1 0x1 PUSH1 0xA0 SHL SUB PUSH2 0x7AA DUP4 PUSH2 0x4D48 JUMP JUMPDEST AND SWAP1 DUP2 CALLER SUB PUSH2 0x80A JUMPI JUMPDEST PUSH0 DUP4 DUP2 MSTORE PUSH1 0x6 PUSH1 0x20 MSTORE PUSH1 0x40 SWAP1 KECCAK256 DUP1 SLOAD PUSH1 0x1 PUSH1 0x1 PUSH1 0xA0 SHL SUB NOT AND PUSH1 0x1 PUSH1 0x1 PUSH1 0xA0 SHL SUB DUP4 AND OR SWAP1 SSTORE PUSH1 0x1 PUSH1 0x1 PUSH1 0xA0 SHL SUB AND SWAP1 PUSH32 0x8C5BE1E5EBEC7D5BD14F71427D1E84F3DD0314C0F7B2291E5B200AC8C7C3B925 PUSH0 DUP1 LOG4 STOP JUMPDEST PUSH2 0x814 CALLER DUP4 PUSH2 0x49AE JUMP JUMPDEST PUSH2 0x7B4 JUMPI PUSH4 0x67D9DCA1 PUSH1 0xE1 SHL PUSH0 MSTORE PUSH1 0x4 PUSH0 REVERT JUMPDEST PUSH4 0x6AB17E05 PUSH1 0xE0 SHL PUSH0 MSTORE PUSH1 0x4 PUSH0 REVERT JUMPDEST CALLVALUE PUSH2 0x4CB JUMPI PUSH0 CALLDATASIZE PUSH1 0x3 NOT ADD SLT PUSH2 0x4CB JUMPI PUSH1 0x9 SLOAD PUSH1 0x40 MLOAD PUSH1 0x1 PUSH1 0x1 PUSH1 0xA0 SHL SUB SWAP1 SWAP2 AND DUP2 MSTORE PUSH1 0x20 SWAP1 RETURN JUMPDEST CALLVALUE PUSH2 0x4CB JUMPI PUSH1 0x20 CALLDATASIZE PUSH1 0x3 NOT ADD SLT PUSH2 0x4CB JUMPI PUSH1 0x4 CALLDATALOAD PUSH2 0x87A PUSH2 0x4CDC JUMP JUMPDEST PUSH0 SLOAD PUSH0 NOT ADD PUSH2 0x8BC JUMPI PUSH1 0x40 PUSH32 0x7C22004198BF87DA0F0DAB623C72E66CA1200F4454AA3B9CA30F436275428B7C SWAP2 PUSH1 0xF SLOAD SWAP1 DUP1 PUSH1 0xF SSTORE DUP3 MLOAD SWAP2 DUP3 MSTORE PUSH1 0x20 DUP3 ADD MSTORE LOG1 STOP JUMPDEST PUSH4 0xE03264AF PUSH1 0xE0 SHL PUSH0 MSTORE PUSH1 0x4 PUSH0 REVERT JUMPDEST CALLVALUE PUSH2 0x4CB JUMPI PUSH0 CALLDATASIZE PUSH1 0x3 NOT ADD SLT PUSH2 0x4CB JUMPI PUSH1 0x40 DUP1 MLOAD PUSH4 0x657711F5 PUSH1 0xE1 SHL DUP2 MSTORE PUSH0 PUSH1 0x20 DUP3 ADD MSTORE RETURN JUMPDEST PUSH1 0x24 CALLDATALOAD SWAP1 DUP2 ISZERO ISZERO DUP3 SUB PUSH2 0x4CB JUMPI JUMP JUMPDEST CALLDATALOAD SWAP1 DUP2 ISZERO ISZERO DUP3 SUB PUSH2 0x4CB JUMPI JUMP JUMPDEST CALLVALUE PUSH2 0x4CB JUMPI PUSH1 0x20 CALLDATASIZE PUSH1 0x3 NOT ADD SLT PUSH2 0x4CB JUMPI PUSH1 0x4 CALLDATALOAD DUP1 ISZERO ISZERO DUP1 SWAP2 SUB PUSH2 0x4CB JUMPI PUSH1 0x20 PUSH32 0x867006957979DAA4AA88EB4157C1262555F712BC61EC3D0046C5A49A2C190B45 SWAP2 PUSH2 0x957 PUSH2 0x4D03 JUMP JUMPDEST PUSH1 0xFF NOT PUSH1 0x14 SLOAD AND PUSH1 0xFF DUP3 AND OR PUSH1 0x14 SSTORE PUSH1 0x40 MLOAD SWAP1 DUP2 MSTORE LOG1 STOP JUMPDEST CALLVALUE PUSH2 0x4CB JUMPI PUSH0 CALLDATASIZE PUSH1 0x3 NOT ADD SLT PUSH2 0x4CB JUMPI PUSH0 SLOAD PUSH1 0x1 SLOAD PUSH1 0x20 SWAP2 SUB PUSH0 NOT ADD JUMPDEST PUSH1 0x40 MLOAD SWAP1 DUP2 MSTORE RETURN JUMPDEST CALLVALUE PUSH2 0x4CB JUMPI PUSH0 PUSH1 0xE0 CALLDATASIZE PUSH1 0x3 NOT ADD SLT PUSH2 0x4CB JUMPI PUSH1 0x4 CALLDATALOAD PUSH2 0x9B2 DUP2 PUSH2 0x762 JUMP JUMPDEST PUSH1 0xC0 CALLDATASIZE PUSH1 0x23 NOT ADD SLT PUSH2 0x4CB JUMPI PUSH2 0x9C6 PUSH2 0x4CDC JUMP JUMPDEST PUSH2 0x9CF DUP2 PUSH2 0x4D17 JUMP JUMPDEST PUSH1 0x1 PUSH1 0x1 PUSH1 0xA0 SHL SUB AND DUP1 EXTCODESIZE ISZERO PUSH2 0x4CB JUMPI PUSH0 DUP1 SWAP2 PUSH1 0xC4 PUSH1 0x40 MLOAD DUP1 SWAP5 DUP2 SWAP4 PUSH4 0x1308E65 PUSH1 0xE0 SHL DUP4 MSTORE PUSH2 0xA01 PUSH1 0x4 DUP5 ADD PUSH2 0x385C JUMP JUMPDEST GAS CALL DUP1 ISZERO PUSH2 0xA1F JUMPI PUSH2 0xA11 JUMPI POP DUP1 RETURN JUMPDEST PUSH2 0xA1D SWAP2 POP PUSH0 SWAP1 PUSH2 0x1269 JUMP JUMPDEST STOP JUMPDEST PUSH2 0x38EA JUMP JUMPDEST CALLVALUE PUSH2 0x4CB JUMPI PUSH0 CALLDATASIZE PUSH1 0x3 NOT ADD SLT PUSH2 0x4CB JUMPI PUSH1 0x20 PUSH1 0xFF PUSH1 0x18 SLOAD PUSH1 0xA0 SHR AND PUSH1 0x40 MLOAD SWAP1 ISZERO ISZERO DUP2 MSTORE RETURN JUMPDEST CALLVALUE PUSH2 0x4CB JUMPI PUSH0 CALLDATASIZE PUSH1 0x3 NOT ADD SLT PUSH2 0x4CB JUMPI PUSH2 0xA61 PUSH2 0x4D03 JUMP JUMPDEST PUSH1 0x1 PUSH1 0x1 PUSH1 0x60 SHL SUB PUSH1 0xA0 SHL PUSH1 0xB SLOAD AND PUSH1 0xB SSTORE PUSH32 0x11A3CF439FB225BFE74225716B6774765670EC1060E3796802E62139D69974DA PUSH1 0x20 PUSH1 0x40 MLOAD PUSH0 DUP2 MSTORE LOG1 STOP JUMPDEST PUSH1 0x60 SWAP1 PUSH1 0x3 NOT ADD SLT PUSH2 0x4CB JUMPI PUSH1 0x4 CALLDATALOAD PUSH2 0xAB7 DUP2 PUSH2 0x762 JUMP JUMPDEST SWAP1 PUSH1 0x24 CALLDATALOAD PUSH2 0xAC4 DUP2 PUSH2 0x762 JUMP JUMPDEST SWAP1 PUSH1 0x44 CALLDATALOAD SWAP1 JUMP JUMPDEST PUSH2 0xA1D PUSH2 0xAD7 CALLDATASIZE PUSH2 0xA9F JUMP JUMPDEST SWAP2 PUSH2 0x38F5 JUMP JUMPDEST CALLVALUE PUSH2 0x4CB JUMPI PUSH1 0x20 CALLDATASIZE PUSH1 0x3 NOT ADD SLT PUSH2 0x4CB JUMPI PUSH1 0x4 CALLDATALOAD PUSH2 0xB0D PUSH1 0x1 PUSH1 0x1 PUSH1 0xA0 SHL SUB PUSH2 0xB05 DUP4 PUSH2 0x4D48 JUMP JUMPDEST AND CALLER EQ PUSH2 0x3A64 JUMP JUMPDEST PUSH2 0xFFFF PUSH2 0xB2D PUSH2 0xB25 DUP4 PUSH0 MSTORE PUSH1 0x19 PUSH1 0x20 MSTORE PUSH1 0x40 PUSH0 KECCAK256 SWAP1 JUMP JUMPDEST SLOAD PUSH2 0xFFFF AND SWAP1 JUMP JUMPDEST AND PUSH1 0x10 DUP2 LT PUSH2 0xB40 JUMPI JUMPDEST PUSH2 0xA1D DUP3 PUSH2 0x3CB6 JUMP JUMPDEST PUSH1 0x4 DUP2 EQ SWAP1 DUP2 ISZERO PUSH2 0xC0E JUMPI JUMPDEST DUP2 ISZERO PUSH2 0xC03 JUMPI JUMPDEST DUP2 ISZERO PUSH2 0xBF8 JUMPI JUMPDEST DUP2 ISZERO PUSH2 0xBED JUMPI JUMPDEST DUP2 ISZERO PUSH2 0xBE2 JUMPI JUMPDEST DUP2 ISZERO PUSH2 0xBD7 JUMPI JUMPDEST POP PUSH2 0xB7A JUMPI PUSH0 PUSH2 0xB37 JUMP JUMPDEST PUSH1 0x40 MLOAD PUSH3 0x461BCD PUSH1 0xE5 SHL DUP2 MSTORE PUSH1 0x20 PUSH1 0x4 DUP3 ADD MSTORE PUSH1 0x2A PUSH1 0x24 DUP3 ADD MSTORE PUSH32 0x5072652D72656E6465726564207370656369616C732063616E6E6F7420626520 PUSH1 0x44 DUP3 ADD MSTORE PUSH10 0x18DD5CDD1BDB5A5E9959 PUSH1 0xB2 SHL PUSH1 0x64 DUP3 ADD MSTORE DUP1 PUSH1 0x84 DUP2 ADD JUMPDEST SUB SWAP1 REVERT JUMPDEST PUSH1 0xD SWAP2 POP EQ PUSH0 PUSH2 0xB6F JUMP JUMPDEST PUSH1 0xB DUP2 EQ SWAP2 POP PUSH2 0xB68 JUMP JUMPDEST PUSH1 0x8 DUP2 EQ SWAP2 POP PUSH2 0xB61 JUMP JUMPDEST PUSH1 0x7 DUP2 EQ SWAP2 POP PUSH2 0xB5A JUMP JUMPDEST PUSH1 0x6 DUP2 EQ SWAP2 POP PUSH2 0xB53 JUMP JUMPDEST PUSH1 0x5 DUP2 EQ SWAP2 POP PUSH2 0xB4C JUMP JUMPDEST CALLVALUE PUSH2 0x4CB JUMPI PUSH1 0x40 CALLDATASIZE PUSH1 0x3 NOT ADD SLT PUSH2 0x4CB JUMPI PUSH1 0x24 CALLDATALOAD PUSH1 0x10 SLOAD DUP1 PUSH1 0xA0 SHR SWAP2 DUP3 DUP2 MUL SWAP3 DUP2 DUP5 DIV EQ SWAP1 ISZERO OR ISZERO PUSH2 0xC63 JUMPI PUSH1 0x40 DUP1 MLOAD PUSH1 0x1 PUSH1 0x1 PUSH1 0xA0 SHL SUB SWAP1 SWAP3 AND DUP3 MSTORE PUSH2 0x2710 SWAP1 SWAP3 DIV PUSH1 0x20 DUP3 ADD MSTORE RETURN JUMPDEST PUSH2 0x3DE6 JUMP JUMPDEST CALLVALUE PUSH2 0x4CB JUMPI PUSH0 CALLDATASIZE PUSH1 0x3 NOT ADD SLT PUSH2 0x4CB JUMPI PUSH1 0x20 PUSH1 0x1B SLOAD PUSH1 0x40 MLOAD SWAP1 DUP2 MSTORE RETURN JUMPDEST CALLVALUE PUSH2 0x4CB JUMPI PUSH0 PUSH1 0x40 CALLDATASIZE PUSH1 0x3 NOT ADD SLT PUSH2 0x4CB JUMPI PUSH1 0x4 CALLDATALOAD PUSH2 0xCA3 DUP2 PUSH2 0x762 JUMP JUMPDEST PUSH1 0x24 CALLDATALOAD SWAP1 PUSH1 0x1 PUSH1 0x1 PUSH1 0x40 SHL SUB DUP3 GT PUSH2 0x4CB JUMPI PUSH1 0x60 PUSH1 0x3 NOT DUP4 CALLDATASIZE SUB ADD SLT PUSH2 0x4CB JUMPI PUSH2 0xCCB PUSH2 0x4CDC JUMP JUMPDEST PUSH2 0xCD4 DUP2 PUSH2 0x4D17 JUMP JUMPDEST PUSH1 0x1 PUSH1 0x1 PUSH1 0xA0 SHL SUB AND DUP1 EXTCODESIZE ISZERO PUSH2 0x4CB JUMPI PUSH2 0xD13 PUSH0 SWAP3 SWAP2 DUP4 SWAP3 PUSH1 0x40 MLOAD SWAP5 DUP6 DUP1 SWAP5 DUP2 SWAP4 PUSH4 0xEBB4A55F PUSH1 0xE0 SHL DUP4 MSTORE PUSH1 0x20 PUSH1 0x4 DUP5 ADD MSTORE PUSH1 0x24 DUP4 ADD SWAP1 PUSH1 0x4 ADD PUSH2 0x3E4B JUMP JUMPDEST SUB SWAP3 GAS CALL DUP1 ISZERO PUSH2 0xA1F JUMPI PUSH2 0xA11 JUMPI POP DUP1 RETURN JUMPDEST CALLVALUE PUSH2 0x4CB JUMPI PUSH0 CALLDATASIZE PUSH1 0x3 NOT ADD SLT PUSH2 0x4CB JUMPI PUSH1 0x20 PUSH1 0x10 SLOAD PUSH1 0xA0 SHR PUSH1 0x40 MLOAD SWAP1 DUP2 MSTORE RETURN JUMPDEST PUSH2 0xA1D PUSH2 0xD51 CALLDATASIZE PUSH2 0xA9F JUMP JUMPDEST SWAP1 PUSH1 0x40 MLOAD SWAP3 PUSH2 0xD61 PUSH1 0x20 DUP6 PUSH2 0x1269 JUMP JUMPDEST PUSH0 DUP5 MSTORE PUSH2 0x48F2 JUMP JUMPDEST CALLVALUE PUSH2 0x4CB JUMPI PUSH1 0x20 CALLDATASIZE PUSH1 0x3 NOT ADD SLT PUSH2 0x4CB JUMPI PUSH1 0x4 CALLDATALOAD PUSH2 0xD86 DUP2 PUSH2 0x4D48 JUMP JUMPDEST PUSH0 DUP3 DUP2 MSTORE PUSH1 0x6 PUSH1 0x20 MSTORE PUSH1 0x40 SWAP1 KECCAK256 DUP1 SLOAD SWAP2 PUSH1 0x1 PUSH1 0x1 PUSH1 0xA0 SHL SUB DUP2 AND SWAP2 CALLER DUP1 DUP5 EQ SWAP1 DUP6 EQ OR ISZERO PUSH2 0xDB3 JUMP JUMPDEST ISZERO SWAP1 JUMP JUMPDEST PUSH2 0xEB3 JUMPI JUMPDEST PUSH0 SWAP4 PUSH2 0xDC4 DUP7 DUP6 PUSH2 0x4DB3 JUMP JUMPDEST PUSH2 0xEAA JUMPI JUMPDEST POP PUSH1 0x1 PUSH1 0x1 PUSH1 0xA0 SHL SUB DUP3 AND PUSH0 SWAP1 DUP2 MSTORE PUSH1 0x5 PUSH1 0x20 MSTORE PUSH1 0x40 SWAP1 KECCAK256 DUP1 SLOAD PUSH16 0xFFFFFFFFFFFFFFFFFFFFFFFFFFFFFFFF ADD SWAP1 SSTORE PUSH1 0x1 PUSH1 0x1 PUSH1 0xA0 SHL SUB DUP3 AND TIMESTAMP PUSH1 0xA0 SHL OR PUSH1 0x3 PUSH1 0xE0 SHL OR PUSH2 0xE1E DUP6 PUSH0 MSTORE PUSH1 0x4 PUSH1 0x20 MSTORE PUSH1 0x40 PUSH0 KECCAK256 SWAP1 JUMP JUMPDEST SSTORE PUSH1 0x1 PUSH1 0xE1 SHL DUP2 AND ISZERO PUSH2 0xE65 JUMPI JUMPDEST POP PUSH32 0xDDF252AD1BE2C89B69C2B068FC378DAA952BA7F163C4A11628F55A4DF523B3EF DUP3 DUP1 LOG4 PUSH2 0xA1D PUSH2 0xE60 PUSH1 0x1 SLOAD PUSH1 0x1 ADD SWAP1 JUMP JUMPDEST PUSH1 0x1 SSTORE JUMP JUMPDEST PUSH1 0x1 DUP5 ADD PUSH2 0xE7B DUP2 PUSH0 MSTORE PUSH1 0x4 PUSH1 0x20 MSTORE PUSH1 0x40 PUSH0 KECCAK256 SWAP1 JUMP JUMPDEST SLOAD ISZERO PUSH2 0xE88 JUMPI JUMPDEST POP PUSH2 0xE2C JUMP JUMPDEST DUP4 SLOAD DUP2 EQ PUSH2 0xE82 JUMPI PUSH2 0xEA2 SWAP1 PUSH0 MSTORE PUSH1 0x4 PUSH1 0x20 MSTORE PUSH1 0x40 PUSH0 KECCAK256 SWAP1 JUMP JUMPDEST SSTORE PUSH0 DUP1 PUSH2 0xE82 JUMP JUMPDEST DUP4 SWAP1 SSTORE PUSH0 PUSH2 0xDC9 JUMP JUMPDEST PUSH2 0xEC0 PUSH2 0xDAF CALLER DUP6 PUSH2 0x49AE JUMP JUMPDEST ISZERO PUSH2 0xDB8 JUMPI PUSH2 0x4C93 JUMP JUMPDEST CALLVALUE PUSH2 0x4CB JUMPI PUSH1 0x40 CALLDATASIZE PUSH1 0x3 NOT ADD SLT PUSH2 0x4CB JUMPI PUSH2 0xEE3 PUSH2 0x4CDC JUMP JUMPDEST PUSH1 0x4 CALLDATALOAD PUSH2 0xEEF DUP2 PUSH2 0x762 JUMP JUMPDEST PUSH1 0x1 PUSH1 0x1 PUSH1 0xA0 SHL SUB AND ISZERO PUSH2 0xF9D JUMPI PUSH2 0x2710 PUSH1 0x1 PUSH1 0x1 PUSH1 0x60 SHL SUB PUSH2 0xF10 PUSH2 0x3F20 JUMP JUMPDEST AND GT PUSH2 0xF7A JUMPI PUSH2 0xF1E PUSH2 0x3F36 JUMP JUMPDEST PUSH32 0xF21FCCF4D64D86D532C4E4EB86C007B6AD57A460C27D724188625E755EC6CF6D PUSH2 0xF47 PUSH2 0x3F0A JUMP JUMPDEST PUSH2 0xF4F PUSH2 0x3F20 JUMP JUMPDEST PUSH1 0x40 DUP1 MLOAD PUSH1 0x1 PUSH1 0x1 PUSH1 0xA0 SHL SUB SWAP1 SWAP4 AND DUP4 MSTORE PUSH1 0x1 PUSH1 0x1 PUSH1 0x60 SHL SUB SWAP1 SWAP2 AND PUSH1 0x20 DUP4 ADD MSTORE DUP2 SWAP1 DUP2 ADD JUMPDEST SUB SWAP1 LOG1 STOP JUMPDEST PUSH1 0x1 PUSH1 0x1 PUSH1 0x60 SHL SUB PUSH2 0xF8A PUSH2 0x3F20 JUMP JUMPDEST PUSH4 0x3CADBAFB PUSH1 0xE0 SHL PUSH0 MSTORE AND PUSH1 0x4 MSTORE PUSH1 0x24 PUSH0 REVERT JUMPDEST PUSH4 0x1CC0BAEF PUSH1 0xE0 SHL PUSH0 MSTORE PUSH1 0x4 PUSH0 REVERT JUMPDEST CALLVALUE PUSH2 0x4CB JUMPI PUSH0 CALLDATASIZE PUSH1 0x3 NOT ADD SLT PUSH2 0x4CB JUMPI PUSH1 0x20 PUSH1 0xFF PUSH1 0x14 SLOAD AND PUSH1 0x40 MLOAD SWAP1 ISZERO ISZERO DUP2 MSTORE RETURN JUMPDEST CALLVALUE PUSH2 0x4CB JUMPI PUSH1 0x40 CALLDATASIZE PUSH1 0x3 NOT ADD SLT PUSH2 0x4CB JUMPI PUSH1 0x4 CALLDATALOAD PUSH2 0xFEB DUP2 PUSH2 0x762 JUMP JUMPDEST PUSH1 0x24 CALLDATALOAD PUSH2 0xFF6 PUSH2 0x4D03 JUMP JUMPDEST PUSH2 0x1004 PUSH1 0x1 PUSH1 0x11 SLOAD EQ PUSH2 0x3F95 JUMP JUMPDEST PUSH1 0x2 PUSH1 0x11 SSTORE PUSH1 0x1D SLOAD SWAP2 DUP2 DUP4 LT PUSH2 0x103D JUMPI DUP2 DUP4 SUB SWAP3 DUP4 GT PUSH2 0xC63 JUMPI PUSH2 0x1033 SWAP3 PUSH1 0x1D SSTORE PUSH2 0x102E DUP3 PUSH2 0x4F6F JUMP JUMPDEST PUSH2 0x4FB5 JUMP JUMPDEST PUSH2 0xA1D PUSH1 0x1 PUSH1 0x11 SSTORE JUMP JUMPDEST PUSH1 0x64 PUSH1 0x40 MLOAD PUSH3 0x461BCD PUSH1 0xE5 SHL DUP2 MSTORE PUSH1 0x20 PUSH1 0x4 DUP3 ADD MSTORE PUSH1 0x20 PUSH1 0x24 DUP3 ADD MSTORE PUSH32 0x4E6F7420656E6F756768206F776E6572206D696E74732072656D61696E696E67 PUSH1 0x44 DUP3 ADD MSTORE REVERT JUMPDEST PUSH1 0x60 SWAP1 PUSH1 0x3 NOT ADD SLT PUSH2 0x4CB JUMPI PUSH1 0x4 CALLDATALOAD PUSH2 0x1099 DUP2 PUSH2 0x762 JUMP JUMPDEST SWAP1 PUSH1 0x24 CALLDATALOAD PUSH2 0x10A6 DUP2 PUSH2 0x762 JUMP JUMPDEST SWAP1 PUSH1 0x44 CALLDATALOAD DUP1 ISZERO ISZERO DUP2 SUB PUSH2 0x4CB JUMPI SWAP1 JUMP JUMPDEST CALLVALUE PUSH2 0x4CB JUMPI PUSH2 0x10C4 CALLDATASIZE PUSH2 0x1081 JUMP JUMPDEST SWAP1 SWAP2 PUSH2 0x10CE PUSH2 0x4CDC JUMP JUMPDEST PUSH2 0x10D7 DUP2 PUSH2 0x4D17 JUMP JUMPDEST PUSH1 0x1 PUSH1 0x1 PUSH1 0xA0 SHL SUB AND SWAP2 DUP3 EXTCODESIZE ISZERO PUSH2 0x4CB JUMPI PUSH1 0x40 MLOAD PUSH4 0x8E7D1E43 PUSH1 0xE0 SHL DUP2 MSTORE PUSH1 0x1 PUSH1 0x1 PUSH1 0xA0 SHL SUB SWAP1 SWAP2 AND PUSH1 0x4 DUP3 ADD MSTORE SWAP1 ISZERO ISZERO PUSH1 0x24 DUP3 ADD MSTORE PUSH0 DUP2 PUSH1 0x44 DUP2 ADD JUMPDEST SWAP4 DUP2 DUP4 DUP2 DUP2 SWAP8 SUB SWAP3 GAS CALL DUP1 ISZERO PUSH2 0xA1F JUMPI PUSH2 0xA11 JUMPI POP DUP1 RETURN JUMPDEST CALLVALUE PUSH2 0x4CB JUMPI PUSH1 0x40 CALLDATASIZE PUSH1 0x3 NOT ADD SLT PUSH2 0x4CB JUMPI PUSH1 0x4 CALLDATALOAD PUSH1 0x24 CALLDATALOAD PUSH2 0x1157 PUSH1 0x1 PUSH1 0x1 PUSH1 0xA0 SHL SUB PUSH2 0xB05 DUP5 PUSH2 0x4D48 JUMP JUMPDEST PUSH2 0xFFFF PUSH2 0x116F PUSH2 0xB25 DUP5 PUSH0 MSTORE PUSH1 0x19 PUSH1 0x20 MSTORE PUSH1 0x40 PUSH0 KECCAK256 SWAP1 JUMP JUMPDEST AND PUSH1 0x10 DUP2 LT PUSH2 0x1183 JUMPI JUMPDEST POP PUSH2 0xA1D SWAP2 PUSH2 0x4008 JUMP JUMPDEST PUSH1 0x4 DUP2 EQ SWAP1 DUP2 ISZERO PUSH2 0x11F4 JUMPI JUMPDEST DUP2 ISZERO PUSH2 0x11E9 JUMPI JUMPDEST DUP2 ISZERO PUSH2 0x11DE JUMPI JUMPDEST DUP2 ISZERO PUSH2 0x11D3 JUMPI JUMPDEST DUP2 ISZERO PUSH2 0x11C8 JUMPI JUMPDEST DUP2 ISZERO PUSH2 0x11BD JUMPI JUMPDEST POP PUSH2 0xB7A JUMPI PUSH0 PUSH2 0x1179 JUMP JUMPDEST PUSH1 0xD SWAP2 POP EQ PUSH0 PUSH2 0x11B2 JUMP JUMPDEST PUSH1 0xB DUP2 EQ SWAP2 POP PUSH2 0x11AB JUMP JUMPDEST PUSH1 0x8 DUP2 EQ SWAP2 POP PUSH2 0x11A4 JUMP JUMPDEST PUSH1 0x7 DUP2 EQ SWAP2 POP PUSH2 0x119D JUMP JUMPDEST PUSH1 0x6 DUP2 EQ SWAP2 POP PUSH2 0x1196 JUMP JUMPDEST PUSH1 0x5 DUP2 EQ SWAP2 POP PUSH2 0x118F JUMP JUMPDEST CALLVALUE PUSH2 0x4CB JUMPI PUSH0 CALLDATASIZE PUSH1 0x3 NOT ADD SLT PUSH2 0x4CB JUMPI PUSH1 0x20 PUSH1 0x40 MLOAD PUSH1 0x1 DUP2 MSTORE RETURN JUMPDEST PUSH4 0x4E487B71 PUSH1 0xE0 SHL PUSH0 MSTORE PUSH1 0x41 PUSH1 0x4 MSTORE PUSH1 0x24 PUSH0 REVERT JUMPDEST PUSH1 0xE0 DUP2 ADD SWAP1 DUP2 LT PUSH1 0x1 PUSH1 0x1 PUSH1 0x40 SHL SUB DUP3 GT OR PUSH2 0x1249 JUMPI PUSH1 0x40 MSTORE JUMP JUMPDEST PUSH2 0x121A JUMP JUMPDEST PUSH1 0x60 DUP2 ADD SWAP1 DUP2 LT PUSH1 0x1 PUSH1 0x1 PUSH1 0x40 SHL SUB DUP3 GT OR PUSH2 0x1249 JUMPI PUSH1 0x40 MSTORE JUMP JUMPDEST SWAP1 PUSH1 0x1F DUP1 NOT SWAP2 ADD AND DUP2 ADD SWAP1 DUP2 LT PUSH1 0x1 PUSH1 0x1 PUSH1 0x40 SHL SUB DUP3 GT OR PUSH2 0x1249 JUMPI PUSH1 0x40 MSTORE JUMP JUMPDEST PUSH1 0x40 MLOAD SWAP1 PUSH2 0x1299 PUSH1 0x60 DUP4 PUSH2 0x1269 JUMP JUMPDEST JUMP JUMPDEST PUSH1 0x44 CALLDATALOAD SWAP1 PUSH1 0x1 PUSH1 0x1 PUSH1 0x50 SHL SUB DUP3 AND DUP3 SUB PUSH2 0x4CB JUMPI JUMP JUMPDEST CALLDATALOAD SWAP1 PUSH1 0x1 PUSH1 0x1 PUSH1 0x50 SHL SUB DUP3 AND DUP3 SUB PUSH2 0x4CB JUMPI JUMP JUMPDEST PUSH1 0x64 CALLDATALOAD SWAP1 PUSH3 0xFFFFFF DUP3 AND DUP3 SUB PUSH2 0x4CB JUMPI JUMP JUMPDEST CALLDATALOAD SWAP1 PUSH3 0xFFFFFF DUP3 AND DUP3 SUB PUSH2 0x4CB JUMPI JUMP JUMPDEST PUSH1 0x84 CALLDATALOAD SWAP1 PUSH5 0xFFFFFFFFFF DUP3 AND DUP3 SUB PUSH2 0x4CB JUMPI JUMP JUMPDEST PUSH1 0xA4 CALLDATALOAD SWAP1 PUSH5 0xFFFFFFFFFF DUP3 AND DUP3 SUB PUSH2 0x4CB JUMPI JUMP JUMPDEST PUSH1 0xC4 CALLDATALOAD SWAP1 PUSH5 0xFFFFFFFFFF DUP3 AND DUP3 SUB PUSH2 0x4CB JUMPI JUMP JUMPDEST CALLDATALOAD SWAP1 PUSH5 0xFFFFFFFFFF DUP3 AND DUP3 SUB PUSH2 0x4CB JUMPI JUMP JUMPDEST PUSH1 0xE4 CALLDATALOAD SWAP1 PUSH2 0xFFFF DUP3 AND DUP3 SUB PUSH2 0x4CB JUMPI JUMP JUMPDEST PUSH2 0x104 CALLDATALOAD SWAP1 PUSH2 0xFFFF DUP3 AND DUP3 SUB PUSH2 0x4CB JUMPI JUMP JUMPDEST CALLDATALOAD SWAP1 PUSH2 0xFFFF DUP3 AND DUP3 SUB PUSH2 0x4CB JUMPI JUMP JUMPDEST CALLVALUE PUSH2 0x4CB JUMPI PUSH2 0x120 CALLDATASIZE PUSH1 0x3 NOT ADD SLT PUSH2 0x4CB JUMPI PUSH1 0x4 CALLDATALOAD PUSH2 0x1385 DUP2 PUSH2 0x762 JUMP JUMPDEST PUSH1 0x24 CALLDATALOAD SWAP1 PUSH2 0x1392 DUP3 PUSH2 0x762 JUMP JUMPDEST PUSH1 0xE0 CALLDATASIZE PUSH1 0x43 NOT ADD SLT PUSH2 0x4CB JUMPI PUSH2 0xA1D SWAP2 PUSH1 0x40 MLOAD SWAP2 PUSH2 0x13AF DUP4 PUSH2 0x122E JUMP JUMPDEST PUSH2 0x13B7 PUSH2 0x129B JUMP JUMPDEST DUP4 MSTORE PUSH2 0x13C1 PUSH2 0x12C5 JUMP JUMPDEST PUSH1 0x20 DUP5 ADD MSTORE PUSH2 0x13CE PUSH2 0x12E7 JUMP JUMPDEST PUSH1 0x40 DUP5 ADD MSTORE PUSH2 0x13DB PUSH2 0x12FB JUMP JUMPDEST PUSH1 0x60 DUP5 ADD MSTORE PUSH2 0x13E8 PUSH2 0x130F JUMP JUMPDEST PUSH1 0x80 DUP5 ADD MSTORE PUSH2 0x13F5 PUSH2 0x1335 JUMP JUMPDEST PUSH1 0xA0 DUP5 ADD MSTORE PUSH2 0x1402 PUSH2 0x1346 JUMP JUMPDEST PUSH1 0xC0 DUP5 ADD MSTORE PUSH2 0x41A0 JUMP JUMPDEST SWAP2 DUP2 PUSH1 0x1F DUP5 ADD SLT ISZERO PUSH2 0x4CB JUMPI DUP3 CALLDATALOAD SWAP2 PUSH1 0x1 PUSH1 0x1 PUSH1 0x40 SHL SUB DUP4 GT PUSH2 0x4CB JUMPI PUSH1 0x20 DUP4 DUP2 DUP7 ADD SWAP6 ADD ADD GT PUSH2 0x4CB JUMPI JUMP JUMPDEST PUSH1 0x20 PUSH1 0x3 NOT DUP3 ADD SLT PUSH2 0x4CB JUMPI PUSH1 0x4 CALLDATALOAD SWAP1 PUSH1 0x1 PUSH1 0x1 PUSH1 0x40 SHL SUB DUP3 GT PUSH2 0x4CB JUMPI PUSH2 0x1463 SWAP2 PUSH1 0x4 ADD PUSH2 0x140C JUMP JUMPDEST SWAP1 SWAP2 JUMP JUMPDEST CALLVALUE PUSH2 0x4CB JUMPI PUSH2 0x1475 CALLDATASIZE PUSH2 0x1439 JUMP JUMPDEST PUSH2 0x147D PUSH2 0x4CDC JUMP JUMPDEST PUSH1 0x1 PUSH1 0x1 PUSH1 0x40 SHL SUB DUP2 GT PUSH2 0x1249 JUMPI PUSH2 0x149F DUP2 PUSH2 0x149A PUSH1 0xD SLOAD PUSH2 0x34AA JUMP JUMPDEST PUSH2 0x3B23 JUMP JUMPDEST PUSH0 PUSH1 0x1F DUP3 GT PUSH1 0x1 EQ PUSH2 0x151F JUMPI DUP2 SWAP1 PUSH2 0x14CC SWAP4 PUSH0 SWAP3 PUSH2 0x1514 JUMPI JUMPDEST POP POP DUP2 PUSH1 0x1 SHL SWAP2 PUSH0 NOT SWAP1 PUSH1 0x3 SHL SHR NOT AND OR SWAP1 JUMP JUMPDEST PUSH1 0xD SSTORE JUMPDEST PUSH0 SLOAD PUSH1 0x1 SLOAD SWAP1 SUB PUSH0 NOT ADD JUMPDEST PUSH2 0x14E1 JUMPI STOP JUMPDEST PUSH0 MLOAD PUSH1 0x20 PUSH2 0x5BCD PUSH0 CODECOPY PUSH0 MLOAD SWAP1 PUSH0 MSTORE PUSH2 0xF75 PUSH2 0x14FC PUSH0 SLOAD PUSH2 0x3FCE JUMP JUMPDEST PUSH1 0x40 MLOAD SWAP2 DUP3 SWAP2 DUP3 SWAP2 SWAP1 PUSH1 0x20 PUSH1 0x40 DUP5 ADD SWAP4 PUSH1 0x1 DUP2 MSTORE ADD MSTORE JUMP JUMPDEST ADD CALLDATALOAD SWAP1 POP PUSH0 DUP1 PUSH2 0x14B8 JUMP JUMPDEST PUSH1 0xD PUSH0 MSTORE PUSH1 0x1F NOT DUP3 AND SWAP3 PUSH32 0xD7B6990105719101DABEB77144F2A3385C8033ACD3AF97E9423A695E81AD1EB5 SWAP2 PUSH0 JUMPDEST DUP6 DUP2 LT PUSH2 0x1586 JUMPI POP DUP4 PUSH1 0x1 SWAP6 LT PUSH2 0x156D JUMPI JUMPDEST POP POP POP DUP2 SHL ADD PUSH1 0xD SSTORE PUSH2 0x14D0 JUMP JUMPDEST ADD CALLDATALOAD PUSH0 NOT PUSH1 0x3 DUP5 SWAP1 SHL PUSH1 0xF8 AND SHR NOT AND SWAP1 SSTORE PUSH0 DUP1 DUP1 PUSH2 0x155F JUMP JUMPDEST SWAP1 SWAP3 PUSH1 0x20 PUSH1 0x1 DUP2 SWAP3 DUP7 DUP7 ADD CALLDATALOAD DUP2 SSTORE ADD SWAP5 ADD SWAP2 ADD PUSH2 0x154D JUMP JUMPDEST CALLVALUE PUSH2 0x4CB JUMPI PUSH1 0x20 CALLDATASIZE PUSH1 0x3 NOT ADD SLT PUSH2 0x4CB JUMPI PUSH1 0x4 CALLDATALOAD PUSH2 0x15BB DUP2 PUSH2 0x762 JUMP JUMPDEST PUSH2 0x15C3 PUSH2 0x4D03 JUMP JUMPDEST PUSH1 0x18 DUP1 SLOAD PUSH1 0x1 PUSH1 0x1 PUSH1 0xA0 SHL SUB NOT AND PUSH1 0x1 PUSH1 0x1 PUSH1 0xA0 SHL SUB SWAP3 SWAP1 SWAP3 AND SWAP2 SWAP1 SWAP2 OR SWAP1 SSTORE PUSH0 SLOAD PUSH1 0x1 SLOAD SWAP1 SUB PUSH0 NOT ADD PUSH2 0x15F3 JUMPI STOP JUMPDEST PUSH0 SLOAD PUSH0 NOT DUP2 ADD SWAP1 DUP2 GT PUSH2 0xC63 JUMPI PUSH1 0x40 PUSH0 MLOAD PUSH1 0x20 PUSH2 0x5BCD PUSH0 CODECOPY PUSH0 MLOAD SWAP1 PUSH0 MSTORE SWAP2 DUP2 MLOAD SWAP1 PUSH1 0x1 DUP3 MSTORE PUSH1 0x20 DUP3 ADD MSTORE LOG1 STOP JUMPDEST CALLVALUE PUSH2 0x4CB JUMPI PUSH0 CALLDATASIZE PUSH1 0x3 NOT ADD SLT PUSH2 0x4CB JUMPI PUSH1 0x20 PUSH1 0x1D SLOAD PUSH1 0x40 MLOAD SWAP1 DUP2 MSTORE RETURN JUMPDEST SWAP1 PUSH1 0x20 PUSH1 0x3 NOT DUP4 ADD SLT PUSH2 0x4CB JUMPI PUSH1 0x4 CALLDATALOAD PUSH1 0x1 PUSH1 0x1 PUSH1 0x40 SHL SUB DUP2 GT PUSH2 0x4CB JUMPI PUSH1 0x4 ADD DUP3 PUSH1 0x1F DUP3 ADD SLT ISZERO PUSH2 0x4CB JUMPI DUP1 CALLDATALOAD SWAP3 PUSH1 0x1 PUSH1 0x1 PUSH1 0x40 SHL SUB DUP5 GT PUSH2 0x4CB JUMPI PUSH1 0x20 DUP1 DUP4 ADD SWAP3 DUP6 PUSH1 0x5 SHL ADD ADD GT PUSH2 0x4CB JUMPI SWAP2 SWAP1 JUMP JUMPDEST CALLVALUE PUSH2 0x4CB JUMPI PUSH2 0x169D CALLDATASIZE PUSH2 0x163D JUMP JUMPDEST SWAP1 PUSH1 0x40 MLOAD SWAP2 DUP1 DUP4 MSTORE PUSH1 0x5 SHL PUSH1 0x20 DUP2 DUP5 ADD ADD PUSH1 0x40 MSTORE JUMPDEST DUP1 DUP2 DUP1 ISZERO PUSH2 0x16D8 JUMPI PUSH1 0x1F NOT SWAP1 DUP2 ADD SWAP3 PUSH2 0x16CF SWAP2 SWAP1 DUP6 ADD ADD CALLDATALOAD PUSH2 0x4967 JUMP JUMPDEST SWAP1 DUP5 ADD MSTORE PUSH2 0x16B2 JUMP JUMPDEST DUP5 PUSH1 0x40 MLOAD DUP1 SWAP2 PUSH1 0x20 DUP3 ADD PUSH1 0x20 DUP4 MSTORE DUP2 MLOAD DUP1 SWAP2 MSTORE PUSH1 0x20 PUSH1 0x40 DUP5 ADD SWAP3 ADD SWAP1 PUSH0 JUMPDEST DUP2 DUP2 LT PUSH2 0x1704 JUMPI POP POP POP SUB SWAP1 RETURN JUMPDEST SWAP2 SWAP4 POP SWAP2 PUSH1 0x20 PUSH1 0x80 DUP3 PUSH2 0x1750 PUSH1 0x1 SWAP5 DUP9 MLOAD PUSH3 0xFFFFFF PUSH1 0x60 DUP1 SWAP3 PUSH1 0x1 DUP1 PUSH1 0xA0 SHL SUB DUP2 MLOAD AND DUP6 MSTORE PUSH1 0x1 PUSH1 0x1 PUSH1 0x40 SHL SUB PUSH1 0x20 DUP3 ADD MLOAD AND PUSH1 0x20 DUP7 ADD MSTORE PUSH1 0x40 DUP2 ADD MLOAD ISZERO ISZERO PUSH1 0x40 DUP7 ADD MSTORE ADD MLOAD AND SWAP2 ADD MSTORE JUMP JUMPDEST ADD SWAP5 ADD SWAP2 ADD SWAP2 DUP5 SWAP4 SWAP3 PUSH2 0x16F6 JUMP JUMPDEST PUSH1 0x80 PUSH1 0x40 PUSH2 0x61D SWAP4 PUSH1 0x20 DUP5 MSTORE PUSH2 0xFFFF DUP2 MLOAD AND PUSH1 0x20 DUP6 ADD MSTORE PUSH2 0xFFFF PUSH1 0x20 DUP3 ADD MLOAD AND DUP3 DUP6 ADD MSTORE ADD MLOAD SWAP2 PUSH1 0x60 DUP1 DUP3 ADD MSTORE ADD SWAP1 PUSH2 0x5E8 JUMP JUMPDEST CALLVALUE PUSH2 0x4CB JUMPI PUSH1 0x20 CALLDATASIZE PUSH1 0x3 NOT ADD SLT PUSH2 0x4CB JUMPI PUSH1 0x4 CALLDATALOAD PUSH2 0x17AE PUSH2 0x4214 JUMP JUMPDEST POP PUSH2 0x17B8 DUP2 PUSH2 0x4C48 JUMP JUMPDEST ISZERO PUSH2 0x1807 JUMPI PUSH0 MSTORE PUSH1 0x19 PUSH1 0x20 MSTORE PUSH2 0x524 PUSH1 0x40 PUSH0 KECCAK256 PUSH2 0x17F6 PUSH1 0x1 PUSH1 0x40 MLOAD SWAP3 PUSH2 0x17DD DUP5 PUSH2 0x124E JUMP JUMPDEST PUSH2 0xFFFF DUP2 SLOAD DUP2 DUP2 AND DUP7 MSTORE PUSH1 0x10 SHR AND PUSH1 0x20 DUP6 ADD MSTORE ADD PUSH2 0x34E2 JUMP JUMPDEST PUSH1 0x40 DUP3 ADD MSTORE PUSH1 0x40 MLOAD SWAP2 DUP3 SWAP2 DUP3 PUSH2 0x175E JUMP JUMPDEST PUSH1 0x40 MLOAD PUSH3 0x461BCD PUSH1 0xE5 SHL DUP2 MSTORE PUSH1 0x20 PUSH1 0x4 DUP3 ADD MSTORE PUSH1 0x14 PUSH1 0x24 DUP3 ADD MSTORE PUSH20 0x151BDAD95B88191BD95CC81B9BDD08195E1A5CDD PUSH1 0x62 SHL PUSH1 0x44 DUP3 ADD MSTORE PUSH1 0x64 SWAP1 REVERT JUMPDEST CALLVALUE PUSH2 0x4CB JUMPI PUSH2 0x1851 CALLDATASIZE PUSH2 0x163D JUMP JUMPDEST PUSH2 0x1859 PUSH2 0x4D03 JUMP JUMPDEST PUSH1 0x13 SLOAD PUSH0 JUMPDEST DUP2 DUP2 LT PUSH2 0x18F4 JUMPI POP POP PUSH0 JUMPDEST DUP2 DUP2 LT PUSH2 0x18AC JUMPI POP DUP2 PUSH2 0x189D DUP3 PUSH32 0xBBD3B69C138DE4D317D0BC4290282C4E1CBD1E58B579A5B4F114B598C237454D SWAP5 PUSH2 0x51D9 JUMP JUMPDEST PUSH2 0xF75 PUSH1 0x40 MLOAD SWAP3 DUP4 SWAP3 DUP4 PUSH2 0x5275 JUMP JUMPDEST DUP1 PUSH2 0x18EE PUSH2 0x18E1 PUSH2 0x18C8 PUSH2 0x18C3 PUSH1 0x1 SWAP6 DUP8 DUP10 PUSH2 0x4559 JUMP JUMPDEST PUSH2 0x3F16 JUMP JUMPDEST PUSH1 0x1 PUSH1 0x1 PUSH1 0xA0 SHL SUB AND PUSH0 SWAP1 DUP2 MSTORE PUSH1 0x12 PUSH1 0x20 MSTORE PUSH1 0x40 SWAP1 KECCAK256 SWAP1 JUMP JUMPDEST DUP1 SLOAD PUSH1 0xFF NOT AND PUSH1 0x1 OR SWAP1 SSTORE JUMP JUMPDEST ADD PUSH2 0x1869 JUMP JUMPDEST PUSH1 0x13 SLOAD DUP2 LT ISZERO PUSH2 0x1950 JUMPI PUSH1 0x13 PUSH0 MSTORE PUSH32 0x66DE8FFDA797E3DE9C05E8FC57B3BF0EC28A930D40B0D285D93C06501CF6A090 DUP2 ADD SLOAD PUSH1 0x1 SWAP2 SWAP1 PUSH2 0x194A SWAP1 PUSH2 0x1940 SWAP1 PUSH1 0x1 PUSH1 0x1 PUSH1 0xA0 SHL SUB AND PUSH2 0x18C8 JUMP JUMPDEST DUP1 SLOAD PUSH1 0xFF NOT AND SWAP1 SSTORE JUMP JUMPDEST ADD PUSH2 0x185E JUMP JUMPDEST PUSH2 0x4545 JUMP JUMPDEST CALLVALUE PUSH2 0x4CB JUMPI PUSH1 0x20 CALLDATASIZE PUSH1 0x3 NOT ADD SLT PUSH2 0x4CB JUMPI PUSH1 0x20 PUSH1 0x1 PUSH1 0x1 PUSH1 0xA0 SHL SUB PUSH2 0x197B PUSH1 0x4 CALLDATALOAD PUSH2 0x4D48 JUMP JUMPDEST AND PUSH1 0x40 MLOAD SWAP1 DUP2 MSTORE RETURN JUMPDEST CALLVALUE PUSH2 0x4CB JUMPI PUSH1 0x40 CALLDATASIZE PUSH1 0x3 NOT ADD SLT PUSH2 0x4CB JUMPI PUSH1 0x4 CALLDATALOAD PUSH2 0x19A1 DUP2 PUSH2 0x762 JUMP JUMPDEST PUSH1 0x24 CALLDATALOAD PUSH2 0x19B2 PUSH1 0x1 PUSH1 0x11 SLOAD EQ PUSH2 0x3F95 JUMP JUMPDEST PUSH1 0x2 PUSH1 0x11 SSTORE PUSH2 0x19C0 CALLER PUSH2 0x4D17 JUMP JUMPDEST PUSH0 SLOAD PUSH0 NOT ADD SWAP2 DUP2 DUP4 ADD DUP1 SWAP4 GT PUSH2 0xC63 JUMPI PUSH1 0xC SLOAD DUP1 SWAP4 GT PUSH2 0x19EB JUMPI PUSH2 0x19E4 SWAP3 POP PUSH2 0x4FB5 JUMP JUMPDEST PUSH1 0x1 PUSH1 0x11 SSTORE STOP JUMPDEST POP PUSH0 SLOAD PUSH0 NOT ADD SWAP1 DUP2 ADD DUP1 SWAP2 GT PUSH2 0xC63 JUMPI PUSH4 0x384B48C5 PUSH1 0xE2 SHL PUSH0 MSTORE PUSH1 0x4 MSTORE PUSH1 0x24 MSTORE PUSH1 0x44 PUSH0 REVERT JUMPDEST CALLVALUE PUSH2 0x4CB JUMPI PUSH0 CALLDATASIZE PUSH1 0x3 NOT ADD SLT PUSH2 0x4CB JUMPI PUSH2 0x1A28 PUSH2 0x4D03 JUMP JUMPDEST PUSH1 0x18 DUP1 SLOAD PUSH1 0xFF PUSH1 0xA0 SHL NOT AND PUSH1 0x1 PUSH1 0xA0 SHL OR SWAP1 SSTORE STOP JUMPDEST PUSH1 0x40 SWAP1 PUSH1 0x3 NOT ADD SLT PUSH2 0x4CB JUMPI PUSH1 0x4 CALLDATALOAD PUSH2 0x1A55 DUP2 PUSH2 0x762 JUMP JUMPDEST SWAP1 PUSH1 0x24 CALLDATALOAD PUSH2 0x61D DUP2 PUSH2 0x762 JUMP JUMPDEST CALLVALUE PUSH2 0x4CB JUMPI PUSH2 0x1A70 CALLDATASIZE PUSH2 0x1A3D JUMP JUMPDEST SWAP1 PUSH2 0x1A79 PUSH2 0x4CDC JUMP JUMPDEST PUSH2 0x1A82 DUP2 PUSH2 0x4D17 JUMP JUMPDEST PUSH1 0x1 PUSH1 0x1 PUSH1 0xA0 SHL SUB AND DUP1 EXTCODESIZE ISZERO PUSH2 0x4CB JUMPI PUSH1 0x40 MLOAD PUSH4 0x24E71B7 PUSH1 0xE3 SHL DUP2 MSTORE PUSH1 0x1 PUSH1 0x1 PUSH1 0xA0 SHL SUB SWAP1 SWAP3 AND PUSH1 0x4 DUP4 ADD MSTORE PUSH0 SWAP2 SWAP1 DUP3 SWAP1 DUP3 SWAP1 PUSH1 0x24 SWAP1 DUP3 SWAP1 DUP5 SWAP1 GAS CALL DUP1 ISZERO PUSH2 0xA1F JUMPI PUSH2 0xA11 JUMPI POP DUP1 RETURN JUMPDEST CALLVALUE PUSH2 0x4CB JUMPI PUSH0 CALLDATASIZE PUSH1 0x3 NOT ADD SLT PUSH2 0x4CB JUMPI PUSH1 0x40 MLOAD PUSH0 PUSH1 0xD SLOAD PUSH2 0x1AED DUP2 PUSH2 0x34AA JUMP JUMPDEST DUP1 DUP5 MSTORE SWAP1 PUSH1 0x1 DUP2 AND SWAP1 DUP2 ISZERO PUSH2 0x6D2 JUMPI POP PUSH1 0x1 EQ PUSH2 0x1B14 JUMPI PUSH2 0x524 DUP4 PUSH2 0x668 DUP2 DUP6 SUB DUP3 PUSH2 0x1269 JUMP JUMPDEST PUSH1 0xD PUSH0 SWAP1 DUP2 MSTORE PUSH32 0xD7B6990105719101DABEB77144F2A3385C8033ACD3AF97E9423A695E81AD1EB5 SWAP4 SWAP3 POP SWAP1 JUMPDEST DUP1 DUP3 LT PUSH2 0x1B58 JUMPI POP SWAP1 SWAP2 POP DUP2 ADD PUSH1 0x20 ADD PUSH2 0x668 PUSH2 0x658 JUMP JUMPDEST SWAP2 SWAP3 PUSH1 0x1 DUP2 PUSH1 0x20 SWAP3 SLOAD DUP4 DUP6 DUP9 ADD ADD MSTORE ADD SWAP2 ADD SWAP1 SWAP3 SWAP2 PUSH2 0x1B40 JUMP JUMPDEST CALLVALUE PUSH2 0x4CB JUMPI PUSH1 0x20 CALLDATASIZE PUSH1 0x3 NOT ADD SLT PUSH2 0x4CB JUMPI PUSH1 0x4 CALLDATALOAD PUSH2 0x1B8E PUSH2 0x4CDC JUMP JUMPDEST PUSH1 0x1 PUSH1 0x1 PUSH1 0x40 SHL SUB DUP2 GT PUSH2 0x1BF3 JUMPI PUSH0 SLOAD PUSH0 NOT ADD DUP2 LT PUSH2 0x1BD8 JUMPI PUSH1 0x20 DUP2 PUSH32 0x7810BD47DE260C3E9EE10061CF438099DD12256C79485F12F94DBCCC981E806C SWAP3 PUSH1 0xC SSTORE PUSH1 0x40 MLOAD SWAP1 DUP2 MSTORE LOG1 STOP JUMPDEST PUSH0 SLOAD PUSH0 NOT ADD SWAP1 PUSH4 0x8C19F1F9 PUSH1 0xE0 SHL PUSH0 MSTORE PUSH1 0x4 MSTORE PUSH1 0x24 MSTORE PUSH1 0x44 PUSH0 REVERT JUMPDEST PUSH4 0xB43E9137 PUSH1 0xE0 SHL PUSH0 MSTORE PUSH1 0x4 MSTORE PUSH1 0x24 PUSH0 REVERT JUMPDEST CALLVALUE PUSH2 0x4CB JUMPI PUSH1 0x20 CALLDATASIZE PUSH1 0x3 NOT ADD SLT PUSH2 0x4CB JUMPI PUSH1 0x20 PUSH2 0x98C PUSH1 0x4 CALLDATALOAD PUSH2 0x1C27 DUP2 PUSH2 0x762 JUMP JUMPDEST PUSH2 0x4233 JUMP JUMPDEST CALLVALUE PUSH2 0x4CB JUMPI PUSH0 CALLDATASIZE PUSH1 0x3 NOT ADD SLT PUSH2 0x4CB JUMPI PUSH2 0x1C44 PUSH2 0x4D03 JUMP JUMPDEST PUSH1 0xA DUP1 SLOAD PUSH1 0x1 PUSH1 0x1 PUSH1 0xA0 SHL SUB NOT DUP2 AND SWAP1 SWAP2 SSTORE PUSH0 SWAP1 PUSH1 0x1 PUSH1 0x1 PUSH1 0xA0 SHL SUB AND PUSH32 0x8BE0079C531659141344CD1FD0A4F28419497F9722A3DAAFE3B4186F6B6457E0 DUP3 DUP1 LOG3 STOP JUMPDEST CALLVALUE PUSH2 0x4CB JUMPI PUSH1 0x40 CALLDATASIZE PUSH1 0x3 NOT ADD SLT PUSH2 0x4CB JUMPI PUSH1 0x4 CALLDATALOAD PUSH1 0x24 CALLDATALOAD PUSH2 0x1CA6 PUSH2 0x4D03 JUMP JUMPDEST PUSH1 0xFF PUSH1 0x1C SLOAD PUSH1 0x8 SHR AND PUSH2 0x1D44 JUMPI PUSH32 0x6C2137E80722ED4B518B32EA50ECB69EF2C76F0451088A3C0AA79CE523BAB514 SWAP2 PUSH2 0x1D17 PUSH2 0xF75 SWAP3 PUSH1 0x40 MLOAD PUSH2 0x1D0B DUP2 PUSH2 0x1CFD PUSH1 0x20 DUP3 ADD SWAP5 DUP8 DUP7 SWAP1 SWAP2 PUSH1 0x40 SWAP3 DUP3 MSTORE PUSH1 0x20 DUP3 ADD MSTORE ADD SWAP1 JUMP JUMPDEST SUB PUSH1 0x1F NOT DUP2 ADD DUP4 MSTORE DUP3 PUSH2 0x1269 JUMP JUMPDEST MLOAD SWAP1 KECCAK256 PUSH1 0x1B SLOAD EQ PUSH2 0x4269 JUMP JUMPDEST PUSH2 0x1D20 DUP2 PUSH1 0x17 SSTORE JUMP JUMPDEST PUSH2 0x1D34 PUSH2 0x100 PUSH2 0xFF00 NOT PUSH1 0x1C SLOAD AND OR PUSH1 0x1C SSTORE JUMP JUMPDEST PUSH1 0x40 MLOAD SWAP1 DUP2 MSTORE SWAP1 DUP2 SWAP1 PUSH1 0x20 DUP3 ADD SWAP1 JUMP JUMPDEST PUSH1 0x40 MLOAD PUSH3 0x461BCD PUSH1 0xE5 SHL DUP2 MSTORE PUSH1 0x20 PUSH1 0x4 DUP3 ADD MSTORE PUSH1 0x1E PUSH1 0x24 DUP3 ADD MSTORE PUSH32 0x53687566666C6572207365656420616C72656164792072657665616C65640000 PUSH1 0x44 DUP3 ADD MSTORE PUSH1 0x64 SWAP1 REVERT JUMPDEST CALLVALUE PUSH2 0x4CB JUMPI PUSH0 CALLDATASIZE PUSH1 0x3 NOT ADD SLT PUSH2 0x4CB JUMPI PUSH1 0x20 PUSH1 0xFF PUSH1 0x1C SLOAD PUSH1 0x8 SHR AND PUSH1 0x40 MLOAD SWAP1 ISZERO ISZERO DUP2 MSTORE RETURN JUMPDEST CALLVALUE PUSH2 0x4CB JUMPI PUSH0 CALLDATASIZE PUSH1 0x3 NOT ADD SLT PUSH2 0x4CB JUMPI PUSH1 0xB SLOAD PUSH1 0x1 PUSH1 0x1 PUSH1 0xA0 SHL SUB DUP2 AND SWAP1 CALLER DUP3 SWAP1 SUB PUSH2 0x1E50 JUMPI PUSH1 0x1 PUSH1 0x1 PUSH1 0x60 SHL SUB PUSH1 0xA0 SHL AND PUSH1 0xB SSTORE PUSH32 0x11A3CF439FB225BFE74225716B6774765670EC1060E3796802E62139D69974DA PUSH1 0x20 PUSH1 0x40 MLOAD PUSH0 DUP2 MSTORE LOG1 PUSH1 0xA DUP1 SLOAD PUSH1 0x1 PUSH1 0x1 PUSH1 0xA0 SHL SUB NOT DUP2 AND DUP4 OR SWAP1 SWAP2 SSTORE PUSH1 0x1 PUSH1 0x1 PUSH1 0xA0 SHL SUB AND PUSH32 0x8BE0079C531659141344CD1FD0A4F28419497F9722A3DAAFE3B4186F6B6457E0 PUSH0 DUP1 LOG3 STOP JUMPDEST PUSH4 0x6B7584E7 PUSH1 0xE1 SHL PUSH0 MSTORE PUSH1 0x4 PUSH0 REVERT JUMPDEST CALLVALUE PUSH2 0x4CB JUMPI PUSH0 PUSH1 0x40 CALLDATASIZE PUSH1 0x3 NOT ADD SLT PUSH2 0x4CB JUMPI PUSH1 0x4 CALLDATALOAD PUSH2 0x1E7D DUP2 PUSH2 0x762 JUMP JUMPDEST PUSH1 0x24 CALLDATALOAD PUSH1 0x1 PUSH1 0x1 PUSH1 0x40 SHL SUB DUP2 GT PUSH2 0x4CB JUMPI PUSH2 0x1E9C SWAP1 CALLDATASIZE SWAP1 PUSH1 0x4 ADD PUSH2 0x140C JUMP JUMPDEST SWAP2 PUSH2 0x1EA5 PUSH2 0x4CDC JUMP JUMPDEST PUSH2 0x1EAE DUP2 PUSH2 0x4D17 JUMP JUMPDEST PUSH1 0x1 PUSH1 0x1 PUSH1 0xA0 SHL SUB AND SWAP2 DUP3 EXTCODESIZE ISZERO PUSH2 0x4CB JUMPI PUSH2 0xD13 SWAP3 PUSH0 SWAP3 DUP4 PUSH1 0x40 MLOAD DUP1 SWAP7 DUP2 SWAP6 DUP3 SWAP5 PUSH4 0xB957D0CB PUSH1 0xE0 SHL DUP5 MSTORE PUSH1 0x4 DUP5 ADD PUSH2 0x42A6 JUMP JUMPDEST CALLVALUE PUSH2 0x4CB JUMPI PUSH0 PUSH2 0x140 CALLDATASIZE PUSH1 0x3 NOT ADD SLT PUSH2 0x4CB JUMPI PUSH1 0x4 CALLDATALOAD PUSH2 0x1F01 DUP2 PUSH2 0x762 JUMP JUMPDEST PUSH1 0x24 CALLDATALOAD SWAP1 PUSH2 0x1F0E DUP3 PUSH2 0x762 JUMP JUMPDEST PUSH2 0x100 CALLDATASIZE PUSH1 0x43 NOT ADD SLT PUSH2 0x4CB JUMPI PUSH2 0x1F23 PUSH2 0x4CDC JUMP JUMPDEST PUSH2 0x1F2C DUP2 PUSH2 0x4D17 JUMP JUMPDEST PUSH1 0x1 PUSH1 0x1 PUSH1 0xA0 SHL SUB AND SWAP1 DUP2 EXTCODESIZE ISZERO PUSH2 0x4CB JUMPI PUSH1 0x40 MLOAD PUSH4 0x7ECD5915 PUSH1 0xE1 SHL DUP2 MSTORE PUSH1 0x1 PUSH1 0x1 PUSH1 0xA0 SHL SUB SWAP1 SWAP2 AND PUSH1 0x4 DUP3 ADD MSTORE SWAP1 PUSH0 SWAP1 DUP3 SWAP1 PUSH2 0x124 SWAP1 DUP3 SWAP1 DUP5 SWAP1 PUSH2 0xA01 PUSH1 0x24 DUP5 ADD PUSH2 0x42D6 JUMP JUMPDEST CALLVALUE PUSH2 0x4CB JUMPI PUSH1 0x20 CALLDATASIZE PUSH1 0x3 NOT ADD SLT PUSH2 0x4CB JUMPI PUSH1 0x4 CALLDATALOAD PUSH2 0x1F90 DUP2 PUSH2 0x762 JUMP JUMPDEST PUSH1 0x1 DUP1 PUSH1 0xA0 SHL SUB AND PUSH0 MSTORE PUSH1 0x5 PUSH1 0x20 MSTORE PUSH1 0x60 PUSH1 0x1 PUSH1 0x1 PUSH1 0x40 SHL SUB PUSH1 0x40 PUSH0 KECCAK256 SLOAD PUSH1 0x40 SHR AND PUSH0 NOT PUSH0 SLOAD ADD PUSH1 0xC SLOAD SWAP1 PUSH1 0x40 MLOAD SWAP3 DUP4 MSTORE PUSH1 0x20 DUP4 ADD MSTORE PUSH1 0x40 DUP3 ADD MSTORE RETURN JUMPDEST PUSH1 0x20 PUSH1 0x40 DUP2 DUP4 ADD SWAP3 DUP3 DUP2 MSTORE DUP5 MLOAD DUP1 SWAP5 MSTORE ADD SWAP3 ADD SWAP1 PUSH0 JUMPDEST DUP2 DUP2 LT PUSH2 0x1FF0 JUMPI POP POP POP SWAP1 JUMP JUMPDEST DUP3 MLOAD DUP5 MSTORE PUSH1 0x20 SWAP4 DUP5 ADD SWAP4 SWAP1 SWAP3 ADD SWAP2 PUSH1 0x1 ADD PUSH2 0x1FE3 JUMP JUMPDEST CALLVALUE PUSH2 0x4CB JUMPI PUSH1 0x20 CALLDATASIZE PUSH1 0x3 NOT ADD SLT PUSH2 0x4CB JUMPI PUSH1 0x4 CALLDATALOAD PUSH2 0x2023 DUP2 PUSH2 0x762 JUMP JUMPDEST PUSH0 SLOAD PUSH1 0x60 SWAP1 DUP1 PUSH1 0x1 SUB PUSH2 0x203F JUMPI JUMPDEST PUSH1 0x40 MLOAD DUP1 PUSH2 0x524 DUP5 DUP3 PUSH2 0x1FCD JUMP JUMPDEST SWAP1 DUP2 SWAP3 PUSH1 0x1 SWAP1 PUSH1 0x60 SWAP4 DUP1 DUP4 LT ISZERO PUSH2 0x2195 JUMPI PUSH0 SLOAD DUP1 SWAP2 LT ISZERO PUSH2 0x218D JUMPI JUMPDEST POP PUSH2 0x2065 DUP2 PUSH2 0x4233 JUMP JUMPDEST SWAP3 DUP6 DUP4 LT ISZERO PUSH2 0x2185 JUMPI JUMPDEST DUP4 PUSH2 0x2084 JUMPI JUMPDEST POP POP POP POP PUSH2 0x524 SWAP2 POP PUSH0 PUSH2 0x2031 JUMP JUMPDEST SWAP3 SWAP4 POP SWAP1 SWAP2 PUSH0 NOT DUP6 ADD DUP5 DUP2 GT ISZERO PUSH2 0x217D JUMPI JUMPDEST POP PUSH1 0x40 MLOAD SWAP2 DUP4 DUP6 ADD PUSH1 0x5 SHL DUP4 ADD SWAP5 DUP6 PUSH1 0x40 MSTORE PUSH2 0x20B1 DUP6 PUSH2 0x4967 JUMP JUMPDEST SWAP1 PUSH0 SWAP2 PUSH2 0x20C4 PUSH2 0xDAF PUSH1 0x40 DUP4 ADD MLOAD ISZERO ISZERO SWAP1 JUMP JUMPDEST PUSH2 0x216B JUMPI JUMPDEST POP PUSH0 SWAP8 SWAP2 SWAP6 SWAP2 DUP3 JUMPDEST ISZERO PUSH2 0x213C JUMPI JUMPDEST PUSH0 SWAP7 PUSH2 0x20E2 DUP5 PUSH2 0x53F8 JUMP JUMPDEST PUSH1 0x40 DUP2 ADD MLOAD ISZERO PUSH2 0x2101 JUMPI POP POP PUSH1 0x1 PUSH0 SWAP4 JUMPDEST ADD SWAP7 DUP9 PUSH1 0x40 MSTORE SWAP7 SWAP3 SWAP7 PUSH2 0x20D1 JUMP JUMPDEST SWAP4 SWAP1 SWAP4 MLOAD DUP1 PUSH2 0x2134 JUMPI JUMPDEST POP DUP5 DUP5 XOR DUP7 SHL ISZERO PUSH2 0x211F JUMPI JUMPDEST PUSH1 0x1 SWAP1 PUSH2 0x20F3 JUMP JUMPDEST PUSH1 0x1 SWAP1 SWAP10 ADD PUSH1 0x5 DUP2 SWAP1 SHL DUP8 ADD DUP11 SWAP1 MSTORE SWAP9 PUSH2 0x2117 JUMP JUMPDEST SWAP4 POP PUSH0 PUSH2 0x210B JUMP JUMPDEST DUP1 DUP4 EQ DUP1 ISZERO PUSH2 0x2162 JUMPI JUMPDEST ISZERO PUSH2 0x20D7 JUMPI POP POP POP POP POP SWAP2 POP POP PUSH2 0x524 SWAP2 DUP2 MSTORE PUSH0 DUP1 DUP1 DUP1 PUSH2 0x2075 JUMP JUMPDEST POP DUP2 DUP10 EQ PUSH2 0x2146 JUMP JUMPDEST MLOAD PUSH1 0x1 PUSH1 0x1 PUSH1 0xA0 SHL SUB AND SWAP2 POP PUSH0 PUSH2 0x20C9 JUMP JUMPDEST SWAP4 POP PUSH0 PUSH2 0x2096 JUMP JUMPDEST PUSH0 SWAP4 POP PUSH2 0x206F JUMP JUMPDEST SWAP5 POP PUSH0 PUSH2 0x205B JUMP JUMPDEST PUSH4 0x1960CCAD PUSH1 0xE1 SHL PUSH0 MSTORE PUSH1 0x4 PUSH0 REVERT JUMPDEST CALLVALUE PUSH2 0x4CB JUMPI PUSH1 0x40 CALLDATASIZE PUSH1 0x3 NOT ADD SLT PUSH2 0x4CB JUMPI PUSH32 0x7BCCB191591B7E41B276DF97EBF2CBB27E85E20FA7DB7D336D3A9738021466F PUSH2 0x2241 PUSH1 0x4 CALLDATALOAD PUSH2 0x2226 PUSH1 0x24 CALLDATALOAD PUSH2 0x21EA PUSH2 0x4D03 JUMP JUMPDEST PUSH2 0x21F9 PUSH1 0xFF PUSH1 0x1C SLOAD AND ISZERO PUSH2 0x4398 JUMP JUMPDEST PUSH1 0x40 MLOAD PUSH2 0x221A DUP2 PUSH2 0x1CFD PUSH1 0x20 DUP3 ADD SWAP5 DUP8 DUP7 SWAP1 SWAP2 PUSH1 0x40 SWAP3 DUP3 MSTORE PUSH1 0x20 DUP3 ADD MSTORE ADD SWAP1 JUMP JUMPDEST MLOAD SWAP1 KECCAK256 PUSH1 0x1A SLOAD EQ PUSH2 0x4269 JUMP JUMPDEST PUSH2 0x222F DUP2 PUSH1 0x16 SSTORE JUMP JUMPDEST PUSH2 0x1D34 PUSH1 0x1 PUSH1 0xFF NOT PUSH1 0x1C SLOAD AND OR PUSH1 0x1C SSTORE JUMP JUMPDEST SUB SWAP1 LOG1 PUSH0 SLOAD PUSH1 0x1 SLOAD SWAP1 SUB PUSH0 NOT ADD PUSH2 0x14DB JUMP JUMPDEST CALLVALUE PUSH2 0x4CB JUMPI PUSH0 CALLDATASIZE PUSH1 0x3 NOT ADD SLT PUSH2 0x4CB JUMPI PUSH1 0x18 SLOAD PUSH1 0x40 MLOAD PUSH1 0x1 PUSH1 0x1 PUSH1 0xA0 SHL SUB SWAP1 SWAP2 AND DUP2 MSTORE PUSH1 0x20 SWAP1 RETURN JUMPDEST CALLVALUE PUSH2 0x4CB JUMPI PUSH0 CALLDATASIZE PUSH1 0x3 NOT ADD SLT PUSH2 0x4CB JUMPI PUSH1 0xA SLOAD PUSH1 0x40 MLOAD PUSH1 0x1 PUSH1 0x1 PUSH1 0xA0 SHL SUB SWAP1 SWAP2 AND DUP2 MSTORE PUSH1 0x20 SWAP1 RETURN JUMPDEST CALLVALUE PUSH2 0x4CB JUMPI PUSH1 0x20 CALLDATASIZE PUSH1 0x3 NOT ADD SLT PUSH2 0x4CB JUMPI PUSH1 0x4 CALLDATALOAD PUSH1 0x1 PUSH1 0x1 PUSH1 0x40 SHL SUB DUP2 GT PUSH2 0x4CB JUMPI DUP1 PUSH1 0x4 ADD SWAP1 PUSH2 0x300 PUSH1 0x3 NOT DUP3 CALLDATASIZE SUB ADD SLT PUSH2 0x4CB JUMPI PUSH2 0x22E1 PUSH2 0x4D03 JUMP JUMPDEST DUP2 CALLDATALOAD DUP1 PUSH2 0x2C73 JUMPI JUMPDEST POP PUSH1 0x24 DUP2 ADD PUSH2 0x22F8 DUP2 DUP5 PUSH2 0x43E4 JUMP JUMPDEST SWAP1 POP PUSH2 0x2C1A JUMPI JUMPDEST POP PUSH1 0x44 DUP2 ADD PUSH2 0x230E DUP2 DUP5 PUSH2 0x43E4 JUMP JUMPDEST SWAP1 POP PUSH2 0x2BC1 JUMPI JUMPDEST POP PUSH1 0x1 PUSH6 0xFFFFFFFFFFFF PUSH2 0x232B PUSH1 0xA4 DUP5 ADD PUSH2 0x4416 JUMP JUMPDEST AND ISZERO ISZERO PUSH2 0x2348 PUSH2 0x233D PUSH1 0xC4 DUP6 ADD PUSH2 0x4416 JUMP JUMPDEST PUSH6 0xFFFFFFFFFFFF AND SWAP1 JUMP JUMPDEST ISZERO ISZERO OR EQ PUSH2 0x2B5F JUMPI JUMPDEST PUSH2 0x144 DUP2 ADD PUSH2 0x2360 DUP2 DUP5 PUSH2 0x43E4 JUMP JUMPDEST SWAP1 POP PUSH2 0x2AFB JUMPI JUMPDEST POP PUSH2 0x164 DUP2 ADD PUSH2 0x2377 DUP2 DUP5 PUSH2 0x44D9 JUMP JUMPDEST CALLDATALOAD PUSH2 0x2A96 JUMPI JUMPDEST POP PUSH2 0x184 DUP2 ADD PUSH1 0x1 PUSH1 0x1 PUSH1 0xA0 SHL SUB PUSH2 0x2394 DUP3 PUSH2 0x3F16 JUMP JUMPDEST AND PUSH2 0x2A2D JUMPI JUMPDEST POP PUSH2 0x1A4 DUP2 ADD CALLDATALOAD DUP1 PUSH2 0x29E9 JUMPI JUMPDEST POP PUSH2 0x1C4 DUP2 ADD PUSH2 0x23B7 DUP2 DUP5 PUSH2 0x4510 JUMP JUMPDEST SWAP1 POP PUSH2 0x2946 JUMPI JUMPDEST POP PUSH2 0x1E4 DUP2 ADD PUSH2 0x23CE DUP2 DUP5 PUSH2 0x4510 JUMP JUMPDEST SWAP1 POP PUSH2 0x28A3 JUMPI JUMPDEST POP PUSH2 0x204 DUP2 ADD PUSH2 0x23E5 DUP2 DUP5 PUSH2 0x4510 JUMP JUMPDEST SWAP1 POP PUSH2 0x2800 JUMPI JUMPDEST POP PUSH2 0x224 DUP2 ADD PUSH2 0x23FC DUP2 DUP5 PUSH2 0x4510 JUMP JUMPDEST SWAP1 POP PUSH2 0x275D JUMPI JUMPDEST POP PUSH2 0x264 DUP2 ADD PUSH2 0x2413 DUP2 DUP5 PUSH2 0x4569 JUMP JUMPDEST SWAP1 POP PUSH2 0x267F JUMPI JUMPDEST POP PUSH2 0x284 DUP2 ADD PUSH2 0x242A DUP2 DUP5 PUSH2 0x4510 JUMP JUMPDEST SWAP1 POP PUSH2 0x25E0 JUMPI JUMPDEST POP PUSH2 0x2C4 DUP2 ADD PUSH2 0x2441 DUP2 DUP5 PUSH2 0x4787 JUMP JUMPDEST SWAP1 POP PUSH2 0x2502 JUMPI JUMPDEST POP PUSH2 0x2E4 DUP2 ADD SWAP2 PUSH2 0x2459 DUP4 DUP3 PUSH2 0x4510 JUMP JUMPDEST SWAP1 POP PUSH2 0x2461 JUMPI STOP JUMPDEST PUSH1 0x64 PUSH0 SWAP4 SWAP3 ADD SWAP3 JUMPDEST PUSH2 0x2473 DUP4 DUP4 PUSH2 0x4510 JUMP JUMPDEST SWAP1 POP DUP2 LT ISZERO PUSH2 0xA1D JUMPI PUSH2 0x2484 PUSH2 0x4894 JUMP JUMPDEST SWAP1 PUSH2 0x248E DUP6 PUSH2 0x3F16 JUMP JUMPDEST PUSH2 0x24A5 PUSH2 0x18C3 DUP4 PUSH2 0x249F DUP9 DUP9 PUSH2 0x4510 JUMP JUMPDEST SWAP1 PUSH2 0x4559 JUMP JUMPDEST ADDRESS EXTCODESIZE ISZERO PUSH2 0x4CB JUMPI PUSH0 SWAP2 PUSH2 0x24CC PUSH1 0x40 MLOAD SWAP6 DUP7 SWAP4 DUP5 SWAP4 PUSH4 0x1446A991 PUSH1 0xE2 SHL DUP6 MSTORE PUSH1 0x4 DUP6 ADD PUSH2 0x48CA JUMP JUMPDEST SUB DUP2 DUP4 ADDRESS GAS CALL SWAP2 DUP3 ISZERO PUSH2 0xA1F JUMPI PUSH1 0x1 SWAP3 PUSH2 0x24E8 JUMPI JUMPDEST POP ADD PUSH2 0x2469 JUMP JUMPDEST DUP1 PUSH2 0x24F6 PUSH0 PUSH2 0x24FC SWAP4 PUSH2 0x1269 JUMP JUMPDEST DUP1 PUSH2 0x5DE JUMP JUMPDEST PUSH0 PUSH2 0x24E1 JUMP JUMPDEST PUSH2 0x250C DUP2 DUP5 PUSH2 0x4787 JUMP JUMPDEST PUSH2 0x2A4 DUP5 ADD SWAP3 SWAP2 POP PUSH2 0x251E DUP4 DUP7 PUSH2 0x4510 JUMP JUMPDEST SWAP2 SWAP1 POP SUB PUSH2 0x25D1 JUMPI PUSH1 0x64 DUP4 ADD PUSH0 JUMPDEST PUSH2 0x2536 DUP4 DUP8 PUSH2 0x4787 JUMP JUMPDEST SWAP1 POP DUP2 LT ISZERO PUSH2 0x25C7 JUMPI PUSH2 0x2548 DUP3 PUSH2 0x3F16 JUMP JUMPDEST SWAP1 PUSH2 0x255A PUSH2 0x18C3 DUP3 PUSH2 0x249F DUP9 DUP12 PUSH2 0x4510 JUMP JUMPDEST SWAP2 PUSH2 0x256F DUP3 PUSH2 0x2569 DUP8 DUP12 PUSH2 0x4787 JUMP JUMPDEST SWAP1 PUSH2 0x47BC JUMP JUMPDEST SWAP3 ADDRESS EXTCODESIZE ISZERO PUSH2 0x4CB JUMPI PUSH0 SWAP2 PUSH2 0x2597 PUSH1 0x40 MLOAD SWAP6 DUP7 SWAP4 DUP5 SWAP4 PUSH4 0x1446A991 PUSH1 0xE2 SHL DUP6 MSTORE PUSH1 0x4 DUP6 ADD PUSH2 0x47CC JUMP JUMPDEST SUB DUP2 DUP4 ADDRESS GAS CALL SWAP2 DUP3 ISZERO PUSH2 0xA1F JUMPI PUSH1 0x1 SWAP3 PUSH2 0x25B3 JUMPI JUMPDEST POP ADD PUSH2 0x252C JUMP JUMPDEST DUP1 PUSH2 0x24F6 PUSH0 PUSH2 0x25C1 SWAP4 PUSH2 0x1269 JUMP JUMPDEST PUSH0 PUSH2 0x25AC JUMP JUMPDEST POP POP POP POP PUSH0 PUSH2 0x2448 JUMP JUMPDEST PUSH4 0x74EF6DF7 PUSH1 0xE0 SHL PUSH0 MSTORE PUSH1 0x4 PUSH0 REVERT JUMPDEST PUSH1 0x64 DUP3 ADD SWAP3 SWAP1 PUSH0 JUMPDEST PUSH2 0x25F2 DUP3 DUP5 PUSH2 0x4510 JUMP JUMPDEST SWAP1 POP DUP2 LT ISZERO PUSH2 0x2675 JUMPI PUSH2 0x2603 PUSH2 0x4693 JUMP JUMPDEST SWAP1 PUSH2 0x260D DUP7 PUSH2 0x3F16 JUMP JUMPDEST PUSH2 0x261E PUSH2 0x18C3 DUP4 PUSH2 0x249F DUP8 DUP10 PUSH2 0x4510 JUMP JUMPDEST ADDRESS EXTCODESIZE ISZERO PUSH2 0x4CB JUMPI PUSH0 SWAP2 PUSH2 0x2645 PUSH1 0x40 MLOAD SWAP6 DUP7 SWAP4 DUP5 SWAP4 PUSH4 0x3DE15F3B PUSH1 0xE1 SHL DUP6 MSTORE PUSH1 0x4 DUP6 ADD PUSH2 0x46E0 JUMP JUMPDEST SUB DUP2 DUP4 ADDRESS GAS CALL SWAP2 DUP3 ISZERO PUSH2 0xA1F JUMPI PUSH1 0x1 SWAP3 PUSH2 0x2661 JUMPI JUMPDEST POP ADD PUSH2 0x25E8 JUMP JUMPDEST DUP1 PUSH2 0x24F6 PUSH0 PUSH2 0x266F SWAP4 PUSH2 0x1269 JUMP JUMPDEST PUSH0 PUSH2 0x265A JUMP JUMPDEST POP POP SWAP2 POP PUSH0 PUSH2 0x2431 JUMP JUMPDEST PUSH2 0x2689 DUP2 DUP5 PUSH2 0x4569 JUMP JUMPDEST PUSH2 0x244 DUP5 ADD SWAP3 SWAP2 POP PUSH2 0x269B DUP4 DUP7 PUSH2 0x4510 JUMP JUMPDEST SWAP2 SWAP1 POP SUB PUSH2 0x274E JUMPI PUSH1 0x64 DUP4 ADD PUSH0 JUMPDEST PUSH2 0x26B3 DUP4 DUP8 PUSH2 0x4569 JUMP JUMPDEST SWAP1 POP DUP2 LT ISZERO PUSH2 0x2744 JUMPI PUSH2 0x26C5 DUP3 PUSH2 0x3F16 JUMP JUMPDEST SWAP1 PUSH2 0x26D7 PUSH2 0x18C3 DUP3 PUSH2 0x249F DUP9 DUP12 PUSH2 0x4510 JUMP JUMPDEST SWAP2 PUSH2 0x26EC DUP3 PUSH2 0x26E6 DUP8 DUP12 PUSH2 0x4569 JUMP JUMPDEST SWAP1 PUSH2 0x459E JUMP JUMPDEST SWAP3 ADDRESS EXTCODESIZE ISZERO PUSH2 0x4CB JUMPI PUSH0 SWAP2 PUSH2 0x2714 PUSH1 0x40 MLOAD SWAP6 DUP7 SWAP4 DUP5 SWAP4 PUSH4 0x3DE15F3B PUSH1 0xE1 SHL DUP6 MSTORE PUSH1 0x4 DUP6 ADD PUSH2 0x45AE JUMP JUMPDEST SUB DUP2 DUP4 ADDRESS GAS CALL SWAP2 DUP3 ISZERO PUSH2 0xA1F JUMPI PUSH1 0x1 SWAP3 PUSH2 0x2730 JUMPI JUMPDEST POP ADD PUSH2 0x26A9 JUMP JUMPDEST DUP1 PUSH2 0x24F6 PUSH0 PUSH2 0x273E SWAP4 PUSH2 0x1269 JUMP JUMPDEST PUSH0 PUSH2 0x2729 JUMP JUMPDEST POP POP POP POP PUSH0 PUSH2 0x241A JUMP JUMPDEST PUSH4 0xB81AA639 PUSH1 0xE0 SHL PUSH0 MSTORE PUSH1 0x4 PUSH0 REVERT JUMPDEST PUSH1 0x64 DUP3 ADD PUSH0 JUMPDEST PUSH2 0x276D DUP4 DUP7 PUSH2 0x4510 JUMP JUMPDEST SWAP1 POP DUP2 LT ISZERO PUSH2 0x27F7 JUMPI PUSH2 0x277F DUP3 PUSH2 0x3F16 JUMP JUMPDEST SWAP1 PUSH2 0x2791 PUSH2 0x18C3 DUP3 PUSH2 0x249F DUP8 DUP11 PUSH2 0x4510 JUMP JUMPDEST SWAP2 ADDRESS EXTCODESIZE ISZERO PUSH2 0x4CB JUMPI PUSH1 0x40 MLOAD PUSH4 0x196E8775 PUSH1 0xE3 SHL DUP2 MSTORE PUSH1 0x1 PUSH1 0x1 PUSH1 0xA0 SHL SUB SWAP2 DUP3 AND PUSH1 0x4 DUP3 ADD MSTORE SWAP3 AND PUSH1 0x24 DUP4 ADD MSTORE PUSH0 PUSH1 0x44 DUP4 ADD DUP2 SWAP1 MSTORE DUP3 PUSH1 0x64 DUP2 DUP4 ADDRESS GAS CALL SWAP2 DUP3 ISZERO PUSH2 0xA1F JUMPI PUSH1 0x1 SWAP3 PUSH2 0x27E3 JUMPI JUMPDEST POP ADD PUSH2 0x2763 JUMP JUMPDEST DUP1 PUSH2 0x24F6 PUSH0 PUSH2 0x27F1 SWAP4 PUSH2 0x1269 JUMP JUMPDEST PUSH0 PUSH2 0x27DC JUMP JUMPDEST POP POP POP PUSH0 PUSH2 0x2403 JUMP JUMPDEST PUSH1 0x64 DUP3 ADD PUSH0 JUMPDEST PUSH2 0x2810 DUP4 DUP7 PUSH2 0x4510 JUMP JUMPDEST SWAP1 POP DUP2 LT ISZERO PUSH2 0x289A JUMPI PUSH2 0x2822 DUP3 PUSH2 0x3F16 JUMP JUMPDEST SWAP1 PUSH2 0x2834 PUSH2 0x18C3 DUP3 PUSH2 0x249F DUP8 DUP11 PUSH2 0x4510 JUMP JUMPDEST SWAP2 ADDRESS EXTCODESIZE ISZERO PUSH2 0x4CB JUMPI PUSH1 0x40 MLOAD PUSH4 0x196E8775 PUSH1 0xE3 SHL DUP2 MSTORE PUSH1 0x1 PUSH1 0x1 PUSH1 0xA0 SHL SUB SWAP2 DUP3 AND PUSH1 0x4 DUP3 ADD MSTORE SWAP3 AND PUSH1 0x24 DUP4 ADD MSTORE PUSH1 0x1 PUSH1 0x44 DUP4 ADD MSTORE PUSH0 DUP3 PUSH1 0x64 DUP2 DUP4 ADDRESS GAS CALL SWAP2 DUP3 ISZERO PUSH2 0xA1F JUMPI PUSH1 0x1 SWAP3 PUSH2 0x2886 JUMPI JUMPDEST POP ADD PUSH2 0x2806 JUMP JUMPDEST DUP1 PUSH2 0x24F6 PUSH0 PUSH2 0x2894 SWAP4 PUSH2 0x1269 JUMP JUMPDEST PUSH0 PUSH2 0x287F JUMP JUMPDEST POP POP POP PUSH0 PUSH2 0x23EC JUMP JUMPDEST PUSH1 0x64 DUP3 ADD PUSH0 JUMPDEST PUSH2 0x28B3 DUP4 DUP7 PUSH2 0x4510 JUMP JUMPDEST SWAP1 POP DUP2 LT ISZERO PUSH2 0x293D JUMPI PUSH2 0x28C5 DUP3 PUSH2 0x3F16 JUMP JUMPDEST SWAP1 PUSH2 0x28D7 PUSH2 0x18C3 DUP3 PUSH2 0x249F DUP8 DUP11 PUSH2 0x4510 JUMP JUMPDEST SWAP2 ADDRESS EXTCODESIZE ISZERO PUSH2 0x4CB JUMPI PUSH1 0x40 MLOAD PUSH4 0x48A4C101 PUSH1 0xE0 SHL DUP2 MSTORE PUSH1 0x1 PUSH1 0x1 PUSH1 0xA0 SHL SUB SWAP2 DUP3 AND PUSH1 0x4 DUP3 ADD MSTORE SWAP3 AND PUSH1 0x24 DUP4 ADD MSTORE PUSH0 PUSH1 0x44 DUP4 ADD DUP2 SWAP1 MSTORE DUP3 PUSH1 0x64 DUP2 DUP4 ADDRESS GAS CALL SWAP2 DUP3 ISZERO PUSH2 0xA1F JUMPI PUSH1 0x1 SWAP3 PUSH2 0x2929 JUMPI JUMPDEST POP ADD PUSH2 0x28A9 JUMP JUMPDEST DUP1 PUSH2 0x24F6 PUSH0 PUSH2 0x2937 SWAP4 PUSH2 0x1269 JUMP JUMPDEST PUSH0 PUSH2 0x2922 JUMP JUMPDEST POP POP POP PUSH0 PUSH2 0x23D5 JUMP JUMPDEST PUSH1 0x64 DUP3 ADD PUSH0 JUMPDEST PUSH2 0x2956 DUP4 DUP7 PUSH2 0x4510 JUMP JUMPDEST SWAP1 POP DUP2 LT ISZERO PUSH2 0x29E0 JUMPI PUSH2 0x2968 DUP3 PUSH2 0x3F16 JUMP JUMPDEST SWAP1 PUSH2 0x297A PUSH2 0x18C3 DUP3 PUSH2 0x249F DUP8 DUP11 PUSH2 0x4510 JUMP JUMPDEST SWAP2 ADDRESS EXTCODESIZE ISZERO PUSH2 0x4CB JUMPI PUSH1 0x40 MLOAD PUSH4 0x48A4C101 PUSH1 0xE0 SHL DUP2 MSTORE PUSH1 0x1 PUSH1 0x1 PUSH1 0xA0 SHL SUB SWAP2 DUP3 AND PUSH1 0x4 DUP3 ADD MSTORE SWAP3 AND PUSH1 0x24 DUP4 ADD MSTORE PUSH1 0x1 PUSH1 0x44 DUP4 ADD MSTORE PUSH0 DUP3 PUSH1 0x64 DUP2 DUP4 ADDRESS GAS CALL SWAP2 DUP3 ISZERO PUSH2 0xA1F JUMPI PUSH1 0x1 SWAP3 PUSH2 0x29CC JUMPI JUMPDEST POP ADD PUSH2 0x294C JUMP JUMPDEST DUP1 PUSH2 0x24F6 PUSH0 PUSH2 0x29DA SWAP4 PUSH2 0x1269 JUMP JUMPDEST PUSH0 PUSH2 0x29C5 JUMP JUMPDEST POP POP POP PUSH0 PUSH2 0x23BE JUMP JUMPDEST ADDRESS EXTCODESIZE ISZERO PUSH2 0x4CB JUMPI PUSH1 0x40 MLOAD PUSH4 0x4CDB5FD PUSH1 0xE1 SHL DUP2 MSTORE PUSH1 0x4 DUP2 ADD SWAP2 SWAP1 SWAP2 MSTORE PUSH0 DUP2 PUSH1 0x24 DUP2 DUP4 ADDRESS GAS CALL DUP1 ISZERO PUSH2 0xA1F JUMPI ISZERO PUSH2 0x23A7 JUMPI DUP1 PUSH2 0x24F6 PUSH0 PUSH2 0x2A27 SWAP4 PUSH2 0x1269 JUMP JUMPDEST PUSH0 PUSH2 0x23A7 JUMP JUMPDEST PUSH2 0x2A42 PUSH2 0x2A3C PUSH1 0x64 DUP5 ADD PUSH2 0x3F16 JUMP JUMPDEST SWAP2 PUSH2 0x3F16 JUMP JUMPDEST SWAP1 ADDRESS EXTCODESIZE ISZERO PUSH2 0x4CB JUMPI PUSH1 0x40 MLOAD PUSH4 0x66251B69 PUSH1 0xE0 SHL DUP2 MSTORE PUSH1 0x1 PUSH1 0x1 PUSH1 0xA0 SHL SUB SWAP2 DUP3 AND PUSH1 0x4 DUP3 ADD MSTORE SWAP2 AND PUSH1 0x24 DUP3 ADD MSTORE PUSH0 DUP2 PUSH1 0x44 DUP2 DUP4 ADDRESS GAS CALL DUP1 ISZERO PUSH2 0xA1F JUMPI ISZERO PUSH2 0x239A JUMPI DUP1 PUSH2 0x24F6 PUSH0 PUSH2 0x2A90 SWAP4 PUSH2 0x1269 JUMP JUMPDEST PUSH0 PUSH2 0x239A JUMP JUMPDEST PUSH2 0x2AAC PUSH2 0x2AA5 PUSH1 0x64 DUP5 ADD PUSH2 0x3F16 JUMP JUMPDEST SWAP2 DUP5 PUSH2 0x44D9 JUMP JUMPDEST SWAP1 ADDRESS EXTCODESIZE ISZERO PUSH2 0x4CB JUMPI PUSH1 0x40 MLOAD PUSH4 0x3680620D PUSH1 0xE0 SHL DUP2 MSTORE SWAP2 PUSH0 SWAP2 DUP4 SWAP2 DUP3 SWAP2 PUSH2 0x2AD6 SWAP2 SWAP1 PUSH1 0x4 DUP5 ADD PUSH2 0x44EE JUMP JUMPDEST SUB DUP2 DUP4 ADDRESS GAS CALL DUP1 ISZERO PUSH2 0xA1F JUMPI ISZERO PUSH2 0x237D JUMPI DUP1 PUSH2 0x24F6 PUSH0 PUSH2 0x2AF5 SWAP4 PUSH2 0x1269 JUMP JUMPDEST PUSH0 PUSH2 0x237D JUMP JUMPDEST PUSH2 0x2B11 PUSH2 0x2B0A PUSH1 0x64 DUP5 ADD PUSH2 0x3F16 JUMP JUMPDEST SWAP2 DUP5 PUSH2 0x43E4 JUMP JUMPDEST SWAP2 SWAP1 ADDRESS EXTCODESIZE ISZERO PUSH2 0x4CB JUMPI PUSH0 SWAP2 PUSH2 0x2B3A PUSH1 0x40 MLOAD SWAP5 DUP6 SWAP4 DUP5 SWAP4 PUSH4 0x3D02DE41 PUSH1 0xE1 SHL DUP6 MSTORE PUSH1 0x4 DUP6 ADD PUSH2 0x44B7 JUMP JUMPDEST SUB DUP2 DUP4 ADDRESS GAS CALL DUP1 ISZERO PUSH2 0xA1F JUMPI ISZERO PUSH2 0x2367 JUMPI DUP1 PUSH2 0x24F6 PUSH0 PUSH2 0x2B59 SWAP4 PUSH2 0x1269 JUMP JUMPDEST PUSH0 PUSH2 0x2367 JUMP JUMPDEST PUSH2 0x2B6B PUSH1 0x64 DUP3 ADD PUSH2 0x3F16 JUMP JUMPDEST ADDRESS EXTCODESIZE ISZERO PUSH2 0x4CB JUMPI PUSH0 PUSH2 0x2B96 SWAP2 PUSH1 0x40 MLOAD DUP1 SWAP4 DUP2 SWAP3 PUSH4 0x6DCD64F PUSH1 0xE2 SHL DUP4 MSTORE PUSH1 0x84 DUP8 ADD SWAP1 PUSH1 0x4 DUP5 ADD PUSH2 0x4420 JUMP JUMPDEST SUB DUP2 DUP4 ADDRESS GAS CALL DUP1 ISZERO PUSH2 0xA1F JUMPI PUSH2 0x2BAD JUMPI JUMPDEST POP PUSH2 0x2351 JUMP JUMPDEST DUP1 PUSH2 0x24F6 PUSH0 PUSH2 0x2BBB SWAP4 PUSH2 0x1269 JUMP JUMPDEST PUSH0 PUSH2 0x2BA7 JUMP JUMPDEST PUSH2 0x2BCB SWAP1 DUP4 PUSH2 0x43E4 JUMP JUMPDEST SWAP1 ADDRESS EXTCODESIZE ISZERO PUSH2 0x4CB JUMPI PUSH1 0x40 MLOAD PUSH4 0x938E3D7B PUSH1 0xE0 SHL DUP2 MSTORE SWAP2 PUSH0 SWAP2 DUP4 SWAP2 DUP3 SWAP2 PUSH2 0x2BF5 SWAP2 SWAP1 PUSH1 0x4 DUP5 ADD PUSH2 0x42A6 JUMP JUMPDEST SUB DUP2 DUP4 ADDRESS GAS CALL DUP1 ISZERO PUSH2 0xA1F JUMPI ISZERO PUSH2 0x2315 JUMPI DUP1 PUSH2 0x24F6 PUSH0 PUSH2 0x2C14 SWAP4 PUSH2 0x1269 JUMP JUMPDEST PUSH0 PUSH2 0x2315 JUMP JUMPDEST PUSH2 0x2C24 SWAP1 DUP4 PUSH2 0x43E4 JUMP JUMPDEST SWAP1 ADDRESS EXTCODESIZE ISZERO PUSH2 0x4CB JUMPI PUSH1 0x40 MLOAD PUSH4 0x55F804B3 PUSH1 0xE0 SHL DUP2 MSTORE SWAP2 PUSH0 SWAP2 DUP4 SWAP2 DUP3 SWAP2 PUSH2 0x2C4E SWAP2 SWAP1 PUSH1 0x4 DUP5 ADD PUSH2 0x42A6 JUMP JUMPDEST SUB DUP2 DUP4 ADDRESS GAS CALL DUP1 ISZERO PUSH2 0xA1F JUMPI ISZERO PUSH2 0x22FF JUMPI DUP1 PUSH2 0x24F6 PUSH0 PUSH2 0x2C6D SWAP4 PUSH2 0x1269 JUMP JUMPDEST PUSH0 PUSH2 0x22FF JUMP JUMPDEST ADDRESS EXTCODESIZE ISZERO PUSH2 0x4CB JUMPI PUSH1 0x40 MLOAD PUSH4 0x6F8B44B PUSH1 0xE4 SHL DUP2 MSTORE PUSH1 0x4 DUP2 ADD SWAP2 SWAP1 SWAP2 MSTORE PUSH0 DUP2 PUSH1 0x24 DUP2 DUP4 ADDRESS GAS CALL DUP1 ISZERO PUSH2 0xA1F JUMPI ISZERO PUSH2 0x22E9 JUMPI DUP1 PUSH2 0x24F6 PUSH0 PUSH2 0x2CB1 SWAP4 PUSH2 0x1269 JUMP JUMPDEST PUSH0 PUSH2 0x22E9 JUMP JUMPDEST CALLVALUE PUSH2 0x4CB JUMPI PUSH2 0x2CC5 CALLDATASIZE PUSH2 0x1439 JUMP JUMPDEST PUSH2 0x2CCD PUSH2 0x4CDC JUMP JUMPDEST PUSH1 0x1 PUSH1 0x1 PUSH1 0x40 SHL SUB DUP2 GT PUSH2 0x1249 JUMPI PUSH2 0x2CEF DUP2 PUSH2 0x2CEA PUSH1 0xE SLOAD PUSH2 0x34AA JUMP JUMPDEST PUSH2 0x3B66 JUMP JUMPDEST PUSH0 SWAP2 PUSH1 0x1F DUP3 GT PUSH1 0x1 EQ PUSH2 0x2D5B JUMPI PUSH2 0x2D3D DUP3 DUP1 PUSH32 0x905D981207A7D0B6C62CC46AB0BE2A076D0298E4A86D0AB79882DBD01AC37378 SWAP6 PUSH0 SWAP2 PUSH2 0x2D50 JUMPI JUMPDEST POP DUP2 PUSH1 0x1 SHL SWAP2 PUSH0 NOT SWAP1 PUSH1 0x3 SHL SHR NOT AND OR SWAP1 JUMP JUMPDEST PUSH1 0xE SSTORE JUMPDEST PUSH2 0xF75 PUSH1 0x40 MLOAD SWAP3 DUP4 SWAP3 DUP4 PUSH2 0x42A6 JUMP JUMPDEST SWAP1 POP DUP4 ADD CALLDATALOAD PUSH0 PUSH2 0x2D2A JUMP JUMPDEST PUSH1 0xE PUSH0 MSTORE PUSH1 0x1F NOT DUP3 AND PUSH32 0xBB7B4A454DC3493923482F07822329ED19E8244EFF582CC204F8554C3620C3FD SWAP1 PUSH0 JUMPDEST DUP2 DUP2 LT PUSH2 0x2DE3 JUMPI POP SWAP4 DUP4 PUSH32 0x905D981207A7D0B6C62CC46AB0BE2A076D0298E4A86D0AB79882DBD01AC37378 SWAP6 LT PUSH2 0x2DCA JUMPI JUMPDEST POP POP PUSH1 0x1 DUP3 DUP2 SHL ADD PUSH1 0xE SSTORE PUSH2 0x2D41 JUMP JUMPDEST DUP3 ADD CALLDATALOAD PUSH0 NOT PUSH1 0x3 DUP6 SWAP1 SHL PUSH1 0xF8 AND SHR NOT AND SWAP1 SSTORE PUSH0 DUP1 PUSH2 0x2DBA JUMP JUMPDEST DUP4 DUP7 ADD CALLDATALOAD DUP4 SSTORE PUSH1 0x20 SWAP6 DUP7 ADD SWAP6 PUSH1 0x1 SWAP1 SWAP4 ADD SWAP3 ADD PUSH2 0x2D88 JUMP JUMPDEST CALLVALUE PUSH2 0x4CB JUMPI PUSH0 CALLDATASIZE PUSH1 0x3 NOT ADD SLT PUSH2 0x4CB JUMPI PUSH1 0x20 PUSH1 0xFF PUSH1 0x1C SLOAD AND PUSH1 0x40 MLOAD SWAP1 ISZERO ISZERO DUP2 MSTORE RETURN JUMPDEST CALLVALUE PUSH2 0x4CB JUMPI PUSH0 CALLDATASIZE PUSH1 0x3 NOT ADD SLT PUSH2 0x4CB JUMPI PUSH1 0x40 MLOAD PUSH0 PUSH1 0x3 SLOAD PUSH2 0x2E3D DUP2 PUSH2 0x34AA JUMP JUMPDEST DUP1 DUP5 MSTORE SWAP1 PUSH1 0x1 DUP2 AND SWAP1 DUP2 ISZERO PUSH2 0x6D2 JUMPI POP PUSH1 0x1 EQ PUSH2 0x2E64 JUMPI PUSH2 0x524 DUP4 PUSH2 0x668 DUP2 DUP6 SUB DUP3 PUSH2 0x1269 JUMP JUMPDEST PUSH1 0x3 PUSH0 SWAP1 DUP2 MSTORE PUSH32 0xC2575A0E9E593C00F959F8C92F12DB2869C3395A3B0502D05E2516446F71F85B SWAP4 SWAP3 POP SWAP1 JUMPDEST DUP1 DUP3 LT PUSH2 0x2EA8 JUMPI POP SWAP1 SWAP2 POP DUP2 ADD PUSH1 0x20 ADD PUSH2 0x668 PUSH2 0x658 JUMP JUMPDEST SWAP2 SWAP3 PUSH1 0x1 DUP2 PUSH1 0x20 SWAP3 SLOAD DUP4 DUP6 DUP9 ADD ADD MSTORE ADD SWAP2 ADD SWAP1 SWAP3 SWAP2 PUSH2 0x2E90 JUMP JUMPDEST CALLVALUE PUSH2 0x4CB JUMPI PUSH1 0x60 CALLDATASIZE PUSH1 0x3 NOT ADD SLT PUSH2 0x4CB JUMPI PUSH1 0x4 CALLDATALOAD PUSH2 0x2EDF DUP2 PUSH2 0x762 JUMP JUMPDEST PUSH1 0x44 CALLDATALOAD SWAP1 PUSH1 0x60 SWAP1 PUSH1 0x24 CALLDATALOAD DUP4 DUP2 DUP2 DUP2 LT ISZERO PUSH2 0x2195 JUMPI PUSH1 0x1 GT PUSH2 0x303E JUMPI JUMPDEST PUSH0 SLOAD DUP1 SWAP2 LT ISZERO PUSH2 0x3036 JUMPI JUMPDEST POP PUSH2 0x2F10 DUP3 PUSH2 0x4233 JUMP JUMPDEST SWAP2 DUP5 DUP3 LT ISZERO PUSH2 0x302E JUMPI JUMPDEST DUP3 PUSH2 0x2F2E JUMPI JUMPDEST PUSH1 0x40 MLOAD DUP1 PUSH2 0x524 DUP7 DUP3 PUSH2 0x1FCD JUMP JUMPDEST SWAP1 DUP1 SWAP3 SWAP4 POP DUP5 SUB DUP4 DUP2 GT ISZERO PUSH2 0x3026 JUMPI JUMPDEST POP PUSH1 0x40 MLOAD SWAP1 PUSH1 0x1 DUP5 ADD PUSH1 0x5 SHL DUP3 ADD SWAP4 DUP5 PUSH1 0x40 MSTORE PUSH2 0x2F5A DUP5 PUSH2 0x4967 JUMP JUMPDEST SWAP1 PUSH0 SWAP2 PUSH2 0x2F6D PUSH2 0xDAF PUSH1 0x40 DUP4 ADD MLOAD ISZERO ISZERO SWAP1 JUMP JUMPDEST PUSH2 0x3014 JUMPI JUMPDEST POP PUSH0 SWAP7 SWAP2 SWAP5 SWAP2 PUSH1 0x1 JUMPDEST ISZERO PUSH2 0x2FE7 JUMPI JUMPDEST PUSH0 SWAP6 PUSH2 0x2F8C DUP5 PUSH2 0x53F8 JUMP JUMPDEST PUSH1 0x40 DUP2 ADD MLOAD ISZERO PUSH2 0x2FAB JUMPI POP POP PUSH1 0x1 PUSH0 SWAP4 JUMPDEST ADD SWAP6 DUP8 PUSH1 0x40 MSTORE SWAP6 SWAP3 SWAP6 PUSH2 0x2F7B JUMP JUMPDEST SWAP4 SWAP1 SWAP4 MLOAD DUP1 PUSH2 0x2FDF JUMPI JUMPDEST POP DUP5 DUP5 XOR PUSH1 0x60 SHL ISZERO PUSH2 0x2FCA JUMPI JUMPDEST PUSH1 0x1 SWAP1 PUSH2 0x2F9D JUMP JUMPDEST PUSH1 0x1 SWAP1 SWAP9 ADD PUSH1 0x5 DUP2 SWAP1 SHL DUP7 ADD DUP10 SWAP1 MSTORE SWAP8 PUSH2 0x2FC2 JUMP JUMPDEST SWAP4 POP PUSH0 PUSH2 0x2FB5 JUMP JUMPDEST DUP1 DUP4 EQ DUP1 ISZERO PUSH2 0x300B JUMPI JUMPDEST ISZERO PUSH2 0x2F81 JUMPI POP POP POP POP SWAP2 POP POP PUSH2 0x524 SWAP2 DUP2 MSTORE PUSH0 DUP1 DUP1 PUSH2 0x2F20 JUMP JUMPDEST POP DUP2 DUP9 EQ PUSH2 0x2FF1 JUMP JUMPDEST MLOAD PUSH1 0x1 PUSH1 0x1 PUSH1 0xA0 SHL SUB AND SWAP2 POP PUSH0 PUSH2 0x2F72 JUMP JUMPDEST SWAP3 POP PUSH0 PUSH2 0x2F3E JUMP JUMPDEST PUSH0 SWAP3 POP PUSH2 0x2F1A JUMP JUMPDEST SWAP4 POP PUSH0 PUSH2 0x2F06 JUMP JUMPDEST PUSH1 0x1 SWAP2 POP PUSH2 0x2EFB JUMP JUMPDEST CALLVALUE PUSH2 0x4CB JUMPI PUSH0 CALLDATASIZE PUSH1 0x3 NOT ADD SLT PUSH2 0x4CB JUMPI PUSH1 0x20 PUSH1 0x17 SLOAD PUSH1 0x40 MLOAD SWAP1 DUP2 MSTORE RETURN JUMPDEST CALLVALUE PUSH2 0x4CB JUMPI PUSH1 0x40 CALLDATASIZE PUSH1 0x3 NOT ADD SLT PUSH2 0x4CB JUMPI PUSH1 0x4 CALLDATALOAD PUSH2 0x3081 DUP2 PUSH2 0x762 JUMP JUMPDEST PUSH2 0x3089 PUSH2 0x8F1 JUMP JUMPDEST SWAP1 PUSH1 0xFF PUSH1 0x14 SLOAD AND PUSH2 0x827 JUMPI CALLER PUSH0 MSTORE PUSH1 0x7 PUSH1 0x20 MSTORE PUSH2 0x30CE DUP3 PUSH2 0x30BD DUP4 PUSH1 0x40 PUSH0 KECCAK256 SWAP1 PUSH1 0x1 DUP1 PUSH1 0xA0 SHL SUB AND PUSH0 MSTORE PUSH1 0x20 MSTORE PUSH1 0x40 PUSH0 KECCAK256 SWAP1 JUMP JUMPDEST SWAP1 PUSH1 0xFF DUP1 NOT DUP4 SLOAD AND SWAP2 ISZERO ISZERO AND OR SWAP1 SSTORE JUMP JUMPDEST PUSH1 0x40 MLOAD SWAP2 ISZERO ISZERO DUP3 MSTORE PUSH1 0x1 PUSH1 0x1 PUSH1 0xA0 SHL SUB AND SWAP1 CALLER SWAP1 PUSH32 0x17307EAB39AB6107E8899845AD3D59BD9653F200F220920489CA2B5937696C31 SWAP1 PUSH1 0x20 SWAP1 LOG3 STOP JUMPDEST CALLVALUE PUSH2 0x4CB JUMPI PUSH1 0x40 CALLDATASIZE PUSH1 0x3 NOT ADD SLT PUSH2 0x4CB JUMPI PUSH0 MLOAD PUSH1 0x20 PUSH2 0x5BCD PUSH0 CODECOPY PUSH0 MLOAD SWAP1 PUSH0 MSTORE PUSH1 0x24 CALLDATALOAD PUSH1 0x4 CALLDATALOAD PUSH2 0x3137 PUSH2 0x4CDC JUMP JUMPDEST PUSH1 0x40 DUP1 MLOAD SWAP2 DUP3 MSTORE PUSH1 0x20 DUP3 ADD SWAP3 SWAP1 SWAP3 MSTORE SWAP1 DUP2 SWAP1 DUP2 ADD PUSH2 0xF75 JUMP JUMPDEST CALLVALUE PUSH2 0x4CB JUMPI PUSH1 0x20 CALLDATASIZE PUSH1 0x3 NOT ADD SLT PUSH2 0x4CB JUMPI PUSH1 0x4 CALLDATALOAD PUSH2 0x316D DUP2 PUSH2 0x762 JUMP JUMPDEST PUSH2 0x3175 PUSH2 0x4D03 JUMP JUMPDEST PUSH1 0x9 SLOAD SWAP1 PUSH1 0x1 PUSH1 0x1 PUSH1 0xA0 SHL SUB DUP1 DUP4 AND SWAP1 DUP3 AND DUP1 DUP3 EQ PUSH2 0x31E6 JUMPI PUSH1 0x1 PUSH1 0x1 PUSH1 0xA0 SHL SUB NOT SWAP4 SWAP1 SWAP4 AND SWAP1 SWAP3 OR PUSH1 0x9 SSTORE PUSH1 0x40 DUP1 MLOAD PUSH1 0x1 PUSH1 0x1 PUSH1 0xA0 SHL SUB SWAP4 DUP5 AND DUP2 MSTORE SWAP2 SWAP1 SWAP3 AND PUSH1 0x20 DUP3 ADD MSTORE PUSH32 0xCC5DC080FF977B3C3A211FA63AB74F90F658F5BA9D3236E92C8F59570F442AAC SWAP2 DUP2 SWAP1 DUP2 ADD PUSH2 0xF75 JUMP JUMPDEST PUSH4 0x251DD8CF PUSH1 0xE1 SHL PUSH0 MSTORE PUSH1 0x4 PUSH0 REVERT JUMPDEST CALLVALUE PUSH2 0x4CB JUMPI PUSH0 CALLDATASIZE PUSH1 0x3 NOT ADD SLT PUSH2 0x4CB JUMPI PUSH1 0x10 SLOAD PUSH1 0x40 MLOAD PUSH1 0x1 PUSH1 0x1 PUSH1 0xA0 SHL SUB SWAP1 SWAP2 AND DUP2 MSTORE PUSH1 0x20 SWAP1 RETURN JUMPDEST PUSH1 0x1 PUSH1 0x1 PUSH1 0x40 SHL SUB DUP2 GT PUSH2 0x1249 JUMPI PUSH1 0x1F ADD PUSH1 0x1F NOT AND PUSH1 0x20 ADD SWAP1 JUMP JUMPDEST SWAP3 SWAP2 SWAP3 PUSH2 0x3244 DUP3 PUSH2 0x321D JUMP JUMPDEST SWAP2 PUSH2 0x3252 PUSH1 0x40 MLOAD SWAP4 DUP5 PUSH2 0x1269 JUMP JUMPDEST DUP3 SWAP5 DUP2 DUP5 MSTORE DUP2 DUP4 ADD GT PUSH2 0x4CB JUMPI DUP3 DUP2 PUSH1 0x20 SWAP4 DUP5 PUSH0 SWAP7 ADD CALLDATACOPY ADD ADD MSTORE JUMP JUMPDEST PUSH1 0x80 CALLDATASIZE PUSH1 0x3 NOT ADD SLT PUSH2 0x4CB JUMPI PUSH1 0x4 CALLDATALOAD PUSH2 0x3286 DUP2 PUSH2 0x762 JUMP JUMPDEST PUSH1 0x24 CALLDATALOAD SWAP1 PUSH2 0x3293 DUP3 PUSH2 0x762 JUMP JUMPDEST PUSH1 0x44 CALLDATALOAD PUSH1 0x64 CALLDATALOAD SWAP3 PUSH1 0x1 PUSH1 0x1 PUSH1 0x40 SHL SUB DUP5 GT PUSH2 0x4CB JUMPI CALLDATASIZE PUSH1 0x23 DUP6 ADD SLT ISZERO PUSH2 0x4CB JUMPI PUSH2 0x32CA PUSH2 0xA1D SWAP5 CALLDATASIZE SWAP1 PUSH1 0x24 DUP2 PUSH1 0x4 ADD CALLDATALOAD SWAP2 ADD PUSH2 0x3238 JUMP JUMPDEST SWAP3 PUSH2 0x48F2 JUMP JUMPDEST CALLVALUE PUSH2 0x4CB JUMPI PUSH1 0x20 CALLDATASIZE PUSH1 0x3 NOT ADD SLT PUSH2 0x4CB JUMPI PUSH1 0x80 PUSH2 0x32EE PUSH1 0x4 CALLDATALOAD PUSH2 0x4967 JUMP JUMPDEST PUSH2 0x3331 PUSH1 0x40 MLOAD DUP1 SWAP3 PUSH3 0xFFFFFF PUSH1 0x60 DUP1 SWAP3 PUSH1 0x1 DUP1 PUSH1 0xA0 SHL SUB DUP2 MLOAD AND DUP6 MSTORE PUSH1 0x1 PUSH1 0x1 PUSH1 0x40 SHL SUB PUSH1 0x20 DUP3 ADD MLOAD AND PUSH1 0x20 DUP7 ADD MSTORE PUSH1 0x40 DUP2 ADD MLOAD ISZERO ISZERO PUSH1 0x40 DUP7 ADD MSTORE ADD MLOAD AND SWAP2 ADD MSTORE JUMP JUMPDEST RETURN JUMPDEST CALLVALUE PUSH2 0x4CB JUMPI PUSH0 CALLDATASIZE PUSH1 0x3 NOT ADD SLT PUSH2 0x4CB JUMPI PUSH1 0x20 PUSH1 0xF SLOAD PUSH1 0x40 MLOAD SWAP1 DUP2 MSTORE RETURN JUMPDEST CALLVALUE PUSH2 0x4CB JUMPI PUSH1 0x20 CALLDATASIZE PUSH1 0x3 NOT ADD SLT PUSH2 0x4CB JUMPI PUSH1 0x4 CALLDATALOAD PUSH2 0x336D DUP2 PUSH2 0x4C48 JUMP JUMPDEST ISZERO PUSH2 0x33E6 JUMPI PUSH2 0x668 PUSH2 0x524 SWAP2 PUSH2 0x3381 PUSH2 0x4214 JUMP JUMPDEST POP DUP1 PUSH0 MSTORE PUSH1 0x19 PUSH1 0x20 MSTORE PUSH1 0x40 PUSH0 KECCAK256 PUSH1 0x40 MLOAD SWAP1 PUSH2 0x339B DUP3 PUSH2 0x124E JUMP JUMPDEST PUSH2 0x33DC PUSH2 0x33D3 PUSH2 0x33C4 PUSH1 0x1 DUP5 SLOAD SWAP5 PUSH2 0xFFFF DUP7 AND DUP8 MSTORE PUSH2 0xFFFF PUSH1 0x20 DUP9 ADD SWAP7 PUSH1 0x10 SHR AND DUP7 MSTORE ADD PUSH2 0x34E2 JUMP JUMPDEST SWAP4 DUP5 PUSH1 0x40 DUP3 ADD MSTORE MLOAD PUSH2 0xFFFF AND SWAP1 JUMP JUMPDEST SWAP2 MLOAD PUSH2 0xFFFF AND SWAP1 JUMP JUMPDEST SWAP1 PUSH1 0x16 SLOAD SWAP4 PUSH2 0x56DA JUMP JUMPDEST PUSH1 0x40 MLOAD PUSH3 0x461BCD PUSH1 0xE5 SHL DUP2 MSTORE PUSH1 0x20 PUSH1 0x4 DUP3 ADD MSTORE PUSH1 0x1F PUSH1 0x24 DUP3 ADD MSTORE PUSH32 0x55524920717565727920666F72206E6F6E6578697374656E7420746F6B656E00 PUSH1 0x44 DUP3 ADD MSTORE PUSH1 0x64 SWAP1 REVERT JUMPDEST CALLVALUE PUSH2 0x4CB JUMPI PUSH2 0x3439 CALLDATASIZE PUSH2 0x1081 JUMP JUMPDEST SWAP1 SWAP2 PUSH2 0x3443 PUSH2 0x4CDC JUMP JUMPDEST PUSH2 0x344C DUP2 PUSH2 0x4D17 JUMP JUMPDEST PUSH1 0x1 PUSH1 0x1 PUSH1 0xA0 SHL SUB AND SWAP2 DUP3 EXTCODESIZE ISZERO PUSH2 0x4CB JUMPI PUSH1 0x40 MLOAD PUSH4 0x3F952E65 PUSH1 0xE1 SHL DUP2 MSTORE PUSH1 0x1 PUSH1 0x1 PUSH1 0xA0 SHL SUB SWAP1 SWAP2 AND PUSH1 0x4 DUP3 ADD MSTORE SWAP1 ISZERO ISZERO PUSH1 0x24 DUP3 ADD MSTORE PUSH0 DUP2 PUSH1 0x44 DUP2 ADD PUSH2 0x1114 JUMP JUMPDEST CALLVALUE PUSH2 0x4CB JUMPI PUSH0 CALLDATASIZE PUSH1 0x3 NOT ADD SLT PUSH2 0x4CB JUMPI PUSH1 0x20 PUSH1 0xC SLOAD PUSH1 0x40 MLOAD SWAP1 DUP2 MSTORE RETURN JUMPDEST SWAP1 PUSH1 0x1 DUP3 DUP2 SHR SWAP3 AND DUP1 ISZERO PUSH2 0x34D8 JUMPI JUMPDEST PUSH1 0x20 DUP4 LT EQ PUSH2 0x34C4 JUMPI JUMP JUMPDEST PUSH4 0x4E487B71 PUSH1 0xE0 SHL PUSH0 MSTORE PUSH1 0x22 PUSH1 0x4 MSTORE PUSH1 0x24 PUSH0 REVERT JUMPDEST SWAP2 PUSH1 0x7F AND SWAP2 PUSH2 0x34B9 JUMP JUMPDEST SWAP1 PUSH1 0x40 MLOAD SWAP2 DUP3 PUSH0 DUP3 SLOAD SWAP3 PUSH2 0x34F5 DUP5 PUSH2 0x34AA JUMP JUMPDEST DUP1 DUP5 MSTORE SWAP4 PUSH1 0x1 DUP2 AND SWAP1 DUP2 ISZERO PUSH2 0x355E JUMPI POP PUSH1 0x1 EQ PUSH2 0x351A JUMPI JUMPDEST POP PUSH2 0x1299 SWAP3 POP SUB DUP4 PUSH2 0x1269 JUMP JUMPDEST SWAP1 POP PUSH0 SWAP3 SWAP2 SWAP3 MSTORE PUSH1 0x20 PUSH0 KECCAK256 SWAP1 PUSH0 SWAP2 JUMPDEST DUP2 DUP4 LT PUSH2 0x3542 JUMPI POP POP SWAP1 PUSH1 0x20 PUSH2 0x1299 SWAP3 DUP3 ADD ADD PUSH0 PUSH2 0x350D JUMP JUMPDEST PUSH1 0x20 SWAP2 SWAP4 POP DUP1 PUSH1 0x1 SWAP2 SLOAD DUP4 DUP6 DUP10 ADD ADD MSTORE ADD SWAP2 ADD SWAP1 SWAP2 DUP5 SWAP3 PUSH2 0x3529 JUMP JUMPDEST SWAP1 POP PUSH1 0x20 SWAP3 POP PUSH2 0x1299 SWAP5 SWAP2 POP PUSH1 0xFF NOT AND DUP3 DUP5 ADD MSTORE ISZERO ISZERO PUSH1 0x5 SHL DUP3 ADD ADD PUSH0 PUSH2 0x350D JUMP JUMPDEST CALLVALUE PUSH2 0x4CB JUMPI PUSH1 0x20 CALLDATASIZE PUSH1 0x3 NOT ADD SLT PUSH2 0x4CB JUMPI PUSH1 0x4 CALLDATALOAD PUSH0 MSTORE PUSH1 0x19 PUSH1 0x20 MSTORE PUSH2 0xFFFF PUSH1 0x40 PUSH0 KECCAK256 PUSH2 0x524 PUSH2 0x35B3 PUSH1 0x1 DUP4 SLOAD SWAP4 ADD PUSH2 0x34E2 JUMP JUMPDEST PUSH1 0x40 MLOAD SWAP4 DUP4 DUP2 DUP7 SWAP6 AND DUP6 MSTORE PUSH1 0x10 SHR AND PUSH1 0x20 DUP5 ADD MSTORE PUSH1 0x60 PUSH1 0x40 DUP5 ADD MSTORE PUSH1 0x60 DUP4 ADD SWAP1 PUSH2 0x5E8 JUMP JUMPDEST CALLVALUE PUSH2 0x4CB JUMPI PUSH0 CALLDATASIZE PUSH1 0x3 NOT ADD SLT PUSH2 0x4CB JUMPI PUSH1 0x40 MLOAD PUSH0 PUSH1 0xE SLOAD PUSH2 0x35F8 DUP2 PUSH2 0x34AA JUMP JUMPDEST DUP1 DUP5 MSTORE SWAP1 PUSH1 0x1 DUP2 AND SWAP1 DUP2 ISZERO PUSH2 0x6D2 JUMPI POP PUSH1 0x1 EQ PUSH2 0x361F JUMPI PUSH2 0x524 DUP4 PUSH2 0x668 DUP2 DUP6 SUB DUP3 PUSH2 0x1269 JUMP JUMPDEST PUSH1 0xE PUSH0 SWAP1 DUP2 MSTORE PUSH32 0xBB7B4A454DC3493923482F07822329ED19E8244EFF582CC204F8554C3620C3FD SWAP4 SWAP3 POP SWAP1 JUMPDEST DUP1 DUP3 LT PUSH2 0x3663 JUMPI POP SWAP1 SWAP2 POP DUP2 ADD PUSH1 0x20 ADD PUSH2 0x668 PUSH2 0x658 JUMP JUMPDEST SWAP2 SWAP3 PUSH1 0x1 DUP2 PUSH1 0x20 SWAP3 SLOAD DUP4 DUP6 DUP9 ADD ADD MSTORE ADD SWAP2 ADD SWAP1 SWAP3 SWAP2 PUSH2 0x364B JUMP JUMPDEST CALLVALUE PUSH2 0x4CB JUMPI PUSH1 0x20 PUSH2 0x3696 PUSH2 0x3690 CALLDATASIZE PUSH2 0x1A3D JUMP JUMPDEST SWAP1 PUSH2 0x49AE JUMP JUMPDEST PUSH1 0x40 MLOAD SWAP1 ISZERO ISZERO DUP2 MSTORE RETURN JUMPDEST CALLVALUE PUSH2 0x4CB JUMPI PUSH0 CALLDATASIZE PUSH1 0x3 NOT ADD SLT PUSH2 0x4CB JUMPI PUSH1 0x20 PUSH1 0x1A SLOAD PUSH1 0x40 MLOAD SWAP1 DUP2 MSTORE RETURN JUMPDEST CALLVALUE PUSH2 0x4CB JUMPI PUSH1 0x20 CALLDATASIZE PUSH1 0x3 NOT ADD SLT PUSH2 0x4CB JUMPI PUSH1 0x4 CALLDATALOAD PUSH2 0x36DA DUP2 PUSH2 0x762 JUMP JUMPDEST PUSH2 0x36E2 PUSH2 0x4D03 JUMP JUMPDEST PUSH1 0x1 PUSH1 0x1 PUSH1 0xA0 SHL SUB AND DUP1 ISZERO PUSH2 0x3732 JUMPI PUSH1 0x20 DUP2 PUSH32 0x11A3CF439FB225BFE74225716B6774765670EC1060E3796802E62139D69974DA SWAP3 PUSH1 0x1 PUSH1 0x1 PUSH1 0x60 SHL SUB PUSH1 0xA0 SHL PUSH1 0xB SLOAD AND OR PUSH1 0xB SSTORE PUSH1 0x40 MLOAD SWAP1 DUP2 MSTORE LOG1 STOP JUMPDEST PUSH4 0x3A247DD7 PUSH1 0xE1 SHL PUSH0 MSTORE PUSH1 0x4 PUSH0 REVERT JUMPDEST CALLVALUE PUSH2 0x4CB JUMPI PUSH1 0x40 CALLDATASIZE PUSH1 0x3 NOT ADD SLT PUSH2 0x4CB JUMPI PUSH1 0x4 CALLDATALOAD PUSH1 0x24 CALLDATALOAD PUSH1 0x1 PUSH1 0x1 PUSH1 0x40 SHL SUB DUP2 GT PUSH2 0x4CB JUMPI CALLDATASIZE PUSH1 0x23 DUP3 ADD SLT ISZERO PUSH2 0x4CB JUMPI PUSH2 0x3785 SWAP1 CALLDATASIZE SWAP1 PUSH1 0x24 DUP2 PUSH1 0x4 ADD CALLDATALOAD SWAP2 ADD PUSH2 0x3238 JUMP JUMPDEST PUSH2 0x3799 PUSH1 0x1 PUSH1 0x1 PUSH1 0xA0 SHL SUB PUSH2 0xB05 DUP5 PUSH2 0x4D48 JUMP JUMPDEST PUSH2 0xFFFF PUSH2 0x37B1 PUSH2 0xB25 DUP5 PUSH0 MSTORE PUSH1 0x19 PUSH1 0x20 MSTORE PUSH1 0x40 PUSH0 KECCAK256 SWAP1 JUMP JUMPDEST AND PUSH1 0x10 DUP2 LT PUSH2 0x37C5 JUMPI JUMPDEST POP PUSH2 0xA1D SWAP2 PUSH2 0x4AA2 JUMP JUMPDEST PUSH1 0x4 DUP2 EQ SWAP1 DUP2 ISZERO PUSH2 0x3836 JUMPI JUMPDEST DUP2 ISZERO PUSH2 0x382B JUMPI JUMPDEST DUP2 ISZERO PUSH2 0x3820 JUMPI JUMPDEST DUP2 ISZERO PUSH2 0x3815 JUMPI JUMPDEST DUP2 ISZERO PUSH2 0x380A JUMPI JUMPDEST DUP2 ISZERO PUSH2 0x37FF JUMPI JUMPDEST POP PUSH2 0xB7A JUMPI PUSH0 PUSH2 0x37BB JUMP JUMPDEST PUSH1 0xD SWAP2 POP EQ PUSH0 PUSH2 0x37F4 JUMP JUMPDEST PUSH1 0xB DUP2 EQ SWAP2 POP PUSH2 0x37ED JUMP JUMPDEST PUSH1 0x8 DUP2 EQ SWAP2 POP PUSH2 0x37E6 JUMP JUMPDEST PUSH1 0x7 DUP2 EQ SWAP2 POP PUSH2 0x37DF JUMP JUMPDEST PUSH1 0x6 DUP2 EQ SWAP2 POP PUSH2 0x37D8 JUMP JUMPDEST PUSH1 0x5 DUP2 EQ SWAP2 POP PUSH2 0x37D1 JUMP JUMPDEST PUSH6 0xFFFFFFFFFFFF DUP2 AND SUB PUSH2 0x4CB JUMPI JUMP JUMPDEST CALLDATALOAD SWAP1 PUSH2 0x1299 DUP3 PUSH2 0x3841 JUMP JUMPDEST PUSH1 0x24 CALLDATALOAD SWAP1 PUSH1 0x1 PUSH1 0x1 PUSH1 0x50 SHL SUB DUP3 AND DUP3 SUB PUSH2 0x4CB JUMPI PUSH1 0x1 PUSH1 0x1 PUSH1 0x50 SHL SUB PUSH2 0x1299 SWAP3 AND DUP2 MSTORE PUSH6 0xFFFFFFFFFFFF PUSH1 0x44 CALLDATALOAD PUSH2 0x3892 DUP2 PUSH2 0x3841 JUMP JUMPDEST AND PUSH1 0x20 DUP3 ADD MSTORE PUSH6 0xFFFFFFFFFFFF PUSH1 0x64 CALLDATALOAD PUSH2 0x38AB DUP2 PUSH2 0x3841 JUMP JUMPDEST AND PUSH1 0x40 DUP3 ADD MSTORE PUSH2 0xFFFF PUSH2 0x38BE PUSH1 0x84 PUSH2 0x1358 JUMP JUMPDEST AND PUSH1 0x60 DUP3 ADD MSTORE PUSH2 0xFFFF PUSH2 0x38D1 PUSH1 0xA4 PUSH2 0x1358 JUMP JUMPDEST AND PUSH1 0x80 DUP3 ADD MSTORE PUSH1 0xA0 PUSH2 0x38E3 PUSH1 0xC4 PUSH2 0x900 JUMP JUMPDEST ISZERO ISZERO SWAP2 ADD MSTORE JUMP JUMPDEST PUSH1 0x40 MLOAD RETURNDATASIZE PUSH0 DUP3 RETURNDATACOPY RETURNDATASIZE SWAP1 REVERT JUMPDEST SWAP2 SWAP1 PUSH2 0x3900 DUP3 PUSH2 0x4D48 JUMP JUMPDEST PUSH1 0x1 PUSH1 0x1 PUSH1 0xA0 SHL SUB DUP5 DUP2 AND SWAP5 SWAP1 DUP3 AND DUP6 SWAP1 SUB PUSH2 0x3A5F JUMPI PUSH0 DUP5 DUP2 MSTORE PUSH1 0x6 PUSH1 0x20 MSTORE PUSH1 0x40 SWAP1 KECCAK256 DUP1 SLOAD SWAP2 SWAP1 CALLER DUP1 DUP5 EQ SWAP1 DUP9 EQ OR ISZERO PUSH2 0x3A48 JUMPI JUMPDEST PUSH2 0x3963 SWAP3 PUSH2 0x3944 DUP8 DUP8 DUP6 PUSH2 0x4E63 JUMP JUMPDEST PUSH2 0x3A3F JUMPI JUMPDEST POP PUSH1 0x1 PUSH1 0x1 PUSH1 0xA0 SHL SUB AND PUSH0 SWAP1 DUP2 MSTORE PUSH1 0x5 PUSH1 0x20 MSTORE PUSH1 0x40 SWAP1 KECCAK256 SWAP1 JUMP JUMPDEST DUP1 SLOAD PUSH0 NOT ADD SWAP1 SSTORE PUSH1 0x1 PUSH1 0x1 PUSH1 0xA0 SHL SUB DUP3 AND PUSH0 SWAP1 DUP2 MSTORE PUSH1 0x5 PUSH1 0x20 MSTORE PUSH1 0x40 SWAP1 KECCAK256 DUP1 SLOAD PUSH1 0x1 ADD SWAP1 SSTORE PUSH1 0x1 PUSH1 0x1 PUSH1 0xA0 SHL SUB DUP3 AND TIMESTAMP PUSH1 0xA0 SHL OR PUSH1 0x1 PUSH1 0xE1 SHL OR PUSH2 0x39AF DUP5 PUSH0 MSTORE PUSH1 0x4 PUSH1 0x20 MSTORE PUSH1 0x40 PUSH0 KECCAK256 SWAP1 JUMP JUMPDEST SSTORE PUSH1 0x1 PUSH1 0xE1 SHL DUP2 AND ISZERO PUSH2 0x39FA JUMPI JUMPDEST POP PUSH1 0x1 PUSH1 0x1 PUSH1 0xA0 SHL SUB AND SWAP2 DUP3 SWAP1 PUSH32 0xDDF252AD1BE2C89B69C2B068FC378DAA952BA7F163C4A11628F55A4DF523B3EF PUSH0 DUP1 LOG4 ISZERO PUSH2 0x39F5 JUMPI JUMP JUMPDEST PUSH2 0x4CB0 JUMP JUMPDEST PUSH1 0x1 DUP4 ADD PUSH2 0x3A10 DUP2 PUSH0 MSTORE PUSH1 0x4 PUSH1 0x20 MSTORE PUSH1 0x40 PUSH0 KECCAK256 SWAP1 JUMP JUMPDEST SLOAD ISZERO PUSH2 0x3A1D JUMPI JUMPDEST POP PUSH2 0x39BD JUMP JUMPDEST PUSH0 SLOAD DUP2 EQ PUSH2 0x3A17 JUMPI PUSH2 0x3A37 SWAP1 PUSH0 MSTORE PUSH1 0x4 PUSH1 0x20 MSTORE PUSH1 0x40 PUSH0 KECCAK256 SWAP1 JUMP JUMPDEST SSTORE PUSH0 DUP1 PUSH2 0x3A17 JUMP JUMPDEST PUSH0 SWAP1 SSTORE PUSH0 PUSH2 0x3949 JUMP JUMPDEST PUSH2 0x3A55 PUSH2 0xDAF CALLER DUP5 PUSH2 0x49AE JUMP JUMPDEST ISZERO PUSH2 0x3935 JUMPI PUSH2 0x4C93 JUMP JUMPDEST PUSH2 0x4CA2 JUMP JUMPDEST ISZERO PUSH2 0x3A6B JUMPI JUMP JUMPDEST PUSH1 0x40 MLOAD PUSH3 0x461BCD PUSH1 0xE5 SHL DUP2 MSTORE PUSH1 0x20 PUSH1 0x4 DUP3 ADD MSTORE PUSH1 0x28 PUSH1 0x24 DUP3 ADD MSTORE PUSH32 0x5468652063616C6C6572206973206E6F7420746865206F776E6572206F662074 PUSH1 0x44 DUP3 ADD MSTORE PUSH8 0x3432903A37B5B2B7 PUSH1 0xC1 SHL PUSH1 0x64 DUP3 ADD MSTORE PUSH1 0x84 SWAP1 REVERT JUMPDEST DUP1 MLOAD SWAP2 SWAP1 DUP3 SWAP1 PUSH1 0x20 ADD DUP3 MCOPY ADD PUSH0 DUP2 MSTORE SWAP1 JUMP JUMPDEST SWAP1 PUSH2 0x1299 PUSH2 0x3AFF SWAP3 PUSH1 0x40 MLOAD SWAP4 DUP5 SWAP2 PUSH11 0x526574726F50756E6B2023 PUSH1 0xA8 SHL PUSH1 0x20 DUP5 ADD MSTORE PUSH1 0x2B DUP4 ADD SWAP1 PUSH2 0x3AC1 JUMP JUMPDEST SUB PUSH1 0x1F NOT DUP2 ADD DUP5 MSTORE DUP4 PUSH2 0x1269 JUMP JUMPDEST DUP2 DUP2 LT PUSH2 0x3B18 JUMPI POP POP JUMP JUMPDEST PUSH0 DUP2 SSTORE PUSH1 0x1 ADD PUSH2 0x3B0D JUMP JUMPDEST SWAP1 PUSH1 0x1F DUP3 GT PUSH2 0x3B30 JUMPI POP POP JUMP JUMPDEST PUSH2 0x1299 SWAP2 PUSH1 0xD PUSH0 MSTORE PUSH1 0x20 PUSH0 KECCAK256 SWAP1 PUSH1 0x20 PUSH1 0x1F DUP5 ADD PUSH1 0x5 SHR DUP4 ADD SWAP4 LT PUSH2 0x3B5C JUMPI JUMPDEST PUSH1 0x1F ADD PUSH1 0x5 SHR ADD SWAP1 PUSH2 0x3B0D JUMP JUMPDEST SWAP1 SWAP2 POP DUP2 SWAP1 PUSH2 0x3B4F JUMP JUMPDEST SWAP1 PUSH1 0x1F DUP3 GT PUSH2 0x3B73 JUMPI POP POP JUMP JUMPDEST PUSH2 0x1299 SWAP2 PUSH1 0xE PUSH0 MSTORE PUSH1 0x20 PUSH0 KECCAK256 SWAP1 PUSH1 0x20 PUSH1 0x1F DUP5 ADD PUSH1 0x5 SHR DUP4 ADD SWAP4 LT PUSH2 0x3B5C JUMPI PUSH1 0x1F ADD PUSH1 0x5 SHR ADD SWAP1 PUSH2 0x3B0D JUMP JUMPDEST SWAP2 SWAP1 PUSH1 0x1F DUP2 GT PUSH2 0x3BAD JUMPI POP POP POP JUMP JUMPDEST PUSH2 0x1299 SWAP3 PUSH0 MSTORE PUSH1 0x20 PUSH0 KECCAK256 SWAP1 PUSH1 0x20 PUSH1 0x1F DUP5 ADD PUSH1 0x5 SHR DUP4 ADD SWAP4 LT PUSH2 0x3B5C JUMPI PUSH1 0x1F ADD PUSH1 0x5 SHR ADD SWAP1 PUSH2 0x3B0D JUMP JUMPDEST SWAP2 SWAP1 SWAP2 DUP3 MLOAD PUSH1 0x1 PUSH1 0x1 PUSH1 0x40 SHL SUB DUP2 GT PUSH2 0x1249 JUMPI PUSH2 0x3BFD DUP2 PUSH2 0x3BF7 DUP5 SLOAD PUSH2 0x34AA JUMP JUMPDEST DUP5 PUSH2 0x3B9E JUMP JUMPDEST PUSH1 0x20 PUSH1 0x1F DUP3 GT PUSH1 0x1 EQ PUSH2 0x3C3B JUMPI DUP2 SWAP1 PUSH2 0x3C2C SWAP4 SWAP5 SWAP6 PUSH0 SWAP3 PUSH2 0x3C30 JUMPI POP POP DUP2 PUSH1 0x1 SHL SWAP2 PUSH0 NOT SWAP1 PUSH1 0x3 SHL SHR NOT AND OR SWAP1 JUMP JUMPDEST SWAP1 SSTORE JUMP JUMPDEST ADD MLOAD SWAP1 POP PUSH0 DUP1 PUSH2 0x14B8 JUMP JUMPDEST PUSH1 0x1F NOT DUP3 AND SWAP1 PUSH2 0x3C4E DUP5 PUSH0 MSTORE PUSH1 0x20 PUSH0 KECCAK256 SWAP1 JUMP JUMPDEST SWAP2 PUSH0 JUMPDEST DUP2 DUP2 LT PUSH2 0x3C88 JUMPI POP SWAP6 DUP4 PUSH1 0x1 SWAP6 SWAP7 SWAP8 LT PUSH2 0x3C70 JUMPI JUMPDEST POP POP POP DUP2 SHL ADD SWAP1 SSTORE JUMP JUMPDEST ADD MLOAD PUSH0 NOT PUSH1 0xF8 DUP5 PUSH1 0x3 SHL AND SHR NOT AND SWAP1 SSTORE PUSH0 DUP1 DUP1 PUSH2 0x3C66 JUMP JUMPDEST SWAP2 SWAP3 PUSH1 0x20 PUSH1 0x1 DUP2 SWAP3 DUP7 DUP12 ADD MLOAD DUP2 SSTORE ADD SWAP5 ADD SWAP3 ADD PUSH2 0x3C51 JUMP JUMPDEST PUSH2 0x3CB0 SWAP1 PUSH1 0x40 MLOAD SWAP2 DUP3 DUP1 SWAP3 PUSH2 0x3AC1 JUMP JUMPDEST SUB SWAP1 KECCAK256 SWAP1 JUMP JUMPDEST PUSH2 0x3CC7 PUSH2 0x3CC2 DUP3 PUSH2 0x4F2A JUMP JUMPDEST PUSH2 0x3AD3 JUMP JUMPDEST SWAP1 DUP1 PUSH0 MSTORE PUSH1 0x19 PUSH1 0x20 MSTORE PUSH1 0x1 PUSH1 0x40 PUSH0 KECCAK256 ADD DUP3 MLOAD PUSH1 0x1 PUSH1 0x1 PUSH1 0x40 SHL SUB DUP2 GT PUSH2 0x1249 JUMPI PUSH2 0x3CF5 DUP2 PUSH2 0x3BF7 DUP5 SLOAD PUSH2 0x34AA JUMP JUMPDEST PUSH1 0x20 PUSH1 0x1F DUP3 GT PUSH1 0x1 EQ PUSH2 0x3D7F JUMPI SWAP1 DUP1 PUSH2 0x3D21 SWAP3 PUSH0 SWAP2 PUSH2 0x3D74 JUMPI POP DUP2 PUSH1 0x1 SHL SWAP2 PUSH0 NOT SWAP1 PUSH1 0x3 SHL SHR NOT AND OR SWAP1 JUMP JUMPDEST SWAP1 SSTORE JUMPDEST PUSH1 0x40 DUP1 MLOAD DUP3 DUP2 MSTORE PUSH1 0x20 DUP2 ADD DUP4 SWAP1 MSTORE PUSH0 MLOAD PUSH1 0x20 PUSH2 0x5BCD PUSH0 CODECOPY PUSH0 MLOAD SWAP1 PUSH0 MSTORE SWAP2 SWAP1 LOG1 PUSH2 0x3D4D CALLER SWAP3 PUSH2 0x3CA0 JUMP JUMPDEST SWAP1 PUSH32 0x27FAC8F362F0993DF8069600BAC492702D7C0D77D65545716BF8B7ACD95F0214 PUSH0 DUP1 LOG4 JUMP JUMPDEST SWAP1 POP DUP6 ADD MLOAD PUSH0 PUSH2 0x2D2A JUMP JUMPDEST PUSH1 0x1F NOT DUP3 AND SWAP1 PUSH2 0x3D92 DUP5 PUSH0 MSTORE PUSH1 0x20 PUSH0 KECCAK256 SWAP1 JUMP JUMPDEST SWAP2 PUSH0 JUMPDEST DUP2 DUP2 LT PUSH2 0x3DCE JUMPI POP SWAP1 DUP4 PUSH1 0x1 SWAP5 SWAP4 SWAP3 LT PUSH2 0x3DB6 JUMPI JUMPDEST POP POP DUP2 SHL ADD SWAP1 SSTORE PUSH2 0x3D24 JUMP JUMPDEST DUP7 ADD MLOAD PUSH0 NOT PUSH1 0xF8 DUP5 PUSH1 0x3 SHL AND SHR NOT AND SWAP1 SSTORE PUSH0 DUP1 PUSH2 0x3DAA JUMP JUMPDEST SWAP2 SWAP3 PUSH1 0x20 PUSH1 0x1 DUP2 SWAP3 DUP7 DUP12 ADD MLOAD DUP2 SSTORE ADD SWAP5 ADD SWAP3 ADD PUSH2 0x3D95 JUMP JUMPDEST PUSH4 0x4E487B71 PUSH1 0xE0 SHL PUSH0 MSTORE PUSH1 0x11 PUSH1 0x4 MSTORE PUSH1 0x24 PUSH0 REVERT JUMPDEST SWAP1 DUP1 PUSH1 0x20 SWAP4 SWAP3 DUP2 DUP5 MSTORE DUP5 DUP5 ADD CALLDATACOPY PUSH0 DUP3 DUP3 ADD DUP5 ADD MSTORE PUSH1 0x1F ADD PUSH1 0x1F NOT AND ADD ADD SWAP1 JUMP JUMPDEST SWAP1 CALLDATALOAD PUSH1 0x1E NOT DUP3 CALLDATASIZE SUB ADD DUP2 SLT ISZERO PUSH2 0x4CB JUMPI ADD PUSH1 0x20 DUP2 CALLDATALOAD SWAP2 ADD SWAP2 PUSH1 0x1 PUSH1 0x1 PUSH1 0x40 SHL SUB DUP3 GT PUSH2 0x4CB JUMPI DUP2 CALLDATASIZE SUB DUP4 SGT PUSH2 0x4CB JUMPI JUMP JUMPDEST SWAP2 SWAP1 PUSH1 0x60 DUP2 ADD SWAP1 DUP4 CALLDATALOAD DUP2 MSTORE PUSH1 0x20 DUP5 ADD CALLDATALOAD PUSH1 0x1E NOT DUP6 CALLDATASIZE SUB ADD DUP2 SLT ISZERO PUSH2 0x4CB JUMPI DUP5 ADD SWAP4 PUSH1 0x20 DUP6 CALLDATALOAD SWAP6 ADD SWAP5 PUSH1 0x1 PUSH1 0x1 PUSH1 0x40 SHL SUB DUP2 GT PUSH2 0x4CB JUMPI DUP1 PUSH1 0x5 SHL SWAP4 DUP5 CALLDATASIZE SUB DUP8 SGT PUSH2 0x4CB JUMPI PUSH1 0x60 PUSH1 0x20 DUP6 ADD MSTORE DUP2 SWAP1 MSTORE SWAP3 DUP3 ADD PUSH1 0x80 SWAP1 DUP2 ADD SWAP4 DUP7 SWAP2 PUSH0 SWAP1 DUP6 ADD JUMPDEST DUP3 DUP3 LT PUSH2 0x3ED6 JUMPI POP POP POP POP PUSH2 0x61D SWAP4 SWAP5 POP DUP1 PUSH1 0x40 PUSH2 0x3EC8 SWAP3 ADD SWAP1 PUSH2 0x3E1A JUMP JUMPDEST SWAP2 PUSH1 0x40 DUP2 DUP6 SUB SWAP2 ADD MSTORE PUSH2 0x3DFA JUMP JUMPDEST SWAP1 SWAP2 SWAP3 SWAP6 PUSH1 0x20 DUP1 PUSH2 0x3EFC PUSH1 0x1 SWAP4 PUSH2 0x3EF6 DUP12 DUP15 PUSH1 0x7F NOT DUP14 DUP6 SUB ADD DUP10 MSTORE PUSH2 0x3E1A JUMP JUMPDEST SWAP1 PUSH2 0x3DFA JUMP JUMPDEST SWAP9 ADD SWAP3 ADD SWAP3 ADD SWAP1 SWAP3 SWAP2 PUSH2 0x3EA9 JUMP JUMPDEST PUSH1 0x4 CALLDATALOAD PUSH2 0x61D DUP2 PUSH2 0x762 JUMP JUMPDEST CALLDATALOAD PUSH2 0x61D DUP2 PUSH2 0x762 JUMP JUMPDEST PUSH1 0x24 CALLDATALOAD PUSH1 0x1 PUSH1 0x1 PUSH1 0x60 SHL SUB DUP2 AND DUP2 SUB PUSH2 0x4CB JUMPI SWAP1 JUMP JUMPDEST PUSH1 0x4 CALLDATALOAD PUSH2 0x3F42 DUP2 PUSH2 0x762 JUMP JUMPDEST PUSH1 0x1 DUP1 PUSH1 0xA0 SHL SUB AND PUSH1 0x1 PUSH1 0x1 PUSH1 0x60 SHL SUB PUSH1 0xA0 SHL PUSH1 0x10 SLOAD AND OR PUSH1 0x10 SSTORE PUSH1 0x24 CALLDATALOAD PUSH1 0x1 PUSH1 0x1 PUSH1 0x60 SHL SUB DUP2 AND DUP2 SUB PUSH2 0x4CB JUMPI PUSH1 0x10 DUP1 SLOAD PUSH1 0x1 PUSH1 0x1 PUSH1 0xA0 SHL SUB AND PUSH1 0xA0 SWAP3 SWAP1 SWAP3 SHL PUSH1 0x1 PUSH1 0x1 PUSH1 0xA0 SHL SUB NOT AND SWAP2 SWAP1 SWAP2 OR SWAP1 SSTORE JUMP JUMPDEST ISZERO PUSH2 0x3F9C JUMPI JUMP JUMPDEST PUSH1 0x40 MLOAD PUSH3 0x461BCD PUSH1 0xE5 SHL DUP2 MSTORE PUSH1 0x20 PUSH1 0x4 DUP3 ADD MSTORE PUSH1 0xA PUSH1 0x24 DUP3 ADD MSTORE PUSH10 0x5245454E5452414E4359 PUSH1 0xB0 SHL PUSH1 0x44 DUP3 ADD MSTORE PUSH1 0x64 SWAP1 REVERT JUMPDEST PUSH0 NOT DUP2 ADD SWAP2 SWAP1 DUP3 GT PUSH2 0xC63 JUMPI JUMP JUMPDEST ISZERO PUSH2 0x3FE4 JUMPI POP JUMP JUMPDEST PUSH1 0x40 MLOAD PUSH3 0x461BCD PUSH1 0xE5 SHL DUP2 MSTORE PUSH1 0x20 PUSH1 0x4 DUP3 ADD MSTORE SWAP1 DUP2 SWAP1 PUSH2 0xBD3 SWAP1 PUSH1 0x24 DUP4 ADD SWAP1 PUSH2 0x5E8 JUMP JUMPDEST SWAP1 PUSH1 0x40 MLOAD PUSH1 0x80 DUP2 ADD PUSH1 0xA0 DUP3 ADD PUSH1 0x40 MSTORE PUSH0 DUP2 MSTORE PUSH1 0xA PUSH1 0x5 SWAP2 JUMPDEST PUSH0 NOT ADD SWAP2 PUSH1 0x30 DUP3 DUP3 MOD ADD DUP4 MSTORE8 DIV SWAP1 DUP2 ISZERO PUSH2 0x403C JUMPI PUSH1 0xA SWAP1 PUSH2 0x4020 JUMP JUMPDEST PUSH2 0x1CFD SWAP2 POP DUP1 PUSH1 0x80 PUSH2 0x40A5 SWAP3 PUSH2 0x40AE SWAP6 SUB ADD SWAP1 PUSH1 0x1F NOT ADD SWAP1 DUP2 MSTORE PUSH1 0x40 MLOAD SWAP3 DUP4 SWAP2 PUSH32 0x496E76616C6964206261636B67726F756E6420696E6465782C206D7573742062 PUSH1 0x20 DUP5 ADD MSTORE PUSH16 0x32903132BA3BB2B2B710181030B7321 PUSH1 0x85 SHL PUSH1 0x40 DUP5 ADD MSTORE PUSH1 0x50 DUP4 ADD SWAP1 PUSH2 0x3AC1 JUMP JUMPDEST PUSH1 0x6 DUP4 LT PUSH2 0x3FDC JUMP JUMPDEST PUSH2 0x40E2 PUSH2 0xFFFF DUP3 AND PUSH2 0x40C8 DUP5 PUSH0 MSTORE PUSH1 0x19 PUSH1 0x20 MSTORE PUSH1 0x40 PUSH0 KECCAK256 SWAP1 JUMP JUMPDEST SWAP1 PUSH4 0xFFFF0000 DUP3 SLOAD SWAP2 PUSH1 0x10 SHL AND SWAP1 PUSH4 0xFFFF0000 NOT AND OR SWAP1 SSTORE JUMP JUMPDEST PUSH1 0x40 DUP1 MLOAD DUP4 DUP2 MSTORE PUSH1 0x20 DUP2 ADD DUP5 SWAP1 MSTORE PUSH0 MLOAD PUSH1 0x20 PUSH2 0x5BCD PUSH0 CODECOPY PUSH0 MLOAD SWAP1 PUSH0 MSTORE SWAP2 SWAP1 LOG1 CALLER SWAP2 PUSH32 0x717EA6D16CD5B1ADADF0580BB4B4EBBE47B8329C34AE1D20B2A3505B0B45121B PUSH0 DUP1 LOG4 JUMP JUMPDEST SWAP1 PUSH1 0xC0 DUP1 PUSH2 0x1299 SWAP4 PUSH1 0x1 PUSH1 0x1 PUSH1 0x50 SHL SUB DUP2 MLOAD AND DUP5 MSTORE PUSH3 0xFFFFFF PUSH1 0x20 DUP3 ADD MLOAD AND PUSH1 0x20 DUP6 ADD MSTORE PUSH5 0xFFFFFFFFFF PUSH1 0x40 DUP3 ADD MLOAD AND PUSH1 0x40 DUP6 ADD MSTORE PUSH5 0xFFFFFFFFFF PUSH1 0x60 DUP3 ADD MLOAD AND PUSH1 0x60 DUP6 ADD MSTORE PUSH5 0xFFFFFFFFFF PUSH1 0x80 DUP3 ADD MLOAD AND PUSH1 0x80 DUP6 ADD MSTORE PUSH2 0x4195 PUSH1 0xA0 DUP3 ADD MLOAD PUSH1 0xA0 DUP7 ADD SWAP1 PUSH2 0xFFFF AND SWAP1 MSTORE JUMP JUMPDEST ADD MLOAD PUSH2 0xFFFF AND SWAP2 ADD MSTORE JUMP JUMPDEST PUSH2 0x41A8 PUSH2 0x4CDC JUMP JUMPDEST PUSH2 0x41B1 DUP2 PUSH2 0x4D17 JUMP JUMPDEST PUSH1 0x1 PUSH1 0x1 PUSH1 0xA0 SHL SUB AND SWAP2 DUP3 EXTCODESIZE ISZERO PUSH2 0x4CB JUMPI PUSH1 0x40 MLOAD PUSH4 0x9A7002F PUSH1 0xE3 SHL DUP2 MSTORE PUSH1 0x1 PUSH1 0x1 PUSH1 0xA0 SHL SUB SWAP1 SWAP3 AND PUSH1 0x4 DUP4 ADD MSTORE SWAP1 SWAP2 PUSH0 SWAP2 DUP4 SWAP2 PUSH2 0x104 SWAP2 DUP4 SWAP2 DUP6 SWAP2 PUSH2 0x41FB SWAP1 PUSH1 0x24 DUP6 ADD SWAP1 PUSH2 0x4129 JUMP JUMPDEST GAS CALL DUP1 ISZERO PUSH2 0xA1F JUMPI PUSH2 0x420A JUMPI POP JUMP JUMPDEST PUSH0 PUSH2 0x1299 SWAP2 PUSH2 0x1269 JUMP JUMPDEST PUSH1 0x40 MLOAD SWAP1 PUSH2 0x4221 DUP3 PUSH2 0x124E JUMP JUMPDEST PUSH1 0x60 PUSH1 0x40 DUP4 PUSH0 DUP2 MSTORE PUSH0 PUSH1 0x20 DUP3 ADD MSTORE ADD MSTORE JUMP JUMPDEST PUSH1 0x1 PUSH1 0x1 PUSH1 0xA0 SHL SUB AND DUP1 ISZERO PUSH2 0x425A JUMPI PUSH0 MSTORE PUSH1 0x5 PUSH1 0x20 MSTORE PUSH1 0x1 PUSH1 0x1 PUSH1 0x40 SHL SUB PUSH1 0x40 PUSH0 KECCAK256 SLOAD AND SWAP1 JUMP JUMPDEST PUSH4 0x23D3AD81 PUSH1 0xE2 SHL PUSH0 MSTORE PUSH1 0x4 PUSH0 REVERT JUMPDEST ISZERO PUSH2 0x4270 JUMPI JUMP JUMPDEST PUSH1 0x40 MLOAD PUSH3 0x461BCD PUSH1 0xE5 SHL DUP2 MSTORE PUSH1 0x20 PUSH1 0x4 DUP3 ADD MSTORE PUSH1 0xE PUSH1 0x24 DUP3 ADD MSTORE PUSH14 0x125B9D985B1A59081C995D99585B PUSH1 0x92 SHL PUSH1 0x44 DUP3 ADD MSTORE PUSH1 0x64 SWAP1 REVERT JUMPDEST SWAP2 PUSH1 0x20 PUSH2 0x61D SWAP4 DUP2 DUP2 MSTORE ADD SWAP2 PUSH2 0x3DFA JUMP JUMPDEST CALLDATALOAD SWAP1 PUSH1 0xFF DUP3 AND DUP3 SUB PUSH2 0x4CB JUMPI JUMP JUMPDEST CALLDATALOAD SWAP1 PUSH4 0xFFFFFFFF DUP3 AND DUP3 SUB PUSH2 0x4CB JUMPI JUMP JUMPDEST PUSH1 0x44 CALLDATALOAD SWAP1 PUSH1 0x1 PUSH1 0x1 PUSH1 0x50 SHL SUB DUP3 AND DUP3 SUB PUSH2 0x4CB JUMPI PUSH1 0x1 PUSH1 0x1 PUSH1 0x50 SHL SUB PUSH2 0x1299 SWAP3 AND DUP2 MSTORE PUSH2 0xFFFF PUSH2 0x4306 PUSH1 0x64 PUSH2 0x1358 JUMP JUMPDEST AND PUSH1 0x20 DUP3 ADD MSTORE PUSH6 0xFFFFFFFFFFFF PUSH1 0x84 CALLDATALOAD PUSH2 0x431F DUP2 PUSH2 0x3841 JUMP JUMPDEST AND PUSH1 0x40 DUP3 ADD MSTORE PUSH2 0x4341 PUSH2 0x4332 PUSH1 0xA4 PUSH2 0x3851 JUMP JUMPDEST PUSH6 0xFFFFFFFFFFFF AND PUSH1 0x60 DUP4 ADD MSTORE JUMP JUMPDEST PUSH2 0x4358 PUSH2 0x434E PUSH1 0xC4 PUSH2 0x42B7 JUMP JUMPDEST PUSH1 0xFF AND PUSH1 0x80 DUP4 ADD MSTORE JUMP JUMPDEST PUSH2 0x4372 PUSH2 0x4365 PUSH1 0xE4 PUSH2 0x42C5 JUMP JUMPDEST PUSH4 0xFFFFFFFF AND PUSH1 0xA0 DUP4 ADD MSTORE JUMP JUMPDEST PUSH2 0x438B PUSH2 0x4380 PUSH2 0x104 PUSH2 0x1358 JUMP JUMPDEST PUSH2 0xFFFF AND PUSH1 0xC0 DUP4 ADD MSTORE JUMP JUMPDEST PUSH1 0xE0 PUSH2 0x38E3 PUSH2 0x124 PUSH2 0x900 JUMP JUMPDEST ISZERO PUSH2 0x439F JUMPI JUMP JUMPDEST PUSH1 0x40 MLOAD PUSH3 0x461BCD PUSH1 0xE5 SHL DUP2 MSTORE PUSH1 0x20 PUSH1 0x4 DUP3 ADD MSTORE PUSH1 0x1C PUSH1 0x24 DUP3 ADD MSTORE PUSH32 0x476C6F62616C207365656420616C72656164792072657665616C656400000000 PUSH1 0x44 DUP3 ADD MSTORE PUSH1 0x64 SWAP1 REVERT JUMPDEST SWAP1 CALLDATALOAD SWAP1 PUSH1 0x1E NOT DUP2 CALLDATASIZE SUB ADD DUP3 SLT ISZERO PUSH2 0x4CB JUMPI ADD DUP1 CALLDATALOAD SWAP1 PUSH1 0x1 PUSH1 0x1 PUSH1 0x40 SHL SUB DUP3 GT PUSH2 0x4CB JUMPI PUSH1 0x20 ADD SWAP2 DUP2 CALLDATASIZE SUB DUP4 SGT PUSH2 0x4CB JUMPI JUMP JUMPDEST CALLDATALOAD PUSH2 0x61D DUP2 PUSH2 0x3841 JUMP JUMPDEST PUSH1 0xC0 PUSH2 0x38E3 PUSH1 0xA0 PUSH2 0x1299 SWAP5 SWAP7 SWAP6 PUSH1 0xE0 DUP6 ADD SWAP8 PUSH1 0x1 DUP1 DUP5 SHL SUB AND DUP6 MSTORE PUSH1 0x1 PUSH1 0x1 PUSH1 0x50 SHL SUB PUSH2 0x444C DUP3 PUSH2 0x12B1 JUMP JUMPDEST AND PUSH1 0x20 DUP7 ADD MSTORE PUSH6 0xFFFFFFFFFFFF PUSH1 0x20 DUP3 ADD CALLDATALOAD PUSH2 0x4467 DUP2 PUSH2 0x3841 JUMP JUMPDEST AND PUSH1 0x40 DUP7 ADD MSTORE PUSH6 0xFFFFFFFFFFFF PUSH1 0x40 DUP3 ADD CALLDATALOAD PUSH2 0x4482 DUP2 PUSH2 0x3841 JUMP JUMPDEST AND PUSH1 0x60 DUP7 ADD MSTORE PUSH2 0xFFFF PUSH2 0x4497 PUSH1 0x60 DUP4 ADD PUSH2 0x1358 JUMP JUMPDEST AND PUSH1 0x80 DUP7 ADD MSTORE PUSH2 0xFFFF PUSH2 0x44AC PUSH1 0x80 DUP4 ADD PUSH2 0x1358 JUMP JUMPDEST AND DUP3 DUP7 ADD MSTORE ADD PUSH2 0x900 JUMP JUMPDEST PUSH1 0x1 PUSH1 0x1 PUSH1 0xA0 SHL SUB SWAP1 SWAP2 AND DUP2 MSTORE PUSH1 0x40 PUSH1 0x20 DUP3 ADD DUP2 SWAP1 MSTORE PUSH2 0x61D SWAP4 SWAP2 ADD SWAP2 PUSH2 0x3DFA JUMP JUMPDEST SWAP1 CALLDATALOAD SWAP1 PUSH1 0x5E NOT DUP2 CALLDATASIZE SUB ADD DUP3 SLT ISZERO PUSH2 0x4CB JUMPI ADD SWAP1 JUMP JUMPDEST PUSH1 0x1 PUSH1 0x1 PUSH1 0xA0 SHL SUB SWAP1 SWAP2 AND DUP2 MSTORE PUSH1 0x40 PUSH1 0x20 DUP3 ADD DUP2 SWAP1 MSTORE PUSH2 0x61D SWAP3 SWAP2 ADD SWAP1 PUSH2 0x3E4B JUMP JUMPDEST SWAP1 CALLDATALOAD SWAP1 PUSH1 0x1E NOT DUP2 CALLDATASIZE SUB ADD DUP3 SLT ISZERO PUSH2 0x4CB JUMPI ADD DUP1 CALLDATALOAD SWAP1 PUSH1 0x1 PUSH1 0x1 PUSH1 0x40 SHL SUB DUP3 GT PUSH2 0x4CB JUMPI PUSH1 0x20 ADD SWAP2 DUP2 PUSH1 0x5 SHL CALLDATASIZE SUB DUP4 SGT PUSH2 0x4CB JUMPI JUMP JUMPDEST PUSH4 0x4E487B71 PUSH1 0xE0 SHL PUSH0 MSTORE PUSH1 0x32 PUSH1 0x4 MSTORE PUSH1 0x24 PUSH0 REVERT JUMPDEST SWAP2 SWAP1 DUP2 LT ISZERO PUSH2 0x1950 JUMPI PUSH1 0x5 SHL ADD SWAP1 JUMP JUMPDEST SWAP1 CALLDATALOAD SWAP1 PUSH1 0x1E NOT DUP2 CALLDATASIZE SUB ADD DUP3 SLT ISZERO PUSH2 0x4CB JUMPI ADD DUP1 CALLDATALOAD SWAP1 PUSH1 0x1 PUSH1 0x1 PUSH1 0x40 SHL SUB DUP3 GT PUSH2 0x4CB JUMPI PUSH1 0x20 ADD SWAP2 DUP2 PUSH1 0x8 SHL CALLDATASIZE SUB DUP4 SGT PUSH2 0x4CB JUMPI JUMP JUMPDEST SWAP2 SWAP1 DUP2 LT ISZERO PUSH2 0x1950 JUMPI PUSH1 0x8 SHL ADD SWAP1 JUMP JUMPDEST PUSH1 0x1 PUSH1 0x1 PUSH1 0xA0 SHL SUB SWAP2 DUP3 AND DUP2 MSTORE SWAP2 AND PUSH1 0x20 DUP3 ADD MSTORE PUSH2 0x140 DUP2 ADD SWAP3 SWAP2 PUSH2 0x1299 SWAP2 SWAP1 PUSH2 0x120 SWAP1 PUSH2 0x38E3 SWAP1 PUSH1 0xE0 SWAP1 PUSH1 0x1 PUSH1 0x1 PUSH1 0x50 SHL SUB PUSH2 0x45EA DUP3 PUSH2 0x12B1 JUMP JUMPDEST AND PUSH1 0x40 DUP7 ADD MSTORE PUSH2 0xFFFF PUSH2 0x45FF PUSH1 0x20 DUP4 ADD PUSH2 0x1358 JUMP JUMPDEST AND PUSH1 0x60 DUP7 ADD MSTORE PUSH6 0xFFFFFFFFFFFF PUSH1 0x40 DUP3 ADD CALLDATALOAD PUSH2 0x461A DUP2 PUSH2 0x3841 JUMP JUMPDEST AND PUSH1 0x80 DUP7 ADD MSTORE PUSH2 0x463E PUSH2 0x462F PUSH1 0x60 DUP4 ADD PUSH2 0x3851 JUMP JUMPDEST PUSH6 0xFFFFFFFFFFFF AND PUSH1 0xA0 DUP8 ADD MSTORE JUMP JUMPDEST PUSH2 0x4657 PUSH2 0x464D PUSH1 0x80 DUP4 ADD PUSH2 0x42B7 JUMP JUMPDEST PUSH1 0xFF AND PUSH1 0xC0 DUP8 ADD MSTORE JUMP JUMPDEST PUSH2 0x4672 PUSH2 0x4666 PUSH1 0xA0 DUP4 ADD PUSH2 0x42C5 JUMP JUMPDEST PUSH4 0xFFFFFFFF AND DUP7 DUP5 ADD MSTORE JUMP JUMPDEST PUSH2 0x468D PUSH2 0x4681 PUSH1 0xC0 DUP4 ADD PUSH2 0x1358 JUMP JUMPDEST PUSH2 0xFFFF AND PUSH2 0x100 DUP8 ADD MSTORE JUMP JUMPDEST ADD PUSH2 0x900 JUMP JUMPDEST PUSH1 0x40 MLOAD SWAP1 PUSH2 0x100 DUP3 ADD DUP3 DUP2 LT PUSH1 0x1 PUSH1 0x1 PUSH1 0x40 SHL SUB DUP3 GT OR PUSH2 0x1249 JUMPI PUSH1 0x40 MSTORE PUSH0 PUSH1 0xE0 DUP4 DUP3 DUP2 MSTORE DUP3 PUSH1 0x20 DUP3 ADD MSTORE DUP3 PUSH1 0x40 DUP3 ADD MSTORE DUP3 PUSH1 0x60 DUP3 ADD MSTORE DUP3 PUSH1 0x80 DUP3 ADD MSTORE DUP3 PUSH1 0xA0 DUP3 ADD MSTORE DUP3 PUSH1 0xC0 DUP3 ADD MSTORE ADD MSTORE JUMP JUMPDEST SWAP1 SWAP4 SWAP3 PUSH1 0xE0 PUSH2 0x120 SWAP2 PUSH2 0x1299 SWAP5 PUSH2 0x140 DUP6 ADD SWAP8 PUSH1 0x1 DUP1 PUSH1 0xA0 SHL SUB AND DUP6 MSTORE PUSH1 0x1 DUP1 PUSH1 0xA0 SHL SUB AND PUSH1 0x20 DUP6 ADD MSTORE PUSH1 0x1 PUSH1 0x1 PUSH1 0x50 SHL SUB DUP2 MLOAD AND PUSH1 0x40 DUP6 ADD MSTORE PUSH2 0xFFFF PUSH1 0x20 DUP3 ADD MLOAD AND PUSH1 0x60 DUP6 ADD MSTORE PUSH6 0xFFFFFFFFFFFF PUSH1 0x40 DUP3 ADD MLOAD AND PUSH1 0x80 DUP6 ADD MSTORE PUSH2 0x4753 PUSH1 0x60 DUP3 ADD MLOAD PUSH1 0xA0 DUP7 ADD SWAP1 PUSH6 0xFFFFFFFFFFFF AND SWAP1 MSTORE JUMP JUMPDEST PUSH1 0x80 DUP2 ADD MLOAD PUSH1 0xFF AND PUSH1 0xC0 DUP6 ADD MSTORE PUSH1 0xA0 DUP2 ADD MLOAD PUSH4 0xFFFFFFFF AND DUP5 DUP4 ADD MSTORE PUSH1 0xC0 DUP2 ADD MLOAD PUSH2 0xFFFF AND PUSH2 0x100 DUP6 ADD MSTORE ADD MLOAD ISZERO ISZERO SWAP2 ADD MSTORE JUMP JUMPDEST SWAP1 CALLDATALOAD SWAP1 PUSH1 0x1E NOT DUP2 CALLDATASIZE SUB ADD DUP3 SLT ISZERO PUSH2 0x4CB JUMPI ADD DUP1 CALLDATALOAD SWAP1 PUSH1 0x1 PUSH1 0x1 PUSH1 0x40 SHL SUB DUP3 GT PUSH2 0x4CB JUMPI PUSH1 0x20 ADD SWAP2 PUSH1 0xE0 DUP3 MUL CALLDATASIZE SUB DUP4 SGT PUSH2 0x4CB JUMPI JUMP JUMPDEST SWAP2 SWAP1 DUP2 LT ISZERO PUSH2 0x1950 JUMPI PUSH1 0xE0 MUL ADD SWAP1 JUMP JUMPDEST PUSH1 0x1 PUSH1 0x1 PUSH1 0xA0 SHL SUB SWAP2 DUP3 AND DUP2 MSTORE SWAP2 AND PUSH1 0x20 DUP3 ADD MSTORE PUSH2 0x120 DUP2 ADD SWAP3 SWAP2 PUSH2 0x1299 SWAP2 SWAP1 PUSH2 0x100 SWAP1 PUSH2 0x488B SWAP1 PUSH1 0xC0 SWAP1 PUSH1 0x1 PUSH1 0x1 PUSH1 0x50 SHL SUB PUSH2 0x4808 DUP3 PUSH2 0x12B1 JUMP JUMPDEST AND PUSH1 0x40 DUP7 ADD MSTORE PUSH3 0xFFFFFF PUSH2 0x481E PUSH1 0x20 DUP4 ADD PUSH2 0x12D7 JUMP JUMPDEST AND PUSH1 0x60 DUP7 ADD MSTORE PUSH5 0xFFFFFFFFFF PUSH2 0x4836 PUSH1 0x40 DUP4 ADD PUSH2 0x1323 JUMP JUMPDEST AND PUSH1 0x80 DUP7 ADD MSTORE PUSH5 0xFFFFFFFFFF PUSH2 0x484E PUSH1 0x60 DUP4 ADD PUSH2 0x1323 JUMP JUMPDEST AND PUSH1 0xA0 DUP7 ADD MSTORE PUSH5 0xFFFFFFFFFF PUSH2 0x4866 PUSH1 0x80 DUP4 ADD PUSH2 0x1323 JUMP JUMPDEST AND DUP3 DUP7 ADD MSTORE PUSH2 0x4885 PUSH2 0x487A PUSH1 0xA0 DUP4 ADD PUSH2 0x1358 JUMP JUMPDEST PUSH2 0xFFFF AND PUSH1 0xE0 DUP8 ADD MSTORE JUMP JUMPDEST ADD PUSH2 0x1358 JUMP JUMPDEST PUSH2 0xFFFF AND SWAP2 ADD MSTORE JUMP JUMPDEST PUSH1 0x40 MLOAD SWAP1 PUSH2 0x48A1 DUP3 PUSH2 0x122E JUMP JUMPDEST PUSH0 PUSH1 0xC0 DUP4 DUP3 DUP2 MSTORE DUP3 PUSH1 0x20 DUP3 ADD MSTORE DUP3 PUSH1 0x40 DUP3 ADD MSTORE DUP3 PUSH1 0x60 DUP3 ADD MSTORE DUP3 PUSH1 0x80 DUP3 ADD MSTORE DUP3 PUSH1 0xA0 DUP3 ADD MSTORE ADD MSTORE JUMP JUMPDEST PUSH1 0x1 PUSH1 0x1 PUSH1 0xA0 SHL SUB SWAP2 DUP3 AND DUP2 MSTORE SWAP2 AND PUSH1 0x20 DUP3 ADD MSTORE PUSH2 0x120 DUP2 ADD SWAP3 SWAP2 PUSH2 0x1299 SWAP2 PUSH1 0x40 ADD SWAP1 PUSH2 0x4129 JUMP JUMPDEST SWAP3 SWAP2 SWAP1 PUSH2 0x4900 DUP3 DUP3 DUP7 PUSH2 0x38F5 JUMP JUMPDEST DUP1 EXTCODESIZE PUSH2 0x490D JUMPI JUMPDEST POP POP POP POP JUMP JUMPDEST PUSH2 0x4916 SWAP4 PUSH2 0x53D0 JUMP JUMPDEST ISZERO PUSH2 0x4924 JUMPI PUSH0 DUP1 DUP1 DUP1 PUSH2 0x4907 JUMP JUMPDEST PUSH4 0x68D2BF6B PUSH1 0xE1 SHL PUSH0 MSTORE PUSH1 0x4 PUSH0 REVERT JUMPDEST PUSH1 0x40 MLOAD SWAP1 PUSH1 0x80 DUP3 ADD DUP3 DUP2 LT PUSH1 0x1 PUSH1 0x1 PUSH1 0x40 SHL SUB DUP3 GT OR PUSH2 0x1249 JUMPI PUSH1 0x40 MSTORE PUSH0 PUSH1 0x60 DUP4 DUP3 DUP2 MSTORE DUP3 PUSH1 0x20 DUP3 ADD MSTORE DUP3 PUSH1 0x40 DUP3 ADD MSTORE ADD MSTORE JUMP JUMPDEST SWAP1 PUSH2 0x4970 PUSH2 0x4933 JUMP JUMPDEST SWAP2 PUSH1 0x1 DUP2 LT ISZERO PUSH2 0x497D JUMPI POP JUMP JUMPDEST PUSH0 SLOAD DUP2 LT PUSH2 0x4988 JUMPI POP JUMP JUMPDEST SWAP1 SWAP2 POP JUMPDEST DUP1 PUSH0 MSTORE PUSH1 0x4 PUSH1 0x20 MSTORE PUSH1 0x40 PUSH0 KECCAK256 SLOAD PUSH2 0x49A5 JUMPI PUSH0 NOT ADD PUSH2 0x498C JUMP JUMPDEST PUSH2 0x61D SWAP1 PUSH2 0x53F8 JUMP JUMPDEST PUSH1 0x1 PUSH1 0x1 PUSH1 0xA0 SHL SUB DUP3 AND PUSH20 0x1E0049783F008A0085193E00003D00CD54003C71 EQ PUSH2 0x4A00 JUMPI PUSH1 0x1 PUSH1 0x1 PUSH1 0xA0 SHL SUB SWAP1 DUP2 AND PUSH0 SWAP1 DUP2 MSTORE PUSH1 0x7 PUSH1 0x20 SWAP1 DUP2 MSTORE PUSH1 0x40 DUP1 DUP4 KECCAK256 SWAP4 SWAP1 SWAP5 AND DUP3 MSTORE SWAP2 SWAP1 SWAP2 MSTORE KECCAK256 PUSH1 0xFF SWAP1 SLOAD AND SWAP1 JUMP JUMPDEST POP POP PUSH1 0x1 SWAP1 JUMP JUMPDEST ISZERO PUSH2 0x4A0E JUMPI JUMP JUMPDEST PUSH1 0x40 MLOAD PUSH3 0x461BCD PUSH1 0xE5 SHL DUP2 MSTORE PUSH1 0x20 PUSH1 0x4 DUP3 ADD MSTORE PUSH1 0xF PUSH1 0x24 DUP3 ADD MSTORE PUSH15 0x4E616D6520312D3332206368617273 PUSH1 0x88 SHL PUSH1 0x44 DUP3 ADD MSTORE PUSH1 0x64 SWAP1 REVERT JUMPDEST SWAP1 DUP2 MLOAD DUP2 LT ISZERO PUSH2 0x1950 JUMPI ADD PUSH1 0x20 ADD SWAP1 JUMP JUMPDEST ISZERO PUSH2 0x4A5D JUMPI JUMP JUMPDEST PUSH1 0x40 MLOAD PUSH3 0x461BCD PUSH1 0xE5 SHL DUP2 MSTORE PUSH1 0x20 PUSH1 0x4 DUP3 ADD MSTORE PUSH1 0x19 PUSH1 0x24 DUP3 ADD MSTORE PUSH32 0x496E76616C69642063686172616374657220696E206E616D6500000000000000 PUSH1 0x44 DUP3 ADD MSTORE PUSH1 0x64 SWAP1 REVERT JUMPDEST SWAP2 PUSH2 0x4AB8 DUP3 MLOAD DUP1 ISZERO ISZERO SWAP1 DUP2 PUSH2 0x4C3C JUMPI JUMPDEST POP PUSH2 0x4A07 JUMP JUMPDEST PUSH0 JUMPDEST DUP3 MLOAD DUP2 LT ISZERO PUSH2 0x4C1C JUMPI DUP1 PUSH2 0x4B4F PUSH2 0x4AF4 PUSH2 0x4AE7 PUSH2 0x4AD9 PUSH1 0x1 SWAP6 DUP9 PUSH2 0x4A45 JUMP JUMPDEST MLOAD PUSH1 0x1 PUSH1 0x1 PUSH1 0xF8 SHL SUB NOT AND SWAP1 JUMP JUMPDEST PUSH1 0x1 PUSH1 0x1 PUSH1 0xF8 SHL SUB NOT AND SWAP1 JUMP JUMPDEST PUSH1 0x3 PUSH1 0xFC SHL DUP2 LT ISZERO SWAP1 DUP2 PUSH2 0x4C0D JUMPI JUMPDEST DUP2 ISZERO PUSH2 0x4BE9 JUMPI JUMPDEST DUP2 ISZERO PUSH2 0x4BC5 JUMPI JUMPDEST DUP2 ISZERO PUSH2 0x4BB7 JUMPI JUMPDEST DUP2 ISZERO PUSH2 0x4BA9 JUMPI JUMPDEST DUP2 ISZERO PUSH2 0x4B9B JUMPI JUMPDEST DUP2 ISZERO PUSH2 0x4B8D JUMPI JUMPDEST DUP2 ISZERO PUSH2 0x4B7F JUMPI JUMPDEST DUP2 ISZERO PUSH2 0x4B71 JUMPI JUMPDEST DUP2 ISZERO PUSH2 0x4B63 JUMPI JUMPDEST DUP2 ISZERO PUSH2 0x4B55 JUMPI JUMPDEST POP PUSH2 0x4A56 JUMP JUMPDEST ADD PUSH2 0x4ABA JUMP JUMPDEST PUSH1 0x27 PUSH1 0xF8 SHL EQ SWAP1 POP PUSH0 PUSH2 0x4B49 JUMP JUMPDEST PUSH1 0x13 PUSH1 0xF9 SHL DUP2 EQ SWAP2 POP PUSH2 0x4B42 JUMP JUMPDEST PUSH1 0x5F PUSH1 0xF8 SHL DUP2 EQ SWAP2 POP PUSH2 0x4B3B JUMP JUMPDEST PUSH1 0x3F PUSH1 0xF8 SHL DUP2 EQ SWAP2 POP PUSH2 0x4B34 JUMP JUMPDEST PUSH1 0x17 PUSH1 0xF9 SHL DUP2 EQ SWAP2 POP PUSH2 0x4B2D JUMP JUMPDEST PUSH1 0x2D PUSH1 0xF8 SHL DUP2 EQ SWAP2 POP PUSH2 0x4B26 JUMP JUMPDEST PUSH1 0x21 PUSH1 0xF8 SHL DUP2 EQ SWAP2 POP PUSH2 0x4B1F JUMP JUMPDEST SWAP1 POP DUP4 PUSH1 0xFD SHL DUP2 EQ SWAP1 PUSH2 0x4B18 JUMP JUMPDEST SWAP1 POP PUSH1 0x61 PUSH1 0xF8 SHL DUP2 LT ISZERO DUP1 PUSH2 0x4BDB JUMPI JUMPDEST SWAP1 PUSH2 0x4B11 JUMP JUMPDEST POP PUSH1 0x3D PUSH1 0xF9 SHL DUP2 GT ISZERO PUSH2 0x4BD5 JUMP JUMPDEST SWAP1 POP PUSH1 0x41 PUSH1 0xF8 SHL DUP2 LT ISZERO DUP1 PUSH2 0x4BFF JUMPI JUMPDEST SWAP1 PUSH2 0x4B0A JUMP JUMPDEST POP PUSH1 0x2D PUSH1 0xF9 SHL DUP2 GT ISZERO PUSH2 0x4BF9 JUMP JUMPDEST PUSH1 0x39 PUSH1 0xF8 SHL DUP2 GT ISZERO SWAP2 POP PUSH2 0x4B03 JUMP JUMPDEST POP SWAP2 PUSH2 0x3D24 DUP3 PUSH1 0x1 PUSH2 0x4C36 DUP5 PUSH0 MSTORE PUSH1 0x19 PUSH1 0x20 MSTORE PUSH1 0x40 PUSH0 KECCAK256 SWAP1 JUMP JUMPDEST ADD PUSH2 0x3BD6 JUMP JUMPDEST PUSH1 0x20 SWAP2 POP GT ISZERO PUSH0 PUSH2 0x4AB2 JUMP JUMPDEST SWAP1 PUSH0 SWAP2 DUP1 PUSH1 0x1 GT ISZERO PUSH2 0x4C57 JUMPI POP JUMP JUMPDEST PUSH0 SLOAD DUP2 LT PUSH2 0x4C62 JUMPI POP JUMP JUMPDEST SWAP1 SWAP2 POP JUMPDEST DUP1 PUSH0 MSTORE PUSH1 0x4 PUSH1 0x20 MSTORE PUSH1 0x40 PUSH0 KECCAK256 SLOAD DUP1 PUSH2 0x4C87 JUMPI POP DUP1 ISZERO PUSH2 0xC63 JUMPI PUSH0 NOT ADD PUSH2 0x4C66 JUMP JUMPDEST PUSH1 0x1 PUSH1 0xE0 SHL AND ISZERO SWAP2 SWAP1 POP JUMP JUMPDEST PUSH4 0x2CE44B5F PUSH1 0xE1 SHL PUSH0 MSTORE PUSH1 0x4 PUSH0 REVERT JUMPDEST PUSH3 0xA11481 PUSH1 0xE8 SHL PUSH0 MSTORE PUSH1 0x4 PUSH0 REVERT JUMPDEST PUSH4 0x3A954ECD PUSH1 0xE2 SHL PUSH0 MSTORE PUSH1 0x4 PUSH0 REVERT JUMPDEST PUSH4 0x6F96CDA1 PUSH1 0xE1 SHL PUSH0 MSTORE PUSH1 0x4 PUSH0 REVERT JUMPDEST PUSH3 0x2E0763 PUSH1 0xE8 SHL PUSH0 MSTORE PUSH1 0x4 PUSH0 REVERT JUMPDEST PUSH1 0x1 DUP1 PUSH1 0xA0 SHL SUB PUSH1 0xA SLOAD AND CALLER EQ ADDRESS CALLER EQ OR ISZERO PUSH2 0x4CF4 JUMPI JUMP JUMPDEST PUSH4 0x5FC483C5 PUSH1 0xE0 SHL PUSH0 MSTORE PUSH1 0x4 PUSH0 REVERT JUMPDEST PUSH1 0xA SLOAD PUSH1 0x1 PUSH1 0x1 PUSH1 0xA0 SHL SUB AND CALLER SUB PUSH2 0x4CF4 JUMPI JUMP JUMPDEST PUSH1 0x1 DUP1 PUSH1 0xA0 SHL SUB AND PUSH0 MSTORE PUSH1 0x12 PUSH1 0x20 MSTORE PUSH1 0x1 PUSH1 0xFF PUSH1 0x40 PUSH0 KECCAK256 SLOAD AND ISZERO ISZERO SUB PUSH2 0x4D39 JUMPI JUMP JUMPDEST PUSH4 0x15E26FF3 PUSH1 0xE0 SHL PUSH0 MSTORE PUSH1 0x4 PUSH0 REVERT JUMPDEST DUP1 PUSH1 0x1 GT PUSH2 0x4CBF JUMPI PUSH2 0x4D62 DUP2 PUSH0 MSTORE PUSH1 0x4 PUSH1 0x20 MSTORE PUSH1 0x40 PUSH0 KECCAK256 SWAP1 JUMP JUMPDEST SLOAD SWAP1 DUP2 ISZERO PUSH2 0x4D79 JUMPI POP PUSH1 0x1 PUSH1 0xE0 SHL DUP2 AND PUSH2 0x4CBF JUMPI SWAP1 JUMP JUMPDEST SWAP1 POP PUSH0 SLOAD DUP2 LT ISZERO PUSH2 0x4CBF JUMPI JUMPDEST PUSH0 NOT ADD PUSH0 DUP2 DUP2 MSTORE PUSH1 0x4 PUSH1 0x20 MSTORE PUSH1 0x40 SWAP1 KECCAK256 SLOAD SWAP1 DUP2 ISZERO PUSH2 0x4DAC JUMPI POP PUSH1 0x1 PUSH1 0xE0 SHL DUP2 AND PUSH2 0x4CBF JUMPI SWAP1 JUMP JUMPDEST SWAP1 POP PUSH2 0x4D85 JUMP JUMPDEST PUSH1 0x1 PUSH1 0x1 PUSH1 0xA0 SHL SUB DUP2 AND ISZERO ISZERO DUP1 DUP1 PUSH2 0x4E57 JUMPI JUMPDEST PUSH2 0x827 JUMPI DUP1 PUSH2 0x4E50 JUMPI JUMPDEST PUSH2 0x4DD8 JUMPI POP POP JUMP JUMPDEST PUSH1 0x9 SLOAD PUSH1 0x1 PUSH1 0x1 PUSH1 0xA0 SHL SUB AND SWAP2 DUP3 PUSH2 0x4DEF JUMPI POP POP POP JUMP JUMPDEST DUP3 EXTCODESIZE ISZERO PUSH2 0x4CB JUMPI PUSH1 0x40 MLOAD PUSH4 0x657711F5 PUSH1 0xE1 SHL DUP2 MSTORE CALLER PUSH1 0x4 DUP3 ADD MSTORE PUSH1 0x1 PUSH1 0x1 PUSH1 0xA0 SHL SUB SWAP3 SWAP1 SWAP3 AND PUSH1 0x24 DUP4 ADD MSTORE PUSH0 PUSH1 0x44 DUP4 ADD DUP2 SWAP1 MSTORE PUSH1 0x64 DUP4 ADD SWAP2 SWAP1 SWAP2 MSTORE SWAP1 SWAP2 DUP3 SWAP1 PUSH1 0x84 SWAP1 DUP3 SWAP1 GAS STATICCALL DUP1 ISZERO PUSH2 0xA1F JUMPI PUSH2 0x4E42 JUMPI POP JUMP JUMPDEST DUP1 PUSH2 0x24F6 PUSH0 PUSH2 0x1299 SWAP4 PUSH2 0x1269 JUMP JUMPDEST POP PUSH0 PUSH2 0x4DD0 JUMP JUMPDEST POP PUSH1 0xFF PUSH1 0x14 SLOAD AND PUSH2 0x4DC6 JUMP JUMPDEST SWAP1 SWAP2 PUSH1 0x1 PUSH1 0x1 PUSH1 0xA0 SHL SUB DUP3 AND ISZERO ISZERO DUP1 DUP1 PUSH2 0x4F1E JUMPI JUMPDEST PUSH2 0x827 JUMPI DUP1 PUSH2 0x4F0C JUMPI JUMPDEST PUSH2 0x4E8B JUMPI POP POP POP JUMP JUMPDEST PUSH1 0x9 SLOAD PUSH1 0x1 PUSH1 0x1 PUSH1 0xA0 SHL SUB AND DUP1 PUSH2 0x4EA2 JUMPI POP POP POP POP JUMP JUMPDEST DUP1 EXTCODESIZE ISZERO PUSH2 0x4CB JUMPI PUSH1 0x40 MLOAD PUSH4 0x657711F5 PUSH1 0xE1 SHL DUP2 MSTORE CALLER PUSH1 0x4 DUP3 ADD MSTORE PUSH1 0x1 PUSH1 0x1 PUSH1 0xA0 SHL SUB SWAP4 DUP5 AND PUSH1 0x24 DUP3 ADD MSTORE SWAP4 SWAP1 SWAP3 AND PUSH1 0x44 DUP5 ADD MSTORE PUSH1 0x64 DUP4 ADD MSTORE PUSH0 SWAP1 DUP3 SWAP1 PUSH1 0x84 SWAP1 DUP3 SWAP1 GAS STATICCALL DUP1 ISZERO PUSH2 0xA1F JUMPI PUSH2 0x4EF8 JUMPI JUMPDEST DUP1 DUP1 DUP1 PUSH2 0x4907 JUMP JUMPDEST DUP1 PUSH2 0x24F6 PUSH0 PUSH2 0x4F06 SWAP4 PUSH2 0x1269 JUMP JUMPDEST PUSH0 PUSH2 0x4EF0 JUMP JUMPDEST POP PUSH1 0x1 PUSH1 0x1 PUSH1 0xA0 SHL SUB DUP4 AND ISZERO ISZERO PUSH2 0x4E82 JUMP JUMPDEST POP PUSH1 0xFF PUSH1 0x14 SLOAD AND PUSH2 0x4E78 JUMP JUMPDEST SWAP1 PUSH1 0x40 MLOAD PUSH1 0xA PUSH1 0x80 DUP3 ADD SWAP4 PUSH1 0xA0 DUP4 ADD PUSH1 0x40 MSTORE PUSH0 DUP6 MSTORE SWAP4 JUMPDEST PUSH0 NOT ADD SWAP4 PUSH1 0x30 DUP3 DUP3 MOD ADD DUP6 MSTORE8 DIV SWAP3 DUP4 ISZERO PUSH2 0x4F5D JUMPI PUSH1 0xA SWAP1 PUSH2 0x4F41 JUMP JUMPDEST DUP1 SWAP4 POP PUSH1 0x80 SWAP2 SUB ADD SWAP2 PUSH1 0x1F NOT ADD SWAP2 DUP3 MSTORE JUMP JUMPDEST PUSH0 SLOAD PUSH0 NOT DUP3 DUP3 ADD DUP2 ADD SWAP3 SWAP2 ADD DUP3 LT PUSH2 0xC63 JUMPI PUSH1 0xC SLOAD DUP1 SWAP3 GT PUSH2 0x4F8F JUMPI POP POP JUMP JUMPDEST PUSH0 SLOAD PUSH0 NOT SWAP2 DUP2 ADD DUP3 ADD SWAP2 ADD DUP2 LT PUSH2 0xC63 JUMPI PUSH4 0x384B48C5 PUSH1 0xE2 SHL PUSH0 MSTORE PUSH1 0x4 MSTORE PUSH1 0x24 MSTORE PUSH1 0x44 PUSH0 REVERT JUMPDEST PUSH1 0x20 PUSH1 0x40 MLOAD SWAP2 PUSH2 0x4FC6 PUSH1 0x20 DUP5 PUSH2 0x1269 JUMP JUMPDEST PUSH0 DUP4 MSTORE PUSH1 0xFF PUSH1 0x18 SLOAD PUSH1 0xA0 SHR AND PUSH2 0x5194 JUMPI PUSH2 0x4FDF DUP5 PUSH2 0x4F6F JUMP JUMPDEST PUSH2 0x4FF0 PUSH1 0xFF PUSH1 0x1C SLOAD PUSH1 0x8 SHR AND PUSH2 0x5915 JUMP JUMPDEST PUSH0 SLOAD PUSH1 0x1 SLOAD SWAP1 SUB PUSH0 NOT ADD SWAP2 DUP5 DUP4 ADD DUP1 DUP5 GT PUSH1 0x1 SWAP5 DUP6 JUMPDEST PUSH2 0x50A3 JUMPI JUMPDEST POP POP POP POP PUSH2 0x5019 DUP5 DUP3 PUSH2 0x5961 JUMP JUMPDEST PUSH0 SLOAD PUSH0 NOT ADD PUSH1 0xC SLOAD GT ISZERO PUSH2 0x508B JUMPI JUMPDEST DUP1 EXTCODESIZE PUSH2 0x5034 JUMPI POP POP POP POP JUMP JUMPDEST PUSH0 SLOAD SWAP4 DUP5 SUB SWAP2 DUP1 DUP1 JUMPDEST PUSH2 0x5057 JUMPI JUMPDEST POP POP POP POP POP PUSH0 SLOAD SUB PUSH2 0x4CB JUMPI PUSH0 DUP1 DUP1 DUP1 PUSH2 0x4907 JUMP JUMPDEST ISZERO PUSH2 0x507E JUMPI JUMPDEST PUSH0 PUSH2 0x506F PUSH2 0xDAF DUP7 DUP5 DUP8 ADD SWAP7 DUP7 PUSH2 0x5331 JUMP JUMPDEST PUSH2 0x5079 JUMPI DUP2 PUSH2 0x503D JUMP JUMPDEST PUSH2 0x4924 JUMP JUMPDEST DUP5 DUP4 LT PUSH2 0x505D JUMPI DUP1 PUSH2 0x5042 JUMP JUMPDEST PUSH1 0x18 DUP1 SLOAD PUSH1 0xFF PUSH1 0xA0 SHL NOT AND PUSH1 0x1 PUSH1 0xA0 SHL OR SWAP1 SSTORE PUSH2 0x5028 JUMP JUMPDEST DUP2 PUSH2 0xC63 JUMPI DUP3 DUP2 LT ISZERO PUSH2 0x518F JUMPI DUP6 DUP2 ADD DUP1 DUP3 GT PUSH2 0xC63 JUMPI PUSH1 0xC SLOAD DUP3 DUP2 SUB SWAP1 DUP1 DUP3 GT PUSH2 0xC63 JUMPI DUP4 SWAP1 PUSH2 0x50DB PUSH1 0xFF PUSH1 0x1C SLOAD PUSH1 0x8 SHR AND PUSH2 0x5915 JUMP JUMPDEST EQ PUSH2 0x5152 JUMPI SWAP2 PUSH2 0x5148 DUP9 SWAP7 SWAP6 SWAP5 SWAP4 SWAP3 PUSH2 0x5143 PUSH2 0x5105 PUSH2 0x50FE DUP11 SWAP7 CALLER PUSH1 0x17 SLOAD PUSH2 0x5B10 JUMP JUMPDEST PUSH2 0xFFFF AND SWAP1 JUMP JUMPDEST SWAP2 PUSH2 0x5112 PUSH2 0x3CC2 DUP3 PUSH2 0x4F2A JUMP JUMPDEST PUSH2 0x5127 PUSH2 0x511D PUSH2 0x128A JUMP JUMPDEST PUSH2 0xFFFF SWAP1 SWAP6 AND DUP6 MSTORE JUMP JUMPDEST PUSH2 0xFFFF DUP8 AND DUP5 DUP12 ADD MSTORE PUSH1 0x40 DUP5 ADD MSTORE PUSH0 MSTORE PUSH1 0x19 PUSH1 0x20 MSTORE PUSH1 0x40 PUSH0 KECCAK256 SWAP1 JUMP JUMPDEST PUSH2 0x5A24 JUMP JUMPDEST ADD SWAP1 SWAP2 SWAP3 SWAP4 PUSH2 0x5006 JUMP JUMPDEST PUSH1 0x40 MLOAD PUSH3 0x461BCD PUSH1 0xE5 SHL DUP2 MSTORE PUSH1 0x4 DUP2 ADD DUP8 SWAP1 MSTORE PUSH1 0x15 PUSH1 0x24 DUP3 ADD MSTORE PUSH21 0x4E6F2072656D61696E696E6720656C656D656E7473 PUSH1 0x58 SHL PUSH1 0x44 DUP3 ADD MSTORE PUSH1 0x64 SWAP1 REVERT JUMPDEST PUSH2 0x500B JUMP JUMPDEST PUSH1 0x40 MLOAD PUSH3 0x461BCD PUSH1 0xE5 SHL DUP2 MSTORE PUSH1 0x20 PUSH1 0x4 DUP3 ADD MSTORE PUSH1 0x1A PUSH1 0x24 DUP3 ADD MSTORE PUSH32 0x4D696E74206973207065726D616E656E746C7920636C6F736564000000000000 PUSH1 0x44 DUP3 ADD MSTORE PUSH1 0x64 SWAP1 REVERT JUMPDEST PUSH1 0x1 PUSH1 0x1 PUSH1 0x40 SHL SUB DUP3 GT PUSH2 0x1249 JUMPI PUSH9 0x10000000000000000 DUP3 GT PUSH2 0x1249 JUMPI PUSH1 0x13 SLOAD DUP3 PUSH1 0x13 SSTORE DUP1 DUP4 LT PUSH2 0x523B JUMPI JUMPDEST POP PUSH1 0x13 PUSH0 MSTORE PUSH1 0x20 PUSH0 KECCAK256 PUSH0 JUMPDEST DUP4 DUP2 LT PUSH2 0x521E JUMPI POP POP POP POP JUMP JUMPDEST PUSH1 0x1 SWAP1 PUSH1 0x20 DUP5 CALLDATALOAD SWAP5 PUSH2 0x522F DUP7 PUSH2 0x762 JUMP JUMPDEST ADD SWAP4 DUP2 DUP5 ADD SSTORE ADD PUSH2 0x5211 JUMP JUMPDEST PUSH1 0x13 PUSH0 MSTORE PUSH2 0x526F SWAP1 PUSH32 0x66DE8FFDA797E3DE9C05E8FC57B3BF0EC28A930D40B0D285D93C06501CF6A090 SWAP1 DUP2 ADD SWAP1 DUP5 ADD PUSH2 0x3B0D JUMP JUMPDEST PUSH0 PUSH2 0x5206 JUMP JUMPDEST PUSH1 0x20 DUP1 DUP3 MSTORE DUP2 ADD DUP4 SWAP1 MSTORE PUSH1 0x40 ADD SWAP2 PUSH0 JUMPDEST DUP2 DUP2 LT PUSH2 0x5292 JUMPI POP POP POP SWAP1 JUMP JUMPDEST SWAP1 SWAP2 SWAP3 PUSH1 0x20 DUP1 PUSH1 0x1 SWAP3 DUP7 CALLDATALOAD PUSH2 0x52A6 DUP2 PUSH2 0x762 JUMP JUMPDEST DUP5 DUP1 PUSH1 0xA0 SHL SUB AND DUP2 MSTORE ADD SWAP5 ADD SWAP2 ADD SWAP2 SWAP1 SWAP2 PUSH2 0x5285 JUMP JUMPDEST SWAP1 DUP2 PUSH1 0x20 SWAP2 SUB SLT PUSH2 0x4CB JUMPI MLOAD PUSH2 0x61D DUP2 PUSH2 0x4B9 JUMP JUMPDEST PUSH1 0x1 PUSH1 0x1 PUSH1 0xA0 SHL SUB SWAP2 DUP3 AND DUP2 MSTORE SWAP2 AND PUSH1 0x20 DUP3 ADD MSTORE PUSH1 0x40 DUP2 ADD SWAP2 SWAP1 SWAP2 MSTORE PUSH1 0x80 PUSH1 0x60 DUP3 ADD DUP2 SWAP1 MSTORE PUSH2 0x61D SWAP3 SWAP2 ADD SWAP1 PUSH2 0x5E8 JUMP JUMPDEST RETURNDATASIZE ISZERO PUSH2 0x532C JUMPI RETURNDATASIZE SWAP1 PUSH2 0x5313 DUP3 PUSH2 0x321D JUMP JUMPDEST SWAP2 PUSH2 0x5321 PUSH1 0x40 MLOAD SWAP4 DUP5 PUSH2 0x1269 JUMP JUMPDEST DUP3 MSTORE RETURNDATASIZE PUSH0 PUSH1 0x20 DUP5 ADD RETURNDATACOPY JUMP JUMPDEST PUSH1 0x60 SWAP1 JUMP JUMPDEST SWAP2 PUSH2 0x5358 SWAP3 PUSH1 0x20 SWAP3 PUSH0 PUSH1 0x40 MLOAD DUP1 SWAP7 DUP2 SWAP6 DUP3 SWAP5 PUSH4 0xA85BD01 PUSH1 0xE1 SHL DUP5 MSTORE DUP5 CALLER PUSH1 0x4 DUP7 ADD PUSH2 0x52D1 JUMP JUMPDEST SUB SWAP3 PUSH1 0x1 PUSH1 0x1 PUSH1 0xA0 SHL SUB AND GAS CALL PUSH0 SWAP2 DUP2 PUSH2 0x539F JUMPI JUMPDEST POP PUSH2 0x5389 JUMPI PUSH2 0x537A PUSH2 0x5302 JUMP JUMPDEST DUP1 MLOAD ISZERO PUSH2 0x5079 JUMPI DUP1 MLOAD SWAP1 PUSH1 0x20 ADD REVERT JUMPDEST PUSH1 0x1 PUSH1 0x1 PUSH1 0xE0 SHL SUB NOT AND PUSH4 0xA85BD01 PUSH1 0xE1 SHL EQ SWAP1 JUMP JUMPDEST PUSH2 0x53C2 SWAP2 SWAP3 POP PUSH1 0x20 RETURNDATASIZE PUSH1 0x20 GT PUSH2 0x53C9 JUMPI JUMPDEST PUSH2 0x53BA DUP2 DUP4 PUSH2 0x1269 JUMP JUMPDEST DUP2 ADD SWAP1 PUSH2 0x52BC JUMP JUMPDEST SWAP1 PUSH0 PUSH2 0x536D JUMP JUMPDEST POP RETURNDATASIZE PUSH2 0x53B0 JUMP JUMPDEST SWAP1 PUSH1 0x20 SWAP3 PUSH0 PUSH2 0x5358 SWAP6 SWAP4 PUSH1 0x40 MLOAD SWAP7 DUP8 SWAP6 DUP7 SWAP5 DUP6 SWAP4 PUSH4 0xA85BD01 PUSH1 0xE1 SHL DUP6 MSTORE CALLER PUSH1 0x4 DUP7 ADD PUSH2 0x52D1 JUMP JUMPDEST PUSH2 0x5400 PUSH2 0x4933 JUMP JUMPDEST POP PUSH0 MSTORE PUSH1 0x4 PUSH1 0x20 MSTORE PUSH1 0x40 PUSH0 KECCAK256 SLOAD PUSH2 0x5415 PUSH2 0x4933 JUMP JUMPDEST PUSH1 0x1 PUSH1 0x1 PUSH1 0xA0 SHL SUB DUP3 AND DUP2 MSTORE PUSH1 0xA0 DUP3 SWAP1 SHR PUSH1 0x1 PUSH1 0x1 PUSH1 0x40 SHL SUB AND PUSH1 0x20 DUP3 ADD MSTORE PUSH1 0x1 PUSH1 0xE0 SHL DUP3 AND ISZERO ISZERO PUSH1 0x40 DUP3 ADD MSTORE PUSH1 0xE8 SWAP2 SWAP1 SWAP2 SHR PUSH1 0x60 DUP3 ADD MSTORE SWAP1 JUMP JUMPDEST DUP2 PUSH1 0x1F DUP3 ADD SLT ISZERO PUSH2 0x4CB JUMPI DUP1 MLOAD SWAP1 PUSH2 0x5467 DUP3 PUSH2 0x321D JUMP JUMPDEST SWAP3 PUSH2 0x5475 PUSH1 0x40 MLOAD SWAP5 DUP6 PUSH2 0x1269 JUMP JUMPDEST DUP3 DUP5 MSTORE PUSH1 0x20 DUP4 DUP4 ADD ADD GT PUSH2 0x4CB JUMPI DUP2 PUSH0 SWAP3 PUSH1 0x20 DUP1 SWAP4 ADD DUP4 DUP7 ADD MCOPY DUP4 ADD ADD MSTORE SWAP1 JUMP JUMPDEST SWAP2 SWAP1 SWAP2 PUSH1 0x40 DUP2 DUP5 SUB SLT PUSH2 0x4CB JUMPI DUP1 MLOAD PUSH1 0x1 PUSH1 0x1 PUSH1 0x40 SHL SUB DUP2 GT PUSH2 0x4CB JUMPI DUP4 PUSH2 0x54BF SWAP2 DUP4 ADD PUSH2 0x5450 JUMP JUMPDEST SWAP3 PUSH1 0x20 DUP3 ADD MLOAD PUSH1 0x1 PUSH1 0x1 PUSH1 0x40 SHL SUB DUP2 GT PUSH2 0x4CB JUMPI PUSH2 0x61D SWAP3 ADD PUSH2 0x5450 JUMP JUMPDEST SWAP1 PUSH1 0x20 DUP3 DUP3 SUB SLT PUSH2 0x4CB JUMPI DUP2 MLOAD PUSH1 0x1 PUSH1 0x1 PUSH1 0x40 SHL SUB DUP2 GT PUSH2 0x4CB JUMPI PUSH2 0x61D SWAP3 ADD PUSH2 0x5450 JUMP JUMPDEST PUSH2 0x1299 SWAP1 PUSH2 0x3AFF PUSH2 0x5534 SWAP5 SWAP4 PUSH1 0x2 PUSH1 0x40 MLOAD SWAP7 DUP8 SWAP5 PUSH11 0x526574726F50756E6B2023 PUSH1 0xA8 SHL PUSH1 0x20 DUP8 ADD MSTORE PUSH1 0x2B DUP7 ADD SWAP1 PUSH2 0x3AC1 JUMP JUMPDEST PUSH2 0x1D1 PUSH1 0xF5 SHL DUP2 MSTORE ADD SWAP1 PUSH2 0x3AC1 JUMP JUMPDEST PUSH1 0x1 SWAP1 PUSH2 0x55E4 PUSH2 0x557B SWAP6 SWAP5 PUSH1 0x24 PUSH2 0x55A5 PUSH2 0x1299 SWAP7 PUSH1 0x1D PUSH1 0x40 MLOAD SWAP11 DUP12 SWAP8 PUSH9 0x3D913730B6B2911D11 PUSH1 0xB9 SHL PUSH1 0x20 DUP11 ADD MSTORE PUSH1 0x29 DUP10 ADD SWAP1 PUSH2 0x3AC1 JUMP JUMPDEST PUSH32 0x222C226465736372697074696F6E223A22526574726F50756E6B73222C000000 DUP2 MSTORE ADD SWAP1 PUSH2 0x3AC1 JUMP JUMPDEST PUSH1 0xB PUSH1 0xFA SHL DUP2 MSTORE PUSH32 0x22696D616765223A22646174613A696D6167652F7376672B786D6C3B62617365 DUP7 DUP3 ADD MSTORE PUSH3 0xD8D0B PUSH1 0xEA SHL PUSH1 0x21 DUP3 ADD MSTORE ADD SWAP1 PUSH2 0x3AC1 JUMP JUMPDEST PUSH1 0x11 PUSH1 0xF9 SHL DUP2 MSTORE SUB PUSH1 0x1E NOT DUP2 ADD DUP6 MSTORE ADD DUP4 PUSH2 0x1269 JUMP JUMPDEST SWAP1 PUSH2 0x1299 PUSH1 0x1 PUSH2 0x5614 SWAP4 PUSH1 0x40 MLOAD SWAP5 DUP6 SWAP2 PUSH1 0x20 DUP4 ADD SWAP1 PUSH2 0x3AC1 JUMP JUMPDEST PUSH1 0x7D PUSH1 0xF8 SHL DUP2 MSTORE SUB PUSH1 0x1E NOT DUP2 ADD DUP6 MSTORE ADD DUP4 PUSH2 0x1269 JUMP JUMPDEST PUSH1 0x2 PUSH2 0x1299 SWAP2 PUSH2 0x5685 PUSH2 0x564A SWAP6 SWAP5 PUSH1 0x28 PUSH1 0x40 MLOAD SWAP8 DUP9 SWAP5 PUSH1 0x20 DUP7 ADD SWAP1 PUSH2 0x3AC1 JUMP JUMPDEST PUSH32 0x2C22616E696D6174696F6E5F75726C223A22646174613A746578742F68746D6C DUP2 MSTORE PUSH8 0xED8985CD94D8D0B PUSH1 0xC2 SHL PUSH1 0x20 DUP3 ADD MSTORE ADD SWAP1 PUSH2 0x3AC1 JUMP JUMPDEST PUSH2 0x227D PUSH1 0xF0 SHL DUP2 MSTORE SUB PUSH1 0x1D NOT DUP2 ADD DUP6 MSTORE ADD DUP4 PUSH2 0x1269 JUMP JUMPDEST SWAP1 PUSH2 0x1299 PUSH2 0x3AFF SWAP3 PUSH1 0x40 MLOAD SWAP4 DUP5 SWAP2 PUSH32 0x646174613A6170706C69636174696F6E2F6A736F6E3B6261736536342C000000 PUSH1 0x20 DUP5 ADD MSTORE PUSH1 0x3D DUP4 ADD SWAP1 PUSH2 0x3AC1 JUMP JUMPDEST PUSH1 0x18 SLOAD PUSH1 0x40 MLOAD PUSH4 0x20FE58B PUSH1 0xE5 SHL DUP2 MSTORE PUSH2 0xFFFF SWAP4 DUP5 AND PUSH1 0x4 DUP3 ADD MSTORE SWAP3 SWAP1 SWAP4 AND PUSH1 0x24 DUP4 ADD MSTORE PUSH1 0x44 DUP3 ADD SWAP5 SWAP1 SWAP5 MSTORE SWAP2 SWAP3 PUSH1 0x1 PUSH1 0x1 PUSH1 0xA0 SHL SUB SWAP1 SWAP2 AND SWAP2 PUSH0 DUP2 PUSH1 0x64 DUP2 DUP7 GAS STATICCALL SWAP1 DUP2 ISZERO PUSH2 0xA1F JUMPI PUSH0 SWAP1 PUSH0 SWAP3 PUSH2 0x580F JUMPI JUMPDEST POP PUSH0 PUSH1 0x40 MLOAD DUP1 SWAP6 PUSH4 0x74C2B451 PUSH1 0xE0 SHL DUP3 MSTORE DUP2 DUP1 PUSH2 0x574C DUP7 PUSH1 0x4 DUP4 ADD PUSH2 0x60C JUMP JUMPDEST SUB SWAP2 GAS STATICCALL SWAP2 DUP3 ISZERO PUSH2 0xA1F JUMPI PUSH2 0x61D SWAP6 PUSH2 0x57BC SWAP6 PUSH0 SWAP5 PUSH2 0x57E3 JUMPI JUMPDEST POP DUP1 PUSH2 0x579E SWAP5 SWAP6 PUSH2 0x5798 SWAP3 MLOAD PUSH1 0x20 DUP4 ADD KECCAK256 PUSH2 0x5783 PUSH2 0x3CC2 DUP4 PUSH2 0x4F2A JUMP JUMPDEST PUSH1 0x20 DUP2 MLOAD SWAP2 ADD KECCAK256 EQ PUSH0 EQ PUSH2 0x57CB JUMPI POP SWAP3 PUSH2 0x5834 JUMP JUMPDEST SWAP2 PUSH2 0x5543 JUMP JUMPDEST DUP2 MLOAD ISZERO PUSH2 0x57C1 JUMPI PUSH2 0x57B1 PUSH2 0x57B7 SWAP3 PUSH2 0x5834 JUMP JUMPDEST SWAP1 PUSH2 0x562A JUMP JUMPDEST PUSH2 0x5834 JUMP JUMPDEST PUSH2 0x569C JUMP JUMPDEST PUSH2 0x57B7 SWAP2 POP PUSH2 0x55FA JUMP JUMPDEST SWAP1 PUSH2 0x57D8 PUSH2 0x57DD SWAP3 PUSH2 0x4F2A JUMP JUMPDEST PUSH2 0x5502 JUMP JUMPDEST SWAP3 PUSH2 0x5834 JUMP JUMPDEST PUSH2 0x579E SWAP5 POP SWAP1 PUSH2 0x5807 PUSH2 0x5798 SWAP3 RETURNDATASIZE DUP1 PUSH0 DUP4 RETURNDATACOPY PUSH2 0x57FF DUP2 DUP4 PUSH2 0x1269 JUMP JUMPDEST DUP2 ADD SWAP1 PUSH2 0x54DD JUMP JUMPDEST SWAP5 POP SWAP1 PUSH2 0x5766 JUMP JUMPDEST SWAP1 POP PUSH2 0x582D SWAP2 POP RETURNDATASIZE DUP1 PUSH0 DUP4 RETURNDATACOPY PUSH2 0x5825 DUP2 DUP4 PUSH2 0x1269 JUMP JUMPDEST DUP2 ADD SWAP1 PUSH2 0x5496 JUMP JUMPDEST SWAP1 PUSH0 PUSH2 0x572C JUMP JUMPDEST SWAP1 PUSH1 0x60 SWAP2 DUP1 MLOAD DUP1 PUSH2 0x5843 JUMPI POP POP JUMP JUMPDEST SWAP1 SWAP3 POP PUSH1 0x3 PUSH1 0x2 DUP3 ADD DIV PUSH1 0x2 SHL SWAP1 PUSH1 0x40 MLOAD SWAP4 PUSH32 0x4142434445464748494A4B4C4D4E4F505152535455565758595A616263646566 PUSH1 0x1F MSTORE PUSH2 0x670 PUSH32 0x6768696A6B6C6D6E6F707172737475767778797A303132333435363738392D5F XOR PUSH1 0x3F MSTORE PUSH1 0x20 DUP6 ADD SWAP2 DUP4 DUP7 ADD SWAP3 PUSH1 0x4 PUSH1 0x3 PUSH1 0x20 DUP7 ADD SWAP5 JUMPDEST ADD SWAP2 PUSH1 0x3F DUP4 MLOAD DUP2 DUP2 PUSH1 0x12 SHR AND MLOAD PUSH0 MSTORE8 DUP2 DUP2 PUSH1 0xC SHR AND MLOAD PUSH1 0x1 MSTORE8 DUP2 DUP2 PUSH1 0x6 SHR AND MLOAD PUSH1 0x2 MSTORE8 AND MLOAD PUSH1 0x3 MSTORE8 PUSH0 MLOAD DUP2 MSTORE ADD SWAP1 DUP4 DUP3 LT ISZERO PUSH2 0x58F5 JUMPI PUSH1 0x4 SWAP1 PUSH1 0x3 SWAP1 PUSH2 0x58B4 JUMP JUMPDEST POP SWAP2 POP PUSH1 0x40 PUSH0 SWAP4 ADD PUSH1 0x40 MSTORE PUSH1 0x3 PUSH2 0x3D3D PUSH1 0xF0 SHL SWAP2 MOD PUSH1 0x2 DIV DUP3 SUB MSTORE MSTORE DUP3 MSTORE JUMP JUMPDEST ISZERO PUSH2 0x591C JUMPI JUMP JUMPDEST PUSH1 0x40 MLOAD PUSH3 0x461BCD PUSH1 0xE5 SHL DUP2 MSTORE PUSH1 0x20 PUSH1 0x4 DUP3 ADD MSTORE PUSH1 0x1E PUSH1 0x24 DUP3 ADD MSTORE PUSH32 0x53687566666C65722073656564206E6F742072657665616C6564207965740000 PUSH1 0x44 DUP3 ADD MSTORE PUSH1 0x64 SWAP1 REVERT JUMPDEST PUSH0 SLOAD SWAP1 DUP3 ISZERO PUSH2 0x5A15 JUMPI PUSH1 0x1 PUSH1 0x1 PUSH1 0xA0 SHL SUB DUP2 AND TIMESTAMP PUSH1 0xA0 SHL PUSH1 0x1 DUP6 EQ PUSH1 0xE1 SHL OR OR PUSH2 0x5993 DUP4 PUSH0 MSTORE PUSH1 0x4 PUSH1 0x20 MSTORE PUSH1 0x40 PUSH0 KECCAK256 SWAP1 JUMP JUMPDEST SSTORE PUSH1 0x1 PUSH1 0x1 PUSH1 0xA0 SHL SUB AND PUSH0 DUP2 DUP2 MSTORE PUSH1 0x5 PUSH1 0x20 MSTORE PUSH1 0x40 SWAP1 KECCAK256 DUP1 SLOAD PUSH9 0x10000000000000001 DUP6 MUL ADD SWAP1 SSTORE SWAP2 DUP3 ISZERO PUSH2 0x5A10 JUMPI DUP2 ADD SWAP1 SWAP3 PUSH1 0x1 JUMPDEST ISZERO PUSH2 0x59FC JUMPI JUMPDEST PUSH0 DUP5 DUP5 PUSH0 PUSH32 0xDDF252AD1BE2C89B69C2B068FC378DAA952BA7F163C4A11628F55A4DF523B3EF DUP2 DUP1 LOG4 PUSH2 0x59C9 JUMP JUMPDEST SWAP3 PUSH1 0x1 ADD SWAP3 DUP2 DUP5 SUB PUSH2 0x59CF JUMPI SWAP3 POP SWAP1 POP PUSH0 SSTORE JUMP JUMPDEST PUSH2 0x4CCE JUMP JUMPDEST PUSH4 0xB562E8DD PUSH1 0xE0 SHL PUSH0 MSTORE PUSH1 0x4 PUSH0 REVERT JUMPDEST DUP2 MLOAD DUP2 SLOAD PUSH1 0x20 DUP5 ADD MLOAD PUSH4 0xFFFF0000 PUSH1 0x10 SWAP2 SWAP1 SWAP2 SHL AND PUSH2 0xFFFF SWAP1 SWAP3 AND PUSH4 0xFFFFFFFF NOT SWAP1 SWAP2 AND OR OR DUP2 SSTORE SWAP1 SWAP2 SWAP1 PUSH1 0x40 SWAP1 PUSH1 0x1 ADD SWAP3 ADD MLOAD SWAP2 DUP3 MLOAD PUSH1 0x1 PUSH1 0x1 PUSH1 0x40 SHL SUB DUP2 GT PUSH2 0x1249 JUMPI PUSH2 0x5A77 DUP2 PUSH2 0x3BF7 DUP5 SLOAD PUSH2 0x34AA JUMP JUMPDEST PUSH1 0x20 PUSH1 0x1F DUP3 GT PUSH1 0x1 EQ PUSH2 0x5AA6 JUMPI DUP2 SWAP1 PUSH2 0x3C2C SWAP4 SWAP5 SWAP6 PUSH0 SWAP3 PUSH2 0x3C30 JUMPI POP POP DUP2 PUSH1 0x1 SHL SWAP2 PUSH0 NOT SWAP1 PUSH1 0x3 SHL SHR NOT AND OR SWAP1 JUMP JUMPDEST PUSH1 0x1F NOT DUP3 AND SWAP1 PUSH2 0x5AB9 DUP5 PUSH0 MSTORE PUSH1 0x20 PUSH0 KECCAK256 SWAP1 JUMP JUMPDEST SWAP2 PUSH0 JUMPDEST DUP2 DUP2 LT PUSH2 0x5ADA JUMPI POP SWAP6 DUP4 PUSH1 0x1 SWAP6 SWAP7 SWAP8 LT PUSH2 0x3C70 JUMPI POP POP POP DUP2 SHL ADD SWAP1 SSTORE JUMP JUMPDEST SWAP2 SWAP3 PUSH1 0x20 PUSH1 0x1 DUP2 SWAP3 DUP7 DUP12 ADD MLOAD DUP2 SSTORE ADD SWAP5 ADD SWAP3 ADD PUSH2 0x5ABC JUMP JUMPDEST DUP2 ISZERO PUSH2 0x5AFC JUMPI MOD SWAP1 JUMP JUMPDEST PUSH4 0x4E487B71 PUSH1 0xE0 SHL PUSH0 MSTORE PUSH1 0x12 PUSH1 0x4 MSTORE PUSH1 0x24 PUSH0 REVERT JUMPDEST DUP3 SWAP1 PUSH2 0x5B63 SWAP3 PUSH1 0x40 MLOAD SWAP1 PUSH1 0x20 DUP3 ADD SWAP3 DUP4 MSTORE PUSH1 0x1 PUSH1 0x1 PUSH1 0x60 SHL SUB NOT SWAP1 PUSH1 0x60 SHL AND PUSH1 0x40 DUP3 ADD MSTORE DUP3 PUSH1 0x54 DUP3 ADD MSTORE TIMESTAMP PUSH1 0x74 DUP3 ADD MSTORE PREVRANDAO PUSH1 0x94 DUP3 ADD MSTORE NUMBER PUSH1 0xB4 DUP3 ADD MSTORE PUSH1 0xB4 DUP2 MSTORE PUSH2 0x5B5B PUSH1 0xD4 DUP3 PUSH2 0x1269 JUMP JUMPDEST MLOAD SWAP1 KECCAK256 PUSH2 0x5AF2 JUMP JUMPDEST SWAP1 PUSH0 NOT ADD SWAP1 PUSH2 0x5BB1 PUSH2 0x5B7D DUP3 PUSH0 MSTORE PUSH1 0x15 PUSH1 0x20 MSTORE PUSH1 0x40 PUSH0 KECCAK256 SWAP1 JUMP JUMPDEST SLOAD SWAP3 PUSH2 0x5B91 DUP2 PUSH0 MSTORE PUSH1 0x15 PUSH1 0x20 MSTORE PUSH1 0x40 PUSH0 KECCAK256 SWAP1 JUMP JUMPDEST SLOAD SWAP4 DUP1 PUSH2 0x5BC6 JUMPI POP DUP3 SWAP4 JUMPDEST DUP1 PUSH2 0x5BB5 JUMPI POP SWAP2 PUSH0 MSTORE PUSH1 0x15 PUSH1 0x20 MSTORE PUSH1 0x40 PUSH0 KECCAK256 SWAP1 JUMP JUMPDEST SSTORE SWAP1 JUMP JUMPDEST SWAP1 POP SWAP2 PUSH0 MSTORE PUSH1 0x15 PUSH1 0x20 MSTORE PUSH1 0x40 PUSH0 KECCAK256 SWAP1 JUMP JUMPDEST SWAP4 PUSH2 0x5B9C JUMP INVALID PUSH12 0xD5C950A8D8DF17F772F5AF37 0xCB CALLDATASIZE SSTORE PUSH20 0x7899CBF903264B9795592DA439661CA264697066 PUSH20 0x58221220EDCC92335A4480EC9AB2F1A56DE901D4 GASPRICE 0xCB RJUMPI 0x4638 BLOBBASEFEE XOR 0xC5 SWAP1 JUMPI 0xCD PUSH30 0x22FA0E6564736F6C634300081E0033000000000000000000000000000000 "
		},
		"gasEstimates": {
			"creation": {
				"codeDepositCost": "4717200",
				"executionCost": "infinite",
				"totalCost": "infinite"
			},
			"external": {
				"acceptOwnership()": "52179",
				"approve(address,uint256)": "infinite",
				"balanceOf(address)": "3351",
				"baseURI()": "infinite",
				"burn(uint256)": "infinite",
				"cancelOwnershipTransfer()": "27822",
				"closeMint()": "27324",
				"committedGlobalSeedHash()": "3822",
				"committedShufflerSeedHash()": "2612",
				"contractURI()": "infinite",
				"emitBatchMetadataUpdate(uint256,uint256)": "infinite",
				"explicitOwnershipOf(uint256)": "infinite",
				"explicitOwnershipsOf(uint256[])": "infinite",
				"getApproved(uint256)": "infinite",
				"getDefaultBackgroundIndex()": "729",
				"getMintStats(address)": "7711",
				"getTokenMetadata(uint256)": "infinite",
				"getTransferValidationFunction()": "334",
				"getTransferValidator()": "2394",
				"globalSeed()": "2304",
				"globalSeedRevealed()": "3460",
				"globalTokenMetadata(uint256)": "infinite",
				"isApprovedForAll(address,address)": "infinite",
				"maxSupply()": "3734",
				"mintIsClosed()": "2520",
				"mintSeaDrop(address,uint256)": "infinite",
				"multiConfigure((uint256,string,string,address,(uint80,uint48,uint48,uint16,uint16,bool),string,(bytes32,string[],string),address,bytes32,address[],address[],address[],address[],address[],(uint80,uint16,uint48,uint48,uint8,uint32,uint16,bool)[],address[],address[],(uint80,uint24,uint40,uint40,uint40,uint16,uint16)[],address[]))": "infinite",
				"name()": "infinite",
				"owner()": "3406",
				"ownerMint(address,uint256)": "infinite",
				"ownerMintsRemaining()": "2920",
				"ownerOf(uint256)": "infinite",
				"provenanceHash()": "3668",
				"renderer()": "3384",
				"renounceOwnership()": "28966",
				"resetName(uint256)": "infinite",
				"revealGlobalSeed(uint256,uint256)": "infinite",
				"revealShufflerSeed(uint256,uint256)": "55192",
				"royaltyAddress()": "3626",
				"royaltyBasisPoints()": "2662",
				"royaltyInfo(uint256,uint256)": "2712",
				"safeTransferFrom(address,address,uint256)": "infinite",
				"safeTransferFrom(address,address,uint256,bytes)": "infinite",
				"setApprovalForAll(address,bool)": "29898",
				"setBackground(uint256,uint256)": "infinite",
				"setBaseURI(string)": "infinite",
				"setContractURI(string)": "infinite",
				"setMaxSupply(uint256)": "28479",
				"setName(uint256,string)": "infinite",
				"setProvenanceHash(bytes32)": "30090",
				"setRenderer(address)": "infinite",
				"setRoyaltyInfo((address,uint96))": "infinite",
				"setTransferValidator(address)": "29360",
				"shufflerSeed()": "3514",
				"shufflerSeedRevealed()": "3224",
				"supportsInterface(bytes4)": "728",
				"symbol()": "infinite",
				"tokenURI(uint256)": "infinite",
				"tokensOfOwner(address)": "infinite",
				"tokensOfOwnerIn(address,uint256,uint256)": "infinite",
				"totalSupply()": "4575",
				"transferFrom(address,address,uint256)": "infinite",
				"transferOwnership(address)": "29260",
				"transfersPaused()": "2756",
				"updateAllowList(address,(bytes32,string[],string))": "infinite",
				"updateAllowedFeeRecipient(address,address,bool)": "infinite",
				"updateAllowedSeaDrop(address[])": "infinite",
				"updateCreatorPayoutAddress(address,address)": "infinite",
				"updateDropURI(address,string)": "infinite",
				"updatePayer(address,address,bool)": "infinite",
				"updatePublicDrop(address,(uint80,uint48,uint48,uint16,uint16,bool))": "infinite",
				"updateSignedMintValidationParams(address,address,(uint80,uint24,uint40,uint40,uint40,uint16,uint16))": "infinite",
				"updateTokenGatedDrop(address,address,(uint80,uint16,uint48,uint48,uint8,uint32,uint16,bool))": "infinite",
				"updateTransfersPaused(bool)": "27773"
			},
			"internal": {
				"_addInternalMintMetadata(uint256)": "infinite",
				"_checkMaxSupply(uint256)": "6471",
				"_getTokenMetadata(uint256)": "infinite",
				"_mint(address,uint256)": "infinite",
				"_saveNewSeed(uint256,uint256)": "infinite",
				"renderDataUri(uint256,uint16,uint16,string memory,uint256)": "infinite"
			}
		},
		"methodIdentifiers": {
			"acceptOwnership()": "79ba5097",
			"approve(address,uint256)": "095ea7b3",
			"balanceOf(address)": "70a08231",
			"baseURI()": "6c0360eb",
			"burn(uint256)": "42966c68",
			"cancelOwnershipTransfer()": "23452b9c",
			"closeMint()": "64f101f0",
			"committedGlobalSeedHash()": "ed9d9850",
			"committedShufflerSeedHash()": "3198bb9e",
			"contractURI()": "e8a3d485",
			"emitBatchMetadataUpdate(uint256,uint256)": "a4830114",
			"explicitOwnershipOf(uint256)": "c23dc68f",
			"explicitOwnershipsOf(uint256[])": "5bbb2177",
			"getApproved(uint256)": "081812fc",
			"getDefaultBackgroundIndex()": "4c62dec1",
			"getMintStats(address)": "840e15d4",
			"getTokenMetadata(uint256)": "60316801",
			"getTransferValidationFunction()": "0d705df6",
			"getTransferValidator()": "098144d4",
			"globalSeed()": "07aafa98",
			"globalSeedRevealed()": "9559a5d9",
			"globalTokenMetadata(uint256)": "db846dbe",
			"isApprovedForAll(address,address)": "e985e9c5",
			"maxSupply()": "d5abeb01",
			"mintIsClosed()": "1dbd7390",
			"mintSeaDrop(address,uint256)": "64869dad",
			"multiConfigure((uint256,string,string,address,(uint80,uint48,uint48,uint16,uint16,bool),string,(bytes32,string[],string),address,bytes32,address[],address[],address[],address[],address[],(uint80,uint16,uint48,uint48,uint8,uint32,uint16,bool)[],address[],address[],(uint80,uint24,uint40,uint40,uint40,uint16,uint16)[],address[]))": "911f456b",
			"name()": "06fdde03",
			"owner()": "8da5cb5b",
			"ownerMint(address,uint256)": "484b973c",
			"ownerMintsRemaining()": "5743bdff",
			"ownerOf(uint256)": "6352211e",
			"provenanceHash()": "c6ab67a3",
			"renderer()": "8ada6b0f",
			"renounceOwnership()": "715018a6",
			"resetName(uint256)": "2828adb2",
			"revealGlobalSeed(uint256,uint256)": "853b3b4c",
			"revealShufflerSeed(uint256,uint256)": "73c5643a",
			"royaltyAddress()": "ad2f852a",
			"royaltyBasisPoints()": "42260b5d",
			"royaltyInfo(uint256,uint256)": "2a55205a",
			"safeTransferFrom(address,address,uint256)": "42842e0e",
			"safeTransferFrom(address,address,uint256,bytes)": "b88d4fde",
			"setApprovalForAll(address,bool)": "a22cb465",
			"setBackground(uint256,uint256)": "4b6769d5",
			"setBaseURI(string)": "55f804b3",
			"setContractURI(string)": "938e3d7b",
			"setMaxSupply(uint256)": "6f8b44b0",
			"setName(uint256,string)": "fe55932a",
			"setProvenanceHash(bytes32)": "099b6bfa",
			"setRenderer(address)": "56d3163d",
			"setRoyaltyInfo((address,uint96))": "44dae42c",
			"setTransferValidator(address)": "a9fc664e",
			"shufflerSeed()": "99c5def3",
			"shufflerSeedRevealed()": "74e4f5af",
			"supportsInterface(bytes4)": "01ffc9a7",
			"symbol()": "95d89b41",
			"tokenURI(uint256)": "c87b56dd",
			"tokensOfOwner(address)": "8462151c",
			"tokensOfOwnerIn(address,uint256,uint256)": "99a2557a",
			"totalSupply()": "18160ddd",
			"transferFrom(address,address,uint256)": "23b872dd",
			"transferOwnership(address)": "f2fde38b",
			"transfersPaused()": "4563f30a",
			"updateAllowList(address,(bytes32,string[],string))": "3680620d",
			"updateAllowedFeeRecipient(address,address,bool)": "48a4c101",
			"updateAllowedSeaDrop(address[])": "60c308b6",
			"updateCreatorPayoutAddress(address,address)": "66251b69",
			"updateDropURI(address,string)": "7a05bc82",
			"updatePayer(address,address,bool)": "cb743ba8",
			"updatePublicDrop(address,(uint80,uint48,uint48,uint16,uint16,bool))": "1b73593c",
			"updateSignedMintValidationParams(address,address,(uint80,uint24,uint40,uint40,uint40,uint16,uint16))": "511aa644",
			"updateTokenGatedDrop(address,address,(uint80,uint16,uint48,uint48,uint8,uint32,uint16,bool))": "7bc2be76",
			"updateTransfersPaused(bool)": "0d9d713b"
		}
	},
	"abi": [
		{
			"inputs": [
				{
					"internalType": "contract ISVGRenderer",
					"name": "_rendererParam",
					"type": "address"
				},
				{
					"internalType": "bytes32",
					"name": "_committedGlobalSeedHashParam",
					"type": "bytes32"
				},
				{
					"internalType": "bytes32",
					"name": "_committedShufflerSeedHashParam",
					"type": "bytes32"
				},
				{
					"internalType": "uint256",
					"name": "_maxSupplyParam",
					"type": "uint256"
				},
				{
					"internalType": "address[]",
					"name": "allowedSeaDropParam",
					"type": "address[]"
				}
			],
			"stateMutability": "nonpayable",
			"type": "constructor"
		},
		{
			"inputs": [],
			"name": "AlreadyInitialized",
			"type": "error"
		},
		{
			"inputs": [],
			"name": "ApprovalCallerNotOwnerNorApproved",
			"type": "error"
		},
		{
			"inputs": [],
			"name": "ApprovalQueryForNonexistentToken",
			"type": "error"
		},
		{
			"inputs": [],
			"name": "BalanceQueryForZeroAddress",
			"type": "error"
		},
		{
			"inputs": [
				{
					"internalType": "uint256",
					"name": "newMaxSupply",
					"type": "uint256"
				}
			],
			"name": "CannotExceedMaxSupplyOfUint64",
			"type": "error"
		},
		{
			"inputs": [],
			"name": "InvalidQueryRange",
			"type": "error"
		},
		{
			"inputs": [
				{
					"internalType": "uint256",
					"name": "basisPoints",
					"type": "uint256"
				}
			],
			"name": "InvalidRoyaltyBasisPoints",
			"type": "error"
		},
		{
			"inputs": [],
			"name": "MintERC2309QuantityExceedsLimit",
			"type": "error"
		},
		{
			"inputs": [
				{
					"internalType": "uint256",
					"name": "total",
					"type": "uint256"
				},
				{
					"internalType": "uint256",
					"name": "maxSupply",
					"type": "uint256"
				}
			],
			"name": "MintQuantityExceedsMaxSupply",
			"type": "error"
		},
		{
			"inputs": [],
			"name": "MintToZeroAddress",
			"type": "error"
		},
		{
			"inputs": [],
			"name": "MintZeroQuantity",
			"type": "error"
		},
		{
			"inputs": [
				{
					"internalType": "uint256",
					"name": "got",
					"type": "uint256"
				},
				{
					"internalType": "uint256",
					"name": "totalMinted",
					"type": "uint256"
				}
			],
			"name": "NewMaxSupplyCannotBeLessThenTotalMinted",
			"type": "error"
		},
		{
			"inputs": [],
			"name": "NewOwnerIsZeroAddress",
			"type": "error"
		},
		{
			"inputs": [],
			"name": "NotCompatibleWithSpotMints",
			"type": "error"
		},
		{
			"inputs": [],
			"name": "NotNextOwner",
			"type": "error"
		},
		{
			"inputs": [],
			"name": "OnlyAllowedSeaDrop",
			"type": "error"
		},
		{
			"inputs": [],
			"name": "OnlyOwner",
			"type": "error"
		},
		{
			"inputs": [],
			"name": "OwnerQueryForNonexistentToken",
			"type": "error"
		},
		{
			"inputs": [],
			"name": "OwnershipNotInitializedForExtraData",
			"type": "error"
		},
		{
			"inputs": [],
			"name": "ProvenanceHashCannotBeSetAfterMintStarted",
			"type": "error"
		},
		{
			"inputs": [],
			"name": "RoyaltyAddressCannotBeZeroAddress",
			"type": "error"
		},
		{
			"inputs": [],
			"name": "SameTransferValidator",
			"type": "error"
		},
		{
			"inputs": [],
			"name": "SequentialMintExceedsLimit",
			"type": "error"
		},
		{
			"inputs": [],
			"name": "SequentialUpToTooSmall",
			"type": "error"
		},
		{
			"inputs": [],
			"name": "SignersMismatch",
			"type": "error"
		},
		{
			"inputs": [],
			"name": "SpotMintTokenIdTooSmall",
			"type": "error"
		},
		{
			"inputs": [],
			"name": "TokenAlreadyExists",
			"type": "error"
		},
		{
			"inputs": [],
			"name": "TokenGatedMismatch",
			"type": "error"
		},
		{
			"inputs": [],
			"name": "TokenIdsNotStrictlyAscending",
			"type": "error"
		},
		{
			"inputs": [],
			"name": "TransferCallerNotOwnerNorApproved",
			"type": "error"
		},
		{
			"inputs": [],
			"name": "TransferFromIncorrectOwner",
			"type": "error"
		},
		{
			"inputs": [],
			"name": "TransferToNonERC721ReceiverImplementer",
			"type": "error"
		},
		{
			"inputs": [],
			"name": "TransferToZeroAddress",
			"type": "error"
		},
		{
			"inputs": [],
			"name": "TransfersPaused",
			"type": "error"
		},
		{
			"inputs": [],
			"name": "URIQueryForNonexistentToken",
			"type": "error"
		},
		{
			"anonymous": false,
			"inputs": [
				{
					"indexed": false,
					"internalType": "address[]",
					"name": "allowedSeaDrop",
					"type": "address[]"
				}
			],
			"name": "AllowedSeaDropUpdated",
			"type": "event"
		},
		{
			"anonymous": false,
			"inputs": [
				{
					"indexed": true,
					"internalType": "address",
					"name": "owner",
					"type": "address"
				},
				{
					"indexed": true,
					"internalType": "address",
					"name": "approved",
					"type": "address"
				},
				{
					"indexed": true,
					"internalType": "uint256",
					"name": "tokenId",
					"type": "uint256"
				}
			],
			"name": "Approval",
			"type": "event"
		},
		{
			"anonymous": false,
			"inputs": [
				{
					"indexed": true,
					"internalType": "address",
					"name": "owner",
					"type": "address"
				},
				{
					"indexed": true,
					"internalType": "address",
					"name": "operator",
					"type": "address"
				},
				{
					"indexed": false,
					"internalType": "bool",
					"name": "approved",
					"type": "bool"
				}
			],
			"name": "ApprovalForAll",
			"type": "event"
		},
		{
			"anonymous": false,
			"inputs": [
				{
					"indexed": true,
					"internalType": "uint256",
					"name": "tokenId",
					"type": "uint256"
				},
				{
					"indexed": true,
					"internalType": "uint256",
					"name": "backgroundIndex",
					"type": "uint256"
				},
				{
					"indexed": true,
					"internalType": "address",
					"name": "owner",
					"type": "address"
				}
			],
			"name": "BackgroundChanged",
			"type": "event"
		},
		{
			"anonymous": false,
			"inputs": [
				{
					"indexed": false,
					"internalType": "uint256",
					"name": "_fromTokenId",
					"type": "uint256"
				},
				{
					"indexed": false,
					"internalType": "uint256",
					"name": "_toTokenId",
					"type": "uint256"
				}
			],
			"name": "BatchMetadataUpdate",
			"type": "event"
		},
		{
			"anonymous": false,
			"inputs": [
				{
					"indexed": true,
					"internalType": "uint256",
					"name": "fromTokenId",
					"type": "uint256"
				},
				{
					"indexed": false,
					"internalType": "uint256",
					"name": "toTokenId",
					"type": "uint256"
				},
				{
					"indexed": true,
					"internalType": "address",
					"name": "from",
					"type": "address"
				},
				{
					"indexed": true,
					"internalType": "address",
					"name": "to",
					"type": "address"
				}
			],
			"name": "ConsecutiveTransfer",
			"type": "event"
		},
		{
			"anonymous": false,
			"inputs": [
				{
					"indexed": false,
					"internalType": "string",
					"name": "newContractURI",
					"type": "string"
				}
			],
			"name": "ContractURIUpdated",
			"type": "event"
		},
		{
			"anonymous": false,
			"inputs": [
				{
					"indexed": false,
					"internalType": "uint256",
					"name": "seed",
					"type": "uint256"
				}
			],
			"name": "GlobalSeedRevealed",
			"type": "event"
		},
		{
			"anonymous": false,
			"inputs": [
				{
					"indexed": false,
					"internalType": "uint256",
					"name": "newMaxSupply",
					"type": "uint256"
				}
			],
			"name": "MaxSupplyUpdated",
			"type": "event"
		},
		{
			"anonymous": false,
			"inputs": [
				{
					"indexed": true,
					"internalType": "uint256",
					"name": "tokenId",
					"type": "uint256"
				},
				{
					"indexed": true,
					"internalType": "string",
					"name": "name",
					"type": "string"
				},
				{
					"indexed": true,
					"internalType": "address",
					"name": "owner",
					"type": "address"
				}
			],
			"name": "NameChanged",
			"type": "event"
		},
		{
			"anonymous": false,
			"inputs": [
				{
					"indexed": true,
					"internalType": "address",
					"name": "previousOwner",
					"type": "address"
				},
				{
					"indexed": true,
					"internalType": "address",
					"name": "newOwner",
					"type": "address"
				}
			],
			"name": "OwnershipTransferred",
			"type": "event"
		},
		{
			"anonymous": false,
			"inputs": [
				{
					"indexed": false,
					"internalType": "address",
					"name": "newPotentialAdministrator",
					"type": "address"
				}
			],
			"name": "PotentialOwnerUpdated",
			"type": "event"
		},
		{
			"anonymous": false,
			"inputs": [
				{
					"indexed": false,
					"internalType": "bytes32",
					"name": "previousHash",
					"type": "bytes32"
				},
				{
					"indexed": false,
					"internalType": "bytes32",
					"name": "newHash",
					"type": "bytes32"
				}
			],
			"name": "ProvenanceHashUpdated",
			"type": "event"
		},
		{
			"anonymous": false,
			"inputs": [
				{
					"indexed": false,
					"internalType": "address",
					"name": "receiver",
					"type": "address"
				},
				{
					"indexed": false,
					"internalType": "uint256",
					"name": "bps",
					"type": "uint256"
				}
			],
			"name": "RoyaltyInfoUpdated",
			"type": "event"
		},
		{
			"anonymous": false,
			"inputs": [],
			"name": "SeaDropTokenDeployed",
			"type": "event"
		},
		{
			"anonymous": false,
			"inputs": [
				{
					"indexed": false,
					"internalType": "uint256",
					"name": "seed",
					"type": "uint256"
				}
			],
			"name": "ShufflerSeedRevealed",
			"type": "event"
		},
		{
			"anonymous": false,
			"inputs": [
				{
					"indexed": true,
					"internalType": "address",
					"name": "from",
					"type": "address"
				},
				{
					"indexed": true,
					"internalType": "address",
					"name": "to",
					"type": "address"
				},
				{
					"indexed": true,
					"internalType": "uint256",
					"name": "tokenId",
					"type": "uint256"
				}
			],
			"name": "Transfer",
			"type": "event"
		},
		{
			"anonymous": false,
			"inputs": [
				{
					"indexed": false,
					"internalType": "address",
					"name": "oldValidator",
					"type": "address"
				},
				{
					"indexed": false,
					"internalType": "address",
					"name": "newValidator",
					"type": "address"
				}
			],
			"name": "TransferValidatorUpdated",
			"type": "event"
		},
		{
			"anonymous": false,
			"inputs": [
				{
					"indexed": false,
					"internalType": "bool",
					"name": "paused",
					"type": "bool"
				}
			],
			"name": "TransfersPausedChanged",
			"type": "event"
		},
		{
			"inputs": [],
			"name": "acceptOwnership",
			"outputs": [],
			"stateMutability": "nonpayable",
			"type": "function"
		},
		{
			"inputs": [
				{
					"internalType": "address",
					"name": "to",
					"type": "address"
				},
				{
					"internalType": "uint256",
					"name": "tokenId",
					"type": "uint256"
				}
			],
			"name": "approve",
			"outputs": [],
			"stateMutability": "payable",
			"type": "function"
		},
		{
			"inputs": [
				{
					"internalType": "address",
					"name": "owner",
					"type": "address"
				}
			],
			"name": "balanceOf",
			"outputs": [
				{
					"internalType": "uint256",
					"name": "",
					"type": "uint256"
				}
			],
			"stateMutability": "view",
			"type": "function"
		},
		{
			"inputs": [],
			"name": "baseURI",
			"outputs": [
				{
					"internalType": "string",
					"name": "",
					"type": "string"
				}
			],
			"stateMutability": "view",
			"type": "function"
		},
		{
			"inputs": [
				{
					"internalType": "uint256",
					"name": "tokenId",
					"type": "uint256"
				}
			],
			"name": "burn",
			"outputs": [],
			"stateMutability": "nonpayable",
			"type": "function"
		},
		{
			"inputs": [],
			"name": "cancelOwnershipTransfer",
			"outputs": [],
			"stateMutability": "nonpayable",
			"type": "function"
		},
		{
			"inputs": [],
			"name": "closeMint",
			"outputs": [],
			"stateMutability": "nonpayable",
			"type": "function"
		},
		{
			"inputs": [],
			"name": "committedGlobalSeedHash",
			"outputs": [
				{
					"internalType": "bytes32",
					"name": "",
					"type": "bytes32"
				}
			],
			"stateMutability": "view",
			"type": "function"
		},
		{
			"inputs": [],
			"name": "committedShufflerSeedHash",
			"outputs": [
				{
					"internalType": "bytes32",
					"name": "",
					"type": "bytes32"
				}
			],
			"stateMutability": "view",
			"type": "function"
		},
		{
			"inputs": [],
			"name": "contractURI",
			"outputs": [
				{
					"internalType": "string",
					"name": "",
					"type": "string"
				}
			],
			"stateMutability": "view",
			"type": "function"
		},
		{
			"inputs": [
				{
					"internalType": "uint256",
					"name": "fromTokenId",
					"type": "uint256"
				},
				{
					"internalType": "uint256",
					"name": "toTokenId",
					"type": "uint256"
				}
			],
			"name": "emitBatchMetadataUpdate",
			"outputs": [],
			"stateMutability": "nonpayable",
			"type": "function"
		},
		{
			"inputs": [
				{
					"internalType": "uint256",
					"name": "tokenId",
					"type": "uint256"
				}
			],
			"name": "explicitOwnershipOf",
			"outputs": [
				{
					"components": [
						{
							"internalType": "address",
							"name": "addr",
							"type": "address"
						},
						{
							"internalType": "uint64",
							"name": "startTimestamp",
							"type": "uint64"
						},
						{
							"internalType": "bool",
							"name": "burned",
							"type": "bool"
						},
						{
							"internalType": "uint24",
							"name": "extraData",
							"type": "uint24"
						}
					],
					"internalType": "struct IERC721A.TokenOwnership",
					"name": "ownership",
					"type": "tuple"
				}
			],
			"stateMutability": "view",
			"type": "function"
		},
		{
			"inputs": [
				{
					"internalType": "uint256[]",
					"name": "tokenIds",
					"type": "uint256[]"
				}
			],
			"name": "explicitOwnershipsOf",
			"outputs": [
				{
					"components": [
						{
							"internalType": "address",
							"name": "addr",
							"type": "address"
						},
						{
							"internalType": "uint64",
							"name": "startTimestamp",
							"type": "uint64"
						},
						{
							"internalType": "bool",
							"name": "burned",
							"type": "bool"
						},
						{
							"internalType": "uint24",
							"name": "extraData",
							"type": "uint24"
						}
					],
					"internalType": "struct IERC721A.TokenOwnership[]",
					"name": "",
					"type": "tuple[]"
				}
			],
			"stateMutability": "view",
			"type": "function"
		},
		{
			"inputs": [
				{
					"internalType": "uint256",
					"name": "tokenId",
					"type": "uint256"
				}
			],
			"name": "getApproved",
			"outputs": [
				{
					"internalType": "address",
					"name": "",
					"type": "address"
				}
			],
			"stateMutability": "view",
			"type": "function"
		},
		{
			"inputs": [],
			"name": "getDefaultBackgroundIndex",
			"outputs": [
				{
					"internalType": "uint16",
					"name": "",
					"type": "uint16"
				}
			],
			"stateMutability": "pure",
			"type": "function"
		},
		{
			"inputs": [
				{
					"internalType": "address",
					"name": "minter",
					"type": "address"
				}
			],
			"name": "getMintStats",
			"outputs": [
				{
					"internalType": "uint256",
					"name": "minterNumMinted",
					"type": "uint256"
				},
				{
					"internalType": "uint256",
					"name": "currentTotalSupply",
					"type": "uint256"
				},
				{
					"internalType": "uint256",
					"name": "maxSupply",
					"type": "uint256"
				}
			],
			"stateMutability": "view",
			"type": "function"
		},
		{
			"inputs": [
				{
					"internalType": "uint256",
					"name": "tokenId",
					"type": "uint256"
				}
			],
			"name": "getTokenMetadata",
			"outputs": [
				{
					"components": [
						{
							"internalType": "uint16",
							"name": "tokenIdSeed",
							"type": "uint16"
						},
						{
							"internalType": "uint16",
							"name": "backgroundIndex",
							"type": "uint16"
						},
						{
							"internalType": "string",
							"name": "name",
							"type": "string"
						}
					],
					"internalType": "struct TokenMetadata",
					"name": "",
					"type": "tuple"
				}
			],
			"stateMutability": "view",
			"type": "function"
		},
		{
			"inputs": [],
			"name": "getTransferValidationFunction",
			"outputs": [
				{
					"internalType": "bytes4",
					"name": "functionSignature",
					"type": "bytes4"
				},
				{
					"internalType": "bool",
					"name": "isViewFunction",
					"type": "bool"
				}
			],
			"stateMutability": "pure",
			"type": "function"
		},
		{
			"inputs": [],
			"name": "getTransferValidator",
			"outputs": [
				{
					"internalType": "address",
					"name": "",
					"type": "address"
				}
			],
			"stateMutability": "view",
			"type": "function"
		},
		{
			"inputs": [],
			"name": "globalSeed",
			"outputs": [
				{
					"internalType": "uint256",
					"name": "",
					"type": "uint256"
				}
			],
			"stateMutability": "view",
			"type": "function"
		},
		{
			"inputs": [],
			"name": "globalSeedRevealed",
			"outputs": [
				{
					"internalType": "bool",
					"name": "",
					"type": "bool"
				}
			],
			"stateMutability": "view",
			"type": "function"
		},
		{
			"inputs": [
				{
					"internalType": "uint256",
					"name": "",
					"type": "uint256"
				}
			],
			"name": "globalTokenMetadata",
			"outputs": [
				{
					"internalType": "uint16",
					"name": "tokenIdSeed",
					"type": "uint16"
				},
				{
					"internalType": "uint16",
					"name": "backgroundIndex",
					"type": "uint16"
				},
				{
					"internalType": "string",
					"name": "name",
					"type": "string"
				}
			],
			"stateMutability": "view",
			"type": "function"
		},
		{
			"inputs": [
				{
					"internalType": "address",
					"name": "owner",
					"type": "address"
				},
				{
					"internalType": "address",
					"name": "operator",
					"type": "address"
				}
			],
			"name": "isApprovedForAll",
			"outputs": [
				{
					"internalType": "bool",
					"name": "",
					"type": "bool"
				}
			],
			"stateMutability": "view",
			"type": "function"
		},
		{
			"inputs": [],
			"name": "maxSupply",
			"outputs": [
				{
					"internalType": "uint256",
					"name": "",
					"type": "uint256"
				}
			],
			"stateMutability": "view",
			"type": "function"
		},
		{
			"inputs": [],
			"name": "mintIsClosed",
			"outputs": [
				{
					"internalType": "bool",
					"name": "",
					"type": "bool"
				}
			],
			"stateMutability": "view",
			"type": "function"
		},
		{
			"inputs": [
				{
					"internalType": "address",
					"name": "minter",
					"type": "address"
				},
				{
					"internalType": "uint256",
					"name": "quantity",
					"type": "uint256"
				}
			],
			"name": "mintSeaDrop",
			"outputs": [],
			"stateMutability": "nonpayable",
			"type": "function"
		},
		{
			"inputs": [
				{
					"components": [
						{
							"internalType": "uint256",
							"name": "maxSupply",
							"type": "uint256"
						},
						{
							"internalType": "string",
							"name": "baseURI",
							"type": "string"
						},
						{
							"internalType": "string",
							"name": "contractURI",
							"type": "string"
						},
						{
							"internalType": "address",
							"name": "seaDropImpl",
							"type": "address"
						},
						{
							"components": [
								{
									"internalType": "uint80",
									"name": "mintPrice",
									"type": "uint80"
								},
								{
									"internalType": "uint48",
									"name": "startTime",
									"type": "uint48"
								},
								{
									"internalType": "uint48",
									"name": "endTime",
									"type": "uint48"
								},
								{
									"internalType": "uint16",
									"name": "maxTotalMintableByWallet",
									"type": "uint16"
								},
								{
									"internalType": "uint16",
									"name": "feeBps",
									"type": "uint16"
								},
								{
									"internalType": "bool",
									"name": "restrictFeeRecipients",
									"type": "bool"
								}
							],
							"internalType": "struct PublicDrop",
							"name": "publicDrop",
							"type": "tuple"
						},
						{
							"internalType": "string",
							"name": "dropURI",
							"type": "string"
						},
						{
							"components": [
								{
									"internalType": "bytes32",
									"name": "merkleRoot",
									"type": "bytes32"
								},
								{
									"internalType": "string[]",
									"name": "publicKeyURIs",
									"type": "string[]"
								},
								{
									"internalType": "string",
									"name": "allowListURI",
									"type": "string"
								}
							],
							"internalType": "struct AllowListData",
							"name": "allowListData",
							"type": "tuple"
						},
						{
							"internalType": "address",
							"name": "creatorPayoutAddress",
							"type": "address"
						},
						{
							"internalType": "bytes32",
							"name": "provenanceHash",
							"type": "bytes32"
						},
						{
							"internalType": "address[]",
							"name": "allowedFeeRecipients",
							"type": "address[]"
						},
						{
							"internalType": "address[]",
							"name": "disallowedFeeRecipients",
							"type": "address[]"
						},
						{
							"internalType": "address[]",
							"name": "allowedPayers",
							"type": "address[]"
						},
						{
							"internalType": "address[]",
							"name": "disallowedPayers",
							"type": "address[]"
						},
						{
							"internalType": "address[]",
							"name": "tokenGatedAllowedNftTokens",
							"type": "address[]"
						},
						{
							"components": [
								{
									"internalType": "uint80",
									"name": "mintPrice",
									"type": "uint80"
								},
								{
									"internalType": "uint16",
									"name": "maxTotalMintableByWallet",
									"type": "uint16"
								},
								{
									"internalType": "uint48",
									"name": "startTime",
									"type": "uint48"
								},
								{
									"internalType": "uint48",
									"name": "endTime",
									"type": "uint48"
								},
								{
									"internalType": "uint8",
									"name": "dropStageIndex",
									"type": "uint8"
								},
								{
									"internalType": "uint32",
									"name": "maxTokenSupplyForStage",
									"type": "uint32"
								},
								{
									"internalType": "uint16",
									"name": "feeBps",
									"type": "uint16"
								},
								{
									"internalType": "bool",
									"name": "restrictFeeRecipients",
									"type": "bool"
								}
							],
							"internalType": "struct TokenGatedDropStage[]",
							"name": "tokenGatedDropStages",
							"type": "tuple[]"
						},
						{
							"internalType": "address[]",
							"name": "disallowedTokenGatedAllowedNftTokens",
							"type": "address[]"
						},
						{
							"internalType": "address[]",
							"name": "signers",
							"type": "address[]"
						},
						{
							"components": [
								{
									"internalType": "uint80",
									"name": "minMintPrice",
									"type": "uint80"
								},
								{
									"internalType": "uint24",
									"name": "maxMaxTotalMintableByWallet",
									"type": "uint24"
								},
								{
									"internalType": "uint40",
									"name": "minStartTime",
									"type": "uint40"
								},
								{
									"internalType": "uint40",
									"name": "maxEndTime",
									"type": "uint40"
								},
								{
									"internalType": "uint40",
									"name": "maxMaxTokenSupplyForStage",
									"type": "uint40"
								},
								{
									"internalType": "uint16",
									"name": "minFeeBps",
									"type": "uint16"
								},
								{
									"internalType": "uint16",
									"name": "maxFeeBps",
									"type": "uint16"
								}
							],
							"internalType": "struct SignedMintValidationParams[]",
							"name": "signedMintValidationParams",
							"type": "tuple[]"
						},
						{
							"internalType": "address[]",
							"name": "disallowedSigners",
							"type": "address[]"
						}
					],
					"internalType": "struct ERC721SeaDropStructsErrorsAndEvents.MultiConfigureStruct",
					"name": "config",
					"type": "tuple"
				}
			],
			"name": "multiConfigure",
			"outputs": [],
			"stateMutability": "nonpayable",
			"type": "function"
		},
		{
			"inputs": [],
			"name": "name",
			"outputs": [
				{
					"internalType": "string",
					"name": "",
					"type": "string"
				}
			],
			"stateMutability": "view",
			"type": "function"
		},
		{
			"inputs": [],
			"name": "owner",
			"outputs": [
				{
					"internalType": "address",
					"name": "",
					"type": "address"
				}
			],
			"stateMutability": "view",
			"type": "function"
		},
		{
			"inputs": [
				{
					"internalType": "address",
					"name": "toAddress",
					"type": "address"
				},
				{
					"internalType": "uint256",
					"name": "quantity",
					"type": "uint256"
				}
			],
			"name": "ownerMint",
			"outputs": [],
			"stateMutability": "nonpayable",
			"type": "function"
		},
		{
			"inputs": [],
			"name": "ownerMintsRemaining",
			"outputs": [
				{
					"internalType": "uint256",
					"name": "",
					"type": "uint256"
				}
			],
			"stateMutability": "view",
			"type": "function"
		},
		{
			"inputs": [
				{
					"internalType": "uint256",
					"name": "tokenId",
					"type": "uint256"
				}
			],
			"name": "ownerOf",
			"outputs": [
				{
					"internalType": "address",
					"name": "",
					"type": "address"
				}
			],
			"stateMutability": "view",
			"type": "function"
		},
		{
			"inputs": [],
			"name": "provenanceHash",
			"outputs": [
				{
					"internalType": "bytes32",
					"name": "",
					"type": "bytes32"
				}
			],
			"stateMutability": "view",
			"type": "function"
		},
		{
			"inputs": [],
			"name": "renderer",
			"outputs": [
				{
					"internalType": "contract ISVGRenderer",
					"name": "",
					"type": "address"
				}
			],
			"stateMutability": "view",
			"type": "function"
		},
		{
			"inputs": [],
			"name": "renounceOwnership",
			"outputs": [],
			"stateMutability": "nonpayable",
			"type": "function"
		},
		{
			"inputs": [
				{
					"internalType": "uint256",
					"name": "tokenId",
					"type": "uint256"
				}
			],
			"name": "resetName",
			"outputs": [],
			"stateMutability": "nonpayable",
			"type": "function"
		},
		{
			"inputs": [
				{
					"internalType": "uint256",
					"name": "_seed",
					"type": "uint256"
				},
				{
					"internalType": "uint256",
					"name": "_nonce",
					"type": "uint256"
				}
			],
			"name": "revealGlobalSeed",
			"outputs": [],
			"stateMutability": "nonpayable",
			"type": "function"
		},
		{
			"inputs": [
				{
					"internalType": "uint256",
					"name": "_seed",
					"type": "uint256"
				},
				{
					"internalType": "uint256",
					"name": "_nonce",
					"type": "uint256"
				}
			],
			"name": "revealShufflerSeed",
			"outputs": [],
			"stateMutability": "nonpayable",
			"type": "function"
		},
		{
			"inputs": [],
			"name": "royaltyAddress",
			"outputs": [
				{
					"internalType": "address",
					"name": "",
					"type": "address"
				}
			],
			"stateMutability": "view",
			"type": "function"
		},
		{
			"inputs": [],
			"name": "royaltyBasisPoints",
			"outputs": [
				{
					"internalType": "uint256",
					"name": "",
					"type": "uint256"
				}
			],
			"stateMutability": "view",
			"type": "function"
		},
		{
			"inputs": [
				{
					"internalType": "uint256",
					"name": "",
					"type": "uint256"
				},
				{
					"internalType": "uint256",
					"name": "_salePrice",
					"type": "uint256"
				}
			],
			"name": "royaltyInfo",
			"outputs": [
				{
					"internalType": "address",
					"name": "receiver",
					"type": "address"
				},
				{
					"internalType": "uint256",
					"name": "royaltyAmount",
					"type": "uint256"
				}
			],
			"stateMutability": "view",
			"type": "function"
		},
		{
			"inputs": [
				{
					"internalType": "address",
					"name": "from",
					"type": "address"
				},
				{
					"internalType": "address",
					"name": "to",
					"type": "address"
				},
				{
					"internalType": "uint256",
					"name": "tokenId",
					"type": "uint256"
				}
			],
			"name": "safeTransferFrom",
			"outputs": [],
			"stateMutability": "payable",
			"type": "function"
		},
		{
			"inputs": [
				{
					"internalType": "address",
					"name": "from",
					"type": "address"
				},
				{
					"internalType": "address",
					"name": "to",
					"type": "address"
				},
				{
					"internalType": "uint256",
					"name": "tokenId",
					"type": "uint256"
				},
				{
					"internalType": "bytes",
					"name": "_data",
					"type": "bytes"
				}
			],
			"name": "safeTransferFrom",
			"outputs": [],
			"stateMutability": "payable",
			"type": "function"
		},
		{
			"inputs": [
				{
					"internalType": "address",
					"name": "operator",
					"type": "address"
				},
				{
					"internalType": "bool",
					"name": "approved",
					"type": "bool"
				}
			],
			"name": "setApprovalForAll",
			"outputs": [],
			"stateMutability": "nonpayable",
			"type": "function"
		},
		{
			"inputs": [
				{
					"internalType": "uint256",
					"name": "tokenId",
					"type": "uint256"
				},
				{
					"internalType": "uint256",
					"name": "backgroundIndex",
					"type": "uint256"
				}
			],
			"name": "setBackground",
			"outputs": [],
			"stateMutability": "nonpayable",
			"type": "function"
		},
		{
			"inputs": [
				{
					"internalType": "string",
					"name": "newBaseURI",
					"type": "string"
				}
			],
			"name": "setBaseURI",
			"outputs": [],
			"stateMutability": "nonpayable",
			"type": "function"
		},
		{
			"inputs": [
				{
					"internalType": "string",
					"name": "newContractURI",
					"type": "string"
				}
			],
			"name": "setContractURI",
			"outputs": [],
			"stateMutability": "nonpayable",
			"type": "function"
		},
		{
			"inputs": [
				{
					"internalType": "uint256",
					"name": "newMaxSupply",
					"type": "uint256"
				}
			],
			"name": "setMaxSupply",
			"outputs": [],
			"stateMutability": "nonpayable",
			"type": "function"
		},
		{
			"inputs": [
				{
					"internalType": "uint256",
					"name": "tokenId",
					"type": "uint256"
				},
				{
					"internalType": "string",
					"name": "name",
					"type": "string"
				}
			],
			"name": "setName",
			"outputs": [],
			"stateMutability": "nonpayable",
			"type": "function"
		},
		{
			"inputs": [
				{
					"internalType": "bytes32",
					"name": "newProvenanceHash",
					"type": "bytes32"
				}
			],
			"name": "setProvenanceHash",
			"outputs": [],
			"stateMutability": "nonpayable",
			"type": "function"
		},
		{
			"inputs": [
				{
					"internalType": "contract ISVGRenderer",
					"name": "_renderer",
					"type": "address"
				}
			],
			"name": "setRenderer",
			"outputs": [],
			"stateMutability": "nonpayable",
			"type": "function"
		},
		{
			"inputs": [
				{
					"components": [
						{
							"internalType": "address",
							"name": "royaltyAddress",
							"type": "address"
						},
						{
							"internalType": "uint96",
							"name": "royaltyBps",
							"type": "uint96"
						}
					],
					"internalType": "struct ISeaDropTokenContractMetadata.RoyaltyInfo",
					"name": "newInfo",
					"type": "tuple"
				}
			],
			"name": "setRoyaltyInfo",
			"outputs": [],
			"stateMutability": "nonpayable",
			"type": "function"
		},
		{
			"inputs": [
				{
					"internalType": "address",
					"name": "newValidator",
					"type": "address"
				}
			],
			"name": "setTransferValidator",
			"outputs": [],
			"stateMutability": "nonpayable",
			"type": "function"
		},
		{
			"inputs": [],
			"name": "shufflerSeed",
			"outputs": [
				{
					"internalType": "uint256",
					"name": "",
					"type": "uint256"
				}
			],
			"stateMutability": "view",
			"type": "function"
		},
		{
			"inputs": [],
			"name": "shufflerSeedRevealed",
			"outputs": [
				{
					"internalType": "bool",
					"name": "",
					"type": "bool"
				}
			],
			"stateMutability": "view",
			"type": "function"
		},
		{
			"inputs": [
				{
					"internalType": "bytes4",
					"name": "interfaceId",
					"type": "bytes4"
				}
			],
			"name": "supportsInterface",
			"outputs": [
				{
					"internalType": "bool",
					"name": "",
					"type": "bool"
				}
			],
			"stateMutability": "view",
			"type": "function"
		},
		{
			"inputs": [],
			"name": "symbol",
			"outputs": [
				{
					"internalType": "string",
					"name": "",
					"type": "string"
				}
			],
			"stateMutability": "view",
			"type": "function"
		},
		{
			"inputs": [
				{
					"internalType": "uint256",
					"name": "tokenId",
					"type": "uint256"
				}
			],
			"name": "tokenURI",
			"outputs": [
				{
					"internalType": "string",
					"name": "",
					"type": "string"
				}
			],
			"stateMutability": "view",
			"type": "function"
		},
		{
			"inputs": [
				{
					"internalType": "address",
					"name": "owner",
					"type": "address"
				}
			],
			"name": "tokensOfOwner",
			"outputs": [
				{
					"internalType": "uint256[]",
					"name": "",
					"type": "uint256[]"
				}
			],
			"stateMutability": "view",
			"type": "function"
		},
		{
			"inputs": [
				{
					"internalType": "address",
					"name": "owner",
					"type": "address"
				},
				{
					"internalType": "uint256",
					"name": "start",
					"type": "uint256"
				},
				{
					"internalType": "uint256",
					"name": "stop",
					"type": "uint256"
				}
			],
			"name": "tokensOfOwnerIn",
			"outputs": [
				{
					"internalType": "uint256[]",
					"name": "",
					"type": "uint256[]"
				}
			],
			"stateMutability": "view",
			"type": "function"
		},
		{
			"inputs": [],
			"name": "totalSupply",
			"outputs": [
				{
					"internalType": "uint256",
					"name": "result",
					"type": "uint256"
				}
			],
			"stateMutability": "view",
			"type": "function"
		},
		{
			"inputs": [
				{
					"internalType": "address",
					"name": "from",
					"type": "address"
				},
				{
					"internalType": "address",
					"name": "to",
					"type": "address"
				},
				{
					"internalType": "uint256",
					"name": "tokenId",
					"type": "uint256"
				}
			],
			"name": "transferFrom",
			"outputs": [],
			"stateMutability": "payable",
			"type": "function"
		},
		{
			"inputs": [
				{
					"internalType": "address",
					"name": "newPotentialOwner",
					"type": "address"
				}
			],
			"name": "transferOwnership",
			"outputs": [],
			"stateMutability": "nonpayable",
			"type": "function"
		},
		{
			"inputs": [],
			"name": "transfersPaused",
			"outputs": [
				{
					"internalType": "bool",
					"name": "",
					"type": "bool"
				}
			],
			"stateMutability": "view",
			"type": "function"
		},
		{
			"inputs": [
				{
					"internalType": "address",
					"name": "seaDropImpl",
					"type": "address"
				},
				{
					"components": [
						{
							"internalType": "bytes32",
							"name": "merkleRoot",
							"type": "bytes32"
						},
						{
							"internalType": "string[]",
							"name": "publicKeyURIs",
							"type": "string[]"
						},
						{
							"internalType": "string",
							"name": "allowListURI",
							"type": "string"
						}
					],
					"internalType": "struct AllowListData",
					"name": "allowListData",
					"type": "tuple"
				}
			],
			"name": "updateAllowList",
			"outputs": [],
			"stateMutability": "nonpayable",
			"type": "function"
		},
		{
			"inputs": [
				{
					"internalType": "address",
					"name": "seaDropImpl",
					"type": "address"
				},
				{
					"internalType": "address",
					"name": "feeRecipient",
					"type": "address"
				},
				{
					"internalType": "bool",
					"name": "allowed",
					"type": "bool"
				}
			],
			"name": "updateAllowedFeeRecipient",
			"outputs": [],
			"stateMutability": "nonpayable",
			"type": "function"
		},
		{
			"inputs": [
				{
					"internalType": "address[]",
					"name": "allowedSeaDrop",
					"type": "address[]"
				}
			],
			"name": "updateAllowedSeaDrop",
			"outputs": [],
			"stateMutability": "nonpayable",
			"type": "function"
		},
		{
			"inputs": [
				{
					"internalType": "address",
					"name": "seaDropImpl",
					"type": "address"
				},
				{
					"internalType": "address",
					"name": "payoutAddress",
					"type": "address"
				}
			],
			"name": "updateCreatorPayoutAddress",
			"outputs": [],
			"stateMutability": "nonpayable",
			"type": "function"
		},
		{
			"inputs": [
				{
					"internalType": "address",
					"name": "seaDropImpl",
					"type": "address"
				},
				{
					"internalType": "string",
					"name": "dropURI",
					"type": "string"
				}
			],
			"name": "updateDropURI",
			"outputs": [],
			"stateMutability": "nonpayable",
			"type": "function"
		},
		{
			"inputs": [
				{
					"internalType": "address",
					"name": "seaDropImpl",
					"type": "address"
				},
				{
					"internalType": "address",
					"name": "payer",
					"type": "address"
				},
				{
					"internalType": "bool",
					"name": "allowed",
					"type": "bool"
				}
			],
			"name": "updatePayer",
			"outputs": [],
			"stateMutability": "nonpayable",
			"type": "function"
		},
		{
			"inputs": [
				{
					"internalType": "address",
					"name": "seaDropImpl",
					"type": "address"
				},
				{
					"components": [
						{
							"internalType": "uint80",
							"name": "mintPrice",
							"type": "uint80"
						},
						{
							"internalType": "uint48",
							"name": "startTime",
							"type": "uint48"
						},
						{
							"internalType": "uint48",
							"name": "endTime",
							"type": "uint48"
						},
						{
							"internalType": "uint16",
							"name": "maxTotalMintableByWallet",
							"type": "uint16"
						},
						{
							"internalType": "uint16",
							"name": "feeBps",
							"type": "uint16"
						},
						{
							"internalType": "bool",
							"name": "restrictFeeRecipients",
							"type": "bool"
						}
					],
					"internalType": "struct PublicDrop",
					"name": "publicDrop",
					"type": "tuple"
				}
			],
			"name": "updatePublicDrop",
			"outputs": [],
			"stateMutability": "nonpayable",
			"type": "function"
		},
		{
			"inputs": [
				{
					"internalType": "address",
					"name": "seaDropImpl",
					"type": "address"
				},
				{
					"internalType": "address",
					"name": "signer",
					"type": "address"
				},
				{
					"components": [
						{
							"internalType": "uint80",
							"name": "minMintPrice",
							"type": "uint80"
						},
						{
							"internalType": "uint24",
							"name": "maxMaxTotalMintableByWallet",
							"type": "uint24"
						},
						{
							"internalType": "uint40",
							"name": "minStartTime",
							"type": "uint40"
						},
						{
							"internalType": "uint40",
							"name": "maxEndTime",
							"type": "uint40"
						},
						{
							"internalType": "uint40",
							"name": "maxMaxTokenSupplyForStage",
							"type": "uint40"
						},
						{
							"internalType": "uint16",
							"name": "minFeeBps",
							"type": "uint16"
						},
						{
							"internalType": "uint16",
							"name": "maxFeeBps",
							"type": "uint16"
						}
					],
					"internalType": "struct SignedMintValidationParams",
					"name": "signedMintValidationParams",
					"type": "tuple"
				}
			],
			"name": "updateSignedMintValidationParams",
			"outputs": [],
			"stateMutability": "nonpayable",
			"type": "function"
		},
		{
			"inputs": [
				{
					"internalType": "address",
					"name": "seaDropImpl",
					"type": "address"
				},
				{
					"internalType": "address",
					"name": "allowedNftToken",
					"type": "address"
				},
				{
					"components": [
						{
							"internalType": "uint80",
							"name": "mintPrice",
							"type": "uint80"
						},
						{
							"internalType": "uint16",
							"name": "maxTotalMintableByWallet",
							"type": "uint16"
						},
						{
							"internalType": "uint48",
							"name": "startTime",
							"type": "uint48"
						},
						{
							"internalType": "uint48",
							"name": "endTime",
							"type": "uint48"
						},
						{
							"internalType": "uint8",
							"name": "dropStageIndex",
							"type": "uint8"
						},
						{
							"internalType": "uint32",
							"name": "maxTokenSupplyForStage",
							"type": "uint32"
						},
						{
							"internalType": "uint16",
							"name": "feeBps",
							"type": "uint16"
						},
						{
							"internalType": "bool",
							"name": "restrictFeeRecipients",
							"type": "bool"
						}
					],
					"internalType": "struct TokenGatedDropStage",
					"name": "dropStage",
					"type": "tuple"
				}
			],
			"name": "updateTokenGatedDrop",
			"outputs": [],
			"stateMutability": "nonpayable",
			"type": "function"
		},
		{
			"inputs": [
				{
					"internalType": "bool",
					"name": "paused",
					"type": "bool"
				}
			],
			"name": "updateTransfersPaused",
			"outputs": [],
			"stateMutability": "nonpayable",
			"type": "function"
		}
	]
}