{
	"data": {
		"bytecode": {
			"linkReferences": {},
			"object": "60c0604052346100fd57615f568038038061001981610115565b928339810160a0828203126100fd578151916100348361013a565b602081015160408201516060830151608084015190939192916001600160401b0382116100fd57019484601f870112156100fd578551946001600160401b038611610101578560051b9660208061008c818b01610115565b8099815201988201019182116100fd57602001965b8188106100e35750506100b4955061016d565b60405161587890816106be8239608051818181611ecd0152613667015260a0518181816119bf0152612d920152f35b6020809189516100f28161013a565b8152019701966100a1565b5f80fd5b634e487b7160e01b5f52604160045260245ffd5b6040519190601f01601f191682016001600160401b0381118382101761010157604052565b6001600160a01b038116036100fd57565b6101556040610115565b90600a8252565b6101666040610115565b9060058252565b929361017761014b565b69526574726f50756e6b7360b01b602082015261019261015c565b6452504e4b5360d81b6020820152815190916001600160401b038211610101576101c6826101c16002546104ba565b6104f2565b602090601f831160011461037e5791806101fa9261020295945f92610373575b50508160011b915f199060031b1c19161790565b60025561058c565b61020b60015f55565b610213610665565b80515f5b8181106103245750509161032294939161023361031d94610435565b7f867006957979daa4aa88eb4157c1262555f712bc61ec3d0046c5a49a2c190b456040517fd7aca75208b9be5ffc04c6a01922020ffd62b55e68e502e317f5344960279af85f80a161028d600160ff196013541617601355565b806102a861029d60135460ff1690565b151582526020820190565b0390a16013805461ffff60a81b19166103e760a81b1790556102cf60ff1960165416601655565b6102df61ff001960165416601655565b6102f062ff00001960165416601655565b60805260a05260138054610100600160a81b03191660089290921b610100600160a81b0316919091179055565b600c55565b565b8061036d61036061034761033a600195886103f2565b516001600160a01b031690565b6001600160a01b03165f90815260116020526040902090565b805460ff19166001179055565b01610217565b015190505f806101e6565b60025f52601f19831691905f516020615f365f395f51905f52925f5b8181106103da5750916001939185610202979694106103c2575b505050811b0160025561058c565b01515f1960f88460031b161c191690555f80806103b4565b9293602060018192878601518155019501930161039a565b80518210156104065760209160051b010190565b634e487b7160e01b5f52603260045260245ffd5b5f5b82811061042857505050565b5f8282015560010161041c565b8051906001600160401b03821161010157680100000000000000008211610101576020906012548360125580841061049e575b500160125f5260205f205f5b8381106104815750505050565b82516001600160a01b031682820155602090920191600101610474565b6104b49060125f528480855f200191039061041a565b5f610468565b90600182811c921680156104e8575b60208310146104d457565b634e487b7160e01b5f52602260045260245ffd5b91607f16916104c9565b601f81116104fe575050565b818111610509575050565b60025f52610322915f516020615f365f395f51905f5291601f820160051c91602011610540575b601f82910160051c03910161041a565b5f9150610530565b91601f821161055657505050565b80821161056257505050565b610322925f5260205f20916020601f830160051c921061054057601f82910160051c03910161041a565b80519091906001600160401b038111610101576105b5816105ae6003546104ba565b6003610548565b602092601f82116001146105e9576105e4929382915f926103735750508160011b915f199060031b1c19161790565b600355565b60035f52601f198216937fc2575a0e9e593c00f959f8c92f12db2869c3395a3b0502d05e2516446f71f85b915f5b86811061064d5750836001959610610635575b505050811b01600355565b01515f1960f88460031b161c191690555f808061062a565b91926020600181928685015181550194019201610617565b303b6106af57600a8054336001600160a01b0319821681179092556001600160a01b03167f8be0079c531659141344cd1fd0a4f28419497f9722a3daafe3b4186f6b6457e05f80a3565b62dc149f60e41b5f5260045ffdfe60806040526004361015610011575f80fd5b5f3560e01c806301ffc9a7146104a457806306fdde031461049f57806307aafa981461049a578063081812fc14610495578063095ea7b314610490578063098144d41461048b578063099b6bfa146104865780630d705df6146104815780630d9d713b1461047c57806318160ddd146104775780631b73593c146104725780631dbd73901461046d57806323452b9c1461046857806323b872dd146104635780632a55205a1461045e5780633680620d1461045957806342260b5d1461045457806342842e0e1461044f57806342966c681461044a57806344dae42c146104455780634563f30a14610440578063484b973c1461043b57806348a4c10114610436578063511aa6441461043157806355f804b31461042c57806356d3163d146104275780635743bdff146104225780635bbb21771461041d57806360c308b6146104185780636352211e1461041357806364869dad1461040e57806364f101f01461040957806366251b69146104045780636c0360eb146103ff5780636f8b44b0146103fa57806370a08231146103f5578063715018a6146103f057806373c5643a146103eb57806374e4f5af146103e657806379ba5097146103e15780637a05bc82146103dc5780637bc2be76146103d7578063840e15d4146103d25780638462151c146103cd578063853b3b4c146103c85780638ada6b0f146103c35780638da5cb5b146103be578063911f456b146103b9578063938e3d7b146103b45780639559a5d9146103af57806395d89b41146103aa57806399a2557a146103a557806399c5def3146103a05780639b7406a51461039b578063a22cb46514610396578063a483011414610391578063a9fc664e1461038c578063ad2f852a14610387578063b88d4fde14610382578063c23dc68f1461037d578063c6ab67a314610378578063c87b56dd14610373578063cb743ba81461036e578063cdb0e89e14610369578063d5abeb0114610364578063d74b68571461035f578063db846dbe1461035a578063e8a3d48514610355578063e985e9c514610350578063f2fde38b1461034b578063f4cc710514610346578063f6448f88146103415763fe97b5761461033c575f80fd5b61375d565b61368a565b613650565b6135cc565b6135a9565b613504565b6134ab565b6132fe565b6132e1565b6131b7565b613155565b6130a1565b613084565b613021565b612fbf565b612f46565b612ea1565b612e5b565b612db5565b612d7b565b612d5e565b612bd9565b612b34565b612b0f565b6129cb565b611fb7565b611f8f565b611f63565b611e7b565b611cdd565b611c4a565b611bb9565b611b36565b611a85565b611a60565b61195f565b611904565b6118dd565b61184a565b6117a5565b61173a565b6116ee565b61165f565b611630565b61151e565b61144f565b6113d9565b611352565b61121b565b61111b565b610f58565b610e62565b610e40565b610d5e565b610bfd565b610bd9565b610bb9565b610b19565b610aca565b610ab8565b610a36565b610a14565b610984565b61095f565b6108fd565b6108bb565b61084e565b610826565b610763565b610703565b6106e6565b610610565b6104bf565b6001600160e01b03198116036104bb57565b5f80fd5b346104bb5760203660031901126104bb576105146004356104df816104a9565b63ffffffff60e01b16630c487f4760e11b81149081156105bd575b8115610518575b5060405190151581529081906020820190565b0390f35b63152a902d60e11b8114915081156105ac575b811561059b575b811561058a575b8115610547575b505f610501565b6301ffc9a760e01b811491508115610579575b8115610568575b505f610540565b635b5e139f60e01b1490505f610561565b6380ac58cd60e01b8114915061055a565b632483248360e11b81149150610539565b63503e914d60e11b81149150610532565b632b435fdb60e21b8114915061052b565b639c15441560e01b811491506104fa565b5f9103126104bb57565b805180835260209291819084018484015e5f828201840152601f01601f1916010190565b90602061060d9281815201906105d8565b90565b346104bb575f3660031901126104bb576040515f600254610630816133d5565b80845290600181169081156106c25750600114610664575b610514836106588185038261101d565b604051918291826105fc565b60025f9081527f405787fa12a823e0f2b7631cc41b3ba8828b3321ca811111fa75cd3aa3bb5ace939250905b8082106106a857509091508101602001610658610648565b919260018160209254838588010152019101909291610690565b60ff191660208086019190915291151560051b840190910191506106589050610648565b346104bb575f3660031901126104bb576020601454604051908152f35b346104bb5760203660031901126104bb5760043561072081614992565b15610743575f526006602052602060018060a01b0360405f205416604051908152f35b6333d1c03960e21b5f5260045ffd5b6001600160a01b038116036104bb57565b60403660031901126104bb5760043561077b81610752565b6024359060ff60135416610817576001600160a01b0361079a83614a92565b16908133036107fa575b5f83815260066020526040902080546001600160a01b0319166001600160a01b0383161790556001600160a01b0316907f8c5be1e5ebec7d5bd14f71427d1e84f3dd0314c0f7b2291e5b200ac8c7c3b9255f80a4005b61080433836147fa565b6107a4576367d9dca160e11b5f5260045ffd5b636ab17e0560e01b5f5260045ffd5b346104bb575f3660031901126104bb576009546040516001600160a01b039091168152602090f35b346104bb5760203660031901126104bb5760043561086a614a26565b5f545f19016108ac5760407f7c22004198bf87da0f0dab623c72e66ca1200f4454aa3b9ca30f436275428b7c91600f549080600f5582519182526020820152a1005b63e03264af60e01b5f5260045ffd5b346104bb575f3660031901126104bb576040805163657711f560e11b81525f6020820152f35b6024359081151582036104bb57565b359081151582036104bb57565b346104bb5760203660031901126104bb576004358015158091036104bb5760207f867006957979daa4aa88eb4157c1262555f712bc61ec3d0046c5a49a2c190b4591610947614a4d565b60ff196013541660ff821617601355604051908152a1005b346104bb575f3660031901126104bb575f54600154602091035f19015b604051908152f35b346104bb575f60e03660031901126104bb576004356109a281610752565b60c03660231901126104bb576109b6614a26565b6109bf81614a61565b6001600160a01b0316803b156104bb575f809160c4604051809481936301308e6560e01b83526109f160048401613793565b5af18015610a0f57610a01575080f35b610a0d91505f9061101d565b005b613821565b346104bb575f3660031901126104bb57602060ff601654166040519015158152f35b346104bb575f3660031901126104bb57610a4e614a4d565b6001600160601b0360a01b600b5416600b557f11a3cf439fb225bfe74225716b6774765670ec1060e3796802e62139d69974da60206040515f8152a1005b60609060031901126104bb57600435610aa481610752565b90602435610ab181610752565b9060443590565b610a0d610ac436610a8c565b9161382c565b346104bb5760403660031901126104bb576024356010548060a01c91828102928184041490151715610b1457604080516001600160a01b0390921682526127109092046020820152f35b61399b565b346104bb575f60403660031901126104bb57600435610b3781610752565b602435906001600160401b0382116104bb57606060031983360301126104bb57610b5f614a26565b610b6881614a61565b6001600160a01b0316803b156104bb57610ba75f9291839260405194858094819363ebb4a55f60e01b8352602060048401526024830190600401613a00565b03925af18015610a0f57610a01575080f35b346104bb575f3660031901126104bb57602060105460a01c604051908152f35b610a0d610be536610a8c565b9060405192610bf560208561101d565b5f84526143a1565b346104bb5760203660031901126104bb57600435610c1a81614a92565b5f8281526006602052604090208054916001600160a01b03811691338084149085141715610c47565b1590565b610d47575b5f93610c588685614afd565b610d3e575b506001600160a01b0382165f90815260056020526040902080546fffffffffffffffffffffffffffffffff0190556001600160a01b0382164260a01b17600360e01b17610cb2855f52600460205260405f2090565b55600160e11b811615610cf9575b507fddf252ad1be2c89b69c2b068fc378daa952ba7f163c4a11628f55a4df523b3ef8280a4610a0d610cf460015460010190565b600155565b60018401610d0f815f52600460205260405f2090565b5415610d1c575b50610cc0565b83548114610d1657610d36905f52600460205260405f2090565b555f80610d16565b8390555f610c5d565b610d54610c4333856147fa565b15610c4c576149dd565b346104bb5760403660031901126104bb57610d77614a26565b600435610d8381610752565b6001600160a01b031615610e31576127106001600160601b03610da4613ad5565b1611610e0e57610db2613aeb565b7ff21fccf4d64d86d532c4e4eb86c007b6ad57a460c27d724188625e755ec6cf6d610ddb613abf565b610de3613ad5565b604080516001600160a01b0390931683526001600160601b039091166020830152819081015b0390a1005b6001600160601b03610e1e613ad5565b633cadbafb60e01b5f521660045260245ffd5b631cc0baef60e01b5f5260045ffd5b346104bb575f3660031901126104bb57602060ff601354166040519015158152f35b346104bb5760403660031901126104bb57600435610e7f81610752565b602435610e8a614a4d565b3068929eee149b4bd212685414610f16573068929eee149b4bd21268556013549161ffff8360a81c16828110610f075761ffff831690039261ffff8411610b145761ffff60a81b191660a89390931b61ffff60a81b1692909217601355610ef991610ef482614c74565b614cba565b3868929eee149b4bd2126855005b630651450360e51b5f5260045ffd5b63ab143c065f526004601cfd5b60609060031901126104bb57600435610f3b81610752565b90602435610f4881610752565b9060443580151581036104bb5790565b346104bb57610f6636610f23565b9091610f70614a26565b610f7981614a61565b6001600160a01b031691823b156104bb57604051638e7d1e4360e01b81526001600160a01b03909116600482015290151560248201525f81604481015b93818381819703925af18015610a0f57610a01575080f35b634e487b7160e01b5f52604160045260245ffd5b60e081019081106001600160401b03821117610ffd57604052565b610fce565b606081019081106001600160401b03821117610ffd57604052565b90601f801991011681019081106001600160401b03821117610ffd57604052565b6040519061104d60608361101d565b565b604435906001600160501b03821682036104bb57565b35906001600160501b03821682036104bb57565b6064359062ffffff821682036104bb57565b359062ffffff821682036104bb57565b6084359064ffffffffff821682036104bb57565b60a4359064ffffffffff821682036104bb57565b60c4359064ffffffffff821682036104bb57565b359064ffffffffff821682036104bb57565b60e4359061ffff821682036104bb57565b610104359061ffff821682036104bb57565b359061ffff821682036104bb57565b346104bb576101203660031901126104bb5760043561113981610752565b6024359061114682610752565b60e03660431901126104bb57610a0d916040519161116383610fe2565b61116b61104f565b8352611175611079565b602084015261118261109b565b604084015261118f6110af565b606084015261119c6110c3565b60808401526111a96110e9565b60a08401526111b66110fa565b60c0840152613bc1565b9181601f840112156104bb578235916001600160401b0383116104bb57602083818601950101116104bb57565b60206003198201126104bb57600435906001600160401b0382116104bb57611217916004016111c0565b9091565b346104bb57611229366111ed565b611231614a26565b6001600160401b038111610ffd576112538161124e600d546133d5565b613c50565b5f601f82116001146112d3578190611280935f926112c8575b50508160011b915f199060031b1c19161790565b600d555b5f5460015490035f19015b61129557005b5f5160206158235f395f51905f52610e096112b05f54613d5d565b60405191829182919060206040840193600181520152565b013590505f8061126c565b600d5f52601f198216927fd7b6990105719101dabeb77144f2a3385c8033acd3af97e9423a695e81ad1eb5915f5b85811061133a57508360019510611321575b505050811b01600d55611284565b01355f19600384901b60f8161c191690555f8080611313565b90926020600181928686013581550194019101611301565b346104bb5760203660031901126104bb5760043561136f81610752565b611377614a4d565b60138054610100600160a81b03191660089290921b610100600160a81b03169190911790555f5460015490035f19016113ac57005b5f545f198101908111610b145760405f5160206158235f395f51905f5291815190600182526020820152a1005b346104bb575f3660031901126104bb57602061ffff60135460a81c16604051908152f35b9060206003198301126104bb576004356001600160401b0381116104bb5760040182601f820112156104bb578035926001600160401b0384116104bb576020808301928560051b0101116104bb579190565b346104bb5761145d366113fd565b906040519180835260051b6020818401016040525b8081801561149857601f199081019261148f919085010135614416565b90840152611472565b846040518091602082016020835281518091526020604084019201905f5b8181106114c4575050500390f35b919350916020608082611510600194885162ffffff6060809260018060a01b0381511685526001600160401b036020820151166020860152604081015115156040860152015116910152565b0194019101918493926114b6565b346104bb5761152c366113fd565b611534614a4d565b6012545f5b8181106115cf5750505f5b818110611587575081611578827fbbd3b69c138de4d317d0bc4290282c4e1cbd1e58b579a5b4f114b598c237454d94614ddf565b610e0960405192839283614e7a565b806115c96115bc6115a361159e6001958789614008565b613acb565b6001600160a01b03165f90815260116020526040902090565b805460ff19166001179055565b01611544565b60125481101561162b5760125f527fbb8a6a4669ba250d26cd7a459eca9d215f8307e33aebe50379bc5a3617ec3444810154600191906116259061161b906001600160a01b03166115a3565b805460ff19169055565b01611539565b613ff4565b346104bb5760203660031901126104bb5760206001600160a01b03611656600435614a92565b16604051908152f35b346104bb5760403660031901126104bb5760043561167c81610752565b6024353068929eee149b4bd212685414610f16573068929eee149b4bd21268556116a533614a61565b5f545f190191818301809311610b1457600c548093116116c957610ef99250614cba565b505f545f1901908101809111610b145763384b48c560e21b5f5260045260245260445ffd5b346104bb575f3660031901126104bb57611706614a4d565b6016805460ff19166001179055005b60409060031901126104bb5760043561172d81610752565b9060243561060d81610752565b346104bb5761174836611715565b90611751614a26565b61175a81614a61565b6001600160a01b0316803b156104bb5760405163024e71b760e31b81526001600160a01b0390921660048301525f919082908290602490829084905af18015610a0f57610a01575080f35b346104bb575f3660031901126104bb576040515f600d546117c5816133d5565b80845290600181169081156106c257506001146117ec57610514836106588185038261101d565b600d5f9081527fd7b6990105719101dabeb77144f2a3385c8033acd3af97e9423a695e81ad1eb5939250905b80821061183057509091508101602001610658610648565b919260018160209254838588010152019101909291611818565b346104bb5760203660031901126104bb57600435611866614a26565b6001600160401b0381116118cb575f545f190181106118b0576020817f7810bd47de260c3e9ee10061cf438099dd12256c79485f12f94dbccc981e806c92600c55604051908152a1005b5f545f190190638c19f1f960e01b5f5260045260245260445ffd5b63b43e913760e01b5f5260045260245ffd5b346104bb5760203660031901126104bb57602061097c6004356118ff81610752565b613d6b565b346104bb575f3660031901126104bb5761191c614a4d565b600a80546001600160a01b031981169091555f906001600160a01b03167f8be0079c531659141344cd1fd0a4f28419497f9722a3daafe3b4186f6b6457e08280a3005b346104bb5760403660031901126104bb5760043560243561197e614a4d565b60ff60165460101c16611a51576040516119ba816119ac602082019486869091604092825260208201520190565b03601f19810183528261101d565b5190207f000000000000000000000000000000000000000000000000000000000000000003611a4257610e0981611a117f6c2137e80722ed4b518b32ea50ecb69ef2c76f0451088a3c0aa79ce523bab51493601555565b611a276201000060165462ff0000191617601655565b611a32600c54614ec1565b6040519081529081906020820190565b633bdfc85960e11b5f5260045ffd5b631104d35360e11b5f5260045ffd5b346104bb575f3660031901126104bb57602060ff60165460101c166040519015158152f35b346104bb575f3660031901126104bb57600b546001600160a01b0381169033829003611b27576001600160601b0360a01b16600b557f11a3cf439fb225bfe74225716b6774765670ec1060e3796802e62139d69974da60206040515f8152a1600a80546001600160a01b0319811683179091556001600160a01b03167f8be0079c531659141344cd1fd0a4f28419497f9722a3daafe3b4186f6b6457e05f80a3005b636b7584e760e11b5f5260045ffd5b346104bb575f60403660031901126104bb57600435611b5481610752565b6024356001600160401b0381116104bb57611b739036906004016111c0565b91611b7c614a26565b611b8581614a61565b6001600160a01b031691823b156104bb57610ba7925f928360405180968195829463b957d0cb60e01b845260048401613da1565b346104bb575f6101403660031901126104bb57600435611bd881610752565b60243590611be582610752565b6101003660431901126104bb57611bfa614a26565b611c0381614a61565b6001600160a01b031690813b156104bb57604051637ecd591560e11b81526001600160a01b039091166004820152905f90829061012490829084906109f160248401613dd1565b346104bb5760203660031901126104bb57600435611c6781610752565b60018060a01b03165f52600560205260606001600160401b0360405f205460401c165f195f5401600c549060405192835260208301526040820152f35b60206040818301928281528451809452019201905f5b818110611cc75750505090565b8251845260209384019390920191600101611cba565b346104bb5760203660031901126104bb57600435611cfa81610752565b5f5460609080600103611d16575b604051806105148482611ca4565b90819260019060609380831015611e6c575f5480911015611e64575b50611d3c81613d6b565b9285831015611e5c575b83611d5b575b5050505061051491505f611d08565b92935090915f19850184811115611e54575b506040519183850160051b83019485604052611d8885614416565b905f91611d9b610c436040830151151590565b611e42575b505f97919591825b15611e13575b5f96611db98461505b565b604081015115611dd857505060015f935b019688604052969296611da8565b9390935180611e0b575b50848418861b15611df6575b600190611dca565b6001909901600581901b87018a905298611dee565b93505f611de2565b8083148015611e39575b15611dae5750505050509150506105149181525f808080611d4c565b50818914611e1d565b516001600160a01b031691505f611da0565b93505f611d6d565b5f9350611d46565b94505f611d32565b631960ccad60e11b5f5260045ffd5b346104bb5760403660031901126104bb57600435602435611e9a614a4d565b60165460081c60ff16611f5457604051611ec8816119ac602082019486869091604092825260208201520190565b5190207f000000000000000000000000000000000000000000000000000000000000000003611f4557611f3381611f1f7f07bccb191591b7e41b276df97ebf2cbb27e85e20fa7db7d336d3a9738021466f93601455565b611a3261010061ff00196016541617601655565b0390a15f5460015490035f190161128f565b63148bb88160e31b5f5260045ffd5b6318ed71cd60e01b5f5260045ffd5b346104bb575f3660031901126104bb5760135460405160089190911c6001600160a01b03168152602090f35b346104bb575f3660031901126104bb57600a546040516001600160a01b039091168152602090f35b346104bb5760203660031901126104bb576004356001600160401b0381116104bb57806004019061030060031982360301126104bb57611ff5614a4d565b813580612987575b506024810161200c8184613e93565b905061292e575b50604481016120228184613e93565b90506128d5575b50600165ffffffffffff61203f60a48401613ec5565b16151561205c61205160c48501613ec5565b65ffffffffffff1690565b15151714612873575b61014481016120748184613e93565b905061280f575b50610164810161208b8184613f88565b356127aa575b5061018481016001600160a01b036120a882613acb565b16612741575b506101a4810135806126fd575b506101c481016120cb8184613fbf565b905061265a575b506101e481016120e28184613fbf565b90506125b7575b5061020481016120f98184613fbf565b9050612514575b5061022481016121108184613fbf565b9050612471575b5061026481016121278184614018565b9050612393575b50610284810161213e8184613fbf565b90506122f4575b506102c481016121558184614236565b9050612216575b506102e481019161216d8382613fbf565b905061217557005b60645f939201925b6121878383613fbf565b9050811015610a0d57612198614343565b906121a285613acb565b6121b961159e836121b38888613fbf565b90614008565b303b156104bb575f916121e06040519586938493631446a99160e21b855260048501614379565b038183305af1918215610a0f576001926121fc575b500161217d565b8061220a5f6122109361101d565b806105ce565b5f6121f5565b6122208184614236565b6102a484019291506122328386613fbf565b919050036122e557606483015f5b61224a8387614236565b90508110156122db5761225c82613acb565b9061226e61159e826121b3888b613fbf565b916122838261227d878b614236565b9061426b565b92303b156104bb575f916122ab6040519586938493631446a99160e21b85526004850161427b565b038183305af1918215610a0f576001926122c7575b5001612240565b8061220a5f6122d59361101d565b5f6122c0565b505050505f61215c565b6374ef6df760e01b5f5260045ffd5b6064820192905f5b6123068284613fbf565b905081101561238957612317614142565b9061232186613acb565b61233261159e836121b38789613fbf565b303b156104bb575f916123596040519586938493633de15f3b60e11b85526004850161418f565b038183305af1918215610a0f57600192612375575b50016122fc565b8061220a5f6123839361101d565b5f61236e565b505091505f612145565b61239d8184614018565b61024484019291506123af8386613fbf565b9190500361246257606483015f5b6123c78387614018565b9050811015612458576123d982613acb565b906123eb61159e826121b3888b613fbf565b91612400826123fa878b614018565b9061404d565b92303b156104bb575f916124286040519586938493633de15f3b60e11b85526004850161405d565b038183305af1918215610a0f57600192612444575b50016123bd565b8061220a5f6124529361101d565b5f61243d565b505050505f61212e565b63b81aa63960e01b5f5260045ffd5b606482015f5b6124818386613fbf565b905081101561250b5761249382613acb565b906124a561159e826121b3878a613fbf565b91303b156104bb5760405163196e877560e31b81526001600160a01b039182166004820152921660248301525f604483018190528260648183305af1918215610a0f576001926124f7575b5001612477565b8061220a5f6125059361101d565b5f6124f0565b5050505f612117565b606482015f5b6125248386613fbf565b90508110156125ae5761253682613acb565b9061254861159e826121b3878a613fbf565b91303b156104bb5760405163196e877560e31b81526001600160a01b03918216600482015292166024830152600160448301525f8260648183305af1918215610a0f5760019261259a575b500161251a565b8061220a5f6125a89361101d565b5f612593565b5050505f612100565b606482015f5b6125c78386613fbf565b9050811015612651576125d982613acb565b906125eb61159e826121b3878a613fbf565b91303b156104bb576040516348a4c10160e01b81526001600160a01b039182166004820152921660248301525f604483018190528260648183305af1918215610a0f5760019261263d575b50016125bd565b8061220a5f61264b9361101d565b5f612636565b5050505f6120e9565b606482015f5b61266a8386613fbf565b90508110156126f45761267c82613acb565b9061268e61159e826121b3878a613fbf565b91303b156104bb576040516348a4c10160e01b81526001600160a01b03918216600482015292166024830152600160448301525f8260648183305af1918215610a0f576001926126e0575b5001612660565b8061220a5f6126ee9361101d565b5f6126d9565b5050505f6120d2565b303b156104bb576040516304cdb5fd60e11b815260048101919091525f8160248183305af18015610a0f57156120bb578061220a5f61273b9361101d565b5f6120bb565b61275661275060648401613acb565b91613acb565b90303b156104bb576040516366251b6960e01b81526001600160a01b039182166004820152911660248201525f8160448183305af18015610a0f57156120ae578061220a5f6127a49361101d565b5f6120ae565b6127c06127b960648401613acb565b9184613f88565b90303b156104bb57604051633680620d60e01b8152915f91839182916127ea919060048401613f9d565b038183305af18015610a0f5715612091578061220a5f6128099361101d565b5f612091565b61282561281e60648401613acb565b9184613e93565b9190303b156104bb575f9161284e6040519485938493633d02de4160e11b855260048501613f66565b038183305af18015610a0f571561207b578061220a5f61286d9361101d565b5f61207b565b61287f60648201613acb565b303b156104bb575f6128aa91604051809381926306dcd64f60e21b8352608487019060048401613ecf565b038183305af18015610a0f576128c1575b50612065565b8061220a5f6128cf9361101d565b5f6128bb565b6128df9083613e93565b90303b156104bb5760405163938e3d7b60e01b8152915f9183918291612909919060048401613da1565b038183305af18015610a0f5715612029578061220a5f6129289361101d565b5f612029565b6129389083613e93565b90303b156104bb576040516355f804b360e01b8152915f9183918291612962919060048401613da1565b038183305af18015610a0f5715612013578061220a5f6129819361101d565b5f612013565b303b156104bb576040516306f8b44b60e41b815260048101919091525f8160248183305af18015610a0f5715611ffd578061220a5f6129c59361101d565b5f611ffd565b346104bb576129d9366111ed565b6129e1614a26565b6001600160401b038111610ffd57612a03816129fe600e546133d5565b613cb9565b5f91601f8211600114612a6f57612a5182807f905d981207a7d0b6c62cc46ab0be2a076d0298e4a86d0ab79882dbd01ac37378955f91612a64575b508160011b915f199060031b1c19161790565b600e555b610e0960405192839283613da1565b90508301355f612a3e565b600e5f52601f1982167fbb7b4a454dc3493923482f07822329ed19e8244eff582cc204f8554c3620c3fd905f5b818110612af7575093837f905d981207a7d0b6c62cc46ab0be2a076d0298e4a86d0ab79882dbd01ac373789510612ade575b5050600182811b01600e55612a55565b8201355f19600385901b60f8161c191690555f80612ace565b83860135835560209586019560019093019201612a9c565b346104bb575f3660031901126104bb57602060ff60165460081c166040519015158152f35b346104bb575f3660031901126104bb576040515f600354612b54816133d5565b80845290600181169081156106c25750600114612b7b57610514836106588185038261101d565b60035f9081527fc2575a0e9e593c00f959f8c92f12db2869c3395a3b0502d05e2516446f71f85b939250905b808210612bbf57509091508101602001610658610648565b919260018160209254838588010152019101909291612ba7565b346104bb5760603660031901126104bb57600435612bf681610752565b60443590606090602435838181811015611e6c57600111612d55575b5f5480911015612d4d575b50612c2782613d6b565b9184821015612d45575b82612c45575b604051806105148682611ca4565b9080929350840383811115612d3d575b50604051906001840160051b82019384604052612c7184614416565b905f91612c84610c436040830151151590565b612d2b575b505f9691949160015b15612cfe575b5f95612ca38461505b565b604081015115612cc257505060015f935b019587604052959295612c92565b9390935180612cf6575b5084841860601b15612ce1575b600190612cb4565b6001909801600581901b860189905297612cd9565b93505f612ccc565b8083148015612d22575b15612c9857505050509150506105149181525f8080612c37565b50818814612d08565b516001600160a01b031691505f612c89565b92505f612c55565b5f9250612c31565b93505f612c1d565b60019150612c12565b346104bb575f3660031901126104bb576020601554604051908152f35b346104bb575f3660031901126104bb5760206040517f00000000000000000000000000000000000000000000000000000000000000008152f35b346104bb5760403660031901126104bb57600435612dd281610752565b612dda6108e1565b9060ff6013541661081757335f526007602052612e1f82612e0e8360405f209060018060a01b03165f5260205260405f2090565b9060ff801983541691151516179055565b60405191151582526001600160a01b03169033907f17307eab39ab6107e8899845ad3d59bd9653f200f220920489ca2b5937696c3190602090a3005b346104bb5760403660031901126104bb575f5160206158235f395f51905f52602435600435612e88614a26565b6040805191825260208201929092529081908101610e09565b346104bb5760203660031901126104bb57600435612ebe81610752565b612ec6614a4d565b600954906001600160a01b03808316908216808214612f37576001600160a01b031993909316909217600955604080516001600160a01b0393841681529190921660208201527fcc5dc080ff977b3c3a211fa63ab74f90f658f5ba9d3236e92c8f59570f442aac9181908101610e09565b63251dd8cf60e11b5f5260045ffd5b346104bb575f3660031901126104bb576010546040516001600160a01b039091168152602090f35b6001600160401b038111610ffd57601f01601f191660200190565b929192612f9582612f6e565b91612fa3604051938461101d565b8294818452818301116104bb578281602093845f960137010152565b60803660031901126104bb57600435612fd781610752565b60243590612fe482610752565b604435606435926001600160401b0384116104bb57366023850112156104bb5761301b610a0d943690602481600401359101612f89565b926143a1565b346104bb5760203660031901126104bb57608061303f600435614416565b613082604051809262ffffff6060809260018060a01b0381511685526001600160401b036020820151166020860152604081015115156040860152015116910152565bf35b346104bb575f3660031901126104bb576020600f54604051908152f35b346104bb5760203660031901126104bb576004356130be81614992565b1561314657610658610514916060604080516130d981611002565b5f81525f60208201520152805f52601760205260405f20604051906130fd82611002565b61313c613134613125600184549461ffff8616875260ff602088019660101c1686520161340d565b938460408201525161ffff1690565b915160ff1690565b90601454936152bb565b634a1850bf60e11b5f5260045ffd5b346104bb5761316336610f23565b909161316d614a26565b61317681614a61565b6001600160a01b031691823b156104bb57604051633f952e6560e11b81526001600160a01b03909116600482015290151560248201525f8160448101610fb6565b346104bb5760403660031901126104bb576004356024356001600160401b0381116104bb57366023820112156104bb576131fb903690602481600401359101612f89565b6001600160a01b0361320c83614a92565b1633036132d25761ffff61323361322b845f52601760205260405f2090565b5461ffff1690565b1660108110613247575b50610a0d91614560565b600481149081156132c7575b81156132bc575b81156132b1575b81156132a6575b811561329b575b8115613290575b50613281575f61323d565b6306fc781960e01b5f5260045ffd5b600d9150145f613276565b600b8114915061326f565b600881149150613268565b600781149150613261565b60068114915061325a565b600581149150613253565b634143fbf960e01b5f5260045ffd5b346104bb575f3660031901126104bb576020600c54604051908152f35b346104bb5760403660031901126104bb576004356024356001600160a01b0361332683614a92565b1633036132d25761ffff61334561322b845f52601760205260405f2090565b1660108110613359575b50610a0d91614773565b600481149081156133ca575b81156133bf575b81156133b4575b81156133a9575b811561339e575b8115613393575b50613281575f61334f565b600d9150145f613388565b600b81149150613381565b60088114915061337a565b600781149150613373565b60068114915061336c565b600581149150613365565b90600182811c92168015613403575b60208310146133ef57565b634e487b7160e01b5f52602260045260245ffd5b91607f16916133e4565b9060405191825f825492613420846133d5565b80845293600181169081156134895750600114613445575b5061104d9250038361101d565b90505f9291925260205f20905f915b81831061346d57505090602061104d928201015f613438565b6020919350806001915483858901015201910190918492613454565b90506020925061104d94915060ff191682840152151560051b8201015f613438565b346104bb5760203660031901126104bb576004355f52601760205260ff60405f206105146134dd60018354930161340d565b604051938361ffff869516855260101c1660208401526060604084015260608301906105d8565b346104bb575f3660031901126104bb576040515f600e54613524816133d5565b80845290600181169081156106c2575060011461354b57610514836106588185038261101d565b600e5f9081527fbb7b4a454dc3493923482f07822329ed19e8244eff582cc204f8554c3620c3fd939250905b80821061358f57509091508101602001610658610648565b919260018160209254838588010152019101909291613577565b346104bb5760206135c26135bc36611715565b906147fa565b6040519015158152f35b346104bb5760203660031901126104bb576004356135e981610752565b6135f1614a4d565b6001600160a01b03168015613641576020817f11a3cf439fb225bfe74225716b6774765670ec1060e3796802e62139d69974da926001600160601b0360a01b600b541617600b55604051908152a1005b633a247dd760e11b5f5260045ffd5b346104bb575f3660031901126104bb5760206040517f00000000000000000000000000000000000000000000000000000000000000008152f35b346104bb5760203660031901126104bb576004356001600160a01b036136af82614a92565b1633036132d25761ffff6136ce61322b835f52601760205260405f2090565b16601081106136e1575b610a0d8261488d565b60048114908115613752575b8115613747575b811561373c575b8115613731575b8115613726575b811561371b575b50613281575f6136d8565b600d9150145f613710565b600b81149150613709565b600881149150613702565b6007811491506136fb565b6006811491506136f4565b6005811491506136ed565b346104bb575f3660031901126104bb57602060405160018152f35b65ffffffffffff8116036104bb57565b359061104d82613778565b602435906001600160501b03821682036104bb576001600160501b0361104d9216815265ffffffffffff6044356137c981613778565b16602082015265ffffffffffff6064356137e281613778565b16604082015261ffff6137f5608461110c565b16606082015261ffff61380860a461110c565b16608082015260a061381a60c46108f0565b1515910152565b6040513d5f823e3d90fd5b919061383782614a92565b6001600160a01b0384811694908216859003613996575f8481526006602052604090208054919033808414908814171561397f575b61389a9261387b878785614bad565b613976575b506001600160a01b03165f90815260056020526040902090565b80545f190190556001600160a01b0382165f908152600560205260409020805460010190556001600160a01b0382164260a01b17600160e11b176138e6845f52600460205260405f2090565b55600160e11b811615613931575b506001600160a01b03169182907fddf252ad1be2c89b69c2b068fc378daa952ba7f163c4a11628f55a4df523b3ef5f80a41561392c57565b6149fa565b60018301613947815f52600460205260405f2090565b5415613954575b506138f4565b5f54811461394e5761396e905f52600460205260405f2090565b555f8061394e565b5f90555f613880565b61398c610c4333846147fa565b1561386c576149dd565b6149ec565b634e487b7160e01b5f52601160045260245ffd5b908060209392818452848401375f828201840152601f01601f1916010190565b9035601e19823603018112156104bb5701602081359101916001600160401b0382116104bb5781360383136104bb57565b91906060810190833581526020840135601e19853603018112156104bb57840193602085359501946001600160401b0381116104bb578060051b9384360387136104bb576060602085015281905292820160809081019386915f9085015b828210613a8b575050505061060d939450806040613a7d9201906139cf565b9160408185039101526139af565b90919295602080613ab1600193613aab8b8e607f198d85030189526139cf565b906139af565b980192019201909291613a5e565b60043561060d81610752565b3561060d81610752565b6024356001600160601b03811681036104bb5790565b600435613af781610752565b60018060a01b03166001600160601b0360a01b60105416176010556024356001600160601b03811681036104bb57601080546001600160a01b031660a09290921b6001600160a01b031916919091179055565b9060c08061104d936001600160501b03815116845262ffffff602082015116602085015264ffffffffff604082015116604085015264ffffffffff606082015116606085015264ffffffffff6080820151166080850152613bb660a082015160a086019061ffff169052565b015161ffff16910152565b613bc9614a26565b613bd281614a61565b6001600160a01b031691823b156104bb576040516309a7002f60e31b81526001600160a01b03909216600483015290915f9183916101049183918591613c1c906024850190613b4a565b5af18015610a0f57613c2b5750565b5f61104d9161101d565b5f5b828110613c4357505050565b5f82820155600101613c37565b601f8111613c5c575050565b818111613c67575050565b600d5f5261104d917fd7b6990105719101dabeb77144f2a3385c8033acd3af97e9423a695e81ad1eb591601f820160051c91602011613cb1575b601f82910160051c039101613c35565b5f9150613ca1565b601f8111613cc5575050565b818111613cd0575050565b600e5f5261104d917fbb7b4a454dc3493923482f07822329ed19e8244eff582cc204f8554c3620c3fd91601f820160051c91602011613cb157601f82910160051c039101613c35565b91601f8211613d2757505050565b808211613d3357505050565b61104d925f5260205f20916020601f830160051c9210613cb157601f82910160051c039101613c35565b5f19810191908211610b1457565b6001600160a01b03168015613d92575f5260056020526001600160401b0360405f20541690565b6323d3ad8160e21b5f5260045ffd5b91602061060d9381815201916139af565b359060ff821682036104bb57565b359063ffffffff821682036104bb57565b604435906001600160501b03821682036104bb576001600160501b0361104d9216815261ffff613e01606461110c565b16602082015265ffffffffffff608435613e1a81613778565b166040820152613e3c613e2d60a4613788565b65ffffffffffff166060830152565b613e53613e4960c4613db2565b60ff166080830152565b613e6d613e6060e4613dc0565b63ffffffff1660a0830152565b613e86613e7b61010461110c565b61ffff1660c0830152565b60e061381a6101246108f0565b903590601e19813603018212156104bb57018035906001600160401b0382116104bb576020019181360383136104bb57565b3561060d81613778565b60c061381a60a061104d94969560e0850197600180841b031685526001600160501b03613efb82611065565b16602086015265ffffffffffff6020820135613f1681613778565b16604086015265ffffffffffff6040820135613f3181613778565b16606086015261ffff613f466060830161110c565b16608086015261ffff613f5b6080830161110c565b1682860152016108f0565b6001600160a01b03909116815260406020820181905261060d939101916139af565b903590605e19813603018212156104bb570190565b6001600160a01b03909116815260406020820181905261060d92910190613a00565b903590601e19813603018212156104bb57018035906001600160401b0382116104bb57602001918160051b360383136104bb57565b634e487b7160e01b5f52603260045260245ffd5b919081101561162b5760051b0190565b903590601e19813603018212156104bb57018035906001600160401b0382116104bb57602001918160081b360383136104bb57565b919081101561162b5760081b0190565b6001600160a01b039182168152911660208201526101408101929161104d91906101209061381a9060e0906001600160501b0361409982611065565b16604086015261ffff6140ae6020830161110c565b16606086015265ffffffffffff60408201356140c981613778565b1660808601526140ed6140de60608301613788565b65ffffffffffff1660a0870152565b6141066140fc60808301613db2565b60ff1660c0870152565b61412161411560a08301613dc0565b63ffffffff1686840152565b61413c61413060c0830161110c565b61ffff16610100870152565b016108f0565b6040519061010082018281106001600160401b03821117610ffd576040525f60e0838281528260208201528260408201528260608201528260808201528260a08201528260c08201520152565b90939260e06101209161104d9461014085019760018060a01b0316855260018060a01b031660208501526001600160501b03815116604085015261ffff602082015116606085015265ffffffffffff6040820151166080850152614202606082015160a086019065ffffffffffff169052565b608081015160ff1660c085015260a081015163ffffffff168483015260c081015161ffff1661010085015201511515910152565b903590601e19813603018212156104bb57018035906001600160401b0382116104bb576020019160e08202360383136104bb57565b919081101561162b5760e0020190565b6001600160a01b039182168152911660208201526101208101929161104d91906101009061433a9060c0906001600160501b036142b782611065565b16604086015262ffffff6142cd6020830161108b565b16606086015264ffffffffff6142e5604083016110d7565b16608086015264ffffffffff6142fd606083016110d7565b1660a086015264ffffffffff614315608083016110d7565b168286015261433461432960a0830161110c565b61ffff1660e0870152565b0161110c565b61ffff16910152565b6040519061435082610fe2565b5f60c0838281528260208201528260408201528260608201528260808201528260a08201520152565b6001600160a01b039182168152911660208201526101208101929161104d9160400190613b4a565b9291906143af82828661382c565b803b6143bc575b50505050565b6143c593615033565b156143d3575f8080806143b6565b6368d2bf6b60e11b5f5260045ffd5b60405190608082018281106001600160401b03821117610ffd576040525f6060838281528260208201528260408201520152565b9061441f6143e2565b91600181101561442c5750565b5f5481106144375750565b9091505b805f52600460205260405f2054614454575f190161443b565b61060d9061505b565b90815181101561162b570160200190565b91909182516001600160401b038111610ffd576144958161448f84546133d5565b84613d19565b6020601f82116001146144d35781906144c49394955f926144c85750508160011b915f199060031b1c19161790565b9055565b015190505f8061126c565b601f198216906144e6845f5260205f2090565b915f5b81811061452057509583600195969710614508575b505050811b019055565b01515f1960f88460031b161c191690555f80806144fe565b9192602060018192868b0151815501940192016144e9565b805191908290602001825e015f815290565b61455a9060405191828092614538565b03902090565b9181518015159081614767575b5015614758575f5b82518110156146e2576145a961459c61458e838661445d565b516001600160f81b03191690565b6001600160f81b03191690565b600360fc1b81101590816146d3575b81156146af575b811561468b575b8115614640575b81156145f1575b50156145e257600101614575565b63a23ef83b60e01b5f5260045ffd5b603f60f81b811491508115614632575b8115614624575b8115614616575b505f6145d4565b602760f81b1490505f61460f565b601360f91b81149150614608565b605f60f81b81149150614601565b9050600160fd1b8114801561467e575b8015614671575b8015614664575b906145cd565b50601760f91b811461465e565b50602d60f81b8114614657565b50602160f81b8114614650565b9050606160f81b811015806146a1575b906145c6565b50603d60f91b81111561469b565b9050604160f81b811015806146c5575b906145bf565b50602d60f91b8111156146bf565b603960f81b81111591506145b8565b50916147028260016146fc845f52601760205260405f2090565b0161446e565b60408051828152602081018390525f5160206158235f395f51905f5291819081015b0390a1614731339261454a565b907f27fac8f362f0993df8069600bac492702d7c0d77d65545716bf8b7acd95f02145f80a4565b634e9a61e560e11b5f5260045ffd5b6020915011155f61456d565b9060058110156147eb575f828152601760205260409020805462ff00001916601083901b62ff00001617905560408051838152602081018490525f5160206158235f395f51905f5291819081010390a133917f717ea6d16cd5b1adadf0580bb4b4ebbe47b8329c34ae1d20b2a3505b0b45121b5f80a4565b63acce9f5760e01b5f5260045ffd5b6001600160a01b038216731e0049783f008a0085193e00003d00cd54003c711461484c576001600160a01b039081165f908152600760209081526040808320939094168252919091522060ff90541690565b5050600190565b9061104d61487f926040519384916a526574726f50756e6b202360a81b6020840152602b830190614538565b03601f19810184528361101d565b61489e614899826153b0565b614853565b90805f526017602052600160405f200182516001600160401b038111610ffd576148cc8161448f84546133d5565b6020601f821160011461492b5790806148f8925f9161492057508160011b915f199060031b1c19161790565b905560408051828152602081018390525f5160206158235f395f51905f529181908101614724565b90508501515f612a3e565b601f1982169061493e845f5260205f2090565b915f5b81811061497a57509083600194939210614962575b5050811b019055614702565b8601515f1960f88460031b161c191690555f80614956565b9192602060018192868b015181550194019201614941565b905f9180600111156149a15750565b5f5481106149ac5750565b9091505b805f52600460205260405f2054806149d157508015610b14575f19016149b0565b600160e01b1615919050565b632ce44b5f60e11b5f5260045ffd5b62a1148160e81b5f5260045ffd5b633a954ecd60e21b5f5260045ffd5b636f96cda160e11b5f5260045ffd5b622e076360e81b5f5260045ffd5b60018060a01b03600a541633143033141715614a3e57565b635fc483c560e01b5f5260045ffd5b600a546001600160a01b03163303614a3e57565b60018060a01b03165f526011602052600160ff60405f205416151503614a8357565b6315e26ff360e01b5f5260045ffd5b80600111614a0957614aac815f52600460205260405f2090565b54908115614ac35750600160e01b8116614a095790565b90505f54811015614a09575b5f19015f81815260046020526040902054908115614af65750600160e01b8116614a095790565b9050614acf565b6001600160a01b03811615158080614ba1575b6108175780614b9a575b614b22575050565b6009546001600160a01b03169182614b3957505050565b823b156104bb5760405163657711f560e11b81523360048201526001600160a01b039290921660248301525f6044830181905260648301919091529091829060849082905afa8015610a0f57614b8c5750565b8061220a5f61104d9361101d565b505f614b1a565b5060ff60135416614b10565b90916001600160a01b03821615158080614c68575b6108175780614c56575b614bd557505050565b6009546001600160a01b031680614bec5750505050565b803b156104bb5760405163657711f560e11b81523360048201526001600160a01b03938416602482015293909216604484015260648301525f90829060849082905afa8015610a0f57614c42575b8080806143b6565b8061220a5f614c509361101d565b5f614c3a565b506001600160a01b0383161515614bcc565b5060ff60135416614bc2565b5f545f1982820181019291018210610b1457600c54809211614c94575050565b5f545f19918101820191018110610b145763384b48c560e21b5f5260045260245260445ffd5b919060405190614ccb60208361101d565b5f825260165460ff8116614dd05760ff90614ce583614c74565b60101c1615614dc1575f5460015490035f19019381850180861195865b610b145781811015614d3b576001810190818111610b1457600c5491818303928311610b1457600192614d3491615665565b0186614d02565b50509091929350614d4c82826154d6565b5f545f1901600c5414614daa575b803b614d6557505050565b9091925f549283039260015b15614d95575b5f614d8a610c4387600188019787614f94565b15614d71575b6143d3565b808410614d775792509250505f54036104bb57565b614dbc600160ff196016541617601655565b614d5a565b63636402df60e01b5f5260045ffd5b6306ce844d60e01b5f5260045ffd5b6001600160401b038211610ffd57680100000000000000008211610ffd5760125482601255808310614e41575b5060125f5260205f205f5b838110614e245750505050565b6001906020843594614e3586610752565b01938184015501614e17565b60125f52614e74908390037fbb8a6a4669ba250d26cd7a459eca9d215f8307e33aebe50379bc5a3617ec34448401613c35565b5f614e0c565b60208082528101839052604001915f5b818110614e975750505090565b9091926020806001928635614eab81610752565b848060a01b031681520194019101919091614e8a565b63fffffffe5f1982011015614f1257601854614f055760185f81905260e09190911b7bb13d2d76d1f4b7be834882e410b3e3a8afaf69f83600ae2400000000179055565b630c9f11f25f526004601cfd5b6383b539415f526004601cfd5b908160209103126104bb575161060d816104a9565b6001600160a01b03918216815291166020820152604081019190915260806060820181905261060d929101906105d8565b3d15614f8f573d90614f7682612f6e565b91614f84604051938461101d565b82523d5f602084013e565b606090565b91614fbb926020925f604051809681958294630a85bd0160e11b8452843360048601614f34565b03926001600160a01b03165af15f9181615002575b50614fec57614fdd614f65565b805115614d9057805190602001fd5b6001600160e01b031916630a85bd0160e11b1490565b61502591925060203d60201161502c575b61501d818361101d565b810190614f1f565b905f614fd0565b503d615013565b906020925f614fbb959360405196879586948593630a85bd0160e11b85523360048601614f34565b6150636143e2565b505f52600460205260405f20546150786143e2565b6001600160a01b038216815260a082901c6001600160401b03166020820152600160e01b82161515604082015260e89190911c606082015290565b81601f820112156104bb578051906150ca82612f6e565b926150d8604051948561101d565b828452602083830101116104bb57815f9260208093018386015e8301015290565b9190916040818403126104bb5780516001600160401b0381116104bb57836151229183016150b3565b9260208201516001600160401b0381116104bb5761060d92016150b3565b61104d9061487f615172949360026040519687946a526574726f50756e6b202360a81b6020870152602b860190614538565b6101d160f51b81520190614538565b6001906152376151b9959460246151f861104d96602c6040519a8b97683d913730b6b2911d1160b91b60208a01526029890190614538565b7f222c226465736372697074696f6e223a22526574726f50756e6b73204e46542081526b18dbdb1b1958dd1a5bdb888b60a21b60208201520190614538565b600b60fa1b81527f22696d616765223a22646174613a696d6167652f7376672b786d6c3b6261736586820152620d8d0b60ea1b60218201520190614538565b601160f91b815203601e1981018552018361101d565b9061104d6001615267936040519485916020830190614538565b607d60f81b815203601e1981018552018361101d565b9061104d61487f926040519384917f646174613a6170706c69636174696f6e2f6a736f6e3b6261736536342c0000006020840152603d830190614538565b601354604051637d13443360e01b815261ffff93909316600484015260ff93909316602483015260448201949094529291905f90849060081c6001600160a01b031681806064810103915afa918215610a0f5761060d93615365936153609361535b935f935f93615382575b50906153559181516020830120615340614899836153b0565b60208151910120145f1461536a5750926153f5565b91615181565b61524d565b6153f5565b61527d565b9061537761537c926153b0565b615140565b926153f5565b6153559294506153a59193503d805f833e61539d818361101d565b8101906150f9565b939093929091615327565b90604051600a608082019360a083016040525f8552935b5f1901936030828206018553049283156153e357600a906153c7565b809350608091030191601f1901918252565b90606091805180615404575050565b9092506003600282010460021b90604051937f4142434445464748494a4b4c4d4e4f505152535455565758595a616263646566601f526106707f6768696a6b6c6d6e6f707172737475767778797a303132333435363738392d5f18603f526020850191838601926004600360208601945b0191603f8351818160121c16515f538181600c1c1651600153818160061c165160025316516003535f5181520190838210156154b657600490600390615475565b50915060405f93016040526003613d3d60f01b9106600204820352528252565b5f5490821561558a576001600160a01b0381164260a01b6001851460e11b1717615508835f52600460205260405f2090565b556001600160a01b03165f8181526005602052604090208054680100000000000000018502019055918215615585578101909260015b15615571575b5f84845f7fddf252ad1be2c89b69c2b068fc378daa952ba7f163c4a11628f55a4df523b3ef8180a461553e565b926001019281840361554457925090505f55565b614a18565b63b562e8dd60e01b5f5260045ffd5b81518154602084015162ff000060109190911b1661ffff90921662ffffff19909116171781559091906040906001019201519182516001600160401b038111610ffd576155ea8161448f84546133d5565b6020601f82116001146156195781906144c49394955f926144c85750508160011b915f199060031b1c19161790565b601f1982169061562c845f5260205f2090565b915f5b81811061564d5750958360019596971061450857505050811b019055565b9192602060018192868b01518155019401920161562f565b90156157ce5760185463ffffffff1660155490604051906020820192835260408201528260608201526060815261569d60808261101d565b51902090601854918263ffffffff168360e01c908082146157c15761104d946157736157809361576e936157bc965f52806020528361fffe8280850360405f20060193116157228483839060018060c01b039060201c1682826004031c0154600f821c8316826004011b1c90600160105f19921b1b0116801515905f19018218021890565b9687946157668585859060018060c01b039060201c1682826004031c0154600f821c8316826004011b1c90600160105f19921b1b0116801515905f19018218021890565b9084846157dd565b6157dd565b60010160185561ffff1690565b9161578d614899826153b0565b6157a261579861103e565b61ffff9095168552565b6001602085015260408401525f52601760205260405f2090565b615599565b6351065f795f526004601cfd5b63073d3bb360e11b5f5260045ffd5b92919060018060c01b039060201c1681846004031c0192600f811c8216816004011b91845493600181019114150283831c1890600160105f19921b1b0116901b18905556fe6bd5c950a8d8df17f772f5af37cb3655737899cbf903264b9795592da439661ca2646970667358221220b1dd0f195f627946d020f4e36011d32a3dbf377e2f18f685d76c4ba5620715c664736f6c63430008210033405787fa12a823e0f2b7631cc41b3ba8828b3321ca811111fa75cd3aa3bb5ace",
			"opcodes": "PUSH1 0xC0 PUSH1 0x40 MSTORE CALLVALUE PUSH2 0xFD JUMPI PUSH2 0x5F56 DUP1 CODESIZE SUB DUP1 PUSH2 0x19 DUP2 PUSH2 0x115 JUMP JUMPDEST SWAP3 DUP4 CODECOPY DUP2 ADD PUSH1 0xA0 DUP3 DUP3 SUB SLT PUSH2 0xFD JUMPI DUP2 MLOAD SWAP2 PUSH2 0x34 DUP4 PUSH2 0x13A JUMP JUMPDEST PUSH1 0x20 DUP2 ADD MLOAD PUSH1 0x40 DUP3 ADD MLOAD PUSH1 0x60 DUP4 ADD MLOAD PUSH1 0x80 DUP5 ADD MLOAD SWAP1 SWAP4 SWAP2 SWAP3 SWAP2 PUSH1 0x1 PUSH1 0x1 PUSH1 0x40 SHL SUB DUP3 GT PUSH2 0xFD JUMPI ADD SWAP5 DUP5 PUSH1 0x1F DUP8 ADD SLT ISZERO PUSH2 0xFD JUMPI DUP6 MLOAD SWAP5 PUSH1 0x1 PUSH1 0x1 PUSH1 0x40 SHL SUB DUP7 GT PUSH2 0x101 JUMPI DUP6 PUSH1 0x5 SHL SWAP7 PUSH1 0x20 DUP1 PUSH2 0x8C DUP2 DUP12 ADD PUSH2 0x115 JUMP JUMPDEST DUP1 SWAP10 DUP2 MSTORE ADD SWAP9 DUP3 ADD ADD SWAP2 DUP3 GT PUSH2 0xFD JUMPI PUSH1 0x20 ADD SWAP7 JUMPDEST DUP2 DUP9 LT PUSH2 0xE3 JUMPI POP POP PUSH2 0xB4 SWAP6 POP PUSH2 0x16D JUMP JUMPDEST PUSH1 0x40 MLOAD PUSH2 0x5878 SWAP1 DUP2 PUSH2 0x6BE DUP3 CODECOPY PUSH1 0x80 MLOAD DUP2 DUP2 DUP2 PUSH2 0x1ECD ADD MSTORE PUSH2 0x3667 ADD MSTORE PUSH1 0xA0 MLOAD DUP2 DUP2 DUP2 PUSH2 0x19BF ADD MSTORE PUSH2 0x2D92 ADD MSTORE RETURN JUMPDEST PUSH1 0x20 DUP1 SWAP2 DUP10 MLOAD PUSH2 0xF2 DUP2 PUSH2 0x13A JUMP JUMPDEST DUP2 MSTORE ADD SWAP8 ADD SWAP7 PUSH2 0xA1 JUMP JUMPDEST PUSH0 DUP1 REVERT JUMPDEST PUSH4 0x4E487B71 PUSH1 0xE0 SHL PUSH0 MSTORE PUSH1 0x41 PUSH1 0x4 MSTORE PUSH1 0x24 PUSH0 REVERT JUMPDEST PUSH1 0x40 MLOAD SWAP2 SWAP1 PUSH1 0x1F ADD PUSH1 0x1F NOT AND DUP3 ADD PUSH1 0x1 PUSH1 0x1 PUSH1 0x40 SHL SUB DUP2 GT DUP4 DUP3 LT OR PUSH2 0x101 JUMPI PUSH1 0x40 MSTORE JUMP JUMPDEST PUSH1 0x1 PUSH1 0x1 PUSH1 0xA0 SHL SUB DUP2 AND SUB PUSH2 0xFD JUMPI JUMP JUMPDEST PUSH2 0x155 PUSH1 0x40 PUSH2 0x115 JUMP JUMPDEST SWAP1 PUSH1 0xA DUP3 MSTORE JUMP JUMPDEST PUSH2 0x166 PUSH1 0x40 PUSH2 0x115 JUMP JUMPDEST SWAP1 PUSH1 0x5 DUP3 MSTORE JUMP JUMPDEST SWAP3 SWAP4 PUSH2 0x177 PUSH2 0x14B JUMP JUMPDEST PUSH10 0x526574726F50756E6B73 PUSH1 0xB0 SHL PUSH1 0x20 DUP3 ADD MSTORE PUSH2 0x192 PUSH2 0x15C JUMP JUMPDEST PUSH5 0x52504E4B53 PUSH1 0xD8 SHL PUSH1 0x20 DUP3 ADD MSTORE DUP2 MLOAD SWAP1 SWAP2 PUSH1 0x1 PUSH1 0x1 PUSH1 0x40 SHL SUB DUP3 GT PUSH2 0x101 JUMPI PUSH2 0x1C6 DUP3 PUSH2 0x1C1 PUSH1 0x2 SLOAD PUSH2 0x4BA JUMP JUMPDEST PUSH2 0x4F2 JUMP JUMPDEST PUSH1 0x20 SWAP1 PUSH1 0x1F DUP4 GT PUSH1 0x1 EQ PUSH2 0x37E JUMPI SWAP2 DUP1 PUSH2 0x1FA SWAP3 PUSH2 0x202 SWAP6 SWAP5 PUSH0 SWAP3 PUSH2 0x373 JUMPI JUMPDEST POP POP DUP2 PUSH1 0x1 SHL SWAP2 PUSH0 NOT SWAP1 PUSH1 0x3 SHL SHR NOT AND OR SWAP1 JUMP JUMPDEST PUSH1 0x2 SSTORE PUSH2 0x58C JUMP JUMPDEST PUSH2 0x20B PUSH1 0x1 PUSH0 SSTORE JUMP JUMPDEST PUSH2 0x213 PUSH2 0x665 JUMP JUMPDEST DUP1 MLOAD PUSH0 JUMPDEST DUP2 DUP2 LT PUSH2 0x324 JUMPI POP POP SWAP2 PUSH2 0x322 SWAP5 SWAP4 SWAP2 PUSH2 0x233 PUSH2 0x31D SWAP5 PUSH2 0x435 JUMP JUMPDEST PUSH32 0x867006957979DAA4AA88EB4157C1262555F712BC61EC3D0046C5A49A2C190B45 PUSH1 0x40 MLOAD PUSH32 0xD7ACA75208B9BE5FFC04C6A01922020FFD62B55E68E502E317F5344960279AF8 PUSH0 DUP1 LOG1 PUSH2 0x28D PUSH1 0x1 PUSH1 0xFF NOT PUSH1 0x13 SLOAD AND OR PUSH1 0x13 SSTORE JUMP JUMPDEST DUP1 PUSH2 0x2A8 PUSH2 0x29D PUSH1 0x13 SLOAD PUSH1 0xFF AND SWAP1 JUMP JUMPDEST ISZERO ISZERO DUP3 MSTORE PUSH1 0x20 DUP3 ADD SWAP1 JUMP JUMPDEST SUB SWAP1 LOG1 PUSH1 0x13 DUP1 SLOAD PUSH2 0xFFFF PUSH1 0xA8 SHL NOT AND PUSH2 0x3E7 PUSH1 0xA8 SHL OR SWAP1 SSTORE PUSH2 0x2CF PUSH1 0xFF NOT PUSH1 0x16 SLOAD AND PUSH1 0x16 SSTORE JUMP JUMPDEST PUSH2 0x2DF PUSH2 0xFF00 NOT PUSH1 0x16 SLOAD AND PUSH1 0x16 SSTORE JUMP JUMPDEST PUSH2 0x2F0 PUSH3 0xFF0000 NOT PUSH1 0x16 SLOAD AND PUSH1 0x16 SSTORE JUMP JUMPDEST PUSH1 0x80 MSTORE PUSH1 0xA0 MSTORE PUSH1 0x13 DUP1 SLOAD PUSH2 0x100 PUSH1 0x1 PUSH1 0xA8 SHL SUB NOT AND PUSH1 0x8 SWAP3 SWAP1 SWAP3 SHL PUSH2 0x100 PUSH1 0x1 PUSH1 0xA8 SHL SUB AND SWAP2 SWAP1 SWAP2 OR SWAP1 SSTORE JUMP JUMPDEST PUSH1 0xC SSTORE JUMP JUMPDEST JUMP JUMPDEST DUP1 PUSH2 0x36D PUSH2 0x360 PUSH2 0x347 PUSH2 0x33A PUSH1 0x1 SWAP6 DUP9 PUSH2 0x3F2 JUMP JUMPDEST MLOAD PUSH1 0x1 PUSH1 0x1 PUSH1 0xA0 SHL SUB AND SWAP1 JUMP JUMPDEST PUSH1 0x1 PUSH1 0x1 PUSH1 0xA0 SHL SUB AND PUSH0 SWAP1 DUP2 MSTORE PUSH1 0x11 PUSH1 0x20 MSTORE PUSH1 0x40 SWAP1 KECCAK256 SWAP1 JUMP JUMPDEST DUP1 SLOAD PUSH1 0xFF NOT AND PUSH1 0x1 OR SWAP1 SSTORE JUMP JUMPDEST ADD PUSH2 0x217 JUMP JUMPDEST ADD MLOAD SWAP1 POP PUSH0 DUP1 PUSH2 0x1E6 JUMP JUMPDEST PUSH1 0x2 PUSH0 MSTORE PUSH1 0x1F NOT DUP4 AND SWAP2 SWAP1 PUSH0 MLOAD PUSH1 0x20 PUSH2 0x5F36 PUSH0 CODECOPY PUSH0 MLOAD SWAP1 PUSH0 MSTORE SWAP3 PUSH0 JUMPDEST DUP2 DUP2 LT PUSH2 0x3DA JUMPI POP SWAP2 PUSH1 0x1 SWAP4 SWAP2 DUP6 PUSH2 0x202 SWAP8 SWAP7 SWAP5 LT PUSH2 0x3C2 JUMPI JUMPDEST POP POP POP DUP2 SHL ADD PUSH1 0x2 SSTORE PUSH2 0x58C JUMP JUMPDEST ADD MLOAD PUSH0 NOT PUSH1 0xF8 DUP5 PUSH1 0x3 SHL AND SHR NOT AND SWAP1 SSTORE PUSH0 DUP1 DUP1 PUSH2 0x3B4 JUMP JUMPDEST SWAP3 SWAP4 PUSH1 0x20 PUSH1 0x1 DUP2 SWAP3 DUP8 DUP7 ADD MLOAD DUP2 SSTORE ADD SWAP6 ADD SWAP4 ADD PUSH2 0x39A JUMP JUMPDEST DUP1 MLOAD DUP3 LT ISZERO PUSH2 0x406 JUMPI PUSH1 0x20 SWAP2 PUSH1 0x5 SHL ADD ADD SWAP1 JUMP JUMPDEST PUSH4 0x4E487B71 PUSH1 0xE0 SHL PUSH0 MSTORE PUSH1 0x32 PUSH1 0x4 MSTORE PUSH1 0x24 PUSH0 REVERT JUMPDEST PUSH0 JUMPDEST DUP3 DUP2 LT PUSH2 0x428 JUMPI POP POP POP JUMP JUMPDEST PUSH0 DUP3 DUP3 ADD SSTORE PUSH1 0x1 ADD PUSH2 0x41C JUMP JUMPDEST DUP1 MLOAD SWAP1 PUSH1 0x1 PUSH1 0x1 PUSH1 0x40 SHL SUB DUP3 GT PUSH2 0x101 JUMPI PUSH9 0x10000000000000000 DUP3 GT PUSH2 0x101 JUMPI PUSH1 0x20 SWAP1 PUSH1 0x12 SLOAD DUP4 PUSH1 0x12 SSTORE DUP1 DUP5 LT PUSH2 0x49E JUMPI JUMPDEST POP ADD PUSH1 0x12 PUSH0 MSTORE PUSH1 0x20 PUSH0 KECCAK256 PUSH0 JUMPDEST DUP4 DUP2 LT PUSH2 0x481 JUMPI POP POP POP POP JUMP JUMPDEST DUP3 MLOAD PUSH1 0x1 PUSH1 0x1 PUSH1 0xA0 SHL SUB AND DUP3 DUP3 ADD SSTORE PUSH1 0x20 SWAP1 SWAP3 ADD SWAP2 PUSH1 0x1 ADD PUSH2 0x474 JUMP JUMPDEST PUSH2 0x4B4 SWAP1 PUSH1 0x12 PUSH0 MSTORE DUP5 DUP1 DUP6 PUSH0 KECCAK256 ADD SWAP2 SUB SWAP1 PUSH2 0x41A JUMP JUMPDEST PUSH0 PUSH2 0x468 JUMP JUMPDEST SWAP1 PUSH1 0x1 DUP3 DUP2 SHR SWAP3 AND DUP1 ISZERO PUSH2 0x4E8 JUMPI JUMPDEST PUSH1 0x20 DUP4 LT EQ PUSH2 0x4D4 JUMPI JUMP JUMPDEST PUSH4 0x4E487B71 PUSH1 0xE0 SHL PUSH0 MSTORE PUSH1 0x22 PUSH1 0x4 MSTORE PUSH1 0x24 PUSH0 REVERT JUMPDEST SWAP2 PUSH1 0x7F AND SWAP2 PUSH2 0x4C9 JUMP JUMPDEST PUSH1 0x1F DUP2 GT PUSH2 0x4FE JUMPI POP POP JUMP JUMPDEST DUP2 DUP2 GT PUSH2 0x509 JUMPI POP POP JUMP JUMPDEST PUSH1 0x2 PUSH0 MSTORE PUSH2 0x322 SWAP2 PUSH0 MLOAD PUSH1 0x20 PUSH2 0x5F36 PUSH0 CODECOPY PUSH0 MLOAD SWAP1 PUSH0 MSTORE SWAP2 PUSH1 0x1F DUP3 ADD PUSH1 0x5 SHR SWAP2 PUSH1 0x20 GT PUSH2 0x540 JUMPI JUMPDEST PUSH1 0x1F DUP3 SWAP2 ADD PUSH1 0x5 SHR SUB SWAP2 ADD PUSH2 0x41A JUMP JUMPDEST PUSH0 SWAP2 POP PUSH2 0x530 JUMP JUMPDEST SWAP2 PUSH1 0x1F DUP3 GT PUSH2 0x556 JUMPI POP POP POP JUMP JUMPDEST DUP1 DUP3 GT PUSH2 0x562 JUMPI POP POP POP JUMP JUMPDEST PUSH2 0x322 SWAP3 PUSH0 MSTORE PUSH1 0x20 PUSH0 KECCAK256 SWAP2 PUSH1 0x20 PUSH1 0x1F DUP4 ADD PUSH1 0x5 SHR SWAP3 LT PUSH2 0x540 JUMPI PUSH1 0x1F DUP3 SWAP2 ADD PUSH1 0x5 SHR SUB SWAP2 ADD PUSH2 0x41A JUMP JUMPDEST DUP1 MLOAD SWAP1 SWAP2 SWAP1 PUSH1 0x1 PUSH1 0x1 PUSH1 0x40 SHL SUB DUP2 GT PUSH2 0x101 JUMPI PUSH2 0x5B5 DUP2 PUSH2 0x5AE PUSH1 0x3 SLOAD PUSH2 0x4BA JUMP JUMPDEST PUSH1 0x3 PUSH2 0x548 JUMP JUMPDEST PUSH1 0x20 SWAP3 PUSH1 0x1F DUP3 GT PUSH1 0x1 EQ PUSH2 0x5E9 JUMPI PUSH2 0x5E4 SWAP3 SWAP4 DUP3 SWAP2 PUSH0 SWAP3 PUSH2 0x373 JUMPI POP POP DUP2 PUSH1 0x1 SHL SWAP2 PUSH0 NOT SWAP1 PUSH1 0x3 SHL SHR NOT AND OR SWAP1 JUMP JUMPDEST PUSH1 0x3 SSTORE JUMP JUMPDEST PUSH1 0x3 PUSH0 MSTORE PUSH1 0x1F NOT DUP3 AND SWAP4 PUSH32 0xC2575A0E9E593C00F959F8C92F12DB2869C3395A3B0502D05E2516446F71F85B SWAP2 PUSH0 JUMPDEST DUP7 DUP2 LT PUSH2 0x64D JUMPI POP DUP4 PUSH1 0x1 SWAP6 SWAP7 LT PUSH2 0x635 JUMPI JUMPDEST POP POP POP DUP2 SHL ADD PUSH1 0x3 SSTORE JUMP JUMPDEST ADD MLOAD PUSH0 NOT PUSH1 0xF8 DUP5 PUSH1 0x3 SHL AND SHR NOT AND SWAP1 SSTORE PUSH0 DUP1 DUP1 PUSH2 0x62A JUMP JUMPDEST SWAP2 SWAP3 PUSH1 0x20 PUSH1 0x1 DUP2 SWAP3 DUP7 DUP6 ADD MLOAD DUP2 SSTORE ADD SWAP5 ADD SWAP3 ADD PUSH2 0x617 JUMP JUMPDEST ADDRESS EXTCODESIZE PUSH2 0x6AF JUMPI PUSH1 0xA DUP1 SLOAD CALLER PUSH1 0x1 PUSH1 0x1 PUSH1 0xA0 SHL SUB NOT DUP3 AND DUP2 OR SWAP1 SWAP3 SSTORE PUSH1 0x1 PUSH1 0x1 PUSH1 0xA0 SHL SUB AND PUSH32 0x8BE0079C531659141344CD1FD0A4F28419497F9722A3DAAFE3B4186F6B6457E0 PUSH0 DUP1 LOG3 JUMP JUMPDEST PUSH3 0xDC149F PUSH1 0xE4 SHL PUSH0 MSTORE PUSH1 0x4 PUSH0 REVERT INVALID PUSH1 0x80 PUSH1 0x40 MSTORE PUSH1 0x4 CALLDATASIZE LT ISZERO PUSH2 0x11 JUMPI PUSH0 DUP1 REVERT JUMPDEST PUSH0 CALLDATALOAD PUSH1 0xE0 SHR DUP1 PUSH4 0x1FFC9A7 EQ PUSH2 0x4A4 JUMPI DUP1 PUSH4 0x6FDDE03 EQ PUSH2 0x49F JUMPI DUP1 PUSH4 0x7AAFA98 EQ PUSH2 0x49A JUMPI DUP1 PUSH4 0x81812FC EQ PUSH2 0x495 JUMPI DUP1 PUSH4 0x95EA7B3 EQ PUSH2 0x490 JUMPI DUP1 PUSH4 0x98144D4 EQ PUSH2 0x48B JUMPI DUP1 PUSH4 0x99B6BFA EQ PUSH2 0x486 JUMPI DUP1 PUSH4 0xD705DF6 EQ PUSH2 0x481 JUMPI DUP1 PUSH4 0xD9D713B EQ PUSH2 0x47C JUMPI DUP1 PUSH4 0x18160DDD EQ PUSH2 0x477 JUMPI DUP1 PUSH4 0x1B73593C EQ PUSH2 0x472 JUMPI DUP1 PUSH4 0x1DBD7390 EQ PUSH2 0x46D JUMPI DUP1 PUSH4 0x23452B9C EQ PUSH2 0x468 JUMPI DUP1 PUSH4 0x23B872DD EQ PUSH2 0x463 JUMPI DUP1 PUSH4 0x2A55205A EQ PUSH2 0x45E JUMPI DUP1 PUSH4 0x3680620D EQ PUSH2 0x459 JUMPI DUP1 PUSH4 0x42260B5D EQ PUSH2 0x454 JUMPI DUP1 PUSH4 0x42842E0E EQ PUSH2 0x44F JUMPI DUP1 PUSH4 0x42966C68 EQ PUSH2 0x44A JUMPI DUP1 PUSH4 0x44DAE42C EQ PUSH2 0x445 JUMPI DUP1 PUSH4 0x4563F30A EQ PUSH2 0x440 JUMPI DUP1 PUSH4 0x484B973C EQ PUSH2 0x43B JUMPI DUP1 PUSH4 0x48A4C101 EQ PUSH2 0x436 JUMPI DUP1 PUSH4 0x511AA644 EQ PUSH2 0x431 JUMPI DUP1 PUSH4 0x55F804B3 EQ PUSH2 0x42C JUMPI DUP1 PUSH4 0x56D3163D EQ PUSH2 0x427 JUMPI DUP1 PUSH4 0x5743BDFF EQ PUSH2 0x422 JUMPI DUP1 PUSH4 0x5BBB2177 EQ PUSH2 0x41D JUMPI DUP1 PUSH4 0x60C308B6 EQ PUSH2 0x418 JUMPI DUP1 PUSH4 0x6352211E EQ PUSH2 0x413 JUMPI DUP1 PUSH4 0x64869DAD EQ PUSH2 0x40E JUMPI DUP1 PUSH4 0x64F101F0 EQ PUSH2 0x409 JUMPI DUP1 PUSH4 0x66251B69 EQ PUSH2 0x404 JUMPI DUP1 PUSH4 0x6C0360EB EQ PUSH2 0x3FF JUMPI DUP1 PUSH4 0x6F8B44B0 EQ PUSH2 0x3FA JUMPI DUP1 PUSH4 0x70A08231 EQ PUSH2 0x3F5 JUMPI DUP1 PUSH4 0x715018A6 EQ PUSH2 0x3F0 JUMPI DUP1 PUSH4 0x73C5643A EQ PUSH2 0x3EB JUMPI DUP1 PUSH4 0x74E4F5AF EQ PUSH2 0x3E6 JUMPI DUP1 PUSH4 0x79BA5097 EQ PUSH2 0x3E1 JUMPI DUP1 PUSH4 0x7A05BC82 EQ PUSH2 0x3DC JUMPI DUP1 PUSH4 0x7BC2BE76 EQ PUSH2 0x3D7 JUMPI DUP1 PUSH4 0x840E15D4 EQ PUSH2 0x3D2 JUMPI DUP1 PUSH4 0x8462151C EQ PUSH2 0x3CD JUMPI DUP1 PUSH4 0x853B3B4C EQ PUSH2 0x3C8 JUMPI DUP1 PUSH4 0x8ADA6B0F EQ PUSH2 0x3C3 JUMPI DUP1 PUSH4 0x8DA5CB5B EQ PUSH2 0x3BE JUMPI DUP1 PUSH4 0x911F456B EQ PUSH2 0x3B9 JUMPI DUP1 PUSH4 0x938E3D7B EQ PUSH2 0x3B4 JUMPI DUP1 PUSH4 0x9559A5D9 EQ PUSH2 0x3AF JUMPI DUP1 PUSH4 0x95D89B41 EQ PUSH2 0x3AA JUMPI DUP1 PUSH4 0x99A2557A EQ PUSH2 0x3A5 JUMPI DUP1 PUSH4 0x99C5DEF3 EQ PUSH2 0x3A0 JUMPI DUP1 PUSH4 0x9B7406A5 EQ PUSH2 0x39B JUMPI DUP1 PUSH4 0xA22CB465 EQ PUSH2 0x396 JUMPI DUP1 PUSH4 0xA4830114 EQ PUSH2 0x391 JUMPI DUP1 PUSH4 0xA9FC664E EQ PUSH2 0x38C JUMPI DUP1 PUSH4 0xAD2F852A EQ PUSH2 0x387 JUMPI DUP1 PUSH4 0xB88D4FDE EQ PUSH2 0x382 JUMPI DUP1 PUSH4 0xC23DC68F EQ PUSH2 0x37D JUMPI DUP1 PUSH4 0xC6AB67A3 EQ PUSH2 0x378 JUMPI DUP1 PUSH4 0xC87B56DD EQ PUSH2 0x373 JUMPI DUP1 PUSH4 0xCB743BA8 EQ PUSH2 0x36E JUMPI DUP1 PUSH4 0xCDB0E89E EQ PUSH2 0x369 JUMPI DUP1 PUSH4 0xD5ABEB01 EQ PUSH2 0x364 JUMPI DUP1 PUSH4 0xD74B6857 EQ PUSH2 0x35F JUMPI DUP1 PUSH4 0xDB846DBE EQ PUSH2 0x35A JUMPI DUP1 PUSH4 0xE8A3D485 EQ PUSH2 0x355 JUMPI DUP1 PUSH4 0xE985E9C5 EQ PUSH2 0x350 JUMPI DUP1 PUSH4 0xF2FDE38B EQ PUSH2 0x34B JUMPI DUP1 PUSH4 0xF4CC7105 EQ PUSH2 0x346 JUMPI DUP1 PUSH4 0xF6448F88 EQ PUSH2 0x341 JUMPI PUSH4 0xFE97B576 EQ PUSH2 0x33C JUMPI PUSH0 DUP1 REVERT JUMPDEST PUSH2 0x375D JUMP JUMPDEST PUSH2 0x368A JUMP JUMPDEST PUSH2 0x3650 JUMP JUMPDEST PUSH2 0x35CC JUMP JUMPDEST PUSH2 0x35A9 JUMP JUMPDEST PUSH2 0x3504 JUMP JUMPDEST PUSH2 0x34AB JUMP JUMPDEST PUSH2 0x32FE JUMP JUMPDEST PUSH2 0x32E1 JUMP JUMPDEST PUSH2 0x31B7 JUMP JUMPDEST PUSH2 0x3155 JUMP JUMPDEST PUSH2 0x30A1 JUMP JUMPDEST PUSH2 0x3084 JUMP JUMPDEST PUSH2 0x3021 JUMP JUMPDEST PUSH2 0x2FBF JUMP JUMPDEST PUSH2 0x2F46 JUMP JUMPDEST PUSH2 0x2EA1 JUMP JUMPDEST PUSH2 0x2E5B JUMP JUMPDEST PUSH2 0x2DB5 JUMP JUMPDEST PUSH2 0x2D7B JUMP JUMPDEST PUSH2 0x2D5E JUMP JUMPDEST PUSH2 0x2BD9 JUMP JUMPDEST PUSH2 0x2B34 JUMP JUMPDEST PUSH2 0x2B0F JUMP JUMPDEST PUSH2 0x29CB JUMP JUMPDEST PUSH2 0x1FB7 JUMP JUMPDEST PUSH2 0x1F8F JUMP JUMPDEST PUSH2 0x1F63 JUMP JUMPDEST PUSH2 0x1E7B JUMP JUMPDEST PUSH2 0x1CDD JUMP JUMPDEST PUSH2 0x1C4A JUMP JUMPDEST PUSH2 0x1BB9 JUMP JUMPDEST PUSH2 0x1B36 JUMP JUMPDEST PUSH2 0x1A85 JUMP JUMPDEST PUSH2 0x1A60 JUMP JUMPDEST PUSH2 0x195F JUMP JUMPDEST PUSH2 0x1904 JUMP JUMPDEST PUSH2 0x18DD JUMP JUMPDEST PUSH2 0x184A JUMP JUMPDEST PUSH2 0x17A5 JUMP JUMPDEST PUSH2 0x173A JUMP JUMPDEST PUSH2 0x16EE JUMP JUMPDEST PUSH2 0x165F JUMP JUMPDEST PUSH2 0x1630 JUMP JUMPDEST PUSH2 0x151E JUMP JUMPDEST PUSH2 0x144F JUMP JUMPDEST PUSH2 0x13D9 JUMP JUMPDEST PUSH2 0x1352 JUMP JUMPDEST PUSH2 0x121B JUMP JUMPDEST PUSH2 0x111B JUMP JUMPDEST PUSH2 0xF58 JUMP JUMPDEST PUSH2 0xE62 JUMP JUMPDEST PUSH2 0xE40 JUMP JUMPDEST PUSH2 0xD5E JUMP JUMPDEST PUSH2 0xBFD JUMP JUMPDEST PUSH2 0xBD9 JUMP JUMPDEST PUSH2 0xBB9 JUMP JUMPDEST PUSH2 0xB19 JUMP JUMPDEST PUSH2 0xACA JUMP JUMPDEST PUSH2 0xAB8 JUMP JUMPDEST PUSH2 0xA36 JUMP JUMPDEST PUSH2 0xA14 JUMP JUMPDEST PUSH2 0x984 JUMP JUMPDEST PUSH2 0x95F JUMP JUMPDEST PUSH2 0x8FD JUMP JUMPDEST PUSH2 0x8BB JUMP JUMPDEST PUSH2 0x84E JUMP JUMPDEST PUSH2 0x826 JUMP JUMPDEST PUSH2 0x763 JUMP JUMPDEST PUSH2 0x703 JUMP JUMPDEST PUSH2 0x6E6 JUMP JUMPDEST PUSH2 0x610 JUMP JUMPDEST PUSH2 0x4BF JUMP JUMPDEST PUSH1 0x1 PUSH1 0x1 PUSH1 0xE0 SHL SUB NOT DUP2 AND SUB PUSH2 0x4BB JUMPI JUMP JUMPDEST PUSH0 DUP1 REVERT JUMPDEST CALLVALUE PUSH2 0x4BB JUMPI PUSH1 0x20 CALLDATASIZE PUSH1 0x3 NOT ADD SLT PUSH2 0x4BB JUMPI PUSH2 0x514 PUSH1 0x4 CALLDATALOAD PUSH2 0x4DF DUP2 PUSH2 0x4A9 JUMP JUMPDEST PUSH4 0xFFFFFFFF PUSH1 0xE0 SHL AND PUSH4 0xC487F47 PUSH1 0xE1 SHL DUP2 EQ SWAP1 DUP2 ISZERO PUSH2 0x5BD JUMPI JUMPDEST DUP2 ISZERO PUSH2 0x518 JUMPI JUMPDEST POP PUSH1 0x40 MLOAD SWAP1 ISZERO ISZERO DUP2 MSTORE SWAP1 DUP2 SWAP1 PUSH1 0x20 DUP3 ADD SWAP1 JUMP JUMPDEST SUB SWAP1 RETURN JUMPDEST PUSH4 0x152A902D PUSH1 0xE1 SHL DUP2 EQ SWAP2 POP DUP2 ISZERO PUSH2 0x5AC JUMPI JUMPDEST DUP2 ISZERO PUSH2 0x59B JUMPI JUMPDEST DUP2 ISZERO PUSH2 0x58A JUMPI JUMPDEST DUP2 ISZERO PUSH2 0x547 JUMPI JUMPDEST POP PUSH0 PUSH2 0x501 JUMP JUMPDEST PUSH4 0x1FFC9A7 PUSH1 0xE0 SHL DUP2 EQ SWAP2 POP DUP2 ISZERO PUSH2 0x579 JUMPI JUMPDEST DUP2 ISZERO PUSH2 0x568 JUMPI JUMPDEST POP PUSH0 PUSH2 0x540 JUMP JUMPDEST PUSH4 0x5B5E139F PUSH1 0xE0 SHL EQ SWAP1 POP PUSH0 PUSH2 0x561 JUMP JUMPDEST PUSH4 0x80AC58CD PUSH1 0xE0 SHL DUP2 EQ SWAP2 POP PUSH2 0x55A JUMP JUMPDEST PUSH4 0x24832483 PUSH1 0xE1 SHL DUP2 EQ SWAP2 POP PUSH2 0x539 JUMP JUMPDEST PUSH4 0x503E914D PUSH1 0xE1 SHL DUP2 EQ SWAP2 POP PUSH2 0x532 JUMP JUMPDEST PUSH4 0x2B435FDB PUSH1 0xE2 SHL DUP2 EQ SWAP2 POP PUSH2 0x52B JUMP JUMPDEST PUSH4 0x9C154415 PUSH1 0xE0 SHL DUP2 EQ SWAP2 POP PUSH2 0x4FA JUMP JUMPDEST PUSH0 SWAP2 SUB SLT PUSH2 0x4BB JUMPI JUMP JUMPDEST DUP1 MLOAD DUP1 DUP4 MSTORE PUSH1 0x20 SWAP3 SWAP2 DUP2 SWAP1 DUP5 ADD DUP5 DUP5 ADD MCOPY PUSH0 DUP3 DUP3 ADD DUP5 ADD MSTORE PUSH1 0x1F ADD PUSH1 0x1F NOT AND ADD ADD SWAP1 JUMP JUMPDEST SWAP1 PUSH1 0x20 PUSH2 0x60D SWAP3 DUP2 DUP2 MSTORE ADD SWAP1 PUSH2 0x5D8 JUMP JUMPDEST SWAP1 JUMP JUMPDEST CALLVALUE PUSH2 0x4BB JUMPI PUSH0 CALLDATASIZE PUSH1 0x3 NOT ADD SLT PUSH2 0x4BB JUMPI PUSH1 0x40 MLOAD PUSH0 PUSH1 0x2 SLOAD PUSH2 0x630 DUP2 PUSH2 0x33D5 JUMP JUMPDEST DUP1 DUP5 MSTORE SWAP1 PUSH1 0x1 DUP2 AND SWAP1 DUP2 ISZERO PUSH2 0x6C2 JUMPI POP PUSH1 0x1 EQ PUSH2 0x664 JUMPI JUMPDEST PUSH2 0x514 DUP4 PUSH2 0x658 DUP2 DUP6 SUB DUP3 PUSH2 0x101D JUMP JUMPDEST PUSH1 0x40 MLOAD SWAP2 DUP3 SWAP2 DUP3 PUSH2 0x5FC JUMP JUMPDEST PUSH1 0x2 PUSH0 SWAP1 DUP2 MSTORE PUSH32 0x405787FA12A823E0F2B7631CC41B3BA8828B3321CA811111FA75CD3AA3BB5ACE SWAP4 SWAP3 POP SWAP1 JUMPDEST DUP1 DUP3 LT PUSH2 0x6A8 JUMPI POP SWAP1 SWAP2 POP DUP2 ADD PUSH1 0x20 ADD PUSH2 0x658 PUSH2 0x648 JUMP JUMPDEST SWAP2 SWAP3 PUSH1 0x1 DUP2 PUSH1 0x20 SWAP3 SLOAD DUP4 DUP6 DUP9 ADD ADD MSTORE ADD SWAP2 ADD SWAP1 SWAP3 SWAP2 PUSH2 0x690 JUMP JUMPDEST PUSH1 0xFF NOT AND PUSH1 0x20 DUP1 DUP7 ADD SWAP2 SWAP1 SWAP2 MSTORE SWAP2 ISZERO ISZERO PUSH1 0x5 SHL DUP5 ADD SWAP1 SWAP2 ADD SWAP2 POP PUSH2 0x658 SWAP1 POP PUSH2 0x648 JUMP JUMPDEST CALLVALUE PUSH2 0x4BB JUMPI PUSH0 CALLDATASIZE PUSH1 0x3 NOT ADD SLT PUSH2 0x4BB JUMPI PUSH1 0x20 PUSH1 0x14 SLOAD PUSH1 0x40 MLOAD SWAP1 DUP2 MSTORE RETURN JUMPDEST CALLVALUE PUSH2 0x4BB JUMPI PUSH1 0x20 CALLDATASIZE PUSH1 0x3 NOT ADD SLT PUSH2 0x4BB JUMPI PUSH1 0x4 CALLDATALOAD PUSH2 0x720 DUP2 PUSH2 0x4992 JUMP JUMPDEST ISZERO PUSH2 0x743 JUMPI PUSH0 MSTORE PUSH1 0x6 PUSH1 0x20 MSTORE PUSH1 0x20 PUSH1 0x1 DUP1 PUSH1 0xA0 SHL SUB PUSH1 0x40 PUSH0 KECCAK256 SLOAD AND PUSH1 0x40 MLOAD SWAP1 DUP2 MSTORE RETURN JUMPDEST PUSH4 0x33D1C039 PUSH1 0xE2 SHL PUSH0 MSTORE PUSH1 0x4 PUSH0 REVERT JUMPDEST PUSH1 0x1 PUSH1 0x1 PUSH1 0xA0 SHL SUB DUP2 AND SUB PUSH2 0x4BB JUMPI JUMP JUMPDEST PUSH1 0x40 CALLDATASIZE PUSH1 0x3 NOT ADD SLT PUSH2 0x4BB JUMPI PUSH1 0x4 CALLDATALOAD PUSH2 0x77B DUP2 PUSH2 0x752 JUMP JUMPDEST PUSH1 0x24 CALLDATALOAD SWAP1 PUSH1 0xFF PUSH1 0x13 SLOAD AND PUSH2 0x817 JUMPI PUSH1 0x1 PUSH1 0x1 PUSH1 0xA0 SHL SUB PUSH2 0x79A DUP4 PUSH2 0x4A92 JUMP JUMPDEST AND SWAP1 DUP2 CALLER SUB PUSH2 0x7FA JUMPI JUMPDEST PUSH0 DUP4 DUP2 MSTORE PUSH1 0x6 PUSH1 0x20 MSTORE PUSH1 0x40 SWAP1 KECCAK256 DUP1 SLOAD PUSH1 0x1 PUSH1 0x1 PUSH1 0xA0 SHL SUB NOT AND PUSH1 0x1 PUSH1 0x1 PUSH1 0xA0 SHL SUB DUP4 AND OR SWAP1 SSTORE PUSH1 0x1 PUSH1 0x1 PUSH1 0xA0 SHL SUB AND SWAP1 PUSH32 0x8C5BE1E5EBEC7D5BD14F71427D1E84F3DD0314C0F7B2291E5B200AC8C7C3B925 PUSH0 DUP1 LOG4 STOP JUMPDEST PUSH2 0x804 CALLER DUP4 PUSH2 0x47FA JUMP JUMPDEST PUSH2 0x7A4 JUMPI PUSH4 0x67D9DCA1 PUSH1 0xE1 SHL PUSH0 MSTORE PUSH1 0x4 PUSH0 REVERT JUMPDEST PUSH4 0x6AB17E05 PUSH1 0xE0 SHL PUSH0 MSTORE PUSH1 0x4 PUSH0 REVERT JUMPDEST CALLVALUE PUSH2 0x4BB JUMPI PUSH0 CALLDATASIZE PUSH1 0x3 NOT ADD SLT PUSH2 0x4BB JUMPI PUSH1 0x9 SLOAD PUSH1 0x40 MLOAD PUSH1 0x1 PUSH1 0x1 PUSH1 0xA0 SHL SUB SWAP1 SWAP2 AND DUP2 MSTORE PUSH1 0x20 SWAP1 RETURN JUMPDEST CALLVALUE PUSH2 0x4BB JUMPI PUSH1 0x20 CALLDATASIZE PUSH1 0x3 NOT ADD SLT PUSH2 0x4BB JUMPI PUSH1 0x4 CALLDATALOAD PUSH2 0x86A PUSH2 0x4A26 JUMP JUMPDEST PUSH0 SLOAD PUSH0 NOT ADD PUSH2 0x8AC JUMPI PUSH1 0x40 PUSH32 0x7C22004198BF87DA0F0DAB623C72E66CA1200F4454AA3B9CA30F436275428B7C SWAP2 PUSH1 0xF SLOAD SWAP1 DUP1 PUSH1 0xF SSTORE DUP3 MLOAD SWAP2 DUP3 MSTORE PUSH1 0x20 DUP3 ADD MSTORE LOG1 STOP JUMPDEST PUSH4 0xE03264AF PUSH1 0xE0 SHL PUSH0 MSTORE PUSH1 0x4 PUSH0 REVERT JUMPDEST CALLVALUE PUSH2 0x4BB JUMPI PUSH0 CALLDATASIZE PUSH1 0x3 NOT ADD SLT PUSH2 0x4BB JUMPI PUSH1 0x40 DUP1 MLOAD PUSH4 0x657711F5 PUSH1 0xE1 SHL DUP2 MSTORE PUSH0 PUSH1 0x20 DUP3 ADD MSTORE RETURN JUMPDEST PUSH1 0x24 CALLDATALOAD SWAP1 DUP2 ISZERO ISZERO DUP3 SUB PUSH2 0x4BB JUMPI JUMP JUMPDEST CALLDATALOAD SWAP1 DUP2 ISZERO ISZERO DUP3 SUB PUSH2 0x4BB JUMPI JUMP JUMPDEST CALLVALUE PUSH2 0x4BB JUMPI PUSH1 0x20 CALLDATASIZE PUSH1 0x3 NOT ADD SLT PUSH2 0x4BB JUMPI PUSH1 0x4 CALLDATALOAD DUP1 ISZERO ISZERO DUP1 SWAP2 SUB PUSH2 0x4BB JUMPI PUSH1 0x20 PUSH32 0x867006957979DAA4AA88EB4157C1262555F712BC61EC3D0046C5A49A2C190B45 SWAP2 PUSH2 0x947 PUSH2 0x4A4D JUMP JUMPDEST PUSH1 0xFF NOT PUSH1 0x13 SLOAD AND PUSH1 0xFF DUP3 AND OR PUSH1 0x13 SSTORE PUSH1 0x40 MLOAD SWAP1 DUP2 MSTORE LOG1 STOP JUMPDEST CALLVALUE PUSH2 0x4BB JUMPI PUSH0 CALLDATASIZE PUSH1 0x3 NOT ADD SLT PUSH2 0x4BB JUMPI PUSH0 SLOAD PUSH1 0x1 SLOAD PUSH1 0x20 SWAP2 SUB PUSH0 NOT ADD JUMPDEST PUSH1 0x40 MLOAD SWAP1 DUP2 MSTORE RETURN JUMPDEST CALLVALUE PUSH2 0x4BB JUMPI PUSH0 PUSH1 0xE0 CALLDATASIZE PUSH1 0x3 NOT ADD SLT PUSH2 0x4BB JUMPI PUSH1 0x4 CALLDATALOAD PUSH2 0x9A2 DUP2 PUSH2 0x752 JUMP JUMPDEST PUSH1 0xC0 CALLDATASIZE PUSH1 0x23 NOT ADD SLT PUSH2 0x4BB JUMPI PUSH2 0x9B6 PUSH2 0x4A26 JUMP JUMPDEST PUSH2 0x9BF DUP2 PUSH2 0x4A61 JUMP JUMPDEST PUSH1 0x1 PUSH1 0x1 PUSH1 0xA0 SHL SUB AND DUP1 EXTCODESIZE ISZERO PUSH2 0x4BB JUMPI PUSH0 DUP1 SWAP2 PUSH1 0xC4 PUSH1 0x40 MLOAD DUP1 SWAP5 DUP2 SWAP4 PUSH4 0x1308E65 PUSH1 0xE0 SHL DUP4 MSTORE PUSH2 0x9F1 PUSH1 0x4 DUP5 ADD PUSH2 0x3793 JUMP JUMPDEST GAS CALL DUP1 ISZERO PUSH2 0xA0F JUMPI PUSH2 0xA01 JUMPI POP DUP1 RETURN JUMPDEST PUSH2 0xA0D SWAP2 POP PUSH0 SWAP1 PUSH2 0x101D JUMP JUMPDEST STOP JUMPDEST PUSH2 0x3821 JUMP JUMPDEST CALLVALUE PUSH2 0x4BB JUMPI PUSH0 CALLDATASIZE PUSH1 0x3 NOT ADD SLT PUSH2 0x4BB JUMPI PUSH1 0x20 PUSH1 0xFF PUSH1 0x16 SLOAD AND PUSH1 0x40 MLOAD SWAP1 ISZERO ISZERO DUP2 MSTORE RETURN JUMPDEST CALLVALUE PUSH2 0x4BB JUMPI PUSH0 CALLDATASIZE PUSH1 0x3 NOT ADD SLT PUSH2 0x4BB JUMPI PUSH2 0xA4E PUSH2 0x4A4D JUMP JUMPDEST PUSH1 0x1 PUSH1 0x1 PUSH1 0x60 SHL SUB PUSH1 0xA0 SHL PUSH1 0xB SLOAD AND PUSH1 0xB SSTORE PUSH32 0x11A3CF439FB225BFE74225716B6774765670EC1060E3796802E62139D69974DA PUSH1 0x20 PUSH1 0x40 MLOAD PUSH0 DUP2 MSTORE LOG1 STOP JUMPDEST PUSH1 0x60 SWAP1 PUSH1 0x3 NOT ADD SLT PUSH2 0x4BB JUMPI PUSH1 0x4 CALLDATALOAD PUSH2 0xAA4 DUP2 PUSH2 0x752 JUMP JUMPDEST SWAP1 PUSH1 0x24 CALLDATALOAD PUSH2 0xAB1 DUP2 PUSH2 0x752 JUMP JUMPDEST SWAP1 PUSH1 0x44 CALLDATALOAD SWAP1 JUMP JUMPDEST PUSH2 0xA0D PUSH2 0xAC4 CALLDATASIZE PUSH2 0xA8C JUMP JUMPDEST SWAP2 PUSH2 0x382C JUMP JUMPDEST CALLVALUE PUSH2 0x4BB JUMPI PUSH1 0x40 CALLDATASIZE PUSH1 0x3 NOT ADD SLT PUSH2 0x4BB JUMPI PUSH1 0x24 CALLDATALOAD PUSH1 0x10 SLOAD DUP1 PUSH1 0xA0 SHR SWAP2 DUP3 DUP2 MUL SWAP3 DUP2 DUP5 DIV EQ SWAP1 ISZERO OR ISZERO PUSH2 0xB14 JUMPI PUSH1 0x40 DUP1 MLOAD PUSH1 0x1 PUSH1 0x1 PUSH1 0xA0 SHL SUB SWAP1 SWAP3 AND DUP3 MSTORE PUSH2 0x2710 SWAP1 SWAP3 DIV PUSH1 0x20 DUP3 ADD MSTORE RETURN JUMPDEST PUSH2 0x399B JUMP JUMPDEST CALLVALUE PUSH2 0x4BB JUMPI PUSH0 PUSH1 0x40 CALLDATASIZE PUSH1 0x3 NOT ADD SLT PUSH2 0x4BB JUMPI PUSH1 0x4 CALLDATALOAD PUSH2 0xB37 DUP2 PUSH2 0x752 JUMP JUMPDEST PUSH1 0x24 CALLDATALOAD SWAP1 PUSH1 0x1 PUSH1 0x1 PUSH1 0x40 SHL SUB DUP3 GT PUSH2 0x4BB JUMPI PUSH1 0x60 PUSH1 0x3 NOT DUP4 CALLDATASIZE SUB ADD SLT PUSH2 0x4BB JUMPI PUSH2 0xB5F PUSH2 0x4A26 JUMP JUMPDEST PUSH2 0xB68 DUP2 PUSH2 0x4A61 JUMP JUMPDEST PUSH1 0x1 PUSH1 0x1 PUSH1 0xA0 SHL SUB AND DUP1 EXTCODESIZE ISZERO PUSH2 0x4BB JUMPI PUSH2 0xBA7 PUSH0 SWAP3 SWAP2 DUP4 SWAP3 PUSH1 0x40 MLOAD SWAP5 DUP6 DUP1 SWAP5 DUP2 SWAP4 PUSH4 0xEBB4A55F PUSH1 0xE0 SHL DUP4 MSTORE PUSH1 0x20 PUSH1 0x4 DUP5 ADD MSTORE PUSH1 0x24 DUP4 ADD SWAP1 PUSH1 0x4 ADD PUSH2 0x3A00 JUMP JUMPDEST SUB SWAP3 GAS CALL DUP1 ISZERO PUSH2 0xA0F JUMPI PUSH2 0xA01 JUMPI POP DUP1 RETURN JUMPDEST CALLVALUE PUSH2 0x4BB JUMPI PUSH0 CALLDATASIZE PUSH1 0x3 NOT ADD SLT PUSH2 0x4BB JUMPI PUSH1 0x20 PUSH1 0x10 SLOAD PUSH1 0xA0 SHR PUSH1 0x40 MLOAD SWAP1 DUP2 MSTORE RETURN JUMPDEST PUSH2 0xA0D PUSH2 0xBE5 CALLDATASIZE PUSH2 0xA8C JUMP JUMPDEST SWAP1 PUSH1 0x40 MLOAD SWAP3 PUSH2 0xBF5 PUSH1 0x20 DUP6 PUSH2 0x101D JUMP JUMPDEST PUSH0 DUP5 MSTORE PUSH2 0x43A1 JUMP JUMPDEST CALLVALUE PUSH2 0x4BB JUMPI PUSH1 0x20 CALLDATASIZE PUSH1 0x3 NOT ADD SLT PUSH2 0x4BB JUMPI PUSH1 0x4 CALLDATALOAD PUSH2 0xC1A DUP2 PUSH2 0x4A92 JUMP JUMPDEST PUSH0 DUP3 DUP2 MSTORE PUSH1 0x6 PUSH1 0x20 MSTORE PUSH1 0x40 SWAP1 KECCAK256 DUP1 SLOAD SWAP2 PUSH1 0x1 PUSH1 0x1 PUSH1 0xA0 SHL SUB DUP2 AND SWAP2 CALLER DUP1 DUP5 EQ SWAP1 DUP6 EQ OR ISZERO PUSH2 0xC47 JUMP JUMPDEST ISZERO SWAP1 JUMP JUMPDEST PUSH2 0xD47 JUMPI JUMPDEST PUSH0 SWAP4 PUSH2 0xC58 DUP7 DUP6 PUSH2 0x4AFD JUMP JUMPDEST PUSH2 0xD3E JUMPI JUMPDEST POP PUSH1 0x1 PUSH1 0x1 PUSH1 0xA0 SHL SUB DUP3 AND PUSH0 SWAP1 DUP2 MSTORE PUSH1 0x5 PUSH1 0x20 MSTORE PUSH1 0x40 SWAP1 KECCAK256 DUP1 SLOAD PUSH16 0xFFFFFFFFFFFFFFFFFFFFFFFFFFFFFFFF ADD SWAP1 SSTORE PUSH1 0x1 PUSH1 0x1 PUSH1 0xA0 SHL SUB DUP3 AND TIMESTAMP PUSH1 0xA0 SHL OR PUSH1 0x3 PUSH1 0xE0 SHL OR PUSH2 0xCB2 DUP6 PUSH0 MSTORE PUSH1 0x4 PUSH1 0x20 MSTORE PUSH1 0x40 PUSH0 KECCAK256 SWAP1 JUMP JUMPDEST SSTORE PUSH1 0x1 PUSH1 0xE1 SHL DUP2 AND ISZERO PUSH2 0xCF9 JUMPI JUMPDEST POP PUSH32 0xDDF252AD1BE2C89B69C2B068FC378DAA952BA7F163C4A11628F55A4DF523B3EF DUP3 DUP1 LOG4 PUSH2 0xA0D PUSH2 0xCF4 PUSH1 0x1 SLOAD PUSH1 0x1 ADD SWAP1 JUMP JUMPDEST PUSH1 0x1 SSTORE JUMP JUMPDEST PUSH1 0x1 DUP5 ADD PUSH2 0xD0F DUP2 PUSH0 MSTORE PUSH1 0x4 PUSH1 0x20 MSTORE PUSH1 0x40 PUSH0 KECCAK256 SWAP1 JUMP JUMPDEST SLOAD ISZERO PUSH2 0xD1C JUMPI JUMPDEST POP PUSH2 0xCC0 JUMP JUMPDEST DUP4 SLOAD DUP2 EQ PUSH2 0xD16 JUMPI PUSH2 0xD36 SWAP1 PUSH0 MSTORE PUSH1 0x4 PUSH1 0x20 MSTORE PUSH1 0x40 PUSH0 KECCAK256 SWAP1 JUMP JUMPDEST SSTORE PUSH0 DUP1 PUSH2 0xD16 JUMP JUMPDEST DUP4 SWAP1 SSTORE PUSH0 PUSH2 0xC5D JUMP JUMPDEST PUSH2 0xD54 PUSH2 0xC43 CALLER DUP6 PUSH2 0x47FA JUMP JUMPDEST ISZERO PUSH2 0xC4C JUMPI PUSH2 0x49DD JUMP JUMPDEST CALLVALUE PUSH2 0x4BB JUMPI PUSH1 0x40 CALLDATASIZE PUSH1 0x3 NOT ADD SLT PUSH2 0x4BB JUMPI PUSH2 0xD77 PUSH2 0x4A26 JUMP JUMPDEST PUSH1 0x4 CALLDATALOAD PUSH2 0xD83 DUP2 PUSH2 0x752 JUMP JUMPDEST PUSH1 0x1 PUSH1 0x1 PUSH1 0xA0 SHL SUB AND ISZERO PUSH2 0xE31 JUMPI PUSH2 0x2710 PUSH1 0x1 PUSH1 0x1 PUSH1 0x60 SHL SUB PUSH2 0xDA4 PUSH2 0x3AD5 JUMP JUMPDEST AND GT PUSH2 0xE0E JUMPI PUSH2 0xDB2 PUSH2 0x3AEB JUMP JUMPDEST PUSH32 0xF21FCCF4D64D86D532C4E4EB86C007B6AD57A460C27D724188625E755EC6CF6D PUSH2 0xDDB PUSH2 0x3ABF JUMP JUMPDEST PUSH2 0xDE3 PUSH2 0x3AD5 JUMP JUMPDEST PUSH1 0x40 DUP1 MLOAD PUSH1 0x1 PUSH1 0x1 PUSH1 0xA0 SHL SUB SWAP1 SWAP4 AND DUP4 MSTORE PUSH1 0x1 PUSH1 0x1 PUSH1 0x60 SHL SUB SWAP1 SWAP2 AND PUSH1 0x20 DUP4 ADD MSTORE DUP2 SWAP1 DUP2 ADD JUMPDEST SUB SWAP1 LOG1 STOP JUMPDEST PUSH1 0x1 PUSH1 0x1 PUSH1 0x60 SHL SUB PUSH2 0xE1E PUSH2 0x3AD5 JUMP JUMPDEST PUSH4 0x3CADBAFB PUSH1 0xE0 SHL PUSH0 MSTORE AND PUSH1 0x4 MSTORE PUSH1 0x24 PUSH0 REVERT JUMPDEST PUSH4 0x1CC0BAEF PUSH1 0xE0 SHL PUSH0 MSTORE PUSH1 0x4 PUSH0 REVERT JUMPDEST CALLVALUE PUSH2 0x4BB JUMPI PUSH0 CALLDATASIZE PUSH1 0x3 NOT ADD SLT PUSH2 0x4BB JUMPI PUSH1 0x20 PUSH1 0xFF PUSH1 0x13 SLOAD AND PUSH1 0x40 MLOAD SWAP1 ISZERO ISZERO DUP2 MSTORE RETURN JUMPDEST CALLVALUE PUSH2 0x4BB JUMPI PUSH1 0x40 CALLDATASIZE PUSH1 0x3 NOT ADD SLT PUSH2 0x4BB JUMPI PUSH1 0x4 CALLDATALOAD PUSH2 0xE7F DUP2 PUSH2 0x752 JUMP JUMPDEST PUSH1 0x24 CALLDATALOAD PUSH2 0xE8A PUSH2 0x4A4D JUMP JUMPDEST ADDRESS PUSH9 0x929EEE149B4BD21268 SLOAD EQ PUSH2 0xF16 JUMPI ADDRESS PUSH9 0x929EEE149B4BD21268 SSTORE PUSH1 0x13 SLOAD SWAP2 PUSH2 0xFFFF DUP4 PUSH1 0xA8 SHR AND DUP3 DUP2 LT PUSH2 0xF07 JUMPI PUSH2 0xFFFF DUP4 AND SWAP1 SUB SWAP3 PUSH2 0xFFFF DUP5 GT PUSH2 0xB14 JUMPI PUSH2 0xFFFF PUSH1 0xA8 SHL NOT AND PUSH1 0xA8 SWAP4 SWAP1 SWAP4 SHL PUSH2 0xFFFF PUSH1 0xA8 SHL AND SWAP3 SWAP1 SWAP3 OR PUSH1 0x13 SSTORE PUSH2 0xEF9 SWAP2 PUSH2 0xEF4 DUP3 PUSH2 0x4C74 JUMP JUMPDEST PUSH2 0x4CBA JUMP JUMPDEST CODESIZE PUSH9 0x929EEE149B4BD21268 SSTORE STOP JUMPDEST PUSH4 0x6514503 PUSH1 0xE5 SHL PUSH0 MSTORE PUSH1 0x4 PUSH0 REVERT JUMPDEST PUSH4 0xAB143C06 PUSH0 MSTORE PUSH1 0x4 PUSH1 0x1C REVERT JUMPDEST PUSH1 0x60 SWAP1 PUSH1 0x3 NOT ADD SLT PUSH2 0x4BB JUMPI PUSH1 0x4 CALLDATALOAD PUSH2 0xF3B DUP2 PUSH2 0x752 JUMP JUMPDEST SWAP1 PUSH1 0x24 CALLDATALOAD PUSH2 0xF48 DUP2 PUSH2 0x752 JUMP JUMPDEST SWAP1 PUSH1 0x44 CALLDATALOAD DUP1 ISZERO ISZERO DUP2 SUB PUSH2 0x4BB JUMPI SWAP1 JUMP JUMPDEST CALLVALUE PUSH2 0x4BB JUMPI PUSH2 0xF66 CALLDATASIZE PUSH2 0xF23 JUMP JUMPDEST SWAP1 SWAP2 PUSH2 0xF70 PUSH2 0x4A26 JUMP JUMPDEST PUSH2 0xF79 DUP2 PUSH2 0x4A61 JUMP JUMPDEST PUSH1 0x1 PUSH1 0x1 PUSH1 0xA0 SHL SUB AND SWAP2 DUP3 EXTCODESIZE ISZERO PUSH2 0x4BB JUMPI PUSH1 0x40 MLOAD PUSH4 0x8E7D1E43 PUSH1 0xE0 SHL DUP2 MSTORE PUSH1 0x1 PUSH1 0x1 PUSH1 0xA0 SHL SUB SWAP1 SWAP2 AND PUSH1 0x4 DUP3 ADD MSTORE SWAP1 ISZERO ISZERO PUSH1 0x24 DUP3 ADD MSTORE PUSH0 DUP2 PUSH1 0x44 DUP2 ADD JUMPDEST SWAP4 DUP2 DUP4 DUP2 DUP2 SWAP8 SUB SWAP3 GAS CALL DUP1 ISZERO PUSH2 0xA0F JUMPI PUSH2 0xA01 JUMPI POP DUP1 RETURN JUMPDEST PUSH4 0x4E487B71 PUSH1 0xE0 SHL PUSH0 MSTORE PUSH1 0x41 PUSH1 0x4 MSTORE PUSH1 0x24 PUSH0 REVERT JUMPDEST PUSH1 0xE0 DUP2 ADD SWAP1 DUP2 LT PUSH1 0x1 PUSH1 0x1 PUSH1 0x40 SHL SUB DUP3 GT OR PUSH2 0xFFD JUMPI PUSH1 0x40 MSTORE JUMP JUMPDEST PUSH2 0xFCE JUMP JUMPDEST PUSH1 0x60 DUP2 ADD SWAP1 DUP2 LT PUSH1 0x1 PUSH1 0x1 PUSH1 0x40 SHL SUB DUP3 GT OR PUSH2 0xFFD JUMPI PUSH1 0x40 MSTORE JUMP JUMPDEST SWAP1 PUSH1 0x1F DUP1 NOT SWAP2 ADD AND DUP2 ADD SWAP1 DUP2 LT PUSH1 0x1 PUSH1 0x1 PUSH1 0x40 SHL SUB DUP3 GT OR PUSH2 0xFFD JUMPI PUSH1 0x40 MSTORE JUMP JUMPDEST PUSH1 0x40 MLOAD SWAP1 PUSH2 0x104D PUSH1 0x60 DUP4 PUSH2 0x101D JUMP JUMPDEST JUMP JUMPDEST PUSH1 0x44 CALLDATALOAD SWAP1 PUSH1 0x1 PUSH1 0x1 PUSH1 0x50 SHL SUB DUP3 AND DUP3 SUB PUSH2 0x4BB JUMPI JUMP JUMPDEST CALLDATALOAD SWAP1 PUSH1 0x1 PUSH1 0x1 PUSH1 0x50 SHL SUB DUP3 AND DUP3 SUB PUSH2 0x4BB JUMPI JUMP JUMPDEST PUSH1 0x64 CALLDATALOAD SWAP1 PUSH3 0xFFFFFF DUP3 AND DUP3 SUB PUSH2 0x4BB JUMPI JUMP JUMPDEST CALLDATALOAD SWAP1 PUSH3 0xFFFFFF DUP3 AND DUP3 SUB PUSH2 0x4BB JUMPI JUMP JUMPDEST PUSH1 0x84 CALLDATALOAD SWAP1 PUSH5 0xFFFFFFFFFF DUP3 AND DUP3 SUB PUSH2 0x4BB JUMPI JUMP JUMPDEST PUSH1 0xA4 CALLDATALOAD SWAP1 PUSH5 0xFFFFFFFFFF DUP3 AND DUP3 SUB PUSH2 0x4BB JUMPI JUMP JUMPDEST PUSH1 0xC4 CALLDATALOAD SWAP1 PUSH5 0xFFFFFFFFFF DUP3 AND DUP3 SUB PUSH2 0x4BB JUMPI JUMP JUMPDEST CALLDATALOAD SWAP1 PUSH5 0xFFFFFFFFFF DUP3 AND DUP3 SUB PUSH2 0x4BB JUMPI JUMP JUMPDEST PUSH1 0xE4 CALLDATALOAD SWAP1 PUSH2 0xFFFF DUP3 AND DUP3 SUB PUSH2 0x4BB JUMPI JUMP JUMPDEST PUSH2 0x104 CALLDATALOAD SWAP1 PUSH2 0xFFFF DUP3 AND DUP3 SUB PUSH2 0x4BB JUMPI JUMP JUMPDEST CALLDATALOAD SWAP1 PUSH2 0xFFFF DUP3 AND DUP3 SUB PUSH2 0x4BB JUMPI JUMP JUMPDEST CALLVALUE PUSH2 0x4BB JUMPI PUSH2 0x120 CALLDATASIZE PUSH1 0x3 NOT ADD SLT PUSH2 0x4BB JUMPI PUSH1 0x4 CALLDATALOAD PUSH2 0x1139 DUP2 PUSH2 0x752 JUMP JUMPDEST PUSH1 0x24 CALLDATALOAD SWAP1 PUSH2 0x1146 DUP3 PUSH2 0x752 JUMP JUMPDEST PUSH1 0xE0 CALLDATASIZE PUSH1 0x43 NOT ADD SLT PUSH2 0x4BB JUMPI PUSH2 0xA0D SWAP2 PUSH1 0x40 MLOAD SWAP2 PUSH2 0x1163 DUP4 PUSH2 0xFE2 JUMP JUMPDEST PUSH2 0x116B PUSH2 0x104F JUMP JUMPDEST DUP4 MSTORE PUSH2 0x1175 PUSH2 0x1079 JUMP JUMPDEST PUSH1 0x20 DUP5 ADD MSTORE PUSH2 0x1182 PUSH2 0x109B JUMP JUMPDEST PUSH1 0x40 DUP5 ADD MSTORE PUSH2 0x118F PUSH2 0x10AF JUMP JUMPDEST PUSH1 0x60 DUP5 ADD MSTORE PUSH2 0x119C PUSH2 0x10C3 JUMP JUMPDEST PUSH1 0x80 DUP5 ADD MSTORE PUSH2 0x11A9 PUSH2 0x10E9 JUMP JUMPDEST PUSH1 0xA0 DUP5 ADD MSTORE PUSH2 0x11B6 PUSH2 0x10FA JUMP JUMPDEST PUSH1 0xC0 DUP5 ADD MSTORE PUSH2 0x3BC1 JUMP JUMPDEST SWAP2 DUP2 PUSH1 0x1F DUP5 ADD SLT ISZERO PUSH2 0x4BB JUMPI DUP3 CALLDATALOAD SWAP2 PUSH1 0x1 PUSH1 0x1 PUSH1 0x40 SHL SUB DUP4 GT PUSH2 0x4BB JUMPI PUSH1 0x20 DUP4 DUP2 DUP7 ADD SWAP6 ADD ADD GT PUSH2 0x4BB JUMPI JUMP JUMPDEST PUSH1 0x20 PUSH1 0x3 NOT DUP3 ADD SLT PUSH2 0x4BB JUMPI PUSH1 0x4 CALLDATALOAD SWAP1 PUSH1 0x1 PUSH1 0x1 PUSH1 0x40 SHL SUB DUP3 GT PUSH2 0x4BB JUMPI PUSH2 0x1217 SWAP2 PUSH1 0x4 ADD PUSH2 0x11C0 JUMP JUMPDEST SWAP1 SWAP2 JUMP JUMPDEST CALLVALUE PUSH2 0x4BB JUMPI PUSH2 0x1229 CALLDATASIZE PUSH2 0x11ED JUMP JUMPDEST PUSH2 0x1231 PUSH2 0x4A26 JUMP JUMPDEST PUSH1 0x1 PUSH1 0x1 PUSH1 0x40 SHL SUB DUP2 GT PUSH2 0xFFD JUMPI PUSH2 0x1253 DUP2 PUSH2 0x124E PUSH1 0xD SLOAD PUSH2 0x33D5 JUMP JUMPDEST PUSH2 0x3C50 JUMP JUMPDEST PUSH0 PUSH1 0x1F DUP3 GT PUSH1 0x1 EQ PUSH2 0x12D3 JUMPI DUP2 SWAP1 PUSH2 0x1280 SWAP4 PUSH0 SWAP3 PUSH2 0x12C8 JUMPI JUMPDEST POP POP DUP2 PUSH1 0x1 SHL SWAP2 PUSH0 NOT SWAP1 PUSH1 0x3 SHL SHR NOT AND OR SWAP1 JUMP JUMPDEST PUSH1 0xD SSTORE JUMPDEST PUSH0 SLOAD PUSH1 0x1 SLOAD SWAP1 SUB PUSH0 NOT ADD JUMPDEST PUSH2 0x1295 JUMPI STOP JUMPDEST PUSH0 MLOAD PUSH1 0x20 PUSH2 0x5823 PUSH0 CODECOPY PUSH0 MLOAD SWAP1 PUSH0 MSTORE PUSH2 0xE09 PUSH2 0x12B0 PUSH0 SLOAD PUSH2 0x3D5D JUMP JUMPDEST PUSH1 0x40 MLOAD SWAP2 DUP3 SWAP2 DUP3 SWAP2 SWAP1 PUSH1 0x20 PUSH1 0x40 DUP5 ADD SWAP4 PUSH1 0x1 DUP2 MSTORE ADD MSTORE JUMP JUMPDEST ADD CALLDATALOAD SWAP1 POP PUSH0 DUP1 PUSH2 0x126C JUMP JUMPDEST PUSH1 0xD PUSH0 MSTORE PUSH1 0x1F NOT DUP3 AND SWAP3 PUSH32 0xD7B6990105719101DABEB77144F2A3385C8033ACD3AF97E9423A695E81AD1EB5 SWAP2 PUSH0 JUMPDEST DUP6 DUP2 LT PUSH2 0x133A JUMPI POP DUP4 PUSH1 0x1 SWAP6 LT PUSH2 0x1321 JUMPI JUMPDEST POP POP POP DUP2 SHL ADD PUSH1 0xD SSTORE PUSH2 0x1284 JUMP JUMPDEST ADD CALLDATALOAD PUSH0 NOT PUSH1 0x3 DUP5 SWAP1 SHL PUSH1 0xF8 AND SHR NOT AND SWAP1 SSTORE PUSH0 DUP1 DUP1 PUSH2 0x1313 JUMP JUMPDEST SWAP1 SWAP3 PUSH1 0x20 PUSH1 0x1 DUP2 SWAP3 DUP7 DUP7 ADD CALLDATALOAD DUP2 SSTORE ADD SWAP5 ADD SWAP2 ADD PUSH2 0x1301 JUMP JUMPDEST CALLVALUE PUSH2 0x4BB JUMPI PUSH1 0x20 CALLDATASIZE PUSH1 0x3 NOT ADD SLT PUSH2 0x4BB JUMPI PUSH1 0x4 CALLDATALOAD PUSH2 0x136F DUP2 PUSH2 0x752 JUMP JUMPDEST PUSH2 0x1377 PUSH2 0x4A4D JUMP JUMPDEST PUSH1 0x13 DUP1 SLOAD PUSH2 0x100 PUSH1 0x1 PUSH1 0xA8 SHL SUB NOT AND PUSH1 0x8 SWAP3 SWAP1 SWAP3 SHL PUSH2 0x100 PUSH1 0x1 PUSH1 0xA8 SHL SUB AND SWAP2 SWAP1 SWAP2 OR SWAP1 SSTORE PUSH0 SLOAD PUSH1 0x1 SLOAD SWAP1 SUB PUSH0 NOT ADD PUSH2 0x13AC JUMPI STOP JUMPDEST PUSH0 SLOAD PUSH0 NOT DUP2 ADD SWAP1 DUP2 GT PUSH2 0xB14 JUMPI PUSH1 0x40 PUSH0 MLOAD PUSH1 0x20 PUSH2 0x5823 PUSH0 CODECOPY PUSH0 MLOAD SWAP1 PUSH0 MSTORE SWAP2 DUP2 MLOAD SWAP1 PUSH1 0x1 DUP3 MSTORE PUSH1 0x20 DUP3 ADD MSTORE LOG1 STOP JUMPDEST CALLVALUE PUSH2 0x4BB JUMPI PUSH0 CALLDATASIZE PUSH1 0x3 NOT ADD SLT PUSH2 0x4BB JUMPI PUSH1 0x20 PUSH2 0xFFFF PUSH1 0x13 SLOAD PUSH1 0xA8 SHR AND PUSH1 0x40 MLOAD SWAP1 DUP2 MSTORE RETURN JUMPDEST SWAP1 PUSH1 0x20 PUSH1 0x3 NOT DUP4 ADD SLT PUSH2 0x4BB JUMPI PUSH1 0x4 CALLDATALOAD PUSH1 0x1 PUSH1 0x1 PUSH1 0x40 SHL SUB DUP2 GT PUSH2 0x4BB JUMPI PUSH1 0x4 ADD DUP3 PUSH1 0x1F DUP3 ADD SLT ISZERO PUSH2 0x4BB JUMPI DUP1 CALLDATALOAD SWAP3 PUSH1 0x1 PUSH1 0x1 PUSH1 0x40 SHL SUB DUP5 GT PUSH2 0x4BB JUMPI PUSH1 0x20 DUP1 DUP4 ADD SWAP3 DUP6 PUSH1 0x5 SHL ADD ADD GT PUSH2 0x4BB JUMPI SWAP2 SWAP1 JUMP JUMPDEST CALLVALUE PUSH2 0x4BB JUMPI PUSH2 0x145D CALLDATASIZE PUSH2 0x13FD JUMP JUMPDEST SWAP1 PUSH1 0x40 MLOAD SWAP2 DUP1 DUP4 MSTORE PUSH1 0x5 SHL PUSH1 0x20 DUP2 DUP5 ADD ADD PUSH1 0x40 MSTORE JUMPDEST DUP1 DUP2 DUP1 ISZERO PUSH2 0x1498 JUMPI PUSH1 0x1F NOT SWAP1 DUP2 ADD SWAP3 PUSH2 0x148F SWAP2 SWAP1 DUP6 ADD ADD CALLDATALOAD PUSH2 0x4416 JUMP JUMPDEST SWAP1 DUP5 ADD MSTORE PUSH2 0x1472 JUMP JUMPDEST DUP5 PUSH1 0x40 MLOAD DUP1 SWAP2 PUSH1 0x20 DUP3 ADD PUSH1 0x20 DUP4 MSTORE DUP2 MLOAD DUP1 SWAP2 MSTORE PUSH1 0x20 PUSH1 0x40 DUP5 ADD SWAP3 ADD SWAP1 PUSH0 JUMPDEST DUP2 DUP2 LT PUSH2 0x14C4 JUMPI POP POP POP SUB SWAP1 RETURN JUMPDEST SWAP2 SWAP4 POP SWAP2 PUSH1 0x20 PUSH1 0x80 DUP3 PUSH2 0x1510 PUSH1 0x1 SWAP5 DUP9 MLOAD PUSH3 0xFFFFFF PUSH1 0x60 DUP1 SWAP3 PUSH1 0x1 DUP1 PUSH1 0xA0 SHL SUB DUP2 MLOAD AND DUP6 MSTORE PUSH1 0x1 PUSH1 0x1 PUSH1 0x40 SHL SUB PUSH1 0x20 DUP3 ADD MLOAD AND PUSH1 0x20 DUP7 ADD MSTORE PUSH1 0x40 DUP2 ADD MLOAD ISZERO ISZERO PUSH1 0x40 DUP7 ADD MSTORE ADD MLOAD AND SWAP2 ADD MSTORE JUMP JUMPDEST ADD SWAP5 ADD SWAP2 ADD SWAP2 DUP5 SWAP4 SWAP3 PUSH2 0x14B6 JUMP JUMPDEST CALLVALUE PUSH2 0x4BB JUMPI PUSH2 0x152C CALLDATASIZE PUSH2 0x13FD JUMP JUMPDEST PUSH2 0x1534 PUSH2 0x4A4D JUMP JUMPDEST PUSH1 0x12 SLOAD PUSH0 JUMPDEST DUP2 DUP2 LT PUSH2 0x15CF JUMPI POP POP PUSH0 JUMPDEST DUP2 DUP2 LT PUSH2 0x1587 JUMPI POP DUP2 PUSH2 0x1578 DUP3 PUSH32 0xBBD3B69C138DE4D317D0BC4290282C4E1CBD1E58B579A5B4F114B598C237454D SWAP5 PUSH2 0x4DDF JUMP JUMPDEST PUSH2 0xE09 PUSH1 0x40 MLOAD SWAP3 DUP4 SWAP3 DUP4 PUSH2 0x4E7A JUMP JUMPDEST DUP1 PUSH2 0x15C9 PUSH2 0x15BC PUSH2 0x15A3 PUSH2 0x159E PUSH1 0x1 SWAP6 DUP8 DUP10 PUSH2 0x4008 JUMP JUMPDEST PUSH2 0x3ACB JUMP JUMPDEST PUSH1 0x1 PUSH1 0x1 PUSH1 0xA0 SHL SUB AND PUSH0 SWAP1 DUP2 MSTORE PUSH1 0x11 PUSH1 0x20 MSTORE PUSH1 0x40 SWAP1 KECCAK256 SWAP1 JUMP JUMPDEST DUP1 SLOAD PUSH1 0xFF NOT AND PUSH1 0x1 OR SWAP1 SSTORE JUMP JUMPDEST ADD PUSH2 0x1544 JUMP JUMPDEST PUSH1 0x12 SLOAD DUP2 LT ISZERO PUSH2 0x162B JUMPI PUSH1 0x12 PUSH0 MSTORE PUSH32 0xBB8A6A4669BA250D26CD7A459ECA9D215F8307E33AEBE50379BC5A3617EC3444 DUP2 ADD SLOAD PUSH1 0x1 SWAP2 SWAP1 PUSH2 0x1625 SWAP1 PUSH2 0x161B SWAP1 PUSH1 0x1 PUSH1 0x1 PUSH1 0xA0 SHL SUB AND PUSH2 0x15A3 JUMP JUMPDEST DUP1 SLOAD PUSH1 0xFF NOT AND SWAP1 SSTORE JUMP JUMPDEST ADD PUSH2 0x1539 JUMP JUMPDEST PUSH2 0x3FF4 JUMP JUMPDEST CALLVALUE PUSH2 0x4BB JUMPI PUSH1 0x20 CALLDATASIZE PUSH1 0x3 NOT ADD SLT PUSH2 0x4BB JUMPI PUSH1 0x20 PUSH1 0x1 PUSH1 0x1 PUSH1 0xA0 SHL SUB PUSH2 0x1656 PUSH1 0x4 CALLDATALOAD PUSH2 0x4A92 JUMP JUMPDEST AND PUSH1 0x40 MLOAD SWAP1 DUP2 MSTORE RETURN JUMPDEST CALLVALUE PUSH2 0x4BB JUMPI PUSH1 0x40 CALLDATASIZE PUSH1 0x3 NOT ADD SLT PUSH2 0x4BB JUMPI PUSH1 0x4 CALLDATALOAD PUSH2 0x167C DUP2 PUSH2 0x752 JUMP JUMPDEST PUSH1 0x24 CALLDATALOAD ADDRESS PUSH9 0x929EEE149B4BD21268 SLOAD EQ PUSH2 0xF16 JUMPI ADDRESS PUSH9 0x929EEE149B4BD21268 SSTORE PUSH2 0x16A5 CALLER PUSH2 0x4A61 JUMP JUMPDEST PUSH0 SLOAD PUSH0 NOT ADD SWAP2 DUP2 DUP4 ADD DUP1 SWAP4 GT PUSH2 0xB14 JUMPI PUSH1 0xC SLOAD DUP1 SWAP4 GT PUSH2 0x16C9 JUMPI PUSH2 0xEF9 SWAP3 POP PUSH2 0x4CBA JUMP JUMPDEST POP PUSH0 SLOAD PUSH0 NOT ADD SWAP1 DUP2 ADD DUP1 SWAP2 GT PUSH2 0xB14 JUMPI PUSH4 0x384B48C5 PUSH1 0xE2 SHL PUSH0 MSTORE PUSH1 0x4 MSTORE PUSH1 0x24 MSTORE PUSH1 0x44 PUSH0 REVERT JUMPDEST CALLVALUE PUSH2 0x4BB JUMPI PUSH0 CALLDATASIZE PUSH1 0x3 NOT ADD SLT PUSH2 0x4BB JUMPI PUSH2 0x1706 PUSH2 0x4A4D JUMP JUMPDEST PUSH1 0x16 DUP1 SLOAD PUSH1 0xFF NOT AND PUSH1 0x1 OR SWAP1 SSTORE STOP JUMPDEST PUSH1 0x40 SWAP1 PUSH1 0x3 NOT ADD SLT PUSH2 0x4BB JUMPI PUSH1 0x4 CALLDATALOAD PUSH2 0x172D DUP2 PUSH2 0x752 JUMP JUMPDEST SWAP1 PUSH1 0x24 CALLDATALOAD PUSH2 0x60D DUP2 PUSH2 0x752 JUMP JUMPDEST CALLVALUE PUSH2 0x4BB JUMPI PUSH2 0x1748 CALLDATASIZE PUSH2 0x1715 JUMP JUMPDEST SWAP1 PUSH2 0x1751 PUSH2 0x4A26 JUMP JUMPDEST PUSH2 0x175A DUP2 PUSH2 0x4A61 JUMP JUMPDEST PUSH1 0x1 PUSH1 0x1 PUSH1 0xA0 SHL SUB AND DUP1 EXTCODESIZE ISZERO PUSH2 0x4BB JUMPI PUSH1 0x40 MLOAD PUSH4 0x24E71B7 PUSH1 0xE3 SHL DUP2 MSTORE PUSH1 0x1 PUSH1 0x1 PUSH1 0xA0 SHL SUB SWAP1 SWAP3 AND PUSH1 0x4 DUP4 ADD MSTORE PUSH0 SWAP2 SWAP1 DUP3 SWAP1 DUP3 SWAP1 PUSH1 0x24 SWAP1 DUP3 SWAP1 DUP5 SWAP1 GAS CALL DUP1 ISZERO PUSH2 0xA0F JUMPI PUSH2 0xA01 JUMPI POP DUP1 RETURN JUMPDEST CALLVALUE PUSH2 0x4BB JUMPI PUSH0 CALLDATASIZE PUSH1 0x3 NOT ADD SLT PUSH2 0x4BB JUMPI PUSH1 0x40 MLOAD PUSH0 PUSH1 0xD SLOAD PUSH2 0x17C5 DUP2 PUSH2 0x33D5 JUMP JUMPDEST DUP1 DUP5 MSTORE SWAP1 PUSH1 0x1 DUP2 AND SWAP1 DUP2 ISZERO PUSH2 0x6C2 JUMPI POP PUSH1 0x1 EQ PUSH2 0x17EC JUMPI PUSH2 0x514 DUP4 PUSH2 0x658 DUP2 DUP6 SUB DUP3 PUSH2 0x101D JUMP JUMPDEST PUSH1 0xD PUSH0 SWAP1 DUP2 MSTORE PUSH32 0xD7B6990105719101DABEB77144F2A3385C8033ACD3AF97E9423A695E81AD1EB5 SWAP4 SWAP3 POP SWAP1 JUMPDEST DUP1 DUP3 LT PUSH2 0x1830 JUMPI POP SWAP1 SWAP2 POP DUP2 ADD PUSH1 0x20 ADD PUSH2 0x658 PUSH2 0x648 JUMP JUMPDEST SWAP2 SWAP3 PUSH1 0x1 DUP2 PUSH1 0x20 SWAP3 SLOAD DUP4 DUP6 DUP9 ADD ADD MSTORE ADD SWAP2 ADD SWAP1 SWAP3 SWAP2 PUSH2 0x1818 JUMP JUMPDEST CALLVALUE PUSH2 0x4BB JUMPI PUSH1 0x20 CALLDATASIZE PUSH1 0x3 NOT ADD SLT PUSH2 0x4BB JUMPI PUSH1 0x4 CALLDATALOAD PUSH2 0x1866 PUSH2 0x4A26 JUMP JUMPDEST PUSH1 0x1 PUSH1 0x1 PUSH1 0x40 SHL SUB DUP2 GT PUSH2 0x18CB JUMPI PUSH0 SLOAD PUSH0 NOT ADD DUP2 LT PUSH2 0x18B0 JUMPI PUSH1 0x20 DUP2 PUSH32 0x7810BD47DE260C3E9EE10061CF438099DD12256C79485F12F94DBCCC981E806C SWAP3 PUSH1 0xC SSTORE PUSH1 0x40 MLOAD SWAP1 DUP2 MSTORE LOG1 STOP JUMPDEST PUSH0 SLOAD PUSH0 NOT ADD SWAP1 PUSH4 0x8C19F1F9 PUSH1 0xE0 SHL PUSH0 MSTORE PUSH1 0x4 MSTORE PUSH1 0x24 MSTORE PUSH1 0x44 PUSH0 REVERT JUMPDEST PUSH4 0xB43E9137 PUSH1 0xE0 SHL PUSH0 MSTORE PUSH1 0x4 MSTORE PUSH1 0x24 PUSH0 REVERT JUMPDEST CALLVALUE PUSH2 0x4BB JUMPI PUSH1 0x20 CALLDATASIZE PUSH1 0x3 NOT ADD SLT PUSH2 0x4BB JUMPI PUSH1 0x20 PUSH2 0x97C PUSH1 0x4 CALLDATALOAD PUSH2 0x18FF DUP2 PUSH2 0x752 JUMP JUMPDEST PUSH2 0x3D6B JUMP JUMPDEST CALLVALUE PUSH2 0x4BB JUMPI PUSH0 CALLDATASIZE PUSH1 0x3 NOT ADD SLT PUSH2 0x4BB JUMPI PUSH2 0x191C PUSH2 0x4A4D JUMP JUMPDEST PUSH1 0xA DUP1 SLOAD PUSH1 0x1 PUSH1 0x1 PUSH1 0xA0 SHL SUB NOT DUP2 AND SWAP1 SWAP2 SSTORE PUSH0 SWAP1 PUSH1 0x1 PUSH1 0x1 PUSH1 0xA0 SHL SUB AND PUSH32 0x8BE0079C531659141344CD1FD0A4F28419497F9722A3DAAFE3B4186F6B6457E0 DUP3 DUP1 LOG3 STOP JUMPDEST CALLVALUE PUSH2 0x4BB JUMPI PUSH1 0x40 CALLDATASIZE PUSH1 0x3 NOT ADD SLT PUSH2 0x4BB JUMPI PUSH1 0x4 CALLDATALOAD PUSH1 0x24 CALLDATALOAD PUSH2 0x197E PUSH2 0x4A4D JUMP JUMPDEST PUSH1 0xFF PUSH1 0x16 SLOAD PUSH1 0x10 SHR AND PUSH2 0x1A51 JUMPI PUSH1 0x40 MLOAD PUSH2 0x19BA DUP2 PUSH2 0x19AC PUSH1 0x20 DUP3 ADD SWAP5 DUP7 DUP7 SWAP1 SWAP2 PUSH1 0x40 SWAP3 DUP3 MSTORE PUSH1 0x20 DUP3 ADD MSTORE ADD SWAP1 JUMP JUMPDEST SUB PUSH1 0x1F NOT DUP2 ADD DUP4 MSTORE DUP3 PUSH2 0x101D JUMP JUMPDEST MLOAD SWAP1 KECCAK256 PUSH32 0x0 SUB PUSH2 0x1A42 JUMPI PUSH2 0xE09 DUP2 PUSH2 0x1A11 PUSH32 0x6C2137E80722ED4B518B32EA50ECB69EF2C76F0451088A3C0AA79CE523BAB514 SWAP4 PUSH1 0x15 SSTORE JUMP JUMPDEST PUSH2 0x1A27 PUSH3 0x10000 PUSH1 0x16 SLOAD PUSH3 0xFF0000 NOT AND OR PUSH1 0x16 SSTORE JUMP JUMPDEST PUSH2 0x1A32 PUSH1 0xC SLOAD PUSH2 0x4EC1 JUMP JUMPDEST PUSH1 0x40 MLOAD SWAP1 DUP2 MSTORE SWAP1 DUP2 SWAP1 PUSH1 0x20 DUP3 ADD SWAP1 JUMP JUMPDEST PUSH4 0x3BDFC859 PUSH1 0xE1 SHL PUSH0 MSTORE PUSH1 0x4 PUSH0 REVERT JUMPDEST PUSH4 0x1104D353 PUSH1 0xE1 SHL PUSH0 MSTORE PUSH1 0x4 PUSH0 REVERT JUMPDEST CALLVALUE PUSH2 0x4BB JUMPI PUSH0 CALLDATASIZE PUSH1 0x3 NOT ADD SLT PUSH2 0x4BB JUMPI PUSH1 0x20 PUSH1 0xFF PUSH1 0x16 SLOAD PUSH1 0x10 SHR AND PUSH1 0x40 MLOAD SWAP1 ISZERO ISZERO DUP2 MSTORE RETURN JUMPDEST CALLVALUE PUSH2 0x4BB JUMPI PUSH0 CALLDATASIZE PUSH1 0x3 NOT ADD SLT PUSH2 0x4BB JUMPI PUSH1 0xB SLOAD PUSH1 0x1 PUSH1 0x1 PUSH1 0xA0 SHL SUB DUP2 AND SWAP1 CALLER DUP3 SWAP1 SUB PUSH2 0x1B27 JUMPI PUSH1 0x1 PUSH1 0x1 PUSH1 0x60 SHL SUB PUSH1 0xA0 SHL AND PUSH1 0xB SSTORE PUSH32 0x11A3CF439FB225BFE74225716B6774765670EC1060E3796802E62139D69974DA PUSH1 0x20 PUSH1 0x40 MLOAD PUSH0 DUP2 MSTORE LOG1 PUSH1 0xA DUP1 SLOAD PUSH1 0x1 PUSH1 0x1 PUSH1 0xA0 SHL SUB NOT DUP2 AND DUP4 OR SWAP1 SWAP2 SSTORE PUSH1 0x1 PUSH1 0x1 PUSH1 0xA0 SHL SUB AND PUSH32 0x8BE0079C531659141344CD1FD0A4F28419497F9722A3DAAFE3B4186F6B6457E0 PUSH0 DUP1 LOG3 STOP JUMPDEST PUSH4 0x6B7584E7 PUSH1 0xE1 SHL PUSH0 MSTORE PUSH1 0x4 PUSH0 REVERT JUMPDEST CALLVALUE PUSH2 0x4BB JUMPI PUSH0 PUSH1 0x40 CALLDATASIZE PUSH1 0x3 NOT ADD SLT PUSH2 0x4BB JUMPI PUSH1 0x4 CALLDATALOAD PUSH2 0x1B54 DUP2 PUSH2 0x752 JUMP JUMPDEST PUSH1 0x24 CALLDATALOAD PUSH1 0x1 PUSH1 0x1 PUSH1 0x40 SHL SUB DUP2 GT PUSH2 0x4BB JUMPI PUSH2 0x1B73 SWAP1 CALLDATASIZE SWAP1 PUSH1 0x4 ADD PUSH2 0x11C0 JUMP JUMPDEST SWAP2 PUSH2 0x1B7C PUSH2 0x4A26 JUMP JUMPDEST PUSH2 0x1B85 DUP2 PUSH2 0x4A61 JUMP JUMPDEST PUSH1 0x1 PUSH1 0x1 PUSH1 0xA0 SHL SUB AND SWAP2 DUP3 EXTCODESIZE ISZERO PUSH2 0x4BB JUMPI PUSH2 0xBA7 SWAP3 PUSH0 SWAP3 DUP4 PUSH1 0x40 MLOAD DUP1 SWAP7 DUP2 SWAP6 DUP3 SWAP5 PUSH4 0xB957D0CB PUSH1 0xE0 SHL DUP5 MSTORE PUSH1 0x4 DUP5 ADD PUSH2 0x3DA1 JUMP JUMPDEST CALLVALUE PUSH2 0x4BB JUMPI PUSH0 PUSH2 0x140 CALLDATASIZE PUSH1 0x3 NOT ADD SLT PUSH2 0x4BB JUMPI PUSH1 0x4 CALLDATALOAD PUSH2 0x1BD8 DUP2 PUSH2 0x752 JUMP JUMPDEST PUSH1 0x24 CALLDATALOAD SWAP1 PUSH2 0x1BE5 DUP3 PUSH2 0x752 JUMP JUMPDEST PUSH2 0x100 CALLDATASIZE PUSH1 0x43 NOT ADD SLT PUSH2 0x4BB JUMPI PUSH2 0x1BFA PUSH2 0x4A26 JUMP JUMPDEST PUSH2 0x1C03 DUP2 PUSH2 0x4A61 JUMP JUMPDEST PUSH1 0x1 PUSH1 0x1 PUSH1 0xA0 SHL SUB AND SWAP1 DUP2 EXTCODESIZE ISZERO PUSH2 0x4BB JUMPI PUSH1 0x40 MLOAD PUSH4 0x7ECD5915 PUSH1 0xE1 SHL DUP2 MSTORE PUSH1 0x1 PUSH1 0x1 PUSH1 0xA0 SHL SUB SWAP1 SWAP2 AND PUSH1 0x4 DUP3 ADD MSTORE SWAP1 PUSH0 SWAP1 DUP3 SWAP1 PUSH2 0x124 SWAP1 DUP3 SWAP1 DUP5 SWAP1 PUSH2 0x9F1 PUSH1 0x24 DUP5 ADD PUSH2 0x3DD1 JUMP JUMPDEST CALLVALUE PUSH2 0x4BB JUMPI PUSH1 0x20 CALLDATASIZE PUSH1 0x3 NOT ADD SLT PUSH2 0x4BB JUMPI PUSH1 0x4 CALLDATALOAD PUSH2 0x1C67 DUP2 PUSH2 0x752 JUMP JUMPDEST PUSH1 0x1 DUP1 PUSH1 0xA0 SHL SUB AND PUSH0 MSTORE PUSH1 0x5 PUSH1 0x20 MSTORE PUSH1 0x60 PUSH1 0x1 PUSH1 0x1 PUSH1 0x40 SHL SUB PUSH1 0x40 PUSH0 KECCAK256 SLOAD PUSH1 0x40 SHR AND PUSH0 NOT PUSH0 SLOAD ADD PUSH1 0xC SLOAD SWAP1 PUSH1 0x40 MLOAD SWAP3 DUP4 MSTORE PUSH1 0x20 DUP4 ADD MSTORE PUSH1 0x40 DUP3 ADD MSTORE RETURN JUMPDEST PUSH1 0x20 PUSH1 0x40 DUP2 DUP4 ADD SWAP3 DUP3 DUP2 MSTORE DUP5 MLOAD DUP1 SWAP5 MSTORE ADD SWAP3 ADD SWAP1 PUSH0 JUMPDEST DUP2 DUP2 LT PUSH2 0x1CC7 JUMPI POP POP POP SWAP1 JUMP JUMPDEST DUP3 MLOAD DUP5 MSTORE PUSH1 0x20 SWAP4 DUP5 ADD SWAP4 SWAP1 SWAP3 ADD SWAP2 PUSH1 0x1 ADD PUSH2 0x1CBA JUMP JUMPDEST CALLVALUE PUSH2 0x4BB JUMPI PUSH1 0x20 CALLDATASIZE PUSH1 0x3 NOT ADD SLT PUSH2 0x4BB JUMPI PUSH1 0x4 CALLDATALOAD PUSH2 0x1CFA DUP2 PUSH2 0x752 JUMP JUMPDEST PUSH0 SLOAD PUSH1 0x60 SWAP1 DUP1 PUSH1 0x1 SUB PUSH2 0x1D16 JUMPI JUMPDEST PUSH1 0x40 MLOAD DUP1 PUSH2 0x514 DUP5 DUP3 PUSH2 0x1CA4 JUMP JUMPDEST SWAP1 DUP2 SWAP3 PUSH1 0x1 SWAP1 PUSH1 0x60 SWAP4 DUP1 DUP4 LT ISZERO PUSH2 0x1E6C JUMPI PUSH0 SLOAD DUP1 SWAP2 LT ISZERO PUSH2 0x1E64 JUMPI JUMPDEST POP PUSH2 0x1D3C DUP2 PUSH2 0x3D6B JUMP JUMPDEST SWAP3 DUP6 DUP4 LT ISZERO PUSH2 0x1E5C JUMPI JUMPDEST DUP4 PUSH2 0x1D5B JUMPI JUMPDEST POP POP POP POP PUSH2 0x514 SWAP2 POP PUSH0 PUSH2 0x1D08 JUMP JUMPDEST SWAP3 SWAP4 POP SWAP1 SWAP2 PUSH0 NOT DUP6 ADD DUP5 DUP2 GT ISZERO PUSH2 0x1E54 JUMPI JUMPDEST POP PUSH1 0x40 MLOAD SWAP2 DUP4 DUP6 ADD PUSH1 0x5 SHL DUP4 ADD SWAP5 DUP6 PUSH1 0x40 MSTORE PUSH2 0x1D88 DUP6 PUSH2 0x4416 JUMP JUMPDEST SWAP1 PUSH0 SWAP2 PUSH2 0x1D9B PUSH2 0xC43 PUSH1 0x40 DUP4 ADD MLOAD ISZERO ISZERO SWAP1 JUMP JUMPDEST PUSH2 0x1E42 JUMPI JUMPDEST POP PUSH0 SWAP8 SWAP2 SWAP6 SWAP2 DUP3 JUMPDEST ISZERO PUSH2 0x1E13 JUMPI JUMPDEST PUSH0 SWAP7 PUSH2 0x1DB9 DUP5 PUSH2 0x505B JUMP JUMPDEST PUSH1 0x40 DUP2 ADD MLOAD ISZERO PUSH2 0x1DD8 JUMPI POP POP PUSH1 0x1 PUSH0 SWAP4 JUMPDEST ADD SWAP7 DUP9 PUSH1 0x40 MSTORE SWAP7 SWAP3 SWAP7 PUSH2 0x1DA8 JUMP JUMPDEST SWAP4 SWAP1 SWAP4 MLOAD DUP1 PUSH2 0x1E0B JUMPI JUMPDEST POP DUP5 DUP5 XOR DUP7 SHL ISZERO PUSH2 0x1DF6 JUMPI JUMPDEST PUSH1 0x1 SWAP1 PUSH2 0x1DCA JUMP JUMPDEST PUSH1 0x1 SWAP1 SWAP10 ADD PUSH1 0x5 DUP2 SWAP1 SHL DUP8 ADD DUP11 SWAP1 MSTORE SWAP9 PUSH2 0x1DEE JUMP JUMPDEST SWAP4 POP PUSH0 PUSH2 0x1DE2 JUMP JUMPDEST DUP1 DUP4 EQ DUP1 ISZERO PUSH2 0x1E39 JUMPI JUMPDEST ISZERO PUSH2 0x1DAE JUMPI POP POP POP POP POP SWAP2 POP POP PUSH2 0x514 SWAP2 DUP2 MSTORE PUSH0 DUP1 DUP1 DUP1 PUSH2 0x1D4C JUMP JUMPDEST POP DUP2 DUP10 EQ PUSH2 0x1E1D JUMP JUMPDEST MLOAD PUSH1 0x1 PUSH1 0x1 PUSH1 0xA0 SHL SUB AND SWAP2 POP PUSH0 PUSH2 0x1DA0 JUMP JUMPDEST SWAP4 POP PUSH0 PUSH2 0x1D6D JUMP JUMPDEST PUSH0 SWAP4 POP PUSH2 0x1D46 JUMP JUMPDEST SWAP5 POP PUSH0 PUSH2 0x1D32 JUMP JUMPDEST PUSH4 0x1960CCAD PUSH1 0xE1 SHL PUSH0 MSTORE PUSH1 0x4 PUSH0 REVERT JUMPDEST CALLVALUE PUSH2 0x4BB JUMPI PUSH1 0x40 CALLDATASIZE PUSH1 0x3 NOT ADD SLT PUSH2 0x4BB JUMPI PUSH1 0x4 CALLDATALOAD PUSH1 0x24 CALLDATALOAD PUSH2 0x1E9A PUSH2 0x4A4D JUMP JUMPDEST PUSH1 0x16 SLOAD PUSH1 0x8 SHR PUSH1 0xFF AND PUSH2 0x1F54 JUMPI PUSH1 0x40 MLOAD PUSH2 0x1EC8 DUP2 PUSH2 0x19AC PUSH1 0x20 DUP3 ADD SWAP5 DUP7 DUP7 SWAP1 SWAP2 PUSH1 0x40 SWAP3 DUP3 MSTORE PUSH1 0x20 DUP3 ADD MSTORE ADD SWAP1 JUMP JUMPDEST MLOAD SWAP1 KECCAK256 PUSH32 0x0 SUB PUSH2 0x1F45 JUMPI PUSH2 0x1F33 DUP2 PUSH2 0x1F1F PUSH32 0x7BCCB191591B7E41B276DF97EBF2CBB27E85E20FA7DB7D336D3A9738021466F SWAP4 PUSH1 0x14 SSTORE JUMP JUMPDEST PUSH2 0x1A32 PUSH2 0x100 PUSH2 0xFF00 NOT PUSH1 0x16 SLOAD AND OR PUSH1 0x16 SSTORE JUMP JUMPDEST SUB SWAP1 LOG1 PUSH0 SLOAD PUSH1 0x1 SLOAD SWAP1 SUB PUSH0 NOT ADD PUSH2 0x128F JUMP JUMPDEST PUSH4 0x148BB881 PUSH1 0xE3 SHL PUSH0 MSTORE PUSH1 0x4 PUSH0 REVERT JUMPDEST PUSH4 0x18ED71CD PUSH1 0xE0 SHL PUSH0 MSTORE PUSH1 0x4 PUSH0 REVERT JUMPDEST CALLVALUE PUSH2 0x4BB JUMPI PUSH0 CALLDATASIZE PUSH1 0x3 NOT ADD SLT PUSH2 0x4BB JUMPI PUSH1 0x13 SLOAD PUSH1 0x40 MLOAD PUSH1 0x8 SWAP2 SWAP1 SWAP2 SHR PUSH1 0x1 PUSH1 0x1 PUSH1 0xA0 SHL SUB AND DUP2 MSTORE PUSH1 0x20 SWAP1 RETURN JUMPDEST CALLVALUE PUSH2 0x4BB JUMPI PUSH0 CALLDATASIZE PUSH1 0x3 NOT ADD SLT PUSH2 0x4BB JUMPI PUSH1 0xA SLOAD PUSH1 0x40 MLOAD PUSH1 0x1 PUSH1 0x1 PUSH1 0xA0 SHL SUB SWAP1 SWAP2 AND DUP2 MSTORE PUSH1 0x20 SWAP1 RETURN JUMPDEST CALLVALUE PUSH2 0x4BB JUMPI PUSH1 0x20 CALLDATASIZE PUSH1 0x3 NOT ADD SLT PUSH2 0x4BB JUMPI PUSH1 0x4 CALLDATALOAD PUSH1 0x1 PUSH1 0x1 PUSH1 0x40 SHL SUB DUP2 GT PUSH2 0x4BB JUMPI DUP1 PUSH1 0x4 ADD SWAP1 PUSH2 0x300 PUSH1 0x3 NOT DUP3 CALLDATASIZE SUB ADD SLT PUSH2 0x4BB JUMPI PUSH2 0x1FF5 PUSH2 0x4A4D JUMP JUMPDEST DUP2 CALLDATALOAD DUP1 PUSH2 0x2987 JUMPI JUMPDEST POP PUSH1 0x24 DUP2 ADD PUSH2 0x200C DUP2 DUP5 PUSH2 0x3E93 JUMP JUMPDEST SWAP1 POP PUSH2 0x292E JUMPI JUMPDEST POP PUSH1 0x44 DUP2 ADD PUSH2 0x2022 DUP2 DUP5 PUSH2 0x3E93 JUMP JUMPDEST SWAP1 POP PUSH2 0x28D5 JUMPI JUMPDEST POP PUSH1 0x1 PUSH6 0xFFFFFFFFFFFF PUSH2 0x203F PUSH1 0xA4 DUP5 ADD PUSH2 0x3EC5 JUMP JUMPDEST AND ISZERO ISZERO PUSH2 0x205C PUSH2 0x2051 PUSH1 0xC4 DUP6 ADD PUSH2 0x3EC5 JUMP JUMPDEST PUSH6 0xFFFFFFFFFFFF AND SWAP1 JUMP JUMPDEST ISZERO ISZERO OR EQ PUSH2 0x2873 JUMPI JUMPDEST PUSH2 0x144 DUP2 ADD PUSH2 0x2074 DUP2 DUP5 PUSH2 0x3E93 JUMP JUMPDEST SWAP1 POP PUSH2 0x280F JUMPI JUMPDEST POP PUSH2 0x164 DUP2 ADD PUSH2 0x208B DUP2 DUP5 PUSH2 0x3F88 JUMP JUMPDEST CALLDATALOAD PUSH2 0x27AA JUMPI JUMPDEST POP PUSH2 0x184 DUP2 ADD PUSH1 0x1 PUSH1 0x1 PUSH1 0xA0 SHL SUB PUSH2 0x20A8 DUP3 PUSH2 0x3ACB JUMP JUMPDEST AND PUSH2 0x2741 JUMPI JUMPDEST POP PUSH2 0x1A4 DUP2 ADD CALLDATALOAD DUP1 PUSH2 0x26FD JUMPI JUMPDEST POP PUSH2 0x1C4 DUP2 ADD PUSH2 0x20CB DUP2 DUP5 PUSH2 0x3FBF JUMP JUMPDEST SWAP1 POP PUSH2 0x265A JUMPI JUMPDEST POP PUSH2 0x1E4 DUP2 ADD PUSH2 0x20E2 DUP2 DUP5 PUSH2 0x3FBF JUMP JUMPDEST SWAP1 POP PUSH2 0x25B7 JUMPI JUMPDEST POP PUSH2 0x204 DUP2 ADD PUSH2 0x20F9 DUP2 DUP5 PUSH2 0x3FBF JUMP JUMPDEST SWAP1 POP PUSH2 0x2514 JUMPI JUMPDEST POP PUSH2 0x224 DUP2 ADD PUSH2 0x2110 DUP2 DUP5 PUSH2 0x3FBF JUMP JUMPDEST SWAP1 POP PUSH2 0x2471 JUMPI JUMPDEST POP PUSH2 0x264 DUP2 ADD PUSH2 0x2127 DUP2 DUP5 PUSH2 0x4018 JUMP JUMPDEST SWAP1 POP PUSH2 0x2393 JUMPI JUMPDEST POP PUSH2 0x284 DUP2 ADD PUSH2 0x213E DUP2 DUP5 PUSH2 0x3FBF JUMP JUMPDEST SWAP1 POP PUSH2 0x22F4 JUMPI JUMPDEST POP PUSH2 0x2C4 DUP2 ADD PUSH2 0x2155 DUP2 DUP5 PUSH2 0x4236 JUMP JUMPDEST SWAP1 POP PUSH2 0x2216 JUMPI JUMPDEST POP PUSH2 0x2E4 DUP2 ADD SWAP2 PUSH2 0x216D DUP4 DUP3 PUSH2 0x3FBF JUMP JUMPDEST SWAP1 POP PUSH2 0x2175 JUMPI STOP JUMPDEST PUSH1 0x64 PUSH0 SWAP4 SWAP3 ADD SWAP3 JUMPDEST PUSH2 0x2187 DUP4 DUP4 PUSH2 0x3FBF JUMP JUMPDEST SWAP1 POP DUP2 LT ISZERO PUSH2 0xA0D JUMPI PUSH2 0x2198 PUSH2 0x4343 JUMP JUMPDEST SWAP1 PUSH2 0x21A2 DUP6 PUSH2 0x3ACB JUMP JUMPDEST PUSH2 0x21B9 PUSH2 0x159E DUP4 PUSH2 0x21B3 DUP9 DUP9 PUSH2 0x3FBF JUMP JUMPDEST SWAP1 PUSH2 0x4008 JUMP JUMPDEST ADDRESS EXTCODESIZE ISZERO PUSH2 0x4BB JUMPI PUSH0 SWAP2 PUSH2 0x21E0 PUSH1 0x40 MLOAD SWAP6 DUP7 SWAP4 DUP5 SWAP4 PUSH4 0x1446A991 PUSH1 0xE2 SHL DUP6 MSTORE PUSH1 0x4 DUP6 ADD PUSH2 0x4379 JUMP JUMPDEST SUB DUP2 DUP4 ADDRESS GAS CALL SWAP2 DUP3 ISZERO PUSH2 0xA0F JUMPI PUSH1 0x1 SWAP3 PUSH2 0x21FC JUMPI JUMPDEST POP ADD PUSH2 0x217D JUMP JUMPDEST DUP1 PUSH2 0x220A PUSH0 PUSH2 0x2210 SWAP4 PUSH2 0x101D JUMP JUMPDEST DUP1 PUSH2 0x5CE JUMP JUMPDEST PUSH0 PUSH2 0x21F5 JUMP JUMPDEST PUSH2 0x2220 DUP2 DUP5 PUSH2 0x4236 JUMP JUMPDEST PUSH2 0x2A4 DUP5 ADD SWAP3 SWAP2 POP PUSH2 0x2232 DUP4 DUP7 PUSH2 0x3FBF JUMP JUMPDEST SWAP2 SWAP1 POP SUB PUSH2 0x22E5 JUMPI PUSH1 0x64 DUP4 ADD PUSH0 JUMPDEST PUSH2 0x224A DUP4 DUP8 PUSH2 0x4236 JUMP JUMPDEST SWAP1 POP DUP2 LT ISZERO PUSH2 0x22DB JUMPI PUSH2 0x225C DUP3 PUSH2 0x3ACB JUMP JUMPDEST SWAP1 PUSH2 0x226E PUSH2 0x159E DUP3 PUSH2 0x21B3 DUP9 DUP12 PUSH2 0x3FBF JUMP JUMPDEST SWAP2 PUSH2 0x2283 DUP3 PUSH2 0x227D DUP8 DUP12 PUSH2 0x4236 JUMP JUMPDEST SWAP1 PUSH2 0x426B JUMP JUMPDEST SWAP3 ADDRESS EXTCODESIZE ISZERO PUSH2 0x4BB JUMPI PUSH0 SWAP2 PUSH2 0x22AB PUSH1 0x40 MLOAD SWAP6 DUP7 SWAP4 DUP5 SWAP4 PUSH4 0x1446A991 PUSH1 0xE2 SHL DUP6 MSTORE PUSH1 0x4 DUP6 ADD PUSH2 0x427B JUMP JUMPDEST SUB DUP2 DUP4 ADDRESS GAS CALL SWAP2 DUP3 ISZERO PUSH2 0xA0F JUMPI PUSH1 0x1 SWAP3 PUSH2 0x22C7 JUMPI JUMPDEST POP ADD PUSH2 0x2240 JUMP JUMPDEST DUP1 PUSH2 0x220A PUSH0 PUSH2 0x22D5 SWAP4 PUSH2 0x101D JUMP JUMPDEST PUSH0 PUSH2 0x22C0 JUMP JUMPDEST POP POP POP POP PUSH0 PUSH2 0x215C JUMP JUMPDEST PUSH4 0x74EF6DF7 PUSH1 0xE0 SHL PUSH0 MSTORE PUSH1 0x4 PUSH0 REVERT JUMPDEST PUSH1 0x64 DUP3 ADD SWAP3 SWAP1 PUSH0 JUMPDEST PUSH2 0x2306 DUP3 DUP5 PUSH2 0x3FBF JUMP JUMPDEST SWAP1 POP DUP2 LT ISZERO PUSH2 0x2389 JUMPI PUSH2 0x2317 PUSH2 0x4142 JUMP JUMPDEST SWAP1 PUSH2 0x2321 DUP7 PUSH2 0x3ACB JUMP JUMPDEST PUSH2 0x2332 PUSH2 0x159E DUP4 PUSH2 0x21B3 DUP8 DUP10 PUSH2 0x3FBF JUMP JUMPDEST ADDRESS EXTCODESIZE ISZERO PUSH2 0x4BB JUMPI PUSH0 SWAP2 PUSH2 0x2359 PUSH1 0x40 MLOAD SWAP6 DUP7 SWAP4 DUP5 SWAP4 PUSH4 0x3DE15F3B PUSH1 0xE1 SHL DUP6 MSTORE PUSH1 0x4 DUP6 ADD PUSH2 0x418F JUMP JUMPDEST SUB DUP2 DUP4 ADDRESS GAS CALL SWAP2 DUP3 ISZERO PUSH2 0xA0F JUMPI PUSH1 0x1 SWAP3 PUSH2 0x2375 JUMPI JUMPDEST POP ADD PUSH2 0x22FC JUMP JUMPDEST DUP1 PUSH2 0x220A PUSH0 PUSH2 0x2383 SWAP4 PUSH2 0x101D JUMP JUMPDEST PUSH0 PUSH2 0x236E JUMP JUMPDEST POP POP SWAP2 POP PUSH0 PUSH2 0x2145 JUMP JUMPDEST PUSH2 0x239D DUP2 DUP5 PUSH2 0x4018 JUMP JUMPDEST PUSH2 0x244 DUP5 ADD SWAP3 SWAP2 POP PUSH2 0x23AF DUP4 DUP7 PUSH2 0x3FBF JUMP JUMPDEST SWAP2 SWAP1 POP SUB PUSH2 0x2462 JUMPI PUSH1 0x64 DUP4 ADD PUSH0 JUMPDEST PUSH2 0x23C7 DUP4 DUP8 PUSH2 0x4018 JUMP JUMPDEST SWAP1 POP DUP2 LT ISZERO PUSH2 0x2458 JUMPI PUSH2 0x23D9 DUP3 PUSH2 0x3ACB JUMP JUMPDEST SWAP1 PUSH2 0x23EB PUSH2 0x159E DUP3 PUSH2 0x21B3 DUP9 DUP12 PUSH2 0x3FBF JUMP JUMPDEST SWAP2 PUSH2 0x2400 DUP3 PUSH2 0x23FA DUP8 DUP12 PUSH2 0x4018 JUMP JUMPDEST SWAP1 PUSH2 0x404D JUMP JUMPDEST SWAP3 ADDRESS EXTCODESIZE ISZERO PUSH2 0x4BB JUMPI PUSH0 SWAP2 PUSH2 0x2428 PUSH1 0x40 MLOAD SWAP6 DUP7 SWAP4 DUP5 SWAP4 PUSH4 0x3DE15F3B PUSH1 0xE1 SHL DUP6 MSTORE PUSH1 0x4 DUP6 ADD PUSH2 0x405D JUMP JUMPDEST SUB DUP2 DUP4 ADDRESS GAS CALL SWAP2 DUP3 ISZERO PUSH2 0xA0F JUMPI PUSH1 0x1 SWAP3 PUSH2 0x2444 JUMPI JUMPDEST POP ADD PUSH2 0x23BD JUMP JUMPDEST DUP1 PUSH2 0x220A PUSH0 PUSH2 0x2452 SWAP4 PUSH2 0x101D JUMP JUMPDEST PUSH0 PUSH2 0x243D JUMP JUMPDEST POP POP POP POP PUSH0 PUSH2 0x212E JUMP JUMPDEST PUSH4 0xB81AA639 PUSH1 0xE0 SHL PUSH0 MSTORE PUSH1 0x4 PUSH0 REVERT JUMPDEST PUSH1 0x64 DUP3 ADD PUSH0 JUMPDEST PUSH2 0x2481 DUP4 DUP7 PUSH2 0x3FBF JUMP JUMPDEST SWAP1 POP DUP2 LT ISZERO PUSH2 0x250B JUMPI PUSH2 0x2493 DUP3 PUSH2 0x3ACB JUMP JUMPDEST SWAP1 PUSH2 0x24A5 PUSH2 0x159E DUP3 PUSH2 0x21B3 DUP8 DUP11 PUSH2 0x3FBF JUMP JUMPDEST SWAP2 ADDRESS EXTCODESIZE ISZERO PUSH2 0x4BB JUMPI PUSH1 0x40 MLOAD PUSH4 0x196E8775 PUSH1 0xE3 SHL DUP2 MSTORE PUSH1 0x1 PUSH1 0x1 PUSH1 0xA0 SHL SUB SWAP2 DUP3 AND PUSH1 0x4 DUP3 ADD MSTORE SWAP3 AND PUSH1 0x24 DUP4 ADD MSTORE PUSH0 PUSH1 0x44 DUP4 ADD DUP2 SWAP1 MSTORE DUP3 PUSH1 0x64 DUP2 DUP4 ADDRESS GAS CALL SWAP2 DUP3 ISZERO PUSH2 0xA0F JUMPI PUSH1 0x1 SWAP3 PUSH2 0x24F7 JUMPI JUMPDEST POP ADD PUSH2 0x2477 JUMP JUMPDEST DUP1 PUSH2 0x220A PUSH0 PUSH2 0x2505 SWAP4 PUSH2 0x101D JUMP JUMPDEST PUSH0 PUSH2 0x24F0 JUMP JUMPDEST POP POP POP PUSH0 PUSH2 0x2117 JUMP JUMPDEST PUSH1 0x64 DUP3 ADD PUSH0 JUMPDEST PUSH2 0x2524 DUP4 DUP7 PUSH2 0x3FBF JUMP JUMPDEST SWAP1 POP DUP2 LT ISZERO PUSH2 0x25AE JUMPI PUSH2 0x2536 DUP3 PUSH2 0x3ACB JUMP JUMPDEST SWAP1 PUSH2 0x2548 PUSH2 0x159E DUP3 PUSH2 0x21B3 DUP8 DUP11 PUSH2 0x3FBF JUMP JUMPDEST SWAP2 ADDRESS EXTCODESIZE ISZERO PUSH2 0x4BB JUMPI PUSH1 0x40 MLOAD PUSH4 0x196E8775 PUSH1 0xE3 SHL DUP2 MSTORE PUSH1 0x1 PUSH1 0x1 PUSH1 0xA0 SHL SUB SWAP2 DUP3 AND PUSH1 0x4 DUP3 ADD MSTORE SWAP3 AND PUSH1 0x24 DUP4 ADD MSTORE PUSH1 0x1 PUSH1 0x44 DUP4 ADD MSTORE PUSH0 DUP3 PUSH1 0x64 DUP2 DUP4 ADDRESS GAS CALL SWAP2 DUP3 ISZERO PUSH2 0xA0F JUMPI PUSH1 0x1 SWAP3 PUSH2 0x259A JUMPI JUMPDEST POP ADD PUSH2 0x251A JUMP JUMPDEST DUP1 PUSH2 0x220A PUSH0 PUSH2 0x25A8 SWAP4 PUSH2 0x101D JUMP JUMPDEST PUSH0 PUSH2 0x2593 JUMP JUMPDEST POP POP POP PUSH0 PUSH2 0x2100 JUMP JUMPDEST PUSH1 0x64 DUP3 ADD PUSH0 JUMPDEST PUSH2 0x25C7 DUP4 DUP7 PUSH2 0x3FBF JUMP JUMPDEST SWAP1 POP DUP2 LT ISZERO PUSH2 0x2651 JUMPI PUSH2 0x25D9 DUP3 PUSH2 0x3ACB JUMP JUMPDEST SWAP1 PUSH2 0x25EB PUSH2 0x159E DUP3 PUSH2 0x21B3 DUP8 DUP11 PUSH2 0x3FBF JUMP JUMPDEST SWAP2 ADDRESS EXTCODESIZE ISZERO PUSH2 0x4BB JUMPI PUSH1 0x40 MLOAD PUSH4 0x48A4C101 PUSH1 0xE0 SHL DUP2 MSTORE PUSH1 0x1 PUSH1 0x1 PUSH1 0xA0 SHL SUB SWAP2 DUP3 AND PUSH1 0x4 DUP3 ADD MSTORE SWAP3 AND PUSH1 0x24 DUP4 ADD MSTORE PUSH0 PUSH1 0x44 DUP4 ADD DUP2 SWAP1 MSTORE DUP3 PUSH1 0x64 DUP2 DUP4 ADDRESS GAS CALL SWAP2 DUP3 ISZERO PUSH2 0xA0F JUMPI PUSH1 0x1 SWAP3 PUSH2 0x263D JUMPI JUMPDEST POP ADD PUSH2 0x25BD JUMP JUMPDEST DUP1 PUSH2 0x220A PUSH0 PUSH2 0x264B SWAP4 PUSH2 0x101D JUMP JUMPDEST PUSH0 PUSH2 0x2636 JUMP JUMPDEST POP POP POP PUSH0 PUSH2 0x20E9 JUMP JUMPDEST PUSH1 0x64 DUP3 ADD PUSH0 JUMPDEST PUSH2 0x266A DUP4 DUP7 PUSH2 0x3FBF JUMP JUMPDEST SWAP1 POP DUP2 LT ISZERO PUSH2 0x26F4 JUMPI PUSH2 0x267C DUP3 PUSH2 0x3ACB JUMP JUMPDEST SWAP1 PUSH2 0x268E PUSH2 0x159E DUP3 PUSH2 0x21B3 DUP8 DUP11 PUSH2 0x3FBF JUMP JUMPDEST SWAP2 ADDRESS EXTCODESIZE ISZERO PUSH2 0x4BB JUMPI PUSH1 0x40 MLOAD PUSH4 0x48A4C101 PUSH1 0xE0 SHL DUP2 MSTORE PUSH1 0x1 PUSH1 0x1 PUSH1 0xA0 SHL SUB SWAP2 DUP3 AND PUSH1 0x4 DUP3 ADD MSTORE SWAP3 AND PUSH1 0x24 DUP4 ADD MSTORE PUSH1 0x1 PUSH1 0x44 DUP4 ADD MSTORE PUSH0 DUP3 PUSH1 0x64 DUP2 DUP4 ADDRESS GAS CALL SWAP2 DUP3 ISZERO PUSH2 0xA0F JUMPI PUSH1 0x1 SWAP3 PUSH2 0x26E0 JUMPI JUMPDEST POP ADD PUSH2 0x2660 JUMP JUMPDEST DUP1 PUSH2 0x220A PUSH0 PUSH2 0x26EE SWAP4 PUSH2 0x101D JUMP JUMPDEST PUSH0 PUSH2 0x26D9 JUMP JUMPDEST POP POP POP PUSH0 PUSH2 0x20D2 JUMP JUMPDEST ADDRESS EXTCODESIZE ISZERO PUSH2 0x4BB JUMPI PUSH1 0x40 MLOAD PUSH4 0x4CDB5FD PUSH1 0xE1 SHL DUP2 MSTORE PUSH1 0x4 DUP2 ADD SWAP2 SWAP1 SWAP2 MSTORE PUSH0 DUP2 PUSH1 0x24 DUP2 DUP4 ADDRESS GAS CALL DUP1 ISZERO PUSH2 0xA0F JUMPI ISZERO PUSH2 0x20BB JUMPI DUP1 PUSH2 0x220A PUSH0 PUSH2 0x273B SWAP4 PUSH2 0x101D JUMP JUMPDEST PUSH0 PUSH2 0x20BB JUMP JUMPDEST PUSH2 0x2756 PUSH2 0x2750 PUSH1 0x64 DUP5 ADD PUSH2 0x3ACB JUMP JUMPDEST SWAP2 PUSH2 0x3ACB JUMP JUMPDEST SWAP1 ADDRESS EXTCODESIZE ISZERO PUSH2 0x4BB JUMPI PUSH1 0x40 MLOAD PUSH4 0x66251B69 PUSH1 0xE0 SHL DUP2 MSTORE PUSH1 0x1 PUSH1 0x1 PUSH1 0xA0 SHL SUB SWAP2 DUP3 AND PUSH1 0x4 DUP3 ADD MSTORE SWAP2 AND PUSH1 0x24 DUP3 ADD MSTORE PUSH0 DUP2 PUSH1 0x44 DUP2 DUP4 ADDRESS GAS CALL DUP1 ISZERO PUSH2 0xA0F JUMPI ISZERO PUSH2 0x20AE JUMPI DUP1 PUSH2 0x220A PUSH0 PUSH2 0x27A4 SWAP4 PUSH2 0x101D JUMP JUMPDEST PUSH0 PUSH2 0x20AE JUMP JUMPDEST PUSH2 0x27C0 PUSH2 0x27B9 PUSH1 0x64 DUP5 ADD PUSH2 0x3ACB JUMP JUMPDEST SWAP2 DUP5 PUSH2 0x3F88 JUMP JUMPDEST SWAP1 ADDRESS EXTCODESIZE ISZERO PUSH2 0x4BB JUMPI PUSH1 0x40 MLOAD PUSH4 0x3680620D PUSH1 0xE0 SHL DUP2 MSTORE SWAP2 PUSH0 SWAP2 DUP4 SWAP2 DUP3 SWAP2 PUSH2 0x27EA SWAP2 SWAP1 PUSH1 0x4 DUP5 ADD PUSH2 0x3F9D JUMP JUMPDEST SUB DUP2 DUP4 ADDRESS GAS CALL DUP1 ISZERO PUSH2 0xA0F JUMPI ISZERO PUSH2 0x2091 JUMPI DUP1 PUSH2 0x220A PUSH0 PUSH2 0x2809 SWAP4 PUSH2 0x101D JUMP JUMPDEST PUSH0 PUSH2 0x2091 JUMP JUMPDEST PUSH2 0x2825 PUSH2 0x281E PUSH1 0x64 DUP5 ADD PUSH2 0x3ACB JUMP JUMPDEST SWAP2 DUP5 PUSH2 0x3E93 JUMP JUMPDEST SWAP2 SWAP1 ADDRESS EXTCODESIZE ISZERO PUSH2 0x4BB JUMPI PUSH0 SWAP2 PUSH2 0x284E PUSH1 0x40 MLOAD SWAP5 DUP6 SWAP4 DUP5 SWAP4 PUSH4 0x3D02DE41 PUSH1 0xE1 SHL DUP6 MSTORE PUSH1 0x4 DUP6 ADD PUSH2 0x3F66 JUMP JUMPDEST SUB DUP2 DUP4 ADDRESS GAS CALL DUP1 ISZERO PUSH2 0xA0F JUMPI ISZERO PUSH2 0x207B JUMPI DUP1 PUSH2 0x220A PUSH0 PUSH2 0x286D SWAP4 PUSH2 0x101D JUMP JUMPDEST PUSH0 PUSH2 0x207B JUMP JUMPDEST PUSH2 0x287F PUSH1 0x64 DUP3 ADD PUSH2 0x3ACB JUMP JUMPDEST ADDRESS EXTCODESIZE ISZERO PUSH2 0x4BB JUMPI PUSH0 PUSH2 0x28AA SWAP2 PUSH1 0x40 MLOAD DUP1 SWAP4 DUP2 SWAP3 PUSH4 0x6DCD64F PUSH1 0xE2 SHL DUP4 MSTORE PUSH1 0x84 DUP8 ADD SWAP1 PUSH1 0x4 DUP5 ADD PUSH2 0x3ECF JUMP JUMPDEST SUB DUP2 DUP4 ADDRESS GAS CALL DUP1 ISZERO PUSH2 0xA0F JUMPI PUSH2 0x28C1 JUMPI JUMPDEST POP PUSH2 0x2065 JUMP JUMPDEST DUP1 PUSH2 0x220A PUSH0 PUSH2 0x28CF SWAP4 PUSH2 0x101D JUMP JUMPDEST PUSH0 PUSH2 0x28BB JUMP JUMPDEST PUSH2 0x28DF SWAP1 DUP4 PUSH2 0x3E93 JUMP JUMPDEST SWAP1 ADDRESS EXTCODESIZE ISZERO PUSH2 0x4BB JUMPI PUSH1 0x40 MLOAD PUSH4 0x938E3D7B PUSH1 0xE0 SHL DUP2 MSTORE SWAP2 PUSH0 SWAP2 DUP4 SWAP2 DUP3 SWAP2 PUSH2 0x2909 SWAP2 SWAP1 PUSH1 0x4 DUP5 ADD PUSH2 0x3DA1 JUMP JUMPDEST SUB DUP2 DUP4 ADDRESS GAS CALL DUP1 ISZERO PUSH2 0xA0F JUMPI ISZERO PUSH2 0x2029 JUMPI DUP1 PUSH2 0x220A PUSH0 PUSH2 0x2928 SWAP4 PUSH2 0x101D JUMP JUMPDEST PUSH0 PUSH2 0x2029 JUMP JUMPDEST PUSH2 0x2938 SWAP1 DUP4 PUSH2 0x3E93 JUMP JUMPDEST SWAP1 ADDRESS EXTCODESIZE ISZERO PUSH2 0x4BB JUMPI PUSH1 0x40 MLOAD PUSH4 0x55F804B3 PUSH1 0xE0 SHL DUP2 MSTORE SWAP2 PUSH0 SWAP2 DUP4 SWAP2 DUP3 SWAP2 PUSH2 0x2962 SWAP2 SWAP1 PUSH1 0x4 DUP5 ADD PUSH2 0x3DA1 JUMP JUMPDEST SUB DUP2 DUP4 ADDRESS GAS CALL DUP1 ISZERO PUSH2 0xA0F JUMPI ISZERO PUSH2 0x2013 JUMPI DUP1 PUSH2 0x220A PUSH0 PUSH2 0x2981 SWAP4 PUSH2 0x101D JUMP JUMPDEST PUSH0 PUSH2 0x2013 JUMP JUMPDEST ADDRESS EXTCODESIZE ISZERO PUSH2 0x4BB JUMPI PUSH1 0x40 MLOAD PUSH4 0x6F8B44B PUSH1 0xE4 SHL DUP2 MSTORE PUSH1 0x4 DUP2 ADD SWAP2 SWAP1 SWAP2 MSTORE PUSH0 DUP2 PUSH1 0x24 DUP2 DUP4 ADDRESS GAS CALL DUP1 ISZERO PUSH2 0xA0F JUMPI ISZERO PUSH2 0x1FFD JUMPI DUP1 PUSH2 0x220A PUSH0 PUSH2 0x29C5 SWAP4 PUSH2 0x101D JUMP JUMPDEST PUSH0 PUSH2 0x1FFD JUMP JUMPDEST CALLVALUE PUSH2 0x4BB JUMPI PUSH2 0x29D9 CALLDATASIZE PUSH2 0x11ED JUMP JUMPDEST PUSH2 0x29E1 PUSH2 0x4A26 JUMP JUMPDEST PUSH1 0x1 PUSH1 0x1 PUSH1 0x40 SHL SUB DUP2 GT PUSH2 0xFFD JUMPI PUSH2 0x2A03 DUP2 PUSH2 0x29FE PUSH1 0xE SLOAD PUSH2 0x33D5 JUMP JUMPDEST PUSH2 0x3CB9 JUMP JUMPDEST PUSH0 SWAP2 PUSH1 0x1F DUP3 GT PUSH1 0x1 EQ PUSH2 0x2A6F JUMPI PUSH2 0x2A51 DUP3 DUP1 PUSH32 0x905D981207A7D0B6C62CC46AB0BE2A076D0298E4A86D0AB79882DBD01AC37378 SWAP6 PUSH0 SWAP2 PUSH2 0x2A64 JUMPI JUMPDEST POP DUP2 PUSH1 0x1 SHL SWAP2 PUSH0 NOT SWAP1 PUSH1 0x3 SHL SHR NOT AND OR SWAP1 JUMP JUMPDEST PUSH1 0xE SSTORE JUMPDEST PUSH2 0xE09 PUSH1 0x40 MLOAD SWAP3 DUP4 SWAP3 DUP4 PUSH2 0x3DA1 JUMP JUMPDEST SWAP1 POP DUP4 ADD CALLDATALOAD PUSH0 PUSH2 0x2A3E JUMP JUMPDEST PUSH1 0xE PUSH0 MSTORE PUSH1 0x1F NOT DUP3 AND PUSH32 0xBB7B4A454DC3493923482F07822329ED19E8244EFF582CC204F8554C3620C3FD SWAP1 PUSH0 JUMPDEST DUP2 DUP2 LT PUSH2 0x2AF7 JUMPI POP SWAP4 DUP4 PUSH32 0x905D981207A7D0B6C62CC46AB0BE2A076D0298E4A86D0AB79882DBD01AC37378 SWAP6 LT PUSH2 0x2ADE JUMPI JUMPDEST POP POP PUSH1 0x1 DUP3 DUP2 SHL ADD PUSH1 0xE SSTORE PUSH2 0x2A55 JUMP JUMPDEST DUP3 ADD CALLDATALOAD PUSH0 NOT PUSH1 0x3 DUP6 SWAP1 SHL PUSH1 0xF8 AND SHR NOT AND SWAP1 SSTORE PUSH0 DUP1 PUSH2 0x2ACE JUMP JUMPDEST DUP4 DUP7 ADD CALLDATALOAD DUP4 SSTORE PUSH1 0x20 SWAP6 DUP7 ADD SWAP6 PUSH1 0x1 SWAP1 SWAP4 ADD SWAP3 ADD PUSH2 0x2A9C JUMP JUMPDEST CALLVALUE PUSH2 0x4BB JUMPI PUSH0 CALLDATASIZE PUSH1 0x3 NOT ADD SLT PUSH2 0x4BB JUMPI PUSH1 0x20 PUSH1 0xFF PUSH1 0x16 SLOAD PUSH1 0x8 SHR AND PUSH1 0x40 MLOAD SWAP1 ISZERO ISZERO DUP2 MSTORE RETURN JUMPDEST CALLVALUE PUSH2 0x4BB JUMPI PUSH0 CALLDATASIZE PUSH1 0x3 NOT ADD SLT PUSH2 0x4BB JUMPI PUSH1 0x40 MLOAD PUSH0 PUSH1 0x3 SLOAD PUSH2 0x2B54 DUP2 PUSH2 0x33D5 JUMP JUMPDEST DUP1 DUP5 MSTORE SWAP1 PUSH1 0x1 DUP2 AND SWAP1 DUP2 ISZERO PUSH2 0x6C2 JUMPI POP PUSH1 0x1 EQ PUSH2 0x2B7B JUMPI PUSH2 0x514 DUP4 PUSH2 0x658 DUP2 DUP6 SUB DUP3 PUSH2 0x101D JUMP JUMPDEST PUSH1 0x3 PUSH0 SWAP1 DUP2 MSTORE PUSH32 0xC2575A0E9E593C00F959F8C92F12DB2869C3395A3B0502D05E2516446F71F85B SWAP4 SWAP3 POP SWAP1 JUMPDEST DUP1 DUP3 LT PUSH2 0x2BBF JUMPI POP SWAP1 SWAP2 POP DUP2 ADD PUSH1 0x20 ADD PUSH2 0x658 PUSH2 0x648 JUMP JUMPDEST SWAP2 SWAP3 PUSH1 0x1 DUP2 PUSH1 0x20 SWAP3 SLOAD DUP4 DUP6 DUP9 ADD ADD MSTORE ADD SWAP2 ADD SWAP1 SWAP3 SWAP2 PUSH2 0x2BA7 JUMP JUMPDEST CALLVALUE PUSH2 0x4BB JUMPI PUSH1 0x60 CALLDATASIZE PUSH1 0x3 NOT ADD SLT PUSH2 0x4BB JUMPI PUSH1 0x4 CALLDATALOAD PUSH2 0x2BF6 DUP2 PUSH2 0x752 JUMP JUMPDEST PUSH1 0x44 CALLDATALOAD SWAP1 PUSH1 0x60 SWAP1 PUSH1 0x24 CALLDATALOAD DUP4 DUP2 DUP2 DUP2 LT ISZERO PUSH2 0x1E6C JUMPI PUSH1 0x1 GT PUSH2 0x2D55 JUMPI JUMPDEST PUSH0 SLOAD DUP1 SWAP2 LT ISZERO PUSH2 0x2D4D JUMPI JUMPDEST POP PUSH2 0x2C27 DUP3 PUSH2 0x3D6B JUMP JUMPDEST SWAP2 DUP5 DUP3 LT ISZERO PUSH2 0x2D45 JUMPI JUMPDEST DUP3 PUSH2 0x2C45 JUMPI JUMPDEST PUSH1 0x40 MLOAD DUP1 PUSH2 0x514 DUP7 DUP3 PUSH2 0x1CA4 JUMP JUMPDEST SWAP1 DUP1 SWAP3 SWAP4 POP DUP5 SUB DUP4 DUP2 GT ISZERO PUSH2 0x2D3D JUMPI JUMPDEST POP PUSH1 0x40 MLOAD SWAP1 PUSH1 0x1 DUP5 ADD PUSH1 0x5 SHL DUP3 ADD SWAP4 DUP5 PUSH1 0x40 MSTORE PUSH2 0x2C71 DUP5 PUSH2 0x4416 JUMP JUMPDEST SWAP1 PUSH0 SWAP2 PUSH2 0x2C84 PUSH2 0xC43 PUSH1 0x40 DUP4 ADD MLOAD ISZERO ISZERO SWAP1 JUMP JUMPDEST PUSH2 0x2D2B JUMPI JUMPDEST POP PUSH0 SWAP7 SWAP2 SWAP5 SWAP2 PUSH1 0x1 JUMPDEST ISZERO PUSH2 0x2CFE JUMPI JUMPDEST PUSH0 SWAP6 PUSH2 0x2CA3 DUP5 PUSH2 0x505B JUMP JUMPDEST PUSH1 0x40 DUP2 ADD MLOAD ISZERO PUSH2 0x2CC2 JUMPI POP POP PUSH1 0x1 PUSH0 SWAP4 JUMPDEST ADD SWAP6 DUP8 PUSH1 0x40 MSTORE SWAP6 SWAP3 SWAP6 PUSH2 0x2C92 JUMP JUMPDEST SWAP4 SWAP1 SWAP4 MLOAD DUP1 PUSH2 0x2CF6 JUMPI JUMPDEST POP DUP5 DUP5 XOR PUSH1 0x60 SHL ISZERO PUSH2 0x2CE1 JUMPI JUMPDEST PUSH1 0x1 SWAP1 PUSH2 0x2CB4 JUMP JUMPDEST PUSH1 0x1 SWAP1 SWAP9 ADD PUSH1 0x5 DUP2 SWAP1 SHL DUP7 ADD DUP10 SWAP1 MSTORE SWAP8 PUSH2 0x2CD9 JUMP JUMPDEST SWAP4 POP PUSH0 PUSH2 0x2CCC JUMP JUMPDEST DUP1 DUP4 EQ DUP1 ISZERO PUSH2 0x2D22 JUMPI JUMPDEST ISZERO PUSH2 0x2C98 JUMPI POP POP POP POP SWAP2 POP POP PUSH2 0x514 SWAP2 DUP2 MSTORE PUSH0 DUP1 DUP1 PUSH2 0x2C37 JUMP JUMPDEST POP DUP2 DUP9 EQ PUSH2 0x2D08 JUMP JUMPDEST MLOAD PUSH1 0x1 PUSH1 0x1 PUSH1 0xA0 SHL SUB AND SWAP2 POP PUSH0 PUSH2 0x2C89 JUMP JUMPDEST SWAP3 POP PUSH0 PUSH2 0x2C55 JUMP JUMPDEST PUSH0 SWAP3 POP PUSH2 0x2C31 JUMP JUMPDEST SWAP4 POP PUSH0 PUSH2 0x2C1D JUMP JUMPDEST PUSH1 0x1 SWAP2 POP PUSH2 0x2C12 JUMP JUMPDEST CALLVALUE PUSH2 0x4BB JUMPI PUSH0 CALLDATASIZE PUSH1 0x3 NOT ADD SLT PUSH2 0x4BB JUMPI PUSH1 0x20 PUSH1 0x15 SLOAD PUSH1 0x40 MLOAD SWAP1 DUP2 MSTORE RETURN JUMPDEST CALLVALUE PUSH2 0x4BB JUMPI PUSH0 CALLDATASIZE PUSH1 0x3 NOT ADD SLT PUSH2 0x4BB JUMPI PUSH1 0x20 PUSH1 0x40 MLOAD PUSH32 0x0 DUP2 MSTORE RETURN JUMPDEST CALLVALUE PUSH2 0x4BB JUMPI PUSH1 0x40 CALLDATASIZE PUSH1 0x3 NOT ADD SLT PUSH2 0x4BB JUMPI PUSH1 0x4 CALLDATALOAD PUSH2 0x2DD2 DUP2 PUSH2 0x752 JUMP JUMPDEST PUSH2 0x2DDA PUSH2 0x8E1 JUMP JUMPDEST SWAP1 PUSH1 0xFF PUSH1 0x13 SLOAD AND PUSH2 0x817 JUMPI CALLER PUSH0 MSTORE PUSH1 0x7 PUSH1 0x20 MSTORE PUSH2 0x2E1F DUP3 PUSH2 0x2E0E DUP4 PUSH1 0x40 PUSH0 KECCAK256 SWAP1 PUSH1 0x1 DUP1 PUSH1 0xA0 SHL SUB AND PUSH0 MSTORE PUSH1 0x20 MSTORE PUSH1 0x40 PUSH0 KECCAK256 SWAP1 JUMP JUMPDEST SWAP1 PUSH1 0xFF DUP1 NOT DUP4 SLOAD AND SWAP2 ISZERO ISZERO AND OR SWAP1 SSTORE JUMP JUMPDEST PUSH1 0x40 MLOAD SWAP2 ISZERO ISZERO DUP3 MSTORE PUSH1 0x1 PUSH1 0x1 PUSH1 0xA0 SHL SUB AND SWAP1 CALLER SWAP1 PUSH32 0x17307EAB39AB6107E8899845AD3D59BD9653F200F220920489CA2B5937696C31 SWAP1 PUSH1 0x20 SWAP1 LOG3 STOP JUMPDEST CALLVALUE PUSH2 0x4BB JUMPI PUSH1 0x40 CALLDATASIZE PUSH1 0x3 NOT ADD SLT PUSH2 0x4BB JUMPI PUSH0 MLOAD PUSH1 0x20 PUSH2 0x5823 PUSH0 CODECOPY PUSH0 MLOAD SWAP1 PUSH0 MSTORE PUSH1 0x24 CALLDATALOAD PUSH1 0x4 CALLDATALOAD PUSH2 0x2E88 PUSH2 0x4A26 JUMP JUMPDEST PUSH1 0x40 DUP1 MLOAD SWAP2 DUP3 MSTORE PUSH1 0x20 DUP3 ADD SWAP3 SWAP1 SWAP3 MSTORE SWAP1 DUP2 SWAP1 DUP2 ADD PUSH2 0xE09 JUMP JUMPDEST CALLVALUE PUSH2 0x4BB JUMPI PUSH1 0x20 CALLDATASIZE PUSH1 0x3 NOT ADD SLT PUSH2 0x4BB JUMPI PUSH1 0x4 CALLDATALOAD PUSH2 0x2EBE DUP2 PUSH2 0x752 JUMP JUMPDEST PUSH2 0x2EC6 PUSH2 0x4A4D JUMP JUMPDEST PUSH1 0x9 SLOAD SWAP1 PUSH1 0x1 PUSH1 0x1 PUSH1 0xA0 SHL SUB DUP1 DUP4 AND SWAP1 DUP3 AND DUP1 DUP3 EQ PUSH2 0x2F37 JUMPI PUSH1 0x1 PUSH1 0x1 PUSH1 0xA0 SHL SUB NOT SWAP4 SWAP1 SWAP4 AND SWAP1 SWAP3 OR PUSH1 0x9 SSTORE PUSH1 0x40 DUP1 MLOAD PUSH1 0x1 PUSH1 0x1 PUSH1 0xA0 SHL SUB SWAP4 DUP5 AND DUP2 MSTORE SWAP2 SWAP1 SWAP3 AND PUSH1 0x20 DUP3 ADD MSTORE PUSH32 0xCC5DC080FF977B3C3A211FA63AB74F90F658F5BA9D3236E92C8F59570F442AAC SWAP2 DUP2 SWAP1 DUP2 ADD PUSH2 0xE09 JUMP JUMPDEST PUSH4 0x251DD8CF PUSH1 0xE1 SHL PUSH0 MSTORE PUSH1 0x4 PUSH0 REVERT JUMPDEST CALLVALUE PUSH2 0x4BB JUMPI PUSH0 CALLDATASIZE PUSH1 0x3 NOT ADD SLT PUSH2 0x4BB JUMPI PUSH1 0x10 SLOAD PUSH1 0x40 MLOAD PUSH1 0x1 PUSH1 0x1 PUSH1 0xA0 SHL SUB SWAP1 SWAP2 AND DUP2 MSTORE PUSH1 0x20 SWAP1 RETURN JUMPDEST PUSH1 0x1 PUSH1 0x1 PUSH1 0x40 SHL SUB DUP2 GT PUSH2 0xFFD JUMPI PUSH1 0x1F ADD PUSH1 0x1F NOT AND PUSH1 0x20 ADD SWAP1 JUMP JUMPDEST SWAP3 SWAP2 SWAP3 PUSH2 0x2F95 DUP3 PUSH2 0x2F6E JUMP JUMPDEST SWAP2 PUSH2 0x2FA3 PUSH1 0x40 MLOAD SWAP4 DUP5 PUSH2 0x101D JUMP JUMPDEST DUP3 SWAP5 DUP2 DUP5 MSTORE DUP2 DUP4 ADD GT PUSH2 0x4BB JUMPI DUP3 DUP2 PUSH1 0x20 SWAP4 DUP5 PUSH0 SWAP7 ADD CALLDATACOPY ADD ADD MSTORE JUMP JUMPDEST PUSH1 0x80 CALLDATASIZE PUSH1 0x3 NOT ADD SLT PUSH2 0x4BB JUMPI PUSH1 0x4 CALLDATALOAD PUSH2 0x2FD7 DUP2 PUSH2 0x752 JUMP JUMPDEST PUSH1 0x24 CALLDATALOAD SWAP1 PUSH2 0x2FE4 DUP3 PUSH2 0x752 JUMP JUMPDEST PUSH1 0x44 CALLDATALOAD PUSH1 0x64 CALLDATALOAD SWAP3 PUSH1 0x1 PUSH1 0x1 PUSH1 0x40 SHL SUB DUP5 GT PUSH2 0x4BB JUMPI CALLDATASIZE PUSH1 0x23 DUP6 ADD SLT ISZERO PUSH2 0x4BB JUMPI PUSH2 0x301B PUSH2 0xA0D SWAP5 CALLDATASIZE SWAP1 PUSH1 0x24 DUP2 PUSH1 0x4 ADD CALLDATALOAD SWAP2 ADD PUSH2 0x2F89 JUMP JUMPDEST SWAP3 PUSH2 0x43A1 JUMP JUMPDEST CALLVALUE PUSH2 0x4BB JUMPI PUSH1 0x20 CALLDATASIZE PUSH1 0x3 NOT ADD SLT PUSH2 0x4BB JUMPI PUSH1 0x80 PUSH2 0x303F PUSH1 0x4 CALLDATALOAD PUSH2 0x4416 JUMP JUMPDEST PUSH2 0x3082 PUSH1 0x40 MLOAD DUP1 SWAP3 PUSH3 0xFFFFFF PUSH1 0x60 DUP1 SWAP3 PUSH1 0x1 DUP1 PUSH1 0xA0 SHL SUB DUP2 MLOAD AND DUP6 MSTORE PUSH1 0x1 PUSH1 0x1 PUSH1 0x40 SHL SUB PUSH1 0x20 DUP3 ADD MLOAD AND PUSH1 0x20 DUP7 ADD MSTORE PUSH1 0x40 DUP2 ADD MLOAD ISZERO ISZERO PUSH1 0x40 DUP7 ADD MSTORE ADD MLOAD AND SWAP2 ADD MSTORE JUMP JUMPDEST RETURN JUMPDEST CALLVALUE PUSH2 0x4BB JUMPI PUSH0 CALLDATASIZE PUSH1 0x3 NOT ADD SLT PUSH2 0x4BB JUMPI PUSH1 0x20 PUSH1 0xF SLOAD PUSH1 0x40 MLOAD SWAP1 DUP2 MSTORE RETURN JUMPDEST CALLVALUE PUSH2 0x4BB JUMPI PUSH1 0x20 CALLDATASIZE PUSH1 0x3 NOT ADD SLT PUSH2 0x4BB JUMPI PUSH1 0x4 CALLDATALOAD PUSH2 0x30BE DUP2 PUSH2 0x4992 JUMP JUMPDEST ISZERO PUSH2 0x3146 JUMPI PUSH2 0x658 PUSH2 0x514 SWAP2 PUSH1 0x60 PUSH1 0x40 DUP1 MLOAD PUSH2 0x30D9 DUP2 PUSH2 0x1002 JUMP JUMPDEST PUSH0 DUP2 MSTORE PUSH0 PUSH1 0x20 DUP3 ADD MSTORE ADD MSTORE DUP1 PUSH0 MSTORE PUSH1 0x17 PUSH1 0x20 MSTORE PUSH1 0x40 PUSH0 KECCAK256 PUSH1 0x40 MLOAD SWAP1 PUSH2 0x30FD DUP3 PUSH2 0x1002 JUMP JUMPDEST PUSH2 0x313C PUSH2 0x3134 PUSH2 0x3125 PUSH1 0x1 DUP5 SLOAD SWAP5 PUSH2 0xFFFF DUP7 AND DUP8 MSTORE PUSH1 0xFF PUSH1 0x20 DUP9 ADD SWAP7 PUSH1 0x10 SHR AND DUP7 MSTORE ADD PUSH2 0x340D JUMP JUMPDEST SWAP4 DUP5 PUSH1 0x40 DUP3 ADD MSTORE MLOAD PUSH2 0xFFFF AND SWAP1 JUMP JUMPDEST SWAP2 MLOAD PUSH1 0xFF AND SWAP1 JUMP JUMPDEST SWAP1 PUSH1 0x14 SLOAD SWAP4 PUSH2 0x52BB JUMP JUMPDEST PUSH4 0x4A1850BF PUSH1 0xE1 SHL PUSH0 MSTORE PUSH1 0x4 PUSH0 REVERT JUMPDEST CALLVALUE PUSH2 0x4BB JUMPI PUSH2 0x3163 CALLDATASIZE PUSH2 0xF23 JUMP JUMPDEST SWAP1 SWAP2 PUSH2 0x316D PUSH2 0x4A26 JUMP JUMPDEST PUSH2 0x3176 DUP2 PUSH2 0x4A61 JUMP JUMPDEST PUSH1 0x1 PUSH1 0x1 PUSH1 0xA0 SHL SUB AND SWAP2 DUP3 EXTCODESIZE ISZERO PUSH2 0x4BB JUMPI PUSH1 0x40 MLOAD PUSH4 0x3F952E65 PUSH1 0xE1 SHL DUP2 MSTORE PUSH1 0x1 PUSH1 0x1 PUSH1 0xA0 SHL SUB SWAP1 SWAP2 AND PUSH1 0x4 DUP3 ADD MSTORE SWAP1 ISZERO ISZERO PUSH1 0x24 DUP3 ADD MSTORE PUSH0 DUP2 PUSH1 0x44 DUP2 ADD PUSH2 0xFB6 JUMP JUMPDEST CALLVALUE PUSH2 0x4BB JUMPI PUSH1 0x40 CALLDATASIZE PUSH1 0x3 NOT ADD SLT PUSH2 0x4BB JUMPI PUSH1 0x4 CALLDATALOAD PUSH1 0x24 CALLDATALOAD PUSH1 0x1 PUSH1 0x1 PUSH1 0x40 SHL SUB DUP2 GT PUSH2 0x4BB JUMPI CALLDATASIZE PUSH1 0x23 DUP3 ADD SLT ISZERO PUSH2 0x4BB JUMPI PUSH2 0x31FB SWAP1 CALLDATASIZE SWAP1 PUSH1 0x24 DUP2 PUSH1 0x4 ADD CALLDATALOAD SWAP2 ADD PUSH2 0x2F89 JUMP JUMPDEST PUSH1 0x1 PUSH1 0x1 PUSH1 0xA0 SHL SUB PUSH2 0x320C DUP4 PUSH2 0x4A92 JUMP JUMPDEST AND CALLER SUB PUSH2 0x32D2 JUMPI PUSH2 0xFFFF PUSH2 0x3233 PUSH2 0x322B DUP5 PUSH0 MSTORE PUSH1 0x17 PUSH1 0x20 MSTORE PUSH1 0x40 PUSH0 KECCAK256 SWAP1 JUMP JUMPDEST SLOAD PUSH2 0xFFFF AND SWAP1 JUMP JUMPDEST AND PUSH1 0x10 DUP2 LT PUSH2 0x3247 JUMPI JUMPDEST POP PUSH2 0xA0D SWAP2 PUSH2 0x4560 JUMP JUMPDEST PUSH1 0x4 DUP2 EQ SWAP1 DUP2 ISZERO PUSH2 0x32C7 JUMPI JUMPDEST DUP2 ISZERO PUSH2 0x32BC JUMPI JUMPDEST DUP2 ISZERO PUSH2 0x32B1 JUMPI JUMPDEST DUP2 ISZERO PUSH2 0x32A6 JUMPI JUMPDEST DUP2 ISZERO PUSH2 0x329B JUMPI JUMPDEST DUP2 ISZERO PUSH2 0x3290 JUMPI JUMPDEST POP PUSH2 0x3281 JUMPI PUSH0 PUSH2 0x323D JUMP JUMPDEST PUSH4 0x6FC7819 PUSH1 0xE0 SHL PUSH0 MSTORE PUSH1 0x4 PUSH0 REVERT JUMPDEST PUSH1 0xD SWAP2 POP EQ PUSH0 PUSH2 0x3276 JUMP JUMPDEST PUSH1 0xB DUP2 EQ SWAP2 POP PUSH2 0x326F JUMP JUMPDEST PUSH1 0x8 DUP2 EQ SWAP2 POP PUSH2 0x3268 JUMP JUMPDEST PUSH1 0x7 DUP2 EQ SWAP2 POP PUSH2 0x3261 JUMP JUMPDEST PUSH1 0x6 DUP2 EQ SWAP2 POP PUSH2 0x325A JUMP JUMPDEST PUSH1 0x5 DUP2 EQ SWAP2 POP PUSH2 0x3253 JUMP JUMPDEST PUSH4 0x4143FBF9 PUSH1 0xE0 SHL PUSH0 MSTORE PUSH1 0x4 PUSH0 REVERT JUMPDEST CALLVALUE PUSH2 0x4BB JUMPI PUSH0 CALLDATASIZE PUSH1 0x3 NOT ADD SLT PUSH2 0x4BB JUMPI PUSH1 0x20 PUSH1 0xC SLOAD PUSH1 0x40 MLOAD SWAP1 DUP2 MSTORE RETURN JUMPDEST CALLVALUE PUSH2 0x4BB JUMPI PUSH1 0x40 CALLDATASIZE PUSH1 0x3 NOT ADD SLT PUSH2 0x4BB JUMPI PUSH1 0x4 CALLDATALOAD PUSH1 0x24 CALLDATALOAD PUSH1 0x1 PUSH1 0x1 PUSH1 0xA0 SHL SUB PUSH2 0x3326 DUP4 PUSH2 0x4A92 JUMP JUMPDEST AND CALLER SUB PUSH2 0x32D2 JUMPI PUSH2 0xFFFF PUSH2 0x3345 PUSH2 0x322B DUP5 PUSH0 MSTORE PUSH1 0x17 PUSH1 0x20 MSTORE PUSH1 0x40 PUSH0 KECCAK256 SWAP1 JUMP JUMPDEST AND PUSH1 0x10 DUP2 LT PUSH2 0x3359 JUMPI JUMPDEST POP PUSH2 0xA0D SWAP2 PUSH2 0x4773 JUMP JUMPDEST PUSH1 0x4 DUP2 EQ SWAP1 DUP2 ISZERO PUSH2 0x33CA JUMPI JUMPDEST DUP2 ISZERO PUSH2 0x33BF JUMPI JUMPDEST DUP2 ISZERO PUSH2 0x33B4 JUMPI JUMPDEST DUP2 ISZERO PUSH2 0x33A9 JUMPI JUMPDEST DUP2 ISZERO PUSH2 0x339E JUMPI JUMPDEST DUP2 ISZERO PUSH2 0x3393 JUMPI JUMPDEST POP PUSH2 0x3281 JUMPI PUSH0 PUSH2 0x334F JUMP JUMPDEST PUSH1 0xD SWAP2 POP EQ PUSH0 PUSH2 0x3388 JUMP JUMPDEST PUSH1 0xB DUP2 EQ SWAP2 POP PUSH2 0x3381 JUMP JUMPDEST PUSH1 0x8 DUP2 EQ SWAP2 POP PUSH2 0x337A JUMP JUMPDEST PUSH1 0x7 DUP2 EQ SWAP2 POP PUSH2 0x3373 JUMP JUMPDEST PUSH1 0x6 DUP2 EQ SWAP2 POP PUSH2 0x336C JUMP JUMPDEST PUSH1 0x5 DUP2 EQ SWAP2 POP PUSH2 0x3365 JUMP JUMPDEST SWAP1 PUSH1 0x1 DUP3 DUP2 SHR SWAP3 AND DUP1 ISZERO PUSH2 0x3403 JUMPI JUMPDEST PUSH1 0x20 DUP4 LT EQ PUSH2 0x33EF JUMPI JUMP JUMPDEST PUSH4 0x4E487B71 PUSH1 0xE0 SHL PUSH0 MSTORE PUSH1 0x22 PUSH1 0x4 MSTORE PUSH1 0x24 PUSH0 REVERT JUMPDEST SWAP2 PUSH1 0x7F AND SWAP2 PUSH2 0x33E4 JUMP JUMPDEST SWAP1 PUSH1 0x40 MLOAD SWAP2 DUP3 PUSH0 DUP3 SLOAD SWAP3 PUSH2 0x3420 DUP5 PUSH2 0x33D5 JUMP JUMPDEST DUP1 DUP5 MSTORE SWAP4 PUSH1 0x1 DUP2 AND SWAP1 DUP2 ISZERO PUSH2 0x3489 JUMPI POP PUSH1 0x1 EQ PUSH2 0x3445 JUMPI JUMPDEST POP PUSH2 0x104D SWAP3 POP SUB DUP4 PUSH2 0x101D JUMP JUMPDEST SWAP1 POP PUSH0 SWAP3 SWAP2 SWAP3 MSTORE PUSH1 0x20 PUSH0 KECCAK256 SWAP1 PUSH0 SWAP2 JUMPDEST DUP2 DUP4 LT PUSH2 0x346D JUMPI POP POP SWAP1 PUSH1 0x20 PUSH2 0x104D SWAP3 DUP3 ADD ADD PUSH0 PUSH2 0x3438 JUMP JUMPDEST PUSH1 0x20 SWAP2 SWAP4 POP DUP1 PUSH1 0x1 SWAP2 SLOAD DUP4 DUP6 DUP10 ADD ADD MSTORE ADD SWAP2 ADD SWAP1 SWAP2 DUP5 SWAP3 PUSH2 0x3454 JUMP JUMPDEST SWAP1 POP PUSH1 0x20 SWAP3 POP PUSH2 0x104D SWAP5 SWAP2 POP PUSH1 0xFF NOT AND DUP3 DUP5 ADD MSTORE ISZERO ISZERO PUSH1 0x5 SHL DUP3 ADD ADD PUSH0 PUSH2 0x3438 JUMP JUMPDEST CALLVALUE PUSH2 0x4BB JUMPI PUSH1 0x20 CALLDATASIZE PUSH1 0x3 NOT ADD SLT PUSH2 0x4BB JUMPI PUSH1 0x4 CALLDATALOAD PUSH0 MSTORE PUSH1 0x17 PUSH1 0x20 MSTORE PUSH1 0xFF PUSH1 0x40 PUSH0 KECCAK256 PUSH2 0x514 PUSH2 0x34DD PUSH1 0x1 DUP4 SLOAD SWAP4 ADD PUSH2 0x340D JUMP JUMPDEST PUSH1 0x40 MLOAD SWAP4 DUP4 PUSH2 0xFFFF DUP7 SWAP6 AND DUP6 MSTORE PUSH1 0x10 SHR AND PUSH1 0x20 DUP5 ADD MSTORE PUSH1 0x60 PUSH1 0x40 DUP5 ADD MSTORE PUSH1 0x60 DUP4 ADD SWAP1 PUSH2 0x5D8 JUMP JUMPDEST CALLVALUE PUSH2 0x4BB JUMPI PUSH0 CALLDATASIZE PUSH1 0x3 NOT ADD SLT PUSH2 0x4BB JUMPI PUSH1 0x40 MLOAD PUSH0 PUSH1 0xE SLOAD PUSH2 0x3524 DUP2 PUSH2 0x33D5 JUMP JUMPDEST DUP1 DUP5 MSTORE SWAP1 PUSH1 0x1 DUP2 AND SWAP1 DUP2 ISZERO PUSH2 0x6C2 JUMPI POP PUSH1 0x1 EQ PUSH2 0x354B JUMPI PUSH2 0x514 DUP4 PUSH2 0x658 DUP2 DUP6 SUB DUP3 PUSH2 0x101D JUMP JUMPDEST PUSH1 0xE PUSH0 SWAP1 DUP2 MSTORE PUSH32 0xBB7B4A454DC3493923482F07822329ED19E8244EFF582CC204F8554C3620C3FD SWAP4 SWAP3 POP SWAP1 JUMPDEST DUP1 DUP3 LT PUSH2 0x358F JUMPI POP SWAP1 SWAP2 POP DUP2 ADD PUSH1 0x20 ADD PUSH2 0x658 PUSH2 0x648 JUMP JUMPDEST SWAP2 SWAP3 PUSH1 0x1 DUP2 PUSH1 0x20 SWAP3 SLOAD DUP4 DUP6 DUP9 ADD ADD MSTORE ADD SWAP2 ADD SWAP1 SWAP3 SWAP2 PUSH2 0x3577 JUMP JUMPDEST CALLVALUE PUSH2 0x4BB JUMPI PUSH1 0x20 PUSH2 0x35C2 PUSH2 0x35BC CALLDATASIZE PUSH2 0x1715 JUMP JUMPDEST SWAP1 PUSH2 0x47FA JUMP JUMPDEST PUSH1 0x40 MLOAD SWAP1 ISZERO ISZERO DUP2 MSTORE RETURN JUMPDEST CALLVALUE PUSH2 0x4BB JUMPI PUSH1 0x20 CALLDATASIZE PUSH1 0x3 NOT ADD SLT PUSH2 0x4BB JUMPI PUSH1 0x4 CALLDATALOAD PUSH2 0x35E9 DUP2 PUSH2 0x752 JUMP JUMPDEST PUSH2 0x35F1 PUSH2 0x4A4D JUMP JUMPDEST PUSH1 0x1 PUSH1 0x1 PUSH1 0xA0 SHL SUB AND DUP1 ISZERO PUSH2 0x3641 JUMPI PUSH1 0x20 DUP2 PUSH32 0x11A3CF439FB225BFE74225716B6774765670EC1060E3796802E62139D69974DA SWAP3 PUSH1 0x1 PUSH1 0x1 PUSH1 0x60 SHL SUB PUSH1 0xA0 SHL PUSH1 0xB SLOAD AND OR PUSH1 0xB SSTORE PUSH1 0x40 MLOAD SWAP1 DUP2 MSTORE LOG1 STOP JUMPDEST PUSH4 0x3A247DD7 PUSH1 0xE1 SHL PUSH0 MSTORE PUSH1 0x4 PUSH0 REVERT JUMPDEST CALLVALUE PUSH2 0x4BB JUMPI PUSH0 CALLDATASIZE PUSH1 0x3 NOT ADD SLT PUSH2 0x4BB JUMPI PUSH1 0x20 PUSH1 0x40 MLOAD PUSH32 0x0 DUP2 MSTORE RETURN JUMPDEST CALLVALUE PUSH2 0x4BB JUMPI PUSH1 0x20 CALLDATASIZE PUSH1 0x3 NOT ADD SLT PUSH2 0x4BB JUMPI PUSH1 0x4 CALLDATALOAD PUSH1 0x1 PUSH1 0x1 PUSH1 0xA0 SHL SUB PUSH2 0x36AF DUP3 PUSH2 0x4A92 JUMP JUMPDEST AND CALLER SUB PUSH2 0x32D2 JUMPI PUSH2 0xFFFF PUSH2 0x36CE PUSH2 0x322B DUP4 PUSH0 MSTORE PUSH1 0x17 PUSH1 0x20 MSTORE PUSH1 0x40 PUSH0 KECCAK256 SWAP1 JUMP JUMPDEST AND PUSH1 0x10 DUP2 LT PUSH2 0x36E1 JUMPI JUMPDEST PUSH2 0xA0D DUP3 PUSH2 0x488D JUMP JUMPDEST PUSH1 0x4 DUP2 EQ SWAP1 DUP2 ISZERO PUSH2 0x3752 JUMPI JUMPDEST DUP2 ISZERO PUSH2 0x3747 JUMPI JUMPDEST DUP2 ISZERO PUSH2 0x373C JUMPI JUMPDEST DUP2 ISZERO PUSH2 0x3731 JUMPI JUMPDEST DUP2 ISZERO PUSH2 0x3726 JUMPI JUMPDEST DUP2 ISZERO PUSH2 0x371B JUMPI JUMPDEST POP PUSH2 0x3281 JUMPI PUSH0 PUSH2 0x36D8 JUMP JUMPDEST PUSH1 0xD SWAP2 POP EQ PUSH0 PUSH2 0x3710 JUMP JUMPDEST PUSH1 0xB DUP2 EQ SWAP2 POP PUSH2 0x3709 JUMP JUMPDEST PUSH1 0x8 DUP2 EQ SWAP2 POP PUSH2 0x3702 JUMP JUMPDEST PUSH1 0x7 DUP2 EQ SWAP2 POP PUSH2 0x36FB JUMP JUMPDEST PUSH1 0x6 DUP2 EQ SWAP2 POP PUSH2 0x36F4 JUMP JUMPDEST PUSH1 0x5 DUP2 EQ SWAP2 POP PUSH2 0x36ED JUMP JUMPDEST CALLVALUE PUSH2 0x4BB JUMPI PUSH0 CALLDATASIZE PUSH1 0x3 NOT ADD SLT PUSH2 0x4BB JUMPI PUSH1 0x20 PUSH1 0x40 MLOAD PUSH1 0x1 DUP2 MSTORE RETURN JUMPDEST PUSH6 0xFFFFFFFFFFFF DUP2 AND SUB PUSH2 0x4BB JUMPI JUMP JUMPDEST CALLDATALOAD SWAP1 PUSH2 0x104D DUP3 PUSH2 0x3778 JUMP JUMPDEST PUSH1 0x24 CALLDATALOAD SWAP1 PUSH1 0x1 PUSH1 0x1 PUSH1 0x50 SHL SUB DUP3 AND DUP3 SUB PUSH2 0x4BB JUMPI PUSH1 0x1 PUSH1 0x1 PUSH1 0x50 SHL SUB PUSH2 0x104D SWAP3 AND DUP2 MSTORE PUSH6 0xFFFFFFFFFFFF PUSH1 0x44 CALLDATALOAD PUSH2 0x37C9 DUP2 PUSH2 0x3778 JUMP JUMPDEST AND PUSH1 0x20 DUP3 ADD MSTORE PUSH6 0xFFFFFFFFFFFF PUSH1 0x64 CALLDATALOAD PUSH2 0x37E2 DUP2 PUSH2 0x3778 JUMP JUMPDEST AND PUSH1 0x40 DUP3 ADD MSTORE PUSH2 0xFFFF PUSH2 0x37F5 PUSH1 0x84 PUSH2 0x110C JUMP JUMPDEST AND PUSH1 0x60 DUP3 ADD MSTORE PUSH2 0xFFFF PUSH2 0x3808 PUSH1 0xA4 PUSH2 0x110C JUMP JUMPDEST AND PUSH1 0x80 DUP3 ADD MSTORE PUSH1 0xA0 PUSH2 0x381A PUSH1 0xC4 PUSH2 0x8F0 JUMP JUMPDEST ISZERO ISZERO SWAP2 ADD MSTORE JUMP JUMPDEST PUSH1 0x40 MLOAD RETURNDATASIZE PUSH0 DUP3 RETURNDATACOPY RETURNDATASIZE SWAP1 REVERT JUMPDEST SWAP2 SWAP1 PUSH2 0x3837 DUP3 PUSH2 0x4A92 JUMP JUMPDEST PUSH1 0x1 PUSH1 0x1 PUSH1 0xA0 SHL SUB DUP5 DUP2 AND SWAP5 SWAP1 DUP3 AND DUP6 SWAP1 SUB PUSH2 0x3996 JUMPI PUSH0 DUP5 DUP2 MSTORE PUSH1 0x6 PUSH1 0x20 MSTORE PUSH1 0x40 SWAP1 KECCAK256 DUP1 SLOAD SWAP2 SWAP1 CALLER DUP1 DUP5 EQ SWAP1 DUP9 EQ OR ISZERO PUSH2 0x397F JUMPI JUMPDEST PUSH2 0x389A SWAP3 PUSH2 0x387B DUP8 DUP8 DUP6 PUSH2 0x4BAD JUMP JUMPDEST PUSH2 0x3976 JUMPI JUMPDEST POP PUSH1 0x1 PUSH1 0x1 PUSH1 0xA0 SHL SUB AND PUSH0 SWAP1 DUP2 MSTORE PUSH1 0x5 PUSH1 0x20 MSTORE PUSH1 0x40 SWAP1 KECCAK256 SWAP1 JUMP JUMPDEST DUP1 SLOAD PUSH0 NOT ADD SWAP1 SSTORE PUSH1 0x1 PUSH1 0x1 PUSH1 0xA0 SHL SUB DUP3 AND PUSH0 SWAP1 DUP2 MSTORE PUSH1 0x5 PUSH1 0x20 MSTORE PUSH1 0x40 SWAP1 KECCAK256 DUP1 SLOAD PUSH1 0x1 ADD SWAP1 SSTORE PUSH1 0x1 PUSH1 0x1 PUSH1 0xA0 SHL SUB DUP3 AND TIMESTAMP PUSH1 0xA0 SHL OR PUSH1 0x1 PUSH1 0xE1 SHL OR PUSH2 0x38E6 DUP5 PUSH0 MSTORE PUSH1 0x4 PUSH1 0x20 MSTORE PUSH1 0x40 PUSH0 KECCAK256 SWAP1 JUMP JUMPDEST SSTORE PUSH1 0x1 PUSH1 0xE1 SHL DUP2 AND ISZERO PUSH2 0x3931 JUMPI JUMPDEST POP PUSH1 0x1 PUSH1 0x1 PUSH1 0xA0 SHL SUB AND SWAP2 DUP3 SWAP1 PUSH32 0xDDF252AD1BE2C89B69C2B068FC378DAA952BA7F163C4A11628F55A4DF523B3EF PUSH0 DUP1 LOG4 ISZERO PUSH2 0x392C JUMPI JUMP JUMPDEST PUSH2 0x49FA JUMP JUMPDEST PUSH1 0x1 DUP4 ADD PUSH2 0x3947 DUP2 PUSH0 MSTORE PUSH1 0x4 PUSH1 0x20 MSTORE PUSH1 0x40 PUSH0 KECCAK256 SWAP1 JUMP JUMPDEST SLOAD ISZERO PUSH2 0x3954 JUMPI JUMPDEST POP PUSH2 0x38F4 JUMP JUMPDEST PUSH0 SLOAD DUP2 EQ PUSH2 0x394E JUMPI PUSH2 0x396E SWAP1 PUSH0 MSTORE PUSH1 0x4 PUSH1 0x20 MSTORE PUSH1 0x40 PUSH0 KECCAK256 SWAP1 JUMP JUMPDEST SSTORE PUSH0 DUP1 PUSH2 0x394E JUMP JUMPDEST PUSH0 SWAP1 SSTORE PUSH0 PUSH2 0x3880 JUMP JUMPDEST PUSH2 0x398C PUSH2 0xC43 CALLER DUP5 PUSH2 0x47FA JUMP JUMPDEST ISZERO PUSH2 0x386C JUMPI PUSH2 0x49DD JUMP JUMPDEST PUSH2 0x49EC JUMP JUMPDEST PUSH4 0x4E487B71 PUSH1 0xE0 SHL PUSH0 MSTORE PUSH1 0x11 PUSH1 0x4 MSTORE PUSH1 0x24 PUSH0 REVERT JUMPDEST SWAP1 DUP1 PUSH1 0x20 SWAP4 SWAP3 DUP2 DUP5 MSTORE DUP5 DUP5 ADD CALLDATACOPY PUSH0 DUP3 DUP3 ADD DUP5 ADD MSTORE PUSH1 0x1F ADD PUSH1 0x1F NOT AND ADD ADD SWAP1 JUMP JUMPDEST SWAP1 CALLDATALOAD PUSH1 0x1E NOT DUP3 CALLDATASIZE SUB ADD DUP2 SLT ISZERO PUSH2 0x4BB JUMPI ADD PUSH1 0x20 DUP2 CALLDATALOAD SWAP2 ADD SWAP2 PUSH1 0x1 PUSH1 0x1 PUSH1 0x40 SHL SUB DUP3 GT PUSH2 0x4BB JUMPI DUP2 CALLDATASIZE SUB DUP4 SGT PUSH2 0x4BB JUMPI JUMP JUMPDEST SWAP2 SWAP1 PUSH1 0x60 DUP2 ADD SWAP1 DUP4 CALLDATALOAD DUP2 MSTORE PUSH1 0x20 DUP5 ADD CALLDATALOAD PUSH1 0x1E NOT DUP6 CALLDATASIZE SUB ADD DUP2 SLT ISZERO PUSH2 0x4BB JUMPI DUP5 ADD SWAP4 PUSH1 0x20 DUP6 CALLDATALOAD SWAP6 ADD SWAP5 PUSH1 0x1 PUSH1 0x1 PUSH1 0x40 SHL SUB DUP2 GT PUSH2 0x4BB JUMPI DUP1 PUSH1 0x5 SHL SWAP4 DUP5 CALLDATASIZE SUB DUP8 SGT PUSH2 0x4BB JUMPI PUSH1 0x60 PUSH1 0x20 DUP6 ADD MSTORE DUP2 SWAP1 MSTORE SWAP3 DUP3 ADD PUSH1 0x80 SWAP1 DUP2 ADD SWAP4 DUP7 SWAP2 PUSH0 SWAP1 DUP6 ADD JUMPDEST DUP3 DUP3 LT PUSH2 0x3A8B JUMPI POP POP POP POP PUSH2 0x60D SWAP4 SWAP5 POP DUP1 PUSH1 0x40 PUSH2 0x3A7D SWAP3 ADD SWAP1 PUSH2 0x39CF JUMP JUMPDEST SWAP2 PUSH1 0x40 DUP2 DUP6 SUB SWAP2 ADD MSTORE PUSH2 0x39AF JUMP JUMPDEST SWAP1 SWAP2 SWAP3 SWAP6 PUSH1 0x20 DUP1 PUSH2 0x3AB1 PUSH1 0x1 SWAP4 PUSH2 0x3AAB DUP12 DUP15 PUSH1 0x7F NOT DUP14 DUP6 SUB ADD DUP10 MSTORE PUSH2 0x39CF JUMP JUMPDEST SWAP1 PUSH2 0x39AF JUMP JUMPDEST SWAP9 ADD SWAP3 ADD SWAP3 ADD SWAP1 SWAP3 SWAP2 PUSH2 0x3A5E JUMP JUMPDEST PUSH1 0x4 CALLDATALOAD PUSH2 0x60D DUP2 PUSH2 0x752 JUMP JUMPDEST CALLDATALOAD PUSH2 0x60D DUP2 PUSH2 0x752 JUMP JUMPDEST PUSH1 0x24 CALLDATALOAD PUSH1 0x1 PUSH1 0x1 PUSH1 0x60 SHL SUB DUP2 AND DUP2 SUB PUSH2 0x4BB JUMPI SWAP1 JUMP JUMPDEST PUSH1 0x4 CALLDATALOAD PUSH2 0x3AF7 DUP2 PUSH2 0x752 JUMP JUMPDEST PUSH1 0x1 DUP1 PUSH1 0xA0 SHL SUB AND PUSH1 0x1 PUSH1 0x1 PUSH1 0x60 SHL SUB PUSH1 0xA0 SHL PUSH1 0x10 SLOAD AND OR PUSH1 0x10 SSTORE PUSH1 0x24 CALLDATALOAD PUSH1 0x1 PUSH1 0x1 PUSH1 0x60 SHL SUB DUP2 AND DUP2 SUB PUSH2 0x4BB JUMPI PUSH1 0x10 DUP1 SLOAD PUSH1 0x1 PUSH1 0x1 PUSH1 0xA0 SHL SUB AND PUSH1 0xA0 SWAP3 SWAP1 SWAP3 SHL PUSH1 0x1 PUSH1 0x1 PUSH1 0xA0 SHL SUB NOT AND SWAP2 SWAP1 SWAP2 OR SWAP1 SSTORE JUMP JUMPDEST SWAP1 PUSH1 0xC0 DUP1 PUSH2 0x104D SWAP4 PUSH1 0x1 PUSH1 0x1 PUSH1 0x50 SHL SUB DUP2 MLOAD AND DUP5 MSTORE PUSH3 0xFFFFFF PUSH1 0x20 DUP3 ADD MLOAD AND PUSH1 0x20 DUP6 ADD MSTORE PUSH5 0xFFFFFFFFFF PUSH1 0x40 DUP3 ADD MLOAD AND PUSH1 0x40 DUP6 ADD MSTORE PUSH5 0xFFFFFFFFFF PUSH1 0x60 DUP3 ADD MLOAD AND PUSH1 0x60 DUP6 ADD MSTORE PUSH5 0xFFFFFFFFFF PUSH1 0x80 DUP3 ADD MLOAD AND PUSH1 0x80 DUP6 ADD MSTORE PUSH2 0x3BB6 PUSH1 0xA0 DUP3 ADD MLOAD PUSH1 0xA0 DUP7 ADD SWAP1 PUSH2 0xFFFF AND SWAP1 MSTORE JUMP JUMPDEST ADD MLOAD PUSH2 0xFFFF AND SWAP2 ADD MSTORE JUMP JUMPDEST PUSH2 0x3BC9 PUSH2 0x4A26 JUMP JUMPDEST PUSH2 0x3BD2 DUP2 PUSH2 0x4A61 JUMP JUMPDEST PUSH1 0x1 PUSH1 0x1 PUSH1 0xA0 SHL SUB AND SWAP2 DUP3 EXTCODESIZE ISZERO PUSH2 0x4BB JUMPI PUSH1 0x40 MLOAD PUSH4 0x9A7002F PUSH1 0xE3 SHL DUP2 MSTORE PUSH1 0x1 PUSH1 0x1 PUSH1 0xA0 SHL SUB SWAP1 SWAP3 AND PUSH1 0x4 DUP4 ADD MSTORE SWAP1 SWAP2 PUSH0 SWAP2 DUP4 SWAP2 PUSH2 0x104 SWAP2 DUP4 SWAP2 DUP6 SWAP2 PUSH2 0x3C1C SWAP1 PUSH1 0x24 DUP6 ADD SWAP1 PUSH2 0x3B4A JUMP JUMPDEST GAS CALL DUP1 ISZERO PUSH2 0xA0F JUMPI PUSH2 0x3C2B JUMPI POP JUMP JUMPDEST PUSH0 PUSH2 0x104D SWAP2 PUSH2 0x101D JUMP JUMPDEST PUSH0 JUMPDEST DUP3 DUP2 LT PUSH2 0x3C43 JUMPI POP POP POP JUMP JUMPDEST PUSH0 DUP3 DUP3 ADD SSTORE PUSH1 0x1 ADD PUSH2 0x3C37 JUMP JUMPDEST PUSH1 0x1F DUP2 GT PUSH2 0x3C5C JUMPI POP POP JUMP JUMPDEST DUP2 DUP2 GT PUSH2 0x3C67 JUMPI POP POP JUMP JUMPDEST PUSH1 0xD PUSH0 MSTORE PUSH2 0x104D SWAP2 PUSH32 0xD7B6990105719101DABEB77144F2A3385C8033ACD3AF97E9423A695E81AD1EB5 SWAP2 PUSH1 0x1F DUP3 ADD PUSH1 0x5 SHR SWAP2 PUSH1 0x20 GT PUSH2 0x3CB1 JUMPI JUMPDEST PUSH1 0x1F DUP3 SWAP2 ADD PUSH1 0x5 SHR SUB SWAP2 ADD PUSH2 0x3C35 JUMP JUMPDEST PUSH0 SWAP2 POP PUSH2 0x3CA1 JUMP JUMPDEST PUSH1 0x1F DUP2 GT PUSH2 0x3CC5 JUMPI POP POP JUMP JUMPDEST DUP2 DUP2 GT PUSH2 0x3CD0 JUMPI POP POP JUMP JUMPDEST PUSH1 0xE PUSH0 MSTORE PUSH2 0x104D SWAP2 PUSH32 0xBB7B4A454DC3493923482F07822329ED19E8244EFF582CC204F8554C3620C3FD SWAP2 PUSH1 0x1F DUP3 ADD PUSH1 0x5 SHR SWAP2 PUSH1 0x20 GT PUSH2 0x3CB1 JUMPI PUSH1 0x1F DUP3 SWAP2 ADD PUSH1 0x5 SHR SUB SWAP2 ADD PUSH2 0x3C35 JUMP JUMPDEST SWAP2 PUSH1 0x1F DUP3 GT PUSH2 0x3D27 JUMPI POP POP POP JUMP JUMPDEST DUP1 DUP3 GT PUSH2 0x3D33 JUMPI POP POP POP JUMP JUMPDEST PUSH2 0x104D SWAP3 PUSH0 MSTORE PUSH1 0x20 PUSH0 KECCAK256 SWAP2 PUSH1 0x20 PUSH1 0x1F DUP4 ADD PUSH1 0x5 SHR SWAP3 LT PUSH2 0x3CB1 JUMPI PUSH1 0x1F DUP3 SWAP2 ADD PUSH1 0x5 SHR SUB SWAP2 ADD PUSH2 0x3C35 JUMP JUMPDEST PUSH0 NOT DUP2 ADD SWAP2 SWAP1 DUP3 GT PUSH2 0xB14 JUMPI JUMP JUMPDEST PUSH1 0x1 PUSH1 0x1 PUSH1 0xA0 SHL SUB AND DUP1 ISZERO PUSH2 0x3D92 JUMPI PUSH0 MSTORE PUSH1 0x5 PUSH1 0x20 MSTORE PUSH1 0x1 PUSH1 0x1 PUSH1 0x40 SHL SUB PUSH1 0x40 PUSH0 KECCAK256 SLOAD AND SWAP1 JUMP JUMPDEST PUSH4 0x23D3AD81 PUSH1 0xE2 SHL PUSH0 MSTORE PUSH1 0x4 PUSH0 REVERT JUMPDEST SWAP2 PUSH1 0x20 PUSH2 0x60D SWAP4 DUP2 DUP2 MSTORE ADD SWAP2 PUSH2 0x39AF JUMP JUMPDEST CALLDATALOAD SWAP1 PUSH1 0xFF DUP3 AND DUP3 SUB PUSH2 0x4BB JUMPI JUMP JUMPDEST CALLDATALOAD SWAP1 PUSH4 0xFFFFFFFF DUP3 AND DUP3 SUB PUSH2 0x4BB JUMPI JUMP JUMPDEST PUSH1 0x44 CALLDATALOAD SWAP1 PUSH1 0x1 PUSH1 0x1 PUSH1 0x50 SHL SUB DUP3 AND DUP3 SUB PUSH2 0x4BB JUMPI PUSH1 0x1 PUSH1 0x1 PUSH1 0x50 SHL SUB PUSH2 0x104D SWAP3 AND DUP2 MSTORE PUSH2 0xFFFF PUSH2 0x3E01 PUSH1 0x64 PUSH2 0x110C JUMP JUMPDEST AND PUSH1 0x20 DUP3 ADD MSTORE PUSH6 0xFFFFFFFFFFFF PUSH1 0x84 CALLDATALOAD PUSH2 0x3E1A DUP2 PUSH2 0x3778 JUMP JUMPDEST AND PUSH1 0x40 DUP3 ADD MSTORE PUSH2 0x3E3C PUSH2 0x3E2D PUSH1 0xA4 PUSH2 0x3788 JUMP JUMPDEST PUSH6 0xFFFFFFFFFFFF AND PUSH1 0x60 DUP4 ADD MSTORE JUMP JUMPDEST PUSH2 0x3E53 PUSH2 0x3E49 PUSH1 0xC4 PUSH2 0x3DB2 JUMP JUMPDEST PUSH1 0xFF AND PUSH1 0x80 DUP4 ADD MSTORE JUMP JUMPDEST PUSH2 0x3E6D PUSH2 0x3E60 PUSH1 0xE4 PUSH2 0x3DC0 JUMP JUMPDEST PUSH4 0xFFFFFFFF AND PUSH1 0xA0 DUP4 ADD MSTORE JUMP JUMPDEST PUSH2 0x3E86 PUSH2 0x3E7B PUSH2 0x104 PUSH2 0x110C JUMP JUMPDEST PUSH2 0xFFFF AND PUSH1 0xC0 DUP4 ADD MSTORE JUMP JUMPDEST PUSH1 0xE0 PUSH2 0x381A PUSH2 0x124 PUSH2 0x8F0 JUMP JUMPDEST SWAP1 CALLDATALOAD SWAP1 PUSH1 0x1E NOT DUP2 CALLDATASIZE SUB ADD DUP3 SLT ISZERO PUSH2 0x4BB JUMPI ADD DUP1 CALLDATALOAD SWAP1 PUSH1 0x1 PUSH1 0x1 PUSH1 0x40 SHL SUB DUP3 GT PUSH2 0x4BB JUMPI PUSH1 0x20 ADD SWAP2 DUP2 CALLDATASIZE SUB DUP4 SGT PUSH2 0x4BB JUMPI JUMP JUMPDEST CALLDATALOAD PUSH2 0x60D DUP2 PUSH2 0x3778 JUMP JUMPDEST PUSH1 0xC0 PUSH2 0x381A PUSH1 0xA0 PUSH2 0x104D SWAP5 SWAP7 SWAP6 PUSH1 0xE0 DUP6 ADD SWAP8 PUSH1 0x1 DUP1 DUP5 SHL SUB AND DUP6 MSTORE PUSH1 0x1 PUSH1 0x1 PUSH1 0x50 SHL SUB PUSH2 0x3EFB DUP3 PUSH2 0x1065 JUMP JUMPDEST AND PUSH1 0x20 DUP7 ADD MSTORE PUSH6 0xFFFFFFFFFFFF PUSH1 0x20 DUP3 ADD CALLDATALOAD PUSH2 0x3F16 DUP2 PUSH2 0x3778 JUMP JUMPDEST AND PUSH1 0x40 DUP7 ADD MSTORE PUSH6 0xFFFFFFFFFFFF PUSH1 0x40 DUP3 ADD CALLDATALOAD PUSH2 0x3F31 DUP2 PUSH2 0x3778 JUMP JUMPDEST AND PUSH1 0x60 DUP7 ADD MSTORE PUSH2 0xFFFF PUSH2 0x3F46 PUSH1 0x60 DUP4 ADD PUSH2 0x110C JUMP JUMPDEST AND PUSH1 0x80 DUP7 ADD MSTORE PUSH2 0xFFFF PUSH2 0x3F5B PUSH1 0x80 DUP4 ADD PUSH2 0x110C JUMP JUMPDEST AND DUP3 DUP7 ADD MSTORE ADD PUSH2 0x8F0 JUMP JUMPDEST PUSH1 0x1 PUSH1 0x1 PUSH1 0xA0 SHL SUB SWAP1 SWAP2 AND DUP2 MSTORE PUSH1 0x40 PUSH1 0x20 DUP3 ADD DUP2 SWAP1 MSTORE PUSH2 0x60D SWAP4 SWAP2 ADD SWAP2 PUSH2 0x39AF JUMP JUMPDEST SWAP1 CALLDATALOAD SWAP1 PUSH1 0x5E NOT DUP2 CALLDATASIZE SUB ADD DUP3 SLT ISZERO PUSH2 0x4BB JUMPI ADD SWAP1 JUMP JUMPDEST PUSH1 0x1 PUSH1 0x1 PUSH1 0xA0 SHL SUB SWAP1 SWAP2 AND DUP2 MSTORE PUSH1 0x40 PUSH1 0x20 DUP3 ADD DUP2 SWAP1 MSTORE PUSH2 0x60D SWAP3 SWAP2 ADD SWAP1 PUSH2 0x3A00 JUMP JUMPDEST SWAP1 CALLDATALOAD SWAP1 PUSH1 0x1E NOT DUP2 CALLDATASIZE SUB ADD DUP3 SLT ISZERO PUSH2 0x4BB JUMPI ADD DUP1 CALLDATALOAD SWAP1 PUSH1 0x1 PUSH1 0x1 PUSH1 0x40 SHL SUB DUP3 GT PUSH2 0x4BB JUMPI PUSH1 0x20 ADD SWAP2 DUP2 PUSH1 0x5 SHL CALLDATASIZE SUB DUP4 SGT PUSH2 0x4BB JUMPI JUMP JUMPDEST PUSH4 0x4E487B71 PUSH1 0xE0 SHL PUSH0 MSTORE PUSH1 0x32 PUSH1 0x4 MSTORE PUSH1 0x24 PUSH0 REVERT JUMPDEST SWAP2 SWAP1 DUP2 LT ISZERO PUSH2 0x162B JUMPI PUSH1 0x5 SHL ADD SWAP1 JUMP JUMPDEST SWAP1 CALLDATALOAD SWAP1 PUSH1 0x1E NOT DUP2 CALLDATASIZE SUB ADD DUP3 SLT ISZERO PUSH2 0x4BB JUMPI ADD DUP1 CALLDATALOAD SWAP1 PUSH1 0x1 PUSH1 0x1 PUSH1 0x40 SHL SUB DUP3 GT PUSH2 0x4BB JUMPI PUSH1 0x20 ADD SWAP2 DUP2 PUSH1 0x8 SHL CALLDATASIZE SUB DUP4 SGT PUSH2 0x4BB JUMPI JUMP JUMPDEST SWAP2 SWAP1 DUP2 LT ISZERO PUSH2 0x162B JUMPI PUSH1 0x8 SHL ADD SWAP1 JUMP JUMPDEST PUSH1 0x1 PUSH1 0x1 PUSH1 0xA0 SHL SUB SWAP2 DUP3 AND DUP2 MSTORE SWAP2 AND PUSH1 0x20 DUP3 ADD MSTORE PUSH2 0x140 DUP2 ADD SWAP3 SWAP2 PUSH2 0x104D SWAP2 SWAP1 PUSH2 0x120 SWAP1 PUSH2 0x381A SWAP1 PUSH1 0xE0 SWAP1 PUSH1 0x1 PUSH1 0x1 PUSH1 0x50 SHL SUB PUSH2 0x4099 DUP3 PUSH2 0x1065 JUMP JUMPDEST AND PUSH1 0x40 DUP7 ADD MSTORE PUSH2 0xFFFF PUSH2 0x40AE PUSH1 0x20 DUP4 ADD PUSH2 0x110C JUMP JUMPDEST AND PUSH1 0x60 DUP7 ADD MSTORE PUSH6 0xFFFFFFFFFFFF PUSH1 0x40 DUP3 ADD CALLDATALOAD PUSH2 0x40C9 DUP2 PUSH2 0x3778 JUMP JUMPDEST AND PUSH1 0x80 DUP7 ADD MSTORE PUSH2 0x40ED PUSH2 0x40DE PUSH1 0x60 DUP4 ADD PUSH2 0x3788 JUMP JUMPDEST PUSH6 0xFFFFFFFFFFFF AND PUSH1 0xA0 DUP8 ADD MSTORE JUMP JUMPDEST PUSH2 0x4106 PUSH2 0x40FC PUSH1 0x80 DUP4 ADD PUSH2 0x3DB2 JUMP JUMPDEST PUSH1 0xFF AND PUSH1 0xC0 DUP8 ADD MSTORE JUMP JUMPDEST PUSH2 0x4121 PUSH2 0x4115 PUSH1 0xA0 DUP4 ADD PUSH2 0x3DC0 JUMP JUMPDEST PUSH4 0xFFFFFFFF AND DUP7 DUP5 ADD MSTORE JUMP JUMPDEST PUSH2 0x413C PUSH2 0x4130 PUSH1 0xC0 DUP4 ADD PUSH2 0x110C JUMP JUMPDEST PUSH2 0xFFFF AND PUSH2 0x100 DUP8 ADD MSTORE JUMP JUMPDEST ADD PUSH2 0x8F0 JUMP JUMPDEST PUSH1 0x40 MLOAD SWAP1 PUSH2 0x100 DUP3 ADD DUP3 DUP2 LT PUSH1 0x1 PUSH1 0x1 PUSH1 0x40 SHL SUB DUP3 GT OR PUSH2 0xFFD JUMPI PUSH1 0x40 MSTORE PUSH0 PUSH1 0xE0 DUP4 DUP3 DUP2 MSTORE DUP3 PUSH1 0x20 DUP3 ADD MSTORE DUP3 PUSH1 0x40 DUP3 ADD MSTORE DUP3 PUSH1 0x60 DUP3 ADD MSTORE DUP3 PUSH1 0x80 DUP3 ADD MSTORE DUP3 PUSH1 0xA0 DUP3 ADD MSTORE DUP3 PUSH1 0xC0 DUP3 ADD MSTORE ADD MSTORE JUMP JUMPDEST SWAP1 SWAP4 SWAP3 PUSH1 0xE0 PUSH2 0x120 SWAP2 PUSH2 0x104D SWAP5 PUSH2 0x140 DUP6 ADD SWAP8 PUSH1 0x1 DUP1 PUSH1 0xA0 SHL SUB AND DUP6 MSTORE PUSH1 0x1 DUP1 PUSH1 0xA0 SHL SUB AND PUSH1 0x20 DUP6 ADD MSTORE PUSH1 0x1 PUSH1 0x1 PUSH1 0x50 SHL SUB DUP2 MLOAD AND PUSH1 0x40 DUP6 ADD MSTORE PUSH2 0xFFFF PUSH1 0x20 DUP3 ADD MLOAD AND PUSH1 0x60 DUP6 ADD MSTORE PUSH6 0xFFFFFFFFFFFF PUSH1 0x40 DUP3 ADD MLOAD AND PUSH1 0x80 DUP6 ADD MSTORE PUSH2 0x4202 PUSH1 0x60 DUP3 ADD MLOAD PUSH1 0xA0 DUP7 ADD SWAP1 PUSH6 0xFFFFFFFFFFFF AND SWAP1 MSTORE JUMP JUMPDEST PUSH1 0x80 DUP2 ADD MLOAD PUSH1 0xFF AND PUSH1 0xC0 DUP6 ADD MSTORE PUSH1 0xA0 DUP2 ADD MLOAD PUSH4 0xFFFFFFFF AND DUP5 DUP4 ADD MSTORE PUSH1 0xC0 DUP2 ADD MLOAD PUSH2 0xFFFF AND PUSH2 0x100 DUP6 ADD MSTORE ADD MLOAD ISZERO ISZERO SWAP2 ADD MSTORE JUMP JUMPDEST SWAP1 CALLDATALOAD SWAP1 PUSH1 0x1E NOT DUP2 CALLDATASIZE SUB ADD DUP3 SLT ISZERO PUSH2 0x4BB JUMPI ADD DUP1 CALLDATALOAD SWAP1 PUSH1 0x1 PUSH1 0x1 PUSH1 0x40 SHL SUB DUP3 GT PUSH2 0x4BB JUMPI PUSH1 0x20 ADD SWAP2 PUSH1 0xE0 DUP3 MUL CALLDATASIZE SUB DUP4 SGT PUSH2 0x4BB JUMPI JUMP JUMPDEST SWAP2 SWAP1 DUP2 LT ISZERO PUSH2 0x162B JUMPI PUSH1 0xE0 MUL ADD SWAP1 JUMP JUMPDEST PUSH1 0x1 PUSH1 0x1 PUSH1 0xA0 SHL SUB SWAP2 DUP3 AND DUP2 MSTORE SWAP2 AND PUSH1 0x20 DUP3 ADD MSTORE PUSH2 0x120 DUP2 ADD SWAP3 SWAP2 PUSH2 0x104D SWAP2 SWAP1 PUSH2 0x100 SWAP1 PUSH2 0x433A SWAP1 PUSH1 0xC0 SWAP1 PUSH1 0x1 PUSH1 0x1 PUSH1 0x50 SHL SUB PUSH2 0x42B7 DUP3 PUSH2 0x1065 JUMP JUMPDEST AND PUSH1 0x40 DUP7 ADD MSTORE PUSH3 0xFFFFFF PUSH2 0x42CD PUSH1 0x20 DUP4 ADD PUSH2 0x108B JUMP JUMPDEST AND PUSH1 0x60 DUP7 ADD MSTORE PUSH5 0xFFFFFFFFFF PUSH2 0x42E5 PUSH1 0x40 DUP4 ADD PUSH2 0x10D7 JUMP JUMPDEST AND PUSH1 0x80 DUP7 ADD MSTORE PUSH5 0xFFFFFFFFFF PUSH2 0x42FD PUSH1 0x60 DUP4 ADD PUSH2 0x10D7 JUMP JUMPDEST AND PUSH1 0xA0 DUP7 ADD MSTORE PUSH5 0xFFFFFFFFFF PUSH2 0x4315 PUSH1 0x80 DUP4 ADD PUSH2 0x10D7 JUMP JUMPDEST AND DUP3 DUP7 ADD MSTORE PUSH2 0x4334 PUSH2 0x4329 PUSH1 0xA0 DUP4 ADD PUSH2 0x110C JUMP JUMPDEST PUSH2 0xFFFF AND PUSH1 0xE0 DUP8 ADD MSTORE JUMP JUMPDEST ADD PUSH2 0x110C JUMP JUMPDEST PUSH2 0xFFFF AND SWAP2 ADD MSTORE JUMP JUMPDEST PUSH1 0x40 MLOAD SWAP1 PUSH2 0x4350 DUP3 PUSH2 0xFE2 JUMP JUMPDEST PUSH0 PUSH1 0xC0 DUP4 DUP3 DUP2 MSTORE DUP3 PUSH1 0x20 DUP3 ADD MSTORE DUP3 PUSH1 0x40 DUP3 ADD MSTORE DUP3 PUSH1 0x60 DUP3 ADD MSTORE DUP3 PUSH1 0x80 DUP3 ADD MSTORE DUP3 PUSH1 0xA0 DUP3 ADD MSTORE ADD MSTORE JUMP JUMPDEST PUSH1 0x1 PUSH1 0x1 PUSH1 0xA0 SHL SUB SWAP2 DUP3 AND DUP2 MSTORE SWAP2 AND PUSH1 0x20 DUP3 ADD MSTORE PUSH2 0x120 DUP2 ADD SWAP3 SWAP2 PUSH2 0x104D SWAP2 PUSH1 0x40 ADD SWAP1 PUSH2 0x3B4A JUMP JUMPDEST SWAP3 SWAP2 SWAP1 PUSH2 0x43AF DUP3 DUP3 DUP7 PUSH2 0x382C JUMP JUMPDEST DUP1 EXTCODESIZE PUSH2 0x43BC JUMPI JUMPDEST POP POP POP POP JUMP JUMPDEST PUSH2 0x43C5 SWAP4 PUSH2 0x5033 JUMP JUMPDEST ISZERO PUSH2 0x43D3 JUMPI PUSH0 DUP1 DUP1 DUP1 PUSH2 0x43B6 JUMP JUMPDEST PUSH4 0x68D2BF6B PUSH1 0xE1 SHL PUSH0 MSTORE PUSH1 0x4 PUSH0 REVERT JUMPDEST PUSH1 0x40 MLOAD SWAP1 PUSH1 0x80 DUP3 ADD DUP3 DUP2 LT PUSH1 0x1 PUSH1 0x1 PUSH1 0x40 SHL SUB DUP3 GT OR PUSH2 0xFFD JUMPI PUSH1 0x40 MSTORE PUSH0 PUSH1 0x60 DUP4 DUP3 DUP2 MSTORE DUP3 PUSH1 0x20 DUP3 ADD MSTORE DUP3 PUSH1 0x40 DUP3 ADD MSTORE ADD MSTORE JUMP JUMPDEST SWAP1 PUSH2 0x441F PUSH2 0x43E2 JUMP JUMPDEST SWAP2 PUSH1 0x1 DUP2 LT ISZERO PUSH2 0x442C JUMPI POP JUMP JUMPDEST PUSH0 SLOAD DUP2 LT PUSH2 0x4437 JUMPI POP JUMP JUMPDEST SWAP1 SWAP2 POP JUMPDEST DUP1 PUSH0 MSTORE PUSH1 0x4 PUSH1 0x20 MSTORE PUSH1 0x40 PUSH0 KECCAK256 SLOAD PUSH2 0x4454 JUMPI PUSH0 NOT ADD PUSH2 0x443B JUMP JUMPDEST PUSH2 0x60D SWAP1 PUSH2 0x505B JUMP JUMPDEST SWAP1 DUP2 MLOAD DUP2 LT ISZERO PUSH2 0x162B JUMPI ADD PUSH1 0x20 ADD SWAP1 JUMP JUMPDEST SWAP2 SWAP1 SWAP2 DUP3 MLOAD PUSH1 0x1 PUSH1 0x1 PUSH1 0x40 SHL SUB DUP2 GT PUSH2 0xFFD JUMPI PUSH2 0x4495 DUP2 PUSH2 0x448F DUP5 SLOAD PUSH2 0x33D5 JUMP JUMPDEST DUP5 PUSH2 0x3D19 JUMP JUMPDEST PUSH1 0x20 PUSH1 0x1F DUP3 GT PUSH1 0x1 EQ PUSH2 0x44D3 JUMPI DUP2 SWAP1 PUSH2 0x44C4 SWAP4 SWAP5 SWAP6 PUSH0 SWAP3 PUSH2 0x44C8 JUMPI POP POP DUP2 PUSH1 0x1 SHL SWAP2 PUSH0 NOT SWAP1 PUSH1 0x3 SHL SHR NOT AND OR SWAP1 JUMP JUMPDEST SWAP1 SSTORE JUMP JUMPDEST ADD MLOAD SWAP1 POP PUSH0 DUP1 PUSH2 0x126C JUMP JUMPDEST PUSH1 0x1F NOT DUP3 AND SWAP1 PUSH2 0x44E6 DUP5 PUSH0 MSTORE PUSH1 0x20 PUSH0 KECCAK256 SWAP1 JUMP JUMPDEST SWAP2 PUSH0 JUMPDEST DUP2 DUP2 LT PUSH2 0x4520 JUMPI POP SWAP6 DUP4 PUSH1 0x1 SWAP6 SWAP7 SWAP8 LT PUSH2 0x4508 JUMPI JUMPDEST POP POP POP DUP2 SHL ADD SWAP1 SSTORE JUMP JUMPDEST ADD MLOAD PUSH0 NOT PUSH1 0xF8 DUP5 PUSH1 0x3 SHL AND SHR NOT AND SWAP1 SSTORE PUSH0 DUP1 DUP1 PUSH2 0x44FE JUMP JUMPDEST SWAP2 SWAP3 PUSH1 0x20 PUSH1 0x1 DUP2 SWAP3 DUP7 DUP12 ADD MLOAD DUP2 SSTORE ADD SWAP5 ADD SWAP3 ADD PUSH2 0x44E9 JUMP JUMPDEST DUP1 MLOAD SWAP2 SWAP1 DUP3 SWAP1 PUSH1 0x20 ADD DUP3 MCOPY ADD PUSH0 DUP2 MSTORE SWAP1 JUMP JUMPDEST PUSH2 0x455A SWAP1 PUSH1 0x40 MLOAD SWAP2 DUP3 DUP1 SWAP3 PUSH2 0x4538 JUMP JUMPDEST SUB SWAP1 KECCAK256 SWAP1 JUMP JUMPDEST SWAP2 DUP2 MLOAD DUP1 ISZERO ISZERO SWAP1 DUP2 PUSH2 0x4767 JUMPI JUMPDEST POP ISZERO PUSH2 0x4758 JUMPI PUSH0 JUMPDEST DUP3 MLOAD DUP2 LT ISZERO PUSH2 0x46E2 JUMPI PUSH2 0x45A9 PUSH2 0x459C PUSH2 0x458E DUP4 DUP7 PUSH2 0x445D JUMP JUMPDEST MLOAD PUSH1 0x1 PUSH1 0x1 PUSH1 0xF8 SHL SUB NOT AND SWAP1 JUMP JUMPDEST PUSH1 0x1 PUSH1 0x1 PUSH1 0xF8 SHL SUB NOT AND SWAP1 JUMP JUMPDEST PUSH1 0x3 PUSH1 0xFC SHL DUP2 LT ISZERO SWAP1 DUP2 PUSH2 0x46D3 JUMPI JUMPDEST DUP2 ISZERO PUSH2 0x46AF JUMPI JUMPDEST DUP2 ISZERO PUSH2 0x468B JUMPI JUMPDEST DUP2 ISZERO PUSH2 0x4640 JUMPI JUMPDEST DUP2 ISZERO PUSH2 0x45F1 JUMPI JUMPDEST POP ISZERO PUSH2 0x45E2 JUMPI PUSH1 0x1 ADD PUSH2 0x4575 JUMP JUMPDEST PUSH4 0xA23EF83B PUSH1 0xE0 SHL PUSH0 MSTORE PUSH1 0x4 PUSH0 REVERT JUMPDEST PUSH1 0x3F PUSH1 0xF8 SHL DUP2 EQ SWAP2 POP DUP2 ISZERO PUSH2 0x4632 JUMPI JUMPDEST DUP2 ISZERO PUSH2 0x4624 JUMPI JUMPDEST DUP2 ISZERO PUSH2 0x4616 JUMPI JUMPDEST POP PUSH0 PUSH2 0x45D4 JUMP JUMPDEST PUSH1 0x27 PUSH1 0xF8 SHL EQ SWAP1 POP PUSH0 PUSH2 0x460F JUMP JUMPDEST PUSH1 0x13 PUSH1 0xF9 SHL DUP2 EQ SWAP2 POP PUSH2 0x4608 JUMP JUMPDEST PUSH1 0x5F PUSH1 0xF8 SHL DUP2 EQ SWAP2 POP PUSH2 0x4601 JUMP JUMPDEST SWAP1 POP PUSH1 0x1 PUSH1 0xFD SHL DUP2 EQ DUP1 ISZERO PUSH2 0x467E JUMPI JUMPDEST DUP1 ISZERO PUSH2 0x4671 JUMPI JUMPDEST DUP1 ISZERO PUSH2 0x4664 JUMPI JUMPDEST SWAP1 PUSH2 0x45CD JUMP JUMPDEST POP PUSH1 0x17 PUSH1 0xF9 SHL DUP2 EQ PUSH2 0x465E JUMP JUMPDEST POP PUSH1 0x2D PUSH1 0xF8 SHL DUP2 EQ PUSH2 0x4657 JUMP JUMPDEST POP PUSH1 0x21 PUSH1 0xF8 SHL DUP2 EQ PUSH2 0x4650 JUMP JUMPDEST SWAP1 POP PUSH1 0x61 PUSH1 0xF8 SHL DUP2 LT ISZERO DUP1 PUSH2 0x46A1 JUMPI JUMPDEST SWAP1 PUSH2 0x45C6 JUMP JUMPDEST POP PUSH1 0x3D PUSH1 0xF9 SHL DUP2 GT ISZERO PUSH2 0x469B JUMP JUMPDEST SWAP1 POP PUSH1 0x41 PUSH1 0xF8 SHL DUP2 LT ISZERO DUP1 PUSH2 0x46C5 JUMPI JUMPDEST SWAP1 PUSH2 0x45BF JUMP JUMPDEST POP PUSH1 0x2D PUSH1 0xF9 SHL DUP2 GT ISZERO PUSH2 0x46BF JUMP JUMPDEST PUSH1 0x39 PUSH1 0xF8 SHL DUP2 GT ISZERO SWAP2 POP PUSH2 0x45B8 JUMP JUMPDEST POP SWAP2 PUSH2 0x4702 DUP3 PUSH1 0x1 PUSH2 0x46FC DUP5 PUSH0 MSTORE PUSH1 0x17 PUSH1 0x20 MSTORE PUSH1 0x40 PUSH0 KECCAK256 SWAP1 JUMP JUMPDEST ADD PUSH2 0x446E JUMP JUMPDEST PUSH1 0x40 DUP1 MLOAD DUP3 DUP2 MSTORE PUSH1 0x20 DUP2 ADD DUP4 SWAP1 MSTORE PUSH0 MLOAD PUSH1 0x20 PUSH2 0x5823 PUSH0 CODECOPY PUSH0 MLOAD SWAP1 PUSH0 MSTORE SWAP2 DUP2 SWAP1 DUP2 ADD JUMPDEST SUB SWAP1 LOG1 PUSH2 0x4731 CALLER SWAP3 PUSH2 0x454A JUMP JUMPDEST SWAP1 PUSH32 0x27FAC8F362F0993DF8069600BAC492702D7C0D77D65545716BF8B7ACD95F0214 PUSH0 DUP1 LOG4 JUMP JUMPDEST PUSH4 0x4E9A61E5 PUSH1 0xE1 SHL PUSH0 MSTORE PUSH1 0x4 PUSH0 REVERT JUMPDEST PUSH1 0x20 SWAP2 POP GT ISZERO PUSH0 PUSH2 0x456D JUMP JUMPDEST SWAP1 PUSH1 0x5 DUP2 LT ISZERO PUSH2 0x47EB JUMPI PUSH0 DUP3 DUP2 MSTORE PUSH1 0x17 PUSH1 0x20 MSTORE PUSH1 0x40 SWAP1 KECCAK256 DUP1 SLOAD PUSH3 0xFF0000 NOT AND PUSH1 0x10 DUP4 SWAP1 SHL PUSH3 0xFF0000 AND OR SWAP1 SSTORE PUSH1 0x40 DUP1 MLOAD DUP4 DUP2 MSTORE PUSH1 0x20 DUP2 ADD DUP5 SWAP1 MSTORE PUSH0 MLOAD PUSH1 0x20 PUSH2 0x5823 PUSH0 CODECOPY PUSH0 MLOAD SWAP1 PUSH0 MSTORE SWAP2 DUP2 SWAP1 DUP2 ADD SUB SWAP1 LOG1 CALLER SWAP2 PUSH32 0x717EA6D16CD5B1ADADF0580BB4B4EBBE47B8329C34AE1D20B2A3505B0B45121B PUSH0 DUP1 LOG4 JUMP JUMPDEST PUSH4 0xACCE9F57 PUSH1 0xE0 SHL PUSH0 MSTORE PUSH1 0x4 PUSH0 REVERT JUMPDEST PUSH1 0x1 PUSH1 0x1 PUSH1 0xA0 SHL SUB DUP3 AND PUSH20 0x1E0049783F008A0085193E00003D00CD54003C71 EQ PUSH2 0x484C JUMPI PUSH1 0x1 PUSH1 0x1 PUSH1 0xA0 SHL SUB SWAP1 DUP2 AND PUSH0 SWAP1 DUP2 MSTORE PUSH1 0x7 PUSH1 0x20 SWAP1 DUP2 MSTORE PUSH1 0x40 DUP1 DUP4 KECCAK256 SWAP4 SWAP1 SWAP5 AND DUP3 MSTORE SWAP2 SWAP1 SWAP2 MSTORE KECCAK256 PUSH1 0xFF SWAP1 SLOAD AND SWAP1 JUMP JUMPDEST POP POP PUSH1 0x1 SWAP1 JUMP JUMPDEST SWAP1 PUSH2 0x104D PUSH2 0x487F SWAP3 PUSH1 0x40 MLOAD SWAP4 DUP5 SWAP2 PUSH11 0x526574726F50756E6B2023 PUSH1 0xA8 SHL PUSH1 0x20 DUP5 ADD MSTORE PUSH1 0x2B DUP4 ADD SWAP1 PUSH2 0x4538 JUMP JUMPDEST SUB PUSH1 0x1F NOT DUP2 ADD DUP5 MSTORE DUP4 PUSH2 0x101D JUMP JUMPDEST PUSH2 0x489E PUSH2 0x4899 DUP3 PUSH2 0x53B0 JUMP JUMPDEST PUSH2 0x4853 JUMP JUMPDEST SWAP1 DUP1 PUSH0 MSTORE PUSH1 0x17 PUSH1 0x20 MSTORE PUSH1 0x1 PUSH1 0x40 PUSH0 KECCAK256 ADD DUP3 MLOAD PUSH1 0x1 PUSH1 0x1 PUSH1 0x40 SHL SUB DUP2 GT PUSH2 0xFFD JUMPI PUSH2 0x48CC DUP2 PUSH2 0x448F DUP5 SLOAD PUSH2 0x33D5 JUMP JUMPDEST PUSH1 0x20 PUSH1 0x1F DUP3 GT PUSH1 0x1 EQ PUSH2 0x492B JUMPI SWAP1 DUP1 PUSH2 0x48F8 SWAP3 PUSH0 SWAP2 PUSH2 0x4920 JUMPI POP DUP2 PUSH1 0x1 SHL SWAP2 PUSH0 NOT SWAP1 PUSH1 0x3 SHL SHR NOT AND OR SWAP1 JUMP JUMPDEST SWAP1 SSTORE PUSH1 0x40 DUP1 MLOAD DUP3 DUP2 MSTORE PUSH1 0x20 DUP2 ADD DUP4 SWAP1 MSTORE PUSH0 MLOAD PUSH1 0x20 PUSH2 0x5823 PUSH0 CODECOPY PUSH0 MLOAD SWAP1 PUSH0 MSTORE SWAP2 DUP2 SWAP1 DUP2 ADD PUSH2 0x4724 JUMP JUMPDEST SWAP1 POP DUP6 ADD MLOAD PUSH0 PUSH2 0x2A3E JUMP JUMPDEST PUSH1 0x1F NOT DUP3 AND SWAP1 PUSH2 0x493E DUP5 PUSH0 MSTORE PUSH1 0x20 PUSH0 KECCAK256 SWAP1 JUMP JUMPDEST SWAP2 PUSH0 JUMPDEST DUP2 DUP2 LT PUSH2 0x497A JUMPI POP SWAP1 DUP4 PUSH1 0x1 SWAP5 SWAP4 SWAP3 LT PUSH2 0x4962 JUMPI JUMPDEST POP POP DUP2 SHL ADD SWAP1 SSTORE PUSH2 0x4702 JUMP JUMPDEST DUP7 ADD MLOAD PUSH0 NOT PUSH1 0xF8 DUP5 PUSH1 0x3 SHL AND SHR NOT AND SWAP1 SSTORE PUSH0 DUP1 PUSH2 0x4956 JUMP JUMPDEST SWAP2 SWAP3 PUSH1 0x20 PUSH1 0x1 DUP2 SWAP3 DUP7 DUP12 ADD MLOAD DUP2 SSTORE ADD SWAP5 ADD SWAP3 ADD PUSH2 0x4941 JUMP JUMPDEST SWAP1 PUSH0 SWAP2 DUP1 PUSH1 0x1 GT ISZERO PUSH2 0x49A1 JUMPI POP JUMP JUMPDEST PUSH0 SLOAD DUP2 LT PUSH2 0x49AC JUMPI POP JUMP JUMPDEST SWAP1 SWAP2 POP JUMPDEST DUP1 PUSH0 MSTORE PUSH1 0x4 PUSH1 0x20 MSTORE PUSH1 0x40 PUSH0 KECCAK256 SLOAD DUP1 PUSH2 0x49D1 JUMPI POP DUP1 ISZERO PUSH2 0xB14 JUMPI PUSH0 NOT ADD PUSH2 0x49B0 JUMP JUMPDEST PUSH1 0x1 PUSH1 0xE0 SHL AND ISZERO SWAP2 SWAP1 POP JUMP JUMPDEST PUSH4 0x2CE44B5F PUSH1 0xE1 SHL PUSH0 MSTORE PUSH1 0x4 PUSH0 REVERT JUMPDEST PUSH3 0xA11481 PUSH1 0xE8 SHL PUSH0 MSTORE PUSH1 0x4 PUSH0 REVERT JUMPDEST PUSH4 0x3A954ECD PUSH1 0xE2 SHL PUSH0 MSTORE PUSH1 0x4 PUSH0 REVERT JUMPDEST PUSH4 0x6F96CDA1 PUSH1 0xE1 SHL PUSH0 MSTORE PUSH1 0x4 PUSH0 REVERT JUMPDEST PUSH3 0x2E0763 PUSH1 0xE8 SHL PUSH0 MSTORE PUSH1 0x4 PUSH0 REVERT JUMPDEST PUSH1 0x1 DUP1 PUSH1 0xA0 SHL SUB PUSH1 0xA SLOAD AND CALLER EQ ADDRESS CALLER EQ OR ISZERO PUSH2 0x4A3E JUMPI JUMP JUMPDEST PUSH4 0x5FC483C5 PUSH1 0xE0 SHL PUSH0 MSTORE PUSH1 0x4 PUSH0 REVERT JUMPDEST PUSH1 0xA SLOAD PUSH1 0x1 PUSH1 0x1 PUSH1 0xA0 SHL SUB AND CALLER SUB PUSH2 0x4A3E JUMPI JUMP JUMPDEST PUSH1 0x1 DUP1 PUSH1 0xA0 SHL SUB AND PUSH0 MSTORE PUSH1 0x11 PUSH1 0x20 MSTORE PUSH1 0x1 PUSH1 0xFF PUSH1 0x40 PUSH0 KECCAK256 SLOAD AND ISZERO ISZERO SUB PUSH2 0x4A83 JUMPI JUMP JUMPDEST PUSH4 0x15E26FF3 PUSH1 0xE0 SHL PUSH0 MSTORE PUSH1 0x4 PUSH0 REVERT JUMPDEST DUP1 PUSH1 0x1 GT PUSH2 0x4A09 JUMPI PUSH2 0x4AAC DUP2 PUSH0 MSTORE PUSH1 0x4 PUSH1 0x20 MSTORE PUSH1 0x40 PUSH0 KECCAK256 SWAP1 JUMP JUMPDEST SLOAD SWAP1 DUP2 ISZERO PUSH2 0x4AC3 JUMPI POP PUSH1 0x1 PUSH1 0xE0 SHL DUP2 AND PUSH2 0x4A09 JUMPI SWAP1 JUMP JUMPDEST SWAP1 POP PUSH0 SLOAD DUP2 LT ISZERO PUSH2 0x4A09 JUMPI JUMPDEST PUSH0 NOT ADD PUSH0 DUP2 DUP2 MSTORE PUSH1 0x4 PUSH1 0x20 MSTORE PUSH1 0x40 SWAP1 KECCAK256 SLOAD SWAP1 DUP2 ISZERO PUSH2 0x4AF6 JUMPI POP PUSH1 0x1 PUSH1 0xE0 SHL DUP2 AND PUSH2 0x4A09 JUMPI SWAP1 JUMP JUMPDEST SWAP1 POP PUSH2 0x4ACF JUMP JUMPDEST PUSH1 0x1 PUSH1 0x1 PUSH1 0xA0 SHL SUB DUP2 AND ISZERO ISZERO DUP1 DUP1 PUSH2 0x4BA1 JUMPI JUMPDEST PUSH2 0x817 JUMPI DUP1 PUSH2 0x4B9A JUMPI JUMPDEST PUSH2 0x4B22 JUMPI POP POP JUMP JUMPDEST PUSH1 0x9 SLOAD PUSH1 0x1 PUSH1 0x1 PUSH1 0xA0 SHL SUB AND SWAP2 DUP3 PUSH2 0x4B39 JUMPI POP POP POP JUMP JUMPDEST DUP3 EXTCODESIZE ISZERO PUSH2 0x4BB JUMPI PUSH1 0x40 MLOAD PUSH4 0x657711F5 PUSH1 0xE1 SHL DUP2 MSTORE CALLER PUSH1 0x4 DUP3 ADD MSTORE PUSH1 0x1 PUSH1 0x1 PUSH1 0xA0 SHL SUB SWAP3 SWAP1 SWAP3 AND PUSH1 0x24 DUP4 ADD MSTORE PUSH0 PUSH1 0x44 DUP4 ADD DUP2 SWAP1 MSTORE PUSH1 0x64 DUP4 ADD SWAP2 SWAP1 SWAP2 MSTORE SWAP1 SWAP2 DUP3 SWAP1 PUSH1 0x84 SWAP1 DUP3 SWAP1 GAS STATICCALL DUP1 ISZERO PUSH2 0xA0F JUMPI PUSH2 0x4B8C JUMPI POP JUMP JUMPDEST DUP1 PUSH2 0x220A PUSH0 PUSH2 0x104D SWAP4 PUSH2 0x101D JUMP JUMPDEST POP PUSH0 PUSH2 0x4B1A JUMP JUMPDEST POP PUSH1 0xFF PUSH1 0x13 SLOAD AND PUSH2 0x4B10 JUMP JUMPDEST SWAP1 SWAP2 PUSH1 0x1 PUSH1 0x1 PUSH1 0xA0 SHL SUB DUP3 AND ISZERO ISZERO DUP1 DUP1 PUSH2 0x4C68 JUMPI JUMPDEST PUSH2 0x817 JUMPI DUP1 PUSH2 0x4C56 JUMPI JUMPDEST PUSH2 0x4BD5 JUMPI POP POP POP JUMP JUMPDEST PUSH1 0x9 SLOAD PUSH1 0x1 PUSH1 0x1 PUSH1 0xA0 SHL SUB AND DUP1 PUSH2 0x4BEC JUMPI POP POP POP POP JUMP JUMPDEST DUP1 EXTCODESIZE ISZERO PUSH2 0x4BB JUMPI PUSH1 0x40 MLOAD PUSH4 0x657711F5 PUSH1 0xE1 SHL DUP2 MSTORE CALLER PUSH1 0x4 DUP3 ADD MSTORE PUSH1 0x1 PUSH1 0x1 PUSH1 0xA0 SHL SUB SWAP4 DUP5 AND PUSH1 0x24 DUP3 ADD MSTORE SWAP4 SWAP1 SWAP3 AND PUSH1 0x44 DUP5 ADD MSTORE PUSH1 0x64 DUP4 ADD MSTORE PUSH0 SWAP1 DUP3 SWAP1 PUSH1 0x84 SWAP1 DUP3 SWAP1 GAS STATICCALL DUP1 ISZERO PUSH2 0xA0F JUMPI PUSH2 0x4C42 JUMPI JUMPDEST DUP1 DUP1 DUP1 PUSH2 0x43B6 JUMP JUMPDEST DUP1 PUSH2 0x220A PUSH0 PUSH2 0x4C50 SWAP4 PUSH2 0x101D JUMP JUMPDEST PUSH0 PUSH2 0x4C3A JUMP JUMPDEST POP PUSH1 0x1 PUSH1 0x1 PUSH1 0xA0 SHL SUB DUP4 AND ISZERO ISZERO PUSH2 0x4BCC JUMP JUMPDEST POP PUSH1 0xFF PUSH1 0x13 SLOAD AND PUSH2 0x4BC2 JUMP JUMPDEST PUSH0 SLOAD PUSH0 NOT DUP3 DUP3 ADD DUP2 ADD SWAP3 SWAP2 ADD DUP3 LT PUSH2 0xB14 JUMPI PUSH1 0xC SLOAD DUP1 SWAP3 GT PUSH2 0x4C94 JUMPI POP POP JUMP JUMPDEST PUSH0 SLOAD PUSH0 NOT SWAP2 DUP2 ADD DUP3 ADD SWAP2 ADD DUP2 LT PUSH2 0xB14 JUMPI PUSH4 0x384B48C5 PUSH1 0xE2 SHL PUSH0 MSTORE PUSH1 0x4 MSTORE PUSH1 0x24 MSTORE PUSH1 0x44 PUSH0 REVERT JUMPDEST SWAP2 SWAP1 PUSH1 0x40 MLOAD SWAP1 PUSH2 0x4CCB PUSH1 0x20 DUP4 PUSH2 0x101D JUMP JUMPDEST PUSH0 DUP3 MSTORE PUSH1 0x16 SLOAD PUSH1 0xFF DUP2 AND PUSH2 0x4DD0 JUMPI PUSH1 0xFF SWAP1 PUSH2 0x4CE5 DUP4 PUSH2 0x4C74 JUMP JUMPDEST PUSH1 0x10 SHR AND ISZERO PUSH2 0x4DC1 JUMPI PUSH0 SLOAD PUSH1 0x1 SLOAD SWAP1 SUB PUSH0 NOT ADD SWAP4 DUP2 DUP6 ADD DUP1 DUP7 GT SWAP6 DUP7 JUMPDEST PUSH2 0xB14 JUMPI DUP2 DUP2 LT ISZERO PUSH2 0x4D3B JUMPI PUSH1 0x1 DUP2 ADD SWAP1 DUP2 DUP2 GT PUSH2 0xB14 JUMPI PUSH1 0xC SLOAD SWAP2 DUP2 DUP4 SUB SWAP3 DUP4 GT PUSH2 0xB14 JUMPI PUSH1 0x1 SWAP3 PUSH2 0x4D34 SWAP2 PUSH2 0x5665 JUMP JUMPDEST ADD DUP7 PUSH2 0x4D02 JUMP JUMPDEST POP POP SWAP1 SWAP2 SWAP3 SWAP4 POP PUSH2 0x4D4C DUP3 DUP3 PUSH2 0x54D6 JUMP JUMPDEST PUSH0 SLOAD PUSH0 NOT ADD PUSH1 0xC SLOAD EQ PUSH2 0x4DAA JUMPI JUMPDEST DUP1 EXTCODESIZE PUSH2 0x4D65 JUMPI POP POP POP JUMP JUMPDEST SWAP1 SWAP2 SWAP3 PUSH0 SLOAD SWAP3 DUP4 SUB SWAP3 PUSH1 0x1 JUMPDEST ISZERO PUSH2 0x4D95 JUMPI JUMPDEST PUSH0 PUSH2 0x4D8A PUSH2 0xC43 DUP8 PUSH1 0x1 DUP9 ADD SWAP8 DUP8 PUSH2 0x4F94 JUMP JUMPDEST ISZERO PUSH2 0x4D71 JUMPI JUMPDEST PUSH2 0x43D3 JUMP JUMPDEST DUP1 DUP5 LT PUSH2 0x4D77 JUMPI SWAP3 POP SWAP3 POP POP PUSH0 SLOAD SUB PUSH2 0x4BB JUMPI JUMP JUMPDEST PUSH2 0x4DBC PUSH1 0x1 PUSH1 0xFF NOT PUSH1 0x16 SLOAD AND OR PUSH1 0x16 SSTORE JUMP JUMPDEST PUSH2 0x4D5A JUMP JUMPDEST PUSH4 0x636402DF PUSH1 0xE0 SHL PUSH0 MSTORE PUSH1 0x4 PUSH0 REVERT JUMPDEST PUSH4 0x6CE844D PUSH1 0xE0 SHL PUSH0 MSTORE PUSH1 0x4 PUSH0 REVERT JUMPDEST PUSH1 0x1 PUSH1 0x1 PUSH1 0x40 SHL SUB DUP3 GT PUSH2 0xFFD JUMPI PUSH9 0x10000000000000000 DUP3 GT PUSH2 0xFFD JUMPI PUSH1 0x12 SLOAD DUP3 PUSH1 0x12 SSTORE DUP1 DUP4 LT PUSH2 0x4E41 JUMPI JUMPDEST POP PUSH1 0x12 PUSH0 MSTORE PUSH1 0x20 PUSH0 KECCAK256 PUSH0 JUMPDEST DUP4 DUP2 LT PUSH2 0x4E24 JUMPI POP POP POP POP JUMP JUMPDEST PUSH1 0x1 SWAP1 PUSH1 0x20 DUP5 CALLDATALOAD SWAP5 PUSH2 0x4E35 DUP7 PUSH2 0x752 JUMP JUMPDEST ADD SWAP4 DUP2 DUP5 ADD SSTORE ADD PUSH2 0x4E17 JUMP JUMPDEST PUSH1 0x12 PUSH0 MSTORE PUSH2 0x4E74 SWAP1 DUP4 SWAP1 SUB PUSH32 0xBB8A6A4669BA250D26CD7A459ECA9D215F8307E33AEBE50379BC5A3617EC3444 DUP5 ADD PUSH2 0x3C35 JUMP JUMPDEST PUSH0 PUSH2 0x4E0C JUMP JUMPDEST PUSH1 0x20 DUP1 DUP3 MSTORE DUP2 ADD DUP4 SWAP1 MSTORE PUSH1 0x40 ADD SWAP2 PUSH0 JUMPDEST DUP2 DUP2 LT PUSH2 0x4E97 JUMPI POP POP POP SWAP1 JUMP JUMPDEST SWAP1 SWAP2 SWAP3 PUSH1 0x20 DUP1 PUSH1 0x1 SWAP3 DUP7 CALLDATALOAD PUSH2 0x4EAB DUP2 PUSH2 0x752 JUMP JUMPDEST DUP5 DUP1 PUSH1 0xA0 SHL SUB AND DUP2 MSTORE ADD SWAP5 ADD SWAP2 ADD SWAP2 SWAP1 SWAP2 PUSH2 0x4E8A JUMP JUMPDEST PUSH4 0xFFFFFFFE PUSH0 NOT DUP3 ADD LT ISZERO PUSH2 0x4F12 JUMPI PUSH1 0x18 SLOAD PUSH2 0x4F05 JUMPI PUSH1 0x18 PUSH0 DUP2 SWAP1 MSTORE PUSH1 0xE0 SWAP2 SWAP1 SWAP2 SHL PUSH28 0xB13D2D76D1F4B7BE834882E410B3E3A8AFAF69F83600AE2400000000 OR SWAP1 SSTORE JUMP JUMPDEST PUSH4 0xC9F11F2 PUSH0 MSTORE PUSH1 0x4 PUSH1 0x1C REVERT JUMPDEST PUSH4 0x83B53941 PUSH0 MSTORE PUSH1 0x4 PUSH1 0x1C REVERT JUMPDEST SWAP1 DUP2 PUSH1 0x20 SWAP2 SUB SLT PUSH2 0x4BB JUMPI MLOAD PUSH2 0x60D DUP2 PUSH2 0x4A9 JUMP JUMPDEST PUSH1 0x1 PUSH1 0x1 PUSH1 0xA0 SHL SUB SWAP2 DUP3 AND DUP2 MSTORE SWAP2 AND PUSH1 0x20 DUP3 ADD MSTORE PUSH1 0x40 DUP2 ADD SWAP2 SWAP1 SWAP2 MSTORE PUSH1 0x80 PUSH1 0x60 DUP3 ADD DUP2 SWAP1 MSTORE PUSH2 0x60D SWAP3 SWAP2 ADD SWAP1 PUSH2 0x5D8 JUMP JUMPDEST RETURNDATASIZE ISZERO PUSH2 0x4F8F JUMPI RETURNDATASIZE SWAP1 PUSH2 0x4F76 DUP3 PUSH2 0x2F6E JUMP JUMPDEST SWAP2 PUSH2 0x4F84 PUSH1 0x40 MLOAD SWAP4 DUP5 PUSH2 0x101D JUMP JUMPDEST DUP3 MSTORE RETURNDATASIZE PUSH0 PUSH1 0x20 DUP5 ADD RETURNDATACOPY JUMP JUMPDEST PUSH1 0x60 SWAP1 JUMP JUMPDEST SWAP2 PUSH2 0x4FBB SWAP3 PUSH1 0x20 SWAP3 PUSH0 PUSH1 0x40 MLOAD DUP1 SWAP7 DUP2 SWAP6 DUP3 SWAP5 PUSH4 0xA85BD01 PUSH1 0xE1 SHL DUP5 MSTORE DUP5 CALLER PUSH1 0x4 DUP7 ADD PUSH2 0x4F34 JUMP JUMPDEST SUB SWAP3 PUSH1 0x1 PUSH1 0x1 PUSH1 0xA0 SHL SUB AND GAS CALL PUSH0 SWAP2 DUP2 PUSH2 0x5002 JUMPI JUMPDEST POP PUSH2 0x4FEC JUMPI PUSH2 0x4FDD PUSH2 0x4F65 JUMP JUMPDEST DUP1 MLOAD ISZERO PUSH2 0x4D90 JUMPI DUP1 MLOAD SWAP1 PUSH1 0x20 ADD REVERT JUMPDEST PUSH1 0x1 PUSH1 0x1 PUSH1 0xE0 SHL SUB NOT AND PUSH4 0xA85BD01 PUSH1 0xE1 SHL EQ SWAP1 JUMP JUMPDEST PUSH2 0x5025 SWAP2 SWAP3 POP PUSH1 0x20 RETURNDATASIZE PUSH1 0x20 GT PUSH2 0x502C JUMPI JUMPDEST PUSH2 0x501D DUP2 DUP4 PUSH2 0x101D JUMP JUMPDEST DUP2 ADD SWAP1 PUSH2 0x4F1F JUMP JUMPDEST SWAP1 PUSH0 PUSH2 0x4FD0 JUMP JUMPDEST POP RETURNDATASIZE PUSH2 0x5013 JUMP JUMPDEST SWAP1 PUSH1 0x20 SWAP3 PUSH0 PUSH2 0x4FBB SWAP6 SWAP4 PUSH1 0x40 MLOAD SWAP7 DUP8 SWAP6 DUP7 SWAP5 DUP6 SWAP4 PUSH4 0xA85BD01 PUSH1 0xE1 SHL DUP6 MSTORE CALLER PUSH1 0x4 DUP7 ADD PUSH2 0x4F34 JUMP JUMPDEST PUSH2 0x5063 PUSH2 0x43E2 JUMP JUMPDEST POP PUSH0 MSTORE PUSH1 0x4 PUSH1 0x20 MSTORE PUSH1 0x40 PUSH0 KECCAK256 SLOAD PUSH2 0x5078 PUSH2 0x43E2 JUMP JUMPDEST PUSH1 0x1 PUSH1 0x1 PUSH1 0xA0 SHL SUB DUP3 AND DUP2 MSTORE PUSH1 0xA0 DUP3 SWAP1 SHR PUSH1 0x1 PUSH1 0x1 PUSH1 0x40 SHL SUB AND PUSH1 0x20 DUP3 ADD MSTORE PUSH1 0x1 PUSH1 0xE0 SHL DUP3 AND ISZERO ISZERO PUSH1 0x40 DUP3 ADD MSTORE PUSH1 0xE8 SWAP2 SWAP1 SWAP2 SHR PUSH1 0x60 DUP3 ADD MSTORE SWAP1 JUMP JUMPDEST DUP2 PUSH1 0x1F DUP3 ADD SLT ISZERO PUSH2 0x4BB JUMPI DUP1 MLOAD SWAP1 PUSH2 0x50CA DUP3 PUSH2 0x2F6E JUMP JUMPDEST SWAP3 PUSH2 0x50D8 PUSH1 0x40 MLOAD SWAP5 DUP6 PUSH2 0x101D JUMP JUMPDEST DUP3 DUP5 MSTORE PUSH1 0x20 DUP4 DUP4 ADD ADD GT PUSH2 0x4BB JUMPI DUP2 PUSH0 SWAP3 PUSH1 0x20 DUP1 SWAP4 ADD DUP4 DUP7 ADD MCOPY DUP4 ADD ADD MSTORE SWAP1 JUMP JUMPDEST SWAP2 SWAP1 SWAP2 PUSH1 0x40 DUP2 DUP5 SUB SLT PUSH2 0x4BB JUMPI DUP1 MLOAD PUSH1 0x1 PUSH1 0x1 PUSH1 0x40 SHL SUB DUP2 GT PUSH2 0x4BB JUMPI DUP4 PUSH2 0x5122 SWAP2 DUP4 ADD PUSH2 0x50B3 JUMP JUMPDEST SWAP3 PUSH1 0x20 DUP3 ADD MLOAD PUSH1 0x1 PUSH1 0x1 PUSH1 0x40 SHL SUB DUP2 GT PUSH2 0x4BB JUMPI PUSH2 0x60D SWAP3 ADD PUSH2 0x50B3 JUMP JUMPDEST PUSH2 0x104D SWAP1 PUSH2 0x487F PUSH2 0x5172 SWAP5 SWAP4 PUSH1 0x2 PUSH1 0x40 MLOAD SWAP7 DUP8 SWAP5 PUSH11 0x526574726F50756E6B2023 PUSH1 0xA8 SHL PUSH1 0x20 DUP8 ADD MSTORE PUSH1 0x2B DUP7 ADD SWAP1 PUSH2 0x4538 JUMP JUMPDEST PUSH2 0x1D1 PUSH1 0xF5 SHL DUP2 MSTORE ADD SWAP1 PUSH2 0x4538 JUMP JUMPDEST PUSH1 0x1 SWAP1 PUSH2 0x5237 PUSH2 0x51B9 SWAP6 SWAP5 PUSH1 0x24 PUSH2 0x51F8 PUSH2 0x104D SWAP7 PUSH1 0x2C PUSH1 0x40 MLOAD SWAP11 DUP12 SWAP8 PUSH9 0x3D913730B6B2911D11 PUSH1 0xB9 SHL PUSH1 0x20 DUP11 ADD MSTORE PUSH1 0x29 DUP10 ADD SWAP1 PUSH2 0x4538 JUMP JUMPDEST PUSH32 0x222C226465736372697074696F6E223A22526574726F50756E6B73204E465420 DUP2 MSTORE PUSH12 0x18DBDB1B1958DD1A5BDB888B PUSH1 0xA2 SHL PUSH1 0x20 DUP3 ADD MSTORE ADD SWAP1 PUSH2 0x4538 JUMP JUMPDEST PUSH1 0xB PUSH1 0xFA SHL DUP2 MSTORE PUSH32 0x22696D616765223A22646174613A696D6167652F7376672B786D6C3B62617365 DUP7 DUP3 ADD MSTORE PUSH3 0xD8D0B PUSH1 0xEA SHL PUSH1 0x21 DUP3 ADD MSTORE ADD SWAP1 PUSH2 0x4538 JUMP JUMPDEST PUSH1 0x11 PUSH1 0xF9 SHL DUP2 MSTORE SUB PUSH1 0x1E NOT DUP2 ADD DUP6 MSTORE ADD DUP4 PUSH2 0x101D JUMP JUMPDEST SWAP1 PUSH2 0x104D PUSH1 0x1 PUSH2 0x5267 SWAP4 PUSH1 0x40 MLOAD SWAP5 DUP6 SWAP2 PUSH1 0x20 DUP4 ADD SWAP1 PUSH2 0x4538 JUMP JUMPDEST PUSH1 0x7D PUSH1 0xF8 SHL DUP2 MSTORE SUB PUSH1 0x1E NOT DUP2 ADD DUP6 MSTORE ADD DUP4 PUSH2 0x101D JUMP JUMPDEST SWAP1 PUSH2 0x104D PUSH2 0x487F SWAP3 PUSH1 0x40 MLOAD SWAP4 DUP5 SWAP2 PUSH32 0x646174613A6170706C69636174696F6E2F6A736F6E3B6261736536342C000000 PUSH1 0x20 DUP5 ADD MSTORE PUSH1 0x3D DUP4 ADD SWAP1 PUSH2 0x4538 JUMP JUMPDEST PUSH1 0x13 SLOAD PUSH1 0x40 MLOAD PUSH4 0x7D134433 PUSH1 0xE0 SHL DUP2 MSTORE PUSH2 0xFFFF SWAP4 SWAP1 SWAP4 AND PUSH1 0x4 DUP5 ADD MSTORE PUSH1 0xFF SWAP4 SWAP1 SWAP4 AND PUSH1 0x24 DUP4 ADD MSTORE PUSH1 0x44 DUP3 ADD SWAP5 SWAP1 SWAP5 MSTORE SWAP3 SWAP2 SWAP1 PUSH0 SWAP1 DUP5 SWAP1 PUSH1 0x8 SHR PUSH1 0x1 PUSH1 0x1 PUSH1 0xA0 SHL SUB AND DUP2 DUP1 PUSH1 0x64 DUP2 ADD SUB SWAP2 GAS STATICCALL SWAP2 DUP3 ISZERO PUSH2 0xA0F JUMPI PUSH2 0x60D SWAP4 PUSH2 0x5365 SWAP4 PUSH2 0x5360 SWAP4 PUSH2 0x535B SWAP4 PUSH0 SWAP4 PUSH0 SWAP4 PUSH2 0x5382 JUMPI JUMPDEST POP SWAP1 PUSH2 0x5355 SWAP2 DUP2 MLOAD PUSH1 0x20 DUP4 ADD KECCAK256 PUSH2 0x5340 PUSH2 0x4899 DUP4 PUSH2 0x53B0 JUMP JUMPDEST PUSH1 0x20 DUP2 MLOAD SWAP2 ADD KECCAK256 EQ PUSH0 EQ PUSH2 0x536A JUMPI POP SWAP3 PUSH2 0x53F5 JUMP JUMPDEST SWAP2 PUSH2 0x5181 JUMP JUMPDEST PUSH2 0x524D JUMP JUMPDEST PUSH2 0x53F5 JUMP JUMPDEST PUSH2 0x527D JUMP JUMPDEST SWAP1 PUSH2 0x5377 PUSH2 0x537C SWAP3 PUSH2 0x53B0 JUMP JUMPDEST PUSH2 0x5140 JUMP JUMPDEST SWAP3 PUSH2 0x53F5 JUMP JUMPDEST PUSH2 0x5355 SWAP3 SWAP5 POP PUSH2 0x53A5 SWAP2 SWAP4 POP RETURNDATASIZE DUP1 PUSH0 DUP4 RETURNDATACOPY PUSH2 0x539D DUP2 DUP4 PUSH2 0x101D JUMP JUMPDEST DUP2 ADD SWAP1 PUSH2 0x50F9 JUMP JUMPDEST SWAP4 SWAP1 SWAP4 SWAP3 SWAP1 SWAP2 PUSH2 0x5327 JUMP JUMPDEST SWAP1 PUSH1 0x40 MLOAD PUSH1 0xA PUSH1 0x80 DUP3 ADD SWAP4 PUSH1 0xA0 DUP4 ADD PUSH1 0x40 MSTORE PUSH0 DUP6 MSTORE SWAP4 JUMPDEST PUSH0 NOT ADD SWAP4 PUSH1 0x30 DUP3 DUP3 MOD ADD DUP6 MSTORE8 DIV SWAP3 DUP4 ISZERO PUSH2 0x53E3 JUMPI PUSH1 0xA SWAP1 PUSH2 0x53C7 JUMP JUMPDEST DUP1 SWAP4 POP PUSH1 0x80 SWAP2 SUB ADD SWAP2 PUSH1 0x1F NOT ADD SWAP2 DUP3 MSTORE JUMP JUMPDEST SWAP1 PUSH1 0x60 SWAP2 DUP1 MLOAD DUP1 PUSH2 0x5404 JUMPI POP POP JUMP JUMPDEST SWAP1 SWAP3 POP PUSH1 0x3 PUSH1 0x2 DUP3 ADD DIV PUSH1 0x2 SHL SWAP1 PUSH1 0x40 MLOAD SWAP4 PUSH32 0x4142434445464748494A4B4C4D4E4F505152535455565758595A616263646566 PUSH1 0x1F MSTORE PUSH2 0x670 PUSH32 0x6768696A6B6C6D6E6F707172737475767778797A303132333435363738392D5F XOR PUSH1 0x3F MSTORE PUSH1 0x20 DUP6 ADD SWAP2 DUP4 DUP7 ADD SWAP3 PUSH1 0x4 PUSH1 0x3 PUSH1 0x20 DUP7 ADD SWAP5 JUMPDEST ADD SWAP2 PUSH1 0x3F DUP4 MLOAD DUP2 DUP2 PUSH1 0x12 SHR AND MLOAD PUSH0 MSTORE8 DUP2 DUP2 PUSH1 0xC SHR AND MLOAD PUSH1 0x1 MSTORE8 DUP2 DUP2 PUSH1 0x6 SHR AND MLOAD PUSH1 0x2 MSTORE8 AND MLOAD PUSH1 0x3 MSTORE8 PUSH0 MLOAD DUP2 MSTORE ADD SWAP1 DUP4 DUP3 LT ISZERO PUSH2 0x54B6 JUMPI PUSH1 0x4 SWAP1 PUSH1 0x3 SWAP1 PUSH2 0x5475 JUMP JUMPDEST POP SWAP2 POP PUSH1 0x40 PUSH0 SWAP4 ADD PUSH1 0x40 MSTORE PUSH1 0x3 PUSH2 0x3D3D PUSH1 0xF0 SHL SWAP2 MOD PUSH1 0x2 DIV DUP3 SUB MSTORE MSTORE DUP3 MSTORE JUMP JUMPDEST PUSH0 SLOAD SWAP1 DUP3 ISZERO PUSH2 0x558A JUMPI PUSH1 0x1 PUSH1 0x1 PUSH1 0xA0 SHL SUB DUP2 AND TIMESTAMP PUSH1 0xA0 SHL PUSH1 0x1 DUP6 EQ PUSH1 0xE1 SHL OR OR PUSH2 0x5508 DUP4 PUSH0 MSTORE PUSH1 0x4 PUSH1 0x20 MSTORE PUSH1 0x40 PUSH0 KECCAK256 SWAP1 JUMP JUMPDEST SSTORE PUSH1 0x1 PUSH1 0x1 PUSH1 0xA0 SHL SUB AND PUSH0 DUP2 DUP2 MSTORE PUSH1 0x5 PUSH1 0x20 MSTORE PUSH1 0x40 SWAP1 KECCAK256 DUP1 SLOAD PUSH9 0x10000000000000001 DUP6 MUL ADD SWAP1 SSTORE SWAP2 DUP3 ISZERO PUSH2 0x5585 JUMPI DUP2 ADD SWAP1 SWAP3 PUSH1 0x1 JUMPDEST ISZERO PUSH2 0x5571 JUMPI JUMPDEST PUSH0 DUP5 DUP5 PUSH0 PUSH32 0xDDF252AD1BE2C89B69C2B068FC378DAA952BA7F163C4A11628F55A4DF523B3EF DUP2 DUP1 LOG4 PUSH2 0x553E JUMP JUMPDEST SWAP3 PUSH1 0x1 ADD SWAP3 DUP2 DUP5 SUB PUSH2 0x5544 JUMPI SWAP3 POP SWAP1 POP PUSH0 SSTORE JUMP JUMPDEST PUSH2 0x4A18 JUMP JUMPDEST PUSH4 0xB562E8DD PUSH1 0xE0 SHL PUSH0 MSTORE PUSH1 0x4 PUSH0 REVERT JUMPDEST DUP2 MLOAD DUP2 SLOAD PUSH1 0x20 DUP5 ADD MLOAD PUSH3 0xFF0000 PUSH1 0x10 SWAP2 SWAP1 SWAP2 SHL AND PUSH2 0xFFFF SWAP1 SWAP3 AND PUSH3 0xFFFFFF NOT SWAP1 SWAP2 AND OR OR DUP2 SSTORE SWAP1 SWAP2 SWAP1 PUSH1 0x40 SWAP1 PUSH1 0x1 ADD SWAP3 ADD MLOAD SWAP2 DUP3 MLOAD PUSH1 0x1 PUSH1 0x1 PUSH1 0x40 SHL SUB DUP2 GT PUSH2 0xFFD JUMPI PUSH2 0x55EA DUP2 PUSH2 0x448F DUP5 SLOAD PUSH2 0x33D5 JUMP JUMPDEST PUSH1 0x20 PUSH1 0x1F DUP3 GT PUSH1 0x1 EQ PUSH2 0x5619 JUMPI DUP2 SWAP1 PUSH2 0x44C4 SWAP4 SWAP5 SWAP6 PUSH0 SWAP3 PUSH2 0x44C8 JUMPI POP POP DUP2 PUSH1 0x1 SHL SWAP2 PUSH0 NOT SWAP1 PUSH1 0x3 SHL SHR NOT AND OR SWAP1 JUMP JUMPDEST PUSH1 0x1F NOT DUP3 AND SWAP1 PUSH2 0x562C DUP5 PUSH0 MSTORE PUSH1 0x20 PUSH0 KECCAK256 SWAP1 JUMP JUMPDEST SWAP2 PUSH0 JUMPDEST DUP2 DUP2 LT PUSH2 0x564D JUMPI POP SWAP6 DUP4 PUSH1 0x1 SWAP6 SWAP7 SWAP8 LT PUSH2 0x4508 JUMPI POP POP POP DUP2 SHL ADD SWAP1 SSTORE JUMP JUMPDEST SWAP2 SWAP3 PUSH1 0x20 PUSH1 0x1 DUP2 SWAP3 DUP7 DUP12 ADD MLOAD DUP2 SSTORE ADD SWAP5 ADD SWAP3 ADD PUSH2 0x562F JUMP JUMPDEST SWAP1 ISZERO PUSH2 0x57CE JUMPI PUSH1 0x18 SLOAD PUSH4 0xFFFFFFFF AND PUSH1 0x15 SLOAD SWAP1 PUSH1 0x40 MLOAD SWAP1 PUSH1 0x20 DUP3 ADD SWAP3 DUP4 MSTORE PUSH1 0x40 DUP3 ADD MSTORE DUP3 PUSH1 0x60 DUP3 ADD MSTORE PUSH1 0x60 DUP2 MSTORE PUSH2 0x569D PUSH1 0x80 DUP3 PUSH2 0x101D JUMP JUMPDEST MLOAD SWAP1 KECCAK256 SWAP1 PUSH1 0x18 SLOAD SWAP2 DUP3 PUSH4 0xFFFFFFFF AND DUP4 PUSH1 0xE0 SHR SWAP1 DUP1 DUP3 EQ PUSH2 0x57C1 JUMPI PUSH2 0x104D SWAP5 PUSH2 0x5773 PUSH2 0x5780 SWAP4 PUSH2 0x576E SWAP4 PUSH2 0x57BC SWAP7 PUSH0 MSTORE DUP1 PUSH1 0x20 MSTORE DUP4 PUSH2 0xFFFE DUP3 DUP1 DUP6 SUB PUSH1 0x40 PUSH0 KECCAK256 MOD ADD SWAP4 GT PUSH2 0x5722 DUP5 DUP4 DUP4 SWAP1 PUSH1 0x1 DUP1 PUSH1 0xC0 SHL SUB SWAP1 PUSH1 0x20 SHR AND DUP3 DUP3 PUSH1 0x4 SUB SHR ADD SLOAD PUSH1 0xF DUP3 SHR DUP4 AND DUP3 PUSH1 0x4 ADD SHL SHR SWAP1 PUSH1 0x1 PUSH1 0x10 PUSH0 NOT SWAP3 SHL SHL ADD AND DUP1 ISZERO ISZERO SWAP1 PUSH0 NOT ADD DUP3 XOR MUL XOR SWAP1 JUMP JUMPDEST SWAP7 DUP8 SWAP5 PUSH2 0x5766 DUP6 DUP6 DUP6 SWAP1 PUSH1 0x1 DUP1 PUSH1 0xC0 SHL SUB SWAP1 PUSH1 0x20 SHR AND DUP3 DUP3 PUSH1 0x4 SUB SHR ADD SLOAD PUSH1 0xF DUP3 SHR DUP4 AND DUP3 PUSH1 0x4 ADD SHL SHR SWAP1 PUSH1 0x1 PUSH1 0x10 PUSH0 NOT SWAP3 SHL SHL ADD AND DUP1 ISZERO ISZERO SWAP1 PUSH0 NOT ADD DUP3 XOR MUL XOR SWAP1 JUMP JUMPDEST SWAP1 DUP5 DUP5 PUSH2 0x57DD JUMP JUMPDEST PUSH2 0x57DD JUMP JUMPDEST PUSH1 0x1 ADD PUSH1 0x18 SSTORE PUSH2 0xFFFF AND SWAP1 JUMP JUMPDEST SWAP2 PUSH2 0x578D PUSH2 0x4899 DUP3 PUSH2 0x53B0 JUMP JUMPDEST PUSH2 0x57A2 PUSH2 0x5798 PUSH2 0x103E JUMP JUMPDEST PUSH2 0xFFFF SWAP1 SWAP6 AND DUP6 MSTORE JUMP JUMPDEST PUSH1 0x1 PUSH1 0x20 DUP6 ADD MSTORE PUSH1 0x40 DUP5 ADD MSTORE PUSH0 MSTORE PUSH1 0x17 PUSH1 0x20 MSTORE PUSH1 0x40 PUSH0 KECCAK256 SWAP1 JUMP JUMPDEST PUSH2 0x5599 JUMP JUMPDEST PUSH4 0x51065F79 PUSH0 MSTORE PUSH1 0x4 PUSH1 0x1C REVERT JUMPDEST PUSH4 0x73D3BB3 PUSH1 0xE1 SHL PUSH0 MSTORE PUSH1 0x4 PUSH0 REVERT JUMPDEST SWAP3 SWAP2 SWAP1 PUSH1 0x1 DUP1 PUSH1 0xC0 SHL SUB SWAP1 PUSH1 0x20 SHR AND DUP2 DUP5 PUSH1 0x4 SUB SHR ADD SWAP3 PUSH1 0xF DUP2 SHR DUP3 AND DUP2 PUSH1 0x4 ADD SHL SWAP2 DUP5 SLOAD SWAP4 PUSH1 0x1 DUP2 ADD SWAP2 EQ ISZERO MUL DUP4 DUP4 SHR XOR SWAP1 PUSH1 0x1 PUSH1 0x10 PUSH0 NOT SWAP3 SHL SHL ADD AND SWAP1 SHL XOR SWAP1 SSTORE JUMP INVALID PUSH12 0xD5C950A8D8DF17F772F5AF37 0xCB CALLDATASIZE SSTORE PUSH20 0x7899CBF903264B9795592DA439661CA264697066 PUSH20 0x58221220B1DD0F195F627946D020F4E36011D32A RETURNDATASIZE 0xBF CALLDATACOPY PUSH31 0x2F18F685D76C4BA5620715C664736F6C63430008210033405787FA12A823E0 CALLCODE 0xB7 PUSH4 0x1CC41B3B 0xA8 DUP3 DUP12 CALLER 0x21 0xCA DUP2 GT GT STATICCALL PUSH22 0xCD3AA3BB5ACE00000000000000000000000000000000 "
		},
		"gasEstimates": {
			"creation": {
				"codeDepositCost": "4529600",
				"executionCost": "infinite",
				"totalCost": "infinite"
			},
			"external": {
				"COMMITTED_GLOBAL_SEED_HASH()": "infinite",
				"COMMITTED_SHUFFLER_SEED_HASH()": "infinite",
				"acceptOwnership()": "52069",
				"approve(address,uint256)": "infinite",
				"balanceOf(address)": "3241",
				"baseURI()": "infinite",
				"burn(uint256)": "infinite",
				"cancelOwnershipTransfer()": "27822",
				"closeMint()": "27202",
				"contractURI()": "infinite",
				"defaultBackgroundIndex()": "1738",
				"emitBatchMetadataUpdate(uint256,uint256)": "infinite",
				"explicitOwnershipOf(uint256)": "infinite",
				"explicitOwnershipsOf(uint256[])": "infinite",
				"getApproved(uint256)": "infinite",
				"getMintStats(address)": "7601",
				"getTransferValidationFunction()": "334",
				"getTransferValidator()": "2394",
				"globalSeed()": "2304",
				"globalSeedRevealed()": "3356",
				"globalTokenMetadata(uint256)": "infinite",
				"isApprovedForAll(address,address)": "infinite",
				"maxSupply()": "3668",
				"mintIsClosed()": "2514",
				"mintSeaDrop(address,uint256)": "infinite",
				"multiConfigure((uint256,string,string,address,(uint80,uint48,uint48,uint16,uint16,bool),string,(bytes32,string[],string),address,bytes32,address[],address[],address[],address[],address[],(uint80,uint16,uint48,uint48,uint8,uint32,uint16,bool)[],address[],address[],(uint80,uint24,uint40,uint40,uint40,uint16,uint16)[],address[]))": "infinite",
				"name()": "infinite",
				"owner()": "3296",
				"ownerMint(address,uint256)": "infinite",
				"ownerMintsRemaining()": "2844",
				"ownerOf(uint256)": "infinite",
				"provenanceHash()": "3580",
				"renderer()": "3283",
				"renounceOwnership()": "28856",
				"resetTokenName(uint256)": "infinite",
				"revealGlobalSeed(uint256,uint256)": "infinite",
				"revealShufflerSeed(uint256,uint256)": "infinite",
				"royaltyAddress()": "3538",
				"royaltyBasisPoints()": "2618",
				"royaltyInfo(uint256,uint256)": "2690",
				"safeTransferFrom(address,address,uint256)": "infinite",
				"safeTransferFrom(address,address,uint256,bytes)": "infinite",
				"setApprovalForAll(address,bool)": "29810",
				"setBaseURI(string)": "infinite",
				"setContractURI(string)": "infinite",
				"setMaxSupply(uint256)": "28369",
				"setProvenanceHash(bytes32)": "30090",
				"setRenderer(address)": "infinite",
				"setRoyaltyInfo((address,uint96))": "infinite",
				"setTokenBackground(uint256,uint256)": "infinite",
				"setTokenName(uint256,string)": "infinite",
				"setTransferValidator(address)": "29272",
				"shufflerSeed()": "3404",
				"shufflerSeedRevealed()": "3114",
				"supportsInterface(bytes4)": "728",
				"symbol()": "infinite",
				"tokenURI(uint256)": "infinite",
				"tokensOfOwner(address)": "infinite",
				"tokensOfOwnerIn(address,uint256,uint256)": "infinite",
				"totalSupply()": "4575",
				"transferFrom(address,address,uint256)": "infinite",
				"transferOwnership(address)": "29194",
				"transfersPaused()": "2712",
				"updateAllowList(address,(bytes32,string[],string))": "infinite",
				"updateAllowedFeeRecipient(address,address,bool)": "infinite",
				"updateAllowedSeaDrop(address[])": "infinite",
				"updateCreatorPayoutAddress(address,address)": "infinite",
				"updateDropURI(address,string)": "infinite",
				"updatePayer(address,address,bool)": "infinite",
				"updatePublicDrop(address,(uint80,uint48,uint48,uint16,uint16,bool))": "infinite",
				"updateSignedMintValidationParams(address,address,(uint80,uint24,uint40,uint40,uint40,uint16,uint16))": "infinite",
				"updateTokenGatedDrop(address,address,(uint80,uint16,uint48,uint48,uint8,uint32,uint16,bool))": "infinite",
				"updateTransfersPaused(bool)": "27773"
			},
			"internal": {
				"_addInternalMintMetadata(uint256)": "infinite",
				"_checkMaxSupply(uint256)": "6471",
				"_getTokenMetadata(uint256)": "infinite",
				"_mint(address,uint256)": "infinite",
				"_saveNewSeed(uint256,uint256)": "infinite",
				"renderDataUri(uint256,uint16,uint8,string memory,uint256)": "infinite"
			}
		},
		"methodIdentifiers": {
			"COMMITTED_GLOBAL_SEED_HASH()": "f4cc7105",
			"COMMITTED_SHUFFLER_SEED_HASH()": "9b7406a5",
			"acceptOwnership()": "79ba5097",
			"approve(address,uint256)": "095ea7b3",
			"balanceOf(address)": "70a08231",
			"baseURI()": "6c0360eb",
			"burn(uint256)": "42966c68",
			"cancelOwnershipTransfer()": "23452b9c",
			"closeMint()": "64f101f0",
			"contractURI()": "e8a3d485",
			"defaultBackgroundIndex()": "fe97b576",
			"emitBatchMetadataUpdate(uint256,uint256)": "a4830114",
			"explicitOwnershipOf(uint256)": "c23dc68f",
			"explicitOwnershipsOf(uint256[])": "5bbb2177",
			"getApproved(uint256)": "081812fc",
			"getMintStats(address)": "840e15d4",
			"getTransferValidationFunction()": "0d705df6",
			"getTransferValidator()": "098144d4",
			"globalSeed()": "07aafa98",
			"globalSeedRevealed()": "9559a5d9",
			"globalTokenMetadata(uint256)": "db846dbe",
			"isApprovedForAll(address,address)": "e985e9c5",
			"maxSupply()": "d5abeb01",
			"mintIsClosed()": "1dbd7390",
			"mintSeaDrop(address,uint256)": "64869dad",
			"multiConfigure((uint256,string,string,address,(uint80,uint48,uint48,uint16,uint16,bool),string,(bytes32,string[],string),address,bytes32,address[],address[],address[],address[],address[],(uint80,uint16,uint48,uint48,uint8,uint32,uint16,bool)[],address[],address[],(uint80,uint24,uint40,uint40,uint40,uint16,uint16)[],address[]))": "911f456b",
			"name()": "06fdde03",
			"owner()": "8da5cb5b",
			"ownerMint(address,uint256)": "484b973c",
			"ownerMintsRemaining()": "5743bdff",
			"ownerOf(uint256)": "6352211e",
			"provenanceHash()": "c6ab67a3",
			"renderer()": "8ada6b0f",
			"renounceOwnership()": "715018a6",
			"resetTokenName(uint256)": "f6448f88",
			"revealGlobalSeed(uint256,uint256)": "853b3b4c",
			"revealShufflerSeed(uint256,uint256)": "73c5643a",
			"royaltyAddress()": "ad2f852a",
			"royaltyBasisPoints()": "42260b5d",
			"royaltyInfo(uint256,uint256)": "2a55205a",
			"safeTransferFrom(address,address,uint256)": "42842e0e",
			"safeTransferFrom(address,address,uint256,bytes)": "b88d4fde",
			"setApprovalForAll(address,bool)": "a22cb465",
			"setBaseURI(string)": "55f804b3",
			"setContractURI(string)": "938e3d7b",
			"setMaxSupply(uint256)": "6f8b44b0",
			"setProvenanceHash(bytes32)": "099b6bfa",
			"setRenderer(address)": "56d3163d",
			"setRoyaltyInfo((address,uint96))": "44dae42c",
			"setTokenBackground(uint256,uint256)": "d74b6857",
			"setTokenName(uint256,string)": "cdb0e89e",
			"setTransferValidator(address)": "a9fc664e",
			"shufflerSeed()": "99c5def3",
			"shufflerSeedRevealed()": "74e4f5af",
			"supportsInterface(bytes4)": "01ffc9a7",
			"symbol()": "95d89b41",
			"tokenURI(uint256)": "c87b56dd",
			"tokensOfOwner(address)": "8462151c",
			"tokensOfOwnerIn(address,uint256,uint256)": "99a2557a",
			"totalSupply()": "18160ddd",
			"transferFrom(address,address,uint256)": "23b872dd",
			"transferOwnership(address)": "f2fde38b",
			"transfersPaused()": "4563f30a",
			"updateAllowList(address,(bytes32,string[],string))": "3680620d",
			"updateAllowedFeeRecipient(address,address,bool)": "48a4c101",
			"updateAllowedSeaDrop(address[])": "60c308b6",
			"updateCreatorPayoutAddress(address,address)": "66251b69",
			"updateDropURI(address,string)": "7a05bc82",
			"updatePayer(address,address,bool)": "cb743ba8",
			"updatePublicDrop(address,(uint80,uint48,uint48,uint16,uint16,bool))": "1b73593c",
			"updateSignedMintValidationParams(address,address,(uint80,uint24,uint40,uint40,uint40,uint16,uint16))": "511aa644",
			"updateTokenGatedDrop(address,address,(uint80,uint16,uint48,uint48,uint8,uint32,uint16,bool))": "7bc2be76",
			"updateTransfersPaused(bool)": "0d9d713b"
		}
	},
	"abi": [
		{
			"inputs": [
				{
					"internalType": "contract ISVGRenderer",
					"name": "_rendererParam",
					"type": "address"
				},
				{
					"internalType": "bytes32",
					"name": "_committedGlobalSeedHashParam",
					"type": "bytes32"
				},
				{
					"internalType": "bytes32",
					"name": "_committedShufflerSeedHashParam",
					"type": "bytes32"
				},
				{
					"internalType": "uint256",
					"name": "_maxSupplyParam",
					"type": "uint256"
				},
				{
					"internalType": "address[]",
					"name": "allowedSeaDropParam",
					"type": "address[]"
				}
			],
			"stateMutability": "nonpayable",
			"type": "constructor"
		},
		{
			"inputs": [],
			"name": "AlreadyInitialized",
			"type": "error"
		},
		{
			"inputs": [],
			"name": "ApprovalCallerNotOwnerNorApproved",
			"type": "error"
		},
		{
			"inputs": [],
			"name": "ApprovalQueryForNonexistentToken",
			"type": "error"
		},
		{
			"inputs": [],
			"name": "BalanceQueryForZeroAddress",
			"type": "error"
		},
		{
			"inputs": [],
			"name": "CallerIsNotTokenOwner",
			"type": "error"
		},
		{
			"inputs": [
				{
					"internalType": "uint256",
					"name": "newMaxSupply",
					"type": "uint256"
				}
			],
			"name": "CannotExceedMaxSupplyOfUint64",
			"type": "error"
		},
		{
			"inputs": [],
			"name": "GlobalSeedAlreadyRevealed",
			"type": "error"
		},
		{
			"inputs": [],
			"name": "InvalidBackgroundIndex",
			"type": "error"
		},
		{
			"inputs": [],
			"name": "InvalidCharacterInName",
			"type": "error"
		},
		{
			"inputs": [],
			"name": "InvalidGlobalSeedReveal",
			"type": "error"
		},
		{
			"inputs": [],
			"name": "InvalidQueryRange",
			"type": "error"
		},
		{
			"inputs": [
				{
					"internalType": "uint256",
					"name": "basisPoints",
					"type": "uint256"
				}
			],
			"name": "InvalidRoyaltyBasisPoints",
			"type": "error"
		},
		{
			"inputs": [],
			"name": "InvalidShufflerSeedReveal",
			"type": "error"
		},
		{
			"inputs": [],
			"name": "MintERC2309QuantityExceedsLimit",
			"type": "error"
		},
		{
			"inputs": [],
			"name": "MintIsClosed",
			"type": "error"
		},
		{
			"inputs": [
				{
					"internalType": "uint256",
					"name": "total",
					"type": "uint256"
				},
				{
					"internalType": "uint256",
					"name": "maxSupply",
					"type": "uint256"
				}
			],
			"name": "MintQuantityExceedsMaxSupply",
			"type": "error"
		},
		{
			"inputs": [],
			"name": "MintToZeroAddress",
			"type": "error"
		},
		{
			"inputs": [],
			"name": "MintZeroQuantity",
			"type": "error"
		},
		{
			"inputs": [],
			"name": "NameIsTooLong",
			"type": "error"
		},
		{
			"inputs": [
				{
					"internalType": "uint256",
					"name": "got",
					"type": "uint256"
				},
				{
					"internalType": "uint256",
					"name": "totalMinted",
					"type": "uint256"
				}
			],
			"name": "NewMaxSupplyCannotBeLessThenTotalMinted",
			"type": "error"
		},
		{
			"inputs": [],
			"name": "NewOwnerIsZeroAddress",
			"type": "error"
		},
		{
			"inputs": [],
			"name": "NoRemainingTokenElements",
			"type": "error"
		},
		{
			"inputs": [],
			"name": "NonExistentToken",
			"type": "error"
		},
		{
			"inputs": [],
			"name": "NotCompatibleWithSpotMints",
			"type": "error"
		},
		{
			"inputs": [],
			"name": "NotEnoughOwnerMintsRemaining",
			"type": "error"
		},
		{
			"inputs": [],
			"name": "NotNextOwner",
			"type": "error"
		},
		{
			"inputs": [],
			"name": "OnlyAllowedSeaDrop",
			"type": "error"
		},
		{
			"inputs": [],
			"name": "OnlyOwner",
			"type": "error"
		},
		{
			"inputs": [],
			"name": "OwnerQueryForNonexistentToken",
			"type": "error"
		},
		{
			"inputs": [],
			"name": "OwnershipNotInitializedForExtraData",
			"type": "error"
		},
		{
			"inputs": [],
			"name": "PreRenderedSpecialCustomization",
			"type": "error"
		},
		{
			"inputs": [],
			"name": "ProvenanceHashCannotBeSetAfterMintStarted",
			"type": "error"
		},
		{
			"inputs": [],
			"name": "Reentrancy",
			"type": "error"
		},
		{
			"inputs": [],
			"name": "RoyaltyAddressCannotBeZeroAddress",
			"type": "error"
		},
		{
			"inputs": [],
			"name": "SameTransferValidator",
			"type": "error"
		},
		{
			"inputs": [],
			"name": "SequentialMintExceedsLimit",
			"type": "error"
		},
		{
			"inputs": [],
			"name": "SequentialUpToTooSmall",
			"type": "error"
		},
		{
			"inputs": [],
			"name": "ShufflerSeedAlreadyRevealed",
			"type": "error"
		},
		{
			"inputs": [],
			"name": "ShufflerSeedNotRevealedYet",
			"type": "error"
		},
		{
			"inputs": [],
			"name": "SignersMismatch",
			"type": "error"
		},
		{
			"inputs": [],
			"name": "SpotMintTokenIdTooSmall",
			"type": "error"
		},
		{
			"inputs": [],
			"name": "TokenAlreadyExists",
			"type": "error"
		},
		{
			"inputs": [],
			"name": "TokenGatedMismatch",
			"type": "error"
		},
		{
			"inputs": [],
			"name": "TokenIdsNotStrictlyAscending",
			"type": "error"
		},
		{
			"inputs": [],
			"name": "TransferCallerNotOwnerNorApproved",
			"type": "error"
		},
		{
			"inputs": [],
			"name": "TransferFromIncorrectOwner",
			"type": "error"
		},
		{
			"inputs": [],
			"name": "TransferToNonERC721ReceiverImplementer",
			"type": "error"
		},
		{
			"inputs": [],
			"name": "TransferToZeroAddress",
			"type": "error"
		},
		{
			"inputs": [],
			"name": "TransfersPaused",
			"type": "error"
		},
		{
			"inputs": [],
			"name": "URIQueryForNonexistentToken",
			"type": "error"
		},
		{
			"anonymous": false,
			"inputs": [
				{
					"indexed": false,
					"internalType": "address[]",
					"name": "allowedSeaDrop",
					"type": "address[]"
				}
			],
			"name": "AllowedSeaDropUpdated",
			"type": "event"
		},
		{
			"anonymous": false,
			"inputs": [
				{
					"indexed": true,
					"internalType": "address",
					"name": "owner",
					"type": "address"
				},
				{
					"indexed": true,
					"internalType": "address",
					"name": "approved",
					"type": "address"
				},
				{
					"indexed": true,
					"internalType": "uint256",
					"name": "tokenId",
					"type": "uint256"
				}
			],
			"name": "Approval",
			"type": "event"
		},
		{
			"anonymous": false,
			"inputs": [
				{
					"indexed": true,
					"internalType": "address",
					"name": "owner",
					"type": "address"
				},
				{
					"indexed": true,
					"internalType": "address",
					"name": "operator",
					"type": "address"
				},
				{
					"indexed": false,
					"internalType": "bool",
					"name": "approved",
					"type": "bool"
				}
			],
			"name": "ApprovalForAll",
			"type": "event"
		},
		{
			"anonymous": false,
			"inputs": [
				{
					"indexed": true,
					"internalType": "uint256",
					"name": "tokenId",
					"type": "uint256"
				},
				{
					"indexed": true,
					"internalType": "uint256",
					"name": "backgroundIndex",
					"type": "uint256"
				},
				{
					"indexed": true,
					"internalType": "address",
					"name": "owner",
					"type": "address"
				}
			],
			"name": "BackgroundChanged",
			"type": "event"
		},
		{
			"anonymous": false,
			"inputs": [
				{
					"indexed": false,
					"internalType": "uint256",
					"name": "_fromTokenId",
					"type": "uint256"
				},
				{
					"indexed": false,
					"internalType": "uint256",
					"name": "_toTokenId",
					"type": "uint256"
				}
			],
			"name": "BatchMetadataUpdate",
			"type": "event"
		},
		{
			"anonymous": false,
			"inputs": [
				{
					"indexed": true,
					"internalType": "uint256",
					"name": "fromTokenId",
					"type": "uint256"
				},
				{
					"indexed": false,
					"internalType": "uint256",
					"name": "toTokenId",
					"type": "uint256"
				},
				{
					"indexed": true,
					"internalType": "address",
					"name": "from",
					"type": "address"
				},
				{
					"indexed": true,
					"internalType": "address",
					"name": "to",
					"type": "address"
				}
			],
			"name": "ConsecutiveTransfer",
			"type": "event"
		},
		{
			"anonymous": false,
			"inputs": [
				{
					"indexed": false,
					"internalType": "string",
					"name": "newContractURI",
					"type": "string"
				}
			],
			"name": "ContractURIUpdated",
			"type": "event"
		},
		{
			"anonymous": false,
			"inputs": [
				{
					"indexed": false,
					"internalType": "uint256",
					"name": "seed",
					"type": "uint256"
				}
			],
			"name": "GlobalSeedRevealed",
			"type": "event"
		},
		{
			"anonymous": false,
			"inputs": [
				{
					"indexed": false,
					"internalType": "uint256",
					"name": "newMaxSupply",
					"type": "uint256"
				}
			],
			"name": "MaxSupplyUpdated",
			"type": "event"
		},
		{
			"anonymous": false,
			"inputs": [
				{
					"indexed": true,
					"internalType": "uint256",
					"name": "tokenId",
					"type": "uint256"
				},
				{
					"indexed": true,
					"internalType": "string",
					"name": "name",
					"type": "string"
				},
				{
					"indexed": true,
					"internalType": "address",
					"name": "owner",
					"type": "address"
				}
			],
			"name": "NameChanged",
			"type": "event"
		},
		{
			"anonymous": false,
			"inputs": [
				{
					"indexed": true,
					"internalType": "address",
					"name": "previousOwner",
					"type": "address"
				},
				{
					"indexed": true,
					"internalType": "address",
					"name": "newOwner",
					"type": "address"
				}
			],
			"name": "OwnershipTransferred",
			"type": "event"
		},
		{
			"anonymous": false,
			"inputs": [
				{
					"indexed": false,
					"internalType": "address",
					"name": "newPotentialAdministrator",
					"type": "address"
				}
			],
			"name": "PotentialOwnerUpdated",
			"type": "event"
		},
		{
			"anonymous": false,
			"inputs": [
				{
					"indexed": false,
					"internalType": "bytes32",
					"name": "previousHash",
					"type": "bytes32"
				},
				{
					"indexed": false,
					"internalType": "bytes32",
					"name": "newHash",
					"type": "bytes32"
				}
			],
			"name": "ProvenanceHashUpdated",
			"type": "event"
		},
		{
			"anonymous": false,
			"inputs": [
				{
					"indexed": false,
					"internalType": "address",
					"name": "receiver",
					"type": "address"
				},
				{
					"indexed": false,
					"internalType": "uint256",
					"name": "bps",
					"type": "uint256"
				}
			],
			"name": "RoyaltyInfoUpdated",
			"type": "event"
		},
		{
			"anonymous": false,
			"inputs": [],
			"name": "SeaDropTokenDeployed",
			"type": "event"
		},
		{
			"anonymous": false,
			"inputs": [
				{
					"indexed": false,
					"internalType": "uint256",
					"name": "seed",
					"type": "uint256"
				}
			],
			"name": "ShufflerSeedRevealed",
			"type": "event"
		},
		{
			"anonymous": false,
			"inputs": [
				{
					"indexed": true,
					"internalType": "address",
					"name": "from",
					"type": "address"
				},
				{
					"indexed": true,
					"internalType": "address",
					"name": "to",
					"type": "address"
				},
				{
					"indexed": true,
					"internalType": "uint256",
					"name": "tokenId",
					"type": "uint256"
				}
			],
			"name": "Transfer",
			"type": "event"
		},
		{
			"anonymous": false,
			"inputs": [
				{
					"indexed": false,
					"internalType": "address",
					"name": "oldValidator",
					"type": "address"
				},
				{
					"indexed": false,
					"internalType": "address",
					"name": "newValidator",
					"type": "address"
				}
			],
			"name": "TransferValidatorUpdated",
			"type": "event"
		},
		{
			"anonymous": false,
			"inputs": [
				{
					"indexed": false,
					"internalType": "bool",
					"name": "paused",
					"type": "bool"
				}
			],
			"name": "TransfersPausedChanged",
			"type": "event"
		},
		{
			"inputs": [],
			"name": "COMMITTED_GLOBAL_SEED_HASH",
			"outputs": [
				{
					"internalType": "bytes32",
					"name": "",
					"type": "bytes32"
				}
			],
			"stateMutability": "view",
			"type": "function"
		},
		{
			"inputs": [],
			"name": "COMMITTED_SHUFFLER_SEED_HASH",
			"outputs": [
				{
					"internalType": "bytes32",
					"name": "",
					"type": "bytes32"
				}
			],
			"stateMutability": "view",
			"type": "function"
		},
		{
			"inputs": [],
			"name": "acceptOwnership",
			"outputs": [],
			"stateMutability": "nonpayable",
			"type": "function"
		},
		{
			"inputs": [
				{
					"internalType": "address",
					"name": "to",
					"type": "address"
				},
				{
					"internalType": "uint256",
					"name": "tokenId",
					"type": "uint256"
				}
			],
			"name": "approve",
			"outputs": [],
			"stateMutability": "payable",
			"type": "function"
		},
		{
			"inputs": [
				{
					"internalType": "address",
					"name": "owner",
					"type": "address"
				}
			],
			"name": "balanceOf",
			"outputs": [
				{
					"internalType": "uint256",
					"name": "",
					"type": "uint256"
				}
			],
			"stateMutability": "view",
			"type": "function"
		},
		{
			"inputs": [],
			"name": "baseURI",
			"outputs": [
				{
					"internalType": "string",
					"name": "",
					"type": "string"
				}
			],
			"stateMutability": "view",
			"type": "function"
		},
		{
			"inputs": [
				{
					"internalType": "uint256",
					"name": "tokenId",
					"type": "uint256"
				}
			],
			"name": "burn",
			"outputs": [],
			"stateMutability": "nonpayable",
			"type": "function"
		},
		{
			"inputs": [],
			"name": "cancelOwnershipTransfer",
			"outputs": [],
			"stateMutability": "nonpayable",
			"type": "function"
		},
		{
			"inputs": [],
			"name": "closeMint",
			"outputs": [],
			"stateMutability": "nonpayable",
			"type": "function"
		},
		{
			"inputs": [],
			"name": "contractURI",
			"outputs": [
				{
					"internalType": "string",
					"name": "",
					"type": "string"
				}
			],
			"stateMutability": "view",
			"type": "function"
		},
		{
			"inputs": [],
			"name": "defaultBackgroundIndex",
			"outputs": [
				{
					"internalType": "uint8",
					"name": "",
					"type": "uint8"
				}
			],
			"stateMutability": "view",
			"type": "function"
		},
		{
			"inputs": [
				{
					"internalType": "uint256",
					"name": "fromTokenId",
					"type": "uint256"
				},
				{
					"internalType": "uint256",
					"name": "toTokenId",
					"type": "uint256"
				}
			],
			"name": "emitBatchMetadataUpdate",
			"outputs": [],
			"stateMutability": "nonpayable",
			"type": "function"
		},
		{
			"inputs": [
				{
					"internalType": "uint256",
					"name": "tokenId",
					"type": "uint256"
				}
			],
			"name": "explicitOwnershipOf",
			"outputs": [
				{
					"components": [
						{
							"internalType": "address",
							"name": "addr",
							"type": "address"
						},
						{
							"internalType": "uint64",
							"name": "startTimestamp",
							"type": "uint64"
						},
						{
							"internalType": "bool",
							"name": "burned",
							"type": "bool"
						},
						{
							"internalType": "uint24",
							"name": "extraData",
							"type": "uint24"
						}
					],
					"internalType": "struct IERC721A.TokenOwnership",
					"name": "ownership",
					"type": "tuple"
				}
			],
			"stateMutability": "view",
			"type": "function"
		},
		{
			"inputs": [
				{
					"internalType": "uint256[]",
					"name": "tokenIds",
					"type": "uint256[]"
				}
			],
			"name": "explicitOwnershipsOf",
			"outputs": [
				{
					"components": [
						{
							"internalType": "address",
							"name": "addr",
							"type": "address"
						},
						{
							"internalType": "uint64",
							"name": "startTimestamp",
							"type": "uint64"
						},
						{
							"internalType": "bool",
							"name": "burned",
							"type": "bool"
						},
						{
							"internalType": "uint24",
							"name": "extraData",
							"type": "uint24"
						}
					],
					"internalType": "struct IERC721A.TokenOwnership[]",
					"name": "",
					"type": "tuple[]"
				}
			],
			"stateMutability": "view",
			"type": "function"
		},
		{
			"inputs": [
				{
					"internalType": "uint256",
					"name": "tokenId",
					"type": "uint256"
				}
			],
			"name": "getApproved",
			"outputs": [
				{
					"internalType": "address",
					"name": "",
					"type": "address"
				}
			],
			"stateMutability": "view",
			"type": "function"
		},
		{
			"inputs": [
				{
					"internalType": "address",
					"name": "minter",
					"type": "address"
				}
			],
			"name": "getMintStats",
			"outputs": [
				{
					"internalType": "uint256",
					"name": "minterNumMinted",
					"type": "uint256"
				},
				{
					"internalType": "uint256",
					"name": "currentTotalSupply",
					"type": "uint256"
				},
				{
					"internalType": "uint256",
					"name": "maxSupply",
					"type": "uint256"
				}
			],
			"stateMutability": "view",
			"type": "function"
		},
		{
			"inputs": [],
			"name": "getTransferValidationFunction",
			"outputs": [
				{
					"internalType": "bytes4",
					"name": "functionSignature",
					"type": "bytes4"
				},
				{
					"internalType": "bool",
					"name": "isViewFunction",
					"type": "bool"
				}
			],
			"stateMutability": "pure",
			"type": "function"
		},
		{
			"inputs": [],
			"name": "getTransferValidator",
			"outputs": [
				{
					"internalType": "address",
					"name": "",
					"type": "address"
				}
			],
			"stateMutability": "view",
			"type": "function"
		},
		{
			"inputs": [],
			"name": "globalSeed",
			"outputs": [
				{
					"internalType": "uint256",
					"name": "",
					"type": "uint256"
				}
			],
			"stateMutability": "view",
			"type": "function"
		},
		{
			"inputs": [],
			"name": "globalSeedRevealed",
			"outputs": [
				{
					"internalType": "bool",
					"name": "",
					"type": "bool"
				}
			],
			"stateMutability": "view",
			"type": "function"
		},
		{
			"inputs": [
				{
					"internalType": "uint256",
					"name": "",
					"type": "uint256"
				}
			],
			"name": "globalTokenMetadata",
			"outputs": [
				{
					"internalType": "uint16",
					"name": "tokenIdSeed",
					"type": "uint16"
				},
				{
					"internalType": "uint8",
					"name": "backgroundIndex",
					"type": "uint8"
				},
				{
					"internalType": "string",
					"name": "name",
					"type": "string"
				}
			],
			"stateMutability": "view",
			"type": "function"
		},
		{
			"inputs": [
				{
					"internalType": "address",
					"name": "owner",
					"type": "address"
				},
				{
					"internalType": "address",
					"name": "operator",
					"type": "address"
				}
			],
			"name": "isApprovedForAll",
			"outputs": [
				{
					"internalType": "bool",
					"name": "",
					"type": "bool"
				}
			],
			"stateMutability": "view",
			"type": "function"
		},
		{
			"inputs": [],
			"name": "maxSupply",
			"outputs": [
				{
					"internalType": "uint256",
					"name": "",
					"type": "uint256"
				}
			],
			"stateMutability": "view",
			"type": "function"
		},
		{
			"inputs": [],
			"name": "mintIsClosed",
			"outputs": [
				{
					"internalType": "bool",
					"name": "",
					"type": "bool"
				}
			],
			"stateMutability": "view",
			"type": "function"
		},
		{
			"inputs": [
				{
					"internalType": "address",
					"name": "minter",
					"type": "address"
				},
				{
					"internalType": "uint256",
					"name": "quantity",
					"type": "uint256"
				}
			],
			"name": "mintSeaDrop",
			"outputs": [],
			"stateMutability": "nonpayable",
			"type": "function"
		},
		{
			"inputs": [
				{
					"components": [
						{
							"internalType": "uint256",
							"name": "maxSupply",
							"type": "uint256"
						},
						{
							"internalType": "string",
							"name": "baseURI",
							"type": "string"
						},
						{
							"internalType": "string",
							"name": "contractURI",
							"type": "string"
						},
						{
							"internalType": "address",
							"name": "seaDropImpl",
							"type": "address"
						},
						{
							"components": [
								{
									"internalType": "uint80",
									"name": "mintPrice",
									"type": "uint80"
								},
								{
									"internalType": "uint48",
									"name": "startTime",
									"type": "uint48"
								},
								{
									"internalType": "uint48",
									"name": "endTime",
									"type": "uint48"
								},
								{
									"internalType": "uint16",
									"name": "maxTotalMintableByWallet",
									"type": "uint16"
								},
								{
									"internalType": "uint16",
									"name": "feeBps",
									"type": "uint16"
								},
								{
									"internalType": "bool",
									"name": "restrictFeeRecipients",
									"type": "bool"
								}
							],
							"internalType": "struct PublicDrop",
							"name": "publicDrop",
							"type": "tuple"
						},
						{
							"internalType": "string",
							"name": "dropURI",
							"type": "string"
						},
						{
							"components": [
								{
									"internalType": "bytes32",
									"name": "merkleRoot",
									"type": "bytes32"
								},
								{
									"internalType": "string[]",
									"name": "publicKeyURIs",
									"type": "string[]"
								},
								{
									"internalType": "string",
									"name": "allowListURI",
									"type": "string"
								}
							],
							"internalType": "struct AllowListData",
							"name": "allowListData",
							"type": "tuple"
						},
						{
							"internalType": "address",
							"name": "creatorPayoutAddress",
							"type": "address"
						},
						{
							"internalType": "bytes32",
							"name": "provenanceHash",
							"type": "bytes32"
						},
						{
							"internalType": "address[]",
							"name": "allowedFeeRecipients",
							"type": "address[]"
						},
						{
							"internalType": "address[]",
							"name": "disallowedFeeRecipients",
							"type": "address[]"
						},
						{
							"internalType": "address[]",
							"name": "allowedPayers",
							"type": "address[]"
						},
						{
							"internalType": "address[]",
							"name": "disallowedPayers",
							"type": "address[]"
						},
						{
							"internalType": "address[]",
							"name": "tokenGatedAllowedNftTokens",
							"type": "address[]"
						},
						{
							"components": [
								{
									"internalType": "uint80",
									"name": "mintPrice",
									"type": "uint80"
								},
								{
									"internalType": "uint16",
									"name": "maxTotalMintableByWallet",
									"type": "uint16"
								},
								{
									"internalType": "uint48",
									"name": "startTime",
									"type": "uint48"
								},
								{
									"internalType": "uint48",
									"name": "endTime",
									"type": "uint48"
								},
								{
									"internalType": "uint8",
									"name": "dropStageIndex",
									"type": "uint8"
								},
								{
									"internalType": "uint32",
									"name": "maxTokenSupplyForStage",
									"type": "uint32"
								},
								{
									"internalType": "uint16",
									"name": "feeBps",
									"type": "uint16"
								},
								{
									"internalType": "bool",
									"name": "restrictFeeRecipients",
									"type": "bool"
								}
							],
							"internalType": "struct TokenGatedDropStage[]",
							"name": "tokenGatedDropStages",
							"type": "tuple[]"
						},
						{
							"internalType": "address[]",
							"name": "disallowedTokenGatedAllowedNftTokens",
							"type": "address[]"
						},
						{
							"internalType": "address[]",
							"name": "signers",
							"type": "address[]"
						},
						{
							"components": [
								{
									"internalType": "uint80",
									"name": "minMintPrice",
									"type": "uint80"
								},
								{
									"internalType": "uint24",
									"name": "maxMaxTotalMintableByWallet",
									"type": "uint24"
								},
								{
									"internalType": "uint40",
									"name": "minStartTime",
									"type": "uint40"
								},
								{
									"internalType": "uint40",
									"name": "maxEndTime",
									"type": "uint40"
								},
								{
									"internalType": "uint40",
									"name": "maxMaxTokenSupplyForStage",
									"type": "uint40"
								},
								{
									"internalType": "uint16",
									"name": "minFeeBps",
									"type": "uint16"
								},
								{
									"internalType": "uint16",
									"name": "maxFeeBps",
									"type": "uint16"
								}
							],
							"internalType": "struct SignedMintValidationParams[]",
							"name": "signedMintValidationParams",
							"type": "tuple[]"
						},
						{
							"internalType": "address[]",
							"name": "disallowedSigners",
							"type": "address[]"
						}
					],
					"internalType": "struct ERC721SeaDropStructsErrorsAndEvents.MultiConfigureStruct",
					"name": "config",
					"type": "tuple"
				}
			],
			"name": "multiConfigure",
			"outputs": [],
			"stateMutability": "nonpayable",
			"type": "function"
		},
		{
			"inputs": [],
			"name": "name",
			"outputs": [
				{
					"internalType": "string",
					"name": "",
					"type": "string"
				}
			],
			"stateMutability": "view",
			"type": "function"
		},
		{
			"inputs": [],
			"name": "owner",
			"outputs": [
				{
					"internalType": "address",
					"name": "",
					"type": "address"
				}
			],
			"stateMutability": "view",
			"type": "function"
		},
		{
			"inputs": [
				{
					"internalType": "address",
					"name": "toAddress",
					"type": "address"
				},
				{
					"internalType": "uint256",
					"name": "quantity",
					"type": "uint256"
				}
			],
			"name": "ownerMint",
			"outputs": [],
			"stateMutability": "nonpayable",
			"type": "function"
		},
		{
			"inputs": [],
			"name": "ownerMintsRemaining",
			"outputs": [
				{
					"internalType": "uint16",
					"name": "",
					"type": "uint16"
				}
			],
			"stateMutability": "view",
			"type": "function"
		},
		{
			"inputs": [
				{
					"internalType": "uint256",
					"name": "tokenId",
					"type": "uint256"
				}
			],
			"name": "ownerOf",
			"outputs": [
				{
					"internalType": "address",
					"name": "",
					"type": "address"
				}
			],
			"stateMutability": "view",
			"type": "function"
		},
		{
			"inputs": [],
			"name": "provenanceHash",
			"outputs": [
				{
					"internalType": "bytes32",
					"name": "",
					"type": "bytes32"
				}
			],
			"stateMutability": "view",
			"type": "function"
		},
		{
			"inputs": [],
			"name": "renderer",
			"outputs": [
				{
					"internalType": "contract ISVGRenderer",
					"name": "",
					"type": "address"
				}
			],
			"stateMutability": "view",
			"type": "function"
		},
		{
			"inputs": [],
			"name": "renounceOwnership",
			"outputs": [],
			"stateMutability": "nonpayable",
			"type": "function"
		},
		{
			"inputs": [
				{
					"internalType": "uint256",
					"name": "tokenId",
					"type": "uint256"
				}
			],
			"name": "resetTokenName",
			"outputs": [],
			"stateMutability": "nonpayable",
			"type": "function"
		},
		{
			"inputs": [
				{
					"internalType": "uint256",
					"name": "_seed",
					"type": "uint256"
				},
				{
					"internalType": "uint256",
					"name": "_nonce",
					"type": "uint256"
				}
			],
			"name": "revealGlobalSeed",
			"outputs": [],
			"stateMutability": "nonpayable",
			"type": "function"
		},
		{
			"inputs": [
				{
					"internalType": "uint256",
					"name": "_seed",
					"type": "uint256"
				},
				{
					"internalType": "uint256",
					"name": "_nonce",
					"type": "uint256"
				}
			],
			"name": "revealShufflerSeed",
			"outputs": [],
			"stateMutability": "nonpayable",
			"type": "function"
		},
		{
			"inputs": [],
			"name": "royaltyAddress",
			"outputs": [
				{
					"internalType": "address",
					"name": "",
					"type": "address"
				}
			],
			"stateMutability": "view",
			"type": "function"
		},
		{
			"inputs": [],
			"name": "royaltyBasisPoints",
			"outputs": [
				{
					"internalType": "uint256",
					"name": "",
					"type": "uint256"
				}
			],
			"stateMutability": "view",
			"type": "function"
		},
		{
			"inputs": [
				{
					"internalType": "uint256",
					"name": "",
					"type": "uint256"
				},
				{
					"internalType": "uint256",
					"name": "_salePrice",
					"type": "uint256"
				}
			],
			"name": "royaltyInfo",
			"outputs": [
				{
					"internalType": "address",
					"name": "receiver",
					"type": "address"
				},
				{
					"internalType": "uint256",
					"name": "royaltyAmount",
					"type": "uint256"
				}
			],
			"stateMutability": "view",
			"type": "function"
		},
		{
			"inputs": [
				{
					"internalType": "address",
					"name": "from",
					"type": "address"
				},
				{
					"internalType": "address",
					"name": "to",
					"type": "address"
				},
				{
					"internalType": "uint256",
					"name": "tokenId",
					"type": "uint256"
				}
			],
			"name": "safeTransferFrom",
			"outputs": [],
			"stateMutability": "payable",
			"type": "function"
		},
		{
			"inputs": [
				{
					"internalType": "address",
					"name": "from",
					"type": "address"
				},
				{
					"internalType": "address",
					"name": "to",
					"type": "address"
				},
				{
					"internalType": "uint256",
					"name": "tokenId",
					"type": "uint256"
				},
				{
					"internalType": "bytes",
					"name": "_data",
					"type": "bytes"
				}
			],
			"name": "safeTransferFrom",
			"outputs": [],
			"stateMutability": "payable",
			"type": "function"
		},
		{
			"inputs": [
				{
					"internalType": "address",
					"name": "operator",
					"type": "address"
				},
				{
					"internalType": "bool",
					"name": "approved",
					"type": "bool"
				}
			],
			"name": "setApprovalForAll",
			"outputs": [],
			"stateMutability": "nonpayable",
			"type": "function"
		},
		{
			"inputs": [
				{
					"internalType": "string",
					"name": "newBaseURI",
					"type": "string"
				}
			],
			"name": "setBaseURI",
			"outputs": [],
			"stateMutability": "nonpayable",
			"type": "function"
		},
		{
			"inputs": [
				{
					"internalType": "string",
					"name": "newContractURI",
					"type": "string"
				}
			],
			"name": "setContractURI",
			"outputs": [],
			"stateMutability": "nonpayable",
			"type": "function"
		},
		{
			"inputs": [
				{
					"internalType": "uint256",
					"name": "newMaxSupply",
					"type": "uint256"
				}
			],
			"name": "setMaxSupply",
			"outputs": [],
			"stateMutability": "nonpayable",
			"type": "function"
		},
		{
			"inputs": [
				{
					"internalType": "bytes32",
					"name": "newProvenanceHash",
					"type": "bytes32"
				}
			],
			"name": "setProvenanceHash",
			"outputs": [],
			"stateMutability": "nonpayable",
			"type": "function"
		},
		{
			"inputs": [
				{
					"internalType": "contract ISVGRenderer",
					"name": "_renderer",
					"type": "address"
				}
			],
			"name": "setRenderer",
			"outputs": [],
			"stateMutability": "nonpayable",
			"type": "function"
		},
		{
			"inputs": [
				{
					"components": [
						{
							"internalType": "address",
							"name": "royaltyAddress",
							"type": "address"
						},
						{
							"internalType": "uint96",
							"name": "royaltyBps",
							"type": "uint96"
						}
					],
					"internalType": "struct ISeaDropTokenContractMetadata.RoyaltyInfo",
					"name": "newInfo",
					"type": "tuple"
				}
			],
			"name": "setRoyaltyInfo",
			"outputs": [],
			"stateMutability": "nonpayable",
			"type": "function"
		},
		{
			"inputs": [
				{
					"internalType": "uint256",
					"name": "tokenId",
					"type": "uint256"
				},
				{
					"internalType": "uint256",
					"name": "backgroundIndex",
					"type": "uint256"
				}
			],
			"name": "setTokenBackground",
			"outputs": [],
			"stateMutability": "nonpayable",
			"type": "function"
		},
		{
			"inputs": [
				{
					"internalType": "uint256",
					"name": "tokenId",
					"type": "uint256"
				},
				{
					"internalType": "string",
					"name": "name",
					"type": "string"
				}
			],
			"name": "setTokenName",
			"outputs": [],
			"stateMutability": "nonpayable",
			"type": "function"
		},
		{
			"inputs": [
				{
					"internalType": "address",
					"name": "newValidator",
					"type": "address"
				}
			],
			"name": "setTransferValidator",
			"outputs": [],
			"stateMutability": "nonpayable",
			"type": "function"
		},
		{
			"inputs": [],
			"name": "shufflerSeed",
			"outputs": [
				{
					"internalType": "uint256",
					"name": "",
					"type": "uint256"
				}
			],
			"stateMutability": "view",
			"type": "function"
		},
		{
			"inputs": [],
			"name": "shufflerSeedRevealed",
			"outputs": [
				{
					"internalType": "bool",
					"name": "",
					"type": "bool"
				}
			],
			"stateMutability": "view",
			"type": "function"
		},
		{
			"inputs": [
				{
					"internalType": "bytes4",
					"name": "interfaceId",
					"type": "bytes4"
				}
			],
			"name": "supportsInterface",
			"outputs": [
				{
					"internalType": "bool",
					"name": "",
					"type": "bool"
				}
			],
			"stateMutability": "view",
			"type": "function"
		},
		{
			"inputs": [],
			"name": "symbol",
			"outputs": [
				{
					"internalType": "string",
					"name": "",
					"type": "string"
				}
			],
			"stateMutability": "view",
			"type": "function"
		},
		{
			"inputs": [
				{
					"internalType": "uint256",
					"name": "tokenId",
					"type": "uint256"
				}
			],
			"name": "tokenURI",
			"outputs": [
				{
					"internalType": "string",
					"name": "",
					"type": "string"
				}
			],
			"stateMutability": "view",
			"type": "function"
		},
		{
			"inputs": [
				{
					"internalType": "address",
					"name": "owner",
					"type": "address"
				}
			],
			"name": "tokensOfOwner",
			"outputs": [
				{
					"internalType": "uint256[]",
					"name": "",
					"type": "uint256[]"
				}
			],
			"stateMutability": "view",
			"type": "function"
		},
		{
			"inputs": [
				{
					"internalType": "address",
					"name": "owner",
					"type": "address"
				},
				{
					"internalType": "uint256",
					"name": "start",
					"type": "uint256"
				},
				{
					"internalType": "uint256",
					"name": "stop",
					"type": "uint256"
				}
			],
			"name": "tokensOfOwnerIn",
			"outputs": [
				{
					"internalType": "uint256[]",
					"name": "",
					"type": "uint256[]"
				}
			],
			"stateMutability": "view",
			"type": "function"
		},
		{
			"inputs": [],
			"name": "totalSupply",
			"outputs": [
				{
					"internalType": "uint256",
					"name": "result",
					"type": "uint256"
				}
			],
			"stateMutability": "view",
			"type": "function"
		},
		{
			"inputs": [
				{
					"internalType": "address",
					"name": "from",
					"type": "address"
				},
				{
					"internalType": "address",
					"name": "to",
					"type": "address"
				},
				{
					"internalType": "uint256",
					"name": "tokenId",
					"type": "uint256"
				}
			],
			"name": "transferFrom",
			"outputs": [],
			"stateMutability": "payable",
			"type": "function"
		},
		{
			"inputs": [
				{
					"internalType": "address",
					"name": "newPotentialOwner",
					"type": "address"
				}
			],
			"name": "transferOwnership",
			"outputs": [],
			"stateMutability": "nonpayable",
			"type": "function"
		},
		{
			"inputs": [],
			"name": "transfersPaused",
			"outputs": [
				{
					"internalType": "bool",
					"name": "",
					"type": "bool"
				}
			],
			"stateMutability": "view",
			"type": "function"
		},
		{
			"inputs": [
				{
					"internalType": "address",
					"name": "seaDropImpl",
					"type": "address"
				},
				{
					"components": [
						{
							"internalType": "bytes32",
							"name": "merkleRoot",
							"type": "bytes32"
						},
						{
							"internalType": "string[]",
							"name": "publicKeyURIs",
							"type": "string[]"
						},
						{
							"internalType": "string",
							"name": "allowListURI",
							"type": "string"
						}
					],
					"internalType": "struct AllowListData",
					"name": "allowListData",
					"type": "tuple"
				}
			],
			"name": "updateAllowList",
			"outputs": [],
			"stateMutability": "nonpayable",
			"type": "function"
		},
		{
			"inputs": [
				{
					"internalType": "address",
					"name": "seaDropImpl",
					"type": "address"
				},
				{
					"internalType": "address",
					"name": "feeRecipient",
					"type": "address"
				},
				{
					"internalType": "bool",
					"name": "allowed",
					"type": "bool"
				}
			],
			"name": "updateAllowedFeeRecipient",
			"outputs": [],
			"stateMutability": "nonpayable",
			"type": "function"
		},
		{
			"inputs": [
				{
					"internalType": "address[]",
					"name": "allowedSeaDrop",
					"type": "address[]"
				}
			],
			"name": "updateAllowedSeaDrop",
			"outputs": [],
			"stateMutability": "nonpayable",
			"type": "function"
		},
		{
			"inputs": [
				{
					"internalType": "address",
					"name": "seaDropImpl",
					"type": "address"
				},
				{
					"internalType": "address",
					"name": "payoutAddress",
					"type": "address"
				}
			],
			"name": "updateCreatorPayoutAddress",
			"outputs": [],
			"stateMutability": "nonpayable",
			"type": "function"
		},
		{
			"inputs": [
				{
					"internalType": "address",
					"name": "seaDropImpl",
					"type": "address"
				},
				{
					"internalType": "string",
					"name": "dropURI",
					"type": "string"
				}
			],
			"name": "updateDropURI",
			"outputs": [],
			"stateMutability": "nonpayable",
			"type": "function"
		},
		{
			"inputs": [
				{
					"internalType": "address",
					"name": "seaDropImpl",
					"type": "address"
				},
				{
					"internalType": "address",
					"name": "payer",
					"type": "address"
				},
				{
					"internalType": "bool",
					"name": "allowed",
					"type": "bool"
				}
			],
			"name": "updatePayer",
			"outputs": [],
			"stateMutability": "nonpayable",
			"type": "function"
		},
		{
			"inputs": [
				{
					"internalType": "address",
					"name": "seaDropImpl",
					"type": "address"
				},
				{
					"components": [
						{
							"internalType": "uint80",
							"name": "mintPrice",
							"type": "uint80"
						},
						{
							"internalType": "uint48",
							"name": "startTime",
							"type": "uint48"
						},
						{
							"internalType": "uint48",
							"name": "endTime",
							"type": "uint48"
						},
						{
							"internalType": "uint16",
							"name": "maxTotalMintableByWallet",
							"type": "uint16"
						},
						{
							"internalType": "uint16",
							"name": "feeBps",
							"type": "uint16"
						},
						{
							"internalType": "bool",
							"name": "restrictFeeRecipients",
							"type": "bool"
						}
					],
					"internalType": "struct PublicDrop",
					"name": "publicDrop",
					"type": "tuple"
				}
			],
			"name": "updatePublicDrop",
			"outputs": [],
			"stateMutability": "nonpayable",
			"type": "function"
		},
		{
			"inputs": [
				{
					"internalType": "address",
					"name": "seaDropImpl",
					"type": "address"
				},
				{
					"internalType": "address",
					"name": "signer",
					"type": "address"
				},
				{
					"components": [
						{
							"internalType": "uint80",
							"name": "minMintPrice",
							"type": "uint80"
						},
						{
							"internalType": "uint24",
							"name": "maxMaxTotalMintableByWallet",
							"type": "uint24"
						},
						{
							"internalType": "uint40",
							"name": "minStartTime",
							"type": "uint40"
						},
						{
							"internalType": "uint40",
							"name": "maxEndTime",
							"type": "uint40"
						},
						{
							"internalType": "uint40",
							"name": "maxMaxTokenSupplyForStage",
							"type": "uint40"
						},
						{
							"internalType": "uint16",
							"name": "minFeeBps",
							"type": "uint16"
						},
						{
							"internalType": "uint16",
							"name": "maxFeeBps",
							"type": "uint16"
						}
					],
					"internalType": "struct SignedMintValidationParams",
					"name": "signedMintValidationParams",
					"type": "tuple"
				}
			],
			"name": "updateSignedMintValidationParams",
			"outputs": [],
			"stateMutability": "nonpayable",
			"type": "function"
		},
		{
			"inputs": [
				{
					"internalType": "address",
					"name": "seaDropImpl",
					"type": "address"
				},
				{
					"internalType": "address",
					"name": "allowedNftToken",
					"type": "address"
				},
				{
					"components": [
						{
							"internalType": "uint80",
							"name": "mintPrice",
							"type": "uint80"
						},
						{
							"internalType": "uint16",
							"name": "maxTotalMintableByWallet",
							"type": "uint16"
						},
						{
							"internalType": "uint48",
							"name": "startTime",
							"type": "uint48"
						},
						{
							"internalType": "uint48",
							"name": "endTime",
							"type": "uint48"
						},
						{
							"internalType": "uint8",
							"name": "dropStageIndex",
							"type": "uint8"
						},
						{
							"internalType": "uint32",
							"name": "maxTokenSupplyForStage",
							"type": "uint32"
						},
						{
							"internalType": "uint16",
							"name": "feeBps",
							"type": "uint16"
						},
						{
							"internalType": "bool",
							"name": "restrictFeeRecipients",
							"type": "bool"
						}
					],
					"internalType": "struct TokenGatedDropStage",
					"name": "dropStage",
					"type": "tuple"
				}
			],
			"name": "updateTokenGatedDrop",
			"outputs": [],
			"stateMutability": "nonpayable",
			"type": "function"
		},
		{
			"inputs": [
				{
					"internalType": "bool",
					"name": "paused",
					"type": "bool"
				}
			],
			"name": "updateTransfersPaused",
			"outputs": [],
			"stateMutability": "nonpayable",
			"type": "function"
		}
	]
}