{
	"data": {
		"bytecode": {
			"linkReferences": {},
			"object": "60c0604052346100fd57615e758038038061001981610115565b928339810160a0828203126100fd578151916100348361013a565b602081015160408201516060830151608084015190939192916001600160401b0382116100fd57019484601f870112156100fd578551946001600160401b038611610101578560051b9660208061008c818b01610115565b8099815201988201019182116100fd57602001965b8188106100e35750506100b4955061016d565b6040516157f9908161067c8239608051818181611ea40152613642015260a0518181816119990152612d6d0152f35b6020809189516100f28161013a565b8152019701966100a1565b5f80fd5b634e487b7160e01b5f52604160045260245ffd5b6040519190601f01601f191682016001600160401b0381118382101761010157604052565b6001600160a01b038116036100fd57565b6101556040610115565b90600a8252565b6101666040610115565b9060058252565b929361017761014b565b69526574726f50756e6b7360b01b602082015261019261015c565b6452504e4b5360d81b6020820152815190916001600160401b038211610101576101c6826101c1600254610497565b6104cf565b602090601f831160011461034d5791806101fa9261020295945f92610342575b50508160011b915f199060031b1c19161790565b60025561054a565b61020b60015f55565b610213610623565b80515f5b8181106102f3575050916102f19493916102336102ec94610412565b7f867006957979daa4aa88eb4157c1262555f712bc61ec3d0046c5a49a2c190b456040517fd7aca75208b9be5ffc04c6a01922020ffd62b55e68e502e317f5344960279af85f80a161028d600160ff196013541617601355565b806102a861029d60135460ff1690565b151582526020820190565b0390a16013805462ffffff60a81b19169055600a60185560805260a05260138054610100600160a81b03191660089290921b610100600160a81b0316919091179055565b600c55565b565b8061033c61032f610316610309600195886103d4565b516001600160a01b031690565b6001600160a01b03165f90815260116020526040902090565b805460ff19166001179055565b01610217565b015190505f806101e6565b60025f52601f19831691907f405787fa12a823e0f2b7631cc41b3ba8828b3321ca811111fa75cd3aa3bb5ace925f5b8181106103bc5750916001939185610202979694106103a4575b505050811b0160025561054a565b01515f1960f88460031b161c191690555f8080610396565b9293602060018192878601518155019501930161037c565b80518210156103e85760209160051b010190565b634e487b7160e01b5f52603260045260245ffd5b818110610407575050565b5f81556001016103fc565b8051906001600160401b03821161010157680100000000000000008211610101576020906012548360125580841061047b575b500160125f5260205f205f5b83811061045e5750505050565b82516001600160a01b031682820155602090920191600101610451565b6104919060125f5284845f2091820191016103fc565b5f610445565b90600182811c921680156104c5575b60208310146104b157565b634e487b7160e01b5f52602260045260245ffd5b91607f16916104a6565b90601f82116104dc575050565b6102f19160025f5260205f20906020601f840160051c83019310610508575b601f0160051c01906103fc565b90915081906104fb565b9190601f811161052157505050565b6102f1925f5260205f20906020601f840160051c8301931061050857601f0160051c01906103fc565b80519091906001600160401b038111610101576105738161056c600354610497565b6003610512565b602092601f82116001146105a7576105a2929382915f926103425750508160011b915f199060031b1c19161790565b600355565b60035f52601f198216937fc2575a0e9e593c00f959f8c92f12db2869c3395a3b0502d05e2516446f71f85b915f5b86811061060b57508360019596106105f3575b505050811b01600355565b01515f1960f88460031b161c191690555f80806105e8565b919260206001819286850151815501940192016105d5565b303b61066d57600a8054336001600160a01b0319821681179092556001600160a01b03167f8be0079c531659141344cd1fd0a4f28419497f9722a3daafe3b4186f6b6457e05f80a3565b62dc149f60e41b5f5260045ffdfe60806040526004361015610011575f80fd5b5f3560e01c806301ffc9a7146104a457806306fdde031461049f57806307aafa981461049a578063081812fc14610495578063095ea7b314610490578063098144d41461048b578063099b6bfa146104865780630d705df6146104815780630d9d713b1461047c57806318160ddd146104775780631b73593c146104725780631dbd73901461046d57806323452b9c1461046857806323b872dd146104635780632a55205a1461045e5780633680620d1461045957806342260b5d1461045457806342842e0e1461044f57806342966c681461044a57806344dae42c146104455780634563f30a14610440578063484b973c1461043b57806348a4c10114610436578063511aa6441461043157806355f804b31461042c57806356d3163d146104275780635743bdff146104225780635bbb21771461041d57806360c308b6146104185780636352211e1461041357806364869dad1461040e57806364f101f01461040957806366251b69146104045780636c0360eb146103ff5780636f8b44b0146103fa57806370a08231146103f5578063715018a6146103f057806373c5643a146103eb57806374e4f5af146103e657806379ba5097146103e15780637a05bc82146103dc5780637bc2be76146103d7578063840e15d4146103d25780638462151c146103cd578063853b3b4c146103c85780638ada6b0f146103c35780638da5cb5b146103be578063911f456b146103b9578063938e3d7b146103b45780639559a5d9146103af57806395d89b41146103aa57806399a2557a146103a557806399c5def3146103a05780639b7406a51461039b578063a22cb46514610396578063a483011414610391578063a9fc664e1461038c578063ad2f852a14610387578063b88d4fde14610382578063c23dc68f1461037d578063c6ab67a314610378578063c87b56dd14610373578063cb743ba81461036e578063cdb0e89e14610369578063d5abeb0114610364578063d74b68571461035f578063db846dbe1461035a578063e8a3d48514610355578063e985e9c514610350578063f2fde38b1461034b578063f4cc710514610346578063f6448f88146103415763fe97b5761461033c575f80fd5b613738565b613665565b61362b565b6135a7565b613584565b6134df565b613486565b6132d9565b6132bc565b613192565b613130565b61307c565b61305f565b612ffc565b612f9a565b612f21565b612e7c565b612e36565b612d90565b612d56565b612d39565b612bb4565b612b0f565b612aea565b6129a6565b611f92565b611f6a565b611f3e565b611e52565b611cb4565b611c21565b611b90565b611b0d565b611a5c565b611a37565b611939565b6118de565b6118b7565b611824565b61177f565b611714565b6116c2565b611633565b611604565b6114f2565b611423565b6113b4565b61132d565b6111f6565b6110f6565b610f33565b610e65565b610e43565b610d61565b610c00565b610bdc565b610bbc565b610b1c565b610acd565b610abb565b610a39565b610a14565b610984565b61095f565b6108fd565b6108bb565b61084e565b610826565b610763565b610703565b6106e6565b610610565b6104bf565b6001600160e01b03198116036104bb57565b5f80fd5b346104bb5760203660031901126104bb576105146004356104df816104a9565b63ffffffff60e01b16630c487f4760e11b81149081156105bd575b8115610518575b5060405190151581529081906020820190565b0390f35b63152a902d60e11b8114915081156105ac575b811561059b575b811561058a575b8115610547575b505f610501565b6301ffc9a760e01b811491508115610579575b8115610568575b505f610540565b635b5e139f60e01b1490505f610561565b6380ac58cd60e01b8114915061055a565b632483248360e11b81149150610539565b63503e914d60e11b81149150610532565b632b435fdb60e21b8114915061052b565b639c15441560e01b811491506104fa565b5f9103126104bb57565b805180835260209291819084018484015e5f828201840152601f01601f1916010190565b90602061060d9281815201906105d8565b90565b346104bb575f3660031901126104bb576040515f600254610630816133b0565b80845290600181169081156106c25750600114610664575b6105148361065881850382610ff8565b604051918291826105fc565b60025f9081527f405787fa12a823e0f2b7631cc41b3ba8828b3321ca811111fa75cd3aa3bb5ace939250905b8082106106a857509091508101602001610658610648565b919260018160209254838588010152019101909291610690565b60ff191660208086019190915291151560051b840190910191506106589050610648565b346104bb575f3660031901126104bb576020601454604051908152f35b346104bb5760203660031901126104bb576004356107208161490e565b15610743575f526006602052602060018060a01b0360405f205416604051908152f35b6333d1c03960e21b5f5260045ffd5b6001600160a01b038116036104bb57565b60403660031901126104bb5760043561077b81610752565b6024359060ff60135416610817576001600160a01b0361079a83614a0e565b16908133036107fa575b5f83815260066020526040902080546001600160a01b0319166001600160a01b0383161790556001600160a01b0316907f8c5be1e5ebec7d5bd14f71427d1e84f3dd0314c0f7b2291e5b200ac8c7c3b9255f80a4005b6108043383614776565b6107a4576367d9dca160e11b5f5260045ffd5b636ab17e0560e01b5f5260045ffd5b346104bb575f3660031901126104bb576009546040516001600160a01b039091168152602090f35b346104bb5760203660031901126104bb5760043561086a6149a2565b5f545f19016108ac5760407f7c22004198bf87da0f0dab623c72e66ca1200f4454aa3b9ca30f436275428b7c91600f549080600f5582519182526020820152a1005b63e03264af60e01b5f5260045ffd5b346104bb575f3660031901126104bb576040805163657711f560e11b81525f6020820152f35b6024359081151582036104bb57565b359081151582036104bb57565b346104bb5760203660031901126104bb576004358015158091036104bb5760207f867006957979daa4aa88eb4157c1262555f712bc61ec3d0046c5a49a2c190b45916109476149c9565b60ff196013541660ff821617601355604051908152a1005b346104bb575f3660031901126104bb575f54600154602091035f19015b604051908152f35b346104bb575f60e03660031901126104bb576004356109a281610752565b60c03660231901126104bb576109b66149a2565b6109bf816149dd565b6001600160a01b0316803b156104bb575f809160c4604051809481936301308e6560e01b83526109f16004840161376e565b5af18015610a0f57610a01575080f35b610a0d91505f90610ff8565b005b6137fc565b346104bb575f3660031901126104bb57602060ff60135460a81c166040519015158152f35b346104bb575f3660031901126104bb57610a516149c9565b6001600160601b0360a01b600b5416600b557f11a3cf439fb225bfe74225716b6774765670ec1060e3796802e62139d69974da60206040515f8152a1005b60609060031901126104bb57600435610aa781610752565b90602435610ab481610752565b9060443590565b610a0d610ac736610a8f565b91613807565b346104bb5760403660031901126104bb576024356010548060a01c91828102928184041490151715610b1757604080516001600160a01b0390921682526127109092046020820152f35b613976565b346104bb575f60403660031901126104bb57600435610b3a81610752565b602435906001600160401b0382116104bb57606060031983360301126104bb57610b626149a2565b610b6b816149dd565b6001600160a01b0316803b156104bb57610baa5f9291839260405194858094819363ebb4a55f60e01b83526020600484015260248301906004016139db565b03925af18015610a0f57610a01575080f35b346104bb575f3660031901126104bb57602060105460a01c604051908152f35b610a0d610be836610a8f565b9060405192610bf8602085610ff8565b5f845261431d565b346104bb5760203660031901126104bb57600435610c1d81614a0e565b5f8281526006602052604090208054916001600160a01b03811691338084149085141715610c4a565b1590565b610d4a575b5f93610c5b8685614a79565b610d41575b506001600160a01b0382165f90815260056020526040902080546fffffffffffffffffffffffffffffffff0190556001600160a01b0382164260a01b17600360e01b17610cb5855f52600460205260405f2090565b55600160e11b811615610cfc575b507fddf252ad1be2c89b69c2b068fc378daa952ba7f163c4a11628f55a4df523b3ef8280a4610a0d610cf760015460010190565b600155565b60018401610d12815f52600460205260405f2090565b5415610d1f575b50610cc3565b83548114610d1957610d39905f52600460205260405f2090565b555f80610d19565b8390555f610c60565b610d57610c463385614776565b15610c4f57614959565b346104bb5760403660031901126104bb57610d7a6149a2565b600435610d8681610752565b6001600160a01b031615610e34576127106001600160601b03610da7613ab0565b1611610e1157610db5613ac6565b7ff21fccf4d64d86d532c4e4eb86c007b6ad57a460c27d724188625e755ec6cf6d610dde613a9a565b610de6613ab0565b604080516001600160a01b0390931683526001600160601b039091166020830152819081015b0390a1005b6001600160601b03610e21613ab0565b633cadbafb60e01b5f521660045260245ffd5b631cc0baef60e01b5f5260045ffd5b346104bb575f3660031901126104bb57602060ff601354166040519015158152f35b346104bb5760403660031901126104bb57600435610e8281610752565b602435610e8d6149c9565b3068929eee149b4bd212685414610ef1573068929eee149b4bd212685560185491818310610ee257818303928311610b1757610ed492601855610ecf82614bf0565b614c36565b3868929eee149b4bd2126855005b630651450360e51b5f5260045ffd5b63ab143c065f526004601cfd5b60609060031901126104bb57600435610f1681610752565b90602435610f2381610752565b9060443580151581036104bb5790565b346104bb57610f4136610efe565b9091610f4b6149a2565b610f54816149dd565b6001600160a01b031691823b156104bb57604051638e7d1e4360e01b81526001600160a01b03909116600482015290151560248201525f81604481015b93818381819703925af18015610a0f57610a01575080f35b634e487b7160e01b5f52604160045260245ffd5b60e081019081106001600160401b03821117610fd857604052565b610fa9565b606081019081106001600160401b03821117610fd857604052565b90601f801991011681019081106001600160401b03821117610fd857604052565b60405190611028606083610ff8565b565b604435906001600160501b03821682036104bb57565b35906001600160501b03821682036104bb57565b6064359062ffffff821682036104bb57565b359062ffffff821682036104bb57565b6084359064ffffffffff821682036104bb57565b60a4359064ffffffffff821682036104bb57565b60c4359064ffffffffff821682036104bb57565b359064ffffffffff821682036104bb57565b60e4359061ffff821682036104bb57565b610104359061ffff821682036104bb57565b359061ffff821682036104bb57565b346104bb576101203660031901126104bb5760043561111481610752565b6024359061112182610752565b60e03660431901126104bb57610a0d916040519161113e83610fbd565b61114661102a565b8352611150611054565b602084015261115d611076565b604084015261116a61108a565b606084015261117761109e565b60808401526111846110c4565b60a08401526111916110d5565b60c0840152613baa565b9181601f840112156104bb578235916001600160401b0383116104bb57602083818601950101116104bb57565b60206003198201126104bb57600435906001600160401b0382116104bb576111f29160040161119b565b9091565b346104bb57611204366111c8565b61120c6149a2565b6001600160401b038111610fd85761122e81611229600d546133b0565b613c34565b5f601f82116001146112ae57819061125b935f926112a3575b50508160011b915f199060031b1c19161790565b600d555b5f5460015490035f19015b61127057005b5f5160206157a45f395f51905f52610e0c61128b5f54613b25565b60405191829182919060206040840193600181520152565b013590505f80611247565b600d5f52601f198216927fd7b6990105719101dabeb77144f2a3385c8033acd3af97e9423a695e81ad1eb5915f5b858110611315575083600195106112fc575b505050811b01600d5561125f565b01355f19600384901b60f8161c191690555f80806112ee565b909260206001819286860135815501940191016112dc565b346104bb5760203660031901126104bb5760043561134a81610752565b6113526149c9565b60138054610100600160a81b03191660089290921b610100600160a81b03169190911790555f5460015490035f190161138757005b5f545f198101908111610b175760405f5160206157a45f395f51905f5291815190600182526020820152a1005b346104bb575f3660031901126104bb576020601854604051908152f35b9060206003198301126104bb576004356001600160401b0381116104bb5760040182601f820112156104bb578035926001600160401b0384116104bb576020808301928560051b0101116104bb579190565b346104bb57611431366113d1565b906040519180835260051b6020818401016040525b8081801561146c57601f1990810192611463919085010135614392565b90840152611446565b846040518091602082016020835281518091526020604084019201905f5b818110611498575050500390f35b9193509160206080826114e4600194885162ffffff6060809260018060a01b0381511685526001600160401b036020820151166020860152604081015115156040860152015116910152565b01940191019184939261148a565b346104bb57611500366113d1565b6115086149c9565b6012545f5b8181106115a35750505f5b81811061155b57508161154c827fbbd3b69c138de4d317d0bc4290282c4e1cbd1e58b579a5b4f114b598c237454d94614d5f565b610e0c60405192839283614dfb565b8061159d6115906115776115726001958789613f84565b613aa6565b6001600160a01b03165f90815260116020526040902090565b805460ff19166001179055565b01611518565b6012548110156115ff5760125f527fbb8a6a4669ba250d26cd7a459eca9d215f8307e33aebe50379bc5a3617ec3444810154600191906115f9906115ef906001600160a01b0316611577565b805460ff19169055565b0161150d565b613f70565b346104bb5760203660031901126104bb5760206001600160a01b0361162a600435614a0e565b16604051908152f35b346104bb5760403660031901126104bb5760043561165081610752565b6024353068929eee149b4bd212685414610ef1573068929eee149b4bd2126855611679336149dd565b5f545f190191818301809311610b1757600c5480931161169d57610ed49250614c36565b505f545f1901908101809111610b175763384b48c560e21b5f5260045260245260445ffd5b346104bb575f3660031901126104bb576116da6149c9565b6013805460ff60a81b1916600160a81b179055005b60409060031901126104bb5760043561170781610752565b9060243561060d81610752565b346104bb57611722366116ef565b9061172b6149a2565b611734816149dd565b6001600160a01b0316803b156104bb5760405163024e71b760e31b81526001600160a01b0390921660048301525f919082908290602490829084905af18015610a0f57610a01575080f35b346104bb575f3660031901126104bb576040515f600d5461179f816133b0565b80845290600181169081156106c257506001146117c6576105148361065881850382610ff8565b600d5f9081527fd7b6990105719101dabeb77144f2a3385c8033acd3af97e9423a695e81ad1eb5939250905b80821061180a57509091508101602001610658610648565b9192600181602092548385880101520191019092916117f2565b346104bb5760203660031901126104bb576004356118406149a2565b6001600160401b0381116118a5575f545f1901811061188a576020817f7810bd47de260c3e9ee10061cf438099dd12256c79485f12f94dbccc981e806c92600c55604051908152a1005b5f545f190190638c19f1f960e01b5f5260045260245260445ffd5b63b43e913760e01b5f5260045260245ffd5b346104bb5760203660031901126104bb57602061097c6004356118d981610752565b613ce7565b346104bb575f3660031901126104bb576118f66149c9565b600a80546001600160a01b031981169091555f906001600160a01b03167f8be0079c531659141344cd1fd0a4f28419497f9722a3daafe3b4186f6b6457e08280a3005b346104bb5760403660031901126104bb576004356024356119586149c9565b60ff60135460b81c16611a285760405161199481611986602082019486869091604092825260208201520190565b03601f198101835282610ff8565b5190207f000000000000000000000000000000000000000000000000000000000000000003611a1957610e0c816119eb7f6c2137e80722ed4b518b32ea50ecb69ef2c76f0451088a3c0aa79ce523bab51493601555565b6013805460ff60b81b1916600160b81b179055611a09600c54614e42565b6040519081529081906020820190565b633bdfc85960e11b5f5260045ffd5b631104d35360e11b5f5260045ffd5b346104bb575f3660031901126104bb57602060ff60135460b81c166040519015158152f35b346104bb575f3660031901126104bb57600b546001600160a01b0381169033829003611afe576001600160601b0360a01b16600b557f11a3cf439fb225bfe74225716b6774765670ec1060e3796802e62139d69974da60206040515f8152a1600a80546001600160a01b0319811683179091556001600160a01b03167f8be0079c531659141344cd1fd0a4f28419497f9722a3daafe3b4186f6b6457e05f80a3005b636b7584e760e11b5f5260045ffd5b346104bb575f60403660031901126104bb57600435611b2b81610752565b6024356001600160401b0381116104bb57611b4a90369060040161119b565b91611b536149a2565b611b5c816149dd565b6001600160a01b031691823b156104bb57610baa925f928360405180968195829463b957d0cb60e01b845260048401613d1d565b346104bb575f6101403660031901126104bb57600435611baf81610752565b60243590611bbc82610752565b6101003660431901126104bb57611bd16149a2565b611bda816149dd565b6001600160a01b031690813b156104bb57604051637ecd591560e11b81526001600160a01b039091166004820152905f90829061012490829084906109f160248401613d4d565b346104bb5760203660031901126104bb57600435611c3e81610752565b60018060a01b03165f52600560205260606001600160401b0360405f205460401c165f195f5401600c549060405192835260208301526040820152f35b60206040818301928281528451809452019201905f5b818110611c9e5750505090565b8251845260209384019390920191600101611c91565b346104bb5760203660031901126104bb57600435611cd181610752565b5f5460609080600103611ced575b604051806105148482611c7b565b90819260019060609380831015611e43575f5480911015611e3b575b50611d1381613ce7565b9285831015611e33575b83611d32575b5050505061051491505f611cdf565b92935090915f19850184811115611e2b575b506040519183850160051b83019485604052611d5f85614392565b905f91611d72610c466040830151151590565b611e19575b505f97919591825b15611dea575b5f96611d9084614fdc565b604081015115611daf57505060015f935b019688604052969296611d7f565b9390935180611de2575b50848418861b15611dcd575b600190611da1565b6001909901600581901b87018a905298611dc5565b93505f611db9565b8083148015611e10575b15611d855750505050509150506105149181525f808080611d23565b50818914611df4565b516001600160a01b031691505f611d77565b93505f611d44565b5f9350611d1d565b94505f611d09565b631960ccad60e11b5f5260045ffd5b346104bb5760403660031901126104bb57600435602435611e716149c9565b60135460b01c60ff16611f2f57604051611e9f81611986602082019486869091604092825260208201520190565b5190207f000000000000000000000000000000000000000000000000000000000000000003611f2057611f0e81611ef67f07bccb191591b7e41b276df97ebf2cbb27e85e20fa7db7d336d3a9738021466f93601455565b6013805460ff60b01b1916600160b01b179055611a09565b0390a15f5460015490035f190161126a565b63148bb88160e31b5f5260045ffd5b6318ed71cd60e01b5f5260045ffd5b346104bb575f3660031901126104bb5760135460405160089190911c6001600160a01b03168152602090f35b346104bb575f3660031901126104bb57600a546040516001600160a01b039091168152602090f35b346104bb5760203660031901126104bb576004356001600160401b0381116104bb57806004019061030060031982360301126104bb57611fd06149c9565b813580612962575b5060248101611fe78184613e0f565b9050612909575b5060448101611ffd8184613e0f565b90506128b0575b50600165ffffffffffff61201a60a48401613e41565b16151561203761202c60c48501613e41565b65ffffffffffff1690565b1515171461284e575b610144810161204f8184613e0f565b90506127ea575b5061016481016120668184613f04565b35612785575b5061018481016001600160a01b0361208382613aa6565b1661271c575b506101a4810135806126d8575b506101c481016120a68184613f3b565b9050612635575b506101e481016120bd8184613f3b565b9050612592575b5061020481016120d48184613f3b565b90506124ef575b5061022481016120eb8184613f3b565b905061244c575b5061026481016121028184613f94565b905061236e575b5061028481016121198184613f3b565b90506122cf575b506102c4810161213081846141b2565b90506121f1575b506102e48101916121488382613f3b565b905061215057005b60645f939201925b6121628383613f3b565b9050811015610a0d576121736142bf565b9061217d85613aa6565b6121946115728361218e8888613f3b565b90613f84565b303b156104bb575f916121bb6040519586938493631446a99160e21b8552600485016142f5565b038183305af1918215610a0f576001926121d7575b5001612158565b806121e55f6121eb93610ff8565b806105ce565b5f6121d0565b6121fb81846141b2565b6102a4840192915061220d8386613f3b565b919050036122c057606483015f5b61222583876141b2565b90508110156122b65761223782613aa6565b906122496115728261218e888b613f3b565b9161225e82612258878b6141b2565b906141e7565b92303b156104bb575f916122866040519586938493631446a99160e21b8552600485016141f7565b038183305af1918215610a0f576001926122a2575b500161221b565b806121e55f6122b093610ff8565b5f61229b565b505050505f612137565b6374ef6df760e01b5f5260045ffd5b6064820192905f5b6122e18284613f3b565b9050811015612364576122f26140be565b906122fc86613aa6565b61230d6115728361218e8789613f3b565b303b156104bb575f916123346040519586938493633de15f3b60e11b85526004850161410b565b038183305af1918215610a0f57600192612350575b50016122d7565b806121e55f61235e93610ff8565b5f612349565b505091505f612120565b6123788184613f94565b610244840192915061238a8386613f3b565b9190500361243d57606483015f5b6123a28387613f94565b9050811015612433576123b482613aa6565b906123c66115728261218e888b613f3b565b916123db826123d5878b613f94565b90613fc9565b92303b156104bb575f916124036040519586938493633de15f3b60e11b855260048501613fd9565b038183305af1918215610a0f5760019261241f575b5001612398565b806121e55f61242d93610ff8565b5f612418565b505050505f612109565b63b81aa63960e01b5f5260045ffd5b606482015f5b61245c8386613f3b565b90508110156124e65761246e82613aa6565b906124806115728261218e878a613f3b565b91303b156104bb5760405163196e877560e31b81526001600160a01b039182166004820152921660248301525f604483018190528260648183305af1918215610a0f576001926124d2575b5001612452565b806121e55f6124e093610ff8565b5f6124cb565b5050505f6120f2565b606482015f5b6124ff8386613f3b565b90508110156125895761251182613aa6565b906125236115728261218e878a613f3b565b91303b156104bb5760405163196e877560e31b81526001600160a01b03918216600482015292166024830152600160448301525f8260648183305af1918215610a0f57600192612575575b50016124f5565b806121e55f61258393610ff8565b5f61256e565b5050505f6120db565b606482015f5b6125a28386613f3b565b905081101561262c576125b482613aa6565b906125c66115728261218e878a613f3b565b91303b156104bb576040516348a4c10160e01b81526001600160a01b039182166004820152921660248301525f604483018190528260648183305af1918215610a0f57600192612618575b5001612598565b806121e55f61262693610ff8565b5f612611565b5050505f6120c4565b606482015f5b6126458386613f3b565b90508110156126cf5761265782613aa6565b906126696115728261218e878a613f3b565b91303b156104bb576040516348a4c10160e01b81526001600160a01b03918216600482015292166024830152600160448301525f8260648183305af1918215610a0f576001926126bb575b500161263b565b806121e55f6126c993610ff8565b5f6126b4565b5050505f6120ad565b303b156104bb576040516304cdb5fd60e11b815260048101919091525f8160248183305af18015610a0f571561209657806121e55f61271693610ff8565b5f612096565b61273161272b60648401613aa6565b91613aa6565b90303b156104bb576040516366251b6960e01b81526001600160a01b039182166004820152911660248201525f8160448183305af18015610a0f571561208957806121e55f61277f93610ff8565b5f612089565b61279b61279460648401613aa6565b9184613f04565b90303b156104bb57604051633680620d60e01b8152915f91839182916127c5919060048401613f19565b038183305af18015610a0f571561206c57806121e55f6127e493610ff8565b5f61206c565b6128006127f960648401613aa6565b9184613e0f565b9190303b156104bb575f916128296040519485938493633d02de4160e11b855260048501613ee2565b038183305af18015610a0f571561205657806121e55f61284893610ff8565b5f612056565b61285a60648201613aa6565b303b156104bb575f61288591604051809381926306dcd64f60e21b8352608487019060048401613e4b565b038183305af18015610a0f5761289c575b50612040565b806121e55f6128aa93610ff8565b5f612896565b6128ba9083613e0f565b90303b156104bb5760405163938e3d7b60e01b8152915f91839182916128e4919060048401613d1d565b038183305af18015610a0f571561200457806121e55f61290393610ff8565b5f612004565b6129139083613e0f565b90303b156104bb576040516355f804b360e01b8152915f918391829161293d919060048401613d1d565b038183305af18015610a0f5715611fee57806121e55f61295c93610ff8565b5f611fee565b303b156104bb576040516306f8b44b60e41b815260048101919091525f8160248183305af18015610a0f5715611fd857806121e55f6129a093610ff8565b5f611fd8565b346104bb576129b4366111c8565b6129bc6149a2565b6001600160401b038111610fd8576129de816129d9600e546133b0565b613c77565b5f91601f8211600114612a4a57612a2c82807f905d981207a7d0b6c62cc46ab0be2a076d0298e4a86d0ab79882dbd01ac37378955f91612a3f575b508160011b915f199060031b1c19161790565b600e555b610e0c60405192839283613d1d565b90508301355f612a19565b600e5f52601f1982167fbb7b4a454dc3493923482f07822329ed19e8244eff582cc204f8554c3620c3fd905f5b818110612ad2575093837f905d981207a7d0b6c62cc46ab0be2a076d0298e4a86d0ab79882dbd01ac373789510612ab9575b5050600182811b01600e55612a30565b8201355f19600385901b60f8161c191690555f80612aa9565b83860135835560209586019560019093019201612a77565b346104bb575f3660031901126104bb57602060ff60135460b01c166040519015158152f35b346104bb575f3660031901126104bb576040515f600354612b2f816133b0565b80845290600181169081156106c25750600114612b56576105148361065881850382610ff8565b60035f9081527fc2575a0e9e593c00f959f8c92f12db2869c3395a3b0502d05e2516446f71f85b939250905b808210612b9a57509091508101602001610658610648565b919260018160209254838588010152019101909291612b82565b346104bb5760603660031901126104bb57600435612bd181610752565b60443590606090602435838181811015611e4357600111612d30575b5f5480911015612d28575b50612c0282613ce7565b9184821015612d20575b82612c20575b604051806105148682611c7b565b9080929350840383811115612d18575b50604051906001840160051b82019384604052612c4c84614392565b905f91612c5f610c466040830151151590565b612d06575b505f9691949160015b15612cd9575b5f95612c7e84614fdc565b604081015115612c9d57505060015f935b019587604052959295612c6d565b9390935180612cd1575b5084841860601b15612cbc575b600190612c8f565b6001909801600581901b860189905297612cb4565b93505f612ca7565b8083148015612cfd575b15612c7357505050509150506105149181525f8080612c12565b50818814612ce3565b516001600160a01b031691505f612c64565b92505f612c30565b5f9250612c0c565b93505f612bf8565b60019150612bed565b346104bb575f3660031901126104bb576020601554604051908152f35b346104bb575f3660031901126104bb5760206040517f00000000000000000000000000000000000000000000000000000000000000008152f35b346104bb5760403660031901126104bb57600435612dad81610752565b612db56108e1565b9060ff6013541661081757335f526007602052612dfa82612de98360405f209060018060a01b03165f5260205260405f2090565b9060ff801983541691151516179055565b60405191151582526001600160a01b03169033907f17307eab39ab6107e8899845ad3d59bd9653f200f220920489ca2b5937696c3190602090a3005b346104bb5760403660031901126104bb575f5160206157a45f395f51905f52602435600435612e636149a2565b6040805191825260208201929092529081908101610e0c565b346104bb5760203660031901126104bb57600435612e9981610752565b612ea16149c9565b600954906001600160a01b03808316908216808214612f12576001600160a01b031993909316909217600955604080516001600160a01b0393841681529190921660208201527fcc5dc080ff977b3c3a211fa63ab74f90f658f5ba9d3236e92c8f59570f442aac9181908101610e0c565b63251dd8cf60e11b5f5260045ffd5b346104bb575f3660031901126104bb576010546040516001600160a01b039091168152602090f35b6001600160401b038111610fd857601f01601f191660200190565b929192612f7082612f49565b91612f7e6040519384610ff8565b8294818452818301116104bb578281602093845f960137010152565b60803660031901126104bb57600435612fb281610752565b60243590612fbf82610752565b604435606435926001600160401b0384116104bb57366023850112156104bb57612ff6610a0d943690602481600401359101612f64565b9261431d565b346104bb5760203660031901126104bb57608061301a600435614392565b61305d604051809262ffffff6060809260018060a01b0381511685526001600160401b036020820151166020860152604081015115156040860152015116910152565bf35b346104bb575f3660031901126104bb576020600f54604051908152f35b346104bb5760203660031901126104bb576004356130998161490e565b1561312157610658610514916060604080516130b481610fdd565b5f81525f60208201520152805f52601660205260405f20604051906130d882610fdd565b61311761310f613100600184549461ffff8616875260ff602088019660101c168652016133e8565b938460408201525161ffff1690565b915160ff1690565b906014549361523c565b634a1850bf60e11b5f5260045ffd5b346104bb5761313e36610efe565b90916131486149a2565b613151816149dd565b6001600160a01b031691823b156104bb57604051633f952e6560e11b81526001600160a01b03909116600482015290151560248201525f8160448101610f91565b346104bb5760403660031901126104bb576004356024356001600160401b0381116104bb57366023820112156104bb576131d6903690602481600401359101612f64565b6001600160a01b036131e783614a0e565b1633036132ad5761ffff61320e613206845f52601660205260405f2090565b5461ffff1690565b1660108110613222575b50610a0d916144dc565b600481149081156132a2575b8115613297575b811561328c575b8115613281575b8115613276575b811561326b575b5061325c575f613218565b6306fc781960e01b5f5260045ffd5b600d9150145f613251565b600b8114915061324a565b600881149150613243565b60078114915061323c565b600681149150613235565b60058114915061322e565b634143fbf960e01b5f5260045ffd5b346104bb575f3660031901126104bb576020600c54604051908152f35b346104bb5760403660031901126104bb576004356024356001600160a01b0361330183614a0e565b1633036132ad5761ffff613320613206845f52601660205260405f2090565b1660108110613334575b50610a0d916146ef565b600481149081156133a5575b811561339a575b811561338f575b8115613384575b8115613379575b811561336e575b5061325c575f61332a565b600d9150145f613363565b600b8114915061335c565b600881149150613355565b60078114915061334e565b600681149150613347565b600581149150613340565b90600182811c921680156133de575b60208310146133ca57565b634e487b7160e01b5f52602260045260245ffd5b91607f16916133bf565b9060405191825f8254926133fb846133b0565b80845293600181169081156134645750600114613420575b5061102892500383610ff8565b90505f9291925260205f20905f915b818310613448575050906020611028928201015f613413565b602091935080600191548385890101520191019091849261342f565b90506020925061102894915060ff191682840152151560051b8201015f613413565b346104bb5760203660031901126104bb576004355f52601660205260ff60405f206105146134b86001835493016133e8565b604051938361ffff869516855260101c1660208401526060604084015260608301906105d8565b346104bb575f3660031901126104bb576040515f600e546134ff816133b0565b80845290600181169081156106c25750600114613526576105148361065881850382610ff8565b600e5f9081527fbb7b4a454dc3493923482f07822329ed19e8244eff582cc204f8554c3620c3fd939250905b80821061356a57509091508101602001610658610648565b919260018160209254838588010152019101909291613552565b346104bb57602061359d613597366116ef565b90614776565b6040519015158152f35b346104bb5760203660031901126104bb576004356135c481610752565b6135cc6149c9565b6001600160a01b0316801561361c576020817f11a3cf439fb225bfe74225716b6774765670ec1060e3796802e62139d69974da926001600160601b0360a01b600b541617600b55604051908152a1005b633a247dd760e11b5f5260045ffd5b346104bb575f3660031901126104bb5760206040517f00000000000000000000000000000000000000000000000000000000000000008152f35b346104bb5760203660031901126104bb576004356001600160a01b0361368a82614a0e565b1633036132ad5761ffff6136a9613206835f52601660205260405f2090565b16601081106136bc575b610a0d82614809565b6004811490811561372d575b8115613722575b8115613717575b811561370c575b8115613701575b81156136f6575b5061325c575f6136b3565b600d9150145f6136eb565b600b811491506136e4565b6008811491506136dd565b6007811491506136d6565b6006811491506136cf565b6005811491506136c8565b346104bb575f3660031901126104bb57602060405160018152f35b65ffffffffffff8116036104bb57565b359061102882613753565b602435906001600160501b03821682036104bb576001600160501b036110289216815265ffffffffffff6044356137a481613753565b16602082015265ffffffffffff6064356137bd81613753565b16604082015261ffff6137d060846110e7565b16606082015261ffff6137e360a46110e7565b16608082015260a06137f560c46108f0565b1515910152565b6040513d5f823e3d90fd5b919061381282614a0e565b6001600160a01b0384811694908216859003613971575f8481526006602052604090208054919033808414908814171561395a575b61387592613856878785614b29565b613951575b506001600160a01b03165f90815260056020526040902090565b80545f190190556001600160a01b0382165f908152600560205260409020805460010190556001600160a01b0382164260a01b17600160e11b176138c1845f52600460205260405f2090565b55600160e11b81161561390c575b506001600160a01b03169182907fddf252ad1be2c89b69c2b068fc378daa952ba7f163c4a11628f55a4df523b3ef5f80a41561390757565b614976565b60018301613922815f52600460205260405f2090565b541561392f575b506138cf565b5f54811461392957613949905f52600460205260405f2090565b555f80613929565b5f90555f61385b565b613967610c463384614776565b1561384757614959565b614968565b634e487b7160e01b5f52601160045260245ffd5b908060209392818452848401375f828201840152601f01601f1916010190565b9035601e19823603018112156104bb5701602081359101916001600160401b0382116104bb5781360383136104bb57565b91906060810190833581526020840135601e19853603018112156104bb57840193602085359501946001600160401b0381116104bb578060051b9384360387136104bb576060602085015281905292820160809081019386915f9085015b828210613a66575050505061060d939450806040613a589201906139aa565b91604081850391015261398a565b90919295602080613a8c600193613a868b8e607f198d85030189526139aa565b9061398a565b980192019201909291613a39565b60043561060d81610752565b3561060d81610752565b6024356001600160601b03811681036104bb5790565b600435613ad281610752565b60018060a01b03166001600160601b0360a01b60105416176010556024356001600160601b03811681036104bb57601080546001600160a01b031660a09290921b6001600160a01b031916919091179055565b5f19810191908211610b1757565b9060c080611028936001600160501b03815116845262ffffff602082015116602085015264ffffffffff604082015116604085015264ffffffffff606082015116606085015264ffffffffff6080820151166080850152613b9f60a082015160a086019061ffff169052565b015161ffff16910152565b613bb26149a2565b613bbb816149dd565b6001600160a01b031691823b156104bb576040516309a7002f60e31b81526001600160a01b03909216600483015290915f9183916101049183918591613c05906024850190613b33565b5af18015610a0f57613c145750565b5f61102891610ff8565b818110613c29575050565b5f8155600101613c1e565b90601f8211613c41575050565b61102891600d5f5260205f20906020601f840160051c83019310613c6d575b601f0160051c0190613c1e565b9091508190613c60565b90601f8211613c84575050565b61102891600e5f5260205f20906020601f840160051c83019310613c6d57601f0160051c0190613c1e565b9190601f8111613cbe57505050565b611028925f5260205f20906020601f840160051c83019310613c6d57601f0160051c0190613c1e565b6001600160a01b03168015613d0e575f5260056020526001600160401b0360405f20541690565b6323d3ad8160e21b5f5260045ffd5b91602061060d93818152019161398a565b359060ff821682036104bb57565b359063ffffffff821682036104bb57565b604435906001600160501b03821682036104bb576001600160501b036110289216815261ffff613d7d60646110e7565b16602082015265ffffffffffff608435613d9681613753565b166040820152613db8613da960a4613763565b65ffffffffffff166060830152565b613dcf613dc560c4613d2e565b60ff166080830152565b613de9613ddc60e4613d3c565b63ffffffff1660a0830152565b613e02613df76101046110e7565b61ffff1660c0830152565b60e06137f56101246108f0565b903590601e19813603018212156104bb57018035906001600160401b0382116104bb576020019181360383136104bb57565b3561060d81613753565b60c06137f560a061102894969560e0850197600180841b031685526001600160501b03613e7782611040565b16602086015265ffffffffffff6020820135613e9281613753565b16604086015265ffffffffffff6040820135613ead81613753565b16606086015261ffff613ec2606083016110e7565b16608086015261ffff613ed7608083016110e7565b1682860152016108f0565b6001600160a01b03909116815260406020820181905261060d9391019161398a565b903590605e19813603018212156104bb570190565b6001600160a01b03909116815260406020820181905261060d929101906139db565b903590601e19813603018212156104bb57018035906001600160401b0382116104bb57602001918160051b360383136104bb57565b634e487b7160e01b5f52603260045260245ffd5b91908110156115ff5760051b0190565b903590601e19813603018212156104bb57018035906001600160401b0382116104bb57602001918160081b360383136104bb57565b91908110156115ff5760081b0190565b6001600160a01b03918216815291166020820152610140810192916110289190610120906137f59060e0906001600160501b0361401582611040565b16604086015261ffff61402a602083016110e7565b16606086015265ffffffffffff604082013561404581613753565b16608086015261406961405a60608301613763565b65ffffffffffff1660a0870152565b61408261407860808301613d2e565b60ff1660c0870152565b61409d61409160a08301613d3c565b63ffffffff1686840152565b6140b86140ac60c083016110e7565b61ffff16610100870152565b016108f0565b6040519061010082018281106001600160401b03821117610fd8576040525f60e0838281528260208201528260408201528260608201528260808201528260a08201528260c08201520152565b90939260e0610120916110289461014085019760018060a01b0316855260018060a01b031660208501526001600160501b03815116604085015261ffff602082015116606085015265ffffffffffff604082015116608085015261417e606082015160a086019065ffffffffffff169052565b608081015160ff1660c085015260a081015163ffffffff168483015260c081015161ffff1661010085015201511515910152565b903590601e19813603018212156104bb57018035906001600160401b0382116104bb576020019160e08202360383136104bb57565b91908110156115ff5760e0020190565b6001600160a01b03918216815291166020820152610120810192916110289190610100906142b69060c0906001600160501b0361423382611040565b16604086015262ffffff61424960208301611066565b16606086015264ffffffffff614261604083016110b2565b16608086015264ffffffffff614279606083016110b2565b1660a086015264ffffffffff614291608083016110b2565b16828601526142b06142a560a083016110e7565b61ffff1660e0870152565b016110e7565b61ffff16910152565b604051906142cc82610fbd565b5f60c0838281528260208201528260408201528260608201528260808201528260a08201520152565b6001600160a01b03918216815291166020820152610120810192916110289160400190613b33565b92919061432b828286613807565b803b614338575b50505050565b61434193614fb4565b1561434f575f808080614332565b6368d2bf6b60e11b5f5260045ffd5b60405190608082018281106001600160401b03821117610fd8576040525f6060838281528260208201528260408201520152565b9061439b61435e565b9160018110156143a85750565b5f5481106143b35750565b9091505b805f52600460205260405f20546143d0575f19016143b7565b61060d90614fdc565b9081518110156115ff570160200190565b91909182516001600160401b038111610fd8576144118161440b84546133b0565b84613caf565b6020601f821160011461444f5781906144409394955f926144445750508160011b915f199060031b1c19161790565b9055565b015190505f80611247565b601f19821690614462845f5260205f2090565b915f5b81811061449c57509583600195969710614484575b505050811b019055565b01515f1960f88460031b161c191690555f808061447a565b9192602060018192868b015181550194019201614465565b805191908290602001825e015f815290565b6144d690604051918280926144b4565b03902090565b91815180151590816146e3575b50156146d4575f5b825181101561465e5761452561451861450a83866143d9565b516001600160f81b03191690565b6001600160f81b03191690565b600360fc1b811015908161464f575b811561462b575b8115614607575b81156145bc575b811561456d575b501561455e576001016144f1565b63a23ef83b60e01b5f5260045ffd5b603f60f81b8114915081156145ae575b81156145a0575b8115614592575b505f614550565b602760f81b1490505f61458b565b601360f91b81149150614584565b605f60f81b8114915061457d565b9050600160fd1b811480156145fa575b80156145ed575b80156145e0575b90614549565b50601760f91b81146145da565b50602d60f81b81146145d3565b50602160f81b81146145cc565b9050606160f81b8110158061461d575b90614542565b50603d60f91b811115614617565b9050604160f81b81101580614641575b9061453b565b50602d60f91b81111561463b565b603960f81b8111159150614534565b509161467e826001614678845f52601660205260405f2090565b016143ea565b60408051828152602081018390525f5160206157a45f395f51905f5291819081015b0390a16146ad33926144c6565b907f27fac8f362f0993df8069600bac492702d7c0d77d65545716bf8b7acd95f02145f80a4565b634e9a61e560e11b5f5260045ffd5b6020915011155f6144e9565b906005811015614767575f828152601660205260409020805462ff00001916601083901b62ff00001617905560408051838152602081018490525f5160206157a45f395f51905f5291819081010390a133917f717ea6d16cd5b1adadf0580bb4b4ebbe47b8329c34ae1d20b2a3505b0b45121b5f80a4565b63acce9f5760e01b5f5260045ffd5b6001600160a01b038216731e0049783f008a0085193e00003d00cd54003c71146147c8576001600160a01b039081165f908152600760209081526040808320939094168252919091522060ff90541690565b5050600190565b906110286147fb926040519384916a526574726f50756e6b202360a81b6020840152602b8301906144b4565b03601f198101845283610ff8565b61481a61481582615331565b6147cf565b90805f526016602052600160405f200182516001600160401b038111610fd8576148488161440b84546133b0565b6020601f82116001146148a7579080614874925f9161489c57508160011b915f199060031b1c19161790565b905560408051828152602081018390525f5160206157a45f395f51905f5291819081016146a0565b90508501515f612a19565b601f198216906148ba845f5260205f2090565b915f5b8181106148f6575090836001949392106148de575b5050811b01905561467e565b8601515f1960f88460031b161c191690555f806148d2565b9192602060018192868b0151815501940192016148bd565b905f91806001111561491d5750565b5f5481106149285750565b9091505b805f52600460205260405f20548061494d57508015610b17575f190161492c565b600160e01b1615919050565b632ce44b5f60e11b5f5260045ffd5b62a1148160e81b5f5260045ffd5b633a954ecd60e21b5f5260045ffd5b636f96cda160e11b5f5260045ffd5b622e076360e81b5f5260045ffd5b60018060a01b03600a5416331430331417156149ba57565b635fc483c560e01b5f5260045ffd5b600a546001600160a01b031633036149ba57565b60018060a01b03165f526011602052600160ff60405f2054161515036149ff57565b6315e26ff360e01b5f5260045ffd5b8060011161498557614a28815f52600460205260405f2090565b54908115614a3f5750600160e01b81166149855790565b90505f54811015614985575b5f19015f81815260046020526040902054908115614a725750600160e01b81166149855790565b9050614a4b565b6001600160a01b03811615158080614b1d575b6108175780614b16575b614a9e575050565b6009546001600160a01b03169182614ab557505050565b823b156104bb5760405163657711f560e11b81523360048201526001600160a01b039290921660248301525f6044830181905260648301919091529091829060849082905afa8015610a0f57614b085750565b806121e55f61102893610ff8565b505f614a96565b5060ff60135416614a8c565b90916001600160a01b03821615158080614be4575b6108175780614bd2575b614b5157505050565b6009546001600160a01b031680614b685750505050565b803b156104bb5760405163657711f560e11b81523360048201526001600160a01b03938416602482015293909216604484015260648301525f90829060849082905afa8015610a0f57614bbe575b808080614332565b806121e55f614bcc93610ff8565b5f614bb6565b506001600160a01b0383161515614b48565b5060ff60135416614b3e565b5f545f1982820181019291018210610b1757600c54809211614c10575050565b5f545f19918101820191018110610b175763384b48c560e21b5f5260045260245260445ffd5b919060405190614c47602083610ff8565b5f825260135460ff8160a81c16614d505760ff90614c6483614bf0565b60b81c1615614d41575f5460015490035f19019381850180861195865b610b175781811015614cba576001810190818111610b1757600c5491818303928311610b1757600192614cb3916155e6565b0186614c81565b50509091929350614ccb8282615457565b5f545f1901600c5414614d29575b803b614ce457505050565b9091925f549283039260015b15614d14575b5f614d09610c4687600188019787614f15565b15614cf0575b61434f565b808410614cf65792509250505f54036104bb57565b6013805460ff60a81b1916600160a81b179055614cd9565b63636402df60e01b5f5260045ffd5b6306ce844d60e01b5f5260045ffd5b6001600160401b038211610fd857680100000000000000008211610fd85760125482601255808310614dc1575b5060125f5260205f205f5b838110614da45750505050565b6001906020843594614db586610752565b01938184015501614d97565b60125f52614df5907fbb8a6a4669ba250d26cd7a459eca9d215f8307e33aebe50379bc5a3617ec3444908101908401613c1e565b5f614d8c565b60208082528101839052604001915f5b818110614e185750505090565b9091926020806001928635614e2c81610752565b848060a01b031681520194019101919091614e0b565b63fffffffe5f1982011015614e9357601754614e865760175f81905260e09190911b7bc624b66cc0138b8fabc209247f72d758e1cf3343756d543b00000000179055565b630c9f11f25f526004601cfd5b6383b539415f526004601cfd5b908160209103126104bb575161060d816104a9565b6001600160a01b03918216815291166020820152604081019190915260806060820181905261060d929101906105d8565b3d15614f10573d90614ef782612f49565b91614f056040519384610ff8565b82523d5f602084013e565b606090565b91614f3c926020925f604051809681958294630a85bd0160e11b8452843360048601614eb5565b03926001600160a01b03165af15f9181614f83575b50614f6d57614f5e614ee6565b805115614d0f57805190602001fd5b6001600160e01b031916630a85bd0160e11b1490565b614fa691925060203d602011614fad575b614f9e8183610ff8565b810190614ea0565b905f614f51565b503d614f94565b906020925f614f3c959360405196879586948593630a85bd0160e11b85523360048601614eb5565b614fe461435e565b505f52600460205260405f2054614ff961435e565b6001600160a01b038216815260a082901c6001600160401b03166020820152600160e01b82161515604082015260e89190911c606082015290565b81601f820112156104bb5780519061504b82612f49565b926150596040519485610ff8565b828452602083830101116104bb57815f9260208093018386015e8301015290565b9190916040818403126104bb5780516001600160401b0381116104bb57836150a3918301615034565b9260208201516001600160401b0381116104bb5761060d9201615034565b611028906147fb6150f3949360026040519687946a526574726f50756e6b202360a81b6020870152602b8601906144b4565b6101d160f51b815201906144b4565b6001906151b861513a9594602461517961102896602c6040519a8b97683d913730b6b2911d1160b91b60208a015260298901906144b4565b7f222c226465736372697074696f6e223a22526574726f50756e6b73204e46542081526b18dbdb1b1958dd1a5bdb888b60a21b602082015201906144b4565b600b60fa1b81527f22696d616765223a22646174613a696d6167652f7376672b786d6c3b6261736586820152620d8d0b60ea1b602182015201906144b4565b601160f91b815203601e19810185520183610ff8565b9061102860016151e89360405194859160208301906144b4565b607d60f81b815203601e19810185520183610ff8565b906110286147fb926040519384917f646174613a6170706c69636174696f6e2f6a736f6e3b6261736536342c0000006020840152603d8301906144b4565b601354604051637d13443360e01b815261ffff93909316600484015260ff93909316602483015260448201949094529291905f90849060081c6001600160a01b031681806064810103915afa918215610a0f5761060d936152e6936152e1936152dc935f935f93615303575b50906152d691815160208301206152c161481583615331565b60208151910120145f146152eb575092615376565b91615102565b6151ce565b615376565b6151fe565b906152f86152fd92615331565b6150c1565b92615376565b6152d69294506153269193503d805f833e61531e8183610ff8565b81019061507a565b9390939290916152a8565b90604051600a608082019360a083016040525f8552935b5f19019360308282060185530492831561536457600a90615348565b809350608091030191601f1901918252565b90606091805180615385575050565b9092506003600282010460021b90604051937f4142434445464748494a4b4c4d4e4f505152535455565758595a616263646566601f526106707f6768696a6b6c6d6e6f707172737475767778797a303132333435363738392d5f18603f526020850191838601926004600360208601945b0191603f8351818160121c16515f538181600c1c1651600153818160061c165160025316516003535f518152019083821015615437576004906003906153f6565b50915060405f93016040526003613d3d60f01b9106600204820352528252565b5f5490821561550b576001600160a01b0381164260a01b6001851460e11b1717615489835f52600460205260405f2090565b556001600160a01b03165f8181526005602052604090208054680100000000000000018502019055918215615506578101909260015b156154f2575b5f84845f7fddf252ad1be2c89b69c2b068fc378daa952ba7f163c4a11628f55a4df523b3ef8180a46154bf565b92600101928184036154c557925090505f55565b614994565b63b562e8dd60e01b5f5260045ffd5b81518154602084015162ff000060109190911b1661ffff90921662ffffff19909116171781559091906040906001019201519182516001600160401b038111610fd85761556b8161440b84546133b0565b6020601f821160011461559a5781906144409394955f926144445750508160011b915f199060031b1c19161790565b601f198216906155ad845f5260205f2090565b915f5b8181106155ce5750958360019596971061448457505050811b019055565b9192602060018192868b0151815501940192016155b0565b901561574f5760175463ffffffff1660155490604051906020820192835260408201528260608201526060815261561e608082610ff8565b51902090601754918263ffffffff168360e01c9080821461574257611028946156f4615701936156ef9361573d965f52806020528361fffe8280850360405f20060193116156a38483839060018060c01b039060201c1682826004031c0154600f821c8316826004011b1c90600160105f19921b1b0116801515905f19018218021890565b9687946156e78585859060018060c01b039060201c1682826004031c0154600f821c8316826004011b1c90600160105f19921b1b0116801515905f19018218021890565b90848461575e565b61575e565b60010160175561ffff1690565b9161570e61481582615331565b615723615719611019565b61ffff9095168552565b6001602085015260408401525f52601660205260405f2090565b61551a565b6351065f795f526004601cfd5b63073d3bb360e11b5f5260045ffd5b92919060018060c01b039060201c1681846004031c0192600f811c8216816004011b91845493600181019114150283831c1890600160105f19921b1b0116901b18905556fe6bd5c950a8d8df17f772f5af37cb3655737899cbf903264b9795592da439661ca2646970667358221220a57a518af75d5dbcbf357e94c8410fa866f612a1d2d789f36a0767a5d5e182f964736f6c634300081e0033",
			"opcodes": "PUSH1 0xC0 PUSH1 0x40 MSTORE CALLVALUE PUSH2 0xFD JUMPI PUSH2 0x5E75 DUP1 CODESIZE SUB DUP1 PUSH2 0x19 DUP2 PUSH2 0x115 JUMP JUMPDEST SWAP3 DUP4 CODECOPY DUP2 ADD PUSH1 0xA0 DUP3 DUP3 SUB SLT PUSH2 0xFD JUMPI DUP2 MLOAD SWAP2 PUSH2 0x34 DUP4 PUSH2 0x13A JUMP JUMPDEST PUSH1 0x20 DUP2 ADD MLOAD PUSH1 0x40 DUP3 ADD MLOAD PUSH1 0x60 DUP4 ADD MLOAD PUSH1 0x80 DUP5 ADD MLOAD SWAP1 SWAP4 SWAP2 SWAP3 SWAP2 PUSH1 0x1 PUSH1 0x1 PUSH1 0x40 SHL SUB DUP3 GT PUSH2 0xFD JUMPI ADD SWAP5 DUP5 PUSH1 0x1F DUP8 ADD SLT ISZERO PUSH2 0xFD JUMPI DUP6 MLOAD SWAP5 PUSH1 0x1 PUSH1 0x1 PUSH1 0x40 SHL SUB DUP7 GT PUSH2 0x101 JUMPI DUP6 PUSH1 0x5 SHL SWAP7 PUSH1 0x20 DUP1 PUSH2 0x8C DUP2 DUP12 ADD PUSH2 0x115 JUMP JUMPDEST DUP1 SWAP10 DUP2 MSTORE ADD SWAP9 DUP3 ADD ADD SWAP2 DUP3 GT PUSH2 0xFD JUMPI PUSH1 0x20 ADD SWAP7 JUMPDEST DUP2 DUP9 LT PUSH2 0xE3 JUMPI POP POP PUSH2 0xB4 SWAP6 POP PUSH2 0x16D JUMP JUMPDEST PUSH1 0x40 MLOAD PUSH2 0x57F9 SWAP1 DUP2 PUSH2 0x67C DUP3 CODECOPY PUSH1 0x80 MLOAD DUP2 DUP2 DUP2 PUSH2 0x1EA4 ADD MSTORE PUSH2 0x3642 ADD MSTORE PUSH1 0xA0 MLOAD DUP2 DUP2 DUP2 PUSH2 0x1999 ADD MSTORE PUSH2 0x2D6D ADD MSTORE RETURN JUMPDEST PUSH1 0x20 DUP1 SWAP2 DUP10 MLOAD PUSH2 0xF2 DUP2 PUSH2 0x13A JUMP JUMPDEST DUP2 MSTORE ADD SWAP8 ADD SWAP7 PUSH2 0xA1 JUMP JUMPDEST PUSH0 DUP1 REVERT JUMPDEST PUSH4 0x4E487B71 PUSH1 0xE0 SHL PUSH0 MSTORE PUSH1 0x41 PUSH1 0x4 MSTORE PUSH1 0x24 PUSH0 REVERT JUMPDEST PUSH1 0x40 MLOAD SWAP2 SWAP1 PUSH1 0x1F ADD PUSH1 0x1F NOT AND DUP3 ADD PUSH1 0x1 PUSH1 0x1 PUSH1 0x40 SHL SUB DUP2 GT DUP4 DUP3 LT OR PUSH2 0x101 JUMPI PUSH1 0x40 MSTORE JUMP JUMPDEST PUSH1 0x1 PUSH1 0x1 PUSH1 0xA0 SHL SUB DUP2 AND SUB PUSH2 0xFD JUMPI JUMP JUMPDEST PUSH2 0x155 PUSH1 0x40 PUSH2 0x115 JUMP JUMPDEST SWAP1 PUSH1 0xA DUP3 MSTORE JUMP JUMPDEST PUSH2 0x166 PUSH1 0x40 PUSH2 0x115 JUMP JUMPDEST SWAP1 PUSH1 0x5 DUP3 MSTORE JUMP JUMPDEST SWAP3 SWAP4 PUSH2 0x177 PUSH2 0x14B JUMP JUMPDEST PUSH10 0x526574726F50756E6B73 PUSH1 0xB0 SHL PUSH1 0x20 DUP3 ADD MSTORE PUSH2 0x192 PUSH2 0x15C JUMP JUMPDEST PUSH5 0x52504E4B53 PUSH1 0xD8 SHL PUSH1 0x20 DUP3 ADD MSTORE DUP2 MLOAD SWAP1 SWAP2 PUSH1 0x1 PUSH1 0x1 PUSH1 0x40 SHL SUB DUP3 GT PUSH2 0x101 JUMPI PUSH2 0x1C6 DUP3 PUSH2 0x1C1 PUSH1 0x2 SLOAD PUSH2 0x497 JUMP JUMPDEST PUSH2 0x4CF JUMP JUMPDEST PUSH1 0x20 SWAP1 PUSH1 0x1F DUP4 GT PUSH1 0x1 EQ PUSH2 0x34D JUMPI SWAP2 DUP1 PUSH2 0x1FA SWAP3 PUSH2 0x202 SWAP6 SWAP5 PUSH0 SWAP3 PUSH2 0x342 JUMPI JUMPDEST POP POP DUP2 PUSH1 0x1 SHL SWAP2 PUSH0 NOT SWAP1 PUSH1 0x3 SHL SHR NOT AND OR SWAP1 JUMP JUMPDEST PUSH1 0x2 SSTORE PUSH2 0x54A JUMP JUMPDEST PUSH2 0x20B PUSH1 0x1 PUSH0 SSTORE JUMP JUMPDEST PUSH2 0x213 PUSH2 0x623 JUMP JUMPDEST DUP1 MLOAD PUSH0 JUMPDEST DUP2 DUP2 LT PUSH2 0x2F3 JUMPI POP POP SWAP2 PUSH2 0x2F1 SWAP5 SWAP4 SWAP2 PUSH2 0x233 PUSH2 0x2EC SWAP5 PUSH2 0x412 JUMP JUMPDEST PUSH32 0x867006957979DAA4AA88EB4157C1262555F712BC61EC3D0046C5A49A2C190B45 PUSH1 0x40 MLOAD PUSH32 0xD7ACA75208B9BE5FFC04C6A01922020FFD62B55E68E502E317F5344960279AF8 PUSH0 DUP1 LOG1 PUSH2 0x28D PUSH1 0x1 PUSH1 0xFF NOT PUSH1 0x13 SLOAD AND OR PUSH1 0x13 SSTORE JUMP JUMPDEST DUP1 PUSH2 0x2A8 PUSH2 0x29D PUSH1 0x13 SLOAD PUSH1 0xFF AND SWAP1 JUMP JUMPDEST ISZERO ISZERO DUP3 MSTORE PUSH1 0x20 DUP3 ADD SWAP1 JUMP JUMPDEST SUB SWAP1 LOG1 PUSH1 0x13 DUP1 SLOAD PUSH3 0xFFFFFF PUSH1 0xA8 SHL NOT AND SWAP1 SSTORE PUSH1 0xA PUSH1 0x18 SSTORE PUSH1 0x80 MSTORE PUSH1 0xA0 MSTORE PUSH1 0x13 DUP1 SLOAD PUSH2 0x100 PUSH1 0x1 PUSH1 0xA8 SHL SUB NOT AND PUSH1 0x8 SWAP3 SWAP1 SWAP3 SHL PUSH2 0x100 PUSH1 0x1 PUSH1 0xA8 SHL SUB AND SWAP2 SWAP1 SWAP2 OR SWAP1 SSTORE JUMP JUMPDEST PUSH1 0xC SSTORE JUMP JUMPDEST JUMP JUMPDEST DUP1 PUSH2 0x33C PUSH2 0x32F PUSH2 0x316 PUSH2 0x309 PUSH1 0x1 SWAP6 DUP9 PUSH2 0x3D4 JUMP JUMPDEST MLOAD PUSH1 0x1 PUSH1 0x1 PUSH1 0xA0 SHL SUB AND SWAP1 JUMP JUMPDEST PUSH1 0x1 PUSH1 0x1 PUSH1 0xA0 SHL SUB AND PUSH0 SWAP1 DUP2 MSTORE PUSH1 0x11 PUSH1 0x20 MSTORE PUSH1 0x40 SWAP1 KECCAK256 SWAP1 JUMP JUMPDEST DUP1 SLOAD PUSH1 0xFF NOT AND PUSH1 0x1 OR SWAP1 SSTORE JUMP JUMPDEST ADD PUSH2 0x217 JUMP JUMPDEST ADD MLOAD SWAP1 POP PUSH0 DUP1 PUSH2 0x1E6 JUMP JUMPDEST PUSH1 0x2 PUSH0 MSTORE PUSH1 0x1F NOT DUP4 AND SWAP2 SWAP1 PUSH32 0x405787FA12A823E0F2B7631CC41B3BA8828B3321CA811111FA75CD3AA3BB5ACE SWAP3 PUSH0 JUMPDEST DUP2 DUP2 LT PUSH2 0x3BC JUMPI POP SWAP2 PUSH1 0x1 SWAP4 SWAP2 DUP6 PUSH2 0x202 SWAP8 SWAP7 SWAP5 LT PUSH2 0x3A4 JUMPI JUMPDEST POP POP POP DUP2 SHL ADD PUSH1 0x2 SSTORE PUSH2 0x54A JUMP JUMPDEST ADD MLOAD PUSH0 NOT PUSH1 0xF8 DUP5 PUSH1 0x3 SHL AND SHR NOT AND SWAP1 SSTORE PUSH0 DUP1 DUP1 PUSH2 0x396 JUMP JUMPDEST SWAP3 SWAP4 PUSH1 0x20 PUSH1 0x1 DUP2 SWAP3 DUP8 DUP7 ADD MLOAD DUP2 SSTORE ADD SWAP6 ADD SWAP4 ADD PUSH2 0x37C JUMP JUMPDEST DUP1 MLOAD DUP3 LT ISZERO PUSH2 0x3E8 JUMPI PUSH1 0x20 SWAP2 PUSH1 0x5 SHL ADD ADD SWAP1 JUMP JUMPDEST PUSH4 0x4E487B71 PUSH1 0xE0 SHL PUSH0 MSTORE PUSH1 0x32 PUSH1 0x4 MSTORE PUSH1 0x24 PUSH0 REVERT JUMPDEST DUP2 DUP2 LT PUSH2 0x407 JUMPI POP POP JUMP JUMPDEST PUSH0 DUP2 SSTORE PUSH1 0x1 ADD PUSH2 0x3FC JUMP JUMPDEST DUP1 MLOAD SWAP1 PUSH1 0x1 PUSH1 0x1 PUSH1 0x40 SHL SUB DUP3 GT PUSH2 0x101 JUMPI PUSH9 0x10000000000000000 DUP3 GT PUSH2 0x101 JUMPI PUSH1 0x20 SWAP1 PUSH1 0x12 SLOAD DUP4 PUSH1 0x12 SSTORE DUP1 DUP5 LT PUSH2 0x47B JUMPI JUMPDEST POP ADD PUSH1 0x12 PUSH0 MSTORE PUSH1 0x20 PUSH0 KECCAK256 PUSH0 JUMPDEST DUP4 DUP2 LT PUSH2 0x45E JUMPI POP POP POP POP JUMP JUMPDEST DUP3 MLOAD PUSH1 0x1 PUSH1 0x1 PUSH1 0xA0 SHL SUB AND DUP3 DUP3 ADD SSTORE PUSH1 0x20 SWAP1 SWAP3 ADD SWAP2 PUSH1 0x1 ADD PUSH2 0x451 JUMP JUMPDEST PUSH2 0x491 SWAP1 PUSH1 0x12 PUSH0 MSTORE DUP5 DUP5 PUSH0 KECCAK256 SWAP2 DUP3 ADD SWAP2 ADD PUSH2 0x3FC JUMP JUMPDEST PUSH0 PUSH2 0x445 JUMP JUMPDEST SWAP1 PUSH1 0x1 DUP3 DUP2 SHR SWAP3 AND DUP1 ISZERO PUSH2 0x4C5 JUMPI JUMPDEST PUSH1 0x20 DUP4 LT EQ PUSH2 0x4B1 JUMPI JUMP JUMPDEST PUSH4 0x4E487B71 PUSH1 0xE0 SHL PUSH0 MSTORE PUSH1 0x22 PUSH1 0x4 MSTORE PUSH1 0x24 PUSH0 REVERT JUMPDEST SWAP2 PUSH1 0x7F AND SWAP2 PUSH2 0x4A6 JUMP JUMPDEST SWAP1 PUSH1 0x1F DUP3 GT PUSH2 0x4DC JUMPI POP POP JUMP JUMPDEST PUSH2 0x2F1 SWAP2 PUSH1 0x2 PUSH0 MSTORE PUSH1 0x20 PUSH0 KECCAK256 SWAP1 PUSH1 0x20 PUSH1 0x1F DUP5 ADD PUSH1 0x5 SHR DUP4 ADD SWAP4 LT PUSH2 0x508 JUMPI JUMPDEST PUSH1 0x1F ADD PUSH1 0x5 SHR ADD SWAP1 PUSH2 0x3FC JUMP JUMPDEST SWAP1 SWAP2 POP DUP2 SWAP1 PUSH2 0x4FB JUMP JUMPDEST SWAP2 SWAP1 PUSH1 0x1F DUP2 GT PUSH2 0x521 JUMPI POP POP POP JUMP JUMPDEST PUSH2 0x2F1 SWAP3 PUSH0 MSTORE PUSH1 0x20 PUSH0 KECCAK256 SWAP1 PUSH1 0x20 PUSH1 0x1F DUP5 ADD PUSH1 0x5 SHR DUP4 ADD SWAP4 LT PUSH2 0x508 JUMPI PUSH1 0x1F ADD PUSH1 0x5 SHR ADD SWAP1 PUSH2 0x3FC JUMP JUMPDEST DUP1 MLOAD SWAP1 SWAP2 SWAP1 PUSH1 0x1 PUSH1 0x1 PUSH1 0x40 SHL SUB DUP2 GT PUSH2 0x101 JUMPI PUSH2 0x573 DUP2 PUSH2 0x56C PUSH1 0x3 SLOAD PUSH2 0x497 JUMP JUMPDEST PUSH1 0x3 PUSH2 0x512 JUMP JUMPDEST PUSH1 0x20 SWAP3 PUSH1 0x1F DUP3 GT PUSH1 0x1 EQ PUSH2 0x5A7 JUMPI PUSH2 0x5A2 SWAP3 SWAP4 DUP3 SWAP2 PUSH0 SWAP3 PUSH2 0x342 JUMPI POP POP DUP2 PUSH1 0x1 SHL SWAP2 PUSH0 NOT SWAP1 PUSH1 0x3 SHL SHR NOT AND OR SWAP1 JUMP JUMPDEST PUSH1 0x3 SSTORE JUMP JUMPDEST PUSH1 0x3 PUSH0 MSTORE PUSH1 0x1F NOT DUP3 AND SWAP4 PUSH32 0xC2575A0E9E593C00F959F8C92F12DB2869C3395A3B0502D05E2516446F71F85B SWAP2 PUSH0 JUMPDEST DUP7 DUP2 LT PUSH2 0x60B JUMPI POP DUP4 PUSH1 0x1 SWAP6 SWAP7 LT PUSH2 0x5F3 JUMPI JUMPDEST POP POP POP DUP2 SHL ADD PUSH1 0x3 SSTORE JUMP JUMPDEST ADD MLOAD PUSH0 NOT PUSH1 0xF8 DUP5 PUSH1 0x3 SHL AND SHR NOT AND SWAP1 SSTORE PUSH0 DUP1 DUP1 PUSH2 0x5E8 JUMP JUMPDEST SWAP2 SWAP3 PUSH1 0x20 PUSH1 0x1 DUP2 SWAP3 DUP7 DUP6 ADD MLOAD DUP2 SSTORE ADD SWAP5 ADD SWAP3 ADD PUSH2 0x5D5 JUMP JUMPDEST ADDRESS EXTCODESIZE PUSH2 0x66D JUMPI PUSH1 0xA DUP1 SLOAD CALLER PUSH1 0x1 PUSH1 0x1 PUSH1 0xA0 SHL SUB NOT DUP3 AND DUP2 OR SWAP1 SWAP3 SSTORE PUSH1 0x1 PUSH1 0x1 PUSH1 0xA0 SHL SUB AND PUSH32 0x8BE0079C531659141344CD1FD0A4F28419497F9722A3DAAFE3B4186F6B6457E0 PUSH0 DUP1 LOG3 JUMP JUMPDEST PUSH3 0xDC149F PUSH1 0xE4 SHL PUSH0 MSTORE PUSH1 0x4 PUSH0 REVERT INVALID PUSH1 0x80 PUSH1 0x40 MSTORE PUSH1 0x4 CALLDATASIZE LT ISZERO PUSH2 0x11 JUMPI PUSH0 DUP1 REVERT JUMPDEST PUSH0 CALLDATALOAD PUSH1 0xE0 SHR DUP1 PUSH4 0x1FFC9A7 EQ PUSH2 0x4A4 JUMPI DUP1 PUSH4 0x6FDDE03 EQ PUSH2 0x49F JUMPI DUP1 PUSH4 0x7AAFA98 EQ PUSH2 0x49A JUMPI DUP1 PUSH4 0x81812FC EQ PUSH2 0x495 JUMPI DUP1 PUSH4 0x95EA7B3 EQ PUSH2 0x490 JUMPI DUP1 PUSH4 0x98144D4 EQ PUSH2 0x48B JUMPI DUP1 PUSH4 0x99B6BFA EQ PUSH2 0x486 JUMPI DUP1 PUSH4 0xD705DF6 EQ PUSH2 0x481 JUMPI DUP1 PUSH4 0xD9D713B EQ PUSH2 0x47C JUMPI DUP1 PUSH4 0x18160DDD EQ PUSH2 0x477 JUMPI DUP1 PUSH4 0x1B73593C EQ PUSH2 0x472 JUMPI DUP1 PUSH4 0x1DBD7390 EQ PUSH2 0x46D JUMPI DUP1 PUSH4 0x23452B9C EQ PUSH2 0x468 JUMPI DUP1 PUSH4 0x23B872DD EQ PUSH2 0x463 JUMPI DUP1 PUSH4 0x2A55205A EQ PUSH2 0x45E JUMPI DUP1 PUSH4 0x3680620D EQ PUSH2 0x459 JUMPI DUP1 PUSH4 0x42260B5D EQ PUSH2 0x454 JUMPI DUP1 PUSH4 0x42842E0E EQ PUSH2 0x44F JUMPI DUP1 PUSH4 0x42966C68 EQ PUSH2 0x44A JUMPI DUP1 PUSH4 0x44DAE42C EQ PUSH2 0x445 JUMPI DUP1 PUSH4 0x4563F30A EQ PUSH2 0x440 JUMPI DUP1 PUSH4 0x484B973C EQ PUSH2 0x43B JUMPI DUP1 PUSH4 0x48A4C101 EQ PUSH2 0x436 JUMPI DUP1 PUSH4 0x511AA644 EQ PUSH2 0x431 JUMPI DUP1 PUSH4 0x55F804B3 EQ PUSH2 0x42C JUMPI DUP1 PUSH4 0x56D3163D EQ PUSH2 0x427 JUMPI DUP1 PUSH4 0x5743BDFF EQ PUSH2 0x422 JUMPI DUP1 PUSH4 0x5BBB2177 EQ PUSH2 0x41D JUMPI DUP1 PUSH4 0x60C308B6 EQ PUSH2 0x418 JUMPI DUP1 PUSH4 0x6352211E EQ PUSH2 0x413 JUMPI DUP1 PUSH4 0x64869DAD EQ PUSH2 0x40E JUMPI DUP1 PUSH4 0x64F101F0 EQ PUSH2 0x409 JUMPI DUP1 PUSH4 0x66251B69 EQ PUSH2 0x404 JUMPI DUP1 PUSH4 0x6C0360EB EQ PUSH2 0x3FF JUMPI DUP1 PUSH4 0x6F8B44B0 EQ PUSH2 0x3FA JUMPI DUP1 PUSH4 0x70A08231 EQ PUSH2 0x3F5 JUMPI DUP1 PUSH4 0x715018A6 EQ PUSH2 0x3F0 JUMPI DUP1 PUSH4 0x73C5643A EQ PUSH2 0x3EB JUMPI DUP1 PUSH4 0x74E4F5AF EQ PUSH2 0x3E6 JUMPI DUP1 PUSH4 0x79BA5097 EQ PUSH2 0x3E1 JUMPI DUP1 PUSH4 0x7A05BC82 EQ PUSH2 0x3DC JUMPI DUP1 PUSH4 0x7BC2BE76 EQ PUSH2 0x3D7 JUMPI DUP1 PUSH4 0x840E15D4 EQ PUSH2 0x3D2 JUMPI DUP1 PUSH4 0x8462151C EQ PUSH2 0x3CD JUMPI DUP1 PUSH4 0x853B3B4C EQ PUSH2 0x3C8 JUMPI DUP1 PUSH4 0x8ADA6B0F EQ PUSH2 0x3C3 JUMPI DUP1 PUSH4 0x8DA5CB5B EQ PUSH2 0x3BE JUMPI DUP1 PUSH4 0x911F456B EQ PUSH2 0x3B9 JUMPI DUP1 PUSH4 0x938E3D7B EQ PUSH2 0x3B4 JUMPI DUP1 PUSH4 0x9559A5D9 EQ PUSH2 0x3AF JUMPI DUP1 PUSH4 0x95D89B41 EQ PUSH2 0x3AA JUMPI DUP1 PUSH4 0x99A2557A EQ PUSH2 0x3A5 JUMPI DUP1 PUSH4 0x99C5DEF3 EQ PUSH2 0x3A0 JUMPI DUP1 PUSH4 0x9B7406A5 EQ PUSH2 0x39B JUMPI DUP1 PUSH4 0xA22CB465 EQ PUSH2 0x396 JUMPI DUP1 PUSH4 0xA4830114 EQ PUSH2 0x391 JUMPI DUP1 PUSH4 0xA9FC664E EQ PUSH2 0x38C JUMPI DUP1 PUSH4 0xAD2F852A EQ PUSH2 0x387 JUMPI DUP1 PUSH4 0xB88D4FDE EQ PUSH2 0x382 JUMPI DUP1 PUSH4 0xC23DC68F EQ PUSH2 0x37D JUMPI DUP1 PUSH4 0xC6AB67A3 EQ PUSH2 0x378 JUMPI DUP1 PUSH4 0xC87B56DD EQ PUSH2 0x373 JUMPI DUP1 PUSH4 0xCB743BA8 EQ PUSH2 0x36E JUMPI DUP1 PUSH4 0xCDB0E89E EQ PUSH2 0x369 JUMPI DUP1 PUSH4 0xD5ABEB01 EQ PUSH2 0x364 JUMPI DUP1 PUSH4 0xD74B6857 EQ PUSH2 0x35F JUMPI DUP1 PUSH4 0xDB846DBE EQ PUSH2 0x35A JUMPI DUP1 PUSH4 0xE8A3D485 EQ PUSH2 0x355 JUMPI DUP1 PUSH4 0xE985E9C5 EQ PUSH2 0x350 JUMPI DUP1 PUSH4 0xF2FDE38B EQ PUSH2 0x34B JUMPI DUP1 PUSH4 0xF4CC7105 EQ PUSH2 0x346 JUMPI DUP1 PUSH4 0xF6448F88 EQ PUSH2 0x341 JUMPI PUSH4 0xFE97B576 EQ PUSH2 0x33C JUMPI PUSH0 DUP1 REVERT JUMPDEST PUSH2 0x3738 JUMP JUMPDEST PUSH2 0x3665 JUMP JUMPDEST PUSH2 0x362B JUMP JUMPDEST PUSH2 0x35A7 JUMP JUMPDEST PUSH2 0x3584 JUMP JUMPDEST PUSH2 0x34DF JUMP JUMPDEST PUSH2 0x3486 JUMP JUMPDEST PUSH2 0x32D9 JUMP JUMPDEST PUSH2 0x32BC JUMP JUMPDEST PUSH2 0x3192 JUMP JUMPDEST PUSH2 0x3130 JUMP JUMPDEST PUSH2 0x307C JUMP JUMPDEST PUSH2 0x305F JUMP JUMPDEST PUSH2 0x2FFC JUMP JUMPDEST PUSH2 0x2F9A JUMP JUMPDEST PUSH2 0x2F21 JUMP JUMPDEST PUSH2 0x2E7C JUMP JUMPDEST PUSH2 0x2E36 JUMP JUMPDEST PUSH2 0x2D90 JUMP JUMPDEST PUSH2 0x2D56 JUMP JUMPDEST PUSH2 0x2D39 JUMP JUMPDEST PUSH2 0x2BB4 JUMP JUMPDEST PUSH2 0x2B0F JUMP JUMPDEST PUSH2 0x2AEA JUMP JUMPDEST PUSH2 0x29A6 JUMP JUMPDEST PUSH2 0x1F92 JUMP JUMPDEST PUSH2 0x1F6A JUMP JUMPDEST PUSH2 0x1F3E JUMP JUMPDEST PUSH2 0x1E52 JUMP JUMPDEST PUSH2 0x1CB4 JUMP JUMPDEST PUSH2 0x1C21 JUMP JUMPDEST PUSH2 0x1B90 JUMP JUMPDEST PUSH2 0x1B0D JUMP JUMPDEST PUSH2 0x1A5C JUMP JUMPDEST PUSH2 0x1A37 JUMP JUMPDEST PUSH2 0x1939 JUMP JUMPDEST PUSH2 0x18DE JUMP JUMPDEST PUSH2 0x18B7 JUMP JUMPDEST PUSH2 0x1824 JUMP JUMPDEST PUSH2 0x177F JUMP JUMPDEST PUSH2 0x1714 JUMP JUMPDEST PUSH2 0x16C2 JUMP JUMPDEST PUSH2 0x1633 JUMP JUMPDEST PUSH2 0x1604 JUMP JUMPDEST PUSH2 0x14F2 JUMP JUMPDEST PUSH2 0x1423 JUMP JUMPDEST PUSH2 0x13B4 JUMP JUMPDEST PUSH2 0x132D JUMP JUMPDEST PUSH2 0x11F6 JUMP JUMPDEST PUSH2 0x10F6 JUMP JUMPDEST PUSH2 0xF33 JUMP JUMPDEST PUSH2 0xE65 JUMP JUMPDEST PUSH2 0xE43 JUMP JUMPDEST PUSH2 0xD61 JUMP JUMPDEST PUSH2 0xC00 JUMP JUMPDEST PUSH2 0xBDC JUMP JUMPDEST PUSH2 0xBBC JUMP JUMPDEST PUSH2 0xB1C JUMP JUMPDEST PUSH2 0xACD JUMP JUMPDEST PUSH2 0xABB JUMP JUMPDEST PUSH2 0xA39 JUMP JUMPDEST PUSH2 0xA14 JUMP JUMPDEST PUSH2 0x984 JUMP JUMPDEST PUSH2 0x95F JUMP JUMPDEST PUSH2 0x8FD JUMP JUMPDEST PUSH2 0x8BB JUMP JUMPDEST PUSH2 0x84E JUMP JUMPDEST PUSH2 0x826 JUMP JUMPDEST PUSH2 0x763 JUMP JUMPDEST PUSH2 0x703 JUMP JUMPDEST PUSH2 0x6E6 JUMP JUMPDEST PUSH2 0x610 JUMP JUMPDEST PUSH2 0x4BF JUMP JUMPDEST PUSH1 0x1 PUSH1 0x1 PUSH1 0xE0 SHL SUB NOT DUP2 AND SUB PUSH2 0x4BB JUMPI JUMP JUMPDEST PUSH0 DUP1 REVERT JUMPDEST CALLVALUE PUSH2 0x4BB JUMPI PUSH1 0x20 CALLDATASIZE PUSH1 0x3 NOT ADD SLT PUSH2 0x4BB JUMPI PUSH2 0x514 PUSH1 0x4 CALLDATALOAD PUSH2 0x4DF DUP2 PUSH2 0x4A9 JUMP JUMPDEST PUSH4 0xFFFFFFFF PUSH1 0xE0 SHL AND PUSH4 0xC487F47 PUSH1 0xE1 SHL DUP2 EQ SWAP1 DUP2 ISZERO PUSH2 0x5BD JUMPI JUMPDEST DUP2 ISZERO PUSH2 0x518 JUMPI JUMPDEST POP PUSH1 0x40 MLOAD SWAP1 ISZERO ISZERO DUP2 MSTORE SWAP1 DUP2 SWAP1 PUSH1 0x20 DUP3 ADD SWAP1 JUMP JUMPDEST SUB SWAP1 RETURN JUMPDEST PUSH4 0x152A902D PUSH1 0xE1 SHL DUP2 EQ SWAP2 POP DUP2 ISZERO PUSH2 0x5AC JUMPI JUMPDEST DUP2 ISZERO PUSH2 0x59B JUMPI JUMPDEST DUP2 ISZERO PUSH2 0x58A JUMPI JUMPDEST DUP2 ISZERO PUSH2 0x547 JUMPI JUMPDEST POP PUSH0 PUSH2 0x501 JUMP JUMPDEST PUSH4 0x1FFC9A7 PUSH1 0xE0 SHL DUP2 EQ SWAP2 POP DUP2 ISZERO PUSH2 0x579 JUMPI JUMPDEST DUP2 ISZERO PUSH2 0x568 JUMPI JUMPDEST POP PUSH0 PUSH2 0x540 JUMP JUMPDEST PUSH4 0x5B5E139F PUSH1 0xE0 SHL EQ SWAP1 POP PUSH0 PUSH2 0x561 JUMP JUMPDEST PUSH4 0x80AC58CD PUSH1 0xE0 SHL DUP2 EQ SWAP2 POP PUSH2 0x55A JUMP JUMPDEST PUSH4 0x24832483 PUSH1 0xE1 SHL DUP2 EQ SWAP2 POP PUSH2 0x539 JUMP JUMPDEST PUSH4 0x503E914D PUSH1 0xE1 SHL DUP2 EQ SWAP2 POP PUSH2 0x532 JUMP JUMPDEST PUSH4 0x2B435FDB PUSH1 0xE2 SHL DUP2 EQ SWAP2 POP PUSH2 0x52B JUMP JUMPDEST PUSH4 0x9C154415 PUSH1 0xE0 SHL DUP2 EQ SWAP2 POP PUSH2 0x4FA JUMP JUMPDEST PUSH0 SWAP2 SUB SLT PUSH2 0x4BB JUMPI JUMP JUMPDEST DUP1 MLOAD DUP1 DUP4 MSTORE PUSH1 0x20 SWAP3 SWAP2 DUP2 SWAP1 DUP5 ADD DUP5 DUP5 ADD MCOPY PUSH0 DUP3 DUP3 ADD DUP5 ADD MSTORE PUSH1 0x1F ADD PUSH1 0x1F NOT AND ADD ADD SWAP1 JUMP JUMPDEST SWAP1 PUSH1 0x20 PUSH2 0x60D SWAP3 DUP2 DUP2 MSTORE ADD SWAP1 PUSH2 0x5D8 JUMP JUMPDEST SWAP1 JUMP JUMPDEST CALLVALUE PUSH2 0x4BB JUMPI PUSH0 CALLDATASIZE PUSH1 0x3 NOT ADD SLT PUSH2 0x4BB JUMPI PUSH1 0x40 MLOAD PUSH0 PUSH1 0x2 SLOAD PUSH2 0x630 DUP2 PUSH2 0x33B0 JUMP JUMPDEST DUP1 DUP5 MSTORE SWAP1 PUSH1 0x1 DUP2 AND SWAP1 DUP2 ISZERO PUSH2 0x6C2 JUMPI POP PUSH1 0x1 EQ PUSH2 0x664 JUMPI JUMPDEST PUSH2 0x514 DUP4 PUSH2 0x658 DUP2 DUP6 SUB DUP3 PUSH2 0xFF8 JUMP JUMPDEST PUSH1 0x40 MLOAD SWAP2 DUP3 SWAP2 DUP3 PUSH2 0x5FC JUMP JUMPDEST PUSH1 0x2 PUSH0 SWAP1 DUP2 MSTORE PUSH32 0x405787FA12A823E0F2B7631CC41B3BA8828B3321CA811111FA75CD3AA3BB5ACE SWAP4 SWAP3 POP SWAP1 JUMPDEST DUP1 DUP3 LT PUSH2 0x6A8 JUMPI POP SWAP1 SWAP2 POP DUP2 ADD PUSH1 0x20 ADD PUSH2 0x658 PUSH2 0x648 JUMP JUMPDEST SWAP2 SWAP3 PUSH1 0x1 DUP2 PUSH1 0x20 SWAP3 SLOAD DUP4 DUP6 DUP9 ADD ADD MSTORE ADD SWAP2 ADD SWAP1 SWAP3 SWAP2 PUSH2 0x690 JUMP JUMPDEST PUSH1 0xFF NOT AND PUSH1 0x20 DUP1 DUP7 ADD SWAP2 SWAP1 SWAP2 MSTORE SWAP2 ISZERO ISZERO PUSH1 0x5 SHL DUP5 ADD SWAP1 SWAP2 ADD SWAP2 POP PUSH2 0x658 SWAP1 POP PUSH2 0x648 JUMP JUMPDEST CALLVALUE PUSH2 0x4BB JUMPI PUSH0 CALLDATASIZE PUSH1 0x3 NOT ADD SLT PUSH2 0x4BB JUMPI PUSH1 0x20 PUSH1 0x14 SLOAD PUSH1 0x40 MLOAD SWAP1 DUP2 MSTORE RETURN JUMPDEST CALLVALUE PUSH2 0x4BB JUMPI PUSH1 0x20 CALLDATASIZE PUSH1 0x3 NOT ADD SLT PUSH2 0x4BB JUMPI PUSH1 0x4 CALLDATALOAD PUSH2 0x720 DUP2 PUSH2 0x490E JUMP JUMPDEST ISZERO PUSH2 0x743 JUMPI PUSH0 MSTORE PUSH1 0x6 PUSH1 0x20 MSTORE PUSH1 0x20 PUSH1 0x1 DUP1 PUSH1 0xA0 SHL SUB PUSH1 0x40 PUSH0 KECCAK256 SLOAD AND PUSH1 0x40 MLOAD SWAP1 DUP2 MSTORE RETURN JUMPDEST PUSH4 0x33D1C039 PUSH1 0xE2 SHL PUSH0 MSTORE PUSH1 0x4 PUSH0 REVERT JUMPDEST PUSH1 0x1 PUSH1 0x1 PUSH1 0xA0 SHL SUB DUP2 AND SUB PUSH2 0x4BB JUMPI JUMP JUMPDEST PUSH1 0x40 CALLDATASIZE PUSH1 0x3 NOT ADD SLT PUSH2 0x4BB JUMPI PUSH1 0x4 CALLDATALOAD PUSH2 0x77B DUP2 PUSH2 0x752 JUMP JUMPDEST PUSH1 0x24 CALLDATALOAD SWAP1 PUSH1 0xFF PUSH1 0x13 SLOAD AND PUSH2 0x817 JUMPI PUSH1 0x1 PUSH1 0x1 PUSH1 0xA0 SHL SUB PUSH2 0x79A DUP4 PUSH2 0x4A0E JUMP JUMPDEST AND SWAP1 DUP2 CALLER SUB PUSH2 0x7FA JUMPI JUMPDEST PUSH0 DUP4 DUP2 MSTORE PUSH1 0x6 PUSH1 0x20 MSTORE PUSH1 0x40 SWAP1 KECCAK256 DUP1 SLOAD PUSH1 0x1 PUSH1 0x1 PUSH1 0xA0 SHL SUB NOT AND PUSH1 0x1 PUSH1 0x1 PUSH1 0xA0 SHL SUB DUP4 AND OR SWAP1 SSTORE PUSH1 0x1 PUSH1 0x1 PUSH1 0xA0 SHL SUB AND SWAP1 PUSH32 0x8C5BE1E5EBEC7D5BD14F71427D1E84F3DD0314C0F7B2291E5B200AC8C7C3B925 PUSH0 DUP1 LOG4 STOP JUMPDEST PUSH2 0x804 CALLER DUP4 PUSH2 0x4776 JUMP JUMPDEST PUSH2 0x7A4 JUMPI PUSH4 0x67D9DCA1 PUSH1 0xE1 SHL PUSH0 MSTORE PUSH1 0x4 PUSH0 REVERT JUMPDEST PUSH4 0x6AB17E05 PUSH1 0xE0 SHL PUSH0 MSTORE PUSH1 0x4 PUSH0 REVERT JUMPDEST CALLVALUE PUSH2 0x4BB JUMPI PUSH0 CALLDATASIZE PUSH1 0x3 NOT ADD SLT PUSH2 0x4BB JUMPI PUSH1 0x9 SLOAD PUSH1 0x40 MLOAD PUSH1 0x1 PUSH1 0x1 PUSH1 0xA0 SHL SUB SWAP1 SWAP2 AND DUP2 MSTORE PUSH1 0x20 SWAP1 RETURN JUMPDEST CALLVALUE PUSH2 0x4BB JUMPI PUSH1 0x20 CALLDATASIZE PUSH1 0x3 NOT ADD SLT PUSH2 0x4BB JUMPI PUSH1 0x4 CALLDATALOAD PUSH2 0x86A PUSH2 0x49A2 JUMP JUMPDEST PUSH0 SLOAD PUSH0 NOT ADD PUSH2 0x8AC JUMPI PUSH1 0x40 PUSH32 0x7C22004198BF87DA0F0DAB623C72E66CA1200F4454AA3B9CA30F436275428B7C SWAP2 PUSH1 0xF SLOAD SWAP1 DUP1 PUSH1 0xF SSTORE DUP3 MLOAD SWAP2 DUP3 MSTORE PUSH1 0x20 DUP3 ADD MSTORE LOG1 STOP JUMPDEST PUSH4 0xE03264AF PUSH1 0xE0 SHL PUSH0 MSTORE PUSH1 0x4 PUSH0 REVERT JUMPDEST CALLVALUE PUSH2 0x4BB JUMPI PUSH0 CALLDATASIZE PUSH1 0x3 NOT ADD SLT PUSH2 0x4BB JUMPI PUSH1 0x40 DUP1 MLOAD PUSH4 0x657711F5 PUSH1 0xE1 SHL DUP2 MSTORE PUSH0 PUSH1 0x20 DUP3 ADD MSTORE RETURN JUMPDEST PUSH1 0x24 CALLDATALOAD SWAP1 DUP2 ISZERO ISZERO DUP3 SUB PUSH2 0x4BB JUMPI JUMP JUMPDEST CALLDATALOAD SWAP1 DUP2 ISZERO ISZERO DUP3 SUB PUSH2 0x4BB JUMPI JUMP JUMPDEST CALLVALUE PUSH2 0x4BB JUMPI PUSH1 0x20 CALLDATASIZE PUSH1 0x3 NOT ADD SLT PUSH2 0x4BB JUMPI PUSH1 0x4 CALLDATALOAD DUP1 ISZERO ISZERO DUP1 SWAP2 SUB PUSH2 0x4BB JUMPI PUSH1 0x20 PUSH32 0x867006957979DAA4AA88EB4157C1262555F712BC61EC3D0046C5A49A2C190B45 SWAP2 PUSH2 0x947 PUSH2 0x49C9 JUMP JUMPDEST PUSH1 0xFF NOT PUSH1 0x13 SLOAD AND PUSH1 0xFF DUP3 AND OR PUSH1 0x13 SSTORE PUSH1 0x40 MLOAD SWAP1 DUP2 MSTORE LOG1 STOP JUMPDEST CALLVALUE PUSH2 0x4BB JUMPI PUSH0 CALLDATASIZE PUSH1 0x3 NOT ADD SLT PUSH2 0x4BB JUMPI PUSH0 SLOAD PUSH1 0x1 SLOAD PUSH1 0x20 SWAP2 SUB PUSH0 NOT ADD JUMPDEST PUSH1 0x40 MLOAD SWAP1 DUP2 MSTORE RETURN JUMPDEST CALLVALUE PUSH2 0x4BB JUMPI PUSH0 PUSH1 0xE0 CALLDATASIZE PUSH1 0x3 NOT ADD SLT PUSH2 0x4BB JUMPI PUSH1 0x4 CALLDATALOAD PUSH2 0x9A2 DUP2 PUSH2 0x752 JUMP JUMPDEST PUSH1 0xC0 CALLDATASIZE PUSH1 0x23 NOT ADD SLT PUSH2 0x4BB JUMPI PUSH2 0x9B6 PUSH2 0x49A2 JUMP JUMPDEST PUSH2 0x9BF DUP2 PUSH2 0x49DD JUMP JUMPDEST PUSH1 0x1 PUSH1 0x1 PUSH1 0xA0 SHL SUB AND DUP1 EXTCODESIZE ISZERO PUSH2 0x4BB JUMPI PUSH0 DUP1 SWAP2 PUSH1 0xC4 PUSH1 0x40 MLOAD DUP1 SWAP5 DUP2 SWAP4 PUSH4 0x1308E65 PUSH1 0xE0 SHL DUP4 MSTORE PUSH2 0x9F1 PUSH1 0x4 DUP5 ADD PUSH2 0x376E JUMP JUMPDEST GAS CALL DUP1 ISZERO PUSH2 0xA0F JUMPI PUSH2 0xA01 JUMPI POP DUP1 RETURN JUMPDEST PUSH2 0xA0D SWAP2 POP PUSH0 SWAP1 PUSH2 0xFF8 JUMP JUMPDEST STOP JUMPDEST PUSH2 0x37FC JUMP JUMPDEST CALLVALUE PUSH2 0x4BB JUMPI PUSH0 CALLDATASIZE PUSH1 0x3 NOT ADD SLT PUSH2 0x4BB JUMPI PUSH1 0x20 PUSH1 0xFF PUSH1 0x13 SLOAD PUSH1 0xA8 SHR AND PUSH1 0x40 MLOAD SWAP1 ISZERO ISZERO DUP2 MSTORE RETURN JUMPDEST CALLVALUE PUSH2 0x4BB JUMPI PUSH0 CALLDATASIZE PUSH1 0x3 NOT ADD SLT PUSH2 0x4BB JUMPI PUSH2 0xA51 PUSH2 0x49C9 JUMP JUMPDEST PUSH1 0x1 PUSH1 0x1 PUSH1 0x60 SHL SUB PUSH1 0xA0 SHL PUSH1 0xB SLOAD AND PUSH1 0xB SSTORE PUSH32 0x11A3CF439FB225BFE74225716B6774765670EC1060E3796802E62139D69974DA PUSH1 0x20 PUSH1 0x40 MLOAD PUSH0 DUP2 MSTORE LOG1 STOP JUMPDEST PUSH1 0x60 SWAP1 PUSH1 0x3 NOT ADD SLT PUSH2 0x4BB JUMPI PUSH1 0x4 CALLDATALOAD PUSH2 0xAA7 DUP2 PUSH2 0x752 JUMP JUMPDEST SWAP1 PUSH1 0x24 CALLDATALOAD PUSH2 0xAB4 DUP2 PUSH2 0x752 JUMP JUMPDEST SWAP1 PUSH1 0x44 CALLDATALOAD SWAP1 JUMP JUMPDEST PUSH2 0xA0D PUSH2 0xAC7 CALLDATASIZE PUSH2 0xA8F JUMP JUMPDEST SWAP2 PUSH2 0x3807 JUMP JUMPDEST CALLVALUE PUSH2 0x4BB JUMPI PUSH1 0x40 CALLDATASIZE PUSH1 0x3 NOT ADD SLT PUSH2 0x4BB JUMPI PUSH1 0x24 CALLDATALOAD PUSH1 0x10 SLOAD DUP1 PUSH1 0xA0 SHR SWAP2 DUP3 DUP2 MUL SWAP3 DUP2 DUP5 DIV EQ SWAP1 ISZERO OR ISZERO PUSH2 0xB17 JUMPI PUSH1 0x40 DUP1 MLOAD PUSH1 0x1 PUSH1 0x1 PUSH1 0xA0 SHL SUB SWAP1 SWAP3 AND DUP3 MSTORE PUSH2 0x2710 SWAP1 SWAP3 DIV PUSH1 0x20 DUP3 ADD MSTORE RETURN JUMPDEST PUSH2 0x3976 JUMP JUMPDEST CALLVALUE PUSH2 0x4BB JUMPI PUSH0 PUSH1 0x40 CALLDATASIZE PUSH1 0x3 NOT ADD SLT PUSH2 0x4BB JUMPI PUSH1 0x4 CALLDATALOAD PUSH2 0xB3A DUP2 PUSH2 0x752 JUMP JUMPDEST PUSH1 0x24 CALLDATALOAD SWAP1 PUSH1 0x1 PUSH1 0x1 PUSH1 0x40 SHL SUB DUP3 GT PUSH2 0x4BB JUMPI PUSH1 0x60 PUSH1 0x3 NOT DUP4 CALLDATASIZE SUB ADD SLT PUSH2 0x4BB JUMPI PUSH2 0xB62 PUSH2 0x49A2 JUMP JUMPDEST PUSH2 0xB6B DUP2 PUSH2 0x49DD JUMP JUMPDEST PUSH1 0x1 PUSH1 0x1 PUSH1 0xA0 SHL SUB AND DUP1 EXTCODESIZE ISZERO PUSH2 0x4BB JUMPI PUSH2 0xBAA PUSH0 SWAP3 SWAP2 DUP4 SWAP3 PUSH1 0x40 MLOAD SWAP5 DUP6 DUP1 SWAP5 DUP2 SWAP4 PUSH4 0xEBB4A55F PUSH1 0xE0 SHL DUP4 MSTORE PUSH1 0x20 PUSH1 0x4 DUP5 ADD MSTORE PUSH1 0x24 DUP4 ADD SWAP1 PUSH1 0x4 ADD PUSH2 0x39DB JUMP JUMPDEST SUB SWAP3 GAS CALL DUP1 ISZERO PUSH2 0xA0F JUMPI PUSH2 0xA01 JUMPI POP DUP1 RETURN JUMPDEST CALLVALUE PUSH2 0x4BB JUMPI PUSH0 CALLDATASIZE PUSH1 0x3 NOT ADD SLT PUSH2 0x4BB JUMPI PUSH1 0x20 PUSH1 0x10 SLOAD PUSH1 0xA0 SHR PUSH1 0x40 MLOAD SWAP1 DUP2 MSTORE RETURN JUMPDEST PUSH2 0xA0D PUSH2 0xBE8 CALLDATASIZE PUSH2 0xA8F JUMP JUMPDEST SWAP1 PUSH1 0x40 MLOAD SWAP3 PUSH2 0xBF8 PUSH1 0x20 DUP6 PUSH2 0xFF8 JUMP JUMPDEST PUSH0 DUP5 MSTORE PUSH2 0x431D JUMP JUMPDEST CALLVALUE PUSH2 0x4BB JUMPI PUSH1 0x20 CALLDATASIZE PUSH1 0x3 NOT ADD SLT PUSH2 0x4BB JUMPI PUSH1 0x4 CALLDATALOAD PUSH2 0xC1D DUP2 PUSH2 0x4A0E JUMP JUMPDEST PUSH0 DUP3 DUP2 MSTORE PUSH1 0x6 PUSH1 0x20 MSTORE PUSH1 0x40 SWAP1 KECCAK256 DUP1 SLOAD SWAP2 PUSH1 0x1 PUSH1 0x1 PUSH1 0xA0 SHL SUB DUP2 AND SWAP2 CALLER DUP1 DUP5 EQ SWAP1 DUP6 EQ OR ISZERO PUSH2 0xC4A JUMP JUMPDEST ISZERO SWAP1 JUMP JUMPDEST PUSH2 0xD4A JUMPI JUMPDEST PUSH0 SWAP4 PUSH2 0xC5B DUP7 DUP6 PUSH2 0x4A79 JUMP JUMPDEST PUSH2 0xD41 JUMPI JUMPDEST POP PUSH1 0x1 PUSH1 0x1 PUSH1 0xA0 SHL SUB DUP3 AND PUSH0 SWAP1 DUP2 MSTORE PUSH1 0x5 PUSH1 0x20 MSTORE PUSH1 0x40 SWAP1 KECCAK256 DUP1 SLOAD PUSH16 0xFFFFFFFFFFFFFFFFFFFFFFFFFFFFFFFF ADD SWAP1 SSTORE PUSH1 0x1 PUSH1 0x1 PUSH1 0xA0 SHL SUB DUP3 AND TIMESTAMP PUSH1 0xA0 SHL OR PUSH1 0x3 PUSH1 0xE0 SHL OR PUSH2 0xCB5 DUP6 PUSH0 MSTORE PUSH1 0x4 PUSH1 0x20 MSTORE PUSH1 0x40 PUSH0 KECCAK256 SWAP1 JUMP JUMPDEST SSTORE PUSH1 0x1 PUSH1 0xE1 SHL DUP2 AND ISZERO PUSH2 0xCFC JUMPI JUMPDEST POP PUSH32 0xDDF252AD1BE2C89B69C2B068FC378DAA952BA7F163C4A11628F55A4DF523B3EF DUP3 DUP1 LOG4 PUSH2 0xA0D PUSH2 0xCF7 PUSH1 0x1 SLOAD PUSH1 0x1 ADD SWAP1 JUMP JUMPDEST PUSH1 0x1 SSTORE JUMP JUMPDEST PUSH1 0x1 DUP5 ADD PUSH2 0xD12 DUP2 PUSH0 MSTORE PUSH1 0x4 PUSH1 0x20 MSTORE PUSH1 0x40 PUSH0 KECCAK256 SWAP1 JUMP JUMPDEST SLOAD ISZERO PUSH2 0xD1F JUMPI JUMPDEST POP PUSH2 0xCC3 JUMP JUMPDEST DUP4 SLOAD DUP2 EQ PUSH2 0xD19 JUMPI PUSH2 0xD39 SWAP1 PUSH0 MSTORE PUSH1 0x4 PUSH1 0x20 MSTORE PUSH1 0x40 PUSH0 KECCAK256 SWAP1 JUMP JUMPDEST SSTORE PUSH0 DUP1 PUSH2 0xD19 JUMP JUMPDEST DUP4 SWAP1 SSTORE PUSH0 PUSH2 0xC60 JUMP JUMPDEST PUSH2 0xD57 PUSH2 0xC46 CALLER DUP6 PUSH2 0x4776 JUMP JUMPDEST ISZERO PUSH2 0xC4F JUMPI PUSH2 0x4959 JUMP JUMPDEST CALLVALUE PUSH2 0x4BB JUMPI PUSH1 0x40 CALLDATASIZE PUSH1 0x3 NOT ADD SLT PUSH2 0x4BB JUMPI PUSH2 0xD7A PUSH2 0x49A2 JUMP JUMPDEST PUSH1 0x4 CALLDATALOAD PUSH2 0xD86 DUP2 PUSH2 0x752 JUMP JUMPDEST PUSH1 0x1 PUSH1 0x1 PUSH1 0xA0 SHL SUB AND ISZERO PUSH2 0xE34 JUMPI PUSH2 0x2710 PUSH1 0x1 PUSH1 0x1 PUSH1 0x60 SHL SUB PUSH2 0xDA7 PUSH2 0x3AB0 JUMP JUMPDEST AND GT PUSH2 0xE11 JUMPI PUSH2 0xDB5 PUSH2 0x3AC6 JUMP JUMPDEST PUSH32 0xF21FCCF4D64D86D532C4E4EB86C007B6AD57A460C27D724188625E755EC6CF6D PUSH2 0xDDE PUSH2 0x3A9A JUMP JUMPDEST PUSH2 0xDE6 PUSH2 0x3AB0 JUMP JUMPDEST PUSH1 0x40 DUP1 MLOAD PUSH1 0x1 PUSH1 0x1 PUSH1 0xA0 SHL SUB SWAP1 SWAP4 AND DUP4 MSTORE PUSH1 0x1 PUSH1 0x1 PUSH1 0x60 SHL SUB SWAP1 SWAP2 AND PUSH1 0x20 DUP4 ADD MSTORE DUP2 SWAP1 DUP2 ADD JUMPDEST SUB SWAP1 LOG1 STOP JUMPDEST PUSH1 0x1 PUSH1 0x1 PUSH1 0x60 SHL SUB PUSH2 0xE21 PUSH2 0x3AB0 JUMP JUMPDEST PUSH4 0x3CADBAFB PUSH1 0xE0 SHL PUSH0 MSTORE AND PUSH1 0x4 MSTORE PUSH1 0x24 PUSH0 REVERT JUMPDEST PUSH4 0x1CC0BAEF PUSH1 0xE0 SHL PUSH0 MSTORE PUSH1 0x4 PUSH0 REVERT JUMPDEST CALLVALUE PUSH2 0x4BB JUMPI PUSH0 CALLDATASIZE PUSH1 0x3 NOT ADD SLT PUSH2 0x4BB JUMPI PUSH1 0x20 PUSH1 0xFF PUSH1 0x13 SLOAD AND PUSH1 0x40 MLOAD SWAP1 ISZERO ISZERO DUP2 MSTORE RETURN JUMPDEST CALLVALUE PUSH2 0x4BB JUMPI PUSH1 0x40 CALLDATASIZE PUSH1 0x3 NOT ADD SLT PUSH2 0x4BB JUMPI PUSH1 0x4 CALLDATALOAD PUSH2 0xE82 DUP2 PUSH2 0x752 JUMP JUMPDEST PUSH1 0x24 CALLDATALOAD PUSH2 0xE8D PUSH2 0x49C9 JUMP JUMPDEST ADDRESS PUSH9 0x929EEE149B4BD21268 SLOAD EQ PUSH2 0xEF1 JUMPI ADDRESS PUSH9 0x929EEE149B4BD21268 SSTORE PUSH1 0x18 SLOAD SWAP2 DUP2 DUP4 LT PUSH2 0xEE2 JUMPI DUP2 DUP4 SUB SWAP3 DUP4 GT PUSH2 0xB17 JUMPI PUSH2 0xED4 SWAP3 PUSH1 0x18 SSTORE PUSH2 0xECF DUP3 PUSH2 0x4BF0 JUMP JUMPDEST PUSH2 0x4C36 JUMP JUMPDEST CODESIZE PUSH9 0x929EEE149B4BD21268 SSTORE STOP JUMPDEST PUSH4 0x6514503 PUSH1 0xE5 SHL PUSH0 MSTORE PUSH1 0x4 PUSH0 REVERT JUMPDEST PUSH4 0xAB143C06 PUSH0 MSTORE PUSH1 0x4 PUSH1 0x1C REVERT JUMPDEST PUSH1 0x60 SWAP1 PUSH1 0x3 NOT ADD SLT PUSH2 0x4BB JUMPI PUSH1 0x4 CALLDATALOAD PUSH2 0xF16 DUP2 PUSH2 0x752 JUMP JUMPDEST SWAP1 PUSH1 0x24 CALLDATALOAD PUSH2 0xF23 DUP2 PUSH2 0x752 JUMP JUMPDEST SWAP1 PUSH1 0x44 CALLDATALOAD DUP1 ISZERO ISZERO DUP2 SUB PUSH2 0x4BB JUMPI SWAP1 JUMP JUMPDEST CALLVALUE PUSH2 0x4BB JUMPI PUSH2 0xF41 CALLDATASIZE PUSH2 0xEFE JUMP JUMPDEST SWAP1 SWAP2 PUSH2 0xF4B PUSH2 0x49A2 JUMP JUMPDEST PUSH2 0xF54 DUP2 PUSH2 0x49DD JUMP JUMPDEST PUSH1 0x1 PUSH1 0x1 PUSH1 0xA0 SHL SUB AND SWAP2 DUP3 EXTCODESIZE ISZERO PUSH2 0x4BB JUMPI PUSH1 0x40 MLOAD PUSH4 0x8E7D1E43 PUSH1 0xE0 SHL DUP2 MSTORE PUSH1 0x1 PUSH1 0x1 PUSH1 0xA0 SHL SUB SWAP1 SWAP2 AND PUSH1 0x4 DUP3 ADD MSTORE SWAP1 ISZERO ISZERO PUSH1 0x24 DUP3 ADD MSTORE PUSH0 DUP2 PUSH1 0x44 DUP2 ADD JUMPDEST SWAP4 DUP2 DUP4 DUP2 DUP2 SWAP8 SUB SWAP3 GAS CALL DUP1 ISZERO PUSH2 0xA0F JUMPI PUSH2 0xA01 JUMPI POP DUP1 RETURN JUMPDEST PUSH4 0x4E487B71 PUSH1 0xE0 SHL PUSH0 MSTORE PUSH1 0x41 PUSH1 0x4 MSTORE PUSH1 0x24 PUSH0 REVERT JUMPDEST PUSH1 0xE0 DUP2 ADD SWAP1 DUP2 LT PUSH1 0x1 PUSH1 0x1 PUSH1 0x40 SHL SUB DUP3 GT OR PUSH2 0xFD8 JUMPI PUSH1 0x40 MSTORE JUMP JUMPDEST PUSH2 0xFA9 JUMP JUMPDEST PUSH1 0x60 DUP2 ADD SWAP1 DUP2 LT PUSH1 0x1 PUSH1 0x1 PUSH1 0x40 SHL SUB DUP3 GT OR PUSH2 0xFD8 JUMPI PUSH1 0x40 MSTORE JUMP JUMPDEST SWAP1 PUSH1 0x1F DUP1 NOT SWAP2 ADD AND DUP2 ADD SWAP1 DUP2 LT PUSH1 0x1 PUSH1 0x1 PUSH1 0x40 SHL SUB DUP3 GT OR PUSH2 0xFD8 JUMPI PUSH1 0x40 MSTORE JUMP JUMPDEST PUSH1 0x40 MLOAD SWAP1 PUSH2 0x1028 PUSH1 0x60 DUP4 PUSH2 0xFF8 JUMP JUMPDEST JUMP JUMPDEST PUSH1 0x44 CALLDATALOAD SWAP1 PUSH1 0x1 PUSH1 0x1 PUSH1 0x50 SHL SUB DUP3 AND DUP3 SUB PUSH2 0x4BB JUMPI JUMP JUMPDEST CALLDATALOAD SWAP1 PUSH1 0x1 PUSH1 0x1 PUSH1 0x50 SHL SUB DUP3 AND DUP3 SUB PUSH2 0x4BB JUMPI JUMP JUMPDEST PUSH1 0x64 CALLDATALOAD SWAP1 PUSH3 0xFFFFFF DUP3 AND DUP3 SUB PUSH2 0x4BB JUMPI JUMP JUMPDEST CALLDATALOAD SWAP1 PUSH3 0xFFFFFF DUP3 AND DUP3 SUB PUSH2 0x4BB JUMPI JUMP JUMPDEST PUSH1 0x84 CALLDATALOAD SWAP1 PUSH5 0xFFFFFFFFFF DUP3 AND DUP3 SUB PUSH2 0x4BB JUMPI JUMP JUMPDEST PUSH1 0xA4 CALLDATALOAD SWAP1 PUSH5 0xFFFFFFFFFF DUP3 AND DUP3 SUB PUSH2 0x4BB JUMPI JUMP JUMPDEST PUSH1 0xC4 CALLDATALOAD SWAP1 PUSH5 0xFFFFFFFFFF DUP3 AND DUP3 SUB PUSH2 0x4BB JUMPI JUMP JUMPDEST CALLDATALOAD SWAP1 PUSH5 0xFFFFFFFFFF DUP3 AND DUP3 SUB PUSH2 0x4BB JUMPI JUMP JUMPDEST PUSH1 0xE4 CALLDATALOAD SWAP1 PUSH2 0xFFFF DUP3 AND DUP3 SUB PUSH2 0x4BB JUMPI JUMP JUMPDEST PUSH2 0x104 CALLDATALOAD SWAP1 PUSH2 0xFFFF DUP3 AND DUP3 SUB PUSH2 0x4BB JUMPI JUMP JUMPDEST CALLDATALOAD SWAP1 PUSH2 0xFFFF DUP3 AND DUP3 SUB PUSH2 0x4BB JUMPI JUMP JUMPDEST CALLVALUE PUSH2 0x4BB JUMPI PUSH2 0x120 CALLDATASIZE PUSH1 0x3 NOT ADD SLT PUSH2 0x4BB JUMPI PUSH1 0x4 CALLDATALOAD PUSH2 0x1114 DUP2 PUSH2 0x752 JUMP JUMPDEST PUSH1 0x24 CALLDATALOAD SWAP1 PUSH2 0x1121 DUP3 PUSH2 0x752 JUMP JUMPDEST PUSH1 0xE0 CALLDATASIZE PUSH1 0x43 NOT ADD SLT PUSH2 0x4BB JUMPI PUSH2 0xA0D SWAP2 PUSH1 0x40 MLOAD SWAP2 PUSH2 0x113E DUP4 PUSH2 0xFBD JUMP JUMPDEST PUSH2 0x1146 PUSH2 0x102A JUMP JUMPDEST DUP4 MSTORE PUSH2 0x1150 PUSH2 0x1054 JUMP JUMPDEST PUSH1 0x20 DUP5 ADD MSTORE PUSH2 0x115D PUSH2 0x1076 JUMP JUMPDEST PUSH1 0x40 DUP5 ADD MSTORE PUSH2 0x116A PUSH2 0x108A JUMP JUMPDEST PUSH1 0x60 DUP5 ADD MSTORE PUSH2 0x1177 PUSH2 0x109E JUMP JUMPDEST PUSH1 0x80 DUP5 ADD MSTORE PUSH2 0x1184 PUSH2 0x10C4 JUMP JUMPDEST PUSH1 0xA0 DUP5 ADD MSTORE PUSH2 0x1191 PUSH2 0x10D5 JUMP JUMPDEST PUSH1 0xC0 DUP5 ADD MSTORE PUSH2 0x3BAA JUMP JUMPDEST SWAP2 DUP2 PUSH1 0x1F DUP5 ADD SLT ISZERO PUSH2 0x4BB JUMPI DUP3 CALLDATALOAD SWAP2 PUSH1 0x1 PUSH1 0x1 PUSH1 0x40 SHL SUB DUP4 GT PUSH2 0x4BB JUMPI PUSH1 0x20 DUP4 DUP2 DUP7 ADD SWAP6 ADD ADD GT PUSH2 0x4BB JUMPI JUMP JUMPDEST PUSH1 0x20 PUSH1 0x3 NOT DUP3 ADD SLT PUSH2 0x4BB JUMPI PUSH1 0x4 CALLDATALOAD SWAP1 PUSH1 0x1 PUSH1 0x1 PUSH1 0x40 SHL SUB DUP3 GT PUSH2 0x4BB JUMPI PUSH2 0x11F2 SWAP2 PUSH1 0x4 ADD PUSH2 0x119B JUMP JUMPDEST SWAP1 SWAP2 JUMP JUMPDEST CALLVALUE PUSH2 0x4BB JUMPI PUSH2 0x1204 CALLDATASIZE PUSH2 0x11C8 JUMP JUMPDEST PUSH2 0x120C PUSH2 0x49A2 JUMP JUMPDEST PUSH1 0x1 PUSH1 0x1 PUSH1 0x40 SHL SUB DUP2 GT PUSH2 0xFD8 JUMPI PUSH2 0x122E DUP2 PUSH2 0x1229 PUSH1 0xD SLOAD PUSH2 0x33B0 JUMP JUMPDEST PUSH2 0x3C34 JUMP JUMPDEST PUSH0 PUSH1 0x1F DUP3 GT PUSH1 0x1 EQ PUSH2 0x12AE JUMPI DUP2 SWAP1 PUSH2 0x125B SWAP4 PUSH0 SWAP3 PUSH2 0x12A3 JUMPI JUMPDEST POP POP DUP2 PUSH1 0x1 SHL SWAP2 PUSH0 NOT SWAP1 PUSH1 0x3 SHL SHR NOT AND OR SWAP1 JUMP JUMPDEST PUSH1 0xD SSTORE JUMPDEST PUSH0 SLOAD PUSH1 0x1 SLOAD SWAP1 SUB PUSH0 NOT ADD JUMPDEST PUSH2 0x1270 JUMPI STOP JUMPDEST PUSH0 MLOAD PUSH1 0x20 PUSH2 0x57A4 PUSH0 CODECOPY PUSH0 MLOAD SWAP1 PUSH0 MSTORE PUSH2 0xE0C PUSH2 0x128B PUSH0 SLOAD PUSH2 0x3B25 JUMP JUMPDEST PUSH1 0x40 MLOAD SWAP2 DUP3 SWAP2 DUP3 SWAP2 SWAP1 PUSH1 0x20 PUSH1 0x40 DUP5 ADD SWAP4 PUSH1 0x1 DUP2 MSTORE ADD MSTORE JUMP JUMPDEST ADD CALLDATALOAD SWAP1 POP PUSH0 DUP1 PUSH2 0x1247 JUMP JUMPDEST PUSH1 0xD PUSH0 MSTORE PUSH1 0x1F NOT DUP3 AND SWAP3 PUSH32 0xD7B6990105719101DABEB77144F2A3385C8033ACD3AF97E9423A695E81AD1EB5 SWAP2 PUSH0 JUMPDEST DUP6 DUP2 LT PUSH2 0x1315 JUMPI POP DUP4 PUSH1 0x1 SWAP6 LT PUSH2 0x12FC JUMPI JUMPDEST POP POP POP DUP2 SHL ADD PUSH1 0xD SSTORE PUSH2 0x125F JUMP JUMPDEST ADD CALLDATALOAD PUSH0 NOT PUSH1 0x3 DUP5 SWAP1 SHL PUSH1 0xF8 AND SHR NOT AND SWAP1 SSTORE PUSH0 DUP1 DUP1 PUSH2 0x12EE JUMP JUMPDEST SWAP1 SWAP3 PUSH1 0x20 PUSH1 0x1 DUP2 SWAP3 DUP7 DUP7 ADD CALLDATALOAD DUP2 SSTORE ADD SWAP5 ADD SWAP2 ADD PUSH2 0x12DC JUMP JUMPDEST CALLVALUE PUSH2 0x4BB JUMPI PUSH1 0x20 CALLDATASIZE PUSH1 0x3 NOT ADD SLT PUSH2 0x4BB JUMPI PUSH1 0x4 CALLDATALOAD PUSH2 0x134A DUP2 PUSH2 0x752 JUMP JUMPDEST PUSH2 0x1352 PUSH2 0x49C9 JUMP JUMPDEST PUSH1 0x13 DUP1 SLOAD PUSH2 0x100 PUSH1 0x1 PUSH1 0xA8 SHL SUB NOT AND PUSH1 0x8 SWAP3 SWAP1 SWAP3 SHL PUSH2 0x100 PUSH1 0x1 PUSH1 0xA8 SHL SUB AND SWAP2 SWAP1 SWAP2 OR SWAP1 SSTORE PUSH0 SLOAD PUSH1 0x1 SLOAD SWAP1 SUB PUSH0 NOT ADD PUSH2 0x1387 JUMPI STOP JUMPDEST PUSH0 SLOAD PUSH0 NOT DUP2 ADD SWAP1 DUP2 GT PUSH2 0xB17 JUMPI PUSH1 0x40 PUSH0 MLOAD PUSH1 0x20 PUSH2 0x57A4 PUSH0 CODECOPY PUSH0 MLOAD SWAP1 PUSH0 MSTORE SWAP2 DUP2 MLOAD SWAP1 PUSH1 0x1 DUP3 MSTORE PUSH1 0x20 DUP3 ADD MSTORE LOG1 STOP JUMPDEST CALLVALUE PUSH2 0x4BB JUMPI PUSH0 CALLDATASIZE PUSH1 0x3 NOT ADD SLT PUSH2 0x4BB JUMPI PUSH1 0x20 PUSH1 0x18 SLOAD PUSH1 0x40 MLOAD SWAP1 DUP2 MSTORE RETURN JUMPDEST SWAP1 PUSH1 0x20 PUSH1 0x3 NOT DUP4 ADD SLT PUSH2 0x4BB JUMPI PUSH1 0x4 CALLDATALOAD PUSH1 0x1 PUSH1 0x1 PUSH1 0x40 SHL SUB DUP2 GT PUSH2 0x4BB JUMPI PUSH1 0x4 ADD DUP3 PUSH1 0x1F DUP3 ADD SLT ISZERO PUSH2 0x4BB JUMPI DUP1 CALLDATALOAD SWAP3 PUSH1 0x1 PUSH1 0x1 PUSH1 0x40 SHL SUB DUP5 GT PUSH2 0x4BB JUMPI PUSH1 0x20 DUP1 DUP4 ADD SWAP3 DUP6 PUSH1 0x5 SHL ADD ADD GT PUSH2 0x4BB JUMPI SWAP2 SWAP1 JUMP JUMPDEST CALLVALUE PUSH2 0x4BB JUMPI PUSH2 0x1431 CALLDATASIZE PUSH2 0x13D1 JUMP JUMPDEST SWAP1 PUSH1 0x40 MLOAD SWAP2 DUP1 DUP4 MSTORE PUSH1 0x5 SHL PUSH1 0x20 DUP2 DUP5 ADD ADD PUSH1 0x40 MSTORE JUMPDEST DUP1 DUP2 DUP1 ISZERO PUSH2 0x146C JUMPI PUSH1 0x1F NOT SWAP1 DUP2 ADD SWAP3 PUSH2 0x1463 SWAP2 SWAP1 DUP6 ADD ADD CALLDATALOAD PUSH2 0x4392 JUMP JUMPDEST SWAP1 DUP5 ADD MSTORE PUSH2 0x1446 JUMP JUMPDEST DUP5 PUSH1 0x40 MLOAD DUP1 SWAP2 PUSH1 0x20 DUP3 ADD PUSH1 0x20 DUP4 MSTORE DUP2 MLOAD DUP1 SWAP2 MSTORE PUSH1 0x20 PUSH1 0x40 DUP5 ADD SWAP3 ADD SWAP1 PUSH0 JUMPDEST DUP2 DUP2 LT PUSH2 0x1498 JUMPI POP POP POP SUB SWAP1 RETURN JUMPDEST SWAP2 SWAP4 POP SWAP2 PUSH1 0x20 PUSH1 0x80 DUP3 PUSH2 0x14E4 PUSH1 0x1 SWAP5 DUP9 MLOAD PUSH3 0xFFFFFF PUSH1 0x60 DUP1 SWAP3 PUSH1 0x1 DUP1 PUSH1 0xA0 SHL SUB DUP2 MLOAD AND DUP6 MSTORE PUSH1 0x1 PUSH1 0x1 PUSH1 0x40 SHL SUB PUSH1 0x20 DUP3 ADD MLOAD AND PUSH1 0x20 DUP7 ADD MSTORE PUSH1 0x40 DUP2 ADD MLOAD ISZERO ISZERO PUSH1 0x40 DUP7 ADD MSTORE ADD MLOAD AND SWAP2 ADD MSTORE JUMP JUMPDEST ADD SWAP5 ADD SWAP2 ADD SWAP2 DUP5 SWAP4 SWAP3 PUSH2 0x148A JUMP JUMPDEST CALLVALUE PUSH2 0x4BB JUMPI PUSH2 0x1500 CALLDATASIZE PUSH2 0x13D1 JUMP JUMPDEST PUSH2 0x1508 PUSH2 0x49C9 JUMP JUMPDEST PUSH1 0x12 SLOAD PUSH0 JUMPDEST DUP2 DUP2 LT PUSH2 0x15A3 JUMPI POP POP PUSH0 JUMPDEST DUP2 DUP2 LT PUSH2 0x155B JUMPI POP DUP2 PUSH2 0x154C DUP3 PUSH32 0xBBD3B69C138DE4D317D0BC4290282C4E1CBD1E58B579A5B4F114B598C237454D SWAP5 PUSH2 0x4D5F JUMP JUMPDEST PUSH2 0xE0C PUSH1 0x40 MLOAD SWAP3 DUP4 SWAP3 DUP4 PUSH2 0x4DFB JUMP JUMPDEST DUP1 PUSH2 0x159D PUSH2 0x1590 PUSH2 0x1577 PUSH2 0x1572 PUSH1 0x1 SWAP6 DUP8 DUP10 PUSH2 0x3F84 JUMP JUMPDEST PUSH2 0x3AA6 JUMP JUMPDEST PUSH1 0x1 PUSH1 0x1 PUSH1 0xA0 SHL SUB AND PUSH0 SWAP1 DUP2 MSTORE PUSH1 0x11 PUSH1 0x20 MSTORE PUSH1 0x40 SWAP1 KECCAK256 SWAP1 JUMP JUMPDEST DUP1 SLOAD PUSH1 0xFF NOT AND PUSH1 0x1 OR SWAP1 SSTORE JUMP JUMPDEST ADD PUSH2 0x1518 JUMP JUMPDEST PUSH1 0x12 SLOAD DUP2 LT ISZERO PUSH2 0x15FF JUMPI PUSH1 0x12 PUSH0 MSTORE PUSH32 0xBB8A6A4669BA250D26CD7A459ECA9D215F8307E33AEBE50379BC5A3617EC3444 DUP2 ADD SLOAD PUSH1 0x1 SWAP2 SWAP1 PUSH2 0x15F9 SWAP1 PUSH2 0x15EF SWAP1 PUSH1 0x1 PUSH1 0x1 PUSH1 0xA0 SHL SUB AND PUSH2 0x1577 JUMP JUMPDEST DUP1 SLOAD PUSH1 0xFF NOT AND SWAP1 SSTORE JUMP JUMPDEST ADD PUSH2 0x150D JUMP JUMPDEST PUSH2 0x3F70 JUMP JUMPDEST CALLVALUE PUSH2 0x4BB JUMPI PUSH1 0x20 CALLDATASIZE PUSH1 0x3 NOT ADD SLT PUSH2 0x4BB JUMPI PUSH1 0x20 PUSH1 0x1 PUSH1 0x1 PUSH1 0xA0 SHL SUB PUSH2 0x162A PUSH1 0x4 CALLDATALOAD PUSH2 0x4A0E JUMP JUMPDEST AND PUSH1 0x40 MLOAD SWAP1 DUP2 MSTORE RETURN JUMPDEST CALLVALUE PUSH2 0x4BB JUMPI PUSH1 0x40 CALLDATASIZE PUSH1 0x3 NOT ADD SLT PUSH2 0x4BB JUMPI PUSH1 0x4 CALLDATALOAD PUSH2 0x1650 DUP2 PUSH2 0x752 JUMP JUMPDEST PUSH1 0x24 CALLDATALOAD ADDRESS PUSH9 0x929EEE149B4BD21268 SLOAD EQ PUSH2 0xEF1 JUMPI ADDRESS PUSH9 0x929EEE149B4BD21268 SSTORE PUSH2 0x1679 CALLER PUSH2 0x49DD JUMP JUMPDEST PUSH0 SLOAD PUSH0 NOT ADD SWAP2 DUP2 DUP4 ADD DUP1 SWAP4 GT PUSH2 0xB17 JUMPI PUSH1 0xC SLOAD DUP1 SWAP4 GT PUSH2 0x169D JUMPI PUSH2 0xED4 SWAP3 POP PUSH2 0x4C36 JUMP JUMPDEST POP PUSH0 SLOAD PUSH0 NOT ADD SWAP1 DUP2 ADD DUP1 SWAP2 GT PUSH2 0xB17 JUMPI PUSH4 0x384B48C5 PUSH1 0xE2 SHL PUSH0 MSTORE PUSH1 0x4 MSTORE PUSH1 0x24 MSTORE PUSH1 0x44 PUSH0 REVERT JUMPDEST CALLVALUE PUSH2 0x4BB JUMPI PUSH0 CALLDATASIZE PUSH1 0x3 NOT ADD SLT PUSH2 0x4BB JUMPI PUSH2 0x16DA PUSH2 0x49C9 JUMP JUMPDEST PUSH1 0x13 DUP1 SLOAD PUSH1 0xFF PUSH1 0xA8 SHL NOT AND PUSH1 0x1 PUSH1 0xA8 SHL OR SWAP1 SSTORE STOP JUMPDEST PUSH1 0x40 SWAP1 PUSH1 0x3 NOT ADD SLT PUSH2 0x4BB JUMPI PUSH1 0x4 CALLDATALOAD PUSH2 0x1707 DUP2 PUSH2 0x752 JUMP JUMPDEST SWAP1 PUSH1 0x24 CALLDATALOAD PUSH2 0x60D DUP2 PUSH2 0x752 JUMP JUMPDEST CALLVALUE PUSH2 0x4BB JUMPI PUSH2 0x1722 CALLDATASIZE PUSH2 0x16EF JUMP JUMPDEST SWAP1 PUSH2 0x172B PUSH2 0x49A2 JUMP JUMPDEST PUSH2 0x1734 DUP2 PUSH2 0x49DD JUMP JUMPDEST PUSH1 0x1 PUSH1 0x1 PUSH1 0xA0 SHL SUB AND DUP1 EXTCODESIZE ISZERO PUSH2 0x4BB JUMPI PUSH1 0x40 MLOAD PUSH4 0x24E71B7 PUSH1 0xE3 SHL DUP2 MSTORE PUSH1 0x1 PUSH1 0x1 PUSH1 0xA0 SHL SUB SWAP1 SWAP3 AND PUSH1 0x4 DUP4 ADD MSTORE PUSH0 SWAP2 SWAP1 DUP3 SWAP1 DUP3 SWAP1 PUSH1 0x24 SWAP1 DUP3 SWAP1 DUP5 SWAP1 GAS CALL DUP1 ISZERO PUSH2 0xA0F JUMPI PUSH2 0xA01 JUMPI POP DUP1 RETURN JUMPDEST CALLVALUE PUSH2 0x4BB JUMPI PUSH0 CALLDATASIZE PUSH1 0x3 NOT ADD SLT PUSH2 0x4BB JUMPI PUSH1 0x40 MLOAD PUSH0 PUSH1 0xD SLOAD PUSH2 0x179F DUP2 PUSH2 0x33B0 JUMP JUMPDEST DUP1 DUP5 MSTORE SWAP1 PUSH1 0x1 DUP2 AND SWAP1 DUP2 ISZERO PUSH2 0x6C2 JUMPI POP PUSH1 0x1 EQ PUSH2 0x17C6 JUMPI PUSH2 0x514 DUP4 PUSH2 0x658 DUP2 DUP6 SUB DUP3 PUSH2 0xFF8 JUMP JUMPDEST PUSH1 0xD PUSH0 SWAP1 DUP2 MSTORE PUSH32 0xD7B6990105719101DABEB77144F2A3385C8033ACD3AF97E9423A695E81AD1EB5 SWAP4 SWAP3 POP SWAP1 JUMPDEST DUP1 DUP3 LT PUSH2 0x180A JUMPI POP SWAP1 SWAP2 POP DUP2 ADD PUSH1 0x20 ADD PUSH2 0x658 PUSH2 0x648 JUMP JUMPDEST SWAP2 SWAP3 PUSH1 0x1 DUP2 PUSH1 0x20 SWAP3 SLOAD DUP4 DUP6 DUP9 ADD ADD MSTORE ADD SWAP2 ADD SWAP1 SWAP3 SWAP2 PUSH2 0x17F2 JUMP JUMPDEST CALLVALUE PUSH2 0x4BB JUMPI PUSH1 0x20 CALLDATASIZE PUSH1 0x3 NOT ADD SLT PUSH2 0x4BB JUMPI PUSH1 0x4 CALLDATALOAD PUSH2 0x1840 PUSH2 0x49A2 JUMP JUMPDEST PUSH1 0x1 PUSH1 0x1 PUSH1 0x40 SHL SUB DUP2 GT PUSH2 0x18A5 JUMPI PUSH0 SLOAD PUSH0 NOT ADD DUP2 LT PUSH2 0x188A JUMPI PUSH1 0x20 DUP2 PUSH32 0x7810BD47DE260C3E9EE10061CF438099DD12256C79485F12F94DBCCC981E806C SWAP3 PUSH1 0xC SSTORE PUSH1 0x40 MLOAD SWAP1 DUP2 MSTORE LOG1 STOP JUMPDEST PUSH0 SLOAD PUSH0 NOT ADD SWAP1 PUSH4 0x8C19F1F9 PUSH1 0xE0 SHL PUSH0 MSTORE PUSH1 0x4 MSTORE PUSH1 0x24 MSTORE PUSH1 0x44 PUSH0 REVERT JUMPDEST PUSH4 0xB43E9137 PUSH1 0xE0 SHL PUSH0 MSTORE PUSH1 0x4 MSTORE PUSH1 0x24 PUSH0 REVERT JUMPDEST CALLVALUE PUSH2 0x4BB JUMPI PUSH1 0x20 CALLDATASIZE PUSH1 0x3 NOT ADD SLT PUSH2 0x4BB JUMPI PUSH1 0x20 PUSH2 0x97C PUSH1 0x4 CALLDATALOAD PUSH2 0x18D9 DUP2 PUSH2 0x752 JUMP JUMPDEST PUSH2 0x3CE7 JUMP JUMPDEST CALLVALUE PUSH2 0x4BB JUMPI PUSH0 CALLDATASIZE PUSH1 0x3 NOT ADD SLT PUSH2 0x4BB JUMPI PUSH2 0x18F6 PUSH2 0x49C9 JUMP JUMPDEST PUSH1 0xA DUP1 SLOAD PUSH1 0x1 PUSH1 0x1 PUSH1 0xA0 SHL SUB NOT DUP2 AND SWAP1 SWAP2 SSTORE PUSH0 SWAP1 PUSH1 0x1 PUSH1 0x1 PUSH1 0xA0 SHL SUB AND PUSH32 0x8BE0079C531659141344CD1FD0A4F28419497F9722A3DAAFE3B4186F6B6457E0 DUP3 DUP1 LOG3 STOP JUMPDEST CALLVALUE PUSH2 0x4BB JUMPI PUSH1 0x40 CALLDATASIZE PUSH1 0x3 NOT ADD SLT PUSH2 0x4BB JUMPI PUSH1 0x4 CALLDATALOAD PUSH1 0x24 CALLDATALOAD PUSH2 0x1958 PUSH2 0x49C9 JUMP JUMPDEST PUSH1 0xFF PUSH1 0x13 SLOAD PUSH1 0xB8 SHR AND PUSH2 0x1A28 JUMPI PUSH1 0x40 MLOAD PUSH2 0x1994 DUP2 PUSH2 0x1986 PUSH1 0x20 DUP3 ADD SWAP5 DUP7 DUP7 SWAP1 SWAP2 PUSH1 0x40 SWAP3 DUP3 MSTORE PUSH1 0x20 DUP3 ADD MSTORE ADD SWAP1 JUMP JUMPDEST SUB PUSH1 0x1F NOT DUP2 ADD DUP4 MSTORE DUP3 PUSH2 0xFF8 JUMP JUMPDEST MLOAD SWAP1 KECCAK256 PUSH32 0x0 SUB PUSH2 0x1A19 JUMPI PUSH2 0xE0C DUP2 PUSH2 0x19EB PUSH32 0x6C2137E80722ED4B518B32EA50ECB69EF2C76F0451088A3C0AA79CE523BAB514 SWAP4 PUSH1 0x15 SSTORE JUMP JUMPDEST PUSH1 0x13 DUP1 SLOAD PUSH1 0xFF PUSH1 0xB8 SHL NOT AND PUSH1 0x1 PUSH1 0xB8 SHL OR SWAP1 SSTORE PUSH2 0x1A09 PUSH1 0xC SLOAD PUSH2 0x4E42 JUMP JUMPDEST PUSH1 0x40 MLOAD SWAP1 DUP2 MSTORE SWAP1 DUP2 SWAP1 PUSH1 0x20 DUP3 ADD SWAP1 JUMP JUMPDEST PUSH4 0x3BDFC859 PUSH1 0xE1 SHL PUSH0 MSTORE PUSH1 0x4 PUSH0 REVERT JUMPDEST PUSH4 0x1104D353 PUSH1 0xE1 SHL PUSH0 MSTORE PUSH1 0x4 PUSH0 REVERT JUMPDEST CALLVALUE PUSH2 0x4BB JUMPI PUSH0 CALLDATASIZE PUSH1 0x3 NOT ADD SLT PUSH2 0x4BB JUMPI PUSH1 0x20 PUSH1 0xFF PUSH1 0x13 SLOAD PUSH1 0xB8 SHR AND PUSH1 0x40 MLOAD SWAP1 ISZERO ISZERO DUP2 MSTORE RETURN JUMPDEST CALLVALUE PUSH2 0x4BB JUMPI PUSH0 CALLDATASIZE PUSH1 0x3 NOT ADD SLT PUSH2 0x4BB JUMPI PUSH1 0xB SLOAD PUSH1 0x1 PUSH1 0x1 PUSH1 0xA0 SHL SUB DUP2 AND SWAP1 CALLER DUP3 SWAP1 SUB PUSH2 0x1AFE JUMPI PUSH1 0x1 PUSH1 0x1 PUSH1 0x60 SHL SUB PUSH1 0xA0 SHL AND PUSH1 0xB SSTORE PUSH32 0x11A3CF439FB225BFE74225716B6774765670EC1060E3796802E62139D69974DA PUSH1 0x20 PUSH1 0x40 MLOAD PUSH0 DUP2 MSTORE LOG1 PUSH1 0xA DUP1 SLOAD PUSH1 0x1 PUSH1 0x1 PUSH1 0xA0 SHL SUB NOT DUP2 AND DUP4 OR SWAP1 SWAP2 SSTORE PUSH1 0x1 PUSH1 0x1 PUSH1 0xA0 SHL SUB AND PUSH32 0x8BE0079C531659141344CD1FD0A4F28419497F9722A3DAAFE3B4186F6B6457E0 PUSH0 DUP1 LOG3 STOP JUMPDEST PUSH4 0x6B7584E7 PUSH1 0xE1 SHL PUSH0 MSTORE PUSH1 0x4 PUSH0 REVERT JUMPDEST CALLVALUE PUSH2 0x4BB JUMPI PUSH0 PUSH1 0x40 CALLDATASIZE PUSH1 0x3 NOT ADD SLT PUSH2 0x4BB JUMPI PUSH1 0x4 CALLDATALOAD PUSH2 0x1B2B DUP2 PUSH2 0x752 JUMP JUMPDEST PUSH1 0x24 CALLDATALOAD PUSH1 0x1 PUSH1 0x1 PUSH1 0x40 SHL SUB DUP2 GT PUSH2 0x4BB JUMPI PUSH2 0x1B4A SWAP1 CALLDATASIZE SWAP1 PUSH1 0x4 ADD PUSH2 0x119B JUMP JUMPDEST SWAP2 PUSH2 0x1B53 PUSH2 0x49A2 JUMP JUMPDEST PUSH2 0x1B5C DUP2 PUSH2 0x49DD JUMP JUMPDEST PUSH1 0x1 PUSH1 0x1 PUSH1 0xA0 SHL SUB AND SWAP2 DUP3 EXTCODESIZE ISZERO PUSH2 0x4BB JUMPI PUSH2 0xBAA SWAP3 PUSH0 SWAP3 DUP4 PUSH1 0x40 MLOAD DUP1 SWAP7 DUP2 SWAP6 DUP3 SWAP5 PUSH4 0xB957D0CB PUSH1 0xE0 SHL DUP5 MSTORE PUSH1 0x4 DUP5 ADD PUSH2 0x3D1D JUMP JUMPDEST CALLVALUE PUSH2 0x4BB JUMPI PUSH0 PUSH2 0x140 CALLDATASIZE PUSH1 0x3 NOT ADD SLT PUSH2 0x4BB JUMPI PUSH1 0x4 CALLDATALOAD PUSH2 0x1BAF DUP2 PUSH2 0x752 JUMP JUMPDEST PUSH1 0x24 CALLDATALOAD SWAP1 PUSH2 0x1BBC DUP3 PUSH2 0x752 JUMP JUMPDEST PUSH2 0x100 CALLDATASIZE PUSH1 0x43 NOT ADD SLT PUSH2 0x4BB JUMPI PUSH2 0x1BD1 PUSH2 0x49A2 JUMP JUMPDEST PUSH2 0x1BDA DUP2 PUSH2 0x49DD JUMP JUMPDEST PUSH1 0x1 PUSH1 0x1 PUSH1 0xA0 SHL SUB AND SWAP1 DUP2 EXTCODESIZE ISZERO PUSH2 0x4BB JUMPI PUSH1 0x40 MLOAD PUSH4 0x7ECD5915 PUSH1 0xE1 SHL DUP2 MSTORE PUSH1 0x1 PUSH1 0x1 PUSH1 0xA0 SHL SUB SWAP1 SWAP2 AND PUSH1 0x4 DUP3 ADD MSTORE SWAP1 PUSH0 SWAP1 DUP3 SWAP1 PUSH2 0x124 SWAP1 DUP3 SWAP1 DUP5 SWAP1 PUSH2 0x9F1 PUSH1 0x24 DUP5 ADD PUSH2 0x3D4D JUMP JUMPDEST CALLVALUE PUSH2 0x4BB JUMPI PUSH1 0x20 CALLDATASIZE PUSH1 0x3 NOT ADD SLT PUSH2 0x4BB JUMPI PUSH1 0x4 CALLDATALOAD PUSH2 0x1C3E DUP2 PUSH2 0x752 JUMP JUMPDEST PUSH1 0x1 DUP1 PUSH1 0xA0 SHL SUB AND PUSH0 MSTORE PUSH1 0x5 PUSH1 0x20 MSTORE PUSH1 0x60 PUSH1 0x1 PUSH1 0x1 PUSH1 0x40 SHL SUB PUSH1 0x40 PUSH0 KECCAK256 SLOAD PUSH1 0x40 SHR AND PUSH0 NOT PUSH0 SLOAD ADD PUSH1 0xC SLOAD SWAP1 PUSH1 0x40 MLOAD SWAP3 DUP4 MSTORE PUSH1 0x20 DUP4 ADD MSTORE PUSH1 0x40 DUP3 ADD MSTORE RETURN JUMPDEST PUSH1 0x20 PUSH1 0x40 DUP2 DUP4 ADD SWAP3 DUP3 DUP2 MSTORE DUP5 MLOAD DUP1 SWAP5 MSTORE ADD SWAP3 ADD SWAP1 PUSH0 JUMPDEST DUP2 DUP2 LT PUSH2 0x1C9E JUMPI POP POP POP SWAP1 JUMP JUMPDEST DUP3 MLOAD DUP5 MSTORE PUSH1 0x20 SWAP4 DUP5 ADD SWAP4 SWAP1 SWAP3 ADD SWAP2 PUSH1 0x1 ADD PUSH2 0x1C91 JUMP JUMPDEST CALLVALUE PUSH2 0x4BB JUMPI PUSH1 0x20 CALLDATASIZE PUSH1 0x3 NOT ADD SLT PUSH2 0x4BB JUMPI PUSH1 0x4 CALLDATALOAD PUSH2 0x1CD1 DUP2 PUSH2 0x752 JUMP JUMPDEST PUSH0 SLOAD PUSH1 0x60 SWAP1 DUP1 PUSH1 0x1 SUB PUSH2 0x1CED JUMPI JUMPDEST PUSH1 0x40 MLOAD DUP1 PUSH2 0x514 DUP5 DUP3 PUSH2 0x1C7B JUMP JUMPDEST SWAP1 DUP2 SWAP3 PUSH1 0x1 SWAP1 PUSH1 0x60 SWAP4 DUP1 DUP4 LT ISZERO PUSH2 0x1E43 JUMPI PUSH0 SLOAD DUP1 SWAP2 LT ISZERO PUSH2 0x1E3B JUMPI JUMPDEST POP PUSH2 0x1D13 DUP2 PUSH2 0x3CE7 JUMP JUMPDEST SWAP3 DUP6 DUP4 LT ISZERO PUSH2 0x1E33 JUMPI JUMPDEST DUP4 PUSH2 0x1D32 JUMPI JUMPDEST POP POP POP POP PUSH2 0x514 SWAP2 POP PUSH0 PUSH2 0x1CDF JUMP JUMPDEST SWAP3 SWAP4 POP SWAP1 SWAP2 PUSH0 NOT DUP6 ADD DUP5 DUP2 GT ISZERO PUSH2 0x1E2B JUMPI JUMPDEST POP PUSH1 0x40 MLOAD SWAP2 DUP4 DUP6 ADD PUSH1 0x5 SHL DUP4 ADD SWAP5 DUP6 PUSH1 0x40 MSTORE PUSH2 0x1D5F DUP6 PUSH2 0x4392 JUMP JUMPDEST SWAP1 PUSH0 SWAP2 PUSH2 0x1D72 PUSH2 0xC46 PUSH1 0x40 DUP4 ADD MLOAD ISZERO ISZERO SWAP1 JUMP JUMPDEST PUSH2 0x1E19 JUMPI JUMPDEST POP PUSH0 SWAP8 SWAP2 SWAP6 SWAP2 DUP3 JUMPDEST ISZERO PUSH2 0x1DEA JUMPI JUMPDEST PUSH0 SWAP7 PUSH2 0x1D90 DUP5 PUSH2 0x4FDC JUMP JUMPDEST PUSH1 0x40 DUP2 ADD MLOAD ISZERO PUSH2 0x1DAF JUMPI POP POP PUSH1 0x1 PUSH0 SWAP4 JUMPDEST ADD SWAP7 DUP9 PUSH1 0x40 MSTORE SWAP7 SWAP3 SWAP7 PUSH2 0x1D7F JUMP JUMPDEST SWAP4 SWAP1 SWAP4 MLOAD DUP1 PUSH2 0x1DE2 JUMPI JUMPDEST POP DUP5 DUP5 XOR DUP7 SHL ISZERO PUSH2 0x1DCD JUMPI JUMPDEST PUSH1 0x1 SWAP1 PUSH2 0x1DA1 JUMP JUMPDEST PUSH1 0x1 SWAP1 SWAP10 ADD PUSH1 0x5 DUP2 SWAP1 SHL DUP8 ADD DUP11 SWAP1 MSTORE SWAP9 PUSH2 0x1DC5 JUMP JUMPDEST SWAP4 POP PUSH0 PUSH2 0x1DB9 JUMP JUMPDEST DUP1 DUP4 EQ DUP1 ISZERO PUSH2 0x1E10 JUMPI JUMPDEST ISZERO PUSH2 0x1D85 JUMPI POP POP POP POP POP SWAP2 POP POP PUSH2 0x514 SWAP2 DUP2 MSTORE PUSH0 DUP1 DUP1 DUP1 PUSH2 0x1D23 JUMP JUMPDEST POP DUP2 DUP10 EQ PUSH2 0x1DF4 JUMP JUMPDEST MLOAD PUSH1 0x1 PUSH1 0x1 PUSH1 0xA0 SHL SUB AND SWAP2 POP PUSH0 PUSH2 0x1D77 JUMP JUMPDEST SWAP4 POP PUSH0 PUSH2 0x1D44 JUMP JUMPDEST PUSH0 SWAP4 POP PUSH2 0x1D1D JUMP JUMPDEST SWAP5 POP PUSH0 PUSH2 0x1D09 JUMP JUMPDEST PUSH4 0x1960CCAD PUSH1 0xE1 SHL PUSH0 MSTORE PUSH1 0x4 PUSH0 REVERT JUMPDEST CALLVALUE PUSH2 0x4BB JUMPI PUSH1 0x40 CALLDATASIZE PUSH1 0x3 NOT ADD SLT PUSH2 0x4BB JUMPI PUSH1 0x4 CALLDATALOAD PUSH1 0x24 CALLDATALOAD PUSH2 0x1E71 PUSH2 0x49C9 JUMP JUMPDEST PUSH1 0x13 SLOAD PUSH1 0xB0 SHR PUSH1 0xFF AND PUSH2 0x1F2F JUMPI PUSH1 0x40 MLOAD PUSH2 0x1E9F DUP2 PUSH2 0x1986 PUSH1 0x20 DUP3 ADD SWAP5 DUP7 DUP7 SWAP1 SWAP2 PUSH1 0x40 SWAP3 DUP3 MSTORE PUSH1 0x20 DUP3 ADD MSTORE ADD SWAP1 JUMP JUMPDEST MLOAD SWAP1 KECCAK256 PUSH32 0x0 SUB PUSH2 0x1F20 JUMPI PUSH2 0x1F0E DUP2 PUSH2 0x1EF6 PUSH32 0x7BCCB191591B7E41B276DF97EBF2CBB27E85E20FA7DB7D336D3A9738021466F SWAP4 PUSH1 0x14 SSTORE JUMP JUMPDEST PUSH1 0x13 DUP1 SLOAD PUSH1 0xFF PUSH1 0xB0 SHL NOT AND PUSH1 0x1 PUSH1 0xB0 SHL OR SWAP1 SSTORE PUSH2 0x1A09 JUMP JUMPDEST SUB SWAP1 LOG1 PUSH0 SLOAD PUSH1 0x1 SLOAD SWAP1 SUB PUSH0 NOT ADD PUSH2 0x126A JUMP JUMPDEST PUSH4 0x148BB881 PUSH1 0xE3 SHL PUSH0 MSTORE PUSH1 0x4 PUSH0 REVERT JUMPDEST PUSH4 0x18ED71CD PUSH1 0xE0 SHL PUSH0 MSTORE PUSH1 0x4 PUSH0 REVERT JUMPDEST CALLVALUE PUSH2 0x4BB JUMPI PUSH0 CALLDATASIZE PUSH1 0x3 NOT ADD SLT PUSH2 0x4BB JUMPI PUSH1 0x13 SLOAD PUSH1 0x40 MLOAD PUSH1 0x8 SWAP2 SWAP1 SWAP2 SHR PUSH1 0x1 PUSH1 0x1 PUSH1 0xA0 SHL SUB AND DUP2 MSTORE PUSH1 0x20 SWAP1 RETURN JUMPDEST CALLVALUE PUSH2 0x4BB JUMPI PUSH0 CALLDATASIZE PUSH1 0x3 NOT ADD SLT PUSH2 0x4BB JUMPI PUSH1 0xA SLOAD PUSH1 0x40 MLOAD PUSH1 0x1 PUSH1 0x1 PUSH1 0xA0 SHL SUB SWAP1 SWAP2 AND DUP2 MSTORE PUSH1 0x20 SWAP1 RETURN JUMPDEST CALLVALUE PUSH2 0x4BB JUMPI PUSH1 0x20 CALLDATASIZE PUSH1 0x3 NOT ADD SLT PUSH2 0x4BB JUMPI PUSH1 0x4 CALLDATALOAD PUSH1 0x1 PUSH1 0x1 PUSH1 0x40 SHL SUB DUP2 GT PUSH2 0x4BB JUMPI DUP1 PUSH1 0x4 ADD SWAP1 PUSH2 0x300 PUSH1 0x3 NOT DUP3 CALLDATASIZE SUB ADD SLT PUSH2 0x4BB JUMPI PUSH2 0x1FD0 PUSH2 0x49C9 JUMP JUMPDEST DUP2 CALLDATALOAD DUP1 PUSH2 0x2962 JUMPI JUMPDEST POP PUSH1 0x24 DUP2 ADD PUSH2 0x1FE7 DUP2 DUP5 PUSH2 0x3E0F JUMP JUMPDEST SWAP1 POP PUSH2 0x2909 JUMPI JUMPDEST POP PUSH1 0x44 DUP2 ADD PUSH2 0x1FFD DUP2 DUP5 PUSH2 0x3E0F JUMP JUMPDEST SWAP1 POP PUSH2 0x28B0 JUMPI JUMPDEST POP PUSH1 0x1 PUSH6 0xFFFFFFFFFFFF PUSH2 0x201A PUSH1 0xA4 DUP5 ADD PUSH2 0x3E41 JUMP JUMPDEST AND ISZERO ISZERO PUSH2 0x2037 PUSH2 0x202C PUSH1 0xC4 DUP6 ADD PUSH2 0x3E41 JUMP JUMPDEST PUSH6 0xFFFFFFFFFFFF AND SWAP1 JUMP JUMPDEST ISZERO ISZERO OR EQ PUSH2 0x284E JUMPI JUMPDEST PUSH2 0x144 DUP2 ADD PUSH2 0x204F DUP2 DUP5 PUSH2 0x3E0F JUMP JUMPDEST SWAP1 POP PUSH2 0x27EA JUMPI JUMPDEST POP PUSH2 0x164 DUP2 ADD PUSH2 0x2066 DUP2 DUP5 PUSH2 0x3F04 JUMP JUMPDEST CALLDATALOAD PUSH2 0x2785 JUMPI JUMPDEST POP PUSH2 0x184 DUP2 ADD PUSH1 0x1 PUSH1 0x1 PUSH1 0xA0 SHL SUB PUSH2 0x2083 DUP3 PUSH2 0x3AA6 JUMP JUMPDEST AND PUSH2 0x271C JUMPI JUMPDEST POP PUSH2 0x1A4 DUP2 ADD CALLDATALOAD DUP1 PUSH2 0x26D8 JUMPI JUMPDEST POP PUSH2 0x1C4 DUP2 ADD PUSH2 0x20A6 DUP2 DUP5 PUSH2 0x3F3B JUMP JUMPDEST SWAP1 POP PUSH2 0x2635 JUMPI JUMPDEST POP PUSH2 0x1E4 DUP2 ADD PUSH2 0x20BD DUP2 DUP5 PUSH2 0x3F3B JUMP JUMPDEST SWAP1 POP PUSH2 0x2592 JUMPI JUMPDEST POP PUSH2 0x204 DUP2 ADD PUSH2 0x20D4 DUP2 DUP5 PUSH2 0x3F3B JUMP JUMPDEST SWAP1 POP PUSH2 0x24EF JUMPI JUMPDEST POP PUSH2 0x224 DUP2 ADD PUSH2 0x20EB DUP2 DUP5 PUSH2 0x3F3B JUMP JUMPDEST SWAP1 POP PUSH2 0x244C JUMPI JUMPDEST POP PUSH2 0x264 DUP2 ADD PUSH2 0x2102 DUP2 DUP5 PUSH2 0x3F94 JUMP JUMPDEST SWAP1 POP PUSH2 0x236E JUMPI JUMPDEST POP PUSH2 0x284 DUP2 ADD PUSH2 0x2119 DUP2 DUP5 PUSH2 0x3F3B JUMP JUMPDEST SWAP1 POP PUSH2 0x22CF JUMPI JUMPDEST POP PUSH2 0x2C4 DUP2 ADD PUSH2 0x2130 DUP2 DUP5 PUSH2 0x41B2 JUMP JUMPDEST SWAP1 POP PUSH2 0x21F1 JUMPI JUMPDEST POP PUSH2 0x2E4 DUP2 ADD SWAP2 PUSH2 0x2148 DUP4 DUP3 PUSH2 0x3F3B JUMP JUMPDEST SWAP1 POP PUSH2 0x2150 JUMPI STOP JUMPDEST PUSH1 0x64 PUSH0 SWAP4 SWAP3 ADD SWAP3 JUMPDEST PUSH2 0x2162 DUP4 DUP4 PUSH2 0x3F3B JUMP JUMPDEST SWAP1 POP DUP2 LT ISZERO PUSH2 0xA0D JUMPI PUSH2 0x2173 PUSH2 0x42BF JUMP JUMPDEST SWAP1 PUSH2 0x217D DUP6 PUSH2 0x3AA6 JUMP JUMPDEST PUSH2 0x2194 PUSH2 0x1572 DUP4 PUSH2 0x218E DUP9 DUP9 PUSH2 0x3F3B JUMP JUMPDEST SWAP1 PUSH2 0x3F84 JUMP JUMPDEST ADDRESS EXTCODESIZE ISZERO PUSH2 0x4BB JUMPI PUSH0 SWAP2 PUSH2 0x21BB PUSH1 0x40 MLOAD SWAP6 DUP7 SWAP4 DUP5 SWAP4 PUSH4 0x1446A991 PUSH1 0xE2 SHL DUP6 MSTORE PUSH1 0x4 DUP6 ADD PUSH2 0x42F5 JUMP JUMPDEST SUB DUP2 DUP4 ADDRESS GAS CALL SWAP2 DUP3 ISZERO PUSH2 0xA0F JUMPI PUSH1 0x1 SWAP3 PUSH2 0x21D7 JUMPI JUMPDEST POP ADD PUSH2 0x2158 JUMP JUMPDEST DUP1 PUSH2 0x21E5 PUSH0 PUSH2 0x21EB SWAP4 PUSH2 0xFF8 JUMP JUMPDEST DUP1 PUSH2 0x5CE JUMP JUMPDEST PUSH0 PUSH2 0x21D0 JUMP JUMPDEST PUSH2 0x21FB DUP2 DUP5 PUSH2 0x41B2 JUMP JUMPDEST PUSH2 0x2A4 DUP5 ADD SWAP3 SWAP2 POP PUSH2 0x220D DUP4 DUP7 PUSH2 0x3F3B JUMP JUMPDEST SWAP2 SWAP1 POP SUB PUSH2 0x22C0 JUMPI PUSH1 0x64 DUP4 ADD PUSH0 JUMPDEST PUSH2 0x2225 DUP4 DUP8 PUSH2 0x41B2 JUMP JUMPDEST SWAP1 POP DUP2 LT ISZERO PUSH2 0x22B6 JUMPI PUSH2 0x2237 DUP3 PUSH2 0x3AA6 JUMP JUMPDEST SWAP1 PUSH2 0x2249 PUSH2 0x1572 DUP3 PUSH2 0x218E DUP9 DUP12 PUSH2 0x3F3B JUMP JUMPDEST SWAP2 PUSH2 0x225E DUP3 PUSH2 0x2258 DUP8 DUP12 PUSH2 0x41B2 JUMP JUMPDEST SWAP1 PUSH2 0x41E7 JUMP JUMPDEST SWAP3 ADDRESS EXTCODESIZE ISZERO PUSH2 0x4BB JUMPI PUSH0 SWAP2 PUSH2 0x2286 PUSH1 0x40 MLOAD SWAP6 DUP7 SWAP4 DUP5 SWAP4 PUSH4 0x1446A991 PUSH1 0xE2 SHL DUP6 MSTORE PUSH1 0x4 DUP6 ADD PUSH2 0x41F7 JUMP JUMPDEST SUB DUP2 DUP4 ADDRESS GAS CALL SWAP2 DUP3 ISZERO PUSH2 0xA0F JUMPI PUSH1 0x1 SWAP3 PUSH2 0x22A2 JUMPI JUMPDEST POP ADD PUSH2 0x221B JUMP JUMPDEST DUP1 PUSH2 0x21E5 PUSH0 PUSH2 0x22B0 SWAP4 PUSH2 0xFF8 JUMP JUMPDEST PUSH0 PUSH2 0x229B JUMP JUMPDEST POP POP POP POP PUSH0 PUSH2 0x2137 JUMP JUMPDEST PUSH4 0x74EF6DF7 PUSH1 0xE0 SHL PUSH0 MSTORE PUSH1 0x4 PUSH0 REVERT JUMPDEST PUSH1 0x64 DUP3 ADD SWAP3 SWAP1 PUSH0 JUMPDEST PUSH2 0x22E1 DUP3 DUP5 PUSH2 0x3F3B JUMP JUMPDEST SWAP1 POP DUP2 LT ISZERO PUSH2 0x2364 JUMPI PUSH2 0x22F2 PUSH2 0x40BE JUMP JUMPDEST SWAP1 PUSH2 0x22FC DUP7 PUSH2 0x3AA6 JUMP JUMPDEST PUSH2 0x230D PUSH2 0x1572 DUP4 PUSH2 0x218E DUP8 DUP10 PUSH2 0x3F3B JUMP JUMPDEST ADDRESS EXTCODESIZE ISZERO PUSH2 0x4BB JUMPI PUSH0 SWAP2 PUSH2 0x2334 PUSH1 0x40 MLOAD SWAP6 DUP7 SWAP4 DUP5 SWAP4 PUSH4 0x3DE15F3B PUSH1 0xE1 SHL DUP6 MSTORE PUSH1 0x4 DUP6 ADD PUSH2 0x410B JUMP JUMPDEST SUB DUP2 DUP4 ADDRESS GAS CALL SWAP2 DUP3 ISZERO PUSH2 0xA0F JUMPI PUSH1 0x1 SWAP3 PUSH2 0x2350 JUMPI JUMPDEST POP ADD PUSH2 0x22D7 JUMP JUMPDEST DUP1 PUSH2 0x21E5 PUSH0 PUSH2 0x235E SWAP4 PUSH2 0xFF8 JUMP JUMPDEST PUSH0 PUSH2 0x2349 JUMP JUMPDEST POP POP SWAP2 POP PUSH0 PUSH2 0x2120 JUMP JUMPDEST PUSH2 0x2378 DUP2 DUP5 PUSH2 0x3F94 JUMP JUMPDEST PUSH2 0x244 DUP5 ADD SWAP3 SWAP2 POP PUSH2 0x238A DUP4 DUP7 PUSH2 0x3F3B JUMP JUMPDEST SWAP2 SWAP1 POP SUB PUSH2 0x243D JUMPI PUSH1 0x64 DUP4 ADD PUSH0 JUMPDEST PUSH2 0x23A2 DUP4 DUP8 PUSH2 0x3F94 JUMP JUMPDEST SWAP1 POP DUP2 LT ISZERO PUSH2 0x2433 JUMPI PUSH2 0x23B4 DUP3 PUSH2 0x3AA6 JUMP JUMPDEST SWAP1 PUSH2 0x23C6 PUSH2 0x1572 DUP3 PUSH2 0x218E DUP9 DUP12 PUSH2 0x3F3B JUMP JUMPDEST SWAP2 PUSH2 0x23DB DUP3 PUSH2 0x23D5 DUP8 DUP12 PUSH2 0x3F94 JUMP JUMPDEST SWAP1 PUSH2 0x3FC9 JUMP JUMPDEST SWAP3 ADDRESS EXTCODESIZE ISZERO PUSH2 0x4BB JUMPI PUSH0 SWAP2 PUSH2 0x2403 PUSH1 0x40 MLOAD SWAP6 DUP7 SWAP4 DUP5 SWAP4 PUSH4 0x3DE15F3B PUSH1 0xE1 SHL DUP6 MSTORE PUSH1 0x4 DUP6 ADD PUSH2 0x3FD9 JUMP JUMPDEST SUB DUP2 DUP4 ADDRESS GAS CALL SWAP2 DUP3 ISZERO PUSH2 0xA0F JUMPI PUSH1 0x1 SWAP3 PUSH2 0x241F JUMPI JUMPDEST POP ADD PUSH2 0x2398 JUMP JUMPDEST DUP1 PUSH2 0x21E5 PUSH0 PUSH2 0x242D SWAP4 PUSH2 0xFF8 JUMP JUMPDEST PUSH0 PUSH2 0x2418 JUMP JUMPDEST POP POP POP POP PUSH0 PUSH2 0x2109 JUMP JUMPDEST PUSH4 0xB81AA639 PUSH1 0xE0 SHL PUSH0 MSTORE PUSH1 0x4 PUSH0 REVERT JUMPDEST PUSH1 0x64 DUP3 ADD PUSH0 JUMPDEST PUSH2 0x245C DUP4 DUP7 PUSH2 0x3F3B JUMP JUMPDEST SWAP1 POP DUP2 LT ISZERO PUSH2 0x24E6 JUMPI PUSH2 0x246E DUP3 PUSH2 0x3AA6 JUMP JUMPDEST SWAP1 PUSH2 0x2480 PUSH2 0x1572 DUP3 PUSH2 0x218E DUP8 DUP11 PUSH2 0x3F3B JUMP JUMPDEST SWAP2 ADDRESS EXTCODESIZE ISZERO PUSH2 0x4BB JUMPI PUSH1 0x40 MLOAD PUSH4 0x196E8775 PUSH1 0xE3 SHL DUP2 MSTORE PUSH1 0x1 PUSH1 0x1 PUSH1 0xA0 SHL SUB SWAP2 DUP3 AND PUSH1 0x4 DUP3 ADD MSTORE SWAP3 AND PUSH1 0x24 DUP4 ADD MSTORE PUSH0 PUSH1 0x44 DUP4 ADD DUP2 SWAP1 MSTORE DUP3 PUSH1 0x64 DUP2 DUP4 ADDRESS GAS CALL SWAP2 DUP3 ISZERO PUSH2 0xA0F JUMPI PUSH1 0x1 SWAP3 PUSH2 0x24D2 JUMPI JUMPDEST POP ADD PUSH2 0x2452 JUMP JUMPDEST DUP1 PUSH2 0x21E5 PUSH0 PUSH2 0x24E0 SWAP4 PUSH2 0xFF8 JUMP JUMPDEST PUSH0 PUSH2 0x24CB JUMP JUMPDEST POP POP POP PUSH0 PUSH2 0x20F2 JUMP JUMPDEST PUSH1 0x64 DUP3 ADD PUSH0 JUMPDEST PUSH2 0x24FF DUP4 DUP7 PUSH2 0x3F3B JUMP JUMPDEST SWAP1 POP DUP2 LT ISZERO PUSH2 0x2589 JUMPI PUSH2 0x2511 DUP3 PUSH2 0x3AA6 JUMP JUMPDEST SWAP1 PUSH2 0x2523 PUSH2 0x1572 DUP3 PUSH2 0x218E DUP8 DUP11 PUSH2 0x3F3B JUMP JUMPDEST SWAP2 ADDRESS EXTCODESIZE ISZERO PUSH2 0x4BB JUMPI PUSH1 0x40 MLOAD PUSH4 0x196E8775 PUSH1 0xE3 SHL DUP2 MSTORE PUSH1 0x1 PUSH1 0x1 PUSH1 0xA0 SHL SUB SWAP2 DUP3 AND PUSH1 0x4 DUP3 ADD MSTORE SWAP3 AND PUSH1 0x24 DUP4 ADD MSTORE PUSH1 0x1 PUSH1 0x44 DUP4 ADD MSTORE PUSH0 DUP3 PUSH1 0x64 DUP2 DUP4 ADDRESS GAS CALL SWAP2 DUP3 ISZERO PUSH2 0xA0F JUMPI PUSH1 0x1 SWAP3 PUSH2 0x2575 JUMPI JUMPDEST POP ADD PUSH2 0x24F5 JUMP JUMPDEST DUP1 PUSH2 0x21E5 PUSH0 PUSH2 0x2583 SWAP4 PUSH2 0xFF8 JUMP JUMPDEST PUSH0 PUSH2 0x256E JUMP JUMPDEST POP POP POP PUSH0 PUSH2 0x20DB JUMP JUMPDEST PUSH1 0x64 DUP3 ADD PUSH0 JUMPDEST PUSH2 0x25A2 DUP4 DUP7 PUSH2 0x3F3B JUMP JUMPDEST SWAP1 POP DUP2 LT ISZERO PUSH2 0x262C JUMPI PUSH2 0x25B4 DUP3 PUSH2 0x3AA6 JUMP JUMPDEST SWAP1 PUSH2 0x25C6 PUSH2 0x1572 DUP3 PUSH2 0x218E DUP8 DUP11 PUSH2 0x3F3B JUMP JUMPDEST SWAP2 ADDRESS EXTCODESIZE ISZERO PUSH2 0x4BB JUMPI PUSH1 0x40 MLOAD PUSH4 0x48A4C101 PUSH1 0xE0 SHL DUP2 MSTORE PUSH1 0x1 PUSH1 0x1 PUSH1 0xA0 SHL SUB SWAP2 DUP3 AND PUSH1 0x4 DUP3 ADD MSTORE SWAP3 AND PUSH1 0x24 DUP4 ADD MSTORE PUSH0 PUSH1 0x44 DUP4 ADD DUP2 SWAP1 MSTORE DUP3 PUSH1 0x64 DUP2 DUP4 ADDRESS GAS CALL SWAP2 DUP3 ISZERO PUSH2 0xA0F JUMPI PUSH1 0x1 SWAP3 PUSH2 0x2618 JUMPI JUMPDEST POP ADD PUSH2 0x2598 JUMP JUMPDEST DUP1 PUSH2 0x21E5 PUSH0 PUSH2 0x2626 SWAP4 PUSH2 0xFF8 JUMP JUMPDEST PUSH0 PUSH2 0x2611 JUMP JUMPDEST POP POP POP PUSH0 PUSH2 0x20C4 JUMP JUMPDEST PUSH1 0x64 DUP3 ADD PUSH0 JUMPDEST PUSH2 0x2645 DUP4 DUP7 PUSH2 0x3F3B JUMP JUMPDEST SWAP1 POP DUP2 LT ISZERO PUSH2 0x26CF JUMPI PUSH2 0x2657 DUP3 PUSH2 0x3AA6 JUMP JUMPDEST SWAP1 PUSH2 0x2669 PUSH2 0x1572 DUP3 PUSH2 0x218E DUP8 DUP11 PUSH2 0x3F3B JUMP JUMPDEST SWAP2 ADDRESS EXTCODESIZE ISZERO PUSH2 0x4BB JUMPI PUSH1 0x40 MLOAD PUSH4 0x48A4C101 PUSH1 0xE0 SHL DUP2 MSTORE PUSH1 0x1 PUSH1 0x1 PUSH1 0xA0 SHL SUB SWAP2 DUP3 AND PUSH1 0x4 DUP3 ADD MSTORE SWAP3 AND PUSH1 0x24 DUP4 ADD MSTORE PUSH1 0x1 PUSH1 0x44 DUP4 ADD MSTORE PUSH0 DUP3 PUSH1 0x64 DUP2 DUP4 ADDRESS GAS CALL SWAP2 DUP3 ISZERO PUSH2 0xA0F JUMPI PUSH1 0x1 SWAP3 PUSH2 0x26BB JUMPI JUMPDEST POP ADD PUSH2 0x263B JUMP JUMPDEST DUP1 PUSH2 0x21E5 PUSH0 PUSH2 0x26C9 SWAP4 PUSH2 0xFF8 JUMP JUMPDEST PUSH0 PUSH2 0x26B4 JUMP JUMPDEST POP POP POP PUSH0 PUSH2 0x20AD JUMP JUMPDEST ADDRESS EXTCODESIZE ISZERO PUSH2 0x4BB JUMPI PUSH1 0x40 MLOAD PUSH4 0x4CDB5FD PUSH1 0xE1 SHL DUP2 MSTORE PUSH1 0x4 DUP2 ADD SWAP2 SWAP1 SWAP2 MSTORE PUSH0 DUP2 PUSH1 0x24 DUP2 DUP4 ADDRESS GAS CALL DUP1 ISZERO PUSH2 0xA0F JUMPI ISZERO PUSH2 0x2096 JUMPI DUP1 PUSH2 0x21E5 PUSH0 PUSH2 0x2716 SWAP4 PUSH2 0xFF8 JUMP JUMPDEST PUSH0 PUSH2 0x2096 JUMP JUMPDEST PUSH2 0x2731 PUSH2 0x272B PUSH1 0x64 DUP5 ADD PUSH2 0x3AA6 JUMP JUMPDEST SWAP2 PUSH2 0x3AA6 JUMP JUMPDEST SWAP1 ADDRESS EXTCODESIZE ISZERO PUSH2 0x4BB JUMPI PUSH1 0x40 MLOAD PUSH4 0x66251B69 PUSH1 0xE0 SHL DUP2 MSTORE PUSH1 0x1 PUSH1 0x1 PUSH1 0xA0 SHL SUB SWAP2 DUP3 AND PUSH1 0x4 DUP3 ADD MSTORE SWAP2 AND PUSH1 0x24 DUP3 ADD MSTORE PUSH0 DUP2 PUSH1 0x44 DUP2 DUP4 ADDRESS GAS CALL DUP1 ISZERO PUSH2 0xA0F JUMPI ISZERO PUSH2 0x2089 JUMPI DUP1 PUSH2 0x21E5 PUSH0 PUSH2 0x277F SWAP4 PUSH2 0xFF8 JUMP JUMPDEST PUSH0 PUSH2 0x2089 JUMP JUMPDEST PUSH2 0x279B PUSH2 0x2794 PUSH1 0x64 DUP5 ADD PUSH2 0x3AA6 JUMP JUMPDEST SWAP2 DUP5 PUSH2 0x3F04 JUMP JUMPDEST SWAP1 ADDRESS EXTCODESIZE ISZERO PUSH2 0x4BB JUMPI PUSH1 0x40 MLOAD PUSH4 0x3680620D PUSH1 0xE0 SHL DUP2 MSTORE SWAP2 PUSH0 SWAP2 DUP4 SWAP2 DUP3 SWAP2 PUSH2 0x27C5 SWAP2 SWAP1 PUSH1 0x4 DUP5 ADD PUSH2 0x3F19 JUMP JUMPDEST SUB DUP2 DUP4 ADDRESS GAS CALL DUP1 ISZERO PUSH2 0xA0F JUMPI ISZERO PUSH2 0x206C JUMPI DUP1 PUSH2 0x21E5 PUSH0 PUSH2 0x27E4 SWAP4 PUSH2 0xFF8 JUMP JUMPDEST PUSH0 PUSH2 0x206C JUMP JUMPDEST PUSH2 0x2800 PUSH2 0x27F9 PUSH1 0x64 DUP5 ADD PUSH2 0x3AA6 JUMP JUMPDEST SWAP2 DUP5 PUSH2 0x3E0F JUMP JUMPDEST SWAP2 SWAP1 ADDRESS EXTCODESIZE ISZERO PUSH2 0x4BB JUMPI PUSH0 SWAP2 PUSH2 0x2829 PUSH1 0x40 MLOAD SWAP5 DUP6 SWAP4 DUP5 SWAP4 PUSH4 0x3D02DE41 PUSH1 0xE1 SHL DUP6 MSTORE PUSH1 0x4 DUP6 ADD PUSH2 0x3EE2 JUMP JUMPDEST SUB DUP2 DUP4 ADDRESS GAS CALL DUP1 ISZERO PUSH2 0xA0F JUMPI ISZERO PUSH2 0x2056 JUMPI DUP1 PUSH2 0x21E5 PUSH0 PUSH2 0x2848 SWAP4 PUSH2 0xFF8 JUMP JUMPDEST PUSH0 PUSH2 0x2056 JUMP JUMPDEST PUSH2 0x285A PUSH1 0x64 DUP3 ADD PUSH2 0x3AA6 JUMP JUMPDEST ADDRESS EXTCODESIZE ISZERO PUSH2 0x4BB JUMPI PUSH0 PUSH2 0x2885 SWAP2 PUSH1 0x40 MLOAD DUP1 SWAP4 DUP2 SWAP3 PUSH4 0x6DCD64F PUSH1 0xE2 SHL DUP4 MSTORE PUSH1 0x84 DUP8 ADD SWAP1 PUSH1 0x4 DUP5 ADD PUSH2 0x3E4B JUMP JUMPDEST SUB DUP2 DUP4 ADDRESS GAS CALL DUP1 ISZERO PUSH2 0xA0F JUMPI PUSH2 0x289C JUMPI JUMPDEST POP PUSH2 0x2040 JUMP JUMPDEST DUP1 PUSH2 0x21E5 PUSH0 PUSH2 0x28AA SWAP4 PUSH2 0xFF8 JUMP JUMPDEST PUSH0 PUSH2 0x2896 JUMP JUMPDEST PUSH2 0x28BA SWAP1 DUP4 PUSH2 0x3E0F JUMP JUMPDEST SWAP1 ADDRESS EXTCODESIZE ISZERO PUSH2 0x4BB JUMPI PUSH1 0x40 MLOAD PUSH4 0x938E3D7B PUSH1 0xE0 SHL DUP2 MSTORE SWAP2 PUSH0 SWAP2 DUP4 SWAP2 DUP3 SWAP2 PUSH2 0x28E4 SWAP2 SWAP1 PUSH1 0x4 DUP5 ADD PUSH2 0x3D1D JUMP JUMPDEST SUB DUP2 DUP4 ADDRESS GAS CALL DUP1 ISZERO PUSH2 0xA0F JUMPI ISZERO PUSH2 0x2004 JUMPI DUP1 PUSH2 0x21E5 PUSH0 PUSH2 0x2903 SWAP4 PUSH2 0xFF8 JUMP JUMPDEST PUSH0 PUSH2 0x2004 JUMP JUMPDEST PUSH2 0x2913 SWAP1 DUP4 PUSH2 0x3E0F JUMP JUMPDEST SWAP1 ADDRESS EXTCODESIZE ISZERO PUSH2 0x4BB JUMPI PUSH1 0x40 MLOAD PUSH4 0x55F804B3 PUSH1 0xE0 SHL DUP2 MSTORE SWAP2 PUSH0 SWAP2 DUP4 SWAP2 DUP3 SWAP2 PUSH2 0x293D SWAP2 SWAP1 PUSH1 0x4 DUP5 ADD PUSH2 0x3D1D JUMP JUMPDEST SUB DUP2 DUP4 ADDRESS GAS CALL DUP1 ISZERO PUSH2 0xA0F JUMPI ISZERO PUSH2 0x1FEE JUMPI DUP1 PUSH2 0x21E5 PUSH0 PUSH2 0x295C SWAP4 PUSH2 0xFF8 JUMP JUMPDEST PUSH0 PUSH2 0x1FEE JUMP JUMPDEST ADDRESS EXTCODESIZE ISZERO PUSH2 0x4BB JUMPI PUSH1 0x40 MLOAD PUSH4 0x6F8B44B PUSH1 0xE4 SHL DUP2 MSTORE PUSH1 0x4 DUP2 ADD SWAP2 SWAP1 SWAP2 MSTORE PUSH0 DUP2 PUSH1 0x24 DUP2 DUP4 ADDRESS GAS CALL DUP1 ISZERO PUSH2 0xA0F JUMPI ISZERO PUSH2 0x1FD8 JUMPI DUP1 PUSH2 0x21E5 PUSH0 PUSH2 0x29A0 SWAP4 PUSH2 0xFF8 JUMP JUMPDEST PUSH0 PUSH2 0x1FD8 JUMP JUMPDEST CALLVALUE PUSH2 0x4BB JUMPI PUSH2 0x29B4 CALLDATASIZE PUSH2 0x11C8 JUMP JUMPDEST PUSH2 0x29BC PUSH2 0x49A2 JUMP JUMPDEST PUSH1 0x1 PUSH1 0x1 PUSH1 0x40 SHL SUB DUP2 GT PUSH2 0xFD8 JUMPI PUSH2 0x29DE DUP2 PUSH2 0x29D9 PUSH1 0xE SLOAD PUSH2 0x33B0 JUMP JUMPDEST PUSH2 0x3C77 JUMP JUMPDEST PUSH0 SWAP2 PUSH1 0x1F DUP3 GT PUSH1 0x1 EQ PUSH2 0x2A4A JUMPI PUSH2 0x2A2C DUP3 DUP1 PUSH32 0x905D981207A7D0B6C62CC46AB0BE2A076D0298E4A86D0AB79882DBD01AC37378 SWAP6 PUSH0 SWAP2 PUSH2 0x2A3F JUMPI JUMPDEST POP DUP2 PUSH1 0x1 SHL SWAP2 PUSH0 NOT SWAP1 PUSH1 0x3 SHL SHR NOT AND OR SWAP1 JUMP JUMPDEST PUSH1 0xE SSTORE JUMPDEST PUSH2 0xE0C PUSH1 0x40 MLOAD SWAP3 DUP4 SWAP3 DUP4 PUSH2 0x3D1D JUMP JUMPDEST SWAP1 POP DUP4 ADD CALLDATALOAD PUSH0 PUSH2 0x2A19 JUMP JUMPDEST PUSH1 0xE PUSH0 MSTORE PUSH1 0x1F NOT DUP3 AND PUSH32 0xBB7B4A454DC3493923482F07822329ED19E8244EFF582CC204F8554C3620C3FD SWAP1 PUSH0 JUMPDEST DUP2 DUP2 LT PUSH2 0x2AD2 JUMPI POP SWAP4 DUP4 PUSH32 0x905D981207A7D0B6C62CC46AB0BE2A076D0298E4A86D0AB79882DBD01AC37378 SWAP6 LT PUSH2 0x2AB9 JUMPI JUMPDEST POP POP PUSH1 0x1 DUP3 DUP2 SHL ADD PUSH1 0xE SSTORE PUSH2 0x2A30 JUMP JUMPDEST DUP3 ADD CALLDATALOAD PUSH0 NOT PUSH1 0x3 DUP6 SWAP1 SHL PUSH1 0xF8 AND SHR NOT AND SWAP1 SSTORE PUSH0 DUP1 PUSH2 0x2AA9 JUMP JUMPDEST DUP4 DUP7 ADD CALLDATALOAD DUP4 SSTORE PUSH1 0x20 SWAP6 DUP7 ADD SWAP6 PUSH1 0x1 SWAP1 SWAP4 ADD SWAP3 ADD PUSH2 0x2A77 JUMP JUMPDEST CALLVALUE PUSH2 0x4BB JUMPI PUSH0 CALLDATASIZE PUSH1 0x3 NOT ADD SLT PUSH2 0x4BB JUMPI PUSH1 0x20 PUSH1 0xFF PUSH1 0x13 SLOAD PUSH1 0xB0 SHR AND PUSH1 0x40 MLOAD SWAP1 ISZERO ISZERO DUP2 MSTORE RETURN JUMPDEST CALLVALUE PUSH2 0x4BB JUMPI PUSH0 CALLDATASIZE PUSH1 0x3 NOT ADD SLT PUSH2 0x4BB JUMPI PUSH1 0x40 MLOAD PUSH0 PUSH1 0x3 SLOAD PUSH2 0x2B2F DUP2 PUSH2 0x33B0 JUMP JUMPDEST DUP1 DUP5 MSTORE SWAP1 PUSH1 0x1 DUP2 AND SWAP1 DUP2 ISZERO PUSH2 0x6C2 JUMPI POP PUSH1 0x1 EQ PUSH2 0x2B56 JUMPI PUSH2 0x514 DUP4 PUSH2 0x658 DUP2 DUP6 SUB DUP3 PUSH2 0xFF8 JUMP JUMPDEST PUSH1 0x3 PUSH0 SWAP1 DUP2 MSTORE PUSH32 0xC2575A0E9E593C00F959F8C92F12DB2869C3395A3B0502D05E2516446F71F85B SWAP4 SWAP3 POP SWAP1 JUMPDEST DUP1 DUP3 LT PUSH2 0x2B9A JUMPI POP SWAP1 SWAP2 POP DUP2 ADD PUSH1 0x20 ADD PUSH2 0x658 PUSH2 0x648 JUMP JUMPDEST SWAP2 SWAP3 PUSH1 0x1 DUP2 PUSH1 0x20 SWAP3 SLOAD DUP4 DUP6 DUP9 ADD ADD MSTORE ADD SWAP2 ADD SWAP1 SWAP3 SWAP2 PUSH2 0x2B82 JUMP JUMPDEST CALLVALUE PUSH2 0x4BB JUMPI PUSH1 0x60 CALLDATASIZE PUSH1 0x3 NOT ADD SLT PUSH2 0x4BB JUMPI PUSH1 0x4 CALLDATALOAD PUSH2 0x2BD1 DUP2 PUSH2 0x752 JUMP JUMPDEST PUSH1 0x44 CALLDATALOAD SWAP1 PUSH1 0x60 SWAP1 PUSH1 0x24 CALLDATALOAD DUP4 DUP2 DUP2 DUP2 LT ISZERO PUSH2 0x1E43 JUMPI PUSH1 0x1 GT PUSH2 0x2D30 JUMPI JUMPDEST PUSH0 SLOAD DUP1 SWAP2 LT ISZERO PUSH2 0x2D28 JUMPI JUMPDEST POP PUSH2 0x2C02 DUP3 PUSH2 0x3CE7 JUMP JUMPDEST SWAP2 DUP5 DUP3 LT ISZERO PUSH2 0x2D20 JUMPI JUMPDEST DUP3 PUSH2 0x2C20 JUMPI JUMPDEST PUSH1 0x40 MLOAD DUP1 PUSH2 0x514 DUP7 DUP3 PUSH2 0x1C7B JUMP JUMPDEST SWAP1 DUP1 SWAP3 SWAP4 POP DUP5 SUB DUP4 DUP2 GT ISZERO PUSH2 0x2D18 JUMPI JUMPDEST POP PUSH1 0x40 MLOAD SWAP1 PUSH1 0x1 DUP5 ADD PUSH1 0x5 SHL DUP3 ADD SWAP4 DUP5 PUSH1 0x40 MSTORE PUSH2 0x2C4C DUP5 PUSH2 0x4392 JUMP JUMPDEST SWAP1 PUSH0 SWAP2 PUSH2 0x2C5F PUSH2 0xC46 PUSH1 0x40 DUP4 ADD MLOAD ISZERO ISZERO SWAP1 JUMP JUMPDEST PUSH2 0x2D06 JUMPI JUMPDEST POP PUSH0 SWAP7 SWAP2 SWAP5 SWAP2 PUSH1 0x1 JUMPDEST ISZERO PUSH2 0x2CD9 JUMPI JUMPDEST PUSH0 SWAP6 PUSH2 0x2C7E DUP5 PUSH2 0x4FDC JUMP JUMPDEST PUSH1 0x40 DUP2 ADD MLOAD ISZERO PUSH2 0x2C9D JUMPI POP POP PUSH1 0x1 PUSH0 SWAP4 JUMPDEST ADD SWAP6 DUP8 PUSH1 0x40 MSTORE SWAP6 SWAP3 SWAP6 PUSH2 0x2C6D JUMP JUMPDEST SWAP4 SWAP1 SWAP4 MLOAD DUP1 PUSH2 0x2CD1 JUMPI JUMPDEST POP DUP5 DUP5 XOR PUSH1 0x60 SHL ISZERO PUSH2 0x2CBC JUMPI JUMPDEST PUSH1 0x1 SWAP1 PUSH2 0x2C8F JUMP JUMPDEST PUSH1 0x1 SWAP1 SWAP9 ADD PUSH1 0x5 DUP2 SWAP1 SHL DUP7 ADD DUP10 SWAP1 MSTORE SWAP8 PUSH2 0x2CB4 JUMP JUMPDEST SWAP4 POP PUSH0 PUSH2 0x2CA7 JUMP JUMPDEST DUP1 DUP4 EQ DUP1 ISZERO PUSH2 0x2CFD JUMPI JUMPDEST ISZERO PUSH2 0x2C73 JUMPI POP POP POP POP SWAP2 POP POP PUSH2 0x514 SWAP2 DUP2 MSTORE PUSH0 DUP1 DUP1 PUSH2 0x2C12 JUMP JUMPDEST POP DUP2 DUP9 EQ PUSH2 0x2CE3 JUMP JUMPDEST MLOAD PUSH1 0x1 PUSH1 0x1 PUSH1 0xA0 SHL SUB AND SWAP2 POP PUSH0 PUSH2 0x2C64 JUMP JUMPDEST SWAP3 POP PUSH0 PUSH2 0x2C30 JUMP JUMPDEST PUSH0 SWAP3 POP PUSH2 0x2C0C JUMP JUMPDEST SWAP4 POP PUSH0 PUSH2 0x2BF8 JUMP JUMPDEST PUSH1 0x1 SWAP2 POP PUSH2 0x2BED JUMP JUMPDEST CALLVALUE PUSH2 0x4BB JUMPI PUSH0 CALLDATASIZE PUSH1 0x3 NOT ADD SLT PUSH2 0x4BB JUMPI PUSH1 0x20 PUSH1 0x15 SLOAD PUSH1 0x40 MLOAD SWAP1 DUP2 MSTORE RETURN JUMPDEST CALLVALUE PUSH2 0x4BB JUMPI PUSH0 CALLDATASIZE PUSH1 0x3 NOT ADD SLT PUSH2 0x4BB JUMPI PUSH1 0x20 PUSH1 0x40 MLOAD PUSH32 0x0 DUP2 MSTORE RETURN JUMPDEST CALLVALUE PUSH2 0x4BB JUMPI PUSH1 0x40 CALLDATASIZE PUSH1 0x3 NOT ADD SLT PUSH2 0x4BB JUMPI PUSH1 0x4 CALLDATALOAD PUSH2 0x2DAD DUP2 PUSH2 0x752 JUMP JUMPDEST PUSH2 0x2DB5 PUSH2 0x8E1 JUMP JUMPDEST SWAP1 PUSH1 0xFF PUSH1 0x13 SLOAD AND PUSH2 0x817 JUMPI CALLER PUSH0 MSTORE PUSH1 0x7 PUSH1 0x20 MSTORE PUSH2 0x2DFA DUP3 PUSH2 0x2DE9 DUP4 PUSH1 0x40 PUSH0 KECCAK256 SWAP1 PUSH1 0x1 DUP1 PUSH1 0xA0 SHL SUB AND PUSH0 MSTORE PUSH1 0x20 MSTORE PUSH1 0x40 PUSH0 KECCAK256 SWAP1 JUMP JUMPDEST SWAP1 PUSH1 0xFF DUP1 NOT DUP4 SLOAD AND SWAP2 ISZERO ISZERO AND OR SWAP1 SSTORE JUMP JUMPDEST PUSH1 0x40 MLOAD SWAP2 ISZERO ISZERO DUP3 MSTORE PUSH1 0x1 PUSH1 0x1 PUSH1 0xA0 SHL SUB AND SWAP1 CALLER SWAP1 PUSH32 0x17307EAB39AB6107E8899845AD3D59BD9653F200F220920489CA2B5937696C31 SWAP1 PUSH1 0x20 SWAP1 LOG3 STOP JUMPDEST CALLVALUE PUSH2 0x4BB JUMPI PUSH1 0x40 CALLDATASIZE PUSH1 0x3 NOT ADD SLT PUSH2 0x4BB JUMPI PUSH0 MLOAD PUSH1 0x20 PUSH2 0x57A4 PUSH0 CODECOPY PUSH0 MLOAD SWAP1 PUSH0 MSTORE PUSH1 0x24 CALLDATALOAD PUSH1 0x4 CALLDATALOAD PUSH2 0x2E63 PUSH2 0x49A2 JUMP JUMPDEST PUSH1 0x40 DUP1 MLOAD SWAP2 DUP3 MSTORE PUSH1 0x20 DUP3 ADD SWAP3 SWAP1 SWAP3 MSTORE SWAP1 DUP2 SWAP1 DUP2 ADD PUSH2 0xE0C JUMP JUMPDEST CALLVALUE PUSH2 0x4BB JUMPI PUSH1 0x20 CALLDATASIZE PUSH1 0x3 NOT ADD SLT PUSH2 0x4BB JUMPI PUSH1 0x4 CALLDATALOAD PUSH2 0x2E99 DUP2 PUSH2 0x752 JUMP JUMPDEST PUSH2 0x2EA1 PUSH2 0x49C9 JUMP JUMPDEST PUSH1 0x9 SLOAD SWAP1 PUSH1 0x1 PUSH1 0x1 PUSH1 0xA0 SHL SUB DUP1 DUP4 AND SWAP1 DUP3 AND DUP1 DUP3 EQ PUSH2 0x2F12 JUMPI PUSH1 0x1 PUSH1 0x1 PUSH1 0xA0 SHL SUB NOT SWAP4 SWAP1 SWAP4 AND SWAP1 SWAP3 OR PUSH1 0x9 SSTORE PUSH1 0x40 DUP1 MLOAD PUSH1 0x1 PUSH1 0x1 PUSH1 0xA0 SHL SUB SWAP4 DUP5 AND DUP2 MSTORE SWAP2 SWAP1 SWAP3 AND PUSH1 0x20 DUP3 ADD MSTORE PUSH32 0xCC5DC080FF977B3C3A211FA63AB74F90F658F5BA9D3236E92C8F59570F442AAC SWAP2 DUP2 SWAP1 DUP2 ADD PUSH2 0xE0C JUMP JUMPDEST PUSH4 0x251DD8CF PUSH1 0xE1 SHL PUSH0 MSTORE PUSH1 0x4 PUSH0 REVERT JUMPDEST CALLVALUE PUSH2 0x4BB JUMPI PUSH0 CALLDATASIZE PUSH1 0x3 NOT ADD SLT PUSH2 0x4BB JUMPI PUSH1 0x10 SLOAD PUSH1 0x40 MLOAD PUSH1 0x1 PUSH1 0x1 PUSH1 0xA0 SHL SUB SWAP1 SWAP2 AND DUP2 MSTORE PUSH1 0x20 SWAP1 RETURN JUMPDEST PUSH1 0x1 PUSH1 0x1 PUSH1 0x40 SHL SUB DUP2 GT PUSH2 0xFD8 JUMPI PUSH1 0x1F ADD PUSH1 0x1F NOT AND PUSH1 0x20 ADD SWAP1 JUMP JUMPDEST SWAP3 SWAP2 SWAP3 PUSH2 0x2F70 DUP3 PUSH2 0x2F49 JUMP JUMPDEST SWAP2 PUSH2 0x2F7E PUSH1 0x40 MLOAD SWAP4 DUP5 PUSH2 0xFF8 JUMP JUMPDEST DUP3 SWAP5 DUP2 DUP5 MSTORE DUP2 DUP4 ADD GT PUSH2 0x4BB JUMPI DUP3 DUP2 PUSH1 0x20 SWAP4 DUP5 PUSH0 SWAP7 ADD CALLDATACOPY ADD ADD MSTORE JUMP JUMPDEST PUSH1 0x80 CALLDATASIZE PUSH1 0x3 NOT ADD SLT PUSH2 0x4BB JUMPI PUSH1 0x4 CALLDATALOAD PUSH2 0x2FB2 DUP2 PUSH2 0x752 JUMP JUMPDEST PUSH1 0x24 CALLDATALOAD SWAP1 PUSH2 0x2FBF DUP3 PUSH2 0x752 JUMP JUMPDEST PUSH1 0x44 CALLDATALOAD PUSH1 0x64 CALLDATALOAD SWAP3 PUSH1 0x1 PUSH1 0x1 PUSH1 0x40 SHL SUB DUP5 GT PUSH2 0x4BB JUMPI CALLDATASIZE PUSH1 0x23 DUP6 ADD SLT ISZERO PUSH2 0x4BB JUMPI PUSH2 0x2FF6 PUSH2 0xA0D SWAP5 CALLDATASIZE SWAP1 PUSH1 0x24 DUP2 PUSH1 0x4 ADD CALLDATALOAD SWAP2 ADD PUSH2 0x2F64 JUMP JUMPDEST SWAP3 PUSH2 0x431D JUMP JUMPDEST CALLVALUE PUSH2 0x4BB JUMPI PUSH1 0x20 CALLDATASIZE PUSH1 0x3 NOT ADD SLT PUSH2 0x4BB JUMPI PUSH1 0x80 PUSH2 0x301A PUSH1 0x4 CALLDATALOAD PUSH2 0x4392 JUMP JUMPDEST PUSH2 0x305D PUSH1 0x40 MLOAD DUP1 SWAP3 PUSH3 0xFFFFFF PUSH1 0x60 DUP1 SWAP3 PUSH1 0x1 DUP1 PUSH1 0xA0 SHL SUB DUP2 MLOAD AND DUP6 MSTORE PUSH1 0x1 PUSH1 0x1 PUSH1 0x40 SHL SUB PUSH1 0x20 DUP3 ADD MLOAD AND PUSH1 0x20 DUP7 ADD MSTORE PUSH1 0x40 DUP2 ADD MLOAD ISZERO ISZERO PUSH1 0x40 DUP7 ADD MSTORE ADD MLOAD AND SWAP2 ADD MSTORE JUMP JUMPDEST RETURN JUMPDEST CALLVALUE PUSH2 0x4BB JUMPI PUSH0 CALLDATASIZE PUSH1 0x3 NOT ADD SLT PUSH2 0x4BB JUMPI PUSH1 0x20 PUSH1 0xF SLOAD PUSH1 0x40 MLOAD SWAP1 DUP2 MSTORE RETURN JUMPDEST CALLVALUE PUSH2 0x4BB JUMPI PUSH1 0x20 CALLDATASIZE PUSH1 0x3 NOT ADD SLT PUSH2 0x4BB JUMPI PUSH1 0x4 CALLDATALOAD PUSH2 0x3099 DUP2 PUSH2 0x490E JUMP JUMPDEST ISZERO PUSH2 0x3121 JUMPI PUSH2 0x658 PUSH2 0x514 SWAP2 PUSH1 0x60 PUSH1 0x40 DUP1 MLOAD PUSH2 0x30B4 DUP2 PUSH2 0xFDD JUMP JUMPDEST PUSH0 DUP2 MSTORE PUSH0 PUSH1 0x20 DUP3 ADD MSTORE ADD MSTORE DUP1 PUSH0 MSTORE PUSH1 0x16 PUSH1 0x20 MSTORE PUSH1 0x40 PUSH0 KECCAK256 PUSH1 0x40 MLOAD SWAP1 PUSH2 0x30D8 DUP3 PUSH2 0xFDD JUMP JUMPDEST PUSH2 0x3117 PUSH2 0x310F PUSH2 0x3100 PUSH1 0x1 DUP5 SLOAD SWAP5 PUSH2 0xFFFF DUP7 AND DUP8 MSTORE PUSH1 0xFF PUSH1 0x20 DUP9 ADD SWAP7 PUSH1 0x10 SHR AND DUP7 MSTORE ADD PUSH2 0x33E8 JUMP JUMPDEST SWAP4 DUP5 PUSH1 0x40 DUP3 ADD MSTORE MLOAD PUSH2 0xFFFF AND SWAP1 JUMP JUMPDEST SWAP2 MLOAD PUSH1 0xFF AND SWAP1 JUMP JUMPDEST SWAP1 PUSH1 0x14 SLOAD SWAP4 PUSH2 0x523C JUMP JUMPDEST PUSH4 0x4A1850BF PUSH1 0xE1 SHL PUSH0 MSTORE PUSH1 0x4 PUSH0 REVERT JUMPDEST CALLVALUE PUSH2 0x4BB JUMPI PUSH2 0x313E CALLDATASIZE PUSH2 0xEFE JUMP JUMPDEST SWAP1 SWAP2 PUSH2 0x3148 PUSH2 0x49A2 JUMP JUMPDEST PUSH2 0x3151 DUP2 PUSH2 0x49DD JUMP JUMPDEST PUSH1 0x1 PUSH1 0x1 PUSH1 0xA0 SHL SUB AND SWAP2 DUP3 EXTCODESIZE ISZERO PUSH2 0x4BB JUMPI PUSH1 0x40 MLOAD PUSH4 0x3F952E65 PUSH1 0xE1 SHL DUP2 MSTORE PUSH1 0x1 PUSH1 0x1 PUSH1 0xA0 SHL SUB SWAP1 SWAP2 AND PUSH1 0x4 DUP3 ADD MSTORE SWAP1 ISZERO ISZERO PUSH1 0x24 DUP3 ADD MSTORE PUSH0 DUP2 PUSH1 0x44 DUP2 ADD PUSH2 0xF91 JUMP JUMPDEST CALLVALUE PUSH2 0x4BB JUMPI PUSH1 0x40 CALLDATASIZE PUSH1 0x3 NOT ADD SLT PUSH2 0x4BB JUMPI PUSH1 0x4 CALLDATALOAD PUSH1 0x24 CALLDATALOAD PUSH1 0x1 PUSH1 0x1 PUSH1 0x40 SHL SUB DUP2 GT PUSH2 0x4BB JUMPI CALLDATASIZE PUSH1 0x23 DUP3 ADD SLT ISZERO PUSH2 0x4BB JUMPI PUSH2 0x31D6 SWAP1 CALLDATASIZE SWAP1 PUSH1 0x24 DUP2 PUSH1 0x4 ADD CALLDATALOAD SWAP2 ADD PUSH2 0x2F64 JUMP JUMPDEST PUSH1 0x1 PUSH1 0x1 PUSH1 0xA0 SHL SUB PUSH2 0x31E7 DUP4 PUSH2 0x4A0E JUMP JUMPDEST AND CALLER SUB PUSH2 0x32AD JUMPI PUSH2 0xFFFF PUSH2 0x320E PUSH2 0x3206 DUP5 PUSH0 MSTORE PUSH1 0x16 PUSH1 0x20 MSTORE PUSH1 0x40 PUSH0 KECCAK256 SWAP1 JUMP JUMPDEST SLOAD PUSH2 0xFFFF AND SWAP1 JUMP JUMPDEST AND PUSH1 0x10 DUP2 LT PUSH2 0x3222 JUMPI JUMPDEST POP PUSH2 0xA0D SWAP2 PUSH2 0x44DC JUMP JUMPDEST PUSH1 0x4 DUP2 EQ SWAP1 DUP2 ISZERO PUSH2 0x32A2 JUMPI JUMPDEST DUP2 ISZERO PUSH2 0x3297 JUMPI JUMPDEST DUP2 ISZERO PUSH2 0x328C JUMPI JUMPDEST DUP2 ISZERO PUSH2 0x3281 JUMPI JUMPDEST DUP2 ISZERO PUSH2 0x3276 JUMPI JUMPDEST DUP2 ISZERO PUSH2 0x326B JUMPI JUMPDEST POP PUSH2 0x325C JUMPI PUSH0 PUSH2 0x3218 JUMP JUMPDEST PUSH4 0x6FC7819 PUSH1 0xE0 SHL PUSH0 MSTORE PUSH1 0x4 PUSH0 REVERT JUMPDEST PUSH1 0xD SWAP2 POP EQ PUSH0 PUSH2 0x3251 JUMP JUMPDEST PUSH1 0xB DUP2 EQ SWAP2 POP PUSH2 0x324A JUMP JUMPDEST PUSH1 0x8 DUP2 EQ SWAP2 POP PUSH2 0x3243 JUMP JUMPDEST PUSH1 0x7 DUP2 EQ SWAP2 POP PUSH2 0x323C JUMP JUMPDEST PUSH1 0x6 DUP2 EQ SWAP2 POP PUSH2 0x3235 JUMP JUMPDEST PUSH1 0x5 DUP2 EQ SWAP2 POP PUSH2 0x322E JUMP JUMPDEST PUSH4 0x4143FBF9 PUSH1 0xE0 SHL PUSH0 MSTORE PUSH1 0x4 PUSH0 REVERT JUMPDEST CALLVALUE PUSH2 0x4BB JUMPI PUSH0 CALLDATASIZE PUSH1 0x3 NOT ADD SLT PUSH2 0x4BB JUMPI PUSH1 0x20 PUSH1 0xC SLOAD PUSH1 0x40 MLOAD SWAP1 DUP2 MSTORE RETURN JUMPDEST CALLVALUE PUSH2 0x4BB JUMPI PUSH1 0x40 CALLDATASIZE PUSH1 0x3 NOT ADD SLT PUSH2 0x4BB JUMPI PUSH1 0x4 CALLDATALOAD PUSH1 0x24 CALLDATALOAD PUSH1 0x1 PUSH1 0x1 PUSH1 0xA0 SHL SUB PUSH2 0x3301 DUP4 PUSH2 0x4A0E JUMP JUMPDEST AND CALLER SUB PUSH2 0x32AD JUMPI PUSH2 0xFFFF PUSH2 0x3320 PUSH2 0x3206 DUP5 PUSH0 MSTORE PUSH1 0x16 PUSH1 0x20 MSTORE PUSH1 0x40 PUSH0 KECCAK256 SWAP1 JUMP JUMPDEST AND PUSH1 0x10 DUP2 LT PUSH2 0x3334 JUMPI JUMPDEST POP PUSH2 0xA0D SWAP2 PUSH2 0x46EF JUMP JUMPDEST PUSH1 0x4 DUP2 EQ SWAP1 DUP2 ISZERO PUSH2 0x33A5 JUMPI JUMPDEST DUP2 ISZERO PUSH2 0x339A JUMPI JUMPDEST DUP2 ISZERO PUSH2 0x338F JUMPI JUMPDEST DUP2 ISZERO PUSH2 0x3384 JUMPI JUMPDEST DUP2 ISZERO PUSH2 0x3379 JUMPI JUMPDEST DUP2 ISZERO PUSH2 0x336E JUMPI JUMPDEST POP PUSH2 0x325C JUMPI PUSH0 PUSH2 0x332A JUMP JUMPDEST PUSH1 0xD SWAP2 POP EQ PUSH0 PUSH2 0x3363 JUMP JUMPDEST PUSH1 0xB DUP2 EQ SWAP2 POP PUSH2 0x335C JUMP JUMPDEST PUSH1 0x8 DUP2 EQ SWAP2 POP PUSH2 0x3355 JUMP JUMPDEST PUSH1 0x7 DUP2 EQ SWAP2 POP PUSH2 0x334E JUMP JUMPDEST PUSH1 0x6 DUP2 EQ SWAP2 POP PUSH2 0x3347 JUMP JUMPDEST PUSH1 0x5 DUP2 EQ SWAP2 POP PUSH2 0x3340 JUMP JUMPDEST SWAP1 PUSH1 0x1 DUP3 DUP2 SHR SWAP3 AND DUP1 ISZERO PUSH2 0x33DE JUMPI JUMPDEST PUSH1 0x20 DUP4 LT EQ PUSH2 0x33CA JUMPI JUMP JUMPDEST PUSH4 0x4E487B71 PUSH1 0xE0 SHL PUSH0 MSTORE PUSH1 0x22 PUSH1 0x4 MSTORE PUSH1 0x24 PUSH0 REVERT JUMPDEST SWAP2 PUSH1 0x7F AND SWAP2 PUSH2 0x33BF JUMP JUMPDEST SWAP1 PUSH1 0x40 MLOAD SWAP2 DUP3 PUSH0 DUP3 SLOAD SWAP3 PUSH2 0x33FB DUP5 PUSH2 0x33B0 JUMP JUMPDEST DUP1 DUP5 MSTORE SWAP4 PUSH1 0x1 DUP2 AND SWAP1 DUP2 ISZERO PUSH2 0x3464 JUMPI POP PUSH1 0x1 EQ PUSH2 0x3420 JUMPI JUMPDEST POP PUSH2 0x1028 SWAP3 POP SUB DUP4 PUSH2 0xFF8 JUMP JUMPDEST SWAP1 POP PUSH0 SWAP3 SWAP2 SWAP3 MSTORE PUSH1 0x20 PUSH0 KECCAK256 SWAP1 PUSH0 SWAP2 JUMPDEST DUP2 DUP4 LT PUSH2 0x3448 JUMPI POP POP SWAP1 PUSH1 0x20 PUSH2 0x1028 SWAP3 DUP3 ADD ADD PUSH0 PUSH2 0x3413 JUMP JUMPDEST PUSH1 0x20 SWAP2 SWAP4 POP DUP1 PUSH1 0x1 SWAP2 SLOAD DUP4 DUP6 DUP10 ADD ADD MSTORE ADD SWAP2 ADD SWAP1 SWAP2 DUP5 SWAP3 PUSH2 0x342F JUMP JUMPDEST SWAP1 POP PUSH1 0x20 SWAP3 POP PUSH2 0x1028 SWAP5 SWAP2 POP PUSH1 0xFF NOT AND DUP3 DUP5 ADD MSTORE ISZERO ISZERO PUSH1 0x5 SHL DUP3 ADD ADD PUSH0 PUSH2 0x3413 JUMP JUMPDEST CALLVALUE PUSH2 0x4BB JUMPI PUSH1 0x20 CALLDATASIZE PUSH1 0x3 NOT ADD SLT PUSH2 0x4BB JUMPI PUSH1 0x4 CALLDATALOAD PUSH0 MSTORE PUSH1 0x16 PUSH1 0x20 MSTORE PUSH1 0xFF PUSH1 0x40 PUSH0 KECCAK256 PUSH2 0x514 PUSH2 0x34B8 PUSH1 0x1 DUP4 SLOAD SWAP4 ADD PUSH2 0x33E8 JUMP JUMPDEST PUSH1 0x40 MLOAD SWAP4 DUP4 PUSH2 0xFFFF DUP7 SWAP6 AND DUP6 MSTORE PUSH1 0x10 SHR AND PUSH1 0x20 DUP5 ADD MSTORE PUSH1 0x60 PUSH1 0x40 DUP5 ADD MSTORE PUSH1 0x60 DUP4 ADD SWAP1 PUSH2 0x5D8 JUMP JUMPDEST CALLVALUE PUSH2 0x4BB JUMPI PUSH0 CALLDATASIZE PUSH1 0x3 NOT ADD SLT PUSH2 0x4BB JUMPI PUSH1 0x40 MLOAD PUSH0 PUSH1 0xE SLOAD PUSH2 0x34FF DUP2 PUSH2 0x33B0 JUMP JUMPDEST DUP1 DUP5 MSTORE SWAP1 PUSH1 0x1 DUP2 AND SWAP1 DUP2 ISZERO PUSH2 0x6C2 JUMPI POP PUSH1 0x1 EQ PUSH2 0x3526 JUMPI PUSH2 0x514 DUP4 PUSH2 0x658 DUP2 DUP6 SUB DUP3 PUSH2 0xFF8 JUMP JUMPDEST PUSH1 0xE PUSH0 SWAP1 DUP2 MSTORE PUSH32 0xBB7B4A454DC3493923482F07822329ED19E8244EFF582CC204F8554C3620C3FD SWAP4 SWAP3 POP SWAP1 JUMPDEST DUP1 DUP3 LT PUSH2 0x356A JUMPI POP SWAP1 SWAP2 POP DUP2 ADD PUSH1 0x20 ADD PUSH2 0x658 PUSH2 0x648 JUMP JUMPDEST SWAP2 SWAP3 PUSH1 0x1 DUP2 PUSH1 0x20 SWAP3 SLOAD DUP4 DUP6 DUP9 ADD ADD MSTORE ADD SWAP2 ADD SWAP1 SWAP3 SWAP2 PUSH2 0x3552 JUMP JUMPDEST CALLVALUE PUSH2 0x4BB JUMPI PUSH1 0x20 PUSH2 0x359D PUSH2 0x3597 CALLDATASIZE PUSH2 0x16EF JUMP JUMPDEST SWAP1 PUSH2 0x4776 JUMP JUMPDEST PUSH1 0x40 MLOAD SWAP1 ISZERO ISZERO DUP2 MSTORE RETURN JUMPDEST CALLVALUE PUSH2 0x4BB JUMPI PUSH1 0x20 CALLDATASIZE PUSH1 0x3 NOT ADD SLT PUSH2 0x4BB JUMPI PUSH1 0x4 CALLDATALOAD PUSH2 0x35C4 DUP2 PUSH2 0x752 JUMP JUMPDEST PUSH2 0x35CC PUSH2 0x49C9 JUMP JUMPDEST PUSH1 0x1 PUSH1 0x1 PUSH1 0xA0 SHL SUB AND DUP1 ISZERO PUSH2 0x361C JUMPI PUSH1 0x20 DUP2 PUSH32 0x11A3CF439FB225BFE74225716B6774765670EC1060E3796802E62139D69974DA SWAP3 PUSH1 0x1 PUSH1 0x1 PUSH1 0x60 SHL SUB PUSH1 0xA0 SHL PUSH1 0xB SLOAD AND OR PUSH1 0xB SSTORE PUSH1 0x40 MLOAD SWAP1 DUP2 MSTORE LOG1 STOP JUMPDEST PUSH4 0x3A247DD7 PUSH1 0xE1 SHL PUSH0 MSTORE PUSH1 0x4 PUSH0 REVERT JUMPDEST CALLVALUE PUSH2 0x4BB JUMPI PUSH0 CALLDATASIZE PUSH1 0x3 NOT ADD SLT PUSH2 0x4BB JUMPI PUSH1 0x20 PUSH1 0x40 MLOAD PUSH32 0x0 DUP2 MSTORE RETURN JUMPDEST CALLVALUE PUSH2 0x4BB JUMPI PUSH1 0x20 CALLDATASIZE PUSH1 0x3 NOT ADD SLT PUSH2 0x4BB JUMPI PUSH1 0x4 CALLDATALOAD PUSH1 0x1 PUSH1 0x1 PUSH1 0xA0 SHL SUB PUSH2 0x368A DUP3 PUSH2 0x4A0E JUMP JUMPDEST AND CALLER SUB PUSH2 0x32AD JUMPI PUSH2 0xFFFF PUSH2 0x36A9 PUSH2 0x3206 DUP4 PUSH0 MSTORE PUSH1 0x16 PUSH1 0x20 MSTORE PUSH1 0x40 PUSH0 KECCAK256 SWAP1 JUMP JUMPDEST AND PUSH1 0x10 DUP2 LT PUSH2 0x36BC JUMPI JUMPDEST PUSH2 0xA0D DUP3 PUSH2 0x4809 JUMP JUMPDEST PUSH1 0x4 DUP2 EQ SWAP1 DUP2 ISZERO PUSH2 0x372D JUMPI JUMPDEST DUP2 ISZERO PUSH2 0x3722 JUMPI JUMPDEST DUP2 ISZERO PUSH2 0x3717 JUMPI JUMPDEST DUP2 ISZERO PUSH2 0x370C JUMPI JUMPDEST DUP2 ISZERO PUSH2 0x3701 JUMPI JUMPDEST DUP2 ISZERO PUSH2 0x36F6 JUMPI JUMPDEST POP PUSH2 0x325C JUMPI PUSH0 PUSH2 0x36B3 JUMP JUMPDEST PUSH1 0xD SWAP2 POP EQ PUSH0 PUSH2 0x36EB JUMP JUMPDEST PUSH1 0xB DUP2 EQ SWAP2 POP PUSH2 0x36E4 JUMP JUMPDEST PUSH1 0x8 DUP2 EQ SWAP2 POP PUSH2 0x36DD JUMP JUMPDEST PUSH1 0x7 DUP2 EQ SWAP2 POP PUSH2 0x36D6 JUMP JUMPDEST PUSH1 0x6 DUP2 EQ SWAP2 POP PUSH2 0x36CF JUMP JUMPDEST PUSH1 0x5 DUP2 EQ SWAP2 POP PUSH2 0x36C8 JUMP JUMPDEST CALLVALUE PUSH2 0x4BB JUMPI PUSH0 CALLDATASIZE PUSH1 0x3 NOT ADD SLT PUSH2 0x4BB JUMPI PUSH1 0x20 PUSH1 0x40 MLOAD PUSH1 0x1 DUP2 MSTORE RETURN JUMPDEST PUSH6 0xFFFFFFFFFFFF DUP2 AND SUB PUSH2 0x4BB JUMPI JUMP JUMPDEST CALLDATALOAD SWAP1 PUSH2 0x1028 DUP3 PUSH2 0x3753 JUMP JUMPDEST PUSH1 0x24 CALLDATALOAD SWAP1 PUSH1 0x1 PUSH1 0x1 PUSH1 0x50 SHL SUB DUP3 AND DUP3 SUB PUSH2 0x4BB JUMPI PUSH1 0x1 PUSH1 0x1 PUSH1 0x50 SHL SUB PUSH2 0x1028 SWAP3 AND DUP2 MSTORE PUSH6 0xFFFFFFFFFFFF PUSH1 0x44 CALLDATALOAD PUSH2 0x37A4 DUP2 PUSH2 0x3753 JUMP JUMPDEST AND PUSH1 0x20 DUP3 ADD MSTORE PUSH6 0xFFFFFFFFFFFF PUSH1 0x64 CALLDATALOAD PUSH2 0x37BD DUP2 PUSH2 0x3753 JUMP JUMPDEST AND PUSH1 0x40 DUP3 ADD MSTORE PUSH2 0xFFFF PUSH2 0x37D0 PUSH1 0x84 PUSH2 0x10E7 JUMP JUMPDEST AND PUSH1 0x60 DUP3 ADD MSTORE PUSH2 0xFFFF PUSH2 0x37E3 PUSH1 0xA4 PUSH2 0x10E7 JUMP JUMPDEST AND PUSH1 0x80 DUP3 ADD MSTORE PUSH1 0xA0 PUSH2 0x37F5 PUSH1 0xC4 PUSH2 0x8F0 JUMP JUMPDEST ISZERO ISZERO SWAP2 ADD MSTORE JUMP JUMPDEST PUSH1 0x40 MLOAD RETURNDATASIZE PUSH0 DUP3 RETURNDATACOPY RETURNDATASIZE SWAP1 REVERT JUMPDEST SWAP2 SWAP1 PUSH2 0x3812 DUP3 PUSH2 0x4A0E JUMP JUMPDEST PUSH1 0x1 PUSH1 0x1 PUSH1 0xA0 SHL SUB DUP5 DUP2 AND SWAP5 SWAP1 DUP3 AND DUP6 SWAP1 SUB PUSH2 0x3971 JUMPI PUSH0 DUP5 DUP2 MSTORE PUSH1 0x6 PUSH1 0x20 MSTORE PUSH1 0x40 SWAP1 KECCAK256 DUP1 SLOAD SWAP2 SWAP1 CALLER DUP1 DUP5 EQ SWAP1 DUP9 EQ OR ISZERO PUSH2 0x395A JUMPI JUMPDEST PUSH2 0x3875 SWAP3 PUSH2 0x3856 DUP8 DUP8 DUP6 PUSH2 0x4B29 JUMP JUMPDEST PUSH2 0x3951 JUMPI JUMPDEST POP PUSH1 0x1 PUSH1 0x1 PUSH1 0xA0 SHL SUB AND PUSH0 SWAP1 DUP2 MSTORE PUSH1 0x5 PUSH1 0x20 MSTORE PUSH1 0x40 SWAP1 KECCAK256 SWAP1 JUMP JUMPDEST DUP1 SLOAD PUSH0 NOT ADD SWAP1 SSTORE PUSH1 0x1 PUSH1 0x1 PUSH1 0xA0 SHL SUB DUP3 AND PUSH0 SWAP1 DUP2 MSTORE PUSH1 0x5 PUSH1 0x20 MSTORE PUSH1 0x40 SWAP1 KECCAK256 DUP1 SLOAD PUSH1 0x1 ADD SWAP1 SSTORE PUSH1 0x1 PUSH1 0x1 PUSH1 0xA0 SHL SUB DUP3 AND TIMESTAMP PUSH1 0xA0 SHL OR PUSH1 0x1 PUSH1 0xE1 SHL OR PUSH2 0x38C1 DUP5 PUSH0 MSTORE PUSH1 0x4 PUSH1 0x20 MSTORE PUSH1 0x40 PUSH0 KECCAK256 SWAP1 JUMP JUMPDEST SSTORE PUSH1 0x1 PUSH1 0xE1 SHL DUP2 AND ISZERO PUSH2 0x390C JUMPI JUMPDEST POP PUSH1 0x1 PUSH1 0x1 PUSH1 0xA0 SHL SUB AND SWAP2 DUP3 SWAP1 PUSH32 0xDDF252AD1BE2C89B69C2B068FC378DAA952BA7F163C4A11628F55A4DF523B3EF PUSH0 DUP1 LOG4 ISZERO PUSH2 0x3907 JUMPI JUMP JUMPDEST PUSH2 0x4976 JUMP JUMPDEST PUSH1 0x1 DUP4 ADD PUSH2 0x3922 DUP2 PUSH0 MSTORE PUSH1 0x4 PUSH1 0x20 MSTORE PUSH1 0x40 PUSH0 KECCAK256 SWAP1 JUMP JUMPDEST SLOAD ISZERO PUSH2 0x392F JUMPI JUMPDEST POP PUSH2 0x38CF JUMP JUMPDEST PUSH0 SLOAD DUP2 EQ PUSH2 0x3929 JUMPI PUSH2 0x3949 SWAP1 PUSH0 MSTORE PUSH1 0x4 PUSH1 0x20 MSTORE PUSH1 0x40 PUSH0 KECCAK256 SWAP1 JUMP JUMPDEST SSTORE PUSH0 DUP1 PUSH2 0x3929 JUMP JUMPDEST PUSH0 SWAP1 SSTORE PUSH0 PUSH2 0x385B JUMP JUMPDEST PUSH2 0x3967 PUSH2 0xC46 CALLER DUP5 PUSH2 0x4776 JUMP JUMPDEST ISZERO PUSH2 0x3847 JUMPI PUSH2 0x4959 JUMP JUMPDEST PUSH2 0x4968 JUMP JUMPDEST PUSH4 0x4E487B71 PUSH1 0xE0 SHL PUSH0 MSTORE PUSH1 0x11 PUSH1 0x4 MSTORE PUSH1 0x24 PUSH0 REVERT JUMPDEST SWAP1 DUP1 PUSH1 0x20 SWAP4 SWAP3 DUP2 DUP5 MSTORE DUP5 DUP5 ADD CALLDATACOPY PUSH0 DUP3 DUP3 ADD DUP5 ADD MSTORE PUSH1 0x1F ADD PUSH1 0x1F NOT AND ADD ADD SWAP1 JUMP JUMPDEST SWAP1 CALLDATALOAD PUSH1 0x1E NOT DUP3 CALLDATASIZE SUB ADD DUP2 SLT ISZERO PUSH2 0x4BB JUMPI ADD PUSH1 0x20 DUP2 CALLDATALOAD SWAP2 ADD SWAP2 PUSH1 0x1 PUSH1 0x1 PUSH1 0x40 SHL SUB DUP3 GT PUSH2 0x4BB JUMPI DUP2 CALLDATASIZE SUB DUP4 SGT PUSH2 0x4BB JUMPI JUMP JUMPDEST SWAP2 SWAP1 PUSH1 0x60 DUP2 ADD SWAP1 DUP4 CALLDATALOAD DUP2 MSTORE PUSH1 0x20 DUP5 ADD CALLDATALOAD PUSH1 0x1E NOT DUP6 CALLDATASIZE SUB ADD DUP2 SLT ISZERO PUSH2 0x4BB JUMPI DUP5 ADD SWAP4 PUSH1 0x20 DUP6 CALLDATALOAD SWAP6 ADD SWAP5 PUSH1 0x1 PUSH1 0x1 PUSH1 0x40 SHL SUB DUP2 GT PUSH2 0x4BB JUMPI DUP1 PUSH1 0x5 SHL SWAP4 DUP5 CALLDATASIZE SUB DUP8 SGT PUSH2 0x4BB JUMPI PUSH1 0x60 PUSH1 0x20 DUP6 ADD MSTORE DUP2 SWAP1 MSTORE SWAP3 DUP3 ADD PUSH1 0x80 SWAP1 DUP2 ADD SWAP4 DUP7 SWAP2 PUSH0 SWAP1 DUP6 ADD JUMPDEST DUP3 DUP3 LT PUSH2 0x3A66 JUMPI POP POP POP POP PUSH2 0x60D SWAP4 SWAP5 POP DUP1 PUSH1 0x40 PUSH2 0x3A58 SWAP3 ADD SWAP1 PUSH2 0x39AA JUMP JUMPDEST SWAP2 PUSH1 0x40 DUP2 DUP6 SUB SWAP2 ADD MSTORE PUSH2 0x398A JUMP JUMPDEST SWAP1 SWAP2 SWAP3 SWAP6 PUSH1 0x20 DUP1 PUSH2 0x3A8C PUSH1 0x1 SWAP4 PUSH2 0x3A86 DUP12 DUP15 PUSH1 0x7F NOT DUP14 DUP6 SUB ADD DUP10 MSTORE PUSH2 0x39AA JUMP JUMPDEST SWAP1 PUSH2 0x398A JUMP JUMPDEST SWAP9 ADD SWAP3 ADD SWAP3 ADD SWAP1 SWAP3 SWAP2 PUSH2 0x3A39 JUMP JUMPDEST PUSH1 0x4 CALLDATALOAD PUSH2 0x60D DUP2 PUSH2 0x752 JUMP JUMPDEST CALLDATALOAD PUSH2 0x60D DUP2 PUSH2 0x752 JUMP JUMPDEST PUSH1 0x24 CALLDATALOAD PUSH1 0x1 PUSH1 0x1 PUSH1 0x60 SHL SUB DUP2 AND DUP2 SUB PUSH2 0x4BB JUMPI SWAP1 JUMP JUMPDEST PUSH1 0x4 CALLDATALOAD PUSH2 0x3AD2 DUP2 PUSH2 0x752 JUMP JUMPDEST PUSH1 0x1 DUP1 PUSH1 0xA0 SHL SUB AND PUSH1 0x1 PUSH1 0x1 PUSH1 0x60 SHL SUB PUSH1 0xA0 SHL PUSH1 0x10 SLOAD AND OR PUSH1 0x10 SSTORE PUSH1 0x24 CALLDATALOAD PUSH1 0x1 PUSH1 0x1 PUSH1 0x60 SHL SUB DUP2 AND DUP2 SUB PUSH2 0x4BB JUMPI PUSH1 0x10 DUP1 SLOAD PUSH1 0x1 PUSH1 0x1 PUSH1 0xA0 SHL SUB AND PUSH1 0xA0 SWAP3 SWAP1 SWAP3 SHL PUSH1 0x1 PUSH1 0x1 PUSH1 0xA0 SHL SUB NOT AND SWAP2 SWAP1 SWAP2 OR SWAP1 SSTORE JUMP JUMPDEST PUSH0 NOT DUP2 ADD SWAP2 SWAP1 DUP3 GT PUSH2 0xB17 JUMPI JUMP JUMPDEST SWAP1 PUSH1 0xC0 DUP1 PUSH2 0x1028 SWAP4 PUSH1 0x1 PUSH1 0x1 PUSH1 0x50 SHL SUB DUP2 MLOAD AND DUP5 MSTORE PUSH3 0xFFFFFF PUSH1 0x20 DUP3 ADD MLOAD AND PUSH1 0x20 DUP6 ADD MSTORE PUSH5 0xFFFFFFFFFF PUSH1 0x40 DUP3 ADD MLOAD AND PUSH1 0x40 DUP6 ADD MSTORE PUSH5 0xFFFFFFFFFF PUSH1 0x60 DUP3 ADD MLOAD AND PUSH1 0x60 DUP6 ADD MSTORE PUSH5 0xFFFFFFFFFF PUSH1 0x80 DUP3 ADD MLOAD AND PUSH1 0x80 DUP6 ADD MSTORE PUSH2 0x3B9F PUSH1 0xA0 DUP3 ADD MLOAD PUSH1 0xA0 DUP7 ADD SWAP1 PUSH2 0xFFFF AND SWAP1 MSTORE JUMP JUMPDEST ADD MLOAD PUSH2 0xFFFF AND SWAP2 ADD MSTORE JUMP JUMPDEST PUSH2 0x3BB2 PUSH2 0x49A2 JUMP JUMPDEST PUSH2 0x3BBB DUP2 PUSH2 0x49DD JUMP JUMPDEST PUSH1 0x1 PUSH1 0x1 PUSH1 0xA0 SHL SUB AND SWAP2 DUP3 EXTCODESIZE ISZERO PUSH2 0x4BB JUMPI PUSH1 0x40 MLOAD PUSH4 0x9A7002F PUSH1 0xE3 SHL DUP2 MSTORE PUSH1 0x1 PUSH1 0x1 PUSH1 0xA0 SHL SUB SWAP1 SWAP3 AND PUSH1 0x4 DUP4 ADD MSTORE SWAP1 SWAP2 PUSH0 SWAP2 DUP4 SWAP2 PUSH2 0x104 SWAP2 DUP4 SWAP2 DUP6 SWAP2 PUSH2 0x3C05 SWAP1 PUSH1 0x24 DUP6 ADD SWAP1 PUSH2 0x3B33 JUMP JUMPDEST GAS CALL DUP1 ISZERO PUSH2 0xA0F JUMPI PUSH2 0x3C14 JUMPI POP JUMP JUMPDEST PUSH0 PUSH2 0x1028 SWAP2 PUSH2 0xFF8 JUMP JUMPDEST DUP2 DUP2 LT PUSH2 0x3C29 JUMPI POP POP JUMP JUMPDEST PUSH0 DUP2 SSTORE PUSH1 0x1 ADD PUSH2 0x3C1E JUMP JUMPDEST SWAP1 PUSH1 0x1F DUP3 GT PUSH2 0x3C41 JUMPI POP POP JUMP JUMPDEST PUSH2 0x1028 SWAP2 PUSH1 0xD PUSH0 MSTORE PUSH1 0x20 PUSH0 KECCAK256 SWAP1 PUSH1 0x20 PUSH1 0x1F DUP5 ADD PUSH1 0x5 SHR DUP4 ADD SWAP4 LT PUSH2 0x3C6D JUMPI JUMPDEST PUSH1 0x1F ADD PUSH1 0x5 SHR ADD SWAP1 PUSH2 0x3C1E JUMP JUMPDEST SWAP1 SWAP2 POP DUP2 SWAP1 PUSH2 0x3C60 JUMP JUMPDEST SWAP1 PUSH1 0x1F DUP3 GT PUSH2 0x3C84 JUMPI POP POP JUMP JUMPDEST PUSH2 0x1028 SWAP2 PUSH1 0xE PUSH0 MSTORE PUSH1 0x20 PUSH0 KECCAK256 SWAP1 PUSH1 0x20 PUSH1 0x1F DUP5 ADD PUSH1 0x5 SHR DUP4 ADD SWAP4 LT PUSH2 0x3C6D JUMPI PUSH1 0x1F ADD PUSH1 0x5 SHR ADD SWAP1 PUSH2 0x3C1E JUMP JUMPDEST SWAP2 SWAP1 PUSH1 0x1F DUP2 GT PUSH2 0x3CBE JUMPI POP POP POP JUMP JUMPDEST PUSH2 0x1028 SWAP3 PUSH0 MSTORE PUSH1 0x20 PUSH0 KECCAK256 SWAP1 PUSH1 0x20 PUSH1 0x1F DUP5 ADD PUSH1 0x5 SHR DUP4 ADD SWAP4 LT PUSH2 0x3C6D JUMPI PUSH1 0x1F ADD PUSH1 0x5 SHR ADD SWAP1 PUSH2 0x3C1E JUMP JUMPDEST PUSH1 0x1 PUSH1 0x1 PUSH1 0xA0 SHL SUB AND DUP1 ISZERO PUSH2 0x3D0E JUMPI PUSH0 MSTORE PUSH1 0x5 PUSH1 0x20 MSTORE PUSH1 0x1 PUSH1 0x1 PUSH1 0x40 SHL SUB PUSH1 0x40 PUSH0 KECCAK256 SLOAD AND SWAP1 JUMP JUMPDEST PUSH4 0x23D3AD81 PUSH1 0xE2 SHL PUSH0 MSTORE PUSH1 0x4 PUSH0 REVERT JUMPDEST SWAP2 PUSH1 0x20 PUSH2 0x60D SWAP4 DUP2 DUP2 MSTORE ADD SWAP2 PUSH2 0x398A JUMP JUMPDEST CALLDATALOAD SWAP1 PUSH1 0xFF DUP3 AND DUP3 SUB PUSH2 0x4BB JUMPI JUMP JUMPDEST CALLDATALOAD SWAP1 PUSH4 0xFFFFFFFF DUP3 AND DUP3 SUB PUSH2 0x4BB JUMPI JUMP JUMPDEST PUSH1 0x44 CALLDATALOAD SWAP1 PUSH1 0x1 PUSH1 0x1 PUSH1 0x50 SHL SUB DUP3 AND DUP3 SUB PUSH2 0x4BB JUMPI PUSH1 0x1 PUSH1 0x1 PUSH1 0x50 SHL SUB PUSH2 0x1028 SWAP3 AND DUP2 MSTORE PUSH2 0xFFFF PUSH2 0x3D7D PUSH1 0x64 PUSH2 0x10E7 JUMP JUMPDEST AND PUSH1 0x20 DUP3 ADD MSTORE PUSH6 0xFFFFFFFFFFFF PUSH1 0x84 CALLDATALOAD PUSH2 0x3D96 DUP2 PUSH2 0x3753 JUMP JUMPDEST AND PUSH1 0x40 DUP3 ADD MSTORE PUSH2 0x3DB8 PUSH2 0x3DA9 PUSH1 0xA4 PUSH2 0x3763 JUMP JUMPDEST PUSH6 0xFFFFFFFFFFFF AND PUSH1 0x60 DUP4 ADD MSTORE JUMP JUMPDEST PUSH2 0x3DCF PUSH2 0x3DC5 PUSH1 0xC4 PUSH2 0x3D2E JUMP JUMPDEST PUSH1 0xFF AND PUSH1 0x80 DUP4 ADD MSTORE JUMP JUMPDEST PUSH2 0x3DE9 PUSH2 0x3DDC PUSH1 0xE4 PUSH2 0x3D3C JUMP JUMPDEST PUSH4 0xFFFFFFFF AND PUSH1 0xA0 DUP4 ADD MSTORE JUMP JUMPDEST PUSH2 0x3E02 PUSH2 0x3DF7 PUSH2 0x104 PUSH2 0x10E7 JUMP JUMPDEST PUSH2 0xFFFF AND PUSH1 0xC0 DUP4 ADD MSTORE JUMP JUMPDEST PUSH1 0xE0 PUSH2 0x37F5 PUSH2 0x124 PUSH2 0x8F0 JUMP JUMPDEST SWAP1 CALLDATALOAD SWAP1 PUSH1 0x1E NOT DUP2 CALLDATASIZE SUB ADD DUP3 SLT ISZERO PUSH2 0x4BB JUMPI ADD DUP1 CALLDATALOAD SWAP1 PUSH1 0x1 PUSH1 0x1 PUSH1 0x40 SHL SUB DUP3 GT PUSH2 0x4BB JUMPI PUSH1 0x20 ADD SWAP2 DUP2 CALLDATASIZE SUB DUP4 SGT PUSH2 0x4BB JUMPI JUMP JUMPDEST CALLDATALOAD PUSH2 0x60D DUP2 PUSH2 0x3753 JUMP JUMPDEST PUSH1 0xC0 PUSH2 0x37F5 PUSH1 0xA0 PUSH2 0x1028 SWAP5 SWAP7 SWAP6 PUSH1 0xE0 DUP6 ADD SWAP8 PUSH1 0x1 DUP1 DUP5 SHL SUB AND DUP6 MSTORE PUSH1 0x1 PUSH1 0x1 PUSH1 0x50 SHL SUB PUSH2 0x3E77 DUP3 PUSH2 0x1040 JUMP JUMPDEST AND PUSH1 0x20 DUP7 ADD MSTORE PUSH6 0xFFFFFFFFFFFF PUSH1 0x20 DUP3 ADD CALLDATALOAD PUSH2 0x3E92 DUP2 PUSH2 0x3753 JUMP JUMPDEST AND PUSH1 0x40 DUP7 ADD MSTORE PUSH6 0xFFFFFFFFFFFF PUSH1 0x40 DUP3 ADD CALLDATALOAD PUSH2 0x3EAD DUP2 PUSH2 0x3753 JUMP JUMPDEST AND PUSH1 0x60 DUP7 ADD MSTORE PUSH2 0xFFFF PUSH2 0x3EC2 PUSH1 0x60 DUP4 ADD PUSH2 0x10E7 JUMP JUMPDEST AND PUSH1 0x80 DUP7 ADD MSTORE PUSH2 0xFFFF PUSH2 0x3ED7 PUSH1 0x80 DUP4 ADD PUSH2 0x10E7 JUMP JUMPDEST AND DUP3 DUP7 ADD MSTORE ADD PUSH2 0x8F0 JUMP JUMPDEST PUSH1 0x1 PUSH1 0x1 PUSH1 0xA0 SHL SUB SWAP1 SWAP2 AND DUP2 MSTORE PUSH1 0x40 PUSH1 0x20 DUP3 ADD DUP2 SWAP1 MSTORE PUSH2 0x60D SWAP4 SWAP2 ADD SWAP2 PUSH2 0x398A JUMP JUMPDEST SWAP1 CALLDATALOAD SWAP1 PUSH1 0x5E NOT DUP2 CALLDATASIZE SUB ADD DUP3 SLT ISZERO PUSH2 0x4BB JUMPI ADD SWAP1 JUMP JUMPDEST PUSH1 0x1 PUSH1 0x1 PUSH1 0xA0 SHL SUB SWAP1 SWAP2 AND DUP2 MSTORE PUSH1 0x40 PUSH1 0x20 DUP3 ADD DUP2 SWAP1 MSTORE PUSH2 0x60D SWAP3 SWAP2 ADD SWAP1 PUSH2 0x39DB JUMP JUMPDEST SWAP1 CALLDATALOAD SWAP1 PUSH1 0x1E NOT DUP2 CALLDATASIZE SUB ADD DUP3 SLT ISZERO PUSH2 0x4BB JUMPI ADD DUP1 CALLDATALOAD SWAP1 PUSH1 0x1 PUSH1 0x1 PUSH1 0x40 SHL SUB DUP3 GT PUSH2 0x4BB JUMPI PUSH1 0x20 ADD SWAP2 DUP2 PUSH1 0x5 SHL CALLDATASIZE SUB DUP4 SGT PUSH2 0x4BB JUMPI JUMP JUMPDEST PUSH4 0x4E487B71 PUSH1 0xE0 SHL PUSH0 MSTORE PUSH1 0x32 PUSH1 0x4 MSTORE PUSH1 0x24 PUSH0 REVERT JUMPDEST SWAP2 SWAP1 DUP2 LT ISZERO PUSH2 0x15FF JUMPI PUSH1 0x5 SHL ADD SWAP1 JUMP JUMPDEST SWAP1 CALLDATALOAD SWAP1 PUSH1 0x1E NOT DUP2 CALLDATASIZE SUB ADD DUP3 SLT ISZERO PUSH2 0x4BB JUMPI ADD DUP1 CALLDATALOAD SWAP1 PUSH1 0x1 PUSH1 0x1 PUSH1 0x40 SHL SUB DUP3 GT PUSH2 0x4BB JUMPI PUSH1 0x20 ADD SWAP2 DUP2 PUSH1 0x8 SHL CALLDATASIZE SUB DUP4 SGT PUSH2 0x4BB JUMPI JUMP JUMPDEST SWAP2 SWAP1 DUP2 LT ISZERO PUSH2 0x15FF JUMPI PUSH1 0x8 SHL ADD SWAP1 JUMP JUMPDEST PUSH1 0x1 PUSH1 0x1 PUSH1 0xA0 SHL SUB SWAP2 DUP3 AND DUP2 MSTORE SWAP2 AND PUSH1 0x20 DUP3 ADD MSTORE PUSH2 0x140 DUP2 ADD SWAP3 SWAP2 PUSH2 0x1028 SWAP2 SWAP1 PUSH2 0x120 SWAP1 PUSH2 0x37F5 SWAP1 PUSH1 0xE0 SWAP1 PUSH1 0x1 PUSH1 0x1 PUSH1 0x50 SHL SUB PUSH2 0x4015 DUP3 PUSH2 0x1040 JUMP JUMPDEST AND PUSH1 0x40 DUP7 ADD MSTORE PUSH2 0xFFFF PUSH2 0x402A PUSH1 0x20 DUP4 ADD PUSH2 0x10E7 JUMP JUMPDEST AND PUSH1 0x60 DUP7 ADD MSTORE PUSH6 0xFFFFFFFFFFFF PUSH1 0x40 DUP3 ADD CALLDATALOAD PUSH2 0x4045 DUP2 PUSH2 0x3753 JUMP JUMPDEST AND PUSH1 0x80 DUP7 ADD MSTORE PUSH2 0x4069 PUSH2 0x405A PUSH1 0x60 DUP4 ADD PUSH2 0x3763 JUMP JUMPDEST PUSH6 0xFFFFFFFFFFFF AND PUSH1 0xA0 DUP8 ADD MSTORE JUMP JUMPDEST PUSH2 0x4082 PUSH2 0x4078 PUSH1 0x80 DUP4 ADD PUSH2 0x3D2E JUMP JUMPDEST PUSH1 0xFF AND PUSH1 0xC0 DUP8 ADD MSTORE JUMP JUMPDEST PUSH2 0x409D PUSH2 0x4091 PUSH1 0xA0 DUP4 ADD PUSH2 0x3D3C JUMP JUMPDEST PUSH4 0xFFFFFFFF AND DUP7 DUP5 ADD MSTORE JUMP JUMPDEST PUSH2 0x40B8 PUSH2 0x40AC PUSH1 0xC0 DUP4 ADD PUSH2 0x10E7 JUMP JUMPDEST PUSH2 0xFFFF AND PUSH2 0x100 DUP8 ADD MSTORE JUMP JUMPDEST ADD PUSH2 0x8F0 JUMP JUMPDEST PUSH1 0x40 MLOAD SWAP1 PUSH2 0x100 DUP3 ADD DUP3 DUP2 LT PUSH1 0x1 PUSH1 0x1 PUSH1 0x40 SHL SUB DUP3 GT OR PUSH2 0xFD8 JUMPI PUSH1 0x40 MSTORE PUSH0 PUSH1 0xE0 DUP4 DUP3 DUP2 MSTORE DUP3 PUSH1 0x20 DUP3 ADD MSTORE DUP3 PUSH1 0x40 DUP3 ADD MSTORE DUP3 PUSH1 0x60 DUP3 ADD MSTORE DUP3 PUSH1 0x80 DUP3 ADD MSTORE DUP3 PUSH1 0xA0 DUP3 ADD MSTORE DUP3 PUSH1 0xC0 DUP3 ADD MSTORE ADD MSTORE JUMP JUMPDEST SWAP1 SWAP4 SWAP3 PUSH1 0xE0 PUSH2 0x120 SWAP2 PUSH2 0x1028 SWAP5 PUSH2 0x140 DUP6 ADD SWAP8 PUSH1 0x1 DUP1 PUSH1 0xA0 SHL SUB AND DUP6 MSTORE PUSH1 0x1 DUP1 PUSH1 0xA0 SHL SUB AND PUSH1 0x20 DUP6 ADD MSTORE PUSH1 0x1 PUSH1 0x1 PUSH1 0x50 SHL SUB DUP2 MLOAD AND PUSH1 0x40 DUP6 ADD MSTORE PUSH2 0xFFFF PUSH1 0x20 DUP3 ADD MLOAD AND PUSH1 0x60 DUP6 ADD MSTORE PUSH6 0xFFFFFFFFFFFF PUSH1 0x40 DUP3 ADD MLOAD AND PUSH1 0x80 DUP6 ADD MSTORE PUSH2 0x417E PUSH1 0x60 DUP3 ADD MLOAD PUSH1 0xA0 DUP7 ADD SWAP1 PUSH6 0xFFFFFFFFFFFF AND SWAP1 MSTORE JUMP JUMPDEST PUSH1 0x80 DUP2 ADD MLOAD PUSH1 0xFF AND PUSH1 0xC0 DUP6 ADD MSTORE PUSH1 0xA0 DUP2 ADD MLOAD PUSH4 0xFFFFFFFF AND DUP5 DUP4 ADD MSTORE PUSH1 0xC0 DUP2 ADD MLOAD PUSH2 0xFFFF AND PUSH2 0x100 DUP6 ADD MSTORE ADD MLOAD ISZERO ISZERO SWAP2 ADD MSTORE JUMP JUMPDEST SWAP1 CALLDATALOAD SWAP1 PUSH1 0x1E NOT DUP2 CALLDATASIZE SUB ADD DUP3 SLT ISZERO PUSH2 0x4BB JUMPI ADD DUP1 CALLDATALOAD SWAP1 PUSH1 0x1 PUSH1 0x1 PUSH1 0x40 SHL SUB DUP3 GT PUSH2 0x4BB JUMPI PUSH1 0x20 ADD SWAP2 PUSH1 0xE0 DUP3 MUL CALLDATASIZE SUB DUP4 SGT PUSH2 0x4BB JUMPI JUMP JUMPDEST SWAP2 SWAP1 DUP2 LT ISZERO PUSH2 0x15FF JUMPI PUSH1 0xE0 MUL ADD SWAP1 JUMP JUMPDEST PUSH1 0x1 PUSH1 0x1 PUSH1 0xA0 SHL SUB SWAP2 DUP3 AND DUP2 MSTORE SWAP2 AND PUSH1 0x20 DUP3 ADD MSTORE PUSH2 0x120 DUP2 ADD SWAP3 SWAP2 PUSH2 0x1028 SWAP2 SWAP1 PUSH2 0x100 SWAP1 PUSH2 0x42B6 SWAP1 PUSH1 0xC0 SWAP1 PUSH1 0x1 PUSH1 0x1 PUSH1 0x50 SHL SUB PUSH2 0x4233 DUP3 PUSH2 0x1040 JUMP JUMPDEST AND PUSH1 0x40 DUP7 ADD MSTORE PUSH3 0xFFFFFF PUSH2 0x4249 PUSH1 0x20 DUP4 ADD PUSH2 0x1066 JUMP JUMPDEST AND PUSH1 0x60 DUP7 ADD MSTORE PUSH5 0xFFFFFFFFFF PUSH2 0x4261 PUSH1 0x40 DUP4 ADD PUSH2 0x10B2 JUMP JUMPDEST AND PUSH1 0x80 DUP7 ADD MSTORE PUSH5 0xFFFFFFFFFF PUSH2 0x4279 PUSH1 0x60 DUP4 ADD PUSH2 0x10B2 JUMP JUMPDEST AND PUSH1 0xA0 DUP7 ADD MSTORE PUSH5 0xFFFFFFFFFF PUSH2 0x4291 PUSH1 0x80 DUP4 ADD PUSH2 0x10B2 JUMP JUMPDEST AND DUP3 DUP7 ADD MSTORE PUSH2 0x42B0 PUSH2 0x42A5 PUSH1 0xA0 DUP4 ADD PUSH2 0x10E7 JUMP JUMPDEST PUSH2 0xFFFF AND PUSH1 0xE0 DUP8 ADD MSTORE JUMP JUMPDEST ADD PUSH2 0x10E7 JUMP JUMPDEST PUSH2 0xFFFF AND SWAP2 ADD MSTORE JUMP JUMPDEST PUSH1 0x40 MLOAD SWAP1 PUSH2 0x42CC DUP3 PUSH2 0xFBD JUMP JUMPDEST PUSH0 PUSH1 0xC0 DUP4 DUP3 DUP2 MSTORE DUP3 PUSH1 0x20 DUP3 ADD MSTORE DUP3 PUSH1 0x40 DUP3 ADD MSTORE DUP3 PUSH1 0x60 DUP3 ADD MSTORE DUP3 PUSH1 0x80 DUP3 ADD MSTORE DUP3 PUSH1 0xA0 DUP3 ADD MSTORE ADD MSTORE JUMP JUMPDEST PUSH1 0x1 PUSH1 0x1 PUSH1 0xA0 SHL SUB SWAP2 DUP3 AND DUP2 MSTORE SWAP2 AND PUSH1 0x20 DUP3 ADD MSTORE PUSH2 0x120 DUP2 ADD SWAP3 SWAP2 PUSH2 0x1028 SWAP2 PUSH1 0x40 ADD SWAP1 PUSH2 0x3B33 JUMP JUMPDEST SWAP3 SWAP2 SWAP1 PUSH2 0x432B DUP3 DUP3 DUP7 PUSH2 0x3807 JUMP JUMPDEST DUP1 EXTCODESIZE PUSH2 0x4338 JUMPI JUMPDEST POP POP POP POP JUMP JUMPDEST PUSH2 0x4341 SWAP4 PUSH2 0x4FB4 JUMP JUMPDEST ISZERO PUSH2 0x434F JUMPI PUSH0 DUP1 DUP1 DUP1 PUSH2 0x4332 JUMP JUMPDEST PUSH4 0x68D2BF6B PUSH1 0xE1 SHL PUSH0 MSTORE PUSH1 0x4 PUSH0 REVERT JUMPDEST PUSH1 0x40 MLOAD SWAP1 PUSH1 0x80 DUP3 ADD DUP3 DUP2 LT PUSH1 0x1 PUSH1 0x1 PUSH1 0x40 SHL SUB DUP3 GT OR PUSH2 0xFD8 JUMPI PUSH1 0x40 MSTORE PUSH0 PUSH1 0x60 DUP4 DUP3 DUP2 MSTORE DUP3 PUSH1 0x20 DUP3 ADD MSTORE DUP3 PUSH1 0x40 DUP3 ADD MSTORE ADD MSTORE JUMP JUMPDEST SWAP1 PUSH2 0x439B PUSH2 0x435E JUMP JUMPDEST SWAP2 PUSH1 0x1 DUP2 LT ISZERO PUSH2 0x43A8 JUMPI POP JUMP JUMPDEST PUSH0 SLOAD DUP2 LT PUSH2 0x43B3 JUMPI POP JUMP JUMPDEST SWAP1 SWAP2 POP JUMPDEST DUP1 PUSH0 MSTORE PUSH1 0x4 PUSH1 0x20 MSTORE PUSH1 0x40 PUSH0 KECCAK256 SLOAD PUSH2 0x43D0 JUMPI PUSH0 NOT ADD PUSH2 0x43B7 JUMP JUMPDEST PUSH2 0x60D SWAP1 PUSH2 0x4FDC JUMP JUMPDEST SWAP1 DUP2 MLOAD DUP2 LT ISZERO PUSH2 0x15FF JUMPI ADD PUSH1 0x20 ADD SWAP1 JUMP JUMPDEST SWAP2 SWAP1 SWAP2 DUP3 MLOAD PUSH1 0x1 PUSH1 0x1 PUSH1 0x40 SHL SUB DUP2 GT PUSH2 0xFD8 JUMPI PUSH2 0x4411 DUP2 PUSH2 0x440B DUP5 SLOAD PUSH2 0x33B0 JUMP JUMPDEST DUP5 PUSH2 0x3CAF JUMP JUMPDEST PUSH1 0x20 PUSH1 0x1F DUP3 GT PUSH1 0x1 EQ PUSH2 0x444F JUMPI DUP2 SWAP1 PUSH2 0x4440 SWAP4 SWAP5 SWAP6 PUSH0 SWAP3 PUSH2 0x4444 JUMPI POP POP DUP2 PUSH1 0x1 SHL SWAP2 PUSH0 NOT SWAP1 PUSH1 0x3 SHL SHR NOT AND OR SWAP1 JUMP JUMPDEST SWAP1 SSTORE JUMP JUMPDEST ADD MLOAD SWAP1 POP PUSH0 DUP1 PUSH2 0x1247 JUMP JUMPDEST PUSH1 0x1F NOT DUP3 AND SWAP1 PUSH2 0x4462 DUP5 PUSH0 MSTORE PUSH1 0x20 PUSH0 KECCAK256 SWAP1 JUMP JUMPDEST SWAP2 PUSH0 JUMPDEST DUP2 DUP2 LT PUSH2 0x449C JUMPI POP SWAP6 DUP4 PUSH1 0x1 SWAP6 SWAP7 SWAP8 LT PUSH2 0x4484 JUMPI JUMPDEST POP POP POP DUP2 SHL ADD SWAP1 SSTORE JUMP JUMPDEST ADD MLOAD PUSH0 NOT PUSH1 0xF8 DUP5 PUSH1 0x3 SHL AND SHR NOT AND SWAP1 SSTORE PUSH0 DUP1 DUP1 PUSH2 0x447A JUMP JUMPDEST SWAP2 SWAP3 PUSH1 0x20 PUSH1 0x1 DUP2 SWAP3 DUP7 DUP12 ADD MLOAD DUP2 SSTORE ADD SWAP5 ADD SWAP3 ADD PUSH2 0x4465 JUMP JUMPDEST DUP1 MLOAD SWAP2 SWAP1 DUP3 SWAP1 PUSH1 0x20 ADD DUP3 MCOPY ADD PUSH0 DUP2 MSTORE SWAP1 JUMP JUMPDEST PUSH2 0x44D6 SWAP1 PUSH1 0x40 MLOAD SWAP2 DUP3 DUP1 SWAP3 PUSH2 0x44B4 JUMP JUMPDEST SUB SWAP1 KECCAK256 SWAP1 JUMP JUMPDEST SWAP2 DUP2 MLOAD DUP1 ISZERO ISZERO SWAP1 DUP2 PUSH2 0x46E3 JUMPI JUMPDEST POP ISZERO PUSH2 0x46D4 JUMPI PUSH0 JUMPDEST DUP3 MLOAD DUP2 LT ISZERO PUSH2 0x465E JUMPI PUSH2 0x4525 PUSH2 0x4518 PUSH2 0x450A DUP4 DUP7 PUSH2 0x43D9 JUMP JUMPDEST MLOAD PUSH1 0x1 PUSH1 0x1 PUSH1 0xF8 SHL SUB NOT AND SWAP1 JUMP JUMPDEST PUSH1 0x1 PUSH1 0x1 PUSH1 0xF8 SHL SUB NOT AND SWAP1 JUMP JUMPDEST PUSH1 0x3 PUSH1 0xFC SHL DUP2 LT ISZERO SWAP1 DUP2 PUSH2 0x464F JUMPI JUMPDEST DUP2 ISZERO PUSH2 0x462B JUMPI JUMPDEST DUP2 ISZERO PUSH2 0x4607 JUMPI JUMPDEST DUP2 ISZERO PUSH2 0x45BC JUMPI JUMPDEST DUP2 ISZERO PUSH2 0x456D JUMPI JUMPDEST POP ISZERO PUSH2 0x455E JUMPI PUSH1 0x1 ADD PUSH2 0x44F1 JUMP JUMPDEST PUSH4 0xA23EF83B PUSH1 0xE0 SHL PUSH0 MSTORE PUSH1 0x4 PUSH0 REVERT JUMPDEST PUSH1 0x3F PUSH1 0xF8 SHL DUP2 EQ SWAP2 POP DUP2 ISZERO PUSH2 0x45AE JUMPI JUMPDEST DUP2 ISZERO PUSH2 0x45A0 JUMPI JUMPDEST DUP2 ISZERO PUSH2 0x4592 JUMPI JUMPDEST POP PUSH0 PUSH2 0x4550 JUMP JUMPDEST PUSH1 0x27 PUSH1 0xF8 SHL EQ SWAP1 POP PUSH0 PUSH2 0x458B JUMP JUMPDEST PUSH1 0x13 PUSH1 0xF9 SHL DUP2 EQ SWAP2 POP PUSH2 0x4584 JUMP JUMPDEST PUSH1 0x5F PUSH1 0xF8 SHL DUP2 EQ SWAP2 POP PUSH2 0x457D JUMP JUMPDEST SWAP1 POP PUSH1 0x1 PUSH1 0xFD SHL DUP2 EQ DUP1 ISZERO PUSH2 0x45FA JUMPI JUMPDEST DUP1 ISZERO PUSH2 0x45ED JUMPI JUMPDEST DUP1 ISZERO PUSH2 0x45E0 JUMPI JUMPDEST SWAP1 PUSH2 0x4549 JUMP JUMPDEST POP PUSH1 0x17 PUSH1 0xF9 SHL DUP2 EQ PUSH2 0x45DA JUMP JUMPDEST POP PUSH1 0x2D PUSH1 0xF8 SHL DUP2 EQ PUSH2 0x45D3 JUMP JUMPDEST POP PUSH1 0x21 PUSH1 0xF8 SHL DUP2 EQ PUSH2 0x45CC JUMP JUMPDEST SWAP1 POP PUSH1 0x61 PUSH1 0xF8 SHL DUP2 LT ISZERO DUP1 PUSH2 0x461D JUMPI JUMPDEST SWAP1 PUSH2 0x4542 JUMP JUMPDEST POP PUSH1 0x3D PUSH1 0xF9 SHL DUP2 GT ISZERO PUSH2 0x4617 JUMP JUMPDEST SWAP1 POP PUSH1 0x41 PUSH1 0xF8 SHL DUP2 LT ISZERO DUP1 PUSH2 0x4641 JUMPI JUMPDEST SWAP1 PUSH2 0x453B JUMP JUMPDEST POP PUSH1 0x2D PUSH1 0xF9 SHL DUP2 GT ISZERO PUSH2 0x463B JUMP JUMPDEST PUSH1 0x39 PUSH1 0xF8 SHL DUP2 GT ISZERO SWAP2 POP PUSH2 0x4534 JUMP JUMPDEST POP SWAP2 PUSH2 0x467E DUP3 PUSH1 0x1 PUSH2 0x4678 DUP5 PUSH0 MSTORE PUSH1 0x16 PUSH1 0x20 MSTORE PUSH1 0x40 PUSH0 KECCAK256 SWAP1 JUMP JUMPDEST ADD PUSH2 0x43EA JUMP JUMPDEST PUSH1 0x40 DUP1 MLOAD DUP3 DUP2 MSTORE PUSH1 0x20 DUP2 ADD DUP4 SWAP1 MSTORE PUSH0 MLOAD PUSH1 0x20 PUSH2 0x57A4 PUSH0 CODECOPY PUSH0 MLOAD SWAP1 PUSH0 MSTORE SWAP2 DUP2 SWAP1 DUP2 ADD JUMPDEST SUB SWAP1 LOG1 PUSH2 0x46AD CALLER SWAP3 PUSH2 0x44C6 JUMP JUMPDEST SWAP1 PUSH32 0x27FAC8F362F0993DF8069600BAC492702D7C0D77D65545716BF8B7ACD95F0214 PUSH0 DUP1 LOG4 JUMP JUMPDEST PUSH4 0x4E9A61E5 PUSH1 0xE1 SHL PUSH0 MSTORE PUSH1 0x4 PUSH0 REVERT JUMPDEST PUSH1 0x20 SWAP2 POP GT ISZERO PUSH0 PUSH2 0x44E9 JUMP JUMPDEST SWAP1 PUSH1 0x5 DUP2 LT ISZERO PUSH2 0x4767 JUMPI PUSH0 DUP3 DUP2 MSTORE PUSH1 0x16 PUSH1 0x20 MSTORE PUSH1 0x40 SWAP1 KECCAK256 DUP1 SLOAD PUSH3 0xFF0000 NOT AND PUSH1 0x10 DUP4 SWAP1 SHL PUSH3 0xFF0000 AND OR SWAP1 SSTORE PUSH1 0x40 DUP1 MLOAD DUP4 DUP2 MSTORE PUSH1 0x20 DUP2 ADD DUP5 SWAP1 MSTORE PUSH0 MLOAD PUSH1 0x20 PUSH2 0x57A4 PUSH0 CODECOPY PUSH0 MLOAD SWAP1 PUSH0 MSTORE SWAP2 DUP2 SWAP1 DUP2 ADD SUB SWAP1 LOG1 CALLER SWAP2 PUSH32 0x717EA6D16CD5B1ADADF0580BB4B4EBBE47B8329C34AE1D20B2A3505B0B45121B PUSH0 DUP1 LOG4 JUMP JUMPDEST PUSH4 0xACCE9F57 PUSH1 0xE0 SHL PUSH0 MSTORE PUSH1 0x4 PUSH0 REVERT JUMPDEST PUSH1 0x1 PUSH1 0x1 PUSH1 0xA0 SHL SUB DUP3 AND PUSH20 0x1E0049783F008A0085193E00003D00CD54003C71 EQ PUSH2 0x47C8 JUMPI PUSH1 0x1 PUSH1 0x1 PUSH1 0xA0 SHL SUB SWAP1 DUP2 AND PUSH0 SWAP1 DUP2 MSTORE PUSH1 0x7 PUSH1 0x20 SWAP1 DUP2 MSTORE PUSH1 0x40 DUP1 DUP4 KECCAK256 SWAP4 SWAP1 SWAP5 AND DUP3 MSTORE SWAP2 SWAP1 SWAP2 MSTORE KECCAK256 PUSH1 0xFF SWAP1 SLOAD AND SWAP1 JUMP JUMPDEST POP POP PUSH1 0x1 SWAP1 JUMP JUMPDEST SWAP1 PUSH2 0x1028 PUSH2 0x47FB SWAP3 PUSH1 0x40 MLOAD SWAP4 DUP5 SWAP2 PUSH11 0x526574726F50756E6B2023 PUSH1 0xA8 SHL PUSH1 0x20 DUP5 ADD MSTORE PUSH1 0x2B DUP4 ADD SWAP1 PUSH2 0x44B4 JUMP JUMPDEST SUB PUSH1 0x1F NOT DUP2 ADD DUP5 MSTORE DUP4 PUSH2 0xFF8 JUMP JUMPDEST PUSH2 0x481A PUSH2 0x4815 DUP3 PUSH2 0x5331 JUMP JUMPDEST PUSH2 0x47CF JUMP JUMPDEST SWAP1 DUP1 PUSH0 MSTORE PUSH1 0x16 PUSH1 0x20 MSTORE PUSH1 0x1 PUSH1 0x40 PUSH0 KECCAK256 ADD DUP3 MLOAD PUSH1 0x1 PUSH1 0x1 PUSH1 0x40 SHL SUB DUP2 GT PUSH2 0xFD8 JUMPI PUSH2 0x4848 DUP2 PUSH2 0x440B DUP5 SLOAD PUSH2 0x33B0 JUMP JUMPDEST PUSH1 0x20 PUSH1 0x1F DUP3 GT PUSH1 0x1 EQ PUSH2 0x48A7 JUMPI SWAP1 DUP1 PUSH2 0x4874 SWAP3 PUSH0 SWAP2 PUSH2 0x489C JUMPI POP DUP2 PUSH1 0x1 SHL SWAP2 PUSH0 NOT SWAP1 PUSH1 0x3 SHL SHR NOT AND OR SWAP1 JUMP JUMPDEST SWAP1 SSTORE PUSH1 0x40 DUP1 MLOAD DUP3 DUP2 MSTORE PUSH1 0x20 DUP2 ADD DUP4 SWAP1 MSTORE PUSH0 MLOAD PUSH1 0x20 PUSH2 0x57A4 PUSH0 CODECOPY PUSH0 MLOAD SWAP1 PUSH0 MSTORE SWAP2 DUP2 SWAP1 DUP2 ADD PUSH2 0x46A0 JUMP JUMPDEST SWAP1 POP DUP6 ADD MLOAD PUSH0 PUSH2 0x2A19 JUMP JUMPDEST PUSH1 0x1F NOT DUP3 AND SWAP1 PUSH2 0x48BA DUP5 PUSH0 MSTORE PUSH1 0x20 PUSH0 KECCAK256 SWAP1 JUMP JUMPDEST SWAP2 PUSH0 JUMPDEST DUP2 DUP2 LT PUSH2 0x48F6 JUMPI POP SWAP1 DUP4 PUSH1 0x1 SWAP5 SWAP4 SWAP3 LT PUSH2 0x48DE JUMPI JUMPDEST POP POP DUP2 SHL ADD SWAP1 SSTORE PUSH2 0x467E JUMP JUMPDEST DUP7 ADD MLOAD PUSH0 NOT PUSH1 0xF8 DUP5 PUSH1 0x3 SHL AND SHR NOT AND SWAP1 SSTORE PUSH0 DUP1 PUSH2 0x48D2 JUMP JUMPDEST SWAP2 SWAP3 PUSH1 0x20 PUSH1 0x1 DUP2 SWAP3 DUP7 DUP12 ADD MLOAD DUP2 SSTORE ADD SWAP5 ADD SWAP3 ADD PUSH2 0x48BD JUMP JUMPDEST SWAP1 PUSH0 SWAP2 DUP1 PUSH1 0x1 GT ISZERO PUSH2 0x491D JUMPI POP JUMP JUMPDEST PUSH0 SLOAD DUP2 LT PUSH2 0x4928 JUMPI POP JUMP JUMPDEST SWAP1 SWAP2 POP JUMPDEST DUP1 PUSH0 MSTORE PUSH1 0x4 PUSH1 0x20 MSTORE PUSH1 0x40 PUSH0 KECCAK256 SLOAD DUP1 PUSH2 0x494D JUMPI POP DUP1 ISZERO PUSH2 0xB17 JUMPI PUSH0 NOT ADD PUSH2 0x492C JUMP JUMPDEST PUSH1 0x1 PUSH1 0xE0 SHL AND ISZERO SWAP2 SWAP1 POP JUMP JUMPDEST PUSH4 0x2CE44B5F PUSH1 0xE1 SHL PUSH0 MSTORE PUSH1 0x4 PUSH0 REVERT JUMPDEST PUSH3 0xA11481 PUSH1 0xE8 SHL PUSH0 MSTORE PUSH1 0x4 PUSH0 REVERT JUMPDEST PUSH4 0x3A954ECD PUSH1 0xE2 SHL PUSH0 MSTORE PUSH1 0x4 PUSH0 REVERT JUMPDEST PUSH4 0x6F96CDA1 PUSH1 0xE1 SHL PUSH0 MSTORE PUSH1 0x4 PUSH0 REVERT JUMPDEST PUSH3 0x2E0763 PUSH1 0xE8 SHL PUSH0 MSTORE PUSH1 0x4 PUSH0 REVERT JUMPDEST PUSH1 0x1 DUP1 PUSH1 0xA0 SHL SUB PUSH1 0xA SLOAD AND CALLER EQ ADDRESS CALLER EQ OR ISZERO PUSH2 0x49BA JUMPI JUMP JUMPDEST PUSH4 0x5FC483C5 PUSH1 0xE0 SHL PUSH0 MSTORE PUSH1 0x4 PUSH0 REVERT JUMPDEST PUSH1 0xA SLOAD PUSH1 0x1 PUSH1 0x1 PUSH1 0xA0 SHL SUB AND CALLER SUB PUSH2 0x49BA JUMPI JUMP JUMPDEST PUSH1 0x1 DUP1 PUSH1 0xA0 SHL SUB AND PUSH0 MSTORE PUSH1 0x11 PUSH1 0x20 MSTORE PUSH1 0x1 PUSH1 0xFF PUSH1 0x40 PUSH0 KECCAK256 SLOAD AND ISZERO ISZERO SUB PUSH2 0x49FF JUMPI JUMP JUMPDEST PUSH4 0x15E26FF3 PUSH1 0xE0 SHL PUSH0 MSTORE PUSH1 0x4 PUSH0 REVERT JUMPDEST DUP1 PUSH1 0x1 GT PUSH2 0x4985 JUMPI PUSH2 0x4A28 DUP2 PUSH0 MSTORE PUSH1 0x4 PUSH1 0x20 MSTORE PUSH1 0x40 PUSH0 KECCAK256 SWAP1 JUMP JUMPDEST SLOAD SWAP1 DUP2 ISZERO PUSH2 0x4A3F JUMPI POP PUSH1 0x1 PUSH1 0xE0 SHL DUP2 AND PUSH2 0x4985 JUMPI SWAP1 JUMP JUMPDEST SWAP1 POP PUSH0 SLOAD DUP2 LT ISZERO PUSH2 0x4985 JUMPI JUMPDEST PUSH0 NOT ADD PUSH0 DUP2 DUP2 MSTORE PUSH1 0x4 PUSH1 0x20 MSTORE PUSH1 0x40 SWAP1 KECCAK256 SLOAD SWAP1 DUP2 ISZERO PUSH2 0x4A72 JUMPI POP PUSH1 0x1 PUSH1 0xE0 SHL DUP2 AND PUSH2 0x4985 JUMPI SWAP1 JUMP JUMPDEST SWAP1 POP PUSH2 0x4A4B JUMP JUMPDEST PUSH1 0x1 PUSH1 0x1 PUSH1 0xA0 SHL SUB DUP2 AND ISZERO ISZERO DUP1 DUP1 PUSH2 0x4B1D JUMPI JUMPDEST PUSH2 0x817 JUMPI DUP1 PUSH2 0x4B16 JUMPI JUMPDEST PUSH2 0x4A9E JUMPI POP POP JUMP JUMPDEST PUSH1 0x9 SLOAD PUSH1 0x1 PUSH1 0x1 PUSH1 0xA0 SHL SUB AND SWAP2 DUP3 PUSH2 0x4AB5 JUMPI POP POP POP JUMP JUMPDEST DUP3 EXTCODESIZE ISZERO PUSH2 0x4BB JUMPI PUSH1 0x40 MLOAD PUSH4 0x657711F5 PUSH1 0xE1 SHL DUP2 MSTORE CALLER PUSH1 0x4 DUP3 ADD MSTORE PUSH1 0x1 PUSH1 0x1 PUSH1 0xA0 SHL SUB SWAP3 SWAP1 SWAP3 AND PUSH1 0x24 DUP4 ADD MSTORE PUSH0 PUSH1 0x44 DUP4 ADD DUP2 SWAP1 MSTORE PUSH1 0x64 DUP4 ADD SWAP2 SWAP1 SWAP2 MSTORE SWAP1 SWAP2 DUP3 SWAP1 PUSH1 0x84 SWAP1 DUP3 SWAP1 GAS STATICCALL DUP1 ISZERO PUSH2 0xA0F JUMPI PUSH2 0x4B08 JUMPI POP JUMP JUMPDEST DUP1 PUSH2 0x21E5 PUSH0 PUSH2 0x1028 SWAP4 PUSH2 0xFF8 JUMP JUMPDEST POP PUSH0 PUSH2 0x4A96 JUMP JUMPDEST POP PUSH1 0xFF PUSH1 0x13 SLOAD AND PUSH2 0x4A8C JUMP JUMPDEST SWAP1 SWAP2 PUSH1 0x1 PUSH1 0x1 PUSH1 0xA0 SHL SUB DUP3 AND ISZERO ISZERO DUP1 DUP1 PUSH2 0x4BE4 JUMPI JUMPDEST PUSH2 0x817 JUMPI DUP1 PUSH2 0x4BD2 JUMPI JUMPDEST PUSH2 0x4B51 JUMPI POP POP POP JUMP JUMPDEST PUSH1 0x9 SLOAD PUSH1 0x1 PUSH1 0x1 PUSH1 0xA0 SHL SUB AND DUP1 PUSH2 0x4B68 JUMPI POP POP POP POP JUMP JUMPDEST DUP1 EXTCODESIZE ISZERO PUSH2 0x4BB JUMPI PUSH1 0x40 MLOAD PUSH4 0x657711F5 PUSH1 0xE1 SHL DUP2 MSTORE CALLER PUSH1 0x4 DUP3 ADD MSTORE PUSH1 0x1 PUSH1 0x1 PUSH1 0xA0 SHL SUB SWAP4 DUP5 AND PUSH1 0x24 DUP3 ADD MSTORE SWAP4 SWAP1 SWAP3 AND PUSH1 0x44 DUP5 ADD MSTORE PUSH1 0x64 DUP4 ADD MSTORE PUSH0 SWAP1 DUP3 SWAP1 PUSH1 0x84 SWAP1 DUP3 SWAP1 GAS STATICCALL DUP1 ISZERO PUSH2 0xA0F JUMPI PUSH2 0x4BBE JUMPI JUMPDEST DUP1 DUP1 DUP1 PUSH2 0x4332 JUMP JUMPDEST DUP1 PUSH2 0x21E5 PUSH0 PUSH2 0x4BCC SWAP4 PUSH2 0xFF8 JUMP JUMPDEST PUSH0 PUSH2 0x4BB6 JUMP JUMPDEST POP PUSH1 0x1 PUSH1 0x1 PUSH1 0xA0 SHL SUB DUP4 AND ISZERO ISZERO PUSH2 0x4B48 JUMP JUMPDEST POP PUSH1 0xFF PUSH1 0x13 SLOAD AND PUSH2 0x4B3E JUMP JUMPDEST PUSH0 SLOAD PUSH0 NOT DUP3 DUP3 ADD DUP2 ADD SWAP3 SWAP2 ADD DUP3 LT PUSH2 0xB17 JUMPI PUSH1 0xC SLOAD DUP1 SWAP3 GT PUSH2 0x4C10 JUMPI POP POP JUMP JUMPDEST PUSH0 SLOAD PUSH0 NOT SWAP2 DUP2 ADD DUP3 ADD SWAP2 ADD DUP2 LT PUSH2 0xB17 JUMPI PUSH4 0x384B48C5 PUSH1 0xE2 SHL PUSH0 MSTORE PUSH1 0x4 MSTORE PUSH1 0x24 MSTORE PUSH1 0x44 PUSH0 REVERT JUMPDEST SWAP2 SWAP1 PUSH1 0x40 MLOAD SWAP1 PUSH2 0x4C47 PUSH1 0x20 DUP4 PUSH2 0xFF8 JUMP JUMPDEST PUSH0 DUP3 MSTORE PUSH1 0x13 SLOAD PUSH1 0xFF DUP2 PUSH1 0xA8 SHR AND PUSH2 0x4D50 JUMPI PUSH1 0xFF SWAP1 PUSH2 0x4C64 DUP4 PUSH2 0x4BF0 JUMP JUMPDEST PUSH1 0xB8 SHR AND ISZERO PUSH2 0x4D41 JUMPI PUSH0 SLOAD PUSH1 0x1 SLOAD SWAP1 SUB PUSH0 NOT ADD SWAP4 DUP2 DUP6 ADD DUP1 DUP7 GT SWAP6 DUP7 JUMPDEST PUSH2 0xB17 JUMPI DUP2 DUP2 LT ISZERO PUSH2 0x4CBA JUMPI PUSH1 0x1 DUP2 ADD SWAP1 DUP2 DUP2 GT PUSH2 0xB17 JUMPI PUSH1 0xC SLOAD SWAP2 DUP2 DUP4 SUB SWAP3 DUP4 GT PUSH2 0xB17 JUMPI PUSH1 0x1 SWAP3 PUSH2 0x4CB3 SWAP2 PUSH2 0x55E6 JUMP JUMPDEST ADD DUP7 PUSH2 0x4C81 JUMP JUMPDEST POP POP SWAP1 SWAP2 SWAP3 SWAP4 POP PUSH2 0x4CCB DUP3 DUP3 PUSH2 0x5457 JUMP JUMPDEST PUSH0 SLOAD PUSH0 NOT ADD PUSH1 0xC SLOAD EQ PUSH2 0x4D29 JUMPI JUMPDEST DUP1 EXTCODESIZE PUSH2 0x4CE4 JUMPI POP POP POP JUMP JUMPDEST SWAP1 SWAP2 SWAP3 PUSH0 SLOAD SWAP3 DUP4 SUB SWAP3 PUSH1 0x1 JUMPDEST ISZERO PUSH2 0x4D14 JUMPI JUMPDEST PUSH0 PUSH2 0x4D09 PUSH2 0xC46 DUP8 PUSH1 0x1 DUP9 ADD SWAP8 DUP8 PUSH2 0x4F15 JUMP JUMPDEST ISZERO PUSH2 0x4CF0 JUMPI JUMPDEST PUSH2 0x434F JUMP JUMPDEST DUP1 DUP5 LT PUSH2 0x4CF6 JUMPI SWAP3 POP SWAP3 POP POP PUSH0 SLOAD SUB PUSH2 0x4BB JUMPI JUMP JUMPDEST PUSH1 0x13 DUP1 SLOAD PUSH1 0xFF PUSH1 0xA8 SHL NOT AND PUSH1 0x1 PUSH1 0xA8 SHL OR SWAP1 SSTORE PUSH2 0x4CD9 JUMP JUMPDEST PUSH4 0x636402DF PUSH1 0xE0 SHL PUSH0 MSTORE PUSH1 0x4 PUSH0 REVERT JUMPDEST PUSH4 0x6CE844D PUSH1 0xE0 SHL PUSH0 MSTORE PUSH1 0x4 PUSH0 REVERT JUMPDEST PUSH1 0x1 PUSH1 0x1 PUSH1 0x40 SHL SUB DUP3 GT PUSH2 0xFD8 JUMPI PUSH9 0x10000000000000000 DUP3 GT PUSH2 0xFD8 JUMPI PUSH1 0x12 SLOAD DUP3 PUSH1 0x12 SSTORE DUP1 DUP4 LT PUSH2 0x4DC1 JUMPI JUMPDEST POP PUSH1 0x12 PUSH0 MSTORE PUSH1 0x20 PUSH0 KECCAK256 PUSH0 JUMPDEST DUP4 DUP2 LT PUSH2 0x4DA4 JUMPI POP POP POP POP JUMP JUMPDEST PUSH1 0x1 SWAP1 PUSH1 0x20 DUP5 CALLDATALOAD SWAP5 PUSH2 0x4DB5 DUP7 PUSH2 0x752 JUMP JUMPDEST ADD SWAP4 DUP2 DUP5 ADD SSTORE ADD PUSH2 0x4D97 JUMP JUMPDEST PUSH1 0x12 PUSH0 MSTORE PUSH2 0x4DF5 SWAP1 PUSH32 0xBB8A6A4669BA250D26CD7A459ECA9D215F8307E33AEBE50379BC5A3617EC3444 SWAP1 DUP2 ADD SWAP1 DUP5 ADD PUSH2 0x3C1E JUMP JUMPDEST PUSH0 PUSH2 0x4D8C JUMP JUMPDEST PUSH1 0x20 DUP1 DUP3 MSTORE DUP2 ADD DUP4 SWAP1 MSTORE PUSH1 0x40 ADD SWAP2 PUSH0 JUMPDEST DUP2 DUP2 LT PUSH2 0x4E18 JUMPI POP POP POP SWAP1 JUMP JUMPDEST SWAP1 SWAP2 SWAP3 PUSH1 0x20 DUP1 PUSH1 0x1 SWAP3 DUP7 CALLDATALOAD PUSH2 0x4E2C DUP2 PUSH2 0x752 JUMP JUMPDEST DUP5 DUP1 PUSH1 0xA0 SHL SUB AND DUP2 MSTORE ADD SWAP5 ADD SWAP2 ADD SWAP2 SWAP1 SWAP2 PUSH2 0x4E0B JUMP JUMPDEST PUSH4 0xFFFFFFFE PUSH0 NOT DUP3 ADD LT ISZERO PUSH2 0x4E93 JUMPI PUSH1 0x17 SLOAD PUSH2 0x4E86 JUMPI PUSH1 0x17 PUSH0 DUP2 SWAP1 MSTORE PUSH1 0xE0 SWAP2 SWAP1 SWAP2 SHL PUSH28 0xC624B66CC0138B8FABC209247F72D758E1CF3343756D543B00000000 OR SWAP1 SSTORE JUMP JUMPDEST PUSH4 0xC9F11F2 PUSH0 MSTORE PUSH1 0x4 PUSH1 0x1C REVERT JUMPDEST PUSH4 0x83B53941 PUSH0 MSTORE PUSH1 0x4 PUSH1 0x1C REVERT JUMPDEST SWAP1 DUP2 PUSH1 0x20 SWAP2 SUB SLT PUSH2 0x4BB JUMPI MLOAD PUSH2 0x60D DUP2 PUSH2 0x4A9 JUMP JUMPDEST PUSH1 0x1 PUSH1 0x1 PUSH1 0xA0 SHL SUB SWAP2 DUP3 AND DUP2 MSTORE SWAP2 AND PUSH1 0x20 DUP3 ADD MSTORE PUSH1 0x40 DUP2 ADD SWAP2 SWAP1 SWAP2 MSTORE PUSH1 0x80 PUSH1 0x60 DUP3 ADD DUP2 SWAP1 MSTORE PUSH2 0x60D SWAP3 SWAP2 ADD SWAP1 PUSH2 0x5D8 JUMP JUMPDEST RETURNDATASIZE ISZERO PUSH2 0x4F10 JUMPI RETURNDATASIZE SWAP1 PUSH2 0x4EF7 DUP3 PUSH2 0x2F49 JUMP JUMPDEST SWAP2 PUSH2 0x4F05 PUSH1 0x40 MLOAD SWAP4 DUP5 PUSH2 0xFF8 JUMP JUMPDEST DUP3 MSTORE RETURNDATASIZE PUSH0 PUSH1 0x20 DUP5 ADD RETURNDATACOPY JUMP JUMPDEST PUSH1 0x60 SWAP1 JUMP JUMPDEST SWAP2 PUSH2 0x4F3C SWAP3 PUSH1 0x20 SWAP3 PUSH0 PUSH1 0x40 MLOAD DUP1 SWAP7 DUP2 SWAP6 DUP3 SWAP5 PUSH4 0xA85BD01 PUSH1 0xE1 SHL DUP5 MSTORE DUP5 CALLER PUSH1 0x4 DUP7 ADD PUSH2 0x4EB5 JUMP JUMPDEST SUB SWAP3 PUSH1 0x1 PUSH1 0x1 PUSH1 0xA0 SHL SUB AND GAS CALL PUSH0 SWAP2 DUP2 PUSH2 0x4F83 JUMPI JUMPDEST POP PUSH2 0x4F6D JUMPI PUSH2 0x4F5E PUSH2 0x4EE6 JUMP JUMPDEST DUP1 MLOAD ISZERO PUSH2 0x4D0F JUMPI DUP1 MLOAD SWAP1 PUSH1 0x20 ADD REVERT JUMPDEST PUSH1 0x1 PUSH1 0x1 PUSH1 0xE0 SHL SUB NOT AND PUSH4 0xA85BD01 PUSH1 0xE1 SHL EQ SWAP1 JUMP JUMPDEST PUSH2 0x4FA6 SWAP2 SWAP3 POP PUSH1 0x20 RETURNDATASIZE PUSH1 0x20 GT PUSH2 0x4FAD JUMPI JUMPDEST PUSH2 0x4F9E DUP2 DUP4 PUSH2 0xFF8 JUMP JUMPDEST DUP2 ADD SWAP1 PUSH2 0x4EA0 JUMP JUMPDEST SWAP1 PUSH0 PUSH2 0x4F51 JUMP JUMPDEST POP RETURNDATASIZE PUSH2 0x4F94 JUMP JUMPDEST SWAP1 PUSH1 0x20 SWAP3 PUSH0 PUSH2 0x4F3C SWAP6 SWAP4 PUSH1 0x40 MLOAD SWAP7 DUP8 SWAP6 DUP7 SWAP5 DUP6 SWAP4 PUSH4 0xA85BD01 PUSH1 0xE1 SHL DUP6 MSTORE CALLER PUSH1 0x4 DUP7 ADD PUSH2 0x4EB5 JUMP JUMPDEST PUSH2 0x4FE4 PUSH2 0x435E JUMP JUMPDEST POP PUSH0 MSTORE PUSH1 0x4 PUSH1 0x20 MSTORE PUSH1 0x40 PUSH0 KECCAK256 SLOAD PUSH2 0x4FF9 PUSH2 0x435E JUMP JUMPDEST PUSH1 0x1 PUSH1 0x1 PUSH1 0xA0 SHL SUB DUP3 AND DUP2 MSTORE PUSH1 0xA0 DUP3 SWAP1 SHR PUSH1 0x1 PUSH1 0x1 PUSH1 0x40 SHL SUB AND PUSH1 0x20 DUP3 ADD MSTORE PUSH1 0x1 PUSH1 0xE0 SHL DUP3 AND ISZERO ISZERO PUSH1 0x40 DUP3 ADD MSTORE PUSH1 0xE8 SWAP2 SWAP1 SWAP2 SHR PUSH1 0x60 DUP3 ADD MSTORE SWAP1 JUMP JUMPDEST DUP2 PUSH1 0x1F DUP3 ADD SLT ISZERO PUSH2 0x4BB JUMPI DUP1 MLOAD SWAP1 PUSH2 0x504B DUP3 PUSH2 0x2F49 JUMP JUMPDEST SWAP3 PUSH2 0x5059 PUSH1 0x40 MLOAD SWAP5 DUP6 PUSH2 0xFF8 JUMP JUMPDEST DUP3 DUP5 MSTORE PUSH1 0x20 DUP4 DUP4 ADD ADD GT PUSH2 0x4BB JUMPI DUP2 PUSH0 SWAP3 PUSH1 0x20 DUP1 SWAP4 ADD DUP4 DUP7 ADD MCOPY DUP4 ADD ADD MSTORE SWAP1 JUMP JUMPDEST SWAP2 SWAP1 SWAP2 PUSH1 0x40 DUP2 DUP5 SUB SLT PUSH2 0x4BB JUMPI DUP1 MLOAD PUSH1 0x1 PUSH1 0x1 PUSH1 0x40 SHL SUB DUP2 GT PUSH2 0x4BB JUMPI DUP4 PUSH2 0x50A3 SWAP2 DUP4 ADD PUSH2 0x5034 JUMP JUMPDEST SWAP3 PUSH1 0x20 DUP3 ADD MLOAD PUSH1 0x1 PUSH1 0x1 PUSH1 0x40 SHL SUB DUP2 GT PUSH2 0x4BB JUMPI PUSH2 0x60D SWAP3 ADD PUSH2 0x5034 JUMP JUMPDEST PUSH2 0x1028 SWAP1 PUSH2 0x47FB PUSH2 0x50F3 SWAP5 SWAP4 PUSH1 0x2 PUSH1 0x40 MLOAD SWAP7 DUP8 SWAP5 PUSH11 0x526574726F50756E6B2023 PUSH1 0xA8 SHL PUSH1 0x20 DUP8 ADD MSTORE PUSH1 0x2B DUP7 ADD SWAP1 PUSH2 0x44B4 JUMP JUMPDEST PUSH2 0x1D1 PUSH1 0xF5 SHL DUP2 MSTORE ADD SWAP1 PUSH2 0x44B4 JUMP JUMPDEST PUSH1 0x1 SWAP1 PUSH2 0x51B8 PUSH2 0x513A SWAP6 SWAP5 PUSH1 0x24 PUSH2 0x5179 PUSH2 0x1028 SWAP7 PUSH1 0x2C PUSH1 0x40 MLOAD SWAP11 DUP12 SWAP8 PUSH9 0x3D913730B6B2911D11 PUSH1 0xB9 SHL PUSH1 0x20 DUP11 ADD MSTORE PUSH1 0x29 DUP10 ADD SWAP1 PUSH2 0x44B4 JUMP JUMPDEST PUSH32 0x222C226465736372697074696F6E223A22526574726F50756E6B73204E465420 DUP2 MSTORE PUSH12 0x18DBDB1B1958DD1A5BDB888B PUSH1 0xA2 SHL PUSH1 0x20 DUP3 ADD MSTORE ADD SWAP1 PUSH2 0x44B4 JUMP JUMPDEST PUSH1 0xB PUSH1 0xFA SHL DUP2 MSTORE PUSH32 0x22696D616765223A22646174613A696D6167652F7376672B786D6C3B62617365 DUP7 DUP3 ADD MSTORE PUSH3 0xD8D0B PUSH1 0xEA SHL PUSH1 0x21 DUP3 ADD MSTORE ADD SWAP1 PUSH2 0x44B4 JUMP JUMPDEST PUSH1 0x11 PUSH1 0xF9 SHL DUP2 MSTORE SUB PUSH1 0x1E NOT DUP2 ADD DUP6 MSTORE ADD DUP4 PUSH2 0xFF8 JUMP JUMPDEST SWAP1 PUSH2 0x1028 PUSH1 0x1 PUSH2 0x51E8 SWAP4 PUSH1 0x40 MLOAD SWAP5 DUP6 SWAP2 PUSH1 0x20 DUP4 ADD SWAP1 PUSH2 0x44B4 JUMP JUMPDEST PUSH1 0x7D PUSH1 0xF8 SHL DUP2 MSTORE SUB PUSH1 0x1E NOT DUP2 ADD DUP6 MSTORE ADD DUP4 PUSH2 0xFF8 JUMP JUMPDEST SWAP1 PUSH2 0x1028 PUSH2 0x47FB SWAP3 PUSH1 0x40 MLOAD SWAP4 DUP5 SWAP2 PUSH32 0x646174613A6170706C69636174696F6E2F6A736F6E3B6261736536342C000000 PUSH1 0x20 DUP5 ADD MSTORE PUSH1 0x3D DUP4 ADD SWAP1 PUSH2 0x44B4 JUMP JUMPDEST PUSH1 0x13 SLOAD PUSH1 0x40 MLOAD PUSH4 0x7D134433 PUSH1 0xE0 SHL DUP2 MSTORE PUSH2 0xFFFF SWAP4 SWAP1 SWAP4 AND PUSH1 0x4 DUP5 ADD MSTORE PUSH1 0xFF SWAP4 SWAP1 SWAP4 AND PUSH1 0x24 DUP4 ADD MSTORE PUSH1 0x44 DUP3 ADD SWAP5 SWAP1 SWAP5 MSTORE SWAP3 SWAP2 SWAP1 PUSH0 SWAP1 DUP5 SWAP1 PUSH1 0x8 SHR PUSH1 0x1 PUSH1 0x1 PUSH1 0xA0 SHL SUB AND DUP2 DUP1 PUSH1 0x64 DUP2 ADD SUB SWAP2 GAS STATICCALL SWAP2 DUP3 ISZERO PUSH2 0xA0F JUMPI PUSH2 0x60D SWAP4 PUSH2 0x52E6 SWAP4 PUSH2 0x52E1 SWAP4 PUSH2 0x52DC SWAP4 PUSH0 SWAP4 PUSH0 SWAP4 PUSH2 0x5303 JUMPI JUMPDEST POP SWAP1 PUSH2 0x52D6 SWAP2 DUP2 MLOAD PUSH1 0x20 DUP4 ADD KECCAK256 PUSH2 0x52C1 PUSH2 0x4815 DUP4 PUSH2 0x5331 JUMP JUMPDEST PUSH1 0x20 DUP2 MLOAD SWAP2 ADD KECCAK256 EQ PUSH0 EQ PUSH2 0x52EB JUMPI POP SWAP3 PUSH2 0x5376 JUMP JUMPDEST SWAP2 PUSH2 0x5102 JUMP JUMPDEST PUSH2 0x51CE JUMP JUMPDEST PUSH2 0x5376 JUMP JUMPDEST PUSH2 0x51FE JUMP JUMPDEST SWAP1 PUSH2 0x52F8 PUSH2 0x52FD SWAP3 PUSH2 0x5331 JUMP JUMPDEST PUSH2 0x50C1 JUMP JUMPDEST SWAP3 PUSH2 0x5376 JUMP JUMPDEST PUSH2 0x52D6 SWAP3 SWAP5 POP PUSH2 0x5326 SWAP2 SWAP4 POP RETURNDATASIZE DUP1 PUSH0 DUP4 RETURNDATACOPY PUSH2 0x531E DUP2 DUP4 PUSH2 0xFF8 JUMP JUMPDEST DUP2 ADD SWAP1 PUSH2 0x507A JUMP JUMPDEST SWAP4 SWAP1 SWAP4 SWAP3 SWAP1 SWAP2 PUSH2 0x52A8 JUMP JUMPDEST SWAP1 PUSH1 0x40 MLOAD PUSH1 0xA PUSH1 0x80 DUP3 ADD SWAP4 PUSH1 0xA0 DUP4 ADD PUSH1 0x40 MSTORE PUSH0 DUP6 MSTORE SWAP4 JUMPDEST PUSH0 NOT ADD SWAP4 PUSH1 0x30 DUP3 DUP3 MOD ADD DUP6 MSTORE8 DIV SWAP3 DUP4 ISZERO PUSH2 0x5364 JUMPI PUSH1 0xA SWAP1 PUSH2 0x5348 JUMP JUMPDEST DUP1 SWAP4 POP PUSH1 0x80 SWAP2 SUB ADD SWAP2 PUSH1 0x1F NOT ADD SWAP2 DUP3 MSTORE JUMP JUMPDEST SWAP1 PUSH1 0x60 SWAP2 DUP1 MLOAD DUP1 PUSH2 0x5385 JUMPI POP POP JUMP JUMPDEST SWAP1 SWAP3 POP PUSH1 0x3 PUSH1 0x2 DUP3 ADD DIV PUSH1 0x2 SHL SWAP1 PUSH1 0x40 MLOAD SWAP4 PUSH32 0x4142434445464748494A4B4C4D4E4F505152535455565758595A616263646566 PUSH1 0x1F MSTORE PUSH2 0x670 PUSH32 0x6768696A6B6C6D6E6F707172737475767778797A303132333435363738392D5F XOR PUSH1 0x3F MSTORE PUSH1 0x20 DUP6 ADD SWAP2 DUP4 DUP7 ADD SWAP3 PUSH1 0x4 PUSH1 0x3 PUSH1 0x20 DUP7 ADD SWAP5 JUMPDEST ADD SWAP2 PUSH1 0x3F DUP4 MLOAD DUP2 DUP2 PUSH1 0x12 SHR AND MLOAD PUSH0 MSTORE8 DUP2 DUP2 PUSH1 0xC SHR AND MLOAD PUSH1 0x1 MSTORE8 DUP2 DUP2 PUSH1 0x6 SHR AND MLOAD PUSH1 0x2 MSTORE8 AND MLOAD PUSH1 0x3 MSTORE8 PUSH0 MLOAD DUP2 MSTORE ADD SWAP1 DUP4 DUP3 LT ISZERO PUSH2 0x5437 JUMPI PUSH1 0x4 SWAP1 PUSH1 0x3 SWAP1 PUSH2 0x53F6 JUMP JUMPDEST POP SWAP2 POP PUSH1 0x40 PUSH0 SWAP4 ADD PUSH1 0x40 MSTORE PUSH1 0x3 PUSH2 0x3D3D PUSH1 0xF0 SHL SWAP2 MOD PUSH1 0x2 DIV DUP3 SUB MSTORE MSTORE DUP3 MSTORE JUMP JUMPDEST PUSH0 SLOAD SWAP1 DUP3 ISZERO PUSH2 0x550B JUMPI PUSH1 0x1 PUSH1 0x1 PUSH1 0xA0 SHL SUB DUP2 AND TIMESTAMP PUSH1 0xA0 SHL PUSH1 0x1 DUP6 EQ PUSH1 0xE1 SHL OR OR PUSH2 0x5489 DUP4 PUSH0 MSTORE PUSH1 0x4 PUSH1 0x20 MSTORE PUSH1 0x40 PUSH0 KECCAK256 SWAP1 JUMP JUMPDEST SSTORE PUSH1 0x1 PUSH1 0x1 PUSH1 0xA0 SHL SUB AND PUSH0 DUP2 DUP2 MSTORE PUSH1 0x5 PUSH1 0x20 MSTORE PUSH1 0x40 SWAP1 KECCAK256 DUP1 SLOAD PUSH9 0x10000000000000001 DUP6 MUL ADD SWAP1 SSTORE SWAP2 DUP3 ISZERO PUSH2 0x5506 JUMPI DUP2 ADD SWAP1 SWAP3 PUSH1 0x1 JUMPDEST ISZERO PUSH2 0x54F2 JUMPI JUMPDEST PUSH0 DUP5 DUP5 PUSH0 PUSH32 0xDDF252AD1BE2C89B69C2B068FC378DAA952BA7F163C4A11628F55A4DF523B3EF DUP2 DUP1 LOG4 PUSH2 0x54BF JUMP JUMPDEST SWAP3 PUSH1 0x1 ADD SWAP3 DUP2 DUP5 SUB PUSH2 0x54C5 JUMPI SWAP3 POP SWAP1 POP PUSH0 SSTORE JUMP JUMPDEST PUSH2 0x4994 JUMP JUMPDEST PUSH4 0xB562E8DD PUSH1 0xE0 SHL PUSH0 MSTORE PUSH1 0x4 PUSH0 REVERT JUMPDEST DUP2 MLOAD DUP2 SLOAD PUSH1 0x20 DUP5 ADD MLOAD PUSH3 0xFF0000 PUSH1 0x10 SWAP2 SWAP1 SWAP2 SHL AND PUSH2 0xFFFF SWAP1 SWAP3 AND PUSH3 0xFFFFFF NOT SWAP1 SWAP2 AND OR OR DUP2 SSTORE SWAP1 SWAP2 SWAP1 PUSH1 0x40 SWAP1 PUSH1 0x1 ADD SWAP3 ADD MLOAD SWAP2 DUP3 MLOAD PUSH1 0x1 PUSH1 0x1 PUSH1 0x40 SHL SUB DUP2 GT PUSH2 0xFD8 JUMPI PUSH2 0x556B DUP2 PUSH2 0x440B DUP5 SLOAD PUSH2 0x33B0 JUMP JUMPDEST PUSH1 0x20 PUSH1 0x1F DUP3 GT PUSH1 0x1 EQ PUSH2 0x559A JUMPI DUP2 SWAP1 PUSH2 0x4440 SWAP4 SWAP5 SWAP6 PUSH0 SWAP3 PUSH2 0x4444 JUMPI POP POP DUP2 PUSH1 0x1 SHL SWAP2 PUSH0 NOT SWAP1 PUSH1 0x3 SHL SHR NOT AND OR SWAP1 JUMP JUMPDEST PUSH1 0x1F NOT DUP3 AND SWAP1 PUSH2 0x55AD DUP5 PUSH0 MSTORE PUSH1 0x20 PUSH0 KECCAK256 SWAP1 JUMP JUMPDEST SWAP2 PUSH0 JUMPDEST DUP2 DUP2 LT PUSH2 0x55CE JUMPI POP SWAP6 DUP4 PUSH1 0x1 SWAP6 SWAP7 SWAP8 LT PUSH2 0x4484 JUMPI POP POP POP DUP2 SHL ADD SWAP1 SSTORE JUMP JUMPDEST SWAP2 SWAP3 PUSH1 0x20 PUSH1 0x1 DUP2 SWAP3 DUP7 DUP12 ADD MLOAD DUP2 SSTORE ADD SWAP5 ADD SWAP3 ADD PUSH2 0x55B0 JUMP JUMPDEST SWAP1 ISZERO PUSH2 0x574F JUMPI PUSH1 0x17 SLOAD PUSH4 0xFFFFFFFF AND PUSH1 0x15 SLOAD SWAP1 PUSH1 0x40 MLOAD SWAP1 PUSH1 0x20 DUP3 ADD SWAP3 DUP4 MSTORE PUSH1 0x40 DUP3 ADD MSTORE DUP3 PUSH1 0x60 DUP3 ADD MSTORE PUSH1 0x60 DUP2 MSTORE PUSH2 0x561E PUSH1 0x80 DUP3 PUSH2 0xFF8 JUMP JUMPDEST MLOAD SWAP1 KECCAK256 SWAP1 PUSH1 0x17 SLOAD SWAP2 DUP3 PUSH4 0xFFFFFFFF AND DUP4 PUSH1 0xE0 SHR SWAP1 DUP1 DUP3 EQ PUSH2 0x5742 JUMPI PUSH2 0x1028 SWAP5 PUSH2 0x56F4 PUSH2 0x5701 SWAP4 PUSH2 0x56EF SWAP4 PUSH2 0x573D SWAP7 PUSH0 MSTORE DUP1 PUSH1 0x20 MSTORE DUP4 PUSH2 0xFFFE DUP3 DUP1 DUP6 SUB PUSH1 0x40 PUSH0 KECCAK256 MOD ADD SWAP4 GT PUSH2 0x56A3 DUP5 DUP4 DUP4 SWAP1 PUSH1 0x1 DUP1 PUSH1 0xC0 SHL SUB SWAP1 PUSH1 0x20 SHR AND DUP3 DUP3 PUSH1 0x4 SUB SHR ADD SLOAD PUSH1 0xF DUP3 SHR DUP4 AND DUP3 PUSH1 0x4 ADD SHL SHR SWAP1 PUSH1 0x1 PUSH1 0x10 PUSH0 NOT SWAP3 SHL SHL ADD AND DUP1 ISZERO ISZERO SWAP1 PUSH0 NOT ADD DUP3 XOR MUL XOR SWAP1 JUMP JUMPDEST SWAP7 DUP8 SWAP5 PUSH2 0x56E7 DUP6 DUP6 DUP6 SWAP1 PUSH1 0x1 DUP1 PUSH1 0xC0 SHL SUB SWAP1 PUSH1 0x20 SHR AND DUP3 DUP3 PUSH1 0x4 SUB SHR ADD SLOAD PUSH1 0xF DUP3 SHR DUP4 AND DUP3 PUSH1 0x4 ADD SHL SHR SWAP1 PUSH1 0x1 PUSH1 0x10 PUSH0 NOT SWAP3 SHL SHL ADD AND DUP1 ISZERO ISZERO SWAP1 PUSH0 NOT ADD DUP3 XOR MUL XOR SWAP1 JUMP JUMPDEST SWAP1 DUP5 DUP5 PUSH2 0x575E JUMP JUMPDEST PUSH2 0x575E JUMP JUMPDEST PUSH1 0x1 ADD PUSH1 0x17 SSTORE PUSH2 0xFFFF AND SWAP1 JUMP JUMPDEST SWAP2 PUSH2 0x570E PUSH2 0x4815 DUP3 PUSH2 0x5331 JUMP JUMPDEST PUSH2 0x5723 PUSH2 0x5719 PUSH2 0x1019 JUMP JUMPDEST PUSH2 0xFFFF SWAP1 SWAP6 AND DUP6 MSTORE JUMP JUMPDEST PUSH1 0x1 PUSH1 0x20 DUP6 ADD MSTORE PUSH1 0x40 DUP5 ADD MSTORE PUSH0 MSTORE PUSH1 0x16 PUSH1 0x20 MSTORE PUSH1 0x40 PUSH0 KECCAK256 SWAP1 JUMP JUMPDEST PUSH2 0x551A JUMP JUMPDEST PUSH4 0x51065F79 PUSH0 MSTORE PUSH1 0x4 PUSH1 0x1C REVERT JUMPDEST PUSH4 0x73D3BB3 PUSH1 0xE1 SHL PUSH0 MSTORE PUSH1 0x4 PUSH0 REVERT JUMPDEST SWAP3 SWAP2 SWAP1 PUSH1 0x1 DUP1 PUSH1 0xC0 SHL SUB SWAP1 PUSH1 0x20 SHR AND DUP2 DUP5 PUSH1 0x4 SUB SHR ADD SWAP3 PUSH1 0xF DUP2 SHR DUP3 AND DUP2 PUSH1 0x4 ADD SHL SWAP2 DUP5 SLOAD SWAP4 PUSH1 0x1 DUP2 ADD SWAP2 EQ ISZERO MUL DUP4 DUP4 SHR XOR SWAP1 PUSH1 0x1 PUSH1 0x10 PUSH0 NOT SWAP3 SHL SHL ADD AND SWAP1 SHL XOR SWAP1 SSTORE JUMP INVALID PUSH12 0xD5C950A8D8DF17F772F5AF37 0xCB CALLDATASIZE SSTORE PUSH20 0x7899CBF903264B9795592DA439661CA264697066 PUSH20 0x58221220A57A518AF75D5DBCBF357E94C8410FA8 PUSH7 0xF612A1D2D789F3 PUSH11 0x767A5D5E182F964736F6C PUSH4 0x4300081E STOP CALLER "
		},
		"gasEstimates": {
			"creation": {
				"codeDepositCost": "4504200",
				"executionCost": "infinite",
				"totalCost": "infinite"
			},
			"external": {
				"COMMITTED_GLOBAL_SEED_HASH()": "infinite",
				"COMMITTED_SHUFFLER_SEED_HASH()": "infinite",
				"acceptOwnership()": "52069",
				"approve(address,uint256)": "infinite",
				"balanceOf(address)": "3241",
				"baseURI()": "infinite",
				"burn(uint256)": "infinite",
				"cancelOwnershipTransfer()": "27822",
				"closeMint()": "27214",
				"contractURI()": "infinite",
				"defaultBackgroundIndex()": "1738",
				"emitBatchMetadataUpdate(uint256,uint256)": "infinite",
				"explicitOwnershipOf(uint256)": "infinite",
				"explicitOwnershipsOf(uint256[])": "infinite",
				"getApproved(uint256)": "infinite",
				"getMintStats(address)": "7601",
				"getTransferValidationFunction()": "334",
				"getTransferValidator()": "2394",
				"globalSeed()": "2304",
				"globalSeedRevealed()": "3356",
				"globalTokenMetadata(uint256)": "infinite",
				"isApprovedForAll(address,address)": "infinite",
				"maxSupply()": "3668",
				"mintIsClosed()": "2520",
				"mintSeaDrop(address,uint256)": "infinite",
				"multiConfigure((uint256,string,string,address,(uint80,uint48,uint48,uint16,uint16,bool),string,(bytes32,string[],string),address,bytes32,address[],address[],address[],address[],address[],(uint80,uint16,uint48,uint48,uint8,uint32,uint16,bool)[],address[],address[],(uint80,uint24,uint40,uint40,uint40,uint16,uint16)[],address[]))": "infinite",
				"name()": "infinite",
				"owner()": "3296",
				"ownerMint(address,uint256)": "infinite",
				"ownerMintsRemaining()": "2832",
				"ownerOf(uint256)": "infinite",
				"provenanceHash()": "3580",
				"renderer()": "3283",
				"renounceOwnership()": "28856",
				"resetTokenName(uint256)": "infinite",
				"revealGlobalSeed(uint256,uint256)": "infinite",
				"revealShufflerSeed(uint256,uint256)": "infinite",
				"royaltyAddress()": "3538",
				"royaltyBasisPoints()": "2618",
				"royaltyInfo(uint256,uint256)": "2690",
				"safeTransferFrom(address,address,uint256)": "infinite",
				"safeTransferFrom(address,address,uint256,bytes)": "infinite",
				"setApprovalForAll(address,bool)": "29810",
				"setBaseURI(string)": "infinite",
				"setContractURI(string)": "infinite",
				"setMaxSupply(uint256)": "28369",
				"setProvenanceHash(bytes32)": "30090",
				"setRenderer(address)": "infinite",
				"setRoyaltyInfo((address,uint96))": "infinite",
				"setTokenBackground(uint256,uint256)": "infinite",
				"setTokenName(uint256,string)": "infinite",
				"setTransferValidator(address)": "29272",
				"shufflerSeed()": "3404",
				"shufflerSeedRevealed()": "3114",
				"supportsInterface(bytes4)": "728",
				"symbol()": "infinite",
				"tokenURI(uint256)": "infinite",
				"tokensOfOwner(address)": "infinite",
				"tokensOfOwnerIn(address,uint256,uint256)": "infinite",
				"totalSupply()": "4575",
				"transferFrom(address,address,uint256)": "infinite",
				"transferOwnership(address)": "29194",
				"transfersPaused()": "2712",
				"updateAllowList(address,(bytes32,string[],string))": "infinite",
				"updateAllowedFeeRecipient(address,address,bool)": "infinite",
				"updateAllowedSeaDrop(address[])": "infinite",
				"updateCreatorPayoutAddress(address,address)": "infinite",
				"updateDropURI(address,string)": "infinite",
				"updatePayer(address,address,bool)": "infinite",
				"updatePublicDrop(address,(uint80,uint48,uint48,uint16,uint16,bool))": "infinite",
				"updateSignedMintValidationParams(address,address,(uint80,uint24,uint40,uint40,uint40,uint16,uint16))": "infinite",
				"updateTokenGatedDrop(address,address,(uint80,uint16,uint48,uint48,uint8,uint32,uint16,bool))": "infinite",
				"updateTransfersPaused(bool)": "27773"
			},
			"internal": {
				"_addInternalMintMetadata(uint256)": "infinite",
				"_checkMaxSupply(uint256)": "6471",
				"_getTokenMetadata(uint256)": "infinite",
				"_mint(address,uint256)": "infinite",
				"_saveNewSeed(uint256,uint256)": "infinite",
				"renderDataUri(uint256,uint16,uint8,string memory,uint256)": "infinite"
			}
		},
		"methodIdentifiers": {
			"COMMITTED_GLOBAL_SEED_HASH()": "f4cc7105",
			"COMMITTED_SHUFFLER_SEED_HASH()": "9b7406a5",
			"acceptOwnership()": "79ba5097",
			"approve(address,uint256)": "095ea7b3",
			"balanceOf(address)": "70a08231",
			"baseURI()": "6c0360eb",
			"burn(uint256)": "42966c68",
			"cancelOwnershipTransfer()": "23452b9c",
			"closeMint()": "64f101f0",
			"contractURI()": "e8a3d485",
			"defaultBackgroundIndex()": "fe97b576",
			"emitBatchMetadataUpdate(uint256,uint256)": "a4830114",
			"explicitOwnershipOf(uint256)": "c23dc68f",
			"explicitOwnershipsOf(uint256[])": "5bbb2177",
			"getApproved(uint256)": "081812fc",
			"getMintStats(address)": "840e15d4",
			"getTransferValidationFunction()": "0d705df6",
			"getTransferValidator()": "098144d4",
			"globalSeed()": "07aafa98",
			"globalSeedRevealed()": "9559a5d9",
			"globalTokenMetadata(uint256)": "db846dbe",
			"isApprovedForAll(address,address)": "e985e9c5",
			"maxSupply()": "d5abeb01",
			"mintIsClosed()": "1dbd7390",
			"mintSeaDrop(address,uint256)": "64869dad",
			"multiConfigure((uint256,string,string,address,(uint80,uint48,uint48,uint16,uint16,bool),string,(bytes32,string[],string),address,bytes32,address[],address[],address[],address[],address[],(uint80,uint16,uint48,uint48,uint8,uint32,uint16,bool)[],address[],address[],(uint80,uint24,uint40,uint40,uint40,uint16,uint16)[],address[]))": "911f456b",
			"name()": "06fdde03",
			"owner()": "8da5cb5b",
			"ownerMint(address,uint256)": "484b973c",
			"ownerMintsRemaining()": "5743bdff",
			"ownerOf(uint256)": "6352211e",
			"provenanceHash()": "c6ab67a3",
			"renderer()": "8ada6b0f",
			"renounceOwnership()": "715018a6",
			"resetTokenName(uint256)": "f6448f88",
			"revealGlobalSeed(uint256,uint256)": "853b3b4c",
			"revealShufflerSeed(uint256,uint256)": "73c5643a",
			"royaltyAddress()": "ad2f852a",
			"royaltyBasisPoints()": "42260b5d",
			"royaltyInfo(uint256,uint256)": "2a55205a",
			"safeTransferFrom(address,address,uint256)": "42842e0e",
			"safeTransferFrom(address,address,uint256,bytes)": "b88d4fde",
			"setApprovalForAll(address,bool)": "a22cb465",
			"setBaseURI(string)": "55f804b3",
			"setContractURI(string)": "938e3d7b",
			"setMaxSupply(uint256)": "6f8b44b0",
			"setProvenanceHash(bytes32)": "099b6bfa",
			"setRenderer(address)": "56d3163d",
			"setRoyaltyInfo((address,uint96))": "44dae42c",
			"setTokenBackground(uint256,uint256)": "d74b6857",
			"setTokenName(uint256,string)": "cdb0e89e",
			"setTransferValidator(address)": "a9fc664e",
			"shufflerSeed()": "99c5def3",
			"shufflerSeedRevealed()": "74e4f5af",
			"supportsInterface(bytes4)": "01ffc9a7",
			"symbol()": "95d89b41",
			"tokenURI(uint256)": "c87b56dd",
			"tokensOfOwner(address)": "8462151c",
			"tokensOfOwnerIn(address,uint256,uint256)": "99a2557a",
			"totalSupply()": "18160ddd",
			"transferFrom(address,address,uint256)": "23b872dd",
			"transferOwnership(address)": "f2fde38b",
			"transfersPaused()": "4563f30a",
			"updateAllowList(address,(bytes32,string[],string))": "3680620d",
			"updateAllowedFeeRecipient(address,address,bool)": "48a4c101",
			"updateAllowedSeaDrop(address[])": "60c308b6",
			"updateCreatorPayoutAddress(address,address)": "66251b69",
			"updateDropURI(address,string)": "7a05bc82",
			"updatePayer(address,address,bool)": "cb743ba8",
			"updatePublicDrop(address,(uint80,uint48,uint48,uint16,uint16,bool))": "1b73593c",
			"updateSignedMintValidationParams(address,address,(uint80,uint24,uint40,uint40,uint40,uint16,uint16))": "511aa644",
			"updateTokenGatedDrop(address,address,(uint80,uint16,uint48,uint48,uint8,uint32,uint16,bool))": "7bc2be76",
			"updateTransfersPaused(bool)": "0d9d713b"
		}
	},
	"abi": [
		{
			"inputs": [
				{
					"internalType": "contract ISVGRenderer",
					"name": "_rendererParam",
					"type": "address"
				},
				{
					"internalType": "bytes32",
					"name": "_committedGlobalSeedHashParam",
					"type": "bytes32"
				},
				{
					"internalType": "bytes32",
					"name": "_committedShufflerSeedHashParam",
					"type": "bytes32"
				},
				{
					"internalType": "uint256",
					"name": "_maxSupplyParam",
					"type": "uint256"
				},
				{
					"internalType": "address[]",
					"name": "allowedSeaDropParam",
					"type": "address[]"
				}
			],
			"stateMutability": "nonpayable",
			"type": "constructor"
		},
		{
			"inputs": [],
			"name": "AlreadyInitialized",
			"type": "error"
		},
		{
			"inputs": [],
			"name": "ApprovalCallerNotOwnerNorApproved",
			"type": "error"
		},
		{
			"inputs": [],
			"name": "ApprovalQueryForNonexistentToken",
			"type": "error"
		},
		{
			"inputs": [],
			"name": "BalanceQueryForZeroAddress",
			"type": "error"
		},
		{
			"inputs": [],
			"name": "CallerIsNotTokenOwner",
			"type": "error"
		},
		{
			"inputs": [
				{
					"internalType": "uint256",
					"name": "newMaxSupply",
					"type": "uint256"
				}
			],
			"name": "CannotExceedMaxSupplyOfUint64",
			"type": "error"
		},
		{
			"inputs": [],
			"name": "GlobalSeedAlreadyRevealed",
			"type": "error"
		},
		{
			"inputs": [],
			"name": "InvalidBackgroundIndex",
			"type": "error"
		},
		{
			"inputs": [],
			"name": "InvalidCharacterInName",
			"type": "error"
		},
		{
			"inputs": [],
			"name": "InvalidGlobalSeedReveal",
			"type": "error"
		},
		{
			"inputs": [],
			"name": "InvalidQueryRange",
			"type": "error"
		},
		{
			"inputs": [
				{
					"internalType": "uint256",
					"name": "basisPoints",
					"type": "uint256"
				}
			],
			"name": "InvalidRoyaltyBasisPoints",
			"type": "error"
		},
		{
			"inputs": [],
			"name": "InvalidShufflerSeedReveal",
			"type": "error"
		},
		{
			"inputs": [],
			"name": "MintERC2309QuantityExceedsLimit",
			"type": "error"
		},
		{
			"inputs": [],
			"name": "MintIsClosed",
			"type": "error"
		},
		{
			"inputs": [
				{
					"internalType": "uint256",
					"name": "total",
					"type": "uint256"
				},
				{
					"internalType": "uint256",
					"name": "maxSupply",
					"type": "uint256"
				}
			],
			"name": "MintQuantityExceedsMaxSupply",
			"type": "error"
		},
		{
			"inputs": [],
			"name": "MintToZeroAddress",
			"type": "error"
		},
		{
			"inputs": [],
			"name": "MintZeroQuantity",
			"type": "error"
		},
		{
			"inputs": [],
			"name": "NameIsTooLong",
			"type": "error"
		},
		{
			"inputs": [
				{
					"internalType": "uint256",
					"name": "got",
					"type": "uint256"
				},
				{
					"internalType": "uint256",
					"name": "totalMinted",
					"type": "uint256"
				}
			],
			"name": "NewMaxSupplyCannotBeLessThenTotalMinted",
			"type": "error"
		},
		{
			"inputs": [],
			"name": "NewOwnerIsZeroAddress",
			"type": "error"
		},
		{
			"inputs": [],
			"name": "NoRemainingTokenElements",
			"type": "error"
		},
		{
			"inputs": [],
			"name": "NonExistentToken",
			"type": "error"
		},
		{
			"inputs": [],
			"name": "NotCompatibleWithSpotMints",
			"type": "error"
		},
		{
			"inputs": [],
			"name": "NotEnoughOwnerMintsRemaining",
			"type": "error"
		},
		{
			"inputs": [],
			"name": "NotNextOwner",
			"type": "error"
		},
		{
			"inputs": [],
			"name": "OnlyAllowedSeaDrop",
			"type": "error"
		},
		{
			"inputs": [],
			"name": "OnlyOwner",
			"type": "error"
		},
		{
			"inputs": [],
			"name": "OwnerQueryForNonexistentToken",
			"type": "error"
		},
		{
			"inputs": [],
			"name": "OwnershipNotInitializedForExtraData",
			"type": "error"
		},
		{
			"inputs": [],
			"name": "PreRenderedSpecialCustomization",
			"type": "error"
		},
		{
			"inputs": [],
			"name": "ProvenanceHashCannotBeSetAfterMintStarted",
			"type": "error"
		},
		{
			"inputs": [],
			"name": "Reentrancy",
			"type": "error"
		},
		{
			"inputs": [],
			"name": "RoyaltyAddressCannotBeZeroAddress",
			"type": "error"
		},
		{
			"inputs": [],
			"name": "SameTransferValidator",
			"type": "error"
		},
		{
			"inputs": [],
			"name": "SequentialMintExceedsLimit",
			"type": "error"
		},
		{
			"inputs": [],
			"name": "SequentialUpToTooSmall",
			"type": "error"
		},
		{
			"inputs": [],
			"name": "ShufflerSeedAlreadyRevealed",
			"type": "error"
		},
		{
			"inputs": [],
			"name": "ShufflerSeedNotRevealedYet",
			"type": "error"
		},
		{
			"inputs": [],
			"name": "SignersMismatch",
			"type": "error"
		},
		{
			"inputs": [],
			"name": "SpotMintTokenIdTooSmall",
			"type": "error"
		},
		{
			"inputs": [],
			"name": "TokenAlreadyExists",
			"type": "error"
		},
		{
			"inputs": [],
			"name": "TokenGatedMismatch",
			"type": "error"
		},
		{
			"inputs": [],
			"name": "TokenIdsNotStrictlyAscending",
			"type": "error"
		},
		{
			"inputs": [],
			"name": "TransferCallerNotOwnerNorApproved",
			"type": "error"
		},
		{
			"inputs": [],
			"name": "TransferFromIncorrectOwner",
			"type": "error"
		},
		{
			"inputs": [],
			"name": "TransferToNonERC721ReceiverImplementer",
			"type": "error"
		},
		{
			"inputs": [],
			"name": "TransferToZeroAddress",
			"type": "error"
		},
		{
			"inputs": [],
			"name": "TransfersPaused",
			"type": "error"
		},
		{
			"inputs": [],
			"name": "URIQueryForNonexistentToken",
			"type": "error"
		},
		{
			"anonymous": false,
			"inputs": [
				{
					"indexed": false,
					"internalType": "address[]",
					"name": "allowedSeaDrop",
					"type": "address[]"
				}
			],
			"name": "AllowedSeaDropUpdated",
			"type": "event"
		},
		{
			"anonymous": false,
			"inputs": [
				{
					"indexed": true,
					"internalType": "address",
					"name": "owner",
					"type": "address"
				},
				{
					"indexed": true,
					"internalType": "address",
					"name": "approved",
					"type": "address"
				},
				{
					"indexed": true,
					"internalType": "uint256",
					"name": "tokenId",
					"type": "uint256"
				}
			],
			"name": "Approval",
			"type": "event"
		},
		{
			"anonymous": false,
			"inputs": [
				{
					"indexed": true,
					"internalType": "address",
					"name": "owner",
					"type": "address"
				},
				{
					"indexed": true,
					"internalType": "address",
					"name": "operator",
					"type": "address"
				},
				{
					"indexed": false,
					"internalType": "bool",
					"name": "approved",
					"type": "bool"
				}
			],
			"name": "ApprovalForAll",
			"type": "event"
		},
		{
			"anonymous": false,
			"inputs": [
				{
					"indexed": true,
					"internalType": "uint256",
					"name": "tokenId",
					"type": "uint256"
				},
				{
					"indexed": true,
					"internalType": "uint256",
					"name": "backgroundIndex",
					"type": "uint256"
				},
				{
					"indexed": true,
					"internalType": "address",
					"name": "owner",
					"type": "address"
				}
			],
			"name": "BackgroundChanged",
			"type": "event"
		},
		{
			"anonymous": false,
			"inputs": [
				{
					"indexed": false,
					"internalType": "uint256",
					"name": "_fromTokenId",
					"type": "uint256"
				},
				{
					"indexed": false,
					"internalType": "uint256",
					"name": "_toTokenId",
					"type": "uint256"
				}
			],
			"name": "BatchMetadataUpdate",
			"type": "event"
		},
		{
			"anonymous": false,
			"inputs": [
				{
					"indexed": true,
					"internalType": "uint256",
					"name": "fromTokenId",
					"type": "uint256"
				},
				{
					"indexed": false,
					"internalType": "uint256",
					"name": "toTokenId",
					"type": "uint256"
				},
				{
					"indexed": true,
					"internalType": "address",
					"name": "from",
					"type": "address"
				},
				{
					"indexed": true,
					"internalType": "address",
					"name": "to",
					"type": "address"
				}
			],
			"name": "ConsecutiveTransfer",
			"type": "event"
		},
		{
			"anonymous": false,
			"inputs": [
				{
					"indexed": false,
					"internalType": "string",
					"name": "newContractURI",
					"type": "string"
				}
			],
			"name": "ContractURIUpdated",
			"type": "event"
		},
		{
			"anonymous": false,
			"inputs": [
				{
					"indexed": false,
					"internalType": "uint256",
					"name": "seed",
					"type": "uint256"
				}
			],
			"name": "GlobalSeedRevealed",
			"type": "event"
		},
		{
			"anonymous": false,
			"inputs": [
				{
					"indexed": false,
					"internalType": "uint256",
					"name": "newMaxSupply",
					"type": "uint256"
				}
			],
			"name": "MaxSupplyUpdated",
			"type": "event"
		},
		{
			"anonymous": false,
			"inputs": [
				{
					"indexed": true,
					"internalType": "uint256",
					"name": "tokenId",
					"type": "uint256"
				},
				{
					"indexed": true,
					"internalType": "string",
					"name": "name",
					"type": "string"
				},
				{
					"indexed": true,
					"internalType": "address",
					"name": "owner",
					"type": "address"
				}
			],
			"name": "NameChanged",
			"type": "event"
		},
		{
			"anonymous": false,
			"inputs": [
				{
					"indexed": true,
					"internalType": "address",
					"name": "previousOwner",
					"type": "address"
				},
				{
					"indexed": true,
					"internalType": "address",
					"name": "newOwner",
					"type": "address"
				}
			],
			"name": "OwnershipTransferred",
			"type": "event"
		},
		{
			"anonymous": false,
			"inputs": [
				{
					"indexed": false,
					"internalType": "address",
					"name": "newPotentialAdministrator",
					"type": "address"
				}
			],
			"name": "PotentialOwnerUpdated",
			"type": "event"
		},
		{
			"anonymous": false,
			"inputs": [
				{
					"indexed": false,
					"internalType": "bytes32",
					"name": "previousHash",
					"type": "bytes32"
				},
				{
					"indexed": false,
					"internalType": "bytes32",
					"name": "newHash",
					"type": "bytes32"
				}
			],
			"name": "ProvenanceHashUpdated",
			"type": "event"
		},
		{
			"anonymous": false,
			"inputs": [
				{
					"indexed": false,
					"internalType": "address",
					"name": "receiver",
					"type": "address"
				},
				{
					"indexed": false,
					"internalType": "uint256",
					"name": "bps",
					"type": "uint256"
				}
			],
			"name": "RoyaltyInfoUpdated",
			"type": "event"
		},
		{
			"anonymous": false,
			"inputs": [],
			"name": "SeaDropTokenDeployed",
			"type": "event"
		},
		{
			"anonymous": false,
			"inputs": [
				{
					"indexed": false,
					"internalType": "uint256",
					"name": "seed",
					"type": "uint256"
				}
			],
			"name": "ShufflerSeedRevealed",
			"type": "event"
		},
		{
			"anonymous": false,
			"inputs": [
				{
					"indexed": true,
					"internalType": "address",
					"name": "from",
					"type": "address"
				},
				{
					"indexed": true,
					"internalType": "address",
					"name": "to",
					"type": "address"
				},
				{
					"indexed": true,
					"internalType": "uint256",
					"name": "tokenId",
					"type": "uint256"
				}
			],
			"name": "Transfer",
			"type": "event"
		},
		{
			"anonymous": false,
			"inputs": [
				{
					"indexed": false,
					"internalType": "address",
					"name": "oldValidator",
					"type": "address"
				},
				{
					"indexed": false,
					"internalType": "address",
					"name": "newValidator",
					"type": "address"
				}
			],
			"name": "TransferValidatorUpdated",
			"type": "event"
		},
		{
			"anonymous": false,
			"inputs": [
				{
					"indexed": false,
					"internalType": "bool",
					"name": "paused",
					"type": "bool"
				}
			],
			"name": "TransfersPausedChanged",
			"type": "event"
		},
		{
			"inputs": [],
			"name": "COMMITTED_GLOBAL_SEED_HASH",
			"outputs": [
				{
					"internalType": "bytes32",
					"name": "",
					"type": "bytes32"
				}
			],
			"stateMutability": "view",
			"type": "function"
		},
		{
			"inputs": [],
			"name": "COMMITTED_SHUFFLER_SEED_HASH",
			"outputs": [
				{
					"internalType": "bytes32",
					"name": "",
					"type": "bytes32"
				}
			],
			"stateMutability": "view",
			"type": "function"
		},
		{
			"inputs": [],
			"name": "acceptOwnership",
			"outputs": [],
			"stateMutability": "nonpayable",
			"type": "function"
		},
		{
			"inputs": [
				{
					"internalType": "address",
					"name": "to",
					"type": "address"
				},
				{
					"internalType": "uint256",
					"name": "tokenId",
					"type": "uint256"
				}
			],
			"name": "approve",
			"outputs": [],
			"stateMutability": "payable",
			"type": "function"
		},
		{
			"inputs": [
				{
					"internalType": "address",
					"name": "owner",
					"type": "address"
				}
			],
			"name": "balanceOf",
			"outputs": [
				{
					"internalType": "uint256",
					"name": "",
					"type": "uint256"
				}
			],
			"stateMutability": "view",
			"type": "function"
		},
		{
			"inputs": [],
			"name": "baseURI",
			"outputs": [
				{
					"internalType": "string",
					"name": "",
					"type": "string"
				}
			],
			"stateMutability": "view",
			"type": "function"
		},
		{
			"inputs": [
				{
					"internalType": "uint256",
					"name": "tokenId",
					"type": "uint256"
				}
			],
			"name": "burn",
			"outputs": [],
			"stateMutability": "nonpayable",
			"type": "function"
		},
		{
			"inputs": [],
			"name": "cancelOwnershipTransfer",
			"outputs": [],
			"stateMutability": "nonpayable",
			"type": "function"
		},
		{
			"inputs": [],
			"name": "closeMint",
			"outputs": [],
			"stateMutability": "nonpayable",
			"type": "function"
		},
		{
			"inputs": [],
			"name": "contractURI",
			"outputs": [
				{
					"internalType": "string",
					"name": "",
					"type": "string"
				}
			],
			"stateMutability": "view",
			"type": "function"
		},
		{
			"inputs": [],
			"name": "defaultBackgroundIndex",
			"outputs": [
				{
					"internalType": "uint8",
					"name": "",
					"type": "uint8"
				}
			],
			"stateMutability": "view",
			"type": "function"
		},
		{
			"inputs": [
				{
					"internalType": "uint256",
					"name": "fromTokenId",
					"type": "uint256"
				},
				{
					"internalType": "uint256",
					"name": "toTokenId",
					"type": "uint256"
				}
			],
			"name": "emitBatchMetadataUpdate",
			"outputs": [],
			"stateMutability": "nonpayable",
			"type": "function"
		},
		{
			"inputs": [
				{
					"internalType": "uint256",
					"name": "tokenId",
					"type": "uint256"
				}
			],
			"name": "explicitOwnershipOf",
			"outputs": [
				{
					"components": [
						{
							"internalType": "address",
							"name": "addr",
							"type": "address"
						},
						{
							"internalType": "uint64",
							"name": "startTimestamp",
							"type": "uint64"
						},
						{
							"internalType": "bool",
							"name": "burned",
							"type": "bool"
						},
						{
							"internalType": "uint24",
							"name": "extraData",
							"type": "uint24"
						}
					],
					"internalType": "struct IERC721A.TokenOwnership",
					"name": "ownership",
					"type": "tuple"
				}
			],
			"stateMutability": "view",
			"type": "function"
		},
		{
			"inputs": [
				{
					"internalType": "uint256[]",
					"name": "tokenIds",
					"type": "uint256[]"
				}
			],
			"name": "explicitOwnershipsOf",
			"outputs": [
				{
					"components": [
						{
							"internalType": "address",
							"name": "addr",
							"type": "address"
						},
						{
							"internalType": "uint64",
							"name": "startTimestamp",
							"type": "uint64"
						},
						{
							"internalType": "bool",
							"name": "burned",
							"type": "bool"
						},
						{
							"internalType": "uint24",
							"name": "extraData",
							"type": "uint24"
						}
					],
					"internalType": "struct IERC721A.TokenOwnership[]",
					"name": "",
					"type": "tuple[]"
				}
			],
			"stateMutability": "view",
			"type": "function"
		},
		{
			"inputs": [
				{
					"internalType": "uint256",
					"name": "tokenId",
					"type": "uint256"
				}
			],
			"name": "getApproved",
			"outputs": [
				{
					"internalType": "address",
					"name": "",
					"type": "address"
				}
			],
			"stateMutability": "view",
			"type": "function"
		},
		{
			"inputs": [
				{
					"internalType": "address",
					"name": "minter",
					"type": "address"
				}
			],
			"name": "getMintStats",
			"outputs": [
				{
					"internalType": "uint256",
					"name": "minterNumMinted",
					"type": "uint256"
				},
				{
					"internalType": "uint256",
					"name": "currentTotalSupply",
					"type": "uint256"
				},
				{
					"internalType": "uint256",
					"name": "maxSupply",
					"type": "uint256"
				}
			],
			"stateMutability": "view",
			"type": "function"
		},
		{
			"inputs": [],
			"name": "getTransferValidationFunction",
			"outputs": [
				{
					"internalType": "bytes4",
					"name": "functionSignature",
					"type": "bytes4"
				},
				{
					"internalType": "bool",
					"name": "isViewFunction",
					"type": "bool"
				}
			],
			"stateMutability": "pure",
			"type": "function"
		},
		{
			"inputs": [],
			"name": "getTransferValidator",
			"outputs": [
				{
					"internalType": "address",
					"name": "",
					"type": "address"
				}
			],
			"stateMutability": "view",
			"type": "function"
		},
		{
			"inputs": [],
			"name": "globalSeed",
			"outputs": [
				{
					"internalType": "uint256",
					"name": "",
					"type": "uint256"
				}
			],
			"stateMutability": "view",
			"type": "function"
		},
		{
			"inputs": [],
			"name": "globalSeedRevealed",
			"outputs": [
				{
					"internalType": "bool",
					"name": "",
					"type": "bool"
				}
			],
			"stateMutability": "view",
			"type": "function"
		},
		{
			"inputs": [
				{
					"internalType": "uint256",
					"name": "",
					"type": "uint256"
				}
			],
			"name": "globalTokenMetadata",
			"outputs": [
				{
					"internalType": "uint16",
					"name": "tokenIdSeed",
					"type": "uint16"
				},
				{
					"internalType": "uint8",
					"name": "backgroundIndex",
					"type": "uint8"
				},
				{
					"internalType": "string",
					"name": "name",
					"type": "string"
				}
			],
			"stateMutability": "view",
			"type": "function"
		},
		{
			"inputs": [
				{
					"internalType": "address",
					"name": "owner",
					"type": "address"
				},
				{
					"internalType": "address",
					"name": "operator",
					"type": "address"
				}
			],
			"name": "isApprovedForAll",
			"outputs": [
				{
					"internalType": "bool",
					"name": "",
					"type": "bool"
				}
			],
			"stateMutability": "view",
			"type": "function"
		},
		{
			"inputs": [],
			"name": "maxSupply",
			"outputs": [
				{
					"internalType": "uint256",
					"name": "",
					"type": "uint256"
				}
			],
			"stateMutability": "view",
			"type": "function"
		},
		{
			"inputs": [],
			"name": "mintIsClosed",
			"outputs": [
				{
					"internalType": "bool",
					"name": "",
					"type": "bool"
				}
			],
			"stateMutability": "view",
			"type": "function"
		},
		{
			"inputs": [
				{
					"internalType": "address",
					"name": "minter",
					"type": "address"
				},
				{
					"internalType": "uint256",
					"name": "quantity",
					"type": "uint256"
				}
			],
			"name": "mintSeaDrop",
			"outputs": [],
			"stateMutability": "nonpayable",
			"type": "function"
		},
		{
			"inputs": [
				{
					"components": [
						{
							"internalType": "uint256",
							"name": "maxSupply",
							"type": "uint256"
						},
						{
							"internalType": "string",
							"name": "baseURI",
							"type": "string"
						},
						{
							"internalType": "string",
							"name": "contractURI",
							"type": "string"
						},
						{
							"internalType": "address",
							"name": "seaDropImpl",
							"type": "address"
						},
						{
							"components": [
								{
									"internalType": "uint80",
									"name": "mintPrice",
									"type": "uint80"
								},
								{
									"internalType": "uint48",
									"name": "startTime",
									"type": "uint48"
								},
								{
									"internalType": "uint48",
									"name": "endTime",
									"type": "uint48"
								},
								{
									"internalType": "uint16",
									"name": "maxTotalMintableByWallet",
									"type": "uint16"
								},
								{
									"internalType": "uint16",
									"name": "feeBps",
									"type": "uint16"
								},
								{
									"internalType": "bool",
									"name": "restrictFeeRecipients",
									"type": "bool"
								}
							],
							"internalType": "struct PublicDrop",
							"name": "publicDrop",
							"type": "tuple"
						},
						{
							"internalType": "string",
							"name": "dropURI",
							"type": "string"
						},
						{
							"components": [
								{
									"internalType": "bytes32",
									"name": "merkleRoot",
									"type": "bytes32"
								},
								{
									"internalType": "string[]",
									"name": "publicKeyURIs",
									"type": "string[]"
								},
								{
									"internalType": "string",
									"name": "allowListURI",
									"type": "string"
								}
							],
							"internalType": "struct AllowListData",
							"name": "allowListData",
							"type": "tuple"
						},
						{
							"internalType": "address",
							"name": "creatorPayoutAddress",
							"type": "address"
						},
						{
							"internalType": "bytes32",
							"name": "provenanceHash",
							"type": "bytes32"
						},
						{
							"internalType": "address[]",
							"name": "allowedFeeRecipients",
							"type": "address[]"
						},
						{
							"internalType": "address[]",
							"name": "disallowedFeeRecipients",
							"type": "address[]"
						},
						{
							"internalType": "address[]",
							"name": "allowedPayers",
							"type": "address[]"
						},
						{
							"internalType": "address[]",
							"name": "disallowedPayers",
							"type": "address[]"
						},
						{
							"internalType": "address[]",
							"name": "tokenGatedAllowedNftTokens",
							"type": "address[]"
						},
						{
							"components": [
								{
									"internalType": "uint80",
									"name": "mintPrice",
									"type": "uint80"
								},
								{
									"internalType": "uint16",
									"name": "maxTotalMintableByWallet",
									"type": "uint16"
								},
								{
									"internalType": "uint48",
									"name": "startTime",
									"type": "uint48"
								},
								{
									"internalType": "uint48",
									"name": "endTime",
									"type": "uint48"
								},
								{
									"internalType": "uint8",
									"name": "dropStageIndex",
									"type": "uint8"
								},
								{
									"internalType": "uint32",
									"name": "maxTokenSupplyForStage",
									"type": "uint32"
								},
								{
									"internalType": "uint16",
									"name": "feeBps",
									"type": "uint16"
								},
								{
									"internalType": "bool",
									"name": "restrictFeeRecipients",
									"type": "bool"
								}
							],
							"internalType": "struct TokenGatedDropStage[]",
							"name": "tokenGatedDropStages",
							"type": "tuple[]"
						},
						{
							"internalType": "address[]",
							"name": "disallowedTokenGatedAllowedNftTokens",
							"type": "address[]"
						},
						{
							"internalType": "address[]",
							"name": "signers",
							"type": "address[]"
						},
						{
							"components": [
								{
									"internalType": "uint80",
									"name": "minMintPrice",
									"type": "uint80"
								},
								{
									"internalType": "uint24",
									"name": "maxMaxTotalMintableByWallet",
									"type": "uint24"
								},
								{
									"internalType": "uint40",
									"name": "minStartTime",
									"type": "uint40"
								},
								{
									"internalType": "uint40",
									"name": "maxEndTime",
									"type": "uint40"
								},
								{
									"internalType": "uint40",
									"name": "maxMaxTokenSupplyForStage",
									"type": "uint40"
								},
								{
									"internalType": "uint16",
									"name": "minFeeBps",
									"type": "uint16"
								},
								{
									"internalType": "uint16",
									"name": "maxFeeBps",
									"type": "uint16"
								}
							],
							"internalType": "struct SignedMintValidationParams[]",
							"name": "signedMintValidationParams",
							"type": "tuple[]"
						},
						{
							"internalType": "address[]",
							"name": "disallowedSigners",
							"type": "address[]"
						}
					],
					"internalType": "struct ERC721SeaDropStructsErrorsAndEvents.MultiConfigureStruct",
					"name": "config",
					"type": "tuple"
				}
			],
			"name": "multiConfigure",
			"outputs": [],
			"stateMutability": "nonpayable",
			"type": "function"
		},
		{
			"inputs": [],
			"name": "name",
			"outputs": [
				{
					"internalType": "string",
					"name": "",
					"type": "string"
				}
			],
			"stateMutability": "view",
			"type": "function"
		},
		{
			"inputs": [],
			"name": "owner",
			"outputs": [
				{
					"internalType": "address",
					"name": "",
					"type": "address"
				}
			],
			"stateMutability": "view",
			"type": "function"
		},
		{
			"inputs": [
				{
					"internalType": "address",
					"name": "toAddress",
					"type": "address"
				},
				{
					"internalType": "uint256",
					"name": "quantity",
					"type": "uint256"
				}
			],
			"name": "ownerMint",
			"outputs": [],
			"stateMutability": "nonpayable",
			"type": "function"
		},
		{
			"inputs": [],
			"name": "ownerMintsRemaining",
			"outputs": [
				{
					"internalType": "uint256",
					"name": "",
					"type": "uint256"
				}
			],
			"stateMutability": "view",
			"type": "function"
		},
		{
			"inputs": [
				{
					"internalType": "uint256",
					"name": "tokenId",
					"type": "uint256"
				}
			],
			"name": "ownerOf",
			"outputs": [
				{
					"internalType": "address",
					"name": "",
					"type": "address"
				}
			],
			"stateMutability": "view",
			"type": "function"
		},
		{
			"inputs": [],
			"name": "provenanceHash",
			"outputs": [
				{
					"internalType": "bytes32",
					"name": "",
					"type": "bytes32"
				}
			],
			"stateMutability": "view",
			"type": "function"
		},
		{
			"inputs": [],
			"name": "renderer",
			"outputs": [
				{
					"internalType": "contract ISVGRenderer",
					"name": "",
					"type": "address"
				}
			],
			"stateMutability": "view",
			"type": "function"
		},
		{
			"inputs": [],
			"name": "renounceOwnership",
			"outputs": [],
			"stateMutability": "nonpayable",
			"type": "function"
		},
		{
			"inputs": [
				{
					"internalType": "uint256",
					"name": "tokenId",
					"type": "uint256"
				}
			],
			"name": "resetTokenName",
			"outputs": [],
			"stateMutability": "nonpayable",
			"type": "function"
		},
		{
			"inputs": [
				{
					"internalType": "uint256",
					"name": "_seed",
					"type": "uint256"
				},
				{
					"internalType": "uint256",
					"name": "_nonce",
					"type": "uint256"
				}
			],
			"name": "revealGlobalSeed",
			"outputs": [],
			"stateMutability": "nonpayable",
			"type": "function"
		},
		{
			"inputs": [
				{
					"internalType": "uint256",
					"name": "_seed",
					"type": "uint256"
				},
				{
					"internalType": "uint256",
					"name": "_nonce",
					"type": "uint256"
				}
			],
			"name": "revealShufflerSeed",
			"outputs": [],
			"stateMutability": "nonpayable",
			"type": "function"
		},
		{
			"inputs": [],
			"name": "royaltyAddress",
			"outputs": [
				{
					"internalType": "address",
					"name": "",
					"type": "address"
				}
			],
			"stateMutability": "view",
			"type": "function"
		},
		{
			"inputs": [],
			"name": "royaltyBasisPoints",
			"outputs": [
				{
					"internalType": "uint256",
					"name": "",
					"type": "uint256"
				}
			],
			"stateMutability": "view",
			"type": "function"
		},
		{
			"inputs": [
				{
					"internalType": "uint256",
					"name": "",
					"type": "uint256"
				},
				{
					"internalType": "uint256",
					"name": "_salePrice",
					"type": "uint256"
				}
			],
			"name": "royaltyInfo",
			"outputs": [
				{
					"internalType": "address",
					"name": "receiver",
					"type": "address"
				},
				{
					"internalType": "uint256",
					"name": "royaltyAmount",
					"type": "uint256"
				}
			],
			"stateMutability": "view",
			"type": "function"
		},
		{
			"inputs": [
				{
					"internalType": "address",
					"name": "from",
					"type": "address"
				},
				{
					"internalType": "address",
					"name": "to",
					"type": "address"
				},
				{
					"internalType": "uint256",
					"name": "tokenId",
					"type": "uint256"
				}
			],
			"name": "safeTransferFrom",
			"outputs": [],
			"stateMutability": "payable",
			"type": "function"
		},
		{
			"inputs": [
				{
					"internalType": "address",
					"name": "from",
					"type": "address"
				},
				{
					"internalType": "address",
					"name": "to",
					"type": "address"
				},
				{
					"internalType": "uint256",
					"name": "tokenId",
					"type": "uint256"
				},
				{
					"internalType": "bytes",
					"name": "_data",
					"type": "bytes"
				}
			],
			"name": "safeTransferFrom",
			"outputs": [],
			"stateMutability": "payable",
			"type": "function"
		},
		{
			"inputs": [
				{
					"internalType": "address",
					"name": "operator",
					"type": "address"
				},
				{
					"internalType": "bool",
					"name": "approved",
					"type": "bool"
				}
			],
			"name": "setApprovalForAll",
			"outputs": [],
			"stateMutability": "nonpayable",
			"type": "function"
		},
		{
			"inputs": [
				{
					"internalType": "string",
					"name": "newBaseURI",
					"type": "string"
				}
			],
			"name": "setBaseURI",
			"outputs": [],
			"stateMutability": "nonpayable",
			"type": "function"
		},
		{
			"inputs": [
				{
					"internalType": "string",
					"name": "newContractURI",
					"type": "string"
				}
			],
			"name": "setContractURI",
			"outputs": [],
			"stateMutability": "nonpayable",
			"type": "function"
		},
		{
			"inputs": [
				{
					"internalType": "uint256",
					"name": "newMaxSupply",
					"type": "uint256"
				}
			],
			"name": "setMaxSupply",
			"outputs": [],
			"stateMutability": "nonpayable",
			"type": "function"
		},
		{
			"inputs": [
				{
					"internalType": "bytes32",
					"name": "newProvenanceHash",
					"type": "bytes32"
				}
			],
			"name": "setProvenanceHash",
			"outputs": [],
			"stateMutability": "nonpayable",
			"type": "function"
		},
		{
			"inputs": [
				{
					"internalType": "contract ISVGRenderer",
					"name": "_renderer",
					"type": "address"
				}
			],
			"name": "setRenderer",
			"outputs": [],
			"stateMutability": "nonpayable",
			"type": "function"
		},
		{
			"inputs": [
				{
					"components": [
						{
							"internalType": "address",
							"name": "royaltyAddress",
							"type": "address"
						},
						{
							"internalType": "uint96",
							"name": "royaltyBps",
							"type": "uint96"
						}
					],
					"internalType": "struct ISeaDropTokenContractMetadata.RoyaltyInfo",
					"name": "newInfo",
					"type": "tuple"
				}
			],
			"name": "setRoyaltyInfo",
			"outputs": [],
			"stateMutability": "nonpayable",
			"type": "function"
		},
		{
			"inputs": [
				{
					"internalType": "uint256",
					"name": "tokenId",
					"type": "uint256"
				},
				{
					"internalType": "uint256",
					"name": "backgroundIndex",
					"type": "uint256"
				}
			],
			"name": "setTokenBackground",
			"outputs": [],
			"stateMutability": "nonpayable",
			"type": "function"
		},
		{
			"inputs": [
				{
					"internalType": "uint256",
					"name": "tokenId",
					"type": "uint256"
				},
				{
					"internalType": "string",
					"name": "name",
					"type": "string"
				}
			],
			"name": "setTokenName",
			"outputs": [],
			"stateMutability": "nonpayable",
			"type": "function"
		},
		{
			"inputs": [
				{
					"internalType": "address",
					"name": "newValidator",
					"type": "address"
				}
			],
			"name": "setTransferValidator",
			"outputs": [],
			"stateMutability": "nonpayable",
			"type": "function"
		},
		{
			"inputs": [],
			"name": "shufflerSeed",
			"outputs": [
				{
					"internalType": "uint256",
					"name": "",
					"type": "uint256"
				}
			],
			"stateMutability": "view",
			"type": "function"
		},
		{
			"inputs": [],
			"name": "shufflerSeedRevealed",
			"outputs": [
				{
					"internalType": "bool",
					"name": "",
					"type": "bool"
				}
			],
			"stateMutability": "view",
			"type": "function"
		},
		{
			"inputs": [
				{
					"internalType": "bytes4",
					"name": "interfaceId",
					"type": "bytes4"
				}
			],
			"name": "supportsInterface",
			"outputs": [
				{
					"internalType": "bool",
					"name": "",
					"type": "bool"
				}
			],
			"stateMutability": "view",
			"type": "function"
		},
		{
			"inputs": [],
			"name": "symbol",
			"outputs": [
				{
					"internalType": "string",
					"name": "",
					"type": "string"
				}
			],
			"stateMutability": "view",
			"type": "function"
		},
		{
			"inputs": [
				{
					"internalType": "uint256",
					"name": "tokenId",
					"type": "uint256"
				}
			],
			"name": "tokenURI",
			"outputs": [
				{
					"internalType": "string",
					"name": "",
					"type": "string"
				}
			],
			"stateMutability": "view",
			"type": "function"
		},
		{
			"inputs": [
				{
					"internalType": "address",
					"name": "owner",
					"type": "address"
				}
			],
			"name": "tokensOfOwner",
			"outputs": [
				{
					"internalType": "uint256[]",
					"name": "",
					"type": "uint256[]"
				}
			],
			"stateMutability": "view",
			"type": "function"
		},
		{
			"inputs": [
				{
					"internalType": "address",
					"name": "owner",
					"type": "address"
				},
				{
					"internalType": "uint256",
					"name": "start",
					"type": "uint256"
				},
				{
					"internalType": "uint256",
					"name": "stop",
					"type": "uint256"
				}
			],
			"name": "tokensOfOwnerIn",
			"outputs": [
				{
					"internalType": "uint256[]",
					"name": "",
					"type": "uint256[]"
				}
			],
			"stateMutability": "view",
			"type": "function"
		},
		{
			"inputs": [],
			"name": "totalSupply",
			"outputs": [
				{
					"internalType": "uint256",
					"name": "result",
					"type": "uint256"
				}
			],
			"stateMutability": "view",
			"type": "function"
		},
		{
			"inputs": [
				{
					"internalType": "address",
					"name": "from",
					"type": "address"
				},
				{
					"internalType": "address",
					"name": "to",
					"type": "address"
				},
				{
					"internalType": "uint256",
					"name": "tokenId",
					"type": "uint256"
				}
			],
			"name": "transferFrom",
			"outputs": [],
			"stateMutability": "payable",
			"type": "function"
		},
		{
			"inputs": [
				{
					"internalType": "address",
					"name": "newPotentialOwner",
					"type": "address"
				}
			],
			"name": "transferOwnership",
			"outputs": [],
			"stateMutability": "nonpayable",
			"type": "function"
		},
		{
			"inputs": [],
			"name": "transfersPaused",
			"outputs": [
				{
					"internalType": "bool",
					"name": "",
					"type": "bool"
				}
			],
			"stateMutability": "view",
			"type": "function"
		},
		{
			"inputs": [
				{
					"internalType": "address",
					"name": "seaDropImpl",
					"type": "address"
				},
				{
					"components": [
						{
							"internalType": "bytes32",
							"name": "merkleRoot",
							"type": "bytes32"
						},
						{
							"internalType": "string[]",
							"name": "publicKeyURIs",
							"type": "string[]"
						},
						{
							"internalType": "string",
							"name": "allowListURI",
							"type": "string"
						}
					],
					"internalType": "struct AllowListData",
					"name": "allowListData",
					"type": "tuple"
				}
			],
			"name": "updateAllowList",
			"outputs": [],
			"stateMutability": "nonpayable",
			"type": "function"
		},
		{
			"inputs": [
				{
					"internalType": "address",
					"name": "seaDropImpl",
					"type": "address"
				},
				{
					"internalType": "address",
					"name": "feeRecipient",
					"type": "address"
				},
				{
					"internalType": "bool",
					"name": "allowed",
					"type": "bool"
				}
			],
			"name": "updateAllowedFeeRecipient",
			"outputs": [],
			"stateMutability": "nonpayable",
			"type": "function"
		},
		{
			"inputs": [
				{
					"internalType": "address[]",
					"name": "allowedSeaDrop",
					"type": "address[]"
				}
			],
			"name": "updateAllowedSeaDrop",
			"outputs": [],
			"stateMutability": "nonpayable",
			"type": "function"
		},
		{
			"inputs": [
				{
					"internalType": "address",
					"name": "seaDropImpl",
					"type": "address"
				},
				{
					"internalType": "address",
					"name": "payoutAddress",
					"type": "address"
				}
			],
			"name": "updateCreatorPayoutAddress",
			"outputs": [],
			"stateMutability": "nonpayable",
			"type": "function"
		},
		{
			"inputs": [
				{
					"internalType": "address",
					"name": "seaDropImpl",
					"type": "address"
				},
				{
					"internalType": "string",
					"name": "dropURI",
					"type": "string"
				}
			],
			"name": "updateDropURI",
			"outputs": [],
			"stateMutability": "nonpayable",
			"type": "function"
		},
		{
			"inputs": [
				{
					"internalType": "address",
					"name": "seaDropImpl",
					"type": "address"
				},
				{
					"internalType": "address",
					"name": "payer",
					"type": "address"
				},
				{
					"internalType": "bool",
					"name": "allowed",
					"type": "bool"
				}
			],
			"name": "updatePayer",
			"outputs": [],
			"stateMutability": "nonpayable",
			"type": "function"
		},
		{
			"inputs": [
				{
					"internalType": "address",
					"name": "seaDropImpl",
					"type": "address"
				},
				{
					"components": [
						{
							"internalType": "uint80",
							"name": "mintPrice",
							"type": "uint80"
						},
						{
							"internalType": "uint48",
							"name": "startTime",
							"type": "uint48"
						},
						{
							"internalType": "uint48",
							"name": "endTime",
							"type": "uint48"
						},
						{
							"internalType": "uint16",
							"name": "maxTotalMintableByWallet",
							"type": "uint16"
						},
						{
							"internalType": "uint16",
							"name": "feeBps",
							"type": "uint16"
						},
						{
							"internalType": "bool",
							"name": "restrictFeeRecipients",
							"type": "bool"
						}
					],
					"internalType": "struct PublicDrop",
					"name": "publicDrop",
					"type": "tuple"
				}
			],
			"name": "updatePublicDrop",
			"outputs": [],
			"stateMutability": "nonpayable",
			"type": "function"
		},
		{
			"inputs": [
				{
					"internalType": "address",
					"name": "seaDropImpl",
					"type": "address"
				},
				{
					"internalType": "address",
					"name": "signer",
					"type": "address"
				},
				{
					"components": [
						{
							"internalType": "uint80",
							"name": "minMintPrice",
							"type": "uint80"
						},
						{
							"internalType": "uint24",
							"name": "maxMaxTotalMintableByWallet",
							"type": "uint24"
						},
						{
							"internalType": "uint40",
							"name": "minStartTime",
							"type": "uint40"
						},
						{
							"internalType": "uint40",
							"name": "maxEndTime",
							"type": "uint40"
						},
						{
							"internalType": "uint40",
							"name": "maxMaxTokenSupplyForStage",
							"type": "uint40"
						},
						{
							"internalType": "uint16",
							"name": "minFeeBps",
							"type": "uint16"
						},
						{
							"internalType": "uint16",
							"name": "maxFeeBps",
							"type": "uint16"
						}
					],
					"internalType": "struct SignedMintValidationParams",
					"name": "signedMintValidationParams",
					"type": "tuple"
				}
			],
			"name": "updateSignedMintValidationParams",
			"outputs": [],
			"stateMutability": "nonpayable",
			"type": "function"
		},
		{
			"inputs": [
				{
					"internalType": "address",
					"name": "seaDropImpl",
					"type": "address"
				},
				{
					"internalType": "address",
					"name": "allowedNftToken",
					"type": "address"
				},
				{
					"components": [
						{
							"internalType": "uint80",
							"name": "mintPrice",
							"type": "uint80"
						},
						{
							"internalType": "uint16",
							"name": "maxTotalMintableByWallet",
							"type": "uint16"
						},
						{
							"internalType": "uint48",
							"name": "startTime",
							"type": "uint48"
						},
						{
							"internalType": "uint48",
							"name": "endTime",
							"type": "uint48"
						},
						{
							"internalType": "uint8",
							"name": "dropStageIndex",
							"type": "uint8"
						},
						{
							"internalType": "uint32",
							"name": "maxTokenSupplyForStage",
							"type": "uint32"
						},
						{
							"internalType": "uint16",
							"name": "feeBps",
							"type": "uint16"
						},
						{
							"internalType": "bool",
							"name": "restrictFeeRecipients",
							"type": "bool"
						}
					],
					"internalType": "struct TokenGatedDropStage",
					"name": "dropStage",
					"type": "tuple"
				}
			],
			"name": "updateTokenGatedDrop",
			"outputs": [],
			"stateMutability": "nonpayable",
			"type": "function"
		},
		{
			"inputs": [
				{
					"internalType": "bool",
					"name": "paused",
					"type": "bool"
				}
			],
			"name": "updateTransfersPaused",
			"outputs": [],
			"stateMutability": "nonpayable",
			"type": "function"
		}
	]
}