{
	"data": {
		"bytecode": {
			"linkReferences": {
				"src/libraries/TraitsLoader.sol": {
					"TraitsLoader": [
						{
							"length": 20,
							"start": 5499
						},
						{
							"length": 20,
							"start": 7767
						}
					]
				}
			},
			"object": "60c060405234610a1757613fde6040813803918261001c81610a1b565b938492833981010312610a17578051906001600160a01b0382168203610a175760200151906001600160a01b0382168203610a17576040516106c081016001600160401b03811182821017610966576040526100786040610a1b565b6002815261203160f01b602082015281526100936040610a1b565b6002815261101960f11b602082015260208201526100b16040610a1b565b6002815261203360f01b602082015260408201526100cf6040610a1b565b6002815261080d60f21b602082015260608201526100ed6040610a1b565b6002815261203560f01b6020820152608082015261010b6040610a1b565b6002815261101b60f11b602082015260a08201526101296040610a1b565b6002815261203760f01b602082015260c08201526101476040610a1b565b6002815261040760f31b602082015260e08201526101656040610a1b565b6002815261203960f01b60208201526101008201526101846040610a1b565b600381526202031360ec1b60208201526101208201526101a46040610a1b565b600381526220313160e81b60208201526101408201526101c46040610a1b565b600381526210189960e91b60208201526101608201526101e46040610a1b565b6005815264081319599d60da1b60208201526101808201526102066040610a1b565b600681526508149a59da1d60d21b60208201526101a08201526102296040610a1b565b600681526520426c61636b60d01b60208201526101c082015261024c6040610a1b565b600681526510213937bbb760d11b60208201526101e082015261026f6040610a1b565b600781526620426c6f6e646560c81b60208201526102008201526102936040610a1b565b60078152661023b4b733b2b960c91b60208201526102208201526102b76040610a1b565b600681526508131a59da1d60d21b60208201526102408201526102da6040610a1b565b6005815264204461726b60d81b60208201526102608201526102fc6040610a1b565b600781526620536861646f7760c81b60208201526102808201526103206040610a1b565b6005815264204661646560d81b60208201526102a08201526103426040610a1b565b600581526420426c756560d81b60208201526102c08201526103646040610a1b565b60068152651023b932b2b760d11b60208201526102e08201526103876040610a1b565b6007815266204f72616e676560c81b60208201526103008201526103ab6040610a1b565b60058152642050696e6b60d81b60208201526103208201526103cd6040610a1b565b600781526620507572706c6560c81b60208201526103408201526103f16040610a1b565b60048152630814995960e21b60208201526103608201526104126040610a1b565b600a8152692054757271756f69736560b01b60208201526103808201526104396040610a1b565b600681526520576869746560d01b60208201526103a082015261045c6040610a1b565b60078152662059656c6c6f7760c81b60208201526103c08201526104806040610a1b565b600981526820536b7920426c756560b81b60208201526103e08201526104a66040610a1b565b600981526820486f742050696e6b60b81b60208201526104008201526104cc6040610a1b565b600a815269204e656f6e20426c756560b01b60208201526104208201526104f36040610a1b565b600b81526a102732b7b71023b932b2b760a91b602082015261044082015261051b6040610a1b565b600c81526b204e656f6e20507572706c6560a01b60208201526104608201526105446040610a1b565b60098152680813995bdb8814995960ba1b602082015261048082015261056a6040610a1b565b6005815264204772657960d81b60208201526104a082015261058c6040610a1b565b6005815264204e61767960d81b60208201526104c08201526105ae6040610a1b565b60098152682042757267756e647960b81b60208201526104e08201526105d46040610a1b565b600681526520426569676560d01b60208201526105008201526105f76040610a1b565b600a81526908109b1858dac812185d60b21b602082015261052082015261061e6040610a1b565b600a81526908109c9bdddb8812185d60b21b60208201526105408201526106456040610a1b565b600b81526a08109b1bdb99194812185d60aa1b602082015261056082015261066d6040610a1b565b600b81526a0811da5b99d95c8812185d60aa1b60208201526105808201526106956040610a1b565b600981526808109b1d594812185d60ba1b60208201526105a08201526106bb6040610a1b565b600a8152690811dc99595b8812185d60b21b60208201526105c08201526106e26040610a1b565b600b81526a0813dc985b99d94812185d60aa1b60208201526105e082015261070a6040610a1b565b600981526808141a5b9ac812185d60ba1b60208201526106008201526107306040610a1b565b600b81526a08141d5c9c1b194812185d60aa1b60208201526106208201526107586040610a1b565b6008815267081499590812185d60c21b602082015261064082015261077d6040610a1b565b600e81526d08151d5c9c5d5bda5cd94812185d60921b60208201526106608201526107a86040610a1b565b600a8152690815da1a5d194812185d60b21b60208201526106808201526107cf6040610a1b565b600b81526a0816595b1b1bddc812185d60aa1b60208201526106a08201525f5460365f558060361061097a575b505f8080525f516020613fbe5f395f51905f52915b603682106108515750505060805260a05260405161352f9081610a8f8239608051818181610b9e01528181610f7d0152611544015260a05181610b470152f35b80518051906001600160401b0382116109665761086e8554610a40565b601f811161092b575b50602090601f83116001146108c25792826001949360209386955f926108b7575b50505f19600383901b1c191690841b1786555b01930191019091610811565b015190505f80610898565b90601f19831691865f52815f20925f5b81811061091357509360209360019693879693838895106108fb575b505050811b0186556108ab565b01515f1960f88460031b161c191690555f80806108ee565b929360206001819287860151815501950193016108d2565b61095690865f5260205f20601f850160051c8101916020861061095c575b601f0160051c0190610a78565b5f610877565b9091508190610949565b634e487b7160e01b5f52604160045260245ffd5b5f80525f516020613fbe5f395f51905f52017f290decd9548b62a8d60345a988386fc84ba6bc95484008f6362f93160ef3e5995b8181106109bb57506107fc565b806109c860019254610a40565b806109d5575b50016109ae565b601f811183146109ea57505f81555b5f6109ce565b610a0690825f5283601f60205f20920160051c82019101610a78565b805f525f60208120818355556109e4565b5f80fd5b6040519190601f01601f191682016001600160401b0381118382101761096657604052565b90600182811c92168015610a6e575b6020831014610a5a57565b634e487b7160e01b5f52602260045260245ffd5b91607f1691610a4f565b818110610a83575050565b5f8155600101610a7856fe60806040526004361015610011575f80fd5b5f3560e01c806341fcb16014610034576374c2b4511461002f575f80fd5b61019b565b346100985760603660031901126100985761008661009461006f60043561005a8161009c565b6024356100668161009c565b60443591610ab0565b6040929192519384936040855260408501906100a8565b9083820360208501526100a8565b0390f35b5f80fd5b61ffff81160361009857565b805180835260209291819084018484015e5f828201840152601f01601f1916010190565b634e487b7160e01b5f52604160045260245ffd5b604081019081106001600160401b038211176100fb57604052565b6100cc565b608081019081106001600160401b038211176100fb57604052565b90601f801991011681019081106001600160401b038211176100fb57604052565b6040519061014b60e08361011b565b565b6040519061014b60a08361011b565b6040519061014b6104008361011b565b6001600160401b0381116100fb57601f01601f191660200190565b9060206101989281815201906100a8565b90565b34610098576020366003190112610098576004356001600160401b0381116100985736602382011215610098578060040135906101d78261016c565b916101e5604051938461011b565b8083523660248284010111610098575f92816024602094018483013701015261009461020f610c24565b60405191829182610187565b6001600160401b0381116100fb5760051b60200190565b81601f82011215610098578051906102498261016c565b92610257604051948561011b565b8284526020838301011161009857815f9260208093018386015e8301015290565b519063ffffffff8216820361009857565b9080601f830112156100985781516102a08161021b565b926102ae604051948561011b565b81845260208085019260051b82010192831161009857602001905b8282106102d65750505090565b602080916102e384610278565b8152019101906102c9565b519060ff8216820361009857565b9080601f83011215610098578151916103148361021b565b92610322604051948561011b565b80845260208085019160051b830101918383116100985760208101915b83831061034e57505050505090565b82516001600160401b0381116100985782019060e0828703601f1901126100985761037761013c565b9060208301516001600160401b0381116100985787602061039a92860101610232565b82526103a8604084016102ee565b60208301526103b9606084016102ee565b60408301526103ca608084016102ee565b60608301526103db60a084016102ee565b60808301526103ec60c084016102ee565b60a083015260e0830151916001600160401b0383116100985761041788602080969581960101610232565b60c082015281520192019161033f565b91909160a0818403126100985761043c61014d565b928151845260208201516001600160401b0381116100985781610460918401610232565b602085015260408201516001600160401b0381116100985781610484918401610289565b60408501526060820151916001600160401b038311610098576104ae6080926104b99483016102fc565b6060860152016102ee565b6080830152565b5190811515820361009857565b9080601f830112156100985781516104e48161021b565b926104f2604051948561011b565b81845260208085019260051b82010192831161009857602001905b82821061051a5750505090565b60208091610527846104c0565b81520191019061050d565b602081830312610098578051906001600160401b03821161009857016040818303126100985760405191610565836100e0565b81516001600160401b03811161009857820181601f8201121561009857805161058d8161021b565b9161059b604051938461011b565b81835260208084019260051b820101918483116100985760208201905b8382106105ea5750505050835260208201516001600160401b038111610098576105e292016104cd565b602082015290565b81516001600160401b0381116100985760209161060c88848094880101610427565b8152019101906105b8565b6040513d5f823e3d90fd5b5190601b82101561009857565b81601f82011215610098578051906106468261021b565b92610654604051948561011b565b828452602060a081860194028301019181831161009857602001925b82841061067e575050505090565b83820360a0811261009857604080519161069783610100565b6106a087610622565b83526106ae602088016102ee565b60208401526106be8288016104c0565b83830152605f1901126100985760a0916020916040516106dd816100e0565b6106e960608901610622565b81526106f7608089016102ee565b848201526060820152815201930192610670565b519061014b8261009c565b5190600282101561009857565b5190600682101561009857565b5190601d82101561009857565b5190601782101561009857565b5190601482101561009857565b5190600982101561009857565b5190600482101561009857565b5190605882101561009857565b5190601682101561009857565b519060d482101561009857565b5190606a82101561009857565b519060a982101561009857565b5190608082101561009857565b5190601a82101561009857565b5190601f82101561009857565b5190601382101561009857565b5190601582101561009857565b519060c382101561009857565b5190608582101561009857565b5190608382101561009857565b5190607a82101561009857565b602081830312610098578051906001600160401b0382116100985701610400818303126100985761085661015c565b918151916001600160401b0383116100985761087a6103e092610aa794830161062f565b8452610888602082016102ee565b60208501526108996040820161070b565b6040850152606081015160608501526108b46080820161070b565b60808501526108c560a08201610278565b60a08501526108d660c08201610716565b60c08501526108e760e08201610723565b60e08501526108f96101008201610730565b61010085015261090c610120820161073d565b61012085015261091f610140820161074a565b6101408501526109326101608201610757565b6101608501526109456101808201610757565b6101808501526109586101a08201610764565b6101a085015261096b6101c08201610771565b6101c085015261097e6101e0820161077e565b6101e0850152610991610200820161078b565b6102008501526109a46102208201610798565b6102208501526109b761024082016107a5565b6102408501526109ca61026082016107b2565b6102608501526109dd61028082016107bf565b6102808501526109f06102a082016107cc565b6102a0850152610a036102c082016107d9565b6102c0850152610a166102e08201610757565b6102e0850152610a296103008201610757565b610300850152610a3c6103208201610764565b610320850152610a4f61034082016107e6565b610340850152610a6261036082016107f3565b610360850152610a756103808201610800565b610380850152610a886103a0820161080d565b6103a0850152610a9b6103c0820161081a565b6103c08501520161073d565b6103e082015290565b919091610acf6020604051619ca08101604052619c808152015f815290565b6040516368b0b90760e01b8152601b600482015290935f8260248173__$856d4e0bd37480d9335e53b1c9958c1873$__5af4918215610bfb575f92610c00575b506040516307e9065b60e51b815261ffff9384166004820152921660248301526044820192909252905f826064816001600160a01b037f0000000000000000000000000000000000000000000000000000000000000000165afa918215610bfb575f92610bd7575b50610b8f610b8a608084015161ffff1690565b610c60565b610bcd5790610bc991610bc4827f000000000000000000000000000000000000000000000000000000000000000083876113c2565b611789565b9091565b90610bc992610f3b565b610bf49192503d805f833e610bec818361011b565b810190610827565b905f610b77565b610617565b5f9250610c1e903d8085833e610c16818361011b565b810190610532565b91610b0f565b60405190610c3360208361011b565b5f8252565b634e487b7160e01b5f52601160045260245ffd5b634e487b7160e01b5f52602160045260245ffd5b61ffff811615610cf55761ffff5f1991160161ffff8111610cf05761ffff1660048114908115610ce5575b8115610cda575b8115610ccf575b8115610cc4575b8115610cb9575b8115610cb1575090565b600d91501490565b600b81149150610ca7565b600881149150610ca0565b600781149150610c99565b600681149150610c92565b600581149150610c8b565b610c38565b505f90565b61ffff60649116019061ffff8211610cf057565b906020828203126100985781516001600160401b038111610098576101989201610232565b60405190610d4260608361011b565b603c82527f30302f737667222076696577426f783d22302030203438203438223e000000006040837f3c73766720786d6c6e733d22687474703a2f2f7777772e77332e6f72672f323060208201520152565b60405190610da360608361011b565b602e82526d30ba32b21dbe9e17b9ba3cb6329f60911b6040837f3c7374796c653e696d677b696d6167652d72656e646572696e673a706978656c60208201520152565b60405190610df560408361011b565b601782527f3c672069643d2247656e657261746564496d616765223e0000000000000000006020830152565b60405190610e3060608361011b565b602682527f3c666f726569676e4f626a6563742077696474683d22343822206865696768746020830152651e911a1c111f60d11b6040830152565b60405190610e7a60808361011b565b60458252641cd94d8d0b60da1b6060837f3c696d6720786d6c6e733d22687474703a2f2f7777772e77332e6f72672f313960208201527f39392f7868746d6c22207372633d22646174613a696d6167652f706e673b626160408201520152565b60405190610ee960608361011b565b603882527f666f726569676e4f626a6563743e3c2f673e3c2f7376673e00000000000000006040837f222077696474683d223130302522206865696768743d2231303025222f3e3c2f60208201520152565b90610f79919392935f610f5561ffff608085015116610cfa565b6040516369dde37960e01b815261ffff909116600482015293849081906024820190565b03817f00000000000000000000000000000000000000000000000000000000000000006001600160a01b03165afa928315610bfb5761019893611001915f91611018575b50610fcf610fc9610d33565b84611c76565b610fda610fc9610d94565b610fe5610fc9610de6565b610ff0610fc9610e21565b610ffb610fc9610e6b565b82611cb9565b61101261100c610eda565b82611c76565b93611789565b61103491503d805f833e61102c818361011b565b810190610d0e565b5f610fbd565b601b111561104457565b610c4c565b906020828203126100985781516001600160401b038111610098576101989201610427565b9080602083519182815201916020808360051b8301019401925f915b83831061109957505050505090565b909192939460208061111f600193601f1986820301875289519060c06110c8835160e0845260e08401906100a8565b9260ff86820151168684015260ff604082015116604084015260ff60608201511660608401526111026080820151608085019060ff169052565b60a08181015160ff169084015201519060c08184039101526100a8565b9701930193019193929061108a565b90602080835192838152019201905f5b81811061114b5750505090565b8251151584526020938401939092019160010161113e565b92919060018060a01b031683526060602084015260a083019080519160406060860152825180915260c0850190602060c08260051b8801019401915f905b8282106111cf57505050506111ca60019260206040930151605f1987830301608088015261112e565b930152565b9091929460bf19888203018252855190815181526111fc602083015160a0602084015260a08301906100a8565b6040830151908281036040840152602080835192838152019201905f905b80821061126057505050826112526020936080806112478796606060019a0151858203606087015261106e565b94015160ff16910152565b9701920192019092916111a1565b90919260208060019263ffffffff875116815201940192019061121a565b9392919060018060a01b031684526060602085015260a084019080519160406060870152825180915260c0860190602060c08260051b8901019401915f905b8282106112e4575050505060200151848203605f190160808601526040916111ca9161112e565b9091929460bf1989820301825285519081518152611311602083015160a0602084015260a08301906100a8565b6040830151908281036040840152602080835192838152019201905f905b80821061136a575050508261135c6020936080806112478796606060019a0151858203606087015261106e565b9701920192019092916112bd565b90919260208060019263ffffffff875116815201940192019061132f565b634e487b7160e01b5f52603260045260245ffd5b80518210156113b05760209160051b010190565b611388565b51601b8110156110445790565b9293919373__$856d4e0bd37480d9335e53b1c9958c1873$__92604051635de99db160e11b81525f81806113fa878b60048401611163565b0381885af48015610bfb57611568575b505f5b61142461141e602085015160ff1690565b60ff1690565b811015611539576114685f61144361143d84875161139c565b516113b5565b61144c8161103a565b60405180938192635de99db160e11b8352898d6004850161127e565b0381895af48015610bfb57611521575b50611491604061148983865161139c565b510151151590565b61149e575b60010161140d565b805f6114c76114be60606114b66114e396895161139c565b5101516113b5565b61141e8161103a565b60405180948192635de99db160e11b8352898d6004850161127e565b0381895af4918215610bfb576001926114ff575b509050611496565b61151a903d805f833e611512818361011b565b810190611049565b505f6114f7565b611534903d805f833e611512818361011b565b611478565b509450915061014b927f00000000000000000000000000000000000000000000000000000000000000006119a8565b61157b903d805f833e611512818361011b565b61140a565b6040519061158f60408361011b565b600e82526d2261747472696275746573223a5b60901b6020830152565b604051906115bb60608361011b565b603782527f7065223a224269727468646179222c2276616c7565223a0000000000000000006040837f7b22646973706c61795f74797065223a2264617465222c2274726169745f747960208201520152565b6040519061161c60408361011b565b60018252607d60f81b6020830152565b6040519061163b60408361011b565b60018252600b60fa1b6020830152565b5f54906116578261021b565b91611665604051938461011b565b8083525f808052907f290decd9548b62a8d60345a988386fc84ba6bc95484008f6362f93160ef3e563602085015b8284106116a05750505050565b6040515f83548060011c9060018116908115611760575b60208310821461174c57828552602085019190811561173557506001146116fc575b5050600192826116ee8594602094038261011b565b815201920193019290611693565b90915061170c855f5260205f2090565b915f925b8184106117215750500182826116d9565b600181602092548686015201930192611710565b60ff191682525090151560051b01905082826116d9565b634e487b7160e01b5f52602260045260245ffd5b91607f16916116b7565b6040519061177960408361011b565b60018252605d60f81b6020830152565b906117a6602060405161083081016040526108108152015f815290565b6117b161100c611580565b6117bc61100c6115ac565b6117e461100c6117df6117d660a086015163ffffffff1690565b63ffffffff1690565b611ab6565b6117ef61100c61160d565b5f5b61180261141e602085015160ff1690565b8110156118af578061181a61143d600193865161139c565b6118238161103a565b61183f61141e602061183685895161139c565b51015160ff1690565b908381146118a8576118a291602061189a61186d611861610fc9958c5161139c565b5193606085015161139c565b5161187f61187961162c565b8a611c76565b83519061188b8261103a565b5161189461164b565b91611afb565b910151611c0f565b016117f1565b50506118a2565b5091505061019861100c61176a565b610600906040516118cf838261011b565b80925f5b8181106118df57505050565b6020906040516118ef848261011b565b8336823781850152016118d3565b6040519061190c60808361011b565b605982527f652d72656e646572696e673d2263726973704564676573223e000000000000006060837f3c73766720786d6c6e733d22687474703a2f2f7777772e77332e6f72672f323060208201527f30302f737667222076696577426f783d2230203020343820343822207368617060408201520152565b6040519061199360408361011b565b60068252651e17b9bb339f60d11b6020830152565b926119b16118be565b915f5b6119c561141e602085015160ff1690565b811015611a7c578060016119de61143d8294875161139c565b6119e78161103a565b14611a7757611a23611a0b8751611a056114be61143d868a5161139c565b9061139c565b51611a1c602061183685895161139c565b9087611e48565b611a33604061148983875161139c565b611a3e575b016119b4565b611a77611a598751611a056114be60606114b6878b5161139c565b51611a1c60206060611a6c868a5161139c565b510151015160ff1690565b611a38565b509291611aa38492611aa8948461014b98611a9e611a986118fd565b83611c76565b6123cd565b6126b7565b611ab0611984565b90611c76565b90604051600a608082019360a083016040525f8552935b5f190193603082820601855304928315611ae957600a90611acd565b809350608091030191601f1901918252565b919091611b078161103a565b60028114908115611be8575b8115611bd3575b8115611bbe575b8115611ba9575b8115611b94575b8115611b7f575b8115611b6a575b8115611b56575b50611b4d575090565b61019891612814565b60189150611b638161103a565b145f611b44565b9050611b758161103a565b6016811490611b3d565b9050611b8a8161103a565b6015811490611b36565b9050611b9f8161103a565b600d811490611b2f565b9050611bb48161103a565b600b811490611b28565b9050611bc98161103a565b600a811490611b21565b9050611bde8161103a565b6007811490611b1a565b9050611bf38161103a565b600e811490611b13565b805191908290602001825e015f815290565b600261014b91611c5f611c479594600b6040519788946e3d913a3930b4ba2fba3cb832911d1160891b6020870152602f860190611bfd565b6a1116113b30b63ab2911d1160a91b81520190611bfd565b61227d60f01b815203601d1981018552018361011b565b90611c8281518361298b565b8051906020828183019201019060208451850101905b828110611ca9575050508151019052565b8051825260209182019101611c98565b81518015611d9d576003600282010460021b906003810690611cdb838561298b565b604051947f4142434445464748494a4b4c4d4e4f505152535455565758595a616263646566601f5261022f197f6768696a6b6c6d6e6f707172737475767778797a303132333435363738392d5f01603f526004600360208751880101938301925b0192603f8451818160121c165183538181600c1c16516001840153818160061c1651600284015316516003820153019181811015611d7e576003600491611d3c565b50506001603d92838115158403531460011b9003538151019052604052565b505050565b5f198114610cf05760010190565b9081518110156113b0570160200190565b6103e80190816103e811610cf057565b9060018201809211610cf057565b91908201809211610cf057565b9060ff8091169116019060ff8211610cf057565b9060308110156113b05760051b0190565b60ff5f199116019060ff8211610cf057565b9060ff8091169116039060ff8211610cf057565b60ff1660ff8114610cf05760010190565b91611e5f9093919360ff606086015191169061139c565b5160c0810151935f946040830195611e78875160ff1690565b956080611e89606087015160ff1690565b9501965b8351831015611fc157611ec3611ebd611eaf611ea886611da2565b9587611db0565b516001600160f81b03191690565b60f81c90565b906080860193611ee0611eda61141e875160ff1690565b82611ddf565b8651106120ac57611f2f611f1e82611f1861141e611f108b611f39979c9e9c611f0a8d5160ff1690565b916129fb565b995160ff1690565b90611ddf565b9561ffff60408a015191169061139c565b5163ffffffff1690565b60ff8316905f5b8260ff821610611fe65750505090611f5791611dec565b875160ff169060ff821660ff82161180611fcc575b15611fa157611f89611f84611f9b93611f9593611e23565b611e11565b8a5160ff165b90611dec565b93611e37565b92611f57565b9397959192949050603060ff89161015611fc15793919092969496611e8d565b505050505050915050565b50611fdb61141e8b5160ff1690565b60ff83161015611f6c565b6001818d60ff61200861141e9c9e9c61200083978b611dec565b935160ff1690565b911690811115806120a2575b8d81612095575b5061202c575b500116989698611f40565b8c63ffffffff8616635f5d6eff0361205d575f9161204f8661205593168c611e00565b51611e00565b525b5f612021565b859085821661206f575b505050612057565b61208d9261204f8761208293168d611e00565b9063ffffffff169052565b5f848d612067565b603091508516108d61201b565b5060308110612014565b5050505050505050915050565b6006111561104457565b6014111561104457565b60ff1660148110156110445790565b604051906120eb60608361011b565b602382527f3c726563742077696474683d22343822206865696768743d223438222066696c602083015262361e9160e91b6040830152565b6040519061213260408361011b565b600382526211179f60e91b6020830152565b6040519061215360608361011b565b602f82526e17b337b932b4b3b727b13532b1ba1f60891b6040837f222077696474683d223130302522206865696768743d223130302522202f3e3c60208201520152565b604051906121a660408361011b565b601d82527f3c646566733e3c72616469616c4772616469656e742069643d2262672d0000006020830152565b604051906121e160408361011b565b6002825261111f60f11b6020830152565b6040519061220160808361011b565b604382526262672d60e81b6060837f3c2f72616469616c4772616469656e743e3c2f646566733e3c7265637420776960208201527f6474683d22343822206865696768743d223438222066696c6c3d2275726c282360408201520152565b6040519061226e60408361011b565b60048252631491179f60e11b6020830152565b6040519061229060408361011b565b601d82527f3c646566733e3c6c696e6561724772616469656e742069643d2262672d0000006020830152565b604051906122cb60408361011b565b600682526511103c189e9160d11b6020830152565b604051906122ef60408361011b565b600682526511103c989e9160d11b6020830152565b6040519061231360408361011b565b600682526511103c191e9160d11b6020830152565b6040519061233760408361011b565b600682526511103c991e9160d11b6020830152565b634e487b7160e01b5f52601260045260245ffd5b6040519061236f60808361011b565b604382526262672d60e81b6060837f3c2f6c696e6561724772616469656e743e3c2f646566733e3c7265637420776960208201527f6474683d22343822206865696768743d223438222066696c6c3d2275726c282360408201520152565b91909160016123dd81845161139c565b5161240260e06060830151970196611a0588516123f9816120b9565b61141e816120b9565b519261241a612415602086015160ff1690565b6120cd565b91612424836120c3565b6002831461265b5750612444875161243b816120b9565b6117df816120b9565b9661244e836120c3565b8383146125c0575050612460816120c3565b601381146125815791612551939161014b969361248461247e612281565b88611c76565b61248e8588611c76565b61249961247e6122bc565b6124b061247e6117df61141e604087015160ff1690565b6124bb61247e6122e0565b6124d261247e6117df61141e606087015160ff1690565b6124dd61247e612304565b6124f461247e6117df61141e608087015160ff1690565b6124ff61247e612328565b61251661247e6117df61141e60a087015160ff1690565b61252161247e6121d2565b61252a816120c3565b60018116159081612568575b5015612559576125469286612ec0565b61100c610fc9612360565b611ab061225f565b6125639286612d28565b612546565b600491508061257860ff926120c3565b1610155f612536565b5061014b94916125b5916125519461259a61247e612197565b6125a48588611c76565b6125af61247e6121d2565b86612d28565b61100c610fc96121f2565b9150925061260a95505f93506125e99150516125db816120b9565b6125e4816120b9565b611dc1565b9060405180809681946369dde37960e01b8352600483019190602083019252565b03916001600160a01b03165afa918215610bfb5761014b92612639915f91612641575b50610fe5610fc9610d94565b611ab0612144565b61265591503d805f833e61102c818361011b565b5f61262d565b61014b97506126af9550611f2f935061269e949250611a05915080612691608060c0604061269795015196015192015160ff1690565b906129a8565b61ffff1690565b6126a9610fc96120dc565b82612a94565b611ab0612123565b915f5b60ff81169260308410156127c0575f949294925b60ff841660308110156127ae57611f2f6126ec9161204f8885611e00565b9563ffffffff871690811580156127a3575b6127955760015b87838883603061271861141e8385611dec565b109384612760575b50505050156127375761273290611e37565b612705565b6127549250611f8f90611f84612759959a9893988289868a613022565b611e37565b92946126ce565b61278b9394509161278561141e611f2f9361277e6117d6968d611e00565b5193611dec565b90611e00565b148388838b612720565b949050612759919650611e37565b5060ff8816156126fe565b5094909350915060010160ff166126ba565b5050915050565b5f19810191908211610cf057565b91908203918211610cf057565b906127ec8261016c565b6127f9604051918261011b565b828152809261280a601f199161016c565b0190602036910137565b915f905b82518210156129125761282b828461139c565b518451815110612841575b509060010190612818565b6001935f5b82518082101561290757611eaf61286a83612865612870948c516127d5565b611ddf565b89611db0565b61288d612880611eaf8487611db0565b6001600160f81b03191690565b6001600160f81b0319909116036128a657600101612846565b5093505f9291925b6128ba57919091612836565b6128d49293506128cf915084519051906127d5565b6127e2565b5f5b815181101561290257806128ef611eaf60019387611db0565b5f1a6128fb8285611db0565b53016128d6565b509150565b5050939291926128ae565b915050565b601f1981015190516009810191603f1901908210610cf0571061293657565b60405162461bcd60e51b815260206004820152602760248201527f44796e616d69634275666665723a20417070656e64696e67206f7574206f66206044820152663137bab732399760c91b6064820152608490fd5b603f19601f19820151019051918201809211610cf0571061293657565b9060ff166001146129ea578051156113b057602081015160f01c61ff0016906129e69061141e90611ebd90611eaf906129e05f611dd1565b90611db0565b1790565b8051156113b0576020015160f81c90565b909160ff16600114612a365760ff612a2c826129e061ff00612a1e878697611db0565b5160f81c60081b1695611dd1565b5160f81c16161790565b90612a4091611db0565b5160f81c90565b60405190612a5660408361011b565b601082526f181899199a1a9b1b9c1cb0b131b232b360811b6020830152565b60405190612a8460408361011b565b60018252602360f81b6020830152565b9061014b91612be8612aa4612a47565b612aaf610fc9612a75565b612bda612ac6611eaf601c87901c600f1684611db0565b91612aeb611eaf612ae5600f60188a901c60ff165b1663ffffffff1690565b83611db0565b95612b0b611eaf612b05600f601485901c610fff16612adb565b84611db0565b91612b25611eaf612ae5600f601086901c61ffff16612adb565b612b3f611eaf612b05600f600c87901c620fffff16612adb565b90612b89611eaf612b6481612b5e600f60088a901c62ffffff16612adb565b87611db0565b94600f612b81611eaf612b058360048c901c630fffffff16612adb565b971690611db0565b6040516001600160f81b031998891660208201529a881660218c015294871660228b0152861660238a0152851660248901528416602588015283166026870152909116602785015283906028820190565b03601f19810184528361011b565b611c76565b8115612bf7570490565b61234c565b60405190612c0b60408361011b565b601282527101e39ba37b81037b33339b2ba1e91181291160751b6020830152565b60405190612c3b60408361011b565b6002825261179f60f11b6020830152565b60405190612c5b60408361011b565b601482527301e39ba37b81037b33339b2ba1e911898181291160651b6020830152565b81810292918115918404141715610cf057565b90606482029180830560641490151715610cf057565b90620f4240820291808305620f42401490151715610cf057565b8115612bf757600160ff1b81145f19831416610cf0570590565b60405190612cea60408361011b565b600e82526d1e39ba37b81037b33339b2ba1e9160911b6020830152565b60405190612d1660408361011b565b600382526201291160ed1b6020830152565b91612d369060c0925161139c565b519201805151908115612e8c57612d5f6080850192612d5961141e855160ff1690565b90612bed565b9160018314612e2b579093604001905f5b838110612d7f57505050505050565b600190612e14612dbe611f2f612db18a51612da7612da161141e8a5160ff1690565b87612c7e565b885160ff16611f0a565b61ffff885191169061139c565b612e03612dec612de7612dd8612dd387612c91565b612ca7565b612de18b6127c7565b90612cc1565b61321e565b612dfd612df7612cdb565b8b611c76565b89611c76565b612e0e612dfd612d07565b8761314b565b612e25612e1f612c2c565b87611c76565b01612d70565b612e849250612e5391611a05612697611f2f93612691604061014b9a01519451915160ff1690565b612e5e610fc9612bfc565b612e68818461314b565b612e73610fc9612c2c565b612e7e610fc9612c4c565b8261314b565b611ab0612c2c565b50505050565b60405190612ea160408361011b565b601082526f179f1e39ba37b81037b33339b2ba1e9160811b6020830152565b91612ece9060c0925161139c565b519201805151908115612e8c5792612ef26080820192612d5961141e855160ff1690565b9160405f9201915b838110612f0957505050505050565b600190612f96612f2b611f2f612db18a51612da7612da161141e8a5160ff1690565b612e03612f46612de789612f41612dd388612c91565b612cc1565b612f76612f64612de78b612f41612dd3612f5f8b611dd1565b612c91565b91612df7612f70612cdb565b8d611c76565b612f81612df7612d07565b612f8b838b61314b565b612dfd612df7612e92565b612fa1612e1f612c2c565b01612efa565b60405190612fb660408361011b565b600582526411103c9e9160d91b6020830152565b60405190612fd960408361011b565b600982526811103bb4b23a341e9160b91b6020830152565b6040519061300060408361011b565b601382527211103432b4b3b43a1e911891103334b6361e9160691b6020830152565b92909493916040519561303660408861011b565b60098752681e3932b1ba103c1e9160b91b6020880190815261305786612917565b60208851809299010160208751880101985b8181106130cf57505061014b9697506126af94936130b961247e60ff6130c4966130a86130a283610fc9998e829a815101905216611ab6565b8c611c76565b6130b36130a2612fa7565b16611ab6565b6130b361247e612fca565b6126a9610fc9612ff1565b80518a526020998a019901613069565b604051906130ee60408361011b565b6002825261149160f11b6020830152565b6040519061310e60408361011b565b600f82526e1039ba37b816b7b830b1b4ba3c9e9160891b6020830152565b6040519061313b60408361011b565b60018252601160f91b6020830152565b6131d961100c60ff8460181c16936131ce6131c860ff6131708461ffff9060101c1690565b166131bd61247e60ff8080600889901c62ffffff161697169a6130b360405161319a60408261011b565b601081526f0e6e8dee05ac6ded8dee47a44e4cec4560831b60208201528c611c76565b6117df61247e61162c565b85611c76565b6117df6131c861162c565b6131e461100c6130df565b60ff82106131f0575050565b61320a61100c61014b936132056131c86130ff565b61334a565b611ab061312c565b8015610cf0575f190190565b6132a961328891612710810290620f42408061324561271061324083876133f4565b6133fe565b930760011b1215613340575b5f8212613335575b61327561326d620f424061329b9305613408565b926004613437565b6132956040519586946020860190611bfd565b601760f91b815260010190565b90611bfd565b03601f19810183528261011b565b6132b381516127c7565b80151580613312575b156132cf576132ca90613212565b6132b3565b61019891906132fe90601760f91b6001600160f81b03196132f3611eaf8487611db0565b161461330457611dd1565b90613481565b61330d90613212565b611dd1565b50600360fc1b6001600160f81b031961332e611eaf8486611db0565b16146132bc565b5f9190910390613259565b9060010190613251565b61339661328891606481029060ff80613368606461324083876133f4565b930760011b12156133ea575b5f82126133df575b61327561338e60ff61329b9305613408565b926002613437565b6133a081516127c7565b801515806133bc575b156132cf576133b790613212565b6133a0565b50600360fc1b6001600160f81b03196133d8611eaf8486611db0565b16146133a9565b5f919091039061337c565b9060010190613374565b8115612bf7570590565b8115612bf7570790565b5f81121561342e5761341b905f03611ab6565b906001825192602d81525f190192018252565b61019890611ab6565b906060915f5b81811061344a5750505090565b909192600a61329561347760019361329b613466858a07613408565b916040519485936020850190611bfd565b940592910161343d565b91905f926060938151838111156134f1575b80156134e9575b508281106134a757505050565b6040519450918290039101601f8201601f19165b8181015185820152601f19019081156134d457906134bb565b505060408184015f6020820152016040528252565b90505f61349a565b92508261349356fea2646970667358221220715e455ffde0346cb3f640f72cbfcf6bf9a7da2d512d52d70174486951a487af64736f6c634300081e0033290decd9548b62a8d60345a988386fc84ba6bc95484008f6362f93160ef3e563",
			"opcodes": "PUSH1 0xC0 PUSH1 0x40 MSTORE CALLVALUE PUSH2 0xA17 JUMPI PUSH2 0x3FDE PUSH1 0x40 DUP2 CODESIZE SUB SWAP2 DUP3 PUSH2 0x1C DUP2 PUSH2 0xA1B JUMP JUMPDEST SWAP4 DUP5 SWAP3 DUP4 CODECOPY DUP2 ADD SUB SLT PUSH2 0xA17 JUMPI DUP1 MLOAD SWAP1 PUSH1 0x1 PUSH1 0x1 PUSH1 0xA0 SHL SUB DUP3 AND DUP3 SUB PUSH2 0xA17 JUMPI PUSH1 0x20 ADD MLOAD SWAP1 PUSH1 0x1 PUSH1 0x1 PUSH1 0xA0 SHL SUB DUP3 AND DUP3 SUB PUSH2 0xA17 JUMPI PUSH1 0x40 MLOAD PUSH2 0x6C0 DUP2 ADD PUSH1 0x1 PUSH1 0x1 PUSH1 0x40 SHL SUB DUP2 GT DUP3 DUP3 LT OR PUSH2 0x966 JUMPI PUSH1 0x40 MSTORE PUSH2 0x78 PUSH1 0x40 PUSH2 0xA1B JUMP JUMPDEST PUSH1 0x2 DUP2 MSTORE PUSH2 0x2031 PUSH1 0xF0 SHL PUSH1 0x20 DUP3 ADD MSTORE DUP2 MSTORE PUSH2 0x93 PUSH1 0x40 PUSH2 0xA1B JUMP JUMPDEST PUSH1 0x2 DUP2 MSTORE PUSH2 0x1019 PUSH1 0xF1 SHL PUSH1 0x20 DUP3 ADD MSTORE PUSH1 0x20 DUP3 ADD MSTORE PUSH2 0xB1 PUSH1 0x40 PUSH2 0xA1B JUMP JUMPDEST PUSH1 0x2 DUP2 MSTORE PUSH2 0x2033 PUSH1 0xF0 SHL PUSH1 0x20 DUP3 ADD MSTORE PUSH1 0x40 DUP3 ADD MSTORE PUSH2 0xCF PUSH1 0x40 PUSH2 0xA1B JUMP JUMPDEST PUSH1 0x2 DUP2 MSTORE PUSH2 0x80D PUSH1 0xF2 SHL PUSH1 0x20 DUP3 ADD MSTORE PUSH1 0x60 DUP3 ADD MSTORE PUSH2 0xED PUSH1 0x40 PUSH2 0xA1B JUMP JUMPDEST PUSH1 0x2 DUP2 MSTORE PUSH2 0x2035 PUSH1 0xF0 SHL PUSH1 0x20 DUP3 ADD MSTORE PUSH1 0x80 DUP3 ADD MSTORE PUSH2 0x10B PUSH1 0x40 PUSH2 0xA1B JUMP JUMPDEST PUSH1 0x2 DUP2 MSTORE PUSH2 0x101B PUSH1 0xF1 SHL PUSH1 0x20 DUP3 ADD MSTORE PUSH1 0xA0 DUP3 ADD MSTORE PUSH2 0x129 PUSH1 0x40 PUSH2 0xA1B JUMP JUMPDEST PUSH1 0x2 DUP2 MSTORE PUSH2 0x2037 PUSH1 0xF0 SHL PUSH1 0x20 DUP3 ADD MSTORE PUSH1 0xC0 DUP3 ADD MSTORE PUSH2 0x147 PUSH1 0x40 PUSH2 0xA1B JUMP JUMPDEST PUSH1 0x2 DUP2 MSTORE PUSH2 0x407 PUSH1 0xF3 SHL PUSH1 0x20 DUP3 ADD MSTORE PUSH1 0xE0 DUP3 ADD MSTORE PUSH2 0x165 PUSH1 0x40 PUSH2 0xA1B JUMP JUMPDEST PUSH1 0x2 DUP2 MSTORE PUSH2 0x2039 PUSH1 0xF0 SHL PUSH1 0x20 DUP3 ADD MSTORE PUSH2 0x100 DUP3 ADD MSTORE PUSH2 0x184 PUSH1 0x40 PUSH2 0xA1B JUMP JUMPDEST PUSH1 0x3 DUP2 MSTORE PUSH3 0x20313 PUSH1 0xEC SHL PUSH1 0x20 DUP3 ADD MSTORE PUSH2 0x120 DUP3 ADD MSTORE PUSH2 0x1A4 PUSH1 0x40 PUSH2 0xA1B JUMP JUMPDEST PUSH1 0x3 DUP2 MSTORE PUSH3 0x203131 PUSH1 0xE8 SHL PUSH1 0x20 DUP3 ADD MSTORE PUSH2 0x140 DUP3 ADD MSTORE PUSH2 0x1C4 PUSH1 0x40 PUSH2 0xA1B JUMP JUMPDEST PUSH1 0x3 DUP2 MSTORE PUSH3 0x101899 PUSH1 0xE9 SHL PUSH1 0x20 DUP3 ADD MSTORE PUSH2 0x160 DUP3 ADD MSTORE PUSH2 0x1E4 PUSH1 0x40 PUSH2 0xA1B JUMP JUMPDEST PUSH1 0x5 DUP2 MSTORE PUSH5 0x81319599D PUSH1 0xDA SHL PUSH1 0x20 DUP3 ADD MSTORE PUSH2 0x180 DUP3 ADD MSTORE PUSH2 0x206 PUSH1 0x40 PUSH2 0xA1B JUMP JUMPDEST PUSH1 0x6 DUP2 MSTORE PUSH6 0x8149A59DA1D PUSH1 0xD2 SHL PUSH1 0x20 DUP3 ADD MSTORE PUSH2 0x1A0 DUP3 ADD MSTORE PUSH2 0x229 PUSH1 0x40 PUSH2 0xA1B JUMP JUMPDEST PUSH1 0x6 DUP2 MSTORE PUSH6 0x20426C61636B PUSH1 0xD0 SHL PUSH1 0x20 DUP3 ADD MSTORE PUSH2 0x1C0 DUP3 ADD MSTORE PUSH2 0x24C PUSH1 0x40 PUSH2 0xA1B JUMP JUMPDEST PUSH1 0x6 DUP2 MSTORE PUSH6 0x10213937BBB7 PUSH1 0xD1 SHL PUSH1 0x20 DUP3 ADD MSTORE PUSH2 0x1E0 DUP3 ADD MSTORE PUSH2 0x26F PUSH1 0x40 PUSH2 0xA1B JUMP JUMPDEST PUSH1 0x7 DUP2 MSTORE PUSH7 0x20426C6F6E6465 PUSH1 0xC8 SHL PUSH1 0x20 DUP3 ADD MSTORE PUSH2 0x200 DUP3 ADD MSTORE PUSH2 0x293 PUSH1 0x40 PUSH2 0xA1B JUMP JUMPDEST PUSH1 0x7 DUP2 MSTORE PUSH7 0x1023B4B733B2B9 PUSH1 0xC9 SHL PUSH1 0x20 DUP3 ADD MSTORE PUSH2 0x220 DUP3 ADD MSTORE PUSH2 0x2B7 PUSH1 0x40 PUSH2 0xA1B JUMP JUMPDEST PUSH1 0x6 DUP2 MSTORE PUSH6 0x8131A59DA1D PUSH1 0xD2 SHL PUSH1 0x20 DUP3 ADD MSTORE PUSH2 0x240 DUP3 ADD MSTORE PUSH2 0x2DA PUSH1 0x40 PUSH2 0xA1B JUMP JUMPDEST PUSH1 0x5 DUP2 MSTORE PUSH5 0x204461726B PUSH1 0xD8 SHL PUSH1 0x20 DUP3 ADD MSTORE PUSH2 0x260 DUP3 ADD MSTORE PUSH2 0x2FC PUSH1 0x40 PUSH2 0xA1B JUMP JUMPDEST PUSH1 0x7 DUP2 MSTORE PUSH7 0x20536861646F77 PUSH1 0xC8 SHL PUSH1 0x20 DUP3 ADD MSTORE PUSH2 0x280 DUP3 ADD MSTORE PUSH2 0x320 PUSH1 0x40 PUSH2 0xA1B JUMP JUMPDEST PUSH1 0x5 DUP2 MSTORE PUSH5 0x2046616465 PUSH1 0xD8 SHL PUSH1 0x20 DUP3 ADD MSTORE PUSH2 0x2A0 DUP3 ADD MSTORE PUSH2 0x342 PUSH1 0x40 PUSH2 0xA1B JUMP JUMPDEST PUSH1 0x5 DUP2 MSTORE PUSH5 0x20426C7565 PUSH1 0xD8 SHL PUSH1 0x20 DUP3 ADD MSTORE PUSH2 0x2C0 DUP3 ADD MSTORE PUSH2 0x364 PUSH1 0x40 PUSH2 0xA1B JUMP JUMPDEST PUSH1 0x6 DUP2 MSTORE PUSH6 0x1023B932B2B7 PUSH1 0xD1 SHL PUSH1 0x20 DUP3 ADD MSTORE PUSH2 0x2E0 DUP3 ADD MSTORE PUSH2 0x387 PUSH1 0x40 PUSH2 0xA1B JUMP JUMPDEST PUSH1 0x7 DUP2 MSTORE PUSH7 0x204F72616E6765 PUSH1 0xC8 SHL PUSH1 0x20 DUP3 ADD MSTORE PUSH2 0x300 DUP3 ADD MSTORE PUSH2 0x3AB PUSH1 0x40 PUSH2 0xA1B JUMP JUMPDEST PUSH1 0x5 DUP2 MSTORE PUSH5 0x2050696E6B PUSH1 0xD8 SHL PUSH1 0x20 DUP3 ADD MSTORE PUSH2 0x320 DUP3 ADD MSTORE PUSH2 0x3CD PUSH1 0x40 PUSH2 0xA1B JUMP JUMPDEST PUSH1 0x7 DUP2 MSTORE PUSH7 0x20507572706C65 PUSH1 0xC8 SHL PUSH1 0x20 DUP3 ADD MSTORE PUSH2 0x340 DUP3 ADD MSTORE PUSH2 0x3F1 PUSH1 0x40 PUSH2 0xA1B JUMP JUMPDEST PUSH1 0x4 DUP2 MSTORE PUSH4 0x8149959 PUSH1 0xE2 SHL PUSH1 0x20 DUP3 ADD MSTORE PUSH2 0x360 DUP3 ADD MSTORE PUSH2 0x412 PUSH1 0x40 PUSH2 0xA1B JUMP JUMPDEST PUSH1 0xA DUP2 MSTORE PUSH10 0x2054757271756F697365 PUSH1 0xB0 SHL PUSH1 0x20 DUP3 ADD MSTORE PUSH2 0x380 DUP3 ADD MSTORE PUSH2 0x439 PUSH1 0x40 PUSH2 0xA1B JUMP JUMPDEST PUSH1 0x6 DUP2 MSTORE PUSH6 0x205768697465 PUSH1 0xD0 SHL PUSH1 0x20 DUP3 ADD MSTORE PUSH2 0x3A0 DUP3 ADD MSTORE PUSH2 0x45C PUSH1 0x40 PUSH2 0xA1B JUMP JUMPDEST PUSH1 0x7 DUP2 MSTORE PUSH7 0x2059656C6C6F77 PUSH1 0xC8 SHL PUSH1 0x20 DUP3 ADD MSTORE PUSH2 0x3C0 DUP3 ADD MSTORE PUSH2 0x480 PUSH1 0x40 PUSH2 0xA1B JUMP JUMPDEST PUSH1 0x9 DUP2 MSTORE PUSH9 0x20536B7920426C7565 PUSH1 0xB8 SHL PUSH1 0x20 DUP3 ADD MSTORE PUSH2 0x3E0 DUP3 ADD MSTORE PUSH2 0x4A6 PUSH1 0x40 PUSH2 0xA1B JUMP JUMPDEST PUSH1 0x9 DUP2 MSTORE PUSH9 0x20486F742050696E6B PUSH1 0xB8 SHL PUSH1 0x20 DUP3 ADD MSTORE PUSH2 0x400 DUP3 ADD MSTORE PUSH2 0x4CC PUSH1 0x40 PUSH2 0xA1B JUMP JUMPDEST PUSH1 0xA DUP2 MSTORE PUSH10 0x204E656F6E20426C7565 PUSH1 0xB0 SHL PUSH1 0x20 DUP3 ADD MSTORE PUSH2 0x420 DUP3 ADD MSTORE PUSH2 0x4F3 PUSH1 0x40 PUSH2 0xA1B JUMP JUMPDEST PUSH1 0xB DUP2 MSTORE PUSH11 0x102732B7B71023B932B2B7 PUSH1 0xA9 SHL PUSH1 0x20 DUP3 ADD MSTORE PUSH2 0x440 DUP3 ADD MSTORE PUSH2 0x51B PUSH1 0x40 PUSH2 0xA1B JUMP JUMPDEST PUSH1 0xC DUP2 MSTORE PUSH12 0x204E656F6E20507572706C65 PUSH1 0xA0 SHL PUSH1 0x20 DUP3 ADD MSTORE PUSH2 0x460 DUP3 ADD MSTORE PUSH2 0x544 PUSH1 0x40 PUSH2 0xA1B JUMP JUMPDEST PUSH1 0x9 DUP2 MSTORE PUSH9 0x813995BDB88149959 PUSH1 0xBA SHL PUSH1 0x20 DUP3 ADD MSTORE PUSH2 0x480 DUP3 ADD MSTORE PUSH2 0x56A PUSH1 0x40 PUSH2 0xA1B JUMP JUMPDEST PUSH1 0x5 DUP2 MSTORE PUSH5 0x2047726579 PUSH1 0xD8 SHL PUSH1 0x20 DUP3 ADD MSTORE PUSH2 0x4A0 DUP3 ADD MSTORE PUSH2 0x58C PUSH1 0x40 PUSH2 0xA1B JUMP JUMPDEST PUSH1 0x5 DUP2 MSTORE PUSH5 0x204E617679 PUSH1 0xD8 SHL PUSH1 0x20 DUP3 ADD MSTORE PUSH2 0x4C0 DUP3 ADD MSTORE PUSH2 0x5AE PUSH1 0x40 PUSH2 0xA1B JUMP JUMPDEST PUSH1 0x9 DUP2 MSTORE PUSH9 0x2042757267756E6479 PUSH1 0xB8 SHL PUSH1 0x20 DUP3 ADD MSTORE PUSH2 0x4E0 DUP3 ADD MSTORE PUSH2 0x5D4 PUSH1 0x40 PUSH2 0xA1B JUMP JUMPDEST PUSH1 0x6 DUP2 MSTORE PUSH6 0x204265696765 PUSH1 0xD0 SHL PUSH1 0x20 DUP3 ADD MSTORE PUSH2 0x500 DUP3 ADD MSTORE PUSH2 0x5F7 PUSH1 0x40 PUSH2 0xA1B JUMP JUMPDEST PUSH1 0xA DUP2 MSTORE PUSH10 0x8109B1858DAC812185D PUSH1 0xB2 SHL PUSH1 0x20 DUP3 ADD MSTORE PUSH2 0x520 DUP3 ADD MSTORE PUSH2 0x61E PUSH1 0x40 PUSH2 0xA1B JUMP JUMPDEST PUSH1 0xA DUP2 MSTORE PUSH10 0x8109C9BDDDB8812185D PUSH1 0xB2 SHL PUSH1 0x20 DUP3 ADD MSTORE PUSH2 0x540 DUP3 ADD MSTORE PUSH2 0x645 PUSH1 0x40 PUSH2 0xA1B JUMP JUMPDEST PUSH1 0xB DUP2 MSTORE PUSH11 0x8109B1BDB99194812185D PUSH1 0xAA SHL PUSH1 0x20 DUP3 ADD MSTORE PUSH2 0x560 DUP3 ADD MSTORE PUSH2 0x66D PUSH1 0x40 PUSH2 0xA1B JUMP JUMPDEST PUSH1 0xB DUP2 MSTORE PUSH11 0x811DA5B99D95C8812185D PUSH1 0xAA SHL PUSH1 0x20 DUP3 ADD MSTORE PUSH2 0x580 DUP3 ADD MSTORE PUSH2 0x695 PUSH1 0x40 PUSH2 0xA1B JUMP JUMPDEST PUSH1 0x9 DUP2 MSTORE PUSH9 0x8109B1D594812185D PUSH1 0xBA SHL PUSH1 0x20 DUP3 ADD MSTORE PUSH2 0x5A0 DUP3 ADD MSTORE PUSH2 0x6BB PUSH1 0x40 PUSH2 0xA1B JUMP JUMPDEST PUSH1 0xA DUP2 MSTORE PUSH10 0x811DC99595B8812185D PUSH1 0xB2 SHL PUSH1 0x20 DUP3 ADD MSTORE PUSH2 0x5C0 DUP3 ADD MSTORE PUSH2 0x6E2 PUSH1 0x40 PUSH2 0xA1B JUMP JUMPDEST PUSH1 0xB DUP2 MSTORE PUSH11 0x813DC985B99D94812185D PUSH1 0xAA SHL PUSH1 0x20 DUP3 ADD MSTORE PUSH2 0x5E0 DUP3 ADD MSTORE PUSH2 0x70A PUSH1 0x40 PUSH2 0xA1B JUMP JUMPDEST PUSH1 0x9 DUP2 MSTORE PUSH9 0x8141A5B9AC812185D PUSH1 0xBA SHL PUSH1 0x20 DUP3 ADD MSTORE PUSH2 0x600 DUP3 ADD MSTORE PUSH2 0x730 PUSH1 0x40 PUSH2 0xA1B JUMP JUMPDEST PUSH1 0xB DUP2 MSTORE PUSH11 0x8141D5C9C1B194812185D PUSH1 0xAA SHL PUSH1 0x20 DUP3 ADD MSTORE PUSH2 0x620 DUP3 ADD MSTORE PUSH2 0x758 PUSH1 0x40 PUSH2 0xA1B JUMP JUMPDEST PUSH1 0x8 DUP2 MSTORE PUSH8 0x81499590812185D PUSH1 0xC2 SHL PUSH1 0x20 DUP3 ADD MSTORE PUSH2 0x640 DUP3 ADD MSTORE PUSH2 0x77D PUSH1 0x40 PUSH2 0xA1B JUMP JUMPDEST PUSH1 0xE DUP2 MSTORE PUSH14 0x8151D5C9C5D5BDA5CD94812185D PUSH1 0x92 SHL PUSH1 0x20 DUP3 ADD MSTORE PUSH2 0x660 DUP3 ADD MSTORE PUSH2 0x7A8 PUSH1 0x40 PUSH2 0xA1B JUMP JUMPDEST PUSH1 0xA DUP2 MSTORE PUSH10 0x815DA1A5D194812185D PUSH1 0xB2 SHL PUSH1 0x20 DUP3 ADD MSTORE PUSH2 0x680 DUP3 ADD MSTORE PUSH2 0x7CF PUSH1 0x40 PUSH2 0xA1B JUMP JUMPDEST PUSH1 0xB DUP2 MSTORE PUSH11 0x816595B1B1BDDC812185D PUSH1 0xAA SHL PUSH1 0x20 DUP3 ADD MSTORE PUSH2 0x6A0 DUP3 ADD MSTORE PUSH0 SLOAD PUSH1 0x36 PUSH0 SSTORE DUP1 PUSH1 0x36 LT PUSH2 0x97A JUMPI JUMPDEST POP PUSH0 DUP1 DUP1 MSTORE PUSH0 MLOAD PUSH1 0x20 PUSH2 0x3FBE PUSH0 CODECOPY PUSH0 MLOAD SWAP1 PUSH0 MSTORE SWAP2 JUMPDEST PUSH1 0x36 DUP3 LT PUSH2 0x851 JUMPI POP POP POP PUSH1 0x80 MSTORE PUSH1 0xA0 MSTORE PUSH1 0x40 MLOAD PUSH2 0x352F SWAP1 DUP2 PUSH2 0xA8F DUP3 CODECOPY PUSH1 0x80 MLOAD DUP2 DUP2 DUP2 PUSH2 0xB9E ADD MSTORE DUP2 DUP2 PUSH2 0xF7D ADD MSTORE PUSH2 0x1544 ADD MSTORE PUSH1 0xA0 MLOAD DUP2 PUSH2 0xB47 ADD MSTORE RETURN JUMPDEST DUP1 MLOAD DUP1 MLOAD SWAP1 PUSH1 0x1 PUSH1 0x1 PUSH1 0x40 SHL SUB DUP3 GT PUSH2 0x966 JUMPI PUSH2 0x86E DUP6 SLOAD PUSH2 0xA40 JUMP JUMPDEST PUSH1 0x1F DUP2 GT PUSH2 0x92B JUMPI JUMPDEST POP PUSH1 0x20 SWAP1 PUSH1 0x1F DUP4 GT PUSH1 0x1 EQ PUSH2 0x8C2 JUMPI SWAP3 DUP3 PUSH1 0x1 SWAP5 SWAP4 PUSH1 0x20 SWAP4 DUP7 SWAP6 PUSH0 SWAP3 PUSH2 0x8B7 JUMPI JUMPDEST POP POP PUSH0 NOT PUSH1 0x3 DUP4 SWAP1 SHL SHR NOT AND SWAP1 DUP5 SHL OR DUP7 SSTORE JUMPDEST ADD SWAP4 ADD SWAP2 ADD SWAP1 SWAP2 PUSH2 0x811 JUMP JUMPDEST ADD MLOAD SWAP1 POP PUSH0 DUP1 PUSH2 0x898 JUMP JUMPDEST SWAP1 PUSH1 0x1F NOT DUP4 AND SWAP2 DUP7 PUSH0 MSTORE DUP2 PUSH0 KECCAK256 SWAP3 PUSH0 JUMPDEST DUP2 DUP2 LT PUSH2 0x913 JUMPI POP SWAP4 PUSH1 0x20 SWAP4 PUSH1 0x1 SWAP7 SWAP4 DUP8 SWAP7 SWAP4 DUP4 DUP9 SWAP6 LT PUSH2 0x8FB JUMPI JUMPDEST POP POP POP DUP2 SHL ADD DUP7 SSTORE PUSH2 0x8AB JUMP JUMPDEST ADD MLOAD PUSH0 NOT PUSH1 0xF8 DUP5 PUSH1 0x3 SHL AND SHR NOT AND SWAP1 SSTORE PUSH0 DUP1 DUP1 PUSH2 0x8EE JUMP JUMPDEST SWAP3 SWAP4 PUSH1 0x20 PUSH1 0x1 DUP2 SWAP3 DUP8 DUP7 ADD MLOAD DUP2 SSTORE ADD SWAP6 ADD SWAP4 ADD PUSH2 0x8D2 JUMP JUMPDEST PUSH2 0x956 SWAP1 DUP7 PUSH0 MSTORE PUSH1 0x20 PUSH0 KECCAK256 PUSH1 0x1F DUP6 ADD PUSH1 0x5 SHR DUP2 ADD SWAP2 PUSH1 0x20 DUP7 LT PUSH2 0x95C JUMPI JUMPDEST PUSH1 0x1F ADD PUSH1 0x5 SHR ADD SWAP1 PUSH2 0xA78 JUMP JUMPDEST PUSH0 PUSH2 0x877 JUMP JUMPDEST SWAP1 SWAP2 POP DUP2 SWAP1 PUSH2 0x949 JUMP JUMPDEST PUSH4 0x4E487B71 PUSH1 0xE0 SHL PUSH0 MSTORE PUSH1 0x41 PUSH1 0x4 MSTORE PUSH1 0x24 PUSH0 REVERT JUMPDEST PUSH0 DUP1 MSTORE PUSH0 MLOAD PUSH1 0x20 PUSH2 0x3FBE PUSH0 CODECOPY PUSH0 MLOAD SWAP1 PUSH0 MSTORE ADD PUSH32 0x290DECD9548B62A8D60345A988386FC84BA6BC95484008F6362F93160EF3E599 JUMPDEST DUP2 DUP2 LT PUSH2 0x9BB JUMPI POP PUSH2 0x7FC JUMP JUMPDEST DUP1 PUSH2 0x9C8 PUSH1 0x1 SWAP3 SLOAD PUSH2 0xA40 JUMP JUMPDEST DUP1 PUSH2 0x9D5 JUMPI JUMPDEST POP ADD PUSH2 0x9AE JUMP JUMPDEST PUSH1 0x1F DUP2 GT DUP4 EQ PUSH2 0x9EA JUMPI POP PUSH0 DUP2 SSTORE JUMPDEST PUSH0 PUSH2 0x9CE JUMP JUMPDEST PUSH2 0xA06 SWAP1 DUP3 PUSH0 MSTORE DUP4 PUSH1 0x1F PUSH1 0x20 PUSH0 KECCAK256 SWAP3 ADD PUSH1 0x5 SHR DUP3 ADD SWAP2 ADD PUSH2 0xA78 JUMP JUMPDEST DUP1 PUSH0 MSTORE PUSH0 PUSH1 0x20 DUP2 KECCAK256 DUP2 DUP4 SSTORE SSTORE PUSH2 0x9E4 JUMP JUMPDEST PUSH0 DUP1 REVERT JUMPDEST PUSH1 0x40 MLOAD SWAP2 SWAP1 PUSH1 0x1F ADD PUSH1 0x1F NOT AND DUP3 ADD PUSH1 0x1 PUSH1 0x1 PUSH1 0x40 SHL SUB DUP2 GT DUP4 DUP3 LT OR PUSH2 0x966 JUMPI PUSH1 0x40 MSTORE JUMP JUMPDEST SWAP1 PUSH1 0x1 DUP3 DUP2 SHR SWAP3 AND DUP1 ISZERO PUSH2 0xA6E JUMPI JUMPDEST PUSH1 0x20 DUP4 LT EQ PUSH2 0xA5A JUMPI JUMP JUMPDEST PUSH4 0x4E487B71 PUSH1 0xE0 SHL PUSH0 MSTORE PUSH1 0x22 PUSH1 0x4 MSTORE PUSH1 0x24 PUSH0 REVERT JUMPDEST SWAP2 PUSH1 0x7F AND SWAP2 PUSH2 0xA4F JUMP JUMPDEST DUP2 DUP2 LT PUSH2 0xA83 JUMPI POP POP JUMP JUMPDEST PUSH0 DUP2 SSTORE PUSH1 0x1 ADD PUSH2 0xA78 JUMP INVALID PUSH1 0x80 PUSH1 0x40 MSTORE PUSH1 0x4 CALLDATASIZE LT ISZERO PUSH2 0x11 JUMPI PUSH0 DUP1 REVERT JUMPDEST PUSH0 CALLDATALOAD PUSH1 0xE0 SHR DUP1 PUSH4 0x41FCB160 EQ PUSH2 0x34 JUMPI PUSH4 0x74C2B451 EQ PUSH2 0x2F JUMPI PUSH0 DUP1 REVERT JUMPDEST PUSH2 0x19B JUMP JUMPDEST CALLVALUE PUSH2 0x98 JUMPI PUSH1 0x60 CALLDATASIZE PUSH1 0x3 NOT ADD SLT PUSH2 0x98 JUMPI PUSH2 0x86 PUSH2 0x94 PUSH2 0x6F PUSH1 0x4 CALLDATALOAD PUSH2 0x5A DUP2 PUSH2 0x9C JUMP JUMPDEST PUSH1 0x24 CALLDATALOAD PUSH2 0x66 DUP2 PUSH2 0x9C JUMP JUMPDEST PUSH1 0x44 CALLDATALOAD SWAP2 PUSH2 0xAB0 JUMP JUMPDEST PUSH1 0x40 SWAP3 SWAP2 SWAP3 MLOAD SWAP4 DUP5 SWAP4 PUSH1 0x40 DUP6 MSTORE PUSH1 0x40 DUP6 ADD SWAP1 PUSH2 0xA8 JUMP JUMPDEST SWAP1 DUP4 DUP3 SUB PUSH1 0x20 DUP6 ADD MSTORE PUSH2 0xA8 JUMP JUMPDEST SUB SWAP1 RETURN JUMPDEST PUSH0 DUP1 REVERT JUMPDEST PUSH2 0xFFFF DUP2 AND SUB PUSH2 0x98 JUMPI JUMP JUMPDEST DUP1 MLOAD DUP1 DUP4 MSTORE PUSH1 0x20 SWAP3 SWAP2 DUP2 SWAP1 DUP5 ADD DUP5 DUP5 ADD MCOPY PUSH0 DUP3 DUP3 ADD DUP5 ADD MSTORE PUSH1 0x1F ADD PUSH1 0x1F NOT AND ADD ADD SWAP1 JUMP JUMPDEST PUSH4 0x4E487B71 PUSH1 0xE0 SHL PUSH0 MSTORE PUSH1 0x41 PUSH1 0x4 MSTORE PUSH1 0x24 PUSH0 REVERT JUMPDEST PUSH1 0x40 DUP2 ADD SWAP1 DUP2 LT PUSH1 0x1 PUSH1 0x1 PUSH1 0x40 SHL SUB DUP3 GT OR PUSH2 0xFB JUMPI PUSH1 0x40 MSTORE JUMP JUMPDEST PUSH2 0xCC JUMP JUMPDEST PUSH1 0x80 DUP2 ADD SWAP1 DUP2 LT PUSH1 0x1 PUSH1 0x1 PUSH1 0x40 SHL SUB DUP3 GT OR PUSH2 0xFB JUMPI PUSH1 0x40 MSTORE JUMP JUMPDEST SWAP1 PUSH1 0x1F DUP1 NOT SWAP2 ADD AND DUP2 ADD SWAP1 DUP2 LT PUSH1 0x1 PUSH1 0x1 PUSH1 0x40 SHL SUB DUP3 GT OR PUSH2 0xFB JUMPI PUSH1 0x40 MSTORE JUMP JUMPDEST PUSH1 0x40 MLOAD SWAP1 PUSH2 0x14B PUSH1 0xE0 DUP4 PUSH2 0x11B JUMP JUMPDEST JUMP JUMPDEST PUSH1 0x40 MLOAD SWAP1 PUSH2 0x14B PUSH1 0xA0 DUP4 PUSH2 0x11B JUMP JUMPDEST PUSH1 0x40 MLOAD SWAP1 PUSH2 0x14B PUSH2 0x400 DUP4 PUSH2 0x11B JUMP JUMPDEST PUSH1 0x1 PUSH1 0x1 PUSH1 0x40 SHL SUB DUP2 GT PUSH2 0xFB JUMPI PUSH1 0x1F ADD PUSH1 0x1F NOT AND PUSH1 0x20 ADD SWAP1 JUMP JUMPDEST SWAP1 PUSH1 0x20 PUSH2 0x198 SWAP3 DUP2 DUP2 MSTORE ADD SWAP1 PUSH2 0xA8 JUMP JUMPDEST SWAP1 JUMP JUMPDEST CALLVALUE PUSH2 0x98 JUMPI PUSH1 0x20 CALLDATASIZE PUSH1 0x3 NOT ADD SLT PUSH2 0x98 JUMPI PUSH1 0x4 CALLDATALOAD PUSH1 0x1 PUSH1 0x1 PUSH1 0x40 SHL SUB DUP2 GT PUSH2 0x98 JUMPI CALLDATASIZE PUSH1 0x23 DUP3 ADD SLT ISZERO PUSH2 0x98 JUMPI DUP1 PUSH1 0x4 ADD CALLDATALOAD SWAP1 PUSH2 0x1D7 DUP3 PUSH2 0x16C JUMP JUMPDEST SWAP2 PUSH2 0x1E5 PUSH1 0x40 MLOAD SWAP4 DUP5 PUSH2 0x11B JUMP JUMPDEST DUP1 DUP4 MSTORE CALLDATASIZE PUSH1 0x24 DUP3 DUP5 ADD ADD GT PUSH2 0x98 JUMPI PUSH0 SWAP3 DUP2 PUSH1 0x24 PUSH1 0x20 SWAP5 ADD DUP5 DUP4 ADD CALLDATACOPY ADD ADD MSTORE PUSH2 0x94 PUSH2 0x20F PUSH2 0xC24 JUMP JUMPDEST PUSH1 0x40 MLOAD SWAP2 DUP3 SWAP2 DUP3 PUSH2 0x187 JUMP JUMPDEST PUSH1 0x1 PUSH1 0x1 PUSH1 0x40 SHL SUB DUP2 GT PUSH2 0xFB JUMPI PUSH1 0x5 SHL PUSH1 0x20 ADD SWAP1 JUMP JUMPDEST DUP2 PUSH1 0x1F DUP3 ADD SLT ISZERO PUSH2 0x98 JUMPI DUP1 MLOAD SWAP1 PUSH2 0x249 DUP3 PUSH2 0x16C JUMP JUMPDEST SWAP3 PUSH2 0x257 PUSH1 0x40 MLOAD SWAP5 DUP6 PUSH2 0x11B JUMP JUMPDEST DUP3 DUP5 MSTORE PUSH1 0x20 DUP4 DUP4 ADD ADD GT PUSH2 0x98 JUMPI DUP2 PUSH0 SWAP3 PUSH1 0x20 DUP1 SWAP4 ADD DUP4 DUP7 ADD MCOPY DUP4 ADD ADD MSTORE SWAP1 JUMP JUMPDEST MLOAD SWAP1 PUSH4 0xFFFFFFFF DUP3 AND DUP3 SUB PUSH2 0x98 JUMPI JUMP JUMPDEST SWAP1 DUP1 PUSH1 0x1F DUP4 ADD SLT ISZERO PUSH2 0x98 JUMPI DUP2 MLOAD PUSH2 0x2A0 DUP2 PUSH2 0x21B JUMP JUMPDEST SWAP3 PUSH2 0x2AE PUSH1 0x40 MLOAD SWAP5 DUP6 PUSH2 0x11B JUMP JUMPDEST DUP2 DUP5 MSTORE PUSH1 0x20 DUP1 DUP6 ADD SWAP3 PUSH1 0x5 SHL DUP3 ADD ADD SWAP3 DUP4 GT PUSH2 0x98 JUMPI PUSH1 0x20 ADD SWAP1 JUMPDEST DUP3 DUP3 LT PUSH2 0x2D6 JUMPI POP POP POP SWAP1 JUMP JUMPDEST PUSH1 0x20 DUP1 SWAP2 PUSH2 0x2E3 DUP5 PUSH2 0x278 JUMP JUMPDEST DUP2 MSTORE ADD SWAP2 ADD SWAP1 PUSH2 0x2C9 JUMP JUMPDEST MLOAD SWAP1 PUSH1 0xFF DUP3 AND DUP3 SUB PUSH2 0x98 JUMPI JUMP JUMPDEST SWAP1 DUP1 PUSH1 0x1F DUP4 ADD SLT ISZERO PUSH2 0x98 JUMPI DUP2 MLOAD SWAP2 PUSH2 0x314 DUP4 PUSH2 0x21B JUMP JUMPDEST SWAP3 PUSH2 0x322 PUSH1 0x40 MLOAD SWAP5 DUP6 PUSH2 0x11B JUMP JUMPDEST DUP1 DUP5 MSTORE PUSH1 0x20 DUP1 DUP6 ADD SWAP2 PUSH1 0x5 SHL DUP4 ADD ADD SWAP2 DUP4 DUP4 GT PUSH2 0x98 JUMPI PUSH1 0x20 DUP2 ADD SWAP2 JUMPDEST DUP4 DUP4 LT PUSH2 0x34E JUMPI POP POP POP POP POP SWAP1 JUMP JUMPDEST DUP3 MLOAD PUSH1 0x1 PUSH1 0x1 PUSH1 0x40 SHL SUB DUP2 GT PUSH2 0x98 JUMPI DUP3 ADD SWAP1 PUSH1 0xE0 DUP3 DUP8 SUB PUSH1 0x1F NOT ADD SLT PUSH2 0x98 JUMPI PUSH2 0x377 PUSH2 0x13C JUMP JUMPDEST SWAP1 PUSH1 0x20 DUP4 ADD MLOAD PUSH1 0x1 PUSH1 0x1 PUSH1 0x40 SHL SUB DUP2 GT PUSH2 0x98 JUMPI DUP8 PUSH1 0x20 PUSH2 0x39A SWAP3 DUP7 ADD ADD PUSH2 0x232 JUMP JUMPDEST DUP3 MSTORE PUSH2 0x3A8 PUSH1 0x40 DUP5 ADD PUSH2 0x2EE JUMP JUMPDEST PUSH1 0x20 DUP4 ADD MSTORE PUSH2 0x3B9 PUSH1 0x60 DUP5 ADD PUSH2 0x2EE JUMP JUMPDEST PUSH1 0x40 DUP4 ADD MSTORE PUSH2 0x3CA PUSH1 0x80 DUP5 ADD PUSH2 0x2EE JUMP JUMPDEST PUSH1 0x60 DUP4 ADD MSTORE PUSH2 0x3DB PUSH1 0xA0 DUP5 ADD PUSH2 0x2EE JUMP JUMPDEST PUSH1 0x80 DUP4 ADD MSTORE PUSH2 0x3EC PUSH1 0xC0 DUP5 ADD PUSH2 0x2EE JUMP JUMPDEST PUSH1 0xA0 DUP4 ADD MSTORE PUSH1 0xE0 DUP4 ADD MLOAD SWAP2 PUSH1 0x1 PUSH1 0x1 PUSH1 0x40 SHL SUB DUP4 GT PUSH2 0x98 JUMPI PUSH2 0x417 DUP9 PUSH1 0x20 DUP1 SWAP7 SWAP6 DUP2 SWAP7 ADD ADD PUSH2 0x232 JUMP JUMPDEST PUSH1 0xC0 DUP3 ADD MSTORE DUP2 MSTORE ADD SWAP3 ADD SWAP2 PUSH2 0x33F JUMP JUMPDEST SWAP2 SWAP1 SWAP2 PUSH1 0xA0 DUP2 DUP5 SUB SLT PUSH2 0x98 JUMPI PUSH2 0x43C PUSH2 0x14D JUMP JUMPDEST SWAP3 DUP2 MLOAD DUP5 MSTORE PUSH1 0x20 DUP3 ADD MLOAD PUSH1 0x1 PUSH1 0x1 PUSH1 0x40 SHL SUB DUP2 GT PUSH2 0x98 JUMPI DUP2 PUSH2 0x460 SWAP2 DUP5 ADD PUSH2 0x232 JUMP JUMPDEST PUSH1 0x20 DUP6 ADD MSTORE PUSH1 0x40 DUP3 ADD MLOAD PUSH1 0x1 PUSH1 0x1 PUSH1 0x40 SHL SUB DUP2 GT PUSH2 0x98 JUMPI DUP2 PUSH2 0x484 SWAP2 DUP5 ADD PUSH2 0x289 JUMP JUMPDEST PUSH1 0x40 DUP6 ADD MSTORE PUSH1 0x60 DUP3 ADD MLOAD SWAP2 PUSH1 0x1 PUSH1 0x1 PUSH1 0x40 SHL SUB DUP4 GT PUSH2 0x98 JUMPI PUSH2 0x4AE PUSH1 0x80 SWAP3 PUSH2 0x4B9 SWAP5 DUP4 ADD PUSH2 0x2FC JUMP JUMPDEST PUSH1 0x60 DUP7 ADD MSTORE ADD PUSH2 0x2EE JUMP JUMPDEST PUSH1 0x80 DUP4 ADD MSTORE JUMP JUMPDEST MLOAD SWAP1 DUP2 ISZERO ISZERO DUP3 SUB PUSH2 0x98 JUMPI JUMP JUMPDEST SWAP1 DUP1 PUSH1 0x1F DUP4 ADD SLT ISZERO PUSH2 0x98 JUMPI DUP2 MLOAD PUSH2 0x4E4 DUP2 PUSH2 0x21B JUMP JUMPDEST SWAP3 PUSH2 0x4F2 PUSH1 0x40 MLOAD SWAP5 DUP6 PUSH2 0x11B JUMP JUMPDEST DUP2 DUP5 MSTORE PUSH1 0x20 DUP1 DUP6 ADD SWAP3 PUSH1 0x5 SHL DUP3 ADD ADD SWAP3 DUP4 GT PUSH2 0x98 JUMPI PUSH1 0x20 ADD SWAP1 JUMPDEST DUP3 DUP3 LT PUSH2 0x51A JUMPI POP POP POP SWAP1 JUMP JUMPDEST PUSH1 0x20 DUP1 SWAP2 PUSH2 0x527 DUP5 PUSH2 0x4C0 JUMP JUMPDEST DUP2 MSTORE ADD SWAP2 ADD SWAP1 PUSH2 0x50D JUMP JUMPDEST PUSH1 0x20 DUP2 DUP4 SUB SLT PUSH2 0x98 JUMPI DUP1 MLOAD SWAP1 PUSH1 0x1 PUSH1 0x1 PUSH1 0x40 SHL SUB DUP3 GT PUSH2 0x98 JUMPI ADD PUSH1 0x40 DUP2 DUP4 SUB SLT PUSH2 0x98 JUMPI PUSH1 0x40 MLOAD SWAP2 PUSH2 0x565 DUP4 PUSH2 0xE0 JUMP JUMPDEST DUP2 MLOAD PUSH1 0x1 PUSH1 0x1 PUSH1 0x40 SHL SUB DUP2 GT PUSH2 0x98 JUMPI DUP3 ADD DUP2 PUSH1 0x1F DUP3 ADD SLT ISZERO PUSH2 0x98 JUMPI DUP1 MLOAD PUSH2 0x58D DUP2 PUSH2 0x21B JUMP JUMPDEST SWAP2 PUSH2 0x59B PUSH1 0x40 MLOAD SWAP4 DUP5 PUSH2 0x11B JUMP JUMPDEST DUP2 DUP4 MSTORE PUSH1 0x20 DUP1 DUP5 ADD SWAP3 PUSH1 0x5 SHL DUP3 ADD ADD SWAP2 DUP5 DUP4 GT PUSH2 0x98 JUMPI PUSH1 0x20 DUP3 ADD SWAP1 JUMPDEST DUP4 DUP3 LT PUSH2 0x5EA JUMPI POP POP POP POP DUP4 MSTORE PUSH1 0x20 DUP3 ADD MLOAD PUSH1 0x1 PUSH1 0x1 PUSH1 0x40 SHL SUB DUP2 GT PUSH2 0x98 JUMPI PUSH2 0x5E2 SWAP3 ADD PUSH2 0x4CD JUMP JUMPDEST PUSH1 0x20 DUP3 ADD MSTORE SWAP1 JUMP JUMPDEST DUP2 MLOAD PUSH1 0x1 PUSH1 0x1 PUSH1 0x40 SHL SUB DUP2 GT PUSH2 0x98 JUMPI PUSH1 0x20 SWAP2 PUSH2 0x60C DUP9 DUP5 DUP1 SWAP5 DUP9 ADD ADD PUSH2 0x427 JUMP JUMPDEST DUP2 MSTORE ADD SWAP2 ADD SWAP1 PUSH2 0x5B8 JUMP JUMPDEST PUSH1 0x40 MLOAD RETURNDATASIZE PUSH0 DUP3 RETURNDATACOPY RETURNDATASIZE SWAP1 REVERT JUMPDEST MLOAD SWAP1 PUSH1 0x1B DUP3 LT ISZERO PUSH2 0x98 JUMPI JUMP JUMPDEST DUP2 PUSH1 0x1F DUP3 ADD SLT ISZERO PUSH2 0x98 JUMPI DUP1 MLOAD SWAP1 PUSH2 0x646 DUP3 PUSH2 0x21B JUMP JUMPDEST SWAP3 PUSH2 0x654 PUSH1 0x40 MLOAD SWAP5 DUP6 PUSH2 0x11B JUMP JUMPDEST DUP3 DUP5 MSTORE PUSH1 0x20 PUSH1 0xA0 DUP2 DUP7 ADD SWAP5 MUL DUP4 ADD ADD SWAP2 DUP2 DUP4 GT PUSH2 0x98 JUMPI PUSH1 0x20 ADD SWAP3 JUMPDEST DUP3 DUP5 LT PUSH2 0x67E JUMPI POP POP POP POP SWAP1 JUMP JUMPDEST DUP4 DUP3 SUB PUSH1 0xA0 DUP2 SLT PUSH2 0x98 JUMPI PUSH1 0x40 DUP1 MLOAD SWAP2 PUSH2 0x697 DUP4 PUSH2 0x100 JUMP JUMPDEST PUSH2 0x6A0 DUP8 PUSH2 0x622 JUMP JUMPDEST DUP4 MSTORE PUSH2 0x6AE PUSH1 0x20 DUP9 ADD PUSH2 0x2EE JUMP JUMPDEST PUSH1 0x20 DUP5 ADD MSTORE PUSH2 0x6BE DUP3 DUP9 ADD PUSH2 0x4C0 JUMP JUMPDEST DUP4 DUP4 ADD MSTORE PUSH1 0x5F NOT ADD SLT PUSH2 0x98 JUMPI PUSH1 0xA0 SWAP2 PUSH1 0x20 SWAP2 PUSH1 0x40 MLOAD PUSH2 0x6DD DUP2 PUSH2 0xE0 JUMP JUMPDEST PUSH2 0x6E9 PUSH1 0x60 DUP10 ADD PUSH2 0x622 JUMP JUMPDEST DUP2 MSTORE PUSH2 0x6F7 PUSH1 0x80 DUP10 ADD PUSH2 0x2EE JUMP JUMPDEST DUP5 DUP3 ADD MSTORE PUSH1 0x60 DUP3 ADD MSTORE DUP2 MSTORE ADD SWAP4 ADD SWAP3 PUSH2 0x670 JUMP JUMPDEST MLOAD SWAP1 PUSH2 0x14B DUP3 PUSH2 0x9C JUMP JUMPDEST MLOAD SWAP1 PUSH1 0x2 DUP3 LT ISZERO PUSH2 0x98 JUMPI JUMP JUMPDEST MLOAD SWAP1 PUSH1 0x6 DUP3 LT ISZERO PUSH2 0x98 JUMPI JUMP JUMPDEST MLOAD SWAP1 PUSH1 0x1D DUP3 LT ISZERO PUSH2 0x98 JUMPI JUMP JUMPDEST MLOAD SWAP1 PUSH1 0x17 DUP3 LT ISZERO PUSH2 0x98 JUMPI JUMP JUMPDEST MLOAD SWAP1 PUSH1 0x14 DUP3 LT ISZERO PUSH2 0x98 JUMPI JUMP JUMPDEST MLOAD SWAP1 PUSH1 0x9 DUP3 LT ISZERO PUSH2 0x98 JUMPI JUMP JUMPDEST MLOAD SWAP1 PUSH1 0x4 DUP3 LT ISZERO PUSH2 0x98 JUMPI JUMP JUMPDEST MLOAD SWAP1 PUSH1 0x58 DUP3 LT ISZERO PUSH2 0x98 JUMPI JUMP JUMPDEST MLOAD SWAP1 PUSH1 0x16 DUP3 LT ISZERO PUSH2 0x98 JUMPI JUMP JUMPDEST MLOAD SWAP1 PUSH1 0xD4 DUP3 LT ISZERO PUSH2 0x98 JUMPI JUMP JUMPDEST MLOAD SWAP1 PUSH1 0x6A DUP3 LT ISZERO PUSH2 0x98 JUMPI JUMP JUMPDEST MLOAD SWAP1 PUSH1 0xA9 DUP3 LT ISZERO PUSH2 0x98 JUMPI JUMP JUMPDEST MLOAD SWAP1 PUSH1 0x80 DUP3 LT ISZERO PUSH2 0x98 JUMPI JUMP JUMPDEST MLOAD SWAP1 PUSH1 0x1A DUP3 LT ISZERO PUSH2 0x98 JUMPI JUMP JUMPDEST MLOAD SWAP1 PUSH1 0x1F DUP3 LT ISZERO PUSH2 0x98 JUMPI JUMP JUMPDEST MLOAD SWAP1 PUSH1 0x13 DUP3 LT ISZERO PUSH2 0x98 JUMPI JUMP JUMPDEST MLOAD SWAP1 PUSH1 0x15 DUP3 LT ISZERO PUSH2 0x98 JUMPI JUMP JUMPDEST MLOAD SWAP1 PUSH1 0xC3 DUP3 LT ISZERO PUSH2 0x98 JUMPI JUMP JUMPDEST MLOAD SWAP1 PUSH1 0x85 DUP3 LT ISZERO PUSH2 0x98 JUMPI JUMP JUMPDEST MLOAD SWAP1 PUSH1 0x83 DUP3 LT ISZERO PUSH2 0x98 JUMPI JUMP JUMPDEST MLOAD SWAP1 PUSH1 0x7A DUP3 LT ISZERO PUSH2 0x98 JUMPI JUMP JUMPDEST PUSH1 0x20 DUP2 DUP4 SUB SLT PUSH2 0x98 JUMPI DUP1 MLOAD SWAP1 PUSH1 0x1 PUSH1 0x1 PUSH1 0x40 SHL SUB DUP3 GT PUSH2 0x98 JUMPI ADD PUSH2 0x400 DUP2 DUP4 SUB SLT PUSH2 0x98 JUMPI PUSH2 0x856 PUSH2 0x15C JUMP JUMPDEST SWAP2 DUP2 MLOAD SWAP2 PUSH1 0x1 PUSH1 0x1 PUSH1 0x40 SHL SUB DUP4 GT PUSH2 0x98 JUMPI PUSH2 0x87A PUSH2 0x3E0 SWAP3 PUSH2 0xAA7 SWAP5 DUP4 ADD PUSH2 0x62F JUMP JUMPDEST DUP5 MSTORE PUSH2 0x888 PUSH1 0x20 DUP3 ADD PUSH2 0x2EE JUMP JUMPDEST PUSH1 0x20 DUP6 ADD MSTORE PUSH2 0x899 PUSH1 0x40 DUP3 ADD PUSH2 0x70B JUMP JUMPDEST PUSH1 0x40 DUP6 ADD MSTORE PUSH1 0x60 DUP2 ADD MLOAD PUSH1 0x60 DUP6 ADD MSTORE PUSH2 0x8B4 PUSH1 0x80 DUP3 ADD PUSH2 0x70B JUMP JUMPDEST PUSH1 0x80 DUP6 ADD MSTORE PUSH2 0x8C5 PUSH1 0xA0 DUP3 ADD PUSH2 0x278 JUMP JUMPDEST PUSH1 0xA0 DUP6 ADD MSTORE PUSH2 0x8D6 PUSH1 0xC0 DUP3 ADD PUSH2 0x716 JUMP JUMPDEST PUSH1 0xC0 DUP6 ADD MSTORE PUSH2 0x8E7 PUSH1 0xE0 DUP3 ADD PUSH2 0x723 JUMP JUMPDEST PUSH1 0xE0 DUP6 ADD MSTORE PUSH2 0x8F9 PUSH2 0x100 DUP3 ADD PUSH2 0x730 JUMP JUMPDEST PUSH2 0x100 DUP6 ADD MSTORE PUSH2 0x90C PUSH2 0x120 DUP3 ADD PUSH2 0x73D JUMP JUMPDEST PUSH2 0x120 DUP6 ADD MSTORE PUSH2 0x91F PUSH2 0x140 DUP3 ADD PUSH2 0x74A JUMP JUMPDEST PUSH2 0x140 DUP6 ADD MSTORE PUSH2 0x932 PUSH2 0x160 DUP3 ADD PUSH2 0x757 JUMP JUMPDEST PUSH2 0x160 DUP6 ADD MSTORE PUSH2 0x945 PUSH2 0x180 DUP3 ADD PUSH2 0x757 JUMP JUMPDEST PUSH2 0x180 DUP6 ADD MSTORE PUSH2 0x958 PUSH2 0x1A0 DUP3 ADD PUSH2 0x764 JUMP JUMPDEST PUSH2 0x1A0 DUP6 ADD MSTORE PUSH2 0x96B PUSH2 0x1C0 DUP3 ADD PUSH2 0x771 JUMP JUMPDEST PUSH2 0x1C0 DUP6 ADD MSTORE PUSH2 0x97E PUSH2 0x1E0 DUP3 ADD PUSH2 0x77E JUMP JUMPDEST PUSH2 0x1E0 DUP6 ADD MSTORE PUSH2 0x991 PUSH2 0x200 DUP3 ADD PUSH2 0x78B JUMP JUMPDEST PUSH2 0x200 DUP6 ADD MSTORE PUSH2 0x9A4 PUSH2 0x220 DUP3 ADD PUSH2 0x798 JUMP JUMPDEST PUSH2 0x220 DUP6 ADD MSTORE PUSH2 0x9B7 PUSH2 0x240 DUP3 ADD PUSH2 0x7A5 JUMP JUMPDEST PUSH2 0x240 DUP6 ADD MSTORE PUSH2 0x9CA PUSH2 0x260 DUP3 ADD PUSH2 0x7B2 JUMP JUMPDEST PUSH2 0x260 DUP6 ADD MSTORE PUSH2 0x9DD PUSH2 0x280 DUP3 ADD PUSH2 0x7BF JUMP JUMPDEST PUSH2 0x280 DUP6 ADD MSTORE PUSH2 0x9F0 PUSH2 0x2A0 DUP3 ADD PUSH2 0x7CC JUMP JUMPDEST PUSH2 0x2A0 DUP6 ADD MSTORE PUSH2 0xA03 PUSH2 0x2C0 DUP3 ADD PUSH2 0x7D9 JUMP JUMPDEST PUSH2 0x2C0 DUP6 ADD MSTORE PUSH2 0xA16 PUSH2 0x2E0 DUP3 ADD PUSH2 0x757 JUMP JUMPDEST PUSH2 0x2E0 DUP6 ADD MSTORE PUSH2 0xA29 PUSH2 0x300 DUP3 ADD PUSH2 0x757 JUMP JUMPDEST PUSH2 0x300 DUP6 ADD MSTORE PUSH2 0xA3C PUSH2 0x320 DUP3 ADD PUSH2 0x764 JUMP JUMPDEST PUSH2 0x320 DUP6 ADD MSTORE PUSH2 0xA4F PUSH2 0x340 DUP3 ADD PUSH2 0x7E6 JUMP JUMPDEST PUSH2 0x340 DUP6 ADD MSTORE PUSH2 0xA62 PUSH2 0x360 DUP3 ADD PUSH2 0x7F3 JUMP JUMPDEST PUSH2 0x360 DUP6 ADD MSTORE PUSH2 0xA75 PUSH2 0x380 DUP3 ADD PUSH2 0x800 JUMP JUMPDEST PUSH2 0x380 DUP6 ADD MSTORE PUSH2 0xA88 PUSH2 0x3A0 DUP3 ADD PUSH2 0x80D JUMP JUMPDEST PUSH2 0x3A0 DUP6 ADD MSTORE PUSH2 0xA9B PUSH2 0x3C0 DUP3 ADD PUSH2 0x81A JUMP JUMPDEST PUSH2 0x3C0 DUP6 ADD MSTORE ADD PUSH2 0x73D JUMP JUMPDEST PUSH2 0x3E0 DUP3 ADD MSTORE SWAP1 JUMP JUMPDEST SWAP2 SWAP1 SWAP2 PUSH2 0xACF PUSH1 0x20 PUSH1 0x40 MLOAD PUSH2 0x9CA0 DUP2 ADD PUSH1 0x40 MSTORE PUSH2 0x9C80 DUP2 MSTORE ADD PUSH0 DUP2 MSTORE SWAP1 JUMP JUMPDEST PUSH1 0x40 MLOAD PUSH4 0x68B0B907 PUSH1 0xE0 SHL DUP2 MSTORE PUSH1 0x1B PUSH1 0x4 DUP3 ADD MSTORE SWAP1 SWAP4 PUSH0 DUP3 PUSH1 0x24 DUP2 PUSH20 0x0 GAS DELEGATECALL SWAP2 DUP3 ISZERO PUSH2 0xBFB JUMPI PUSH0 SWAP3 PUSH2 0xC00 JUMPI JUMPDEST POP PUSH1 0x40 MLOAD PUSH4 0x7E9065B PUSH1 0xE5 SHL DUP2 MSTORE PUSH2 0xFFFF SWAP4 DUP5 AND PUSH1 0x4 DUP3 ADD MSTORE SWAP3 AND PUSH1 0x24 DUP4 ADD MSTORE PUSH1 0x44 DUP3 ADD SWAP3 SWAP1 SWAP3 MSTORE SWAP1 PUSH0 DUP3 PUSH1 0x64 DUP2 PUSH1 0x1 PUSH1 0x1 PUSH1 0xA0 SHL SUB PUSH32 0x0 AND GAS STATICCALL SWAP2 DUP3 ISZERO PUSH2 0xBFB JUMPI PUSH0 SWAP3 PUSH2 0xBD7 JUMPI JUMPDEST POP PUSH2 0xB8F PUSH2 0xB8A PUSH1 0x80 DUP5 ADD MLOAD PUSH2 0xFFFF AND SWAP1 JUMP JUMPDEST PUSH2 0xC60 JUMP JUMPDEST PUSH2 0xBCD JUMPI SWAP1 PUSH2 0xBC9 SWAP2 PUSH2 0xBC4 DUP3 PUSH32 0x0 DUP4 DUP8 PUSH2 0x13C2 JUMP JUMPDEST PUSH2 0x1789 JUMP JUMPDEST SWAP1 SWAP2 JUMP JUMPDEST SWAP1 PUSH2 0xBC9 SWAP3 PUSH2 0xF3B JUMP JUMPDEST PUSH2 0xBF4 SWAP2 SWAP3 POP RETURNDATASIZE DUP1 PUSH0 DUP4 RETURNDATACOPY PUSH2 0xBEC DUP2 DUP4 PUSH2 0x11B JUMP JUMPDEST DUP2 ADD SWAP1 PUSH2 0x827 JUMP JUMPDEST SWAP1 PUSH0 PUSH2 0xB77 JUMP JUMPDEST PUSH2 0x617 JUMP JUMPDEST PUSH0 SWAP3 POP PUSH2 0xC1E SWAP1 RETURNDATASIZE DUP1 DUP6 DUP4 RETURNDATACOPY PUSH2 0xC16 DUP2 DUP4 PUSH2 0x11B JUMP JUMPDEST DUP2 ADD SWAP1 PUSH2 0x532 JUMP JUMPDEST SWAP2 PUSH2 0xB0F JUMP JUMPDEST PUSH1 0x40 MLOAD SWAP1 PUSH2 0xC33 PUSH1 0x20 DUP4 PUSH2 0x11B JUMP JUMPDEST PUSH0 DUP3 MSTORE JUMP JUMPDEST PUSH4 0x4E487B71 PUSH1 0xE0 SHL PUSH0 MSTORE PUSH1 0x11 PUSH1 0x4 MSTORE PUSH1 0x24 PUSH0 REVERT JUMPDEST PUSH4 0x4E487B71 PUSH1 0xE0 SHL PUSH0 MSTORE PUSH1 0x21 PUSH1 0x4 MSTORE PUSH1 0x24 PUSH0 REVERT JUMPDEST PUSH2 0xFFFF DUP2 AND ISZERO PUSH2 0xCF5 JUMPI PUSH2 0xFFFF PUSH0 NOT SWAP2 AND ADD PUSH2 0xFFFF DUP2 GT PUSH2 0xCF0 JUMPI PUSH2 0xFFFF AND PUSH1 0x4 DUP2 EQ SWAP1 DUP2 ISZERO PUSH2 0xCE5 JUMPI JUMPDEST DUP2 ISZERO PUSH2 0xCDA JUMPI JUMPDEST DUP2 ISZERO PUSH2 0xCCF JUMPI JUMPDEST DUP2 ISZERO PUSH2 0xCC4 JUMPI JUMPDEST DUP2 ISZERO PUSH2 0xCB9 JUMPI JUMPDEST DUP2 ISZERO PUSH2 0xCB1 JUMPI POP SWAP1 JUMP JUMPDEST PUSH1 0xD SWAP2 POP EQ SWAP1 JUMP JUMPDEST PUSH1 0xB DUP2 EQ SWAP2 POP PUSH2 0xCA7 JUMP JUMPDEST PUSH1 0x8 DUP2 EQ SWAP2 POP PUSH2 0xCA0 JUMP JUMPDEST PUSH1 0x7 DUP2 EQ SWAP2 POP PUSH2 0xC99 JUMP JUMPDEST PUSH1 0x6 DUP2 EQ SWAP2 POP PUSH2 0xC92 JUMP JUMPDEST PUSH1 0x5 DUP2 EQ SWAP2 POP PUSH2 0xC8B JUMP JUMPDEST PUSH2 0xC38 JUMP JUMPDEST POP PUSH0 SWAP1 JUMP JUMPDEST PUSH2 0xFFFF PUSH1 0x64 SWAP2 AND ADD SWAP1 PUSH2 0xFFFF DUP3 GT PUSH2 0xCF0 JUMPI JUMP JUMPDEST SWAP1 PUSH1 0x20 DUP3 DUP3 SUB SLT PUSH2 0x98 JUMPI DUP2 MLOAD PUSH1 0x1 PUSH1 0x1 PUSH1 0x40 SHL SUB DUP2 GT PUSH2 0x98 JUMPI PUSH2 0x198 SWAP3 ADD PUSH2 0x232 JUMP JUMPDEST PUSH1 0x40 MLOAD SWAP1 PUSH2 0xD42 PUSH1 0x60 DUP4 PUSH2 0x11B JUMP JUMPDEST PUSH1 0x3C DUP3 MSTORE PUSH32 0x30302F737667222076696577426F783D22302030203438203438223E00000000 PUSH1 0x40 DUP4 PUSH32 0x3C73766720786D6C6E733D22687474703A2F2F7777772E77332E6F72672F3230 PUSH1 0x20 DUP3 ADD MSTORE ADD MSTORE JUMP JUMPDEST PUSH1 0x40 MLOAD SWAP1 PUSH2 0xDA3 PUSH1 0x60 DUP4 PUSH2 0x11B JUMP JUMPDEST PUSH1 0x2E DUP3 MSTORE PUSH14 0x30BA32B21DBE9E17B9BA3CB6329F PUSH1 0x91 SHL PUSH1 0x40 DUP4 PUSH32 0x3C7374796C653E696D677B696D6167652D72656E646572696E673A706978656C PUSH1 0x20 DUP3 ADD MSTORE ADD MSTORE JUMP JUMPDEST PUSH1 0x40 MLOAD SWAP1 PUSH2 0xDF5 PUSH1 0x40 DUP4 PUSH2 0x11B JUMP JUMPDEST PUSH1 0x17 DUP3 MSTORE PUSH32 0x3C672069643D2247656E657261746564496D616765223E000000000000000000 PUSH1 0x20 DUP4 ADD MSTORE JUMP JUMPDEST PUSH1 0x40 MLOAD SWAP1 PUSH2 0xE30 PUSH1 0x60 DUP4 PUSH2 0x11B JUMP JUMPDEST PUSH1 0x26 DUP3 MSTORE PUSH32 0x3C666F726569676E4F626A6563742077696474683D2234382220686569676874 PUSH1 0x20 DUP4 ADD MSTORE PUSH6 0x1E911A1C111F PUSH1 0xD1 SHL PUSH1 0x40 DUP4 ADD MSTORE JUMP JUMPDEST PUSH1 0x40 MLOAD SWAP1 PUSH2 0xE7A PUSH1 0x80 DUP4 PUSH2 0x11B JUMP JUMPDEST PUSH1 0x45 DUP3 MSTORE PUSH5 0x1CD94D8D0B PUSH1 0xDA SHL PUSH1 0x60 DUP4 PUSH32 0x3C696D6720786D6C6E733D22687474703A2F2F7777772E77332E6F72672F3139 PUSH1 0x20 DUP3 ADD MSTORE PUSH32 0x39392F7868746D6C22207372633D22646174613A696D6167652F706E673B6261 PUSH1 0x40 DUP3 ADD MSTORE ADD MSTORE JUMP JUMPDEST PUSH1 0x40 MLOAD SWAP1 PUSH2 0xEE9 PUSH1 0x60 DUP4 PUSH2 0x11B JUMP JUMPDEST PUSH1 0x38 DUP3 MSTORE PUSH32 0x666F726569676E4F626A6563743E3C2F673E3C2F7376673E0000000000000000 PUSH1 0x40 DUP4 PUSH32 0x222077696474683D223130302522206865696768743D2231303025222F3E3C2F PUSH1 0x20 DUP3 ADD MSTORE ADD MSTORE JUMP JUMPDEST SWAP1 PUSH2 0xF79 SWAP2 SWAP4 SWAP3 SWAP4 PUSH0 PUSH2 0xF55 PUSH2 0xFFFF PUSH1 0x80 DUP6 ADD MLOAD AND PUSH2 0xCFA JUMP JUMPDEST PUSH1 0x40 MLOAD PUSH4 0x69DDE379 PUSH1 0xE0 SHL DUP2 MSTORE PUSH2 0xFFFF SWAP1 SWAP2 AND PUSH1 0x4 DUP3 ADD MSTORE SWAP4 DUP5 SWAP1 DUP2 SWAP1 PUSH1 0x24 DUP3 ADD SWAP1 JUMP JUMPDEST SUB DUP2 PUSH32 0x0 PUSH1 0x1 PUSH1 0x1 PUSH1 0xA0 SHL SUB AND GAS STATICCALL SWAP3 DUP4 ISZERO PUSH2 0xBFB JUMPI PUSH2 0x198 SWAP4 PUSH2 0x1001 SWAP2 PUSH0 SWAP2 PUSH2 0x1018 JUMPI JUMPDEST POP PUSH2 0xFCF PUSH2 0xFC9 PUSH2 0xD33 JUMP JUMPDEST DUP5 PUSH2 0x1C76 JUMP JUMPDEST PUSH2 0xFDA PUSH2 0xFC9 PUSH2 0xD94 JUMP JUMPDEST PUSH2 0xFE5 PUSH2 0xFC9 PUSH2 0xDE6 JUMP JUMPDEST PUSH2 0xFF0 PUSH2 0xFC9 PUSH2 0xE21 JUMP JUMPDEST PUSH2 0xFFB PUSH2 0xFC9 PUSH2 0xE6B JUMP JUMPDEST DUP3 PUSH2 0x1CB9 JUMP JUMPDEST PUSH2 0x1012 PUSH2 0x100C PUSH2 0xEDA JUMP JUMPDEST DUP3 PUSH2 0x1C76 JUMP JUMPDEST SWAP4 PUSH2 0x1789 JUMP JUMPDEST PUSH2 0x1034 SWAP2 POP RETURNDATASIZE DUP1 PUSH0 DUP4 RETURNDATACOPY PUSH2 0x102C DUP2 DUP4 PUSH2 0x11B JUMP JUMPDEST DUP2 ADD SWAP1 PUSH2 0xD0E JUMP JUMPDEST PUSH0 PUSH2 0xFBD JUMP JUMPDEST PUSH1 0x1B GT ISZERO PUSH2 0x1044 JUMPI JUMP JUMPDEST PUSH2 0xC4C JUMP JUMPDEST SWAP1 PUSH1 0x20 DUP3 DUP3 SUB SLT PUSH2 0x98 JUMPI DUP2 MLOAD PUSH1 0x1 PUSH1 0x1 PUSH1 0x40 SHL SUB DUP2 GT PUSH2 0x98 JUMPI PUSH2 0x198 SWAP3 ADD PUSH2 0x427 JUMP JUMPDEST SWAP1 DUP1 PUSH1 0x20 DUP4 MLOAD SWAP2 DUP3 DUP2 MSTORE ADD SWAP2 PUSH1 0x20 DUP1 DUP4 PUSH1 0x5 SHL DUP4 ADD ADD SWAP5 ADD SWAP3 PUSH0 SWAP2 JUMPDEST DUP4 DUP4 LT PUSH2 0x1099 JUMPI POP POP POP POP POP SWAP1 JUMP JUMPDEST SWAP1 SWAP2 SWAP3 SWAP4 SWAP5 PUSH1 0x20 DUP1 PUSH2 0x111F PUSH1 0x1 SWAP4 PUSH1 0x1F NOT DUP7 DUP3 SUB ADD DUP8 MSTORE DUP10 MLOAD SWAP1 PUSH1 0xC0 PUSH2 0x10C8 DUP4 MLOAD PUSH1 0xE0 DUP5 MSTORE PUSH1 0xE0 DUP5 ADD SWAP1 PUSH2 0xA8 JUMP JUMPDEST SWAP3 PUSH1 0xFF DUP7 DUP3 ADD MLOAD AND DUP7 DUP5 ADD MSTORE PUSH1 0xFF PUSH1 0x40 DUP3 ADD MLOAD AND PUSH1 0x40 DUP5 ADD MSTORE PUSH1 0xFF PUSH1 0x60 DUP3 ADD MLOAD AND PUSH1 0x60 DUP5 ADD MSTORE PUSH2 0x1102 PUSH1 0x80 DUP3 ADD MLOAD PUSH1 0x80 DUP6 ADD SWAP1 PUSH1 0xFF AND SWAP1 MSTORE JUMP JUMPDEST PUSH1 0xA0 DUP2 DUP2 ADD MLOAD PUSH1 0xFF AND SWAP1 DUP5 ADD MSTORE ADD MLOAD SWAP1 PUSH1 0xC0 DUP2 DUP5 SUB SWAP2 ADD MSTORE PUSH2 0xA8 JUMP JUMPDEST SWAP8 ADD SWAP4 ADD SWAP4 ADD SWAP2 SWAP4 SWAP3 SWAP1 PUSH2 0x108A JUMP JUMPDEST SWAP1 PUSH1 0x20 DUP1 DUP4 MLOAD SWAP3 DUP4 DUP2 MSTORE ADD SWAP3 ADD SWAP1 PUSH0 JUMPDEST DUP2 DUP2 LT PUSH2 0x114B JUMPI POP POP POP SWAP1 JUMP JUMPDEST DUP3 MLOAD ISZERO ISZERO DUP5 MSTORE PUSH1 0x20 SWAP4 DUP5 ADD SWAP4 SWAP1 SWAP3 ADD SWAP2 PUSH1 0x1 ADD PUSH2 0x113E JUMP JUMPDEST SWAP3 SWAP2 SWAP1 PUSH1 0x1 DUP1 PUSH1 0xA0 SHL SUB AND DUP4 MSTORE PUSH1 0x60 PUSH1 0x20 DUP5 ADD MSTORE PUSH1 0xA0 DUP4 ADD SWAP1 DUP1 MLOAD SWAP2 PUSH1 0x40 PUSH1 0x60 DUP7 ADD MSTORE DUP3 MLOAD DUP1 SWAP2 MSTORE PUSH1 0xC0 DUP6 ADD SWAP1 PUSH1 0x20 PUSH1 0xC0 DUP3 PUSH1 0x5 SHL DUP9 ADD ADD SWAP5 ADD SWAP2 PUSH0 SWAP1 JUMPDEST DUP3 DUP3 LT PUSH2 0x11CF JUMPI POP POP POP POP PUSH2 0x11CA PUSH1 0x1 SWAP3 PUSH1 0x20 PUSH1 0x40 SWAP4 ADD MLOAD PUSH1 0x5F NOT DUP8 DUP4 SUB ADD PUSH1 0x80 DUP9 ADD MSTORE PUSH2 0x112E JUMP JUMPDEST SWAP4 ADD MSTORE JUMP JUMPDEST SWAP1 SWAP2 SWAP3 SWAP5 PUSH1 0xBF NOT DUP9 DUP3 SUB ADD DUP3 MSTORE DUP6 MLOAD SWAP1 DUP2 MLOAD DUP2 MSTORE PUSH2 0x11FC PUSH1 0x20 DUP4 ADD MLOAD PUSH1 0xA0 PUSH1 0x20 DUP5 ADD MSTORE PUSH1 0xA0 DUP4 ADD SWAP1 PUSH2 0xA8 JUMP JUMPDEST PUSH1 0x40 DUP4 ADD MLOAD SWAP1 DUP3 DUP2 SUB PUSH1 0x40 DUP5 ADD MSTORE PUSH1 0x20 DUP1 DUP4 MLOAD SWAP3 DUP4 DUP2 MSTORE ADD SWAP3 ADD SWAP1 PUSH0 SWAP1 JUMPDEST DUP1 DUP3 LT PUSH2 0x1260 JUMPI POP POP POP DUP3 PUSH2 0x1252 PUSH1 0x20 SWAP4 PUSH1 0x80 DUP1 PUSH2 0x1247 DUP8 SWAP7 PUSH1 0x60 PUSH1 0x1 SWAP11 ADD MLOAD DUP6 DUP3 SUB PUSH1 0x60 DUP8 ADD MSTORE PUSH2 0x106E JUMP JUMPDEST SWAP5 ADD MLOAD PUSH1 0xFF AND SWAP2 ADD MSTORE JUMP JUMPDEST SWAP8 ADD SWAP3 ADD SWAP3 ADD SWAP1 SWAP3 SWAP2 PUSH2 0x11A1 JUMP JUMPDEST SWAP1 SWAP2 SWAP3 PUSH1 0x20 DUP1 PUSH1 0x1 SWAP3 PUSH4 0xFFFFFFFF DUP8 MLOAD AND DUP2 MSTORE ADD SWAP5 ADD SWAP3 ADD SWAP1 PUSH2 0x121A JUMP JUMPDEST SWAP4 SWAP3 SWAP2 SWAP1 PUSH1 0x1 DUP1 PUSH1 0xA0 SHL SUB AND DUP5 MSTORE PUSH1 0x60 PUSH1 0x20 DUP6 ADD MSTORE PUSH1 0xA0 DUP5 ADD SWAP1 DUP1 MLOAD SWAP2 PUSH1 0x40 PUSH1 0x60 DUP8 ADD MSTORE DUP3 MLOAD DUP1 SWAP2 MSTORE PUSH1 0xC0 DUP7 ADD SWAP1 PUSH1 0x20 PUSH1 0xC0 DUP3 PUSH1 0x5 SHL DUP10 ADD ADD SWAP5 ADD SWAP2 PUSH0 SWAP1 JUMPDEST DUP3 DUP3 LT PUSH2 0x12E4 JUMPI POP POP POP POP PUSH1 0x20 ADD MLOAD DUP5 DUP3 SUB PUSH1 0x5F NOT ADD PUSH1 0x80 DUP7 ADD MSTORE PUSH1 0x40 SWAP2 PUSH2 0x11CA SWAP2 PUSH2 0x112E JUMP JUMPDEST SWAP1 SWAP2 SWAP3 SWAP5 PUSH1 0xBF NOT DUP10 DUP3 SUB ADD DUP3 MSTORE DUP6 MLOAD SWAP1 DUP2 MLOAD DUP2 MSTORE PUSH2 0x1311 PUSH1 0x20 DUP4 ADD MLOAD PUSH1 0xA0 PUSH1 0x20 DUP5 ADD MSTORE PUSH1 0xA0 DUP4 ADD SWAP1 PUSH2 0xA8 JUMP JUMPDEST PUSH1 0x40 DUP4 ADD MLOAD SWAP1 DUP3 DUP2 SUB PUSH1 0x40 DUP5 ADD MSTORE PUSH1 0x20 DUP1 DUP4 MLOAD SWAP3 DUP4 DUP2 MSTORE ADD SWAP3 ADD SWAP1 PUSH0 SWAP1 JUMPDEST DUP1 DUP3 LT PUSH2 0x136A JUMPI POP POP POP DUP3 PUSH2 0x135C PUSH1 0x20 SWAP4 PUSH1 0x80 DUP1 PUSH2 0x1247 DUP8 SWAP7 PUSH1 0x60 PUSH1 0x1 SWAP11 ADD MLOAD DUP6 DUP3 SUB PUSH1 0x60 DUP8 ADD MSTORE PUSH2 0x106E JUMP JUMPDEST SWAP8 ADD SWAP3 ADD SWAP3 ADD SWAP1 SWAP3 SWAP2 PUSH2 0x12BD JUMP JUMPDEST SWAP1 SWAP2 SWAP3 PUSH1 0x20 DUP1 PUSH1 0x1 SWAP3 PUSH4 0xFFFFFFFF DUP8 MLOAD AND DUP2 MSTORE ADD SWAP5 ADD SWAP3 ADD SWAP1 PUSH2 0x132F JUMP JUMPDEST PUSH4 0x4E487B71 PUSH1 0xE0 SHL PUSH0 MSTORE PUSH1 0x32 PUSH1 0x4 MSTORE PUSH1 0x24 PUSH0 REVERT JUMPDEST DUP1 MLOAD DUP3 LT ISZERO PUSH2 0x13B0 JUMPI PUSH1 0x20 SWAP2 PUSH1 0x5 SHL ADD ADD SWAP1 JUMP JUMPDEST PUSH2 0x1388 JUMP JUMPDEST MLOAD PUSH1 0x1B DUP2 LT ISZERO PUSH2 0x1044 JUMPI SWAP1 JUMP JUMPDEST SWAP3 SWAP4 SWAP2 SWAP4 PUSH20 0x0 SWAP3 PUSH1 0x40 MLOAD PUSH4 0x5DE99DB1 PUSH1 0xE1 SHL DUP2 MSTORE PUSH0 DUP2 DUP1 PUSH2 0x13FA DUP8 DUP12 PUSH1 0x4 DUP5 ADD PUSH2 0x1163 JUMP JUMPDEST SUB DUP2 DUP9 GAS DELEGATECALL DUP1 ISZERO PUSH2 0xBFB JUMPI PUSH2 0x1568 JUMPI JUMPDEST POP PUSH0 JUMPDEST PUSH2 0x1424 PUSH2 0x141E PUSH1 0x20 DUP6 ADD MLOAD PUSH1 0xFF AND SWAP1 JUMP JUMPDEST PUSH1 0xFF AND SWAP1 JUMP JUMPDEST DUP2 LT ISZERO PUSH2 0x1539 JUMPI PUSH2 0x1468 PUSH0 PUSH2 0x1443 PUSH2 0x143D DUP5 DUP8 MLOAD PUSH2 0x139C JUMP JUMPDEST MLOAD PUSH2 0x13B5 JUMP JUMPDEST PUSH2 0x144C DUP2 PUSH2 0x103A JUMP JUMPDEST PUSH1 0x40 MLOAD DUP1 SWAP4 DUP2 SWAP3 PUSH4 0x5DE99DB1 PUSH1 0xE1 SHL DUP4 MSTORE DUP10 DUP14 PUSH1 0x4 DUP6 ADD PUSH2 0x127E JUMP JUMPDEST SUB DUP2 DUP10 GAS DELEGATECALL DUP1 ISZERO PUSH2 0xBFB JUMPI PUSH2 0x1521 JUMPI JUMPDEST POP PUSH2 0x1491 PUSH1 0x40 PUSH2 0x1489 DUP4 DUP7 MLOAD PUSH2 0x139C JUMP JUMPDEST MLOAD ADD MLOAD ISZERO ISZERO SWAP1 JUMP JUMPDEST PUSH2 0x149E JUMPI JUMPDEST PUSH1 0x1 ADD PUSH2 0x140D JUMP JUMPDEST DUP1 PUSH0 PUSH2 0x14C7 PUSH2 0x14BE PUSH1 0x60 PUSH2 0x14B6 PUSH2 0x14E3 SWAP7 DUP10 MLOAD PUSH2 0x139C JUMP JUMPDEST MLOAD ADD MLOAD PUSH2 0x13B5 JUMP JUMPDEST PUSH2 0x141E DUP2 PUSH2 0x103A JUMP JUMPDEST PUSH1 0x40 MLOAD DUP1 SWAP5 DUP2 SWAP3 PUSH4 0x5DE99DB1 PUSH1 0xE1 SHL DUP4 MSTORE DUP10 DUP14 PUSH1 0x4 DUP6 ADD PUSH2 0x127E JUMP JUMPDEST SUB DUP2 DUP10 GAS DELEGATECALL SWAP2 DUP3 ISZERO PUSH2 0xBFB JUMPI PUSH1 0x1 SWAP3 PUSH2 0x14FF JUMPI JUMPDEST POP SWAP1 POP PUSH2 0x1496 JUMP JUMPDEST PUSH2 0x151A SWAP1 RETURNDATASIZE DUP1 PUSH0 DUP4 RETURNDATACOPY PUSH2 0x1512 DUP2 DUP4 PUSH2 0x11B JUMP JUMPDEST DUP2 ADD SWAP1 PUSH2 0x1049 JUMP JUMPDEST POP PUSH0 PUSH2 0x14F7 JUMP JUMPDEST PUSH2 0x1534 SWAP1 RETURNDATASIZE DUP1 PUSH0 DUP4 RETURNDATACOPY PUSH2 0x1512 DUP2 DUP4 PUSH2 0x11B JUMP JUMPDEST PUSH2 0x1478 JUMP JUMPDEST POP SWAP5 POP SWAP2 POP PUSH2 0x14B SWAP3 PUSH32 0x0 PUSH2 0x19A8 JUMP JUMPDEST PUSH2 0x157B SWAP1 RETURNDATASIZE DUP1 PUSH0 DUP4 RETURNDATACOPY PUSH2 0x1512 DUP2 DUP4 PUSH2 0x11B JUMP JUMPDEST PUSH2 0x140A JUMP JUMPDEST PUSH1 0x40 MLOAD SWAP1 PUSH2 0x158F PUSH1 0x40 DUP4 PUSH2 0x11B JUMP JUMPDEST PUSH1 0xE DUP3 MSTORE PUSH14 0x2261747472696275746573223A5B PUSH1 0x90 SHL PUSH1 0x20 DUP4 ADD MSTORE JUMP JUMPDEST PUSH1 0x40 MLOAD SWAP1 PUSH2 0x15BB PUSH1 0x60 DUP4 PUSH2 0x11B JUMP JUMPDEST PUSH1 0x37 DUP3 MSTORE PUSH32 0x7065223A224269727468646179222C2276616C7565223A000000000000000000 PUSH1 0x40 DUP4 PUSH32 0x7B22646973706C61795F74797065223A2264617465222C2274726169745F7479 PUSH1 0x20 DUP3 ADD MSTORE ADD MSTORE JUMP JUMPDEST PUSH1 0x40 MLOAD SWAP1 PUSH2 0x161C PUSH1 0x40 DUP4 PUSH2 0x11B JUMP JUMPDEST PUSH1 0x1 DUP3 MSTORE PUSH1 0x7D PUSH1 0xF8 SHL PUSH1 0x20 DUP4 ADD MSTORE JUMP JUMPDEST PUSH1 0x40 MLOAD SWAP1 PUSH2 0x163B PUSH1 0x40 DUP4 PUSH2 0x11B JUMP JUMPDEST PUSH1 0x1 DUP3 MSTORE PUSH1 0xB PUSH1 0xFA SHL PUSH1 0x20 DUP4 ADD MSTORE JUMP JUMPDEST PUSH0 SLOAD SWAP1 PUSH2 0x1657 DUP3 PUSH2 0x21B JUMP JUMPDEST SWAP2 PUSH2 0x1665 PUSH1 0x40 MLOAD SWAP4 DUP5 PUSH2 0x11B JUMP JUMPDEST DUP1 DUP4 MSTORE PUSH0 DUP1 DUP1 MSTORE SWAP1 PUSH32 0x290DECD9548B62A8D60345A988386FC84BA6BC95484008F6362F93160EF3E563 PUSH1 0x20 DUP6 ADD JUMPDEST DUP3 DUP5 LT PUSH2 0x16A0 JUMPI POP POP POP POP JUMP JUMPDEST PUSH1 0x40 MLOAD PUSH0 DUP4 SLOAD DUP1 PUSH1 0x1 SHR SWAP1 PUSH1 0x1 DUP2 AND SWAP1 DUP2 ISZERO PUSH2 0x1760 JUMPI JUMPDEST PUSH1 0x20 DUP4 LT DUP3 EQ PUSH2 0x174C JUMPI DUP3 DUP6 MSTORE PUSH1 0x20 DUP6 ADD SWAP2 SWAP1 DUP2 ISZERO PUSH2 0x1735 JUMPI POP PUSH1 0x1 EQ PUSH2 0x16FC JUMPI JUMPDEST POP POP PUSH1 0x1 SWAP3 DUP3 PUSH2 0x16EE DUP6 SWAP5 PUSH1 0x20 SWAP5 SUB DUP3 PUSH2 0x11B JUMP JUMPDEST DUP2 MSTORE ADD SWAP3 ADD SWAP4 ADD SWAP3 SWAP1 PUSH2 0x1693 JUMP JUMPDEST SWAP1 SWAP2 POP PUSH2 0x170C DUP6 PUSH0 MSTORE PUSH1 0x20 PUSH0 KECCAK256 SWAP1 JUMP JUMPDEST SWAP2 PUSH0 SWAP3 JUMPDEST DUP2 DUP5 LT PUSH2 0x1721 JUMPI POP POP ADD DUP3 DUP3 PUSH2 0x16D9 JUMP JUMPDEST PUSH1 0x1 DUP2 PUSH1 0x20 SWAP3 SLOAD DUP7 DUP7 ADD MSTORE ADD SWAP4 ADD SWAP3 PUSH2 0x1710 JUMP JUMPDEST PUSH1 0xFF NOT AND DUP3 MSTORE POP SWAP1 ISZERO ISZERO PUSH1 0x5 SHL ADD SWAP1 POP DUP3 DUP3 PUSH2 0x16D9 JUMP JUMPDEST PUSH4 0x4E487B71 PUSH1 0xE0 SHL PUSH0 MSTORE PUSH1 0x22 PUSH1 0x4 MSTORE PUSH1 0x24 PUSH0 REVERT JUMPDEST SWAP2 PUSH1 0x7F AND SWAP2 PUSH2 0x16B7 JUMP JUMPDEST PUSH1 0x40 MLOAD SWAP1 PUSH2 0x1779 PUSH1 0x40 DUP4 PUSH2 0x11B JUMP JUMPDEST PUSH1 0x1 DUP3 MSTORE PUSH1 0x5D PUSH1 0xF8 SHL PUSH1 0x20 DUP4 ADD MSTORE JUMP JUMPDEST SWAP1 PUSH2 0x17A6 PUSH1 0x20 PUSH1 0x40 MLOAD PUSH2 0x830 DUP2 ADD PUSH1 0x40 MSTORE PUSH2 0x810 DUP2 MSTORE ADD PUSH0 DUP2 MSTORE SWAP1 JUMP JUMPDEST PUSH2 0x17B1 PUSH2 0x100C PUSH2 0x1580 JUMP JUMPDEST PUSH2 0x17BC PUSH2 0x100C PUSH2 0x15AC JUMP JUMPDEST PUSH2 0x17E4 PUSH2 0x100C PUSH2 0x17DF PUSH2 0x17D6 PUSH1 0xA0 DUP7 ADD MLOAD PUSH4 0xFFFFFFFF AND SWAP1 JUMP JUMPDEST PUSH4 0xFFFFFFFF AND SWAP1 JUMP JUMPDEST PUSH2 0x1AB6 JUMP JUMPDEST PUSH2 0x17EF PUSH2 0x100C PUSH2 0x160D JUMP JUMPDEST PUSH0 JUMPDEST PUSH2 0x1802 PUSH2 0x141E PUSH1 0x20 DUP6 ADD MLOAD PUSH1 0xFF AND SWAP1 JUMP JUMPDEST DUP2 LT ISZERO PUSH2 0x18AF JUMPI DUP1 PUSH2 0x181A PUSH2 0x143D PUSH1 0x1 SWAP4 DUP7 MLOAD PUSH2 0x139C JUMP JUMPDEST PUSH2 0x1823 DUP2 PUSH2 0x103A JUMP JUMPDEST PUSH2 0x183F PUSH2 0x141E PUSH1 0x20 PUSH2 0x1836 DUP6 DUP10 MLOAD PUSH2 0x139C JUMP JUMPDEST MLOAD ADD MLOAD PUSH1 0xFF AND SWAP1 JUMP JUMPDEST SWAP1 DUP4 DUP2 EQ PUSH2 0x18A8 JUMPI PUSH2 0x18A2 SWAP2 PUSH1 0x20 PUSH2 0x189A PUSH2 0x186D PUSH2 0x1861 PUSH2 0xFC9 SWAP6 DUP13 MLOAD PUSH2 0x139C JUMP JUMPDEST MLOAD SWAP4 PUSH1 0x60 DUP6 ADD MLOAD PUSH2 0x139C JUMP JUMPDEST MLOAD PUSH2 0x187F PUSH2 0x1879 PUSH2 0x162C JUMP JUMPDEST DUP11 PUSH2 0x1C76 JUMP JUMPDEST DUP4 MLOAD SWAP1 PUSH2 0x188B DUP3 PUSH2 0x103A JUMP JUMPDEST MLOAD PUSH2 0x1894 PUSH2 0x164B JUMP JUMPDEST SWAP2 PUSH2 0x1AFB JUMP JUMPDEST SWAP2 ADD MLOAD PUSH2 0x1C0F JUMP JUMPDEST ADD PUSH2 0x17F1 JUMP JUMPDEST POP POP PUSH2 0x18A2 JUMP JUMPDEST POP SWAP2 POP POP PUSH2 0x198 PUSH2 0x100C PUSH2 0x176A JUMP JUMPDEST PUSH2 0x600 SWAP1 PUSH1 0x40 MLOAD PUSH2 0x18CF DUP4 DUP3 PUSH2 0x11B JUMP JUMPDEST DUP1 SWAP3 PUSH0 JUMPDEST DUP2 DUP2 LT PUSH2 0x18DF JUMPI POP POP POP JUMP JUMPDEST PUSH1 0x20 SWAP1 PUSH1 0x40 MLOAD PUSH2 0x18EF DUP5 DUP3 PUSH2 0x11B JUMP JUMPDEST DUP4 CALLDATASIZE DUP3 CALLDATACOPY DUP2 DUP6 ADD MSTORE ADD PUSH2 0x18D3 JUMP JUMPDEST PUSH1 0x40 MLOAD SWAP1 PUSH2 0x190C PUSH1 0x80 DUP4 PUSH2 0x11B JUMP JUMPDEST PUSH1 0x59 DUP3 MSTORE PUSH32 0x652D72656E646572696E673D2263726973704564676573223E00000000000000 PUSH1 0x60 DUP4 PUSH32 0x3C73766720786D6C6E733D22687474703A2F2F7777772E77332E6F72672F3230 PUSH1 0x20 DUP3 ADD MSTORE PUSH32 0x30302F737667222076696577426F783D22302030203438203438222073686170 PUSH1 0x40 DUP3 ADD MSTORE ADD MSTORE JUMP JUMPDEST PUSH1 0x40 MLOAD SWAP1 PUSH2 0x1993 PUSH1 0x40 DUP4 PUSH2 0x11B JUMP JUMPDEST PUSH1 0x6 DUP3 MSTORE PUSH6 0x1E17B9BB339F PUSH1 0xD1 SHL PUSH1 0x20 DUP4 ADD MSTORE JUMP JUMPDEST SWAP3 PUSH2 0x19B1 PUSH2 0x18BE JUMP JUMPDEST SWAP2 PUSH0 JUMPDEST PUSH2 0x19C5 PUSH2 0x141E PUSH1 0x20 DUP6 ADD MLOAD PUSH1 0xFF AND SWAP1 JUMP JUMPDEST DUP2 LT ISZERO PUSH2 0x1A7C JUMPI DUP1 PUSH1 0x1 PUSH2 0x19DE PUSH2 0x143D DUP3 SWAP5 DUP8 MLOAD PUSH2 0x139C JUMP JUMPDEST PUSH2 0x19E7 DUP2 PUSH2 0x103A JUMP JUMPDEST EQ PUSH2 0x1A77 JUMPI PUSH2 0x1A23 PUSH2 0x1A0B DUP8 MLOAD PUSH2 0x1A05 PUSH2 0x14BE PUSH2 0x143D DUP7 DUP11 MLOAD PUSH2 0x139C JUMP JUMPDEST SWAP1 PUSH2 0x139C JUMP JUMPDEST MLOAD PUSH2 0x1A1C PUSH1 0x20 PUSH2 0x1836 DUP6 DUP10 MLOAD PUSH2 0x139C JUMP JUMPDEST SWAP1 DUP8 PUSH2 0x1E48 JUMP JUMPDEST PUSH2 0x1A33 PUSH1 0x40 PUSH2 0x1489 DUP4 DUP8 MLOAD PUSH2 0x139C JUMP JUMPDEST PUSH2 0x1A3E JUMPI JUMPDEST ADD PUSH2 0x19B4 JUMP JUMPDEST PUSH2 0x1A77 PUSH2 0x1A59 DUP8 MLOAD PUSH2 0x1A05 PUSH2 0x14BE PUSH1 0x60 PUSH2 0x14B6 DUP8 DUP12 MLOAD PUSH2 0x139C JUMP JUMPDEST MLOAD PUSH2 0x1A1C PUSH1 0x20 PUSH1 0x60 PUSH2 0x1A6C DUP7 DUP11 MLOAD PUSH2 0x139C JUMP JUMPDEST MLOAD ADD MLOAD ADD MLOAD PUSH1 0xFF AND SWAP1 JUMP JUMPDEST PUSH2 0x1A38 JUMP JUMPDEST POP SWAP3 SWAP2 PUSH2 0x1AA3 DUP5 SWAP3 PUSH2 0x1AA8 SWAP5 DUP5 PUSH2 0x14B SWAP9 PUSH2 0x1A9E PUSH2 0x1A98 PUSH2 0x18FD JUMP JUMPDEST DUP4 PUSH2 0x1C76 JUMP JUMPDEST PUSH2 0x23CD JUMP JUMPDEST PUSH2 0x26B7 JUMP JUMPDEST PUSH2 0x1AB0 PUSH2 0x1984 JUMP JUMPDEST SWAP1 PUSH2 0x1C76 JUMP JUMPDEST SWAP1 PUSH1 0x40 MLOAD PUSH1 0xA PUSH1 0x80 DUP3 ADD SWAP4 PUSH1 0xA0 DUP4 ADD PUSH1 0x40 MSTORE PUSH0 DUP6 MSTORE SWAP4 JUMPDEST PUSH0 NOT ADD SWAP4 PUSH1 0x30 DUP3 DUP3 MOD ADD DUP6 MSTORE8 DIV SWAP3 DUP4 ISZERO PUSH2 0x1AE9 JUMPI PUSH1 0xA SWAP1 PUSH2 0x1ACD JUMP JUMPDEST DUP1 SWAP4 POP PUSH1 0x80 SWAP2 SUB ADD SWAP2 PUSH1 0x1F NOT ADD SWAP2 DUP3 MSTORE JUMP JUMPDEST SWAP2 SWAP1 SWAP2 PUSH2 0x1B07 DUP2 PUSH2 0x103A JUMP JUMPDEST PUSH1 0x2 DUP2 EQ SWAP1 DUP2 ISZERO PUSH2 0x1BE8 JUMPI JUMPDEST DUP2 ISZERO PUSH2 0x1BD3 JUMPI JUMPDEST DUP2 ISZERO PUSH2 0x1BBE JUMPI JUMPDEST DUP2 ISZERO PUSH2 0x1BA9 JUMPI JUMPDEST DUP2 ISZERO PUSH2 0x1B94 JUMPI JUMPDEST DUP2 ISZERO PUSH2 0x1B7F JUMPI JUMPDEST DUP2 ISZERO PUSH2 0x1B6A JUMPI JUMPDEST DUP2 ISZERO PUSH2 0x1B56 JUMPI JUMPDEST POP PUSH2 0x1B4D JUMPI POP SWAP1 JUMP JUMPDEST PUSH2 0x198 SWAP2 PUSH2 0x2814 JUMP JUMPDEST PUSH1 0x18 SWAP2 POP PUSH2 0x1B63 DUP2 PUSH2 0x103A JUMP JUMPDEST EQ PUSH0 PUSH2 0x1B44 JUMP JUMPDEST SWAP1 POP PUSH2 0x1B75 DUP2 PUSH2 0x103A JUMP JUMPDEST PUSH1 0x16 DUP2 EQ SWAP1 PUSH2 0x1B3D JUMP JUMPDEST SWAP1 POP PUSH2 0x1B8A DUP2 PUSH2 0x103A JUMP JUMPDEST PUSH1 0x15 DUP2 EQ SWAP1 PUSH2 0x1B36 JUMP JUMPDEST SWAP1 POP PUSH2 0x1B9F DUP2 PUSH2 0x103A JUMP JUMPDEST PUSH1 0xD DUP2 EQ SWAP1 PUSH2 0x1B2F JUMP JUMPDEST SWAP1 POP PUSH2 0x1BB4 DUP2 PUSH2 0x103A JUMP JUMPDEST PUSH1 0xB DUP2 EQ SWAP1 PUSH2 0x1B28 JUMP JUMPDEST SWAP1 POP PUSH2 0x1BC9 DUP2 PUSH2 0x103A JUMP JUMPDEST PUSH1 0xA DUP2 EQ SWAP1 PUSH2 0x1B21 JUMP JUMPDEST SWAP1 POP PUSH2 0x1BDE DUP2 PUSH2 0x103A JUMP JUMPDEST PUSH1 0x7 DUP2 EQ SWAP1 PUSH2 0x1B1A JUMP JUMPDEST SWAP1 POP PUSH2 0x1BF3 DUP2 PUSH2 0x103A JUMP JUMPDEST PUSH1 0xE DUP2 EQ SWAP1 PUSH2 0x1B13 JUMP JUMPDEST DUP1 MLOAD SWAP2 SWAP1 DUP3 SWAP1 PUSH1 0x20 ADD DUP3 MCOPY ADD PUSH0 DUP2 MSTORE SWAP1 JUMP JUMPDEST PUSH1 0x2 PUSH2 0x14B SWAP2 PUSH2 0x1C5F PUSH2 0x1C47 SWAP6 SWAP5 PUSH1 0xB PUSH1 0x40 MLOAD SWAP8 DUP9 SWAP5 PUSH15 0x3D913A3930B4BA2FBA3CB832911D11 PUSH1 0x89 SHL PUSH1 0x20 DUP8 ADD MSTORE PUSH1 0x2F DUP7 ADD SWAP1 PUSH2 0x1BFD JUMP JUMPDEST PUSH11 0x1116113B30B63AB2911D11 PUSH1 0xA9 SHL DUP2 MSTORE ADD SWAP1 PUSH2 0x1BFD JUMP JUMPDEST PUSH2 0x227D PUSH1 0xF0 SHL DUP2 MSTORE SUB PUSH1 0x1D NOT DUP2 ADD DUP6 MSTORE ADD DUP4 PUSH2 0x11B JUMP JUMPDEST SWAP1 PUSH2 0x1C82 DUP2 MLOAD DUP4 PUSH2 0x298B JUMP JUMPDEST DUP1 MLOAD SWAP1 PUSH1 0x20 DUP3 DUP2 DUP4 ADD SWAP3 ADD ADD SWAP1 PUSH1 0x20 DUP5 MLOAD DUP6 ADD ADD SWAP1 JUMPDEST DUP3 DUP2 LT PUSH2 0x1CA9 JUMPI POP POP POP DUP2 MLOAD ADD SWAP1 MSTORE JUMP JUMPDEST DUP1 MLOAD DUP3 MSTORE PUSH1 0x20 SWAP2 DUP3 ADD SWAP2 ADD PUSH2 0x1C98 JUMP JUMPDEST DUP2 MLOAD DUP1 ISZERO PUSH2 0x1D9D JUMPI PUSH1 0x3 PUSH1 0x2 DUP3 ADD DIV PUSH1 0x2 SHL SWAP1 PUSH1 0x3 DUP2 MOD SWAP1 PUSH2 0x1CDB DUP4 DUP6 PUSH2 0x298B JUMP JUMPDEST PUSH1 0x40 MLOAD SWAP5 PUSH32 0x4142434445464748494A4B4C4D4E4F505152535455565758595A616263646566 PUSH1 0x1F MSTORE PUSH2 0x22F NOT PUSH32 0x6768696A6B6C6D6E6F707172737475767778797A303132333435363738392D5F ADD PUSH1 0x3F MSTORE PUSH1 0x4 PUSH1 0x3 PUSH1 0x20 DUP8 MLOAD DUP9 ADD ADD SWAP4 DUP4 ADD SWAP3 JUMPDEST ADD SWAP3 PUSH1 0x3F DUP5 MLOAD DUP2 DUP2 PUSH1 0x12 SHR AND MLOAD DUP4 MSTORE8 DUP2 DUP2 PUSH1 0xC SHR AND MLOAD PUSH1 0x1 DUP5 ADD MSTORE8 DUP2 DUP2 PUSH1 0x6 SHR AND MLOAD PUSH1 0x2 DUP5 ADD MSTORE8 AND MLOAD PUSH1 0x3 DUP3 ADD MSTORE8 ADD SWAP2 DUP2 DUP2 LT ISZERO PUSH2 0x1D7E JUMPI PUSH1 0x3 PUSH1 0x4 SWAP2 PUSH2 0x1D3C JUMP JUMPDEST POP POP PUSH1 0x1 PUSH1 0x3D SWAP3 DUP4 DUP2 ISZERO ISZERO DUP5 SUB MSTORE8 EQ PUSH1 0x1 SHL SWAP1 SUB MSTORE8 DUP2 MLOAD ADD SWAP1 MSTORE PUSH1 0x40 MSTORE JUMP JUMPDEST POP POP POP JUMP JUMPDEST PUSH0 NOT DUP2 EQ PUSH2 0xCF0 JUMPI PUSH1 0x1 ADD SWAP1 JUMP JUMPDEST SWAP1 DUP2 MLOAD DUP2 LT ISZERO PUSH2 0x13B0 JUMPI ADD PUSH1 0x20 ADD SWAP1 JUMP JUMPDEST PUSH2 0x3E8 ADD SWAP1 DUP2 PUSH2 0x3E8 GT PUSH2 0xCF0 JUMPI JUMP JUMPDEST SWAP1 PUSH1 0x1 DUP3 ADD DUP1 SWAP3 GT PUSH2 0xCF0 JUMPI JUMP JUMPDEST SWAP2 SWAP1 DUP3 ADD DUP1 SWAP3 GT PUSH2 0xCF0 JUMPI JUMP JUMPDEST SWAP1 PUSH1 0xFF DUP1 SWAP2 AND SWAP2 AND ADD SWAP1 PUSH1 0xFF DUP3 GT PUSH2 0xCF0 JUMPI JUMP JUMPDEST SWAP1 PUSH1 0x30 DUP2 LT ISZERO PUSH2 0x13B0 JUMPI PUSH1 0x5 SHL ADD SWAP1 JUMP JUMPDEST PUSH1 0xFF PUSH0 NOT SWAP2 AND ADD SWAP1 PUSH1 0xFF DUP3 GT PUSH2 0xCF0 JUMPI JUMP JUMPDEST SWAP1 PUSH1 0xFF DUP1 SWAP2 AND SWAP2 AND SUB SWAP1 PUSH1 0xFF DUP3 GT PUSH2 0xCF0 JUMPI JUMP JUMPDEST PUSH1 0xFF AND PUSH1 0xFF DUP2 EQ PUSH2 0xCF0 JUMPI PUSH1 0x1 ADD SWAP1 JUMP JUMPDEST SWAP2 PUSH2 0x1E5F SWAP1 SWAP4 SWAP2 SWAP4 PUSH1 0xFF PUSH1 0x60 DUP7 ADD MLOAD SWAP2 AND SWAP1 PUSH2 0x139C JUMP JUMPDEST MLOAD PUSH1 0xC0 DUP2 ADD MLOAD SWAP4 PUSH0 SWAP5 PUSH1 0x40 DUP4 ADD SWAP6 PUSH2 0x1E78 DUP8 MLOAD PUSH1 0xFF AND SWAP1 JUMP JUMPDEST SWAP6 PUSH1 0x80 PUSH2 0x1E89 PUSH1 0x60 DUP8 ADD MLOAD PUSH1 0xFF AND SWAP1 JUMP JUMPDEST SWAP6 ADD SWAP7 JUMPDEST DUP4 MLOAD DUP4 LT ISZERO PUSH2 0x1FC1 JUMPI PUSH2 0x1EC3 PUSH2 0x1EBD PUSH2 0x1EAF PUSH2 0x1EA8 DUP7 PUSH2 0x1DA2 JUMP JUMPDEST SWAP6 DUP8 PUSH2 0x1DB0 JUMP JUMPDEST MLOAD PUSH1 0x1 PUSH1 0x1 PUSH1 0xF8 SHL SUB NOT AND SWAP1 JUMP JUMPDEST PUSH1 0xF8 SHR SWAP1 JUMP JUMPDEST SWAP1 PUSH1 0x80 DUP7 ADD SWAP4 PUSH2 0x1EE0 PUSH2 0x1EDA PUSH2 0x141E DUP8 MLOAD PUSH1 0xFF AND SWAP1 JUMP JUMPDEST DUP3 PUSH2 0x1DDF JUMP JUMPDEST DUP7 MLOAD LT PUSH2 0x20AC JUMPI PUSH2 0x1F2F PUSH2 0x1F1E DUP3 PUSH2 0x1F18 PUSH2 0x141E PUSH2 0x1F10 DUP12 PUSH2 0x1F39 SWAP8 SWAP13 SWAP15 SWAP13 PUSH2 0x1F0A DUP14 MLOAD PUSH1 0xFF AND SWAP1 JUMP JUMPDEST SWAP2 PUSH2 0x29FB JUMP JUMPDEST SWAP10 MLOAD PUSH1 0xFF AND SWAP1 JUMP JUMPDEST SWAP1 PUSH2 0x1DDF JUMP JUMPDEST SWAP6 PUSH2 0xFFFF PUSH1 0x40 DUP11 ADD MLOAD SWAP2 AND SWAP1 PUSH2 0x139C JUMP JUMPDEST MLOAD PUSH4 0xFFFFFFFF AND SWAP1 JUMP JUMPDEST PUSH1 0xFF DUP4 AND SWAP1 PUSH0 JUMPDEST DUP3 PUSH1 0xFF DUP3 AND LT PUSH2 0x1FE6 JUMPI POP POP POP SWAP1 PUSH2 0x1F57 SWAP2 PUSH2 0x1DEC JUMP JUMPDEST DUP8 MLOAD PUSH1 0xFF AND SWAP1 PUSH1 0xFF DUP3 AND PUSH1 0xFF DUP3 AND GT DUP1 PUSH2 0x1FCC JUMPI JUMPDEST ISZERO PUSH2 0x1FA1 JUMPI PUSH2 0x1F89 PUSH2 0x1F84 PUSH2 0x1F9B SWAP4 PUSH2 0x1F95 SWAP4 PUSH2 0x1E23 JUMP JUMPDEST PUSH2 0x1E11 JUMP JUMPDEST DUP11 MLOAD PUSH1 0xFF AND JUMPDEST SWAP1 PUSH2 0x1DEC JUMP JUMPDEST SWAP4 PUSH2 0x1E37 JUMP JUMPDEST SWAP3 PUSH2 0x1F57 JUMP JUMPDEST SWAP4 SWAP8 SWAP6 SWAP2 SWAP3 SWAP5 SWAP1 POP PUSH1 0x30 PUSH1 0xFF DUP10 AND LT ISZERO PUSH2 0x1FC1 JUMPI SWAP4 SWAP2 SWAP1 SWAP3 SWAP7 SWAP5 SWAP7 PUSH2 0x1E8D JUMP JUMPDEST POP POP POP POP POP POP SWAP2 POP POP JUMP JUMPDEST POP PUSH2 0x1FDB PUSH2 0x141E DUP12 MLOAD PUSH1 0xFF AND SWAP1 JUMP JUMPDEST PUSH1 0xFF DUP4 AND LT ISZERO PUSH2 0x1F6C JUMP JUMPDEST PUSH1 0x1 DUP2 DUP14 PUSH1 0xFF PUSH2 0x2008 PUSH2 0x141E SWAP13 SWAP15 SWAP13 PUSH2 0x2000 DUP4 SWAP8 DUP12 PUSH2 0x1DEC JUMP JUMPDEST SWAP4 MLOAD PUSH1 0xFF AND SWAP1 JUMP JUMPDEST SWAP2 AND SWAP1 DUP2 GT ISZERO DUP1 PUSH2 0x20A2 JUMPI JUMPDEST DUP14 DUP2 PUSH2 0x2095 JUMPI JUMPDEST POP PUSH2 0x202C JUMPI JUMPDEST POP ADD AND SWAP9 SWAP7 SWAP9 PUSH2 0x1F40 JUMP JUMPDEST DUP13 PUSH4 0xFFFFFFFF DUP7 AND PUSH4 0x5F5D6EFF SUB PUSH2 0x205D JUMPI PUSH0 SWAP2 PUSH2 0x204F DUP7 PUSH2 0x2055 SWAP4 AND DUP13 PUSH2 0x1E00 JUMP JUMPDEST MLOAD PUSH2 0x1E00 JUMP JUMPDEST MSTORE JUMPDEST PUSH0 PUSH2 0x2021 JUMP JUMPDEST DUP6 SWAP1 DUP6 DUP3 AND PUSH2 0x206F JUMPI JUMPDEST POP POP POP PUSH2 0x2057 JUMP JUMPDEST PUSH2 0x208D SWAP3 PUSH2 0x204F DUP8 PUSH2 0x2082 SWAP4 AND DUP14 PUSH2 0x1E00 JUMP JUMPDEST SWAP1 PUSH4 0xFFFFFFFF AND SWAP1 MSTORE JUMP JUMPDEST PUSH0 DUP5 DUP14 PUSH2 0x2067 JUMP JUMPDEST PUSH1 0x30 SWAP2 POP DUP6 AND LT DUP14 PUSH2 0x201B JUMP JUMPDEST POP PUSH1 0x30 DUP2 LT PUSH2 0x2014 JUMP JUMPDEST POP POP POP POP POP POP POP POP SWAP2 POP POP JUMP JUMPDEST PUSH1 0x6 GT ISZERO PUSH2 0x1044 JUMPI JUMP JUMPDEST PUSH1 0x14 GT ISZERO PUSH2 0x1044 JUMPI JUMP JUMPDEST PUSH1 0xFF AND PUSH1 0x14 DUP2 LT ISZERO PUSH2 0x1044 JUMPI SWAP1 JUMP JUMPDEST PUSH1 0x40 MLOAD SWAP1 PUSH2 0x20EB PUSH1 0x60 DUP4 PUSH2 0x11B JUMP JUMPDEST PUSH1 0x23 DUP3 MSTORE PUSH32 0x3C726563742077696474683D22343822206865696768743D223438222066696C PUSH1 0x20 DUP4 ADD MSTORE PUSH3 0x361E91 PUSH1 0xE9 SHL PUSH1 0x40 DUP4 ADD MSTORE JUMP JUMPDEST PUSH1 0x40 MLOAD SWAP1 PUSH2 0x2132 PUSH1 0x40 DUP4 PUSH2 0x11B JUMP JUMPDEST PUSH1 0x3 DUP3 MSTORE PUSH3 0x11179F PUSH1 0xE9 SHL PUSH1 0x20 DUP4 ADD MSTORE JUMP JUMPDEST PUSH1 0x40 MLOAD SWAP1 PUSH2 0x2153 PUSH1 0x60 DUP4 PUSH2 0x11B JUMP JUMPDEST PUSH1 0x2F DUP3 MSTORE PUSH15 0x17B337B932B4B3B727B13532B1BA1F PUSH1 0x89 SHL PUSH1 0x40 DUP4 PUSH32 0x222077696474683D223130302522206865696768743D223130302522202F3E3C PUSH1 0x20 DUP3 ADD MSTORE ADD MSTORE JUMP JUMPDEST PUSH1 0x40 MLOAD SWAP1 PUSH2 0x21A6 PUSH1 0x40 DUP4 PUSH2 0x11B JUMP JUMPDEST PUSH1 0x1D DUP3 MSTORE PUSH32 0x3C646566733E3C72616469616C4772616469656E742069643D2262672D000000 PUSH1 0x20 DUP4 ADD MSTORE JUMP JUMPDEST PUSH1 0x40 MLOAD SWAP1 PUSH2 0x21E1 PUSH1 0x40 DUP4 PUSH2 0x11B JUMP JUMPDEST PUSH1 0x2 DUP3 MSTORE PUSH2 0x111F PUSH1 0xF1 SHL PUSH1 0x20 DUP4 ADD MSTORE JUMP JUMPDEST PUSH1 0x40 MLOAD SWAP1 PUSH2 0x2201 PUSH1 0x80 DUP4 PUSH2 0x11B JUMP JUMPDEST PUSH1 0x43 DUP3 MSTORE PUSH3 0x62672D PUSH1 0xE8 SHL PUSH1 0x60 DUP4 PUSH32 0x3C2F72616469616C4772616469656E743E3C2F646566733E3C72656374207769 PUSH1 0x20 DUP3 ADD MSTORE PUSH32 0x6474683D22343822206865696768743D223438222066696C6C3D2275726C2823 PUSH1 0x40 DUP3 ADD MSTORE ADD MSTORE JUMP JUMPDEST PUSH1 0x40 MLOAD SWAP1 PUSH2 0x226E PUSH1 0x40 DUP4 PUSH2 0x11B JUMP JUMPDEST PUSH1 0x4 DUP3 MSTORE PUSH4 0x1491179F PUSH1 0xE1 SHL PUSH1 0x20 DUP4 ADD MSTORE JUMP JUMPDEST PUSH1 0x40 MLOAD SWAP1 PUSH2 0x2290 PUSH1 0x40 DUP4 PUSH2 0x11B JUMP JUMPDEST PUSH1 0x1D DUP3 MSTORE PUSH32 0x3C646566733E3C6C696E6561724772616469656E742069643D2262672D000000 PUSH1 0x20 DUP4 ADD MSTORE JUMP JUMPDEST PUSH1 0x40 MLOAD SWAP1 PUSH2 0x22CB PUSH1 0x40 DUP4 PUSH2 0x11B JUMP JUMPDEST PUSH1 0x6 DUP3 MSTORE PUSH6 0x11103C189E91 PUSH1 0xD1 SHL PUSH1 0x20 DUP4 ADD MSTORE JUMP JUMPDEST PUSH1 0x40 MLOAD SWAP1 PUSH2 0x22EF PUSH1 0x40 DUP4 PUSH2 0x11B JUMP JUMPDEST PUSH1 0x6 DUP3 MSTORE PUSH6 0x11103C989E91 PUSH1 0xD1 SHL PUSH1 0x20 DUP4 ADD MSTORE JUMP JUMPDEST PUSH1 0x40 MLOAD SWAP1 PUSH2 0x2313 PUSH1 0x40 DUP4 PUSH2 0x11B JUMP JUMPDEST PUSH1 0x6 DUP3 MSTORE PUSH6 0x11103C191E91 PUSH1 0xD1 SHL PUSH1 0x20 DUP4 ADD MSTORE JUMP JUMPDEST PUSH1 0x40 MLOAD SWAP1 PUSH2 0x2337 PUSH1 0x40 DUP4 PUSH2 0x11B JUMP JUMPDEST PUSH1 0x6 DUP3 MSTORE PUSH6 0x11103C991E91 PUSH1 0xD1 SHL PUSH1 0x20 DUP4 ADD MSTORE JUMP JUMPDEST PUSH4 0x4E487B71 PUSH1 0xE0 SHL PUSH0 MSTORE PUSH1 0x12 PUSH1 0x4 MSTORE PUSH1 0x24 PUSH0 REVERT JUMPDEST PUSH1 0x40 MLOAD SWAP1 PUSH2 0x236F PUSH1 0x80 DUP4 PUSH2 0x11B JUMP JUMPDEST PUSH1 0x43 DUP3 MSTORE PUSH3 0x62672D PUSH1 0xE8 SHL PUSH1 0x60 DUP4 PUSH32 0x3C2F6C696E6561724772616469656E743E3C2F646566733E3C72656374207769 PUSH1 0x20 DUP3 ADD MSTORE PUSH32 0x6474683D22343822206865696768743D223438222066696C6C3D2275726C2823 PUSH1 0x40 DUP3 ADD MSTORE ADD MSTORE JUMP JUMPDEST SWAP2 SWAP1 SWAP2 PUSH1 0x1 PUSH2 0x23DD DUP2 DUP5 MLOAD PUSH2 0x139C JUMP JUMPDEST MLOAD PUSH2 0x2402 PUSH1 0xE0 PUSH1 0x60 DUP4 ADD MLOAD SWAP8 ADD SWAP7 PUSH2 0x1A05 DUP9 MLOAD PUSH2 0x23F9 DUP2 PUSH2 0x20B9 JUMP JUMPDEST PUSH2 0x141E DUP2 PUSH2 0x20B9 JUMP JUMPDEST MLOAD SWAP3 PUSH2 0x241A PUSH2 0x2415 PUSH1 0x20 DUP7 ADD MLOAD PUSH1 0xFF AND SWAP1 JUMP JUMPDEST PUSH2 0x20CD JUMP JUMPDEST SWAP2 PUSH2 0x2424 DUP4 PUSH2 0x20C3 JUMP JUMPDEST PUSH1 0x2 DUP4 EQ PUSH2 0x265B JUMPI POP PUSH2 0x2444 DUP8 MLOAD PUSH2 0x243B DUP2 PUSH2 0x20B9 JUMP JUMPDEST PUSH2 0x17DF DUP2 PUSH2 0x20B9 JUMP JUMPDEST SWAP7 PUSH2 0x244E DUP4 PUSH2 0x20C3 JUMP JUMPDEST DUP4 DUP4 EQ PUSH2 0x25C0 JUMPI POP POP PUSH2 0x2460 DUP2 PUSH2 0x20C3 JUMP JUMPDEST PUSH1 0x13 DUP2 EQ PUSH2 0x2581 JUMPI SWAP2 PUSH2 0x2551 SWAP4 SWAP2 PUSH2 0x14B SWAP7 SWAP4 PUSH2 0x2484 PUSH2 0x247E PUSH2 0x2281 JUMP JUMPDEST DUP9 PUSH2 0x1C76 JUMP JUMPDEST PUSH2 0x248E DUP6 DUP9 PUSH2 0x1C76 JUMP JUMPDEST PUSH2 0x2499 PUSH2 0x247E PUSH2 0x22BC JUMP JUMPDEST PUSH2 0x24B0 PUSH2 0x247E PUSH2 0x17DF PUSH2 0x141E PUSH1 0x40 DUP8 ADD MLOAD PUSH1 0xFF AND SWAP1 JUMP JUMPDEST PUSH2 0x24BB PUSH2 0x247E PUSH2 0x22E0 JUMP JUMPDEST PUSH2 0x24D2 PUSH2 0x247E PUSH2 0x17DF PUSH2 0x141E PUSH1 0x60 DUP8 ADD MLOAD PUSH1 0xFF AND SWAP1 JUMP JUMPDEST PUSH2 0x24DD PUSH2 0x247E PUSH2 0x2304 JUMP JUMPDEST PUSH2 0x24F4 PUSH2 0x247E PUSH2 0x17DF PUSH2 0x141E PUSH1 0x80 DUP8 ADD MLOAD PUSH1 0xFF AND SWAP1 JUMP JUMPDEST PUSH2 0x24FF PUSH2 0x247E PUSH2 0x2328 JUMP JUMPDEST PUSH2 0x2516 PUSH2 0x247E PUSH2 0x17DF PUSH2 0x141E PUSH1 0xA0 DUP8 ADD MLOAD PUSH1 0xFF AND SWAP1 JUMP JUMPDEST PUSH2 0x2521 PUSH2 0x247E PUSH2 0x21D2 JUMP JUMPDEST PUSH2 0x252A DUP2 PUSH2 0x20C3 JUMP JUMPDEST PUSH1 0x1 DUP2 AND ISZERO SWAP1 DUP2 PUSH2 0x2568 JUMPI JUMPDEST POP ISZERO PUSH2 0x2559 JUMPI PUSH2 0x2546 SWAP3 DUP7 PUSH2 0x2EC0 JUMP JUMPDEST PUSH2 0x100C PUSH2 0xFC9 PUSH2 0x2360 JUMP JUMPDEST PUSH2 0x1AB0 PUSH2 0x225F JUMP JUMPDEST PUSH2 0x2563 SWAP3 DUP7 PUSH2 0x2D28 JUMP JUMPDEST PUSH2 0x2546 JUMP JUMPDEST PUSH1 0x4 SWAP2 POP DUP1 PUSH2 0x2578 PUSH1 0xFF SWAP3 PUSH2 0x20C3 JUMP JUMPDEST AND LT ISZERO PUSH0 PUSH2 0x2536 JUMP JUMPDEST POP PUSH2 0x14B SWAP5 SWAP2 PUSH2 0x25B5 SWAP2 PUSH2 0x2551 SWAP5 PUSH2 0x259A PUSH2 0x247E PUSH2 0x2197 JUMP JUMPDEST PUSH2 0x25A4 DUP6 DUP9 PUSH2 0x1C76 JUMP JUMPDEST PUSH2 0x25AF PUSH2 0x247E PUSH2 0x21D2 JUMP JUMPDEST DUP7 PUSH2 0x2D28 JUMP JUMPDEST PUSH2 0x100C PUSH2 0xFC9 PUSH2 0x21F2 JUMP JUMPDEST SWAP2 POP SWAP3 POP PUSH2 0x260A SWAP6 POP PUSH0 SWAP4 POP PUSH2 0x25E9 SWAP2 POP MLOAD PUSH2 0x25DB DUP2 PUSH2 0x20B9 JUMP JUMPDEST PUSH2 0x25E4 DUP2 PUSH2 0x20B9 JUMP JUMPDEST PUSH2 0x1DC1 JUMP JUMPDEST SWAP1 PUSH1 0x40 MLOAD DUP1 DUP1 SWAP7 DUP2 SWAP5 PUSH4 0x69DDE379 PUSH1 0xE0 SHL DUP4 MSTORE PUSH1 0x4 DUP4 ADD SWAP2 SWAP1 PUSH1 0x20 DUP4 ADD SWAP3 MSTORE JUMP JUMPDEST SUB SWAP2 PUSH1 0x1 PUSH1 0x1 PUSH1 0xA0 SHL SUB AND GAS STATICCALL SWAP2 DUP3 ISZERO PUSH2 0xBFB JUMPI PUSH2 0x14B SWAP3 PUSH2 0x2639 SWAP2 PUSH0 SWAP2 PUSH2 0x2641 JUMPI JUMPDEST POP PUSH2 0xFE5 PUSH2 0xFC9 PUSH2 0xD94 JUMP JUMPDEST PUSH2 0x1AB0 PUSH2 0x2144 JUMP JUMPDEST PUSH2 0x2655 SWAP2 POP RETURNDATASIZE DUP1 PUSH0 DUP4 RETURNDATACOPY PUSH2 0x102C DUP2 DUP4 PUSH2 0x11B JUMP JUMPDEST PUSH0 PUSH2 0x262D JUMP JUMPDEST PUSH2 0x14B SWAP8 POP PUSH2 0x26AF SWAP6 POP PUSH2 0x1F2F SWAP4 POP PUSH2 0x269E SWAP5 SWAP3 POP PUSH2 0x1A05 SWAP2 POP DUP1 PUSH2 0x2691 PUSH1 0x80 PUSH1 0xC0 PUSH1 0x40 PUSH2 0x2697 SWAP6 ADD MLOAD SWAP7 ADD MLOAD SWAP3 ADD MLOAD PUSH1 0xFF AND SWAP1 JUMP JUMPDEST SWAP1 PUSH2 0x29A8 JUMP JUMPDEST PUSH2 0xFFFF AND SWAP1 JUMP JUMPDEST PUSH2 0x26A9 PUSH2 0xFC9 PUSH2 0x20DC JUMP JUMPDEST DUP3 PUSH2 0x2A94 JUMP JUMPDEST PUSH2 0x1AB0 PUSH2 0x2123 JUMP JUMPDEST SWAP2 PUSH0 JUMPDEST PUSH1 0xFF DUP2 AND SWAP3 PUSH1 0x30 DUP5 LT ISZERO PUSH2 0x27C0 JUMPI PUSH0 SWAP5 SWAP3 SWAP5 SWAP3 JUMPDEST PUSH1 0xFF DUP5 AND PUSH1 0x30 DUP2 LT ISZERO PUSH2 0x27AE JUMPI PUSH2 0x1F2F PUSH2 0x26EC SWAP2 PUSH2 0x204F DUP9 DUP6 PUSH2 0x1E00 JUMP JUMPDEST SWAP6 PUSH4 0xFFFFFFFF DUP8 AND SWAP1 DUP2 ISZERO DUP1 ISZERO PUSH2 0x27A3 JUMPI JUMPDEST PUSH2 0x2795 JUMPI PUSH1 0x1 JUMPDEST DUP8 DUP4 DUP9 DUP4 PUSH1 0x30 PUSH2 0x2718 PUSH2 0x141E DUP4 DUP6 PUSH2 0x1DEC JUMP JUMPDEST LT SWAP4 DUP5 PUSH2 0x2760 JUMPI JUMPDEST POP POP POP POP ISZERO PUSH2 0x2737 JUMPI PUSH2 0x2732 SWAP1 PUSH2 0x1E37 JUMP JUMPDEST PUSH2 0x2705 JUMP JUMPDEST PUSH2 0x2754 SWAP3 POP PUSH2 0x1F8F SWAP1 PUSH2 0x1F84 PUSH2 0x2759 SWAP6 SWAP11 SWAP9 SWAP4 SWAP9 DUP3 DUP10 DUP7 DUP11 PUSH2 0x3022 JUMP JUMPDEST PUSH2 0x1E37 JUMP JUMPDEST SWAP3 SWAP5 PUSH2 0x26CE JUMP JUMPDEST PUSH2 0x278B SWAP4 SWAP5 POP SWAP2 PUSH2 0x2785 PUSH2 0x141E PUSH2 0x1F2F SWAP4 PUSH2 0x277E PUSH2 0x17D6 SWAP7 DUP14 PUSH2 0x1E00 JUMP JUMPDEST MLOAD SWAP4 PUSH2 0x1DEC JUMP JUMPDEST SWAP1 PUSH2 0x1E00 JUMP JUMPDEST EQ DUP4 DUP9 DUP4 DUP12 PUSH2 0x2720 JUMP JUMPDEST SWAP5 SWAP1 POP PUSH2 0x2759 SWAP2 SWAP7 POP PUSH2 0x1E37 JUMP JUMPDEST POP PUSH1 0xFF DUP9 AND ISZERO PUSH2 0x26FE JUMP JUMPDEST POP SWAP5 SWAP1 SWAP4 POP SWAP2 POP PUSH1 0x1 ADD PUSH1 0xFF AND PUSH2 0x26BA JUMP JUMPDEST POP POP SWAP2 POP POP JUMP JUMPDEST PUSH0 NOT DUP2 ADD SWAP2 SWAP1 DUP3 GT PUSH2 0xCF0 JUMPI JUMP JUMPDEST SWAP2 SWAP1 DUP3 SUB SWAP2 DUP3 GT PUSH2 0xCF0 JUMPI JUMP JUMPDEST SWAP1 PUSH2 0x27EC DUP3 PUSH2 0x16C JUMP JUMPDEST PUSH2 0x27F9 PUSH1 0x40 MLOAD SWAP2 DUP3 PUSH2 0x11B JUMP JUMPDEST DUP3 DUP2 MSTORE DUP1 SWAP3 PUSH2 0x280A PUSH1 0x1F NOT SWAP2 PUSH2 0x16C JUMP JUMPDEST ADD SWAP1 PUSH1 0x20 CALLDATASIZE SWAP2 ADD CALLDATACOPY JUMP JUMPDEST SWAP2 PUSH0 SWAP1 JUMPDEST DUP3 MLOAD DUP3 LT ISZERO PUSH2 0x2912 JUMPI PUSH2 0x282B DUP3 DUP5 PUSH2 0x139C JUMP JUMPDEST MLOAD DUP5 MLOAD DUP2 MLOAD LT PUSH2 0x2841 JUMPI JUMPDEST POP SWAP1 PUSH1 0x1 ADD SWAP1 PUSH2 0x2818 JUMP JUMPDEST PUSH1 0x1 SWAP4 PUSH0 JUMPDEST DUP3 MLOAD DUP1 DUP3 LT ISZERO PUSH2 0x2907 JUMPI PUSH2 0x1EAF PUSH2 0x286A DUP4 PUSH2 0x2865 PUSH2 0x2870 SWAP5 DUP13 MLOAD PUSH2 0x27D5 JUMP JUMPDEST PUSH2 0x1DDF JUMP JUMPDEST DUP10 PUSH2 0x1DB0 JUMP JUMPDEST PUSH2 0x288D PUSH2 0x2880 PUSH2 0x1EAF DUP5 DUP8 PUSH2 0x1DB0 JUMP JUMPDEST PUSH1 0x1 PUSH1 0x1 PUSH1 0xF8 SHL SUB NOT AND SWAP1 JUMP JUMPDEST PUSH1 0x1 PUSH1 0x1 PUSH1 0xF8 SHL SUB NOT SWAP1 SWAP2 AND SUB PUSH2 0x28A6 JUMPI PUSH1 0x1 ADD PUSH2 0x2846 JUMP JUMPDEST POP SWAP4 POP PUSH0 SWAP3 SWAP2 SWAP3 JUMPDEST PUSH2 0x28BA JUMPI SWAP2 SWAP1 SWAP2 PUSH2 0x2836 JUMP JUMPDEST PUSH2 0x28D4 SWAP3 SWAP4 POP PUSH2 0x28CF SWAP2 POP DUP5 MLOAD SWAP1 MLOAD SWAP1 PUSH2 0x27D5 JUMP JUMPDEST PUSH2 0x27E2 JUMP JUMPDEST PUSH0 JUMPDEST DUP2 MLOAD DUP2 LT ISZERO PUSH2 0x2902 JUMPI DUP1 PUSH2 0x28EF PUSH2 0x1EAF PUSH1 0x1 SWAP4 DUP8 PUSH2 0x1DB0 JUMP JUMPDEST PUSH0 BYTE PUSH2 0x28FB DUP3 DUP6 PUSH2 0x1DB0 JUMP JUMPDEST MSTORE8 ADD PUSH2 0x28D6 JUMP JUMPDEST POP SWAP2 POP JUMP JUMPDEST POP POP SWAP4 SWAP3 SWAP2 SWAP3 PUSH2 0x28AE JUMP JUMPDEST SWAP2 POP POP JUMP JUMPDEST PUSH1 0x1F NOT DUP2 ADD MLOAD SWAP1 MLOAD PUSH1 0x9 DUP2 ADD SWAP2 PUSH1 0x3F NOT ADD SWAP1 DUP3 LT PUSH2 0xCF0 JUMPI LT PUSH2 0x2936 JUMPI JUMP JUMPDEST PUSH1 0x40 MLOAD PUSH3 0x461BCD PUSH1 0xE5 SHL DUP2 MSTORE PUSH1 0x20 PUSH1 0x4 DUP3 ADD MSTORE PUSH1 0x27 PUSH1 0x24 DUP3 ADD MSTORE PUSH32 0x44796E616D69634275666665723A20417070656E64696E67206F7574206F6620 PUSH1 0x44 DUP3 ADD MSTORE PUSH7 0x3137BAB7323997 PUSH1 0xC9 SHL PUSH1 0x64 DUP3 ADD MSTORE PUSH1 0x84 SWAP1 REVERT JUMPDEST PUSH1 0x3F NOT PUSH1 0x1F NOT DUP3 ADD MLOAD ADD SWAP1 MLOAD SWAP2 DUP3 ADD DUP1 SWAP3 GT PUSH2 0xCF0 JUMPI LT PUSH2 0x2936 JUMPI JUMP JUMPDEST SWAP1 PUSH1 0xFF AND PUSH1 0x1 EQ PUSH2 0x29EA JUMPI DUP1 MLOAD ISZERO PUSH2 0x13B0 JUMPI PUSH1 0x20 DUP2 ADD MLOAD PUSH1 0xF0 SHR PUSH2 0xFF00 AND SWAP1 PUSH2 0x29E6 SWAP1 PUSH2 0x141E SWAP1 PUSH2 0x1EBD SWAP1 PUSH2 0x1EAF SWAP1 PUSH2 0x29E0 PUSH0 PUSH2 0x1DD1 JUMP JUMPDEST SWAP1 PUSH2 0x1DB0 JUMP JUMPDEST OR SWAP1 JUMP JUMPDEST DUP1 MLOAD ISZERO PUSH2 0x13B0 JUMPI PUSH1 0x20 ADD MLOAD PUSH1 0xF8 SHR SWAP1 JUMP JUMPDEST SWAP1 SWAP2 PUSH1 0xFF AND PUSH1 0x1 EQ PUSH2 0x2A36 JUMPI PUSH1 0xFF PUSH2 0x2A2C DUP3 PUSH2 0x29E0 PUSH2 0xFF00 PUSH2 0x2A1E DUP8 DUP7 SWAP8 PUSH2 0x1DB0 JUMP JUMPDEST MLOAD PUSH1 0xF8 SHR PUSH1 0x8 SHL AND SWAP6 PUSH2 0x1DD1 JUMP JUMPDEST MLOAD PUSH1 0xF8 SHR AND AND OR SWAP1 JUMP JUMPDEST SWAP1 PUSH2 0x2A40 SWAP2 PUSH2 0x1DB0 JUMP JUMPDEST MLOAD PUSH1 0xF8 SHR SWAP1 JUMP JUMPDEST PUSH1 0x40 MLOAD SWAP1 PUSH2 0x2A56 PUSH1 0x40 DUP4 PUSH2 0x11B JUMP JUMPDEST PUSH1 0x10 DUP3 MSTORE PUSH16 0x181899199A1A9B1B9C1CB0B131B232B3 PUSH1 0x81 SHL PUSH1 0x20 DUP4 ADD MSTORE JUMP JUMPDEST PUSH1 0x40 MLOAD SWAP1 PUSH2 0x2A84 PUSH1 0x40 DUP4 PUSH2 0x11B JUMP JUMPDEST PUSH1 0x1 DUP3 MSTORE PUSH1 0x23 PUSH1 0xF8 SHL PUSH1 0x20 DUP4 ADD MSTORE JUMP JUMPDEST SWAP1 PUSH2 0x14B SWAP2 PUSH2 0x2BE8 PUSH2 0x2AA4 PUSH2 0x2A47 JUMP JUMPDEST PUSH2 0x2AAF PUSH2 0xFC9 PUSH2 0x2A75 JUMP JUMPDEST PUSH2 0x2BDA PUSH2 0x2AC6 PUSH2 0x1EAF PUSH1 0x1C DUP8 SWAP1 SHR PUSH1 0xF AND DUP5 PUSH2 0x1DB0 JUMP JUMPDEST SWAP2 PUSH2 0x2AEB PUSH2 0x1EAF PUSH2 0x2AE5 PUSH1 0xF PUSH1 0x18 DUP11 SWAP1 SHR PUSH1 0xFF AND JUMPDEST AND PUSH4 0xFFFFFFFF AND SWAP1 JUMP JUMPDEST DUP4 PUSH2 0x1DB0 JUMP JUMPDEST SWAP6 PUSH2 0x2B0B PUSH2 0x1EAF PUSH2 0x2B05 PUSH1 0xF PUSH1 0x14 DUP6 SWAP1 SHR PUSH2 0xFFF AND PUSH2 0x2ADB JUMP JUMPDEST DUP5 PUSH2 0x1DB0 JUMP JUMPDEST SWAP2 PUSH2 0x2B25 PUSH2 0x1EAF PUSH2 0x2AE5 PUSH1 0xF PUSH1 0x10 DUP7 SWAP1 SHR PUSH2 0xFFFF AND PUSH2 0x2ADB JUMP JUMPDEST PUSH2 0x2B3F PUSH2 0x1EAF PUSH2 0x2B05 PUSH1 0xF PUSH1 0xC DUP8 SWAP1 SHR PUSH3 0xFFFFF AND PUSH2 0x2ADB JUMP JUMPDEST SWAP1 PUSH2 0x2B89 PUSH2 0x1EAF PUSH2 0x2B64 DUP2 PUSH2 0x2B5E PUSH1 0xF PUSH1 0x8 DUP11 SWAP1 SHR PUSH3 0xFFFFFF AND PUSH2 0x2ADB JUMP JUMPDEST DUP8 PUSH2 0x1DB0 JUMP JUMPDEST SWAP5 PUSH1 0xF PUSH2 0x2B81 PUSH2 0x1EAF PUSH2 0x2B05 DUP4 PUSH1 0x4 DUP13 SWAP1 SHR PUSH4 0xFFFFFFF AND PUSH2 0x2ADB JUMP JUMPDEST SWAP8 AND SWAP1 PUSH2 0x1DB0 JUMP JUMPDEST PUSH1 0x40 MLOAD PUSH1 0x1 PUSH1 0x1 PUSH1 0xF8 SHL SUB NOT SWAP9 DUP10 AND PUSH1 0x20 DUP3 ADD MSTORE SWAP11 DUP9 AND PUSH1 0x21 DUP13 ADD MSTORE SWAP5 DUP8 AND PUSH1 0x22 DUP12 ADD MSTORE DUP7 AND PUSH1 0x23 DUP11 ADD MSTORE DUP6 AND PUSH1 0x24 DUP10 ADD MSTORE DUP5 AND PUSH1 0x25 DUP9 ADD MSTORE DUP4 AND PUSH1 0x26 DUP8 ADD MSTORE SWAP1 SWAP2 AND PUSH1 0x27 DUP6 ADD MSTORE DUP4 SWAP1 PUSH1 0x28 DUP3 ADD SWAP1 JUMP JUMPDEST SUB PUSH1 0x1F NOT DUP2 ADD DUP5 MSTORE DUP4 PUSH2 0x11B JUMP JUMPDEST PUSH2 0x1C76 JUMP JUMPDEST DUP2 ISZERO PUSH2 0x2BF7 JUMPI DIV SWAP1 JUMP JUMPDEST PUSH2 0x234C JUMP JUMPDEST PUSH1 0x40 MLOAD SWAP1 PUSH2 0x2C0B PUSH1 0x40 DUP4 PUSH2 0x11B JUMP JUMPDEST PUSH1 0x12 DUP3 MSTORE PUSH18 0x1E39BA37B81037B33339B2BA1E911812911 PUSH1 0x75 SHL PUSH1 0x20 DUP4 ADD MSTORE JUMP JUMPDEST PUSH1 0x40 MLOAD SWAP1 PUSH2 0x2C3B PUSH1 0x40 DUP4 PUSH2 0x11B JUMP JUMPDEST PUSH1 0x2 DUP3 MSTORE PUSH2 0x179F PUSH1 0xF1 SHL PUSH1 0x20 DUP4 ADD MSTORE JUMP JUMPDEST PUSH1 0x40 MLOAD SWAP1 PUSH2 0x2C5B PUSH1 0x40 DUP4 PUSH2 0x11B JUMP JUMPDEST PUSH1 0x14 DUP3 MSTORE PUSH20 0x1E39BA37B81037B33339B2BA1E9118981812911 PUSH1 0x65 SHL PUSH1 0x20 DUP4 ADD MSTORE JUMP JUMPDEST DUP2 DUP2 MUL SWAP3 SWAP2 DUP2 ISZERO SWAP2 DUP5 DIV EQ OR ISZERO PUSH2 0xCF0 JUMPI JUMP JUMPDEST SWAP1 PUSH1 0x64 DUP3 MUL SWAP2 DUP1 DUP4 SDIV PUSH1 0x64 EQ SWAP1 ISZERO OR ISZERO PUSH2 0xCF0 JUMPI JUMP JUMPDEST SWAP1 PUSH3 0xF4240 DUP3 MUL SWAP2 DUP1 DUP4 SDIV PUSH3 0xF4240 EQ SWAP1 ISZERO OR ISZERO PUSH2 0xCF0 JUMPI JUMP JUMPDEST DUP2 ISZERO PUSH2 0x2BF7 JUMPI PUSH1 0x1 PUSH1 0xFF SHL DUP2 EQ PUSH0 NOT DUP4 EQ AND PUSH2 0xCF0 JUMPI SDIV SWAP1 JUMP JUMPDEST PUSH1 0x40 MLOAD SWAP1 PUSH2 0x2CEA PUSH1 0x40 DUP4 PUSH2 0x11B JUMP JUMPDEST PUSH1 0xE DUP3 MSTORE PUSH14 0x1E39BA37B81037B33339B2BA1E91 PUSH1 0x91 SHL PUSH1 0x20 DUP4 ADD MSTORE JUMP JUMPDEST PUSH1 0x40 MLOAD SWAP1 PUSH2 0x2D16 PUSH1 0x40 DUP4 PUSH2 0x11B JUMP JUMPDEST PUSH1 0x3 DUP3 MSTORE PUSH3 0x12911 PUSH1 0xED SHL PUSH1 0x20 DUP4 ADD MSTORE JUMP JUMPDEST SWAP2 PUSH2 0x2D36 SWAP1 PUSH1 0xC0 SWAP3 MLOAD PUSH2 0x139C JUMP JUMPDEST MLOAD SWAP3 ADD DUP1 MLOAD MLOAD SWAP1 DUP2 ISZERO PUSH2 0x2E8C JUMPI PUSH2 0x2D5F PUSH1 0x80 DUP6 ADD SWAP3 PUSH2 0x2D59 PUSH2 0x141E DUP6 MLOAD PUSH1 0xFF AND SWAP1 JUMP JUMPDEST SWAP1 PUSH2 0x2BED JUMP JUMPDEST SWAP2 PUSH1 0x1 DUP4 EQ PUSH2 0x2E2B JUMPI SWAP1 SWAP4 PUSH1 0x40 ADD SWAP1 PUSH0 JUMPDEST DUP4 DUP2 LT PUSH2 0x2D7F JUMPI POP POP POP POP POP POP JUMP JUMPDEST PUSH1 0x1 SWAP1 PUSH2 0x2E14 PUSH2 0x2DBE PUSH2 0x1F2F PUSH2 0x2DB1 DUP11 MLOAD PUSH2 0x2DA7 PUSH2 0x2DA1 PUSH2 0x141E DUP11 MLOAD PUSH1 0xFF AND SWAP1 JUMP JUMPDEST DUP8 PUSH2 0x2C7E JUMP JUMPDEST DUP9 MLOAD PUSH1 0xFF AND PUSH2 0x1F0A JUMP JUMPDEST PUSH2 0xFFFF DUP9 MLOAD SWAP2 AND SWAP1 PUSH2 0x139C JUMP JUMPDEST PUSH2 0x2E03 PUSH2 0x2DEC PUSH2 0x2DE7 PUSH2 0x2DD8 PUSH2 0x2DD3 DUP8 PUSH2 0x2C91 JUMP JUMPDEST PUSH2 0x2CA7 JUMP JUMPDEST PUSH2 0x2DE1 DUP12 PUSH2 0x27C7 JUMP JUMPDEST SWAP1 PUSH2 0x2CC1 JUMP JUMPDEST PUSH2 0x321E JUMP JUMPDEST PUSH2 0x2DFD PUSH2 0x2DF7 PUSH2 0x2CDB JUMP JUMPDEST DUP12 PUSH2 0x1C76 JUMP JUMPDEST DUP10 PUSH2 0x1C76 JUMP JUMPDEST PUSH2 0x2E0E PUSH2 0x2DFD PUSH2 0x2D07 JUMP JUMPDEST DUP8 PUSH2 0x314B JUMP JUMPDEST PUSH2 0x2E25 PUSH2 0x2E1F PUSH2 0x2C2C JUMP JUMPDEST DUP8 PUSH2 0x1C76 JUMP JUMPDEST ADD PUSH2 0x2D70 JUMP JUMPDEST PUSH2 0x2E84 SWAP3 POP PUSH2 0x2E53 SWAP2 PUSH2 0x1A05 PUSH2 0x2697 PUSH2 0x1F2F SWAP4 PUSH2 0x2691 PUSH1 0x40 PUSH2 0x14B SWAP11 ADD MLOAD SWAP5 MLOAD SWAP2 MLOAD PUSH1 0xFF AND SWAP1 JUMP JUMPDEST PUSH2 0x2E5E PUSH2 0xFC9 PUSH2 0x2BFC JUMP JUMPDEST PUSH2 0x2E68 DUP2 DUP5 PUSH2 0x314B JUMP JUMPDEST PUSH2 0x2E73 PUSH2 0xFC9 PUSH2 0x2C2C JUMP JUMPDEST PUSH2 0x2E7E PUSH2 0xFC9 PUSH2 0x2C4C JUMP JUMPDEST DUP3 PUSH2 0x314B JUMP JUMPDEST PUSH2 0x1AB0 PUSH2 0x2C2C JUMP JUMPDEST POP POP POP POP JUMP JUMPDEST PUSH1 0x40 MLOAD SWAP1 PUSH2 0x2EA1 PUSH1 0x40 DUP4 PUSH2 0x11B JUMP JUMPDEST PUSH1 0x10 DUP3 MSTORE PUSH16 0x179F1E39BA37B81037B33339B2BA1E91 PUSH1 0x81 SHL PUSH1 0x20 DUP4 ADD MSTORE JUMP JUMPDEST SWAP2 PUSH2 0x2ECE SWAP1 PUSH1 0xC0 SWAP3 MLOAD PUSH2 0x139C JUMP JUMPDEST MLOAD SWAP3 ADD DUP1 MLOAD MLOAD SWAP1 DUP2 ISZERO PUSH2 0x2E8C JUMPI SWAP3 PUSH2 0x2EF2 PUSH1 0x80 DUP3 ADD SWAP3 PUSH2 0x2D59 PUSH2 0x141E DUP6 MLOAD PUSH1 0xFF AND SWAP1 JUMP JUMPDEST SWAP2 PUSH1 0x40 PUSH0 SWAP3 ADD SWAP2 JUMPDEST DUP4 DUP2 LT PUSH2 0x2F09 JUMPI POP POP POP POP POP POP JUMP JUMPDEST PUSH1 0x1 SWAP1 PUSH2 0x2F96 PUSH2 0x2F2B PUSH2 0x1F2F PUSH2 0x2DB1 DUP11 MLOAD PUSH2 0x2DA7 PUSH2 0x2DA1 PUSH2 0x141E DUP11 MLOAD PUSH1 0xFF AND SWAP1 JUMP JUMPDEST PUSH2 0x2E03 PUSH2 0x2F46 PUSH2 0x2DE7 DUP10 PUSH2 0x2F41 PUSH2 0x2DD3 DUP9 PUSH2 0x2C91 JUMP JUMPDEST PUSH2 0x2CC1 JUMP JUMPDEST PUSH2 0x2F76 PUSH2 0x2F64 PUSH2 0x2DE7 DUP12 PUSH2 0x2F41 PUSH2 0x2DD3 PUSH2 0x2F5F DUP12 PUSH2 0x1DD1 JUMP JUMPDEST PUSH2 0x2C91 JUMP JUMPDEST SWAP2 PUSH2 0x2DF7 PUSH2 0x2F70 PUSH2 0x2CDB JUMP JUMPDEST DUP14 PUSH2 0x1C76 JUMP JUMPDEST PUSH2 0x2F81 PUSH2 0x2DF7 PUSH2 0x2D07 JUMP JUMPDEST PUSH2 0x2F8B DUP4 DUP12 PUSH2 0x314B JUMP JUMPDEST PUSH2 0x2DFD PUSH2 0x2DF7 PUSH2 0x2E92 JUMP JUMPDEST PUSH2 0x2FA1 PUSH2 0x2E1F PUSH2 0x2C2C JUMP JUMPDEST ADD PUSH2 0x2EFA JUMP JUMPDEST PUSH1 0x40 MLOAD SWAP1 PUSH2 0x2FB6 PUSH1 0x40 DUP4 PUSH2 0x11B JUMP JUMPDEST PUSH1 0x5 DUP3 MSTORE PUSH5 0x11103C9E91 PUSH1 0xD9 SHL PUSH1 0x20 DUP4 ADD MSTORE JUMP JUMPDEST PUSH1 0x40 MLOAD SWAP1 PUSH2 0x2FD9 PUSH1 0x40 DUP4 PUSH2 0x11B JUMP JUMPDEST PUSH1 0x9 DUP3 MSTORE PUSH9 0x11103BB4B23A341E91 PUSH1 0xB9 SHL PUSH1 0x20 DUP4 ADD MSTORE JUMP JUMPDEST PUSH1 0x40 MLOAD SWAP1 PUSH2 0x3000 PUSH1 0x40 DUP4 PUSH2 0x11B JUMP JUMPDEST PUSH1 0x13 DUP3 MSTORE PUSH19 0x11103432B4B3B43A1E911891103334B6361E91 PUSH1 0x69 SHL PUSH1 0x20 DUP4 ADD MSTORE JUMP JUMPDEST SWAP3 SWAP1 SWAP5 SWAP4 SWAP2 PUSH1 0x40 MLOAD SWAP6 PUSH2 0x3036 PUSH1 0x40 DUP9 PUSH2 0x11B JUMP JUMPDEST PUSH1 0x9 DUP8 MSTORE PUSH9 0x1E3932B1BA103C1E91 PUSH1 0xB9 SHL PUSH1 0x20 DUP9 ADD SWAP1 DUP2 MSTORE PUSH2 0x3057 DUP7 PUSH2 0x2917 JUMP JUMPDEST PUSH1 0x20 DUP9 MLOAD DUP1 SWAP3 SWAP10 ADD ADD PUSH1 0x20 DUP8 MLOAD DUP9 ADD ADD SWAP9 JUMPDEST DUP2 DUP2 LT PUSH2 0x30CF JUMPI POP POP PUSH2 0x14B SWAP7 SWAP8 POP PUSH2 0x26AF SWAP5 SWAP4 PUSH2 0x30B9 PUSH2 0x247E PUSH1 0xFF PUSH2 0x30C4 SWAP7 PUSH2 0x30A8 PUSH2 0x30A2 DUP4 PUSH2 0xFC9 SWAP10 DUP15 DUP3 SWAP11 DUP2 MLOAD ADD SWAP1 MSTORE AND PUSH2 0x1AB6 JUMP JUMPDEST DUP13 PUSH2 0x1C76 JUMP JUMPDEST PUSH2 0x30B3 PUSH2 0x30A2 PUSH2 0x2FA7 JUMP JUMPDEST AND PUSH2 0x1AB6 JUMP JUMPDEST PUSH2 0x30B3 PUSH2 0x247E PUSH2 0x2FCA JUMP JUMPDEST PUSH2 0x26A9 PUSH2 0xFC9 PUSH2 0x2FF1 JUMP JUMPDEST DUP1 MLOAD DUP11 MSTORE PUSH1 0x20 SWAP10 DUP11 ADD SWAP10 ADD PUSH2 0x3069 JUMP JUMPDEST PUSH1 0x40 MLOAD SWAP1 PUSH2 0x30EE PUSH1 0x40 DUP4 PUSH2 0x11B JUMP JUMPDEST PUSH1 0x2 DUP3 MSTORE PUSH2 0x1491 PUSH1 0xF1 SHL PUSH1 0x20 DUP4 ADD MSTORE JUMP JUMPDEST PUSH1 0x40 MLOAD SWAP1 PUSH2 0x310E PUSH1 0x40 DUP4 PUSH2 0x11B JUMP JUMPDEST PUSH1 0xF DUP3 MSTORE PUSH15 0x1039BA37B816B7B830B1B4BA3C9E91 PUSH1 0x89 SHL PUSH1 0x20 DUP4 ADD MSTORE JUMP JUMPDEST PUSH1 0x40 MLOAD SWAP1 PUSH2 0x313B PUSH1 0x40 DUP4 PUSH2 0x11B JUMP JUMPDEST PUSH1 0x1 DUP3 MSTORE PUSH1 0x11 PUSH1 0xF9 SHL PUSH1 0x20 DUP4 ADD MSTORE JUMP JUMPDEST PUSH2 0x31D9 PUSH2 0x100C PUSH1 0xFF DUP5 PUSH1 0x18 SHR AND SWAP4 PUSH2 0x31CE PUSH2 0x31C8 PUSH1 0xFF PUSH2 0x3170 DUP5 PUSH2 0xFFFF SWAP1 PUSH1 0x10 SHR AND SWAP1 JUMP JUMPDEST AND PUSH2 0x31BD PUSH2 0x247E PUSH1 0xFF DUP1 DUP1 PUSH1 0x8 DUP10 SWAP1 SHR PUSH3 0xFFFFFF AND AND SWAP8 AND SWAP11 PUSH2 0x30B3 PUSH1 0x40 MLOAD PUSH2 0x319A PUSH1 0x40 DUP3 PUSH2 0x11B JUMP JUMPDEST PUSH1 0x10 DUP2 MSTORE PUSH16 0xE6E8DEE05AC6DED8DEE47A44E4CEC45 PUSH1 0x83 SHL PUSH1 0x20 DUP3 ADD MSTORE DUP13 PUSH2 0x1C76 JUMP JUMPDEST PUSH2 0x17DF PUSH2 0x247E PUSH2 0x162C JUMP JUMPDEST DUP6 PUSH2 0x1C76 JUMP JUMPDEST PUSH2 0x17DF PUSH2 0x31C8 PUSH2 0x162C JUMP JUMPDEST PUSH2 0x31E4 PUSH2 0x100C PUSH2 0x30DF JUMP JUMPDEST PUSH1 0xFF DUP3 LT PUSH2 0x31F0 JUMPI POP POP JUMP JUMPDEST PUSH2 0x320A PUSH2 0x100C PUSH2 0x14B SWAP4 PUSH2 0x3205 PUSH2 0x31C8 PUSH2 0x30FF JUMP JUMPDEST PUSH2 0x334A JUMP JUMPDEST PUSH2 0x1AB0 PUSH2 0x312C JUMP JUMPDEST DUP1 ISZERO PUSH2 0xCF0 JUMPI PUSH0 NOT ADD SWAP1 JUMP JUMPDEST PUSH2 0x32A9 PUSH2 0x3288 SWAP2 PUSH2 0x2710 DUP2 MUL SWAP1 PUSH3 0xF4240 DUP1 PUSH2 0x3245 PUSH2 0x2710 PUSH2 0x3240 DUP4 DUP8 PUSH2 0x33F4 JUMP JUMPDEST PUSH2 0x33FE JUMP JUMPDEST SWAP4 SMOD PUSH1 0x1 SHL SLT ISZERO PUSH2 0x3340 JUMPI JUMPDEST PUSH0 DUP3 SLT PUSH2 0x3335 JUMPI JUMPDEST PUSH2 0x3275 PUSH2 0x326D PUSH3 0xF4240 PUSH2 0x329B SWAP4 SDIV PUSH2 0x3408 JUMP JUMPDEST SWAP3 PUSH1 0x4 PUSH2 0x3437 JUMP JUMPDEST PUSH2 0x3295 PUSH1 0x40 MLOAD SWAP6 DUP7 SWAP5 PUSH1 0x20 DUP7 ADD SWAP1 PUSH2 0x1BFD JUMP JUMPDEST PUSH1 0x17 PUSH1 0xF9 SHL DUP2 MSTORE PUSH1 0x1 ADD SWAP1 JUMP JUMPDEST SWAP1 PUSH2 0x1BFD JUMP JUMPDEST SUB PUSH1 0x1F NOT DUP2 ADD DUP4 MSTORE DUP3 PUSH2 0x11B JUMP JUMPDEST PUSH2 0x32B3 DUP2 MLOAD PUSH2 0x27C7 JUMP JUMPDEST DUP1 ISZERO ISZERO DUP1 PUSH2 0x3312 JUMPI JUMPDEST ISZERO PUSH2 0x32CF JUMPI PUSH2 0x32CA SWAP1 PUSH2 0x3212 JUMP JUMPDEST PUSH2 0x32B3 JUMP JUMPDEST PUSH2 0x198 SWAP2 SWAP1 PUSH2 0x32FE SWAP1 PUSH1 0x17 PUSH1 0xF9 SHL PUSH1 0x1 PUSH1 0x1 PUSH1 0xF8 SHL SUB NOT PUSH2 0x32F3 PUSH2 0x1EAF DUP5 DUP8 PUSH2 0x1DB0 JUMP JUMPDEST AND EQ PUSH2 0x3304 JUMPI PUSH2 0x1DD1 JUMP JUMPDEST SWAP1 PUSH2 0x3481 JUMP JUMPDEST PUSH2 0x330D SWAP1 PUSH2 0x3212 JUMP JUMPDEST PUSH2 0x1DD1 JUMP JUMPDEST POP PUSH1 0x3 PUSH1 0xFC SHL PUSH1 0x1 PUSH1 0x1 PUSH1 0xF8 SHL SUB NOT PUSH2 0x332E PUSH2 0x1EAF DUP5 DUP7 PUSH2 0x1DB0 JUMP JUMPDEST AND EQ PUSH2 0x32BC JUMP JUMPDEST PUSH0 SWAP2 SWAP1 SWAP2 SUB SWAP1 PUSH2 0x3259 JUMP JUMPDEST SWAP1 PUSH1 0x1 ADD SWAP1 PUSH2 0x3251 JUMP JUMPDEST PUSH2 0x3396 PUSH2 0x3288 SWAP2 PUSH1 0x64 DUP2 MUL SWAP1 PUSH1 0xFF DUP1 PUSH2 0x3368 PUSH1 0x64 PUSH2 0x3240 DUP4 DUP8 PUSH2 0x33F4 JUMP JUMPDEST SWAP4 SMOD PUSH1 0x1 SHL SLT ISZERO PUSH2 0x33EA JUMPI JUMPDEST PUSH0 DUP3 SLT PUSH2 0x33DF JUMPI JUMPDEST PUSH2 0x3275 PUSH2 0x338E PUSH1 0xFF PUSH2 0x329B SWAP4 SDIV PUSH2 0x3408 JUMP JUMPDEST SWAP3 PUSH1 0x2 PUSH2 0x3437 JUMP JUMPDEST PUSH2 0x33A0 DUP2 MLOAD PUSH2 0x27C7 JUMP JUMPDEST DUP1 ISZERO ISZERO DUP1 PUSH2 0x33BC JUMPI JUMPDEST ISZERO PUSH2 0x32CF JUMPI PUSH2 0x33B7 SWAP1 PUSH2 0x3212 JUMP JUMPDEST PUSH2 0x33A0 JUMP JUMPDEST POP PUSH1 0x3 PUSH1 0xFC SHL PUSH1 0x1 PUSH1 0x1 PUSH1 0xF8 SHL SUB NOT PUSH2 0x33D8 PUSH2 0x1EAF DUP5 DUP7 PUSH2 0x1DB0 JUMP JUMPDEST AND EQ PUSH2 0x33A9 JUMP JUMPDEST PUSH0 SWAP2 SWAP1 SWAP2 SUB SWAP1 PUSH2 0x337C JUMP JUMPDEST SWAP1 PUSH1 0x1 ADD SWAP1 PUSH2 0x3374 JUMP JUMPDEST DUP2 ISZERO PUSH2 0x2BF7 JUMPI SDIV SWAP1 JUMP JUMPDEST DUP2 ISZERO PUSH2 0x2BF7 JUMPI SMOD SWAP1 JUMP JUMPDEST PUSH0 DUP2 SLT ISZERO PUSH2 0x342E JUMPI PUSH2 0x341B SWAP1 PUSH0 SUB PUSH2 0x1AB6 JUMP JUMPDEST SWAP1 PUSH1 0x1 DUP3 MLOAD SWAP3 PUSH1 0x2D DUP2 MSTORE PUSH0 NOT ADD SWAP3 ADD DUP3 MSTORE JUMP JUMPDEST PUSH2 0x198 SWAP1 PUSH2 0x1AB6 JUMP JUMPDEST SWAP1 PUSH1 0x60 SWAP2 PUSH0 JUMPDEST DUP2 DUP2 LT PUSH2 0x344A JUMPI POP POP POP SWAP1 JUMP JUMPDEST SWAP1 SWAP2 SWAP3 PUSH1 0xA PUSH2 0x3295 PUSH2 0x3477 PUSH1 0x1 SWAP4 PUSH2 0x329B PUSH2 0x3466 DUP6 DUP11 SMOD PUSH2 0x3408 JUMP JUMPDEST SWAP2 PUSH1 0x40 MLOAD SWAP5 DUP6 SWAP4 PUSH1 0x20 DUP6 ADD SWAP1 PUSH2 0x1BFD JUMP JUMPDEST SWAP5 SDIV SWAP3 SWAP2 ADD PUSH2 0x343D JUMP JUMPDEST SWAP2 SWAP1 PUSH0 SWAP3 PUSH1 0x60 SWAP4 DUP2 MLOAD DUP4 DUP2 GT ISZERO PUSH2 0x34F1 JUMPI JUMPDEST DUP1 ISZERO PUSH2 0x34E9 JUMPI JUMPDEST POP DUP3 DUP2 LT PUSH2 0x34A7 JUMPI POP POP POP JUMP JUMPDEST PUSH1 0x40 MLOAD SWAP5 POP SWAP2 DUP3 SWAP1 SUB SWAP2 ADD PUSH1 0x1F DUP3 ADD PUSH1 0x1F NOT AND JUMPDEST DUP2 DUP2 ADD MLOAD DUP6 DUP3 ADD MSTORE PUSH1 0x1F NOT ADD SWAP1 DUP2 ISZERO PUSH2 0x34D4 JUMPI SWAP1 PUSH2 0x34BB JUMP JUMPDEST POP POP PUSH1 0x40 DUP2 DUP5 ADD PUSH0 PUSH1 0x20 DUP3 ADD MSTORE ADD PUSH1 0x40 MSTORE DUP3 MSTORE JUMP JUMPDEST SWAP1 POP PUSH0 PUSH2 0x349A JUMP JUMPDEST SWAP3 POP DUP3 PUSH2 0x3493 JUMP INVALID LOG2 PUSH5 0x6970667358 0x22 SLT KECCAK256 PUSH18 0x5E455FFDE0346CB3F640F72CBFCF6BF9A7DA 0x2D MLOAD 0x2D MSTORE 0xD7 ADD PUSH21 0x486951A487AF64736F6C634300081E0033290DECD9 SLOAD DUP12 PUSH3 0xA8D603 GASLIMIT 0xA9 DUP9 CODESIZE PUSH16 0xC84BA6BC95484008F6362F93160EF3E5 PUSH4 0x0 "
		},
		"gasEstimates": {
			"creation": {
				"codeDepositCost": "2723000",
				"executionCost": "infinite",
				"totalCost": "infinite"
			},
			"external": {
				"renderHTML(bytes)": "infinite",
				"renderSVG(uint16,uint16,uint256)": "infinite"
			},
			"internal": {
				"_generateSvg(bytes memory,struct CachedTraitGroups memory,contract IAssets,struct TraitsContext memory)": "infinite",
				"_getTraitsAsJson(struct CachedTraitGroups memory,struct TraitsContext memory)": "infinite",
				"_isPreRenderedSpecial(uint16)": "355",
				"_renderPreRenderedSpecial(bytes memory,struct TraitsContext memory,struct CachedTraitGroups memory)": "infinite",
				"_stringTrait(string memory,string memory)": "infinite"
			}
		},
		"methodIdentifiers": {
			"renderHTML(bytes)": "74c2b451",
			"renderSVG(uint16,uint16,uint256)": "41fcb160"
		}
	},
	"abi": [
		{
			"inputs": [
				{
					"internalType": "contract IAssets",
					"name": "assetsContract",
					"type": "address"
				},
				{
					"internalType": "contract ITraits",
					"name": "traitsContract",
					"type": "address"
				}
			],
			"stateMutability": "nonpayable",
			"type": "constructor"
		},
		{
			"inputs": [
				{
					"internalType": "bytes",
					"name": "svgContent",
					"type": "bytes"
				}
			],
			"name": "renderHTML",
			"outputs": [
				{
					"internalType": "string",
					"name": "html",
					"type": "string"
				}
			],
			"stateMutability": "pure",
			"type": "function"
		},
		{
			"inputs": [
				{
					"internalType": "uint16",
					"name": "tokenIdSeed",
					"type": "uint16"
				},
				{
					"internalType": "uint16",
					"name": "backgroundIndex",
					"type": "uint16"
				},
				{
					"internalType": "uint256",
					"name": "globalSeed",
					"type": "uint256"
				}
			],
			"name": "renderSVG",
			"outputs": [
				{
					"internalType": "string",
					"name": "svg",
					"type": "string"
				},
				{
					"internalType": "string",
					"name": "traitsAsString",
					"type": "string"
				}
			],
			"stateMutability": "view",
			"type": "function"
		}
	]
}