{
	"data": {
		"bytecode": {
			"linkReferences": {
				"src/libraries/TraitsLoader.sol": {
					"TraitsLoader": [
						{
							"length": 20,
							"start": 5501
						},
						{
							"length": 20,
							"start": 7176
						},
						{
							"length": 20,
							"start": 7322
						},
						{
							"length": 20,
							"start": 7548
						}
					]
				}
			},
			"object": "60c060405234610a2557614b116040813803918261001c81610a29565b938492833981010312610a25578051906001600160a01b0382168203610a255760200151906001600160a01b0382168203610a25576040516106c081016001600160401b03811182821017610974576040526100786040610a29565b6002815261203160f01b602082015281526100936040610a29565b6002815261101960f11b602082015260208201526100b16040610a29565b6002815261203360f01b602082015260408201526100cf6040610a29565b6002815261080d60f21b602082015260608201526100ed6040610a29565b6002815261203560f01b6020820152608082015261010b6040610a29565b6002815261101b60f11b602082015260a08201526101296040610a29565b6002815261203760f01b602082015260c08201526101476040610a29565b6002815261040760f31b602082015260e08201526101656040610a29565b6002815261203960f01b60208201526101008201526101846040610a29565b600381526202031360ec1b60208201526101208201526101a46040610a29565b600381526220313160e81b60208201526101408201526101c46040610a29565b600381526210189960e91b60208201526101608201526101e46040610a29565b6005815264081319599d60da1b60208201526101808201526102066040610a29565b600681526508149a59da1d60d21b60208201526101a08201526102296040610a29565b600681526520426c61636b60d01b60208201526101c082015261024c6040610a29565b600681526510213937bbb760d11b60208201526101e082015261026f6040610a29565b600781526620426c6f6e646560c81b60208201526102008201526102936040610a29565b60078152661023b4b733b2b960c91b60208201526102208201526102b76040610a29565b600681526508131a59da1d60d21b60208201526102408201526102da6040610a29565b6005815264204461726b60d81b60208201526102608201526102fc6040610a29565b600781526620536861646f7760c81b60208201526102808201526103206040610a29565b6005815264204661646560d81b60208201526102a08201526103426040610a29565b600581526420426c756560d81b60208201526102c08201526103646040610a29565b60068152651023b932b2b760d11b60208201526102e08201526103876040610a29565b6007815266204f72616e676560c81b60208201526103008201526103ab6040610a29565b60058152642050696e6b60d81b60208201526103208201526103cd6040610a29565b600781526620507572706c6560c81b60208201526103408201526103f16040610a29565b60048152630814995960e21b60208201526103608201526104126040610a29565b600a8152692054757271756f69736560b01b60208201526103808201526104396040610a29565b600681526520576869746560d01b60208201526103a082015261045c6040610a29565b60078152662059656c6c6f7760c81b60208201526103c08201526104806040610a29565b600981526820536b7920426c756560b81b60208201526103e08201526104a66040610a29565b600981526820486f742050696e6b60b81b60208201526104008201526104cc6040610a29565b600a815269204e656f6e20426c756560b01b60208201526104208201526104f36040610a29565b600b81526a102732b7b71023b932b2b760a91b602082015261044082015261051b6040610a29565b600c81526b204e656f6e20507572706c6560a01b60208201526104608201526105446040610a29565b60098152680813995bdb8814995960ba1b602082015261048082015261056a6040610a29565b6005815264204772657960d81b60208201526104a082015261058c6040610a29565b6005815264204e61767960d81b60208201526104c08201526105ae6040610a29565b60098152682042757267756e647960b81b60208201526104e08201526105d46040610a29565b600681526520426569676560d01b60208201526105008201526105f76040610a29565b600a81526908109b1858dac812185d60b21b602082015261052082015261061e6040610a29565b600a81526908109c9bdddb8812185d60b21b60208201526105408201526106456040610a29565b600b81526a08109b1bdb99194812185d60aa1b602082015261056082015261066d6040610a29565b600b81526a0811da5b99d95c8812185d60aa1b60208201526105808201526106956040610a29565b600981526808109b1d594812185d60ba1b60208201526105a08201526106bb6040610a29565b600a8152690811dc99595b8812185d60b21b60208201526105c08201526106e26040610a29565b600b81526a0813dc985b99d94812185d60aa1b60208201526105e082015261070a6040610a29565b600981526808141a5b9ac812185d60ba1b60208201526106008201526107306040610a29565b600b81526a08141d5c9c1b194812185d60aa1b60208201526106208201526107586040610a29565b6008815267081499590812185d60c21b602082015261064082015261077d6040610a29565b600e81526d08151d5c9c5d5bda5cd94812185d60921b60208201526106608201526107a86040610a29565b600a8152690815da1a5d194812185d60b21b60208201526106808201526107cf6040610a29565b600b81526a0816595b1b1bddc812185d60aa1b60208201526106a08201525f5460365f5580603610610988575b505f8080525f516020614af15f395f51905f52915b6036821061085f5750505060805260a0526040516140549081610a9d8239608051818181610b9e0152818161113f015281816111da015281816112bc015261184f015260a05181610b3b0152f35b80518051906001600160401b0382116109745761087c8554610a4e565b601f8111610939575b50602090601f83116001146108d05792826001949360209386955f926108c5575b50505f19600383901b1c191690841b1786555b01930191019091610811565b015190505f806108a6565b90601f19831691865f52815f20925f5b8181106109215750936020936001969387969383889510610909575b505050811b0186556108b9565b01515f1960f88460031b161c191690555f80806108fc565b929360206001819287860151815501950193016108e0565b61096490865f5260205f20601f850160051c8101916020861061096a575b601f0160051c0190610a86565b5f610885565b9091508190610957565b634e487b7160e01b5f52604160045260245ffd5b5f80525f516020614af15f395f51905f52017f290decd9548b62a8d60345a988386fc84ba6bc95484008f6362f93160ef3e5995b8181106109c957506107fc565b806109d660019254610a4e565b806109e3575b50016109bc565b601f811183146109f857505f81555b5f6109dc565b610a1490825f5283601f60205f20920160051c82019101610a86565b805f525f60208120818355556109f2565b5f80fd5b6040519190601f01601f191682016001600160401b0381118382101761097457604052565b90600182811c92168015610a7c575b6020831014610a6857565b634e487b7160e01b5f52602260045260245ffd5b91607f1691610a5d565b818110610a91575050565b5f8155600101610a8656fe60806040526004361015610011575f80fd5b5f3560e01c806341fcb16014610034576374c2b4511461002f575f80fd5b61019b565b346100985760603660031901126100985761008661009461006f60043561005a8161009c565b6024356100668161009c565b60443591610aa4565b6040929192519384936040855260408501906100a8565b9083820360208501526100a8565b0390f35b5f80fd5b61ffff81160361009857565b805180835260209291819084018484015e5f828201840152601f01601f1916010190565b634e487b7160e01b5f52604160045260245ffd5b604081019081106001600160401b038211176100fb57604052565b6100cc565b608081019081106001600160401b038211176100fb57604052565b90601f801991011681019081106001600160401b038211176100fb57604052565b6040519061014b60e08361011b565b565b6040519061014b60a08361011b565b6040519061014b6103e08361011b565b6001600160401b0381116100fb57601f01601f191660200190565b9060206101989281815201906100a8565b90565b34610098576020366003190112610098576004356001600160401b0381116100985736602382011215610098578060040135906101d78261016c565b916101e5604051938461011b565b8083523660248284010111610098575f92816024602094018483013701015261009461020f610c22565b60405191829182610187565b6001600160401b0381116100fb5760051b60200190565b81601f82011215610098578051906102498261016c565b92610257604051948561011b565b8284526020838301011161009857815f9260208093018386015e8301015290565b519063ffffffff8216820361009857565b9080601f830112156100985781516102a08161021b565b926102ae604051948561011b565b81845260208085019260051b82010192831161009857602001905b8282106102d65750505090565b602080916102e384610278565b8152019101906102c9565b519060ff8216820361009857565b9080601f83011215610098578151916103148361021b565b92610322604051948561011b565b80845260208085019160051b830101918383116100985760208101915b83831061034e57505050505090565b82516001600160401b0381116100985782019060e0828703601f1901126100985761037761013c565b9060208301516001600160401b0381116100985787602061039a92860101610232565b82526103a8604084016102ee565b60208301526103b9606084016102ee565b60408301526103ca608084016102ee565b60608301526103db60a084016102ee565b60808301526103ec60c084016102ee565b60a083015260e0830151916001600160401b0383116100985761041788602080969581960101610232565b60c082015281520192019161033f565b91909160a0818403126100985761043c61014d565b928151845260208201516001600160401b0381116100985781610460918401610232565b602085015260408201516001600160401b0381116100985781610484918401610289565b60408501526060820151916001600160401b038311610098576104ae6080926104b99483016102fc565b6060860152016102ee565b6080830152565b5190811515820361009857565b9080601f830112156100985781516104e48161021b565b926104f2604051948561011b565b81845260208085019260051b82010192831161009857602001905b82821061051a5750505090565b60208091610527846104c0565b81520191019061050d565b602081830312610098578051906001600160401b03821161009857016040818303126100985760405191610565836100e0565b81516001600160401b03811161009857820181601f8201121561009857805161058d8161021b565b9161059b604051938461011b565b81835260208084019260051b820101918483116100985760208201905b8382106105ea5750505050835260208201516001600160401b038111610098576105e292016104cd565b602082015290565b81516001600160401b0381116100985760209161060c88848094880101610427565b8152019101906105b8565b6040513d5f823e3d90fd5b5190601b82101561009857565b81601f82011215610098578051906106468261021b565b92610654604051948561011b565b828452602060a081860194028301019181831161009857602001925b82841061067e575050505090565b83820360a0811261009857604080519161069783610100565b6106a087610622565b83526106ae602088016102ee565b60208401526106be8288016104c0565b83830152605f1901126100985760a0916020916040516106dd816100e0565b6106e960608901610622565b81526106f7608089016102ee565b848201526060820152815201930192610670565b519061014b8261009c565b5190600282101561009857565b5190600582101561009857565b5190601d82101561009857565b5190601782101561009857565b5190601482101561009857565b5190600982101561009857565b5190600482101561009857565b5190605882101561009857565b5190601682101561009857565b519060d482101561009857565b5190606a82101561009857565b519060a982101561009857565b5190608082101561009857565b5190601a82101561009857565b5190601f82101561009857565b5190601382101561009857565b5190601582101561009857565b519060c382101561009857565b5190608582101561009857565b5190608382101561009857565b5190607a82101561009857565b602081830312610098578051906001600160401b03821161009857016103e0818303126100985761085661015c565b918151916001600160401b0383116100985761087a6103c092610a9b94830161062f565b8452610888602082016102ee565b60208501526108996040820161070b565b60408501526108aa6060820161070b565b60608501526108bb60808201610278565b60808501526108cc60a08201610716565b60a08501526108dd60c08201610723565b60c08501526108ee60e08201610730565b60e0850152610900610100820161073d565b610100850152610913610120820161074a565b6101208501526109266101408201610757565b6101408501526109396101608201610757565b61016085015261094c6101808201610764565b61018085015261095f6101a08201610771565b6101a08501526109726101c0820161077e565b6101c08501526109856101e0820161078b565b6101e08501526109986102008201610798565b6102008501526109ab61022082016107a5565b6102208501526109be61024082016107b2565b6102408501526109d161026082016107bf565b6102608501526109e461028082016107cc565b6102808501526109f76102a082016107d9565b6102a0850152610a0a6102c08201610757565b6102c0850152610a1d6102e08201610757565b6102e0850152610a306103008201610764565b610300850152610a4361032082016107e6565b610320850152610a5661034082016107f3565b610340850152610a696103608201610800565b610360850152610a7c610380820161080d565b610380850152610a8f6103a0820161081a565b6103a08501520161073d565b6103c082015290565b919091610ac36020604051619ca08101604052619c808152015f815290565b6040516368b0b90760e01b8152601b600482015290935f8260248173__$856d4e0bd37480d9335e53b1c9958c1873$__5af4918215610bf9575f92610bfe575b506040516307e9065b60e51b815261ffff9384166004820152921660248301526044820192909252905f826064816001600160a01b037f0000000000000000000000000000000000000000000000000000000000000000165afa918215610bf9575f92610bd5575b50610b7682826110f9565b610b8d610b88606084015161ffff1690565b6114c7565b610bcb579081610bc282610bc794867f0000000000000000000000000000000000000000000000000000000000000000611a73565b611ebd565b9091565b90610bc792611809565b610bf29192503d805f833e610bea818361011b565b810190610827565b905f610b6b565b610617565b5f9250610c1c903d8085833e610c14818361011b565b810190610532565b91610b03565b60405190610c3160208361011b565b5f8252565b634e487b7160e01b5f52602160045260245ffd5b601b1115610c5457565b610c36565b906020828203126100985781516001600160401b038111610098576101989201610427565b9080602083519182815201916020808360051b8301019401925f915b838310610ca957505050505090565b9091929394602080610d2f600193601f1986820301875289519060c0610cd8835160e0845260e08401906100a8565b9260ff86820151168684015260ff604082015116604084015260ff6060820151166060840152610d126080820151608085019060ff169052565b60a08181015160ff169084015201519060c08184039101526100a8565b97019301930191939290610c9a565b90602080835192838152019201905f5b818110610d5b5750505090565b82511515845260209384019390920191600101610d4e565b92919060018060a01b031683526060602084015260a083019080519160406060860152825180915260c0850190602060c08260051b8801019401915f905b828210610ddf5750505050610dda60019260206040930151605f19878303016080880152610d3e565b930152565b9091929460bf1988820301825285519081518152610e0c602083015160a0602084015260a08301906100a8565b6040830151908281036040840152602080835192838152019201905f905b808210610e705750505082610e62602093608080610e578796606060019a01518582036060870152610c7e565b94015160ff16910152565b970192019201909291610db1565b90919260208060019263ffffffff8751168152019401920190610e2a565b92919060018060a01b031683526060602084015260a083019080519160406060860152825180915260c0850190602060c08260051b8801019401915f905b828210610ef45750505050610dda5f9260206040930151605f19878303016080880152610d3e565b9091929460bf1988820301825285519081518152610f21602083015160a0602084015260a08301906100a8565b6040830151908281036040840152602080835192838152019201905f905b808210610f7a5750505082610f6c602093608080610e578796606060019a01518582036060870152610c7e565b970192019201909291610ecc565b90919260208060019263ffffffff8751168152019401920190610f3f565b9392919060018060a01b031684526060602085015260a084019080519160406060870152825180915260c0860190602060c08260051b8901019401915f905b828210610ffe575050505060200151848203605f19016080860152604091610dda91610d3e565b9091929460bf198982030182528551908151815261102b602083015160a0602084015260a08301906100a8565b6040830151908281036040840152602080835192838152019201905f905b8082106110845750505082611076602093608080610e578796606060019a01518582036060870152610c7e565b970192019201909291610fd7565b90919260208060019263ffffffff8751168152019401920190611049565b634e487b7160e01b5f52603260045260245ffd5b8051600110156110c65760400190565b6110a2565b8051156110c65760200190565b80518210156110c65760209160051b010190565b51601b811015610c545790565b90606081019061ffff61110e835161ffff1690565b16156112aa5750516111239061ffff166114c7565b156111cb57604051635de99db160e11b8152905f8280611167847f000000000000000000000000000000000000000000000000000000000000000060048401610e8e565b038173__$856d4e0bd37480d9335e53b1c9958c1873$__5af4908115610bf9576111a4925f926111a7575b50519061119e826110cb565b526110cb565b50565b6111c49192503d805f833e6111bc818361011b565b810190610c59565b905f611192565b604051635de99db160e11b81527f0000000000000000000000000000000000000000000000000000000000000000919073__$856d4e0bd37480d9335e53b1c9958c1873$__5f8280611221868860048401610d73565b0381845af4908115610bf95761126f9461125285935f958691611290575b5084519061124c826110b6565b526110b6565b50604051809681948293635de99db160e11b845260048401610e8e565b03915af4908115610bf9576111a4925f926111a75750519061119e826110cb565b6112a491503d8088833e6111bc818361011b565b5f61123f565b604051635de99db160e11b81529293927f0000000000000000000000000000000000000000000000000000000000000000925073__$856d4e0bd37480d9335e53b1c9958c1873$__91905f8180611305898860048401610d73565b0381865af48015610bf957611328915f91611480575b5086519061124c826110b6565b505f5b61134261133c602084015160ff1690565b60ff1690565b8110156114785761136961136061135a8385516110d8565b516110ec565b61133c81610c4a565b604051635de99db160e11b8152905f8280611389848c8b60048501610f98565b0381885af48015610bf9576113b3925f9161145e575b508851906113ad83836110d8565b526110d8565b506113cc60406113c48385516110d8565b510151151590565b6113d9575b60010161132b565b6113f461136060606113ec8486516110d8565b5101516110ec565b90604051635de99db160e11b81525f8180611414868c8b60048501610f98565b0381885af4928315610bf95760019361143c925f91611444575b508951906113ad83836110d8565b5090506113d1565b61145891503d805f833e6111bc818361011b565b5f61142e565b61147291503d805f833e6111bc818361011b565b5f61139f565b505050509050565b61149491503d805f833e6111bc818361011b565b5f61131b565b634e487b7160e01b5f52601160045260245ffd5b61ffff5f199116019061ffff82116114c257565b61149a565b61ffff81161561154f576114dd61ffff916114ae565b1660048114908115611544575b8115611539575b811561152e575b8115611523575b8115611518575b8115611510575090565b600d91501490565b600b81149150611506565b6008811491506114ff565b6007811491506114f8565b6006811491506114f1565b6005811491506114ea565b505f90565b61ffff60649116019061ffff82116114c257565b906020828203126100985781516001600160401b038111610098576101989201610232565b6040519061159c60608361011b565b603c82527f30302f737667222076696577426f783d22302030203438203438223e000000006040837f3c73766720786d6c6e733d22687474703a2f2f7777772e77332e6f72672f323060208201520152565b604051906115fd60608361011b565b602e82526d30ba32b21dbe9e17b9ba3cb6329f60911b6040837f3c7374796c653e696d677b696d6167652d72656e646572696e673a706978656c60208201520152565b6040519061164f60408361011b565b601782527f3c672069643d2247656e657261746564496d616765223e0000000000000000006020830152565b6040519061168a60608361011b565b602682527f3c666f726569676e4f626a6563742077696474683d22343822206865696768746020830152651e911a1c111f60d11b6040830152565b604051906116d460808361011b565b60458252641cd94d8d0b60da1b6060837f3c696d6720786d6c6e733d22687474703a2f2f7777772e77332e6f72672f313960208201527f39392f7868746d6c22207372633d22646174613a696d6167652f706e673b626160408201520152565b6040519061174360608361011b565b603882527f666f726569676e4f626a6563743e3c2f673e3c2f7376673e00000000000000006040837f222077696474683d223130302522206865696768743d2231303025222f3e3c2f60208201520152565b604051906117a460608361011b565b603182527f2261747472696275746573223a5b2274726169745f74797065223a225370656360208301527034b0b61018b99116113b30b63ab2911d1160791b6040830152565b604051906117f960408361011b565b60018252601160f91b6020830152565b5f611827611822606061184b95979697015161ffff1690565b611554565b6040516369dde37960e01b815261ffff909116600482015292839081906024820190565b03817f00000000000000000000000000000000000000000000000000000000000000006001600160a01b03165afa908115610bf9576118d56118ed926020945f91611926575b506118a361189d61158d565b84612d02565b6118ae61189d6115ee565b6118b961189d611640565b6118c461189d61167b565b6118cf61189d6116c5565b82612d45565b6118e66118e0611734565b82612d02565b93516110cb565b51015161191b61190f602060405161277081016040526127508152015f815290565b916118e061189d611795565b6101986118e06117ea565b61194291503d805f833e61193a818361011b565b810190611568565b5f611891565b6040519061195760408361011b565b60138252721e339034b21e912130b1b5b3b937bab732111f60691b6020830152565b6040519061198860408361011b565b60048252631e17b39f60e11b6020830152565b60405190602082018281106001600160401b038211176100fb576040819052826106006119c8818461011b565b5f5b8181106119d657505052565b6020906040516119e6848261011b565b8336823781860152016119ca565b60405190611a0360808361011b565b605582527f3c666f726569676e4f626a6563742077696474683d223438222068656967687460208301527f3d223438223e3c696d6720786d6c6e733d22687474703a2f2f7777772e77332e60408301527437b93397989c9c9c97bc343a36b6111039b9319e9160591b6060830152565b838383611aa993969496611a8e611a8861158d565b83612d02565b611a99611a886115ee565b611aa4611a88611948565b61245b565b611ab461189d611979565b611abc61199b565b905f5b611ad061133c602084015160ff1690565b811015611b8b57806001611ae961135a829486516110d8565b611af281610c4a565b14611b8657611b32611b0861135a8386516110d8565b611b1181610c4a565b611b2a6020611b218588516110d8565b51015160ff1690565b90878761282a565b611b4260406113c48386516110d8565b611b4d575b01611abf565b611b86611b6060606113ec8487516110d8565b611b6981610c4a565b611b2a60206060611b7b8689516110d8565b510151015160ff1690565b611b47565b505061014b929150611b9f611bb591612aff565b611baa61189d611640565b6118e061189d6119f4565b611bbd611734565b90612d02565b60405190611bd260408361011b565b600e82526d2261747472696275746573223a5b60901b6020830152565b60405190611bfe60608361011b565b603782527f7065223a224269727468646179222c2276616c7565223a0000000000000000006040837f7b22646973706c61795f74797065223a2264617465222c2274726169745f747960208201520152565b60405190611c5f60408361011b565b60018252607d60f81b6020830152565b60405190611c7e60408361011b565b60018252600b60fa1b6020830152565b60051115610c5457565b60405190611ca760a08361011b565b606782527f7b2261747472696275746573223a205b7b2274726169745f74797065223a202260208301527f4572726f72222c202276616c7565223a20224261636b67726f756e642047726f60408301527f7570204c6f61646564206275742054726169747320417272617920697320456d606083015266707479227d5d7d60c81b6080830152565b60405190611d3e60408361011b565b600a825269109858dad9dc9bdd5b9960b21b6020830152565b5f5490611d638261021b565b91611d71604051938461011b565b8083525f808052907f290decd9548b62a8d60345a988386fc84ba6bc95484008f6362f93160ef3e563602085015b828410611dac5750505050565b6040515f83548060011c9060018116908115611e6c575b602083108214611e58578285526020850191908115611e415750600114611e08575b505060019282611dfa8594602094038261011b565b815201920193019290611d9f565b909150611e18855f5260205f2090565b915f925b818410611e2d575050018282611de5565b600181602092548686015201930192611e1c565b60ff191682525090151560051b0190508282611de5565b634e487b7160e01b5f52602260045260245ffd5b91607f1691611dc3565b60405190611e8560408361011b565b600a8252695370656369616c20317360b01b6020830152565b60405190611ead60408361011b565b60018252605d60f81b6020830152565b90611eda6020604051615e208101604052615e008152015f815290565b91611ee661189d611bc3565b611ef161189d611bef565b611f1961189d611f14611f0b608086015163ffffffff1690565b63ffffffff1690565b612b8c565b611f2461189d611c50565b611f2f61189d611c6f565b611f3981516110b6565b51606060c084015191611f4b83611c8e565b611f5483611c8e565b0190815151156120fe57611f6f61189d91611f7e93516110d8565b5151611f79611d2f565b612bd1565b606082019161ffff611f92845161ffff1690565b16156120115750611fc4611fbd611fb8611fae606094516110cb565b51945161ffff1690565b6114ae565b61ffff1690565b9101519081518110611fdf575b50505b6101986118e0611e9e565b611fef6118e09161200a936110d8565b5151612002611ffc611c6f565b85612d02565b611f79611e76565b5f80611fd1565b9150915f5b61202761133c602085015160ff1690565b8110156120f5578061203f61135a60019386516110d8565b61204881610c4a565b61205b61133c6020611b218589516110d8565b908381146120ee5761206e9087516110d8565b5190606082015191825180151590816120e4575b50612092575b5050505b01612016565b60206120d46120a761189d946120dc966110d8565b516120b96120b3611c6f565b8a612d02565b8351906120c582610c4a565b516120ce611d57565b91612c38565b910151612bd1565b5f8080612088565b905082105f612082565b505061208c565b50915050611fd4565b5050505050610198611c98565b5f198101919082116114c257565b919082039182116114c257565b60141115610c5457565b60ff166014811015610c545790565b6040519061214e60408361011b565b601d82527f3c646566733e3c6c696e6561724772616469656e742069643d2262672d0000006020830152565b6040519061218960408361011b565b600682526511103c189e9160d11b6020830152565b604051906121ad60408361011b565b600682526511103c989e9160d11b6020830152565b604051906121d160408361011b565b600682526511103c191e9160d11b6020830152565b604051906121f560408361011b565b600682526511103c991e9160d11b6020830152565b6040519061221960408361011b565b6002825261111f60f11b6020830152565b634e487b7160e01b5f52601260045260245ffd5b6040519061224d60808361011b565b604382526262672d60e81b6060837f3c2f6c696e6561724772616469656e743e3c2f646566733e3c7265637420776960208201527f6474683d22343822206865696768743d223438222066696c6c3d2275726c282360408201520152565b604051906122ba60408361011b565b60048252631491179f60e11b6020830152565b604051906122dc60408361011b565b601d82527f3c646566733e3c72616469616c4772616469656e742069643d2262672d0000006020830152565b6040519061231760808361011b565b604382526262672d60e81b6060837f3c2f72616469616c4772616469656e743e3c2f646566733e3c7265637420776960208201527f6474683d22343822206865696768743d223438222066696c6c3d2275726c282360408201520152565b6103e80190816103e8116114c257565b90600182018092116114c257565b919082018092116114c257565b604051906123af60608361011b565b602f82526e17b337b932b4b3b727b13532b1ba1f60891b6040837f222077696474683d223130302522206865696768743d223130302522202f3e3c60208201520152565b6040519061240260608361011b565b602382527f3c726563742077696474683d22343822206865696768743d223438222066696c602083015262361e9160e91b6040830152565b6040519061244960408361011b565b600382526211179f60e91b6020830152565b9291909260019060c061246f8385516110d8565b51940191825161247e81611c8e565b61248781611c8e565b60ff60608701918251519182911610156127b357506124be90516124b885516124af81611c8e565b61133c81611c8e565b906110d8565b51936124d66124d1602087015160ff1690565b612130565b6124df81612126565b6002810361257157505050505061250a60c06040920151612504608085015160ff1690565b906131bb565b910180515161ffff8316928184101561255757505061253e61253461014b949361254f93516110d8565b5163ffffffff1690565b61254961189d6123f3565b82613279565b611bbd61243a565b63395fbd4b60e21b5f5261ffff1660045260245260445b5ffd5b909294919396955061258281612126565b80840361262057505050505f906125ae6125cf94516125a081611c8e565b6125a981611c8e565b612375565b9060405180809681946369dde37960e01b8352600483019190602083019252565b03916001600160a01b03165afa918215610bf95761014b926125fe915f91612606575b506118c461189d61167b565b611bbd6123a0565b61261a91503d805f833e61193a818361011b565b5f6125f2565b90929591935061262f81612126565b6013810361269b5750612693929161014b9561265b612688935161265281611c8e565b611f1481611c8e565b9361266d6126676122cd565b88612d02565b6126778588612d02565b61268261266761220a565b86612f6d565b6118e061189d612308565b611bbd6122ab565b9161014b956126b261269395935161265281611c8e565b936126be61266761213f565b6126c88588612d02565b6126d361266761217a565b6126ea612667611f1461133c604087015160ff1690565b6126f561266761219e565b61270c612667611f1461133c606087015160ff1690565b6127176126676121c2565b61272e612667611f1461133c608087015160ff1690565b6127396126676121e6565b612750612667611f1461133c60a087015160ff1690565b61275b61266761220a565b61276481612126565b6001811615908161279a575b501561278b5761278092866130a1565b6118e061189d61223e565b6127959286612f6d565b612780565b60049150806127aa60ff92612126565b1610155f612770565b61256e90859084908015612801576127cc60ff9161210b565b925b51916127d983611c8e565b6127e283611c8e565b63ad07331360e01b5f5260ff9116811660045216602452604452606490565b5060ff5f926127ce565b5f1981146114c25760010190565b9081518110156110c6570160200190565b929061283b905160ff8416906110d8565b519160608301908151519260ff81169380851015612a6c575050509061286191516110d8565b5160c081018051518015612a5a575051925f93805191604084019361288a61133c865160ff1690565b9261289c61133c606084015160ff1690565b9760806040818a0199019301955b8082106128bd5750505050505050505050565b6128ea6128e46128d66128cf8561280b565b9486612819565b516001600160f81b03191690565b60f81c90565b60016128fa61133c8c5160ff1690565b03612a165761291b61133c6128e46128d66129148761280b565b9688612819565b85515161ffff8216918183101561255757505061253461293c9187516110d8565b60ff5f92169060ff81161515905b8260ff85161061295d57505050506128aa565b909192988d9e9d6030821090811591612a0a575b506129ee5761298b908f9e9f83856129d6575b505061280b565b9861299a61133c8c5160ff1690565b8a116129af575b60010160ff1692919061294a565b9c985060ff60016129cd6129c761133c8f5160ff1690565b9b61280b565b9e9150506129a1565b60ff6129e7921660ff84168d6133bb565b8e83612984565b630b49a7ed60e11b5f5260ff9081166004528e1660245260445ffd5b6030915010158f612971565b612a3f612a3561133c6128e46128d6612a2e8861280b565b9789612819565b60081b61ff001690565b612a5461133c6128e46128d6612a2e8861280b565b1761291b565b637f5ab42b60e11b5f5260045260245ffd5b61256e93508015612aa057612a809061210b565b915b63ad07331360e01b5f5260ff90811660045216602452604452606490565b505f91612a82565b805191908290602001825e015f815290565b9061014b612af1926040519384917519185d184e9a5b5859d94bdc1b99ced8985cd94d8d0b60521b60208401526036830190612aa8565b03601f19810184528361011b565b5f5b60308110612b235750612b1e612b1961019892613589565b613cae565b612aba565b91905f5b60308110612b3a57509091600101612b01565b80635f5d6eff612b6a63ffffffff612b5f600195612b598a89516133aa565b516133aa565b511663ffffffff1690565b14612b76575b01612b27565b5f612b8682612b598887516133aa565b52612b70565b90604051600a608082019360a083016040525f8552935b5f190193603082820601855304928315612bbf57600a90612ba3565b809350608091030191601f1901918252565b600261014b91612c21612c099594600b6040519788946e3d913a3930b4ba2fba3cb832911d1160891b6020870152602f860190612aa8565b6a1116113b30b63ab2911d1160a91b81520190612aa8565b61227d60f01b815203601d1981018552018361011b565b919091612c4481610c4a565b600a8114908115612ced575b8115612cd8575b8115612cc3575b8115612cae575b8115612c99575b8115612c85575b50612c7c575090565b61019891613715565b60079150612c9281610c4a565b145f612c73565b9050612ca481610c4a565b6018811490612c6c565b9050612cb981610c4a565b600d811490612c65565b9050612cce81610c4a565b6016811490612c5e565b9050612ce381610c4a565b600b811490612c57565b9050612cf881610c4a565b6015811490612c50565b90612d0e81518361388c565b8051906020828183019201019060208451850101905b828110612d35575050508151019052565b8051825260209182019101612d24565b81518015612e29576003600282010460021b906003810690612d67838561388c565b604051947f4142434445464748494a4b4c4d4e4f505152535455565758595a616263646566601f5261022f197f6768696a6b6c6d6e6f707172737475767778797a303132333435363738392d5f01603f526004600360208751880101938301925b0192603f8451818160121c165183538181600c1c16516001840153818160061c1651600284015316516003820153019181811015612e0a576003600491612dc8565b50506001603d92838115158403531460011b9003538151019052604052565b505050565b15612e3557565b60405162461bcd60e51b815260206004820152603160248201527f54726169744461746120697320656d7074792c20636f756c646e2774206665746044820152706368206772616469656e742073746f707360781b6064820152608490fd5b8115612e9e570490565b61222a565b818102929181159184041417156114c257565b906064820291808305606414901517156114c257565b90620f4240820291808305620f424014901517156114c257565b8115612e9e57600160ff1b81145f198314166114c2570590565b60405190612f0f60408361011b565b600e82526d1e39ba37b81037b33339b2ba1e9160911b6020830152565b60405190612f3b60408361011b565b600382526201291160ed1b6020830152565b60405190612f5c60408361011b565b6002825261179f60f11b6020830152565b9291612f7c9060c092516110d8565b51910190612f8d8251511515612e2e565b81515190612fad6080820192612fa761133c855160ff1690565b90612e94565b9160405f9201915b838110612fc457505050505050565b612feb8551612fe0612fda61133c865160ff1690565b84612ea3565b845160ff169161320e565b83515161ffff821691818310156125575750509061306261301261253460019487516110d8565b61305161304061303b61302c61302787612eb6565b612ecc565b6130358b61210b565b90612ee6565b6138b5565b6120b361304b612f00565b8c612d02565b61305c6120b3612f2c565b886139db565b61306d612667612f4d565b01612fb5565b6040519061308260408361011b565b601082526f179f1e39ba37b81037b33339b2ba1e9160811b6020830152565b916130af9060c092516110d8565b519201906130c08251511515612e2e565b815151926130da6080820194612fa761133c875160ff1690565b9360405f9201915b8581106130f157505050505050565b6131078551612fe0612fda61133c865160ff1690565b83515161ffff82169181831015612557575050906131a461312e61253460019487516110d8565b61319361314961303b8b61314461302788612eb6565b612ee6565b61317361316761303b8d6131446130276131628b612385565b612eb6565b916120b361304b612f00565b61317e6120b3612f2c565b613188838a6139db565b6126676120b3613073565b61319e612667612f2c565b866139db565b6131b56131af612f4d565b86612d02565b016130e2565b9060ff166001146131fd578051156110c657602081015160f01c61ff0016906131f99061133c906128e4906128d6906131f35f612385565b90612819565b1790565b8051156110c6576020015160f81c90565b909160ff166001146132495760ff61323f826131f361ff00613231878697612819565b5160f81c60081b1695612385565b5160f81c16161790565b9061325391612819565b5160f81c90565b6040519061326960408361011b565b60018252602360f81b6020830152565b601882901c60ff16906132b060ff61329a6132a482601088901c61ffff1683565b1663ffffffff1690565b9560081c62ffffff1690565b926132bc611a8861325a565b6132c960ff841660041c90565b9260108410156110c657600f169360108510156110c6576132ea8260041c90565b9160108310156110c657600f169460108610156110c65761330b8260041c90565b9160108310156110c657600f169160108310156110c6576040516f181899199a1a9b1b9c1cb0b131b232b360811b9687901a60f890811b6001600160f81b031990811660208401529388901a811b841660218301529487901a851b831660228201529686901a841b8216602388015285901a831b8116602487015293901a901b909116602583015261014b91906133a58260268101612af1565b612d02565b9060308110156110c65760051b0190565b919260ff811680156134d45760ff601883901c8116169160ff601082901c61ffff16169260ff600883901c62ffffff1616926133ff61253489612b59898b516133aa565b9360ff85169384156134b85760ff83146134b8575060ff601886901c8116169360ff61343b81601089901c61ffff16169760081c62ffffff1690565b16968360ff039260ff607f858502010485019889156134af575b84848b61014b9f9c9995896134a49f9c9980612b599f9c989a85809c8560ff809c968582980202049102010460081b9d0202049102010460101b960202049102010460181b17171794516133aa565b9063ffffffff169052565b60019950613455565b979250505061014b969350612b5992506134a4949150516133aa565b5050505050565b604051906134ea60408361011b565b600882526744a8272386850d0560c11b6020830152565b6040519061351060408361011b565b601982527c0d49484452000000300000003008060000005702f987000000000000006020830152565b6040519061354860408361011b565b600c82526724a2a7225721304160a11b6020830152565b90613583949361358361014b94613583612af194604051998a976020890190612aa8565b90612aa8565b6135916136af565b905f905f5b603081106135d4575050506135b56135b061019892613ad2565b613be7565b6135bd6134db565b906135c6613501565b6135ce613539565b9261355f565b5f6135e3600185019486612819565b535f5b603081106135f75750600101613596565b8061360c61253484612b5960019588516133aa565b94613630613620601888901c60ff1661133c565b60f81b6001600160f81b03191690565b5f1a61363c8289612819565b53613651613620601088901c61ffff1661133c565b5f1a61365f84830189612819565b536136a8600461367a61362060088a901c62ffffff1661133c565b9260038101935f1a61368f600283018c612819565b53019660f81b6001600160f81b0319165f1a9188612819565b53016135e6565b60405161243091906124606136c4818361011b565b8382526001600160401b038294116100fb57601f190190369060200137565b906136ed8261016c565b6136fa604051918261011b565b828152809261370b601f199161016c565b0190602036910137565b915f905b82518210156138135761372c82846110d8565b518451815110613742575b509060010190613719565b6001935f5b825180821015613808576128d661376b83613766613771948c51612119565b612393565b89612819565b61378e6137816128d68487612819565b6001600160f81b03191690565b6001600160f81b0319909116036137a757600101613747565b5093505f9291925b6137bb57919091613737565b6137d59293506137d091508451905190612119565b6136e3565b5f5b815181101561380357806137f06128d660019387612819565b5f1a6137fc8285612819565b53016137d7565b509150565b5050939291926137af565b915050565b601f198101519051600c810191603f19019082106114c2571061383757565b60405162461bcd60e51b815260206004820152602760248201527f44796e616d69634275666665723a20417070656e64696e67206f7574206f66206044820152663137bab732399760c91b6064820152608490fd5b603f19601f198201510190519182018092116114c2571061383757565b80156114c2575f190190565b61393a61391f91612710810290620f4240806138dc6127106138d78387613d8f565b613d99565b930760011b12156139d1575b5f82126139c6575b61390c613904620f424061392c9305613edd565b926004613f0c565b6135836040519586946020860190612aa8565b601760f91b815260010190565b03601f19810183528261011b565b613944815161210b565b801515806139a3575b156139605761395b906138a9565b613944565b610198919061398f90601760f91b6001600160f81b03196139846128d68487612819565b161461399557612385565b90613fa6565b61399e906138a9565b612385565b50600360fc1b6001600160f81b03196139bf6128d68486612819565b161461394d565b5f91909103906138f0565b90600101906138e8565b919091604051926139ed60408561011b565b600c84526b39ba37b816b1b7b637b91e9160a11b60208501908152613a1183613818565b60208551809296010160208451850101955b818110613a8857505082613a3e939495505101835282613279565b613a466117ea565b613a5181518361388c565b8051906020828183019201019060208451850101905b828110613a78575050508151019052565b8051825260209182019101613a67565b8051875260209687019601613a23565b6004906135839493613ab761014b946040519788946020860190612aa8565b9063ffffffff60e01b16815203601b1981018552018361011b565b61ffff81511690613af061ffff613ae884613da3565b931916613da3565b60405161780160f01b6020820152600160f81b60228201526001600160f01b031993841660238201529216602583015260078252613b2f60278361011b565b6001905f935f925b8251841015613b8c57613b4a8484612819565b5160f81c019461fff1861015613b80575b85019261fff1841015613b73575b6001019294613b37565b61fff01990930192613b69565b9461fff0190194613b5b565b610198949350613ba890613bad929660101b1763ffffffff1690565b613e4e565b91613a98565b6040516001600160e01b0319918216602082015291166024820152929161014b916004918591613ab7906028840190612aa8565b90604051631251105560e21b6020820152613c098161392c6024820186612aa8565b5f9163ffffffff5b8251841015613c7657613c2d61133c6128e46128d68787612819565b18925f5b600860ff821610613c46575060010192613c11565b9360ff90600190818082811c637fffffff16921603613c6f5763edb88320905b18950116613c31565b5f90613c66565b9150926101989250613c9f63ffffffff613c97613ba8845163ffffffff1690565b931916613e4e565b91631251105560e21b90613bb3565b90606091805180613cbd575050565b9092506003600282010460021b90604051937f4142434445464748494a4b4c4d4e4f505152535455565758595a616263646566601f526106707f6768696a6b6c6d6e6f707172737475767778797a303132333435363738392d5f18603f526020850191838601926004600360208601945b0191603f8351818160121c16515f538181600c1c1651600153818160061c165160025316516003535f518152019083821015613d6f57600490600390613d2e565b50915060405f93016040526003613d3d60f01b9106600204820352528252565b8115612e9e570590565b8115612e9e570790565b6040516001600160f81b031960f883901b81166020830190815260f09390931b16602182015260028152613dd860228261011b565b5190516001600160f01b03198116919060028210613df557505090565b6001600160f01b031960029290920360031b82901b1616919050565b80516020909101516001600160e01b0319811692919060048210613e33575050565b6001600160e01b031960049290920360031b82901b16169150565b61019890613e7060ff601883901c81165b1660f81b6001600160f81b03191690565b90613e8460ff601083901c61ffff16613e5f565b613e9860ff600884901c62ffffff16613e5f565b6040516001600160f81b0319948516602082015291841660218301528316602282015260f89190911b909116602382015260048152613ed860248261011b565b613e11565b5f811215613f0357613ef0905f03612b8c565b906001825192602d81525f190192018252565b61019890612b8c565b9190915f8312613f9d575b916060905f5b848110613f5a5750505b8281511015613f5657604051600360fc1b602082015290613f5190829061392c9060218301613583565b613f27565b9150565b909391613f93613583613f8b60019361392c613f7a611f148b600a900790565b916040519485936020850190612aa8565b95600a900590565b9101939193613f1d565b915f0391613f17565b91905f92606093815183811115614016575b801561400e575b50828110613fcc57505050565b6040519450918290039101601f8201601f19165b8181015185820152601f1901908115613ff95790613fe0565b505060408184015f6020820152016040528252565b90505f613fbf565b925082613fb856fea26469706673582212201e18b7858caf377fba2f59532a929006fad5b8c5e299506a3d07bcf7b62130ba64736f6c634300081e0033290decd9548b62a8d60345a988386fc84ba6bc95484008f6362f93160ef3e563",
			"opcodes": "PUSH1 0xC0 PUSH1 0x40 MSTORE CALLVALUE PUSH2 0xA25 JUMPI PUSH2 0x4B11 PUSH1 0x40 DUP2 CODESIZE SUB SWAP2 DUP3 PUSH2 0x1C DUP2 PUSH2 0xA29 JUMP JUMPDEST SWAP4 DUP5 SWAP3 DUP4 CODECOPY DUP2 ADD SUB SLT PUSH2 0xA25 JUMPI DUP1 MLOAD SWAP1 PUSH1 0x1 PUSH1 0x1 PUSH1 0xA0 SHL SUB DUP3 AND DUP3 SUB PUSH2 0xA25 JUMPI PUSH1 0x20 ADD MLOAD SWAP1 PUSH1 0x1 PUSH1 0x1 PUSH1 0xA0 SHL SUB DUP3 AND DUP3 SUB PUSH2 0xA25 JUMPI PUSH1 0x40 MLOAD PUSH2 0x6C0 DUP2 ADD PUSH1 0x1 PUSH1 0x1 PUSH1 0x40 SHL SUB DUP2 GT DUP3 DUP3 LT OR PUSH2 0x974 JUMPI PUSH1 0x40 MSTORE PUSH2 0x78 PUSH1 0x40 PUSH2 0xA29 JUMP JUMPDEST PUSH1 0x2 DUP2 MSTORE PUSH2 0x2031 PUSH1 0xF0 SHL PUSH1 0x20 DUP3 ADD MSTORE DUP2 MSTORE PUSH2 0x93 PUSH1 0x40 PUSH2 0xA29 JUMP JUMPDEST PUSH1 0x2 DUP2 MSTORE PUSH2 0x1019 PUSH1 0xF1 SHL PUSH1 0x20 DUP3 ADD MSTORE PUSH1 0x20 DUP3 ADD MSTORE PUSH2 0xB1 PUSH1 0x40 PUSH2 0xA29 JUMP JUMPDEST PUSH1 0x2 DUP2 MSTORE PUSH2 0x2033 PUSH1 0xF0 SHL PUSH1 0x20 DUP3 ADD MSTORE PUSH1 0x40 DUP3 ADD MSTORE PUSH2 0xCF PUSH1 0x40 PUSH2 0xA29 JUMP JUMPDEST PUSH1 0x2 DUP2 MSTORE PUSH2 0x80D PUSH1 0xF2 SHL PUSH1 0x20 DUP3 ADD MSTORE PUSH1 0x60 DUP3 ADD MSTORE PUSH2 0xED PUSH1 0x40 PUSH2 0xA29 JUMP JUMPDEST PUSH1 0x2 DUP2 MSTORE PUSH2 0x2035 PUSH1 0xF0 SHL PUSH1 0x20 DUP3 ADD MSTORE PUSH1 0x80 DUP3 ADD MSTORE PUSH2 0x10B PUSH1 0x40 PUSH2 0xA29 JUMP JUMPDEST PUSH1 0x2 DUP2 MSTORE PUSH2 0x101B PUSH1 0xF1 SHL PUSH1 0x20 DUP3 ADD MSTORE PUSH1 0xA0 DUP3 ADD MSTORE PUSH2 0x129 PUSH1 0x40 PUSH2 0xA29 JUMP JUMPDEST PUSH1 0x2 DUP2 MSTORE PUSH2 0x2037 PUSH1 0xF0 SHL PUSH1 0x20 DUP3 ADD MSTORE PUSH1 0xC0 DUP3 ADD MSTORE PUSH2 0x147 PUSH1 0x40 PUSH2 0xA29 JUMP JUMPDEST PUSH1 0x2 DUP2 MSTORE PUSH2 0x407 PUSH1 0xF3 SHL PUSH1 0x20 DUP3 ADD MSTORE PUSH1 0xE0 DUP3 ADD MSTORE PUSH2 0x165 PUSH1 0x40 PUSH2 0xA29 JUMP JUMPDEST PUSH1 0x2 DUP2 MSTORE PUSH2 0x2039 PUSH1 0xF0 SHL PUSH1 0x20 DUP3 ADD MSTORE PUSH2 0x100 DUP3 ADD MSTORE PUSH2 0x184 PUSH1 0x40 PUSH2 0xA29 JUMP JUMPDEST PUSH1 0x3 DUP2 MSTORE PUSH3 0x20313 PUSH1 0xEC SHL PUSH1 0x20 DUP3 ADD MSTORE PUSH2 0x120 DUP3 ADD MSTORE PUSH2 0x1A4 PUSH1 0x40 PUSH2 0xA29 JUMP JUMPDEST PUSH1 0x3 DUP2 MSTORE PUSH3 0x203131 PUSH1 0xE8 SHL PUSH1 0x20 DUP3 ADD MSTORE PUSH2 0x140 DUP3 ADD MSTORE PUSH2 0x1C4 PUSH1 0x40 PUSH2 0xA29 JUMP JUMPDEST PUSH1 0x3 DUP2 MSTORE PUSH3 0x101899 PUSH1 0xE9 SHL PUSH1 0x20 DUP3 ADD MSTORE PUSH2 0x160 DUP3 ADD MSTORE PUSH2 0x1E4 PUSH1 0x40 PUSH2 0xA29 JUMP JUMPDEST PUSH1 0x5 DUP2 MSTORE PUSH5 0x81319599D PUSH1 0xDA SHL PUSH1 0x20 DUP3 ADD MSTORE PUSH2 0x180 DUP3 ADD MSTORE PUSH2 0x206 PUSH1 0x40 PUSH2 0xA29 JUMP JUMPDEST PUSH1 0x6 DUP2 MSTORE PUSH6 0x8149A59DA1D PUSH1 0xD2 SHL PUSH1 0x20 DUP3 ADD MSTORE PUSH2 0x1A0 DUP3 ADD MSTORE PUSH2 0x229 PUSH1 0x40 PUSH2 0xA29 JUMP JUMPDEST PUSH1 0x6 DUP2 MSTORE PUSH6 0x20426C61636B PUSH1 0xD0 SHL PUSH1 0x20 DUP3 ADD MSTORE PUSH2 0x1C0 DUP3 ADD MSTORE PUSH2 0x24C PUSH1 0x40 PUSH2 0xA29 JUMP JUMPDEST PUSH1 0x6 DUP2 MSTORE PUSH6 0x10213937BBB7 PUSH1 0xD1 SHL PUSH1 0x20 DUP3 ADD MSTORE PUSH2 0x1E0 DUP3 ADD MSTORE PUSH2 0x26F PUSH1 0x40 PUSH2 0xA29 JUMP JUMPDEST PUSH1 0x7 DUP2 MSTORE PUSH7 0x20426C6F6E6465 PUSH1 0xC8 SHL PUSH1 0x20 DUP3 ADD MSTORE PUSH2 0x200 DUP3 ADD MSTORE PUSH2 0x293 PUSH1 0x40 PUSH2 0xA29 JUMP JUMPDEST PUSH1 0x7 DUP2 MSTORE PUSH7 0x1023B4B733B2B9 PUSH1 0xC9 SHL PUSH1 0x20 DUP3 ADD MSTORE PUSH2 0x220 DUP3 ADD MSTORE PUSH2 0x2B7 PUSH1 0x40 PUSH2 0xA29 JUMP JUMPDEST PUSH1 0x6 DUP2 MSTORE PUSH6 0x8131A59DA1D PUSH1 0xD2 SHL PUSH1 0x20 DUP3 ADD MSTORE PUSH2 0x240 DUP3 ADD MSTORE PUSH2 0x2DA PUSH1 0x40 PUSH2 0xA29 JUMP JUMPDEST PUSH1 0x5 DUP2 MSTORE PUSH5 0x204461726B PUSH1 0xD8 SHL PUSH1 0x20 DUP3 ADD MSTORE PUSH2 0x260 DUP3 ADD MSTORE PUSH2 0x2FC PUSH1 0x40 PUSH2 0xA29 JUMP JUMPDEST PUSH1 0x7 DUP2 MSTORE PUSH7 0x20536861646F77 PUSH1 0xC8 SHL PUSH1 0x20 DUP3 ADD MSTORE PUSH2 0x280 DUP3 ADD MSTORE PUSH2 0x320 PUSH1 0x40 PUSH2 0xA29 JUMP JUMPDEST PUSH1 0x5 DUP2 MSTORE PUSH5 0x2046616465 PUSH1 0xD8 SHL PUSH1 0x20 DUP3 ADD MSTORE PUSH2 0x2A0 DUP3 ADD MSTORE PUSH2 0x342 PUSH1 0x40 PUSH2 0xA29 JUMP JUMPDEST PUSH1 0x5 DUP2 MSTORE PUSH5 0x20426C7565 PUSH1 0xD8 SHL PUSH1 0x20 DUP3 ADD MSTORE PUSH2 0x2C0 DUP3 ADD MSTORE PUSH2 0x364 PUSH1 0x40 PUSH2 0xA29 JUMP JUMPDEST PUSH1 0x6 DUP2 MSTORE PUSH6 0x1023B932B2B7 PUSH1 0xD1 SHL PUSH1 0x20 DUP3 ADD MSTORE PUSH2 0x2E0 DUP3 ADD MSTORE PUSH2 0x387 PUSH1 0x40 PUSH2 0xA29 JUMP JUMPDEST PUSH1 0x7 DUP2 MSTORE PUSH7 0x204F72616E6765 PUSH1 0xC8 SHL PUSH1 0x20 DUP3 ADD MSTORE PUSH2 0x300 DUP3 ADD MSTORE PUSH2 0x3AB PUSH1 0x40 PUSH2 0xA29 JUMP JUMPDEST PUSH1 0x5 DUP2 MSTORE PUSH5 0x2050696E6B PUSH1 0xD8 SHL PUSH1 0x20 DUP3 ADD MSTORE PUSH2 0x320 DUP3 ADD MSTORE PUSH2 0x3CD PUSH1 0x40 PUSH2 0xA29 JUMP JUMPDEST PUSH1 0x7 DUP2 MSTORE PUSH7 0x20507572706C65 PUSH1 0xC8 SHL PUSH1 0x20 DUP3 ADD MSTORE PUSH2 0x340 DUP3 ADD MSTORE PUSH2 0x3F1 PUSH1 0x40 PUSH2 0xA29 JUMP JUMPDEST PUSH1 0x4 DUP2 MSTORE PUSH4 0x8149959 PUSH1 0xE2 SHL PUSH1 0x20 DUP3 ADD MSTORE PUSH2 0x360 DUP3 ADD MSTORE PUSH2 0x412 PUSH1 0x40 PUSH2 0xA29 JUMP JUMPDEST PUSH1 0xA DUP2 MSTORE PUSH10 0x2054757271756F697365 PUSH1 0xB0 SHL PUSH1 0x20 DUP3 ADD MSTORE PUSH2 0x380 DUP3 ADD MSTORE PUSH2 0x439 PUSH1 0x40 PUSH2 0xA29 JUMP JUMPDEST PUSH1 0x6 DUP2 MSTORE PUSH6 0x205768697465 PUSH1 0xD0 SHL PUSH1 0x20 DUP3 ADD MSTORE PUSH2 0x3A0 DUP3 ADD MSTORE PUSH2 0x45C PUSH1 0x40 PUSH2 0xA29 JUMP JUMPDEST PUSH1 0x7 DUP2 MSTORE PUSH7 0x2059656C6C6F77 PUSH1 0xC8 SHL PUSH1 0x20 DUP3 ADD MSTORE PUSH2 0x3C0 DUP3 ADD MSTORE PUSH2 0x480 PUSH1 0x40 PUSH2 0xA29 JUMP JUMPDEST PUSH1 0x9 DUP2 MSTORE PUSH9 0x20536B7920426C7565 PUSH1 0xB8 SHL PUSH1 0x20 DUP3 ADD MSTORE PUSH2 0x3E0 DUP3 ADD MSTORE PUSH2 0x4A6 PUSH1 0x40 PUSH2 0xA29 JUMP JUMPDEST PUSH1 0x9 DUP2 MSTORE PUSH9 0x20486F742050696E6B PUSH1 0xB8 SHL PUSH1 0x20 DUP3 ADD MSTORE PUSH2 0x400 DUP3 ADD MSTORE PUSH2 0x4CC PUSH1 0x40 PUSH2 0xA29 JUMP JUMPDEST PUSH1 0xA DUP2 MSTORE PUSH10 0x204E656F6E20426C7565 PUSH1 0xB0 SHL PUSH1 0x20 DUP3 ADD MSTORE PUSH2 0x420 DUP3 ADD MSTORE PUSH2 0x4F3 PUSH1 0x40 PUSH2 0xA29 JUMP JUMPDEST PUSH1 0xB DUP2 MSTORE PUSH11 0x102732B7B71023B932B2B7 PUSH1 0xA9 SHL PUSH1 0x20 DUP3 ADD MSTORE PUSH2 0x440 DUP3 ADD MSTORE PUSH2 0x51B PUSH1 0x40 PUSH2 0xA29 JUMP JUMPDEST PUSH1 0xC DUP2 MSTORE PUSH12 0x204E656F6E20507572706C65 PUSH1 0xA0 SHL PUSH1 0x20 DUP3 ADD MSTORE PUSH2 0x460 DUP3 ADD MSTORE PUSH2 0x544 PUSH1 0x40 PUSH2 0xA29 JUMP JUMPDEST PUSH1 0x9 DUP2 MSTORE PUSH9 0x813995BDB88149959 PUSH1 0xBA SHL PUSH1 0x20 DUP3 ADD MSTORE PUSH2 0x480 DUP3 ADD MSTORE PUSH2 0x56A PUSH1 0x40 PUSH2 0xA29 JUMP JUMPDEST PUSH1 0x5 DUP2 MSTORE PUSH5 0x2047726579 PUSH1 0xD8 SHL PUSH1 0x20 DUP3 ADD MSTORE PUSH2 0x4A0 DUP3 ADD MSTORE PUSH2 0x58C PUSH1 0x40 PUSH2 0xA29 JUMP JUMPDEST PUSH1 0x5 DUP2 MSTORE PUSH5 0x204E617679 PUSH1 0xD8 SHL PUSH1 0x20 DUP3 ADD MSTORE PUSH2 0x4C0 DUP3 ADD MSTORE PUSH2 0x5AE PUSH1 0x40 PUSH2 0xA29 JUMP JUMPDEST PUSH1 0x9 DUP2 MSTORE PUSH9 0x2042757267756E6479 PUSH1 0xB8 SHL PUSH1 0x20 DUP3 ADD MSTORE PUSH2 0x4E0 DUP3 ADD MSTORE PUSH2 0x5D4 PUSH1 0x40 PUSH2 0xA29 JUMP JUMPDEST PUSH1 0x6 DUP2 MSTORE PUSH6 0x204265696765 PUSH1 0xD0 SHL PUSH1 0x20 DUP3 ADD MSTORE PUSH2 0x500 DUP3 ADD MSTORE PUSH2 0x5F7 PUSH1 0x40 PUSH2 0xA29 JUMP JUMPDEST PUSH1 0xA DUP2 MSTORE PUSH10 0x8109B1858DAC812185D PUSH1 0xB2 SHL PUSH1 0x20 DUP3 ADD MSTORE PUSH2 0x520 DUP3 ADD MSTORE PUSH2 0x61E PUSH1 0x40 PUSH2 0xA29 JUMP JUMPDEST PUSH1 0xA DUP2 MSTORE PUSH10 0x8109C9BDDDB8812185D PUSH1 0xB2 SHL PUSH1 0x20 DUP3 ADD MSTORE PUSH2 0x540 DUP3 ADD MSTORE PUSH2 0x645 PUSH1 0x40 PUSH2 0xA29 JUMP JUMPDEST PUSH1 0xB DUP2 MSTORE PUSH11 0x8109B1BDB99194812185D PUSH1 0xAA SHL PUSH1 0x20 DUP3 ADD MSTORE PUSH2 0x560 DUP3 ADD MSTORE PUSH2 0x66D PUSH1 0x40 PUSH2 0xA29 JUMP JUMPDEST PUSH1 0xB DUP2 MSTORE PUSH11 0x811DA5B99D95C8812185D PUSH1 0xAA SHL PUSH1 0x20 DUP3 ADD MSTORE PUSH2 0x580 DUP3 ADD MSTORE PUSH2 0x695 PUSH1 0x40 PUSH2 0xA29 JUMP JUMPDEST PUSH1 0x9 DUP2 MSTORE PUSH9 0x8109B1D594812185D PUSH1 0xBA SHL PUSH1 0x20 DUP3 ADD MSTORE PUSH2 0x5A0 DUP3 ADD MSTORE PUSH2 0x6BB PUSH1 0x40 PUSH2 0xA29 JUMP JUMPDEST PUSH1 0xA DUP2 MSTORE PUSH10 0x811DC99595B8812185D PUSH1 0xB2 SHL PUSH1 0x20 DUP3 ADD MSTORE PUSH2 0x5C0 DUP3 ADD MSTORE PUSH2 0x6E2 PUSH1 0x40 PUSH2 0xA29 JUMP JUMPDEST PUSH1 0xB DUP2 MSTORE PUSH11 0x813DC985B99D94812185D PUSH1 0xAA SHL PUSH1 0x20 DUP3 ADD MSTORE PUSH2 0x5E0 DUP3 ADD MSTORE PUSH2 0x70A PUSH1 0x40 PUSH2 0xA29 JUMP JUMPDEST PUSH1 0x9 DUP2 MSTORE PUSH9 0x8141A5B9AC812185D PUSH1 0xBA SHL PUSH1 0x20 DUP3 ADD MSTORE PUSH2 0x600 DUP3 ADD MSTORE PUSH2 0x730 PUSH1 0x40 PUSH2 0xA29 JUMP JUMPDEST PUSH1 0xB DUP2 MSTORE PUSH11 0x8141D5C9C1B194812185D PUSH1 0xAA SHL PUSH1 0x20 DUP3 ADD MSTORE PUSH2 0x620 DUP3 ADD MSTORE PUSH2 0x758 PUSH1 0x40 PUSH2 0xA29 JUMP JUMPDEST PUSH1 0x8 DUP2 MSTORE PUSH8 0x81499590812185D PUSH1 0xC2 SHL PUSH1 0x20 DUP3 ADD MSTORE PUSH2 0x640 DUP3 ADD MSTORE PUSH2 0x77D PUSH1 0x40 PUSH2 0xA29 JUMP JUMPDEST PUSH1 0xE DUP2 MSTORE PUSH14 0x8151D5C9C5D5BDA5CD94812185D PUSH1 0x92 SHL PUSH1 0x20 DUP3 ADD MSTORE PUSH2 0x660 DUP3 ADD MSTORE PUSH2 0x7A8 PUSH1 0x40 PUSH2 0xA29 JUMP JUMPDEST PUSH1 0xA DUP2 MSTORE PUSH10 0x815DA1A5D194812185D PUSH1 0xB2 SHL PUSH1 0x20 DUP3 ADD MSTORE PUSH2 0x680 DUP3 ADD MSTORE PUSH2 0x7CF PUSH1 0x40 PUSH2 0xA29 JUMP JUMPDEST PUSH1 0xB DUP2 MSTORE PUSH11 0x816595B1B1BDDC812185D PUSH1 0xAA SHL PUSH1 0x20 DUP3 ADD MSTORE PUSH2 0x6A0 DUP3 ADD MSTORE PUSH0 SLOAD PUSH1 0x36 PUSH0 SSTORE DUP1 PUSH1 0x36 LT PUSH2 0x988 JUMPI JUMPDEST POP PUSH0 DUP1 DUP1 MSTORE PUSH0 MLOAD PUSH1 0x20 PUSH2 0x4AF1 PUSH0 CODECOPY PUSH0 MLOAD SWAP1 PUSH0 MSTORE SWAP2 JUMPDEST PUSH1 0x36 DUP3 LT PUSH2 0x85F JUMPI POP POP POP PUSH1 0x80 MSTORE PUSH1 0xA0 MSTORE PUSH1 0x40 MLOAD PUSH2 0x4054 SWAP1 DUP2 PUSH2 0xA9D DUP3 CODECOPY PUSH1 0x80 MLOAD DUP2 DUP2 DUP2 PUSH2 0xB9E ADD MSTORE DUP2 DUP2 PUSH2 0x113F ADD MSTORE DUP2 DUP2 PUSH2 0x11DA ADD MSTORE DUP2 DUP2 PUSH2 0x12BC ADD MSTORE PUSH2 0x184F ADD MSTORE PUSH1 0xA0 MLOAD DUP2 PUSH2 0xB3B ADD MSTORE RETURN JUMPDEST DUP1 MLOAD DUP1 MLOAD SWAP1 PUSH1 0x1 PUSH1 0x1 PUSH1 0x40 SHL SUB DUP3 GT PUSH2 0x974 JUMPI PUSH2 0x87C DUP6 SLOAD PUSH2 0xA4E JUMP JUMPDEST PUSH1 0x1F DUP2 GT PUSH2 0x939 JUMPI JUMPDEST POP PUSH1 0x20 SWAP1 PUSH1 0x1F DUP4 GT PUSH1 0x1 EQ PUSH2 0x8D0 JUMPI SWAP3 DUP3 PUSH1 0x1 SWAP5 SWAP4 PUSH1 0x20 SWAP4 DUP7 SWAP6 PUSH0 SWAP3 PUSH2 0x8C5 JUMPI JUMPDEST POP POP PUSH0 NOT PUSH1 0x3 DUP4 SWAP1 SHL SHR NOT AND SWAP1 DUP5 SHL OR DUP7 SSTORE JUMPDEST ADD SWAP4 ADD SWAP2 ADD SWAP1 SWAP2 PUSH2 0x811 JUMP JUMPDEST ADD MLOAD SWAP1 POP PUSH0 DUP1 PUSH2 0x8A6 JUMP JUMPDEST SWAP1 PUSH1 0x1F NOT DUP4 AND SWAP2 DUP7 PUSH0 MSTORE DUP2 PUSH0 KECCAK256 SWAP3 PUSH0 JUMPDEST DUP2 DUP2 LT PUSH2 0x921 JUMPI POP SWAP4 PUSH1 0x20 SWAP4 PUSH1 0x1 SWAP7 SWAP4 DUP8 SWAP7 SWAP4 DUP4 DUP9 SWAP6 LT PUSH2 0x909 JUMPI JUMPDEST POP POP POP DUP2 SHL ADD DUP7 SSTORE PUSH2 0x8B9 JUMP JUMPDEST ADD MLOAD PUSH0 NOT PUSH1 0xF8 DUP5 PUSH1 0x3 SHL AND SHR NOT AND SWAP1 SSTORE PUSH0 DUP1 DUP1 PUSH2 0x8FC JUMP JUMPDEST SWAP3 SWAP4 PUSH1 0x20 PUSH1 0x1 DUP2 SWAP3 DUP8 DUP7 ADD MLOAD DUP2 SSTORE ADD SWAP6 ADD SWAP4 ADD PUSH2 0x8E0 JUMP JUMPDEST PUSH2 0x964 SWAP1 DUP7 PUSH0 MSTORE PUSH1 0x20 PUSH0 KECCAK256 PUSH1 0x1F DUP6 ADD PUSH1 0x5 SHR DUP2 ADD SWAP2 PUSH1 0x20 DUP7 LT PUSH2 0x96A JUMPI JUMPDEST PUSH1 0x1F ADD PUSH1 0x5 SHR ADD SWAP1 PUSH2 0xA86 JUMP JUMPDEST PUSH0 PUSH2 0x885 JUMP JUMPDEST SWAP1 SWAP2 POP DUP2 SWAP1 PUSH2 0x957 JUMP JUMPDEST PUSH4 0x4E487B71 PUSH1 0xE0 SHL PUSH0 MSTORE PUSH1 0x41 PUSH1 0x4 MSTORE PUSH1 0x24 PUSH0 REVERT JUMPDEST PUSH0 DUP1 MSTORE PUSH0 MLOAD PUSH1 0x20 PUSH2 0x4AF1 PUSH0 CODECOPY PUSH0 MLOAD SWAP1 PUSH0 MSTORE ADD PUSH32 0x290DECD9548B62A8D60345A988386FC84BA6BC95484008F6362F93160EF3E599 JUMPDEST DUP2 DUP2 LT PUSH2 0x9C9 JUMPI POP PUSH2 0x7FC JUMP JUMPDEST DUP1 PUSH2 0x9D6 PUSH1 0x1 SWAP3 SLOAD PUSH2 0xA4E JUMP JUMPDEST DUP1 PUSH2 0x9E3 JUMPI JUMPDEST POP ADD PUSH2 0x9BC JUMP JUMPDEST PUSH1 0x1F DUP2 GT DUP4 EQ PUSH2 0x9F8 JUMPI POP PUSH0 DUP2 SSTORE JUMPDEST PUSH0 PUSH2 0x9DC JUMP JUMPDEST PUSH2 0xA14 SWAP1 DUP3 PUSH0 MSTORE DUP4 PUSH1 0x1F PUSH1 0x20 PUSH0 KECCAK256 SWAP3 ADD PUSH1 0x5 SHR DUP3 ADD SWAP2 ADD PUSH2 0xA86 JUMP JUMPDEST DUP1 PUSH0 MSTORE PUSH0 PUSH1 0x20 DUP2 KECCAK256 DUP2 DUP4 SSTORE SSTORE PUSH2 0x9F2 JUMP JUMPDEST PUSH0 DUP1 REVERT JUMPDEST PUSH1 0x40 MLOAD SWAP2 SWAP1 PUSH1 0x1F ADD PUSH1 0x1F NOT AND DUP3 ADD PUSH1 0x1 PUSH1 0x1 PUSH1 0x40 SHL SUB DUP2 GT DUP4 DUP3 LT OR PUSH2 0x974 JUMPI PUSH1 0x40 MSTORE JUMP JUMPDEST SWAP1 PUSH1 0x1 DUP3 DUP2 SHR SWAP3 AND DUP1 ISZERO PUSH2 0xA7C JUMPI JUMPDEST PUSH1 0x20 DUP4 LT EQ PUSH2 0xA68 JUMPI JUMP JUMPDEST PUSH4 0x4E487B71 PUSH1 0xE0 SHL PUSH0 MSTORE PUSH1 0x22 PUSH1 0x4 MSTORE PUSH1 0x24 PUSH0 REVERT JUMPDEST SWAP2 PUSH1 0x7F AND SWAP2 PUSH2 0xA5D JUMP JUMPDEST DUP2 DUP2 LT PUSH2 0xA91 JUMPI POP POP JUMP JUMPDEST PUSH0 DUP2 SSTORE PUSH1 0x1 ADD PUSH2 0xA86 JUMP INVALID PUSH1 0x80 PUSH1 0x40 MSTORE PUSH1 0x4 CALLDATASIZE LT ISZERO PUSH2 0x11 JUMPI PUSH0 DUP1 REVERT JUMPDEST PUSH0 CALLDATALOAD PUSH1 0xE0 SHR DUP1 PUSH4 0x41FCB160 EQ PUSH2 0x34 JUMPI PUSH4 0x74C2B451 EQ PUSH2 0x2F JUMPI PUSH0 DUP1 REVERT JUMPDEST PUSH2 0x19B JUMP JUMPDEST CALLVALUE PUSH2 0x98 JUMPI PUSH1 0x60 CALLDATASIZE PUSH1 0x3 NOT ADD SLT PUSH2 0x98 JUMPI PUSH2 0x86 PUSH2 0x94 PUSH2 0x6F PUSH1 0x4 CALLDATALOAD PUSH2 0x5A DUP2 PUSH2 0x9C JUMP JUMPDEST PUSH1 0x24 CALLDATALOAD PUSH2 0x66 DUP2 PUSH2 0x9C JUMP JUMPDEST PUSH1 0x44 CALLDATALOAD SWAP2 PUSH2 0xAA4 JUMP JUMPDEST PUSH1 0x40 SWAP3 SWAP2 SWAP3 MLOAD SWAP4 DUP5 SWAP4 PUSH1 0x40 DUP6 MSTORE PUSH1 0x40 DUP6 ADD SWAP1 PUSH2 0xA8 JUMP JUMPDEST SWAP1 DUP4 DUP3 SUB PUSH1 0x20 DUP6 ADD MSTORE PUSH2 0xA8 JUMP JUMPDEST SUB SWAP1 RETURN JUMPDEST PUSH0 DUP1 REVERT JUMPDEST PUSH2 0xFFFF DUP2 AND SUB PUSH2 0x98 JUMPI JUMP JUMPDEST DUP1 MLOAD DUP1 DUP4 MSTORE PUSH1 0x20 SWAP3 SWAP2 DUP2 SWAP1 DUP5 ADD DUP5 DUP5 ADD MCOPY PUSH0 DUP3 DUP3 ADD DUP5 ADD MSTORE PUSH1 0x1F ADD PUSH1 0x1F NOT AND ADD ADD SWAP1 JUMP JUMPDEST PUSH4 0x4E487B71 PUSH1 0xE0 SHL PUSH0 MSTORE PUSH1 0x41 PUSH1 0x4 MSTORE PUSH1 0x24 PUSH0 REVERT JUMPDEST PUSH1 0x40 DUP2 ADD SWAP1 DUP2 LT PUSH1 0x1 PUSH1 0x1 PUSH1 0x40 SHL SUB DUP3 GT OR PUSH2 0xFB JUMPI PUSH1 0x40 MSTORE JUMP JUMPDEST PUSH2 0xCC JUMP JUMPDEST PUSH1 0x80 DUP2 ADD SWAP1 DUP2 LT PUSH1 0x1 PUSH1 0x1 PUSH1 0x40 SHL SUB DUP3 GT OR PUSH2 0xFB JUMPI PUSH1 0x40 MSTORE JUMP JUMPDEST SWAP1 PUSH1 0x1F DUP1 NOT SWAP2 ADD AND DUP2 ADD SWAP1 DUP2 LT PUSH1 0x1 PUSH1 0x1 PUSH1 0x40 SHL SUB DUP3 GT OR PUSH2 0xFB JUMPI PUSH1 0x40 MSTORE JUMP JUMPDEST PUSH1 0x40 MLOAD SWAP1 PUSH2 0x14B PUSH1 0xE0 DUP4 PUSH2 0x11B JUMP JUMPDEST JUMP JUMPDEST PUSH1 0x40 MLOAD SWAP1 PUSH2 0x14B PUSH1 0xA0 DUP4 PUSH2 0x11B JUMP JUMPDEST PUSH1 0x40 MLOAD SWAP1 PUSH2 0x14B PUSH2 0x3E0 DUP4 PUSH2 0x11B JUMP JUMPDEST PUSH1 0x1 PUSH1 0x1 PUSH1 0x40 SHL SUB DUP2 GT PUSH2 0xFB JUMPI PUSH1 0x1F ADD PUSH1 0x1F NOT AND PUSH1 0x20 ADD SWAP1 JUMP JUMPDEST SWAP1 PUSH1 0x20 PUSH2 0x198 SWAP3 DUP2 DUP2 MSTORE ADD SWAP1 PUSH2 0xA8 JUMP JUMPDEST SWAP1 JUMP JUMPDEST CALLVALUE PUSH2 0x98 JUMPI PUSH1 0x20 CALLDATASIZE PUSH1 0x3 NOT ADD SLT PUSH2 0x98 JUMPI PUSH1 0x4 CALLDATALOAD PUSH1 0x1 PUSH1 0x1 PUSH1 0x40 SHL SUB DUP2 GT PUSH2 0x98 JUMPI CALLDATASIZE PUSH1 0x23 DUP3 ADD SLT ISZERO PUSH2 0x98 JUMPI DUP1 PUSH1 0x4 ADD CALLDATALOAD SWAP1 PUSH2 0x1D7 DUP3 PUSH2 0x16C JUMP JUMPDEST SWAP2 PUSH2 0x1E5 PUSH1 0x40 MLOAD SWAP4 DUP5 PUSH2 0x11B JUMP JUMPDEST DUP1 DUP4 MSTORE CALLDATASIZE PUSH1 0x24 DUP3 DUP5 ADD ADD GT PUSH2 0x98 JUMPI PUSH0 SWAP3 DUP2 PUSH1 0x24 PUSH1 0x20 SWAP5 ADD DUP5 DUP4 ADD CALLDATACOPY ADD ADD MSTORE PUSH2 0x94 PUSH2 0x20F PUSH2 0xC22 JUMP JUMPDEST PUSH1 0x40 MLOAD SWAP2 DUP3 SWAP2 DUP3 PUSH2 0x187 JUMP JUMPDEST PUSH1 0x1 PUSH1 0x1 PUSH1 0x40 SHL SUB DUP2 GT PUSH2 0xFB JUMPI PUSH1 0x5 SHL PUSH1 0x20 ADD SWAP1 JUMP JUMPDEST DUP2 PUSH1 0x1F DUP3 ADD SLT ISZERO PUSH2 0x98 JUMPI DUP1 MLOAD SWAP1 PUSH2 0x249 DUP3 PUSH2 0x16C JUMP JUMPDEST SWAP3 PUSH2 0x257 PUSH1 0x40 MLOAD SWAP5 DUP6 PUSH2 0x11B JUMP JUMPDEST DUP3 DUP5 MSTORE PUSH1 0x20 DUP4 DUP4 ADD ADD GT PUSH2 0x98 JUMPI DUP2 PUSH0 SWAP3 PUSH1 0x20 DUP1 SWAP4 ADD DUP4 DUP7 ADD MCOPY DUP4 ADD ADD MSTORE SWAP1 JUMP JUMPDEST MLOAD SWAP1 PUSH4 0xFFFFFFFF DUP3 AND DUP3 SUB PUSH2 0x98 JUMPI JUMP JUMPDEST SWAP1 DUP1 PUSH1 0x1F DUP4 ADD SLT ISZERO PUSH2 0x98 JUMPI DUP2 MLOAD PUSH2 0x2A0 DUP2 PUSH2 0x21B JUMP JUMPDEST SWAP3 PUSH2 0x2AE PUSH1 0x40 MLOAD SWAP5 DUP6 PUSH2 0x11B JUMP JUMPDEST DUP2 DUP5 MSTORE PUSH1 0x20 DUP1 DUP6 ADD SWAP3 PUSH1 0x5 SHL DUP3 ADD ADD SWAP3 DUP4 GT PUSH2 0x98 JUMPI PUSH1 0x20 ADD SWAP1 JUMPDEST DUP3 DUP3 LT PUSH2 0x2D6 JUMPI POP POP POP SWAP1 JUMP JUMPDEST PUSH1 0x20 DUP1 SWAP2 PUSH2 0x2E3 DUP5 PUSH2 0x278 JUMP JUMPDEST DUP2 MSTORE ADD SWAP2 ADD SWAP1 PUSH2 0x2C9 JUMP JUMPDEST MLOAD SWAP1 PUSH1 0xFF DUP3 AND DUP3 SUB PUSH2 0x98 JUMPI JUMP JUMPDEST SWAP1 DUP1 PUSH1 0x1F DUP4 ADD SLT ISZERO PUSH2 0x98 JUMPI DUP2 MLOAD SWAP2 PUSH2 0x314 DUP4 PUSH2 0x21B JUMP JUMPDEST SWAP3 PUSH2 0x322 PUSH1 0x40 MLOAD SWAP5 DUP6 PUSH2 0x11B JUMP JUMPDEST DUP1 DUP5 MSTORE PUSH1 0x20 DUP1 DUP6 ADD SWAP2 PUSH1 0x5 SHL DUP4 ADD ADD SWAP2 DUP4 DUP4 GT PUSH2 0x98 JUMPI PUSH1 0x20 DUP2 ADD SWAP2 JUMPDEST DUP4 DUP4 LT PUSH2 0x34E JUMPI POP POP POP POP POP SWAP1 JUMP JUMPDEST DUP3 MLOAD PUSH1 0x1 PUSH1 0x1 PUSH1 0x40 SHL SUB DUP2 GT PUSH2 0x98 JUMPI DUP3 ADD SWAP1 PUSH1 0xE0 DUP3 DUP8 SUB PUSH1 0x1F NOT ADD SLT PUSH2 0x98 JUMPI PUSH2 0x377 PUSH2 0x13C JUMP JUMPDEST SWAP1 PUSH1 0x20 DUP4 ADD MLOAD PUSH1 0x1 PUSH1 0x1 PUSH1 0x40 SHL SUB DUP2 GT PUSH2 0x98 JUMPI DUP8 PUSH1 0x20 PUSH2 0x39A SWAP3 DUP7 ADD ADD PUSH2 0x232 JUMP JUMPDEST DUP3 MSTORE PUSH2 0x3A8 PUSH1 0x40 DUP5 ADD PUSH2 0x2EE JUMP JUMPDEST PUSH1 0x20 DUP4 ADD MSTORE PUSH2 0x3B9 PUSH1 0x60 DUP5 ADD PUSH2 0x2EE JUMP JUMPDEST PUSH1 0x40 DUP4 ADD MSTORE PUSH2 0x3CA PUSH1 0x80 DUP5 ADD PUSH2 0x2EE JUMP JUMPDEST PUSH1 0x60 DUP4 ADD MSTORE PUSH2 0x3DB PUSH1 0xA0 DUP5 ADD PUSH2 0x2EE JUMP JUMPDEST PUSH1 0x80 DUP4 ADD MSTORE PUSH2 0x3EC PUSH1 0xC0 DUP5 ADD PUSH2 0x2EE JUMP JUMPDEST PUSH1 0xA0 DUP4 ADD MSTORE PUSH1 0xE0 DUP4 ADD MLOAD SWAP2 PUSH1 0x1 PUSH1 0x1 PUSH1 0x40 SHL SUB DUP4 GT PUSH2 0x98 JUMPI PUSH2 0x417 DUP9 PUSH1 0x20 DUP1 SWAP7 SWAP6 DUP2 SWAP7 ADD ADD PUSH2 0x232 JUMP JUMPDEST PUSH1 0xC0 DUP3 ADD MSTORE DUP2 MSTORE ADD SWAP3 ADD SWAP2 PUSH2 0x33F JUMP JUMPDEST SWAP2 SWAP1 SWAP2 PUSH1 0xA0 DUP2 DUP5 SUB SLT PUSH2 0x98 JUMPI PUSH2 0x43C PUSH2 0x14D JUMP JUMPDEST SWAP3 DUP2 MLOAD DUP5 MSTORE PUSH1 0x20 DUP3 ADD MLOAD PUSH1 0x1 PUSH1 0x1 PUSH1 0x40 SHL SUB DUP2 GT PUSH2 0x98 JUMPI DUP2 PUSH2 0x460 SWAP2 DUP5 ADD PUSH2 0x232 JUMP JUMPDEST PUSH1 0x20 DUP6 ADD MSTORE PUSH1 0x40 DUP3 ADD MLOAD PUSH1 0x1 PUSH1 0x1 PUSH1 0x40 SHL SUB DUP2 GT PUSH2 0x98 JUMPI DUP2 PUSH2 0x484 SWAP2 DUP5 ADD PUSH2 0x289 JUMP JUMPDEST PUSH1 0x40 DUP6 ADD MSTORE PUSH1 0x60 DUP3 ADD MLOAD SWAP2 PUSH1 0x1 PUSH1 0x1 PUSH1 0x40 SHL SUB DUP4 GT PUSH2 0x98 JUMPI PUSH2 0x4AE PUSH1 0x80 SWAP3 PUSH2 0x4B9 SWAP5 DUP4 ADD PUSH2 0x2FC JUMP JUMPDEST PUSH1 0x60 DUP7 ADD MSTORE ADD PUSH2 0x2EE JUMP JUMPDEST PUSH1 0x80 DUP4 ADD MSTORE JUMP JUMPDEST MLOAD SWAP1 DUP2 ISZERO ISZERO DUP3 SUB PUSH2 0x98 JUMPI JUMP JUMPDEST SWAP1 DUP1 PUSH1 0x1F DUP4 ADD SLT ISZERO PUSH2 0x98 JUMPI DUP2 MLOAD PUSH2 0x4E4 DUP2 PUSH2 0x21B JUMP JUMPDEST SWAP3 PUSH2 0x4F2 PUSH1 0x40 MLOAD SWAP5 DUP6 PUSH2 0x11B JUMP JUMPDEST DUP2 DUP5 MSTORE PUSH1 0x20 DUP1 DUP6 ADD SWAP3 PUSH1 0x5 SHL DUP3 ADD ADD SWAP3 DUP4 GT PUSH2 0x98 JUMPI PUSH1 0x20 ADD SWAP1 JUMPDEST DUP3 DUP3 LT PUSH2 0x51A JUMPI POP POP POP SWAP1 JUMP JUMPDEST PUSH1 0x20 DUP1 SWAP2 PUSH2 0x527 DUP5 PUSH2 0x4C0 JUMP JUMPDEST DUP2 MSTORE ADD SWAP2 ADD SWAP1 PUSH2 0x50D JUMP JUMPDEST PUSH1 0x20 DUP2 DUP4 SUB SLT PUSH2 0x98 JUMPI DUP1 MLOAD SWAP1 PUSH1 0x1 PUSH1 0x1 PUSH1 0x40 SHL SUB DUP3 GT PUSH2 0x98 JUMPI ADD PUSH1 0x40 DUP2 DUP4 SUB SLT PUSH2 0x98 JUMPI PUSH1 0x40 MLOAD SWAP2 PUSH2 0x565 DUP4 PUSH2 0xE0 JUMP JUMPDEST DUP2 MLOAD PUSH1 0x1 PUSH1 0x1 PUSH1 0x40 SHL SUB DUP2 GT PUSH2 0x98 JUMPI DUP3 ADD DUP2 PUSH1 0x1F DUP3 ADD SLT ISZERO PUSH2 0x98 JUMPI DUP1 MLOAD PUSH2 0x58D DUP2 PUSH2 0x21B JUMP JUMPDEST SWAP2 PUSH2 0x59B PUSH1 0x40 MLOAD SWAP4 DUP5 PUSH2 0x11B JUMP JUMPDEST DUP2 DUP4 MSTORE PUSH1 0x20 DUP1 DUP5 ADD SWAP3 PUSH1 0x5 SHL DUP3 ADD ADD SWAP2 DUP5 DUP4 GT PUSH2 0x98 JUMPI PUSH1 0x20 DUP3 ADD SWAP1 JUMPDEST DUP4 DUP3 LT PUSH2 0x5EA JUMPI POP POP POP POP DUP4 MSTORE PUSH1 0x20 DUP3 ADD MLOAD PUSH1 0x1 PUSH1 0x1 PUSH1 0x40 SHL SUB DUP2 GT PUSH2 0x98 JUMPI PUSH2 0x5E2 SWAP3 ADD PUSH2 0x4CD JUMP JUMPDEST PUSH1 0x20 DUP3 ADD MSTORE SWAP1 JUMP JUMPDEST DUP2 MLOAD PUSH1 0x1 PUSH1 0x1 PUSH1 0x40 SHL SUB DUP2 GT PUSH2 0x98 JUMPI PUSH1 0x20 SWAP2 PUSH2 0x60C DUP9 DUP5 DUP1 SWAP5 DUP9 ADD ADD PUSH2 0x427 JUMP JUMPDEST DUP2 MSTORE ADD SWAP2 ADD SWAP1 PUSH2 0x5B8 JUMP JUMPDEST PUSH1 0x40 MLOAD RETURNDATASIZE PUSH0 DUP3 RETURNDATACOPY RETURNDATASIZE SWAP1 REVERT JUMPDEST MLOAD SWAP1 PUSH1 0x1B DUP3 LT ISZERO PUSH2 0x98 JUMPI JUMP JUMPDEST DUP2 PUSH1 0x1F DUP3 ADD SLT ISZERO PUSH2 0x98 JUMPI DUP1 MLOAD SWAP1 PUSH2 0x646 DUP3 PUSH2 0x21B JUMP JUMPDEST SWAP3 PUSH2 0x654 PUSH1 0x40 MLOAD SWAP5 DUP6 PUSH2 0x11B JUMP JUMPDEST DUP3 DUP5 MSTORE PUSH1 0x20 PUSH1 0xA0 DUP2 DUP7 ADD SWAP5 MUL DUP4 ADD ADD SWAP2 DUP2 DUP4 GT PUSH2 0x98 JUMPI PUSH1 0x20 ADD SWAP3 JUMPDEST DUP3 DUP5 LT PUSH2 0x67E JUMPI POP POP POP POP SWAP1 JUMP JUMPDEST DUP4 DUP3 SUB PUSH1 0xA0 DUP2 SLT PUSH2 0x98 JUMPI PUSH1 0x40 DUP1 MLOAD SWAP2 PUSH2 0x697 DUP4 PUSH2 0x100 JUMP JUMPDEST PUSH2 0x6A0 DUP8 PUSH2 0x622 JUMP JUMPDEST DUP4 MSTORE PUSH2 0x6AE PUSH1 0x20 DUP9 ADD PUSH2 0x2EE JUMP JUMPDEST PUSH1 0x20 DUP5 ADD MSTORE PUSH2 0x6BE DUP3 DUP9 ADD PUSH2 0x4C0 JUMP JUMPDEST DUP4 DUP4 ADD MSTORE PUSH1 0x5F NOT ADD SLT PUSH2 0x98 JUMPI PUSH1 0xA0 SWAP2 PUSH1 0x20 SWAP2 PUSH1 0x40 MLOAD PUSH2 0x6DD DUP2 PUSH2 0xE0 JUMP JUMPDEST PUSH2 0x6E9 PUSH1 0x60 DUP10 ADD PUSH2 0x622 JUMP JUMPDEST DUP2 MSTORE PUSH2 0x6F7 PUSH1 0x80 DUP10 ADD PUSH2 0x2EE JUMP JUMPDEST DUP5 DUP3 ADD MSTORE PUSH1 0x60 DUP3 ADD MSTORE DUP2 MSTORE ADD SWAP4 ADD SWAP3 PUSH2 0x670 JUMP JUMPDEST MLOAD SWAP1 PUSH2 0x14B DUP3 PUSH2 0x9C JUMP JUMPDEST MLOAD SWAP1 PUSH1 0x2 DUP3 LT ISZERO PUSH2 0x98 JUMPI JUMP JUMPDEST MLOAD SWAP1 PUSH1 0x5 DUP3 LT ISZERO PUSH2 0x98 JUMPI JUMP JUMPDEST MLOAD SWAP1 PUSH1 0x1D DUP3 LT ISZERO PUSH2 0x98 JUMPI JUMP JUMPDEST MLOAD SWAP1 PUSH1 0x17 DUP3 LT ISZERO PUSH2 0x98 JUMPI JUMP JUMPDEST MLOAD SWAP1 PUSH1 0x14 DUP3 LT ISZERO PUSH2 0x98 JUMPI JUMP JUMPDEST MLOAD SWAP1 PUSH1 0x9 DUP3 LT ISZERO PUSH2 0x98 JUMPI JUMP JUMPDEST MLOAD SWAP1 PUSH1 0x4 DUP3 LT ISZERO PUSH2 0x98 JUMPI JUMP JUMPDEST MLOAD SWAP1 PUSH1 0x58 DUP3 LT ISZERO PUSH2 0x98 JUMPI JUMP JUMPDEST MLOAD SWAP1 PUSH1 0x16 DUP3 LT ISZERO PUSH2 0x98 JUMPI JUMP JUMPDEST MLOAD SWAP1 PUSH1 0xD4 DUP3 LT ISZERO PUSH2 0x98 JUMPI JUMP JUMPDEST MLOAD SWAP1 PUSH1 0x6A DUP3 LT ISZERO PUSH2 0x98 JUMPI JUMP JUMPDEST MLOAD SWAP1 PUSH1 0xA9 DUP3 LT ISZERO PUSH2 0x98 JUMPI JUMP JUMPDEST MLOAD SWAP1 PUSH1 0x80 DUP3 LT ISZERO PUSH2 0x98 JUMPI JUMP JUMPDEST MLOAD SWAP1 PUSH1 0x1A DUP3 LT ISZERO PUSH2 0x98 JUMPI JUMP JUMPDEST MLOAD SWAP1 PUSH1 0x1F DUP3 LT ISZERO PUSH2 0x98 JUMPI JUMP JUMPDEST MLOAD SWAP1 PUSH1 0x13 DUP3 LT ISZERO PUSH2 0x98 JUMPI JUMP JUMPDEST MLOAD SWAP1 PUSH1 0x15 DUP3 LT ISZERO PUSH2 0x98 JUMPI JUMP JUMPDEST MLOAD SWAP1 PUSH1 0xC3 DUP3 LT ISZERO PUSH2 0x98 JUMPI JUMP JUMPDEST MLOAD SWAP1 PUSH1 0x85 DUP3 LT ISZERO PUSH2 0x98 JUMPI JUMP JUMPDEST MLOAD SWAP1 PUSH1 0x83 DUP3 LT ISZERO PUSH2 0x98 JUMPI JUMP JUMPDEST MLOAD SWAP1 PUSH1 0x7A DUP3 LT ISZERO PUSH2 0x98 JUMPI JUMP JUMPDEST PUSH1 0x20 DUP2 DUP4 SUB SLT PUSH2 0x98 JUMPI DUP1 MLOAD SWAP1 PUSH1 0x1 PUSH1 0x1 PUSH1 0x40 SHL SUB DUP3 GT PUSH2 0x98 JUMPI ADD PUSH2 0x3E0 DUP2 DUP4 SUB SLT PUSH2 0x98 JUMPI PUSH2 0x856 PUSH2 0x15C JUMP JUMPDEST SWAP2 DUP2 MLOAD SWAP2 PUSH1 0x1 PUSH1 0x1 PUSH1 0x40 SHL SUB DUP4 GT PUSH2 0x98 JUMPI PUSH2 0x87A PUSH2 0x3C0 SWAP3 PUSH2 0xA9B SWAP5 DUP4 ADD PUSH2 0x62F JUMP JUMPDEST DUP5 MSTORE PUSH2 0x888 PUSH1 0x20 DUP3 ADD PUSH2 0x2EE JUMP JUMPDEST PUSH1 0x20 DUP6 ADD MSTORE PUSH2 0x899 PUSH1 0x40 DUP3 ADD PUSH2 0x70B JUMP JUMPDEST PUSH1 0x40 DUP6 ADD MSTORE PUSH2 0x8AA PUSH1 0x60 DUP3 ADD PUSH2 0x70B JUMP JUMPDEST PUSH1 0x60 DUP6 ADD MSTORE PUSH2 0x8BB PUSH1 0x80 DUP3 ADD PUSH2 0x278 JUMP JUMPDEST PUSH1 0x80 DUP6 ADD MSTORE PUSH2 0x8CC PUSH1 0xA0 DUP3 ADD PUSH2 0x716 JUMP JUMPDEST PUSH1 0xA0 DUP6 ADD MSTORE PUSH2 0x8DD PUSH1 0xC0 DUP3 ADD PUSH2 0x723 JUMP JUMPDEST PUSH1 0xC0 DUP6 ADD MSTORE PUSH2 0x8EE PUSH1 0xE0 DUP3 ADD PUSH2 0x730 JUMP JUMPDEST PUSH1 0xE0 DUP6 ADD MSTORE PUSH2 0x900 PUSH2 0x100 DUP3 ADD PUSH2 0x73D JUMP JUMPDEST PUSH2 0x100 DUP6 ADD MSTORE PUSH2 0x913 PUSH2 0x120 DUP3 ADD PUSH2 0x74A JUMP JUMPDEST PUSH2 0x120 DUP6 ADD MSTORE PUSH2 0x926 PUSH2 0x140 DUP3 ADD PUSH2 0x757 JUMP JUMPDEST PUSH2 0x140 DUP6 ADD MSTORE PUSH2 0x939 PUSH2 0x160 DUP3 ADD PUSH2 0x757 JUMP JUMPDEST PUSH2 0x160 DUP6 ADD MSTORE PUSH2 0x94C PUSH2 0x180 DUP3 ADD PUSH2 0x764 JUMP JUMPDEST PUSH2 0x180 DUP6 ADD MSTORE PUSH2 0x95F PUSH2 0x1A0 DUP3 ADD PUSH2 0x771 JUMP JUMPDEST PUSH2 0x1A0 DUP6 ADD MSTORE PUSH2 0x972 PUSH2 0x1C0 DUP3 ADD PUSH2 0x77E JUMP JUMPDEST PUSH2 0x1C0 DUP6 ADD MSTORE PUSH2 0x985 PUSH2 0x1E0 DUP3 ADD PUSH2 0x78B JUMP JUMPDEST PUSH2 0x1E0 DUP6 ADD MSTORE PUSH2 0x998 PUSH2 0x200 DUP3 ADD PUSH2 0x798 JUMP JUMPDEST PUSH2 0x200 DUP6 ADD MSTORE PUSH2 0x9AB PUSH2 0x220 DUP3 ADD PUSH2 0x7A5 JUMP JUMPDEST PUSH2 0x220 DUP6 ADD MSTORE PUSH2 0x9BE PUSH2 0x240 DUP3 ADD PUSH2 0x7B2 JUMP JUMPDEST PUSH2 0x240 DUP6 ADD MSTORE PUSH2 0x9D1 PUSH2 0x260 DUP3 ADD PUSH2 0x7BF JUMP JUMPDEST PUSH2 0x260 DUP6 ADD MSTORE PUSH2 0x9E4 PUSH2 0x280 DUP3 ADD PUSH2 0x7CC JUMP JUMPDEST PUSH2 0x280 DUP6 ADD MSTORE PUSH2 0x9F7 PUSH2 0x2A0 DUP3 ADD PUSH2 0x7D9 JUMP JUMPDEST PUSH2 0x2A0 DUP6 ADD MSTORE PUSH2 0xA0A PUSH2 0x2C0 DUP3 ADD PUSH2 0x757 JUMP JUMPDEST PUSH2 0x2C0 DUP6 ADD MSTORE PUSH2 0xA1D PUSH2 0x2E0 DUP3 ADD PUSH2 0x757 JUMP JUMPDEST PUSH2 0x2E0 DUP6 ADD MSTORE PUSH2 0xA30 PUSH2 0x300 DUP3 ADD PUSH2 0x764 JUMP JUMPDEST PUSH2 0x300 DUP6 ADD MSTORE PUSH2 0xA43 PUSH2 0x320 DUP3 ADD PUSH2 0x7E6 JUMP JUMPDEST PUSH2 0x320 DUP6 ADD MSTORE PUSH2 0xA56 PUSH2 0x340 DUP3 ADD PUSH2 0x7F3 JUMP JUMPDEST PUSH2 0x340 DUP6 ADD MSTORE PUSH2 0xA69 PUSH2 0x360 DUP3 ADD PUSH2 0x800 JUMP JUMPDEST PUSH2 0x360 DUP6 ADD MSTORE PUSH2 0xA7C PUSH2 0x380 DUP3 ADD PUSH2 0x80D JUMP JUMPDEST PUSH2 0x380 DUP6 ADD MSTORE PUSH2 0xA8F PUSH2 0x3A0 DUP3 ADD PUSH2 0x81A JUMP JUMPDEST PUSH2 0x3A0 DUP6 ADD MSTORE ADD PUSH2 0x73D JUMP JUMPDEST PUSH2 0x3C0 DUP3 ADD MSTORE SWAP1 JUMP JUMPDEST SWAP2 SWAP1 SWAP2 PUSH2 0xAC3 PUSH1 0x20 PUSH1 0x40 MLOAD PUSH2 0x9CA0 DUP2 ADD PUSH1 0x40 MSTORE PUSH2 0x9C80 DUP2 MSTORE ADD PUSH0 DUP2 MSTORE SWAP1 JUMP JUMPDEST PUSH1 0x40 MLOAD PUSH4 0x68B0B907 PUSH1 0xE0 SHL DUP2 MSTORE PUSH1 0x1B PUSH1 0x4 DUP3 ADD MSTORE SWAP1 SWAP4 PUSH0 DUP3 PUSH1 0x24 DUP2 PUSH20 0x0 GAS DELEGATECALL SWAP2 DUP3 ISZERO PUSH2 0xBF9 JUMPI PUSH0 SWAP3 PUSH2 0xBFE JUMPI JUMPDEST POP PUSH1 0x40 MLOAD PUSH4 0x7E9065B PUSH1 0xE5 SHL DUP2 MSTORE PUSH2 0xFFFF SWAP4 DUP5 AND PUSH1 0x4 DUP3 ADD MSTORE SWAP3 AND PUSH1 0x24 DUP4 ADD MSTORE PUSH1 0x44 DUP3 ADD SWAP3 SWAP1 SWAP3 MSTORE SWAP1 PUSH0 DUP3 PUSH1 0x64 DUP2 PUSH1 0x1 PUSH1 0x1 PUSH1 0xA0 SHL SUB PUSH32 0x0 AND GAS STATICCALL SWAP2 DUP3 ISZERO PUSH2 0xBF9 JUMPI PUSH0 SWAP3 PUSH2 0xBD5 JUMPI JUMPDEST POP PUSH2 0xB76 DUP3 DUP3 PUSH2 0x10F9 JUMP JUMPDEST PUSH2 0xB8D PUSH2 0xB88 PUSH1 0x60 DUP5 ADD MLOAD PUSH2 0xFFFF AND SWAP1 JUMP JUMPDEST PUSH2 0x14C7 JUMP JUMPDEST PUSH2 0xBCB JUMPI SWAP1 DUP2 PUSH2 0xBC2 DUP3 PUSH2 0xBC7 SWAP5 DUP7 PUSH32 0x0 PUSH2 0x1A73 JUMP JUMPDEST PUSH2 0x1EBD JUMP JUMPDEST SWAP1 SWAP2 JUMP JUMPDEST SWAP1 PUSH2 0xBC7 SWAP3 PUSH2 0x1809 JUMP JUMPDEST PUSH2 0xBF2 SWAP2 SWAP3 POP RETURNDATASIZE DUP1 PUSH0 DUP4 RETURNDATACOPY PUSH2 0xBEA DUP2 DUP4 PUSH2 0x11B JUMP JUMPDEST DUP2 ADD SWAP1 PUSH2 0x827 JUMP JUMPDEST SWAP1 PUSH0 PUSH2 0xB6B JUMP JUMPDEST PUSH2 0x617 JUMP JUMPDEST PUSH0 SWAP3 POP PUSH2 0xC1C SWAP1 RETURNDATASIZE DUP1 DUP6 DUP4 RETURNDATACOPY PUSH2 0xC14 DUP2 DUP4 PUSH2 0x11B JUMP JUMPDEST DUP2 ADD SWAP1 PUSH2 0x532 JUMP JUMPDEST SWAP2 PUSH2 0xB03 JUMP JUMPDEST PUSH1 0x40 MLOAD SWAP1 PUSH2 0xC31 PUSH1 0x20 DUP4 PUSH2 0x11B JUMP JUMPDEST PUSH0 DUP3 MSTORE JUMP JUMPDEST PUSH4 0x4E487B71 PUSH1 0xE0 SHL PUSH0 MSTORE PUSH1 0x21 PUSH1 0x4 MSTORE PUSH1 0x24 PUSH0 REVERT JUMPDEST PUSH1 0x1B GT ISZERO PUSH2 0xC54 JUMPI JUMP JUMPDEST PUSH2 0xC36 JUMP JUMPDEST SWAP1 PUSH1 0x20 DUP3 DUP3 SUB SLT PUSH2 0x98 JUMPI DUP2 MLOAD PUSH1 0x1 PUSH1 0x1 PUSH1 0x40 SHL SUB DUP2 GT PUSH2 0x98 JUMPI PUSH2 0x198 SWAP3 ADD PUSH2 0x427 JUMP JUMPDEST SWAP1 DUP1 PUSH1 0x20 DUP4 MLOAD SWAP2 DUP3 DUP2 MSTORE ADD SWAP2 PUSH1 0x20 DUP1 DUP4 PUSH1 0x5 SHL DUP4 ADD ADD SWAP5 ADD SWAP3 PUSH0 SWAP2 JUMPDEST DUP4 DUP4 LT PUSH2 0xCA9 JUMPI POP POP POP POP POP SWAP1 JUMP JUMPDEST SWAP1 SWAP2 SWAP3 SWAP4 SWAP5 PUSH1 0x20 DUP1 PUSH2 0xD2F PUSH1 0x1 SWAP4 PUSH1 0x1F NOT DUP7 DUP3 SUB ADD DUP8 MSTORE DUP10 MLOAD SWAP1 PUSH1 0xC0 PUSH2 0xCD8 DUP4 MLOAD PUSH1 0xE0 DUP5 MSTORE PUSH1 0xE0 DUP5 ADD SWAP1 PUSH2 0xA8 JUMP JUMPDEST SWAP3 PUSH1 0xFF DUP7 DUP3 ADD MLOAD AND DUP7 DUP5 ADD MSTORE PUSH1 0xFF PUSH1 0x40 DUP3 ADD MLOAD AND PUSH1 0x40 DUP5 ADD MSTORE PUSH1 0xFF PUSH1 0x60 DUP3 ADD MLOAD AND PUSH1 0x60 DUP5 ADD MSTORE PUSH2 0xD12 PUSH1 0x80 DUP3 ADD MLOAD PUSH1 0x80 DUP6 ADD SWAP1 PUSH1 0xFF AND SWAP1 MSTORE JUMP JUMPDEST PUSH1 0xA0 DUP2 DUP2 ADD MLOAD PUSH1 0xFF AND SWAP1 DUP5 ADD MSTORE ADD MLOAD SWAP1 PUSH1 0xC0 DUP2 DUP5 SUB SWAP2 ADD MSTORE PUSH2 0xA8 JUMP JUMPDEST SWAP8 ADD SWAP4 ADD SWAP4 ADD SWAP2 SWAP4 SWAP3 SWAP1 PUSH2 0xC9A JUMP JUMPDEST SWAP1 PUSH1 0x20 DUP1 DUP4 MLOAD SWAP3 DUP4 DUP2 MSTORE ADD SWAP3 ADD SWAP1 PUSH0 JUMPDEST DUP2 DUP2 LT PUSH2 0xD5B JUMPI POP POP POP SWAP1 JUMP JUMPDEST DUP3 MLOAD ISZERO ISZERO DUP5 MSTORE PUSH1 0x20 SWAP4 DUP5 ADD SWAP4 SWAP1 SWAP3 ADD SWAP2 PUSH1 0x1 ADD PUSH2 0xD4E JUMP JUMPDEST SWAP3 SWAP2 SWAP1 PUSH1 0x1 DUP1 PUSH1 0xA0 SHL SUB AND DUP4 MSTORE PUSH1 0x60 PUSH1 0x20 DUP5 ADD MSTORE PUSH1 0xA0 DUP4 ADD SWAP1 DUP1 MLOAD SWAP2 PUSH1 0x40 PUSH1 0x60 DUP7 ADD MSTORE DUP3 MLOAD DUP1 SWAP2 MSTORE PUSH1 0xC0 DUP6 ADD SWAP1 PUSH1 0x20 PUSH1 0xC0 DUP3 PUSH1 0x5 SHL DUP9 ADD ADD SWAP5 ADD SWAP2 PUSH0 SWAP1 JUMPDEST DUP3 DUP3 LT PUSH2 0xDDF JUMPI POP POP POP POP PUSH2 0xDDA PUSH1 0x1 SWAP3 PUSH1 0x20 PUSH1 0x40 SWAP4 ADD MLOAD PUSH1 0x5F NOT DUP8 DUP4 SUB ADD PUSH1 0x80 DUP9 ADD MSTORE PUSH2 0xD3E JUMP JUMPDEST SWAP4 ADD MSTORE JUMP JUMPDEST SWAP1 SWAP2 SWAP3 SWAP5 PUSH1 0xBF NOT DUP9 DUP3 SUB ADD DUP3 MSTORE DUP6 MLOAD SWAP1 DUP2 MLOAD DUP2 MSTORE PUSH2 0xE0C PUSH1 0x20 DUP4 ADD MLOAD PUSH1 0xA0 PUSH1 0x20 DUP5 ADD MSTORE PUSH1 0xA0 DUP4 ADD SWAP1 PUSH2 0xA8 JUMP JUMPDEST PUSH1 0x40 DUP4 ADD MLOAD SWAP1 DUP3 DUP2 SUB PUSH1 0x40 DUP5 ADD MSTORE PUSH1 0x20 DUP1 DUP4 MLOAD SWAP3 DUP4 DUP2 MSTORE ADD SWAP3 ADD SWAP1 PUSH0 SWAP1 JUMPDEST DUP1 DUP3 LT PUSH2 0xE70 JUMPI POP POP POP DUP3 PUSH2 0xE62 PUSH1 0x20 SWAP4 PUSH1 0x80 DUP1 PUSH2 0xE57 DUP8 SWAP7 PUSH1 0x60 PUSH1 0x1 SWAP11 ADD MLOAD DUP6 DUP3 SUB PUSH1 0x60 DUP8 ADD MSTORE PUSH2 0xC7E JUMP JUMPDEST SWAP5 ADD MLOAD PUSH1 0xFF AND SWAP2 ADD MSTORE JUMP JUMPDEST SWAP8 ADD SWAP3 ADD SWAP3 ADD SWAP1 SWAP3 SWAP2 PUSH2 0xDB1 JUMP JUMPDEST SWAP1 SWAP2 SWAP3 PUSH1 0x20 DUP1 PUSH1 0x1 SWAP3 PUSH4 0xFFFFFFFF DUP8 MLOAD AND DUP2 MSTORE ADD SWAP5 ADD SWAP3 ADD SWAP1 PUSH2 0xE2A JUMP JUMPDEST SWAP3 SWAP2 SWAP1 PUSH1 0x1 DUP1 PUSH1 0xA0 SHL SUB AND DUP4 MSTORE PUSH1 0x60 PUSH1 0x20 DUP5 ADD MSTORE PUSH1 0xA0 DUP4 ADD SWAP1 DUP1 MLOAD SWAP2 PUSH1 0x40 PUSH1 0x60 DUP7 ADD MSTORE DUP3 MLOAD DUP1 SWAP2 MSTORE PUSH1 0xC0 DUP6 ADD SWAP1 PUSH1 0x20 PUSH1 0xC0 DUP3 PUSH1 0x5 SHL DUP9 ADD ADD SWAP5 ADD SWAP2 PUSH0 SWAP1 JUMPDEST DUP3 DUP3 LT PUSH2 0xEF4 JUMPI POP POP POP POP PUSH2 0xDDA PUSH0 SWAP3 PUSH1 0x20 PUSH1 0x40 SWAP4 ADD MLOAD PUSH1 0x5F NOT DUP8 DUP4 SUB ADD PUSH1 0x80 DUP9 ADD MSTORE PUSH2 0xD3E JUMP JUMPDEST SWAP1 SWAP2 SWAP3 SWAP5 PUSH1 0xBF NOT DUP9 DUP3 SUB ADD DUP3 MSTORE DUP6 MLOAD SWAP1 DUP2 MLOAD DUP2 MSTORE PUSH2 0xF21 PUSH1 0x20 DUP4 ADD MLOAD PUSH1 0xA0 PUSH1 0x20 DUP5 ADD MSTORE PUSH1 0xA0 DUP4 ADD SWAP1 PUSH2 0xA8 JUMP JUMPDEST PUSH1 0x40 DUP4 ADD MLOAD SWAP1 DUP3 DUP2 SUB PUSH1 0x40 DUP5 ADD MSTORE PUSH1 0x20 DUP1 DUP4 MLOAD SWAP3 DUP4 DUP2 MSTORE ADD SWAP3 ADD SWAP1 PUSH0 SWAP1 JUMPDEST DUP1 DUP3 LT PUSH2 0xF7A JUMPI POP POP POP DUP3 PUSH2 0xF6C PUSH1 0x20 SWAP4 PUSH1 0x80 DUP1 PUSH2 0xE57 DUP8 SWAP7 PUSH1 0x60 PUSH1 0x1 SWAP11 ADD MLOAD DUP6 DUP3 SUB PUSH1 0x60 DUP8 ADD MSTORE PUSH2 0xC7E JUMP JUMPDEST SWAP8 ADD SWAP3 ADD SWAP3 ADD SWAP1 SWAP3 SWAP2 PUSH2 0xECC JUMP JUMPDEST SWAP1 SWAP2 SWAP3 PUSH1 0x20 DUP1 PUSH1 0x1 SWAP3 PUSH4 0xFFFFFFFF DUP8 MLOAD AND DUP2 MSTORE ADD SWAP5 ADD SWAP3 ADD SWAP1 PUSH2 0xF3F JUMP JUMPDEST SWAP4 SWAP3 SWAP2 SWAP1 PUSH1 0x1 DUP1 PUSH1 0xA0 SHL SUB AND DUP5 MSTORE PUSH1 0x60 PUSH1 0x20 DUP6 ADD MSTORE PUSH1 0xA0 DUP5 ADD SWAP1 DUP1 MLOAD SWAP2 PUSH1 0x40 PUSH1 0x60 DUP8 ADD MSTORE DUP3 MLOAD DUP1 SWAP2 MSTORE PUSH1 0xC0 DUP7 ADD SWAP1 PUSH1 0x20 PUSH1 0xC0 DUP3 PUSH1 0x5 SHL DUP10 ADD ADD SWAP5 ADD SWAP2 PUSH0 SWAP1 JUMPDEST DUP3 DUP3 LT PUSH2 0xFFE JUMPI POP POP POP POP PUSH1 0x20 ADD MLOAD DUP5 DUP3 SUB PUSH1 0x5F NOT ADD PUSH1 0x80 DUP7 ADD MSTORE PUSH1 0x40 SWAP2 PUSH2 0xDDA SWAP2 PUSH2 0xD3E JUMP JUMPDEST SWAP1 SWAP2 SWAP3 SWAP5 PUSH1 0xBF NOT DUP10 DUP3 SUB ADD DUP3 MSTORE DUP6 MLOAD SWAP1 DUP2 MLOAD DUP2 MSTORE PUSH2 0x102B PUSH1 0x20 DUP4 ADD MLOAD PUSH1 0xA0 PUSH1 0x20 DUP5 ADD MSTORE PUSH1 0xA0 DUP4 ADD SWAP1 PUSH2 0xA8 JUMP JUMPDEST PUSH1 0x40 DUP4 ADD MLOAD SWAP1 DUP3 DUP2 SUB PUSH1 0x40 DUP5 ADD MSTORE PUSH1 0x20 DUP1 DUP4 MLOAD SWAP3 DUP4 DUP2 MSTORE ADD SWAP3 ADD SWAP1 PUSH0 SWAP1 JUMPDEST DUP1 DUP3 LT PUSH2 0x1084 JUMPI POP POP POP DUP3 PUSH2 0x1076 PUSH1 0x20 SWAP4 PUSH1 0x80 DUP1 PUSH2 0xE57 DUP8 SWAP7 PUSH1 0x60 PUSH1 0x1 SWAP11 ADD MLOAD DUP6 DUP3 SUB PUSH1 0x60 DUP8 ADD MSTORE PUSH2 0xC7E JUMP JUMPDEST SWAP8 ADD SWAP3 ADD SWAP3 ADD SWAP1 SWAP3 SWAP2 PUSH2 0xFD7 JUMP JUMPDEST SWAP1 SWAP2 SWAP3 PUSH1 0x20 DUP1 PUSH1 0x1 SWAP3 PUSH4 0xFFFFFFFF DUP8 MLOAD AND DUP2 MSTORE ADD SWAP5 ADD SWAP3 ADD SWAP1 PUSH2 0x1049 JUMP JUMPDEST PUSH4 0x4E487B71 PUSH1 0xE0 SHL PUSH0 MSTORE PUSH1 0x32 PUSH1 0x4 MSTORE PUSH1 0x24 PUSH0 REVERT JUMPDEST DUP1 MLOAD PUSH1 0x1 LT ISZERO PUSH2 0x10C6 JUMPI PUSH1 0x40 ADD SWAP1 JUMP JUMPDEST PUSH2 0x10A2 JUMP JUMPDEST DUP1 MLOAD ISZERO PUSH2 0x10C6 JUMPI PUSH1 0x20 ADD SWAP1 JUMP JUMPDEST DUP1 MLOAD DUP3 LT ISZERO PUSH2 0x10C6 JUMPI PUSH1 0x20 SWAP2 PUSH1 0x5 SHL ADD ADD SWAP1 JUMP JUMPDEST MLOAD PUSH1 0x1B DUP2 LT ISZERO PUSH2 0xC54 JUMPI SWAP1 JUMP JUMPDEST SWAP1 PUSH1 0x60 DUP2 ADD SWAP1 PUSH2 0xFFFF PUSH2 0x110E DUP4 MLOAD PUSH2 0xFFFF AND SWAP1 JUMP JUMPDEST AND ISZERO PUSH2 0x12AA JUMPI POP MLOAD PUSH2 0x1123 SWAP1 PUSH2 0xFFFF AND PUSH2 0x14C7 JUMP JUMPDEST ISZERO PUSH2 0x11CB JUMPI PUSH1 0x40 MLOAD PUSH4 0x5DE99DB1 PUSH1 0xE1 SHL DUP2 MSTORE SWAP1 PUSH0 DUP3 DUP1 PUSH2 0x1167 DUP5 PUSH32 0x0 PUSH1 0x4 DUP5 ADD PUSH2 0xE8E JUMP JUMPDEST SUB DUP2 PUSH20 0x0 GAS DELEGATECALL SWAP1 DUP2 ISZERO PUSH2 0xBF9 JUMPI PUSH2 0x11A4 SWAP3 PUSH0 SWAP3 PUSH2 0x11A7 JUMPI JUMPDEST POP MLOAD SWAP1 PUSH2 0x119E DUP3 PUSH2 0x10CB JUMP JUMPDEST MSTORE PUSH2 0x10CB JUMP JUMPDEST POP JUMP JUMPDEST PUSH2 0x11C4 SWAP2 SWAP3 POP RETURNDATASIZE DUP1 PUSH0 DUP4 RETURNDATACOPY PUSH2 0x11BC DUP2 DUP4 PUSH2 0x11B JUMP JUMPDEST DUP2 ADD SWAP1 PUSH2 0xC59 JUMP JUMPDEST SWAP1 PUSH0 PUSH2 0x1192 JUMP JUMPDEST PUSH1 0x40 MLOAD PUSH4 0x5DE99DB1 PUSH1 0xE1 SHL DUP2 MSTORE PUSH32 0x0 SWAP2 SWAP1 PUSH20 0x0 PUSH0 DUP3 DUP1 PUSH2 0x1221 DUP7 DUP9 PUSH1 0x4 DUP5 ADD PUSH2 0xD73 JUMP JUMPDEST SUB DUP2 DUP5 GAS DELEGATECALL SWAP1 DUP2 ISZERO PUSH2 0xBF9 JUMPI PUSH2 0x126F SWAP5 PUSH2 0x1252 DUP6 SWAP4 PUSH0 SWAP6 DUP7 SWAP2 PUSH2 0x1290 JUMPI JUMPDEST POP DUP5 MLOAD SWAP1 PUSH2 0x124C DUP3 PUSH2 0x10B6 JUMP JUMPDEST MSTORE PUSH2 0x10B6 JUMP JUMPDEST POP PUSH1 0x40 MLOAD DUP1 SWAP7 DUP2 SWAP5 DUP3 SWAP4 PUSH4 0x5DE99DB1 PUSH1 0xE1 SHL DUP5 MSTORE PUSH1 0x4 DUP5 ADD PUSH2 0xE8E JUMP JUMPDEST SUB SWAP2 GAS DELEGATECALL SWAP1 DUP2 ISZERO PUSH2 0xBF9 JUMPI PUSH2 0x11A4 SWAP3 PUSH0 SWAP3 PUSH2 0x11A7 JUMPI POP MLOAD SWAP1 PUSH2 0x119E DUP3 PUSH2 0x10CB JUMP JUMPDEST PUSH2 0x12A4 SWAP2 POP RETURNDATASIZE DUP1 DUP9 DUP4 RETURNDATACOPY PUSH2 0x11BC DUP2 DUP4 PUSH2 0x11B JUMP JUMPDEST PUSH0 PUSH2 0x123F JUMP JUMPDEST PUSH1 0x40 MLOAD PUSH4 0x5DE99DB1 PUSH1 0xE1 SHL DUP2 MSTORE SWAP3 SWAP4 SWAP3 PUSH32 0x0 SWAP3 POP PUSH20 0x0 SWAP2 SWAP1 PUSH0 DUP2 DUP1 PUSH2 0x1305 DUP10 DUP9 PUSH1 0x4 DUP5 ADD PUSH2 0xD73 JUMP JUMPDEST SUB DUP2 DUP7 GAS DELEGATECALL DUP1 ISZERO PUSH2 0xBF9 JUMPI PUSH2 0x1328 SWAP2 PUSH0 SWAP2 PUSH2 0x1480 JUMPI JUMPDEST POP DUP7 MLOAD SWAP1 PUSH2 0x124C DUP3 PUSH2 0x10B6 JUMP JUMPDEST POP PUSH0 JUMPDEST PUSH2 0x1342 PUSH2 0x133C PUSH1 0x20 DUP5 ADD MLOAD PUSH1 0xFF AND SWAP1 JUMP JUMPDEST PUSH1 0xFF AND SWAP1 JUMP JUMPDEST DUP2 LT ISZERO PUSH2 0x1478 JUMPI PUSH2 0x1369 PUSH2 0x1360 PUSH2 0x135A DUP4 DUP6 MLOAD PUSH2 0x10D8 JUMP JUMPDEST MLOAD PUSH2 0x10EC JUMP JUMPDEST PUSH2 0x133C DUP2 PUSH2 0xC4A JUMP JUMPDEST PUSH1 0x40 MLOAD PUSH4 0x5DE99DB1 PUSH1 0xE1 SHL DUP2 MSTORE SWAP1 PUSH0 DUP3 DUP1 PUSH2 0x1389 DUP5 DUP13 DUP12 PUSH1 0x4 DUP6 ADD PUSH2 0xF98 JUMP JUMPDEST SUB DUP2 DUP9 GAS DELEGATECALL DUP1 ISZERO PUSH2 0xBF9 JUMPI PUSH2 0x13B3 SWAP3 PUSH0 SWAP2 PUSH2 0x145E JUMPI JUMPDEST POP DUP9 MLOAD SWAP1 PUSH2 0x13AD DUP4 DUP4 PUSH2 0x10D8 JUMP JUMPDEST MSTORE PUSH2 0x10D8 JUMP JUMPDEST POP PUSH2 0x13CC PUSH1 0x40 PUSH2 0x13C4 DUP4 DUP6 MLOAD PUSH2 0x10D8 JUMP JUMPDEST MLOAD ADD MLOAD ISZERO ISZERO SWAP1 JUMP JUMPDEST PUSH2 0x13D9 JUMPI JUMPDEST PUSH1 0x1 ADD PUSH2 0x132B JUMP JUMPDEST PUSH2 0x13F4 PUSH2 0x1360 PUSH1 0x60 PUSH2 0x13EC DUP5 DUP7 MLOAD PUSH2 0x10D8 JUMP JUMPDEST MLOAD ADD MLOAD PUSH2 0x10EC JUMP JUMPDEST SWAP1 PUSH1 0x40 MLOAD PUSH4 0x5DE99DB1 PUSH1 0xE1 SHL DUP2 MSTORE PUSH0 DUP2 DUP1 PUSH2 0x1414 DUP7 DUP13 DUP12 PUSH1 0x4 DUP6 ADD PUSH2 0xF98 JUMP JUMPDEST SUB DUP2 DUP9 GAS DELEGATECALL SWAP3 DUP4 ISZERO PUSH2 0xBF9 JUMPI PUSH1 0x1 SWAP4 PUSH2 0x143C SWAP3 PUSH0 SWAP2 PUSH2 0x1444 JUMPI JUMPDEST POP DUP10 MLOAD SWAP1 PUSH2 0x13AD DUP4 DUP4 PUSH2 0x10D8 JUMP JUMPDEST POP SWAP1 POP PUSH2 0x13D1 JUMP JUMPDEST PUSH2 0x1458 SWAP2 POP RETURNDATASIZE DUP1 PUSH0 DUP4 RETURNDATACOPY PUSH2 0x11BC DUP2 DUP4 PUSH2 0x11B JUMP JUMPDEST PUSH0 PUSH2 0x142E JUMP JUMPDEST PUSH2 0x1472 SWAP2 POP RETURNDATASIZE DUP1 PUSH0 DUP4 RETURNDATACOPY PUSH2 0x11BC DUP2 DUP4 PUSH2 0x11B JUMP JUMPDEST PUSH0 PUSH2 0x139F JUMP JUMPDEST POP POP POP POP SWAP1 POP JUMP JUMPDEST PUSH2 0x1494 SWAP2 POP RETURNDATASIZE DUP1 PUSH0 DUP4 RETURNDATACOPY PUSH2 0x11BC DUP2 DUP4 PUSH2 0x11B JUMP JUMPDEST PUSH0 PUSH2 0x131B JUMP JUMPDEST PUSH4 0x4E487B71 PUSH1 0xE0 SHL PUSH0 MSTORE PUSH1 0x11 PUSH1 0x4 MSTORE PUSH1 0x24 PUSH0 REVERT JUMPDEST PUSH2 0xFFFF PUSH0 NOT SWAP2 AND ADD SWAP1 PUSH2 0xFFFF DUP3 GT PUSH2 0x14C2 JUMPI JUMP JUMPDEST PUSH2 0x149A JUMP JUMPDEST PUSH2 0xFFFF DUP2 AND ISZERO PUSH2 0x154F JUMPI PUSH2 0x14DD PUSH2 0xFFFF SWAP2 PUSH2 0x14AE JUMP JUMPDEST AND PUSH1 0x4 DUP2 EQ SWAP1 DUP2 ISZERO PUSH2 0x1544 JUMPI JUMPDEST DUP2 ISZERO PUSH2 0x1539 JUMPI JUMPDEST DUP2 ISZERO PUSH2 0x152E JUMPI JUMPDEST DUP2 ISZERO PUSH2 0x1523 JUMPI JUMPDEST DUP2 ISZERO PUSH2 0x1518 JUMPI JUMPDEST DUP2 ISZERO PUSH2 0x1510 JUMPI POP SWAP1 JUMP JUMPDEST PUSH1 0xD SWAP2 POP EQ SWAP1 JUMP JUMPDEST PUSH1 0xB DUP2 EQ SWAP2 POP PUSH2 0x1506 JUMP JUMPDEST PUSH1 0x8 DUP2 EQ SWAP2 POP PUSH2 0x14FF JUMP JUMPDEST PUSH1 0x7 DUP2 EQ SWAP2 POP PUSH2 0x14F8 JUMP JUMPDEST PUSH1 0x6 DUP2 EQ SWAP2 POP PUSH2 0x14F1 JUMP JUMPDEST PUSH1 0x5 DUP2 EQ SWAP2 POP PUSH2 0x14EA JUMP JUMPDEST POP PUSH0 SWAP1 JUMP JUMPDEST PUSH2 0xFFFF PUSH1 0x64 SWAP2 AND ADD SWAP1 PUSH2 0xFFFF DUP3 GT PUSH2 0x14C2 JUMPI JUMP JUMPDEST SWAP1 PUSH1 0x20 DUP3 DUP3 SUB SLT PUSH2 0x98 JUMPI DUP2 MLOAD PUSH1 0x1 PUSH1 0x1 PUSH1 0x40 SHL SUB DUP2 GT PUSH2 0x98 JUMPI PUSH2 0x198 SWAP3 ADD PUSH2 0x232 JUMP JUMPDEST PUSH1 0x40 MLOAD SWAP1 PUSH2 0x159C PUSH1 0x60 DUP4 PUSH2 0x11B JUMP JUMPDEST PUSH1 0x3C DUP3 MSTORE PUSH32 0x30302F737667222076696577426F783D22302030203438203438223E00000000 PUSH1 0x40 DUP4 PUSH32 0x3C73766720786D6C6E733D22687474703A2F2F7777772E77332E6F72672F3230 PUSH1 0x20 DUP3 ADD MSTORE ADD MSTORE JUMP JUMPDEST PUSH1 0x40 MLOAD SWAP1 PUSH2 0x15FD PUSH1 0x60 DUP4 PUSH2 0x11B JUMP JUMPDEST PUSH1 0x2E DUP3 MSTORE PUSH14 0x30BA32B21DBE9E17B9BA3CB6329F PUSH1 0x91 SHL PUSH1 0x40 DUP4 PUSH32 0x3C7374796C653E696D677B696D6167652D72656E646572696E673A706978656C PUSH1 0x20 DUP3 ADD MSTORE ADD MSTORE JUMP JUMPDEST PUSH1 0x40 MLOAD SWAP1 PUSH2 0x164F PUSH1 0x40 DUP4 PUSH2 0x11B JUMP JUMPDEST PUSH1 0x17 DUP3 MSTORE PUSH32 0x3C672069643D2247656E657261746564496D616765223E000000000000000000 PUSH1 0x20 DUP4 ADD MSTORE JUMP JUMPDEST PUSH1 0x40 MLOAD SWAP1 PUSH2 0x168A PUSH1 0x60 DUP4 PUSH2 0x11B JUMP JUMPDEST PUSH1 0x26 DUP3 MSTORE PUSH32 0x3C666F726569676E4F626A6563742077696474683D2234382220686569676874 PUSH1 0x20 DUP4 ADD MSTORE PUSH6 0x1E911A1C111F PUSH1 0xD1 SHL PUSH1 0x40 DUP4 ADD MSTORE JUMP JUMPDEST PUSH1 0x40 MLOAD SWAP1 PUSH2 0x16D4 PUSH1 0x80 DUP4 PUSH2 0x11B JUMP JUMPDEST PUSH1 0x45 DUP3 MSTORE PUSH5 0x1CD94D8D0B PUSH1 0xDA SHL PUSH1 0x60 DUP4 PUSH32 0x3C696D6720786D6C6E733D22687474703A2F2F7777772E77332E6F72672F3139 PUSH1 0x20 DUP3 ADD MSTORE PUSH32 0x39392F7868746D6C22207372633D22646174613A696D6167652F706E673B6261 PUSH1 0x40 DUP3 ADD MSTORE ADD MSTORE JUMP JUMPDEST PUSH1 0x40 MLOAD SWAP1 PUSH2 0x1743 PUSH1 0x60 DUP4 PUSH2 0x11B JUMP JUMPDEST PUSH1 0x38 DUP3 MSTORE PUSH32 0x666F726569676E4F626A6563743E3C2F673E3C2F7376673E0000000000000000 PUSH1 0x40 DUP4 PUSH32 0x222077696474683D223130302522206865696768743D2231303025222F3E3C2F PUSH1 0x20 DUP3 ADD MSTORE ADD MSTORE JUMP JUMPDEST PUSH1 0x40 MLOAD SWAP1 PUSH2 0x17A4 PUSH1 0x60 DUP4 PUSH2 0x11B JUMP JUMPDEST PUSH1 0x31 DUP3 MSTORE PUSH32 0x2261747472696275746573223A5B2274726169745F74797065223A2253706563 PUSH1 0x20 DUP4 ADD MSTORE PUSH17 0x34B0B61018B99116113B30B63AB2911D11 PUSH1 0x79 SHL PUSH1 0x40 DUP4 ADD MSTORE JUMP JUMPDEST PUSH1 0x40 MLOAD SWAP1 PUSH2 0x17F9 PUSH1 0x40 DUP4 PUSH2 0x11B JUMP JUMPDEST PUSH1 0x1 DUP3 MSTORE PUSH1 0x11 PUSH1 0xF9 SHL PUSH1 0x20 DUP4 ADD MSTORE JUMP JUMPDEST PUSH0 PUSH2 0x1827 PUSH2 0x1822 PUSH1 0x60 PUSH2 0x184B SWAP6 SWAP8 SWAP7 SWAP8 ADD MLOAD PUSH2 0xFFFF AND SWAP1 JUMP JUMPDEST PUSH2 0x1554 JUMP JUMPDEST PUSH1 0x40 MLOAD PUSH4 0x69DDE379 PUSH1 0xE0 SHL DUP2 MSTORE PUSH2 0xFFFF SWAP1 SWAP2 AND PUSH1 0x4 DUP3 ADD MSTORE SWAP3 DUP4 SWAP1 DUP2 SWAP1 PUSH1 0x24 DUP3 ADD SWAP1 JUMP JUMPDEST SUB DUP2 PUSH32 0x0 PUSH1 0x1 PUSH1 0x1 PUSH1 0xA0 SHL SUB AND GAS STATICCALL SWAP1 DUP2 ISZERO PUSH2 0xBF9 JUMPI PUSH2 0x18D5 PUSH2 0x18ED SWAP3 PUSH1 0x20 SWAP5 PUSH0 SWAP2 PUSH2 0x1926 JUMPI JUMPDEST POP PUSH2 0x18A3 PUSH2 0x189D PUSH2 0x158D JUMP JUMPDEST DUP5 PUSH2 0x2D02 JUMP JUMPDEST PUSH2 0x18AE PUSH2 0x189D PUSH2 0x15EE JUMP JUMPDEST PUSH2 0x18B9 PUSH2 0x189D PUSH2 0x1640 JUMP JUMPDEST PUSH2 0x18C4 PUSH2 0x189D PUSH2 0x167B JUMP JUMPDEST PUSH2 0x18CF PUSH2 0x189D PUSH2 0x16C5 JUMP JUMPDEST DUP3 PUSH2 0x2D45 JUMP JUMPDEST PUSH2 0x18E6 PUSH2 0x18E0 PUSH2 0x1734 JUMP JUMPDEST DUP3 PUSH2 0x2D02 JUMP JUMPDEST SWAP4 MLOAD PUSH2 0x10CB JUMP JUMPDEST MLOAD ADD MLOAD PUSH2 0x191B PUSH2 0x190F PUSH1 0x20 PUSH1 0x40 MLOAD PUSH2 0x2770 DUP2 ADD PUSH1 0x40 MSTORE PUSH2 0x2750 DUP2 MSTORE ADD PUSH0 DUP2 MSTORE SWAP1 JUMP JUMPDEST SWAP2 PUSH2 0x18E0 PUSH2 0x189D PUSH2 0x1795 JUMP JUMPDEST PUSH2 0x198 PUSH2 0x18E0 PUSH2 0x17EA JUMP JUMPDEST PUSH2 0x1942 SWAP2 POP RETURNDATASIZE DUP1 PUSH0 DUP4 RETURNDATACOPY PUSH2 0x193A DUP2 DUP4 PUSH2 0x11B JUMP JUMPDEST DUP2 ADD SWAP1 PUSH2 0x1568 JUMP JUMPDEST PUSH0 PUSH2 0x1891 JUMP JUMPDEST PUSH1 0x40 MLOAD SWAP1 PUSH2 0x1957 PUSH1 0x40 DUP4 PUSH2 0x11B JUMP JUMPDEST PUSH1 0x13 DUP3 MSTORE PUSH19 0x1E339034B21E912130B1B5B3B937BAB732111F PUSH1 0x69 SHL PUSH1 0x20 DUP4 ADD MSTORE JUMP JUMPDEST PUSH1 0x40 MLOAD SWAP1 PUSH2 0x1988 PUSH1 0x40 DUP4 PUSH2 0x11B JUMP JUMPDEST PUSH1 0x4 DUP3 MSTORE PUSH4 0x1E17B39F PUSH1 0xE1 SHL PUSH1 0x20 DUP4 ADD MSTORE JUMP JUMPDEST PUSH1 0x40 MLOAD SWAP1 PUSH1 0x20 DUP3 ADD DUP3 DUP2 LT PUSH1 0x1 PUSH1 0x1 PUSH1 0x40 SHL SUB DUP3 GT OR PUSH2 0xFB JUMPI PUSH1 0x40 DUP2 SWAP1 MSTORE DUP3 PUSH2 0x600 PUSH2 0x19C8 DUP2 DUP5 PUSH2 0x11B JUMP JUMPDEST PUSH0 JUMPDEST DUP2 DUP2 LT PUSH2 0x19D6 JUMPI POP POP MSTORE JUMP JUMPDEST PUSH1 0x20 SWAP1 PUSH1 0x40 MLOAD PUSH2 0x19E6 DUP5 DUP3 PUSH2 0x11B JUMP JUMPDEST DUP4 CALLDATASIZE DUP3 CALLDATACOPY DUP2 DUP7 ADD MSTORE ADD PUSH2 0x19CA JUMP JUMPDEST PUSH1 0x40 MLOAD SWAP1 PUSH2 0x1A03 PUSH1 0x80 DUP4 PUSH2 0x11B JUMP JUMPDEST PUSH1 0x55 DUP3 MSTORE PUSH32 0x3C666F726569676E4F626A6563742077696474683D2234382220686569676874 PUSH1 0x20 DUP4 ADD MSTORE PUSH32 0x3D223438223E3C696D6720786D6C6E733D22687474703A2F2F7777772E77332E PUSH1 0x40 DUP4 ADD MSTORE PUSH21 0x37B93397989C9C9C97BC343A36B6111039B9319E91 PUSH1 0x59 SHL PUSH1 0x60 DUP4 ADD MSTORE JUMP JUMPDEST DUP4 DUP4 DUP4 PUSH2 0x1AA9 SWAP4 SWAP7 SWAP5 SWAP7 PUSH2 0x1A8E PUSH2 0x1A88 PUSH2 0x158D JUMP JUMPDEST DUP4 PUSH2 0x2D02 JUMP JUMPDEST PUSH2 0x1A99 PUSH2 0x1A88 PUSH2 0x15EE JUMP JUMPDEST PUSH2 0x1AA4 PUSH2 0x1A88 PUSH2 0x1948 JUMP JUMPDEST PUSH2 0x245B JUMP JUMPDEST PUSH2 0x1AB4 PUSH2 0x189D PUSH2 0x1979 JUMP JUMPDEST PUSH2 0x1ABC PUSH2 0x199B JUMP JUMPDEST SWAP1 PUSH0 JUMPDEST PUSH2 0x1AD0 PUSH2 0x133C PUSH1 0x20 DUP5 ADD MLOAD PUSH1 0xFF AND SWAP1 JUMP JUMPDEST DUP2 LT ISZERO PUSH2 0x1B8B JUMPI DUP1 PUSH1 0x1 PUSH2 0x1AE9 PUSH2 0x135A DUP3 SWAP5 DUP7 MLOAD PUSH2 0x10D8 JUMP JUMPDEST PUSH2 0x1AF2 DUP2 PUSH2 0xC4A JUMP JUMPDEST EQ PUSH2 0x1B86 JUMPI PUSH2 0x1B32 PUSH2 0x1B08 PUSH2 0x135A DUP4 DUP7 MLOAD PUSH2 0x10D8 JUMP JUMPDEST PUSH2 0x1B11 DUP2 PUSH2 0xC4A JUMP JUMPDEST PUSH2 0x1B2A PUSH1 0x20 PUSH2 0x1B21 DUP6 DUP9 MLOAD PUSH2 0x10D8 JUMP JUMPDEST MLOAD ADD MLOAD PUSH1 0xFF AND SWAP1 JUMP JUMPDEST SWAP1 DUP8 DUP8 PUSH2 0x282A JUMP JUMPDEST PUSH2 0x1B42 PUSH1 0x40 PUSH2 0x13C4 DUP4 DUP7 MLOAD PUSH2 0x10D8 JUMP JUMPDEST PUSH2 0x1B4D JUMPI JUMPDEST ADD PUSH2 0x1ABF JUMP JUMPDEST PUSH2 0x1B86 PUSH2 0x1B60 PUSH1 0x60 PUSH2 0x13EC DUP5 DUP8 MLOAD PUSH2 0x10D8 JUMP JUMPDEST PUSH2 0x1B69 DUP2 PUSH2 0xC4A JUMP JUMPDEST PUSH2 0x1B2A PUSH1 0x20 PUSH1 0x60 PUSH2 0x1B7B DUP7 DUP10 MLOAD PUSH2 0x10D8 JUMP JUMPDEST MLOAD ADD MLOAD ADD MLOAD PUSH1 0xFF AND SWAP1 JUMP JUMPDEST PUSH2 0x1B47 JUMP JUMPDEST POP POP PUSH2 0x14B SWAP3 SWAP2 POP PUSH2 0x1B9F PUSH2 0x1BB5 SWAP2 PUSH2 0x2AFF JUMP JUMPDEST PUSH2 0x1BAA PUSH2 0x189D PUSH2 0x1640 JUMP JUMPDEST PUSH2 0x18E0 PUSH2 0x189D PUSH2 0x19F4 JUMP JUMPDEST PUSH2 0x1BBD PUSH2 0x1734 JUMP JUMPDEST SWAP1 PUSH2 0x2D02 JUMP JUMPDEST PUSH1 0x40 MLOAD SWAP1 PUSH2 0x1BD2 PUSH1 0x40 DUP4 PUSH2 0x11B JUMP JUMPDEST PUSH1 0xE DUP3 MSTORE PUSH14 0x2261747472696275746573223A5B PUSH1 0x90 SHL PUSH1 0x20 DUP4 ADD MSTORE JUMP JUMPDEST PUSH1 0x40 MLOAD SWAP1 PUSH2 0x1BFE PUSH1 0x60 DUP4 PUSH2 0x11B JUMP JUMPDEST PUSH1 0x37 DUP3 MSTORE PUSH32 0x7065223A224269727468646179222C2276616C7565223A000000000000000000 PUSH1 0x40 DUP4 PUSH32 0x7B22646973706C61795F74797065223A2264617465222C2274726169745F7479 PUSH1 0x20 DUP3 ADD MSTORE ADD MSTORE JUMP JUMPDEST PUSH1 0x40 MLOAD SWAP1 PUSH2 0x1C5F PUSH1 0x40 DUP4 PUSH2 0x11B JUMP JUMPDEST PUSH1 0x1 DUP3 MSTORE PUSH1 0x7D PUSH1 0xF8 SHL PUSH1 0x20 DUP4 ADD MSTORE JUMP JUMPDEST PUSH1 0x40 MLOAD SWAP1 PUSH2 0x1C7E PUSH1 0x40 DUP4 PUSH2 0x11B JUMP JUMPDEST PUSH1 0x1 DUP3 MSTORE PUSH1 0xB PUSH1 0xFA SHL PUSH1 0x20 DUP4 ADD MSTORE JUMP JUMPDEST PUSH1 0x5 GT ISZERO PUSH2 0xC54 JUMPI JUMP JUMPDEST PUSH1 0x40 MLOAD SWAP1 PUSH2 0x1CA7 PUSH1 0xA0 DUP4 PUSH2 0x11B JUMP JUMPDEST PUSH1 0x67 DUP3 MSTORE PUSH32 0x7B2261747472696275746573223A205B7B2274726169745F74797065223A2022 PUSH1 0x20 DUP4 ADD MSTORE PUSH32 0x4572726F72222C202276616C7565223A20224261636B67726F756E642047726F PUSH1 0x40 DUP4 ADD MSTORE PUSH32 0x7570204C6F61646564206275742054726169747320417272617920697320456D PUSH1 0x60 DUP4 ADD MSTORE PUSH7 0x707479227D5D7D PUSH1 0xC8 SHL PUSH1 0x80 DUP4 ADD MSTORE JUMP JUMPDEST PUSH1 0x40 MLOAD SWAP1 PUSH2 0x1D3E PUSH1 0x40 DUP4 PUSH2 0x11B JUMP JUMPDEST PUSH1 0xA DUP3 MSTORE PUSH10 0x109858DAD9DC9BDD5B99 PUSH1 0xB2 SHL PUSH1 0x20 DUP4 ADD MSTORE JUMP JUMPDEST PUSH0 SLOAD SWAP1 PUSH2 0x1D63 DUP3 PUSH2 0x21B JUMP JUMPDEST SWAP2 PUSH2 0x1D71 PUSH1 0x40 MLOAD SWAP4 DUP5 PUSH2 0x11B JUMP JUMPDEST DUP1 DUP4 MSTORE PUSH0 DUP1 DUP1 MSTORE SWAP1 PUSH32 0x290DECD9548B62A8D60345A988386FC84BA6BC95484008F6362F93160EF3E563 PUSH1 0x20 DUP6 ADD JUMPDEST DUP3 DUP5 LT PUSH2 0x1DAC JUMPI POP POP POP POP JUMP JUMPDEST PUSH1 0x40 MLOAD PUSH0 DUP4 SLOAD DUP1 PUSH1 0x1 SHR SWAP1 PUSH1 0x1 DUP2 AND SWAP1 DUP2 ISZERO PUSH2 0x1E6C JUMPI JUMPDEST PUSH1 0x20 DUP4 LT DUP3 EQ PUSH2 0x1E58 JUMPI DUP3 DUP6 MSTORE PUSH1 0x20 DUP6 ADD SWAP2 SWAP1 DUP2 ISZERO PUSH2 0x1E41 JUMPI POP PUSH1 0x1 EQ PUSH2 0x1E08 JUMPI JUMPDEST POP POP PUSH1 0x1 SWAP3 DUP3 PUSH2 0x1DFA DUP6 SWAP5 PUSH1 0x20 SWAP5 SUB DUP3 PUSH2 0x11B JUMP JUMPDEST DUP2 MSTORE ADD SWAP3 ADD SWAP4 ADD SWAP3 SWAP1 PUSH2 0x1D9F JUMP JUMPDEST SWAP1 SWAP2 POP PUSH2 0x1E18 DUP6 PUSH0 MSTORE PUSH1 0x20 PUSH0 KECCAK256 SWAP1 JUMP JUMPDEST SWAP2 PUSH0 SWAP3 JUMPDEST DUP2 DUP5 LT PUSH2 0x1E2D JUMPI POP POP ADD DUP3 DUP3 PUSH2 0x1DE5 JUMP JUMPDEST PUSH1 0x1 DUP2 PUSH1 0x20 SWAP3 SLOAD DUP7 DUP7 ADD MSTORE ADD SWAP4 ADD SWAP3 PUSH2 0x1E1C JUMP JUMPDEST PUSH1 0xFF NOT AND DUP3 MSTORE POP SWAP1 ISZERO ISZERO PUSH1 0x5 SHL ADD SWAP1 POP DUP3 DUP3 PUSH2 0x1DE5 JUMP JUMPDEST PUSH4 0x4E487B71 PUSH1 0xE0 SHL PUSH0 MSTORE PUSH1 0x22 PUSH1 0x4 MSTORE PUSH1 0x24 PUSH0 REVERT JUMPDEST SWAP2 PUSH1 0x7F AND SWAP2 PUSH2 0x1DC3 JUMP JUMPDEST PUSH1 0x40 MLOAD SWAP1 PUSH2 0x1E85 PUSH1 0x40 DUP4 PUSH2 0x11B JUMP JUMPDEST PUSH1 0xA DUP3 MSTORE PUSH10 0x5370656369616C203173 PUSH1 0xB0 SHL PUSH1 0x20 DUP4 ADD MSTORE JUMP JUMPDEST PUSH1 0x40 MLOAD SWAP1 PUSH2 0x1EAD PUSH1 0x40 DUP4 PUSH2 0x11B JUMP JUMPDEST PUSH1 0x1 DUP3 MSTORE PUSH1 0x5D PUSH1 0xF8 SHL PUSH1 0x20 DUP4 ADD MSTORE JUMP JUMPDEST SWAP1 PUSH2 0x1EDA PUSH1 0x20 PUSH1 0x40 MLOAD PUSH2 0x5E20 DUP2 ADD PUSH1 0x40 MSTORE PUSH2 0x5E00 DUP2 MSTORE ADD PUSH0 DUP2 MSTORE SWAP1 JUMP JUMPDEST SWAP2 PUSH2 0x1EE6 PUSH2 0x189D PUSH2 0x1BC3 JUMP JUMPDEST PUSH2 0x1EF1 PUSH2 0x189D PUSH2 0x1BEF JUMP JUMPDEST PUSH2 0x1F19 PUSH2 0x189D PUSH2 0x1F14 PUSH2 0x1F0B PUSH1 0x80 DUP7 ADD MLOAD PUSH4 0xFFFFFFFF AND SWAP1 JUMP JUMPDEST PUSH4 0xFFFFFFFF AND SWAP1 JUMP JUMPDEST PUSH2 0x2B8C JUMP JUMPDEST PUSH2 0x1F24 PUSH2 0x189D PUSH2 0x1C50 JUMP JUMPDEST PUSH2 0x1F2F PUSH2 0x189D PUSH2 0x1C6F JUMP JUMPDEST PUSH2 0x1F39 DUP2 MLOAD PUSH2 0x10B6 JUMP JUMPDEST MLOAD PUSH1 0x60 PUSH1 0xC0 DUP5 ADD MLOAD SWAP2 PUSH2 0x1F4B DUP4 PUSH2 0x1C8E JUMP JUMPDEST PUSH2 0x1F54 DUP4 PUSH2 0x1C8E JUMP JUMPDEST ADD SWAP1 DUP2 MLOAD MLOAD ISZERO PUSH2 0x20FE JUMPI PUSH2 0x1F6F PUSH2 0x189D SWAP2 PUSH2 0x1F7E SWAP4 MLOAD PUSH2 0x10D8 JUMP JUMPDEST MLOAD MLOAD PUSH2 0x1F79 PUSH2 0x1D2F JUMP JUMPDEST PUSH2 0x2BD1 JUMP JUMPDEST PUSH1 0x60 DUP3 ADD SWAP2 PUSH2 0xFFFF PUSH2 0x1F92 DUP5 MLOAD PUSH2 0xFFFF AND SWAP1 JUMP JUMPDEST AND ISZERO PUSH2 0x2011 JUMPI POP PUSH2 0x1FC4 PUSH2 0x1FBD PUSH2 0x1FB8 PUSH2 0x1FAE PUSH1 0x60 SWAP5 MLOAD PUSH2 0x10CB JUMP JUMPDEST MLOAD SWAP5 MLOAD PUSH2 0xFFFF AND SWAP1 JUMP JUMPDEST PUSH2 0x14AE JUMP JUMPDEST PUSH2 0xFFFF AND SWAP1 JUMP JUMPDEST SWAP2 ADD MLOAD SWAP1 DUP2 MLOAD DUP2 LT PUSH2 0x1FDF JUMPI JUMPDEST POP POP JUMPDEST PUSH2 0x198 PUSH2 0x18E0 PUSH2 0x1E9E JUMP JUMPDEST PUSH2 0x1FEF PUSH2 0x18E0 SWAP2 PUSH2 0x200A SWAP4 PUSH2 0x10D8 JUMP JUMPDEST MLOAD MLOAD PUSH2 0x2002 PUSH2 0x1FFC PUSH2 0x1C6F JUMP JUMPDEST DUP6 PUSH2 0x2D02 JUMP JUMPDEST PUSH2 0x1F79 PUSH2 0x1E76 JUMP JUMPDEST PUSH0 DUP1 PUSH2 0x1FD1 JUMP JUMPDEST SWAP2 POP SWAP2 PUSH0 JUMPDEST PUSH2 0x2027 PUSH2 0x133C PUSH1 0x20 DUP6 ADD MLOAD PUSH1 0xFF AND SWAP1 JUMP JUMPDEST DUP2 LT ISZERO PUSH2 0x20F5 JUMPI DUP1 PUSH2 0x203F PUSH2 0x135A PUSH1 0x1 SWAP4 DUP7 MLOAD PUSH2 0x10D8 JUMP JUMPDEST PUSH2 0x2048 DUP2 PUSH2 0xC4A JUMP JUMPDEST PUSH2 0x205B PUSH2 0x133C PUSH1 0x20 PUSH2 0x1B21 DUP6 DUP10 MLOAD PUSH2 0x10D8 JUMP JUMPDEST SWAP1 DUP4 DUP2 EQ PUSH2 0x20EE JUMPI PUSH2 0x206E SWAP1 DUP8 MLOAD PUSH2 0x10D8 JUMP JUMPDEST MLOAD SWAP1 PUSH1 0x60 DUP3 ADD MLOAD SWAP2 DUP3 MLOAD DUP1 ISZERO ISZERO SWAP1 DUP2 PUSH2 0x20E4 JUMPI JUMPDEST POP PUSH2 0x2092 JUMPI JUMPDEST POP POP POP JUMPDEST ADD PUSH2 0x2016 JUMP JUMPDEST PUSH1 0x20 PUSH2 0x20D4 PUSH2 0x20A7 PUSH2 0x189D SWAP5 PUSH2 0x20DC SWAP7 PUSH2 0x10D8 JUMP JUMPDEST MLOAD PUSH2 0x20B9 PUSH2 0x20B3 PUSH2 0x1C6F JUMP JUMPDEST DUP11 PUSH2 0x2D02 JUMP JUMPDEST DUP4 MLOAD SWAP1 PUSH2 0x20C5 DUP3 PUSH2 0xC4A JUMP JUMPDEST MLOAD PUSH2 0x20CE PUSH2 0x1D57 JUMP JUMPDEST SWAP2 PUSH2 0x2C38 JUMP JUMPDEST SWAP2 ADD MLOAD PUSH2 0x2BD1 JUMP JUMPDEST PUSH0 DUP1 DUP1 PUSH2 0x2088 JUMP JUMPDEST SWAP1 POP DUP3 LT PUSH0 PUSH2 0x2082 JUMP JUMPDEST POP POP PUSH2 0x208C JUMP JUMPDEST POP SWAP2 POP POP PUSH2 0x1FD4 JUMP JUMPDEST POP POP POP POP POP PUSH2 0x198 PUSH2 0x1C98 JUMP JUMPDEST PUSH0 NOT DUP2 ADD SWAP2 SWAP1 DUP3 GT PUSH2 0x14C2 JUMPI JUMP JUMPDEST SWAP2 SWAP1 DUP3 SUB SWAP2 DUP3 GT PUSH2 0x14C2 JUMPI JUMP JUMPDEST PUSH1 0x14 GT ISZERO PUSH2 0xC54 JUMPI JUMP JUMPDEST PUSH1 0xFF AND PUSH1 0x14 DUP2 LT ISZERO PUSH2 0xC54 JUMPI SWAP1 JUMP JUMPDEST PUSH1 0x40 MLOAD SWAP1 PUSH2 0x214E PUSH1 0x40 DUP4 PUSH2 0x11B JUMP JUMPDEST PUSH1 0x1D DUP3 MSTORE PUSH32 0x3C646566733E3C6C696E6561724772616469656E742069643D2262672D000000 PUSH1 0x20 DUP4 ADD MSTORE JUMP JUMPDEST PUSH1 0x40 MLOAD SWAP1 PUSH2 0x2189 PUSH1 0x40 DUP4 PUSH2 0x11B JUMP JUMPDEST PUSH1 0x6 DUP3 MSTORE PUSH6 0x11103C189E91 PUSH1 0xD1 SHL PUSH1 0x20 DUP4 ADD MSTORE JUMP JUMPDEST PUSH1 0x40 MLOAD SWAP1 PUSH2 0x21AD PUSH1 0x40 DUP4 PUSH2 0x11B JUMP JUMPDEST PUSH1 0x6 DUP3 MSTORE PUSH6 0x11103C989E91 PUSH1 0xD1 SHL PUSH1 0x20 DUP4 ADD MSTORE JUMP JUMPDEST PUSH1 0x40 MLOAD SWAP1 PUSH2 0x21D1 PUSH1 0x40 DUP4 PUSH2 0x11B JUMP JUMPDEST PUSH1 0x6 DUP3 MSTORE PUSH6 0x11103C191E91 PUSH1 0xD1 SHL PUSH1 0x20 DUP4 ADD MSTORE JUMP JUMPDEST PUSH1 0x40 MLOAD SWAP1 PUSH2 0x21F5 PUSH1 0x40 DUP4 PUSH2 0x11B JUMP JUMPDEST PUSH1 0x6 DUP3 MSTORE PUSH6 0x11103C991E91 PUSH1 0xD1 SHL PUSH1 0x20 DUP4 ADD MSTORE JUMP JUMPDEST PUSH1 0x40 MLOAD SWAP1 PUSH2 0x2219 PUSH1 0x40 DUP4 PUSH2 0x11B JUMP JUMPDEST PUSH1 0x2 DUP3 MSTORE PUSH2 0x111F PUSH1 0xF1 SHL PUSH1 0x20 DUP4 ADD MSTORE JUMP JUMPDEST PUSH4 0x4E487B71 PUSH1 0xE0 SHL PUSH0 MSTORE PUSH1 0x12 PUSH1 0x4 MSTORE PUSH1 0x24 PUSH0 REVERT JUMPDEST PUSH1 0x40 MLOAD SWAP1 PUSH2 0x224D PUSH1 0x80 DUP4 PUSH2 0x11B JUMP JUMPDEST PUSH1 0x43 DUP3 MSTORE PUSH3 0x62672D PUSH1 0xE8 SHL PUSH1 0x60 DUP4 PUSH32 0x3C2F6C696E6561724772616469656E743E3C2F646566733E3C72656374207769 PUSH1 0x20 DUP3 ADD MSTORE PUSH32 0x6474683D22343822206865696768743D223438222066696C6C3D2275726C2823 PUSH1 0x40 DUP3 ADD MSTORE ADD MSTORE JUMP JUMPDEST PUSH1 0x40 MLOAD SWAP1 PUSH2 0x22BA PUSH1 0x40 DUP4 PUSH2 0x11B JUMP JUMPDEST PUSH1 0x4 DUP3 MSTORE PUSH4 0x1491179F PUSH1 0xE1 SHL PUSH1 0x20 DUP4 ADD MSTORE JUMP JUMPDEST PUSH1 0x40 MLOAD SWAP1 PUSH2 0x22DC PUSH1 0x40 DUP4 PUSH2 0x11B JUMP JUMPDEST PUSH1 0x1D DUP3 MSTORE PUSH32 0x3C646566733E3C72616469616C4772616469656E742069643D2262672D000000 PUSH1 0x20 DUP4 ADD MSTORE JUMP JUMPDEST PUSH1 0x40 MLOAD SWAP1 PUSH2 0x2317 PUSH1 0x80 DUP4 PUSH2 0x11B JUMP JUMPDEST PUSH1 0x43 DUP3 MSTORE PUSH3 0x62672D PUSH1 0xE8 SHL PUSH1 0x60 DUP4 PUSH32 0x3C2F72616469616C4772616469656E743E3C2F646566733E3C72656374207769 PUSH1 0x20 DUP3 ADD MSTORE PUSH32 0x6474683D22343822206865696768743D223438222066696C6C3D2275726C2823 PUSH1 0x40 DUP3 ADD MSTORE ADD MSTORE JUMP JUMPDEST PUSH2 0x3E8 ADD SWAP1 DUP2 PUSH2 0x3E8 GT PUSH2 0x14C2 JUMPI JUMP JUMPDEST SWAP1 PUSH1 0x1 DUP3 ADD DUP1 SWAP3 GT PUSH2 0x14C2 JUMPI JUMP JUMPDEST SWAP2 SWAP1 DUP3 ADD DUP1 SWAP3 GT PUSH2 0x14C2 JUMPI JUMP JUMPDEST PUSH1 0x40 MLOAD SWAP1 PUSH2 0x23AF PUSH1 0x60 DUP4 PUSH2 0x11B JUMP JUMPDEST PUSH1 0x2F DUP3 MSTORE PUSH15 0x17B337B932B4B3B727B13532B1BA1F PUSH1 0x89 SHL PUSH1 0x40 DUP4 PUSH32 0x222077696474683D223130302522206865696768743D223130302522202F3E3C PUSH1 0x20 DUP3 ADD MSTORE ADD MSTORE JUMP JUMPDEST PUSH1 0x40 MLOAD SWAP1 PUSH2 0x2402 PUSH1 0x60 DUP4 PUSH2 0x11B JUMP JUMPDEST PUSH1 0x23 DUP3 MSTORE PUSH32 0x3C726563742077696474683D22343822206865696768743D223438222066696C PUSH1 0x20 DUP4 ADD MSTORE PUSH3 0x361E91 PUSH1 0xE9 SHL PUSH1 0x40 DUP4 ADD MSTORE JUMP JUMPDEST PUSH1 0x40 MLOAD SWAP1 PUSH2 0x2449 PUSH1 0x40 DUP4 PUSH2 0x11B JUMP JUMPDEST PUSH1 0x3 DUP3 MSTORE PUSH3 0x11179F PUSH1 0xE9 SHL PUSH1 0x20 DUP4 ADD MSTORE JUMP JUMPDEST SWAP3 SWAP2 SWAP1 SWAP3 PUSH1 0x1 SWAP1 PUSH1 0xC0 PUSH2 0x246F DUP4 DUP6 MLOAD PUSH2 0x10D8 JUMP JUMPDEST MLOAD SWAP5 ADD SWAP2 DUP3 MLOAD PUSH2 0x247E DUP2 PUSH2 0x1C8E JUMP JUMPDEST PUSH2 0x2487 DUP2 PUSH2 0x1C8E JUMP JUMPDEST PUSH1 0xFF PUSH1 0x60 DUP8 ADD SWAP2 DUP3 MLOAD MLOAD SWAP2 DUP3 SWAP2 AND LT ISZERO PUSH2 0x27B3 JUMPI POP PUSH2 0x24BE SWAP1 MLOAD PUSH2 0x24B8 DUP6 MLOAD PUSH2 0x24AF DUP2 PUSH2 0x1C8E JUMP JUMPDEST PUSH2 0x133C DUP2 PUSH2 0x1C8E JUMP JUMPDEST SWAP1 PUSH2 0x10D8 JUMP JUMPDEST MLOAD SWAP4 PUSH2 0x24D6 PUSH2 0x24D1 PUSH1 0x20 DUP8 ADD MLOAD PUSH1 0xFF AND SWAP1 JUMP JUMPDEST PUSH2 0x2130 JUMP JUMPDEST PUSH2 0x24DF DUP2 PUSH2 0x2126 JUMP JUMPDEST PUSH1 0x2 DUP2 SUB PUSH2 0x2571 JUMPI POP POP POP POP POP PUSH2 0x250A PUSH1 0xC0 PUSH1 0x40 SWAP3 ADD MLOAD PUSH2 0x2504 PUSH1 0x80 DUP6 ADD MLOAD PUSH1 0xFF AND SWAP1 JUMP JUMPDEST SWAP1 PUSH2 0x31BB JUMP JUMPDEST SWAP2 ADD DUP1 MLOAD MLOAD PUSH2 0xFFFF DUP4 AND SWAP3 DUP2 DUP5 LT ISZERO PUSH2 0x2557 JUMPI POP POP PUSH2 0x253E PUSH2 0x2534 PUSH2 0x14B SWAP5 SWAP4 PUSH2 0x254F SWAP4 MLOAD PUSH2 0x10D8 JUMP JUMPDEST MLOAD PUSH4 0xFFFFFFFF AND SWAP1 JUMP JUMPDEST PUSH2 0x2549 PUSH2 0x189D PUSH2 0x23F3 JUMP JUMPDEST DUP3 PUSH2 0x3279 JUMP JUMPDEST PUSH2 0x1BBD PUSH2 0x243A JUMP JUMPDEST PUSH4 0x395FBD4B PUSH1 0xE2 SHL PUSH0 MSTORE PUSH2 0xFFFF AND PUSH1 0x4 MSTORE PUSH1 0x24 MSTORE PUSH1 0x44 JUMPDEST PUSH0 REVERT JUMPDEST SWAP1 SWAP3 SWAP5 SWAP2 SWAP4 SWAP7 SWAP6 POP PUSH2 0x2582 DUP2 PUSH2 0x2126 JUMP JUMPDEST DUP1 DUP5 SUB PUSH2 0x2620 JUMPI POP POP POP POP PUSH0 SWAP1 PUSH2 0x25AE PUSH2 0x25CF SWAP5 MLOAD PUSH2 0x25A0 DUP2 PUSH2 0x1C8E JUMP JUMPDEST PUSH2 0x25A9 DUP2 PUSH2 0x1C8E JUMP JUMPDEST PUSH2 0x2375 JUMP JUMPDEST SWAP1 PUSH1 0x40 MLOAD DUP1 DUP1 SWAP7 DUP2 SWAP5 PUSH4 0x69DDE379 PUSH1 0xE0 SHL DUP4 MSTORE PUSH1 0x4 DUP4 ADD SWAP2 SWAP1 PUSH1 0x20 DUP4 ADD SWAP3 MSTORE JUMP JUMPDEST SUB SWAP2 PUSH1 0x1 PUSH1 0x1 PUSH1 0xA0 SHL SUB AND GAS STATICCALL SWAP2 DUP3 ISZERO PUSH2 0xBF9 JUMPI PUSH2 0x14B SWAP3 PUSH2 0x25FE SWAP2 PUSH0 SWAP2 PUSH2 0x2606 JUMPI JUMPDEST POP PUSH2 0x18C4 PUSH2 0x189D PUSH2 0x167B JUMP JUMPDEST PUSH2 0x1BBD PUSH2 0x23A0 JUMP JUMPDEST PUSH2 0x261A SWAP2 POP RETURNDATASIZE DUP1 PUSH0 DUP4 RETURNDATACOPY PUSH2 0x193A DUP2 DUP4 PUSH2 0x11B JUMP JUMPDEST PUSH0 PUSH2 0x25F2 JUMP JUMPDEST SWAP1 SWAP3 SWAP6 SWAP2 SWAP4 POP PUSH2 0x262F DUP2 PUSH2 0x2126 JUMP JUMPDEST PUSH1 0x13 DUP2 SUB PUSH2 0x269B JUMPI POP PUSH2 0x2693 SWAP3 SWAP2 PUSH2 0x14B SWAP6 PUSH2 0x265B PUSH2 0x2688 SWAP4 MLOAD PUSH2 0x2652 DUP2 PUSH2 0x1C8E JUMP JUMPDEST PUSH2 0x1F14 DUP2 PUSH2 0x1C8E JUMP JUMPDEST SWAP4 PUSH2 0x266D PUSH2 0x2667 PUSH2 0x22CD JUMP JUMPDEST DUP9 PUSH2 0x2D02 JUMP JUMPDEST PUSH2 0x2677 DUP6 DUP9 PUSH2 0x2D02 JUMP JUMPDEST PUSH2 0x2682 PUSH2 0x2667 PUSH2 0x220A JUMP JUMPDEST DUP7 PUSH2 0x2F6D JUMP JUMPDEST PUSH2 0x18E0 PUSH2 0x189D PUSH2 0x2308 JUMP JUMPDEST PUSH2 0x1BBD PUSH2 0x22AB JUMP JUMPDEST SWAP2 PUSH2 0x14B SWAP6 PUSH2 0x26B2 PUSH2 0x2693 SWAP6 SWAP4 MLOAD PUSH2 0x2652 DUP2 PUSH2 0x1C8E JUMP JUMPDEST SWAP4 PUSH2 0x26BE PUSH2 0x2667 PUSH2 0x213F JUMP JUMPDEST PUSH2 0x26C8 DUP6 DUP9 PUSH2 0x2D02 JUMP JUMPDEST PUSH2 0x26D3 PUSH2 0x2667 PUSH2 0x217A JUMP JUMPDEST PUSH2 0x26EA PUSH2 0x2667 PUSH2 0x1F14 PUSH2 0x133C PUSH1 0x40 DUP8 ADD MLOAD PUSH1 0xFF AND SWAP1 JUMP JUMPDEST PUSH2 0x26F5 PUSH2 0x2667 PUSH2 0x219E JUMP JUMPDEST PUSH2 0x270C PUSH2 0x2667 PUSH2 0x1F14 PUSH2 0x133C PUSH1 0x60 DUP8 ADD MLOAD PUSH1 0xFF AND SWAP1 JUMP JUMPDEST PUSH2 0x2717 PUSH2 0x2667 PUSH2 0x21C2 JUMP JUMPDEST PUSH2 0x272E PUSH2 0x2667 PUSH2 0x1F14 PUSH2 0x133C PUSH1 0x80 DUP8 ADD MLOAD PUSH1 0xFF AND SWAP1 JUMP JUMPDEST PUSH2 0x2739 PUSH2 0x2667 PUSH2 0x21E6 JUMP JUMPDEST PUSH2 0x2750 PUSH2 0x2667 PUSH2 0x1F14 PUSH2 0x133C PUSH1 0xA0 DUP8 ADD MLOAD PUSH1 0xFF AND SWAP1 JUMP JUMPDEST PUSH2 0x275B PUSH2 0x2667 PUSH2 0x220A JUMP JUMPDEST PUSH2 0x2764 DUP2 PUSH2 0x2126 JUMP JUMPDEST PUSH1 0x1 DUP2 AND ISZERO SWAP1 DUP2 PUSH2 0x279A JUMPI JUMPDEST POP ISZERO PUSH2 0x278B JUMPI PUSH2 0x2780 SWAP3 DUP7 PUSH2 0x30A1 JUMP JUMPDEST PUSH2 0x18E0 PUSH2 0x189D PUSH2 0x223E JUMP JUMPDEST PUSH2 0x2795 SWAP3 DUP7 PUSH2 0x2F6D JUMP JUMPDEST PUSH2 0x2780 JUMP JUMPDEST PUSH1 0x4 SWAP2 POP DUP1 PUSH2 0x27AA PUSH1 0xFF SWAP3 PUSH2 0x2126 JUMP JUMPDEST AND LT ISZERO PUSH0 PUSH2 0x2770 JUMP JUMPDEST PUSH2 0x256E SWAP1 DUP6 SWAP1 DUP5 SWAP1 DUP1 ISZERO PUSH2 0x2801 JUMPI PUSH2 0x27CC PUSH1 0xFF SWAP2 PUSH2 0x210B JUMP JUMPDEST SWAP3 JUMPDEST MLOAD SWAP2 PUSH2 0x27D9 DUP4 PUSH2 0x1C8E JUMP JUMPDEST PUSH2 0x27E2 DUP4 PUSH2 0x1C8E JUMP JUMPDEST PUSH4 0xAD073313 PUSH1 0xE0 SHL PUSH0 MSTORE PUSH1 0xFF SWAP2 AND DUP2 AND PUSH1 0x4 MSTORE AND PUSH1 0x24 MSTORE PUSH1 0x44 MSTORE PUSH1 0x64 SWAP1 JUMP JUMPDEST POP PUSH1 0xFF PUSH0 SWAP3 PUSH2 0x27CE JUMP JUMPDEST PUSH0 NOT DUP2 EQ PUSH2 0x14C2 JUMPI PUSH1 0x1 ADD SWAP1 JUMP JUMPDEST SWAP1 DUP2 MLOAD DUP2 LT ISZERO PUSH2 0x10C6 JUMPI ADD PUSH1 0x20 ADD SWAP1 JUMP JUMPDEST SWAP3 SWAP1 PUSH2 0x283B SWAP1 MLOAD PUSH1 0xFF DUP5 AND SWAP1 PUSH2 0x10D8 JUMP JUMPDEST MLOAD SWAP2 PUSH1 0x60 DUP4 ADD SWAP1 DUP2 MLOAD MLOAD SWAP3 PUSH1 0xFF DUP2 AND SWAP4 DUP1 DUP6 LT ISZERO PUSH2 0x2A6C JUMPI POP POP POP SWAP1 PUSH2 0x2861 SWAP2 MLOAD PUSH2 0x10D8 JUMP JUMPDEST MLOAD PUSH1 0xC0 DUP2 ADD DUP1 MLOAD MLOAD DUP1 ISZERO PUSH2 0x2A5A JUMPI POP MLOAD SWAP3 PUSH0 SWAP4 DUP1 MLOAD SWAP2 PUSH1 0x40 DUP5 ADD SWAP4 PUSH2 0x288A PUSH2 0x133C DUP7 MLOAD PUSH1 0xFF AND SWAP1 JUMP JUMPDEST SWAP3 PUSH2 0x289C PUSH2 0x133C PUSH1 0x60 DUP5 ADD MLOAD PUSH1 0xFF AND SWAP1 JUMP JUMPDEST SWAP8 PUSH1 0x80 PUSH1 0x40 DUP2 DUP11 ADD SWAP10 ADD SWAP4 ADD SWAP6 JUMPDEST DUP1 DUP3 LT PUSH2 0x28BD JUMPI POP POP POP POP POP POP POP POP POP POP JUMP JUMPDEST PUSH2 0x28EA PUSH2 0x28E4 PUSH2 0x28D6 PUSH2 0x28CF DUP6 PUSH2 0x280B JUMP JUMPDEST SWAP5 DUP7 PUSH2 0x2819 JUMP JUMPDEST MLOAD PUSH1 0x1 PUSH1 0x1 PUSH1 0xF8 SHL SUB NOT AND SWAP1 JUMP JUMPDEST PUSH1 0xF8 SHR SWAP1 JUMP JUMPDEST PUSH1 0x1 PUSH2 0x28FA PUSH2 0x133C DUP13 MLOAD PUSH1 0xFF AND SWAP1 JUMP JUMPDEST SUB PUSH2 0x2A16 JUMPI PUSH2 0x291B PUSH2 0x133C PUSH2 0x28E4 PUSH2 0x28D6 PUSH2 0x2914 DUP8 PUSH2 0x280B JUMP JUMPDEST SWAP7 DUP9 PUSH2 0x2819 JUMP JUMPDEST DUP6 MLOAD MLOAD PUSH2 0xFFFF DUP3 AND SWAP2 DUP2 DUP4 LT ISZERO PUSH2 0x2557 JUMPI POP POP PUSH2 0x2534 PUSH2 0x293C SWAP2 DUP8 MLOAD PUSH2 0x10D8 JUMP JUMPDEST PUSH1 0xFF PUSH0 SWAP3 AND SWAP1 PUSH1 0xFF DUP2 AND ISZERO ISZERO SWAP1 JUMPDEST DUP3 PUSH1 0xFF DUP6 AND LT PUSH2 0x295D JUMPI POP POP POP POP PUSH2 0x28AA JUMP JUMPDEST SWAP1 SWAP2 SWAP3 SWAP9 DUP14 SWAP15 SWAP14 PUSH1 0x30 DUP3 LT SWAP1 DUP2 ISZERO SWAP2 PUSH2 0x2A0A JUMPI JUMPDEST POP PUSH2 0x29EE JUMPI PUSH2 0x298B SWAP1 DUP16 SWAP15 SWAP16 DUP4 DUP6 PUSH2 0x29D6 JUMPI JUMPDEST POP POP PUSH2 0x280B JUMP JUMPDEST SWAP9 PUSH2 0x299A PUSH2 0x133C DUP13 MLOAD PUSH1 0xFF AND SWAP1 JUMP JUMPDEST DUP11 GT PUSH2 0x29AF JUMPI JUMPDEST PUSH1 0x1 ADD PUSH1 0xFF AND SWAP3 SWAP2 SWAP1 PUSH2 0x294A JUMP JUMPDEST SWAP13 SWAP9 POP PUSH1 0xFF PUSH1 0x1 PUSH2 0x29CD PUSH2 0x29C7 PUSH2 0x133C DUP16 MLOAD PUSH1 0xFF AND SWAP1 JUMP JUMPDEST SWAP12 PUSH2 0x280B JUMP JUMPDEST SWAP15 SWAP2 POP POP PUSH2 0x29A1 JUMP JUMPDEST PUSH1 0xFF PUSH2 0x29E7 SWAP3 AND PUSH1 0xFF DUP5 AND DUP14 PUSH2 0x33BB JUMP JUMPDEST DUP15 DUP4 PUSH2 0x2984 JUMP JUMPDEST PUSH4 0xB49A7ED PUSH1 0xE1 SHL PUSH0 MSTORE PUSH1 0xFF SWAP1 DUP2 AND PUSH1 0x4 MSTORE DUP15 AND PUSH1 0x24 MSTORE PUSH1 0x44 PUSH0 REVERT JUMPDEST PUSH1 0x30 SWAP2 POP LT ISZERO DUP16 PUSH2 0x2971 JUMP JUMPDEST PUSH2 0x2A3F PUSH2 0x2A35 PUSH2 0x133C PUSH2 0x28E4 PUSH2 0x28D6 PUSH2 0x2A2E DUP9 PUSH2 0x280B JUMP JUMPDEST SWAP8 DUP10 PUSH2 0x2819 JUMP JUMPDEST PUSH1 0x8 SHL PUSH2 0xFF00 AND SWAP1 JUMP JUMPDEST PUSH2 0x2A54 PUSH2 0x133C PUSH2 0x28E4 PUSH2 0x28D6 PUSH2 0x2A2E DUP9 PUSH2 0x280B JUMP JUMPDEST OR PUSH2 0x291B JUMP JUMPDEST PUSH4 0x7F5AB42B PUSH1 0xE1 SHL PUSH0 MSTORE PUSH1 0x4 MSTORE PUSH1 0x24 PUSH0 REVERT JUMPDEST PUSH2 0x256E SWAP4 POP DUP1 ISZERO PUSH2 0x2AA0 JUMPI PUSH2 0x2A80 SWAP1 PUSH2 0x210B JUMP JUMPDEST SWAP2 JUMPDEST PUSH4 0xAD073313 PUSH1 0xE0 SHL PUSH0 MSTORE PUSH1 0xFF SWAP1 DUP2 AND PUSH1 0x4 MSTORE AND PUSH1 0x24 MSTORE PUSH1 0x44 MSTORE PUSH1 0x64 SWAP1 JUMP JUMPDEST POP PUSH0 SWAP2 PUSH2 0x2A82 JUMP JUMPDEST DUP1 MLOAD SWAP2 SWAP1 DUP3 SWAP1 PUSH1 0x20 ADD DUP3 MCOPY ADD PUSH0 DUP2 MSTORE SWAP1 JUMP JUMPDEST SWAP1 PUSH2 0x14B PUSH2 0x2AF1 SWAP3 PUSH1 0x40 MLOAD SWAP4 DUP5 SWAP2 PUSH22 0x19185D184E9A5B5859D94BDC1B99CED8985CD94D8D0B PUSH1 0x52 SHL PUSH1 0x20 DUP5 ADD MSTORE PUSH1 0x36 DUP4 ADD SWAP1 PUSH2 0x2AA8 JUMP JUMPDEST SUB PUSH1 0x1F NOT DUP2 ADD DUP5 MSTORE DUP4 PUSH2 0x11B JUMP JUMPDEST PUSH0 JUMPDEST PUSH1 0x30 DUP2 LT PUSH2 0x2B23 JUMPI POP PUSH2 0x2B1E PUSH2 0x2B19 PUSH2 0x198 SWAP3 PUSH2 0x3589 JUMP JUMPDEST PUSH2 0x3CAE JUMP JUMPDEST PUSH2 0x2ABA JUMP JUMPDEST SWAP2 SWAP1 PUSH0 JUMPDEST PUSH1 0x30 DUP2 LT PUSH2 0x2B3A JUMPI POP SWAP1 SWAP2 PUSH1 0x1 ADD PUSH2 0x2B01 JUMP JUMPDEST DUP1 PUSH4 0x5F5D6EFF PUSH2 0x2B6A PUSH4 0xFFFFFFFF PUSH2 0x2B5F PUSH1 0x1 SWAP6 PUSH2 0x2B59 DUP11 DUP10 MLOAD PUSH2 0x33AA JUMP JUMPDEST MLOAD PUSH2 0x33AA JUMP JUMPDEST MLOAD AND PUSH4 0xFFFFFFFF AND SWAP1 JUMP JUMPDEST EQ PUSH2 0x2B76 JUMPI JUMPDEST ADD PUSH2 0x2B27 JUMP JUMPDEST PUSH0 PUSH2 0x2B86 DUP3 PUSH2 0x2B59 DUP9 DUP8 MLOAD PUSH2 0x33AA JUMP JUMPDEST MSTORE PUSH2 0x2B70 JUMP JUMPDEST SWAP1 PUSH1 0x40 MLOAD PUSH1 0xA PUSH1 0x80 DUP3 ADD SWAP4 PUSH1 0xA0 DUP4 ADD PUSH1 0x40 MSTORE PUSH0 DUP6 MSTORE SWAP4 JUMPDEST PUSH0 NOT ADD SWAP4 PUSH1 0x30 DUP3 DUP3 MOD ADD DUP6 MSTORE8 DIV SWAP3 DUP4 ISZERO PUSH2 0x2BBF JUMPI PUSH1 0xA SWAP1 PUSH2 0x2BA3 JUMP JUMPDEST DUP1 SWAP4 POP PUSH1 0x80 SWAP2 SUB ADD SWAP2 PUSH1 0x1F NOT ADD SWAP2 DUP3 MSTORE JUMP JUMPDEST PUSH1 0x2 PUSH2 0x14B SWAP2 PUSH2 0x2C21 PUSH2 0x2C09 SWAP6 SWAP5 PUSH1 0xB PUSH1 0x40 MLOAD SWAP8 DUP9 SWAP5 PUSH15 0x3D913A3930B4BA2FBA3CB832911D11 PUSH1 0x89 SHL PUSH1 0x20 DUP8 ADD MSTORE PUSH1 0x2F DUP7 ADD SWAP1 PUSH2 0x2AA8 JUMP JUMPDEST PUSH11 0x1116113B30B63AB2911D11 PUSH1 0xA9 SHL DUP2 MSTORE ADD SWAP1 PUSH2 0x2AA8 JUMP JUMPDEST PUSH2 0x227D PUSH1 0xF0 SHL DUP2 MSTORE SUB PUSH1 0x1D NOT DUP2 ADD DUP6 MSTORE ADD DUP4 PUSH2 0x11B JUMP JUMPDEST SWAP2 SWAP1 SWAP2 PUSH2 0x2C44 DUP2 PUSH2 0xC4A JUMP JUMPDEST PUSH1 0xA DUP2 EQ SWAP1 DUP2 ISZERO PUSH2 0x2CED JUMPI JUMPDEST DUP2 ISZERO PUSH2 0x2CD8 JUMPI JUMPDEST DUP2 ISZERO PUSH2 0x2CC3 JUMPI JUMPDEST DUP2 ISZERO PUSH2 0x2CAE JUMPI JUMPDEST DUP2 ISZERO PUSH2 0x2C99 JUMPI JUMPDEST DUP2 ISZERO PUSH2 0x2C85 JUMPI JUMPDEST POP PUSH2 0x2C7C JUMPI POP SWAP1 JUMP JUMPDEST PUSH2 0x198 SWAP2 PUSH2 0x3715 JUMP JUMPDEST PUSH1 0x7 SWAP2 POP PUSH2 0x2C92 DUP2 PUSH2 0xC4A JUMP JUMPDEST EQ PUSH0 PUSH2 0x2C73 JUMP JUMPDEST SWAP1 POP PUSH2 0x2CA4 DUP2 PUSH2 0xC4A JUMP JUMPDEST PUSH1 0x18 DUP2 EQ SWAP1 PUSH2 0x2C6C JUMP JUMPDEST SWAP1 POP PUSH2 0x2CB9 DUP2 PUSH2 0xC4A JUMP JUMPDEST PUSH1 0xD DUP2 EQ SWAP1 PUSH2 0x2C65 JUMP JUMPDEST SWAP1 POP PUSH2 0x2CCE DUP2 PUSH2 0xC4A JUMP JUMPDEST PUSH1 0x16 DUP2 EQ SWAP1 PUSH2 0x2C5E JUMP JUMPDEST SWAP1 POP PUSH2 0x2CE3 DUP2 PUSH2 0xC4A JUMP JUMPDEST PUSH1 0xB DUP2 EQ SWAP1 PUSH2 0x2C57 JUMP JUMPDEST SWAP1 POP PUSH2 0x2CF8 DUP2 PUSH2 0xC4A JUMP JUMPDEST PUSH1 0x15 DUP2 EQ SWAP1 PUSH2 0x2C50 JUMP JUMPDEST SWAP1 PUSH2 0x2D0E DUP2 MLOAD DUP4 PUSH2 0x388C JUMP JUMPDEST DUP1 MLOAD SWAP1 PUSH1 0x20 DUP3 DUP2 DUP4 ADD SWAP3 ADD ADD SWAP1 PUSH1 0x20 DUP5 MLOAD DUP6 ADD ADD SWAP1 JUMPDEST DUP3 DUP2 LT PUSH2 0x2D35 JUMPI POP POP POP DUP2 MLOAD ADD SWAP1 MSTORE JUMP JUMPDEST DUP1 MLOAD DUP3 MSTORE PUSH1 0x20 SWAP2 DUP3 ADD SWAP2 ADD PUSH2 0x2D24 JUMP JUMPDEST DUP2 MLOAD DUP1 ISZERO PUSH2 0x2E29 JUMPI PUSH1 0x3 PUSH1 0x2 DUP3 ADD DIV PUSH1 0x2 SHL SWAP1 PUSH1 0x3 DUP2 MOD SWAP1 PUSH2 0x2D67 DUP4 DUP6 PUSH2 0x388C JUMP JUMPDEST PUSH1 0x40 MLOAD SWAP5 PUSH32 0x4142434445464748494A4B4C4D4E4F505152535455565758595A616263646566 PUSH1 0x1F MSTORE PUSH2 0x22F NOT PUSH32 0x6768696A6B6C6D6E6F707172737475767778797A303132333435363738392D5F ADD PUSH1 0x3F MSTORE PUSH1 0x4 PUSH1 0x3 PUSH1 0x20 DUP8 MLOAD DUP9 ADD ADD SWAP4 DUP4 ADD SWAP3 JUMPDEST ADD SWAP3 PUSH1 0x3F DUP5 MLOAD DUP2 DUP2 PUSH1 0x12 SHR AND MLOAD DUP4 MSTORE8 DUP2 DUP2 PUSH1 0xC SHR AND MLOAD PUSH1 0x1 DUP5 ADD MSTORE8 DUP2 DUP2 PUSH1 0x6 SHR AND MLOAD PUSH1 0x2 DUP5 ADD MSTORE8 AND MLOAD PUSH1 0x3 DUP3 ADD MSTORE8 ADD SWAP2 DUP2 DUP2 LT ISZERO PUSH2 0x2E0A JUMPI PUSH1 0x3 PUSH1 0x4 SWAP2 PUSH2 0x2DC8 JUMP JUMPDEST POP POP PUSH1 0x1 PUSH1 0x3D SWAP3 DUP4 DUP2 ISZERO ISZERO DUP5 SUB MSTORE8 EQ PUSH1 0x1 SHL SWAP1 SUB MSTORE8 DUP2 MLOAD ADD SWAP1 MSTORE PUSH1 0x40 MSTORE JUMP JUMPDEST POP POP POP JUMP JUMPDEST ISZERO PUSH2 0x2E35 JUMPI JUMP JUMPDEST PUSH1 0x40 MLOAD PUSH3 0x461BCD PUSH1 0xE5 SHL DUP2 MSTORE PUSH1 0x20 PUSH1 0x4 DUP3 ADD MSTORE PUSH1 0x31 PUSH1 0x24 DUP3 ADD MSTORE PUSH32 0x54726169744461746120697320656D7074792C20636F756C646E277420666574 PUSH1 0x44 DUP3 ADD MSTORE PUSH17 0x6368206772616469656E742073746F7073 PUSH1 0x78 SHL PUSH1 0x64 DUP3 ADD MSTORE PUSH1 0x84 SWAP1 REVERT JUMPDEST DUP2 ISZERO PUSH2 0x2E9E JUMPI DIV SWAP1 JUMP JUMPDEST PUSH2 0x222A JUMP JUMPDEST DUP2 DUP2 MUL SWAP3 SWAP2 DUP2 ISZERO SWAP2 DUP5 DIV EQ OR ISZERO PUSH2 0x14C2 JUMPI JUMP JUMPDEST SWAP1 PUSH1 0x64 DUP3 MUL SWAP2 DUP1 DUP4 SDIV PUSH1 0x64 EQ SWAP1 ISZERO OR ISZERO PUSH2 0x14C2 JUMPI JUMP JUMPDEST SWAP1 PUSH3 0xF4240 DUP3 MUL SWAP2 DUP1 DUP4 SDIV PUSH3 0xF4240 EQ SWAP1 ISZERO OR ISZERO PUSH2 0x14C2 JUMPI JUMP JUMPDEST DUP2 ISZERO PUSH2 0x2E9E JUMPI PUSH1 0x1 PUSH1 0xFF SHL DUP2 EQ PUSH0 NOT DUP4 EQ AND PUSH2 0x14C2 JUMPI SDIV SWAP1 JUMP JUMPDEST PUSH1 0x40 MLOAD SWAP1 PUSH2 0x2F0F PUSH1 0x40 DUP4 PUSH2 0x11B JUMP JUMPDEST PUSH1 0xE DUP3 MSTORE PUSH14 0x1E39BA37B81037B33339B2BA1E91 PUSH1 0x91 SHL PUSH1 0x20 DUP4 ADD MSTORE JUMP JUMPDEST PUSH1 0x40 MLOAD SWAP1 PUSH2 0x2F3B PUSH1 0x40 DUP4 PUSH2 0x11B JUMP JUMPDEST PUSH1 0x3 DUP3 MSTORE PUSH3 0x12911 PUSH1 0xED SHL PUSH1 0x20 DUP4 ADD MSTORE JUMP JUMPDEST PUSH1 0x40 MLOAD SWAP1 PUSH2 0x2F5C PUSH1 0x40 DUP4 PUSH2 0x11B JUMP JUMPDEST PUSH1 0x2 DUP3 MSTORE PUSH2 0x179F PUSH1 0xF1 SHL PUSH1 0x20 DUP4 ADD MSTORE JUMP JUMPDEST SWAP3 SWAP2 PUSH2 0x2F7C SWAP1 PUSH1 0xC0 SWAP3 MLOAD PUSH2 0x10D8 JUMP JUMPDEST MLOAD SWAP2 ADD SWAP1 PUSH2 0x2F8D DUP3 MLOAD MLOAD ISZERO ISZERO PUSH2 0x2E2E JUMP JUMPDEST DUP2 MLOAD MLOAD SWAP1 PUSH2 0x2FAD PUSH1 0x80 DUP3 ADD SWAP3 PUSH2 0x2FA7 PUSH2 0x133C DUP6 MLOAD PUSH1 0xFF AND SWAP1 JUMP JUMPDEST SWAP1 PUSH2 0x2E94 JUMP JUMPDEST SWAP2 PUSH1 0x40 PUSH0 SWAP3 ADD SWAP2 JUMPDEST DUP4 DUP2 LT PUSH2 0x2FC4 JUMPI POP POP POP POP POP POP JUMP JUMPDEST PUSH2 0x2FEB DUP6 MLOAD PUSH2 0x2FE0 PUSH2 0x2FDA PUSH2 0x133C DUP7 MLOAD PUSH1 0xFF AND SWAP1 JUMP JUMPDEST DUP5 PUSH2 0x2EA3 JUMP JUMPDEST DUP5 MLOAD PUSH1 0xFF AND SWAP2 PUSH2 0x320E JUMP JUMPDEST DUP4 MLOAD MLOAD PUSH2 0xFFFF DUP3 AND SWAP2 DUP2 DUP4 LT ISZERO PUSH2 0x2557 JUMPI POP POP SWAP1 PUSH2 0x3062 PUSH2 0x3012 PUSH2 0x2534 PUSH1 0x1 SWAP5 DUP8 MLOAD PUSH2 0x10D8 JUMP JUMPDEST PUSH2 0x3051 PUSH2 0x3040 PUSH2 0x303B PUSH2 0x302C PUSH2 0x3027 DUP8 PUSH2 0x2EB6 JUMP JUMPDEST PUSH2 0x2ECC JUMP JUMPDEST PUSH2 0x3035 DUP12 PUSH2 0x210B JUMP JUMPDEST SWAP1 PUSH2 0x2EE6 JUMP JUMPDEST PUSH2 0x38B5 JUMP JUMPDEST PUSH2 0x20B3 PUSH2 0x304B PUSH2 0x2F00 JUMP JUMPDEST DUP13 PUSH2 0x2D02 JUMP JUMPDEST PUSH2 0x305C PUSH2 0x20B3 PUSH2 0x2F2C JUMP JUMPDEST DUP9 PUSH2 0x39DB JUMP JUMPDEST PUSH2 0x306D PUSH2 0x2667 PUSH2 0x2F4D JUMP JUMPDEST ADD PUSH2 0x2FB5 JUMP JUMPDEST PUSH1 0x40 MLOAD SWAP1 PUSH2 0x3082 PUSH1 0x40 DUP4 PUSH2 0x11B JUMP JUMPDEST PUSH1 0x10 DUP3 MSTORE PUSH16 0x179F1E39BA37B81037B33339B2BA1E91 PUSH1 0x81 SHL PUSH1 0x20 DUP4 ADD MSTORE JUMP JUMPDEST SWAP2 PUSH2 0x30AF SWAP1 PUSH1 0xC0 SWAP3 MLOAD PUSH2 0x10D8 JUMP JUMPDEST MLOAD SWAP3 ADD SWAP1 PUSH2 0x30C0 DUP3 MLOAD MLOAD ISZERO ISZERO PUSH2 0x2E2E JUMP JUMPDEST DUP2 MLOAD MLOAD SWAP3 PUSH2 0x30DA PUSH1 0x80 DUP3 ADD SWAP5 PUSH2 0x2FA7 PUSH2 0x133C DUP8 MLOAD PUSH1 0xFF AND SWAP1 JUMP JUMPDEST SWAP4 PUSH1 0x40 PUSH0 SWAP3 ADD SWAP2 JUMPDEST DUP6 DUP2 LT PUSH2 0x30F1 JUMPI POP POP POP POP POP POP JUMP JUMPDEST PUSH2 0x3107 DUP6 MLOAD PUSH2 0x2FE0 PUSH2 0x2FDA PUSH2 0x133C DUP7 MLOAD PUSH1 0xFF AND SWAP1 JUMP JUMPDEST DUP4 MLOAD MLOAD PUSH2 0xFFFF DUP3 AND SWAP2 DUP2 DUP4 LT ISZERO PUSH2 0x2557 JUMPI POP POP SWAP1 PUSH2 0x31A4 PUSH2 0x312E PUSH2 0x2534 PUSH1 0x1 SWAP5 DUP8 MLOAD PUSH2 0x10D8 JUMP JUMPDEST PUSH2 0x3193 PUSH2 0x3149 PUSH2 0x303B DUP12 PUSH2 0x3144 PUSH2 0x3027 DUP9 PUSH2 0x2EB6 JUMP JUMPDEST PUSH2 0x2EE6 JUMP JUMPDEST PUSH2 0x3173 PUSH2 0x3167 PUSH2 0x303B DUP14 PUSH2 0x3144 PUSH2 0x3027 PUSH2 0x3162 DUP12 PUSH2 0x2385 JUMP JUMPDEST PUSH2 0x2EB6 JUMP JUMPDEST SWAP2 PUSH2 0x20B3 PUSH2 0x304B PUSH2 0x2F00 JUMP JUMPDEST PUSH2 0x317E PUSH2 0x20B3 PUSH2 0x2F2C JUMP JUMPDEST PUSH2 0x3188 DUP4 DUP11 PUSH2 0x39DB JUMP JUMPDEST PUSH2 0x2667 PUSH2 0x20B3 PUSH2 0x3073 JUMP JUMPDEST PUSH2 0x319E PUSH2 0x2667 PUSH2 0x2F2C JUMP JUMPDEST DUP7 PUSH2 0x39DB JUMP JUMPDEST PUSH2 0x31B5 PUSH2 0x31AF PUSH2 0x2F4D JUMP JUMPDEST DUP7 PUSH2 0x2D02 JUMP JUMPDEST ADD PUSH2 0x30E2 JUMP JUMPDEST SWAP1 PUSH1 0xFF AND PUSH1 0x1 EQ PUSH2 0x31FD JUMPI DUP1 MLOAD ISZERO PUSH2 0x10C6 JUMPI PUSH1 0x20 DUP2 ADD MLOAD PUSH1 0xF0 SHR PUSH2 0xFF00 AND SWAP1 PUSH2 0x31F9 SWAP1 PUSH2 0x133C SWAP1 PUSH2 0x28E4 SWAP1 PUSH2 0x28D6 SWAP1 PUSH2 0x31F3 PUSH0 PUSH2 0x2385 JUMP JUMPDEST SWAP1 PUSH2 0x2819 JUMP JUMPDEST OR SWAP1 JUMP JUMPDEST DUP1 MLOAD ISZERO PUSH2 0x10C6 JUMPI PUSH1 0x20 ADD MLOAD PUSH1 0xF8 SHR SWAP1 JUMP JUMPDEST SWAP1 SWAP2 PUSH1 0xFF AND PUSH1 0x1 EQ PUSH2 0x3249 JUMPI PUSH1 0xFF PUSH2 0x323F DUP3 PUSH2 0x31F3 PUSH2 0xFF00 PUSH2 0x3231 DUP8 DUP7 SWAP8 PUSH2 0x2819 JUMP JUMPDEST MLOAD PUSH1 0xF8 SHR PUSH1 0x8 SHL AND SWAP6 PUSH2 0x2385 JUMP JUMPDEST MLOAD PUSH1 0xF8 SHR AND AND OR SWAP1 JUMP JUMPDEST SWAP1 PUSH2 0x3253 SWAP2 PUSH2 0x2819 JUMP JUMPDEST MLOAD PUSH1 0xF8 SHR SWAP1 JUMP JUMPDEST PUSH1 0x40 MLOAD SWAP1 PUSH2 0x3269 PUSH1 0x40 DUP4 PUSH2 0x11B JUMP JUMPDEST PUSH1 0x1 DUP3 MSTORE PUSH1 0x23 PUSH1 0xF8 SHL PUSH1 0x20 DUP4 ADD MSTORE JUMP JUMPDEST PUSH1 0x18 DUP3 SWAP1 SHR PUSH1 0xFF AND SWAP1 PUSH2 0x32B0 PUSH1 0xFF PUSH2 0x329A PUSH2 0x32A4 DUP3 PUSH1 0x10 DUP9 SWAP1 SHR PUSH2 0xFFFF AND DUP4 JUMP JUMPDEST AND PUSH4 0xFFFFFFFF AND SWAP1 JUMP JUMPDEST SWAP6 PUSH1 0x8 SHR PUSH3 0xFFFFFF AND SWAP1 JUMP JUMPDEST SWAP3 PUSH2 0x32BC PUSH2 0x1A88 PUSH2 0x325A JUMP JUMPDEST PUSH2 0x32C9 PUSH1 0xFF DUP5 AND PUSH1 0x4 SHR SWAP1 JUMP JUMPDEST SWAP3 PUSH1 0x10 DUP5 LT ISZERO PUSH2 0x10C6 JUMPI PUSH1 0xF AND SWAP4 PUSH1 0x10 DUP6 LT ISZERO PUSH2 0x10C6 JUMPI PUSH2 0x32EA DUP3 PUSH1 0x4 SHR SWAP1 JUMP JUMPDEST SWAP2 PUSH1 0x10 DUP4 LT ISZERO PUSH2 0x10C6 JUMPI PUSH1 0xF AND SWAP5 PUSH1 0x10 DUP7 LT ISZERO PUSH2 0x10C6 JUMPI PUSH2 0x330B DUP3 PUSH1 0x4 SHR SWAP1 JUMP JUMPDEST SWAP2 PUSH1 0x10 DUP4 LT ISZERO PUSH2 0x10C6 JUMPI PUSH1 0xF AND SWAP2 PUSH1 0x10 DUP4 LT ISZERO PUSH2 0x10C6 JUMPI PUSH1 0x40 MLOAD PUSH16 0x181899199A1A9B1B9C1CB0B131B232B3 PUSH1 0x81 SHL SWAP7 DUP8 SWAP1 BYTE PUSH1 0xF8 SWAP1 DUP2 SHL PUSH1 0x1 PUSH1 0x1 PUSH1 0xF8 SHL SUB NOT SWAP1 DUP2 AND PUSH1 0x20 DUP5 ADD MSTORE SWAP4 DUP9 SWAP1 BYTE DUP2 SHL DUP5 AND PUSH1 0x21 DUP4 ADD MSTORE SWAP5 DUP8 SWAP1 BYTE DUP6 SHL DUP4 AND PUSH1 0x22 DUP3 ADD MSTORE SWAP7 DUP7 SWAP1 BYTE DUP5 SHL DUP3 AND PUSH1 0x23 DUP9 ADD MSTORE DUP6 SWAP1 BYTE DUP4 SHL DUP2 AND PUSH1 0x24 DUP8 ADD MSTORE SWAP4 SWAP1 BYTE SWAP1 SHL SWAP1 SWAP2 AND PUSH1 0x25 DUP4 ADD MSTORE PUSH2 0x14B SWAP2 SWAP1 PUSH2 0x33A5 DUP3 PUSH1 0x26 DUP2 ADD PUSH2 0x2AF1 JUMP JUMPDEST PUSH2 0x2D02 JUMP JUMPDEST SWAP1 PUSH1 0x30 DUP2 LT ISZERO PUSH2 0x10C6 JUMPI PUSH1 0x5 SHL ADD SWAP1 JUMP JUMPDEST SWAP2 SWAP3 PUSH1 0xFF DUP2 AND DUP1 ISZERO PUSH2 0x34D4 JUMPI PUSH1 0xFF PUSH1 0x18 DUP4 SWAP1 SHR DUP2 AND AND SWAP2 PUSH1 0xFF PUSH1 0x10 DUP3 SWAP1 SHR PUSH2 0xFFFF AND AND SWAP3 PUSH1 0xFF PUSH1 0x8 DUP4 SWAP1 SHR PUSH3 0xFFFFFF AND AND SWAP3 PUSH2 0x33FF PUSH2 0x2534 DUP10 PUSH2 0x2B59 DUP10 DUP12 MLOAD PUSH2 0x33AA JUMP JUMPDEST SWAP4 PUSH1 0xFF DUP6 AND SWAP4 DUP5 ISZERO PUSH2 0x34B8 JUMPI PUSH1 0xFF DUP4 EQ PUSH2 0x34B8 JUMPI POP PUSH1 0xFF PUSH1 0x18 DUP7 SWAP1 SHR DUP2 AND AND SWAP4 PUSH1 0xFF PUSH2 0x343B DUP2 PUSH1 0x10 DUP10 SWAP1 SHR PUSH2 0xFFFF AND AND SWAP8 PUSH1 0x8 SHR PUSH3 0xFFFFFF AND SWAP1 JUMP JUMPDEST AND SWAP7 DUP4 PUSH1 0xFF SUB SWAP3 PUSH1 0xFF PUSH1 0x7F DUP6 DUP6 MUL ADD DIV DUP6 ADD SWAP9 DUP10 ISZERO PUSH2 0x34AF JUMPI JUMPDEST DUP5 DUP5 DUP12 PUSH2 0x14B SWAP16 SWAP13 SWAP10 SWAP6 DUP10 PUSH2 0x34A4 SWAP16 SWAP13 SWAP10 DUP1 PUSH2 0x2B59 SWAP16 SWAP13 SWAP9 SWAP11 DUP6 DUP1 SWAP13 DUP6 PUSH1 0xFF DUP1 SWAP13 SWAP7 DUP6 DUP3 SWAP9 MUL MUL DIV SWAP2 MUL ADD DIV PUSH1 0x8 SHL SWAP14 MUL MUL DIV SWAP2 MUL ADD DIV PUSH1 0x10 SHL SWAP7 MUL MUL DIV SWAP2 MUL ADD DIV PUSH1 0x18 SHL OR OR OR SWAP5 MLOAD PUSH2 0x33AA JUMP JUMPDEST SWAP1 PUSH4 0xFFFFFFFF AND SWAP1 MSTORE JUMP JUMPDEST PUSH1 0x1 SWAP10 POP PUSH2 0x3455 JUMP JUMPDEST SWAP8 SWAP3 POP POP POP PUSH2 0x14B SWAP7 SWAP4 POP PUSH2 0x2B59 SWAP3 POP PUSH2 0x34A4 SWAP5 SWAP2 POP MLOAD PUSH2 0x33AA JUMP JUMPDEST POP POP POP POP POP JUMP JUMPDEST PUSH1 0x40 MLOAD SWAP1 PUSH2 0x34EA PUSH1 0x40 DUP4 PUSH2 0x11B JUMP JUMPDEST PUSH1 0x8 DUP3 MSTORE PUSH8 0x44A8272386850D05 PUSH1 0xC1 SHL PUSH1 0x20 DUP4 ADD MSTORE JUMP JUMPDEST PUSH1 0x40 MLOAD SWAP1 PUSH2 0x3510 PUSH1 0x40 DUP4 PUSH2 0x11B JUMP JUMPDEST PUSH1 0x19 DUP3 MSTORE PUSH29 0xD49484452000000300000003008060000005702F98700000000000000 PUSH1 0x20 DUP4 ADD MSTORE JUMP JUMPDEST PUSH1 0x40 MLOAD SWAP1 PUSH2 0x3548 PUSH1 0x40 DUP4 PUSH2 0x11B JUMP JUMPDEST PUSH1 0xC DUP3 MSTORE PUSH8 0x24A2A72257213041 PUSH1 0xA1 SHL PUSH1 0x20 DUP4 ADD MSTORE JUMP JUMPDEST SWAP1 PUSH2 0x3583 SWAP5 SWAP4 PUSH2 0x3583 PUSH2 0x14B SWAP5 PUSH2 0x3583 PUSH2 0x2AF1 SWAP5 PUSH1 0x40 MLOAD SWAP10 DUP11 SWAP8 PUSH1 0x20 DUP10 ADD SWAP1 PUSH2 0x2AA8 JUMP JUMPDEST SWAP1 PUSH2 0x2AA8 JUMP JUMPDEST PUSH2 0x3591 PUSH2 0x36AF JUMP JUMPDEST SWAP1 PUSH0 SWAP1 PUSH0 JUMPDEST PUSH1 0x30 DUP2 LT PUSH2 0x35D4 JUMPI POP POP POP PUSH2 0x35B5 PUSH2 0x35B0 PUSH2 0x198 SWAP3 PUSH2 0x3AD2 JUMP JUMPDEST PUSH2 0x3BE7 JUMP JUMPDEST PUSH2 0x35BD PUSH2 0x34DB JUMP JUMPDEST SWAP1 PUSH2 0x35C6 PUSH2 0x3501 JUMP JUMPDEST PUSH2 0x35CE PUSH2 0x3539 JUMP JUMPDEST SWAP3 PUSH2 0x355F JUMP JUMPDEST PUSH0 PUSH2 0x35E3 PUSH1 0x1 DUP6 ADD SWAP5 DUP7 PUSH2 0x2819 JUMP JUMPDEST MSTORE8 PUSH0 JUMPDEST PUSH1 0x30 DUP2 LT PUSH2 0x35F7 JUMPI POP PUSH1 0x1 ADD PUSH2 0x3596 JUMP JUMPDEST DUP1 PUSH2 0x360C PUSH2 0x2534 DUP5 PUSH2 0x2B59 PUSH1 0x1 SWAP6 DUP9 MLOAD PUSH2 0x33AA JUMP JUMPDEST SWAP5 PUSH2 0x3630 PUSH2 0x3620 PUSH1 0x18 DUP9 SWAP1 SHR PUSH1 0xFF AND PUSH2 0x133C JUMP JUMPDEST PUSH1 0xF8 SHL PUSH1 0x1 PUSH1 0x1 PUSH1 0xF8 SHL SUB NOT AND SWAP1 JUMP JUMPDEST PUSH0 BYTE PUSH2 0x363C DUP3 DUP10 PUSH2 0x2819 JUMP JUMPDEST MSTORE8 PUSH2 0x3651 PUSH2 0x3620 PUSH1 0x10 DUP9 SWAP1 SHR PUSH2 0xFFFF AND PUSH2 0x133C JUMP JUMPDEST PUSH0 BYTE PUSH2 0x365F DUP5 DUP4 ADD DUP10 PUSH2 0x2819 JUMP JUMPDEST MSTORE8 PUSH2 0x36A8 PUSH1 0x4 PUSH2 0x367A PUSH2 0x3620 PUSH1 0x8 DUP11 SWAP1 SHR PUSH3 0xFFFFFF AND PUSH2 0x133C JUMP JUMPDEST SWAP3 PUSH1 0x3 DUP2 ADD SWAP4 PUSH0 BYTE PUSH2 0x368F PUSH1 0x2 DUP4 ADD DUP13 PUSH2 0x2819 JUMP JUMPDEST MSTORE8 ADD SWAP7 PUSH1 0xF8 SHL PUSH1 0x1 PUSH1 0x1 PUSH1 0xF8 SHL SUB NOT AND PUSH0 BYTE SWAP2 DUP9 PUSH2 0x2819 JUMP JUMPDEST MSTORE8 ADD PUSH2 0x35E6 JUMP JUMPDEST PUSH1 0x40 MLOAD PUSH2 0x2430 SWAP2 SWAP1 PUSH2 0x2460 PUSH2 0x36C4 DUP2 DUP4 PUSH2 0x11B JUMP JUMPDEST DUP4 DUP3 MSTORE PUSH1 0x1 PUSH1 0x1 PUSH1 0x40 SHL SUB DUP3 SWAP5 GT PUSH2 0xFB JUMPI PUSH1 0x1F NOT ADD SWAP1 CALLDATASIZE SWAP1 PUSH1 0x20 ADD CALLDATACOPY JUMP JUMPDEST SWAP1 PUSH2 0x36ED DUP3 PUSH2 0x16C JUMP JUMPDEST PUSH2 0x36FA PUSH1 0x40 MLOAD SWAP2 DUP3 PUSH2 0x11B JUMP JUMPDEST DUP3 DUP2 MSTORE DUP1 SWAP3 PUSH2 0x370B PUSH1 0x1F NOT SWAP2 PUSH2 0x16C JUMP JUMPDEST ADD SWAP1 PUSH1 0x20 CALLDATASIZE SWAP2 ADD CALLDATACOPY JUMP JUMPDEST SWAP2 PUSH0 SWAP1 JUMPDEST DUP3 MLOAD DUP3 LT ISZERO PUSH2 0x3813 JUMPI PUSH2 0x372C DUP3 DUP5 PUSH2 0x10D8 JUMP JUMPDEST MLOAD DUP5 MLOAD DUP2 MLOAD LT PUSH2 0x3742 JUMPI JUMPDEST POP SWAP1 PUSH1 0x1 ADD SWAP1 PUSH2 0x3719 JUMP JUMPDEST PUSH1 0x1 SWAP4 PUSH0 JUMPDEST DUP3 MLOAD DUP1 DUP3 LT ISZERO PUSH2 0x3808 JUMPI PUSH2 0x28D6 PUSH2 0x376B DUP4 PUSH2 0x3766 PUSH2 0x3771 SWAP5 DUP13 MLOAD PUSH2 0x2119 JUMP JUMPDEST PUSH2 0x2393 JUMP JUMPDEST DUP10 PUSH2 0x2819 JUMP JUMPDEST PUSH2 0x378E PUSH2 0x3781 PUSH2 0x28D6 DUP5 DUP8 PUSH2 0x2819 JUMP JUMPDEST PUSH1 0x1 PUSH1 0x1 PUSH1 0xF8 SHL SUB NOT AND SWAP1 JUMP JUMPDEST PUSH1 0x1 PUSH1 0x1 PUSH1 0xF8 SHL SUB NOT SWAP1 SWAP2 AND SUB PUSH2 0x37A7 JUMPI PUSH1 0x1 ADD PUSH2 0x3747 JUMP JUMPDEST POP SWAP4 POP PUSH0 SWAP3 SWAP2 SWAP3 JUMPDEST PUSH2 0x37BB JUMPI SWAP2 SWAP1 SWAP2 PUSH2 0x3737 JUMP JUMPDEST PUSH2 0x37D5 SWAP3 SWAP4 POP PUSH2 0x37D0 SWAP2 POP DUP5 MLOAD SWAP1 MLOAD SWAP1 PUSH2 0x2119 JUMP JUMPDEST PUSH2 0x36E3 JUMP JUMPDEST PUSH0 JUMPDEST DUP2 MLOAD DUP2 LT ISZERO PUSH2 0x3803 JUMPI DUP1 PUSH2 0x37F0 PUSH2 0x28D6 PUSH1 0x1 SWAP4 DUP8 PUSH2 0x2819 JUMP JUMPDEST PUSH0 BYTE PUSH2 0x37FC DUP3 DUP6 PUSH2 0x2819 JUMP JUMPDEST MSTORE8 ADD PUSH2 0x37D7 JUMP JUMPDEST POP SWAP2 POP JUMP JUMPDEST POP POP SWAP4 SWAP3 SWAP2 SWAP3 PUSH2 0x37AF JUMP JUMPDEST SWAP2 POP POP JUMP JUMPDEST PUSH1 0x1F NOT DUP2 ADD MLOAD SWAP1 MLOAD PUSH1 0xC DUP2 ADD SWAP2 PUSH1 0x3F NOT ADD SWAP1 DUP3 LT PUSH2 0x14C2 JUMPI LT PUSH2 0x3837 JUMPI JUMP JUMPDEST PUSH1 0x40 MLOAD PUSH3 0x461BCD PUSH1 0xE5 SHL DUP2 MSTORE PUSH1 0x20 PUSH1 0x4 DUP3 ADD MSTORE PUSH1 0x27 PUSH1 0x24 DUP3 ADD MSTORE PUSH32 0x44796E616D69634275666665723A20417070656E64696E67206F7574206F6620 PUSH1 0x44 DUP3 ADD MSTORE PUSH7 0x3137BAB7323997 PUSH1 0xC9 SHL PUSH1 0x64 DUP3 ADD MSTORE PUSH1 0x84 SWAP1 REVERT JUMPDEST PUSH1 0x3F NOT PUSH1 0x1F NOT DUP3 ADD MLOAD ADD SWAP1 MLOAD SWAP2 DUP3 ADD DUP1 SWAP3 GT PUSH2 0x14C2 JUMPI LT PUSH2 0x3837 JUMPI JUMP JUMPDEST DUP1 ISZERO PUSH2 0x14C2 JUMPI PUSH0 NOT ADD SWAP1 JUMP JUMPDEST PUSH2 0x393A PUSH2 0x391F SWAP2 PUSH2 0x2710 DUP2 MUL SWAP1 PUSH3 0xF4240 DUP1 PUSH2 0x38DC PUSH2 0x2710 PUSH2 0x38D7 DUP4 DUP8 PUSH2 0x3D8F JUMP JUMPDEST PUSH2 0x3D99 JUMP JUMPDEST SWAP4 SMOD PUSH1 0x1 SHL SLT ISZERO PUSH2 0x39D1 JUMPI JUMPDEST PUSH0 DUP3 SLT PUSH2 0x39C6 JUMPI JUMPDEST PUSH2 0x390C PUSH2 0x3904 PUSH3 0xF4240 PUSH2 0x392C SWAP4 SDIV PUSH2 0x3EDD JUMP JUMPDEST SWAP3 PUSH1 0x4 PUSH2 0x3F0C JUMP JUMPDEST PUSH2 0x3583 PUSH1 0x40 MLOAD SWAP6 DUP7 SWAP5 PUSH1 0x20 DUP7 ADD SWAP1 PUSH2 0x2AA8 JUMP JUMPDEST PUSH1 0x17 PUSH1 0xF9 SHL DUP2 MSTORE PUSH1 0x1 ADD SWAP1 JUMP JUMPDEST SUB PUSH1 0x1F NOT DUP2 ADD DUP4 MSTORE DUP3 PUSH2 0x11B JUMP JUMPDEST PUSH2 0x3944 DUP2 MLOAD PUSH2 0x210B JUMP JUMPDEST DUP1 ISZERO ISZERO DUP1 PUSH2 0x39A3 JUMPI JUMPDEST ISZERO PUSH2 0x3960 JUMPI PUSH2 0x395B SWAP1 PUSH2 0x38A9 JUMP JUMPDEST PUSH2 0x3944 JUMP JUMPDEST PUSH2 0x198 SWAP2 SWAP1 PUSH2 0x398F SWAP1 PUSH1 0x17 PUSH1 0xF9 SHL PUSH1 0x1 PUSH1 0x1 PUSH1 0xF8 SHL SUB NOT PUSH2 0x3984 PUSH2 0x28D6 DUP5 DUP8 PUSH2 0x2819 JUMP JUMPDEST AND EQ PUSH2 0x3995 JUMPI PUSH2 0x2385 JUMP JUMPDEST SWAP1 PUSH2 0x3FA6 JUMP JUMPDEST PUSH2 0x399E SWAP1 PUSH2 0x38A9 JUMP JUMPDEST PUSH2 0x2385 JUMP JUMPDEST POP PUSH1 0x3 PUSH1 0xFC SHL PUSH1 0x1 PUSH1 0x1 PUSH1 0xF8 SHL SUB NOT PUSH2 0x39BF PUSH2 0x28D6 DUP5 DUP7 PUSH2 0x2819 JUMP JUMPDEST AND EQ PUSH2 0x394D JUMP JUMPDEST PUSH0 SWAP2 SWAP1 SWAP2 SUB SWAP1 PUSH2 0x38F0 JUMP JUMPDEST SWAP1 PUSH1 0x1 ADD SWAP1 PUSH2 0x38E8 JUMP JUMPDEST SWAP2 SWAP1 SWAP2 PUSH1 0x40 MLOAD SWAP3 PUSH2 0x39ED PUSH1 0x40 DUP6 PUSH2 0x11B JUMP JUMPDEST PUSH1 0xC DUP5 MSTORE PUSH12 0x39BA37B816B1B7B637B91E91 PUSH1 0xA1 SHL PUSH1 0x20 DUP6 ADD SWAP1 DUP2 MSTORE PUSH2 0x3A11 DUP4 PUSH2 0x3818 JUMP JUMPDEST PUSH1 0x20 DUP6 MLOAD DUP1 SWAP3 SWAP7 ADD ADD PUSH1 0x20 DUP5 MLOAD DUP6 ADD ADD SWAP6 JUMPDEST DUP2 DUP2 LT PUSH2 0x3A88 JUMPI POP POP DUP3 PUSH2 0x3A3E SWAP4 SWAP5 SWAP6 POP MLOAD ADD DUP4 MSTORE DUP3 PUSH2 0x3279 JUMP JUMPDEST PUSH2 0x3A46 PUSH2 0x17EA JUMP JUMPDEST PUSH2 0x3A51 DUP2 MLOAD DUP4 PUSH2 0x388C JUMP JUMPDEST DUP1 MLOAD SWAP1 PUSH1 0x20 DUP3 DUP2 DUP4 ADD SWAP3 ADD ADD SWAP1 PUSH1 0x20 DUP5 MLOAD DUP6 ADD ADD SWAP1 JUMPDEST DUP3 DUP2 LT PUSH2 0x3A78 JUMPI POP POP POP DUP2 MLOAD ADD SWAP1 MSTORE JUMP JUMPDEST DUP1 MLOAD DUP3 MSTORE PUSH1 0x20 SWAP2 DUP3 ADD SWAP2 ADD PUSH2 0x3A67 JUMP JUMPDEST DUP1 MLOAD DUP8 MSTORE PUSH1 0x20 SWAP7 DUP8 ADD SWAP7 ADD PUSH2 0x3A23 JUMP JUMPDEST PUSH1 0x4 SWAP1 PUSH2 0x3583 SWAP5 SWAP4 PUSH2 0x3AB7 PUSH2 0x14B SWAP5 PUSH1 0x40 MLOAD SWAP8 DUP9 SWAP5 PUSH1 0x20 DUP7 ADD SWAP1 PUSH2 0x2AA8 JUMP JUMPDEST SWAP1 PUSH4 0xFFFFFFFF PUSH1 0xE0 SHL AND DUP2 MSTORE SUB PUSH1 0x1B NOT DUP2 ADD DUP6 MSTORE ADD DUP4 PUSH2 0x11B JUMP JUMPDEST PUSH2 0xFFFF DUP2 MLOAD AND SWAP1 PUSH2 0x3AF0 PUSH2 0xFFFF PUSH2 0x3AE8 DUP5 PUSH2 0x3DA3 JUMP JUMPDEST SWAP4 NOT AND PUSH2 0x3DA3 JUMP JUMPDEST PUSH1 0x40 MLOAD PUSH2 0x7801 PUSH1 0xF0 SHL PUSH1 0x20 DUP3 ADD MSTORE PUSH1 0x1 PUSH1 0xF8 SHL PUSH1 0x22 DUP3 ADD MSTORE PUSH1 0x1 PUSH1 0x1 PUSH1 0xF0 SHL SUB NOT SWAP4 DUP5 AND PUSH1 0x23 DUP3 ADD MSTORE SWAP3 AND PUSH1 0x25 DUP4 ADD MSTORE PUSH1 0x7 DUP3 MSTORE PUSH2 0x3B2F PUSH1 0x27 DUP4 PUSH2 0x11B JUMP JUMPDEST PUSH1 0x1 SWAP1 PUSH0 SWAP4 PUSH0 SWAP3 JUMPDEST DUP3 MLOAD DUP5 LT ISZERO PUSH2 0x3B8C JUMPI PUSH2 0x3B4A DUP5 DUP5 PUSH2 0x2819 JUMP JUMPDEST MLOAD PUSH1 0xF8 SHR ADD SWAP5 PUSH2 0xFFF1 DUP7 LT ISZERO PUSH2 0x3B80 JUMPI JUMPDEST DUP6 ADD SWAP3 PUSH2 0xFFF1 DUP5 LT ISZERO PUSH2 0x3B73 JUMPI JUMPDEST PUSH1 0x1 ADD SWAP3 SWAP5 PUSH2 0x3B37 JUMP JUMPDEST PUSH2 0xFFF0 NOT SWAP1 SWAP4 ADD SWAP3 PUSH2 0x3B69 JUMP JUMPDEST SWAP5 PUSH2 0xFFF0 NOT ADD SWAP5 PUSH2 0x3B5B JUMP JUMPDEST PUSH2 0x198 SWAP5 SWAP4 POP PUSH2 0x3BA8 SWAP1 PUSH2 0x3BAD SWAP3 SWAP7 PUSH1 0x10 SHL OR PUSH4 0xFFFFFFFF AND SWAP1 JUMP JUMPDEST PUSH2 0x3E4E JUMP JUMPDEST SWAP2 PUSH2 0x3A98 JUMP JUMPDEST PUSH1 0x40 MLOAD PUSH1 0x1 PUSH1 0x1 PUSH1 0xE0 SHL SUB NOT SWAP2 DUP3 AND PUSH1 0x20 DUP3 ADD MSTORE SWAP2 AND PUSH1 0x24 DUP3 ADD MSTORE SWAP3 SWAP2 PUSH2 0x14B SWAP2 PUSH1 0x4 SWAP2 DUP6 SWAP2 PUSH2 0x3AB7 SWAP1 PUSH1 0x28 DUP5 ADD SWAP1 PUSH2 0x2AA8 JUMP JUMPDEST SWAP1 PUSH1 0x40 MLOAD PUSH4 0x12511055 PUSH1 0xE2 SHL PUSH1 0x20 DUP3 ADD MSTORE PUSH2 0x3C09 DUP2 PUSH2 0x392C PUSH1 0x24 DUP3 ADD DUP7 PUSH2 0x2AA8 JUMP JUMPDEST PUSH0 SWAP2 PUSH4 0xFFFFFFFF JUMPDEST DUP3 MLOAD DUP5 LT ISZERO PUSH2 0x3C76 JUMPI PUSH2 0x3C2D PUSH2 0x133C PUSH2 0x28E4 PUSH2 0x28D6 DUP8 DUP8 PUSH2 0x2819 JUMP JUMPDEST XOR SWAP3 PUSH0 JUMPDEST PUSH1 0x8 PUSH1 0xFF DUP3 AND LT PUSH2 0x3C46 JUMPI POP PUSH1 0x1 ADD SWAP3 PUSH2 0x3C11 JUMP JUMPDEST SWAP4 PUSH1 0xFF SWAP1 PUSH1 0x1 SWAP1 DUP2 DUP1 DUP3 DUP2 SHR PUSH4 0x7FFFFFFF AND SWAP3 AND SUB PUSH2 0x3C6F JUMPI PUSH4 0xEDB88320 SWAP1 JUMPDEST XOR SWAP6 ADD AND PUSH2 0x3C31 JUMP JUMPDEST PUSH0 SWAP1 PUSH2 0x3C66 JUMP JUMPDEST SWAP2 POP SWAP3 PUSH2 0x198 SWAP3 POP PUSH2 0x3C9F PUSH4 0xFFFFFFFF PUSH2 0x3C97 PUSH2 0x3BA8 DUP5 MLOAD PUSH4 0xFFFFFFFF AND SWAP1 JUMP JUMPDEST SWAP4 NOT AND PUSH2 0x3E4E JUMP JUMPDEST SWAP2 PUSH4 0x12511055 PUSH1 0xE2 SHL SWAP1 PUSH2 0x3BB3 JUMP JUMPDEST SWAP1 PUSH1 0x60 SWAP2 DUP1 MLOAD DUP1 PUSH2 0x3CBD JUMPI POP POP JUMP JUMPDEST SWAP1 SWAP3 POP PUSH1 0x3 PUSH1 0x2 DUP3 ADD DIV PUSH1 0x2 SHL SWAP1 PUSH1 0x40 MLOAD SWAP4 PUSH32 0x4142434445464748494A4B4C4D4E4F505152535455565758595A616263646566 PUSH1 0x1F MSTORE PUSH2 0x670 PUSH32 0x6768696A6B6C6D6E6F707172737475767778797A303132333435363738392D5F XOR PUSH1 0x3F MSTORE PUSH1 0x20 DUP6 ADD SWAP2 DUP4 DUP7 ADD SWAP3 PUSH1 0x4 PUSH1 0x3 PUSH1 0x20 DUP7 ADD SWAP5 JUMPDEST ADD SWAP2 PUSH1 0x3F DUP4 MLOAD DUP2 DUP2 PUSH1 0x12 SHR AND MLOAD PUSH0 MSTORE8 DUP2 DUP2 PUSH1 0xC SHR AND MLOAD PUSH1 0x1 MSTORE8 DUP2 DUP2 PUSH1 0x6 SHR AND MLOAD PUSH1 0x2 MSTORE8 AND MLOAD PUSH1 0x3 MSTORE8 PUSH0 MLOAD DUP2 MSTORE ADD SWAP1 DUP4 DUP3 LT ISZERO PUSH2 0x3D6F JUMPI PUSH1 0x4 SWAP1 PUSH1 0x3 SWAP1 PUSH2 0x3D2E JUMP JUMPDEST POP SWAP2 POP PUSH1 0x40 PUSH0 SWAP4 ADD PUSH1 0x40 MSTORE PUSH1 0x3 PUSH2 0x3D3D PUSH1 0xF0 SHL SWAP2 MOD PUSH1 0x2 DIV DUP3 SUB MSTORE MSTORE DUP3 MSTORE JUMP JUMPDEST DUP2 ISZERO PUSH2 0x2E9E JUMPI SDIV SWAP1 JUMP JUMPDEST DUP2 ISZERO PUSH2 0x2E9E JUMPI SMOD SWAP1 JUMP JUMPDEST PUSH1 0x40 MLOAD PUSH1 0x1 PUSH1 0x1 PUSH1 0xF8 SHL SUB NOT PUSH1 0xF8 DUP4 SWAP1 SHL DUP2 AND PUSH1 0x20 DUP4 ADD SWAP1 DUP2 MSTORE PUSH1 0xF0 SWAP4 SWAP1 SWAP4 SHL AND PUSH1 0x21 DUP3 ADD MSTORE PUSH1 0x2 DUP2 MSTORE PUSH2 0x3DD8 PUSH1 0x22 DUP3 PUSH2 0x11B JUMP JUMPDEST MLOAD SWAP1 MLOAD PUSH1 0x1 PUSH1 0x1 PUSH1 0xF0 SHL SUB NOT DUP2 AND SWAP2 SWAP1 PUSH1 0x2 DUP3 LT PUSH2 0x3DF5 JUMPI POP POP SWAP1 JUMP JUMPDEST PUSH1 0x1 PUSH1 0x1 PUSH1 0xF0 SHL SUB NOT PUSH1 0x2 SWAP3 SWAP1 SWAP3 SUB PUSH1 0x3 SHL DUP3 SWAP1 SHL AND AND SWAP2 SWAP1 POP JUMP JUMPDEST DUP1 MLOAD PUSH1 0x20 SWAP1 SWAP2 ADD MLOAD PUSH1 0x1 PUSH1 0x1 PUSH1 0xE0 SHL SUB NOT DUP2 AND SWAP3 SWAP2 SWAP1 PUSH1 0x4 DUP3 LT PUSH2 0x3E33 JUMPI POP POP JUMP JUMPDEST PUSH1 0x1 PUSH1 0x1 PUSH1 0xE0 SHL SUB NOT PUSH1 0x4 SWAP3 SWAP1 SWAP3 SUB PUSH1 0x3 SHL DUP3 SWAP1 SHL AND AND SWAP2 POP JUMP JUMPDEST PUSH2 0x198 SWAP1 PUSH2 0x3E70 PUSH1 0xFF PUSH1 0x18 DUP4 SWAP1 SHR DUP2 AND JUMPDEST AND PUSH1 0xF8 SHL PUSH1 0x1 PUSH1 0x1 PUSH1 0xF8 SHL SUB NOT AND SWAP1 JUMP JUMPDEST SWAP1 PUSH2 0x3E84 PUSH1 0xFF PUSH1 0x10 DUP4 SWAP1 SHR PUSH2 0xFFFF AND PUSH2 0x3E5F JUMP JUMPDEST PUSH2 0x3E98 PUSH1 0xFF PUSH1 0x8 DUP5 SWAP1 SHR PUSH3 0xFFFFFF AND PUSH2 0x3E5F JUMP JUMPDEST PUSH1 0x40 MLOAD PUSH1 0x1 PUSH1 0x1 PUSH1 0xF8 SHL SUB NOT SWAP5 DUP6 AND PUSH1 0x20 DUP3 ADD MSTORE SWAP2 DUP5 AND PUSH1 0x21 DUP4 ADD MSTORE DUP4 AND PUSH1 0x22 DUP3 ADD MSTORE PUSH1 0xF8 SWAP2 SWAP1 SWAP2 SHL SWAP1 SWAP2 AND PUSH1 0x23 DUP3 ADD MSTORE PUSH1 0x4 DUP2 MSTORE PUSH2 0x3ED8 PUSH1 0x24 DUP3 PUSH2 0x11B JUMP JUMPDEST PUSH2 0x3E11 JUMP JUMPDEST PUSH0 DUP2 SLT ISZERO PUSH2 0x3F03 JUMPI PUSH2 0x3EF0 SWAP1 PUSH0 SUB PUSH2 0x2B8C JUMP JUMPDEST SWAP1 PUSH1 0x1 DUP3 MLOAD SWAP3 PUSH1 0x2D DUP2 MSTORE PUSH0 NOT ADD SWAP3 ADD DUP3 MSTORE JUMP JUMPDEST PUSH2 0x198 SWAP1 PUSH2 0x2B8C JUMP JUMPDEST SWAP2 SWAP1 SWAP2 PUSH0 DUP4 SLT PUSH2 0x3F9D JUMPI JUMPDEST SWAP2 PUSH1 0x60 SWAP1 PUSH0 JUMPDEST DUP5 DUP2 LT PUSH2 0x3F5A JUMPI POP POP JUMPDEST DUP3 DUP2 MLOAD LT ISZERO PUSH2 0x3F56 JUMPI PUSH1 0x40 MLOAD PUSH1 0x3 PUSH1 0xFC SHL PUSH1 0x20 DUP3 ADD MSTORE SWAP1 PUSH2 0x3F51 SWAP1 DUP3 SWAP1 PUSH2 0x392C SWAP1 PUSH1 0x21 DUP4 ADD PUSH2 0x3583 JUMP JUMPDEST PUSH2 0x3F27 JUMP JUMPDEST SWAP2 POP JUMP JUMPDEST SWAP1 SWAP4 SWAP2 PUSH2 0x3F93 PUSH2 0x3583 PUSH2 0x3F8B PUSH1 0x1 SWAP4 PUSH2 0x392C PUSH2 0x3F7A PUSH2 0x1F14 DUP12 PUSH1 0xA SWAP1 SMOD SWAP1 JUMP JUMPDEST SWAP2 PUSH1 0x40 MLOAD SWAP5 DUP6 SWAP4 PUSH1 0x20 DUP6 ADD SWAP1 PUSH2 0x2AA8 JUMP JUMPDEST SWAP6 PUSH1 0xA SWAP1 SDIV SWAP1 JUMP JUMPDEST SWAP2 ADD SWAP4 SWAP2 SWAP4 PUSH2 0x3F1D JUMP JUMPDEST SWAP2 PUSH0 SUB SWAP2 PUSH2 0x3F17 JUMP JUMPDEST SWAP2 SWAP1 PUSH0 SWAP3 PUSH1 0x60 SWAP4 DUP2 MLOAD DUP4 DUP2 GT ISZERO PUSH2 0x4016 JUMPI JUMPDEST DUP1 ISZERO PUSH2 0x400E JUMPI JUMPDEST POP DUP3 DUP2 LT PUSH2 0x3FCC JUMPI POP POP POP JUMP JUMPDEST PUSH1 0x40 MLOAD SWAP5 POP SWAP2 DUP3 SWAP1 SUB SWAP2 ADD PUSH1 0x1F DUP3 ADD PUSH1 0x1F NOT AND JUMPDEST DUP2 DUP2 ADD MLOAD DUP6 DUP3 ADD MSTORE PUSH1 0x1F NOT ADD SWAP1 DUP2 ISZERO PUSH2 0x3FF9 JUMPI SWAP1 PUSH2 0x3FE0 JUMP JUMPDEST POP POP PUSH1 0x40 DUP2 DUP5 ADD PUSH0 PUSH1 0x20 DUP3 ADD MSTORE ADD PUSH1 0x40 MSTORE DUP3 MSTORE JUMP JUMPDEST SWAP1 POP PUSH0 PUSH2 0x3FBF JUMP JUMPDEST SWAP3 POP DUP3 PUSH2 0x3FB8 JUMP INVALID LOG2 PUSH5 0x6970667358 0x22 SLT KECCAK256 0x1E XOR 0xB7 DUP6 DUP13 0xAF CALLDATACOPY PUSH32 0xBA2F59532A929006FAD5B8C5E299506A3D07BCF7B62130BA64736F6C63430008 0x1E STOP CALLER 0x29 0xD EOFCREATE 0xD9 SLOAD DUP12 PUSH3 0xA8D603 GASLIMIT 0xA9 DUP9 CODESIZE PUSH16 0xC84BA6BC95484008F6362F93160EF3E5 PUSH4 0x0 "
		},
		"gasEstimates": {
			"creation": {
				"codeDepositCost": "3293600",
				"executionCost": "infinite",
				"totalCost": "infinite"
			},
			"external": {
				"renderHTML(bytes)": "infinite",
				"renderSVG(uint16,uint16,uint256)": "infinite"
			},
			"internal": {
				"_getTraitBaseName(enum E_TraitsGroup,string memory,string memory[] memory)": "infinite",
				"_getTraitsAsJson(struct CachedTraitGroups memory,struct TraitsContext memory)": "infinite",
				"_isPreRenderedSpecial(uint16)": "385",
				"_prepareCache(struct CachedTraitGroups memory,struct TraitsContext memory)": "infinite",
				"_removeSuffix(string memory,string memory[] memory)": "infinite",
				"_renderPreRenderedSpecial(bytes memory,struct TraitsContext memory,struct CachedTraitGroups memory)": "infinite",
				"_stringTrait(string memory,string memory)": "infinite"
			}
		},
		"methodIdentifiers": {
			"renderHTML(bytes)": "74c2b451",
			"renderSVG(uint16,uint16,uint256)": "41fcb160"
		}
	},
	"abi": [
		{
			"inputs": [
				{
					"internalType": "contract IAssets",
					"name": "assetsContract",
					"type": "address"
				},
				{
					"internalType": "contract ITraits",
					"name": "traitsContract",
					"type": "address"
				}
			],
			"stateMutability": "nonpayable",
			"type": "constructor"
		},
		{
			"inputs": [
				{
					"internalType": "uint256",
					"name": "traitDataLength",
					"type": "uint256"
				}
			],
			"name": "NoPixelData",
			"type": "error"
		},
		{
			"inputs": [
				{
					"internalType": "uint16",
					"name": "colorIdx",
					"type": "uint16"
				},
				{
					"internalType": "uint256",
					"name": "paletteSize",
					"type": "uint256"
				}
			],
			"name": "PaletteIndexOutOfBounds",
			"type": "error"
		},
		{
			"inputs": [
				{
					"internalType": "uint8",
					"name": "x",
					"type": "uint8"
				},
				{
					"internalType": "uint8",
					"name": "y",
					"type": "uint8"
				}
			],
			"name": "PixelCoordinatesOutOfBounds",
			"type": "error"
		},
		{
			"inputs": [
				{
					"internalType": "uint8",
					"name": "traitGroupIndex",
					"type": "uint8"
				},
				{
					"internalType": "uint8",
					"name": "traitIndex",
					"type": "uint8"
				},
				{
					"internalType": "uint256",
					"name": "maxIndex",
					"type": "uint256"
				}
			],
			"name": "TraitIndexOutOfBounds",
			"type": "error"
		},
		{
			"inputs": [
				{
					"internalType": "bytes",
					"name": "svgContent",
					"type": "bytes"
				}
			],
			"name": "renderHTML",
			"outputs": [
				{
					"internalType": "string",
					"name": "html",
					"type": "string"
				}
			],
			"stateMutability": "pure",
			"type": "function"
		},
		{
			"inputs": [
				{
					"internalType": "uint16",
					"name": "tokenIdSeed",
					"type": "uint16"
				},
				{
					"internalType": "uint16",
					"name": "backgroundIndex",
					"type": "uint16"
				},
				{
					"internalType": "uint256",
					"name": "globalSeed",
					"type": "uint256"
				}
			],
			"name": "renderSVG",
			"outputs": [
				{
					"internalType": "string",
					"name": "svg",
					"type": "string"
				},
				{
					"internalType": "string",
					"name": "attributes",
					"type": "string"
				}
			],
			"stateMutability": "view",
			"type": "function"
		}
	]
}