{
	"data": {
		"bytecode": {
			"linkReferences": {
				"src/libraries/TraitsLoader.sol": {
					"TraitsLoader": [
						{
							"length": 20,
							"start": 5349
						},
						{
							"length": 20,
							"start": 7009
						},
						{
							"length": 20,
							"start": 7155
						},
						{
							"length": 20,
							"start": 7381
						}
					]
				}
			},
			"object": "60c060405234610a25576149e66040813803918261001c81610a29565b938492833981010312610a25578051906001600160a01b0382168203610a255760200151906001600160a01b0382168203610a25576040516106c081016001600160401b03811182821017610974576040526100786040610a29565b6002815261203160f01b602082015281526100936040610a29565b6002815261101960f11b602082015260208201526100b16040610a29565b6002815261203360f01b602082015260408201526100cf6040610a29565b6002815261080d60f21b602082015260608201526100ed6040610a29565b6002815261203560f01b6020820152608082015261010b6040610a29565b6002815261101b60f11b602082015260a08201526101296040610a29565b6002815261203760f01b602082015260c08201526101476040610a29565b6002815261040760f31b602082015260e08201526101656040610a29565b6002815261203960f01b60208201526101008201526101846040610a29565b600381526202031360ec1b60208201526101208201526101a46040610a29565b600381526220313160e81b60208201526101408201526101c46040610a29565b600381526210189960e91b60208201526101608201526101e46040610a29565b6005815264081319599d60da1b60208201526101808201526102066040610a29565b600681526508149a59da1d60d21b60208201526101a08201526102296040610a29565b600681526520426c61636b60d01b60208201526101c082015261024c6040610a29565b600681526510213937bbb760d11b60208201526101e082015261026f6040610a29565b600781526620426c6f6e646560c81b60208201526102008201526102936040610a29565b60078152661023b4b733b2b960c91b60208201526102208201526102b76040610a29565b600681526508131a59da1d60d21b60208201526102408201526102da6040610a29565b6005815264204461726b60d81b60208201526102608201526102fc6040610a29565b600781526620536861646f7760c81b60208201526102808201526103206040610a29565b6005815264204661646560d81b60208201526102a08201526103426040610a29565b600581526420426c756560d81b60208201526102c08201526103646040610a29565b60068152651023b932b2b760d11b60208201526102e08201526103876040610a29565b6007815266204f72616e676560c81b60208201526103008201526103ab6040610a29565b60058152642050696e6b60d81b60208201526103208201526103cd6040610a29565b600781526620507572706c6560c81b60208201526103408201526103f16040610a29565b60048152630814995960e21b60208201526103608201526104126040610a29565b600a8152692054757271756f69736560b01b60208201526103808201526104396040610a29565b600681526520576869746560d01b60208201526103a082015261045c6040610a29565b60078152662059656c6c6f7760c81b60208201526103c08201526104806040610a29565b600981526820536b7920426c756560b81b60208201526103e08201526104a66040610a29565b600981526820486f742050696e6b60b81b60208201526104008201526104cc6040610a29565b600a815269204e656f6e20426c756560b01b60208201526104208201526104f36040610a29565b600b81526a102732b7b71023b932b2b760a91b602082015261044082015261051b6040610a29565b600c81526b204e656f6e20507572706c6560a01b60208201526104608201526105446040610a29565b60098152680813995bdb8814995960ba1b602082015261048082015261056a6040610a29565b6005815264204772657960d81b60208201526104a082015261058c6040610a29565b6005815264204e61767960d81b60208201526104c08201526105ae6040610a29565b60098152682042757267756e647960b81b60208201526104e08201526105d46040610a29565b600681526520426569676560d01b60208201526105008201526105f76040610a29565b600a81526908109b1858dac812185d60b21b602082015261052082015261061e6040610a29565b600a81526908109c9bdddb8812185d60b21b60208201526105408201526106456040610a29565b600b81526a08109b1bdb99194812185d60aa1b602082015261056082015261066d6040610a29565b600b81526a0811da5b99d95c8812185d60aa1b60208201526105808201526106956040610a29565b600981526808109b1d594812185d60ba1b60208201526105a08201526106bb6040610a29565b600a8152690811dc99595b8812185d60b21b60208201526105c08201526106e26040610a29565b600b81526a0813dc985b99d94812185d60aa1b60208201526105e082015261070a6040610a29565b600981526808141a5b9ac812185d60ba1b60208201526106008201526107306040610a29565b600b81526a08141d5c9c1b194812185d60aa1b60208201526106208201526107586040610a29565b6008815267081499590812185d60c21b602082015261064082015261077d6040610a29565b600e81526d08151d5c9c5d5bda5cd94812185d60921b60208201526106608201526107a86040610a29565b600a8152690815da1a5d194812185d60b21b60208201526106808201526107cf6040610a29565b600b81526a0816595b1b1bddc812185d60aa1b60208201526106a08201525f5460365f5580603610610988575b505f8080525f5160206149c65f395f51905f52915b6036821061085f5750505060805260a052604051613f299081610a9d8239608051818181610b0801528181611098015281816111330152818161121501526117a9015260a05181610aa50152f35b80518051906001600160401b0382116109745761087c8554610a4e565b601f8111610939575b50602090601f83116001146108d05792826001949360209386955f926108c5575b50505f19600383901b1c191690841b1786555b01930191019091610811565b015190505f806108a6565b90601f19831691865f52815f20925f5b8181106109215750936020936001969387969383889510610909575b505050811b0186556108b9565b01515f1960f88460031b161c191690555f80806108fc565b929360206001819287860151815501950193016108e0565b61096490865f5260205f20601f850160051c8101916020861061096a575b601f0160051c0190610a86565b5f610885565b9091508190610957565b634e487b7160e01b5f52604160045260245ffd5b5f80525f5160206149c65f395f51905f52017f290decd9548b62a8d60345a988386fc84ba6bc95484008f6362f93160ef3e5995b8181106109c957506107fc565b806109d660019254610a4e565b806109e3575b50016109bc565b601f811183146109f857505f81555b5f6109dc565b610a1490825f5283601f60205f20920160051c82019101610a86565b805f525f60208120818355556109f2565b5f80fd5b6040519190601f01601f191682016001600160401b0381118382101761097457604052565b90600182811c92168015610a7c575b6020831014610a6857565b634e487b7160e01b5f52602260045260245ffd5b91607f1691610a5d565b818110610a91575050565b5f8155600101610a8656fe60806040526004361015610011575f80fd5b5f3560e01c637d13443314610024575f80fd5b346100885760603660031901126100885761007661008461005f60043561004a8161008c565b60243561005681610098565b60443591610a0c565b6040929192519384936040855260408501906100a3565b9083820360208501526100a3565b0390f35b5f80fd5b61ffff81160361008857565b60ff81160361008857565b805180835260209291819084018484015e5f828201840152601f01601f1916010190565b634e487b7160e01b5f52604160045260245ffd5b604081019081106001600160401b038211176100f657604052565b6100c7565b608081019081106001600160401b038211176100f657604052565b90601f801991011681019081106001600160401b038211176100f657604052565b6040519061014660e083610116565b565b6040519061014660a083610116565b604051906101466103e083610116565b6001600160401b0381116100f65760051b60200190565b6001600160401b0381116100f657601f01601f191660200190565b81601f82011215610088578051906101b08261017e565b926101be6040519485610116565b8284526020838301011161008857815f9260208093018386015e8301015290565b519063ffffffff8216820361008857565b9080601f8301121561008857815161020781610167565b926102156040519485610116565b81845260208085019260051b82010192831161008857602001905b82821061023d5750505090565b6020809161024a846101df565b815201910190610230565b519061014682610098565b9080601f830112156100885781519161027883610167565b926102866040519485610116565b80845260208085019160051b830101918383116100885760208101915b8383106102b257505050505090565b82516001600160401b0381116100885782019060e0828703601f190112610088576102db610137565b9060208301516001600160401b038111610088578760206102fe92860101610199565b825261030c60408401610255565b602083015261031d60608401610255565b604083015261032e60808401610255565b606083015261033f60a08401610255565b608083015261035060c08401610255565b60a083015260e0830151916001600160401b0383116100885761037b88602080969581960101610199565b60c08201528152019201916102a3565b91909160a081840312610088576103a0610148565b928151845260208201516001600160401b03811161008857816103c4918401610199565b602085015260408201516001600160401b03811161008857816103e89184016101f0565b60408501526060820151916001600160401b0383116100885761041260809261041d948301610260565b606086015201610255565b6080830152565b5190811515820361008857565b9080601f8301121561008857815161044881610167565b926104566040519485610116565b81845260208085019260051b82010192831161008857602001905b82821061047e5750505090565b6020809161048b84610424565b815201910190610471565b602081830312610088578051906001600160401b038211610088570160408183031261008857604051916104c9836100db565b81516001600160401b03811161008857820181601f820112156100885780516104f181610167565b916104ff6040519384610116565b81835260208084019260051b820101918483116100885760208201905b83821061054e5750505050835260208201516001600160401b038111610088576105469201610431565b602082015290565b81516001600160401b038111610088576020916105708884809488010161038b565b81520191019061051c565b6040513d5f823e3d90fd5b5190601b82101561008857565b81601f82011215610088578051906105aa82610167565b926105b86040519485610116565b828452602060a081860194028301019181831161008857602001925b8284106105e2575050505090565b83820360a081126100885760408051916105fb836100fb565b61060487610586565b8352602087015161061481610098565b6020840152610624828801610424565b83830152605f1901126100885760a091602091604051610643816100db565b61064f60608901610586565b8152608088015161065f81610098565b8482015260608201528152019301926105d4565b51906101468261008c565b5190600282101561008857565b5190600582101561008857565b5190601d82101561008857565b5190601782101561008857565b5190601482101561008857565b5190600982101561008857565b5190600482101561008857565b5190605882101561008857565b5190601682101561008857565b519060d482101561008857565b5190606a82101561008857565b519060a982101561008857565b5190608082101561008857565b5190601a82101561008857565b5190601f82101561008857565b5190601382101561008857565b5190601582101561008857565b519060c382101561008857565b5190608582101561008857565b5190608382101561008857565b5190607a82101561008857565b602081830312610088578051906001600160401b03821161008857016103e081830312610088576107be610157565b918151916001600160401b038311610088576107e26103c092610a03948301610593565b84526107f060208201610255565b602085015261080160408201610673565b604085015261081260608201610673565b6060850152610823608082016101df565b608085015261083460a0820161067e565b60a085015261084560c0820161068b565b60c085015261085660e08201610698565b60e085015261086861010082016106a5565b61010085015261087b61012082016106b2565b61012085015261088e61014082016106bf565b6101408501526108a161016082016106bf565b6101608501526108b461018082016106cc565b6101808501526108c76101a082016106d9565b6101a08501526108da6101c082016106e6565b6101c08501526108ed6101e082016106f3565b6101e08501526109006102008201610700565b610200850152610913610220820161070d565b610220850152610926610240820161071a565b6102408501526109396102608201610727565b61026085015261094c6102808201610734565b61028085015261095f6102a08201610741565b6102a08501526109726102c082016106bf565b6102c08501526109856102e082016106bf565b6102e085015261099861030082016106cc565b6103008501526109ab610320820161074e565b6103208501526109be610340820161075b565b6103408501526109d16103608201610768565b6103608501526109e46103808201610775565b6103808501526109f76103a08201610782565b6103a0850152016106a5565b6103c082015290565b919091610a2b6020604051614e808101604052614e608152015f815290565b6040516368b0b90760e01b8152601b600482015290935f8260248173__$856d4e0bd37480d9335e53b1c9958c1873$__5af4918215610b63575f92610b68575b5060405163609574b560e01b815261ffff93909316600484015260ff1660248301526044820192909252905f826064816001600160a01b037f0000000000000000000000000000000000000000000000000000000000000000165afa918215610b63575f92610b3f575b50610ae08282611052565b610af7610af2606084015161ffff1690565b611420565b610b35579081610b2c82610b3194867f00000000000000000000000000000000000000000000000000000000000000006119cb565b611d7e565b9091565b90610b3192611763565b610b5c9192503d805f833e610b548183610116565b81019061078f565b905f610ad5565b61057b565b5f9250610b86903d8085833e610b7e8183610116565b810190610496565b91610a6b565b634e487b7160e01b5f52602160045260245ffd5b601b1115610baa57565b610b8c565b906020828203126100885781516001600160401b03811161008857610bd4920161038b565b90565b9080602083519182815201916020808360051b8301019401925f915b838310610c0257505050505090565b9091929394602080610c88600193601f1986820301875289519060c0610c31835160e0845260e08401906100a3565b9260ff86820151168684015260ff604082015116604084015260ff6060820151166060840152610c6b6080820151608085019060ff169052565b60a08181015160ff169084015201519060c08184039101526100a3565b97019301930191939290610bf3565b90602080835192838152019201905f5b818110610cb45750505090565b82511515845260209384019390920191600101610ca7565b92919060018060a01b031683526060602084015260a083019080519160406060860152825180915260c0850190602060c08260051b8801019401915f905b828210610d385750505050610d3360019260206040930151605f19878303016080880152610c97565b930152565b9091929460bf1988820301825285519081518152610d65602083015160a0602084015260a08301906100a3565b6040830151908281036040840152602080835192838152019201905f905b808210610dc95750505082610dbb602093608080610db08796606060019a01518582036060870152610bd7565b94015160ff16910152565b970192019201909291610d0a565b90919260208060019263ffffffff8751168152019401920190610d83565b92919060018060a01b031683526060602084015260a083019080519160406060860152825180915260c0850190602060c08260051b8801019401915f905b828210610e4d5750505050610d335f9260206040930151605f19878303016080880152610c97565b9091929460bf1988820301825285519081518152610e7a602083015160a0602084015260a08301906100a3565b6040830151908281036040840152602080835192838152019201905f905b808210610ed35750505082610ec5602093608080610db08796606060019a01518582036060870152610bd7565b970192019201909291610e25565b90919260208060019263ffffffff8751168152019401920190610e98565b9392919060018060a01b031684526060602085015260a084019080519160406060870152825180915260c0860190602060c08260051b8901019401915f905b828210610f57575050505060200151848203605f19016080860152604091610d3391610c97565b9091929460bf1989820301825285519081518152610f84602083015160a0602084015260a08301906100a3565b6040830151908281036040840152602080835192838152019201905f905b808210610fdd5750505082610fcf602093608080610db08796606060019a01518582036060870152610bd7565b970192019201909291610f30565b90919260208060019263ffffffff8751168152019401920190610fa2565b634e487b7160e01b5f52603260045260245ffd5b80516001101561101f5760400190565b610ffb565b80511561101f5760200190565b805182101561101f5760209160051b010190565b51601b811015610baa5790565b90606081019061ffff611067835161ffff1690565b161561120357505161107c9061ffff16611420565b1561112457604051635de99db160e11b8152905f82806110c0847f000000000000000000000000000000000000000000000000000000000000000060048401610de7565b038173__$856d4e0bd37480d9335e53b1c9958c1873$__5af4908115610b63576110fd925f92611100575b5051906110f782611024565b52611024565b50565b61111d9192503d805f833e6111158183610116565b810190610baf565b905f6110eb565b604051635de99db160e11b81527f0000000000000000000000000000000000000000000000000000000000000000919073__$856d4e0bd37480d9335e53b1c9958c1873$__5f828061117a868860048401610ccc565b0381845af4908115610b63576111c8946111ab85935f9586916111e9575b508451906111a58261100f565b5261100f565b50604051809681948293635de99db160e11b845260048401610de7565b03915af4908115610b63576110fd925f92611100575051906110f782611024565b6111fd91503d8088833e6111158183610116565b5f611198565b604051635de99db160e11b81529293927f0000000000000000000000000000000000000000000000000000000000000000925073__$856d4e0bd37480d9335e53b1c9958c1873$__91905f818061125e898860048401610ccc565b0381865af48015610b6357611281915f916113d9575b508651906111a58261100f565b505f5b61129b611295602084015160ff1690565b60ff1690565b8110156113d1576112c26112b96112b3838551611031565b51611045565b61129581610ba0565b604051635de99db160e11b8152905f82806112e2848c8b60048501610ef1565b0381885af48015610b635761130c925f916113b7575b508851906113068383611031565b52611031565b50611325604061131d838551611031565b510151151590565b611332575b600101611284565b61134d6112b96060611345848651611031565b510151611045565b90604051635de99db160e11b81525f818061136d868c8b60048501610ef1565b0381885af4928315610b6357600193611395925f9161139d575b508951906113068383611031565b50905061132a565b6113b191503d805f833e6111158183610116565b5f611387565b6113cb91503d805f833e6111158183610116565b5f6112f8565b505050509050565b6113ed91503d805f833e6111158183610116565b5f611274565b634e487b7160e01b5f52601160045260245ffd5b61ffff5f199116019061ffff821161141b57565b6113f3565b61ffff8116156114a85761143661ffff91611407565b166004811490811561149d575b8115611492575b8115611487575b811561147c575b8115611471575b8115611469575090565b600d91501490565b600b8114915061145f565b600881149150611458565b600781149150611451565b60068114915061144a565b600581149150611443565b505f90565b61ffff60649116019061ffff821161141b57565b906020828203126100885781516001600160401b03811161008857610bd49201610199565b604051906114f5606083610116565b603c82527f30302f737667222076696577426f783d22302030203438203438223e000000006040837f3c73766720786d6c6e733d22687474703a2f2f7777772e77332e6f72672f323060208201520152565b60405190611556606083610116565b602e82526d30ba32b21dbe9e17b9ba3cb6329f60911b6040837f3c7374796c653e696d677b696d6167652d72656e646572696e673a706978656c60208201520152565b604051906115a8604083610116565b601782527f3c672069643d2247656e657261746564496d616765223e0000000000000000006020830152565b604051906115e3606083610116565b602682527f3c666f726569676e4f626a6563742077696474683d22343822206865696768746020830152651e911a1c111f60d11b6040830152565b6040519061162d608083610116565b60458252641cd94d8d0b60da1b6060837f3c696d6720786d6c6e733d22687474703a2f2f7777772e77332e6f72672f313960208201527f39392f7868746d6c22207372633d22646174613a696d6167652f706e673b626160408201520152565b6040519061169c606083610116565b603882527f666f726569676e4f626a6563743e3c2f673e3c2f7376673e00000000000000006040837f222077696474683d223130302522206865696768743d2231303025222f3e3c2f60208201520152565b604051906116fd606083610116565b603182527f2261747472696275746573223a5b2274726169745f74797065223a225370656360208301527034b0b61018b99116113b30b63ab2911d1160791b6040830152565b60405190611752604083610116565b6002825261225d60f01b6020830152565b5f61178161177c60606117a595979697015161ffff1690565b6114ad565b6040516369dde37960e01b815261ffff909116600482015292839081906024820190565b03817f00000000000000000000000000000000000000000000000000000000000000006001600160a01b03165afa908115610b635761182f611847926020945f9161187e575b506117fd6117f76114e6565b84612bfd565b6118086117f7611547565b6118136117f7611599565b61181e6117f76115d4565b6118296117f761161e565b82612c40565b61184061183a61168d565b82612bfd565b9351611024565b510151611873611867602060405160c4810160405260a48152015f815290565b9161183a6117f76116ee565b610bd461183a611743565b61189a91503d805f833e6118928183610116565b8101906114c1565b5f6117eb565b604051906118af604083610116565b60138252721e339034b21e912130b1b5b3b937bab732111f60691b6020830152565b604051906118e0604083610116565b60048252631e17b39f60e11b6020830152565b60405190602082018281106001600160401b038211176100f6576040819052826106006119208184610116565b5f5b81811061192e57505052565b60209060405161193e8482610116565b833682378186015201611922565b6040519061195b608083610116565b605582527f3c666f726569676e4f626a6563742077696474683d223438222068656967687460208301527f3d223438223e3c696d6720786d6c6e733d22687474703a2f2f7777772e77332e60408301527437b93397989c9c9c97bc343a36b6111039b9319e9160591b6060830152565b838383611a01939694966119e66119e06114e6565b83612bfd565b6119f16119e0611547565b6119fc6119e06118a0565b61231e565b611a0c6117f76118d1565b611a146118f3565b905f5b611a28611295602084015160ff1690565b811015611ae357806001611a416112b382948651611031565b611a4a81610ba0565b14611ade57611a8a611a606112b3838651611031565b611a6981610ba0565b611a826020611a79858851611031565b51015160ff1690565b9087876126ed565b611a9a604061131d838651611031565b611aa5575b01611a17565b611ade611ab86060611345848751611031565b611ac181610ba0565b611a8260206060611ad3868951611031565b510151015160ff1690565b611a9f565b5050610146929150611af7611b0d916129c2565b611b026117f7611599565b61183a6117f761194c565b611b1561168d565b90612bfd565b60405190611b2a604083610116565b600e82526d2261747472696275746573223a5b60901b6020830152565b60405190611b56606083610116565b603782527f7065223a224269727468646179222c2276616c7565223a0000000000000000006040837f7b22646973706c61795f74797065223a2264617465222c2274726169745f747960208201520152565b60405190611bb7604083610116565b60018252607d60f81b6020830152565b60405190611bd6604083610116565b60018252600b60fa1b6020830152565b60051115610baa57565b60405190611bff604083610116565b600a825269109858dad9dc9bdd5b9960b21b6020830152565b5f5490611c2482610167565b91611c326040519384610116565b8083525f808052907f290decd9548b62a8d60345a988386fc84ba6bc95484008f6362f93160ef3e563602085015b828410611c6d5750505050565b6040515f83548060011c9060018116908115611d2d575b602083108214611d19578285526020850191908115611d025750600114611cc9575b505060019282611cbb85946020940382610116565b815201920193019290611c60565b909150611cd9855f5260205f2090565b915f925b818410611cee575050018282611ca6565b600181602092548686015201930192611cdd565b60ff191682525090151560051b0190508282611ca6565b634e487b7160e01b5f52602260045260245ffd5b91607f1691611c84565b60405190611d46604083610116565b600a8252695370656369616c20317360b01b6020830152565b60405190611d6e604083610116565b60018252605d60f81b6020830152565b90611d9b6020604051610a248101604052610a048152015f815290565b91611da76117f7611b1b565b611db26117f7611b47565b611dda6117f7611dd5611dcc608086015163ffffffff1690565b63ffffffff1690565b612a4f565b611de56117f7611ba8565b611df06117f7611bc7565b611dfa815161100f565b51606060c084015191611e0c83611be6565b611e1583611be6565b019081515115611fbf57611e306117f791611e3f9351611031565b5151611e3a611bf0565b612a94565b606082019161ffff611e53845161ffff1690565b1615611ed25750611e85611e7e611e79611e6f60609451611024565b51945161ffff1690565b611407565b61ffff1690565b9101519081518110611ea0575b50505b610bd461183a611d5f565b611eb061183a91611ecb93611031565b5151611ec3611ebd611bc7565b85612bfd565b611e3a611d37565b5f80611e92565b9150915f5b611ee8611295602085015160ff1690565b811015611fb65780611f006112b36001938651611031565b611f0981610ba0565b611f1c6112956020611a79858951611031565b90838114611faf57611f2f908751611031565b519060608201519182518015159081611fa5575b50611f53575b5050505b01611ed7565b6020611f95611f686117f794611f9d96611031565b51611f7a611f74611bc7565b8a612bfd565b835190611f8682610ba0565b51611f8f611c18565b91612afb565b910151612a94565b5f8080611f49565b905082105f611f43565b5050611f4d565b50915050611e95565b635fa1f14560e11b5f5260045ffd5b5f1981019190821161141b57565b9190820391821161141b57565b60141115610baa57565b60ff166014811015610baa5790565b60405190612011604083610116565b601d82527f3c646566733e3c6c696e6561724772616469656e742069643d2262672d0000006020830152565b6040519061204c604083610116565b600682526511103c189e9160d11b6020830152565b60405190612070604083610116565b600682526511103c989e9160d11b6020830152565b60405190612094604083610116565b600682526511103c191e9160d11b6020830152565b604051906120b8604083610116565b600682526511103c991e9160d11b6020830152565b604051906120dc604083610116565b6002825261111f60f11b6020830152565b634e487b7160e01b5f52601260045260245ffd5b60405190612110608083610116565b604382526262672d60e81b6060837f3c2f6c696e6561724772616469656e743e3c2f646566733e3c7265637420776960208201527f6474683d22343822206865696768743d223438222066696c6c3d2275726c282360408201520152565b6040519061217d604083610116565b60048252631491179f60e11b6020830152565b6040519061219f604083610116565b601d82527f3c646566733e3c72616469616c4772616469656e742069643d2262672d0000006020830152565b604051906121da608083610116565b604382526262672d60e81b6060837f3c2f72616469616c4772616469656e743e3c2f646566733e3c7265637420776960208201527f6474683d22343822206865696768743d223438222066696c6c3d2275726c282360408201520152565b6103e80190816103e81161141b57565b906001820180921161141b57565b9190820180921161141b57565b60405190612272606083610116565b602f82526e17b337b932b4b3b727b13532b1ba1f60891b6040837f222077696474683d223130302522206865696768743d223130302522202f3e3c60208201520152565b604051906122c5606083610116565b602382527f3c726563742077696474683d22343822206865696768743d223438222066696c602083015262361e9160e91b6040830152565b6040519061230c604083610116565b600382526211179f60e91b6020830152565b9291909260019060c0612332838551611031565b51940191825161234181611be6565b61234a81611be6565b60ff60608701918251519182911610156126765750612381905161237b855161237281611be6565b61129581611be6565b90611031565b5193612399612394602087015160ff1690565b611ff3565b6123a281611fe9565b600281036124345750505050506123cd60c060409201516123c7608085015160ff1690565b906130b6565b910180515161ffff8316928184101561241a5750506124016123f761014694936124129351611031565b5163ffffffff1690565b61240c6117f76122b6565b82613174565b611b156122fd565b63395fbd4b60e21b5f5261ffff1660045260245260445b5ffd5b909294919396955061244581611fe9565b8084036124e357505050505f90612471612492945161246381611be6565b61246c81611be6565b612238565b9060405180809681946369dde37960e01b8352600483019190602083019252565b03916001600160a01b03165afa918215610b6357610146926124c1915f916124c9575b5061181e6117f76115d4565b611b15612263565b6124dd91503d805f833e6118928183610116565b5f6124b5565b9092959193506124f281611fe9565b6013810361255e575061255692916101469561251e61254b935161251581611be6565b611dd581611be6565b9361253061252a612190565b88612bfd565b61253a8588612bfd565b61254561252a6120cd565b86612e68565b61183a6117f76121cb565b611b1561216e565b916101469561257561255695935161251581611be6565b9361258161252a612002565b61258b8588612bfd565b61259661252a61203d565b6125ad61252a611dd5611295604087015160ff1690565b6125b861252a612061565b6125cf61252a611dd5611295606087015160ff1690565b6125da61252a612085565b6125f161252a611dd5611295608087015160ff1690565b6125fc61252a6120a9565b61261361252a611dd561129560a087015160ff1690565b61261e61252a6120cd565b61262781611fe9565b6001811615908161265d575b501561264e576126439286612f9c565b61183a6117f7612101565b6126589286612e68565b612643565b600491508061266d60ff92611fe9565b1610155f612633565b612431908590849080156126c45761268f60ff91611fce565b925b519161269c83611be6565b6126a583611be6565b63ad07331360e01b5f5260ff9116811660045216602452604452606490565b5060ff5f92612691565b5f19811461141b5760010190565b90815181101561101f570160200190565b92906126fe905160ff841690611031565b519160608301908151519260ff8116938085101561292f57505050906127249151611031565b5160c08101805151801561291d575051925f93805191604084019361274d611295865160ff1690565b9261275f611295606084015160ff1690565b9760806040818a0199019301955b8082106127805750505050505050505050565b6127ad6127a7612799612792856126ce565b94866126dc565b516001600160f81b03191690565b60f81c90565b60016127bd6112958c5160ff1690565b036128d9576127de6112956127a76127996127d7876126ce565b96886126dc565b85515161ffff8216918183101561241a5750506123f76127ff918751611031565b60ff5f92169060ff81161515905b8260ff851610612820575050505061276d565b909192988d9e9d60308210908115916128cd575b506128b15761284e908f9e9f8385612899575b50506126ce565b9861285d6112958c5160ff1690565b8a11612872575b60010160ff1692919061280d565b9c985060ff600161289061288a6112958f5160ff1690565b9b6126ce565b9e915050612864565b60ff6128aa921660ff84168d6132b6565b8e83612847565b630b49a7ed60e11b5f5260ff9081166004528e1660245260445ffd5b6030915010158f612834565b6129026128f86112956127a76127996128f1886126ce565b97896126dc565b60081b61ff001690565b6129176112956127a76127996128f1886126ce565b176127de565b637f5ab42b60e11b5f5260045260245ffd5b612431935080156129635761294390611fce565b915b63ad07331360e01b5f5260ff90811660045216602452604452606490565b505f91612945565b805191908290602001825e015f815290565b906101466129b4926040519384917519185d184e9a5b5859d94bdc1b99ced8985cd94d8d0b60521b6020840152603683019061296b565b03601f198101845283610116565b5f5b603081106129e657506129e16129dc610bd492613484565b613b83565b61297d565b91905f5b603081106129fd575090916001016129c4565b80635f5d6eff612a2d63ffffffff612a22600195612a1c8a89516132a5565b516132a5565b511663ffffffff1690565b14612a39575b016129ea565b5f612a4982612a1c8887516132a5565b52612a33565b90604051600a608082019360a083016040525f8552935b5f190193603082820601855304928315612a8257600a90612a66565b809350608091030191601f1901918252565b600261014691612ae4612acc9594600b6040519788946e3d913a3930b4ba2fba3cb832911d1160891b6020870152602f86019061296b565b6a1116113b30b63ab2911d1160a91b8152019061296b565b61227d60f01b815203601d19810185520183610116565b919091612b0781610ba0565b600c8114908115612be8575b8115612bd3575b8115612bbe575b8115612ba9575b8115612b94575b8115612b7f575b8115612b6a575b8115612b56575b50612b4d575090565b610bd491613610565b60079150612b6381610ba0565b145f612b44565b9050612b7581610ba0565b6018811490612b3d565b9050612b8a81610ba0565b600d811490612b36565b9050612b9f81610ba0565b6016811490612b2f565b9050612bb481610ba0565b600b811490612b28565b9050612bc981610ba0565b6015811490612b21565b9050612bde81610ba0565b600a811490612b1a565b9050612bf381610ba0565b6017811490612b13565b90612c09815183613787565b8051906020828183019201019060208451850101905b828110612c30575050508151019052565b8051825260209182019101612c1f565b81518015612d24576003600282010460021b906003810690612c628385613787565b604051947f4142434445464748494a4b4c4d4e4f505152535455565758595a616263646566601f5261022f197f6768696a6b6c6d6e6f707172737475767778797a303132333435363738392d5f01603f526004600360208751880101938301925b0192603f8451818160121c165183538181600c1c16516001840153818160061c1651600284015316516003820153019181811015612d05576003600491612cc3565b50506001603d92838115158403531460011b9003538151019052604052565b505050565b15612d3057565b60405162461bcd60e51b815260206004820152603160248201527f54726169744461746120697320656d7074792c20636f756c646e2774206665746044820152706368206772616469656e742073746f707360781b6064820152608490fd5b8115612d99570490565b6120ed565b8181029291811591840414171561141b57565b9060648202918083056064149015171561141b57565b90620f4240820291808305620f4240149015171561141b57565b8115612d9957600160ff1b81145f1983141661141b570590565b60405190612e0a604083610116565b600e82526d1e39ba37b81037b33339b2ba1e9160911b6020830152565b60405190612e36604083610116565b600382526201291160ed1b6020830152565b60405190612e57604083610116565b6002825261179f60f11b6020830152565b9291612e779060c09251611031565b51910190612e888251511515612d29565b81515190612ea86080820192612ea2611295855160ff1690565b90612d8f565b9160405f9201915b838110612ebf57505050505050565b612ee68551612edb612ed5611295865160ff1690565b84612d9e565b845160ff1691613109565b83515161ffff8216918183101561241a57505090612f5d612f0d6123f76001948751611031565b612f4c612f3b612f36612f27612f2287612db1565b612dc7565b612f308b611fce565b90612de1565b6137b0565b611f74612f46612dfb565b8c612bfd565b612f57611f74612e27565b886138d6565b612f6861252a612e48565b01612eb0565b60405190612f7d604083610116565b601082526f179f1e39ba37b81037b33339b2ba1e9160811b6020830152565b91612faa9060c09251611031565b51920190612fbb8251511515612d29565b81515192612fd56080820194612ea2611295875160ff1690565b9360405f9201915b858110612fec57505050505050565b6130028551612edb612ed5611295865160ff1690565b83515161ffff8216918183101561241a5750509061309f6130296123f76001948751611031565b61308e613044612f368b61303f612f2288612db1565b612de1565b61306e613062612f368d61303f612f2261305d8b612248565b612db1565b91611f74612f46612dfb565b613079611f74612e27565b613083838a6138d6565b61252a611f74612f6e565b61309961252a612e27565b866138d6565b6130b06130aa612e48565b86612bfd565b01612fdd565b9060ff166001146130f85780511561101f57602081015160f01c61ff0016906130f490611295906127a790612799906130ee5f612248565b906126dc565b1790565b80511561101f576020015160f81c90565b909160ff166001146131445760ff61313a826130ee61ff0061312c8786976126dc565b5160f81c60081b1695612248565b5160f81c16161790565b9061314e916126dc565b5160f81c90565b60405190613164604083610116565b60018252602360f81b6020830152565b601882901c60ff16906131ab60ff61319561319f82601088901c61ffff1683565b1663ffffffff1690565b9560081c62ffffff1690565b926131b76119e0613155565b6131c460ff841660041c90565b92601084101561101f57600f1693601085101561101f576131e58260041c90565b91601083101561101f57600f1694601086101561101f576132068260041c90565b91601083101561101f57600f1691601083101561101f576040516f181899199a1a9b1b9c1cb0b131b232b360811b9687901a60f890811b6001600160f81b031990811660208401529388901a811b841660218301529487901a851b831660228201529686901a841b8216602388015285901a831b8116602487015293901a901b909116602583015261014691906132a082602681016129b4565b612bfd565b90603081101561101f5760051b0190565b919260ff811680156133cf5760ff601883901c8116169160ff601082901c61ffff16169260ff600883901c62ffffff1616926132fa6123f789612a1c898b516132a5565b9360ff85169384156133b35760ff83146133b3575060ff601886901c8116169360ff61333681601089901c61ffff16169760081c62ffffff1690565b16968360ff039260ff607f858502010485019889156133aa575b84848b6101469f9c99958961339f9f9c9980612a1c9f9c989a85809c8560ff809c968582980202049102010460081b9d0202049102010460101b960202049102010460181b17171794516132a5565b9063ffffffff169052565b60019950613350565b9792505050610146969350612a1c925061339f949150516132a5565b5050505050565b604051906133e5604083610116565b600882526744a8272386850d0560c11b6020830152565b6040519061340b604083610116565b601982527c0d49484452000000300000003008060000005702f987000000000000006020830152565b60405190613443604083610116565b600c82526724a2a7225721304160a11b6020830152565b9061347e949361347e6101469461347e6129b494604051998a97602089019061296b565b9061296b565b61348c6135aa565b905f905f5b603081106134cf575050506134b06134ab610bd4926139a7565b613abc565b6134b86133d6565b906134c16133fc565b6134c9613434565b9261345a565b5f6134de6001850194866126dc565b535f5b603081106134f25750600101613491565b806135076123f784612a1c60019588516132a5565b9461352b61351b601888901c60ff16611295565b60f81b6001600160f81b03191690565b5f1a61353782896126dc565b5361354c61351b601088901c61ffff16611295565b5f1a61355a848301896126dc565b536135a3600461357561351b60088a901c62ffffff16611295565b9260038101935f1a61358a600283018c6126dc565b53019660f81b6001600160f81b0319165f1a91886126dc565b53016134e1565b60405161243091906124606135bf8183610116565b8382526001600160401b038294116100f657601f190190369060200137565b906135e88261017e565b6135f56040519182610116565b8281528092613606601f199161017e565b0190602036910137565b915f905b825182101561370e576136278284611031565b51845181511061363d575b509060010190613614565b6001935f5b825180821015613703576127996136668361366161366c948c51611fdc565b612256565b896126dc565b61368961367c61279984876126dc565b6001600160f81b03191690565b6001600160f81b0319909116036136a257600101613642565b5093505f9291925b6136b657919091613632565b6136d09293506136cb91508451905190611fdc565b6135de565b5f5b81518110156136fe57806136eb612799600193876126dc565b5f1a6136f782856126dc565b53016136d2565b509150565b5050939291926136aa565b915050565b601f198101519051600c810191603f190190821061141b571061373257565b60405162461bcd60e51b815260206004820152602760248201527f44796e616d69634275666665723a20417070656e64696e67206f7574206f66206044820152663137bab732399760c91b6064820152608490fd5b603f19601f1982015101905191820180921161141b571061373257565b801561141b575f190190565b61383561381a91612710810290620f4240806137d76127106137d28387613c64565b613c6e565b930760011b12156138cc575b5f82126138c1575b6138076137ff620f42406138279305613db2565b926004613de1565b61347e604051958694602086019061296b565b601760f91b815260010190565b03601f198101835282610116565b61383f8151611fce565b8015158061389e575b1561385b57613856906137a4565b61383f565b610bd4919061388a90601760f91b6001600160f81b031961387f61279984876126dc565b161461389057612248565b90613e7b565b613899906137a4565b612248565b50600360fc1b6001600160f81b03196138ba61279984866126dc565b1614613848565b5f91909103906137eb565b90600101906137e3565b9190916040908151936138e98386610116565b600c85526b39ba37b816b1b7b637b91e9160a11b6020860190815261390d83613713565b60208651809297010160208451850101965b81811061395d5750506101469495509061393e91835101835282613174565b61394a82519283610116565b60018252601160f91b6020830152612bfd565b805188526020978801970161391f565b60049061347e949361398c61014694604051978894602086019061296b565b9063ffffffff60e01b16815203601b19810185520183610116565b61ffff815116906139c561ffff6139bd84613c78565b931916613c78565b60405161780160f01b6020820152600160f81b60228201526001600160f01b031993841660238201529216602583015260078252613a04602783610116565b6001905f935f925b8251841015613a6157613a1f84846126dc565b5160f81c019461fff1861015613a55575b85019261fff1841015613a48575b6001019294613a0c565b61fff01990930192613a3e565b9461fff0190194613a30565b610bd4949350613a7d90613a82929660101b1763ffffffff1690565b613d23565b9161396d565b6040516001600160e01b0319918216602082015291166024820152929161014691600491859161398c90602884019061296b565b90604051631251105560e21b6020820152613ade81613827602482018661296b565b5f9163ffffffff5b8251841015613b4b57613b026112956127a761279987876126dc565b18925f5b600860ff821610613b1b575060010192613ae6565b9360ff90600190818082811c637fffffff16921603613b445763edb88320905b18950116613b06565b5f90613b3b565b915092610bd49250613b7463ffffffff613b6c613a7d845163ffffffff1690565b931916613d23565b91631251105560e21b90613a88565b90606091805180613b92575050565b9092506003600282010460021b90604051937f4142434445464748494a4b4c4d4e4f505152535455565758595a616263646566601f526106707f6768696a6b6c6d6e6f707172737475767778797a303132333435363738392d5f18603f526020850191838601926004600360208601945b0191603f8351818160121c16515f538181600c1c1651600153818160061c165160025316516003535f518152019083821015613c4457600490600390613c03565b50915060405f93016040526003613d3d60f01b9106600204820352528252565b8115612d99570590565b8115612d99570790565b6040516001600160f81b031960f883901b81166020830190815260f09390931b16602182015260028152613cad602282610116565b5190516001600160f01b03198116919060028210613cca57505090565b6001600160f01b031960029290920360031b82901b1616919050565b80516020909101516001600160e01b0319811692919060048210613d08575050565b6001600160e01b031960049290920360031b82901b16169150565b610bd490613d4560ff601883901c81165b1660f81b6001600160f81b03191690565b90613d5960ff601083901c61ffff16613d34565b613d6d60ff600884901c62ffffff16613d34565b6040516001600160f81b0319948516602082015291841660218301528316602282015260f89190911b909116602382015260048152613dad602482610116565b613ce6565b5f811215613dd857613dc5905f03612a4f565b906001825192602d81525f190192018252565b610bd490612a4f565b9190915f8312613e72575b916060905f5b848110613e2f5750505b8281511015613e2b57604051600360fc1b602082015290613e26908290613827906021830161347e565b613dfc565b9150565b909391613e6861347e613e60600193613827613e4f611dd58b600a900790565b91604051948593602085019061296b565b95600a900590565b9101939193613df2565b915f0391613dec565b91905f92606093815183811115613eeb575b8015613ee3575b50828110613ea157505050565b6040519450918290039101601f8201601f19165b8181015185820152601f1901908115613ece5790613eb5565b505060408184015f6020820152016040528252565b90505f613e94565b925082613e8d56fea2646970667358221220fea5002d110ab3475c7808582c91bd91c097e128a627ddebb6f29d7c5c813aeb64736f6c634300081e0033290decd9548b62a8d60345a988386fc84ba6bc95484008f6362f93160ef3e563",
			"opcodes": "PUSH1 0xC0 PUSH1 0x40 MSTORE CALLVALUE PUSH2 0xA25 JUMPI PUSH2 0x49E6 PUSH1 0x40 DUP2 CODESIZE SUB SWAP2 DUP3 PUSH2 0x1C DUP2 PUSH2 0xA29 JUMP JUMPDEST SWAP4 DUP5 SWAP3 DUP4 CODECOPY DUP2 ADD SUB SLT PUSH2 0xA25 JUMPI DUP1 MLOAD SWAP1 PUSH1 0x1 PUSH1 0x1 PUSH1 0xA0 SHL SUB DUP3 AND DUP3 SUB PUSH2 0xA25 JUMPI PUSH1 0x20 ADD MLOAD SWAP1 PUSH1 0x1 PUSH1 0x1 PUSH1 0xA0 SHL SUB DUP3 AND DUP3 SUB PUSH2 0xA25 JUMPI PUSH1 0x40 MLOAD PUSH2 0x6C0 DUP2 ADD PUSH1 0x1 PUSH1 0x1 PUSH1 0x40 SHL SUB DUP2 GT DUP3 DUP3 LT OR PUSH2 0x974 JUMPI PUSH1 0x40 MSTORE PUSH2 0x78 PUSH1 0x40 PUSH2 0xA29 JUMP JUMPDEST PUSH1 0x2 DUP2 MSTORE PUSH2 0x2031 PUSH1 0xF0 SHL PUSH1 0x20 DUP3 ADD MSTORE DUP2 MSTORE PUSH2 0x93 PUSH1 0x40 PUSH2 0xA29 JUMP JUMPDEST PUSH1 0x2 DUP2 MSTORE PUSH2 0x1019 PUSH1 0xF1 SHL PUSH1 0x20 DUP3 ADD MSTORE PUSH1 0x20 DUP3 ADD MSTORE PUSH2 0xB1 PUSH1 0x40 PUSH2 0xA29 JUMP JUMPDEST PUSH1 0x2 DUP2 MSTORE PUSH2 0x2033 PUSH1 0xF0 SHL PUSH1 0x20 DUP3 ADD MSTORE PUSH1 0x40 DUP3 ADD MSTORE PUSH2 0xCF PUSH1 0x40 PUSH2 0xA29 JUMP JUMPDEST PUSH1 0x2 DUP2 MSTORE PUSH2 0x80D PUSH1 0xF2 SHL PUSH1 0x20 DUP3 ADD MSTORE PUSH1 0x60 DUP3 ADD MSTORE PUSH2 0xED PUSH1 0x40 PUSH2 0xA29 JUMP JUMPDEST PUSH1 0x2 DUP2 MSTORE PUSH2 0x2035 PUSH1 0xF0 SHL PUSH1 0x20 DUP3 ADD MSTORE PUSH1 0x80 DUP3 ADD MSTORE PUSH2 0x10B PUSH1 0x40 PUSH2 0xA29 JUMP JUMPDEST PUSH1 0x2 DUP2 MSTORE PUSH2 0x101B PUSH1 0xF1 SHL PUSH1 0x20 DUP3 ADD MSTORE PUSH1 0xA0 DUP3 ADD MSTORE PUSH2 0x129 PUSH1 0x40 PUSH2 0xA29 JUMP JUMPDEST PUSH1 0x2 DUP2 MSTORE PUSH2 0x2037 PUSH1 0xF0 SHL PUSH1 0x20 DUP3 ADD MSTORE PUSH1 0xC0 DUP3 ADD MSTORE PUSH2 0x147 PUSH1 0x40 PUSH2 0xA29 JUMP JUMPDEST PUSH1 0x2 DUP2 MSTORE PUSH2 0x407 PUSH1 0xF3 SHL PUSH1 0x20 DUP3 ADD MSTORE PUSH1 0xE0 DUP3 ADD MSTORE PUSH2 0x165 PUSH1 0x40 PUSH2 0xA29 JUMP JUMPDEST PUSH1 0x2 DUP2 MSTORE PUSH2 0x2039 PUSH1 0xF0 SHL PUSH1 0x20 DUP3 ADD MSTORE PUSH2 0x100 DUP3 ADD MSTORE PUSH2 0x184 PUSH1 0x40 PUSH2 0xA29 JUMP JUMPDEST PUSH1 0x3 DUP2 MSTORE PUSH3 0x20313 PUSH1 0xEC SHL PUSH1 0x20 DUP3 ADD MSTORE PUSH2 0x120 DUP3 ADD MSTORE PUSH2 0x1A4 PUSH1 0x40 PUSH2 0xA29 JUMP JUMPDEST PUSH1 0x3 DUP2 MSTORE PUSH3 0x203131 PUSH1 0xE8 SHL PUSH1 0x20 DUP3 ADD MSTORE PUSH2 0x140 DUP3 ADD MSTORE PUSH2 0x1C4 PUSH1 0x40 PUSH2 0xA29 JUMP JUMPDEST PUSH1 0x3 DUP2 MSTORE PUSH3 0x101899 PUSH1 0xE9 SHL PUSH1 0x20 DUP3 ADD MSTORE PUSH2 0x160 DUP3 ADD MSTORE PUSH2 0x1E4 PUSH1 0x40 PUSH2 0xA29 JUMP JUMPDEST PUSH1 0x5 DUP2 MSTORE PUSH5 0x81319599D PUSH1 0xDA SHL PUSH1 0x20 DUP3 ADD MSTORE PUSH2 0x180 DUP3 ADD MSTORE PUSH2 0x206 PUSH1 0x40 PUSH2 0xA29 JUMP JUMPDEST PUSH1 0x6 DUP2 MSTORE PUSH6 0x8149A59DA1D PUSH1 0xD2 SHL PUSH1 0x20 DUP3 ADD MSTORE PUSH2 0x1A0 DUP3 ADD MSTORE PUSH2 0x229 PUSH1 0x40 PUSH2 0xA29 JUMP JUMPDEST PUSH1 0x6 DUP2 MSTORE PUSH6 0x20426C61636B PUSH1 0xD0 SHL PUSH1 0x20 DUP3 ADD MSTORE PUSH2 0x1C0 DUP3 ADD MSTORE PUSH2 0x24C PUSH1 0x40 PUSH2 0xA29 JUMP JUMPDEST PUSH1 0x6 DUP2 MSTORE PUSH6 0x10213937BBB7 PUSH1 0xD1 SHL PUSH1 0x20 DUP3 ADD MSTORE PUSH2 0x1E0 DUP3 ADD MSTORE PUSH2 0x26F PUSH1 0x40 PUSH2 0xA29 JUMP JUMPDEST PUSH1 0x7 DUP2 MSTORE PUSH7 0x20426C6F6E6465 PUSH1 0xC8 SHL PUSH1 0x20 DUP3 ADD MSTORE PUSH2 0x200 DUP3 ADD MSTORE PUSH2 0x293 PUSH1 0x40 PUSH2 0xA29 JUMP JUMPDEST PUSH1 0x7 DUP2 MSTORE PUSH7 0x1023B4B733B2B9 PUSH1 0xC9 SHL PUSH1 0x20 DUP3 ADD MSTORE PUSH2 0x220 DUP3 ADD MSTORE PUSH2 0x2B7 PUSH1 0x40 PUSH2 0xA29 JUMP JUMPDEST PUSH1 0x6 DUP2 MSTORE PUSH6 0x8131A59DA1D PUSH1 0xD2 SHL PUSH1 0x20 DUP3 ADD MSTORE PUSH2 0x240 DUP3 ADD MSTORE PUSH2 0x2DA PUSH1 0x40 PUSH2 0xA29 JUMP JUMPDEST PUSH1 0x5 DUP2 MSTORE PUSH5 0x204461726B PUSH1 0xD8 SHL PUSH1 0x20 DUP3 ADD MSTORE PUSH2 0x260 DUP3 ADD MSTORE PUSH2 0x2FC PUSH1 0x40 PUSH2 0xA29 JUMP JUMPDEST PUSH1 0x7 DUP2 MSTORE PUSH7 0x20536861646F77 PUSH1 0xC8 SHL PUSH1 0x20 DUP3 ADD MSTORE PUSH2 0x280 DUP3 ADD MSTORE PUSH2 0x320 PUSH1 0x40 PUSH2 0xA29 JUMP JUMPDEST PUSH1 0x5 DUP2 MSTORE PUSH5 0x2046616465 PUSH1 0xD8 SHL PUSH1 0x20 DUP3 ADD MSTORE PUSH2 0x2A0 DUP3 ADD MSTORE PUSH2 0x342 PUSH1 0x40 PUSH2 0xA29 JUMP JUMPDEST PUSH1 0x5 DUP2 MSTORE PUSH5 0x20426C7565 PUSH1 0xD8 SHL PUSH1 0x20 DUP3 ADD MSTORE PUSH2 0x2C0 DUP3 ADD MSTORE PUSH2 0x364 PUSH1 0x40 PUSH2 0xA29 JUMP JUMPDEST PUSH1 0x6 DUP2 MSTORE PUSH6 0x1023B932B2B7 PUSH1 0xD1 SHL PUSH1 0x20 DUP3 ADD MSTORE PUSH2 0x2E0 DUP3 ADD MSTORE PUSH2 0x387 PUSH1 0x40 PUSH2 0xA29 JUMP JUMPDEST PUSH1 0x7 DUP2 MSTORE PUSH7 0x204F72616E6765 PUSH1 0xC8 SHL PUSH1 0x20 DUP3 ADD MSTORE PUSH2 0x300 DUP3 ADD MSTORE PUSH2 0x3AB PUSH1 0x40 PUSH2 0xA29 JUMP JUMPDEST PUSH1 0x5 DUP2 MSTORE PUSH5 0x2050696E6B PUSH1 0xD8 SHL PUSH1 0x20 DUP3 ADD MSTORE PUSH2 0x320 DUP3 ADD MSTORE PUSH2 0x3CD PUSH1 0x40 PUSH2 0xA29 JUMP JUMPDEST PUSH1 0x7 DUP2 MSTORE PUSH7 0x20507572706C65 PUSH1 0xC8 SHL PUSH1 0x20 DUP3 ADD MSTORE PUSH2 0x340 DUP3 ADD MSTORE PUSH2 0x3F1 PUSH1 0x40 PUSH2 0xA29 JUMP JUMPDEST PUSH1 0x4 DUP2 MSTORE PUSH4 0x8149959 PUSH1 0xE2 SHL PUSH1 0x20 DUP3 ADD MSTORE PUSH2 0x360 DUP3 ADD MSTORE PUSH2 0x412 PUSH1 0x40 PUSH2 0xA29 JUMP JUMPDEST PUSH1 0xA DUP2 MSTORE PUSH10 0x2054757271756F697365 PUSH1 0xB0 SHL PUSH1 0x20 DUP3 ADD MSTORE PUSH2 0x380 DUP3 ADD MSTORE PUSH2 0x439 PUSH1 0x40 PUSH2 0xA29 JUMP JUMPDEST PUSH1 0x6 DUP2 MSTORE PUSH6 0x205768697465 PUSH1 0xD0 SHL PUSH1 0x20 DUP3 ADD MSTORE PUSH2 0x3A0 DUP3 ADD MSTORE PUSH2 0x45C PUSH1 0x40 PUSH2 0xA29 JUMP JUMPDEST PUSH1 0x7 DUP2 MSTORE PUSH7 0x2059656C6C6F77 PUSH1 0xC8 SHL PUSH1 0x20 DUP3 ADD MSTORE PUSH2 0x3C0 DUP3 ADD MSTORE PUSH2 0x480 PUSH1 0x40 PUSH2 0xA29 JUMP JUMPDEST PUSH1 0x9 DUP2 MSTORE PUSH9 0x20536B7920426C7565 PUSH1 0xB8 SHL PUSH1 0x20 DUP3 ADD MSTORE PUSH2 0x3E0 DUP3 ADD MSTORE PUSH2 0x4A6 PUSH1 0x40 PUSH2 0xA29 JUMP JUMPDEST PUSH1 0x9 DUP2 MSTORE PUSH9 0x20486F742050696E6B PUSH1 0xB8 SHL PUSH1 0x20 DUP3 ADD MSTORE PUSH2 0x400 DUP3 ADD MSTORE PUSH2 0x4CC PUSH1 0x40 PUSH2 0xA29 JUMP JUMPDEST PUSH1 0xA DUP2 MSTORE PUSH10 0x204E656F6E20426C7565 PUSH1 0xB0 SHL PUSH1 0x20 DUP3 ADD MSTORE PUSH2 0x420 DUP3 ADD MSTORE PUSH2 0x4F3 PUSH1 0x40 PUSH2 0xA29 JUMP JUMPDEST PUSH1 0xB DUP2 MSTORE PUSH11 0x102732B7B71023B932B2B7 PUSH1 0xA9 SHL PUSH1 0x20 DUP3 ADD MSTORE PUSH2 0x440 DUP3 ADD MSTORE PUSH2 0x51B PUSH1 0x40 PUSH2 0xA29 JUMP JUMPDEST PUSH1 0xC DUP2 MSTORE PUSH12 0x204E656F6E20507572706C65 PUSH1 0xA0 SHL PUSH1 0x20 DUP3 ADD MSTORE PUSH2 0x460 DUP3 ADD MSTORE PUSH2 0x544 PUSH1 0x40 PUSH2 0xA29 JUMP JUMPDEST PUSH1 0x9 DUP2 MSTORE PUSH9 0x813995BDB88149959 PUSH1 0xBA SHL PUSH1 0x20 DUP3 ADD MSTORE PUSH2 0x480 DUP3 ADD MSTORE PUSH2 0x56A PUSH1 0x40 PUSH2 0xA29 JUMP JUMPDEST PUSH1 0x5 DUP2 MSTORE PUSH5 0x2047726579 PUSH1 0xD8 SHL PUSH1 0x20 DUP3 ADD MSTORE PUSH2 0x4A0 DUP3 ADD MSTORE PUSH2 0x58C PUSH1 0x40 PUSH2 0xA29 JUMP JUMPDEST PUSH1 0x5 DUP2 MSTORE PUSH5 0x204E617679 PUSH1 0xD8 SHL PUSH1 0x20 DUP3 ADD MSTORE PUSH2 0x4C0 DUP3 ADD MSTORE PUSH2 0x5AE PUSH1 0x40 PUSH2 0xA29 JUMP JUMPDEST PUSH1 0x9 DUP2 MSTORE PUSH9 0x2042757267756E6479 PUSH1 0xB8 SHL PUSH1 0x20 DUP3 ADD MSTORE PUSH2 0x4E0 DUP3 ADD MSTORE PUSH2 0x5D4 PUSH1 0x40 PUSH2 0xA29 JUMP JUMPDEST PUSH1 0x6 DUP2 MSTORE PUSH6 0x204265696765 PUSH1 0xD0 SHL PUSH1 0x20 DUP3 ADD MSTORE PUSH2 0x500 DUP3 ADD MSTORE PUSH2 0x5F7 PUSH1 0x40 PUSH2 0xA29 JUMP JUMPDEST PUSH1 0xA DUP2 MSTORE PUSH10 0x8109B1858DAC812185D PUSH1 0xB2 SHL PUSH1 0x20 DUP3 ADD MSTORE PUSH2 0x520 DUP3 ADD MSTORE PUSH2 0x61E PUSH1 0x40 PUSH2 0xA29 JUMP JUMPDEST PUSH1 0xA DUP2 MSTORE PUSH10 0x8109C9BDDDB8812185D PUSH1 0xB2 SHL PUSH1 0x20 DUP3 ADD MSTORE PUSH2 0x540 DUP3 ADD MSTORE PUSH2 0x645 PUSH1 0x40 PUSH2 0xA29 JUMP JUMPDEST PUSH1 0xB DUP2 MSTORE PUSH11 0x8109B1BDB99194812185D PUSH1 0xAA SHL PUSH1 0x20 DUP3 ADD MSTORE PUSH2 0x560 DUP3 ADD MSTORE PUSH2 0x66D PUSH1 0x40 PUSH2 0xA29 JUMP JUMPDEST PUSH1 0xB DUP2 MSTORE PUSH11 0x811DA5B99D95C8812185D PUSH1 0xAA SHL PUSH1 0x20 DUP3 ADD MSTORE PUSH2 0x580 DUP3 ADD MSTORE PUSH2 0x695 PUSH1 0x40 PUSH2 0xA29 JUMP JUMPDEST PUSH1 0x9 DUP2 MSTORE PUSH9 0x8109B1D594812185D PUSH1 0xBA SHL PUSH1 0x20 DUP3 ADD MSTORE PUSH2 0x5A0 DUP3 ADD MSTORE PUSH2 0x6BB PUSH1 0x40 PUSH2 0xA29 JUMP JUMPDEST PUSH1 0xA DUP2 MSTORE PUSH10 0x811DC99595B8812185D PUSH1 0xB2 SHL PUSH1 0x20 DUP3 ADD MSTORE PUSH2 0x5C0 DUP3 ADD MSTORE PUSH2 0x6E2 PUSH1 0x40 PUSH2 0xA29 JUMP JUMPDEST PUSH1 0xB DUP2 MSTORE PUSH11 0x813DC985B99D94812185D PUSH1 0xAA SHL PUSH1 0x20 DUP3 ADD MSTORE PUSH2 0x5E0 DUP3 ADD MSTORE PUSH2 0x70A PUSH1 0x40 PUSH2 0xA29 JUMP JUMPDEST PUSH1 0x9 DUP2 MSTORE PUSH9 0x8141A5B9AC812185D PUSH1 0xBA SHL PUSH1 0x20 DUP3 ADD MSTORE PUSH2 0x600 DUP3 ADD MSTORE PUSH2 0x730 PUSH1 0x40 PUSH2 0xA29 JUMP JUMPDEST PUSH1 0xB DUP2 MSTORE PUSH11 0x8141D5C9C1B194812185D PUSH1 0xAA SHL PUSH1 0x20 DUP3 ADD MSTORE PUSH2 0x620 DUP3 ADD MSTORE PUSH2 0x758 PUSH1 0x40 PUSH2 0xA29 JUMP JUMPDEST PUSH1 0x8 DUP2 MSTORE PUSH8 0x81499590812185D PUSH1 0xC2 SHL PUSH1 0x20 DUP3 ADD MSTORE PUSH2 0x640 DUP3 ADD MSTORE PUSH2 0x77D PUSH1 0x40 PUSH2 0xA29 JUMP JUMPDEST PUSH1 0xE DUP2 MSTORE PUSH14 0x8151D5C9C5D5BDA5CD94812185D PUSH1 0x92 SHL PUSH1 0x20 DUP3 ADD MSTORE PUSH2 0x660 DUP3 ADD MSTORE PUSH2 0x7A8 PUSH1 0x40 PUSH2 0xA29 JUMP JUMPDEST PUSH1 0xA DUP2 MSTORE PUSH10 0x815DA1A5D194812185D PUSH1 0xB2 SHL PUSH1 0x20 DUP3 ADD MSTORE PUSH2 0x680 DUP3 ADD MSTORE PUSH2 0x7CF PUSH1 0x40 PUSH2 0xA29 JUMP JUMPDEST PUSH1 0xB DUP2 MSTORE PUSH11 0x816595B1B1BDDC812185D PUSH1 0xAA SHL PUSH1 0x20 DUP3 ADD MSTORE PUSH2 0x6A0 DUP3 ADD MSTORE PUSH0 SLOAD PUSH1 0x36 PUSH0 SSTORE DUP1 PUSH1 0x36 LT PUSH2 0x988 JUMPI JUMPDEST POP PUSH0 DUP1 DUP1 MSTORE PUSH0 MLOAD PUSH1 0x20 PUSH2 0x49C6 PUSH0 CODECOPY PUSH0 MLOAD SWAP1 PUSH0 MSTORE SWAP2 JUMPDEST PUSH1 0x36 DUP3 LT PUSH2 0x85F JUMPI POP POP POP PUSH1 0x80 MSTORE PUSH1 0xA0 MSTORE PUSH1 0x40 MLOAD PUSH2 0x3F29 SWAP1 DUP2 PUSH2 0xA9D DUP3 CODECOPY PUSH1 0x80 MLOAD DUP2 DUP2 DUP2 PUSH2 0xB08 ADD MSTORE DUP2 DUP2 PUSH2 0x1098 ADD MSTORE DUP2 DUP2 PUSH2 0x1133 ADD MSTORE DUP2 DUP2 PUSH2 0x1215 ADD MSTORE PUSH2 0x17A9 ADD MSTORE PUSH1 0xA0 MLOAD DUP2 PUSH2 0xAA5 ADD MSTORE RETURN JUMPDEST DUP1 MLOAD DUP1 MLOAD SWAP1 PUSH1 0x1 PUSH1 0x1 PUSH1 0x40 SHL SUB DUP3 GT PUSH2 0x974 JUMPI PUSH2 0x87C DUP6 SLOAD PUSH2 0xA4E JUMP JUMPDEST PUSH1 0x1F DUP2 GT PUSH2 0x939 JUMPI JUMPDEST POP PUSH1 0x20 SWAP1 PUSH1 0x1F DUP4 GT PUSH1 0x1 EQ PUSH2 0x8D0 JUMPI SWAP3 DUP3 PUSH1 0x1 SWAP5 SWAP4 PUSH1 0x20 SWAP4 DUP7 SWAP6 PUSH0 SWAP3 PUSH2 0x8C5 JUMPI JUMPDEST POP POP PUSH0 NOT PUSH1 0x3 DUP4 SWAP1 SHL SHR NOT AND SWAP1 DUP5 SHL OR DUP7 SSTORE JUMPDEST ADD SWAP4 ADD SWAP2 ADD SWAP1 SWAP2 PUSH2 0x811 JUMP JUMPDEST ADD MLOAD SWAP1 POP PUSH0 DUP1 PUSH2 0x8A6 JUMP JUMPDEST SWAP1 PUSH1 0x1F NOT DUP4 AND SWAP2 DUP7 PUSH0 MSTORE DUP2 PUSH0 KECCAK256 SWAP3 PUSH0 JUMPDEST DUP2 DUP2 LT PUSH2 0x921 JUMPI POP SWAP4 PUSH1 0x20 SWAP4 PUSH1 0x1 SWAP7 SWAP4 DUP8 SWAP7 SWAP4 DUP4 DUP9 SWAP6 LT PUSH2 0x909 JUMPI JUMPDEST POP POP POP DUP2 SHL ADD DUP7 SSTORE PUSH2 0x8B9 JUMP JUMPDEST ADD MLOAD PUSH0 NOT PUSH1 0xF8 DUP5 PUSH1 0x3 SHL AND SHR NOT AND SWAP1 SSTORE PUSH0 DUP1 DUP1 PUSH2 0x8FC JUMP JUMPDEST SWAP3 SWAP4 PUSH1 0x20 PUSH1 0x1 DUP2 SWAP3 DUP8 DUP7 ADD MLOAD DUP2 SSTORE ADD SWAP6 ADD SWAP4 ADD PUSH2 0x8E0 JUMP JUMPDEST PUSH2 0x964 SWAP1 DUP7 PUSH0 MSTORE PUSH1 0x20 PUSH0 KECCAK256 PUSH1 0x1F DUP6 ADD PUSH1 0x5 SHR DUP2 ADD SWAP2 PUSH1 0x20 DUP7 LT PUSH2 0x96A JUMPI JUMPDEST PUSH1 0x1F ADD PUSH1 0x5 SHR ADD SWAP1 PUSH2 0xA86 JUMP JUMPDEST PUSH0 PUSH2 0x885 JUMP JUMPDEST SWAP1 SWAP2 POP DUP2 SWAP1 PUSH2 0x957 JUMP JUMPDEST PUSH4 0x4E487B71 PUSH1 0xE0 SHL PUSH0 MSTORE PUSH1 0x41 PUSH1 0x4 MSTORE PUSH1 0x24 PUSH0 REVERT JUMPDEST PUSH0 DUP1 MSTORE PUSH0 MLOAD PUSH1 0x20 PUSH2 0x49C6 PUSH0 CODECOPY PUSH0 MLOAD SWAP1 PUSH0 MSTORE ADD PUSH32 0x290DECD9548B62A8D60345A988386FC84BA6BC95484008F6362F93160EF3E599 JUMPDEST DUP2 DUP2 LT PUSH2 0x9C9 JUMPI POP PUSH2 0x7FC JUMP JUMPDEST DUP1 PUSH2 0x9D6 PUSH1 0x1 SWAP3 SLOAD PUSH2 0xA4E JUMP JUMPDEST DUP1 PUSH2 0x9E3 JUMPI JUMPDEST POP ADD PUSH2 0x9BC JUMP JUMPDEST PUSH1 0x1F DUP2 GT DUP4 EQ PUSH2 0x9F8 JUMPI POP PUSH0 DUP2 SSTORE JUMPDEST PUSH0 PUSH2 0x9DC JUMP JUMPDEST PUSH2 0xA14 SWAP1 DUP3 PUSH0 MSTORE DUP4 PUSH1 0x1F PUSH1 0x20 PUSH0 KECCAK256 SWAP3 ADD PUSH1 0x5 SHR DUP3 ADD SWAP2 ADD PUSH2 0xA86 JUMP JUMPDEST DUP1 PUSH0 MSTORE PUSH0 PUSH1 0x20 DUP2 KECCAK256 DUP2 DUP4 SSTORE SSTORE PUSH2 0x9F2 JUMP JUMPDEST PUSH0 DUP1 REVERT JUMPDEST PUSH1 0x40 MLOAD SWAP2 SWAP1 PUSH1 0x1F ADD PUSH1 0x1F NOT AND DUP3 ADD PUSH1 0x1 PUSH1 0x1 PUSH1 0x40 SHL SUB DUP2 GT DUP4 DUP3 LT OR PUSH2 0x974 JUMPI PUSH1 0x40 MSTORE JUMP JUMPDEST SWAP1 PUSH1 0x1 DUP3 DUP2 SHR SWAP3 AND DUP1 ISZERO PUSH2 0xA7C JUMPI JUMPDEST PUSH1 0x20 DUP4 LT EQ PUSH2 0xA68 JUMPI JUMP JUMPDEST PUSH4 0x4E487B71 PUSH1 0xE0 SHL PUSH0 MSTORE PUSH1 0x22 PUSH1 0x4 MSTORE PUSH1 0x24 PUSH0 REVERT JUMPDEST SWAP2 PUSH1 0x7F AND SWAP2 PUSH2 0xA5D JUMP JUMPDEST DUP2 DUP2 LT PUSH2 0xA91 JUMPI POP POP JUMP JUMPDEST PUSH0 DUP2 SSTORE PUSH1 0x1 ADD PUSH2 0xA86 JUMP INVALID PUSH1 0x80 PUSH1 0x40 MSTORE PUSH1 0x4 CALLDATASIZE LT ISZERO PUSH2 0x11 JUMPI PUSH0 DUP1 REVERT JUMPDEST PUSH0 CALLDATALOAD PUSH1 0xE0 SHR PUSH4 0x7D134433 EQ PUSH2 0x24 JUMPI PUSH0 DUP1 REVERT JUMPDEST CALLVALUE PUSH2 0x88 JUMPI PUSH1 0x60 CALLDATASIZE PUSH1 0x3 NOT ADD SLT PUSH2 0x88 JUMPI PUSH2 0x76 PUSH2 0x84 PUSH2 0x5F PUSH1 0x4 CALLDATALOAD PUSH2 0x4A DUP2 PUSH2 0x8C JUMP JUMPDEST PUSH1 0x24 CALLDATALOAD PUSH2 0x56 DUP2 PUSH2 0x98 JUMP JUMPDEST PUSH1 0x44 CALLDATALOAD SWAP2 PUSH2 0xA0C JUMP JUMPDEST PUSH1 0x40 SWAP3 SWAP2 SWAP3 MLOAD SWAP4 DUP5 SWAP4 PUSH1 0x40 DUP6 MSTORE PUSH1 0x40 DUP6 ADD SWAP1 PUSH2 0xA3 JUMP JUMPDEST SWAP1 DUP4 DUP3 SUB PUSH1 0x20 DUP6 ADD MSTORE PUSH2 0xA3 JUMP JUMPDEST SUB SWAP1 RETURN JUMPDEST PUSH0 DUP1 REVERT JUMPDEST PUSH2 0xFFFF DUP2 AND SUB PUSH2 0x88 JUMPI JUMP JUMPDEST PUSH1 0xFF DUP2 AND SUB PUSH2 0x88 JUMPI JUMP JUMPDEST DUP1 MLOAD DUP1 DUP4 MSTORE PUSH1 0x20 SWAP3 SWAP2 DUP2 SWAP1 DUP5 ADD DUP5 DUP5 ADD MCOPY PUSH0 DUP3 DUP3 ADD DUP5 ADD MSTORE PUSH1 0x1F ADD PUSH1 0x1F NOT AND ADD ADD SWAP1 JUMP JUMPDEST PUSH4 0x4E487B71 PUSH1 0xE0 SHL PUSH0 MSTORE PUSH1 0x41 PUSH1 0x4 MSTORE PUSH1 0x24 PUSH0 REVERT JUMPDEST PUSH1 0x40 DUP2 ADD SWAP1 DUP2 LT PUSH1 0x1 PUSH1 0x1 PUSH1 0x40 SHL SUB DUP3 GT OR PUSH2 0xF6 JUMPI PUSH1 0x40 MSTORE JUMP JUMPDEST PUSH2 0xC7 JUMP JUMPDEST PUSH1 0x80 DUP2 ADD SWAP1 DUP2 LT PUSH1 0x1 PUSH1 0x1 PUSH1 0x40 SHL SUB DUP3 GT OR PUSH2 0xF6 JUMPI PUSH1 0x40 MSTORE JUMP JUMPDEST SWAP1 PUSH1 0x1F DUP1 NOT SWAP2 ADD AND DUP2 ADD SWAP1 DUP2 LT PUSH1 0x1 PUSH1 0x1 PUSH1 0x40 SHL SUB DUP3 GT OR PUSH2 0xF6 JUMPI PUSH1 0x40 MSTORE JUMP JUMPDEST PUSH1 0x40 MLOAD SWAP1 PUSH2 0x146 PUSH1 0xE0 DUP4 PUSH2 0x116 JUMP JUMPDEST JUMP JUMPDEST PUSH1 0x40 MLOAD SWAP1 PUSH2 0x146 PUSH1 0xA0 DUP4 PUSH2 0x116 JUMP JUMPDEST PUSH1 0x40 MLOAD SWAP1 PUSH2 0x146 PUSH2 0x3E0 DUP4 PUSH2 0x116 JUMP JUMPDEST PUSH1 0x1 PUSH1 0x1 PUSH1 0x40 SHL SUB DUP2 GT PUSH2 0xF6 JUMPI PUSH1 0x5 SHL PUSH1 0x20 ADD SWAP1 JUMP JUMPDEST PUSH1 0x1 PUSH1 0x1 PUSH1 0x40 SHL SUB DUP2 GT PUSH2 0xF6 JUMPI PUSH1 0x1F ADD PUSH1 0x1F NOT AND PUSH1 0x20 ADD SWAP1 JUMP JUMPDEST DUP2 PUSH1 0x1F DUP3 ADD SLT ISZERO PUSH2 0x88 JUMPI DUP1 MLOAD SWAP1 PUSH2 0x1B0 DUP3 PUSH2 0x17E JUMP JUMPDEST SWAP3 PUSH2 0x1BE PUSH1 0x40 MLOAD SWAP5 DUP6 PUSH2 0x116 JUMP JUMPDEST DUP3 DUP5 MSTORE PUSH1 0x20 DUP4 DUP4 ADD ADD GT PUSH2 0x88 JUMPI DUP2 PUSH0 SWAP3 PUSH1 0x20 DUP1 SWAP4 ADD DUP4 DUP7 ADD MCOPY DUP4 ADD ADD MSTORE SWAP1 JUMP JUMPDEST MLOAD SWAP1 PUSH4 0xFFFFFFFF DUP3 AND DUP3 SUB PUSH2 0x88 JUMPI JUMP JUMPDEST SWAP1 DUP1 PUSH1 0x1F DUP4 ADD SLT ISZERO PUSH2 0x88 JUMPI DUP2 MLOAD PUSH2 0x207 DUP2 PUSH2 0x167 JUMP JUMPDEST SWAP3 PUSH2 0x215 PUSH1 0x40 MLOAD SWAP5 DUP6 PUSH2 0x116 JUMP JUMPDEST DUP2 DUP5 MSTORE PUSH1 0x20 DUP1 DUP6 ADD SWAP3 PUSH1 0x5 SHL DUP3 ADD ADD SWAP3 DUP4 GT PUSH2 0x88 JUMPI PUSH1 0x20 ADD SWAP1 JUMPDEST DUP3 DUP3 LT PUSH2 0x23D JUMPI POP POP POP SWAP1 JUMP JUMPDEST PUSH1 0x20 DUP1 SWAP2 PUSH2 0x24A DUP5 PUSH2 0x1DF JUMP JUMPDEST DUP2 MSTORE ADD SWAP2 ADD SWAP1 PUSH2 0x230 JUMP JUMPDEST MLOAD SWAP1 PUSH2 0x146 DUP3 PUSH2 0x98 JUMP JUMPDEST SWAP1 DUP1 PUSH1 0x1F DUP4 ADD SLT ISZERO PUSH2 0x88 JUMPI DUP2 MLOAD SWAP2 PUSH2 0x278 DUP4 PUSH2 0x167 JUMP JUMPDEST SWAP3 PUSH2 0x286 PUSH1 0x40 MLOAD SWAP5 DUP6 PUSH2 0x116 JUMP JUMPDEST DUP1 DUP5 MSTORE PUSH1 0x20 DUP1 DUP6 ADD SWAP2 PUSH1 0x5 SHL DUP4 ADD ADD SWAP2 DUP4 DUP4 GT PUSH2 0x88 JUMPI PUSH1 0x20 DUP2 ADD SWAP2 JUMPDEST DUP4 DUP4 LT PUSH2 0x2B2 JUMPI POP POP POP POP POP SWAP1 JUMP JUMPDEST DUP3 MLOAD PUSH1 0x1 PUSH1 0x1 PUSH1 0x40 SHL SUB DUP2 GT PUSH2 0x88 JUMPI DUP3 ADD SWAP1 PUSH1 0xE0 DUP3 DUP8 SUB PUSH1 0x1F NOT ADD SLT PUSH2 0x88 JUMPI PUSH2 0x2DB PUSH2 0x137 JUMP JUMPDEST SWAP1 PUSH1 0x20 DUP4 ADD MLOAD PUSH1 0x1 PUSH1 0x1 PUSH1 0x40 SHL SUB DUP2 GT PUSH2 0x88 JUMPI DUP8 PUSH1 0x20 PUSH2 0x2FE SWAP3 DUP7 ADD ADD PUSH2 0x199 JUMP JUMPDEST DUP3 MSTORE PUSH2 0x30C PUSH1 0x40 DUP5 ADD PUSH2 0x255 JUMP JUMPDEST PUSH1 0x20 DUP4 ADD MSTORE PUSH2 0x31D PUSH1 0x60 DUP5 ADD PUSH2 0x255 JUMP JUMPDEST PUSH1 0x40 DUP4 ADD MSTORE PUSH2 0x32E PUSH1 0x80 DUP5 ADD PUSH2 0x255 JUMP JUMPDEST PUSH1 0x60 DUP4 ADD MSTORE PUSH2 0x33F PUSH1 0xA0 DUP5 ADD PUSH2 0x255 JUMP JUMPDEST PUSH1 0x80 DUP4 ADD MSTORE PUSH2 0x350 PUSH1 0xC0 DUP5 ADD PUSH2 0x255 JUMP JUMPDEST PUSH1 0xA0 DUP4 ADD MSTORE PUSH1 0xE0 DUP4 ADD MLOAD SWAP2 PUSH1 0x1 PUSH1 0x1 PUSH1 0x40 SHL SUB DUP4 GT PUSH2 0x88 JUMPI PUSH2 0x37B DUP9 PUSH1 0x20 DUP1 SWAP7 SWAP6 DUP2 SWAP7 ADD ADD PUSH2 0x199 JUMP JUMPDEST PUSH1 0xC0 DUP3 ADD MSTORE DUP2 MSTORE ADD SWAP3 ADD SWAP2 PUSH2 0x2A3 JUMP JUMPDEST SWAP2 SWAP1 SWAP2 PUSH1 0xA0 DUP2 DUP5 SUB SLT PUSH2 0x88 JUMPI PUSH2 0x3A0 PUSH2 0x148 JUMP JUMPDEST SWAP3 DUP2 MLOAD DUP5 MSTORE PUSH1 0x20 DUP3 ADD MLOAD PUSH1 0x1 PUSH1 0x1 PUSH1 0x40 SHL SUB DUP2 GT PUSH2 0x88 JUMPI DUP2 PUSH2 0x3C4 SWAP2 DUP5 ADD PUSH2 0x199 JUMP JUMPDEST PUSH1 0x20 DUP6 ADD MSTORE PUSH1 0x40 DUP3 ADD MLOAD PUSH1 0x1 PUSH1 0x1 PUSH1 0x40 SHL SUB DUP2 GT PUSH2 0x88 JUMPI DUP2 PUSH2 0x3E8 SWAP2 DUP5 ADD PUSH2 0x1F0 JUMP JUMPDEST PUSH1 0x40 DUP6 ADD MSTORE PUSH1 0x60 DUP3 ADD MLOAD SWAP2 PUSH1 0x1 PUSH1 0x1 PUSH1 0x40 SHL SUB DUP4 GT PUSH2 0x88 JUMPI PUSH2 0x412 PUSH1 0x80 SWAP3 PUSH2 0x41D SWAP5 DUP4 ADD PUSH2 0x260 JUMP JUMPDEST PUSH1 0x60 DUP7 ADD MSTORE ADD PUSH2 0x255 JUMP JUMPDEST PUSH1 0x80 DUP4 ADD MSTORE JUMP JUMPDEST MLOAD SWAP1 DUP2 ISZERO ISZERO DUP3 SUB PUSH2 0x88 JUMPI JUMP JUMPDEST SWAP1 DUP1 PUSH1 0x1F DUP4 ADD SLT ISZERO PUSH2 0x88 JUMPI DUP2 MLOAD PUSH2 0x448 DUP2 PUSH2 0x167 JUMP JUMPDEST SWAP3 PUSH2 0x456 PUSH1 0x40 MLOAD SWAP5 DUP6 PUSH2 0x116 JUMP JUMPDEST DUP2 DUP5 MSTORE PUSH1 0x20 DUP1 DUP6 ADD SWAP3 PUSH1 0x5 SHL DUP3 ADD ADD SWAP3 DUP4 GT PUSH2 0x88 JUMPI PUSH1 0x20 ADD SWAP1 JUMPDEST DUP3 DUP3 LT PUSH2 0x47E JUMPI POP POP POP SWAP1 JUMP JUMPDEST PUSH1 0x20 DUP1 SWAP2 PUSH2 0x48B DUP5 PUSH2 0x424 JUMP JUMPDEST DUP2 MSTORE ADD SWAP2 ADD SWAP1 PUSH2 0x471 JUMP JUMPDEST PUSH1 0x20 DUP2 DUP4 SUB SLT PUSH2 0x88 JUMPI DUP1 MLOAD SWAP1 PUSH1 0x1 PUSH1 0x1 PUSH1 0x40 SHL SUB DUP3 GT PUSH2 0x88 JUMPI ADD PUSH1 0x40 DUP2 DUP4 SUB SLT PUSH2 0x88 JUMPI PUSH1 0x40 MLOAD SWAP2 PUSH2 0x4C9 DUP4 PUSH2 0xDB JUMP JUMPDEST DUP2 MLOAD PUSH1 0x1 PUSH1 0x1 PUSH1 0x40 SHL SUB DUP2 GT PUSH2 0x88 JUMPI DUP3 ADD DUP2 PUSH1 0x1F DUP3 ADD SLT ISZERO PUSH2 0x88 JUMPI DUP1 MLOAD PUSH2 0x4F1 DUP2 PUSH2 0x167 JUMP JUMPDEST SWAP2 PUSH2 0x4FF PUSH1 0x40 MLOAD SWAP4 DUP5 PUSH2 0x116 JUMP JUMPDEST DUP2 DUP4 MSTORE PUSH1 0x20 DUP1 DUP5 ADD SWAP3 PUSH1 0x5 SHL DUP3 ADD ADD SWAP2 DUP5 DUP4 GT PUSH2 0x88 JUMPI PUSH1 0x20 DUP3 ADD SWAP1 JUMPDEST DUP4 DUP3 LT PUSH2 0x54E JUMPI POP POP POP POP DUP4 MSTORE PUSH1 0x20 DUP3 ADD MLOAD PUSH1 0x1 PUSH1 0x1 PUSH1 0x40 SHL SUB DUP2 GT PUSH2 0x88 JUMPI PUSH2 0x546 SWAP3 ADD PUSH2 0x431 JUMP JUMPDEST PUSH1 0x20 DUP3 ADD MSTORE SWAP1 JUMP JUMPDEST DUP2 MLOAD PUSH1 0x1 PUSH1 0x1 PUSH1 0x40 SHL SUB DUP2 GT PUSH2 0x88 JUMPI PUSH1 0x20 SWAP2 PUSH2 0x570 DUP9 DUP5 DUP1 SWAP5 DUP9 ADD ADD PUSH2 0x38B JUMP JUMPDEST DUP2 MSTORE ADD SWAP2 ADD SWAP1 PUSH2 0x51C JUMP JUMPDEST PUSH1 0x40 MLOAD RETURNDATASIZE PUSH0 DUP3 RETURNDATACOPY RETURNDATASIZE SWAP1 REVERT JUMPDEST MLOAD SWAP1 PUSH1 0x1B DUP3 LT ISZERO PUSH2 0x88 JUMPI JUMP JUMPDEST DUP2 PUSH1 0x1F DUP3 ADD SLT ISZERO PUSH2 0x88 JUMPI DUP1 MLOAD SWAP1 PUSH2 0x5AA DUP3 PUSH2 0x167 JUMP JUMPDEST SWAP3 PUSH2 0x5B8 PUSH1 0x40 MLOAD SWAP5 DUP6 PUSH2 0x116 JUMP JUMPDEST DUP3 DUP5 MSTORE PUSH1 0x20 PUSH1 0xA0 DUP2 DUP7 ADD SWAP5 MUL DUP4 ADD ADD SWAP2 DUP2 DUP4 GT PUSH2 0x88 JUMPI PUSH1 0x20 ADD SWAP3 JUMPDEST DUP3 DUP5 LT PUSH2 0x5E2 JUMPI POP POP POP POP SWAP1 JUMP JUMPDEST DUP4 DUP3 SUB PUSH1 0xA0 DUP2 SLT PUSH2 0x88 JUMPI PUSH1 0x40 DUP1 MLOAD SWAP2 PUSH2 0x5FB DUP4 PUSH2 0xFB JUMP JUMPDEST PUSH2 0x604 DUP8 PUSH2 0x586 JUMP JUMPDEST DUP4 MSTORE PUSH1 0x20 DUP8 ADD MLOAD PUSH2 0x614 DUP2 PUSH2 0x98 JUMP JUMPDEST PUSH1 0x20 DUP5 ADD MSTORE PUSH2 0x624 DUP3 DUP9 ADD PUSH2 0x424 JUMP JUMPDEST DUP4 DUP4 ADD MSTORE PUSH1 0x5F NOT ADD SLT PUSH2 0x88 JUMPI PUSH1 0xA0 SWAP2 PUSH1 0x20 SWAP2 PUSH1 0x40 MLOAD PUSH2 0x643 DUP2 PUSH2 0xDB JUMP JUMPDEST PUSH2 0x64F PUSH1 0x60 DUP10 ADD PUSH2 0x586 JUMP JUMPDEST DUP2 MSTORE PUSH1 0x80 DUP9 ADD MLOAD PUSH2 0x65F DUP2 PUSH2 0x98 JUMP JUMPDEST DUP5 DUP3 ADD MSTORE PUSH1 0x60 DUP3 ADD MSTORE DUP2 MSTORE ADD SWAP4 ADD SWAP3 PUSH2 0x5D4 JUMP JUMPDEST MLOAD SWAP1 PUSH2 0x146 DUP3 PUSH2 0x8C JUMP JUMPDEST MLOAD SWAP1 PUSH1 0x2 DUP3 LT ISZERO PUSH2 0x88 JUMPI JUMP JUMPDEST MLOAD SWAP1 PUSH1 0x5 DUP3 LT ISZERO PUSH2 0x88 JUMPI JUMP JUMPDEST MLOAD SWAP1 PUSH1 0x1D DUP3 LT ISZERO PUSH2 0x88 JUMPI JUMP JUMPDEST MLOAD SWAP1 PUSH1 0x17 DUP3 LT ISZERO PUSH2 0x88 JUMPI JUMP JUMPDEST MLOAD SWAP1 PUSH1 0x14 DUP3 LT ISZERO PUSH2 0x88 JUMPI JUMP JUMPDEST MLOAD SWAP1 PUSH1 0x9 DUP3 LT ISZERO PUSH2 0x88 JUMPI JUMP JUMPDEST MLOAD SWAP1 PUSH1 0x4 DUP3 LT ISZERO PUSH2 0x88 JUMPI JUMP JUMPDEST MLOAD SWAP1 PUSH1 0x58 DUP3 LT ISZERO PUSH2 0x88 JUMPI JUMP JUMPDEST MLOAD SWAP1 PUSH1 0x16 DUP3 LT ISZERO PUSH2 0x88 JUMPI JUMP JUMPDEST MLOAD SWAP1 PUSH1 0xD4 DUP3 LT ISZERO PUSH2 0x88 JUMPI JUMP JUMPDEST MLOAD SWAP1 PUSH1 0x6A DUP3 LT ISZERO PUSH2 0x88 JUMPI JUMP JUMPDEST MLOAD SWAP1 PUSH1 0xA9 DUP3 LT ISZERO PUSH2 0x88 JUMPI JUMP JUMPDEST MLOAD SWAP1 PUSH1 0x80 DUP3 LT ISZERO PUSH2 0x88 JUMPI JUMP JUMPDEST MLOAD SWAP1 PUSH1 0x1A DUP3 LT ISZERO PUSH2 0x88 JUMPI JUMP JUMPDEST MLOAD SWAP1 PUSH1 0x1F DUP3 LT ISZERO PUSH2 0x88 JUMPI JUMP JUMPDEST MLOAD SWAP1 PUSH1 0x13 DUP3 LT ISZERO PUSH2 0x88 JUMPI JUMP JUMPDEST MLOAD SWAP1 PUSH1 0x15 DUP3 LT ISZERO PUSH2 0x88 JUMPI JUMP JUMPDEST MLOAD SWAP1 PUSH1 0xC3 DUP3 LT ISZERO PUSH2 0x88 JUMPI JUMP JUMPDEST MLOAD SWAP1 PUSH1 0x85 DUP3 LT ISZERO PUSH2 0x88 JUMPI JUMP JUMPDEST MLOAD SWAP1 PUSH1 0x83 DUP3 LT ISZERO PUSH2 0x88 JUMPI JUMP JUMPDEST MLOAD SWAP1 PUSH1 0x7A DUP3 LT ISZERO PUSH2 0x88 JUMPI JUMP JUMPDEST PUSH1 0x20 DUP2 DUP4 SUB SLT PUSH2 0x88 JUMPI DUP1 MLOAD SWAP1 PUSH1 0x1 PUSH1 0x1 PUSH1 0x40 SHL SUB DUP3 GT PUSH2 0x88 JUMPI ADD PUSH2 0x3E0 DUP2 DUP4 SUB SLT PUSH2 0x88 JUMPI PUSH2 0x7BE PUSH2 0x157 JUMP JUMPDEST SWAP2 DUP2 MLOAD SWAP2 PUSH1 0x1 PUSH1 0x1 PUSH1 0x40 SHL SUB DUP4 GT PUSH2 0x88 JUMPI PUSH2 0x7E2 PUSH2 0x3C0 SWAP3 PUSH2 0xA03 SWAP5 DUP4 ADD PUSH2 0x593 JUMP JUMPDEST DUP5 MSTORE PUSH2 0x7F0 PUSH1 0x20 DUP3 ADD PUSH2 0x255 JUMP JUMPDEST PUSH1 0x20 DUP6 ADD MSTORE PUSH2 0x801 PUSH1 0x40 DUP3 ADD PUSH2 0x673 JUMP JUMPDEST PUSH1 0x40 DUP6 ADD MSTORE PUSH2 0x812 PUSH1 0x60 DUP3 ADD PUSH2 0x673 JUMP JUMPDEST PUSH1 0x60 DUP6 ADD MSTORE PUSH2 0x823 PUSH1 0x80 DUP3 ADD PUSH2 0x1DF JUMP JUMPDEST PUSH1 0x80 DUP6 ADD MSTORE PUSH2 0x834 PUSH1 0xA0 DUP3 ADD PUSH2 0x67E JUMP JUMPDEST PUSH1 0xA0 DUP6 ADD MSTORE PUSH2 0x845 PUSH1 0xC0 DUP3 ADD PUSH2 0x68B JUMP JUMPDEST PUSH1 0xC0 DUP6 ADD MSTORE PUSH2 0x856 PUSH1 0xE0 DUP3 ADD PUSH2 0x698 JUMP JUMPDEST PUSH1 0xE0 DUP6 ADD MSTORE PUSH2 0x868 PUSH2 0x100 DUP3 ADD PUSH2 0x6A5 JUMP JUMPDEST PUSH2 0x100 DUP6 ADD MSTORE PUSH2 0x87B PUSH2 0x120 DUP3 ADD PUSH2 0x6B2 JUMP JUMPDEST PUSH2 0x120 DUP6 ADD MSTORE PUSH2 0x88E PUSH2 0x140 DUP3 ADD PUSH2 0x6BF JUMP JUMPDEST PUSH2 0x140 DUP6 ADD MSTORE PUSH2 0x8A1 PUSH2 0x160 DUP3 ADD PUSH2 0x6BF JUMP JUMPDEST PUSH2 0x160 DUP6 ADD MSTORE PUSH2 0x8B4 PUSH2 0x180 DUP3 ADD PUSH2 0x6CC JUMP JUMPDEST PUSH2 0x180 DUP6 ADD MSTORE PUSH2 0x8C7 PUSH2 0x1A0 DUP3 ADD PUSH2 0x6D9 JUMP JUMPDEST PUSH2 0x1A0 DUP6 ADD MSTORE PUSH2 0x8DA PUSH2 0x1C0 DUP3 ADD PUSH2 0x6E6 JUMP JUMPDEST PUSH2 0x1C0 DUP6 ADD MSTORE PUSH2 0x8ED PUSH2 0x1E0 DUP3 ADD PUSH2 0x6F3 JUMP JUMPDEST PUSH2 0x1E0 DUP6 ADD MSTORE PUSH2 0x900 PUSH2 0x200 DUP3 ADD PUSH2 0x700 JUMP JUMPDEST PUSH2 0x200 DUP6 ADD MSTORE PUSH2 0x913 PUSH2 0x220 DUP3 ADD PUSH2 0x70D JUMP JUMPDEST PUSH2 0x220 DUP6 ADD MSTORE PUSH2 0x926 PUSH2 0x240 DUP3 ADD PUSH2 0x71A JUMP JUMPDEST PUSH2 0x240 DUP6 ADD MSTORE PUSH2 0x939 PUSH2 0x260 DUP3 ADD PUSH2 0x727 JUMP JUMPDEST PUSH2 0x260 DUP6 ADD MSTORE PUSH2 0x94C PUSH2 0x280 DUP3 ADD PUSH2 0x734 JUMP JUMPDEST PUSH2 0x280 DUP6 ADD MSTORE PUSH2 0x95F PUSH2 0x2A0 DUP3 ADD PUSH2 0x741 JUMP JUMPDEST PUSH2 0x2A0 DUP6 ADD MSTORE PUSH2 0x972 PUSH2 0x2C0 DUP3 ADD PUSH2 0x6BF JUMP JUMPDEST PUSH2 0x2C0 DUP6 ADD MSTORE PUSH2 0x985 PUSH2 0x2E0 DUP3 ADD PUSH2 0x6BF JUMP JUMPDEST PUSH2 0x2E0 DUP6 ADD MSTORE PUSH2 0x998 PUSH2 0x300 DUP3 ADD PUSH2 0x6CC JUMP JUMPDEST PUSH2 0x300 DUP6 ADD MSTORE PUSH2 0x9AB PUSH2 0x320 DUP3 ADD PUSH2 0x74E JUMP JUMPDEST PUSH2 0x320 DUP6 ADD MSTORE PUSH2 0x9BE PUSH2 0x340 DUP3 ADD PUSH2 0x75B JUMP JUMPDEST PUSH2 0x340 DUP6 ADD MSTORE PUSH2 0x9D1 PUSH2 0x360 DUP3 ADD PUSH2 0x768 JUMP JUMPDEST PUSH2 0x360 DUP6 ADD MSTORE PUSH2 0x9E4 PUSH2 0x380 DUP3 ADD PUSH2 0x775 JUMP JUMPDEST PUSH2 0x380 DUP6 ADD MSTORE PUSH2 0x9F7 PUSH2 0x3A0 DUP3 ADD PUSH2 0x782 JUMP JUMPDEST PUSH2 0x3A0 DUP6 ADD MSTORE ADD PUSH2 0x6A5 JUMP JUMPDEST PUSH2 0x3C0 DUP3 ADD MSTORE SWAP1 JUMP JUMPDEST SWAP2 SWAP1 SWAP2 PUSH2 0xA2B PUSH1 0x20 PUSH1 0x40 MLOAD PUSH2 0x4E80 DUP2 ADD PUSH1 0x40 MSTORE PUSH2 0x4E60 DUP2 MSTORE ADD PUSH0 DUP2 MSTORE SWAP1 JUMP JUMPDEST PUSH1 0x40 MLOAD PUSH4 0x68B0B907 PUSH1 0xE0 SHL DUP2 MSTORE PUSH1 0x1B PUSH1 0x4 DUP3 ADD MSTORE SWAP1 SWAP4 PUSH0 DUP3 PUSH1 0x24 DUP2 PUSH20 0x0 GAS DELEGATECALL SWAP2 DUP3 ISZERO PUSH2 0xB63 JUMPI PUSH0 SWAP3 PUSH2 0xB68 JUMPI JUMPDEST POP PUSH1 0x40 MLOAD PUSH4 0x609574B5 PUSH1 0xE0 SHL DUP2 MSTORE PUSH2 0xFFFF SWAP4 SWAP1 SWAP4 AND PUSH1 0x4 DUP5 ADD MSTORE PUSH1 0xFF AND PUSH1 0x24 DUP4 ADD MSTORE PUSH1 0x44 DUP3 ADD SWAP3 SWAP1 SWAP3 MSTORE SWAP1 PUSH0 DUP3 PUSH1 0x64 DUP2 PUSH1 0x1 PUSH1 0x1 PUSH1 0xA0 SHL SUB PUSH32 0x0 AND GAS STATICCALL SWAP2 DUP3 ISZERO PUSH2 0xB63 JUMPI PUSH0 SWAP3 PUSH2 0xB3F JUMPI JUMPDEST POP PUSH2 0xAE0 DUP3 DUP3 PUSH2 0x1052 JUMP JUMPDEST PUSH2 0xAF7 PUSH2 0xAF2 PUSH1 0x60 DUP5 ADD MLOAD PUSH2 0xFFFF AND SWAP1 JUMP JUMPDEST PUSH2 0x1420 JUMP JUMPDEST PUSH2 0xB35 JUMPI SWAP1 DUP2 PUSH2 0xB2C DUP3 PUSH2 0xB31 SWAP5 DUP7 PUSH32 0x0 PUSH2 0x19CB JUMP JUMPDEST PUSH2 0x1D7E JUMP JUMPDEST SWAP1 SWAP2 JUMP JUMPDEST SWAP1 PUSH2 0xB31 SWAP3 PUSH2 0x1763 JUMP JUMPDEST PUSH2 0xB5C SWAP2 SWAP3 POP RETURNDATASIZE DUP1 PUSH0 DUP4 RETURNDATACOPY PUSH2 0xB54 DUP2 DUP4 PUSH2 0x116 JUMP JUMPDEST DUP2 ADD SWAP1 PUSH2 0x78F JUMP JUMPDEST SWAP1 PUSH0 PUSH2 0xAD5 JUMP JUMPDEST PUSH2 0x57B JUMP JUMPDEST PUSH0 SWAP3 POP PUSH2 0xB86 SWAP1 RETURNDATASIZE DUP1 DUP6 DUP4 RETURNDATACOPY PUSH2 0xB7E DUP2 DUP4 PUSH2 0x116 JUMP JUMPDEST DUP2 ADD SWAP1 PUSH2 0x496 JUMP JUMPDEST SWAP2 PUSH2 0xA6B JUMP JUMPDEST PUSH4 0x4E487B71 PUSH1 0xE0 SHL PUSH0 MSTORE PUSH1 0x21 PUSH1 0x4 MSTORE PUSH1 0x24 PUSH0 REVERT JUMPDEST PUSH1 0x1B GT ISZERO PUSH2 0xBAA JUMPI JUMP JUMPDEST PUSH2 0xB8C JUMP JUMPDEST SWAP1 PUSH1 0x20 DUP3 DUP3 SUB SLT PUSH2 0x88 JUMPI DUP2 MLOAD PUSH1 0x1 PUSH1 0x1 PUSH1 0x40 SHL SUB DUP2 GT PUSH2 0x88 JUMPI PUSH2 0xBD4 SWAP3 ADD PUSH2 0x38B JUMP JUMPDEST SWAP1 JUMP JUMPDEST SWAP1 DUP1 PUSH1 0x20 DUP4 MLOAD SWAP2 DUP3 DUP2 MSTORE ADD SWAP2 PUSH1 0x20 DUP1 DUP4 PUSH1 0x5 SHL DUP4 ADD ADD SWAP5 ADD SWAP3 PUSH0 SWAP2 JUMPDEST DUP4 DUP4 LT PUSH2 0xC02 JUMPI POP POP POP POP POP SWAP1 JUMP JUMPDEST SWAP1 SWAP2 SWAP3 SWAP4 SWAP5 PUSH1 0x20 DUP1 PUSH2 0xC88 PUSH1 0x1 SWAP4 PUSH1 0x1F NOT DUP7 DUP3 SUB ADD DUP8 MSTORE DUP10 MLOAD SWAP1 PUSH1 0xC0 PUSH2 0xC31 DUP4 MLOAD PUSH1 0xE0 DUP5 MSTORE PUSH1 0xE0 DUP5 ADD SWAP1 PUSH2 0xA3 JUMP JUMPDEST SWAP3 PUSH1 0xFF DUP7 DUP3 ADD MLOAD AND DUP7 DUP5 ADD MSTORE PUSH1 0xFF PUSH1 0x40 DUP3 ADD MLOAD AND PUSH1 0x40 DUP5 ADD MSTORE PUSH1 0xFF PUSH1 0x60 DUP3 ADD MLOAD AND PUSH1 0x60 DUP5 ADD MSTORE PUSH2 0xC6B PUSH1 0x80 DUP3 ADD MLOAD PUSH1 0x80 DUP6 ADD SWAP1 PUSH1 0xFF AND SWAP1 MSTORE JUMP JUMPDEST PUSH1 0xA0 DUP2 DUP2 ADD MLOAD PUSH1 0xFF AND SWAP1 DUP5 ADD MSTORE ADD MLOAD SWAP1 PUSH1 0xC0 DUP2 DUP5 SUB SWAP2 ADD MSTORE PUSH2 0xA3 JUMP JUMPDEST SWAP8 ADD SWAP4 ADD SWAP4 ADD SWAP2 SWAP4 SWAP3 SWAP1 PUSH2 0xBF3 JUMP JUMPDEST SWAP1 PUSH1 0x20 DUP1 DUP4 MLOAD SWAP3 DUP4 DUP2 MSTORE ADD SWAP3 ADD SWAP1 PUSH0 JUMPDEST DUP2 DUP2 LT PUSH2 0xCB4 JUMPI POP POP POP SWAP1 JUMP JUMPDEST DUP3 MLOAD ISZERO ISZERO DUP5 MSTORE PUSH1 0x20 SWAP4 DUP5 ADD SWAP4 SWAP1 SWAP3 ADD SWAP2 PUSH1 0x1 ADD PUSH2 0xCA7 JUMP JUMPDEST SWAP3 SWAP2 SWAP1 PUSH1 0x1 DUP1 PUSH1 0xA0 SHL SUB AND DUP4 MSTORE PUSH1 0x60 PUSH1 0x20 DUP5 ADD MSTORE PUSH1 0xA0 DUP4 ADD SWAP1 DUP1 MLOAD SWAP2 PUSH1 0x40 PUSH1 0x60 DUP7 ADD MSTORE DUP3 MLOAD DUP1 SWAP2 MSTORE PUSH1 0xC0 DUP6 ADD SWAP1 PUSH1 0x20 PUSH1 0xC0 DUP3 PUSH1 0x5 SHL DUP9 ADD ADD SWAP5 ADD SWAP2 PUSH0 SWAP1 JUMPDEST DUP3 DUP3 LT PUSH2 0xD38 JUMPI POP POP POP POP PUSH2 0xD33 PUSH1 0x1 SWAP3 PUSH1 0x20 PUSH1 0x40 SWAP4 ADD MLOAD PUSH1 0x5F NOT DUP8 DUP4 SUB ADD PUSH1 0x80 DUP9 ADD MSTORE PUSH2 0xC97 JUMP JUMPDEST SWAP4 ADD MSTORE JUMP JUMPDEST SWAP1 SWAP2 SWAP3 SWAP5 PUSH1 0xBF NOT DUP9 DUP3 SUB ADD DUP3 MSTORE DUP6 MLOAD SWAP1 DUP2 MLOAD DUP2 MSTORE PUSH2 0xD65 PUSH1 0x20 DUP4 ADD MLOAD PUSH1 0xA0 PUSH1 0x20 DUP5 ADD MSTORE PUSH1 0xA0 DUP4 ADD SWAP1 PUSH2 0xA3 JUMP JUMPDEST PUSH1 0x40 DUP4 ADD MLOAD SWAP1 DUP3 DUP2 SUB PUSH1 0x40 DUP5 ADD MSTORE PUSH1 0x20 DUP1 DUP4 MLOAD SWAP3 DUP4 DUP2 MSTORE ADD SWAP3 ADD SWAP1 PUSH0 SWAP1 JUMPDEST DUP1 DUP3 LT PUSH2 0xDC9 JUMPI POP POP POP DUP3 PUSH2 0xDBB PUSH1 0x20 SWAP4 PUSH1 0x80 DUP1 PUSH2 0xDB0 DUP8 SWAP7 PUSH1 0x60 PUSH1 0x1 SWAP11 ADD MLOAD DUP6 DUP3 SUB PUSH1 0x60 DUP8 ADD MSTORE PUSH2 0xBD7 JUMP JUMPDEST SWAP5 ADD MLOAD PUSH1 0xFF AND SWAP2 ADD MSTORE JUMP JUMPDEST SWAP8 ADD SWAP3 ADD SWAP3 ADD SWAP1 SWAP3 SWAP2 PUSH2 0xD0A JUMP JUMPDEST SWAP1 SWAP2 SWAP3 PUSH1 0x20 DUP1 PUSH1 0x1 SWAP3 PUSH4 0xFFFFFFFF DUP8 MLOAD AND DUP2 MSTORE ADD SWAP5 ADD SWAP3 ADD SWAP1 PUSH2 0xD83 JUMP JUMPDEST SWAP3 SWAP2 SWAP1 PUSH1 0x1 DUP1 PUSH1 0xA0 SHL SUB AND DUP4 MSTORE PUSH1 0x60 PUSH1 0x20 DUP5 ADD MSTORE PUSH1 0xA0 DUP4 ADD SWAP1 DUP1 MLOAD SWAP2 PUSH1 0x40 PUSH1 0x60 DUP7 ADD MSTORE DUP3 MLOAD DUP1 SWAP2 MSTORE PUSH1 0xC0 DUP6 ADD SWAP1 PUSH1 0x20 PUSH1 0xC0 DUP3 PUSH1 0x5 SHL DUP9 ADD ADD SWAP5 ADD SWAP2 PUSH0 SWAP1 JUMPDEST DUP3 DUP3 LT PUSH2 0xE4D JUMPI POP POP POP POP PUSH2 0xD33 PUSH0 SWAP3 PUSH1 0x20 PUSH1 0x40 SWAP4 ADD MLOAD PUSH1 0x5F NOT DUP8 DUP4 SUB ADD PUSH1 0x80 DUP9 ADD MSTORE PUSH2 0xC97 JUMP JUMPDEST SWAP1 SWAP2 SWAP3 SWAP5 PUSH1 0xBF NOT DUP9 DUP3 SUB ADD DUP3 MSTORE DUP6 MLOAD SWAP1 DUP2 MLOAD DUP2 MSTORE PUSH2 0xE7A PUSH1 0x20 DUP4 ADD MLOAD PUSH1 0xA0 PUSH1 0x20 DUP5 ADD MSTORE PUSH1 0xA0 DUP4 ADD SWAP1 PUSH2 0xA3 JUMP JUMPDEST PUSH1 0x40 DUP4 ADD MLOAD SWAP1 DUP3 DUP2 SUB PUSH1 0x40 DUP5 ADD MSTORE PUSH1 0x20 DUP1 DUP4 MLOAD SWAP3 DUP4 DUP2 MSTORE ADD SWAP3 ADD SWAP1 PUSH0 SWAP1 JUMPDEST DUP1 DUP3 LT PUSH2 0xED3 JUMPI POP POP POP DUP3 PUSH2 0xEC5 PUSH1 0x20 SWAP4 PUSH1 0x80 DUP1 PUSH2 0xDB0 DUP8 SWAP7 PUSH1 0x60 PUSH1 0x1 SWAP11 ADD MLOAD DUP6 DUP3 SUB PUSH1 0x60 DUP8 ADD MSTORE PUSH2 0xBD7 JUMP JUMPDEST SWAP8 ADD SWAP3 ADD SWAP3 ADD SWAP1 SWAP3 SWAP2 PUSH2 0xE25 JUMP JUMPDEST SWAP1 SWAP2 SWAP3 PUSH1 0x20 DUP1 PUSH1 0x1 SWAP3 PUSH4 0xFFFFFFFF DUP8 MLOAD AND DUP2 MSTORE ADD SWAP5 ADD SWAP3 ADD SWAP1 PUSH2 0xE98 JUMP JUMPDEST SWAP4 SWAP3 SWAP2 SWAP1 PUSH1 0x1 DUP1 PUSH1 0xA0 SHL SUB AND DUP5 MSTORE PUSH1 0x60 PUSH1 0x20 DUP6 ADD MSTORE PUSH1 0xA0 DUP5 ADD SWAP1 DUP1 MLOAD SWAP2 PUSH1 0x40 PUSH1 0x60 DUP8 ADD MSTORE DUP3 MLOAD DUP1 SWAP2 MSTORE PUSH1 0xC0 DUP7 ADD SWAP1 PUSH1 0x20 PUSH1 0xC0 DUP3 PUSH1 0x5 SHL DUP10 ADD ADD SWAP5 ADD SWAP2 PUSH0 SWAP1 JUMPDEST DUP3 DUP3 LT PUSH2 0xF57 JUMPI POP POP POP POP PUSH1 0x20 ADD MLOAD DUP5 DUP3 SUB PUSH1 0x5F NOT ADD PUSH1 0x80 DUP7 ADD MSTORE PUSH1 0x40 SWAP2 PUSH2 0xD33 SWAP2 PUSH2 0xC97 JUMP JUMPDEST SWAP1 SWAP2 SWAP3 SWAP5 PUSH1 0xBF NOT DUP10 DUP3 SUB ADD DUP3 MSTORE DUP6 MLOAD SWAP1 DUP2 MLOAD DUP2 MSTORE PUSH2 0xF84 PUSH1 0x20 DUP4 ADD MLOAD PUSH1 0xA0 PUSH1 0x20 DUP5 ADD MSTORE PUSH1 0xA0 DUP4 ADD SWAP1 PUSH2 0xA3 JUMP JUMPDEST PUSH1 0x40 DUP4 ADD MLOAD SWAP1 DUP3 DUP2 SUB PUSH1 0x40 DUP5 ADD MSTORE PUSH1 0x20 DUP1 DUP4 MLOAD SWAP3 DUP4 DUP2 MSTORE ADD SWAP3 ADD SWAP1 PUSH0 SWAP1 JUMPDEST DUP1 DUP3 LT PUSH2 0xFDD JUMPI POP POP POP DUP3 PUSH2 0xFCF PUSH1 0x20 SWAP4 PUSH1 0x80 DUP1 PUSH2 0xDB0 DUP8 SWAP7 PUSH1 0x60 PUSH1 0x1 SWAP11 ADD MLOAD DUP6 DUP3 SUB PUSH1 0x60 DUP8 ADD MSTORE PUSH2 0xBD7 JUMP JUMPDEST SWAP8 ADD SWAP3 ADD SWAP3 ADD SWAP1 SWAP3 SWAP2 PUSH2 0xF30 JUMP JUMPDEST SWAP1 SWAP2 SWAP3 PUSH1 0x20 DUP1 PUSH1 0x1 SWAP3 PUSH4 0xFFFFFFFF DUP8 MLOAD AND DUP2 MSTORE ADD SWAP5 ADD SWAP3 ADD SWAP1 PUSH2 0xFA2 JUMP JUMPDEST PUSH4 0x4E487B71 PUSH1 0xE0 SHL PUSH0 MSTORE PUSH1 0x32 PUSH1 0x4 MSTORE PUSH1 0x24 PUSH0 REVERT JUMPDEST DUP1 MLOAD PUSH1 0x1 LT ISZERO PUSH2 0x101F JUMPI PUSH1 0x40 ADD SWAP1 JUMP JUMPDEST PUSH2 0xFFB JUMP JUMPDEST DUP1 MLOAD ISZERO PUSH2 0x101F JUMPI PUSH1 0x20 ADD SWAP1 JUMP JUMPDEST DUP1 MLOAD DUP3 LT ISZERO PUSH2 0x101F JUMPI PUSH1 0x20 SWAP2 PUSH1 0x5 SHL ADD ADD SWAP1 JUMP JUMPDEST MLOAD PUSH1 0x1B DUP2 LT ISZERO PUSH2 0xBAA JUMPI SWAP1 JUMP JUMPDEST SWAP1 PUSH1 0x60 DUP2 ADD SWAP1 PUSH2 0xFFFF PUSH2 0x1067 DUP4 MLOAD PUSH2 0xFFFF AND SWAP1 JUMP JUMPDEST AND ISZERO PUSH2 0x1203 JUMPI POP MLOAD PUSH2 0x107C SWAP1 PUSH2 0xFFFF AND PUSH2 0x1420 JUMP JUMPDEST ISZERO PUSH2 0x1124 JUMPI PUSH1 0x40 MLOAD PUSH4 0x5DE99DB1 PUSH1 0xE1 SHL DUP2 MSTORE SWAP1 PUSH0 DUP3 DUP1 PUSH2 0x10C0 DUP5 PUSH32 0x0 PUSH1 0x4 DUP5 ADD PUSH2 0xDE7 JUMP JUMPDEST SUB DUP2 PUSH20 0x0 GAS DELEGATECALL SWAP1 DUP2 ISZERO PUSH2 0xB63 JUMPI PUSH2 0x10FD SWAP3 PUSH0 SWAP3 PUSH2 0x1100 JUMPI JUMPDEST POP MLOAD SWAP1 PUSH2 0x10F7 DUP3 PUSH2 0x1024 JUMP JUMPDEST MSTORE PUSH2 0x1024 JUMP JUMPDEST POP JUMP JUMPDEST PUSH2 0x111D SWAP2 SWAP3 POP RETURNDATASIZE DUP1 PUSH0 DUP4 RETURNDATACOPY PUSH2 0x1115 DUP2 DUP4 PUSH2 0x116 JUMP JUMPDEST DUP2 ADD SWAP1 PUSH2 0xBAF JUMP JUMPDEST SWAP1 PUSH0 PUSH2 0x10EB JUMP JUMPDEST PUSH1 0x40 MLOAD PUSH4 0x5DE99DB1 PUSH1 0xE1 SHL DUP2 MSTORE PUSH32 0x0 SWAP2 SWAP1 PUSH20 0x0 PUSH0 DUP3 DUP1 PUSH2 0x117A DUP7 DUP9 PUSH1 0x4 DUP5 ADD PUSH2 0xCCC JUMP JUMPDEST SUB DUP2 DUP5 GAS DELEGATECALL SWAP1 DUP2 ISZERO PUSH2 0xB63 JUMPI PUSH2 0x11C8 SWAP5 PUSH2 0x11AB DUP6 SWAP4 PUSH0 SWAP6 DUP7 SWAP2 PUSH2 0x11E9 JUMPI JUMPDEST POP DUP5 MLOAD SWAP1 PUSH2 0x11A5 DUP3 PUSH2 0x100F JUMP JUMPDEST MSTORE PUSH2 0x100F JUMP JUMPDEST POP PUSH1 0x40 MLOAD DUP1 SWAP7 DUP2 SWAP5 DUP3 SWAP4 PUSH4 0x5DE99DB1 PUSH1 0xE1 SHL DUP5 MSTORE PUSH1 0x4 DUP5 ADD PUSH2 0xDE7 JUMP JUMPDEST SUB SWAP2 GAS DELEGATECALL SWAP1 DUP2 ISZERO PUSH2 0xB63 JUMPI PUSH2 0x10FD SWAP3 PUSH0 SWAP3 PUSH2 0x1100 JUMPI POP MLOAD SWAP1 PUSH2 0x10F7 DUP3 PUSH2 0x1024 JUMP JUMPDEST PUSH2 0x11FD SWAP2 POP RETURNDATASIZE DUP1 DUP9 DUP4 RETURNDATACOPY PUSH2 0x1115 DUP2 DUP4 PUSH2 0x116 JUMP JUMPDEST PUSH0 PUSH2 0x1198 JUMP JUMPDEST PUSH1 0x40 MLOAD PUSH4 0x5DE99DB1 PUSH1 0xE1 SHL DUP2 MSTORE SWAP3 SWAP4 SWAP3 PUSH32 0x0 SWAP3 POP PUSH20 0x0 SWAP2 SWAP1 PUSH0 DUP2 DUP1 PUSH2 0x125E DUP10 DUP9 PUSH1 0x4 DUP5 ADD PUSH2 0xCCC JUMP JUMPDEST SUB DUP2 DUP7 GAS DELEGATECALL DUP1 ISZERO PUSH2 0xB63 JUMPI PUSH2 0x1281 SWAP2 PUSH0 SWAP2 PUSH2 0x13D9 JUMPI JUMPDEST POP DUP7 MLOAD SWAP1 PUSH2 0x11A5 DUP3 PUSH2 0x100F JUMP JUMPDEST POP PUSH0 JUMPDEST PUSH2 0x129B PUSH2 0x1295 PUSH1 0x20 DUP5 ADD MLOAD PUSH1 0xFF AND SWAP1 JUMP JUMPDEST PUSH1 0xFF AND SWAP1 JUMP JUMPDEST DUP2 LT ISZERO PUSH2 0x13D1 JUMPI PUSH2 0x12C2 PUSH2 0x12B9 PUSH2 0x12B3 DUP4 DUP6 MLOAD PUSH2 0x1031 JUMP JUMPDEST MLOAD PUSH2 0x1045 JUMP JUMPDEST PUSH2 0x1295 DUP2 PUSH2 0xBA0 JUMP JUMPDEST PUSH1 0x40 MLOAD PUSH4 0x5DE99DB1 PUSH1 0xE1 SHL DUP2 MSTORE SWAP1 PUSH0 DUP3 DUP1 PUSH2 0x12E2 DUP5 DUP13 DUP12 PUSH1 0x4 DUP6 ADD PUSH2 0xEF1 JUMP JUMPDEST SUB DUP2 DUP9 GAS DELEGATECALL DUP1 ISZERO PUSH2 0xB63 JUMPI PUSH2 0x130C SWAP3 PUSH0 SWAP2 PUSH2 0x13B7 JUMPI JUMPDEST POP DUP9 MLOAD SWAP1 PUSH2 0x1306 DUP4 DUP4 PUSH2 0x1031 JUMP JUMPDEST MSTORE PUSH2 0x1031 JUMP JUMPDEST POP PUSH2 0x1325 PUSH1 0x40 PUSH2 0x131D DUP4 DUP6 MLOAD PUSH2 0x1031 JUMP JUMPDEST MLOAD ADD MLOAD ISZERO ISZERO SWAP1 JUMP JUMPDEST PUSH2 0x1332 JUMPI JUMPDEST PUSH1 0x1 ADD PUSH2 0x1284 JUMP JUMPDEST PUSH2 0x134D PUSH2 0x12B9 PUSH1 0x60 PUSH2 0x1345 DUP5 DUP7 MLOAD PUSH2 0x1031 JUMP JUMPDEST MLOAD ADD MLOAD PUSH2 0x1045 JUMP JUMPDEST SWAP1 PUSH1 0x40 MLOAD PUSH4 0x5DE99DB1 PUSH1 0xE1 SHL DUP2 MSTORE PUSH0 DUP2 DUP1 PUSH2 0x136D DUP7 DUP13 DUP12 PUSH1 0x4 DUP6 ADD PUSH2 0xEF1 JUMP JUMPDEST SUB DUP2 DUP9 GAS DELEGATECALL SWAP3 DUP4 ISZERO PUSH2 0xB63 JUMPI PUSH1 0x1 SWAP4 PUSH2 0x1395 SWAP3 PUSH0 SWAP2 PUSH2 0x139D JUMPI JUMPDEST POP DUP10 MLOAD SWAP1 PUSH2 0x1306 DUP4 DUP4 PUSH2 0x1031 JUMP JUMPDEST POP SWAP1 POP PUSH2 0x132A JUMP JUMPDEST PUSH2 0x13B1 SWAP2 POP RETURNDATASIZE DUP1 PUSH0 DUP4 RETURNDATACOPY PUSH2 0x1115 DUP2 DUP4 PUSH2 0x116 JUMP JUMPDEST PUSH0 PUSH2 0x1387 JUMP JUMPDEST PUSH2 0x13CB SWAP2 POP RETURNDATASIZE DUP1 PUSH0 DUP4 RETURNDATACOPY PUSH2 0x1115 DUP2 DUP4 PUSH2 0x116 JUMP JUMPDEST PUSH0 PUSH2 0x12F8 JUMP JUMPDEST POP POP POP POP SWAP1 POP JUMP JUMPDEST PUSH2 0x13ED SWAP2 POP RETURNDATASIZE DUP1 PUSH0 DUP4 RETURNDATACOPY PUSH2 0x1115 DUP2 DUP4 PUSH2 0x116 JUMP JUMPDEST PUSH0 PUSH2 0x1274 JUMP JUMPDEST PUSH4 0x4E487B71 PUSH1 0xE0 SHL PUSH0 MSTORE PUSH1 0x11 PUSH1 0x4 MSTORE PUSH1 0x24 PUSH0 REVERT JUMPDEST PUSH2 0xFFFF PUSH0 NOT SWAP2 AND ADD SWAP1 PUSH2 0xFFFF DUP3 GT PUSH2 0x141B JUMPI JUMP JUMPDEST PUSH2 0x13F3 JUMP JUMPDEST PUSH2 0xFFFF DUP2 AND ISZERO PUSH2 0x14A8 JUMPI PUSH2 0x1436 PUSH2 0xFFFF SWAP2 PUSH2 0x1407 JUMP JUMPDEST AND PUSH1 0x4 DUP2 EQ SWAP1 DUP2 ISZERO PUSH2 0x149D JUMPI JUMPDEST DUP2 ISZERO PUSH2 0x1492 JUMPI JUMPDEST DUP2 ISZERO PUSH2 0x1487 JUMPI JUMPDEST DUP2 ISZERO PUSH2 0x147C JUMPI JUMPDEST DUP2 ISZERO PUSH2 0x1471 JUMPI JUMPDEST DUP2 ISZERO PUSH2 0x1469 JUMPI POP SWAP1 JUMP JUMPDEST PUSH1 0xD SWAP2 POP EQ SWAP1 JUMP JUMPDEST PUSH1 0xB DUP2 EQ SWAP2 POP PUSH2 0x145F JUMP JUMPDEST PUSH1 0x8 DUP2 EQ SWAP2 POP PUSH2 0x1458 JUMP JUMPDEST PUSH1 0x7 DUP2 EQ SWAP2 POP PUSH2 0x1451 JUMP JUMPDEST PUSH1 0x6 DUP2 EQ SWAP2 POP PUSH2 0x144A JUMP JUMPDEST PUSH1 0x5 DUP2 EQ SWAP2 POP PUSH2 0x1443 JUMP JUMPDEST POP PUSH0 SWAP1 JUMP JUMPDEST PUSH2 0xFFFF PUSH1 0x64 SWAP2 AND ADD SWAP1 PUSH2 0xFFFF DUP3 GT PUSH2 0x141B JUMPI JUMP JUMPDEST SWAP1 PUSH1 0x20 DUP3 DUP3 SUB SLT PUSH2 0x88 JUMPI DUP2 MLOAD PUSH1 0x1 PUSH1 0x1 PUSH1 0x40 SHL SUB DUP2 GT PUSH2 0x88 JUMPI PUSH2 0xBD4 SWAP3 ADD PUSH2 0x199 JUMP JUMPDEST PUSH1 0x40 MLOAD SWAP1 PUSH2 0x14F5 PUSH1 0x60 DUP4 PUSH2 0x116 JUMP JUMPDEST PUSH1 0x3C DUP3 MSTORE PUSH32 0x30302F737667222076696577426F783D22302030203438203438223E00000000 PUSH1 0x40 DUP4 PUSH32 0x3C73766720786D6C6E733D22687474703A2F2F7777772E77332E6F72672F3230 PUSH1 0x20 DUP3 ADD MSTORE ADD MSTORE JUMP JUMPDEST PUSH1 0x40 MLOAD SWAP1 PUSH2 0x1556 PUSH1 0x60 DUP4 PUSH2 0x116 JUMP JUMPDEST PUSH1 0x2E DUP3 MSTORE PUSH14 0x30BA32B21DBE9E17B9BA3CB6329F PUSH1 0x91 SHL PUSH1 0x40 DUP4 PUSH32 0x3C7374796C653E696D677B696D6167652D72656E646572696E673A706978656C PUSH1 0x20 DUP3 ADD MSTORE ADD MSTORE JUMP JUMPDEST PUSH1 0x40 MLOAD SWAP1 PUSH2 0x15A8 PUSH1 0x40 DUP4 PUSH2 0x116 JUMP JUMPDEST PUSH1 0x17 DUP3 MSTORE PUSH32 0x3C672069643D2247656E657261746564496D616765223E000000000000000000 PUSH1 0x20 DUP4 ADD MSTORE JUMP JUMPDEST PUSH1 0x40 MLOAD SWAP1 PUSH2 0x15E3 PUSH1 0x60 DUP4 PUSH2 0x116 JUMP JUMPDEST PUSH1 0x26 DUP3 MSTORE PUSH32 0x3C666F726569676E4F626A6563742077696474683D2234382220686569676874 PUSH1 0x20 DUP4 ADD MSTORE PUSH6 0x1E911A1C111F PUSH1 0xD1 SHL PUSH1 0x40 DUP4 ADD MSTORE JUMP JUMPDEST PUSH1 0x40 MLOAD SWAP1 PUSH2 0x162D PUSH1 0x80 DUP4 PUSH2 0x116 JUMP JUMPDEST PUSH1 0x45 DUP3 MSTORE PUSH5 0x1CD94D8D0B PUSH1 0xDA SHL PUSH1 0x60 DUP4 PUSH32 0x3C696D6720786D6C6E733D22687474703A2F2F7777772E77332E6F72672F3139 PUSH1 0x20 DUP3 ADD MSTORE PUSH32 0x39392F7868746D6C22207372633D22646174613A696D6167652F706E673B6261 PUSH1 0x40 DUP3 ADD MSTORE ADD MSTORE JUMP JUMPDEST PUSH1 0x40 MLOAD SWAP1 PUSH2 0x169C PUSH1 0x60 DUP4 PUSH2 0x116 JUMP JUMPDEST PUSH1 0x38 DUP3 MSTORE PUSH32 0x666F726569676E4F626A6563743E3C2F673E3C2F7376673E0000000000000000 PUSH1 0x40 DUP4 PUSH32 0x222077696474683D223130302522206865696768743D2231303025222F3E3C2F PUSH1 0x20 DUP3 ADD MSTORE ADD MSTORE JUMP JUMPDEST PUSH1 0x40 MLOAD SWAP1 PUSH2 0x16FD PUSH1 0x60 DUP4 PUSH2 0x116 JUMP JUMPDEST PUSH1 0x31 DUP3 MSTORE PUSH32 0x2261747472696275746573223A5B2274726169745F74797065223A2253706563 PUSH1 0x20 DUP4 ADD MSTORE PUSH17 0x34B0B61018B99116113B30B63AB2911D11 PUSH1 0x79 SHL PUSH1 0x40 DUP4 ADD MSTORE JUMP JUMPDEST PUSH1 0x40 MLOAD SWAP1 PUSH2 0x1752 PUSH1 0x40 DUP4 PUSH2 0x116 JUMP JUMPDEST PUSH1 0x2 DUP3 MSTORE PUSH2 0x225D PUSH1 0xF0 SHL PUSH1 0x20 DUP4 ADD MSTORE JUMP JUMPDEST PUSH0 PUSH2 0x1781 PUSH2 0x177C PUSH1 0x60 PUSH2 0x17A5 SWAP6 SWAP8 SWAP7 SWAP8 ADD MLOAD PUSH2 0xFFFF AND SWAP1 JUMP JUMPDEST PUSH2 0x14AD JUMP JUMPDEST PUSH1 0x40 MLOAD PUSH4 0x69DDE379 PUSH1 0xE0 SHL DUP2 MSTORE PUSH2 0xFFFF SWAP1 SWAP2 AND PUSH1 0x4 DUP3 ADD MSTORE SWAP3 DUP4 SWAP1 DUP2 SWAP1 PUSH1 0x24 DUP3 ADD SWAP1 JUMP JUMPDEST SUB DUP2 PUSH32 0x0 PUSH1 0x1 PUSH1 0x1 PUSH1 0xA0 SHL SUB AND GAS STATICCALL SWAP1 DUP2 ISZERO PUSH2 0xB63 JUMPI PUSH2 0x182F PUSH2 0x1847 SWAP3 PUSH1 0x20 SWAP5 PUSH0 SWAP2 PUSH2 0x187E JUMPI JUMPDEST POP PUSH2 0x17FD PUSH2 0x17F7 PUSH2 0x14E6 JUMP JUMPDEST DUP5 PUSH2 0x2BFD JUMP JUMPDEST PUSH2 0x1808 PUSH2 0x17F7 PUSH2 0x1547 JUMP JUMPDEST PUSH2 0x1813 PUSH2 0x17F7 PUSH2 0x1599 JUMP JUMPDEST PUSH2 0x181E PUSH2 0x17F7 PUSH2 0x15D4 JUMP JUMPDEST PUSH2 0x1829 PUSH2 0x17F7 PUSH2 0x161E JUMP JUMPDEST DUP3 PUSH2 0x2C40 JUMP JUMPDEST PUSH2 0x1840 PUSH2 0x183A PUSH2 0x168D JUMP JUMPDEST DUP3 PUSH2 0x2BFD JUMP JUMPDEST SWAP4 MLOAD PUSH2 0x1024 JUMP JUMPDEST MLOAD ADD MLOAD PUSH2 0x1873 PUSH2 0x1867 PUSH1 0x20 PUSH1 0x40 MLOAD PUSH1 0xC4 DUP2 ADD PUSH1 0x40 MSTORE PUSH1 0xA4 DUP2 MSTORE ADD PUSH0 DUP2 MSTORE SWAP1 JUMP JUMPDEST SWAP2 PUSH2 0x183A PUSH2 0x17F7 PUSH2 0x16EE JUMP JUMPDEST PUSH2 0xBD4 PUSH2 0x183A PUSH2 0x1743 JUMP JUMPDEST PUSH2 0x189A SWAP2 POP RETURNDATASIZE DUP1 PUSH0 DUP4 RETURNDATACOPY PUSH2 0x1892 DUP2 DUP4 PUSH2 0x116 JUMP JUMPDEST DUP2 ADD SWAP1 PUSH2 0x14C1 JUMP JUMPDEST PUSH0 PUSH2 0x17EB JUMP JUMPDEST PUSH1 0x40 MLOAD SWAP1 PUSH2 0x18AF PUSH1 0x40 DUP4 PUSH2 0x116 JUMP JUMPDEST PUSH1 0x13 DUP3 MSTORE PUSH19 0x1E339034B21E912130B1B5B3B937BAB732111F PUSH1 0x69 SHL PUSH1 0x20 DUP4 ADD MSTORE JUMP JUMPDEST PUSH1 0x40 MLOAD SWAP1 PUSH2 0x18E0 PUSH1 0x40 DUP4 PUSH2 0x116 JUMP JUMPDEST PUSH1 0x4 DUP3 MSTORE PUSH4 0x1E17B39F PUSH1 0xE1 SHL PUSH1 0x20 DUP4 ADD MSTORE JUMP JUMPDEST PUSH1 0x40 MLOAD SWAP1 PUSH1 0x20 DUP3 ADD DUP3 DUP2 LT PUSH1 0x1 PUSH1 0x1 PUSH1 0x40 SHL SUB DUP3 GT OR PUSH2 0xF6 JUMPI PUSH1 0x40 DUP2 SWAP1 MSTORE DUP3 PUSH2 0x600 PUSH2 0x1920 DUP2 DUP5 PUSH2 0x116 JUMP JUMPDEST PUSH0 JUMPDEST DUP2 DUP2 LT PUSH2 0x192E JUMPI POP POP MSTORE JUMP JUMPDEST PUSH1 0x20 SWAP1 PUSH1 0x40 MLOAD PUSH2 0x193E DUP5 DUP3 PUSH2 0x116 JUMP JUMPDEST DUP4 CALLDATASIZE DUP3 CALLDATACOPY DUP2 DUP7 ADD MSTORE ADD PUSH2 0x1922 JUMP JUMPDEST PUSH1 0x40 MLOAD SWAP1 PUSH2 0x195B PUSH1 0x80 DUP4 PUSH2 0x116 JUMP JUMPDEST PUSH1 0x55 DUP3 MSTORE PUSH32 0x3C666F726569676E4F626A6563742077696474683D2234382220686569676874 PUSH1 0x20 DUP4 ADD MSTORE PUSH32 0x3D223438223E3C696D6720786D6C6E733D22687474703A2F2F7777772E77332E PUSH1 0x40 DUP4 ADD MSTORE PUSH21 0x37B93397989C9C9C97BC343A36B6111039B9319E91 PUSH1 0x59 SHL PUSH1 0x60 DUP4 ADD MSTORE JUMP JUMPDEST DUP4 DUP4 DUP4 PUSH2 0x1A01 SWAP4 SWAP7 SWAP5 SWAP7 PUSH2 0x19E6 PUSH2 0x19E0 PUSH2 0x14E6 JUMP JUMPDEST DUP4 PUSH2 0x2BFD JUMP JUMPDEST PUSH2 0x19F1 PUSH2 0x19E0 PUSH2 0x1547 JUMP JUMPDEST PUSH2 0x19FC PUSH2 0x19E0 PUSH2 0x18A0 JUMP JUMPDEST PUSH2 0x231E JUMP JUMPDEST PUSH2 0x1A0C PUSH2 0x17F7 PUSH2 0x18D1 JUMP JUMPDEST PUSH2 0x1A14 PUSH2 0x18F3 JUMP JUMPDEST SWAP1 PUSH0 JUMPDEST PUSH2 0x1A28 PUSH2 0x1295 PUSH1 0x20 DUP5 ADD MLOAD PUSH1 0xFF AND SWAP1 JUMP JUMPDEST DUP2 LT ISZERO PUSH2 0x1AE3 JUMPI DUP1 PUSH1 0x1 PUSH2 0x1A41 PUSH2 0x12B3 DUP3 SWAP5 DUP7 MLOAD PUSH2 0x1031 JUMP JUMPDEST PUSH2 0x1A4A DUP2 PUSH2 0xBA0 JUMP JUMPDEST EQ PUSH2 0x1ADE JUMPI PUSH2 0x1A8A PUSH2 0x1A60 PUSH2 0x12B3 DUP4 DUP7 MLOAD PUSH2 0x1031 JUMP JUMPDEST PUSH2 0x1A69 DUP2 PUSH2 0xBA0 JUMP JUMPDEST PUSH2 0x1A82 PUSH1 0x20 PUSH2 0x1A79 DUP6 DUP9 MLOAD PUSH2 0x1031 JUMP JUMPDEST MLOAD ADD MLOAD PUSH1 0xFF AND SWAP1 JUMP JUMPDEST SWAP1 DUP8 DUP8 PUSH2 0x26ED JUMP JUMPDEST PUSH2 0x1A9A PUSH1 0x40 PUSH2 0x131D DUP4 DUP7 MLOAD PUSH2 0x1031 JUMP JUMPDEST PUSH2 0x1AA5 JUMPI JUMPDEST ADD PUSH2 0x1A17 JUMP JUMPDEST PUSH2 0x1ADE PUSH2 0x1AB8 PUSH1 0x60 PUSH2 0x1345 DUP5 DUP8 MLOAD PUSH2 0x1031 JUMP JUMPDEST PUSH2 0x1AC1 DUP2 PUSH2 0xBA0 JUMP JUMPDEST PUSH2 0x1A82 PUSH1 0x20 PUSH1 0x60 PUSH2 0x1AD3 DUP7 DUP10 MLOAD PUSH2 0x1031 JUMP JUMPDEST MLOAD ADD MLOAD ADD MLOAD PUSH1 0xFF AND SWAP1 JUMP JUMPDEST PUSH2 0x1A9F JUMP JUMPDEST POP POP PUSH2 0x146 SWAP3 SWAP2 POP PUSH2 0x1AF7 PUSH2 0x1B0D SWAP2 PUSH2 0x29C2 JUMP JUMPDEST PUSH2 0x1B02 PUSH2 0x17F7 PUSH2 0x1599 JUMP JUMPDEST PUSH2 0x183A PUSH2 0x17F7 PUSH2 0x194C JUMP JUMPDEST PUSH2 0x1B15 PUSH2 0x168D JUMP JUMPDEST SWAP1 PUSH2 0x2BFD JUMP JUMPDEST PUSH1 0x40 MLOAD SWAP1 PUSH2 0x1B2A PUSH1 0x40 DUP4 PUSH2 0x116 JUMP JUMPDEST PUSH1 0xE DUP3 MSTORE PUSH14 0x2261747472696275746573223A5B PUSH1 0x90 SHL PUSH1 0x20 DUP4 ADD MSTORE JUMP JUMPDEST PUSH1 0x40 MLOAD SWAP1 PUSH2 0x1B56 PUSH1 0x60 DUP4 PUSH2 0x116 JUMP JUMPDEST PUSH1 0x37 DUP3 MSTORE PUSH32 0x7065223A224269727468646179222C2276616C7565223A000000000000000000 PUSH1 0x40 DUP4 PUSH32 0x7B22646973706C61795F74797065223A2264617465222C2274726169745F7479 PUSH1 0x20 DUP3 ADD MSTORE ADD MSTORE JUMP JUMPDEST PUSH1 0x40 MLOAD SWAP1 PUSH2 0x1BB7 PUSH1 0x40 DUP4 PUSH2 0x116 JUMP JUMPDEST PUSH1 0x1 DUP3 MSTORE PUSH1 0x7D PUSH1 0xF8 SHL PUSH1 0x20 DUP4 ADD MSTORE JUMP JUMPDEST PUSH1 0x40 MLOAD SWAP1 PUSH2 0x1BD6 PUSH1 0x40 DUP4 PUSH2 0x116 JUMP JUMPDEST PUSH1 0x1 DUP3 MSTORE PUSH1 0xB PUSH1 0xFA SHL PUSH1 0x20 DUP4 ADD MSTORE JUMP JUMPDEST PUSH1 0x5 GT ISZERO PUSH2 0xBAA JUMPI JUMP JUMPDEST PUSH1 0x40 MLOAD SWAP1 PUSH2 0x1BFF PUSH1 0x40 DUP4 PUSH2 0x116 JUMP JUMPDEST PUSH1 0xA DUP3 MSTORE PUSH10 0x109858DAD9DC9BDD5B99 PUSH1 0xB2 SHL PUSH1 0x20 DUP4 ADD MSTORE JUMP JUMPDEST PUSH0 SLOAD SWAP1 PUSH2 0x1C24 DUP3 PUSH2 0x167 JUMP JUMPDEST SWAP2 PUSH2 0x1C32 PUSH1 0x40 MLOAD SWAP4 DUP5 PUSH2 0x116 JUMP JUMPDEST DUP1 DUP4 MSTORE PUSH0 DUP1 DUP1 MSTORE SWAP1 PUSH32 0x290DECD9548B62A8D60345A988386FC84BA6BC95484008F6362F93160EF3E563 PUSH1 0x20 DUP6 ADD JUMPDEST DUP3 DUP5 LT PUSH2 0x1C6D JUMPI POP POP POP POP JUMP JUMPDEST PUSH1 0x40 MLOAD PUSH0 DUP4 SLOAD DUP1 PUSH1 0x1 SHR SWAP1 PUSH1 0x1 DUP2 AND SWAP1 DUP2 ISZERO PUSH2 0x1D2D JUMPI JUMPDEST PUSH1 0x20 DUP4 LT DUP3 EQ PUSH2 0x1D19 JUMPI DUP3 DUP6 MSTORE PUSH1 0x20 DUP6 ADD SWAP2 SWAP1 DUP2 ISZERO PUSH2 0x1D02 JUMPI POP PUSH1 0x1 EQ PUSH2 0x1CC9 JUMPI JUMPDEST POP POP PUSH1 0x1 SWAP3 DUP3 PUSH2 0x1CBB DUP6 SWAP5 PUSH1 0x20 SWAP5 SUB DUP3 PUSH2 0x116 JUMP JUMPDEST DUP2 MSTORE ADD SWAP3 ADD SWAP4 ADD SWAP3 SWAP1 PUSH2 0x1C60 JUMP JUMPDEST SWAP1 SWAP2 POP PUSH2 0x1CD9 DUP6 PUSH0 MSTORE PUSH1 0x20 PUSH0 KECCAK256 SWAP1 JUMP JUMPDEST SWAP2 PUSH0 SWAP3 JUMPDEST DUP2 DUP5 LT PUSH2 0x1CEE JUMPI POP POP ADD DUP3 DUP3 PUSH2 0x1CA6 JUMP JUMPDEST PUSH1 0x1 DUP2 PUSH1 0x20 SWAP3 SLOAD DUP7 DUP7 ADD MSTORE ADD SWAP4 ADD SWAP3 PUSH2 0x1CDD JUMP JUMPDEST PUSH1 0xFF NOT AND DUP3 MSTORE POP SWAP1 ISZERO ISZERO PUSH1 0x5 SHL ADD SWAP1 POP DUP3 DUP3 PUSH2 0x1CA6 JUMP JUMPDEST PUSH4 0x4E487B71 PUSH1 0xE0 SHL PUSH0 MSTORE PUSH1 0x22 PUSH1 0x4 MSTORE PUSH1 0x24 PUSH0 REVERT JUMPDEST SWAP2 PUSH1 0x7F AND SWAP2 PUSH2 0x1C84 JUMP JUMPDEST PUSH1 0x40 MLOAD SWAP1 PUSH2 0x1D46 PUSH1 0x40 DUP4 PUSH2 0x116 JUMP JUMPDEST PUSH1 0xA DUP3 MSTORE PUSH10 0x5370656369616C203173 PUSH1 0xB0 SHL PUSH1 0x20 DUP4 ADD MSTORE JUMP JUMPDEST PUSH1 0x40 MLOAD SWAP1 PUSH2 0x1D6E PUSH1 0x40 DUP4 PUSH2 0x116 JUMP JUMPDEST PUSH1 0x1 DUP3 MSTORE PUSH1 0x5D PUSH1 0xF8 SHL PUSH1 0x20 DUP4 ADD MSTORE JUMP JUMPDEST SWAP1 PUSH2 0x1D9B PUSH1 0x20 PUSH1 0x40 MLOAD PUSH2 0xA24 DUP2 ADD PUSH1 0x40 MSTORE PUSH2 0xA04 DUP2 MSTORE ADD PUSH0 DUP2 MSTORE SWAP1 JUMP JUMPDEST SWAP2 PUSH2 0x1DA7 PUSH2 0x17F7 PUSH2 0x1B1B JUMP JUMPDEST PUSH2 0x1DB2 PUSH2 0x17F7 PUSH2 0x1B47 JUMP JUMPDEST PUSH2 0x1DDA PUSH2 0x17F7 PUSH2 0x1DD5 PUSH2 0x1DCC PUSH1 0x80 DUP7 ADD MLOAD PUSH4 0xFFFFFFFF AND SWAP1 JUMP JUMPDEST PUSH4 0xFFFFFFFF AND SWAP1 JUMP JUMPDEST PUSH2 0x2A4F JUMP JUMPDEST PUSH2 0x1DE5 PUSH2 0x17F7 PUSH2 0x1BA8 JUMP JUMPDEST PUSH2 0x1DF0 PUSH2 0x17F7 PUSH2 0x1BC7 JUMP JUMPDEST PUSH2 0x1DFA DUP2 MLOAD PUSH2 0x100F JUMP JUMPDEST MLOAD PUSH1 0x60 PUSH1 0xC0 DUP5 ADD MLOAD SWAP2 PUSH2 0x1E0C DUP4 PUSH2 0x1BE6 JUMP JUMPDEST PUSH2 0x1E15 DUP4 PUSH2 0x1BE6 JUMP JUMPDEST ADD SWAP1 DUP2 MLOAD MLOAD ISZERO PUSH2 0x1FBF JUMPI PUSH2 0x1E30 PUSH2 0x17F7 SWAP2 PUSH2 0x1E3F SWAP4 MLOAD PUSH2 0x1031 JUMP JUMPDEST MLOAD MLOAD PUSH2 0x1E3A PUSH2 0x1BF0 JUMP JUMPDEST PUSH2 0x2A94 JUMP JUMPDEST PUSH1 0x60 DUP3 ADD SWAP2 PUSH2 0xFFFF PUSH2 0x1E53 DUP5 MLOAD PUSH2 0xFFFF AND SWAP1 JUMP JUMPDEST AND ISZERO PUSH2 0x1ED2 JUMPI POP PUSH2 0x1E85 PUSH2 0x1E7E PUSH2 0x1E79 PUSH2 0x1E6F PUSH1 0x60 SWAP5 MLOAD PUSH2 0x1024 JUMP JUMPDEST MLOAD SWAP5 MLOAD PUSH2 0xFFFF AND SWAP1 JUMP JUMPDEST PUSH2 0x1407 JUMP JUMPDEST PUSH2 0xFFFF AND SWAP1 JUMP JUMPDEST SWAP2 ADD MLOAD SWAP1 DUP2 MLOAD DUP2 LT PUSH2 0x1EA0 JUMPI JUMPDEST POP POP JUMPDEST PUSH2 0xBD4 PUSH2 0x183A PUSH2 0x1D5F JUMP JUMPDEST PUSH2 0x1EB0 PUSH2 0x183A SWAP2 PUSH2 0x1ECB SWAP4 PUSH2 0x1031 JUMP JUMPDEST MLOAD MLOAD PUSH2 0x1EC3 PUSH2 0x1EBD PUSH2 0x1BC7 JUMP JUMPDEST DUP6 PUSH2 0x2BFD JUMP JUMPDEST PUSH2 0x1E3A PUSH2 0x1D37 JUMP JUMPDEST PUSH0 DUP1 PUSH2 0x1E92 JUMP JUMPDEST SWAP2 POP SWAP2 PUSH0 JUMPDEST PUSH2 0x1EE8 PUSH2 0x1295 PUSH1 0x20 DUP6 ADD MLOAD PUSH1 0xFF AND SWAP1 JUMP JUMPDEST DUP2 LT ISZERO PUSH2 0x1FB6 JUMPI DUP1 PUSH2 0x1F00 PUSH2 0x12B3 PUSH1 0x1 SWAP4 DUP7 MLOAD PUSH2 0x1031 JUMP JUMPDEST PUSH2 0x1F09 DUP2 PUSH2 0xBA0 JUMP JUMPDEST PUSH2 0x1F1C PUSH2 0x1295 PUSH1 0x20 PUSH2 0x1A79 DUP6 DUP10 MLOAD PUSH2 0x1031 JUMP JUMPDEST SWAP1 DUP4 DUP2 EQ PUSH2 0x1FAF JUMPI PUSH2 0x1F2F SWAP1 DUP8 MLOAD PUSH2 0x1031 JUMP JUMPDEST MLOAD SWAP1 PUSH1 0x60 DUP3 ADD MLOAD SWAP2 DUP3 MLOAD DUP1 ISZERO ISZERO SWAP1 DUP2 PUSH2 0x1FA5 JUMPI JUMPDEST POP PUSH2 0x1F53 JUMPI JUMPDEST POP POP POP JUMPDEST ADD PUSH2 0x1ED7 JUMP JUMPDEST PUSH1 0x20 PUSH2 0x1F95 PUSH2 0x1F68 PUSH2 0x17F7 SWAP5 PUSH2 0x1F9D SWAP7 PUSH2 0x1031 JUMP JUMPDEST MLOAD PUSH2 0x1F7A PUSH2 0x1F74 PUSH2 0x1BC7 JUMP JUMPDEST DUP11 PUSH2 0x2BFD JUMP JUMPDEST DUP4 MLOAD SWAP1 PUSH2 0x1F86 DUP3 PUSH2 0xBA0 JUMP JUMPDEST MLOAD PUSH2 0x1F8F PUSH2 0x1C18 JUMP JUMPDEST SWAP2 PUSH2 0x2AFB JUMP JUMPDEST SWAP2 ADD MLOAD PUSH2 0x2A94 JUMP JUMPDEST PUSH0 DUP1 DUP1 PUSH2 0x1F49 JUMP JUMPDEST SWAP1 POP DUP3 LT PUSH0 PUSH2 0x1F43 JUMP JUMPDEST POP POP PUSH2 0x1F4D JUMP JUMPDEST POP SWAP2 POP POP PUSH2 0x1E95 JUMP JUMPDEST PUSH4 0x5FA1F145 PUSH1 0xE1 SHL PUSH0 MSTORE PUSH1 0x4 PUSH0 REVERT JUMPDEST PUSH0 NOT DUP2 ADD SWAP2 SWAP1 DUP3 GT PUSH2 0x141B JUMPI JUMP JUMPDEST SWAP2 SWAP1 DUP3 SUB SWAP2 DUP3 GT PUSH2 0x141B JUMPI JUMP JUMPDEST PUSH1 0x14 GT ISZERO PUSH2 0xBAA JUMPI JUMP JUMPDEST PUSH1 0xFF AND PUSH1 0x14 DUP2 LT ISZERO PUSH2 0xBAA JUMPI SWAP1 JUMP JUMPDEST PUSH1 0x40 MLOAD SWAP1 PUSH2 0x2011 PUSH1 0x40 DUP4 PUSH2 0x116 JUMP JUMPDEST PUSH1 0x1D DUP3 MSTORE PUSH32 0x3C646566733E3C6C696E6561724772616469656E742069643D2262672D000000 PUSH1 0x20 DUP4 ADD MSTORE JUMP JUMPDEST PUSH1 0x40 MLOAD SWAP1 PUSH2 0x204C PUSH1 0x40 DUP4 PUSH2 0x116 JUMP JUMPDEST PUSH1 0x6 DUP3 MSTORE PUSH6 0x11103C189E91 PUSH1 0xD1 SHL PUSH1 0x20 DUP4 ADD MSTORE JUMP JUMPDEST PUSH1 0x40 MLOAD SWAP1 PUSH2 0x2070 PUSH1 0x40 DUP4 PUSH2 0x116 JUMP JUMPDEST PUSH1 0x6 DUP3 MSTORE PUSH6 0x11103C989E91 PUSH1 0xD1 SHL PUSH1 0x20 DUP4 ADD MSTORE JUMP JUMPDEST PUSH1 0x40 MLOAD SWAP1 PUSH2 0x2094 PUSH1 0x40 DUP4 PUSH2 0x116 JUMP JUMPDEST PUSH1 0x6 DUP3 MSTORE PUSH6 0x11103C191E91 PUSH1 0xD1 SHL PUSH1 0x20 DUP4 ADD MSTORE JUMP JUMPDEST PUSH1 0x40 MLOAD SWAP1 PUSH2 0x20B8 PUSH1 0x40 DUP4 PUSH2 0x116 JUMP JUMPDEST PUSH1 0x6 DUP3 MSTORE PUSH6 0x11103C991E91 PUSH1 0xD1 SHL PUSH1 0x20 DUP4 ADD MSTORE JUMP JUMPDEST PUSH1 0x40 MLOAD SWAP1 PUSH2 0x20DC PUSH1 0x40 DUP4 PUSH2 0x116 JUMP JUMPDEST PUSH1 0x2 DUP3 MSTORE PUSH2 0x111F PUSH1 0xF1 SHL PUSH1 0x20 DUP4 ADD MSTORE JUMP JUMPDEST PUSH4 0x4E487B71 PUSH1 0xE0 SHL PUSH0 MSTORE PUSH1 0x12 PUSH1 0x4 MSTORE PUSH1 0x24 PUSH0 REVERT JUMPDEST PUSH1 0x40 MLOAD SWAP1 PUSH2 0x2110 PUSH1 0x80 DUP4 PUSH2 0x116 JUMP JUMPDEST PUSH1 0x43 DUP3 MSTORE PUSH3 0x62672D PUSH1 0xE8 SHL PUSH1 0x60 DUP4 PUSH32 0x3C2F6C696E6561724772616469656E743E3C2F646566733E3C72656374207769 PUSH1 0x20 DUP3 ADD MSTORE PUSH32 0x6474683D22343822206865696768743D223438222066696C6C3D2275726C2823 PUSH1 0x40 DUP3 ADD MSTORE ADD MSTORE JUMP JUMPDEST PUSH1 0x40 MLOAD SWAP1 PUSH2 0x217D PUSH1 0x40 DUP4 PUSH2 0x116 JUMP JUMPDEST PUSH1 0x4 DUP3 MSTORE PUSH4 0x1491179F PUSH1 0xE1 SHL PUSH1 0x20 DUP4 ADD MSTORE JUMP JUMPDEST PUSH1 0x40 MLOAD SWAP1 PUSH2 0x219F PUSH1 0x40 DUP4 PUSH2 0x116 JUMP JUMPDEST PUSH1 0x1D DUP3 MSTORE PUSH32 0x3C646566733E3C72616469616C4772616469656E742069643D2262672D000000 PUSH1 0x20 DUP4 ADD MSTORE JUMP JUMPDEST PUSH1 0x40 MLOAD SWAP1 PUSH2 0x21DA PUSH1 0x80 DUP4 PUSH2 0x116 JUMP JUMPDEST PUSH1 0x43 DUP3 MSTORE PUSH3 0x62672D PUSH1 0xE8 SHL PUSH1 0x60 DUP4 PUSH32 0x3C2F72616469616C4772616469656E743E3C2F646566733E3C72656374207769 PUSH1 0x20 DUP3 ADD MSTORE PUSH32 0x6474683D22343822206865696768743D223438222066696C6C3D2275726C2823 PUSH1 0x40 DUP3 ADD MSTORE ADD MSTORE JUMP JUMPDEST PUSH2 0x3E8 ADD SWAP1 DUP2 PUSH2 0x3E8 GT PUSH2 0x141B JUMPI JUMP JUMPDEST SWAP1 PUSH1 0x1 DUP3 ADD DUP1 SWAP3 GT PUSH2 0x141B JUMPI JUMP JUMPDEST SWAP2 SWAP1 DUP3 ADD DUP1 SWAP3 GT PUSH2 0x141B JUMPI JUMP JUMPDEST PUSH1 0x40 MLOAD SWAP1 PUSH2 0x2272 PUSH1 0x60 DUP4 PUSH2 0x116 JUMP JUMPDEST PUSH1 0x2F DUP3 MSTORE PUSH15 0x17B337B932B4B3B727B13532B1BA1F PUSH1 0x89 SHL PUSH1 0x40 DUP4 PUSH32 0x222077696474683D223130302522206865696768743D223130302522202F3E3C PUSH1 0x20 DUP3 ADD MSTORE ADD MSTORE JUMP JUMPDEST PUSH1 0x40 MLOAD SWAP1 PUSH2 0x22C5 PUSH1 0x60 DUP4 PUSH2 0x116 JUMP JUMPDEST PUSH1 0x23 DUP3 MSTORE PUSH32 0x3C726563742077696474683D22343822206865696768743D223438222066696C PUSH1 0x20 DUP4 ADD MSTORE PUSH3 0x361E91 PUSH1 0xE9 SHL PUSH1 0x40 DUP4 ADD MSTORE JUMP JUMPDEST PUSH1 0x40 MLOAD SWAP1 PUSH2 0x230C PUSH1 0x40 DUP4 PUSH2 0x116 JUMP JUMPDEST PUSH1 0x3 DUP3 MSTORE PUSH3 0x11179F PUSH1 0xE9 SHL PUSH1 0x20 DUP4 ADD MSTORE JUMP JUMPDEST SWAP3 SWAP2 SWAP1 SWAP3 PUSH1 0x1 SWAP1 PUSH1 0xC0 PUSH2 0x2332 DUP4 DUP6 MLOAD PUSH2 0x1031 JUMP JUMPDEST MLOAD SWAP5 ADD SWAP2 DUP3 MLOAD PUSH2 0x2341 DUP2 PUSH2 0x1BE6 JUMP JUMPDEST PUSH2 0x234A DUP2 PUSH2 0x1BE6 JUMP JUMPDEST PUSH1 0xFF PUSH1 0x60 DUP8 ADD SWAP2 DUP3 MLOAD MLOAD SWAP2 DUP3 SWAP2 AND LT ISZERO PUSH2 0x2676 JUMPI POP PUSH2 0x2381 SWAP1 MLOAD PUSH2 0x237B DUP6 MLOAD PUSH2 0x2372 DUP2 PUSH2 0x1BE6 JUMP JUMPDEST PUSH2 0x1295 DUP2 PUSH2 0x1BE6 JUMP JUMPDEST SWAP1 PUSH2 0x1031 JUMP JUMPDEST MLOAD SWAP4 PUSH2 0x2399 PUSH2 0x2394 PUSH1 0x20 DUP8 ADD MLOAD PUSH1 0xFF AND SWAP1 JUMP JUMPDEST PUSH2 0x1FF3 JUMP JUMPDEST PUSH2 0x23A2 DUP2 PUSH2 0x1FE9 JUMP JUMPDEST PUSH1 0x2 DUP2 SUB PUSH2 0x2434 JUMPI POP POP POP POP POP PUSH2 0x23CD PUSH1 0xC0 PUSH1 0x40 SWAP3 ADD MLOAD PUSH2 0x23C7 PUSH1 0x80 DUP6 ADD MLOAD PUSH1 0xFF AND SWAP1 JUMP JUMPDEST SWAP1 PUSH2 0x30B6 JUMP JUMPDEST SWAP2 ADD DUP1 MLOAD MLOAD PUSH2 0xFFFF DUP4 AND SWAP3 DUP2 DUP5 LT ISZERO PUSH2 0x241A JUMPI POP POP PUSH2 0x2401 PUSH2 0x23F7 PUSH2 0x146 SWAP5 SWAP4 PUSH2 0x2412 SWAP4 MLOAD PUSH2 0x1031 JUMP JUMPDEST MLOAD PUSH4 0xFFFFFFFF AND SWAP1 JUMP JUMPDEST PUSH2 0x240C PUSH2 0x17F7 PUSH2 0x22B6 JUMP JUMPDEST DUP3 PUSH2 0x3174 JUMP JUMPDEST PUSH2 0x1B15 PUSH2 0x22FD JUMP JUMPDEST PUSH4 0x395FBD4B PUSH1 0xE2 SHL PUSH0 MSTORE PUSH2 0xFFFF AND PUSH1 0x4 MSTORE PUSH1 0x24 MSTORE PUSH1 0x44 JUMPDEST PUSH0 REVERT JUMPDEST SWAP1 SWAP3 SWAP5 SWAP2 SWAP4 SWAP7 SWAP6 POP PUSH2 0x2445 DUP2 PUSH2 0x1FE9 JUMP JUMPDEST DUP1 DUP5 SUB PUSH2 0x24E3 JUMPI POP POP POP POP PUSH0 SWAP1 PUSH2 0x2471 PUSH2 0x2492 SWAP5 MLOAD PUSH2 0x2463 DUP2 PUSH2 0x1BE6 JUMP JUMPDEST PUSH2 0x246C DUP2 PUSH2 0x1BE6 JUMP JUMPDEST PUSH2 0x2238 JUMP JUMPDEST SWAP1 PUSH1 0x40 MLOAD DUP1 DUP1 SWAP7 DUP2 SWAP5 PUSH4 0x69DDE379 PUSH1 0xE0 SHL DUP4 MSTORE PUSH1 0x4 DUP4 ADD SWAP2 SWAP1 PUSH1 0x20 DUP4 ADD SWAP3 MSTORE JUMP JUMPDEST SUB SWAP2 PUSH1 0x1 PUSH1 0x1 PUSH1 0xA0 SHL SUB AND GAS STATICCALL SWAP2 DUP3 ISZERO PUSH2 0xB63 JUMPI PUSH2 0x146 SWAP3 PUSH2 0x24C1 SWAP2 PUSH0 SWAP2 PUSH2 0x24C9 JUMPI JUMPDEST POP PUSH2 0x181E PUSH2 0x17F7 PUSH2 0x15D4 JUMP JUMPDEST PUSH2 0x1B15 PUSH2 0x2263 JUMP JUMPDEST PUSH2 0x24DD SWAP2 POP RETURNDATASIZE DUP1 PUSH0 DUP4 RETURNDATACOPY PUSH2 0x1892 DUP2 DUP4 PUSH2 0x116 JUMP JUMPDEST PUSH0 PUSH2 0x24B5 JUMP JUMPDEST SWAP1 SWAP3 SWAP6 SWAP2 SWAP4 POP PUSH2 0x24F2 DUP2 PUSH2 0x1FE9 JUMP JUMPDEST PUSH1 0x13 DUP2 SUB PUSH2 0x255E JUMPI POP PUSH2 0x2556 SWAP3 SWAP2 PUSH2 0x146 SWAP6 PUSH2 0x251E PUSH2 0x254B SWAP4 MLOAD PUSH2 0x2515 DUP2 PUSH2 0x1BE6 JUMP JUMPDEST PUSH2 0x1DD5 DUP2 PUSH2 0x1BE6 JUMP JUMPDEST SWAP4 PUSH2 0x2530 PUSH2 0x252A PUSH2 0x2190 JUMP JUMPDEST DUP9 PUSH2 0x2BFD JUMP JUMPDEST PUSH2 0x253A DUP6 DUP9 PUSH2 0x2BFD JUMP JUMPDEST PUSH2 0x2545 PUSH2 0x252A PUSH2 0x20CD JUMP JUMPDEST DUP7 PUSH2 0x2E68 JUMP JUMPDEST PUSH2 0x183A PUSH2 0x17F7 PUSH2 0x21CB JUMP JUMPDEST PUSH2 0x1B15 PUSH2 0x216E JUMP JUMPDEST SWAP2 PUSH2 0x146 SWAP6 PUSH2 0x2575 PUSH2 0x2556 SWAP6 SWAP4 MLOAD PUSH2 0x2515 DUP2 PUSH2 0x1BE6 JUMP JUMPDEST SWAP4 PUSH2 0x2581 PUSH2 0x252A PUSH2 0x2002 JUMP JUMPDEST PUSH2 0x258B DUP6 DUP9 PUSH2 0x2BFD JUMP JUMPDEST PUSH2 0x2596 PUSH2 0x252A PUSH2 0x203D JUMP JUMPDEST PUSH2 0x25AD PUSH2 0x252A PUSH2 0x1DD5 PUSH2 0x1295 PUSH1 0x40 DUP8 ADD MLOAD PUSH1 0xFF AND SWAP1 JUMP JUMPDEST PUSH2 0x25B8 PUSH2 0x252A PUSH2 0x2061 JUMP JUMPDEST PUSH2 0x25CF PUSH2 0x252A PUSH2 0x1DD5 PUSH2 0x1295 PUSH1 0x60 DUP8 ADD MLOAD PUSH1 0xFF AND SWAP1 JUMP JUMPDEST PUSH2 0x25DA PUSH2 0x252A PUSH2 0x2085 JUMP JUMPDEST PUSH2 0x25F1 PUSH2 0x252A PUSH2 0x1DD5 PUSH2 0x1295 PUSH1 0x80 DUP8 ADD MLOAD PUSH1 0xFF AND SWAP1 JUMP JUMPDEST PUSH2 0x25FC PUSH2 0x252A PUSH2 0x20A9 JUMP JUMPDEST PUSH2 0x2613 PUSH2 0x252A PUSH2 0x1DD5 PUSH2 0x1295 PUSH1 0xA0 DUP8 ADD MLOAD PUSH1 0xFF AND SWAP1 JUMP JUMPDEST PUSH2 0x261E PUSH2 0x252A PUSH2 0x20CD JUMP JUMPDEST PUSH2 0x2627 DUP2 PUSH2 0x1FE9 JUMP JUMPDEST PUSH1 0x1 DUP2 AND ISZERO SWAP1 DUP2 PUSH2 0x265D JUMPI JUMPDEST POP ISZERO PUSH2 0x264E JUMPI PUSH2 0x2643 SWAP3 DUP7 PUSH2 0x2F9C JUMP JUMPDEST PUSH2 0x183A PUSH2 0x17F7 PUSH2 0x2101 JUMP JUMPDEST PUSH2 0x2658 SWAP3 DUP7 PUSH2 0x2E68 JUMP JUMPDEST PUSH2 0x2643 JUMP JUMPDEST PUSH1 0x4 SWAP2 POP DUP1 PUSH2 0x266D PUSH1 0xFF SWAP3 PUSH2 0x1FE9 JUMP JUMPDEST AND LT ISZERO PUSH0 PUSH2 0x2633 JUMP JUMPDEST PUSH2 0x2431 SWAP1 DUP6 SWAP1 DUP5 SWAP1 DUP1 ISZERO PUSH2 0x26C4 JUMPI PUSH2 0x268F PUSH1 0xFF SWAP2 PUSH2 0x1FCE JUMP JUMPDEST SWAP3 JUMPDEST MLOAD SWAP2 PUSH2 0x269C DUP4 PUSH2 0x1BE6 JUMP JUMPDEST PUSH2 0x26A5 DUP4 PUSH2 0x1BE6 JUMP JUMPDEST PUSH4 0xAD073313 PUSH1 0xE0 SHL PUSH0 MSTORE PUSH1 0xFF SWAP2 AND DUP2 AND PUSH1 0x4 MSTORE AND PUSH1 0x24 MSTORE PUSH1 0x44 MSTORE PUSH1 0x64 SWAP1 JUMP JUMPDEST POP PUSH1 0xFF PUSH0 SWAP3 PUSH2 0x2691 JUMP JUMPDEST PUSH0 NOT DUP2 EQ PUSH2 0x141B JUMPI PUSH1 0x1 ADD SWAP1 JUMP JUMPDEST SWAP1 DUP2 MLOAD DUP2 LT ISZERO PUSH2 0x101F JUMPI ADD PUSH1 0x20 ADD SWAP1 JUMP JUMPDEST SWAP3 SWAP1 PUSH2 0x26FE SWAP1 MLOAD PUSH1 0xFF DUP5 AND SWAP1 PUSH2 0x1031 JUMP JUMPDEST MLOAD SWAP2 PUSH1 0x60 DUP4 ADD SWAP1 DUP2 MLOAD MLOAD SWAP3 PUSH1 0xFF DUP2 AND SWAP4 DUP1 DUP6 LT ISZERO PUSH2 0x292F JUMPI POP POP POP SWAP1 PUSH2 0x2724 SWAP2 MLOAD PUSH2 0x1031 JUMP JUMPDEST MLOAD PUSH1 0xC0 DUP2 ADD DUP1 MLOAD MLOAD DUP1 ISZERO PUSH2 0x291D JUMPI POP MLOAD SWAP3 PUSH0 SWAP4 DUP1 MLOAD SWAP2 PUSH1 0x40 DUP5 ADD SWAP4 PUSH2 0x274D PUSH2 0x1295 DUP7 MLOAD PUSH1 0xFF AND SWAP1 JUMP JUMPDEST SWAP3 PUSH2 0x275F PUSH2 0x1295 PUSH1 0x60 DUP5 ADD MLOAD PUSH1 0xFF AND SWAP1 JUMP JUMPDEST SWAP8 PUSH1 0x80 PUSH1 0x40 DUP2 DUP11 ADD SWAP10 ADD SWAP4 ADD SWAP6 JUMPDEST DUP1 DUP3 LT PUSH2 0x2780 JUMPI POP POP POP POP POP POP POP POP POP POP JUMP JUMPDEST PUSH2 0x27AD PUSH2 0x27A7 PUSH2 0x2799 PUSH2 0x2792 DUP6 PUSH2 0x26CE JUMP JUMPDEST SWAP5 DUP7 PUSH2 0x26DC JUMP JUMPDEST MLOAD PUSH1 0x1 PUSH1 0x1 PUSH1 0xF8 SHL SUB NOT AND SWAP1 JUMP JUMPDEST PUSH1 0xF8 SHR SWAP1 JUMP JUMPDEST PUSH1 0x1 PUSH2 0x27BD PUSH2 0x1295 DUP13 MLOAD PUSH1 0xFF AND SWAP1 JUMP JUMPDEST SUB PUSH2 0x28D9 JUMPI PUSH2 0x27DE PUSH2 0x1295 PUSH2 0x27A7 PUSH2 0x2799 PUSH2 0x27D7 DUP8 PUSH2 0x26CE JUMP JUMPDEST SWAP7 DUP9 PUSH2 0x26DC JUMP JUMPDEST DUP6 MLOAD MLOAD PUSH2 0xFFFF DUP3 AND SWAP2 DUP2 DUP4 LT ISZERO PUSH2 0x241A JUMPI POP POP PUSH2 0x23F7 PUSH2 0x27FF SWAP2 DUP8 MLOAD PUSH2 0x1031 JUMP JUMPDEST PUSH1 0xFF PUSH0 SWAP3 AND SWAP1 PUSH1 0xFF DUP2 AND ISZERO ISZERO SWAP1 JUMPDEST DUP3 PUSH1 0xFF DUP6 AND LT PUSH2 0x2820 JUMPI POP POP POP POP PUSH2 0x276D JUMP JUMPDEST SWAP1 SWAP2 SWAP3 SWAP9 DUP14 SWAP15 SWAP14 PUSH1 0x30 DUP3 LT SWAP1 DUP2 ISZERO SWAP2 PUSH2 0x28CD JUMPI JUMPDEST POP PUSH2 0x28B1 JUMPI PUSH2 0x284E SWAP1 DUP16 SWAP15 SWAP16 DUP4 DUP6 PUSH2 0x2899 JUMPI JUMPDEST POP POP PUSH2 0x26CE JUMP JUMPDEST SWAP9 PUSH2 0x285D PUSH2 0x1295 DUP13 MLOAD PUSH1 0xFF AND SWAP1 JUMP JUMPDEST DUP11 GT PUSH2 0x2872 JUMPI JUMPDEST PUSH1 0x1 ADD PUSH1 0xFF AND SWAP3 SWAP2 SWAP1 PUSH2 0x280D JUMP JUMPDEST SWAP13 SWAP9 POP PUSH1 0xFF PUSH1 0x1 PUSH2 0x2890 PUSH2 0x288A PUSH2 0x1295 DUP16 MLOAD PUSH1 0xFF AND SWAP1 JUMP JUMPDEST SWAP12 PUSH2 0x26CE JUMP JUMPDEST SWAP15 SWAP2 POP POP PUSH2 0x2864 JUMP JUMPDEST PUSH1 0xFF PUSH2 0x28AA SWAP3 AND PUSH1 0xFF DUP5 AND DUP14 PUSH2 0x32B6 JUMP JUMPDEST DUP15 DUP4 PUSH2 0x2847 JUMP JUMPDEST PUSH4 0xB49A7ED PUSH1 0xE1 SHL PUSH0 MSTORE PUSH1 0xFF SWAP1 DUP2 AND PUSH1 0x4 MSTORE DUP15 AND PUSH1 0x24 MSTORE PUSH1 0x44 PUSH0 REVERT JUMPDEST PUSH1 0x30 SWAP2 POP LT ISZERO DUP16 PUSH2 0x2834 JUMP JUMPDEST PUSH2 0x2902 PUSH2 0x28F8 PUSH2 0x1295 PUSH2 0x27A7 PUSH2 0x2799 PUSH2 0x28F1 DUP9 PUSH2 0x26CE JUMP JUMPDEST SWAP8 DUP10 PUSH2 0x26DC JUMP JUMPDEST PUSH1 0x8 SHL PUSH2 0xFF00 AND SWAP1 JUMP JUMPDEST PUSH2 0x2917 PUSH2 0x1295 PUSH2 0x27A7 PUSH2 0x2799 PUSH2 0x28F1 DUP9 PUSH2 0x26CE JUMP JUMPDEST OR PUSH2 0x27DE JUMP JUMPDEST PUSH4 0x7F5AB42B PUSH1 0xE1 SHL PUSH0 MSTORE PUSH1 0x4 MSTORE PUSH1 0x24 PUSH0 REVERT JUMPDEST PUSH2 0x2431 SWAP4 POP DUP1 ISZERO PUSH2 0x2963 JUMPI PUSH2 0x2943 SWAP1 PUSH2 0x1FCE JUMP JUMPDEST SWAP2 JUMPDEST PUSH4 0xAD073313 PUSH1 0xE0 SHL PUSH0 MSTORE PUSH1 0xFF SWAP1 DUP2 AND PUSH1 0x4 MSTORE AND PUSH1 0x24 MSTORE PUSH1 0x44 MSTORE PUSH1 0x64 SWAP1 JUMP JUMPDEST POP PUSH0 SWAP2 PUSH2 0x2945 JUMP JUMPDEST DUP1 MLOAD SWAP2 SWAP1 DUP3 SWAP1 PUSH1 0x20 ADD DUP3 MCOPY ADD PUSH0 DUP2 MSTORE SWAP1 JUMP JUMPDEST SWAP1 PUSH2 0x146 PUSH2 0x29B4 SWAP3 PUSH1 0x40 MLOAD SWAP4 DUP5 SWAP2 PUSH22 0x19185D184E9A5B5859D94BDC1B99CED8985CD94D8D0B PUSH1 0x52 SHL PUSH1 0x20 DUP5 ADD MSTORE PUSH1 0x36 DUP4 ADD SWAP1 PUSH2 0x296B JUMP JUMPDEST SUB PUSH1 0x1F NOT DUP2 ADD DUP5 MSTORE DUP4 PUSH2 0x116 JUMP JUMPDEST PUSH0 JUMPDEST PUSH1 0x30 DUP2 LT PUSH2 0x29E6 JUMPI POP PUSH2 0x29E1 PUSH2 0x29DC PUSH2 0xBD4 SWAP3 PUSH2 0x3484 JUMP JUMPDEST PUSH2 0x3B83 JUMP JUMPDEST PUSH2 0x297D JUMP JUMPDEST SWAP2 SWAP1 PUSH0 JUMPDEST PUSH1 0x30 DUP2 LT PUSH2 0x29FD JUMPI POP SWAP1 SWAP2 PUSH1 0x1 ADD PUSH2 0x29C4 JUMP JUMPDEST DUP1 PUSH4 0x5F5D6EFF PUSH2 0x2A2D PUSH4 0xFFFFFFFF PUSH2 0x2A22 PUSH1 0x1 SWAP6 PUSH2 0x2A1C DUP11 DUP10 MLOAD PUSH2 0x32A5 JUMP JUMPDEST MLOAD PUSH2 0x32A5 JUMP JUMPDEST MLOAD AND PUSH4 0xFFFFFFFF AND SWAP1 JUMP JUMPDEST EQ PUSH2 0x2A39 JUMPI JUMPDEST ADD PUSH2 0x29EA JUMP JUMPDEST PUSH0 PUSH2 0x2A49 DUP3 PUSH2 0x2A1C DUP9 DUP8 MLOAD PUSH2 0x32A5 JUMP JUMPDEST MSTORE PUSH2 0x2A33 JUMP JUMPDEST SWAP1 PUSH1 0x40 MLOAD PUSH1 0xA PUSH1 0x80 DUP3 ADD SWAP4 PUSH1 0xA0 DUP4 ADD PUSH1 0x40 MSTORE PUSH0 DUP6 MSTORE SWAP4 JUMPDEST PUSH0 NOT ADD SWAP4 PUSH1 0x30 DUP3 DUP3 MOD ADD DUP6 MSTORE8 DIV SWAP3 DUP4 ISZERO PUSH2 0x2A82 JUMPI PUSH1 0xA SWAP1 PUSH2 0x2A66 JUMP JUMPDEST DUP1 SWAP4 POP PUSH1 0x80 SWAP2 SUB ADD SWAP2 PUSH1 0x1F NOT ADD SWAP2 DUP3 MSTORE JUMP JUMPDEST PUSH1 0x2 PUSH2 0x146 SWAP2 PUSH2 0x2AE4 PUSH2 0x2ACC SWAP6 SWAP5 PUSH1 0xB PUSH1 0x40 MLOAD SWAP8 DUP9 SWAP5 PUSH15 0x3D913A3930B4BA2FBA3CB832911D11 PUSH1 0x89 SHL PUSH1 0x20 DUP8 ADD MSTORE PUSH1 0x2F DUP7 ADD SWAP1 PUSH2 0x296B JUMP JUMPDEST PUSH11 0x1116113B30B63AB2911D11 PUSH1 0xA9 SHL DUP2 MSTORE ADD SWAP1 PUSH2 0x296B JUMP JUMPDEST PUSH2 0x227D PUSH1 0xF0 SHL DUP2 MSTORE SUB PUSH1 0x1D NOT DUP2 ADD DUP6 MSTORE ADD DUP4 PUSH2 0x116 JUMP JUMPDEST SWAP2 SWAP1 SWAP2 PUSH2 0x2B07 DUP2 PUSH2 0xBA0 JUMP JUMPDEST PUSH1 0xC DUP2 EQ SWAP1 DUP2 ISZERO PUSH2 0x2BE8 JUMPI JUMPDEST DUP2 ISZERO PUSH2 0x2BD3 JUMPI JUMPDEST DUP2 ISZERO PUSH2 0x2BBE JUMPI JUMPDEST DUP2 ISZERO PUSH2 0x2BA9 JUMPI JUMPDEST DUP2 ISZERO PUSH2 0x2B94 JUMPI JUMPDEST DUP2 ISZERO PUSH2 0x2B7F JUMPI JUMPDEST DUP2 ISZERO PUSH2 0x2B6A JUMPI JUMPDEST DUP2 ISZERO PUSH2 0x2B56 JUMPI JUMPDEST POP PUSH2 0x2B4D JUMPI POP SWAP1 JUMP JUMPDEST PUSH2 0xBD4 SWAP2 PUSH2 0x3610 JUMP JUMPDEST PUSH1 0x7 SWAP2 POP PUSH2 0x2B63 DUP2 PUSH2 0xBA0 JUMP JUMPDEST EQ PUSH0 PUSH2 0x2B44 JUMP JUMPDEST SWAP1 POP PUSH2 0x2B75 DUP2 PUSH2 0xBA0 JUMP JUMPDEST PUSH1 0x18 DUP2 EQ SWAP1 PUSH2 0x2B3D JUMP JUMPDEST SWAP1 POP PUSH2 0x2B8A DUP2 PUSH2 0xBA0 JUMP JUMPDEST PUSH1 0xD DUP2 EQ SWAP1 PUSH2 0x2B36 JUMP JUMPDEST SWAP1 POP PUSH2 0x2B9F DUP2 PUSH2 0xBA0 JUMP JUMPDEST PUSH1 0x16 DUP2 EQ SWAP1 PUSH2 0x2B2F JUMP JUMPDEST SWAP1 POP PUSH2 0x2BB4 DUP2 PUSH2 0xBA0 JUMP JUMPDEST PUSH1 0xB DUP2 EQ SWAP1 PUSH2 0x2B28 JUMP JUMPDEST SWAP1 POP PUSH2 0x2BC9 DUP2 PUSH2 0xBA0 JUMP JUMPDEST PUSH1 0x15 DUP2 EQ SWAP1 PUSH2 0x2B21 JUMP JUMPDEST SWAP1 POP PUSH2 0x2BDE DUP2 PUSH2 0xBA0 JUMP JUMPDEST PUSH1 0xA DUP2 EQ SWAP1 PUSH2 0x2B1A JUMP JUMPDEST SWAP1 POP PUSH2 0x2BF3 DUP2 PUSH2 0xBA0 JUMP JUMPDEST PUSH1 0x17 DUP2 EQ SWAP1 PUSH2 0x2B13 JUMP JUMPDEST SWAP1 PUSH2 0x2C09 DUP2 MLOAD DUP4 PUSH2 0x3787 JUMP JUMPDEST DUP1 MLOAD SWAP1 PUSH1 0x20 DUP3 DUP2 DUP4 ADD SWAP3 ADD ADD SWAP1 PUSH1 0x20 DUP5 MLOAD DUP6 ADD ADD SWAP1 JUMPDEST DUP3 DUP2 LT PUSH2 0x2C30 JUMPI POP POP POP DUP2 MLOAD ADD SWAP1 MSTORE JUMP JUMPDEST DUP1 MLOAD DUP3 MSTORE PUSH1 0x20 SWAP2 DUP3 ADD SWAP2 ADD PUSH2 0x2C1F JUMP JUMPDEST DUP2 MLOAD DUP1 ISZERO PUSH2 0x2D24 JUMPI PUSH1 0x3 PUSH1 0x2 DUP3 ADD DIV PUSH1 0x2 SHL SWAP1 PUSH1 0x3 DUP2 MOD SWAP1 PUSH2 0x2C62 DUP4 DUP6 PUSH2 0x3787 JUMP JUMPDEST PUSH1 0x40 MLOAD SWAP5 PUSH32 0x4142434445464748494A4B4C4D4E4F505152535455565758595A616263646566 PUSH1 0x1F MSTORE PUSH2 0x22F NOT PUSH32 0x6768696A6B6C6D6E6F707172737475767778797A303132333435363738392D5F ADD PUSH1 0x3F MSTORE PUSH1 0x4 PUSH1 0x3 PUSH1 0x20 DUP8 MLOAD DUP9 ADD ADD SWAP4 DUP4 ADD SWAP3 JUMPDEST ADD SWAP3 PUSH1 0x3F DUP5 MLOAD DUP2 DUP2 PUSH1 0x12 SHR AND MLOAD DUP4 MSTORE8 DUP2 DUP2 PUSH1 0xC SHR AND MLOAD PUSH1 0x1 DUP5 ADD MSTORE8 DUP2 DUP2 PUSH1 0x6 SHR AND MLOAD PUSH1 0x2 DUP5 ADD MSTORE8 AND MLOAD PUSH1 0x3 DUP3 ADD MSTORE8 ADD SWAP2 DUP2 DUP2 LT ISZERO PUSH2 0x2D05 JUMPI PUSH1 0x3 PUSH1 0x4 SWAP2 PUSH2 0x2CC3 JUMP JUMPDEST POP POP PUSH1 0x1 PUSH1 0x3D SWAP3 DUP4 DUP2 ISZERO ISZERO DUP5 SUB MSTORE8 EQ PUSH1 0x1 SHL SWAP1 SUB MSTORE8 DUP2 MLOAD ADD SWAP1 MSTORE PUSH1 0x40 MSTORE JUMP JUMPDEST POP POP POP JUMP JUMPDEST ISZERO PUSH2 0x2D30 JUMPI JUMP JUMPDEST PUSH1 0x40 MLOAD PUSH3 0x461BCD PUSH1 0xE5 SHL DUP2 MSTORE PUSH1 0x20 PUSH1 0x4 DUP3 ADD MSTORE PUSH1 0x31 PUSH1 0x24 DUP3 ADD MSTORE PUSH32 0x54726169744461746120697320656D7074792C20636F756C646E277420666574 PUSH1 0x44 DUP3 ADD MSTORE PUSH17 0x6368206772616469656E742073746F7073 PUSH1 0x78 SHL PUSH1 0x64 DUP3 ADD MSTORE PUSH1 0x84 SWAP1 REVERT JUMPDEST DUP2 ISZERO PUSH2 0x2D99 JUMPI DIV SWAP1 JUMP JUMPDEST PUSH2 0x20ED JUMP JUMPDEST DUP2 DUP2 MUL SWAP3 SWAP2 DUP2 ISZERO SWAP2 DUP5 DIV EQ OR ISZERO PUSH2 0x141B JUMPI JUMP JUMPDEST SWAP1 PUSH1 0x64 DUP3 MUL SWAP2 DUP1 DUP4 SDIV PUSH1 0x64 EQ SWAP1 ISZERO OR ISZERO PUSH2 0x141B JUMPI JUMP JUMPDEST SWAP1 PUSH3 0xF4240 DUP3 MUL SWAP2 DUP1 DUP4 SDIV PUSH3 0xF4240 EQ SWAP1 ISZERO OR ISZERO PUSH2 0x141B JUMPI JUMP JUMPDEST DUP2 ISZERO PUSH2 0x2D99 JUMPI PUSH1 0x1 PUSH1 0xFF SHL DUP2 EQ PUSH0 NOT DUP4 EQ AND PUSH2 0x141B JUMPI SDIV SWAP1 JUMP JUMPDEST PUSH1 0x40 MLOAD SWAP1 PUSH2 0x2E0A PUSH1 0x40 DUP4 PUSH2 0x116 JUMP JUMPDEST PUSH1 0xE DUP3 MSTORE PUSH14 0x1E39BA37B81037B33339B2BA1E91 PUSH1 0x91 SHL PUSH1 0x20 DUP4 ADD MSTORE JUMP JUMPDEST PUSH1 0x40 MLOAD SWAP1 PUSH2 0x2E36 PUSH1 0x40 DUP4 PUSH2 0x116 JUMP JUMPDEST PUSH1 0x3 DUP3 MSTORE PUSH3 0x12911 PUSH1 0xED SHL PUSH1 0x20 DUP4 ADD MSTORE JUMP JUMPDEST PUSH1 0x40 MLOAD SWAP1 PUSH2 0x2E57 PUSH1 0x40 DUP4 PUSH2 0x116 JUMP JUMPDEST PUSH1 0x2 DUP3 MSTORE PUSH2 0x179F PUSH1 0xF1 SHL PUSH1 0x20 DUP4 ADD MSTORE JUMP JUMPDEST SWAP3 SWAP2 PUSH2 0x2E77 SWAP1 PUSH1 0xC0 SWAP3 MLOAD PUSH2 0x1031 JUMP JUMPDEST MLOAD SWAP2 ADD SWAP1 PUSH2 0x2E88 DUP3 MLOAD MLOAD ISZERO ISZERO PUSH2 0x2D29 JUMP JUMPDEST DUP2 MLOAD MLOAD SWAP1 PUSH2 0x2EA8 PUSH1 0x80 DUP3 ADD SWAP3 PUSH2 0x2EA2 PUSH2 0x1295 DUP6 MLOAD PUSH1 0xFF AND SWAP1 JUMP JUMPDEST SWAP1 PUSH2 0x2D8F JUMP JUMPDEST SWAP2 PUSH1 0x40 PUSH0 SWAP3 ADD SWAP2 JUMPDEST DUP4 DUP2 LT PUSH2 0x2EBF JUMPI POP POP POP POP POP POP JUMP JUMPDEST PUSH2 0x2EE6 DUP6 MLOAD PUSH2 0x2EDB PUSH2 0x2ED5 PUSH2 0x1295 DUP7 MLOAD PUSH1 0xFF AND SWAP1 JUMP JUMPDEST DUP5 PUSH2 0x2D9E JUMP JUMPDEST DUP5 MLOAD PUSH1 0xFF AND SWAP2 PUSH2 0x3109 JUMP JUMPDEST DUP4 MLOAD MLOAD PUSH2 0xFFFF DUP3 AND SWAP2 DUP2 DUP4 LT ISZERO PUSH2 0x241A JUMPI POP POP SWAP1 PUSH2 0x2F5D PUSH2 0x2F0D PUSH2 0x23F7 PUSH1 0x1 SWAP5 DUP8 MLOAD PUSH2 0x1031 JUMP JUMPDEST PUSH2 0x2F4C PUSH2 0x2F3B PUSH2 0x2F36 PUSH2 0x2F27 PUSH2 0x2F22 DUP8 PUSH2 0x2DB1 JUMP JUMPDEST PUSH2 0x2DC7 JUMP JUMPDEST PUSH2 0x2F30 DUP12 PUSH2 0x1FCE JUMP JUMPDEST SWAP1 PUSH2 0x2DE1 JUMP JUMPDEST PUSH2 0x37B0 JUMP JUMPDEST PUSH2 0x1F74 PUSH2 0x2F46 PUSH2 0x2DFB JUMP JUMPDEST DUP13 PUSH2 0x2BFD JUMP JUMPDEST PUSH2 0x2F57 PUSH2 0x1F74 PUSH2 0x2E27 JUMP JUMPDEST DUP9 PUSH2 0x38D6 JUMP JUMPDEST PUSH2 0x2F68 PUSH2 0x252A PUSH2 0x2E48 JUMP JUMPDEST ADD PUSH2 0x2EB0 JUMP JUMPDEST PUSH1 0x40 MLOAD SWAP1 PUSH2 0x2F7D PUSH1 0x40 DUP4 PUSH2 0x116 JUMP JUMPDEST PUSH1 0x10 DUP3 MSTORE PUSH16 0x179F1E39BA37B81037B33339B2BA1E91 PUSH1 0x81 SHL PUSH1 0x20 DUP4 ADD MSTORE JUMP JUMPDEST SWAP2 PUSH2 0x2FAA SWAP1 PUSH1 0xC0 SWAP3 MLOAD PUSH2 0x1031 JUMP JUMPDEST MLOAD SWAP3 ADD SWAP1 PUSH2 0x2FBB DUP3 MLOAD MLOAD ISZERO ISZERO PUSH2 0x2D29 JUMP JUMPDEST DUP2 MLOAD MLOAD SWAP3 PUSH2 0x2FD5 PUSH1 0x80 DUP3 ADD SWAP5 PUSH2 0x2EA2 PUSH2 0x1295 DUP8 MLOAD PUSH1 0xFF AND SWAP1 JUMP JUMPDEST SWAP4 PUSH1 0x40 PUSH0 SWAP3 ADD SWAP2 JUMPDEST DUP6 DUP2 LT PUSH2 0x2FEC JUMPI POP POP POP POP POP POP JUMP JUMPDEST PUSH2 0x3002 DUP6 MLOAD PUSH2 0x2EDB PUSH2 0x2ED5 PUSH2 0x1295 DUP7 MLOAD PUSH1 0xFF AND SWAP1 JUMP JUMPDEST DUP4 MLOAD MLOAD PUSH2 0xFFFF DUP3 AND SWAP2 DUP2 DUP4 LT ISZERO PUSH2 0x241A JUMPI POP POP SWAP1 PUSH2 0x309F PUSH2 0x3029 PUSH2 0x23F7 PUSH1 0x1 SWAP5 DUP8 MLOAD PUSH2 0x1031 JUMP JUMPDEST PUSH2 0x308E PUSH2 0x3044 PUSH2 0x2F36 DUP12 PUSH2 0x303F PUSH2 0x2F22 DUP9 PUSH2 0x2DB1 JUMP JUMPDEST PUSH2 0x2DE1 JUMP JUMPDEST PUSH2 0x306E PUSH2 0x3062 PUSH2 0x2F36 DUP14 PUSH2 0x303F PUSH2 0x2F22 PUSH2 0x305D DUP12 PUSH2 0x2248 JUMP JUMPDEST PUSH2 0x2DB1 JUMP JUMPDEST SWAP2 PUSH2 0x1F74 PUSH2 0x2F46 PUSH2 0x2DFB JUMP JUMPDEST PUSH2 0x3079 PUSH2 0x1F74 PUSH2 0x2E27 JUMP JUMPDEST PUSH2 0x3083 DUP4 DUP11 PUSH2 0x38D6 JUMP JUMPDEST PUSH2 0x252A PUSH2 0x1F74 PUSH2 0x2F6E JUMP JUMPDEST PUSH2 0x3099 PUSH2 0x252A PUSH2 0x2E27 JUMP JUMPDEST DUP7 PUSH2 0x38D6 JUMP JUMPDEST PUSH2 0x30B0 PUSH2 0x30AA PUSH2 0x2E48 JUMP JUMPDEST DUP7 PUSH2 0x2BFD JUMP JUMPDEST ADD PUSH2 0x2FDD JUMP JUMPDEST SWAP1 PUSH1 0xFF AND PUSH1 0x1 EQ PUSH2 0x30F8 JUMPI DUP1 MLOAD ISZERO PUSH2 0x101F JUMPI PUSH1 0x20 DUP2 ADD MLOAD PUSH1 0xF0 SHR PUSH2 0xFF00 AND SWAP1 PUSH2 0x30F4 SWAP1 PUSH2 0x1295 SWAP1 PUSH2 0x27A7 SWAP1 PUSH2 0x2799 SWAP1 PUSH2 0x30EE PUSH0 PUSH2 0x2248 JUMP JUMPDEST SWAP1 PUSH2 0x26DC JUMP JUMPDEST OR SWAP1 JUMP JUMPDEST DUP1 MLOAD ISZERO PUSH2 0x101F JUMPI PUSH1 0x20 ADD MLOAD PUSH1 0xF8 SHR SWAP1 JUMP JUMPDEST SWAP1 SWAP2 PUSH1 0xFF AND PUSH1 0x1 EQ PUSH2 0x3144 JUMPI PUSH1 0xFF PUSH2 0x313A DUP3 PUSH2 0x30EE PUSH2 0xFF00 PUSH2 0x312C DUP8 DUP7 SWAP8 PUSH2 0x26DC JUMP JUMPDEST MLOAD PUSH1 0xF8 SHR PUSH1 0x8 SHL AND SWAP6 PUSH2 0x2248 JUMP JUMPDEST MLOAD PUSH1 0xF8 SHR AND AND OR SWAP1 JUMP JUMPDEST SWAP1 PUSH2 0x314E SWAP2 PUSH2 0x26DC JUMP JUMPDEST MLOAD PUSH1 0xF8 SHR SWAP1 JUMP JUMPDEST PUSH1 0x40 MLOAD SWAP1 PUSH2 0x3164 PUSH1 0x40 DUP4 PUSH2 0x116 JUMP JUMPDEST PUSH1 0x1 DUP3 MSTORE PUSH1 0x23 PUSH1 0xF8 SHL PUSH1 0x20 DUP4 ADD MSTORE JUMP JUMPDEST PUSH1 0x18 DUP3 SWAP1 SHR PUSH1 0xFF AND SWAP1 PUSH2 0x31AB PUSH1 0xFF PUSH2 0x3195 PUSH2 0x319F DUP3 PUSH1 0x10 DUP9 SWAP1 SHR PUSH2 0xFFFF AND DUP4 JUMP JUMPDEST AND PUSH4 0xFFFFFFFF AND SWAP1 JUMP JUMPDEST SWAP6 PUSH1 0x8 SHR PUSH3 0xFFFFFF AND SWAP1 JUMP JUMPDEST SWAP3 PUSH2 0x31B7 PUSH2 0x19E0 PUSH2 0x3155 JUMP JUMPDEST PUSH2 0x31C4 PUSH1 0xFF DUP5 AND PUSH1 0x4 SHR SWAP1 JUMP JUMPDEST SWAP3 PUSH1 0x10 DUP5 LT ISZERO PUSH2 0x101F JUMPI PUSH1 0xF AND SWAP4 PUSH1 0x10 DUP6 LT ISZERO PUSH2 0x101F JUMPI PUSH2 0x31E5 DUP3 PUSH1 0x4 SHR SWAP1 JUMP JUMPDEST SWAP2 PUSH1 0x10 DUP4 LT ISZERO PUSH2 0x101F JUMPI PUSH1 0xF AND SWAP5 PUSH1 0x10 DUP7 LT ISZERO PUSH2 0x101F JUMPI PUSH2 0x3206 DUP3 PUSH1 0x4 SHR SWAP1 JUMP JUMPDEST SWAP2 PUSH1 0x10 DUP4 LT ISZERO PUSH2 0x101F JUMPI PUSH1 0xF AND SWAP2 PUSH1 0x10 DUP4 LT ISZERO PUSH2 0x101F JUMPI PUSH1 0x40 MLOAD PUSH16 0x181899199A1A9B1B9C1CB0B131B232B3 PUSH1 0x81 SHL SWAP7 DUP8 SWAP1 BYTE PUSH1 0xF8 SWAP1 DUP2 SHL PUSH1 0x1 PUSH1 0x1 PUSH1 0xF8 SHL SUB NOT SWAP1 DUP2 AND PUSH1 0x20 DUP5 ADD MSTORE SWAP4 DUP9 SWAP1 BYTE DUP2 SHL DUP5 AND PUSH1 0x21 DUP4 ADD MSTORE SWAP5 DUP8 SWAP1 BYTE DUP6 SHL DUP4 AND PUSH1 0x22 DUP3 ADD MSTORE SWAP7 DUP7 SWAP1 BYTE DUP5 SHL DUP3 AND PUSH1 0x23 DUP9 ADD MSTORE DUP6 SWAP1 BYTE DUP4 SHL DUP2 AND PUSH1 0x24 DUP8 ADD MSTORE SWAP4 SWAP1 BYTE SWAP1 SHL SWAP1 SWAP2 AND PUSH1 0x25 DUP4 ADD MSTORE PUSH2 0x146 SWAP2 SWAP1 PUSH2 0x32A0 DUP3 PUSH1 0x26 DUP2 ADD PUSH2 0x29B4 JUMP JUMPDEST PUSH2 0x2BFD JUMP JUMPDEST SWAP1 PUSH1 0x30 DUP2 LT ISZERO PUSH2 0x101F JUMPI PUSH1 0x5 SHL ADD SWAP1 JUMP JUMPDEST SWAP2 SWAP3 PUSH1 0xFF DUP2 AND DUP1 ISZERO PUSH2 0x33CF JUMPI PUSH1 0xFF PUSH1 0x18 DUP4 SWAP1 SHR DUP2 AND AND SWAP2 PUSH1 0xFF PUSH1 0x10 DUP3 SWAP1 SHR PUSH2 0xFFFF AND AND SWAP3 PUSH1 0xFF PUSH1 0x8 DUP4 SWAP1 SHR PUSH3 0xFFFFFF AND AND SWAP3 PUSH2 0x32FA PUSH2 0x23F7 DUP10 PUSH2 0x2A1C DUP10 DUP12 MLOAD PUSH2 0x32A5 JUMP JUMPDEST SWAP4 PUSH1 0xFF DUP6 AND SWAP4 DUP5 ISZERO PUSH2 0x33B3 JUMPI PUSH1 0xFF DUP4 EQ PUSH2 0x33B3 JUMPI POP PUSH1 0xFF PUSH1 0x18 DUP7 SWAP1 SHR DUP2 AND AND SWAP4 PUSH1 0xFF PUSH2 0x3336 DUP2 PUSH1 0x10 DUP10 SWAP1 SHR PUSH2 0xFFFF AND AND SWAP8 PUSH1 0x8 SHR PUSH3 0xFFFFFF AND SWAP1 JUMP JUMPDEST AND SWAP7 DUP4 PUSH1 0xFF SUB SWAP3 PUSH1 0xFF PUSH1 0x7F DUP6 DUP6 MUL ADD DIV DUP6 ADD SWAP9 DUP10 ISZERO PUSH2 0x33AA JUMPI JUMPDEST DUP5 DUP5 DUP12 PUSH2 0x146 SWAP16 SWAP13 SWAP10 SWAP6 DUP10 PUSH2 0x339F SWAP16 SWAP13 SWAP10 DUP1 PUSH2 0x2A1C SWAP16 SWAP13 SWAP9 SWAP11 DUP6 DUP1 SWAP13 DUP6 PUSH1 0xFF DUP1 SWAP13 SWAP7 DUP6 DUP3 SWAP9 MUL MUL DIV SWAP2 MUL ADD DIV PUSH1 0x8 SHL SWAP14 MUL MUL DIV SWAP2 MUL ADD DIV PUSH1 0x10 SHL SWAP7 MUL MUL DIV SWAP2 MUL ADD DIV PUSH1 0x18 SHL OR OR OR SWAP5 MLOAD PUSH2 0x32A5 JUMP JUMPDEST SWAP1 PUSH4 0xFFFFFFFF AND SWAP1 MSTORE JUMP JUMPDEST PUSH1 0x1 SWAP10 POP PUSH2 0x3350 JUMP JUMPDEST SWAP8 SWAP3 POP POP POP PUSH2 0x146 SWAP7 SWAP4 POP PUSH2 0x2A1C SWAP3 POP PUSH2 0x339F SWAP5 SWAP2 POP MLOAD PUSH2 0x32A5 JUMP JUMPDEST POP POP POP POP POP JUMP JUMPDEST PUSH1 0x40 MLOAD SWAP1 PUSH2 0x33E5 PUSH1 0x40 DUP4 PUSH2 0x116 JUMP JUMPDEST PUSH1 0x8 DUP3 MSTORE PUSH8 0x44A8272386850D05 PUSH1 0xC1 SHL PUSH1 0x20 DUP4 ADD MSTORE JUMP JUMPDEST PUSH1 0x40 MLOAD SWAP1 PUSH2 0x340B PUSH1 0x40 DUP4 PUSH2 0x116 JUMP JUMPDEST PUSH1 0x19 DUP3 MSTORE PUSH29 0xD49484452000000300000003008060000005702F98700000000000000 PUSH1 0x20 DUP4 ADD MSTORE JUMP JUMPDEST PUSH1 0x40 MLOAD SWAP1 PUSH2 0x3443 PUSH1 0x40 DUP4 PUSH2 0x116 JUMP JUMPDEST PUSH1 0xC DUP3 MSTORE PUSH8 0x24A2A72257213041 PUSH1 0xA1 SHL PUSH1 0x20 DUP4 ADD MSTORE JUMP JUMPDEST SWAP1 PUSH2 0x347E SWAP5 SWAP4 PUSH2 0x347E PUSH2 0x146 SWAP5 PUSH2 0x347E PUSH2 0x29B4 SWAP5 PUSH1 0x40 MLOAD SWAP10 DUP11 SWAP8 PUSH1 0x20 DUP10 ADD SWAP1 PUSH2 0x296B JUMP JUMPDEST SWAP1 PUSH2 0x296B JUMP JUMPDEST PUSH2 0x348C PUSH2 0x35AA JUMP JUMPDEST SWAP1 PUSH0 SWAP1 PUSH0 JUMPDEST PUSH1 0x30 DUP2 LT PUSH2 0x34CF JUMPI POP POP POP PUSH2 0x34B0 PUSH2 0x34AB PUSH2 0xBD4 SWAP3 PUSH2 0x39A7 JUMP JUMPDEST PUSH2 0x3ABC JUMP JUMPDEST PUSH2 0x34B8 PUSH2 0x33D6 JUMP JUMPDEST SWAP1 PUSH2 0x34C1 PUSH2 0x33FC JUMP JUMPDEST PUSH2 0x34C9 PUSH2 0x3434 JUMP JUMPDEST SWAP3 PUSH2 0x345A JUMP JUMPDEST PUSH0 PUSH2 0x34DE PUSH1 0x1 DUP6 ADD SWAP5 DUP7 PUSH2 0x26DC JUMP JUMPDEST MSTORE8 PUSH0 JUMPDEST PUSH1 0x30 DUP2 LT PUSH2 0x34F2 JUMPI POP PUSH1 0x1 ADD PUSH2 0x3491 JUMP JUMPDEST DUP1 PUSH2 0x3507 PUSH2 0x23F7 DUP5 PUSH2 0x2A1C PUSH1 0x1 SWAP6 DUP9 MLOAD PUSH2 0x32A5 JUMP JUMPDEST SWAP5 PUSH2 0x352B PUSH2 0x351B PUSH1 0x18 DUP9 SWAP1 SHR PUSH1 0xFF AND PUSH2 0x1295 JUMP JUMPDEST PUSH1 0xF8 SHL PUSH1 0x1 PUSH1 0x1 PUSH1 0xF8 SHL SUB NOT AND SWAP1 JUMP JUMPDEST PUSH0 BYTE PUSH2 0x3537 DUP3 DUP10 PUSH2 0x26DC JUMP JUMPDEST MSTORE8 PUSH2 0x354C PUSH2 0x351B PUSH1 0x10 DUP9 SWAP1 SHR PUSH2 0xFFFF AND PUSH2 0x1295 JUMP JUMPDEST PUSH0 BYTE PUSH2 0x355A DUP5 DUP4 ADD DUP10 PUSH2 0x26DC JUMP JUMPDEST MSTORE8 PUSH2 0x35A3 PUSH1 0x4 PUSH2 0x3575 PUSH2 0x351B PUSH1 0x8 DUP11 SWAP1 SHR PUSH3 0xFFFFFF AND PUSH2 0x1295 JUMP JUMPDEST SWAP3 PUSH1 0x3 DUP2 ADD SWAP4 PUSH0 BYTE PUSH2 0x358A PUSH1 0x2 DUP4 ADD DUP13 PUSH2 0x26DC JUMP JUMPDEST MSTORE8 ADD SWAP7 PUSH1 0xF8 SHL PUSH1 0x1 PUSH1 0x1 PUSH1 0xF8 SHL SUB NOT AND PUSH0 BYTE SWAP2 DUP9 PUSH2 0x26DC JUMP JUMPDEST MSTORE8 ADD PUSH2 0x34E1 JUMP JUMPDEST PUSH1 0x40 MLOAD PUSH2 0x2430 SWAP2 SWAP1 PUSH2 0x2460 PUSH2 0x35BF DUP2 DUP4 PUSH2 0x116 JUMP JUMPDEST DUP4 DUP3 MSTORE PUSH1 0x1 PUSH1 0x1 PUSH1 0x40 SHL SUB DUP3 SWAP5 GT PUSH2 0xF6 JUMPI PUSH1 0x1F NOT ADD SWAP1 CALLDATASIZE SWAP1 PUSH1 0x20 ADD CALLDATACOPY JUMP JUMPDEST SWAP1 PUSH2 0x35E8 DUP3 PUSH2 0x17E JUMP JUMPDEST PUSH2 0x35F5 PUSH1 0x40 MLOAD SWAP2 DUP3 PUSH2 0x116 JUMP JUMPDEST DUP3 DUP2 MSTORE DUP1 SWAP3 PUSH2 0x3606 PUSH1 0x1F NOT SWAP2 PUSH2 0x17E JUMP JUMPDEST ADD SWAP1 PUSH1 0x20 CALLDATASIZE SWAP2 ADD CALLDATACOPY JUMP JUMPDEST SWAP2 PUSH0 SWAP1 JUMPDEST DUP3 MLOAD DUP3 LT ISZERO PUSH2 0x370E JUMPI PUSH2 0x3627 DUP3 DUP5 PUSH2 0x1031 JUMP JUMPDEST MLOAD DUP5 MLOAD DUP2 MLOAD LT PUSH2 0x363D JUMPI JUMPDEST POP SWAP1 PUSH1 0x1 ADD SWAP1 PUSH2 0x3614 JUMP JUMPDEST PUSH1 0x1 SWAP4 PUSH0 JUMPDEST DUP3 MLOAD DUP1 DUP3 LT ISZERO PUSH2 0x3703 JUMPI PUSH2 0x2799 PUSH2 0x3666 DUP4 PUSH2 0x3661 PUSH2 0x366C SWAP5 DUP13 MLOAD PUSH2 0x1FDC JUMP JUMPDEST PUSH2 0x2256 JUMP JUMPDEST DUP10 PUSH2 0x26DC JUMP JUMPDEST PUSH2 0x3689 PUSH2 0x367C PUSH2 0x2799 DUP5 DUP8 PUSH2 0x26DC JUMP JUMPDEST PUSH1 0x1 PUSH1 0x1 PUSH1 0xF8 SHL SUB NOT AND SWAP1 JUMP JUMPDEST PUSH1 0x1 PUSH1 0x1 PUSH1 0xF8 SHL SUB NOT SWAP1 SWAP2 AND SUB PUSH2 0x36A2 JUMPI PUSH1 0x1 ADD PUSH2 0x3642 JUMP JUMPDEST POP SWAP4 POP PUSH0 SWAP3 SWAP2 SWAP3 JUMPDEST PUSH2 0x36B6 JUMPI SWAP2 SWAP1 SWAP2 PUSH2 0x3632 JUMP JUMPDEST PUSH2 0x36D0 SWAP3 SWAP4 POP PUSH2 0x36CB SWAP2 POP DUP5 MLOAD SWAP1 MLOAD SWAP1 PUSH2 0x1FDC JUMP JUMPDEST PUSH2 0x35DE JUMP JUMPDEST PUSH0 JUMPDEST DUP2 MLOAD DUP2 LT ISZERO PUSH2 0x36FE JUMPI DUP1 PUSH2 0x36EB PUSH2 0x2799 PUSH1 0x1 SWAP4 DUP8 PUSH2 0x26DC JUMP JUMPDEST PUSH0 BYTE PUSH2 0x36F7 DUP3 DUP6 PUSH2 0x26DC JUMP JUMPDEST MSTORE8 ADD PUSH2 0x36D2 JUMP JUMPDEST POP SWAP2 POP JUMP JUMPDEST POP POP SWAP4 SWAP3 SWAP2 SWAP3 PUSH2 0x36AA JUMP JUMPDEST SWAP2 POP POP JUMP JUMPDEST PUSH1 0x1F NOT DUP2 ADD MLOAD SWAP1 MLOAD PUSH1 0xC DUP2 ADD SWAP2 PUSH1 0x3F NOT ADD SWAP1 DUP3 LT PUSH2 0x141B JUMPI LT PUSH2 0x3732 JUMPI JUMP JUMPDEST PUSH1 0x40 MLOAD PUSH3 0x461BCD PUSH1 0xE5 SHL DUP2 MSTORE PUSH1 0x20 PUSH1 0x4 DUP3 ADD MSTORE PUSH1 0x27 PUSH1 0x24 DUP3 ADD MSTORE PUSH32 0x44796E616D69634275666665723A20417070656E64696E67206F7574206F6620 PUSH1 0x44 DUP3 ADD MSTORE PUSH7 0x3137BAB7323997 PUSH1 0xC9 SHL PUSH1 0x64 DUP3 ADD MSTORE PUSH1 0x84 SWAP1 REVERT JUMPDEST PUSH1 0x3F NOT PUSH1 0x1F NOT DUP3 ADD MLOAD ADD SWAP1 MLOAD SWAP2 DUP3 ADD DUP1 SWAP3 GT PUSH2 0x141B JUMPI LT PUSH2 0x3732 JUMPI JUMP JUMPDEST DUP1 ISZERO PUSH2 0x141B JUMPI PUSH0 NOT ADD SWAP1 JUMP JUMPDEST PUSH2 0x3835 PUSH2 0x381A SWAP2 PUSH2 0x2710 DUP2 MUL SWAP1 PUSH3 0xF4240 DUP1 PUSH2 0x37D7 PUSH2 0x2710 PUSH2 0x37D2 DUP4 DUP8 PUSH2 0x3C64 JUMP JUMPDEST PUSH2 0x3C6E JUMP JUMPDEST SWAP4 SMOD PUSH1 0x1 SHL SLT ISZERO PUSH2 0x38CC JUMPI JUMPDEST PUSH0 DUP3 SLT PUSH2 0x38C1 JUMPI JUMPDEST PUSH2 0x3807 PUSH2 0x37FF PUSH3 0xF4240 PUSH2 0x3827 SWAP4 SDIV PUSH2 0x3DB2 JUMP JUMPDEST SWAP3 PUSH1 0x4 PUSH2 0x3DE1 JUMP JUMPDEST PUSH2 0x347E PUSH1 0x40 MLOAD SWAP6 DUP7 SWAP5 PUSH1 0x20 DUP7 ADD SWAP1 PUSH2 0x296B JUMP JUMPDEST PUSH1 0x17 PUSH1 0xF9 SHL DUP2 MSTORE PUSH1 0x1 ADD SWAP1 JUMP JUMPDEST SUB PUSH1 0x1F NOT DUP2 ADD DUP4 MSTORE DUP3 PUSH2 0x116 JUMP JUMPDEST PUSH2 0x383F DUP2 MLOAD PUSH2 0x1FCE JUMP JUMPDEST DUP1 ISZERO ISZERO DUP1 PUSH2 0x389E JUMPI JUMPDEST ISZERO PUSH2 0x385B JUMPI PUSH2 0x3856 SWAP1 PUSH2 0x37A4 JUMP JUMPDEST PUSH2 0x383F JUMP JUMPDEST PUSH2 0xBD4 SWAP2 SWAP1 PUSH2 0x388A SWAP1 PUSH1 0x17 PUSH1 0xF9 SHL PUSH1 0x1 PUSH1 0x1 PUSH1 0xF8 SHL SUB NOT PUSH2 0x387F PUSH2 0x2799 DUP5 DUP8 PUSH2 0x26DC JUMP JUMPDEST AND EQ PUSH2 0x3890 JUMPI PUSH2 0x2248 JUMP JUMPDEST SWAP1 PUSH2 0x3E7B JUMP JUMPDEST PUSH2 0x3899 SWAP1 PUSH2 0x37A4 JUMP JUMPDEST PUSH2 0x2248 JUMP JUMPDEST POP PUSH1 0x3 PUSH1 0xFC SHL PUSH1 0x1 PUSH1 0x1 PUSH1 0xF8 SHL SUB NOT PUSH2 0x38BA PUSH2 0x2799 DUP5 DUP7 PUSH2 0x26DC JUMP JUMPDEST AND EQ PUSH2 0x3848 JUMP JUMPDEST PUSH0 SWAP2 SWAP1 SWAP2 SUB SWAP1 PUSH2 0x37EB JUMP JUMPDEST SWAP1 PUSH1 0x1 ADD SWAP1 PUSH2 0x37E3 JUMP JUMPDEST SWAP2 SWAP1 SWAP2 PUSH1 0x40 SWAP1 DUP2 MLOAD SWAP4 PUSH2 0x38E9 DUP4 DUP7 PUSH2 0x116 JUMP JUMPDEST PUSH1 0xC DUP6 MSTORE PUSH12 0x39BA37B816B1B7B637B91E91 PUSH1 0xA1 SHL PUSH1 0x20 DUP7 ADD SWAP1 DUP2 MSTORE PUSH2 0x390D DUP4 PUSH2 0x3713 JUMP JUMPDEST PUSH1 0x20 DUP7 MLOAD DUP1 SWAP3 SWAP8 ADD ADD PUSH1 0x20 DUP5 MLOAD DUP6 ADD ADD SWAP7 JUMPDEST DUP2 DUP2 LT PUSH2 0x395D JUMPI POP POP PUSH2 0x146 SWAP5 SWAP6 POP SWAP1 PUSH2 0x393E SWAP2 DUP4 MLOAD ADD DUP4 MSTORE DUP3 PUSH2 0x3174 JUMP JUMPDEST PUSH2 0x394A DUP3 MLOAD SWAP3 DUP4 PUSH2 0x116 JUMP JUMPDEST PUSH1 0x1 DUP3 MSTORE PUSH1 0x11 PUSH1 0xF9 SHL PUSH1 0x20 DUP4 ADD MSTORE PUSH2 0x2BFD JUMP JUMPDEST DUP1 MLOAD DUP9 MSTORE PUSH1 0x20 SWAP8 DUP9 ADD SWAP8 ADD PUSH2 0x391F JUMP JUMPDEST PUSH1 0x4 SWAP1 PUSH2 0x347E SWAP5 SWAP4 PUSH2 0x398C PUSH2 0x146 SWAP5 PUSH1 0x40 MLOAD SWAP8 DUP9 SWAP5 PUSH1 0x20 DUP7 ADD SWAP1 PUSH2 0x296B JUMP JUMPDEST SWAP1 PUSH4 0xFFFFFFFF PUSH1 0xE0 SHL AND DUP2 MSTORE SUB PUSH1 0x1B NOT DUP2 ADD DUP6 MSTORE ADD DUP4 PUSH2 0x116 JUMP JUMPDEST PUSH2 0xFFFF DUP2 MLOAD AND SWAP1 PUSH2 0x39C5 PUSH2 0xFFFF PUSH2 0x39BD DUP5 PUSH2 0x3C78 JUMP JUMPDEST SWAP4 NOT AND PUSH2 0x3C78 JUMP JUMPDEST PUSH1 0x40 MLOAD PUSH2 0x7801 PUSH1 0xF0 SHL PUSH1 0x20 DUP3 ADD MSTORE PUSH1 0x1 PUSH1 0xF8 SHL PUSH1 0x22 DUP3 ADD MSTORE PUSH1 0x1 PUSH1 0x1 PUSH1 0xF0 SHL SUB NOT SWAP4 DUP5 AND PUSH1 0x23 DUP3 ADD MSTORE SWAP3 AND PUSH1 0x25 DUP4 ADD MSTORE PUSH1 0x7 DUP3 MSTORE PUSH2 0x3A04 PUSH1 0x27 DUP4 PUSH2 0x116 JUMP JUMPDEST PUSH1 0x1 SWAP1 PUSH0 SWAP4 PUSH0 SWAP3 JUMPDEST DUP3 MLOAD DUP5 LT ISZERO PUSH2 0x3A61 JUMPI PUSH2 0x3A1F DUP5 DUP5 PUSH2 0x26DC JUMP JUMPDEST MLOAD PUSH1 0xF8 SHR ADD SWAP5 PUSH2 0xFFF1 DUP7 LT ISZERO PUSH2 0x3A55 JUMPI JUMPDEST DUP6 ADD SWAP3 PUSH2 0xFFF1 DUP5 LT ISZERO PUSH2 0x3A48 JUMPI JUMPDEST PUSH1 0x1 ADD SWAP3 SWAP5 PUSH2 0x3A0C JUMP JUMPDEST PUSH2 0xFFF0 NOT SWAP1 SWAP4 ADD SWAP3 PUSH2 0x3A3E JUMP JUMPDEST SWAP5 PUSH2 0xFFF0 NOT ADD SWAP5 PUSH2 0x3A30 JUMP JUMPDEST PUSH2 0xBD4 SWAP5 SWAP4 POP PUSH2 0x3A7D SWAP1 PUSH2 0x3A82 SWAP3 SWAP7 PUSH1 0x10 SHL OR PUSH4 0xFFFFFFFF AND SWAP1 JUMP JUMPDEST PUSH2 0x3D23 JUMP JUMPDEST SWAP2 PUSH2 0x396D JUMP JUMPDEST PUSH1 0x40 MLOAD PUSH1 0x1 PUSH1 0x1 PUSH1 0xE0 SHL SUB NOT SWAP2 DUP3 AND PUSH1 0x20 DUP3 ADD MSTORE SWAP2 AND PUSH1 0x24 DUP3 ADD MSTORE SWAP3 SWAP2 PUSH2 0x146 SWAP2 PUSH1 0x4 SWAP2 DUP6 SWAP2 PUSH2 0x398C SWAP1 PUSH1 0x28 DUP5 ADD SWAP1 PUSH2 0x296B JUMP JUMPDEST SWAP1 PUSH1 0x40 MLOAD PUSH4 0x12511055 PUSH1 0xE2 SHL PUSH1 0x20 DUP3 ADD MSTORE PUSH2 0x3ADE DUP2 PUSH2 0x3827 PUSH1 0x24 DUP3 ADD DUP7 PUSH2 0x296B JUMP JUMPDEST PUSH0 SWAP2 PUSH4 0xFFFFFFFF JUMPDEST DUP3 MLOAD DUP5 LT ISZERO PUSH2 0x3B4B JUMPI PUSH2 0x3B02 PUSH2 0x1295 PUSH2 0x27A7 PUSH2 0x2799 DUP8 DUP8 PUSH2 0x26DC JUMP JUMPDEST XOR SWAP3 PUSH0 JUMPDEST PUSH1 0x8 PUSH1 0xFF DUP3 AND LT PUSH2 0x3B1B JUMPI POP PUSH1 0x1 ADD SWAP3 PUSH2 0x3AE6 JUMP JUMPDEST SWAP4 PUSH1 0xFF SWAP1 PUSH1 0x1 SWAP1 DUP2 DUP1 DUP3 DUP2 SHR PUSH4 0x7FFFFFFF AND SWAP3 AND SUB PUSH2 0x3B44 JUMPI PUSH4 0xEDB88320 SWAP1 JUMPDEST XOR SWAP6 ADD AND PUSH2 0x3B06 JUMP JUMPDEST PUSH0 SWAP1 PUSH2 0x3B3B JUMP JUMPDEST SWAP2 POP SWAP3 PUSH2 0xBD4 SWAP3 POP PUSH2 0x3B74 PUSH4 0xFFFFFFFF PUSH2 0x3B6C PUSH2 0x3A7D DUP5 MLOAD PUSH4 0xFFFFFFFF AND SWAP1 JUMP JUMPDEST SWAP4 NOT AND PUSH2 0x3D23 JUMP JUMPDEST SWAP2 PUSH4 0x12511055 PUSH1 0xE2 SHL SWAP1 PUSH2 0x3A88 JUMP JUMPDEST SWAP1 PUSH1 0x60 SWAP2 DUP1 MLOAD DUP1 PUSH2 0x3B92 JUMPI POP POP JUMP JUMPDEST SWAP1 SWAP3 POP PUSH1 0x3 PUSH1 0x2 DUP3 ADD DIV PUSH1 0x2 SHL SWAP1 PUSH1 0x40 MLOAD SWAP4 PUSH32 0x4142434445464748494A4B4C4D4E4F505152535455565758595A616263646566 PUSH1 0x1F MSTORE PUSH2 0x670 PUSH32 0x6768696A6B6C6D6E6F707172737475767778797A303132333435363738392D5F XOR PUSH1 0x3F MSTORE PUSH1 0x20 DUP6 ADD SWAP2 DUP4 DUP7 ADD SWAP3 PUSH1 0x4 PUSH1 0x3 PUSH1 0x20 DUP7 ADD SWAP5 JUMPDEST ADD SWAP2 PUSH1 0x3F DUP4 MLOAD DUP2 DUP2 PUSH1 0x12 SHR AND MLOAD PUSH0 MSTORE8 DUP2 DUP2 PUSH1 0xC SHR AND MLOAD PUSH1 0x1 MSTORE8 DUP2 DUP2 PUSH1 0x6 SHR AND MLOAD PUSH1 0x2 MSTORE8 AND MLOAD PUSH1 0x3 MSTORE8 PUSH0 MLOAD DUP2 MSTORE ADD SWAP1 DUP4 DUP3 LT ISZERO PUSH2 0x3C44 JUMPI PUSH1 0x4 SWAP1 PUSH1 0x3 SWAP1 PUSH2 0x3C03 JUMP JUMPDEST POP SWAP2 POP PUSH1 0x40 PUSH0 SWAP4 ADD PUSH1 0x40 MSTORE PUSH1 0x3 PUSH2 0x3D3D PUSH1 0xF0 SHL SWAP2 MOD PUSH1 0x2 DIV DUP3 SUB MSTORE MSTORE DUP3 MSTORE JUMP JUMPDEST DUP2 ISZERO PUSH2 0x2D99 JUMPI SDIV SWAP1 JUMP JUMPDEST DUP2 ISZERO PUSH2 0x2D99 JUMPI SMOD SWAP1 JUMP JUMPDEST PUSH1 0x40 MLOAD PUSH1 0x1 PUSH1 0x1 PUSH1 0xF8 SHL SUB NOT PUSH1 0xF8 DUP4 SWAP1 SHL DUP2 AND PUSH1 0x20 DUP4 ADD SWAP1 DUP2 MSTORE PUSH1 0xF0 SWAP4 SWAP1 SWAP4 SHL AND PUSH1 0x21 DUP3 ADD MSTORE PUSH1 0x2 DUP2 MSTORE PUSH2 0x3CAD PUSH1 0x22 DUP3 PUSH2 0x116 JUMP JUMPDEST MLOAD SWAP1 MLOAD PUSH1 0x1 PUSH1 0x1 PUSH1 0xF0 SHL SUB NOT DUP2 AND SWAP2 SWAP1 PUSH1 0x2 DUP3 LT PUSH2 0x3CCA JUMPI POP POP SWAP1 JUMP JUMPDEST PUSH1 0x1 PUSH1 0x1 PUSH1 0xF0 SHL SUB NOT PUSH1 0x2 SWAP3 SWAP1 SWAP3 SUB PUSH1 0x3 SHL DUP3 SWAP1 SHL AND AND SWAP2 SWAP1 POP JUMP JUMPDEST DUP1 MLOAD PUSH1 0x20 SWAP1 SWAP2 ADD MLOAD PUSH1 0x1 PUSH1 0x1 PUSH1 0xE0 SHL SUB NOT DUP2 AND SWAP3 SWAP2 SWAP1 PUSH1 0x4 DUP3 LT PUSH2 0x3D08 JUMPI POP POP JUMP JUMPDEST PUSH1 0x1 PUSH1 0x1 PUSH1 0xE0 SHL SUB NOT PUSH1 0x4 SWAP3 SWAP1 SWAP3 SUB PUSH1 0x3 SHL DUP3 SWAP1 SHL AND AND SWAP2 POP JUMP JUMPDEST PUSH2 0xBD4 SWAP1 PUSH2 0x3D45 PUSH1 0xFF PUSH1 0x18 DUP4 SWAP1 SHR DUP2 AND JUMPDEST AND PUSH1 0xF8 SHL PUSH1 0x1 PUSH1 0x1 PUSH1 0xF8 SHL SUB NOT AND SWAP1 JUMP JUMPDEST SWAP1 PUSH2 0x3D59 PUSH1 0xFF PUSH1 0x10 DUP4 SWAP1 SHR PUSH2 0xFFFF AND PUSH2 0x3D34 JUMP JUMPDEST PUSH2 0x3D6D PUSH1 0xFF PUSH1 0x8 DUP5 SWAP1 SHR PUSH3 0xFFFFFF AND PUSH2 0x3D34 JUMP JUMPDEST PUSH1 0x40 MLOAD PUSH1 0x1 PUSH1 0x1 PUSH1 0xF8 SHL SUB NOT SWAP5 DUP6 AND PUSH1 0x20 DUP3 ADD MSTORE SWAP2 DUP5 AND PUSH1 0x21 DUP4 ADD MSTORE DUP4 AND PUSH1 0x22 DUP3 ADD MSTORE PUSH1 0xF8 SWAP2 SWAP1 SWAP2 SHL SWAP1 SWAP2 AND PUSH1 0x23 DUP3 ADD MSTORE PUSH1 0x4 DUP2 MSTORE PUSH2 0x3DAD PUSH1 0x24 DUP3 PUSH2 0x116 JUMP JUMPDEST PUSH2 0x3CE6 JUMP JUMPDEST PUSH0 DUP2 SLT ISZERO PUSH2 0x3DD8 JUMPI PUSH2 0x3DC5 SWAP1 PUSH0 SUB PUSH2 0x2A4F JUMP JUMPDEST SWAP1 PUSH1 0x1 DUP3 MLOAD SWAP3 PUSH1 0x2D DUP2 MSTORE PUSH0 NOT ADD SWAP3 ADD DUP3 MSTORE JUMP JUMPDEST PUSH2 0xBD4 SWAP1 PUSH2 0x2A4F JUMP JUMPDEST SWAP2 SWAP1 SWAP2 PUSH0 DUP4 SLT PUSH2 0x3E72 JUMPI JUMPDEST SWAP2 PUSH1 0x60 SWAP1 PUSH0 JUMPDEST DUP5 DUP2 LT PUSH2 0x3E2F JUMPI POP POP JUMPDEST DUP3 DUP2 MLOAD LT ISZERO PUSH2 0x3E2B JUMPI PUSH1 0x40 MLOAD PUSH1 0x3 PUSH1 0xFC SHL PUSH1 0x20 DUP3 ADD MSTORE SWAP1 PUSH2 0x3E26 SWAP1 DUP3 SWAP1 PUSH2 0x3827 SWAP1 PUSH1 0x21 DUP4 ADD PUSH2 0x347E JUMP JUMPDEST PUSH2 0x3DFC JUMP JUMPDEST SWAP2 POP JUMP JUMPDEST SWAP1 SWAP4 SWAP2 PUSH2 0x3E68 PUSH2 0x347E PUSH2 0x3E60 PUSH1 0x1 SWAP4 PUSH2 0x3827 PUSH2 0x3E4F PUSH2 0x1DD5 DUP12 PUSH1 0xA SWAP1 SMOD SWAP1 JUMP JUMPDEST SWAP2 PUSH1 0x40 MLOAD SWAP5 DUP6 SWAP4 PUSH1 0x20 DUP6 ADD SWAP1 PUSH2 0x296B JUMP JUMPDEST SWAP6 PUSH1 0xA SWAP1 SDIV SWAP1 JUMP JUMPDEST SWAP2 ADD SWAP4 SWAP2 SWAP4 PUSH2 0x3DF2 JUMP JUMPDEST SWAP2 PUSH0 SUB SWAP2 PUSH2 0x3DEC JUMP JUMPDEST SWAP2 SWAP1 PUSH0 SWAP3 PUSH1 0x60 SWAP4 DUP2 MLOAD DUP4 DUP2 GT ISZERO PUSH2 0x3EEB JUMPI JUMPDEST DUP1 ISZERO PUSH2 0x3EE3 JUMPI JUMPDEST POP DUP3 DUP2 LT PUSH2 0x3EA1 JUMPI POP POP POP JUMP JUMPDEST PUSH1 0x40 MLOAD SWAP5 POP SWAP2 DUP3 SWAP1 SUB SWAP2 ADD PUSH1 0x1F DUP3 ADD PUSH1 0x1F NOT AND JUMPDEST DUP2 DUP2 ADD MLOAD DUP6 DUP3 ADD MSTORE PUSH1 0x1F NOT ADD SWAP1 DUP2 ISZERO PUSH2 0x3ECE JUMPI SWAP1 PUSH2 0x3EB5 JUMP JUMPDEST POP POP PUSH1 0x40 DUP2 DUP5 ADD PUSH0 PUSH1 0x20 DUP3 ADD MSTORE ADD PUSH1 0x40 MSTORE DUP3 MSTORE JUMP JUMPDEST SWAP1 POP PUSH0 PUSH2 0x3E94 JUMP JUMPDEST SWAP3 POP DUP3 PUSH2 0x3E8D JUMP INVALID LOG2 PUSH5 0x6970667358 0x22 SLT KECCAK256 INVALID 0xA5 STOP 0x2D GT EXP 0xB3 SELFBALANCE TLOAD PUSH25 0x8582C91BD91C097E128A627DDEBB6F29D7C5C813AEB64736F PUSH13 0x634300081E0033290DECD9548B PUSH3 0xA8D603 GASLIMIT 0xA9 DUP9 CODESIZE PUSH16 0xC84BA6BC95484008F6362F93160EF3E5 PUSH4 0x0 "
		},
		"gasEstimates": {
			"creation": {
				"codeDepositCost": "3233800",
				"executionCost": "infinite",
				"totalCost": "infinite"
			},
			"external": {
				"renderSVG(uint16,uint8,uint256)": "infinite"
			},
			"internal": {
				"_getTraitBaseName(enum E_TraitsGroup,string memory,string memory[] memory)": "infinite",
				"_getTraitsAsJson(struct CachedTraitGroups memory,struct TraitsContext memory)": "infinite",
				"_isPreRenderedSpecial(uint16)": "385",
				"_prepareCache(struct CachedTraitGroups memory,struct TraitsContext memory)": "infinite",
				"_removeSuffix(string memory,string memory[] memory)": "infinite",
				"_renderPreRenderedSpecial(bytes memory,struct TraitsContext memory,struct CachedTraitGroups memory)": "infinite",
				"_stringTrait(string memory,string memory)": "infinite"
			}
		},
		"methodIdentifiers": {
			"renderSVG(uint16,uint8,uint256)": "7d134433"
		}
	},
	"abi": [
		{
			"inputs": [
				{
					"internalType": "contract IAssets",
					"name": "assetsContract",
					"type": "address"
				},
				{
					"internalType": "contract ITraits",
					"name": "traitsContract",
					"type": "address"
				}
			],
			"stateMutability": "nonpayable",
			"type": "constructor"
		},
		{
			"inputs": [],
			"name": "BackgroundTraitsArrayIsEmpty",
			"type": "error"
		},
		{
			"inputs": [
				{
					"internalType": "uint256",
					"name": "traitDataLength",
					"type": "uint256"
				}
			],
			"name": "NoPixelData",
			"type": "error"
		},
		{
			"inputs": [
				{
					"internalType": "uint16",
					"name": "colorIdx",
					"type": "uint16"
				},
				{
					"internalType": "uint256",
					"name": "paletteSize",
					"type": "uint256"
				}
			],
			"name": "PaletteIndexOutOfBounds",
			"type": "error"
		},
		{
			"inputs": [
				{
					"internalType": "uint8",
					"name": "x",
					"type": "uint8"
				},
				{
					"internalType": "uint8",
					"name": "y",
					"type": "uint8"
				}
			],
			"name": "PixelCoordinatesOutOfBounds",
			"type": "error"
		},
		{
			"inputs": [
				{
					"internalType": "uint8",
					"name": "traitGroupIndex",
					"type": "uint8"
				},
				{
					"internalType": "uint8",
					"name": "traitIndex",
					"type": "uint8"
				},
				{
					"internalType": "uint256",
					"name": "maxIndex",
					"type": "uint256"
				}
			],
			"name": "TraitIndexOutOfBounds",
			"type": "error"
		},
		{
			"inputs": [
				{
					"internalType": "uint16",
					"name": "tokenIdSeed",
					"type": "uint16"
				},
				{
					"internalType": "uint8",
					"name": "backgroundIndex",
					"type": "uint8"
				},
				{
					"internalType": "uint256",
					"name": "globalSeed",
					"type": "uint256"
				}
			],
			"name": "renderSVG",
			"outputs": [
				{
					"internalType": "string",
					"name": "svg",
					"type": "string"
				},
				{
					"internalType": "string",
					"name": "attributes",
					"type": "string"
				}
			],
			"stateMutability": "view",
			"type": "function"
		}
	]
}