{
	"data": {
		"bytecode": {
			"linkReferences": {},
			"object": "60c03461009f57601f61212238819003918201601f19168301916001600160401b038311848410176100a357808492604094855283398101031261009f578051906001600160a01b038216820361009f5760200151906001600160a01b038216820361009f5760805260a05260405161206a90816100b8823960805181818160ec015281816107490152610b41015260a05181818160ab0152610f410152f35b5f80fd5b634e487b7160e01b5f52604160045260245ffdfe6080806040526004361015610012575f80fd5b5f3560e01c908163033b42a8146100da57508063069157c0146100965763609574b51461003d575f80fd5b346100925760603660031901126100925760043561ffff811681036100925760243560ff811681036100925761008e9161007a91604435916105e6565b60405191829160208352602083019061015a565b0390f35b5f80fd5b34610092575f366003190112610092576040517f00000000000000000000000000000000000000000000000000000000000000006001600160a01b03168152602090f35b34610092575f366003190112610092577f00000000000000000000000000000000000000000000000000000000000000006001600160a01b03168152602090f35b90601b8210156101285752565b634e487b7160e01b5f52602160045260245ffd5b6017111561012857565b6009111561012857565b6004111561012857565b906103e08101918051926103e083528351809152602061040084019401905f5b8181106103da5750505060ff602082015116602083015261ffff604082015116604083015261ffff606082015116606083015263ffffffff608082015116608083015260a081015160028110156101285760a083015260c081015160058110156101285760c083015260e0810151601d8110156101285760e08301526101008101516102058161013c565b61010083015261012081015160148110156101285761012083015261014081015161022f81610146565b61014083015261016081015161024481610146565b61016083015261018081015161025981610150565b6101808301526101a08101516058811015610128576101a08301526101c08101516016811015610128576101c08301526101e081015160d4811015610128576101e0830152610200810151606a8110156101285761020083015261022081015160a981101561012857610220830152610240810151608081101561012857610240830152610260810151601a81101561012857610260830152610280810151601f811015610128576102808301526102a08101516013811015610128576102a08301526102c081015161032b81610146565b6102c08301526102e081015161034081610146565b6102e083015261030081015161035581610150565b61030083015261032081015160158110156101285761032083015261034081015160c3811015610128576103408301526103608101516085811015610128576103608301526103808101516083811015610128576103808301526103a0810151607a811015610128576103a08301526103c090810151916103d58361013c565b015290565b909194602060a060019260ff8360608b516103f685825161011b565b83838201511683860152604081015115156040860152015161041c60608501825161011b565b015116608082015201960192910161017a565b90601f8019910116810190811067ffffffffffffffff82111761045157604052565b634e487b7160e01b5f52604160045260245ffd5b604051906103e0820182811067ffffffffffffffff821117610451576040525f6103c083606081528260208201528260408201528260608201528260808201528260a08201528260c08201528260e08201528261010082015282610120820152826101408201528261016082015282610180820152826101a0820152826101c0820152826101e08201528261020082015282610220820152826102408201528261026082015282610280820152826102a0820152826102c0820152826102e08201528261030082015282610320820152826103408201528261036082015282610380820152826103a08201520152565b604051906040820182811067ffffffffffffffff821117610451576040525f6020838281520152565b604051906080820182811067ffffffffffffffff82111761045157604052815f81525f60208201525f604082015260606105b6610555565b910152565b60058210156101285752565b906105df60209194939460408452604084019061015a565b9351910152565b9190916105f1610465565b50604051916020830183811067ffffffffffffffff821117610451576040525f8352604051602081019161ffff84169361ffff60f01b9060f01b16835260228201526022815261064260428261042f565b519020825261064f610465565b9261020091604051610661848261042f565b600f8152601f1984015f5b818110611683575050855280604086015260108110611668575b505b60208320808452620100008110156106a05750610688565b6301e098d0900663f4865700018063f486570011610c2a5763ffffffff16608085015261ffff6060850151168061156757505b602083208084526126d08110156106ea57506106d3565b612710611d4c9106105f14611560575f5b6002811015610128578060a0860152155f14610f085760ff1660058110156101285761072a9060c085016105bb565b6107338361169a565b6040516309fc036960e21b8152825160048201527f00000000000000000000000000000000000000000000000000000000000000006001600160a01b03169190602081602481865afa908115610c03575f91610ecd575b5060e0850190601d8110156101285781526040516310683b7160e11b8152602081806107ba888a600484016105c7565b0381875afa908115610c03575f91610e92575b506107d78161013c565b61010086015260405163d0d4547f60e01b8152602081806107fc888a600484016105c7565b0381875afa908115610c03575f91610e57575b506014811015610128576101208601526040516332fa6d1d60e21b815284516004820152602081602481875afa908115610c03575f91610e1c575b5061085481610146565b61014086015260405163777dbab960e01b815284516004820152602081602481875afa908115610c03575f91610de1575b5061088f81610146565b610160860152604051638a88645760e01b815291602083806108b5888a600484016105c7565b0381875afa928315610c03575f93610da4575b506101a086019260588110156101285783526040516318412d0360e01b815285516004820152602081602481885afa908115610c03575f91610d69575b506016811015610128576101c0870152604051631b495a2d60e01b815285516004820152602081602481885afa908115610c03575f91610d2e575b5061094a81610150565b6101808701526040516328dcd09560e01b81526020818061096f898b600484016105c7565b0381885afa908115610c03575f91610cf3575b5060d4811015610128576101e0870152604051636177376d60e11b815290602082806109b2898b600484016105c7565b0381885afa918215610c03575f92610cb6575b50606a82101561012857860152604051637c2534b760e01b81528451600482015292602084602481845afa938415610c03575f94610c79575b5061022086019360a9811015610128578452604051634d11b62560e11b81528551600482015290602090829060249082905afa908115610c03575f91610c3e575b5060808110156101285761024086015251601d81101561012857610a6161057e565b9060ff90600283521660208201525f6040820152610a96855191602087019260ff84511691610a90838361200c565b5261200c565b5060ff81511660ff8114610c2a5760010160ff169052610ab584611af6565b610abe84611b5c565b610ac784611bb0565b610ad084611c16565b5160588110156101285715610c1c57610ae883611cd0565b610af183611d24565b5160a981101561012857610b3d9160209115610c0e57610b1084611dde565b610b1984611e32565b610b2284611f56565b60405180938192630b625f9b60e01b835286600484016105c7565b03817f00000000000000000000000000000000000000000000000000000000000000006001600160a01b03165afa908115610c03575f91610bc8575b50610b838161013c565b6103c08201526103208101516015811015610128571580610bb2575b610ba65790565b610baf81611faa565b90565b506101c081015160168110156101285715610b9f565b90506020813d602011610bfb575b81610be36020938361042f565b8101031261009257516017811015610092575f610b79565b3d9150610bd6565b6040513d5f823e3d90fd5b610c1784611d8a565b610b10565b610c2583611c7c565b610ae8565b634e487b7160e01b5f52601160045260245ffd5b90506020813d602011610c71575b81610c596020938361042f565b8101031261009257516080811015610092575f610a3f565b3d9150610c4c565b9093506020813d602011610cae575b81610c956020938361042f565b81010312610092575160a981101561009257925f6109fe565b3d9150610c88565b9091506020813d602011610ceb575b81610cd26020938361042f565b810103126100925751606a81101561009257905f6109c5565b3d9150610cc5565b90506020813d602011610d26575b81610d0e6020938361042f565b81010312610092575160d4811015610092575f610982565b3d9150610d01565b90506020813d602011610d61575b81610d496020938361042f565b8101031261009257516004811015610092575f610940565b3d9150610d3c565b90506020813d602011610d9c575b81610d846020938361042f565b8101031261009257516016811015610092575f610905565b3d9150610d77565b9092506020813d602011610dd9575b81610dc06020938361042f565b810103126100925751605881101561009257915f6108c8565b3d9150610db3565b90506020813d602011610e14575b81610dfc6020938361042f565b8101031261009257516009811015610092575f610885565b3d9150610def565b90506020813d602011610e4f575b81610e376020938361042f565b8101031261009257516009811015610092575f61084a565b3d9150610e2a565b90506020813d602011610e8a575b81610e726020938361042f565b8101031261009257516014811015610092575f61080f565b3d9150610e65565b90506020813d602011610ec5575b81610ead6020938361042f565b8101031261009257516017811015610092575f6107cd565b3d9150610ea0565b90506020813d602011610f00575b81610ee86020938361042f565b810103126100925751601d811015610092575f61078a565b3d9150610edb565b60ff915016600581101561012857610f239060c084016105bb565b610f2c8261169a565b60405162fe954960e01b8152815160048201527f00000000000000000000000000000000000000000000000000000000000000006001600160a01b031690602081602481855afa908115610c03575f91611525575b50610260840190601a8110156101285781526040516304e595ab60e51b815260208180610fb28789600484016105c7565b0381865afa908115610c03575f916114ea575b50601f8110156101285761028085015260405163fb99dc2b60e01b815260208180610ff48789600484016105c7565b0381865afa908115610c03575f916114af575b506013811015610128576102a08501526040516301c0052560e21b815283516004820152602081602481865afa908115610c03575f91611474575b5061104c81610146565b6102c085015260405163d535a07160e01b815283516004820152602081602481865afa908115610c03575f91611439575b5061108781610146565b6102e0850152604051631d6981cd60e31b815283516004820152602081602481865afa908115610c03575f916113fe575b5060158110156101285761032085015260405163367d739360e01b815283516004820152602081602481865afa908115610c03575f916113c3575b506110fd81610150565b61030085015260405163eb3ca1d760e01b8152602081806111228789600484016105c7565b0381865afa908115610c03575f91611388575b5060c38110156101285761034085015260405163b27cf70360e01b8152602081806111648789600484016105c7565b0381865afa908115610c03575f9161134d575b506085811015610128576103608501526040516309d8b84f60e41b81528351600482015291602083602481845afa928315610c03575f93611310575b5061038085019260838110156101285783526040516372d0956760e11b81528451600482015290602090829060249082905afa908115610c03575f916112d5575b50607a811015610128576103a085015251601a8110156101285761121661057e565b9060ff90600e83521660208201525f6040820152611245845191602086019260ff84511691610a90838361200c565b5060ff81511660ff8114610c2a5760010160ff169052611264836116f5565b61126d8361174d565b611276836117a1565b61127f83611807565b6112888361186d565b611291836118c1565b51608381101561012857610b3d91602091156112c7576112b08461197b565b6112b9846119cf565b6112c284611aa2565b610b22565b6112d084611927565b6112b0565b90506020813d602011611308575b816112f06020938361042f565b810103126100925751607a811015610092575f6111f4565b3d91506112e3565b9092506020813d602011611345575b8161132c6020938361042f565b810103126100925751608381101561009257915f6111b3565b3d915061131f565b90506020813d602011611380575b816113686020938361042f565b8101031261009257516085811015610092575f611177565b3d915061135b565b90506020813d6020116113bb575b816113a36020938361042f565b81010312610092575160c3811015610092575f611135565b3d9150611396565b90506020813d6020116113f6575b816113de6020938361042f565b8101031261009257516004811015610092575f6110f3565b3d91506113d1565b90506020813d602011611431575b816114196020938361042f565b8101031261009257516015811015610092575f6110b8565b3d915061140c565b90506020813d60201161146c575b816114546020938361042f565b8101031261009257516009811015610092575f61107d565b3d9150611447565b90506020813d6020116114a7575b8161148f6020938361042f565b8101031261009257516009811015610092575f611042565b3d9150611482565b90506020813d6020116114e2575b816114ca6020938361042f565b8101031261009257516013811015610092575f611007565b3d91506114bd565b90506020813d60201161151d575b816115056020938361042f565b810103126100925751601f811015610092575f610fc5565b3d91506114f8565b90506020813d602011611558575b816115406020938361042f565b810103126100925751601a811015610092575f610f81565b3d9150611533565b60016106fb565b5f19019250905061ffff8211610c2a5761ffff82166004811490811561165d575b8115611652575b8115611647575b811561163c575b8115611631575b8115611626575b506116215760ff166005811015610128576115c99060c084016105bb565b6115d28261169a565b6115da61057e565b9060ff905f83521660208201525f6040820152611608825191602084019260ff84511691610a90838361200c565b5060ff81511660ff8114610c2a5760010160ff16905290565b505090565b600d9150145f6115ab565b600b811491506115a4565b60088114915061159d565b600781149150611596565b60068114915061158f565b600581149150611588565b60010161ffff8111610c2a5761ffff1660608501525f610686565b60209061168e61057e565b8282860101520161066c565b60c08101516005811015610128576116b061057e565b60ff6116dd92600183521660208201525f60408201526020835193019260ff84511691610a90838361200c565b5060ff81511660ff8114610c2a5760010160ff169052565b61028081018051601f81101561012857156117495751601f8110156101285761171c61057e565b60ff6116dd92600f83521660208201525f60408201526020835193019260ff84511691610a90838361200c565b5050565b6102a08101805160138110156101285715611749575160138110156101285761177461057e565b60ff6116dd92601083521660208201525f60408201526020835193019260ff84511691610a90838361200c565b6102c0810180516117b181610146565b6117ba81610146565b1561174957516117c981610146565b6117d281610146565b6117da61057e565b60ff6116dd92601183521660208201525f60408201526020835193019260ff84511691610a90838361200c565b6102e08101805161181781610146565b61182081610146565b15611749575161182f81610146565b61183881610146565b61184061057e565b60ff6116dd92601283521660208201525f60408201526020835193019260ff84511691610a90838361200c565b6103208101805160158110156101285715611749575160158110156101285761189461057e565b60ff6116dd92601383521660208201525f60408201526020835193019260ff84511691610a90838361200c565b610300810180516118d181610150565b6118da81610150565b1561174957516118e981610150565b6118f281610150565b6118fa61057e565b60ff6116dd92601483521660208201525f60408201526020835193019260ff84511691610a90838361200c565b6103408101805160c38110156101285715611749575160c38110156101285761194e61057e565b60ff6116dd92601583521660208201525f60408201526020835193019260ff84511691610a90838361200c565b610360810180516085811015610128571561174957516085811015610128576119a261057e565b60ff6116dd92601683521660208201525f60408201526020835193019260ff84511691610a90838361200c565b61038081018051608381101561012857156117495751906083821015610128576119f761057e565b9160ff90601784521660208301525f6040830152611a26815192602083019360ff85511691610a90838361200c565b5060ff82511660ff8114610c2a5760010160ff168252610260810151601a81101561012857601514611a56575050565b611a5e610555565b91601a83526001602084015260ff5f199151160160ff8111610c2a5760609160ff611a9d92169060016040611a9484845161200c565b5101525161200c565b510152565b6103a081018051607a81101561012857156117495751607a81101561012857611ac961057e565b60ff6116dd92601883521660208201525f60408201526020835193019260ff84511691610a90838361200c565b61010081018051611b068161013c565b611b0f8161013c565b156117495751611b1e8161013c565b611b278161013c565b611b2f61057e565b60ff6116dd92600383521660208201525f60408201526020835193019260ff84511691610a90838361200c565b61012081018051601481101561012857156117495751601481101561012857611b8361057e565b60ff6116dd92600483521660208201525f60408201526020835193019260ff84511691610a90838361200c565b61014081018051611bc081610146565b611bc981610146565b156117495751611bd881610146565b611be181610146565b611be961057e565b60ff6116dd92600583521660208201525f60408201526020835193019260ff84511691610a90838361200c565b61016081018051611c2681610146565b611c2f81610146565b156117495751611c3e81610146565b611c4781610146565b611c4f61057e565b60ff6116dd92600683521660208201525f60408201526020835193019260ff84511691610a90838361200c565b6101c081018051601681101561012857156117495751601681101561012857611ca361057e565b60ff6116dd92600883521660208201525f60408201526020835193019260ff84511691610a90838361200c565b6101a081018051605881101561012857156117495751605881101561012857611cf761057e565b60ff6116dd92600783521660208201525f60408201526020835193019260ff84511691610a90838361200c565b61018081018051611d3481610150565b611d3d81610150565b156117495751611d4c81610150565b611d5581610150565b611d5d61057e565b60ff6116dd92600983521660208201525f60408201526020835193019260ff84511691610a90838361200c565b6101e08101805160d48110156101285715611749575160d481101561012857611db161057e565b60ff6116dd92600a83521660208201525f60408201526020835193019260ff84511691610a90838361200c565b61020081018051606a81101561012857156117495751606a81101561012857611e0561057e565b60ff6116dd92600b83521660208201525f60408201526020835193019260ff84511691610a90838361200c565b6102208101805160a9811015610128571561174957519060a982101561012857611e5a61057e565b9160ff90600c84521660208301525f6040830152611e89815192602083019360ff85511691610a90838361200c565b5060ff82511660ff8114610c2a5760010160ff16825260e081018051601d81101561012857601614611f09575b51601d81101561012857601514611ecb575050565b611ed3610555565b91601a83526002602084015260ff5f199151160160ff8111610c2a5760609160ff611a9d92169060016040611a9484845161200c565b611f11610555565b601a8152600360208201525f1960ff8551160160ff8111610c2a57611f4e60ff6060921660016040611f4483895161200c565b510152855161200c565b510152611eb6565b61024081018051608081101561012857156117495751608081101561012857611f7d61057e565b60ff6116dd92600d83521660208201525f60408201526020835193019260ff84511691610a90838361200c565b6103c081018051611fba8161013c565b611fc38161013c565b156117495751611fd28161013c565b611fdb8161013c565b611fe361057e565b60ff6116dd92601983521660208201525f60408201526020835193019260ff84511691610a9083835b80518210156120205760209160051b010190565b634e487b7160e01b5f52603260045260245ffdfea2646970667358221220f27183b498910697822909c8179c8b896ab9a7f893b44f50de6a33f518b35cbf64736f6c634300081e0033",
			"opcodes": "PUSH1 0xC0 CALLVALUE PUSH2 0x9F JUMPI PUSH1 0x1F PUSH2 0x2122 CODESIZE DUP2 SWAP1 SUB SWAP2 DUP3 ADD PUSH1 0x1F NOT AND DUP4 ADD SWAP2 PUSH1 0x1 PUSH1 0x1 PUSH1 0x40 SHL SUB DUP4 GT DUP5 DUP5 LT OR PUSH2 0xA3 JUMPI DUP1 DUP5 SWAP3 PUSH1 0x40 SWAP5 DUP6 MSTORE DUP4 CODECOPY DUP2 ADD SUB SLT PUSH2 0x9F JUMPI DUP1 MLOAD SWAP1 PUSH1 0x1 PUSH1 0x1 PUSH1 0xA0 SHL SUB DUP3 AND DUP3 SUB PUSH2 0x9F JUMPI PUSH1 0x20 ADD MLOAD SWAP1 PUSH1 0x1 PUSH1 0x1 PUSH1 0xA0 SHL SUB DUP3 AND DUP3 SUB PUSH2 0x9F JUMPI PUSH1 0x80 MSTORE PUSH1 0xA0 MSTORE PUSH1 0x40 MLOAD PUSH2 0x206A SWAP1 DUP2 PUSH2 0xB8 DUP3 CODECOPY PUSH1 0x80 MLOAD DUP2 DUP2 DUP2 PUSH1 0xEC ADD MSTORE DUP2 DUP2 PUSH2 0x749 ADD MSTORE PUSH2 0xB41 ADD MSTORE PUSH1 0xA0 MLOAD DUP2 DUP2 DUP2 PUSH1 0xAB ADD MSTORE PUSH2 0xF41 ADD MSTORE RETURN JUMPDEST PUSH0 DUP1 REVERT JUMPDEST PUSH4 0x4E487B71 PUSH1 0xE0 SHL PUSH0 MSTORE PUSH1 0x41 PUSH1 0x4 MSTORE PUSH1 0x24 PUSH0 REVERT INVALID PUSH1 0x80 DUP1 PUSH1 0x40 MSTORE PUSH1 0x4 CALLDATASIZE LT ISZERO PUSH2 0x12 JUMPI PUSH0 DUP1 REVERT JUMPDEST PUSH0 CALLDATALOAD PUSH1 0xE0 SHR SWAP1 DUP2 PUSH4 0x33B42A8 EQ PUSH2 0xDA JUMPI POP DUP1 PUSH4 0x69157C0 EQ PUSH2 0x96 JUMPI PUSH4 0x609574B5 EQ PUSH2 0x3D JUMPI PUSH0 DUP1 REVERT JUMPDEST CALLVALUE PUSH2 0x92 JUMPI PUSH1 0x60 CALLDATASIZE PUSH1 0x3 NOT ADD SLT PUSH2 0x92 JUMPI PUSH1 0x4 CALLDATALOAD PUSH2 0xFFFF DUP2 AND DUP2 SUB PUSH2 0x92 JUMPI PUSH1 0x24 CALLDATALOAD PUSH1 0xFF DUP2 AND DUP2 SUB PUSH2 0x92 JUMPI PUSH2 0x8E SWAP2 PUSH2 0x7A SWAP2 PUSH1 0x44 CALLDATALOAD SWAP2 PUSH2 0x5E6 JUMP JUMPDEST PUSH1 0x40 MLOAD SWAP2 DUP3 SWAP2 PUSH1 0x20 DUP4 MSTORE PUSH1 0x20 DUP4 ADD SWAP1 PUSH2 0x15A JUMP JUMPDEST SUB SWAP1 RETURN JUMPDEST PUSH0 DUP1 REVERT JUMPDEST CALLVALUE PUSH2 0x92 JUMPI PUSH0 CALLDATASIZE PUSH1 0x3 NOT ADD SLT PUSH2 0x92 JUMPI PUSH1 0x40 MLOAD PUSH32 0x0 PUSH1 0x1 PUSH1 0x1 PUSH1 0xA0 SHL SUB AND DUP2 MSTORE PUSH1 0x20 SWAP1 RETURN JUMPDEST CALLVALUE PUSH2 0x92 JUMPI PUSH0 CALLDATASIZE PUSH1 0x3 NOT ADD SLT PUSH2 0x92 JUMPI PUSH32 0x0 PUSH1 0x1 PUSH1 0x1 PUSH1 0xA0 SHL SUB AND DUP2 MSTORE PUSH1 0x20 SWAP1 RETURN JUMPDEST SWAP1 PUSH1 0x1B DUP3 LT ISZERO PUSH2 0x128 JUMPI MSTORE JUMP JUMPDEST PUSH4 0x4E487B71 PUSH1 0xE0 SHL PUSH0 MSTORE PUSH1 0x21 PUSH1 0x4 MSTORE PUSH1 0x24 PUSH0 REVERT JUMPDEST PUSH1 0x17 GT ISZERO PUSH2 0x128 JUMPI JUMP JUMPDEST PUSH1 0x9 GT ISZERO PUSH2 0x128 JUMPI JUMP JUMPDEST PUSH1 0x4 GT ISZERO PUSH2 0x128 JUMPI JUMP JUMPDEST SWAP1 PUSH2 0x3E0 DUP2 ADD SWAP2 DUP1 MLOAD SWAP3 PUSH2 0x3E0 DUP4 MSTORE DUP4 MLOAD DUP1 SWAP2 MSTORE PUSH1 0x20 PUSH2 0x400 DUP5 ADD SWAP5 ADD SWAP1 PUSH0 JUMPDEST DUP2 DUP2 LT PUSH2 0x3DA JUMPI POP POP POP PUSH1 0xFF PUSH1 0x20 DUP3 ADD MLOAD AND PUSH1 0x20 DUP4 ADD MSTORE PUSH2 0xFFFF PUSH1 0x40 DUP3 ADD MLOAD AND PUSH1 0x40 DUP4 ADD MSTORE PUSH2 0xFFFF PUSH1 0x60 DUP3 ADD MLOAD AND PUSH1 0x60 DUP4 ADD MSTORE PUSH4 0xFFFFFFFF PUSH1 0x80 DUP3 ADD MLOAD AND PUSH1 0x80 DUP4 ADD MSTORE PUSH1 0xA0 DUP2 ADD MLOAD PUSH1 0x2 DUP2 LT ISZERO PUSH2 0x128 JUMPI PUSH1 0xA0 DUP4 ADD MSTORE PUSH1 0xC0 DUP2 ADD MLOAD PUSH1 0x5 DUP2 LT ISZERO PUSH2 0x128 JUMPI PUSH1 0xC0 DUP4 ADD MSTORE PUSH1 0xE0 DUP2 ADD MLOAD PUSH1 0x1D DUP2 LT ISZERO PUSH2 0x128 JUMPI PUSH1 0xE0 DUP4 ADD MSTORE PUSH2 0x100 DUP2 ADD MLOAD PUSH2 0x205 DUP2 PUSH2 0x13C JUMP JUMPDEST PUSH2 0x100 DUP4 ADD MSTORE PUSH2 0x120 DUP2 ADD MLOAD PUSH1 0x14 DUP2 LT ISZERO PUSH2 0x128 JUMPI PUSH2 0x120 DUP4 ADD MSTORE PUSH2 0x140 DUP2 ADD MLOAD PUSH2 0x22F DUP2 PUSH2 0x146 JUMP JUMPDEST PUSH2 0x140 DUP4 ADD MSTORE PUSH2 0x160 DUP2 ADD MLOAD PUSH2 0x244 DUP2 PUSH2 0x146 JUMP JUMPDEST PUSH2 0x160 DUP4 ADD MSTORE PUSH2 0x180 DUP2 ADD MLOAD PUSH2 0x259 DUP2 PUSH2 0x150 JUMP JUMPDEST PUSH2 0x180 DUP4 ADD MSTORE PUSH2 0x1A0 DUP2 ADD MLOAD PUSH1 0x58 DUP2 LT ISZERO PUSH2 0x128 JUMPI PUSH2 0x1A0 DUP4 ADD MSTORE PUSH2 0x1C0 DUP2 ADD MLOAD PUSH1 0x16 DUP2 LT ISZERO PUSH2 0x128 JUMPI PUSH2 0x1C0 DUP4 ADD MSTORE PUSH2 0x1E0 DUP2 ADD MLOAD PUSH1 0xD4 DUP2 LT ISZERO PUSH2 0x128 JUMPI PUSH2 0x1E0 DUP4 ADD MSTORE PUSH2 0x200 DUP2 ADD MLOAD PUSH1 0x6A DUP2 LT ISZERO PUSH2 0x128 JUMPI PUSH2 0x200 DUP4 ADD MSTORE PUSH2 0x220 DUP2 ADD MLOAD PUSH1 0xA9 DUP2 LT ISZERO PUSH2 0x128 JUMPI PUSH2 0x220 DUP4 ADD MSTORE PUSH2 0x240 DUP2 ADD MLOAD PUSH1 0x80 DUP2 LT ISZERO PUSH2 0x128 JUMPI PUSH2 0x240 DUP4 ADD MSTORE PUSH2 0x260 DUP2 ADD MLOAD PUSH1 0x1A DUP2 LT ISZERO PUSH2 0x128 JUMPI PUSH2 0x260 DUP4 ADD MSTORE PUSH2 0x280 DUP2 ADD MLOAD PUSH1 0x1F DUP2 LT ISZERO PUSH2 0x128 JUMPI PUSH2 0x280 DUP4 ADD MSTORE PUSH2 0x2A0 DUP2 ADD MLOAD PUSH1 0x13 DUP2 LT ISZERO PUSH2 0x128 JUMPI PUSH2 0x2A0 DUP4 ADD MSTORE PUSH2 0x2C0 DUP2 ADD MLOAD PUSH2 0x32B DUP2 PUSH2 0x146 JUMP JUMPDEST PUSH2 0x2C0 DUP4 ADD MSTORE PUSH2 0x2E0 DUP2 ADD MLOAD PUSH2 0x340 DUP2 PUSH2 0x146 JUMP JUMPDEST PUSH2 0x2E0 DUP4 ADD MSTORE PUSH2 0x300 DUP2 ADD MLOAD PUSH2 0x355 DUP2 PUSH2 0x150 JUMP JUMPDEST PUSH2 0x300 DUP4 ADD MSTORE PUSH2 0x320 DUP2 ADD MLOAD PUSH1 0x15 DUP2 LT ISZERO PUSH2 0x128 JUMPI PUSH2 0x320 DUP4 ADD MSTORE PUSH2 0x340 DUP2 ADD MLOAD PUSH1 0xC3 DUP2 LT ISZERO PUSH2 0x128 JUMPI PUSH2 0x340 DUP4 ADD MSTORE PUSH2 0x360 DUP2 ADD MLOAD PUSH1 0x85 DUP2 LT ISZERO PUSH2 0x128 JUMPI PUSH2 0x360 DUP4 ADD MSTORE PUSH2 0x380 DUP2 ADD MLOAD PUSH1 0x83 DUP2 LT ISZERO PUSH2 0x128 JUMPI PUSH2 0x380 DUP4 ADD MSTORE PUSH2 0x3A0 DUP2 ADD MLOAD PUSH1 0x7A DUP2 LT ISZERO PUSH2 0x128 JUMPI PUSH2 0x3A0 DUP4 ADD MSTORE PUSH2 0x3C0 SWAP1 DUP2 ADD MLOAD SWAP2 PUSH2 0x3D5 DUP4 PUSH2 0x13C JUMP JUMPDEST ADD MSTORE SWAP1 JUMP JUMPDEST SWAP1 SWAP2 SWAP5 PUSH1 0x20 PUSH1 0xA0 PUSH1 0x1 SWAP3 PUSH1 0xFF DUP4 PUSH1 0x60 DUP12 MLOAD PUSH2 0x3F6 DUP6 DUP3 MLOAD PUSH2 0x11B JUMP JUMPDEST DUP4 DUP4 DUP3 ADD MLOAD AND DUP4 DUP7 ADD MSTORE PUSH1 0x40 DUP2 ADD MLOAD ISZERO ISZERO PUSH1 0x40 DUP7 ADD MSTORE ADD MLOAD PUSH2 0x41C PUSH1 0x60 DUP6 ADD DUP3 MLOAD PUSH2 0x11B JUMP JUMPDEST ADD MLOAD AND PUSH1 0x80 DUP3 ADD MSTORE ADD SWAP7 ADD SWAP3 SWAP2 ADD PUSH2 0x17A JUMP JUMPDEST SWAP1 PUSH1 0x1F DUP1 NOT SWAP2 ADD AND DUP2 ADD SWAP1 DUP2 LT PUSH8 0xFFFFFFFFFFFFFFFF DUP3 GT OR PUSH2 0x451 JUMPI PUSH1 0x40 MSTORE JUMP JUMPDEST PUSH4 0x4E487B71 PUSH1 0xE0 SHL PUSH0 MSTORE PUSH1 0x41 PUSH1 0x4 MSTORE PUSH1 0x24 PUSH0 REVERT JUMPDEST PUSH1 0x40 MLOAD SWAP1 PUSH2 0x3E0 DUP3 ADD DUP3 DUP2 LT PUSH8 0xFFFFFFFFFFFFFFFF DUP3 GT OR PUSH2 0x451 JUMPI PUSH1 0x40 MSTORE PUSH0 PUSH2 0x3C0 DUP4 PUSH1 0x60 DUP2 MSTORE DUP3 PUSH1 0x20 DUP3 ADD MSTORE DUP3 PUSH1 0x40 DUP3 ADD MSTORE DUP3 PUSH1 0x60 DUP3 ADD MSTORE DUP3 PUSH1 0x80 DUP3 ADD MSTORE DUP3 PUSH1 0xA0 DUP3 ADD MSTORE DUP3 PUSH1 0xC0 DUP3 ADD MSTORE DUP3 PUSH1 0xE0 DUP3 ADD MSTORE DUP3 PUSH2 0x100 DUP3 ADD MSTORE DUP3 PUSH2 0x120 DUP3 ADD MSTORE DUP3 PUSH2 0x140 DUP3 ADD MSTORE DUP3 PUSH2 0x160 DUP3 ADD MSTORE DUP3 PUSH2 0x180 DUP3 ADD MSTORE DUP3 PUSH2 0x1A0 DUP3 ADD MSTORE DUP3 PUSH2 0x1C0 DUP3 ADD MSTORE DUP3 PUSH2 0x1E0 DUP3 ADD MSTORE DUP3 PUSH2 0x200 DUP3 ADD MSTORE DUP3 PUSH2 0x220 DUP3 ADD MSTORE DUP3 PUSH2 0x240 DUP3 ADD MSTORE DUP3 PUSH2 0x260 DUP3 ADD MSTORE DUP3 PUSH2 0x280 DUP3 ADD MSTORE DUP3 PUSH2 0x2A0 DUP3 ADD MSTORE DUP3 PUSH2 0x2C0 DUP3 ADD MSTORE DUP3 PUSH2 0x2E0 DUP3 ADD MSTORE DUP3 PUSH2 0x300 DUP3 ADD MSTORE DUP3 PUSH2 0x320 DUP3 ADD MSTORE DUP3 PUSH2 0x340 DUP3 ADD MSTORE DUP3 PUSH2 0x360 DUP3 ADD MSTORE DUP3 PUSH2 0x380 DUP3 ADD MSTORE DUP3 PUSH2 0x3A0 DUP3 ADD MSTORE ADD MSTORE JUMP JUMPDEST PUSH1 0x40 MLOAD SWAP1 PUSH1 0x40 DUP3 ADD DUP3 DUP2 LT PUSH8 0xFFFFFFFFFFFFFFFF DUP3 GT OR PUSH2 0x451 JUMPI PUSH1 0x40 MSTORE PUSH0 PUSH1 0x20 DUP4 DUP3 DUP2 MSTORE ADD MSTORE JUMP JUMPDEST PUSH1 0x40 MLOAD SWAP1 PUSH1 0x80 DUP3 ADD DUP3 DUP2 LT PUSH8 0xFFFFFFFFFFFFFFFF DUP3 GT OR PUSH2 0x451 JUMPI PUSH1 0x40 MSTORE DUP2 PUSH0 DUP2 MSTORE PUSH0 PUSH1 0x20 DUP3 ADD MSTORE PUSH0 PUSH1 0x40 DUP3 ADD MSTORE PUSH1 0x60 PUSH2 0x5B6 PUSH2 0x555 JUMP JUMPDEST SWAP2 ADD MSTORE JUMP JUMPDEST PUSH1 0x5 DUP3 LT ISZERO PUSH2 0x128 JUMPI MSTORE JUMP JUMPDEST SWAP1 PUSH2 0x5DF PUSH1 0x20 SWAP2 SWAP5 SWAP4 SWAP5 PUSH1 0x40 DUP5 MSTORE PUSH1 0x40 DUP5 ADD SWAP1 PUSH2 0x15A JUMP JUMPDEST SWAP4 MLOAD SWAP2 ADD MSTORE JUMP JUMPDEST SWAP2 SWAP1 SWAP2 PUSH2 0x5F1 PUSH2 0x465 JUMP JUMPDEST POP PUSH1 0x40 MLOAD SWAP2 PUSH1 0x20 DUP4 ADD DUP4 DUP2 LT PUSH8 0xFFFFFFFFFFFFFFFF DUP3 GT OR PUSH2 0x451 JUMPI PUSH1 0x40 MSTORE PUSH0 DUP4 MSTORE PUSH1 0x40 MLOAD PUSH1 0x20 DUP2 ADD SWAP2 PUSH2 0xFFFF DUP5 AND SWAP4 PUSH2 0xFFFF PUSH1 0xF0 SHL SWAP1 PUSH1 0xF0 SHL AND DUP4 MSTORE PUSH1 0x22 DUP3 ADD MSTORE PUSH1 0x22 DUP2 MSTORE PUSH2 0x642 PUSH1 0x42 DUP3 PUSH2 0x42F JUMP JUMPDEST MLOAD SWAP1 KECCAK256 DUP3 MSTORE PUSH2 0x64F PUSH2 0x465 JUMP JUMPDEST SWAP3 PUSH2 0x200 SWAP2 PUSH1 0x40 MLOAD PUSH2 0x661 DUP5 DUP3 PUSH2 0x42F JUMP JUMPDEST PUSH1 0xF DUP2 MSTORE PUSH1 0x1F NOT DUP5 ADD PUSH0 JUMPDEST DUP2 DUP2 LT PUSH2 0x1683 JUMPI POP POP DUP6 MSTORE DUP1 PUSH1 0x40 DUP7 ADD MSTORE PUSH1 0x10 DUP2 LT PUSH2 0x1668 JUMPI JUMPDEST POP JUMPDEST PUSH1 0x20 DUP4 KECCAK256 DUP1 DUP5 MSTORE PUSH3 0x10000 DUP2 LT ISZERO PUSH2 0x6A0 JUMPI POP PUSH2 0x688 JUMP JUMPDEST PUSH4 0x1E098D0 SWAP1 MOD PUSH4 0xF4865700 ADD DUP1 PUSH4 0xF4865700 GT PUSH2 0xC2A JUMPI PUSH4 0xFFFFFFFF AND PUSH1 0x80 DUP6 ADD MSTORE PUSH2 0xFFFF PUSH1 0x60 DUP6 ADD MLOAD AND DUP1 PUSH2 0x1567 JUMPI POP JUMPDEST PUSH1 0x20 DUP4 KECCAK256 DUP1 DUP5 MSTORE PUSH2 0x26D0 DUP2 LT ISZERO PUSH2 0x6EA JUMPI POP PUSH2 0x6D3 JUMP JUMPDEST PUSH2 0x2710 PUSH2 0x1D4C SWAP2 MOD LT PUSH0 EQ PUSH2 0x1560 JUMPI PUSH0 JUMPDEST PUSH1 0x2 DUP2 LT ISZERO PUSH2 0x128 JUMPI DUP1 PUSH1 0xA0 DUP7 ADD MSTORE ISZERO PUSH0 EQ PUSH2 0xF08 JUMPI PUSH1 0xFF AND PUSH1 0x5 DUP2 LT ISZERO PUSH2 0x128 JUMPI PUSH2 0x72A SWAP1 PUSH1 0xC0 DUP6 ADD PUSH2 0x5BB JUMP JUMPDEST PUSH2 0x733 DUP4 PUSH2 0x169A JUMP JUMPDEST PUSH1 0x40 MLOAD PUSH4 0x9FC0369 PUSH1 0xE2 SHL DUP2 MSTORE DUP3 MLOAD PUSH1 0x4 DUP3 ADD MSTORE PUSH32 0x0 PUSH1 0x1 PUSH1 0x1 PUSH1 0xA0 SHL SUB AND SWAP2 SWAP1 PUSH1 0x20 DUP2 PUSH1 0x24 DUP2 DUP7 GAS STATICCALL SWAP1 DUP2 ISZERO PUSH2 0xC03 JUMPI PUSH0 SWAP2 PUSH2 0xECD JUMPI JUMPDEST POP PUSH1 0xE0 DUP6 ADD SWAP1 PUSH1 0x1D DUP2 LT ISZERO PUSH2 0x128 JUMPI DUP2 MSTORE PUSH1 0x40 MLOAD PUSH4 0x10683B71 PUSH1 0xE1 SHL DUP2 MSTORE PUSH1 0x20 DUP2 DUP1 PUSH2 0x7BA DUP9 DUP11 PUSH1 0x4 DUP5 ADD PUSH2 0x5C7 JUMP JUMPDEST SUB DUP2 DUP8 GAS STATICCALL SWAP1 DUP2 ISZERO PUSH2 0xC03 JUMPI PUSH0 SWAP2 PUSH2 0xE92 JUMPI JUMPDEST POP PUSH2 0x7D7 DUP2 PUSH2 0x13C JUMP JUMPDEST PUSH2 0x100 DUP7 ADD MSTORE PUSH1 0x40 MLOAD PUSH4 0xD0D4547F PUSH1 0xE0 SHL DUP2 MSTORE PUSH1 0x20 DUP2 DUP1 PUSH2 0x7FC DUP9 DUP11 PUSH1 0x4 DUP5 ADD PUSH2 0x5C7 JUMP JUMPDEST SUB DUP2 DUP8 GAS STATICCALL SWAP1 DUP2 ISZERO PUSH2 0xC03 JUMPI PUSH0 SWAP2 PUSH2 0xE57 JUMPI JUMPDEST POP PUSH1 0x14 DUP2 LT ISZERO PUSH2 0x128 JUMPI PUSH2 0x120 DUP7 ADD MSTORE PUSH1 0x40 MLOAD PUSH4 0x32FA6D1D PUSH1 0xE2 SHL DUP2 MSTORE DUP5 MLOAD PUSH1 0x4 DUP3 ADD MSTORE PUSH1 0x20 DUP2 PUSH1 0x24 DUP2 DUP8 GAS STATICCALL SWAP1 DUP2 ISZERO PUSH2 0xC03 JUMPI PUSH0 SWAP2 PUSH2 0xE1C JUMPI JUMPDEST POP PUSH2 0x854 DUP2 PUSH2 0x146 JUMP JUMPDEST PUSH2 0x140 DUP7 ADD MSTORE PUSH1 0x40 MLOAD PUSH4 0x777DBAB9 PUSH1 0xE0 SHL DUP2 MSTORE DUP5 MLOAD PUSH1 0x4 DUP3 ADD MSTORE PUSH1 0x20 DUP2 PUSH1 0x24 DUP2 DUP8 GAS STATICCALL SWAP1 DUP2 ISZERO PUSH2 0xC03 JUMPI PUSH0 SWAP2 PUSH2 0xDE1 JUMPI JUMPDEST POP PUSH2 0x88F DUP2 PUSH2 0x146 JUMP JUMPDEST PUSH2 0x160 DUP7 ADD MSTORE PUSH1 0x40 MLOAD PUSH4 0x8A886457 PUSH1 0xE0 SHL DUP2 MSTORE SWAP2 PUSH1 0x20 DUP4 DUP1 PUSH2 0x8B5 DUP9 DUP11 PUSH1 0x4 DUP5 ADD PUSH2 0x5C7 JUMP JUMPDEST SUB DUP2 DUP8 GAS STATICCALL SWAP3 DUP4 ISZERO PUSH2 0xC03 JUMPI PUSH0 SWAP4 PUSH2 0xDA4 JUMPI JUMPDEST POP PUSH2 0x1A0 DUP7 ADD SWAP3 PUSH1 0x58 DUP2 LT ISZERO PUSH2 0x128 JUMPI DUP4 MSTORE PUSH1 0x40 MLOAD PUSH4 0x18412D03 PUSH1 0xE0 SHL DUP2 MSTORE DUP6 MLOAD PUSH1 0x4 DUP3 ADD MSTORE PUSH1 0x20 DUP2 PUSH1 0x24 DUP2 DUP9 GAS STATICCALL SWAP1 DUP2 ISZERO PUSH2 0xC03 JUMPI PUSH0 SWAP2 PUSH2 0xD69 JUMPI JUMPDEST POP PUSH1 0x16 DUP2 LT ISZERO PUSH2 0x128 JUMPI PUSH2 0x1C0 DUP8 ADD MSTORE PUSH1 0x40 MLOAD PUSH4 0x1B495A2D PUSH1 0xE0 SHL DUP2 MSTORE DUP6 MLOAD PUSH1 0x4 DUP3 ADD MSTORE PUSH1 0x20 DUP2 PUSH1 0x24 DUP2 DUP9 GAS STATICCALL SWAP1 DUP2 ISZERO PUSH2 0xC03 JUMPI PUSH0 SWAP2 PUSH2 0xD2E JUMPI JUMPDEST POP PUSH2 0x94A DUP2 PUSH2 0x150 JUMP JUMPDEST PUSH2 0x180 DUP8 ADD MSTORE PUSH1 0x40 MLOAD PUSH4 0x28DCD095 PUSH1 0xE0 SHL DUP2 MSTORE PUSH1 0x20 DUP2 DUP1 PUSH2 0x96F DUP10 DUP12 PUSH1 0x4 DUP5 ADD PUSH2 0x5C7 JUMP JUMPDEST SUB DUP2 DUP9 GAS STATICCALL SWAP1 DUP2 ISZERO PUSH2 0xC03 JUMPI PUSH0 SWAP2 PUSH2 0xCF3 JUMPI JUMPDEST POP PUSH1 0xD4 DUP2 LT ISZERO PUSH2 0x128 JUMPI PUSH2 0x1E0 DUP8 ADD MSTORE PUSH1 0x40 MLOAD PUSH4 0x6177376D PUSH1 0xE1 SHL DUP2 MSTORE SWAP1 PUSH1 0x20 DUP3 DUP1 PUSH2 0x9B2 DUP10 DUP12 PUSH1 0x4 DUP5 ADD PUSH2 0x5C7 JUMP JUMPDEST SUB DUP2 DUP9 GAS STATICCALL SWAP2 DUP3 ISZERO PUSH2 0xC03 JUMPI PUSH0 SWAP3 PUSH2 0xCB6 JUMPI JUMPDEST POP PUSH1 0x6A DUP3 LT ISZERO PUSH2 0x128 JUMPI DUP7 ADD MSTORE PUSH1 0x40 MLOAD PUSH4 0x7C2534B7 PUSH1 0xE0 SHL DUP2 MSTORE DUP5 MLOAD PUSH1 0x4 DUP3 ADD MSTORE SWAP3 PUSH1 0x20 DUP5 PUSH1 0x24 DUP2 DUP5 GAS STATICCALL SWAP4 DUP5 ISZERO PUSH2 0xC03 JUMPI PUSH0 SWAP5 PUSH2 0xC79 JUMPI JUMPDEST POP PUSH2 0x220 DUP7 ADD SWAP4 PUSH1 0xA9 DUP2 LT ISZERO PUSH2 0x128 JUMPI DUP5 MSTORE PUSH1 0x40 MLOAD PUSH4 0x4D11B625 PUSH1 0xE1 SHL DUP2 MSTORE DUP6 MLOAD PUSH1 0x4 DUP3 ADD MSTORE SWAP1 PUSH1 0x20 SWAP1 DUP3 SWAP1 PUSH1 0x24 SWAP1 DUP3 SWAP1 GAS STATICCALL SWAP1 DUP2 ISZERO PUSH2 0xC03 JUMPI PUSH0 SWAP2 PUSH2 0xC3E JUMPI JUMPDEST POP PUSH1 0x80 DUP2 LT ISZERO PUSH2 0x128 JUMPI PUSH2 0x240 DUP7 ADD MSTORE MLOAD PUSH1 0x1D DUP2 LT ISZERO PUSH2 0x128 JUMPI PUSH2 0xA61 PUSH2 0x57E JUMP JUMPDEST SWAP1 PUSH1 0xFF SWAP1 PUSH1 0x2 DUP4 MSTORE AND PUSH1 0x20 DUP3 ADD MSTORE PUSH0 PUSH1 0x40 DUP3 ADD MSTORE PUSH2 0xA96 DUP6 MLOAD SWAP2 PUSH1 0x20 DUP8 ADD SWAP3 PUSH1 0xFF DUP5 MLOAD AND SWAP2 PUSH2 0xA90 DUP4 DUP4 PUSH2 0x200C JUMP JUMPDEST MSTORE PUSH2 0x200C JUMP JUMPDEST POP PUSH1 0xFF DUP2 MLOAD AND PUSH1 0xFF DUP2 EQ PUSH2 0xC2A JUMPI PUSH1 0x1 ADD PUSH1 0xFF AND SWAP1 MSTORE PUSH2 0xAB5 DUP5 PUSH2 0x1AF6 JUMP JUMPDEST PUSH2 0xABE DUP5 PUSH2 0x1B5C JUMP JUMPDEST PUSH2 0xAC7 DUP5 PUSH2 0x1BB0 JUMP JUMPDEST PUSH2 0xAD0 DUP5 PUSH2 0x1C16 JUMP JUMPDEST MLOAD PUSH1 0x58 DUP2 LT ISZERO PUSH2 0x128 JUMPI ISZERO PUSH2 0xC1C JUMPI PUSH2 0xAE8 DUP4 PUSH2 0x1CD0 JUMP JUMPDEST PUSH2 0xAF1 DUP4 PUSH2 0x1D24 JUMP JUMPDEST MLOAD PUSH1 0xA9 DUP2 LT ISZERO PUSH2 0x128 JUMPI PUSH2 0xB3D SWAP2 PUSH1 0x20 SWAP2 ISZERO PUSH2 0xC0E JUMPI PUSH2 0xB10 DUP5 PUSH2 0x1DDE JUMP JUMPDEST PUSH2 0xB19 DUP5 PUSH2 0x1E32 JUMP JUMPDEST PUSH2 0xB22 DUP5 PUSH2 0x1F56 JUMP JUMPDEST PUSH1 0x40 MLOAD DUP1 SWAP4 DUP2 SWAP3 PUSH4 0xB625F9B PUSH1 0xE0 SHL DUP4 MSTORE DUP7 PUSH1 0x4 DUP5 ADD PUSH2 0x5C7 JUMP JUMPDEST SUB DUP2 PUSH32 0x0 PUSH1 0x1 PUSH1 0x1 PUSH1 0xA0 SHL SUB AND GAS STATICCALL SWAP1 DUP2 ISZERO PUSH2 0xC03 JUMPI PUSH0 SWAP2 PUSH2 0xBC8 JUMPI JUMPDEST POP PUSH2 0xB83 DUP2 PUSH2 0x13C JUMP JUMPDEST PUSH2 0x3C0 DUP3 ADD MSTORE PUSH2 0x320 DUP2 ADD MLOAD PUSH1 0x15 DUP2 LT ISZERO PUSH2 0x128 JUMPI ISZERO DUP1 PUSH2 0xBB2 JUMPI JUMPDEST PUSH2 0xBA6 JUMPI SWAP1 JUMP JUMPDEST PUSH2 0xBAF DUP2 PUSH2 0x1FAA JUMP JUMPDEST SWAP1 JUMP JUMPDEST POP PUSH2 0x1C0 DUP2 ADD MLOAD PUSH1 0x16 DUP2 LT ISZERO PUSH2 0x128 JUMPI ISZERO PUSH2 0xB9F JUMP JUMPDEST SWAP1 POP PUSH1 0x20 DUP2 RETURNDATASIZE PUSH1 0x20 GT PUSH2 0xBFB JUMPI JUMPDEST DUP2 PUSH2 0xBE3 PUSH1 0x20 SWAP4 DUP4 PUSH2 0x42F JUMP JUMPDEST DUP2 ADD SUB SLT PUSH2 0x92 JUMPI MLOAD PUSH1 0x17 DUP2 LT ISZERO PUSH2 0x92 JUMPI PUSH0 PUSH2 0xB79 JUMP JUMPDEST RETURNDATASIZE SWAP2 POP PUSH2 0xBD6 JUMP JUMPDEST PUSH1 0x40 MLOAD RETURNDATASIZE PUSH0 DUP3 RETURNDATACOPY RETURNDATASIZE SWAP1 REVERT JUMPDEST PUSH2 0xC17 DUP5 PUSH2 0x1D8A JUMP JUMPDEST PUSH2 0xB10 JUMP JUMPDEST PUSH2 0xC25 DUP4 PUSH2 0x1C7C JUMP JUMPDEST PUSH2 0xAE8 JUMP JUMPDEST PUSH4 0x4E487B71 PUSH1 0xE0 SHL PUSH0 MSTORE PUSH1 0x11 PUSH1 0x4 MSTORE PUSH1 0x24 PUSH0 REVERT JUMPDEST SWAP1 POP PUSH1 0x20 DUP2 RETURNDATASIZE PUSH1 0x20 GT PUSH2 0xC71 JUMPI JUMPDEST DUP2 PUSH2 0xC59 PUSH1 0x20 SWAP4 DUP4 PUSH2 0x42F JUMP JUMPDEST DUP2 ADD SUB SLT PUSH2 0x92 JUMPI MLOAD PUSH1 0x80 DUP2 LT ISZERO PUSH2 0x92 JUMPI PUSH0 PUSH2 0xA3F JUMP JUMPDEST RETURNDATASIZE SWAP2 POP PUSH2 0xC4C JUMP JUMPDEST SWAP1 SWAP4 POP PUSH1 0x20 DUP2 RETURNDATASIZE PUSH1 0x20 GT PUSH2 0xCAE JUMPI JUMPDEST DUP2 PUSH2 0xC95 PUSH1 0x20 SWAP4 DUP4 PUSH2 0x42F JUMP JUMPDEST DUP2 ADD SUB SLT PUSH2 0x92 JUMPI MLOAD PUSH1 0xA9 DUP2 LT ISZERO PUSH2 0x92 JUMPI SWAP3 PUSH0 PUSH2 0x9FE JUMP JUMPDEST RETURNDATASIZE SWAP2 POP PUSH2 0xC88 JUMP JUMPDEST SWAP1 SWAP2 POP PUSH1 0x20 DUP2 RETURNDATASIZE PUSH1 0x20 GT PUSH2 0xCEB JUMPI JUMPDEST DUP2 PUSH2 0xCD2 PUSH1 0x20 SWAP4 DUP4 PUSH2 0x42F JUMP JUMPDEST DUP2 ADD SUB SLT PUSH2 0x92 JUMPI MLOAD PUSH1 0x6A DUP2 LT ISZERO PUSH2 0x92 JUMPI SWAP1 PUSH0 PUSH2 0x9C5 JUMP JUMPDEST RETURNDATASIZE SWAP2 POP PUSH2 0xCC5 JUMP JUMPDEST SWAP1 POP PUSH1 0x20 DUP2 RETURNDATASIZE PUSH1 0x20 GT PUSH2 0xD26 JUMPI JUMPDEST DUP2 PUSH2 0xD0E PUSH1 0x20 SWAP4 DUP4 PUSH2 0x42F JUMP JUMPDEST DUP2 ADD SUB SLT PUSH2 0x92 JUMPI MLOAD PUSH1 0xD4 DUP2 LT ISZERO PUSH2 0x92 JUMPI PUSH0 PUSH2 0x982 JUMP JUMPDEST RETURNDATASIZE SWAP2 POP PUSH2 0xD01 JUMP JUMPDEST SWAP1 POP PUSH1 0x20 DUP2 RETURNDATASIZE PUSH1 0x20 GT PUSH2 0xD61 JUMPI JUMPDEST DUP2 PUSH2 0xD49 PUSH1 0x20 SWAP4 DUP4 PUSH2 0x42F JUMP JUMPDEST DUP2 ADD SUB SLT PUSH2 0x92 JUMPI MLOAD PUSH1 0x4 DUP2 LT ISZERO PUSH2 0x92 JUMPI PUSH0 PUSH2 0x940 JUMP JUMPDEST RETURNDATASIZE SWAP2 POP PUSH2 0xD3C JUMP JUMPDEST SWAP1 POP PUSH1 0x20 DUP2 RETURNDATASIZE PUSH1 0x20 GT PUSH2 0xD9C JUMPI JUMPDEST DUP2 PUSH2 0xD84 PUSH1 0x20 SWAP4 DUP4 PUSH2 0x42F JUMP JUMPDEST DUP2 ADD SUB SLT PUSH2 0x92 JUMPI MLOAD PUSH1 0x16 DUP2 LT ISZERO PUSH2 0x92 JUMPI PUSH0 PUSH2 0x905 JUMP JUMPDEST RETURNDATASIZE SWAP2 POP PUSH2 0xD77 JUMP JUMPDEST SWAP1 SWAP3 POP PUSH1 0x20 DUP2 RETURNDATASIZE PUSH1 0x20 GT PUSH2 0xDD9 JUMPI JUMPDEST DUP2 PUSH2 0xDC0 PUSH1 0x20 SWAP4 DUP4 PUSH2 0x42F JUMP JUMPDEST DUP2 ADD SUB SLT PUSH2 0x92 JUMPI MLOAD PUSH1 0x58 DUP2 LT ISZERO PUSH2 0x92 JUMPI SWAP2 PUSH0 PUSH2 0x8C8 JUMP JUMPDEST RETURNDATASIZE SWAP2 POP PUSH2 0xDB3 JUMP JUMPDEST SWAP1 POP PUSH1 0x20 DUP2 RETURNDATASIZE PUSH1 0x20 GT PUSH2 0xE14 JUMPI JUMPDEST DUP2 PUSH2 0xDFC PUSH1 0x20 SWAP4 DUP4 PUSH2 0x42F JUMP JUMPDEST DUP2 ADD SUB SLT PUSH2 0x92 JUMPI MLOAD PUSH1 0x9 DUP2 LT ISZERO PUSH2 0x92 JUMPI PUSH0 PUSH2 0x885 JUMP JUMPDEST RETURNDATASIZE SWAP2 POP PUSH2 0xDEF JUMP JUMPDEST SWAP1 POP PUSH1 0x20 DUP2 RETURNDATASIZE PUSH1 0x20 GT PUSH2 0xE4F JUMPI JUMPDEST DUP2 PUSH2 0xE37 PUSH1 0x20 SWAP4 DUP4 PUSH2 0x42F JUMP JUMPDEST DUP2 ADD SUB SLT PUSH2 0x92 JUMPI MLOAD PUSH1 0x9 DUP2 LT ISZERO PUSH2 0x92 JUMPI PUSH0 PUSH2 0x84A JUMP JUMPDEST RETURNDATASIZE SWAP2 POP PUSH2 0xE2A JUMP JUMPDEST SWAP1 POP PUSH1 0x20 DUP2 RETURNDATASIZE PUSH1 0x20 GT PUSH2 0xE8A JUMPI JUMPDEST DUP2 PUSH2 0xE72 PUSH1 0x20 SWAP4 DUP4 PUSH2 0x42F JUMP JUMPDEST DUP2 ADD SUB SLT PUSH2 0x92 JUMPI MLOAD PUSH1 0x14 DUP2 LT ISZERO PUSH2 0x92 JUMPI PUSH0 PUSH2 0x80F JUMP JUMPDEST RETURNDATASIZE SWAP2 POP PUSH2 0xE65 JUMP JUMPDEST SWAP1 POP PUSH1 0x20 DUP2 RETURNDATASIZE PUSH1 0x20 GT PUSH2 0xEC5 JUMPI JUMPDEST DUP2 PUSH2 0xEAD PUSH1 0x20 SWAP4 DUP4 PUSH2 0x42F JUMP JUMPDEST DUP2 ADD SUB SLT PUSH2 0x92 JUMPI MLOAD PUSH1 0x17 DUP2 LT ISZERO PUSH2 0x92 JUMPI PUSH0 PUSH2 0x7CD JUMP JUMPDEST RETURNDATASIZE SWAP2 POP PUSH2 0xEA0 JUMP JUMPDEST SWAP1 POP PUSH1 0x20 DUP2 RETURNDATASIZE PUSH1 0x20 GT PUSH2 0xF00 JUMPI JUMPDEST DUP2 PUSH2 0xEE8 PUSH1 0x20 SWAP4 DUP4 PUSH2 0x42F JUMP JUMPDEST DUP2 ADD SUB SLT PUSH2 0x92 JUMPI MLOAD PUSH1 0x1D DUP2 LT ISZERO PUSH2 0x92 JUMPI PUSH0 PUSH2 0x78A JUMP JUMPDEST RETURNDATASIZE SWAP2 POP PUSH2 0xEDB JUMP JUMPDEST PUSH1 0xFF SWAP2 POP AND PUSH1 0x5 DUP2 LT ISZERO PUSH2 0x128 JUMPI PUSH2 0xF23 SWAP1 PUSH1 0xC0 DUP5 ADD PUSH2 0x5BB JUMP JUMPDEST PUSH2 0xF2C DUP3 PUSH2 0x169A JUMP JUMPDEST PUSH1 0x40 MLOAD PUSH3 0xFE9549 PUSH1 0xE0 SHL DUP2 MSTORE DUP2 MLOAD PUSH1 0x4 DUP3 ADD MSTORE PUSH32 0x0 PUSH1 0x1 PUSH1 0x1 PUSH1 0xA0 SHL SUB AND SWAP1 PUSH1 0x20 DUP2 PUSH1 0x24 DUP2 DUP6 GAS STATICCALL SWAP1 DUP2 ISZERO PUSH2 0xC03 JUMPI PUSH0 SWAP2 PUSH2 0x1525 JUMPI JUMPDEST POP PUSH2 0x260 DUP5 ADD SWAP1 PUSH1 0x1A DUP2 LT ISZERO PUSH2 0x128 JUMPI DUP2 MSTORE PUSH1 0x40 MLOAD PUSH4 0x4E595AB PUSH1 0xE5 SHL DUP2 MSTORE PUSH1 0x20 DUP2 DUP1 PUSH2 0xFB2 DUP8 DUP10 PUSH1 0x4 DUP5 ADD PUSH2 0x5C7 JUMP JUMPDEST SUB DUP2 DUP7 GAS STATICCALL SWAP1 DUP2 ISZERO PUSH2 0xC03 JUMPI PUSH0 SWAP2 PUSH2 0x14EA JUMPI JUMPDEST POP PUSH1 0x1F DUP2 LT ISZERO PUSH2 0x128 JUMPI PUSH2 0x280 DUP6 ADD MSTORE PUSH1 0x40 MLOAD PUSH4 0xFB99DC2B PUSH1 0xE0 SHL DUP2 MSTORE PUSH1 0x20 DUP2 DUP1 PUSH2 0xFF4 DUP8 DUP10 PUSH1 0x4 DUP5 ADD PUSH2 0x5C7 JUMP JUMPDEST SUB DUP2 DUP7 GAS STATICCALL SWAP1 DUP2 ISZERO PUSH2 0xC03 JUMPI PUSH0 SWAP2 PUSH2 0x14AF JUMPI JUMPDEST POP PUSH1 0x13 DUP2 LT ISZERO PUSH2 0x128 JUMPI PUSH2 0x2A0 DUP6 ADD MSTORE PUSH1 0x40 MLOAD PUSH4 0x1C00525 PUSH1 0xE2 SHL DUP2 MSTORE DUP4 MLOAD PUSH1 0x4 DUP3 ADD MSTORE PUSH1 0x20 DUP2 PUSH1 0x24 DUP2 DUP7 GAS STATICCALL SWAP1 DUP2 ISZERO PUSH2 0xC03 JUMPI PUSH0 SWAP2 PUSH2 0x1474 JUMPI JUMPDEST POP PUSH2 0x104C DUP2 PUSH2 0x146 JUMP JUMPDEST PUSH2 0x2C0 DUP6 ADD MSTORE PUSH1 0x40 MLOAD PUSH4 0xD535A071 PUSH1 0xE0 SHL DUP2 MSTORE DUP4 MLOAD PUSH1 0x4 DUP3 ADD MSTORE PUSH1 0x20 DUP2 PUSH1 0x24 DUP2 DUP7 GAS STATICCALL SWAP1 DUP2 ISZERO PUSH2 0xC03 JUMPI PUSH0 SWAP2 PUSH2 0x1439 JUMPI JUMPDEST POP PUSH2 0x1087 DUP2 PUSH2 0x146 JUMP JUMPDEST PUSH2 0x2E0 DUP6 ADD MSTORE PUSH1 0x40 MLOAD PUSH4 0x1D6981CD PUSH1 0xE3 SHL DUP2 MSTORE DUP4 MLOAD PUSH1 0x4 DUP3 ADD MSTORE PUSH1 0x20 DUP2 PUSH1 0x24 DUP2 DUP7 GAS STATICCALL SWAP1 DUP2 ISZERO PUSH2 0xC03 JUMPI PUSH0 SWAP2 PUSH2 0x13FE JUMPI JUMPDEST POP PUSH1 0x15 DUP2 LT ISZERO PUSH2 0x128 JUMPI PUSH2 0x320 DUP6 ADD MSTORE PUSH1 0x40 MLOAD PUSH4 0x367D7393 PUSH1 0xE0 SHL DUP2 MSTORE DUP4 MLOAD PUSH1 0x4 DUP3 ADD MSTORE PUSH1 0x20 DUP2 PUSH1 0x24 DUP2 DUP7 GAS STATICCALL SWAP1 DUP2 ISZERO PUSH2 0xC03 JUMPI PUSH0 SWAP2 PUSH2 0x13C3 JUMPI JUMPDEST POP PUSH2 0x10FD DUP2 PUSH2 0x150 JUMP JUMPDEST PUSH2 0x300 DUP6 ADD MSTORE PUSH1 0x40 MLOAD PUSH4 0xEB3CA1D7 PUSH1 0xE0 SHL DUP2 MSTORE PUSH1 0x20 DUP2 DUP1 PUSH2 0x1122 DUP8 DUP10 PUSH1 0x4 DUP5 ADD PUSH2 0x5C7 JUMP JUMPDEST SUB DUP2 DUP7 GAS STATICCALL SWAP1 DUP2 ISZERO PUSH2 0xC03 JUMPI PUSH0 SWAP2 PUSH2 0x1388 JUMPI JUMPDEST POP PUSH1 0xC3 DUP2 LT ISZERO PUSH2 0x128 JUMPI PUSH2 0x340 DUP6 ADD MSTORE PUSH1 0x40 MLOAD PUSH4 0xB27CF703 PUSH1 0xE0 SHL DUP2 MSTORE PUSH1 0x20 DUP2 DUP1 PUSH2 0x1164 DUP8 DUP10 PUSH1 0x4 DUP5 ADD PUSH2 0x5C7 JUMP JUMPDEST SUB DUP2 DUP7 GAS STATICCALL SWAP1 DUP2 ISZERO PUSH2 0xC03 JUMPI PUSH0 SWAP2 PUSH2 0x134D JUMPI JUMPDEST POP PUSH1 0x85 DUP2 LT ISZERO PUSH2 0x128 JUMPI PUSH2 0x360 DUP6 ADD MSTORE PUSH1 0x40 MLOAD PUSH4 0x9D8B84F PUSH1 0xE4 SHL DUP2 MSTORE DUP4 MLOAD PUSH1 0x4 DUP3 ADD MSTORE SWAP2 PUSH1 0x20 DUP4 PUSH1 0x24 DUP2 DUP5 GAS STATICCALL SWAP3 DUP4 ISZERO PUSH2 0xC03 JUMPI PUSH0 SWAP4 PUSH2 0x1310 JUMPI JUMPDEST POP PUSH2 0x380 DUP6 ADD SWAP3 PUSH1 0x83 DUP2 LT ISZERO PUSH2 0x128 JUMPI DUP4 MSTORE PUSH1 0x40 MLOAD PUSH4 0x72D09567 PUSH1 0xE1 SHL DUP2 MSTORE DUP5 MLOAD PUSH1 0x4 DUP3 ADD MSTORE SWAP1 PUSH1 0x20 SWAP1 DUP3 SWAP1 PUSH1 0x24 SWAP1 DUP3 SWAP1 GAS STATICCALL SWAP1 DUP2 ISZERO PUSH2 0xC03 JUMPI PUSH0 SWAP2 PUSH2 0x12D5 JUMPI JUMPDEST POP PUSH1 0x7A DUP2 LT ISZERO PUSH2 0x128 JUMPI PUSH2 0x3A0 DUP6 ADD MSTORE MLOAD PUSH1 0x1A DUP2 LT ISZERO PUSH2 0x128 JUMPI PUSH2 0x1216 PUSH2 0x57E JUMP JUMPDEST SWAP1 PUSH1 0xFF SWAP1 PUSH1 0xE DUP4 MSTORE AND PUSH1 0x20 DUP3 ADD MSTORE PUSH0 PUSH1 0x40 DUP3 ADD MSTORE PUSH2 0x1245 DUP5 MLOAD SWAP2 PUSH1 0x20 DUP7 ADD SWAP3 PUSH1 0xFF DUP5 MLOAD AND SWAP2 PUSH2 0xA90 DUP4 DUP4 PUSH2 0x200C JUMP JUMPDEST POP PUSH1 0xFF DUP2 MLOAD AND PUSH1 0xFF DUP2 EQ PUSH2 0xC2A JUMPI PUSH1 0x1 ADD PUSH1 0xFF AND SWAP1 MSTORE PUSH2 0x1264 DUP4 PUSH2 0x16F5 JUMP JUMPDEST PUSH2 0x126D DUP4 PUSH2 0x174D JUMP JUMPDEST PUSH2 0x1276 DUP4 PUSH2 0x17A1 JUMP JUMPDEST PUSH2 0x127F DUP4 PUSH2 0x1807 JUMP JUMPDEST PUSH2 0x1288 DUP4 PUSH2 0x186D JUMP JUMPDEST PUSH2 0x1291 DUP4 PUSH2 0x18C1 JUMP JUMPDEST MLOAD PUSH1 0x83 DUP2 LT ISZERO PUSH2 0x128 JUMPI PUSH2 0xB3D SWAP2 PUSH1 0x20 SWAP2 ISZERO PUSH2 0x12C7 JUMPI PUSH2 0x12B0 DUP5 PUSH2 0x197B JUMP JUMPDEST PUSH2 0x12B9 DUP5 PUSH2 0x19CF JUMP JUMPDEST PUSH2 0x12C2 DUP5 PUSH2 0x1AA2 JUMP JUMPDEST PUSH2 0xB22 JUMP JUMPDEST PUSH2 0x12D0 DUP5 PUSH2 0x1927 JUMP JUMPDEST PUSH2 0x12B0 JUMP JUMPDEST SWAP1 POP PUSH1 0x20 DUP2 RETURNDATASIZE PUSH1 0x20 GT PUSH2 0x1308 JUMPI JUMPDEST DUP2 PUSH2 0x12F0 PUSH1 0x20 SWAP4 DUP4 PUSH2 0x42F JUMP JUMPDEST DUP2 ADD SUB SLT PUSH2 0x92 JUMPI MLOAD PUSH1 0x7A DUP2 LT ISZERO PUSH2 0x92 JUMPI PUSH0 PUSH2 0x11F4 JUMP JUMPDEST RETURNDATASIZE SWAP2 POP PUSH2 0x12E3 JUMP JUMPDEST SWAP1 SWAP3 POP PUSH1 0x20 DUP2 RETURNDATASIZE PUSH1 0x20 GT PUSH2 0x1345 JUMPI JUMPDEST DUP2 PUSH2 0x132C PUSH1 0x20 SWAP4 DUP4 PUSH2 0x42F JUMP JUMPDEST DUP2 ADD SUB SLT PUSH2 0x92 JUMPI MLOAD PUSH1 0x83 DUP2 LT ISZERO PUSH2 0x92 JUMPI SWAP2 PUSH0 PUSH2 0x11B3 JUMP JUMPDEST RETURNDATASIZE SWAP2 POP PUSH2 0x131F JUMP JUMPDEST SWAP1 POP PUSH1 0x20 DUP2 RETURNDATASIZE PUSH1 0x20 GT PUSH2 0x1380 JUMPI JUMPDEST DUP2 PUSH2 0x1368 PUSH1 0x20 SWAP4 DUP4 PUSH2 0x42F JUMP JUMPDEST DUP2 ADD SUB SLT PUSH2 0x92 JUMPI MLOAD PUSH1 0x85 DUP2 LT ISZERO PUSH2 0x92 JUMPI PUSH0 PUSH2 0x1177 JUMP JUMPDEST RETURNDATASIZE SWAP2 POP PUSH2 0x135B JUMP JUMPDEST SWAP1 POP PUSH1 0x20 DUP2 RETURNDATASIZE PUSH1 0x20 GT PUSH2 0x13BB JUMPI JUMPDEST DUP2 PUSH2 0x13A3 PUSH1 0x20 SWAP4 DUP4 PUSH2 0x42F JUMP JUMPDEST DUP2 ADD SUB SLT PUSH2 0x92 JUMPI MLOAD PUSH1 0xC3 DUP2 LT ISZERO PUSH2 0x92 JUMPI PUSH0 PUSH2 0x1135 JUMP JUMPDEST RETURNDATASIZE SWAP2 POP PUSH2 0x1396 JUMP JUMPDEST SWAP1 POP PUSH1 0x20 DUP2 RETURNDATASIZE PUSH1 0x20 GT PUSH2 0x13F6 JUMPI JUMPDEST DUP2 PUSH2 0x13DE PUSH1 0x20 SWAP4 DUP4 PUSH2 0x42F JUMP JUMPDEST DUP2 ADD SUB SLT PUSH2 0x92 JUMPI MLOAD PUSH1 0x4 DUP2 LT ISZERO PUSH2 0x92 JUMPI PUSH0 PUSH2 0x10F3 JUMP JUMPDEST RETURNDATASIZE SWAP2 POP PUSH2 0x13D1 JUMP JUMPDEST SWAP1 POP PUSH1 0x20 DUP2 RETURNDATASIZE PUSH1 0x20 GT PUSH2 0x1431 JUMPI JUMPDEST DUP2 PUSH2 0x1419 PUSH1 0x20 SWAP4 DUP4 PUSH2 0x42F JUMP JUMPDEST DUP2 ADD SUB SLT PUSH2 0x92 JUMPI MLOAD PUSH1 0x15 DUP2 LT ISZERO PUSH2 0x92 JUMPI PUSH0 PUSH2 0x10B8 JUMP JUMPDEST RETURNDATASIZE SWAP2 POP PUSH2 0x140C JUMP JUMPDEST SWAP1 POP PUSH1 0x20 DUP2 RETURNDATASIZE PUSH1 0x20 GT PUSH2 0x146C JUMPI JUMPDEST DUP2 PUSH2 0x1454 PUSH1 0x20 SWAP4 DUP4 PUSH2 0x42F JUMP JUMPDEST DUP2 ADD SUB SLT PUSH2 0x92 JUMPI MLOAD PUSH1 0x9 DUP2 LT ISZERO PUSH2 0x92 JUMPI PUSH0 PUSH2 0x107D JUMP JUMPDEST RETURNDATASIZE SWAP2 POP PUSH2 0x1447 JUMP JUMPDEST SWAP1 POP PUSH1 0x20 DUP2 RETURNDATASIZE PUSH1 0x20 GT PUSH2 0x14A7 JUMPI JUMPDEST DUP2 PUSH2 0x148F PUSH1 0x20 SWAP4 DUP4 PUSH2 0x42F JUMP JUMPDEST DUP2 ADD SUB SLT PUSH2 0x92 JUMPI MLOAD PUSH1 0x9 DUP2 LT ISZERO PUSH2 0x92 JUMPI PUSH0 PUSH2 0x1042 JUMP JUMPDEST RETURNDATASIZE SWAP2 POP PUSH2 0x1482 JUMP JUMPDEST SWAP1 POP PUSH1 0x20 DUP2 RETURNDATASIZE PUSH1 0x20 GT PUSH2 0x14E2 JUMPI JUMPDEST DUP2 PUSH2 0x14CA PUSH1 0x20 SWAP4 DUP4 PUSH2 0x42F JUMP JUMPDEST DUP2 ADD SUB SLT PUSH2 0x92 JUMPI MLOAD PUSH1 0x13 DUP2 LT ISZERO PUSH2 0x92 JUMPI PUSH0 PUSH2 0x1007 JUMP JUMPDEST RETURNDATASIZE SWAP2 POP PUSH2 0x14BD JUMP JUMPDEST SWAP1 POP PUSH1 0x20 DUP2 RETURNDATASIZE PUSH1 0x20 GT PUSH2 0x151D JUMPI JUMPDEST DUP2 PUSH2 0x1505 PUSH1 0x20 SWAP4 DUP4 PUSH2 0x42F JUMP JUMPDEST DUP2 ADD SUB SLT PUSH2 0x92 JUMPI MLOAD PUSH1 0x1F DUP2 LT ISZERO PUSH2 0x92 JUMPI PUSH0 PUSH2 0xFC5 JUMP JUMPDEST RETURNDATASIZE SWAP2 POP PUSH2 0x14F8 JUMP JUMPDEST SWAP1 POP PUSH1 0x20 DUP2 RETURNDATASIZE PUSH1 0x20 GT PUSH2 0x1558 JUMPI JUMPDEST DUP2 PUSH2 0x1540 PUSH1 0x20 SWAP4 DUP4 PUSH2 0x42F JUMP JUMPDEST DUP2 ADD SUB SLT PUSH2 0x92 JUMPI MLOAD PUSH1 0x1A DUP2 LT ISZERO PUSH2 0x92 JUMPI PUSH0 PUSH2 0xF81 JUMP JUMPDEST RETURNDATASIZE SWAP2 POP PUSH2 0x1533 JUMP JUMPDEST PUSH1 0x1 PUSH2 0x6FB JUMP JUMPDEST PUSH0 NOT ADD SWAP3 POP SWAP1 POP PUSH2 0xFFFF DUP3 GT PUSH2 0xC2A JUMPI PUSH2 0xFFFF DUP3 AND PUSH1 0x4 DUP2 EQ SWAP1 DUP2 ISZERO PUSH2 0x165D JUMPI JUMPDEST DUP2 ISZERO PUSH2 0x1652 JUMPI JUMPDEST DUP2 ISZERO PUSH2 0x1647 JUMPI JUMPDEST DUP2 ISZERO PUSH2 0x163C JUMPI JUMPDEST DUP2 ISZERO PUSH2 0x1631 JUMPI JUMPDEST DUP2 ISZERO PUSH2 0x1626 JUMPI JUMPDEST POP PUSH2 0x1621 JUMPI PUSH1 0xFF AND PUSH1 0x5 DUP2 LT ISZERO PUSH2 0x128 JUMPI PUSH2 0x15C9 SWAP1 PUSH1 0xC0 DUP5 ADD PUSH2 0x5BB JUMP JUMPDEST PUSH2 0x15D2 DUP3 PUSH2 0x169A JUMP JUMPDEST PUSH2 0x15DA PUSH2 0x57E JUMP JUMPDEST SWAP1 PUSH1 0xFF SWAP1 PUSH0 DUP4 MSTORE AND PUSH1 0x20 DUP3 ADD MSTORE PUSH0 PUSH1 0x40 DUP3 ADD MSTORE PUSH2 0x1608 DUP3 MLOAD SWAP2 PUSH1 0x20 DUP5 ADD SWAP3 PUSH1 0xFF DUP5 MLOAD AND SWAP2 PUSH2 0xA90 DUP4 DUP4 PUSH2 0x200C JUMP JUMPDEST POP PUSH1 0xFF DUP2 MLOAD AND PUSH1 0xFF DUP2 EQ PUSH2 0xC2A JUMPI PUSH1 0x1 ADD PUSH1 0xFF AND SWAP1 MSTORE SWAP1 JUMP JUMPDEST POP POP SWAP1 JUMP JUMPDEST PUSH1 0xD SWAP2 POP EQ PUSH0 PUSH2 0x15AB JUMP JUMPDEST PUSH1 0xB DUP2 EQ SWAP2 POP PUSH2 0x15A4 JUMP JUMPDEST PUSH1 0x8 DUP2 EQ SWAP2 POP PUSH2 0x159D JUMP JUMPDEST PUSH1 0x7 DUP2 EQ SWAP2 POP PUSH2 0x1596 JUMP JUMPDEST PUSH1 0x6 DUP2 EQ SWAP2 POP PUSH2 0x158F JUMP JUMPDEST PUSH1 0x5 DUP2 EQ SWAP2 POP PUSH2 0x1588 JUMP JUMPDEST PUSH1 0x1 ADD PUSH2 0xFFFF DUP2 GT PUSH2 0xC2A JUMPI PUSH2 0xFFFF AND PUSH1 0x60 DUP6 ADD MSTORE PUSH0 PUSH2 0x686 JUMP JUMPDEST PUSH1 0x20 SWAP1 PUSH2 0x168E PUSH2 0x57E JUMP JUMPDEST DUP3 DUP3 DUP7 ADD ADD MSTORE ADD PUSH2 0x66C JUMP JUMPDEST PUSH1 0xC0 DUP2 ADD MLOAD PUSH1 0x5 DUP2 LT ISZERO PUSH2 0x128 JUMPI PUSH2 0x16B0 PUSH2 0x57E JUMP JUMPDEST PUSH1 0xFF PUSH2 0x16DD SWAP3 PUSH1 0x1 DUP4 MSTORE AND PUSH1 0x20 DUP3 ADD MSTORE PUSH0 PUSH1 0x40 DUP3 ADD MSTORE PUSH1 0x20 DUP4 MLOAD SWAP4 ADD SWAP3 PUSH1 0xFF DUP5 MLOAD AND SWAP2 PUSH2 0xA90 DUP4 DUP4 PUSH2 0x200C JUMP JUMPDEST POP PUSH1 0xFF DUP2 MLOAD AND PUSH1 0xFF DUP2 EQ PUSH2 0xC2A JUMPI PUSH1 0x1 ADD PUSH1 0xFF AND SWAP1 MSTORE JUMP JUMPDEST PUSH2 0x280 DUP2 ADD DUP1 MLOAD PUSH1 0x1F DUP2 LT ISZERO PUSH2 0x128 JUMPI ISZERO PUSH2 0x1749 JUMPI MLOAD PUSH1 0x1F DUP2 LT ISZERO PUSH2 0x128 JUMPI PUSH2 0x171C PUSH2 0x57E JUMP JUMPDEST PUSH1 0xFF PUSH2 0x16DD SWAP3 PUSH1 0xF DUP4 MSTORE AND PUSH1 0x20 DUP3 ADD MSTORE PUSH0 PUSH1 0x40 DUP3 ADD MSTORE PUSH1 0x20 DUP4 MLOAD SWAP4 ADD SWAP3 PUSH1 0xFF DUP5 MLOAD AND SWAP2 PUSH2 0xA90 DUP4 DUP4 PUSH2 0x200C JUMP JUMPDEST POP POP JUMP JUMPDEST PUSH2 0x2A0 DUP2 ADD DUP1 MLOAD PUSH1 0x13 DUP2 LT ISZERO PUSH2 0x128 JUMPI ISZERO PUSH2 0x1749 JUMPI MLOAD PUSH1 0x13 DUP2 LT ISZERO PUSH2 0x128 JUMPI PUSH2 0x1774 PUSH2 0x57E JUMP JUMPDEST PUSH1 0xFF PUSH2 0x16DD SWAP3 PUSH1 0x10 DUP4 MSTORE AND PUSH1 0x20 DUP3 ADD MSTORE PUSH0 PUSH1 0x40 DUP3 ADD MSTORE PUSH1 0x20 DUP4 MLOAD SWAP4 ADD SWAP3 PUSH1 0xFF DUP5 MLOAD AND SWAP2 PUSH2 0xA90 DUP4 DUP4 PUSH2 0x200C JUMP JUMPDEST PUSH2 0x2C0 DUP2 ADD DUP1 MLOAD PUSH2 0x17B1 DUP2 PUSH2 0x146 JUMP JUMPDEST PUSH2 0x17BA DUP2 PUSH2 0x146 JUMP JUMPDEST ISZERO PUSH2 0x1749 JUMPI MLOAD PUSH2 0x17C9 DUP2 PUSH2 0x146 JUMP JUMPDEST PUSH2 0x17D2 DUP2 PUSH2 0x146 JUMP JUMPDEST PUSH2 0x17DA PUSH2 0x57E JUMP JUMPDEST PUSH1 0xFF PUSH2 0x16DD SWAP3 PUSH1 0x11 DUP4 MSTORE AND PUSH1 0x20 DUP3 ADD MSTORE PUSH0 PUSH1 0x40 DUP3 ADD MSTORE PUSH1 0x20 DUP4 MLOAD SWAP4 ADD SWAP3 PUSH1 0xFF DUP5 MLOAD AND SWAP2 PUSH2 0xA90 DUP4 DUP4 PUSH2 0x200C JUMP JUMPDEST PUSH2 0x2E0 DUP2 ADD DUP1 MLOAD PUSH2 0x1817 DUP2 PUSH2 0x146 JUMP JUMPDEST PUSH2 0x1820 DUP2 PUSH2 0x146 JUMP JUMPDEST ISZERO PUSH2 0x1749 JUMPI MLOAD PUSH2 0x182F DUP2 PUSH2 0x146 JUMP JUMPDEST PUSH2 0x1838 DUP2 PUSH2 0x146 JUMP JUMPDEST PUSH2 0x1840 PUSH2 0x57E JUMP JUMPDEST PUSH1 0xFF PUSH2 0x16DD SWAP3 PUSH1 0x12 DUP4 MSTORE AND PUSH1 0x20 DUP3 ADD MSTORE PUSH0 PUSH1 0x40 DUP3 ADD MSTORE PUSH1 0x20 DUP4 MLOAD SWAP4 ADD SWAP3 PUSH1 0xFF DUP5 MLOAD AND SWAP2 PUSH2 0xA90 DUP4 DUP4 PUSH2 0x200C JUMP JUMPDEST PUSH2 0x320 DUP2 ADD DUP1 MLOAD PUSH1 0x15 DUP2 LT ISZERO PUSH2 0x128 JUMPI ISZERO PUSH2 0x1749 JUMPI MLOAD PUSH1 0x15 DUP2 LT ISZERO PUSH2 0x128 JUMPI PUSH2 0x1894 PUSH2 0x57E JUMP JUMPDEST PUSH1 0xFF PUSH2 0x16DD SWAP3 PUSH1 0x13 DUP4 MSTORE AND PUSH1 0x20 DUP3 ADD MSTORE PUSH0 PUSH1 0x40 DUP3 ADD MSTORE PUSH1 0x20 DUP4 MLOAD SWAP4 ADD SWAP3 PUSH1 0xFF DUP5 MLOAD AND SWAP2 PUSH2 0xA90 DUP4 DUP4 PUSH2 0x200C JUMP JUMPDEST PUSH2 0x300 DUP2 ADD DUP1 MLOAD PUSH2 0x18D1 DUP2 PUSH2 0x150 JUMP JUMPDEST PUSH2 0x18DA DUP2 PUSH2 0x150 JUMP JUMPDEST ISZERO PUSH2 0x1749 JUMPI MLOAD PUSH2 0x18E9 DUP2 PUSH2 0x150 JUMP JUMPDEST PUSH2 0x18F2 DUP2 PUSH2 0x150 JUMP JUMPDEST PUSH2 0x18FA PUSH2 0x57E JUMP JUMPDEST PUSH1 0xFF PUSH2 0x16DD SWAP3 PUSH1 0x14 DUP4 MSTORE AND PUSH1 0x20 DUP3 ADD MSTORE PUSH0 PUSH1 0x40 DUP3 ADD MSTORE PUSH1 0x20 DUP4 MLOAD SWAP4 ADD SWAP3 PUSH1 0xFF DUP5 MLOAD AND SWAP2 PUSH2 0xA90 DUP4 DUP4 PUSH2 0x200C JUMP JUMPDEST PUSH2 0x340 DUP2 ADD DUP1 MLOAD PUSH1 0xC3 DUP2 LT ISZERO PUSH2 0x128 JUMPI ISZERO PUSH2 0x1749 JUMPI MLOAD PUSH1 0xC3 DUP2 LT ISZERO PUSH2 0x128 JUMPI PUSH2 0x194E PUSH2 0x57E JUMP JUMPDEST PUSH1 0xFF PUSH2 0x16DD SWAP3 PUSH1 0x15 DUP4 MSTORE AND PUSH1 0x20 DUP3 ADD MSTORE PUSH0 PUSH1 0x40 DUP3 ADD MSTORE PUSH1 0x20 DUP4 MLOAD SWAP4 ADD SWAP3 PUSH1 0xFF DUP5 MLOAD AND SWAP2 PUSH2 0xA90 DUP4 DUP4 PUSH2 0x200C JUMP JUMPDEST PUSH2 0x360 DUP2 ADD DUP1 MLOAD PUSH1 0x85 DUP2 LT ISZERO PUSH2 0x128 JUMPI ISZERO PUSH2 0x1749 JUMPI MLOAD PUSH1 0x85 DUP2 LT ISZERO PUSH2 0x128 JUMPI PUSH2 0x19A2 PUSH2 0x57E JUMP JUMPDEST PUSH1 0xFF PUSH2 0x16DD SWAP3 PUSH1 0x16 DUP4 MSTORE AND PUSH1 0x20 DUP3 ADD MSTORE PUSH0 PUSH1 0x40 DUP3 ADD MSTORE PUSH1 0x20 DUP4 MLOAD SWAP4 ADD SWAP3 PUSH1 0xFF DUP5 MLOAD AND SWAP2 PUSH2 0xA90 DUP4 DUP4 PUSH2 0x200C JUMP JUMPDEST PUSH2 0x380 DUP2 ADD DUP1 MLOAD PUSH1 0x83 DUP2 LT ISZERO PUSH2 0x128 JUMPI ISZERO PUSH2 0x1749 JUMPI MLOAD SWAP1 PUSH1 0x83 DUP3 LT ISZERO PUSH2 0x128 JUMPI PUSH2 0x19F7 PUSH2 0x57E JUMP JUMPDEST SWAP2 PUSH1 0xFF SWAP1 PUSH1 0x17 DUP5 MSTORE AND PUSH1 0x20 DUP4 ADD MSTORE PUSH0 PUSH1 0x40 DUP4 ADD MSTORE PUSH2 0x1A26 DUP2 MLOAD SWAP3 PUSH1 0x20 DUP4 ADD SWAP4 PUSH1 0xFF DUP6 MLOAD AND SWAP2 PUSH2 0xA90 DUP4 DUP4 PUSH2 0x200C JUMP JUMPDEST POP PUSH1 0xFF DUP3 MLOAD AND PUSH1 0xFF DUP2 EQ PUSH2 0xC2A JUMPI PUSH1 0x1 ADD PUSH1 0xFF AND DUP3 MSTORE PUSH2 0x260 DUP2 ADD MLOAD PUSH1 0x1A DUP2 LT ISZERO PUSH2 0x128 JUMPI PUSH1 0x15 EQ PUSH2 0x1A56 JUMPI POP POP JUMP JUMPDEST PUSH2 0x1A5E PUSH2 0x555 JUMP JUMPDEST SWAP2 PUSH1 0x1A DUP4 MSTORE PUSH1 0x1 PUSH1 0x20 DUP5 ADD MSTORE PUSH1 0xFF PUSH0 NOT SWAP2 MLOAD AND ADD PUSH1 0xFF DUP2 GT PUSH2 0xC2A JUMPI PUSH1 0x60 SWAP2 PUSH1 0xFF PUSH2 0x1A9D SWAP3 AND SWAP1 PUSH1 0x1 PUSH1 0x40 PUSH2 0x1A94 DUP5 DUP5 MLOAD PUSH2 0x200C JUMP JUMPDEST MLOAD ADD MSTORE MLOAD PUSH2 0x200C JUMP JUMPDEST MLOAD ADD MSTORE JUMP JUMPDEST PUSH2 0x3A0 DUP2 ADD DUP1 MLOAD PUSH1 0x7A DUP2 LT ISZERO PUSH2 0x128 JUMPI ISZERO PUSH2 0x1749 JUMPI MLOAD PUSH1 0x7A DUP2 LT ISZERO PUSH2 0x128 JUMPI PUSH2 0x1AC9 PUSH2 0x57E JUMP JUMPDEST PUSH1 0xFF PUSH2 0x16DD SWAP3 PUSH1 0x18 DUP4 MSTORE AND PUSH1 0x20 DUP3 ADD MSTORE PUSH0 PUSH1 0x40 DUP3 ADD MSTORE PUSH1 0x20 DUP4 MLOAD SWAP4 ADD SWAP3 PUSH1 0xFF DUP5 MLOAD AND SWAP2 PUSH2 0xA90 DUP4 DUP4 PUSH2 0x200C JUMP JUMPDEST PUSH2 0x100 DUP2 ADD DUP1 MLOAD PUSH2 0x1B06 DUP2 PUSH2 0x13C JUMP JUMPDEST PUSH2 0x1B0F DUP2 PUSH2 0x13C JUMP JUMPDEST ISZERO PUSH2 0x1749 JUMPI MLOAD PUSH2 0x1B1E DUP2 PUSH2 0x13C JUMP JUMPDEST PUSH2 0x1B27 DUP2 PUSH2 0x13C JUMP JUMPDEST PUSH2 0x1B2F PUSH2 0x57E JUMP JUMPDEST PUSH1 0xFF PUSH2 0x16DD SWAP3 PUSH1 0x3 DUP4 MSTORE AND PUSH1 0x20 DUP3 ADD MSTORE PUSH0 PUSH1 0x40 DUP3 ADD MSTORE PUSH1 0x20 DUP4 MLOAD SWAP4 ADD SWAP3 PUSH1 0xFF DUP5 MLOAD AND SWAP2 PUSH2 0xA90 DUP4 DUP4 PUSH2 0x200C JUMP JUMPDEST PUSH2 0x120 DUP2 ADD DUP1 MLOAD PUSH1 0x14 DUP2 LT ISZERO PUSH2 0x128 JUMPI ISZERO PUSH2 0x1749 JUMPI MLOAD PUSH1 0x14 DUP2 LT ISZERO PUSH2 0x128 JUMPI PUSH2 0x1B83 PUSH2 0x57E JUMP JUMPDEST PUSH1 0xFF PUSH2 0x16DD SWAP3 PUSH1 0x4 DUP4 MSTORE AND PUSH1 0x20 DUP3 ADD MSTORE PUSH0 PUSH1 0x40 DUP3 ADD MSTORE PUSH1 0x20 DUP4 MLOAD SWAP4 ADD SWAP3 PUSH1 0xFF DUP5 MLOAD AND SWAP2 PUSH2 0xA90 DUP4 DUP4 PUSH2 0x200C JUMP JUMPDEST PUSH2 0x140 DUP2 ADD DUP1 MLOAD PUSH2 0x1BC0 DUP2 PUSH2 0x146 JUMP JUMPDEST PUSH2 0x1BC9 DUP2 PUSH2 0x146 JUMP JUMPDEST ISZERO PUSH2 0x1749 JUMPI MLOAD PUSH2 0x1BD8 DUP2 PUSH2 0x146 JUMP JUMPDEST PUSH2 0x1BE1 DUP2 PUSH2 0x146 JUMP JUMPDEST PUSH2 0x1BE9 PUSH2 0x57E JUMP JUMPDEST PUSH1 0xFF PUSH2 0x16DD SWAP3 PUSH1 0x5 DUP4 MSTORE AND PUSH1 0x20 DUP3 ADD MSTORE PUSH0 PUSH1 0x40 DUP3 ADD MSTORE PUSH1 0x20 DUP4 MLOAD SWAP4 ADD SWAP3 PUSH1 0xFF DUP5 MLOAD AND SWAP2 PUSH2 0xA90 DUP4 DUP4 PUSH2 0x200C JUMP JUMPDEST PUSH2 0x160 DUP2 ADD DUP1 MLOAD PUSH2 0x1C26 DUP2 PUSH2 0x146 JUMP JUMPDEST PUSH2 0x1C2F DUP2 PUSH2 0x146 JUMP JUMPDEST ISZERO PUSH2 0x1749 JUMPI MLOAD PUSH2 0x1C3E DUP2 PUSH2 0x146 JUMP JUMPDEST PUSH2 0x1C47 DUP2 PUSH2 0x146 JUMP JUMPDEST PUSH2 0x1C4F PUSH2 0x57E JUMP JUMPDEST PUSH1 0xFF PUSH2 0x16DD SWAP3 PUSH1 0x6 DUP4 MSTORE AND PUSH1 0x20 DUP3 ADD MSTORE PUSH0 PUSH1 0x40 DUP3 ADD MSTORE PUSH1 0x20 DUP4 MLOAD SWAP4 ADD SWAP3 PUSH1 0xFF DUP5 MLOAD AND SWAP2 PUSH2 0xA90 DUP4 DUP4 PUSH2 0x200C JUMP JUMPDEST PUSH2 0x1C0 DUP2 ADD DUP1 MLOAD PUSH1 0x16 DUP2 LT ISZERO PUSH2 0x128 JUMPI ISZERO PUSH2 0x1749 JUMPI MLOAD PUSH1 0x16 DUP2 LT ISZERO PUSH2 0x128 JUMPI PUSH2 0x1CA3 PUSH2 0x57E JUMP JUMPDEST PUSH1 0xFF PUSH2 0x16DD SWAP3 PUSH1 0x8 DUP4 MSTORE AND PUSH1 0x20 DUP3 ADD MSTORE PUSH0 PUSH1 0x40 DUP3 ADD MSTORE PUSH1 0x20 DUP4 MLOAD SWAP4 ADD SWAP3 PUSH1 0xFF DUP5 MLOAD AND SWAP2 PUSH2 0xA90 DUP4 DUP4 PUSH2 0x200C JUMP JUMPDEST PUSH2 0x1A0 DUP2 ADD DUP1 MLOAD PUSH1 0x58 DUP2 LT ISZERO PUSH2 0x128 JUMPI ISZERO PUSH2 0x1749 JUMPI MLOAD PUSH1 0x58 DUP2 LT ISZERO PUSH2 0x128 JUMPI PUSH2 0x1CF7 PUSH2 0x57E JUMP JUMPDEST PUSH1 0xFF PUSH2 0x16DD SWAP3 PUSH1 0x7 DUP4 MSTORE AND PUSH1 0x20 DUP3 ADD MSTORE PUSH0 PUSH1 0x40 DUP3 ADD MSTORE PUSH1 0x20 DUP4 MLOAD SWAP4 ADD SWAP3 PUSH1 0xFF DUP5 MLOAD AND SWAP2 PUSH2 0xA90 DUP4 DUP4 PUSH2 0x200C JUMP JUMPDEST PUSH2 0x180 DUP2 ADD DUP1 MLOAD PUSH2 0x1D34 DUP2 PUSH2 0x150 JUMP JUMPDEST PUSH2 0x1D3D DUP2 PUSH2 0x150 JUMP JUMPDEST ISZERO PUSH2 0x1749 JUMPI MLOAD PUSH2 0x1D4C DUP2 PUSH2 0x150 JUMP JUMPDEST PUSH2 0x1D55 DUP2 PUSH2 0x150 JUMP JUMPDEST PUSH2 0x1D5D PUSH2 0x57E JUMP JUMPDEST PUSH1 0xFF PUSH2 0x16DD SWAP3 PUSH1 0x9 DUP4 MSTORE AND PUSH1 0x20 DUP3 ADD MSTORE PUSH0 PUSH1 0x40 DUP3 ADD MSTORE PUSH1 0x20 DUP4 MLOAD SWAP4 ADD SWAP3 PUSH1 0xFF DUP5 MLOAD AND SWAP2 PUSH2 0xA90 DUP4 DUP4 PUSH2 0x200C JUMP JUMPDEST PUSH2 0x1E0 DUP2 ADD DUP1 MLOAD PUSH1 0xD4 DUP2 LT ISZERO PUSH2 0x128 JUMPI ISZERO PUSH2 0x1749 JUMPI MLOAD PUSH1 0xD4 DUP2 LT ISZERO PUSH2 0x128 JUMPI PUSH2 0x1DB1 PUSH2 0x57E JUMP JUMPDEST PUSH1 0xFF PUSH2 0x16DD SWAP3 PUSH1 0xA DUP4 MSTORE AND PUSH1 0x20 DUP3 ADD MSTORE PUSH0 PUSH1 0x40 DUP3 ADD MSTORE PUSH1 0x20 DUP4 MLOAD SWAP4 ADD SWAP3 PUSH1 0xFF DUP5 MLOAD AND SWAP2 PUSH2 0xA90 DUP4 DUP4 PUSH2 0x200C JUMP JUMPDEST PUSH2 0x200 DUP2 ADD DUP1 MLOAD PUSH1 0x6A DUP2 LT ISZERO PUSH2 0x128 JUMPI ISZERO PUSH2 0x1749 JUMPI MLOAD PUSH1 0x6A DUP2 LT ISZERO PUSH2 0x128 JUMPI PUSH2 0x1E05 PUSH2 0x57E JUMP JUMPDEST PUSH1 0xFF PUSH2 0x16DD SWAP3 PUSH1 0xB DUP4 MSTORE AND PUSH1 0x20 DUP3 ADD MSTORE PUSH0 PUSH1 0x40 DUP3 ADD MSTORE PUSH1 0x20 DUP4 MLOAD SWAP4 ADD SWAP3 PUSH1 0xFF DUP5 MLOAD AND SWAP2 PUSH2 0xA90 DUP4 DUP4 PUSH2 0x200C JUMP JUMPDEST PUSH2 0x220 DUP2 ADD DUP1 MLOAD PUSH1 0xA9 DUP2 LT ISZERO PUSH2 0x128 JUMPI ISZERO PUSH2 0x1749 JUMPI MLOAD SWAP1 PUSH1 0xA9 DUP3 LT ISZERO PUSH2 0x128 JUMPI PUSH2 0x1E5A PUSH2 0x57E JUMP JUMPDEST SWAP2 PUSH1 0xFF SWAP1 PUSH1 0xC DUP5 MSTORE AND PUSH1 0x20 DUP4 ADD MSTORE PUSH0 PUSH1 0x40 DUP4 ADD MSTORE PUSH2 0x1E89 DUP2 MLOAD SWAP3 PUSH1 0x20 DUP4 ADD SWAP4 PUSH1 0xFF DUP6 MLOAD AND SWAP2 PUSH2 0xA90 DUP4 DUP4 PUSH2 0x200C JUMP JUMPDEST POP PUSH1 0xFF DUP3 MLOAD AND PUSH1 0xFF DUP2 EQ PUSH2 0xC2A JUMPI PUSH1 0x1 ADD PUSH1 0xFF AND DUP3 MSTORE PUSH1 0xE0 DUP2 ADD DUP1 MLOAD PUSH1 0x1D DUP2 LT ISZERO PUSH2 0x128 JUMPI PUSH1 0x16 EQ PUSH2 0x1F09 JUMPI JUMPDEST MLOAD PUSH1 0x1D DUP2 LT ISZERO PUSH2 0x128 JUMPI PUSH1 0x15 EQ PUSH2 0x1ECB JUMPI POP POP JUMP JUMPDEST PUSH2 0x1ED3 PUSH2 0x555 JUMP JUMPDEST SWAP2 PUSH1 0x1A DUP4 MSTORE PUSH1 0x2 PUSH1 0x20 DUP5 ADD MSTORE PUSH1 0xFF PUSH0 NOT SWAP2 MLOAD AND ADD PUSH1 0xFF DUP2 GT PUSH2 0xC2A JUMPI PUSH1 0x60 SWAP2 PUSH1 0xFF PUSH2 0x1A9D SWAP3 AND SWAP1 PUSH1 0x1 PUSH1 0x40 PUSH2 0x1A94 DUP5 DUP5 MLOAD PUSH2 0x200C JUMP JUMPDEST PUSH2 0x1F11 PUSH2 0x555 JUMP JUMPDEST PUSH1 0x1A DUP2 MSTORE PUSH1 0x3 PUSH1 0x20 DUP3 ADD MSTORE PUSH0 NOT PUSH1 0xFF DUP6 MLOAD AND ADD PUSH1 0xFF DUP2 GT PUSH2 0xC2A JUMPI PUSH2 0x1F4E PUSH1 0xFF PUSH1 0x60 SWAP3 AND PUSH1 0x1 PUSH1 0x40 PUSH2 0x1F44 DUP4 DUP10 MLOAD PUSH2 0x200C JUMP JUMPDEST MLOAD ADD MSTORE DUP6 MLOAD PUSH2 0x200C JUMP JUMPDEST MLOAD ADD MSTORE PUSH2 0x1EB6 JUMP JUMPDEST PUSH2 0x240 DUP2 ADD DUP1 MLOAD PUSH1 0x80 DUP2 LT ISZERO PUSH2 0x128 JUMPI ISZERO PUSH2 0x1749 JUMPI MLOAD PUSH1 0x80 DUP2 LT ISZERO PUSH2 0x128 JUMPI PUSH2 0x1F7D PUSH2 0x57E JUMP JUMPDEST PUSH1 0xFF PUSH2 0x16DD SWAP3 PUSH1 0xD DUP4 MSTORE AND PUSH1 0x20 DUP3 ADD MSTORE PUSH0 PUSH1 0x40 DUP3 ADD MSTORE PUSH1 0x20 DUP4 MLOAD SWAP4 ADD SWAP3 PUSH1 0xFF DUP5 MLOAD AND SWAP2 PUSH2 0xA90 DUP4 DUP4 PUSH2 0x200C JUMP JUMPDEST PUSH2 0x3C0 DUP2 ADD DUP1 MLOAD PUSH2 0x1FBA DUP2 PUSH2 0x13C JUMP JUMPDEST PUSH2 0x1FC3 DUP2 PUSH2 0x13C JUMP JUMPDEST ISZERO PUSH2 0x1749 JUMPI MLOAD PUSH2 0x1FD2 DUP2 PUSH2 0x13C JUMP JUMPDEST PUSH2 0x1FDB DUP2 PUSH2 0x13C JUMP JUMPDEST PUSH2 0x1FE3 PUSH2 0x57E JUMP JUMPDEST PUSH1 0xFF PUSH2 0x16DD SWAP3 PUSH1 0x19 DUP4 MSTORE AND PUSH1 0x20 DUP3 ADD MSTORE PUSH0 PUSH1 0x40 DUP3 ADD MSTORE PUSH1 0x20 DUP4 MLOAD SWAP4 ADD SWAP3 PUSH1 0xFF DUP5 MLOAD AND SWAP2 PUSH2 0xA90 DUP4 DUP4 JUMPDEST DUP1 MLOAD DUP3 LT ISZERO PUSH2 0x2020 JUMPI PUSH1 0x20 SWAP2 PUSH1 0x5 SHL ADD ADD SWAP1 JUMP JUMPDEST PUSH4 0x4E487B71 PUSH1 0xE0 SHL PUSH0 MSTORE PUSH1 0x32 PUSH1 0x4 MSTORE PUSH1 0x24 PUSH0 REVERT INVALID LOG2 PUSH5 0x6970667358 0x22 SLT KECCAK256 CALLCODE PUSH18 0x83B498910697822909C8179C8B896AB9A7F8 SWAP4 0xB4 0x4F POP 0xDE PUSH11 0x33F518B35CBF64736F6C63 NUMBER STOP ADDMOD 0x1E STOP CALLER "
		},
		"gasEstimates": {
			"creation": {
				"codeDepositCost": "1659600",
				"executionCost": "infinite",
				"totalCost": "infinite"
			},
			"external": {
				"FEMALE_PROBS_CONTRACT()": "infinite",
				"MALE_PROBS_CONTRACT()": "infinite",
				"generateAllTraits(uint16,uint8,uint256)": "infinite"
			},
			"internal": {
				"_addBackground(struct TraitsContext memory)": "infinite",
				"_addFemaleChain(struct TraitsContext memory)": "infinite",
				"_addFemaleEarring(struct TraitsContext memory)": "infinite",
				"_addFemaleEyeWear(struct TraitsContext memory)": "infinite",
				"_addFemaleEyes(struct TraitsContext memory)": "infinite",
				"_addFemaleFace(struct TraitsContext memory)": "infinite",
				"_addFemaleHair(struct TraitsContext memory)": "infinite",
				"_addFemaleHatHair(struct TraitsContext memory)": "infinite",
				"_addFemaleHeadwear(struct TraitsContext memory)": "infinite",
				"_addFemaleMask(struct TraitsContext memory)": "infinite",
				"_addFemaleScarf(struct TraitsContext memory)": "infinite",
				"_addFemaleSkin(struct TraitsContext memory)": "infinite",
				"_addFillerTrait(struct TraitsContext memory,enum E_TraitsGroup,uint8)": "infinite",
				"_addMaleChain(struct TraitsContext memory)": "infinite",
				"_addMaleEarring(struct TraitsContext memory)": "infinite",
				"_addMaleEyeWear(struct TraitsContext memory)": "infinite",
				"_addMaleEyes(struct TraitsContext memory)": "infinite",
				"_addMaleFace(struct TraitsContext memory)": "infinite",
				"_addMaleFacialHair(struct TraitsContext memory)": "infinite",
				"_addMaleHair(struct TraitsContext memory)": "infinite",
				"_addMaleHatHair(struct TraitsContext memory)": "infinite",
				"_addMaleHeadwear(struct TraitsContext memory)": "infinite",
				"_addMaleMask(struct TraitsContext memory)": "infinite",
				"_addMaleScarf(struct TraitsContext memory)": "infinite",
				"_addMaleSkin(struct TraitsContext memory)": "infinite",
				"_addMouth(struct TraitsContext memory)": "infinite",
				"_addSpecial(struct TraitsContext memory,uint256)": "infinite",
				"_addTraitToRender(struct TraitsContext memory,enum E_TraitsGroup,uint8)": "infinite",
				"_isPreRendered(uint256)": "infinite"
			}
		},
		"methodIdentifiers": {
			"FEMALE_PROBS_CONTRACT()": "069157c0",
			"MALE_PROBS_CONTRACT()": "033b42a8",
			"generateAllTraits(uint16,uint8,uint256)": "609574b5"
		}
	},
	"abi": [
		{
			"inputs": [
				{
					"internalType": "contract IMaleProbs",
					"name": "_maleProbsContract",
					"type": "address"
				},
				{
					"internalType": "contract IFemaleProbs",
					"name": "_femaleProbsContract",
					"type": "address"
				}
			],
			"stateMutability": "nonpayable",
			"type": "constructor"
		},
		{
			"inputs": [],
			"name": "FEMALE_PROBS_CONTRACT",
			"outputs": [
				{
					"internalType": "contract IFemaleProbs",
					"name": "",
					"type": "address"
				}
			],
			"stateMutability": "view",
			"type": "function"
		},
		{
			"inputs": [],
			"name": "MALE_PROBS_CONTRACT",
			"outputs": [
				{
					"internalType": "contract IMaleProbs",
					"name": "",
					"type": "address"
				}
			],
			"stateMutability": "view",
			"type": "function"
		},
		{
			"inputs": [
				{
					"internalType": "uint16",
					"name": "_tokenIdSeed",
					"type": "uint16"
				},
				{
					"internalType": "uint8",
					"name": "_backgroundIndex",
					"type": "uint8"
				},
				{
					"internalType": "uint256",
					"name": "_globalSeed",
					"type": "uint256"
				}
			],
			"name": "generateAllTraits",
			"outputs": [
				{
					"components": [
						{
							"components": [
								{
									"internalType": "enum E_TraitsGroup",
									"name": "traitGroup",
									"type": "uint8"
								},
								{
									"internalType": "uint8",
									"name": "traitIndex",
									"type": "uint8"
								},
								{
									"internalType": "bool",
									"name": "hasFiller",
									"type": "bool"
								},
								{
									"components": [
										{
											"internalType": "enum E_TraitsGroup",
											"name": "traitGroup",
											"type": "uint8"
										},
										{
											"internalType": "uint8",
											"name": "traitIndex",
											"type": "uint8"
										}
									],
									"internalType": "struct FillerTrait",
									"name": "filler",
									"type": "tuple"
								}
							],
							"internalType": "struct TraitToRender[]",
							"name": "traitsToRender",
							"type": "tuple[]"
						},
						{
							"internalType": "uint8",
							"name": "traitsToRenderLength",
							"type": "uint8"
						},
						{
							"internalType": "uint16",
							"name": "tokenIdSeed",
							"type": "uint16"
						},
						{
							"internalType": "uint16",
							"name": "specialId",
							"type": "uint16"
						},
						{
							"internalType": "uint32",
							"name": "birthday",
							"type": "uint32"
						},
						{
							"internalType": "enum E_Sex",
							"name": "sex",
							"type": "uint8"
						},
						{
							"internalType": "enum E_Background",
							"name": "background",
							"type": "uint8"
						},
						{
							"internalType": "enum E_Male_Skin",
							"name": "maleSkin",
							"type": "uint8"
						},
						{
							"internalType": "enum E_Male_Eyes",
							"name": "maleEyes",
							"type": "uint8"
						},
						{
							"internalType": "enum E_Male_Face",
							"name": "maleFace",
							"type": "uint8"
						},
						{
							"internalType": "enum E_Male_Chain",
							"name": "maleChain",
							"type": "uint8"
						},
						{
							"internalType": "enum E_Male_Earring",
							"name": "maleEarring",
							"type": "uint8"
						},
						{
							"internalType": "enum E_Male_Scarf",
							"name": "maleScarf",
							"type": "uint8"
						},
						{
							"internalType": "enum E_Male_Facial_Hair",
							"name": "maleFacialHair",
							"type": "uint8"
						},
						{
							"internalType": "enum E_Male_Mask",
							"name": "maleMask",
							"type": "uint8"
						},
						{
							"internalType": "enum E_Male_Hair",
							"name": "maleHair",
							"type": "uint8"
						},
						{
							"internalType": "enum E_Male_Hat_Hair",
							"name": "maleHatHair",
							"type": "uint8"
						},
						{
							"internalType": "enum E_Male_Headwear",
							"name": "maleHeadwear",
							"type": "uint8"
						},
						{
							"internalType": "enum E_Male_Eye_Wear",
							"name": "maleEyeWear",
							"type": "uint8"
						},
						{
							"internalType": "enum E_Female_Skin",
							"name": "femaleSkin",
							"type": "uint8"
						},
						{
							"internalType": "enum E_Female_Eyes",
							"name": "femaleEyes",
							"type": "uint8"
						},
						{
							"internalType": "enum E_Female_Face",
							"name": "femaleFace",
							"type": "uint8"
						},
						{
							"internalType": "enum E_Female_Chain",
							"name": "femaleChain",
							"type": "uint8"
						},
						{
							"internalType": "enum E_Female_Earring",
							"name": "femaleEarring",
							"type": "uint8"
						},
						{
							"internalType": "enum E_Female_Scarf",
							"name": "femaleScarf",
							"type": "uint8"
						},
						{
							"internalType": "enum E_Female_Mask",
							"name": "femaleMask",
							"type": "uint8"
						},
						{
							"internalType": "enum E_Female_Hair",
							"name": "femaleHair",
							"type": "uint8"
						},
						{
							"internalType": "enum E_Female_Hat_Hair",
							"name": "femaleHatHair",
							"type": "uint8"
						},
						{
							"internalType": "enum E_Female_Headwear",
							"name": "femaleHeadwear",
							"type": "uint8"
						},
						{
							"internalType": "enum E_Female_Eye_Wear",
							"name": "femaleEyeWear",
							"type": "uint8"
						},
						{
							"internalType": "enum E_Mouth",
							"name": "mouth",
							"type": "uint8"
						}
					],
					"internalType": "struct TraitsContext",
					"name": "",
					"type": "tuple"
				}
			],
			"stateMutability": "view",
			"type": "function"
		}
	]
}