{
	"data": {
		"bytecode": {
			"linkReferences": {},
			"object": "60c03461009f57601f61220e38819003918201601f19168301916001600160401b038311848410176100a357808492604094855283398101031261009f578051906001600160a01b038216820361009f5760200151906001600160a01b038216820361009f5760805260a05260405161215690816100b8823960805181818160ed015281816107b20152610bd9015260a05181818160ac0152610fee0152f35b5f80fd5b634e487b7160e01b5f52604160045260245ffdfe6080806040526004361015610012575f80fd5b5f3560e01c908163033b42a8146100db57508063069157c0146100975763fd20cb601461003d575f80fd5b346100935760603660031901126100935760043561ffff811681036100935760243561ffff811681036100935761008f9161007b9160443591610608565b60405191829160208352602083019061015b565b0390f35b5f80fd5b34610093575f366003190112610093576040517f00000000000000000000000000000000000000000000000000000000000000006001600160a01b03168152602090f35b34610093575f366003190112610093577f00000000000000000000000000000000000000000000000000000000000000006001600160a01b03168152602090f35b90601b8210156101295752565b634e487b7160e01b5f52602160045260245ffd5b6017111561012957565b6009111561012957565b6004111561012957565b906103e08101918051926103e083528351809152602061040084019401905f5b8181106103db5750505060ff602082015116602083015261ffff604082015116604083015261ffff606082015116606083015263ffffffff608082015116608083015260a081015160028110156101295760a083015260c081015160058110156101295760c083015260e0810151601d8110156101295760e08301526101008101516102068161013d565b61010083015261012081015160148110156101295761012083015261014081015161023081610147565b61014083015261016081015161024581610147565b61016083015261018081015161025a81610151565b6101808301526101a08101516058811015610129576101a08301526101c08101516016811015610129576101c08301526101e081015160d4811015610129576101e0830152610200810151606a8110156101295761020083015261022081015160a981101561012957610220830152610240810151608081101561012957610240830152610260810151601a81101561012957610260830152610280810151601f811015610129576102808301526102a08101516013811015610129576102a08301526102c081015161032c81610147565b6102c08301526102e081015161034181610147565b6102e083015261030081015161035681610151565b61030083015261032081015160158110156101295761032083015261034081015160c3811015610129576103408301526103608101516085811015610129576103608301526103808101516083811015610129576103808301526103a0810151607a811015610129576103a08301526103c090810151916103d68361013d565b015290565b909194602060a060019260ff8360608b516103f785825161011c565b83838201511683860152604081015115156040860152015161041d60608501825161011c565b015116608082015201960192910161017b565b6040810190811067ffffffffffffffff82111761044c57604052565b634e487b7160e01b5f52604160045260245ffd5b90601f8019910116810190811067ffffffffffffffff82111761044c57604052565b604051906103e0820182811067ffffffffffffffff82111761044c576040525f6103c083606081528260208201528260408201528260608201528260808201528260a08201528260c08201528260e08201528261010082015282610120820152826101408201528261016082015282610180820152826101a0820152826101c0820152826101e08201528261020082015282610220820152826102408201528261026082015282610280820152826102a0820152826102c0820152826102e08201528261030082015282610320820152826103408201528261036082015282610380820152826103a08201520152565b6040519061057f82610430565b5f6020838281520152565b604051906080820182811067ffffffffffffffff82111761044c57604052815f81525f60208201525f60408201526060604051916105c783610430565b5f83525f60208401520152565b60058210156101295752565b9060206105fa60409295949560608552606085019061015b565b948051828501520151910152565b9091610612610482565b5061061b610572565b50604051602081019161ffff84169361ffff60f01b9060f01b16835260228201526022815261064b604282610460565b519020906040519161065c83610430565b8252602082019281845261066e610482565b93610200926040516106808582610460565b600f8152601f1985015f5b818110611762575050865280604087015260108110611747575b5080515f198114610cc2576301e098d0600163ffffffff920180845286519060405190602082019283526040820152604081526106e3606082610460565b5190208087520663f48657000116608086015261ffff60608601511680611643575080515f198114610cc257611d4c9160016127109201809152855190604051906020820192835260408201526040815261073f606082610460565b519020808652066001011161163c575f5b6002811015610129578060a0860152155f14610fa05761ffff166005811015610129576107809060c085016105d4565b61078983611779565b604051630f120bcf60e41b81528251600482015260208084015160248301526001600160a01b037f00000000000000000000000000000000000000000000000000000000000000001692919081604481865afa908115610c9b575f91610f65575b5060e0850190601d8110156101295781526040516334ff6b1160e11b81526020818061081a888a600484016105e0565b0381875afa908115610c9b575f91610f2a575b506108378161013d565b61010086015260405163e0a6d26d60e01b81526020818061085c888a600484016105e0565b0381875afa908115610c9b575f91610eef575b5060148110156101295761012086015260405163146e3eef60e01b815284516004820152602080860151602483015281604481875afa908115610c9b575f91610eb4575b506108bd81610147565b61014086015260405163757d288560e11b815284516004820152602080860151602483015281604481875afa908115610c9b575f91610e79575b5061090181610147565b610160860152604051630d700a9f60e21b81529160208380610927888a600484016105e0565b0381875afa928315610c9b575f93610e3c575b506101a0860192605881101561012957835260405163e744956560e01b815285516004820152602080870151602483015281604481885afa908115610c9b575f91610e01575b506016811015610129576101c0870152604051634e87244f60e01b815285516004820152602080870151602483015281604481885afa908115610c9b575f91610dc6575b506109ce81610151565b610180870152604051636f209f4160e01b8152602081806109f3898b600484016105e0565b0381885afa908115610c9b575f91610d8b575b5060d4811015610129576101e087015260405163efaaa5c760e01b81529060208280610a36898b600484016105e0565b0381885afa918215610c9b575f92610d4e575b50606a82101561012957860152604051634f4f0d0760e01b815284516004820152602080860151602483015290939084604481845afa938415610c9b575f94610d11575b5061022086019360a98110156101295784526040516321595d4f60e11b81528551600482015260208087015160248301529091829060449082905afa908115610c9b575f91610cd6575b5060808110156101295761024086015251601d81101561012957610af961058a565b9060ff90600283521660208201525f6040820152610b2e855191602087019260ff84511691610b2883836120f8565b526120f8565b5060ff81511660ff8114610cc25760010160ff169052610b4d84611bd9565b610b5684611c3f565b610b5f84611c93565b610b6884611cf9565b5160588110156101295715610cb457610b8083611db3565b610b8983611e07565b5160a981101561012957610bd59160209115610ca657610ba884611ec1565b610bb184611f15565b610bba84612042565b60405180938192633b13cd6960e01b835286600484016105e0565b03817f00000000000000000000000000000000000000000000000000000000000000006001600160a01b03165afa908115610c9b575f91610c60575b50610c1b8161013d565b6103c08201526103208101516015811015610129571580610c4a575b610c3e5790565b610c4781612096565b90565b506101c081015160168110156101295715610c37565b90506020813d602011610c93575b81610c7b60209383610460565b8101031261009357516017811015610093575f610c11565b3d9150610c6e565b6040513d5f823e3d90fd5b610caf84611e6d565b610ba8565b610cbd83611d5f565b610b80565b634e487b7160e01b5f52601160045260245ffd5b90506020813d602011610d09575b81610cf160209383610460565b8101031261009357516080811015610093575f610ad7565b3d9150610ce4565b9093506020813d602011610d46575b81610d2d60209383610460565b81010312610093575160a981101561009357925f610a8d565b3d9150610d20565b9091506020813d602011610d83575b81610d6a60209383610460565b810103126100935751606a81101561009357905f610a49565b3d9150610d5d565b90506020813d602011610dbe575b81610da660209383610460565b81010312610093575160d4811015610093575f610a06565b3d9150610d99565b90506020813d602011610df9575b81610de160209383610460565b8101031261009357516004811015610093575f6109c4565b3d9150610dd4565b90506020813d602011610e34575b81610e1c60209383610460565b8101031261009357516016811015610093575f610980565b3d9150610e0f565b9092506020813d602011610e71575b81610e5860209383610460565b810103126100935751605881101561009357915f61093a565b3d9150610e4b565b90506020813d602011610eac575b81610e9460209383610460565b8101031261009357516009811015610093575f6108f7565b3d9150610e87565b90506020813d602011610ee7575b81610ecf60209383610460565b8101031261009357516009811015610093575f6108b3565b3d9150610ec2565b90506020813d602011610f22575b81610f0a60209383610460565b8101031261009357516014811015610093575f61086f565b3d9150610efd565b90506020813d602011610f5d575b81610f4560209383610460565b8101031261009357516017811015610093575f61082d565b3d9150610f38565b90506020813d602011610f98575b81610f8060209383610460565b810103126100935751601d811015610093575f6107ea565b3d9150610f73565b61ffff915016600581101561012957610fbc9060c084016105d4565b610fc582611779565b6040516306ad373360e51b81528151600482015260208083015160248301526001600160a01b037f000000000000000000000000000000000000000000000000000000000000000016919081604481855afa908115610c9b575f91611601575b50610260840190601a81101561012957815260405163292af1e760e11b8152602081806110568789600484016105e0565b0381865afa908115610c9b575f916115c6575b50601f81101561012957610280850152604051633f07a23d60e01b8152602081806110988789600484016105e0565b0381865afa908115610c9b575f9161158b575b506013811015610129576102a08501526040516329814be560e01b815283516004820152602080850151602483015281604481865afa908115610c9b575f91611550575b506110f981610147565b6102c0850152604051638e57a73760e01b815283516004820152602080850151602483015281604481865afa908115610c9b575f91611515575b5061113d81610147565b6102e0850152604051637067a81d60e11b815283516004820152602080850151602483015281604481865afa908115610c9b575f916114da575b50601581101561012957610320850152604051633a4a9d7160e11b815283516004820152602080850151602483015281604481865afa908115610c9b575f9161149f575b506111c581610151565b610300850152604051635a99506360e01b8152602081806111ea8789600484016105e0565b0381865afa908115610c9b575f91611464575b5060c38110156101295761034085015260405163323be1a960e21b81526020818061122c8789600484016105e0565b0381865afa908115610c9b575f91611429575b50608581101561012957610360850152604051632743c88f60e01b815283516004820152602080850151602483015290929083604481845afa928315610c9b575f936113ec575b50610380850192608381101561012957835260405163a063f74f60e01b81528451600482015260208086015160248301529091829060449082905afa908115610c9b575f916113b1575b50607a811015610129576103a085015251601a811015610129576112f261058a565b9060ff90600e83521660208201525f6040820152611321845191602086019260ff84511691610b2883836120f8565b5060ff81511660ff8114610cc25760010160ff169052611340836117d4565b6113498361182c565b61135283611880565b61135b836118e6565b6113648361194c565b61136d836119a0565b51608381101561012957610bd591602091156113a35761138c84611a5a565b61139584611aae565b61139e84611b85565b610bba565b6113ac84611a06565b61138c565b90506020813d6020116113e4575b816113cc60209383610460565b810103126100935751607a811015610093575f6112d0565b3d91506113bf565b9092506020813d602011611421575b8161140860209383610460565b810103126100935751608381101561009357915f611286565b3d91506113fb565b90506020813d60201161145c575b8161144460209383610460565b8101031261009357516085811015610093575f61123f565b3d9150611437565b90506020813d602011611497575b8161147f60209383610460565b81010312610093575160c3811015610093575f6111fd565b3d9150611472565b90506020813d6020116114d2575b816114ba60209383610460565b8101031261009357516004811015610093575f6111bb565b3d91506114ad565b90506020813d60201161150d575b816114f560209383610460565b8101031261009357516015811015610093575f611177565b3d91506114e8565b90506020813d602011611548575b8161153060209383610460565b8101031261009357516009811015610093575f611133565b3d9150611523565b90506020813d602011611583575b8161156b60209383610460565b8101031261009357516009811015610093575f6110ef565b3d915061155e565b90506020813d6020116115be575b816115a660209383610460565b8101031261009357516013811015610093575f6110ab565b3d9150611599565b90506020813d6020116115f9575b816115e160209383610460565b810103126100935751601f811015610093575f611069565b3d91506115d4565b90506020813d602011611634575b8161161c60209383610460565b810103126100935751601a811015610093575f611025565b3d915061160f565b6001610750565b5f190193509091505061ffff8211610cc25761ffff82166004811490811561173c575b8115611731575b8115611726575b811561171b575b8115611710575b8115611705575b506117005761ffff166005811015610129576116a89060c084016105d4565b6116b182611779565b6116b961058a565b9060ff905f83521660208201525f60408201526116e7825191602084019260ff84511691610b2883836120f8565b5060ff81511660ff8114610cc25760010160ff16905290565b505090565b600d9150145f611689565b600b81149150611682565b60088114915061167b565b600781149150611674565b60068114915061166d565b600581149150611666565b60010161ffff8111610cc25761ffff1660608601525f6106a5565b60209061176d61058a565b8282860101520161068b565b60c081015160058110156101295761178f61058a565b60ff6117bc92600183521660208201525f60408201526020835193019260ff84511691610b2883836120f8565b5060ff81511660ff8114610cc25760010160ff169052565b61028081018051601f81101561012957156118285751601f811015610129576117fb61058a565b60ff6117bc92600f83521660208201525f60408201526020835193019260ff84511691610b2883836120f8565b5050565b6102a08101805160138110156101295715611828575160138110156101295761185361058a565b60ff6117bc92601083521660208201525f60408201526020835193019260ff84511691610b2883836120f8565b6102c08101805161189081610147565b61189981610147565b1561182857516118a881610147565b6118b181610147565b6118b961058a565b60ff6117bc92601183521660208201525f60408201526020835193019260ff84511691610b2883836120f8565b6102e0810180516118f681610147565b6118ff81610147565b15611828575161190e81610147565b61191781610147565b61191f61058a565b60ff6117bc92601283521660208201525f60408201526020835193019260ff84511691610b2883836120f8565b6103208101805160158110156101295715611828575160158110156101295761197361058a565b60ff6117bc92601383521660208201525f60408201526020835193019260ff84511691610b2883836120f8565b610300810180516119b081610151565b6119b981610151565b1561182857516119c881610151565b6119d181610151565b6119d961058a565b60ff6117bc92601483521660208201525f60408201526020835193019260ff84511691610b2883836120f8565b6103408101805160c38110156101295715611828575160c381101561012957611a2d61058a565b60ff6117bc92601583521660208201525f60408201526020835193019260ff84511691610b2883836120f8565b61036081018051608581101561012957156118285751608581101561012957611a8161058a565b60ff6117bc92601683521660208201525f60408201526020835193019260ff84511691610b2883836120f8565b6103808101805160838110156101295715611828575190608382101561012957611ad661058a565b9160ff90601784521660208301525f6040830152611b05815192602083019360ff85511691610b2883836120f8565b5060ff82511660ff8114610cc25760010160ff168252610260810151601a81101561012957601514611b35575050565b60405191611b4283610430565b601a8352600160208401525160ff9081165f1901908111610cc25760609160ff611b8092169060016040611b778484516120f8565b510152516120f8565b510152565b6103a081018051607a81101561012957156118285751607a81101561012957611bac61058a565b60ff6117bc92601883521660208201525f60408201526020835193019260ff84511691610b2883836120f8565b61010081018051611be98161013d565b611bf28161013d565b156118285751611c018161013d565b611c0a8161013d565b611c1261058a565b60ff6117bc92600383521660208201525f60408201526020835193019260ff84511691610b2883836120f8565b61012081018051601481101561012957156118285751601481101561012957611c6661058a565b60ff6117bc92600483521660208201525f60408201526020835193019260ff84511691610b2883836120f8565b61014081018051611ca381610147565b611cac81610147565b156118285751611cbb81610147565b611cc481610147565b611ccc61058a565b60ff6117bc92600583521660208201525f60408201526020835193019260ff84511691610b2883836120f8565b61016081018051611d0981610147565b611d1281610147565b156118285751611d2181610147565b611d2a81610147565b611d3261058a565b60ff6117bc92600683521660208201525f60408201526020835193019260ff84511691610b2883836120f8565b6101c081018051601681101561012957156118285751601681101561012957611d8661058a565b60ff6117bc92600883521660208201525f60408201526020835193019260ff84511691610b2883836120f8565b6101a081018051605881101561012957156118285751605881101561012957611dda61058a565b60ff6117bc92600783521660208201525f60408201526020835193019260ff84511691610b2883836120f8565b61018081018051611e1781610151565b611e2081610151565b156118285751611e2f81610151565b611e3881610151565b611e4061058a565b60ff6117bc92600983521660208201525f60408201526020835193019260ff84511691610b2883836120f8565b6101e08101805160d48110156101295715611828575160d481101561012957611e9461058a565b60ff6117bc92600a83521660208201525f60408201526020835193019260ff84511691610b2883836120f8565b61020081018051606a81101561012957156118285751606a81101561012957611ee861058a565b60ff6117bc92600b83521660208201525f60408201526020835193019260ff84511691610b2883836120f8565b6102208101805160a9811015610129571561182857519060a982101561012957611f3d61058a565b9160ff90600c84521660208301525f6040830152611f6c815192602083019360ff85511691610b2883836120f8565b5060ff82511660ff8114610cc25760010160ff16825260e081018051601d81101561012957601614611ff0575b51601d81101561012957601514611fae575050565b60405191611fbb83610430565b601a8352600260208401525160ff9081165f1901908111610cc25760609160ff611b8092169060016040611b778484516120f8565b604051611ffc81610430565b601a815260036020820152835160ff9081165f1901908111610cc25761203a60ff60609216600160406120308389516120f8565b51015285516120f8565b510152611f99565b6102408101805160808110156101295715611828575160808110156101295761206961058a565b60ff6117bc92600d83521660208201525f60408201526020835193019260ff84511691610b2883836120f8565b6103c0810180516120a68161013d565b6120af8161013d565b1561182857516120be8161013d565b6120c78161013d565b6120cf61058a565b60ff6117bc92601983521660208201525f60408201526020835193019260ff84511691610b2883835b805182101561210c5760209160051b010190565b634e487b7160e01b5f52603260045260245ffdfea26469706673582212209dc6d1286478e408b721d777c7755dd1112c1a20736c27066f8457bfeb5cd9ec64736f6c634300081e0033",
			"opcodes": "PUSH1 0xC0 CALLVALUE PUSH2 0x9F JUMPI PUSH1 0x1F PUSH2 0x220E CODESIZE DUP2 SWAP1 SUB SWAP2 DUP3 ADD PUSH1 0x1F NOT AND DUP4 ADD SWAP2 PUSH1 0x1 PUSH1 0x1 PUSH1 0x40 SHL SUB DUP4 GT DUP5 DUP5 LT OR PUSH2 0xA3 JUMPI DUP1 DUP5 SWAP3 PUSH1 0x40 SWAP5 DUP6 MSTORE DUP4 CODECOPY DUP2 ADD SUB SLT PUSH2 0x9F JUMPI DUP1 MLOAD SWAP1 PUSH1 0x1 PUSH1 0x1 PUSH1 0xA0 SHL SUB DUP3 AND DUP3 SUB PUSH2 0x9F JUMPI PUSH1 0x20 ADD MLOAD SWAP1 PUSH1 0x1 PUSH1 0x1 PUSH1 0xA0 SHL SUB DUP3 AND DUP3 SUB PUSH2 0x9F JUMPI PUSH1 0x80 MSTORE PUSH1 0xA0 MSTORE PUSH1 0x40 MLOAD PUSH2 0x2156 SWAP1 DUP2 PUSH2 0xB8 DUP3 CODECOPY PUSH1 0x80 MLOAD DUP2 DUP2 DUP2 PUSH1 0xED ADD MSTORE DUP2 DUP2 PUSH2 0x7B2 ADD MSTORE PUSH2 0xBD9 ADD MSTORE PUSH1 0xA0 MLOAD DUP2 DUP2 DUP2 PUSH1 0xAC ADD MSTORE PUSH2 0xFEE ADD MSTORE RETURN JUMPDEST PUSH0 DUP1 REVERT JUMPDEST PUSH4 0x4E487B71 PUSH1 0xE0 SHL PUSH0 MSTORE PUSH1 0x41 PUSH1 0x4 MSTORE PUSH1 0x24 PUSH0 REVERT INVALID PUSH1 0x80 DUP1 PUSH1 0x40 MSTORE PUSH1 0x4 CALLDATASIZE LT ISZERO PUSH2 0x12 JUMPI PUSH0 DUP1 REVERT JUMPDEST PUSH0 CALLDATALOAD PUSH1 0xE0 SHR SWAP1 DUP2 PUSH4 0x33B42A8 EQ PUSH2 0xDB JUMPI POP DUP1 PUSH4 0x69157C0 EQ PUSH2 0x97 JUMPI PUSH4 0xFD20CB60 EQ PUSH2 0x3D JUMPI PUSH0 DUP1 REVERT JUMPDEST CALLVALUE PUSH2 0x93 JUMPI PUSH1 0x60 CALLDATASIZE PUSH1 0x3 NOT ADD SLT PUSH2 0x93 JUMPI PUSH1 0x4 CALLDATALOAD PUSH2 0xFFFF DUP2 AND DUP2 SUB PUSH2 0x93 JUMPI PUSH1 0x24 CALLDATALOAD PUSH2 0xFFFF DUP2 AND DUP2 SUB PUSH2 0x93 JUMPI PUSH2 0x8F SWAP2 PUSH2 0x7B SWAP2 PUSH1 0x44 CALLDATALOAD SWAP2 PUSH2 0x608 JUMP JUMPDEST PUSH1 0x40 MLOAD SWAP2 DUP3 SWAP2 PUSH1 0x20 DUP4 MSTORE PUSH1 0x20 DUP4 ADD SWAP1 PUSH2 0x15B JUMP JUMPDEST SUB SWAP1 RETURN JUMPDEST PUSH0 DUP1 REVERT JUMPDEST CALLVALUE PUSH2 0x93 JUMPI PUSH0 CALLDATASIZE PUSH1 0x3 NOT ADD SLT PUSH2 0x93 JUMPI PUSH1 0x40 MLOAD PUSH32 0x0 PUSH1 0x1 PUSH1 0x1 PUSH1 0xA0 SHL SUB AND DUP2 MSTORE PUSH1 0x20 SWAP1 RETURN JUMPDEST CALLVALUE PUSH2 0x93 JUMPI PUSH0 CALLDATASIZE PUSH1 0x3 NOT ADD SLT PUSH2 0x93 JUMPI PUSH32 0x0 PUSH1 0x1 PUSH1 0x1 PUSH1 0xA0 SHL SUB AND DUP2 MSTORE PUSH1 0x20 SWAP1 RETURN JUMPDEST SWAP1 PUSH1 0x1B DUP3 LT ISZERO PUSH2 0x129 JUMPI MSTORE JUMP JUMPDEST PUSH4 0x4E487B71 PUSH1 0xE0 SHL PUSH0 MSTORE PUSH1 0x21 PUSH1 0x4 MSTORE PUSH1 0x24 PUSH0 REVERT JUMPDEST PUSH1 0x17 GT ISZERO PUSH2 0x129 JUMPI JUMP JUMPDEST PUSH1 0x9 GT ISZERO PUSH2 0x129 JUMPI JUMP JUMPDEST PUSH1 0x4 GT ISZERO PUSH2 0x129 JUMPI JUMP JUMPDEST SWAP1 PUSH2 0x3E0 DUP2 ADD SWAP2 DUP1 MLOAD SWAP3 PUSH2 0x3E0 DUP4 MSTORE DUP4 MLOAD DUP1 SWAP2 MSTORE PUSH1 0x20 PUSH2 0x400 DUP5 ADD SWAP5 ADD SWAP1 PUSH0 JUMPDEST DUP2 DUP2 LT PUSH2 0x3DB JUMPI POP POP POP PUSH1 0xFF PUSH1 0x20 DUP3 ADD MLOAD AND PUSH1 0x20 DUP4 ADD MSTORE PUSH2 0xFFFF PUSH1 0x40 DUP3 ADD MLOAD AND PUSH1 0x40 DUP4 ADD MSTORE PUSH2 0xFFFF PUSH1 0x60 DUP3 ADD MLOAD AND PUSH1 0x60 DUP4 ADD MSTORE PUSH4 0xFFFFFFFF PUSH1 0x80 DUP3 ADD MLOAD AND PUSH1 0x80 DUP4 ADD MSTORE PUSH1 0xA0 DUP2 ADD MLOAD PUSH1 0x2 DUP2 LT ISZERO PUSH2 0x129 JUMPI PUSH1 0xA0 DUP4 ADD MSTORE PUSH1 0xC0 DUP2 ADD MLOAD PUSH1 0x5 DUP2 LT ISZERO PUSH2 0x129 JUMPI PUSH1 0xC0 DUP4 ADD MSTORE PUSH1 0xE0 DUP2 ADD MLOAD PUSH1 0x1D DUP2 LT ISZERO PUSH2 0x129 JUMPI PUSH1 0xE0 DUP4 ADD MSTORE PUSH2 0x100 DUP2 ADD MLOAD PUSH2 0x206 DUP2 PUSH2 0x13D JUMP JUMPDEST PUSH2 0x100 DUP4 ADD MSTORE PUSH2 0x120 DUP2 ADD MLOAD PUSH1 0x14 DUP2 LT ISZERO PUSH2 0x129 JUMPI PUSH2 0x120 DUP4 ADD MSTORE PUSH2 0x140 DUP2 ADD MLOAD PUSH2 0x230 DUP2 PUSH2 0x147 JUMP JUMPDEST PUSH2 0x140 DUP4 ADD MSTORE PUSH2 0x160 DUP2 ADD MLOAD PUSH2 0x245 DUP2 PUSH2 0x147 JUMP JUMPDEST PUSH2 0x160 DUP4 ADD MSTORE PUSH2 0x180 DUP2 ADD MLOAD PUSH2 0x25A DUP2 PUSH2 0x151 JUMP JUMPDEST PUSH2 0x180 DUP4 ADD MSTORE PUSH2 0x1A0 DUP2 ADD MLOAD PUSH1 0x58 DUP2 LT ISZERO PUSH2 0x129 JUMPI PUSH2 0x1A0 DUP4 ADD MSTORE PUSH2 0x1C0 DUP2 ADD MLOAD PUSH1 0x16 DUP2 LT ISZERO PUSH2 0x129 JUMPI PUSH2 0x1C0 DUP4 ADD MSTORE PUSH2 0x1E0 DUP2 ADD MLOAD PUSH1 0xD4 DUP2 LT ISZERO PUSH2 0x129 JUMPI PUSH2 0x1E0 DUP4 ADD MSTORE PUSH2 0x200 DUP2 ADD MLOAD PUSH1 0x6A DUP2 LT ISZERO PUSH2 0x129 JUMPI PUSH2 0x200 DUP4 ADD MSTORE PUSH2 0x220 DUP2 ADD MLOAD PUSH1 0xA9 DUP2 LT ISZERO PUSH2 0x129 JUMPI PUSH2 0x220 DUP4 ADD MSTORE PUSH2 0x240 DUP2 ADD MLOAD PUSH1 0x80 DUP2 LT ISZERO PUSH2 0x129 JUMPI PUSH2 0x240 DUP4 ADD MSTORE PUSH2 0x260 DUP2 ADD MLOAD PUSH1 0x1A DUP2 LT ISZERO PUSH2 0x129 JUMPI PUSH2 0x260 DUP4 ADD MSTORE PUSH2 0x280 DUP2 ADD MLOAD PUSH1 0x1F DUP2 LT ISZERO PUSH2 0x129 JUMPI PUSH2 0x280 DUP4 ADD MSTORE PUSH2 0x2A0 DUP2 ADD MLOAD PUSH1 0x13 DUP2 LT ISZERO PUSH2 0x129 JUMPI PUSH2 0x2A0 DUP4 ADD MSTORE PUSH2 0x2C0 DUP2 ADD MLOAD PUSH2 0x32C DUP2 PUSH2 0x147 JUMP JUMPDEST PUSH2 0x2C0 DUP4 ADD MSTORE PUSH2 0x2E0 DUP2 ADD MLOAD PUSH2 0x341 DUP2 PUSH2 0x147 JUMP JUMPDEST PUSH2 0x2E0 DUP4 ADD MSTORE PUSH2 0x300 DUP2 ADD MLOAD PUSH2 0x356 DUP2 PUSH2 0x151 JUMP JUMPDEST PUSH2 0x300 DUP4 ADD MSTORE PUSH2 0x320 DUP2 ADD MLOAD PUSH1 0x15 DUP2 LT ISZERO PUSH2 0x129 JUMPI PUSH2 0x320 DUP4 ADD MSTORE PUSH2 0x340 DUP2 ADD MLOAD PUSH1 0xC3 DUP2 LT ISZERO PUSH2 0x129 JUMPI PUSH2 0x340 DUP4 ADD MSTORE PUSH2 0x360 DUP2 ADD MLOAD PUSH1 0x85 DUP2 LT ISZERO PUSH2 0x129 JUMPI PUSH2 0x360 DUP4 ADD MSTORE PUSH2 0x380 DUP2 ADD MLOAD PUSH1 0x83 DUP2 LT ISZERO PUSH2 0x129 JUMPI PUSH2 0x380 DUP4 ADD MSTORE PUSH2 0x3A0 DUP2 ADD MLOAD PUSH1 0x7A DUP2 LT ISZERO PUSH2 0x129 JUMPI PUSH2 0x3A0 DUP4 ADD MSTORE PUSH2 0x3C0 SWAP1 DUP2 ADD MLOAD SWAP2 PUSH2 0x3D6 DUP4 PUSH2 0x13D JUMP JUMPDEST ADD MSTORE SWAP1 JUMP JUMPDEST SWAP1 SWAP2 SWAP5 PUSH1 0x20 PUSH1 0xA0 PUSH1 0x1 SWAP3 PUSH1 0xFF DUP4 PUSH1 0x60 DUP12 MLOAD PUSH2 0x3F7 DUP6 DUP3 MLOAD PUSH2 0x11C JUMP JUMPDEST DUP4 DUP4 DUP3 ADD MLOAD AND DUP4 DUP7 ADD MSTORE PUSH1 0x40 DUP2 ADD MLOAD ISZERO ISZERO PUSH1 0x40 DUP7 ADD MSTORE ADD MLOAD PUSH2 0x41D PUSH1 0x60 DUP6 ADD DUP3 MLOAD PUSH2 0x11C JUMP JUMPDEST ADD MLOAD AND PUSH1 0x80 DUP3 ADD MSTORE ADD SWAP7 ADD SWAP3 SWAP2 ADD PUSH2 0x17B JUMP JUMPDEST PUSH1 0x40 DUP2 ADD SWAP1 DUP2 LT PUSH8 0xFFFFFFFFFFFFFFFF DUP3 GT OR PUSH2 0x44C JUMPI PUSH1 0x40 MSTORE JUMP JUMPDEST PUSH4 0x4E487B71 PUSH1 0xE0 SHL PUSH0 MSTORE PUSH1 0x41 PUSH1 0x4 MSTORE PUSH1 0x24 PUSH0 REVERT JUMPDEST SWAP1 PUSH1 0x1F DUP1 NOT SWAP2 ADD AND DUP2 ADD SWAP1 DUP2 LT PUSH8 0xFFFFFFFFFFFFFFFF DUP3 GT OR PUSH2 0x44C JUMPI PUSH1 0x40 MSTORE JUMP JUMPDEST PUSH1 0x40 MLOAD SWAP1 PUSH2 0x3E0 DUP3 ADD DUP3 DUP2 LT PUSH8 0xFFFFFFFFFFFFFFFF DUP3 GT OR PUSH2 0x44C JUMPI PUSH1 0x40 MSTORE PUSH0 PUSH2 0x3C0 DUP4 PUSH1 0x60 DUP2 MSTORE DUP3 PUSH1 0x20 DUP3 ADD MSTORE DUP3 PUSH1 0x40 DUP3 ADD MSTORE DUP3 PUSH1 0x60 DUP3 ADD MSTORE DUP3 PUSH1 0x80 DUP3 ADD MSTORE DUP3 PUSH1 0xA0 DUP3 ADD MSTORE DUP3 PUSH1 0xC0 DUP3 ADD MSTORE DUP3 PUSH1 0xE0 DUP3 ADD MSTORE DUP3 PUSH2 0x100 DUP3 ADD MSTORE DUP3 PUSH2 0x120 DUP3 ADD MSTORE DUP3 PUSH2 0x140 DUP3 ADD MSTORE DUP3 PUSH2 0x160 DUP3 ADD MSTORE DUP3 PUSH2 0x180 DUP3 ADD MSTORE DUP3 PUSH2 0x1A0 DUP3 ADD MSTORE DUP3 PUSH2 0x1C0 DUP3 ADD MSTORE DUP3 PUSH2 0x1E0 DUP3 ADD MSTORE DUP3 PUSH2 0x200 DUP3 ADD MSTORE DUP3 PUSH2 0x220 DUP3 ADD MSTORE DUP3 PUSH2 0x240 DUP3 ADD MSTORE DUP3 PUSH2 0x260 DUP3 ADD MSTORE DUP3 PUSH2 0x280 DUP3 ADD MSTORE DUP3 PUSH2 0x2A0 DUP3 ADD MSTORE DUP3 PUSH2 0x2C0 DUP3 ADD MSTORE DUP3 PUSH2 0x2E0 DUP3 ADD MSTORE DUP3 PUSH2 0x300 DUP3 ADD MSTORE DUP3 PUSH2 0x320 DUP3 ADD MSTORE DUP3 PUSH2 0x340 DUP3 ADD MSTORE DUP3 PUSH2 0x360 DUP3 ADD MSTORE DUP3 PUSH2 0x380 DUP3 ADD MSTORE DUP3 PUSH2 0x3A0 DUP3 ADD MSTORE ADD MSTORE JUMP JUMPDEST PUSH1 0x40 MLOAD SWAP1 PUSH2 0x57F DUP3 PUSH2 0x430 JUMP JUMPDEST PUSH0 PUSH1 0x20 DUP4 DUP3 DUP2 MSTORE ADD MSTORE JUMP JUMPDEST PUSH1 0x40 MLOAD SWAP1 PUSH1 0x80 DUP3 ADD DUP3 DUP2 LT PUSH8 0xFFFFFFFFFFFFFFFF DUP3 GT OR PUSH2 0x44C JUMPI PUSH1 0x40 MSTORE DUP2 PUSH0 DUP2 MSTORE PUSH0 PUSH1 0x20 DUP3 ADD MSTORE PUSH0 PUSH1 0x40 DUP3 ADD MSTORE PUSH1 0x60 PUSH1 0x40 MLOAD SWAP2 PUSH2 0x5C7 DUP4 PUSH2 0x430 JUMP JUMPDEST PUSH0 DUP4 MSTORE PUSH0 PUSH1 0x20 DUP5 ADD MSTORE ADD MSTORE JUMP JUMPDEST PUSH1 0x5 DUP3 LT ISZERO PUSH2 0x129 JUMPI MSTORE JUMP JUMPDEST SWAP1 PUSH1 0x20 PUSH2 0x5FA PUSH1 0x40 SWAP3 SWAP6 SWAP5 SWAP6 PUSH1 0x60 DUP6 MSTORE PUSH1 0x60 DUP6 ADD SWAP1 PUSH2 0x15B JUMP JUMPDEST SWAP5 DUP1 MLOAD DUP3 DUP6 ADD MSTORE ADD MLOAD SWAP2 ADD MSTORE JUMP JUMPDEST SWAP1 SWAP2 PUSH2 0x612 PUSH2 0x482 JUMP JUMPDEST POP PUSH2 0x61B PUSH2 0x572 JUMP JUMPDEST POP PUSH1 0x40 MLOAD PUSH1 0x20 DUP2 ADD SWAP2 PUSH2 0xFFFF DUP5 AND SWAP4 PUSH2 0xFFFF PUSH1 0xF0 SHL SWAP1 PUSH1 0xF0 SHL AND DUP4 MSTORE PUSH1 0x22 DUP3 ADD MSTORE PUSH1 0x22 DUP2 MSTORE PUSH2 0x64B PUSH1 0x42 DUP3 PUSH2 0x460 JUMP JUMPDEST MLOAD SWAP1 KECCAK256 SWAP1 PUSH1 0x40 MLOAD SWAP2 PUSH2 0x65C DUP4 PUSH2 0x430 JUMP JUMPDEST DUP3 MSTORE PUSH1 0x20 DUP3 ADD SWAP3 DUP2 DUP5 MSTORE PUSH2 0x66E PUSH2 0x482 JUMP JUMPDEST SWAP4 PUSH2 0x200 SWAP3 PUSH1 0x40 MLOAD PUSH2 0x680 DUP6 DUP3 PUSH2 0x460 JUMP JUMPDEST PUSH1 0xF DUP2 MSTORE PUSH1 0x1F NOT DUP6 ADD PUSH0 JUMPDEST DUP2 DUP2 LT PUSH2 0x1762 JUMPI POP POP DUP7 MSTORE DUP1 PUSH1 0x40 DUP8 ADD MSTORE PUSH1 0x10 DUP2 LT PUSH2 0x1747 JUMPI JUMPDEST POP DUP1 MLOAD PUSH0 NOT DUP2 EQ PUSH2 0xCC2 JUMPI PUSH4 0x1E098D0 PUSH1 0x1 PUSH4 0xFFFFFFFF SWAP3 ADD DUP1 DUP5 MSTORE DUP7 MLOAD SWAP1 PUSH1 0x40 MLOAD SWAP1 PUSH1 0x20 DUP3 ADD SWAP3 DUP4 MSTORE PUSH1 0x40 DUP3 ADD MSTORE PUSH1 0x40 DUP2 MSTORE PUSH2 0x6E3 PUSH1 0x60 DUP3 PUSH2 0x460 JUMP JUMPDEST MLOAD SWAP1 KECCAK256 DUP1 DUP8 MSTORE MOD PUSH4 0xF4865700 ADD AND PUSH1 0x80 DUP7 ADD MSTORE PUSH2 0xFFFF PUSH1 0x60 DUP7 ADD MLOAD AND DUP1 PUSH2 0x1643 JUMPI POP DUP1 MLOAD PUSH0 NOT DUP2 EQ PUSH2 0xCC2 JUMPI PUSH2 0x1D4C SWAP2 PUSH1 0x1 PUSH2 0x2710 SWAP3 ADD DUP1 SWAP2 MSTORE DUP6 MLOAD SWAP1 PUSH1 0x40 MLOAD SWAP1 PUSH1 0x20 DUP3 ADD SWAP3 DUP4 MSTORE PUSH1 0x40 DUP3 ADD MSTORE PUSH1 0x40 DUP2 MSTORE PUSH2 0x73F PUSH1 0x60 DUP3 PUSH2 0x460 JUMP JUMPDEST MLOAD SWAP1 KECCAK256 DUP1 DUP7 MSTORE MOD PUSH1 0x1 ADD GT PUSH2 0x163C JUMPI PUSH0 JUMPDEST PUSH1 0x2 DUP2 LT ISZERO PUSH2 0x129 JUMPI DUP1 PUSH1 0xA0 DUP7 ADD MSTORE ISZERO PUSH0 EQ PUSH2 0xFA0 JUMPI PUSH2 0xFFFF AND PUSH1 0x5 DUP2 LT ISZERO PUSH2 0x129 JUMPI PUSH2 0x780 SWAP1 PUSH1 0xC0 DUP6 ADD PUSH2 0x5D4 JUMP JUMPDEST PUSH2 0x789 DUP4 PUSH2 0x1779 JUMP JUMPDEST PUSH1 0x40 MLOAD PUSH4 0xF120BCF PUSH1 0xE4 SHL DUP2 MSTORE DUP3 MLOAD PUSH1 0x4 DUP3 ADD MSTORE PUSH1 0x20 DUP1 DUP5 ADD MLOAD PUSH1 0x24 DUP4 ADD MSTORE PUSH1 0x1 PUSH1 0x1 PUSH1 0xA0 SHL SUB PUSH32 0x0 AND SWAP3 SWAP2 SWAP1 DUP2 PUSH1 0x44 DUP2 DUP7 GAS STATICCALL SWAP1 DUP2 ISZERO PUSH2 0xC9B JUMPI PUSH0 SWAP2 PUSH2 0xF65 JUMPI JUMPDEST POP PUSH1 0xE0 DUP6 ADD SWAP1 PUSH1 0x1D DUP2 LT ISZERO PUSH2 0x129 JUMPI DUP2 MSTORE PUSH1 0x40 MLOAD PUSH4 0x34FF6B11 PUSH1 0xE1 SHL DUP2 MSTORE PUSH1 0x20 DUP2 DUP1 PUSH2 0x81A DUP9 DUP11 PUSH1 0x4 DUP5 ADD PUSH2 0x5E0 JUMP JUMPDEST SUB DUP2 DUP8 GAS STATICCALL SWAP1 DUP2 ISZERO PUSH2 0xC9B JUMPI PUSH0 SWAP2 PUSH2 0xF2A JUMPI JUMPDEST POP PUSH2 0x837 DUP2 PUSH2 0x13D JUMP JUMPDEST PUSH2 0x100 DUP7 ADD MSTORE PUSH1 0x40 MLOAD PUSH4 0xE0A6D26D PUSH1 0xE0 SHL DUP2 MSTORE PUSH1 0x20 DUP2 DUP1 PUSH2 0x85C DUP9 DUP11 PUSH1 0x4 DUP5 ADD PUSH2 0x5E0 JUMP JUMPDEST SUB DUP2 DUP8 GAS STATICCALL SWAP1 DUP2 ISZERO PUSH2 0xC9B JUMPI PUSH0 SWAP2 PUSH2 0xEEF JUMPI JUMPDEST POP PUSH1 0x14 DUP2 LT ISZERO PUSH2 0x129 JUMPI PUSH2 0x120 DUP7 ADD MSTORE PUSH1 0x40 MLOAD PUSH4 0x146E3EEF PUSH1 0xE0 SHL DUP2 MSTORE DUP5 MLOAD PUSH1 0x4 DUP3 ADD MSTORE PUSH1 0x20 DUP1 DUP7 ADD MLOAD PUSH1 0x24 DUP4 ADD MSTORE DUP2 PUSH1 0x44 DUP2 DUP8 GAS STATICCALL SWAP1 DUP2 ISZERO PUSH2 0xC9B JUMPI PUSH0 SWAP2 PUSH2 0xEB4 JUMPI JUMPDEST POP PUSH2 0x8BD DUP2 PUSH2 0x147 JUMP JUMPDEST PUSH2 0x140 DUP7 ADD MSTORE PUSH1 0x40 MLOAD PUSH4 0x757D2885 PUSH1 0xE1 SHL DUP2 MSTORE DUP5 MLOAD PUSH1 0x4 DUP3 ADD MSTORE PUSH1 0x20 DUP1 DUP7 ADD MLOAD PUSH1 0x24 DUP4 ADD MSTORE DUP2 PUSH1 0x44 DUP2 DUP8 GAS STATICCALL SWAP1 DUP2 ISZERO PUSH2 0xC9B JUMPI PUSH0 SWAP2 PUSH2 0xE79 JUMPI JUMPDEST POP PUSH2 0x901 DUP2 PUSH2 0x147 JUMP JUMPDEST PUSH2 0x160 DUP7 ADD MSTORE PUSH1 0x40 MLOAD PUSH4 0xD700A9F PUSH1 0xE2 SHL DUP2 MSTORE SWAP2 PUSH1 0x20 DUP4 DUP1 PUSH2 0x927 DUP9 DUP11 PUSH1 0x4 DUP5 ADD PUSH2 0x5E0 JUMP JUMPDEST SUB DUP2 DUP8 GAS STATICCALL SWAP3 DUP4 ISZERO PUSH2 0xC9B JUMPI PUSH0 SWAP4 PUSH2 0xE3C JUMPI JUMPDEST POP PUSH2 0x1A0 DUP7 ADD SWAP3 PUSH1 0x58 DUP2 LT ISZERO PUSH2 0x129 JUMPI DUP4 MSTORE PUSH1 0x40 MLOAD PUSH4 0xE7449565 PUSH1 0xE0 SHL DUP2 MSTORE DUP6 MLOAD PUSH1 0x4 DUP3 ADD MSTORE PUSH1 0x20 DUP1 DUP8 ADD MLOAD PUSH1 0x24 DUP4 ADD MSTORE DUP2 PUSH1 0x44 DUP2 DUP9 GAS STATICCALL SWAP1 DUP2 ISZERO PUSH2 0xC9B JUMPI PUSH0 SWAP2 PUSH2 0xE01 JUMPI JUMPDEST POP PUSH1 0x16 DUP2 LT ISZERO PUSH2 0x129 JUMPI PUSH2 0x1C0 DUP8 ADD MSTORE PUSH1 0x40 MLOAD PUSH4 0x4E87244F PUSH1 0xE0 SHL DUP2 MSTORE DUP6 MLOAD PUSH1 0x4 DUP3 ADD MSTORE PUSH1 0x20 DUP1 DUP8 ADD MLOAD PUSH1 0x24 DUP4 ADD MSTORE DUP2 PUSH1 0x44 DUP2 DUP9 GAS STATICCALL SWAP1 DUP2 ISZERO PUSH2 0xC9B JUMPI PUSH0 SWAP2 PUSH2 0xDC6 JUMPI JUMPDEST POP PUSH2 0x9CE DUP2 PUSH2 0x151 JUMP JUMPDEST PUSH2 0x180 DUP8 ADD MSTORE PUSH1 0x40 MLOAD PUSH4 0x6F209F41 PUSH1 0xE0 SHL DUP2 MSTORE PUSH1 0x20 DUP2 DUP1 PUSH2 0x9F3 DUP10 DUP12 PUSH1 0x4 DUP5 ADD PUSH2 0x5E0 JUMP JUMPDEST SUB DUP2 DUP9 GAS STATICCALL SWAP1 DUP2 ISZERO PUSH2 0xC9B JUMPI PUSH0 SWAP2 PUSH2 0xD8B JUMPI JUMPDEST POP PUSH1 0xD4 DUP2 LT ISZERO PUSH2 0x129 JUMPI PUSH2 0x1E0 DUP8 ADD MSTORE PUSH1 0x40 MLOAD PUSH4 0xEFAAA5C7 PUSH1 0xE0 SHL DUP2 MSTORE SWAP1 PUSH1 0x20 DUP3 DUP1 PUSH2 0xA36 DUP10 DUP12 PUSH1 0x4 DUP5 ADD PUSH2 0x5E0 JUMP JUMPDEST SUB DUP2 DUP9 GAS STATICCALL SWAP2 DUP3 ISZERO PUSH2 0xC9B JUMPI PUSH0 SWAP3 PUSH2 0xD4E JUMPI JUMPDEST POP PUSH1 0x6A DUP3 LT ISZERO PUSH2 0x129 JUMPI DUP7 ADD MSTORE PUSH1 0x40 MLOAD PUSH4 0x4F4F0D07 PUSH1 0xE0 SHL DUP2 MSTORE DUP5 MLOAD PUSH1 0x4 DUP3 ADD MSTORE PUSH1 0x20 DUP1 DUP7 ADD MLOAD PUSH1 0x24 DUP4 ADD MSTORE SWAP1 SWAP4 SWAP1 DUP5 PUSH1 0x44 DUP2 DUP5 GAS STATICCALL SWAP4 DUP5 ISZERO PUSH2 0xC9B JUMPI PUSH0 SWAP5 PUSH2 0xD11 JUMPI JUMPDEST POP PUSH2 0x220 DUP7 ADD SWAP4 PUSH1 0xA9 DUP2 LT ISZERO PUSH2 0x129 JUMPI DUP5 MSTORE PUSH1 0x40 MLOAD PUSH4 0x21595D4F PUSH1 0xE1 SHL DUP2 MSTORE DUP6 MLOAD PUSH1 0x4 DUP3 ADD MSTORE PUSH1 0x20 DUP1 DUP8 ADD MLOAD PUSH1 0x24 DUP4 ADD MSTORE SWAP1 SWAP2 DUP3 SWAP1 PUSH1 0x44 SWAP1 DUP3 SWAP1 GAS STATICCALL SWAP1 DUP2 ISZERO PUSH2 0xC9B JUMPI PUSH0 SWAP2 PUSH2 0xCD6 JUMPI JUMPDEST POP PUSH1 0x80 DUP2 LT ISZERO PUSH2 0x129 JUMPI PUSH2 0x240 DUP7 ADD MSTORE MLOAD PUSH1 0x1D DUP2 LT ISZERO PUSH2 0x129 JUMPI PUSH2 0xAF9 PUSH2 0x58A JUMP JUMPDEST SWAP1 PUSH1 0xFF SWAP1 PUSH1 0x2 DUP4 MSTORE AND PUSH1 0x20 DUP3 ADD MSTORE PUSH0 PUSH1 0x40 DUP3 ADD MSTORE PUSH2 0xB2E DUP6 MLOAD SWAP2 PUSH1 0x20 DUP8 ADD SWAP3 PUSH1 0xFF DUP5 MLOAD AND SWAP2 PUSH2 0xB28 DUP4 DUP4 PUSH2 0x20F8 JUMP JUMPDEST MSTORE PUSH2 0x20F8 JUMP JUMPDEST POP PUSH1 0xFF DUP2 MLOAD AND PUSH1 0xFF DUP2 EQ PUSH2 0xCC2 JUMPI PUSH1 0x1 ADD PUSH1 0xFF AND SWAP1 MSTORE PUSH2 0xB4D DUP5 PUSH2 0x1BD9 JUMP JUMPDEST PUSH2 0xB56 DUP5 PUSH2 0x1C3F JUMP JUMPDEST PUSH2 0xB5F DUP5 PUSH2 0x1C93 JUMP JUMPDEST PUSH2 0xB68 DUP5 PUSH2 0x1CF9 JUMP JUMPDEST MLOAD PUSH1 0x58 DUP2 LT ISZERO PUSH2 0x129 JUMPI ISZERO PUSH2 0xCB4 JUMPI PUSH2 0xB80 DUP4 PUSH2 0x1DB3 JUMP JUMPDEST PUSH2 0xB89 DUP4 PUSH2 0x1E07 JUMP JUMPDEST MLOAD PUSH1 0xA9 DUP2 LT ISZERO PUSH2 0x129 JUMPI PUSH2 0xBD5 SWAP2 PUSH1 0x20 SWAP2 ISZERO PUSH2 0xCA6 JUMPI PUSH2 0xBA8 DUP5 PUSH2 0x1EC1 JUMP JUMPDEST PUSH2 0xBB1 DUP5 PUSH2 0x1F15 JUMP JUMPDEST PUSH2 0xBBA DUP5 PUSH2 0x2042 JUMP JUMPDEST PUSH1 0x40 MLOAD DUP1 SWAP4 DUP2 SWAP3 PUSH4 0x3B13CD69 PUSH1 0xE0 SHL DUP4 MSTORE DUP7 PUSH1 0x4 DUP5 ADD PUSH2 0x5E0 JUMP JUMPDEST SUB DUP2 PUSH32 0x0 PUSH1 0x1 PUSH1 0x1 PUSH1 0xA0 SHL SUB AND GAS STATICCALL SWAP1 DUP2 ISZERO PUSH2 0xC9B JUMPI PUSH0 SWAP2 PUSH2 0xC60 JUMPI JUMPDEST POP PUSH2 0xC1B DUP2 PUSH2 0x13D JUMP JUMPDEST PUSH2 0x3C0 DUP3 ADD MSTORE PUSH2 0x320 DUP2 ADD MLOAD PUSH1 0x15 DUP2 LT ISZERO PUSH2 0x129 JUMPI ISZERO DUP1 PUSH2 0xC4A JUMPI JUMPDEST PUSH2 0xC3E JUMPI SWAP1 JUMP JUMPDEST PUSH2 0xC47 DUP2 PUSH2 0x2096 JUMP JUMPDEST SWAP1 JUMP JUMPDEST POP PUSH2 0x1C0 DUP2 ADD MLOAD PUSH1 0x16 DUP2 LT ISZERO PUSH2 0x129 JUMPI ISZERO PUSH2 0xC37 JUMP JUMPDEST SWAP1 POP PUSH1 0x20 DUP2 RETURNDATASIZE PUSH1 0x20 GT PUSH2 0xC93 JUMPI JUMPDEST DUP2 PUSH2 0xC7B PUSH1 0x20 SWAP4 DUP4 PUSH2 0x460 JUMP JUMPDEST DUP2 ADD SUB SLT PUSH2 0x93 JUMPI MLOAD PUSH1 0x17 DUP2 LT ISZERO PUSH2 0x93 JUMPI PUSH0 PUSH2 0xC11 JUMP JUMPDEST RETURNDATASIZE SWAP2 POP PUSH2 0xC6E JUMP JUMPDEST PUSH1 0x40 MLOAD RETURNDATASIZE PUSH0 DUP3 RETURNDATACOPY RETURNDATASIZE SWAP1 REVERT JUMPDEST PUSH2 0xCAF DUP5 PUSH2 0x1E6D JUMP JUMPDEST PUSH2 0xBA8 JUMP JUMPDEST PUSH2 0xCBD DUP4 PUSH2 0x1D5F JUMP JUMPDEST PUSH2 0xB80 JUMP JUMPDEST PUSH4 0x4E487B71 PUSH1 0xE0 SHL PUSH0 MSTORE PUSH1 0x11 PUSH1 0x4 MSTORE PUSH1 0x24 PUSH0 REVERT JUMPDEST SWAP1 POP PUSH1 0x20 DUP2 RETURNDATASIZE PUSH1 0x20 GT PUSH2 0xD09 JUMPI JUMPDEST DUP2 PUSH2 0xCF1 PUSH1 0x20 SWAP4 DUP4 PUSH2 0x460 JUMP JUMPDEST DUP2 ADD SUB SLT PUSH2 0x93 JUMPI MLOAD PUSH1 0x80 DUP2 LT ISZERO PUSH2 0x93 JUMPI PUSH0 PUSH2 0xAD7 JUMP JUMPDEST RETURNDATASIZE SWAP2 POP PUSH2 0xCE4 JUMP JUMPDEST SWAP1 SWAP4 POP PUSH1 0x20 DUP2 RETURNDATASIZE PUSH1 0x20 GT PUSH2 0xD46 JUMPI JUMPDEST DUP2 PUSH2 0xD2D PUSH1 0x20 SWAP4 DUP4 PUSH2 0x460 JUMP JUMPDEST DUP2 ADD SUB SLT PUSH2 0x93 JUMPI MLOAD PUSH1 0xA9 DUP2 LT ISZERO PUSH2 0x93 JUMPI SWAP3 PUSH0 PUSH2 0xA8D JUMP JUMPDEST RETURNDATASIZE SWAP2 POP PUSH2 0xD20 JUMP JUMPDEST SWAP1 SWAP2 POP PUSH1 0x20 DUP2 RETURNDATASIZE PUSH1 0x20 GT PUSH2 0xD83 JUMPI JUMPDEST DUP2 PUSH2 0xD6A PUSH1 0x20 SWAP4 DUP4 PUSH2 0x460 JUMP JUMPDEST DUP2 ADD SUB SLT PUSH2 0x93 JUMPI MLOAD PUSH1 0x6A DUP2 LT ISZERO PUSH2 0x93 JUMPI SWAP1 PUSH0 PUSH2 0xA49 JUMP JUMPDEST RETURNDATASIZE SWAP2 POP PUSH2 0xD5D JUMP JUMPDEST SWAP1 POP PUSH1 0x20 DUP2 RETURNDATASIZE PUSH1 0x20 GT PUSH2 0xDBE JUMPI JUMPDEST DUP2 PUSH2 0xDA6 PUSH1 0x20 SWAP4 DUP4 PUSH2 0x460 JUMP JUMPDEST DUP2 ADD SUB SLT PUSH2 0x93 JUMPI MLOAD PUSH1 0xD4 DUP2 LT ISZERO PUSH2 0x93 JUMPI PUSH0 PUSH2 0xA06 JUMP JUMPDEST RETURNDATASIZE SWAP2 POP PUSH2 0xD99 JUMP JUMPDEST SWAP1 POP PUSH1 0x20 DUP2 RETURNDATASIZE PUSH1 0x20 GT PUSH2 0xDF9 JUMPI JUMPDEST DUP2 PUSH2 0xDE1 PUSH1 0x20 SWAP4 DUP4 PUSH2 0x460 JUMP JUMPDEST DUP2 ADD SUB SLT PUSH2 0x93 JUMPI MLOAD PUSH1 0x4 DUP2 LT ISZERO PUSH2 0x93 JUMPI PUSH0 PUSH2 0x9C4 JUMP JUMPDEST RETURNDATASIZE SWAP2 POP PUSH2 0xDD4 JUMP JUMPDEST SWAP1 POP PUSH1 0x20 DUP2 RETURNDATASIZE PUSH1 0x20 GT PUSH2 0xE34 JUMPI JUMPDEST DUP2 PUSH2 0xE1C PUSH1 0x20 SWAP4 DUP4 PUSH2 0x460 JUMP JUMPDEST DUP2 ADD SUB SLT PUSH2 0x93 JUMPI MLOAD PUSH1 0x16 DUP2 LT ISZERO PUSH2 0x93 JUMPI PUSH0 PUSH2 0x980 JUMP JUMPDEST RETURNDATASIZE SWAP2 POP PUSH2 0xE0F JUMP JUMPDEST SWAP1 SWAP3 POP PUSH1 0x20 DUP2 RETURNDATASIZE PUSH1 0x20 GT PUSH2 0xE71 JUMPI JUMPDEST DUP2 PUSH2 0xE58 PUSH1 0x20 SWAP4 DUP4 PUSH2 0x460 JUMP JUMPDEST DUP2 ADD SUB SLT PUSH2 0x93 JUMPI MLOAD PUSH1 0x58 DUP2 LT ISZERO PUSH2 0x93 JUMPI SWAP2 PUSH0 PUSH2 0x93A JUMP JUMPDEST RETURNDATASIZE SWAP2 POP PUSH2 0xE4B JUMP JUMPDEST SWAP1 POP PUSH1 0x20 DUP2 RETURNDATASIZE PUSH1 0x20 GT PUSH2 0xEAC JUMPI JUMPDEST DUP2 PUSH2 0xE94 PUSH1 0x20 SWAP4 DUP4 PUSH2 0x460 JUMP JUMPDEST DUP2 ADD SUB SLT PUSH2 0x93 JUMPI MLOAD PUSH1 0x9 DUP2 LT ISZERO PUSH2 0x93 JUMPI PUSH0 PUSH2 0x8F7 JUMP JUMPDEST RETURNDATASIZE SWAP2 POP PUSH2 0xE87 JUMP JUMPDEST SWAP1 POP PUSH1 0x20 DUP2 RETURNDATASIZE PUSH1 0x20 GT PUSH2 0xEE7 JUMPI JUMPDEST DUP2 PUSH2 0xECF PUSH1 0x20 SWAP4 DUP4 PUSH2 0x460 JUMP JUMPDEST DUP2 ADD SUB SLT PUSH2 0x93 JUMPI MLOAD PUSH1 0x9 DUP2 LT ISZERO PUSH2 0x93 JUMPI PUSH0 PUSH2 0x8B3 JUMP JUMPDEST RETURNDATASIZE SWAP2 POP PUSH2 0xEC2 JUMP JUMPDEST SWAP1 POP PUSH1 0x20 DUP2 RETURNDATASIZE PUSH1 0x20 GT PUSH2 0xF22 JUMPI JUMPDEST DUP2 PUSH2 0xF0A PUSH1 0x20 SWAP4 DUP4 PUSH2 0x460 JUMP JUMPDEST DUP2 ADD SUB SLT PUSH2 0x93 JUMPI MLOAD PUSH1 0x14 DUP2 LT ISZERO PUSH2 0x93 JUMPI PUSH0 PUSH2 0x86F JUMP JUMPDEST RETURNDATASIZE SWAP2 POP PUSH2 0xEFD JUMP JUMPDEST SWAP1 POP PUSH1 0x20 DUP2 RETURNDATASIZE PUSH1 0x20 GT PUSH2 0xF5D JUMPI JUMPDEST DUP2 PUSH2 0xF45 PUSH1 0x20 SWAP4 DUP4 PUSH2 0x460 JUMP JUMPDEST DUP2 ADD SUB SLT PUSH2 0x93 JUMPI MLOAD PUSH1 0x17 DUP2 LT ISZERO PUSH2 0x93 JUMPI PUSH0 PUSH2 0x82D JUMP JUMPDEST RETURNDATASIZE SWAP2 POP PUSH2 0xF38 JUMP JUMPDEST SWAP1 POP PUSH1 0x20 DUP2 RETURNDATASIZE PUSH1 0x20 GT PUSH2 0xF98 JUMPI JUMPDEST DUP2 PUSH2 0xF80 PUSH1 0x20 SWAP4 DUP4 PUSH2 0x460 JUMP JUMPDEST DUP2 ADD SUB SLT PUSH2 0x93 JUMPI MLOAD PUSH1 0x1D DUP2 LT ISZERO PUSH2 0x93 JUMPI PUSH0 PUSH2 0x7EA JUMP JUMPDEST RETURNDATASIZE SWAP2 POP PUSH2 0xF73 JUMP JUMPDEST PUSH2 0xFFFF SWAP2 POP AND PUSH1 0x5 DUP2 LT ISZERO PUSH2 0x129 JUMPI PUSH2 0xFBC SWAP1 PUSH1 0xC0 DUP5 ADD PUSH2 0x5D4 JUMP JUMPDEST PUSH2 0xFC5 DUP3 PUSH2 0x1779 JUMP JUMPDEST PUSH1 0x40 MLOAD PUSH4 0x6AD3733 PUSH1 0xE5 SHL DUP2 MSTORE DUP2 MLOAD PUSH1 0x4 DUP3 ADD MSTORE PUSH1 0x20 DUP1 DUP4 ADD MLOAD PUSH1 0x24 DUP4 ADD MSTORE PUSH1 0x1 PUSH1 0x1 PUSH1 0xA0 SHL SUB PUSH32 0x0 AND SWAP2 SWAP1 DUP2 PUSH1 0x44 DUP2 DUP6 GAS STATICCALL SWAP1 DUP2 ISZERO PUSH2 0xC9B JUMPI PUSH0 SWAP2 PUSH2 0x1601 JUMPI JUMPDEST POP PUSH2 0x260 DUP5 ADD SWAP1 PUSH1 0x1A DUP2 LT ISZERO PUSH2 0x129 JUMPI DUP2 MSTORE PUSH1 0x40 MLOAD PUSH4 0x292AF1E7 PUSH1 0xE1 SHL DUP2 MSTORE PUSH1 0x20 DUP2 DUP1 PUSH2 0x1056 DUP8 DUP10 PUSH1 0x4 DUP5 ADD PUSH2 0x5E0 JUMP JUMPDEST SUB DUP2 DUP7 GAS STATICCALL SWAP1 DUP2 ISZERO PUSH2 0xC9B JUMPI PUSH0 SWAP2 PUSH2 0x15C6 JUMPI JUMPDEST POP PUSH1 0x1F DUP2 LT ISZERO PUSH2 0x129 JUMPI PUSH2 0x280 DUP6 ADD MSTORE PUSH1 0x40 MLOAD PUSH4 0x3F07A23D PUSH1 0xE0 SHL DUP2 MSTORE PUSH1 0x20 DUP2 DUP1 PUSH2 0x1098 DUP8 DUP10 PUSH1 0x4 DUP5 ADD PUSH2 0x5E0 JUMP JUMPDEST SUB DUP2 DUP7 GAS STATICCALL SWAP1 DUP2 ISZERO PUSH2 0xC9B JUMPI PUSH0 SWAP2 PUSH2 0x158B JUMPI JUMPDEST POP PUSH1 0x13 DUP2 LT ISZERO PUSH2 0x129 JUMPI PUSH2 0x2A0 DUP6 ADD MSTORE PUSH1 0x40 MLOAD PUSH4 0x29814BE5 PUSH1 0xE0 SHL DUP2 MSTORE DUP4 MLOAD PUSH1 0x4 DUP3 ADD MSTORE PUSH1 0x20 DUP1 DUP6 ADD MLOAD PUSH1 0x24 DUP4 ADD MSTORE DUP2 PUSH1 0x44 DUP2 DUP7 GAS STATICCALL SWAP1 DUP2 ISZERO PUSH2 0xC9B JUMPI PUSH0 SWAP2 PUSH2 0x1550 JUMPI JUMPDEST POP PUSH2 0x10F9 DUP2 PUSH2 0x147 JUMP JUMPDEST PUSH2 0x2C0 DUP6 ADD MSTORE PUSH1 0x40 MLOAD PUSH4 0x8E57A737 PUSH1 0xE0 SHL DUP2 MSTORE DUP4 MLOAD PUSH1 0x4 DUP3 ADD MSTORE PUSH1 0x20 DUP1 DUP6 ADD MLOAD PUSH1 0x24 DUP4 ADD MSTORE DUP2 PUSH1 0x44 DUP2 DUP7 GAS STATICCALL SWAP1 DUP2 ISZERO PUSH2 0xC9B JUMPI PUSH0 SWAP2 PUSH2 0x1515 JUMPI JUMPDEST POP PUSH2 0x113D DUP2 PUSH2 0x147 JUMP JUMPDEST PUSH2 0x2E0 DUP6 ADD MSTORE PUSH1 0x40 MLOAD PUSH4 0x7067A81D PUSH1 0xE1 SHL DUP2 MSTORE DUP4 MLOAD PUSH1 0x4 DUP3 ADD MSTORE PUSH1 0x20 DUP1 DUP6 ADD MLOAD PUSH1 0x24 DUP4 ADD MSTORE DUP2 PUSH1 0x44 DUP2 DUP7 GAS STATICCALL SWAP1 DUP2 ISZERO PUSH2 0xC9B JUMPI PUSH0 SWAP2 PUSH2 0x14DA JUMPI JUMPDEST POP PUSH1 0x15 DUP2 LT ISZERO PUSH2 0x129 JUMPI PUSH2 0x320 DUP6 ADD MSTORE PUSH1 0x40 MLOAD PUSH4 0x3A4A9D71 PUSH1 0xE1 SHL DUP2 MSTORE DUP4 MLOAD PUSH1 0x4 DUP3 ADD MSTORE PUSH1 0x20 DUP1 DUP6 ADD MLOAD PUSH1 0x24 DUP4 ADD MSTORE DUP2 PUSH1 0x44 DUP2 DUP7 GAS STATICCALL SWAP1 DUP2 ISZERO PUSH2 0xC9B JUMPI PUSH0 SWAP2 PUSH2 0x149F JUMPI JUMPDEST POP PUSH2 0x11C5 DUP2 PUSH2 0x151 JUMP JUMPDEST PUSH2 0x300 DUP6 ADD MSTORE PUSH1 0x40 MLOAD PUSH4 0x5A995063 PUSH1 0xE0 SHL DUP2 MSTORE PUSH1 0x20 DUP2 DUP1 PUSH2 0x11EA DUP8 DUP10 PUSH1 0x4 DUP5 ADD PUSH2 0x5E0 JUMP JUMPDEST SUB DUP2 DUP7 GAS STATICCALL SWAP1 DUP2 ISZERO PUSH2 0xC9B JUMPI PUSH0 SWAP2 PUSH2 0x1464 JUMPI JUMPDEST POP PUSH1 0xC3 DUP2 LT ISZERO PUSH2 0x129 JUMPI PUSH2 0x340 DUP6 ADD MSTORE PUSH1 0x40 MLOAD PUSH4 0x323BE1A9 PUSH1 0xE2 SHL DUP2 MSTORE PUSH1 0x20 DUP2 DUP1 PUSH2 0x122C DUP8 DUP10 PUSH1 0x4 DUP5 ADD PUSH2 0x5E0 JUMP JUMPDEST SUB DUP2 DUP7 GAS STATICCALL SWAP1 DUP2 ISZERO PUSH2 0xC9B JUMPI PUSH0 SWAP2 PUSH2 0x1429 JUMPI JUMPDEST POP PUSH1 0x85 DUP2 LT ISZERO PUSH2 0x129 JUMPI PUSH2 0x360 DUP6 ADD MSTORE PUSH1 0x40 MLOAD PUSH4 0x2743C88F PUSH1 0xE0 SHL DUP2 MSTORE DUP4 MLOAD PUSH1 0x4 DUP3 ADD MSTORE PUSH1 0x20 DUP1 DUP6 ADD MLOAD PUSH1 0x24 DUP4 ADD MSTORE SWAP1 SWAP3 SWAP1 DUP4 PUSH1 0x44 DUP2 DUP5 GAS STATICCALL SWAP3 DUP4 ISZERO PUSH2 0xC9B JUMPI PUSH0 SWAP4 PUSH2 0x13EC JUMPI JUMPDEST POP PUSH2 0x380 DUP6 ADD SWAP3 PUSH1 0x83 DUP2 LT ISZERO PUSH2 0x129 JUMPI DUP4 MSTORE PUSH1 0x40 MLOAD PUSH4 0xA063F74F PUSH1 0xE0 SHL DUP2 MSTORE DUP5 MLOAD PUSH1 0x4 DUP3 ADD MSTORE PUSH1 0x20 DUP1 DUP7 ADD MLOAD PUSH1 0x24 DUP4 ADD MSTORE SWAP1 SWAP2 DUP3 SWAP1 PUSH1 0x44 SWAP1 DUP3 SWAP1 GAS STATICCALL SWAP1 DUP2 ISZERO PUSH2 0xC9B JUMPI PUSH0 SWAP2 PUSH2 0x13B1 JUMPI JUMPDEST POP PUSH1 0x7A DUP2 LT ISZERO PUSH2 0x129 JUMPI PUSH2 0x3A0 DUP6 ADD MSTORE MLOAD PUSH1 0x1A DUP2 LT ISZERO PUSH2 0x129 JUMPI PUSH2 0x12F2 PUSH2 0x58A JUMP JUMPDEST SWAP1 PUSH1 0xFF SWAP1 PUSH1 0xE DUP4 MSTORE AND PUSH1 0x20 DUP3 ADD MSTORE PUSH0 PUSH1 0x40 DUP3 ADD MSTORE PUSH2 0x1321 DUP5 MLOAD SWAP2 PUSH1 0x20 DUP7 ADD SWAP3 PUSH1 0xFF DUP5 MLOAD AND SWAP2 PUSH2 0xB28 DUP4 DUP4 PUSH2 0x20F8 JUMP JUMPDEST POP PUSH1 0xFF DUP2 MLOAD AND PUSH1 0xFF DUP2 EQ PUSH2 0xCC2 JUMPI PUSH1 0x1 ADD PUSH1 0xFF AND SWAP1 MSTORE PUSH2 0x1340 DUP4 PUSH2 0x17D4 JUMP JUMPDEST PUSH2 0x1349 DUP4 PUSH2 0x182C JUMP JUMPDEST PUSH2 0x1352 DUP4 PUSH2 0x1880 JUMP JUMPDEST PUSH2 0x135B DUP4 PUSH2 0x18E6 JUMP JUMPDEST PUSH2 0x1364 DUP4 PUSH2 0x194C JUMP JUMPDEST PUSH2 0x136D DUP4 PUSH2 0x19A0 JUMP JUMPDEST MLOAD PUSH1 0x83 DUP2 LT ISZERO PUSH2 0x129 JUMPI PUSH2 0xBD5 SWAP2 PUSH1 0x20 SWAP2 ISZERO PUSH2 0x13A3 JUMPI PUSH2 0x138C DUP5 PUSH2 0x1A5A JUMP JUMPDEST PUSH2 0x1395 DUP5 PUSH2 0x1AAE JUMP JUMPDEST PUSH2 0x139E DUP5 PUSH2 0x1B85 JUMP JUMPDEST PUSH2 0xBBA JUMP JUMPDEST PUSH2 0x13AC DUP5 PUSH2 0x1A06 JUMP JUMPDEST PUSH2 0x138C JUMP JUMPDEST SWAP1 POP PUSH1 0x20 DUP2 RETURNDATASIZE PUSH1 0x20 GT PUSH2 0x13E4 JUMPI JUMPDEST DUP2 PUSH2 0x13CC PUSH1 0x20 SWAP4 DUP4 PUSH2 0x460 JUMP JUMPDEST DUP2 ADD SUB SLT PUSH2 0x93 JUMPI MLOAD PUSH1 0x7A DUP2 LT ISZERO PUSH2 0x93 JUMPI PUSH0 PUSH2 0x12D0 JUMP JUMPDEST RETURNDATASIZE SWAP2 POP PUSH2 0x13BF JUMP JUMPDEST SWAP1 SWAP3 POP PUSH1 0x20 DUP2 RETURNDATASIZE PUSH1 0x20 GT PUSH2 0x1421 JUMPI JUMPDEST DUP2 PUSH2 0x1408 PUSH1 0x20 SWAP4 DUP4 PUSH2 0x460 JUMP JUMPDEST DUP2 ADD SUB SLT PUSH2 0x93 JUMPI MLOAD PUSH1 0x83 DUP2 LT ISZERO PUSH2 0x93 JUMPI SWAP2 PUSH0 PUSH2 0x1286 JUMP JUMPDEST RETURNDATASIZE SWAP2 POP PUSH2 0x13FB JUMP JUMPDEST SWAP1 POP PUSH1 0x20 DUP2 RETURNDATASIZE PUSH1 0x20 GT PUSH2 0x145C JUMPI JUMPDEST DUP2 PUSH2 0x1444 PUSH1 0x20 SWAP4 DUP4 PUSH2 0x460 JUMP JUMPDEST DUP2 ADD SUB SLT PUSH2 0x93 JUMPI MLOAD PUSH1 0x85 DUP2 LT ISZERO PUSH2 0x93 JUMPI PUSH0 PUSH2 0x123F JUMP JUMPDEST RETURNDATASIZE SWAP2 POP PUSH2 0x1437 JUMP JUMPDEST SWAP1 POP PUSH1 0x20 DUP2 RETURNDATASIZE PUSH1 0x20 GT PUSH2 0x1497 JUMPI JUMPDEST DUP2 PUSH2 0x147F PUSH1 0x20 SWAP4 DUP4 PUSH2 0x460 JUMP JUMPDEST DUP2 ADD SUB SLT PUSH2 0x93 JUMPI MLOAD PUSH1 0xC3 DUP2 LT ISZERO PUSH2 0x93 JUMPI PUSH0 PUSH2 0x11FD JUMP JUMPDEST RETURNDATASIZE SWAP2 POP PUSH2 0x1472 JUMP JUMPDEST SWAP1 POP PUSH1 0x20 DUP2 RETURNDATASIZE PUSH1 0x20 GT PUSH2 0x14D2 JUMPI JUMPDEST DUP2 PUSH2 0x14BA PUSH1 0x20 SWAP4 DUP4 PUSH2 0x460 JUMP JUMPDEST DUP2 ADD SUB SLT PUSH2 0x93 JUMPI MLOAD PUSH1 0x4 DUP2 LT ISZERO PUSH2 0x93 JUMPI PUSH0 PUSH2 0x11BB JUMP JUMPDEST RETURNDATASIZE SWAP2 POP PUSH2 0x14AD JUMP JUMPDEST SWAP1 POP PUSH1 0x20 DUP2 RETURNDATASIZE PUSH1 0x20 GT PUSH2 0x150D JUMPI JUMPDEST DUP2 PUSH2 0x14F5 PUSH1 0x20 SWAP4 DUP4 PUSH2 0x460 JUMP JUMPDEST DUP2 ADD SUB SLT PUSH2 0x93 JUMPI MLOAD PUSH1 0x15 DUP2 LT ISZERO PUSH2 0x93 JUMPI PUSH0 PUSH2 0x1177 JUMP JUMPDEST RETURNDATASIZE SWAP2 POP PUSH2 0x14E8 JUMP JUMPDEST SWAP1 POP PUSH1 0x20 DUP2 RETURNDATASIZE PUSH1 0x20 GT PUSH2 0x1548 JUMPI JUMPDEST DUP2 PUSH2 0x1530 PUSH1 0x20 SWAP4 DUP4 PUSH2 0x460 JUMP JUMPDEST DUP2 ADD SUB SLT PUSH2 0x93 JUMPI MLOAD PUSH1 0x9 DUP2 LT ISZERO PUSH2 0x93 JUMPI PUSH0 PUSH2 0x1133 JUMP JUMPDEST RETURNDATASIZE SWAP2 POP PUSH2 0x1523 JUMP JUMPDEST SWAP1 POP PUSH1 0x20 DUP2 RETURNDATASIZE PUSH1 0x20 GT PUSH2 0x1583 JUMPI JUMPDEST DUP2 PUSH2 0x156B PUSH1 0x20 SWAP4 DUP4 PUSH2 0x460 JUMP JUMPDEST DUP2 ADD SUB SLT PUSH2 0x93 JUMPI MLOAD PUSH1 0x9 DUP2 LT ISZERO PUSH2 0x93 JUMPI PUSH0 PUSH2 0x10EF JUMP JUMPDEST RETURNDATASIZE SWAP2 POP PUSH2 0x155E JUMP JUMPDEST SWAP1 POP PUSH1 0x20 DUP2 RETURNDATASIZE PUSH1 0x20 GT PUSH2 0x15BE JUMPI JUMPDEST DUP2 PUSH2 0x15A6 PUSH1 0x20 SWAP4 DUP4 PUSH2 0x460 JUMP JUMPDEST DUP2 ADD SUB SLT PUSH2 0x93 JUMPI MLOAD PUSH1 0x13 DUP2 LT ISZERO PUSH2 0x93 JUMPI PUSH0 PUSH2 0x10AB JUMP JUMPDEST RETURNDATASIZE SWAP2 POP PUSH2 0x1599 JUMP JUMPDEST SWAP1 POP PUSH1 0x20 DUP2 RETURNDATASIZE PUSH1 0x20 GT PUSH2 0x15F9 JUMPI JUMPDEST DUP2 PUSH2 0x15E1 PUSH1 0x20 SWAP4 DUP4 PUSH2 0x460 JUMP JUMPDEST DUP2 ADD SUB SLT PUSH2 0x93 JUMPI MLOAD PUSH1 0x1F DUP2 LT ISZERO PUSH2 0x93 JUMPI PUSH0 PUSH2 0x1069 JUMP JUMPDEST RETURNDATASIZE SWAP2 POP PUSH2 0x15D4 JUMP JUMPDEST SWAP1 POP PUSH1 0x20 DUP2 RETURNDATASIZE PUSH1 0x20 GT PUSH2 0x1634 JUMPI JUMPDEST DUP2 PUSH2 0x161C PUSH1 0x20 SWAP4 DUP4 PUSH2 0x460 JUMP JUMPDEST DUP2 ADD SUB SLT PUSH2 0x93 JUMPI MLOAD PUSH1 0x1A DUP2 LT ISZERO PUSH2 0x93 JUMPI PUSH0 PUSH2 0x1025 JUMP JUMPDEST RETURNDATASIZE SWAP2 POP PUSH2 0x160F JUMP JUMPDEST PUSH1 0x1 PUSH2 0x750 JUMP JUMPDEST PUSH0 NOT ADD SWAP4 POP SWAP1 SWAP2 POP POP PUSH2 0xFFFF DUP3 GT PUSH2 0xCC2 JUMPI PUSH2 0xFFFF DUP3 AND PUSH1 0x4 DUP2 EQ SWAP1 DUP2 ISZERO PUSH2 0x173C JUMPI JUMPDEST DUP2 ISZERO PUSH2 0x1731 JUMPI JUMPDEST DUP2 ISZERO PUSH2 0x1726 JUMPI JUMPDEST DUP2 ISZERO PUSH2 0x171B JUMPI JUMPDEST DUP2 ISZERO PUSH2 0x1710 JUMPI JUMPDEST DUP2 ISZERO PUSH2 0x1705 JUMPI JUMPDEST POP PUSH2 0x1700 JUMPI PUSH2 0xFFFF AND PUSH1 0x5 DUP2 LT ISZERO PUSH2 0x129 JUMPI PUSH2 0x16A8 SWAP1 PUSH1 0xC0 DUP5 ADD PUSH2 0x5D4 JUMP JUMPDEST PUSH2 0x16B1 DUP3 PUSH2 0x1779 JUMP JUMPDEST PUSH2 0x16B9 PUSH2 0x58A JUMP JUMPDEST SWAP1 PUSH1 0xFF SWAP1 PUSH0 DUP4 MSTORE AND PUSH1 0x20 DUP3 ADD MSTORE PUSH0 PUSH1 0x40 DUP3 ADD MSTORE PUSH2 0x16E7 DUP3 MLOAD SWAP2 PUSH1 0x20 DUP5 ADD SWAP3 PUSH1 0xFF DUP5 MLOAD AND SWAP2 PUSH2 0xB28 DUP4 DUP4 PUSH2 0x20F8 JUMP JUMPDEST POP PUSH1 0xFF DUP2 MLOAD AND PUSH1 0xFF DUP2 EQ PUSH2 0xCC2 JUMPI PUSH1 0x1 ADD PUSH1 0xFF AND SWAP1 MSTORE SWAP1 JUMP JUMPDEST POP POP SWAP1 JUMP JUMPDEST PUSH1 0xD SWAP2 POP EQ PUSH0 PUSH2 0x1689 JUMP JUMPDEST PUSH1 0xB DUP2 EQ SWAP2 POP PUSH2 0x1682 JUMP JUMPDEST PUSH1 0x8 DUP2 EQ SWAP2 POP PUSH2 0x167B JUMP JUMPDEST PUSH1 0x7 DUP2 EQ SWAP2 POP PUSH2 0x1674 JUMP JUMPDEST PUSH1 0x6 DUP2 EQ SWAP2 POP PUSH2 0x166D JUMP JUMPDEST PUSH1 0x5 DUP2 EQ SWAP2 POP PUSH2 0x1666 JUMP JUMPDEST PUSH1 0x1 ADD PUSH2 0xFFFF DUP2 GT PUSH2 0xCC2 JUMPI PUSH2 0xFFFF AND PUSH1 0x60 DUP7 ADD MSTORE PUSH0 PUSH2 0x6A5 JUMP JUMPDEST PUSH1 0x20 SWAP1 PUSH2 0x176D PUSH2 0x58A JUMP JUMPDEST DUP3 DUP3 DUP7 ADD ADD MSTORE ADD PUSH2 0x68B JUMP JUMPDEST PUSH1 0xC0 DUP2 ADD MLOAD PUSH1 0x5 DUP2 LT ISZERO PUSH2 0x129 JUMPI PUSH2 0x178F PUSH2 0x58A JUMP JUMPDEST PUSH1 0xFF PUSH2 0x17BC SWAP3 PUSH1 0x1 DUP4 MSTORE AND PUSH1 0x20 DUP3 ADD MSTORE PUSH0 PUSH1 0x40 DUP3 ADD MSTORE PUSH1 0x20 DUP4 MLOAD SWAP4 ADD SWAP3 PUSH1 0xFF DUP5 MLOAD AND SWAP2 PUSH2 0xB28 DUP4 DUP4 PUSH2 0x20F8 JUMP JUMPDEST POP PUSH1 0xFF DUP2 MLOAD AND PUSH1 0xFF DUP2 EQ PUSH2 0xCC2 JUMPI PUSH1 0x1 ADD PUSH1 0xFF AND SWAP1 MSTORE JUMP JUMPDEST PUSH2 0x280 DUP2 ADD DUP1 MLOAD PUSH1 0x1F DUP2 LT ISZERO PUSH2 0x129 JUMPI ISZERO PUSH2 0x1828 JUMPI MLOAD PUSH1 0x1F DUP2 LT ISZERO PUSH2 0x129 JUMPI PUSH2 0x17FB PUSH2 0x58A JUMP JUMPDEST PUSH1 0xFF PUSH2 0x17BC SWAP3 PUSH1 0xF DUP4 MSTORE AND PUSH1 0x20 DUP3 ADD MSTORE PUSH0 PUSH1 0x40 DUP3 ADD MSTORE PUSH1 0x20 DUP4 MLOAD SWAP4 ADD SWAP3 PUSH1 0xFF DUP5 MLOAD AND SWAP2 PUSH2 0xB28 DUP4 DUP4 PUSH2 0x20F8 JUMP JUMPDEST POP POP JUMP JUMPDEST PUSH2 0x2A0 DUP2 ADD DUP1 MLOAD PUSH1 0x13 DUP2 LT ISZERO PUSH2 0x129 JUMPI ISZERO PUSH2 0x1828 JUMPI MLOAD PUSH1 0x13 DUP2 LT ISZERO PUSH2 0x129 JUMPI PUSH2 0x1853 PUSH2 0x58A JUMP JUMPDEST PUSH1 0xFF PUSH2 0x17BC SWAP3 PUSH1 0x10 DUP4 MSTORE AND PUSH1 0x20 DUP3 ADD MSTORE PUSH0 PUSH1 0x40 DUP3 ADD MSTORE PUSH1 0x20 DUP4 MLOAD SWAP4 ADD SWAP3 PUSH1 0xFF DUP5 MLOAD AND SWAP2 PUSH2 0xB28 DUP4 DUP4 PUSH2 0x20F8 JUMP JUMPDEST PUSH2 0x2C0 DUP2 ADD DUP1 MLOAD PUSH2 0x1890 DUP2 PUSH2 0x147 JUMP JUMPDEST PUSH2 0x1899 DUP2 PUSH2 0x147 JUMP JUMPDEST ISZERO PUSH2 0x1828 JUMPI MLOAD PUSH2 0x18A8 DUP2 PUSH2 0x147 JUMP JUMPDEST PUSH2 0x18B1 DUP2 PUSH2 0x147 JUMP JUMPDEST PUSH2 0x18B9 PUSH2 0x58A JUMP JUMPDEST PUSH1 0xFF PUSH2 0x17BC SWAP3 PUSH1 0x11 DUP4 MSTORE AND PUSH1 0x20 DUP3 ADD MSTORE PUSH0 PUSH1 0x40 DUP3 ADD MSTORE PUSH1 0x20 DUP4 MLOAD SWAP4 ADD SWAP3 PUSH1 0xFF DUP5 MLOAD AND SWAP2 PUSH2 0xB28 DUP4 DUP4 PUSH2 0x20F8 JUMP JUMPDEST PUSH2 0x2E0 DUP2 ADD DUP1 MLOAD PUSH2 0x18F6 DUP2 PUSH2 0x147 JUMP JUMPDEST PUSH2 0x18FF DUP2 PUSH2 0x147 JUMP JUMPDEST ISZERO PUSH2 0x1828 JUMPI MLOAD PUSH2 0x190E DUP2 PUSH2 0x147 JUMP JUMPDEST PUSH2 0x1917 DUP2 PUSH2 0x147 JUMP JUMPDEST PUSH2 0x191F PUSH2 0x58A JUMP JUMPDEST PUSH1 0xFF PUSH2 0x17BC SWAP3 PUSH1 0x12 DUP4 MSTORE AND PUSH1 0x20 DUP3 ADD MSTORE PUSH0 PUSH1 0x40 DUP3 ADD MSTORE PUSH1 0x20 DUP4 MLOAD SWAP4 ADD SWAP3 PUSH1 0xFF DUP5 MLOAD AND SWAP2 PUSH2 0xB28 DUP4 DUP4 PUSH2 0x20F8 JUMP JUMPDEST PUSH2 0x320 DUP2 ADD DUP1 MLOAD PUSH1 0x15 DUP2 LT ISZERO PUSH2 0x129 JUMPI ISZERO PUSH2 0x1828 JUMPI MLOAD PUSH1 0x15 DUP2 LT ISZERO PUSH2 0x129 JUMPI PUSH2 0x1973 PUSH2 0x58A JUMP JUMPDEST PUSH1 0xFF PUSH2 0x17BC SWAP3 PUSH1 0x13 DUP4 MSTORE AND PUSH1 0x20 DUP3 ADD MSTORE PUSH0 PUSH1 0x40 DUP3 ADD MSTORE PUSH1 0x20 DUP4 MLOAD SWAP4 ADD SWAP3 PUSH1 0xFF DUP5 MLOAD AND SWAP2 PUSH2 0xB28 DUP4 DUP4 PUSH2 0x20F8 JUMP JUMPDEST PUSH2 0x300 DUP2 ADD DUP1 MLOAD PUSH2 0x19B0 DUP2 PUSH2 0x151 JUMP JUMPDEST PUSH2 0x19B9 DUP2 PUSH2 0x151 JUMP JUMPDEST ISZERO PUSH2 0x1828 JUMPI MLOAD PUSH2 0x19C8 DUP2 PUSH2 0x151 JUMP JUMPDEST PUSH2 0x19D1 DUP2 PUSH2 0x151 JUMP JUMPDEST PUSH2 0x19D9 PUSH2 0x58A JUMP JUMPDEST PUSH1 0xFF PUSH2 0x17BC SWAP3 PUSH1 0x14 DUP4 MSTORE AND PUSH1 0x20 DUP3 ADD MSTORE PUSH0 PUSH1 0x40 DUP3 ADD MSTORE PUSH1 0x20 DUP4 MLOAD SWAP4 ADD SWAP3 PUSH1 0xFF DUP5 MLOAD AND SWAP2 PUSH2 0xB28 DUP4 DUP4 PUSH2 0x20F8 JUMP JUMPDEST PUSH2 0x340 DUP2 ADD DUP1 MLOAD PUSH1 0xC3 DUP2 LT ISZERO PUSH2 0x129 JUMPI ISZERO PUSH2 0x1828 JUMPI MLOAD PUSH1 0xC3 DUP2 LT ISZERO PUSH2 0x129 JUMPI PUSH2 0x1A2D PUSH2 0x58A JUMP JUMPDEST PUSH1 0xFF PUSH2 0x17BC SWAP3 PUSH1 0x15 DUP4 MSTORE AND PUSH1 0x20 DUP3 ADD MSTORE PUSH0 PUSH1 0x40 DUP3 ADD MSTORE PUSH1 0x20 DUP4 MLOAD SWAP4 ADD SWAP3 PUSH1 0xFF DUP5 MLOAD AND SWAP2 PUSH2 0xB28 DUP4 DUP4 PUSH2 0x20F8 JUMP JUMPDEST PUSH2 0x360 DUP2 ADD DUP1 MLOAD PUSH1 0x85 DUP2 LT ISZERO PUSH2 0x129 JUMPI ISZERO PUSH2 0x1828 JUMPI MLOAD PUSH1 0x85 DUP2 LT ISZERO PUSH2 0x129 JUMPI PUSH2 0x1A81 PUSH2 0x58A JUMP JUMPDEST PUSH1 0xFF PUSH2 0x17BC SWAP3 PUSH1 0x16 DUP4 MSTORE AND PUSH1 0x20 DUP3 ADD MSTORE PUSH0 PUSH1 0x40 DUP3 ADD MSTORE PUSH1 0x20 DUP4 MLOAD SWAP4 ADD SWAP3 PUSH1 0xFF DUP5 MLOAD AND SWAP2 PUSH2 0xB28 DUP4 DUP4 PUSH2 0x20F8 JUMP JUMPDEST PUSH2 0x380 DUP2 ADD DUP1 MLOAD PUSH1 0x83 DUP2 LT ISZERO PUSH2 0x129 JUMPI ISZERO PUSH2 0x1828 JUMPI MLOAD SWAP1 PUSH1 0x83 DUP3 LT ISZERO PUSH2 0x129 JUMPI PUSH2 0x1AD6 PUSH2 0x58A JUMP JUMPDEST SWAP2 PUSH1 0xFF SWAP1 PUSH1 0x17 DUP5 MSTORE AND PUSH1 0x20 DUP4 ADD MSTORE PUSH0 PUSH1 0x40 DUP4 ADD MSTORE PUSH2 0x1B05 DUP2 MLOAD SWAP3 PUSH1 0x20 DUP4 ADD SWAP4 PUSH1 0xFF DUP6 MLOAD AND SWAP2 PUSH2 0xB28 DUP4 DUP4 PUSH2 0x20F8 JUMP JUMPDEST POP PUSH1 0xFF DUP3 MLOAD AND PUSH1 0xFF DUP2 EQ PUSH2 0xCC2 JUMPI PUSH1 0x1 ADD PUSH1 0xFF AND DUP3 MSTORE PUSH2 0x260 DUP2 ADD MLOAD PUSH1 0x1A DUP2 LT ISZERO PUSH2 0x129 JUMPI PUSH1 0x15 EQ PUSH2 0x1B35 JUMPI POP POP JUMP JUMPDEST PUSH1 0x40 MLOAD SWAP2 PUSH2 0x1B42 DUP4 PUSH2 0x430 JUMP JUMPDEST PUSH1 0x1A DUP4 MSTORE PUSH1 0x1 PUSH1 0x20 DUP5 ADD MSTORE MLOAD PUSH1 0xFF SWAP1 DUP2 AND PUSH0 NOT ADD SWAP1 DUP2 GT PUSH2 0xCC2 JUMPI PUSH1 0x60 SWAP2 PUSH1 0xFF PUSH2 0x1B80 SWAP3 AND SWAP1 PUSH1 0x1 PUSH1 0x40 PUSH2 0x1B77 DUP5 DUP5 MLOAD PUSH2 0x20F8 JUMP JUMPDEST MLOAD ADD MSTORE MLOAD PUSH2 0x20F8 JUMP JUMPDEST MLOAD ADD MSTORE JUMP JUMPDEST PUSH2 0x3A0 DUP2 ADD DUP1 MLOAD PUSH1 0x7A DUP2 LT ISZERO PUSH2 0x129 JUMPI ISZERO PUSH2 0x1828 JUMPI MLOAD PUSH1 0x7A DUP2 LT ISZERO PUSH2 0x129 JUMPI PUSH2 0x1BAC PUSH2 0x58A JUMP JUMPDEST PUSH1 0xFF PUSH2 0x17BC SWAP3 PUSH1 0x18 DUP4 MSTORE AND PUSH1 0x20 DUP3 ADD MSTORE PUSH0 PUSH1 0x40 DUP3 ADD MSTORE PUSH1 0x20 DUP4 MLOAD SWAP4 ADD SWAP3 PUSH1 0xFF DUP5 MLOAD AND SWAP2 PUSH2 0xB28 DUP4 DUP4 PUSH2 0x20F8 JUMP JUMPDEST PUSH2 0x100 DUP2 ADD DUP1 MLOAD PUSH2 0x1BE9 DUP2 PUSH2 0x13D JUMP JUMPDEST PUSH2 0x1BF2 DUP2 PUSH2 0x13D JUMP JUMPDEST ISZERO PUSH2 0x1828 JUMPI MLOAD PUSH2 0x1C01 DUP2 PUSH2 0x13D JUMP JUMPDEST PUSH2 0x1C0A DUP2 PUSH2 0x13D JUMP JUMPDEST PUSH2 0x1C12 PUSH2 0x58A JUMP JUMPDEST PUSH1 0xFF PUSH2 0x17BC SWAP3 PUSH1 0x3 DUP4 MSTORE AND PUSH1 0x20 DUP3 ADD MSTORE PUSH0 PUSH1 0x40 DUP3 ADD MSTORE PUSH1 0x20 DUP4 MLOAD SWAP4 ADD SWAP3 PUSH1 0xFF DUP5 MLOAD AND SWAP2 PUSH2 0xB28 DUP4 DUP4 PUSH2 0x20F8 JUMP JUMPDEST PUSH2 0x120 DUP2 ADD DUP1 MLOAD PUSH1 0x14 DUP2 LT ISZERO PUSH2 0x129 JUMPI ISZERO PUSH2 0x1828 JUMPI MLOAD PUSH1 0x14 DUP2 LT ISZERO PUSH2 0x129 JUMPI PUSH2 0x1C66 PUSH2 0x58A JUMP JUMPDEST PUSH1 0xFF PUSH2 0x17BC SWAP3 PUSH1 0x4 DUP4 MSTORE AND PUSH1 0x20 DUP3 ADD MSTORE PUSH0 PUSH1 0x40 DUP3 ADD MSTORE PUSH1 0x20 DUP4 MLOAD SWAP4 ADD SWAP3 PUSH1 0xFF DUP5 MLOAD AND SWAP2 PUSH2 0xB28 DUP4 DUP4 PUSH2 0x20F8 JUMP JUMPDEST PUSH2 0x140 DUP2 ADD DUP1 MLOAD PUSH2 0x1CA3 DUP2 PUSH2 0x147 JUMP JUMPDEST PUSH2 0x1CAC DUP2 PUSH2 0x147 JUMP JUMPDEST ISZERO PUSH2 0x1828 JUMPI MLOAD PUSH2 0x1CBB DUP2 PUSH2 0x147 JUMP JUMPDEST PUSH2 0x1CC4 DUP2 PUSH2 0x147 JUMP JUMPDEST PUSH2 0x1CCC PUSH2 0x58A JUMP JUMPDEST PUSH1 0xFF PUSH2 0x17BC SWAP3 PUSH1 0x5 DUP4 MSTORE AND PUSH1 0x20 DUP3 ADD MSTORE PUSH0 PUSH1 0x40 DUP3 ADD MSTORE PUSH1 0x20 DUP4 MLOAD SWAP4 ADD SWAP3 PUSH1 0xFF DUP5 MLOAD AND SWAP2 PUSH2 0xB28 DUP4 DUP4 PUSH2 0x20F8 JUMP JUMPDEST PUSH2 0x160 DUP2 ADD DUP1 MLOAD PUSH2 0x1D09 DUP2 PUSH2 0x147 JUMP JUMPDEST PUSH2 0x1D12 DUP2 PUSH2 0x147 JUMP JUMPDEST ISZERO PUSH2 0x1828 JUMPI MLOAD PUSH2 0x1D21 DUP2 PUSH2 0x147 JUMP JUMPDEST PUSH2 0x1D2A DUP2 PUSH2 0x147 JUMP JUMPDEST PUSH2 0x1D32 PUSH2 0x58A JUMP JUMPDEST PUSH1 0xFF PUSH2 0x17BC SWAP3 PUSH1 0x6 DUP4 MSTORE AND PUSH1 0x20 DUP3 ADD MSTORE PUSH0 PUSH1 0x40 DUP3 ADD MSTORE PUSH1 0x20 DUP4 MLOAD SWAP4 ADD SWAP3 PUSH1 0xFF DUP5 MLOAD AND SWAP2 PUSH2 0xB28 DUP4 DUP4 PUSH2 0x20F8 JUMP JUMPDEST PUSH2 0x1C0 DUP2 ADD DUP1 MLOAD PUSH1 0x16 DUP2 LT ISZERO PUSH2 0x129 JUMPI ISZERO PUSH2 0x1828 JUMPI MLOAD PUSH1 0x16 DUP2 LT ISZERO PUSH2 0x129 JUMPI PUSH2 0x1D86 PUSH2 0x58A JUMP JUMPDEST PUSH1 0xFF PUSH2 0x17BC SWAP3 PUSH1 0x8 DUP4 MSTORE AND PUSH1 0x20 DUP3 ADD MSTORE PUSH0 PUSH1 0x40 DUP3 ADD MSTORE PUSH1 0x20 DUP4 MLOAD SWAP4 ADD SWAP3 PUSH1 0xFF DUP5 MLOAD AND SWAP2 PUSH2 0xB28 DUP4 DUP4 PUSH2 0x20F8 JUMP JUMPDEST PUSH2 0x1A0 DUP2 ADD DUP1 MLOAD PUSH1 0x58 DUP2 LT ISZERO PUSH2 0x129 JUMPI ISZERO PUSH2 0x1828 JUMPI MLOAD PUSH1 0x58 DUP2 LT ISZERO PUSH2 0x129 JUMPI PUSH2 0x1DDA PUSH2 0x58A JUMP JUMPDEST PUSH1 0xFF PUSH2 0x17BC SWAP3 PUSH1 0x7 DUP4 MSTORE AND PUSH1 0x20 DUP3 ADD MSTORE PUSH0 PUSH1 0x40 DUP3 ADD MSTORE PUSH1 0x20 DUP4 MLOAD SWAP4 ADD SWAP3 PUSH1 0xFF DUP5 MLOAD AND SWAP2 PUSH2 0xB28 DUP4 DUP4 PUSH2 0x20F8 JUMP JUMPDEST PUSH2 0x180 DUP2 ADD DUP1 MLOAD PUSH2 0x1E17 DUP2 PUSH2 0x151 JUMP JUMPDEST PUSH2 0x1E20 DUP2 PUSH2 0x151 JUMP JUMPDEST ISZERO PUSH2 0x1828 JUMPI MLOAD PUSH2 0x1E2F DUP2 PUSH2 0x151 JUMP JUMPDEST PUSH2 0x1E38 DUP2 PUSH2 0x151 JUMP JUMPDEST PUSH2 0x1E40 PUSH2 0x58A JUMP JUMPDEST PUSH1 0xFF PUSH2 0x17BC SWAP3 PUSH1 0x9 DUP4 MSTORE AND PUSH1 0x20 DUP3 ADD MSTORE PUSH0 PUSH1 0x40 DUP3 ADD MSTORE PUSH1 0x20 DUP4 MLOAD SWAP4 ADD SWAP3 PUSH1 0xFF DUP5 MLOAD AND SWAP2 PUSH2 0xB28 DUP4 DUP4 PUSH2 0x20F8 JUMP JUMPDEST PUSH2 0x1E0 DUP2 ADD DUP1 MLOAD PUSH1 0xD4 DUP2 LT ISZERO PUSH2 0x129 JUMPI ISZERO PUSH2 0x1828 JUMPI MLOAD PUSH1 0xD4 DUP2 LT ISZERO PUSH2 0x129 JUMPI PUSH2 0x1E94 PUSH2 0x58A JUMP JUMPDEST PUSH1 0xFF PUSH2 0x17BC SWAP3 PUSH1 0xA DUP4 MSTORE AND PUSH1 0x20 DUP3 ADD MSTORE PUSH0 PUSH1 0x40 DUP3 ADD MSTORE PUSH1 0x20 DUP4 MLOAD SWAP4 ADD SWAP3 PUSH1 0xFF DUP5 MLOAD AND SWAP2 PUSH2 0xB28 DUP4 DUP4 PUSH2 0x20F8 JUMP JUMPDEST PUSH2 0x200 DUP2 ADD DUP1 MLOAD PUSH1 0x6A DUP2 LT ISZERO PUSH2 0x129 JUMPI ISZERO PUSH2 0x1828 JUMPI MLOAD PUSH1 0x6A DUP2 LT ISZERO PUSH2 0x129 JUMPI PUSH2 0x1EE8 PUSH2 0x58A JUMP JUMPDEST PUSH1 0xFF PUSH2 0x17BC SWAP3 PUSH1 0xB DUP4 MSTORE AND PUSH1 0x20 DUP3 ADD MSTORE PUSH0 PUSH1 0x40 DUP3 ADD MSTORE PUSH1 0x20 DUP4 MLOAD SWAP4 ADD SWAP3 PUSH1 0xFF DUP5 MLOAD AND SWAP2 PUSH2 0xB28 DUP4 DUP4 PUSH2 0x20F8 JUMP JUMPDEST PUSH2 0x220 DUP2 ADD DUP1 MLOAD PUSH1 0xA9 DUP2 LT ISZERO PUSH2 0x129 JUMPI ISZERO PUSH2 0x1828 JUMPI MLOAD SWAP1 PUSH1 0xA9 DUP3 LT ISZERO PUSH2 0x129 JUMPI PUSH2 0x1F3D PUSH2 0x58A JUMP JUMPDEST SWAP2 PUSH1 0xFF SWAP1 PUSH1 0xC DUP5 MSTORE AND PUSH1 0x20 DUP4 ADD MSTORE PUSH0 PUSH1 0x40 DUP4 ADD MSTORE PUSH2 0x1F6C DUP2 MLOAD SWAP3 PUSH1 0x20 DUP4 ADD SWAP4 PUSH1 0xFF DUP6 MLOAD AND SWAP2 PUSH2 0xB28 DUP4 DUP4 PUSH2 0x20F8 JUMP JUMPDEST POP PUSH1 0xFF DUP3 MLOAD AND PUSH1 0xFF DUP2 EQ PUSH2 0xCC2 JUMPI PUSH1 0x1 ADD PUSH1 0xFF AND DUP3 MSTORE PUSH1 0xE0 DUP2 ADD DUP1 MLOAD PUSH1 0x1D DUP2 LT ISZERO PUSH2 0x129 JUMPI PUSH1 0x16 EQ PUSH2 0x1FF0 JUMPI JUMPDEST MLOAD PUSH1 0x1D DUP2 LT ISZERO PUSH2 0x129 JUMPI PUSH1 0x15 EQ PUSH2 0x1FAE JUMPI POP POP JUMP JUMPDEST PUSH1 0x40 MLOAD SWAP2 PUSH2 0x1FBB DUP4 PUSH2 0x430 JUMP JUMPDEST PUSH1 0x1A DUP4 MSTORE PUSH1 0x2 PUSH1 0x20 DUP5 ADD MSTORE MLOAD PUSH1 0xFF SWAP1 DUP2 AND PUSH0 NOT ADD SWAP1 DUP2 GT PUSH2 0xCC2 JUMPI PUSH1 0x60 SWAP2 PUSH1 0xFF PUSH2 0x1B80 SWAP3 AND SWAP1 PUSH1 0x1 PUSH1 0x40 PUSH2 0x1B77 DUP5 DUP5 MLOAD PUSH2 0x20F8 JUMP JUMPDEST PUSH1 0x40 MLOAD PUSH2 0x1FFC DUP2 PUSH2 0x430 JUMP JUMPDEST PUSH1 0x1A DUP2 MSTORE PUSH1 0x3 PUSH1 0x20 DUP3 ADD MSTORE DUP4 MLOAD PUSH1 0xFF SWAP1 DUP2 AND PUSH0 NOT ADD SWAP1 DUP2 GT PUSH2 0xCC2 JUMPI PUSH2 0x203A PUSH1 0xFF PUSH1 0x60 SWAP3 AND PUSH1 0x1 PUSH1 0x40 PUSH2 0x2030 DUP4 DUP10 MLOAD PUSH2 0x20F8 JUMP JUMPDEST MLOAD ADD MSTORE DUP6 MLOAD PUSH2 0x20F8 JUMP JUMPDEST MLOAD ADD MSTORE PUSH2 0x1F99 JUMP JUMPDEST PUSH2 0x240 DUP2 ADD DUP1 MLOAD PUSH1 0x80 DUP2 LT ISZERO PUSH2 0x129 JUMPI ISZERO PUSH2 0x1828 JUMPI MLOAD PUSH1 0x80 DUP2 LT ISZERO PUSH2 0x129 JUMPI PUSH2 0x2069 PUSH2 0x58A JUMP JUMPDEST PUSH1 0xFF PUSH2 0x17BC SWAP3 PUSH1 0xD DUP4 MSTORE AND PUSH1 0x20 DUP3 ADD MSTORE PUSH0 PUSH1 0x40 DUP3 ADD MSTORE PUSH1 0x20 DUP4 MLOAD SWAP4 ADD SWAP3 PUSH1 0xFF DUP5 MLOAD AND SWAP2 PUSH2 0xB28 DUP4 DUP4 PUSH2 0x20F8 JUMP JUMPDEST PUSH2 0x3C0 DUP2 ADD DUP1 MLOAD PUSH2 0x20A6 DUP2 PUSH2 0x13D JUMP JUMPDEST PUSH2 0x20AF DUP2 PUSH2 0x13D JUMP JUMPDEST ISZERO PUSH2 0x1828 JUMPI MLOAD PUSH2 0x20BE DUP2 PUSH2 0x13D JUMP JUMPDEST PUSH2 0x20C7 DUP2 PUSH2 0x13D JUMP JUMPDEST PUSH2 0x20CF PUSH2 0x58A JUMP JUMPDEST PUSH1 0xFF PUSH2 0x17BC SWAP3 PUSH1 0x19 DUP4 MSTORE AND PUSH1 0x20 DUP3 ADD MSTORE PUSH0 PUSH1 0x40 DUP3 ADD MSTORE PUSH1 0x20 DUP4 MLOAD SWAP4 ADD SWAP3 PUSH1 0xFF DUP5 MLOAD AND SWAP2 PUSH2 0xB28 DUP4 DUP4 JUMPDEST DUP1 MLOAD DUP3 LT ISZERO PUSH2 0x210C JUMPI PUSH1 0x20 SWAP2 PUSH1 0x5 SHL ADD ADD SWAP1 JUMP JUMPDEST PUSH4 0x4E487B71 PUSH1 0xE0 SHL PUSH0 MSTORE PUSH1 0x32 PUSH1 0x4 MSTORE PUSH1 0x24 PUSH0 REVERT INVALID LOG2 PUSH5 0x6970667358 0x22 SLT KECCAK256 SWAP14 0xC6 DATALOADN 0x2864 PUSH25 0xE408B721D777C7755DD1112C1A20736C27066F8457BFEB5CD9 EOFCREATE 0x64 PUSH20 0x6F6C634300081E00330000000000000000000000 "
		},
		"gasEstimates": {
			"creation": {
				"codeDepositCost": "1706800",
				"executionCost": "infinite",
				"totalCost": "infinite"
			},
			"external": {
				"FEMALE_PROBS_CONTRACT()": "infinite",
				"MALE_PROBS_CONTRACT()": "infinite",
				"generateAllTraits(uint16,uint16,uint256)": "infinite"
			},
			"internal": {
				"_addBackground(struct TraitsContext memory)": "infinite",
				"_addFemaleChain(struct TraitsContext memory)": "infinite",
				"_addFemaleEarring(struct TraitsContext memory)": "infinite",
				"_addFemaleEyeWear(struct TraitsContext memory)": "infinite",
				"_addFemaleEyes(struct TraitsContext memory)": "infinite",
				"_addFemaleFace(struct TraitsContext memory)": "infinite",
				"_addFemaleHair(struct TraitsContext memory)": "infinite",
				"_addFemaleHatHair(struct TraitsContext memory)": "infinite",
				"_addFemaleHeadwear(struct TraitsContext memory)": "infinite",
				"_addFemaleMask(struct TraitsContext memory)": "infinite",
				"_addFemaleScarf(struct TraitsContext memory)": "infinite",
				"_addFemaleSkin(struct TraitsContext memory)": "infinite",
				"_addFillerTrait(struct TraitsContext memory,enum E_TraitsGroup,uint8)": "infinite",
				"_addMaleChain(struct TraitsContext memory)": "infinite",
				"_addMaleEarring(struct TraitsContext memory)": "infinite",
				"_addMaleEyeWear(struct TraitsContext memory)": "infinite",
				"_addMaleEyes(struct TraitsContext memory)": "infinite",
				"_addMaleFace(struct TraitsContext memory)": "infinite",
				"_addMaleFacialHair(struct TraitsContext memory)": "infinite",
				"_addMaleHair(struct TraitsContext memory)": "infinite",
				"_addMaleHatHair(struct TraitsContext memory)": "infinite",
				"_addMaleHeadwear(struct TraitsContext memory)": "infinite",
				"_addMaleMask(struct TraitsContext memory)": "infinite",
				"_addMaleScarf(struct TraitsContext memory)": "infinite",
				"_addMaleSkin(struct TraitsContext memory)": "infinite",
				"_addMouth(struct TraitsContext memory)": "infinite",
				"_addSpecial(struct TraitsContext memory,uint256)": "infinite",
				"_addTraitToRender(struct TraitsContext memory,enum E_TraitsGroup,uint8)": "infinite",
				"_isPreRendered(uint256)": "infinite"
			}
		},
		"methodIdentifiers": {
			"FEMALE_PROBS_CONTRACT()": "069157c0",
			"MALE_PROBS_CONTRACT()": "033b42a8",
			"generateAllTraits(uint16,uint16,uint256)": "fd20cb60"
		}
	},
	"abi": [
		{
			"inputs": [
				{
					"internalType": "contract IMaleProbs",
					"name": "_maleProbsContract",
					"type": "address"
				},
				{
					"internalType": "contract IFemaleProbs",
					"name": "_femaleProbsContract",
					"type": "address"
				}
			],
			"stateMutability": "nonpayable",
			"type": "constructor"
		},
		{
			"inputs": [],
			"name": "FEMALE_PROBS_CONTRACT",
			"outputs": [
				{
					"internalType": "contract IFemaleProbs",
					"name": "",
					"type": "address"
				}
			],
			"stateMutability": "view",
			"type": "function"
		},
		{
			"inputs": [],
			"name": "MALE_PROBS_CONTRACT",
			"outputs": [
				{
					"internalType": "contract IMaleProbs",
					"name": "",
					"type": "address"
				}
			],
			"stateMutability": "view",
			"type": "function"
		},
		{
			"inputs": [
				{
					"internalType": "uint16",
					"name": "_tokenIdSeed",
					"type": "uint16"
				},
				{
					"internalType": "uint16",
					"name": "_backgroundIndex",
					"type": "uint16"
				},
				{
					"internalType": "uint256",
					"name": "_globalSeed",
					"type": "uint256"
				}
			],
			"name": "generateAllTraits",
			"outputs": [
				{
					"components": [
						{
							"components": [
								{
									"internalType": "enum E_TraitsGroup",
									"name": "traitGroup",
									"type": "uint8"
								},
								{
									"internalType": "uint8",
									"name": "traitIndex",
									"type": "uint8"
								},
								{
									"internalType": "bool",
									"name": "hasFiller",
									"type": "bool"
								},
								{
									"components": [
										{
											"internalType": "enum E_TraitsGroup",
											"name": "traitGroup",
											"type": "uint8"
										},
										{
											"internalType": "uint8",
											"name": "traitIndex",
											"type": "uint8"
										}
									],
									"internalType": "struct FillerTrait",
									"name": "filler",
									"type": "tuple"
								}
							],
							"internalType": "struct TraitToRender[]",
							"name": "traitsToRender",
							"type": "tuple[]"
						},
						{
							"internalType": "uint8",
							"name": "traitsToRenderLength",
							"type": "uint8"
						},
						{
							"internalType": "uint16",
							"name": "tokenIdSeed",
							"type": "uint16"
						},
						{
							"internalType": "uint16",
							"name": "specialId",
							"type": "uint16"
						},
						{
							"internalType": "uint32",
							"name": "birthday",
							"type": "uint32"
						},
						{
							"internalType": "enum E_Sex",
							"name": "sex",
							"type": "uint8"
						},
						{
							"internalType": "enum E_Background",
							"name": "background",
							"type": "uint8"
						},
						{
							"internalType": "enum E_Male_Skin",
							"name": "maleSkin",
							"type": "uint8"
						},
						{
							"internalType": "enum E_Male_Eyes",
							"name": "maleEyes",
							"type": "uint8"
						},
						{
							"internalType": "enum E_Male_Face",
							"name": "maleFace",
							"type": "uint8"
						},
						{
							"internalType": "enum E_Male_Chain",
							"name": "maleChain",
							"type": "uint8"
						},
						{
							"internalType": "enum E_Male_Earring",
							"name": "maleEarring",
							"type": "uint8"
						},
						{
							"internalType": "enum E_Male_Scarf",
							"name": "maleScarf",
							"type": "uint8"
						},
						{
							"internalType": "enum E_Male_Facial_Hair",
							"name": "maleFacialHair",
							"type": "uint8"
						},
						{
							"internalType": "enum E_Male_Mask",
							"name": "maleMask",
							"type": "uint8"
						},
						{
							"internalType": "enum E_Male_Hair",
							"name": "maleHair",
							"type": "uint8"
						},
						{
							"internalType": "enum E_Male_Hat_Hair",
							"name": "maleHatHair",
							"type": "uint8"
						},
						{
							"internalType": "enum E_Male_Headwear",
							"name": "maleHeadwear",
							"type": "uint8"
						},
						{
							"internalType": "enum E_Male_Eye_Wear",
							"name": "maleEyeWear",
							"type": "uint8"
						},
						{
							"internalType": "enum E_Female_Skin",
							"name": "femaleSkin",
							"type": "uint8"
						},
						{
							"internalType": "enum E_Female_Eyes",
							"name": "femaleEyes",
							"type": "uint8"
						},
						{
							"internalType": "enum E_Female_Face",
							"name": "femaleFace",
							"type": "uint8"
						},
						{
							"internalType": "enum E_Female_Chain",
							"name": "femaleChain",
							"type": "uint8"
						},
						{
							"internalType": "enum E_Female_Earring",
							"name": "femaleEarring",
							"type": "uint8"
						},
						{
							"internalType": "enum E_Female_Scarf",
							"name": "femaleScarf",
							"type": "uint8"
						},
						{
							"internalType": "enum E_Female_Mask",
							"name": "femaleMask",
							"type": "uint8"
						},
						{
							"internalType": "enum E_Female_Hair",
							"name": "femaleHair",
							"type": "uint8"
						},
						{
							"internalType": "enum E_Female_Hat_Hair",
							"name": "femaleHatHair",
							"type": "uint8"
						},
						{
							"internalType": "enum E_Female_Headwear",
							"name": "femaleHeadwear",
							"type": "uint8"
						},
						{
							"internalType": "enum E_Female_Eye_Wear",
							"name": "femaleEyeWear",
							"type": "uint8"
						},
						{
							"internalType": "enum E_Mouth",
							"name": "mouth",
							"type": "uint8"
						}
					],
					"internalType": "struct TraitsContext",
					"name": "",
					"type": "tuple"
				}
			],
			"stateMutability": "view",
			"type": "function"
		}
	]
}